{"abi":[{"anonymous":false,"inputs":[{"indexed":false,"internalType":"bytes32","name":"key","type":"bytes32"},{"indexed":false,"internalType":"uint256","name":"previousValue","type":"uint256"},{"indexed":false,"internalType":"uint256","name":"newValue","type":"uint256"}],"name":"ConfigChanged","type":"event"},{"anonymous":false,"inputs":[{"indexed":false,"internalType":"bytes32","name":"key","type":"bytes32"},{"indexed":false,"internalType":"address","name":"previousValue","type":"address"},{"indexed":false,"internalType":"address","name":"newValue","type":"address"}],"name":"ConfigChanged","type":"event"},{"anonymous":false,"inputs":[{"indexed":false,"internalType":"bytes32","name":"key","type":"bytes32"}],"name":"ConfigFrozen","type":"event"},{"anonymous":false,"inputs":[{"indexed":false,"internalType":"bytes32","name":"key","type":"bytes32"}],"name":"ConfigUnset","type":"event"},{"anonymous":false,"inputs":[{"indexed":false,"internalType":"address","name":"newGovernor","type":"address"}],"name":"GovernorChangeRequested","type":"event"},{"anonymous":false,"inputs":[{"indexed":false,"internalType":"address","name":"oldGovernor","type":"address"},{"indexed":false,"internalType":"address","name":"newGovernor","type":"address"}],"name":"GovernorChanged","type":"event"},{"anonymous":false,"inputs":[{"indexed":false,"internalType":"uint8","name":"version","type":"uint8"}],"name":"Initialized","type":"event"},{"inputs":[],"name":"acceptGovernance","outputs":[],"stateMutability":"nonpayable","type":"function"},{"inputs":[{"internalType":"address","name":"newGovernor","type":"address"}],"name":"changeGovernor","outputs":[],"stateMutability":"nonpayable","type":"function"},{"inputs":[{"internalType":"bytes32","name":"key","type":"bytes32"}],"name":"freeze","outputs":[],"stateMutability":"nonpayable","type":"function"},{"inputs":[{"internalType":"bytes32","name":"key","type":"bytes32"},{"internalType":"address","name":"defaultValue","type":"address"}],"name":"getAddress","outputs":[{"internalType":"address","name":"","type":"address"}],"stateMutability":"view","type":"function"},{"inputs":[{"internalType":"bytes32","name":"key","type":"bytes32"}],"name":"getAddress","outputs":[{"internalType":"address","name":"","type":"address"}],"stateMutability":"view","type":"function"},{"inputs":[{"internalType":"bytes32","name":"key","type":"bytes32"}],"name":"getConfigMeta","outputs":[{"internalType":"uint8","name":"","type":"uint8"},{"internalType":"bool","name":"","type":"bool"}],"stateMutability":"view","type":"function"},{"inputs":[{"internalType":"bytes32","name":"key","type":"bytes32"}],"name":"getUint","outputs":[{"internalType":"uint256","name":"","type":"uint256"}],"stateMutability":"view","type":"function"},{"inputs":[{"internalType":"bytes32","name":"key","type":"bytes32"},{"internalType":"uint256","name":"defaultValue","type":"uint256"}],"name":"getUint","outputs":[{"internalType":"uint256","name":"","type":"uint256"}],"stateMutability":"view","type":"function"},{"inputs":[],"name":"governor","outputs":[{"internalType":"address","name":"","type":"address"}],"stateMutability":"view","type":"function"},{"inputs":[{"internalType":"bytes32","name":"key","type":"bytes32"}],"name":"hasKey","outputs":[{"internalType":"bool","name":"","type":"bool"}],"stateMutability":"view","type":"function"},{"inputs":[{"internalType":"address","name":"_governor","type":"address"}],"name":"initialize","outputs":[],"stateMutability":"nonpayable","type":"function"},{"inputs":[],"name":"listKeys","outputs":[{"internalType":"bytes32[]","name":"","type":"bytes32[]"}],"stateMutability":"view","type":"function"},{"inputs":[],"name":"pendingGovernor","outputs":[{"internalType":"address","name":"","type":"address"}],"stateMutability":"view","type":"function"},{"inputs":[{"internalType":"bytes32","name":"key","type":"bytes32"},{"internalType":"address","name":"newValue","type":"address"}],"name":"setAddress","outputs":[],"stateMutability":"nonpayable","type":"function"},{"inputs":[{"internalType":"bytes32","name":"key","type":"bytes32"},{"internalType":"uint256","name":"newValue","type":"uint256"}],"name":"setUint","outputs":[],"stateMutability":"nonpayable","type":"function"},{"inputs":[{"internalType":"bytes32","name":"key","type":"bytes32"}],"name":"unset","outputs":[],"stateMutability":"nonpayable","type":"function"}],"bytecode":"608060405234801561001057600080fd5b5061001961001e565b6100eb565b600154600160a81b900460ff161561008c5760405162461bcd60e51b815260206004820152602760248201527f496e697469616c697a61626c653a20636f6e747261637420697320696e697469604482015266616c697a696e6760c81b606482015260840160405180910390fd5b60015460ff600160a01b909104811610156100e9576001805460ff60a01b191660ff60a01b17905560405160ff81527f7f26b83ff96e1f2b6a682f133852f6798a09c465da95921460cefb38474024989060200160405180910390a15b565b611131806100fa6000396000f3fe608060405234801561001057600080fd5b50600436106101005760003560e01c8063ca446dd911610097578063e4c0aaf411610066578063e4c0aaf414610234578063e964da1514610247578063ec13cc7b1461025a578063fd322c141461026d57600080fd5b8063ca446dd9146101cf578063cd014f0c146101e2578063e2a4853a1461020e578063e3056a341461022157600080fd5b8063696eb375116100d3578063696eb375146101655780639141d6f914610188578063bd02d0f51461019b578063c4d66de8146101bc57600080fd5b80630c340a241461010557806320d06ff91461013557806321f8a72114610148578063238efcbc1461015b575b600080fd5b600054610118906001600160a01b031681565b6040516001600160a01b0390911681526020015b60405180910390f35b610118610143366004610f63565b610282565b610118610156366004610f8f565b6102a2565b6101636102af565b005b610178610173366004610f8f565b610368565b604051901515815260200161012c565b610163610196366004610f8f565b610375565b6101ae6101a9366004610f8f565b610494565b60405190815260200161012c565b6101636101ca366004610fa8565b6104a1565b6101636101dd366004610f63565b6105cb565b6101f56101f0366004610f8f565b610675565b6040805160ff909316835290151560208301520161012c565b61016361021c366004610fc3565b6106d2565b600154610118906001600160a01b031681565b610163610242366004610fa8565b610767565b6101ae610255366004610fc3565b61083c565b610163610268366004610f8f565b61084a565b61027561095d565b60405161012c9190610fe5565b6000610299836001846001600160a01b0316610a01565b90505b92915050565b600061029c826001610a81565b600154604080518082019091526002815261033360f41b6020820152906001600160a01b031633146102fd5760405162461bcd60e51b81526004016102f49190611029565b60405180910390fd5b5060008054600180546001600160a01b03198084166001600160a01b03808416919091179095551690556040805192909116808352336020840152917fde4b3f61490b74c0ed6237523974fe299126bbbf8a8a7482fd220104c59b0c8491015b60405180910390a150565b600061029c603583610af6565b600054604080518082019091526002815261033360f41b6020820152906001600160a01b031633146103ba5760405162461bcd60e51b81526004016102f49190611029565b506000806103c783610b02565b92505091508160405180604001604052806002815260200161199960f11b815250906104065760405162461bcd60e51b81526004016102f49190611029565b50604080518082019091526002815261333360f01b6020820152811561043f5760405162461bcd60e51b81526004016102f49190611029565b5060008381526034602052604081205561045a603584610b36565b506040518381527f90e6f6dc5a05702effb7cb4f1eb2d30a76a0a0c4cb7accd3c069c2b8149d3594906020015b60405180910390a1505050565b600061029c826002610a81565b600154600160a81b900460ff16158080156104c7575060018054600160a01b900460ff16105b806104e75750303b1580156104e7575060018054600160a01b900460ff16145b61054a5760405162461bcd60e51b815260206004820152602e60248201527f496e697469616c697a61626c653a20636f6e747261637420697320616c72656160448201526d191e481a5b9a5d1a585b1a5e995960921b60648201526084016102f4565b6001805460ff60a01b1916600160a01b1790558015610577576001805460ff60a81b1916600160a81b1790555b61058082610b42565b80156105c7576001805460ff60a81b191681556040519081527f7f26b83ff96e1f2b6a682f133852f6798a09c465da95921460cefb38474024989060200160405180910390a15b5050565b600054604080518082019091526002815261033360f41b6020820152906001600160a01b031633146106105760405162461bcd60e51b81526004016102f49190611029565b50600061062883836001600160a01b03166001610b96565b604080518581526001600160a01b0380841660208301528516918101919091529091507f86709719730335e655237ec19f947f910603bbf35b01de8f98e5eb05922edb4390606001610487565b600080600080600061068686610b02565b9250925092508260405180604001604052806002815260200161199960f11b815250906106c65760405162461bcd60e51b81526004016102f49190611029565b50909590945092505050565b600054604080518082019091526002815261033360f41b6020820152906001600160a01b031633146107175760405162461bcd60e51b81526004016102f49190611029565b50600061072683836002610b96565b60408051858152602081018390529081018490529091507fda2476af668c5f7eb48f492f9bbd5a7e9d4293d64144b3b7be75a156803fb8be90606001610487565b600054604080518082019091526002815261033360f41b6020820152906001600160a01b031633146107ac5760405162461bcd60e51b81526004016102f49190611029565b50604080518082019091526002815261333160f01b60208201526001600160a01b0382166107ed5760405162461bcd60e51b81526004016102f49190611029565b50600180546001600160a01b0319166001600160a01b0383169081179091556040519081527f67235ba2e63c748a35b95c4f92a3bbc2a1389938170a5ce6c9add5d0b03a314a9060200161035d565b600061029983600284610a01565b600054604080518082019091526002815261033360f41b6020820152906001600160a01b0316331461088f5760405162461bcd60e51b81526004016102f49190611029565b50600080600061089e84610b02565b9250925092508260405180604001604052806002815260200161199960f11b815250906108de5760405162461bcd60e51b81526004016102f49190611029565b50604080518082019091526002815261333360f01b602082015281156109175760405162461bcd60e51b81526004016102f49190611029565b5061092484836001610c5d565b6040518481527f540251d20c832db9ca5e1ad5faa4320509054d7067fc1d7fa5856f4ccb69cf5c9060200160405180910390a150505050565b6060600061096b6035610c92565b905060008167ffffffffffffffff81111561098857610988611077565b6040519080825280602002602001820160405280156109b1578160200160208202803683370190505b50905060005b828110156109fa576109ca603582610c9d565b508282815181106109dd576109dd61108d565b6020908102919091010152806109f2816110b9565b9150506109b7565b5092915050565b6000806000610a0f86610b02565b509150915081610a23578392505050610a7a565b8460ff168160ff161460405180604001604052806002815260200161199960f11b81525090610a655760405162461bcd60e51b81526004016102f49190611029565b50505060008481526034602052604090205490505b9392505050565b6000806000610a8f85610b02565b5091509150818015610aa657508360ff168160ff16145b60405180604001604052806002815260200161199960f11b81525090610adf5760405162461bcd60e51b81526004016102f49190611029565b505050600092835250506034602052604090205490565b60006102998383610cbb565b6000808080610b12603586610cc7565b90945090508315610b2e57806001166001149150600881901c92505b509193909250565b60006102998383610cd6565b600080546001600160a01b0319166001600160a01b03831690811782556040805192835260208301919091527fde4b3f61490b74c0ed6237523974fe299126bbbf8a8a7482fd220104c59b0c84910161035d565b600080600080610ba587610b02565b925092509250821580610bbd57508460ff168260ff16145b60405180604001604052806002815260200161333160f01b81525090610bf65760405162461bcd60e51b81526004016102f49190611029565b50604080518082019091526002815261333360f01b60208201528115610c2f5760405162461bcd60e51b81526004016102f49190611029565b50600087815260346020526040812080549088905590610c529089908890610c5d565b979650505050505050565b600081610c6b576000610c6e565b60015b60ff16905061ff00600884901b168117610c8a60358683610cf3565b505050505050565b600061029c82610d08565b6000808080610cac8686610d13565b909450925050505b9250929050565b60006102998383610d3e565b6000808080610cac8686610d56565b600081815260028301602052604081208190556102998383610d90565b6000610d00848484610d9c565b949350505050565b600061029c82610db9565b60008080610d218585610dc3565b600081815260029690960160205260409095205494959350505050565b60008181526001830160205260408120541515610299565b6000818152600283016020526040812054819080610d8557610d788585610cbb565b925060009150610cb49050565b600192509050610cb4565b60006102998383610dcf565b60008281526002840160205260408120829055610d008484610ec2565b600061029c825490565b60006102998383610ece565b60008181526001830160205260408120548015610eb8576000610df36001836110d2565b8554909150600090610e07906001906110d2565b9050818114610e6c576000866000018281548110610e2757610e2761108d565b9060005260206000200154905080876000018481548110610e4a57610e4a61108d565b6000918252602080832090910192909255918252600188019052604090208390555b8554869080610e7d57610e7d6110e5565b60019003818190600052602060002001600090559055856001016000868152602001908152602001600020600090556001935050505061029c565b600091505061029c565b60006102998383610ef8565b6000826000018281548110610ee557610ee561108d565b9060005260206000200154905092915050565b6000818152600183016020526040812054610f3f5750815460018181018455600084815260208082209093018490558454848252828601909352604090209190915561029c565b50600061029c565b80356001600160a01b0381168114610f5e57600080fd5b919050565b60008060408385031215610f7657600080fd5b82359150610f8660208401610f47565b90509250929050565b600060208284031215610fa157600080fd5b5035919050565b600060208284031215610fba57600080fd5b61029982610f47565b60008060408385031215610fd657600080fd5b50508035926020909101359150565b6020808252825182820181905260009190848201906040850190845b8181101561101d57835183529284019291840191600101611001565b50909695505050505050565b600060208083528351808285015260005b818110156110565785810183015185820160400152820161103a565b506000604082860101526040601f19601f8301168501019250505092915050565b634e487b7160e01b600052604160045260246000fd5b634e487b7160e01b600052603260045260246000fd5b634e487b7160e01b600052601160045260246000fd5b6000600182016110cb576110cb6110a3565b5060010190565b8181038181111561029c5761029c6110a3565b634e487b7160e01b600052603160045260246000fdfea2646970667358221220ce9475ea693f070a6b2039391ba433916da8ef92d70ad745d51df2953a508b8564736f6c63430008110033","bytecodeSha1":"c4d87951601091a987f5ef26727fdeeb7f97cb5f","compiler":{"evm_version":"london","optimizer":{"enabled":true,"runs":200},"version":"0.8.17+commit.8df45f5f"},"contractName":"GyroConfig","language":"Solidity","natspec":{"kind":"dev","methods":{"acceptGovernance()":{"notice":"Called by the pending governor to approve the change"},"changeGovernor(address)":{"notice":"Changes the governor can only be called by the current governor"},"freeze(bytes32)":{"notice":"Freezes a key, making it impossible to update or unset"},"getAddress(bytes32)":{"notice":"Returns an address value from the config"},"getAddress(bytes32,address)":{"notice":"Returns an address value from the config or `defaultValue` if it does not exist"},"getConfigMeta(bytes32)":{"notice":"Returns the metadata associated with a particular config key"},"getUint(bytes32)":{"notice":"Returns a uint256 value from the config"},"getUint(bytes32,uint256)":{"notice":"Returns a uint256 value from the config or `defaultValue` if it does not exist"},"governor()":{"notice":"Returns the current governor"},"hasKey(bytes32)":{"notice":"Returns true if the configuration has the given key"},"listKeys()":{"notice":"Returns a set of known configuration keys"},"pendingGovernor()":{"notice":"Returns the pending governor"},"setAddress(bytes32,address)":{"notice":"Set an address config"},"setUint(bytes32,uint256)":{"notice":"Set a uint256 config NOTE: We avoid overloading to avoid complications with some clients"},"unset(bytes32)":{"notice":"Unset a key in the config"}},"version":1},"opcodes":"PUSH1 0x80 PUSH1 0x40 MSTORE CALLVALUE DUP1 ISZERO PUSH2 0x10 JUMPI PUSH1 0x0 DUP1 REVERT JUMPDEST POP PUSH1 0x4 CALLDATASIZE LT PUSH2 0x100 JUMPI PUSH1 0x0 CALLDATALOAD PUSH1 0xE0 SHR DUP1 PUSH4 0xCA446DD9 GT PUSH2 0x97 JUMPI DUP1 PUSH4 0xE4C0AAF4 GT PUSH2 0x66 JUMPI DUP1 PUSH4 0xE4C0AAF4 EQ PUSH2 0x234 JUMPI DUP1 PUSH4 0xE964DA15 EQ PUSH2 0x247 JUMPI DUP1 PUSH4 0xEC13CC7B EQ PUSH2 0x25A JUMPI DUP1 PUSH4 0xFD322C14 EQ PUSH2 0x26D JUMPI PUSH1 0x0 DUP1 REVERT JUMPDEST DUP1 PUSH4 0xCA446DD9 EQ PUSH2 0x1CF JUMPI DUP1 PUSH4 0xCD014F0C EQ PUSH2 0x1E2 JUMPI DUP1 PUSH4 0xE2A4853A EQ PUSH2 0x20E JUMPI DUP1 PUSH4 0xE3056A34 EQ PUSH2 0x221 JUMPI PUSH1 0x0 DUP1 REVERT JUMPDEST DUP1 PUSH4 0x696EB375 GT PUSH2 0xD3 JUMPI DUP1 PUSH4 0x696EB375 EQ PUSH2 0x165 JUMPI DUP1 PUSH4 0x9141D6F9 EQ PUSH2 0x188 JUMPI DUP1 PUSH4 0xBD02D0F5 EQ PUSH2 0x19B JUMPI DUP1 PUSH4 0xC4D66DE8 EQ PUSH2 0x1BC JUMPI PUSH1 0x0 DUP1 REVERT JUMPDEST DUP1 PUSH4 0xC340A24 EQ PUSH2 0x105 JUMPI DUP1 PUSH4 0x20D06FF9 EQ PUSH2 0x135 JUMPI DUP1 PUSH4 0x21F8A721 EQ PUSH2 0x148 JUMPI DUP1 PUSH4 0x238EFCBC EQ PUSH2 0x15B JUMPI JUMPDEST PUSH1 0x0 DUP1 REVERT JUMPDEST PUSH1 0x0 SLOAD PUSH2 0x118 SWAP1 PUSH1 0x1 PUSH1 0x1 PUSH1 0xA0 SHL SUB AND DUP2 JUMP JUMPDEST PUSH1 0x40 MLOAD PUSH1 0x1 PUSH1 0x1 PUSH1 0xA0 SHL SUB SWAP1 SWAP2 AND DUP2 MSTORE PUSH1 0x20 ADD JUMPDEST PUSH1 0x40 MLOAD DUP1 SWAP2 SUB SWAP1 RETURN JUMPDEST PUSH2 0x118 PUSH2 0x143 CALLDATASIZE PUSH1 0x4 PUSH2 0xF63 JUMP JUMPDEST PUSH2 0x282 JUMP JUMPDEST PUSH2 0x118 PUSH2 0x156 CALLDATASIZE PUSH1 0x4 PUSH2 0xF8F JUMP JUMPDEST PUSH2 0x2A2 JUMP JUMPDEST PUSH2 0x163 PUSH2 0x2AF JUMP JUMPDEST STOP JUMPDEST PUSH2 0x178 PUSH2 0x173 CALLDATASIZE PUSH1 0x4 PUSH2 0xF8F JUMP JUMPDEST PUSH2 0x368 JUMP JUMPDEST PUSH1 0x40 MLOAD SWAP1 ISZERO ISZERO DUP2 MSTORE PUSH1 0x20 ADD PUSH2 0x12C JUMP JUMPDEST PUSH2 0x163 PUSH2 0x196 CALLDATASIZE PUSH1 0x4 PUSH2 0xF8F JUMP JUMPDEST PUSH2 0x375 JUMP JUMPDEST PUSH2 0x1AE PUSH2 0x1A9 CALLDATASIZE PUSH1 0x4 PUSH2 0xF8F JUMP JUMPDEST PUSH2 0x494 JUMP JUMPDEST PUSH1 0x40 MLOAD SWAP1 DUP2 MSTORE PUSH1 0x20 ADD PUSH2 0x12C JUMP JUMPDEST PUSH2 0x163 PUSH2 0x1CA CALLDATASIZE PUSH1 0x4 PUSH2 0xFA8 JUMP JUMPDEST PUSH2 0x4A1 JUMP JUMPDEST PUSH2 0x163 PUSH2 0x1DD CALLDATASIZE PUSH1 0x4 PUSH2 0xF63 JUMP JUMPDEST PUSH2 0x5CB JUMP JUMPDEST PUSH2 0x1F5 PUSH2 0x1F0 CALLDATASIZE PUSH1 0x4 PUSH2 0xF8F JUMP JUMPDEST PUSH2 0x675 JUMP JUMPDEST PUSH1 0x40 DUP1 MLOAD PUSH1 0xFF SWAP1 SWAP4 AND DUP4 MSTORE SWAP1 ISZERO ISZERO PUSH1 0x20 DUP4 ADD MSTORE ADD PUSH2 0x12C JUMP JUMPDEST PUSH2 0x163 PUSH2 0x21C CALLDATASIZE PUSH1 0x4 PUSH2 0xFC3 JUMP JUMPDEST PUSH2 0x6D2 JUMP JUMPDEST PUSH1 0x1 SLOAD PUSH2 0x118 SWAP1 PUSH1 0x1 PUSH1 0x1 PUSH1 0xA0 SHL SUB AND DUP2 JUMP JUMPDEST PUSH2 0x163 PUSH2 0x242 CALLDATASIZE PUSH1 0x4 PUSH2 0xFA8 JUMP JUMPDEST PUSH2 0x767 JUMP JUMPDEST PUSH2 0x1AE PUSH2 0x255 CALLDATASIZE PUSH1 0x4 PUSH2 0xFC3 JUMP JUMPDEST PUSH2 0x83C JUMP JUMPDEST PUSH2 0x163 PUSH2 0x268 CALLDATASIZE PUSH1 0x4 PUSH2 0xF8F JUMP JUMPDEST PUSH2 0x84A JUMP JUMPDEST PUSH2 0x275 PUSH2 0x95D JUMP JUMPDEST PUSH1 0x40 MLOAD PUSH2 0x12C SWAP2 SWAP1 PUSH2 0xFE5 JUMP JUMPDEST PUSH1 0x0 PUSH2 0x299 DUP4 PUSH1 0x1 DUP5 PUSH1 0x1 PUSH1 0x1 PUSH1 0xA0 SHL SUB AND PUSH2 0xA01 JUMP JUMPDEST SWAP1 POP JUMPDEST SWAP3 SWAP2 POP POP JUMP JUMPDEST PUSH1 0x0 PUSH2 0x29C DUP3 PUSH1 0x1 PUSH2 0xA81 JUMP JUMPDEST PUSH1 0x1 SLOAD PUSH1 0x40 DUP1 MLOAD DUP1 DUP3 ADD SWAP1 SWAP2 MSTORE PUSH1 0x2 DUP2 MSTORE PUSH2 0x333 PUSH1 0xF4 SHL PUSH1 0x20 DUP3 ADD MSTORE SWAP1 PUSH1 0x1 PUSH1 0x1 PUSH1 0xA0 SHL SUB AND CALLER EQ PUSH2 0x2FD JUMPI PUSH1 0x40 MLOAD PUSH3 0x461BCD PUSH1 0xE5 SHL DUP2 MSTORE PUSH1 0x4 ADD PUSH2 0x2F4 SWAP2 SWAP1 PUSH2 0x1029 JUMP JUMPDEST PUSH1 0x40 MLOAD DUP1 SWAP2 SUB SWAP1 REVERT JUMPDEST POP PUSH1 0x0 DUP1 SLOAD PUSH1 0x1 DUP1 SLOAD PUSH1 0x1 PUSH1 0x1 PUSH1 0xA0 SHL SUB NOT DUP1 DUP5 AND PUSH1 0x1 PUSH1 0x1 PUSH1 0xA0 SHL SUB DUP1 DUP5 AND SWAP2 SWAP1 SWAP2 OR SWAP1 SWAP6 SSTORE AND SWAP1 SSTORE PUSH1 0x40 DUP1 MLOAD SWAP3 SWAP1 SWAP2 AND DUP1 DUP4 MSTORE CALLER PUSH1 0x20 DUP5 ADD MSTORE SWAP2 PUSH32 0xDE4B3F61490B74C0ED6237523974FE299126BBBF8A8A7482FD220104C59B0C84 SWAP2 ADD JUMPDEST PUSH1 0x40 MLOAD DUP1 SWAP2 SUB SWAP1 LOG1 POP JUMP JUMPDEST PUSH1 0x0 PUSH2 0x29C PUSH1 0x35 DUP4 PUSH2 0xAF6 JUMP JUMPDEST PUSH1 0x0 SLOAD PUSH1 0x40 DUP1 MLOAD DUP1 DUP3 ADD SWAP1 SWAP2 MSTORE PUSH1 0x2 DUP2 MSTORE PUSH2 0x333 PUSH1 0xF4 SHL PUSH1 0x20 DUP3 ADD MSTORE SWAP1 PUSH1 0x1 PUSH1 0x1 PUSH1 0xA0 SHL SUB AND CALLER EQ PUSH2 0x3BA JUMPI PUSH1 0x40 MLOAD PUSH3 0x461BCD PUSH1 0xE5 SHL DUP2 MSTORE PUSH1 0x4 ADD PUSH2 0x2F4 SWAP2 SWAP1 PUSH2 0x1029 JUMP JUMPDEST POP PUSH1 0x0 DUP1 PUSH2 0x3C7 DUP4 PUSH2 0xB02 JUMP JUMPDEST SWAP3 POP POP SWAP2 POP DUP2 PUSH1 0x40 MLOAD DUP1 PUSH1 0x40 ADD PUSH1 0x40 MSTORE DUP1 PUSH1 0x2 DUP2 MSTORE PUSH1 0x20 ADD PUSH2 0x1999 PUSH1 0xF1 SHL DUP2 MSTORE POP SWAP1 PUSH2 0x406 JUMPI PUSH1 0x40 MLOAD PUSH3 0x461BCD PUSH1 0xE5 SHL DUP2 MSTORE PUSH1 0x4 ADD PUSH2 0x2F4 SWAP2 SWAP1 PUSH2 0x1029 JUMP JUMPDEST POP PUSH1 0x40 DUP1 MLOAD DUP1 DUP3 ADD SWAP1 SWAP2 MSTORE PUSH1 0x2 DUP2 MSTORE PUSH2 0x3333 PUSH1 0xF0 SHL PUSH1 0x20 DUP3 ADD MSTORE DUP2 ISZERO PUSH2 0x43F JUMPI PUSH1 0x40 MLOAD PUSH3 0x461BCD PUSH1 0xE5 SHL DUP2 MSTORE PUSH1 0x4 ADD PUSH2 0x2F4 SWAP2 SWAP1 PUSH2 0x1029 JUMP JUMPDEST POP PUSH1 0x0 DUP4 DUP2 MSTORE PUSH1 0x34 PUSH1 0x20 MSTORE PUSH1 0x40 DUP2 KECCAK256 SSTORE PUSH2 0x45A PUSH1 0x35 DUP5 PUSH2 0xB36 JUMP JUMPDEST POP PUSH1 0x40 MLOAD DUP4 DUP2 MSTORE PUSH32 0x90E6F6DC5A05702EFFB7CB4F1EB2D30A76A0A0C4CB7ACCD3C069C2B8149D3594 SWAP1 PUSH1 0x20 ADD JUMPDEST PUSH1 0x40 MLOAD DUP1 SWAP2 SUB SWAP1 LOG1 POP POP POP JUMP JUMPDEST PUSH1 0x0 PUSH2 0x29C DUP3 PUSH1 0x2 PUSH2 0xA81 JUMP JUMPDEST PUSH1 0x1 SLOAD PUSH1 0x1 PUSH1 0xA8 SHL SWAP1 DIV PUSH1 0xFF AND ISZERO DUP1 DUP1 ISZERO PUSH2 0x4C7 JUMPI POP PUSH1 0x1 DUP1 SLOAD PUSH1 0x1 PUSH1 0xA0 SHL SWAP1 DIV PUSH1 0xFF AND LT JUMPDEST DUP1 PUSH2 0x4E7 JUMPI POP ADDRESS EXTCODESIZE ISZERO DUP1 ISZERO PUSH2 0x4E7 JUMPI POP PUSH1 0x1 DUP1 SLOAD PUSH1 0x1 PUSH1 0xA0 SHL SWAP1 DIV PUSH1 0xFF AND EQ JUMPDEST PUSH2 0x54A JUMPI PUSH1 0x40 MLOAD PUSH3 0x461BCD PUSH1 0xE5 SHL DUP2 MSTORE PUSH1 0x20 PUSH1 0x4 DUP3 ADD MSTORE PUSH1 0x2E PUSH1 0x24 DUP3 ADD MSTORE PUSH32 0x496E697469616C697A61626C653A20636F6E747261637420697320616C726561 PUSH1 0x44 DUP3 ADD MSTORE PUSH14 0x191E481A5B9A5D1A585B1A5E9959 PUSH1 0x92 SHL PUSH1 0x64 DUP3 ADD MSTORE PUSH1 0x84 ADD PUSH2 0x2F4 JUMP JUMPDEST PUSH1 0x1 DUP1 SLOAD PUSH1 0xFF PUSH1 0xA0 SHL NOT AND PUSH1 0x1 PUSH1 0xA0 SHL OR SWAP1 SSTORE DUP1 ISZERO PUSH2 0x577 JUMPI PUSH1 0x1 DUP1 SLOAD PUSH1 0xFF PUSH1 0xA8 SHL NOT AND PUSH1 0x1 PUSH1 0xA8 SHL OR SWAP1 SSTORE JUMPDEST PUSH2 0x580 DUP3 PUSH2 0xB42 JUMP JUMPDEST DUP1 ISZERO PUSH2 0x5C7 JUMPI PUSH1 0x1 DUP1 SLOAD PUSH1 0xFF PUSH1 0xA8 SHL NOT AND DUP2 SSTORE PUSH1 0x40 MLOAD SWAP1 DUP2 MSTORE PUSH32 0x7F26B83FF96E1F2B6A682F133852F6798A09C465DA95921460CEFB3847402498 SWAP1 PUSH1 0x20 ADD PUSH1 0x40 MLOAD DUP1 SWAP2 SUB SWAP1 LOG1 JUMPDEST POP POP JUMP JUMPDEST PUSH1 0x0 SLOAD PUSH1 0x40 DUP1 MLOAD DUP1 DUP3 ADD SWAP1 SWAP2 MSTORE PUSH1 0x2 DUP2 MSTORE PUSH2 0x333 PUSH1 0xF4 SHL PUSH1 0x20 DUP3 ADD MSTORE SWAP1 PUSH1 0x1 PUSH1 0x1 PUSH1 0xA0 SHL SUB AND CALLER EQ PUSH2 0x610 JUMPI PUSH1 0x40 MLOAD PUSH3 0x461BCD PUSH1 0xE5 SHL DUP2 MSTORE PUSH1 0x4 ADD PUSH2 0x2F4 SWAP2 SWAP1 PUSH2 0x1029 JUMP JUMPDEST POP PUSH1 0x0 PUSH2 0x628 DUP4 DUP4 PUSH1 0x1 PUSH1 0x1 PUSH1 0xA0 SHL SUB AND PUSH1 0x1 PUSH2 0xB96 JUMP JUMPDEST PUSH1 0x40 DUP1 MLOAD DUP6 DUP2 MSTORE PUSH1 0x1 PUSH1 0x1 PUSH1 0xA0 SHL SUB DUP1 DUP5 AND PUSH1 0x20 DUP4 ADD MSTORE DUP6 AND SWAP2 DUP2 ADD SWAP2 SWAP1 SWAP2 MSTORE SWAP1 SWAP2 POP PUSH32 0x86709719730335E655237EC19F947F910603BBF35B01DE8F98E5EB05922EDB43 SWAP1 PUSH1 0x60 ADD PUSH2 0x487 JUMP JUMPDEST PUSH1 0x0 DUP1 PUSH1 0x0 DUP1 PUSH1 0x0 PUSH2 0x686 DUP7 PUSH2 0xB02 JUMP JUMPDEST SWAP3 POP SWAP3 POP SWAP3 POP DUP3 PUSH1 0x40 MLOAD DUP1 PUSH1 0x40 ADD PUSH1 0x40 MSTORE DUP1 PUSH1 0x2 DUP2 MSTORE PUSH1 0x20 ADD PUSH2 0x1999 PUSH1 0xF1 SHL DUP2 MSTORE POP SWAP1 PUSH2 0x6C6 JUMPI PUSH1 0x40 MLOAD PUSH3 0x461BCD PUSH1 0xE5 SHL DUP2 MSTORE PUSH1 0x4 ADD PUSH2 0x2F4 SWAP2 SWAP1 PUSH2 0x1029 JUMP JUMPDEST POP SWAP1 SWAP6 SWAP1 SWAP5 POP SWAP3 POP POP POP JUMP JUMPDEST PUSH1 0x0 SLOAD PUSH1 0x40 DUP1 MLOAD DUP1 DUP3 ADD SWAP1 SWAP2 MSTORE PUSH1 0x2 DUP2 MSTORE PUSH2 0x333 PUSH1 0xF4 SHL PUSH1 0x20 DUP3 ADD MSTORE SWAP1 PUSH1 0x1 PUSH1 0x1 PUSH1 0xA0 SHL SUB AND CALLER EQ PUSH2 0x717 JUMPI PUSH1 0x40 MLOAD PUSH3 0x461BCD PUSH1 0xE5 SHL DUP2 MSTORE PUSH1 0x4 ADD PUSH2 0x2F4 SWAP2 SWAP1 PUSH2 0x1029 JUMP JUMPDEST POP PUSH1 0x0 PUSH2 0x726 DUP4 DUP4 PUSH1 0x2 PUSH2 0xB96 JUMP JUMPDEST PUSH1 0x40 DUP1 MLOAD DUP6 DUP2 MSTORE PUSH1 0x20 DUP2 ADD DUP4 SWAP1 MSTORE SWAP1 DUP2 ADD DUP5 SWAP1 MSTORE SWAP1 SWAP2 POP PUSH32 0xDA2476AF668C5F7EB48F492F9BBD5A7E9D4293D64144B3B7BE75A156803FB8BE SWAP1 PUSH1 0x60 ADD PUSH2 0x487 JUMP JUMPDEST PUSH1 0x0 SLOAD PUSH1 0x40 DUP1 MLOAD DUP1 DUP3 ADD SWAP1 SWAP2 MSTORE PUSH1 0x2 DUP2 MSTORE PUSH2 0x333 PUSH1 0xF4 SHL PUSH1 0x20 DUP3 ADD MSTORE SWAP1 PUSH1 0x1 PUSH1 0x1 PUSH1 0xA0 SHL SUB AND CALLER EQ PUSH2 0x7AC JUMPI PUSH1 0x40 MLOAD PUSH3 0x461BCD PUSH1 0xE5 SHL DUP2 MSTORE PUSH1 0x4 ADD PUSH2 0x2F4 SWAP2 SWAP1 PUSH2 0x1029 JUMP JUMPDEST POP PUSH1 0x40 DUP1 MLOAD DUP1 DUP3 ADD SWAP1 SWAP2 MSTORE PUSH1 0x2 DUP2 MSTORE PUSH2 0x3331 PUSH1 0xF0 SHL PUSH1 0x20 DUP3 ADD MSTORE PUSH1 0x1 PUSH1 0x1 PUSH1 0xA0 SHL SUB DUP3 AND PUSH2 0x7ED JUMPI PUSH1 0x40 MLOAD PUSH3 0x461BCD PUSH1 0xE5 SHL DUP2 MSTORE PUSH1 0x4 ADD PUSH2 0x2F4 SWAP2 SWAP1 PUSH2 0x1029 JUMP JUMPDEST POP PUSH1 0x1 DUP1 SLOAD PUSH1 0x1 PUSH1 0x1 PUSH1 0xA0 SHL SUB NOT AND PUSH1 0x1 PUSH1 0x1 PUSH1 0xA0 SHL SUB DUP4 AND SWAP1 DUP2 OR SWAP1 SWAP2 SSTORE PUSH1 0x40 MLOAD SWAP1 DUP2 MSTORE PUSH32 0x67235BA2E63C748A35B95C4F92A3BBC2A1389938170A5CE6C9ADD5D0B03A314A SWAP1 PUSH1 0x20 ADD PUSH2 0x35D JUMP JUMPDEST PUSH1 0x0 PUSH2 0x299 DUP4 PUSH1 0x2 DUP5 PUSH2 0xA01 JUMP JUMPDEST PUSH1 0x0 SLOAD PUSH1 0x40 DUP1 MLOAD DUP1 DUP3 ADD SWAP1 SWAP2 MSTORE PUSH1 0x2 DUP2 MSTORE PUSH2 0x333 PUSH1 0xF4 SHL PUSH1 0x20 DUP3 ADD MSTORE SWAP1 PUSH1 0x1 PUSH1 0x1 PUSH1 0xA0 SHL SUB AND CALLER EQ PUSH2 0x88F JUMPI PUSH1 0x40 MLOAD PUSH3 0x461BCD PUSH1 0xE5 SHL DUP2 MSTORE PUSH1 0x4 ADD PUSH2 0x2F4 SWAP2 SWAP1 PUSH2 0x1029 JUMP JUMPDEST POP PUSH1 0x0 DUP1 PUSH1 0x0 PUSH2 0x89E DUP5 PUSH2 0xB02 JUMP JUMPDEST SWAP3 POP SWAP3 POP SWAP3 POP DUP3 PUSH1 0x40 MLOAD DUP1 PUSH1 0x40 ADD PUSH1 0x40 MSTORE DUP1 PUSH1 0x2 DUP2 MSTORE PUSH1 0x20 ADD PUSH2 0x1999 PUSH1 0xF1 SHL DUP2 MSTORE POP SWAP1 PUSH2 0x8DE JUMPI PUSH1 0x40 MLOAD PUSH3 0x461BCD PUSH1 0xE5 SHL DUP2 MSTORE PUSH1 0x4 ADD PUSH2 0x2F4 SWAP2 SWAP1 PUSH2 0x1029 JUMP JUMPDEST POP PUSH1 0x40 DUP1 MLOAD DUP1 DUP3 ADD SWAP1 SWAP2 MSTORE PUSH1 0x2 DUP2 MSTORE PUSH2 0x3333 PUSH1 0xF0 SHL PUSH1 0x20 DUP3 ADD MSTORE DUP2 ISZERO PUSH2 0x917 JUMPI PUSH1 0x40 MLOAD PUSH3 0x461BCD PUSH1 0xE5 SHL DUP2 MSTORE PUSH1 0x4 ADD PUSH2 0x2F4 SWAP2 SWAP1 PUSH2 0x1029 JUMP JUMPDEST POP PUSH2 0x924 DUP5 DUP4 PUSH1 0x1 PUSH2 0xC5D JUMP JUMPDEST PUSH1 0x40 MLOAD DUP5 DUP2 MSTORE PUSH32 0x540251D20C832DB9CA5E1AD5FAA4320509054D7067FC1D7FA5856F4CCB69CF5C SWAP1 PUSH1 0x20 ADD PUSH1 0x40 MLOAD DUP1 SWAP2 SUB SWAP1 LOG1 POP POP POP POP JUMP JUMPDEST PUSH1 0x60 PUSH1 0x0 PUSH2 0x96B PUSH1 0x35 PUSH2 0xC92 JUMP JUMPDEST SWAP1 POP PUSH1 0x0 DUP2 PUSH8 0xFFFFFFFFFFFFFFFF DUP2 GT ISZERO PUSH2 0x988 JUMPI PUSH2 0x988 PUSH2 0x1077 JUMP JUMPDEST PUSH1 0x40 MLOAD SWAP1 DUP1 DUP3 MSTORE DUP1 PUSH1 0x20 MUL PUSH1 0x20 ADD DUP3 ADD PUSH1 0x40 MSTORE DUP1 ISZERO PUSH2 0x9B1 JUMPI DUP2 PUSH1 0x20 ADD PUSH1 0x20 DUP3 MUL DUP1 CALLDATASIZE DUP4 CALLDATACOPY ADD SWAP1 POP JUMPDEST POP SWAP1 POP PUSH1 0x0 JUMPDEST DUP3 DUP2 LT ISZERO PUSH2 0x9FA JUMPI PUSH2 0x9CA PUSH1 0x35 DUP3 PUSH2 0xC9D JUMP JUMPDEST POP DUP3 DUP3 DUP2 MLOAD DUP2 LT PUSH2 0x9DD JUMPI PUSH2 0x9DD PUSH2 0x108D JUMP JUMPDEST PUSH1 0x20 SWAP1 DUP2 MUL SWAP2 SWAP1 SWAP2 ADD ADD MSTORE DUP1 PUSH2 0x9F2 DUP2 PUSH2 0x10B9 JUMP JUMPDEST SWAP2 POP POP PUSH2 0x9B7 JUMP JUMPDEST POP SWAP3 SWAP2 POP POP JUMP JUMPDEST PUSH1 0x0 DUP1 PUSH1 0x0 PUSH2 0xA0F DUP7 PUSH2 0xB02 JUMP JUMPDEST POP SWAP2 POP SWAP2 POP DUP2 PUSH2 0xA23 JUMPI DUP4 SWAP3 POP POP POP PUSH2 0xA7A JUMP JUMPDEST DUP5 PUSH1 0xFF AND DUP2 PUSH1 0xFF AND EQ PUSH1 0x40 MLOAD DUP1 PUSH1 0x40 ADD PUSH1 0x40 MSTORE DUP1 PUSH1 0x2 DUP2 MSTORE PUSH1 0x20 ADD PUSH2 0x1999 PUSH1 0xF1 SHL DUP2 MSTORE POP SWAP1 PUSH2 0xA65 JUMPI PUSH1 0x40 MLOAD PUSH3 0x461BCD PUSH1 0xE5 SHL DUP2 MSTORE PUSH1 0x4 ADD PUSH2 0x2F4 SWAP2 SWAP1 PUSH2 0x1029 JUMP JUMPDEST POP POP POP PUSH1 0x0 DUP5 DUP2 MSTORE PUSH1 0x34 PUSH1 0x20 MSTORE PUSH1 0x40 SWAP1 KECCAK256 SLOAD SWAP1 POP JUMPDEST SWAP4 SWAP3 POP POP POP JUMP JUMPDEST PUSH1 0x0 DUP1 PUSH1 0x0 PUSH2 0xA8F DUP6 PUSH2 0xB02 JUMP JUMPDEST POP SWAP2 POP SWAP2 POP DUP2 DUP1 ISZERO PUSH2 0xAA6 JUMPI POP DUP4 PUSH1 0xFF AND DUP2 PUSH1 0xFF AND EQ JUMPDEST PUSH1 0x40 MLOAD DUP1 PUSH1 0x40 ADD PUSH1 0x40 MSTORE DUP1 PUSH1 0x2 DUP2 MSTORE PUSH1 0x20 ADD PUSH2 0x1999 PUSH1 0xF1 SHL DUP2 MSTORE POP SWAP1 PUSH2 0xADF JUMPI PUSH1 0x40 MLOAD PUSH3 0x461BCD PUSH1 0xE5 SHL DUP2 MSTORE PUSH1 0x4 ADD PUSH2 0x2F4 SWAP2 SWAP1 PUSH2 0x1029 JUMP JUMPDEST POP POP POP PUSH1 0x0 SWAP3 DUP4 MSTORE POP POP PUSH1 0x34 PUSH1 0x20 MSTORE PUSH1 0x40 SWAP1 KECCAK256 SLOAD SWAP1 JUMP JUMPDEST PUSH1 0x0 PUSH2 0x299 DUP4 DUP4 PUSH2 0xCBB JUMP JUMPDEST PUSH1 0x0 DUP1 DUP1 DUP1 PUSH2 0xB12 PUSH1 0x35 DUP7 PUSH2 0xCC7 JUMP JUMPDEST SWAP1 SWAP5 POP SWAP1 POP DUP4 ISZERO PUSH2 0xB2E JUMPI DUP1 PUSH1 0x1 AND PUSH1 0x1 EQ SWAP2 POP PUSH1 0x8 DUP2 SWAP1 SHR SWAP3 POP JUMPDEST POP SWAP2 SWAP4 SWAP1 SWAP3 POP JUMP JUMPDEST PUSH1 0x0 PUSH2 0x299 DUP4 DUP4 PUSH2 0xCD6 JUMP JUMPDEST PUSH1 0x0 DUP1 SLOAD PUSH1 0x1 PUSH1 0x1 PUSH1 0xA0 SHL SUB NOT AND PUSH1 0x1 PUSH1 0x1 PUSH1 0xA0 SHL SUB DUP4 AND SWAP1 DUP2 OR DUP3 SSTORE PUSH1 0x40 DUP1 MLOAD SWAP3 DUP4 MSTORE PUSH1 0x20 DUP4 ADD SWAP2 SWAP1 SWAP2 MSTORE PUSH32 0xDE4B3F61490B74C0ED6237523974FE299126BBBF8A8A7482FD220104C59B0C84 SWAP2 ADD PUSH2 0x35D JUMP JUMPDEST PUSH1 0x0 DUP1 PUSH1 0x0 DUP1 PUSH2 0xBA5 DUP8 PUSH2 0xB02 JUMP JUMPDEST SWAP3 POP SWAP3 POP SWAP3 POP DUP3 ISZERO DUP1 PUSH2 0xBBD JUMPI POP DUP5 PUSH1 0xFF AND DUP3 PUSH1 0xFF AND EQ JUMPDEST PUSH1 0x40 MLOAD DUP1 PUSH1 0x40 ADD PUSH1 0x40 MSTORE DUP1 PUSH1 0x2 DUP2 MSTORE PUSH1 0x20 ADD PUSH2 0x3331 PUSH1 0xF0 SHL DUP2 MSTORE POP SWAP1 PUSH2 0xBF6 JUMPI PUSH1 0x40 MLOAD PUSH3 0x461BCD PUSH1 0xE5 SHL DUP2 MSTORE PUSH1 0x4 ADD PUSH2 0x2F4 SWAP2 SWAP1 PUSH2 0x1029 JUMP JUMPDEST POP PUSH1 0x40 DUP1 MLOAD DUP1 DUP3 ADD SWAP1 SWAP2 MSTORE PUSH1 0x2 DUP2 MSTORE PUSH2 0x3333 PUSH1 0xF0 SHL PUSH1 0x20 DUP3 ADD MSTORE DUP2 ISZERO PUSH2 0xC2F JUMPI PUSH1 0x40 MLOAD PUSH3 0x461BCD PUSH1 0xE5 SHL DUP2 MSTORE PUSH1 0x4 ADD PUSH2 0x2F4 SWAP2 SWAP1 PUSH2 0x1029 JUMP JUMPDEST POP PUSH1 0x0 DUP8 DUP2 MSTORE PUSH1 0x34 PUSH1 0x20 MSTORE PUSH1 0x40 DUP2 KECCAK256 DUP1 SLOAD SWAP1 DUP9 SWAP1 SSTORE SWAP1 PUSH2 0xC52 SWAP1 DUP10 SWAP1 DUP9 SWAP1 PUSH2 0xC5D JUMP JUMPDEST SWAP8 SWAP7 POP POP POP POP POP POP POP JUMP JUMPDEST PUSH1 0x0 DUP2 PUSH2 0xC6B JUMPI PUSH1 0x0 PUSH2 0xC6E JUMP JUMPDEST PUSH1 0x1 JUMPDEST PUSH1 0xFF AND SWAP1 POP PUSH2 0xFF00 PUSH1 0x8 DUP5 SWAP1 SHL AND DUP2 OR PUSH2 0xC8A PUSH1 0x35 DUP7 DUP4 PUSH2 0xCF3 JUMP JUMPDEST POP POP POP POP POP POP JUMP JUMPDEST PUSH1 0x0 PUSH2 0x29C DUP3 PUSH2 0xD08 JUMP JUMPDEST PUSH1 0x0 DUP1 DUP1 DUP1 PUSH2 0xCAC DUP7 DUP7 PUSH2 0xD13 JUMP JUMPDEST SWAP1 SWAP5 POP SWAP3 POP POP POP JUMPDEST SWAP3 POP SWAP3 SWAP1 POP JUMP JUMPDEST PUSH1 0x0 PUSH2 0x299 DUP4 DUP4 PUSH2 0xD3E JUMP JUMPDEST PUSH1 0x0 DUP1 DUP1 DUP1 PUSH2 0xCAC DUP7 DUP7 PUSH2 0xD56 JUMP JUMPDEST PUSH1 0x0 DUP2 DUP2 MSTORE PUSH1 0x2 DUP4 ADD PUSH1 0x20 MSTORE PUSH1 0x40 DUP2 KECCAK256 DUP2 SWAP1 SSTORE PUSH2 0x299 DUP4 DUP4 PUSH2 0xD90 JUMP JUMPDEST PUSH1 0x0 PUSH2 0xD00 DUP5 DUP5 DUP5 PUSH2 0xD9C JUMP JUMPDEST SWAP5 SWAP4 POP POP POP POP JUMP JUMPDEST PUSH1 0x0 PUSH2 0x29C DUP3 PUSH2 0xDB9 JUMP JUMPDEST PUSH1 0x0 DUP1 DUP1 PUSH2 0xD21 DUP6 DUP6 PUSH2 0xDC3 JUMP JUMPDEST PUSH1 0x0 DUP2 DUP2 MSTORE PUSH1 0x2 SWAP7 SWAP1 SWAP7 ADD PUSH1 0x20 MSTORE PUSH1 0x40 SWAP1 SWAP6 KECCAK256 SLOAD SWAP5 SWAP6 SWAP4 POP POP POP POP JUMP JUMPDEST PUSH1 0x0 DUP2 DUP2 MSTORE PUSH1 0x1 DUP4 ADD PUSH1 0x20 MSTORE PUSH1 0x40 DUP2 KECCAK256 SLOAD ISZERO ISZERO PUSH2 0x299 JUMP JUMPDEST PUSH1 0x0 DUP2 DUP2 MSTORE PUSH1 0x2 DUP4 ADD PUSH1 0x20 MSTORE PUSH1 0x40 DUP2 KECCAK256 SLOAD DUP2 SWAP1 DUP1 PUSH2 0xD85 JUMPI PUSH2 0xD78 DUP6 DUP6 PUSH2 0xCBB JUMP JUMPDEST SWAP3 POP PUSH1 0x0 SWAP2 POP PUSH2 0xCB4 SWAP1 POP JUMP JUMPDEST PUSH1 0x1 SWAP3 POP SWAP1 POP PUSH2 0xCB4 JUMP JUMPDEST PUSH1 0x0 PUSH2 0x299 DUP4 DUP4 PUSH2 0xDCF JUMP JUMPDEST PUSH1 0x0 DUP3 DUP2 MSTORE PUSH1 0x2 DUP5 ADD PUSH1 0x20 MSTORE PUSH1 0x40 DUP2 KECCAK256 DUP3 SWAP1 SSTORE PUSH2 0xD00 DUP5 DUP5 PUSH2 0xEC2 JUMP JUMPDEST PUSH1 0x0 PUSH2 0x29C DUP3 SLOAD SWAP1 JUMP JUMPDEST PUSH1 0x0 PUSH2 0x299 DUP4 DUP4 PUSH2 0xECE JUMP JUMPDEST PUSH1 0x0 DUP2 DUP2 MSTORE PUSH1 0x1 DUP4 ADD PUSH1 0x20 MSTORE PUSH1 0x40 DUP2 KECCAK256 SLOAD DUP1 ISZERO PUSH2 0xEB8 JUMPI PUSH1 0x0 PUSH2 0xDF3 PUSH1 0x1 DUP4 PUSH2 0x10D2 JUMP JUMPDEST DUP6 SLOAD SWAP1 SWAP2 POP PUSH1 0x0 SWAP1 PUSH2 0xE07 SWAP1 PUSH1 0x1 SWAP1 PUSH2 0x10D2 JUMP JUMPDEST SWAP1 POP DUP2 DUP2 EQ PUSH2 0xE6C JUMPI PUSH1 0x0 DUP7 PUSH1 0x0 ADD DUP3 DUP2 SLOAD DUP2 LT PUSH2 0xE27 JUMPI PUSH2 0xE27 PUSH2 0x108D JUMP JUMPDEST SWAP1 PUSH1 0x0 MSTORE PUSH1 0x20 PUSH1 0x0 KECCAK256 ADD SLOAD SWAP1 POP DUP1 DUP8 PUSH1 0x0 ADD DUP5 DUP2 SLOAD DUP2 LT PUSH2 0xE4A JUMPI PUSH2 0xE4A PUSH2 0x108D JUMP JUMPDEST PUSH1 0x0 SWAP2 DUP3 MSTORE PUSH1 0x20 DUP1 DUP4 KECCAK256 SWAP1 SWAP2 ADD SWAP3 SWAP1 SWAP3 SSTORE SWAP2 DUP3 MSTORE PUSH1 0x1 DUP9 ADD SWAP1 MSTORE PUSH1 0x40 SWAP1 KECCAK256 DUP4 SWAP1 SSTORE JUMPDEST DUP6 SLOAD DUP7 SWAP1 DUP1 PUSH2 0xE7D JUMPI PUSH2 0xE7D PUSH2 0x10E5 JUMP JUMPDEST PUSH1 0x1 SWAP1 SUB DUP2 DUP2 SWAP1 PUSH1 0x0 MSTORE PUSH1 0x20 PUSH1 0x0 KECCAK256 ADD PUSH1 0x0 SWAP1 SSTORE SWAP1 SSTORE DUP6 PUSH1 0x1 ADD PUSH1 0x0 DUP7 DUP2 MSTORE PUSH1 0x20 ADD SWAP1 DUP2 MSTORE PUSH1 0x20 ADD PUSH1 0x0 KECCAK256 PUSH1 0x0 SWAP1 SSTORE PUSH1 0x1 SWAP4 POP POP POP POP PUSH2 0x29C JUMP JUMPDEST PUSH1 0x0 SWAP2 POP POP PUSH2 0x29C JUMP JUMPDEST PUSH1 0x0 PUSH2 0x299 DUP4 DUP4 PUSH2 0xEF8 JUMP JUMPDEST PUSH1 0x0 DUP3 PUSH1 0x0 ADD DUP3 DUP2 SLOAD DUP2 LT PUSH2 0xEE5 JUMPI PUSH2 0xEE5 PUSH2 0x108D JUMP JUMPDEST SWAP1 PUSH1 0x0 MSTORE PUSH1 0x20 PUSH1 0x0 KECCAK256 ADD SLOAD SWAP1 POP SWAP3 SWAP2 POP POP JUMP JUMPDEST PUSH1 0x0 DUP2 DUP2 MSTORE PUSH1 0x1 DUP4 ADD PUSH1 0x20 MSTORE PUSH1 0x40 DUP2 KECCAK256 SLOAD PUSH2 0xF3F JUMPI POP DUP2 SLOAD PUSH1 0x1 DUP2 DUP2 ADD DUP5 SSTORE PUSH1 0x0 DUP5 DUP2 MSTORE PUSH1 0x20 DUP1 DUP3 KECCAK256 SWAP1 SWAP4 ADD DUP5 SWAP1 SSTORE DUP5 SLOAD DUP5 DUP3 MSTORE DUP3 DUP7 ADD SWAP1 SWAP4 MSTORE PUSH1 0x40 SWAP1 KECCAK256 SWAP2 SWAP1 SWAP2 SSTORE PUSH2 0x29C JUMP JUMPDEST POP PUSH1 0x0 PUSH2 0x29C JUMP JUMPDEST DUP1 CALLDATALOAD PUSH1 0x1 PUSH1 0x1 PUSH1 0xA0 SHL SUB DUP2 AND DUP2 EQ PUSH2 0xF5E JUMPI PUSH1 0x0 DUP1 REVERT JUMPDEST SWAP2 SWAP1 POP JUMP JUMPDEST PUSH1 0x0 DUP1 PUSH1 0x40 DUP4 DUP6 SUB SLT ISZERO PUSH2 0xF76 JUMPI PUSH1 0x0 DUP1 REVERT JUMPDEST DUP3 CALLDATALOAD SWAP2 POP PUSH2 0xF86 PUSH1 0x20 DUP5 ADD PUSH2 0xF47 JUMP JUMPDEST SWAP1 POP SWAP3 POP SWAP3 SWAP1 POP JUMP JUMPDEST PUSH1 0x0 PUSH1 0x20 DUP3 DUP5 SUB SLT ISZERO PUSH2 0xFA1 JUMPI PUSH1 0x0 DUP1 REVERT JUMPDEST POP CALLDATALOAD SWAP2 SWAP1 POP JUMP JUMPDEST PUSH1 0x0 PUSH1 0x20 DUP3 DUP5 SUB SLT ISZERO PUSH2 0xFBA JUMPI PUSH1 0x0 DUP1 REVERT JUMPDEST PUSH2 0x299 DUP3 PUSH2 0xF47 JUMP JUMPDEST PUSH1 0x0 DUP1 PUSH1 0x40 DUP4 DUP6 SUB SLT ISZERO PUSH2 0xFD6 JUMPI PUSH1 0x0 DUP1 REVERT JUMPDEST POP POP DUP1 CALLDATALOAD SWAP3 PUSH1 0x20 SWAP1 SWAP2 ADD CALLDATALOAD SWAP2 POP JUMP JUMPDEST PUSH1 0x20 DUP1 DUP3 MSTORE DUP3 MLOAD DUP3 DUP3 ADD DUP2 SWAP1 MSTORE PUSH1 0x0 SWAP2 SWAP1 DUP5 DUP3 ADD SWAP1 PUSH1 0x40 DUP6 ADD SWAP1 DUP5 JUMPDEST DUP2 DUP2 LT ISZERO PUSH2 0x101D JUMPI DUP4 MLOAD DUP4 MSTORE SWAP3 DUP5 ADD SWAP3 SWAP2 DUP5 ADD SWAP2 PUSH1 0x1 ADD PUSH2 0x1001 JUMP JUMPDEST POP SWAP1 SWAP7 SWAP6 POP POP POP POP POP POP JUMP JUMPDEST PUSH1 0x0 PUSH1 0x20 DUP1 DUP4 MSTORE DUP4 MLOAD DUP1 DUP3 DUP6 ADD MSTORE PUSH1 0x0 JUMPDEST DUP2 DUP2 LT ISZERO PUSH2 0x1056 JUMPI DUP6 DUP2 ADD DUP4 ADD MLOAD DUP6 DUP3 ADD PUSH1 0x40 ADD MSTORE DUP3 ADD PUSH2 0x103A JUMP JUMPDEST POP PUSH1 0x0 PUSH1 0x40 DUP3 DUP7 ADD ADD MSTORE PUSH1 0x40 PUSH1 0x1F NOT PUSH1 0x1F DUP4 ADD AND DUP6 ADD ADD SWAP3 POP POP POP SWAP3 SWAP2 POP POP JUMP JUMPDEST PUSH4 0x4E487B71 PUSH1 0xE0 SHL PUSH1 0x0 MSTORE PUSH1 0x41 PUSH1 0x4 MSTORE PUSH1 0x24 PUSH1 0x0 REVERT JUMPDEST PUSH4 0x4E487B71 PUSH1 0xE0 SHL PUSH1 0x0 MSTORE PUSH1 0x32 PUSH1 0x4 MSTORE PUSH1 0x24 PUSH1 0x0 REVERT JUMPDEST PUSH4 0x4E487B71 PUSH1 0xE0 SHL PUSH1 0x0 MSTORE PUSH1 0x11 PUSH1 0x4 MSTORE PUSH1 0x24 PUSH1 0x0 REVERT JUMPDEST PUSH1 0x0 PUSH1 0x1 DUP3 ADD PUSH2 0x10CB JUMPI PUSH2 0x10CB PUSH2 0x10A3 JUMP JUMPDEST POP PUSH1 0x1 ADD SWAP1 JUMP JUMPDEST DUP2 DUP2 SUB DUP2 DUP2 GT ISZERO PUSH2 0x29C JUMPI PUSH2 0x29C PUSH2 0x10A3 JUMP JUMPDEST PUSH4 0x4E487B71 PUSH1 0xE0 SHL PUSH1 0x0 MSTORE PUSH1 0x31 PUSH1 0x4 MSTORE PUSH1 0x24 PUSH1 0x0 REVERT INVALID LOG2 PUSH5 0x6970667358 0x22 SLT KECCAK256 0xCE SWAP5 PUSH22 0xEA693F070A6B2039391BA433916DA8EF92D70AD745D5 SAR CALLCODE SWAP6 GASPRICE POP DUP12 DUP6 PUSH5 0x736F6C6343 STOP ADDMOD GT STOP CALLER ","sha1":"7069fe4898f0e8ba6250c08895a92c88ea38b2f8","source":"// SPDX-License-Identifier: LicenseRef-Gyro-1.0\n// for information on licensing please see the README in the GitHub repository <https://github.com/gyrostable/core-protocol>.\npragma solidity ^0.8.4;\n\nimport \"../interfaces/IGyroConfig.sol\";\nimport \"./auth/GovernableUpgradeable.sol\";\nimport \"../libraries/EnumerableMapping.sol\";\n\ncontract GyroConfig is IGyroConfig, GovernableUpgradeable {\n    using EnumerableMapping for EnumerableMapping.Bytes32ToUIntMap;\n\n    uint8 internal constant ADDRESS_TYPE = 1;\n    uint8 internal constant UINT_TYPE = 2;\n\n    /// @notice Actual configuration values\n    mapping(bytes32 => uint256) internal _config;\n\n    /// @notice Configuration metadata such as existence, type, and frozen status\n    EnumerableMapping.Bytes32ToUIntMap internal _configMeta;\n\n    /// @inheritdoc IGyroConfig\n    function listKeys() external view override returns (bytes32[] memory) {\n        uint256 length = _configMeta.length();\n        bytes32[] memory keys = new bytes32[](length);\n        for (uint256 i = 0; i < length; i++) {\n            (keys[i], ) = _configMeta.at(i);\n        }\n        return keys;\n    }\n\n    /// @inheritdoc IGyroConfig\n    function hasKey(bytes32 key) external view override returns (bool) {\n        return _configMeta.contains(key);\n    }\n\n    /// @inheritdoc IGyroConfig\n    function getConfigMeta(bytes32 key) external view override returns (uint8, bool) {\n        (bool exists, uint8 configType, bool frozen) = _getConfigMeta(key);\n        require(exists, Errors.KEY_NOT_FOUND);\n        return (configType, frozen);\n    }\n\n    /// @inheritdoc IGyroConfig\n    function getUint(bytes32 key) external view override returns (uint256) {\n        return _get(key, UINT_TYPE);\n    }\n\n    /// @inheritdoc IGyroConfig\n    function getUint(bytes32 key, uint256 defaultValue) external view override returns (uint256) {\n        return _get(key, UINT_TYPE, defaultValue);\n    }\n\n    /// @inheritdoc IGyroConfig\n    function getAddress(bytes32 key) external view override returns (address) {\n        return address(uint160(_get(key, ADDRESS_TYPE)));\n    }\n\n    /// @inheritdoc IGyroConfig\n    function getAddress(bytes32 key, address defaultValue)\n        external\n        view\n        override\n        returns (address)\n    {\n        return address(uint160(_get(key, ADDRESS_TYPE, uint256(uint160(defaultValue)))));\n    }\n\n    /// @inheritdoc IGyroConfig\n    function setUint(bytes32 key, uint256 newValue) external override governanceOnly {\n        uint256 oldValue = _set(key, newValue, UINT_TYPE);\n        emit ConfigChanged(key, oldValue, newValue);\n    }\n\n    /// @inheritdoc IGyroConfig\n    function setAddress(bytes32 key, address newValue) external override governanceOnly {\n        uint256 oldValue = _set(key, uint256(uint160(newValue)), ADDRESS_TYPE);\n        emit ConfigChanged(key, address(uint160(oldValue)), newValue);\n    }\n\n    /// @inheritdoc IGyroConfig\n    function unset(bytes32 key) external override governanceOnly {\n        (bool exists, , bool frozen) = _getConfigMeta(key);\n        require(exists, Errors.KEY_NOT_FOUND);\n        require(!frozen, Errors.KEY_FROZEN);\n        delete _config[key];\n        _configMeta.remove(key);\n        emit ConfigUnset(key);\n    }\n\n    /// @inheritdoc IGyroConfig\n    function freeze(bytes32 key) external governanceOnly {\n        (bool exists, uint8 configType, bool frozen) = _getConfigMeta(key);\n        require(exists, Errors.KEY_NOT_FOUND);\n        require(!frozen, Errors.KEY_FROZEN);\n        _setConfigMeta(key, configType, true);\n\n        emit ConfigFrozen(key);\n    }\n\n    function _get(bytes32 key, uint8 expectedType) internal view returns (uint256) {\n        (bool exists, uint8 configType, ) = _getConfigMeta(key);\n        require(exists && configType == expectedType, Errors.KEY_NOT_FOUND);\n        return _config[key];\n    }\n\n    function _get(\n        bytes32 key,\n        uint8 expectedType,\n        uint256 defaultValue\n    ) internal view returns (uint256) {\n        (bool exists, uint8 configType, ) = _getConfigMeta(key);\n        if (!exists) return defaultValue;\n        require(configType == expectedType, Errors.KEY_NOT_FOUND);\n        return _config[key];\n    }\n\n    function _set(\n        bytes32 key,\n        uint256 newValue,\n        uint8 expectedType\n    ) internal returns (uint256) {\n        (bool exists, uint8 configType, bool frozen) = _getConfigMeta(key);\n        require(!exists || configType == expectedType, Errors.INVALID_ARGUMENT);\n        require(!frozen, Errors.KEY_FROZEN);\n        uint256 oldValue = _config[key];\n        _config[key] = newValue;\n        _setConfigMeta(key, expectedType, false);\n        return oldValue;\n    }\n\n    function _setConfigMeta(\n        bytes32 key,\n        uint8 configType,\n        bool frozen\n    ) internal {\n        uint256 frozenB = frozen ? 1 : 0;\n        uint256 value = (uint256(configType) << 8) | frozenB;\n        _configMeta.set(key, value);\n    }\n\n    function _getConfigMeta(bytes32 key)\n        internal\n        view\n        returns (\n            bool exists,\n            uint8 configType,\n            bool frozen\n        )\n    {\n        uint256 meta;\n        (exists, meta) = _configMeta.tryGet(key);\n        if (exists) {\n            frozen = meta & 0x1 == 1;\n            configType = uint8(meta >> 8);\n        }\n    }\n}\n","sourcePath":"contracts/GyroConfig.sol","type":"contract","deployment":{"address":"0x9b683cA24B0e013512E2566b68704dBe9677413c","chainid":"1101","blockHeight":5144593}}