{
  "abi": [
    {
      "inputs": [
        {
          "internalType": "uint8",
          "name": "_decimals",
          "type": "uint8"
        },
        {
          "internalType": "int256",
          "name": "_price",
          "type": "int256"
        },
        {
          "internalType": "uint256",
          "name": "_lastUpdate",
          "type": "uint256"
        }
      ],
      "stateMutability": "nonpayable",
      "type": "constructor"
    },
    {
      "inputs": [],
      "name": "decimals",
      "outputs": [
        {
          "internalType": "uint8",
          "name": "",
          "type": "uint8"
        }
      ],
      "stateMutability": "view",
      "type": "function"
    },
    {
      "inputs": [
        {
          "internalType": "uint80",
          "name": "_roundId",
          "type": "uint80"
        }
      ],
      "name": "getRoundData",
      "outputs": [
        {
          "internalType": "uint80",
          "name": "roundId",
          "type": "uint80"
        },
        {
          "internalType": "int256",
          "name": "answer",
          "type": "int256"
        },
        {
          "internalType": "uint256",
          "name": "startedAt",
          "type": "uint256"
        },
        {
          "internalType": "uint256",
          "name": "updatedAt",
          "type": "uint256"
        },
        {
          "internalType": "uint80",
          "name": "answeredInRound",
          "type": "uint80"
        }
      ],
      "stateMutability": "view",
      "type": "function"
    },
    {
      "inputs": [],
      "name": "latestRoundData",
      "outputs": [
        {
          "internalType": "uint80",
          "name": "roundId",
          "type": "uint80"
        },
        {
          "internalType": "int256",
          "name": "answer",
          "type": "int256"
        },
        {
          "internalType": "uint256",
          "name": "startedAt",
          "type": "uint256"
        },
        {
          "internalType": "uint256",
          "name": "updatedAt",
          "type": "uint256"
        },
        {
          "internalType": "uint80",
          "name": "answeredInRound",
          "type": "uint80"
        }
      ],
      "stateMutability": "view",
      "type": "function"
    },
    {
      "inputs": [
        {
          "internalType": "int256",
          "name": "_price",
          "type": "int256"
        },
        {
          "internalType": "uint256",
          "name": "_lastUpdate",
          "type": "uint256"
        }
      ],
      "name": "postRound",
      "outputs": [],
      "stateMutability": "nonpayable",
      "type": "function"
    }
  ],
  "bytecode": {
    "object": "0x60a060405234801561001057600080fd5b506040516103d13803806103d183398101604081905261002f916100b8565b60ff83166080526100b0828260408051808201909152918252602082019081526000805460018101825590805291517f290decd9548b62a8d60345a988386fc84ba6bc95484008f6362f93160ef3e563600290930292830155517f290decd9548b62a8d60345a988386fc84ba6bc95484008f6362f93160ef3e56490910155565b5050506100f5565b6000806000606084860312156100cd57600080fd5b835160ff811681146100de57600080fd5b602085015160409095015190969495509392505050565b6080516102c261010f6000396000605601526102c26000f3fe608060405234801561001057600080fd5b506004361061004c5760003560e01c8063313ce5671461005157806382a0cae91461008f5780639a6fc8f514610114578063feaf968c1461015e575b600080fd5b6100787f000000000000000000000000000000000000000000000000000000000000000081565b60405160ff90911681526020015b60405180910390f35b61011261009d3660046101fa565b60408051808201909152918252602082019081526000805460018101825590805291517f290decd9548b62a8d60345a988386fc84ba6bc95484008f6362f93160ef3e563600290930292830155517f290decd9548b62a8d60345a988386fc84ba6bc95484008f6362f93160ef3e56490910155565b005b61012761012236600461021c565b610166565b6040805169ffffffffffffffffffff968716815260208101959095528401929092526060830152909116608082015260a001610086565b6101276101cc565b60008060008060008060008769ffffffffffffffffffff168154811061018e5761018e61024f565b600091825260208083206040805180820190915260029390930201805480845260019091015492909101829052989990975087965090945092505050565b60008060008060006101e960016000805490506101229190610265565b945094509450945094509091929394565b6000806040838503121561020d57600080fd5b50508035926020909101359150565b60006020828403121561022e57600080fd5b813569ffffffffffffffffffff8116811461024857600080fd5b9392505050565b634e487b7160e01b600052603260045260246000fd5b8181038181111561028657634e487b7160e01b600052601160045260246000fd5b9291505056fea264697066735822122042bcedcb62ca1641cd843808f814fc76acf7757a2f8df5eb688ae751a9ca1d1764736f6c63430008110033",
    "linkReferences": {}
  },
  "methodIdentifiers": {
    "decimals()": "313ce567",
    "getRoundData(uint80)": "9a6fc8f5",
    "latestRoundData()": "feaf968c",
    "postRound(int256,uint256)": "82a0cae9"
  },
  "id": 35
}