{
  "abi": [
    {
      "inputs": [
        {
          "internalType": "address",
          "name": "underlying_",
          "type": "address"
        }
      ],
      "stateMutability": "nonpayable",
      "type": "constructor"
    },
    {
      "anonymous": false,
      "inputs": [
        {
          "indexed": true,
          "internalType": "address",
          "name": "owner",
          "type": "address"
        },
        {
          "indexed": true,
          "internalType": "address",
          "name": "spender",
          "type": "address"
        },
        {
          "indexed": false,
          "internalType": "uint256",
          "name": "value",
          "type": "uint256"
        }
      ],
      "name": "Approval",
      "type": "event"
    },
    {
      "anonymous": false,
      "inputs": [
        {
          "indexed": true,
          "internalType": "address",
          "name": "from",
          "type": "address"
        },
        {
          "indexed": true,
          "internalType": "address",
          "name": "to",
          "type": "address"
        },
        {
          "indexed": false,
          "internalType": "uint256",
          "name": "value",
          "type": "uint256"
        }
      ],
      "name": "Transfer",
      "type": "event"
    },
    {
      "inputs": [
        {
          "internalType": "address",
          "name": "owner",
          "type": "address"
        },
        {
          "internalType": "address",
          "name": "spender",
          "type": "address"
        }
      ],
      "name": "allowance",
      "outputs": [
        {
          "internalType": "uint256",
          "name": "",
          "type": "uint256"
        }
      ],
      "stateMutability": "view",
      "type": "function"
    },
    {
      "inputs": [
        {
          "internalType": "address",
          "name": "spender",
          "type": "address"
        },
        {
          "internalType": "uint256",
          "name": "amount",
          "type": "uint256"
        }
      ],
      "name": "approve",
      "outputs": [
        {
          "internalType": "bool",
          "name": "",
          "type": "bool"
        }
      ],
      "stateMutability": "nonpayable",
      "type": "function"
    },
    {
      "inputs": [
        {
          "internalType": "address",
          "name": "account",
          "type": "address"
        }
      ],
      "name": "balanceOf",
      "outputs": [
        {
          "internalType": "uint256",
          "name": "",
          "type": "uint256"
        }
      ],
      "stateMutability": "view",
      "type": "function"
    },
    {
      "inputs": [],
      "name": "decimals",
      "outputs": [
        {
          "internalType": "uint8",
          "name": "",
          "type": "uint8"
        }
      ],
      "stateMutability": "view",
      "type": "function"
    },
    {
      "inputs": [
        {
          "internalType": "address",
          "name": "spender",
          "type": "address"
        },
        {
          "internalType": "uint256",
          "name": "subtractedValue",
          "type": "uint256"
        }
      ],
      "name": "decreaseAllowance",
      "outputs": [
        {
          "internalType": "bool",
          "name": "",
          "type": "bool"
        }
      ],
      "stateMutability": "nonpayable",
      "type": "function"
    },
    {
      "inputs": [],
      "name": "deployedAt",
      "outputs": [
        {
          "internalType": "uint256",
          "name": "",
          "type": "uint256"
        }
      ],
      "stateMutability": "view",
      "type": "function"
    },
    {
      "inputs": [
        {
          "internalType": "uint256",
          "name": "lpTokenAmount",
          "type": "uint256"
        },
        {
          "internalType": "uint256",
          "name": "minOut",
          "type": "uint256"
        }
      ],
      "name": "deposit",
      "outputs": [
        {
          "internalType": "uint256",
          "name": "vaultTokenAmount",
          "type": "uint256"
        }
      ],
      "stateMutability": "nonpayable",
      "type": "function"
    },
    {
      "inputs": [
        {
          "internalType": "address",
          "name": "beneficiary",
          "type": "address"
        },
        {
          "internalType": "uint256",
          "name": "lpTokenAmount",
          "type": "uint256"
        },
        {
          "internalType": "uint256",
          "name": "",
          "type": "uint256"
        }
      ],
      "name": "depositFor",
      "outputs": [
        {
          "internalType": "uint256",
          "name": "vaultTokenAmount",
          "type": "uint256"
        }
      ],
      "stateMutability": "nonpayable",
      "type": "function"
    },
    {
      "inputs": [
        {
          "internalType": "uint256",
          "name": "lpTokenAmount",
          "type": "uint256"
        },
        {
          "internalType": "uint256",
          "name": "",
          "type": "uint256"
        }
      ],
      "name": "dryDeposit",
      "outputs": [
        {
          "internalType": "uint256",
          "name": "vaultTokenAmount",
          "type": "uint256"
        },
        {
          "internalType": "string",
          "name": "error",
          "type": "string"
        }
      ],
      "stateMutability": "pure",
      "type": "function"
    },
    {
      "inputs": [
        {
          "internalType": "uint256",
          "name": "vaultTokenAmount",
          "type": "uint256"
        },
        {
          "internalType": "uint256",
          "name": "",
          "type": "uint256"
        }
      ],
      "name": "dryWithdraw",
      "outputs": [
        {
          "internalType": "uint256",
          "name": "lpTokenAmount",
          "type": "uint256"
        },
        {
          "internalType": "string",
          "name": "error",
          "type": "string"
        }
      ],
      "stateMutability": "pure",
      "type": "function"
    },
    {
      "inputs": [],
      "name": "exchangeRate",
      "outputs": [
        {
          "internalType": "uint256",
          "name": "",
          "type": "uint256"
        }
      ],
      "stateMutability": "pure",
      "type": "function"
    },
    {
      "inputs": [],
      "name": "getTokens",
      "outputs": [
        {
          "internalType": "contract IERC20[]",
          "name": "",
          "type": "address[]"
        }
      ],
      "stateMutability": "view",
      "type": "function"
    },
    {
      "inputs": [
        {
          "internalType": "address",
          "name": "spender",
          "type": "address"
        },
        {
          "internalType": "uint256",
          "name": "addedValue",
          "type": "uint256"
        }
      ],
      "name": "increaseAllowance",
      "outputs": [
        {
          "internalType": "bool",
          "name": "",
          "type": "bool"
        }
      ],
      "stateMutability": "nonpayable",
      "type": "function"
    },
    {
      "inputs": [],
      "name": "name",
      "outputs": [
        {
          "internalType": "string",
          "name": "",
          "type": "string"
        }
      ],
      "stateMutability": "view",
      "type": "function"
    },
    {
      "inputs": [
        {
          "internalType": "address",
          "name": "strategyAddress",
          "type": "address"
        }
      ],
      "name": "setStrategy",
      "outputs": [],
      "stateMutability": "nonpayable",
      "type": "function"
    },
    {
      "inputs": [
        {
          "internalType": "contract IERC20[]",
          "name": "tokens",
          "type": "address[]"
        }
      ],
      "name": "setTokens",
      "outputs": [],
      "stateMutability": "nonpayable",
      "type": "function"
    },
    {
      "inputs": [],
      "name": "strategy",
      "outputs": [
        {
          "internalType": "address",
          "name": "",
          "type": "address"
        }
      ],
      "stateMutability": "view",
      "type": "function"
    },
    {
      "inputs": [],
      "name": "symbol",
      "outputs": [
        {
          "internalType": "string",
          "name": "",
          "type": "string"
        }
      ],
      "stateMutability": "view",
      "type": "function"
    },
    {
      "inputs": [],
      "name": "totalSupply",
      "outputs": [
        {
          "internalType": "uint256",
          "name": "",
          "type": "uint256"
        }
      ],
      "stateMutability": "view",
      "type": "function"
    },
    {
      "inputs": [],
      "name": "totalUnderlying",
      "outputs": [
        {
          "internalType": "uint256",
          "name": "",
          "type": "uint256"
        }
      ],
      "stateMutability": "view",
      "type": "function"
    },
    {
      "inputs": [
        {
          "internalType": "address",
          "name": "to",
          "type": "address"
        },
        {
          "internalType": "uint256",
          "name": "amount",
          "type": "uint256"
        }
      ],
      "name": "transfer",
      "outputs": [
        {
          "internalType": "bool",
          "name": "",
          "type": "bool"
        }
      ],
      "stateMutability": "nonpayable",
      "type": "function"
    },
    {
      "inputs": [
        {
          "internalType": "address",
          "name": "from",
          "type": "address"
        },
        {
          "internalType": "address",
          "name": "to",
          "type": "address"
        },
        {
          "internalType": "uint256",
          "name": "amount",
          "type": "uint256"
        }
      ],
      "name": "transferFrom",
      "outputs": [
        {
          "internalType": "bool",
          "name": "",
          "type": "bool"
        }
      ],
      "stateMutability": "nonpayable",
      "type": "function"
    },
    {
      "inputs": [],
      "name": "underlying",
      "outputs": [
        {
          "internalType": "address",
          "name": "",
          "type": "address"
        }
      ],
      "stateMutability": "view",
      "type": "function"
    },
    {
      "inputs": [],
      "name": "vaultType",
      "outputs": [
        {
          "internalType": "enum Vaults.Type",
          "name": "",
          "type": "uint8"
        }
      ],
      "stateMutability": "pure",
      "type": "function"
    },
    {
      "inputs": [
        {
          "internalType": "uint256",
          "name": "vaultTokenAmount",
          "type": "uint256"
        },
        {
          "internalType": "uint256",
          "name": "",
          "type": "uint256"
        }
      ],
      "name": "withdraw",
      "outputs": [
        {
          "internalType": "uint256",
          "name": "lpTokenAmount",
          "type": "uint256"
        }
      ],
      "stateMutability": "nonpayable",
      "type": "function"
    }
  ],
  "bytecode": {
    "object": "0x60a06040523480156200001157600080fd5b5060405162001584380380620015848339810160408190526200003491620000bc565b6040518060400160405280600581526020016415985d5b1d60da1b8152506040518060400160405280600381526020016215931560ea1b81525081600390816200007f919062000193565b5060046200008e828262000193565b5050600680546001600160a01b0319166001600160a01b03939093169290921790915550436080526200025f565b600060208284031215620000cf57600080fd5b81516001600160a01b0381168114620000e757600080fd5b9392505050565b634e487b7160e01b600052604160045260246000fd5b600181811c908216806200011957607f821691505b6020821081036200013a57634e487b7160e01b600052602260045260246000fd5b50919050565b601f8211156200018e57600081815260208120601f850160051c81016020861015620001695750805b601f850160051c820191505b818110156200018a5782815560010162000175565b5050505b505050565b81516001600160401b03811115620001af57620001af620000ee565b620001c781620001c0845462000104565b8462000140565b602080601f831160018114620001ff5760008415620001e65750858301515b600019600386901b1c1916600185901b1785556200018a565b600085815260208120601f198616915b8281101562000230578886015182559484019460019091019084016200020f565b50858210156200024f5787850151600019600388901b60f8161c191681555b5050505050600190811b01905550565b6080516113096200027b60003960006103a501526113096000f3fe608060405234801561001057600080fd5b50600436106101735760003560e01c8063625adaf2116100de578063a9059cbb11610097578063cc04feff11610071578063cc04feff14610362578063dd62ed3e1461037a578063e2bbb1581461038d578063eae4c19f146103a057600080fd5b8063a9059cbb14610332578063aa6ca80814610345578063c70920bc1461035a57600080fd5b8063625adaf2146102a55780636f307dc3146102b857806370a08231146102dd57806395d89b4114610306578063a457c2d71461030e578063a8c62e761461032157600080fd5b80633950935111610130578063395093511461021f5780633ba0b9a914610232578063441a3e70146102405780634ac032be146102535780634cf5fbf514610262578063550d2b621461027557600080fd5b806306fdde0314610178578063095ea7b31461019657806318160ddd146101b957806323b872dd146101cb578063313ce567146101de57806333a100ca146101ed575b600080fd5b6101806103c7565b60405161018d9190610fe6565b60405180910390f35b6101a96101a4366004611015565b610459565b604051901515815260200161018d565b6002545b60405190815260200161018d565b6101a96101d936600461103f565b610473565b6040516012815260200161018d565b61021d6101fb36600461107b565b600580546001600160a01b0319166001600160a01b0392909216919091179055565b005b6101a961022d366004611015565b610497565b670de0b6b3a76400006101bd565b6101bd61024e366004611096565b6104b9565b600060405161018d91906110b8565b6101bd6102703660046110e0565b610542565b610297610283366004611096565b506040805160208101909152600081529091565b60405161018d929190611113565b61021d6102b336600461112c565b61056f565b6006546001600160a01b03165b6040516001600160a01b03909116815260200161018d565b6101bd6102eb36600461107b565b6001600160a01b031660009081526020819052604090205490565b610180610580565b6101a961031c366004611015565b61058f565b6005546001600160a01b03166102c5565b6101a9610340366004611015565b61060f565b61034d61061d565b60405161018d91906111a1565b6101bd61067e565b610297610370366004611096565b5060009160609150565b6101bd6103883660046111ee565b6106f0565b6101bd61039b366004611096565b61071b565b6101bd7f000000000000000000000000000000000000000000000000000000000000000081565b6060600380546103d690611221565b80601f016020809104026020016040519081016040528092919081815260200182805461040290611221565b801561044f5780601f106104245761010080835404028352916020019161044f565b820191906000526020600020905b81548152906001019060200180831161043257829003601f168201915b5050505050905090565b60003361046781858561072f565b60019150505b92915050565b600033610481858285610853565b61048c8585856108cd565b506001949350505050565b6000336104678185856104aa83836106f0565b6104b4919061125b565b61072f565b60006104c53384610a71565b60065460405163a9059cbb60e01b8152336004820152602481018590526001600160a01b039091169063a9059cbb906044016020604051808303816000875af1158015610516573d6000803e3d6000fd5b505050506040513d601f19601f8201168201806040525081019061053a919061127c565b509192915050565b60065460009061055d906001600160a01b0316338686610ba3565b6105678484610bfd565b509092915050565b61057b60078383610f1e565b505050565b6060600480546103d690611221565b6000338161059d82866106f0565b9050838110156106025760405162461bcd60e51b815260206004820152602560248201527f45524332303a2064656372656173656420616c6c6f77616e63652062656c6f77604482015264207a65726f60d81b60648201526084015b60405180910390fd5b61048c828686840361072f565b6000336104678185856108cd565b6060600780548060200260200160405190810160405280929190818152602001828054801561044f57602002820191906000526020600020905b81546001600160a01b03168152600190910190602001808311610657575050505050905090565b6006546040516370a0823160e01b81523060048201526000916001600160a01b0316906370a0823190602401602060405180830381865afa1580156106c7573d6000803e3d6000fd5b505050506040513d601f19601f820116820180604052508101906106eb919061129e565b905090565b6001600160a01b03918216600090815260016020908152604080832093909416825291909152205490565b6000610728338484610542565b9392505050565b6001600160a01b0383166107915760405162461bcd60e51b8152602060048201526024808201527f45524332303a20617070726f76652066726f6d20746865207a65726f206164646044820152637265737360e01b60648201526084016105f9565b6001600160a01b0382166107f25760405162461bcd60e51b815260206004820152602260248201527f45524332303a20617070726f766520746f20746865207a65726f206164647265604482015261737360f01b60648201526084016105f9565b6001600160a01b0383811660008181526001602090815260408083209487168084529482529182902085905590518481527f8c5be1e5ebec7d5bd14f71427d1e84f3dd0314c0f7b2291e5b200ac8c7c3b925910160405180910390a3505050565b600061085f84846106f0565b905060001981146108c757818110156108ba5760405162461bcd60e51b815260206004820152601d60248201527f45524332303a20696e73756666696369656e7420616c6c6f77616e636500000060448201526064016105f9565b6108c7848484840361072f565b50505050565b6001600160a01b0383166109315760405162461bcd60e51b815260206004820152602560248201527f45524332303a207472616e736665722066726f6d20746865207a65726f206164604482015264647265737360d81b60648201526084016105f9565b6001600160a01b0382166109935760405162461bcd60e51b815260206004820152602360248201527f45524332303a207472616e7366657220746f20746865207a65726f206164647260448201526265737360e81b60648201526084016105f9565b6001600160a01b03831660009081526020819052604090205481811015610a0b5760405162461bcd60e51b815260206004820152602660248201527f45524332303a207472616e7366657220616d6f756e7420657863656564732062604482015265616c616e636560d01b60648201526084016105f9565b6001600160a01b03848116600081815260208181526040808320878703905593871680835291849020805487019055925185815290927fddf252ad1be2c89b69c2b068fc378daa952ba7f163c4a11628f55a4df523b3ef910160405180910390a36108c7565b6001600160a01b038216610ad15760405162461bcd60e51b815260206004820152602160248201527f45524332303a206275726e2066726f6d20746865207a65726f206164647265736044820152607360f81b60648201526084016105f9565b6001600160a01b03821660009081526020819052604090205481811015610b455760405162461bcd60e51b815260206004820152602260248201527f45524332303a206275726e20616d6f756e7420657863656564732062616c616e604482015261636560f01b60648201526084016105f9565b6001600160a01b0383166000818152602081815260408083208686039055600280548790039055518581529192917fddf252ad1be2c89b69c2b068fc378daa952ba7f163c4a11628f55a4df523b3ef910160405180910390a3505050565b604080516001600160a01b0385811660248301528416604482015260648082018490528251808303909101815260849091019091526020810180516001600160e01b03166323b872dd60e01b1790526108c7908590610cbc565b6001600160a01b038216610c535760405162461bcd60e51b815260206004820152601f60248201527f45524332303a206d696e7420746f20746865207a65726f20616464726573730060448201526064016105f9565b8060026000828254610c65919061125b565b90915550506001600160a01b038216600081815260208181526040808320805486019055518481527fddf252ad1be2c89b69c2b068fc378daa952ba7f163c4a11628f55a4df523b3ef910160405180910390a35050565b6000610d11826040518060400160405280602081526020017f5361666545524332303a206c6f772d6c6576656c2063616c6c206661696c6564815250856001600160a01b0316610d8e9092919063ffffffff16565b80519091501561057b5780806020019051810190610d2f919061127c565b61057b5760405162461bcd60e51b815260206004820152602a60248201527f5361666545524332303a204552433230206f7065726174696f6e20646964206e6044820152691bdd081cdd58d8d9595960b21b60648201526084016105f9565b6060610d9d8484600085610da5565b949350505050565b606082471015610e065760405162461bcd60e51b815260206004820152602660248201527f416464726573733a20696e73756666696369656e742062616c616e636520666f6044820152651c8818d85b1b60d21b60648201526084016105f9565b600080866001600160a01b03168587604051610e2291906112b7565b60006040518083038185875af1925050503d8060008114610e5f576040519150601f19603f3d011682016040523d82523d6000602084013e610e64565b606091505b5091509150610e7587838387610e80565b979650505050505050565b60608315610eef578251600003610ee8576001600160a01b0385163b610ee85760405162461bcd60e51b815260206004820152601d60248201527f416464726573733a2063616c6c20746f206e6f6e2d636f6e747261637400000060448201526064016105f9565b5081610d9d565b610d9d8383815115610f045781518083602001fd5b8060405162461bcd60e51b81526004016105f99190610fe6565b828054828255906000526020600020908101928215610f71579160200282015b82811115610f715781546001600160a01b0319166001600160a01b03843516178255602090920191600190910190610f3e565b50610f7d929150610f81565b5090565b5b80821115610f7d5760008155600101610f82565b60005b83811015610fb1578181015183820152602001610f99565b50506000910152565b60008151808452610fd2816020860160208601610f96565b601f01601f19169290920160200192915050565b6020815260006107286020830184610fba565b80356001600160a01b038116811461101057600080fd5b919050565b6000806040838503121561102857600080fd5b61103183610ff9565b946020939093013593505050565b60008060006060848603121561105457600080fd5b61105d84610ff9565b925061106b60208501610ff9565b9150604084013590509250925092565b60006020828403121561108d57600080fd5b61072882610ff9565b600080604083850312156110a957600080fd5b50508035926020909101359150565b60208101600583106110da57634e487b7160e01b600052602160045260246000fd5b91905290565b6000806000606084860312156110f557600080fd5b6110fe84610ff9565b95602085013595506040909401359392505050565b828152604060208201526000610d9d6040830184610fba565b6000806020838503121561113f57600080fd5b823567ffffffffffffffff8082111561115757600080fd5b818501915085601f83011261116b57600080fd5b81358181111561117a57600080fd5b8660208260051b850101111561118f57600080fd5b60209290920196919550909350505050565b6020808252825182820181905260009190848201906040850190845b818110156111e25783516001600160a01b0316835292840192918401916001016111bd565b50909695505050505050565b6000806040838503121561120157600080fd5b61120a83610ff9565b915061121860208401610ff9565b90509250929050565b600181811c9082168061123557607f821691505b60208210810361125557634e487b7160e01b600052602260045260246000fd5b50919050565b8082018082111561046d57634e487b7160e01b600052601160045260246000fd5b60006020828403121561128e57600080fd5b8151801515811461072857600080fd5b6000602082840312156112b057600080fd5b5051919050565b600082516112c9818460208701610f96565b919091019291505056fea26469706673582212204889f40b7638906f0a76040b3ff1e1753f5c7a617663169687b74212fa1fd4da64736f6c63430008110033",
    "linkReferences": {}
  },
  "methodIdentifiers": {
    "allowance(address,address)": "dd62ed3e",
    "approve(address,uint256)": "095ea7b3",
    "balanceOf(address)": "70a08231",
    "decimals()": "313ce567",
    "decreaseAllowance(address,uint256)": "a457c2d7",
    "deployedAt()": "eae4c19f",
    "deposit(uint256,uint256)": "e2bbb158",
    "depositFor(address,uint256,uint256)": "4cf5fbf5",
    "dryDeposit(uint256,uint256)": "550d2b62",
    "dryWithdraw(uint256,uint256)": "cc04feff",
    "exchangeRate()": "3ba0b9a9",
    "getTokens()": "aa6ca808",
    "increaseAllowance(address,uint256)": "39509351",
    "name()": "06fdde03",
    "setStrategy(address)": "33a100ca",
    "setTokens(address[])": "625adaf2",
    "strategy()": "a8c62e76",
    "symbol()": "95d89b41",
    "totalSupply()": "18160ddd",
    "totalUnderlying()": "c70920bc",
    "transfer(address,uint256)": "a9059cbb",
    "transferFrom(address,address,uint256)": "23b872dd",
    "underlying()": "6f307dc3",
    "vaultType()": "4ac032be",
    "withdraw(uint256,uint256)": "441a3e70"
  },
  "id": 36
}