{
  "abi": [
    {
      "anonymous": false,
      "inputs": [
        {
          "indexed": true,
          "internalType": "address",
          "name": "from",
          "type": "address"
        },
        {
          "indexed": true,
          "internalType": "address",
          "name": "token",
          "type": "address"
        },
        {
          "indexed": false,
          "internalType": "uint256",
          "name": "amount",
          "type": "uint256"
        }
      ],
      "name": "Deposit",
      "type": "event"
    },
    {
      "anonymous": false,
      "inputs": [
        {
          "indexed": false,
          "internalType": "address",
          "name": "newGovernor",
          "type": "address"
        }
      ],
      "name": "GovernorChangeRequested",
      "type": "event"
    },
    {
      "anonymous": false,
      "inputs": [
        {
          "indexed": false,
          "internalType": "address",
          "name": "oldGovernor",
          "type": "address"
        },
        {
          "indexed": false,
          "internalType": "address",
          "name": "newGovernor",
          "type": "address"
        }
      ],
      "name": "GovernorChanged",
      "type": "event"
    },
    {
      "anonymous": false,
      "inputs": [
        {
          "indexed": false,
          "internalType": "uint8",
          "name": "version",
          "type": "uint8"
        }
      ],
      "name": "Initialized",
      "type": "event"
    },
    {
      "anonymous": false,
      "inputs": [
        {
          "indexed": true,
          "internalType": "address",
          "name": "manager",
          "type": "address"
        }
      ],
      "name": "ManagerAdded",
      "type": "event"
    },
    {
      "anonymous": false,
      "inputs": [
        {
          "indexed": true,
          "internalType": "address",
          "name": "manager",
          "type": "address"
        }
      ],
      "name": "ManagerRemoved",
      "type": "event"
    },
    {
      "anonymous": false,
      "inputs": [
        {
          "indexed": true,
          "internalType": "address",
          "name": "from",
          "type": "address"
        },
        {
          "indexed": true,
          "internalType": "address",
          "name": "token",
          "type": "address"
        },
        {
          "indexed": false,
          "internalType": "uint256",
          "name": "amount",
          "type": "uint256"
        }
      ],
      "name": "Withdraw",
      "type": "event"
    },
    {
      "inputs": [],
      "name": "acceptGovernance",
      "outputs": [],
      "stateMutability": "nonpayable",
      "type": "function"
    },
    {
      "inputs": [
        {
          "internalType": "address",
          "name": "manager",
          "type": "address"
        }
      ],
      "name": "addManager",
      "outputs": [],
      "stateMutability": "nonpayable",
      "type": "function"
    },
    {
      "inputs": [
        {
          "internalType": "address",
          "name": "newGovernor",
          "type": "address"
        }
      ],
      "name": "changeGovernor",
      "outputs": [],
      "stateMutability": "nonpayable",
      "type": "function"
    },
    {
      "inputs": [
        {
          "internalType": "address",
          "name": "token",
          "type": "address"
        },
        {
          "internalType": "uint256",
          "name": "amount",
          "type": "uint256"
        }
      ],
      "name": "depositToken",
      "outputs": [],
      "stateMutability": "nonpayable",
      "type": "function"
    },
    {
      "inputs": [],
      "name": "governor",
      "outputs": [
        {
          "internalType": "address",
          "name": "",
          "type": "address"
        }
      ],
      "stateMutability": "view",
      "type": "function"
    },
    {
      "inputs": [
        {
          "internalType": "address",
          "name": "_governor",
          "type": "address"
        }
      ],
      "name": "initialize",
      "outputs": [],
      "stateMutability": "nonpayable",
      "type": "function"
    },
    {
      "inputs": [],
      "name": "managers",
      "outputs": [
        {
          "internalType": "address[]",
          "name": "",
          "type": "address[]"
        }
      ],
      "stateMutability": "view",
      "type": "function"
    },
    {
      "inputs": [],
      "name": "pendingGovernor",
      "outputs": [
        {
          "internalType": "address",
          "name": "",
          "type": "address"
        }
      ],
      "stateMutability": "view",
      "type": "function"
    },
    {
      "inputs": [
        {
          "internalType": "address",
          "name": "manager",
          "type": "address"
        }
      ],
      "name": "removeManager",
      "outputs": [],
      "stateMutability": "nonpayable",
      "type": "function"
    },
    {
      "inputs": [
        {
          "internalType": "address",
          "name": "token",
          "type": "address"
        },
        {
          "internalType": "uint256",
          "name": "amount",
          "type": "uint256"
        }
      ],
      "name": "withdrawToken",
      "outputs": [],
      "stateMutability": "nonpayable",
      "type": "function"
    }
  ],
  "bytecode": {
    "object": "0x608060405234801561001057600080fd5b50610ddd806100206000396000f3fe608060405234801561001057600080fd5b506004361061009e5760003560e01c80639e281a98116100665780639e281a9814610118578063ac18de431461012b578063c4d66de81461013e578063e3056a3414610151578063e4c0aaf41461016457600080fd5b80630c340a24146100a3578063238efcbc146100d35780632d06177a146100dd578063338b5dea146100f05780637231170514610103575b600080fd5b6000546100b6906001600160a01b031681565b6040516001600160a01b0390911681526020015b60405180910390f35b6100db610177565b005b6100db6100eb366004610c33565b610230565b6100db6100fe366004610c4e565b6102f2565b61010b61034c565b6040516100ca9190610c78565b6100db610126366004610c4e565b61035d565b6100db610139366004610c33565b6103f3565b6100db61014c366004610c33565b6104b5565b6001546100b6906001600160a01b031681565b6100db610172366004610c33565b6105df565b600154604080518082019091526002815261033360f41b6020820152906001600160a01b031633146101c55760405162461bcd60e51b81526004016101bc9190610ce9565b60405180910390fd5b5060008054600180546001600160a01b03198084166001600160a01b03808416919091179095551690556040805192909116808352336020840152917fde4b3f61490b74c0ed6237523974fe299126bbbf8a8a7482fd220104c59b0c8491015b60405180910390a150565b600054604080518082019091526002815261033360f41b6020820152906001600160a01b031633146102755760405162461bcd60e51b81526004016101bc9190610ce9565b506102816002826106b4565b60405180604001604052806002815260200161333160f01b815250906102ba5760405162461bcd60e51b81526004016101bc9190610ce9565b506040516001600160a01b038216907f3b4a40cccf2058c593542587329dd385be4f0b588db5471fbd9598e56dd7093a90600090a250565b6103076001600160a01b0383163330846106d2565b6040518181526001600160a01b0383169033907f5548c837ab068cf56a2c2479df0882a4922fd203edb7517321831d95078c5f62906020015b60405180910390a35050565b60606103586002610743565b905090565b610368600233610757565b60405180604001604052806002815260200161033360f41b815250906103a15760405162461bcd60e51b81526004016101bc9190610ce9565b506103b66001600160a01b0383163383610779565b6040518181526001600160a01b0383169033907f9b1bfa7fa9ee420a16e124f794c35ac9f90472acc99140eb2f6447c714cad8eb90602001610340565b600054604080518082019091526002815261033360f41b6020820152906001600160a01b031633146104385760405162461bcd60e51b81526004016101bc9190610ce9565b506104446002826107ae565b60405180604001604052806002815260200161333160f01b8152509061047d5760405162461bcd60e51b81526004016101bc9190610ce9565b506040516001600160a01b038216907fef69f7d97228658c92417be1b16b19058315de71fecb435d07b7d23728b6bd3190600090a250565b600154600160a81b900460ff16158080156104db575060018054600160a01b900460ff16105b806104fb5750303b1580156104fb575060018054600160a01b900460ff16145b61055e5760405162461bcd60e51b815260206004820152602e60248201527f496e697469616c697a61626c653a20636f6e747261637420697320616c72656160448201526d191e481a5b9a5d1a585b1a5e995960921b60648201526084016101bc565b6001805460ff60a01b1916600160a01b179055801561058b576001805460ff60a81b1916600160a81b1790555b610594826107c3565b80156105db576001805460ff60a81b191681556040519081527f7f26b83ff96e1f2b6a682f133852f6798a09c465da95921460cefb38474024989060200160405180910390a15b5050565b600054604080518082019091526002815261033360f41b6020820152906001600160a01b031633146106245760405162461bcd60e51b81526004016101bc9190610ce9565b50604080518082019091526002815261333160f01b60208201526001600160a01b0382166106655760405162461bcd60e51b81526004016101bc9190610ce9565b50600180546001600160a01b0319166001600160a01b0383169081179091556040519081527f67235ba2e63c748a35b95c4f92a3bbc2a1389938170a5ce6c9add5d0b03a314a90602001610225565b60006106c9836001600160a01b038416610817565b90505b92915050565b6040516001600160a01b038085166024830152831660448201526064810182905261073d9085906323b872dd60e01b906084015b60408051601f198184030181529190526020810180516001600160e01b03166001600160e01b031990931692909217909152610866565b50505050565b6060600061075083610938565b9392505050565b6001600160a01b038116600090815260018301602052604081205415156106c9565b6040516001600160a01b0383166024820152604481018290526107a990849063a9059cbb60e01b90606401610706565b505050565b60006106c9836001600160a01b038416610994565b600080546001600160a01b0319166001600160a01b03831690811782556040805192835260208301919091527fde4b3f61490b74c0ed6237523974fe299126bbbf8a8a7482fd220104c59b0c849101610225565b600081815260018301602052604081205461085e575081546001818101845560008481526020808220909301849055845484825282860190935260409020919091556106cc565b5060006106cc565b60006108bb826040518060400160405280602081526020017f5361666545524332303a206c6f772d6c6576656c2063616c6c206661696c6564815250856001600160a01b0316610a879092919063ffffffff16565b8051909150156107a957808060200190518101906108d99190610d1c565b6107a95760405162461bcd60e51b815260206004820152602a60248201527f5361666545524332303a204552433230206f7065726174696f6e20646964206e6044820152691bdd081cdd58d8d9595960b21b60648201526084016101bc565b60608160000180548060200260200160405190810160405280929190818152602001828054801561098857602002820191906000526020600020905b815481526020019060010190808311610974575b50505050509050919050565b60008181526001830160205260408120548015610a7d5760006109b8600183610d3e565b85549091506000906109cc90600190610d3e565b9050818114610a315760008660000182815481106109ec576109ec610d5f565b9060005260206000200154905080876000018481548110610a0f57610a0f610d5f565b6000918252602080832090910192909255918252600188019052604090208390555b8554869080610a4257610a42610d75565b6001900381819060005260206000200160009055905585600101600086815260200190815260200160002060009055600193505050506106cc565b60009150506106cc565b6060610a968484600085610a9e565b949350505050565b606082471015610aff5760405162461bcd60e51b815260206004820152602660248201527f416464726573733a20696e73756666696369656e742062616c616e636520666f6044820152651c8818d85b1b60d21b60648201526084016101bc565b600080866001600160a01b03168587604051610b1b9190610d8b565b60006040518083038185875af1925050503d8060008114610b58576040519150601f19603f3d011682016040523d82523d6000602084013e610b5d565b606091505b5091509150610b6e87838387610b79565b979650505050505050565b60608315610be8578251600003610be1576001600160a01b0385163b610be15760405162461bcd60e51b815260206004820152601d60248201527f416464726573733a2063616c6c20746f206e6f6e2d636f6e747261637400000060448201526064016101bc565b5081610a96565b610a968383815115610bfd5781518083602001fd5b8060405162461bcd60e51b81526004016101bc9190610ce9565b80356001600160a01b0381168114610c2e57600080fd5b919050565b600060208284031215610c4557600080fd5b6106c982610c17565b60008060408385031215610c6157600080fd5b610c6a83610c17565b946020939093013593505050565b6020808252825182820181905260009190848201906040850190845b81811015610cb95783516001600160a01b031683529284019291840191600101610c94565b50909695505050505050565b60005b83811015610ce0578181015183820152602001610cc8565b50506000910152565b6020815260008251806020840152610d08816040850160208701610cc5565b601f01601f19169190910160400192915050565b600060208284031215610d2e57600080fd5b8151801515811461075057600080fd5b818103818111156106cc57634e487b7160e01b600052601160045260246000fd5b634e487b7160e01b600052603260045260246000fd5b634e487b7160e01b600052603160045260246000fd5b60008251610d9d818460208701610cc5565b919091019291505056fea2646970667358221220a8b6fea780485c97ff724a53cf5cb2e0ce54eb1a2f5d824d43e0f002b00d129064736f6c63430008110033",
    "linkReferences": {}
  },
  "methodIdentifiers": {
    "acceptGovernance()": "238efcbc",
    "addManager(address)": "2d06177a",
    "changeGovernor(address)": "e4c0aaf4",
    "depositToken(address,uint256)": "338b5dea",
    "governor()": "0c340a24",
    "initialize(address)": "c4d66de8",
    "managers()": "72311705",
    "pendingGovernor()": "e3056a34",
    "removeManager(address)": "ac18de43",
    "withdrawToken(address,uint256)": "9e281a98"
  },
  "id": 6
}