{
  "abi": [
    {
      "inputs": [
        {
          "internalType": "address",
          "name": "_governor",
          "type": "address"
        }
      ],
      "stateMutability": "nonpayable",
      "type": "constructor"
    },
    {
      "anonymous": false,
      "inputs": [
        {
          "indexed": false,
          "internalType": "address",
          "name": "newGovernor",
          "type": "address"
        }
      ],
      "name": "GovernorChangeRequested",
      "type": "event"
    },
    {
      "anonymous": false,
      "inputs": [
        {
          "indexed": false,
          "internalType": "address",
          "name": "oldGovernor",
          "type": "address"
        },
        {
          "indexed": false,
          "internalType": "address",
          "name": "newGovernor",
          "type": "address"
        }
      ],
      "name": "GovernorChanged",
      "type": "event"
    },
    {
      "inputs": [],
      "name": "acceptGovernance",
      "outputs": [],
      "stateMutability": "nonpayable",
      "type": "function"
    },
    {
      "inputs": [
        {
          "internalType": "address",
          "name": "newGovernor",
          "type": "address"
        }
      ],
      "name": "changeGovernor",
      "outputs": [],
      "stateMutability": "nonpayable",
      "type": "function"
    },
    {
      "inputs": [],
      "name": "governor",
      "outputs": [
        {
          "internalType": "address",
          "name": "",
          "type": "address"
        }
      ],
      "stateMutability": "view",
      "type": "function"
    },
    {
      "inputs": [],
      "name": "pendingGovernor",
      "outputs": [
        {
          "internalType": "address",
          "name": "",
          "type": "address"
        }
      ],
      "stateMutability": "view",
      "type": "function"
    }
  ],
  "bytecode": {
    "object": "0x608060405234801561001057600080fd5b506040516103bd3803806103bd83398101604081905261002f9161008c565b600080546001600160a01b0319166001600160a01b03831690811782556040805192835260208301919091527fde4b3f61490b74c0ed6237523974fe299126bbbf8a8a7482fd220104c59b0c84910160405180910390a1506100bc565b60006020828403121561009e57600080fd5b81516001600160a01b03811681146100b557600080fd5b9392505050565b6102f2806100cb6000396000f3fe608060405234801561001057600080fd5b506004361061004c5760003560e01c80630c340a2414610051578063238efcbc14610080578063e3056a341461008a578063e4c0aaf41461009d575b600080fd5b600054610064906001600160a01b031681565b6040516001600160a01b03909116815260200160405180910390f35b6100886100b0565b005b600154610064906001600160a01b031681565b6100886100ab36600461023e565b610169565b600154604080518082019091526002815261033360f41b6020820152906001600160a01b031633146100fe5760405162461bcd60e51b81526004016100f5919061026e565b60405180910390fd5b5060008054600180546001600160a01b03198084166001600160a01b03808416919091179095551690556040805192909116808352336020840152917fde4b3f61490b74c0ed6237523974fe299126bbbf8a8a7482fd220104c59b0c8491015b60405180910390a150565b600054604080518082019091526002815261033360f41b6020820152906001600160a01b031633146101ae5760405162461bcd60e51b81526004016100f5919061026e565b50604080518082019091526002815261333160f01b60208201526001600160a01b0382166101ef5760405162461bcd60e51b81526004016100f5919061026e565b50600180546001600160a01b0319166001600160a01b0383169081179091556040519081527f67235ba2e63c748a35b95c4f92a3bbc2a1389938170a5ce6c9add5d0b03a314a9060200161015e565b60006020828403121561025057600080fd5b81356001600160a01b038116811461026757600080fd5b9392505050565b600060208083528351808285015260005b8181101561029b5785810183015185820160400152820161027f565b506000604082860101526040601f19601f830116850101925050509291505056fea264697066735822122018762a3274f53e6d2b5d01d37aa0cf186d7ec39705e9396581d2393037e37d1c64736f6c63430008110033",
    "linkReferences": {}
  },
  "methodIdentifiers": {
    "acceptGovernance()": "238efcbc",
    "changeGovernor(address)": "e4c0aaf4",
    "governor()": "0c340a24",
    "pendingGovernor()": "e3056a34"
  },
  "id": 10
}