{
  "abi": [
    {
      "inputs": [
        {
          "internalType": "address",
          "name": "_governor",
          "type": "address"
        },
        {
          "internalType": "contract IUSDPriceOracle",
          "name": "_priceOracle",
          "type": "address"
        },
        {
          "internalType": "contract IRelativePriceOracle",
          "name": "_relativeOracle",
          "type": "address"
        }
      ],
      "stateMutability": "nonpayable",
      "type": "constructor"
    },
    {
      "anonymous": false,
      "inputs": [
        {
          "indexed": false,
          "internalType": "address",
          "name": "_addressToAdd",
          "type": "address"
        }
      ],
      "name": "AssetForRelativePriceCheckAdded",
      "type": "event"
    },
    {
      "anonymous": false,
      "inputs": [
        {
          "indexed": false,
          "internalType": "address",
          "name": "_addressToRemove",
          "type": "address"
        }
      ],
      "name": "AssetForRelativePriceCheckRemoved",
      "type": "event"
    },
    {
      "anonymous": false,
      "inputs": [
        {
          "indexed": false,
          "internalType": "address",
          "name": "assetToAdd",
          "type": "address"
        }
      ],
      "name": "AssetsWithIgnorableRelativePriceCheckAdded",
      "type": "event"
    },
    {
      "anonymous": false,
      "inputs": [
        {
          "indexed": false,
          "internalType": "address",
          "name": "assetToRemove",
          "type": "address"
        }
      ],
      "name": "AssetsWithIgnorableRelativePriceCheckRemoved",
      "type": "event"
    },
    {
      "anonymous": false,
      "inputs": [
        {
          "indexed": false,
          "internalType": "address",
          "name": "newGovernor",
          "type": "address"
        }
      ],
      "name": "GovernorChangeRequested",
      "type": "event"
    },
    {
      "anonymous": false,
      "inputs": [
        {
          "indexed": false,
          "internalType": "address",
          "name": "oldGovernor",
          "type": "address"
        },
        {
          "indexed": false,
          "internalType": "address",
          "name": "newGovernor",
          "type": "address"
        }
      ],
      "name": "GovernorChanged",
      "type": "event"
    },
    {
      "anonymous": false,
      "inputs": [
        {
          "indexed": false,
          "internalType": "address",
          "name": "_addressToAdd",
          "type": "address"
        }
      ],
      "name": "PriceLevelTWAPQuoteAssetAdded",
      "type": "event"
    },
    {
      "anonymous": false,
      "inputs": [
        {
          "indexed": false,
          "internalType": "address",
          "name": "_addressToRemove",
          "type": "address"
        }
      ],
      "name": "PriceLevelTWAPQuoteAssetRemoved",
      "type": "event"
    },
    {
      "anonymous": false,
      "inputs": [
        {
          "indexed": true,
          "internalType": "address",
          "name": "oracle",
          "type": "address"
        }
      ],
      "name": "RelativeOracleUpdated",
      "type": "event"
    },
    {
      "anonymous": false,
      "inputs": [
        {
          "indexed": false,
          "internalType": "address",
          "name": "_addressToAdd",
          "type": "address"
        }
      ],
      "name": "TrustedSignerOracleAdded",
      "type": "event"
    },
    {
      "anonymous": false,
      "inputs": [
        {
          "indexed": false,
          "internalType": "address",
          "name": "_addressToRemove",
          "type": "address"
        }
      ],
      "name": "TrustedSignerOracleRemoved",
      "type": "event"
    },
    {
      "anonymous": false,
      "inputs": [
        {
          "indexed": true,
          "internalType": "address",
          "name": "oracle",
          "type": "address"
        }
      ],
      "name": "USDOracleUpdated",
      "type": "event"
    },
    {
      "inputs": [],
      "name": "INITIAL_RELATIVE_EPSILON",
      "outputs": [
        {
          "internalType": "uint256",
          "name": "",
          "type": "uint256"
        }
      ],
      "stateMutability": "view",
      "type": "function"
    },
    {
      "inputs": [],
      "name": "MAX_ABSOLUTE_WETH_DEVIATION",
      "outputs": [
        {
          "internalType": "uint256",
          "name": "",
          "type": "uint256"
        }
      ],
      "stateMutability": "view",
      "type": "function"
    },
    {
      "inputs": [],
      "name": "MAX_RELATIVE_EPSILON",
      "outputs": [
        {
          "internalType": "uint256",
          "name": "",
          "type": "uint256"
        }
      ],
      "stateMutability": "view",
      "type": "function"
    },
    {
      "inputs": [],
      "name": "acceptGovernance",
      "outputs": [],
      "stateMutability": "nonpayable",
      "type": "function"
    },
    {
      "inputs": [
        {
          "internalType": "address",
          "name": "assetToAdd",
          "type": "address"
        }
      ],
      "name": "addAssetForRelativePriceCheck",
      "outputs": [],
      "stateMutability": "nonpayable",
      "type": "function"
    },
    {
      "inputs": [
        {
          "internalType": "address",
          "name": "assetToAdd",
          "type": "address"
        }
      ],
      "name": "addAssetsWithIgnorableRelativePriceCheck",
      "outputs": [],
      "stateMutability": "nonpayable",
      "type": "function"
    },
    {
      "inputs": [
        {
          "internalType": "address",
          "name": "_quoteAssetToAdd",
          "type": "address"
        }
      ],
      "name": "addQuoteAssetsForPriceLevelTwap",
      "outputs": [],
      "stateMutability": "nonpayable",
      "type": "function"
    },
    {
      "inputs": [
        {
          "internalType": "address",
          "name": "_signedAssetToAdd",
          "type": "address"
        }
      ],
      "name": "addSignedPriceSource",
      "outputs": [],
      "stateMutability": "nonpayable",
      "type": "function"
    },
    {
      "inputs": [
        {
          "internalType": "address",
          "name": "newGovernor",
          "type": "address"
        }
      ],
      "name": "changeGovernor",
      "outputs": [],
      "stateMutability": "nonpayable",
      "type": "function"
    },
    {
      "inputs": [
        {
          "internalType": "uint256[]",
          "name": "twapPrices",
          "type": "uint256[]"
        }
      ],
      "name": "computeMinOrSecondMin",
      "outputs": [
        {
          "internalType": "uint256",
          "name": "",
          "type": "uint256"
        }
      ],
      "stateMutability": "pure",
      "type": "function"
    },
    {
      "inputs": [
        {
          "internalType": "uint256",
          "name": "mainRootPrice",
          "type": "uint256"
        },
        {
          "internalType": "uint256[]",
          "name": "signedPrices",
          "type": "uint256[]"
        },
        {
          "internalType": "uint256[]",
          "name": "twaps",
          "type": "uint256[]"
        }
      ],
      "name": "ensureRootPriceGrounded",
      "outputs": [],
      "stateMutability": "view",
      "type": "function"
    },
    {
      "inputs": [
        {
          "internalType": "address",
          "name": "tokenAddress",
          "type": "address"
        }
      ],
      "name": "getPriceUSD",
      "outputs": [
        {
          "internalType": "uint256",
          "name": "",
          "type": "uint256"
        }
      ],
      "stateMutability": "view",
      "type": "function"
    },
    {
      "inputs": [
        {
          "internalType": "address[]",
          "name": "tokenAddresses",
          "type": "address[]"
        }
      ],
      "name": "getPricesUSD",
      "outputs": [
        {
          "internalType": "uint256[]",
          "name": "",
          "type": "uint256[]"
        }
      ],
      "stateMutability": "view",
      "type": "function"
    },
    {
      "inputs": [
        {
          "internalType": "address[]",
          "name": "tokenAddresses",
          "type": "address[]"
        }
      ],
      "name": "getPricesUSDWithMetadata",
      "outputs": [
        {
          "internalType": "uint256[]",
          "name": "",
          "type": "uint256[]"
        },
        {
          "internalType": "uint256",
          "name": "",
          "type": "uint256"
        },
        {
          "internalType": "uint256[]",
          "name": "",
          "type": "uint256[]"
        },
        {
          "internalType": "uint256[]",
          "name": "",
          "type": "uint256[]"
        }
      ],
      "stateMutability": "view",
      "type": "function"
    },
    {
      "inputs": [
        {
          "internalType": "uint256[]",
          "name": "signedPrices",
          "type": "uint256[]"
        },
        {
          "internalType": "uint256[]",
          "name": "twapPrices",
          "type": "uint256[]"
        }
      ],
      "name": "getRobustWETHPrice",
      "outputs": [
        {
          "internalType": "uint256",
          "name": "",
          "type": "uint256"
        }
      ],
      "stateMutability": "view",
      "type": "function"
    },
    {
      "inputs": [],
      "name": "governor",
      "outputs": [
        {
          "internalType": "address",
          "name": "",
          "type": "address"
        }
      ],
      "stateMutability": "view",
      "type": "function"
    },
    {
      "inputs": [],
      "name": "listAssetForRelativePriceCheck",
      "outputs": [
        {
          "internalType": "address[]",
          "name": "",
          "type": "address[]"
        }
      ],
      "stateMutability": "view",
      "type": "function"
    },
    {
      "inputs": [],
      "name": "listAssetsWithIgnorableRelativePriceCheck",
      "outputs": [
        {
          "internalType": "address[]",
          "name": "",
          "type": "address[]"
        }
      ],
      "stateMutability": "view",
      "type": "function"
    },
    {
      "inputs": [],
      "name": "listQuoteAssetsForPriceLevelTwap",
      "outputs": [
        {
          "internalType": "address[]",
          "name": "",
          "type": "address[]"
        }
      ],
      "stateMutability": "view",
      "type": "function"
    },
    {
      "inputs": [],
      "name": "listSignedPriceSource",
      "outputs": [
        {
          "internalType": "address[]",
          "name": "",
          "type": "address[]"
        }
      ],
      "stateMutability": "view",
      "type": "function"
    },
    {
      "inputs": [
        {
          "internalType": "uint256[]",
          "name": "array",
          "type": "uint256[]"
        }
      ],
      "name": "median",
      "outputs": [
        {
          "internalType": "uint256",
          "name": "",
          "type": "uint256"
        }
      ],
      "stateMutability": "view",
      "type": "function"
    },
    {
      "inputs": [],
      "name": "pendingGovernor",
      "outputs": [
        {
          "internalType": "address",
          "name": "",
          "type": "address"
        }
      ],
      "stateMutability": "view",
      "type": "function"
    },
    {
      "inputs": [],
      "name": "relativeEpsilon",
      "outputs": [
        {
          "internalType": "uint256",
          "name": "",
          "type": "uint256"
        }
      ],
      "stateMutability": "view",
      "type": "function"
    },
    {
      "inputs": [],
      "name": "relativeOracle",
      "outputs": [
        {
          "internalType": "contract IRelativePriceOracle",
          "name": "",
          "type": "address"
        }
      ],
      "stateMutability": "view",
      "type": "function"
    },
    {
      "inputs": [
        {
          "internalType": "address",
          "name": "assetToRemove",
          "type": "address"
        }
      ],
      "name": "removeAssetForRelativePriceCheck",
      "outputs": [],
      "stateMutability": "nonpayable",
      "type": "function"
    },
    {
      "inputs": [
        {
          "internalType": "address",
          "name": "assetToRemove",
          "type": "address"
        }
      ],
      "name": "removeAssetsWithIgnorableRelativePriceCheck",
      "outputs": [],
      "stateMutability": "nonpayable",
      "type": "function"
    },
    {
      "inputs": [
        {
          "internalType": "address",
          "name": "_quoteAssetToRemove",
          "type": "address"
        }
      ],
      "name": "removeQuoteAssetsForPriceLevelTwap",
      "outputs": [],
      "stateMutability": "nonpayable",
      "type": "function"
    },
    {
      "inputs": [
        {
          "internalType": "address",
          "name": "_signedAssetToRemove",
          "type": "address"
        }
      ],
      "name": "removeSignedPriceSource",
      "outputs": [],
      "stateMutability": "nonpayable",
      "type": "function"
    },
    {
      "inputs": [
        {
          "internalType": "uint256",
          "name": "_relativeEpsilon",
          "type": "uint256"
        }
      ],
      "name": "setRelativeMaxEpsilon",
      "outputs": [],
      "stateMutability": "nonpayable",
      "type": "function"
    },
    {
      "inputs": [
        {
          "internalType": "address",
          "name": "_relativeOracle",
          "type": "address"
        }
      ],
      "name": "setRelativeOracle",
      "outputs": [],
      "stateMutability": "nonpayable",
      "type": "function"
    },
    {
      "inputs": [
        {
          "internalType": "address",
          "name": "_usdOracle",
          "type": "address"
        }
      ],
      "name": "setUSDOracle",
      "outputs": [],
      "stateMutability": "nonpayable",
      "type": "function"
    },
    {
      "inputs": [],
      "name": "usdOracle",
      "outputs": [
        {
          "internalType": "contract IUSDPriceOracle",
          "name": "",
          "type": "address"
        }
      ],
      "stateMutability": "view",
      "type": "function"
    },
    {
      "inputs": [],
      "name": "wethAddress",
      "outputs": [
        {
          "internalType": "address",
          "name": "",
          "type": "address"
        }
      ],
      "stateMutability": "view",
      "type": "function"
    }
  ],
  "bytecode": {
    "object": "0x60a06040523480156200001157600080fd5b506040516200275e3803806200275e83398101604081905262000034916200019e565b600080546001600160a01b0319166001600160a01b038516908117825560408051928352602083019190915284918491849173c02aaa39b223fe8d0a0e5c4f27ead9083c756cc29185917fde4b3f61490b74c0ed6237523974fe299126bbbf8a8a7482fd220104c59b0c84910160405180910390a150604080518082019091526002815261333160f01b60208201526001600160a01b038416620000f65760405162461bcd60e51b8152600401620000ed9190620001f2565b60405180910390fd5b50604080518082019091526002815261333160f01b60208201526001600160a01b0383166200013a5760405162461bcd60e51b8152600401620000ed9190620001f2565b50600280546001600160a01b03199081166001600160a01b0395861617909155600380549091169284169290921790915566470de4df82000060045516608052506200024292505050565b6001600160a01b03811681146200019b57600080fd5b50565b600080600060608486031215620001b457600080fd5b8351620001c18162000185565b6020850151909350620001d48162000185565b6040850151909250620001e78162000185565b809150509250925092565b600060208083528351808285015260005b81811015620002215785810183015185820160400152820162000203565b506000604082860101526040601f19601f8301168501019250505092915050565b6080516124dd62000281600039600081816102f101528181610905015281816109a701528181610ab00152818161162c01526116c101526124dd6000f3fe608060405234801561001057600080fd5b50600436106101fb5760003560e01c80637cd8c1d01161011a578063d8f4a0aa116100ad578063e3a076211161007c578063e3a0762114610436578063e4c0aaf414610449578063e4dd02c31461045c578063e72a49d01461046f578063e7f9e3201461047e57600080fd5b8063d8f4a0aa146103ff578063e0dcd3c314610412578063e18189601461041a578063e3056a341461042357600080fd5b8063a7ed2a79116100e9578063a7ed2a79146103bb578063b55b3f1b146103cb578063c8a4271f146103d9578063ce62a3bf146103ec57600080fd5b80637cd8c1d01461036f57806386fe579e146103825780639c31666614610395578063a0b90f00146103a857600080fd5b8063442aae79116101925780635fbdc7d4116101615780635fbdc7d41461033957806364b450901461034c57806375ceebd014610354578063765aff1e1461036757600080fd5b8063442aae79146102d95780634f0e0ef3146102ec5780635708447d1461031357806357ae33891461032657600080fd5b80632af31283116101ce5780632af31283146102605780632e191ed7146102805780633750815b146102a15780633bb8c3bc146102b657600080fd5b80630317ca7c146102005780630c340a2414610215578063149bf6e214610245578063238efcbc14610258575b600080fd5b61021361020e366004611f1b565b610491565b005b600054610228906001600160a01b031681565b6040516001600160a01b0390911681526020015b60405180910390f35b610213610253366004611f1b565b61052c565b6102136105b7565b61027361026e366004611fa1565b610660565b60405161023c9190612079565b61029361028e3660046120f2565b610678565b60405190815260200161023c565b6102a961079c565b60405161023c9190612156565b6102c96102c4366004611fa1565b6107ad565b60405161023c94939291906121a3565b600354610228906001600160a01b031681565b6102287f000000000000000000000000000000000000000000000000000000000000000081565b610293610321366004611f1b565b610b73565b6102136103343660046121e2565b610bfd565b610213610347366004611f1b565b610cc2565b6102a9610d4d565b610213610362366004611f1b565b610d59565b6102a9610de4565b61021361037d366004611f1b565b610df0565b6102936103903660046121fb565b610e7b565b6102136103a3366004612230565b610e86565b6102136103b6366004611f1b565b610e96565b6102936802b5e3af16b188000081565b61029366470de4df82000081565b600254610228906001600160a01b031681565b6102936103fa3660046121fb565b610f26565b61021361040d366004611f1b565b610f31565b6102a9610fbc565b61029360045481565b600154610228906001600160a01b031681565b610213610444366004611f1b565b610fc8565b610213610457366004611f1b565b611053565b61021361046a366004611f1b565b611128565b61029367016345785d8a000081565b61021361048c366004611f1b565b6111b3565b600054604080518082019091526002815261033360f41b6020820152906001600160a01b031633146104df5760405162461bcd60e51b81526004016104d6919061229d565b60405180910390fd5b506104eb600982611243565b506040516001600160a01b03821681527f150f6605e7fc997b9ef5bed4e904eef6e3f887a080d2f7010632435b47f67adc906020015b60405180910390a150565b600054604080518082019091526002815261033360f41b6020820152906001600160a01b031633146105715760405162461bcd60e51b81526004016104d6919061229d565b5061057d600b82611243565b506040516001600160a01b03821681527f42787e5656dab1871f396a5a502afd943ed547a1f540f873f0fc302046dfb4e190602001610521565b600154604080518082019091526002815261033360f41b6020820152906001600160a01b031633146105fc5760405162461bcd60e51b81526004016104d6919061229d565b5060008054600180546001600160a01b03198084166001600160a01b03808416919091179095551690556040805192909116808352336020840152917fde4b3f61490b74c0ed6237523974fe299126bbbf8a8a7482fd220104c59b0c849101610521565b6060600061066d836107ad565b509195945050505050565b60008082516000036106955761068d8461125f565b915050610796565b61069e8361130c565b90506000845160016106b09190612301565b67ffffffffffffffff8111156106c8576106c8611f36565b6040519080825280602002602001820160405280156106f1578160200160208202803683370190505b5090508181600183516107049190612314565b8151811061071457610714612327565b60200260200101818152505060005b600182516107319190612314565b8110156107815785818151811061074a5761074a612327565b602002602001015182828151811061076457610764612327565b6020908102919091010152806107798161233d565b915050610723565b5061078b8161125f565b92505050610796565b505b92915050565b60606107a8600b611400565b905090565b60606000606080600085511160405180604001604052806002815260200161333160f01b815250906107f25760405162461bcd60e51b81526004016104d6919061229d565b506000855167ffffffffffffffff81111561080f5761080f611f36565b604051908082528060200260200182016040528015610838578160200160208202803683370190505b5090506000805b87518110156109845760025488516001600160a01b0390911690635708447d908a908490811061087157610871612327565b60200260200101516040518263ffffffff1660e01b81526004016108a491906001600160a01b0391909116815260200190565b602060405180830381865afa1580156108c1573d6000803e3d6000fd5b505050506040513d601f19601f820116820180604052508101906108e59190612356565b8382815181106108f7576108f7612327565b6020026020010181815250507f00000000000000000000000000000000000000000000000000000000000000006001600160a01b031688828151811061093f5761093f612327565b60200260200101516001600160a01b0316036109725782818151811061096757610967612327565b602002602001015191505b8061097c8161233d565b91505061083f565b5080600003610a1e57600254604051635708447d60e01b81526001600160a01b037f00000000000000000000000000000000000000000000000000000000000000008116600483015290911690635708447d90602401602060405180830381865afa1580156109f7573d6000803e3d6000fd5b505050506040513d601f19601f82011682018060405250810190610a1b9190612356565b90505b6000610a2a888461140d565b90506000610a3860056118e4565b905060008167ffffffffffffffff811115610a5557610a55611f36565b604051908082528060200260200182016040528015610a7e578160200160208202803683370190505b50905060005b82811015610b57576000610a996005836118ee565b604051635708447d60e01b81526001600160a01b037f00000000000000000000000000000000000000000000000000000000000000008116600483015291925090821690635708447d90602401602060405180830381865afa158015610b03573d6000803e3d6000fd5b505050506040513d601f19601f82011682018060405250810190610b279190612356565b838381518110610b3957610b39612327565b60209081029190910101525080610b4f8161233d565b915050610a84565b50610b638482856118fa565b9399929850929650945092505050565b604080516001808252818301909252600091829190602080830190803683370190505090508281600081518110610bac57610bac612327565b60200260200101906001600160a01b031690816001600160a01b0316815250506000610bd782610660565b905080600081518110610bec57610bec612327565b602002602001015192505050919050565b600054604080518082019091526002815261033360f41b6020820152906001600160a01b03163314610c425760405162461bcd60e51b81526004016104d6919061229d565b50604080518082019091526002815261333160f01b602082015281610c7a5760405162461bcd60e51b81526004016104d6919061229d565b50604080518082019091526002815261333160f01b602082015267016345785d8a00008210610cbc5760405162461bcd60e51b81526004016104d6919061229d565b50600455565b600054604080518082019091526002815261033360f41b6020820152906001600160a01b03163314610d075760405162461bcd60e51b81526004016104d6919061229d565b50610d13600b82611964565b506040516001600160a01b03821681527f97f16989c0ca3c61d0f35531ff27abeb36547d171fa32e2d3a9311ee15a09d2d90602001610521565b60606107a86005611400565b600054604080518082019091526002815261033360f41b6020820152906001600160a01b03163314610d9e5760405162461bcd60e51b81526004016104d6919061229d565b50610daa600582611243565b506040516001600160a01b03821681527fb7f10b8974f181778e2544b4188359b499da116029e96c6a05bed5cdecee106490602001610521565b60606107a86009611400565b600054604080518082019091526002815261033360f41b6020820152906001600160a01b03163314610e355760405162461bcd60e51b81526004016104d6919061229d565b50610e41600982611964565b506040516001600160a01b03821681527fa67cac4de4567bfe36d7fa182b8455fd3e7d1b80c45191dd2b6dd5310a35306690602001610521565b60006107968261130c565b610e918383836118fa565b505050565b600054604080518082019091526002815261033360f41b6020820152906001600160a01b03163314610edb5760405162461bcd60e51b81526004016104d6919061229d565b50600280546001600160a01b0319166001600160a01b0383169081179091556040517f8bdf8e573e1e6b8aba457bd2a4fed210b28b0ed18344a7c4bb4bd1e87f6e1fb790600090a250565b60006107968261125f565b600054604080518082019091526002815261033360f41b6020820152906001600160a01b03163314610f765760405162461bcd60e51b81526004016104d6919061229d565b50610f82600782611964565b506040516001600160a01b03821681527f612ac93ad02ac7669d13be8835bb33d5c6d42bb4c46f0cdb717681ebd2b6455790602001610521565b60606107a86007611400565b600054604080518082019091526002815261033360f41b6020820152906001600160a01b0316331461100d5760405162461bcd60e51b81526004016104d6919061229d565b50611019600582611964565b506040516001600160a01b03821681527f8696120fb7656955ec406c2959998de0aa9798518606d5afb5f36789f522dfea90602001610521565b600054604080518082019091526002815261033360f41b6020820152906001600160a01b031633146110985760405162461bcd60e51b81526004016104d6919061229d565b50604080518082019091526002815261333160f01b60208201526001600160a01b0382166110d95760405162461bcd60e51b81526004016104d6919061229d565b50600180546001600160a01b0319166001600160a01b0383169081179091556040519081527f67235ba2e63c748a35b95c4f92a3bbc2a1389938170a5ce6c9add5d0b03a314a90602001610521565b600054604080518082019091526002815261033360f41b6020820152906001600160a01b0316331461116d5760405162461bcd60e51b81526004016104d6919061229d565b50611179600782611243565b506040516001600160a01b03821681527ffab625e04bc6eeef38aaf5c2e48b1f1953cf5183297f4115f0da9e906d4bf3ac90602001610521565b600054604080518082019091526002815261033360f41b6020820152906001600160a01b031633146111f85760405162461bcd60e51b81526004016104d6919061229d565b50600380546001600160a01b0319166001600160a01b0383169081179091556040517f99e4ac532391c2555b226b3d66f3d643e9256788b0c246834c1aaebfad90bd0190600090a250565b6000611258836001600160a01b038416611979565b9392505050565b600061126a826119c8565b50600282516112799190612385565b156112aa57816002835161128d9190612399565b8151811061129d5761129d612327565b6020026020010151610796565b610796826001600285516112be9190612399565b6112c89190612314565b815181106112d8576112d8612327565b602002602001015183600285516112ef9190612399565b815181106112ff576112ff612327565b60200260200101516119e7565b6000808260008151811061132257611322612327565b6020908102919091010151905060001960015b84518110156113d3578285828151811061135157611351612327565b602002602001015110156113835782915084818151811061137457611374612327565b602002602001015192506113c1565b8185828151811061139657611396612327565b602002602001015110156113c1578481815181106113b6576113b6612327565b602002602001015191505b806113cb8161233d565b915050611335565b5083516001036113f05783600081518110610bec57610bec612327565b8351600203611258575092915050565b6060600061125883611a02565b6060600061141b60076118e4565b845161142791906123ad565b67ffffffffffffffff81111561143f5761143f611f36565b604051908082528060200260200182016040528015611468578160200160208202803683370190505b5090506000805b855181101561183e576000805b61148660096118e4565b8110156117bb57600061149a6009836118ee565b9050806001600160a01b03168985815181106114b8576114b8612327565b60200260200101516001600160a01b03161480611577575060035489516001600160a01b0390911690639446994a908b90879081106114f9576114f9612327565b6020026020010151836040518363ffffffff1660e01b81526004016115349291906001600160a01b0392831681529116602082015260400190565b602060405180830381865afa158015611551573d6000803e3d6000fd5b505050506040513d601f19601f8201168201806040525081019061157591906123c4565b155b1561158257506117a9565b60035489516000916001600160a01b031690639b56e6a7908c90889081106115ac576115ac612327565b6020026020010151846040518363ffffffff1660e01b81526004016115e79291906001600160a01b0392831681529116602082015260400190565b602060405180830381865afa158015611604573d6000803e3d6000fd5b505050506040513d601f19601f820116820180604052508101906116289190612356565b90507f00000000000000000000000000000000000000000000000000000000000000006001600160a01b03168a868151811061166657611666612327565b60200260200101516001600160a01b031614801561168a575061168a600783611a5e565b156116bf57808787815181106116a2576116a2612327565b6020908102919091010152856116b78161233d565b96505061176a565b7f00000000000000000000000000000000000000000000000000000000000000006001600160a01b0316826001600160a01b031614801561172857506117288a868151811061171057611710612327565b60200260200101516007611a5e90919063ffffffff16565b1561176a5761173f670de0b6b3a764000082611a80565b87878151811061175157611751612327565b6020908102919091010152856117668161233d565b9650505b6000611777838c8c611aeb565b905061179d8a878151811061178e5761178e612327565b60200260200101518284611bd5565b600194505050506117bb565b806117b38161233d565b91505061147c565b5080806117f057506117f08783815181106117d8576117d8612327565b6020026020010151600b611a5e90919063ffffffff16565b60405180604001604052806002815260200161034360f41b815250906118295760405162461bcd60e51b81526004016104d6919061229d565b505080806118369061233d565b91505061146f565b5060008167ffffffffffffffff81111561185a5761185a611f36565b604051908082528060200260200182016040528015611883578160200160208202803683370190505b50905060005b828110156118da578381815181106118a3576118a3612327565b60200260200101518282815181106118bd576118bd612327565b6020908102919091010152806118d28161233d565b915050611889565b5095945050505050565b6000610796825490565b60006112588383611c47565b60006119068383610678565b905060006119148583611c71565b90506802b5e3af16b188000081111560405180604001604052806002815260200161343560f01b8152509061195c5760405162461bcd60e51b81526004016104d6919061229d565b505050505050565b6000611258836001600160a01b038416611c94565b60008181526001830160205260408120546119c057508154600181810184556000848152602080822090930184905584548482528286019093526040902091909155610796565b506000610796565b60606119e3826000600185516119de9190612314565b611d87565b5090565b60006119f66002848418612399565b61125890848416612301565b606081600001805480602002602001604051908101604052809291908181526020018280548015611a5257602002820191906000526020600020905b815481526020019060010190808311611a3e575b50505050509050919050565b6001600160a01b03811660009081526001830160205260408120541515611258565b604080518082019091526002815261323560f01b602082015260009082611aba5760405162461bcd60e51b81526004016104d6919061229d565b5082600003611acb57506000610796565b6000611adf670de0b6b3a7640000856123ad565b905061068d8382612399565b6000805b8351811015611b5e57846001600160a01b0316848281518110611b1457611b14612327565b60200260200101516001600160a01b031603611b4c57828181518110611b3c57611b3c612327565b6020026020010151915050611258565b80611b568161233d565b915050611aef565b50600254604051635708447d60e01b81526001600160a01b03868116600483015290911690635708447d90602401602060405180830381865afa158015611ba9573d6000803e3d6000fd5b505050506040513d601f19601f82011682018060405250810190611bcd9190612356565b949350505050565b6000611be18484611a80565b90506000611bef8383611c71565b90506000611bfd8285611a80565b905060045481111560405180604001604052806002815260200161343160f01b81525090611c3e5760405162461bcd60e51b81526004016104d6919061229d565b50505050505050565b6000826000018281548110611c5e57611c5e612327565b9060005260206000200154905092915050565b600081831015611c8a57611c858383612314565b611258565b6112588284612314565b60008181526001830160205260408120548015611d7d576000611cb8600183612314565b8554909150600090611ccc90600190612314565b9050818114611d31576000866000018281548110611cec57611cec612327565b9060005260206000200154905080876000018481548110611d0f57611d0f612327565b6000918252602080832090910192909255918252600188019052604090208390555b8554869080611d4257611d426123e6565b600190038181906000526020600020016000905590558560010160008681526020019081526020016000206000905560019350505050610796565b6000915050610796565b8181808203611d97575050505050565b6000856002611da687876123fc565b611db0919061241c565b611dba908761244a565b81518110611dca57611dca612327565b602002602001015190505b818313611ed9575b80868481518110611df057611df0612327565b60200260200101511015611e105782611e0881612472565b935050611ddd565b858281518110611e2257611e22612327565b6020026020010151811015611e435781611e3b8161248a565b925050611e10565b818313611ed457858281518110611e5c57611e5c612327565b6020026020010151868481518110611e7657611e76612327565b6020026020010151878581518110611e9057611e90612327565b60200260200101888581518110611ea957611ea9612327565b60209081029190910101919091525282611ec281612472565b9350508180611ed09061248a565b9250505b611dd5565b81851215611eec57611eec868684611d87565b8383121561195c5761195c868486611d87565b80356001600160a01b0381168114611f1657600080fd5b919050565b600060208284031215611f2d57600080fd5b61125882611eff565b634e487b7160e01b600052604160045260246000fd5b604051601f8201601f1916810167ffffffffffffffff81118282101715611f7557611f75611f36565b604052919050565b600067ffffffffffffffff821115611f9757611f97611f36565b5060051b60200190565b60006020808385031215611fb457600080fd5b823567ffffffffffffffff811115611fcb57600080fd5b8301601f81018513611fdc57600080fd5b8035611fef611fea82611f7d565b611f4c565b81815260059190911b8201830190838101908783111561200e57600080fd5b928401925b828410156120335761202484611eff565b82529284019290840190612013565b979650505050505050565b600081518084526020808501945080840160005b8381101561206e57815187529582019590820190600101612052565b509495945050505050565b602081526000611258602083018461203e565b600082601f83011261209d57600080fd5b813560206120ad611fea83611f7d565b82815260059290921b840181019181810190868411156120cc57600080fd5b8286015b848110156120e757803583529183019183016120d0565b509695505050505050565b6000806040838503121561210557600080fd5b823567ffffffffffffffff8082111561211d57600080fd5b6121298683870161208c565b9350602085013591508082111561213f57600080fd5b5061214c8582860161208c565b9150509250929050565b6020808252825182820181905260009190848201906040850190845b818110156121975783516001600160a01b031683529284019291840191600101612172565b50909695505050505050565b6080815260006121b6608083018761203e565b85602084015282810360408401526121ce818661203e565b90508281036060840152612033818561203e565b6000602082840312156121f457600080fd5b5035919050565b60006020828403121561220d57600080fd5b813567ffffffffffffffff81111561222457600080fd5b611bcd8482850161208c565b60008060006060848603121561224557600080fd5b83359250602084013567ffffffffffffffff8082111561226457600080fd5b6122708783880161208c565b9350604086013591508082111561228657600080fd5b506122938682870161208c565b9150509250925092565b600060208083528351808285015260005b818110156122ca578581018301518582016040015282016122ae565b506000604082860101526040601f19601f8301168501019250505092915050565b634e487b7160e01b600052601160045260246000fd5b80820180821115610796576107966122eb565b81810381811115610796576107966122eb565b634e487b7160e01b600052603260045260246000fd5b60006001820161234f5761234f6122eb565b5060010190565b60006020828403121561236857600080fd5b5051919050565b634e487b7160e01b600052601260045260246000fd5b6000826123945761239461236f565b500690565b6000826123a8576123a861236f565b500490565b8082028115828204841417610796576107966122eb565b6000602082840312156123d657600080fd5b8151801515811461125857600080fd5b634e487b7160e01b600052603160045260246000fd5b8181036000831280158383131683831282161715610794576107946122eb565b60008261242b5761242b61236f565b600160ff1b821460001984141615612445576124456122eb565b500590565b808201828112600083128015821682158216171561246a5761246a6122eb565b505092915050565b60006001600160ff1b01820161234f5761234f6122eb565b6000600160ff1b820161249f5761249f6122eb565b50600019019056fea2646970667358221220c56c42d7cf45c542b9fed4917470e18887d8f1da76ffcbdf52254189e7cb065164736f6c63430008110033",
    "linkReferences": {}
  },
  "methodIdentifiers": {
    "INITIAL_RELATIVE_EPSILON()": "b55b3f1b",
    "MAX_ABSOLUTE_WETH_DEVIATION()": "a7ed2a79",
    "MAX_RELATIVE_EPSILON()": "e72a49d0",
    "acceptGovernance()": "238efcbc",
    "addAssetForRelativePriceCheck(address)": "0317ca7c",
    "addAssetsWithIgnorableRelativePriceCheck(address)": "149bf6e2",
    "addQuoteAssetsForPriceLevelTwap(address)": "e4dd02c3",
    "addSignedPriceSource(address)": "75ceebd0",
    "changeGovernor(address)": "e4c0aaf4",
    "computeMinOrSecondMin(uint256[])": "86fe579e",
    "ensureRootPriceGrounded(uint256,uint256[],uint256[])": "9c316666",
    "getPriceUSD(address)": "5708447d",
    "getPricesUSD(address[])": "2af31283",
    "getPricesUSDWithMetadata(address[])": "3bb8c3bc",
    "getRobustWETHPrice(uint256[],uint256[])": "2e191ed7",
    "governor()": "0c340a24",
    "listAssetForRelativePriceCheck()": "765aff1e",
    "listAssetsWithIgnorableRelativePriceCheck()": "3750815b",
    "listQuoteAssetsForPriceLevelTwap()": "e0dcd3c3",
    "listSignedPriceSource()": "64b45090",
    "median(uint256[])": "ce62a3bf",
    "pendingGovernor()": "e3056a34",
    "relativeEpsilon()": "e1818960",
    "relativeOracle()": "442aae79",
    "removeAssetForRelativePriceCheck(address)": "7cd8c1d0",
    "removeAssetsWithIgnorableRelativePriceCheck(address)": "5fbdc7d4",
    "removeQuoteAssetsForPriceLevelTwap(address)": "d8f4a0aa",
    "removeSignedPriceSource(address)": "e3a07621",
    "setRelativeMaxEpsilon(uint256)": "57ae3389",
    "setRelativeOracle(address)": "e7f9e320",
    "setUSDOracle(address)": "a0b90f00",
    "usdOracle()": "c8a4271f",
    "wethAddress()": "4f0e0ef3"
  },
  "id": 42
}