{
  "abi": [
    {
      "inputs": [
        {
          "internalType": "address",
          "name": "_governor",
          "type": "address"
        },
        {
          "internalType": "enum Vaults.Type",
          "name": "_vaultType",
          "type": "uint8"
        },
        {
          "internalType": "bytes32",
          "name": "_poolId",
          "type": "bytes32"
        },
        {
          "internalType": "contract IVault",
          "name": "_balancerVault",
          "type": "address"
        },
        {
          "internalType": "string",
          "name": "name",
          "type": "string"
        },
        {
          "internalType": "string",
          "name": "symbol",
          "type": "string"
        }
      ],
      "stateMutability": "nonpayable",
      "type": "constructor"
    },
    {
      "anonymous": false,
      "inputs": [
        {
          "indexed": true,
          "internalType": "address",
          "name": "owner",
          "type": "address"
        },
        {
          "indexed": true,
          "internalType": "address",
          "name": "spender",
          "type": "address"
        },
        {
          "indexed": false,
          "internalType": "uint256",
          "name": "value",
          "type": "uint256"
        }
      ],
      "name": "Approval",
      "type": "event"
    },
    {
      "anonymous": false,
      "inputs": [
        {
          "indexed": false,
          "internalType": "address",
          "name": "newGovernor",
          "type": "address"
        }
      ],
      "name": "GovernorChangeRequested",
      "type": "event"
    },
    {
      "anonymous": false,
      "inputs": [
        {
          "indexed": false,
          "internalType": "address",
          "name": "oldGovernor",
          "type": "address"
        },
        {
          "indexed": false,
          "internalType": "address",
          "name": "newGovernor",
          "type": "address"
        }
      ],
      "name": "GovernorChanged",
      "type": "event"
    },
    {
      "anonymous": false,
      "inputs": [
        {
          "indexed": true,
          "internalType": "address",
          "name": "from",
          "type": "address"
        },
        {
          "indexed": true,
          "internalType": "address",
          "name": "to",
          "type": "address"
        },
        {
          "indexed": false,
          "internalType": "uint256",
          "name": "value",
          "type": "uint256"
        }
      ],
      "name": "Transfer",
      "type": "event"
    },
    {
      "inputs": [],
      "name": "acceptGovernance",
      "outputs": [],
      "stateMutability": "nonpayable",
      "type": "function"
    },
    {
      "inputs": [
        {
          "internalType": "address",
          "name": "owner",
          "type": "address"
        },
        {
          "internalType": "address",
          "name": "spender",
          "type": "address"
        }
      ],
      "name": "allowance",
      "outputs": [
        {
          "internalType": "uint256",
          "name": "",
          "type": "uint256"
        }
      ],
      "stateMutability": "view",
      "type": "function"
    },
    {
      "inputs": [
        {
          "internalType": "address",
          "name": "spender",
          "type": "address"
        },
        {
          "internalType": "uint256",
          "name": "amount",
          "type": "uint256"
        }
      ],
      "name": "approve",
      "outputs": [
        {
          "internalType": "bool",
          "name": "",
          "type": "bool"
        }
      ],
      "stateMutability": "nonpayable",
      "type": "function"
    },
    {
      "inputs": [
        {
          "internalType": "address",
          "name": "account",
          "type": "address"
        }
      ],
      "name": "balanceOf",
      "outputs": [
        {
          "internalType": "uint256",
          "name": "",
          "type": "uint256"
        }
      ],
      "stateMutability": "view",
      "type": "function"
    },
    {
      "inputs": [],
      "name": "balancerVault",
      "outputs": [
        {
          "internalType": "contract IVault",
          "name": "",
          "type": "address"
        }
      ],
      "stateMutability": "view",
      "type": "function"
    },
    {
      "inputs": [
        {
          "internalType": "address",
          "name": "newGovernor",
          "type": "address"
        }
      ],
      "name": "changeGovernor",
      "outputs": [],
      "stateMutability": "nonpayable",
      "type": "function"
    },
    {
      "inputs": [],
      "name": "decimals",
      "outputs": [
        {
          "internalType": "uint8",
          "name": "",
          "type": "uint8"
        }
      ],
      "stateMutability": "view",
      "type": "function"
    },
    {
      "inputs": [
        {
          "internalType": "address",
          "name": "spender",
          "type": "address"
        },
        {
          "internalType": "uint256",
          "name": "subtractedValue",
          "type": "uint256"
        }
      ],
      "name": "decreaseAllowance",
      "outputs": [
        {
          "internalType": "bool",
          "name": "",
          "type": "bool"
        }
      ],
      "stateMutability": "nonpayable",
      "type": "function"
    },
    {
      "inputs": [],
      "name": "deployedAt",
      "outputs": [
        {
          "internalType": "uint256",
          "name": "",
          "type": "uint256"
        }
      ],
      "stateMutability": "view",
      "type": "function"
    },
    {
      "inputs": [
        {
          "internalType": "uint256",
          "name": "underlyingAmount",
          "type": "uint256"
        },
        {
          "internalType": "uint256",
          "name": "minVaultTokensOut",
          "type": "uint256"
        }
      ],
      "name": "deposit",
      "outputs": [
        {
          "internalType": "uint256",
          "name": "vaultTokensMinted",
          "type": "uint256"
        }
      ],
      "stateMutability": "nonpayable",
      "type": "function"
    },
    {
      "inputs": [
        {
          "internalType": "address",
          "name": "beneficiary",
          "type": "address"
        },
        {
          "internalType": "uint256",
          "name": "underlyingAmount",
          "type": "uint256"
        },
        {
          "internalType": "uint256",
          "name": "minVaultTokensOut",
          "type": "uint256"
        }
      ],
      "name": "depositFor",
      "outputs": [
        {
          "internalType": "uint256",
          "name": "vaultTokensMinted",
          "type": "uint256"
        }
      ],
      "stateMutability": "nonpayable",
      "type": "function"
    },
    {
      "inputs": [
        {
          "internalType": "uint256",
          "name": "underlyingAmount",
          "type": "uint256"
        },
        {
          "internalType": "uint256",
          "name": "minVaultTokensOut",
          "type": "uint256"
        }
      ],
      "name": "dryDeposit",
      "outputs": [
        {
          "internalType": "uint256",
          "name": "vaultTokensMinted",
          "type": "uint256"
        },
        {
          "internalType": "string",
          "name": "err",
          "type": "string"
        }
      ],
      "stateMutability": "view",
      "type": "function"
    },
    {
      "inputs": [
        {
          "internalType": "uint256",
          "name": "vaultTokenAmount",
          "type": "uint256"
        },
        {
          "internalType": "uint256",
          "name": "minUnderlyingOut",
          "type": "uint256"
        }
      ],
      "name": "dryWithdraw",
      "outputs": [
        {
          "internalType": "uint256",
          "name": "underlyingAmountWithdrawn",
          "type": "uint256"
        },
        {
          "internalType": "string",
          "name": "err",
          "type": "string"
        }
      ],
      "stateMutability": "view",
      "type": "function"
    },
    {
      "inputs": [],
      "name": "exchangeRate",
      "outputs": [
        {
          "internalType": "uint256",
          "name": "",
          "type": "uint256"
        }
      ],
      "stateMutability": "view",
      "type": "function"
    },
    {
      "inputs": [],
      "name": "getTokens",
      "outputs": [
        {
          "internalType": "contract IERC20[]",
          "name": "",
          "type": "address[]"
        }
      ],
      "stateMutability": "view",
      "type": "function"
    },
    {
      "inputs": [],
      "name": "governor",
      "outputs": [
        {
          "internalType": "address",
          "name": "",
          "type": "address"
        }
      ],
      "stateMutability": "view",
      "type": "function"
    },
    {
      "inputs": [
        {
          "internalType": "address",
          "name": "spender",
          "type": "address"
        },
        {
          "internalType": "uint256",
          "name": "addedValue",
          "type": "uint256"
        }
      ],
      "name": "increaseAllowance",
      "outputs": [
        {
          "internalType": "bool",
          "name": "",
          "type": "bool"
        }
      ],
      "stateMutability": "nonpayable",
      "type": "function"
    },
    {
      "inputs": [],
      "name": "name",
      "outputs": [
        {
          "internalType": "string",
          "name": "",
          "type": "string"
        }
      ],
      "stateMutability": "view",
      "type": "function"
    },
    {
      "inputs": [],
      "name": "pendingGovernor",
      "outputs": [
        {
          "internalType": "address",
          "name": "",
          "type": "address"
        }
      ],
      "stateMutability": "view",
      "type": "function"
    },
    {
      "inputs": [],
      "name": "poolId",
      "outputs": [
        {
          "internalType": "bytes32",
          "name": "",
          "type": "bytes32"
        }
      ],
      "stateMutability": "view",
      "type": "function"
    },
    {
      "inputs": [
        {
          "internalType": "address",
          "name": "strategyAddress",
          "type": "address"
        }
      ],
      "name": "setStrategy",
      "outputs": [],
      "stateMutability": "nonpayable",
      "type": "function"
    },
    {
      "inputs": [],
      "name": "strategy",
      "outputs": [
        {
          "internalType": "address",
          "name": "",
          "type": "address"
        }
      ],
      "stateMutability": "view",
      "type": "function"
    },
    {
      "inputs": [],
      "name": "symbol",
      "outputs": [
        {
          "internalType": "string",
          "name": "",
          "type": "string"
        }
      ],
      "stateMutability": "view",
      "type": "function"
    },
    {
      "inputs": [],
      "name": "totalSupply",
      "outputs": [
        {
          "internalType": "uint256",
          "name": "",
          "type": "uint256"
        }
      ],
      "stateMutability": "view",
      "type": "function"
    },
    {
      "inputs": [],
      "name": "totalUnderlying",
      "outputs": [
        {
          "internalType": "uint256",
          "name": "",
          "type": "uint256"
        }
      ],
      "stateMutability": "view",
      "type": "function"
    },
    {
      "inputs": [
        {
          "internalType": "address",
          "name": "to",
          "type": "address"
        },
        {
          "internalType": "uint256",
          "name": "amount",
          "type": "uint256"
        }
      ],
      "name": "transfer",
      "outputs": [
        {
          "internalType": "bool",
          "name": "",
          "type": "bool"
        }
      ],
      "stateMutability": "nonpayable",
      "type": "function"
    },
    {
      "inputs": [
        {
          "internalType": "address",
          "name": "from",
          "type": "address"
        },
        {
          "internalType": "address",
          "name": "to",
          "type": "address"
        },
        {
          "internalType": "uint256",
          "name": "amount",
          "type": "uint256"
        }
      ],
      "name": "transferFrom",
      "outputs": [
        {
          "internalType": "bool",
          "name": "",
          "type": "bool"
        }
      ],
      "stateMutability": "nonpayable",
      "type": "function"
    },
    {
      "inputs": [],
      "name": "underlying",
      "outputs": [
        {
          "internalType": "address",
          "name": "",
          "type": "address"
        }
      ],
      "stateMutability": "view",
      "type": "function"
    },
    {
      "inputs": [],
      "name": "vaultType",
      "outputs": [
        {
          "internalType": "enum Vaults.Type",
          "name": "",
          "type": "uint8"
        }
      ],
      "stateMutability": "view",
      "type": "function"
    },
    {
      "inputs": [
        {
          "internalType": "uint256",
          "name": "vaultTokenAmount",
          "type": "uint256"
        },
        {
          "internalType": "uint256",
          "name": "minUnderlyingOut",
          "type": "uint256"
        }
      ],
      "name": "withdraw",
      "outputs": [
        {
          "internalType": "uint256",
          "name": "underlyingAmountWithdrawn",
          "type": "uint256"
        }
      ],
      "stateMutability": "nonpayable",
      "type": "function"
    }
  ],
  "bytecode": {
    "object": "0x6101206040523480156200001257600080fd5b5060405162001ff738038062001ff783398101604081905262000035916200024f565b85620000418560601c90565b8383838282600362000054838262000394565b50600462000063828262000394565b5050600580546001600160a01b0319166001600160a01b038416908117909155604080516000815260208101929092527fde4b3f61490b74c0ed6237523974fe299126bbbf8a8a7482fd220104c59b0c8492500160405180910390a150604080518082019091526002815261333160f01b60208201526001600160a01b0384166200010c5760405162461bcd60e51b815260040162000103919062000460565b60405180910390fd5b5050506001600160a01b039081166080524360a05260c0869052841660e0525084600481111562000141576200014162000495565b61010081600481111562000159576200015962000495565b81525050505050505050620004ab565b6001600160a01b03811681146200017f57600080fd5b50565b634e487b7160e01b600052604160045260246000fd5b60005b83811015620001b55781810151838201526020016200019b565b50506000910152565b600082601f830112620001d057600080fd5b81516001600160401b0380821115620001ed57620001ed62000182565b604051601f8301601f19908116603f0116810190828211818310171562000218576200021862000182565b816040528381528660208588010111156200023257600080fd5b6200024584602083016020890162000198565b9695505050505050565b60008060008060008060c087890312156200026957600080fd5b8651620002768162000169565b6020880151909650600581106200028c57600080fd5b604088015160608901519196509450620002a68162000169565b60808801519093506001600160401b0380821115620002c457600080fd5b620002d28a838b01620001be565b935060a0890151915080821115620002e957600080fd5b50620002f889828a01620001be565b9150509295509295509295565b600181811c908216806200031a57607f821691505b6020821081036200033b57634e487b7160e01b600052602260045260246000fd5b50919050565b601f8211156200038f57600081815260208120601f850160051c810160208610156200036a5750805b601f850160051c820191505b818110156200038b5782815560010162000376565b5050505b505050565b81516001600160401b03811115620003b057620003b062000182565b620003c881620003c1845462000305565b8462000341565b602080601f831160018114620004005760008415620003e75750858301515b600019600386901b1c1916600185901b1785556200038b565b600085815260208120601f198616915b82811015620004315788860151825594840194600190910190840162000410565b5085821015620004505787850151600019600388901b60f8161c191681555b5050505050600190811b01905550565b60208152600082518060208401526200048181604085016020870162000198565b601f01601f19169190910160400192915050565b634e487b7160e01b600052602160045260246000fd5b60805160a05160c05160e05161010051611add6200051a60003960006103280152600081816102500152610a560152600081816102ee0152610a220152600061049d0152600081816103900152818161064c01528181610862015281816108ad0152610ae60152611add6000f3fe608060405234801561001057600080fd5b50600436106101da5760003560e01c8063550d2b6211610104578063aa6ca808116100a2578063e2bbb15811610071578063e2bbb1581461045f578063e3056a3414610472578063e4c0aaf414610485578063eae4c19f1461049857600080fd5b8063aa6ca8081461041c578063c70920bc14610431578063cc04feff14610439578063dd62ed3e1461044c57600080fd5b806395d89b41116100de57806395d89b41146103db578063a457c2d7146103e3578063a8c62e76146103f6578063a9059cbb1461040957600080fd5b8063550d2b621461036a5780636f307dc31461038b57806370a08231146103b257600080fd5b8063313ce5671161017c5780633e0dc34e1161014b5780633e0dc34e146102e9578063441a3e70146103105780634ac032be146103235780634cf5fbf51461035757600080fd5b8063313ce567146102a157806333a100ca146102bb57806339509351146102ce5780633ba0b9a9146102e157600080fd5b8063158274a5116101b8578063158274a51461024b57806318160ddd14610272578063238efcbc1461028457806323b872dd1461028e57600080fd5b806306fdde03146101df578063095ea7b3146101fd5780630c340a2414610220575b600080fd5b6101e76104bf565b6040516101f49190611604565b60405180910390f35b61021061020b36600461162f565b610551565b60405190151581526020016101f4565b600554610233906001600160a01b031681565b6040516001600160a01b0390911681526020016101f4565b6102337f000000000000000000000000000000000000000000000000000000000000000081565b6002545b6040519081526020016101f4565b61028c61056b565b005b61021061029c36600461165b565b610624565b6102a9610648565b60405160ff90911681526020016101f4565b61028c6102c936600461169c565b6106d1565b6102106102dc36600461162f565b610739565b61027661075b565b6102767f000000000000000000000000000000000000000000000000000000000000000081565b61027661031e3660046116b9565b610767565b61034a7f000000000000000000000000000000000000000000000000000000000000000081565b6040516101f491906116db565b610276610365366004611703565b610891565b61037d6103783660046116b9565b610930565b6040516101f4929190611738565b6102337f000000000000000000000000000000000000000000000000000000000000000081565b6102766103c036600461169c565b6001600160a01b031660009081526020819052604090205490565b6101e761097b565b6102106103f136600461162f565b61098a565b600754610233906001600160a01b031681565b61021061041736600461162f565b610a05565b610424610a13565b6040516101f49190611751565b610276610ace565b61037d6104473660046116b9565b610b59565b61027661045a36600461179e565b610b73565b61027661046d3660046116b9565b610b9e565b600654610233906001600160a01b031681565b61028c61049336600461169c565b610bb2565b6102767f000000000000000000000000000000000000000000000000000000000000000081565b6060600380546104ce906117d7565b80601f01602080910402602001604051908101604052809291908181526020018280546104fa906117d7565b80156105475780601f1061051c57610100808354040283529160200191610547565b820191906000526020600020905b81548152906001019060200180831161052a57829003601f168201915b5050505050905090565b60003361055f818585610c87565b60019150505b92915050565b600654604080518082019091526002815261033360f41b6020820152906001600160a01b031633146105b95760405162461bcd60e51b81526004016105b09190611604565b60405180910390fd5b5060058054600680546001600160a01b03198084166001600160a01b03808416919091179095551690556040805192909116808352336020840152917fde4b3f61490b74c0ed6237523974fe299126bbbf8a8a7482fd220104c59b0c8491015b60405180910390a150565b600033610632858285610dac565b61063d858585610e26565b506001949350505050565b60007f00000000000000000000000000000000000000000000000000000000000000006001600160a01b031663313ce5676040518163ffffffff1660e01b8152600401602060405180830381865afa1580156106a8573d6000803e3d6000fd5b505050506040513d601f19601f820116820180604052508101906106cc9190611811565b905090565b600554604080518082019091526002815261033360f41b6020820152906001600160a01b031633146107165760405162461bcd60e51b81526004016105b09190611604565b50600780546001600160a01b0319166001600160a01b0392909216919091179055565b60003361055f81858561074c8383610b73565b610756919061184a565b610c87565b60006106cc6000610fca565b600080831160405180604001604052806002815260200161333160f01b815250906107a55760405162461bcd60e51b81526004016105b09190611604565b5033600090815260208190526040812054905083811015604051806040016040528060028152602001610ccd60f21b815250906107f55760405162461bcd60e51b81526004016105b09190611604565b50600061080061075b565b905061080c8582611023565b925083831015604051806040016040528060018152602001601960f91b8152509061084a5760405162461bcd60e51b81526004016105b09190611604565b506108553386611044565b6108896001600160a01b037f0000000000000000000000000000000000000000000000000000000000000000163385611173565b505092915050565b60008061089e6001610fca565b90506108d56001600160a01b037f0000000000000000000000000000000000000000000000000000000000000000163330876111d6565b6108df848261120e565b915082821015604051806040016040528060018152602001601960f91b8152509061091d5760405162461bcd60e51b81526004016105b09190611604565b506109288583611281565b509392505050565b6000606060006109406001610fca565b905061094c858261120e565b92508383101561097357604051806040016040528060018152602001601960f91b81525091505b509250929050565b6060600480546104ce906117d7565b600033816109988286610b73565b9050838110156109f85760405162461bcd60e51b815260206004820152602560248201527f45524332303a2064656372656173656420616c6c6f77616e63652062656c6f77604482015264207a65726f60d81b60648201526084016105b0565b61063d8286868403610c87565b60003361055f818585610e26565b604051631f29a8cd60e31b81527f000000000000000000000000000000000000000000000000000000000000000060048201526060906000906001600160a01b037f0000000000000000000000000000000000000000000000000000000000000000169063f94d466890602401600060405180830381865afa158015610a9d573d6000803e3d6000fd5b505050506040513d6000823e601f3d908101601f19168201604052610ac59190810190611933565b50909392505050565b6040516370a0823160e01b81523060048201526000907f00000000000000000000000000000000000000000000000000000000000000006001600160a01b0316906370a0823190602401602060405180830381865afa158015610b35573d6000803e3d6000fd5b505050506040513d601f19601f820116820180604052508101906106cc9190611a01565b600060606000610b6761075b565b905061094c8582611023565b6001600160a01b03918216600090815260016020908152604080832093909416825291909152205490565b6000610bab338484610891565b9392505050565b600554604080518082019091526002815261033360f41b6020820152906001600160a01b03163314610bf75760405162461bcd60e51b81526004016105b09190611604565b50604080518082019091526002815261333160f01b60208201526001600160a01b038216610c385760405162461bcd60e51b81526004016105b09190611604565b50600680546001600160a01b0319166001600160a01b0383169081179091556040519081527f67235ba2e63c748a35b95c4f92a3bbc2a1389938170a5ce6c9add5d0b03a314a90602001610619565b6001600160a01b038316610ce95760405162461bcd60e51b8152602060048201526024808201527f45524332303a20617070726f76652066726f6d20746865207a65726f206164646044820152637265737360e01b60648201526084016105b0565b6001600160a01b038216610d4a5760405162461bcd60e51b815260206004820152602260248201527f45524332303a20617070726f766520746f20746865207a65726f206164647265604482015261737360f01b60648201526084016105b0565b6001600160a01b0383811660008181526001602090815260408083209487168084529482529182902085905590518481527f8c5be1e5ebec7d5bd14f71427d1e84f3dd0314c0f7b2291e5b200ac8c7c3b92591015b60405180910390a3505050565b6000610db88484610b73565b90506000198114610e205781811015610e135760405162461bcd60e51b815260206004820152601d60248201527f45524332303a20696e73756666696369656e7420616c6c6f77616e636500000060448201526064016105b0565b610e208484848403610c87565b50505050565b6001600160a01b038316610e8a5760405162461bcd60e51b815260206004820152602560248201527f45524332303a207472616e736665722066726f6d20746865207a65726f206164604482015264647265737360d81b60648201526084016105b0565b6001600160a01b038216610eec5760405162461bcd60e51b815260206004820152602360248201527f45524332303a207472616e7366657220746f20746865207a65726f206164647260448201526265737360e81b60648201526084016105b0565b6001600160a01b03831660009081526020819052604090205481811015610f645760405162461bcd60e51b815260206004820152602660248201527f45524332303a207472616e7366657220616d6f756e7420657863656564732062604482015265616c616e636560d01b60648201526084016105b0565b6001600160a01b03848116600081815260208181526040808320878703905593871680835291849020805487019055925185815290927fddf252ad1be2c89b69c2b068fc378daa952ba7f163c4a11628f55a4df523b3ef910160405180910390a3610e20565b600080610fd5610ace565b90506000610fe260025490565b905080600003610ffd5750670de0b6b3a76400009392505050565b836110115761100c828261120e565b61101b565b61101b8282611340565b949350505050565b6000806110308385611a1a565b905061101b670de0b6b3a764000082611a47565b6001600160a01b0382166110a45760405162461bcd60e51b815260206004820152602160248201527f45524332303a206275726e2066726f6d20746865207a65726f206164647265736044820152607360f81b60648201526084016105b0565b6001600160a01b038216600090815260208190526040902054818110156111185760405162461bcd60e51b815260206004820152602260248201527f45524332303a206275726e20616d6f756e7420657863656564732062616c616e604482015261636560f01b60648201526084016105b0565b6001600160a01b0383166000818152602081815260408083208686039055600280548790039055518581529192917fddf252ad1be2c89b69c2b068fc378daa952ba7f163c4a11628f55a4df523b3ef9101610d9f565b505050565b6040516001600160a01b03831660248201526044810182905261116e90849063a9059cbb60e01b906064015b60408051601f198184030181529190526020810180516001600160e01b03166001600160e01b0319909316929092179091526113bf565b6040516001600160a01b0380851660248301528316604482015260648101829052610e209085906323b872dd60e01b9060840161119f565b604080518082019091526002815261323560f01b6020820152600090826112485760405162461bcd60e51b81526004016105b09190611604565b508260000361125957506000610565565b600061126d670de0b6b3a764000085611a1a565b90506112798382611a47565b915050610565565b6001600160a01b0382166112d75760405162461bcd60e51b815260206004820152601f60248201527f45524332303a206d696e7420746f20746865207a65726f20616464726573730060448201526064016105b0565b80600260008282546112e9919061184a565b90915550506001600160a01b038216600081815260208181526040808320805486019055518481527fddf252ad1be2c89b69c2b068fc378daa952ba7f163c4a11628f55a4df523b3ef910160405180910390a35050565b604080518082019091526002815261323560f01b60208201526000908261137a5760405162461bcd60e51b81526004016105b09190611604565b508260000361138b57506000610565565b600061139f670de0b6b3a764000085611a1a565b90508260018203816113b3576113b3611a31565b04600101915050610565565b6000611414826040518060400160405280602081526020017f5361666545524332303a206c6f772d6c6576656c2063616c6c206661696c6564815250856001600160a01b03166114919092919063ffffffff16565b80519091501561116e57808060200190518101906114329190611a69565b61116e5760405162461bcd60e51b815260206004820152602a60248201527f5361666545524332303a204552433230206f7065726174696f6e20646964206e6044820152691bdd081cdd58d8d9595960b21b60648201526084016105b0565b606061101b848460008585600080866001600160a01b031685876040516114b89190611a8b565b60006040518083038185875af1925050503d80600081146114f5576040519150601f19603f3d011682016040523d82523d6000602084013e6114fa565b606091505b509150915061150b87838387611516565b979650505050505050565b6060831561158557825160000361157e576001600160a01b0385163b61157e5760405162461bcd60e51b815260206004820152601d60248201527f416464726573733a2063616c6c20746f206e6f6e2d636f6e747261637400000060448201526064016105b0565b508161101b565b61101b838381511561159a5781518083602001fd5b8060405162461bcd60e51b81526004016105b09190611604565b60005b838110156115cf5781810151838201526020016115b7565b50506000910152565b600081518084526115f08160208601602086016115b4565b601f01601f19169290920160200192915050565b602081526000610bab60208301846115d8565b6001600160a01b038116811461162c57600080fd5b50565b6000806040838503121561164257600080fd5b823561164d81611617565b946020939093013593505050565b60008060006060848603121561167057600080fd5b833561167b81611617565b9250602084013561168b81611617565b929592945050506040919091013590565b6000602082840312156116ae57600080fd5b8135610bab81611617565b600080604083850312156116cc57600080fd5b50508035926020909101359150565b60208101600583106116fd57634e487b7160e01b600052602160045260246000fd5b91905290565b60008060006060848603121561171857600080fd5b833561172381611617565b95602085013595506040909401359392505050565b82815260406020820152600061101b60408301846115d8565b6020808252825182820181905260009190848201906040850190845b818110156117925783516001600160a01b03168352928401929184019160010161176d565b50909695505050505050565b600080604083850312156117b157600080fd5b82356117bc81611617565b915060208301356117cc81611617565b809150509250929050565b600181811c908216806117eb57607f821691505b60208210810361180b57634e487b7160e01b600052602260045260246000fd5b50919050565b60006020828403121561182357600080fd5b815160ff81168114610bab57600080fd5b634e487b7160e01b600052601160045260246000fd5b8082018082111561056557610565611834565b634e487b7160e01b600052604160045260246000fd5b604051601f8201601f1916810167ffffffffffffffff8111828210171561189c5761189c61185d565b604052919050565b600067ffffffffffffffff8211156118be576118be61185d565b5060051b60200190565b600082601f8301126118d957600080fd5b815160206118ee6118e9836118a4565b611873565b82815260059290921b8401810191818101908684111561190d57600080fd5b8286015b848110156119285780518352918301918301611911565b509695505050505050565b60008060006060848603121561194857600080fd5b835167ffffffffffffffff8082111561196057600080fd5b818601915086601f83011261197457600080fd5b815160206119846118e9836118a4565b82815260059290921b8401810191818101908a8411156119a357600080fd5b948201945b838610156119ca5785516119bb81611617565b825294820194908201906119a8565b918901519197509093505050808211156119e357600080fd5b506119f0868287016118c8565b925050604084015190509250925092565b600060208284031215611a1357600080fd5b5051919050565b808202811582820484141761056557610565611834565b634e487b7160e01b600052601260045260246000fd5b600082611a6457634e487b7160e01b600052601260045260246000fd5b500490565b600060208284031215611a7b57600080fd5b81518015158114610bab57600080fd5b60008251611a9d8184602087016115b4565b919091019291505056fea2646970667358221220a14e1fa925c7ba33556562fa70ade9c6449aa14a96d852ee8705c0c1fd72019264736f6c63430008110033",
    "linkReferences": {}
  },
  "methodIdentifiers": {
    "acceptGovernance()": "238efcbc",
    "allowance(address,address)": "dd62ed3e",
    "approve(address,uint256)": "095ea7b3",
    "balanceOf(address)": "70a08231",
    "balancerVault()": "158274a5",
    "changeGovernor(address)": "e4c0aaf4",
    "decimals()": "313ce567",
    "decreaseAllowance(address,uint256)": "a457c2d7",
    "deployedAt()": "eae4c19f",
    "deposit(uint256,uint256)": "e2bbb158",
    "depositFor(address,uint256,uint256)": "4cf5fbf5",
    "dryDeposit(uint256,uint256)": "550d2b62",
    "dryWithdraw(uint256,uint256)": "cc04feff",
    "exchangeRate()": "3ba0b9a9",
    "getTokens()": "aa6ca808",
    "governor()": "0c340a24",
    "increaseAllowance(address,uint256)": "39509351",
    "name()": "06fdde03",
    "pendingGovernor()": "e3056a34",
    "poolId()": "3e0dc34e",
    "setStrategy(address)": "33a100ca",
    "strategy()": "a8c62e76",
    "symbol()": "95d89b41",
    "totalSupply()": "18160ddd",
    "totalUnderlying()": "c70920bc",
    "transfer(address,uint256)": "a9059cbb",
    "transferFrom(address,address,uint256)": "23b872dd",
    "underlying()": "6f307dc3",
    "vaultType()": "4ac032be",
    "withdraw(uint256,uint256)": "441a3e70"
  },
  "id": 59
}