{
  "abi": [
    {
      "inputs": [
        {
          "internalType": "address",
          "name": "_governor",
          "type": "address"
        },
        {
          "internalType": "uint256",
          "name": "_maxAllowedVaultDeviation",
          "type": "uint256"
        },
        {
          "internalType": "uint256",
          "name": "_stablecoinMaxDeviation",
          "type": "uint256"
        },
        {
          "internalType": "uint256",
          "name": "_minTokenPrice",
          "type": "uint256"
        }
      ],
      "stateMutability": "nonpayable",
      "type": "constructor"
    },
    {
      "anonymous": false,
      "inputs": [
        {
          "indexed": false,
          "internalType": "address",
          "name": "newGovernor",
          "type": "address"
        }
      ],
      "name": "GovernorChangeRequested",
      "type": "event"
    },
    {
      "anonymous": false,
      "inputs": [
        {
          "indexed": false,
          "internalType": "address",
          "name": "oldGovernor",
          "type": "address"
        },
        {
          "indexed": false,
          "internalType": "address",
          "name": "newGovernor",
          "type": "address"
        }
      ],
      "name": "GovernorChanged",
      "type": "event"
    },
    {
      "inputs": [],
      "name": "STABLECOIN_IDEAL_PRICE",
      "outputs": [
        {
          "internalType": "uint256",
          "name": "",
          "type": "uint256"
        }
      ],
      "stateMutability": "view",
      "type": "function"
    },
    {
      "inputs": [],
      "name": "acceptGovernance",
      "outputs": [],
      "stateMutability": "nonpayable",
      "type": "function"
    },
    {
      "inputs": [
        {
          "internalType": "address",
          "name": "newGovernor",
          "type": "address"
        }
      ],
      "name": "changeGovernor",
      "outputs": [],
      "stateMutability": "nonpayable",
      "type": "function"
    },
    {
      "inputs": [
        {
          "components": [
            {
              "components": [
                {
                  "components": [
                    {
                      "internalType": "address",
                      "name": "vault",
                      "type": "address"
                    },
                    {
                      "internalType": "uint8",
                      "name": "decimals",
                      "type": "uint8"
                    },
                    {
                      "internalType": "address",
                      "name": "underlying",
                      "type": "address"
                    },
                    {
                      "internalType": "uint256",
                      "name": "price",
                      "type": "uint256"
                    },
                    {
                      "components": [
                        {
                          "internalType": "uint256",
                          "name": "initialPrice",
                          "type": "uint256"
                        },
                        {
                          "internalType": "uint256",
                          "name": "initialWeight",
                          "type": "uint256"
                        },
                        {
                          "internalType": "uint256",
                          "name": "shortFlowMemory",
                          "type": "uint256"
                        },
                        {
                          "internalType": "uint256",
                          "name": "shortFlowThreshold",
                          "type": "uint256"
                        }
                      ],
                      "internalType": "struct DataTypes.PersistedVaultMetadata",
                      "name": "persistedMetadata",
                      "type": "tuple"
                    },
                    {
                      "internalType": "uint256",
                      "name": "reserveBalance",
                      "type": "uint256"
                    },
                    {
                      "internalType": "uint256",
                      "name": "currentWeight",
                      "type": "uint256"
                    },
                    {
                      "internalType": "uint256",
                      "name": "idealWeight",
                      "type": "uint256"
                    },
                    {
                      "components": [
                        {
                          "internalType": "address",
                          "name": "tokenAddress",
                          "type": "address"
                        },
                        {
                          "internalType": "bool",
                          "name": "isStable",
                          "type": "bool"
                        },
                        {
                          "internalType": "uint256",
                          "name": "price",
                          "type": "uint256"
                        }
                      ],
                      "internalType": "struct DataTypes.PricedToken[]",
                      "name": "pricedTokens",
                      "type": "tuple[]"
                    }
                  ],
                  "internalType": "struct DataTypes.VaultInfo",
                  "name": "vaultInfo",
                  "type": "tuple"
                },
                {
                  "internalType": "uint256",
                  "name": "amount",
                  "type": "uint256"
                }
              ],
              "internalType": "struct DataTypes.VaultWithAmount[]",
              "name": "vaultsWithAmount",
              "type": "tuple[]"
            },
            {
              "internalType": "bool",
              "name": "mint",
              "type": "bool"
            }
          ],
          "internalType": "struct DataTypes.Order",
          "name": "order",
          "type": "tuple"
        }
      ],
      "name": "checkAndPersistMint",
      "outputs": [],
      "stateMutability": "view",
      "type": "function"
    },
    {
      "inputs": [
        {
          "components": [
            {
              "components": [
                {
                  "components": [
                    {
                      "internalType": "address",
                      "name": "vault",
                      "type": "address"
                    },
                    {
                      "internalType": "uint8",
                      "name": "decimals",
                      "type": "uint8"
                    },
                    {
                      "internalType": "address",
                      "name": "underlying",
                      "type": "address"
                    },
                    {
                      "internalType": "uint256",
                      "name": "price",
                      "type": "uint256"
                    },
                    {
                      "components": [
                        {
                          "internalType": "uint256",
                          "name": "initialPrice",
                          "type": "uint256"
                        },
                        {
                          "internalType": "uint256",
                          "name": "initialWeight",
                          "type": "uint256"
                        },
                        {
                          "internalType": "uint256",
                          "name": "shortFlowMemory",
                          "type": "uint256"
                        },
                        {
                          "internalType": "uint256",
                          "name": "shortFlowThreshold",
                          "type": "uint256"
                        }
                      ],
                      "internalType": "struct DataTypes.PersistedVaultMetadata",
                      "name": "persistedMetadata",
                      "type": "tuple"
                    },
                    {
                      "internalType": "uint256",
                      "name": "reserveBalance",
                      "type": "uint256"
                    },
                    {
                      "internalType": "uint256",
                      "name": "currentWeight",
                      "type": "uint256"
                    },
                    {
                      "internalType": "uint256",
                      "name": "idealWeight",
                      "type": "uint256"
                    },
                    {
                      "components": [
                        {
                          "internalType": "address",
                          "name": "tokenAddress",
                          "type": "address"
                        },
                        {
                          "internalType": "bool",
                          "name": "isStable",
                          "type": "bool"
                        },
                        {
                          "internalType": "uint256",
                          "name": "price",
                          "type": "uint256"
                        }
                      ],
                      "internalType": "struct DataTypes.PricedToken[]",
                      "name": "pricedTokens",
                      "type": "tuple[]"
                    }
                  ],
                  "internalType": "struct DataTypes.VaultInfo",
                  "name": "vaultInfo",
                  "type": "tuple"
                },
                {
                  "internalType": "uint256",
                  "name": "amount",
                  "type": "uint256"
                }
              ],
              "internalType": "struct DataTypes.VaultWithAmount[]",
              "name": "vaultsWithAmount",
              "type": "tuple[]"
            },
            {
              "internalType": "bool",
              "name": "mint",
              "type": "bool"
            }
          ],
          "internalType": "struct DataTypes.Order",
          "name": "order",
          "type": "tuple"
        }
      ],
      "name": "checkAndPersistRedeem",
      "outputs": [],
      "stateMutability": "view",
      "type": "function"
    },
    {
      "inputs": [],
      "name": "governor",
      "outputs": [
        {
          "internalType": "address",
          "name": "",
          "type": "address"
        }
      ],
      "stateMutability": "view",
      "type": "function"
    },
    {
      "inputs": [
        {
          "components": [
            {
              "components": [
                {
                  "components": [
                    {
                      "internalType": "address",
                      "name": "vault",
                      "type": "address"
                    },
                    {
                      "internalType": "uint8",
                      "name": "decimals",
                      "type": "uint8"
                    },
                    {
                      "internalType": "address",
                      "name": "underlying",
                      "type": "address"
                    },
                    {
                      "internalType": "uint256",
                      "name": "price",
                      "type": "uint256"
                    },
                    {
                      "components": [
                        {
                          "internalType": "uint256",
                          "name": "initialPrice",
                          "type": "uint256"
                        },
                        {
                          "internalType": "uint256",
                          "name": "initialWeight",
                          "type": "uint256"
                        },
                        {
                          "internalType": "uint256",
                          "name": "shortFlowMemory",
                          "type": "uint256"
                        },
                        {
                          "internalType": "uint256",
                          "name": "shortFlowThreshold",
                          "type": "uint256"
                        }
                      ],
                      "internalType": "struct DataTypes.PersistedVaultMetadata",
                      "name": "persistedMetadata",
                      "type": "tuple"
                    },
                    {
                      "internalType": "uint256",
                      "name": "reserveBalance",
                      "type": "uint256"
                    },
                    {
                      "internalType": "uint256",
                      "name": "currentWeight",
                      "type": "uint256"
                    },
                    {
                      "internalType": "uint256",
                      "name": "idealWeight",
                      "type": "uint256"
                    },
                    {
                      "components": [
                        {
                          "internalType": "address",
                          "name": "tokenAddress",
                          "type": "address"
                        },
                        {
                          "internalType": "bool",
                          "name": "isStable",
                          "type": "bool"
                        },
                        {
                          "internalType": "uint256",
                          "name": "price",
                          "type": "uint256"
                        }
                      ],
                      "internalType": "struct DataTypes.PricedToken[]",
                      "name": "pricedTokens",
                      "type": "tuple[]"
                    }
                  ],
                  "internalType": "struct DataTypes.VaultInfo",
                  "name": "vaultInfo",
                  "type": "tuple"
                },
                {
                  "internalType": "uint256",
                  "name": "amount",
                  "type": "uint256"
                }
              ],
              "internalType": "struct DataTypes.VaultWithAmount[]",
              "name": "vaultsWithAmount",
              "type": "tuple[]"
            },
            {
              "internalType": "bool",
              "name": "mint",
              "type": "bool"
            }
          ],
          "internalType": "struct DataTypes.Order",
          "name": "order",
          "type": "tuple"
        }
      ],
      "name": "isMintSafe",
      "outputs": [
        {
          "internalType": "string",
          "name": "",
          "type": "string"
        }
      ],
      "stateMutability": "view",
      "type": "function"
    },
    {
      "inputs": [
        {
          "components": [
            {
              "components": [
                {
                  "components": [
                    {
                      "internalType": "address",
                      "name": "vault",
                      "type": "address"
                    },
                    {
                      "internalType": "uint8",
                      "name": "decimals",
                      "type": "uint8"
                    },
                    {
                      "internalType": "address",
                      "name": "underlying",
                      "type": "address"
                    },
                    {
                      "internalType": "uint256",
                      "name": "price",
                      "type": "uint256"
                    },
                    {
                      "components": [
                        {
                          "internalType": "uint256",
                          "name": "initialPrice",
                          "type": "uint256"
                        },
                        {
                          "internalType": "uint256",
                          "name": "initialWeight",
                          "type": "uint256"
                        },
                        {
                          "internalType": "uint256",
                          "name": "shortFlowMemory",
                          "type": "uint256"
                        },
                        {
                          "internalType": "uint256",
                          "name": "shortFlowThreshold",
                          "type": "uint256"
                        }
                      ],
                      "internalType": "struct DataTypes.PersistedVaultMetadata",
                      "name": "persistedMetadata",
                      "type": "tuple"
                    },
                    {
                      "internalType": "uint256",
                      "name": "reserveBalance",
                      "type": "uint256"
                    },
                    {
                      "internalType": "uint256",
                      "name": "currentWeight",
                      "type": "uint256"
                    },
                    {
                      "internalType": "uint256",
                      "name": "idealWeight",
                      "type": "uint256"
                    },
                    {
                      "components": [
                        {
                          "internalType": "address",
                          "name": "tokenAddress",
                          "type": "address"
                        },
                        {
                          "internalType": "bool",
                          "name": "isStable",
                          "type": "bool"
                        },
                        {
                          "internalType": "uint256",
                          "name": "price",
                          "type": "uint256"
                        }
                      ],
                      "internalType": "struct DataTypes.PricedToken[]",
                      "name": "pricedTokens",
                      "type": "tuple[]"
                    }
                  ],
                  "internalType": "struct DataTypes.VaultInfo",
                  "name": "vaultInfo",
                  "type": "tuple"
                },
                {
                  "internalType": "uint256",
                  "name": "amount",
                  "type": "uint256"
                }
              ],
              "internalType": "struct DataTypes.VaultWithAmount[]",
              "name": "vaultsWithAmount",
              "type": "tuple[]"
            },
            {
              "internalType": "bool",
              "name": "mint",
              "type": "bool"
            }
          ],
          "internalType": "struct DataTypes.Order",
          "name": "order",
          "type": "tuple"
        }
      ],
      "name": "isRedeemSafe",
      "outputs": [
        {
          "internalType": "string",
          "name": "",
          "type": "string"
        }
      ],
      "stateMutability": "view",
      "type": "function"
    },
    {
      "inputs": [],
      "name": "maxAllowedVaultDeviation",
      "outputs": [
        {
          "internalType": "uint256",
          "name": "",
          "type": "uint256"
        }
      ],
      "stateMutability": "view",
      "type": "function"
    },
    {
      "inputs": [],
      "name": "minTokenPrice",
      "outputs": [
        {
          "internalType": "uint256",
          "name": "",
          "type": "uint256"
        }
      ],
      "stateMutability": "view",
      "type": "function"
    },
    {
      "inputs": [],
      "name": "pendingGovernor",
      "outputs": [
        {
          "internalType": "address",
          "name": "",
          "type": "address"
        }
      ],
      "stateMutability": "view",
      "type": "function"
    },
    {
      "inputs": [
        {
          "internalType": "uint256",
          "name": "_minTokenPrice",
          "type": "uint256"
        }
      ],
      "name": "setMinTokenPrice",
      "outputs": [],
      "stateMutability": "nonpayable",
      "type": "function"
    },
    {
      "inputs": [
        {
          "internalType": "uint256",
          "name": "_stablecoinMaxDeviation",
          "type": "uint256"
        }
      ],
      "name": "setStablecoinMaxDeviation",
      "outputs": [],
      "stateMutability": "nonpayable",
      "type": "function"
    },
    {
      "inputs": [
        {
          "internalType": "uint256",
          "name": "_maxAllowedVaultDeviation",
          "type": "uint256"
        }
      ],
      "name": "setVaultMaxDeviation",
      "outputs": [],
      "stateMutability": "nonpayable",
      "type": "function"
    },
    {
      "inputs": [],
      "name": "stablecoinMaxDeviation",
      "outputs": [
        {
          "internalType": "uint256",
          "name": "",
          "type": "uint256"
        }
      ],
      "stateMutability": "view",
      "type": "function"
    }
  ],
  "bytecode": {
    "object": "0x608060405234801561001057600080fd5b5060405161193938038061193983398101604081905261002f9161009b565b600080546001600160a01b0319166001600160a01b038616908117825560408051928352602083019190915285917fde4b3f61490b74c0ed6237523974fe299126bbbf8a8a7482fd220104c59b0c84910160405180910390a150600292909255600355600455506100e6565b600080600080608085870312156100b157600080fd5b84516001600160a01b03811681146100c857600080fd5b60208601516040870151606090970151919890975090945092505050565b611844806100f56000396000f3fe608060405234801561001057600080fd5b50600436106100f55760003560e01c8063bcbef65011610097578063d625436c11610066578063d625436c146101d8578063e2cc8679146101eb578063e3056a34146101fe578063e4c0aaf41461021157600080fd5b8063bcbef65014610196578063bd162bdd146101a9578063c203c831146101bc578063d0261544146101c557600080fd5b80635dabb20e116100d35780635dabb20e1461014b5780636382b29614610154578063888ad11214610174578063a07638201461018357600080fd5b80630c340a24146100fa57806314df3dd81461012a578063238efcbc14610141575b600080fd5b60005461010d906001600160a01b031681565b6040516001600160a01b0390911681526020015b60405180910390f35b61013360035481565b604051908152602001610121565b610149610224565b005b61013360045481565b6101676101623660046113f0565b6102dd565b60405161012191906115dc565b610133670de0b6b3a764000081565b6101496101913660046113f0565b6103a1565b6101496101a436600461162a565b6103d7565b6101496101b736600461162a565b610422565b61013360025481565b6101496101d336600461162a565b61046d565b6101496101e63660046113f0565b6104b8565b6101676101f93660046113f0565b6104bf565b60015461010d906001600160a01b031681565b61014961021f366004611643565b610582565b600154604080518082019091526002815261033360f41b6020820152906001600160a01b031633146102725760405162461bcd60e51b815260040161026991906115dc565b60405180910390fd5b5060008054600180546001600160a01b03198084166001600160a01b03808416919091179095551690556040805192909116808352336020840152917fde4b3f61490b74c0ed6237523974fe299126bbbf8a8a7482fd220104c59b0c8491015b60405180910390a150565b60606102e882610657565b61030a5750506040805180820190915260028152611a9b60f11b602082015290565b6000610315836106d5565b905061032081610bda565b61032981610c59565b8060600151610352575050604080518082019091526002815261353560f01b6020820152919050565b806020015180610366575061036681610d1c565b15610381575050604080516020810190915260008152919050565b5050604080518082019091526002815261353360f01b6020820152919050565b60006103ac826102dd565b9050805160001481906103d25760405162461bcd60e51b815260040161026991906115dc565b505050565b600054604080518082019091526002815261033360f41b6020820152906001600160a01b0316331461041c5760405162461bcd60e51b815260040161026991906115dc565b50600455565b600054604080518082019091526002815261033360f41b6020820152906001600160a01b031633146104675760405162461bcd60e51b815260040161026991906115dc565b50600255565b600054604080518082019091526002815261033360f41b6020820152906001600160a01b031633146104b25760405162461bcd60e51b815260040161026991906115dc565b50600355565b60006103ac825b606060006104cc836106d5565b90506104d781610bda565b6104e081610c59565b8060600151610509575050604080518082019091526002815261353560f01b6020820152919050565b600081604001518061051f575061051f82610dc3565b90506000826020015180610537575061053783610d1c565b90508180156105435750805b156105605750506040805160208101909152600081529392505050565b50506040805180820190915260028152611a9960f11b60208201529392505050565b600054604080518082019091526002815261033360f41b6020820152906001600160a01b031633146105c75760405162461bcd60e51b815260040161026991906115dc565b50604080518082019091526002815261333160f01b60208201526001600160a01b0382166106085760405162461bcd60e51b815260040161026991906115dc565b50600180546001600160a01b0319166001600160a01b0383169081179091556040519081527f67235ba2e63c748a35b95c4f92a3bbc2a1389938170a5ce6c9add5d0b03a314a906020016102d2565b6000805b8251518110156106cc5782518051829081106106795761067961165e565b6020026020010151602001518360000151828151811061069b5761069b61165e565b60200260200101516000015160a0015110156106ba5750600092915050565b806106c48161168a565b91505061065b565b50600192915050565b6040805160a081018252606080825260006020830181905292820183905281018290526080810191909152815160208301511515608083015282515167ffffffffffffffff811115610729576107296111cb565b6040519080825280602002602001820160405280156107b857816020015b6107a560405180610120016040528060006001600160a01b0316815260200160008152602001600081526020016000815260200160008152602001600015158152602001600015158152602001600015158152602001606081525090565b8152602001906001900390816107475790505b508252805160009067ffffffffffffffff8111156107d8576107d86111cb565b604051908082528060200260200182016040528015610801578160200160208202803683370190505b5090506000825167ffffffffffffffff811115610820576108206111cb565b604051908082528060200260200182016040528015610849578160200160208202803683370190505b50905060005b8351811015610b62578560200151156108cf578381815181106108745761087461165e565b6020026020010151602001518482815181106108925761089261165e565b60200260200101516000015160a001516108ac91906116a3565b8382815181106108be576108be61165e565b602002602001018181525050610938565b8381815181106108e1576108e161165e565b6020026020010151602001518482815181106108ff576108ff61165e565b60200260200101516000015160a0015161091991906116b6565b83828151811061092b5761092b61165e565b6020026020010181815250505b61098584828151811061094d5761094d61165e565b6020026020010151600001516020015184838151811061096f5761096f61165e565b6020026020010151610e2f90919063ffffffff16565b8382815181106109975761099761165e565b6020026020010181815250508381815181106109b5576109b561165e565b6020908102919091010151515185518051839081106109d6576109d661165e565b60209081029190910101516001600160a01b0390911690528351849082908110610a0257610a0261165e565b60200260200101516000015160e0015185600001518281518110610a2857610a2861165e565b60200260200101516020018181525050838181518110610a4a57610a4a61165e565b60200260200101516000015160c0015185600001518281518110610a7057610a7061165e565b60200260200101516040018181525050838181518110610a9257610a9261165e565b6020026020010151600001516060015185600001518281518110610ab857610ab861165e565b60200260200101516080018181525050838181518110610ada57610ada61165e565b602002602001015160000151610100015185600001518281518110610b0157610b0161165e565b60200260200101516101000181905250838181518110610b2357610b2361165e565b60200260200101516000015160600151828281518110610b4557610b4561165e565b602090810291909101015280610b5a8161168a565b91505061084f565b506000610b6f8383610e9d565b50905060005b865151811015610bd057818181518110610b9157610b9161165e565b602002602001015186600001518281518110610baf57610baf61165e565b60209081029190910101516060015280610bc88161168a565b915050610b75565b5050505050919050565b600160408201819052606082015260005b815151811015610c5557600082600001518281518110610c0d57610c0d61165e565b60200260200101519050610c2081610ff3565b8060a00151610c3157600060408401525b8060c00151610c4257600060608401525b5080610c4d8161168a565b915050610beb565b5050565b6001602082015260005b815151811015610c5557600082600001518281518110610c8557610c8561165e565b602002602001015190506000610caa60025483602001516110bb90919063ffffffff16565b9050600081610cca8460600151856020015161110d90919063ffffffff16565b111590508085600001518581518110610ce557610ce561165e565b602090810291909101015190151560e09091015280610d0657600060208601525b5050508080610d149061168a565b915050610c63565b6000805b8251518110156106cc57600083600001518281518110610d4257610d4261165e565b602002602001015190508060e0015115610d5c5750610db1565b6000610d798260200151836060015161110d90919063ffffffff16565b90506000610d988360200151846040015161110d90919063ffffffff16565b9050808210610dad5750600095945050505050565b5050505b80610dbb8161168a565b915050610d20565b6000805b8251518110156106cc57600083600001518281518110610de957610de961165e565b602002602001015190508060a00151158015610e0d57508060400151816060015110155b15610e1c575060009392505050565b5080610e278161168a565b915050610dc7565b600060111960ff831601610e44575081610e97565b601260ff83161115610e7757610e5b6012836116c9565b610e6690600a6117c6565b610e7090846117d5565b9050610e97565b610e828260126116c9565b610e8d90600a6117c6565b610e7090846117f7565b92915050565b6060600080835167ffffffffffffffff811115610ebc57610ebc6111cb565b604051908082528060200260200182016040528015610ee5578160200160208202803683370190505b5090506000805b8651811015610f5e576000610f3c878381518110610f0c57610f0c61165e565b6020026020010151898481518110610f2657610f2661165e565b602002602001015161113790919063ffffffff16565b9050610f4881846116a3565b9250508080610f569061168a565b915050610eec565b5080600003610f71579092509050610fec565b60005b8651811015610fe557610fb682610fb0888481518110610f9657610f9661165e565b60200260200101518a8581518110610f2657610f2661165e565b90611160565b838281518110610fc857610fc861165e565b602090810291909101015280610fdd8161168a565b915050610f74565b5090925090505b9250929050565b600160a0820152600060c082018190525b81610100015151811015610c55576000826101000151828151811061102b5761102b61165e565b6020026020010151604001519050600083610100015183815181106110525761105261165e565b6020026020010151602001519050801561109557600160c085015260035461108283670de0b6b3a764000061110d565b111561109057600060a08501525b6110a6565b60045482106110a657600160c08501525b505080806110b39061168a565b915050611004565b6000806110c883856117f7565b9050806000036110dc576000915050610e97565b670de0b6b3a76400006110f06001836116b6565b6110fa91906117d5565b6111059060016116a3565b915050610e97565b6000818310156111265761112183836116b6565b611130565b61113082846116b6565b9392505050565b60008061114483856117f7565b9050611158670de0b6b3a7640000826117d5565b949350505050565b604080518082019091526002815261323560f01b60208201526000908261119a5760405162461bcd60e51b815260040161026991906115dc565b50826000036111ab57506000610e97565b60006111bf670de0b6b3a7640000856117f7565b905061110583826117d5565b634e487b7160e01b600052604160045260246000fd5b6040516060810167ffffffffffffffff81118282101715611204576112046111cb565b60405290565b6040805190810167ffffffffffffffff81118282101715611204576112046111cb565b604051610120810167ffffffffffffffff81118282101715611204576112046111cb565b604051601f8201601f1916810167ffffffffffffffff8111828210171561127a5761127a6111cb565b604052919050565b600067ffffffffffffffff82111561129c5761129c6111cb565b5060051b60200190565b80356001600160a01b03811681146112bd57600080fd5b919050565b803560ff811681146112bd57600080fd5b6000608082840312156112e557600080fd5b6040516080810181811067ffffffffffffffff82111715611308576113086111cb565b8060405250809150823581526020830135602082015260408301356040820152606083013560608201525092915050565b803580151581146112bd57600080fd5b600082601f83011261135a57600080fd5b8135602061136f61136a83611282565b611251565b8281526060928302850182019282820191908785111561138e57600080fd5b8387015b858110156113e35781818a0312156113aa5760008081fd5b6113b26111e1565b6113bb826112a6565b81526113c8868301611339565b81870152604082810135908201528452928401928101611392565b5090979650505050505050565b60006020828403121561140257600080fd5b67ffffffffffffffff808335111561141957600080fd5b6040833584018503121561142c57600080fd5b61143461120a565b818435850135111561144557600080fd5b83358401803501601f8101861361145b57600080fd5b61146861136a8235611282565b81358082526020808301929160051b84010188101561148657600080fd5b602083015b6020843560051b8501018110156115ba5785813511156114aa57600080fd5b80358401601f196040828c03820112156114c357600080fd5b6114cb61120a565b88602084013511156114dc57600080fd5b6020830135830161018083828f030112156114f657600080fd5b6114fe61122d565b925061150c602082016112a6565b835261151a604082016112c2565b602084015261152b606082016112a6565b6040840152608081013560608401526115478d60a083016112d3565b608084015261012081013560a084015261014081013560c084015261016081013560e084015289610180820135111561157f57600080fd5b6115938d6020610180840135840101611349565b6101008401525090815260409190910135602080830191909152908452928301920161148b565b508352506115cf905084358501602001611339565b6020820152949350505050565b600060208083528351808285015260005b81811015611609578581018301518582016040015282016115ed565b506000604082860101526040601f19601f8301168501019250505092915050565b60006020828403121561163c57600080fd5b5035919050565b60006020828403121561165557600080fd5b611130826112a6565b634e487b7160e01b600052603260045260246000fd5b634e487b7160e01b600052601160045260246000fd5b60006001820161169c5761169c611674565b5060010190565b80820180821115610e9757610e97611674565b81810381811115610e9757610e97611674565b60ff8281168282160390811115610e9757610e97611674565b600181815b8085111561171d57816000190482111561170357611703611674565b8085161561171057918102915b93841c93908002906116e7565b509250929050565b60008261173457506001610e97565b8161174157506000610e97565b816001811461175757600281146117615761177d565b6001915050610e97565b60ff84111561177257611772611674565b50506001821b610e97565b5060208310610133831016604e8410600b84101617156117a0575081810a610e97565b6117aa83836116e2565b80600019048211156117be576117be611674565b029392505050565b600061113060ff841683611725565b6000826117f257634e487b7160e01b600052601260045260246000fd5b500490565b8082028115828204841417610e9757610e9761167456fea264697066735822122039bd52ce65508d3ead9fa1f9970c2de89691b6c07e7c92ec7cb4e1fc3cc6193f64736f6c63430008110033",
    "linkReferences": {}
  },
  "methodIdentifiers": {
    "STABLECOIN_IDEAL_PRICE()": "888ad112",
    "acceptGovernance()": "238efcbc",
    "changeGovernor(address)": "e4c0aaf4",
    "checkAndPersistMint((((address,uint8,address,uint256,(uint256,uint256,uint256,uint256),uint256,uint256,uint256,(address,bool,uint256)[]),uint256)[],bool))": "d625436c",
    "checkAndPersistRedeem((((address,uint8,address,uint256,(uint256,uint256,uint256,uint256),uint256,uint256,uint256,(address,bool,uint256)[]),uint256)[],bool))": "a0763820",
    "governor()": "0c340a24",
    "isMintSafe((((address,uint8,address,uint256,(uint256,uint256,uint256,uint256),uint256,uint256,uint256,(address,bool,uint256)[]),uint256)[],bool))": "e2cc8679",
    "isRedeemSafe((((address,uint8,address,uint256,(uint256,uint256,uint256,uint256),uint256,uint256,uint256,(address,bool,uint256)[]),uint256)[],bool))": "6382b296",
    "maxAllowedVaultDeviation()": "c203c831",
    "minTokenPrice()": "5dabb20e",
    "pendingGovernor()": "e3056a34",
    "setMinTokenPrice(uint256)": "bcbef650",
    "setStablecoinMaxDeviation(uint256)": "d0261544",
    "setVaultMaxDeviation(uint256)": "bd162bdd",
    "stablecoinMaxDeviation()": "14df3dd8"
  },
  "id": 31
}