{
  "abi": [
    {
      "inputs": [
        {
          "internalType": "bytes32",
          "name": "_poolId",
          "type": "bytes32"
        }
      ],
      "stateMutability": "nonpayable",
      "type": "constructor"
    },
    {
      "inputs": [],
      "name": "bufferPeriodEndTime",
      "outputs": [
        {
          "internalType": "uint256",
          "name": "",
          "type": "uint256"
        }
      ],
      "stateMutability": "view",
      "type": "function"
    },
    {
      "inputs": [],
      "name": "getNormalizedWeights",
      "outputs": [
        {
          "internalType": "uint256[]",
          "name": "",
          "type": "uint256[]"
        }
      ],
      "stateMutability": "view",
      "type": "function"
    },
    {
      "inputs": [],
      "name": "getPausedState",
      "outputs": [
        {
          "internalType": "bool",
          "name": "",
          "type": "bool"
        },
        {
          "internalType": "uint256",
          "name": "",
          "type": "uint256"
        },
        {
          "internalType": "uint256",
          "name": "",
          "type": "uint256"
        }
      ],
      "stateMutability": "view",
      "type": "function"
    },
    {
      "inputs": [],
      "name": "getPoolId",
      "outputs": [
        {
          "internalType": "bytes32",
          "name": "",
          "type": "bytes32"
        }
      ],
      "stateMutability": "view",
      "type": "function"
    },
    {
      "inputs": [
        {
          "internalType": "uint256",
          "name": "",
          "type": "uint256"
        }
      ],
      "name": "normalizedWeights",
      "outputs": [
        {
          "internalType": "uint256",
          "name": "",
          "type": "uint256"
        }
      ],
      "stateMutability": "view",
      "type": "function"
    },
    {
      "inputs": [],
      "name": "pauseWindowEndTime",
      "outputs": [
        {
          "internalType": "uint256",
          "name": "",
          "type": "uint256"
        }
      ],
      "stateMutability": "view",
      "type": "function"
    },
    {
      "inputs": [],
      "name": "pausedState",
      "outputs": [
        {
          "internalType": "bool",
          "name": "",
          "type": "bool"
        }
      ],
      "stateMutability": "view",
      "type": "function"
    },
    {
      "inputs": [],
      "name": "poolId",
      "outputs": [
        {
          "internalType": "bytes32",
          "name": "",
          "type": "bytes32"
        }
      ],
      "stateMutability": "view",
      "type": "function"
    },
    {
      "inputs": [
        {
          "internalType": "uint256[]",
          "name": "_normalizedWeights",
          "type": "uint256[]"
        }
      ],
      "name": "setNormalizedWeights",
      "outputs": [],
      "stateMutability": "nonpayable",
      "type": "function"
    },
    {
      "inputs": [
        {
          "internalType": "bool",
          "name": "_pausedState",
          "type": "bool"
        },
        {
          "internalType": "uint256",
          "name": "_pauseWindowEndTime",
          "type": "uint256"
        },
        {
          "internalType": "uint256",
          "name": "_bufferPeriodEndTime",
          "type": "uint256"
        }
      ],
      "name": "setPausedState",
      "outputs": [],
      "stateMutability": "nonpayable",
      "type": "function"
    }
  ],
  "bytecode": {
    "object": "0x60a060405234801561001057600080fd5b506040516104bf3803806104bf83398101604081905261002f91610037565b608052610050565b60006020828403121561004957600080fd5b5051919050565b60805161044e6100716000396000818160d40152610107015261044e6000f3fe608060405234801561001057600080fd5b506004361061009e5760003560e01c8063a2dab42c11610066578063a2dab42c14610166578063bb99d9e614610183578063c18d47b014610196578063df5886ea1461019f578063f89f27ed146101a857600080fd5b80631c0de051146100a357806338fff2d0146100d25780633e0dc34e1461010257806343ab504e1461012957806382ed4eef1461013c575b600080fd5b6000546001546002546040805160ff909416151584526020840192909252908201526060015b60405180910390f35b7f00000000000000000000000000000000000000000000000000000000000000005b6040519081526020016100c9565b6100f47f000000000000000000000000000000000000000000000000000000000000000081565b6100f46101373660046102ad565b6101bd565b61016461014a3660046102c6565b6000805460ff191693151593909317909255600155600255565b005b6000546101739060ff1681565b60405190151581526020016100c9565b610164610191366004610316565b6101de565b6100f460025481565b6100f460015481565b6101b06101f5565b6040516100c991906103d4565b600381815481106101cd57600080fd5b600091825260209091200154905081565b80516101f190600390602084019061024d565b5050565b6060600380548060200260200160405190810160405280929190818152602001828054801561024357602002820191906000526020600020905b81548152602001906001019080831161022f575b5050505050905090565b828054828255906000526020600020908101928215610288579160200282015b8281111561028857825182559160200191906001019061026d565b50610294929150610298565b5090565b5b808211156102945760008155600101610299565b6000602082840312156102bf57600080fd5b5035919050565b6000806000606084860312156102db57600080fd5b833580151581146102eb57600080fd5b95602085013595506040909401359392505050565b634e487b7160e01b600052604160045260246000fd5b6000602080838503121561032957600080fd5b823567ffffffffffffffff8082111561034157600080fd5b818501915085601f83011261035557600080fd5b81358181111561036757610367610300565b8060051b604051601f19603f8301168101818110858211171561038c5761038c610300565b6040529182528482019250838101850191888311156103aa57600080fd5b938501935b828510156103c8578435845293850193928501926103af565b98975050505050505050565b6020808252825182820181905260009190848201906040850190845b8181101561040c578351835292840192918401916001016103f0565b5090969550505050505056fea26469706673582212204da95b3e3c498e6a2ec74481af9a032cd42df4a9b8240cb3abd62d9ea00f7a5f64736f6c63430008110033",
    "linkReferences": {}
  },
  "methodIdentifiers": {
    "bufferPeriodEndTime()": "c18d47b0",
    "getNormalizedWeights()": "f89f27ed",
    "getPausedState()": "1c0de051",
    "getPoolId()": "38fff2d0",
    "normalizedWeights(uint256)": "43ab504e",
    "pauseWindowEndTime()": "df5886ea",
    "pausedState()": "a2dab42c",
    "poolId()": "3e0dc34e",
    "setNormalizedWeights(uint256[])": "bb99d9e6",
    "setPausedState(bool,uint256,uint256)": "82ed4eef"
  },
  "id": 54
}