{
  "abi": [
    {
      "inputs": [
        {
          "internalType": "address",
          "name": "_governor",
          "type": "address"
        },
        {
          "internalType": "uint256",
          "name": "_maxAllowedVaultDeviation",
          "type": "uint256"
        },
        {
          "internalType": "uint256",
          "name": "_stablecoinMaxDeviation",
          "type": "uint256"
        },
        {
          "internalType": "uint256",
          "name": "_minTokenPrice",
          "type": "uint256"
        }
      ],
      "stateMutability": "nonpayable",
      "type": "constructor"
    },
    {
      "anonymous": false,
      "inputs": [
        {
          "indexed": false,
          "internalType": "address",
          "name": "newGovernor",
          "type": "address"
        }
      ],
      "name": "GovernorChangeRequested",
      "type": "event"
    },
    {
      "anonymous": false,
      "inputs": [
        {
          "indexed": false,
          "internalType": "address",
          "name": "oldGovernor",
          "type": "address"
        },
        {
          "indexed": false,
          "internalType": "address",
          "name": "newGovernor",
          "type": "address"
        }
      ],
      "name": "GovernorChanged",
      "type": "event"
    },
    {
      "inputs": [],
      "name": "STABLECOIN_IDEAL_PRICE",
      "outputs": [
        {
          "internalType": "uint256",
          "name": "",
          "type": "uint256"
        }
      ],
      "stateMutability": "view",
      "type": "function"
    },
    {
      "inputs": [],
      "name": "acceptGovernance",
      "outputs": [],
      "stateMutability": "nonpayable",
      "type": "function"
    },
    {
      "inputs": [
        {
          "components": [
            {
              "components": [
                {
                  "components": [
                    {
                      "internalType": "address",
                      "name": "vault",
                      "type": "address"
                    },
                    {
                      "internalType": "uint8",
                      "name": "decimals",
                      "type": "uint8"
                    },
                    {
                      "internalType": "address",
                      "name": "underlying",
                      "type": "address"
                    },
                    {
                      "internalType": "uint256",
                      "name": "price",
                      "type": "uint256"
                    },
                    {
                      "components": [
                        {
                          "internalType": "uint256",
                          "name": "initialPrice",
                          "type": "uint256"
                        },
                        {
                          "internalType": "uint256",
                          "name": "initialWeight",
                          "type": "uint256"
                        },
                        {
                          "internalType": "uint256",
                          "name": "shortFlowMemory",
                          "type": "uint256"
                        },
                        {
                          "internalType": "uint256",
                          "name": "shortFlowThreshold",
                          "type": "uint256"
                        }
                      ],
                      "internalType": "struct DataTypes.PersistedVaultMetadata",
                      "name": "persistedMetadata",
                      "type": "tuple"
                    },
                    {
                      "internalType": "uint256",
                      "name": "reserveBalance",
                      "type": "uint256"
                    },
                    {
                      "internalType": "uint256",
                      "name": "currentWeight",
                      "type": "uint256"
                    },
                    {
                      "internalType": "uint256",
                      "name": "idealWeight",
                      "type": "uint256"
                    },
                    {
                      "components": [
                        {
                          "internalType": "address",
                          "name": "tokenAddress",
                          "type": "address"
                        },
                        {
                          "internalType": "bool",
                          "name": "isStable",
                          "type": "bool"
                        },
                        {
                          "internalType": "uint256",
                          "name": "price",
                          "type": "uint256"
                        }
                      ],
                      "internalType": "struct DataTypes.PricedToken[]",
                      "name": "pricedTokens",
                      "type": "tuple[]"
                    }
                  ],
                  "internalType": "struct DataTypes.VaultInfo",
                  "name": "vaultInfo",
                  "type": "tuple"
                },
                {
                  "internalType": "uint256",
                  "name": "amount",
                  "type": "uint256"
                }
              ],
              "internalType": "struct DataTypes.VaultWithAmount[]",
              "name": "vaultsWithAmount",
              "type": "tuple[]"
            },
            {
              "internalType": "bool",
              "name": "mint",
              "type": "bool"
            }
          ],
          "internalType": "struct DataTypes.Order",
          "name": "order",
          "type": "tuple"
        }
      ],
      "name": "buildMetaData",
      "outputs": [
        {
          "components": [
            {
              "components": [
                {
                  "internalType": "address",
                  "name": "vault",
                  "type": "address"
                },
                {
                  "internalType": "uint256",
                  "name": "idealWeight",
                  "type": "uint256"
                },
                {
                  "internalType": "uint256",
                  "name": "currentWeight",
                  "type": "uint256"
                },
                {
                  "internalType": "uint256",
                  "name": "resultingWeight",
                  "type": "uint256"
                },
                {
                  "internalType": "uint256",
                  "name": "price",
                  "type": "uint256"
                },
                {
                  "internalType": "bool",
                  "name": "allStablecoinsOnPeg",
                  "type": "bool"
                },
                {
                  "internalType": "bool",
                  "name": "atLeastOnePriceLargeEnough",
                  "type": "bool"
                },
                {
                  "internalType": "bool",
                  "name": "vaultWithinEpsilon",
                  "type": "bool"
                },
                {
                  "components": [
                    {
                      "internalType": "address",
                      "name": "tokenAddress",
                      "type": "address"
                    },
                    {
                      "internalType": "bool",
                      "name": "isStable",
                      "type": "bool"
                    },
                    {
                      "internalType": "uint256",
                      "name": "price",
                      "type": "uint256"
                    }
                  ],
                  "internalType": "struct DataTypes.PricedToken[]",
                  "name": "pricedTokens",
                  "type": "tuple[]"
                }
              ],
              "internalType": "struct DataTypes.VaultMetadata[]",
              "name": "vaultMetadata",
              "type": "tuple[]"
            },
            {
              "internalType": "bool",
              "name": "allVaultsWithinEpsilon",
              "type": "bool"
            },
            {
              "internalType": "bool",
              "name": "allStablecoinsAllVaultsOnPeg",
              "type": "bool"
            },
            {
              "internalType": "bool",
              "name": "allVaultsUsingLargeEnoughPrices",
              "type": "bool"
            },
            {
              "internalType": "bool",
              "name": "mint",
              "type": "bool"
            }
          ],
          "internalType": "struct DataTypes.Metadata",
          "name": "metaData",
          "type": "tuple"
        }
      ],
      "stateMutability": "pure",
      "type": "function"
    },
    {
      "inputs": [
        {
          "internalType": "uint256[]",
          "name": "amounts",
          "type": "uint256[]"
        },
        {
          "internalType": "uint256[]",
          "name": "prices",
          "type": "uint256[]"
        }
      ],
      "name": "calculateWeightsAndTotal",
      "outputs": [
        {
          "internalType": "uint256[]",
          "name": "",
          "type": "uint256[]"
        },
        {
          "internalType": "uint256",
          "name": "",
          "type": "uint256"
        }
      ],
      "stateMutability": "pure",
      "type": "function"
    },
    {
      "inputs": [
        {
          "internalType": "address",
          "name": "newGovernor",
          "type": "address"
        }
      ],
      "name": "changeGovernor",
      "outputs": [],
      "stateMutability": "nonpayable",
      "type": "function"
    },
    {
      "inputs": [
        {
          "components": [
            {
              "components": [
                {
                  "components": [
                    {
                      "internalType": "address",
                      "name": "vault",
                      "type": "address"
                    },
                    {
                      "internalType": "uint8",
                      "name": "decimals",
                      "type": "uint8"
                    },
                    {
                      "internalType": "address",
                      "name": "underlying",
                      "type": "address"
                    },
                    {
                      "internalType": "uint256",
                      "name": "price",
                      "type": "uint256"
                    },
                    {
                      "components": [
                        {
                          "internalType": "uint256",
                          "name": "initialPrice",
                          "type": "uint256"
                        },
                        {
                          "internalType": "uint256",
                          "name": "initialWeight",
                          "type": "uint256"
                        },
                        {
                          "internalType": "uint256",
                          "name": "shortFlowMemory",
                          "type": "uint256"
                        },
                        {
                          "internalType": "uint256",
                          "name": "shortFlowThreshold",
                          "type": "uint256"
                        }
                      ],
                      "internalType": "struct DataTypes.PersistedVaultMetadata",
                      "name": "persistedMetadata",
                      "type": "tuple"
                    },
                    {
                      "internalType": "uint256",
                      "name": "reserveBalance",
                      "type": "uint256"
                    },
                    {
                      "internalType": "uint256",
                      "name": "currentWeight",
                      "type": "uint256"
                    },
                    {
                      "internalType": "uint256",
                      "name": "idealWeight",
                      "type": "uint256"
                    },
                    {
                      "components": [
                        {
                          "internalType": "address",
                          "name": "tokenAddress",
                          "type": "address"
                        },
                        {
                          "internalType": "bool",
                          "name": "isStable",
                          "type": "bool"
                        },
                        {
                          "internalType": "uint256",
                          "name": "price",
                          "type": "uint256"
                        }
                      ],
                      "internalType": "struct DataTypes.PricedToken[]",
                      "name": "pricedTokens",
                      "type": "tuple[]"
                    }
                  ],
                  "internalType": "struct DataTypes.VaultInfo",
                  "name": "vaultInfo",
                  "type": "tuple"
                },
                {
                  "internalType": "uint256",
                  "name": "amount",
                  "type": "uint256"
                }
              ],
              "internalType": "struct DataTypes.VaultWithAmount[]",
              "name": "vaultsWithAmount",
              "type": "tuple[]"
            },
            {
              "internalType": "bool",
              "name": "mint",
              "type": "bool"
            }
          ],
          "internalType": "struct DataTypes.Order",
          "name": "order",
          "type": "tuple"
        }
      ],
      "name": "checkAndPersistMint",
      "outputs": [],
      "stateMutability": "view",
      "type": "function"
    },
    {
      "inputs": [
        {
          "components": [
            {
              "components": [
                {
                  "components": [
                    {
                      "internalType": "address",
                      "name": "vault",
                      "type": "address"
                    },
                    {
                      "internalType": "uint8",
                      "name": "decimals",
                      "type": "uint8"
                    },
                    {
                      "internalType": "address",
                      "name": "underlying",
                      "type": "address"
                    },
                    {
                      "internalType": "uint256",
                      "name": "price",
                      "type": "uint256"
                    },
                    {
                      "components": [
                        {
                          "internalType": "uint256",
                          "name": "initialPrice",
                          "type": "uint256"
                        },
                        {
                          "internalType": "uint256",
                          "name": "initialWeight",
                          "type": "uint256"
                        },
                        {
                          "internalType": "uint256",
                          "name": "shortFlowMemory",
                          "type": "uint256"
                        },
                        {
                          "internalType": "uint256",
                          "name": "shortFlowThreshold",
                          "type": "uint256"
                        }
                      ],
                      "internalType": "struct DataTypes.PersistedVaultMetadata",
                      "name": "persistedMetadata",
                      "type": "tuple"
                    },
                    {
                      "internalType": "uint256",
                      "name": "reserveBalance",
                      "type": "uint256"
                    },
                    {
                      "internalType": "uint256",
                      "name": "currentWeight",
                      "type": "uint256"
                    },
                    {
                      "internalType": "uint256",
                      "name": "idealWeight",
                      "type": "uint256"
                    },
                    {
                      "components": [
                        {
                          "internalType": "address",
                          "name": "tokenAddress",
                          "type": "address"
                        },
                        {
                          "internalType": "bool",
                          "name": "isStable",
                          "type": "bool"
                        },
                        {
                          "internalType": "uint256",
                          "name": "price",
                          "type": "uint256"
                        }
                      ],
                      "internalType": "struct DataTypes.PricedToken[]",
                      "name": "pricedTokens",
                      "type": "tuple[]"
                    }
                  ],
                  "internalType": "struct DataTypes.VaultInfo",
                  "name": "vaultInfo",
                  "type": "tuple"
                },
                {
                  "internalType": "uint256",
                  "name": "amount",
                  "type": "uint256"
                }
              ],
              "internalType": "struct DataTypes.VaultWithAmount[]",
              "name": "vaultsWithAmount",
              "type": "tuple[]"
            },
            {
              "internalType": "bool",
              "name": "mint",
              "type": "bool"
            }
          ],
          "internalType": "struct DataTypes.Order",
          "name": "order",
          "type": "tuple"
        }
      ],
      "name": "checkAndPersistRedeem",
      "outputs": [],
      "stateMutability": "view",
      "type": "function"
    },
    {
      "inputs": [],
      "name": "governor",
      "outputs": [
        {
          "internalType": "address",
          "name": "",
          "type": "address"
        }
      ],
      "stateMutability": "view",
      "type": "function"
    },
    {
      "inputs": [
        {
          "components": [
            {
              "components": [
                {
                  "components": [
                    {
                      "internalType": "address",
                      "name": "vault",
                      "type": "address"
                    },
                    {
                      "internalType": "uint8",
                      "name": "decimals",
                      "type": "uint8"
                    },
                    {
                      "internalType": "address",
                      "name": "underlying",
                      "type": "address"
                    },
                    {
                      "internalType": "uint256",
                      "name": "price",
                      "type": "uint256"
                    },
                    {
                      "components": [
                        {
                          "internalType": "uint256",
                          "name": "initialPrice",
                          "type": "uint256"
                        },
                        {
                          "internalType": "uint256",
                          "name": "initialWeight",
                          "type": "uint256"
                        },
                        {
                          "internalType": "uint256",
                          "name": "shortFlowMemory",
                          "type": "uint256"
                        },
                        {
                          "internalType": "uint256",
                          "name": "shortFlowThreshold",
                          "type": "uint256"
                        }
                      ],
                      "internalType": "struct DataTypes.PersistedVaultMetadata",
                      "name": "persistedMetadata",
                      "type": "tuple"
                    },
                    {
                      "internalType": "uint256",
                      "name": "reserveBalance",
                      "type": "uint256"
                    },
                    {
                      "internalType": "uint256",
                      "name": "currentWeight",
                      "type": "uint256"
                    },
                    {
                      "internalType": "uint256",
                      "name": "idealWeight",
                      "type": "uint256"
                    },
                    {
                      "components": [
                        {
                          "internalType": "address",
                          "name": "tokenAddress",
                          "type": "address"
                        },
                        {
                          "internalType": "bool",
                          "name": "isStable",
                          "type": "bool"
                        },
                        {
                          "internalType": "uint256",
                          "name": "price",
                          "type": "uint256"
                        }
                      ],
                      "internalType": "struct DataTypes.PricedToken[]",
                      "name": "pricedTokens",
                      "type": "tuple[]"
                    }
                  ],
                  "internalType": "struct DataTypes.VaultInfo",
                  "name": "vaultInfo",
                  "type": "tuple"
                },
                {
                  "internalType": "uint256",
                  "name": "amount",
                  "type": "uint256"
                }
              ],
              "internalType": "struct DataTypes.VaultWithAmount[]",
              "name": "vaultsWithAmount",
              "type": "tuple[]"
            },
            {
              "internalType": "bool",
              "name": "mint",
              "type": "bool"
            }
          ],
          "internalType": "struct DataTypes.Order",
          "name": "order",
          "type": "tuple"
        }
      ],
      "name": "isMintSafe",
      "outputs": [
        {
          "internalType": "string",
          "name": "",
          "type": "string"
        }
      ],
      "stateMutability": "view",
      "type": "function"
    },
    {
      "inputs": [
        {
          "components": [
            {
              "components": [
                {
                  "components": [
                    {
                      "internalType": "address",
                      "name": "vault",
                      "type": "address"
                    },
                    {
                      "internalType": "uint8",
                      "name": "decimals",
                      "type": "uint8"
                    },
                    {
                      "internalType": "address",
                      "name": "underlying",
                      "type": "address"
                    },
                    {
                      "internalType": "uint256",
                      "name": "price",
                      "type": "uint256"
                    },
                    {
                      "components": [
                        {
                          "internalType": "uint256",
                          "name": "initialPrice",
                          "type": "uint256"
                        },
                        {
                          "internalType": "uint256",
                          "name": "initialWeight",
                          "type": "uint256"
                        },
                        {
                          "internalType": "uint256",
                          "name": "shortFlowMemory",
                          "type": "uint256"
                        },
                        {
                          "internalType": "uint256",
                          "name": "shortFlowThreshold",
                          "type": "uint256"
                        }
                      ],
                      "internalType": "struct DataTypes.PersistedVaultMetadata",
                      "name": "persistedMetadata",
                      "type": "tuple"
                    },
                    {
                      "internalType": "uint256",
                      "name": "reserveBalance",
                      "type": "uint256"
                    },
                    {
                      "internalType": "uint256",
                      "name": "currentWeight",
                      "type": "uint256"
                    },
                    {
                      "internalType": "uint256",
                      "name": "idealWeight",
                      "type": "uint256"
                    },
                    {
                      "components": [
                        {
                          "internalType": "address",
                          "name": "tokenAddress",
                          "type": "address"
                        },
                        {
                          "internalType": "bool",
                          "name": "isStable",
                          "type": "bool"
                        },
                        {
                          "internalType": "uint256",
                          "name": "price",
                          "type": "uint256"
                        }
                      ],
                      "internalType": "struct DataTypes.PricedToken[]",
                      "name": "pricedTokens",
                      "type": "tuple[]"
                    }
                  ],
                  "internalType": "struct DataTypes.VaultInfo",
                  "name": "vaultInfo",
                  "type": "tuple"
                },
                {
                  "internalType": "uint256",
                  "name": "amount",
                  "type": "uint256"
                }
              ],
              "internalType": "struct DataTypes.VaultWithAmount[]",
              "name": "vaultsWithAmount",
              "type": "tuple[]"
            },
            {
              "internalType": "bool",
              "name": "mint",
              "type": "bool"
            }
          ],
          "internalType": "struct DataTypes.Order",
          "name": "order",
          "type": "tuple"
        }
      ],
      "name": "isRedeemSafe",
      "outputs": [
        {
          "internalType": "string",
          "name": "",
          "type": "string"
        }
      ],
      "stateMutability": "view",
      "type": "function"
    },
    {
      "inputs": [],
      "name": "maxAllowedVaultDeviation",
      "outputs": [
        {
          "internalType": "uint256",
          "name": "",
          "type": "uint256"
        }
      ],
      "stateMutability": "view",
      "type": "function"
    },
    {
      "inputs": [],
      "name": "minTokenPrice",
      "outputs": [
        {
          "internalType": "uint256",
          "name": "",
          "type": "uint256"
        }
      ],
      "stateMutability": "view",
      "type": "function"
    },
    {
      "inputs": [],
      "name": "pendingGovernor",
      "outputs": [
        {
          "internalType": "address",
          "name": "",
          "type": "address"
        }
      ],
      "stateMutability": "view",
      "type": "function"
    },
    {
      "inputs": [
        {
          "components": [
            {
              "components": [
                {
                  "internalType": "address",
                  "name": "vault",
                  "type": "address"
                },
                {
                  "internalType": "uint256",
                  "name": "idealWeight",
                  "type": "uint256"
                },
                {
                  "internalType": "uint256",
                  "name": "currentWeight",
                  "type": "uint256"
                },
                {
                  "internalType": "uint256",
                  "name": "resultingWeight",
                  "type": "uint256"
                },
                {
                  "internalType": "uint256",
                  "name": "price",
                  "type": "uint256"
                },
                {
                  "internalType": "bool",
                  "name": "allStablecoinsOnPeg",
                  "type": "bool"
                },
                {
                  "internalType": "bool",
                  "name": "atLeastOnePriceLargeEnough",
                  "type": "bool"
                },
                {
                  "internalType": "bool",
                  "name": "vaultWithinEpsilon",
                  "type": "bool"
                },
                {
                  "components": [
                    {
                      "internalType": "address",
                      "name": "tokenAddress",
                      "type": "address"
                    },
                    {
                      "internalType": "bool",
                      "name": "isStable",
                      "type": "bool"
                    },
                    {
                      "internalType": "uint256",
                      "name": "price",
                      "type": "uint256"
                    }
                  ],
                  "internalType": "struct DataTypes.PricedToken[]",
                  "name": "pricedTokens",
                  "type": "tuple[]"
                }
              ],
              "internalType": "struct DataTypes.VaultMetadata[]",
              "name": "vaultMetadata",
              "type": "tuple[]"
            },
            {
              "internalType": "bool",
              "name": "allVaultsWithinEpsilon",
              "type": "bool"
            },
            {
              "internalType": "bool",
              "name": "allStablecoinsAllVaultsOnPeg",
              "type": "bool"
            },
            {
              "internalType": "bool",
              "name": "allVaultsUsingLargeEnoughPrices",
              "type": "bool"
            },
            {
              "internalType": "bool",
              "name": "mint",
              "type": "bool"
            }
          ],
          "internalType": "struct DataTypes.Metadata",
          "name": "metaData",
          "type": "tuple"
        }
      ],
      "name": "safeToExecuteOutsideEpsilon",
      "outputs": [
        {
          "internalType": "bool",
          "name": "",
          "type": "bool"
        }
      ],
      "stateMutability": "pure",
      "type": "function"
    },
    {
      "inputs": [
        {
          "internalType": "uint256",
          "name": "_minTokenPrice",
          "type": "uint256"
        }
      ],
      "name": "setMinTokenPrice",
      "outputs": [],
      "stateMutability": "nonpayable",
      "type": "function"
    },
    {
      "inputs": [
        {
          "internalType": "uint256",
          "name": "_stablecoinMaxDeviation",
          "type": "uint256"
        }
      ],
      "name": "setStablecoinMaxDeviation",
      "outputs": [],
      "stateMutability": "nonpayable",
      "type": "function"
    },
    {
      "inputs": [
        {
          "internalType": "uint256",
          "name": "_maxAllowedVaultDeviation",
          "type": "uint256"
        }
      ],
      "name": "setVaultMaxDeviation",
      "outputs": [],
      "stateMutability": "nonpayable",
      "type": "function"
    },
    {
      "inputs": [],
      "name": "stablecoinMaxDeviation",
      "outputs": [
        {
          "internalType": "uint256",
          "name": "",
          "type": "uint256"
        }
      ],
      "stateMutability": "view",
      "type": "function"
    },
    {
      "inputs": [
        {
          "components": [
            {
              "components": [
                {
                  "internalType": "address",
                  "name": "vault",
                  "type": "address"
                },
                {
                  "internalType": "uint256",
                  "name": "idealWeight",
                  "type": "uint256"
                },
                {
                  "internalType": "uint256",
                  "name": "currentWeight",
                  "type": "uint256"
                },
                {
                  "internalType": "uint256",
                  "name": "resultingWeight",
                  "type": "uint256"
                },
                {
                  "internalType": "uint256",
                  "name": "price",
                  "type": "uint256"
                },
                {
                  "internalType": "bool",
                  "name": "allStablecoinsOnPeg",
                  "type": "bool"
                },
                {
                  "internalType": "bool",
                  "name": "atLeastOnePriceLargeEnough",
                  "type": "bool"
                },
                {
                  "internalType": "bool",
                  "name": "vaultWithinEpsilon",
                  "type": "bool"
                },
                {
                  "components": [
                    {
                      "internalType": "address",
                      "name": "tokenAddress",
                      "type": "address"
                    },
                    {
                      "internalType": "bool",
                      "name": "isStable",
                      "type": "bool"
                    },
                    {
                      "internalType": "uint256",
                      "name": "price",
                      "type": "uint256"
                    }
                  ],
                  "internalType": "struct DataTypes.PricedToken[]",
                  "name": "pricedTokens",
                  "type": "tuple[]"
                }
              ],
              "internalType": "struct DataTypes.VaultMetadata[]",
              "name": "vaultMetadata",
              "type": "tuple[]"
            },
            {
              "internalType": "bool",
              "name": "allVaultsWithinEpsilon",
              "type": "bool"
            },
            {
              "internalType": "bool",
              "name": "allStablecoinsAllVaultsOnPeg",
              "type": "bool"
            },
            {
              "internalType": "bool",
              "name": "allVaultsUsingLargeEnoughPrices",
              "type": "bool"
            },
            {
              "internalType": "bool",
              "name": "mint",
              "type": "bool"
            }
          ],
          "internalType": "struct DataTypes.Metadata",
          "name": "metaData",
          "type": "tuple"
        }
      ],
      "name": "updateMetaDataWithEpsilonStatus",
      "outputs": [
        {
          "components": [
            {
              "components": [
                {
                  "internalType": "address",
                  "name": "vault",
                  "type": "address"
                },
                {
                  "internalType": "uint256",
                  "name": "idealWeight",
                  "type": "uint256"
                },
                {
                  "internalType": "uint256",
                  "name": "currentWeight",
                  "type": "uint256"
                },
                {
                  "internalType": "uint256",
                  "name": "resultingWeight",
                  "type": "uint256"
                },
                {
                  "internalType": "uint256",
                  "name": "price",
                  "type": "uint256"
                },
                {
                  "internalType": "bool",
                  "name": "allStablecoinsOnPeg",
                  "type": "bool"
                },
                {
                  "internalType": "bool",
                  "name": "atLeastOnePriceLargeEnough",
                  "type": "bool"
                },
                {
                  "internalType": "bool",
                  "name": "vaultWithinEpsilon",
                  "type": "bool"
                },
                {
                  "components": [
                    {
                      "internalType": "address",
                      "name": "tokenAddress",
                      "type": "address"
                    },
                    {
                      "internalType": "bool",
                      "name": "isStable",
                      "type": "bool"
                    },
                    {
                      "internalType": "uint256",
                      "name": "price",
                      "type": "uint256"
                    }
                  ],
                  "internalType": "struct DataTypes.PricedToken[]",
                  "name": "pricedTokens",
                  "type": "tuple[]"
                }
              ],
              "internalType": "struct DataTypes.VaultMetadata[]",
              "name": "vaultMetadata",
              "type": "tuple[]"
            },
            {
              "internalType": "bool",
              "name": "allVaultsWithinEpsilon",
              "type": "bool"
            },
            {
              "internalType": "bool",
              "name": "allStablecoinsAllVaultsOnPeg",
              "type": "bool"
            },
            {
              "internalType": "bool",
              "name": "allVaultsUsingLargeEnoughPrices",
              "type": "bool"
            },
            {
              "internalType": "bool",
              "name": "mint",
              "type": "bool"
            }
          ],
          "internalType": "struct DataTypes.Metadata",
          "name": "",
          "type": "tuple"
        }
      ],
      "stateMutability": "view",
      "type": "function"
    },
    {
      "inputs": [
        {
          "components": [
            {
              "components": [
                {
                  "internalType": "address",
                  "name": "vault",
                  "type": "address"
                },
                {
                  "internalType": "uint256",
                  "name": "idealWeight",
                  "type": "uint256"
                },
                {
                  "internalType": "uint256",
                  "name": "currentWeight",
                  "type": "uint256"
                },
                {
                  "internalType": "uint256",
                  "name": "resultingWeight",
                  "type": "uint256"
                },
                {
                  "internalType": "uint256",
                  "name": "price",
                  "type": "uint256"
                },
                {
                  "internalType": "bool",
                  "name": "allStablecoinsOnPeg",
                  "type": "bool"
                },
                {
                  "internalType": "bool",
                  "name": "atLeastOnePriceLargeEnough",
                  "type": "bool"
                },
                {
                  "internalType": "bool",
                  "name": "vaultWithinEpsilon",
                  "type": "bool"
                },
                {
                  "components": [
                    {
                      "internalType": "address",
                      "name": "tokenAddress",
                      "type": "address"
                    },
                    {
                      "internalType": "bool",
                      "name": "isStable",
                      "type": "bool"
                    },
                    {
                      "internalType": "uint256",
                      "name": "price",
                      "type": "uint256"
                    }
                  ],
                  "internalType": "struct DataTypes.PricedToken[]",
                  "name": "pricedTokens",
                  "type": "tuple[]"
                }
              ],
              "internalType": "struct DataTypes.VaultMetadata[]",
              "name": "vaultMetadata",
              "type": "tuple[]"
            },
            {
              "internalType": "bool",
              "name": "allVaultsWithinEpsilon",
              "type": "bool"
            },
            {
              "internalType": "bool",
              "name": "allStablecoinsAllVaultsOnPeg",
              "type": "bool"
            },
            {
              "internalType": "bool",
              "name": "allVaultsUsingLargeEnoughPrices",
              "type": "bool"
            },
            {
              "internalType": "bool",
              "name": "mint",
              "type": "bool"
            }
          ],
          "internalType": "struct DataTypes.Metadata",
          "name": "metaData",
          "type": "tuple"
        }
      ],
      "name": "updateMetadataWithPriceSafety",
      "outputs": [
        {
          "components": [
            {
              "components": [
                {
                  "internalType": "address",
                  "name": "vault",
                  "type": "address"
                },
                {
                  "internalType": "uint256",
                  "name": "idealWeight",
                  "type": "uint256"
                },
                {
                  "internalType": "uint256",
                  "name": "currentWeight",
                  "type": "uint256"
                },
                {
                  "internalType": "uint256",
                  "name": "resultingWeight",
                  "type": "uint256"
                },
                {
                  "internalType": "uint256",
                  "name": "price",
                  "type": "uint256"
                },
                {
                  "internalType": "bool",
                  "name": "allStablecoinsOnPeg",
                  "type": "bool"
                },
                {
                  "internalType": "bool",
                  "name": "atLeastOnePriceLargeEnough",
                  "type": "bool"
                },
                {
                  "internalType": "bool",
                  "name": "vaultWithinEpsilon",
                  "type": "bool"
                },
                {
                  "components": [
                    {
                      "internalType": "address",
                      "name": "tokenAddress",
                      "type": "address"
                    },
                    {
                      "internalType": "bool",
                      "name": "isStable",
                      "type": "bool"
                    },
                    {
                      "internalType": "uint256",
                      "name": "price",
                      "type": "uint256"
                    }
                  ],
                  "internalType": "struct DataTypes.PricedToken[]",
                  "name": "pricedTokens",
                  "type": "tuple[]"
                }
              ],
              "internalType": "struct DataTypes.VaultMetadata[]",
              "name": "vaultMetadata",
              "type": "tuple[]"
            },
            {
              "internalType": "bool",
              "name": "allVaultsWithinEpsilon",
              "type": "bool"
            },
            {
              "internalType": "bool",
              "name": "allStablecoinsAllVaultsOnPeg",
              "type": "bool"
            },
            {
              "internalType": "bool",
              "name": "allVaultsUsingLargeEnoughPrices",
              "type": "bool"
            },
            {
              "internalType": "bool",
              "name": "mint",
              "type": "bool"
            }
          ],
          "internalType": "struct DataTypes.Metadata",
          "name": "",
          "type": "tuple"
        }
      ],
      "stateMutability": "view",
      "type": "function"
    },
    {
      "inputs": [
        {
          "components": [
            {
              "internalType": "address",
              "name": "vault",
              "type": "address"
            },
            {
              "internalType": "uint256",
              "name": "idealWeight",
              "type": "uint256"
            },
            {
              "internalType": "uint256",
              "name": "currentWeight",
              "type": "uint256"
            },
            {
              "internalType": "uint256",
              "name": "resultingWeight",
              "type": "uint256"
            },
            {
              "internalType": "uint256",
              "name": "price",
              "type": "uint256"
            },
            {
              "internalType": "bool",
              "name": "allStablecoinsOnPeg",
              "type": "bool"
            },
            {
              "internalType": "bool",
              "name": "atLeastOnePriceLargeEnough",
              "type": "bool"
            },
            {
              "internalType": "bool",
              "name": "vaultWithinEpsilon",
              "type": "bool"
            },
            {
              "components": [
                {
                  "internalType": "address",
                  "name": "tokenAddress",
                  "type": "address"
                },
                {
                  "internalType": "bool",
                  "name": "isStable",
                  "type": "bool"
                },
                {
                  "internalType": "uint256",
                  "name": "price",
                  "type": "uint256"
                }
              ],
              "internalType": "struct DataTypes.PricedToken[]",
              "name": "pricedTokens",
              "type": "tuple[]"
            }
          ],
          "internalType": "struct DataTypes.VaultMetadata",
          "name": "vaultData",
          "type": "tuple"
        }
      ],
      "name": "updateVaultWithPriceSafety",
      "outputs": [
        {
          "components": [
            {
              "internalType": "address",
              "name": "vault",
              "type": "address"
            },
            {
              "internalType": "uint256",
              "name": "idealWeight",
              "type": "uint256"
            },
            {
              "internalType": "uint256",
              "name": "currentWeight",
              "type": "uint256"
            },
            {
              "internalType": "uint256",
              "name": "resultingWeight",
              "type": "uint256"
            },
            {
              "internalType": "uint256",
              "name": "price",
              "type": "uint256"
            },
            {
              "internalType": "bool",
              "name": "allStablecoinsOnPeg",
              "type": "bool"
            },
            {
              "internalType": "bool",
              "name": "atLeastOnePriceLargeEnough",
              "type": "bool"
            },
            {
              "internalType": "bool",
              "name": "vaultWithinEpsilon",
              "type": "bool"
            },
            {
              "components": [
                {
                  "internalType": "address",
                  "name": "tokenAddress",
                  "type": "address"
                },
                {
                  "internalType": "bool",
                  "name": "isStable",
                  "type": "bool"
                },
                {
                  "internalType": "uint256",
                  "name": "price",
                  "type": "uint256"
                }
              ],
              "internalType": "struct DataTypes.PricedToken[]",
              "name": "pricedTokens",
              "type": "tuple[]"
            }
          ],
          "internalType": "struct DataTypes.VaultMetadata",
          "name": "",
          "type": "tuple"
        }
      ],
      "stateMutability": "view",
      "type": "function"
    },
    {
      "inputs": [
        {
          "components": [
            {
              "components": [
                {
                  "internalType": "address",
                  "name": "vault",
                  "type": "address"
                },
                {
                  "internalType": "uint256",
                  "name": "idealWeight",
                  "type": "uint256"
                },
                {
                  "internalType": "uint256",
                  "name": "currentWeight",
                  "type": "uint256"
                },
                {
                  "internalType": "uint256",
                  "name": "resultingWeight",
                  "type": "uint256"
                },
                {
                  "internalType": "uint256",
                  "name": "price",
                  "type": "uint256"
                },
                {
                  "internalType": "bool",
                  "name": "allStablecoinsOnPeg",
                  "type": "bool"
                },
                {
                  "internalType": "bool",
                  "name": "atLeastOnePriceLargeEnough",
                  "type": "bool"
                },
                {
                  "internalType": "bool",
                  "name": "vaultWithinEpsilon",
                  "type": "bool"
                },
                {
                  "components": [
                    {
                      "internalType": "address",
                      "name": "tokenAddress",
                      "type": "address"
                    },
                    {
                      "internalType": "bool",
                      "name": "isStable",
                      "type": "bool"
                    },
                    {
                      "internalType": "uint256",
                      "name": "price",
                      "type": "uint256"
                    }
                  ],
                  "internalType": "struct DataTypes.PricedToken[]",
                  "name": "pricedTokens",
                  "type": "tuple[]"
                }
              ],
              "internalType": "struct DataTypes.VaultMetadata[]",
              "name": "vaultMetadata",
              "type": "tuple[]"
            },
            {
              "internalType": "bool",
              "name": "allVaultsWithinEpsilon",
              "type": "bool"
            },
            {
              "internalType": "bool",
              "name": "allStablecoinsAllVaultsOnPeg",
              "type": "bool"
            },
            {
              "internalType": "bool",
              "name": "allVaultsUsingLargeEnoughPrices",
              "type": "bool"
            },
            {
              "internalType": "bool",
              "name": "mint",
              "type": "bool"
            }
          ],
          "internalType": "struct DataTypes.Metadata",
          "name": "metaData",
          "type": "tuple"
        }
      ],
      "name": "vaultWeightWithOffPegFalls",
      "outputs": [
        {
          "internalType": "bool",
          "name": "",
          "type": "bool"
        }
      ],
      "stateMutability": "pure",
      "type": "function"
    }
  ],
  "bytecode": {
    "object": "0x608060405234801561001057600080fd5b50604051611fb2380380611fb283398101604081905261002f916100a8565b600080546001600160a01b0319166001600160a01b0386169081178255604080519283526020830191909152859185918591859185917fde4b3f61490b74c0ed6237523974fe299126bbbf8a8a7482fd220104c59b0c84910160405180910390a150600292909255600355600455506100f39350505050565b600080600080608085870312156100be57600080fd5b84516001600160a01b03811681146100d557600080fd5b60208601516040870151606090970151919890975090945092505050565b611eb0806101026000396000f3fe608060405234801561001057600080fd5b50600436106101425760003560e01c8063c203c831116100b8578063d993f6a21161007c578063d993f6a2146102ae578063d9a9abfa146102cf578063dbc1d617146102e2578063e2cc8679146102f5578063e3056a3414610308578063e4c0aaf41461031b57600080fd5b8063c203c8311461024c578063cd56525a14610255578063ce5537c214610275578063d026154414610288578063d625436c1461029b57600080fd5b80636382b2961161010a5780636382b296146101c15780636608ddc7146101e1578063888ad11214610204578063a076382014610213578063bcbef65014610226578063bd162bdd1461023957600080fd5b80630c340a24146101475780630d1757521461017757806314df3dd814610197578063238efcbc146101ae5780635dabb20e146101b8575b600080fd5b60005461015a906001600160a01b031681565b6040516001600160a01b0390911681526020015b60405180910390f35b61018a6101853660046115dc565b61032e565b60405161016e9190611703565b6101a060035481565b60405190815260200161016e565b6101b6610343565b005b6101a060045481565b6101d46101cf36600461178c565b6103fc565b60405161016e9190611977565b6101f46101ef3660046119c5565b6104c0565b604051901515815260200161016e565b6101a0670de0b6b3a764000081565b6101b661022136600461178c565b6104d1565b6101b6610234366004611ae3565b610507565b6101b6610247366004611ae3565b610552565b6101a060025481565b6102686102633660046119c5565b61059d565b60405161016e9190611afc565b61026861028336600461178c565b6105ae565b6101b6610296366004611ae3565b6105bf565b6101b66102a936600461178c565b61060a565b6102c16102bc366004611c04565b610615565b60405161016e929190611c67565b6102686102dd3660046119c5565b61062f565b6101f46102f03660046119c5565b610640565b6101d461030336600461178c565b61064b565b60015461015a906001600160a01b031681565b6101b6610329366004611caf565b61070e565b6103366112d2565b61033f826107e3565b5090565b600154604080518082019091526002815261033360f41b6020820152906001600160a01b031633146103915760405162461bcd60e51b81526004016103889190611977565b60405180910390fd5b5060008054600180546001600160a01b03198084166001600160a01b03808416919091179095551690556040805192909116808352336020840152917fde4b3f61490b74c0ed6237523974fe299126bbbf8a8a7482fd220104c59b0c8491015b60405180910390a150565b6060610407826108af565b6104295750506040805180820190915260028152611a9b60f11b602082015290565b60006104348361092d565b905061043f81610db6565b61044881610e31565b8060600151610471575050604080518082019091526002815261353560f01b6020820152919050565b806020015180610485575061048581610ef4565b156104a0575050604080516020810190915260008152919050565b5050604080518082019091526002815261353360f01b6020820152919050565b60006104cb82610f9b565b92915050565b60006104dc826103fc565b9050805160001481906105025760405162461bcd60e51b81526004016103889190611977565b505050565b600054604080518082019091526002815261033360f41b6020820152906001600160a01b0316331461054c5760405162461bcd60e51b81526004016103889190611977565b50600455565b600054604080518082019091526002815261033360f41b6020820152906001600160a01b031633146105975760405162461bcd60e51b81526004016103889190611977565b50600255565b6105a561132d565b61033f82610db6565b6105b661132d565b6104cb8261092d565b600054604080518082019091526002815261033360f41b6020820152906001600160a01b031633146106045760405162461bcd60e51b81526004016103889190611977565b50600355565b60006104dc8261064b565b606060006106238484611007565b915091505b9250929050565b61063761132d565b61033f82610e31565b60006104cb82610ef4565b606060006106588361092d565b905061066381610db6565b61066c81610e31565b8060600151610695575050604080518082019091526002815261353560f01b6020820152919050565b60008160400151806106ab57506106ab82610f9b565b905060008260200151806106c357506106c383610ef4565b90508180156106cf5750805b156106ec5750506040805160208101909152600081529392505050565b50506040805180820190915260028152611a9960f11b60208201529392505050565b600054604080518082019091526002815261033360f41b6020820152906001600160a01b031633146107535760405162461bcd60e51b81526004016103889190611977565b50604080518082019091526002815261333160f01b60208201526001600160a01b0382166107945760405162461bcd60e51b81526004016103889190611977565b50600180546001600160a01b0319166001600160a01b0383169081179091556040519081527f67235ba2e63c748a35b95c4f92a3bbc2a1389938170a5ce6c9add5d0b03a314a906020016103f1565b600160a0820152600060c082018190525b816101000151518110156108ab576000826101000151828151811061081b5761081b611cca565b60200260200101516040015190506000836101000151838151811061084257610842611cca565b6020026020010151602001519050801561088557600160c085015260035461087283670de0b6b3a764000061115a565b111561088057600060a08501525b610896565b600454821061089657600160c08501525b505080806108a390611cf6565b9150506107f4565b5050565b6000805b8251518110156109245782518051829081106108d1576108d1611cca565b602002602001015160200151836000015182815181106108f3576108f3611cca565b60200260200101516000015160a0015110156109125750600092915050565b8061091c81611cf6565b9150506108b3565b50600192915050565b61093561132d565b81516020830151151560808301528251516001600160401b0381111561095d5761095d61135b565b60405190808252806020026020018201604052801561099657816020015b6109836112d2565b81526020019060019003908161097b5790505b50825280516000906001600160401b038111156109b5576109b561135b565b6040519080825280602002602001820160405280156109de578160200160208202803683370190505b509050600082516001600160401b038111156109fc576109fc61135b565b604051908082528060200260200182016040528015610a25578160200160208202803683370190505b50905060005b8351811015610d3e57856020015115610aab57838181518110610a5057610a50611cca565b602002602001015160200151848281518110610a6e57610a6e611cca565b60200260200101516000015160a00151610a889190611d0f565b838281518110610a9a57610a9a611cca565b602002602001018181525050610b14565b838181518110610abd57610abd611cca565b602002602001015160200151848281518110610adb57610adb611cca565b60200260200101516000015160a00151610af59190611d22565b838281518110610b0757610b07611cca565b6020026020010181815250505b610b61848281518110610b2957610b29611cca565b60200260200101516000015160200151848381518110610b4b57610b4b611cca565b602002602001015161118490919063ffffffff16565b838281518110610b7357610b73611cca565b602002602001018181525050838181518110610b9157610b91611cca565b602090810291909101015151518551805183908110610bb257610bb2611cca565b60209081029190910101516001600160a01b0390911690528351849082908110610bde57610bde611cca565b60200260200101516000015160e0015185600001518281518110610c0457610c04611cca565b60200260200101516020018181525050838181518110610c2657610c26611cca565b60200260200101516000015160c0015185600001518281518110610c4c57610c4c611cca565b60200260200101516040018181525050838181518110610c6e57610c6e611cca565b6020026020010151600001516060015185600001518281518110610c9457610c94611cca565b60200260200101516080018181525050838181518110610cb657610cb6611cca565b602002602001015160000151610100015185600001518281518110610cdd57610cdd611cca565b60200260200101516101000181905250838181518110610cff57610cff611cca565b60200260200101516000015160600151828281518110610d2157610d21611cca565b602090810291909101015280610d3681611cf6565b915050610a2b565b506000610d4b8383611007565b50905060005b865151811015610dac57818181518110610d6d57610d6d611cca565b602002602001015186600001518281518110610d8b57610d8b611cca565b60209081029190910101516060015280610da481611cf6565b915050610d51565b5050505050919050565b600160408201819052606082015260005b8151518110156108ab57600082600001518281518110610de957610de9611cca565b60200260200101519050610dfc816107e3565b8060a00151610e0d57600060408401525b8060c00151610e1e57600060608401525b5080610e2981611cf6565b915050610dc7565b6001602082015260005b8151518110156108ab57600082600001518281518110610e5d57610e5d611cca565b602002602001015190506000610e8260025483602001516111ec90919063ffffffff16565b9050600081610ea28460600151856020015161115a90919063ffffffff16565b111590508085600001518581518110610ebd57610ebd611cca565b602090810291909101015190151560e09091015280610ede57600060208601525b5050508080610eec90611cf6565b915050610e3b565b6000805b82515181101561092457600083600001518281518110610f1a57610f1a611cca565b602002602001015190508060e0015115610f345750610f89565b6000610f518260200151836060015161115a90919063ffffffff16565b90506000610f708360200151846040015161115a90919063ffffffff16565b9050808210610f855750600095945050505050565b5050505b80610f9381611cf6565b915050610ef8565b6000805b82515181101561092457600083600001518281518110610fc157610fc1611cca565b602002602001015190508060a00151158015610fe557508060400151816060015110155b15610ff4575060009392505050565b5080610fff81611cf6565b915050610f9f565b606060008083516001600160401b038111156110255761102561135b565b60405190808252806020026020018201604052801561104e578160200160208202803683370190505b5090506000805b86518110156110c75760006110a587838151811061107557611075611cca565b602002602001015189848151811061108f5761108f611cca565b602002602001015161123e90919063ffffffff16565b90506110b18184611d0f565b92505080806110bf90611cf6565b915050611055565b50806000036110da579092509050610628565b60005b865181101561114e5761111f826111198884815181106110ff576110ff611cca565b60200260200101518a858151811061108f5761108f611cca565b90611267565b83828151811061113157611131611cca565b60209081029190910101528061114681611cf6565b9150506110dd565b50909590945092505050565b6000818310156111735761116e8383611d22565b61117d565b61117d8284611d22565b9392505050565b600060111960ff8316016111995750816104cb565b601260ff831611156111cc576111b0601283611d35565b6111bb90600a611e32565b6111c59084611e41565b90506104cb565b6111d7826012611d35565b6111e290600a611e32565b6111c59084611e63565b6000806111f98385611e63565b90508060000361120d5760009150506104cb565b670de0b6b3a7640000611221600183611d22565b61122b9190611e41565b611236906001611d0f565b9150506104cb565b60008061124b8385611e63565b905061125f670de0b6b3a764000082611e41565b949350505050565b604080518082019091526002815261323560f01b6020820152600090826112a15760405162461bcd60e51b81526004016103889190611977565b50826000036112b2575060006104cb565b60006112c6670de0b6b3a764000085611e63565b90506112368382611e41565b60405180610120016040528060006001600160a01b0316815260200160008152602001600081526020016000815260200160008152602001600015158152602001600015158152602001600015158152602001606081525090565b6040805160a08101825260608082526000602083018190529282018390528101829052608081019190915290565b634e487b7160e01b600052604160045260246000fd5b604051606081016001600160401b03811182821017156113935761139361135b565b60405290565b60405161012081016001600160401b03811182821017156113935761139361135b565b604080519081016001600160401b03811182821017156113935761139361135b565b60405160a081016001600160401b03811182821017156113935761139361135b565b604051601f8201601f191681016001600160401b03811182821017156114285761142861135b565b604052919050565b80356001600160a01b038116811461144757600080fd5b919050565b8035801515811461144757600080fd5b60006001600160401b038211156114755761147561135b565b5060051b60200190565b600082601f83011261149057600080fd5b813560206114a56114a08361145c565b611400565b828152606092830285018201928282019190878511156114c457600080fd5b8387015b858110156115195781818a0312156114e05760008081fd5b6114e8611371565b6114f182611430565b81526114fe86830161144c565b818701526040828101359082015284529284019281016114c8565b5090979650505050505050565b6000610120828403121561153957600080fd5b611541611399565b905061154c82611430565b81526020820135602082015260408201356040820152606082013560608201526080820135608082015261158260a0830161144c565b60a082015261159360c0830161144c565b60c08201526115a460e0830161144c565b60e0820152610100808301356001600160401b038111156115c457600080fd5b6115d08582860161147f565b82840152505092915050565b6000602082840312156115ee57600080fd5b81356001600160401b0381111561160457600080fd5b61125f84828501611526565b600081518084526020808501945080840160005b8381101561166157815180516001600160a01b03168852838101511515848901526040908101519088015260609096019590820190600101611624565b509495945050505050565b600061012060018060a01b0383511684526020830151602085015260408301516040850152606083015160608501526080830151608085015260a08301516116b860a086018215159052565b5060c08301516116cc60c086018215159052565b5060e08301516116e060e086018215159052565b506101008084015182828701526116f983870182611610565b9695505050505050565b60208152600061117d602083018461166c565b803560ff8116811461144757600080fd5b60006080828403121561173957600080fd5b604051608081018181106001600160401b038211171561175b5761175b61135b565b8060405250809150823581526020830135602082015260408301356040820152606083013560608201525092915050565b60006020828403121561179e57600080fd5b6001600160401b0380833511156117b457600080fd5b604083358401850312156117c757600080fd5b6117cf6113bc565b81843585013511156117e057600080fd5b83358401803501601f810186136117f657600080fd5b6118036114a0823561145c565b81358082526020808301929160051b84010188101561182157600080fd5b602083015b6020843560051b85010181101561195557858135111561184557600080fd5b80358401601f196040828c038201121561185e57600080fd5b6118666113bc565b886020840135111561187757600080fd5b6020830135830161018083828f0301121561189157600080fd5b611899611399565b92506118a760208201611430565b83526118b560408201611716565b60208401526118c660608201611430565b6040840152608081013560608401526118e28d60a08301611727565b608084015261012081013560a084015261014081013560c084015261016081013560e084015289610180820135111561191a57600080fd5b61192e8d602061018084013584010161147f565b61010084015250908152604091909101356020808301919091529084529283019201611826565b5083525061196a90508435850160200161144c565b6020820152949350505050565b600060208083528351808285015260005b818110156119a457858101830151858201604001528201611988565b506000604082860101526040601f19601f8301168501019250505092915050565b600060208083850312156119d857600080fd5b82356001600160401b03808211156119ef57600080fd5b9084019060a08287031215611a0357600080fd5b611a0b6113de565b823582811115611a1a57600080fd5b8301601f81018813611a2b57600080fd5b8035611a396114a08261145c565b81815260059190911b8201860190868101908a831115611a5857600080fd5b8784015b83811015611a9057803587811115611a745760008081fd5b611a828d8b83890101611526565b845250918801918801611a5c565b50845250611aa291505083850161144c565b84820152611ab26040840161144c565b6040820152611ac36060840161144c565b6060820152611ad46080840161144c565b60808201529695505050505050565b600060208284031215611af557600080fd5b5035919050565b6000602080835260c08301845160a08386015281815180845260e08701915060e08160051b8801019350848301925060005b81811015611b5c5760df19888603018352611b4a85855161166c565b94509285019291850191600101611b2e565b505050509084015115156040848101919091528401511515606080850191909152840151151560808085019190915290930151151560a0909201919091525090565b600082601f830112611baf57600080fd5b81356020611bbf6114a08361145c565b82815260059290921b84018101918181019086841115611bde57600080fd5b8286015b84811015611bf95780358352918301918301611be2565b509695505050505050565b60008060408385031215611c1757600080fd5b82356001600160401b0380821115611c2e57600080fd5b611c3a86838701611b9e565b93506020850135915080821115611c5057600080fd5b50611c5d85828601611b9e565b9150509250929050565b604080825283519082018190526000906020906060840190828701845b82811015611ca057815184529284019290840190600101611c84565b50505092019290925292915050565b600060208284031215611cc157600080fd5b61117d82611430565b634e487b7160e01b600052603260045260246000fd5b634e487b7160e01b600052601160045260246000fd5b600060018201611d0857611d08611ce0565b5060010190565b808201808211156104cb576104cb611ce0565b818103818111156104cb576104cb611ce0565b60ff82811682821603908111156104cb576104cb611ce0565b600181815b80851115611d89578160001904821115611d6f57611d6f611ce0565b80851615611d7c57918102915b93841c9390800290611d53565b509250929050565b600082611da0575060016104cb565b81611dad575060006104cb565b8160018114611dc35760028114611dcd57611de9565b60019150506104cb565b60ff841115611dde57611dde611ce0565b50506001821b6104cb565b5060208310610133831016604e8410600b8410161715611e0c575081810a6104cb565b611e168383611d4e565b8060001904821115611e2a57611e2a611ce0565b029392505050565b600061117d60ff841683611d91565b600082611e5e57634e487b7160e01b600052601260045260246000fd5b500490565b80820281158282048414176104cb576104cb611ce056fea2646970667358221220fb5ace333df7b3e1a3879fa0d61e8a055a80031ef15dc1d7a484f795df39072064736f6c63430008110033",
    "linkReferences": {}
  },
  "methodIdentifiers": {
    "STABLECOIN_IDEAL_PRICE()": "888ad112",
    "acceptGovernance()": "238efcbc",
    "buildMetaData((((address,uint8,address,uint256,(uint256,uint256,uint256,uint256),uint256,uint256,uint256,(address,bool,uint256)[]),uint256)[],bool))": "ce5537c2",
    "calculateWeightsAndTotal(uint256[],uint256[])": "d993f6a2",
    "changeGovernor(address)": "e4c0aaf4",
    "checkAndPersistMint((((address,uint8,address,uint256,(uint256,uint256,uint256,uint256),uint256,uint256,uint256,(address,bool,uint256)[]),uint256)[],bool))": "d625436c",
    "checkAndPersistRedeem((((address,uint8,address,uint256,(uint256,uint256,uint256,uint256),uint256,uint256,uint256,(address,bool,uint256)[]),uint256)[],bool))": "a0763820",
    "governor()": "0c340a24",
    "isMintSafe((((address,uint8,address,uint256,(uint256,uint256,uint256,uint256),uint256,uint256,uint256,(address,bool,uint256)[]),uint256)[],bool))": "e2cc8679",
    "isRedeemSafe((((address,uint8,address,uint256,(uint256,uint256,uint256,uint256),uint256,uint256,uint256,(address,bool,uint256)[]),uint256)[],bool))": "6382b296",
    "maxAllowedVaultDeviation()": "c203c831",
    "minTokenPrice()": "5dabb20e",
    "pendingGovernor()": "e3056a34",
    "safeToExecuteOutsideEpsilon(((address,uint256,uint256,uint256,uint256,bool,bool,bool,(address,bool,uint256)[])[],bool,bool,bool,bool))": "dbc1d617",
    "setMinTokenPrice(uint256)": "bcbef650",
    "setStablecoinMaxDeviation(uint256)": "d0261544",
    "setVaultMaxDeviation(uint256)": "bd162bdd",
    "stablecoinMaxDeviation()": "14df3dd8",
    "updateMetaDataWithEpsilonStatus(((address,uint256,uint256,uint256,uint256,bool,bool,bool,(address,bool,uint256)[])[],bool,bool,bool,bool))": "d9a9abfa",
    "updateMetadataWithPriceSafety(((address,uint256,uint256,uint256,uint256,bool,bool,bool,(address,bool,uint256)[])[],bool,bool,bool,bool))": "cd56525a",
    "updateVaultWithPriceSafety((address,uint256,uint256,uint256,uint256,bool,bool,bool,(address,bool,uint256)[]))": "0d175752",
    "vaultWeightWithOffPegFalls(((address,uint256,uint256,uint256,uint256,bool,bool,bool,(address,bool,uint256)[])[],bool,bool,bool,bool))": "6608ddc7"
  },
  "id": 47
}