{
  "abi": [
    {
      "anonymous": false,
      "inputs": [
        {
          "indexed": false,
          "internalType": "address",
          "name": "newGovernor",
          "type": "address"
        }
      ],
      "name": "GovernorChangeRequested",
      "type": "event"
    },
    {
      "anonymous": false,
      "inputs": [
        {
          "indexed": false,
          "internalType": "address",
          "name": "oldGovernor",
          "type": "address"
        },
        {
          "indexed": false,
          "internalType": "address",
          "name": "newGovernor",
          "type": "address"
        }
      ],
      "name": "GovernorChanged",
      "type": "event"
    },
    {
      "anonymous": false,
      "inputs": [
        {
          "indexed": false,
          "internalType": "uint8",
          "name": "version",
          "type": "uint8"
        }
      ],
      "name": "Initialized",
      "type": "event"
    },
    {
      "inputs": [],
      "name": "acceptGovernance",
      "outputs": [],
      "stateMutability": "nonpayable",
      "type": "function"
    },
    {
      "inputs": [
        {
          "internalType": "address",
          "name": "newGovernor",
          "type": "address"
        }
      ],
      "name": "changeGovernor",
      "outputs": [],
      "stateMutability": "nonpayable",
      "type": "function"
    },
    {
      "inputs": [],
      "name": "governor",
      "outputs": [
        {
          "internalType": "address",
          "name": "",
          "type": "address"
        }
      ],
      "stateMutability": "view",
      "type": "function"
    },
    {
      "inputs": [
        {
          "internalType": "address",
          "name": "_governor",
          "type": "address"
        }
      ],
      "name": "initialize",
      "outputs": [],
      "stateMutability": "nonpayable",
      "type": "function"
    },
    {
      "inputs": [],
      "name": "pendingGovernor",
      "outputs": [
        {
          "internalType": "address",
          "name": "",
          "type": "address"
        }
      ],
      "stateMutability": "view",
      "type": "function"
    }
  ],
  "bytecode": {
    "object": "0x608060405234801561001057600080fd5b5061048e806100206000396000f3fe608060405234801561001057600080fd5b50600436106100575760003560e01c80630c340a241461005c578063238efcbc1461008b578063c4d66de814610095578063e3056a34146100a8578063e4c0aaf4146100bb575b600080fd5b60005461006f906001600160a01b031681565b6040516001600160a01b03909116815260200160405180910390f35b6100936100ce565b005b6100936100a33660046103da565b610187565b60015461006f906001600160a01b031681565b6100936100c93660046103da565b6102b1565b600154604080518082019091526002815261033360f41b6020820152906001600160a01b0316331461011c5760405162461bcd60e51b8152600401610113919061040a565b60405180910390fd5b5060008054600180546001600160a01b03198084166001600160a01b03808416919091179095551690556040805192909116808352336020840152917fde4b3f61490b74c0ed6237523974fe299126bbbf8a8a7482fd220104c59b0c8491015b60405180910390a150565b600154600160a81b900460ff16158080156101ad575060018054600160a01b900460ff16105b806101cd5750303b1580156101cd575060018054600160a01b900460ff16145b6102305760405162461bcd60e51b815260206004820152602e60248201527f496e697469616c697a61626c653a20636f6e747261637420697320616c72656160448201526d191e481a5b9a5d1a585b1a5e995960921b6064820152608401610113565b6001805460ff60a01b1916600160a01b179055801561025d576001805460ff60a81b1916600160a81b1790555b61026682610386565b80156102ad576001805460ff60a81b191681556040519081527f7f26b83ff96e1f2b6a682f133852f6798a09c465da95921460cefb38474024989060200160405180910390a15b5050565b600054604080518082019091526002815261033360f41b6020820152906001600160a01b031633146102f65760405162461bcd60e51b8152600401610113919061040a565b50604080518082019091526002815261333160f01b60208201526001600160a01b0382166103375760405162461bcd60e51b8152600401610113919061040a565b50600180546001600160a01b0319166001600160a01b0383169081179091556040519081527f67235ba2e63c748a35b95c4f92a3bbc2a1389938170a5ce6c9add5d0b03a314a9060200161017c565b600080546001600160a01b0319166001600160a01b03831690811782556040805192835260208301919091527fde4b3f61490b74c0ed6237523974fe299126bbbf8a8a7482fd220104c59b0c84910161017c565b6000602082840312156103ec57600080fd5b81356001600160a01b038116811461040357600080fd5b9392505050565b600060208083528351808285015260005b818110156104375785810183015185820160400152820161041b565b506000604082860101526040601f19601f830116850101925050509291505056fea2646970667358221220bacbf4dc6486d01de78e087abad8986bec1b34c1bbf0ea3691092dd3faa6659564736f6c63430008110033",
    "linkReferences": {}
  },
  "methodIdentifiers": {
    "acceptGovernance()": "238efcbc",
    "changeGovernor(address)": "e4c0aaf4",
    "governor()": "0c340a24",
    "initialize(address)": "c4d66de8",
    "pendingGovernor()": "e3056a34"
  },
  "id": 12
}