{
  "abi": [
    {
      "anonymous": false,
      "inputs": [
        {
          "indexed": true,
          "internalType": "address",
          "name": "priceOracle",
          "type": "address"
        }
      ],
      "name": "BatchPriceOracleChanged",
      "type": "event"
    },
    {
      "anonymous": false,
      "inputs": [
        {
          "indexed": true,
          "internalType": "enum Vaults.Type",
          "name": "vaultType",
          "type": "uint8"
        },
        {
          "indexed": true,
          "internalType": "address",
          "name": "priceOracle",
          "type": "address"
        }
      ],
      "name": "VaultPriceOracleChanged",
      "type": "event"
    },
    {
      "inputs": [
        {
          "components": [
            {
              "internalType": "address",
              "name": "vault",
              "type": "address"
            },
            {
              "internalType": "uint8",
              "name": "decimals",
              "type": "uint8"
            },
            {
              "internalType": "address",
              "name": "underlying",
              "type": "address"
            },
            {
              "internalType": "uint256",
              "name": "price",
              "type": "uint256"
            },
            {
              "components": [
                {
                  "internalType": "uint256",
                  "name": "initialPrice",
                  "type": "uint256"
                },
                {
                  "internalType": "uint256",
                  "name": "initialWeight",
                  "type": "uint256"
                },
                {
                  "internalType": "uint256",
                  "name": "shortFlowMemory",
                  "type": "uint256"
                },
                {
                  "internalType": "uint256",
                  "name": "shortFlowThreshold",
                  "type": "uint256"
                }
              ],
              "internalType": "struct DataTypes.PersistedVaultMetadata",
              "name": "persistedMetadata",
              "type": "tuple"
            },
            {
              "internalType": "uint256",
              "name": "reserveBalance",
              "type": "uint256"
            },
            {
              "internalType": "uint256",
              "name": "currentWeight",
              "type": "uint256"
            },
            {
              "internalType": "uint256",
              "name": "idealWeight",
              "type": "uint256"
            },
            {
              "components": [
                {
                  "internalType": "address",
                  "name": "tokenAddress",
                  "type": "address"
                },
                {
                  "internalType": "bool",
                  "name": "isStable",
                  "type": "bool"
                },
                {
                  "internalType": "uint256",
                  "name": "price",
                  "type": "uint256"
                }
              ],
              "internalType": "struct DataTypes.PricedToken[]",
              "name": "pricedTokens",
              "type": "tuple[]"
            }
          ],
          "internalType": "struct DataTypes.VaultInfo[]",
          "name": "vaultsInfo",
          "type": "tuple[]"
        }
      ],
      "name": "fetchPricesUSD",
      "outputs": [
        {
          "components": [
            {
              "internalType": "address",
              "name": "vault",
              "type": "address"
            },
            {
              "internalType": "uint8",
              "name": "decimals",
              "type": "uint8"
            },
            {
              "internalType": "address",
              "name": "underlying",
              "type": "address"
            },
            {
              "internalType": "uint256",
              "name": "price",
              "type": "uint256"
            },
            {
              "components": [
                {
                  "internalType": "uint256",
                  "name": "initialPrice",
                  "type": "uint256"
                },
                {
                  "internalType": "uint256",
                  "name": "initialWeight",
                  "type": "uint256"
                },
                {
                  "internalType": "uint256",
                  "name": "shortFlowMemory",
                  "type": "uint256"
                },
                {
                  "internalType": "uint256",
                  "name": "shortFlowThreshold",
                  "type": "uint256"
                }
              ],
              "internalType": "struct DataTypes.PersistedVaultMetadata",
              "name": "persistedMetadata",
              "type": "tuple"
            },
            {
              "internalType": "uint256",
              "name": "reserveBalance",
              "type": "uint256"
            },
            {
              "internalType": "uint256",
              "name": "currentWeight",
              "type": "uint256"
            },
            {
              "internalType": "uint256",
              "name": "idealWeight",
              "type": "uint256"
            },
            {
              "components": [
                {
                  "internalType": "address",
                  "name": "tokenAddress",
                  "type": "address"
                },
                {
                  "internalType": "bool",
                  "name": "isStable",
                  "type": "bool"
                },
                {
                  "internalType": "uint256",
                  "name": "price",
                  "type": "uint256"
                }
              ],
              "internalType": "struct DataTypes.PricedToken[]",
              "name": "pricedTokens",
              "type": "tuple[]"
            }
          ],
          "internalType": "struct DataTypes.VaultInfo[]",
          "name": "",
          "type": "tuple[]"
        }
      ],
      "stateMutability": "view",
      "type": "function"
    },
    {
      "inputs": [
        {
          "internalType": "address",
          "name": "baseAsset",
          "type": "address"
        }
      ],
      "name": "getPriceUSD",
      "outputs": [
        {
          "internalType": "uint256",
          "name": "",
          "type": "uint256"
        }
      ],
      "stateMutability": "view",
      "type": "function"
    },
    {
      "inputs": [
        {
          "internalType": "address[]",
          "name": "baseAssets",
          "type": "address[]"
        }
      ],
      "name": "getPricesUSD",
      "outputs": [
        {
          "internalType": "uint256[]",
          "name": "prices",
          "type": "uint256[]"
        }
      ],
      "stateMutability": "view",
      "type": "function"
    },
    {
      "inputs": [
        {
          "internalType": "address",
          "name": "baseAsset",
          "type": "address"
        },
        {
          "internalType": "address",
          "name": "quoteAsset",
          "type": "address"
        }
      ],
      "name": "getRelativePrice",
      "outputs": [
        {
          "internalType": "uint256",
          "name": "",
          "type": "uint256"
        }
      ],
      "stateMutability": "view",
      "type": "function"
    },
    {
      "inputs": [
        {
          "internalType": "address",
          "name": "baseAsset",
          "type": "address"
        },
        {
          "internalType": "address",
          "name": "quoteAsset",
          "type": "address"
        }
      ],
      "name": "isPairSupported",
      "outputs": [
        {
          "internalType": "bool",
          "name": "",
          "type": "bool"
        }
      ],
      "stateMutability": "view",
      "type": "function"
    },
    {
      "inputs": [
        {
          "internalType": "address",
          "name": "baseAsset",
          "type": "address"
        },
        {
          "internalType": "address",
          "name": "quoteAsset",
          "type": "address"
        },
        {
          "internalType": "uint256",
          "name": "price",
          "type": "uint256"
        }
      ],
      "name": "setRelativePrice",
      "outputs": [],
      "stateMutability": "nonpayable",
      "type": "function"
    },
    {
      "inputs": [
        {
          "internalType": "address",
          "name": "baseAsset",
          "type": "address"
        },
        {
          "internalType": "uint256",
          "name": "price",
          "type": "uint256"
        }
      ],
      "name": "setUSDPrice",
      "outputs": [],
      "stateMutability": "nonpayable",
      "type": "function"
    }
  ],
  "bytecode": {
    "object": "0x608060405234801561001057600080fd5b50610c78806100206000396000f3fe608060405234801561001057600080fd5b506004361061007d5760003560e01c80639446994a1161005b5780639446994a146100f85780639b56e6a71461011b578063ccda1ef71461012e578063dbe6c3901461014e57600080fd5b80632af31283146100825780632d350b6b146100ab5780635708447d146100d7575b600080fd5b610095610090366004610613565b610188565b6040516100a291906106b0565b60405180910390f35b6100d56100b93660046106f4565b6001600160a01b03909116600090815260208190526040902055565b005b6100ea6100e536600461071e565b610233565b6040519081526020016100a2565b61010b610106366004610739565b610294565b60405190151581526020016100a2565b6100ea610129366004610739565b6102f6565b61014161013c36600461088d565b6103a2565b6040516100a29190610a46565b6100d561015c366004610b46565b6001600160a01b0392831660009081526001602090815260408083209490951682529290925291902055565b6060815167ffffffffffffffff8111156101a4576101a461053f565b6040519080825280602002602001820160405280156101cd578160200160208202803683370190505b50905060005b825181101561022d576101fe8382815181106101f1576101f1610b82565b6020026020010151610233565b82828151811061021057610210610b82565b60209081029190910101528061022581610bae565b9150506101d3565b50919050565b6001600160a01b0381166000908152602081815260408083205481518083019092526002825261034360f41b928201929092528161028d5760405162461bcd60e51b81526004016102849190610bc7565b60405180910390fd5b5092915050565b6001600160a01b0380831660009081526001602090815260408083209385168352929052908120541515806102ed57506001600160a01b0380831660009081526001602090815260408083209387168352929052205415155b90505b92915050565b6001600160a01b038083166000908152600160209081526040808320938516835292905290812054801561032b5790506102f0565b506001600160a01b0380831660009081526001602090815260408083209387168352929052205480156103725761036a670de0b6b3a7640000826104c0565b9150506102f0565b6040805180820182526002815261034360f41b6020820152905162461bcd60e51b81526102849190600401610bc7565b606060005b82518110156104b9576103d68382815181106103c5576103c5610b82565b602002602001015160000151610233565b8382815181106103e8576103e8610b82565b6020026020010151606001818152505060005b83828151811061040d5761040d610b82565b60200260200101516101000151518110156104a65761045584838151811061043757610437610b82565b6020026020010151610100015182815181106103c5576103c5610b82565b84838151811061046757610467610b82565b60200260200101516101000151828151811061048557610485610b82565b6020908102919091010151604001528061049e81610bae565b9150506103fb565b50806104b181610bae565b9150506103a7565b5090919050565b604080518082019091526002815261323560f01b6020820152600090826104fa5760405162461bcd60e51b81526004016102849190610bc7565b508260000361050b575060006102f0565b600061051f670de0b6b3a764000085610c15565b905082600182038161053357610533610c2c565b046001019150506102f0565b634e487b7160e01b600052604160045260246000fd5b6040516060810167ffffffffffffffff811182821017156105785761057861053f565b60405290565b604051610120810167ffffffffffffffff811182821017156105785761057861053f565b604051601f8201601f1916810167ffffffffffffffff811182821017156105cb576105cb61053f565b604052919050565b600067ffffffffffffffff8211156105ed576105ed61053f565b5060051b60200190565b80356001600160a01b038116811461060e57600080fd5b919050565b6000602080838503121561062657600080fd5b823567ffffffffffffffff81111561063d57600080fd5b8301601f8101851361064e57600080fd5b803561066161065c826105d3565b6105a2565b81815260059190911b8201830190838101908783111561068057600080fd5b928401925b828410156106a557610696846105f7565b82529284019290840190610685565b979650505050505050565b6020808252825182820181905260009190848201906040850190845b818110156106e8578351835292840192918401916001016106cc565b50909695505050505050565b6000806040838503121561070757600080fd5b610710836105f7565b946020939093013593505050565b60006020828403121561073057600080fd5b6102ed826105f7565b6000806040838503121561074c57600080fd5b610755836105f7565b9150610763602084016105f7565b90509250929050565b803560ff8116811461060e57600080fd5b60006080828403121561078f57600080fd5b6040516080810181811067ffffffffffffffff821117156107b2576107b261053f565b8060405250809150823581526020830135602082015260408301356040820152606083013560608201525092915050565b600082601f8301126107f457600080fd5b8135602061080461065c836105d3565b8281526060928302850182019282820191908785111561082357600080fd5b8387015b858110156108805781818a03121561083f5760008081fd5b610847610555565b610850826105f7565b81528582013580151581146108655760008081fd5b81870152604082810135908201528452928401928101610827565b5090979650505050505050565b600060208083850312156108a057600080fd5b823567ffffffffffffffff808211156108b857600080fd5b818501915085601f8301126108cc57600080fd5b81356108da61065c826105d3565b81815260059190911b830184019084810190888311156108f957600080fd5b8585015b838110156109dd578035858111156109155760008081fd5b8601610180818c03601f190181131561092e5760008081fd5b61093661057e565b6109418a84016105f7565b8152604061095081850161076c565b8b83015260606109618186016105f7565b828401526080915081850135818401525060a06109808f82870161077d565b8284015261012085013581840152505061014083013560c082015261016083013560e0820152818301359150878211156109ba5760008081fd5b6109c88d8b848601016107e3565b610100820152855250509186019186016108fd565b5098975050505050505050565b600081518084526020808501945080840160005b83811015610a3b57815180516001600160a01b031688528381015115158489015260409081015190880152606090960195908201906001016109fe565b509495945050505050565b60006020808301818452808551808352604092508286019150828160051b87010184880160005b83811015610b3857888303603f19018552815180516001600160a01b031684526101808189015160ff8116868b015250818801516001600160a01b038116868a01525060608281015186820152608080840151805182890152602081015160a0890152604081015160c08901529182015160e088015290505060a0820151610100818188015260c084015161012088015260e0840151610140880152808401519350505080610160860152610b24818601836109ea565b968901969450505090860190600101610a6d565b509098975050505050505050565b600080600060608486031215610b5b57600080fd5b610b64846105f7565b9250610b72602085016105f7565b9150604084013590509250925092565b634e487b7160e01b600052603260045260246000fd5b634e487b7160e01b600052601160045260246000fd5b600060018201610bc057610bc0610b98565b5060010190565b600060208083528351808285015260005b81811015610bf457858101830151858201604001528201610bd8565b506000604082860101526040601f19601f8301168501019250505092915050565b80820281158282048414176102f0576102f0610b98565b634e487b7160e01b600052601260045260246000fdfea2646970667358221220769b5d7b4b7fc10317366d9c45341ea6447459780e1b0c0043f471083f555d1964736f6c63430008110033",
    "linkReferences": {}
  },
  "methodIdentifiers": {
    "fetchPricesUSD((address,uint8,address,uint256,(uint256,uint256,uint256,uint256),uint256,uint256,uint256,(address,bool,uint256)[])[])": "ccda1ef7",
    "getPriceUSD(address)": "5708447d",
    "getPricesUSD(address[])": "2af31283",
    "getRelativePrice(address,address)": "9b56e6a7",
    "isPairSupported(address,address)": "9446994a",
    "setRelativePrice(address,address,uint256)": "dbe6c390",
    "setUSDPrice(address,uint256)": "2d350b6b"
  },
  "id": 37
}