{
  "abi": [
    {
      "inputs": [
        {
          "internalType": "bytes32",
          "name": "",
          "type": "bytes32"
        },
        {
          "internalType": "address",
          "name": "",
          "type": "address"
        },
        {
          "internalType": "address",
          "name": "",
          "type": "address"
        },
        {
          "components": [
            {
              "internalType": "contract IAsset[]",
              "name": "assets",
              "type": "address[]"
            },
            {
              "internalType": "uint256[]",
              "name": "minAmountsOut",
              "type": "uint256[]"
            },
            {
              "internalType": "bytes",
              "name": "userData",
              "type": "bytes"
            },
            {
              "internalType": "bool",
              "name": "toInternalBalance",
              "type": "bool"
            }
          ],
          "internalType": "struct IVault.ExitPoolRequest",
          "name": "request",
          "type": "tuple"
        }
      ],
      "name": "queryExit",
      "outputs": [
        {
          "internalType": "uint256",
          "name": "bptIn",
          "type": "uint256"
        },
        {
          "internalType": "uint256[]",
          "name": "amountsOut",
          "type": "uint256[]"
        }
      ],
      "stateMutability": "pure",
      "type": "function"
    },
    {
      "inputs": [
        {
          "internalType": "bytes32",
          "name": "",
          "type": "bytes32"
        },
        {
          "internalType": "address",
          "name": "",
          "type": "address"
        },
        {
          "internalType": "address",
          "name": "",
          "type": "address"
        },
        {
          "components": [
            {
              "internalType": "contract IAsset[]",
              "name": "assets",
              "type": "address[]"
            },
            {
              "internalType": "uint256[]",
              "name": "maxAmountsIn",
              "type": "uint256[]"
            },
            {
              "internalType": "bytes",
              "name": "userData",
              "type": "bytes"
            },
            {
              "internalType": "bool",
              "name": "fromInternalBalance",
              "type": "bool"
            }
          ],
          "internalType": "struct IVault.JoinPoolRequest",
          "name": "request",
          "type": "tuple"
        }
      ],
      "name": "queryJoin",
      "outputs": [
        {
          "internalType": "uint256",
          "name": "bptOut",
          "type": "uint256"
        },
        {
          "internalType": "uint256[]",
          "name": "amountsIn",
          "type": "uint256[]"
        }
      ],
      "stateMutability": "pure",
      "type": "function"
    }
  ],
  "bytecode": {
    "object": "0x608060405234801561001057600080fd5b50610406806100206000396000f3fe608060405234801561001057600080fd5b50600436106100365760003560e01c80639ebbf05d1461003b578063c7b2c52c1461003b575b600080fd5b610060610049366004610316565b6020015168056bc75e2d6310000094909350915050565b60405161006e929190610382565b60405180910390f35b6001600160a01b038116811461008c57600080fd5b50565b634e487b7160e01b600052604160045260246000fd5b6040516080810167ffffffffffffffff811182821017156100c8576100c861008f565b60405290565b604051601f8201601f1916810167ffffffffffffffff811182821017156100f7576100f761008f565b604052919050565b600067ffffffffffffffff8211156101195761011961008f565b5060051b60200190565b600082601f83011261013457600080fd5b81356020610149610144836100ff565b6100ce565b82815260059290921b8401810191818101908684111561016857600080fd5b8286015b84811015610183578035835291830191830161016c565b509695505050505050565b600082601f83011261019f57600080fd5b813567ffffffffffffffff8111156101b9576101b961008f565b6101cc601f8201601f19166020016100ce565b8181528460208386010111156101e157600080fd5b816020850160208301376000918101602001919091529392505050565b8035801515811461020e57600080fd5b919050565b60006080828403121561022557600080fd5b61022d6100a5565b9050813567ffffffffffffffff8082111561024757600080fd5b818401915084601f83011261025b57600080fd5b8135602061026b610144836100ff565b82815260059290921b8401810191818101908884111561028a57600080fd5b948201945b838610156102b15785356102a281610077565b8252948201949082019061028f565b865250858101359350828411156102c757600080fd5b6102d387858801610123565b908501525060408401359150808211156102ec57600080fd5b506102f98482850161018e565b60408301525061030b606083016101fe565b606082015292915050565b6000806000806080858703121561032c57600080fd5b84359350602085013561033e81610077565b9250604085013561034e81610077565b9150606085013567ffffffffffffffff81111561036a57600080fd5b61037687828801610213565b91505092959194509250565b6000604082018483526020604081850152818551808452606086019150828701935060005b818110156103c3578451835293830193918301916001016103a7565b509097965050505050505056fea2646970667358221220206c6728c7dec5c9f1ed445d7963e296ce919af95b1e5f62b2204d3b886494c464736f6c63430008110033",
    "linkReferences": {}
  },
  "methodIdentifiers": {
    "queryExit(bytes32,address,address,(address[],uint256[],bytes,bool))": "c7b2c52c",
    "queryJoin(bytes32,address,address,(address[],uint256[],bytes,bool))": "9ebbf05d"
  },
  "id": 54
}