{
  "abi": [
    {
      "inputs": [
        {
          "internalType": "address[][]",
          "name": "data",
          "type": "address[][]"
        }
      ],
      "name": "profileDedup",
      "outputs": [
        {
          "internalType": "address[][]",
          "name": "",
          "type": "address[][]"
        }
      ],
      "stateMutability": "nonpayable",
      "type": "function"
    },
    {
      "inputs": [
        {
          "internalType": "address[][]",
          "name": "data",
          "type": "address[][]"
        }
      ],
      "name": "profileQuickSort",
      "outputs": [
        {
          "internalType": "address[][]",
          "name": "",
          "type": "address[][]"
        }
      ],
      "stateMutability": "nonpayable",
      "type": "function"
    }
  ],
  "bytecode": {
    "object": "0x608060405234801561001057600080fd5b5061083b806100206000396000f3fe608060405234801561001057600080fd5b50600436106100365760003560e01c806335e6b7371461003b578063faa1494014610064575b600080fd5b61004e61004936600461051c565b610077565b60405161005b9190610641565b60405180910390f35b61004e61007236600461051c565b6100c1565b606060005b82518110156100ba576100a783828151811061009a5761009a6106d4565b6020026020010151610104565b50806100b281610700565b91505061007c565b5090919050565b606060005b82518110156100ba576100f18382815181106100e4576100e46106d4565b60200260200101516102d6565b50806100fc81610700565b9150506100c6565b6060600060015b835181101561018b57838181518110610126576101266106d4565b60200260200101516001600160a01b0316846001836101459190610719565b81518110610155576101556106d4565b60200260200101516001600160a01b031603610179578161017581610700565b9250505b8061018381610700565b91505061010b565b508060000361019b575090919050565b60008184516101aa9190610719565b67ffffffffffffffff8111156101c2576101c26104b1565b6040519080825280602002602001820160405280156101eb578160200160208202803683370190505b5090506000805b85518210156102cc57600186516102099190610719565b8210801561026457508561021e836001610732565b8151811061022e5761022e6106d4565b60200260200101516001600160a01b0316868381518110610251576102516106d4565b60200260200101516001600160a01b0316145b6102ba5785828151811061027a5761027a6106d4565b6020026020010151838281518110610294576102946106d4565b6001600160a01b0390921660209283029190910190910152806102b681610700565b9150505b816102c481610700565b9250506101f2565b5090949350505050565b606081516000036102e5575090565b6102fe826000600185516102f99190610719565b610302565b5090565b8181808203610312575050505050565b60008560026103218787610745565b61032b919061076c565b61033590876107a8565b81518110610345576103456106d4565b602002602001015190505b818313610483575b806001600160a01b0316868481518110610374576103746106d4565b60200260200101516001600160a01b0316101561039d5782610395816107d0565b935050610358565b8582815181106103af576103af6106d4565b60200260200101516001600160a01b0316816001600160a01b031610156103e257816103da816107e8565b92505061039d565b81831361047e578582815181106103fb576103fb6106d4565b6020026020010151868481518110610415576104156106d4565b602002602001015187858151811061042f5761042f6106d4565b60200260200101888581518110610448576104486106d4565b6001600160a01b039384166020918202929092010152911690528261046c816107d0565b935050818061047a906107e8565b9250505b610350565b8185121561049657610496868684610302565b838312156104a9576104a9868486610302565b505050505050565b634e487b7160e01b600052604160045260246000fd5b604051601f8201601f1916810167ffffffffffffffff811182821017156104f0576104f06104b1565b604052919050565b600067ffffffffffffffff821115610512576105126104b1565b5060051b60200190565b6000602080838503121561052f57600080fd5b823567ffffffffffffffff8082111561054757600080fd5b818501915085601f83011261055b57600080fd5b813561056e610569826104f8565b6104c7565b818152600591821b840185019185820191908984111561058d57600080fd5b8686015b84811015610632578035868111156105a95760008081fd5b8701603f81018c136105bb5760008081fd5b8881013560406105cd610569836104f8565b82815291851b83018101918b8101908f8411156105ea5760008081fd5b938201935b8385101561062157843592506001600160a01b03831683146106115760008081fd5b828252938c0193908c01906105ef565b885250505093880193508701610591565b50909998505050505050505050565b6000602080830181845280855180835260408601915060408160051b87010192508387016000805b838110156106c657888603603f19018552825180518088529088019088880190845b818110156106b05783516001600160a01b03168352928a0192918a019160010161068b565b5090975050509386019391860191600101610669565b509398975050505050505050565b634e487b7160e01b600052603260045260246000fd5b634e487b7160e01b600052601160045260246000fd5b600060018201610712576107126106ea565b5060010190565b8181038181111561072c5761072c6106ea565b92915050565b8082018082111561072c5761072c6106ea565b8181036000831280158383131683831282161715610765576107656106ea565b5092915050565b60008261078957634e487b7160e01b600052601260045260246000fd5b600160ff1b8214600019841416156107a3576107a36106ea565b500590565b80820182811260008312801582168215821617156107c8576107c86106ea565b505092915050565b60006001600160ff1b018201610712576107126106ea565b6000600160ff1b82016107fd576107fd6106ea565b50600019019056fea264697066735822122005bdcdaf6ef3b8e6c7b0e4fa418294e19a7ff166c6b489724ced5d939fc7e02464736f6c63430008110033",
    "linkReferences": {}
  },
  "methodIdentifiers": {
    "profileDedup(address[][])": "35e6b737",
    "profileQuickSort(address[][])": "faa14940"
  },
  "id": 57
}