{"abi":[{"inputs":[{"internalType":"contract IGyroConfig","name":"_gyroConfig","type":"address"}],"stateMutability":"nonpayable","type":"constructor","name":"constructor"},{"anonymous":false,"inputs":[{"indexed":true,"internalType":"string","name":"assetName","type":"string"},{"indexed":true,"internalType":"address","name":"previousAddress","type":"address"},{"indexed":true,"internalType":"address","name":"newAddress","type":"address"}],"name":"AssetAddressUpdated","type":"event"},{"anonymous":false,"inputs":[{"indexed":true,"internalType":"address","name":"assetAddress","type":"address"},{"components":[{"internalType":"uint256","name":"floor","type":"uint256"},{"internalType":"uint256","name":"ceiling","type":"uint256"}],"indexed":false,"internalType":"struct DataTypes.Range","name":"range","type":"tuple"}],"name":"AssetRangeUpdated","type":"event"},{"anonymous":false,"inputs":[{"indexed":false,"internalType":"address","name":"newGovernor","type":"address"}],"name":"GovernorChangeRequested","type":"event"},{"anonymous":false,"inputs":[{"indexed":false,"internalType":"address","name":"oldGovernor","type":"address"},{"indexed":false,"internalType":"address","name":"newGovernor","type":"address"}],"name":"GovernorChanged","type":"event"},{"anonymous":false,"inputs":[{"indexed":false,"internalType":"uint8","name":"version","type":"uint8"}],"name":"Initialized","type":"event"},{"anonymous":false,"inputs":[{"indexed":true,"internalType":"address","name":"asset","type":"address"}],"name":"StableAssetAdded","type":"event"},{"anonymous":false,"inputs":[{"indexed":true,"internalType":"address","name":"asset","type":"address"}],"name":"StableAssetRemoved","type":"event"},{"inputs":[],"name":"STABLECOIN_IDEAL_PRICE","outputs":[{"internalType":"uint256","name":"","type":"uint256"}],"stateMutability":"view","type":"function"},{"inputs":[],"name":"acceptGovernance","outputs":[],"stateMutability":"nonpayable","type":"function"},{"inputs":[{"internalType":"address","name":"asset","type":"address"}],"name":"addStableAsset","outputs":[],"stateMutability":"nonpayable","type":"function"},{"inputs":[{"internalType":"address","name":"newGovernor","type":"address"}],"name":"changeGovernor","outputs":[],"stateMutability":"nonpayable","type":"function"},{"inputs":[{"internalType":"string","name":"assetName","type":"string"}],"name":"getAssetAddress","outputs":[{"internalType":"address","name":"","type":"address"}],"stateMutability":"view","type":"function"},{"inputs":[{"internalType":"address","name":"asset","type":"address"}],"name":"getAssetRange","outputs":[{"components":[{"internalType":"uint256","name":"floor","type":"uint256"},{"internalType":"uint256","name":"ceiling","type":"uint256"}],"internalType":"struct DataTypes.Range","name":"","type":"tuple"}],"stateMutability":"view","type":"function"},{"inputs":[],"name":"getRegisteredAssetAddresses","outputs":[{"internalType":"address[]","name":"","type":"address[]"}],"stateMutability":"view","type":"function"},{"inputs":[],"name":"getRegisteredAssetNames","outputs":[{"internalType":"bytes32[]","name":"","type":"bytes32[]"}],"stateMutability":"view","type":"function"},{"inputs":[],"name":"getStableAssets","outputs":[{"internalType":"address[]","name":"","type":"address[]"}],"stateMutability":"view","type":"function"},{"inputs":[],"name":"governor","outputs":[{"internalType":"address","name":"","type":"address"}],"stateMutability":"view","type":"function"},{"inputs":[],"name":"gyroConfig","outputs":[{"internalType":"contract IGyroConfig","name":"","type":"address"}],"stateMutability":"view","type":"function"},{"inputs":[{"internalType":"address","name":"_governor","type":"address"}],"name":"initialize","outputs":[],"stateMutability":"nonpayable","type":"function"},{"inputs":[{"internalType":"address","name":"assetAddress","type":"address"}],"name":"isAssetAddressRegistered","outputs":[{"internalType":"bool","name":"","type":"bool"}],"stateMutability":"view","type":"function"},{"inputs":[{"internalType":"string","name":"assetName","type":"string"}],"name":"isAssetNameRegistered","outputs":[{"internalType":"bool","name":"","type":"bool"}],"stateMutability":"view","type":"function"},{"inputs":[{"internalType":"address","name":"assetAddress","type":"address"}],"name":"isAssetStable","outputs":[{"internalType":"bool","name":"","type":"bool"}],"stateMutability":"view","type":"function"},{"inputs":[],"name":"pendingGovernor","outputs":[{"internalType":"address","name":"","type":"address"}],"stateMutability":"view","type":"function"},{"inputs":[{"internalType":"string","name":"assetName","type":"string"}],"name":"removeAsset","outputs":[],"stateMutability":"nonpayable","type":"function"},{"inputs":[{"internalType":"address","name":"asset","type":"address"}],"name":"removeStableAsset","outputs":[],"stateMutability":"nonpayable","type":"function"},{"inputs":[{"internalType":"string","name":"assetName","type":"string"},{"internalType":"address","name":"assetAddress","type":"address"}],"name":"setAssetAddress","outputs":[],"stateMutability":"nonpayable","type":"function"},{"inputs":[{"internalType":"address","name":"asset","type":"address"},{"components":[{"internalType":"uint256","name":"floor","type":"uint256"},{"internalType":"uint256","name":"ceiling","type":"uint256"}],"internalType":"struct DataTypes.Range","name":"range","type":"tuple"}],"name":"setAssetRange","outputs":[],"stateMutability":"nonpayable","type":"function"}],"bytecode":"60a060405234801561001057600080fd5b50604051620016e8380380620016e883398101604081905261003191610117565b61003961004a565b6001600160a01b0316608052610147565b600154600160a81b900460ff16156100b85760405162461bcd60e51b815260206004820152602760248201527f496e697469616c697a61626c653a20636f6e747261637420697320696e697469604482015266616c697a696e6760c81b606482015260840160405180910390fd5b60015460ff600160a01b90910481161015610115576001805460ff60a01b191660ff60a01b17905560405160ff81527f7f26b83ff96e1f2b6a682f133852f6798a09c465da95921460cefb38474024989060200160405180910390a15b565b60006020828403121561012957600080fd5b81516001600160a01b038116811461014057600080fd5b9392505050565b60805161157e6200016a600039600081816101ab01526109e0015261157e6000f3fe608060405234801561001057600080fd5b506004361061012c5760003560e01c8063888ad112116100ad578063c6a052b611610071578063c6a052b6146102a2578063e3056a34146102b5578063e4c0aaf4146102c8578063f41092de146102db578063f804c0c8146102ee57600080fd5b8063888ad1121461021e5780638b46c4fd1461023b578063a5c7b3841461024e578063a8dcc56a14610261578063c4d66de81461028f57600080fd5b806344bbdb55116100f457806344bbdb55146101a65780634976c588146101cd5780636df5d2d3146101f05780637307ae55146101f8578063759af9ec1461020b57600080fd5b80630c340a241461013157806310ec087814610161578063238efcbc14610176578063278e7d251461017e57806336daa73114610191575b600080fd5b600054610144906001600160a01b031681565b6040516001600160a01b0390911681526020015b60405180910390f35b61017461016f366004611151565b610303565b005b6101746103da565b61017461018c366004611182565b61048a565b6101996105c6565b60405161015891906111f5565b6101447f000000000000000000000000000000000000000000000000000000000000000081565b6101e06101db366004611151565b6105d7565b6040519015158152602001610158565b6101996105ea565b610144610206366004611242565b6105f6565b610174610219366004611341565b610663565b61022d670de0b6b3a764000081565b604051908152602001610158565b6101e0610249366004611151565b61076a565b61017461025c36600461137e565b610777565b61027461026f366004611151565b61095d565b60408051825181526020928301519281019290925201610158565b61017461029d366004611151565b610a95565b6101746102b0366004611151565b610bbf565b600154610144906001600160a01b031681565b6101746102d6366004611151565b610c8d565b6101e06102e9366004611242565b610d62565b6102f6610da3565b60405161015891906113cc565b600054604080518082019091526002815261033360f41b6020820152906001600160a01b031633146103515760405162461bcd60e51b81526004016103489190611428565b60405180910390fd5b5061035d603882610daf565b60405180604001604052806002815260200161034360f41b815250906103965760405162461bcd60e51b81526004016103489190611428565b506103a2603a82610dd4565b506040516001600160a01b038216907f93266109223f3ffe4999eeedd7026e74a3ba153a9b782165be501bcfbdccd3a990600090a250565b600154604080518082019091526002815261033360f41b6020820152906001600160a01b0316331461041f5760405162461bcd60e51b81526004016103489190611428565b5060008054600180546001600160a01b03198084166001600160a01b03808416919091179095551690556040805192909116808352336020840152917fde4b3f61490b74c0ed6237523974fe299126bbbf8a8a7482fd220104c59b0c8491015b60405180910390a150565b600054604080518082019091526002815261033360f41b6020820152906001600160a01b031633146104cf5760405162461bcd60e51b81526004016103489190611428565b506104db603883610daf565b60405180604001604052806002815260200161034360f41b815250906105145760405162461bcd60e51b81526004016103489190611428565b50806020015181600001511060405180604001604052806002815260200161333160f01b815250906105595760405162461bcd60e51b81526004016103489190611428565b506001600160a01b0382166000818152603560209081526040918290208451808255858301805160019093019290925583519081529051918101919091527fdc7160d178bce7aa692c68a783064dc42a2d74cbc3ebf67be1bdaddaf1ae25b9910160405180910390a25050565b60606105d26038610de9565b905090565b60006105e4603a83610daf565b92915050565b60606105d2603a610de9565b6000806034848460405161060b92919061145b565b908152604080519182900360209081018320548383019092526002835261034360f41b908301526001600160a01b031691508161065b5760405162461bcd60e51b81526004016103489190611428565b509392505050565b600054604080518082019091526002815261033360f41b6020820152906001600160a01b031633146106a85760405162461bcd60e51b81526004016103489190611428565b5060006034826040516106bb919061146b565b908152604080519182900360209081018320548383019092526002835261034360f41b908301526001600160a01b031691508161070b5760405162461bcd60e51b81526004016103489190611428565b5060348260405161071c919061146b565b90815260405190819003602001902080546001600160a01b031916905561074d61074583611487565b603690610e90565b50610759603882610e9c565b50610765603a82610e9c565b505050565b60006105e4603883610daf565b600054604080518082019091526002815261033360f41b6020820152906001600160a01b031633146107bc5760405162461bcd60e51b81526004016103489190611428565b50602082511060405180604001604052806002815260200161333160f01b815250906107fb5760405162461bcd60e51b81526004016103489190611428565b50604080518082019091526002815261333160f01b60208201526001600160a01b03821661083c5760405162461bcd60e51b81526004016103489190611428565b50600060348360405161084f919061146b565b908152604080519182900360209081018320548383019092526002835261333160f01b908301526001600160a01b039081169250831682036108a45760405162461bcd60e51b81526004016103489190611428565b50816034846040516108b6919061146b565b90815260405190819003602001902080546001600160a01b03929092166001600160a01b03199092169190911790556108f96108f184611487565b603690610eb1565b50610905603883610dd4565b50816001600160a01b0316816001600160a01b031684604051610928919061146b565b604051908190038120907fbae65703f0aeb3db2f7b7f07b34b9cf2f9dde13c561a9e3423915de548dd20e390600090a4505050565b60408051808201909152600080825260208201526001600160a01b03821660009081526035602090815260408083208151808301909252805482526001015491810182905291036105e45760405163bd02d0f560e01b81527f535441424c45434f494e5f4d41585f444556494154494f4e000000000000000060048201526000907f00000000000000000000000000000000000000000000000000000000000000006001600160a01b03169063bd02d0f590602401602060405180830381865afa158015610a2f573d6000803e3d6000fd5b505050506040513d601f19601f82011682018060405250810190610a5391906114ae565b9050604051806040016040528082670de0b6b3a7640000610a7491906114dd565b8152602001610a8b83670de0b6b3a76400006114f0565b9052949350505050565b600154600160a81b900460ff1615808015610abb575060018054600160a01b900460ff16105b80610adb5750303b158015610adb575060018054600160a01b900460ff16145b610b3e5760405162461bcd60e51b815260206004820152602e60248201527f496e697469616c697a61626c653a20636f6e747261637420697320616c72656160448201526d191e481a5b9a5d1a585b1a5e995960921b6064820152608401610348565b6001805460ff60a01b1916600160a01b1790558015610b6b576001805460ff60a81b1916600160a81b1790555b610b7482610ebd565b8015610bbb576001805460ff60a81b191681556040519081527f7f26b83ff96e1f2b6a682f133852f6798a09c465da95921460cefb38474024989060200160405180910390a15b5050565b600054604080518082019091526002815261033360f41b6020820152906001600160a01b03163314610c045760405162461bcd60e51b81526004016103489190611428565b50610c10603a82610daf565b60405180604001604052806002815260200161034360f41b81525090610c495760405162461bcd60e51b81526004016103489190611428565b50610c55603a82610e9c565b506040516001600160a01b038216907f02d765d86e62553c49c4853f47990fbb8cf7713f511ac332855aaa6b02bebd3690600090a250565b600054604080518082019091526002815261033360f41b6020820152906001600160a01b03163314610cd25760405162461bcd60e51b81526004016103489190611428565b50604080518082019091526002815261333160f01b60208201526001600160a01b038216610d135760405162461bcd60e51b81526004016103489190611428565b50600180546001600160a01b0319166001600160a01b0383169081179091556040519081527f67235ba2e63c748a35b95c4f92a3bbc2a1389938170a5ce6c9add5d0b03a314a9060200161047f565b6000806001600160a01b031660348484604051610d8092919061145b565b908152604051908190036020019020546001600160a01b03161415905092915050565b60606105d26036610f11565b6001600160a01b038116600090815260018301602052604081205415155b9392505050565b6000610dcd836001600160a01b038416610fab565b60606000610df683610ffa565b905060008167ffffffffffffffff811115610e1357610e1361116c565b604051908082528060200260200182016040528015610e3c578160200160208202803683370190505b50905060005b8281101561065b57610e548582611004565b828281518110610e6657610e66611503565b6001600160a01b039092166020928302919091019091015280610e8881611519565b915050610e42565b6000610dcd8383611010565b6000610dcd836001600160a01b038416611010565b6000610dcd8383610fab565b600080546001600160a01b0319166001600160a01b03831690811782556040805192835260208301919091527fde4b3f61490b74c0ed6237523974fe299126bbbf8a8a7482fd220104c59b0c84910161047f565b60606000610f1e83610ffa565b905060008167ffffffffffffffff811115610f3b57610f3b61116c565b604051908082528060200260200182016040528015610f64578160200160208202803683370190505b50905060005b8281101561065b57610f7c8582611103565b828281518110610f8e57610f8e611503565b602090810291909101015280610fa381611519565b915050610f6a565b6000818152600183016020526040812054610ff2575081546001818101845560008481526020808220909301849055845484825282860190935260409020919091556105e4565b5060006105e4565b60006105e4825490565b6000610dcd838361110b565b600081815260018301602052604081205480156110f95760006110346001836114dd565b8554909150600090611048906001906114dd565b90508181146110ad57600086600001828154811061106857611068611503565b906000526020600020015490508087600001848154811061108b5761108b611503565b6000918252602080832090910192909255918252600188019052604090208390555b85548690806110be576110be611532565b6001900381819060005260206000200160009055905585600101600086815260200190815260200160002060009055600193505050506105e4565b60009150506105e4565b6000610dcd83835b600082600001828154811061112257611122611503565b9060005260206000200154905092915050565b80356001600160a01b038116811461114c57600080fd5b919050565b60006020828403121561116357600080fd5b610dcd82611135565b634e487b7160e01b600052604160045260246000fd5b600080828403606081121561119657600080fd5b61119f84611135565b92506040601f19820112156111b357600080fd5b506040516040810181811067ffffffffffffffff821117156111d7576111d761116c565b60409081526020858101358352940135938101939093525092909150565b6020808252825182820181905260009190848201906040850190845b818110156112365783516001600160a01b031683529284019291840191600101611211565b50909695505050505050565b6000806020838503121561125557600080fd5b823567ffffffffffffffff8082111561126d57600080fd5b818501915085601f83011261128157600080fd5b81358181111561129057600080fd5b8660208285010111156112a257600080fd5b60209290920196919550909350505050565b600082601f8301126112c557600080fd5b813567ffffffffffffffff808211156112e0576112e061116c565b604051601f8301601f19908116603f011681019082821181831017156113085761130861116c565b8160405283815286602085880101111561132157600080fd5b836020870160208301376000602085830101528094505050505092915050565b60006020828403121561135357600080fd5b813567ffffffffffffffff81111561136a57600080fd5b611376848285016112b4565b949350505050565b6000806040838503121561139157600080fd5b823567ffffffffffffffff8111156113a857600080fd5b6113b4858286016112b4565b9250506113c360208401611135565b90509250929050565b6020808252825182820181905260009190848201906040850190845b81811015611236578351835292840192918401916001016113e8565b60005b8381101561141f578181015183820152602001611407565b50506000910152565b6020815260008251806020840152611447816040850160208701611404565b601f01601f19169190910160400192915050565b8183823760009101908152919050565b6000825161147d818460208701611404565b9190910192915050565b805160208083015191908110156114a8576000198160200360031b1b821691505b50919050565b6000602082840312156114c057600080fd5b5051919050565b634e487b7160e01b600052601160045260246000fd5b818103818111156105e4576105e46114c7565b808201808211156105e4576105e46114c7565b634e487b7160e01b600052603260045260246000fd5b60006001820161152b5761152b6114c7565b5060010190565b634e487b7160e01b600052603160045260246000fdfea26469706673582212205f7ace21006cbcd442c52b6b37594ce8439db0aab0b3b2a4878a69be5f6b2cf964736f6c63430008110033","bytecodeSha1":"a32c779cae60ea5535b0afc13011ca9a0061d3f4","compiler":{"evm_version":"london","optimizer":{"enabled":true,"runs":200},"version":"0.8.17+commit.8df45f5f"},"contractName":"AssetRegistry","language":"Solidity","natspec":{"kind":"dev","methods":{"STABLECOIN_IDEAL_PRICE()":{"notice":"a stablecoin should be equal to 1 USD"},"acceptGovernance()":{"notice":"Called by the pending governor to approve the change"},"addStableAsset(address)":{"notice":"Adds a stable asset to the registry The asset must already be registered in the registry"},"changeGovernor(address)":{"notice":"Changes the governor can only be called by the current governor"},"getAssetAddress(string)":{"notice":"Returns the address associated with the given asset name e.g. \"DAI\" -> 0x6B175474E89094C44Da98b954EedeAC495271d0F"},"getAssetRange(address)":{"returns":{"_0":"the price range of the asset"}},"getRegisteredAssetAddresses()":{"notice":"Returns a list of addresses for the registered assets"},"getRegisteredAssetNames()":{"notice":"Returns a list of names for the registered assets The asset are encoded as bytes32 (big endian) rather than string"},"getStableAssets()":{"notice":"Returns a list of addresses contaning the stable assets"},"governor()":{"notice":"Returns the current governor"},"isAssetAddressRegistered(address)":{"returns":{"_0":"true if the asset address is registered"}},"isAssetNameRegistered(string)":{"returns":{"_0":"true if the asset name is registered"}},"isAssetStable(address)":{"returns":{"_0":"true if the asset name is stable"}},"pendingGovernor()":{"notice":"Returns the pending governor"},"removeAsset(string)":{"notice":"Removes `assetName` from the registry"},"removeStableAsset(address)":{"notice":"Removes a stable asset to the registry The asset must already be a stable asset"},"setAssetAddress(string,address)":{"notice":"Set the `assetName` to the given `assetAddress`"},"setAssetRange(address,(uint256,uint256))":{"notice":"Sets the price range (floor and ceiling) for the given asset"}},"version":1},"opcodes":"PUSH1 0x80 PUSH1 0x40 MSTORE CALLVALUE DUP1 ISZERO PUSH2 0x10 JUMPI PUSH1 0x0 DUP1 REVERT JUMPDEST POP PUSH1 0x4 CALLDATASIZE LT PUSH2 0x12C JUMPI PUSH1 0x0 CALLDATALOAD PUSH1 0xE0 SHR DUP1 PUSH4 0x888AD112 GT PUSH2 0xAD JUMPI DUP1 PUSH4 0xC6A052B6 GT PUSH2 0x71 JUMPI DUP1 PUSH4 0xC6A052B6 EQ PUSH2 0x2A2 JUMPI DUP1 PUSH4 0xE3056A34 EQ PUSH2 0x2B5 JUMPI DUP1 PUSH4 0xE4C0AAF4 EQ PUSH2 0x2C8 JUMPI DUP1 PUSH4 0xF41092DE EQ PUSH2 0x2DB JUMPI DUP1 PUSH4 0xF804C0C8 EQ PUSH2 0x2EE JUMPI PUSH1 0x0 DUP1 REVERT JUMPDEST DUP1 PUSH4 0x888AD112 EQ PUSH2 0x21E JUMPI DUP1 PUSH4 0x8B46C4FD EQ PUSH2 0x23B JUMPI DUP1 PUSH4 0xA5C7B384 EQ PUSH2 0x24E JUMPI DUP1 PUSH4 0xA8DCC56A EQ PUSH2 0x261 JUMPI DUP1 PUSH4 0xC4D66DE8 EQ PUSH2 0x28F JUMPI PUSH1 0x0 DUP1 REVERT JUMPDEST DUP1 PUSH4 0x44BBDB55 GT PUSH2 0xF4 JUMPI DUP1 PUSH4 0x44BBDB55 EQ PUSH2 0x1A6 JUMPI DUP1 PUSH4 0x4976C588 EQ PUSH2 0x1CD JUMPI DUP1 PUSH4 0x6DF5D2D3 EQ PUSH2 0x1F0 JUMPI DUP1 PUSH4 0x7307AE55 EQ PUSH2 0x1F8 JUMPI DUP1 PUSH4 0x759AF9EC EQ PUSH2 0x20B JUMPI PUSH1 0x0 DUP1 REVERT JUMPDEST DUP1 PUSH4 0xC340A24 EQ PUSH2 0x131 JUMPI DUP1 PUSH4 0x10EC0878 EQ PUSH2 0x161 JUMPI DUP1 PUSH4 0x238EFCBC EQ PUSH2 0x176 JUMPI DUP1 PUSH4 0x278E7D25 EQ PUSH2 0x17E JUMPI DUP1 PUSH4 0x36DAA731 EQ PUSH2 0x191 JUMPI JUMPDEST PUSH1 0x0 DUP1 REVERT JUMPDEST PUSH1 0x0 SLOAD PUSH2 0x144 SWAP1 PUSH1 0x1 PUSH1 0x1 PUSH1 0xA0 SHL SUB AND DUP2 JUMP JUMPDEST PUSH1 0x40 MLOAD PUSH1 0x1 PUSH1 0x1 PUSH1 0xA0 SHL SUB SWAP1 SWAP2 AND DUP2 MSTORE PUSH1 0x20 ADD JUMPDEST PUSH1 0x40 MLOAD DUP1 SWAP2 SUB SWAP1 RETURN JUMPDEST PUSH2 0x174 PUSH2 0x16F CALLDATASIZE PUSH1 0x4 PUSH2 0x1151 JUMP JUMPDEST PUSH2 0x303 JUMP JUMPDEST STOP JUMPDEST PUSH2 0x174 PUSH2 0x3DA JUMP JUMPDEST PUSH2 0x174 PUSH2 0x18C CALLDATASIZE PUSH1 0x4 PUSH2 0x1182 JUMP JUMPDEST PUSH2 0x48A JUMP JUMPDEST PUSH2 0x199 PUSH2 0x5C6 JUMP JUMPDEST PUSH1 0x40 MLOAD PUSH2 0x158 SWAP2 SWAP1 PUSH2 0x11F5 JUMP JUMPDEST PUSH2 0x144 PUSH32 0x0 DUP2 JUMP JUMPDEST PUSH2 0x1E0 PUSH2 0x1DB CALLDATASIZE PUSH1 0x4 PUSH2 0x1151 JUMP JUMPDEST PUSH2 0x5D7 JUMP JUMPDEST PUSH1 0x40 MLOAD SWAP1 ISZERO ISZERO DUP2 MSTORE PUSH1 0x20 ADD PUSH2 0x158 JUMP JUMPDEST PUSH2 0x199 PUSH2 0x5EA JUMP JUMPDEST PUSH2 0x144 PUSH2 0x206 CALLDATASIZE PUSH1 0x4 PUSH2 0x1242 JUMP JUMPDEST PUSH2 0x5F6 JUMP JUMPDEST PUSH2 0x174 PUSH2 0x219 CALLDATASIZE PUSH1 0x4 PUSH2 0x1341 JUMP JUMPDEST PUSH2 0x663 JUMP JUMPDEST PUSH2 0x22D PUSH8 0xDE0B6B3A7640000 DUP2 JUMP JUMPDEST PUSH1 0x40 MLOAD SWAP1 DUP2 MSTORE PUSH1 0x20 ADD PUSH2 0x158 JUMP JUMPDEST PUSH2 0x1E0 PUSH2 0x249 CALLDATASIZE PUSH1 0x4 PUSH2 0x1151 JUMP JUMPDEST PUSH2 0x76A JUMP JUMPDEST PUSH2 0x174 PUSH2 0x25C CALLDATASIZE PUSH1 0x4 PUSH2 0x137E JUMP JUMPDEST PUSH2 0x777 JUMP JUMPDEST PUSH2 0x274 PUSH2 0x26F CALLDATASIZE PUSH1 0x4 PUSH2 0x1151 JUMP JUMPDEST PUSH2 0x95D JUMP JUMPDEST PUSH1 0x40 DUP1 MLOAD DUP3 MLOAD DUP2 MSTORE PUSH1 0x20 SWAP3 DUP4 ADD MLOAD SWAP3 DUP2 ADD SWAP3 SWAP1 SWAP3 MSTORE ADD PUSH2 0x158 JUMP JUMPDEST PUSH2 0x174 PUSH2 0x29D CALLDATASIZE PUSH1 0x4 PUSH2 0x1151 JUMP JUMPDEST PUSH2 0xA95 JUMP JUMPDEST PUSH2 0x174 PUSH2 0x2B0 CALLDATASIZE PUSH1 0x4 PUSH2 0x1151 JUMP JUMPDEST PUSH2 0xBBF JUMP JUMPDEST PUSH1 0x1 SLOAD PUSH2 0x144 SWAP1 PUSH1 0x1 PUSH1 0x1 PUSH1 0xA0 SHL SUB AND DUP2 JUMP JUMPDEST PUSH2 0x174 PUSH2 0x2D6 CALLDATASIZE PUSH1 0x4 PUSH2 0x1151 JUMP JUMPDEST PUSH2 0xC8D JUMP JUMPDEST PUSH2 0x1E0 PUSH2 0x2E9 CALLDATASIZE PUSH1 0x4 PUSH2 0x1242 JUMP JUMPDEST PUSH2 0xD62 JUMP JUMPDEST PUSH2 0x2F6 PUSH2 0xDA3 JUMP JUMPDEST PUSH1 0x40 MLOAD PUSH2 0x158 SWAP2 SWAP1 PUSH2 0x13CC JUMP JUMPDEST PUSH1 0x0 SLOAD PUSH1 0x40 DUP1 MLOAD DUP1 DUP3 ADD SWAP1 SWAP2 MSTORE PUSH1 0x2 DUP2 MSTORE PUSH2 0x333 PUSH1 0xF4 SHL PUSH1 0x20 DUP3 ADD MSTORE SWAP1 PUSH1 0x1 PUSH1 0x1 PUSH1 0xA0 SHL SUB AND CALLER EQ PUSH2 0x351 JUMPI PUSH1 0x40 MLOAD PUSH3 0x461BCD PUSH1 0xE5 SHL DUP2 MSTORE PUSH1 0x4 ADD PUSH2 0x348 SWAP2 SWAP1 PUSH2 0x1428 JUMP JUMPDEST PUSH1 0x40 MLOAD DUP1 SWAP2 SUB SWAP1 REVERT JUMPDEST POP PUSH2 0x35D PUSH1 0x38 DUP3 PUSH2 0xDAF JUMP JUMPDEST PUSH1 0x40 MLOAD DUP1 PUSH1 0x40 ADD PUSH1 0x40 MSTORE DUP1 PUSH1 0x2 DUP2 MSTORE PUSH1 0x20 ADD PUSH2 0x343 PUSH1 0xF4 SHL DUP2 MSTORE POP SWAP1 PUSH2 0x396 JUMPI PUSH1 0x40 MLOAD PUSH3 0x461BCD PUSH1 0xE5 SHL DUP2 MSTORE PUSH1 0x4 ADD PUSH2 0x348 SWAP2 SWAP1 PUSH2 0x1428 JUMP JUMPDEST POP PUSH2 0x3A2 PUSH1 0x3A DUP3 PUSH2 0xDD4 JUMP JUMPDEST POP PUSH1 0x40 MLOAD PUSH1 0x1 PUSH1 0x1 PUSH1 0xA0 SHL SUB DUP3 AND SWAP1 PUSH32 0x93266109223F3FFE4999EEEDD7026E74A3BA153A9B782165BE501BCFBDCCD3A9 SWAP1 PUSH1 0x0 SWAP1 LOG2 POP JUMP JUMPDEST PUSH1 0x1 SLOAD PUSH1 0x40 DUP1 MLOAD DUP1 DUP3 ADD SWAP1 SWAP2 MSTORE PUSH1 0x2 DUP2 MSTORE PUSH2 0x333 PUSH1 0xF4 SHL PUSH1 0x20 DUP3 ADD MSTORE SWAP1 PUSH1 0x1 PUSH1 0x1 PUSH1 0xA0 SHL SUB AND CALLER EQ PUSH2 0x41F JUMPI PUSH1 0x40 MLOAD PUSH3 0x461BCD PUSH1 0xE5 SHL DUP2 MSTORE PUSH1 0x4 ADD PUSH2 0x348 SWAP2 SWAP1 PUSH2 0x1428 JUMP JUMPDEST POP PUSH1 0x0 DUP1 SLOAD PUSH1 0x1 DUP1 SLOAD PUSH1 0x1 PUSH1 0x1 PUSH1 0xA0 SHL SUB NOT DUP1 DUP5 AND PUSH1 0x1 PUSH1 0x1 PUSH1 0xA0 SHL SUB DUP1 DUP5 AND SWAP2 SWAP1 SWAP2 OR SWAP1 SWAP6 SSTORE AND SWAP1 SSTORE PUSH1 0x40 DUP1 MLOAD SWAP3 SWAP1 SWAP2 AND DUP1 DUP4 MSTORE CALLER PUSH1 0x20 DUP5 ADD MSTORE SWAP2 PUSH32 0xDE4B3F61490B74C0ED6237523974FE299126BBBF8A8A7482FD220104C59B0C84 SWAP2 ADD JUMPDEST PUSH1 0x40 MLOAD DUP1 SWAP2 SUB SWAP1 LOG1 POP JUMP JUMPDEST PUSH1 0x0 SLOAD PUSH1 0x40 DUP1 MLOAD DUP1 DUP3 ADD SWAP1 SWAP2 MSTORE PUSH1 0x2 DUP2 MSTORE PUSH2 0x333 PUSH1 0xF4 SHL PUSH1 0x20 DUP3 ADD MSTORE SWAP1 PUSH1 0x1 PUSH1 0x1 PUSH1 0xA0 SHL SUB AND CALLER EQ PUSH2 0x4CF JUMPI PUSH1 0x40 MLOAD PUSH3 0x461BCD PUSH1 0xE5 SHL DUP2 MSTORE PUSH1 0x4 ADD PUSH2 0x348 SWAP2 SWAP1 PUSH2 0x1428 JUMP JUMPDEST POP PUSH2 0x4DB PUSH1 0x38 DUP4 PUSH2 0xDAF JUMP JUMPDEST PUSH1 0x40 MLOAD DUP1 PUSH1 0x40 ADD PUSH1 0x40 MSTORE DUP1 PUSH1 0x2 DUP2 MSTORE PUSH1 0x20 ADD PUSH2 0x343 PUSH1 0xF4 SHL DUP2 MSTORE POP SWAP1 PUSH2 0x514 JUMPI PUSH1 0x40 MLOAD PUSH3 0x461BCD PUSH1 0xE5 SHL DUP2 MSTORE PUSH1 0x4 ADD PUSH2 0x348 SWAP2 SWAP1 PUSH2 0x1428 JUMP JUMPDEST POP DUP1 PUSH1 0x20 ADD MLOAD DUP2 PUSH1 0x0 ADD MLOAD LT PUSH1 0x40 MLOAD DUP1 PUSH1 0x40 ADD PUSH1 0x40 MSTORE DUP1 PUSH1 0x2 DUP2 MSTORE PUSH1 0x20 ADD PUSH2 0x3331 PUSH1 0xF0 SHL DUP2 MSTORE POP SWAP1 PUSH2 0x559 JUMPI PUSH1 0x40 MLOAD PUSH3 0x461BCD PUSH1 0xE5 SHL DUP2 MSTORE PUSH1 0x4 ADD PUSH2 0x348 SWAP2 SWAP1 PUSH2 0x1428 JUMP JUMPDEST POP PUSH1 0x1 PUSH1 0x1 PUSH1 0xA0 SHL SUB DUP3 AND PUSH1 0x0 DUP2 DUP2 MSTORE PUSH1 0x35 PUSH1 0x20 SWAP1 DUP2 MSTORE PUSH1 0x40 SWAP2 DUP3 SWAP1 KECCAK256 DUP5 MLOAD DUP1 DUP3 SSTORE DUP6 DUP4 ADD DUP1 MLOAD PUSH1 0x1 SWAP1 SWAP4 ADD SWAP3 SWAP1 SWAP3 SSTORE DUP4 MLOAD SWAP1 DUP2 MSTORE SWAP1 MLOAD SWAP2 DUP2 ADD SWAP2 SWAP1 SWAP2 MSTORE PUSH32 0xDC7160D178BCE7AA692C68A783064DC42A2D74CBC3EBF67BE1BDADDAF1AE25B9 SWAP2 ADD PUSH1 0x40 MLOAD DUP1 SWAP2 SUB SWAP1 LOG2 POP POP JUMP JUMPDEST PUSH1 0x60 PUSH2 0x5D2 PUSH1 0x38 PUSH2 0xDE9 JUMP JUMPDEST SWAP1 POP SWAP1 JUMP JUMPDEST PUSH1 0x0 PUSH2 0x5E4 PUSH1 0x3A DUP4 PUSH2 0xDAF JUMP JUMPDEST SWAP3 SWAP2 POP POP JUMP JUMPDEST PUSH1 0x60 PUSH2 0x5D2 PUSH1 0x3A PUSH2 0xDE9 JUMP JUMPDEST PUSH1 0x0 DUP1 PUSH1 0x34 DUP5 DUP5 PUSH1 0x40 MLOAD PUSH2 0x60B SWAP3 SWAP2 SWAP1 PUSH2 0x145B JUMP JUMPDEST SWAP1 DUP2 MSTORE PUSH1 0x40 DUP1 MLOAD SWAP2 DUP3 SWAP1 SUB PUSH1 0x20 SWAP1 DUP2 ADD DUP4 KECCAK256 SLOAD DUP4 DUP4 ADD SWAP1 SWAP3 MSTORE PUSH1 0x2 DUP4 MSTORE PUSH2 0x343 PUSH1 0xF4 SHL SWAP1 DUP4 ADD MSTORE PUSH1 0x1 PUSH1 0x1 PUSH1 0xA0 SHL SUB AND SWAP2 POP DUP2 PUSH2 0x65B JUMPI PUSH1 0x40 MLOAD PUSH3 0x461BCD PUSH1 0xE5 SHL DUP2 MSTORE PUSH1 0x4 ADD PUSH2 0x348 SWAP2 SWAP1 PUSH2 0x1428 JUMP JUMPDEST POP SWAP4 SWAP3 POP POP POP JUMP JUMPDEST PUSH1 0x0 SLOAD PUSH1 0x40 DUP1 MLOAD DUP1 DUP3 ADD SWAP1 SWAP2 MSTORE PUSH1 0x2 DUP2 MSTORE PUSH2 0x333 PUSH1 0xF4 SHL PUSH1 0x20 DUP3 ADD MSTORE SWAP1 PUSH1 0x1 PUSH1 0x1 PUSH1 0xA0 SHL SUB AND CALLER EQ PUSH2 0x6A8 JUMPI PUSH1 0x40 MLOAD PUSH3 0x461BCD PUSH1 0xE5 SHL DUP2 MSTORE PUSH1 0x4 ADD PUSH2 0x348 SWAP2 SWAP1 PUSH2 0x1428 JUMP JUMPDEST POP PUSH1 0x0 PUSH1 0x34 DUP3 PUSH1 0x40 MLOAD PUSH2 0x6BB SWAP2 SWAP1 PUSH2 0x146B JUMP JUMPDEST SWAP1 DUP2 MSTORE PUSH1 0x40 DUP1 MLOAD SWAP2 DUP3 SWAP1 SUB PUSH1 0x20 SWAP1 DUP2 ADD DUP4 KECCAK256 SLOAD DUP4 DUP4 ADD SWAP1 SWAP3 MSTORE PUSH1 0x2 DUP4 MSTORE PUSH2 0x343 PUSH1 0xF4 SHL SWAP1 DUP4 ADD MSTORE PUSH1 0x1 PUSH1 0x1 PUSH1 0xA0 SHL SUB AND SWAP2 POP DUP2 PUSH2 0x70B JUMPI PUSH1 0x40 MLOAD PUSH3 0x461BCD PUSH1 0xE5 SHL DUP2 MSTORE PUSH1 0x4 ADD PUSH2 0x348 SWAP2 SWAP1 PUSH2 0x1428 JUMP JUMPDEST POP PUSH1 0x34 DUP3 PUSH1 0x40 MLOAD PUSH2 0x71C SWAP2 SWAP1 PUSH2 0x146B JUMP JUMPDEST SWAP1 DUP2 MSTORE PUSH1 0x40 MLOAD SWAP1 DUP2 SWAP1 SUB PUSH1 0x20 ADD SWAP1 KECCAK256 DUP1 SLOAD PUSH1 0x1 PUSH1 0x1 PUSH1 0xA0 SHL SUB NOT AND SWAP1 SSTORE PUSH2 0x74D PUSH2 0x745 DUP4 PUSH2 0x1487 JUMP JUMPDEST PUSH1 0x36 SWAP1 PUSH2 0xE90 JUMP JUMPDEST POP PUSH2 0x759 PUSH1 0x38 DUP3 PUSH2 0xE9C JUMP JUMPDEST POP PUSH2 0x765 PUSH1 0x3A DUP3 PUSH2 0xE9C JUMP JUMPDEST POP POP POP JUMP JUMPDEST PUSH1 0x0 PUSH2 0x5E4 PUSH1 0x38 DUP4 PUSH2 0xDAF JUMP JUMPDEST PUSH1 0x0 SLOAD PUSH1 0x40 DUP1 MLOAD DUP1 DUP3 ADD SWAP1 SWAP2 MSTORE PUSH1 0x2 DUP2 MSTORE PUSH2 0x333 PUSH1 0xF4 SHL PUSH1 0x20 DUP3 ADD MSTORE SWAP1 PUSH1 0x1 PUSH1 0x1 PUSH1 0xA0 SHL SUB AND CALLER EQ PUSH2 0x7BC JUMPI PUSH1 0x40 MLOAD PUSH3 0x461BCD PUSH1 0xE5 SHL DUP2 MSTORE PUSH1 0x4 ADD PUSH2 0x348 SWAP2 SWAP1 PUSH2 0x1428 JUMP JUMPDEST POP PUSH1 0x20 DUP3 MLOAD LT PUSH1 0x40 MLOAD DUP1 PUSH1 0x40 ADD PUSH1 0x40 MSTORE DUP1 PUSH1 0x2 DUP2 MSTORE PUSH1 0x20 ADD PUSH2 0x3331 PUSH1 0xF0 SHL DUP2 MSTORE POP SWAP1 PUSH2 0x7FB JUMPI PUSH1 0x40 MLOAD PUSH3 0x461BCD PUSH1 0xE5 SHL DUP2 MSTORE PUSH1 0x4 ADD PUSH2 0x348 SWAP2 SWAP1 PUSH2 0x1428 JUMP JUMPDEST POP PUSH1 0x40 DUP1 MLOAD DUP1 DUP3 ADD SWAP1 SWAP2 MSTORE PUSH1 0x2 DUP2 MSTORE PUSH2 0x3331 PUSH1 0xF0 SHL PUSH1 0x20 DUP3 ADD MSTORE PUSH1 0x1 PUSH1 0x1 PUSH1 0xA0 SHL SUB DUP3 AND PUSH2 0x83C JUMPI PUSH1 0x40 MLOAD PUSH3 0x461BCD PUSH1 0xE5 SHL DUP2 MSTORE PUSH1 0x4 ADD PUSH2 0x348 SWAP2 SWAP1 PUSH2 0x1428 JUMP JUMPDEST POP PUSH1 0x0 PUSH1 0x34 DUP4 PUSH1 0x40 MLOAD PUSH2 0x84F SWAP2 SWAP1 PUSH2 0x146B JUMP JUMPDEST SWAP1 DUP2 MSTORE PUSH1 0x40 DUP1 MLOAD SWAP2 DUP3 SWAP1 SUB PUSH1 0x20 SWAP1 DUP2 ADD DUP4 KECCAK256 SLOAD DUP4 DUP4 ADD SWAP1 SWAP3 MSTORE PUSH1 0x2 DUP4 MSTORE PUSH2 0x3331 PUSH1 0xF0 SHL SWAP1 DUP4 ADD MSTORE PUSH1 0x1 PUSH1 0x1 PUSH1 0xA0 SHL SUB SWAP1 DUP2 AND SWAP3 POP DUP4 AND DUP3 SUB PUSH2 0x8A4 JUMPI PUSH1 0x40 MLOAD PUSH3 0x461BCD PUSH1 0xE5 SHL DUP2 MSTORE PUSH1 0x4 ADD PUSH2 0x348 SWAP2 SWAP1 PUSH2 0x1428 JUMP JUMPDEST POP DUP2 PUSH1 0x34 DUP5 PUSH1 0x40 MLOAD PUSH2 0x8B6 SWAP2 SWAP1 PUSH2 0x146B JUMP JUMPDEST SWAP1 DUP2 MSTORE PUSH1 0x40 MLOAD SWAP1 DUP2 SWAP1 SUB PUSH1 0x20 ADD SWAP1 KECCAK256 DUP1 SLOAD PUSH1 0x1 PUSH1 0x1 PUSH1 0xA0 SHL SUB SWAP3 SWAP1 SWAP3 AND PUSH1 0x1 PUSH1 0x1 PUSH1 0xA0 SHL SUB NOT SWAP1 SWAP3 AND SWAP2 SWAP1 SWAP2 OR SWAP1 SSTORE PUSH2 0x8F9 PUSH2 0x8F1 DUP5 PUSH2 0x1487 JUMP JUMPDEST PUSH1 0x36 SWAP1 PUSH2 0xEB1 JUMP JUMPDEST POP PUSH2 0x905 PUSH1 0x38 DUP4 PUSH2 0xDD4 JUMP JUMPDEST POP DUP2 PUSH1 0x1 PUSH1 0x1 PUSH1 0xA0 SHL SUB AND DUP2 PUSH1 0x1 PUSH1 0x1 PUSH1 0xA0 SHL SUB AND DUP5 PUSH1 0x40 MLOAD PUSH2 0x928 SWAP2 SWAP1 PUSH2 0x146B JUMP JUMPDEST PUSH1 0x40 MLOAD SWAP1 DUP2 SWAP1 SUB DUP2 KECCAK256 SWAP1 PUSH32 0xBAE65703F0AEB3DB2F7B7F07B34B9CF2F9DDE13C561A9E3423915DE548DD20E3 SWAP1 PUSH1 0x0 SWAP1 LOG4 POP POP POP JUMP JUMPDEST PUSH1 0x40 DUP1 MLOAD DUP1 DUP3 ADD SWAP1 SWAP2 MSTORE PUSH1 0x0 DUP1 DUP3 MSTORE PUSH1 0x20 DUP3 ADD MSTORE PUSH1 0x1 PUSH1 0x1 PUSH1 0xA0 SHL SUB DUP3 AND PUSH1 0x0 SWAP1 DUP2 MSTORE PUSH1 0x35 PUSH1 0x20 SWAP1 DUP2 MSTORE PUSH1 0x40 DUP1 DUP4 KECCAK256 DUP2 MLOAD DUP1 DUP4 ADD SWAP1 SWAP3 MSTORE DUP1 SLOAD DUP3 MSTORE PUSH1 0x1 ADD SLOAD SWAP2 DUP2 ADD DUP3 SWAP1 MSTORE SWAP2 SUB PUSH2 0x5E4 JUMPI PUSH1 0x40 MLOAD PUSH4 0xBD02D0F5 PUSH1 0xE0 SHL DUP2 MSTORE PUSH32 0x535441424C45434F494E5F4D41585F444556494154494F4E0000000000000000 PUSH1 0x4 DUP3 ADD MSTORE PUSH1 0x0 SWAP1 PUSH32 0x0 PUSH1 0x1 PUSH1 0x1 PUSH1 0xA0 SHL SUB AND SWAP1 PUSH4 0xBD02D0F5 SWAP1 PUSH1 0x24 ADD PUSH1 0x20 PUSH1 0x40 MLOAD DUP1 DUP4 SUB DUP2 DUP7 GAS STATICCALL ISZERO DUP1 ISZERO PUSH2 0xA2F JUMPI RETURNDATASIZE PUSH1 0x0 DUP1 RETURNDATACOPY RETURNDATASIZE PUSH1 0x0 REVERT JUMPDEST POP POP POP POP PUSH1 0x40 MLOAD RETURNDATASIZE PUSH1 0x1F NOT PUSH1 0x1F DUP3 ADD AND DUP3 ADD DUP1 PUSH1 0x40 MSTORE POP DUP2 ADD SWAP1 PUSH2 0xA53 SWAP2 SWAP1 PUSH2 0x14AE JUMP JUMPDEST SWAP1 POP PUSH1 0x40 MLOAD DUP1 PUSH1 0x40 ADD PUSH1 0x40 MSTORE DUP1 DUP3 PUSH8 0xDE0B6B3A7640000 PUSH2 0xA74 SWAP2 SWAP1 PUSH2 0x14DD JUMP JUMPDEST DUP2 MSTORE PUSH1 0x20 ADD PUSH2 0xA8B DUP4 PUSH8 0xDE0B6B3A7640000 PUSH2 0x14F0 JUMP JUMPDEST SWAP1 MSTORE SWAP5 SWAP4 POP POP POP POP JUMP JUMPDEST PUSH1 0x1 SLOAD PUSH1 0x1 PUSH1 0xA8 SHL SWAP1 DIV PUSH1 0xFF AND ISZERO DUP1 DUP1 ISZERO PUSH2 0xABB JUMPI POP PUSH1 0x1 DUP1 SLOAD PUSH1 0x1 PUSH1 0xA0 SHL SWAP1 DIV PUSH1 0xFF AND LT JUMPDEST DUP1 PUSH2 0xADB JUMPI POP ADDRESS EXTCODESIZE ISZERO DUP1 ISZERO PUSH2 0xADB JUMPI POP PUSH1 0x1 DUP1 SLOAD PUSH1 0x1 PUSH1 0xA0 SHL SWAP1 DIV PUSH1 0xFF AND EQ JUMPDEST PUSH2 0xB3E JUMPI PUSH1 0x40 MLOAD PUSH3 0x461BCD PUSH1 0xE5 SHL DUP2 MSTORE PUSH1 0x20 PUSH1 0x4 DUP3 ADD MSTORE PUSH1 0x2E PUSH1 0x24 DUP3 ADD MSTORE PUSH32 0x496E697469616C697A61626C653A20636F6E747261637420697320616C726561 PUSH1 0x44 DUP3 ADD MSTORE PUSH14 0x191E481A5B9A5D1A585B1A5E9959 PUSH1 0x92 SHL PUSH1 0x64 DUP3 ADD MSTORE PUSH1 0x84 ADD PUSH2 0x348 JUMP JUMPDEST PUSH1 0x1 DUP1 SLOAD PUSH1 0xFF PUSH1 0xA0 SHL NOT AND PUSH1 0x1 PUSH1 0xA0 SHL OR SWAP1 SSTORE DUP1 ISZERO PUSH2 0xB6B JUMPI PUSH1 0x1 DUP1 SLOAD PUSH1 0xFF PUSH1 0xA8 SHL NOT AND PUSH1 0x1 PUSH1 0xA8 SHL OR SWAP1 SSTORE JUMPDEST PUSH2 0xB74 DUP3 PUSH2 0xEBD JUMP JUMPDEST DUP1 ISZERO PUSH2 0xBBB JUMPI PUSH1 0x1 DUP1 SLOAD PUSH1 0xFF PUSH1 0xA8 SHL NOT AND DUP2 SSTORE PUSH1 0x40 MLOAD SWAP1 DUP2 MSTORE PUSH32 0x7F26B83FF96E1F2B6A682F133852F6798A09C465DA95921460CEFB3847402498 SWAP1 PUSH1 0x20 ADD PUSH1 0x40 MLOAD DUP1 SWAP2 SUB SWAP1 LOG1 JUMPDEST POP POP JUMP JUMPDEST PUSH1 0x0 SLOAD PUSH1 0x40 DUP1 MLOAD DUP1 DUP3 ADD SWAP1 SWAP2 MSTORE PUSH1 0x2 DUP2 MSTORE PUSH2 0x333 PUSH1 0xF4 SHL PUSH1 0x20 DUP3 ADD MSTORE SWAP1 PUSH1 0x1 PUSH1 0x1 PUSH1 0xA0 SHL SUB AND CALLER EQ PUSH2 0xC04 JUMPI PUSH1 0x40 MLOAD PUSH3 0x461BCD PUSH1 0xE5 SHL DUP2 MSTORE PUSH1 0x4 ADD PUSH2 0x348 SWAP2 SWAP1 PUSH2 0x1428 JUMP JUMPDEST POP PUSH2 0xC10 PUSH1 0x3A DUP3 PUSH2 0xDAF JUMP JUMPDEST PUSH1 0x40 MLOAD DUP1 PUSH1 0x40 ADD PUSH1 0x40 MSTORE DUP1 PUSH1 0x2 DUP2 MSTORE PUSH1 0x20 ADD PUSH2 0x343 PUSH1 0xF4 SHL DUP2 MSTORE POP SWAP1 PUSH2 0xC49 JUMPI PUSH1 0x40 MLOAD PUSH3 0x461BCD PUSH1 0xE5 SHL DUP2 MSTORE PUSH1 0x4 ADD PUSH2 0x348 SWAP2 SWAP1 PUSH2 0x1428 JUMP JUMPDEST POP PUSH2 0xC55 PUSH1 0x3A DUP3 PUSH2 0xE9C JUMP JUMPDEST POP PUSH1 0x40 MLOAD PUSH1 0x1 PUSH1 0x1 PUSH1 0xA0 SHL SUB DUP3 AND SWAP1 PUSH32 0x2D765D86E62553C49C4853F47990FBB8CF7713F511AC332855AAA6B02BEBD36 SWAP1 PUSH1 0x0 SWAP1 LOG2 POP JUMP JUMPDEST PUSH1 0x0 SLOAD PUSH1 0x40 DUP1 MLOAD DUP1 DUP3 ADD SWAP1 SWAP2 MSTORE PUSH1 0x2 DUP2 MSTORE PUSH2 0x333 PUSH1 0xF4 SHL PUSH1 0x20 DUP3 ADD MSTORE SWAP1 PUSH1 0x1 PUSH1 0x1 PUSH1 0xA0 SHL SUB AND CALLER EQ PUSH2 0xCD2 JUMPI PUSH1 0x40 MLOAD PUSH3 0x461BCD PUSH1 0xE5 SHL DUP2 MSTORE PUSH1 0x4 ADD PUSH2 0x348 SWAP2 SWAP1 PUSH2 0x1428 JUMP JUMPDEST POP PUSH1 0x40 DUP1 MLOAD DUP1 DUP3 ADD SWAP1 SWAP2 MSTORE PUSH1 0x2 DUP2 MSTORE PUSH2 0x3331 PUSH1 0xF0 SHL PUSH1 0x20 DUP3 ADD MSTORE PUSH1 0x1 PUSH1 0x1 PUSH1 0xA0 SHL SUB DUP3 AND PUSH2 0xD13 JUMPI PUSH1 0x40 MLOAD PUSH3 0x461BCD PUSH1 0xE5 SHL DUP2 MSTORE PUSH1 0x4 ADD PUSH2 0x348 SWAP2 SWAP1 PUSH2 0x1428 JUMP JUMPDEST POP PUSH1 0x1 DUP1 SLOAD PUSH1 0x1 PUSH1 0x1 PUSH1 0xA0 SHL SUB NOT AND PUSH1 0x1 PUSH1 0x1 PUSH1 0xA0 SHL SUB DUP4 AND SWAP1 DUP2 OR SWAP1 SWAP2 SSTORE PUSH1 0x40 MLOAD SWAP1 DUP2 MSTORE PUSH32 0x67235BA2E63C748A35B95C4F92A3BBC2A1389938170A5CE6C9ADD5D0B03A314A SWAP1 PUSH1 0x20 ADD PUSH2 0x47F JUMP JUMPDEST PUSH1 0x0 DUP1 PUSH1 0x1 PUSH1 0x1 PUSH1 0xA0 SHL SUB AND PUSH1 0x34 DUP5 DUP5 PUSH1 0x40 MLOAD PUSH2 0xD80 SWAP3 SWAP2 SWAP1 PUSH2 0x145B JUMP JUMPDEST SWAP1 DUP2 MSTORE PUSH1 0x40 MLOAD SWAP1 DUP2 SWAP1 SUB PUSH1 0x20 ADD SWAP1 KECCAK256 SLOAD PUSH1 0x1 PUSH1 0x1 PUSH1 0xA0 SHL SUB AND EQ ISZERO SWAP1 POP SWAP3 SWAP2 POP POP JUMP JUMPDEST PUSH1 0x60 PUSH2 0x5D2 PUSH1 0x36 PUSH2 0xF11 JUMP JUMPDEST PUSH1 0x1 PUSH1 0x1 PUSH1 0xA0 SHL SUB DUP2 AND PUSH1 0x0 SWAP1 DUP2 MSTORE PUSH1 0x1 DUP4 ADD PUSH1 0x20 MSTORE PUSH1 0x40 DUP2 KECCAK256 SLOAD ISZERO ISZERO JUMPDEST SWAP4 SWAP3 POP POP POP JUMP JUMPDEST PUSH1 0x0 PUSH2 0xDCD DUP4 PUSH1 0x1 PUSH1 0x1 PUSH1 0xA0 SHL SUB DUP5 AND PUSH2 0xFAB JUMP JUMPDEST PUSH1 0x60 PUSH1 0x0 PUSH2 0xDF6 DUP4 PUSH2 0xFFA JUMP JUMPDEST SWAP1 POP PUSH1 0x0 DUP2 PUSH8 0xFFFFFFFFFFFFFFFF DUP2 GT ISZERO PUSH2 0xE13 JUMPI PUSH2 0xE13 PUSH2 0x116C JUMP JUMPDEST PUSH1 0x40 MLOAD SWAP1 DUP1 DUP3 MSTORE DUP1 PUSH1 0x20 MUL PUSH1 0x20 ADD DUP3 ADD PUSH1 0x40 MSTORE DUP1 ISZERO PUSH2 0xE3C JUMPI DUP2 PUSH1 0x20 ADD PUSH1 0x20 DUP3 MUL DUP1 CALLDATASIZE DUP4 CALLDATACOPY ADD SWAP1 POP JUMPDEST POP SWAP1 POP PUSH1 0x0 JUMPDEST DUP3 DUP2 LT ISZERO PUSH2 0x65B JUMPI PUSH2 0xE54 DUP6 DUP3 PUSH2 0x1004 JUMP JUMPDEST DUP3 DUP3 DUP2 MLOAD DUP2 LT PUSH2 0xE66 JUMPI PUSH2 0xE66 PUSH2 0x1503 JUMP JUMPDEST PUSH1 0x1 PUSH1 0x1 PUSH1 0xA0 SHL SUB SWAP1 SWAP3 AND PUSH1 0x20 SWAP3 DUP4 MUL SWAP2 SWAP1 SWAP2 ADD SWAP1 SWAP2 ADD MSTORE DUP1 PUSH2 0xE88 DUP2 PUSH2 0x1519 JUMP JUMPDEST SWAP2 POP POP PUSH2 0xE42 JUMP JUMPDEST PUSH1 0x0 PUSH2 0xDCD DUP4 DUP4 PUSH2 0x1010 JUMP JUMPDEST PUSH1 0x0 PUSH2 0xDCD DUP4 PUSH1 0x1 PUSH1 0x1 PUSH1 0xA0 SHL SUB DUP5 AND PUSH2 0x1010 JUMP JUMPDEST PUSH1 0x0 PUSH2 0xDCD DUP4 DUP4 PUSH2 0xFAB JUMP JUMPDEST PUSH1 0x0 DUP1 SLOAD PUSH1 0x1 PUSH1 0x1 PUSH1 0xA0 SHL SUB NOT AND PUSH1 0x1 PUSH1 0x1 PUSH1 0xA0 SHL SUB DUP4 AND SWAP1 DUP2 OR DUP3 SSTORE PUSH1 0x40 DUP1 MLOAD SWAP3 DUP4 MSTORE PUSH1 0x20 DUP4 ADD SWAP2 SWAP1 SWAP2 MSTORE PUSH32 0xDE4B3F61490B74C0ED6237523974FE299126BBBF8A8A7482FD220104C59B0C84 SWAP2 ADD PUSH2 0x47F JUMP JUMPDEST PUSH1 0x60 PUSH1 0x0 PUSH2 0xF1E DUP4 PUSH2 0xFFA JUMP JUMPDEST SWAP1 POP PUSH1 0x0 DUP2 PUSH8 0xFFFFFFFFFFFFFFFF DUP2 GT ISZERO PUSH2 0xF3B JUMPI PUSH2 0xF3B PUSH2 0x116C JUMP JUMPDEST PUSH1 0x40 MLOAD SWAP1 DUP1 DUP3 MSTORE DUP1 PUSH1 0x20 MUL PUSH1 0x20 ADD DUP3 ADD PUSH1 0x40 MSTORE DUP1 ISZERO PUSH2 0xF64 JUMPI DUP2 PUSH1 0x20 ADD PUSH1 0x20 DUP3 MUL DUP1 CALLDATASIZE DUP4 CALLDATACOPY ADD SWAP1 POP JUMPDEST POP SWAP1 POP PUSH1 0x0 JUMPDEST DUP3 DUP2 LT ISZERO PUSH2 0x65B JUMPI PUSH2 0xF7C DUP6 DUP3 PUSH2 0x1103 JUMP JUMPDEST DUP3 DUP3 DUP2 MLOAD DUP2 LT PUSH2 0xF8E JUMPI PUSH2 0xF8E PUSH2 0x1503 JUMP JUMPDEST PUSH1 0x20 SWAP1 DUP2 MUL SWAP2 SWAP1 SWAP2 ADD ADD MSTORE DUP1 PUSH2 0xFA3 DUP2 PUSH2 0x1519 JUMP JUMPDEST SWAP2 POP POP PUSH2 0xF6A JUMP JUMPDEST PUSH1 0x0 DUP2 DUP2 MSTORE PUSH1 0x1 DUP4 ADD PUSH1 0x20 MSTORE PUSH1 0x40 DUP2 KECCAK256 SLOAD PUSH2 0xFF2 JUMPI POP DUP2 SLOAD PUSH1 0x1 DUP2 DUP2 ADD DUP5 SSTORE PUSH1 0x0 DUP5 DUP2 MSTORE PUSH1 0x20 DUP1 DUP3 KECCAK256 SWAP1 SWAP4 ADD DUP5 SWAP1 SSTORE DUP5 SLOAD DUP5 DUP3 MSTORE DUP3 DUP7 ADD SWAP1 SWAP4 MSTORE PUSH1 0x40 SWAP1 KECCAK256 SWAP2 SWAP1 SWAP2 SSTORE PUSH2 0x5E4 JUMP JUMPDEST POP PUSH1 0x0 PUSH2 0x5E4 JUMP JUMPDEST PUSH1 0x0 PUSH2 0x5E4 DUP3 SLOAD SWAP1 JUMP JUMPDEST PUSH1 0x0 PUSH2 0xDCD DUP4 DUP4 PUSH2 0x110B JUMP JUMPDEST PUSH1 0x0 DUP2 DUP2 MSTORE PUSH1 0x1 DUP4 ADD PUSH1 0x20 MSTORE PUSH1 0x40 DUP2 KECCAK256 SLOAD DUP1 ISZERO PUSH2 0x10F9 JUMPI PUSH1 0x0 PUSH2 0x1034 PUSH1 0x1 DUP4 PUSH2 0x14DD JUMP JUMPDEST DUP6 SLOAD SWAP1 SWAP2 POP PUSH1 0x0 SWAP1 PUSH2 0x1048 SWAP1 PUSH1 0x1 SWAP1 PUSH2 0x14DD JUMP JUMPDEST SWAP1 POP DUP2 DUP2 EQ PUSH2 0x10AD JUMPI PUSH1 0x0 DUP7 PUSH1 0x0 ADD DUP3 DUP2 SLOAD DUP2 LT PUSH2 0x1068 JUMPI PUSH2 0x1068 PUSH2 0x1503 JUMP JUMPDEST SWAP1 PUSH1 0x0 MSTORE PUSH1 0x20 PUSH1 0x0 KECCAK256 ADD SLOAD SWAP1 POP DUP1 DUP8 PUSH1 0x0 ADD DUP5 DUP2 SLOAD DUP2 LT PUSH2 0x108B JUMPI PUSH2 0x108B PUSH2 0x1503 JUMP JUMPDEST PUSH1 0x0 SWAP2 DUP3 MSTORE PUSH1 0x20 DUP1 DUP4 KECCAK256 SWAP1 SWAP2 ADD SWAP3 SWAP1 SWAP3 SSTORE SWAP2 DUP3 MSTORE PUSH1 0x1 DUP9 ADD SWAP1 MSTORE PUSH1 0x40 SWAP1 KECCAK256 DUP4 SWAP1 SSTORE JUMPDEST DUP6 SLOAD DUP7 SWAP1 DUP1 PUSH2 0x10BE JUMPI PUSH2 0x10BE PUSH2 0x1532 JUMP JUMPDEST PUSH1 0x1 SWAP1 SUB DUP2 DUP2 SWAP1 PUSH1 0x0 MSTORE PUSH1 0x20 PUSH1 0x0 KECCAK256 ADD PUSH1 0x0 SWAP1 SSTORE SWAP1 SSTORE DUP6 PUSH1 0x1 ADD PUSH1 0x0 DUP7 DUP2 MSTORE PUSH1 0x20 ADD SWAP1 DUP2 MSTORE PUSH1 0x20 ADD PUSH1 0x0 KECCAK256 PUSH1 0x0 SWAP1 SSTORE PUSH1 0x1 SWAP4 POP POP POP POP PUSH2 0x5E4 JUMP JUMPDEST PUSH1 0x0 SWAP2 POP POP PUSH2 0x5E4 JUMP JUMPDEST PUSH1 0x0 PUSH2 0xDCD DUP4 DUP4 JUMPDEST PUSH1 0x0 DUP3 PUSH1 0x0 ADD DUP3 DUP2 SLOAD DUP2 LT PUSH2 0x1122 JUMPI PUSH2 0x1122 PUSH2 0x1503 JUMP JUMPDEST SWAP1 PUSH1 0x0 MSTORE PUSH1 0x20 PUSH1 0x0 KECCAK256 ADD SLOAD SWAP1 POP SWAP3 SWAP2 POP POP JUMP JUMPDEST DUP1 CALLDATALOAD PUSH1 0x1 PUSH1 0x1 PUSH1 0xA0 SHL SUB DUP2 AND DUP2 EQ PUSH2 0x114C JUMPI PUSH1 0x0 DUP1 REVERT JUMPDEST SWAP2 SWAP1 POP JUMP JUMPDEST PUSH1 0x0 PUSH1 0x20 DUP3 DUP5 SUB SLT ISZERO PUSH2 0x1163 JUMPI PUSH1 0x0 DUP1 REVERT JUMPDEST PUSH2 0xDCD DUP3 PUSH2 0x1135 JUMP JUMPDEST PUSH4 0x4E487B71 PUSH1 0xE0 SHL PUSH1 0x0 MSTORE PUSH1 0x41 PUSH1 0x4 MSTORE PUSH1 0x24 PUSH1 0x0 REVERT JUMPDEST PUSH1 0x0 DUP1 DUP3 DUP5 SUB PUSH1 0x60 DUP2 SLT ISZERO PUSH2 0x1196 JUMPI PUSH1 0x0 DUP1 REVERT JUMPDEST PUSH2 0x119F DUP5 PUSH2 0x1135 JUMP JUMPDEST SWAP3 POP PUSH1 0x40 PUSH1 0x1F NOT DUP3 ADD SLT ISZERO PUSH2 0x11B3 JUMPI PUSH1 0x0 DUP1 REVERT JUMPDEST POP PUSH1 0x40 MLOAD PUSH1 0x40 DUP2 ADD DUP2 DUP2 LT PUSH8 0xFFFFFFFFFFFFFFFF DUP3 GT OR ISZERO PUSH2 0x11D7 JUMPI PUSH2 0x11D7 PUSH2 0x116C JUMP JUMPDEST PUSH1 0x40 SWAP1 DUP2 MSTORE PUSH1 0x20 DUP6 DUP2 ADD CALLDATALOAD DUP4 MSTORE SWAP5 ADD CALLDATALOAD SWAP4 DUP2 ADD SWAP4 SWAP1 SWAP4 MSTORE POP SWAP3 SWAP1 SWAP2 POP JUMP JUMPDEST PUSH1 0x20 DUP1 DUP3 MSTORE DUP3 MLOAD DUP3 DUP3 ADD DUP2 SWAP1 MSTORE PUSH1 0x0 SWAP2 SWAP1 DUP5 DUP3 ADD SWAP1 PUSH1 0x40 DUP6 ADD SWAP1 DUP5 JUMPDEST DUP2 DUP2 LT ISZERO PUSH2 0x1236 JUMPI DUP4 MLOAD PUSH1 0x1 PUSH1 0x1 PUSH1 0xA0 SHL SUB AND DUP4 MSTORE SWAP3 DUP5 ADD SWAP3 SWAP2 DUP5 ADD SWAP2 PUSH1 0x1 ADD PUSH2 0x1211 JUMP JUMPDEST POP SWAP1 SWAP7 SWAP6 POP POP POP POP POP POP JUMP JUMPDEST PUSH1 0x0 DUP1 PUSH1 0x20 DUP4 DUP6 SUB SLT ISZERO PUSH2 0x1255 JUMPI PUSH1 0x0 DUP1 REVERT JUMPDEST DUP3 CALLDATALOAD PUSH8 0xFFFFFFFFFFFFFFFF DUP1 DUP3 GT ISZERO PUSH2 0x126D JUMPI PUSH1 0x0 DUP1 REVERT JUMPDEST DUP2 DUP6 ADD SWAP2 POP DUP6 PUSH1 0x1F DUP4 ADD SLT PUSH2 0x1281 JUMPI PUSH1 0x0 DUP1 REVERT JUMPDEST DUP2 CALLDATALOAD DUP2 DUP2 GT ISZERO PUSH2 0x1290 JUMPI PUSH1 0x0 DUP1 REVERT JUMPDEST DUP7 PUSH1 0x20 DUP3 DUP6 ADD ADD GT ISZERO PUSH2 0x12A2 JUMPI PUSH1 0x0 DUP1 REVERT JUMPDEST PUSH1 0x20 SWAP3 SWAP1 SWAP3 ADD SWAP7 SWAP2 SWAP6 POP SWAP1 SWAP4 POP POP POP POP JUMP JUMPDEST PUSH1 0x0 DUP3 PUSH1 0x1F DUP4 ADD SLT PUSH2 0x12C5 JUMPI PUSH1 0x0 DUP1 REVERT JUMPDEST DUP2 CALLDATALOAD PUSH8 0xFFFFFFFFFFFFFFFF DUP1 DUP3 GT ISZERO PUSH2 0x12E0 JUMPI PUSH2 0x12E0 PUSH2 0x116C JUMP JUMPDEST PUSH1 0x40 MLOAD PUSH1 0x1F DUP4 ADD PUSH1 0x1F NOT SWAP1 DUP2 AND PUSH1 0x3F ADD AND DUP2 ADD SWAP1 DUP3 DUP3 GT DUP2 DUP4 LT OR ISZERO PUSH2 0x1308 JUMPI PUSH2 0x1308 PUSH2 0x116C JUMP JUMPDEST DUP2 PUSH1 0x40 MSTORE DUP4 DUP2 MSTORE DUP7 PUSH1 0x20 DUP6 DUP9 ADD ADD GT ISZERO PUSH2 0x1321 JUMPI PUSH1 0x0 DUP1 REVERT JUMPDEST DUP4 PUSH1 0x20 DUP8 ADD PUSH1 0x20 DUP4 ADD CALLDATACOPY PUSH1 0x0 PUSH1 0x20 DUP6 DUP4 ADD ADD MSTORE DUP1 SWAP5 POP POP POP POP POP SWAP3 SWAP2 POP POP JUMP JUMPDEST PUSH1 0x0 PUSH1 0x20 DUP3 DUP5 SUB SLT ISZERO PUSH2 0x1353 JUMPI PUSH1 0x0 DUP1 REVERT JUMPDEST DUP2 CALLDATALOAD PUSH8 0xFFFFFFFFFFFFFFFF DUP2 GT ISZERO PUSH2 0x136A JUMPI PUSH1 0x0 DUP1 REVERT JUMPDEST PUSH2 0x1376 DUP5 DUP3 DUP6 ADD PUSH2 0x12B4 JUMP JUMPDEST SWAP5 SWAP4 POP POP POP POP JUMP JUMPDEST PUSH1 0x0 DUP1 PUSH1 0x40 DUP4 DUP6 SUB SLT ISZERO PUSH2 0x1391 JUMPI PUSH1 0x0 DUP1 REVERT JUMPDEST DUP3 CALLDATALOAD PUSH8 0xFFFFFFFFFFFFFFFF DUP2 GT ISZERO PUSH2 0x13A8 JUMPI PUSH1 0x0 DUP1 REVERT JUMPDEST PUSH2 0x13B4 DUP6 DUP3 DUP7 ADD PUSH2 0x12B4 JUMP JUMPDEST SWAP3 POP POP PUSH2 0x13C3 PUSH1 0x20 DUP5 ADD PUSH2 0x1135 JUMP JUMPDEST SWAP1 POP SWAP3 POP SWAP3 SWAP1 POP JUMP JUMPDEST PUSH1 0x20 DUP1 DUP3 MSTORE DUP3 MLOAD DUP3 DUP3 ADD DUP2 SWAP1 MSTORE PUSH1 0x0 SWAP2 SWAP1 DUP5 DUP3 ADD SWAP1 PUSH1 0x40 DUP6 ADD SWAP1 DUP5 JUMPDEST DUP2 DUP2 LT ISZERO PUSH2 0x1236 JUMPI DUP4 MLOAD DUP4 MSTORE SWAP3 DUP5 ADD SWAP3 SWAP2 DUP5 ADD SWAP2 PUSH1 0x1 ADD PUSH2 0x13E8 JUMP JUMPDEST PUSH1 0x0 JUMPDEST DUP4 DUP2 LT ISZERO PUSH2 0x141F JUMPI DUP2 DUP2 ADD MLOAD DUP4 DUP3 ADD MSTORE PUSH1 0x20 ADD PUSH2 0x1407 JUMP JUMPDEST POP POP PUSH1 0x0 SWAP2 ADD MSTORE JUMP JUMPDEST PUSH1 0x20 DUP2 MSTORE PUSH1 0x0 DUP3 MLOAD DUP1 PUSH1 0x20 DUP5 ADD MSTORE PUSH2 0x1447 DUP2 PUSH1 0x40 DUP6 ADD PUSH1 0x20 DUP8 ADD PUSH2 0x1404 JUMP JUMPDEST PUSH1 0x1F ADD PUSH1 0x1F NOT AND SWAP2 SWAP1 SWAP2 ADD PUSH1 0x40 ADD SWAP3 SWAP2 POP POP JUMP JUMPDEST DUP2 DUP4 DUP3 CALLDATACOPY PUSH1 0x0 SWAP2 ADD SWAP1 DUP2 MSTORE SWAP2 SWAP1 POP JUMP JUMPDEST PUSH1 0x0 DUP3 MLOAD PUSH2 0x147D DUP2 DUP5 PUSH1 0x20 DUP8 ADD PUSH2 0x1404 JUMP JUMPDEST SWAP2 SWAP1 SWAP2 ADD SWAP3 SWAP2 POP POP JUMP JUMPDEST DUP1 MLOAD PUSH1 0x20 DUP1 DUP4 ADD MLOAD SWAP2 SWAP1 DUP2 LT ISZERO PUSH2 0x14A8 JUMPI PUSH1 0x0 NOT DUP2 PUSH1 0x20 SUB PUSH1 0x3 SHL SHL DUP3 AND SWAP2 POP JUMPDEST POP SWAP2 SWAP1 POP JUMP JUMPDEST PUSH1 0x0 PUSH1 0x20 DUP3 DUP5 SUB SLT ISZERO PUSH2 0x14C0 JUMPI PUSH1 0x0 DUP1 REVERT JUMPDEST POP MLOAD SWAP2 SWAP1 POP JUMP JUMPDEST PUSH4 0x4E487B71 PUSH1 0xE0 SHL PUSH1 0x0 MSTORE PUSH1 0x11 PUSH1 0x4 MSTORE PUSH1 0x24 PUSH1 0x0 REVERT JUMPDEST DUP2 DUP2 SUB DUP2 DUP2 GT ISZERO PUSH2 0x5E4 JUMPI PUSH2 0x5E4 PUSH2 0x14C7 JUMP JUMPDEST DUP1 DUP3 ADD DUP1 DUP3 GT ISZERO PUSH2 0x5E4 JUMPI PUSH2 0x5E4 PUSH2 0x14C7 JUMP JUMPDEST PUSH4 0x4E487B71 PUSH1 0xE0 SHL PUSH1 0x0 MSTORE PUSH1 0x32 PUSH1 0x4 MSTORE PUSH1 0x24 PUSH1 0x0 REVERT JUMPDEST PUSH1 0x0 PUSH1 0x1 DUP3 ADD PUSH2 0x152B JUMPI PUSH2 0x152B PUSH2 0x14C7 JUMP JUMPDEST POP PUSH1 0x1 ADD SWAP1 JUMP JUMPDEST PUSH4 0x4E487B71 PUSH1 0xE0 SHL PUSH1 0x0 MSTORE PUSH1 0x31 PUSH1 0x4 MSTORE PUSH1 0x24 PUSH1 0x0 REVERT INVALID LOG2 PUSH5 0x6970667358 0x22 SLT KECCAK256 0x5F PUSH27 0xCE21006CBCD442C52B6B37594CE8439DB0AAB0B3B2A4878A69BE5F PUSH12 0x2CF964736F6C634300081100 CALLER ","sha1":"284ed0a5db1a9729bb46533fb1e5649bcefcb084","source":"// SPDX-License-Identifier: LicenseRef-Gyro-1.0\n// for information on licensing please see the README in the GitHub repository <https://github.com/gyrostable/core-protocol>.\npragma solidity ^0.8.4;\n\nimport \"@openzeppelin/contracts/utils/structs/EnumerableSet.sol\";\n\nimport \"../../interfaces/IAssetRegistry.sol\";\nimport \"../../interfaces/IGyroConfig.sol\";\n\nimport \"../../libraries/Errors.sol\";\nimport \"../../libraries/DataTypes.sol\";\nimport \"../../libraries/ConfigKeys.sol\";\nimport \"../../libraries/EnumerableExtensions.sol\";\n\nimport \"../auth/GovernableUpgradeable.sol\";\n\ncontract AssetRegistry is IAssetRegistry, GovernableUpgradeable {\n    using EnumerableSet for EnumerableSet.AddressSet;\n    using EnumerableSet for EnumerableSet.Bytes32Set;\n    using EnumerableExtensions for EnumerableSet.Bytes32Set;\n    using EnumerableExtensions for EnumerableSet.AddressSet;\n\n    /// @notice a stablecoin should be equal to 1 USD\n    uint256 public constant STABLECOIN_IDEAL_PRICE = 1e18;\n\n    mapping(string => address) internal assets;\n    mapping(address => DataTypes.Range) internal assetRanges;\n\n    IGyroConfig public immutable gyroConfig;\n\n    EnumerableSet.Bytes32Set internal assetNames;\n    EnumerableSet.AddressSet internal assetAddresses;\n    EnumerableSet.AddressSet internal stableAssetAddresses;\n\n    constructor(IGyroConfig _gyroConfig) {\n        gyroConfig = _gyroConfig;\n    }\n\n    /// @inheritdoc IAssetRegistry\n    function isAssetNameRegistered(string calldata assetName)\n        external\n        view\n        override\n        returns (bool)\n    {\n        return assets[assetName] != address(0);\n    }\n\n    /// @inheritdoc IAssetRegistry\n    function isAssetAddressRegistered(address assetAddress) external view override returns (bool) {\n        return assetAddresses.contains(assetAddress);\n    }\n\n    /// @inheritdoc IAssetRegistry\n    function isAssetStable(address assetAddress) external view returns (bool) {\n        return stableAssetAddresses.contains(assetAddress);\n    }\n\n    /// @inheritdoc IAssetRegistry\n    function getAssetRange(address asset) external view override returns (DataTypes.Range memory) {\n        DataTypes.Range memory range = assetRanges[asset];\n        if (range.ceiling == 0) {\n            uint256 maxDeviation = gyroConfig.getUint(ConfigKeys.STABLECOIN_MAX_DEVIATION);\n            range = DataTypes.Range(\n                STABLECOIN_IDEAL_PRICE - maxDeviation,\n                STABLECOIN_IDEAL_PRICE + maxDeviation\n            );\n        }\n        return range;\n    }\n\n    /// @inheritdoc IAssetRegistry\n    function getRegisteredAssetNames() external view returns (bytes32[] memory) {\n        return assetNames.toArray();\n    }\n\n    /// @inheritdoc IAssetRegistry\n    function getRegisteredAssetAddresses() external view returns (address[] memory) {\n        return assetAddresses.toArray();\n    }\n\n    /// @inheritdoc IAssetRegistry\n    function getStableAssets() external view returns (address[] memory) {\n        return stableAssetAddresses.toArray();\n    }\n\n    /// @inheritdoc IAssetRegistry\n    function getAssetAddress(string calldata assetName) external view returns (address) {\n        address assetAddress = assets[assetName];\n        require(assetAddress != address(0), Errors.ASSET_NOT_SUPPORTED);\n        return assetAddress;\n    }\n\n    /// @inheritdoc IAssetRegistry\n    function setAssetAddress(string memory assetName, address assetAddress)\n        external\n        governanceOnly\n    {\n        require(bytes(assetName).length < 32, Errors.INVALID_ARGUMENT);\n        require(assetAddress != address(0), Errors.INVALID_ARGUMENT);\n\n        address previousAddress = assets[assetName];\n        require(previousAddress != assetAddress, Errors.INVALID_ARGUMENT);\n        assets[assetName] = assetAddress;\n\n        assetNames.add(bytes32(bytes(assetName)));\n        assetAddresses.add(assetAddress);\n\n        emit AssetAddressUpdated(assetName, previousAddress, assetAddress);\n    }\n\n    /// @inheritdoc IAssetRegistry\n    function addStableAsset(address asset) external governanceOnly {\n        require(assetAddresses.contains(asset), Errors.ASSET_NOT_SUPPORTED);\n        stableAssetAddresses.add(asset);\n        emit StableAssetAdded(asset);\n    }\n\n    /// @inheritdoc IAssetRegistry\n    function setAssetRange(address asset, DataTypes.Range memory range) external governanceOnly {\n        require(assetAddresses.contains(asset), Errors.ASSET_NOT_SUPPORTED);\n        require(range.floor < range.ceiling, Errors.INVALID_ARGUMENT);\n        assetRanges[asset] = range;\n        emit AssetRangeUpdated(asset, range);\n    }\n\n    /// @inheritdoc IAssetRegistry\n    function removeStableAsset(address asset) external governanceOnly {\n        require(stableAssetAddresses.contains(asset), Errors.ASSET_NOT_SUPPORTED);\n        stableAssetAddresses.remove(asset);\n        emit StableAssetRemoved(asset);\n    }\n\n    /// @inheritdoc IAssetRegistry\n    function removeAsset(string memory assetName) external governanceOnly {\n        address assetAddress = assets[assetName];\n        require(assetAddress != address(0), Errors.ASSET_NOT_SUPPORTED);\n        delete assets[assetName];\n        assetNames.remove(bytes32(bytes(assetName)));\n        assetAddresses.remove(assetAddress);\n        stableAssetAddresses.remove(assetAddress);\n    }\n}\n","sourcePath":"contracts/oracles/AssetRegistry.sol","type":"contract","deployment":{"address":"0x02a569eea6f85736E2D63C59E60d27d075E75c33","chainid":"1","blockHeight":18363425}}