{"abi":[{"inputs":[{"internalType":"contract ReserveManager","name":"_reserveManager","type":"address"},{"internalType":"contract PrimaryAMMV1","name":"_primaryAMMV1","type":"address"}],"stateMutability":"nonpayable","type":"constructor","name":"constructor"},{"inputs":[],"name":"primaryAMMV1","outputs":[{"internalType":"contract PrimaryAMMV1","name":"","type":"address"}],"stateMutability":"view","type":"function"},{"inputs":[],"name":"read","outputs":[{"components":[{"components":[{"internalType":"uint256","name":"totalUSDValue","type":"uint256"},{"components":[{"internalType":"address","name":"vault","type":"address"},{"internalType":"uint8","name":"decimals","type":"uint8"},{"internalType":"address","name":"underlying","type":"address"},{"internalType":"uint256","name":"price","type":"uint256"},{"components":[{"internalType":"uint256","name":"priceAtCalibration","type":"uint256"},{"internalType":"uint256","name":"weightAtCalibration","type":"uint256"},{"internalType":"uint256","name":"shortFlowMemory","type":"uint256"},{"internalType":"uint256","name":"shortFlowThreshold","type":"uint256"},{"internalType":"uint64","name":"weightTransitionDuration","type":"uint64"},{"internalType":"uint64","name":"weightAtPreviousCalibration","type":"uint64"},{"internalType":"uint64","name":"timeOfCalibration","type":"uint64"}],"internalType":"struct DataTypes.PersistedVaultMetadata","name":"persistedMetadata","type":"tuple"},{"internalType":"uint256","name":"reserveBalance","type":"uint256"},{"internalType":"uint256","name":"currentWeight","type":"uint256"},{"internalType":"uint256","name":"targetWeight","type":"uint256"},{"components":[{"internalType":"address","name":"tokenAddress","type":"address"},{"internalType":"bool","name":"isStable","type":"bool"},{"internalType":"uint256","name":"price","type":"uint256"},{"components":[{"internalType":"uint256","name":"floor","type":"uint256"},{"internalType":"uint256","name":"ceiling","type":"uint256"}],"internalType":"struct DataTypes.Range","name":"priceRange","type":"tuple"}],"internalType":"struct DataTypes.PricedToken[]","name":"pricedTokens","type":"tuple[]"}],"internalType":"struct DataTypes.VaultInfo[]","name":"vaults","type":"tuple[]"}],"internalType":"struct DataTypes.ReserveState","name":"reserveState","type":"tuple"},{"components":[{"internalType":"uint64","name":"alphaBar","type":"uint64"},{"internalType":"uint64","name":"xuBar","type":"uint64"},{"internalType":"uint64","name":"thetaBar","type":"uint64"},{"internalType":"uint64","name":"outflowMemory","type":"uint64"}],"internalType":"struct IPAMM.Params","name":"systemParams","type":"tuple"},{"internalType":"uint256","name":"redemptionLevel","type":"uint256"},{"internalType":"uint256","name":"redemptionPrice","type":"uint256"}],"internalType":"struct ReserveSystemRead.ReadValues","name":"","type":"tuple"}],"stateMutability":"view","type":"function"},{"inputs":[{"internalType":"uint256","name":"totalUSDValue","type":"uint256"}],"name":"readWithoutReserveState","outputs":[{"components":[{"components":[{"internalType":"uint64","name":"alphaBar","type":"uint64"},{"internalType":"uint64","name":"xuBar","type":"uint64"},{"internalType":"uint64","name":"thetaBar","type":"uint64"},{"internalType":"uint64","name":"outflowMemory","type":"uint64"}],"internalType":"struct IPAMM.Params","name":"systemParams","type":"tuple"},{"internalType":"uint256","name":"redemptionLevel","type":"uint256"},{"internalType":"uint256","name":"redemptionPrice","type":"uint256"}],"internalType":"struct ReserveSystemRead.ReadValuesWithoutReserveState","name":"","type":"tuple"}],"stateMutability":"view","type":"function"},{"inputs":[],"name":"reserveManager","outputs":[{"internalType":"contract ReserveManager","name":"","type":"address"}],"stateMutability":"view","type":"function"}],"bytecode":"60c060405234801561001057600080fd5b50604051610e28380380610e2883398101604081905261002f9161005e565b6001600160a01b039182166080521660a052610098565b6001600160a01b038116811461005b57600080fd5b50565b6000806040838503121561007157600080fd5b825161007c81610046565b602084015190925061008d81610046565b809150509250929050565b60805160a051610d3c6100ec600039600081816074015281816101d2015281816102580152818161030c015281816103c10152818161044701526104f901526000818160b301526101480152610d3c6000f3fe608060405234801561001057600080fd5b506004361061004c5760003560e01c806357de26a41461005157806361c374881461006f578063bb004abc146100ae578063e8e6bfdc146100d5575b600080fd5b61005961013c565b6040516100669190610684565b60405180910390f35b6100967f000000000000000000000000000000000000000000000000000000000000000081565b6040516001600160a01b039091168152602001610066565b6100967f000000000000000000000000000000000000000000000000000000000000000081565b6100e86100e3366004610830565b6103b5565b604080518251805167ffffffffffffffff90811683526020808301518216818501528285015182168486015260609283015190911691830191909152830151608082015291015160a082015260c001610066565b610144610587565b60007f00000000000000000000000000000000000000000000000000000000000000006001600160a01b031663ef5bac256040518163ffffffff1660e01b8152600401600060405180830381865afa1580156101a4573d6000803e3d6000fd5b505050506040513d6000823e601f3d908101601f191682016040526101cc9190810190610ae3565b905060007f00000000000000000000000000000000000000000000000000000000000000006001600160a01b031663458e8e6b6040518163ffffffff1660e01b8152600401608060405180830381865afa15801561022e573d6000803e3d6000fd5b505050506040513d601f19601f820116820180604052508101906102529190610c70565b905060007f00000000000000000000000000000000000000000000000000000000000000006001600160a01b0316635baaeaab6040518163ffffffff1660e01b8152600401602060405180830381865afa1580156102b4573d6000803e3d6000fd5b505050506040513d601f19601f820116820180604052508101906102d89190610ced565b835190915060009015610384578351604051631c76d8fb60e21b8152670de0b6b3a7640000600482015260248101919091527f00000000000000000000000000000000000000000000000000000000000000006001600160a01b0316906371db63ec90604401602060405180830381865afa15801561035b573d6000803e3d6000fd5b505050506040513d601f19601f8201168201806040525081019061037f9190610ced565b61038e565b670de0b6b3a76400005b60408051608081018252958652602086019490945292840191909152506060820152919050565b6103bd6105e0565b60007f00000000000000000000000000000000000000000000000000000000000000006001600160a01b031663458e8e6b6040518163ffffffff1660e01b8152600401608060405180830381865afa15801561041d573d6000803e3d6000fd5b505050506040513d601f19601f820116820180604052508101906104419190610c70565b905060007f00000000000000000000000000000000000000000000000000000000000000006001600160a01b0316635baaeaab6040518163ffffffff1660e01b8152600401602060405180830381865afa1580156104a3573d6000803e3d6000fd5b505050506040513d601f19601f820116820180604052508101906104c79190610ced565b604051631c76d8fb60e21b8152670de0b6b3a76400006004820152602481018690529091506000906001600160a01b037f000000000000000000000000000000000000000000000000000000000000000016906371db63ec90604401602060405180830381865afa158015610540573d6000803e3d6000fd5b505050506040513d601f19601f820116820180604052508101906105649190610ced565b604080516060810182529485526020850193909352918301919091525092915050565b6040805160c08101909152600060808201908152606060a083015281908152604080516080810182526000808252602082810182905292820181905260608201529101905b815260200160008152602001600081525090565b6040805160e081019091526000606082018181526080830182905260a0830182905260c083019190915281906105cc565b600081518084526020808501945080840160005b8381101561067957815180516001600160a01b031688528381015115158489015260408082015190890152606090810151805191890191909152830151608088015260a09096019590820190600101610625565b509495945050505050565b60006020808352610100845160e0808487015261014086018251848801528483015192506040806101208901528184518084526101609350838a019150838160051b8b0101888701965060005b828110156107cf578b820361015f19018452875180516001600160a01b031683526101e0818c015160ff8116858e015250818701516001600160a01b0381168589015250606082810151908501526080808301516107828287018280518252602081015160208301526040810151604083015260608101516060830152608081015167ffffffffffffffff80821660808501528060a08401511660a08501528060c08401511660c085015250505050565b505060a08201518885015260c0820151610180850152888201516101a08501528a8201519150806101c08501526107bb81850183610611565b998c0199958c0195935050506001016106d1565b50978b0151976108108b85018a805167ffffffffffffffff908116835260208083015182169084015260408083015182169084015260609182015116910152565b928b015160c08b0152505060609098015191909601525093949350505050565b60006020828403121561084257600080fd5b5035919050565b634e487b7160e01b600052604160045260246000fd5b6040516080810167ffffffffffffffff8111828210171561088257610882610849565b60405290565b6040805190810167ffffffffffffffff8111828210171561088257610882610849565b604051610120810167ffffffffffffffff8111828210171561088257610882610849565b604051601f8201601f1916810167ffffffffffffffff811182821017156108f8576108f8610849565b604052919050565b600067ffffffffffffffff82111561091a5761091a610849565b5060051b60200190565b80516001600160a01b038116811461093b57600080fd5b919050565b805160ff8116811461093b57600080fd5b805167ffffffffffffffff8116811461093b57600080fd5b600060e0828403121561097b57600080fd5b60405160e0810181811067ffffffffffffffff8211171561099e5761099e610849565b8060405250809150825181526020830151602082015260408301516040820152606083015160608201526109d460808401610951565b60808201526109e560a08401610951565b60a08201526109f660c08401610951565b60c08201525092915050565b600082601f830112610a1357600080fd5b81516020610a28610a2383610900565b6108cf565b82815260a09283028501820192828201919087851115610a4757600080fd5b8387015b85811015610ad65780890382811215610a645760008081fd5b610a6c61085f565b610a7583610924565b8152868301518015158114610a8a5760008081fd5b81880152604083810151818301526060605f198401821315610aac5760008081fd5b610ab4610888565b85820151815260808601518a8201529083015250855250928401928101610a4b565b5090979650505050505050565b60006020808385031215610af657600080fd5b825167ffffffffffffffff80821115610b0e57600080fd5b9084019060408287031215610b2257600080fd5b610b2a610888565b825181528383015182811115610b3f57600080fd5b80840193505086601f840112610b5457600080fd5b8251610b62610a2382610900565b81815260059190911b84018501908581019089831115610b8157600080fd5b8686015b83811015610c5d57805186811115610b9c57600080fd5b87016101e0818d03601f1901811315610bb457600080fd5b610bbc6108ab565b610bc78b8401610924565b8152610bd560408401610940565b8b820152610be560608401610924565b60408201526080830151606082015260a0610c028f828601610969565b6080830152610180840151908201526101a083015160c08201526101c083015160e0820152908201519088821115610c3a5760008081fd5b610c488e8c84860101610a02565b61010082015285525050918701918701610b85565b5095830195909552509695505050505050565b600060808284031215610c8257600080fd5b6040516080810181811067ffffffffffffffff82111715610ca557610ca5610849565b604052610cb183610951565b8152610cbf60208401610951565b6020820152610cd060408401610951565b6040820152610ce160608401610951565b60608201529392505050565b600060208284031215610cff57600080fd5b505191905056fea26469706673582212207c0a32333838019a885cabda884dca4d17a04e02fa310ad2257f210d0c24a80764736f6c63430008110033","bytecodeSha1":"1a7440dd8f93b107649ac2a83bf6ded2ea3e512d","compiler":{"evm_version":"london","optimizer":{"enabled":true,"runs":200},"version":"0.8.17+commit.8df45f5f"},"contractName":"ReserveSystemRead","language":"Solidity","natspec":{"kind":"dev","methods":{},"title":"ReserveSystemRead is a view only contract which allows the UI to retrieve important reserve variables in one RPC call","version":1},"opcodes":"PUSH1 0x80 PUSH1 0x40 MSTORE CALLVALUE DUP1 ISZERO PUSH2 0x10 JUMPI PUSH1 0x0 DUP1 REVERT JUMPDEST POP PUSH1 0x4 CALLDATASIZE LT PUSH2 0x4C JUMPI PUSH1 0x0 CALLDATALOAD PUSH1 0xE0 SHR DUP1 PUSH4 0x57DE26A4 EQ PUSH2 0x51 JUMPI DUP1 PUSH4 0x61C37488 EQ PUSH2 0x6F JUMPI DUP1 PUSH4 0xBB004ABC EQ PUSH2 0xAE JUMPI DUP1 PUSH4 0xE8E6BFDC EQ PUSH2 0xD5 JUMPI JUMPDEST PUSH1 0x0 DUP1 REVERT JUMPDEST PUSH2 0x59 PUSH2 0x13C JUMP JUMPDEST PUSH1 0x40 MLOAD PUSH2 0x66 SWAP2 SWAP1 PUSH2 0x684 JUMP JUMPDEST PUSH1 0x40 MLOAD DUP1 SWAP2 SUB SWAP1 RETURN JUMPDEST PUSH2 0x96 PUSH32 0x0 DUP2 JUMP JUMPDEST PUSH1 0x40 MLOAD PUSH1 0x1 PUSH1 0x1 PUSH1 0xA0 SHL SUB SWAP1 SWAP2 AND DUP2 MSTORE PUSH1 0x20 ADD PUSH2 0x66 JUMP JUMPDEST PUSH2 0x96 PUSH32 0x0 DUP2 JUMP JUMPDEST PUSH2 0xE8 PUSH2 0xE3 CALLDATASIZE PUSH1 0x4 PUSH2 0x830 JUMP JUMPDEST PUSH2 0x3B5 JUMP JUMPDEST PUSH1 0x40 DUP1 MLOAD DUP3 MLOAD DUP1 MLOAD PUSH8 0xFFFFFFFFFFFFFFFF SWAP1 DUP2 AND DUP4 MSTORE PUSH1 0x20 DUP1 DUP4 ADD MLOAD DUP3 AND DUP2 DUP6 ADD MSTORE DUP3 DUP6 ADD MLOAD DUP3 AND DUP5 DUP7 ADD MSTORE PUSH1 0x60 SWAP3 DUP4 ADD MLOAD SWAP1 SWAP2 AND SWAP2 DUP4 ADD SWAP2 SWAP1 SWAP2 MSTORE DUP4 ADD MLOAD PUSH1 0x80 DUP3 ADD MSTORE SWAP2 ADD MLOAD PUSH1 0xA0 DUP3 ADD MSTORE PUSH1 0xC0 ADD PUSH2 0x66 JUMP JUMPDEST PUSH2 0x144 PUSH2 0x587 JUMP JUMPDEST PUSH1 0x0 PUSH32 0x0 PUSH1 0x1 PUSH1 0x1 PUSH1 0xA0 SHL SUB AND PUSH4 0xEF5BAC25 PUSH1 0x40 MLOAD DUP2 PUSH4 0xFFFFFFFF AND PUSH1 0xE0 SHL DUP2 MSTORE PUSH1 0x4 ADD PUSH1 0x0 PUSH1 0x40 MLOAD DUP1 DUP4 SUB DUP2 DUP7 GAS STATICCALL ISZERO DUP1 ISZERO PUSH2 0x1A4 JUMPI RETURNDATASIZE PUSH1 0x0 DUP1 RETURNDATACOPY RETURNDATASIZE PUSH1 0x0 REVERT JUMPDEST POP POP POP POP PUSH1 0x40 MLOAD RETURNDATASIZE PUSH1 0x0 DUP3 RETURNDATACOPY PUSH1 0x1F RETURNDATASIZE SWAP1 DUP2 ADD PUSH1 0x1F NOT AND DUP3 ADD PUSH1 0x40 MSTORE PUSH2 0x1CC SWAP2 SWAP1 DUP2 ADD SWAP1 PUSH2 0xAE3 JUMP JUMPDEST SWAP1 POP PUSH1 0x0 PUSH32 0x0 PUSH1 0x1 PUSH1 0x1 PUSH1 0xA0 SHL SUB AND PUSH4 0x458E8E6B PUSH1 0x40 MLOAD DUP2 PUSH4 0xFFFFFFFF AND PUSH1 0xE0 SHL DUP2 MSTORE PUSH1 0x4 ADD PUSH1 0x80 PUSH1 0x40 MLOAD DUP1 DUP4 SUB DUP2 DUP7 GAS STATICCALL ISZERO DUP1 ISZERO PUSH2 0x22E JUMPI RETURNDATASIZE PUSH1 0x0 DUP1 RETURNDATACOPY RETURNDATASIZE PUSH1 0x0 REVERT JUMPDEST POP POP POP POP PUSH1 0x40 MLOAD RETURNDATASIZE PUSH1 0x1F NOT PUSH1 0x1F DUP3 ADD AND DUP3 ADD DUP1 PUSH1 0x40 MSTORE POP DUP2 ADD SWAP1 PUSH2 0x252 SWAP2 SWAP1 PUSH2 0xC70 JUMP JUMPDEST SWAP1 POP PUSH1 0x0 PUSH32 0x0 PUSH1 0x1 PUSH1 0x1 PUSH1 0xA0 SHL SUB AND PUSH4 0x5BAAEAAB PUSH1 0x40 MLOAD DUP2 PUSH4 0xFFFFFFFF AND PUSH1 0xE0 SHL DUP2 MSTORE PUSH1 0x4 ADD PUSH1 0x20 PUSH1 0x40 MLOAD DUP1 DUP4 SUB DUP2 DUP7 GAS STATICCALL ISZERO DUP1 ISZERO PUSH2 0x2B4 JUMPI RETURNDATASIZE PUSH1 0x0 DUP1 RETURNDATACOPY RETURNDATASIZE PUSH1 0x0 REVERT JUMPDEST POP POP POP POP PUSH1 0x40 MLOAD RETURNDATASIZE PUSH1 0x1F NOT PUSH1 0x1F DUP3 ADD AND DUP3 ADD DUP1 PUSH1 0x40 MSTORE POP DUP2 ADD SWAP1 PUSH2 0x2D8 SWAP2 SWAP1 PUSH2 0xCED JUMP JUMPDEST DUP4 MLOAD SWAP1 SWAP2 POP PUSH1 0x0 SWAP1 ISZERO PUSH2 0x384 JUMPI DUP4 MLOAD PUSH1 0x40 MLOAD PUSH4 0x1C76D8FB PUSH1 0xE2 SHL DUP2 MSTORE PUSH8 0xDE0B6B3A7640000 PUSH1 0x4 DUP3 ADD MSTORE PUSH1 0x24 DUP2 ADD SWAP2 SWAP1 SWAP2 MSTORE PUSH32 0x0 PUSH1 0x1 PUSH1 0x1 PUSH1 0xA0 SHL SUB AND SWAP1 PUSH4 0x71DB63EC SWAP1 PUSH1 0x44 ADD PUSH1 0x20 PUSH1 0x40 MLOAD DUP1 DUP4 SUB DUP2 DUP7 GAS STATICCALL ISZERO DUP1 ISZERO PUSH2 0x35B JUMPI RETURNDATASIZE PUSH1 0x0 DUP1 RETURNDATACOPY RETURNDATASIZE PUSH1 0x0 REVERT JUMPDEST POP POP POP POP PUSH1 0x40 MLOAD RETURNDATASIZE PUSH1 0x1F NOT PUSH1 0x1F DUP3 ADD AND DUP3 ADD DUP1 PUSH1 0x40 MSTORE POP DUP2 ADD SWAP1 PUSH2 0x37F SWAP2 SWAP1 PUSH2 0xCED JUMP JUMPDEST PUSH2 0x38E JUMP JUMPDEST PUSH8 0xDE0B6B3A7640000 JUMPDEST PUSH1 0x40 DUP1 MLOAD PUSH1 0x80 DUP2 ADD DUP3 MSTORE SWAP6 DUP7 MSTORE PUSH1 0x20 DUP7 ADD SWAP5 SWAP1 SWAP5 MSTORE SWAP3 DUP5 ADD SWAP2 SWAP1 SWAP2 MSTORE POP PUSH1 0x60 DUP3 ADD MSTORE SWAP2 SWAP1 POP JUMP JUMPDEST PUSH2 0x3BD PUSH2 0x5E0 JUMP JUMPDEST PUSH1 0x0 PUSH32 0x0 PUSH1 0x1 PUSH1 0x1 PUSH1 0xA0 SHL SUB AND PUSH4 0x458E8E6B PUSH1 0x40 MLOAD DUP2 PUSH4 0xFFFFFFFF AND PUSH1 0xE0 SHL DUP2 MSTORE PUSH1 0x4 ADD PUSH1 0x80 PUSH1 0x40 MLOAD DUP1 DUP4 SUB DUP2 DUP7 GAS STATICCALL ISZERO DUP1 ISZERO PUSH2 0x41D JUMPI RETURNDATASIZE PUSH1 0x0 DUP1 RETURNDATACOPY RETURNDATASIZE PUSH1 0x0 REVERT JUMPDEST POP POP POP POP PUSH1 0x40 MLOAD RETURNDATASIZE PUSH1 0x1F NOT PUSH1 0x1F DUP3 ADD AND DUP3 ADD DUP1 PUSH1 0x40 MSTORE POP DUP2 ADD SWAP1 PUSH2 0x441 SWAP2 SWAP1 PUSH2 0xC70 JUMP JUMPDEST SWAP1 POP PUSH1 0x0 PUSH32 0x0 PUSH1 0x1 PUSH1 0x1 PUSH1 0xA0 SHL SUB AND PUSH4 0x5BAAEAAB PUSH1 0x40 MLOAD DUP2 PUSH4 0xFFFFFFFF AND PUSH1 0xE0 SHL DUP2 MSTORE PUSH1 0x4 ADD PUSH1 0x20 PUSH1 0x40 MLOAD DUP1 DUP4 SUB DUP2 DUP7 GAS STATICCALL ISZERO DUP1 ISZERO PUSH2 0x4A3 JUMPI RETURNDATASIZE PUSH1 0x0 DUP1 RETURNDATACOPY RETURNDATASIZE PUSH1 0x0 REVERT JUMPDEST POP POP POP POP PUSH1 0x40 MLOAD RETURNDATASIZE PUSH1 0x1F NOT PUSH1 0x1F DUP3 ADD AND DUP3 ADD DUP1 PUSH1 0x40 MSTORE POP DUP2 ADD SWAP1 PUSH2 0x4C7 SWAP2 SWAP1 PUSH2 0xCED JUMP JUMPDEST PUSH1 0x40 MLOAD PUSH4 0x1C76D8FB PUSH1 0xE2 SHL DUP2 MSTORE PUSH8 0xDE0B6B3A7640000 PUSH1 0x4 DUP3 ADD MSTORE PUSH1 0x24 DUP2 ADD DUP7 SWAP1 MSTORE SWAP1 SWAP2 POP PUSH1 0x0 SWAP1 PUSH1 0x1 PUSH1 0x1 PUSH1 0xA0 SHL SUB PUSH32 0x0 AND SWAP1 PUSH4 0x71DB63EC SWAP1 PUSH1 0x44 ADD PUSH1 0x20 PUSH1 0x40 MLOAD DUP1 DUP4 SUB DUP2 DUP7 GAS STATICCALL ISZERO DUP1 ISZERO PUSH2 0x540 JUMPI RETURNDATASIZE PUSH1 0x0 DUP1 RETURNDATACOPY RETURNDATASIZE PUSH1 0x0 REVERT JUMPDEST POP POP POP POP PUSH1 0x40 MLOAD RETURNDATASIZE PUSH1 0x1F NOT PUSH1 0x1F DUP3 ADD AND DUP3 ADD DUP1 PUSH1 0x40 MSTORE POP DUP2 ADD SWAP1 PUSH2 0x564 SWAP2 SWAP1 PUSH2 0xCED JUMP JUMPDEST PUSH1 0x40 DUP1 MLOAD PUSH1 0x60 DUP2 ADD DUP3 MSTORE SWAP5 DUP6 MSTORE PUSH1 0x20 DUP6 ADD SWAP4 SWAP1 SWAP4 MSTORE SWAP2 DUP4 ADD SWAP2 SWAP1 SWAP2 MSTORE POP SWAP3 SWAP2 POP POP JUMP JUMPDEST PUSH1 0x40 DUP1 MLOAD PUSH1 0xC0 DUP2 ADD SWAP1 SWAP2 MSTORE PUSH1 0x0 PUSH1 0x80 DUP3 ADD SWAP1 DUP2 MSTORE PUSH1 0x60 PUSH1 0xA0 DUP4 ADD MSTORE DUP2 SWAP1 DUP2 MSTORE PUSH1 0x40 DUP1 MLOAD PUSH1 0x80 DUP2 ADD DUP3 MSTORE PUSH1 0x0 DUP1 DUP3 MSTORE PUSH1 0x20 DUP3 DUP2 ADD DUP3 SWAP1 MSTORE SWAP3 DUP3 ADD DUP2 SWAP1 MSTORE PUSH1 0x60 DUP3 ADD MSTORE SWAP2 ADD SWAP1 JUMPDEST DUP2 MSTORE PUSH1 0x20 ADD PUSH1 0x0 DUP2 MSTORE PUSH1 0x20 ADD PUSH1 0x0 DUP2 MSTORE POP SWAP1 JUMP JUMPDEST PUSH1 0x40 DUP1 MLOAD PUSH1 0xE0 DUP2 ADD SWAP1 SWAP2 MSTORE PUSH1 0x0 PUSH1 0x60 DUP3 ADD DUP2 DUP2 MSTORE PUSH1 0x80 DUP4 ADD DUP3 SWAP1 MSTORE PUSH1 0xA0 DUP4 ADD DUP3 SWAP1 MSTORE PUSH1 0xC0 DUP4 ADD SWAP2 SWAP1 SWAP2 MSTORE DUP2 SWAP1 PUSH2 0x5CC JUMP JUMPDEST PUSH1 0x0 DUP2 MLOAD DUP1 DUP5 MSTORE PUSH1 0x20 DUP1 DUP6 ADD SWAP5 POP DUP1 DUP5 ADD PUSH1 0x0 JUMPDEST DUP4 DUP2 LT ISZERO PUSH2 0x679 JUMPI DUP2 MLOAD DUP1 MLOAD PUSH1 0x1 PUSH1 0x1 PUSH1 0xA0 SHL SUB AND DUP9 MSTORE DUP4 DUP2 ADD MLOAD ISZERO ISZERO DUP5 DUP10 ADD MSTORE PUSH1 0x40 DUP1 DUP3 ADD MLOAD SWAP1 DUP10 ADD MSTORE PUSH1 0x60 SWAP1 DUP2 ADD MLOAD DUP1 MLOAD SWAP2 DUP10 ADD SWAP2 SWAP1 SWAP2 MSTORE DUP4 ADD MLOAD PUSH1 0x80 DUP9 ADD MSTORE PUSH1 0xA0 SWAP1 SWAP7 ADD SWAP6 SWAP1 DUP3 ADD SWAP1 PUSH1 0x1 ADD PUSH2 0x625 JUMP JUMPDEST POP SWAP5 SWAP6 SWAP5 POP POP POP POP POP JUMP JUMPDEST PUSH1 0x0 PUSH1 0x20 DUP1 DUP4 MSTORE PUSH2 0x100 DUP5 MLOAD PUSH1 0xE0 DUP1 DUP5 DUP8 ADD MSTORE PUSH2 0x140 DUP7 ADD DUP3 MLOAD DUP5 DUP9 ADD MSTORE DUP5 DUP4 ADD MLOAD SWAP3 POP PUSH1 0x40 DUP1 PUSH2 0x120 DUP10 ADD MSTORE DUP2 DUP5 MLOAD DUP1 DUP5 MSTORE PUSH2 0x160 SWAP4 POP DUP4 DUP11 ADD SWAP2 POP DUP4 DUP2 PUSH1 0x5 SHL DUP12 ADD ADD DUP9 DUP8 ADD SWAP7 POP PUSH1 0x0 JUMPDEST DUP3 DUP2 LT ISZERO PUSH2 0x7CF JUMPI DUP12 DUP3 SUB PUSH2 0x15F NOT ADD DUP5 MSTORE DUP8 MLOAD DUP1 MLOAD PUSH1 0x1 PUSH1 0x1 PUSH1 0xA0 SHL SUB AND DUP4 MSTORE PUSH2 0x1E0 DUP2 DUP13 ADD MLOAD PUSH1 0xFF DUP2 AND DUP6 DUP15 ADD MSTORE POP DUP2 DUP8 ADD MLOAD PUSH1 0x1 PUSH1 0x1 PUSH1 0xA0 SHL SUB DUP2 AND DUP6 DUP10 ADD MSTORE POP PUSH1 0x60 DUP3 DUP2 ADD MLOAD SWAP1 DUP6 ADD MSTORE PUSH1 0x80 DUP1 DUP4 ADD MLOAD PUSH2 0x782 DUP3 DUP8 ADD DUP3 DUP1 MLOAD DUP3 MSTORE PUSH1 0x20 DUP2 ADD MLOAD PUSH1 0x20 DUP4 ADD MSTORE PUSH1 0x40 DUP2 ADD MLOAD PUSH1 0x40 DUP4 ADD MSTORE PUSH1 0x60 DUP2 ADD MLOAD PUSH1 0x60 DUP4 ADD MSTORE PUSH1 0x80 DUP2 ADD MLOAD PUSH8 0xFFFFFFFFFFFFFFFF DUP1 DUP3 AND PUSH1 0x80 DUP6 ADD MSTORE DUP1 PUSH1 0xA0 DUP5 ADD MLOAD AND PUSH1 0xA0 DUP6 ADD MSTORE DUP1 PUSH1 0xC0 DUP5 ADD MLOAD AND PUSH1 0xC0 DUP6 ADD MSTORE POP POP POP POP JUMP JUMPDEST POP POP PUSH1 0xA0 DUP3 ADD MLOAD DUP9 DUP6 ADD MSTORE PUSH1 0xC0 DUP3 ADD MLOAD PUSH2 0x180 DUP6 ADD MSTORE DUP9 DUP3 ADD MLOAD PUSH2 0x1A0 DUP6 ADD MSTORE DUP11 DUP3 ADD MLOAD SWAP2 POP DUP1 PUSH2 0x1C0 DUP6 ADD MSTORE PUSH2 0x7BB DUP2 DUP6 ADD DUP4 PUSH2 0x611 JUMP JUMPDEST SWAP10 DUP13 ADD SWAP10 SWAP6 DUP13 ADD SWAP6 SWAP4 POP POP POP PUSH1 0x1 ADD PUSH2 0x6D1 JUMP JUMPDEST POP SWAP8 DUP12 ADD MLOAD SWAP8 PUSH2 0x810 DUP12 DUP6 ADD DUP11 DUP1 MLOAD PUSH8 0xFFFFFFFFFFFFFFFF SWAP1 DUP2 AND DUP4 MSTORE PUSH1 0x20 DUP1 DUP4 ADD MLOAD DUP3 AND SWAP1 DUP5 ADD MSTORE PUSH1 0x40 DUP1 DUP4 ADD MLOAD DUP3 AND SWAP1 DUP5 ADD MSTORE PUSH1 0x60 SWAP2 DUP3 ADD MLOAD AND SWAP2 ADD MSTORE JUMP JUMPDEST SWAP3 DUP12 ADD MLOAD PUSH1 0xC0 DUP12 ADD MSTORE POP POP PUSH1 0x60 SWAP1 SWAP9 ADD MLOAD SWAP2 SWAP1 SWAP7 ADD MSTORE POP SWAP4 SWAP5 SWAP4 POP POP POP POP JUMP JUMPDEST PUSH1 0x0 PUSH1 0x20 DUP3 DUP5 SUB SLT ISZERO PUSH2 0x842 JUMPI PUSH1 0x0 DUP1 REVERT JUMPDEST POP CALLDATALOAD SWAP2 SWAP1 POP JUMP JUMPDEST PUSH4 0x4E487B71 PUSH1 0xE0 SHL PUSH1 0x0 MSTORE PUSH1 0x41 PUSH1 0x4 MSTORE PUSH1 0x24 PUSH1 0x0 REVERT JUMPDEST PUSH1 0x40 MLOAD PUSH1 0x80 DUP2 ADD PUSH8 0xFFFFFFFFFFFFFFFF DUP2 GT DUP3 DUP3 LT OR ISZERO PUSH2 0x882 JUMPI PUSH2 0x882 PUSH2 0x849 JUMP JUMPDEST PUSH1 0x40 MSTORE SWAP1 JUMP JUMPDEST PUSH1 0x40 DUP1 MLOAD SWAP1 DUP2 ADD PUSH8 0xFFFFFFFFFFFFFFFF DUP2 GT DUP3 DUP3 LT OR ISZERO PUSH2 0x882 JUMPI PUSH2 0x882 PUSH2 0x849 JUMP JUMPDEST PUSH1 0x40 MLOAD PUSH2 0x120 DUP2 ADD PUSH8 0xFFFFFFFFFFFFFFFF DUP2 GT DUP3 DUP3 LT OR ISZERO PUSH2 0x882 JUMPI PUSH2 0x882 PUSH2 0x849 JUMP JUMPDEST PUSH1 0x40 MLOAD PUSH1 0x1F DUP3 ADD PUSH1 0x1F NOT AND DUP2 ADD PUSH8 0xFFFFFFFFFFFFFFFF DUP2 GT DUP3 DUP3 LT OR ISZERO PUSH2 0x8F8 JUMPI PUSH2 0x8F8 PUSH2 0x849 JUMP JUMPDEST PUSH1 0x40 MSTORE SWAP2 SWAP1 POP JUMP JUMPDEST PUSH1 0x0 PUSH8 0xFFFFFFFFFFFFFFFF DUP3 GT ISZERO PUSH2 0x91A JUMPI PUSH2 0x91A PUSH2 0x849 JUMP JUMPDEST POP PUSH1 0x5 SHL PUSH1 0x20 ADD SWAP1 JUMP JUMPDEST DUP1 MLOAD PUSH1 0x1 PUSH1 0x1 PUSH1 0xA0 SHL SUB DUP2 AND DUP2 EQ PUSH2 0x93B JUMPI PUSH1 0x0 DUP1 REVERT JUMPDEST SWAP2 SWAP1 POP JUMP JUMPDEST DUP1 MLOAD PUSH1 0xFF DUP2 AND DUP2 EQ PUSH2 0x93B JUMPI PUSH1 0x0 DUP1 REVERT JUMPDEST DUP1 MLOAD PUSH8 0xFFFFFFFFFFFFFFFF DUP2 AND DUP2 EQ PUSH2 0x93B JUMPI PUSH1 0x0 DUP1 REVERT JUMPDEST PUSH1 0x0 PUSH1 0xE0 DUP3 DUP5 SUB SLT ISZERO PUSH2 0x97B JUMPI PUSH1 0x0 DUP1 REVERT JUMPDEST PUSH1 0x40 MLOAD PUSH1 0xE0 DUP2 ADD DUP2 DUP2 LT PUSH8 0xFFFFFFFFFFFFFFFF DUP3 GT OR ISZERO PUSH2 0x99E JUMPI PUSH2 0x99E PUSH2 0x849 JUMP JUMPDEST DUP1 PUSH1 0x40 MSTORE POP DUP1 SWAP2 POP DUP3 MLOAD DUP2 MSTORE PUSH1 0x20 DUP4 ADD MLOAD PUSH1 0x20 DUP3 ADD MSTORE PUSH1 0x40 DUP4 ADD MLOAD PUSH1 0x40 DUP3 ADD MSTORE PUSH1 0x60 DUP4 ADD MLOAD PUSH1 0x60 DUP3 ADD MSTORE PUSH2 0x9D4 PUSH1 0x80 DUP5 ADD PUSH2 0x951 JUMP JUMPDEST PUSH1 0x80 DUP3 ADD MSTORE PUSH2 0x9E5 PUSH1 0xA0 DUP5 ADD PUSH2 0x951 JUMP JUMPDEST PUSH1 0xA0 DUP3 ADD MSTORE PUSH2 0x9F6 PUSH1 0xC0 DUP5 ADD PUSH2 0x951 JUMP JUMPDEST PUSH1 0xC0 DUP3 ADD MSTORE POP SWAP3 SWAP2 POP POP JUMP JUMPDEST PUSH1 0x0 DUP3 PUSH1 0x1F DUP4 ADD SLT PUSH2 0xA13 JUMPI PUSH1 0x0 DUP1 REVERT JUMPDEST DUP2 MLOAD PUSH1 0x20 PUSH2 0xA28 PUSH2 0xA23 DUP4 PUSH2 0x900 JUMP JUMPDEST PUSH2 0x8CF JUMP JUMPDEST DUP3 DUP2 MSTORE PUSH1 0xA0 SWAP3 DUP4 MUL DUP6 ADD DUP3 ADD SWAP3 DUP3 DUP3 ADD SWAP2 SWAP1 DUP8 DUP6 GT ISZERO PUSH2 0xA47 JUMPI PUSH1 0x0 DUP1 REVERT JUMPDEST DUP4 DUP8 ADD JUMPDEST DUP6 DUP2 LT ISZERO PUSH2 0xAD6 JUMPI DUP1 DUP10 SUB DUP3 DUP2 SLT ISZERO PUSH2 0xA64 JUMPI PUSH1 0x0 DUP1 DUP2 REVERT JUMPDEST PUSH2 0xA6C PUSH2 0x85F JUMP JUMPDEST PUSH2 0xA75 DUP4 PUSH2 0x924 JUMP JUMPDEST DUP2 MSTORE DUP7 DUP4 ADD MLOAD DUP1 ISZERO ISZERO DUP2 EQ PUSH2 0xA8A JUMPI PUSH1 0x0 DUP1 DUP2 REVERT JUMPDEST DUP2 DUP9 ADD MSTORE PUSH1 0x40 DUP4 DUP2 ADD MLOAD DUP2 DUP4 ADD MSTORE PUSH1 0x60 PUSH1 0x5F NOT DUP5 ADD DUP3 SGT ISZERO PUSH2 0xAAC JUMPI PUSH1 0x0 DUP1 DUP2 REVERT JUMPDEST PUSH2 0xAB4 PUSH2 0x888 JUMP JUMPDEST DUP6 DUP3 ADD MLOAD DUP2 MSTORE PUSH1 0x80 DUP7 ADD MLOAD DUP11 DUP3 ADD MSTORE SWAP1 DUP4 ADD MSTORE POP DUP6 MSTORE POP SWAP3 DUP5 ADD SWAP3 DUP2 ADD PUSH2 0xA4B JUMP JUMPDEST POP SWAP1 SWAP8 SWAP7 POP POP POP POP POP POP POP JUMP JUMPDEST PUSH1 0x0 PUSH1 0x20 DUP1 DUP4 DUP6 SUB SLT ISZERO PUSH2 0xAF6 JUMPI PUSH1 0x0 DUP1 REVERT JUMPDEST DUP3 MLOAD PUSH8 0xFFFFFFFFFFFFFFFF DUP1 DUP3 GT ISZERO PUSH2 0xB0E JUMPI PUSH1 0x0 DUP1 REVERT JUMPDEST SWAP1 DUP5 ADD SWAP1 PUSH1 0x40 DUP3 DUP8 SUB SLT ISZERO PUSH2 0xB22 JUMPI PUSH1 0x0 DUP1 REVERT JUMPDEST PUSH2 0xB2A PUSH2 0x888 JUMP JUMPDEST DUP3 MLOAD DUP2 MSTORE DUP4 DUP4 ADD MLOAD DUP3 DUP2 GT ISZERO PUSH2 0xB3F JUMPI PUSH1 0x0 DUP1 REVERT JUMPDEST DUP1 DUP5 ADD SWAP4 POP POP DUP7 PUSH1 0x1F DUP5 ADD SLT PUSH2 0xB54 JUMPI PUSH1 0x0 DUP1 REVERT JUMPDEST DUP3 MLOAD PUSH2 0xB62 PUSH2 0xA23 DUP3 PUSH2 0x900 JUMP JUMPDEST DUP2 DUP2 MSTORE PUSH1 0x5 SWAP2 SWAP1 SWAP2 SHL DUP5 ADD DUP6 ADD SWAP1 DUP6 DUP2 ADD SWAP1 DUP10 DUP4 GT ISZERO PUSH2 0xB81 JUMPI PUSH1 0x0 DUP1 REVERT JUMPDEST DUP7 DUP7 ADD JUMPDEST DUP4 DUP2 LT ISZERO PUSH2 0xC5D JUMPI DUP1 MLOAD DUP7 DUP2 GT ISZERO PUSH2 0xB9C JUMPI PUSH1 0x0 DUP1 REVERT JUMPDEST DUP8 ADD PUSH2 0x1E0 DUP2 DUP14 SUB PUSH1 0x1F NOT ADD DUP2 SGT ISZERO PUSH2 0xBB4 JUMPI PUSH1 0x0 DUP1 REVERT JUMPDEST PUSH2 0xBBC PUSH2 0x8AB JUMP JUMPDEST PUSH2 0xBC7 DUP12 DUP5 ADD PUSH2 0x924 JUMP JUMPDEST DUP2 MSTORE PUSH2 0xBD5 PUSH1 0x40 DUP5 ADD PUSH2 0x940 JUMP JUMPDEST DUP12 DUP3 ADD MSTORE PUSH2 0xBE5 PUSH1 0x60 DUP5 ADD PUSH2 0x924 JUMP JUMPDEST PUSH1 0x40 DUP3 ADD MSTORE PUSH1 0x80 DUP4 ADD MLOAD PUSH1 0x60 DUP3 ADD MSTORE PUSH1 0xA0 PUSH2 0xC02 DUP16 DUP3 DUP7 ADD PUSH2 0x969 JUMP JUMPDEST PUSH1 0x80 DUP4 ADD MSTORE PUSH2 0x180 DUP5 ADD MLOAD SWAP1 DUP3 ADD MSTORE PUSH2 0x1A0 DUP4 ADD MLOAD PUSH1 0xC0 DUP3 ADD MSTORE PUSH2 0x1C0 DUP4 ADD MLOAD PUSH1 0xE0 DUP3 ADD MSTORE SWAP1 DUP3 ADD MLOAD SWAP1 DUP9 DUP3 GT ISZERO PUSH2 0xC3A JUMPI PUSH1 0x0 DUP1 DUP2 REVERT JUMPDEST PUSH2 0xC48 DUP15 DUP13 DUP5 DUP7 ADD ADD PUSH2 0xA02 JUMP JUMPDEST PUSH2 0x100 DUP3 ADD MSTORE DUP6 MSTORE POP POP SWAP2 DUP8 ADD SWAP2 DUP8 ADD PUSH2 0xB85 JUMP JUMPDEST POP SWAP6 DUP4 ADD SWAP6 SWAP1 SWAP6 MSTORE POP SWAP7 SWAP6 POP POP POP POP POP POP JUMP JUMPDEST PUSH1 0x0 PUSH1 0x80 DUP3 DUP5 SUB SLT ISZERO PUSH2 0xC82 JUMPI PUSH1 0x0 DUP1 REVERT JUMPDEST PUSH1 0x40 MLOAD PUSH1 0x80 DUP2 ADD DUP2 DUP2 LT PUSH8 0xFFFFFFFFFFFFFFFF DUP3 GT OR ISZERO PUSH2 0xCA5 JUMPI PUSH2 0xCA5 PUSH2 0x849 JUMP JUMPDEST PUSH1 0x40 MSTORE PUSH2 0xCB1 DUP4 PUSH2 0x951 JUMP JUMPDEST DUP2 MSTORE PUSH2 0xCBF PUSH1 0x20 DUP5 ADD PUSH2 0x951 JUMP JUMPDEST PUSH1 0x20 DUP3 ADD MSTORE PUSH2 0xCD0 PUSH1 0x40 DUP5 ADD PUSH2 0x951 JUMP JUMPDEST PUSH1 0x40 DUP3 ADD MSTORE PUSH2 0xCE1 PUSH1 0x60 DUP5 ADD PUSH2 0x951 JUMP JUMPDEST PUSH1 0x60 DUP3 ADD MSTORE SWAP4 SWAP3 POP POP POP JUMP JUMPDEST PUSH1 0x0 PUSH1 0x20 DUP3 DUP5 SUB SLT ISZERO PUSH2 0xCFF JUMPI PUSH1 0x0 DUP1 REVERT JUMPDEST POP MLOAD SWAP2 SWAP1 POP JUMP INVALID LOG2 PUSH5 0x6970667358 0x22 SLT KECCAK256 PUSH29 0xA32333838019A885CABDA884DCA4D17A04E02FA310AD2257F210D0C24 0xA8 SMOD PUSH5 0x736F6C6343 STOP ADDMOD GT STOP CALLER ","sha1":"feedb79b2d268d8791e1cc709857803bd90846bb","source":"// SPDX-License-Identifier: LicenseRef-Gyro-1.0\n// for information on licensing please see the README in the GitHub repository <https://github.com/gyrostable/core-protocol>.\npragma solidity ^0.8.4;\n\nimport \"../ReserveManager.sol\";\nimport \"../PrimaryAMMV1.sol\";\nimport \"../../interfaces/IPAMM.sol\";\nimport \"../../libraries/DataTypes.sol\";\n\n/// @title ReserveSystemRead is a view only contract which allows the UI to retrieve important reserve variables in one RPC call\ncontract ReserveSystemRead {\n    ReserveManager public immutable reserveManager;\n    PrimaryAMMV1 public immutable primaryAMMV1;\n\n    struct ReadValues {\n        DataTypes.ReserveState reserveState;\n        IPAMM.Params systemParams;\n        uint256 redemptionLevel;\n        uint256 redemptionPrice;\n    }\n\n    struct ReadValuesWithoutReserveState {\n        IPAMM.Params systemParams;\n        uint256 redemptionLevel;\n        uint256 redemptionPrice;\n    }\n\n    constructor(ReserveManager _reserveManager, PrimaryAMMV1 _primaryAMMV1) {\n        reserveManager = _reserveManager;\n        primaryAMMV1 = _primaryAMMV1;\n    }\n\n    function read() external view returns (ReadValues memory) {\n        DataTypes.ReserveState memory reserveState = reserveManager.getReserveState();\n\n        IPAMM.Params memory systemParams = primaryAMMV1.systemParams();\n        uint256 redemptionLevel = primaryAMMV1.redemptionLevel();\n        uint256 redemptionPrice = reserveState.totalUSDValue == 0\n            ? 1e18\n            : primaryAMMV1.computeRedeemAmount(1e18, reserveState.totalUSDValue);\n\n        return ReadValues(reserveState, systemParams, redemptionLevel, redemptionPrice);\n    }\n\n    function readWithoutReserveState(uint256 totalUSDValue)\n        external\n        view\n        returns (ReadValuesWithoutReserveState memory)\n    {\n        IPAMM.Params memory systemParams = primaryAMMV1.systemParams();\n        uint256 redemptionLevel = primaryAMMV1.redemptionLevel();\n        uint256 redemptionPrice = primaryAMMV1.computeRedeemAmount(1e18, totalUSDValue);\n\n        return ReadValuesWithoutReserveState(systemParams, redemptionLevel, redemptionPrice);\n    }\n}\n","sourcePath":"contracts/read_only/ReserveSystemRead.sol","type":"contract","deployment":{"address":"0x0980E8997dA424D2F2108212c6461c42A85c6754","chainid":"1","blockHeight":18577492}}