{"abi":[{"inputs":[{"internalType":"contract IGyroConfig","name":"_gyroConfig","type":"address"}],"stateMutability":"nonpayable","type":"constructor","name":"constructor"},{"anonymous":false,"inputs":[{"indexed":false,"internalType":"address","name":"newGovernor","type":"address"}],"name":"GovernorChangeRequested","type":"event"},{"anonymous":false,"inputs":[{"indexed":false,"internalType":"address","name":"oldGovernor","type":"address"},{"indexed":false,"internalType":"address","name":"newGovernor","type":"address"}],"name":"GovernorChanged","type":"event"},{"anonymous":false,"inputs":[{"indexed":false,"internalType":"uint8","name":"version","type":"uint8"}],"name":"Initialized","type":"event"},{"anonymous":false,"inputs":[{"indexed":true,"internalType":"address","name":"minter","type":"address"},{"indexed":false,"internalType":"uint256","name":"mintedGYDAmount","type":"uint256"},{"indexed":false,"internalType":"uint256","name":"usdValue","type":"uint256"},{"components":[{"components":[{"components":[{"internalType":"address","name":"vault","type":"address"},{"internalType":"uint8","name":"decimals","type":"uint8"},{"internalType":"address","name":"underlying","type":"address"},{"internalType":"uint256","name":"price","type":"uint256"},{"components":[{"internalType":"uint256","name":"priceAtCalibration","type":"uint256"},{"internalType":"uint256","name":"weightAtCalibration","type":"uint256"},{"internalType":"uint256","name":"shortFlowMemory","type":"uint256"},{"internalType":"uint256","name":"shortFlowThreshold","type":"uint256"},{"internalType":"uint64","name":"weightTransitionDuration","type":"uint64"},{"internalType":"uint64","name":"weightAtPreviousCalibration","type":"uint64"},{"internalType":"uint64","name":"timeOfCalibration","type":"uint64"}],"internalType":"struct DataTypes.PersistedVaultMetadata","name":"persistedMetadata","type":"tuple"},{"internalType":"uint256","name":"reserveBalance","type":"uint256"},{"internalType":"uint256","name":"currentWeight","type":"uint256"},{"internalType":"uint256","name":"targetWeight","type":"uint256"},{"components":[{"internalType":"address","name":"tokenAddress","type":"address"},{"internalType":"bool","name":"isStable","type":"bool"},{"internalType":"uint256","name":"price","type":"uint256"},{"components":[{"internalType":"uint256","name":"floor","type":"uint256"},{"internalType":"uint256","name":"ceiling","type":"uint256"}],"internalType":"struct DataTypes.Range","name":"priceRange","type":"tuple"}],"internalType":"struct DataTypes.PricedToken[]","name":"pricedTokens","type":"tuple[]"}],"internalType":"struct DataTypes.VaultInfo","name":"vaultInfo","type":"tuple"},{"internalType":"uint256","name":"amount","type":"uint256"}],"internalType":"struct DataTypes.VaultWithAmount[]","name":"vaultsWithAmount","type":"tuple[]"},{"internalType":"bool","name":"mint","type":"bool"}],"indexed":false,"internalType":"struct DataTypes.Order","name":"orderBeforeFees","type":"tuple"},{"components":[{"components":[{"components":[{"internalType":"address","name":"vault","type":"address"},{"internalType":"uint8","name":"decimals","type":"uint8"},{"internalType":"address","name":"underlying","type":"address"},{"internalType":"uint256","name":"price","type":"uint256"},{"components":[{"internalType":"uint256","name":"priceAtCalibration","type":"uint256"},{"internalType":"uint256","name":"weightAtCalibration","type":"uint256"},{"internalType":"uint256","name":"shortFlowMemory","type":"uint256"},{"internalType":"uint256","name":"shortFlowThreshold","type":"uint256"},{"internalType":"uint64","name":"weightTransitionDuration","type":"uint64"},{"internalType":"uint64","name":"weightAtPreviousCalibration","type":"uint64"},{"internalType":"uint64","name":"timeOfCalibration","type":"uint64"}],"internalType":"struct DataTypes.PersistedVaultMetadata","name":"persistedMetadata","type":"tuple"},{"internalType":"uint256","name":"reserveBalance","type":"uint256"},{"internalType":"uint256","name":"currentWeight","type":"uint256"},{"internalType":"uint256","name":"targetWeight","type":"uint256"},{"components":[{"internalType":"address","name":"tokenAddress","type":"address"},{"internalType":"bool","name":"isStable","type":"bool"},{"internalType":"uint256","name":"price","type":"uint256"},{"components":[{"internalType":"uint256","name":"floor","type":"uint256"},{"internalType":"uint256","name":"ceiling","type":"uint256"}],"internalType":"struct DataTypes.Range","name":"priceRange","type":"tuple"}],"internalType":"struct DataTypes.PricedToken[]","name":"pricedTokens","type":"tuple[]"}],"internalType":"struct DataTypes.VaultInfo","name":"vaultInfo","type":"tuple"},{"internalType":"uint256","name":"amount","type":"uint256"}],"internalType":"struct DataTypes.VaultWithAmount[]","name":"vaultsWithAmount","type":"tuple[]"},{"internalType":"bool","name":"mint","type":"bool"}],"indexed":false,"internalType":"struct DataTypes.Order","name":"orderAfterFees","type":"tuple"}],"name":"Mint","type":"event"},{"anonymous":false,"inputs":[{"indexed":true,"internalType":"address","name":"redeemer","type":"address"},{"indexed":false,"internalType":"uint256","name":"gydToRedeem","type":"uint256"},{"indexed":false,"internalType":"uint256","name":"usdValueToRedeem","type":"uint256"},{"components":[{"components":[{"components":[{"internalType":"address","name":"vault","type":"address"},{"internalType":"uint8","name":"decimals","type":"uint8"},{"internalType":"address","name":"underlying","type":"address"},{"internalType":"uint256","name":"price","type":"uint256"},{"components":[{"internalType":"uint256","name":"priceAtCalibration","type":"uint256"},{"internalType":"uint256","name":"weightAtCalibration","type":"uint256"},{"internalType":"uint256","name":"shortFlowMemory","type":"uint256"},{"internalType":"uint256","name":"shortFlowThreshold","type":"uint256"},{"internalType":"uint64","name":"weightTransitionDuration","type":"uint64"},{"internalType":"uint64","name":"weightAtPreviousCalibration","type":"uint64"},{"internalType":"uint64","name":"timeOfCalibration","type":"uint64"}],"internalType":"struct DataTypes.PersistedVaultMetadata","name":"persistedMetadata","type":"tuple"},{"internalType":"uint256","name":"reserveBalance","type":"uint256"},{"internalType":"uint256","name":"currentWeight","type":"uint256"},{"internalType":"uint256","name":"targetWeight","type":"uint256"},{"components":[{"internalType":"address","name":"tokenAddress","type":"address"},{"internalType":"bool","name":"isStable","type":"bool"},{"internalType":"uint256","name":"price","type":"uint256"},{"components":[{"internalType":"uint256","name":"floor","type":"uint256"},{"internalType":"uint256","name":"ceiling","type":"uint256"}],"internalType":"struct DataTypes.Range","name":"priceRange","type":"tuple"}],"internalType":"struct DataTypes.PricedToken[]","name":"pricedTokens","type":"tuple[]"}],"internalType":"struct DataTypes.VaultInfo","name":"vaultInfo","type":"tuple"},{"internalType":"uint256","name":"amount","type":"uint256"}],"internalType":"struct DataTypes.VaultWithAmount[]","name":"vaultsWithAmount","type":"tuple[]"},{"internalType":"bool","name":"mint","type":"bool"}],"indexed":false,"internalType":"struct DataTypes.Order","name":"orderBeforeFees","type":"tuple"},{"components":[{"components":[{"components":[{"internalType":"address","name":"vault","type":"address"},{"internalType":"uint8","name":"decimals","type":"uint8"},{"internalType":"address","name":"underlying","type":"address"},{"internalType":"uint256","name":"price","type":"uint256"},{"components":[{"internalType":"uint256","name":"priceAtCalibration","type":"uint256"},{"internalType":"uint256","name":"weightAtCalibration","type":"uint256"},{"internalType":"uint256","name":"shortFlowMemory","type":"uint256"},{"internalType":"uint256","name":"shortFlowThreshold","type":"uint256"},{"internalType":"uint64","name":"weightTransitionDuration","type":"uint64"},{"internalType":"uint64","name":"weightAtPreviousCalibration","type":"uint64"},{"internalType":"uint64","name":"timeOfCalibration","type":"uint64"}],"internalType":"struct DataTypes.PersistedVaultMetadata","name":"persistedMetadata","type":"tuple"},{"internalType":"uint256","name":"reserveBalance","type":"uint256"},{"internalType":"uint256","name":"currentWeight","type":"uint256"},{"internalType":"uint256","name":"targetWeight","type":"uint256"},{"components":[{"internalType":"address","name":"tokenAddress","type":"address"},{"internalType":"bool","name":"isStable","type":"bool"},{"internalType":"uint256","name":"price","type":"uint256"},{"components":[{"internalType":"uint256","name":"floor","type":"uint256"},{"internalType":"uint256","name":"ceiling","type":"uint256"}],"internalType":"struct DataTypes.Range","name":"priceRange","type":"tuple"}],"internalType":"struct DataTypes.PricedToken[]","name":"pricedTokens","type":"tuple[]"}],"internalType":"struct DataTypes.VaultInfo","name":"vaultInfo","type":"tuple"},{"internalType":"uint256","name":"amount","type":"uint256"}],"internalType":"struct DataTypes.VaultWithAmount[]","name":"vaultsWithAmount","type":"tuple[]"},{"internalType":"bool","name":"mint","type":"bool"}],"indexed":false,"internalType":"struct DataTypes.Order","name":"orderAfterFees","type":"tuple"}],"name":"Redeem","type":"event"},{"inputs":[],"name":"acceptGovernance","outputs":[],"stateMutability":"nonpayable","type":"function"},{"inputs":[],"name":"bootstrappingSupply","outputs":[{"internalType":"uint256","name":"","type":"uint256"}],"stateMutability":"view","type":"function"},{"inputs":[{"internalType":"address","name":"newGovernor","type":"address"}],"name":"changeGovernor","outputs":[],"stateMutability":"nonpayable","type":"function"},{"inputs":[{"components":[{"internalType":"address","name":"inputToken","type":"address"},{"internalType":"uint256","name":"inputAmount","type":"uint256"},{"internalType":"address","name":"destinationVault","type":"address"}],"internalType":"struct DataTypes.MintAsset[]","name":"assets","type":"tuple[]"},{"internalType":"uint256","name":"minReceivedAmount","type":"uint256"},{"internalType":"address","name":"account","type":"address"}],"name":"dryMint","outputs":[{"internalType":"uint256","name":"mintedGYDAmount","type":"uint256"},{"internalType":"string","name":"err","type":"string"}],"stateMutability":"view","type":"function"},{"inputs":[{"internalType":"uint256","name":"gydToRedeem","type":"uint256"},{"components":[{"internalType":"address","name":"outputToken","type":"address"},{"internalType":"uint256","name":"minOutputAmount","type":"uint256"},{"internalType":"uint256","name":"valueRatio","type":"uint256"},{"internalType":"address","name":"originVault","type":"address"}],"internalType":"struct DataTypes.RedeemAsset[]","name":"assets","type":"tuple[]"}],"name":"dryRedeem","outputs":[{"internalType":"uint256[]","name":"outputAmounts","type":"uint256[]"},{"internalType":"string","name":"err","type":"string"}],"stateMutability":"view","type":"function"},{"inputs":[],"name":"externalActionExecutor","outputs":[{"internalType":"contract IExternalActionExecutor","name":"","type":"address"}],"stateMutability":"view","type":"function"},{"inputs":[],"name":"governor","outputs":[{"internalType":"address","name":"","type":"address"}],"stateMutability":"view","type":"function"},{"inputs":[],"name":"gydToken","outputs":[{"internalType":"contract IGYDToken","name":"","type":"address"}],"stateMutability":"view","type":"function"},{"inputs":[],"name":"gyroConfig","outputs":[{"internalType":"contract IGyroConfig","name":"","type":"address"}],"stateMutability":"view","type":"function"},{"inputs":[{"internalType":"address","name":"_governor","type":"address"}],"name":"initialize","outputs":[],"stateMutability":"nonpayable","type":"function"},{"inputs":[{"components":[{"internalType":"address","name":"inputToken","type":"address"},{"internalType":"uint256","name":"inputAmount","type":"uint256"},{"internalType":"address","name":"destinationVault","type":"address"}],"internalType":"struct DataTypes.MintAsset[]","name":"assets","type":"tuple[]"},{"internalType":"uint256","name":"minReceivedAmount","type":"uint256"}],"name":"mint","outputs":[{"internalType":"uint256","name":"mintedGYDAmount","type":"uint256"}],"stateMutability":"nonpayable","type":"function"},{"inputs":[{"components":[{"internalType":"address","name":"inputToken","type":"address"},{"internalType":"uint256","name":"inputAmount","type":"uint256"},{"internalType":"address","name":"destinationVault","type":"address"}],"internalType":"struct DataTypes.MintAsset[]","name":"assets","type":"tuple[]"},{"internalType":"uint256","name":"minReceivedAmount","type":"uint256"},{"components":[{"internalType":"address","name":"target","type":"address"},{"internalType":"bytes","name":"data","type":"bytes"}],"internalType":"struct DataTypes.ExternalAction[]","name":"actions","type":"tuple[]"}],"name":"mint","outputs":[{"internalType":"uint256","name":"mintedGYDAmount","type":"uint256"}],"stateMutability":"nonpayable","type":"function"},{"inputs":[{"internalType":"uint256","name":"amount","type":"uint256"}],"name":"mintStewardshipIncRewards","outputs":[],"stateMutability":"nonpayable","type":"function"},{"inputs":[],"name":"mintedSupply","outputs":[{"internalType":"uint256","name":"","type":"uint256"}],"stateMutability":"view","type":"function"},{"inputs":[],"name":"pamm","outputs":[{"internalType":"contract IPAMM","name":"","type":"address"}],"stateMutability":"view","type":"function"},{"inputs":[],"name":"pendingGovernor","outputs":[{"internalType":"address","name":"","type":"address"}],"stateMutability":"view","type":"function"},{"inputs":[{"internalType":"uint256","name":"gydToRedeem","type":"uint256"},{"components":[{"internalType":"address","name":"outputToken","type":"address"},{"internalType":"uint256","name":"minOutputAmount","type":"uint256"},{"internalType":"uint256","name":"valueRatio","type":"uint256"},{"internalType":"address","name":"originVault","type":"address"}],"internalType":"struct DataTypes.RedeemAsset[]","name":"assets","type":"tuple[]"},{"components":[{"internalType":"address","name":"target","type":"address"},{"internalType":"bytes","name":"data","type":"bytes"}],"internalType":"struct DataTypes.ExternalAction[]","name":"actions","type":"tuple[]"}],"name":"redeem","outputs":[{"internalType":"uint256[]","name":"outputAmounts","type":"uint256[]"}],"stateMutability":"nonpayable","type":"function"},{"inputs":[{"internalType":"uint256","name":"gydToRedeem","type":"uint256"},{"components":[{"internalType":"address","name":"outputToken","type":"address"},{"internalType":"uint256","name":"minOutputAmount","type":"uint256"},{"internalType":"uint256","name":"valueRatio","type":"uint256"},{"internalType":"address","name":"originVault","type":"address"}],"internalType":"struct DataTypes.RedeemAsset[]","name":"assets","type":"tuple[]"}],"name":"redeem","outputs":[{"internalType":"uint256[]","name":"outputAmounts","type":"uint256[]"}],"stateMutability":"nonpayable","type":"function"},{"inputs":[],"name":"reserve","outputs":[{"internalType":"contract IReserve","name":"","type":"address"}],"stateMutability":"view","type":"function"},{"inputs":[{"internalType":"uint256","name":"_bootstrappingSupply","type":"uint256"}],"name":"setBootstrappingSupply","outputs":[],"stateMutability":"nonpayable","type":"function"}],"bytecode":"6101206040523480156200001257600080fd5b50604051620054b1380380620054b1833981016040819052620000359162000332565b6200003f62000121565b6001600160a01b03811660c08190526200006590620001f0602090811b62001a0617901c565b6001600160a01b03166080816001600160a01b0316815250506200009d816001600160a01b03166200027960201b62001a8c1760201c565b6001600160a01b031660a0816001600160a01b031681525050620000d5816001600160a01b0316620002bb60201b62001acd1760201c565b6001600160a01b031661010052604051620000f0906200030b565b604051809103906000f0801580156200010d573d6000803e3d6000fd5b506001600160a01b031660e0525062000359565b600154600160a81b900460ff1615620001905760405162461bcd60e51b815260206004820152602760248201527f496e697469616c697a61626c653a20636f6e747261637420697320696e697469604482015266616c697a696e6760c81b606482015260840160405180910390fd5b60015460ff600160a01b90910481161015620001ee576001805460ff60a01b191660ff60a01b17905560405160ff81527f7f26b83ff96e1f2b6a682f133852f6798a09c465da95921460cefb38474024989060200160405180910390a15b565b6040516321f8a72160e01b8152704759445f544f4b454e5f4144445245535360781b60048201526000906001600160a01b038316906321f8a721906024015b602060405180830381865afa1580156200024d573d6000803e3d6000fd5b505050506040513d601f19601f8201168201806040525081019062000273919062000332565b92915050565b6040516321f8a72160e01b81526e524553455256455f4144445245535360881b60048201526000906001600160a01b038316906321f8a721906024016200022f565b6040516321f8a72160e01b81527f42414c414e4345525f5641554c545f414444524553530000000000000000000060048201526000906001600160a01b038316906321f8a721906024016200022f565b6105a88062004f0983390190565b6001600160a01b03811681146200032f57600080fd5b50565b6000602082840312156200034557600080fd5b8151620003528162000319565b9392505050565b60805160a05160c05160e05161010051614aa0620004696000396000611bf10152600081816101910152818161094701526116b70152600081816101b8015281816104000152818161049901528181610528015281816105db015281816106f001528181610a5901528181610b9a01528181610c5101528181610d6401528181610e0c01528181610e9b015281816110b0015281816111410152818161125901528181611304015281816113be0152818161152c01528181611563015281816115e501526120df01526000818161029d0152818161069401528181612ed6015261302f0152600081816102f301528181610876015281816110330152818161163b01526117320152614aa06000f3fe608060405234801561001057600080fd5b506004361061012c5760003560e01c8063900a043f116100ad578063e3056a3411610071578063e3056a34146102bf578063e4c0aaf4146102d2578063f3700ab3146102e5578063fbf60028146102ee578063fc196db01461031557600080fd5b8063900a043f14610257578063a75963ea1461026a578063c1bd8cf91461027d578063c4d66de814610285578063cd3293de1461029857600080fd5b8063466342cf116100f4578063466342cf146101da5780634d8ca4c5146101fa5780634e4d822a1461021b578063565294031461022e57806385b0c7811461024f57600080fd5b80630c340a2414610131578063238efcbc146101615780632799c6cf1461016b5780633a854b421461018c57806344bbdb55146101b3575b600080fd5b600054610144906001600160a01b031681565b6040516001600160a01b0390911681526020015b60405180910390f35b610169610328565b005b61017e6101793660046139bd565b6103e1565b604051908152602001610158565b6101447f000000000000000000000000000000000000000000000000000000000000000081565b6101447f000000000000000000000000000000000000000000000000000000000000000081565b6101ed6101e8366004613a90565b61092d565b6040516101589190613b44565b61020d610208366004613b5e565b6109c5565b604051610158929190613bf9565b6101ed610229366004613b5e565b610d0d565b61024161023c366004613c3f565b61122c565b604051610158929190613c9d565b610144611525565b610169610265366004613cb6565b61155e565b61017e610278366004613ccf565b61169d565b61017e61172b565b610169610293366004613d2a565b6117bc565b6101447f000000000000000000000000000000000000000000000000000000000000000081565b600154610144906001600160a01b031681565b6101696102e0366004613d2a565b6118e6565b61017e60345481565b6101447f000000000000000000000000000000000000000000000000000000000000000081565b610169610323366004613cb6565b6119bb565b600154604080518082019091526002815261033360f41b6020820152906001600160a01b031633146103765760405162461bcd60e51b815260040161036d9190613d47565b60405180910390fd5b5060008054600180546001600160a01b03198084166001600160a01b03808416919091179095551690556040805192909116808352336020840152917fde4b3f61490b74c0ed6237523974fe299126bbbf8a8a7482fd220104c59b0c8491015b60405180910390a150565b60006103eb611b15565b60006103f78585611c5d565b9050600061042d7f00000000000000000000000000000000000000000000000000000000000000006001600160a01b0316611d58565b6001600160a01b031663ef5bac256040518163ffffffff1660e01b8152600401600060405180830381865afa15801561046a573d6000803e3d6000fd5b505050506040513d6000823e601f3d908101601f1916820160405261049291908101906140a5565b90506104c67f00000000000000000000000000000000000000000000000000000000000000006001600160a01b0316611da7565b6001600160a01b03166347e41771826040518263ffffffff1660e01b81526004016104f191906142de565b600060405180830381600087803b15801561050b57600080fd5b505af115801561051f573d6000803e3d6000fd5b505050506105557f00000000000000000000000000000000000000000000000000000000000000006001600160a01b0316611df6565b6001600160a01b0316635bd98c77826040518263ffffffff1660e01b815260040161058091906142de565b6020604051808303816000875af115801561059f573d6000803e3d6000fd5b505050506040513d601f19601f820116820180604052508101906105c39190614353565b5060006105d4838360200151611e3c565b90506106087f00000000000000000000000000000000000000000000000000000000000000006001600160a01b0316611f3b565b6001600160a01b03166305d76b9d826040518263ffffffff1660e01b815260040161063391906143f4565b600060405180830381600087803b15801561064d57600080fd5b505af1158015610661573d6000803e3d6000fd5b5050505060005b83518110156106e857600084828151811061068557610685614407565b602002602001015190506106d57f0000000000000000000000000000000000000000000000000000000000000000826020015183600001516001600160a01b0316611f8a9092919063ffffffff16565b50806106e081614433565b915050610668565b50600061071d7f00000000000000000000000000000000000000000000000000000000000000006001600160a01b0316611ff2565b6001600160a01b0316633e9d87e9836040518263ffffffff1660e01b815260040161074891906143f4565b600060405180830381865afa158015610765573d6000803e3d6000fd5b505050506040513d6000823e601f3d908101601f1916820160405261078d919081019061444c565b9050600061079a82612037565b90506107a4611525565b8451604051630d9778e560e11b81526004810184905260248101919091526001600160a01b039190911690631b2ef1ca906044016020604051808303816000875af11580156107f7573d6000803e3d6000fd5b505050506040513d601f19601f8201168201806040525081019061081b9190614578565b955086861015604051806040016040528060018152602001601960f91b815250906108595760405162461bcd60e51b815260040161036d9190613d47565b506040516340c10f1960e01b8152336004820152602481018790527f00000000000000000000000000000000000000000000000000000000000000006001600160a01b0316906340c10f1990604401600060405180830381600087803b1580156108c257600080fd5b505af11580156108d6573d6000803e3d6000fd5b50505050336001600160a01b03167f0e6b487ae7843fcf6c728cbbd5f0f22d17c1ebbcfff196f4bb61550daca65be9878386866040516109199493929190614591565b60405180910390a250505050509392505050565b604051635c12c8e760e01b81526060906001600160a01b037f00000000000000000000000000000000000000000000000000000000000000001690635c12c8e79061097e90869086906004016145c2565b600060405180830381600087803b15801561099857600080fd5b505af11580156109ac573d6000803e3d6000fd5b505050506109bb868686610d0d565b9695505050505050565b6060806109d061172b565b851115604051806040016040528060038152602001620c4c0d60ea1b81525090610a0d5760405162461bcd60e51b815260040161036d9190613d47565b50826001600160401b03811115610a2657610a26613d5a565b604051908082528060200260200182016040528015610a4f578160200160208202803683370190505b5091506000610a867f00000000000000000000000000000000000000000000000000000000000000006001600160a01b0316611d58565b6001600160a01b031663ef5bac256040518163ffffffff1660e01b8152600401600060405180830381865afa158015610ac3573d6000803e3d6000fd5b505050506040513d6000823e601f3d908101601f19168201604052610aeb91908101906140a5565b90506000610b01610afa6120d8565b839061210c565b90506000610b0d611525565b604051631c76d8fb60e21b8152600481018a9052602481018490526001600160a01b0391909116906371db63ec90604401602060405180830381865afa158015610b5b573d6000803e3d6000fd5b505050506040513d601f19601f82011682018060405250810190610b7f9190614578565b90506000610b93828989876020015161219a565b9050610bc77f00000000000000000000000000000000000000000000000000000000000000006001600160a01b0316611f3b565b6001600160a01b0316631c46e999826040518263ffffffff1660e01b8152600401610bf291906143f4565b600060405180830381865afa158015610c0f573d6000803e3d6000fd5b505050506040513d6000823e601f3d908101601f19168201604052610c37919081019061470b565b805190955015610c4a5750505050610d05565b6000610c7e7f00000000000000000000000000000000000000000000000000000000000000006001600160a01b0316611ff2565b6001600160a01b0316633e9d87e9836040518263ffffffff1660e01b8152600401610ca991906143f4565b600060405180830381865afa158015610cc6573d6000803e3d6000fd5b505050506040513d6000823e601f3d908101601f19168201604052610cee919081019061444c565b9050610cfb89898361230e565b9650965050505050505b935093915050565b6060610d17611b15565b610d1f61172b565b841115604051806040016040528060038152602001620c4c0d60ea1b81525090610d5c5760405162461bcd60e51b815260040161036d9190613d47565b506000610d917f00000000000000000000000000000000000000000000000000000000000000006001600160a01b0316611d58565b6001600160a01b031663ef5bac256040518163ffffffff1660e01b8152600401600060405180830381865afa158015610dce573d6000803e3d6000fd5b505050506040513d6000823e601f3d908101601f19168201604052610df691908101906140a5565b90506000610e05610afa6120d8565b9050610e397f00000000000000000000000000000000000000000000000000000000000000006001600160a01b0316611da7565b6001600160a01b03166347e41771836040518263ffffffff1660e01b8152600401610e6491906142de565b600060405180830381600087803b158015610e7e57600080fd5b505af1158015610e92573d6000803e3d6000fd5b50505050610ec87f00000000000000000000000000000000000000000000000000000000000000006001600160a01b0316611df6565b6001600160a01b0316635bd98c77836040518263ffffffff1660e01b8152600401610ef391906142de565b6020604051808303816000875af1158015610f12573d6000803e3d6000fd5b505050506040513d601f19601f82011682018060405250810190610f369190614353565b506000610f41611525565b604051637cbc237360e01b815260048101899052602481018490526001600160a01b039190911690637cbc2373906044016020604051808303816000875af1158015610f91573d6000803e3d6000fd5b505050506040513d601f19601f82011682018060405250810190610fb59190614578565b9050610fd9610fd26509184e72a000670de0b6b3a764000061473f565b889061242f565b8111156040518060400160405280600381526020016203130360ec1b815250906110165760405162461bcd60e51b815260040161036d9190613d47565b5060405163079cc67960e41b8152336004820152602481018890527f00000000000000000000000000000000000000000000000000000000000000006001600160a01b0316906379cc679090604401600060405180830381600087803b15801561107f57600080fd5b505af1158015611093573d6000803e3d6000fd5b5050505060006110a9828888876020015161219a565b90506110dd7f00000000000000000000000000000000000000000000000000000000000000006001600160a01b0316611f3b565b6001600160a01b03166359a047e9826040518263ffffffff1660e01b815260040161110891906143f4565b600060405180830381600087803b15801561112257600080fd5b505af1158015611136573d6000803e3d6000fd5b50505050600061116e7f00000000000000000000000000000000000000000000000000000000000000006001600160a01b0316611ff2565b6001600160a01b0316633e9d87e9836040518263ffffffff1660e01b815260040161119991906143f4565b600060405180830381865afa1580156111b6573d6000803e3d6000fd5b505050506040513d6000823e601f3d908101601f191682016040526111de919081019061444c565b90506111eb888883612450565b9550336001600160a01b03167f9011ced5e66e56fb73e6022eff4e35b5082bc30c39774d4b9e047668e4e7781e8a8585856040516109199493929190614591565b600060608061123b878761257c565b80519093509091501561125257600092505061151c565b60006112867f00000000000000000000000000000000000000000000000000000000000000006001600160a01b0316611d58565b6001600160a01b031663ef5bac256040518163ffffffff1660e01b8152600401600060405180830381865afa1580156112c3573d6000803e3d6000fd5b505050506040513d6000823e601f3d908101601f191682016040526112eb91908101906140a5565b905060006112fd838360200151611e3c565b90506113317f00000000000000000000000000000000000000000000000000000000000000006001600160a01b0316611f3b565b6001600160a01b0316639109b8a3826040518263ffffffff1660e01b815260040161135c91906143f4565b600060405180830381865afa158015611379573d6000803e3d6000fd5b505050506040513d6000823e601f3d908101601f191682016040526113a1919081019061470b565b8051909450156113b7576000945050505061151c565b60006113eb7f00000000000000000000000000000000000000000000000000000000000000006001600160a01b0316611ff2565b6001600160a01b0316633e9d87e9836040518263ffffffff1660e01b815260040161141691906143f4565b600060405180830381865afa158015611433573d6000803e3d6000fd5b505050506040513d6000823e601f3d908101601f1916820160405261145b919081019061444c565b9050600061146882612037565b9050611472611525565b845160405163616a1ed960e01b81526004810184905260248101919091526001600160a01b03919091169063616a1ed990604401602060405180830381865afa1580156114c3573d6000803e3d6000fd5b505050506040513d601f19601f820116820180604052508101906114e79190614578565b9650888710156115165750506040805180820190915260018152601960f91b6020820152935061151c92505050565b50505050505b94509492505050565b60006115597f00000000000000000000000000000000000000000000000000000000000000006001600160a01b0316612690565b905090565b6115907f00000000000000000000000000000000000000000000000000000000000000006001600160a01b0316611da7565b6001600160a01b0316336001600160a01b03161460405180604001604052806002815260200161033360f41b815250906115dd5760405162461bcd60e51b815260040161036d9190613d47565b5060006116127f00000000000000000000000000000000000000000000000000000000000000006001600160a01b03166126ce565b6040516340c10f1960e01b81526001600160a01b038083166004830152602482018590529192507f0000000000000000000000000000000000000000000000000000000000000000909116906340c10f1990604401600060405180830381600087803b15801561168157600080fd5b505af1158015611695573d6000803e3d6000fd5b505050505050565b604051635c12c8e760e01b81526000906001600160a01b037f00000000000000000000000000000000000000000000000000000000000000001690635c12c8e7906116ee90869086906004016145c2565b600060405180830381600087803b15801561170857600080fd5b505af115801561171c573d6000803e3d6000fd5b505050506109bb8686866103e1565b60006034547f00000000000000000000000000000000000000000000000000000000000000006001600160a01b03166318160ddd6040518163ffffffff1660e01b8152600401602060405180830381865afa15801561178e573d6000803e3d6000fd5b505050506040513d601f19601f820116820180604052508101906117b29190614578565b6115599190614752565b600154600160a81b900460ff16158080156117e2575060018054600160a01b900460ff16105b806118025750303b158015611802575060018054600160a01b900460ff16145b6118655760405162461bcd60e51b815260206004820152602e60248201527f496e697469616c697a61626c653a20636f6e747261637420697320616c72656160448201526d191e481a5b9a5d1a585b1a5e995960921b606482015260840161036d565b6001805460ff60a01b1916600160a01b1790558015611892576001805460ff60a81b1916600160a81b1790555b61189b82612714565b80156118e2576001805460ff60a81b191681556040519081527f7f26b83ff96e1f2b6a682f133852f6798a09c465da95921460cefb38474024989060200160405180910390a15b5050565b600054604080518082019091526002815261033360f41b6020820152906001600160a01b0316331461192b5760405162461bcd60e51b815260040161036d9190613d47565b50604080518082019091526002815261333160f01b60208201526001600160a01b03821661196c5760405162461bcd60e51b815260040161036d9190613d47565b50600180546001600160a01b0319166001600160a01b0383169081179091556040519081527f67235ba2e63c748a35b95c4f92a3bbc2a1389938170a5ce6c9add5d0b03a314a906020016103d6565b600054604080518082019091526002815261033360f41b6020820152906001600160a01b03163314611a005760405162461bcd60e51b815260040161036d9190613d47565b50603455565b6040516321f8a72160e01b8152704759445f544f4b454e5f4144445245535360781b60048201526000906001600160a01b038316906321f8a721906024015b602060405180830381865afa158015611a62573d6000803e3d6000fd5b505050506040513d601f19601f82011682018060405250810190611a869190614765565b92915050565b6040516321f8a72160e01b81526e524553455256455f4144445245535360881b60048201526000906001600160a01b038316906321f8a72190602401611a45565b6040516321f8a72160e01b81527542414c414e4345525f5641554c545f4144445245535360501b60048201526000906001600160a01b038316906321f8a72190602401611a45565b604080516001808252818301909252600091816020015b6040805160a081018252600080825260208083018290529282018190526060820181905260808201528252600019909201910181611b2c579050509050600181600081518110611b7e57611b7e614407565b6020026020010151600001906003811115611b9b57611b9b614782565b90816003811115611bae57611bae614782565b815250503081600081518110611bc657611bc6614407565b60209081029190910101516001600160a01b039182166060909101526040516303a38fa160e21b81527f000000000000000000000000000000000000000000000000000000000000000090911690630e8e3e8490611c28908490600401614798565b600060405180830381600087803b158015611c4257600080fd5b505af1158015611c56573d6000803e3d6000fd5b5050505050565b60606000826001600160401b03811115611c7957611c79613d5a565b604051908082528060200260200182016040528015611cbe57816020015b6040805180820190915260008082526020820152815260200190600190039081611c975790505b50905060005b83811015611d505736858583818110611cdf57611cdf614407565b90506060020190506040518060400160405280826040016020810190611d059190613d2a565b6001600160a01b03168152602001611d1c83612768565b815250838381518110611d3157611d31614407565b6020026020010181905250508080611d4890614433565b915050611cc4565b509392505050565b6040516321f8a72160e01b81527f524553455256455f4d414e414745525f4144445245535300000000000000000060048201526000906001600160a01b038316906321f8a72190602401611a45565b6040516321f8a72160e01b81527f53544557415244534849505f494e435f4144445245535300000000000000000060048201526000906001600160a01b038316906321f8a72190602401611a45565b6040516321f8a72160e01b8152734759445f5245434f564552595f4144445245535360601b60048201526000906001600160a01b038316906321f8a72190602401611a45565b6040805180820190915260608152600060208201526000604051806040016040528084516001600160401b03811115611e7757611e77613d5a565b604051908082528060200260200182016040528015611eb057816020015b611e9d61389f565b815260200190600190039081611e955790505b5081526001602090910152905060005b8351811015611d50576000848281518110611edd57611edd614407565b602002602001015190506040518060400160405280828152602001611f06836000015189612920565b90528351805184908110611f1c57611f1c614407565b6020026020010181905250508080611f3390614433565b915050611ec0565b6040516321f8a72160e01b81527f524f4f545f5341464554595f434845434b5f414444524553530000000000000060048201526000906001600160a01b038316906321f8a72190602401611a45565b6040516001600160a01b038316602482015260448101829052611fed90849063a9059cbb60e01b906064015b60408051601f198184030181529190526020810180516001600160e01b03166001600160e01b03199093169290921790915261298e565b505050565b6040516321f8a72160e01b8152724645455f48414e444c45525f4144445245535360681b60048201526000906001600160a01b038316906321f8a72190602401611a45565b6000805b8251518110156120d25760008360000151828151811061205d5761205d614407565b60200260200101519050600081600001519050600061208461207d6120d8565b8390612a60565b905060006120a383602001518560200151612ac190919063ffffffff16565b90506120af818361242f565b6120b9908761473f565b95505050505080806120ca90614433565b91505061203b565b50919050565b60006115597f00000000000000000000000000000000000000000000000000000000000000006001600160a01b0316612b29565b60008060005b846020015151811015611d505760008560200151828151811061213757612137614407565b60200260200101519050600061214d8287612a60565b9050600061216c83602001518460a00151612ac190919063ffffffff16565b9050612178818361242f565b612182908661473f565b9450505050808061219290614433565b915050612112565b6040805180820190915260608152600060208201526121b98484612b78565b6000604051806040016040528084516001600160401b038111156121df576121df613d5a565b60405190808252806020026020018201604052801561221857816020015b61220561389f565b8152602001906001900390816121fd5790505b5081526020016000151581525090506000805b84518110156122be57600085828151811061224857612248614407565b60200260200101519050600080612261838c8c8c612c6d565b9092509050612270818661473f565b94506040518060400160405280848152602001838152508660000151858151811061229d5761229d614407565b602002602001018190525050505080806122b690614433565b91505061222b565b50604080518082019091526002815261333160f01b6020820152670de0b6b3a764000082146123005760405162461bcd60e51b815260040161036d9190613d47565b50909150505b949350505050565b606080836001600160401b0381111561232957612329613d5a565b604051908082528060200260200182016040528015612352578160200160208202803683370190505b50915060005b84811015612426573686868381811061237357612373614407565b9050608002019050600061239d86600001518360600160208101906123989190613d2a565b612d4b565b905060006123ab8383612dc1565b8051909650909150156123c15750505050610d05565b82602001358110156123f15750506040805180820190915260018152601960f91b60208201529250610d05915050565b8086858151811061240457612404614407565b602002602001018181525050505050808061241e90614433565b915050612358565b50935093915050565b60008061243c8385614833565b9050612306670de0b6b3a76400008261484a565b6060826001600160401b0381111561246a5761246a613d5a565b604051908082528060200260200182016040528015612493578160200160208202803683370190505b50905060005b83811015611d505760008585838181106124b5576124b5614407565b9050608002018036038101906124cb919061486c565b905060006124e185600001518360600151612d4b565b905060006124ef8383613000565b90508260200151811015604051806040016040528060018152602001601960f91b815250906125315760405162461bcd60e51b815260040161036d9190613d47565b508085858151811061254557612545614407565b60209081029190910101528251612566906001600160a01b03163383611f8a565b505050808061257490614433565b915050612499565b606080826001600160401b0381111561259757612597613d5a565b6040519080825280602002602001820160405280156125dc57816020015b60408051808201909152600080825260208201528152602001906001900390816125b55790505b50915060005b8381101561268757368585838181106125fd576125fd614407565b90506060020190506000612610826131e1565b80519095509091501561262557505050612689565b60405180604001604052808360400160208101906126439190613d2a565b6001600160a01b031681526020018281525085848151811061266757612667614407565b60200260200101819052505050808061267f90614433565b9150506125e2565b505b9250929050565b6040516321f8a72160e01b81526b50414d4d5f4144445245535360a01b60048201526000906001600160a01b038316906321f8a72190602401611a45565b6040516321f8a72160e01b815273474f565f54524541535552595f4144445245535360601b60048201526000906001600160a01b038316906321f8a72190602401611a45565b600080546001600160a01b0319166001600160a01b03831690811782556040805192835260208301919091527fde4b3f61490b74c0ed6237523974fe299126bbbf8a8a7482fd220104c59b0c8491016103d6565b60008061277b6060840160408501613d2a565b90506127a43330602086018035906127939088613d2a565b6001600160a01b0316929190613372565b6001600160a01b0381166127bb6020850185613d2a565b6001600160a01b0316036127d25750506020013590565b6000816001600160a01b0316636f307dc36040518163ffffffff1660e01b8152600401602060405180830381865afa158015612812573d6000803e3d6000fd5b505050506040513d601f19601f820116820180604052508101906128369190614765565b90506001600160a01b03811661284f6020860186613d2a565b6001600160a01b03161460405180604001604052806002815260200161333560f01b815250906128925760405162461bcd60e51b815260040161036d9190613d47565b506128ab6001600160a01b0382168360208701356133b0565b604051631c57762b60e31b815260208501356004820152600060248201526001600160a01b0383169063e2bbb158906044016020604051808303816000875af11580156128fc573d6000803e3d6000fd5b505050506040513d601f19601f820116820180604052508101906123069190614578565b600080805b8351811015611d5057600084828151811061294257612942614407565b60200260200101519050856001600160a01b031681600001516001600160a01b03160361297b576020810151612978908461473f565b92505b508061298681614433565b915050612925565b60006129e3826040518060400160405280602081526020017f5361666545524332303a206c6f772d6c6576656c2063616c6c206661696c6564815250856001600160a01b03166134629092919063ffffffff16565b805190915015611fed5780806020019051810190612a019190614353565b611fed5760405162461bcd60e51b815260206004820152602a60248201527f5361666545524332303a204552433230206f7065726174696f6e20646964206e6044820152691bdd081cdd58d8d9595960b21b606482015260840161036d565b600080612a738461010001516000613471565b845160405163b32b752d60e01b81529192506001600160a01b0385169163b32b752d91612aa49185906004016148e0565b602060405180830381865afa1580156128fc573d6000803e3d6000fd5b600060111960ff831601612ad6575081611a86565b601260ff83161115612b0957612aed601283614904565b612af890600a6149f9565b612b02908461484a565b9050611a86565b612b14826012614904565b612b1f90600a6149f9565b612b029084614833565b6040516321f8a72160e01b81527f524f4f545f50524943455f4f5241434c455f414444524553530000000000000060048201526000906001600160a01b038316906321f8a72190602401611a45565b60005b81811015611fed5736838383818110612b9657612b96614407565b90506080020190506000826001612bad919061473f565b90505b83811015612c585736858583818110612bcb57612bcb614407565b9050608002019050806060016020810190612be69190613d2a565b6001600160a01b0316612bff6080850160608601613d2a565b6001600160a01b0316141560405180604001604052806002815260200161333160f01b81525090612c435760405162461bcd60e51b815260040161036d9190613d47565b50508080612c5090614433565b915050612bb0565b50508080612c6590614433565b915050612b7b565b60008060005b83811015612d3c5736858583818110612c8e57612c8e614407565b905060800201905087600001516001600160a01b0316816060016020810190612cb79190613d2a565b6001600160a01b031603612d29576000612cd9612cd26120d8565b8a90613671565b90506000612ceb89604085013561242f565b90506000612cf98284613684565b90506000612d148c60200151836136ef90919063ffffffff16565b97505050604090920135935061151c92505050565b5080612d3481614433565b915050612c73565b50600096879650945050505050565b6000805b8351811015612db7576000848281518110612d6c57612d6c614407565b60200260200101519050836001600160a01b03168160000151600001516001600160a01b031603612da457602001519150611a869050565b5080612daf81614433565b915050612d4f565b5060009392505050565b6000606081612dd560808601868401613d2a565b90506001600160a01b038116612dee6020870187613d2a565b6001600160a01b031603612e15575050604080516020810190915260008152829150612689565b806001600160a01b0316636f307dc36040518163ffffffff1660e01b8152600401602060405180830381865afa158015612e53573d6000803e3d6000fd5b505050506040513d601f19601f82011682018060405250810190612e779190614765565b6001600160a01b0316612e8d6020870187613d2a565b6001600160a01b031614612ebf575050604080518082019091526002815261333560f01b602082015260009150612689565b6040516370a0823160e01b81526001600160a01b037f000000000000000000000000000000000000000000000000000000000000000081166004830152600091908316906370a0823190602401602060405180830381865afa158015612f29573d6000803e3d6000fd5b505050506040513d601f19601f82011682018060405250810190612f4d9190614578565b905084811015612f7f576000604051806040016040528060028152602001610ccd60f21b815250935093505050612689565b60405163cc04feff60e01b815260048101869052600060248201526001600160a01b0383169063cc04feff90604401600060405180830381865afa158015612fcb573d6000803e3d6000fd5b505050506040513d6000823e601f3d908101601f19168201604052612ff39190810190614a08565b9350935050509250929050565b60608201516040516313c5035360e31b81526001600160a01b03808316600483015260248201849052600092917f000000000000000000000000000000000000000000000000000000000000000090911690639e281a9890604401600060405180830381600087803b15801561307557600080fd5b505af1158015613089573d6000803e3d6000fd5b50505050806001600160a01b031684600001516001600160a01b0316036130b35782915050611a86565b806001600160a01b0316636f307dc36040518163ffffffff1660e01b8152600401602060405180830381865afa1580156130f1573d6000803e3d6000fd5b505050506040513d601f19601f820116820180604052508101906131159190614765565b6001600160a01b031684600001516001600160a01b03161460405180604001604052806002815260200161333560f01b815250906131665760405162461bcd60e51b815260040161036d9190613d47565b50604051630441a3e760e41b815260048101849052600060248201526001600160a01b0382169063441a3e70906044016020604051808303816000875af11580156131b5573d6000803e3d6000fd5b505050506040513d601f19601f820116820180604052508101906131d99190614578565b915050611a86565b600060606131f483820160408501613d2a565b6001600160a01b031661320a6020850185613d2a565b6001600160a01b0316036132305750506040805160208181019092526000815291013591565b60006132426060850160408601613d2a565b9050806001600160a01b0316636f307dc36040518163ffffffff1660e01b8152600401602060405180830381865afa158015613282573d6000803e3d6000fd5b505050506040513d601f19601f820116820180604052508101906132a69190614765565b6001600160a01b03166132bc6020860186613d2a565b6001600160a01b03160361334b57604051632a8695b160e11b815260208501356004820152600060248201526001600160a01b0382169063550d2b6290604401600060405180830381865afa158015613319573d6000803e3d6000fd5b505050506040513d6000823e601f3d908101601f191682016040526133419190810190614a08565b9250925050915091565b600060405180604001604052806002815260200161333560f01b8152509250925050915091565b6040516001600160a01b03808516602483015283166044820152606481018290526133aa9085906323b872dd60e01b90608401611fb6565b50505050565b604051636eb1769f60e11b81523060048201526001600160a01b038381166024830152600091839186169063dd62ed3e90604401602060405180830381865afa158015613401573d6000803e3d6000fd5b505050506040513d601f19601f820116820180604052508101906134259190614578565b61342f919061473f565b6040516001600160a01b0385166024820152604481018290529091506133aa90859063095ea7b360e01b90606401611fb6565b60606123068484600085613726565b6060600083516001600160401b0381111561348e5761348e613d5a565b6040519080825280602002602001820160405280156134f657816020015b6134e36040805160808101825260008082526020808301829052828401829052835180850190945281845283015290606082015290565b8152602001906001900390816134ac5790505b50905060005b8451811015611d505784818151811061351757613517614407565b60200260200101516000015182828151811061353557613535614407565b60209081029190910101516001600160a01b039091169052845185908290811061356157613561614407565b60200260200101516020015182828151811061357f5761357f614407565b602002602001015160200190151590811515815250508481815181106135a7576135a7614407565b60200260200101516020015180156135e95750670de0b6b3a76400008582815181106135d5576135d5614407565b602002602001015160400151101515841515145b1561361e57670de0b6b3a764000082828151811061360957613609614407565b6020026020010151604001818152505061365f565b84818151811061363057613630614407565b60200260200101516040015182828151811061364e5761364e614407565b602002602001015160400181815250505b8061366981614433565b9150506134fc565b600080612a738461010001516001613471565b604080518082019091526002815261323560f01b6020820152600090826136be5760405162461bcd60e51b815260040161036d9190613d47565b50826000036136cf57506000611a86565b60006136e3670de0b6b3a764000085614833565b90506131d9838261484a565b600060111960ff831601613704575081611a86565b601260ff8316111561371b57612b14601283614904565b612aed826012614904565b6060824710156137875760405162461bcd60e51b815260206004820152602660248201527f416464726573733a20696e73756666696369656e742062616c616e636520666f6044820152651c8818d85b1b60d21b606482015260840161036d565b600080866001600160a01b031685876040516137a39190614a4e565b60006040518083038185875af1925050503d80600081146137e0576040519150601f19603f3d011682016040523d82523d6000602084013e6137e5565b606091505b50915091506137f687838387613801565b979650505050505050565b60608315613870578251600003613869576001600160a01b0385163b6138695760405162461bcd60e51b815260206004820152601d60248201527f416464726573733a2063616c6c20746f206e6f6e2d636f6e7472616374000000604482015260640161036d565b5081612306565b61230683838151156138855781518083602001fd5b8060405162461bcd60e51b815260040161036d9190613d47565b60405180604001604052806138b26138bf565b8152602001600081525090565b60405180610120016040528060006001600160a01b03168152602001600060ff16815260200160006001600160a01b03168152602001600081526020016139576040518060e001604052806000815260200160008152602001600081526020016000815260200160006001600160401b0316815260200160006001600160401b0316815260200160006001600160401b031681525090565b8152602001600081526020016000815260200160008152602001606081525090565b60008083601f84011261398b57600080fd5b5081356001600160401b038111156139a257600080fd5b60208301915083602060608302850101111561268957600080fd5b6000806000604084860312156139d257600080fd5b83356001600160401b038111156139e857600080fd5b6139f486828701613979565b909790965060209590950135949350505050565b60008083601f840112613a1a57600080fd5b5081356001600160401b03811115613a3157600080fd5b6020830191508360208260071b850101111561268957600080fd5b60008083601f840112613a5e57600080fd5b5081356001600160401b03811115613a7557600080fd5b6020830191508360208260051b850101111561268957600080fd5b600080600080600060608688031215613aa857600080fd5b8535945060208601356001600160401b0380821115613ac657600080fd5b613ad289838a01613a08565b90965094506040880135915080821115613aeb57600080fd5b50613af888828901613a4c565b969995985093965092949392505050565b600081518084526020808501945080840160005b83811015613b3957815187529582019590820190600101613b1d565b509495945050505050565b602081526000613b576020830184613b09565b9392505050565b600080600060408486031215613b7357600080fd5b8335925060208401356001600160401b03811115613b9057600080fd5b613b9c86828701613a08565b9497909650939450505050565b60005b83811015613bc4578181015183820152602001613bac565b50506000910152565b60008151808452613be5816020860160208601613ba9565b601f01601f19169290920160200192915050565b604081526000613c0c6040830185613b09565b8281036020840152613c1e8185613bcd565b95945050505050565b6001600160a01b0381168114613c3c57600080fd5b50565b60008060008060608587031215613c5557600080fd5b84356001600160401b03811115613c6b57600080fd5b613c7787828801613979565b909550935050602085013591506040850135613c9281613c27565b939692955090935050565b8281526040602082015260006123066040830184613bcd565b600060208284031215613cc857600080fd5b5035919050565b600080600080600060608688031215613ce757600080fd5b85356001600160401b0380821115613cfe57600080fd5b613d0a89838a01613979565b9097509550602088013594506040880135915080821115613aeb57600080fd5b600060208284031215613d3c57600080fd5b8135613b5781613c27565b602081526000613b576020830184613bcd565b634e487b7160e01b600052604160045260246000fd5b604051608081016001600160401b0381118282101715613d9257613d92613d5a565b60405290565b604080519081016001600160401b0381118282101715613d9257613d92613d5a565b60405161012081016001600160401b0381118282101715613d9257613d92613d5a565b604051601f8201601f191681016001600160401b0381118282101715613e0557613e05613d5a565b604052919050565b60006001600160401b03821115613e2657613e26613d5a565b5060051b60200190565b8051613e3b81613c27565b919050565b805160ff81168114613e3b57600080fd5b80516001600160401b0381168114613e3b57600080fd5b600060e08284031215613e7a57600080fd5b60405160e081018181106001600160401b0382111715613e9c57613e9c613d5a565b806040525080915082518152602083015160208201526040830151604082015260608301516060820152613ed260808401613e51565b6080820152613ee360a08401613e51565b60a0820152613ef460c08401613e51565b60c08201525092915050565b80518015158114613e3b57600080fd5b600082601f830112613f2157600080fd5b81516020613f36613f3183613e0d565b613ddd565b82815260a09283028501820192828201919087851115613f5557600080fd5b8387015b85811015613fde5780890382811215613f725760008081fd5b613f7a613d70565b8251613f8581613c27565b8152613f92838801613f00565b8782015260408084015181830152606081605f1985011215613fb45760008081fd5b613fbc613d98565b85820151815260808601518a8201529083015250855250928401928101613f59565b5090979650505050505050565b60006101e08284031215613ffe57600080fd5b614006613dba565b905061401182613e30565b815261401f60208301613e40565b602082015261403060408301613e30565b60408201526060820151606082015261404c8360808401613e68565b608082015261016082015160a082015261018082015160c08201526101a082015160e08201526101c08201516001600160401b0381111561408c57600080fd5b61409884828501613f10565b6101008301525092915050565b600060208083850312156140b857600080fd5b82516001600160401b03808211156140cf57600080fd5b90840190604082870312156140e357600080fd5b6140eb613d98565b82518152838301518281111561410057600080fd5b80840193505086601f84011261411557600080fd5b8251614123613f3182613e0d565b81815260059190911b8401850190858101908983111561414257600080fd5b8686015b8381101561417a5780518681111561415e5760008081fd5b61416c8c8a838b0101613feb565b845250918701918701614146565b5095830195909552509695505050505050565b600081518084526020808501945080840160005b83811015613b3957815180516001600160a01b031688528381015115158489015260408082015190890152606090810151805191890191909152830151608088015260a090960195908201906001016141a1565b80516001600160a01b0316825260006101e0602083015161421b602086018260ff169052565b50604083015161423660408601826001600160a01b03169052565b506060830151606085015260808301516142a360808601828051825260208101516020830152604081015160408301526060810151606083015260808101516001600160401b0380821660808501528060a08401511660a08501528060c08401511660c085015250505050565b5060a083015161016085015260c083015161018085015260e08301516101a0850152610100830151816101c0860152613c1e8286018261418d565b60006020808352606083018451828501528185015160408086015281815180845260808701915060808160051b8801019350848301925060005b8181101561434657607f198886030183526143348585516141f5565b94509285019291850191600101614318565b5092979650505050505050565b60006020828403121561436557600080fd5b613b5782613f00565b60006040808401835182865281815180845260608801915060608160051b89010193506020808401935060005b828110156143dc57898603605f19018452845180518888526143bf898901826141f5565b91840151978401979097529550938101939281019260010161439b565b50968701511515979096019690965250949350505050565b602081526000613b57602083018461436e565b634e487b7160e01b600052603260045260246000fd5b634e487b7160e01b600052601160045260246000fd5b6000600182016144455761444561441d565b5060010190565b6000602080838503121561445f57600080fd5b82516001600160401b038082111561447657600080fd5b908401906040828703121561448a57600080fd5b614492613d98565b8251828111156144a157600080fd5b8301601f810188136144b257600080fd5b80516144c0613f3182613e0d565b81815260059190911b8201860190868101908a8311156144df57600080fd5b8784015b83811015614555578051878111156144fb5760008081fd5b85016040818e03601f190112156145125760008081fd5b61451a613d98565b8a8201518981111561452c5760008081fd5b61453a8f8d83860101613feb565b825250604091909101518a82015283529188019188016144e3565b50845250614567915050838501613f00565b848201528094505050505092915050565b60006020828403121561458a57600080fd5b5051919050565b8481528360208201526080604082015260006145b0608083018561436e565b82810360608401526137f6818561436e565b60208082528181018390526000906040808401600586901b8501820187855b8881101561469a57878303603f190184528135368b9003603e1901811261460757600080fd5b8a01803561461481613c27565b6001600160a01b031684528087013536829003601e1901811261463657600080fd5b0186810190356001600160401b0381111561465057600080fd5b80360382131561465f57600080fd5b868886015280878601526060818382880137600086830182015295880195601f909101601f19169094019093019250908501906001016145e1565b509098975050505050505050565b600082601f8301126146b957600080fd5b81516001600160401b038111156146d2576146d2613d5a565b6146e5601f8201601f1916602001613ddd565b8181528460208386010111156146fa57600080fd5b612306826020830160208701613ba9565b60006020828403121561471d57600080fd5b81516001600160401b0381111561473357600080fd5b612306848285016146a8565b80820180821115611a8657611a8661441d565b81810381811115611a8657611a8661441d565b60006020828403121561477757600080fd5b8151613b5781613c27565b634e487b7160e01b600052602160045260246000fd5b60208082528251828201819052600091906040908185019086840185805b83811015614825578251805160048082106147de57634e487b7160e01b855260218152602485fd5b508652808801516001600160a01b03908116898801528782015188880152606080830151821690880152608091820151169086015260a090940193918601916001016147b6565b509298975050505050505050565b8082028115828204841417611a8657611a8661441d565b60008261486757634e487b7160e01b600052601260045260246000fd5b500490565b60006080828403121561487e57600080fd5b604051608081018181106001600160401b03821117156148a0576148a0613d5a565b60405282356148ae81613c27565b80825250602083013560208201526040830135604082015260608301356148d481613c27565b60608201529392505050565b6001600160a01b03831681526040602082018190526000906123069083018461418d565b60ff8281168282160390811115611a8657611a8661441d565b600181815b8085111561268757816000190482111561493e5761493e61441d565b8085161561494b57918102915b93841c9390800290614922565b60008261496757506001611a86565b8161497457506000611a86565b816001811461498a5760028114614994576149b0565b6001915050611a86565b60ff8411156149a5576149a561441d565b50506001821b611a86565b5060208310610133831016604e8410600b84101617156149d3575081810a611a86565b6149dd838361491d565b80600019048211156149f1576149f161441d565b029392505050565b6000613b5760ff841683614958565b60008060408385031215614a1b57600080fd5b8251915060208301516001600160401b03811115614a3857600080fd5b614a44858286016146a8565b9150509250929050565b60008251614a60818460208701613ba9565b919091019291505056fea26469706673582212209f672b017e71dae42edbf873300ad178c4b1954a3ba08719380939a8212aa37f64736f6c63430008110033608060405234801561001057600080fd5b50610588806100206000396000f3fe608060405234801561001057600080fd5b50600436106100365760003560e01c806306b06c281461003b5780635c12c8e714610050575b600080fd5b61004e6100493660046103aa565b610063565b005b61004e61005e3660046103df565b6100a8565b6100a481602001516040518060400160405280600381526020016231303160e81b81525083600001516001600160a01b03166100e89092919063ffffffff16565b5050565b60005b81518110156100a4576100d68282815181106100c9576100c96104a2565b6020026020010151610063565b806100e0816104b8565b9150506100ab565b60606100f784846000856100ff565b949350505050565b6060824710156101655760405162461bcd60e51b815260206004820152602660248201527f416464726573733a20696e73756666696369656e742062616c616e636520666f6044820152651c8818d85b1b60d21b60648201526084015b60405180910390fd5b600080866001600160a01b031685876040516101819190610503565b60006040518083038185875af1925050503d80600081146101be576040519150601f19603f3d011682016040523d82523d6000602084013e6101c3565b606091505b50915091506101d4878383876101df565b979650505050505050565b6060831561024e578251600003610247576001600160a01b0385163b6102475760405162461bcd60e51b815260206004820152601d60248201527f416464726573733a2063616c6c20746f206e6f6e2d636f6e7472616374000000604482015260640161015c565b50816100f7565b6100f783838151156102635781518083602001fd5b8060405162461bcd60e51b815260040161015c919061051f565b634e487b7160e01b600052604160045260246000fd5b6040805190810167ffffffffffffffff811182821017156102b6576102b661027d565b60405290565b604051601f8201601f1916810167ffffffffffffffff811182821017156102e5576102e561027d565b604052919050565b6000604082840312156102ff57600080fd5b610307610293565b905081356001600160a01b038116811461032057600080fd5b815260208281013567ffffffffffffffff8082111561033e57600080fd5b818501915085601f83011261035257600080fd5b8135818111156103645761036461027d565b610376601f8201601f191685016102bc565b9150808252868482850101111561038c57600080fd5b80848401858401376000908201840152918301919091525092915050565b6000602082840312156103bc57600080fd5b813567ffffffffffffffff8111156103d357600080fd5b6100f7848285016102ed565b600060208083850312156103f257600080fd5b823567ffffffffffffffff8082111561040a57600080fd5b818501915085601f83011261041e57600080fd5b8135818111156104305761043061027d565b8060051b61043f8582016102bc565b918252838101850191858101908984111561045957600080fd5b86860192505b83831015610495578235858111156104775760008081fd5b6104858b89838a01016102ed565b835250918601919086019061045f565b9998505050505050505050565b634e487b7160e01b600052603260045260246000fd5b6000600182016104d857634e487b7160e01b600052601160045260246000fd5b5060010190565b60005b838110156104fa5781810151838201526020016104e2565b50506000910152565b600082516105158184602087016104df565b9190910192915050565b602081526000825180602084015261053e8160408501602087016104df565b601f01601f1916919091016040019291505056fea2646970667358221220d31ce5ca7c5e296a14bdae3669d78cb73ef626811d668fbb62c2950f4c0f832564736f6c63430008110033","bytecodeSha1":"14facf54bc7e5100b27f280b54a5266dcb8b49ca","compiler":{"evm_version":"london","optimizer":{"enabled":true,"runs":200},"version":"0.8.17+commit.8df45f5f"},"contractName":"Motherboard","language":"Solidity","natspec":{"kind":"dev","methods":{"acceptGovernance()":{"notice":"Called by the pending governor to approve the change"},"bootstrappingSupply()":{"notice":"Supply preminted for bootstrapping."},"changeGovernor(address)":{"notice":"Changes the governor can only be called by the current governor"},"dryMint((address,uint256,address)[],uint256,address)":{"notice":"Simulates a mint to know whether it would succeed and how much would be minted The parameters are the same as the `mint` function Note: This does *not* include the action of the recovery module, if any!","params":{"account":"the account that wants to mint","assets":"the assets and associated amounts used to mint GYD","minReceivedAmount":"the minimum amount of GYD to be minted"},"returns":{"err":"a non-empty error message in case an error would happen when minting","mintedGYDAmount":"the amount that would be minted, or 0 if it an error would occur"}},"dryRedeem(uint256,(address,uint256,uint256,address)[])":{"notice":"Dry version of the `redeem` function exact outputs as specified by `tokens` and `amounts` Note: This does *not* include the action of the recovery module, if any!","params":{"assets":"the output tokens and associated amounts to return against GYD","gydToRedeem":"the maximum amount of GYD to redeem"},"returns":{"err":"a non-empty error message in case an error would happen when redeeming","outputAmounts":"the amounts receivd against the redeemed GYD"}},"externalActionExecutor()":{"notice":"Used to execute permits and other actions, such as oracle updates, that do not require any privilege"},"governor()":{"notice":"Returns the current governor"},"gyroConfig()":{"notice":"Returns the address of the global configuration"},"mint((address,uint256,address)[],uint256)":{"notice":"Main minting function to be called by a depositor This mints using the exact input amount and mints at least `minMintedAmount` All the `inputTokens` should be approved for the motherboard to spend at least `inputAmounts` on behalf of the sender","params":{"assets":"the assets and associated amounts used to mint GYD","minReceivedAmount":"the minimum amount of GYD to be minted"},"returns":{"mintedGYDAmount":"GYD token minted amount"}},"mintStewardshipIncRewards(uint256)":{"notice":"Only callable from the reserve stewardship incentives module. Mints new GYD to the governance treasury."},"mintedSupply()":{"details":"Reverts if bootstrappingSupply() > totalSupply(), but this never happens, assuming that governance consistently calls setBootstrappingSupply() with minting/burning bootstrapping supply. ","notice":"Total supply created through minting via the reserve (`Motherboard.mint()`). Excludes supply created for bootstrapping."},"pamm()":{"notice":"Returns the address for the PAMM","returns":{"_0":"the PAMM address"}},"pendingGovernor()":{"notice":"Returns the pending governor"},"redeem(uint256,(address,uint256,uint256,address)[])":{"notice":"Main redemption function to be called by a withdrawer This redeems using at most `maxRedeemedAmount` of GYD and returns the exact outputs as specified by `tokens` and `amounts`","params":{"assets":"the output tokens and associated amounts to return against GYD","gydToRedeem":"the maximum amount of GYD to redeem"},"returns":{"outputAmounts":"the amounts receivd against the redeemed GYD"}},"reserve()":{"notice":"Returns the address for the reserve"}},"stateVariables":{"gydToken":{"details":"The GYD token is not upgradable so this will always return the same value","return":"the address of the GYD token","returns":{"_0":"the address of the GYD token"}},"gyroConfig":{"return":"the global configuration address","returns":{"_0":"the global configuration address"}},"reserve":{"return":"the address of the reserve","returns":{"_0":"the address of the reserve"}}},"title":"MotherBoard is the central contract connecting the different pieces of the Gyro protocol","version":1},"opcodes":"PUSH1 0x80 PUSH1 0x40 MSTORE CALLVALUE DUP1 ISZERO PUSH2 0x10 JUMPI PUSH1 0x0 DUP1 REVERT JUMPDEST POP PUSH1 0x4 CALLDATASIZE LT PUSH2 0x12C JUMPI PUSH1 0x0 CALLDATALOAD PUSH1 0xE0 SHR DUP1 PUSH4 0x900A043F GT PUSH2 0xAD JUMPI DUP1 PUSH4 0xE3056A34 GT PUSH2 0x71 JUMPI DUP1 PUSH4 0xE3056A34 EQ PUSH2 0x2BF JUMPI DUP1 PUSH4 0xE4C0AAF4 EQ PUSH2 0x2D2 JUMPI DUP1 PUSH4 0xF3700AB3 EQ PUSH2 0x2E5 JUMPI DUP1 PUSH4 0xFBF60028 EQ PUSH2 0x2EE JUMPI DUP1 PUSH4 0xFC196DB0 EQ PUSH2 0x315 JUMPI PUSH1 0x0 DUP1 REVERT JUMPDEST DUP1 PUSH4 0x900A043F EQ PUSH2 0x257 JUMPI DUP1 PUSH4 0xA75963EA EQ PUSH2 0x26A JUMPI DUP1 PUSH4 0xC1BD8CF9 EQ PUSH2 0x27D JUMPI DUP1 PUSH4 0xC4D66DE8 EQ PUSH2 0x285 JUMPI DUP1 PUSH4 0xCD3293DE EQ PUSH2 0x298 JUMPI PUSH1 0x0 DUP1 REVERT JUMPDEST DUP1 PUSH4 0x466342CF GT PUSH2 0xF4 JUMPI DUP1 PUSH4 0x466342CF EQ PUSH2 0x1DA JUMPI DUP1 PUSH4 0x4D8CA4C5 EQ PUSH2 0x1FA JUMPI DUP1 PUSH4 0x4E4D822A EQ PUSH2 0x21B JUMPI DUP1 PUSH4 0x56529403 EQ PUSH2 0x22E JUMPI DUP1 PUSH4 0x85B0C781 EQ PUSH2 0x24F JUMPI PUSH1 0x0 DUP1 REVERT JUMPDEST DUP1 PUSH4 0xC340A24 EQ PUSH2 0x131 JUMPI DUP1 PUSH4 0x238EFCBC EQ PUSH2 0x161 JUMPI DUP1 PUSH4 0x2799C6CF EQ PUSH2 0x16B JUMPI DUP1 PUSH4 0x3A854B42 EQ PUSH2 0x18C JUMPI DUP1 PUSH4 0x44BBDB55 EQ PUSH2 0x1B3 JUMPI JUMPDEST PUSH1 0x0 DUP1 REVERT JUMPDEST PUSH1 0x0 SLOAD PUSH2 0x144 SWAP1 PUSH1 0x1 PUSH1 0x1 PUSH1 0xA0 SHL SUB AND DUP2 JUMP JUMPDEST PUSH1 0x40 MLOAD PUSH1 0x1 PUSH1 0x1 PUSH1 0xA0 SHL SUB SWAP1 SWAP2 AND DUP2 MSTORE PUSH1 0x20 ADD JUMPDEST PUSH1 0x40 MLOAD DUP1 SWAP2 SUB SWAP1 RETURN JUMPDEST PUSH2 0x169 PUSH2 0x328 JUMP JUMPDEST STOP JUMPDEST PUSH2 0x17E PUSH2 0x179 CALLDATASIZE PUSH1 0x4 PUSH2 0x39BD JUMP JUMPDEST PUSH2 0x3E1 JUMP JUMPDEST PUSH1 0x40 MLOAD SWAP1 DUP2 MSTORE PUSH1 0x20 ADD PUSH2 0x158 JUMP JUMPDEST PUSH2 0x144 PUSH32 0x0 DUP2 JUMP JUMPDEST PUSH2 0x144 PUSH32 0x0 DUP2 JUMP JUMPDEST PUSH2 0x1ED PUSH2 0x1E8 CALLDATASIZE PUSH1 0x4 PUSH2 0x3A90 JUMP JUMPDEST PUSH2 0x92D JUMP JUMPDEST PUSH1 0x40 MLOAD PUSH2 0x158 SWAP2 SWAP1 PUSH2 0x3B44 JUMP JUMPDEST PUSH2 0x20D PUSH2 0x208 CALLDATASIZE PUSH1 0x4 PUSH2 0x3B5E JUMP JUMPDEST PUSH2 0x9C5 JUMP JUMPDEST PUSH1 0x40 MLOAD PUSH2 0x158 SWAP3 SWAP2 SWAP1 PUSH2 0x3BF9 JUMP JUMPDEST PUSH2 0x1ED PUSH2 0x229 CALLDATASIZE PUSH1 0x4 PUSH2 0x3B5E JUMP JUMPDEST PUSH2 0xD0D JUMP JUMPDEST PUSH2 0x241 PUSH2 0x23C CALLDATASIZE PUSH1 0x4 PUSH2 0x3C3F JUMP JUMPDEST PUSH2 0x122C JUMP JUMPDEST PUSH1 0x40 MLOAD PUSH2 0x158 SWAP3 SWAP2 SWAP1 PUSH2 0x3C9D JUMP JUMPDEST PUSH2 0x144 PUSH2 0x1525 JUMP JUMPDEST PUSH2 0x169 PUSH2 0x265 CALLDATASIZE PUSH1 0x4 PUSH2 0x3CB6 JUMP JUMPDEST PUSH2 0x155E JUMP JUMPDEST PUSH2 0x17E PUSH2 0x278 CALLDATASIZE PUSH1 0x4 PUSH2 0x3CCF JUMP JUMPDEST PUSH2 0x169D JUMP JUMPDEST PUSH2 0x17E PUSH2 0x172B JUMP JUMPDEST PUSH2 0x169 PUSH2 0x293 CALLDATASIZE PUSH1 0x4 PUSH2 0x3D2A JUMP JUMPDEST PUSH2 0x17BC JUMP JUMPDEST PUSH2 0x144 PUSH32 0x0 DUP2 JUMP JUMPDEST PUSH1 0x1 SLOAD PUSH2 0x144 SWAP1 PUSH1 0x1 PUSH1 0x1 PUSH1 0xA0 SHL SUB AND DUP2 JUMP JUMPDEST PUSH2 0x169 PUSH2 0x2E0 CALLDATASIZE PUSH1 0x4 PUSH2 0x3D2A JUMP JUMPDEST PUSH2 0x18E6 JUMP JUMPDEST PUSH2 0x17E PUSH1 0x34 SLOAD DUP2 JUMP JUMPDEST PUSH2 0x144 PUSH32 0x0 DUP2 JUMP JUMPDEST PUSH2 0x169 PUSH2 0x323 CALLDATASIZE PUSH1 0x4 PUSH2 0x3CB6 JUMP JUMPDEST PUSH2 0x19BB JUMP JUMPDEST PUSH1 0x1 SLOAD PUSH1 0x40 DUP1 MLOAD DUP1 DUP3 ADD SWAP1 SWAP2 MSTORE PUSH1 0x2 DUP2 MSTORE PUSH2 0x333 PUSH1 0xF4 SHL PUSH1 0x20 DUP3 ADD MSTORE SWAP1 PUSH1 0x1 PUSH1 0x1 PUSH1 0xA0 SHL SUB AND CALLER EQ PUSH2 0x376 JUMPI PUSH1 0x40 MLOAD PUSH3 0x461BCD PUSH1 0xE5 SHL DUP2 MSTORE PUSH1 0x4 ADD PUSH2 0x36D SWAP2 SWAP1 PUSH2 0x3D47 JUMP JUMPDEST PUSH1 0x40 MLOAD DUP1 SWAP2 SUB SWAP1 REVERT JUMPDEST POP PUSH1 0x0 DUP1 SLOAD PUSH1 0x1 DUP1 SLOAD PUSH1 0x1 PUSH1 0x1 PUSH1 0xA0 SHL SUB NOT DUP1 DUP5 AND PUSH1 0x1 PUSH1 0x1 PUSH1 0xA0 SHL SUB DUP1 DUP5 AND SWAP2 SWAP1 SWAP2 OR SWAP1 SWAP6 SSTORE AND SWAP1 SSTORE PUSH1 0x40 DUP1 MLOAD SWAP3 SWAP1 SWAP2 AND DUP1 DUP4 MSTORE CALLER PUSH1 0x20 DUP5 ADD MSTORE SWAP2 PUSH32 0xDE4B3F61490B74C0ED6237523974FE299126BBBF8A8A7482FD220104C59B0C84 SWAP2 ADD JUMPDEST PUSH1 0x40 MLOAD DUP1 SWAP2 SUB SWAP1 LOG1 POP JUMP JUMPDEST PUSH1 0x0 PUSH2 0x3EB PUSH2 0x1B15 JUMP JUMPDEST PUSH1 0x0 PUSH2 0x3F7 DUP6 DUP6 PUSH2 0x1C5D JUMP JUMPDEST SWAP1 POP PUSH1 0x0 PUSH2 0x42D PUSH32 0x0 PUSH1 0x1 PUSH1 0x1 PUSH1 0xA0 SHL SUB AND PUSH2 0x1D58 JUMP JUMPDEST PUSH1 0x1 PUSH1 0x1 PUSH1 0xA0 SHL SUB AND PUSH4 0xEF5BAC25 PUSH1 0x40 MLOAD DUP2 PUSH4 0xFFFFFFFF AND PUSH1 0xE0 SHL DUP2 MSTORE PUSH1 0x4 ADD PUSH1 0x0 PUSH1 0x40 MLOAD DUP1 DUP4 SUB DUP2 DUP7 GAS STATICCALL ISZERO DUP1 ISZERO PUSH2 0x46A JUMPI RETURNDATASIZE PUSH1 0x0 DUP1 RETURNDATACOPY RETURNDATASIZE PUSH1 0x0 REVERT JUMPDEST POP POP POP POP PUSH1 0x40 MLOAD RETURNDATASIZE PUSH1 0x0 DUP3 RETURNDATACOPY PUSH1 0x1F RETURNDATASIZE SWAP1 DUP2 ADD PUSH1 0x1F NOT AND DUP3 ADD PUSH1 0x40 MSTORE PUSH2 0x492 SWAP2 SWAP1 DUP2 ADD SWAP1 PUSH2 0x40A5 JUMP JUMPDEST SWAP1 POP PUSH2 0x4C6 PUSH32 0x0 PUSH1 0x1 PUSH1 0x1 PUSH1 0xA0 SHL SUB AND PUSH2 0x1DA7 JUMP JUMPDEST PUSH1 0x1 PUSH1 0x1 PUSH1 0xA0 SHL SUB AND PUSH4 0x47E41771 DUP3 PUSH1 0x40 MLOAD DUP3 PUSH4 0xFFFFFFFF AND PUSH1 0xE0 SHL DUP2 MSTORE PUSH1 0x4 ADD PUSH2 0x4F1 SWAP2 SWAP1 PUSH2 0x42DE JUMP JUMPDEST PUSH1 0x0 PUSH1 0x40 MLOAD DUP1 DUP4 SUB DUP2 PUSH1 0x0 DUP8 DUP1 EXTCODESIZE ISZERO DUP1 ISZERO PUSH2 0x50B JUMPI PUSH1 0x0 DUP1 REVERT JUMPDEST POP GAS CALL ISZERO DUP1 ISZERO PUSH2 0x51F JUMPI RETURNDATASIZE PUSH1 0x0 DUP1 RETURNDATACOPY RETURNDATASIZE PUSH1 0x0 REVERT JUMPDEST POP POP POP POP PUSH2 0x555 PUSH32 0x0 PUSH1 0x1 PUSH1 0x1 PUSH1 0xA0 SHL SUB AND PUSH2 0x1DF6 JUMP JUMPDEST PUSH1 0x1 PUSH1 0x1 PUSH1 0xA0 SHL SUB AND PUSH4 0x5BD98C77 DUP3 PUSH1 0x40 MLOAD DUP3 PUSH4 0xFFFFFFFF AND PUSH1 0xE0 SHL DUP2 MSTORE PUSH1 0x4 ADD PUSH2 0x580 SWAP2 SWAP1 PUSH2 0x42DE JUMP JUMPDEST PUSH1 0x20 PUSH1 0x40 MLOAD DUP1 DUP4 SUB DUP2 PUSH1 0x0 DUP8 GAS CALL ISZERO DUP1 ISZERO PUSH2 0x59F JUMPI RETURNDATASIZE PUSH1 0x0 DUP1 RETURNDATACOPY RETURNDATASIZE PUSH1 0x0 REVERT JUMPDEST POP POP POP POP PUSH1 0x40 MLOAD RETURNDATASIZE PUSH1 0x1F NOT PUSH1 0x1F DUP3 ADD AND DUP3 ADD DUP1 PUSH1 0x40 MSTORE POP DUP2 ADD SWAP1 PUSH2 0x5C3 SWAP2 SWAP1 PUSH2 0x4353 JUMP JUMPDEST POP PUSH1 0x0 PUSH2 0x5D4 DUP4 DUP4 PUSH1 0x20 ADD MLOAD PUSH2 0x1E3C JUMP JUMPDEST SWAP1 POP PUSH2 0x608 PUSH32 0x0 PUSH1 0x1 PUSH1 0x1 PUSH1 0xA0 SHL SUB AND PUSH2 0x1F3B JUMP JUMPDEST PUSH1 0x1 PUSH1 0x1 PUSH1 0xA0 SHL SUB AND PUSH4 0x5D76B9D DUP3 PUSH1 0x40 MLOAD DUP3 PUSH4 0xFFFFFFFF AND PUSH1 0xE0 SHL DUP2 MSTORE PUSH1 0x4 ADD PUSH2 0x633 SWAP2 SWAP1 PUSH2 0x43F4 JUMP JUMPDEST PUSH1 0x0 PUSH1 0x40 MLOAD DUP1 DUP4 SUB DUP2 PUSH1 0x0 DUP8 DUP1 EXTCODESIZE ISZERO DUP1 ISZERO PUSH2 0x64D JUMPI PUSH1 0x0 DUP1 REVERT JUMPDEST POP GAS CALL ISZERO DUP1 ISZERO PUSH2 0x661 JUMPI RETURNDATASIZE PUSH1 0x0 DUP1 RETURNDATACOPY RETURNDATASIZE PUSH1 0x0 REVERT JUMPDEST POP POP POP POP PUSH1 0x0 JUMPDEST DUP4 MLOAD DUP2 LT ISZERO PUSH2 0x6E8 JUMPI PUSH1 0x0 DUP5 DUP3 DUP2 MLOAD DUP2 LT PUSH2 0x685 JUMPI PUSH2 0x685 PUSH2 0x4407 JUMP JUMPDEST PUSH1 0x20 MUL PUSH1 0x20 ADD ADD MLOAD SWAP1 POP PUSH2 0x6D5 PUSH32 0x0 DUP3 PUSH1 0x20 ADD MLOAD DUP4 PUSH1 0x0 ADD MLOAD PUSH1 0x1 PUSH1 0x1 PUSH1 0xA0 SHL SUB AND PUSH2 0x1F8A SWAP1 SWAP3 SWAP2 SWAP1 PUSH4 0xFFFFFFFF AND JUMP JUMPDEST POP DUP1 PUSH2 0x6E0 DUP2 PUSH2 0x4433 JUMP JUMPDEST SWAP2 POP POP PUSH2 0x668 JUMP JUMPDEST POP PUSH1 0x0 PUSH2 0x71D PUSH32 0x0 PUSH1 0x1 PUSH1 0x1 PUSH1 0xA0 SHL SUB AND PUSH2 0x1FF2 JUMP JUMPDEST PUSH1 0x1 PUSH1 0x1 PUSH1 0xA0 SHL SUB AND PUSH4 0x3E9D87E9 DUP4 PUSH1 0x40 MLOAD DUP3 PUSH4 0xFFFFFFFF AND PUSH1 0xE0 SHL DUP2 MSTORE PUSH1 0x4 ADD PUSH2 0x748 SWAP2 SWAP1 PUSH2 0x43F4 JUMP JUMPDEST PUSH1 0x0 PUSH1 0x40 MLOAD DUP1 DUP4 SUB DUP2 DUP7 GAS STATICCALL ISZERO DUP1 ISZERO PUSH2 0x765 JUMPI RETURNDATASIZE PUSH1 0x0 DUP1 RETURNDATACOPY RETURNDATASIZE PUSH1 0x0 REVERT JUMPDEST POP POP POP POP PUSH1 0x40 MLOAD RETURNDATASIZE PUSH1 0x0 DUP3 RETURNDATACOPY PUSH1 0x1F RETURNDATASIZE SWAP1 DUP2 ADD PUSH1 0x1F NOT AND DUP3 ADD PUSH1 0x40 MSTORE PUSH2 0x78D SWAP2 SWAP1 DUP2 ADD SWAP1 PUSH2 0x444C JUMP JUMPDEST SWAP1 POP PUSH1 0x0 PUSH2 0x79A DUP3 PUSH2 0x2037 JUMP JUMPDEST SWAP1 POP PUSH2 0x7A4 PUSH2 0x1525 JUMP JUMPDEST DUP5 MLOAD PUSH1 0x40 MLOAD PUSH4 0xD9778E5 PUSH1 0xE1 SHL DUP2 MSTORE PUSH1 0x4 DUP2 ADD DUP5 SWAP1 MSTORE PUSH1 0x24 DUP2 ADD SWAP2 SWAP1 SWAP2 MSTORE PUSH1 0x1 PUSH1 0x1 PUSH1 0xA0 SHL SUB SWAP2 SWAP1 SWAP2 AND SWAP1 PUSH4 0x1B2EF1CA SWAP1 PUSH1 0x44 ADD PUSH1 0x20 PUSH1 0x40 MLOAD DUP1 DUP4 SUB DUP2 PUSH1 0x0 DUP8 GAS CALL ISZERO DUP1 ISZERO PUSH2 0x7F7 JUMPI RETURNDATASIZE PUSH1 0x0 DUP1 RETURNDATACOPY RETURNDATASIZE PUSH1 0x0 REVERT JUMPDEST POP POP POP POP PUSH1 0x40 MLOAD RETURNDATASIZE PUSH1 0x1F NOT PUSH1 0x1F DUP3 ADD AND DUP3 ADD DUP1 PUSH1 0x40 MSTORE POP DUP2 ADD SWAP1 PUSH2 0x81B SWAP2 SWAP1 PUSH2 0x4578 JUMP JUMPDEST SWAP6 POP DUP7 DUP7 LT ISZERO PUSH1 0x40 MLOAD DUP1 PUSH1 0x40 ADD PUSH1 0x40 MSTORE DUP1 PUSH1 0x1 DUP2 MSTORE PUSH1 0x20 ADD PUSH1 0x19 PUSH1 0xF9 SHL DUP2 MSTORE POP SWAP1 PUSH2 0x859 JUMPI PUSH1 0x40 MLOAD PUSH3 0x461BCD PUSH1 0xE5 SHL DUP2 MSTORE PUSH1 0x4 ADD PUSH2 0x36D SWAP2 SWAP1 PUSH2 0x3D47 JUMP JUMPDEST POP PUSH1 0x40 MLOAD PUSH4 0x40C10F19 PUSH1 0xE0 SHL DUP2 MSTORE CALLER PUSH1 0x4 DUP3 ADD MSTORE PUSH1 0x24 DUP2 ADD DUP8 SWAP1 MSTORE PUSH32 0x0 PUSH1 0x1 PUSH1 0x1 PUSH1 0xA0 SHL SUB AND SWAP1 PUSH4 0x40C10F19 SWAP1 PUSH1 0x44 ADD PUSH1 0x0 PUSH1 0x40 MLOAD DUP1 DUP4 SUB DUP2 PUSH1 0x0 DUP8 DUP1 EXTCODESIZE ISZERO DUP1 ISZERO PUSH2 0x8C2 JUMPI PUSH1 0x0 DUP1 REVERT JUMPDEST POP GAS CALL ISZERO DUP1 ISZERO PUSH2 0x8D6 JUMPI RETURNDATASIZE PUSH1 0x0 DUP1 RETURNDATACOPY RETURNDATASIZE PUSH1 0x0 REVERT JUMPDEST POP POP POP POP CALLER PUSH1 0x1 PUSH1 0x1 PUSH1 0xA0 SHL SUB AND PUSH32 0xE6B487AE7843FCF6C728CBBD5F0F22D17C1EBBCFFF196F4BB61550DACA65BE9 DUP8 DUP4 DUP7 DUP7 PUSH1 0x40 MLOAD PUSH2 0x919 SWAP5 SWAP4 SWAP3 SWAP2 SWAP1 PUSH2 0x4591 JUMP JUMPDEST PUSH1 0x40 MLOAD DUP1 SWAP2 SUB SWAP1 LOG2 POP POP POP POP POP SWAP4 SWAP3 POP POP POP JUMP JUMPDEST PUSH1 0x40 MLOAD PUSH4 0x5C12C8E7 PUSH1 0xE0 SHL DUP2 MSTORE PUSH1 0x60 SWAP1 PUSH1 0x1 PUSH1 0x1 PUSH1 0xA0 SHL SUB PUSH32 0x0 AND SWAP1 PUSH4 0x5C12C8E7 SWAP1 PUSH2 0x97E SWAP1 DUP7 SWAP1 DUP7 SWAP1 PUSH1 0x4 ADD PUSH2 0x45C2 JUMP JUMPDEST PUSH1 0x0 PUSH1 0x40 MLOAD DUP1 DUP4 SUB DUP2 PUSH1 0x0 DUP8 DUP1 EXTCODESIZE ISZERO DUP1 ISZERO PUSH2 0x998 JUMPI PUSH1 0x0 DUP1 REVERT JUMPDEST POP GAS CALL ISZERO DUP1 ISZERO PUSH2 0x9AC JUMPI RETURNDATASIZE PUSH1 0x0 DUP1 RETURNDATACOPY RETURNDATASIZE PUSH1 0x0 REVERT JUMPDEST POP POP POP POP PUSH2 0x9BB DUP7 DUP7 DUP7 PUSH2 0xD0D JUMP JUMPDEST SWAP7 SWAP6 POP POP POP POP POP POP JUMP JUMPDEST PUSH1 0x60 DUP1 PUSH2 0x9D0 PUSH2 0x172B JUMP JUMPDEST DUP6 GT ISZERO PUSH1 0x40 MLOAD DUP1 PUSH1 0x40 ADD PUSH1 0x40 MSTORE DUP1 PUSH1 0x3 DUP2 MSTORE PUSH1 0x20 ADD PUSH3 0xC4C0D PUSH1 0xEA SHL DUP2 MSTORE POP SWAP1 PUSH2 0xA0D JUMPI PUSH1 0x40 MLOAD PUSH3 0x461BCD PUSH1 0xE5 SHL DUP2 MSTORE PUSH1 0x4 ADD PUSH2 0x36D SWAP2 SWAP1 PUSH2 0x3D47 JUMP JUMPDEST POP DUP3 PUSH1 0x1 PUSH1 0x1 PUSH1 0x40 SHL SUB DUP2 GT ISZERO PUSH2 0xA26 JUMPI PUSH2 0xA26 PUSH2 0x3D5A JUMP JUMPDEST PUSH1 0x40 MLOAD SWAP1 DUP1 DUP3 MSTORE DUP1 PUSH1 0x20 MUL PUSH1 0x20 ADD DUP3 ADD PUSH1 0x40 MSTORE DUP1 ISZERO PUSH2 0xA4F JUMPI DUP2 PUSH1 0x20 ADD PUSH1 0x20 DUP3 MUL DUP1 CALLDATASIZE DUP4 CALLDATACOPY ADD SWAP1 POP JUMPDEST POP SWAP2 POP PUSH1 0x0 PUSH2 0xA86 PUSH32 0x0 PUSH1 0x1 PUSH1 0x1 PUSH1 0xA0 SHL SUB AND PUSH2 0x1D58 JUMP JUMPDEST PUSH1 0x1 PUSH1 0x1 PUSH1 0xA0 SHL SUB AND PUSH4 0xEF5BAC25 PUSH1 0x40 MLOAD DUP2 PUSH4 0xFFFFFFFF AND PUSH1 0xE0 SHL DUP2 MSTORE PUSH1 0x4 ADD PUSH1 0x0 PUSH1 0x40 MLOAD DUP1 DUP4 SUB DUP2 DUP7 GAS STATICCALL ISZERO DUP1 ISZERO PUSH2 0xAC3 JUMPI RETURNDATASIZE PUSH1 0x0 DUP1 RETURNDATACOPY RETURNDATASIZE PUSH1 0x0 REVERT JUMPDEST POP POP POP POP PUSH1 0x40 MLOAD RETURNDATASIZE PUSH1 0x0 DUP3 RETURNDATACOPY PUSH1 0x1F RETURNDATASIZE SWAP1 DUP2 ADD PUSH1 0x1F NOT AND DUP3 ADD PUSH1 0x40 MSTORE PUSH2 0xAEB SWAP2 SWAP1 DUP2 ADD SWAP1 PUSH2 0x40A5 JUMP JUMPDEST SWAP1 POP PUSH1 0x0 PUSH2 0xB01 PUSH2 0xAFA PUSH2 0x20D8 JUMP JUMPDEST DUP4 SWAP1 PUSH2 0x210C JUMP JUMPDEST SWAP1 POP PUSH1 0x0 PUSH2 0xB0D PUSH2 0x1525 JUMP JUMPDEST PUSH1 0x40 MLOAD PUSH4 0x1C76D8FB PUSH1 0xE2 SHL DUP2 MSTORE PUSH1 0x4 DUP2 ADD DUP11 SWAP1 MSTORE PUSH1 0x24 DUP2 ADD DUP5 SWAP1 MSTORE PUSH1 0x1 PUSH1 0x1 PUSH1 0xA0 SHL SUB SWAP2 SWAP1 SWAP2 AND SWAP1 PUSH4 0x71DB63EC SWAP1 PUSH1 0x44 ADD PUSH1 0x20 PUSH1 0x40 MLOAD DUP1 DUP4 SUB DUP2 DUP7 GAS STATICCALL ISZERO DUP1 ISZERO PUSH2 0xB5B JUMPI RETURNDATASIZE PUSH1 0x0 DUP1 RETURNDATACOPY RETURNDATASIZE PUSH1 0x0 REVERT JUMPDEST POP POP POP POP PUSH1 0x40 MLOAD RETURNDATASIZE PUSH1 0x1F NOT PUSH1 0x1F DUP3 ADD AND DUP3 ADD DUP1 PUSH1 0x40 MSTORE POP DUP2 ADD SWAP1 PUSH2 0xB7F SWAP2 SWAP1 PUSH2 0x4578 JUMP JUMPDEST SWAP1 POP PUSH1 0x0 PUSH2 0xB93 DUP3 DUP10 DUP10 DUP8 PUSH1 0x20 ADD MLOAD PUSH2 0x219A JUMP JUMPDEST SWAP1 POP PUSH2 0xBC7 PUSH32 0x0 PUSH1 0x1 PUSH1 0x1 PUSH1 0xA0 SHL SUB AND PUSH2 0x1F3B JUMP JUMPDEST PUSH1 0x1 PUSH1 0x1 PUSH1 0xA0 SHL SUB AND PUSH4 0x1C46E999 DUP3 PUSH1 0x40 MLOAD DUP3 PUSH4 0xFFFFFFFF AND PUSH1 0xE0 SHL DUP2 MSTORE PUSH1 0x4 ADD PUSH2 0xBF2 SWAP2 SWAP1 PUSH2 0x43F4 JUMP JUMPDEST PUSH1 0x0 PUSH1 0x40 MLOAD DUP1 DUP4 SUB DUP2 DUP7 GAS STATICCALL ISZERO DUP1 ISZERO PUSH2 0xC0F JUMPI RETURNDATASIZE PUSH1 0x0 DUP1 RETURNDATACOPY RETURNDATASIZE PUSH1 0x0 REVERT JUMPDEST POP POP POP POP PUSH1 0x40 MLOAD RETURNDATASIZE PUSH1 0x0 DUP3 RETURNDATACOPY PUSH1 0x1F RETURNDATASIZE SWAP1 DUP2 ADD PUSH1 0x1F NOT AND DUP3 ADD PUSH1 0x40 MSTORE PUSH2 0xC37 SWAP2 SWAP1 DUP2 ADD SWAP1 PUSH2 0x470B JUMP JUMPDEST DUP1 MLOAD SWAP1 SWAP6 POP ISZERO PUSH2 0xC4A JUMPI POP POP POP POP PUSH2 0xD05 JUMP JUMPDEST PUSH1 0x0 PUSH2 0xC7E PUSH32 0x0 PUSH1 0x1 PUSH1 0x1 PUSH1 0xA0 SHL SUB AND PUSH2 0x1FF2 JUMP JUMPDEST PUSH1 0x1 PUSH1 0x1 PUSH1 0xA0 SHL SUB AND PUSH4 0x3E9D87E9 DUP4 PUSH1 0x40 MLOAD DUP3 PUSH4 0xFFFFFFFF AND PUSH1 0xE0 SHL DUP2 MSTORE PUSH1 0x4 ADD PUSH2 0xCA9 SWAP2 SWAP1 PUSH2 0x43F4 JUMP JUMPDEST PUSH1 0x0 PUSH1 0x40 MLOAD DUP1 DUP4 SUB DUP2 DUP7 GAS STATICCALL ISZERO DUP1 ISZERO PUSH2 0xCC6 JUMPI RETURNDATASIZE PUSH1 0x0 DUP1 RETURNDATACOPY RETURNDATASIZE PUSH1 0x0 REVERT JUMPDEST POP POP POP POP PUSH1 0x40 MLOAD RETURNDATASIZE PUSH1 0x0 DUP3 RETURNDATACOPY PUSH1 0x1F RETURNDATASIZE SWAP1 DUP2 ADD PUSH1 0x1F NOT AND DUP3 ADD PUSH1 0x40 MSTORE PUSH2 0xCEE SWAP2 SWAP1 DUP2 ADD SWAP1 PUSH2 0x444C JUMP JUMPDEST SWAP1 POP PUSH2 0xCFB DUP10 DUP10 DUP4 PUSH2 0x230E JUMP JUMPDEST SWAP7 POP SWAP7 POP POP POP POP POP POP JUMPDEST SWAP4 POP SWAP4 SWAP2 POP POP JUMP JUMPDEST PUSH1 0x60 PUSH2 0xD17 PUSH2 0x1B15 JUMP JUMPDEST PUSH2 0xD1F PUSH2 0x172B JUMP JUMPDEST DUP5 GT ISZERO PUSH1 0x40 MLOAD DUP1 PUSH1 0x40 ADD PUSH1 0x40 MSTORE DUP1 PUSH1 0x3 DUP2 MSTORE PUSH1 0x20 ADD PUSH3 0xC4C0D PUSH1 0xEA SHL DUP2 MSTORE POP SWAP1 PUSH2 0xD5C JUMPI PUSH1 0x40 MLOAD PUSH3 0x461BCD PUSH1 0xE5 SHL DUP2 MSTORE PUSH1 0x4 ADD PUSH2 0x36D SWAP2 SWAP1 PUSH2 0x3D47 JUMP JUMPDEST POP PUSH1 0x0 PUSH2 0xD91 PUSH32 0x0 PUSH1 0x1 PUSH1 0x1 PUSH1 0xA0 SHL SUB AND PUSH2 0x1D58 JUMP JUMPDEST PUSH1 0x1 PUSH1 0x1 PUSH1 0xA0 SHL SUB AND PUSH4 0xEF5BAC25 PUSH1 0x40 MLOAD DUP2 PUSH4 0xFFFFFFFF AND PUSH1 0xE0 SHL DUP2 MSTORE PUSH1 0x4 ADD PUSH1 0x0 PUSH1 0x40 MLOAD DUP1 DUP4 SUB DUP2 DUP7 GAS STATICCALL ISZERO DUP1 ISZERO PUSH2 0xDCE JUMPI RETURNDATASIZE PUSH1 0x0 DUP1 RETURNDATACOPY RETURNDATASIZE PUSH1 0x0 REVERT JUMPDEST POP POP POP POP PUSH1 0x40 MLOAD RETURNDATASIZE PUSH1 0x0 DUP3 RETURNDATACOPY PUSH1 0x1F RETURNDATASIZE SWAP1 DUP2 ADD PUSH1 0x1F NOT AND DUP3 ADD PUSH1 0x40 MSTORE PUSH2 0xDF6 SWAP2 SWAP1 DUP2 ADD SWAP1 PUSH2 0x40A5 JUMP JUMPDEST SWAP1 POP PUSH1 0x0 PUSH2 0xE05 PUSH2 0xAFA PUSH2 0x20D8 JUMP JUMPDEST SWAP1 POP PUSH2 0xE39 PUSH32 0x0 PUSH1 0x1 PUSH1 0x1 PUSH1 0xA0 SHL SUB AND PUSH2 0x1DA7 JUMP JUMPDEST PUSH1 0x1 PUSH1 0x1 PUSH1 0xA0 SHL SUB AND PUSH4 0x47E41771 DUP4 PUSH1 0x40 MLOAD DUP3 PUSH4 0xFFFFFFFF AND PUSH1 0xE0 SHL DUP2 MSTORE PUSH1 0x4 ADD PUSH2 0xE64 SWAP2 SWAP1 PUSH2 0x42DE JUMP JUMPDEST PUSH1 0x0 PUSH1 0x40 MLOAD DUP1 DUP4 SUB DUP2 PUSH1 0x0 DUP8 DUP1 EXTCODESIZE ISZERO DUP1 ISZERO PUSH2 0xE7E JUMPI PUSH1 0x0 DUP1 REVERT JUMPDEST POP GAS CALL ISZERO DUP1 ISZERO PUSH2 0xE92 JUMPI RETURNDATASIZE PUSH1 0x0 DUP1 RETURNDATACOPY RETURNDATASIZE PUSH1 0x0 REVERT JUMPDEST POP POP POP POP PUSH2 0xEC8 PUSH32 0x0 PUSH1 0x1 PUSH1 0x1 PUSH1 0xA0 SHL SUB AND PUSH2 0x1DF6 JUMP JUMPDEST PUSH1 0x1 PUSH1 0x1 PUSH1 0xA0 SHL SUB AND PUSH4 0x5BD98C77 DUP4 PUSH1 0x40 MLOAD DUP3 PUSH4 0xFFFFFFFF AND PUSH1 0xE0 SHL DUP2 MSTORE PUSH1 0x4 ADD PUSH2 0xEF3 SWAP2 SWAP1 PUSH2 0x42DE JUMP JUMPDEST PUSH1 0x20 PUSH1 0x40 MLOAD DUP1 DUP4 SUB DUP2 PUSH1 0x0 DUP8 GAS CALL ISZERO DUP1 ISZERO PUSH2 0xF12 JUMPI RETURNDATASIZE PUSH1 0x0 DUP1 RETURNDATACOPY RETURNDATASIZE PUSH1 0x0 REVERT JUMPDEST POP POP POP POP PUSH1 0x40 MLOAD RETURNDATASIZE PUSH1 0x1F NOT PUSH1 0x1F DUP3 ADD AND DUP3 ADD DUP1 PUSH1 0x40 MSTORE POP DUP2 ADD SWAP1 PUSH2 0xF36 SWAP2 SWAP1 PUSH2 0x4353 JUMP JUMPDEST POP PUSH1 0x0 PUSH2 0xF41 PUSH2 0x1525 JUMP JUMPDEST PUSH1 0x40 MLOAD PUSH4 0x7CBC2373 PUSH1 0xE0 SHL DUP2 MSTORE PUSH1 0x4 DUP2 ADD DUP10 SWAP1 MSTORE PUSH1 0x24 DUP2 ADD DUP5 SWAP1 MSTORE PUSH1 0x1 PUSH1 0x1 PUSH1 0xA0 SHL SUB SWAP2 SWAP1 SWAP2 AND SWAP1 PUSH4 0x7CBC2373 SWAP1 PUSH1 0x44 ADD PUSH1 0x20 PUSH1 0x40 MLOAD DUP1 DUP4 SUB DUP2 PUSH1 0x0 DUP8 GAS CALL ISZERO DUP1 ISZERO PUSH2 0xF91 JUMPI RETURNDATASIZE PUSH1 0x0 DUP1 RETURNDATACOPY RETURNDATASIZE PUSH1 0x0 REVERT JUMPDEST POP POP POP POP PUSH1 0x40 MLOAD RETURNDATASIZE PUSH1 0x1F NOT PUSH1 0x1F DUP3 ADD AND DUP3 ADD DUP1 PUSH1 0x40 MSTORE POP DUP2 ADD SWAP1 PUSH2 0xFB5 SWAP2 SWAP1 PUSH2 0x4578 JUMP JUMPDEST SWAP1 POP PUSH2 0xFD9 PUSH2 0xFD2 PUSH6 0x9184E72A000 PUSH8 0xDE0B6B3A7640000 PUSH2 0x473F JUMP JUMPDEST DUP9 SWAP1 PUSH2 0x242F JUMP JUMPDEST DUP2 GT ISZERO PUSH1 0x40 MLOAD DUP1 PUSH1 0x40 ADD PUSH1 0x40 MSTORE DUP1 PUSH1 0x3 DUP2 MSTORE PUSH1 0x20 ADD PUSH3 0x31303 PUSH1 0xEC SHL DUP2 MSTORE POP SWAP1 PUSH2 0x1016 JUMPI PUSH1 0x40 MLOAD PUSH3 0x461BCD PUSH1 0xE5 SHL DUP2 MSTORE PUSH1 0x4 ADD PUSH2 0x36D SWAP2 SWAP1 PUSH2 0x3D47 JUMP JUMPDEST POP PUSH1 0x40 MLOAD PUSH4 0x79CC679 PUSH1 0xE4 SHL DUP2 MSTORE CALLER PUSH1 0x4 DUP3 ADD MSTORE PUSH1 0x24 DUP2 ADD DUP9 SWAP1 MSTORE PUSH32 0x0 PUSH1 0x1 PUSH1 0x1 PUSH1 0xA0 SHL SUB AND SWAP1 PUSH4 0x79CC6790 SWAP1 PUSH1 0x44 ADD PUSH1 0x0 PUSH1 0x40 MLOAD DUP1 DUP4 SUB DUP2 PUSH1 0x0 DUP8 DUP1 EXTCODESIZE ISZERO DUP1 ISZERO PUSH2 0x107F JUMPI PUSH1 0x0 DUP1 REVERT JUMPDEST POP GAS CALL ISZERO DUP1 ISZERO PUSH2 0x1093 JUMPI RETURNDATASIZE PUSH1 0x0 DUP1 RETURNDATACOPY RETURNDATASIZE PUSH1 0x0 REVERT JUMPDEST POP POP POP POP PUSH1 0x0 PUSH2 0x10A9 DUP3 DUP9 DUP9 DUP8 PUSH1 0x20 ADD MLOAD PUSH2 0x219A JUMP JUMPDEST SWAP1 POP PUSH2 0x10DD PUSH32 0x0 PUSH1 0x1 PUSH1 0x1 PUSH1 0xA0 SHL SUB AND PUSH2 0x1F3B JUMP JUMPDEST PUSH1 0x1 PUSH1 0x1 PUSH1 0xA0 SHL SUB AND PUSH4 0x59A047E9 DUP3 PUSH1 0x40 MLOAD DUP3 PUSH4 0xFFFFFFFF AND PUSH1 0xE0 SHL DUP2 MSTORE PUSH1 0x4 ADD PUSH2 0x1108 SWAP2 SWAP1 PUSH2 0x43F4 JUMP JUMPDEST PUSH1 0x0 PUSH1 0x40 MLOAD DUP1 DUP4 SUB DUP2 PUSH1 0x0 DUP8 DUP1 EXTCODESIZE ISZERO DUP1 ISZERO PUSH2 0x1122 JUMPI PUSH1 0x0 DUP1 REVERT JUMPDEST POP GAS CALL ISZERO DUP1 ISZERO PUSH2 0x1136 JUMPI RETURNDATASIZE PUSH1 0x0 DUP1 RETURNDATACOPY RETURNDATASIZE PUSH1 0x0 REVERT JUMPDEST POP POP POP POP PUSH1 0x0 PUSH2 0x116E PUSH32 0x0 PUSH1 0x1 PUSH1 0x1 PUSH1 0xA0 SHL SUB AND PUSH2 0x1FF2 JUMP JUMPDEST PUSH1 0x1 PUSH1 0x1 PUSH1 0xA0 SHL SUB AND PUSH4 0x3E9D87E9 DUP4 PUSH1 0x40 MLOAD DUP3 PUSH4 0xFFFFFFFF AND PUSH1 0xE0 SHL DUP2 MSTORE PUSH1 0x4 ADD PUSH2 0x1199 SWAP2 SWAP1 PUSH2 0x43F4 JUMP JUMPDEST PUSH1 0x0 PUSH1 0x40 MLOAD DUP1 DUP4 SUB DUP2 DUP7 GAS STATICCALL ISZERO DUP1 ISZERO PUSH2 0x11B6 JUMPI RETURNDATASIZE PUSH1 0x0 DUP1 RETURNDATACOPY RETURNDATASIZE PUSH1 0x0 REVERT JUMPDEST POP POP POP POP PUSH1 0x40 MLOAD RETURNDATASIZE PUSH1 0x0 DUP3 RETURNDATACOPY PUSH1 0x1F RETURNDATASIZE SWAP1 DUP2 ADD PUSH1 0x1F NOT AND DUP3 ADD PUSH1 0x40 MSTORE PUSH2 0x11DE SWAP2 SWAP1 DUP2 ADD SWAP1 PUSH2 0x444C JUMP JUMPDEST SWAP1 POP PUSH2 0x11EB DUP9 DUP9 DUP4 PUSH2 0x2450 JUMP JUMPDEST SWAP6 POP CALLER PUSH1 0x1 PUSH1 0x1 PUSH1 0xA0 SHL SUB AND PUSH32 0x9011CED5E66E56FB73E6022EFF4E35B5082BC30C39774D4B9E047668E4E7781E DUP11 DUP6 DUP6 DUP6 PUSH1 0x40 MLOAD PUSH2 0x919 SWAP5 SWAP4 SWAP3 SWAP2 SWAP1 PUSH2 0x4591 JUMP JUMPDEST PUSH1 0x0 PUSH1 0x60 DUP1 PUSH2 0x123B DUP8 DUP8 PUSH2 0x257C JUMP JUMPDEST DUP1 MLOAD SWAP1 SWAP4 POP SWAP1 SWAP2 POP ISZERO PUSH2 0x1252 JUMPI PUSH1 0x0 SWAP3 POP POP PUSH2 0x151C JUMP JUMPDEST PUSH1 0x0 PUSH2 0x1286 PUSH32 0x0 PUSH1 0x1 PUSH1 0x1 PUSH1 0xA0 SHL SUB AND PUSH2 0x1D58 JUMP JUMPDEST PUSH1 0x1 PUSH1 0x1 PUSH1 0xA0 SHL SUB AND PUSH4 0xEF5BAC25 PUSH1 0x40 MLOAD DUP2 PUSH4 0xFFFFFFFF AND PUSH1 0xE0 SHL DUP2 MSTORE PUSH1 0x4 ADD PUSH1 0x0 PUSH1 0x40 MLOAD DUP1 DUP4 SUB DUP2 DUP7 GAS STATICCALL ISZERO DUP1 ISZERO PUSH2 0x12C3 JUMPI RETURNDATASIZE PUSH1 0x0 DUP1 RETURNDATACOPY RETURNDATASIZE PUSH1 0x0 REVERT JUMPDEST POP POP POP POP PUSH1 0x40 MLOAD RETURNDATASIZE PUSH1 0x0 DUP3 RETURNDATACOPY PUSH1 0x1F RETURNDATASIZE SWAP1 DUP2 ADD PUSH1 0x1F NOT AND DUP3 ADD PUSH1 0x40 MSTORE PUSH2 0x12EB SWAP2 SWAP1 DUP2 ADD SWAP1 PUSH2 0x40A5 JUMP JUMPDEST SWAP1 POP PUSH1 0x0 PUSH2 0x12FD DUP4 DUP4 PUSH1 0x20 ADD MLOAD PUSH2 0x1E3C JUMP JUMPDEST SWAP1 POP PUSH2 0x1331 PUSH32 0x0 PUSH1 0x1 PUSH1 0x1 PUSH1 0xA0 SHL SUB AND PUSH2 0x1F3B JUMP JUMPDEST PUSH1 0x1 PUSH1 0x1 PUSH1 0xA0 SHL SUB AND PUSH4 0x9109B8A3 DUP3 PUSH1 0x40 MLOAD DUP3 PUSH4 0xFFFFFFFF AND PUSH1 0xE0 SHL DUP2 MSTORE PUSH1 0x4 ADD PUSH2 0x135C SWAP2 SWAP1 PUSH2 0x43F4 JUMP JUMPDEST PUSH1 0x0 PUSH1 0x40 MLOAD DUP1 DUP4 SUB DUP2 DUP7 GAS STATICCALL ISZERO DUP1 ISZERO PUSH2 0x1379 JUMPI RETURNDATASIZE PUSH1 0x0 DUP1 RETURNDATACOPY RETURNDATASIZE PUSH1 0x0 REVERT JUMPDEST POP POP POP POP PUSH1 0x40 MLOAD RETURNDATASIZE PUSH1 0x0 DUP3 RETURNDATACOPY PUSH1 0x1F RETURNDATASIZE SWAP1 DUP2 ADD PUSH1 0x1F NOT AND DUP3 ADD PUSH1 0x40 MSTORE PUSH2 0x13A1 SWAP2 SWAP1 DUP2 ADD SWAP1 PUSH2 0x470B JUMP JUMPDEST DUP1 MLOAD SWAP1 SWAP5 POP ISZERO PUSH2 0x13B7 JUMPI PUSH1 0x0 SWAP5 POP POP POP POP PUSH2 0x151C JUMP JUMPDEST PUSH1 0x0 PUSH2 0x13EB PUSH32 0x0 PUSH1 0x1 PUSH1 0x1 PUSH1 0xA0 SHL SUB AND PUSH2 0x1FF2 JUMP JUMPDEST PUSH1 0x1 PUSH1 0x1 PUSH1 0xA0 SHL SUB AND PUSH4 0x3E9D87E9 DUP4 PUSH1 0x40 MLOAD DUP3 PUSH4 0xFFFFFFFF AND PUSH1 0xE0 SHL DUP2 MSTORE PUSH1 0x4 ADD PUSH2 0x1416 SWAP2 SWAP1 PUSH2 0x43F4 JUMP JUMPDEST PUSH1 0x0 PUSH1 0x40 MLOAD DUP1 DUP4 SUB DUP2 DUP7 GAS STATICCALL ISZERO DUP1 ISZERO PUSH2 0x1433 JUMPI RETURNDATASIZE PUSH1 0x0 DUP1 RETURNDATACOPY RETURNDATASIZE PUSH1 0x0 REVERT JUMPDEST POP POP POP POP PUSH1 0x40 MLOAD RETURNDATASIZE PUSH1 0x0 DUP3 RETURNDATACOPY PUSH1 0x1F RETURNDATASIZE SWAP1 DUP2 ADD PUSH1 0x1F NOT AND DUP3 ADD PUSH1 0x40 MSTORE PUSH2 0x145B SWAP2 SWAP1 DUP2 ADD SWAP1 PUSH2 0x444C JUMP JUMPDEST SWAP1 POP PUSH1 0x0 PUSH2 0x1468 DUP3 PUSH2 0x2037 JUMP JUMPDEST SWAP1 POP PUSH2 0x1472 PUSH2 0x1525 JUMP JUMPDEST DUP5 MLOAD PUSH1 0x40 MLOAD PUSH4 0x616A1ED9 PUSH1 0xE0 SHL DUP2 MSTORE PUSH1 0x4 DUP2 ADD DUP5 SWAP1 MSTORE PUSH1 0x24 DUP2 ADD SWAP2 SWAP1 SWAP2 MSTORE PUSH1 0x1 PUSH1 0x1 PUSH1 0xA0 SHL SUB SWAP2 SWAP1 SWAP2 AND SWAP1 PUSH4 0x616A1ED9 SWAP1 PUSH1 0x44 ADD PUSH1 0x20 PUSH1 0x40 MLOAD DUP1 DUP4 SUB DUP2 DUP7 GAS STATICCALL ISZERO DUP1 ISZERO PUSH2 0x14C3 JUMPI RETURNDATASIZE PUSH1 0x0 DUP1 RETURNDATACOPY RETURNDATASIZE PUSH1 0x0 REVERT JUMPDEST POP POP POP POP PUSH1 0x40 MLOAD RETURNDATASIZE PUSH1 0x1F NOT PUSH1 0x1F DUP3 ADD AND DUP3 ADD DUP1 PUSH1 0x40 MSTORE POP DUP2 ADD SWAP1 PUSH2 0x14E7 SWAP2 SWAP1 PUSH2 0x4578 JUMP JUMPDEST SWAP7 POP DUP9 DUP8 LT ISZERO PUSH2 0x1516 JUMPI POP POP PUSH1 0x40 DUP1 MLOAD DUP1 DUP3 ADD SWAP1 SWAP2 MSTORE PUSH1 0x1 DUP2 MSTORE PUSH1 0x19 PUSH1 0xF9 SHL PUSH1 0x20 DUP3 ADD MSTORE SWAP4 POP PUSH2 0x151C SWAP3 POP POP POP JUMP JUMPDEST POP POP POP POP POP JUMPDEST SWAP5 POP SWAP5 SWAP3 POP POP POP JUMP JUMPDEST PUSH1 0x0 PUSH2 0x1559 PUSH32 0x0 PUSH1 0x1 PUSH1 0x1 PUSH1 0xA0 SHL SUB AND PUSH2 0x2690 JUMP JUMPDEST SWAP1 POP SWAP1 JUMP JUMPDEST PUSH2 0x1590 PUSH32 0x0 PUSH1 0x1 PUSH1 0x1 PUSH1 0xA0 SHL SUB AND PUSH2 0x1DA7 JUMP JUMPDEST PUSH1 0x1 PUSH1 0x1 PUSH1 0xA0 SHL SUB AND CALLER PUSH1 0x1 PUSH1 0x1 PUSH1 0xA0 SHL SUB AND EQ PUSH1 0x40 MLOAD DUP1 PUSH1 0x40 ADD PUSH1 0x40 MSTORE DUP1 PUSH1 0x2 DUP2 MSTORE PUSH1 0x20 ADD PUSH2 0x333 PUSH1 0xF4 SHL DUP2 MSTORE POP SWAP1 PUSH2 0x15DD JUMPI PUSH1 0x40 MLOAD PUSH3 0x461BCD PUSH1 0xE5 SHL DUP2 MSTORE PUSH1 0x4 ADD PUSH2 0x36D SWAP2 SWAP1 PUSH2 0x3D47 JUMP JUMPDEST POP PUSH1 0x0 PUSH2 0x1612 PUSH32 0x0 PUSH1 0x1 PUSH1 0x1 PUSH1 0xA0 SHL SUB AND PUSH2 0x26CE JUMP JUMPDEST PUSH1 0x40 MLOAD PUSH4 0x40C10F19 PUSH1 0xE0 SHL DUP2 MSTORE PUSH1 0x1 PUSH1 0x1 PUSH1 0xA0 SHL SUB DUP1 DUP4 AND PUSH1 0x4 DUP4 ADD MSTORE PUSH1 0x24 DUP3 ADD DUP6 SWAP1 MSTORE SWAP2 SWAP3 POP PUSH32 0x0 SWAP1 SWAP2 AND SWAP1 PUSH4 0x40C10F19 SWAP1 PUSH1 0x44 ADD PUSH1 0x0 PUSH1 0x40 MLOAD DUP1 DUP4 SUB DUP2 PUSH1 0x0 DUP8 DUP1 EXTCODESIZE ISZERO DUP1 ISZERO PUSH2 0x1681 JUMPI PUSH1 0x0 DUP1 REVERT JUMPDEST POP GAS CALL ISZERO DUP1 ISZERO PUSH2 0x1695 JUMPI RETURNDATASIZE PUSH1 0x0 DUP1 RETURNDATACOPY RETURNDATASIZE PUSH1 0x0 REVERT JUMPDEST POP POP POP POP POP POP JUMP JUMPDEST PUSH1 0x40 MLOAD PUSH4 0x5C12C8E7 PUSH1 0xE0 SHL DUP2 MSTORE PUSH1 0x0 SWAP1 PUSH1 0x1 PUSH1 0x1 PUSH1 0xA0 SHL SUB PUSH32 0x0 AND SWAP1 PUSH4 0x5C12C8E7 SWAP1 PUSH2 0x16EE SWAP1 DUP7 SWAP1 DUP7 SWAP1 PUSH1 0x4 ADD PUSH2 0x45C2 JUMP JUMPDEST PUSH1 0x0 PUSH1 0x40 MLOAD DUP1 DUP4 SUB DUP2 PUSH1 0x0 DUP8 DUP1 EXTCODESIZE ISZERO DUP1 ISZERO PUSH2 0x1708 JUMPI PUSH1 0x0 DUP1 REVERT JUMPDEST POP GAS CALL ISZERO DUP1 ISZERO PUSH2 0x171C JUMPI RETURNDATASIZE PUSH1 0x0 DUP1 RETURNDATACOPY RETURNDATASIZE PUSH1 0x0 REVERT JUMPDEST POP POP POP POP PUSH2 0x9BB DUP7 DUP7 DUP7 PUSH2 0x3E1 JUMP JUMPDEST PUSH1 0x0 PUSH1 0x34 SLOAD PUSH32 0x0 PUSH1 0x1 PUSH1 0x1 PUSH1 0xA0 SHL SUB AND PUSH4 0x18160DDD PUSH1 0x40 MLOAD DUP2 PUSH4 0xFFFFFFFF AND PUSH1 0xE0 SHL DUP2 MSTORE PUSH1 0x4 ADD PUSH1 0x20 PUSH1 0x40 MLOAD DUP1 DUP4 SUB DUP2 DUP7 GAS STATICCALL ISZERO DUP1 ISZERO PUSH2 0x178E JUMPI RETURNDATASIZE PUSH1 0x0 DUP1 RETURNDATACOPY RETURNDATASIZE PUSH1 0x0 REVERT JUMPDEST POP POP POP POP PUSH1 0x40 MLOAD RETURNDATASIZE PUSH1 0x1F NOT PUSH1 0x1F DUP3 ADD AND DUP3 ADD DUP1 PUSH1 0x40 MSTORE POP DUP2 ADD SWAP1 PUSH2 0x17B2 SWAP2 SWAP1 PUSH2 0x4578 JUMP JUMPDEST PUSH2 0x1559 SWAP2 SWAP1 PUSH2 0x4752 JUMP JUMPDEST PUSH1 0x1 SLOAD PUSH1 0x1 PUSH1 0xA8 SHL SWAP1 DIV PUSH1 0xFF AND ISZERO DUP1 DUP1 ISZERO PUSH2 0x17E2 JUMPI POP PUSH1 0x1 DUP1 SLOAD PUSH1 0x1 PUSH1 0xA0 SHL SWAP1 DIV PUSH1 0xFF AND LT JUMPDEST DUP1 PUSH2 0x1802 JUMPI POP ADDRESS EXTCODESIZE ISZERO DUP1 ISZERO PUSH2 0x1802 JUMPI POP PUSH1 0x1 DUP1 SLOAD PUSH1 0x1 PUSH1 0xA0 SHL SWAP1 DIV PUSH1 0xFF AND EQ JUMPDEST PUSH2 0x1865 JUMPI PUSH1 0x40 MLOAD PUSH3 0x461BCD PUSH1 0xE5 SHL DUP2 MSTORE PUSH1 0x20 PUSH1 0x4 DUP3 ADD MSTORE PUSH1 0x2E PUSH1 0x24 DUP3 ADD MSTORE PUSH32 0x496E697469616C697A61626C653A20636F6E747261637420697320616C726561 PUSH1 0x44 DUP3 ADD MSTORE PUSH14 0x191E481A5B9A5D1A585B1A5E9959 PUSH1 0x92 SHL PUSH1 0x64 DUP3 ADD MSTORE PUSH1 0x84 ADD PUSH2 0x36D JUMP JUMPDEST PUSH1 0x1 DUP1 SLOAD PUSH1 0xFF PUSH1 0xA0 SHL NOT AND PUSH1 0x1 PUSH1 0xA0 SHL OR SWAP1 SSTORE DUP1 ISZERO PUSH2 0x1892 JUMPI PUSH1 0x1 DUP1 SLOAD PUSH1 0xFF PUSH1 0xA8 SHL NOT AND PUSH1 0x1 PUSH1 0xA8 SHL OR SWAP1 SSTORE JUMPDEST PUSH2 0x189B DUP3 PUSH2 0x2714 JUMP JUMPDEST DUP1 ISZERO PUSH2 0x18E2 JUMPI PUSH1 0x1 DUP1 SLOAD PUSH1 0xFF PUSH1 0xA8 SHL NOT AND DUP2 SSTORE PUSH1 0x40 MLOAD SWAP1 DUP2 MSTORE PUSH32 0x7F26B83FF96E1F2B6A682F133852F6798A09C465DA95921460CEFB3847402498 SWAP1 PUSH1 0x20 ADD PUSH1 0x40 MLOAD DUP1 SWAP2 SUB SWAP1 LOG1 JUMPDEST POP POP JUMP JUMPDEST PUSH1 0x0 SLOAD PUSH1 0x40 DUP1 MLOAD DUP1 DUP3 ADD SWAP1 SWAP2 MSTORE PUSH1 0x2 DUP2 MSTORE PUSH2 0x333 PUSH1 0xF4 SHL PUSH1 0x20 DUP3 ADD MSTORE SWAP1 PUSH1 0x1 PUSH1 0x1 PUSH1 0xA0 SHL SUB AND CALLER EQ PUSH2 0x192B JUMPI PUSH1 0x40 MLOAD PUSH3 0x461BCD PUSH1 0xE5 SHL DUP2 MSTORE PUSH1 0x4 ADD PUSH2 0x36D SWAP2 SWAP1 PUSH2 0x3D47 JUMP JUMPDEST POP PUSH1 0x40 DUP1 MLOAD DUP1 DUP3 ADD SWAP1 SWAP2 MSTORE PUSH1 0x2 DUP2 MSTORE PUSH2 0x3331 PUSH1 0xF0 SHL PUSH1 0x20 DUP3 ADD MSTORE PUSH1 0x1 PUSH1 0x1 PUSH1 0xA0 SHL SUB DUP3 AND PUSH2 0x196C JUMPI PUSH1 0x40 MLOAD PUSH3 0x461BCD PUSH1 0xE5 SHL DUP2 MSTORE PUSH1 0x4 ADD PUSH2 0x36D SWAP2 SWAP1 PUSH2 0x3D47 JUMP JUMPDEST POP PUSH1 0x1 DUP1 SLOAD PUSH1 0x1 PUSH1 0x1 PUSH1 0xA0 SHL SUB NOT AND PUSH1 0x1 PUSH1 0x1 PUSH1 0xA0 SHL SUB DUP4 AND SWAP1 DUP2 OR SWAP1 SWAP2 SSTORE PUSH1 0x40 MLOAD SWAP1 DUP2 MSTORE PUSH32 0x67235BA2E63C748A35B95C4F92A3BBC2A1389938170A5CE6C9ADD5D0B03A314A SWAP1 PUSH1 0x20 ADD PUSH2 0x3D6 JUMP JUMPDEST PUSH1 0x0 SLOAD PUSH1 0x40 DUP1 MLOAD DUP1 DUP3 ADD SWAP1 SWAP2 MSTORE PUSH1 0x2 DUP2 MSTORE PUSH2 0x333 PUSH1 0xF4 SHL PUSH1 0x20 DUP3 ADD MSTORE SWAP1 PUSH1 0x1 PUSH1 0x1 PUSH1 0xA0 SHL SUB AND CALLER EQ PUSH2 0x1A00 JUMPI PUSH1 0x40 MLOAD PUSH3 0x461BCD PUSH1 0xE5 SHL DUP2 MSTORE PUSH1 0x4 ADD PUSH2 0x36D SWAP2 SWAP1 PUSH2 0x3D47 JUMP JUMPDEST POP PUSH1 0x34 SSTORE JUMP JUMPDEST PUSH1 0x40 MLOAD PUSH4 0x21F8A721 PUSH1 0xE0 SHL DUP2 MSTORE PUSH17 0x4759445F544F4B454E5F41444452455353 PUSH1 0x78 SHL PUSH1 0x4 DUP3 ADD MSTORE PUSH1 0x0 SWAP1 PUSH1 0x1 PUSH1 0x1 PUSH1 0xA0 SHL SUB DUP4 AND SWAP1 PUSH4 0x21F8A721 SWAP1 PUSH1 0x24 ADD JUMPDEST PUSH1 0x20 PUSH1 0x40 MLOAD DUP1 DUP4 SUB DUP2 DUP7 GAS STATICCALL ISZERO DUP1 ISZERO PUSH2 0x1A62 JUMPI RETURNDATASIZE PUSH1 0x0 DUP1 RETURNDATACOPY RETURNDATASIZE PUSH1 0x0 REVERT JUMPDEST POP POP POP POP PUSH1 0x40 MLOAD RETURNDATASIZE PUSH1 0x1F NOT PUSH1 0x1F DUP3 ADD AND DUP3 ADD DUP1 PUSH1 0x40 MSTORE POP DUP2 ADD SWAP1 PUSH2 0x1A86 SWAP2 SWAP1 PUSH2 0x4765 JUMP JUMPDEST SWAP3 SWAP2 POP POP JUMP JUMPDEST PUSH1 0x40 MLOAD PUSH4 0x21F8A721 PUSH1 0xE0 SHL DUP2 MSTORE PUSH15 0x524553455256455F41444452455353 PUSH1 0x88 SHL PUSH1 0x4 DUP3 ADD MSTORE PUSH1 0x0 SWAP1 PUSH1 0x1 PUSH1 0x1 PUSH1 0xA0 SHL SUB DUP4 AND SWAP1 PUSH4 0x21F8A721 SWAP1 PUSH1 0x24 ADD PUSH2 0x1A45 JUMP JUMPDEST PUSH1 0x40 MLOAD PUSH4 0x21F8A721 PUSH1 0xE0 SHL DUP2 MSTORE PUSH22 0x42414C414E4345525F5641554C545F41444452455353 PUSH1 0x50 SHL PUSH1 0x4 DUP3 ADD MSTORE PUSH1 0x0 SWAP1 PUSH1 0x1 PUSH1 0x1 PUSH1 0xA0 SHL SUB DUP4 AND SWAP1 PUSH4 0x21F8A721 SWAP1 PUSH1 0x24 ADD PUSH2 0x1A45 JUMP JUMPDEST PUSH1 0x40 DUP1 MLOAD PUSH1 0x1 DUP1 DUP3 MSTORE DUP2 DUP4 ADD SWAP1 SWAP3 MSTORE PUSH1 0x0 SWAP2 DUP2 PUSH1 0x20 ADD JUMPDEST PUSH1 0x40 DUP1 MLOAD PUSH1 0xA0 DUP2 ADD DUP3 MSTORE PUSH1 0x0 DUP1 DUP3 MSTORE PUSH1 0x20 DUP1 DUP4 ADD DUP3 SWAP1 MSTORE SWAP3 DUP3 ADD DUP2 SWAP1 MSTORE PUSH1 0x60 DUP3 ADD DUP2 SWAP1 MSTORE PUSH1 0x80 DUP3 ADD MSTORE DUP3 MSTORE PUSH1 0x0 NOT SWAP1 SWAP3 ADD SWAP2 ADD DUP2 PUSH2 0x1B2C JUMPI SWAP1 POP POP SWAP1 POP PUSH1 0x1 DUP2 PUSH1 0x0 DUP2 MLOAD DUP2 LT PUSH2 0x1B7E JUMPI PUSH2 0x1B7E PUSH2 0x4407 JUMP JUMPDEST PUSH1 0x20 MUL PUSH1 0x20 ADD ADD MLOAD PUSH1 0x0 ADD SWAP1 PUSH1 0x3 DUP2 GT ISZERO PUSH2 0x1B9B JUMPI PUSH2 0x1B9B PUSH2 0x4782 JUMP JUMPDEST SWAP1 DUP2 PUSH1 0x3 DUP2 GT ISZERO PUSH2 0x1BAE JUMPI PUSH2 0x1BAE PUSH2 0x4782 JUMP JUMPDEST DUP2 MSTORE POP POP ADDRESS DUP2 PUSH1 0x0 DUP2 MLOAD DUP2 LT PUSH2 0x1BC6 JUMPI PUSH2 0x1BC6 PUSH2 0x4407 JUMP JUMPDEST PUSH1 0x20 SWAP1 DUP2 MUL SWAP2 SWAP1 SWAP2 ADD ADD MLOAD PUSH1 0x1 PUSH1 0x1 PUSH1 0xA0 SHL SUB SWAP2 DUP3 AND PUSH1 0x60 SWAP1 SWAP2 ADD MSTORE PUSH1 0x40 MLOAD PUSH4 0x3A38FA1 PUSH1 0xE2 SHL DUP2 MSTORE PUSH32 0x0 SWAP1 SWAP2 AND SWAP1 PUSH4 0xE8E3E84 SWAP1 PUSH2 0x1C28 SWAP1 DUP5 SWAP1 PUSH1 0x4 ADD PUSH2 0x4798 JUMP JUMPDEST PUSH1 0x0 PUSH1 0x40 MLOAD DUP1 DUP4 SUB DUP2 PUSH1 0x0 DUP8 DUP1 EXTCODESIZE ISZERO DUP1 ISZERO PUSH2 0x1C42 JUMPI PUSH1 0x0 DUP1 REVERT JUMPDEST POP GAS CALL ISZERO DUP1 ISZERO PUSH2 0x1C56 JUMPI RETURNDATASIZE PUSH1 0x0 DUP1 RETURNDATACOPY RETURNDATASIZE PUSH1 0x0 REVERT JUMPDEST POP POP POP POP POP JUMP JUMPDEST PUSH1 0x60 PUSH1 0x0 DUP3 PUSH1 0x1 PUSH1 0x1 PUSH1 0x40 SHL SUB DUP2 GT ISZERO PUSH2 0x1C79 JUMPI PUSH2 0x1C79 PUSH2 0x3D5A JUMP JUMPDEST PUSH1 0x40 MLOAD SWAP1 DUP1 DUP3 MSTORE DUP1 PUSH1 0x20 MUL PUSH1 0x20 ADD DUP3 ADD PUSH1 0x40 MSTORE DUP1 ISZERO PUSH2 0x1CBE JUMPI DUP2 PUSH1 0x20 ADD JUMPDEST PUSH1 0x40 DUP1 MLOAD DUP1 DUP3 ADD SWAP1 SWAP2 MSTORE PUSH1 0x0 DUP1 DUP3 MSTORE PUSH1 0x20 DUP3 ADD MSTORE DUP2 MSTORE PUSH1 0x20 ADD SWAP1 PUSH1 0x1 SWAP1 SUB SWAP1 DUP2 PUSH2 0x1C97 JUMPI SWAP1 POP JUMPDEST POP SWAP1 POP PUSH1 0x0 JUMPDEST DUP4 DUP2 LT ISZERO PUSH2 0x1D50 JUMPI CALLDATASIZE DUP6 DUP6 DUP4 DUP2 DUP2 LT PUSH2 0x1CDF JUMPI PUSH2 0x1CDF PUSH2 0x4407 JUMP JUMPDEST SWAP1 POP PUSH1 0x60 MUL ADD SWAP1 POP PUSH1 0x40 MLOAD DUP1 PUSH1 0x40 ADD PUSH1 0x40 MSTORE DUP1 DUP3 PUSH1 0x40 ADD PUSH1 0x20 DUP2 ADD SWAP1 PUSH2 0x1D05 SWAP2 SWAP1 PUSH2 0x3D2A JUMP JUMPDEST PUSH1 0x1 PUSH1 0x1 PUSH1 0xA0 SHL SUB AND DUP2 MSTORE PUSH1 0x20 ADD PUSH2 0x1D1C DUP4 PUSH2 0x2768 JUMP JUMPDEST DUP2 MSTORE POP DUP4 DUP4 DUP2 MLOAD DUP2 LT PUSH2 0x1D31 JUMPI PUSH2 0x1D31 PUSH2 0x4407 JUMP JUMPDEST PUSH1 0x20 MUL PUSH1 0x20 ADD ADD DUP2 SWAP1 MSTORE POP POP DUP1 DUP1 PUSH2 0x1D48 SWAP1 PUSH2 0x4433 JUMP JUMPDEST SWAP2 POP POP PUSH2 0x1CC4 JUMP JUMPDEST POP SWAP4 SWAP3 POP POP POP JUMP JUMPDEST PUSH1 0x40 MLOAD PUSH4 0x21F8A721 PUSH1 0xE0 SHL DUP2 MSTORE PUSH32 0x524553455256455F4D414E414745525F41444452455353000000000000000000 PUSH1 0x4 DUP3 ADD MSTORE PUSH1 0x0 SWAP1 PUSH1 0x1 PUSH1 0x1 PUSH1 0xA0 SHL SUB DUP4 AND SWAP1 PUSH4 0x21F8A721 SWAP1 PUSH1 0x24 ADD PUSH2 0x1A45 JUMP JUMPDEST PUSH1 0x40 MLOAD PUSH4 0x21F8A721 PUSH1 0xE0 SHL DUP2 MSTORE PUSH32 0x53544557415244534849505F494E435F41444452455353000000000000000000 PUSH1 0x4 DUP3 ADD MSTORE PUSH1 0x0 SWAP1 PUSH1 0x1 PUSH1 0x1 PUSH1 0xA0 SHL SUB DUP4 AND SWAP1 PUSH4 0x21F8A721 SWAP1 PUSH1 0x24 ADD PUSH2 0x1A45 JUMP JUMPDEST PUSH1 0x40 MLOAD PUSH4 0x21F8A721 PUSH1 0xE0 SHL DUP2 MSTORE PUSH20 0x4759445F5245434F564552595F41444452455353 PUSH1 0x60 SHL PUSH1 0x4 DUP3 ADD MSTORE PUSH1 0x0 SWAP1 PUSH1 0x1 PUSH1 0x1 PUSH1 0xA0 SHL SUB DUP4 AND SWAP1 PUSH4 0x21F8A721 SWAP1 PUSH1 0x24 ADD PUSH2 0x1A45 JUMP JUMPDEST PUSH1 0x40 DUP1 MLOAD DUP1 DUP3 ADD SWAP1 SWAP2 MSTORE PUSH1 0x60 DUP2 MSTORE PUSH1 0x0 PUSH1 0x20 DUP3 ADD MSTORE PUSH1 0x0 PUSH1 0x40 MLOAD DUP1 PUSH1 0x40 ADD PUSH1 0x40 MSTORE DUP1 DUP5 MLOAD PUSH1 0x1 PUSH1 0x1 PUSH1 0x40 SHL SUB DUP2 GT ISZERO PUSH2 0x1E77 JUMPI PUSH2 0x1E77 PUSH2 0x3D5A JUMP JUMPDEST PUSH1 0x40 MLOAD SWAP1 DUP1 DUP3 MSTORE DUP1 PUSH1 0x20 MUL PUSH1 0x20 ADD DUP3 ADD PUSH1 0x40 MSTORE DUP1 ISZERO PUSH2 0x1EB0 JUMPI DUP2 PUSH1 0x20 ADD JUMPDEST PUSH2 0x1E9D PUSH2 0x389F JUMP JUMPDEST DUP2 MSTORE PUSH1 0x20 ADD SWAP1 PUSH1 0x1 SWAP1 SUB SWAP1 DUP2 PUSH2 0x1E95 JUMPI SWAP1 POP JUMPDEST POP DUP2 MSTORE PUSH1 0x1 PUSH1 0x20 SWAP1 SWAP2 ADD MSTORE SWAP1 POP PUSH1 0x0 JUMPDEST DUP4 MLOAD DUP2 LT ISZERO PUSH2 0x1D50 JUMPI PUSH1 0x0 DUP5 DUP3 DUP2 MLOAD DUP2 LT PUSH2 0x1EDD JUMPI PUSH2 0x1EDD PUSH2 0x4407 JUMP JUMPDEST PUSH1 0x20 MUL PUSH1 0x20 ADD ADD MLOAD SWAP1 POP PUSH1 0x40 MLOAD DUP1 PUSH1 0x40 ADD PUSH1 0x40 MSTORE DUP1 DUP3 DUP2 MSTORE PUSH1 0x20 ADD PUSH2 0x1F06 DUP4 PUSH1 0x0 ADD MLOAD DUP10 PUSH2 0x2920 JUMP JUMPDEST SWAP1 MSTORE DUP4 MLOAD DUP1 MLOAD DUP5 SWAP1 DUP2 LT PUSH2 0x1F1C JUMPI PUSH2 0x1F1C PUSH2 0x4407 JUMP JUMPDEST PUSH1 0x20 MUL PUSH1 0x20 ADD ADD DUP2 SWAP1 MSTORE POP POP DUP1 DUP1 PUSH2 0x1F33 SWAP1 PUSH2 0x4433 JUMP JUMPDEST SWAP2 POP POP PUSH2 0x1EC0 JUMP JUMPDEST PUSH1 0x40 MLOAD PUSH4 0x21F8A721 PUSH1 0xE0 SHL DUP2 MSTORE PUSH32 0x524F4F545F5341464554595F434845434B5F4144445245535300000000000000 PUSH1 0x4 DUP3 ADD MSTORE PUSH1 0x0 SWAP1 PUSH1 0x1 PUSH1 0x1 PUSH1 0xA0 SHL SUB DUP4 AND SWAP1 PUSH4 0x21F8A721 SWAP1 PUSH1 0x24 ADD PUSH2 0x1A45 JUMP JUMPDEST PUSH1 0x40 MLOAD PUSH1 0x1 PUSH1 0x1 PUSH1 0xA0 SHL SUB DUP4 AND PUSH1 0x24 DUP3 ADD MSTORE PUSH1 0x44 DUP2 ADD DUP3 SWAP1 MSTORE PUSH2 0x1FED SWAP1 DUP5 SWAP1 PUSH4 0xA9059CBB PUSH1 0xE0 SHL SWAP1 PUSH1 0x64 ADD JUMPDEST PUSH1 0x40 DUP1 MLOAD PUSH1 0x1F NOT DUP2 DUP5 SUB ADD DUP2 MSTORE SWAP2 SWAP1 MSTORE PUSH1 0x20 DUP2 ADD DUP1 MLOAD PUSH1 0x1 PUSH1 0x1 PUSH1 0xE0 SHL SUB AND PUSH1 0x1 PUSH1 0x1 PUSH1 0xE0 SHL SUB NOT SWAP1 SWAP4 AND SWAP3 SWAP1 SWAP3 OR SWAP1 SWAP2 MSTORE PUSH2 0x298E JUMP JUMPDEST POP POP POP JUMP JUMPDEST PUSH1 0x40 MLOAD PUSH4 0x21F8A721 PUSH1 0xE0 SHL DUP2 MSTORE PUSH19 0x4645455F48414E444C45525F41444452455353 PUSH1 0x68 SHL PUSH1 0x4 DUP3 ADD MSTORE PUSH1 0x0 SWAP1 PUSH1 0x1 PUSH1 0x1 PUSH1 0xA0 SHL SUB DUP4 AND SWAP1 PUSH4 0x21F8A721 SWAP1 PUSH1 0x24 ADD PUSH2 0x1A45 JUMP JUMPDEST PUSH1 0x0 DUP1 JUMPDEST DUP3 MLOAD MLOAD DUP2 LT ISZERO PUSH2 0x20D2 JUMPI PUSH1 0x0 DUP4 PUSH1 0x0 ADD MLOAD DUP3 DUP2 MLOAD DUP2 LT PUSH2 0x205D JUMPI PUSH2 0x205D PUSH2 0x4407 JUMP JUMPDEST PUSH1 0x20 MUL PUSH1 0x20 ADD ADD MLOAD SWAP1 POP PUSH1 0x0 DUP2 PUSH1 0x0 ADD MLOAD SWAP1 POP PUSH1 0x0 PUSH2 0x2084 PUSH2 0x207D PUSH2 0x20D8 JUMP JUMPDEST DUP4 SWAP1 PUSH2 0x2A60 JUMP JUMPDEST SWAP1 POP PUSH1 0x0 PUSH2 0x20A3 DUP4 PUSH1 0x20 ADD MLOAD DUP6 PUSH1 0x20 ADD MLOAD PUSH2 0x2AC1 SWAP1 SWAP2 SWAP1 PUSH4 0xFFFFFFFF AND JUMP JUMPDEST SWAP1 POP PUSH2 0x20AF DUP2 DUP4 PUSH2 0x242F JUMP JUMPDEST PUSH2 0x20B9 SWAP1 DUP8 PUSH2 0x473F JUMP JUMPDEST SWAP6 POP POP POP POP POP DUP1 DUP1 PUSH2 0x20CA SWAP1 PUSH2 0x4433 JUMP JUMPDEST SWAP2 POP POP PUSH2 0x203B JUMP JUMPDEST POP SWAP2 SWAP1 POP JUMP JUMPDEST PUSH1 0x0 PUSH2 0x1559 PUSH32 0x0 PUSH1 0x1 PUSH1 0x1 PUSH1 0xA0 SHL SUB AND PUSH2 0x2B29 JUMP JUMPDEST PUSH1 0x0 DUP1 PUSH1 0x0 JUMPDEST DUP5 PUSH1 0x20 ADD MLOAD MLOAD DUP2 LT ISZERO PUSH2 0x1D50 JUMPI PUSH1 0x0 DUP6 PUSH1 0x20 ADD MLOAD DUP3 DUP2 MLOAD DUP2 LT PUSH2 0x2137 JUMPI PUSH2 0x2137 PUSH2 0x4407 JUMP JUMPDEST PUSH1 0x20 MUL PUSH1 0x20 ADD ADD MLOAD SWAP1 POP PUSH1 0x0 PUSH2 0x214D DUP3 DUP8 PUSH2 0x2A60 JUMP JUMPDEST SWAP1 POP PUSH1 0x0 PUSH2 0x216C DUP4 PUSH1 0x20 ADD MLOAD DUP5 PUSH1 0xA0 ADD MLOAD PUSH2 0x2AC1 SWAP1 SWAP2 SWAP1 PUSH4 0xFFFFFFFF AND JUMP JUMPDEST SWAP1 POP PUSH2 0x2178 DUP2 DUP4 PUSH2 0x242F JUMP JUMPDEST PUSH2 0x2182 SWAP1 DUP7 PUSH2 0x473F JUMP JUMPDEST SWAP5 POP POP POP POP DUP1 DUP1 PUSH2 0x2192 SWAP1 PUSH2 0x4433 JUMP JUMPDEST SWAP2 POP POP PUSH2 0x2112 JUMP JUMPDEST PUSH1 0x40 DUP1 MLOAD DUP1 DUP3 ADD SWAP1 SWAP2 MSTORE PUSH1 0x60 DUP2 MSTORE PUSH1 0x0 PUSH1 0x20 DUP3 ADD MSTORE PUSH2 0x21B9 DUP5 DUP5 PUSH2 0x2B78 JUMP JUMPDEST PUSH1 0x0 PUSH1 0x40 MLOAD DUP1 PUSH1 0x40 ADD PUSH1 0x40 MSTORE DUP1 DUP5 MLOAD PUSH1 0x1 PUSH1 0x1 PUSH1 0x40 SHL SUB DUP2 GT ISZERO PUSH2 0x21DF JUMPI PUSH2 0x21DF PUSH2 0x3D5A JUMP JUMPDEST PUSH1 0x40 MLOAD SWAP1 DUP1 DUP3 MSTORE DUP1 PUSH1 0x20 MUL PUSH1 0x20 ADD DUP3 ADD PUSH1 0x40 MSTORE DUP1 ISZERO PUSH2 0x2218 JUMPI DUP2 PUSH1 0x20 ADD JUMPDEST PUSH2 0x2205 PUSH2 0x389F JUMP JUMPDEST DUP2 MSTORE PUSH1 0x20 ADD SWAP1 PUSH1 0x1 SWAP1 SUB SWAP1 DUP2 PUSH2 0x21FD JUMPI SWAP1 POP JUMPDEST POP DUP2 MSTORE PUSH1 0x20 ADD PUSH1 0x0 ISZERO ISZERO DUP2 MSTORE POP SWAP1 POP PUSH1 0x0 DUP1 JUMPDEST DUP5 MLOAD DUP2 LT ISZERO PUSH2 0x22BE JUMPI PUSH1 0x0 DUP6 DUP3 DUP2 MLOAD DUP2 LT PUSH2 0x2248 JUMPI PUSH2 0x2248 PUSH2 0x4407 JUMP JUMPDEST PUSH1 0x20 MUL PUSH1 0x20 ADD ADD MLOAD SWAP1 POP PUSH1 0x0 DUP1 PUSH2 0x2261 DUP4 DUP13 DUP13 DUP13 PUSH2 0x2C6D JUMP JUMPDEST SWAP1 SWAP3 POP SWAP1 POP PUSH2 0x2270 DUP2 DUP7 PUSH2 0x473F JUMP JUMPDEST SWAP5 POP PUSH1 0x40 MLOAD DUP1 PUSH1 0x40 ADD PUSH1 0x40 MSTORE DUP1 DUP5 DUP2 MSTORE PUSH1 0x20 ADD DUP4 DUP2 MSTORE POP DUP7 PUSH1 0x0 ADD MLOAD DUP6 DUP2 MLOAD DUP2 LT PUSH2 0x229D JUMPI PUSH2 0x229D PUSH2 0x4407 JUMP JUMPDEST PUSH1 0x20 MUL PUSH1 0x20 ADD ADD DUP2 SWAP1 MSTORE POP POP POP POP DUP1 DUP1 PUSH2 0x22B6 SWAP1 PUSH2 0x4433 JUMP JUMPDEST SWAP2 POP POP PUSH2 0x222B JUMP JUMPDEST POP PUSH1 0x40 DUP1 MLOAD DUP1 DUP3 ADD SWAP1 SWAP2 MSTORE PUSH1 0x2 DUP2 MSTORE PUSH2 0x3331 PUSH1 0xF0 SHL PUSH1 0x20 DUP3 ADD MSTORE PUSH8 0xDE0B6B3A7640000 DUP3 EQ PUSH2 0x2300 JUMPI PUSH1 0x40 MLOAD PUSH3 0x461BCD PUSH1 0xE5 SHL DUP2 MSTORE PUSH1 0x4 ADD PUSH2 0x36D SWAP2 SWAP1 PUSH2 0x3D47 JUMP JUMPDEST POP SWAP1 SWAP2 POP POP JUMPDEST SWAP5 SWAP4 POP POP POP POP JUMP JUMPDEST PUSH1 0x60 DUP1 DUP4 PUSH1 0x1 PUSH1 0x1 PUSH1 0x40 SHL SUB DUP2 GT ISZERO PUSH2 0x2329 JUMPI PUSH2 0x2329 PUSH2 0x3D5A JUMP JUMPDEST PUSH1 0x40 MLOAD SWAP1 DUP1 DUP3 MSTORE DUP1 PUSH1 0x20 MUL PUSH1 0x20 ADD DUP3 ADD PUSH1 0x40 MSTORE DUP1 ISZERO PUSH2 0x2352 JUMPI DUP2 PUSH1 0x20 ADD PUSH1 0x20 DUP3 MUL DUP1 CALLDATASIZE DUP4 CALLDATACOPY ADD SWAP1 POP JUMPDEST POP SWAP2 POP PUSH1 0x0 JUMPDEST DUP5 DUP2 LT ISZERO PUSH2 0x2426 JUMPI CALLDATASIZE DUP7 DUP7 DUP4 DUP2 DUP2 LT PUSH2 0x2373 JUMPI PUSH2 0x2373 PUSH2 0x4407 JUMP JUMPDEST SWAP1 POP PUSH1 0x80 MUL ADD SWAP1 POP PUSH1 0x0 PUSH2 0x239D DUP7 PUSH1 0x0 ADD MLOAD DUP4 PUSH1 0x60 ADD PUSH1 0x20 DUP2 ADD SWAP1 PUSH2 0x2398 SWAP2 SWAP1 PUSH2 0x3D2A JUMP JUMPDEST PUSH2 0x2D4B JUMP JUMPDEST SWAP1 POP PUSH1 0x0 PUSH2 0x23AB DUP4 DUP4 PUSH2 0x2DC1 JUMP JUMPDEST DUP1 MLOAD SWAP1 SWAP7 POP SWAP1 SWAP2 POP ISZERO PUSH2 0x23C1 JUMPI POP POP POP POP PUSH2 0xD05 JUMP JUMPDEST DUP3 PUSH1 0x20 ADD CALLDATALOAD DUP2 LT ISZERO PUSH2 0x23F1 JUMPI POP POP PUSH1 0x40 DUP1 MLOAD DUP1 DUP3 ADD SWAP1 SWAP2 MSTORE PUSH1 0x1 DUP2 MSTORE PUSH1 0x19 PUSH1 0xF9 SHL PUSH1 0x20 DUP3 ADD MSTORE SWAP3 POP PUSH2 0xD05 SWAP2 POP POP JUMP JUMPDEST DUP1 DUP7 DUP6 DUP2 MLOAD DUP2 LT PUSH2 0x2404 JUMPI PUSH2 0x2404 PUSH2 0x4407 JUMP JUMPDEST PUSH1 0x20 MUL PUSH1 0x20 ADD ADD DUP2 DUP2 MSTORE POP POP POP POP POP DUP1 DUP1 PUSH2 0x241E SWAP1 PUSH2 0x4433 JUMP JUMPDEST SWAP2 POP POP PUSH2 0x2358 JUMP JUMPDEST POP SWAP4 POP SWAP4 SWAP2 POP POP JUMP JUMPDEST PUSH1 0x0 DUP1 PUSH2 0x243C DUP4 DUP6 PUSH2 0x4833 JUMP JUMPDEST SWAP1 POP PUSH2 0x2306 PUSH8 0xDE0B6B3A7640000 DUP3 PUSH2 0x484A JUMP JUMPDEST PUSH1 0x60 DUP3 PUSH1 0x1 PUSH1 0x1 PUSH1 0x40 SHL SUB DUP2 GT ISZERO PUSH2 0x246A JUMPI PUSH2 0x246A PUSH2 0x3D5A JUMP JUMPDEST PUSH1 0x40 MLOAD SWAP1 DUP1 DUP3 MSTORE DUP1 PUSH1 0x20 MUL PUSH1 0x20 ADD DUP3 ADD PUSH1 0x40 MSTORE DUP1 ISZERO PUSH2 0x2493 JUMPI DUP2 PUSH1 0x20 ADD PUSH1 0x20 DUP3 MUL DUP1 CALLDATASIZE DUP4 CALLDATACOPY ADD SWAP1 POP JUMPDEST POP SWAP1 POP PUSH1 0x0 JUMPDEST DUP4 DUP2 LT ISZERO PUSH2 0x1D50 JUMPI PUSH1 0x0 DUP6 DUP6 DUP4 DUP2 DUP2 LT PUSH2 0x24B5 JUMPI PUSH2 0x24B5 PUSH2 0x4407 JUMP JUMPDEST SWAP1 POP PUSH1 0x80 MUL ADD DUP1 CALLDATASIZE SUB DUP2 ADD SWAP1 PUSH2 0x24CB SWAP2 SWAP1 PUSH2 0x486C JUMP JUMPDEST SWAP1 POP PUSH1 0x0 PUSH2 0x24E1 DUP6 PUSH1 0x0 ADD MLOAD DUP4 PUSH1 0x60 ADD MLOAD PUSH2 0x2D4B JUMP JUMPDEST SWAP1 POP PUSH1 0x0 PUSH2 0x24EF DUP4 DUP4 PUSH2 0x3000 JUMP JUMPDEST SWAP1 POP DUP3 PUSH1 0x20 ADD MLOAD DUP2 LT ISZERO PUSH1 0x40 MLOAD DUP1 PUSH1 0x40 ADD PUSH1 0x40 MSTORE DUP1 PUSH1 0x1 DUP2 MSTORE PUSH1 0x20 ADD PUSH1 0x19 PUSH1 0xF9 SHL DUP2 MSTORE POP SWAP1 PUSH2 0x2531 JUMPI PUSH1 0x40 MLOAD PUSH3 0x461BCD PUSH1 0xE5 SHL DUP2 MSTORE PUSH1 0x4 ADD PUSH2 0x36D SWAP2 SWAP1 PUSH2 0x3D47 JUMP JUMPDEST POP DUP1 DUP6 DUP6 DUP2 MLOAD DUP2 LT PUSH2 0x2545 JUMPI PUSH2 0x2545 PUSH2 0x4407 JUMP JUMPDEST PUSH1 0x20 SWAP1 DUP2 MUL SWAP2 SWAP1 SWAP2 ADD ADD MSTORE DUP3 MLOAD PUSH2 0x2566 SWAP1 PUSH1 0x1 PUSH1 0x1 PUSH1 0xA0 SHL SUB AND CALLER DUP4 PUSH2 0x1F8A JUMP JUMPDEST POP POP POP DUP1 DUP1 PUSH2 0x2574 SWAP1 PUSH2 0x4433 JUMP JUMPDEST SWAP2 POP POP PUSH2 0x2499 JUMP JUMPDEST PUSH1 0x60 DUP1 DUP3 PUSH1 0x1 PUSH1 0x1 PUSH1 0x40 SHL SUB DUP2 GT ISZERO PUSH2 0x2597 JUMPI PUSH2 0x2597 PUSH2 0x3D5A JUMP JUMPDEST PUSH1 0x40 MLOAD SWAP1 DUP1 DUP3 MSTORE DUP1 PUSH1 0x20 MUL PUSH1 0x20 ADD DUP3 ADD PUSH1 0x40 MSTORE DUP1 ISZERO PUSH2 0x25DC JUMPI DUP2 PUSH1 0x20 ADD JUMPDEST PUSH1 0x40 DUP1 MLOAD DUP1 DUP3 ADD SWAP1 SWAP2 MSTORE PUSH1 0x0 DUP1 DUP3 MSTORE PUSH1 0x20 DUP3 ADD MSTORE DUP2 MSTORE PUSH1 0x20 ADD SWAP1 PUSH1 0x1 SWAP1 SUB SWAP1 DUP2 PUSH2 0x25B5 JUMPI SWAP1 POP JUMPDEST POP SWAP2 POP PUSH1 0x0 JUMPDEST DUP4 DUP2 LT ISZERO PUSH2 0x2687 JUMPI CALLDATASIZE DUP6 DUP6 DUP4 DUP2 DUP2 LT PUSH2 0x25FD JUMPI PUSH2 0x25FD PUSH2 0x4407 JUMP JUMPDEST SWAP1 POP PUSH1 0x60 MUL ADD SWAP1 POP PUSH1 0x0 PUSH2 0x2610 DUP3 PUSH2 0x31E1 JUMP JUMPDEST DUP1 MLOAD SWAP1 SWAP6 POP SWAP1 SWAP2 POP ISZERO PUSH2 0x2625 JUMPI POP POP POP PUSH2 0x2689 JUMP JUMPDEST PUSH1 0x40 MLOAD DUP1 PUSH1 0x40 ADD PUSH1 0x40 MSTORE DUP1 DUP4 PUSH1 0x40 ADD PUSH1 0x20 DUP2 ADD SWAP1 PUSH2 0x2643 SWAP2 SWAP1 PUSH2 0x3D2A JUMP JUMPDEST PUSH1 0x1 PUSH1 0x1 PUSH1 0xA0 SHL SUB AND DUP2 MSTORE PUSH1 0x20 ADD DUP3 DUP2 MSTORE POP DUP6 DUP5 DUP2 MLOAD DUP2 LT PUSH2 0x2667 JUMPI PUSH2 0x2667 PUSH2 0x4407 JUMP JUMPDEST PUSH1 0x20 MUL PUSH1 0x20 ADD ADD DUP2 SWAP1 MSTORE POP POP POP DUP1 DUP1 PUSH2 0x267F SWAP1 PUSH2 0x4433 JUMP JUMPDEST SWAP2 POP POP PUSH2 0x25E2 JUMP JUMPDEST POP JUMPDEST SWAP3 POP SWAP3 SWAP1 POP JUMP JUMPDEST PUSH1 0x40 MLOAD PUSH4 0x21F8A721 PUSH1 0xE0 SHL DUP2 MSTORE PUSH12 0x50414D4D5F41444452455353 PUSH1 0xA0 SHL PUSH1 0x4 DUP3 ADD MSTORE PUSH1 0x0 SWAP1 PUSH1 0x1 PUSH1 0x1 PUSH1 0xA0 SHL SUB DUP4 AND SWAP1 PUSH4 0x21F8A721 SWAP1 PUSH1 0x24 ADD PUSH2 0x1A45 JUMP JUMPDEST PUSH1 0x40 MLOAD PUSH4 0x21F8A721 PUSH1 0xE0 SHL DUP2 MSTORE PUSH20 0x474F565F54524541535552595F41444452455353 PUSH1 0x60 SHL PUSH1 0x4 DUP3 ADD MSTORE PUSH1 0x0 SWAP1 PUSH1 0x1 PUSH1 0x1 PUSH1 0xA0 SHL SUB DUP4 AND SWAP1 PUSH4 0x21F8A721 SWAP1 PUSH1 0x24 ADD PUSH2 0x1A45 JUMP JUMPDEST PUSH1 0x0 DUP1 SLOAD PUSH1 0x1 PUSH1 0x1 PUSH1 0xA0 SHL SUB NOT AND PUSH1 0x1 PUSH1 0x1 PUSH1 0xA0 SHL SUB DUP4 AND SWAP1 DUP2 OR DUP3 SSTORE PUSH1 0x40 DUP1 MLOAD SWAP3 DUP4 MSTORE PUSH1 0x20 DUP4 ADD SWAP2 SWAP1 SWAP2 MSTORE PUSH32 0xDE4B3F61490B74C0ED6237523974FE299126BBBF8A8A7482FD220104C59B0C84 SWAP2 ADD PUSH2 0x3D6 JUMP JUMPDEST PUSH1 0x0 DUP1 PUSH2 0x277B PUSH1 0x60 DUP5 ADD PUSH1 0x40 DUP6 ADD PUSH2 0x3D2A JUMP JUMPDEST SWAP1 POP PUSH2 0x27A4 CALLER ADDRESS PUSH1 0x20 DUP7 ADD DUP1 CALLDATALOAD SWAP1 PUSH2 0x2793 SWAP1 DUP9 PUSH2 0x3D2A JUMP JUMPDEST PUSH1 0x1 PUSH1 0x1 PUSH1 0xA0 SHL SUB AND SWAP3 SWAP2 SWAP1 PUSH2 0x3372 JUMP JUMPDEST PUSH1 0x1 PUSH1 0x1 PUSH1 0xA0 SHL SUB DUP2 AND PUSH2 0x27BB PUSH1 0x20 DUP6 ADD DUP6 PUSH2 0x3D2A JUMP JUMPDEST PUSH1 0x1 PUSH1 0x1 PUSH1 0xA0 SHL SUB AND SUB PUSH2 0x27D2 JUMPI POP POP PUSH1 0x20 ADD CALLDATALOAD SWAP1 JUMP JUMPDEST PUSH1 0x0 DUP2 PUSH1 0x1 PUSH1 0x1 PUSH1 0xA0 SHL SUB AND PUSH4 0x6F307DC3 PUSH1 0x40 MLOAD DUP2 PUSH4 0xFFFFFFFF AND PUSH1 0xE0 SHL DUP2 MSTORE PUSH1 0x4 ADD PUSH1 0x20 PUSH1 0x40 MLOAD DUP1 DUP4 SUB DUP2 DUP7 GAS STATICCALL ISZERO DUP1 ISZERO PUSH2 0x2812 JUMPI RETURNDATASIZE PUSH1 0x0 DUP1 RETURNDATACOPY RETURNDATASIZE PUSH1 0x0 REVERT JUMPDEST POP POP POP POP PUSH1 0x40 MLOAD RETURNDATASIZE PUSH1 0x1F NOT PUSH1 0x1F DUP3 ADD AND DUP3 ADD DUP1 PUSH1 0x40 MSTORE POP DUP2 ADD SWAP1 PUSH2 0x2836 SWAP2 SWAP1 PUSH2 0x4765 JUMP JUMPDEST SWAP1 POP PUSH1 0x1 PUSH1 0x1 PUSH1 0xA0 SHL SUB DUP2 AND PUSH2 0x284F PUSH1 0x20 DUP7 ADD DUP7 PUSH2 0x3D2A JUMP JUMPDEST PUSH1 0x1 PUSH1 0x1 PUSH1 0xA0 SHL SUB AND EQ PUSH1 0x40 MLOAD DUP1 PUSH1 0x40 ADD PUSH1 0x40 MSTORE DUP1 PUSH1 0x2 DUP2 MSTORE PUSH1 0x20 ADD PUSH2 0x3335 PUSH1 0xF0 SHL DUP2 MSTORE POP SWAP1 PUSH2 0x2892 JUMPI PUSH1 0x40 MLOAD PUSH3 0x461BCD PUSH1 0xE5 SHL DUP2 MSTORE PUSH1 0x4 ADD PUSH2 0x36D SWAP2 SWAP1 PUSH2 0x3D47 JUMP JUMPDEST POP PUSH2 0x28AB PUSH1 0x1 PUSH1 0x1 PUSH1 0xA0 SHL SUB DUP3 AND DUP4 PUSH1 0x20 DUP8 ADD CALLDATALOAD PUSH2 0x33B0 JUMP JUMPDEST PUSH1 0x40 MLOAD PUSH4 0x1C57762B PUSH1 0xE3 SHL DUP2 MSTORE PUSH1 0x20 DUP6 ADD CALLDATALOAD PUSH1 0x4 DUP3 ADD MSTORE PUSH1 0x0 PUSH1 0x24 DUP3 ADD MSTORE PUSH1 0x1 PUSH1 0x1 PUSH1 0xA0 SHL SUB DUP4 AND SWAP1 PUSH4 0xE2BBB158 SWAP1 PUSH1 0x44 ADD PUSH1 0x20 PUSH1 0x40 MLOAD DUP1 DUP4 SUB DUP2 PUSH1 0x0 DUP8 GAS CALL ISZERO DUP1 ISZERO PUSH2 0x28FC JUMPI RETURNDATASIZE PUSH1 0x0 DUP1 RETURNDATACOPY RETURNDATASIZE PUSH1 0x0 REVERT JUMPDEST POP POP POP POP PUSH1 0x40 MLOAD RETURNDATASIZE PUSH1 0x1F NOT PUSH1 0x1F DUP3 ADD AND DUP3 ADD DUP1 PUSH1 0x40 MSTORE POP DUP2 ADD SWAP1 PUSH2 0x2306 SWAP2 SWAP1 PUSH2 0x4578 JUMP JUMPDEST PUSH1 0x0 DUP1 DUP1 JUMPDEST DUP4 MLOAD DUP2 LT ISZERO PUSH2 0x1D50 JUMPI PUSH1 0x0 DUP5 DUP3 DUP2 MLOAD DUP2 LT PUSH2 0x2942 JUMPI PUSH2 0x2942 PUSH2 0x4407 JUMP JUMPDEST PUSH1 0x20 MUL PUSH1 0x20 ADD ADD MLOAD SWAP1 POP DUP6 PUSH1 0x1 PUSH1 0x1 PUSH1 0xA0 SHL SUB AND DUP2 PUSH1 0x0 ADD MLOAD PUSH1 0x1 PUSH1 0x1 PUSH1 0xA0 SHL SUB AND SUB PUSH2 0x297B JUMPI PUSH1 0x20 DUP2 ADD MLOAD PUSH2 0x2978 SWAP1 DUP5 PUSH2 0x473F JUMP JUMPDEST SWAP3 POP JUMPDEST POP DUP1 PUSH2 0x2986 DUP2 PUSH2 0x4433 JUMP JUMPDEST SWAP2 POP POP PUSH2 0x2925 JUMP JUMPDEST PUSH1 0x0 PUSH2 0x29E3 DUP3 PUSH1 0x40 MLOAD DUP1 PUSH1 0x40 ADD PUSH1 0x40 MSTORE DUP1 PUSH1 0x20 DUP2 MSTORE PUSH1 0x20 ADD PUSH32 0x5361666545524332303A206C6F772D6C6576656C2063616C6C206661696C6564 DUP2 MSTORE POP DUP6 PUSH1 0x1 PUSH1 0x1 PUSH1 0xA0 SHL SUB AND PUSH2 0x3462 SWAP1 SWAP3 SWAP2 SWAP1 PUSH4 0xFFFFFFFF AND JUMP JUMPDEST DUP1 MLOAD SWAP1 SWAP2 POP ISZERO PUSH2 0x1FED JUMPI DUP1 DUP1 PUSH1 0x20 ADD SWAP1 MLOAD DUP2 ADD SWAP1 PUSH2 0x2A01 SWAP2 SWAP1 PUSH2 0x4353 JUMP JUMPDEST PUSH2 0x1FED JUMPI PUSH1 0x40 MLOAD PUSH3 0x461BCD PUSH1 0xE5 SHL DUP2 MSTORE PUSH1 0x20 PUSH1 0x4 DUP3 ADD MSTORE PUSH1 0x2A PUSH1 0x24 DUP3 ADD MSTORE PUSH32 0x5361666545524332303A204552433230206F7065726174696F6E20646964206E PUSH1 0x44 DUP3 ADD MSTORE PUSH10 0x1BDD081CDD58D8D95959 PUSH1 0xB2 SHL PUSH1 0x64 DUP3 ADD MSTORE PUSH1 0x84 ADD PUSH2 0x36D JUMP JUMPDEST PUSH1 0x0 DUP1 PUSH2 0x2A73 DUP5 PUSH2 0x100 ADD MLOAD PUSH1 0x0 PUSH2 0x3471 JUMP JUMPDEST DUP5 MLOAD PUSH1 0x40 MLOAD PUSH4 0xB32B752D PUSH1 0xE0 SHL DUP2 MSTORE SWAP2 SWAP3 POP PUSH1 0x1 PUSH1 0x1 PUSH1 0xA0 SHL SUB DUP6 AND SWAP2 PUSH4 0xB32B752D SWAP2 PUSH2 0x2AA4 SWAP2 DUP6 SWAP1 PUSH1 0x4 ADD PUSH2 0x48E0 JUMP JUMPDEST PUSH1 0x20 PUSH1 0x40 MLOAD DUP1 DUP4 SUB DUP2 DUP7 GAS STATICCALL ISZERO DUP1 ISZERO PUSH2 0x28FC JUMPI RETURNDATASIZE PUSH1 0x0 DUP1 RETURNDATACOPY RETURNDATASIZE PUSH1 0x0 REVERT JUMPDEST PUSH1 0x0 PUSH1 0x11 NOT PUSH1 0xFF DUP4 AND ADD PUSH2 0x2AD6 JUMPI POP DUP2 PUSH2 0x1A86 JUMP JUMPDEST PUSH1 0x12 PUSH1 0xFF DUP4 AND GT ISZERO PUSH2 0x2B09 JUMPI PUSH2 0x2AED PUSH1 0x12 DUP4 PUSH2 0x4904 JUMP JUMPDEST PUSH2 0x2AF8 SWAP1 PUSH1 0xA PUSH2 0x49F9 JUMP JUMPDEST PUSH2 0x2B02 SWAP1 DUP5 PUSH2 0x484A JUMP JUMPDEST SWAP1 POP PUSH2 0x1A86 JUMP JUMPDEST PUSH2 0x2B14 DUP3 PUSH1 0x12 PUSH2 0x4904 JUMP JUMPDEST PUSH2 0x2B1F SWAP1 PUSH1 0xA PUSH2 0x49F9 JUMP JUMPDEST PUSH2 0x2B02 SWAP1 DUP5 PUSH2 0x4833 JUMP JUMPDEST PUSH1 0x40 MLOAD PUSH4 0x21F8A721 PUSH1 0xE0 SHL DUP2 MSTORE PUSH32 0x524F4F545F50524943455F4F5241434C455F4144445245535300000000000000 PUSH1 0x4 DUP3 ADD MSTORE PUSH1 0x0 SWAP1 PUSH1 0x1 PUSH1 0x1 PUSH1 0xA0 SHL SUB DUP4 AND SWAP1 PUSH4 0x21F8A721 SWAP1 PUSH1 0x24 ADD PUSH2 0x1A45 JUMP JUMPDEST PUSH1 0x0 JUMPDEST DUP2 DUP2 LT ISZERO PUSH2 0x1FED JUMPI CALLDATASIZE DUP4 DUP4 DUP4 DUP2 DUP2 LT PUSH2 0x2B96 JUMPI PUSH2 0x2B96 PUSH2 0x4407 JUMP JUMPDEST SWAP1 POP PUSH1 0x80 MUL ADD SWAP1 POP PUSH1 0x0 DUP3 PUSH1 0x1 PUSH2 0x2BAD SWAP2 SWAP1 PUSH2 0x473F JUMP JUMPDEST SWAP1 POP JUMPDEST DUP4 DUP2 LT ISZERO PUSH2 0x2C58 JUMPI CALLDATASIZE DUP6 DUP6 DUP4 DUP2 DUP2 LT PUSH2 0x2BCB JUMPI PUSH2 0x2BCB PUSH2 0x4407 JUMP JUMPDEST SWAP1 POP PUSH1 0x80 MUL ADD SWAP1 POP DUP1 PUSH1 0x60 ADD PUSH1 0x20 DUP2 ADD SWAP1 PUSH2 0x2BE6 SWAP2 SWAP1 PUSH2 0x3D2A JUMP JUMPDEST PUSH1 0x1 PUSH1 0x1 PUSH1 0xA0 SHL SUB AND PUSH2 0x2BFF PUSH1 0x80 DUP6 ADD PUSH1 0x60 DUP7 ADD PUSH2 0x3D2A JUMP JUMPDEST PUSH1 0x1 PUSH1 0x1 PUSH1 0xA0 SHL SUB AND EQ ISZERO PUSH1 0x40 MLOAD DUP1 PUSH1 0x40 ADD PUSH1 0x40 MSTORE DUP1 PUSH1 0x2 DUP2 MSTORE PUSH1 0x20 ADD PUSH2 0x3331 PUSH1 0xF0 SHL DUP2 MSTORE POP SWAP1 PUSH2 0x2C43 JUMPI PUSH1 0x40 MLOAD PUSH3 0x461BCD PUSH1 0xE5 SHL DUP2 MSTORE PUSH1 0x4 ADD PUSH2 0x36D SWAP2 SWAP1 PUSH2 0x3D47 JUMP JUMPDEST POP POP DUP1 DUP1 PUSH2 0x2C50 SWAP1 PUSH2 0x4433 JUMP JUMPDEST SWAP2 POP POP PUSH2 0x2BB0 JUMP JUMPDEST POP POP DUP1 DUP1 PUSH2 0x2C65 SWAP1 PUSH2 0x4433 JUMP JUMPDEST SWAP2 POP POP PUSH2 0x2B7B JUMP JUMPDEST PUSH1 0x0 DUP1 PUSH1 0x0 JUMPDEST DUP4 DUP2 LT ISZERO PUSH2 0x2D3C JUMPI CALLDATASIZE DUP6 DUP6 DUP4 DUP2 DUP2 LT PUSH2 0x2C8E JUMPI PUSH2 0x2C8E PUSH2 0x4407 JUMP JUMPDEST SWAP1 POP PUSH1 0x80 MUL ADD SWAP1 POP DUP8 PUSH1 0x0 ADD MLOAD PUSH1 0x1 PUSH1 0x1 PUSH1 0xA0 SHL SUB AND DUP2 PUSH1 0x60 ADD PUSH1 0x20 DUP2 ADD SWAP1 PUSH2 0x2CB7 SWAP2 SWAP1 PUSH2 0x3D2A JUMP JUMPDEST PUSH1 0x1 PUSH1 0x1 PUSH1 0xA0 SHL SUB AND SUB PUSH2 0x2D29 JUMPI PUSH1 0x0 PUSH2 0x2CD9 PUSH2 0x2CD2 PUSH2 0x20D8 JUMP JUMPDEST DUP11 SWAP1 PUSH2 0x3671 JUMP JUMPDEST SWAP1 POP PUSH1 0x0 PUSH2 0x2CEB DUP10 PUSH1 0x40 DUP6 ADD CALLDATALOAD PUSH2 0x242F JUMP JUMPDEST SWAP1 POP PUSH1 0x0 PUSH2 0x2CF9 DUP3 DUP5 PUSH2 0x3684 JUMP JUMPDEST SWAP1 POP PUSH1 0x0 PUSH2 0x2D14 DUP13 PUSH1 0x20 ADD MLOAD DUP4 PUSH2 0x36EF SWAP1 SWAP2 SWAP1 PUSH4 0xFFFFFFFF AND JUMP JUMPDEST SWAP8 POP POP POP PUSH1 0x40 SWAP1 SWAP3 ADD CALLDATALOAD SWAP4 POP PUSH2 0x151C SWAP3 POP POP POP JUMP JUMPDEST POP DUP1 PUSH2 0x2D34 DUP2 PUSH2 0x4433 JUMP JUMPDEST SWAP2 POP POP PUSH2 0x2C73 JUMP JUMPDEST POP PUSH1 0x0 SWAP7 DUP8 SWAP7 POP SWAP5 POP POP POP POP POP JUMP JUMPDEST PUSH1 0x0 DUP1 JUMPDEST DUP4 MLOAD DUP2 LT ISZERO PUSH2 0x2DB7 JUMPI PUSH1 0x0 DUP5 DUP3 DUP2 MLOAD DUP2 LT PUSH2 0x2D6C JUMPI PUSH2 0x2D6C PUSH2 0x4407 JUMP JUMPDEST PUSH1 0x20 MUL PUSH1 0x20 ADD ADD MLOAD SWAP1 POP DUP4 PUSH1 0x1 PUSH1 0x1 PUSH1 0xA0 SHL SUB AND DUP2 PUSH1 0x0 ADD MLOAD PUSH1 0x0 ADD MLOAD PUSH1 0x1 PUSH1 0x1 PUSH1 0xA0 SHL SUB AND SUB PUSH2 0x2DA4 JUMPI PUSH1 0x20 ADD MLOAD SWAP2 POP PUSH2 0x1A86 SWAP1 POP JUMP JUMPDEST POP DUP1 PUSH2 0x2DAF DUP2 PUSH2 0x4433 JUMP JUMPDEST SWAP2 POP POP PUSH2 0x2D4F JUMP JUMPDEST POP PUSH1 0x0 SWAP4 SWAP3 POP POP POP JUMP JUMPDEST PUSH1 0x0 PUSH1 0x60 DUP2 PUSH2 0x2DD5 PUSH1 0x80 DUP7 ADD DUP7 DUP5 ADD PUSH2 0x3D2A JUMP JUMPDEST SWAP1 POP PUSH1 0x1 PUSH1 0x1 PUSH1 0xA0 SHL SUB DUP2 AND PUSH2 0x2DEE PUSH1 0x20 DUP8 ADD DUP8 PUSH2 0x3D2A JUMP JUMPDEST PUSH1 0x1 PUSH1 0x1 PUSH1 0xA0 SHL SUB AND SUB PUSH2 0x2E15 JUMPI POP POP PUSH1 0x40 DUP1 MLOAD PUSH1 0x20 DUP2 ADD SWAP1 SWAP2 MSTORE PUSH1 0x0 DUP2 MSTORE DUP3 SWAP2 POP PUSH2 0x2689 JUMP JUMPDEST DUP1 PUSH1 0x1 PUSH1 0x1 PUSH1 0xA0 SHL SUB AND PUSH4 0x6F307DC3 PUSH1 0x40 MLOAD DUP2 PUSH4 0xFFFFFFFF AND PUSH1 0xE0 SHL DUP2 MSTORE PUSH1 0x4 ADD PUSH1 0x20 PUSH1 0x40 MLOAD DUP1 DUP4 SUB DUP2 DUP7 GAS STATICCALL ISZERO DUP1 ISZERO PUSH2 0x2E53 JUMPI RETURNDATASIZE PUSH1 0x0 DUP1 RETURNDATACOPY RETURNDATASIZE PUSH1 0x0 REVERT JUMPDEST POP POP POP POP PUSH1 0x40 MLOAD RETURNDATASIZE PUSH1 0x1F NOT PUSH1 0x1F DUP3 ADD AND DUP3 ADD DUP1 PUSH1 0x40 MSTORE POP DUP2 ADD SWAP1 PUSH2 0x2E77 SWAP2 SWAP1 PUSH2 0x4765 JUMP JUMPDEST PUSH1 0x1 PUSH1 0x1 PUSH1 0xA0 SHL SUB AND PUSH2 0x2E8D PUSH1 0x20 DUP8 ADD DUP8 PUSH2 0x3D2A JUMP JUMPDEST PUSH1 0x1 PUSH1 0x1 PUSH1 0xA0 SHL SUB AND EQ PUSH2 0x2EBF JUMPI POP POP PUSH1 0x40 DUP1 MLOAD DUP1 DUP3 ADD SWAP1 SWAP2 MSTORE PUSH1 0x2 DUP2 MSTORE PUSH2 0x3335 PUSH1 0xF0 SHL PUSH1 0x20 DUP3 ADD MSTORE PUSH1 0x0 SWAP2 POP PUSH2 0x2689 JUMP JUMPDEST PUSH1 0x40 MLOAD PUSH4 0x70A08231 PUSH1 0xE0 SHL DUP2 MSTORE PUSH1 0x1 PUSH1 0x1 PUSH1 0xA0 SHL SUB PUSH32 0x0 DUP2 AND PUSH1 0x4 DUP4 ADD MSTORE PUSH1 0x0 SWAP2 SWAP1 DUP4 AND SWAP1 PUSH4 0x70A08231 SWAP1 PUSH1 0x24 ADD PUSH1 0x20 PUSH1 0x40 MLOAD DUP1 DUP4 SUB DUP2 DUP7 GAS STATICCALL ISZERO DUP1 ISZERO PUSH2 0x2F29 JUMPI RETURNDATASIZE PUSH1 0x0 DUP1 RETURNDATACOPY RETURNDATASIZE PUSH1 0x0 REVERT JUMPDEST POP POP POP POP PUSH1 0x40 MLOAD RETURNDATASIZE PUSH1 0x1F NOT PUSH1 0x1F DUP3 ADD AND DUP3 ADD DUP1 PUSH1 0x40 MSTORE POP DUP2 ADD SWAP1 PUSH2 0x2F4D SWAP2 SWAP1 PUSH2 0x4578 JUMP JUMPDEST SWAP1 POP DUP5 DUP2 LT ISZERO PUSH2 0x2F7F JUMPI PUSH1 0x0 PUSH1 0x40 MLOAD DUP1 PUSH1 0x40 ADD PUSH1 0x40 MSTORE DUP1 PUSH1 0x2 DUP2 MSTORE PUSH1 0x20 ADD PUSH2 0xCCD PUSH1 0xF2 SHL DUP2 MSTORE POP SWAP4 POP SWAP4 POP POP POP PUSH2 0x2689 JUMP JUMPDEST PUSH1 0x40 MLOAD PUSH4 0xCC04FEFF PUSH1 0xE0 SHL DUP2 MSTORE PUSH1 0x4 DUP2 ADD DUP7 SWAP1 MSTORE PUSH1 0x0 PUSH1 0x24 DUP3 ADD MSTORE PUSH1 0x1 PUSH1 0x1 PUSH1 0xA0 SHL SUB DUP4 AND SWAP1 PUSH4 0xCC04FEFF SWAP1 PUSH1 0x44 ADD PUSH1 0x0 PUSH1 0x40 MLOAD DUP1 DUP4 SUB DUP2 DUP7 GAS STATICCALL ISZERO DUP1 ISZERO PUSH2 0x2FCB JUMPI RETURNDATASIZE PUSH1 0x0 DUP1 RETURNDATACOPY RETURNDATASIZE PUSH1 0x0 REVERT JUMPDEST POP POP POP POP PUSH1 0x40 MLOAD RETURNDATASIZE PUSH1 0x0 DUP3 RETURNDATACOPY PUSH1 0x1F RETURNDATASIZE SWAP1 DUP2 ADD PUSH1 0x1F NOT AND DUP3 ADD PUSH1 0x40 MSTORE PUSH2 0x2FF3 SWAP2 SWAP1 DUP2 ADD SWAP1 PUSH2 0x4A08 JUMP JUMPDEST SWAP4 POP SWAP4 POP POP POP SWAP3 POP SWAP3 SWAP1 POP JUMP JUMPDEST PUSH1 0x60 DUP3 ADD MLOAD PUSH1 0x40 MLOAD PUSH4 0x13C50353 PUSH1 0xE3 SHL DUP2 MSTORE PUSH1 0x1 PUSH1 0x1 PUSH1 0xA0 SHL SUB DUP1 DUP4 AND PUSH1 0x4 DUP4 ADD MSTORE PUSH1 0x24 DUP3 ADD DUP5 SWAP1 MSTORE PUSH1 0x0 SWAP3 SWAP2 PUSH32 0x0 SWAP1 SWAP2 AND SWAP1 PUSH4 0x9E281A98 SWAP1 PUSH1 0x44 ADD PUSH1 0x0 PUSH1 0x40 MLOAD DUP1 DUP4 SUB DUP2 PUSH1 0x0 DUP8 DUP1 EXTCODESIZE ISZERO DUP1 ISZERO PUSH2 0x3075 JUMPI PUSH1 0x0 DUP1 REVERT JUMPDEST POP GAS CALL ISZERO DUP1 ISZERO PUSH2 0x3089 JUMPI RETURNDATASIZE PUSH1 0x0 DUP1 RETURNDATACOPY RETURNDATASIZE PUSH1 0x0 REVERT JUMPDEST POP POP POP POP DUP1 PUSH1 0x1 PUSH1 0x1 PUSH1 0xA0 SHL SUB AND DUP5 PUSH1 0x0 ADD MLOAD PUSH1 0x1 PUSH1 0x1 PUSH1 0xA0 SHL SUB AND SUB PUSH2 0x30B3 JUMPI DUP3 SWAP2 POP POP PUSH2 0x1A86 JUMP JUMPDEST DUP1 PUSH1 0x1 PUSH1 0x1 PUSH1 0xA0 SHL SUB AND PUSH4 0x6F307DC3 PUSH1 0x40 MLOAD DUP2 PUSH4 0xFFFFFFFF AND PUSH1 0xE0 SHL DUP2 MSTORE PUSH1 0x4 ADD PUSH1 0x20 PUSH1 0x40 MLOAD DUP1 DUP4 SUB DUP2 DUP7 GAS STATICCALL ISZERO DUP1 ISZERO PUSH2 0x30F1 JUMPI RETURNDATASIZE PUSH1 0x0 DUP1 RETURNDATACOPY RETURNDATASIZE PUSH1 0x0 REVERT JUMPDEST POP POP POP POP PUSH1 0x40 MLOAD RETURNDATASIZE PUSH1 0x1F NOT PUSH1 0x1F DUP3 ADD AND DUP3 ADD DUP1 PUSH1 0x40 MSTORE POP DUP2 ADD SWAP1 PUSH2 0x3115 SWAP2 SWAP1 PUSH2 0x4765 JUMP JUMPDEST PUSH1 0x1 PUSH1 0x1 PUSH1 0xA0 SHL SUB AND DUP5 PUSH1 0x0 ADD MLOAD PUSH1 0x1 PUSH1 0x1 PUSH1 0xA0 SHL SUB AND EQ PUSH1 0x40 MLOAD DUP1 PUSH1 0x40 ADD PUSH1 0x40 MSTORE DUP1 PUSH1 0x2 DUP2 MSTORE PUSH1 0x20 ADD PUSH2 0x3335 PUSH1 0xF0 SHL DUP2 MSTORE POP SWAP1 PUSH2 0x3166 JUMPI PUSH1 0x40 MLOAD PUSH3 0x461BCD PUSH1 0xE5 SHL DUP2 MSTORE PUSH1 0x4 ADD PUSH2 0x36D SWAP2 SWAP1 PUSH2 0x3D47 JUMP JUMPDEST POP PUSH1 0x40 MLOAD PUSH4 0x441A3E7 PUSH1 0xE4 SHL DUP2 MSTORE PUSH1 0x4 DUP2 ADD DUP5 SWAP1 MSTORE PUSH1 0x0 PUSH1 0x24 DUP3 ADD MSTORE PUSH1 0x1 PUSH1 0x1 PUSH1 0xA0 SHL SUB DUP3 AND SWAP1 PUSH4 0x441A3E70 SWAP1 PUSH1 0x44 ADD PUSH1 0x20 PUSH1 0x40 MLOAD DUP1 DUP4 SUB DUP2 PUSH1 0x0 DUP8 GAS CALL ISZERO DUP1 ISZERO PUSH2 0x31B5 JUMPI RETURNDATASIZE PUSH1 0x0 DUP1 RETURNDATACOPY RETURNDATASIZE PUSH1 0x0 REVERT JUMPDEST POP POP POP POP PUSH1 0x40 MLOAD RETURNDATASIZE PUSH1 0x1F NOT PUSH1 0x1F DUP3 ADD AND DUP3 ADD DUP1 PUSH1 0x40 MSTORE POP DUP2 ADD SWAP1 PUSH2 0x31D9 SWAP2 SWAP1 PUSH2 0x4578 JUMP JUMPDEST SWAP2 POP POP PUSH2 0x1A86 JUMP JUMPDEST PUSH1 0x0 PUSH1 0x60 PUSH2 0x31F4 DUP4 DUP3 ADD PUSH1 0x40 DUP6 ADD PUSH2 0x3D2A JUMP JUMPDEST PUSH1 0x1 PUSH1 0x1 PUSH1 0xA0 SHL SUB AND PUSH2 0x320A PUSH1 0x20 DUP6 ADD DUP6 PUSH2 0x3D2A JUMP JUMPDEST PUSH1 0x1 PUSH1 0x1 PUSH1 0xA0 SHL SUB AND SUB PUSH2 0x3230 JUMPI POP POP PUSH1 0x40 DUP1 MLOAD PUSH1 0x20 DUP2 DUP2 ADD SWAP1 SWAP3 MSTORE PUSH1 0x0 DUP2 MSTORE SWAP2 ADD CALLDATALOAD SWAP2 JUMP JUMPDEST PUSH1 0x0 PUSH2 0x3242 PUSH1 0x60 DUP6 ADD PUSH1 0x40 DUP7 ADD PUSH2 0x3D2A JUMP JUMPDEST SWAP1 POP DUP1 PUSH1 0x1 PUSH1 0x1 PUSH1 0xA0 SHL SUB AND PUSH4 0x6F307DC3 PUSH1 0x40 MLOAD DUP2 PUSH4 0xFFFFFFFF AND PUSH1 0xE0 SHL DUP2 MSTORE PUSH1 0x4 ADD PUSH1 0x20 PUSH1 0x40 MLOAD DUP1 DUP4 SUB DUP2 DUP7 GAS STATICCALL ISZERO DUP1 ISZERO PUSH2 0x3282 JUMPI RETURNDATASIZE PUSH1 0x0 DUP1 RETURNDATACOPY RETURNDATASIZE PUSH1 0x0 REVERT JUMPDEST POP POP POP POP PUSH1 0x40 MLOAD RETURNDATASIZE PUSH1 0x1F NOT PUSH1 0x1F DUP3 ADD AND DUP3 ADD DUP1 PUSH1 0x40 MSTORE POP DUP2 ADD SWAP1 PUSH2 0x32A6 SWAP2 SWAP1 PUSH2 0x4765 JUMP JUMPDEST PUSH1 0x1 PUSH1 0x1 PUSH1 0xA0 SHL SUB AND PUSH2 0x32BC PUSH1 0x20 DUP7 ADD DUP7 PUSH2 0x3D2A JUMP JUMPDEST PUSH1 0x1 PUSH1 0x1 PUSH1 0xA0 SHL SUB AND SUB PUSH2 0x334B JUMPI PUSH1 0x40 MLOAD PUSH4 0x2A8695B1 PUSH1 0xE1 SHL DUP2 MSTORE PUSH1 0x20 DUP6 ADD CALLDATALOAD PUSH1 0x4 DUP3 ADD MSTORE PUSH1 0x0 PUSH1 0x24 DUP3 ADD MSTORE PUSH1 0x1 PUSH1 0x1 PUSH1 0xA0 SHL SUB DUP3 AND SWAP1 PUSH4 0x550D2B62 SWAP1 PUSH1 0x44 ADD PUSH1 0x0 PUSH1 0x40 MLOAD DUP1 DUP4 SUB DUP2 DUP7 GAS STATICCALL ISZERO DUP1 ISZERO PUSH2 0x3319 JUMPI RETURNDATASIZE PUSH1 0x0 DUP1 RETURNDATACOPY RETURNDATASIZE PUSH1 0x0 REVERT JUMPDEST POP POP POP POP PUSH1 0x40 MLOAD RETURNDATASIZE PUSH1 0x0 DUP3 RETURNDATACOPY PUSH1 0x1F RETURNDATASIZE SWAP1 DUP2 ADD PUSH1 0x1F NOT AND DUP3 ADD PUSH1 0x40 MSTORE PUSH2 0x3341 SWAP2 SWAP1 DUP2 ADD SWAP1 PUSH2 0x4A08 JUMP JUMPDEST SWAP3 POP SWAP3 POP POP SWAP2 POP SWAP2 JUMP JUMPDEST PUSH1 0x0 PUSH1 0x40 MLOAD DUP1 PUSH1 0x40 ADD PUSH1 0x40 MSTORE DUP1 PUSH1 0x2 DUP2 MSTORE PUSH1 0x20 ADD PUSH2 0x3335 PUSH1 0xF0 SHL DUP2 MSTORE POP SWAP3 POP SWAP3 POP POP SWAP2 POP SWAP2 JUMP JUMPDEST PUSH1 0x40 MLOAD PUSH1 0x1 PUSH1 0x1 PUSH1 0xA0 SHL SUB DUP1 DUP6 AND PUSH1 0x24 DUP4 ADD MSTORE DUP4 AND PUSH1 0x44 DUP3 ADD MSTORE PUSH1 0x64 DUP2 ADD DUP3 SWAP1 MSTORE PUSH2 0x33AA SWAP1 DUP6 SWAP1 PUSH4 0x23B872DD PUSH1 0xE0 SHL SWAP1 PUSH1 0x84 ADD PUSH2 0x1FB6 JUMP JUMPDEST POP POP POP POP JUMP JUMPDEST PUSH1 0x40 MLOAD PUSH4 0x6EB1769F PUSH1 0xE1 SHL DUP2 MSTORE ADDRESS PUSH1 0x4 DUP3 ADD MSTORE PUSH1 0x1 PUSH1 0x1 PUSH1 0xA0 SHL SUB DUP4 DUP2 AND PUSH1 0x24 DUP4 ADD MSTORE PUSH1 0x0 SWAP2 DUP4 SWAP2 DUP7 AND SWAP1 PUSH4 0xDD62ED3E SWAP1 PUSH1 0x44 ADD PUSH1 0x20 PUSH1 0x40 MLOAD DUP1 DUP4 SUB DUP2 DUP7 GAS STATICCALL ISZERO DUP1 ISZERO PUSH2 0x3401 JUMPI RETURNDATASIZE PUSH1 0x0 DUP1 RETURNDATACOPY RETURNDATASIZE PUSH1 0x0 REVERT JUMPDEST POP POP POP POP PUSH1 0x40 MLOAD RETURNDATASIZE PUSH1 0x1F NOT PUSH1 0x1F DUP3 ADD AND DUP3 ADD DUP1 PUSH1 0x40 MSTORE POP DUP2 ADD SWAP1 PUSH2 0x3425 SWAP2 SWAP1 PUSH2 0x4578 JUMP JUMPDEST PUSH2 0x342F SWAP2 SWAP1 PUSH2 0x473F JUMP JUMPDEST PUSH1 0x40 MLOAD PUSH1 0x1 PUSH1 0x1 PUSH1 0xA0 SHL SUB DUP6 AND PUSH1 0x24 DUP3 ADD MSTORE PUSH1 0x44 DUP2 ADD DUP3 SWAP1 MSTORE SWAP1 SWAP2 POP PUSH2 0x33AA SWAP1 DUP6 SWAP1 PUSH4 0x95EA7B3 PUSH1 0xE0 SHL SWAP1 PUSH1 0x64 ADD PUSH2 0x1FB6 JUMP JUMPDEST PUSH1 0x60 PUSH2 0x2306 DUP5 DUP5 PUSH1 0x0 DUP6 PUSH2 0x3726 JUMP JUMPDEST PUSH1 0x60 PUSH1 0x0 DUP4 MLOAD PUSH1 0x1 PUSH1 0x1 PUSH1 0x40 SHL SUB DUP2 GT ISZERO PUSH2 0x348E JUMPI PUSH2 0x348E PUSH2 0x3D5A JUMP JUMPDEST PUSH1 0x40 MLOAD SWAP1 DUP1 DUP3 MSTORE DUP1 PUSH1 0x20 MUL PUSH1 0x20 ADD DUP3 ADD PUSH1 0x40 MSTORE DUP1 ISZERO PUSH2 0x34F6 JUMPI DUP2 PUSH1 0x20 ADD JUMPDEST PUSH2 0x34E3 PUSH1 0x40 DUP1 MLOAD PUSH1 0x80 DUP2 ADD DUP3 MSTORE PUSH1 0x0 DUP1 DUP3 MSTORE PUSH1 0x20 DUP1 DUP4 ADD DUP3 SWAP1 MSTORE DUP3 DUP5 ADD DUP3 SWAP1 MSTORE DUP4 MLOAD DUP1 DUP6 ADD SWAP1 SWAP5 MSTORE DUP2 DUP5 MSTORE DUP4 ADD MSTORE SWAP1 PUSH1 0x60 DUP3 ADD MSTORE SWAP1 JUMP JUMPDEST DUP2 MSTORE PUSH1 0x20 ADD SWAP1 PUSH1 0x1 SWAP1 SUB SWAP1 DUP2 PUSH2 0x34AC JUMPI SWAP1 POP JUMPDEST POP SWAP1 POP PUSH1 0x0 JUMPDEST DUP5 MLOAD DUP2 LT ISZERO PUSH2 0x1D50 JUMPI DUP5 DUP2 DUP2 MLOAD DUP2 LT PUSH2 0x3517 JUMPI PUSH2 0x3517 PUSH2 0x4407 JUMP JUMPDEST PUSH1 0x20 MUL PUSH1 0x20 ADD ADD MLOAD PUSH1 0x0 ADD MLOAD DUP3 DUP3 DUP2 MLOAD DUP2 LT PUSH2 0x3535 JUMPI PUSH2 0x3535 PUSH2 0x4407 JUMP JUMPDEST PUSH1 0x20 SWAP1 DUP2 MUL SWAP2 SWAP1 SWAP2 ADD ADD MLOAD PUSH1 0x1 PUSH1 0x1 PUSH1 0xA0 SHL SUB SWAP1 SWAP2 AND SWAP1 MSTORE DUP5 MLOAD DUP6 SWAP1 DUP3 SWAP1 DUP2 LT PUSH2 0x3561 JUMPI PUSH2 0x3561 PUSH2 0x4407 JUMP JUMPDEST PUSH1 0x20 MUL PUSH1 0x20 ADD ADD MLOAD PUSH1 0x20 ADD MLOAD DUP3 DUP3 DUP2 MLOAD DUP2 LT PUSH2 0x357F JUMPI PUSH2 0x357F PUSH2 0x4407 JUMP JUMPDEST PUSH1 0x20 MUL PUSH1 0x20 ADD ADD MLOAD PUSH1 0x20 ADD SWAP1 ISZERO ISZERO SWAP1 DUP2 ISZERO ISZERO DUP2 MSTORE POP POP DUP5 DUP2 DUP2 MLOAD DUP2 LT PUSH2 0x35A7 JUMPI PUSH2 0x35A7 PUSH2 0x4407 JUMP JUMPDEST PUSH1 0x20 MUL PUSH1 0x20 ADD ADD MLOAD PUSH1 0x20 ADD MLOAD DUP1 ISZERO PUSH2 0x35E9 JUMPI POP PUSH8 0xDE0B6B3A7640000 DUP6 DUP3 DUP2 MLOAD DUP2 LT PUSH2 0x35D5 JUMPI PUSH2 0x35D5 PUSH2 0x4407 JUMP JUMPDEST PUSH1 0x20 MUL PUSH1 0x20 ADD ADD MLOAD PUSH1 0x40 ADD MLOAD LT ISZERO ISZERO DUP5 ISZERO ISZERO EQ JUMPDEST ISZERO PUSH2 0x361E JUMPI PUSH8 0xDE0B6B3A7640000 DUP3 DUP3 DUP2 MLOAD DUP2 LT PUSH2 0x3609 JUMPI PUSH2 0x3609 PUSH2 0x4407 JUMP JUMPDEST PUSH1 0x20 MUL PUSH1 0x20 ADD ADD MLOAD PUSH1 0x40 ADD DUP2 DUP2 MSTORE POP POP PUSH2 0x365F JUMP JUMPDEST DUP5 DUP2 DUP2 MLOAD DUP2 LT PUSH2 0x3630 JUMPI PUSH2 0x3630 PUSH2 0x4407 JUMP JUMPDEST PUSH1 0x20 MUL PUSH1 0x20 ADD ADD MLOAD PUSH1 0x40 ADD MLOAD DUP3 DUP3 DUP2 MLOAD DUP2 LT PUSH2 0x364E JUMPI PUSH2 0x364E PUSH2 0x4407 JUMP JUMPDEST PUSH1 0x20 MUL PUSH1 0x20 ADD ADD MLOAD PUSH1 0x40 ADD DUP2 DUP2 MSTORE POP POP JUMPDEST DUP1 PUSH2 0x3669 DUP2 PUSH2 0x4433 JUMP JUMPDEST SWAP2 POP POP PUSH2 0x34FC JUMP JUMPDEST PUSH1 0x0 DUP1 PUSH2 0x2A73 DUP5 PUSH2 0x100 ADD MLOAD PUSH1 0x1 PUSH2 0x3471 JUMP JUMPDEST PUSH1 0x40 DUP1 MLOAD DUP1 DUP3 ADD SWAP1 SWAP2 MSTORE PUSH1 0x2 DUP2 MSTORE PUSH2 0x3235 PUSH1 0xF0 SHL PUSH1 0x20 DUP3 ADD MSTORE PUSH1 0x0 SWAP1 DUP3 PUSH2 0x36BE JUMPI PUSH1 0x40 MLOAD PUSH3 0x461BCD PUSH1 0xE5 SHL DUP2 MSTORE PUSH1 0x4 ADD PUSH2 0x36D SWAP2 SWAP1 PUSH2 0x3D47 JUMP JUMPDEST POP DUP3 PUSH1 0x0 SUB PUSH2 0x36CF JUMPI POP PUSH1 0x0 PUSH2 0x1A86 JUMP JUMPDEST PUSH1 0x0 PUSH2 0x36E3 PUSH8 0xDE0B6B3A7640000 DUP6 PUSH2 0x4833 JUMP JUMPDEST SWAP1 POP PUSH2 0x31D9 DUP4 DUP3 PUSH2 0x484A JUMP JUMPDEST PUSH1 0x0 PUSH1 0x11 NOT PUSH1 0xFF DUP4 AND ADD PUSH2 0x3704 JUMPI POP DUP2 PUSH2 0x1A86 JUMP JUMPDEST PUSH1 0x12 PUSH1 0xFF DUP4 AND GT ISZERO PUSH2 0x371B JUMPI PUSH2 0x2B14 PUSH1 0x12 DUP4 PUSH2 0x4904 JUMP JUMPDEST PUSH2 0x2AED DUP3 PUSH1 0x12 PUSH2 0x4904 JUMP JUMPDEST PUSH1 0x60 DUP3 SELFBALANCE LT ISZERO PUSH2 0x3787 JUMPI PUSH1 0x40 MLOAD PUSH3 0x461BCD PUSH1 0xE5 SHL DUP2 MSTORE PUSH1 0x20 PUSH1 0x4 DUP3 ADD MSTORE PUSH1 0x26 PUSH1 0x24 DUP3 ADD MSTORE PUSH32 0x416464726573733A20696E73756666696369656E742062616C616E636520666F PUSH1 0x44 DUP3 ADD MSTORE PUSH6 0x1C8818D85B1B PUSH1 0xD2 SHL PUSH1 0x64 DUP3 ADD MSTORE PUSH1 0x84 ADD PUSH2 0x36D JUMP JUMPDEST PUSH1 0x0 DUP1 DUP7 PUSH1 0x1 PUSH1 0x1 PUSH1 0xA0 SHL SUB AND DUP6 DUP8 PUSH1 0x40 MLOAD PUSH2 0x37A3 SWAP2 SWAP1 PUSH2 0x4A4E JUMP JUMPDEST PUSH1 0x0 PUSH1 0x40 MLOAD DUP1 DUP4 SUB DUP2 DUP6 DUP8 GAS CALL SWAP3 POP POP POP RETURNDATASIZE DUP1 PUSH1 0x0 DUP2 EQ PUSH2 0x37E0 JUMPI PUSH1 0x40 MLOAD SWAP2 POP PUSH1 0x1F NOT PUSH1 0x3F RETURNDATASIZE ADD AND DUP3 ADD PUSH1 0x40 MSTORE RETURNDATASIZE DUP3 MSTORE RETURNDATASIZE PUSH1 0x0 PUSH1 0x20 DUP5 ADD RETURNDATACOPY PUSH2 0x37E5 JUMP JUMPDEST PUSH1 0x60 SWAP2 POP JUMPDEST POP SWAP2 POP SWAP2 POP PUSH2 0x37F6 DUP8 DUP4 DUP4 DUP8 PUSH2 0x3801 JUMP JUMPDEST SWAP8 SWAP7 POP POP POP POP POP POP POP JUMP JUMPDEST PUSH1 0x60 DUP4 ISZERO PUSH2 0x3870 JUMPI DUP3 MLOAD PUSH1 0x0 SUB PUSH2 0x3869 JUMPI PUSH1 0x1 PUSH1 0x1 PUSH1 0xA0 SHL SUB DUP6 AND EXTCODESIZE PUSH2 0x3869 JUMPI PUSH1 0x40 MLOAD PUSH3 0x461BCD PUSH1 0xE5 SHL DUP2 MSTORE PUSH1 0x20 PUSH1 0x4 DUP3 ADD MSTORE PUSH1 0x1D PUSH1 0x24 DUP3 ADD MSTORE PUSH32 0x416464726573733A2063616C6C20746F206E6F6E2D636F6E7472616374000000 PUSH1 0x44 DUP3 ADD MSTORE PUSH1 0x64 ADD PUSH2 0x36D JUMP JUMPDEST POP DUP2 PUSH2 0x2306 JUMP JUMPDEST PUSH2 0x2306 DUP4 DUP4 DUP2 MLOAD ISZERO PUSH2 0x3885 JUMPI DUP2 MLOAD DUP1 DUP4 PUSH1 0x20 ADD REVERT JUMPDEST DUP1 PUSH1 0x40 MLOAD PUSH3 0x461BCD PUSH1 0xE5 SHL DUP2 MSTORE PUSH1 0x4 ADD PUSH2 0x36D SWAP2 SWAP1 PUSH2 0x3D47 JUMP JUMPDEST PUSH1 0x40 MLOAD DUP1 PUSH1 0x40 ADD PUSH1 0x40 MSTORE DUP1 PUSH2 0x38B2 PUSH2 0x38BF JUMP JUMPDEST DUP2 MSTORE PUSH1 0x20 ADD PUSH1 0x0 DUP2 MSTORE POP SWAP1 JUMP JUMPDEST PUSH1 0x40 MLOAD DUP1 PUSH2 0x120 ADD PUSH1 0x40 MSTORE DUP1 PUSH1 0x0 PUSH1 0x1 PUSH1 0x1 PUSH1 0xA0 SHL SUB AND DUP2 MSTORE PUSH1 0x20 ADD PUSH1 0x0 PUSH1 0xFF AND DUP2 MSTORE PUSH1 0x20 ADD PUSH1 0x0 PUSH1 0x1 PUSH1 0x1 PUSH1 0xA0 SHL SUB AND DUP2 MSTORE PUSH1 0x20 ADD PUSH1 0x0 DUP2 MSTORE PUSH1 0x20 ADD PUSH2 0x3957 PUSH1 0x40 MLOAD DUP1 PUSH1 0xE0 ADD PUSH1 0x40 MSTORE DUP1 PUSH1 0x0 DUP2 MSTORE PUSH1 0x20 ADD PUSH1 0x0 DUP2 MSTORE PUSH1 0x20 ADD PUSH1 0x0 DUP2 MSTORE PUSH1 0x20 ADD PUSH1 0x0 DUP2 MSTORE PUSH1 0x20 ADD PUSH1 0x0 PUSH1 0x1 PUSH1 0x1 PUSH1 0x40 SHL SUB AND DUP2 MSTORE PUSH1 0x20 ADD PUSH1 0x0 PUSH1 0x1 PUSH1 0x1 PUSH1 0x40 SHL SUB AND DUP2 MSTORE PUSH1 0x20 ADD PUSH1 0x0 PUSH1 0x1 PUSH1 0x1 PUSH1 0x40 SHL SUB AND DUP2 MSTORE POP SWAP1 JUMP JUMPDEST DUP2 MSTORE PUSH1 0x20 ADD PUSH1 0x0 DUP2 MSTORE PUSH1 0x20 ADD PUSH1 0x0 DUP2 MSTORE PUSH1 0x20 ADD PUSH1 0x0 DUP2 MSTORE PUSH1 0x20 ADD PUSH1 0x60 DUP2 MSTORE POP SWAP1 JUMP JUMPDEST PUSH1 0x0 DUP1 DUP4 PUSH1 0x1F DUP5 ADD SLT PUSH2 0x398B JUMPI PUSH1 0x0 DUP1 REVERT JUMPDEST POP DUP2 CALLDATALOAD PUSH1 0x1 PUSH1 0x1 PUSH1 0x40 SHL SUB DUP2 GT ISZERO PUSH2 0x39A2 JUMPI PUSH1 0x0 DUP1 REVERT JUMPDEST PUSH1 0x20 DUP4 ADD SWAP2 POP DUP4 PUSH1 0x20 PUSH1 0x60 DUP4 MUL DUP6 ADD ADD GT ISZERO PUSH2 0x2689 JUMPI PUSH1 0x0 DUP1 REVERT JUMPDEST PUSH1 0x0 DUP1 PUSH1 0x0 PUSH1 0x40 DUP5 DUP7 SUB SLT ISZERO PUSH2 0x39D2 JUMPI PUSH1 0x0 DUP1 REVERT JUMPDEST DUP4 CALLDATALOAD PUSH1 0x1 PUSH1 0x1 PUSH1 0x40 SHL SUB DUP2 GT ISZERO PUSH2 0x39E8 JUMPI PUSH1 0x0 DUP1 REVERT JUMPDEST PUSH2 0x39F4 DUP7 DUP3 DUP8 ADD PUSH2 0x3979 JUMP JUMPDEST SWAP1 SWAP8 SWAP1 SWAP7 POP PUSH1 0x20 SWAP6 SWAP1 SWAP6 ADD CALLDATALOAD SWAP5 SWAP4 POP POP POP POP JUMP JUMPDEST PUSH1 0x0 DUP1 DUP4 PUSH1 0x1F DUP5 ADD SLT PUSH2 0x3A1A JUMPI PUSH1 0x0 DUP1 REVERT JUMPDEST POP DUP2 CALLDATALOAD PUSH1 0x1 PUSH1 0x1 PUSH1 0x40 SHL SUB DUP2 GT ISZERO PUSH2 0x3A31 JUMPI PUSH1 0x0 DUP1 REVERT JUMPDEST PUSH1 0x20 DUP4 ADD SWAP2 POP DUP4 PUSH1 0x20 DUP3 PUSH1 0x7 SHL DUP6 ADD ADD GT ISZERO PUSH2 0x2689 JUMPI PUSH1 0x0 DUP1 REVERT JUMPDEST PUSH1 0x0 DUP1 DUP4 PUSH1 0x1F DUP5 ADD SLT PUSH2 0x3A5E JUMPI PUSH1 0x0 DUP1 REVERT JUMPDEST POP DUP2 CALLDATALOAD PUSH1 0x1 PUSH1 0x1 PUSH1 0x40 SHL SUB DUP2 GT ISZERO PUSH2 0x3A75 JUMPI PUSH1 0x0 DUP1 REVERT JUMPDEST PUSH1 0x20 DUP4 ADD SWAP2 POP DUP4 PUSH1 0x20 DUP3 PUSH1 0x5 SHL DUP6 ADD ADD GT ISZERO PUSH2 0x2689 JUMPI PUSH1 0x0 DUP1 REVERT JUMPDEST PUSH1 0x0 DUP1 PUSH1 0x0 DUP1 PUSH1 0x0 PUSH1 0x60 DUP7 DUP9 SUB SLT ISZERO PUSH2 0x3AA8 JUMPI PUSH1 0x0 DUP1 REVERT JUMPDEST DUP6 CALLDATALOAD SWAP5 POP PUSH1 0x20 DUP7 ADD CALLDATALOAD PUSH1 0x1 PUSH1 0x1 PUSH1 0x40 SHL SUB DUP1 DUP3 GT ISZERO PUSH2 0x3AC6 JUMPI PUSH1 0x0 DUP1 REVERT JUMPDEST PUSH2 0x3AD2 DUP10 DUP4 DUP11 ADD PUSH2 0x3A08 JUMP JUMPDEST SWAP1 SWAP7 POP SWAP5 POP PUSH1 0x40 DUP9 ADD CALLDATALOAD SWAP2 POP DUP1 DUP3 GT ISZERO PUSH2 0x3AEB JUMPI PUSH1 0x0 DUP1 REVERT JUMPDEST POP PUSH2 0x3AF8 DUP9 DUP3 DUP10 ADD PUSH2 0x3A4C JUMP JUMPDEST SWAP7 SWAP10 SWAP6 SWAP9 POP SWAP4 SWAP7 POP SWAP3 SWAP5 SWAP4 SWAP3 POP POP POP JUMP JUMPDEST PUSH1 0x0 DUP2 MLOAD DUP1 DUP5 MSTORE PUSH1 0x20 DUP1 DUP6 ADD SWAP5 POP DUP1 DUP5 ADD PUSH1 0x0 JUMPDEST DUP4 DUP2 LT ISZERO PUSH2 0x3B39 JUMPI DUP2 MLOAD DUP8 MSTORE SWAP6 DUP3 ADD SWAP6 SWAP1 DUP3 ADD SWAP1 PUSH1 0x1 ADD PUSH2 0x3B1D JUMP JUMPDEST POP SWAP5 SWAP6 SWAP5 POP POP POP POP POP JUMP JUMPDEST PUSH1 0x20 DUP2 MSTORE PUSH1 0x0 PUSH2 0x3B57 PUSH1 0x20 DUP4 ADD DUP5 PUSH2 0x3B09 JUMP JUMPDEST SWAP4 SWAP3 POP POP POP JUMP JUMPDEST PUSH1 0x0 DUP1 PUSH1 0x0 PUSH1 0x40 DUP5 DUP7 SUB SLT ISZERO PUSH2 0x3B73 JUMPI PUSH1 0x0 DUP1 REVERT JUMPDEST DUP4 CALLDATALOAD SWAP3 POP PUSH1 0x20 DUP5 ADD CALLDATALOAD PUSH1 0x1 PUSH1 0x1 PUSH1 0x40 SHL SUB DUP2 GT ISZERO PUSH2 0x3B90 JUMPI PUSH1 0x0 DUP1 REVERT JUMPDEST PUSH2 0x3B9C DUP7 DUP3 DUP8 ADD PUSH2 0x3A08 JUMP JUMPDEST SWAP5 SWAP8 SWAP1 SWAP7 POP SWAP4 SWAP5 POP POP POP POP JUMP JUMPDEST PUSH1 0x0 JUMPDEST DUP4 DUP2 LT ISZERO PUSH2 0x3BC4 JUMPI DUP2 DUP2 ADD MLOAD DUP4 DUP3 ADD MSTORE PUSH1 0x20 ADD PUSH2 0x3BAC JUMP JUMPDEST POP POP PUSH1 0x0 SWAP2 ADD MSTORE JUMP JUMPDEST PUSH1 0x0 DUP2 MLOAD DUP1 DUP5 MSTORE PUSH2 0x3BE5 DUP2 PUSH1 0x20 DUP7 ADD PUSH1 0x20 DUP7 ADD PUSH2 0x3BA9 JUMP JUMPDEST PUSH1 0x1F ADD PUSH1 0x1F NOT AND SWAP3 SWAP1 SWAP3 ADD PUSH1 0x20 ADD SWAP3 SWAP2 POP POP JUMP JUMPDEST PUSH1 0x40 DUP2 MSTORE PUSH1 0x0 PUSH2 0x3C0C PUSH1 0x40 DUP4 ADD DUP6 PUSH2 0x3B09 JUMP JUMPDEST DUP3 DUP2 SUB PUSH1 0x20 DUP5 ADD MSTORE PUSH2 0x3C1E DUP2 DUP6 PUSH2 0x3BCD JUMP JUMPDEST SWAP6 SWAP5 POP POP POP POP POP JUMP JUMPDEST PUSH1 0x1 PUSH1 0x1 PUSH1 0xA0 SHL SUB DUP2 AND DUP2 EQ PUSH2 0x3C3C JUMPI PUSH1 0x0 DUP1 REVERT JUMPDEST POP JUMP JUMPDEST PUSH1 0x0 DUP1 PUSH1 0x0 DUP1 PUSH1 0x60 DUP6 DUP8 SUB SLT ISZERO PUSH2 0x3C55 JUMPI PUSH1 0x0 DUP1 REVERT JUMPDEST DUP5 CALLDATALOAD PUSH1 0x1 PUSH1 0x1 PUSH1 0x40 SHL SUB DUP2 GT ISZERO PUSH2 0x3C6B JUMPI PUSH1 0x0 DUP1 REVERT JUMPDEST PUSH2 0x3C77 DUP8 DUP3 DUP9 ADD PUSH2 0x3979 JUMP JUMPDEST SWAP1 SWAP6 POP SWAP4 POP POP PUSH1 0x20 DUP6 ADD CALLDATALOAD SWAP2 POP PUSH1 0x40 DUP6 ADD CALLDATALOAD PUSH2 0x3C92 DUP2 PUSH2 0x3C27 JUMP JUMPDEST SWAP4 SWAP7 SWAP3 SWAP6 POP SWAP1 SWAP4 POP POP JUMP JUMPDEST DUP3 DUP2 MSTORE PUSH1 0x40 PUSH1 0x20 DUP3 ADD MSTORE PUSH1 0x0 PUSH2 0x2306 PUSH1 0x40 DUP4 ADD DUP5 PUSH2 0x3BCD JUMP JUMPDEST PUSH1 0x0 PUSH1 0x20 DUP3 DUP5 SUB SLT ISZERO PUSH2 0x3CC8 JUMPI PUSH1 0x0 DUP1 REVERT JUMPDEST POP CALLDATALOAD SWAP2 SWAP1 POP JUMP JUMPDEST PUSH1 0x0 DUP1 PUSH1 0x0 DUP1 PUSH1 0x0 PUSH1 0x60 DUP7 DUP9 SUB SLT ISZERO PUSH2 0x3CE7 JUMPI PUSH1 0x0 DUP1 REVERT JUMPDEST DUP6 CALLDATALOAD PUSH1 0x1 PUSH1 0x1 PUSH1 0x40 SHL SUB DUP1 DUP3 GT ISZERO PUSH2 0x3CFE JUMPI PUSH1 0x0 DUP1 REVERT JUMPDEST PUSH2 0x3D0A DUP10 DUP4 DUP11 ADD PUSH2 0x3979 JUMP JUMPDEST SWAP1 SWAP8 POP SWAP6 POP PUSH1 0x20 DUP9 ADD CALLDATALOAD SWAP5 POP PUSH1 0x40 DUP9 ADD CALLDATALOAD SWAP2 POP DUP1 DUP3 GT ISZERO PUSH2 0x3AEB JUMPI PUSH1 0x0 DUP1 REVERT JUMPDEST PUSH1 0x0 PUSH1 0x20 DUP3 DUP5 SUB SLT ISZERO PUSH2 0x3D3C JUMPI PUSH1 0x0 DUP1 REVERT JUMPDEST DUP2 CALLDATALOAD PUSH2 0x3B57 DUP2 PUSH2 0x3C27 JUMP JUMPDEST PUSH1 0x20 DUP2 MSTORE PUSH1 0x0 PUSH2 0x3B57 PUSH1 0x20 DUP4 ADD DUP5 PUSH2 0x3BCD JUMP JUMPDEST PUSH4 0x4E487B71 PUSH1 0xE0 SHL PUSH1 0x0 MSTORE PUSH1 0x41 PUSH1 0x4 MSTORE PUSH1 0x24 PUSH1 0x0 REVERT JUMPDEST PUSH1 0x40 MLOAD PUSH1 0x80 DUP2 ADD PUSH1 0x1 PUSH1 0x1 PUSH1 0x40 SHL SUB DUP2 GT DUP3 DUP3 LT OR ISZERO PUSH2 0x3D92 JUMPI PUSH2 0x3D92 PUSH2 0x3D5A JUMP JUMPDEST PUSH1 0x40 MSTORE SWAP1 JUMP JUMPDEST PUSH1 0x40 DUP1 MLOAD SWAP1 DUP2 ADD PUSH1 0x1 PUSH1 0x1 PUSH1 0x40 SHL SUB DUP2 GT DUP3 DUP3 LT OR ISZERO PUSH2 0x3D92 JUMPI PUSH2 0x3D92 PUSH2 0x3D5A JUMP JUMPDEST PUSH1 0x40 MLOAD PUSH2 0x120 DUP2 ADD PUSH1 0x1 PUSH1 0x1 PUSH1 0x40 SHL SUB DUP2 GT DUP3 DUP3 LT OR ISZERO PUSH2 0x3D92 JUMPI PUSH2 0x3D92 PUSH2 0x3D5A JUMP JUMPDEST PUSH1 0x40 MLOAD PUSH1 0x1F DUP3 ADD PUSH1 0x1F NOT AND DUP2 ADD PUSH1 0x1 PUSH1 0x1 PUSH1 0x40 SHL SUB DUP2 GT DUP3 DUP3 LT OR ISZERO PUSH2 0x3E05 JUMPI PUSH2 0x3E05 PUSH2 0x3D5A JUMP JUMPDEST PUSH1 0x40 MSTORE SWAP2 SWAP1 POP JUMP JUMPDEST PUSH1 0x0 PUSH1 0x1 PUSH1 0x1 PUSH1 0x40 SHL SUB DUP3 GT ISZERO PUSH2 0x3E26 JUMPI PUSH2 0x3E26 PUSH2 0x3D5A JUMP JUMPDEST POP PUSH1 0x5 SHL PUSH1 0x20 ADD SWAP1 JUMP JUMPDEST DUP1 MLOAD PUSH2 0x3E3B DUP2 PUSH2 0x3C27 JUMP JUMPDEST SWAP2 SWAP1 POP JUMP JUMPDEST DUP1 MLOAD PUSH1 0xFF DUP2 AND DUP2 EQ PUSH2 0x3E3B JUMPI PUSH1 0x0 DUP1 REVERT JUMPDEST DUP1 MLOAD PUSH1 0x1 PUSH1 0x1 PUSH1 0x40 SHL SUB DUP2 AND DUP2 EQ PUSH2 0x3E3B JUMPI PUSH1 0x0 DUP1 REVERT JUMPDEST PUSH1 0x0 PUSH1 0xE0 DUP3 DUP5 SUB SLT ISZERO PUSH2 0x3E7A JUMPI PUSH1 0x0 DUP1 REVERT JUMPDEST PUSH1 0x40 MLOAD PUSH1 0xE0 DUP2 ADD DUP2 DUP2 LT PUSH1 0x1 PUSH1 0x1 PUSH1 0x40 SHL SUB DUP3 GT OR ISZERO PUSH2 0x3E9C JUMPI PUSH2 0x3E9C PUSH2 0x3D5A JUMP JUMPDEST DUP1 PUSH1 0x40 MSTORE POP DUP1 SWAP2 POP DUP3 MLOAD DUP2 MSTORE PUSH1 0x20 DUP4 ADD MLOAD PUSH1 0x20 DUP3 ADD MSTORE PUSH1 0x40 DUP4 ADD MLOAD PUSH1 0x40 DUP3 ADD MSTORE PUSH1 0x60 DUP4 ADD MLOAD PUSH1 0x60 DUP3 ADD MSTORE PUSH2 0x3ED2 PUSH1 0x80 DUP5 ADD PUSH2 0x3E51 JUMP JUMPDEST PUSH1 0x80 DUP3 ADD MSTORE PUSH2 0x3EE3 PUSH1 0xA0 DUP5 ADD PUSH2 0x3E51 JUMP JUMPDEST PUSH1 0xA0 DUP3 ADD MSTORE PUSH2 0x3EF4 PUSH1 0xC0 DUP5 ADD PUSH2 0x3E51 JUMP JUMPDEST PUSH1 0xC0 DUP3 ADD MSTORE POP SWAP3 SWAP2 POP POP JUMP JUMPDEST DUP1 MLOAD DUP1 ISZERO ISZERO DUP2 EQ PUSH2 0x3E3B JUMPI PUSH1 0x0 DUP1 REVERT JUMPDEST PUSH1 0x0 DUP3 PUSH1 0x1F DUP4 ADD SLT PUSH2 0x3F21 JUMPI PUSH1 0x0 DUP1 REVERT JUMPDEST DUP2 MLOAD PUSH1 0x20 PUSH2 0x3F36 PUSH2 0x3F31 DUP4 PUSH2 0x3E0D JUMP JUMPDEST PUSH2 0x3DDD JUMP JUMPDEST DUP3 DUP2 MSTORE PUSH1 0xA0 SWAP3 DUP4 MUL DUP6 ADD DUP3 ADD SWAP3 DUP3 DUP3 ADD SWAP2 SWAP1 DUP8 DUP6 GT ISZERO PUSH2 0x3F55 JUMPI PUSH1 0x0 DUP1 REVERT JUMPDEST DUP4 DUP8 ADD JUMPDEST DUP6 DUP2 LT ISZERO PUSH2 0x3FDE JUMPI DUP1 DUP10 SUB DUP3 DUP2 SLT ISZERO PUSH2 0x3F72 JUMPI PUSH1 0x0 DUP1 DUP2 REVERT JUMPDEST PUSH2 0x3F7A PUSH2 0x3D70 JUMP JUMPDEST DUP3 MLOAD PUSH2 0x3F85 DUP2 PUSH2 0x3C27 JUMP JUMPDEST DUP2 MSTORE PUSH2 0x3F92 DUP4 DUP9 ADD PUSH2 0x3F00 JUMP JUMPDEST DUP8 DUP3 ADD MSTORE PUSH1 0x40 DUP1 DUP5 ADD MLOAD DUP2 DUP4 ADD MSTORE PUSH1 0x60 DUP2 PUSH1 0x5F NOT DUP6 ADD SLT ISZERO PUSH2 0x3FB4 JUMPI PUSH1 0x0 DUP1 DUP2 REVERT JUMPDEST PUSH2 0x3FBC PUSH2 0x3D98 JUMP JUMPDEST DUP6 DUP3 ADD MLOAD DUP2 MSTORE PUSH1 0x80 DUP7 ADD MLOAD DUP11 DUP3 ADD MSTORE SWAP1 DUP4 ADD MSTORE POP DUP6 MSTORE POP SWAP3 DUP5 ADD SWAP3 DUP2 ADD PUSH2 0x3F59 JUMP JUMPDEST POP SWAP1 SWAP8 SWAP7 POP POP POP POP POP POP POP JUMP JUMPDEST PUSH1 0x0 PUSH2 0x1E0 DUP3 DUP5 SUB SLT ISZERO PUSH2 0x3FFE JUMPI PUSH1 0x0 DUP1 REVERT JUMPDEST PUSH2 0x4006 PUSH2 0x3DBA JUMP JUMPDEST SWAP1 POP PUSH2 0x4011 DUP3 PUSH2 0x3E30 JUMP JUMPDEST DUP2 MSTORE PUSH2 0x401F PUSH1 0x20 DUP4 ADD PUSH2 0x3E40 JUMP JUMPDEST PUSH1 0x20 DUP3 ADD MSTORE PUSH2 0x4030 PUSH1 0x40 DUP4 ADD PUSH2 0x3E30 JUMP JUMPDEST PUSH1 0x40 DUP3 ADD MSTORE PUSH1 0x60 DUP3 ADD MLOAD PUSH1 0x60 DUP3 ADD MSTORE PUSH2 0x404C DUP4 PUSH1 0x80 DUP5 ADD PUSH2 0x3E68 JUMP JUMPDEST PUSH1 0x80 DUP3 ADD MSTORE PUSH2 0x160 DUP3 ADD MLOAD PUSH1 0xA0 DUP3 ADD MSTORE PUSH2 0x180 DUP3 ADD MLOAD PUSH1 0xC0 DUP3 ADD MSTORE PUSH2 0x1A0 DUP3 ADD MLOAD PUSH1 0xE0 DUP3 ADD MSTORE PUSH2 0x1C0 DUP3 ADD MLOAD PUSH1 0x1 PUSH1 0x1 PUSH1 0x40 SHL SUB DUP2 GT ISZERO PUSH2 0x408C JUMPI PUSH1 0x0 DUP1 REVERT JUMPDEST PUSH2 0x4098 DUP5 DUP3 DUP6 ADD PUSH2 0x3F10 JUMP JUMPDEST PUSH2 0x100 DUP4 ADD MSTORE POP SWAP3 SWAP2 POP POP JUMP JUMPDEST PUSH1 0x0 PUSH1 0x20 DUP1 DUP4 DUP6 SUB SLT ISZERO PUSH2 0x40B8 JUMPI PUSH1 0x0 DUP1 REVERT JUMPDEST DUP3 MLOAD PUSH1 0x1 PUSH1 0x1 PUSH1 0x40 SHL SUB DUP1 DUP3 GT ISZERO PUSH2 0x40CF JUMPI PUSH1 0x0 DUP1 REVERT JUMPDEST SWAP1 DUP5 ADD SWAP1 PUSH1 0x40 DUP3 DUP8 SUB SLT ISZERO PUSH2 0x40E3 JUMPI PUSH1 0x0 DUP1 REVERT JUMPDEST PUSH2 0x40EB PUSH2 0x3D98 JUMP JUMPDEST DUP3 MLOAD DUP2 MSTORE DUP4 DUP4 ADD MLOAD DUP3 DUP2 GT ISZERO PUSH2 0x4100 JUMPI PUSH1 0x0 DUP1 REVERT JUMPDEST DUP1 DUP5 ADD SWAP4 POP POP DUP7 PUSH1 0x1F DUP5 ADD SLT PUSH2 0x4115 JUMPI PUSH1 0x0 DUP1 REVERT JUMPDEST DUP3 MLOAD PUSH2 0x4123 PUSH2 0x3F31 DUP3 PUSH2 0x3E0D JUMP JUMPDEST DUP2 DUP2 MSTORE PUSH1 0x5 SWAP2 SWAP1 SWAP2 SHL DUP5 ADD DUP6 ADD SWAP1 DUP6 DUP2 ADD SWAP1 DUP10 DUP4 GT ISZERO PUSH2 0x4142 JUMPI PUSH1 0x0 DUP1 REVERT JUMPDEST DUP7 DUP7 ADD JUMPDEST DUP4 DUP2 LT ISZERO PUSH2 0x417A JUMPI DUP1 MLOAD DUP7 DUP2 GT ISZERO PUSH2 0x415E JUMPI PUSH1 0x0 DUP1 DUP2 REVERT JUMPDEST PUSH2 0x416C DUP13 DUP11 DUP4 DUP12 ADD ADD PUSH2 0x3FEB JUMP JUMPDEST DUP5 MSTORE POP SWAP2 DUP8 ADD SWAP2 DUP8 ADD PUSH2 0x4146 JUMP JUMPDEST POP SWAP6 DUP4 ADD SWAP6 SWAP1 SWAP6 MSTORE POP SWAP7 SWAP6 POP POP POP POP POP POP JUMP JUMPDEST PUSH1 0x0 DUP2 MLOAD DUP1 DUP5 MSTORE PUSH1 0x20 DUP1 DUP6 ADD SWAP5 POP DUP1 DUP5 ADD PUSH1 0x0 JUMPDEST DUP4 DUP2 LT ISZERO PUSH2 0x3B39 JUMPI DUP2 MLOAD DUP1 MLOAD PUSH1 0x1 PUSH1 0x1 PUSH1 0xA0 SHL SUB AND DUP9 MSTORE DUP4 DUP2 ADD MLOAD ISZERO ISZERO DUP5 DUP10 ADD MSTORE PUSH1 0x40 DUP1 DUP3 ADD MLOAD SWAP1 DUP10 ADD MSTORE PUSH1 0x60 SWAP1 DUP2 ADD MLOAD DUP1 MLOAD SWAP2 DUP10 ADD SWAP2 SWAP1 SWAP2 MSTORE DUP4 ADD MLOAD PUSH1 0x80 DUP9 ADD MSTORE PUSH1 0xA0 SWAP1 SWAP7 ADD SWAP6 SWAP1 DUP3 ADD SWAP1 PUSH1 0x1 ADD PUSH2 0x41A1 JUMP JUMPDEST DUP1 MLOAD PUSH1 0x1 PUSH1 0x1 PUSH1 0xA0 SHL SUB AND DUP3 MSTORE PUSH1 0x0 PUSH2 0x1E0 PUSH1 0x20 DUP4 ADD MLOAD PUSH2 0x421B PUSH1 0x20 DUP7 ADD DUP3 PUSH1 0xFF AND SWAP1 MSTORE JUMP JUMPDEST POP PUSH1 0x40 DUP4 ADD MLOAD PUSH2 0x4236 PUSH1 0x40 DUP7 ADD DUP3 PUSH1 0x1 PUSH1 0x1 PUSH1 0xA0 SHL SUB AND SWAP1 MSTORE JUMP JUMPDEST POP PUSH1 0x60 DUP4 ADD MLOAD PUSH1 0x60 DUP6 ADD MSTORE PUSH1 0x80 DUP4 ADD MLOAD PUSH2 0x42A3 PUSH1 0x80 DUP7 ADD DUP3 DUP1 MLOAD DUP3 MSTORE PUSH1 0x20 DUP2 ADD MLOAD PUSH1 0x20 DUP4 ADD MSTORE PUSH1 0x40 DUP2 ADD MLOAD PUSH1 0x40 DUP4 ADD MSTORE PUSH1 0x60 DUP2 ADD MLOAD PUSH1 0x60 DUP4 ADD MSTORE PUSH1 0x80 DUP2 ADD MLOAD PUSH1 0x1 PUSH1 0x1 PUSH1 0x40 SHL SUB DUP1 DUP3 AND PUSH1 0x80 DUP6 ADD MSTORE DUP1 PUSH1 0xA0 DUP5 ADD MLOAD AND PUSH1 0xA0 DUP6 ADD MSTORE DUP1 PUSH1 0xC0 DUP5 ADD MLOAD AND PUSH1 0xC0 DUP6 ADD MSTORE POP POP POP POP JUMP JUMPDEST POP PUSH1 0xA0 DUP4 ADD MLOAD PUSH2 0x160 DUP6 ADD MSTORE PUSH1 0xC0 DUP4 ADD MLOAD PUSH2 0x180 DUP6 ADD MSTORE PUSH1 0xE0 DUP4 ADD MLOAD PUSH2 0x1A0 DUP6 ADD MSTORE PUSH2 0x100 DUP4 ADD MLOAD DUP2 PUSH2 0x1C0 DUP7 ADD MSTORE PUSH2 0x3C1E DUP3 DUP7 ADD DUP3 PUSH2 0x418D JUMP JUMPDEST PUSH1 0x0 PUSH1 0x20 DUP1 DUP4 MSTORE PUSH1 0x60 DUP4 ADD DUP5 MLOAD DUP3 DUP6 ADD MSTORE DUP2 DUP6 ADD MLOAD PUSH1 0x40 DUP1 DUP7 ADD MSTORE DUP2 DUP2 MLOAD DUP1 DUP5 MSTORE PUSH1 0x80 DUP8 ADD SWAP2 POP PUSH1 0x80 DUP2 PUSH1 0x5 SHL DUP9 ADD ADD SWAP4 POP DUP5 DUP4 ADD SWAP3 POP PUSH1 0x0 JUMPDEST DUP2 DUP2 LT ISZERO PUSH2 0x4346 JUMPI PUSH1 0x7F NOT DUP9 DUP7 SUB ADD DUP4 MSTORE PUSH2 0x4334 DUP6 DUP6 MLOAD PUSH2 0x41F5 JUMP JUMPDEST SWAP5 POP SWAP3 DUP6 ADD SWAP3 SWAP2 DUP6 ADD SWAP2 PUSH1 0x1 ADD PUSH2 0x4318 JUMP JUMPDEST POP SWAP3 SWAP8 SWAP7 POP POP POP POP POP POP POP JUMP JUMPDEST PUSH1 0x0 PUSH1 0x20 DUP3 DUP5 SUB SLT ISZERO PUSH2 0x4365 JUMPI PUSH1 0x0 DUP1 REVERT JUMPDEST PUSH2 0x3B57 DUP3 PUSH2 0x3F00 JUMP JUMPDEST PUSH1 0x0 PUSH1 0x40 DUP1 DUP5 ADD DUP4 MLOAD DUP3 DUP7 MSTORE DUP2 DUP2 MLOAD DUP1 DUP5 MSTORE PUSH1 0x60 DUP9 ADD SWAP2 POP PUSH1 0x60 DUP2 PUSH1 0x5 SHL DUP10 ADD ADD SWAP4 POP PUSH1 0x20 DUP1 DUP5 ADD SWAP4 POP PUSH1 0x0 JUMPDEST DUP3 DUP2 LT ISZERO PUSH2 0x43DC JUMPI DUP10 DUP7 SUB PUSH1 0x5F NOT ADD DUP5 MSTORE DUP5 MLOAD DUP1 MLOAD DUP9 DUP9 MSTORE PUSH2 0x43BF DUP10 DUP10 ADD DUP3 PUSH2 0x41F5 JUMP JUMPDEST SWAP2 DUP5 ADD MLOAD SWAP8 DUP5 ADD SWAP8 SWAP1 SWAP8 MSTORE SWAP6 POP SWAP4 DUP2 ADD SWAP4 SWAP3 DUP2 ADD SWAP3 PUSH1 0x1 ADD PUSH2 0x439B JUMP JUMPDEST POP SWAP7 DUP8 ADD MLOAD ISZERO ISZERO SWAP8 SWAP1 SWAP7 ADD SWAP7 SWAP1 SWAP7 MSTORE POP SWAP5 SWAP4 POP POP POP POP JUMP JUMPDEST PUSH1 0x20 DUP2 MSTORE PUSH1 0x0 PUSH2 0x3B57 PUSH1 0x20 DUP4 ADD DUP5 PUSH2 0x436E JUMP JUMPDEST PUSH4 0x4E487B71 PUSH1 0xE0 SHL PUSH1 0x0 MSTORE PUSH1 0x32 PUSH1 0x4 MSTORE PUSH1 0x24 PUSH1 0x0 REVERT JUMPDEST PUSH4 0x4E487B71 PUSH1 0xE0 SHL PUSH1 0x0 MSTORE PUSH1 0x11 PUSH1 0x4 MSTORE PUSH1 0x24 PUSH1 0x0 REVERT JUMPDEST PUSH1 0x0 PUSH1 0x1 DUP3 ADD PUSH2 0x4445 JUMPI PUSH2 0x4445 PUSH2 0x441D JUMP JUMPDEST POP PUSH1 0x1 ADD SWAP1 JUMP JUMPDEST PUSH1 0x0 PUSH1 0x20 DUP1 DUP4 DUP6 SUB SLT ISZERO PUSH2 0x445F JUMPI PUSH1 0x0 DUP1 REVERT JUMPDEST DUP3 MLOAD PUSH1 0x1 PUSH1 0x1 PUSH1 0x40 SHL SUB DUP1 DUP3 GT ISZERO PUSH2 0x4476 JUMPI PUSH1 0x0 DUP1 REVERT JUMPDEST SWAP1 DUP5 ADD SWAP1 PUSH1 0x40 DUP3 DUP8 SUB SLT ISZERO PUSH2 0x448A JUMPI PUSH1 0x0 DUP1 REVERT JUMPDEST PUSH2 0x4492 PUSH2 0x3D98 JUMP JUMPDEST DUP3 MLOAD DUP3 DUP2 GT ISZERO PUSH2 0x44A1 JUMPI PUSH1 0x0 DUP1 REVERT JUMPDEST DUP4 ADD PUSH1 0x1F DUP2 ADD DUP9 SGT PUSH2 0x44B2 JUMPI PUSH1 0x0 DUP1 REVERT JUMPDEST DUP1 MLOAD PUSH2 0x44C0 PUSH2 0x3F31 DUP3 PUSH2 0x3E0D JUMP JUMPDEST DUP2 DUP2 MSTORE PUSH1 0x5 SWAP2 SWAP1 SWAP2 SHL DUP3 ADD DUP7 ADD SWAP1 DUP7 DUP2 ADD SWAP1 DUP11 DUP4 GT ISZERO PUSH2 0x44DF JUMPI PUSH1 0x0 DUP1 REVERT JUMPDEST DUP8 DUP5 ADD JUMPDEST DUP4 DUP2 LT ISZERO PUSH2 0x4555 JUMPI DUP1 MLOAD DUP8 DUP2 GT ISZERO PUSH2 0x44FB JUMPI PUSH1 0x0 DUP1 DUP2 REVERT JUMPDEST DUP6 ADD PUSH1 0x40 DUP2 DUP15 SUB PUSH1 0x1F NOT ADD SLT ISZERO PUSH2 0x4512 JUMPI PUSH1 0x0 DUP1 DUP2 REVERT JUMPDEST PUSH2 0x451A PUSH2 0x3D98 JUMP JUMPDEST DUP11 DUP3 ADD MLOAD DUP10 DUP2 GT ISZERO PUSH2 0x452C JUMPI PUSH1 0x0 DUP1 DUP2 REVERT JUMPDEST PUSH2 0x453A DUP16 DUP14 DUP4 DUP7 ADD ADD PUSH2 0x3FEB JUMP JUMPDEST DUP3 MSTORE POP PUSH1 0x40 SWAP2 SWAP1 SWAP2 ADD MLOAD DUP11 DUP3 ADD MSTORE DUP4 MSTORE SWAP2 DUP9 ADD SWAP2 DUP9 ADD PUSH2 0x44E3 JUMP JUMPDEST POP DUP5 MSTORE POP PUSH2 0x4567 SWAP2 POP POP DUP4 DUP6 ADD PUSH2 0x3F00 JUMP JUMPDEST DUP5 DUP3 ADD MSTORE DUP1 SWAP5 POP POP POP POP POP SWAP3 SWAP2 POP POP JUMP JUMPDEST PUSH1 0x0 PUSH1 0x20 DUP3 DUP5 SUB SLT ISZERO PUSH2 0x458A JUMPI PUSH1 0x0 DUP1 REVERT JUMPDEST POP MLOAD SWAP2 SWAP1 POP JUMP JUMPDEST DUP5 DUP2 MSTORE DUP4 PUSH1 0x20 DUP3 ADD MSTORE PUSH1 0x80 PUSH1 0x40 DUP3 ADD MSTORE PUSH1 0x0 PUSH2 0x45B0 PUSH1 0x80 DUP4 ADD DUP6 PUSH2 0x436E JUMP JUMPDEST DUP3 DUP2 SUB PUSH1 0x60 DUP5 ADD MSTORE PUSH2 0x37F6 DUP2 DUP6 PUSH2 0x436E JUMP JUMPDEST PUSH1 0x20 DUP1 DUP3 MSTORE DUP2 DUP2 ADD DUP4 SWAP1 MSTORE PUSH1 0x0 SWAP1 PUSH1 0x40 DUP1 DUP5 ADD PUSH1 0x5 DUP7 SWAP1 SHL DUP6 ADD DUP3 ADD DUP8 DUP6 JUMPDEST DUP9 DUP2 LT ISZERO PUSH2 0x469A JUMPI DUP8 DUP4 SUB PUSH1 0x3F NOT ADD DUP5 MSTORE DUP2 CALLDATALOAD CALLDATASIZE DUP12 SWAP1 SUB PUSH1 0x3E NOT ADD DUP2 SLT PUSH2 0x4607 JUMPI PUSH1 0x0 DUP1 REVERT JUMPDEST DUP11 ADD DUP1 CALLDATALOAD PUSH2 0x4614 DUP2 PUSH2 0x3C27 JUMP JUMPDEST PUSH1 0x1 PUSH1 0x1 PUSH1 0xA0 SHL SUB AND DUP5 MSTORE DUP1 DUP8 ADD CALLDATALOAD CALLDATASIZE DUP3 SWAP1 SUB PUSH1 0x1E NOT ADD DUP2 SLT PUSH2 0x4636 JUMPI PUSH1 0x0 DUP1 REVERT JUMPDEST ADD DUP7 DUP2 ADD SWAP1 CALLDATALOAD PUSH1 0x1 PUSH1 0x1 PUSH1 0x40 SHL SUB DUP2 GT ISZERO PUSH2 0x4650 JUMPI PUSH1 0x0 DUP1 REVERT JUMPDEST DUP1 CALLDATASIZE SUB DUP3 SGT ISZERO PUSH2 0x465F JUMPI PUSH1 0x0 DUP1 REVERT JUMPDEST DUP7 DUP9 DUP7 ADD MSTORE DUP1 DUP8 DUP7 ADD MSTORE PUSH1 0x60 DUP2 DUP4 DUP3 DUP9 ADD CALLDATACOPY PUSH1 0x0 DUP7 DUP4 ADD DUP3 ADD MSTORE SWAP6 DUP9 ADD SWAP6 PUSH1 0x1F SWAP1 SWAP2 ADD PUSH1 0x1F NOT AND SWAP1 SWAP5 ADD SWAP1 SWAP4 ADD SWAP3 POP SWAP1 DUP6 ADD SWAP1 PUSH1 0x1 ADD PUSH2 0x45E1 JUMP JUMPDEST POP SWAP1 SWAP9 SWAP8 POP POP POP POP POP POP POP POP JUMP JUMPDEST PUSH1 0x0 DUP3 PUSH1 0x1F DUP4 ADD SLT PUSH2 0x46B9 JUMPI PUSH1 0x0 DUP1 REVERT JUMPDEST DUP2 MLOAD PUSH1 0x1 PUSH1 0x1 PUSH1 0x40 SHL SUB DUP2 GT ISZERO PUSH2 0x46D2 JUMPI PUSH2 0x46D2 PUSH2 0x3D5A JUMP JUMPDEST PUSH2 0x46E5 PUSH1 0x1F DUP3 ADD PUSH1 0x1F NOT AND PUSH1 0x20 ADD PUSH2 0x3DDD JUMP JUMPDEST DUP2 DUP2 MSTORE DUP5 PUSH1 0x20 DUP4 DUP7 ADD ADD GT ISZERO PUSH2 0x46FA JUMPI PUSH1 0x0 DUP1 REVERT JUMPDEST PUSH2 0x2306 DUP3 PUSH1 0x20 DUP4 ADD PUSH1 0x20 DUP8 ADD PUSH2 0x3BA9 JUMP JUMPDEST PUSH1 0x0 PUSH1 0x20 DUP3 DUP5 SUB SLT ISZERO PUSH2 0x471D JUMPI PUSH1 0x0 DUP1 REVERT JUMPDEST DUP2 MLOAD PUSH1 0x1 PUSH1 0x1 PUSH1 0x40 SHL SUB DUP2 GT ISZERO PUSH2 0x4733 JUMPI PUSH1 0x0 DUP1 REVERT JUMPDEST PUSH2 0x2306 DUP5 DUP3 DUP6 ADD PUSH2 0x46A8 JUMP JUMPDEST DUP1 DUP3 ADD DUP1 DUP3 GT ISZERO PUSH2 0x1A86 JUMPI PUSH2 0x1A86 PUSH2 0x441D JUMP JUMPDEST DUP2 DUP2 SUB DUP2 DUP2 GT ISZERO PUSH2 0x1A86 JUMPI PUSH2 0x1A86 PUSH2 0x441D JUMP JUMPDEST PUSH1 0x0 PUSH1 0x20 DUP3 DUP5 SUB SLT ISZERO PUSH2 0x4777 JUMPI PUSH1 0x0 DUP1 REVERT JUMPDEST DUP2 MLOAD PUSH2 0x3B57 DUP2 PUSH2 0x3C27 JUMP JUMPDEST PUSH4 0x4E487B71 PUSH1 0xE0 SHL PUSH1 0x0 MSTORE PUSH1 0x21 PUSH1 0x4 MSTORE PUSH1 0x24 PUSH1 0x0 REVERT JUMPDEST PUSH1 0x20 DUP1 DUP3 MSTORE DUP3 MLOAD DUP3 DUP3 ADD DUP2 SWAP1 MSTORE PUSH1 0x0 SWAP2 SWAP1 PUSH1 0x40 SWAP1 DUP2 DUP6 ADD SWAP1 DUP7 DUP5 ADD DUP6 DUP1 JUMPDEST DUP4 DUP2 LT ISZERO PUSH2 0x4825 JUMPI DUP3 MLOAD DUP1 MLOAD PUSH1 0x4 DUP1 DUP3 LT PUSH2 0x47DE JUMPI PUSH4 0x4E487B71 PUSH1 0xE0 SHL DUP6 MSTORE PUSH1 0x21 DUP2 MSTORE PUSH1 0x24 DUP6 REVERT JUMPDEST POP DUP7 MSTORE DUP1 DUP9 ADD MLOAD PUSH1 0x1 PUSH1 0x1 PUSH1 0xA0 SHL SUB SWAP1 DUP2 AND DUP10 DUP9 ADD MSTORE DUP8 DUP3 ADD MLOAD DUP9 DUP9 ADD MSTORE PUSH1 0x60 DUP1 DUP4 ADD MLOAD DUP3 AND SWAP1 DUP9 ADD MSTORE PUSH1 0x80 SWAP2 DUP3 ADD MLOAD AND SWAP1 DUP7 ADD MSTORE PUSH1 0xA0 SWAP1 SWAP5 ADD SWAP4 SWAP2 DUP7 ADD SWAP2 PUSH1 0x1 ADD PUSH2 0x47B6 JUMP JUMPDEST POP SWAP3 SWAP9 SWAP8 POP POP POP POP POP POP POP POP JUMP JUMPDEST DUP1 DUP3 MUL DUP2 ISZERO DUP3 DUP3 DIV DUP5 EQ OR PUSH2 0x1A86 JUMPI PUSH2 0x1A86 PUSH2 0x441D JUMP JUMPDEST PUSH1 0x0 DUP3 PUSH2 0x4867 JUMPI PUSH4 0x4E487B71 PUSH1 0xE0 SHL PUSH1 0x0 MSTORE PUSH1 0x12 PUSH1 0x4 MSTORE PUSH1 0x24 PUSH1 0x0 REVERT JUMPDEST POP DIV SWAP1 JUMP JUMPDEST PUSH1 0x0 PUSH1 0x80 DUP3 DUP5 SUB SLT ISZERO PUSH2 0x487E JUMPI PUSH1 0x0 DUP1 REVERT JUMPDEST PUSH1 0x40 MLOAD PUSH1 0x80 DUP2 ADD DUP2 DUP2 LT PUSH1 0x1 PUSH1 0x1 PUSH1 0x40 SHL SUB DUP3 GT OR ISZERO PUSH2 0x48A0 JUMPI PUSH2 0x48A0 PUSH2 0x3D5A JUMP JUMPDEST PUSH1 0x40 MSTORE DUP3 CALLDATALOAD PUSH2 0x48AE DUP2 PUSH2 0x3C27 JUMP JUMPDEST DUP1 DUP3 MSTORE POP PUSH1 0x20 DUP4 ADD CALLDATALOAD PUSH1 0x20 DUP3 ADD MSTORE PUSH1 0x40 DUP4 ADD CALLDATALOAD PUSH1 0x40 DUP3 ADD MSTORE PUSH1 0x60 DUP4 ADD CALLDATALOAD PUSH2 0x48D4 DUP2 PUSH2 0x3C27 JUMP JUMPDEST PUSH1 0x60 DUP3 ADD MSTORE SWAP4 SWAP3 POP POP POP JUMP JUMPDEST PUSH1 0x1 PUSH1 0x1 PUSH1 0xA0 SHL SUB DUP4 AND DUP2 MSTORE PUSH1 0x40 PUSH1 0x20 DUP3 ADD DUP2 SWAP1 MSTORE PUSH1 0x0 SWAP1 PUSH2 0x2306 SWAP1 DUP4 ADD DUP5 PUSH2 0x418D JUMP JUMPDEST PUSH1 0xFF DUP3 DUP2 AND DUP3 DUP3 AND SUB SWAP1 DUP2 GT ISZERO PUSH2 0x1A86 JUMPI PUSH2 0x1A86 PUSH2 0x441D JUMP JUMPDEST PUSH1 0x1 DUP2 DUP2 JUMPDEST DUP1 DUP6 GT ISZERO PUSH2 0x2687 JUMPI DUP2 PUSH1 0x0 NOT DIV DUP3 GT ISZERO PUSH2 0x493E JUMPI PUSH2 0x493E PUSH2 0x441D JUMP JUMPDEST DUP1 DUP6 AND ISZERO PUSH2 0x494B JUMPI SWAP2 DUP2 MUL SWAP2 JUMPDEST SWAP4 DUP5 SHR SWAP4 SWAP1 DUP1 MUL SWAP1 PUSH2 0x4922 JUMP JUMPDEST PUSH1 0x0 DUP3 PUSH2 0x4967 JUMPI POP PUSH1 0x1 PUSH2 0x1A86 JUMP JUMPDEST DUP2 PUSH2 0x4974 JUMPI POP PUSH1 0x0 PUSH2 0x1A86 JUMP JUMPDEST DUP2 PUSH1 0x1 DUP2 EQ PUSH2 0x498A JUMPI PUSH1 0x2 DUP2 EQ PUSH2 0x4994 JUMPI PUSH2 0x49B0 JUMP JUMPDEST PUSH1 0x1 SWAP2 POP POP PUSH2 0x1A86 JUMP JUMPDEST PUSH1 0xFF DUP5 GT ISZERO PUSH2 0x49A5 JUMPI PUSH2 0x49A5 PUSH2 0x441D JUMP JUMPDEST POP POP PUSH1 0x1 DUP3 SHL PUSH2 0x1A86 JUMP JUMPDEST POP PUSH1 0x20 DUP4 LT PUSH2 0x133 DUP4 LT AND PUSH1 0x4E DUP5 LT PUSH1 0xB DUP5 LT AND OR ISZERO PUSH2 0x49D3 JUMPI POP DUP2 DUP2 EXP PUSH2 0x1A86 JUMP JUMPDEST PUSH2 0x49DD DUP4 DUP4 PUSH2 0x491D JUMP JUMPDEST DUP1 PUSH1 0x0 NOT DIV DUP3 GT ISZERO PUSH2 0x49F1 JUMPI PUSH2 0x49F1 PUSH2 0x441D JUMP JUMPDEST MUL SWAP4 SWAP3 POP POP POP JUMP JUMPDEST PUSH1 0x0 PUSH2 0x3B57 PUSH1 0xFF DUP5 AND DUP4 PUSH2 0x4958 JUMP JUMPDEST PUSH1 0x0 DUP1 PUSH1 0x40 DUP4 DUP6 SUB SLT ISZERO PUSH2 0x4A1B JUMPI PUSH1 0x0 DUP1 REVERT JUMPDEST DUP3 MLOAD SWAP2 POP PUSH1 0x20 DUP4 ADD MLOAD PUSH1 0x1 PUSH1 0x1 PUSH1 0x40 SHL SUB DUP2 GT ISZERO PUSH2 0x4A38 JUMPI PUSH1 0x0 DUP1 REVERT JUMPDEST PUSH2 0x4A44 DUP6 DUP3 DUP7 ADD PUSH2 0x46A8 JUMP JUMPDEST SWAP2 POP POP SWAP3 POP SWAP3 SWAP1 POP JUMP JUMPDEST PUSH1 0x0 DUP3 MLOAD PUSH2 0x4A60 DUP2 DUP5 PUSH1 0x20 DUP8 ADD PUSH2 0x3BA9 JUMP JUMPDEST SWAP2 SWAP1 SWAP2 ADD SWAP3 SWAP2 POP POP JUMP INVALID LOG2 PUSH5 0x6970667358 0x22 SLT KECCAK256 SWAP16 PUSH8 0x2B017E71DAE42EDB 0xF8 PUSH20 0x300AD178C4B1954A3BA08719380939A8212AA37F PUSH5 0x736F6C6343 STOP ADDMOD GT STOP CALLER ","sha1":"2a1658fc9873a4a52087209f6553d1c92368e42c","source":"// SPDX-License-Identifier: LicenseRef-Gyro-1.0\n// for information on licensing please see the README in the GitHub repository <https://github.com/gyrostable/core-protocol>.\npragma solidity ^0.8.4;\n\nimport \"@openzeppelin/contracts/token/ERC20/utils/SafeERC20.sol\";\nimport \"@openzeppelin/contracts/token/ERC20/IERC20.sol\";\nimport \"@openzeppelin/contracts/utils/structs/EnumerableSet.sol\";\nimport \"@openzeppelin/contracts-upgradeable/token/ERC20/IERC20Upgradeable.sol\";\nimport \"@openzeppelin/contracts-upgradeable/token/ERC20/utils/SafeERC20Upgradeable.sol\";\n\nimport \"../interfaces/IFeeHandler.sol\";\nimport \"../interfaces/IMotherboard.sol\";\nimport \"../interfaces/IGyroVault.sol\";\nimport \"../interfaces/ILPTokenExchanger.sol\";\nimport \"../interfaces/IPAMM.sol\";\nimport \"../interfaces/IGyroConfig.sol\";\nimport \"../interfaces/IGYDToken.sol\";\nimport \"../interfaces/IExternalActionExecutor.sol\";\nimport \"../interfaces/balancer/IVault.sol\";\n\nimport \"../libraries/DataTypes.sol\";\nimport \"../libraries/ConfigKeys.sol\";\nimport \"../libraries/ConfigHelpers.sol\";\nimport \"../libraries/Errors.sol\";\nimport \"../libraries/FixedPoint.sol\";\nimport \"../libraries/DecimalScale.sol\";\nimport \"../libraries/ReserveStateExtensions.sol\";\nimport \"../libraries/StringExtensions.sol\";\n\nimport \"./ExternalActionExecutor.sol\";\nimport \"./auth/GovernableUpgradeable.sol\";\n\n/// @title MotherBoard is the central contract connecting the different pieces\n/// of the Gyro protocol\ncontract Motherboard is IMotherboard, GovernableUpgradeable {\n    using FixedPoint for uint256;\n    using DecimalScale for uint256;\n    using SafeERC20 for IERC20;\n    using SafeERC20Upgradeable for IGYDToken;\n    using ConfigHelpers for IGyroConfig;\n    using EnumerableSet for EnumerableSet.AddressSet;\n    using ReserveStateExtensions for DataTypes.ReserveState;\n    using ReserveStateExtensions for DataTypes.VaultInfo;\n    using StringExtensions for string;\n\n    uint256 internal constant _REDEEM_DEVIATION_EPSILON = 1e13; // 0.001 %\n\n    /// @inheritdoc IMotherboard\n    IGYDToken public immutable override gydToken;\n\n    /// @inheritdoc IMotherboard\n    IReserve public immutable override reserve;\n\n    /// @inheritdoc IMotherboard\n    IGyroConfig public immutable override gyroConfig;\n\n    /// @notice Used to execute permits and other actions, such as oracle updates,\n    /// that do not require any privilege\n    IExternalActionExecutor public immutable externalActionExecutor;\n\n    // Balancer vault used for re-entrancy check.\n    IVault internal immutable balancerVault;\n\n    /// @inheritdoc IMotherboard\n    uint256 public override bootstrappingSupply;\n\n    // Events\n    event Mint(\n        address indexed minter,\n        uint256 mintedGYDAmount,\n        uint256 usdValue,\n        DataTypes.Order orderBeforeFees,\n        DataTypes.Order orderAfterFees\n    );\n\n    event Redeem(\n        address indexed redeemer,\n        uint256 gydToRedeem,\n        uint256 usdValueToRedeem,\n        DataTypes.Order orderBeforeFees,\n        DataTypes.Order orderAfterFees\n    );\n\n    constructor(IGyroConfig _gyroConfig) {\n        gyroConfig = _gyroConfig;\n        gydToken = _gyroConfig.getGYDToken();\n        reserve = _gyroConfig.getReserve();\n        balancerVault = _gyroConfig.getBalancerVault();\n        externalActionExecutor = new ExternalActionExecutor();\n    }\n\n    /// @inheritdoc IMotherboard\n    function mint(DataTypes.MintAsset[] calldata assets, uint256 minReceivedAmount)\n        public\n        override\n        returns (uint256 mintedGYDAmount)\n    {\n        _ensureBalancerVaultNotReentrant();\n\n        DataTypes.MonetaryAmount[] memory vaultAmounts = _convertMintInputAssetsToVaultTokens(\n            assets\n        );\n        DataTypes.ReserveState memory reserveState = gyroConfig\n            .getReserveManager()\n            .getReserveState();\n\n        // order matters!\n        gyroConfig.getReserveStewardshipIncentives().checkpoint(reserveState);\n        gyroConfig.getGydRecovery().checkAndRun(reserveState);\n\n        DataTypes.Order memory order = _monetaryAmountsToMintOrder(\n            vaultAmounts,\n            reserveState.vaults\n        );\n\n        gyroConfig.getRootSafetyCheck().checkAndPersistMint(order);\n\n        for (uint256 i = 0; i < vaultAmounts.length; i++) {\n            DataTypes.MonetaryAmount memory vaultAmount = vaultAmounts[i];\n            IERC20(vaultAmount.tokenAddress).safeTransfer(address(reserve), vaultAmount.amount);\n        }\n\n        DataTypes.Order memory orderAfterFees = gyroConfig.getFeeHandler().applyFees(order);\n\n        uint256 usdValue = _getBasketUSDValue(orderAfterFees);\n        mintedGYDAmount = pamm().mint(usdValue, reserveState.totalUSDValue);\n\n        require(mintedGYDAmount >= minReceivedAmount, Errors.TOO_MUCH_SLIPPAGE);\n\n        gydToken.mint(msg.sender, mintedGYDAmount);\n\n        emit Mint(msg.sender, mintedGYDAmount, usdValue, order, orderAfterFees);\n    }\n\n    function mint(\n        DataTypes.MintAsset[] calldata assets,\n        uint256 minReceivedAmount,\n        DataTypes.ExternalAction[] calldata actions\n    ) public returns (uint256 mintedGYDAmount) {\n        externalActionExecutor.executeActions(actions);\n        return mint(assets, minReceivedAmount);\n    }\n\n    /// @inheritdoc IMotherboard\n    function redeem(uint256 gydToRedeem, DataTypes.RedeemAsset[] calldata assets)\n        public\n        override\n        returns (uint256[] memory outputAmounts)\n    {\n        _ensureBalancerVaultNotReentrant();\n\n        // Catch a corner case where the complete minted supply and some of the bootstrapping supply\n        // is redeemed, which would make mintedSupply() underflow in following calls.\n        require(gydToRedeem <= mintedSupply(), Errors.TRYING_TO_REDEEM_MORE_THAN_SUPPLY);\n\n        DataTypes.ReserveState memory reserveState = gyroConfig\n            .getReserveManager()\n            .getReserveState();\n\n        uint256 reserveRedeemUSDValue = reserveState.computeLowerBoundUSDValue(_oracle());\n\n        // order matters!\n        gyroConfig.getReserveStewardshipIncentives().checkpoint(reserveState);\n        gyroConfig.getGydRecovery().checkAndRun(reserveState);\n\n        uint256 usdValueToRedeem = pamm().redeem(gydToRedeem, reserveRedeemUSDValue);\n        require(\n            usdValueToRedeem <= gydToRedeem.mulDown(FixedPoint.ONE + _REDEEM_DEVIATION_EPSILON),\n            Errors.REDEEM_AMOUNT_BUG\n        );\n\n        gydToken.burnFrom(msg.sender, gydToRedeem);\n\n        DataTypes.Order memory order = _createRedeemOrder(\n            usdValueToRedeem,\n            assets,\n            reserveState.vaults\n        );\n        gyroConfig.getRootSafetyCheck().checkAndPersistRedeem(order);\n\n        DataTypes.Order memory orderAfterFees = gyroConfig.getFeeHandler().applyFees(order);\n        outputAmounts = _convertAndSendRedeemOutputAssets(assets, orderAfterFees);\n\n        emit Redeem(msg.sender, gydToRedeem, usdValueToRedeem, order, orderAfterFees);\n    }\n\n    function redeem(\n        uint256 gydToRedeem,\n        DataTypes.RedeemAsset[] calldata assets,\n        DataTypes.ExternalAction[] calldata actions\n    ) external returns (uint256[] memory outputAmounts) {\n        externalActionExecutor.executeActions(actions);\n        return redeem(gydToRedeem, assets);\n    }\n\n    /// @inheritdoc IMotherboard\n    function dryMint(\n        DataTypes.MintAsset[] calldata assets,\n        uint256 minReceivedAmount,\n        address account\n    ) external view override returns (uint256 mintedGYDAmount, string memory err) {\n        DataTypes.MonetaryAmount[] memory vaultAmounts;\n        (vaultAmounts, err) = _dryConvertMintInputAssetsToVaultTokens(assets);\n        if (bytes(err).length > 0) {\n            return (0, err);\n        }\n\n        DataTypes.ReserveState memory reserveState = gyroConfig\n            .getReserveManager()\n            .getReserveState();\n\n        DataTypes.Order memory order = _monetaryAmountsToMintOrder(\n            vaultAmounts,\n            reserveState.vaults\n        );\n\n        err = gyroConfig.getRootSafetyCheck().isMintSafe(order);\n        if (bytes(err).length > 0) {\n            return (0, err);\n        }\n\n        DataTypes.Order memory orderAfterFees = gyroConfig.getFeeHandler().applyFees(order);\n        uint256 usdValue = _getBasketUSDValue(orderAfterFees);\n        mintedGYDAmount = pamm().computeMintAmount(usdValue, reserveState.totalUSDValue);\n\n        if (mintedGYDAmount < minReceivedAmount) {\n            return (mintedGYDAmount, Errors.TOO_MUCH_SLIPPAGE);\n        }\n    }\n\n    /// @inheritdoc IMotherboard\n    function dryRedeem(uint256 gydToRedeem, DataTypes.RedeemAsset[] calldata assets)\n        external\n        view\n        override\n        returns (uint256[] memory outputAmounts, string memory err)\n    {\n        require(gydToRedeem <= mintedSupply(), Errors.TRYING_TO_REDEEM_MORE_THAN_SUPPLY);\n\n        outputAmounts = new uint256[](assets.length);\n        DataTypes.ReserveState memory reserveState = gyroConfig\n            .getReserveManager()\n            .getReserveState();\n        uint256 reserveRedeemUSDValue = reserveState.computeLowerBoundUSDValue(_oracle());\n        uint256 usdValueToRedeem = pamm().computeRedeemAmount(gydToRedeem, reserveRedeemUSDValue);\n\n        DataTypes.Order memory order = _createRedeemOrder(\n            usdValueToRedeem,\n            assets,\n            reserveState.vaults\n        );\n        err = gyroConfig.getRootSafetyCheck().isRedeemSafe(order);\n        if (bytes(err).length > 0) {\n            return (outputAmounts, err);\n        }\n        DataTypes.Order memory orderAfterFees = gyroConfig.getFeeHandler().applyFees(order);\n        return _computeRedeemOutputAmounts(assets, orderAfterFees);\n    }\n\n    /// @inheritdoc IMotherboard\n    function pamm() public view override returns (IPAMM) {\n        return gyroConfig.getPAMM();\n    }\n\n    function mintStewardshipIncRewards(uint256 amount) external override {\n        require(\n            msg.sender == address(gyroConfig.getReserveStewardshipIncentives()),\n            Errors.NOT_AUTHORIZED\n        );\n        address treasury = gyroConfig.getGovTreasuryAddress();\n        gydToken.mint(treasury, amount);\n    }\n\n    function _dryConvertMintInputAssetsToVaultTokens(DataTypes.MintAsset[] calldata assets)\n        internal\n        view\n        returns (DataTypes.MonetaryAmount[] memory vaultAmounts, string memory err)\n    {\n        vaultAmounts = new DataTypes.MonetaryAmount[](assets.length);\n        for (uint256 i = 0; i < assets.length; i++) {\n            DataTypes.MintAsset calldata asset = assets[i];\n            uint256 vaultTokenAmount;\n            (vaultTokenAmount, err) = _computeVaultTokensForAsset(asset);\n            if (bytes(err).length > 0) {\n                return (vaultAmounts, err);\n            }\n            vaultAmounts[i] = DataTypes.MonetaryAmount({\n                tokenAddress: asset.destinationVault,\n                amount: vaultTokenAmount\n            });\n        }\n    }\n\n    function _computeVaultTokensForAsset(DataTypes.MintAsset calldata asset)\n        internal\n        view\n        returns (uint256, string memory err)\n    {\n        if (asset.inputToken == asset.destinationVault) {\n            return (asset.inputAmount, \"\");\n        } else {\n            IGyroVault vault = IGyroVault(asset.destinationVault);\n            if (asset.inputToken == vault.underlying()) {\n                return vault.dryDeposit(asset.inputAmount, 0);\n            } else {\n                return (0, Errors.INVALID_ASSET);\n            }\n        }\n    }\n\n    function _convertMintInputAssetsToVaultTokens(DataTypes.MintAsset[] calldata assets)\n        internal\n        returns (DataTypes.MonetaryAmount[] memory)\n    {\n        DataTypes.MonetaryAmount[] memory vaultAmounts = new DataTypes.MonetaryAmount[](\n            assets.length\n        );\n\n        for (uint256 i = 0; i < assets.length; i++) {\n            DataTypes.MintAsset calldata asset = assets[i];\n            vaultAmounts[i] = DataTypes.MonetaryAmount({\n                tokenAddress: asset.destinationVault,\n                amount: _convertMintInputAssetToVaultToken(asset)\n            });\n        }\n        return vaultAmounts;\n    }\n\n    function _convertMintInputAssetToVaultToken(DataTypes.MintAsset calldata asset)\n        internal\n        returns (uint256)\n    {\n        IGyroVault vault = IGyroVault(asset.destinationVault);\n\n        IERC20(asset.inputToken).safeTransferFrom(msg.sender, address(this), asset.inputAmount);\n\n        if (asset.inputToken == address(vault)) {\n            return asset.inputAmount;\n        }\n\n        address lpTokenAddress = vault.underlying();\n        require(asset.inputToken == lpTokenAddress, Errors.INVALID_ASSET);\n\n        IERC20(lpTokenAddress).safeIncreaseAllowance(address(vault), asset.inputAmount);\n        return vault.deposit(asset.inputAmount, 0);\n    }\n\n    function _getAssetAmountMint(address vault, DataTypes.MonetaryAmount[] memory amounts)\n        internal\n        pure\n        returns (uint256)\n    {\n        uint256 total = 0;\n        for (uint256 i = 0; i < amounts.length; i++) {\n            DataTypes.MonetaryAmount memory vaultAmount = amounts[i];\n            if (vaultAmount.tokenAddress == vault) total += vaultAmount.amount;\n        }\n        return total;\n    }\n\n    function _monetaryAmountsToMintOrder(\n        DataTypes.MonetaryAmount[] memory amounts,\n        DataTypes.VaultInfo[] memory vaultsInfo\n    ) internal pure returns (DataTypes.Order memory) {\n        DataTypes.Order memory order = DataTypes.Order({\n            mint: true,\n            vaultsWithAmount: new DataTypes.VaultWithAmount[](vaultsInfo.length)\n        });\n\n        for (uint256 i = 0; i < vaultsInfo.length; i++) {\n            DataTypes.VaultInfo memory vaultInfo = vaultsInfo[i];\n            order.vaultsWithAmount[i] = DataTypes.VaultWithAmount({\n                amount: _getAssetAmountMint(vaultInfo.vault, amounts),\n                vaultInfo: vaultInfo\n            });\n        }\n\n        return order;\n    }\n\n    function _getRedeemAssetAmountAndRatio(\n        DataTypes.VaultInfo memory vaultInfo,\n        uint256 usdValueToRedeem,\n        DataTypes.RedeemAsset[] calldata redeemAssets\n    ) internal view returns (uint256, uint256) {\n        for (uint256 i = 0; i < redeemAssets.length; i++) {\n            DataTypes.RedeemAsset calldata asset = redeemAssets[i];\n            if (asset.originVault == vaultInfo.vault) {\n                uint256 vaultPrice = vaultInfo.computeUpperBoundUSDPrice(_oracle());\n                uint256 vaultUsdValueToWithdraw = usdValueToRedeem.mulDown(asset.valueRatio);\n                uint256 vaultTokenAmount = vaultUsdValueToWithdraw.divDown(vaultPrice);\n                uint256 scaledVaultTokenAmount = vaultTokenAmount.scaleTo(vaultInfo.decimals);\n\n                return (scaledVaultTokenAmount, asset.valueRatio);\n            }\n        }\n        return (0, 0);\n    }\n\n    function _createRedeemOrder(\n        uint256 usdValueToRedeem,\n        DataTypes.RedeemAsset[] calldata assets,\n        DataTypes.VaultInfo[] memory vaultsInfo\n    ) internal view returns (DataTypes.Order memory) {\n        _ensureNoDuplicates(assets);\n\n        DataTypes.Order memory order = DataTypes.Order({\n            mint: false,\n            vaultsWithAmount: new DataTypes.VaultWithAmount[](vaultsInfo.length)\n        });\n\n        uint256 totalValueRatio = 0;\n\n        for (uint256 i = 0; i < vaultsInfo.length; i++) {\n            DataTypes.VaultInfo memory vaultInfo = vaultsInfo[i];\n            (uint256 amount, uint256 valueRatio) = _getRedeemAssetAmountAndRatio(\n                vaultInfo,\n                usdValueToRedeem,\n                assets\n            );\n            totalValueRatio += valueRatio;\n\n            order.vaultsWithAmount[i] = DataTypes.VaultWithAmount({\n                amount: amount,\n                vaultInfo: vaultInfo\n            });\n        }\n\n        require(totalValueRatio == FixedPoint.ONE, Errors.INVALID_ARGUMENT);\n\n        return order;\n    }\n\n    function _convertAndSendRedeemOutputAssets(\n        DataTypes.RedeemAsset[] calldata assets,\n        DataTypes.Order memory order\n    ) internal returns (uint256[] memory outputAmounts) {\n        outputAmounts = new uint256[](assets.length);\n        for (uint256 i = 0; i < assets.length; i++) {\n            DataTypes.RedeemAsset memory asset = assets[i];\n            uint256 vaultTokenAmount = _getRedeemAmount(order.vaultsWithAmount, asset.originVault);\n            uint256 outputAmount = _convertRedeemOutputAsset(asset, vaultTokenAmount);\n            // ensure we received enough tokens and transfer them to the user\n            require(outputAmount >= asset.minOutputAmount, Errors.TOO_MUCH_SLIPPAGE);\n            outputAmounts[i] = outputAmount;\n\n            IERC20(asset.outputToken).safeTransfer(msg.sender, outputAmount);\n        }\n    }\n\n    function _getRedeemAmount(DataTypes.VaultWithAmount[] memory vaultsWithAmount, address vault)\n        internal\n        pure\n        returns (uint256)\n    {\n        for (uint256 i = 0; i < vaultsWithAmount.length; i++) {\n            DataTypes.VaultWithAmount memory vaultWithAmount = vaultsWithAmount[i];\n            if (vaultWithAmount.vaultInfo.vault == vault) {\n                return vaultWithAmount.amount;\n            }\n        }\n        return 0;\n    }\n\n    function _convertRedeemOutputAsset(DataTypes.RedeemAsset memory asset, uint256 vaultTokenAmount)\n        internal\n        returns (uint256)\n    {\n        IGyroVault vault = IGyroVault(asset.originVault);\n        // withdraw the amount of vault tokens from the reserve\n        reserve.withdrawToken(address(vault), vaultTokenAmount);\n\n        // nothing to do if the user wants the vault token\n        if (asset.outputToken == address(vault)) {\n            return vaultTokenAmount;\n        } else {\n            // otherwise, convert the vault token into its underlying LP token\n            require(asset.outputToken == vault.underlying(), Errors.INVALID_ASSET);\n            return vault.withdraw(vaultTokenAmount, 0);\n        }\n    }\n\n    function _computeRedeemOutputAmounts(\n        DataTypes.RedeemAsset[] calldata assets,\n        DataTypes.Order memory order\n    ) internal view returns (uint256[] memory outputAmounts, string memory err) {\n        outputAmounts = new uint256[](assets.length);\n        for (uint256 i = 0; i < assets.length; i++) {\n            DataTypes.RedeemAsset calldata asset = assets[i];\n            uint256 vaultTokenAmount = _getRedeemAmount(order.vaultsWithAmount, asset.originVault);\n            uint256 outputAmount;\n            (outputAmount, err) = _computeRedeemOutputAmount(asset, vaultTokenAmount);\n            if (bytes(err).length > 0) {\n                return (outputAmounts, err);\n            }\n            // ensure we received enough tokens and transfer them to the user\n            if (outputAmount < asset.minOutputAmount) {\n                return (outputAmounts, Errors.TOO_MUCH_SLIPPAGE);\n            }\n            outputAmounts[i] = outputAmount;\n        }\n    }\n\n    function _computeRedeemOutputAmount(\n        DataTypes.RedeemAsset calldata asset,\n        uint256 vaultTokenAmount\n    ) internal view returns (uint256 outputAmount, string memory err) {\n        IGyroVault vault = IGyroVault(asset.originVault);\n\n        // nothing to do if the user wants the vault token\n        if (asset.outputToken == address(vault)) {\n            return (vaultTokenAmount, \"\");\n        }\n\n        // otherwise, we need the outputToken to be the underlying LP token\n        // and to convert the vault token into the underlying LP token\n        if (asset.outputToken != vault.underlying()) {\n            return (0, Errors.INVALID_ASSET);\n        }\n\n        uint256 vaultTokenBalance = vault.balanceOf(address(reserve));\n        if (vaultTokenBalance < vaultTokenAmount) {\n            return (0, Errors.INSUFFICIENT_BALANCE);\n        }\n\n        return vault.dryWithdraw(vaultTokenAmount, 0);\n    }\n\n    function _getBasketUSDValue(DataTypes.Order memory order)\n        internal\n        view\n        returns (uint256 result)\n    {\n        for (uint256 i = 0; i < order.vaultsWithAmount.length; i++) {\n            DataTypes.VaultWithAmount memory vaultWithAmount = order.vaultsWithAmount[i];\n            DataTypes.VaultInfo memory vaultInfo = vaultWithAmount.vaultInfo;\n            uint256 vaultPrice = vaultInfo.computeLowerBoundUSDPrice(_oracle());\n            uint256 scaledAmount = vaultWithAmount.amount.scaleFrom(vaultInfo.decimals);\n            result += scaledAmount.mulDown(vaultPrice);\n        }\n    }\n\n    function _ensureNoDuplicates(DataTypes.RedeemAsset[] calldata redeemAssets) internal pure {\n        for (uint256 i = 0; i < redeemAssets.length; i++) {\n            DataTypes.RedeemAsset calldata asset = redeemAssets[i];\n            for (uint256 j = i + 1; j < redeemAssets.length; j++) {\n                DataTypes.RedeemAsset calldata otherAsset = redeemAssets[j];\n                require(asset.originVault != otherAsset.originVault, Errors.INVALID_ARGUMENT);\n            }\n        }\n    }\n\n    /// @dev Ensures that this is not called from inside a Balancer vault operation. This avoids a reentrancy condition.\n    function _ensureBalancerVaultNotReentrant() internal {\n        // A simple no-op that would trip the Vault's reentrancy check. The code \"withdraws\" an amount of 0 of token\n        // address(0) from the Vault’s internal balance for the calling contract and sends it to address(0).\n        IVault.UserBalanceOp[] memory ops = new IVault.UserBalanceOp[](1);\n        ops[0].kind = IVault.UserBalanceOpKind.WITHDRAW_INTERNAL;\n        ops[0].sender = address(this);\n        balancerVault.manageUserBalance(ops);\n    }\n\n    function _oracle() internal view returns (IBatchVaultPriceOracle) {\n        return gyroConfig.getRootPriceOracle();\n    }\n\n    function mintedSupply() public view returns (uint256) {\n        return gydToken.totalSupply() - bootstrappingSupply;\n    }\n\n    function setBootstrappingSupply(uint256 _bootstrappingSupply) external governanceOnly {\n        bootstrappingSupply = _bootstrappingSupply;\n    }\n}\n","sourcePath":"contracts/Motherboard.sol","type":"contract","deployment":{"address":"0x19144E641bfe62b624296A211D47798187Bc09Ba","chainid":"1","blockHeight":18387980}}