{"abi":[{"inputs":[{"internalType":"address","name":"_governor","type":"address"},{"internalType":"address","name":"_gyroConfig","type":"address"},{"internalType":"address","name":"_rewardToken","type":"address"},{"internalType":"address","name":"_daoTreasury","type":"address"},{"internalType":"uint256","name":"_withdrawalWaitDuration","type":"uint256"},{"internalType":"uint256","name":"_maxWithdrawalWaitDuration","type":"uint256"},{"internalType":"uint256","name":"_maxTriggerCR","type":"uint256"}],"stateMutability":"nonpayable","type":"constructor","name":"constructor"},{"anonymous":false,"inputs":[{"indexed":true,"internalType":"address","name":"beneficiary","type":"address"},{"indexed":false,"internalType":"uint256","name":"amount","type":"uint256"}],"name":"Claim","type":"event"},{"anonymous":false,"inputs":[{"indexed":false,"internalType":"address","name":"beneficiary","type":"address"},{"indexed":false,"internalType":"uint256","name":"adjustedAmount","type":"uint256"},{"indexed":false,"internalType":"uint256","name":"amount","type":"uint256"}],"name":"Deposit","type":"event"},{"anonymous":false,"inputs":[{"indexed":false,"internalType":"address","name":"newGovernor","type":"address"}],"name":"GovernorChangeRequested","type":"event"},{"anonymous":false,"inputs":[{"indexed":false,"internalType":"address","name":"oldGovernor","type":"address"},{"indexed":false,"internalType":"address","name":"newGovernor","type":"address"}],"name":"GovernorChanged","type":"event"},{"anonymous":false,"inputs":[{"indexed":false,"internalType":"uint256","name":"tokensBurned","type":"uint256"},{"indexed":false,"internalType":"bool","name":"isFullBurn","type":"bool"},{"indexed":false,"internalType":"uint256","name":"newAdjustmentFactor","type":"uint256"}],"name":"RecoveryExecuted","type":"event"},{"anonymous":false,"inputs":[{"indexed":true,"internalType":"address","name":"account","type":"address"},{"indexed":false,"internalType":"uint256","name":"amount","type":"uint256"}],"name":"Stake","type":"event"},{"anonymous":false,"inputs":[{"indexed":false,"internalType":"uint256","name":"amount","type":"uint256"},{"indexed":false,"internalType":"uint256","name":"endTime","type":"uint256"}],"name":"StartMining","type":"event"},{"anonymous":false,"inputs":[],"name":"StopMining","type":"event"},{"anonymous":false,"inputs":[{"indexed":true,"internalType":"address","name":"account","type":"address"},{"indexed":false,"internalType":"uint256","name":"amount","type":"uint256"}],"name":"Unstake","type":"event"},{"anonymous":false,"inputs":[{"indexed":false,"internalType":"uint256","name":"id","type":"uint256"},{"indexed":false,"internalType":"address","name":"to","type":"address"},{"indexed":false,"internalType":"uint256","name":"adjustedAmount","type":"uint256"},{"indexed":false,"internalType":"uint256","name":"amount","type":"uint256"}],"name":"WithdrawalCompleted","type":"event"},{"anonymous":false,"inputs":[{"indexed":false,"internalType":"uint256","name":"id","type":"uint256"},{"indexed":false,"internalType":"address","name":"to","type":"address"},{"indexed":false,"internalType":"uint256","name":"withdrawalAt","type":"uint256"},{"indexed":false,"internalType":"uint256","name":"adjustedAmount","type":"uint256"},{"indexed":false,"internalType":"uint256","name":"amount","type":"uint256"}],"name":"WithdrawalQueued","type":"event"},{"inputs":[],"name":"acceptGovernance","outputs":[],"stateMutability":"nonpayable","type":"function"},{"inputs":[{"internalType":"uint256","name":"adjustedAmount","type":"uint256"}],"name":"adjustedAmountToAmount","outputs":[{"internalType":"uint256","name":"amount","type":"uint256"}],"stateMutability":"view","type":"function"},{"inputs":[],"name":"adjustmentFactor","outputs":[{"internalType":"uint256","name":"","type":"uint256"}],"stateMutability":"view","type":"function"},{"inputs":[{"internalType":"uint256","name":"amount","type":"uint256"}],"name":"amountToAdjustedAmount","outputs":[{"internalType":"uint256","name":"adjustedAmount","type":"uint256"}],"stateMutability":"view","type":"function"},{"inputs":[{"internalType":"address","name":"account","type":"address"}],"name":"balanceAdjustedOf","outputs":[{"internalType":"uint256","name":"adjustedAmount","type":"uint256"}],"stateMutability":"view","type":"function"},{"inputs":[{"internalType":"address","name":"account","type":"address"}],"name":"balanceOf","outputs":[{"internalType":"uint256","name":"","type":"uint256"}],"stateMutability":"view","type":"function"},{"inputs":[{"internalType":"address","name":"newGovernor","type":"address"}],"name":"changeGovernor","outputs":[],"stateMutability":"nonpayable","type":"function"},{"inputs":[],"name":"checkAndRun","outputs":[{"internalType":"bool","name":"","type":"bool"}],"stateMutability":"nonpayable","type":"function"},{"inputs":[{"components":[{"internalType":"uint256","name":"totalUSDValue","type":"uint256"},{"components":[{"internalType":"address","name":"vault","type":"address"},{"internalType":"uint8","name":"decimals","type":"uint8"},{"internalType":"address","name":"underlying","type":"address"},{"internalType":"uint256","name":"price","type":"uint256"},{"components":[{"internalType":"uint256","name":"priceAtCalibration","type":"uint256"},{"internalType":"uint256","name":"weightAtCalibration","type":"uint256"},{"internalType":"uint256","name":"shortFlowMemory","type":"uint256"},{"internalType":"uint256","name":"shortFlowThreshold","type":"uint256"},{"internalType":"uint64","name":"weightTransitionDuration","type":"uint64"},{"internalType":"uint64","name":"weightAtPreviousCalibration","type":"uint64"},{"internalType":"uint64","name":"timeOfCalibration","type":"uint64"}],"internalType":"struct DataTypes.PersistedVaultMetadata","name":"persistedMetadata","type":"tuple"},{"internalType":"uint256","name":"reserveBalance","type":"uint256"},{"internalType":"uint256","name":"currentWeight","type":"uint256"},{"internalType":"uint256","name":"targetWeight","type":"uint256"},{"components":[{"internalType":"address","name":"tokenAddress","type":"address"},{"internalType":"bool","name":"isStable","type":"bool"},{"internalType":"uint256","name":"price","type":"uint256"},{"components":[{"internalType":"uint256","name":"floor","type":"uint256"},{"internalType":"uint256","name":"ceiling","type":"uint256"}],"internalType":"struct DataTypes.Range","name":"priceRange","type":"tuple"}],"internalType":"struct DataTypes.PricedToken[]","name":"pricedTokens","type":"tuple[]"}],"internalType":"struct DataTypes.VaultInfo[]","name":"vaults","type":"tuple[]"}],"internalType":"struct DataTypes.ReserveState","name":"reserveState","type":"tuple"}],"name":"checkAndRun","outputs":[{"internalType":"bool","name":"","type":"bool"}],"stateMutability":"nonpayable","type":"function"},{"inputs":[],"name":"claimRewards","outputs":[{"internalType":"uint256","name":"","type":"uint256"}],"stateMutability":"nonpayable","type":"function"},{"inputs":[{"internalType":"address","name":"beneficiary","type":"address"}],"name":"claimableRewards","outputs":[{"internalType":"uint256","name":"","type":"uint256"}],"stateMutability":"view","type":"function"},{"inputs":[],"name":"daoTreasury","outputs":[{"internalType":"address","name":"","type":"address"}],"stateMutability":"view","type":"function"},{"inputs":[{"internalType":"uint256","name":"amount","type":"uint256"}],"name":"deposit","outputs":[],"stateMutability":"nonpayable","type":"function"},{"inputs":[{"internalType":"address","name":"beneficiary","type":"address"},{"internalType":"uint256","name":"amount","type":"uint256"}],"name":"depositFor","outputs":[],"stateMutability":"nonpayable","type":"function"},{"inputs":[],"name":"globalCheckpoint","outputs":[],"stateMutability":"nonpayable","type":"function"},{"inputs":[],"name":"governor","outputs":[{"internalType":"address","name":"","type":"address"}],"stateMutability":"view","type":"function"},{"inputs":[],"name":"gydToken","outputs":[{"internalType":"contract IGYDToken","name":"","type":"address"}],"stateMutability":"view","type":"function"},{"inputs":[],"name":"gyroConfig","outputs":[{"internalType":"contract IGyroConfig","name":"","type":"address"}],"stateMutability":"view","type":"function"},{"inputs":[{"internalType":"uint256","name":"amount","type":"uint256"}],"name":"initiateWithdrawal","outputs":[{"internalType":"uint256","name":"withdrawalId","type":"uint256"}],"stateMutability":"nonpayable","type":"function"},{"inputs":[{"internalType":"uint256","name":"adjustedAmount","type":"uint256"}],"name":"initiateWithdrawalAdjusted","outputs":[{"internalType":"uint256","name":"withdrawalId","type":"uint256"}],"stateMutability":"nonpayable","type":"function"},{"inputs":[{"internalType":"address","name":"_user","type":"address"}],"name":"listPendingWithdrawals","outputs":[{"components":[{"internalType":"uint256","name":"createdFullBurnId","type":"uint256"},{"internalType":"uint256","name":"adjustedAmount","type":"uint256"},{"internalType":"uint256","name":"withdrawableAt","type":"uint256"},{"internalType":"address","name":"to","type":"address"}],"internalType":"struct GydRecovery.PendingWithdrawal[]","name":"","type":"tuple[]"}],"stateMutability":"view","type":"function"},{"inputs":[],"name":"maxTriggerCR","outputs":[{"internalType":"uint256","name":"","type":"uint256"}],"stateMutability":"view","type":"function"},{"inputs":[],"name":"maxWithdrawalWaitDuration","outputs":[{"internalType":"uint256","name":"","type":"uint256"}],"stateMutability":"view","type":"function"},{"inputs":[],"name":"pendingGovernor","outputs":[{"internalType":"address","name":"","type":"address"}],"stateMutability":"view","type":"function"},{"inputs":[],"name":"rewardToken","outputs":[{"internalType":"contract IERC20","name":"","type":"address"}],"stateMutability":"view","type":"function"},{"inputs":[],"name":"rewardsEmissionEndTime","outputs":[{"internalType":"uint256","name":"","type":"uint256"}],"stateMutability":"view","type":"function"},{"inputs":[],"name":"rewardsEmissionRate","outputs":[{"internalType":"uint256","name":"","type":"uint256"}],"stateMutability":"view","type":"function"},{"inputs":[{"internalType":"uint256","name":"_duration","type":"uint256"}],"name":"setWithdrawalWaitDuration","outputs":[],"stateMutability":"nonpayable","type":"function"},{"inputs":[],"name":"shouldRun","outputs":[{"internalType":"bool","name":"","type":"bool"}],"stateMutability":"view","type":"function"},{"inputs":[{"internalType":"address","name":"account","type":"address"}],"name":"stakedBalanceOf","outputs":[{"internalType":"uint256","name":"","type":"uint256"}],"stateMutability":"view","type":"function"},{"inputs":[{"internalType":"address","name":"rewardsFrom","type":"address"},{"internalType":"uint256","name":"amount","type":"uint256"},{"internalType":"uint256","name":"endTime","type":"uint256"}],"name":"startMining","outputs":[],"stateMutability":"nonpayable","type":"function"},{"inputs":[],"name":"stopMining","outputs":[],"stateMutability":"nonpayable","type":"function"},{"inputs":[{"internalType":"address","name":"account","type":"address"}],"name":"totalBalanceAdjustedOf","outputs":[{"internalType":"uint256","name":"adjustedAmount","type":"uint256"}],"stateMutability":"view","type":"function"},{"inputs":[{"internalType":"address","name":"account","type":"address"}],"name":"totalBalanceOf","outputs":[{"internalType":"uint256","name":"amount","type":"uint256"}],"stateMutability":"view","type":"function"},{"inputs":[],"name":"totalStaked","outputs":[{"internalType":"uint256","name":"","type":"uint256"}],"stateMutability":"view","type":"function"},{"inputs":[],"name":"totalUnderlying","outputs":[{"internalType":"uint256","name":"","type":"uint256"}],"stateMutability":"view","type":"function"},{"inputs":[{"internalType":"address","name":"account","type":"address"}],"name":"userCheckpoint","outputs":[],"stateMutability":"nonpayable","type":"function"},{"inputs":[{"internalType":"uint256","name":"withdrawalId","type":"uint256"}],"name":"withdraw","outputs":[{"internalType":"uint256","name":"amount","type":"uint256"}],"stateMutability":"nonpayable","type":"function"},{"inputs":[],"name":"withdrawalWaitDuration","outputs":[{"internalType":"uint256","name":"","type":"uint256"}],"stateMutability":"view","type":"function"}],"bytecode":"6101406040526001600d55670de0b6b3a7640000600e553480156200002357600080fd5b50604051620037d9380380620037d98339810160408190526200004691620001f8565b600080546001600160a01b0319166001600160a01b0389169081178255604080519283526020830191909152869186918a917fde4b3f61490b74c0ed6237523974fe299126bbbf8a8a7482fd220104c59b0c84910160405180910390a150426004556001600160a01b03918216608052811660a0528616610100819052620000da9062000153602090811b6200169417901c565b6001600160a01b031661012052818311156200013c5760405162461bcd60e51b815260206004820181905260248201527f696e76616c6964207769746864726177616c2077616974206475726174696f6e604482015260640160405180910390fd5b60129290925560c05260e052506200029792505050565b6040516321f8a72160e01b8152704759445f544f4b454e5f4144445245535360781b60048201526000906001600160a01b038316906321f8a72190602401602060405180830381865afa158015620001af573d6000803e3d6000fd5b505050506040513d601f19601f82011682018060405250810190620001d5919062000272565b92915050565b80516001600160a01b0381168114620001f357600080fd5b919050565b600080600080600080600060e0888a0312156200021457600080fd5b6200021f88620001db565b96506200022f60208901620001db565b95506200023f60408901620001db565b94506200024f60608901620001db565b93506080880151925060a0880151915060c0880151905092959891949750929550565b6000602082840312156200028557600080fd5b6200029082620001db565b9392505050565b60805160a05160c05160e051610100516101205161345f6200037a6000396000818161055d01528181610bc101528181610ca50152818161134501526121f701526000818161036601528181610742015281816107c801528181610e7d01528181610f7901528181611017015281816118ef0152818161196d015281816119f701528181611e190152611ef10152600081816104640152611f6001526000818161031101526116210152600081816103fe015261207c01526000818161053601528181611c1801528181611c5a01528181611fd6015261205a015261345f6000f3fe608060405234801561001057600080fd5b506004361061023d5760003560e01c806376c252cb1161013b578063c24ab3bb116100b8578063e3056a341161007c578063e3056a34146104f8578063e4c0aaf41461050b578063e9314c731461051e578063f7c618c114610531578063fbf600281461055857600080fd5b8063c24ab3bb146104ac578063c70920bc146104cc578063cb6741ed146104d4578063da408679146104dd578063dc01f60d146104e557600080fd5b806393396677116100ff578063933966771461044457806397a04d5a14610457578063994c711c1461045f578063b07b709b14610486578063b6b55f251461049957600080fd5b806376c252cb146103e657806379022a9f146103f95780637c7a855314610420578063817b1cd214610433578063838e99581461043c57600080fd5b80632e1a7d4d116101c95780634b0ee02a1161018d5780634b0ee02a146103915780634ba9699e146103a45780635bd98c77146103b757806369998ceb146103ca57806370a08231146103d357600080fd5b80632e1a7d4d146103335780632f4f21e214610346578063372500ab1461035957806344bbdb55146103615780634a62c9fb1461038857600080fd5b80631575e6da116102105780631575e6da146102b957806316765391146102d15780631ac40e66146102fa578063238efcbc1461030457806329c32a301461030c57600080fd5b80630a9ea0b7146102425780630c340a241461026857806312edde5e14610293578063131796e1146102a6575b600080fd5b6102556102503660046128ff565b61057f565b6040519081526020015b60405180910390f35b60005461027b906001600160a01b031681565b6040516001600160a01b03909116815260200161025f565b6102556102a13660046128ff565b610704565b6102556102b43660046128ff565b610724565b6102c161073b565b604051901515815260200161025f565b6102556102df36600461293d565b6001600160a01b031660009081526008602052604090205490565b61030261086b565b005b6103026108f6565b6102557f000000000000000000000000000000000000000000000000000000000000000081565b6102556103413660046128ff565b6109a6565b61030261035436600461295a565b610c98565b610255610d70565b61027b7f000000000000000000000000000000000000000000000000000000000000000081565b610255600a5481565b61025561039f36600461293d565b610e09565b6103026103b2366004612986565b610e20565b6102c16103c5366004612c51565b610e76565b61025560125481565b6102556103e136600461293d565b610f04565b6102556103f436600461293d565b610f11565b61027b7f000000000000000000000000000000000000000000000000000000000000000081565b61025561042e3660046128ff565b610f5a565b61025560025481565b6102c1610f71565b61025561045236600461293d565b61105e565b6102556110b1565b6102557f000000000000000000000000000000000000000000000000000000000000000081565b61030261049436600461293d565b6110cc565b6103026104a73660046128ff565b6111d8565b6104bf6104ba36600461293d565b6111e5565b60405161025f9190612dde565b61025561132d565b610255600e5481565b6103026113b8565b6102556104f336600461293d565b611408565b60015461027b906001600160a01b031681565b61030261051936600461293d565b611504565b61030261052c3660046128ff565b6115d9565b61027b7f000000000000000000000000000000000000000000000000000000000000000081565b61027b7f000000000000000000000000000000000000000000000000000000000000000081565b600061058a33610f11565b8211156105d75760405162461bcd60e51b81526020600482015260166024820152756e6f7420656e6f75676820746f20776974686472617760501b60448201526064015b60405180910390fd5b6105e13383611714565b50601180549060006105f283612e61565b9091555060408051608081018252600d5481526020810184905260125460009282019061061f9042612e7a565b8152336020918201526000848152600f82526040808220845181558484015160018201558482015160028201556060850151600390910180546001600160a01b0319166001600160a01b039092169182179055825260109092522090915061068790836117a6565b507f303e206423354d1b684563fe13a4dc15469665cebd160dcfee461b7af63fe21a8282606001518360400151866106ca600e54896117b290919063ffffffff16565b604080519586526001600160a01b039094166020860152928401919091526060830152608082015260a0015b60405180910390a150919050565b600061071e610250600e54846117d390919063ffffffff16565b92915050565b600061071e600e54836117d390919063ffffffff16565b600061076f7f00000000000000000000000000000000000000000000000000000000000000006001600160a01b0316611846565b6001600160a01b031663c2c4c5c16040518163ffffffff1660e01b8152600401600060405180830381600087803b1580156107a957600080fd5b505af11580156107bd573d6000803e3d6000fd5b5050505060006107f57f00000000000000000000000000000000000000000000000000000000000000006001600160a01b0316611895565b6001600160a01b031663ef5bac256040518163ffffffff1660e01b8152600401600060405180830381865afa158015610832573d6000803e3d6000fd5b505050506040513d6000823e601f3d908101601f1916820160405261085a9190810190612fe0565b9050610865816118e4565b91505090565b6000610875611abc565b600254909150801580159061088b575060045482115b156108f0576000600454836108a0919061315a565b90506000816009546108b2919061316d565b90506108be81846117d3565b600360008282546108cf9190612e7a565b9250508190555080600560008282546108e89190612e7a565b909155505050505b50600455565b600154604080518082019091526002815261033360f41b6020820152906001600160a01b0316331461093b5760405162461bcd60e51b81526004016105ce91906131a8565b5060008054600180546001600160a01b03198084166001600160a01b03808416919091179095551690556040805192909116808352336020840152917fde4b3f61490b74c0ed6237523974fe299126bbbf8a8a7482fd220104c59b0c8491015b60405180910390a150565b6000818152600f60209081526040808320815160808101835281548152600182015493810193909352600281015491830191909152600301546001600160a01b0316606082018190523314610a485760405162461bcd60e51b815260206004820152602260248201527f6d61746368696e67207769746864726177616c20646f6573206e6f74206578696044820152611cdd60f21b60648201526084016105ce565b4281604001511115610a935760405162461bcd60e51b81526020600482015260146024820152736e6f742079657420776974686472617761626c6560601b60448201526064016105ce565b600d5481511015610b55576000838152600f60209081526040808320838155600181018490556002810184905560030180546001600160a01b031916905560608401516001600160a01b0316835260109091529020610af29084611ad4565b50606080820151604080518681526001600160a01b0390921660208301526000908201819052918101919091527fcd7211ce885c480c8874fe7e69383ad2d60ec453bdb417e7f45222bf44e472669060800160405180910390a150600092915050565b8060200151600b600083606001516001600160a01b03166001600160a01b031681526020019081526020016000206001016000828254610b95919061315a565b9091555050600e546020820151610bab916117b2565b6060820151909250610be8906001600160a01b037f0000000000000000000000000000000000000000000000000000000000000000169084611ae0565b6000838152600f60209081526040808320838155600181018490556002810184905560030180546001600160a01b031916905560608401516001600160a01b0316835260109091529020610c3c9084611ad4565b50606081015160208201516040517fcd7211ce885c480c8874fe7e69383ad2d60ec453bdb417e7f45222bf44e47266926106f692879287909384526001600160a01b039290921660208401526040830152606082015260800190565b610ccd6001600160a01b037f000000000000000000000000000000000000000000000000000000000000000016333084611b43565b6000610ce4600e54836117d390919063ffffffff16565b9050610cf08382611b81565b6001600160a01b0383166000908152600b602052604081206001018054839290610d1b908490612e7a565b9091555050604080516001600160a01b0385168152602081018390529081018390527f90890809c654f11d6e72a28fa60149770a0d11ec6c92319d6ceb2bb0a4ea1a15906060015b60405180910390a1505050565b6000610d7b336110cc565b3360009081526007602052604081205490819003610d9b57600091505090565b3360008181526007602052604080822091909155517f47cee97cb7acd717b3c0aa1435d004cd5b3c8c57d70dbceb4e4458bbd60e39d490610ddf9084815260200190565b60405180910390a28060056000828254610df9919061315a565b9091555061086590503382611c09565b600061071e600e54610e1a8461105e565b906117b2565b600054604080518082019091526002815261033360f41b6020820152906001600160a01b03163314610e655760405162461bcd60e51b81526004016105ce91906131a8565b50610e71838383611c45565b505050565b6000610eaa7f00000000000000000000000000000000000000000000000000000000000000006001600160a01b0316611cd4565b6001600160a01b0316336001600160a01b031614610efb5760405162461bcd60e51b815260206004820152600e60248201526d1b9bdd08185d5d1a1bdc9a5e995960921b60448201526064016105ce565b61071e826118e4565b600061071e600e54610e1a845b600d546001600160a01b0382166000908152600b6020526040812054909111610f52576001600160a01b03821660009081526008602052604090205461071e565b600092915050565b600061071e600e54836117b290919063ffffffff16565b600080610fa67f00000000000000000000000000000000000000000000000000000000000000006001600160a01b0316611895565b6001600160a01b031663ef5bac256040518163ffffffff1660e01b8152600401600060405180830381865afa158015610fe3573d6000803e3d6000fd5b505050506040513d6000823e601f3d908101601f1916820160405261100b9190810190612fe0565b9050600061104b6110447f00000000000000000000000000000000000000000000000000000000000000006001600160a01b0316611d19565b8390611d68565b90506110578282611df6565b9250505090565b6001600160a01b0381166000908152600b602090815260408083208151808301909252805480835260019091015492820192909252600d549091106110a75780602001516110aa565b60005b9392505050565b6000600a544211156110c35750600090565b6009545b905090565b6110d461086b565b6001600160a01b0381166000908152600b60209081526040808320805460089093529083205490928281036111115750600354600d54845561115b565b600d5483101561115657506000828152600c602090815260408083205460018701849055600d5487556001600160a01b0388168452600890925282209190915561115b565b506003545b6001600160a01b03851660009081526006602052604090205461118990611182908361315a565b83906117b2565b6001600160a01b038616600090815260076020526040812080549091906111b1908490612e7a565b90915550506001600160a01b03909416600090815260066020526040902093909355505050565b6111e23382610c98565b50565b6001600160a01b038116600090815260106020526040812060609161120982611f94565b67ffffffffffffffff811115611221576112216129bb565b60405190808252806020026020018201604052801561128657816020015b611273604051806080016040528060008152602001600081526020016000815260200160006001600160a01b031681525090565b81526020019060019003908161123f5790505b50905060005b61129583611f94565b81101561132557600f60006112aa8584611f9e565b81526020808201929092526040908101600020815160808101835281548152600182015493810193909352600281015491830191909152600301546001600160a01b031660608201528251839083908110611307576113076131db565b6020026020010181905250808061131d90612e61565b91505061128c565b509392505050565b6040516370a0823160e01b81523060048201526000907f00000000000000000000000000000000000000000000000000000000000000006001600160a01b0316906370a0823190602401602060405180830381865afa158015611394573d6000803e3d6000fd5b505050506040513d601f19601f820116820180604052508101906110c791906131f1565b600054604080518082019091526002815261033360f41b6020820152906001600160a01b031633146113fd5760405162461bcd60e51b81526004016105ce91906131a8565b50611406611faa565b565b6001600160a01b0381166000908152600b60205260408120548181158015906114325750600d5482105b1561144c57506000818152600c6020526040902054611493565b506003546002541561149357611486600254600454611469611abc565b611473919061315a565b600954611480919061316d565b906117d3565b6114909082612e7a565b90505b6001600160a01b0384166000908152600660205260409020546114d9906114ba908361315a565b6001600160a01b038616600090815260086020526040902054906117b2565b6001600160a01b0385166000908152600760205260409020546114fc9190612e7a565b949350505050565b600054604080518082019091526002815261033360f41b6020820152906001600160a01b031633146115495760405162461bcd60e51b81526004016105ce91906131a8565b50604080518082019091526002815261333160f01b60208201526001600160a01b03821661158a5760405162461bcd60e51b81526004016105ce91906131a8565b50600180546001600160a01b0319166001600160a01b0383169081179091556040519081527f67235ba2e63c748a35b95c4f92a3bbc2a1389938170a5ce6c9add5d0b03a314a9060200161099b565b600054604080518082019091526002815261033360f41b6020820152906001600160a01b0316331461161e5760405162461bcd60e51b81526004016105ce91906131a8565b507f000000000000000000000000000000000000000000000000000000000000000081111561168f5760405162461bcd60e51b815260206004820181905260248201527f696e76616c6964207769746864726177616c2077616974206475726174696f6e60448201526064016105ce565b601255565b6040516321f8a72160e01b8152704759445f544f4b454e5f4144445245535360781b60048201526000906001600160a01b038316906321f8a721906024015b602060405180830381865afa1580156116f0573d6000803e3d6000fd5b505050506040513d601f19601f8201168201806040525081019061071e919061320a565b61171d826110cc565b6001600160a01b0382166000908152600860205260408120805483929061174590849061315a565b92505081905550806002600082825461175e919061315a565b90915550506040518181526001600160a01b038316907f85082129d87b2fe11527cb1b3b7a520aeb5aa6913f88a3d8757fe40d1db02fdd906020015b60405180910390a25050565b60006110aa83836120d7565b6000806117bf838561316d565b90506114fc670de0b6b3a764000082613227565b604080518082019091526002815261323560f01b60208201526000908261180d5760405162461bcd60e51b81526004016105ce91906131a8565b508260000361181e5750600061071e565b6000611832670de0b6b3a76400008561316d565b905061183e8382613227565b91505061071e565b6040516321f8a72160e01b81527f53544557415244534849505f494e435f4144445245535300000000000000000060048201526000906001600160a01b038316906321f8a721906024016116d3565b6040516321f8a72160e01b81527f524553455256455f4d414e414745525f4144445245535300000000000000000060048201526000906001600160a01b038316906321f8a721906024016116d3565b60008061192361191c7f00000000000000000000000000000000000000000000000000000000000000006001600160a01b0316611d19565b8490611d68565b905061192f8382611df6565b61193c5750600092915050565b60405163bd02d0f560e01b81527523aca22fa922a1a7ab22a92cafaa20a923a2aa2fa1a960511b60048201526000907f00000000000000000000000000000000000000000000000000000000000000006001600160a01b03169063bd02d0f590602401602060405180830381865afa1580156119bc573d6000803e3d6000fd5b505050506040513d601f19601f820116820180604052508101906119e091906131f1565b905060006119ee83836117d3565b90506000611a247f00000000000000000000000000000000000000000000000000000000000000006001600160a01b0316611cd4565b6001600160a01b031663c1bd8cf96040518163ffffffff1660e01b8152600401602060405180830381865afa158015611a61573d6000803e3d6000fd5b505050506040513d601f19601f82011682018060405250810190611a8591906131f1565b9050808210611a9a5750600095945050505050565b6000611aa6838361315a565b9050611ab181612126565b979650505050505050565b6000600a54421115611acf5750600a5490565b504290565b60006110aa83836122aa565b6040516001600160a01b038316602482015260448101829052610e7190849063a9059cbb60e01b906064015b60408051601f198184030181529190526020810180516001600160e01b03166001600160e01b03199093169290921790915261239d565b6040516001600160a01b0380851660248301528316604482015260648101829052611b7b9085906323b872dd60e01b90608401611b0c565b50505050565b611b8a826110cc565b8060026000828254611b9c9190612e7a565b90915550506001600160a01b03821660009081526008602052604081208054839290611bc9908490612e7a565b90915550506040518181526001600160a01b038316907febedb8b3c678666e7f36970bc8f57abf6d8fa2e828c0da91ea5b75bf68ed101a9060200161179a565b6000611c3f6001600160a01b037f0000000000000000000000000000000000000000000000000000000000000000168484611ae0565b50919050565b611c4d61086b565b611c826001600160a01b037f000000000000000000000000000000000000000000000000000000000000000016843085611b43565b611c8c428261315a565b611c969083613227565b600955600a81905560408051838152602081018390527f76554fac4477e8876b3de3af392cf374cf4e9de02ae78fbade2373107381fe509101610d63565b6040516321f8a72160e01b8152724d4f54484552424f4152445f4144445245535360681b60048201526000906001600160a01b038316906321f8a721906024016116d3565b6040516321f8a72160e01b81527f524f4f545f50524943455f4f5241434c455f414444524553530000000000000060048201526000906001600160a01b038316906321f8a721906024016116d3565b60008060005b84602001515181101561132557600085602001518281518110611d9357611d936131db565b602002602001015190506000611da9828761246f565b90506000611dc883602001518460a001516124f490919063ffffffff16565b9050611dd481836117b2565b611dde9086612e7a565b94505050508080611dee90612e61565b915050611d6e565b6000611e0061132d565b600003611e0f5750600061071e565b6000611eae611e467f00000000000000000000000000000000000000000000000000000000000000006001600160a01b0316611cd4565b6001600160a01b031663c1bd8cf96040518163ffffffff1660e01b8152600401602060405180830381865afa158015611e83573d6000803e3d6000fd5b505050506040513d601f19601f82011682018060405250810190611ea791906131f1565b84906117d3565b60405163bd02d0f560e01b81527f4759445f5245434f564552595f545249474745525f435200000000000000000060048201529091506000906001600160a01b037f0000000000000000000000000000000000000000000000000000000000000000169063bd02d0f590602401602060405180830381865afa158015611f38573d6000803e3d6000fd5b505050506040513d601f19601f82011682018060405250810190611f5c91906131f1565b90507f000000000000000000000000000000000000000000000000000000000000000080821115611f8b578091505b50119392505050565b600061071e825490565b60006110aa838361255c565b611fb261086b565b6005546040516370a0823160e01b8152306004820152600091906001600160a01b037f000000000000000000000000000000000000000000000000000000000000000016906370a0823190602401602060405180830381865afa15801561201d573d6000803e3d6000fd5b505050506040513d601f19601f8201168201806040525081019061204191906131f1565b61204b919061315a565b90506120a16001600160a01b037f0000000000000000000000000000000000000000000000000000000000000000167f000000000000000000000000000000000000000000000000000000000000000083611ae0565b6000600a81905560098190556040517fe5a0e15e63edb96a15ed99a9c2a3674e2e0bd1b10b65d0223cce19a6b54e7fb19190a150565b600081815260018301602052604081205461211e5750815460018181018455600084815260208082209093018490558454848252828601909352604090209190915561071e565b50600061071e565b600061213061086b565b600061213a61132d565b9050600061215a611182662386f26fc10000670de0b6b3a764000061315a565b8410801591506121ac57819350600354600c6000600d54815260200190815260200160002081905550600d6000815461219290612e61565b90915550670de0b6b3a7640000600e5560006002556121e1565b60006121c8836114806121bf888361315a565b600e54906117b2565b9050806000036121dd57506000949350505050565b600e555b604051630852cd8d60e31b8152600481018590527f00000000000000000000000000000000000000000000000000000000000000006001600160a01b0316906342966c6890602401600060405180830381600087803b15801561224357600080fd5b505af1158015612257573d6000803e3d6000fd5b5050600e5460408051888152851515602082015280820192909252517f37ed7585c7f773823577de180502d8778adef528b0d258e481b6e2ddd28b725c9350908190036060019150a15060019392505050565b600081815260018301602052604081205480156123935760006122ce60018361315a565b85549091506000906122e29060019061315a565b9050818114612347576000866000018281548110612302576123026131db565b9060005260206000200154905080876000018481548110612325576123256131db565b6000918252602080832090910192909255918252600188019052604090208390555b855486908061235857612358613249565b60019003818190600052602060002001600090559055856001016000868152602001908152602001600020600090556001935050505061071e565b600091505061071e565b60006123f2826040518060400160405280602081526020017f5361666545524332303a206c6f772d6c6576656c2063616c6c206661696c6564815250856001600160a01b03166125869092919063ffffffff16565b805190915015610e715780806020019051810190612410919061325f565b610e715760405162461bcd60e51b815260206004820152602a60248201527f5361666545524332303a204552433230206f7065726174696f6e20646964206e6044820152691bdd081cdd58d8d9595960b21b60648201526084016105ce565b6000806124828461010001516000612595565b845160405163b32b752d60e01b81529192506001600160a01b0385169163b32b752d916124b391859060040161327c565b602060405180830381865afa1580156124d0573d6000803e3d6000fd5b505050506040513d601f19601f820116820180604052508101906114fc91906131f1565b600060111960ff83160161250957508161071e565b601260ff8316111561253c57612520601283613301565b61252b90600a6133fe565b6125359084613227565b905061071e565b612547826012613301565b61255290600a6133fe565b612535908461316d565b6000826000018281548110612573576125736131db565b9060005260206000200154905092915050565b60606114fc8484600085612796565b60606000835167ffffffffffffffff8111156125b3576125b36129bb565b60405190808252806020026020018201604052801561261b57816020015b6126086040805160808101825260008082526020808301829052828401829052835180850190945281845283015290606082015290565b8152602001906001900390816125d15790505b50905060005b84518110156113255784818151811061263c5761263c6131db565b60200260200101516000015182828151811061265a5761265a6131db565b60209081029190910101516001600160a01b0390911690528451859082908110612686576126866131db565b6020026020010151602001518282815181106126a4576126a46131db565b602002602001015160200190151590811515815250508481815181106126cc576126cc6131db565b602002602001015160200151801561270e5750670de0b6b3a76400008582815181106126fa576126fa6131db565b602002602001015160400151101515841515145b1561274357670de0b6b3a764000082828151811061272e5761272e6131db565b60200260200101516040018181525050612784565b848181518110612755576127556131db565b602002602001015160400151828281518110612773576127736131db565b602002602001015160400181815250505b8061278e81612e61565b915050612621565b6060824710156127f75760405162461bcd60e51b815260206004820152602660248201527f416464726573733a20696e73756666696369656e742062616c616e636520666f6044820152651c8818d85b1b60d21b60648201526084016105ce565b600080866001600160a01b03168587604051612813919061340d565b60006040518083038185875af1925050503d8060008114612850576040519150601f19603f3d011682016040523d82523d6000602084013e612855565b606091505b5091509150611ab187838387606083156128d05782516000036128c9576001600160a01b0385163b6128c95760405162461bcd60e51b815260206004820152601d60248201527f416464726573733a2063616c6c20746f206e6f6e2d636f6e747261637400000060448201526064016105ce565b50816114fc565b6114fc83838151156128e55781518083602001fd5b8060405162461bcd60e51b81526004016105ce91906131a8565b60006020828403121561291157600080fd5b5035919050565b6001600160a01b03811681146111e257600080fd5b803561293881612918565b919050565b60006020828403121561294f57600080fd5b81356110aa81612918565b6000806040838503121561296d57600080fd5b823561297881612918565b946020939093013593505050565b60008060006060848603121561299b57600080fd5b83356129a681612918565b95602085013595506040909401359392505050565b634e487b7160e01b600052604160045260246000fd5b60405160e0810167ffffffffffffffff811182821017156129f4576129f46129bb565b60405290565b6040516080810167ffffffffffffffff811182821017156129f4576129f46129bb565b6040805190810167ffffffffffffffff811182821017156129f4576129f46129bb565b604051610120810167ffffffffffffffff811182821017156129f4576129f46129bb565b604051601f8201601f1916810167ffffffffffffffff81118282101715612a8d57612a8d6129bb565b604052919050565b600067ffffffffffffffff821115612aaf57612aaf6129bb565b5060051b60200190565b60ff811681146111e257600080fd5b803561293881612ab9565b67ffffffffffffffff811681146111e257600080fd5b600060e08284031215612afb57600080fd5b612b036129d1565b9050813581526020820135602082015260408201356040820152606082013560608201526080820135612b3581612ad3565b608082015260a0820135612b4881612ad3565b60a082015260c0820135612b5b81612ad3565b60c082015292915050565b80151581146111e257600080fd5b600082601f830112612b8557600080fd5b81356020612b9a612b9583612a95565b612a64565b82815260a09283028501820192828201919087851115612bb957600080fd5b8387015b85811015612c445780890382811215612bd65760008081fd5b612bde6129fa565b8235612be981612918565b815282870135612bf881612b66565b81880152604083810135818301526060605f198401821315612c1a5760008081fd5b612c22612a1d565b85820135815260808601358a8201529083015250855250928401928101612bbd565b5090979650505050505050565b60006020808385031215612c6457600080fd5b823567ffffffffffffffff80821115612c7c57600080fd5b9084019060408287031215612c9057600080fd5b612c98612a1d565b823581528383013582811115612cad57600080fd5b80840193505086601f840112612cc257600080fd5b8235612cd0612b9582612a95565b81815260059190911b84018501908581019089831115612cef57600080fd5b8686015b83811015612dcb57803586811115612d0a57600080fd5b87016101e0818d03601f1901811315612d2257600080fd5b612d2a612a40565b612d358b840161292d565b8152612d4360408401612ac8565b8b820152612d536060840161292d565b60408201526080830135606082015260a0612d708f828601612ae9565b6080830152610180840135908201526101a083013560c08201526101c083013560e0820152908201359088821115612da85760008081fd5b612db68e8c84860101612b74565b61010082015285525050918701918701612cf3565b5095830195909552509695505050505050565b602080825282518282018190526000919060409081850190868401855b82811015612e3e57815180518552868101518786015285810151868601526060908101516001600160a01b03169085015260809093019290850190600101612dfb565b5091979650505050505050565b634e487b7160e01b600052601160045260246000fd5b600060018201612e7357612e73612e4b565b5060010190565b8082018082111561071e5761071e612e4b565b805161293881612918565b805161293881612ab9565b600060e08284031215612eb557600080fd5b612ebd6129d1565b9050815181526020820151602082015260408201516040820152606082015160608201526080820151612eef81612ad3565b608082015260a0820151612f0281612ad3565b60a082015260c0820151612b5b81612ad3565b600082601f830112612f2657600080fd5b81516020612f36612b9583612a95565b82815260a09283028501820192828201919087851115612f5557600080fd5b8387015b85811015612c445780890382811215612f725760008081fd5b612f7a6129fa565b8251612f8581612918565b815282870151612f9481612b66565b81880152604083810151818301526060605f198401821315612fb65760008081fd5b612fbe612a1d565b85820151815260808601518a8201529083015250855250928401928101612f59565b60006020808385031215612ff357600080fd5b825167ffffffffffffffff8082111561300b57600080fd5b908401906040828703121561301f57600080fd5b613027612a1d565b82518152838301518281111561303c57600080fd5b80840193505086601f84011261305157600080fd5b825161305f612b9582612a95565b81815260059190911b8401850190858101908983111561307e57600080fd5b8686015b83811015612dcb5780518681111561309957600080fd5b87016101e0818d03601f19018113156130b157600080fd5b6130b9612a40565b6130c48b8401612e8d565b81526130d260408401612e98565b8b8201526130e260608401612e8d565b60408201526080830151606082015260a06130ff8f828601612ea3565b6080830152610180840151908201526101a083015160c08201526101c083015160e08201529082015190888211156131375760008081fd5b6131458e8c84860101612f15565b61010082015285525050918701918701613082565b8181038181111561071e5761071e612e4b565b808202811582820484141761071e5761071e612e4b565b60005b8381101561319f578181015183820152602001613187565b50506000910152565b60208152600082518060208401526131c7816040850160208701613184565b601f01601f19169190910160400192915050565b634e487b7160e01b600052603260045260246000fd5b60006020828403121561320357600080fd5b5051919050565b60006020828403121561321c57600080fd5b81516110aa81612918565b60008261324457634e487b7160e01b600052601260045260246000fd5b500490565b634e487b7160e01b600052603160045260246000fd5b60006020828403121561327157600080fd5b81516110aa81612b66565b6001600160a01b038381168252604060208084018290528451848301819052600093606092909183870190888301875b828110156132f1578151805187168552858101511515868601528881015189860152870151805188860152850151608085015260a090930192908401906001016132ac565b50919a9950505050505050505050565b60ff828116828216039081111561071e5761071e612e4b565b600181815b8085111561335557816000190482111561333b5761333b612e4b565b8085161561334857918102915b93841c939080029061331f565b509250929050565b60008261336c5750600161071e565b816133795750600061071e565b816001811461338f5760028114613399576133b5565b600191505061071e565b60ff8411156133aa576133aa612e4b565b50506001821b61071e565b5060208310610133831016604e8410600b84101617156133d8575081810a61071e565b6133e2838361331a565b80600019048211156133f6576133f6612e4b565b029392505050565b60006110aa60ff84168361335d565b6000825161341f818460208701613184565b919091019291505056fea2646970667358221220597f4b2ccf7c1fcd5711c2a41a60264c74b895efb4bbaf4c6d74a9d18acdb97064736f6c63430008110033","bytecodeSha1":"3b24d3fe5af13313919025a7e0a7e7bd6b8f2b80","compiler":{"evm_version":"london","optimizer":{"enabled":true,"runs":200},"version":"0.8.17+commit.8df45f5f"},"contractName":"GydRecovery","language":"Solidity","natspec":{"kind":"dev","methods":{"acceptGovernance()":{"notice":"Called by the pending governor to approve the change"},"balanceAdjustedOf(address)":{"notice":"Like balanceOf() but in adjusted amounts."},"balanceOf(address)":{"notice":"Balance of given account that is available for withdrawal."},"changeGovernor(address)":{"notice":"Changes the governor can only be called by the current governor"},"checkAndRun((uint256,(address,uint8,address,uint256,(uint256,uint256,uint256,uint256,uint64,uint64,uint64),uint256,uint256,uint256,(address,bool,uint256,(uint256,uint256))[])[]))":{"notice":"Variant of checkAndRun() where the reserve state is passed in; only callable by Motherboard."},"checkAndRun()":{"notice":"Checks whether the reserve experiences a shortfall and the safety module should run and then runs it if so. This is called internally but can also be called by anyone.","returns":{"_0":"Whether the safety module ran."}},"claimRewards()":{"notice":"claims rewards for caller"},"claimableRewards(address)":{"notice":"returns the amount of claimable rewards by `beneficiary`"},"globalCheckpoint()":{"details":"these functions will be called internally but can typically be called by anyone to update the internal tracking state of the contract"},"governor()":{"notice":"Returns the current governor"},"initiateWithdrawalAdjusted(uint256)":{"notice":"Like initiateWithdrawal() but operates on adjusted amounts. Convenient to withdraw all funds via `initiateWithdrawalAdjusted(balanceAdjustedOf(account))` without worrying about rounding issues."},"pendingGovernor()":{"notice":"Returns the pending governor"},"rewardsEmissionEndTime()":{"notice":"time when rewards emission ends"},"rewardsEmissionRate()":{"notice":"returns the number of rewards token that will be given per second for the contract This emission will be given to all stakers in the contract proportionally to their stake"},"shouldRun()":{"notice":"Whether the reserve should run under current conditions, i.e., whether it would run if `checkAndRun()` was called."},"stakedBalanceOf(address)":{"notice":"the amount of tokens staked by `account`"},"startMining(address,uint256,uint256)":{"notice":"Deposit `amount` of the reward token from `rewardsFrom` and enable rewards until `endTime`. Typically governanceOnly. `amount` is spread evenly over the time period."},"stopMining()":{"notice":"Stop liquidity mining early and reimburse leftover rewards to the DAO treasury. This may also be needed after the mining period has ended when we had `totalStaked() == 0` for a while, where no rewards accrue."},"totalBalanceAdjustedOf(address)":{"notice":"Like `totalBalanceOf()` but in adjusted amounts."},"totalBalanceOf(address)":{"notice":"Total amount contributed of a given account, consisting of the amount available for withdrawal and the amount that has already been marked for withdrawal."},"totalStaked()":{"notice":"the total amount of tokens staked in the contract"},"totalUnderlying()":{"details":"Total amount available for burning. Includes amounts marked for withdrawal but not yet withdrawn."},"userCheckpoint(address)":{"details":"Update rewards accounting for user (see LiquidityMining.userCheckpoint()) and also update their position data in case of a full burn. It may look a bit ugly that these two things are mixed here but it's important to update them at the same time."}},"stateVariables":{"MAX_PARTIAL_BURN_FACTOR":{"details":"Max burn factor. If less than this share would be left over after burning, we do a full burn instead. This is to avoid numerical instability in the adjustment factor."}},"version":1},"opcodes":"PUSH1 0x80 PUSH1 0x40 MSTORE CALLVALUE DUP1 ISZERO PUSH2 0x10 JUMPI PUSH1 0x0 DUP1 REVERT JUMPDEST POP PUSH1 0x4 CALLDATASIZE LT PUSH2 0x23D JUMPI PUSH1 0x0 CALLDATALOAD PUSH1 0xE0 SHR DUP1 PUSH4 0x76C252CB GT PUSH2 0x13B JUMPI DUP1 PUSH4 0xC24AB3BB GT PUSH2 0xB8 JUMPI DUP1 PUSH4 0xE3056A34 GT PUSH2 0x7C JUMPI DUP1 PUSH4 0xE3056A34 EQ PUSH2 0x4F8 JUMPI DUP1 PUSH4 0xE4C0AAF4 EQ PUSH2 0x50B JUMPI DUP1 PUSH4 0xE9314C73 EQ PUSH2 0x51E JUMPI DUP1 PUSH4 0xF7C618C1 EQ PUSH2 0x531 JUMPI DUP1 PUSH4 0xFBF60028 EQ PUSH2 0x558 JUMPI PUSH1 0x0 DUP1 REVERT JUMPDEST DUP1 PUSH4 0xC24AB3BB EQ PUSH2 0x4AC JUMPI DUP1 PUSH4 0xC70920BC EQ PUSH2 0x4CC JUMPI DUP1 PUSH4 0xCB6741ED EQ PUSH2 0x4D4 JUMPI DUP1 PUSH4 0xDA408679 EQ PUSH2 0x4DD JUMPI DUP1 PUSH4 0xDC01F60D EQ PUSH2 0x4E5 JUMPI PUSH1 0x0 DUP1 REVERT JUMPDEST DUP1 PUSH4 0x93396677 GT PUSH2 0xFF JUMPI DUP1 PUSH4 0x93396677 EQ PUSH2 0x444 JUMPI DUP1 PUSH4 0x97A04D5A EQ PUSH2 0x457 JUMPI DUP1 PUSH4 0x994C711C EQ PUSH2 0x45F JUMPI DUP1 PUSH4 0xB07B709B EQ PUSH2 0x486 JUMPI DUP1 PUSH4 0xB6B55F25 EQ PUSH2 0x499 JUMPI PUSH1 0x0 DUP1 REVERT JUMPDEST DUP1 PUSH4 0x76C252CB EQ PUSH2 0x3E6 JUMPI DUP1 PUSH4 0x79022A9F EQ PUSH2 0x3F9 JUMPI DUP1 PUSH4 0x7C7A8553 EQ PUSH2 0x420 JUMPI DUP1 PUSH4 0x817B1CD2 EQ PUSH2 0x433 JUMPI DUP1 PUSH4 0x838E9958 EQ PUSH2 0x43C JUMPI PUSH1 0x0 DUP1 REVERT JUMPDEST DUP1 PUSH4 0x2E1A7D4D GT PUSH2 0x1C9 JUMPI DUP1 PUSH4 0x4B0EE02A GT PUSH2 0x18D JUMPI DUP1 PUSH4 0x4B0EE02A EQ PUSH2 0x391 JUMPI DUP1 PUSH4 0x4BA9699E EQ PUSH2 0x3A4 JUMPI DUP1 PUSH4 0x5BD98C77 EQ PUSH2 0x3B7 JUMPI DUP1 PUSH4 0x69998CEB EQ PUSH2 0x3CA JUMPI DUP1 PUSH4 0x70A08231 EQ PUSH2 0x3D3 JUMPI PUSH1 0x0 DUP1 REVERT JUMPDEST DUP1 PUSH4 0x2E1A7D4D EQ PUSH2 0x333 JUMPI DUP1 PUSH4 0x2F4F21E2 EQ PUSH2 0x346 JUMPI DUP1 PUSH4 0x372500AB EQ PUSH2 0x359 JUMPI DUP1 PUSH4 0x44BBDB55 EQ PUSH2 0x361 JUMPI DUP1 PUSH4 0x4A62C9FB EQ PUSH2 0x388 JUMPI PUSH1 0x0 DUP1 REVERT JUMPDEST DUP1 PUSH4 0x1575E6DA GT PUSH2 0x210 JUMPI DUP1 PUSH4 0x1575E6DA EQ PUSH2 0x2B9 JUMPI DUP1 PUSH4 0x16765391 EQ PUSH2 0x2D1 JUMPI DUP1 PUSH4 0x1AC40E66 EQ PUSH2 0x2FA JUMPI DUP1 PUSH4 0x238EFCBC EQ PUSH2 0x304 JUMPI DUP1 PUSH4 0x29C32A30 EQ PUSH2 0x30C JUMPI PUSH1 0x0 DUP1 REVERT JUMPDEST DUP1 PUSH4 0xA9EA0B7 EQ PUSH2 0x242 JUMPI DUP1 PUSH4 0xC340A24 EQ PUSH2 0x268 JUMPI DUP1 PUSH4 0x12EDDE5E EQ PUSH2 0x293 JUMPI DUP1 PUSH4 0x131796E1 EQ PUSH2 0x2A6 JUMPI JUMPDEST PUSH1 0x0 DUP1 REVERT JUMPDEST PUSH2 0x255 PUSH2 0x250 CALLDATASIZE PUSH1 0x4 PUSH2 0x28FF JUMP JUMPDEST PUSH2 0x57F JUMP JUMPDEST PUSH1 0x40 MLOAD SWAP1 DUP2 MSTORE PUSH1 0x20 ADD JUMPDEST PUSH1 0x40 MLOAD DUP1 SWAP2 SUB SWAP1 RETURN JUMPDEST PUSH1 0x0 SLOAD PUSH2 0x27B SWAP1 PUSH1 0x1 PUSH1 0x1 PUSH1 0xA0 SHL SUB AND DUP2 JUMP JUMPDEST PUSH1 0x40 MLOAD PUSH1 0x1 PUSH1 0x1 PUSH1 0xA0 SHL SUB SWAP1 SWAP2 AND DUP2 MSTORE PUSH1 0x20 ADD PUSH2 0x25F JUMP JUMPDEST PUSH2 0x255 PUSH2 0x2A1 CALLDATASIZE PUSH1 0x4 PUSH2 0x28FF JUMP JUMPDEST PUSH2 0x704 JUMP JUMPDEST PUSH2 0x255 PUSH2 0x2B4 CALLDATASIZE PUSH1 0x4 PUSH2 0x28FF JUMP JUMPDEST PUSH2 0x724 JUMP JUMPDEST PUSH2 0x2C1 PUSH2 0x73B JUMP JUMPDEST PUSH1 0x40 MLOAD SWAP1 ISZERO ISZERO DUP2 MSTORE PUSH1 0x20 ADD PUSH2 0x25F JUMP JUMPDEST PUSH2 0x255 PUSH2 0x2DF CALLDATASIZE PUSH1 0x4 PUSH2 0x293D JUMP JUMPDEST PUSH1 0x1 PUSH1 0x1 PUSH1 0xA0 SHL SUB AND PUSH1 0x0 SWAP1 DUP2 MSTORE PUSH1 0x8 PUSH1 0x20 MSTORE PUSH1 0x40 SWAP1 KECCAK256 SLOAD SWAP1 JUMP JUMPDEST PUSH2 0x302 PUSH2 0x86B JUMP JUMPDEST STOP JUMPDEST PUSH2 0x302 PUSH2 0x8F6 JUMP JUMPDEST PUSH2 0x255 PUSH32 0x0 DUP2 JUMP JUMPDEST PUSH2 0x255 PUSH2 0x341 CALLDATASIZE PUSH1 0x4 PUSH2 0x28FF JUMP JUMPDEST PUSH2 0x9A6 JUMP JUMPDEST PUSH2 0x302 PUSH2 0x354 CALLDATASIZE PUSH1 0x4 PUSH2 0x295A JUMP JUMPDEST PUSH2 0xC98 JUMP JUMPDEST PUSH2 0x255 PUSH2 0xD70 JUMP JUMPDEST PUSH2 0x27B PUSH32 0x0 DUP2 JUMP JUMPDEST PUSH2 0x255 PUSH1 0xA SLOAD DUP2 JUMP JUMPDEST PUSH2 0x255 PUSH2 0x39F CALLDATASIZE PUSH1 0x4 PUSH2 0x293D JUMP JUMPDEST PUSH2 0xE09 JUMP JUMPDEST PUSH2 0x302 PUSH2 0x3B2 CALLDATASIZE PUSH1 0x4 PUSH2 0x2986 JUMP JUMPDEST PUSH2 0xE20 JUMP JUMPDEST PUSH2 0x2C1 PUSH2 0x3C5 CALLDATASIZE PUSH1 0x4 PUSH2 0x2C51 JUMP JUMPDEST PUSH2 0xE76 JUMP JUMPDEST PUSH2 0x255 PUSH1 0x12 SLOAD DUP2 JUMP JUMPDEST PUSH2 0x255 PUSH2 0x3E1 CALLDATASIZE PUSH1 0x4 PUSH2 0x293D JUMP JUMPDEST PUSH2 0xF04 JUMP JUMPDEST PUSH2 0x255 PUSH2 0x3F4 CALLDATASIZE PUSH1 0x4 PUSH2 0x293D JUMP JUMPDEST PUSH2 0xF11 JUMP JUMPDEST PUSH2 0x27B PUSH32 0x0 DUP2 JUMP JUMPDEST PUSH2 0x255 PUSH2 0x42E CALLDATASIZE PUSH1 0x4 PUSH2 0x28FF JUMP JUMPDEST PUSH2 0xF5A JUMP JUMPDEST PUSH2 0x255 PUSH1 0x2 SLOAD DUP2 JUMP JUMPDEST PUSH2 0x2C1 PUSH2 0xF71 JUMP JUMPDEST PUSH2 0x255 PUSH2 0x452 CALLDATASIZE PUSH1 0x4 PUSH2 0x293D JUMP JUMPDEST PUSH2 0x105E JUMP JUMPDEST PUSH2 0x255 PUSH2 0x10B1 JUMP JUMPDEST PUSH2 0x255 PUSH32 0x0 DUP2 JUMP JUMPDEST PUSH2 0x302 PUSH2 0x494 CALLDATASIZE PUSH1 0x4 PUSH2 0x293D JUMP JUMPDEST PUSH2 0x10CC JUMP JUMPDEST PUSH2 0x302 PUSH2 0x4A7 CALLDATASIZE PUSH1 0x4 PUSH2 0x28FF JUMP JUMPDEST PUSH2 0x11D8 JUMP JUMPDEST PUSH2 0x4BF PUSH2 0x4BA CALLDATASIZE PUSH1 0x4 PUSH2 0x293D JUMP JUMPDEST PUSH2 0x11E5 JUMP JUMPDEST PUSH1 0x40 MLOAD PUSH2 0x25F SWAP2 SWAP1 PUSH2 0x2DDE JUMP JUMPDEST PUSH2 0x255 PUSH2 0x132D JUMP JUMPDEST PUSH2 0x255 PUSH1 0xE SLOAD DUP2 JUMP JUMPDEST PUSH2 0x302 PUSH2 0x13B8 JUMP JUMPDEST PUSH2 0x255 PUSH2 0x4F3 CALLDATASIZE PUSH1 0x4 PUSH2 0x293D JUMP JUMPDEST PUSH2 0x1408 JUMP JUMPDEST PUSH1 0x1 SLOAD PUSH2 0x27B SWAP1 PUSH1 0x1 PUSH1 0x1 PUSH1 0xA0 SHL SUB AND DUP2 JUMP JUMPDEST PUSH2 0x302 PUSH2 0x519 CALLDATASIZE PUSH1 0x4 PUSH2 0x293D JUMP JUMPDEST PUSH2 0x1504 JUMP JUMPDEST PUSH2 0x302 PUSH2 0x52C CALLDATASIZE PUSH1 0x4 PUSH2 0x28FF JUMP JUMPDEST PUSH2 0x15D9 JUMP JUMPDEST PUSH2 0x27B PUSH32 0x0 DUP2 JUMP JUMPDEST PUSH2 0x27B PUSH32 0x0 DUP2 JUMP JUMPDEST PUSH1 0x0 PUSH2 0x58A CALLER PUSH2 0xF11 JUMP JUMPDEST DUP3 GT ISZERO PUSH2 0x5D7 JUMPI PUSH1 0x40 MLOAD PUSH3 0x461BCD PUSH1 0xE5 SHL DUP2 MSTORE PUSH1 0x20 PUSH1 0x4 DUP3 ADD MSTORE PUSH1 0x16 PUSH1 0x24 DUP3 ADD MSTORE PUSH22 0x6E6F7420656E6F75676820746F207769746864726177 PUSH1 0x50 SHL PUSH1 0x44 DUP3 ADD MSTORE PUSH1 0x64 ADD JUMPDEST PUSH1 0x40 MLOAD DUP1 SWAP2 SUB SWAP1 REVERT JUMPDEST PUSH2 0x5E1 CALLER DUP4 PUSH2 0x1714 JUMP JUMPDEST POP PUSH1 0x11 DUP1 SLOAD SWAP1 PUSH1 0x0 PUSH2 0x5F2 DUP4 PUSH2 0x2E61 JUMP JUMPDEST SWAP1 SWAP2 SSTORE POP PUSH1 0x40 DUP1 MLOAD PUSH1 0x80 DUP2 ADD DUP3 MSTORE PUSH1 0xD SLOAD DUP2 MSTORE PUSH1 0x20 DUP2 ADD DUP5 SWAP1 MSTORE PUSH1 0x12 SLOAD PUSH1 0x0 SWAP3 DUP3 ADD SWAP1 PUSH2 0x61F SWAP1 TIMESTAMP PUSH2 0x2E7A JUMP JUMPDEST DUP2 MSTORE CALLER PUSH1 0x20 SWAP2 DUP3 ADD MSTORE PUSH1 0x0 DUP5 DUP2 MSTORE PUSH1 0xF DUP3 MSTORE PUSH1 0x40 DUP1 DUP3 KECCAK256 DUP5 MLOAD DUP2 SSTORE DUP5 DUP5 ADD MLOAD PUSH1 0x1 DUP3 ADD SSTORE DUP5 DUP3 ADD MLOAD PUSH1 0x2 DUP3 ADD SSTORE PUSH1 0x60 DUP6 ADD MLOAD PUSH1 0x3 SWAP1 SWAP2 ADD DUP1 SLOAD PUSH1 0x1 PUSH1 0x1 PUSH1 0xA0 SHL SUB NOT AND PUSH1 0x1 PUSH1 0x1 PUSH1 0xA0 SHL SUB SWAP1 SWAP3 AND SWAP2 DUP3 OR SWAP1 SSTORE DUP3 MSTORE PUSH1 0x10 SWAP1 SWAP3 MSTORE KECCAK256 SWAP1 SWAP2 POP PUSH2 0x687 SWAP1 DUP4 PUSH2 0x17A6 JUMP JUMPDEST POP PUSH32 0x303E206423354D1B684563FE13A4DC15469665CEBD160DCFEE461B7AF63FE21A DUP3 DUP3 PUSH1 0x60 ADD MLOAD DUP4 PUSH1 0x40 ADD MLOAD DUP7 PUSH2 0x6CA PUSH1 0xE SLOAD DUP10 PUSH2 0x17B2 SWAP1 SWAP2 SWAP1 PUSH4 0xFFFFFFFF AND JUMP JUMPDEST PUSH1 0x40 DUP1 MLOAD SWAP6 DUP7 MSTORE PUSH1 0x1 PUSH1 0x1 PUSH1 0xA0 SHL SUB SWAP1 SWAP5 AND PUSH1 0x20 DUP7 ADD MSTORE SWAP3 DUP5 ADD SWAP2 SWAP1 SWAP2 MSTORE PUSH1 0x60 DUP4 ADD MSTORE PUSH1 0x80 DUP3 ADD MSTORE PUSH1 0xA0 ADD JUMPDEST PUSH1 0x40 MLOAD DUP1 SWAP2 SUB SWAP1 LOG1 POP SWAP2 SWAP1 POP JUMP JUMPDEST PUSH1 0x0 PUSH2 0x71E PUSH2 0x250 PUSH1 0xE SLOAD DUP5 PUSH2 0x17D3 SWAP1 SWAP2 SWAP1 PUSH4 0xFFFFFFFF AND JUMP JUMPDEST SWAP3 SWAP2 POP POP JUMP JUMPDEST PUSH1 0x0 PUSH2 0x71E PUSH1 0xE SLOAD DUP4 PUSH2 0x17D3 SWAP1 SWAP2 SWAP1 PUSH4 0xFFFFFFFF AND JUMP JUMPDEST PUSH1 0x0 PUSH2 0x76F PUSH32 0x0 PUSH1 0x1 PUSH1 0x1 PUSH1 0xA0 SHL SUB AND PUSH2 0x1846 JUMP JUMPDEST PUSH1 0x1 PUSH1 0x1 PUSH1 0xA0 SHL SUB AND PUSH4 0xC2C4C5C1 PUSH1 0x40 MLOAD DUP2 PUSH4 0xFFFFFFFF AND PUSH1 0xE0 SHL DUP2 MSTORE PUSH1 0x4 ADD PUSH1 0x0 PUSH1 0x40 MLOAD DUP1 DUP4 SUB DUP2 PUSH1 0x0 DUP8 DUP1 EXTCODESIZE ISZERO DUP1 ISZERO PUSH2 0x7A9 JUMPI PUSH1 0x0 DUP1 REVERT JUMPDEST POP GAS CALL ISZERO DUP1 ISZERO PUSH2 0x7BD JUMPI RETURNDATASIZE PUSH1 0x0 DUP1 RETURNDATACOPY RETURNDATASIZE PUSH1 0x0 REVERT JUMPDEST POP POP POP POP PUSH1 0x0 PUSH2 0x7F5 PUSH32 0x0 PUSH1 0x1 PUSH1 0x1 PUSH1 0xA0 SHL SUB AND PUSH2 0x1895 JUMP JUMPDEST PUSH1 0x1 PUSH1 0x1 PUSH1 0xA0 SHL SUB AND PUSH4 0xEF5BAC25 PUSH1 0x40 MLOAD DUP2 PUSH4 0xFFFFFFFF AND PUSH1 0xE0 SHL DUP2 MSTORE PUSH1 0x4 ADD PUSH1 0x0 PUSH1 0x40 MLOAD DUP1 DUP4 SUB DUP2 DUP7 GAS STATICCALL ISZERO DUP1 ISZERO PUSH2 0x832 JUMPI RETURNDATASIZE PUSH1 0x0 DUP1 RETURNDATACOPY RETURNDATASIZE PUSH1 0x0 REVERT JUMPDEST POP POP POP POP PUSH1 0x40 MLOAD RETURNDATASIZE PUSH1 0x0 DUP3 RETURNDATACOPY PUSH1 0x1F RETURNDATASIZE SWAP1 DUP2 ADD PUSH1 0x1F NOT AND DUP3 ADD PUSH1 0x40 MSTORE PUSH2 0x85A SWAP2 SWAP1 DUP2 ADD SWAP1 PUSH2 0x2FE0 JUMP JUMPDEST SWAP1 POP PUSH2 0x865 DUP2 PUSH2 0x18E4 JUMP JUMPDEST SWAP2 POP POP SWAP1 JUMP JUMPDEST PUSH1 0x0 PUSH2 0x875 PUSH2 0x1ABC JUMP JUMPDEST PUSH1 0x2 SLOAD SWAP1 SWAP2 POP DUP1 ISZERO DUP1 ISZERO SWAP1 PUSH2 0x88B JUMPI POP PUSH1 0x4 SLOAD DUP3 GT JUMPDEST ISZERO PUSH2 0x8F0 JUMPI PUSH1 0x0 PUSH1 0x4 SLOAD DUP4 PUSH2 0x8A0 SWAP2 SWAP1 PUSH2 0x315A JUMP JUMPDEST SWAP1 POP PUSH1 0x0 DUP2 PUSH1 0x9 SLOAD PUSH2 0x8B2 SWAP2 SWAP1 PUSH2 0x316D JUMP JUMPDEST SWAP1 POP PUSH2 0x8BE DUP2 DUP5 PUSH2 0x17D3 JUMP JUMPDEST PUSH1 0x3 PUSH1 0x0 DUP3 DUP3 SLOAD PUSH2 0x8CF SWAP2 SWAP1 PUSH2 0x2E7A JUMP JUMPDEST SWAP3 POP POP DUP2 SWAP1 SSTORE POP DUP1 PUSH1 0x5 PUSH1 0x0 DUP3 DUP3 SLOAD PUSH2 0x8E8 SWAP2 SWAP1 PUSH2 0x2E7A JUMP JUMPDEST SWAP1 SWAP2 SSTORE POP POP POP POP JUMPDEST POP PUSH1 0x4 SSTORE JUMP JUMPDEST PUSH1 0x1 SLOAD PUSH1 0x40 DUP1 MLOAD DUP1 DUP3 ADD SWAP1 SWAP2 MSTORE PUSH1 0x2 DUP2 MSTORE PUSH2 0x333 PUSH1 0xF4 SHL PUSH1 0x20 DUP3 ADD MSTORE SWAP1 PUSH1 0x1 PUSH1 0x1 PUSH1 0xA0 SHL SUB AND CALLER EQ PUSH2 0x93B JUMPI PUSH1 0x40 MLOAD PUSH3 0x461BCD PUSH1 0xE5 SHL DUP2 MSTORE PUSH1 0x4 ADD PUSH2 0x5CE SWAP2 SWAP1 PUSH2 0x31A8 JUMP JUMPDEST POP PUSH1 0x0 DUP1 SLOAD PUSH1 0x1 DUP1 SLOAD PUSH1 0x1 PUSH1 0x1 PUSH1 0xA0 SHL SUB NOT DUP1 DUP5 AND PUSH1 0x1 PUSH1 0x1 PUSH1 0xA0 SHL SUB DUP1 DUP5 AND SWAP2 SWAP1 SWAP2 OR SWAP1 SWAP6 SSTORE AND SWAP1 SSTORE PUSH1 0x40 DUP1 MLOAD SWAP3 SWAP1 SWAP2 AND DUP1 DUP4 MSTORE CALLER PUSH1 0x20 DUP5 ADD MSTORE SWAP2 PUSH32 0xDE4B3F61490B74C0ED6237523974FE299126BBBF8A8A7482FD220104C59B0C84 SWAP2 ADD JUMPDEST PUSH1 0x40 MLOAD DUP1 SWAP2 SUB SWAP1 LOG1 POP JUMP JUMPDEST PUSH1 0x0 DUP2 DUP2 MSTORE PUSH1 0xF PUSH1 0x20 SWAP1 DUP2 MSTORE PUSH1 0x40 DUP1 DUP4 KECCAK256 DUP2 MLOAD PUSH1 0x80 DUP2 ADD DUP4 MSTORE DUP2 SLOAD DUP2 MSTORE PUSH1 0x1 DUP3 ADD SLOAD SWAP4 DUP2 ADD SWAP4 SWAP1 SWAP4 MSTORE PUSH1 0x2 DUP2 ADD SLOAD SWAP2 DUP4 ADD SWAP2 SWAP1 SWAP2 MSTORE PUSH1 0x3 ADD SLOAD PUSH1 0x1 PUSH1 0x1 PUSH1 0xA0 SHL SUB AND PUSH1 0x60 DUP3 ADD DUP2 SWAP1 MSTORE CALLER EQ PUSH2 0xA48 JUMPI PUSH1 0x40 MLOAD PUSH3 0x461BCD PUSH1 0xE5 SHL DUP2 MSTORE PUSH1 0x20 PUSH1 0x4 DUP3 ADD MSTORE PUSH1 0x22 PUSH1 0x24 DUP3 ADD MSTORE PUSH32 0x6D61746368696E67207769746864726177616C20646F6573206E6F7420657869 PUSH1 0x44 DUP3 ADD MSTORE PUSH2 0x1CDD PUSH1 0xF2 SHL PUSH1 0x64 DUP3 ADD MSTORE PUSH1 0x84 ADD PUSH2 0x5CE JUMP JUMPDEST TIMESTAMP DUP2 PUSH1 0x40 ADD MLOAD GT ISZERO PUSH2 0xA93 JUMPI PUSH1 0x40 MLOAD PUSH3 0x461BCD PUSH1 0xE5 SHL DUP2 MSTORE PUSH1 0x20 PUSH1 0x4 DUP3 ADD MSTORE PUSH1 0x14 PUSH1 0x24 DUP3 ADD MSTORE PUSH20 0x6E6F742079657420776974686472617761626C65 PUSH1 0x60 SHL PUSH1 0x44 DUP3 ADD MSTORE PUSH1 0x64 ADD PUSH2 0x5CE JUMP JUMPDEST PUSH1 0xD SLOAD DUP2 MLOAD LT ISZERO PUSH2 0xB55 JUMPI PUSH1 0x0 DUP4 DUP2 MSTORE PUSH1 0xF PUSH1 0x20 SWAP1 DUP2 MSTORE PUSH1 0x40 DUP1 DUP4 KECCAK256 DUP4 DUP2 SSTORE PUSH1 0x1 DUP2 ADD DUP5 SWAP1 SSTORE PUSH1 0x2 DUP2 ADD DUP5 SWAP1 SSTORE PUSH1 0x3 ADD DUP1 SLOAD PUSH1 0x1 PUSH1 0x1 PUSH1 0xA0 SHL SUB NOT AND SWAP1 SSTORE PUSH1 0x60 DUP5 ADD MLOAD PUSH1 0x1 PUSH1 0x1 PUSH1 0xA0 SHL SUB AND DUP4 MSTORE PUSH1 0x10 SWAP1 SWAP2 MSTORE SWAP1 KECCAK256 PUSH2 0xAF2 SWAP1 DUP5 PUSH2 0x1AD4 JUMP JUMPDEST POP PUSH1 0x60 DUP1 DUP3 ADD MLOAD PUSH1 0x40 DUP1 MLOAD DUP7 DUP2 MSTORE PUSH1 0x1 PUSH1 0x1 PUSH1 0xA0 SHL SUB SWAP1 SWAP3 AND PUSH1 0x20 DUP4 ADD MSTORE PUSH1 0x0 SWAP1 DUP3 ADD DUP2 SWAP1 MSTORE SWAP2 DUP2 ADD SWAP2 SWAP1 SWAP2 MSTORE PUSH32 0xCD7211CE885C480C8874FE7E69383AD2D60EC453BDB417E7F45222BF44E47266 SWAP1 PUSH1 0x80 ADD PUSH1 0x40 MLOAD DUP1 SWAP2 SUB SWAP1 LOG1 POP PUSH1 0x0 SWAP3 SWAP2 POP POP JUMP JUMPDEST DUP1 PUSH1 0x20 ADD MLOAD PUSH1 0xB PUSH1 0x0 DUP4 PUSH1 0x60 ADD MLOAD PUSH1 0x1 PUSH1 0x1 PUSH1 0xA0 SHL SUB AND PUSH1 0x1 PUSH1 0x1 PUSH1 0xA0 SHL SUB AND DUP2 MSTORE PUSH1 0x20 ADD SWAP1 DUP2 MSTORE PUSH1 0x20 ADD PUSH1 0x0 KECCAK256 PUSH1 0x1 ADD PUSH1 0x0 DUP3 DUP3 SLOAD PUSH2 0xB95 SWAP2 SWAP1 PUSH2 0x315A JUMP JUMPDEST SWAP1 SWAP2 SSTORE POP POP PUSH1 0xE SLOAD PUSH1 0x20 DUP3 ADD MLOAD PUSH2 0xBAB SWAP2 PUSH2 0x17B2 JUMP JUMPDEST PUSH1 0x60 DUP3 ADD MLOAD SWAP1 SWAP3 POP PUSH2 0xBE8 SWAP1 PUSH1 0x1 PUSH1 0x1 PUSH1 0xA0 SHL SUB PUSH32 0x0 AND SWAP1 DUP5 PUSH2 0x1AE0 JUMP JUMPDEST PUSH1 0x0 DUP4 DUP2 MSTORE PUSH1 0xF PUSH1 0x20 SWAP1 DUP2 MSTORE PUSH1 0x40 DUP1 DUP4 KECCAK256 DUP4 DUP2 SSTORE PUSH1 0x1 DUP2 ADD DUP5 SWAP1 SSTORE PUSH1 0x2 DUP2 ADD DUP5 SWAP1 SSTORE PUSH1 0x3 ADD DUP1 SLOAD PUSH1 0x1 PUSH1 0x1 PUSH1 0xA0 SHL SUB NOT AND SWAP1 SSTORE PUSH1 0x60 DUP5 ADD MLOAD PUSH1 0x1 PUSH1 0x1 PUSH1 0xA0 SHL SUB AND DUP4 MSTORE PUSH1 0x10 SWAP1 SWAP2 MSTORE SWAP1 KECCAK256 PUSH2 0xC3C SWAP1 DUP5 PUSH2 0x1AD4 JUMP JUMPDEST POP PUSH1 0x60 DUP2 ADD MLOAD PUSH1 0x20 DUP3 ADD MLOAD PUSH1 0x40 MLOAD PUSH32 0xCD7211CE885C480C8874FE7E69383AD2D60EC453BDB417E7F45222BF44E47266 SWAP3 PUSH2 0x6F6 SWAP3 DUP8 SWAP3 DUP8 SWAP1 SWAP4 DUP5 MSTORE PUSH1 0x1 PUSH1 0x1 PUSH1 0xA0 SHL SUB SWAP3 SWAP1 SWAP3 AND PUSH1 0x20 DUP5 ADD MSTORE PUSH1 0x40 DUP4 ADD MSTORE PUSH1 0x60 DUP3 ADD MSTORE PUSH1 0x80 ADD SWAP1 JUMP JUMPDEST PUSH2 0xCCD PUSH1 0x1 PUSH1 0x1 PUSH1 0xA0 SHL SUB PUSH32 0x0 AND CALLER ADDRESS DUP5 PUSH2 0x1B43 JUMP JUMPDEST PUSH1 0x0 PUSH2 0xCE4 PUSH1 0xE SLOAD DUP4 PUSH2 0x17D3 SWAP1 SWAP2 SWAP1 PUSH4 0xFFFFFFFF AND JUMP JUMPDEST SWAP1 POP PUSH2 0xCF0 DUP4 DUP3 PUSH2 0x1B81 JUMP JUMPDEST PUSH1 0x1 PUSH1 0x1 PUSH1 0xA0 SHL SUB DUP4 AND PUSH1 0x0 SWAP1 DUP2 MSTORE PUSH1 0xB PUSH1 0x20 MSTORE PUSH1 0x40 DUP2 KECCAK256 PUSH1 0x1 ADD DUP1 SLOAD DUP4 SWAP3 SWAP1 PUSH2 0xD1B SWAP1 DUP5 SWAP1 PUSH2 0x2E7A JUMP JUMPDEST SWAP1 SWAP2 SSTORE POP POP PUSH1 0x40 DUP1 MLOAD PUSH1 0x1 PUSH1 0x1 PUSH1 0xA0 SHL SUB DUP6 AND DUP2 MSTORE PUSH1 0x20 DUP2 ADD DUP4 SWAP1 MSTORE SWAP1 DUP2 ADD DUP4 SWAP1 MSTORE PUSH32 0x90890809C654F11D6E72A28FA60149770A0D11EC6C92319D6CEB2BB0A4EA1A15 SWAP1 PUSH1 0x60 ADD JUMPDEST PUSH1 0x40 MLOAD DUP1 SWAP2 SUB SWAP1 LOG1 POP POP POP JUMP JUMPDEST PUSH1 0x0 PUSH2 0xD7B CALLER PUSH2 0x10CC JUMP JUMPDEST CALLER PUSH1 0x0 SWAP1 DUP2 MSTORE PUSH1 0x7 PUSH1 0x20 MSTORE PUSH1 0x40 DUP2 KECCAK256 SLOAD SWAP1 DUP2 SWAP1 SUB PUSH2 0xD9B JUMPI PUSH1 0x0 SWAP2 POP POP SWAP1 JUMP JUMPDEST CALLER PUSH1 0x0 DUP2 DUP2 MSTORE PUSH1 0x7 PUSH1 0x20 MSTORE PUSH1 0x40 DUP1 DUP3 KECCAK256 SWAP2 SWAP1 SWAP2 SSTORE MLOAD PUSH32 0x47CEE97CB7ACD717B3C0AA1435D004CD5B3C8C57D70DBCEB4E4458BBD60E39D4 SWAP1 PUSH2 0xDDF SWAP1 DUP5 DUP2 MSTORE PUSH1 0x20 ADD SWAP1 JUMP JUMPDEST PUSH1 0x40 MLOAD DUP1 SWAP2 SUB SWAP1 LOG2 DUP1 PUSH1 0x5 PUSH1 0x0 DUP3 DUP3 SLOAD PUSH2 0xDF9 SWAP2 SWAP1 PUSH2 0x315A JUMP JUMPDEST SWAP1 SWAP2 SSTORE POP PUSH2 0x865 SWAP1 POP CALLER DUP3 PUSH2 0x1C09 JUMP JUMPDEST PUSH1 0x0 PUSH2 0x71E PUSH1 0xE SLOAD PUSH2 0xE1A DUP5 PUSH2 0x105E JUMP JUMPDEST SWAP1 PUSH2 0x17B2 JUMP JUMPDEST PUSH1 0x0 SLOAD PUSH1 0x40 DUP1 MLOAD DUP1 DUP3 ADD SWAP1 SWAP2 MSTORE PUSH1 0x2 DUP2 MSTORE PUSH2 0x333 PUSH1 0xF4 SHL PUSH1 0x20 DUP3 ADD MSTORE SWAP1 PUSH1 0x1 PUSH1 0x1 PUSH1 0xA0 SHL SUB AND CALLER EQ PUSH2 0xE65 JUMPI PUSH1 0x40 MLOAD PUSH3 0x461BCD PUSH1 0xE5 SHL DUP2 MSTORE PUSH1 0x4 ADD PUSH2 0x5CE SWAP2 SWAP1 PUSH2 0x31A8 JUMP JUMPDEST POP PUSH2 0xE71 DUP4 DUP4 DUP4 PUSH2 0x1C45 JUMP JUMPDEST POP POP POP JUMP JUMPDEST PUSH1 0x0 PUSH2 0xEAA PUSH32 0x0 PUSH1 0x1 PUSH1 0x1 PUSH1 0xA0 SHL SUB AND PUSH2 0x1CD4 JUMP JUMPDEST PUSH1 0x1 PUSH1 0x1 PUSH1 0xA0 SHL SUB AND CALLER PUSH1 0x1 PUSH1 0x1 PUSH1 0xA0 SHL SUB AND EQ PUSH2 0xEFB JUMPI PUSH1 0x40 MLOAD PUSH3 0x461BCD PUSH1 0xE5 SHL DUP2 MSTORE PUSH1 0x20 PUSH1 0x4 DUP3 ADD MSTORE PUSH1 0xE PUSH1 0x24 DUP3 ADD MSTORE PUSH14 0x1B9BDD08185D5D1A1BDC9A5E9959 PUSH1 0x92 SHL PUSH1 0x44 DUP3 ADD MSTORE PUSH1 0x64 ADD PUSH2 0x5CE JUMP JUMPDEST PUSH2 0x71E DUP3 PUSH2 0x18E4 JUMP JUMPDEST PUSH1 0x0 PUSH2 0x71E PUSH1 0xE SLOAD PUSH2 0xE1A DUP5 JUMPDEST PUSH1 0xD SLOAD PUSH1 0x1 PUSH1 0x1 PUSH1 0xA0 SHL SUB DUP3 AND PUSH1 0x0 SWAP1 DUP2 MSTORE PUSH1 0xB PUSH1 0x20 MSTORE PUSH1 0x40 DUP2 KECCAK256 SLOAD SWAP1 SWAP2 GT PUSH2 0xF52 JUMPI PUSH1 0x1 PUSH1 0x1 PUSH1 0xA0 SHL SUB DUP3 AND PUSH1 0x0 SWAP1 DUP2 MSTORE PUSH1 0x8 PUSH1 0x20 MSTORE PUSH1 0x40 SWAP1 KECCAK256 SLOAD PUSH2 0x71E JUMP JUMPDEST PUSH1 0x0 SWAP3 SWAP2 POP POP JUMP JUMPDEST PUSH1 0x0 PUSH2 0x71E PUSH1 0xE SLOAD DUP4 PUSH2 0x17B2 SWAP1 SWAP2 SWAP1 PUSH4 0xFFFFFFFF AND JUMP JUMPDEST PUSH1 0x0 DUP1 PUSH2 0xFA6 PUSH32 0x0 PUSH1 0x1 PUSH1 0x1 PUSH1 0xA0 SHL SUB AND PUSH2 0x1895 JUMP JUMPDEST PUSH1 0x1 PUSH1 0x1 PUSH1 0xA0 SHL SUB AND PUSH4 0xEF5BAC25 PUSH1 0x40 MLOAD DUP2 PUSH4 0xFFFFFFFF AND PUSH1 0xE0 SHL DUP2 MSTORE PUSH1 0x4 ADD PUSH1 0x0 PUSH1 0x40 MLOAD DUP1 DUP4 SUB DUP2 DUP7 GAS STATICCALL ISZERO DUP1 ISZERO PUSH2 0xFE3 JUMPI RETURNDATASIZE PUSH1 0x0 DUP1 RETURNDATACOPY RETURNDATASIZE PUSH1 0x0 REVERT JUMPDEST POP POP POP POP PUSH1 0x40 MLOAD RETURNDATASIZE PUSH1 0x0 DUP3 RETURNDATACOPY PUSH1 0x1F RETURNDATASIZE SWAP1 DUP2 ADD PUSH1 0x1F NOT AND DUP3 ADD PUSH1 0x40 MSTORE PUSH2 0x100B SWAP2 SWAP1 DUP2 ADD SWAP1 PUSH2 0x2FE0 JUMP JUMPDEST SWAP1 POP PUSH1 0x0 PUSH2 0x104B PUSH2 0x1044 PUSH32 0x0 PUSH1 0x1 PUSH1 0x1 PUSH1 0xA0 SHL SUB AND PUSH2 0x1D19 JUMP JUMPDEST DUP4 SWAP1 PUSH2 0x1D68 JUMP JUMPDEST SWAP1 POP PUSH2 0x1057 DUP3 DUP3 PUSH2 0x1DF6 JUMP JUMPDEST SWAP3 POP POP POP SWAP1 JUMP JUMPDEST PUSH1 0x1 PUSH1 0x1 PUSH1 0xA0 SHL SUB DUP2 AND PUSH1 0x0 SWAP1 DUP2 MSTORE PUSH1 0xB PUSH1 0x20 SWAP1 DUP2 MSTORE PUSH1 0x40 DUP1 DUP4 KECCAK256 DUP2 MLOAD DUP1 DUP4 ADD SWAP1 SWAP3 MSTORE DUP1 SLOAD DUP1 DUP4 MSTORE PUSH1 0x1 SWAP1 SWAP2 ADD SLOAD SWAP3 DUP3 ADD SWAP3 SWAP1 SWAP3 MSTORE PUSH1 0xD SLOAD SWAP1 SWAP2 LT PUSH2 0x10A7 JUMPI DUP1 PUSH1 0x20 ADD MLOAD PUSH2 0x10AA JUMP JUMPDEST PUSH1 0x0 JUMPDEST SWAP4 SWAP3 POP POP POP JUMP JUMPDEST PUSH1 0x0 PUSH1 0xA SLOAD TIMESTAMP GT ISZERO PUSH2 0x10C3 JUMPI POP PUSH1 0x0 SWAP1 JUMP JUMPDEST PUSH1 0x9 SLOAD JUMPDEST SWAP1 POP SWAP1 JUMP JUMPDEST PUSH2 0x10D4 PUSH2 0x86B JUMP JUMPDEST PUSH1 0x1 PUSH1 0x1 PUSH1 0xA0 SHL SUB DUP2 AND PUSH1 0x0 SWAP1 DUP2 MSTORE PUSH1 0xB PUSH1 0x20 SWAP1 DUP2 MSTORE PUSH1 0x40 DUP1 DUP4 KECCAK256 DUP1 SLOAD PUSH1 0x8 SWAP1 SWAP4 MSTORE SWAP1 DUP4 KECCAK256 SLOAD SWAP1 SWAP3 DUP3 DUP2 SUB PUSH2 0x1111 JUMPI POP PUSH1 0x3 SLOAD PUSH1 0xD SLOAD DUP5 SSTORE PUSH2 0x115B JUMP JUMPDEST PUSH1 0xD SLOAD DUP4 LT ISZERO PUSH2 0x1156 JUMPI POP PUSH1 0x0 DUP3 DUP2 MSTORE PUSH1 0xC PUSH1 0x20 SWAP1 DUP2 MSTORE PUSH1 0x40 DUP1 DUP4 KECCAK256 SLOAD PUSH1 0x1 DUP8 ADD DUP5 SWAP1 SSTORE PUSH1 0xD SLOAD DUP8 SSTORE PUSH1 0x1 PUSH1 0x1 PUSH1 0xA0 SHL SUB DUP9 AND DUP5 MSTORE PUSH1 0x8 SWAP1 SWAP3 MSTORE DUP3 KECCAK256 SWAP2 SWAP1 SWAP2 SSTORE PUSH2 0x115B JUMP JUMPDEST POP PUSH1 0x3 SLOAD JUMPDEST PUSH1 0x1 PUSH1 0x1 PUSH1 0xA0 SHL SUB DUP6 AND PUSH1 0x0 SWAP1 DUP2 MSTORE PUSH1 0x6 PUSH1 0x20 MSTORE PUSH1 0x40 SWAP1 KECCAK256 SLOAD PUSH2 0x1189 SWAP1 PUSH2 0x1182 SWAP1 DUP4 PUSH2 0x315A JUMP JUMPDEST DUP4 SWAP1 PUSH2 0x17B2 JUMP JUMPDEST PUSH1 0x1 PUSH1 0x1 PUSH1 0xA0 SHL SUB DUP7 AND PUSH1 0x0 SWAP1 DUP2 MSTORE PUSH1 0x7 PUSH1 0x20 MSTORE PUSH1 0x40 DUP2 KECCAK256 DUP1 SLOAD SWAP1 SWAP2 SWAP1 PUSH2 0x11B1 SWAP1 DUP5 SWAP1 PUSH2 0x2E7A JUMP JUMPDEST SWAP1 SWAP2 SSTORE POP POP PUSH1 0x1 PUSH1 0x1 PUSH1 0xA0 SHL SUB SWAP1 SWAP5 AND PUSH1 0x0 SWAP1 DUP2 MSTORE PUSH1 0x6 PUSH1 0x20 MSTORE PUSH1 0x40 SWAP1 KECCAK256 SWAP4 SWAP1 SWAP4 SSTORE POP POP POP JUMP JUMPDEST PUSH2 0x11E2 CALLER DUP3 PUSH2 0xC98 JUMP JUMPDEST POP JUMP JUMPDEST PUSH1 0x1 PUSH1 0x1 PUSH1 0xA0 SHL SUB DUP2 AND PUSH1 0x0 SWAP1 DUP2 MSTORE PUSH1 0x10 PUSH1 0x20 MSTORE PUSH1 0x40 DUP2 KECCAK256 PUSH1 0x60 SWAP2 PUSH2 0x1209 DUP3 PUSH2 0x1F94 JUMP JUMPDEST PUSH8 0xFFFFFFFFFFFFFFFF DUP2 GT ISZERO PUSH2 0x1221 JUMPI PUSH2 0x1221 PUSH2 0x29BB JUMP JUMPDEST PUSH1 0x40 MLOAD SWAP1 DUP1 DUP3 MSTORE DUP1 PUSH1 0x20 MUL PUSH1 0x20 ADD DUP3 ADD PUSH1 0x40 MSTORE DUP1 ISZERO PUSH2 0x1286 JUMPI DUP2 PUSH1 0x20 ADD JUMPDEST PUSH2 0x1273 PUSH1 0x40 MLOAD DUP1 PUSH1 0x80 ADD PUSH1 0x40 MSTORE DUP1 PUSH1 0x0 DUP2 MSTORE PUSH1 0x20 ADD PUSH1 0x0 DUP2 MSTORE PUSH1 0x20 ADD PUSH1 0x0 DUP2 MSTORE PUSH1 0x20 ADD PUSH1 0x0 PUSH1 0x1 PUSH1 0x1 PUSH1 0xA0 SHL SUB AND DUP2 MSTORE POP SWAP1 JUMP JUMPDEST DUP2 MSTORE PUSH1 0x20 ADD SWAP1 PUSH1 0x1 SWAP1 SUB SWAP1 DUP2 PUSH2 0x123F JUMPI SWAP1 POP JUMPDEST POP SWAP1 POP PUSH1 0x0 JUMPDEST PUSH2 0x1295 DUP4 PUSH2 0x1F94 JUMP JUMPDEST DUP2 LT ISZERO PUSH2 0x1325 JUMPI PUSH1 0xF PUSH1 0x0 PUSH2 0x12AA DUP6 DUP5 PUSH2 0x1F9E JUMP JUMPDEST DUP2 MSTORE PUSH1 0x20 DUP1 DUP3 ADD SWAP3 SWAP1 SWAP3 MSTORE PUSH1 0x40 SWAP1 DUP2 ADD PUSH1 0x0 KECCAK256 DUP2 MLOAD PUSH1 0x80 DUP2 ADD DUP4 MSTORE DUP2 SLOAD DUP2 MSTORE PUSH1 0x1 DUP3 ADD SLOAD SWAP4 DUP2 ADD SWAP4 SWAP1 SWAP4 MSTORE PUSH1 0x2 DUP2 ADD SLOAD SWAP2 DUP4 ADD SWAP2 SWAP1 SWAP2 MSTORE PUSH1 0x3 ADD SLOAD PUSH1 0x1 PUSH1 0x1 PUSH1 0xA0 SHL SUB AND PUSH1 0x60 DUP3 ADD MSTORE DUP3 MLOAD DUP4 SWAP1 DUP4 SWAP1 DUP2 LT PUSH2 0x1307 JUMPI PUSH2 0x1307 PUSH2 0x31DB JUMP JUMPDEST PUSH1 0x20 MUL PUSH1 0x20 ADD ADD DUP2 SWAP1 MSTORE POP DUP1 DUP1 PUSH2 0x131D SWAP1 PUSH2 0x2E61 JUMP JUMPDEST SWAP2 POP POP PUSH2 0x128C JUMP JUMPDEST POP SWAP4 SWAP3 POP POP POP JUMP JUMPDEST PUSH1 0x40 MLOAD PUSH4 0x70A08231 PUSH1 0xE0 SHL DUP2 MSTORE ADDRESS PUSH1 0x4 DUP3 ADD MSTORE PUSH1 0x0 SWAP1 PUSH32 0x0 PUSH1 0x1 PUSH1 0x1 PUSH1 0xA0 SHL SUB AND SWAP1 PUSH4 0x70A08231 SWAP1 PUSH1 0x24 ADD PUSH1 0x20 PUSH1 0x40 MLOAD DUP1 DUP4 SUB DUP2 DUP7 GAS STATICCALL ISZERO DUP1 ISZERO PUSH2 0x1394 JUMPI RETURNDATASIZE PUSH1 0x0 DUP1 RETURNDATACOPY RETURNDATASIZE PUSH1 0x0 REVERT JUMPDEST POP POP POP POP PUSH1 0x40 MLOAD RETURNDATASIZE PUSH1 0x1F NOT PUSH1 0x1F DUP3 ADD AND DUP3 ADD DUP1 PUSH1 0x40 MSTORE POP DUP2 ADD SWAP1 PUSH2 0x10C7 SWAP2 SWAP1 PUSH2 0x31F1 JUMP JUMPDEST PUSH1 0x0 SLOAD PUSH1 0x40 DUP1 MLOAD DUP1 DUP3 ADD SWAP1 SWAP2 MSTORE PUSH1 0x2 DUP2 MSTORE PUSH2 0x333 PUSH1 0xF4 SHL PUSH1 0x20 DUP3 ADD MSTORE SWAP1 PUSH1 0x1 PUSH1 0x1 PUSH1 0xA0 SHL SUB AND CALLER EQ PUSH2 0x13FD JUMPI PUSH1 0x40 MLOAD PUSH3 0x461BCD PUSH1 0xE5 SHL DUP2 MSTORE PUSH1 0x4 ADD PUSH2 0x5CE SWAP2 SWAP1 PUSH2 0x31A8 JUMP JUMPDEST POP PUSH2 0x1406 PUSH2 0x1FAA JUMP JUMPDEST JUMP JUMPDEST PUSH1 0x1 PUSH1 0x1 PUSH1 0xA0 SHL SUB DUP2 AND PUSH1 0x0 SWAP1 DUP2 MSTORE PUSH1 0xB PUSH1 0x20 MSTORE PUSH1 0x40 DUP2 KECCAK256 SLOAD DUP2 DUP2 ISZERO DUP1 ISZERO SWAP1 PUSH2 0x1432 JUMPI POP PUSH1 0xD SLOAD DUP3 LT JUMPDEST ISZERO PUSH2 0x144C JUMPI POP PUSH1 0x0 DUP2 DUP2 MSTORE PUSH1 0xC PUSH1 0x20 MSTORE PUSH1 0x40 SWAP1 KECCAK256 SLOAD PUSH2 0x1493 JUMP JUMPDEST POP PUSH1 0x3 SLOAD PUSH1 0x2 SLOAD ISZERO PUSH2 0x1493 JUMPI PUSH2 0x1486 PUSH1 0x2 SLOAD PUSH1 0x4 SLOAD PUSH2 0x1469 PUSH2 0x1ABC JUMP JUMPDEST PUSH2 0x1473 SWAP2 SWAP1 PUSH2 0x315A JUMP JUMPDEST PUSH1 0x9 SLOAD PUSH2 0x1480 SWAP2 SWAP1 PUSH2 0x316D JUMP JUMPDEST SWAP1 PUSH2 0x17D3 JUMP JUMPDEST PUSH2 0x1490 SWAP1 DUP3 PUSH2 0x2E7A JUMP JUMPDEST SWAP1 POP JUMPDEST PUSH1 0x1 PUSH1 0x1 PUSH1 0xA0 SHL SUB DUP5 AND PUSH1 0x0 SWAP1 DUP2 MSTORE PUSH1 0x6 PUSH1 0x20 MSTORE PUSH1 0x40 SWAP1 KECCAK256 SLOAD PUSH2 0x14D9 SWAP1 PUSH2 0x14BA SWAP1 DUP4 PUSH2 0x315A JUMP JUMPDEST PUSH1 0x1 PUSH1 0x1 PUSH1 0xA0 SHL SUB DUP7 AND PUSH1 0x0 SWAP1 DUP2 MSTORE PUSH1 0x8 PUSH1 0x20 MSTORE PUSH1 0x40 SWAP1 KECCAK256 SLOAD SWAP1 PUSH2 0x17B2 JUMP JUMPDEST PUSH1 0x1 PUSH1 0x1 PUSH1 0xA0 SHL SUB DUP6 AND PUSH1 0x0 SWAP1 DUP2 MSTORE PUSH1 0x7 PUSH1 0x20 MSTORE PUSH1 0x40 SWAP1 KECCAK256 SLOAD PUSH2 0x14FC SWAP2 SWAP1 PUSH2 0x2E7A JUMP JUMPDEST SWAP5 SWAP4 POP POP POP POP JUMP JUMPDEST PUSH1 0x0 SLOAD PUSH1 0x40 DUP1 MLOAD DUP1 DUP3 ADD SWAP1 SWAP2 MSTORE PUSH1 0x2 DUP2 MSTORE PUSH2 0x333 PUSH1 0xF4 SHL PUSH1 0x20 DUP3 ADD MSTORE SWAP1 PUSH1 0x1 PUSH1 0x1 PUSH1 0xA0 SHL SUB AND CALLER EQ PUSH2 0x1549 JUMPI PUSH1 0x40 MLOAD PUSH3 0x461BCD PUSH1 0xE5 SHL DUP2 MSTORE PUSH1 0x4 ADD PUSH2 0x5CE SWAP2 SWAP1 PUSH2 0x31A8 JUMP JUMPDEST POP PUSH1 0x40 DUP1 MLOAD DUP1 DUP3 ADD SWAP1 SWAP2 MSTORE PUSH1 0x2 DUP2 MSTORE PUSH2 0x3331 PUSH1 0xF0 SHL PUSH1 0x20 DUP3 ADD MSTORE PUSH1 0x1 PUSH1 0x1 PUSH1 0xA0 SHL SUB DUP3 AND PUSH2 0x158A JUMPI PUSH1 0x40 MLOAD PUSH3 0x461BCD PUSH1 0xE5 SHL DUP2 MSTORE PUSH1 0x4 ADD PUSH2 0x5CE SWAP2 SWAP1 PUSH2 0x31A8 JUMP JUMPDEST POP PUSH1 0x1 DUP1 SLOAD PUSH1 0x1 PUSH1 0x1 PUSH1 0xA0 SHL SUB NOT AND PUSH1 0x1 PUSH1 0x1 PUSH1 0xA0 SHL SUB DUP4 AND SWAP1 DUP2 OR SWAP1 SWAP2 SSTORE PUSH1 0x40 MLOAD SWAP1 DUP2 MSTORE PUSH32 0x67235BA2E63C748A35B95C4F92A3BBC2A1389938170A5CE6C9ADD5D0B03A314A SWAP1 PUSH1 0x20 ADD PUSH2 0x99B JUMP JUMPDEST PUSH1 0x0 SLOAD PUSH1 0x40 DUP1 MLOAD DUP1 DUP3 ADD SWAP1 SWAP2 MSTORE PUSH1 0x2 DUP2 MSTORE PUSH2 0x333 PUSH1 0xF4 SHL PUSH1 0x20 DUP3 ADD MSTORE SWAP1 PUSH1 0x1 PUSH1 0x1 PUSH1 0xA0 SHL SUB AND CALLER EQ PUSH2 0x161E JUMPI PUSH1 0x40 MLOAD PUSH3 0x461BCD PUSH1 0xE5 SHL DUP2 MSTORE PUSH1 0x4 ADD PUSH2 0x5CE SWAP2 SWAP1 PUSH2 0x31A8 JUMP JUMPDEST POP PUSH32 0x0 DUP2 GT ISZERO PUSH2 0x168F JUMPI PUSH1 0x40 MLOAD PUSH3 0x461BCD PUSH1 0xE5 SHL DUP2 MSTORE PUSH1 0x20 PUSH1 0x4 DUP3 ADD DUP2 SWAP1 MSTORE PUSH1 0x24 DUP3 ADD MSTORE PUSH32 0x696E76616C6964207769746864726177616C2077616974206475726174696F6E PUSH1 0x44 DUP3 ADD MSTORE PUSH1 0x64 ADD PUSH2 0x5CE JUMP JUMPDEST PUSH1 0x12 SSTORE JUMP JUMPDEST PUSH1 0x40 MLOAD PUSH4 0x21F8A721 PUSH1 0xE0 SHL DUP2 MSTORE PUSH17 0x4759445F544F4B454E5F41444452455353 PUSH1 0x78 SHL PUSH1 0x4 DUP3 ADD MSTORE PUSH1 0x0 SWAP1 PUSH1 0x1 PUSH1 0x1 PUSH1 0xA0 SHL SUB DUP4 AND SWAP1 PUSH4 0x21F8A721 SWAP1 PUSH1 0x24 ADD JUMPDEST PUSH1 0x20 PUSH1 0x40 MLOAD DUP1 DUP4 SUB DUP2 DUP7 GAS STATICCALL ISZERO DUP1 ISZERO PUSH2 0x16F0 JUMPI RETURNDATASIZE PUSH1 0x0 DUP1 RETURNDATACOPY RETURNDATASIZE PUSH1 0x0 REVERT JUMPDEST POP POP POP POP PUSH1 0x40 MLOAD RETURNDATASIZE PUSH1 0x1F NOT PUSH1 0x1F DUP3 ADD AND DUP3 ADD DUP1 PUSH1 0x40 MSTORE POP DUP2 ADD SWAP1 PUSH2 0x71E SWAP2 SWAP1 PUSH2 0x320A JUMP JUMPDEST PUSH2 0x171D DUP3 PUSH2 0x10CC JUMP JUMPDEST PUSH1 0x1 PUSH1 0x1 PUSH1 0xA0 SHL SUB DUP3 AND PUSH1 0x0 SWAP1 DUP2 MSTORE PUSH1 0x8 PUSH1 0x20 MSTORE PUSH1 0x40 DUP2 KECCAK256 DUP1 SLOAD DUP4 SWAP3 SWAP1 PUSH2 0x1745 SWAP1 DUP5 SWAP1 PUSH2 0x315A JUMP JUMPDEST SWAP3 POP POP DUP2 SWAP1 SSTORE POP DUP1 PUSH1 0x2 PUSH1 0x0 DUP3 DUP3 SLOAD PUSH2 0x175E SWAP2 SWAP1 PUSH2 0x315A JUMP JUMPDEST SWAP1 SWAP2 SSTORE POP POP PUSH1 0x40 MLOAD DUP2 DUP2 MSTORE PUSH1 0x1 PUSH1 0x1 PUSH1 0xA0 SHL SUB DUP4 AND SWAP1 PUSH32 0x85082129D87B2FE11527CB1B3B7A520AEB5AA6913F88A3D8757FE40D1DB02FDD SWAP1 PUSH1 0x20 ADD JUMPDEST PUSH1 0x40 MLOAD DUP1 SWAP2 SUB SWAP1 LOG2 POP POP JUMP JUMPDEST PUSH1 0x0 PUSH2 0x10AA DUP4 DUP4 PUSH2 0x20D7 JUMP JUMPDEST PUSH1 0x0 DUP1 PUSH2 0x17BF DUP4 DUP6 PUSH2 0x316D JUMP JUMPDEST SWAP1 POP PUSH2 0x14FC PUSH8 0xDE0B6B3A7640000 DUP3 PUSH2 0x3227 JUMP JUMPDEST PUSH1 0x40 DUP1 MLOAD DUP1 DUP3 ADD SWAP1 SWAP2 MSTORE PUSH1 0x2 DUP2 MSTORE PUSH2 0x3235 PUSH1 0xF0 SHL PUSH1 0x20 DUP3 ADD MSTORE PUSH1 0x0 SWAP1 DUP3 PUSH2 0x180D JUMPI PUSH1 0x40 MLOAD PUSH3 0x461BCD PUSH1 0xE5 SHL DUP2 MSTORE PUSH1 0x4 ADD PUSH2 0x5CE SWAP2 SWAP1 PUSH2 0x31A8 JUMP JUMPDEST POP DUP3 PUSH1 0x0 SUB PUSH2 0x181E JUMPI POP PUSH1 0x0 PUSH2 0x71E JUMP JUMPDEST PUSH1 0x0 PUSH2 0x1832 PUSH8 0xDE0B6B3A7640000 DUP6 PUSH2 0x316D JUMP JUMPDEST SWAP1 POP PUSH2 0x183E DUP4 DUP3 PUSH2 0x3227 JUMP JUMPDEST SWAP2 POP POP PUSH2 0x71E JUMP JUMPDEST PUSH1 0x40 MLOAD PUSH4 0x21F8A721 PUSH1 0xE0 SHL DUP2 MSTORE PUSH32 0x53544557415244534849505F494E435F41444452455353000000000000000000 PUSH1 0x4 DUP3 ADD MSTORE PUSH1 0x0 SWAP1 PUSH1 0x1 PUSH1 0x1 PUSH1 0xA0 SHL SUB DUP4 AND SWAP1 PUSH4 0x21F8A721 SWAP1 PUSH1 0x24 ADD PUSH2 0x16D3 JUMP JUMPDEST PUSH1 0x40 MLOAD PUSH4 0x21F8A721 PUSH1 0xE0 SHL DUP2 MSTORE PUSH32 0x524553455256455F4D414E414745525F41444452455353000000000000000000 PUSH1 0x4 DUP3 ADD MSTORE PUSH1 0x0 SWAP1 PUSH1 0x1 PUSH1 0x1 PUSH1 0xA0 SHL SUB DUP4 AND SWAP1 PUSH4 0x21F8A721 SWAP1 PUSH1 0x24 ADD PUSH2 0x16D3 JUMP JUMPDEST PUSH1 0x0 DUP1 PUSH2 0x1923 PUSH2 0x191C PUSH32 0x0 PUSH1 0x1 PUSH1 0x1 PUSH1 0xA0 SHL SUB AND PUSH2 0x1D19 JUMP JUMPDEST DUP5 SWAP1 PUSH2 0x1D68 JUMP JUMPDEST SWAP1 POP PUSH2 0x192F DUP4 DUP3 PUSH2 0x1DF6 JUMP JUMPDEST PUSH2 0x193C JUMPI POP PUSH1 0x0 SWAP3 SWAP2 POP POP JUMP JUMPDEST PUSH1 0x40 MLOAD PUSH4 0xBD02D0F5 PUSH1 0xE0 SHL DUP2 MSTORE PUSH22 0x23ACA22FA922A1A7AB22A92CAFAA20A923A2AA2FA1A9 PUSH1 0x51 SHL PUSH1 0x4 DUP3 ADD MSTORE PUSH1 0x0 SWAP1 PUSH32 0x0 PUSH1 0x1 PUSH1 0x1 PUSH1 0xA0 SHL SUB AND SWAP1 PUSH4 0xBD02D0F5 SWAP1 PUSH1 0x24 ADD PUSH1 0x20 PUSH1 0x40 MLOAD DUP1 DUP4 SUB DUP2 DUP7 GAS STATICCALL ISZERO DUP1 ISZERO PUSH2 0x19BC JUMPI RETURNDATASIZE PUSH1 0x0 DUP1 RETURNDATACOPY RETURNDATASIZE PUSH1 0x0 REVERT JUMPDEST POP POP POP POP PUSH1 0x40 MLOAD RETURNDATASIZE PUSH1 0x1F NOT PUSH1 0x1F DUP3 ADD AND DUP3 ADD DUP1 PUSH1 0x40 MSTORE POP DUP2 ADD SWAP1 PUSH2 0x19E0 SWAP2 SWAP1 PUSH2 0x31F1 JUMP JUMPDEST SWAP1 POP PUSH1 0x0 PUSH2 0x19EE DUP4 DUP4 PUSH2 0x17D3 JUMP JUMPDEST SWAP1 POP PUSH1 0x0 PUSH2 0x1A24 PUSH32 0x0 PUSH1 0x1 PUSH1 0x1 PUSH1 0xA0 SHL SUB AND PUSH2 0x1CD4 JUMP JUMPDEST PUSH1 0x1 PUSH1 0x1 PUSH1 0xA0 SHL SUB AND PUSH4 0xC1BD8CF9 PUSH1 0x40 MLOAD DUP2 PUSH4 0xFFFFFFFF AND PUSH1 0xE0 SHL DUP2 MSTORE PUSH1 0x4 ADD PUSH1 0x20 PUSH1 0x40 MLOAD DUP1 DUP4 SUB DUP2 DUP7 GAS STATICCALL ISZERO DUP1 ISZERO PUSH2 0x1A61 JUMPI RETURNDATASIZE PUSH1 0x0 DUP1 RETURNDATACOPY RETURNDATASIZE PUSH1 0x0 REVERT JUMPDEST POP POP POP POP PUSH1 0x40 MLOAD RETURNDATASIZE PUSH1 0x1F NOT PUSH1 0x1F DUP3 ADD AND DUP3 ADD DUP1 PUSH1 0x40 MSTORE POP DUP2 ADD SWAP1 PUSH2 0x1A85 SWAP2 SWAP1 PUSH2 0x31F1 JUMP JUMPDEST SWAP1 POP DUP1 DUP3 LT PUSH2 0x1A9A JUMPI POP PUSH1 0x0 SWAP6 SWAP5 POP POP POP POP POP JUMP JUMPDEST PUSH1 0x0 PUSH2 0x1AA6 DUP4 DUP4 PUSH2 0x315A JUMP JUMPDEST SWAP1 POP PUSH2 0x1AB1 DUP2 PUSH2 0x2126 JUMP JUMPDEST SWAP8 SWAP7 POP POP POP POP POP POP POP JUMP JUMPDEST PUSH1 0x0 PUSH1 0xA SLOAD TIMESTAMP GT ISZERO PUSH2 0x1ACF JUMPI POP PUSH1 0xA SLOAD SWAP1 JUMP JUMPDEST POP TIMESTAMP SWAP1 JUMP JUMPDEST PUSH1 0x0 PUSH2 0x10AA DUP4 DUP4 PUSH2 0x22AA JUMP JUMPDEST PUSH1 0x40 MLOAD PUSH1 0x1 PUSH1 0x1 PUSH1 0xA0 SHL SUB DUP4 AND PUSH1 0x24 DUP3 ADD MSTORE PUSH1 0x44 DUP2 ADD DUP3 SWAP1 MSTORE PUSH2 0xE71 SWAP1 DUP5 SWAP1 PUSH4 0xA9059CBB PUSH1 0xE0 SHL SWAP1 PUSH1 0x64 ADD JUMPDEST PUSH1 0x40 DUP1 MLOAD PUSH1 0x1F NOT DUP2 DUP5 SUB ADD DUP2 MSTORE SWAP2 SWAP1 MSTORE PUSH1 0x20 DUP2 ADD DUP1 MLOAD PUSH1 0x1 PUSH1 0x1 PUSH1 0xE0 SHL SUB AND PUSH1 0x1 PUSH1 0x1 PUSH1 0xE0 SHL SUB NOT SWAP1 SWAP4 AND SWAP3 SWAP1 SWAP3 OR SWAP1 SWAP2 MSTORE PUSH2 0x239D JUMP JUMPDEST PUSH1 0x40 MLOAD PUSH1 0x1 PUSH1 0x1 PUSH1 0xA0 SHL SUB DUP1 DUP6 AND PUSH1 0x24 DUP4 ADD MSTORE DUP4 AND PUSH1 0x44 DUP3 ADD MSTORE PUSH1 0x64 DUP2 ADD DUP3 SWAP1 MSTORE PUSH2 0x1B7B SWAP1 DUP6 SWAP1 PUSH4 0x23B872DD PUSH1 0xE0 SHL SWAP1 PUSH1 0x84 ADD PUSH2 0x1B0C JUMP JUMPDEST POP POP POP POP JUMP JUMPDEST PUSH2 0x1B8A DUP3 PUSH2 0x10CC JUMP JUMPDEST DUP1 PUSH1 0x2 PUSH1 0x0 DUP3 DUP3 SLOAD PUSH2 0x1B9C SWAP2 SWAP1 PUSH2 0x2E7A JUMP JUMPDEST SWAP1 SWAP2 SSTORE POP POP PUSH1 0x1 PUSH1 0x1 PUSH1 0xA0 SHL SUB DUP3 AND PUSH1 0x0 SWAP1 DUP2 MSTORE PUSH1 0x8 PUSH1 0x20 MSTORE PUSH1 0x40 DUP2 KECCAK256 DUP1 SLOAD DUP4 SWAP3 SWAP1 PUSH2 0x1BC9 SWAP1 DUP5 SWAP1 PUSH2 0x2E7A JUMP JUMPDEST SWAP1 SWAP2 SSTORE POP POP PUSH1 0x40 MLOAD DUP2 DUP2 MSTORE PUSH1 0x1 PUSH1 0x1 PUSH1 0xA0 SHL SUB DUP4 AND SWAP1 PUSH32 0xEBEDB8B3C678666E7F36970BC8F57ABF6D8FA2E828C0DA91EA5B75BF68ED101A SWAP1 PUSH1 0x20 ADD PUSH2 0x179A JUMP JUMPDEST PUSH1 0x0 PUSH2 0x1C3F PUSH1 0x1 PUSH1 0x1 PUSH1 0xA0 SHL SUB PUSH32 0x0 AND DUP5 DUP5 PUSH2 0x1AE0 JUMP JUMPDEST POP SWAP2 SWAP1 POP JUMP JUMPDEST PUSH2 0x1C4D PUSH2 0x86B JUMP JUMPDEST PUSH2 0x1C82 PUSH1 0x1 PUSH1 0x1 PUSH1 0xA0 SHL SUB PUSH32 0x0 AND DUP5 ADDRESS DUP6 PUSH2 0x1B43 JUMP JUMPDEST PUSH2 0x1C8C TIMESTAMP DUP3 PUSH2 0x315A JUMP JUMPDEST PUSH2 0x1C96 SWAP1 DUP4 PUSH2 0x3227 JUMP JUMPDEST PUSH1 0x9 SSTORE PUSH1 0xA DUP2 SWAP1 SSTORE PUSH1 0x40 DUP1 MLOAD DUP4 DUP2 MSTORE PUSH1 0x20 DUP2 ADD DUP4 SWAP1 MSTORE PUSH32 0x76554FAC4477E8876B3DE3AF392CF374CF4E9DE02AE78FBADE2373107381FE50 SWAP2 ADD PUSH2 0xD63 JUMP JUMPDEST PUSH1 0x40 MLOAD PUSH4 0x21F8A721 PUSH1 0xE0 SHL DUP2 MSTORE PUSH19 0x4D4F54484552424F4152445F41444452455353 PUSH1 0x68 SHL PUSH1 0x4 DUP3 ADD MSTORE PUSH1 0x0 SWAP1 PUSH1 0x1 PUSH1 0x1 PUSH1 0xA0 SHL SUB DUP4 AND SWAP1 PUSH4 0x21F8A721 SWAP1 PUSH1 0x24 ADD PUSH2 0x16D3 JUMP JUMPDEST PUSH1 0x40 MLOAD PUSH4 0x21F8A721 PUSH1 0xE0 SHL DUP2 MSTORE PUSH32 0x524F4F545F50524943455F4F5241434C455F4144445245535300000000000000 PUSH1 0x4 DUP3 ADD MSTORE PUSH1 0x0 SWAP1 PUSH1 0x1 PUSH1 0x1 PUSH1 0xA0 SHL SUB DUP4 AND SWAP1 PUSH4 0x21F8A721 SWAP1 PUSH1 0x24 ADD PUSH2 0x16D3 JUMP JUMPDEST PUSH1 0x0 DUP1 PUSH1 0x0 JUMPDEST DUP5 PUSH1 0x20 ADD MLOAD MLOAD DUP2 LT ISZERO PUSH2 0x1325 JUMPI PUSH1 0x0 DUP6 PUSH1 0x20 ADD MLOAD DUP3 DUP2 MLOAD DUP2 LT PUSH2 0x1D93 JUMPI PUSH2 0x1D93 PUSH2 0x31DB JUMP JUMPDEST PUSH1 0x20 MUL PUSH1 0x20 ADD ADD MLOAD SWAP1 POP PUSH1 0x0 PUSH2 0x1DA9 DUP3 DUP8 PUSH2 0x246F JUMP JUMPDEST SWAP1 POP PUSH1 0x0 PUSH2 0x1DC8 DUP4 PUSH1 0x20 ADD MLOAD DUP5 PUSH1 0xA0 ADD MLOAD PUSH2 0x24F4 SWAP1 SWAP2 SWAP1 PUSH4 0xFFFFFFFF AND JUMP JUMPDEST SWAP1 POP PUSH2 0x1DD4 DUP2 DUP4 PUSH2 0x17B2 JUMP JUMPDEST PUSH2 0x1DDE SWAP1 DUP7 PUSH2 0x2E7A JUMP JUMPDEST SWAP5 POP POP POP POP DUP1 DUP1 PUSH2 0x1DEE SWAP1 PUSH2 0x2E61 JUMP JUMPDEST SWAP2 POP POP PUSH2 0x1D6E JUMP JUMPDEST PUSH1 0x0 PUSH2 0x1E00 PUSH2 0x132D JUMP JUMPDEST PUSH1 0x0 SUB PUSH2 0x1E0F JUMPI POP PUSH1 0x0 PUSH2 0x71E JUMP JUMPDEST PUSH1 0x0 PUSH2 0x1EAE PUSH2 0x1E46 PUSH32 0x0 PUSH1 0x1 PUSH1 0x1 PUSH1 0xA0 SHL SUB AND PUSH2 0x1CD4 JUMP JUMPDEST PUSH1 0x1 PUSH1 0x1 PUSH1 0xA0 SHL SUB AND PUSH4 0xC1BD8CF9 PUSH1 0x40 MLOAD DUP2 PUSH4 0xFFFFFFFF AND PUSH1 0xE0 SHL DUP2 MSTORE PUSH1 0x4 ADD PUSH1 0x20 PUSH1 0x40 MLOAD DUP1 DUP4 SUB DUP2 DUP7 GAS STATICCALL ISZERO DUP1 ISZERO PUSH2 0x1E83 JUMPI RETURNDATASIZE PUSH1 0x0 DUP1 RETURNDATACOPY RETURNDATASIZE PUSH1 0x0 REVERT JUMPDEST POP POP POP POP PUSH1 0x40 MLOAD RETURNDATASIZE PUSH1 0x1F NOT PUSH1 0x1F DUP3 ADD AND DUP3 ADD DUP1 PUSH1 0x40 MSTORE POP DUP2 ADD SWAP1 PUSH2 0x1EA7 SWAP2 SWAP1 PUSH2 0x31F1 JUMP JUMPDEST DUP5 SWAP1 PUSH2 0x17D3 JUMP JUMPDEST PUSH1 0x40 MLOAD PUSH4 0xBD02D0F5 PUSH1 0xE0 SHL DUP2 MSTORE PUSH32 0x4759445F5245434F564552595F545249474745525F4352000000000000000000 PUSH1 0x4 DUP3 ADD MSTORE SWAP1 SWAP2 POP PUSH1 0x0 SWAP1 PUSH1 0x1 PUSH1 0x1 PUSH1 0xA0 SHL SUB PUSH32 0x0 AND SWAP1 PUSH4 0xBD02D0F5 SWAP1 PUSH1 0x24 ADD PUSH1 0x20 PUSH1 0x40 MLOAD DUP1 DUP4 SUB DUP2 DUP7 GAS STATICCALL ISZERO DUP1 ISZERO PUSH2 0x1F38 JUMPI RETURNDATASIZE PUSH1 0x0 DUP1 RETURNDATACOPY RETURNDATASIZE PUSH1 0x0 REVERT JUMPDEST POP POP POP POP PUSH1 0x40 MLOAD RETURNDATASIZE PUSH1 0x1F NOT PUSH1 0x1F DUP3 ADD AND DUP3 ADD DUP1 PUSH1 0x40 MSTORE POP DUP2 ADD SWAP1 PUSH2 0x1F5C SWAP2 SWAP1 PUSH2 0x31F1 JUMP JUMPDEST SWAP1 POP PUSH32 0x0 DUP1 DUP3 GT ISZERO PUSH2 0x1F8B JUMPI DUP1 SWAP2 POP JUMPDEST POP GT SWAP4 SWAP3 POP POP POP JUMP JUMPDEST PUSH1 0x0 PUSH2 0x71E DUP3 SLOAD SWAP1 JUMP JUMPDEST PUSH1 0x0 PUSH2 0x10AA DUP4 DUP4 PUSH2 0x255C JUMP JUMPDEST PUSH2 0x1FB2 PUSH2 0x86B JUMP JUMPDEST PUSH1 0x5 SLOAD PUSH1 0x40 MLOAD PUSH4 0x70A08231 PUSH1 0xE0 SHL DUP2 MSTORE ADDRESS PUSH1 0x4 DUP3 ADD MSTORE PUSH1 0x0 SWAP2 SWAP1 PUSH1 0x1 PUSH1 0x1 PUSH1 0xA0 SHL SUB PUSH32 0x0 AND SWAP1 PUSH4 0x70A08231 SWAP1 PUSH1 0x24 ADD PUSH1 0x20 PUSH1 0x40 MLOAD DUP1 DUP4 SUB DUP2 DUP7 GAS STATICCALL ISZERO DUP1 ISZERO PUSH2 0x201D JUMPI RETURNDATASIZE PUSH1 0x0 DUP1 RETURNDATACOPY RETURNDATASIZE PUSH1 0x0 REVERT JUMPDEST POP POP POP POP PUSH1 0x40 MLOAD RETURNDATASIZE PUSH1 0x1F NOT PUSH1 0x1F DUP3 ADD AND DUP3 ADD DUP1 PUSH1 0x40 MSTORE POP DUP2 ADD SWAP1 PUSH2 0x2041 SWAP2 SWAP1 PUSH2 0x31F1 JUMP JUMPDEST PUSH2 0x204B SWAP2 SWAP1 PUSH2 0x315A JUMP JUMPDEST SWAP1 POP PUSH2 0x20A1 PUSH1 0x1 PUSH1 0x1 PUSH1 0xA0 SHL SUB PUSH32 0x0 AND PUSH32 0x0 DUP4 PUSH2 0x1AE0 JUMP JUMPDEST PUSH1 0x0 PUSH1 0xA DUP2 SWAP1 SSTORE PUSH1 0x9 DUP2 SWAP1 SSTORE PUSH1 0x40 MLOAD PUSH32 0xE5A0E15E63EDB96A15ED99A9C2A3674E2E0BD1B10B65D0223CCE19A6B54E7FB1 SWAP2 SWAP1 LOG1 POP JUMP JUMPDEST PUSH1 0x0 DUP2 DUP2 MSTORE PUSH1 0x1 DUP4 ADD PUSH1 0x20 MSTORE PUSH1 0x40 DUP2 KECCAK256 SLOAD PUSH2 0x211E JUMPI POP DUP2 SLOAD PUSH1 0x1 DUP2 DUP2 ADD DUP5 SSTORE PUSH1 0x0 DUP5 DUP2 MSTORE PUSH1 0x20 DUP1 DUP3 KECCAK256 SWAP1 SWAP4 ADD DUP5 SWAP1 SSTORE DUP5 SLOAD DUP5 DUP3 MSTORE DUP3 DUP7 ADD SWAP1 SWAP4 MSTORE PUSH1 0x40 SWAP1 KECCAK256 SWAP2 SWAP1 SWAP2 SSTORE PUSH2 0x71E JUMP JUMPDEST POP PUSH1 0x0 PUSH2 0x71E JUMP JUMPDEST PUSH1 0x0 PUSH2 0x2130 PUSH2 0x86B JUMP JUMPDEST PUSH1 0x0 PUSH2 0x213A PUSH2 0x132D JUMP JUMPDEST SWAP1 POP PUSH1 0x0 PUSH2 0x215A PUSH2 0x1182 PUSH7 0x2386F26FC10000 PUSH8 0xDE0B6B3A7640000 PUSH2 0x315A JUMP JUMPDEST DUP5 LT DUP1 ISZERO SWAP2 POP PUSH2 0x21AC JUMPI DUP2 SWAP4 POP PUSH1 0x3 SLOAD PUSH1 0xC PUSH1 0x0 PUSH1 0xD SLOAD DUP2 MSTORE PUSH1 0x20 ADD SWAP1 DUP2 MSTORE PUSH1 0x20 ADD PUSH1 0x0 KECCAK256 DUP2 SWAP1 SSTORE POP PUSH1 0xD PUSH1 0x0 DUP2 SLOAD PUSH2 0x2192 SWAP1 PUSH2 0x2E61 JUMP JUMPDEST SWAP1 SWAP2 SSTORE POP PUSH8 0xDE0B6B3A7640000 PUSH1 0xE SSTORE PUSH1 0x0 PUSH1 0x2 SSTORE PUSH2 0x21E1 JUMP JUMPDEST PUSH1 0x0 PUSH2 0x21C8 DUP4 PUSH2 0x1480 PUSH2 0x21BF DUP9 DUP4 PUSH2 0x315A JUMP JUMPDEST PUSH1 0xE SLOAD SWAP1 PUSH2 0x17B2 JUMP JUMPDEST SWAP1 POP DUP1 PUSH1 0x0 SUB PUSH2 0x21DD JUMPI POP PUSH1 0x0 SWAP5 SWAP4 POP POP POP POP JUMP JUMPDEST PUSH1 0xE SSTORE JUMPDEST PUSH1 0x40 MLOAD PUSH4 0x852CD8D PUSH1 0xE3 SHL DUP2 MSTORE PUSH1 0x4 DUP2 ADD DUP6 SWAP1 MSTORE PUSH32 0x0 PUSH1 0x1 PUSH1 0x1 PUSH1 0xA0 SHL SUB AND SWAP1 PUSH4 0x42966C68 SWAP1 PUSH1 0x24 ADD PUSH1 0x0 PUSH1 0x40 MLOAD DUP1 DUP4 SUB DUP2 PUSH1 0x0 DUP8 DUP1 EXTCODESIZE ISZERO DUP1 ISZERO PUSH2 0x2243 JUMPI PUSH1 0x0 DUP1 REVERT JUMPDEST POP GAS CALL ISZERO DUP1 ISZERO PUSH2 0x2257 JUMPI RETURNDATASIZE PUSH1 0x0 DUP1 RETURNDATACOPY RETURNDATASIZE PUSH1 0x0 REVERT JUMPDEST POP POP PUSH1 0xE SLOAD PUSH1 0x40 DUP1 MLOAD DUP9 DUP2 MSTORE DUP6 ISZERO ISZERO PUSH1 0x20 DUP3 ADD MSTORE DUP1 DUP3 ADD SWAP3 SWAP1 SWAP3 MSTORE MLOAD PUSH32 0x37ED7585C7F773823577DE180502D8778ADEF528B0D258E481B6E2DDD28B725C SWAP4 POP SWAP1 DUP2 SWAP1 SUB PUSH1 0x60 ADD SWAP2 POP LOG1 POP PUSH1 0x1 SWAP4 SWAP3 POP POP POP JUMP JUMPDEST PUSH1 0x0 DUP2 DUP2 MSTORE PUSH1 0x1 DUP4 ADD PUSH1 0x20 MSTORE PUSH1 0x40 DUP2 KECCAK256 SLOAD DUP1 ISZERO PUSH2 0x2393 JUMPI PUSH1 0x0 PUSH2 0x22CE PUSH1 0x1 DUP4 PUSH2 0x315A JUMP JUMPDEST DUP6 SLOAD SWAP1 SWAP2 POP PUSH1 0x0 SWAP1 PUSH2 0x22E2 SWAP1 PUSH1 0x1 SWAP1 PUSH2 0x315A JUMP JUMPDEST SWAP1 POP DUP2 DUP2 EQ PUSH2 0x2347 JUMPI PUSH1 0x0 DUP7 PUSH1 0x0 ADD DUP3 DUP2 SLOAD DUP2 LT PUSH2 0x2302 JUMPI PUSH2 0x2302 PUSH2 0x31DB JUMP JUMPDEST SWAP1 PUSH1 0x0 MSTORE PUSH1 0x20 PUSH1 0x0 KECCAK256 ADD SLOAD SWAP1 POP DUP1 DUP8 PUSH1 0x0 ADD DUP5 DUP2 SLOAD DUP2 LT PUSH2 0x2325 JUMPI PUSH2 0x2325 PUSH2 0x31DB JUMP JUMPDEST PUSH1 0x0 SWAP2 DUP3 MSTORE PUSH1 0x20 DUP1 DUP4 KECCAK256 SWAP1 SWAP2 ADD SWAP3 SWAP1 SWAP3 SSTORE SWAP2 DUP3 MSTORE PUSH1 0x1 DUP9 ADD SWAP1 MSTORE PUSH1 0x40 SWAP1 KECCAK256 DUP4 SWAP1 SSTORE JUMPDEST DUP6 SLOAD DUP7 SWAP1 DUP1 PUSH2 0x2358 JUMPI PUSH2 0x2358 PUSH2 0x3249 JUMP JUMPDEST PUSH1 0x1 SWAP1 SUB DUP2 DUP2 SWAP1 PUSH1 0x0 MSTORE PUSH1 0x20 PUSH1 0x0 KECCAK256 ADD PUSH1 0x0 SWAP1 SSTORE SWAP1 SSTORE DUP6 PUSH1 0x1 ADD PUSH1 0x0 DUP7 DUP2 MSTORE PUSH1 0x20 ADD SWAP1 DUP2 MSTORE PUSH1 0x20 ADD PUSH1 0x0 KECCAK256 PUSH1 0x0 SWAP1 SSTORE PUSH1 0x1 SWAP4 POP POP POP POP PUSH2 0x71E JUMP JUMPDEST PUSH1 0x0 SWAP2 POP POP PUSH2 0x71E JUMP JUMPDEST PUSH1 0x0 PUSH2 0x23F2 DUP3 PUSH1 0x40 MLOAD DUP1 PUSH1 0x40 ADD PUSH1 0x40 MSTORE DUP1 PUSH1 0x20 DUP2 MSTORE PUSH1 0x20 ADD PUSH32 0x5361666545524332303A206C6F772D6C6576656C2063616C6C206661696C6564 DUP2 MSTORE POP DUP6 PUSH1 0x1 PUSH1 0x1 PUSH1 0xA0 SHL SUB AND PUSH2 0x2586 SWAP1 SWAP3 SWAP2 SWAP1 PUSH4 0xFFFFFFFF AND JUMP JUMPDEST DUP1 MLOAD SWAP1 SWAP2 POP ISZERO PUSH2 0xE71 JUMPI DUP1 DUP1 PUSH1 0x20 ADD SWAP1 MLOAD DUP2 ADD SWAP1 PUSH2 0x2410 SWAP2 SWAP1 PUSH2 0x325F JUMP JUMPDEST PUSH2 0xE71 JUMPI PUSH1 0x40 MLOAD PUSH3 0x461BCD PUSH1 0xE5 SHL DUP2 MSTORE PUSH1 0x20 PUSH1 0x4 DUP3 ADD MSTORE PUSH1 0x2A PUSH1 0x24 DUP3 ADD MSTORE PUSH32 0x5361666545524332303A204552433230206F7065726174696F6E20646964206E PUSH1 0x44 DUP3 ADD MSTORE PUSH10 0x1BDD081CDD58D8D95959 PUSH1 0xB2 SHL PUSH1 0x64 DUP3 ADD MSTORE PUSH1 0x84 ADD PUSH2 0x5CE JUMP JUMPDEST PUSH1 0x0 DUP1 PUSH2 0x2482 DUP5 PUSH2 0x100 ADD MLOAD PUSH1 0x0 PUSH2 0x2595 JUMP JUMPDEST DUP5 MLOAD PUSH1 0x40 MLOAD PUSH4 0xB32B752D PUSH1 0xE0 SHL DUP2 MSTORE SWAP2 SWAP3 POP PUSH1 0x1 PUSH1 0x1 PUSH1 0xA0 SHL SUB DUP6 AND SWAP2 PUSH4 0xB32B752D SWAP2 PUSH2 0x24B3 SWAP2 DUP6 SWAP1 PUSH1 0x4 ADD PUSH2 0x327C JUMP JUMPDEST PUSH1 0x20 PUSH1 0x40 MLOAD DUP1 DUP4 SUB DUP2 DUP7 GAS STATICCALL ISZERO DUP1 ISZERO PUSH2 0x24D0 JUMPI RETURNDATASIZE PUSH1 0x0 DUP1 RETURNDATACOPY RETURNDATASIZE PUSH1 0x0 REVERT JUMPDEST POP POP POP POP PUSH1 0x40 MLOAD RETURNDATASIZE PUSH1 0x1F NOT PUSH1 0x1F DUP3 ADD AND DUP3 ADD DUP1 PUSH1 0x40 MSTORE POP DUP2 ADD SWAP1 PUSH2 0x14FC SWAP2 SWAP1 PUSH2 0x31F1 JUMP JUMPDEST PUSH1 0x0 PUSH1 0x11 NOT PUSH1 0xFF DUP4 AND ADD PUSH2 0x2509 JUMPI POP DUP2 PUSH2 0x71E JUMP JUMPDEST PUSH1 0x12 PUSH1 0xFF DUP4 AND GT ISZERO PUSH2 0x253C JUMPI PUSH2 0x2520 PUSH1 0x12 DUP4 PUSH2 0x3301 JUMP JUMPDEST PUSH2 0x252B SWAP1 PUSH1 0xA PUSH2 0x33FE JUMP JUMPDEST PUSH2 0x2535 SWAP1 DUP5 PUSH2 0x3227 JUMP JUMPDEST SWAP1 POP PUSH2 0x71E JUMP JUMPDEST PUSH2 0x2547 DUP3 PUSH1 0x12 PUSH2 0x3301 JUMP JUMPDEST PUSH2 0x2552 SWAP1 PUSH1 0xA PUSH2 0x33FE JUMP JUMPDEST PUSH2 0x2535 SWAP1 DUP5 PUSH2 0x316D JUMP JUMPDEST PUSH1 0x0 DUP3 PUSH1 0x0 ADD DUP3 DUP2 SLOAD DUP2 LT PUSH2 0x2573 JUMPI PUSH2 0x2573 PUSH2 0x31DB JUMP JUMPDEST SWAP1 PUSH1 0x0 MSTORE PUSH1 0x20 PUSH1 0x0 KECCAK256 ADD SLOAD SWAP1 POP SWAP3 SWAP2 POP POP JUMP JUMPDEST PUSH1 0x60 PUSH2 0x14FC DUP5 DUP5 PUSH1 0x0 DUP6 PUSH2 0x2796 JUMP JUMPDEST PUSH1 0x60 PUSH1 0x0 DUP4 MLOAD PUSH8 0xFFFFFFFFFFFFFFFF DUP2 GT ISZERO PUSH2 0x25B3 JUMPI PUSH2 0x25B3 PUSH2 0x29BB JUMP JUMPDEST PUSH1 0x40 MLOAD SWAP1 DUP1 DUP3 MSTORE DUP1 PUSH1 0x20 MUL PUSH1 0x20 ADD DUP3 ADD PUSH1 0x40 MSTORE DUP1 ISZERO PUSH2 0x261B JUMPI DUP2 PUSH1 0x20 ADD JUMPDEST PUSH2 0x2608 PUSH1 0x40 DUP1 MLOAD PUSH1 0x80 DUP2 ADD DUP3 MSTORE PUSH1 0x0 DUP1 DUP3 MSTORE PUSH1 0x20 DUP1 DUP4 ADD DUP3 SWAP1 MSTORE DUP3 DUP5 ADD DUP3 SWAP1 MSTORE DUP4 MLOAD DUP1 DUP6 ADD SWAP1 SWAP5 MSTORE DUP2 DUP5 MSTORE DUP4 ADD MSTORE SWAP1 PUSH1 0x60 DUP3 ADD MSTORE SWAP1 JUMP JUMPDEST DUP2 MSTORE PUSH1 0x20 ADD SWAP1 PUSH1 0x1 SWAP1 SUB SWAP1 DUP2 PUSH2 0x25D1 JUMPI SWAP1 POP JUMPDEST POP SWAP1 POP PUSH1 0x0 JUMPDEST DUP5 MLOAD DUP2 LT ISZERO PUSH2 0x1325 JUMPI DUP5 DUP2 DUP2 MLOAD DUP2 LT PUSH2 0x263C JUMPI PUSH2 0x263C PUSH2 0x31DB JUMP JUMPDEST PUSH1 0x20 MUL PUSH1 0x20 ADD ADD MLOAD PUSH1 0x0 ADD MLOAD DUP3 DUP3 DUP2 MLOAD DUP2 LT PUSH2 0x265A JUMPI PUSH2 0x265A PUSH2 0x31DB JUMP JUMPDEST PUSH1 0x20 SWAP1 DUP2 MUL SWAP2 SWAP1 SWAP2 ADD ADD MLOAD PUSH1 0x1 PUSH1 0x1 PUSH1 0xA0 SHL SUB SWAP1 SWAP2 AND SWAP1 MSTORE DUP5 MLOAD DUP6 SWAP1 DUP3 SWAP1 DUP2 LT PUSH2 0x2686 JUMPI PUSH2 0x2686 PUSH2 0x31DB JUMP JUMPDEST PUSH1 0x20 MUL PUSH1 0x20 ADD ADD MLOAD PUSH1 0x20 ADD MLOAD DUP3 DUP3 DUP2 MLOAD DUP2 LT PUSH2 0x26A4 JUMPI PUSH2 0x26A4 PUSH2 0x31DB JUMP JUMPDEST PUSH1 0x20 MUL PUSH1 0x20 ADD ADD MLOAD PUSH1 0x20 ADD SWAP1 ISZERO ISZERO SWAP1 DUP2 ISZERO ISZERO DUP2 MSTORE POP POP DUP5 DUP2 DUP2 MLOAD DUP2 LT PUSH2 0x26CC JUMPI PUSH2 0x26CC PUSH2 0x31DB JUMP JUMPDEST PUSH1 0x20 MUL PUSH1 0x20 ADD ADD MLOAD PUSH1 0x20 ADD MLOAD DUP1 ISZERO PUSH2 0x270E JUMPI POP PUSH8 0xDE0B6B3A7640000 DUP6 DUP3 DUP2 MLOAD DUP2 LT PUSH2 0x26FA JUMPI PUSH2 0x26FA PUSH2 0x31DB JUMP JUMPDEST PUSH1 0x20 MUL PUSH1 0x20 ADD ADD MLOAD PUSH1 0x40 ADD MLOAD LT ISZERO ISZERO DUP5 ISZERO ISZERO EQ JUMPDEST ISZERO PUSH2 0x2743 JUMPI PUSH8 0xDE0B6B3A7640000 DUP3 DUP3 DUP2 MLOAD DUP2 LT PUSH2 0x272E JUMPI PUSH2 0x272E PUSH2 0x31DB JUMP JUMPDEST PUSH1 0x20 MUL PUSH1 0x20 ADD ADD MLOAD PUSH1 0x40 ADD DUP2 DUP2 MSTORE POP POP PUSH2 0x2784 JUMP JUMPDEST DUP5 DUP2 DUP2 MLOAD DUP2 LT PUSH2 0x2755 JUMPI PUSH2 0x2755 PUSH2 0x31DB JUMP JUMPDEST PUSH1 0x20 MUL PUSH1 0x20 ADD ADD MLOAD PUSH1 0x40 ADD MLOAD DUP3 DUP3 DUP2 MLOAD DUP2 LT PUSH2 0x2773 JUMPI PUSH2 0x2773 PUSH2 0x31DB JUMP JUMPDEST PUSH1 0x20 MUL PUSH1 0x20 ADD ADD MLOAD PUSH1 0x40 ADD DUP2 DUP2 MSTORE POP POP JUMPDEST DUP1 PUSH2 0x278E DUP2 PUSH2 0x2E61 JUMP JUMPDEST SWAP2 POP POP PUSH2 0x2621 JUMP JUMPDEST PUSH1 0x60 DUP3 SELFBALANCE LT ISZERO PUSH2 0x27F7 JUMPI PUSH1 0x40 MLOAD PUSH3 0x461BCD PUSH1 0xE5 SHL DUP2 MSTORE PUSH1 0x20 PUSH1 0x4 DUP3 ADD MSTORE PUSH1 0x26 PUSH1 0x24 DUP3 ADD MSTORE PUSH32 0x416464726573733A20696E73756666696369656E742062616C616E636520666F PUSH1 0x44 DUP3 ADD MSTORE PUSH6 0x1C8818D85B1B PUSH1 0xD2 SHL PUSH1 0x64 DUP3 ADD MSTORE PUSH1 0x84 ADD PUSH2 0x5CE JUMP JUMPDEST PUSH1 0x0 DUP1 DUP7 PUSH1 0x1 PUSH1 0x1 PUSH1 0xA0 SHL SUB AND DUP6 DUP8 PUSH1 0x40 MLOAD PUSH2 0x2813 SWAP2 SWAP1 PUSH2 0x340D JUMP JUMPDEST PUSH1 0x0 PUSH1 0x40 MLOAD DUP1 DUP4 SUB DUP2 DUP6 DUP8 GAS CALL SWAP3 POP POP POP RETURNDATASIZE DUP1 PUSH1 0x0 DUP2 EQ PUSH2 0x2850 JUMPI PUSH1 0x40 MLOAD SWAP2 POP PUSH1 0x1F NOT PUSH1 0x3F RETURNDATASIZE ADD AND DUP3 ADD PUSH1 0x40 MSTORE RETURNDATASIZE DUP3 MSTORE RETURNDATASIZE PUSH1 0x0 PUSH1 0x20 DUP5 ADD RETURNDATACOPY PUSH2 0x2855 JUMP JUMPDEST PUSH1 0x60 SWAP2 POP JUMPDEST POP SWAP2 POP SWAP2 POP PUSH2 0x1AB1 DUP8 DUP4 DUP4 DUP8 PUSH1 0x60 DUP4 ISZERO PUSH2 0x28D0 JUMPI DUP3 MLOAD PUSH1 0x0 SUB PUSH2 0x28C9 JUMPI PUSH1 0x1 PUSH1 0x1 PUSH1 0xA0 SHL SUB DUP6 AND EXTCODESIZE PUSH2 0x28C9 JUMPI PUSH1 0x40 MLOAD PUSH3 0x461BCD PUSH1 0xE5 SHL DUP2 MSTORE PUSH1 0x20 PUSH1 0x4 DUP3 ADD MSTORE PUSH1 0x1D PUSH1 0x24 DUP3 ADD MSTORE PUSH32 0x416464726573733A2063616C6C20746F206E6F6E2D636F6E7472616374000000 PUSH1 0x44 DUP3 ADD MSTORE PUSH1 0x64 ADD PUSH2 0x5CE JUMP JUMPDEST POP DUP2 PUSH2 0x14FC JUMP JUMPDEST PUSH2 0x14FC DUP4 DUP4 DUP2 MLOAD ISZERO PUSH2 0x28E5 JUMPI DUP2 MLOAD DUP1 DUP4 PUSH1 0x20 ADD REVERT JUMPDEST DUP1 PUSH1 0x40 MLOAD PUSH3 0x461BCD PUSH1 0xE5 SHL DUP2 MSTORE PUSH1 0x4 ADD PUSH2 0x5CE SWAP2 SWAP1 PUSH2 0x31A8 JUMP JUMPDEST PUSH1 0x0 PUSH1 0x20 DUP3 DUP5 SUB SLT ISZERO PUSH2 0x2911 JUMPI PUSH1 0x0 DUP1 REVERT JUMPDEST POP CALLDATALOAD SWAP2 SWAP1 POP JUMP JUMPDEST PUSH1 0x1 PUSH1 0x1 PUSH1 0xA0 SHL SUB DUP2 AND DUP2 EQ PUSH2 0x11E2 JUMPI PUSH1 0x0 DUP1 REVERT JUMPDEST DUP1 CALLDATALOAD PUSH2 0x2938 DUP2 PUSH2 0x2918 JUMP JUMPDEST SWAP2 SWAP1 POP JUMP JUMPDEST PUSH1 0x0 PUSH1 0x20 DUP3 DUP5 SUB SLT ISZERO PUSH2 0x294F JUMPI PUSH1 0x0 DUP1 REVERT JUMPDEST DUP2 CALLDATALOAD PUSH2 0x10AA DUP2 PUSH2 0x2918 JUMP JUMPDEST PUSH1 0x0 DUP1 PUSH1 0x40 DUP4 DUP6 SUB SLT ISZERO PUSH2 0x296D JUMPI PUSH1 0x0 DUP1 REVERT JUMPDEST DUP3 CALLDATALOAD PUSH2 0x2978 DUP2 PUSH2 0x2918 JUMP JUMPDEST SWAP5 PUSH1 0x20 SWAP4 SWAP1 SWAP4 ADD CALLDATALOAD SWAP4 POP POP POP JUMP JUMPDEST PUSH1 0x0 DUP1 PUSH1 0x0 PUSH1 0x60 DUP5 DUP7 SUB SLT ISZERO PUSH2 0x299B JUMPI PUSH1 0x0 DUP1 REVERT JUMPDEST DUP4 CALLDATALOAD PUSH2 0x29A6 DUP2 PUSH2 0x2918 JUMP JUMPDEST SWAP6 PUSH1 0x20 DUP6 ADD CALLDATALOAD SWAP6 POP PUSH1 0x40 SWAP1 SWAP5 ADD CALLDATALOAD SWAP4 SWAP3 POP POP POP JUMP JUMPDEST PUSH4 0x4E487B71 PUSH1 0xE0 SHL PUSH1 0x0 MSTORE PUSH1 0x41 PUSH1 0x4 MSTORE PUSH1 0x24 PUSH1 0x0 REVERT JUMPDEST PUSH1 0x40 MLOAD PUSH1 0xE0 DUP2 ADD PUSH8 0xFFFFFFFFFFFFFFFF DUP2 GT DUP3 DUP3 LT OR ISZERO PUSH2 0x29F4 JUMPI PUSH2 0x29F4 PUSH2 0x29BB JUMP JUMPDEST PUSH1 0x40 MSTORE SWAP1 JUMP JUMPDEST PUSH1 0x40 MLOAD PUSH1 0x80 DUP2 ADD PUSH8 0xFFFFFFFFFFFFFFFF DUP2 GT DUP3 DUP3 LT OR ISZERO PUSH2 0x29F4 JUMPI PUSH2 0x29F4 PUSH2 0x29BB JUMP JUMPDEST PUSH1 0x40 DUP1 MLOAD SWAP1 DUP2 ADD PUSH8 0xFFFFFFFFFFFFFFFF DUP2 GT DUP3 DUP3 LT OR ISZERO PUSH2 0x29F4 JUMPI PUSH2 0x29F4 PUSH2 0x29BB JUMP JUMPDEST PUSH1 0x40 MLOAD PUSH2 0x120 DUP2 ADD PUSH8 0xFFFFFFFFFFFFFFFF DUP2 GT DUP3 DUP3 LT OR ISZERO PUSH2 0x29F4 JUMPI PUSH2 0x29F4 PUSH2 0x29BB JUMP JUMPDEST PUSH1 0x40 MLOAD PUSH1 0x1F DUP3 ADD PUSH1 0x1F NOT AND DUP2 ADD PUSH8 0xFFFFFFFFFFFFFFFF DUP2 GT DUP3 DUP3 LT OR ISZERO PUSH2 0x2A8D JUMPI PUSH2 0x2A8D PUSH2 0x29BB JUMP JUMPDEST PUSH1 0x40 MSTORE SWAP2 SWAP1 POP JUMP JUMPDEST PUSH1 0x0 PUSH8 0xFFFFFFFFFFFFFFFF DUP3 GT ISZERO PUSH2 0x2AAF JUMPI PUSH2 0x2AAF PUSH2 0x29BB JUMP JUMPDEST POP PUSH1 0x5 SHL PUSH1 0x20 ADD SWAP1 JUMP JUMPDEST PUSH1 0xFF DUP2 AND DUP2 EQ PUSH2 0x11E2 JUMPI PUSH1 0x0 DUP1 REVERT JUMPDEST DUP1 CALLDATALOAD PUSH2 0x2938 DUP2 PUSH2 0x2AB9 JUMP JUMPDEST PUSH8 0xFFFFFFFFFFFFFFFF DUP2 AND DUP2 EQ PUSH2 0x11E2 JUMPI PUSH1 0x0 DUP1 REVERT JUMPDEST PUSH1 0x0 PUSH1 0xE0 DUP3 DUP5 SUB SLT ISZERO PUSH2 0x2AFB JUMPI PUSH1 0x0 DUP1 REVERT JUMPDEST PUSH2 0x2B03 PUSH2 0x29D1 JUMP JUMPDEST SWAP1 POP DUP2 CALLDATALOAD DUP2 MSTORE PUSH1 0x20 DUP3 ADD CALLDATALOAD PUSH1 0x20 DUP3 ADD MSTORE PUSH1 0x40 DUP3 ADD CALLDATALOAD PUSH1 0x40 DUP3 ADD MSTORE PUSH1 0x60 DUP3 ADD CALLDATALOAD PUSH1 0x60 DUP3 ADD MSTORE PUSH1 0x80 DUP3 ADD CALLDATALOAD PUSH2 0x2B35 DUP2 PUSH2 0x2AD3 JUMP JUMPDEST PUSH1 0x80 DUP3 ADD MSTORE PUSH1 0xA0 DUP3 ADD CALLDATALOAD PUSH2 0x2B48 DUP2 PUSH2 0x2AD3 JUMP JUMPDEST PUSH1 0xA0 DUP3 ADD MSTORE PUSH1 0xC0 DUP3 ADD CALLDATALOAD PUSH2 0x2B5B DUP2 PUSH2 0x2AD3 JUMP JUMPDEST PUSH1 0xC0 DUP3 ADD MSTORE SWAP3 SWAP2 POP POP JUMP JUMPDEST DUP1 ISZERO ISZERO DUP2 EQ PUSH2 0x11E2 JUMPI PUSH1 0x0 DUP1 REVERT JUMPDEST PUSH1 0x0 DUP3 PUSH1 0x1F DUP4 ADD SLT PUSH2 0x2B85 JUMPI PUSH1 0x0 DUP1 REVERT JUMPDEST DUP2 CALLDATALOAD PUSH1 0x20 PUSH2 0x2B9A PUSH2 0x2B95 DUP4 PUSH2 0x2A95 JUMP JUMPDEST PUSH2 0x2A64 JUMP JUMPDEST DUP3 DUP2 MSTORE PUSH1 0xA0 SWAP3 DUP4 MUL DUP6 ADD DUP3 ADD SWAP3 DUP3 DUP3 ADD SWAP2 SWAP1 DUP8 DUP6 GT ISZERO PUSH2 0x2BB9 JUMPI PUSH1 0x0 DUP1 REVERT JUMPDEST DUP4 DUP8 ADD JUMPDEST DUP6 DUP2 LT ISZERO PUSH2 0x2C44 JUMPI DUP1 DUP10 SUB DUP3 DUP2 SLT ISZERO PUSH2 0x2BD6 JUMPI PUSH1 0x0 DUP1 DUP2 REVERT JUMPDEST PUSH2 0x2BDE PUSH2 0x29FA JUMP JUMPDEST DUP3 CALLDATALOAD PUSH2 0x2BE9 DUP2 PUSH2 0x2918 JUMP JUMPDEST DUP2 MSTORE DUP3 DUP8 ADD CALLDATALOAD PUSH2 0x2BF8 DUP2 PUSH2 0x2B66 JUMP JUMPDEST DUP2 DUP9 ADD MSTORE PUSH1 0x40 DUP4 DUP2 ADD CALLDATALOAD DUP2 DUP4 ADD MSTORE PUSH1 0x60 PUSH1 0x5F NOT DUP5 ADD DUP3 SGT ISZERO PUSH2 0x2C1A JUMPI PUSH1 0x0 DUP1 DUP2 REVERT JUMPDEST PUSH2 0x2C22 PUSH2 0x2A1D JUMP JUMPDEST DUP6 DUP3 ADD CALLDATALOAD DUP2 MSTORE PUSH1 0x80 DUP7 ADD CALLDATALOAD DUP11 DUP3 ADD MSTORE SWAP1 DUP4 ADD MSTORE POP DUP6 MSTORE POP SWAP3 DUP5 ADD SWAP3 DUP2 ADD PUSH2 0x2BBD JUMP JUMPDEST POP SWAP1 SWAP8 SWAP7 POP POP POP POP POP POP POP JUMP JUMPDEST PUSH1 0x0 PUSH1 0x20 DUP1 DUP4 DUP6 SUB SLT ISZERO PUSH2 0x2C64 JUMPI PUSH1 0x0 DUP1 REVERT JUMPDEST DUP3 CALLDATALOAD PUSH8 0xFFFFFFFFFFFFFFFF DUP1 DUP3 GT ISZERO PUSH2 0x2C7C JUMPI PUSH1 0x0 DUP1 REVERT JUMPDEST SWAP1 DUP5 ADD SWAP1 PUSH1 0x40 DUP3 DUP8 SUB SLT ISZERO PUSH2 0x2C90 JUMPI PUSH1 0x0 DUP1 REVERT JUMPDEST PUSH2 0x2C98 PUSH2 0x2A1D JUMP JUMPDEST DUP3 CALLDATALOAD DUP2 MSTORE DUP4 DUP4 ADD CALLDATALOAD DUP3 DUP2 GT ISZERO PUSH2 0x2CAD JUMPI PUSH1 0x0 DUP1 REVERT JUMPDEST DUP1 DUP5 ADD SWAP4 POP POP DUP7 PUSH1 0x1F DUP5 ADD SLT PUSH2 0x2CC2 JUMPI PUSH1 0x0 DUP1 REVERT JUMPDEST DUP3 CALLDATALOAD PUSH2 0x2CD0 PUSH2 0x2B95 DUP3 PUSH2 0x2A95 JUMP JUMPDEST DUP2 DUP2 MSTORE PUSH1 0x5 SWAP2 SWAP1 SWAP2 SHL DUP5 ADD DUP6 ADD SWAP1 DUP6 DUP2 ADD SWAP1 DUP10 DUP4 GT ISZERO PUSH2 0x2CEF JUMPI PUSH1 0x0 DUP1 REVERT JUMPDEST DUP7 DUP7 ADD JUMPDEST DUP4 DUP2 LT ISZERO PUSH2 0x2DCB JUMPI DUP1 CALLDATALOAD DUP7 DUP2 GT ISZERO PUSH2 0x2D0A JUMPI PUSH1 0x0 DUP1 REVERT JUMPDEST DUP8 ADD PUSH2 0x1E0 DUP2 DUP14 SUB PUSH1 0x1F NOT ADD DUP2 SGT ISZERO PUSH2 0x2D22 JUMPI PUSH1 0x0 DUP1 REVERT JUMPDEST PUSH2 0x2D2A PUSH2 0x2A40 JUMP JUMPDEST PUSH2 0x2D35 DUP12 DUP5 ADD PUSH2 0x292D JUMP JUMPDEST DUP2 MSTORE PUSH2 0x2D43 PUSH1 0x40 DUP5 ADD PUSH2 0x2AC8 JUMP JUMPDEST DUP12 DUP3 ADD MSTORE PUSH2 0x2D53 PUSH1 0x60 DUP5 ADD PUSH2 0x292D JUMP JUMPDEST PUSH1 0x40 DUP3 ADD MSTORE PUSH1 0x80 DUP4 ADD CALLDATALOAD PUSH1 0x60 DUP3 ADD MSTORE PUSH1 0xA0 PUSH2 0x2D70 DUP16 DUP3 DUP7 ADD PUSH2 0x2AE9 JUMP JUMPDEST PUSH1 0x80 DUP4 ADD MSTORE PUSH2 0x180 DUP5 ADD CALLDATALOAD SWAP1 DUP3 ADD MSTORE PUSH2 0x1A0 DUP4 ADD CALLDATALOAD PUSH1 0xC0 DUP3 ADD MSTORE PUSH2 0x1C0 DUP4 ADD CALLDATALOAD PUSH1 0xE0 DUP3 ADD MSTORE SWAP1 DUP3 ADD CALLDATALOAD SWAP1 DUP9 DUP3 GT ISZERO PUSH2 0x2DA8 JUMPI PUSH1 0x0 DUP1 DUP2 REVERT JUMPDEST PUSH2 0x2DB6 DUP15 DUP13 DUP5 DUP7 ADD ADD PUSH2 0x2B74 JUMP JUMPDEST PUSH2 0x100 DUP3 ADD MSTORE DUP6 MSTORE POP POP SWAP2 DUP8 ADD SWAP2 DUP8 ADD PUSH2 0x2CF3 JUMP JUMPDEST POP SWAP6 DUP4 ADD SWAP6 SWAP1 SWAP6 MSTORE POP SWAP7 SWAP6 POP POP POP POP POP POP JUMP JUMPDEST PUSH1 0x20 DUP1 DUP3 MSTORE DUP3 MLOAD DUP3 DUP3 ADD DUP2 SWAP1 MSTORE PUSH1 0x0 SWAP2 SWAP1 PUSH1 0x40 SWAP1 DUP2 DUP6 ADD SWAP1 DUP7 DUP5 ADD DUP6 JUMPDEST DUP3 DUP2 LT ISZERO PUSH2 0x2E3E JUMPI DUP2 MLOAD DUP1 MLOAD DUP6 MSTORE DUP7 DUP2 ADD MLOAD DUP8 DUP7 ADD MSTORE DUP6 DUP2 ADD MLOAD DUP7 DUP7 ADD MSTORE PUSH1 0x60 SWAP1 DUP2 ADD MLOAD PUSH1 0x1 PUSH1 0x1 PUSH1 0xA0 SHL SUB AND SWAP1 DUP6 ADD MSTORE PUSH1 0x80 SWAP1 SWAP4 ADD SWAP3 SWAP1 DUP6 ADD SWAP1 PUSH1 0x1 ADD PUSH2 0x2DFB JUMP JUMPDEST POP SWAP2 SWAP8 SWAP7 POP POP POP POP POP POP POP JUMP JUMPDEST PUSH4 0x4E487B71 PUSH1 0xE0 SHL PUSH1 0x0 MSTORE PUSH1 0x11 PUSH1 0x4 MSTORE PUSH1 0x24 PUSH1 0x0 REVERT JUMPDEST PUSH1 0x0 PUSH1 0x1 DUP3 ADD PUSH2 0x2E73 JUMPI PUSH2 0x2E73 PUSH2 0x2E4B JUMP JUMPDEST POP PUSH1 0x1 ADD SWAP1 JUMP JUMPDEST DUP1 DUP3 ADD DUP1 DUP3 GT ISZERO PUSH2 0x71E JUMPI PUSH2 0x71E PUSH2 0x2E4B JUMP JUMPDEST DUP1 MLOAD PUSH2 0x2938 DUP2 PUSH2 0x2918 JUMP JUMPDEST DUP1 MLOAD PUSH2 0x2938 DUP2 PUSH2 0x2AB9 JUMP JUMPDEST PUSH1 0x0 PUSH1 0xE0 DUP3 DUP5 SUB SLT ISZERO PUSH2 0x2EB5 JUMPI PUSH1 0x0 DUP1 REVERT JUMPDEST PUSH2 0x2EBD PUSH2 0x29D1 JUMP JUMPDEST SWAP1 POP DUP2 MLOAD DUP2 MSTORE PUSH1 0x20 DUP3 ADD MLOAD PUSH1 0x20 DUP3 ADD MSTORE PUSH1 0x40 DUP3 ADD MLOAD PUSH1 0x40 DUP3 ADD MSTORE PUSH1 0x60 DUP3 ADD MLOAD PUSH1 0x60 DUP3 ADD MSTORE PUSH1 0x80 DUP3 ADD MLOAD PUSH2 0x2EEF DUP2 PUSH2 0x2AD3 JUMP JUMPDEST PUSH1 0x80 DUP3 ADD MSTORE PUSH1 0xA0 DUP3 ADD MLOAD PUSH2 0x2F02 DUP2 PUSH2 0x2AD3 JUMP JUMPDEST PUSH1 0xA0 DUP3 ADD MSTORE PUSH1 0xC0 DUP3 ADD MLOAD PUSH2 0x2B5B DUP2 PUSH2 0x2AD3 JUMP JUMPDEST PUSH1 0x0 DUP3 PUSH1 0x1F DUP4 ADD SLT PUSH2 0x2F26 JUMPI PUSH1 0x0 DUP1 REVERT JUMPDEST DUP2 MLOAD PUSH1 0x20 PUSH2 0x2F36 PUSH2 0x2B95 DUP4 PUSH2 0x2A95 JUMP JUMPDEST DUP3 DUP2 MSTORE PUSH1 0xA0 SWAP3 DUP4 MUL DUP6 ADD DUP3 ADD SWAP3 DUP3 DUP3 ADD SWAP2 SWAP1 DUP8 DUP6 GT ISZERO PUSH2 0x2F55 JUMPI PUSH1 0x0 DUP1 REVERT JUMPDEST DUP4 DUP8 ADD JUMPDEST DUP6 DUP2 LT ISZERO PUSH2 0x2C44 JUMPI DUP1 DUP10 SUB DUP3 DUP2 SLT ISZERO PUSH2 0x2F72 JUMPI PUSH1 0x0 DUP1 DUP2 REVERT JUMPDEST PUSH2 0x2F7A PUSH2 0x29FA JUMP JUMPDEST DUP3 MLOAD PUSH2 0x2F85 DUP2 PUSH2 0x2918 JUMP JUMPDEST DUP2 MSTORE DUP3 DUP8 ADD MLOAD PUSH2 0x2F94 DUP2 PUSH2 0x2B66 JUMP JUMPDEST DUP2 DUP9 ADD MSTORE PUSH1 0x40 DUP4 DUP2 ADD MLOAD DUP2 DUP4 ADD MSTORE PUSH1 0x60 PUSH1 0x5F NOT DUP5 ADD DUP3 SGT ISZERO PUSH2 0x2FB6 JUMPI PUSH1 0x0 DUP1 DUP2 REVERT JUMPDEST PUSH2 0x2FBE PUSH2 0x2A1D JUMP JUMPDEST DUP6 DUP3 ADD MLOAD DUP2 MSTORE PUSH1 0x80 DUP7 ADD MLOAD DUP11 DUP3 ADD MSTORE SWAP1 DUP4 ADD MSTORE POP DUP6 MSTORE POP SWAP3 DUP5 ADD SWAP3 DUP2 ADD PUSH2 0x2F59 JUMP JUMPDEST PUSH1 0x0 PUSH1 0x20 DUP1 DUP4 DUP6 SUB SLT ISZERO PUSH2 0x2FF3 JUMPI PUSH1 0x0 DUP1 REVERT JUMPDEST DUP3 MLOAD PUSH8 0xFFFFFFFFFFFFFFFF DUP1 DUP3 GT ISZERO PUSH2 0x300B JUMPI PUSH1 0x0 DUP1 REVERT JUMPDEST SWAP1 DUP5 ADD SWAP1 PUSH1 0x40 DUP3 DUP8 SUB SLT ISZERO PUSH2 0x301F JUMPI PUSH1 0x0 DUP1 REVERT JUMPDEST PUSH2 0x3027 PUSH2 0x2A1D JUMP JUMPDEST DUP3 MLOAD DUP2 MSTORE DUP4 DUP4 ADD MLOAD DUP3 DUP2 GT ISZERO PUSH2 0x303C JUMPI PUSH1 0x0 DUP1 REVERT JUMPDEST DUP1 DUP5 ADD SWAP4 POP POP DUP7 PUSH1 0x1F DUP5 ADD SLT PUSH2 0x3051 JUMPI PUSH1 0x0 DUP1 REVERT JUMPDEST DUP3 MLOAD PUSH2 0x305F PUSH2 0x2B95 DUP3 PUSH2 0x2A95 JUMP JUMPDEST DUP2 DUP2 MSTORE PUSH1 0x5 SWAP2 SWAP1 SWAP2 SHL DUP5 ADD DUP6 ADD SWAP1 DUP6 DUP2 ADD SWAP1 DUP10 DUP4 GT ISZERO PUSH2 0x307E JUMPI PUSH1 0x0 DUP1 REVERT JUMPDEST DUP7 DUP7 ADD JUMPDEST DUP4 DUP2 LT ISZERO PUSH2 0x2DCB JUMPI DUP1 MLOAD DUP7 DUP2 GT ISZERO PUSH2 0x3099 JUMPI PUSH1 0x0 DUP1 REVERT JUMPDEST DUP8 ADD PUSH2 0x1E0 DUP2 DUP14 SUB PUSH1 0x1F NOT ADD DUP2 SGT ISZERO PUSH2 0x30B1 JUMPI PUSH1 0x0 DUP1 REVERT JUMPDEST PUSH2 0x30B9 PUSH2 0x2A40 JUMP JUMPDEST PUSH2 0x30C4 DUP12 DUP5 ADD PUSH2 0x2E8D JUMP JUMPDEST DUP2 MSTORE PUSH2 0x30D2 PUSH1 0x40 DUP5 ADD PUSH2 0x2E98 JUMP JUMPDEST DUP12 DUP3 ADD MSTORE PUSH2 0x30E2 PUSH1 0x60 DUP5 ADD PUSH2 0x2E8D JUMP JUMPDEST PUSH1 0x40 DUP3 ADD MSTORE PUSH1 0x80 DUP4 ADD MLOAD PUSH1 0x60 DUP3 ADD MSTORE PUSH1 0xA0 PUSH2 0x30FF DUP16 DUP3 DUP7 ADD PUSH2 0x2EA3 JUMP JUMPDEST PUSH1 0x80 DUP4 ADD MSTORE PUSH2 0x180 DUP5 ADD MLOAD SWAP1 DUP3 ADD MSTORE PUSH2 0x1A0 DUP4 ADD MLOAD PUSH1 0xC0 DUP3 ADD MSTORE PUSH2 0x1C0 DUP4 ADD MLOAD PUSH1 0xE0 DUP3 ADD MSTORE SWAP1 DUP3 ADD MLOAD SWAP1 DUP9 DUP3 GT ISZERO PUSH2 0x3137 JUMPI PUSH1 0x0 DUP1 DUP2 REVERT JUMPDEST PUSH2 0x3145 DUP15 DUP13 DUP5 DUP7 ADD ADD PUSH2 0x2F15 JUMP JUMPDEST PUSH2 0x100 DUP3 ADD MSTORE DUP6 MSTORE POP POP SWAP2 DUP8 ADD SWAP2 DUP8 ADD PUSH2 0x3082 JUMP JUMPDEST DUP2 DUP2 SUB DUP2 DUP2 GT ISZERO PUSH2 0x71E JUMPI PUSH2 0x71E PUSH2 0x2E4B JUMP JUMPDEST DUP1 DUP3 MUL DUP2 ISZERO DUP3 DUP3 DIV DUP5 EQ OR PUSH2 0x71E JUMPI PUSH2 0x71E PUSH2 0x2E4B JUMP JUMPDEST PUSH1 0x0 JUMPDEST DUP4 DUP2 LT ISZERO PUSH2 0x319F JUMPI DUP2 DUP2 ADD MLOAD DUP4 DUP3 ADD MSTORE PUSH1 0x20 ADD PUSH2 0x3187 JUMP JUMPDEST POP POP PUSH1 0x0 SWAP2 ADD MSTORE JUMP JUMPDEST PUSH1 0x20 DUP2 MSTORE PUSH1 0x0 DUP3 MLOAD DUP1 PUSH1 0x20 DUP5 ADD MSTORE PUSH2 0x31C7 DUP2 PUSH1 0x40 DUP6 ADD PUSH1 0x20 DUP8 ADD PUSH2 0x3184 JUMP JUMPDEST PUSH1 0x1F ADD PUSH1 0x1F NOT AND SWAP2 SWAP1 SWAP2 ADD PUSH1 0x40 ADD SWAP3 SWAP2 POP POP JUMP JUMPDEST PUSH4 0x4E487B71 PUSH1 0xE0 SHL PUSH1 0x0 MSTORE PUSH1 0x32 PUSH1 0x4 MSTORE PUSH1 0x24 PUSH1 0x0 REVERT JUMPDEST PUSH1 0x0 PUSH1 0x20 DUP3 DUP5 SUB SLT ISZERO PUSH2 0x3203 JUMPI PUSH1 0x0 DUP1 REVERT JUMPDEST POP MLOAD SWAP2 SWAP1 POP JUMP JUMPDEST PUSH1 0x0 PUSH1 0x20 DUP3 DUP5 SUB SLT ISZERO PUSH2 0x321C JUMPI PUSH1 0x0 DUP1 REVERT JUMPDEST DUP2 MLOAD PUSH2 0x10AA DUP2 PUSH2 0x2918 JUMP JUMPDEST PUSH1 0x0 DUP3 PUSH2 0x3244 JUMPI PUSH4 0x4E487B71 PUSH1 0xE0 SHL PUSH1 0x0 MSTORE PUSH1 0x12 PUSH1 0x4 MSTORE PUSH1 0x24 PUSH1 0x0 REVERT JUMPDEST POP DIV SWAP1 JUMP JUMPDEST PUSH4 0x4E487B71 PUSH1 0xE0 SHL PUSH1 0x0 MSTORE PUSH1 0x31 PUSH1 0x4 MSTORE PUSH1 0x24 PUSH1 0x0 REVERT JUMPDEST PUSH1 0x0 PUSH1 0x20 DUP3 DUP5 SUB SLT ISZERO PUSH2 0x3271 JUMPI PUSH1 0x0 DUP1 REVERT JUMPDEST DUP2 MLOAD PUSH2 0x10AA DUP2 PUSH2 0x2B66 JUMP JUMPDEST PUSH1 0x1 PUSH1 0x1 PUSH1 0xA0 SHL SUB DUP4 DUP2 AND DUP3 MSTORE PUSH1 0x40 PUSH1 0x20 DUP1 DUP5 ADD DUP3 SWAP1 MSTORE DUP5 MLOAD DUP5 DUP4 ADD DUP2 SWAP1 MSTORE PUSH1 0x0 SWAP4 PUSH1 0x60 SWAP3 SWAP1 SWAP2 DUP4 DUP8 ADD SWAP1 DUP9 DUP4 ADD DUP8 JUMPDEST DUP3 DUP2 LT ISZERO PUSH2 0x32F1 JUMPI DUP2 MLOAD DUP1 MLOAD DUP8 AND DUP6 MSTORE DUP6 DUP2 ADD MLOAD ISZERO ISZERO DUP7 DUP7 ADD MSTORE DUP9 DUP2 ADD MLOAD DUP10 DUP7 ADD MSTORE DUP8 ADD MLOAD DUP1 MLOAD DUP9 DUP7 ADD MSTORE DUP6 ADD MLOAD PUSH1 0x80 DUP6 ADD MSTORE PUSH1 0xA0 SWAP1 SWAP4 ADD SWAP3 SWAP1 DUP5 ADD SWAP1 PUSH1 0x1 ADD PUSH2 0x32AC JUMP JUMPDEST POP SWAP2 SWAP11 SWAP10 POP POP POP POP POP POP POP POP POP POP JUMP JUMPDEST PUSH1 0xFF DUP3 DUP2 AND DUP3 DUP3 AND SUB SWAP1 DUP2 GT ISZERO PUSH2 0x71E JUMPI PUSH2 0x71E PUSH2 0x2E4B JUMP JUMPDEST PUSH1 0x1 DUP2 DUP2 JUMPDEST DUP1 DUP6 GT ISZERO PUSH2 0x3355 JUMPI DUP2 PUSH1 0x0 NOT DIV DUP3 GT ISZERO PUSH2 0x333B JUMPI PUSH2 0x333B PUSH2 0x2E4B JUMP JUMPDEST DUP1 DUP6 AND ISZERO PUSH2 0x3348 JUMPI SWAP2 DUP2 MUL SWAP2 JUMPDEST SWAP4 DUP5 SHR SWAP4 SWAP1 DUP1 MUL SWAP1 PUSH2 0x331F JUMP JUMPDEST POP SWAP3 POP SWAP3 SWAP1 POP JUMP JUMPDEST PUSH1 0x0 DUP3 PUSH2 0x336C JUMPI POP PUSH1 0x1 PUSH2 0x71E JUMP JUMPDEST DUP2 PUSH2 0x3379 JUMPI POP PUSH1 0x0 PUSH2 0x71E JUMP JUMPDEST DUP2 PUSH1 0x1 DUP2 EQ PUSH2 0x338F JUMPI PUSH1 0x2 DUP2 EQ PUSH2 0x3399 JUMPI PUSH2 0x33B5 JUMP JUMPDEST PUSH1 0x1 SWAP2 POP POP PUSH2 0x71E JUMP JUMPDEST PUSH1 0xFF DUP5 GT ISZERO PUSH2 0x33AA JUMPI PUSH2 0x33AA PUSH2 0x2E4B JUMP JUMPDEST POP POP PUSH1 0x1 DUP3 SHL PUSH2 0x71E JUMP JUMPDEST POP PUSH1 0x20 DUP4 LT PUSH2 0x133 DUP4 LT AND PUSH1 0x4E DUP5 LT PUSH1 0xB DUP5 LT AND OR ISZERO PUSH2 0x33D8 JUMPI POP DUP2 DUP2 EXP PUSH2 0x71E JUMP JUMPDEST PUSH2 0x33E2 DUP4 DUP4 PUSH2 0x331A JUMP JUMPDEST DUP1 PUSH1 0x0 NOT DIV DUP3 GT ISZERO PUSH2 0x33F6 JUMPI PUSH2 0x33F6 PUSH2 0x2E4B JUMP JUMPDEST MUL SWAP4 SWAP3 POP POP POP JUMP JUMPDEST PUSH1 0x0 PUSH2 0x10AA PUSH1 0xFF DUP5 AND DUP4 PUSH2 0x335D JUMP JUMPDEST PUSH1 0x0 DUP3 MLOAD PUSH2 0x341F DUP2 DUP5 PUSH1 0x20 DUP8 ADD PUSH2 0x3184 JUMP JUMPDEST SWAP2 SWAP1 SWAP2 ADD SWAP3 SWAP2 POP POP JUMP INVALID LOG2 PUSH5 0x6970667358 0x22 SLT KECCAK256 MSIZE PUSH32 0x4B2CCF7C1FCD5711C2A41A60264C74B895EFB4BBAF4C6D74A9D18ACDB9706473 PUSH16 0x6C634300081100330000000000000000 ","sha1":"edba15d6e342d39cb4372a5335234ad2aa79c36e","source":"// SPDX-License-Identifier: LicenseRef-Gyro-1.0\n// for information on licensing please see the README in the GitHub repository <https://github.com/gyrostable/core-protocol>.\npragma solidity ^0.8.0;\n\nimport \"./auth/Governable.sol\";\nimport \"../interfaces/IGYDToken.sol\";\nimport \"../libraries/DataTypes.sol\";\nimport \"../libraries/FixedPoint.sol\";\nimport \"../interfaces/IGyroConfig.sol\";\nimport \"../libraries/ConfigKeys.sol\";\nimport \"../libraries/ConfigHelpers.sol\";\nimport \"../libraries/ReserveStateExtensions.sol\";\n\nimport \"@openzeppelin/contracts/utils/structs/EnumerableSet.sol\";\nimport \"@openzeppelin/contracts/token/ERC20/utils/SafeERC20.sol\";\nimport \"@openzeppelin/contracts-upgradeable/token/ERC20/IERC20Upgradeable.sol\";\nimport \"@openzeppelin/contracts-upgradeable/token/ERC20/utils/SafeERC20Upgradeable.sol\";\nimport \"./LiquidityMining.sol\";\n\nimport \"../interfaces/IGydRecovery.sol\";\n\ncontract GydRecovery is IGydRecovery, Governable, LiquidityMining {\n    using FixedPoint for uint256;\n    using ConfigHelpers for IGyroConfig;\n    using SafeERC20 for IERC20;\n    using SafeERC20Upgradeable for IGYDToken;\n    using EnumerableSet for EnumerableSet.UintSet;\n    using ReserveStateExtensions for DataTypes.ReserveState;\n\n    /* We account for burn actions (= when the mechanism is triggered) in two ways:\n    - For partial burns, where less than the whole underlying supply is burnt, we store the percentage that has been burned in a cumulative adjustment factor. We can convert from and to \"adjusted\" amounts by multiplying/dividing by the adjustment factor. The \"staked amounts\" for liquidity mining are in units of *adjusted amounts*.\n    - For full burns, where the whole supply is burnt, the conversion is not 1:1. Instead, we store a counter to distinguish whether a full burn has happened since the last update, and we also store some history.\n    Adjusted amounts are only meaningful when the last full-burn-id is stored as well. All this is important to correctly perform accounting for withdrawals and for rewards.\n    */\n\n    /// @dev Max burn factor. If less than this share would be left over after burning, we do a full burn instead. This is to avoid numerical instability in the adjustment factor.\n    uint256 internal constant MAX_PARTIAL_BURN_FACTOR = 0.01e18;\n\n    /** @dev Full (marked for withdrawal and not) amount for a given address. We store the adjusted amount *not* marked for\n     * withdrawal in _perUserStaked from LiquidityMining. We account for the fact that _perUserStaked can become outdated\n     * in userCheckpoint() and in the related view methods.\n     */\n    struct Position {\n        // SOMEDAY maybe we can save some bits, pack this to save a slot.\n        uint256 lastUpdatedFullBurnId;\n        uint256 adjustedAmount;\n    }\n    // owner -> Position\n    mapping(address => Position) internal positions;\n\n    // Full burn ID -> totalStakedIntegral at that point in time\n    mapping(uint256 => uint256) internal fullBurnHistory;\n    uint256 internal nextFullBurnId = 1; // 0 is invalid; we use this to detect unset data.\n\n    uint256 public adjustmentFactor = 1e18;\n\n    struct PendingWithdrawal {\n        // SOMEDAY maybe we can save some bits, pack this to save a slot.\n        uint256 createdFullBurnId;\n        uint256 adjustedAmount;\n        uint256 withdrawableAt; // timestamp\n        address to;\n    }\n    mapping(uint256 => PendingWithdrawal) internal pendingWithdrawals;\n    // address -> pending withdrawal ids. Mostly a convenience feature.\n    mapping(address => EnumerableSet.UintSet) internal userPendingWithdrawalIds;\n    uint256 internal nextWithdrawalId;\n    uint256 public withdrawalWaitDuration;\n\n    // We bound two variables by immutables to provide some certainty for fund providers vs governance actions.\n    uint256 public immutable maxWithdrawalWaitDuration;\n    uint256 public immutable maxTriggerCR;\n\n    IGyroConfig public immutable gyroConfig;\n    IGYDToken public immutable gydToken;\n\n    event Deposit(address beneficiary, uint256 adjustedAmount, uint256 amount);\n    event WithdrawalQueued(\n        uint256 id,\n        address to,\n        uint256 withdrawalAt,\n        uint256 adjustedAmount,\n        uint256 amount\n    );\n    event WithdrawalCompleted(uint256 id, address to, uint256 adjustedAmount, uint256 amount);\n    event RecoveryExecuted(uint256 tokensBurned, bool isFullBurn, uint256 newAdjustmentFactor);\n\n    constructor(\n        address _governor,\n        address _gyroConfig,\n        address _rewardToken,\n        address _daoTreasury,\n        uint256 _withdrawalWaitDuration,\n        uint256 _maxWithdrawalWaitDuration,\n        uint256 _maxTriggerCR\n    ) Governable(_governor) LiquidityMining(_rewardToken, _daoTreasury) {\n        gyroConfig = IGyroConfig(_gyroConfig);\n        gydToken = gyroConfig.getGYDToken();\n        require(\n            _withdrawalWaitDuration <= _maxWithdrawalWaitDuration,\n            \"invalid withdrawal wait duration\"\n        );\n        withdrawalWaitDuration = _withdrawalWaitDuration;\n        maxWithdrawalWaitDuration = _maxWithdrawalWaitDuration;\n        maxTriggerCR = _maxTriggerCR;\n    }\n\n    function startMining(\n        address rewardsFrom,\n        uint256 amount,\n        uint256 endTime\n    ) external override governanceOnly {\n        _startMining(rewardsFrom, amount, endTime);\n    }\n\n    function stopMining() external override governanceOnly {\n        _stopMining();\n    }\n\n    function setWithdrawalWaitDuration(uint256 _duration) external governanceOnly {\n        require(_duration <= maxWithdrawalWaitDuration, \"invalid withdrawal wait duration\");\n        withdrawalWaitDuration = _duration;\n    }\n\n    /// @dev Total amount available for burning. Includes amounts marked for withdrawal but not yet withdrawn.\n    function totalUnderlying() public view returns (uint256) {\n        return gydToken.balanceOf(address(this));\n    }\n\n    /// @notice Balance of given account that is available for withdrawal.\n    function balanceOf(address account) public view returns (uint256) {\n        return balanceAdjustedOf(account).mulDown(adjustmentFactor);\n    }\n\n    /// @notice Like balanceOf() but in adjusted amounts.\n    function balanceAdjustedOf(address account) public view returns (uint256 adjustedAmount) {\n        adjustedAmount = positions[account].lastUpdatedFullBurnId < nextFullBurnId\n            ? 0\n            : _perUserStaked[account];\n    }\n\n    /// @notice Total amount contributed of a given account, consisting of the amount available for withdrawal and the\n    /// amount that has already been marked for withdrawal.\n    function totalBalanceOf(address account) public view returns (uint256 amount) {\n        // SOMEDAY Perhaps remove this actually; it's not clear people want to see it. If so, we can completely remove\n        // Position.adjustedAmount. We don't use that anywhere else.\n        return totalBalanceAdjustedOf(account).mulDown(adjustmentFactor);\n    }\n\n    /// @notice Like `totalBalanceOf()` but in adjusted amounts.\n    function totalBalanceAdjustedOf(address account) public view returns (uint256 adjustedAmount) {\n        Position memory position = positions[account];\n        adjustedAmount = position.lastUpdatedFullBurnId < nextFullBurnId\n            ? 0\n            : position.adjustedAmount;\n    }\n\n    function adjustedAmountToAmount(uint256 adjustedAmount) external view returns (uint256 amount) {\n        return adjustedAmount.mulDown(adjustmentFactor);\n    }\n\n    function amountToAdjustedAmount(uint256 amount) external view returns (uint256 adjustedAmount) {\n        return amount.divDown(adjustmentFactor);\n    }\n\n    function deposit(uint256 amount) external {\n        return depositFor(msg.sender, amount);\n    }\n\n    function depositFor(address beneficiary, uint256 amount) public {\n        gydToken.safeTransferFrom(msg.sender, address(this), amount);\n\n        uint256 adjustedAmount = amount.divDown(adjustmentFactor);\n        _stake(beneficiary, adjustedAmount); // This also handles full burns and initializes new positions, which is important.\n        positions[beneficiary].adjustedAmount += adjustedAmount;\n\n        emit Deposit(beneficiary, adjustedAmount, amount);\n    }\n\n    function initiateWithdrawal(uint256 amount) external returns (uint256 withdrawalId) {\n        return initiateWithdrawalAdjusted(amount.divDown(adjustmentFactor));\n    }\n\n    /// @notice Like initiateWithdrawal() but operates on adjusted amounts. Convenient to withdraw all funds\n    /// via `initiateWithdrawalAdjusted(balanceAdjustedOf(account))` without worrying about rounding issues.\n    function initiateWithdrawalAdjusted(uint256 adjustedAmount)\n        public\n        returns (uint256 withdrawalId)\n    {\n        // redundant with _unstake() but we want a better error message.\n        require(adjustedAmount <= balanceAdjustedOf(msg.sender), \"not enough to withdraw\");\n\n        _unstake(msg.sender, adjustedAmount); // This also handles full burns, which is important below.\n\n        withdrawalId = nextWithdrawalId;\n        ++nextWithdrawalId;\n        PendingWithdrawal memory withdrawal = PendingWithdrawal({\n            createdFullBurnId: nextFullBurnId,\n            adjustedAmount: adjustedAmount,\n            withdrawableAt: block.timestamp + withdrawalWaitDuration,\n            to: msg.sender\n        });\n        pendingWithdrawals[withdrawalId] = withdrawal;\n        userPendingWithdrawalIds[withdrawal.to].add(withdrawalId);\n\n        emit WithdrawalQueued(\n            withdrawalId,\n            withdrawal.to,\n            withdrawal.withdrawableAt,\n            adjustedAmount,\n            adjustedAmount.mulDown(adjustmentFactor)\n        );\n    }\n\n    function withdraw(uint256 withdrawalId) external returns (uint256 amount) {\n        PendingWithdrawal memory pending = pendingWithdrawals[withdrawalId];\n        require(pending.to == msg.sender, \"matching withdrawal does not exist\");\n        require(pending.withdrawableAt <= block.timestamp, \"not yet withdrawable\");\n\n        if (pending.createdFullBurnId < nextFullBurnId) {\n            delete pendingWithdrawals[withdrawalId];\n            userPendingWithdrawalIds[pending.to].remove(withdrawalId);\n            emit WithdrawalCompleted(withdrawalId, pending.to, 0, 0);\n            return 0;\n        }\n\n        positions[pending.to].adjustedAmount -= pending.adjustedAmount;\n\n        amount = pending.adjustedAmount.mulDown(adjustmentFactor);\n        gydToken.safeTransfer(pending.to, amount);\n\n        delete pendingWithdrawals[withdrawalId];\n        userPendingWithdrawalIds[pending.to].remove(withdrawalId);\n\n        emit WithdrawalCompleted(withdrawalId, pending.to, pending.adjustedAmount, amount);\n    }\n\n    function listPendingWithdrawals(address _user)\n        external\n        view\n        returns (PendingWithdrawal[] memory)\n    {\n        EnumerableSet.UintSet storage ids = userPendingWithdrawalIds[_user];\n        PendingWithdrawal[] memory pending = new PendingWithdrawal[](ids.length());\n        for (uint256 i = 0; i < ids.length(); i++) {\n            pending[i] = pendingWithdrawals[ids.at(i)];\n        }\n        return pending;\n    }\n\n    /// @dev Update rewards accounting for user (see LiquidityMining.userCheckpoint()) and also update their\n    /// position data in case of a full burn. It may look a bit ugly that these two things are mixed here but it's\n    /// important to update them at the same time.\n    function userCheckpoint(address account) public override {\n        globalCheckpoint();\n\n        Position storage position = positions[account];\n        uint256 lastUpdatedFullBurnId = position.lastUpdatedFullBurnId;\n\n        uint256 perUserStaked = _perUserStaked[account];\n        uint256 totalStakedIntegral;\n        if (lastUpdatedFullBurnId == 0) {\n            // Empty / new position. Initialize.\n            totalStakedIntegral = _totalStakedIntegral;\n            position.lastUpdatedFullBurnId = nextFullBurnId;\n        } else if (lastUpdatedFullBurnId < nextFullBurnId) {\n            // The user receives rewards for their staked (= not withdrawal-initiated) amount until the first burn after\n            // the last userCheckpoint() and we update their position going forward.\n            totalStakedIntegral = fullBurnHistory[lastUpdatedFullBurnId];\n\n            position.adjustedAmount = 0;\n            position.lastUpdatedFullBurnId = nextFullBurnId;\n            delete _perUserStaked[account];\n        } else {\n            // No full burn since last userCheckpoint(). The user receives rewards until now.\n            totalStakedIntegral = _totalStakedIntegral;\n        }\n\n        _perUserShare[account] += perUserStaked.mulDown(\n            totalStakedIntegral - _perUserStakedIntegral[account]\n        );\n        _perUserStakedIntegral[account] = totalStakedIntegral;\n    }\n\n    function claimableRewards(address beneficiary) external view override returns (uint256) {\n        uint256 lastUpdatedFullBurnId = positions[beneficiary].lastUpdatedFullBurnId;\n\n        uint256 totalStakedIntegral;\n        if (lastUpdatedFullBurnId > 0 && lastUpdatedFullBurnId < nextFullBurnId) {\n            totalStakedIntegral = fullBurnHistory[lastUpdatedFullBurnId];\n        } else {\n            totalStakedIntegral = _totalStakedIntegral;\n            if (totalStaked > 0) {\n                totalStakedIntegral += (_rewardsEmissionRate *\n                    (_rewardsTimestamp() - _lastCheckpointTime)).divDown(totalStaked);\n            }\n        }\n\n        return\n            _perUserShare[beneficiary] +\n            _perUserStaked[beneficiary].mulDown(\n                totalStakedIntegral - _perUserStakedIntegral[beneficiary]\n            );\n    }\n\n    function shouldRun() external view returns (bool) {\n        DataTypes.ReserveState memory reserveState = gyroConfig\n            .getReserveManager()\n            .getReserveState();\n        uint256 reserveUSDValue = reserveState.computeLowerBoundUSDValue(\n            gyroConfig.getRootPriceOracle()\n        );\n        return _shouldRun(reserveState, reserveUSDValue);\n    }\n\n    /// @dev Whether or not the recovery module should run and would run next time it's called.\n    function _shouldRun(DataTypes.ReserveState memory reserveState, uint256 reserveUSDValue)\n        internal\n        view\n        returns (bool)\n    {\n        if (totalUnderlying() == 0) {\n            // *Not* a corner case! This happens after a full burn!\n            return false;\n        }\n        uint256 currentCR = reserveUSDValue.divDown(gyroConfig.getMotherboard().mintedSupply());\n        uint256 triggerCR = gyroConfig.getUint(ConfigKeys.GYD_RECOVERY_TRIGGER_CR);\n        uint256 maxTriggerCR_ = maxTriggerCR;\n        if (triggerCR > maxTriggerCR_) triggerCR = maxTriggerCR_;\n        return currentCR < triggerCR;\n    }\n\n    function _checkAndRun(DataTypes.ReserveState memory reserveState) internal returns (bool) {\n        uint256 reserveUSDValue = reserveState.computeLowerBoundUSDValue(\n            gyroConfig.getRootPriceOracle()\n        );\n        if (!_shouldRun(reserveState, reserveUSDValue)) return false;\n\n        // Compute amount to burn to reach target CR.\n        uint256 targetCR = gyroConfig.getUint(ConfigKeys.GYD_RECOVERY_TARGET_CR);\n        uint256 targetGYDSupply = reserveUSDValue.divDown(targetCR);\n        uint256 currentGYDSupply = gyroConfig.getMotherboard().mintedSupply();\n\n        if (targetGYDSupply >= currentGYDSupply) {\n            // Sanity check. This can only happen if GYD_RECOVERY_TARGET_CR < GYD_RECOVERY_TRIGGER_CR, which is probably a buggy config.\n            return false;\n        }\n        uint256 amountToBurn = currentGYDSupply - targetGYDSupply;\n\n        return executeBurn(amountToBurn);\n    }\n\n    function checkAndRun(DataTypes.ReserveState memory reserveState) external returns (bool) {\n        require(msg.sender == address(gyroConfig.getMotherboard()), \"not authorized\");\n        return _checkAndRun(reserveState);\n    }\n\n    function checkAndRun() external returns (bool) {\n        // Since _checkAndRun() may change the GYD supply, we need to call checkpoint() to correctly account for the GYD\n        // supply until now (and also the reserve ratio). Motherboard does this itself before it calls\n        // checkAndRun(ReserveState).\n        // SOMEDAY gas optimization: Share reserveState between this function and checkpoint(); it's computed twice rn.\n        gyroConfig.getReserveStewardshipIncentives().checkpoint();\n\n        DataTypes.ReserveState memory reserveState = gyroConfig\n            .getReserveManager()\n            .getReserveState();\n        return _checkAndRun(reserveState);\n    }\n\n    /// @dev Burn `amountToBurn` or the whole pool, whichever is smaller. Do proper accounting.\n    function executeBurn(uint256 amountToBurn) internal returns (bool) {\n        globalCheckpoint();\n\n        uint256 _totalUnderlying = totalUnderlying();\n        bool isFullBurn = amountToBurn >=\n            _totalUnderlying.mulDown(FixedPoint.ONE - MAX_PARTIAL_BURN_FACTOR);\n\n        if (isFullBurn) {\n            amountToBurn = _totalUnderlying;\n            fullBurnHistory[nextFullBurnId] = _totalStakedIntegral;\n            ++nextFullBurnId;\n            adjustmentFactor = FixedPoint.ONE;\n\n            // The following makes totalStaked inconsistent with _perUserStaked but this is accounted for in userCheckpoint(), balanceAdjustedOf(), etc.\n            totalStaked = 0;\n        } else {\n            uint256 nextAdjustmentFactor = adjustmentFactor\n                .mulDown(_totalUnderlying - amountToBurn)\n                .divDown(_totalUnderlying);\n            if (nextAdjustmentFactor == 0) {\n                // Handle a potential numerical error when many large partial burns occurred over time. We then prevent\n                // the burn from running to make sure withdrawals don't lock up. This code should never run. Instead,\n                // governance should monitor adjustmentFactor to notice this condition ahead of time, then ask\n                // contributors to withdraw funds, and deploy a new instance of the contract.\n                return false;\n            }\n            adjustmentFactor = nextAdjustmentFactor;\n        }\n\n        gydToken.burn(amountToBurn);\n        emit RecoveryExecuted(amountToBurn, isFullBurn, adjustmentFactor);\n        return true;\n    }\n}\n","sourcePath":"contracts/GydRecovery.sol","type":"contract","deployment":{"address":"0x2A803cE12bE775802a7c6f50797e53E9C3Fd4025","chainid":"1","blockHeight":18427409}}