{"abi":[{"inputs":[{"internalType":"address","name":"_governor","type":"address"},{"internalType":"address","name":"_usdOracle","type":"address"},{"internalType":"address","name":"_relativeOracle","type":"address"},{"internalType":"address","name":"_wethAddress","type":"address"}],"stateMutability":"nonpayable","type":"constructor","name":"constructor"},{"anonymous":false,"inputs":[{"indexed":false,"internalType":"address","name":"_addressToAdd","type":"address"}],"name":"AssetForRelativePriceCheckAdded","type":"event"},{"anonymous":false,"inputs":[{"indexed":false,"internalType":"address","name":"_addressToRemove","type":"address"}],"name":"AssetForRelativePriceCheckRemoved","type":"event"},{"anonymous":false,"inputs":[{"indexed":false,"internalType":"address","name":"assetToAdd","type":"address"}],"name":"AssetsWithIgnorableRelativePriceCheckAdded","type":"event"},{"anonymous":false,"inputs":[{"indexed":false,"internalType":"address","name":"assetToRemove","type":"address"}],"name":"AssetsWithIgnorableRelativePriceCheckRemoved","type":"event"},{"anonymous":false,"inputs":[{"indexed":false,"internalType":"address","name":"newGovernor","type":"address"}],"name":"GovernorChangeRequested","type":"event"},{"anonymous":false,"inputs":[{"indexed":false,"internalType":"address","name":"oldGovernor","type":"address"},{"indexed":false,"internalType":"address","name":"newGovernor","type":"address"}],"name":"GovernorChanged","type":"event"},{"anonymous":false,"inputs":[{"indexed":false,"internalType":"address","name":"_addressToAdd","type":"address"}],"name":"PriceLevelTWAPQuoteAssetAdded","type":"event"},{"anonymous":false,"inputs":[{"indexed":false,"internalType":"address","name":"_addressToRemove","type":"address"}],"name":"PriceLevelTWAPQuoteAssetRemoved","type":"event"},{"anonymous":false,"inputs":[{"indexed":true,"internalType":"address","name":"oracle","type":"address"}],"name":"RelativeOracleUpdated","type":"event"},{"anonymous":false,"inputs":[{"indexed":false,"internalType":"address","name":"_addressToAdd","type":"address"}],"name":"TrustedSignerOracleAdded","type":"event"},{"anonymous":false,"inputs":[{"indexed":false,"internalType":"address","name":"_addressToRemove","type":"address"}],"name":"TrustedSignerOracleRemoved","type":"event"},{"anonymous":false,"inputs":[{"indexed":true,"internalType":"address","name":"oracle","type":"address"}],"name":"USDOracleUpdated","type":"event"},{"inputs":[],"name":"INITIAL_MAX_PCT_WETH_USD_DEVIATION","outputs":[{"internalType":"uint256","name":"","type":"uint256"}],"stateMutability":"view","type":"function"},{"inputs":[],"name":"INITIAL_RELATIVE_EPSILON","outputs":[{"internalType":"uint256","name":"","type":"uint256"}],"stateMutability":"view","type":"function"},{"inputs":[],"name":"MAX_RELATIVE_EPSILON","outputs":[{"internalType":"uint256","name":"","type":"uint256"}],"stateMutability":"view","type":"function"},{"inputs":[],"name":"acceptGovernance","outputs":[],"stateMutability":"nonpayable","type":"function"},{"inputs":[{"internalType":"address","name":"assetToAdd","type":"address"}],"name":"addAssetForRelativePriceCheck","outputs":[],"stateMutability":"nonpayable","type":"function"},{"inputs":[{"internalType":"address","name":"assetToAdd","type":"address"}],"name":"addAssetsWithIgnorableRelativePriceCheck","outputs":[],"stateMutability":"nonpayable","type":"function"},{"inputs":[{"internalType":"address","name":"oracleToAdd","type":"address"}],"name":"addETHPriceOracle","outputs":[],"stateMutability":"nonpayable","type":"function"},{"inputs":[{"internalType":"address","name":"_quoteAssetToAdd","type":"address"}],"name":"addQuoteAssetsForPriceLevelTwap","outputs":[],"stateMutability":"nonpayable","type":"function"},{"inputs":[{"internalType":"address","name":"newGovernor","type":"address"}],"name":"changeGovernor","outputs":[],"stateMutability":"nonpayable","type":"function"},{"inputs":[],"name":"getETHPrices","outputs":[{"internalType":"uint256[]","name":"ethPrices","type":"uint256[]"}],"stateMutability":"view","type":"function"},{"inputs":[{"internalType":"address","name":"tokenAddress","type":"address"}],"name":"getPriceUSD","outputs":[{"internalType":"uint256","name":"","type":"uint256"}],"stateMutability":"view","type":"function"},{"inputs":[{"internalType":"address[]","name":"tokenAddresses","type":"address[]"}],"name":"getPricesUSD","outputs":[{"internalType":"uint256[]","name":"","type":"uint256[]"}],"stateMutability":"view","type":"function"},{"inputs":[{"internalType":"address[]","name":"tokenAddresses","type":"address[]"}],"name":"getPricesUSDWithMetadata","outputs":[{"internalType":"uint256[]","name":"","type":"uint256[]"},{"internalType":"uint256","name":"","type":"uint256"},{"internalType":"uint256[]","name":"","type":"uint256[]"},{"internalType":"uint256[]","name":"","type":"uint256[]"}],"stateMutability":"view","type":"function"},{"inputs":[{"internalType":"uint256[]","name":"signedPrices","type":"uint256[]"},{"internalType":"uint256[]","name":"twapPrices","type":"uint256[]"}],"name":"getRobustWETHPrice","outputs":[{"internalType":"uint256","name":"","type":"uint256"}],"stateMutability":"view","type":"function"},{"inputs":[],"name":"governor","outputs":[{"internalType":"address","name":"","type":"address"}],"stateMutability":"view","type":"function"},{"inputs":[],"name":"listAssetForRelativePriceCheck","outputs":[{"internalType":"address[]","name":"","type":"address[]"}],"stateMutability":"view","type":"function"},{"inputs":[],"name":"listAssetsWithIgnorableRelativePriceCheck","outputs":[{"internalType":"address[]","name":"","type":"address[]"}],"stateMutability":"view","type":"function"},{"inputs":[],"name":"listETHPriceOracles","outputs":[{"internalType":"address[]","name":"","type":"address[]"}],"stateMutability":"view","type":"function"},{"inputs":[],"name":"listQuoteAssetsForPriceLevelTwap","outputs":[{"internalType":"address[]","name":"","type":"address[]"}],"stateMutability":"view","type":"function"},{"inputs":[],"name":"maxPctWethUsdDeviation","outputs":[{"internalType":"uint256","name":"","type":"uint256"}],"stateMutability":"view","type":"function"},{"inputs":[],"name":"pendingGovernor","outputs":[{"internalType":"address","name":"","type":"address"}],"stateMutability":"view","type":"function"},{"inputs":[],"name":"relativeEpsilon","outputs":[{"internalType":"uint256","name":"","type":"uint256"}],"stateMutability":"view","type":"function"},{"inputs":[],"name":"relativeOracle","outputs":[{"internalType":"contract IRelativePriceOracle","name":"","type":"address"}],"stateMutability":"view","type":"function"},{"inputs":[{"internalType":"address","name":"assetToRemove","type":"address"}],"name":"removeAssetForRelativePriceCheck","outputs":[],"stateMutability":"nonpayable","type":"function"},{"inputs":[{"internalType":"address","name":"assetToRemove","type":"address"}],"name":"removeAssetsWithIgnorableRelativePriceCheck","outputs":[],"stateMutability":"nonpayable","type":"function"},{"inputs":[{"internalType":"address","name":"oracleToRemove","type":"address"}],"name":"removeETHPriceOracle","outputs":[],"stateMutability":"nonpayable","type":"function"},{"inputs":[{"internalType":"address","name":"_quoteAssetToRemove","type":"address"}],"name":"removeQuoteAssetsForPriceLevelTwap","outputs":[],"stateMutability":"nonpayable","type":"function"},{"inputs":[{"internalType":"uint256","name":"_maxPctWethUsdDeviation","type":"uint256"}],"name":"setMaxPctWethUsdDeviation","outputs":[],"stateMutability":"nonpayable","type":"function"},{"inputs":[{"internalType":"uint256","name":"_relativeEpsilon","type":"uint256"}],"name":"setRelativeMaxEpsilon","outputs":[],"stateMutability":"nonpayable","type":"function"},{"inputs":[{"internalType":"address","name":"_relativeOracle","type":"address"}],"name":"setRelativeOracle","outputs":[],"stateMutability":"nonpayable","type":"function"},{"inputs":[{"internalType":"address","name":"_usdOracle","type":"address"}],"name":"setUSDOracle","outputs":[],"stateMutability":"nonpayable","type":"function"},{"inputs":[],"name":"usdOracle","outputs":[{"internalType":"contract IUSDPriceOracle","name":"","type":"address"}],"stateMutability":"view","type":"function"},{"inputs":[],"name":"wethAddress","outputs":[{"internalType":"address","name":"","type":"address"}],"stateMutability":"view","type":"function"}],"bytecode":"60a06040523480156200001157600080fd5b506040516200283a3803806200283a833981016040819052620000349162000188565b600080546001600160a01b0319166001600160a01b038616908117825560408051928352602083019190915285917fde4b3f61490b74c0ed6237523974fe299126bbbf8a8a7482fd220104c59b0c84910160405180910390a150604080518082019091526002815261333160f01b60208201526001600160a01b038416620000da5760405162461bcd60e51b8152600401620000d19190620001e5565b60405180910390fd5b50604080518082019091526002815261333160f01b60208201526001600160a01b0383166200011e5760405162461bcd60e51b8152600401620000d19190620001e5565b50600280546001600160a01b03199081166001600160a01b0395861617909155600380549091169284169290921790915566470de4df820000600581905591166080526004555062000235565b80516001600160a01b03811681146200018357600080fd5b919050565b600080600080608085870312156200019f57600080fd5b620001aa856200016b565b9350620001ba602086016200016b565b9250620001ca604086016200016b565b9150620001da606086016200016b565b905092959194509250565b600060208083528351808285015260005b818110156200021457858101830151858201604001528201620001f6565b506000604082860101526040601f19601f8301168501019250505092915050565b6080516125c6620002746000396000818161034001528181610937015281816109d9015281816111ae015281816117b4015261184901526125c66000f3fe608060405234801561001057600080fd5b50600436106101fb5760003560e01c806357ae33891161011a578063d8f4a0aa116100ad578063e4c0aaf41161007c578063e4c0aaf41461041c578063e4dd02c31461042f578063e72a49d014610442578063e7f9e32014610451578063fcb0af8e1461046457600080fd5b8063d8f4a0aa146103e5578063e0dcd3c3146103f8578063e181896014610400578063e3056a341461040957600080fd5b8063a0b90f00116100e9578063a0b90f00146103b6578063aeb00e04146103c9578063b55b3f1b14610245578063c8a4271f146103d257600080fd5b806357ae3389146103755780635fbdc7d414610388578063765aff1e1461039b5780637cd8c1d0146103a357600080fd5b8063317668ff11610192578063442aae7911610161578063442aae791461031557806347f21fb9146103285780634f0e0ef31461033b5780635708447d1461036257600080fd5b8063317668ff146102c45780633750815b146102d75780633bb8c3bc146102df57806342f2316a1461030257600080fd5b80631a14aa8e116101ce5780631a14aa8e14610274578063238efcbc146102895780632af31283146102915780632e191ed7146102b157600080fd5b80630317ca7c146102005780630c340a24146102155780630e428bf414610245578063149bf6e214610261575b600080fd5b61021361020e3660046120a6565b61046c565b005b600054610228906001600160a01b031681565b6040516001600160a01b0390911681526020015b60405180910390f35b61025366470de4df82000081565b60405190815260200161023c565b61021361026f3660046120a6565b610507565b61027c610592565b60405161023c91906120c1565b6102136105a3565b6102a461029f366004612179565b61064c565b60405161023c9190612251565b6102536102bf3660046122ca565b610664565b6102136102d236600461232e565b610788565b61027c6107d3565b6102f26102ed366004612179565b6107df565b60405161023c9493929190612347565b6102136103103660046120a6565b610a85565b600354610228906001600160a01b031681565b6102136103363660046120a6565b610b10565b6102287f000000000000000000000000000000000000000000000000000000000000000081565b6102536103703660046120a6565b610b9b565b61021361038336600461232e565b610c25565b6102136103963660046120a6565b610cea565b61027c610d75565b6102136103b13660046120a6565b610d81565b6102136103c43660046120a6565b610e0c565b61025360045481565b600254610228906001600160a01b031681565b6102136103f33660046120a6565b610e9c565b61027c610f27565b61025360055481565b600154610228906001600160a01b031681565b61021361042a3660046120a6565b610f33565b61021361043d3660046120a6565b611008565b61025367016345785d8a000081565b61021361045f3660046120a6565b611093565b6102a4611123565b600054604080518082019091526002815261033360f41b6020820152906001600160a01b031633146104ba5760405162461bcd60e51b81526004016104b19190612386565b60405180910390fd5b506104c6600a82611339565b506040516001600160a01b03821681527f150f6605e7fc997b9ef5bed4e904eef6e3f887a080d2f7010632435b47f67adc906020015b60405180910390a150565b600054604080518082019091526002815261033360f41b6020820152906001600160a01b0316331461054c5760405162461bcd60e51b81526004016104b19190612386565b50610558600c82611339565b506040516001600160a01b03821681527f42787e5656dab1871f396a5a502afd943ed547a1f540f873f0fc302046dfb4e1906020016104fc565b606061059e6006611355565b905090565b600154604080518082019091526002815261033360f41b6020820152906001600160a01b031633146105e85760405162461bcd60e51b81526004016104b19190612386565b5060008054600180546001600160a01b03198084166001600160a01b03808416919091179095551690556040805192909116808352336020840152917fde4b3f61490b74c0ed6237523974fe299126bbbf8a8a7482fd220104c59b0c8491016104fc565b60606000610659836107df565b509195945050505050565b60008082516000036106815761067984611362565b915050610782565b61068a8361140f565b905060008451600161069c91906123ea565b67ffffffffffffffff8111156106b4576106b461210e565b6040519080825280602002602001820160405280156106dd578160200160208202803683370190505b5090508181600183516106f091906123fd565b8151811061070057610700612410565b60200260200101818152505060005b6001825161071d91906123fd565b81101561076d5785818151811061073657610736612410565b602002602001015182828151811061075057610750612410565b60209081029190910101528061076581612426565b91505061070f565b5061077781611362565b92505050610782565b505b92915050565b600054604080518082019091526002815261033360f41b6020820152906001600160a01b031633146107cd5760405162461bcd60e51b81526004016104b19190612386565b50600455565b606061059e600c611355565b60606000606080600085511160405180604001604052806002815260200161333160f01b815250906108245760405162461bcd60e51b81526004016104b19190612386565b506000855167ffffffffffffffff8111156108415761084161210e565b60405190808252806020026020018201604052801561086a578160200160208202803683370190505b5090506000805b87518110156109b65760025488516001600160a01b0390911690635708447d908a90849081106108a3576108a3612410565b60200260200101516040518263ffffffff1660e01b81526004016108d691906001600160a01b0391909116815260200190565b602060405180830381865afa1580156108f3573d6000803e3d6000fd5b505050506040513d601f19601f82011682018060405250810190610917919061243f565b83828151811061092957610929612410565b6020026020010181815250507f00000000000000000000000000000000000000000000000000000000000000006001600160a01b031688828151811061097157610971612410565b60200260200101516001600160a01b0316036109a45782818151811061099957610999612410565b602002602001015191505b806109ae81612426565b915050610871565b5080600003610a5057600254604051635708447d60e01b81526001600160a01b037f00000000000000000000000000000000000000000000000000000000000000008116600483015290911690635708447d90602401602060405180830381865afa158015610a29573d6000803e3d6000fd5b505050506040513d601f19601f82011682018060405250810190610a4d919061243f565b90505b6000610a5c88846115a9565b90506000610a68611123565b9050610a75838284611a6c565b9298919750919550909350915050565b600054604080518082019091526002815261033360f41b6020820152906001600160a01b03163314610aca5760405162461bcd60e51b81526004016104b19190612386565b50610ad6600682611339565b506040516001600160a01b03821681527fb7f10b8974f181778e2544b4188359b499da116029e96c6a05bed5cdecee1064906020016104fc565b600054604080518082019091526002815261033360f41b6020820152906001600160a01b03163314610b555760405162461bcd60e51b81526004016104b19190612386565b50610b61600682611ad9565b506040516001600160a01b03821681527f8696120fb7656955ec406c2959998de0aa9798518606d5afb5f36789f522dfea906020016104fc565b604080516001808252818301909252600091829190602080830190803683370190505090508281600081518110610bd457610bd4612410565b60200260200101906001600160a01b031690816001600160a01b0316815250506000610bff8261064c565b905080600081518110610c1457610c14612410565b602002602001015192505050919050565b600054604080518082019091526002815261033360f41b6020820152906001600160a01b03163314610c6a5760405162461bcd60e51b81526004016104b19190612386565b50604080518082019091526002815261333160f01b602082015281610ca25760405162461bcd60e51b81526004016104b19190612386565b50604080518082019091526002815261333160f01b602082015267016345785d8a00008210610ce45760405162461bcd60e51b81526004016104b19190612386565b50600555565b600054604080518082019091526002815261033360f41b6020820152906001600160a01b03163314610d2f5760405162461bcd60e51b81526004016104b19190612386565b50610d3b600c82611ad9565b506040516001600160a01b03821681527f97f16989c0ca3c61d0f35531ff27abeb36547d171fa32e2d3a9311ee15a09d2d906020016104fc565b606061059e600a611355565b600054604080518082019091526002815261033360f41b6020820152906001600160a01b03163314610dc65760405162461bcd60e51b81526004016104b19190612386565b50610dd2600a82611ad9565b506040516001600160a01b03821681527fa67cac4de4567bfe36d7fa182b8455fd3e7d1b80c45191dd2b6dd5310a353066906020016104fc565b600054604080518082019091526002815261033360f41b6020820152906001600160a01b03163314610e515760405162461bcd60e51b81526004016104b19190612386565b50600280546001600160a01b0319166001600160a01b0383169081179091556040517f8bdf8e573e1e6b8aba457bd2a4fed210b28b0ed18344a7c4bb4bd1e87f6e1fb790600090a250565b600054604080518082019091526002815261033360f41b6020820152906001600160a01b03163314610ee15760405162461bcd60e51b81526004016104b19190612386565b50610eed600882611ad9565b506040516001600160a01b03821681527f612ac93ad02ac7669d13be8835bb33d5c6d42bb4c46f0cdb717681ebd2b64557906020016104fc565b606061059e6008611355565b600054604080518082019091526002815261033360f41b6020820152906001600160a01b03163314610f785760405162461bcd60e51b81526004016104b19190612386565b50604080518082019091526002815261333160f01b60208201526001600160a01b038216610fb95760405162461bcd60e51b81526004016104b19190612386565b50600180546001600160a01b0319166001600160a01b0383169081179091556040519081527f67235ba2e63c748a35b95c4f92a3bbc2a1389938170a5ce6c9add5d0b03a314a906020016104fc565b600054604080518082019091526002815261033360f41b6020820152906001600160a01b0316331461104d5760405162461bcd60e51b81526004016104b19190612386565b50611059600882611339565b506040516001600160a01b03821681527ffab625e04bc6eeef38aaf5c2e48b1f1953cf5183297f4115f0da9e906d4bf3ac906020016104fc565b600054604080518082019091526002815261033360f41b6020820152906001600160a01b031633146110d85760405162461bcd60e51b81526004016104b19190612386565b50600380546001600160a01b0319166001600160a01b0383169081179091556040517f99e4ac532391c2555b226b3d66f3d643e9256788b0c246834c1aaebfad90bd0190600090a250565b606060006111316006611aee565b67ffffffffffffffff8111156111495761114961210e565b604051908082528060200260200182016040528015611172578160200160208202803683370190505b5090506000805b6111836006611aee565b811015611261576000611197600683611af8565b604051635708447d60e01b81526001600160a01b037f00000000000000000000000000000000000000000000000000000000000000008116600483015291925090821690635708447d90602401602060405180830381865afa92505050801561121d575060408051601f3d908101601f1916820190925261121a9181019061243f565b60015b1561124e5780858561122e81612426565b96508151811061124057611240612410565b602002602001018181525050505b508061125981612426565b915050611179565b50604080518082019091526002815261343960f01b6020820152816112995760405162461bcd60e51b81526004016104b19190612386565b508067ffffffffffffffff8111156112b3576112b361210e565b6040519080825280602002602001820160405280156112dc578160200160208202803683370190505b50925060005b81811015611333578281815181106112fc576112fc612410565b602002602001015184828151811061131657611316612410565b60209081029190910101528061132b81612426565b9150506112e2565b50505090565b600061134e836001600160a01b038416611b04565b9392505050565b6060600061134e83611b53565b600061136d82611baf565b506002825161137c919061246e565b156113ad5781600283516113909190612482565b815181106113a0576113a0612410565b6020026020010151610782565b610782826001600285516113c19190612482565b6113cb91906123fd565b815181106113db576113db612410565b602002602001015183600285516113f29190612482565b8151811061140257611402612410565b6020026020010151611bce565b6000815160010361143c578160008151811061142d5761142d612410565b60200260200101519050919050565b6000808360018151811061145257611452612410565b60200260200101518460008151811061146d5761146d612410565b6020026020010151106114b5578360018151811061148d5761148d612410565b6020026020010151846000815181106114a8576114a8612410565b60200260200101516114ec565b836000815181106114c8576114c8612410565b6020026020010151846001815181106114e3576114e3612410565b60200260200101515b915091508351600203611500575092915050565b60025b84518110156115a1578285828151811061151f5761151f612410565b602002602001015110156115515782915084818151811061154257611542612410565b6020026020010151925061158f565b8185828151811061156457611564612410565b6020026020010151101561158f5784818151811061158457611584612410565b602002602001015191505b8061159981612426565b915050611503565b509392505050565b60606000835167ffffffffffffffff8111156115c7576115c761210e565b6040519080825280602002602001820160405280156115f0578160200160208202803683370190505b5090506000805b85518110156119c6576000805b61160e600a611aee565b811015611943576000611622600a83611af8565b9050806001600160a01b031689858151811061164057611640612410565b60200260200101516001600160a01b031614806116ff575060035489516001600160a01b0390911690639446994a908b908790811061168157611681612410565b6020026020010151836040518363ffffffff1660e01b81526004016116bc9291906001600160a01b0392831681529116602082015260400190565b602060405180830381865afa1580156116d9573d6000803e3d6000fd5b505050506040513d601f19601f820116820180604052508101906116fd9190612496565b155b1561170a5750611931565b60035489516000916001600160a01b031690639b56e6a7908c908890811061173457611734612410565b6020026020010151846040518363ffffffff1660e01b815260040161176f9291906001600160a01b0392831681529116602082015260400190565b602060405180830381865afa15801561178c573d6000803e3d6000fd5b505050506040513d601f19601f820116820180604052508101906117b0919061243f565b90507f00000000000000000000000000000000000000000000000000000000000000006001600160a01b03168a86815181106117ee576117ee612410565b60200260200101516001600160a01b03161480156118125750611812600883611be9565b15611847578087878151811061182a5761182a612410565b60209081029190910101528561183f81612426565b9650506118f2565b7f00000000000000000000000000000000000000000000000000000000000000006001600160a01b0316826001600160a01b03161480156118b057506118b08a868151811061189857611898612410565b60200260200101516008611be990919063ffffffff16565b156118f2576118c7670de0b6b3a764000082611c0b565b8787815181106118d9576118d9612410565b6020908102919091010152856118ee81612426565b9650505b60006118ff838c8c611c76565b90506119258a878151811061191657611916612410565b60200260200101518284611d60565b60019450505050611943565b8061193b81612426565b915050611604565b508080611978575061197887838151811061196057611960612410565b6020026020010151600c611be990919063ffffffff16565b60405180604001604052806002815260200161034360f41b815250906119b15760405162461bcd60e51b81526004016104b19190612386565b505080806119be90612426565b9150506115f7565b5060008167ffffffffffffffff8111156119e2576119e261210e565b604051908082528060200260200182016040528015611a0b578160200160208202803683370190505b50905060005b82811015611a6257838181518110611a2b57611a2b612410565b6020026020010151828281518110611a4557611a45612410565b602090810291909101015280611a5a81612426565b915050611a11565b5095945050505050565b6000611a788383610664565b90506000611a9082611a8a8782611dd2565b90611c0b565b905060045481111560405180604001604052806002815260200161343560f01b81525090611ad15760405162461bcd60e51b81526004016104b19190612386565b505050505050565b600061134e836001600160a01b038416611df5565b6000610782825490565b600061134e8383611ee8565b6000818152600183016020526040812054611b4b57508154600181810184556000848152602080822090930184905584548482528286019093526040902091909155610782565b506000610782565b606081600001805480602002602001604051908101604052809291908181526020018280548015611ba357602002820191906000526020600020905b815481526020019060010190808311611b8f575b50505050509050919050565b6060611bca82600060018551611bc591906123fd565b611f12565b5090565b6000611bdd6002848418612482565b61134e908484166123ea565b6001600160a01b0381166000908152600183016020526040812054151561134e565b604080518082019091526002815261323560f01b602082015260009082611c455760405162461bcd60e51b81526004016104b19190612386565b5082600003611c5657506000610782565b6000611c6a670de0b6b3a7640000856124b8565b90506106798382612482565b6000805b8351811015611ce957846001600160a01b0316848281518110611c9f57611c9f612410565b60200260200101516001600160a01b031603611cd757828181518110611cc757611cc7612410565b602002602001015191505061134e565b80611ce181612426565b915050611c7a565b50600254604051635708447d60e01b81526001600160a01b03868116600483015290911690635708447d90602401602060405180830381865afa158015611d34573d6000803e3d6000fd5b505050506040513d601f19601f82011682018060405250810190611d58919061243f565b949350505050565b6000611d6c8484611c0b565b90506000611d7a8383611dd2565b90506000611d888285611c0b565b905060055481111560405180604001604052806002815260200161343160f01b81525090611dc95760405162461bcd60e51b81526004016104b19190612386565b50505050505050565b600081831015611deb57611de683836123fd565b61134e565b61134e82846123fd565b60008181526001830160205260408120548015611ede576000611e196001836123fd565b8554909150600090611e2d906001906123fd565b9050818114611e92576000866000018281548110611e4d57611e4d612410565b9060005260206000200154905080876000018481548110611e7057611e70612410565b6000918252602080832090910192909255918252600188019052604090208390555b8554869080611ea357611ea36124cf565b600190038181906000526020600020016000905590558560010160008681526020019081526020016000206000905560019350505050610782565b6000915050610782565b6000826000018281548110611eff57611eff612410565b9060005260206000200154905092915050565b8181808203611f22575050505050565b6000856002611f3187876124e5565b611f3b9190612505565b611f459087612533565b81518110611f5557611f55612410565b602002602001015190505b818313612064575b80868481518110611f7b57611f7b612410565b60200260200101511015611f9b5782611f938161255b565b935050611f68565b858281518110611fad57611fad612410565b6020026020010151811015611fce5781611fc681612573565b925050611f9b565b81831361205f57858281518110611fe757611fe7612410565b602002602001015186848151811061200157612001612410565b602002602001015187858151811061201b5761201b612410565b6020026020010188858151811061203457612034612410565b6020908102919091010191909152528261204d8161255b565b935050818061205b90612573565b9250505b611f60565b8185121561207757612077868684611f12565b83831215611ad157611ad1868486611f12565b80356001600160a01b03811681146120a157600080fd5b919050565b6000602082840312156120b857600080fd5b61134e8261208a565b6020808252825182820181905260009190848201906040850190845b818110156121025783516001600160a01b0316835292840192918401916001016120dd565b50909695505050505050565b634e487b7160e01b600052604160045260246000fd5b604051601f8201601f1916810167ffffffffffffffff8111828210171561214d5761214d61210e565b604052919050565b600067ffffffffffffffff82111561216f5761216f61210e565b5060051b60200190565b6000602080838503121561218c57600080fd5b823567ffffffffffffffff8111156121a357600080fd5b8301601f810185136121b457600080fd5b80356121c76121c282612155565b612124565b81815260059190911b820183019083810190878311156121e657600080fd5b928401925b8284101561220b576121fc8461208a565b825292840192908401906121eb565b979650505050505050565b600081518084526020808501945080840160005b838110156122465781518752958201959082019060010161222a565b509495945050505050565b60208152600061134e6020830184612216565b600082601f83011261227557600080fd5b813560206122856121c283612155565b82815260059290921b840181019181810190868411156122a457600080fd5b8286015b848110156122bf57803583529183019183016122a8565b509695505050505050565b600080604083850312156122dd57600080fd5b823567ffffffffffffffff808211156122f557600080fd5b61230186838701612264565b9350602085013591508082111561231757600080fd5b5061232485828601612264565b9150509250929050565b60006020828403121561234057600080fd5b5035919050565b60808152600061235a6080830187612216565b85602084015282810360408401526123728186612216565b9050828103606084015261220b8185612216565b600060208083528351808285015260005b818110156123b357858101830151858201604001528201612397565b506000604082860101526040601f19601f8301168501019250505092915050565b634e487b7160e01b600052601160045260246000fd5b80820180821115610782576107826123d4565b81810381811115610782576107826123d4565b634e487b7160e01b600052603260045260246000fd5b600060018201612438576124386123d4565b5060010190565b60006020828403121561245157600080fd5b5051919050565b634e487b7160e01b600052601260045260246000fd5b60008261247d5761247d612458565b500690565b60008261249157612491612458565b500490565b6000602082840312156124a857600080fd5b8151801515811461134e57600080fd5b8082028115828204841417610782576107826123d4565b634e487b7160e01b600052603160045260246000fd5b8181036000831280158383131683831282161715610780576107806123d4565b60008261251457612514612458565b600160ff1b82146000198414161561252e5761252e6123d4565b500590565b8082018281126000831280158216821582161715612553576125536123d4565b505092915050565b60006001600160ff1b018201612438576124386123d4565b6000600160ff1b8201612588576125886123d4565b50600019019056fea264697066735822122041e3aa107b0e8cb16b7739d448091833e8c90b0538e6cfe1e9087deda1bb43b264736f6c63430008110033","bytecodeSha1":"c9a7c889a070ba5cb253073e60c196391909b4be","compiler":{"evm_version":"london","optimizer":{"enabled":true,"runs":200},"version":"0.8.17+commit.8df45f5f"},"contractName":"CheckedPriceOracle","language":"Solidity","natspec":{"kind":"dev","methods":{"acceptGovernance()":{"notice":"Called by the pending governor to approve the change"},"changeGovernor(address)":{"notice":"Changes the governor can only be called by the current governor"},"constructor":{"notice":"_usdOracle is for Chainlink"},"getPriceUSD(address)":{"notice":"Quotes the USD price of `tokenAddress` The quoted price is always scaled with 18 decimals regardless of the source used for the oracle.","params":{"tokenAddress":"the asset of which the price is to be quoted"},"returns":{"_0":"the USD price of the asset"}},"getPricesUSD(address[])":{"notice":"Quotes the USD price of `baseAssets` The quoted prices is always scaled with 18 decimals regardless of the source used for the oracle.","params":{"baseAssets":"the assets of which the price is to be quoted"},"returns":{"_0":"the USD prices of the asset"}},"getRobustWETHPrice(uint256[],uint256[])":{"notice":"this function provides an estimate of the true WETH price. 1. Find the minimum TWAP price (or second minumum if >2 TWAP prices) from a given array. 2. Add this to an array of signed prices 3. Compute the median of this array","params":{"signedPrices":"an array of prices from trusted providers (e.g. Chainlink, Coinbase, OKEx ETH/USD price)","twapPrices":"an array of Time Weighted Moving Average ETH/stablecoin prices"}},"governor()":{"notice":"Returns the current governor"},"pendingGovernor()":{"notice":"Returns the pending governor"}},"stateVariables":{"assetsForRelativePriceCheck":{"details":"This list is used to check if the relative price of the tokens are consistent"},"assetsWithIgnorableRelativePriceCheck":{"details":"Assets in this list are not required to have a relative price"}},"version":1},"opcodes":"PUSH1 0x80 PUSH1 0x40 MSTORE CALLVALUE DUP1 ISZERO PUSH2 0x10 JUMPI PUSH1 0x0 DUP1 REVERT JUMPDEST POP PUSH1 0x4 CALLDATASIZE LT PUSH2 0x1FB JUMPI PUSH1 0x0 CALLDATALOAD PUSH1 0xE0 SHR DUP1 PUSH4 0x57AE3389 GT PUSH2 0x11A JUMPI DUP1 PUSH4 0xD8F4A0AA GT PUSH2 0xAD JUMPI DUP1 PUSH4 0xE4C0AAF4 GT PUSH2 0x7C JUMPI DUP1 PUSH4 0xE4C0AAF4 EQ PUSH2 0x41C JUMPI DUP1 PUSH4 0xE4DD02C3 EQ PUSH2 0x42F JUMPI DUP1 PUSH4 0xE72A49D0 EQ PUSH2 0x442 JUMPI DUP1 PUSH4 0xE7F9E320 EQ PUSH2 0x451 JUMPI DUP1 PUSH4 0xFCB0AF8E EQ PUSH2 0x464 JUMPI PUSH1 0x0 DUP1 REVERT JUMPDEST DUP1 PUSH4 0xD8F4A0AA EQ PUSH2 0x3E5 JUMPI DUP1 PUSH4 0xE0DCD3C3 EQ PUSH2 0x3F8 JUMPI DUP1 PUSH4 0xE1818960 EQ PUSH2 0x400 JUMPI DUP1 PUSH4 0xE3056A34 EQ PUSH2 0x409 JUMPI PUSH1 0x0 DUP1 REVERT JUMPDEST DUP1 PUSH4 0xA0B90F00 GT PUSH2 0xE9 JUMPI DUP1 PUSH4 0xA0B90F00 EQ PUSH2 0x3B6 JUMPI DUP1 PUSH4 0xAEB00E04 EQ PUSH2 0x3C9 JUMPI DUP1 PUSH4 0xB55B3F1B EQ PUSH2 0x245 JUMPI DUP1 PUSH4 0xC8A4271F EQ PUSH2 0x3D2 JUMPI PUSH1 0x0 DUP1 REVERT JUMPDEST DUP1 PUSH4 0x57AE3389 EQ PUSH2 0x375 JUMPI DUP1 PUSH4 0x5FBDC7D4 EQ PUSH2 0x388 JUMPI DUP1 PUSH4 0x765AFF1E EQ PUSH2 0x39B JUMPI DUP1 PUSH4 0x7CD8C1D0 EQ PUSH2 0x3A3 JUMPI PUSH1 0x0 DUP1 REVERT JUMPDEST DUP1 PUSH4 0x317668FF GT PUSH2 0x192 JUMPI DUP1 PUSH4 0x442AAE79 GT PUSH2 0x161 JUMPI DUP1 PUSH4 0x442AAE79 EQ PUSH2 0x315 JUMPI DUP1 PUSH4 0x47F21FB9 EQ PUSH2 0x328 JUMPI DUP1 PUSH4 0x4F0E0EF3 EQ PUSH2 0x33B JUMPI DUP1 PUSH4 0x5708447D EQ PUSH2 0x362 JUMPI PUSH1 0x0 DUP1 REVERT JUMPDEST DUP1 PUSH4 0x317668FF EQ PUSH2 0x2C4 JUMPI DUP1 PUSH4 0x3750815B EQ PUSH2 0x2D7 JUMPI DUP1 PUSH4 0x3BB8C3BC EQ PUSH2 0x2DF JUMPI DUP1 PUSH4 0x42F2316A EQ PUSH2 0x302 JUMPI PUSH1 0x0 DUP1 REVERT JUMPDEST DUP1 PUSH4 0x1A14AA8E GT PUSH2 0x1CE JUMPI DUP1 PUSH4 0x1A14AA8E EQ PUSH2 0x274 JUMPI DUP1 PUSH4 0x238EFCBC EQ PUSH2 0x289 JUMPI DUP1 PUSH4 0x2AF31283 EQ PUSH2 0x291 JUMPI DUP1 PUSH4 0x2E191ED7 EQ PUSH2 0x2B1 JUMPI PUSH1 0x0 DUP1 REVERT JUMPDEST DUP1 PUSH4 0x317CA7C EQ PUSH2 0x200 JUMPI DUP1 PUSH4 0xC340A24 EQ PUSH2 0x215 JUMPI DUP1 PUSH4 0xE428BF4 EQ PUSH2 0x245 JUMPI DUP1 PUSH4 0x149BF6E2 EQ PUSH2 0x261 JUMPI JUMPDEST PUSH1 0x0 DUP1 REVERT JUMPDEST PUSH2 0x213 PUSH2 0x20E CALLDATASIZE PUSH1 0x4 PUSH2 0x20A6 JUMP JUMPDEST PUSH2 0x46C JUMP JUMPDEST STOP JUMPDEST PUSH1 0x0 SLOAD PUSH2 0x228 SWAP1 PUSH1 0x1 PUSH1 0x1 PUSH1 0xA0 SHL SUB AND DUP2 JUMP JUMPDEST PUSH1 0x40 MLOAD PUSH1 0x1 PUSH1 0x1 PUSH1 0xA0 SHL SUB SWAP1 SWAP2 AND DUP2 MSTORE PUSH1 0x20 ADD JUMPDEST PUSH1 0x40 MLOAD DUP1 SWAP2 SUB SWAP1 RETURN JUMPDEST PUSH2 0x253 PUSH7 0x470DE4DF820000 DUP2 JUMP JUMPDEST PUSH1 0x40 MLOAD SWAP1 DUP2 MSTORE PUSH1 0x20 ADD PUSH2 0x23C JUMP JUMPDEST PUSH2 0x213 PUSH2 0x26F CALLDATASIZE PUSH1 0x4 PUSH2 0x20A6 JUMP JUMPDEST PUSH2 0x507 JUMP JUMPDEST PUSH2 0x27C PUSH2 0x592 JUMP JUMPDEST PUSH1 0x40 MLOAD PUSH2 0x23C SWAP2 SWAP1 PUSH2 0x20C1 JUMP JUMPDEST PUSH2 0x213 PUSH2 0x5A3 JUMP JUMPDEST PUSH2 0x2A4 PUSH2 0x29F CALLDATASIZE PUSH1 0x4 PUSH2 0x2179 JUMP JUMPDEST PUSH2 0x64C JUMP JUMPDEST PUSH1 0x40 MLOAD PUSH2 0x23C SWAP2 SWAP1 PUSH2 0x2251 JUMP JUMPDEST PUSH2 0x253 PUSH2 0x2BF CALLDATASIZE PUSH1 0x4 PUSH2 0x22CA JUMP JUMPDEST PUSH2 0x664 JUMP JUMPDEST PUSH2 0x213 PUSH2 0x2D2 CALLDATASIZE PUSH1 0x4 PUSH2 0x232E JUMP JUMPDEST PUSH2 0x788 JUMP JUMPDEST PUSH2 0x27C PUSH2 0x7D3 JUMP JUMPDEST PUSH2 0x2F2 PUSH2 0x2ED CALLDATASIZE PUSH1 0x4 PUSH2 0x2179 JUMP JUMPDEST PUSH2 0x7DF JUMP JUMPDEST PUSH1 0x40 MLOAD PUSH2 0x23C SWAP5 SWAP4 SWAP3 SWAP2 SWAP1 PUSH2 0x2347 JUMP JUMPDEST PUSH2 0x213 PUSH2 0x310 CALLDATASIZE PUSH1 0x4 PUSH2 0x20A6 JUMP JUMPDEST PUSH2 0xA85 JUMP JUMPDEST PUSH1 0x3 SLOAD PUSH2 0x228 SWAP1 PUSH1 0x1 PUSH1 0x1 PUSH1 0xA0 SHL SUB AND DUP2 JUMP JUMPDEST PUSH2 0x213 PUSH2 0x336 CALLDATASIZE PUSH1 0x4 PUSH2 0x20A6 JUMP JUMPDEST PUSH2 0xB10 JUMP JUMPDEST PUSH2 0x228 PUSH32 0x0 DUP2 JUMP JUMPDEST PUSH2 0x253 PUSH2 0x370 CALLDATASIZE PUSH1 0x4 PUSH2 0x20A6 JUMP JUMPDEST PUSH2 0xB9B JUMP JUMPDEST PUSH2 0x213 PUSH2 0x383 CALLDATASIZE PUSH1 0x4 PUSH2 0x232E JUMP JUMPDEST PUSH2 0xC25 JUMP JUMPDEST PUSH2 0x213 PUSH2 0x396 CALLDATASIZE PUSH1 0x4 PUSH2 0x20A6 JUMP JUMPDEST PUSH2 0xCEA JUMP JUMPDEST PUSH2 0x27C PUSH2 0xD75 JUMP JUMPDEST PUSH2 0x213 PUSH2 0x3B1 CALLDATASIZE PUSH1 0x4 PUSH2 0x20A6 JUMP JUMPDEST PUSH2 0xD81 JUMP JUMPDEST PUSH2 0x213 PUSH2 0x3C4 CALLDATASIZE PUSH1 0x4 PUSH2 0x20A6 JUMP JUMPDEST PUSH2 0xE0C JUMP JUMPDEST PUSH2 0x253 PUSH1 0x4 SLOAD DUP2 JUMP JUMPDEST PUSH1 0x2 SLOAD PUSH2 0x228 SWAP1 PUSH1 0x1 PUSH1 0x1 PUSH1 0xA0 SHL SUB AND DUP2 JUMP JUMPDEST PUSH2 0x213 PUSH2 0x3F3 CALLDATASIZE PUSH1 0x4 PUSH2 0x20A6 JUMP JUMPDEST PUSH2 0xE9C JUMP JUMPDEST PUSH2 0x27C PUSH2 0xF27 JUMP JUMPDEST PUSH2 0x253 PUSH1 0x5 SLOAD DUP2 JUMP JUMPDEST PUSH1 0x1 SLOAD PUSH2 0x228 SWAP1 PUSH1 0x1 PUSH1 0x1 PUSH1 0xA0 SHL SUB AND DUP2 JUMP JUMPDEST PUSH2 0x213 PUSH2 0x42A CALLDATASIZE PUSH1 0x4 PUSH2 0x20A6 JUMP JUMPDEST PUSH2 0xF33 JUMP JUMPDEST PUSH2 0x213 PUSH2 0x43D CALLDATASIZE PUSH1 0x4 PUSH2 0x20A6 JUMP JUMPDEST PUSH2 0x1008 JUMP JUMPDEST PUSH2 0x253 PUSH8 0x16345785D8A0000 DUP2 JUMP JUMPDEST PUSH2 0x213 PUSH2 0x45F CALLDATASIZE PUSH1 0x4 PUSH2 0x20A6 JUMP JUMPDEST PUSH2 0x1093 JUMP JUMPDEST PUSH2 0x2A4 PUSH2 0x1123 JUMP JUMPDEST PUSH1 0x0 SLOAD PUSH1 0x40 DUP1 MLOAD DUP1 DUP3 ADD SWAP1 SWAP2 MSTORE PUSH1 0x2 DUP2 MSTORE PUSH2 0x333 PUSH1 0xF4 SHL PUSH1 0x20 DUP3 ADD MSTORE SWAP1 PUSH1 0x1 PUSH1 0x1 PUSH1 0xA0 SHL SUB AND CALLER EQ PUSH2 0x4BA JUMPI PUSH1 0x40 MLOAD PUSH3 0x461BCD PUSH1 0xE5 SHL DUP2 MSTORE PUSH1 0x4 ADD PUSH2 0x4B1 SWAP2 SWAP1 PUSH2 0x2386 JUMP JUMPDEST PUSH1 0x40 MLOAD DUP1 SWAP2 SUB SWAP1 REVERT JUMPDEST POP PUSH2 0x4C6 PUSH1 0xA DUP3 PUSH2 0x1339 JUMP JUMPDEST POP PUSH1 0x40 MLOAD PUSH1 0x1 PUSH1 0x1 PUSH1 0xA0 SHL SUB DUP3 AND DUP2 MSTORE PUSH32 0x150F6605E7FC997B9EF5BED4E904EEF6E3F887A080D2F7010632435B47F67ADC SWAP1 PUSH1 0x20 ADD JUMPDEST PUSH1 0x40 MLOAD DUP1 SWAP2 SUB SWAP1 LOG1 POP JUMP JUMPDEST PUSH1 0x0 SLOAD PUSH1 0x40 DUP1 MLOAD DUP1 DUP3 ADD SWAP1 SWAP2 MSTORE PUSH1 0x2 DUP2 MSTORE PUSH2 0x333 PUSH1 0xF4 SHL PUSH1 0x20 DUP3 ADD MSTORE SWAP1 PUSH1 0x1 PUSH1 0x1 PUSH1 0xA0 SHL SUB AND CALLER EQ PUSH2 0x54C JUMPI PUSH1 0x40 MLOAD PUSH3 0x461BCD PUSH1 0xE5 SHL DUP2 MSTORE PUSH1 0x4 ADD PUSH2 0x4B1 SWAP2 SWAP1 PUSH2 0x2386 JUMP JUMPDEST POP PUSH2 0x558 PUSH1 0xC DUP3 PUSH2 0x1339 JUMP JUMPDEST POP PUSH1 0x40 MLOAD PUSH1 0x1 PUSH1 0x1 PUSH1 0xA0 SHL SUB DUP3 AND DUP2 MSTORE PUSH32 0x42787E5656DAB1871F396A5A502AFD943ED547A1F540F873F0FC302046DFB4E1 SWAP1 PUSH1 0x20 ADD PUSH2 0x4FC JUMP JUMPDEST PUSH1 0x60 PUSH2 0x59E PUSH1 0x6 PUSH2 0x1355 JUMP JUMPDEST SWAP1 POP SWAP1 JUMP JUMPDEST PUSH1 0x1 SLOAD PUSH1 0x40 DUP1 MLOAD DUP1 DUP3 ADD SWAP1 SWAP2 MSTORE PUSH1 0x2 DUP2 MSTORE PUSH2 0x333 PUSH1 0xF4 SHL PUSH1 0x20 DUP3 ADD MSTORE SWAP1 PUSH1 0x1 PUSH1 0x1 PUSH1 0xA0 SHL SUB AND CALLER EQ PUSH2 0x5E8 JUMPI PUSH1 0x40 MLOAD PUSH3 0x461BCD PUSH1 0xE5 SHL DUP2 MSTORE PUSH1 0x4 ADD PUSH2 0x4B1 SWAP2 SWAP1 PUSH2 0x2386 JUMP JUMPDEST POP PUSH1 0x0 DUP1 SLOAD PUSH1 0x1 DUP1 SLOAD PUSH1 0x1 PUSH1 0x1 PUSH1 0xA0 SHL SUB NOT DUP1 DUP5 AND PUSH1 0x1 PUSH1 0x1 PUSH1 0xA0 SHL SUB DUP1 DUP5 AND SWAP2 SWAP1 SWAP2 OR SWAP1 SWAP6 SSTORE AND SWAP1 SSTORE PUSH1 0x40 DUP1 MLOAD SWAP3 SWAP1 SWAP2 AND DUP1 DUP4 MSTORE CALLER PUSH1 0x20 DUP5 ADD MSTORE SWAP2 PUSH32 0xDE4B3F61490B74C0ED6237523974FE299126BBBF8A8A7482FD220104C59B0C84 SWAP2 ADD PUSH2 0x4FC JUMP JUMPDEST PUSH1 0x60 PUSH1 0x0 PUSH2 0x659 DUP4 PUSH2 0x7DF JUMP JUMPDEST POP SWAP2 SWAP6 SWAP5 POP POP POP POP POP JUMP JUMPDEST PUSH1 0x0 DUP1 DUP3 MLOAD PUSH1 0x0 SUB PUSH2 0x681 JUMPI PUSH2 0x679 DUP5 PUSH2 0x1362 JUMP JUMPDEST SWAP2 POP POP PUSH2 0x782 JUMP JUMPDEST PUSH2 0x68A DUP4 PUSH2 0x140F JUMP JUMPDEST SWAP1 POP PUSH1 0x0 DUP5 MLOAD PUSH1 0x1 PUSH2 0x69C SWAP2 SWAP1 PUSH2 0x23EA JUMP JUMPDEST PUSH8 0xFFFFFFFFFFFFFFFF DUP2 GT ISZERO PUSH2 0x6B4 JUMPI PUSH2 0x6B4 PUSH2 0x210E JUMP JUMPDEST PUSH1 0x40 MLOAD SWAP1 DUP1 DUP3 MSTORE DUP1 PUSH1 0x20 MUL PUSH1 0x20 ADD DUP3 ADD PUSH1 0x40 MSTORE DUP1 ISZERO PUSH2 0x6DD JUMPI DUP2 PUSH1 0x20 ADD PUSH1 0x20 DUP3 MUL DUP1 CALLDATASIZE DUP4 CALLDATACOPY ADD SWAP1 POP JUMPDEST POP SWAP1 POP DUP2 DUP2 PUSH1 0x1 DUP4 MLOAD PUSH2 0x6F0 SWAP2 SWAP1 PUSH2 0x23FD JUMP JUMPDEST DUP2 MLOAD DUP2 LT PUSH2 0x700 JUMPI PUSH2 0x700 PUSH2 0x2410 JUMP JUMPDEST PUSH1 0x20 MUL PUSH1 0x20 ADD ADD DUP2 DUP2 MSTORE POP POP PUSH1 0x0 JUMPDEST PUSH1 0x1 DUP3 MLOAD PUSH2 0x71D SWAP2 SWAP1 PUSH2 0x23FD JUMP JUMPDEST DUP2 LT ISZERO PUSH2 0x76D JUMPI DUP6 DUP2 DUP2 MLOAD DUP2 LT PUSH2 0x736 JUMPI PUSH2 0x736 PUSH2 0x2410 JUMP JUMPDEST PUSH1 0x20 MUL PUSH1 0x20 ADD ADD MLOAD DUP3 DUP3 DUP2 MLOAD DUP2 LT PUSH2 0x750 JUMPI PUSH2 0x750 PUSH2 0x2410 JUMP JUMPDEST PUSH1 0x20 SWAP1 DUP2 MUL SWAP2 SWAP1 SWAP2 ADD ADD MSTORE DUP1 PUSH2 0x765 DUP2 PUSH2 0x2426 JUMP JUMPDEST SWAP2 POP POP PUSH2 0x70F JUMP JUMPDEST POP PUSH2 0x777 DUP2 PUSH2 0x1362 JUMP JUMPDEST SWAP3 POP POP POP PUSH2 0x782 JUMP JUMPDEST POP JUMPDEST SWAP3 SWAP2 POP POP JUMP JUMPDEST PUSH1 0x0 SLOAD PUSH1 0x40 DUP1 MLOAD DUP1 DUP3 ADD SWAP1 SWAP2 MSTORE PUSH1 0x2 DUP2 MSTORE PUSH2 0x333 PUSH1 0xF4 SHL PUSH1 0x20 DUP3 ADD MSTORE SWAP1 PUSH1 0x1 PUSH1 0x1 PUSH1 0xA0 SHL SUB AND CALLER EQ PUSH2 0x7CD JUMPI PUSH1 0x40 MLOAD PUSH3 0x461BCD PUSH1 0xE5 SHL DUP2 MSTORE PUSH1 0x4 ADD PUSH2 0x4B1 SWAP2 SWAP1 PUSH2 0x2386 JUMP JUMPDEST POP PUSH1 0x4 SSTORE JUMP JUMPDEST PUSH1 0x60 PUSH2 0x59E PUSH1 0xC PUSH2 0x1355 JUMP JUMPDEST PUSH1 0x60 PUSH1 0x0 PUSH1 0x60 DUP1 PUSH1 0x0 DUP6 MLOAD GT PUSH1 0x40 MLOAD DUP1 PUSH1 0x40 ADD PUSH1 0x40 MSTORE DUP1 PUSH1 0x2 DUP2 MSTORE PUSH1 0x20 ADD PUSH2 0x3331 PUSH1 0xF0 SHL DUP2 MSTORE POP SWAP1 PUSH2 0x824 JUMPI PUSH1 0x40 MLOAD PUSH3 0x461BCD PUSH1 0xE5 SHL DUP2 MSTORE PUSH1 0x4 ADD PUSH2 0x4B1 SWAP2 SWAP1 PUSH2 0x2386 JUMP JUMPDEST POP PUSH1 0x0 DUP6 MLOAD PUSH8 0xFFFFFFFFFFFFFFFF DUP2 GT ISZERO PUSH2 0x841 JUMPI PUSH2 0x841 PUSH2 0x210E JUMP JUMPDEST PUSH1 0x40 MLOAD SWAP1 DUP1 DUP3 MSTORE DUP1 PUSH1 0x20 MUL PUSH1 0x20 ADD DUP3 ADD PUSH1 0x40 MSTORE DUP1 ISZERO PUSH2 0x86A JUMPI DUP2 PUSH1 0x20 ADD PUSH1 0x20 DUP3 MUL DUP1 CALLDATASIZE DUP4 CALLDATACOPY ADD SWAP1 POP JUMPDEST POP SWAP1 POP PUSH1 0x0 DUP1 JUMPDEST DUP8 MLOAD DUP2 LT ISZERO PUSH2 0x9B6 JUMPI PUSH1 0x2 SLOAD DUP9 MLOAD PUSH1 0x1 PUSH1 0x1 PUSH1 0xA0 SHL SUB SWAP1 SWAP2 AND SWAP1 PUSH4 0x5708447D SWAP1 DUP11 SWAP1 DUP5 SWAP1 DUP2 LT PUSH2 0x8A3 JUMPI PUSH2 0x8A3 PUSH2 0x2410 JUMP JUMPDEST PUSH1 0x20 MUL PUSH1 0x20 ADD ADD MLOAD PUSH1 0x40 MLOAD DUP3 PUSH4 0xFFFFFFFF AND PUSH1 0xE0 SHL DUP2 MSTORE PUSH1 0x4 ADD PUSH2 0x8D6 SWAP2 SWAP1 PUSH1 0x1 PUSH1 0x1 PUSH1 0xA0 SHL SUB SWAP2 SWAP1 SWAP2 AND DUP2 MSTORE PUSH1 0x20 ADD SWAP1 JUMP JUMPDEST PUSH1 0x20 PUSH1 0x40 MLOAD DUP1 DUP4 SUB DUP2 DUP7 GAS STATICCALL ISZERO DUP1 ISZERO PUSH2 0x8F3 JUMPI RETURNDATASIZE PUSH1 0x0 DUP1 RETURNDATACOPY RETURNDATASIZE PUSH1 0x0 REVERT JUMPDEST POP POP POP POP PUSH1 0x40 MLOAD RETURNDATASIZE PUSH1 0x1F NOT PUSH1 0x1F DUP3 ADD AND DUP3 ADD DUP1 PUSH1 0x40 MSTORE POP DUP2 ADD SWAP1 PUSH2 0x917 SWAP2 SWAP1 PUSH2 0x243F JUMP JUMPDEST DUP4 DUP3 DUP2 MLOAD DUP2 LT PUSH2 0x929 JUMPI PUSH2 0x929 PUSH2 0x2410 JUMP JUMPDEST PUSH1 0x20 MUL PUSH1 0x20 ADD ADD DUP2 DUP2 MSTORE POP POP PUSH32 0x0 PUSH1 0x1 PUSH1 0x1 PUSH1 0xA0 SHL SUB AND DUP9 DUP3 DUP2 MLOAD DUP2 LT PUSH2 0x971 JUMPI PUSH2 0x971 PUSH2 0x2410 JUMP JUMPDEST PUSH1 0x20 MUL PUSH1 0x20 ADD ADD MLOAD PUSH1 0x1 PUSH1 0x1 PUSH1 0xA0 SHL SUB AND SUB PUSH2 0x9A4 JUMPI DUP3 DUP2 DUP2 MLOAD DUP2 LT PUSH2 0x999 JUMPI PUSH2 0x999 PUSH2 0x2410 JUMP JUMPDEST PUSH1 0x20 MUL PUSH1 0x20 ADD ADD MLOAD SWAP2 POP JUMPDEST DUP1 PUSH2 0x9AE DUP2 PUSH2 0x2426 JUMP JUMPDEST SWAP2 POP POP PUSH2 0x871 JUMP JUMPDEST POP DUP1 PUSH1 0x0 SUB PUSH2 0xA50 JUMPI PUSH1 0x2 SLOAD PUSH1 0x40 MLOAD PUSH4 0x5708447D PUSH1 0xE0 SHL DUP2 MSTORE PUSH1 0x1 PUSH1 0x1 PUSH1 0xA0 SHL SUB PUSH32 0x0 DUP2 AND PUSH1 0x4 DUP4 ADD MSTORE SWAP1 SWAP2 AND SWAP1 PUSH4 0x5708447D SWAP1 PUSH1 0x24 ADD PUSH1 0x20 PUSH1 0x40 MLOAD DUP1 DUP4 SUB DUP2 DUP7 GAS STATICCALL ISZERO DUP1 ISZERO PUSH2 0xA29 JUMPI RETURNDATASIZE PUSH1 0x0 DUP1 RETURNDATACOPY RETURNDATASIZE PUSH1 0x0 REVERT JUMPDEST POP POP POP POP PUSH1 0x40 MLOAD RETURNDATASIZE PUSH1 0x1F NOT PUSH1 0x1F DUP3 ADD AND DUP3 ADD DUP1 PUSH1 0x40 MSTORE POP DUP2 ADD SWAP1 PUSH2 0xA4D SWAP2 SWAP1 PUSH2 0x243F JUMP JUMPDEST SWAP1 POP JUMPDEST PUSH1 0x0 PUSH2 0xA5C DUP9 DUP5 PUSH2 0x15A9 JUMP JUMPDEST SWAP1 POP PUSH1 0x0 PUSH2 0xA68 PUSH2 0x1123 JUMP JUMPDEST SWAP1 POP PUSH2 0xA75 DUP4 DUP3 DUP5 PUSH2 0x1A6C JUMP JUMPDEST SWAP3 SWAP9 SWAP2 SWAP8 POP SWAP2 SWAP6 POP SWAP1 SWAP4 POP SWAP2 POP POP JUMP JUMPDEST PUSH1 0x0 SLOAD PUSH1 0x40 DUP1 MLOAD DUP1 DUP3 ADD SWAP1 SWAP2 MSTORE PUSH1 0x2 DUP2 MSTORE PUSH2 0x333 PUSH1 0xF4 SHL PUSH1 0x20 DUP3 ADD MSTORE SWAP1 PUSH1 0x1 PUSH1 0x1 PUSH1 0xA0 SHL SUB AND CALLER EQ PUSH2 0xACA JUMPI PUSH1 0x40 MLOAD PUSH3 0x461BCD PUSH1 0xE5 SHL DUP2 MSTORE PUSH1 0x4 ADD PUSH2 0x4B1 SWAP2 SWAP1 PUSH2 0x2386 JUMP JUMPDEST POP PUSH2 0xAD6 PUSH1 0x6 DUP3 PUSH2 0x1339 JUMP JUMPDEST POP PUSH1 0x40 MLOAD PUSH1 0x1 PUSH1 0x1 PUSH1 0xA0 SHL SUB DUP3 AND DUP2 MSTORE PUSH32 0xB7F10B8974F181778E2544B4188359B499DA116029E96C6A05BED5CDECEE1064 SWAP1 PUSH1 0x20 ADD PUSH2 0x4FC JUMP JUMPDEST PUSH1 0x0 SLOAD PUSH1 0x40 DUP1 MLOAD DUP1 DUP3 ADD SWAP1 SWAP2 MSTORE PUSH1 0x2 DUP2 MSTORE PUSH2 0x333 PUSH1 0xF4 SHL PUSH1 0x20 DUP3 ADD MSTORE SWAP1 PUSH1 0x1 PUSH1 0x1 PUSH1 0xA0 SHL SUB AND CALLER EQ PUSH2 0xB55 JUMPI PUSH1 0x40 MLOAD PUSH3 0x461BCD PUSH1 0xE5 SHL DUP2 MSTORE PUSH1 0x4 ADD PUSH2 0x4B1 SWAP2 SWAP1 PUSH2 0x2386 JUMP JUMPDEST POP PUSH2 0xB61 PUSH1 0x6 DUP3 PUSH2 0x1AD9 JUMP JUMPDEST POP PUSH1 0x40 MLOAD PUSH1 0x1 PUSH1 0x1 PUSH1 0xA0 SHL SUB DUP3 AND DUP2 MSTORE PUSH32 0x8696120FB7656955EC406C2959998DE0AA9798518606D5AFB5F36789F522DFEA SWAP1 PUSH1 0x20 ADD PUSH2 0x4FC JUMP JUMPDEST PUSH1 0x40 DUP1 MLOAD PUSH1 0x1 DUP1 DUP3 MSTORE DUP2 DUP4 ADD SWAP1 SWAP3 MSTORE PUSH1 0x0 SWAP2 DUP3 SWAP2 SWAP1 PUSH1 0x20 DUP1 DUP4 ADD SWAP1 DUP1 CALLDATASIZE DUP4 CALLDATACOPY ADD SWAP1 POP POP SWAP1 POP DUP3 DUP2 PUSH1 0x0 DUP2 MLOAD DUP2 LT PUSH2 0xBD4 JUMPI PUSH2 0xBD4 PUSH2 0x2410 JUMP JUMPDEST PUSH1 0x20 MUL PUSH1 0x20 ADD ADD SWAP1 PUSH1 0x1 PUSH1 0x1 PUSH1 0xA0 SHL SUB AND SWAP1 DUP2 PUSH1 0x1 PUSH1 0x1 PUSH1 0xA0 SHL SUB AND DUP2 MSTORE POP POP PUSH1 0x0 PUSH2 0xBFF DUP3 PUSH2 0x64C JUMP JUMPDEST SWAP1 POP DUP1 PUSH1 0x0 DUP2 MLOAD DUP2 LT PUSH2 0xC14 JUMPI PUSH2 0xC14 PUSH2 0x2410 JUMP JUMPDEST PUSH1 0x20 MUL PUSH1 0x20 ADD ADD MLOAD SWAP3 POP POP POP SWAP2 SWAP1 POP JUMP JUMPDEST PUSH1 0x0 SLOAD PUSH1 0x40 DUP1 MLOAD DUP1 DUP3 ADD SWAP1 SWAP2 MSTORE PUSH1 0x2 DUP2 MSTORE PUSH2 0x333 PUSH1 0xF4 SHL PUSH1 0x20 DUP3 ADD MSTORE SWAP1 PUSH1 0x1 PUSH1 0x1 PUSH1 0xA0 SHL SUB AND CALLER EQ PUSH2 0xC6A JUMPI PUSH1 0x40 MLOAD PUSH3 0x461BCD PUSH1 0xE5 SHL DUP2 MSTORE PUSH1 0x4 ADD PUSH2 0x4B1 SWAP2 SWAP1 PUSH2 0x2386 JUMP JUMPDEST POP PUSH1 0x40 DUP1 MLOAD DUP1 DUP3 ADD SWAP1 SWAP2 MSTORE PUSH1 0x2 DUP2 MSTORE PUSH2 0x3331 PUSH1 0xF0 SHL PUSH1 0x20 DUP3 ADD MSTORE DUP2 PUSH2 0xCA2 JUMPI PUSH1 0x40 MLOAD PUSH3 0x461BCD PUSH1 0xE5 SHL DUP2 MSTORE PUSH1 0x4 ADD PUSH2 0x4B1 SWAP2 SWAP1 PUSH2 0x2386 JUMP JUMPDEST POP PUSH1 0x40 DUP1 MLOAD DUP1 DUP3 ADD SWAP1 SWAP2 MSTORE PUSH1 0x2 DUP2 MSTORE PUSH2 0x3331 PUSH1 0xF0 SHL PUSH1 0x20 DUP3 ADD MSTORE PUSH8 0x16345785D8A0000 DUP3 LT PUSH2 0xCE4 JUMPI PUSH1 0x40 MLOAD PUSH3 0x461BCD PUSH1 0xE5 SHL DUP2 MSTORE PUSH1 0x4 ADD PUSH2 0x4B1 SWAP2 SWAP1 PUSH2 0x2386 JUMP JUMPDEST POP PUSH1 0x5 SSTORE JUMP JUMPDEST PUSH1 0x0 SLOAD PUSH1 0x40 DUP1 MLOAD DUP1 DUP3 ADD SWAP1 SWAP2 MSTORE PUSH1 0x2 DUP2 MSTORE PUSH2 0x333 PUSH1 0xF4 SHL PUSH1 0x20 DUP3 ADD MSTORE SWAP1 PUSH1 0x1 PUSH1 0x1 PUSH1 0xA0 SHL SUB AND CALLER EQ PUSH2 0xD2F JUMPI PUSH1 0x40 MLOAD PUSH3 0x461BCD PUSH1 0xE5 SHL DUP2 MSTORE PUSH1 0x4 ADD PUSH2 0x4B1 SWAP2 SWAP1 PUSH2 0x2386 JUMP JUMPDEST POP PUSH2 0xD3B PUSH1 0xC DUP3 PUSH2 0x1AD9 JUMP JUMPDEST POP PUSH1 0x40 MLOAD PUSH1 0x1 PUSH1 0x1 PUSH1 0xA0 SHL SUB DUP3 AND DUP2 MSTORE PUSH32 0x97F16989C0CA3C61D0F35531FF27ABEB36547D171FA32E2D3A9311EE15A09D2D SWAP1 PUSH1 0x20 ADD PUSH2 0x4FC JUMP JUMPDEST PUSH1 0x60 PUSH2 0x59E PUSH1 0xA PUSH2 0x1355 JUMP JUMPDEST PUSH1 0x0 SLOAD PUSH1 0x40 DUP1 MLOAD DUP1 DUP3 ADD SWAP1 SWAP2 MSTORE PUSH1 0x2 DUP2 MSTORE PUSH2 0x333 PUSH1 0xF4 SHL PUSH1 0x20 DUP3 ADD MSTORE SWAP1 PUSH1 0x1 PUSH1 0x1 PUSH1 0xA0 SHL SUB AND CALLER EQ PUSH2 0xDC6 JUMPI PUSH1 0x40 MLOAD PUSH3 0x461BCD PUSH1 0xE5 SHL DUP2 MSTORE PUSH1 0x4 ADD PUSH2 0x4B1 SWAP2 SWAP1 PUSH2 0x2386 JUMP JUMPDEST POP PUSH2 0xDD2 PUSH1 0xA DUP3 PUSH2 0x1AD9 JUMP JUMPDEST POP PUSH1 0x40 MLOAD PUSH1 0x1 PUSH1 0x1 PUSH1 0xA0 SHL SUB DUP3 AND DUP2 MSTORE PUSH32 0xA67CAC4DE4567BFE36D7FA182B8455FD3E7D1B80C45191DD2B6DD5310A353066 SWAP1 PUSH1 0x20 ADD PUSH2 0x4FC JUMP JUMPDEST PUSH1 0x0 SLOAD PUSH1 0x40 DUP1 MLOAD DUP1 DUP3 ADD SWAP1 SWAP2 MSTORE PUSH1 0x2 DUP2 MSTORE PUSH2 0x333 PUSH1 0xF4 SHL PUSH1 0x20 DUP3 ADD MSTORE SWAP1 PUSH1 0x1 PUSH1 0x1 PUSH1 0xA0 SHL SUB AND CALLER EQ PUSH2 0xE51 JUMPI PUSH1 0x40 MLOAD PUSH3 0x461BCD PUSH1 0xE5 SHL DUP2 MSTORE PUSH1 0x4 ADD PUSH2 0x4B1 SWAP2 SWAP1 PUSH2 0x2386 JUMP JUMPDEST POP PUSH1 0x2 DUP1 SLOAD PUSH1 0x1 PUSH1 0x1 PUSH1 0xA0 SHL SUB NOT AND PUSH1 0x1 PUSH1 0x1 PUSH1 0xA0 SHL SUB DUP4 AND SWAP1 DUP2 OR SWAP1 SWAP2 SSTORE PUSH1 0x40 MLOAD PUSH32 0x8BDF8E573E1E6B8ABA457BD2A4FED210B28B0ED18344A7C4BB4BD1E87F6E1FB7 SWAP1 PUSH1 0x0 SWAP1 LOG2 POP JUMP JUMPDEST PUSH1 0x0 SLOAD PUSH1 0x40 DUP1 MLOAD DUP1 DUP3 ADD SWAP1 SWAP2 MSTORE PUSH1 0x2 DUP2 MSTORE PUSH2 0x333 PUSH1 0xF4 SHL PUSH1 0x20 DUP3 ADD MSTORE SWAP1 PUSH1 0x1 PUSH1 0x1 PUSH1 0xA0 SHL SUB AND CALLER EQ PUSH2 0xEE1 JUMPI PUSH1 0x40 MLOAD PUSH3 0x461BCD PUSH1 0xE5 SHL DUP2 MSTORE PUSH1 0x4 ADD PUSH2 0x4B1 SWAP2 SWAP1 PUSH2 0x2386 JUMP JUMPDEST POP PUSH2 0xEED PUSH1 0x8 DUP3 PUSH2 0x1AD9 JUMP JUMPDEST POP PUSH1 0x40 MLOAD PUSH1 0x1 PUSH1 0x1 PUSH1 0xA0 SHL SUB DUP3 AND DUP2 MSTORE PUSH32 0x612AC93AD02AC7669D13BE8835BB33D5C6D42BB4C46F0CDB717681EBD2B64557 SWAP1 PUSH1 0x20 ADD PUSH2 0x4FC JUMP JUMPDEST PUSH1 0x60 PUSH2 0x59E PUSH1 0x8 PUSH2 0x1355 JUMP JUMPDEST PUSH1 0x0 SLOAD PUSH1 0x40 DUP1 MLOAD DUP1 DUP3 ADD SWAP1 SWAP2 MSTORE PUSH1 0x2 DUP2 MSTORE PUSH2 0x333 PUSH1 0xF4 SHL PUSH1 0x20 DUP3 ADD MSTORE SWAP1 PUSH1 0x1 PUSH1 0x1 PUSH1 0xA0 SHL SUB AND CALLER EQ PUSH2 0xF78 JUMPI PUSH1 0x40 MLOAD PUSH3 0x461BCD PUSH1 0xE5 SHL DUP2 MSTORE PUSH1 0x4 ADD PUSH2 0x4B1 SWAP2 SWAP1 PUSH2 0x2386 JUMP JUMPDEST POP PUSH1 0x40 DUP1 MLOAD DUP1 DUP3 ADD SWAP1 SWAP2 MSTORE PUSH1 0x2 DUP2 MSTORE PUSH2 0x3331 PUSH1 0xF0 SHL PUSH1 0x20 DUP3 ADD MSTORE PUSH1 0x1 PUSH1 0x1 PUSH1 0xA0 SHL SUB DUP3 AND PUSH2 0xFB9 JUMPI PUSH1 0x40 MLOAD PUSH3 0x461BCD PUSH1 0xE5 SHL DUP2 MSTORE PUSH1 0x4 ADD PUSH2 0x4B1 SWAP2 SWAP1 PUSH2 0x2386 JUMP JUMPDEST POP PUSH1 0x1 DUP1 SLOAD PUSH1 0x1 PUSH1 0x1 PUSH1 0xA0 SHL SUB NOT AND PUSH1 0x1 PUSH1 0x1 PUSH1 0xA0 SHL SUB DUP4 AND SWAP1 DUP2 OR SWAP1 SWAP2 SSTORE PUSH1 0x40 MLOAD SWAP1 DUP2 MSTORE PUSH32 0x67235BA2E63C748A35B95C4F92A3BBC2A1389938170A5CE6C9ADD5D0B03A314A SWAP1 PUSH1 0x20 ADD PUSH2 0x4FC JUMP JUMPDEST PUSH1 0x0 SLOAD PUSH1 0x40 DUP1 MLOAD DUP1 DUP3 ADD SWAP1 SWAP2 MSTORE PUSH1 0x2 DUP2 MSTORE PUSH2 0x333 PUSH1 0xF4 SHL PUSH1 0x20 DUP3 ADD MSTORE SWAP1 PUSH1 0x1 PUSH1 0x1 PUSH1 0xA0 SHL SUB AND CALLER EQ PUSH2 0x104D JUMPI PUSH1 0x40 MLOAD PUSH3 0x461BCD PUSH1 0xE5 SHL DUP2 MSTORE PUSH1 0x4 ADD PUSH2 0x4B1 SWAP2 SWAP1 PUSH2 0x2386 JUMP JUMPDEST POP PUSH2 0x1059 PUSH1 0x8 DUP3 PUSH2 0x1339 JUMP JUMPDEST POP PUSH1 0x40 MLOAD PUSH1 0x1 PUSH1 0x1 PUSH1 0xA0 SHL SUB DUP3 AND DUP2 MSTORE PUSH32 0xFAB625E04BC6EEEF38AAF5C2E48B1F1953CF5183297F4115F0DA9E906D4BF3AC SWAP1 PUSH1 0x20 ADD PUSH2 0x4FC JUMP JUMPDEST PUSH1 0x0 SLOAD PUSH1 0x40 DUP1 MLOAD DUP1 DUP3 ADD SWAP1 SWAP2 MSTORE PUSH1 0x2 DUP2 MSTORE PUSH2 0x333 PUSH1 0xF4 SHL PUSH1 0x20 DUP3 ADD MSTORE SWAP1 PUSH1 0x1 PUSH1 0x1 PUSH1 0xA0 SHL SUB AND CALLER EQ PUSH2 0x10D8 JUMPI PUSH1 0x40 MLOAD PUSH3 0x461BCD PUSH1 0xE5 SHL DUP2 MSTORE PUSH1 0x4 ADD PUSH2 0x4B1 SWAP2 SWAP1 PUSH2 0x2386 JUMP JUMPDEST POP PUSH1 0x3 DUP1 SLOAD PUSH1 0x1 PUSH1 0x1 PUSH1 0xA0 SHL SUB NOT AND PUSH1 0x1 PUSH1 0x1 PUSH1 0xA0 SHL SUB DUP4 AND SWAP1 DUP2 OR SWAP1 SWAP2 SSTORE PUSH1 0x40 MLOAD PUSH32 0x99E4AC532391C2555B226B3D66F3D643E9256788B0C246834C1AAEBFAD90BD01 SWAP1 PUSH1 0x0 SWAP1 LOG2 POP JUMP JUMPDEST PUSH1 0x60 PUSH1 0x0 PUSH2 0x1131 PUSH1 0x6 PUSH2 0x1AEE JUMP JUMPDEST PUSH8 0xFFFFFFFFFFFFFFFF DUP2 GT ISZERO PUSH2 0x1149 JUMPI PUSH2 0x1149 PUSH2 0x210E JUMP JUMPDEST PUSH1 0x40 MLOAD SWAP1 DUP1 DUP3 MSTORE DUP1 PUSH1 0x20 MUL PUSH1 0x20 ADD DUP3 ADD PUSH1 0x40 MSTORE DUP1 ISZERO PUSH2 0x1172 JUMPI DUP2 PUSH1 0x20 ADD PUSH1 0x20 DUP3 MUL DUP1 CALLDATASIZE DUP4 CALLDATACOPY ADD SWAP1 POP JUMPDEST POP SWAP1 POP PUSH1 0x0 DUP1 JUMPDEST PUSH2 0x1183 PUSH1 0x6 PUSH2 0x1AEE JUMP JUMPDEST DUP2 LT ISZERO PUSH2 0x1261 JUMPI PUSH1 0x0 PUSH2 0x1197 PUSH1 0x6 DUP4 PUSH2 0x1AF8 JUMP JUMPDEST PUSH1 0x40 MLOAD PUSH4 0x5708447D PUSH1 0xE0 SHL DUP2 MSTORE PUSH1 0x1 PUSH1 0x1 PUSH1 0xA0 SHL SUB PUSH32 0x0 DUP2 AND PUSH1 0x4 DUP4 ADD MSTORE SWAP2 SWAP3 POP SWAP1 DUP3 AND SWAP1 PUSH4 0x5708447D SWAP1 PUSH1 0x24 ADD PUSH1 0x20 PUSH1 0x40 MLOAD DUP1 DUP4 SUB DUP2 DUP7 GAS STATICCALL SWAP3 POP POP POP DUP1 ISZERO PUSH2 0x121D JUMPI POP PUSH1 0x40 DUP1 MLOAD PUSH1 0x1F RETURNDATASIZE SWAP1 DUP2 ADD PUSH1 0x1F NOT AND DUP3 ADD SWAP1 SWAP3 MSTORE PUSH2 0x121A SWAP2 DUP2 ADD SWAP1 PUSH2 0x243F JUMP JUMPDEST PUSH1 0x1 JUMPDEST ISZERO PUSH2 0x124E JUMPI DUP1 DUP6 DUP6 PUSH2 0x122E DUP2 PUSH2 0x2426 JUMP JUMPDEST SWAP7 POP DUP2 MLOAD DUP2 LT PUSH2 0x1240 JUMPI PUSH2 0x1240 PUSH2 0x2410 JUMP JUMPDEST PUSH1 0x20 MUL PUSH1 0x20 ADD ADD DUP2 DUP2 MSTORE POP POP POP JUMPDEST POP DUP1 PUSH2 0x1259 DUP2 PUSH2 0x2426 JUMP JUMPDEST SWAP2 POP POP PUSH2 0x1179 JUMP JUMPDEST POP PUSH1 0x40 DUP1 MLOAD DUP1 DUP3 ADD SWAP1 SWAP2 MSTORE PUSH1 0x2 DUP2 MSTORE PUSH2 0x3439 PUSH1 0xF0 SHL PUSH1 0x20 DUP3 ADD MSTORE DUP2 PUSH2 0x1299 JUMPI PUSH1 0x40 MLOAD PUSH3 0x461BCD PUSH1 0xE5 SHL DUP2 MSTORE PUSH1 0x4 ADD PUSH2 0x4B1 SWAP2 SWAP1 PUSH2 0x2386 JUMP JUMPDEST POP DUP1 PUSH8 0xFFFFFFFFFFFFFFFF DUP2 GT ISZERO PUSH2 0x12B3 JUMPI PUSH2 0x12B3 PUSH2 0x210E JUMP JUMPDEST PUSH1 0x40 MLOAD SWAP1 DUP1 DUP3 MSTORE DUP1 PUSH1 0x20 MUL PUSH1 0x20 ADD DUP3 ADD PUSH1 0x40 MSTORE DUP1 ISZERO PUSH2 0x12DC JUMPI DUP2 PUSH1 0x20 ADD PUSH1 0x20 DUP3 MUL DUP1 CALLDATASIZE DUP4 CALLDATACOPY ADD SWAP1 POP JUMPDEST POP SWAP3 POP PUSH1 0x0 JUMPDEST DUP2 DUP2 LT ISZERO PUSH2 0x1333 JUMPI DUP3 DUP2 DUP2 MLOAD DUP2 LT PUSH2 0x12FC JUMPI PUSH2 0x12FC PUSH2 0x2410 JUMP JUMPDEST PUSH1 0x20 MUL PUSH1 0x20 ADD ADD MLOAD DUP5 DUP3 DUP2 MLOAD DUP2 LT PUSH2 0x1316 JUMPI PUSH2 0x1316 PUSH2 0x2410 JUMP JUMPDEST PUSH1 0x20 SWAP1 DUP2 MUL SWAP2 SWAP1 SWAP2 ADD ADD MSTORE DUP1 PUSH2 0x132B DUP2 PUSH2 0x2426 JUMP JUMPDEST SWAP2 POP POP PUSH2 0x12E2 JUMP JUMPDEST POP POP POP SWAP1 JUMP JUMPDEST PUSH1 0x0 PUSH2 0x134E DUP4 PUSH1 0x1 PUSH1 0x1 PUSH1 0xA0 SHL SUB DUP5 AND PUSH2 0x1B04 JUMP JUMPDEST SWAP4 SWAP3 POP POP POP JUMP JUMPDEST PUSH1 0x60 PUSH1 0x0 PUSH2 0x134E DUP4 PUSH2 0x1B53 JUMP JUMPDEST PUSH1 0x0 PUSH2 0x136D DUP3 PUSH2 0x1BAF JUMP JUMPDEST POP PUSH1 0x2 DUP3 MLOAD PUSH2 0x137C SWAP2 SWAP1 PUSH2 0x246E JUMP JUMPDEST ISZERO PUSH2 0x13AD JUMPI DUP2 PUSH1 0x2 DUP4 MLOAD PUSH2 0x1390 SWAP2 SWAP1 PUSH2 0x2482 JUMP JUMPDEST DUP2 MLOAD DUP2 LT PUSH2 0x13A0 JUMPI PUSH2 0x13A0 PUSH2 0x2410 JUMP JUMPDEST PUSH1 0x20 MUL PUSH1 0x20 ADD ADD MLOAD PUSH2 0x782 JUMP JUMPDEST PUSH2 0x782 DUP3 PUSH1 0x1 PUSH1 0x2 DUP6 MLOAD PUSH2 0x13C1 SWAP2 SWAP1 PUSH2 0x2482 JUMP JUMPDEST PUSH2 0x13CB SWAP2 SWAP1 PUSH2 0x23FD JUMP JUMPDEST DUP2 MLOAD DUP2 LT PUSH2 0x13DB JUMPI PUSH2 0x13DB PUSH2 0x2410 JUMP JUMPDEST PUSH1 0x20 MUL PUSH1 0x20 ADD ADD MLOAD DUP4 PUSH1 0x2 DUP6 MLOAD PUSH2 0x13F2 SWAP2 SWAP1 PUSH2 0x2482 JUMP JUMPDEST DUP2 MLOAD DUP2 LT PUSH2 0x1402 JUMPI PUSH2 0x1402 PUSH2 0x2410 JUMP JUMPDEST PUSH1 0x20 MUL PUSH1 0x20 ADD ADD MLOAD PUSH2 0x1BCE JUMP JUMPDEST PUSH1 0x0 DUP2 MLOAD PUSH1 0x1 SUB PUSH2 0x143C JUMPI DUP2 PUSH1 0x0 DUP2 MLOAD DUP2 LT PUSH2 0x142D JUMPI PUSH2 0x142D PUSH2 0x2410 JUMP JUMPDEST PUSH1 0x20 MUL PUSH1 0x20 ADD ADD MLOAD SWAP1 POP SWAP2 SWAP1 POP JUMP JUMPDEST PUSH1 0x0 DUP1 DUP4 PUSH1 0x1 DUP2 MLOAD DUP2 LT PUSH2 0x1452 JUMPI PUSH2 0x1452 PUSH2 0x2410 JUMP JUMPDEST PUSH1 0x20 MUL PUSH1 0x20 ADD ADD MLOAD DUP5 PUSH1 0x0 DUP2 MLOAD DUP2 LT PUSH2 0x146D JUMPI PUSH2 0x146D PUSH2 0x2410 JUMP JUMPDEST PUSH1 0x20 MUL PUSH1 0x20 ADD ADD MLOAD LT PUSH2 0x14B5 JUMPI DUP4 PUSH1 0x1 DUP2 MLOAD DUP2 LT PUSH2 0x148D JUMPI PUSH2 0x148D PUSH2 0x2410 JUMP JUMPDEST PUSH1 0x20 MUL PUSH1 0x20 ADD ADD MLOAD DUP5 PUSH1 0x0 DUP2 MLOAD DUP2 LT PUSH2 0x14A8 JUMPI PUSH2 0x14A8 PUSH2 0x2410 JUMP JUMPDEST PUSH1 0x20 MUL PUSH1 0x20 ADD ADD MLOAD PUSH2 0x14EC JUMP JUMPDEST DUP4 PUSH1 0x0 DUP2 MLOAD DUP2 LT PUSH2 0x14C8 JUMPI PUSH2 0x14C8 PUSH2 0x2410 JUMP JUMPDEST PUSH1 0x20 MUL PUSH1 0x20 ADD ADD MLOAD DUP5 PUSH1 0x1 DUP2 MLOAD DUP2 LT PUSH2 0x14E3 JUMPI PUSH2 0x14E3 PUSH2 0x2410 JUMP JUMPDEST PUSH1 0x20 MUL PUSH1 0x20 ADD ADD MLOAD JUMPDEST SWAP2 POP SWAP2 POP DUP4 MLOAD PUSH1 0x2 SUB PUSH2 0x1500 JUMPI POP SWAP3 SWAP2 POP POP JUMP JUMPDEST PUSH1 0x2 JUMPDEST DUP5 MLOAD DUP2 LT ISZERO PUSH2 0x15A1 JUMPI DUP3 DUP6 DUP3 DUP2 MLOAD DUP2 LT PUSH2 0x151F JUMPI PUSH2 0x151F PUSH2 0x2410 JUMP JUMPDEST PUSH1 0x20 MUL PUSH1 0x20 ADD ADD MLOAD LT ISZERO PUSH2 0x1551 JUMPI DUP3 SWAP2 POP DUP5 DUP2 DUP2 MLOAD DUP2 LT PUSH2 0x1542 JUMPI PUSH2 0x1542 PUSH2 0x2410 JUMP JUMPDEST PUSH1 0x20 MUL PUSH1 0x20 ADD ADD MLOAD SWAP3 POP PUSH2 0x158F JUMP JUMPDEST DUP2 DUP6 DUP3 DUP2 MLOAD DUP2 LT PUSH2 0x1564 JUMPI PUSH2 0x1564 PUSH2 0x2410 JUMP JUMPDEST PUSH1 0x20 MUL PUSH1 0x20 ADD ADD MLOAD LT ISZERO PUSH2 0x158F JUMPI DUP5 DUP2 DUP2 MLOAD DUP2 LT PUSH2 0x1584 JUMPI PUSH2 0x1584 PUSH2 0x2410 JUMP JUMPDEST PUSH1 0x20 MUL PUSH1 0x20 ADD ADD MLOAD SWAP2 POP JUMPDEST DUP1 PUSH2 0x1599 DUP2 PUSH2 0x2426 JUMP JUMPDEST SWAP2 POP POP PUSH2 0x1503 JUMP JUMPDEST POP SWAP4 SWAP3 POP POP POP JUMP JUMPDEST PUSH1 0x60 PUSH1 0x0 DUP4 MLOAD PUSH8 0xFFFFFFFFFFFFFFFF DUP2 GT ISZERO PUSH2 0x15C7 JUMPI PUSH2 0x15C7 PUSH2 0x210E JUMP JUMPDEST PUSH1 0x40 MLOAD SWAP1 DUP1 DUP3 MSTORE DUP1 PUSH1 0x20 MUL PUSH1 0x20 ADD DUP3 ADD PUSH1 0x40 MSTORE DUP1 ISZERO PUSH2 0x15F0 JUMPI DUP2 PUSH1 0x20 ADD PUSH1 0x20 DUP3 MUL DUP1 CALLDATASIZE DUP4 CALLDATACOPY ADD SWAP1 POP JUMPDEST POP SWAP1 POP PUSH1 0x0 DUP1 JUMPDEST DUP6 MLOAD DUP2 LT ISZERO PUSH2 0x19C6 JUMPI PUSH1 0x0 DUP1 JUMPDEST PUSH2 0x160E PUSH1 0xA PUSH2 0x1AEE JUMP JUMPDEST DUP2 LT ISZERO PUSH2 0x1943 JUMPI PUSH1 0x0 PUSH2 0x1622 PUSH1 0xA DUP4 PUSH2 0x1AF8 JUMP JUMPDEST SWAP1 POP DUP1 PUSH1 0x1 PUSH1 0x1 PUSH1 0xA0 SHL SUB AND DUP10 DUP6 DUP2 MLOAD DUP2 LT PUSH2 0x1640 JUMPI PUSH2 0x1640 PUSH2 0x2410 JUMP JUMPDEST PUSH1 0x20 MUL PUSH1 0x20 ADD ADD MLOAD PUSH1 0x1 PUSH1 0x1 PUSH1 0xA0 SHL SUB AND EQ DUP1 PUSH2 0x16FF JUMPI POP PUSH1 0x3 SLOAD DUP10 MLOAD PUSH1 0x1 PUSH1 0x1 PUSH1 0xA0 SHL SUB SWAP1 SWAP2 AND SWAP1 PUSH4 0x9446994A SWAP1 DUP12 SWAP1 DUP8 SWAP1 DUP2 LT PUSH2 0x1681 JUMPI PUSH2 0x1681 PUSH2 0x2410 JUMP JUMPDEST PUSH1 0x20 MUL PUSH1 0x20 ADD ADD MLOAD DUP4 PUSH1 0x40 MLOAD DUP4 PUSH4 0xFFFFFFFF AND PUSH1 0xE0 SHL DUP2 MSTORE PUSH1 0x4 ADD PUSH2 0x16BC SWAP3 SWAP2 SWAP1 PUSH1 0x1 PUSH1 0x1 PUSH1 0xA0 SHL SUB SWAP3 DUP4 AND DUP2 MSTORE SWAP2 AND PUSH1 0x20 DUP3 ADD MSTORE PUSH1 0x40 ADD SWAP1 JUMP JUMPDEST PUSH1 0x20 PUSH1 0x40 MLOAD DUP1 DUP4 SUB DUP2 DUP7 GAS STATICCALL ISZERO DUP1 ISZERO PUSH2 0x16D9 JUMPI RETURNDATASIZE PUSH1 0x0 DUP1 RETURNDATACOPY RETURNDATASIZE PUSH1 0x0 REVERT JUMPDEST POP POP POP POP PUSH1 0x40 MLOAD RETURNDATASIZE PUSH1 0x1F NOT PUSH1 0x1F DUP3 ADD AND DUP3 ADD DUP1 PUSH1 0x40 MSTORE POP DUP2 ADD SWAP1 PUSH2 0x16FD SWAP2 SWAP1 PUSH2 0x2496 JUMP JUMPDEST ISZERO JUMPDEST ISZERO PUSH2 0x170A JUMPI POP PUSH2 0x1931 JUMP JUMPDEST PUSH1 0x3 SLOAD DUP10 MLOAD PUSH1 0x0 SWAP2 PUSH1 0x1 PUSH1 0x1 PUSH1 0xA0 SHL SUB AND SWAP1 PUSH4 0x9B56E6A7 SWAP1 DUP13 SWAP1 DUP9 SWAP1 DUP2 LT PUSH2 0x1734 JUMPI PUSH2 0x1734 PUSH2 0x2410 JUMP JUMPDEST PUSH1 0x20 MUL PUSH1 0x20 ADD ADD MLOAD DUP5 PUSH1 0x40 MLOAD DUP4 PUSH4 0xFFFFFFFF AND PUSH1 0xE0 SHL DUP2 MSTORE PUSH1 0x4 ADD PUSH2 0x176F SWAP3 SWAP2 SWAP1 PUSH1 0x1 PUSH1 0x1 PUSH1 0xA0 SHL SUB SWAP3 DUP4 AND DUP2 MSTORE SWAP2 AND PUSH1 0x20 DUP3 ADD MSTORE PUSH1 0x40 ADD SWAP1 JUMP JUMPDEST PUSH1 0x20 PUSH1 0x40 MLOAD DUP1 DUP4 SUB DUP2 DUP7 GAS STATICCALL ISZERO DUP1 ISZERO PUSH2 0x178C JUMPI RETURNDATASIZE PUSH1 0x0 DUP1 RETURNDATACOPY RETURNDATASIZE PUSH1 0x0 REVERT JUMPDEST POP POP POP POP PUSH1 0x40 MLOAD RETURNDATASIZE PUSH1 0x1F NOT PUSH1 0x1F DUP3 ADD AND DUP3 ADD DUP1 PUSH1 0x40 MSTORE POP DUP2 ADD SWAP1 PUSH2 0x17B0 SWAP2 SWAP1 PUSH2 0x243F JUMP JUMPDEST SWAP1 POP PUSH32 0x0 PUSH1 0x1 PUSH1 0x1 PUSH1 0xA0 SHL SUB AND DUP11 DUP7 DUP2 MLOAD DUP2 LT PUSH2 0x17EE JUMPI PUSH2 0x17EE PUSH2 0x2410 JUMP JUMPDEST PUSH1 0x20 MUL PUSH1 0x20 ADD ADD MLOAD PUSH1 0x1 PUSH1 0x1 PUSH1 0xA0 SHL SUB AND EQ DUP1 ISZERO PUSH2 0x1812 JUMPI POP PUSH2 0x1812 PUSH1 0x8 DUP4 PUSH2 0x1BE9 JUMP JUMPDEST ISZERO PUSH2 0x1847 JUMPI DUP1 DUP8 DUP8 DUP2 MLOAD DUP2 LT PUSH2 0x182A JUMPI PUSH2 0x182A PUSH2 0x2410 JUMP JUMPDEST PUSH1 0x20 SWAP1 DUP2 MUL SWAP2 SWAP1 SWAP2 ADD ADD MSTORE DUP6 PUSH2 0x183F DUP2 PUSH2 0x2426 JUMP JUMPDEST SWAP7 POP POP PUSH2 0x18F2 JUMP JUMPDEST PUSH32 0x0 PUSH1 0x1 PUSH1 0x1 PUSH1 0xA0 SHL SUB AND DUP3 PUSH1 0x1 PUSH1 0x1 PUSH1 0xA0 SHL SUB AND EQ DUP1 ISZERO PUSH2 0x18B0 JUMPI POP PUSH2 0x18B0 DUP11 DUP7 DUP2 MLOAD DUP2 LT PUSH2 0x1898 JUMPI PUSH2 0x1898 PUSH2 0x2410 JUMP JUMPDEST PUSH1 0x20 MUL PUSH1 0x20 ADD ADD MLOAD PUSH1 0x8 PUSH2 0x1BE9 SWAP1 SWAP2 SWAP1 PUSH4 0xFFFFFFFF AND JUMP JUMPDEST ISZERO PUSH2 0x18F2 JUMPI PUSH2 0x18C7 PUSH8 0xDE0B6B3A7640000 DUP3 PUSH2 0x1C0B JUMP JUMPDEST DUP8 DUP8 DUP2 MLOAD DUP2 LT PUSH2 0x18D9 JUMPI PUSH2 0x18D9 PUSH2 0x2410 JUMP JUMPDEST PUSH1 0x20 SWAP1 DUP2 MUL SWAP2 SWAP1 SWAP2 ADD ADD MSTORE DUP6 PUSH2 0x18EE DUP2 PUSH2 0x2426 JUMP JUMPDEST SWAP7 POP POP JUMPDEST PUSH1 0x0 PUSH2 0x18FF DUP4 DUP13 DUP13 PUSH2 0x1C76 JUMP JUMPDEST SWAP1 POP PUSH2 0x1925 DUP11 DUP8 DUP2 MLOAD DUP2 LT PUSH2 0x1916 JUMPI PUSH2 0x1916 PUSH2 0x2410 JUMP JUMPDEST PUSH1 0x20 MUL PUSH1 0x20 ADD ADD MLOAD DUP3 DUP5 PUSH2 0x1D60 JUMP JUMPDEST PUSH1 0x1 SWAP5 POP POP POP POP PUSH2 0x1943 JUMP JUMPDEST DUP1 PUSH2 0x193B DUP2 PUSH2 0x2426 JUMP JUMPDEST SWAP2 POP POP PUSH2 0x1604 JUMP JUMPDEST POP DUP1 DUP1 PUSH2 0x1978 JUMPI POP PUSH2 0x1978 DUP8 DUP4 DUP2 MLOAD DUP2 LT PUSH2 0x1960 JUMPI PUSH2 0x1960 PUSH2 0x2410 JUMP JUMPDEST PUSH1 0x20 MUL PUSH1 0x20 ADD ADD MLOAD PUSH1 0xC PUSH2 0x1BE9 SWAP1 SWAP2 SWAP1 PUSH4 0xFFFFFFFF AND JUMP JUMPDEST PUSH1 0x40 MLOAD DUP1 PUSH1 0x40 ADD PUSH1 0x40 MSTORE DUP1 PUSH1 0x2 DUP2 MSTORE PUSH1 0x20 ADD PUSH2 0x343 PUSH1 0xF4 SHL DUP2 MSTORE POP SWAP1 PUSH2 0x19B1 JUMPI PUSH1 0x40 MLOAD PUSH3 0x461BCD PUSH1 0xE5 SHL DUP2 MSTORE PUSH1 0x4 ADD PUSH2 0x4B1 SWAP2 SWAP1 PUSH2 0x2386 JUMP JUMPDEST POP POP DUP1 DUP1 PUSH2 0x19BE SWAP1 PUSH2 0x2426 JUMP JUMPDEST SWAP2 POP POP PUSH2 0x15F7 JUMP JUMPDEST POP PUSH1 0x0 DUP2 PUSH8 0xFFFFFFFFFFFFFFFF DUP2 GT ISZERO PUSH2 0x19E2 JUMPI PUSH2 0x19E2 PUSH2 0x210E JUMP JUMPDEST PUSH1 0x40 MLOAD SWAP1 DUP1 DUP3 MSTORE DUP1 PUSH1 0x20 MUL PUSH1 0x20 ADD DUP3 ADD PUSH1 0x40 MSTORE DUP1 ISZERO PUSH2 0x1A0B JUMPI DUP2 PUSH1 0x20 ADD PUSH1 0x20 DUP3 MUL DUP1 CALLDATASIZE DUP4 CALLDATACOPY ADD SWAP1 POP JUMPDEST POP SWAP1 POP PUSH1 0x0 JUMPDEST DUP3 DUP2 LT ISZERO PUSH2 0x1A62 JUMPI DUP4 DUP2 DUP2 MLOAD DUP2 LT PUSH2 0x1A2B JUMPI PUSH2 0x1A2B PUSH2 0x2410 JUMP JUMPDEST PUSH1 0x20 MUL PUSH1 0x20 ADD ADD MLOAD DUP3 DUP3 DUP2 MLOAD DUP2 LT PUSH2 0x1A45 JUMPI PUSH2 0x1A45 PUSH2 0x2410 JUMP JUMPDEST PUSH1 0x20 SWAP1 DUP2 MUL SWAP2 SWAP1 SWAP2 ADD ADD MSTORE DUP1 PUSH2 0x1A5A DUP2 PUSH2 0x2426 JUMP JUMPDEST SWAP2 POP POP PUSH2 0x1A11 JUMP JUMPDEST POP SWAP6 SWAP5 POP POP POP POP POP JUMP JUMPDEST PUSH1 0x0 PUSH2 0x1A78 DUP4 DUP4 PUSH2 0x664 JUMP JUMPDEST SWAP1 POP PUSH1 0x0 PUSH2 0x1A90 DUP3 PUSH2 0x1A8A DUP8 DUP3 PUSH2 0x1DD2 JUMP JUMPDEST SWAP1 PUSH2 0x1C0B JUMP JUMPDEST SWAP1 POP PUSH1 0x4 SLOAD DUP2 GT ISZERO PUSH1 0x40 MLOAD DUP1 PUSH1 0x40 ADD PUSH1 0x40 MSTORE DUP1 PUSH1 0x2 DUP2 MSTORE PUSH1 0x20 ADD PUSH2 0x3435 PUSH1 0xF0 SHL DUP2 MSTORE POP SWAP1 PUSH2 0x1AD1 JUMPI PUSH1 0x40 MLOAD PUSH3 0x461BCD PUSH1 0xE5 SHL DUP2 MSTORE PUSH1 0x4 ADD PUSH2 0x4B1 SWAP2 SWAP1 PUSH2 0x2386 JUMP JUMPDEST POP POP POP POP POP POP JUMP JUMPDEST PUSH1 0x0 PUSH2 0x134E DUP4 PUSH1 0x1 PUSH1 0x1 PUSH1 0xA0 SHL SUB DUP5 AND PUSH2 0x1DF5 JUMP JUMPDEST PUSH1 0x0 PUSH2 0x782 DUP3 SLOAD SWAP1 JUMP JUMPDEST PUSH1 0x0 PUSH2 0x134E DUP4 DUP4 PUSH2 0x1EE8 JUMP JUMPDEST PUSH1 0x0 DUP2 DUP2 MSTORE PUSH1 0x1 DUP4 ADD PUSH1 0x20 MSTORE PUSH1 0x40 DUP2 KECCAK256 SLOAD PUSH2 0x1B4B JUMPI POP DUP2 SLOAD PUSH1 0x1 DUP2 DUP2 ADD DUP5 SSTORE PUSH1 0x0 DUP5 DUP2 MSTORE PUSH1 0x20 DUP1 DUP3 KECCAK256 SWAP1 SWAP4 ADD DUP5 SWAP1 SSTORE DUP5 SLOAD DUP5 DUP3 MSTORE DUP3 DUP7 ADD SWAP1 SWAP4 MSTORE PUSH1 0x40 SWAP1 KECCAK256 SWAP2 SWAP1 SWAP2 SSTORE PUSH2 0x782 JUMP JUMPDEST POP PUSH1 0x0 PUSH2 0x782 JUMP JUMPDEST PUSH1 0x60 DUP2 PUSH1 0x0 ADD DUP1 SLOAD DUP1 PUSH1 0x20 MUL PUSH1 0x20 ADD PUSH1 0x40 MLOAD SWAP1 DUP2 ADD PUSH1 0x40 MSTORE DUP1 SWAP3 SWAP2 SWAP1 DUP2 DUP2 MSTORE PUSH1 0x20 ADD DUP3 DUP1 SLOAD DUP1 ISZERO PUSH2 0x1BA3 JUMPI PUSH1 0x20 MUL DUP3 ADD SWAP2 SWAP1 PUSH1 0x0 MSTORE PUSH1 0x20 PUSH1 0x0 KECCAK256 SWAP1 JUMPDEST DUP2 SLOAD DUP2 MSTORE PUSH1 0x20 ADD SWAP1 PUSH1 0x1 ADD SWAP1 DUP1 DUP4 GT PUSH2 0x1B8F JUMPI JUMPDEST POP POP POP POP POP SWAP1 POP SWAP2 SWAP1 POP JUMP JUMPDEST PUSH1 0x60 PUSH2 0x1BCA DUP3 PUSH1 0x0 PUSH1 0x1 DUP6 MLOAD PUSH2 0x1BC5 SWAP2 SWAP1 PUSH2 0x23FD JUMP JUMPDEST PUSH2 0x1F12 JUMP JUMPDEST POP SWAP1 JUMP JUMPDEST PUSH1 0x0 PUSH2 0x1BDD PUSH1 0x2 DUP5 DUP5 XOR PUSH2 0x2482 JUMP JUMPDEST PUSH2 0x134E SWAP1 DUP5 DUP5 AND PUSH2 0x23EA JUMP JUMPDEST PUSH1 0x1 PUSH1 0x1 PUSH1 0xA0 SHL SUB DUP2 AND PUSH1 0x0 SWAP1 DUP2 MSTORE PUSH1 0x1 DUP4 ADD PUSH1 0x20 MSTORE PUSH1 0x40 DUP2 KECCAK256 SLOAD ISZERO ISZERO PUSH2 0x134E JUMP JUMPDEST PUSH1 0x40 DUP1 MLOAD DUP1 DUP3 ADD SWAP1 SWAP2 MSTORE PUSH1 0x2 DUP2 MSTORE PUSH2 0x3235 PUSH1 0xF0 SHL PUSH1 0x20 DUP3 ADD MSTORE PUSH1 0x0 SWAP1 DUP3 PUSH2 0x1C45 JUMPI PUSH1 0x40 MLOAD PUSH3 0x461BCD PUSH1 0xE5 SHL DUP2 MSTORE PUSH1 0x4 ADD PUSH2 0x4B1 SWAP2 SWAP1 PUSH2 0x2386 JUMP JUMPDEST POP DUP3 PUSH1 0x0 SUB PUSH2 0x1C56 JUMPI POP PUSH1 0x0 PUSH2 0x782 JUMP JUMPDEST PUSH1 0x0 PUSH2 0x1C6A PUSH8 0xDE0B6B3A7640000 DUP6 PUSH2 0x24B8 JUMP JUMPDEST SWAP1 POP PUSH2 0x679 DUP4 DUP3 PUSH2 0x2482 JUMP JUMPDEST PUSH1 0x0 DUP1 JUMPDEST DUP4 MLOAD DUP2 LT ISZERO PUSH2 0x1CE9 JUMPI DUP5 PUSH1 0x1 PUSH1 0x1 PUSH1 0xA0 SHL SUB AND DUP5 DUP3 DUP2 MLOAD DUP2 LT PUSH2 0x1C9F JUMPI PUSH2 0x1C9F PUSH2 0x2410 JUMP JUMPDEST PUSH1 0x20 MUL PUSH1 0x20 ADD ADD MLOAD PUSH1 0x1 PUSH1 0x1 PUSH1 0xA0 SHL SUB AND SUB PUSH2 0x1CD7 JUMPI DUP3 DUP2 DUP2 MLOAD DUP2 LT PUSH2 0x1CC7 JUMPI PUSH2 0x1CC7 PUSH2 0x2410 JUMP JUMPDEST PUSH1 0x20 MUL PUSH1 0x20 ADD ADD MLOAD SWAP2 POP POP PUSH2 0x134E JUMP JUMPDEST DUP1 PUSH2 0x1CE1 DUP2 PUSH2 0x2426 JUMP JUMPDEST SWAP2 POP POP PUSH2 0x1C7A JUMP JUMPDEST POP PUSH1 0x2 SLOAD PUSH1 0x40 MLOAD PUSH4 0x5708447D PUSH1 0xE0 SHL DUP2 MSTORE PUSH1 0x1 PUSH1 0x1 PUSH1 0xA0 SHL SUB DUP7 DUP2 AND PUSH1 0x4 DUP4 ADD MSTORE SWAP1 SWAP2 AND SWAP1 PUSH4 0x5708447D SWAP1 PUSH1 0x24 ADD PUSH1 0x20 PUSH1 0x40 MLOAD DUP1 DUP4 SUB DUP2 DUP7 GAS STATICCALL ISZERO DUP1 ISZERO PUSH2 0x1D34 JUMPI RETURNDATASIZE PUSH1 0x0 DUP1 RETURNDATACOPY RETURNDATASIZE PUSH1 0x0 REVERT JUMPDEST POP POP POP POP PUSH1 0x40 MLOAD RETURNDATASIZE PUSH1 0x1F NOT PUSH1 0x1F DUP3 ADD AND DUP3 ADD DUP1 PUSH1 0x40 MSTORE POP DUP2 ADD SWAP1 PUSH2 0x1D58 SWAP2 SWAP1 PUSH2 0x243F JUMP JUMPDEST SWAP5 SWAP4 POP POP POP POP JUMP JUMPDEST PUSH1 0x0 PUSH2 0x1D6C DUP5 DUP5 PUSH2 0x1C0B JUMP JUMPDEST SWAP1 POP PUSH1 0x0 PUSH2 0x1D7A DUP4 DUP4 PUSH2 0x1DD2 JUMP JUMPDEST SWAP1 POP PUSH1 0x0 PUSH2 0x1D88 DUP3 DUP6 PUSH2 0x1C0B JUMP JUMPDEST SWAP1 POP PUSH1 0x5 SLOAD DUP2 GT ISZERO PUSH1 0x40 MLOAD DUP1 PUSH1 0x40 ADD PUSH1 0x40 MSTORE DUP1 PUSH1 0x2 DUP2 MSTORE PUSH1 0x20 ADD PUSH2 0x3431 PUSH1 0xF0 SHL DUP2 MSTORE POP SWAP1 PUSH2 0x1DC9 JUMPI PUSH1 0x40 MLOAD PUSH3 0x461BCD PUSH1 0xE5 SHL DUP2 MSTORE PUSH1 0x4 ADD PUSH2 0x4B1 SWAP2 SWAP1 PUSH2 0x2386 JUMP JUMPDEST POP POP POP POP POP POP POP JUMP JUMPDEST PUSH1 0x0 DUP2 DUP4 LT ISZERO PUSH2 0x1DEB JUMPI PUSH2 0x1DE6 DUP4 DUP4 PUSH2 0x23FD JUMP JUMPDEST PUSH2 0x134E JUMP JUMPDEST PUSH2 0x134E DUP3 DUP5 PUSH2 0x23FD JUMP JUMPDEST PUSH1 0x0 DUP2 DUP2 MSTORE PUSH1 0x1 DUP4 ADD PUSH1 0x20 MSTORE PUSH1 0x40 DUP2 KECCAK256 SLOAD DUP1 ISZERO PUSH2 0x1EDE JUMPI PUSH1 0x0 PUSH2 0x1E19 PUSH1 0x1 DUP4 PUSH2 0x23FD JUMP JUMPDEST DUP6 SLOAD SWAP1 SWAP2 POP PUSH1 0x0 SWAP1 PUSH2 0x1E2D SWAP1 PUSH1 0x1 SWAP1 PUSH2 0x23FD JUMP JUMPDEST SWAP1 POP DUP2 DUP2 EQ PUSH2 0x1E92 JUMPI PUSH1 0x0 DUP7 PUSH1 0x0 ADD DUP3 DUP2 SLOAD DUP2 LT PUSH2 0x1E4D JUMPI PUSH2 0x1E4D PUSH2 0x2410 JUMP JUMPDEST SWAP1 PUSH1 0x0 MSTORE PUSH1 0x20 PUSH1 0x0 KECCAK256 ADD SLOAD SWAP1 POP DUP1 DUP8 PUSH1 0x0 ADD DUP5 DUP2 SLOAD DUP2 LT PUSH2 0x1E70 JUMPI PUSH2 0x1E70 PUSH2 0x2410 JUMP JUMPDEST PUSH1 0x0 SWAP2 DUP3 MSTORE PUSH1 0x20 DUP1 DUP4 KECCAK256 SWAP1 SWAP2 ADD SWAP3 SWAP1 SWAP3 SSTORE SWAP2 DUP3 MSTORE PUSH1 0x1 DUP9 ADD SWAP1 MSTORE PUSH1 0x40 SWAP1 KECCAK256 DUP4 SWAP1 SSTORE JUMPDEST DUP6 SLOAD DUP7 SWAP1 DUP1 PUSH2 0x1EA3 JUMPI PUSH2 0x1EA3 PUSH2 0x24CF JUMP JUMPDEST PUSH1 0x1 SWAP1 SUB DUP2 DUP2 SWAP1 PUSH1 0x0 MSTORE PUSH1 0x20 PUSH1 0x0 KECCAK256 ADD PUSH1 0x0 SWAP1 SSTORE SWAP1 SSTORE DUP6 PUSH1 0x1 ADD PUSH1 0x0 DUP7 DUP2 MSTORE PUSH1 0x20 ADD SWAP1 DUP2 MSTORE PUSH1 0x20 ADD PUSH1 0x0 KECCAK256 PUSH1 0x0 SWAP1 SSTORE PUSH1 0x1 SWAP4 POP POP POP POP PUSH2 0x782 JUMP JUMPDEST PUSH1 0x0 SWAP2 POP POP PUSH2 0x782 JUMP JUMPDEST PUSH1 0x0 DUP3 PUSH1 0x0 ADD DUP3 DUP2 SLOAD DUP2 LT PUSH2 0x1EFF JUMPI PUSH2 0x1EFF PUSH2 0x2410 JUMP JUMPDEST SWAP1 PUSH1 0x0 MSTORE PUSH1 0x20 PUSH1 0x0 KECCAK256 ADD SLOAD SWAP1 POP SWAP3 SWAP2 POP POP JUMP JUMPDEST DUP2 DUP2 DUP1 DUP3 SUB PUSH2 0x1F22 JUMPI POP POP POP POP POP JUMP JUMPDEST PUSH1 0x0 DUP6 PUSH1 0x2 PUSH2 0x1F31 DUP8 DUP8 PUSH2 0x24E5 JUMP JUMPDEST PUSH2 0x1F3B SWAP2 SWAP1 PUSH2 0x2505 JUMP JUMPDEST PUSH2 0x1F45 SWAP1 DUP8 PUSH2 0x2533 JUMP JUMPDEST DUP2 MLOAD DUP2 LT PUSH2 0x1F55 JUMPI PUSH2 0x1F55 PUSH2 0x2410 JUMP JUMPDEST PUSH1 0x20 MUL PUSH1 0x20 ADD ADD MLOAD SWAP1 POP JUMPDEST DUP2 DUP4 SGT PUSH2 0x2064 JUMPI JUMPDEST DUP1 DUP7 DUP5 DUP2 MLOAD DUP2 LT PUSH2 0x1F7B JUMPI PUSH2 0x1F7B PUSH2 0x2410 JUMP JUMPDEST PUSH1 0x20 MUL PUSH1 0x20 ADD ADD MLOAD LT ISZERO PUSH2 0x1F9B JUMPI DUP3 PUSH2 0x1F93 DUP2 PUSH2 0x255B JUMP JUMPDEST SWAP4 POP POP PUSH2 0x1F68 JUMP JUMPDEST DUP6 DUP3 DUP2 MLOAD DUP2 LT PUSH2 0x1FAD JUMPI PUSH2 0x1FAD PUSH2 0x2410 JUMP JUMPDEST PUSH1 0x20 MUL PUSH1 0x20 ADD ADD MLOAD DUP2 LT ISZERO PUSH2 0x1FCE JUMPI DUP2 PUSH2 0x1FC6 DUP2 PUSH2 0x2573 JUMP JUMPDEST SWAP3 POP POP PUSH2 0x1F9B JUMP JUMPDEST DUP2 DUP4 SGT PUSH2 0x205F JUMPI DUP6 DUP3 DUP2 MLOAD DUP2 LT PUSH2 0x1FE7 JUMPI PUSH2 0x1FE7 PUSH2 0x2410 JUMP JUMPDEST PUSH1 0x20 MUL PUSH1 0x20 ADD ADD MLOAD DUP7 DUP5 DUP2 MLOAD DUP2 LT PUSH2 0x2001 JUMPI PUSH2 0x2001 PUSH2 0x2410 JUMP JUMPDEST PUSH1 0x20 MUL PUSH1 0x20 ADD ADD MLOAD DUP8 DUP6 DUP2 MLOAD DUP2 LT PUSH2 0x201B JUMPI PUSH2 0x201B PUSH2 0x2410 JUMP JUMPDEST PUSH1 0x20 MUL PUSH1 0x20 ADD ADD DUP9 DUP6 DUP2 MLOAD DUP2 LT PUSH2 0x2034 JUMPI PUSH2 0x2034 PUSH2 0x2410 JUMP JUMPDEST PUSH1 0x20 SWAP1 DUP2 MUL SWAP2 SWAP1 SWAP2 ADD ADD SWAP2 SWAP1 SWAP2 MSTORE MSTORE DUP3 PUSH2 0x204D DUP2 PUSH2 0x255B JUMP JUMPDEST SWAP4 POP POP DUP2 DUP1 PUSH2 0x205B SWAP1 PUSH2 0x2573 JUMP JUMPDEST SWAP3 POP POP JUMPDEST PUSH2 0x1F60 JUMP JUMPDEST DUP2 DUP6 SLT ISZERO PUSH2 0x2077 JUMPI PUSH2 0x2077 DUP7 DUP7 DUP5 PUSH2 0x1F12 JUMP JUMPDEST DUP4 DUP4 SLT ISZERO PUSH2 0x1AD1 JUMPI PUSH2 0x1AD1 DUP7 DUP5 DUP7 PUSH2 0x1F12 JUMP JUMPDEST DUP1 CALLDATALOAD PUSH1 0x1 PUSH1 0x1 PUSH1 0xA0 SHL SUB DUP2 AND DUP2 EQ PUSH2 0x20A1 JUMPI PUSH1 0x0 DUP1 REVERT JUMPDEST SWAP2 SWAP1 POP JUMP JUMPDEST PUSH1 0x0 PUSH1 0x20 DUP3 DUP5 SUB SLT ISZERO PUSH2 0x20B8 JUMPI PUSH1 0x0 DUP1 REVERT JUMPDEST PUSH2 0x134E DUP3 PUSH2 0x208A JUMP JUMPDEST PUSH1 0x20 DUP1 DUP3 MSTORE DUP3 MLOAD DUP3 DUP3 ADD DUP2 SWAP1 MSTORE PUSH1 0x0 SWAP2 SWAP1 DUP5 DUP3 ADD SWAP1 PUSH1 0x40 DUP6 ADD SWAP1 DUP5 JUMPDEST DUP2 DUP2 LT ISZERO PUSH2 0x2102 JUMPI DUP4 MLOAD PUSH1 0x1 PUSH1 0x1 PUSH1 0xA0 SHL SUB AND DUP4 MSTORE SWAP3 DUP5 ADD SWAP3 SWAP2 DUP5 ADD SWAP2 PUSH1 0x1 ADD PUSH2 0x20DD JUMP JUMPDEST POP SWAP1 SWAP7 SWAP6 POP POP POP POP POP POP JUMP JUMPDEST PUSH4 0x4E487B71 PUSH1 0xE0 SHL PUSH1 0x0 MSTORE PUSH1 0x41 PUSH1 0x4 MSTORE PUSH1 0x24 PUSH1 0x0 REVERT JUMPDEST PUSH1 0x40 MLOAD PUSH1 0x1F DUP3 ADD PUSH1 0x1F NOT AND DUP2 ADD PUSH8 0xFFFFFFFFFFFFFFFF DUP2 GT DUP3 DUP3 LT OR ISZERO PUSH2 0x214D JUMPI PUSH2 0x214D PUSH2 0x210E JUMP JUMPDEST PUSH1 0x40 MSTORE SWAP2 SWAP1 POP JUMP JUMPDEST PUSH1 0x0 PUSH8 0xFFFFFFFFFFFFFFFF DUP3 GT ISZERO PUSH2 0x216F JUMPI PUSH2 0x216F PUSH2 0x210E JUMP JUMPDEST POP PUSH1 0x5 SHL PUSH1 0x20 ADD SWAP1 JUMP JUMPDEST PUSH1 0x0 PUSH1 0x20 DUP1 DUP4 DUP6 SUB SLT ISZERO PUSH2 0x218C JUMPI PUSH1 0x0 DUP1 REVERT JUMPDEST DUP3 CALLDATALOAD PUSH8 0xFFFFFFFFFFFFFFFF DUP2 GT ISZERO PUSH2 0x21A3 JUMPI PUSH1 0x0 DUP1 REVERT JUMPDEST DUP4 ADD PUSH1 0x1F DUP2 ADD DUP6 SGT PUSH2 0x21B4 JUMPI PUSH1 0x0 DUP1 REVERT JUMPDEST DUP1 CALLDATALOAD PUSH2 0x21C7 PUSH2 0x21C2 DUP3 PUSH2 0x2155 JUMP JUMPDEST PUSH2 0x2124 JUMP JUMPDEST DUP2 DUP2 MSTORE PUSH1 0x5 SWAP2 SWAP1 SWAP2 SHL DUP3 ADD DUP4 ADD SWAP1 DUP4 DUP2 ADD SWAP1 DUP8 DUP4 GT ISZERO PUSH2 0x21E6 JUMPI PUSH1 0x0 DUP1 REVERT JUMPDEST SWAP3 DUP5 ADD SWAP3 JUMPDEST DUP3 DUP5 LT ISZERO PUSH2 0x220B JUMPI PUSH2 0x21FC DUP5 PUSH2 0x208A JUMP JUMPDEST DUP3 MSTORE SWAP3 DUP5 ADD SWAP3 SWAP1 DUP5 ADD SWAP1 PUSH2 0x21EB JUMP JUMPDEST SWAP8 SWAP7 POP POP POP POP POP POP POP JUMP JUMPDEST PUSH1 0x0 DUP2 MLOAD DUP1 DUP5 MSTORE PUSH1 0x20 DUP1 DUP6 ADD SWAP5 POP DUP1 DUP5 ADD PUSH1 0x0 JUMPDEST DUP4 DUP2 LT ISZERO PUSH2 0x2246 JUMPI DUP2 MLOAD DUP8 MSTORE SWAP6 DUP3 ADD SWAP6 SWAP1 DUP3 ADD SWAP1 PUSH1 0x1 ADD PUSH2 0x222A JUMP JUMPDEST POP SWAP5 SWAP6 SWAP5 POP POP POP POP POP JUMP JUMPDEST PUSH1 0x20 DUP2 MSTORE PUSH1 0x0 PUSH2 0x134E PUSH1 0x20 DUP4 ADD DUP5 PUSH2 0x2216 JUMP JUMPDEST PUSH1 0x0 DUP3 PUSH1 0x1F DUP4 ADD SLT PUSH2 0x2275 JUMPI PUSH1 0x0 DUP1 REVERT JUMPDEST DUP2 CALLDATALOAD PUSH1 0x20 PUSH2 0x2285 PUSH2 0x21C2 DUP4 PUSH2 0x2155 JUMP JUMPDEST DUP3 DUP2 MSTORE PUSH1 0x5 SWAP3 SWAP1 SWAP3 SHL DUP5 ADD DUP2 ADD SWAP2 DUP2 DUP2 ADD SWAP1 DUP7 DUP5 GT ISZERO PUSH2 0x22A4 JUMPI PUSH1 0x0 DUP1 REVERT JUMPDEST DUP3 DUP7 ADD JUMPDEST DUP5 DUP2 LT ISZERO PUSH2 0x22BF JUMPI DUP1 CALLDATALOAD DUP4 MSTORE SWAP2 DUP4 ADD SWAP2 DUP4 ADD PUSH2 0x22A8 JUMP JUMPDEST POP SWAP7 SWAP6 POP POP POP POP POP POP JUMP JUMPDEST PUSH1 0x0 DUP1 PUSH1 0x40 DUP4 DUP6 SUB SLT ISZERO PUSH2 0x22DD JUMPI PUSH1 0x0 DUP1 REVERT JUMPDEST DUP3 CALLDATALOAD PUSH8 0xFFFFFFFFFFFFFFFF DUP1 DUP3 GT ISZERO PUSH2 0x22F5 JUMPI PUSH1 0x0 DUP1 REVERT JUMPDEST PUSH2 0x2301 DUP7 DUP4 DUP8 ADD PUSH2 0x2264 JUMP JUMPDEST SWAP4 POP PUSH1 0x20 DUP6 ADD CALLDATALOAD SWAP2 POP DUP1 DUP3 GT ISZERO PUSH2 0x2317 JUMPI PUSH1 0x0 DUP1 REVERT JUMPDEST POP PUSH2 0x2324 DUP6 DUP3 DUP7 ADD PUSH2 0x2264 JUMP JUMPDEST SWAP2 POP POP SWAP3 POP SWAP3 SWAP1 POP JUMP JUMPDEST PUSH1 0x0 PUSH1 0x20 DUP3 DUP5 SUB SLT ISZERO PUSH2 0x2340 JUMPI PUSH1 0x0 DUP1 REVERT JUMPDEST POP CALLDATALOAD SWAP2 SWAP1 POP JUMP JUMPDEST PUSH1 0x80 DUP2 MSTORE PUSH1 0x0 PUSH2 0x235A PUSH1 0x80 DUP4 ADD DUP8 PUSH2 0x2216 JUMP JUMPDEST DUP6 PUSH1 0x20 DUP5 ADD MSTORE DUP3 DUP2 SUB PUSH1 0x40 DUP5 ADD MSTORE PUSH2 0x2372 DUP2 DUP7 PUSH2 0x2216 JUMP JUMPDEST SWAP1 POP DUP3 DUP2 SUB PUSH1 0x60 DUP5 ADD MSTORE PUSH2 0x220B DUP2 DUP6 PUSH2 0x2216 JUMP JUMPDEST PUSH1 0x0 PUSH1 0x20 DUP1 DUP4 MSTORE DUP4 MLOAD DUP1 DUP3 DUP6 ADD MSTORE PUSH1 0x0 JUMPDEST DUP2 DUP2 LT ISZERO PUSH2 0x23B3 JUMPI DUP6 DUP2 ADD DUP4 ADD MLOAD DUP6 DUP3 ADD PUSH1 0x40 ADD MSTORE DUP3 ADD PUSH2 0x2397 JUMP JUMPDEST POP PUSH1 0x0 PUSH1 0x40 DUP3 DUP7 ADD ADD MSTORE PUSH1 0x40 PUSH1 0x1F NOT PUSH1 0x1F DUP4 ADD AND DUP6 ADD ADD SWAP3 POP POP POP SWAP3 SWAP2 POP POP JUMP JUMPDEST PUSH4 0x4E487B71 PUSH1 0xE0 SHL PUSH1 0x0 MSTORE PUSH1 0x11 PUSH1 0x4 MSTORE PUSH1 0x24 PUSH1 0x0 REVERT JUMPDEST DUP1 DUP3 ADD DUP1 DUP3 GT ISZERO PUSH2 0x782 JUMPI PUSH2 0x782 PUSH2 0x23D4 JUMP JUMPDEST DUP2 DUP2 SUB DUP2 DUP2 GT ISZERO PUSH2 0x782 JUMPI PUSH2 0x782 PUSH2 0x23D4 JUMP JUMPDEST PUSH4 0x4E487B71 PUSH1 0xE0 SHL PUSH1 0x0 MSTORE PUSH1 0x32 PUSH1 0x4 MSTORE PUSH1 0x24 PUSH1 0x0 REVERT JUMPDEST PUSH1 0x0 PUSH1 0x1 DUP3 ADD PUSH2 0x2438 JUMPI PUSH2 0x2438 PUSH2 0x23D4 JUMP JUMPDEST POP PUSH1 0x1 ADD SWAP1 JUMP JUMPDEST PUSH1 0x0 PUSH1 0x20 DUP3 DUP5 SUB SLT ISZERO PUSH2 0x2451 JUMPI PUSH1 0x0 DUP1 REVERT JUMPDEST POP MLOAD SWAP2 SWAP1 POP JUMP JUMPDEST PUSH4 0x4E487B71 PUSH1 0xE0 SHL PUSH1 0x0 MSTORE PUSH1 0x12 PUSH1 0x4 MSTORE PUSH1 0x24 PUSH1 0x0 REVERT JUMPDEST PUSH1 0x0 DUP3 PUSH2 0x247D JUMPI PUSH2 0x247D PUSH2 0x2458 JUMP JUMPDEST POP MOD SWAP1 JUMP JUMPDEST PUSH1 0x0 DUP3 PUSH2 0x2491 JUMPI PUSH2 0x2491 PUSH2 0x2458 JUMP JUMPDEST POP DIV SWAP1 JUMP JUMPDEST PUSH1 0x0 PUSH1 0x20 DUP3 DUP5 SUB SLT ISZERO PUSH2 0x24A8 JUMPI PUSH1 0x0 DUP1 REVERT JUMPDEST DUP2 MLOAD DUP1 ISZERO ISZERO DUP2 EQ PUSH2 0x134E JUMPI PUSH1 0x0 DUP1 REVERT JUMPDEST DUP1 DUP3 MUL DUP2 ISZERO DUP3 DUP3 DIV DUP5 EQ OR PUSH2 0x782 JUMPI PUSH2 0x782 PUSH2 0x23D4 JUMP JUMPDEST PUSH4 0x4E487B71 PUSH1 0xE0 SHL PUSH1 0x0 MSTORE PUSH1 0x31 PUSH1 0x4 MSTORE PUSH1 0x24 PUSH1 0x0 REVERT JUMPDEST DUP2 DUP2 SUB PUSH1 0x0 DUP4 SLT DUP1 ISZERO DUP4 DUP4 SGT AND DUP4 DUP4 SLT DUP3 AND OR ISZERO PUSH2 0x780 JUMPI PUSH2 0x780 PUSH2 0x23D4 JUMP JUMPDEST PUSH1 0x0 DUP3 PUSH2 0x2514 JUMPI PUSH2 0x2514 PUSH2 0x2458 JUMP JUMPDEST PUSH1 0x1 PUSH1 0xFF SHL DUP3 EQ PUSH1 0x0 NOT DUP5 EQ AND ISZERO PUSH2 0x252E JUMPI PUSH2 0x252E PUSH2 0x23D4 JUMP JUMPDEST POP SDIV SWAP1 JUMP JUMPDEST DUP1 DUP3 ADD DUP3 DUP2 SLT PUSH1 0x0 DUP4 SLT DUP1 ISZERO DUP3 AND DUP3 ISZERO DUP3 AND OR ISZERO PUSH2 0x2553 JUMPI PUSH2 0x2553 PUSH2 0x23D4 JUMP JUMPDEST POP POP SWAP3 SWAP2 POP POP JUMP JUMPDEST PUSH1 0x0 PUSH1 0x1 PUSH1 0x1 PUSH1 0xFF SHL ADD DUP3 ADD PUSH2 0x2438 JUMPI PUSH2 0x2438 PUSH2 0x23D4 JUMP JUMPDEST PUSH1 0x0 PUSH1 0x1 PUSH1 0xFF SHL DUP3 ADD PUSH2 0x2588 JUMPI PUSH2 0x2588 PUSH2 0x23D4 JUMP JUMPDEST POP PUSH1 0x0 NOT ADD SWAP1 JUMP INVALID LOG2 PUSH5 0x6970667358 0x22 SLT KECCAK256 COINBASE 0xE3 0xAA LT PUSH28 0xE8CB16B7739D448091833E8C90B0538E6CFE1E9087DEDA1BB43B264 PUSH20 0x6F6C634300081100330000000000000000000000 ","sha1":"5bca5b06ca22dd04b7cde043264fc9932bbe9c85","source":"// SPDX-License-Identifier: LicenseRef-Gyro-1.0\n// for information on licensing please see the README in the GitHub repository <https://github.com/gyrostable/core-protocol>.\npragma solidity ^0.8.4;\n\nimport \"@openzeppelin/contracts/utils/math/Math.sol\";\nimport \"@openzeppelin/contracts/utils/math/SafeCast.sol\";\nimport \"@openzeppelin/contracts/utils/structs/EnumerableSet.sol\";\n\nimport \"../../interfaces/oracles/IUSDPriceOracle.sol\";\nimport \"../../interfaces/oracles/IRelativePriceOracle.sol\";\nimport \"../../interfaces/oracles/IUSDBatchPriceOracle.sol\";\nimport \"../../libraries/EnumerableExtensions.sol\";\n\nimport \"../auth/Governable.sol\";\n\nimport \"../../libraries/Errors.sol\";\nimport \"../../libraries/FixedPoint.sol\";\n\ncontract CheckedPriceOracle is IUSDPriceOracle, IUSDBatchPriceOracle, Governable {\n    using EnumerableSet for EnumerableSet.AddressSet;\n\n    using FixedPoint for uint256;\n    using SafeCast for uint256;\n    using SafeCast for int256;\n\n    uint256 public constant INITIAL_MAX_PCT_WETH_USD_DEVIATION = 0.02e18;\n    uint256 public constant INITIAL_RELATIVE_EPSILON = 0.02e18;\n    uint256 public constant MAX_RELATIVE_EPSILON = 0.1e18;\n\n    address public immutable wethAddress;\n\n    IUSDPriceOracle public usdOracle;\n    IRelativePriceOracle public relativeOracle;\n\n    uint256 public maxPctWethUsdDeviation;\n\n    uint256 public relativeEpsilon;\n\n    EnumerableSet.AddressSet internal ethPriceOracles;\n\n    /// These are the addresses of the assets to be paired with ETH e.g. USDC or USDT.\n    /// Subset of (assetsForRelativePriceCheck union ultimate reserve assets).\n    /// Must all be stablecoins.\n    EnumerableSet.AddressSet internal quoteAssetsForPriceLevelTWAPS;\n\n    /// @dev This list is used to check if the relative price of the tokens are consistent\n    EnumerableSet.AddressSet internal assetsForRelativePriceCheck;\n\n    /// @dev Assets in this list are not required to have a relative price\n    EnumerableSet.AddressSet internal assetsWithIgnorableRelativePriceCheck;\n\n    event USDOracleUpdated(address indexed oracle);\n    event RelativeOracleUpdated(address indexed oracle);\n\n    event PriceLevelTWAPQuoteAssetAdded(address _addressToAdd);\n    event PriceLevelTWAPQuoteAssetRemoved(address _addressToRemove);\n\n    event AssetForRelativePriceCheckAdded(address _addressToAdd);\n    event AssetForRelativePriceCheckRemoved(address _addressToRemove);\n\n    event TrustedSignerOracleAdded(address _addressToAdd);\n    event TrustedSignerOracleRemoved(address _addressToRemove);\n\n    event AssetsWithIgnorableRelativePriceCheckAdded(address assetToAdd);\n    event AssetsWithIgnorableRelativePriceCheckRemoved(address assetToRemove);\n\n    /// _usdOracle is for Chainlink\n    constructor(\n        address _governor,\n        address _usdOracle,\n        address _relativeOracle,\n        address _wethAddress\n    ) Governable(_governor) {\n        require(_usdOracle != address(0), Errors.INVALID_ARGUMENT);\n        require(_relativeOracle != address(0), Errors.INVALID_ARGUMENT);\n        usdOracle = IUSDPriceOracle(_usdOracle);\n        relativeOracle = IRelativePriceOracle(_relativeOracle);\n        relativeEpsilon = INITIAL_RELATIVE_EPSILON;\n        wethAddress = _wethAddress;\n        maxPctWethUsdDeviation = INITIAL_MAX_PCT_WETH_USD_DEVIATION;\n    }\n\n    function setUSDOracle(address _usdOracle) external governanceOnly {\n        usdOracle = IUSDPriceOracle(_usdOracle);\n        emit USDOracleUpdated(_usdOracle);\n    }\n\n    function setRelativeOracle(address _relativeOracle) external governanceOnly {\n        relativeOracle = IRelativePriceOracle(_relativeOracle);\n        emit RelativeOracleUpdated(_relativeOracle);\n    }\n\n    function addETHPriceOracle(address oracleToAdd) external governanceOnly {\n        ethPriceOracles.add(oracleToAdd);\n        emit TrustedSignerOracleAdded(oracleToAdd);\n    }\n\n    function removeETHPriceOracle(address oracleToRemove) external governanceOnly {\n        ethPriceOracles.remove(oracleToRemove);\n        emit TrustedSignerOracleRemoved(oracleToRemove);\n    }\n\n    function listETHPriceOracles() external view returns (address[] memory) {\n        return ethPriceOracles.values();\n    }\n\n    function addQuoteAssetsForPriceLevelTwap(address _quoteAssetToAdd) external governanceOnly {\n        quoteAssetsForPriceLevelTWAPS.add(_quoteAssetToAdd);\n        emit PriceLevelTWAPQuoteAssetAdded(_quoteAssetToAdd);\n    }\n\n    function listQuoteAssetsForPriceLevelTwap() external view returns (address[] memory) {\n        return quoteAssetsForPriceLevelTWAPS.values();\n    }\n\n    function removeQuoteAssetsForPriceLevelTwap(address _quoteAssetToRemove)\n        external\n        governanceOnly\n    {\n        quoteAssetsForPriceLevelTWAPS.remove(_quoteAssetToRemove);\n        emit PriceLevelTWAPQuoteAssetRemoved(_quoteAssetToRemove);\n    }\n\n    function addAssetForRelativePriceCheck(address assetToAdd) external governanceOnly {\n        assetsForRelativePriceCheck.add(assetToAdd);\n        emit AssetForRelativePriceCheckAdded(assetToAdd);\n    }\n\n    function listAssetForRelativePriceCheck() external view returns (address[] memory) {\n        return assetsForRelativePriceCheck.values();\n    }\n\n    function removeAssetForRelativePriceCheck(address assetToRemove) external governanceOnly {\n        assetsForRelativePriceCheck.remove(assetToRemove);\n        emit AssetForRelativePriceCheckRemoved(assetToRemove);\n    }\n\n    function addAssetsWithIgnorableRelativePriceCheck(address assetToAdd) external governanceOnly {\n        assetsWithIgnorableRelativePriceCheck.add(assetToAdd);\n        emit AssetsWithIgnorableRelativePriceCheckAdded(assetToAdd);\n    }\n\n    function listAssetsWithIgnorableRelativePriceCheck() external view returns (address[] memory) {\n        return assetsWithIgnorableRelativePriceCheck.values();\n    }\n\n    function removeAssetsWithIgnorableRelativePriceCheck(address assetToRemove)\n        external\n        governanceOnly\n    {\n        assetsWithIgnorableRelativePriceCheck.remove(assetToRemove);\n        emit AssetsWithIgnorableRelativePriceCheckRemoved(assetToRemove);\n    }\n\n    function batchRelativePriceCheck(address[] memory tokenAddresses, uint256[] memory prices)\n        internal\n        view\n        returns (uint256[] memory)\n    {\n        uint256[] memory priceLevelTwaps = new uint256[](tokenAddresses.length);\n\n        uint256 k;\n        for (uint256 i = 0; i < tokenAddresses.length; i++) {\n            bool couldCheck = false;\n\n            for (uint256 j = 0; j < assetsForRelativePriceCheck.length(); j++) {\n                address assetForCheck = assetsForRelativePriceCheck.at(j);\n                if (\n                    tokenAddresses[i] == assetForCheck ||\n                    !relativeOracle.isPairSupported(tokenAddresses[i], assetForCheck)\n                ) {\n                    continue;\n                }\n\n                uint256 relativePrice = relativeOracle.getRelativePrice(\n                    tokenAddresses[i],\n                    assetForCheck\n                );\n\n                if (\n                    tokenAddresses[i] == wethAddress &&\n                    quoteAssetsForPriceLevelTWAPS.contains(assetForCheck)\n                ) {\n                    priceLevelTwaps[k] = relativePrice;\n                    k++;\n                } else if (\n                    assetForCheck == wethAddress &&\n                    quoteAssetsForPriceLevelTWAPS.contains(tokenAddresses[i])\n                ) {\n                    priceLevelTwaps[k] = FixedPoint.ONE.divDown(relativePrice);\n                    k++;\n                }\n\n                uint256 assetForCheckPrice = _findPrice(assetForCheck, tokenAddresses, prices);\n                _ensureRelativePriceConsistency(prices[i], assetForCheckPrice, relativePrice);\n\n                couldCheck = true;\n                break;\n            }\n\n            require(\n                couldCheck || assetsWithIgnorableRelativePriceCheck.contains(tokenAddresses[i]),\n                Errors.ASSET_NOT_SUPPORTED\n            );\n        }\n\n        uint256[] memory foundTwaps = new uint256[](k);\n        for (uint256 i = 0; i < k; i++) {\n            foundTwaps[i] = priceLevelTwaps[i];\n        }\n\n        return foundTwaps;\n    }\n\n    /// @inheritdoc IUSDPriceOracle\n    function getPriceUSD(address tokenAddress) public view override returns (uint256) {\n        address[] memory tokenAddresses = new address[](1);\n        tokenAddresses[0] = tokenAddress;\n        uint256[] memory prices = getPricesUSD(tokenAddresses);\n        return prices[0];\n    }\n\n    /// @inheritdoc IUSDBatchPriceOracle\n    function getPricesUSD(address[] memory tokenAddresses)\n        public\n        view\n        override\n        returns (uint256[] memory)\n    {\n        (uint256[] memory prices, , , ) = getPricesUSDWithMetadata(tokenAddresses);\n        return prices;\n    }\n\n    function getPricesUSDWithMetadata(address[] memory tokenAddresses)\n        public\n        view\n        returns (\n            uint256[] memory,\n            uint256,\n            uint256[] memory,\n            uint256[] memory\n        )\n    {\n        require(tokenAddresses.length > 0, Errors.INVALID_ARGUMENT);\n\n        uint256[] memory prices = new uint256[](tokenAddresses.length);\n\n        /// Will start with this being the WETH/USD price, this can be modified later if desired.\n        uint256 priceLevel;\n\n        for (uint256 i = 0; i < tokenAddresses.length; i++) {\n            prices[i] = usdOracle.getPriceUSD(tokenAddresses[i]);\n            if (tokenAddresses[i] == wethAddress) {\n                priceLevel = prices[i];\n            }\n        }\n\n        // avoid fetching the price of WETH twice\n        if (priceLevel == 0) {\n            priceLevel = usdOracle.getPriceUSD(wethAddress);\n        }\n\n        uint256[] memory priceLevelTwaps = batchRelativePriceCheck(tokenAddresses, prices);\n\n        uint256[] memory ethPrices = getETHPrices();\n\n        _checkPriceLevel(priceLevel, ethPrices, priceLevelTwaps);\n\n        return (prices, priceLevel, ethPrices, priceLevelTwaps);\n    }\n\n    function setRelativeMaxEpsilon(uint256 _relativeEpsilon) external governanceOnly {\n        require(_relativeEpsilon > 0, Errors.INVALID_ARGUMENT);\n        require(_relativeEpsilon < MAX_RELATIVE_EPSILON, Errors.INVALID_ARGUMENT);\n\n        relativeEpsilon = _relativeEpsilon;\n    }\n\n    function setMaxPctWethUsdDeviation(uint256 _maxPctWethUsdDeviation) external governanceOnly {\n        maxPctWethUsdDeviation = _maxPctWethUsdDeviation;\n    }\n\n    function _checkPriceLevel(\n        uint256 priceLevel,\n        uint256[] memory signedPrices,\n        uint256[] memory priceLevelTwaps\n    ) internal view {\n        uint256 trueWETH = getRobustWETHPrice(signedPrices, priceLevelTwaps);\n        uint256 relativePriceDifference = priceLevel.absSub(trueWETH).divDown(trueWETH);\n        require(relativePriceDifference <= maxPctWethUsdDeviation, Errors.ROOT_PRICE_NOT_GROUNDED);\n    }\n\n    function _ensureRelativePriceConsistency(\n        uint256 aUSDPrice,\n        uint256 bUSDPrice,\n        uint256 abPrice\n    ) internal view {\n        uint256 abPriceFromUSD = aUSDPrice.divDown(bUSDPrice);\n        uint256 priceDifference = abPrice.absSub(abPriceFromUSD);\n        uint256 relativePriceDifference = priceDifference.divDown(abPrice);\n\n        require(relativePriceDifference <= relativeEpsilon, Errors.STALE_PRICE);\n    }\n\n    function _computeMinOrSecondMin(uint256[] memory twapPrices) internal pure returns (uint256) {\n        // min if there are two, or the 2nd min if more than two\n        if (twapPrices.length == 1) return twapPrices[0];\n        (uint256 min, uint256 secondMin) = twapPrices[0] < twapPrices[1]\n            ? (twapPrices[0], twapPrices[1])\n            : (twapPrices[1], twapPrices[0]);\n        if (twapPrices.length == 2) return min;\n\n        for (uint256 i = 2; i < twapPrices.length; i++) {\n            if (twapPrices[i] < min) {\n                secondMin = min;\n                min = twapPrices[i];\n            } else if (twapPrices[i] < secondMin) {\n                secondMin = twapPrices[i];\n            }\n        }\n        return secondMin;\n    }\n\n    function _findPrice(\n        address target,\n        address[] memory tokenAddresses,\n        uint256[] memory prices\n    ) internal view returns (uint256) {\n        for (uint256 i = 0; i < tokenAddresses.length; i++) {\n            if (tokenAddresses[i] == target) {\n                return prices[i];\n            }\n        }\n        return usdOracle.getPriceUSD(target);\n    }\n\n    function _sort(uint256[] memory data) internal view returns (uint256[] memory) {\n        _quickSort(data, int256(0), int256(data.length - 1));\n        return data;\n    }\n\n    function _quickSort(\n        uint256[] memory arr,\n        int256 left,\n        int256 right\n    ) internal view {\n        int256 i = left;\n        int256 j = right;\n        if (i == j) return;\n        uint256 pivot = arr[uint256(left + (right - left) / 2)];\n        while (i <= j) {\n            while (arr[uint256(i)] < pivot) i++;\n            while (pivot < arr[uint256(j)]) j--;\n            if (i <= j) {\n                (arr[uint256(i)], arr[uint256(j)]) = (arr[uint256(j)], arr[uint256(i)]);\n                i++;\n                j--;\n            }\n        }\n        if (left < j) _quickSort(arr, left, j);\n        if (i < right) _quickSort(arr, i, right);\n    }\n\n    function _median(uint256[] memory array) internal view returns (uint256) {\n        _sort(array);\n        return\n            array.length % 2 == 0\n                ? Math.average(array[array.length / 2 - 1], array[array.length / 2])\n                : array[array.length / 2];\n    }\n\n    function getETHPrices() public view returns (uint256[] memory ethPrices) {\n        uint256[] memory prices = new uint256[](ethPriceOracles.length());\n        uint256 successCount;\n        for (uint256 i; i < ethPriceOracles.length(); i++) {\n            IUSDPriceOracle oracle = IUSDPriceOracle(ethPriceOracles.at(i));\n            try oracle.getPriceUSD(wethAddress) returns (uint256 price) {\n                prices[successCount++] = price;\n            } catch {}\n        }\n        require(successCount > 0, Errors.NO_WETH_PRICE);\n        ethPrices = new uint256[](successCount);\n        for (uint256 i = 0; i < successCount; i++) {\n            ethPrices[i] = prices[i];\n        }\n    }\n\n    /// @notice this function provides an estimate of the true WETH price.\n    /// 1. Find the minimum TWAP price (or second minumum if >2 TWAP prices) from a given array.\n    /// 2. Add this to an array of signed prices\n    /// 3. Compute the median of this array\n    /// @param signedPrices an array of prices from trusted providers (e.g. Chainlink, Coinbase, OKEx ETH/USD price)\n    /// @param twapPrices an array of Time Weighted Moving Average ETH/stablecoin prices\n    function getRobustWETHPrice(uint256[] memory signedPrices, uint256[] memory twapPrices)\n        public\n        view\n        returns (uint256)\n    {\n        uint256 minTWAP;\n        if (twapPrices.length == 0) {\n            return _median(signedPrices);\n        } else {\n            minTWAP = _computeMinOrSecondMin(twapPrices);\n            uint256[] memory prices = new uint256[](signedPrices.length + 1);\n            prices[prices.length - 1] = minTWAP;\n            for (uint256 i = 0; i < prices.length - 1; i++) {\n                prices[i] = signedPrices[i];\n            }\n            return _median(prices);\n        }\n    }\n}\n","sourcePath":"contracts/oracles/CheckedPriceOracle.sol","type":"contract","deployment":{"address":"0x2a18F596283f9082Fd88F82556d5F78E3c482411","chainid":"1","blockHeight":18685199}}