{"abi":[{"inputs":[{"internalType":"address","name":"_governor","type":"address"},{"internalType":"contract IUSDBatchPriceOracle","name":"_batchPriceOracle","type":"address"}],"stateMutability":"nonpayable","type":"constructor","name":"constructor"},{"anonymous":false,"inputs":[{"indexed":true,"internalType":"address","name":"priceOracle","type":"address"}],"name":"BatchPriceOracleChanged","type":"event"},{"anonymous":false,"inputs":[{"indexed":false,"internalType":"address","name":"newGovernor","type":"address"}],"name":"GovernorChangeRequested","type":"event"},{"anonymous":false,"inputs":[{"indexed":false,"internalType":"address","name":"oldGovernor","type":"address"},{"indexed":false,"internalType":"address","name":"newGovernor","type":"address"}],"name":"GovernorChanged","type":"event"},{"anonymous":false,"inputs":[{"indexed":true,"internalType":"enum Vaults.Type","name":"vaultType","type":"uint8"},{"indexed":true,"internalType":"address","name":"priceOracle","type":"address"}],"name":"VaultPriceOracleChanged","type":"event"},{"inputs":[],"name":"acceptGovernance","outputs":[],"stateMutability":"nonpayable","type":"function"},{"inputs":[],"name":"batchPriceOracle","outputs":[{"internalType":"contract IUSDBatchPriceOracle","name":"","type":"address"}],"stateMutability":"view","type":"function"},{"inputs":[{"internalType":"address","name":"newGovernor","type":"address"}],"name":"changeGovernor","outputs":[],"stateMutability":"nonpayable","type":"function"},{"inputs":[{"components":[{"internalType":"address","name":"vault","type":"address"},{"internalType":"uint8","name":"decimals","type":"uint8"},{"internalType":"address","name":"underlying","type":"address"},{"internalType":"uint256","name":"price","type":"uint256"},{"components":[{"internalType":"uint256","name":"priceAtCalibration","type":"uint256"},{"internalType":"uint256","name":"weightAtCalibration","type":"uint256"},{"internalType":"uint256","name":"shortFlowMemory","type":"uint256"},{"internalType":"uint256","name":"shortFlowThreshold","type":"uint256"},{"internalType":"uint64","name":"weightTransitionDuration","type":"uint64"},{"internalType":"uint64","name":"weightAtPreviousCalibration","type":"uint64"},{"internalType":"uint64","name":"timeOfCalibration","type":"uint64"}],"internalType":"struct DataTypes.PersistedVaultMetadata","name":"persistedMetadata","type":"tuple"},{"internalType":"uint256","name":"reserveBalance","type":"uint256"},{"internalType":"uint256","name":"currentWeight","type":"uint256"},{"internalType":"uint256","name":"targetWeight","type":"uint256"},{"components":[{"internalType":"address","name":"tokenAddress","type":"address"},{"internalType":"bool","name":"isStable","type":"bool"},{"internalType":"uint256","name":"price","type":"uint256"},{"components":[{"internalType":"uint256","name":"floor","type":"uint256"},{"internalType":"uint256","name":"ceiling","type":"uint256"}],"internalType":"struct DataTypes.Range","name":"priceRange","type":"tuple"}],"internalType":"struct DataTypes.PricedToken[]","name":"pricedTokens","type":"tuple[]"}],"internalType":"struct DataTypes.VaultInfo[]","name":"vaultsInfo","type":"tuple[]"}],"name":"fetchPricesUSD","outputs":[{"components":[{"internalType":"address","name":"vault","type":"address"},{"internalType":"uint8","name":"decimals","type":"uint8"},{"internalType":"address","name":"underlying","type":"address"},{"internalType":"uint256","name":"price","type":"uint256"},{"components":[{"internalType":"uint256","name":"priceAtCalibration","type":"uint256"},{"internalType":"uint256","name":"weightAtCalibration","type":"uint256"},{"internalType":"uint256","name":"shortFlowMemory","type":"uint256"},{"internalType":"uint256","name":"shortFlowThreshold","type":"uint256"},{"internalType":"uint64","name":"weightTransitionDuration","type":"uint64"},{"internalType":"uint64","name":"weightAtPreviousCalibration","type":"uint64"},{"internalType":"uint64","name":"timeOfCalibration","type":"uint64"}],"internalType":"struct DataTypes.PersistedVaultMetadata","name":"persistedMetadata","type":"tuple"},{"internalType":"uint256","name":"reserveBalance","type":"uint256"},{"internalType":"uint256","name":"currentWeight","type":"uint256"},{"internalType":"uint256","name":"targetWeight","type":"uint256"},{"components":[{"internalType":"address","name":"tokenAddress","type":"address"},{"internalType":"bool","name":"isStable","type":"bool"},{"internalType":"uint256","name":"price","type":"uint256"},{"components":[{"internalType":"uint256","name":"floor","type":"uint256"},{"internalType":"uint256","name":"ceiling","type":"uint256"}],"internalType":"struct DataTypes.Range","name":"priceRange","type":"tuple"}],"internalType":"struct DataTypes.PricedToken[]","name":"pricedTokens","type":"tuple[]"}],"internalType":"struct DataTypes.VaultInfo[]","name":"","type":"tuple[]"}],"stateMutability":"view","type":"function"},{"inputs":[{"internalType":"contract IGyroVault","name":"vault","type":"address"},{"components":[{"internalType":"address","name":"tokenAddress","type":"address"},{"internalType":"bool","name":"isStable","type":"bool"},{"internalType":"uint256","name":"price","type":"uint256"},{"components":[{"internalType":"uint256","name":"floor","type":"uint256"},{"internalType":"uint256","name":"ceiling","type":"uint256"}],"internalType":"struct DataTypes.Range","name":"priceRange","type":"tuple"}],"internalType":"struct DataTypes.PricedToken[]","name":"pricedTokens","type":"tuple[]"}],"name":"getVaultPrice","outputs":[{"internalType":"uint256","name":"","type":"uint256"}],"stateMutability":"view","type":"function"},{"inputs":[],"name":"governor","outputs":[{"internalType":"address","name":"","type":"address"}],"stateMutability":"view","type":"function"},{"inputs":[],"name":"pendingGovernor","outputs":[{"internalType":"address","name":"","type":"address"}],"stateMutability":"view","type":"function"},{"inputs":[{"internalType":"enum Vaults.Type","name":"vaultType","type":"uint8"},{"internalType":"contract IVaultPriceOracle","name":"priceOracle","type":"address"}],"name":"registerVaultPriceOracle","outputs":[],"stateMutability":"nonpayable","type":"function"},{"inputs":[{"internalType":"contract IUSDBatchPriceOracle","name":"priceOracle","type":"address"}],"name":"setBatchPriceOracle","outputs":[],"stateMutability":"nonpayable","type":"function"},{"inputs":[{"internalType":"enum Vaults.Type","name":"","type":"uint8"}],"name":"vaultPriceOracles","outputs":[{"internalType":"contract IVaultPriceOracle","name":"","type":"address"}],"stateMutability":"view","type":"function"}],"bytecode":"60806040523480156200001157600080fd5b506040516200189a3803806200189a83398101604081905262000034916200011b565b600080546001600160a01b0319166001600160a01b038416908117825560408051928352602083019190915283917fde4b3f61490b74c0ed6237523974fe299126bbbf8a8a7482fd220104c59b0c84910160405180910390a150604080518082019091526002815261333160f01b60208201526001600160a01b038216620000da5760405162461bcd60e51b8152600401620000d191906200015a565b60405180910390fd5b50600280546001600160a01b0319166001600160a01b039290921691909117905550620001aa565b6001600160a01b03811681146200011857600080fd5b50565b600080604083850312156200012f57600080fd5b82516200013c8162000102565b60208401519092506200014f8162000102565b809150509250929050565b600060208083528351808285015260005b8181101562000189578581018301518582016040015282016200016b565b506000604082860101526040601f19601f8301168501019250505092915050565b6116e080620001ba6000396000f3fe608060405234801561001057600080fd5b506004361061009e5760003560e01c8063cc8ce65211610066578063cc8ce65214610124578063d089a0e714610137578063e3056a3414610160578063e4c0aaf414610173578063f379c0c31461018657600080fd5b80630c340a24146100a3578063238efcbc146100d35780639ca12cda146100dd578063ad3390c0146100f0578063b32b752d14610103575b600080fd5b6000546100b6906001600160a01b031681565b6040516001600160a01b0390911681526020015b60405180910390f35b6100db6101a6565b005b6100db6100eb366004610d57565b61025f565b6002546100b6906001600160a01b031681565b610116610111366004610f59565b610338565b6040519081526020016100ca565b6100db610132366004610fa8565b610495565b6100b6610145366004610fcc565b6003602052600090815260409020546001600160a01b031681565b6001546100b6906001600160a01b031681565b6100db610181366004610fa8565b610525565b6101996101943660046110a9565b6105fa565b6040516100ca9190611284565b600154604080518082019091526002815261033360f41b6020820152906001600160a01b031633146101f45760405162461bcd60e51b81526004016101eb91906113ba565b60405180910390fd5b5060008054600180546001600160a01b03198084166001600160a01b03808416919091179095551690556040805192909116808352336020840152917fde4b3f61490b74c0ed6237523974fe299126bbbf8a8a7482fd220104c59b0c8491015b60405180910390a150565b600054604080518082019091526002815261033360f41b6020820152906001600160a01b031633146102a45760405162461bcd60e51b81526004016101eb91906113ba565b5080600360008460058111156102bc576102bc611408565b60058111156102cd576102cd611408565b8152602081019190915260400160002080546001600160a01b0319166001600160a01b03928316179055811682600581111561030b5761030b611408565b6040517fd992eaec24a9c32398c97bf68d6b13420cfa61ab8a600800cdd1c760d1fc786190600090a35050565b60008060036000856001600160a01b0316634ac032be6040518163ffffffff1660e01b8152600401602060405180830381865afa15801561037d573d6000803e3d6000fd5b505050506040513d601f19601f820116820180604052508101906103a1919061141e565b60058111156103b2576103b2611408565b60058111156103c3576103c3611408565b815260208082019290925260409081016000205481518083019092526002825261034360f41b928201929092526001600160a01b0390911691508161041b5760405162461bcd60e51b81526004016101eb91906113ba565b5060405163b71f450360e01b81526001600160a01b0382169063b71f45039061044a908790879060040161143b565b602060405180830381865afa158015610467573d6000803e3d6000fd5b505050506040513d601f19601f8201168201806040525081019061048b9190611489565b9150505b92915050565b600054604080518082019091526002815261033360f41b6020820152906001600160a01b031633146104da5760405162461bcd60e51b81526004016101eb91906113ba565b50600280546001600160a01b0319166001600160a01b0383169081179091556040517f6a307a24f425432e870b96f8281754586de703b1ea0ed2d883134333b3a3bdf190600090a250565b600054604080518082019091526002815261033360f41b6020820152906001600160a01b0316331461056a5760405162461bcd60e51b81526004016101eb91906113ba565b50604080518082019091526002815261333160f01b60208201526001600160a01b0382166105ab5760405162461bcd60e51b81526004016101eb91906113ba565b50600180546001600160a01b0319166001600160a01b0383169081179091556040519081527f67235ba2e63c748a35b95c4f92a3bbc2a1389938170a5ce6c9add5d0b03a314a90602001610254565b6060600061060783610735565b600254604051632af3128360e01b81529192506000916001600160a01b0390911690632af312839061063d9085906004016114a2565b600060405180830381865afa15801561065a573d6000803e3d6000fd5b505050506040513d6000823e601f3d908101601f1916820160405261068291908101906114ef565b905060005b845181101561072c576106b48582815181106106a5576106a561157f565b602002602001015184846108b4565b6106f98582815181106106c9576106c961157f565b6020026020010151600001518683815181106106e7576106e761157f565b60200260200101516101000151610338565b85828151811061070b5761070b61157f565b60209081029190910101516060015280610724816115ab565b915050610687565b50929392505050565b60606000805b8351811015610783578381815181106107565761075661157f565b60200260200101516101000151518261076f91906115c4565b91508061077b816115ab565b91505061073b565b506000816001600160401b0381111561079e5761079e610d90565b6040519080825280602002602001820160405280156107c7578160200160208202803683370190505b5090506000805b85518210156108995760005b8683815181106107ec576107ec61157f565b6020026020010151610100015151811015610886578683815181106108135761081361157f565b6020026020010151610100015181815181106108315761083161157f565b60200260200101516000015184838151811061084f5761084f61157f565b6001600160a01b039092166020928302919091019091015280610871816115ab565b91508261087d816115ab565b935050506107da565b5081610891816115ab565b9250506107ce565b50506108ac6108a782610986565b6109b2565b949350505050565b6000805b8461010001515182101561097f575b84610100015182815181106108de576108de61157f565b6020026020010151600001516001600160a01b03168482815181106109055761090561157f565b60200260200101516001600160a01b03161461092d5780610925816115ab565b9150506108c7565b82818151811061093f5761093f61157f565b6020026020010151856101000151838151811061095e5761095e61157f565b60209081029190910101516040015281610977816115ab565b9250506108b8565b5050505050565b60608151600003610995575090565b6109ae826000600185516109a991906115d7565b610b83565b5090565b6060600060015b8351811015610a39578381815181106109d4576109d461157f565b60200260200101516001600160a01b0316846001836109f391906115d7565b81518110610a0357610a0361157f565b60200260200101516001600160a01b031603610a275781610a23816115ab565b9250505b80610a31816115ab565b9150506109b9565b5080600003610a49575090919050565b6000818451610a5891906115d7565b6001600160401b03811115610a6f57610a6f610d90565b604051908082528060200260200182016040528015610a98578160200160208202803683370190505b5090506000805b8551821015610b795760018651610ab691906115d7565b82108015610b11575085610acb8360016115c4565b81518110610adb57610adb61157f565b60200260200101516001600160a01b0316868381518110610afe57610afe61157f565b60200260200101516001600160a01b0316145b610b6757858281518110610b2757610b2761157f565b6020026020010151838281518110610b4157610b4161157f565b6001600160a01b039092166020928302919091019091015280610b63816115ab565b9150505b81610b71816115ab565b925050610a9f565b5090949350505050565b8181808203610b93575050505050565b6000856002610ba287876115ea565b610bac9190611611565b610bb6908761164d565b81518110610bc657610bc661157f565b602002602001015190505b818313610d04575b806001600160a01b0316868481518110610bf557610bf561157f565b60200260200101516001600160a01b03161015610c1e5782610c1681611675565b935050610bd9565b858281518110610c3057610c3061157f565b60200260200101516001600160a01b0316816001600160a01b03161015610c635781610c5b8161168d565b925050610c1e565b818313610cff57858281518110610c7c57610c7c61157f565b6020026020010151868481518110610c9657610c9661157f565b6020026020010151878581518110610cb057610cb061157f565b60200260200101888581518110610cc957610cc961157f565b6001600160a01b0393841660209182029290920101529116905282610ced81611675565b9350508180610cfb9061168d565b9250505b610bd1565b81851215610d1757610d17868684610b83565b83831215610d2a57610d2a868486610b83565b505050505050565b60068110610d3f57600080fd5b50565b6001600160a01b0381168114610d3f57600080fd5b60008060408385031215610d6a57600080fd5b8235610d7581610d32565b91506020830135610d8581610d42565b809150509250929050565b634e487b7160e01b600052604160045260246000fd5b604051608081016001600160401b0381118282101715610dc857610dc8610d90565b60405290565b604080519081016001600160401b0381118282101715610dc857610dc8610d90565b60405161012081016001600160401b0381118282101715610dc857610dc8610d90565b604051601f8201601f191681016001600160401b0381118282101715610e3b57610e3b610d90565b604052919050565b60006001600160401b03821115610e5c57610e5c610d90565b5060051b60200190565b8035610e7181610d42565b919050565b600082601f830112610e8757600080fd5b81356020610e9c610e9783610e43565b610e13565b82815260a09283028501820192828201919087851115610ebb57600080fd5b8387015b85811015610f4c5780890382811215610ed85760008081fd5b610ee0610da6565b8235610eeb81610d42565b8152828701358015158114610f005760008081fd5b81880152604083810135818301526060605f198401821315610f225760008081fd5b610f2a610dce565b85820135815260808601358a8201529083015250855250928401928101610ebf565b5090979650505050505050565b60008060408385031215610f6c57600080fd5b8235610f7781610d42565b915060208301356001600160401b03811115610f9257600080fd5b610f9e85828601610e76565b9150509250929050565b600060208284031215610fba57600080fd5b8135610fc581610d42565b9392505050565b600060208284031215610fde57600080fd5b8135610fc581610d32565b803560ff81168114610e7157600080fd5b80356001600160401b0381168114610e7157600080fd5b600060e0828403121561102357600080fd5b60405160e081018181106001600160401b038211171561104557611045610d90565b80604052508091508235815260208301356020820152604083013560408201526060830135606082015261107b60808401610ffa565b608082015261108c60a08401610ffa565b60a082015261109d60c08401610ffa565b60c08201525092915050565b600060208083850312156110bc57600080fd5b82356001600160401b03808211156110d357600080fd5b818501915085601f8301126110e757600080fd5b81356110f5610e9782610e43565b81815260059190911b8301840190848101908883111561111457600080fd5b8585015b838110156111f8578035858111156111305760008081fd5b86016101e0818c03601f19018113156111495760008081fd5b611151610df0565b61115c8a8401610e66565b8152604061116b818501610fe9565b8b830152606061117c818601610e66565b828401526080915081850135818401525060a061119b8f828701611011565b828401526101808501358184015250506101a083013560c08201526101c083013560e0820152818301359150878211156111d55760008081fd5b6111e38d8b84860101610e76565b61010082015285525050918601918601611118565b5098975050505050505050565b80516001600160a01b03168252602080820151151581840152604080830151908401526060918201518051928401929092520151608082015260a00190565b600081518084526020808501945080840160005b838110156112795761126b878351611205565b965090820190600101611258565b509495945050505050565b60006020808301818452808551808352604092508286019150828160051b87010184880160005b838110156113ac57888303603f19018552815180516001600160a01b031684526101e08189015160ff8116868b015250818801516001600160a01b038116868a0152506060828101519086015260808083015161135a828801828051825260208101516020830152604081015160408301526060810151606083015260808101516001600160401b0380821660808501528060a08401511660a08501528060c08401511660c085015250505050565b505060a082015161016086015260c082015161018086015260e08201516101a08601526101008201519150806101c086015261139881860183611244565b9689019694505050908601906001016112ab565b509098975050505050505050565b600060208083528351808285015260005b818110156113e7578581018301518582016040015282016113cb565b506000604082860101526040601f19601f8301168501019250505092915050565b634e487b7160e01b600052602160045260246000fd5b60006020828403121561143057600080fd5b8151610fc581610d32565b6001600160a01b038316815260406020808301829052835191830182905260009184820191906060850190845b81811015610f4c5761147b838651611205565b948401949250600101611468565b60006020828403121561149b57600080fd5b5051919050565b6020808252825182820181905260009190848201906040850190845b818110156114e35783516001600160a01b0316835292840192918401916001016114be565b50909695505050505050565b6000602080838503121561150257600080fd5b82516001600160401b0381111561151857600080fd5b8301601f8101851361152957600080fd5b8051611537610e9782610e43565b81815260059190911b8201830190838101908783111561155657600080fd5b928401925b828410156115745783518252928401929084019061155b565b979650505050505050565b634e487b7160e01b600052603260045260246000fd5b634e487b7160e01b600052601160045260246000fd5b6000600182016115bd576115bd611595565b5060010190565b8082018082111561048f5761048f611595565b8181038181111561048f5761048f611595565b818103600083128015838313168383128216171561160a5761160a611595565b5092915050565b60008261162e57634e487b7160e01b600052601260045260246000fd5b600160ff1b82146000198414161561164857611648611595565b500590565b808201828112600083128015821682158216171561166d5761166d611595565b505092915050565b60006001600160ff1b0182016115bd576115bd611595565b6000600160ff1b82016116a2576116a2611595565b50600019019056fea2646970667358221220ef3fb7ce830a4e7e51829bf4fea434057c5cea573523db2bb7a99ebc6653003464736f6c63430008110033","bytecodeSha1":"3253d486f5ec30eccb72c21ab4ec6f70b7e86876","compiler":{"evm_version":"london","optimizer":{"enabled":true,"runs":200},"version":"0.8.17+commit.8df45f5f"},"contractName":"BatchVaultPriceOracle","language":"Solidity","natspec":{"kind":"dev","methods":{"acceptGovernance()":{"notice":"Called by the pending governor to approve the change"},"changeGovernor(address)":{"notice":"Changes the governor can only be called by the current governor"},"fetchPricesUSD((address,uint8,address,uint256,(uint256,uint256,uint256,uint256,uint64,uint64,uint64),uint256,uint256,uint256,(address,bool,uint256,(uint256,uint256))[])[])":{"notice":"Fetches the price of the vault token as well as the underlying tokens","returns":{"_0":"the same vaults info with the price data populated"}},"getVaultPrice(address,(address,bool,uint256,(uint256,uint256))[])":{"notice":"Returns the price of the vault token give the prices included in `pricedTokens`"},"governor()":{"notice":"Returns the current governor"},"pendingGovernor()":{"notice":"Returns the pending governor"}},"version":1},"opcodes":"PUSH1 0x80 PUSH1 0x40 MSTORE CALLVALUE DUP1 ISZERO PUSH2 0x10 JUMPI PUSH1 0x0 DUP1 REVERT JUMPDEST POP PUSH1 0x4 CALLDATASIZE LT PUSH2 0x9E JUMPI PUSH1 0x0 CALLDATALOAD PUSH1 0xE0 SHR DUP1 PUSH4 0xCC8CE652 GT PUSH2 0x66 JUMPI DUP1 PUSH4 0xCC8CE652 EQ PUSH2 0x124 JUMPI DUP1 PUSH4 0xD089A0E7 EQ PUSH2 0x137 JUMPI DUP1 PUSH4 0xE3056A34 EQ PUSH2 0x160 JUMPI DUP1 PUSH4 0xE4C0AAF4 EQ PUSH2 0x173 JUMPI DUP1 PUSH4 0xF379C0C3 EQ PUSH2 0x186 JUMPI PUSH1 0x0 DUP1 REVERT JUMPDEST DUP1 PUSH4 0xC340A24 EQ PUSH2 0xA3 JUMPI DUP1 PUSH4 0x238EFCBC EQ PUSH2 0xD3 JUMPI DUP1 PUSH4 0x9CA12CDA EQ PUSH2 0xDD JUMPI DUP1 PUSH4 0xAD3390C0 EQ PUSH2 0xF0 JUMPI DUP1 PUSH4 0xB32B752D EQ PUSH2 0x103 JUMPI JUMPDEST PUSH1 0x0 DUP1 REVERT JUMPDEST PUSH1 0x0 SLOAD PUSH2 0xB6 SWAP1 PUSH1 0x1 PUSH1 0x1 PUSH1 0xA0 SHL SUB AND DUP2 JUMP JUMPDEST PUSH1 0x40 MLOAD PUSH1 0x1 PUSH1 0x1 PUSH1 0xA0 SHL SUB SWAP1 SWAP2 AND DUP2 MSTORE PUSH1 0x20 ADD JUMPDEST PUSH1 0x40 MLOAD DUP1 SWAP2 SUB SWAP1 RETURN JUMPDEST PUSH2 0xDB PUSH2 0x1A6 JUMP JUMPDEST STOP JUMPDEST PUSH2 0xDB PUSH2 0xEB CALLDATASIZE PUSH1 0x4 PUSH2 0xD57 JUMP JUMPDEST PUSH2 0x25F JUMP JUMPDEST PUSH1 0x2 SLOAD PUSH2 0xB6 SWAP1 PUSH1 0x1 PUSH1 0x1 PUSH1 0xA0 SHL SUB AND DUP2 JUMP JUMPDEST PUSH2 0x116 PUSH2 0x111 CALLDATASIZE PUSH1 0x4 PUSH2 0xF59 JUMP JUMPDEST PUSH2 0x338 JUMP JUMPDEST PUSH1 0x40 MLOAD SWAP1 DUP2 MSTORE PUSH1 0x20 ADD PUSH2 0xCA JUMP JUMPDEST PUSH2 0xDB PUSH2 0x132 CALLDATASIZE PUSH1 0x4 PUSH2 0xFA8 JUMP JUMPDEST PUSH2 0x495 JUMP JUMPDEST PUSH2 0xB6 PUSH2 0x145 CALLDATASIZE PUSH1 0x4 PUSH2 0xFCC JUMP JUMPDEST PUSH1 0x3 PUSH1 0x20 MSTORE PUSH1 0x0 SWAP1 DUP2 MSTORE PUSH1 0x40 SWAP1 KECCAK256 SLOAD PUSH1 0x1 PUSH1 0x1 PUSH1 0xA0 SHL SUB AND DUP2 JUMP JUMPDEST PUSH1 0x1 SLOAD PUSH2 0xB6 SWAP1 PUSH1 0x1 PUSH1 0x1 PUSH1 0xA0 SHL SUB AND DUP2 JUMP JUMPDEST PUSH2 0xDB PUSH2 0x181 CALLDATASIZE PUSH1 0x4 PUSH2 0xFA8 JUMP JUMPDEST PUSH2 0x525 JUMP JUMPDEST PUSH2 0x199 PUSH2 0x194 CALLDATASIZE PUSH1 0x4 PUSH2 0x10A9 JUMP JUMPDEST PUSH2 0x5FA JUMP JUMPDEST PUSH1 0x40 MLOAD PUSH2 0xCA SWAP2 SWAP1 PUSH2 0x1284 JUMP JUMPDEST PUSH1 0x1 SLOAD PUSH1 0x40 DUP1 MLOAD DUP1 DUP3 ADD SWAP1 SWAP2 MSTORE PUSH1 0x2 DUP2 MSTORE PUSH2 0x333 PUSH1 0xF4 SHL PUSH1 0x20 DUP3 ADD MSTORE SWAP1 PUSH1 0x1 PUSH1 0x1 PUSH1 0xA0 SHL SUB AND CALLER EQ PUSH2 0x1F4 JUMPI PUSH1 0x40 MLOAD PUSH3 0x461BCD PUSH1 0xE5 SHL DUP2 MSTORE PUSH1 0x4 ADD PUSH2 0x1EB SWAP2 SWAP1 PUSH2 0x13BA JUMP JUMPDEST PUSH1 0x40 MLOAD DUP1 SWAP2 SUB SWAP1 REVERT JUMPDEST POP PUSH1 0x0 DUP1 SLOAD PUSH1 0x1 DUP1 SLOAD PUSH1 0x1 PUSH1 0x1 PUSH1 0xA0 SHL SUB NOT DUP1 DUP5 AND PUSH1 0x1 PUSH1 0x1 PUSH1 0xA0 SHL SUB DUP1 DUP5 AND SWAP2 SWAP1 SWAP2 OR SWAP1 SWAP6 SSTORE AND SWAP1 SSTORE PUSH1 0x40 DUP1 MLOAD SWAP3 SWAP1 SWAP2 AND DUP1 DUP4 MSTORE CALLER PUSH1 0x20 DUP5 ADD MSTORE SWAP2 PUSH32 0xDE4B3F61490B74C0ED6237523974FE299126BBBF8A8A7482FD220104C59B0C84 SWAP2 ADD JUMPDEST PUSH1 0x40 MLOAD DUP1 SWAP2 SUB SWAP1 LOG1 POP JUMP JUMPDEST PUSH1 0x0 SLOAD PUSH1 0x40 DUP1 MLOAD DUP1 DUP3 ADD SWAP1 SWAP2 MSTORE PUSH1 0x2 DUP2 MSTORE PUSH2 0x333 PUSH1 0xF4 SHL PUSH1 0x20 DUP3 ADD MSTORE SWAP1 PUSH1 0x1 PUSH1 0x1 PUSH1 0xA0 SHL SUB AND CALLER EQ PUSH2 0x2A4 JUMPI PUSH1 0x40 MLOAD PUSH3 0x461BCD PUSH1 0xE5 SHL DUP2 MSTORE PUSH1 0x4 ADD PUSH2 0x1EB SWAP2 SWAP1 PUSH2 0x13BA JUMP JUMPDEST POP DUP1 PUSH1 0x3 PUSH1 0x0 DUP5 PUSH1 0x5 DUP2 GT ISZERO PUSH2 0x2BC JUMPI PUSH2 0x2BC PUSH2 0x1408 JUMP JUMPDEST PUSH1 0x5 DUP2 GT ISZERO PUSH2 0x2CD JUMPI PUSH2 0x2CD PUSH2 0x1408 JUMP JUMPDEST DUP2 MSTORE PUSH1 0x20 DUP2 ADD SWAP2 SWAP1 SWAP2 MSTORE PUSH1 0x40 ADD PUSH1 0x0 KECCAK256 DUP1 SLOAD PUSH1 0x1 PUSH1 0x1 PUSH1 0xA0 SHL SUB NOT AND PUSH1 0x1 PUSH1 0x1 PUSH1 0xA0 SHL SUB SWAP3 DUP4 AND OR SWAP1 SSTORE DUP2 AND DUP3 PUSH1 0x5 DUP2 GT ISZERO PUSH2 0x30B JUMPI PUSH2 0x30B PUSH2 0x1408 JUMP JUMPDEST PUSH1 0x40 MLOAD PUSH32 0xD992EAEC24A9C32398C97BF68D6B13420CFA61AB8A600800CDD1C760D1FC7861 SWAP1 PUSH1 0x0 SWAP1 LOG3 POP POP JUMP JUMPDEST PUSH1 0x0 DUP1 PUSH1 0x3 PUSH1 0x0 DUP6 PUSH1 0x1 PUSH1 0x1 PUSH1 0xA0 SHL SUB AND PUSH4 0x4AC032BE PUSH1 0x40 MLOAD DUP2 PUSH4 0xFFFFFFFF AND PUSH1 0xE0 SHL DUP2 MSTORE PUSH1 0x4 ADD PUSH1 0x20 PUSH1 0x40 MLOAD DUP1 DUP4 SUB DUP2 DUP7 GAS STATICCALL ISZERO DUP1 ISZERO PUSH2 0x37D JUMPI RETURNDATASIZE PUSH1 0x0 DUP1 RETURNDATACOPY RETURNDATASIZE PUSH1 0x0 REVERT JUMPDEST POP POP POP POP PUSH1 0x40 MLOAD RETURNDATASIZE PUSH1 0x1F NOT PUSH1 0x1F DUP3 ADD AND DUP3 ADD DUP1 PUSH1 0x40 MSTORE POP DUP2 ADD SWAP1 PUSH2 0x3A1 SWAP2 SWAP1 PUSH2 0x141E JUMP JUMPDEST PUSH1 0x5 DUP2 GT ISZERO PUSH2 0x3B2 JUMPI PUSH2 0x3B2 PUSH2 0x1408 JUMP JUMPDEST PUSH1 0x5 DUP2 GT ISZERO PUSH2 0x3C3 JUMPI PUSH2 0x3C3 PUSH2 0x1408 JUMP JUMPDEST DUP2 MSTORE PUSH1 0x20 DUP1 DUP3 ADD SWAP3 SWAP1 SWAP3 MSTORE PUSH1 0x40 SWAP1 DUP2 ADD PUSH1 0x0 KECCAK256 SLOAD DUP2 MLOAD DUP1 DUP4 ADD SWAP1 SWAP3 MSTORE PUSH1 0x2 DUP3 MSTORE PUSH2 0x343 PUSH1 0xF4 SHL SWAP3 DUP3 ADD SWAP3 SWAP1 SWAP3 MSTORE PUSH1 0x1 PUSH1 0x1 PUSH1 0xA0 SHL SUB SWAP1 SWAP2 AND SWAP2 POP DUP2 PUSH2 0x41B JUMPI PUSH1 0x40 MLOAD PUSH3 0x461BCD PUSH1 0xE5 SHL DUP2 MSTORE PUSH1 0x4 ADD PUSH2 0x1EB SWAP2 SWAP1 PUSH2 0x13BA JUMP JUMPDEST POP PUSH1 0x40 MLOAD PUSH4 0xB71F4503 PUSH1 0xE0 SHL DUP2 MSTORE PUSH1 0x1 PUSH1 0x1 PUSH1 0xA0 SHL SUB DUP3 AND SWAP1 PUSH4 0xB71F4503 SWAP1 PUSH2 0x44A SWAP1 DUP8 SWAP1 DUP8 SWAP1 PUSH1 0x4 ADD PUSH2 0x143B JUMP JUMPDEST PUSH1 0x20 PUSH1 0x40 MLOAD DUP1 DUP4 SUB DUP2 DUP7 GAS STATICCALL ISZERO DUP1 ISZERO PUSH2 0x467 JUMPI RETURNDATASIZE PUSH1 0x0 DUP1 RETURNDATACOPY RETURNDATASIZE PUSH1 0x0 REVERT JUMPDEST POP POP POP POP PUSH1 0x40 MLOAD RETURNDATASIZE PUSH1 0x1F NOT PUSH1 0x1F DUP3 ADD AND DUP3 ADD DUP1 PUSH1 0x40 MSTORE POP DUP2 ADD SWAP1 PUSH2 0x48B SWAP2 SWAP1 PUSH2 0x1489 JUMP JUMPDEST SWAP2 POP POP JUMPDEST SWAP3 SWAP2 POP POP JUMP JUMPDEST PUSH1 0x0 SLOAD PUSH1 0x40 DUP1 MLOAD DUP1 DUP3 ADD SWAP1 SWAP2 MSTORE PUSH1 0x2 DUP2 MSTORE PUSH2 0x333 PUSH1 0xF4 SHL PUSH1 0x20 DUP3 ADD MSTORE SWAP1 PUSH1 0x1 PUSH1 0x1 PUSH1 0xA0 SHL SUB AND CALLER EQ PUSH2 0x4DA JUMPI PUSH1 0x40 MLOAD PUSH3 0x461BCD PUSH1 0xE5 SHL DUP2 MSTORE PUSH1 0x4 ADD PUSH2 0x1EB SWAP2 SWAP1 PUSH2 0x13BA JUMP JUMPDEST POP PUSH1 0x2 DUP1 SLOAD PUSH1 0x1 PUSH1 0x1 PUSH1 0xA0 SHL SUB NOT AND PUSH1 0x1 PUSH1 0x1 PUSH1 0xA0 SHL SUB DUP4 AND SWAP1 DUP2 OR SWAP1 SWAP2 SSTORE PUSH1 0x40 MLOAD PUSH32 0x6A307A24F425432E870B96F8281754586DE703B1EA0ED2D883134333B3A3BDF1 SWAP1 PUSH1 0x0 SWAP1 LOG2 POP JUMP JUMPDEST PUSH1 0x0 SLOAD PUSH1 0x40 DUP1 MLOAD DUP1 DUP3 ADD SWAP1 SWAP2 MSTORE PUSH1 0x2 DUP2 MSTORE PUSH2 0x333 PUSH1 0xF4 SHL PUSH1 0x20 DUP3 ADD MSTORE SWAP1 PUSH1 0x1 PUSH1 0x1 PUSH1 0xA0 SHL SUB AND CALLER EQ PUSH2 0x56A JUMPI PUSH1 0x40 MLOAD PUSH3 0x461BCD PUSH1 0xE5 SHL DUP2 MSTORE PUSH1 0x4 ADD PUSH2 0x1EB SWAP2 SWAP1 PUSH2 0x13BA JUMP JUMPDEST POP PUSH1 0x40 DUP1 MLOAD DUP1 DUP3 ADD SWAP1 SWAP2 MSTORE PUSH1 0x2 DUP2 MSTORE PUSH2 0x3331 PUSH1 0xF0 SHL PUSH1 0x20 DUP3 ADD MSTORE PUSH1 0x1 PUSH1 0x1 PUSH1 0xA0 SHL SUB DUP3 AND PUSH2 0x5AB JUMPI PUSH1 0x40 MLOAD PUSH3 0x461BCD PUSH1 0xE5 SHL DUP2 MSTORE PUSH1 0x4 ADD PUSH2 0x1EB SWAP2 SWAP1 PUSH2 0x13BA JUMP JUMPDEST POP PUSH1 0x1 DUP1 SLOAD PUSH1 0x1 PUSH1 0x1 PUSH1 0xA0 SHL SUB NOT AND PUSH1 0x1 PUSH1 0x1 PUSH1 0xA0 SHL SUB DUP4 AND SWAP1 DUP2 OR SWAP1 SWAP2 SSTORE PUSH1 0x40 MLOAD SWAP1 DUP2 MSTORE PUSH32 0x67235BA2E63C748A35B95C4F92A3BBC2A1389938170A5CE6C9ADD5D0B03A314A SWAP1 PUSH1 0x20 ADD PUSH2 0x254 JUMP JUMPDEST PUSH1 0x60 PUSH1 0x0 PUSH2 0x607 DUP4 PUSH2 0x735 JUMP JUMPDEST PUSH1 0x2 SLOAD PUSH1 0x40 MLOAD PUSH4 0x2AF31283 PUSH1 0xE0 SHL DUP2 MSTORE SWAP2 SWAP3 POP PUSH1 0x0 SWAP2 PUSH1 0x1 PUSH1 0x1 PUSH1 0xA0 SHL SUB SWAP1 SWAP2 AND SWAP1 PUSH4 0x2AF31283 SWAP1 PUSH2 0x63D SWAP1 DUP6 SWAP1 PUSH1 0x4 ADD PUSH2 0x14A2 JUMP JUMPDEST PUSH1 0x0 PUSH1 0x40 MLOAD DUP1 DUP4 SUB DUP2 DUP7 GAS STATICCALL ISZERO DUP1 ISZERO PUSH2 0x65A JUMPI RETURNDATASIZE PUSH1 0x0 DUP1 RETURNDATACOPY RETURNDATASIZE PUSH1 0x0 REVERT JUMPDEST POP POP POP POP PUSH1 0x40 MLOAD RETURNDATASIZE PUSH1 0x0 DUP3 RETURNDATACOPY PUSH1 0x1F RETURNDATASIZE SWAP1 DUP2 ADD PUSH1 0x1F NOT AND DUP3 ADD PUSH1 0x40 MSTORE PUSH2 0x682 SWAP2 SWAP1 DUP2 ADD SWAP1 PUSH2 0x14EF JUMP JUMPDEST SWAP1 POP PUSH1 0x0 JUMPDEST DUP5 MLOAD DUP2 LT ISZERO PUSH2 0x72C JUMPI PUSH2 0x6B4 DUP6 DUP3 DUP2 MLOAD DUP2 LT PUSH2 0x6A5 JUMPI PUSH2 0x6A5 PUSH2 0x157F JUMP JUMPDEST PUSH1 0x20 MUL PUSH1 0x20 ADD ADD MLOAD DUP5 DUP5 PUSH2 0x8B4 JUMP JUMPDEST PUSH2 0x6F9 DUP6 DUP3 DUP2 MLOAD DUP2 LT PUSH2 0x6C9 JUMPI PUSH2 0x6C9 PUSH2 0x157F JUMP JUMPDEST PUSH1 0x20 MUL PUSH1 0x20 ADD ADD MLOAD PUSH1 0x0 ADD MLOAD DUP7 DUP4 DUP2 MLOAD DUP2 LT PUSH2 0x6E7 JUMPI PUSH2 0x6E7 PUSH2 0x157F JUMP JUMPDEST PUSH1 0x20 MUL PUSH1 0x20 ADD ADD MLOAD PUSH2 0x100 ADD MLOAD PUSH2 0x338 JUMP JUMPDEST DUP6 DUP3 DUP2 MLOAD DUP2 LT PUSH2 0x70B JUMPI PUSH2 0x70B PUSH2 0x157F JUMP JUMPDEST PUSH1 0x20 SWAP1 DUP2 MUL SWAP2 SWAP1 SWAP2 ADD ADD MLOAD PUSH1 0x60 ADD MSTORE DUP1 PUSH2 0x724 DUP2 PUSH2 0x15AB JUMP JUMPDEST SWAP2 POP POP PUSH2 0x687 JUMP JUMPDEST POP SWAP3 SWAP4 SWAP3 POP POP POP JUMP JUMPDEST PUSH1 0x60 PUSH1 0x0 DUP1 JUMPDEST DUP4 MLOAD DUP2 LT ISZERO PUSH2 0x783 JUMPI DUP4 DUP2 DUP2 MLOAD DUP2 LT PUSH2 0x756 JUMPI PUSH2 0x756 PUSH2 0x157F JUMP JUMPDEST PUSH1 0x20 MUL PUSH1 0x20 ADD ADD MLOAD PUSH2 0x100 ADD MLOAD MLOAD DUP3 PUSH2 0x76F SWAP2 SWAP1 PUSH2 0x15C4 JUMP JUMPDEST SWAP2 POP DUP1 PUSH2 0x77B DUP2 PUSH2 0x15AB JUMP JUMPDEST SWAP2 POP POP PUSH2 0x73B JUMP JUMPDEST POP PUSH1 0x0 DUP2 PUSH1 0x1 PUSH1 0x1 PUSH1 0x40 SHL SUB DUP2 GT ISZERO PUSH2 0x79E JUMPI PUSH2 0x79E PUSH2 0xD90 JUMP JUMPDEST PUSH1 0x40 MLOAD SWAP1 DUP1 DUP3 MSTORE DUP1 PUSH1 0x20 MUL PUSH1 0x20 ADD DUP3 ADD PUSH1 0x40 MSTORE DUP1 ISZERO PUSH2 0x7C7 JUMPI DUP2 PUSH1 0x20 ADD PUSH1 0x20 DUP3 MUL DUP1 CALLDATASIZE DUP4 CALLDATACOPY ADD SWAP1 POP JUMPDEST POP SWAP1 POP PUSH1 0x0 DUP1 JUMPDEST DUP6 MLOAD DUP3 LT ISZERO PUSH2 0x899 JUMPI PUSH1 0x0 JUMPDEST DUP7 DUP4 DUP2 MLOAD DUP2 LT PUSH2 0x7EC JUMPI PUSH2 0x7EC PUSH2 0x157F JUMP JUMPDEST PUSH1 0x20 MUL PUSH1 0x20 ADD ADD MLOAD PUSH2 0x100 ADD MLOAD MLOAD DUP2 LT ISZERO PUSH2 0x886 JUMPI DUP7 DUP4 DUP2 MLOAD DUP2 LT PUSH2 0x813 JUMPI PUSH2 0x813 PUSH2 0x157F JUMP JUMPDEST PUSH1 0x20 MUL PUSH1 0x20 ADD ADD MLOAD PUSH2 0x100 ADD MLOAD DUP2 DUP2 MLOAD DUP2 LT PUSH2 0x831 JUMPI PUSH2 0x831 PUSH2 0x157F JUMP JUMPDEST PUSH1 0x20 MUL PUSH1 0x20 ADD ADD MLOAD PUSH1 0x0 ADD MLOAD DUP5 DUP4 DUP2 MLOAD DUP2 LT PUSH2 0x84F JUMPI PUSH2 0x84F PUSH2 0x157F JUMP JUMPDEST PUSH1 0x1 PUSH1 0x1 PUSH1 0xA0 SHL SUB SWAP1 SWAP3 AND PUSH1 0x20 SWAP3 DUP4 MUL SWAP2 SWAP1 SWAP2 ADD SWAP1 SWAP2 ADD MSTORE DUP1 PUSH2 0x871 DUP2 PUSH2 0x15AB JUMP JUMPDEST SWAP2 POP DUP3 PUSH2 0x87D DUP2 PUSH2 0x15AB JUMP JUMPDEST SWAP4 POP POP POP PUSH2 0x7DA JUMP JUMPDEST POP DUP2 PUSH2 0x891 DUP2 PUSH2 0x15AB JUMP JUMPDEST SWAP3 POP POP PUSH2 0x7CE JUMP JUMPDEST POP POP PUSH2 0x8AC PUSH2 0x8A7 DUP3 PUSH2 0x986 JUMP JUMPDEST PUSH2 0x9B2 JUMP JUMPDEST SWAP5 SWAP4 POP POP POP POP JUMP JUMPDEST PUSH1 0x0 DUP1 JUMPDEST DUP5 PUSH2 0x100 ADD MLOAD MLOAD DUP3 LT ISZERO PUSH2 0x97F JUMPI JUMPDEST DUP5 PUSH2 0x100 ADD MLOAD DUP3 DUP2 MLOAD DUP2 LT PUSH2 0x8DE JUMPI PUSH2 0x8DE PUSH2 0x157F JUMP JUMPDEST PUSH1 0x20 MUL PUSH1 0x20 ADD ADD MLOAD PUSH1 0x0 ADD MLOAD PUSH1 0x1 PUSH1 0x1 PUSH1 0xA0 SHL SUB AND DUP5 DUP3 DUP2 MLOAD DUP2 LT PUSH2 0x905 JUMPI PUSH2 0x905 PUSH2 0x157F JUMP JUMPDEST PUSH1 0x20 MUL PUSH1 0x20 ADD ADD MLOAD PUSH1 0x1 PUSH1 0x1 PUSH1 0xA0 SHL SUB AND EQ PUSH2 0x92D JUMPI DUP1 PUSH2 0x925 DUP2 PUSH2 0x15AB JUMP JUMPDEST SWAP2 POP POP PUSH2 0x8C7 JUMP JUMPDEST DUP3 DUP2 DUP2 MLOAD DUP2 LT PUSH2 0x93F JUMPI PUSH2 0x93F PUSH2 0x157F JUMP JUMPDEST PUSH1 0x20 MUL PUSH1 0x20 ADD ADD MLOAD DUP6 PUSH2 0x100 ADD MLOAD DUP4 DUP2 MLOAD DUP2 LT PUSH2 0x95E JUMPI PUSH2 0x95E PUSH2 0x157F JUMP JUMPDEST PUSH1 0x20 SWAP1 DUP2 MUL SWAP2 SWAP1 SWAP2 ADD ADD MLOAD PUSH1 0x40 ADD MSTORE DUP2 PUSH2 0x977 DUP2 PUSH2 0x15AB JUMP JUMPDEST SWAP3 POP POP PUSH2 0x8B8 JUMP JUMPDEST POP POP POP POP POP JUMP JUMPDEST PUSH1 0x60 DUP2 MLOAD PUSH1 0x0 SUB PUSH2 0x995 JUMPI POP SWAP1 JUMP JUMPDEST PUSH2 0x9AE DUP3 PUSH1 0x0 PUSH1 0x1 DUP6 MLOAD PUSH2 0x9A9 SWAP2 SWAP1 PUSH2 0x15D7 JUMP JUMPDEST PUSH2 0xB83 JUMP JUMPDEST POP SWAP1 JUMP JUMPDEST PUSH1 0x60 PUSH1 0x0 PUSH1 0x1 JUMPDEST DUP4 MLOAD DUP2 LT ISZERO PUSH2 0xA39 JUMPI DUP4 DUP2 DUP2 MLOAD DUP2 LT PUSH2 0x9D4 JUMPI PUSH2 0x9D4 PUSH2 0x157F JUMP JUMPDEST PUSH1 0x20 MUL PUSH1 0x20 ADD ADD MLOAD PUSH1 0x1 PUSH1 0x1 PUSH1 0xA0 SHL SUB AND DUP5 PUSH1 0x1 DUP4 PUSH2 0x9F3 SWAP2 SWAP1 PUSH2 0x15D7 JUMP JUMPDEST DUP2 MLOAD DUP2 LT PUSH2 0xA03 JUMPI PUSH2 0xA03 PUSH2 0x157F JUMP JUMPDEST PUSH1 0x20 MUL PUSH1 0x20 ADD ADD MLOAD PUSH1 0x1 PUSH1 0x1 PUSH1 0xA0 SHL SUB AND SUB PUSH2 0xA27 JUMPI DUP2 PUSH2 0xA23 DUP2 PUSH2 0x15AB JUMP JUMPDEST SWAP3 POP POP JUMPDEST DUP1 PUSH2 0xA31 DUP2 PUSH2 0x15AB JUMP JUMPDEST SWAP2 POP POP PUSH2 0x9B9 JUMP JUMPDEST POP DUP1 PUSH1 0x0 SUB PUSH2 0xA49 JUMPI POP SWAP1 SWAP2 SWAP1 POP JUMP JUMPDEST PUSH1 0x0 DUP2 DUP5 MLOAD PUSH2 0xA58 SWAP2 SWAP1 PUSH2 0x15D7 JUMP JUMPDEST PUSH1 0x1 PUSH1 0x1 PUSH1 0x40 SHL SUB DUP2 GT ISZERO PUSH2 0xA6F JUMPI PUSH2 0xA6F PUSH2 0xD90 JUMP JUMPDEST PUSH1 0x40 MLOAD SWAP1 DUP1 DUP3 MSTORE DUP1 PUSH1 0x20 MUL PUSH1 0x20 ADD DUP3 ADD PUSH1 0x40 MSTORE DUP1 ISZERO PUSH2 0xA98 JUMPI DUP2 PUSH1 0x20 ADD PUSH1 0x20 DUP3 MUL DUP1 CALLDATASIZE DUP4 CALLDATACOPY ADD SWAP1 POP JUMPDEST POP SWAP1 POP PUSH1 0x0 DUP1 JUMPDEST DUP6 MLOAD DUP3 LT ISZERO PUSH2 0xB79 JUMPI PUSH1 0x1 DUP7 MLOAD PUSH2 0xAB6 SWAP2 SWAP1 PUSH2 0x15D7 JUMP JUMPDEST DUP3 LT DUP1 ISZERO PUSH2 0xB11 JUMPI POP DUP6 PUSH2 0xACB DUP4 PUSH1 0x1 PUSH2 0x15C4 JUMP JUMPDEST DUP2 MLOAD DUP2 LT PUSH2 0xADB JUMPI PUSH2 0xADB PUSH2 0x157F JUMP JUMPDEST PUSH1 0x20 MUL PUSH1 0x20 ADD ADD MLOAD PUSH1 0x1 PUSH1 0x1 PUSH1 0xA0 SHL SUB AND DUP7 DUP4 DUP2 MLOAD DUP2 LT PUSH2 0xAFE JUMPI PUSH2 0xAFE PUSH2 0x157F JUMP JUMPDEST PUSH1 0x20 MUL PUSH1 0x20 ADD ADD MLOAD PUSH1 0x1 PUSH1 0x1 PUSH1 0xA0 SHL SUB AND EQ JUMPDEST PUSH2 0xB67 JUMPI DUP6 DUP3 DUP2 MLOAD DUP2 LT PUSH2 0xB27 JUMPI PUSH2 0xB27 PUSH2 0x157F JUMP JUMPDEST PUSH1 0x20 MUL PUSH1 0x20 ADD ADD MLOAD DUP4 DUP3 DUP2 MLOAD DUP2 LT PUSH2 0xB41 JUMPI PUSH2 0xB41 PUSH2 0x157F JUMP JUMPDEST PUSH1 0x1 PUSH1 0x1 PUSH1 0xA0 SHL SUB SWAP1 SWAP3 AND PUSH1 0x20 SWAP3 DUP4 MUL SWAP2 SWAP1 SWAP2 ADD SWAP1 SWAP2 ADD MSTORE DUP1 PUSH2 0xB63 DUP2 PUSH2 0x15AB JUMP JUMPDEST SWAP2 POP POP JUMPDEST DUP2 PUSH2 0xB71 DUP2 PUSH2 0x15AB JUMP JUMPDEST SWAP3 POP POP PUSH2 0xA9F JUMP JUMPDEST POP SWAP1 SWAP5 SWAP4 POP POP POP POP JUMP JUMPDEST DUP2 DUP2 DUP1 DUP3 SUB PUSH2 0xB93 JUMPI POP POP POP POP POP JUMP JUMPDEST PUSH1 0x0 DUP6 PUSH1 0x2 PUSH2 0xBA2 DUP8 DUP8 PUSH2 0x15EA JUMP JUMPDEST PUSH2 0xBAC SWAP2 SWAP1 PUSH2 0x1611 JUMP JUMPDEST PUSH2 0xBB6 SWAP1 DUP8 PUSH2 0x164D JUMP JUMPDEST DUP2 MLOAD DUP2 LT PUSH2 0xBC6 JUMPI PUSH2 0xBC6 PUSH2 0x157F JUMP JUMPDEST PUSH1 0x20 MUL PUSH1 0x20 ADD ADD MLOAD SWAP1 POP JUMPDEST DUP2 DUP4 SGT PUSH2 0xD04 JUMPI JUMPDEST DUP1 PUSH1 0x1 PUSH1 0x1 PUSH1 0xA0 SHL SUB AND DUP7 DUP5 DUP2 MLOAD DUP2 LT PUSH2 0xBF5 JUMPI PUSH2 0xBF5 PUSH2 0x157F JUMP JUMPDEST PUSH1 0x20 MUL PUSH1 0x20 ADD ADD MLOAD PUSH1 0x1 PUSH1 0x1 PUSH1 0xA0 SHL SUB AND LT ISZERO PUSH2 0xC1E JUMPI DUP3 PUSH2 0xC16 DUP2 PUSH2 0x1675 JUMP JUMPDEST SWAP4 POP POP PUSH2 0xBD9 JUMP JUMPDEST DUP6 DUP3 DUP2 MLOAD DUP2 LT PUSH2 0xC30 JUMPI PUSH2 0xC30 PUSH2 0x157F JUMP JUMPDEST PUSH1 0x20 MUL PUSH1 0x20 ADD ADD MLOAD PUSH1 0x1 PUSH1 0x1 PUSH1 0xA0 SHL SUB AND DUP2 PUSH1 0x1 PUSH1 0x1 PUSH1 0xA0 SHL SUB AND LT ISZERO PUSH2 0xC63 JUMPI DUP2 PUSH2 0xC5B DUP2 PUSH2 0x168D JUMP JUMPDEST SWAP3 POP POP PUSH2 0xC1E JUMP JUMPDEST DUP2 DUP4 SGT PUSH2 0xCFF JUMPI DUP6 DUP3 DUP2 MLOAD DUP2 LT PUSH2 0xC7C JUMPI PUSH2 0xC7C PUSH2 0x157F JUMP JUMPDEST PUSH1 0x20 MUL PUSH1 0x20 ADD ADD MLOAD DUP7 DUP5 DUP2 MLOAD DUP2 LT PUSH2 0xC96 JUMPI PUSH2 0xC96 PUSH2 0x157F JUMP JUMPDEST PUSH1 0x20 MUL PUSH1 0x20 ADD ADD MLOAD DUP8 DUP6 DUP2 MLOAD DUP2 LT PUSH2 0xCB0 JUMPI PUSH2 0xCB0 PUSH2 0x157F JUMP JUMPDEST PUSH1 0x20 MUL PUSH1 0x20 ADD ADD DUP9 DUP6 DUP2 MLOAD DUP2 LT PUSH2 0xCC9 JUMPI PUSH2 0xCC9 PUSH2 0x157F JUMP JUMPDEST PUSH1 0x1 PUSH1 0x1 PUSH1 0xA0 SHL SUB SWAP4 DUP5 AND PUSH1 0x20 SWAP2 DUP3 MUL SWAP3 SWAP1 SWAP3 ADD ADD MSTORE SWAP2 AND SWAP1 MSTORE DUP3 PUSH2 0xCED DUP2 PUSH2 0x1675 JUMP JUMPDEST SWAP4 POP POP DUP2 DUP1 PUSH2 0xCFB SWAP1 PUSH2 0x168D JUMP JUMPDEST SWAP3 POP POP JUMPDEST PUSH2 0xBD1 JUMP JUMPDEST DUP2 DUP6 SLT ISZERO PUSH2 0xD17 JUMPI PUSH2 0xD17 DUP7 DUP7 DUP5 PUSH2 0xB83 JUMP JUMPDEST DUP4 DUP4 SLT ISZERO PUSH2 0xD2A JUMPI PUSH2 0xD2A DUP7 DUP5 DUP7 PUSH2 0xB83 JUMP JUMPDEST POP POP POP POP POP POP JUMP JUMPDEST PUSH1 0x6 DUP2 LT PUSH2 0xD3F JUMPI PUSH1 0x0 DUP1 REVERT JUMPDEST POP JUMP JUMPDEST PUSH1 0x1 PUSH1 0x1 PUSH1 0xA0 SHL SUB DUP2 AND DUP2 EQ PUSH2 0xD3F JUMPI PUSH1 0x0 DUP1 REVERT JUMPDEST PUSH1 0x0 DUP1 PUSH1 0x40 DUP4 DUP6 SUB SLT ISZERO PUSH2 0xD6A JUMPI PUSH1 0x0 DUP1 REVERT JUMPDEST DUP3 CALLDATALOAD PUSH2 0xD75 DUP2 PUSH2 0xD32 JUMP JUMPDEST SWAP2 POP PUSH1 0x20 DUP4 ADD CALLDATALOAD PUSH2 0xD85 DUP2 PUSH2 0xD42 JUMP JUMPDEST DUP1 SWAP2 POP POP SWAP3 POP SWAP3 SWAP1 POP JUMP JUMPDEST PUSH4 0x4E487B71 PUSH1 0xE0 SHL PUSH1 0x0 MSTORE PUSH1 0x41 PUSH1 0x4 MSTORE PUSH1 0x24 PUSH1 0x0 REVERT JUMPDEST PUSH1 0x40 MLOAD PUSH1 0x80 DUP2 ADD PUSH1 0x1 PUSH1 0x1 PUSH1 0x40 SHL SUB DUP2 GT DUP3 DUP3 LT OR ISZERO PUSH2 0xDC8 JUMPI PUSH2 0xDC8 PUSH2 0xD90 JUMP JUMPDEST PUSH1 0x40 MSTORE SWAP1 JUMP JUMPDEST PUSH1 0x40 DUP1 MLOAD SWAP1 DUP2 ADD PUSH1 0x1 PUSH1 0x1 PUSH1 0x40 SHL SUB DUP2 GT DUP3 DUP3 LT OR ISZERO PUSH2 0xDC8 JUMPI PUSH2 0xDC8 PUSH2 0xD90 JUMP JUMPDEST PUSH1 0x40 MLOAD PUSH2 0x120 DUP2 ADD PUSH1 0x1 PUSH1 0x1 PUSH1 0x40 SHL SUB DUP2 GT DUP3 DUP3 LT OR ISZERO PUSH2 0xDC8 JUMPI PUSH2 0xDC8 PUSH2 0xD90 JUMP JUMPDEST PUSH1 0x40 MLOAD PUSH1 0x1F DUP3 ADD PUSH1 0x1F NOT AND DUP2 ADD PUSH1 0x1 PUSH1 0x1 PUSH1 0x40 SHL SUB DUP2 GT DUP3 DUP3 LT OR ISZERO PUSH2 0xE3B JUMPI PUSH2 0xE3B PUSH2 0xD90 JUMP JUMPDEST PUSH1 0x40 MSTORE SWAP2 SWAP1 POP JUMP JUMPDEST PUSH1 0x0 PUSH1 0x1 PUSH1 0x1 PUSH1 0x40 SHL SUB DUP3 GT ISZERO PUSH2 0xE5C JUMPI PUSH2 0xE5C PUSH2 0xD90 JUMP JUMPDEST POP PUSH1 0x5 SHL PUSH1 0x20 ADD SWAP1 JUMP JUMPDEST DUP1 CALLDATALOAD PUSH2 0xE71 DUP2 PUSH2 0xD42 JUMP JUMPDEST SWAP2 SWAP1 POP JUMP JUMPDEST PUSH1 0x0 DUP3 PUSH1 0x1F DUP4 ADD SLT PUSH2 0xE87 JUMPI PUSH1 0x0 DUP1 REVERT JUMPDEST DUP2 CALLDATALOAD PUSH1 0x20 PUSH2 0xE9C PUSH2 0xE97 DUP4 PUSH2 0xE43 JUMP JUMPDEST PUSH2 0xE13 JUMP JUMPDEST DUP3 DUP2 MSTORE PUSH1 0xA0 SWAP3 DUP4 MUL DUP6 ADD DUP3 ADD SWAP3 DUP3 DUP3 ADD SWAP2 SWAP1 DUP8 DUP6 GT ISZERO PUSH2 0xEBB JUMPI PUSH1 0x0 DUP1 REVERT JUMPDEST DUP4 DUP8 ADD JUMPDEST DUP6 DUP2 LT ISZERO PUSH2 0xF4C JUMPI DUP1 DUP10 SUB DUP3 DUP2 SLT ISZERO PUSH2 0xED8 JUMPI PUSH1 0x0 DUP1 DUP2 REVERT JUMPDEST PUSH2 0xEE0 PUSH2 0xDA6 JUMP JUMPDEST DUP3 CALLDATALOAD PUSH2 0xEEB DUP2 PUSH2 0xD42 JUMP JUMPDEST DUP2 MSTORE DUP3 DUP8 ADD CALLDATALOAD DUP1 ISZERO ISZERO DUP2 EQ PUSH2 0xF00 JUMPI PUSH1 0x0 DUP1 DUP2 REVERT JUMPDEST DUP2 DUP9 ADD MSTORE PUSH1 0x40 DUP4 DUP2 ADD CALLDATALOAD DUP2 DUP4 ADD MSTORE PUSH1 0x60 PUSH1 0x5F NOT DUP5 ADD DUP3 SGT ISZERO PUSH2 0xF22 JUMPI PUSH1 0x0 DUP1 DUP2 REVERT JUMPDEST PUSH2 0xF2A PUSH2 0xDCE JUMP JUMPDEST DUP6 DUP3 ADD CALLDATALOAD DUP2 MSTORE PUSH1 0x80 DUP7 ADD CALLDATALOAD DUP11 DUP3 ADD MSTORE SWAP1 DUP4 ADD MSTORE POP DUP6 MSTORE POP SWAP3 DUP5 ADD SWAP3 DUP2 ADD PUSH2 0xEBF JUMP JUMPDEST POP SWAP1 SWAP8 SWAP7 POP POP POP POP POP POP POP JUMP JUMPDEST PUSH1 0x0 DUP1 PUSH1 0x40 DUP4 DUP6 SUB SLT ISZERO PUSH2 0xF6C JUMPI PUSH1 0x0 DUP1 REVERT JUMPDEST DUP3 CALLDATALOAD PUSH2 0xF77 DUP2 PUSH2 0xD42 JUMP JUMPDEST SWAP2 POP PUSH1 0x20 DUP4 ADD CALLDATALOAD PUSH1 0x1 PUSH1 0x1 PUSH1 0x40 SHL SUB DUP2 GT ISZERO PUSH2 0xF92 JUMPI PUSH1 0x0 DUP1 REVERT JUMPDEST PUSH2 0xF9E DUP6 DUP3 DUP7 ADD PUSH2 0xE76 JUMP JUMPDEST SWAP2 POP POP SWAP3 POP SWAP3 SWAP1 POP JUMP JUMPDEST PUSH1 0x0 PUSH1 0x20 DUP3 DUP5 SUB SLT ISZERO PUSH2 0xFBA JUMPI PUSH1 0x0 DUP1 REVERT JUMPDEST DUP2 CALLDATALOAD PUSH2 0xFC5 DUP2 PUSH2 0xD42 JUMP JUMPDEST SWAP4 SWAP3 POP POP POP JUMP JUMPDEST PUSH1 0x0 PUSH1 0x20 DUP3 DUP5 SUB SLT ISZERO PUSH2 0xFDE JUMPI PUSH1 0x0 DUP1 REVERT JUMPDEST DUP2 CALLDATALOAD PUSH2 0xFC5 DUP2 PUSH2 0xD32 JUMP JUMPDEST DUP1 CALLDATALOAD PUSH1 0xFF DUP2 AND DUP2 EQ PUSH2 0xE71 JUMPI PUSH1 0x0 DUP1 REVERT JUMPDEST DUP1 CALLDATALOAD PUSH1 0x1 PUSH1 0x1 PUSH1 0x40 SHL SUB DUP2 AND DUP2 EQ PUSH2 0xE71 JUMPI PUSH1 0x0 DUP1 REVERT JUMPDEST PUSH1 0x0 PUSH1 0xE0 DUP3 DUP5 SUB SLT ISZERO PUSH2 0x1023 JUMPI PUSH1 0x0 DUP1 REVERT JUMPDEST PUSH1 0x40 MLOAD PUSH1 0xE0 DUP2 ADD DUP2 DUP2 LT PUSH1 0x1 PUSH1 0x1 PUSH1 0x40 SHL SUB DUP3 GT OR ISZERO PUSH2 0x1045 JUMPI PUSH2 0x1045 PUSH2 0xD90 JUMP JUMPDEST DUP1 PUSH1 0x40 MSTORE POP DUP1 SWAP2 POP DUP3 CALLDATALOAD DUP2 MSTORE PUSH1 0x20 DUP4 ADD CALLDATALOAD PUSH1 0x20 DUP3 ADD MSTORE PUSH1 0x40 DUP4 ADD CALLDATALOAD PUSH1 0x40 DUP3 ADD MSTORE PUSH1 0x60 DUP4 ADD CALLDATALOAD PUSH1 0x60 DUP3 ADD MSTORE PUSH2 0x107B PUSH1 0x80 DUP5 ADD PUSH2 0xFFA JUMP JUMPDEST PUSH1 0x80 DUP3 ADD MSTORE PUSH2 0x108C PUSH1 0xA0 DUP5 ADD PUSH2 0xFFA JUMP JUMPDEST PUSH1 0xA0 DUP3 ADD MSTORE PUSH2 0x109D PUSH1 0xC0 DUP5 ADD PUSH2 0xFFA JUMP JUMPDEST PUSH1 0xC0 DUP3 ADD MSTORE POP SWAP3 SWAP2 POP POP JUMP JUMPDEST PUSH1 0x0 PUSH1 0x20 DUP1 DUP4 DUP6 SUB SLT ISZERO PUSH2 0x10BC JUMPI PUSH1 0x0 DUP1 REVERT JUMPDEST DUP3 CALLDATALOAD PUSH1 0x1 PUSH1 0x1 PUSH1 0x40 SHL SUB DUP1 DUP3 GT ISZERO PUSH2 0x10D3 JUMPI PUSH1 0x0 DUP1 REVERT JUMPDEST DUP2 DUP6 ADD SWAP2 POP DUP6 PUSH1 0x1F DUP4 ADD SLT PUSH2 0x10E7 JUMPI PUSH1 0x0 DUP1 REVERT JUMPDEST DUP2 CALLDATALOAD PUSH2 0x10F5 PUSH2 0xE97 DUP3 PUSH2 0xE43 JUMP JUMPDEST DUP2 DUP2 MSTORE PUSH1 0x5 SWAP2 SWAP1 SWAP2 SHL DUP4 ADD DUP5 ADD SWAP1 DUP5 DUP2 ADD SWAP1 DUP9 DUP4 GT ISZERO PUSH2 0x1114 JUMPI PUSH1 0x0 DUP1 REVERT JUMPDEST DUP6 DUP6 ADD JUMPDEST DUP4 DUP2 LT ISZERO PUSH2 0x11F8 JUMPI DUP1 CALLDATALOAD DUP6 DUP2 GT ISZERO PUSH2 0x1130 JUMPI PUSH1 0x0 DUP1 DUP2 REVERT JUMPDEST DUP7 ADD PUSH2 0x1E0 DUP2 DUP13 SUB PUSH1 0x1F NOT ADD DUP2 SGT ISZERO PUSH2 0x1149 JUMPI PUSH1 0x0 DUP1 DUP2 REVERT JUMPDEST PUSH2 0x1151 PUSH2 0xDF0 JUMP JUMPDEST PUSH2 0x115C DUP11 DUP5 ADD PUSH2 0xE66 JUMP JUMPDEST DUP2 MSTORE PUSH1 0x40 PUSH2 0x116B DUP2 DUP6 ADD PUSH2 0xFE9 JUMP JUMPDEST DUP12 DUP4 ADD MSTORE PUSH1 0x60 PUSH2 0x117C DUP2 DUP7 ADD PUSH2 0xE66 JUMP JUMPDEST DUP3 DUP5 ADD MSTORE PUSH1 0x80 SWAP2 POP DUP2 DUP6 ADD CALLDATALOAD DUP2 DUP5 ADD MSTORE POP PUSH1 0xA0 PUSH2 0x119B DUP16 DUP3 DUP8 ADD PUSH2 0x1011 JUMP JUMPDEST DUP3 DUP5 ADD MSTORE PUSH2 0x180 DUP6 ADD CALLDATALOAD DUP2 DUP5 ADD MSTORE POP POP PUSH2 0x1A0 DUP4 ADD CALLDATALOAD PUSH1 0xC0 DUP3 ADD MSTORE PUSH2 0x1C0 DUP4 ADD CALLDATALOAD PUSH1 0xE0 DUP3 ADD MSTORE DUP2 DUP4 ADD CALLDATALOAD SWAP2 POP DUP8 DUP3 GT ISZERO PUSH2 0x11D5 JUMPI PUSH1 0x0 DUP1 DUP2 REVERT JUMPDEST PUSH2 0x11E3 DUP14 DUP12 DUP5 DUP7 ADD ADD PUSH2 0xE76 JUMP JUMPDEST PUSH2 0x100 DUP3 ADD MSTORE DUP6 MSTORE POP POP SWAP2 DUP7 ADD SWAP2 DUP7 ADD PUSH2 0x1118 JUMP JUMPDEST POP SWAP9 SWAP8 POP POP POP POP POP POP POP POP JUMP JUMPDEST DUP1 MLOAD PUSH1 0x1 PUSH1 0x1 PUSH1 0xA0 SHL SUB AND DUP3 MSTORE PUSH1 0x20 DUP1 DUP3 ADD MLOAD ISZERO ISZERO DUP2 DUP5 ADD MSTORE PUSH1 0x40 DUP1 DUP4 ADD MLOAD SWAP1 DUP5 ADD MSTORE PUSH1 0x60 SWAP2 DUP3 ADD MLOAD DUP1 MLOAD SWAP3 DUP5 ADD SWAP3 SWAP1 SWAP3 MSTORE ADD MLOAD PUSH1 0x80 DUP3 ADD MSTORE PUSH1 0xA0 ADD SWAP1 JUMP JUMPDEST PUSH1 0x0 DUP2 MLOAD DUP1 DUP5 MSTORE PUSH1 0x20 DUP1 DUP6 ADD SWAP5 POP DUP1 DUP5 ADD PUSH1 0x0 JUMPDEST DUP4 DUP2 LT ISZERO PUSH2 0x1279 JUMPI PUSH2 0x126B DUP8 DUP4 MLOAD PUSH2 0x1205 JUMP JUMPDEST SWAP7 POP SWAP1 DUP3 ADD SWAP1 PUSH1 0x1 ADD PUSH2 0x1258 JUMP JUMPDEST POP SWAP5 SWAP6 SWAP5 POP POP POP POP POP JUMP JUMPDEST PUSH1 0x0 PUSH1 0x20 DUP1 DUP4 ADD DUP2 DUP5 MSTORE DUP1 DUP6 MLOAD DUP1 DUP4 MSTORE PUSH1 0x40 SWAP3 POP DUP3 DUP7 ADD SWAP2 POP DUP3 DUP2 PUSH1 0x5 SHL DUP8 ADD ADD DUP5 DUP9 ADD PUSH1 0x0 JUMPDEST DUP4 DUP2 LT ISZERO PUSH2 0x13AC JUMPI DUP9 DUP4 SUB PUSH1 0x3F NOT ADD DUP6 MSTORE DUP2 MLOAD DUP1 MLOAD PUSH1 0x1 PUSH1 0x1 PUSH1 0xA0 SHL SUB AND DUP5 MSTORE PUSH2 0x1E0 DUP2 DUP10 ADD MLOAD PUSH1 0xFF DUP2 AND DUP7 DUP12 ADD MSTORE POP DUP2 DUP9 ADD MLOAD PUSH1 0x1 PUSH1 0x1 PUSH1 0xA0 SHL SUB DUP2 AND DUP7 DUP11 ADD MSTORE POP PUSH1 0x60 DUP3 DUP2 ADD MLOAD SWAP1 DUP7 ADD MSTORE PUSH1 0x80 DUP1 DUP4 ADD MLOAD PUSH2 0x135A DUP3 DUP9 ADD DUP3 DUP1 MLOAD DUP3 MSTORE PUSH1 0x20 DUP2 ADD MLOAD PUSH1 0x20 DUP4 ADD MSTORE PUSH1 0x40 DUP2 ADD MLOAD PUSH1 0x40 DUP4 ADD MSTORE PUSH1 0x60 DUP2 ADD MLOAD PUSH1 0x60 DUP4 ADD MSTORE PUSH1 0x80 DUP2 ADD MLOAD PUSH1 0x1 PUSH1 0x1 PUSH1 0x40 SHL SUB DUP1 DUP3 AND PUSH1 0x80 DUP6 ADD MSTORE DUP1 PUSH1 0xA0 DUP5 ADD MLOAD AND PUSH1 0xA0 DUP6 ADD MSTORE DUP1 PUSH1 0xC0 DUP5 ADD MLOAD AND PUSH1 0xC0 DUP6 ADD MSTORE POP POP POP POP JUMP JUMPDEST POP POP PUSH1 0xA0 DUP3 ADD MLOAD PUSH2 0x160 DUP7 ADD MSTORE PUSH1 0xC0 DUP3 ADD MLOAD PUSH2 0x180 DUP7 ADD MSTORE PUSH1 0xE0 DUP3 ADD MLOAD PUSH2 0x1A0 DUP7 ADD MSTORE PUSH2 0x100 DUP3 ADD MLOAD SWAP2 POP DUP1 PUSH2 0x1C0 DUP7 ADD MSTORE PUSH2 0x1398 DUP2 DUP7 ADD DUP4 PUSH2 0x1244 JUMP JUMPDEST SWAP7 DUP10 ADD SWAP7 SWAP5 POP POP POP SWAP1 DUP7 ADD SWAP1 PUSH1 0x1 ADD PUSH2 0x12AB JUMP JUMPDEST POP SWAP1 SWAP9 SWAP8 POP POP POP POP POP POP POP POP JUMP JUMPDEST PUSH1 0x0 PUSH1 0x20 DUP1 DUP4 MSTORE DUP4 MLOAD DUP1 DUP3 DUP6 ADD MSTORE PUSH1 0x0 JUMPDEST DUP2 DUP2 LT ISZERO PUSH2 0x13E7 JUMPI DUP6 DUP2 ADD DUP4 ADD MLOAD DUP6 DUP3 ADD PUSH1 0x40 ADD MSTORE DUP3 ADD PUSH2 0x13CB JUMP JUMPDEST POP PUSH1 0x0 PUSH1 0x40 DUP3 DUP7 ADD ADD MSTORE PUSH1 0x40 PUSH1 0x1F NOT PUSH1 0x1F DUP4 ADD AND DUP6 ADD ADD SWAP3 POP POP POP SWAP3 SWAP2 POP POP JUMP JUMPDEST PUSH4 0x4E487B71 PUSH1 0xE0 SHL PUSH1 0x0 MSTORE PUSH1 0x21 PUSH1 0x4 MSTORE PUSH1 0x24 PUSH1 0x0 REVERT JUMPDEST PUSH1 0x0 PUSH1 0x20 DUP3 DUP5 SUB SLT ISZERO PUSH2 0x1430 JUMPI PUSH1 0x0 DUP1 REVERT JUMPDEST DUP2 MLOAD PUSH2 0xFC5 DUP2 PUSH2 0xD32 JUMP JUMPDEST PUSH1 0x1 PUSH1 0x1 PUSH1 0xA0 SHL SUB DUP4 AND DUP2 MSTORE PUSH1 0x40 PUSH1 0x20 DUP1 DUP4 ADD DUP3 SWAP1 MSTORE DUP4 MLOAD SWAP2 DUP4 ADD DUP3 SWAP1 MSTORE PUSH1 0x0 SWAP2 DUP5 DUP3 ADD SWAP2 SWAP1 PUSH1 0x60 DUP6 ADD SWAP1 DUP5 JUMPDEST DUP2 DUP2 LT ISZERO PUSH2 0xF4C JUMPI PUSH2 0x147B DUP4 DUP7 MLOAD PUSH2 0x1205 JUMP JUMPDEST SWAP5 DUP5 ADD SWAP5 SWAP3 POP PUSH1 0x1 ADD PUSH2 0x1468 JUMP JUMPDEST PUSH1 0x0 PUSH1 0x20 DUP3 DUP5 SUB SLT ISZERO PUSH2 0x149B JUMPI PUSH1 0x0 DUP1 REVERT JUMPDEST POP MLOAD SWAP2 SWAP1 POP JUMP JUMPDEST PUSH1 0x20 DUP1 DUP3 MSTORE DUP3 MLOAD DUP3 DUP3 ADD DUP2 SWAP1 MSTORE PUSH1 0x0 SWAP2 SWAP1 DUP5 DUP3 ADD SWAP1 PUSH1 0x40 DUP6 ADD SWAP1 DUP5 JUMPDEST DUP2 DUP2 LT ISZERO PUSH2 0x14E3 JUMPI DUP4 MLOAD PUSH1 0x1 PUSH1 0x1 PUSH1 0xA0 SHL SUB AND DUP4 MSTORE SWAP3 DUP5 ADD SWAP3 SWAP2 DUP5 ADD SWAP2 PUSH1 0x1 ADD PUSH2 0x14BE JUMP JUMPDEST POP SWAP1 SWAP7 SWAP6 POP POP POP POP POP POP JUMP JUMPDEST PUSH1 0x0 PUSH1 0x20 DUP1 DUP4 DUP6 SUB SLT ISZERO PUSH2 0x1502 JUMPI PUSH1 0x0 DUP1 REVERT JUMPDEST DUP3 MLOAD PUSH1 0x1 PUSH1 0x1 PUSH1 0x40 SHL SUB DUP2 GT ISZERO PUSH2 0x1518 JUMPI PUSH1 0x0 DUP1 REVERT JUMPDEST DUP4 ADD PUSH1 0x1F DUP2 ADD DUP6 SGT PUSH2 0x1529 JUMPI PUSH1 0x0 DUP1 REVERT JUMPDEST DUP1 MLOAD PUSH2 0x1537 PUSH2 0xE97 DUP3 PUSH2 0xE43 JUMP JUMPDEST DUP2 DUP2 MSTORE PUSH1 0x5 SWAP2 SWAP1 SWAP2 SHL DUP3 ADD DUP4 ADD SWAP1 DUP4 DUP2 ADD SWAP1 DUP8 DUP4 GT ISZERO PUSH2 0x1556 JUMPI PUSH1 0x0 DUP1 REVERT JUMPDEST SWAP3 DUP5 ADD SWAP3 JUMPDEST DUP3 DUP5 LT ISZERO PUSH2 0x1574 JUMPI DUP4 MLOAD DUP3 MSTORE SWAP3 DUP5 ADD SWAP3 SWAP1 DUP5 ADD SWAP1 PUSH2 0x155B JUMP JUMPDEST SWAP8 SWAP7 POP POP POP POP POP POP POP JUMP JUMPDEST PUSH4 0x4E487B71 PUSH1 0xE0 SHL PUSH1 0x0 MSTORE PUSH1 0x32 PUSH1 0x4 MSTORE PUSH1 0x24 PUSH1 0x0 REVERT JUMPDEST PUSH4 0x4E487B71 PUSH1 0xE0 SHL PUSH1 0x0 MSTORE PUSH1 0x11 PUSH1 0x4 MSTORE PUSH1 0x24 PUSH1 0x0 REVERT JUMPDEST PUSH1 0x0 PUSH1 0x1 DUP3 ADD PUSH2 0x15BD JUMPI PUSH2 0x15BD PUSH2 0x1595 JUMP JUMPDEST POP PUSH1 0x1 ADD SWAP1 JUMP JUMPDEST DUP1 DUP3 ADD DUP1 DUP3 GT ISZERO PUSH2 0x48F JUMPI PUSH2 0x48F PUSH2 0x1595 JUMP JUMPDEST DUP2 DUP2 SUB DUP2 DUP2 GT ISZERO PUSH2 0x48F JUMPI PUSH2 0x48F PUSH2 0x1595 JUMP JUMPDEST DUP2 DUP2 SUB PUSH1 0x0 DUP4 SLT DUP1 ISZERO DUP4 DUP4 SGT AND DUP4 DUP4 SLT DUP3 AND OR ISZERO PUSH2 0x160A JUMPI PUSH2 0x160A PUSH2 0x1595 JUMP JUMPDEST POP SWAP3 SWAP2 POP POP JUMP JUMPDEST PUSH1 0x0 DUP3 PUSH2 0x162E JUMPI PUSH4 0x4E487B71 PUSH1 0xE0 SHL PUSH1 0x0 MSTORE PUSH1 0x12 PUSH1 0x4 MSTORE PUSH1 0x24 PUSH1 0x0 REVERT JUMPDEST PUSH1 0x1 PUSH1 0xFF SHL DUP3 EQ PUSH1 0x0 NOT DUP5 EQ AND ISZERO PUSH2 0x1648 JUMPI PUSH2 0x1648 PUSH2 0x1595 JUMP JUMPDEST POP SDIV SWAP1 JUMP JUMPDEST DUP1 DUP3 ADD DUP3 DUP2 SLT PUSH1 0x0 DUP4 SLT DUP1 ISZERO DUP3 AND DUP3 ISZERO DUP3 AND OR ISZERO PUSH2 0x166D JUMPI PUSH2 0x166D PUSH2 0x1595 JUMP JUMPDEST POP POP SWAP3 SWAP2 POP POP JUMP JUMPDEST PUSH1 0x0 PUSH1 0x1 PUSH1 0x1 PUSH1 0xFF SHL ADD DUP3 ADD PUSH2 0x15BD JUMPI PUSH2 0x15BD PUSH2 0x1595 JUMP JUMPDEST PUSH1 0x0 PUSH1 0x1 PUSH1 0xFF SHL DUP3 ADD PUSH2 0x16A2 JUMPI PUSH2 0x16A2 PUSH2 0x1595 JUMP JUMPDEST POP PUSH1 0x0 NOT ADD SWAP1 JUMP INVALID LOG2 PUSH5 0x6970667358 0x22 SLT KECCAK256 0xEF EXTCODEHASH 0xB7 0xCE DUP4 EXP 0x4E PUSH31 0x51829BF4FEA434057C5CEA573523DB2BB7A99EBC6653003464736F6C634300 ADDMOD GT STOP CALLER ","sha1":"11783ff095e743fe5a037b34a1e3ea18766ecb08","source":"// SPDX-License-Identifier: LicenseRef-Gyro-1.0\n// for information on licensing please see the README in the GitHub repository <https://github.com/gyrostable/core-protocol>.\npragma solidity ^0.8.4;\n\nimport \"../auth/Governable.sol\";\n\nimport \"../../libraries/DataTypes.sol\";\nimport \"../../libraries/Arrays.sol\";\nimport \"../../libraries/Vaults.sol\";\n\nimport \"../../interfaces/oracles/IUSDBatchPriceOracle.sol\";\nimport \"../../interfaces/oracles/IVaultPriceOracle.sol\";\nimport \"../../interfaces/oracles/IBatchVaultPriceOracle.sol\";\n\ncontract BatchVaultPriceOracle is IBatchVaultPriceOracle, Governable {\n    using Arrays for address[];\n\n    IUSDBatchPriceOracle public batchPriceOracle;\n\n    mapping(Vaults.Type => IVaultPriceOracle) public vaultPriceOracles;\n\n    constructor(address _governor, IUSDBatchPriceOracle _batchPriceOracle) Governable(_governor) {\n        require(address(_batchPriceOracle) != address(0), Errors.INVALID_ARGUMENT);\n        batchPriceOracle = _batchPriceOracle;\n    }\n\n    function setBatchPriceOracle(IUSDBatchPriceOracle priceOracle) external governanceOnly {\n        batchPriceOracle = priceOracle;\n        emit BatchPriceOracleChanged(address(priceOracle));\n    }\n\n    function registerVaultPriceOracle(Vaults.Type vaultType, IVaultPriceOracle priceOracle)\n        external\n        governanceOnly\n    {\n        vaultPriceOracles[vaultType] = priceOracle;\n        emit VaultPriceOracleChanged(vaultType, address(priceOracle));\n    }\n\n    function fetchPricesUSD(DataTypes.VaultInfo[] memory vaultsInfo)\n        external\n        view\n        returns (DataTypes.VaultInfo[] memory)\n    {\n        address[] memory tokens = _constructTokensArray(vaultsInfo);\n        uint256[] memory underlyingPrices = batchPriceOracle.getPricesUSD(tokens);\n\n        for (uint256 i = 0; i < vaultsInfo.length; i++) {\n            _assignUnderlyingTokenPrices(vaultsInfo[i], tokens, underlyingPrices);\n            vaultsInfo[i].price = getVaultPrice(\n                IGyroVault(vaultsInfo[i].vault),\n                vaultsInfo[i].pricedTokens\n            );\n        }\n\n        return vaultsInfo;\n    }\n\n    function getVaultPrice(IGyroVault vault, DataTypes.PricedToken[] memory pricedTokens)\n        public\n        view\n        returns (uint256)\n    {\n        IVaultPriceOracle vaultPriceOracle = vaultPriceOracles[vault.vaultType()];\n        require(address(vaultPriceOracle) != address(0), Errors.ASSET_NOT_SUPPORTED);\n        return vaultPriceOracle.getPriceUSD(vault, pricedTokens);\n    }\n\n    function _assignUnderlyingTokenPrices(\n        DataTypes.VaultInfo memory vaultInfo,\n        address[] memory tokens,\n        uint256[] memory underlyingPrices\n    ) internal pure {\n        for ((uint256 i, uint256 j) = (0, 0); i < vaultInfo.pricedTokens.length; i++) {\n            // Here we make use of the fact that both vaultInfo.pricedTokens and tokens are sorted by\n            // token address, so we don't have to reset j.\n            while (tokens[j] != vaultInfo.pricedTokens[i].tokenAddress) j++;\n            vaultInfo.pricedTokens[i].price = underlyingPrices[j];\n        }\n    }\n\n    function _constructTokensArray(DataTypes.VaultInfo[] memory vaultsInfo)\n        internal\n        view\n        returns (address[] memory)\n    {\n        uint256 tokensCount = 0;\n        for (uint256 i = 0; i < vaultsInfo.length; i++) {\n            tokensCount += vaultsInfo[i].pricedTokens.length;\n        }\n        address[] memory tokens = new address[](tokensCount);\n        for ((uint256 i, uint256 k) = (0, 0); i < vaultsInfo.length; i++) {\n            for (uint256 j = 0; j < vaultsInfo[i].pricedTokens.length; (j++, k++)) {\n                tokens[k] = vaultsInfo[i].pricedTokens[j].tokenAddress;\n            }\n        }\n        return tokens.sort().dedup();\n    }\n}\n","sourcePath":"contracts/oracles/BatchVaultPriceOracle.sol","type":"contract","deployment":{"address":"0x2DecAE9C1E605F20C79b91856A3121FB2d2cb615","chainid":"1","blockHeight":18364133}}