{"bytecode":"608060405234801561001057600080fd5b50604051610a0b380380610a0b83398101604081905261002f9161008f565b600080546001600160a01b0319166001600160a01b038316908117825560408051928352602083019190915282917fde4b3f61490b74c0ed6237523974fe299126bbbf8a8a7482fd220104c59b0c84910160405180910390a150506100bf565b6000602082840312156100a157600080fd5b81516001600160a01b03811681146100b857600080fd5b9392505050565b61093d806100ce6000396000f3fe608060405234801561001057600080fd5b506004361061007d5760003560e01c80637583902f1161005b5780637583902f146100cf578063e3056a341461014d578063e4c0aaf414610160578063ec63734b1461017357600080fd5b80630c340a2414610082578063238efcbc146100b25780636f9e8a8a146100bc575b600080fd5b600054610095906001600160a01b031681565b6040516001600160a01b0390911681526020015b60405180910390f35b6100ba610194565b005b6100ba6100ca366004610681565b61024d565b6101266100dd366004610709565b604080518082018252600080825260209182018190526001600160a01b039384168152600282528290208251808401909352805484168352600101549092169181019190915290565b6040805182516001600160a01b0390811682526020938401511692810192909252016100a9565b600154610095906001600160a01b031681565b6100ba61016e366004610709565b61031f565b61018661018136600461072d565b6103f4565b6040516100a99291906107df565b600154604080518082019091526002815261033360f41b6020820152906001600160a01b031633146101e25760405162461bcd60e51b81526004016101d99190610863565b60405180910390fd5b5060008054600180546001600160a01b03198084166001600160a01b03808416919091179095551690556040805192909116808352336020840152917fde4b3f61490b74c0ed6237523974fe299126bbbf8a8a7482fd220104c59b0c8491015b60405180910390a150565b600054604080518082019091526002815261033360f41b6020820152906001600160a01b031633146102925760405162461bcd60e51b81526004016101d99190610863565b506001600160a01b03828116600081815260026020908152604091829020855181546001600160a01b03199081169187169182178355878401805160019094018054909216938816939093179055835190815290519094169084015290917f839ffd7889c8bc6224f31f240563efc261f43fcf0ddbac7e7487dd898c94a7b0910160405180910390a25050565b600054604080518082019091526002815261033360f41b6020820152906001600160a01b031633146103645760405162461bcd60e51b81526004016101d99190610863565b50604080518082019091526002815261333160f01b60208201526001600160a01b0382166103a55760405162461bcd60e51b81526004016101d99190610863565b50600180546001600160a01b0319166001600160a01b0383169081179091556040519081527f67235ba2e63c748a35b95c4f92a3bbc2a1389938170a5ce6c9add5d0b03a314a90602001610242565b606080825167ffffffffffffffff8111156104115761041161063a565b60405190808252806020026020018201604052801561043a578160200160208202803683370190505b509150825167ffffffffffffffff8111156104575761045761063a565b604051908082528060200260200182016040528015610480578160200160208202803683370190505b50905060005b835181101561061c5760008482815181106104a3576104a36108b1565b6020908102919091018101516001600160a01b0380821660009081526002909352604090922060010154909250168061053557818584815181106104e9576104e96108b1565b60200260200101906001600160a01b031690816001600160a01b031681525050670de0b6b3a7640000848481518110610524576105246108b1565b602002602001018181525050610607565b6001600160a01b038083166000908152600260205260409020548651911690869085908110610566576105666108b1565b60200260200101906001600160a01b031690816001600160a01b031681525050806001600160a01b031663679aefce6040518163ffffffff1660e01b8152600401602060405180830381865afa1580156105c4573d6000803e3d6000fd5b505050506040513d601f19601f820116820180604052508101906105e891906108c7565b8484815181106105fa576105fa6108b1565b6020026020010181815250505b50508080610614906108e0565b915050610486565b50915091565b6001600160a01b038116811461063757600080fd5b50565b634e487b7160e01b600052604160045260246000fd5b604051601f8201601f1916810167ffffffffffffffff811182821017156106795761067961063a565b604052919050565b600080828403606081121561069557600080fd5b83356106a081610622565b92506040601f19820112156106b457600080fd5b506040516040810181811067ffffffffffffffff821117156106d8576106d861063a565b60405260208401356106e981610622565b815260408401356106f981610622565b6020820152919491935090915050565b60006020828403121561071b57600080fd5b813561072681610622565b9392505050565b6000602080838503121561074057600080fd5b823567ffffffffffffffff8082111561075857600080fd5b818501915085601f83011261076c57600080fd5b81358181111561077e5761077e61063a565b8060051b915061078f848301610650565b81815291830184019184810190888411156107a957600080fd5b938501935b838510156107d357843592506107c383610622565b82825293850193908501906107ae565b98975050505050505050565b604080825283519082018190526000906020906060840190828701845b828110156108215781516001600160a01b0316845292840192908401906001016107fc565b5050508381038285015284518082528583019183019060005b818110156108565783518352928401929184019160010161083a565b5090979650505050505050565b600060208083528351808285015260005b8181101561089057858101830151858201604001528201610874565b506000604082860101526040601f19601f8301168501019250505092915050565b634e487b7160e01b600052603260045260246000fd5b6000602082840312156108d957600080fd5b5051919050565b60006001820161090057634e487b7160e01b600052601160045260246000fd5b506001019056fea2646970667358221220deed90d6e89c49815c0d5d47831f8677295c1ce1dbd79b4d7d5b864aaef2bdf464736f6c63430008110033","bytecodeSha1":"8d29010e18206252894595a3985467645a691722","type":"contract","abi":[{"inputs":[{"internalType":"address","name":"_governor","type":"address"}],"stateMutability":"nonpayable","type":"constructor","name":"constructor"},{"anonymous":false,"inputs":[{"indexed":false,"internalType":"address","name":"newGovernor","type":"address"}],"name":"GovernorChangeRequested","type":"event"},{"anonymous":false,"inputs":[{"indexed":false,"internalType":"address","name":"oldGovernor","type":"address"},{"indexed":false,"internalType":"address","name":"newGovernor","type":"address"}],"name":"GovernorChanged","type":"event"},{"anonymous":false,"inputs":[{"indexed":true,"internalType":"address","name":"token","type":"address"},{"components":[{"internalType":"address","name":"underlying","type":"address"},{"internalType":"contract IRateProvider","name":"provider","type":"address"}],"indexed":false,"internalType":"struct IRateManager.RateProviderInfo","name":"providerInfo","type":"tuple"}],"name":"RateProviderChanged","type":"event"},{"inputs":[],"name":"acceptGovernance","outputs":[],"stateMutability":"nonpayable","type":"function"},{"inputs":[{"internalType":"address","name":"newGovernor","type":"address"}],"name":"changeGovernor","outputs":[],"stateMutability":"nonpayable","type":"function"},{"inputs":[{"internalType":"address","name":"token","type":"address"}],"name":"getProviderInfo","outputs":[{"components":[{"internalType":"address","name":"underlying","type":"address"},{"internalType":"contract IRateProvider","name":"provider","type":"address"}],"internalType":"struct IRateManager.RateProviderInfo","name":"","type":"tuple"}],"stateMutability":"view","type":"function"},{"inputs":[{"internalType":"address[]","name":"inputTokens","type":"address[]"}],"name":"getTokensAndRates","outputs":[{"internalType":"address[]","name":"underlyingTokens","type":"address[]"},{"internalType":"uint256[]","name":"rates","type":"uint256[]"}],"stateMutability":"view","type":"function"},{"inputs":[],"name":"governor","outputs":[{"internalType":"address","name":"","type":"address"}],"stateMutability":"view","type":"function"},{"inputs":[],"name":"pendingGovernor","outputs":[{"internalType":"address","name":"","type":"address"}],"stateMutability":"view","type":"function"},{"inputs":[{"internalType":"address","name":"token","type":"address"},{"components":[{"internalType":"address","name":"underlying","type":"address"},{"internalType":"contract IRateProvider","name":"provider","type":"address"}],"internalType":"struct IRateManager.RateProviderInfo","name":"providerInfo","type":"tuple"}],"name":"setRateProviderInfo","outputs":[],"stateMutability":"nonpayable","type":"function"}],"compiler":{"version":"0.8.17+commit.8df45f5f","evm_version":"london","optimizer":{"enabled":true,"runs":200}},"contractName":"RateManager","language":"Solidity","natspec":{"methods":{"getProviderInfo(address)":{"returns":{"_0":"the info about the rate provider for the given token"}},"getTokensAndRates(address[])":{"notice":"input tokens may contain tokens that have a rate, such as sDAI or aUSDC","details":"if a token does not have a rate, its address will be returned in `tokens` and its rate will be 1e18","returns":{"rates":"the array of rates for each token in the tokens array","underlyingTokens":"the array of \"underlying\" tokens, e.g. DAI instead of sDAI"}},"changeGovernor(address)":{"notice":"Changes the governor can only be called by the current governor"},"governor()":{"notice":"Returns the current governor"},"acceptGovernance()":{"notice":"Called by the pending governor to approve the change"},"pendingGovernor()":{"notice":"Returns the pending governor"}},"kind":"dev","version":1},"opcodes":"PUSH1 0x80 PUSH1 0x40 MSTORE CALLVALUE DUP1 ISZERO PUSH2 0x10 JUMPI PUSH1 0x0 DUP1 REVERT JUMPDEST POP PUSH1 0x4 CALLDATASIZE LT PUSH2 0x7D JUMPI PUSH1 0x0 CALLDATALOAD PUSH1 0xE0 SHR DUP1 PUSH4 0x7583902F GT PUSH2 0x5B JUMPI DUP1 PUSH4 0x7583902F EQ PUSH2 0xCF JUMPI DUP1 PUSH4 0xE3056A34 EQ PUSH2 0x14D JUMPI DUP1 PUSH4 0xE4C0AAF4 EQ PUSH2 0x160 JUMPI DUP1 PUSH4 0xEC63734B EQ PUSH2 0x173 JUMPI PUSH1 0x0 DUP1 REVERT JUMPDEST DUP1 PUSH4 0xC340A24 EQ PUSH2 0x82 JUMPI DUP1 PUSH4 0x238EFCBC EQ PUSH2 0xB2 JUMPI DUP1 PUSH4 0x6F9E8A8A EQ PUSH2 0xBC JUMPI JUMPDEST PUSH1 0x0 DUP1 REVERT JUMPDEST PUSH1 0x0 SLOAD PUSH2 0x95 SWAP1 PUSH1 0x1 PUSH1 0x1 PUSH1 0xA0 SHL SUB AND DUP2 JUMP JUMPDEST PUSH1 0x40 MLOAD PUSH1 0x1 PUSH1 0x1 PUSH1 0xA0 SHL SUB SWAP1 SWAP2 AND DUP2 MSTORE PUSH1 0x20 ADD JUMPDEST PUSH1 0x40 MLOAD DUP1 SWAP2 SUB SWAP1 RETURN JUMPDEST PUSH2 0xBA PUSH2 0x194 JUMP JUMPDEST STOP JUMPDEST PUSH2 0xBA PUSH2 0xCA CALLDATASIZE PUSH1 0x4 PUSH2 0x681 JUMP JUMPDEST PUSH2 0x24D JUMP JUMPDEST PUSH2 0x126 PUSH2 0xDD CALLDATASIZE PUSH1 0x4 PUSH2 0x709 JUMP JUMPDEST PUSH1 0x40 DUP1 MLOAD DUP1 DUP3 ADD DUP3 MSTORE PUSH1 0x0 DUP1 DUP3 MSTORE PUSH1 0x20 SWAP2 DUP3 ADD DUP2 SWAP1 MSTORE PUSH1 0x1 PUSH1 0x1 PUSH1 0xA0 SHL SUB SWAP4 DUP5 AND DUP2 MSTORE PUSH1 0x2 DUP3 MSTORE DUP3 SWAP1 KECCAK256 DUP3 MLOAD DUP1 DUP5 ADD SWAP1 SWAP4 MSTORE DUP1 SLOAD DUP5 AND DUP4 MSTORE PUSH1 0x1 ADD SLOAD SWAP1 SWAP3 AND SWAP2 DUP2 ADD SWAP2 SWAP1 SWAP2 MSTORE SWAP1 JUMP JUMPDEST PUSH1 0x40 DUP1 MLOAD DUP3 MLOAD PUSH1 0x1 PUSH1 0x1 PUSH1 0xA0 SHL SUB SWAP1 DUP2 AND DUP3 MSTORE PUSH1 0x20 SWAP4 DUP5 ADD MLOAD AND SWAP3 DUP2 ADD SWAP3 SWAP1 SWAP3 MSTORE ADD PUSH2 0xA9 JUMP JUMPDEST PUSH1 0x1 SLOAD PUSH2 0x95 SWAP1 PUSH1 0x1 PUSH1 0x1 PUSH1 0xA0 SHL SUB AND DUP2 JUMP JUMPDEST PUSH2 0xBA PUSH2 0x16E CALLDATASIZE PUSH1 0x4 PUSH2 0x709 JUMP JUMPDEST PUSH2 0x31F JUMP JUMPDEST PUSH2 0x186 PUSH2 0x181 CALLDATASIZE PUSH1 0x4 PUSH2 0x72D JUMP JUMPDEST PUSH2 0x3F4 JUMP JUMPDEST PUSH1 0x40 MLOAD PUSH2 0xA9 SWAP3 SWAP2 SWAP1 PUSH2 0x7DF JUMP JUMPDEST PUSH1 0x1 SLOAD PUSH1 0x40 DUP1 MLOAD DUP1 DUP3 ADD SWAP1 SWAP2 MSTORE PUSH1 0x2 DUP2 MSTORE PUSH2 0x333 PUSH1 0xF4 SHL PUSH1 0x20 DUP3 ADD MSTORE SWAP1 PUSH1 0x1 PUSH1 0x1 PUSH1 0xA0 SHL SUB AND CALLER EQ PUSH2 0x1E2 JUMPI PUSH1 0x40 MLOAD PUSH3 0x461BCD PUSH1 0xE5 SHL DUP2 MSTORE PUSH1 0x4 ADD PUSH2 0x1D9 SWAP2 SWAP1 PUSH2 0x863 JUMP JUMPDEST PUSH1 0x40 MLOAD DUP1 SWAP2 SUB SWAP1 REVERT JUMPDEST POP PUSH1 0x0 DUP1 SLOAD PUSH1 0x1 DUP1 SLOAD PUSH1 0x1 PUSH1 0x1 PUSH1 0xA0 SHL SUB NOT DUP1 DUP5 AND PUSH1 0x1 PUSH1 0x1 PUSH1 0xA0 SHL SUB DUP1 DUP5 AND SWAP2 SWAP1 SWAP2 OR SWAP1 SWAP6 SSTORE AND SWAP1 SSTORE PUSH1 0x40 DUP1 MLOAD SWAP3 SWAP1 SWAP2 AND DUP1 DUP4 MSTORE CALLER PUSH1 0x20 DUP5 ADD MSTORE SWAP2 PUSH32 0xDE4B3F61490B74C0ED6237523974FE299126BBBF8A8A7482FD220104C59B0C84 SWAP2 ADD JUMPDEST PUSH1 0x40 MLOAD DUP1 SWAP2 SUB SWAP1 LOG1 POP JUMP JUMPDEST PUSH1 0x0 SLOAD PUSH1 0x40 DUP1 MLOAD DUP1 DUP3 ADD SWAP1 SWAP2 MSTORE PUSH1 0x2 DUP2 MSTORE PUSH2 0x333 PUSH1 0xF4 SHL PUSH1 0x20 DUP3 ADD MSTORE SWAP1 PUSH1 0x1 PUSH1 0x1 PUSH1 0xA0 SHL SUB AND CALLER EQ PUSH2 0x292 JUMPI PUSH1 0x40 MLOAD PUSH3 0x461BCD PUSH1 0xE5 SHL DUP2 MSTORE PUSH1 0x4 ADD PUSH2 0x1D9 SWAP2 SWAP1 PUSH2 0x863 JUMP JUMPDEST POP PUSH1 0x1 PUSH1 0x1 PUSH1 0xA0 SHL SUB DUP3 DUP2 AND PUSH1 0x0 DUP2 DUP2 MSTORE PUSH1 0x2 PUSH1 0x20 SWAP1 DUP2 MSTORE PUSH1 0x40 SWAP2 DUP3 SWAP1 KECCAK256 DUP6 MLOAD DUP2 SLOAD PUSH1 0x1 PUSH1 0x1 PUSH1 0xA0 SHL SUB NOT SWAP1 DUP2 AND SWAP2 DUP8 AND SWAP2 DUP3 OR DUP4 SSTORE DUP8 DUP5 ADD DUP1 MLOAD PUSH1 0x1 SWAP1 SWAP5 ADD DUP1 SLOAD SWAP1 SWAP3 AND SWAP4 DUP9 AND SWAP4 SWAP1 SWAP4 OR SWAP1 SSTORE DUP4 MLOAD SWAP1 DUP2 MSTORE SWAP1 MLOAD SWAP1 SWAP5 AND SWAP1 DUP5 ADD MSTORE SWAP1 SWAP2 PUSH32 0x839FFD7889C8BC6224F31F240563EFC261F43FCF0DDBAC7E7487DD898C94A7B0 SWAP2 ADD PUSH1 0x40 MLOAD DUP1 SWAP2 SUB SWAP1 LOG2 POP POP JUMP JUMPDEST PUSH1 0x0 SLOAD PUSH1 0x40 DUP1 MLOAD DUP1 DUP3 ADD SWAP1 SWAP2 MSTORE PUSH1 0x2 DUP2 MSTORE PUSH2 0x333 PUSH1 0xF4 SHL PUSH1 0x20 DUP3 ADD MSTORE SWAP1 PUSH1 0x1 PUSH1 0x1 PUSH1 0xA0 SHL SUB AND CALLER EQ PUSH2 0x364 JUMPI PUSH1 0x40 MLOAD PUSH3 0x461BCD PUSH1 0xE5 SHL DUP2 MSTORE PUSH1 0x4 ADD PUSH2 0x1D9 SWAP2 SWAP1 PUSH2 0x863 JUMP JUMPDEST POP PUSH1 0x40 DUP1 MLOAD DUP1 DUP3 ADD SWAP1 SWAP2 MSTORE PUSH1 0x2 DUP2 MSTORE PUSH2 0x3331 PUSH1 0xF0 SHL PUSH1 0x20 DUP3 ADD MSTORE PUSH1 0x1 PUSH1 0x1 PUSH1 0xA0 SHL SUB DUP3 AND PUSH2 0x3A5 JUMPI PUSH1 0x40 MLOAD PUSH3 0x461BCD PUSH1 0xE5 SHL DUP2 MSTORE PUSH1 0x4 ADD PUSH2 0x1D9 SWAP2 SWAP1 PUSH2 0x863 JUMP JUMPDEST POP PUSH1 0x1 DUP1 SLOAD PUSH1 0x1 PUSH1 0x1 PUSH1 0xA0 SHL SUB NOT AND PUSH1 0x1 PUSH1 0x1 PUSH1 0xA0 SHL SUB DUP4 AND SWAP1 DUP2 OR SWAP1 SWAP2 SSTORE PUSH1 0x40 MLOAD SWAP1 DUP2 MSTORE PUSH32 0x67235BA2E63C748A35B95C4F92A3BBC2A1389938170A5CE6C9ADD5D0B03A314A SWAP1 PUSH1 0x20 ADD PUSH2 0x242 JUMP JUMPDEST PUSH1 0x60 DUP1 DUP3 MLOAD PUSH8 0xFFFFFFFFFFFFFFFF DUP2 GT ISZERO PUSH2 0x411 JUMPI PUSH2 0x411 PUSH2 0x63A JUMP JUMPDEST PUSH1 0x40 MLOAD SWAP1 DUP1 DUP3 MSTORE DUP1 PUSH1 0x20 MUL PUSH1 0x20 ADD DUP3 ADD PUSH1 0x40 MSTORE DUP1 ISZERO PUSH2 0x43A JUMPI DUP2 PUSH1 0x20 ADD PUSH1 0x20 DUP3 MUL DUP1 CALLDATASIZE DUP4 CALLDATACOPY ADD SWAP1 POP JUMPDEST POP SWAP2 POP DUP3 MLOAD PUSH8 0xFFFFFFFFFFFFFFFF DUP2 GT ISZERO PUSH2 0x457 JUMPI PUSH2 0x457 PUSH2 0x63A JUMP JUMPDEST PUSH1 0x40 MLOAD SWAP1 DUP1 DUP3 MSTORE DUP1 PUSH1 0x20 MUL PUSH1 0x20 ADD DUP3 ADD PUSH1 0x40 MSTORE DUP1 ISZERO PUSH2 0x480 JUMPI DUP2 PUSH1 0x20 ADD PUSH1 0x20 DUP3 MUL DUP1 CALLDATASIZE DUP4 CALLDATACOPY ADD SWAP1 POP JUMPDEST POP SWAP1 POP PUSH1 0x0 JUMPDEST DUP4 MLOAD DUP2 LT ISZERO PUSH2 0x61C JUMPI PUSH1 0x0 DUP5 DUP3 DUP2 MLOAD DUP2 LT PUSH2 0x4A3 JUMPI PUSH2 0x4A3 PUSH2 0x8B1 JUMP JUMPDEST PUSH1 0x20 SWAP1 DUP2 MUL SWAP2 SWAP1 SWAP2 ADD DUP2 ADD MLOAD PUSH1 0x1 PUSH1 0x1 PUSH1 0xA0 SHL SUB DUP1 DUP3 AND PUSH1 0x0 SWAP1 DUP2 MSTORE PUSH1 0x2 SWAP1 SWAP4 MSTORE PUSH1 0x40 SWAP1 SWAP3 KECCAK256 PUSH1 0x1 ADD SLOAD SWAP1 SWAP3 POP AND DUP1 PUSH2 0x535 JUMPI DUP2 DUP6 DUP5 DUP2 MLOAD DUP2 LT PUSH2 0x4E9 JUMPI PUSH2 0x4E9 PUSH2 0x8B1 JUMP JUMPDEST PUSH1 0x20 MUL PUSH1 0x20 ADD ADD SWAP1 PUSH1 0x1 PUSH1 0x1 PUSH1 0xA0 SHL SUB AND SWAP1 DUP2 PUSH1 0x1 PUSH1 0x1 PUSH1 0xA0 SHL SUB AND DUP2 MSTORE POP POP PUSH8 0xDE0B6B3A7640000 DUP5 DUP5 DUP2 MLOAD DUP2 LT PUSH2 0x524 JUMPI PUSH2 0x524 PUSH2 0x8B1 JUMP JUMPDEST PUSH1 0x20 MUL PUSH1 0x20 ADD ADD DUP2 DUP2 MSTORE POP POP PUSH2 0x607 JUMP JUMPDEST PUSH1 0x1 PUSH1 0x1 PUSH1 0xA0 SHL SUB DUP1 DUP4 AND PUSH1 0x0 SWAP1 DUP2 MSTORE PUSH1 0x2 PUSH1 0x20 MSTORE PUSH1 0x40 SWAP1 KECCAK256 SLOAD DUP7 MLOAD SWAP2 AND SWAP1 DUP7 SWAP1 DUP6 SWAP1 DUP2 LT PUSH2 0x566 JUMPI PUSH2 0x566 PUSH2 0x8B1 JUMP JUMPDEST PUSH1 0x20 MUL PUSH1 0x20 ADD ADD SWAP1 PUSH1 0x1 PUSH1 0x1 PUSH1 0xA0 SHL SUB AND SWAP1 DUP2 PUSH1 0x1 PUSH1 0x1 PUSH1 0xA0 SHL SUB AND DUP2 MSTORE POP POP DUP1 PUSH1 0x1 PUSH1 0x1 PUSH1 0xA0 SHL SUB AND PUSH4 0x679AEFCE PUSH1 0x40 MLOAD DUP2 PUSH4 0xFFFFFFFF AND PUSH1 0xE0 SHL DUP2 MSTORE PUSH1 0x4 ADD PUSH1 0x20 PUSH1 0x40 MLOAD DUP1 DUP4 SUB DUP2 DUP7 GAS STATICCALL ISZERO DUP1 ISZERO PUSH2 0x5C4 JUMPI RETURNDATASIZE PUSH1 0x0 DUP1 RETURNDATACOPY RETURNDATASIZE PUSH1 0x0 REVERT JUMPDEST POP POP POP POP PUSH1 0x40 MLOAD RETURNDATASIZE PUSH1 0x1F NOT PUSH1 0x1F DUP3 ADD AND DUP3 ADD DUP1 PUSH1 0x40 MSTORE POP DUP2 ADD SWAP1 PUSH2 0x5E8 SWAP2 SWAP1 PUSH2 0x8C7 JUMP JUMPDEST DUP5 DUP5 DUP2 MLOAD DUP2 LT PUSH2 0x5FA JUMPI PUSH2 0x5FA PUSH2 0x8B1 JUMP JUMPDEST PUSH1 0x20 MUL PUSH1 0x20 ADD ADD DUP2 DUP2 MSTORE POP POP JUMPDEST POP POP DUP1 DUP1 PUSH2 0x614 SWAP1 PUSH2 0x8E0 JUMP JUMPDEST SWAP2 POP POP PUSH2 0x486 JUMP JUMPDEST POP SWAP2 POP SWAP2 JUMP JUMPDEST PUSH1 0x1 PUSH1 0x1 PUSH1 0xA0 SHL SUB DUP2 AND DUP2 EQ PUSH2 0x637 JUMPI PUSH1 0x0 DUP1 REVERT JUMPDEST POP JUMP JUMPDEST PUSH4 0x4E487B71 PUSH1 0xE0 SHL PUSH1 0x0 MSTORE PUSH1 0x41 PUSH1 0x4 MSTORE PUSH1 0x24 PUSH1 0x0 REVERT JUMPDEST PUSH1 0x40 MLOAD PUSH1 0x1F DUP3 ADD PUSH1 0x1F NOT AND DUP2 ADD PUSH8 0xFFFFFFFFFFFFFFFF DUP2 GT DUP3 DUP3 LT OR ISZERO PUSH2 0x679 JUMPI PUSH2 0x679 PUSH2 0x63A JUMP JUMPDEST PUSH1 0x40 MSTORE SWAP2 SWAP1 POP JUMP JUMPDEST PUSH1 0x0 DUP1 DUP3 DUP5 SUB PUSH1 0x60 DUP2 SLT ISZERO PUSH2 0x695 JUMPI PUSH1 0x0 DUP1 REVERT JUMPDEST DUP4 CALLDATALOAD PUSH2 0x6A0 DUP2 PUSH2 0x622 JUMP JUMPDEST SWAP3 POP PUSH1 0x40 PUSH1 0x1F NOT DUP3 ADD SLT ISZERO PUSH2 0x6B4 JUMPI PUSH1 0x0 DUP1 REVERT JUMPDEST POP PUSH1 0x40 MLOAD PUSH1 0x40 DUP2 ADD DUP2 DUP2 LT PUSH8 0xFFFFFFFFFFFFFFFF DUP3 GT OR ISZERO PUSH2 0x6D8 JUMPI PUSH2 0x6D8 PUSH2 0x63A JUMP JUMPDEST PUSH1 0x40 MSTORE PUSH1 0x20 DUP5 ADD CALLDATALOAD PUSH2 0x6E9 DUP2 PUSH2 0x622 JUMP JUMPDEST DUP2 MSTORE PUSH1 0x40 DUP5 ADD CALLDATALOAD PUSH2 0x6F9 DUP2 PUSH2 0x622 JUMP JUMPDEST PUSH1 0x20 DUP3 ADD MSTORE SWAP2 SWAP5 SWAP2 SWAP4 POP SWAP1 SWAP2 POP POP JUMP JUMPDEST PUSH1 0x0 PUSH1 0x20 DUP3 DUP5 SUB SLT ISZERO PUSH2 0x71B JUMPI PUSH1 0x0 DUP1 REVERT JUMPDEST DUP2 CALLDATALOAD PUSH2 0x726 DUP2 PUSH2 0x622 JUMP JUMPDEST SWAP4 SWAP3 POP POP POP JUMP JUMPDEST PUSH1 0x0 PUSH1 0x20 DUP1 DUP4 DUP6 SUB SLT ISZERO PUSH2 0x740 JUMPI PUSH1 0x0 DUP1 REVERT JUMPDEST DUP3 CALLDATALOAD PUSH8 0xFFFFFFFFFFFFFFFF DUP1 DUP3 GT ISZERO PUSH2 0x758 JUMPI PUSH1 0x0 DUP1 REVERT JUMPDEST DUP2 DUP6 ADD SWAP2 POP DUP6 PUSH1 0x1F DUP4 ADD SLT PUSH2 0x76C JUMPI PUSH1 0x0 DUP1 REVERT JUMPDEST DUP2 CALLDATALOAD DUP2 DUP2 GT ISZERO PUSH2 0x77E JUMPI PUSH2 0x77E PUSH2 0x63A JUMP JUMPDEST DUP1 PUSH1 0x5 SHL SWAP2 POP PUSH2 0x78F DUP5 DUP4 ADD PUSH2 0x650 JUMP JUMPDEST DUP2 DUP2 MSTORE SWAP2 DUP4 ADD DUP5 ADD SWAP2 DUP5 DUP2 ADD SWAP1 DUP9 DUP5 GT ISZERO PUSH2 0x7A9 JUMPI PUSH1 0x0 DUP1 REVERT JUMPDEST SWAP4 DUP6 ADD SWAP4 JUMPDEST DUP4 DUP6 LT ISZERO PUSH2 0x7D3 JUMPI DUP5 CALLDATALOAD SWAP3 POP PUSH2 0x7C3 DUP4 PUSH2 0x622 JUMP JUMPDEST DUP3 DUP3 MSTORE SWAP4 DUP6 ADD SWAP4 SWAP1 DUP6 ADD SWAP1 PUSH2 0x7AE JUMP JUMPDEST SWAP9 SWAP8 POP POP POP POP POP POP POP POP JUMP JUMPDEST PUSH1 0x40 DUP1 DUP3 MSTORE DUP4 MLOAD SWAP1 DUP3 ADD DUP2 SWAP1 MSTORE PUSH1 0x0 SWAP1 PUSH1 0x20 SWAP1 PUSH1 0x60 DUP5 ADD SWAP1 DUP3 DUP8 ADD DUP5 JUMPDEST DUP3 DUP2 LT ISZERO PUSH2 0x821 JUMPI DUP2 MLOAD PUSH1 0x1 PUSH1 0x1 PUSH1 0xA0 SHL SUB AND DUP5 MSTORE SWAP3 DUP5 ADD SWAP3 SWAP1 DUP5 ADD SWAP1 PUSH1 0x1 ADD PUSH2 0x7FC JUMP JUMPDEST POP POP POP DUP4 DUP2 SUB DUP3 DUP6 ADD MSTORE DUP5 MLOAD DUP1 DUP3 MSTORE DUP6 DUP4 ADD SWAP2 DUP4 ADD SWAP1 PUSH1 0x0 JUMPDEST DUP2 DUP2 LT ISZERO PUSH2 0x856 JUMPI DUP4 MLOAD DUP4 MSTORE SWAP3 DUP5 ADD SWAP3 SWAP2 DUP5 ADD SWAP2 PUSH1 0x1 ADD PUSH2 0x83A JUMP JUMPDEST POP SWAP1 SWAP8 SWAP7 POP POP POP POP POP POP POP JUMP JUMPDEST PUSH1 0x0 PUSH1 0x20 DUP1 DUP4 MSTORE DUP4 MLOAD DUP1 DUP3 DUP6 ADD MSTORE PUSH1 0x0 JUMPDEST DUP2 DUP2 LT ISZERO PUSH2 0x890 JUMPI DUP6 DUP2 ADD DUP4 ADD MLOAD DUP6 DUP3 ADD PUSH1 0x40 ADD MSTORE DUP3 ADD PUSH2 0x874 JUMP JUMPDEST POP PUSH1 0x0 PUSH1 0x40 DUP3 DUP7 ADD ADD MSTORE PUSH1 0x40 PUSH1 0x1F NOT PUSH1 0x1F DUP4 ADD AND DUP6 ADD ADD SWAP3 POP POP POP SWAP3 SWAP2 POP POP JUMP JUMPDEST PUSH4 0x4E487B71 PUSH1 0xE0 SHL PUSH1 0x0 MSTORE PUSH1 0x32 PUSH1 0x4 MSTORE PUSH1 0x24 PUSH1 0x0 REVERT JUMPDEST PUSH1 0x0 PUSH1 0x20 DUP3 DUP5 SUB SLT ISZERO PUSH2 0x8D9 JUMPI PUSH1 0x0 DUP1 REVERT JUMPDEST POP MLOAD SWAP2 SWAP1 POP JUMP JUMPDEST PUSH1 0x0 PUSH1 0x1 DUP3 ADD PUSH2 0x900 JUMPI PUSH4 0x4E487B71 PUSH1 0xE0 SHL PUSH1 0x0 MSTORE PUSH1 0x11 PUSH1 0x4 MSTORE PUSH1 0x24 PUSH1 0x0 REVERT JUMPDEST POP PUSH1 0x1 ADD SWAP1 JUMP INVALID LOG2 PUSH5 0x6970667358 0x22 SLT KECCAK256 0xDE 0xED SWAP1 0xD6 0xE8 SWAP13 0x49 DUP2 0x5C 0xD 0x5D SELFBALANCE DUP4 0x1F DUP7 PUSH24 0x295C1CE1DBD79B4D7D5B864AAEF2BDF464736F6C63430008 GT STOP CALLER ","sha1":"fea72332a62549994ce2ade54f32e2fcef9e48da","source":"// SPDX-License-Identifier: LicenseRef-Gyro-1.0\n// for information on licensing please see the README in the GitHub repository <https://github.com/gyrostable/core-protocol>.\npragma solidity ^0.8.4;\n\nimport \"../auth/Governable.sol\";\nimport \"../../interfaces/oracles/IRateManager.sol\";\n\ncontract RateManager is IRateManager, Governable {\n    mapping(address => RateProviderInfo) internal _providers;\n\n    constructor(address _governor) Governable(_governor) {}\n\n    function getTokensAndRates(address[] memory inputTokens)\n        external\n        view\n        override\n        returns (address[] memory underlyingTokens, uint256[] memory rates)\n    {\n        underlyingTokens = new address[](inputTokens.length);\n        rates = new uint256[](inputTokens.length);\n\n        for (uint256 i; i < inputTokens.length; i++) {\n            address token = inputTokens[i];\n            IRateProvider provider = _providers[token].provider;\n            if (address(provider) == address(0)) {\n                underlyingTokens[i] = token;\n                rates[i] = 1e18;\n            } else {\n                underlyingTokens[i] = _providers[token].underlying;\n                rates[i] = provider.getRate();\n            }\n        }\n    }\n\n    function getProviderInfo(address token)\n        external\n        view\n        override\n        returns (RateProviderInfo memory)\n    {\n        return _providers[token];\n    }\n\n    function setRateProviderInfo(address token, RateProviderInfo memory providerInfo)\n        external\n        governanceOnly\n    {\n        _providers[token] = providerInfo;\n        emit RateProviderChanged(token, providerInfo);\n    }\n}\n","sourcePath":"contracts/oracles/RateManager.sol","deployment":{"address":"0x2eC43d68c03b1d90d53B19c4a6f01185867ea792","chainid":"1","blockHeight":18413913}}