{"bytecode":"60a060405234801561001057600080fd5b506040516100fe3803806100fe83398101604081905261002f91610037565b608052610050565b60006020828403121561004957600080fd5b5051919050565b60805160966100686000396000602f015260966000f3fe6080604052348015600f57600080fd5b506004361060285760003560e01c8063679aefce14602d575b600080fd5b7f000000000000000000000000000000000000000000000000000000000000000060405190815260200160405180910390f3fea264697066735822122064981066554ece7ed9bf76886d2874584171d5b6bd4743ad06fcdb1b88bd26a964736f6c63430008110033","bytecodeSha1":"735e480f6f391209b5994c5337017b8f1b66122e","type":"contract","abi":[{"inputs":[{"internalType":"uint256","name":"rate","type":"uint256"}],"stateMutability":"nonpayable","type":"constructor","name":"constructor"},{"inputs":[],"name":"getRate","outputs":[{"internalType":"uint256","name":"","type":"uint256"}],"stateMutability":"view","type":"function"}],"compiler":{"version":"0.8.17+commit.8df45f5f","evm_version":"london","optimizer":{"enabled":true,"runs":200}},"contractName":"ConstantRateProvider","language":"Solidity","natspec":{"methods":{},"kind":"dev","notice":"This is used for tokens such as aTokens where assets are wrapped in a token where the rate is always the same","version":1},"opcodes":"PUSH1 0x80 PUSH1 0x40 MSTORE CALLVALUE DUP1 ISZERO PUSH1 0xF JUMPI PUSH1 0x0 DUP1 REVERT JUMPDEST POP PUSH1 0x4 CALLDATASIZE LT PUSH1 0x28 JUMPI PUSH1 0x0 CALLDATALOAD PUSH1 0xE0 SHR DUP1 PUSH4 0x679AEFCE EQ PUSH1 0x2D JUMPI JUMPDEST PUSH1 0x0 DUP1 REVERT JUMPDEST PUSH32 0x0 PUSH1 0x40 MLOAD SWAP1 DUP2 MSTORE PUSH1 0x20 ADD PUSH1 0x40 MLOAD DUP1 SWAP2 SUB SWAP1 RETURN INVALID LOG2 PUSH5 0x6970667358 0x22 SLT KECCAK256 PUSH5 0x981066554E 0xCE PUSH31 0xD9BF76886D2874584171D5B6BD4743AD06FCDB1B88BD26A964736F6C634300 ADDMOD GT STOP CALLER ","sha1":"20096f3334686dc79c6e5e64267879d099b269a3","source":"// SPDX-License-Identifier: LicenseRef-Gyro-1.0\n// for information on licensing please see the README in the GitHub repository <https://github.com/gyrostable/core-protocol>.\npragma solidity ^0.8.4;\n\nimport \"../../interfaces/oracles/IRateProvider.sol\";\n\n/// @notice This is used for tokens such as aTokens where assets are wrapped\n/// in a token where the rate is always the same\ncontract ConstantRateProvider is IRateProvider {\n    uint256 internal immutable _rate;\n\n    constructor(uint256 rate) {\n        _rate = rate;\n    }\n\n    function getRate() external view override returns (uint256) {\n        return _rate;\n    }\n}\n","sourcePath":"contracts/oracles/ConstantRateProvider.sol","deployment":{"address":"0x5413E8e572759787FBEcE0A8e8d65EB5188556d8","chainid":"1","blockHeight":18426848}}