{"abi":[{"inputs":[{"internalType":"address","name":"_governor","type":"address"},{"internalType":"contract IGyroConfig","name":"_gyroConfig","type":"address"}],"stateMutability":"nonpayable","type":"constructor","name":"constructor"},{"anonymous":false,"inputs":[{"indexed":true,"internalType":"address","name":"check","type":"address"}],"name":"CheckAdded","type":"event"},{"anonymous":false,"inputs":[{"indexed":true,"internalType":"address","name":"check","type":"address"}],"name":"CheckRemoved","type":"event"},{"anonymous":false,"inputs":[{"indexed":false,"internalType":"address","name":"newGovernor","type":"address"}],"name":"GovernorChangeRequested","type":"event"},{"anonymous":false,"inputs":[{"indexed":false,"internalType":"address","name":"oldGovernor","type":"address"},{"indexed":false,"internalType":"address","name":"newGovernor","type":"address"}],"name":"GovernorChanged","type":"event"},{"inputs":[],"name":"acceptGovernance","outputs":[],"stateMutability":"nonpayable","type":"function"},{"inputs":[{"internalType":"address","name":"check","type":"address"}],"name":"addCheck","outputs":[],"stateMutability":"nonpayable","type":"function"},{"inputs":[{"internalType":"address","name":"newGovernor","type":"address"}],"name":"changeGovernor","outputs":[],"stateMutability":"nonpayable","type":"function"},{"inputs":[{"components":[{"components":[{"components":[{"internalType":"address","name":"vault","type":"address"},{"internalType":"uint8","name":"decimals","type":"uint8"},{"internalType":"address","name":"underlying","type":"address"},{"internalType":"uint256","name":"price","type":"uint256"},{"components":[{"internalType":"uint256","name":"priceAtCalibration","type":"uint256"},{"internalType":"uint256","name":"weightAtCalibration","type":"uint256"},{"internalType":"uint256","name":"shortFlowMemory","type":"uint256"},{"internalType":"uint256","name":"shortFlowThreshold","type":"uint256"},{"internalType":"uint64","name":"weightTransitionDuration","type":"uint64"},{"internalType":"uint64","name":"weightAtPreviousCalibration","type":"uint64"},{"internalType":"uint64","name":"timeOfCalibration","type":"uint64"}],"internalType":"struct DataTypes.PersistedVaultMetadata","name":"persistedMetadata","type":"tuple"},{"internalType":"uint256","name":"reserveBalance","type":"uint256"},{"internalType":"uint256","name":"currentWeight","type":"uint256"},{"internalType":"uint256","name":"targetWeight","type":"uint256"},{"components":[{"internalType":"address","name":"tokenAddress","type":"address"},{"internalType":"bool","name":"isStable","type":"bool"},{"internalType":"uint256","name":"price","type":"uint256"},{"components":[{"internalType":"uint256","name":"floor","type":"uint256"},{"internalType":"uint256","name":"ceiling","type":"uint256"}],"internalType":"struct DataTypes.Range","name":"priceRange","type":"tuple"}],"internalType":"struct DataTypes.PricedToken[]","name":"pricedTokens","type":"tuple[]"}],"internalType":"struct DataTypes.VaultInfo","name":"vaultInfo","type":"tuple"},{"internalType":"uint256","name":"amount","type":"uint256"}],"internalType":"struct DataTypes.VaultWithAmount[]","name":"vaultsWithAmount","type":"tuple[]"},{"internalType":"bool","name":"mint","type":"bool"}],"internalType":"struct DataTypes.Order","name":"order","type":"tuple"}],"name":"checkAndPersistMint","outputs":[],"stateMutability":"nonpayable","type":"function"},{"inputs":[{"components":[{"components":[{"components":[{"internalType":"address","name":"vault","type":"address"},{"internalType":"uint8","name":"decimals","type":"uint8"},{"internalType":"address","name":"underlying","type":"address"},{"internalType":"uint256","name":"price","type":"uint256"},{"components":[{"internalType":"uint256","name":"priceAtCalibration","type":"uint256"},{"internalType":"uint256","name":"weightAtCalibration","type":"uint256"},{"internalType":"uint256","name":"shortFlowMemory","type":"uint256"},{"internalType":"uint256","name":"shortFlowThreshold","type":"uint256"},{"internalType":"uint64","name":"weightTransitionDuration","type":"uint64"},{"internalType":"uint64","name":"weightAtPreviousCalibration","type":"uint64"},{"internalType":"uint64","name":"timeOfCalibration","type":"uint64"}],"internalType":"struct DataTypes.PersistedVaultMetadata","name":"persistedMetadata","type":"tuple"},{"internalType":"uint256","name":"reserveBalance","type":"uint256"},{"internalType":"uint256","name":"currentWeight","type":"uint256"},{"internalType":"uint256","name":"targetWeight","type":"uint256"},{"components":[{"internalType":"address","name":"tokenAddress","type":"address"},{"internalType":"bool","name":"isStable","type":"bool"},{"internalType":"uint256","name":"price","type":"uint256"},{"components":[{"internalType":"uint256","name":"floor","type":"uint256"},{"internalType":"uint256","name":"ceiling","type":"uint256"}],"internalType":"struct DataTypes.Range","name":"priceRange","type":"tuple"}],"internalType":"struct DataTypes.PricedToken[]","name":"pricedTokens","type":"tuple[]"}],"internalType":"struct DataTypes.VaultInfo","name":"vaultInfo","type":"tuple"},{"internalType":"uint256","name":"amount","type":"uint256"}],"internalType":"struct DataTypes.VaultWithAmount[]","name":"vaultsWithAmount","type":"tuple[]"},{"internalType":"bool","name":"mint","type":"bool"}],"internalType":"struct DataTypes.Order","name":"order","type":"tuple"}],"name":"checkAndPersistRedeem","outputs":[],"stateMutability":"nonpayable","type":"function"},{"inputs":[],"name":"getChecks","outputs":[{"internalType":"address[]","name":"","type":"address[]"}],"stateMutability":"view","type":"function"},{"inputs":[],"name":"governor","outputs":[{"internalType":"address","name":"","type":"address"}],"stateMutability":"view","type":"function"},{"inputs":[],"name":"gyroConfig","outputs":[{"internalType":"contract IGyroConfig","name":"","type":"address"}],"stateMutability":"view","type":"function"},{"inputs":[{"components":[{"components":[{"components":[{"internalType":"address","name":"vault","type":"address"},{"internalType":"uint8","name":"decimals","type":"uint8"},{"internalType":"address","name":"underlying","type":"address"},{"internalType":"uint256","name":"price","type":"uint256"},{"components":[{"internalType":"uint256","name":"priceAtCalibration","type":"uint256"},{"internalType":"uint256","name":"weightAtCalibration","type":"uint256"},{"internalType":"uint256","name":"shortFlowMemory","type":"uint256"},{"internalType":"uint256","name":"shortFlowThreshold","type":"uint256"},{"internalType":"uint64","name":"weightTransitionDuration","type":"uint64"},{"internalType":"uint64","name":"weightAtPreviousCalibration","type":"uint64"},{"internalType":"uint64","name":"timeOfCalibration","type":"uint64"}],"internalType":"struct DataTypes.PersistedVaultMetadata","name":"persistedMetadata","type":"tuple"},{"internalType":"uint256","name":"reserveBalance","type":"uint256"},{"internalType":"uint256","name":"currentWeight","type":"uint256"},{"internalType":"uint256","name":"targetWeight","type":"uint256"},{"components":[{"internalType":"address","name":"tokenAddress","type":"address"},{"internalType":"bool","name":"isStable","type":"bool"},{"internalType":"uint256","name":"price","type":"uint256"},{"components":[{"internalType":"uint256","name":"floor","type":"uint256"},{"internalType":"uint256","name":"ceiling","type":"uint256"}],"internalType":"struct DataTypes.Range","name":"priceRange","type":"tuple"}],"internalType":"struct DataTypes.PricedToken[]","name":"pricedTokens","type":"tuple[]"}],"internalType":"struct DataTypes.VaultInfo","name":"vaultInfo","type":"tuple"},{"internalType":"uint256","name":"amount","type":"uint256"}],"internalType":"struct DataTypes.VaultWithAmount[]","name":"vaultsWithAmount","type":"tuple[]"},{"internalType":"bool","name":"mint","type":"bool"}],"internalType":"struct DataTypes.Order","name":"order","type":"tuple"}],"name":"isMintSafe","outputs":[{"internalType":"string","name":"err","type":"string"}],"stateMutability":"view","type":"function"},{"inputs":[{"components":[{"components":[{"components":[{"internalType":"address","name":"vault","type":"address"},{"internalType":"uint8","name":"decimals","type":"uint8"},{"internalType":"address","name":"underlying","type":"address"},{"internalType":"uint256","name":"price","type":"uint256"},{"components":[{"internalType":"uint256","name":"priceAtCalibration","type":"uint256"},{"internalType":"uint256","name":"weightAtCalibration","type":"uint256"},{"internalType":"uint256","name":"shortFlowMemory","type":"uint256"},{"internalType":"uint256","name":"shortFlowThreshold","type":"uint256"},{"internalType":"uint64","name":"weightTransitionDuration","type":"uint64"},{"internalType":"uint64","name":"weightAtPreviousCalibration","type":"uint64"},{"internalType":"uint64","name":"timeOfCalibration","type":"uint64"}],"internalType":"struct DataTypes.PersistedVaultMetadata","name":"persistedMetadata","type":"tuple"},{"internalType":"uint256","name":"reserveBalance","type":"uint256"},{"internalType":"uint256","name":"currentWeight","type":"uint256"},{"internalType":"uint256","name":"targetWeight","type":"uint256"},{"components":[{"internalType":"address","name":"tokenAddress","type":"address"},{"internalType":"bool","name":"isStable","type":"bool"},{"internalType":"uint256","name":"price","type":"uint256"},{"components":[{"internalType":"uint256","name":"floor","type":"uint256"},{"internalType":"uint256","name":"ceiling","type":"uint256"}],"internalType":"struct DataTypes.Range","name":"priceRange","type":"tuple"}],"internalType":"struct DataTypes.PricedToken[]","name":"pricedTokens","type":"tuple[]"}],"internalType":"struct DataTypes.VaultInfo","name":"vaultInfo","type":"tuple"},{"internalType":"uint256","name":"amount","type":"uint256"}],"internalType":"struct DataTypes.VaultWithAmount[]","name":"vaultsWithAmount","type":"tuple[]"},{"internalType":"bool","name":"mint","type":"bool"}],"internalType":"struct DataTypes.Order","name":"order","type":"tuple"}],"name":"isRedeemSafe","outputs":[{"internalType":"string","name":"err","type":"string"}],"stateMutability":"view","type":"function"},{"inputs":[],"name":"pendingGovernor","outputs":[{"internalType":"address","name":"","type":"address"}],"stateMutability":"view","type":"function"},{"inputs":[{"internalType":"address","name":"check","type":"address"}],"name":"removeCheck","outputs":[],"stateMutability":"nonpayable","type":"function"}],"bytecode":"60a06040523480156200001157600080fd5b50604051620015be380380620015be833981016040819052620000349162000107565b600080546001600160a01b0319166001600160a01b038416908117825560408051928352602083019190915283917fde4b3f61490b74c0ed6237523974fe299126bbbf8a8a7482fd220104c59b0c84910160405180910390a150604080518082019091526002815261333160f01b60208201526001600160a01b038216620000da5760405162461bcd60e51b8152600401620000d1919062000146565b60405180910390fd5b506001600160a01b03166080525062000196565b6001600160a01b03811681146200010457600080fd5b50565b600080604083850312156200011b57600080fd5b82516200012881620000ee565b60208401519092506200013b81620000ee565b809150509250929050565b600060208083528351808285015260005b81811015620001755785810183015185820160400152820162000157565b506000604082860101526040601f19601f8301168501019250505092915050565b6080516113fe620001c06000396000818161013e015281816101d9015261053801526113fe6000f3fe608060405234801561001057600080fd5b50600436106100b45760003560e01c80634d9a12c4116100715780634d9a12c41461016057806359a047e91461017557806368b23e52146101885780639109b8a31461019b578063e3056a34146101ae578063e4c0aaf4146101c157600080fd5b806305d76b9d146100b95780630c340a24146100ce5780631c46e999146100fe578063238efcbc1461011e5780633d4d10e21461012657806344bbdb5514610139575b600080fd5b6100cc6100c7366004610e2a565b6101d4565b005b6000546100e1906001600160a01b031681565b6040516001600160a01b0390911681526020015b60405180910390f35b61011161010c366004610e2a565b6102f6565b6040516100f5919061103a565b6100cc6103b0565b6100cc61013436600461106d565b610460565b6100e17f000000000000000000000000000000000000000000000000000000000000000081565b610168610522565b6040516100f5919061108a565b6100cc610183366004610e2a565b610533565b6100cc61019636600461106d565b610647565b6101116101a9366004610e2a565b610709565b6001546100e1906001600160a01b031681565b6100cc6101cf36600461106d565b6107bc565b6102067f00000000000000000000000000000000000000000000000000000000000000006001600160a01b0316610891565b6001600160a01b0316336001600160a01b03161460405180604001604052806002815260200161033360f41b8152509061025c5760405162461bcd60e51b8152600401610253919061103a565b60405180910390fd5b5060006102696002610918565b905060005b818110156102f157610281600282610922565b6001600160a01b03166305d76b9d846040518263ffffffff1660e01b81526004016102ac919061114a565b600060405180830381600087803b1580156102c657600080fd5b505af11580156102da573d6000803e3d6000fd5b5050505080806102e9906112bf565b91505061026e565b505050565b606060006103046002610918565b905060005b818110156103a95761031c600282610922565b6001600160a01b0316631c46e999856040518263ffffffff1660e01b8152600401610347919061114a565b600060405180830381865afa158015610364573d6000803e3d6000fd5b505050506040513d6000823e601f3d908101601f1916820160405261038c91908101906112d8565b925060008351116103a957806103a1816112bf565b915050610309565b5050919050565b600154604080518082019091526002815261033360f41b6020820152906001600160a01b031633146103f55760405162461bcd60e51b8152600401610253919061103a565b5060008054600180546001600160a01b03198084166001600160a01b03808416919091179095551690556040805192909116808352336020840152917fde4b3f61490b74c0ed6237523974fe299126bbbf8a8a7482fd220104c59b0c8491015b60405180910390a150565b600054604080518082019091526002815261033360f41b6020820152906001600160a01b031633146104a55760405162461bcd60e51b8152600401610253919061103a565b506104b1600282610935565b60405180604001604052806002815260200161333160f01b815250906104ea5760405162461bcd60e51b8152600401610253919061103a565b506040516001600160a01b038216907f75ec3ef6c1afb45dd0a2bbb3a4f14cac03241c33fc24c352e25ea690e22a923290600090a250565b606061052e600261094a565b905090565b6105657f00000000000000000000000000000000000000000000000000000000000000006001600160a01b0316610891565b6001600160a01b0316336001600160a01b03161460405180604001604052806002815260200161033360f41b815250906105b25760405162461bcd60e51b8152600401610253919061103a565b5060006105bf6002610918565b905060005b818110156102f1576105d7600282610922565b6001600160a01b03166359a047e9846040518263ffffffff1660e01b8152600401610602919061114a565b600060405180830381600087803b15801561061c57600080fd5b505af1158015610630573d6000803e3d6000fd5b50505050808061063f906112bf565b9150506105c4565b600054604080518082019091526002815261033360f41b6020820152906001600160a01b0316331461068c5760405162461bcd60e51b8152600401610253919061103a565b506106986002826109f9565b60405180604001604052806002815260200161333160f01b815250906106d15760405162461bcd60e51b8152600401610253919061103a565b506040516001600160a01b038216907fd37223475c04a60e97eb30bc3a38b4aef6a37def09d1ed6b88c881847362426d90600090a250565b606060006107176002610918565b905060005b818110156103a95761072f600282610922565b6001600160a01b0316639109b8a3856040518263ffffffff1660e01b815260040161075a919061114a565b600060405180830381865afa158015610777573d6000803e3d6000fd5b505050506040513d6000823e601f3d908101601f1916820160405261079f91908101906112d8565b925060008351116103a957806107b4816112bf565b91505061071c565b600054604080518082019091526002815261033360f41b6020820152906001600160a01b031633146108015760405162461bcd60e51b8152600401610253919061103a565b50604080518082019091526002815261333160f01b60208201526001600160a01b0382166108425760405162461bcd60e51b8152600401610253919061103a565b50600180546001600160a01b0319166001600160a01b0383169081179091556040519081527f67235ba2e63c748a35b95c4f92a3bbc2a1389938170a5ce6c9add5d0b03a314a90602001610455565b6040516321f8a72160e01b8152724d4f54484552424f4152445f4144445245535360681b60048201526000906001600160a01b038316906321f8a72190602401602060405180830381865afa1580156108ee573d6000803e3d6000fd5b505050506040513d601f19601f82011682018060405250810190610912919061136c565b92915050565b6000610912825490565b600061092e8383610a0e565b9392505050565b600061092e836001600160a01b038416610a38565b6060600061095783610918565b905060008167ffffffffffffffff81111561097457610974610b7a565b60405190808252806020026020018201604052801561099d578160200160208202803683370190505b50905060005b828110156109f1576109b58582610922565b8282815181106109c7576109c7611389565b6001600160a01b0390921660209283029190910190910152806109e9816112bf565b9150506109a3565b509392505050565b600061092e836001600160a01b038416610a87565b6000826000018281548110610a2557610a25611389565b9060005260206000200154905092915050565b6000818152600183016020526040812054610a7f57508154600181810184556000848152602080822090930184905584548482528286019093526040902091909155610912565b506000610912565b60008181526001830160205260408120548015610b70576000610aab60018361139f565b8554909150600090610abf9060019061139f565b9050818114610b24576000866000018281548110610adf57610adf611389565b9060005260206000200154905080876000018481548110610b0257610b02611389565b6000918252602080832090910192909255918252600188019052604090208390555b8554869080610b3557610b356113b2565b600190038181906000526020600020016000905590558560010160008681526020019081526020016000206000905560019350505050610912565b6000915050610912565b634e487b7160e01b600052604160045260246000fd5b6040516080810167ffffffffffffffff81118282101715610bb357610bb3610b7a565b60405290565b6040805190810167ffffffffffffffff81118282101715610bb357610bb3610b7a565b604051610120810167ffffffffffffffff81118282101715610bb357610bb3610b7a565b604051601f8201601f1916810167ffffffffffffffff81118282101715610c2957610c29610b7a565b604052919050565b600067ffffffffffffffff821115610c4b57610c4b610b7a565b5060051b60200190565b6001600160a01b0381168114610c6a57600080fd5b50565b8035610c7881610c55565b919050565b803560ff81168114610c7857600080fd5b803567ffffffffffffffff81168114610c7857600080fd5b600060e08284031215610cb857600080fd5b60405160e0810181811067ffffffffffffffff82111715610cdb57610cdb610b7a565b806040525080915082358152602083013560208201526040830135604082015260608301356060820152610d1160808401610c8e565b6080820152610d2260a08401610c8e565b60a0820152610d3360c08401610c8e565b60c08201525092915050565b80358015158114610c7857600080fd5b600082601f830112610d6057600080fd5b81356020610d75610d7083610c31565b610c00565b82815260a09283028501820192828201919087851115610d9457600080fd5b8387015b85811015610e1d5780890382811215610db15760008081fd5b610db9610b90565b8235610dc481610c55565b8152610dd1838801610d3f565b8782015260408084013581830152606081605f1985011215610df35760008081fd5b610dfb610bb9565b85820135815260808601358a8201529083015250855250928401928101610d98565b5090979650505050505050565b600060208284031215610e3c57600080fd5b67ffffffffffffffff8083351115610e5357600080fd5b60408335840185031215610e6657600080fd5b610e6e610bb9565b8184358501351115610e7f57600080fd5b83358401803501601f81018613610e9557600080fd5b610ea2610d708235610c31565b81358082526020808301929160051b840101881015610ec057600080fd5b602083015b6020843560051b850101811015610ff4578581351115610ee457600080fd5b80358401601f196040828c0382011215610efd57600080fd5b610f05610bb9565b8860208401351115610f1657600080fd5b602083013583016101e083828f03011215610f3057600080fd5b610f38610bdc565b9250610f4660208201610c6d565b8352610f5460408201610c7d565b6020840152610f6560608201610c6d565b604084015260808101356060840152610f818d60a08301610ca6565b608084015261018081013560a08401526101a081013560c08401526101c081013560e0840152896101e08201351115610fb957600080fd5b610fcd8d60206101e0840135840101610d4f565b61010084015250908152604091909101356020808301919091529084529283019201610ec5565b50835250611009905084358501602001610d3f565b6020820152949350505050565b60005b83811015611031578181015183820152602001611019565b50506000910152565b6020815260008251806020840152611059816040850160208701611016565b601f01601f19169190910160400192915050565b60006020828403121561107f57600080fd5b813561092e81610c55565b6020808252825182820181905260009190848201906040850190845b818110156110cb5783516001600160a01b0316835292840192918401916001016110a6565b50909695505050505050565b600081518084526020808501945080840160005b8381101561113f57815180516001600160a01b031688528381015115158489015260408082015190890152606090810151805191890191909152830151608088015260a090960195908201906001016110eb565b509495945050505050565b600060208083526060808401855160408085880152828251808552608094508489019150848160051b8a0101878501945060005b8281101561128e578a8203607f190184528551805186845280516001600160a01b031687850152808b015160ff8116858c015250808701516001600160a01b038116858b015250808a015160a08581019190915289820151805160c080880191909152602082015160e088015260408201516101008801526060820151610120880152608082015167ffffffffffffffff908116610140890152828401518116610160890152818301511661018088015290918301516101a08701528201516101c08601525060e08101516101e080860191909152610100909101516102008501919091526112716102208501826110d7565b918b0151938b01939093529589019593890193915060010161117e565b50968a0151801515848b0152969a9950505050505050505050565b634e487b7160e01b600052601160045260246000fd5b6000600182016112d1576112d16112a9565b5060010190565b6000602082840312156112ea57600080fd5b815167ffffffffffffffff8082111561130257600080fd5b818401915084601f83011261131657600080fd5b81518181111561132857611328610b7a565b61133b601f8201601f1916602001610c00565b915080825285602082850101111561135257600080fd5b611363816020840160208601611016565b50949350505050565b60006020828403121561137e57600080fd5b815161092e81610c55565b634e487b7160e01b600052603260045260246000fd5b81810381811115610912576109126112a9565b634e487b7160e01b600052603160045260246000fdfea2646970667358221220f9f6268fbfc12eff01ccca2b968facdc3c9d997df58715983b3c148e6a0ce29f64736f6c63430008110033","bytecodeSha1":"8e30ef1a5be9ca909de2488ec7861ef09c89e6df","compiler":{"evm_version":"london","optimizer":{"enabled":true,"runs":200},"version":"0.8.17+commit.8df45f5f"},"contractName":"RootSafetyCheck","language":"Solidity","natspec":{"kind":"dev","methods":{"acceptGovernance()":{"notice":"Called by the pending governor to approve the change"},"addCheck(address)":{"notice":"adds a check to be performed"},"changeGovernor(address)":{"notice":"Changes the governor can only be called by the current governor"},"checkAndPersistMint((((address,uint8,address,uint256,(uint256,uint256,uint256,uint256,uint64,uint64,uint64),uint256,uint256,uint256,(address,bool,uint256,(uint256,uint256))[]),uint256)[],bool))":{"notice":"Checks whether a mint operation is safe and reverts otherwise This is only called when an actual mint is performed The implementation should store any relevant information for the mint"},"checkAndPersistRedeem((((address,uint8,address,uint256,(uint256,uint256,uint256,uint256,uint64,uint64,uint64),uint256,uint256,uint256,(address,bool,uint256,(uint256,uint256))[]),uint256)[],bool))":{"notice":"Checks whether a redeem operation is safe and reverts otherwise This is only called when an actual redeem is performed The implementation should store any relevant information for the redeem"},"getChecks()":{"returns":{"_0":"all the checks registered"}},"governor()":{"notice":"Returns the current governor"},"isMintSafe((((address,uint8,address,uint256,(uint256,uint256,uint256,uint256,uint64,uint64,uint64),uint256,uint256,uint256,(address,bool,uint256,(uint256,uint256))[]),uint256)[],bool))":{"notice":"Checks whether a mint operation is safe","returns":{"err":"empty string if it is safe, otherwise the reason why it is not safe"}},"isRedeemSafe((((address,uint8,address,uint256,(uint256,uint256,uint256,uint256,uint64,uint64,uint64),uint256,uint256,uint256,(address,bool,uint256,(uint256,uint256))[]),uint256)[],bool))":{"notice":"Checks whether a redeem operation is safe","returns":{"err":"empty string if it is safe, otherwise the reason why it is not safe"}},"pendingGovernor()":{"notice":"Returns the pending governor"},"removeCheck(address)":{"notice":"removes a check to be performed"}},"version":1},"opcodes":"PUSH1 0x80 PUSH1 0x40 MSTORE CALLVALUE DUP1 ISZERO PUSH2 0x10 JUMPI PUSH1 0x0 DUP1 REVERT JUMPDEST POP PUSH1 0x4 CALLDATASIZE LT PUSH2 0xB4 JUMPI PUSH1 0x0 CALLDATALOAD PUSH1 0xE0 SHR DUP1 PUSH4 0x4D9A12C4 GT PUSH2 0x71 JUMPI DUP1 PUSH4 0x4D9A12C4 EQ PUSH2 0x160 JUMPI DUP1 PUSH4 0x59A047E9 EQ PUSH2 0x175 JUMPI DUP1 PUSH4 0x68B23E52 EQ PUSH2 0x188 JUMPI DUP1 PUSH4 0x9109B8A3 EQ PUSH2 0x19B JUMPI DUP1 PUSH4 0xE3056A34 EQ PUSH2 0x1AE JUMPI DUP1 PUSH4 0xE4C0AAF4 EQ PUSH2 0x1C1 JUMPI PUSH1 0x0 DUP1 REVERT JUMPDEST DUP1 PUSH4 0x5D76B9D EQ PUSH2 0xB9 JUMPI DUP1 PUSH4 0xC340A24 EQ PUSH2 0xCE JUMPI DUP1 PUSH4 0x1C46E999 EQ PUSH2 0xFE JUMPI DUP1 PUSH4 0x238EFCBC EQ PUSH2 0x11E JUMPI DUP1 PUSH4 0x3D4D10E2 EQ PUSH2 0x126 JUMPI DUP1 PUSH4 0x44BBDB55 EQ PUSH2 0x139 JUMPI JUMPDEST PUSH1 0x0 DUP1 REVERT JUMPDEST PUSH2 0xCC PUSH2 0xC7 CALLDATASIZE PUSH1 0x4 PUSH2 0xE2A JUMP JUMPDEST PUSH2 0x1D4 JUMP JUMPDEST STOP JUMPDEST PUSH1 0x0 SLOAD PUSH2 0xE1 SWAP1 PUSH1 0x1 PUSH1 0x1 PUSH1 0xA0 SHL SUB AND DUP2 JUMP JUMPDEST PUSH1 0x40 MLOAD PUSH1 0x1 PUSH1 0x1 PUSH1 0xA0 SHL SUB SWAP1 SWAP2 AND DUP2 MSTORE PUSH1 0x20 ADD JUMPDEST PUSH1 0x40 MLOAD DUP1 SWAP2 SUB SWAP1 RETURN JUMPDEST PUSH2 0x111 PUSH2 0x10C CALLDATASIZE PUSH1 0x4 PUSH2 0xE2A JUMP JUMPDEST PUSH2 0x2F6 JUMP JUMPDEST PUSH1 0x40 MLOAD PUSH2 0xF5 SWAP2 SWAP1 PUSH2 0x103A JUMP JUMPDEST PUSH2 0xCC PUSH2 0x3B0 JUMP JUMPDEST PUSH2 0xCC PUSH2 0x134 CALLDATASIZE PUSH1 0x4 PUSH2 0x106D JUMP JUMPDEST PUSH2 0x460 JUMP JUMPDEST PUSH2 0xE1 PUSH32 0x0 DUP2 JUMP JUMPDEST PUSH2 0x168 PUSH2 0x522 JUMP JUMPDEST PUSH1 0x40 MLOAD PUSH2 0xF5 SWAP2 SWAP1 PUSH2 0x108A JUMP JUMPDEST PUSH2 0xCC PUSH2 0x183 CALLDATASIZE PUSH1 0x4 PUSH2 0xE2A JUMP JUMPDEST PUSH2 0x533 JUMP JUMPDEST PUSH2 0xCC PUSH2 0x196 CALLDATASIZE PUSH1 0x4 PUSH2 0x106D JUMP JUMPDEST PUSH2 0x647 JUMP JUMPDEST PUSH2 0x111 PUSH2 0x1A9 CALLDATASIZE PUSH1 0x4 PUSH2 0xE2A JUMP JUMPDEST PUSH2 0x709 JUMP JUMPDEST PUSH1 0x1 SLOAD PUSH2 0xE1 SWAP1 PUSH1 0x1 PUSH1 0x1 PUSH1 0xA0 SHL SUB AND DUP2 JUMP JUMPDEST PUSH2 0xCC PUSH2 0x1CF CALLDATASIZE PUSH1 0x4 PUSH2 0x106D JUMP JUMPDEST PUSH2 0x7BC JUMP JUMPDEST PUSH2 0x206 PUSH32 0x0 PUSH1 0x1 PUSH1 0x1 PUSH1 0xA0 SHL SUB AND PUSH2 0x891 JUMP JUMPDEST PUSH1 0x1 PUSH1 0x1 PUSH1 0xA0 SHL SUB AND CALLER PUSH1 0x1 PUSH1 0x1 PUSH1 0xA0 SHL SUB AND EQ PUSH1 0x40 MLOAD DUP1 PUSH1 0x40 ADD PUSH1 0x40 MSTORE DUP1 PUSH1 0x2 DUP2 MSTORE PUSH1 0x20 ADD PUSH2 0x333 PUSH1 0xF4 SHL DUP2 MSTORE POP SWAP1 PUSH2 0x25C JUMPI PUSH1 0x40 MLOAD PUSH3 0x461BCD PUSH1 0xE5 SHL DUP2 MSTORE PUSH1 0x4 ADD PUSH2 0x253 SWAP2 SWAP1 PUSH2 0x103A JUMP JUMPDEST PUSH1 0x40 MLOAD DUP1 SWAP2 SUB SWAP1 REVERT JUMPDEST POP PUSH1 0x0 PUSH2 0x269 PUSH1 0x2 PUSH2 0x918 JUMP JUMPDEST SWAP1 POP PUSH1 0x0 JUMPDEST DUP2 DUP2 LT ISZERO PUSH2 0x2F1 JUMPI PUSH2 0x281 PUSH1 0x2 DUP3 PUSH2 0x922 JUMP JUMPDEST PUSH1 0x1 PUSH1 0x1 PUSH1 0xA0 SHL SUB AND PUSH4 0x5D76B9D DUP5 PUSH1 0x40 MLOAD DUP3 PUSH4 0xFFFFFFFF AND PUSH1 0xE0 SHL DUP2 MSTORE PUSH1 0x4 ADD PUSH2 0x2AC SWAP2 SWAP1 PUSH2 0x114A JUMP JUMPDEST PUSH1 0x0 PUSH1 0x40 MLOAD DUP1 DUP4 SUB DUP2 PUSH1 0x0 DUP8 DUP1 EXTCODESIZE ISZERO DUP1 ISZERO PUSH2 0x2C6 JUMPI PUSH1 0x0 DUP1 REVERT JUMPDEST POP GAS CALL ISZERO DUP1 ISZERO PUSH2 0x2DA JUMPI RETURNDATASIZE PUSH1 0x0 DUP1 RETURNDATACOPY RETURNDATASIZE PUSH1 0x0 REVERT JUMPDEST POP POP POP POP DUP1 DUP1 PUSH2 0x2E9 SWAP1 PUSH2 0x12BF JUMP JUMPDEST SWAP2 POP POP PUSH2 0x26E JUMP JUMPDEST POP POP POP JUMP JUMPDEST PUSH1 0x60 PUSH1 0x0 PUSH2 0x304 PUSH1 0x2 PUSH2 0x918 JUMP JUMPDEST SWAP1 POP PUSH1 0x0 JUMPDEST DUP2 DUP2 LT ISZERO PUSH2 0x3A9 JUMPI PUSH2 0x31C PUSH1 0x2 DUP3 PUSH2 0x922 JUMP JUMPDEST PUSH1 0x1 PUSH1 0x1 PUSH1 0xA0 SHL SUB AND PUSH4 0x1C46E999 DUP6 PUSH1 0x40 MLOAD DUP3 PUSH4 0xFFFFFFFF AND PUSH1 0xE0 SHL DUP2 MSTORE PUSH1 0x4 ADD PUSH2 0x347 SWAP2 SWAP1 PUSH2 0x114A JUMP JUMPDEST PUSH1 0x0 PUSH1 0x40 MLOAD DUP1 DUP4 SUB DUP2 DUP7 GAS STATICCALL ISZERO DUP1 ISZERO PUSH2 0x364 JUMPI RETURNDATASIZE PUSH1 0x0 DUP1 RETURNDATACOPY RETURNDATASIZE PUSH1 0x0 REVERT JUMPDEST POP POP POP POP PUSH1 0x40 MLOAD RETURNDATASIZE PUSH1 0x0 DUP3 RETURNDATACOPY PUSH1 0x1F RETURNDATASIZE SWAP1 DUP2 ADD PUSH1 0x1F NOT AND DUP3 ADD PUSH1 0x40 MSTORE PUSH2 0x38C SWAP2 SWAP1 DUP2 ADD SWAP1 PUSH2 0x12D8 JUMP JUMPDEST SWAP3 POP PUSH1 0x0 DUP4 MLOAD GT PUSH2 0x3A9 JUMPI DUP1 PUSH2 0x3A1 DUP2 PUSH2 0x12BF JUMP JUMPDEST SWAP2 POP POP PUSH2 0x309 JUMP JUMPDEST POP POP SWAP2 SWAP1 POP JUMP JUMPDEST PUSH1 0x1 SLOAD PUSH1 0x40 DUP1 MLOAD DUP1 DUP3 ADD SWAP1 SWAP2 MSTORE PUSH1 0x2 DUP2 MSTORE PUSH2 0x333 PUSH1 0xF4 SHL PUSH1 0x20 DUP3 ADD MSTORE SWAP1 PUSH1 0x1 PUSH1 0x1 PUSH1 0xA0 SHL SUB AND CALLER EQ PUSH2 0x3F5 JUMPI PUSH1 0x40 MLOAD PUSH3 0x461BCD PUSH1 0xE5 SHL DUP2 MSTORE PUSH1 0x4 ADD PUSH2 0x253 SWAP2 SWAP1 PUSH2 0x103A JUMP JUMPDEST POP PUSH1 0x0 DUP1 SLOAD PUSH1 0x1 DUP1 SLOAD PUSH1 0x1 PUSH1 0x1 PUSH1 0xA0 SHL SUB NOT DUP1 DUP5 AND PUSH1 0x1 PUSH1 0x1 PUSH1 0xA0 SHL SUB DUP1 DUP5 AND SWAP2 SWAP1 SWAP2 OR SWAP1 SWAP6 SSTORE AND SWAP1 SSTORE PUSH1 0x40 DUP1 MLOAD SWAP3 SWAP1 SWAP2 AND DUP1 DUP4 MSTORE CALLER PUSH1 0x20 DUP5 ADD MSTORE SWAP2 PUSH32 0xDE4B3F61490B74C0ED6237523974FE299126BBBF8A8A7482FD220104C59B0C84 SWAP2 ADD JUMPDEST PUSH1 0x40 MLOAD DUP1 SWAP2 SUB SWAP1 LOG1 POP JUMP JUMPDEST PUSH1 0x0 SLOAD PUSH1 0x40 DUP1 MLOAD DUP1 DUP3 ADD SWAP1 SWAP2 MSTORE PUSH1 0x2 DUP2 MSTORE PUSH2 0x333 PUSH1 0xF4 SHL PUSH1 0x20 DUP3 ADD MSTORE SWAP1 PUSH1 0x1 PUSH1 0x1 PUSH1 0xA0 SHL SUB AND CALLER EQ PUSH2 0x4A5 JUMPI PUSH1 0x40 MLOAD PUSH3 0x461BCD PUSH1 0xE5 SHL DUP2 MSTORE PUSH1 0x4 ADD PUSH2 0x253 SWAP2 SWAP1 PUSH2 0x103A JUMP JUMPDEST POP PUSH2 0x4B1 PUSH1 0x2 DUP3 PUSH2 0x935 JUMP JUMPDEST PUSH1 0x40 MLOAD DUP1 PUSH1 0x40 ADD PUSH1 0x40 MSTORE DUP1 PUSH1 0x2 DUP2 MSTORE PUSH1 0x20 ADD PUSH2 0x3331 PUSH1 0xF0 SHL DUP2 MSTORE POP SWAP1 PUSH2 0x4EA JUMPI PUSH1 0x40 MLOAD PUSH3 0x461BCD PUSH1 0xE5 SHL DUP2 MSTORE PUSH1 0x4 ADD PUSH2 0x253 SWAP2 SWAP1 PUSH2 0x103A JUMP JUMPDEST POP PUSH1 0x40 MLOAD PUSH1 0x1 PUSH1 0x1 PUSH1 0xA0 SHL SUB DUP3 AND SWAP1 PUSH32 0x75EC3EF6C1AFB45DD0A2BBB3A4F14CAC03241C33FC24C352E25EA690E22A9232 SWAP1 PUSH1 0x0 SWAP1 LOG2 POP JUMP JUMPDEST PUSH1 0x60 PUSH2 0x52E PUSH1 0x2 PUSH2 0x94A JUMP JUMPDEST SWAP1 POP SWAP1 JUMP JUMPDEST PUSH2 0x565 PUSH32 0x0 PUSH1 0x1 PUSH1 0x1 PUSH1 0xA0 SHL SUB AND PUSH2 0x891 JUMP JUMPDEST PUSH1 0x1 PUSH1 0x1 PUSH1 0xA0 SHL SUB AND CALLER PUSH1 0x1 PUSH1 0x1 PUSH1 0xA0 SHL SUB AND EQ PUSH1 0x40 MLOAD DUP1 PUSH1 0x40 ADD PUSH1 0x40 MSTORE DUP1 PUSH1 0x2 DUP2 MSTORE PUSH1 0x20 ADD PUSH2 0x333 PUSH1 0xF4 SHL DUP2 MSTORE POP SWAP1 PUSH2 0x5B2 JUMPI PUSH1 0x40 MLOAD PUSH3 0x461BCD PUSH1 0xE5 SHL DUP2 MSTORE PUSH1 0x4 ADD PUSH2 0x253 SWAP2 SWAP1 PUSH2 0x103A JUMP JUMPDEST POP PUSH1 0x0 PUSH2 0x5BF PUSH1 0x2 PUSH2 0x918 JUMP JUMPDEST SWAP1 POP PUSH1 0x0 JUMPDEST DUP2 DUP2 LT ISZERO PUSH2 0x2F1 JUMPI PUSH2 0x5D7 PUSH1 0x2 DUP3 PUSH2 0x922 JUMP JUMPDEST PUSH1 0x1 PUSH1 0x1 PUSH1 0xA0 SHL SUB AND PUSH4 0x59A047E9 DUP5 PUSH1 0x40 MLOAD DUP3 PUSH4 0xFFFFFFFF AND PUSH1 0xE0 SHL DUP2 MSTORE PUSH1 0x4 ADD PUSH2 0x602 SWAP2 SWAP1 PUSH2 0x114A JUMP JUMPDEST PUSH1 0x0 PUSH1 0x40 MLOAD DUP1 DUP4 SUB DUP2 PUSH1 0x0 DUP8 DUP1 EXTCODESIZE ISZERO DUP1 ISZERO PUSH2 0x61C JUMPI PUSH1 0x0 DUP1 REVERT JUMPDEST POP GAS CALL ISZERO DUP1 ISZERO PUSH2 0x630 JUMPI RETURNDATASIZE PUSH1 0x0 DUP1 RETURNDATACOPY RETURNDATASIZE PUSH1 0x0 REVERT JUMPDEST POP POP POP POP DUP1 DUP1 PUSH2 0x63F SWAP1 PUSH2 0x12BF JUMP JUMPDEST SWAP2 POP POP PUSH2 0x5C4 JUMP JUMPDEST PUSH1 0x0 SLOAD PUSH1 0x40 DUP1 MLOAD DUP1 DUP3 ADD SWAP1 SWAP2 MSTORE PUSH1 0x2 DUP2 MSTORE PUSH2 0x333 PUSH1 0xF4 SHL PUSH1 0x20 DUP3 ADD MSTORE SWAP1 PUSH1 0x1 PUSH1 0x1 PUSH1 0xA0 SHL SUB AND CALLER EQ PUSH2 0x68C JUMPI PUSH1 0x40 MLOAD PUSH3 0x461BCD PUSH1 0xE5 SHL DUP2 MSTORE PUSH1 0x4 ADD PUSH2 0x253 SWAP2 SWAP1 PUSH2 0x103A JUMP JUMPDEST POP PUSH2 0x698 PUSH1 0x2 DUP3 PUSH2 0x9F9 JUMP JUMPDEST PUSH1 0x40 MLOAD DUP1 PUSH1 0x40 ADD PUSH1 0x40 MSTORE DUP1 PUSH1 0x2 DUP2 MSTORE PUSH1 0x20 ADD PUSH2 0x3331 PUSH1 0xF0 SHL DUP2 MSTORE POP SWAP1 PUSH2 0x6D1 JUMPI PUSH1 0x40 MLOAD PUSH3 0x461BCD PUSH1 0xE5 SHL DUP2 MSTORE PUSH1 0x4 ADD PUSH2 0x253 SWAP2 SWAP1 PUSH2 0x103A JUMP JUMPDEST POP PUSH1 0x40 MLOAD PUSH1 0x1 PUSH1 0x1 PUSH1 0xA0 SHL SUB DUP3 AND SWAP1 PUSH32 0xD37223475C04A60E97EB30BC3A38B4AEF6A37DEF09D1ED6B88C881847362426D SWAP1 PUSH1 0x0 SWAP1 LOG2 POP JUMP JUMPDEST PUSH1 0x60 PUSH1 0x0 PUSH2 0x717 PUSH1 0x2 PUSH2 0x918 JUMP JUMPDEST SWAP1 POP PUSH1 0x0 JUMPDEST DUP2 DUP2 LT ISZERO PUSH2 0x3A9 JUMPI PUSH2 0x72F PUSH1 0x2 DUP3 PUSH2 0x922 JUMP JUMPDEST PUSH1 0x1 PUSH1 0x1 PUSH1 0xA0 SHL SUB AND PUSH4 0x9109B8A3 DUP6 PUSH1 0x40 MLOAD DUP3 PUSH4 0xFFFFFFFF AND PUSH1 0xE0 SHL DUP2 MSTORE PUSH1 0x4 ADD PUSH2 0x75A SWAP2 SWAP1 PUSH2 0x114A JUMP JUMPDEST PUSH1 0x0 PUSH1 0x40 MLOAD DUP1 DUP4 SUB DUP2 DUP7 GAS STATICCALL ISZERO DUP1 ISZERO PUSH2 0x777 JUMPI RETURNDATASIZE PUSH1 0x0 DUP1 RETURNDATACOPY RETURNDATASIZE PUSH1 0x0 REVERT JUMPDEST POP POP POP POP PUSH1 0x40 MLOAD RETURNDATASIZE PUSH1 0x0 DUP3 RETURNDATACOPY PUSH1 0x1F RETURNDATASIZE SWAP1 DUP2 ADD PUSH1 0x1F NOT AND DUP3 ADD PUSH1 0x40 MSTORE PUSH2 0x79F SWAP2 SWAP1 DUP2 ADD SWAP1 PUSH2 0x12D8 JUMP JUMPDEST SWAP3 POP PUSH1 0x0 DUP4 MLOAD GT PUSH2 0x3A9 JUMPI DUP1 PUSH2 0x7B4 DUP2 PUSH2 0x12BF JUMP JUMPDEST SWAP2 POP POP PUSH2 0x71C JUMP JUMPDEST PUSH1 0x0 SLOAD PUSH1 0x40 DUP1 MLOAD DUP1 DUP3 ADD SWAP1 SWAP2 MSTORE PUSH1 0x2 DUP2 MSTORE PUSH2 0x333 PUSH1 0xF4 SHL PUSH1 0x20 DUP3 ADD MSTORE SWAP1 PUSH1 0x1 PUSH1 0x1 PUSH1 0xA0 SHL SUB AND CALLER EQ PUSH2 0x801 JUMPI PUSH1 0x40 MLOAD PUSH3 0x461BCD PUSH1 0xE5 SHL DUP2 MSTORE PUSH1 0x4 ADD PUSH2 0x253 SWAP2 SWAP1 PUSH2 0x103A JUMP JUMPDEST POP PUSH1 0x40 DUP1 MLOAD DUP1 DUP3 ADD SWAP1 SWAP2 MSTORE PUSH1 0x2 DUP2 MSTORE PUSH2 0x3331 PUSH1 0xF0 SHL PUSH1 0x20 DUP3 ADD MSTORE PUSH1 0x1 PUSH1 0x1 PUSH1 0xA0 SHL SUB DUP3 AND PUSH2 0x842 JUMPI PUSH1 0x40 MLOAD PUSH3 0x461BCD PUSH1 0xE5 SHL DUP2 MSTORE PUSH1 0x4 ADD PUSH2 0x253 SWAP2 SWAP1 PUSH2 0x103A JUMP JUMPDEST POP PUSH1 0x1 DUP1 SLOAD PUSH1 0x1 PUSH1 0x1 PUSH1 0xA0 SHL SUB NOT AND PUSH1 0x1 PUSH1 0x1 PUSH1 0xA0 SHL SUB DUP4 AND SWAP1 DUP2 OR SWAP1 SWAP2 SSTORE PUSH1 0x40 MLOAD SWAP1 DUP2 MSTORE PUSH32 0x67235BA2E63C748A35B95C4F92A3BBC2A1389938170A5CE6C9ADD5D0B03A314A SWAP1 PUSH1 0x20 ADD PUSH2 0x455 JUMP JUMPDEST PUSH1 0x40 MLOAD PUSH4 0x21F8A721 PUSH1 0xE0 SHL DUP2 MSTORE PUSH19 0x4D4F54484552424F4152445F41444452455353 PUSH1 0x68 SHL PUSH1 0x4 DUP3 ADD MSTORE PUSH1 0x0 SWAP1 PUSH1 0x1 PUSH1 0x1 PUSH1 0xA0 SHL SUB DUP4 AND SWAP1 PUSH4 0x21F8A721 SWAP1 PUSH1 0x24 ADD PUSH1 0x20 PUSH1 0x40 MLOAD DUP1 DUP4 SUB DUP2 DUP7 GAS STATICCALL ISZERO DUP1 ISZERO PUSH2 0x8EE JUMPI RETURNDATASIZE PUSH1 0x0 DUP1 RETURNDATACOPY RETURNDATASIZE PUSH1 0x0 REVERT JUMPDEST POP POP POP POP PUSH1 0x40 MLOAD RETURNDATASIZE PUSH1 0x1F NOT PUSH1 0x1F DUP3 ADD AND DUP3 ADD DUP1 PUSH1 0x40 MSTORE POP DUP2 ADD SWAP1 PUSH2 0x912 SWAP2 SWAP1 PUSH2 0x136C JUMP JUMPDEST SWAP3 SWAP2 POP POP JUMP JUMPDEST PUSH1 0x0 PUSH2 0x912 DUP3 SLOAD SWAP1 JUMP JUMPDEST PUSH1 0x0 PUSH2 0x92E DUP4 DUP4 PUSH2 0xA0E JUMP JUMPDEST SWAP4 SWAP3 POP POP POP JUMP JUMPDEST PUSH1 0x0 PUSH2 0x92E DUP4 PUSH1 0x1 PUSH1 0x1 PUSH1 0xA0 SHL SUB DUP5 AND PUSH2 0xA38 JUMP JUMPDEST PUSH1 0x60 PUSH1 0x0 PUSH2 0x957 DUP4 PUSH2 0x918 JUMP JUMPDEST SWAP1 POP PUSH1 0x0 DUP2 PUSH8 0xFFFFFFFFFFFFFFFF DUP2 GT ISZERO PUSH2 0x974 JUMPI PUSH2 0x974 PUSH2 0xB7A JUMP JUMPDEST PUSH1 0x40 MLOAD SWAP1 DUP1 DUP3 MSTORE DUP1 PUSH1 0x20 MUL PUSH1 0x20 ADD DUP3 ADD PUSH1 0x40 MSTORE DUP1 ISZERO PUSH2 0x99D JUMPI DUP2 PUSH1 0x20 ADD PUSH1 0x20 DUP3 MUL DUP1 CALLDATASIZE DUP4 CALLDATACOPY ADD SWAP1 POP JUMPDEST POP SWAP1 POP PUSH1 0x0 JUMPDEST DUP3 DUP2 LT ISZERO PUSH2 0x9F1 JUMPI PUSH2 0x9B5 DUP6 DUP3 PUSH2 0x922 JUMP JUMPDEST DUP3 DUP3 DUP2 MLOAD DUP2 LT PUSH2 0x9C7 JUMPI PUSH2 0x9C7 PUSH2 0x1389 JUMP JUMPDEST PUSH1 0x1 PUSH1 0x1 PUSH1 0xA0 SHL SUB SWAP1 SWAP3 AND PUSH1 0x20 SWAP3 DUP4 MUL SWAP2 SWAP1 SWAP2 ADD SWAP1 SWAP2 ADD MSTORE DUP1 PUSH2 0x9E9 DUP2 PUSH2 0x12BF JUMP JUMPDEST SWAP2 POP POP PUSH2 0x9A3 JUMP JUMPDEST POP SWAP4 SWAP3 POP POP POP JUMP JUMPDEST PUSH1 0x0 PUSH2 0x92E DUP4 PUSH1 0x1 PUSH1 0x1 PUSH1 0xA0 SHL SUB DUP5 AND PUSH2 0xA87 JUMP JUMPDEST PUSH1 0x0 DUP3 PUSH1 0x0 ADD DUP3 DUP2 SLOAD DUP2 LT PUSH2 0xA25 JUMPI PUSH2 0xA25 PUSH2 0x1389 JUMP JUMPDEST SWAP1 PUSH1 0x0 MSTORE PUSH1 0x20 PUSH1 0x0 KECCAK256 ADD SLOAD SWAP1 POP SWAP3 SWAP2 POP POP JUMP JUMPDEST PUSH1 0x0 DUP2 DUP2 MSTORE PUSH1 0x1 DUP4 ADD PUSH1 0x20 MSTORE PUSH1 0x40 DUP2 KECCAK256 SLOAD PUSH2 0xA7F JUMPI POP DUP2 SLOAD PUSH1 0x1 DUP2 DUP2 ADD DUP5 SSTORE PUSH1 0x0 DUP5 DUP2 MSTORE PUSH1 0x20 DUP1 DUP3 KECCAK256 SWAP1 SWAP4 ADD DUP5 SWAP1 SSTORE DUP5 SLOAD DUP5 DUP3 MSTORE DUP3 DUP7 ADD SWAP1 SWAP4 MSTORE PUSH1 0x40 SWAP1 KECCAK256 SWAP2 SWAP1 SWAP2 SSTORE PUSH2 0x912 JUMP JUMPDEST POP PUSH1 0x0 PUSH2 0x912 JUMP JUMPDEST PUSH1 0x0 DUP2 DUP2 MSTORE PUSH1 0x1 DUP4 ADD PUSH1 0x20 MSTORE PUSH1 0x40 DUP2 KECCAK256 SLOAD DUP1 ISZERO PUSH2 0xB70 JUMPI PUSH1 0x0 PUSH2 0xAAB PUSH1 0x1 DUP4 PUSH2 0x139F JUMP JUMPDEST DUP6 SLOAD SWAP1 SWAP2 POP PUSH1 0x0 SWAP1 PUSH2 0xABF SWAP1 PUSH1 0x1 SWAP1 PUSH2 0x139F JUMP JUMPDEST SWAP1 POP DUP2 DUP2 EQ PUSH2 0xB24 JUMPI PUSH1 0x0 DUP7 PUSH1 0x0 ADD DUP3 DUP2 SLOAD DUP2 LT PUSH2 0xADF JUMPI PUSH2 0xADF PUSH2 0x1389 JUMP JUMPDEST SWAP1 PUSH1 0x0 MSTORE PUSH1 0x20 PUSH1 0x0 KECCAK256 ADD SLOAD SWAP1 POP DUP1 DUP8 PUSH1 0x0 ADD DUP5 DUP2 SLOAD DUP2 LT PUSH2 0xB02 JUMPI PUSH2 0xB02 PUSH2 0x1389 JUMP JUMPDEST PUSH1 0x0 SWAP2 DUP3 MSTORE PUSH1 0x20 DUP1 DUP4 KECCAK256 SWAP1 SWAP2 ADD SWAP3 SWAP1 SWAP3 SSTORE SWAP2 DUP3 MSTORE PUSH1 0x1 DUP9 ADD SWAP1 MSTORE PUSH1 0x40 SWAP1 KECCAK256 DUP4 SWAP1 SSTORE JUMPDEST DUP6 SLOAD DUP7 SWAP1 DUP1 PUSH2 0xB35 JUMPI PUSH2 0xB35 PUSH2 0x13B2 JUMP JUMPDEST PUSH1 0x1 SWAP1 SUB DUP2 DUP2 SWAP1 PUSH1 0x0 MSTORE PUSH1 0x20 PUSH1 0x0 KECCAK256 ADD PUSH1 0x0 SWAP1 SSTORE SWAP1 SSTORE DUP6 PUSH1 0x1 ADD PUSH1 0x0 DUP7 DUP2 MSTORE PUSH1 0x20 ADD SWAP1 DUP2 MSTORE PUSH1 0x20 ADD PUSH1 0x0 KECCAK256 PUSH1 0x0 SWAP1 SSTORE PUSH1 0x1 SWAP4 POP POP POP POP PUSH2 0x912 JUMP JUMPDEST PUSH1 0x0 SWAP2 POP POP PUSH2 0x912 JUMP JUMPDEST PUSH4 0x4E487B71 PUSH1 0xE0 SHL PUSH1 0x0 MSTORE PUSH1 0x41 PUSH1 0x4 MSTORE PUSH1 0x24 PUSH1 0x0 REVERT JUMPDEST PUSH1 0x40 MLOAD PUSH1 0x80 DUP2 ADD PUSH8 0xFFFFFFFFFFFFFFFF DUP2 GT DUP3 DUP3 LT OR ISZERO PUSH2 0xBB3 JUMPI PUSH2 0xBB3 PUSH2 0xB7A JUMP JUMPDEST PUSH1 0x40 MSTORE SWAP1 JUMP JUMPDEST PUSH1 0x40 DUP1 MLOAD SWAP1 DUP2 ADD PUSH8 0xFFFFFFFFFFFFFFFF DUP2 GT DUP3 DUP3 LT OR ISZERO PUSH2 0xBB3 JUMPI PUSH2 0xBB3 PUSH2 0xB7A JUMP JUMPDEST PUSH1 0x40 MLOAD PUSH2 0x120 DUP2 ADD PUSH8 0xFFFFFFFFFFFFFFFF DUP2 GT DUP3 DUP3 LT OR ISZERO PUSH2 0xBB3 JUMPI PUSH2 0xBB3 PUSH2 0xB7A JUMP JUMPDEST PUSH1 0x40 MLOAD PUSH1 0x1F DUP3 ADD PUSH1 0x1F NOT AND DUP2 ADD PUSH8 0xFFFFFFFFFFFFFFFF DUP2 GT DUP3 DUP3 LT OR ISZERO PUSH2 0xC29 JUMPI PUSH2 0xC29 PUSH2 0xB7A JUMP JUMPDEST PUSH1 0x40 MSTORE SWAP2 SWAP1 POP JUMP JUMPDEST PUSH1 0x0 PUSH8 0xFFFFFFFFFFFFFFFF DUP3 GT ISZERO PUSH2 0xC4B JUMPI PUSH2 0xC4B PUSH2 0xB7A JUMP JUMPDEST POP PUSH1 0x5 SHL PUSH1 0x20 ADD SWAP1 JUMP JUMPDEST PUSH1 0x1 PUSH1 0x1 PUSH1 0xA0 SHL SUB DUP2 AND DUP2 EQ PUSH2 0xC6A JUMPI PUSH1 0x0 DUP1 REVERT JUMPDEST POP JUMP JUMPDEST DUP1 CALLDATALOAD PUSH2 0xC78 DUP2 PUSH2 0xC55 JUMP JUMPDEST SWAP2 SWAP1 POP JUMP JUMPDEST DUP1 CALLDATALOAD PUSH1 0xFF DUP2 AND DUP2 EQ PUSH2 0xC78 JUMPI PUSH1 0x0 DUP1 REVERT JUMPDEST DUP1 CALLDATALOAD PUSH8 0xFFFFFFFFFFFFFFFF DUP2 AND DUP2 EQ PUSH2 0xC78 JUMPI PUSH1 0x0 DUP1 REVERT JUMPDEST PUSH1 0x0 PUSH1 0xE0 DUP3 DUP5 SUB SLT ISZERO PUSH2 0xCB8 JUMPI PUSH1 0x0 DUP1 REVERT JUMPDEST PUSH1 0x40 MLOAD PUSH1 0xE0 DUP2 ADD DUP2 DUP2 LT PUSH8 0xFFFFFFFFFFFFFFFF DUP3 GT OR ISZERO PUSH2 0xCDB JUMPI PUSH2 0xCDB PUSH2 0xB7A JUMP JUMPDEST DUP1 PUSH1 0x40 MSTORE POP DUP1 SWAP2 POP DUP3 CALLDATALOAD DUP2 MSTORE PUSH1 0x20 DUP4 ADD CALLDATALOAD PUSH1 0x20 DUP3 ADD MSTORE PUSH1 0x40 DUP4 ADD CALLDATALOAD PUSH1 0x40 DUP3 ADD MSTORE PUSH1 0x60 DUP4 ADD CALLDATALOAD PUSH1 0x60 DUP3 ADD MSTORE PUSH2 0xD11 PUSH1 0x80 DUP5 ADD PUSH2 0xC8E JUMP JUMPDEST PUSH1 0x80 DUP3 ADD MSTORE PUSH2 0xD22 PUSH1 0xA0 DUP5 ADD PUSH2 0xC8E JUMP JUMPDEST PUSH1 0xA0 DUP3 ADD MSTORE PUSH2 0xD33 PUSH1 0xC0 DUP5 ADD PUSH2 0xC8E JUMP JUMPDEST PUSH1 0xC0 DUP3 ADD MSTORE POP SWAP3 SWAP2 POP POP JUMP JUMPDEST DUP1 CALLDATALOAD DUP1 ISZERO ISZERO DUP2 EQ PUSH2 0xC78 JUMPI PUSH1 0x0 DUP1 REVERT JUMPDEST PUSH1 0x0 DUP3 PUSH1 0x1F DUP4 ADD SLT PUSH2 0xD60 JUMPI PUSH1 0x0 DUP1 REVERT JUMPDEST DUP2 CALLDATALOAD PUSH1 0x20 PUSH2 0xD75 PUSH2 0xD70 DUP4 PUSH2 0xC31 JUMP JUMPDEST PUSH2 0xC00 JUMP JUMPDEST DUP3 DUP2 MSTORE PUSH1 0xA0 SWAP3 DUP4 MUL DUP6 ADD DUP3 ADD SWAP3 DUP3 DUP3 ADD SWAP2 SWAP1 DUP8 DUP6 GT ISZERO PUSH2 0xD94 JUMPI PUSH1 0x0 DUP1 REVERT JUMPDEST DUP4 DUP8 ADD JUMPDEST DUP6 DUP2 LT ISZERO PUSH2 0xE1D JUMPI DUP1 DUP10 SUB DUP3 DUP2 SLT ISZERO PUSH2 0xDB1 JUMPI PUSH1 0x0 DUP1 DUP2 REVERT JUMPDEST PUSH2 0xDB9 PUSH2 0xB90 JUMP JUMPDEST DUP3 CALLDATALOAD PUSH2 0xDC4 DUP2 PUSH2 0xC55 JUMP JUMPDEST DUP2 MSTORE PUSH2 0xDD1 DUP4 DUP9 ADD PUSH2 0xD3F JUMP JUMPDEST DUP8 DUP3 ADD MSTORE PUSH1 0x40 DUP1 DUP5 ADD CALLDATALOAD DUP2 DUP4 ADD MSTORE PUSH1 0x60 DUP2 PUSH1 0x5F NOT DUP6 ADD SLT ISZERO PUSH2 0xDF3 JUMPI PUSH1 0x0 DUP1 DUP2 REVERT JUMPDEST PUSH2 0xDFB PUSH2 0xBB9 JUMP JUMPDEST DUP6 DUP3 ADD CALLDATALOAD DUP2 MSTORE PUSH1 0x80 DUP7 ADD CALLDATALOAD DUP11 DUP3 ADD MSTORE SWAP1 DUP4 ADD MSTORE POP DUP6 MSTORE POP SWAP3 DUP5 ADD SWAP3 DUP2 ADD PUSH2 0xD98 JUMP JUMPDEST POP SWAP1 SWAP8 SWAP7 POP POP POP POP POP POP POP JUMP JUMPDEST PUSH1 0x0 PUSH1 0x20 DUP3 DUP5 SUB SLT ISZERO PUSH2 0xE3C JUMPI PUSH1 0x0 DUP1 REVERT JUMPDEST PUSH8 0xFFFFFFFFFFFFFFFF DUP1 DUP4 CALLDATALOAD GT ISZERO PUSH2 0xE53 JUMPI PUSH1 0x0 DUP1 REVERT JUMPDEST PUSH1 0x40 DUP4 CALLDATALOAD DUP5 ADD DUP6 SUB SLT ISZERO PUSH2 0xE66 JUMPI PUSH1 0x0 DUP1 REVERT JUMPDEST PUSH2 0xE6E PUSH2 0xBB9 JUMP JUMPDEST DUP2 DUP5 CALLDATALOAD DUP6 ADD CALLDATALOAD GT ISZERO PUSH2 0xE7F JUMPI PUSH1 0x0 DUP1 REVERT JUMPDEST DUP4 CALLDATALOAD DUP5 ADD DUP1 CALLDATALOAD ADD PUSH1 0x1F DUP2 ADD DUP7 SGT PUSH2 0xE95 JUMPI PUSH1 0x0 DUP1 REVERT JUMPDEST PUSH2 0xEA2 PUSH2 0xD70 DUP3 CALLDATALOAD PUSH2 0xC31 JUMP JUMPDEST DUP2 CALLDATALOAD DUP1 DUP3 MSTORE PUSH1 0x20 DUP1 DUP4 ADD SWAP3 SWAP2 PUSH1 0x5 SHL DUP5 ADD ADD DUP9 LT ISZERO PUSH2 0xEC0 JUMPI PUSH1 0x0 DUP1 REVERT JUMPDEST PUSH1 0x20 DUP4 ADD JUMPDEST PUSH1 0x20 DUP5 CALLDATALOAD PUSH1 0x5 SHL DUP6 ADD ADD DUP2 LT ISZERO PUSH2 0xFF4 JUMPI DUP6 DUP2 CALLDATALOAD GT ISZERO PUSH2 0xEE4 JUMPI PUSH1 0x0 DUP1 REVERT JUMPDEST DUP1 CALLDATALOAD DUP5 ADD PUSH1 0x1F NOT PUSH1 0x40 DUP3 DUP13 SUB DUP3 ADD SLT ISZERO PUSH2 0xEFD JUMPI PUSH1 0x0 DUP1 REVERT JUMPDEST PUSH2 0xF05 PUSH2 0xBB9 JUMP JUMPDEST DUP9 PUSH1 0x20 DUP5 ADD CALLDATALOAD GT ISZERO PUSH2 0xF16 JUMPI PUSH1 0x0 DUP1 REVERT JUMPDEST PUSH1 0x20 DUP4 ADD CALLDATALOAD DUP4 ADD PUSH2 0x1E0 DUP4 DUP3 DUP16 SUB ADD SLT ISZERO PUSH2 0xF30 JUMPI PUSH1 0x0 DUP1 REVERT JUMPDEST PUSH2 0xF38 PUSH2 0xBDC JUMP JUMPDEST SWAP3 POP PUSH2 0xF46 PUSH1 0x20 DUP3 ADD PUSH2 0xC6D JUMP JUMPDEST DUP4 MSTORE PUSH2 0xF54 PUSH1 0x40 DUP3 ADD PUSH2 0xC7D JUMP JUMPDEST PUSH1 0x20 DUP5 ADD MSTORE PUSH2 0xF65 PUSH1 0x60 DUP3 ADD PUSH2 0xC6D JUMP JUMPDEST PUSH1 0x40 DUP5 ADD MSTORE PUSH1 0x80 DUP2 ADD CALLDATALOAD PUSH1 0x60 DUP5 ADD MSTORE PUSH2 0xF81 DUP14 PUSH1 0xA0 DUP4 ADD PUSH2 0xCA6 JUMP JUMPDEST PUSH1 0x80 DUP5 ADD MSTORE PUSH2 0x180 DUP2 ADD CALLDATALOAD PUSH1 0xA0 DUP5 ADD MSTORE PUSH2 0x1A0 DUP2 ADD CALLDATALOAD PUSH1 0xC0 DUP5 ADD MSTORE PUSH2 0x1C0 DUP2 ADD CALLDATALOAD PUSH1 0xE0 DUP5 ADD MSTORE DUP10 PUSH2 0x1E0 DUP3 ADD CALLDATALOAD GT ISZERO PUSH2 0xFB9 JUMPI PUSH1 0x0 DUP1 REVERT JUMPDEST PUSH2 0xFCD DUP14 PUSH1 0x20 PUSH2 0x1E0 DUP5 ADD CALLDATALOAD DUP5 ADD ADD PUSH2 0xD4F JUMP JUMPDEST PUSH2 0x100 DUP5 ADD MSTORE POP SWAP1 DUP2 MSTORE PUSH1 0x40 SWAP2 SWAP1 SWAP2 ADD CALLDATALOAD PUSH1 0x20 DUP1 DUP4 ADD SWAP2 SWAP1 SWAP2 MSTORE SWAP1 DUP5 MSTORE SWAP3 DUP4 ADD SWAP3 ADD PUSH2 0xEC5 JUMP JUMPDEST POP DUP4 MSTORE POP PUSH2 0x1009 SWAP1 POP DUP5 CALLDATALOAD DUP6 ADD PUSH1 0x20 ADD PUSH2 0xD3F JUMP JUMPDEST PUSH1 0x20 DUP3 ADD MSTORE SWAP5 SWAP4 POP POP POP POP JUMP JUMPDEST PUSH1 0x0 JUMPDEST DUP4 DUP2 LT ISZERO PUSH2 0x1031 JUMPI DUP2 DUP2 ADD MLOAD DUP4 DUP3 ADD MSTORE PUSH1 0x20 ADD PUSH2 0x1019 JUMP JUMPDEST POP POP PUSH1 0x0 SWAP2 ADD MSTORE JUMP JUMPDEST PUSH1 0x20 DUP2 MSTORE PUSH1 0x0 DUP3 MLOAD DUP1 PUSH1 0x20 DUP5 ADD MSTORE PUSH2 0x1059 DUP2 PUSH1 0x40 DUP6 ADD PUSH1 0x20 DUP8 ADD PUSH2 0x1016 JUMP JUMPDEST PUSH1 0x1F ADD PUSH1 0x1F NOT AND SWAP2 SWAP1 SWAP2 ADD PUSH1 0x40 ADD SWAP3 SWAP2 POP POP JUMP JUMPDEST PUSH1 0x0 PUSH1 0x20 DUP3 DUP5 SUB SLT ISZERO PUSH2 0x107F JUMPI PUSH1 0x0 DUP1 REVERT JUMPDEST DUP2 CALLDATALOAD PUSH2 0x92E DUP2 PUSH2 0xC55 JUMP JUMPDEST PUSH1 0x20 DUP1 DUP3 MSTORE DUP3 MLOAD DUP3 DUP3 ADD DUP2 SWAP1 MSTORE PUSH1 0x0 SWAP2 SWAP1 DUP5 DUP3 ADD SWAP1 PUSH1 0x40 DUP6 ADD SWAP1 DUP5 JUMPDEST DUP2 DUP2 LT ISZERO PUSH2 0x10CB JUMPI DUP4 MLOAD PUSH1 0x1 PUSH1 0x1 PUSH1 0xA0 SHL SUB AND DUP4 MSTORE SWAP3 DUP5 ADD SWAP3 SWAP2 DUP5 ADD SWAP2 PUSH1 0x1 ADD PUSH2 0x10A6 JUMP JUMPDEST POP SWAP1 SWAP7 SWAP6 POP POP POP POP POP POP JUMP JUMPDEST PUSH1 0x0 DUP2 MLOAD DUP1 DUP5 MSTORE PUSH1 0x20 DUP1 DUP6 ADD SWAP5 POP DUP1 DUP5 ADD PUSH1 0x0 JUMPDEST DUP4 DUP2 LT ISZERO PUSH2 0x113F JUMPI DUP2 MLOAD DUP1 MLOAD PUSH1 0x1 PUSH1 0x1 PUSH1 0xA0 SHL SUB AND DUP9 MSTORE DUP4 DUP2 ADD MLOAD ISZERO ISZERO DUP5 DUP10 ADD MSTORE PUSH1 0x40 DUP1 DUP3 ADD MLOAD SWAP1 DUP10 ADD MSTORE PUSH1 0x60 SWAP1 DUP2 ADD MLOAD DUP1 MLOAD SWAP2 DUP10 ADD SWAP2 SWAP1 SWAP2 MSTORE DUP4 ADD MLOAD PUSH1 0x80 DUP9 ADD MSTORE PUSH1 0xA0 SWAP1 SWAP7 ADD SWAP6 SWAP1 DUP3 ADD SWAP1 PUSH1 0x1 ADD PUSH2 0x10EB JUMP JUMPDEST POP SWAP5 SWAP6 SWAP5 POP POP POP POP POP JUMP JUMPDEST PUSH1 0x0 PUSH1 0x20 DUP1 DUP4 MSTORE PUSH1 0x60 DUP1 DUP5 ADD DUP6 MLOAD PUSH1 0x40 DUP1 DUP6 DUP9 ADD MSTORE DUP3 DUP3 MLOAD DUP1 DUP6 MSTORE PUSH1 0x80 SWAP5 POP DUP5 DUP10 ADD SWAP2 POP DUP5 DUP2 PUSH1 0x5 SHL DUP11 ADD ADD DUP8 DUP6 ADD SWAP5 POP PUSH1 0x0 JUMPDEST DUP3 DUP2 LT ISZERO PUSH2 0x128E JUMPI DUP11 DUP3 SUB PUSH1 0x7F NOT ADD DUP5 MSTORE DUP6 MLOAD DUP1 MLOAD DUP7 DUP5 MSTORE DUP1 MLOAD PUSH1 0x1 PUSH1 0x1 PUSH1 0xA0 SHL SUB AND DUP8 DUP6 ADD MSTORE DUP1 DUP12 ADD MLOAD PUSH1 0xFF DUP2 AND DUP6 DUP13 ADD MSTORE POP DUP1 DUP8 ADD MLOAD PUSH1 0x1 PUSH1 0x1 PUSH1 0xA0 SHL SUB DUP2 AND DUP6 DUP12 ADD MSTORE POP DUP1 DUP11 ADD MLOAD PUSH1 0xA0 DUP6 DUP2 ADD SWAP2 SWAP1 SWAP2 MSTORE DUP10 DUP3 ADD MLOAD DUP1 MLOAD PUSH1 0xC0 DUP1 DUP9 ADD SWAP2 SWAP1 SWAP2 MSTORE PUSH1 0x20 DUP3 ADD MLOAD PUSH1 0xE0 DUP9 ADD MSTORE PUSH1 0x40 DUP3 ADD MLOAD PUSH2 0x100 DUP9 ADD MSTORE PUSH1 0x60 DUP3 ADD MLOAD PUSH2 0x120 DUP9 ADD MSTORE PUSH1 0x80 DUP3 ADD MLOAD PUSH8 0xFFFFFFFFFFFFFFFF SWAP1 DUP2 AND PUSH2 0x140 DUP10 ADD MSTORE DUP3 DUP5 ADD MLOAD DUP2 AND PUSH2 0x160 DUP10 ADD MSTORE DUP2 DUP4 ADD MLOAD AND PUSH2 0x180 DUP9 ADD MSTORE SWAP1 SWAP2 DUP4 ADD MLOAD PUSH2 0x1A0 DUP8 ADD MSTORE DUP3 ADD MLOAD PUSH2 0x1C0 DUP7 ADD MSTORE POP PUSH1 0xE0 DUP2 ADD MLOAD PUSH2 0x1E0 DUP1 DUP7 ADD SWAP2 SWAP1 SWAP2 MSTORE PUSH2 0x100 SWAP1 SWAP2 ADD MLOAD PUSH2 0x200 DUP6 ADD SWAP2 SWAP1 SWAP2 MSTORE PUSH2 0x1271 PUSH2 0x220 DUP6 ADD DUP3 PUSH2 0x10D7 JUMP JUMPDEST SWAP2 DUP12 ADD MLOAD SWAP4 DUP12 ADD SWAP4 SWAP1 SWAP4 MSTORE SWAP6 DUP10 ADD SWAP6 SWAP4 DUP10 ADD SWAP4 SWAP2 POP PUSH1 0x1 ADD PUSH2 0x117E JUMP JUMPDEST POP SWAP7 DUP11 ADD MLOAD DUP1 ISZERO ISZERO DUP5 DUP12 ADD MSTORE SWAP7 SWAP11 SWAP10 POP POP POP POP POP POP POP POP POP POP JUMP JUMPDEST PUSH4 0x4E487B71 PUSH1 0xE0 SHL PUSH1 0x0 MSTORE PUSH1 0x11 PUSH1 0x4 MSTORE PUSH1 0x24 PUSH1 0x0 REVERT JUMPDEST PUSH1 0x0 PUSH1 0x1 DUP3 ADD PUSH2 0x12D1 JUMPI PUSH2 0x12D1 PUSH2 0x12A9 JUMP JUMPDEST POP PUSH1 0x1 ADD SWAP1 JUMP JUMPDEST PUSH1 0x0 PUSH1 0x20 DUP3 DUP5 SUB SLT ISZERO PUSH2 0x12EA JUMPI PUSH1 0x0 DUP1 REVERT JUMPDEST DUP2 MLOAD PUSH8 0xFFFFFFFFFFFFFFFF DUP1 DUP3 GT ISZERO PUSH2 0x1302 JUMPI PUSH1 0x0 DUP1 REVERT JUMPDEST DUP2 DUP5 ADD SWAP2 POP DUP5 PUSH1 0x1F DUP4 ADD SLT PUSH2 0x1316 JUMPI PUSH1 0x0 DUP1 REVERT JUMPDEST DUP2 MLOAD DUP2 DUP2 GT ISZERO PUSH2 0x1328 JUMPI PUSH2 0x1328 PUSH2 0xB7A JUMP JUMPDEST PUSH2 0x133B PUSH1 0x1F DUP3 ADD PUSH1 0x1F NOT AND PUSH1 0x20 ADD PUSH2 0xC00 JUMP JUMPDEST SWAP2 POP DUP1 DUP3 MSTORE DUP6 PUSH1 0x20 DUP3 DUP6 ADD ADD GT ISZERO PUSH2 0x1352 JUMPI PUSH1 0x0 DUP1 REVERT JUMPDEST PUSH2 0x1363 DUP2 PUSH1 0x20 DUP5 ADD PUSH1 0x20 DUP7 ADD PUSH2 0x1016 JUMP JUMPDEST POP SWAP5 SWAP4 POP POP POP POP JUMP JUMPDEST PUSH1 0x0 PUSH1 0x20 DUP3 DUP5 SUB SLT ISZERO PUSH2 0x137E JUMPI PUSH1 0x0 DUP1 REVERT JUMPDEST DUP2 MLOAD PUSH2 0x92E DUP2 PUSH2 0xC55 JUMP JUMPDEST PUSH4 0x4E487B71 PUSH1 0xE0 SHL PUSH1 0x0 MSTORE PUSH1 0x32 PUSH1 0x4 MSTORE PUSH1 0x24 PUSH1 0x0 REVERT JUMPDEST DUP2 DUP2 SUB DUP2 DUP2 GT ISZERO PUSH2 0x912 JUMPI PUSH2 0x912 PUSH2 0x12A9 JUMP JUMPDEST PUSH4 0x4E487B71 PUSH1 0xE0 SHL PUSH1 0x0 MSTORE PUSH1 0x31 PUSH1 0x4 MSTORE PUSH1 0x24 PUSH1 0x0 REVERT INVALID LOG2 PUSH5 0x6970667358 0x22 SLT KECCAK256 0xF9 0xF6 0x26 DUP16 0xBF 0xC1 0x2E SELFDESTRUCT ADD 0xCC 0xCA 0x2B SWAP7 DUP16 0xAC 0xDC EXTCODECOPY SWAP14 SWAP10 PUSH30 0xF58715983B3C148E6A0CE29F64736F6C6343000811003300000000000000 ","sha1":"3d7c1d26ec42d32e5c332a7d07d98b309320c76c","source":"// SPDX-License-Identifier: LicenseRef-Gyro-1.0\n// for information on licensing please see the README in the GitHub repository <https://github.com/gyrostable/core-protocol>.\npragma solidity ^0.8.4;\n\nimport \"@openzeppelin/contracts/utils/structs/EnumerableSet.sol\";\n\nimport \"../../interfaces/ISafetyCheck.sol\";\nimport \"../../interfaces/IGyroConfig.sol\";\n\nimport \"../../libraries/EnumerableExtensions.sol\";\nimport \"../../libraries/Errors.sol\";\nimport \"../../libraries/ConfigHelpers.sol\";\n\nimport \"../auth/Governable.sol\";\n\ncontract RootSafetyCheck is ISafetyCheck, Governable {\n    using EnumerableSet for EnumerableSet.AddressSet;\n    using EnumerableExtensions for EnumerableSet.AddressSet;\n    using ConfigHelpers for IGyroConfig;\n\n    event CheckAdded(address indexed check);\n    event CheckRemoved(address indexed check);\n\n    EnumerableSet.AddressSet internal _checks;\n\n    IGyroConfig public immutable gyroConfig;\n\n    modifier motherboardOnly() {\n        require(msg.sender == address(gyroConfig.getMotherboard()), Errors.NOT_AUTHORIZED);\n        _;\n    }\n\n    constructor(address _governor, IGyroConfig _gyroConfig) Governable(_governor) {\n        require(address(_gyroConfig) != address(0), Errors.INVALID_ARGUMENT);\n        gyroConfig = _gyroConfig;\n    }\n\n    /// @return all the checks registered\n    function getChecks() public view returns (address[] memory) {\n        return _checks.toArray();\n    }\n\n    /// @notice adds a check to be performed\n    function addCheck(address check) external governanceOnly {\n        require(_checks.add(check), Errors.INVALID_ARGUMENT);\n        emit CheckAdded(check);\n    }\n\n    /// @notice removes a check to be performed\n    function removeCheck(address check) external governanceOnly {\n        require(_checks.remove(check), Errors.INVALID_ARGUMENT);\n        emit CheckRemoved(check);\n    }\n\n    /// @inheritdoc ISafetyCheck\n    function isMintSafe(DataTypes.Order memory order)\n        external\n        view\n        override\n        returns (string memory err)\n    {\n        uint256 length = _checks.length();\n        for (uint256 i = 0; i < length; i++) {\n            err = ISafetyCheck(_checks.at(i)).isMintSafe(order);\n            if (bytes(err).length > 0) {\n                break;\n            }\n        }\n    }\n\n    /// @inheritdoc ISafetyCheck\n    function isRedeemSafe(DataTypes.Order memory order)\n        external\n        view\n        override\n        returns (string memory err)\n    {\n        uint256 length = _checks.length();\n        for (uint256 i = 0; i < length; i++) {\n            err = ISafetyCheck(_checks.at(i)).isRedeemSafe(order);\n            if (bytes(err).length > 0) {\n                break;\n            }\n        }\n    }\n\n    /// @inheritdoc ISafetyCheck\n    function checkAndPersistMint(DataTypes.Order memory order) external override motherboardOnly {\n        uint256 length = _checks.length();\n        for (uint256 i = 0; i < length; i++) {\n            ISafetyCheck(_checks.at(i)).checkAndPersistMint(order);\n        }\n    }\n\n    /// @inheritdoc ISafetyCheck\n    function checkAndPersistRedeem(DataTypes.Order memory order) external override motherboardOnly {\n        uint256 length = _checks.length();\n        for (uint256 i = 0; i < length; i++) {\n            ISafetyCheck(_checks.at(i)).checkAndPersistRedeem(order);\n        }\n    }\n}\n","sourcePath":"contracts/safety/RootSafetyCheck.sol","type":"contract","deployment":{"address":"0x56773CA4A4138F21128d23ADB237004697273789","chainid":"1","blockHeight":18387888}}