{"abi":[{"inputs":[{"internalType":"address","name":"governor","type":"address"},{"internalType":"contract IGyroConfig","name":"_gyroConfig","type":"address"}],"stateMutability":"nonpayable","type":"constructor","name":"constructor"},{"anonymous":false,"inputs":[{"indexed":false,"internalType":"address","name":"newGovernor","type":"address"}],"name":"GovernorChangeRequested","type":"event"},{"anonymous":false,"inputs":[{"indexed":false,"internalType":"address","name":"oldGovernor","type":"address"},{"indexed":false,"internalType":"address","name":"newGovernor","type":"address"}],"name":"GovernorChanged","type":"event"},{"anonymous":false,"inputs":[{"indexed":true,"internalType":"address","name":"oldOracle","type":"address"},{"indexed":true,"internalType":"address","name":"newOracle","type":"address"}],"name":"NewPriceOracle","type":"event"},{"anonymous":false,"inputs":[{"indexed":true,"internalType":"address","name":"oldManager","type":"address"},{"indexed":true,"internalType":"address","name":"newManager","type":"address"}],"name":"NewVaultWeightManager","type":"event"},{"inputs":[],"name":"DEFAULT_VAULT_DUST_THRESHOLD","outputs":[{"internalType":"uint256","name":"","type":"uint256"}],"stateMutability":"view","type":"function"},{"inputs":[],"name":"acceptGovernance","outputs":[],"stateMutability":"nonpayable","type":"function"},{"inputs":[],"name":"assetRegistry","outputs":[{"internalType":"contract IAssetRegistry","name":"","type":"address"}],"stateMutability":"view","type":"function"},{"inputs":[{"internalType":"address","name":"newGovernor","type":"address"}],"name":"changeGovernor","outputs":[],"stateMutability":"nonpayable","type":"function"},{"inputs":[],"name":"getReserveState","outputs":[{"components":[{"internalType":"uint256","name":"totalUSDValue","type":"uint256"},{"components":[{"internalType":"address","name":"vault","type":"address"},{"internalType":"uint8","name":"decimals","type":"uint8"},{"internalType":"address","name":"underlying","type":"address"},{"internalType":"uint256","name":"price","type":"uint256"},{"components":[{"internalType":"uint256","name":"priceAtCalibration","type":"uint256"},{"internalType":"uint256","name":"weightAtCalibration","type":"uint256"},{"internalType":"uint256","name":"shortFlowMemory","type":"uint256"},{"internalType":"uint256","name":"shortFlowThreshold","type":"uint256"},{"internalType":"uint64","name":"weightTransitionDuration","type":"uint64"},{"internalType":"uint64","name":"weightAtPreviousCalibration","type":"uint64"},{"internalType":"uint64","name":"timeOfCalibration","type":"uint64"}],"internalType":"struct DataTypes.PersistedVaultMetadata","name":"persistedMetadata","type":"tuple"},{"internalType":"uint256","name":"reserveBalance","type":"uint256"},{"internalType":"uint256","name":"currentWeight","type":"uint256"},{"internalType":"uint256","name":"targetWeight","type":"uint256"},{"components":[{"internalType":"address","name":"tokenAddress","type":"address"},{"internalType":"bool","name":"isStable","type":"bool"},{"internalType":"uint256","name":"price","type":"uint256"},{"components":[{"internalType":"uint256","name":"floor","type":"uint256"},{"internalType":"uint256","name":"ceiling","type":"uint256"}],"internalType":"struct DataTypes.Range","name":"priceRange","type":"tuple"}],"internalType":"struct DataTypes.PricedToken[]","name":"pricedTokens","type":"tuple[]"}],"internalType":"struct DataTypes.VaultInfo[]","name":"vaults","type":"tuple[]"}],"internalType":"struct DataTypes.ReserveState","name":"","type":"tuple"}],"stateMutability":"view","type":"function"},{"inputs":[],"name":"governor","outputs":[{"internalType":"address","name":"","type":"address"}],"stateMutability":"view","type":"function"},{"inputs":[],"name":"gyroConfig","outputs":[{"internalType":"contract IGyroConfig","name":"","type":"address"}],"stateMutability":"view","type":"function"},{"inputs":[],"name":"pendingGovernor","outputs":[{"internalType":"address","name":"","type":"address"}],"stateMutability":"view","type":"function"},{"inputs":[],"name":"reserveAddress","outputs":[{"internalType":"address","name":"","type":"address"}],"stateMutability":"view","type":"function"},{"inputs":[{"components":[{"internalType":"address","name":"vaultAddress","type":"address"},{"components":[{"internalType":"uint256","name":"priceAtCalibration","type":"uint256"},{"internalType":"uint256","name":"weightAtCalibration","type":"uint256"},{"internalType":"uint256","name":"shortFlowMemory","type":"uint256"},{"internalType":"uint256","name":"shortFlowThreshold","type":"uint256"},{"internalType":"uint64","name":"weightTransitionDuration","type":"uint64"},{"internalType":"uint64","name":"weightAtPreviousCalibration","type":"uint64"},{"internalType":"uint64","name":"timeOfCalibration","type":"uint64"}],"internalType":"struct DataTypes.PersistedVaultMetadata","name":"metadata","type":"tuple"}],"internalType":"struct DataTypes.VaultConfiguration[]","name":"vaults","type":"tuple[]"}],"name":"setVaults","outputs":[],"stateMutability":"nonpayable","type":"function"},{"inputs":[],"name":"vaultRegistry","outputs":[{"internalType":"contract IVaultRegistry","name":"","type":"address"}],"stateMutability":"view","type":"function"}],"bytecode":"6101006040523480156200001257600080fd5b506040516200264738038062002647833981016040819052620000359162000277565b600080546001600160a01b0319166001600160a01b038416908117825560408051928352602083019190915283917fde4b3f61490b74c0ed6237523974fe299126bbbf8a8a7482fd220104c59b0c84910160405180910390a150620000ae816001600160a01b03166200013760201b6200105f1760201c565b6001600160a01b03166080816001600160a01b031681525050620000e6816001600160a01b0316620001cc60201b620010ea1760201c565b6001600160a01b031660a0816001600160a01b0316815250506200011e816001600160a01b03166200021c60201b620011321760201c565b6001600160a01b0390811660c0521660e05250620002dd565b6040516321f8a72160e01b81527f5641554c545f52454749535452595f414444524553530000000000000000000060048201526000906001600160a01b038316906321f8a721906024015b602060405180830381865afa158015620001a0573d6000803e3d6000fd5b505050506040513d601f19601f82011682018060405250810190620001c69190620002b6565b92915050565b6040516321f8a72160e01b81527f41535345545f52454749535452595f414444524553530000000000000000000060048201526000906001600160a01b038316906321f8a7219060240162000182565b6040516321f8a72160e01b81526e524553455256455f4144445245535360881b60048201526000906001600160a01b038316906321f8a7219060240162000182565b6001600160a01b03811681146200027457600080fd5b50565b600080604083850312156200028b57600080fd5b825162000298816200025e565b6020840151909250620002ab816200025e565b809150509250929050565b600060208284031215620002c957600080fd5b8151620002d6816200025e565b9392505050565b60805160a05160c05160e0516122f96200034e6000396000818160ed01528181610c2a01526115950152600081816101ce01526106ee01526000818161011401528181610882015261095c01526000818161016c01528181610362015281816104bd015261060301526122f96000f3fe608060405234801561001057600080fd5b50600436106100a95760003560e01c8063b6ccbd2811610071578063b6ccbd2814610149578063cdd7b38a14610167578063e3056a341461018e578063e4c0aaf4146101a1578063ef5bac25146101b4578063f79ed94b146101c957600080fd5b80630c340a24146100ae578063238efcbc146100de57806344bbdb55146100e8578063979d7e861461010f5780639c5887ed14610136575b600080fd5b6000546100c1906001600160a01b031681565b6040516001600160a01b0390911681526020015b60405180910390f35b6100e66101f0565b005b6100c17f000000000000000000000000000000000000000000000000000000000000000081565b6100c17f000000000000000000000000000000000000000000000000000000000000000081565b6100e66101443660046116f5565b6102a9565b610159681b1ae4d6e2ef50000081565b6040519081526020016100d5565b6100c17f000000000000000000000000000000000000000000000000000000000000000081565b6001546100c1906001600160a01b031681565b6100e66101af366004611781565b6103cf565b6101bc6104a4565b6040516100d5919061193c565b6100c17f000000000000000000000000000000000000000000000000000000000000000081565b600154604080518082019091526002815261033360f41b6020820152906001600160a01b0316331461023e5760405162461bcd60e51b81526004016102359190611961565b60405180910390fd5b5060008054600180546001600160a01b03198084166001600160a01b03808416919091179095551690556040805192909116808352336020840152917fde4b3f61490b74c0ed6237523974fe299126bbbf8a8a7482fd220104c59b0c8491015b60405180910390a150565b600054604080518082019091526002815261033360f41b6020820152906001600160a01b031633146102ee5760405162461bcd60e51b81526004016102359190611961565b5061034b8282808060200260200160405190810160405280939291908181526020016000905b82821015610341576103326101008302860136819003810190611a99565b81526020019060010190610314565b5050505050611173565b604051639c5887ed60e01b81526001600160a01b037f00000000000000000000000000000000000000000000000000000000000000001690639c5887ed906103999085908590600401611b4b565b600060405180830381600087803b1580156103b357600080fd5b505af11580156103c7573d6000803e3d6000fd5b505050505050565b600054604080518082019091526002815261033360f41b6020820152906001600160a01b031633146104145760405162461bcd60e51b81526004016102359190611961565b50604080518082019091526002815261333160f01b60208201526001600160a01b0382166104555760405162461bcd60e51b81526004016102359190611961565b50600180546001600160a01b0319166001600160a01b0383169081179091556040519081527f67235ba2e63c748a35b95c4f92a3bbc2a1389938170a5ce6c9add5d0b03a314a9060200161029e565b60408051808201909152600081526060602082015260007f00000000000000000000000000000000000000000000000000000000000000006001600160a01b03166350cc258e6040518163ffffffff1660e01b8152600401600060405180830381865afa158015610519573d6000803e3d6000fd5b505050506040513d6000823e601f3d908101601f191682016040526105419190810190611c47565b905080516000036105965760408051808201825260008082528251818152602081810190945291928301919061058d565b61057a611636565b8152602001906001900390816105725790505b50905292915050565b80516000816001600160401b038111156105b2576105b26119af565b6040519080825280602002602001820160405280156105eb57816020015b6105d8611636565b8152602001906001900390816105d05790505b50905060005b82811015610c245761060161169d565b7f00000000000000000000000000000000000000000000000000000000000000006001600160a01b031663dc4f1e4986848151811061064257610642611ce5565b60200260200101516040518263ffffffff1660e01b815260040161067591906001600160a01b0391909116815260200190565b60e060405180830381865afa158015610692573d6000803e3d6000fd5b505050506040513d601f19601f820116820180604052508101906106b69190611d78565b905060008583815181106106cc576106cc611ce5565b60209081029190910101516040516370a0823160e01b81526001600160a01b037f0000000000000000000000000000000000000000000000000000000000000000811660048301529192506000918316906370a0823190602401602060405180830381865afa158015610743573d6000803e3d6000fd5b505050506040513d601f19601f820116820180604052508101906107679190611d94565b9050600087858151811061077d5761077d611ce5565b60200260200101516001600160a01b031663aa6ca8086040518163ffffffff1660e01b8152600401600060405180830381865afa1580156107c2573d6000803e3d6000fd5b505050506040513d6000823e601f3d908101601f191682016040526107ea9190810190611dad565b9050600081516001600160401b03811115610807576108076119af565b60405190808252806020026020018201604052801561086f57816020015b61085c6040805160808101825260008082526020808301829052828401829052835180850190945281845283015290606082015290565b8152602001906001900390816108255790505b50905060005b8251811015610a895760007f00000000000000000000000000000000000000000000000000000000000000006001600160a01b0316634976c5888584815181106108c1576108c1611ce5565b60200260200101516040518263ffffffff1660e01b81526004016108f491906001600160a01b0391909116815260200190565b602060405180830381865afa158015610911573d6000803e3d6000fd5b505050506040513d601f19601f820116820180604052508101906109359190611e4b565b9050610954604051806040016040528060008152602001600081525090565b8115610a11577f00000000000000000000000000000000000000000000000000000000000000006001600160a01b031663a8dcc56a86858151811061099b5761099b611ce5565b60200260200101516040518263ffffffff1660e01b81526004016109ce91906001600160a01b0391909116815260200190565b6040805180830381865afa1580156109ea573d6000803e3d6000fd5b505050506040513d601f19601f82011682018060405250810190610a0e9190611e96565b90505b6040518060800160405280868581518110610a2e57610a2e611ce5565b60200260200101516001600160a01b0316815260200183151581526020016000815260200182815250848481518110610a6957610a69611ce5565b602002602001018190525050508080610a8190611ec8565b915050610875565b506040518061012001604052808a8881518110610aa857610aa8611ce5565b60200260200101516001600160a01b031681526020018a8881518110610ad057610ad0611ce5565b60200260200101516001600160a01b031663313ce5676040518163ffffffff1660e01b8152600401602060405180830381865afa158015610b15573d6000803e3d6000fd5b505050506040513d601f19601f82011682018060405250810190610b399190611ef2565b60ff1681526020018a8881518110610b5357610b53611ce5565b60200260200101516001600160a01b0316636f307dc36040518163ffffffff1660e01b8152600401602060405180830381865afa158015610b98573d6000803e3d6000fd5b505050506040513d601f19601f82011682018060405250810190610bbc9190611f0d565b6001600160a01b0316815260200160008152602001868152602001848152602001600081526020016000815260200182815250878781518110610c0157610c01611ce5565b602002602001018190525050505050508080610c1c90611ec8565b9150506105f1565b50610c577f00000000000000000000000000000000000000000000000000000000000000006001600160a01b031661120f565b6001600160a01b031663f379c0c3826040518263ffffffff1660e01b8152600401610c829190611f2a565b600060405180830381865afa158015610c9f573d6000803e3d6000fd5b505050506040513d6000823e601f3d908101601f19168201604052610cc79190810190611fe6565b9050600080836001600160401b03811115610ce457610ce46119af565b604051908082528060200260200182016040528015610d0d578160200160208202803683370190505b50905060005b84811015610dcc576000848281518110610d2f57610d2f611ce5565b602002602001015190506000610d5682602001518360a0015161125e90919063ffffffff16565b90506000610d8a82888681518110610d7057610d70611ce5565b6020026020010151606001516112c690919063ffffffff16565b905080858581518110610d9f57610d9f611ce5565b6020908102919091010152610db48187612142565b95505050508080610dc490611ec8565b915050610d13565b5060005b84811015610e68578215610e0f57610e0a83838381518110610df457610df4611ce5565b60200260200101516112ef90919063ffffffff16565b610e35565b610e35848281518110610e2457610e24611ce5565b602002602001015160800151611362565b848281518110610e4757610e47611ce5565b602090810291909101015160c0015280610e6081611ec8565b915050610dd0565b50600080856001600160401b03811115610e8457610e846119af565b604051908082528060200260200182016040528015610ead578160200160208202803683370190505b50905060005b86811015610f88576000868281518110610ecf57610ecf611ce5565b602002602001015160800151600001519050610f2f610ef9888481518110610e2457610e24611ce5565b610f29838a8681518110610f0f57610f0f611ce5565b6020026020010151606001516112ef90919063ffffffff16565b906112c6565b838381518110610f4157610f41611ce5565b602002602001018181525050828281518110610f5f57610f5f611ce5565b602002602001015184610f729190612142565b9350508080610f8090611ec8565b915050610eb3565b50811561103e576000805b8781101561103b576000610fc985858481518110610fb357610fb3611ce5565b602002602001015161144c90919063ffffffff16565b9050670de0b6b3a7640000610fde8285612142565b1115610ff957610ff683670de0b6b3a7640000612155565b90505b8088838151811061100c5761100c611ce5565b602090810291909101015160e001526110258184612142565b925050808061103390611ec8565b915050610f93565b50505b60405180604001604052808581526020018681525097505050505050505090565b6040516321f8a72160e01b8152755641554c545f52454749535452595f4144445245535360501b60048201526000906001600160a01b038316906321f8a721906024015b602060405180830381865afa1580156110c0573d6000803e3d6000fd5b505050506040513d601f19601f820116820180604052508101906110e49190611f0d565b92915050565b6040516321f8a72160e01b81527541535345545f52454749535452595f4144445245535360501b60048201526000906001600160a01b038316906321f8a721906024016110a3565b6040516321f8a72160e01b81526e524553455256455f4144445245535360881b60048201526000906001600160a01b038316906321f8a721906024016110a3565b600061117d6104a4565b905060005b81602001515181101561120a576000826020015182815181106111a7576111a7611ce5565b602002602001015190506111bb81856114cb565b1560405180604001604052806002815260200161353960f01b815250906111f55760405162461bcd60e51b81526004016102359190611961565b5050808061120290611ec8565b915050611182565b505050565b6040516321f8a72160e01b81527f524f4f545f50524943455f4f5241434c455f414444524553530000000000000060048201526000906001600160a01b038316906321f8a721906024016110a3565b600060111960ff8316016112735750816110e4565b601260ff831611156112a65761128a601283612168565b61129590600a612265565b61129f908461228a565b90506110e4565b6112b1826012612168565b6112bc90600a612265565b61129f90846122ac565b6000806112d383856122ac565b90506112e7670de0b6b3a76400008261228a565b949350505050565b604080518082019091526002815261323560f01b6020820152600090826113295760405162461bcd60e51b81526004016102359190611961565b508260000361133a575060006110e4565b600061134e670de0b6b3a7640000856122ac565b905061135a838261228a565b9150506110e4565b6000808260c001516001600160401b03164261137e9190612155565b905082608001516001600160401b0316811061139d5750506020015190565b60006113bf84608001516001600160401b0316836112ef90919063ffffffff16565b905060006113e78560a001516001600160401b0316866020015161160c90919063ffffffff16565b905060006113f582846112c6565b90508560a001516001600160401b03168660200151111561143357808660a001516001600160401b03166114299190612142565b9695505050505050565b808660a001516001600160401b03166114299190612155565b604080518082019091526002815261323560f01b6020820152600090826114865760405162461bcd60e51b81526004016102359190611961565b5082600003611497575060006110e4565b60006114ab670de0b6b3a7640000856122ac565b90508260018203816114bf576114bf612274565b046001019150506110e4565b6000805b825181101561152e578281815181106114ea576114ea611ce5565b6020026020010151600001516001600160a01b031684600001516001600160a01b03160361151c5760009150506110e4565b8061152681611ec8565b9150506114cf565b50600061154c8460a0015185606001516112c690919063ffffffff16565b60405163e964da1560e01b815273159055531517d11554d517d512149154d213d31160621b6004820152681b1ae4d6e2ef50000060248201529091506000906001600160a01b037f0000000000000000000000000000000000000000000000000000000000000000169063e964da1590604401602060405180830381865afa1580156115dc573d6000803e3d6000fd5b505050506040513d601f19601f820116820180604052508101906116009190611d94565b90911015949350505050565b600081831015611625576116208383612155565b61162f565b61162f8284612155565b9392505050565b60405180610120016040528060006001600160a01b03168152602001600060ff16815260200160006001600160a01b031681526020016000815260200161167b61169d565b8152602001600081526020016000815260200160008152602001606081525090565b6040518060e001604052806000815260200160008152602001600081526020016000815260200160006001600160401b0316815260200160006001600160401b0316815260200160006001600160401b031681525090565b6000806020838503121561170857600080fd5b82356001600160401b038082111561171f57600080fd5b818501915085601f83011261173357600080fd5b81358181111561174257600080fd5b8660208260081b850101111561175757600080fd5b60209290920196919550909350505050565b6001600160a01b038116811461177e57600080fd5b50565b60006020828403121561179357600080fd5b813561162f81611769565b600081518084526020808501945080840160005b8381101561180657815180516001600160a01b031688528381015115158489015260408082015190890152606090810151805191890191909152830151608088015260a090960195908201906001016117b2565b509495945050505050565b600081518084526020808501808196508360051b8101915082860160005b8581101561192f578284038952815180516001600160a01b031685526101e08187015160ff811687890152506040828101516001600160a01b038116888301525050606082810151908701526080808301516118dd828901828051825260208101516020830152604081015160408301526060810151606083015260808101516001600160401b0380821660808501528060a08401511660a08501528060c08401511660c085015250505050565b505060a082015161016087015260c082015161018087015260e08201516101a08701526101008201519150806101c087015261191b8187018361179e565b9a87019a955050509084019060010161182f565b5091979650505050505050565b6020815281516020820152600060208301516040808401526112e76060840182611811565b600060208083528351808285015260005b8181101561198e57858101830151858201604001528201611972565b506000604082860101526040601f19601f8301168501019250505092915050565b634e487b7160e01b600052604160045260246000fd5b604080519081016001600160401b03811182821017156119e7576119e76119af565b60405290565b60405160e081016001600160401b03811182821017156119e7576119e76119af565b604051608081016001600160401b03811182821017156119e7576119e76119af565b60405161012081016001600160401b03811182821017156119e7576119e76119af565b604051601f8201601f191681016001600160401b0381118282101715611a7c57611a7c6119af565b604052919050565b6001600160401b038116811461177e57600080fd5b6000818303610100811215611aad57600080fd5b611ab56119c5565b8335611ac081611769565b815260e0601f1983011215611ad457600080fd5b611adc6119ed565b91506020840135825260408401356020830152606084013560408301526080840135606083015260a0840135611b1181611a84565b608083015260c0840135611b2481611a84565b60a083015260e0840135611b3781611a84565b60c083015260208101919091529392505050565b6020808252818101839052600090604080840186845b87811015611c07578135611b7481611769565b6001600160a01b0316835281850135858401528382013584840152606080830135908401526080808301359084015260a082810135611bb281611a84565b6001600160401b038082168387015260c09250828501359150611bd482611a84565b8082168387015260e09250828501359150611bee82611a84565b1690840152610100928301929190910190600101611b61565b5090979650505050505050565b60006001600160401b03821115611c2d57611c2d6119af565b5060051b60200190565b8051611c4281611769565b919050565b60006020808385031215611c5a57600080fd5b82516001600160401b03811115611c7057600080fd5b8301601f81018513611c8157600080fd5b8051611c94611c8f82611c14565b611a54565b81815260059190911b82018301908381019087831115611cb357600080fd5b928401925b82841015611cda578351611ccb81611769565b82529284019290840190611cb8565b979650505050505050565b634e487b7160e01b600052603260045260246000fd5b600060e08284031215611d0d57600080fd5b611d156119ed565b9050815181526020820151602082015260408201516040820152606082015160608201526080820151611d4781611a84565b608082015260a0820151611d5a81611a84565b60a082015260c0820151611d6d81611a84565b60c082015292915050565b600060e08284031215611d8a57600080fd5b61162f8383611cfb565b600060208284031215611da657600080fd5b5051919050565b60006020808385031215611dc057600080fd5b82516001600160401b03811115611dd657600080fd5b8301601f81018513611de757600080fd5b8051611df5611c8f82611c14565b81815260059190911b82018301908381019087831115611e1457600080fd5b928401925b82841015611cda578351611e2c81611769565b82529284019290840190611e19565b80518015158114611c4257600080fd5b600060208284031215611e5d57600080fd5b61162f82611e3b565b600060408284031215611e7857600080fd5b611e806119c5565b9050815181526020820151602082015292915050565b600060408284031215611ea857600080fd5b61162f8383611e66565b634e487b7160e01b600052601160045260246000fd5b600060018201611eda57611eda611eb2565b5060010190565b805160ff81168114611c4257600080fd5b600060208284031215611f0457600080fd5b61162f82611ee1565b600060208284031215611f1f57600080fd5b815161162f81611769565b60208152600061162f6020830184611811565b600082601f830112611f4e57600080fd5b81516020611f5e611c8f83611c14565b82815260a09283028501820192828201919087851115611f7d57600080fd5b8387015b85811015611c075781818a031215611f995760008081fd5b611fa1611a0f565b8151611fac81611769565b8152611fb9828701611e3b565b81870152604082810151908201526060611fd58b828501611e66565b908201528452928401928101611f81565b60006020808385031215611ff957600080fd5b82516001600160401b038082111561201057600080fd5b818501915085601f83011261202457600080fd5b8151612032611c8f82611c14565b81815260059190911b8301840190848101908883111561205157600080fd5b8585015b838110156121355780518581111561206d5760008081fd5b86016101e0818c03601f19018113156120865760008081fd5b61208e611a31565b6120998a8401611c37565b815260406120a8818501611ee1565b8b83015260606120b9818601611c37565b828401526080915081850151818401525060a06120d88f828701611cfb565b828401526101808501518184015250506101a083015160c08201526101c083015160e0820152818301519150878211156121125760008081fd5b6121208d8b84860101611f3d565b61010082015285525050918601918601612055565b5098975050505050505050565b808201808211156110e4576110e4611eb2565b818103818111156110e4576110e4611eb2565b60ff82811682821603908111156110e4576110e4611eb2565b600181815b808511156121bc5781600019048211156121a2576121a2611eb2565b808516156121af57918102915b93841c9390800290612186565b509250929050565b6000826121d3575060016110e4565b816121e0575060006110e4565b81600181146121f657600281146122005761221c565b60019150506110e4565b60ff84111561221157612211611eb2565b50506001821b6110e4565b5060208310610133831016604e8410600b841016171561223f575081810a6110e4565b6122498383612181565b806000190482111561225d5761225d611eb2565b029392505050565b600061162f60ff8416836121c4565b634e487b7160e01b600052601260045260246000fd5b6000826122a757634e487b7160e01b600052601260045260246000fd5b500490565b80820281158282048414176110e4576110e4611eb256fea26469706673582212206a2365d0ecc67dfea6b068b9881e9600cfc12239c8d4f214af5f5bacfb1da99564736f6c63430008110033","bytecodeSha1":"76b2a535e8cd4bf99b3328c248f4473ba406b48d","compiler":{"evm_version":"london","optimizer":{"enabled":true,"runs":200},"version":"0.8.17+commit.8df45f5f"},"contractName":"ReserveManager","language":"Solidity","natspec":{"kind":"dev","methods":{"acceptGovernance()":{"notice":"Called by the pending governor to approve the change"},"changeGovernor(address)":{"notice":"Changes the governor can only be called by the current governor"},"getReserveState()":{"notice":"Returns a list of vaults including metadata such as price and weights"},"governor()":{"notice":"Returns the current governor"},"pendingGovernor()":{"notice":"Returns the pending governor"}},"version":1},"opcodes":"PUSH1 0x80 PUSH1 0x40 MSTORE CALLVALUE DUP1 ISZERO PUSH2 0x10 JUMPI PUSH1 0x0 DUP1 REVERT JUMPDEST POP PUSH1 0x4 CALLDATASIZE LT PUSH2 0xA9 JUMPI PUSH1 0x0 CALLDATALOAD PUSH1 0xE0 SHR DUP1 PUSH4 0xB6CCBD28 GT PUSH2 0x71 JUMPI DUP1 PUSH4 0xB6CCBD28 EQ PUSH2 0x149 JUMPI DUP1 PUSH4 0xCDD7B38A EQ PUSH2 0x167 JUMPI DUP1 PUSH4 0xE3056A34 EQ PUSH2 0x18E JUMPI DUP1 PUSH4 0xE4C0AAF4 EQ PUSH2 0x1A1 JUMPI DUP1 PUSH4 0xEF5BAC25 EQ PUSH2 0x1B4 JUMPI DUP1 PUSH4 0xF79ED94B EQ PUSH2 0x1C9 JUMPI PUSH1 0x0 DUP1 REVERT JUMPDEST DUP1 PUSH4 0xC340A24 EQ PUSH2 0xAE JUMPI DUP1 PUSH4 0x238EFCBC EQ PUSH2 0xDE JUMPI DUP1 PUSH4 0x44BBDB55 EQ PUSH2 0xE8 JUMPI DUP1 PUSH4 0x979D7E86 EQ PUSH2 0x10F JUMPI DUP1 PUSH4 0x9C5887ED EQ PUSH2 0x136 JUMPI JUMPDEST PUSH1 0x0 DUP1 REVERT JUMPDEST PUSH1 0x0 SLOAD PUSH2 0xC1 SWAP1 PUSH1 0x1 PUSH1 0x1 PUSH1 0xA0 SHL SUB AND DUP2 JUMP JUMPDEST PUSH1 0x40 MLOAD PUSH1 0x1 PUSH1 0x1 PUSH1 0xA0 SHL SUB SWAP1 SWAP2 AND DUP2 MSTORE PUSH1 0x20 ADD JUMPDEST PUSH1 0x40 MLOAD DUP1 SWAP2 SUB SWAP1 RETURN JUMPDEST PUSH2 0xE6 PUSH2 0x1F0 JUMP JUMPDEST STOP JUMPDEST PUSH2 0xC1 PUSH32 0x0 DUP2 JUMP JUMPDEST PUSH2 0xC1 PUSH32 0x0 DUP2 JUMP JUMPDEST PUSH2 0xE6 PUSH2 0x144 CALLDATASIZE PUSH1 0x4 PUSH2 0x16F5 JUMP JUMPDEST PUSH2 0x2A9 JUMP JUMPDEST PUSH2 0x159 PUSH9 0x1B1AE4D6E2EF500000 DUP2 JUMP JUMPDEST PUSH1 0x40 MLOAD SWAP1 DUP2 MSTORE PUSH1 0x20 ADD PUSH2 0xD5 JUMP JUMPDEST PUSH2 0xC1 PUSH32 0x0 DUP2 JUMP JUMPDEST PUSH1 0x1 SLOAD PUSH2 0xC1 SWAP1 PUSH1 0x1 PUSH1 0x1 PUSH1 0xA0 SHL SUB AND DUP2 JUMP JUMPDEST PUSH2 0xE6 PUSH2 0x1AF CALLDATASIZE PUSH1 0x4 PUSH2 0x1781 JUMP JUMPDEST PUSH2 0x3CF JUMP JUMPDEST PUSH2 0x1BC PUSH2 0x4A4 JUMP JUMPDEST PUSH1 0x40 MLOAD PUSH2 0xD5 SWAP2 SWAP1 PUSH2 0x193C JUMP JUMPDEST PUSH2 0xC1 PUSH32 0x0 DUP2 JUMP JUMPDEST PUSH1 0x1 SLOAD PUSH1 0x40 DUP1 MLOAD DUP1 DUP3 ADD SWAP1 SWAP2 MSTORE PUSH1 0x2 DUP2 MSTORE PUSH2 0x333 PUSH1 0xF4 SHL PUSH1 0x20 DUP3 ADD MSTORE SWAP1 PUSH1 0x1 PUSH1 0x1 PUSH1 0xA0 SHL SUB AND CALLER EQ PUSH2 0x23E JUMPI PUSH1 0x40 MLOAD PUSH3 0x461BCD PUSH1 0xE5 SHL DUP2 MSTORE PUSH1 0x4 ADD PUSH2 0x235 SWAP2 SWAP1 PUSH2 0x1961 JUMP JUMPDEST PUSH1 0x40 MLOAD DUP1 SWAP2 SUB SWAP1 REVERT JUMPDEST POP PUSH1 0x0 DUP1 SLOAD PUSH1 0x1 DUP1 SLOAD PUSH1 0x1 PUSH1 0x1 PUSH1 0xA0 SHL SUB NOT DUP1 DUP5 AND PUSH1 0x1 PUSH1 0x1 PUSH1 0xA0 SHL SUB DUP1 DUP5 AND SWAP2 SWAP1 SWAP2 OR SWAP1 SWAP6 SSTORE AND SWAP1 SSTORE PUSH1 0x40 DUP1 MLOAD SWAP3 SWAP1 SWAP2 AND DUP1 DUP4 MSTORE CALLER PUSH1 0x20 DUP5 ADD MSTORE SWAP2 PUSH32 0xDE4B3F61490B74C0ED6237523974FE299126BBBF8A8A7482FD220104C59B0C84 SWAP2 ADD JUMPDEST PUSH1 0x40 MLOAD DUP1 SWAP2 SUB SWAP1 LOG1 POP JUMP JUMPDEST PUSH1 0x0 SLOAD PUSH1 0x40 DUP1 MLOAD DUP1 DUP3 ADD SWAP1 SWAP2 MSTORE PUSH1 0x2 DUP2 MSTORE PUSH2 0x333 PUSH1 0xF4 SHL PUSH1 0x20 DUP3 ADD MSTORE SWAP1 PUSH1 0x1 PUSH1 0x1 PUSH1 0xA0 SHL SUB AND CALLER EQ PUSH2 0x2EE JUMPI PUSH1 0x40 MLOAD PUSH3 0x461BCD PUSH1 0xE5 SHL DUP2 MSTORE PUSH1 0x4 ADD PUSH2 0x235 SWAP2 SWAP1 PUSH2 0x1961 JUMP JUMPDEST POP PUSH2 0x34B DUP3 DUP3 DUP1 DUP1 PUSH1 0x20 MUL PUSH1 0x20 ADD PUSH1 0x40 MLOAD SWAP1 DUP2 ADD PUSH1 0x40 MSTORE DUP1 SWAP4 SWAP3 SWAP2 SWAP1 DUP2 DUP2 MSTORE PUSH1 0x20 ADD PUSH1 0x0 SWAP1 JUMPDEST DUP3 DUP3 LT ISZERO PUSH2 0x341 JUMPI PUSH2 0x332 PUSH2 0x100 DUP4 MUL DUP7 ADD CALLDATASIZE DUP2 SWAP1 SUB DUP2 ADD SWAP1 PUSH2 0x1A99 JUMP JUMPDEST DUP2 MSTORE PUSH1 0x20 ADD SWAP1 PUSH1 0x1 ADD SWAP1 PUSH2 0x314 JUMP JUMPDEST POP POP POP POP POP PUSH2 0x1173 JUMP JUMPDEST PUSH1 0x40 MLOAD PUSH4 0x9C5887ED PUSH1 0xE0 SHL DUP2 MSTORE PUSH1 0x1 PUSH1 0x1 PUSH1 0xA0 SHL SUB PUSH32 0x0 AND SWAP1 PUSH4 0x9C5887ED SWAP1 PUSH2 0x399 SWAP1 DUP6 SWAP1 DUP6 SWAP1 PUSH1 0x4 ADD PUSH2 0x1B4B JUMP JUMPDEST PUSH1 0x0 PUSH1 0x40 MLOAD DUP1 DUP4 SUB DUP2 PUSH1 0x0 DUP8 DUP1 EXTCODESIZE ISZERO DUP1 ISZERO PUSH2 0x3B3 JUMPI PUSH1 0x0 DUP1 REVERT JUMPDEST POP GAS CALL ISZERO DUP1 ISZERO PUSH2 0x3C7 JUMPI RETURNDATASIZE PUSH1 0x0 DUP1 RETURNDATACOPY RETURNDATASIZE PUSH1 0x0 REVERT JUMPDEST POP POP POP POP POP POP JUMP JUMPDEST PUSH1 0x0 SLOAD PUSH1 0x40 DUP1 MLOAD DUP1 DUP3 ADD SWAP1 SWAP2 MSTORE PUSH1 0x2 DUP2 MSTORE PUSH2 0x333 PUSH1 0xF4 SHL PUSH1 0x20 DUP3 ADD MSTORE SWAP1 PUSH1 0x1 PUSH1 0x1 PUSH1 0xA0 SHL SUB AND CALLER EQ PUSH2 0x414 JUMPI PUSH1 0x40 MLOAD PUSH3 0x461BCD PUSH1 0xE5 SHL DUP2 MSTORE PUSH1 0x4 ADD PUSH2 0x235 SWAP2 SWAP1 PUSH2 0x1961 JUMP JUMPDEST POP PUSH1 0x40 DUP1 MLOAD DUP1 DUP3 ADD SWAP1 SWAP2 MSTORE PUSH1 0x2 DUP2 MSTORE PUSH2 0x3331 PUSH1 0xF0 SHL PUSH1 0x20 DUP3 ADD MSTORE PUSH1 0x1 PUSH1 0x1 PUSH1 0xA0 SHL SUB DUP3 AND PUSH2 0x455 JUMPI PUSH1 0x40 MLOAD PUSH3 0x461BCD PUSH1 0xE5 SHL DUP2 MSTORE PUSH1 0x4 ADD PUSH2 0x235 SWAP2 SWAP1 PUSH2 0x1961 JUMP JUMPDEST POP PUSH1 0x1 DUP1 SLOAD PUSH1 0x1 PUSH1 0x1 PUSH1 0xA0 SHL SUB NOT AND PUSH1 0x1 PUSH1 0x1 PUSH1 0xA0 SHL SUB DUP4 AND SWAP1 DUP2 OR SWAP1 SWAP2 SSTORE PUSH1 0x40 MLOAD SWAP1 DUP2 MSTORE PUSH32 0x67235BA2E63C748A35B95C4F92A3BBC2A1389938170A5CE6C9ADD5D0B03A314A SWAP1 PUSH1 0x20 ADD PUSH2 0x29E JUMP JUMPDEST PUSH1 0x40 DUP1 MLOAD DUP1 DUP3 ADD SWAP1 SWAP2 MSTORE PUSH1 0x0 DUP2 MSTORE PUSH1 0x60 PUSH1 0x20 DUP3 ADD MSTORE PUSH1 0x0 PUSH32 0x0 PUSH1 0x1 PUSH1 0x1 PUSH1 0xA0 SHL SUB AND PUSH4 0x50CC258E PUSH1 0x40 MLOAD DUP2 PUSH4 0xFFFFFFFF AND PUSH1 0xE0 SHL DUP2 MSTORE PUSH1 0x4 ADD PUSH1 0x0 PUSH1 0x40 MLOAD DUP1 DUP4 SUB DUP2 DUP7 GAS STATICCALL ISZERO DUP1 ISZERO PUSH2 0x519 JUMPI RETURNDATASIZE PUSH1 0x0 DUP1 RETURNDATACOPY RETURNDATASIZE PUSH1 0x0 REVERT JUMPDEST POP POP POP POP PUSH1 0x40 MLOAD RETURNDATASIZE PUSH1 0x0 DUP3 RETURNDATACOPY PUSH1 0x1F RETURNDATASIZE SWAP1 DUP2 ADD PUSH1 0x1F NOT AND DUP3 ADD PUSH1 0x40 MSTORE PUSH2 0x541 SWAP2 SWAP1 DUP2 ADD SWAP1 PUSH2 0x1C47 JUMP JUMPDEST SWAP1 POP DUP1 MLOAD PUSH1 0x0 SUB PUSH2 0x596 JUMPI PUSH1 0x40 DUP1 MLOAD DUP1 DUP3 ADD DUP3 MSTORE PUSH1 0x0 DUP1 DUP3 MSTORE DUP3 MLOAD DUP2 DUP2 MSTORE PUSH1 0x20 DUP2 DUP2 ADD SWAP1 SWAP5 MSTORE SWAP2 SWAP3 DUP4 ADD SWAP2 SWAP1 PUSH2 0x58D JUMP JUMPDEST PUSH2 0x57A PUSH2 0x1636 JUMP JUMPDEST DUP2 MSTORE PUSH1 0x20 ADD SWAP1 PUSH1 0x1 SWAP1 SUB SWAP1 DUP2 PUSH2 0x572 JUMPI SWAP1 POP JUMPDEST POP SWAP1 MSTORE SWAP3 SWAP2 POP POP JUMP JUMPDEST DUP1 MLOAD PUSH1 0x0 DUP2 PUSH1 0x1 PUSH1 0x1 PUSH1 0x40 SHL SUB DUP2 GT ISZERO PUSH2 0x5B2 JUMPI PUSH2 0x5B2 PUSH2 0x19AF JUMP JUMPDEST PUSH1 0x40 MLOAD SWAP1 DUP1 DUP3 MSTORE DUP1 PUSH1 0x20 MUL PUSH1 0x20 ADD DUP3 ADD PUSH1 0x40 MSTORE DUP1 ISZERO PUSH2 0x5EB JUMPI DUP2 PUSH1 0x20 ADD JUMPDEST PUSH2 0x5D8 PUSH2 0x1636 JUMP JUMPDEST DUP2 MSTORE PUSH1 0x20 ADD SWAP1 PUSH1 0x1 SWAP1 SUB SWAP1 DUP2 PUSH2 0x5D0 JUMPI SWAP1 POP JUMPDEST POP SWAP1 POP PUSH1 0x0 JUMPDEST DUP3 DUP2 LT ISZERO PUSH2 0xC24 JUMPI PUSH2 0x601 PUSH2 0x169D JUMP JUMPDEST PUSH32 0x0 PUSH1 0x1 PUSH1 0x1 PUSH1 0xA0 SHL SUB AND PUSH4 0xDC4F1E49 DUP7 DUP5 DUP2 MLOAD DUP2 LT PUSH2 0x642 JUMPI PUSH2 0x642 PUSH2 0x1CE5 JUMP JUMPDEST PUSH1 0x20 MUL PUSH1 0x20 ADD ADD MLOAD PUSH1 0x40 MLOAD DUP3 PUSH4 0xFFFFFFFF AND PUSH1 0xE0 SHL DUP2 MSTORE PUSH1 0x4 ADD PUSH2 0x675 SWAP2 SWAP1 PUSH1 0x1 PUSH1 0x1 PUSH1 0xA0 SHL SUB SWAP2 SWAP1 SWAP2 AND DUP2 MSTORE PUSH1 0x20 ADD SWAP1 JUMP JUMPDEST PUSH1 0xE0 PUSH1 0x40 MLOAD DUP1 DUP4 SUB DUP2 DUP7 GAS STATICCALL ISZERO DUP1 ISZERO PUSH2 0x692 JUMPI RETURNDATASIZE PUSH1 0x0 DUP1 RETURNDATACOPY RETURNDATASIZE PUSH1 0x0 REVERT JUMPDEST POP POP POP POP PUSH1 0x40 MLOAD RETURNDATASIZE PUSH1 0x1F NOT PUSH1 0x1F DUP3 ADD AND DUP3 ADD DUP1 PUSH1 0x40 MSTORE POP DUP2 ADD SWAP1 PUSH2 0x6B6 SWAP2 SWAP1 PUSH2 0x1D78 JUMP JUMPDEST SWAP1 POP PUSH1 0x0 DUP6 DUP4 DUP2 MLOAD DUP2 LT PUSH2 0x6CC JUMPI PUSH2 0x6CC PUSH2 0x1CE5 JUMP JUMPDEST PUSH1 0x20 SWAP1 DUP2 MUL SWAP2 SWAP1 SWAP2 ADD ADD MLOAD PUSH1 0x40 MLOAD PUSH4 0x70A08231 PUSH1 0xE0 SHL DUP2 MSTORE PUSH1 0x1 PUSH1 0x1 PUSH1 0xA0 SHL SUB PUSH32 0x0 DUP2 AND PUSH1 0x4 DUP4 ADD MSTORE SWAP2 SWAP3 POP PUSH1 0x0 SWAP2 DUP4 AND SWAP1 PUSH4 0x70A08231 SWAP1 PUSH1 0x24 ADD PUSH1 0x20 PUSH1 0x40 MLOAD DUP1 DUP4 SUB DUP2 DUP7 GAS STATICCALL ISZERO DUP1 ISZERO PUSH2 0x743 JUMPI RETURNDATASIZE PUSH1 0x0 DUP1 RETURNDATACOPY RETURNDATASIZE PUSH1 0x0 REVERT JUMPDEST POP POP POP POP PUSH1 0x40 MLOAD RETURNDATASIZE PUSH1 0x1F NOT PUSH1 0x1F DUP3 ADD AND DUP3 ADD DUP1 PUSH1 0x40 MSTORE POP DUP2 ADD SWAP1 PUSH2 0x767 SWAP2 SWAP1 PUSH2 0x1D94 JUMP JUMPDEST SWAP1 POP PUSH1 0x0 DUP8 DUP6 DUP2 MLOAD DUP2 LT PUSH2 0x77D JUMPI PUSH2 0x77D PUSH2 0x1CE5 JUMP JUMPDEST PUSH1 0x20 MUL PUSH1 0x20 ADD ADD MLOAD PUSH1 0x1 PUSH1 0x1 PUSH1 0xA0 SHL SUB AND PUSH4 0xAA6CA808 PUSH1 0x40 MLOAD DUP2 PUSH4 0xFFFFFFFF AND PUSH1 0xE0 SHL DUP2 MSTORE PUSH1 0x4 ADD PUSH1 0x0 PUSH1 0x40 MLOAD DUP1 DUP4 SUB DUP2 DUP7 GAS STATICCALL ISZERO DUP1 ISZERO PUSH2 0x7C2 JUMPI RETURNDATASIZE PUSH1 0x0 DUP1 RETURNDATACOPY RETURNDATASIZE PUSH1 0x0 REVERT JUMPDEST POP POP POP POP PUSH1 0x40 MLOAD RETURNDATASIZE PUSH1 0x0 DUP3 RETURNDATACOPY PUSH1 0x1F RETURNDATASIZE SWAP1 DUP2 ADD PUSH1 0x1F NOT AND DUP3 ADD PUSH1 0x40 MSTORE PUSH2 0x7EA SWAP2 SWAP1 DUP2 ADD SWAP1 PUSH2 0x1DAD JUMP JUMPDEST SWAP1 POP PUSH1 0x0 DUP2 MLOAD PUSH1 0x1 PUSH1 0x1 PUSH1 0x40 SHL SUB DUP2 GT ISZERO PUSH2 0x807 JUMPI PUSH2 0x807 PUSH2 0x19AF JUMP JUMPDEST PUSH1 0x40 MLOAD SWAP1 DUP1 DUP3 MSTORE DUP1 PUSH1 0x20 MUL PUSH1 0x20 ADD DUP3 ADD PUSH1 0x40 MSTORE DUP1 ISZERO PUSH2 0x86F JUMPI DUP2 PUSH1 0x20 ADD JUMPDEST PUSH2 0x85C PUSH1 0x40 DUP1 MLOAD PUSH1 0x80 DUP2 ADD DUP3 MSTORE PUSH1 0x0 DUP1 DUP3 MSTORE PUSH1 0x20 DUP1 DUP4 ADD DUP3 SWAP1 MSTORE DUP3 DUP5 ADD DUP3 SWAP1 MSTORE DUP4 MLOAD DUP1 DUP6 ADD SWAP1 SWAP5 MSTORE DUP2 DUP5 MSTORE DUP4 ADD MSTORE SWAP1 PUSH1 0x60 DUP3 ADD MSTORE SWAP1 JUMP JUMPDEST DUP2 MSTORE PUSH1 0x20 ADD SWAP1 PUSH1 0x1 SWAP1 SUB SWAP1 DUP2 PUSH2 0x825 JUMPI SWAP1 POP JUMPDEST POP SWAP1 POP PUSH1 0x0 JUMPDEST DUP3 MLOAD DUP2 LT ISZERO PUSH2 0xA89 JUMPI PUSH1 0x0 PUSH32 0x0 PUSH1 0x1 PUSH1 0x1 PUSH1 0xA0 SHL SUB AND PUSH4 0x4976C588 DUP6 DUP5 DUP2 MLOAD DUP2 LT PUSH2 0x8C1 JUMPI PUSH2 0x8C1 PUSH2 0x1CE5 JUMP JUMPDEST PUSH1 0x20 MUL PUSH1 0x20 ADD ADD MLOAD PUSH1 0x40 MLOAD DUP3 PUSH4 0xFFFFFFFF AND PUSH1 0xE0 SHL DUP2 MSTORE PUSH1 0x4 ADD PUSH2 0x8F4 SWAP2 SWAP1 PUSH1 0x1 PUSH1 0x1 PUSH1 0xA0 SHL SUB SWAP2 SWAP1 SWAP2 AND DUP2 MSTORE PUSH1 0x20 ADD SWAP1 JUMP JUMPDEST PUSH1 0x20 PUSH1 0x40 MLOAD DUP1 DUP4 SUB DUP2 DUP7 GAS STATICCALL ISZERO DUP1 ISZERO PUSH2 0x911 JUMPI RETURNDATASIZE PUSH1 0x0 DUP1 RETURNDATACOPY RETURNDATASIZE PUSH1 0x0 REVERT JUMPDEST POP POP POP POP PUSH1 0x40 MLOAD RETURNDATASIZE PUSH1 0x1F NOT PUSH1 0x1F DUP3 ADD AND DUP3 ADD DUP1 PUSH1 0x40 MSTORE POP DUP2 ADD SWAP1 PUSH2 0x935 SWAP2 SWAP1 PUSH2 0x1E4B JUMP JUMPDEST SWAP1 POP PUSH2 0x954 PUSH1 0x40 MLOAD DUP1 PUSH1 0x40 ADD PUSH1 0x40 MSTORE DUP1 PUSH1 0x0 DUP2 MSTORE PUSH1 0x20 ADD PUSH1 0x0 DUP2 MSTORE POP SWAP1 JUMP JUMPDEST DUP2 ISZERO PUSH2 0xA11 JUMPI PUSH32 0x0 PUSH1 0x1 PUSH1 0x1 PUSH1 0xA0 SHL SUB AND PUSH4 0xA8DCC56A DUP7 DUP6 DUP2 MLOAD DUP2 LT PUSH2 0x99B JUMPI PUSH2 0x99B PUSH2 0x1CE5 JUMP JUMPDEST PUSH1 0x20 MUL PUSH1 0x20 ADD ADD MLOAD PUSH1 0x40 MLOAD DUP3 PUSH4 0xFFFFFFFF AND PUSH1 0xE0 SHL DUP2 MSTORE PUSH1 0x4 ADD PUSH2 0x9CE SWAP2 SWAP1 PUSH1 0x1 PUSH1 0x1 PUSH1 0xA0 SHL SUB SWAP2 SWAP1 SWAP2 AND DUP2 MSTORE PUSH1 0x20 ADD SWAP1 JUMP JUMPDEST PUSH1 0x40 DUP1 MLOAD DUP1 DUP4 SUB DUP2 DUP7 GAS STATICCALL ISZERO DUP1 ISZERO PUSH2 0x9EA JUMPI RETURNDATASIZE PUSH1 0x0 DUP1 RETURNDATACOPY RETURNDATASIZE PUSH1 0x0 REVERT JUMPDEST POP POP POP POP PUSH1 0x40 MLOAD RETURNDATASIZE PUSH1 0x1F NOT PUSH1 0x1F DUP3 ADD AND DUP3 ADD DUP1 PUSH1 0x40 MSTORE POP DUP2 ADD SWAP1 PUSH2 0xA0E SWAP2 SWAP1 PUSH2 0x1E96 JUMP JUMPDEST SWAP1 POP JUMPDEST PUSH1 0x40 MLOAD DUP1 PUSH1 0x80 ADD PUSH1 0x40 MSTORE DUP1 DUP7 DUP6 DUP2 MLOAD DUP2 LT PUSH2 0xA2E JUMPI PUSH2 0xA2E PUSH2 0x1CE5 JUMP JUMPDEST PUSH1 0x20 MUL PUSH1 0x20 ADD ADD MLOAD PUSH1 0x1 PUSH1 0x1 PUSH1 0xA0 SHL SUB AND DUP2 MSTORE PUSH1 0x20 ADD DUP4 ISZERO ISZERO DUP2 MSTORE PUSH1 0x20 ADD PUSH1 0x0 DUP2 MSTORE PUSH1 0x20 ADD DUP3 DUP2 MSTORE POP DUP5 DUP5 DUP2 MLOAD DUP2 LT PUSH2 0xA69 JUMPI PUSH2 0xA69 PUSH2 0x1CE5 JUMP JUMPDEST PUSH1 0x20 MUL PUSH1 0x20 ADD ADD DUP2 SWAP1 MSTORE POP POP POP DUP1 DUP1 PUSH2 0xA81 SWAP1 PUSH2 0x1EC8 JUMP JUMPDEST SWAP2 POP POP PUSH2 0x875 JUMP JUMPDEST POP PUSH1 0x40 MLOAD DUP1 PUSH2 0x120 ADD PUSH1 0x40 MSTORE DUP1 DUP11 DUP9 DUP2 MLOAD DUP2 LT PUSH2 0xAA8 JUMPI PUSH2 0xAA8 PUSH2 0x1CE5 JUMP JUMPDEST PUSH1 0x20 MUL PUSH1 0x20 ADD ADD MLOAD PUSH1 0x1 PUSH1 0x1 PUSH1 0xA0 SHL SUB AND DUP2 MSTORE PUSH1 0x20 ADD DUP11 DUP9 DUP2 MLOAD DUP2 LT PUSH2 0xAD0 JUMPI PUSH2 0xAD0 PUSH2 0x1CE5 JUMP JUMPDEST PUSH1 0x20 MUL PUSH1 0x20 ADD ADD MLOAD PUSH1 0x1 PUSH1 0x1 PUSH1 0xA0 SHL SUB AND PUSH4 0x313CE567 PUSH1 0x40 MLOAD DUP2 PUSH4 0xFFFFFFFF AND PUSH1 0xE0 SHL DUP2 MSTORE PUSH1 0x4 ADD PUSH1 0x20 PUSH1 0x40 MLOAD DUP1 DUP4 SUB DUP2 DUP7 GAS STATICCALL ISZERO DUP1 ISZERO PUSH2 0xB15 JUMPI RETURNDATASIZE PUSH1 0x0 DUP1 RETURNDATACOPY RETURNDATASIZE PUSH1 0x0 REVERT JUMPDEST POP POP POP POP PUSH1 0x40 MLOAD RETURNDATASIZE PUSH1 0x1F NOT PUSH1 0x1F DUP3 ADD AND DUP3 ADD DUP1 PUSH1 0x40 MSTORE POP DUP2 ADD SWAP1 PUSH2 0xB39 SWAP2 SWAP1 PUSH2 0x1EF2 JUMP JUMPDEST PUSH1 0xFF AND DUP2 MSTORE PUSH1 0x20 ADD DUP11 DUP9 DUP2 MLOAD DUP2 LT PUSH2 0xB53 JUMPI PUSH2 0xB53 PUSH2 0x1CE5 JUMP JUMPDEST PUSH1 0x20 MUL PUSH1 0x20 ADD ADD MLOAD PUSH1 0x1 PUSH1 0x1 PUSH1 0xA0 SHL SUB AND PUSH4 0x6F307DC3 PUSH1 0x40 MLOAD DUP2 PUSH4 0xFFFFFFFF AND PUSH1 0xE0 SHL DUP2 MSTORE PUSH1 0x4 ADD PUSH1 0x20 PUSH1 0x40 MLOAD DUP1 DUP4 SUB DUP2 DUP7 GAS STATICCALL ISZERO DUP1 ISZERO PUSH2 0xB98 JUMPI RETURNDATASIZE PUSH1 0x0 DUP1 RETURNDATACOPY RETURNDATASIZE PUSH1 0x0 REVERT JUMPDEST POP POP POP POP PUSH1 0x40 MLOAD RETURNDATASIZE PUSH1 0x1F NOT PUSH1 0x1F DUP3 ADD AND DUP3 ADD DUP1 PUSH1 0x40 MSTORE POP DUP2 ADD SWAP1 PUSH2 0xBBC SWAP2 SWAP1 PUSH2 0x1F0D JUMP JUMPDEST PUSH1 0x1 PUSH1 0x1 PUSH1 0xA0 SHL SUB AND DUP2 MSTORE PUSH1 0x20 ADD PUSH1 0x0 DUP2 MSTORE PUSH1 0x20 ADD DUP7 DUP2 MSTORE PUSH1 0x20 ADD DUP5 DUP2 MSTORE PUSH1 0x20 ADD PUSH1 0x0 DUP2 MSTORE PUSH1 0x20 ADD PUSH1 0x0 DUP2 MSTORE PUSH1 0x20 ADD DUP3 DUP2 MSTORE POP DUP8 DUP8 DUP2 MLOAD DUP2 LT PUSH2 0xC01 JUMPI PUSH2 0xC01 PUSH2 0x1CE5 JUMP JUMPDEST PUSH1 0x20 MUL PUSH1 0x20 ADD ADD DUP2 SWAP1 MSTORE POP POP POP POP POP POP DUP1 DUP1 PUSH2 0xC1C SWAP1 PUSH2 0x1EC8 JUMP JUMPDEST SWAP2 POP POP PUSH2 0x5F1 JUMP JUMPDEST POP PUSH2 0xC57 PUSH32 0x0 PUSH1 0x1 PUSH1 0x1 PUSH1 0xA0 SHL SUB AND PUSH2 0x120F JUMP JUMPDEST PUSH1 0x1 PUSH1 0x1 PUSH1 0xA0 SHL SUB AND PUSH4 0xF379C0C3 DUP3 PUSH1 0x40 MLOAD DUP3 PUSH4 0xFFFFFFFF AND PUSH1 0xE0 SHL DUP2 MSTORE PUSH1 0x4 ADD PUSH2 0xC82 SWAP2 SWAP1 PUSH2 0x1F2A JUMP JUMPDEST PUSH1 0x0 PUSH1 0x40 MLOAD DUP1 DUP4 SUB DUP2 DUP7 GAS STATICCALL ISZERO DUP1 ISZERO PUSH2 0xC9F JUMPI RETURNDATASIZE PUSH1 0x0 DUP1 RETURNDATACOPY RETURNDATASIZE PUSH1 0x0 REVERT JUMPDEST POP POP POP POP PUSH1 0x40 MLOAD RETURNDATASIZE PUSH1 0x0 DUP3 RETURNDATACOPY PUSH1 0x1F RETURNDATASIZE SWAP1 DUP2 ADD PUSH1 0x1F NOT AND DUP3 ADD PUSH1 0x40 MSTORE PUSH2 0xCC7 SWAP2 SWAP1 DUP2 ADD SWAP1 PUSH2 0x1FE6 JUMP JUMPDEST SWAP1 POP PUSH1 0x0 DUP1 DUP4 PUSH1 0x1 PUSH1 0x1 PUSH1 0x40 SHL SUB DUP2 GT ISZERO PUSH2 0xCE4 JUMPI PUSH2 0xCE4 PUSH2 0x19AF JUMP JUMPDEST PUSH1 0x40 MLOAD SWAP1 DUP1 DUP3 MSTORE DUP1 PUSH1 0x20 MUL PUSH1 0x20 ADD DUP3 ADD PUSH1 0x40 MSTORE DUP1 ISZERO PUSH2 0xD0D JUMPI DUP2 PUSH1 0x20 ADD PUSH1 0x20 DUP3 MUL DUP1 CALLDATASIZE DUP4 CALLDATACOPY ADD SWAP1 POP JUMPDEST POP SWAP1 POP PUSH1 0x0 JUMPDEST DUP5 DUP2 LT ISZERO PUSH2 0xDCC JUMPI PUSH1 0x0 DUP5 DUP3 DUP2 MLOAD DUP2 LT PUSH2 0xD2F JUMPI PUSH2 0xD2F PUSH2 0x1CE5 JUMP JUMPDEST PUSH1 0x20 MUL PUSH1 0x20 ADD ADD MLOAD SWAP1 POP PUSH1 0x0 PUSH2 0xD56 DUP3 PUSH1 0x20 ADD MLOAD DUP4 PUSH1 0xA0 ADD MLOAD PUSH2 0x125E SWAP1 SWAP2 SWAP1 PUSH4 0xFFFFFFFF AND JUMP JUMPDEST SWAP1 POP PUSH1 0x0 PUSH2 0xD8A DUP3 DUP9 DUP7 DUP2 MLOAD DUP2 LT PUSH2 0xD70 JUMPI PUSH2 0xD70 PUSH2 0x1CE5 JUMP JUMPDEST PUSH1 0x20 MUL PUSH1 0x20 ADD ADD MLOAD PUSH1 0x60 ADD MLOAD PUSH2 0x12C6 SWAP1 SWAP2 SWAP1 PUSH4 0xFFFFFFFF AND JUMP JUMPDEST SWAP1 POP DUP1 DUP6 DUP6 DUP2 MLOAD DUP2 LT PUSH2 0xD9F JUMPI PUSH2 0xD9F PUSH2 0x1CE5 JUMP JUMPDEST PUSH1 0x20 SWAP1 DUP2 MUL SWAP2 SWAP1 SWAP2 ADD ADD MSTORE PUSH2 0xDB4 DUP2 DUP8 PUSH2 0x2142 JUMP JUMPDEST SWAP6 POP POP POP POP DUP1 DUP1 PUSH2 0xDC4 SWAP1 PUSH2 0x1EC8 JUMP JUMPDEST SWAP2 POP POP PUSH2 0xD13 JUMP JUMPDEST POP PUSH1 0x0 JUMPDEST DUP5 DUP2 LT ISZERO PUSH2 0xE68 JUMPI DUP3 ISZERO PUSH2 0xE0F JUMPI PUSH2 0xE0A DUP4 DUP4 DUP4 DUP2 MLOAD DUP2 LT PUSH2 0xDF4 JUMPI PUSH2 0xDF4 PUSH2 0x1CE5 JUMP JUMPDEST PUSH1 0x20 MUL PUSH1 0x20 ADD ADD MLOAD PUSH2 0x12EF SWAP1 SWAP2 SWAP1 PUSH4 0xFFFFFFFF AND JUMP JUMPDEST PUSH2 0xE35 JUMP JUMPDEST PUSH2 0xE35 DUP5 DUP3 DUP2 MLOAD DUP2 LT PUSH2 0xE24 JUMPI PUSH2 0xE24 PUSH2 0x1CE5 JUMP JUMPDEST PUSH1 0x20 MUL PUSH1 0x20 ADD ADD MLOAD PUSH1 0x80 ADD MLOAD PUSH2 0x1362 JUMP JUMPDEST DUP5 DUP3 DUP2 MLOAD DUP2 LT PUSH2 0xE47 JUMPI PUSH2 0xE47 PUSH2 0x1CE5 JUMP JUMPDEST PUSH1 0x20 SWAP1 DUP2 MUL SWAP2 SWAP1 SWAP2 ADD ADD MLOAD PUSH1 0xC0 ADD MSTORE DUP1 PUSH2 0xE60 DUP2 PUSH2 0x1EC8 JUMP JUMPDEST SWAP2 POP POP PUSH2 0xDD0 JUMP JUMPDEST POP PUSH1 0x0 DUP1 DUP6 PUSH1 0x1 PUSH1 0x1 PUSH1 0x40 SHL SUB DUP2 GT ISZERO PUSH2 0xE84 JUMPI PUSH2 0xE84 PUSH2 0x19AF JUMP JUMPDEST PUSH1 0x40 MLOAD SWAP1 DUP1 DUP3 MSTORE DUP1 PUSH1 0x20 MUL PUSH1 0x20 ADD DUP3 ADD PUSH1 0x40 MSTORE DUP1 ISZERO PUSH2 0xEAD JUMPI DUP2 PUSH1 0x20 ADD PUSH1 0x20 DUP3 MUL DUP1 CALLDATASIZE DUP4 CALLDATACOPY ADD SWAP1 POP JUMPDEST POP SWAP1 POP PUSH1 0x0 JUMPDEST DUP7 DUP2 LT ISZERO PUSH2 0xF88 JUMPI PUSH1 0x0 DUP7 DUP3 DUP2 MLOAD DUP2 LT PUSH2 0xECF JUMPI PUSH2 0xECF PUSH2 0x1CE5 JUMP JUMPDEST PUSH1 0x20 MUL PUSH1 0x20 ADD ADD MLOAD PUSH1 0x80 ADD MLOAD PUSH1 0x0 ADD MLOAD SWAP1 POP PUSH2 0xF2F PUSH2 0xEF9 DUP9 DUP5 DUP2 MLOAD DUP2 LT PUSH2 0xE24 JUMPI PUSH2 0xE24 PUSH2 0x1CE5 JUMP JUMPDEST PUSH2 0xF29 DUP4 DUP11 DUP7 DUP2 MLOAD DUP2 LT PUSH2 0xF0F JUMPI PUSH2 0xF0F PUSH2 0x1CE5 JUMP JUMPDEST PUSH1 0x20 MUL PUSH1 0x20 ADD ADD MLOAD PUSH1 0x60 ADD MLOAD PUSH2 0x12EF SWAP1 SWAP2 SWAP1 PUSH4 0xFFFFFFFF AND JUMP JUMPDEST SWAP1 PUSH2 0x12C6 JUMP JUMPDEST DUP4 DUP4 DUP2 MLOAD DUP2 LT PUSH2 0xF41 JUMPI PUSH2 0xF41 PUSH2 0x1CE5 JUMP JUMPDEST PUSH1 0x20 MUL PUSH1 0x20 ADD ADD DUP2 DUP2 MSTORE POP POP DUP3 DUP3 DUP2 MLOAD DUP2 LT PUSH2 0xF5F JUMPI PUSH2 0xF5F PUSH2 0x1CE5 JUMP JUMPDEST PUSH1 0x20 MUL PUSH1 0x20 ADD ADD MLOAD DUP5 PUSH2 0xF72 SWAP2 SWAP1 PUSH2 0x2142 JUMP JUMPDEST SWAP4 POP POP DUP1 DUP1 PUSH2 0xF80 SWAP1 PUSH2 0x1EC8 JUMP JUMPDEST SWAP2 POP POP PUSH2 0xEB3 JUMP JUMPDEST POP DUP2 ISZERO PUSH2 0x103E JUMPI PUSH1 0x0 DUP1 JUMPDEST DUP8 DUP2 LT ISZERO PUSH2 0x103B JUMPI PUSH1 0x0 PUSH2 0xFC9 DUP6 DUP6 DUP5 DUP2 MLOAD DUP2 LT PUSH2 0xFB3 JUMPI PUSH2 0xFB3 PUSH2 0x1CE5 JUMP JUMPDEST PUSH1 0x20 MUL PUSH1 0x20 ADD ADD MLOAD PUSH2 0x144C SWAP1 SWAP2 SWAP1 PUSH4 0xFFFFFFFF AND JUMP JUMPDEST SWAP1 POP PUSH8 0xDE0B6B3A7640000 PUSH2 0xFDE DUP3 DUP6 PUSH2 0x2142 JUMP JUMPDEST GT ISZERO PUSH2 0xFF9 JUMPI PUSH2 0xFF6 DUP4 PUSH8 0xDE0B6B3A7640000 PUSH2 0x2155 JUMP JUMPDEST SWAP1 POP JUMPDEST DUP1 DUP9 DUP4 DUP2 MLOAD DUP2 LT PUSH2 0x100C JUMPI PUSH2 0x100C PUSH2 0x1CE5 JUMP JUMPDEST PUSH1 0x20 SWAP1 DUP2 MUL SWAP2 SWAP1 SWAP2 ADD ADD MLOAD PUSH1 0xE0 ADD MSTORE PUSH2 0x1025 DUP2 DUP5 PUSH2 0x2142 JUMP JUMPDEST SWAP3 POP POP DUP1 DUP1 PUSH2 0x1033 SWAP1 PUSH2 0x1EC8 JUMP JUMPDEST SWAP2 POP POP PUSH2 0xF93 JUMP JUMPDEST POP POP JUMPDEST PUSH1 0x40 MLOAD DUP1 PUSH1 0x40 ADD PUSH1 0x40 MSTORE DUP1 DUP6 DUP2 MSTORE PUSH1 0x20 ADD DUP7 DUP2 MSTORE POP SWAP8 POP POP POP POP POP POP POP POP SWAP1 JUMP JUMPDEST PUSH1 0x40 MLOAD PUSH4 0x21F8A721 PUSH1 0xE0 SHL DUP2 MSTORE PUSH22 0x5641554C545F52454749535452595F41444452455353 PUSH1 0x50 SHL PUSH1 0x4 DUP3 ADD MSTORE PUSH1 0x0 SWAP1 PUSH1 0x1 PUSH1 0x1 PUSH1 0xA0 SHL SUB DUP4 AND SWAP1 PUSH4 0x21F8A721 SWAP1 PUSH1 0x24 ADD JUMPDEST PUSH1 0x20 PUSH1 0x40 MLOAD DUP1 DUP4 SUB DUP2 DUP7 GAS STATICCALL ISZERO DUP1 ISZERO PUSH2 0x10C0 JUMPI RETURNDATASIZE PUSH1 0x0 DUP1 RETURNDATACOPY RETURNDATASIZE PUSH1 0x0 REVERT JUMPDEST POP POP POP POP PUSH1 0x40 MLOAD RETURNDATASIZE PUSH1 0x1F NOT PUSH1 0x1F DUP3 ADD AND DUP3 ADD DUP1 PUSH1 0x40 MSTORE POP DUP2 ADD SWAP1 PUSH2 0x10E4 SWAP2 SWAP1 PUSH2 0x1F0D JUMP JUMPDEST SWAP3 SWAP2 POP POP JUMP JUMPDEST PUSH1 0x40 MLOAD PUSH4 0x21F8A721 PUSH1 0xE0 SHL DUP2 MSTORE PUSH22 0x41535345545F52454749535452595F41444452455353 PUSH1 0x50 SHL PUSH1 0x4 DUP3 ADD MSTORE PUSH1 0x0 SWAP1 PUSH1 0x1 PUSH1 0x1 PUSH1 0xA0 SHL SUB DUP4 AND SWAP1 PUSH4 0x21F8A721 SWAP1 PUSH1 0x24 ADD PUSH2 0x10A3 JUMP JUMPDEST PUSH1 0x40 MLOAD PUSH4 0x21F8A721 PUSH1 0xE0 SHL DUP2 MSTORE PUSH15 0x524553455256455F41444452455353 PUSH1 0x88 SHL PUSH1 0x4 DUP3 ADD MSTORE PUSH1 0x0 SWAP1 PUSH1 0x1 PUSH1 0x1 PUSH1 0xA0 SHL SUB DUP4 AND SWAP1 PUSH4 0x21F8A721 SWAP1 PUSH1 0x24 ADD PUSH2 0x10A3 JUMP JUMPDEST PUSH1 0x0 PUSH2 0x117D PUSH2 0x4A4 JUMP JUMPDEST SWAP1 POP PUSH1 0x0 JUMPDEST DUP2 PUSH1 0x20 ADD MLOAD MLOAD DUP2 LT ISZERO PUSH2 0x120A JUMPI PUSH1 0x0 DUP3 PUSH1 0x20 ADD MLOAD DUP3 DUP2 MLOAD DUP2 LT PUSH2 0x11A7 JUMPI PUSH2 0x11A7 PUSH2 0x1CE5 JUMP JUMPDEST PUSH1 0x20 MUL PUSH1 0x20 ADD ADD MLOAD SWAP1 POP PUSH2 0x11BB DUP2 DUP6 PUSH2 0x14CB JUMP JUMPDEST ISZERO PUSH1 0x40 MLOAD DUP1 PUSH1 0x40 ADD PUSH1 0x40 MSTORE DUP1 PUSH1 0x2 DUP2 MSTORE PUSH1 0x20 ADD PUSH2 0x3539 PUSH1 0xF0 SHL DUP2 MSTORE POP SWAP1 PUSH2 0x11F5 JUMPI PUSH1 0x40 MLOAD PUSH3 0x461BCD PUSH1 0xE5 SHL DUP2 MSTORE PUSH1 0x4 ADD PUSH2 0x235 SWAP2 SWAP1 PUSH2 0x1961 JUMP JUMPDEST POP POP DUP1 DUP1 PUSH2 0x1202 SWAP1 PUSH2 0x1EC8 JUMP JUMPDEST SWAP2 POP POP PUSH2 0x1182 JUMP JUMPDEST POP POP POP JUMP JUMPDEST PUSH1 0x40 MLOAD PUSH4 0x21F8A721 PUSH1 0xE0 SHL DUP2 MSTORE PUSH32 0x524F4F545F50524943455F4F5241434C455F4144445245535300000000000000 PUSH1 0x4 DUP3 ADD MSTORE PUSH1 0x0 SWAP1 PUSH1 0x1 PUSH1 0x1 PUSH1 0xA0 SHL SUB DUP4 AND SWAP1 PUSH4 0x21F8A721 SWAP1 PUSH1 0x24 ADD PUSH2 0x10A3 JUMP JUMPDEST PUSH1 0x0 PUSH1 0x11 NOT PUSH1 0xFF DUP4 AND ADD PUSH2 0x1273 JUMPI POP DUP2 PUSH2 0x10E4 JUMP JUMPDEST PUSH1 0x12 PUSH1 0xFF DUP4 AND GT ISZERO PUSH2 0x12A6 JUMPI PUSH2 0x128A PUSH1 0x12 DUP4 PUSH2 0x2168 JUMP JUMPDEST PUSH2 0x1295 SWAP1 PUSH1 0xA PUSH2 0x2265 JUMP JUMPDEST PUSH2 0x129F SWAP1 DUP5 PUSH2 0x228A JUMP JUMPDEST SWAP1 POP PUSH2 0x10E4 JUMP JUMPDEST PUSH2 0x12B1 DUP3 PUSH1 0x12 PUSH2 0x2168 JUMP JUMPDEST PUSH2 0x12BC SWAP1 PUSH1 0xA PUSH2 0x2265 JUMP JUMPDEST PUSH2 0x129F SWAP1 DUP5 PUSH2 0x22AC JUMP JUMPDEST PUSH1 0x0 DUP1 PUSH2 0x12D3 DUP4 DUP6 PUSH2 0x22AC JUMP JUMPDEST SWAP1 POP PUSH2 0x12E7 PUSH8 0xDE0B6B3A7640000 DUP3 PUSH2 0x228A JUMP JUMPDEST SWAP5 SWAP4 POP POP POP POP JUMP JUMPDEST PUSH1 0x40 DUP1 MLOAD DUP1 DUP3 ADD SWAP1 SWAP2 MSTORE PUSH1 0x2 DUP2 MSTORE PUSH2 0x3235 PUSH1 0xF0 SHL PUSH1 0x20 DUP3 ADD MSTORE PUSH1 0x0 SWAP1 DUP3 PUSH2 0x1329 JUMPI PUSH1 0x40 MLOAD PUSH3 0x461BCD PUSH1 0xE5 SHL DUP2 MSTORE PUSH1 0x4 ADD PUSH2 0x235 SWAP2 SWAP1 PUSH2 0x1961 JUMP JUMPDEST POP DUP3 PUSH1 0x0 SUB PUSH2 0x133A JUMPI POP PUSH1 0x0 PUSH2 0x10E4 JUMP JUMPDEST PUSH1 0x0 PUSH2 0x134E PUSH8 0xDE0B6B3A7640000 DUP6 PUSH2 0x22AC JUMP JUMPDEST SWAP1 POP PUSH2 0x135A DUP4 DUP3 PUSH2 0x228A JUMP JUMPDEST SWAP2 POP POP PUSH2 0x10E4 JUMP JUMPDEST PUSH1 0x0 DUP1 DUP3 PUSH1 0xC0 ADD MLOAD PUSH1 0x1 PUSH1 0x1 PUSH1 0x40 SHL SUB AND TIMESTAMP PUSH2 0x137E SWAP2 SWAP1 PUSH2 0x2155 JUMP JUMPDEST SWAP1 POP DUP3 PUSH1 0x80 ADD MLOAD PUSH1 0x1 PUSH1 0x1 PUSH1 0x40 SHL SUB AND DUP2 LT PUSH2 0x139D JUMPI POP POP PUSH1 0x20 ADD MLOAD SWAP1 JUMP JUMPDEST PUSH1 0x0 PUSH2 0x13BF DUP5 PUSH1 0x80 ADD MLOAD PUSH1 0x1 PUSH1 0x1 PUSH1 0x40 SHL SUB AND DUP4 PUSH2 0x12EF SWAP1 SWAP2 SWAP1 PUSH4 0xFFFFFFFF AND JUMP JUMPDEST SWAP1 POP PUSH1 0x0 PUSH2 0x13E7 DUP6 PUSH1 0xA0 ADD MLOAD PUSH1 0x1 PUSH1 0x1 PUSH1 0x40 SHL SUB AND DUP7 PUSH1 0x20 ADD MLOAD PUSH2 0x160C SWAP1 SWAP2 SWAP1 PUSH4 0xFFFFFFFF AND JUMP JUMPDEST SWAP1 POP PUSH1 0x0 PUSH2 0x13F5 DUP3 DUP5 PUSH2 0x12C6 JUMP JUMPDEST SWAP1 POP DUP6 PUSH1 0xA0 ADD MLOAD PUSH1 0x1 PUSH1 0x1 PUSH1 0x40 SHL SUB AND DUP7 PUSH1 0x20 ADD MLOAD GT ISZERO PUSH2 0x1433 JUMPI DUP1 DUP7 PUSH1 0xA0 ADD MLOAD PUSH1 0x1 PUSH1 0x1 PUSH1 0x40 SHL SUB AND PUSH2 0x1429 SWAP2 SWAP1 PUSH2 0x2142 JUMP JUMPDEST SWAP7 SWAP6 POP POP POP POP POP POP JUMP JUMPDEST DUP1 DUP7 PUSH1 0xA0 ADD MLOAD PUSH1 0x1 PUSH1 0x1 PUSH1 0x40 SHL SUB AND PUSH2 0x1429 SWAP2 SWAP1 PUSH2 0x2155 JUMP JUMPDEST PUSH1 0x40 DUP1 MLOAD DUP1 DUP3 ADD SWAP1 SWAP2 MSTORE PUSH1 0x2 DUP2 MSTORE PUSH2 0x3235 PUSH1 0xF0 SHL PUSH1 0x20 DUP3 ADD MSTORE PUSH1 0x0 SWAP1 DUP3 PUSH2 0x1486 JUMPI PUSH1 0x40 MLOAD PUSH3 0x461BCD PUSH1 0xE5 SHL DUP2 MSTORE PUSH1 0x4 ADD PUSH2 0x235 SWAP2 SWAP1 PUSH2 0x1961 JUMP JUMPDEST POP DUP3 PUSH1 0x0 SUB PUSH2 0x1497 JUMPI POP PUSH1 0x0 PUSH2 0x10E4 JUMP JUMPDEST PUSH1 0x0 PUSH2 0x14AB PUSH8 0xDE0B6B3A7640000 DUP6 PUSH2 0x22AC JUMP JUMPDEST SWAP1 POP DUP3 PUSH1 0x1 DUP3 SUB DUP2 PUSH2 0x14BF JUMPI PUSH2 0x14BF PUSH2 0x2274 JUMP JUMPDEST DIV PUSH1 0x1 ADD SWAP2 POP POP PUSH2 0x10E4 JUMP JUMPDEST PUSH1 0x0 DUP1 JUMPDEST DUP3 MLOAD DUP2 LT ISZERO PUSH2 0x152E JUMPI DUP3 DUP2 DUP2 MLOAD DUP2 LT PUSH2 0x14EA JUMPI PUSH2 0x14EA PUSH2 0x1CE5 JUMP JUMPDEST PUSH1 0x20 MUL PUSH1 0x20 ADD ADD MLOAD PUSH1 0x0 ADD MLOAD PUSH1 0x1 PUSH1 0x1 PUSH1 0xA0 SHL SUB AND DUP5 PUSH1 0x0 ADD MLOAD PUSH1 0x1 PUSH1 0x1 PUSH1 0xA0 SHL SUB AND SUB PUSH2 0x151C JUMPI PUSH1 0x0 SWAP2 POP POP PUSH2 0x10E4 JUMP JUMPDEST DUP1 PUSH2 0x1526 DUP2 PUSH2 0x1EC8 JUMP JUMPDEST SWAP2 POP POP PUSH2 0x14CF JUMP JUMPDEST POP PUSH1 0x0 PUSH2 0x154C DUP5 PUSH1 0xA0 ADD MLOAD DUP6 PUSH1 0x60 ADD MLOAD PUSH2 0x12C6 SWAP1 SWAP2 SWAP1 PUSH4 0xFFFFFFFF AND JUMP JUMPDEST PUSH1 0x40 MLOAD PUSH4 0xE964DA15 PUSH1 0xE0 SHL DUP2 MSTORE PUSH20 0x159055531517D11554D517D512149154D213D311 PUSH1 0x62 SHL PUSH1 0x4 DUP3 ADD MSTORE PUSH9 0x1B1AE4D6E2EF500000 PUSH1 0x24 DUP3 ADD MSTORE SWAP1 SWAP2 POP PUSH1 0x0 SWAP1 PUSH1 0x1 PUSH1 0x1 PUSH1 0xA0 SHL SUB PUSH32 0x0 AND SWAP1 PUSH4 0xE964DA15 SWAP1 PUSH1 0x44 ADD PUSH1 0x20 PUSH1 0x40 MLOAD DUP1 DUP4 SUB DUP2 DUP7 GAS STATICCALL ISZERO DUP1 ISZERO PUSH2 0x15DC JUMPI RETURNDATASIZE PUSH1 0x0 DUP1 RETURNDATACOPY RETURNDATASIZE PUSH1 0x0 REVERT JUMPDEST POP POP POP POP PUSH1 0x40 MLOAD RETURNDATASIZE PUSH1 0x1F NOT PUSH1 0x1F DUP3 ADD AND DUP3 ADD DUP1 PUSH1 0x40 MSTORE POP DUP2 ADD SWAP1 PUSH2 0x1600 SWAP2 SWAP1 PUSH2 0x1D94 JUMP JUMPDEST SWAP1 SWAP2 LT ISZERO SWAP5 SWAP4 POP POP POP POP JUMP JUMPDEST PUSH1 0x0 DUP2 DUP4 LT ISZERO PUSH2 0x1625 JUMPI PUSH2 0x1620 DUP4 DUP4 PUSH2 0x2155 JUMP JUMPDEST PUSH2 0x162F JUMP JUMPDEST PUSH2 0x162F DUP3 DUP5 PUSH2 0x2155 JUMP JUMPDEST SWAP4 SWAP3 POP POP POP JUMP JUMPDEST PUSH1 0x40 MLOAD DUP1 PUSH2 0x120 ADD PUSH1 0x40 MSTORE DUP1 PUSH1 0x0 PUSH1 0x1 PUSH1 0x1 PUSH1 0xA0 SHL SUB AND DUP2 MSTORE PUSH1 0x20 ADD PUSH1 0x0 PUSH1 0xFF AND DUP2 MSTORE PUSH1 0x20 ADD PUSH1 0x0 PUSH1 0x1 PUSH1 0x1 PUSH1 0xA0 SHL SUB AND DUP2 MSTORE PUSH1 0x20 ADD PUSH1 0x0 DUP2 MSTORE PUSH1 0x20 ADD PUSH2 0x167B PUSH2 0x169D JUMP JUMPDEST DUP2 MSTORE PUSH1 0x20 ADD PUSH1 0x0 DUP2 MSTORE PUSH1 0x20 ADD PUSH1 0x0 DUP2 MSTORE PUSH1 0x20 ADD PUSH1 0x0 DUP2 MSTORE PUSH1 0x20 ADD PUSH1 0x60 DUP2 MSTORE POP SWAP1 JUMP JUMPDEST PUSH1 0x40 MLOAD DUP1 PUSH1 0xE0 ADD PUSH1 0x40 MSTORE DUP1 PUSH1 0x0 DUP2 MSTORE PUSH1 0x20 ADD PUSH1 0x0 DUP2 MSTORE PUSH1 0x20 ADD PUSH1 0x0 DUP2 MSTORE PUSH1 0x20 ADD PUSH1 0x0 DUP2 MSTORE PUSH1 0x20 ADD PUSH1 0x0 PUSH1 0x1 PUSH1 0x1 PUSH1 0x40 SHL SUB AND DUP2 MSTORE PUSH1 0x20 ADD PUSH1 0x0 PUSH1 0x1 PUSH1 0x1 PUSH1 0x40 SHL SUB AND DUP2 MSTORE PUSH1 0x20 ADD PUSH1 0x0 PUSH1 0x1 PUSH1 0x1 PUSH1 0x40 SHL SUB AND DUP2 MSTORE POP SWAP1 JUMP JUMPDEST PUSH1 0x0 DUP1 PUSH1 0x20 DUP4 DUP6 SUB SLT ISZERO PUSH2 0x1708 JUMPI PUSH1 0x0 DUP1 REVERT JUMPDEST DUP3 CALLDATALOAD PUSH1 0x1 PUSH1 0x1 PUSH1 0x40 SHL SUB DUP1 DUP3 GT ISZERO PUSH2 0x171F JUMPI PUSH1 0x0 DUP1 REVERT JUMPDEST DUP2 DUP6 ADD SWAP2 POP DUP6 PUSH1 0x1F DUP4 ADD SLT PUSH2 0x1733 JUMPI PUSH1 0x0 DUP1 REVERT JUMPDEST DUP2 CALLDATALOAD DUP2 DUP2 GT ISZERO PUSH2 0x1742 JUMPI PUSH1 0x0 DUP1 REVERT JUMPDEST DUP7 PUSH1 0x20 DUP3 PUSH1 0x8 SHL DUP6 ADD ADD GT ISZERO PUSH2 0x1757 JUMPI PUSH1 0x0 DUP1 REVERT JUMPDEST PUSH1 0x20 SWAP3 SWAP1 SWAP3 ADD SWAP7 SWAP2 SWAP6 POP SWAP1 SWAP4 POP POP POP POP JUMP JUMPDEST PUSH1 0x1 PUSH1 0x1 PUSH1 0xA0 SHL SUB DUP2 AND DUP2 EQ PUSH2 0x177E JUMPI PUSH1 0x0 DUP1 REVERT JUMPDEST POP JUMP JUMPDEST PUSH1 0x0 PUSH1 0x20 DUP3 DUP5 SUB SLT ISZERO PUSH2 0x1793 JUMPI PUSH1 0x0 DUP1 REVERT JUMPDEST DUP2 CALLDATALOAD PUSH2 0x162F DUP2 PUSH2 0x1769 JUMP JUMPDEST PUSH1 0x0 DUP2 MLOAD DUP1 DUP5 MSTORE PUSH1 0x20 DUP1 DUP6 ADD SWAP5 POP DUP1 DUP5 ADD PUSH1 0x0 JUMPDEST DUP4 DUP2 LT ISZERO PUSH2 0x1806 JUMPI DUP2 MLOAD DUP1 MLOAD PUSH1 0x1 PUSH1 0x1 PUSH1 0xA0 SHL SUB AND DUP9 MSTORE DUP4 DUP2 ADD MLOAD ISZERO ISZERO DUP5 DUP10 ADD MSTORE PUSH1 0x40 DUP1 DUP3 ADD MLOAD SWAP1 DUP10 ADD MSTORE PUSH1 0x60 SWAP1 DUP2 ADD MLOAD DUP1 MLOAD SWAP2 DUP10 ADD SWAP2 SWAP1 SWAP2 MSTORE DUP4 ADD MLOAD PUSH1 0x80 DUP9 ADD MSTORE PUSH1 0xA0 SWAP1 SWAP7 ADD SWAP6 SWAP1 DUP3 ADD SWAP1 PUSH1 0x1 ADD PUSH2 0x17B2 JUMP JUMPDEST POP SWAP5 SWAP6 SWAP5 POP POP POP POP POP JUMP JUMPDEST PUSH1 0x0 DUP2 MLOAD DUP1 DUP5 MSTORE PUSH1 0x20 DUP1 DUP6 ADD DUP1 DUP2 SWAP7 POP DUP4 PUSH1 0x5 SHL DUP2 ADD SWAP2 POP DUP3 DUP7 ADD PUSH1 0x0 JUMPDEST DUP6 DUP2 LT ISZERO PUSH2 0x192F JUMPI DUP3 DUP5 SUB DUP10 MSTORE DUP2 MLOAD DUP1 MLOAD PUSH1 0x1 PUSH1 0x1 PUSH1 0xA0 SHL SUB AND DUP6 MSTORE PUSH2 0x1E0 DUP2 DUP8 ADD MLOAD PUSH1 0xFF DUP2 AND DUP8 DUP10 ADD MSTORE POP PUSH1 0x40 DUP3 DUP2 ADD MLOAD PUSH1 0x1 PUSH1 0x1 PUSH1 0xA0 SHL SUB DUP2 AND DUP9 DUP4 ADD MSTORE POP POP PUSH1 0x60 DUP3 DUP2 ADD MLOAD SWAP1 DUP8 ADD MSTORE PUSH1 0x80 DUP1 DUP4 ADD MLOAD PUSH2 0x18DD DUP3 DUP10 ADD DUP3 DUP1 MLOAD DUP3 MSTORE PUSH1 0x20 DUP2 ADD MLOAD PUSH1 0x20 DUP4 ADD MSTORE PUSH1 0x40 DUP2 ADD MLOAD PUSH1 0x40 DUP4 ADD MSTORE PUSH1 0x60 DUP2 ADD MLOAD PUSH1 0x60 DUP4 ADD MSTORE PUSH1 0x80 DUP2 ADD MLOAD PUSH1 0x1 PUSH1 0x1 PUSH1 0x40 SHL SUB DUP1 DUP3 AND PUSH1 0x80 DUP6 ADD MSTORE DUP1 PUSH1 0xA0 DUP5 ADD MLOAD AND PUSH1 0xA0 DUP6 ADD MSTORE DUP1 PUSH1 0xC0 DUP5 ADD MLOAD AND PUSH1 0xC0 DUP6 ADD MSTORE POP POP POP POP JUMP JUMPDEST POP POP PUSH1 0xA0 DUP3 ADD MLOAD PUSH2 0x160 DUP8 ADD MSTORE PUSH1 0xC0 DUP3 ADD MLOAD PUSH2 0x180 DUP8 ADD MSTORE PUSH1 0xE0 DUP3 ADD MLOAD PUSH2 0x1A0 DUP8 ADD MSTORE PUSH2 0x100 DUP3 ADD MLOAD SWAP2 POP DUP1 PUSH2 0x1C0 DUP8 ADD MSTORE PUSH2 0x191B DUP2 DUP8 ADD DUP4 PUSH2 0x179E JUMP JUMPDEST SWAP11 DUP8 ADD SWAP11 SWAP6 POP POP POP SWAP1 DUP5 ADD SWAP1 PUSH1 0x1 ADD PUSH2 0x182F JUMP JUMPDEST POP SWAP2 SWAP8 SWAP7 POP POP POP POP POP POP POP JUMP JUMPDEST PUSH1 0x20 DUP2 MSTORE DUP2 MLOAD PUSH1 0x20 DUP3 ADD MSTORE PUSH1 0x0 PUSH1 0x20 DUP4 ADD MLOAD PUSH1 0x40 DUP1 DUP5 ADD MSTORE PUSH2 0x12E7 PUSH1 0x60 DUP5 ADD DUP3 PUSH2 0x1811 JUMP JUMPDEST PUSH1 0x0 PUSH1 0x20 DUP1 DUP4 MSTORE DUP4 MLOAD DUP1 DUP3 DUP6 ADD MSTORE PUSH1 0x0 JUMPDEST DUP2 DUP2 LT ISZERO PUSH2 0x198E JUMPI DUP6 DUP2 ADD DUP4 ADD MLOAD DUP6 DUP3 ADD PUSH1 0x40 ADD MSTORE DUP3 ADD PUSH2 0x1972 JUMP JUMPDEST POP PUSH1 0x0 PUSH1 0x40 DUP3 DUP7 ADD ADD MSTORE PUSH1 0x40 PUSH1 0x1F NOT PUSH1 0x1F DUP4 ADD AND DUP6 ADD ADD SWAP3 POP POP POP SWAP3 SWAP2 POP POP JUMP JUMPDEST PUSH4 0x4E487B71 PUSH1 0xE0 SHL PUSH1 0x0 MSTORE PUSH1 0x41 PUSH1 0x4 MSTORE PUSH1 0x24 PUSH1 0x0 REVERT JUMPDEST PUSH1 0x40 DUP1 MLOAD SWAP1 DUP2 ADD PUSH1 0x1 PUSH1 0x1 PUSH1 0x40 SHL SUB DUP2 GT DUP3 DUP3 LT OR ISZERO PUSH2 0x19E7 JUMPI PUSH2 0x19E7 PUSH2 0x19AF JUMP JUMPDEST PUSH1 0x40 MSTORE SWAP1 JUMP JUMPDEST PUSH1 0x40 MLOAD PUSH1 0xE0 DUP2 ADD PUSH1 0x1 PUSH1 0x1 PUSH1 0x40 SHL SUB DUP2 GT DUP3 DUP3 LT OR ISZERO PUSH2 0x19E7 JUMPI PUSH2 0x19E7 PUSH2 0x19AF JUMP JUMPDEST PUSH1 0x40 MLOAD PUSH1 0x80 DUP2 ADD PUSH1 0x1 PUSH1 0x1 PUSH1 0x40 SHL SUB DUP2 GT DUP3 DUP3 LT OR ISZERO PUSH2 0x19E7 JUMPI PUSH2 0x19E7 PUSH2 0x19AF JUMP JUMPDEST PUSH1 0x40 MLOAD PUSH2 0x120 DUP2 ADD PUSH1 0x1 PUSH1 0x1 PUSH1 0x40 SHL SUB DUP2 GT DUP3 DUP3 LT OR ISZERO PUSH2 0x19E7 JUMPI PUSH2 0x19E7 PUSH2 0x19AF JUMP JUMPDEST PUSH1 0x40 MLOAD PUSH1 0x1F DUP3 ADD PUSH1 0x1F NOT AND DUP2 ADD PUSH1 0x1 PUSH1 0x1 PUSH1 0x40 SHL SUB DUP2 GT DUP3 DUP3 LT OR ISZERO PUSH2 0x1A7C JUMPI PUSH2 0x1A7C PUSH2 0x19AF JUMP JUMPDEST PUSH1 0x40 MSTORE SWAP2 SWAP1 POP JUMP JUMPDEST PUSH1 0x1 PUSH1 0x1 PUSH1 0x40 SHL SUB DUP2 AND DUP2 EQ PUSH2 0x177E JUMPI PUSH1 0x0 DUP1 REVERT JUMPDEST PUSH1 0x0 DUP2 DUP4 SUB PUSH2 0x100 DUP2 SLT ISZERO PUSH2 0x1AAD JUMPI PUSH1 0x0 DUP1 REVERT JUMPDEST PUSH2 0x1AB5 PUSH2 0x19C5 JUMP JUMPDEST DUP4 CALLDATALOAD PUSH2 0x1AC0 DUP2 PUSH2 0x1769 JUMP JUMPDEST DUP2 MSTORE PUSH1 0xE0 PUSH1 0x1F NOT DUP4 ADD SLT ISZERO PUSH2 0x1AD4 JUMPI PUSH1 0x0 DUP1 REVERT JUMPDEST PUSH2 0x1ADC PUSH2 0x19ED JUMP JUMPDEST SWAP2 POP PUSH1 0x20 DUP5 ADD CALLDATALOAD DUP3 MSTORE PUSH1 0x40 DUP5 ADD CALLDATALOAD PUSH1 0x20 DUP4 ADD MSTORE PUSH1 0x60 DUP5 ADD CALLDATALOAD PUSH1 0x40 DUP4 ADD MSTORE PUSH1 0x80 DUP5 ADD CALLDATALOAD PUSH1 0x60 DUP4 ADD MSTORE PUSH1 0xA0 DUP5 ADD CALLDATALOAD PUSH2 0x1B11 DUP2 PUSH2 0x1A84 JUMP JUMPDEST PUSH1 0x80 DUP4 ADD MSTORE PUSH1 0xC0 DUP5 ADD CALLDATALOAD PUSH2 0x1B24 DUP2 PUSH2 0x1A84 JUMP JUMPDEST PUSH1 0xA0 DUP4 ADD MSTORE PUSH1 0xE0 DUP5 ADD CALLDATALOAD PUSH2 0x1B37 DUP2 PUSH2 0x1A84 JUMP JUMPDEST PUSH1 0xC0 DUP4 ADD MSTORE PUSH1 0x20 DUP2 ADD SWAP2 SWAP1 SWAP2 MSTORE SWAP4 SWAP3 POP POP POP JUMP JUMPDEST PUSH1 0x20 DUP1 DUP3 MSTORE DUP2 DUP2 ADD DUP4 SWAP1 MSTORE PUSH1 0x0 SWAP1 PUSH1 0x40 DUP1 DUP5 ADD DUP7 DUP5 JUMPDEST DUP8 DUP2 LT ISZERO PUSH2 0x1C07 JUMPI DUP2 CALLDATALOAD PUSH2 0x1B74 DUP2 PUSH2 0x1769 JUMP JUMPDEST PUSH1 0x1 PUSH1 0x1 PUSH1 0xA0 SHL SUB AND DUP4 MSTORE DUP2 DUP6 ADD CALLDATALOAD DUP6 DUP5 ADD MSTORE DUP4 DUP3 ADD CALLDATALOAD DUP5 DUP5 ADD MSTORE PUSH1 0x60 DUP1 DUP4 ADD CALLDATALOAD SWAP1 DUP5 ADD MSTORE PUSH1 0x80 DUP1 DUP4 ADD CALLDATALOAD SWAP1 DUP5 ADD MSTORE PUSH1 0xA0 DUP3 DUP2 ADD CALLDATALOAD PUSH2 0x1BB2 DUP2 PUSH2 0x1A84 JUMP JUMPDEST PUSH1 0x1 PUSH1 0x1 PUSH1 0x40 SHL SUB DUP1 DUP3 AND DUP4 DUP8 ADD MSTORE PUSH1 0xC0 SWAP3 POP DUP3 DUP6 ADD CALLDATALOAD SWAP2 POP PUSH2 0x1BD4 DUP3 PUSH2 0x1A84 JUMP JUMPDEST DUP1 DUP3 AND DUP4 DUP8 ADD MSTORE PUSH1 0xE0 SWAP3 POP DUP3 DUP6 ADD CALLDATALOAD SWAP2 POP PUSH2 0x1BEE DUP3 PUSH2 0x1A84 JUMP JUMPDEST AND SWAP1 DUP5 ADD MSTORE PUSH2 0x100 SWAP3 DUP4 ADD SWAP3 SWAP2 SWAP1 SWAP2 ADD SWAP1 PUSH1 0x1 ADD PUSH2 0x1B61 JUMP JUMPDEST POP SWAP1 SWAP8 SWAP7 POP POP POP POP POP POP POP JUMP JUMPDEST PUSH1 0x0 PUSH1 0x1 PUSH1 0x1 PUSH1 0x40 SHL SUB DUP3 GT ISZERO PUSH2 0x1C2D JUMPI PUSH2 0x1C2D PUSH2 0x19AF JUMP JUMPDEST POP PUSH1 0x5 SHL PUSH1 0x20 ADD SWAP1 JUMP JUMPDEST DUP1 MLOAD PUSH2 0x1C42 DUP2 PUSH2 0x1769 JUMP JUMPDEST SWAP2 SWAP1 POP JUMP JUMPDEST PUSH1 0x0 PUSH1 0x20 DUP1 DUP4 DUP6 SUB SLT ISZERO PUSH2 0x1C5A JUMPI PUSH1 0x0 DUP1 REVERT JUMPDEST DUP3 MLOAD PUSH1 0x1 PUSH1 0x1 PUSH1 0x40 SHL SUB DUP2 GT ISZERO PUSH2 0x1C70 JUMPI PUSH1 0x0 DUP1 REVERT JUMPDEST DUP4 ADD PUSH1 0x1F DUP2 ADD DUP6 SGT PUSH2 0x1C81 JUMPI PUSH1 0x0 DUP1 REVERT JUMPDEST DUP1 MLOAD PUSH2 0x1C94 PUSH2 0x1C8F DUP3 PUSH2 0x1C14 JUMP JUMPDEST PUSH2 0x1A54 JUMP JUMPDEST DUP2 DUP2 MSTORE PUSH1 0x5 SWAP2 SWAP1 SWAP2 SHL DUP3 ADD DUP4 ADD SWAP1 DUP4 DUP2 ADD SWAP1 DUP8 DUP4 GT ISZERO PUSH2 0x1CB3 JUMPI PUSH1 0x0 DUP1 REVERT JUMPDEST SWAP3 DUP5 ADD SWAP3 JUMPDEST DUP3 DUP5 LT ISZERO PUSH2 0x1CDA JUMPI DUP4 MLOAD PUSH2 0x1CCB DUP2 PUSH2 0x1769 JUMP JUMPDEST DUP3 MSTORE SWAP3 DUP5 ADD SWAP3 SWAP1 DUP5 ADD SWAP1 PUSH2 0x1CB8 JUMP JUMPDEST SWAP8 SWAP7 POP POP POP POP POP POP POP JUMP JUMPDEST PUSH4 0x4E487B71 PUSH1 0xE0 SHL PUSH1 0x0 MSTORE PUSH1 0x32 PUSH1 0x4 MSTORE PUSH1 0x24 PUSH1 0x0 REVERT JUMPDEST PUSH1 0x0 PUSH1 0xE0 DUP3 DUP5 SUB SLT ISZERO PUSH2 0x1D0D JUMPI PUSH1 0x0 DUP1 REVERT JUMPDEST PUSH2 0x1D15 PUSH2 0x19ED JUMP JUMPDEST SWAP1 POP DUP2 MLOAD DUP2 MSTORE PUSH1 0x20 DUP3 ADD MLOAD PUSH1 0x20 DUP3 ADD MSTORE PUSH1 0x40 DUP3 ADD MLOAD PUSH1 0x40 DUP3 ADD MSTORE PUSH1 0x60 DUP3 ADD MLOAD PUSH1 0x60 DUP3 ADD MSTORE PUSH1 0x80 DUP3 ADD MLOAD PUSH2 0x1D47 DUP2 PUSH2 0x1A84 JUMP JUMPDEST PUSH1 0x80 DUP3 ADD MSTORE PUSH1 0xA0 DUP3 ADD MLOAD PUSH2 0x1D5A DUP2 PUSH2 0x1A84 JUMP JUMPDEST PUSH1 0xA0 DUP3 ADD MSTORE PUSH1 0xC0 DUP3 ADD MLOAD PUSH2 0x1D6D DUP2 PUSH2 0x1A84 JUMP JUMPDEST PUSH1 0xC0 DUP3 ADD MSTORE SWAP3 SWAP2 POP POP JUMP JUMPDEST PUSH1 0x0 PUSH1 0xE0 DUP3 DUP5 SUB SLT ISZERO PUSH2 0x1D8A JUMPI PUSH1 0x0 DUP1 REVERT JUMPDEST PUSH2 0x162F DUP4 DUP4 PUSH2 0x1CFB JUMP JUMPDEST PUSH1 0x0 PUSH1 0x20 DUP3 DUP5 SUB SLT ISZERO PUSH2 0x1DA6 JUMPI PUSH1 0x0 DUP1 REVERT JUMPDEST POP MLOAD SWAP2 SWAP1 POP JUMP JUMPDEST PUSH1 0x0 PUSH1 0x20 DUP1 DUP4 DUP6 SUB SLT ISZERO PUSH2 0x1DC0 JUMPI PUSH1 0x0 DUP1 REVERT JUMPDEST DUP3 MLOAD PUSH1 0x1 PUSH1 0x1 PUSH1 0x40 SHL SUB DUP2 GT ISZERO PUSH2 0x1DD6 JUMPI PUSH1 0x0 DUP1 REVERT JUMPDEST DUP4 ADD PUSH1 0x1F DUP2 ADD DUP6 SGT PUSH2 0x1DE7 JUMPI PUSH1 0x0 DUP1 REVERT JUMPDEST DUP1 MLOAD PUSH2 0x1DF5 PUSH2 0x1C8F DUP3 PUSH2 0x1C14 JUMP JUMPDEST DUP2 DUP2 MSTORE PUSH1 0x5 SWAP2 SWAP1 SWAP2 SHL DUP3 ADD DUP4 ADD SWAP1 DUP4 DUP2 ADD SWAP1 DUP8 DUP4 GT ISZERO PUSH2 0x1E14 JUMPI PUSH1 0x0 DUP1 REVERT JUMPDEST SWAP3 DUP5 ADD SWAP3 JUMPDEST DUP3 DUP5 LT ISZERO PUSH2 0x1CDA JUMPI DUP4 MLOAD PUSH2 0x1E2C DUP2 PUSH2 0x1769 JUMP JUMPDEST DUP3 MSTORE SWAP3 DUP5 ADD SWAP3 SWAP1 DUP5 ADD SWAP1 PUSH2 0x1E19 JUMP JUMPDEST DUP1 MLOAD DUP1 ISZERO ISZERO DUP2 EQ PUSH2 0x1C42 JUMPI PUSH1 0x0 DUP1 REVERT JUMPDEST PUSH1 0x0 PUSH1 0x20 DUP3 DUP5 SUB SLT ISZERO PUSH2 0x1E5D JUMPI PUSH1 0x0 DUP1 REVERT JUMPDEST PUSH2 0x162F DUP3 PUSH2 0x1E3B JUMP JUMPDEST PUSH1 0x0 PUSH1 0x40 DUP3 DUP5 SUB SLT ISZERO PUSH2 0x1E78 JUMPI PUSH1 0x0 DUP1 REVERT JUMPDEST PUSH2 0x1E80 PUSH2 0x19C5 JUMP JUMPDEST SWAP1 POP DUP2 MLOAD DUP2 MSTORE PUSH1 0x20 DUP3 ADD MLOAD PUSH1 0x20 DUP3 ADD MSTORE SWAP3 SWAP2 POP POP JUMP JUMPDEST PUSH1 0x0 PUSH1 0x40 DUP3 DUP5 SUB SLT ISZERO PUSH2 0x1EA8 JUMPI PUSH1 0x0 DUP1 REVERT JUMPDEST PUSH2 0x162F DUP4 DUP4 PUSH2 0x1E66 JUMP JUMPDEST PUSH4 0x4E487B71 PUSH1 0xE0 SHL PUSH1 0x0 MSTORE PUSH1 0x11 PUSH1 0x4 MSTORE PUSH1 0x24 PUSH1 0x0 REVERT JUMPDEST PUSH1 0x0 PUSH1 0x1 DUP3 ADD PUSH2 0x1EDA JUMPI PUSH2 0x1EDA PUSH2 0x1EB2 JUMP JUMPDEST POP PUSH1 0x1 ADD SWAP1 JUMP JUMPDEST DUP1 MLOAD PUSH1 0xFF DUP2 AND DUP2 EQ PUSH2 0x1C42 JUMPI PUSH1 0x0 DUP1 REVERT JUMPDEST PUSH1 0x0 PUSH1 0x20 DUP3 DUP5 SUB SLT ISZERO PUSH2 0x1F04 JUMPI PUSH1 0x0 DUP1 REVERT JUMPDEST PUSH2 0x162F DUP3 PUSH2 0x1EE1 JUMP JUMPDEST PUSH1 0x0 PUSH1 0x20 DUP3 DUP5 SUB SLT ISZERO PUSH2 0x1F1F JUMPI PUSH1 0x0 DUP1 REVERT JUMPDEST DUP2 MLOAD PUSH2 0x162F DUP2 PUSH2 0x1769 JUMP JUMPDEST PUSH1 0x20 DUP2 MSTORE PUSH1 0x0 PUSH2 0x162F PUSH1 0x20 DUP4 ADD DUP5 PUSH2 0x1811 JUMP JUMPDEST PUSH1 0x0 DUP3 PUSH1 0x1F DUP4 ADD SLT PUSH2 0x1F4E JUMPI PUSH1 0x0 DUP1 REVERT JUMPDEST DUP2 MLOAD PUSH1 0x20 PUSH2 0x1F5E PUSH2 0x1C8F DUP4 PUSH2 0x1C14 JUMP JUMPDEST DUP3 DUP2 MSTORE PUSH1 0xA0 SWAP3 DUP4 MUL DUP6 ADD DUP3 ADD SWAP3 DUP3 DUP3 ADD SWAP2 SWAP1 DUP8 DUP6 GT ISZERO PUSH2 0x1F7D JUMPI PUSH1 0x0 DUP1 REVERT JUMPDEST DUP4 DUP8 ADD JUMPDEST DUP6 DUP2 LT ISZERO PUSH2 0x1C07 JUMPI DUP2 DUP2 DUP11 SUB SLT ISZERO PUSH2 0x1F99 JUMPI PUSH1 0x0 DUP1 DUP2 REVERT JUMPDEST PUSH2 0x1FA1 PUSH2 0x1A0F JUMP JUMPDEST DUP2 MLOAD PUSH2 0x1FAC DUP2 PUSH2 0x1769 JUMP JUMPDEST DUP2 MSTORE PUSH2 0x1FB9 DUP3 DUP8 ADD PUSH2 0x1E3B JUMP JUMPDEST DUP2 DUP8 ADD MSTORE PUSH1 0x40 DUP3 DUP2 ADD MLOAD SWAP1 DUP3 ADD MSTORE PUSH1 0x60 PUSH2 0x1FD5 DUP12 DUP3 DUP6 ADD PUSH2 0x1E66 JUMP JUMPDEST SWAP1 DUP3 ADD MSTORE DUP5 MSTORE SWAP3 DUP5 ADD SWAP3 DUP2 ADD PUSH2 0x1F81 JUMP JUMPDEST PUSH1 0x0 PUSH1 0x20 DUP1 DUP4 DUP6 SUB SLT ISZERO PUSH2 0x1FF9 JUMPI PUSH1 0x0 DUP1 REVERT JUMPDEST DUP3 MLOAD PUSH1 0x1 PUSH1 0x1 PUSH1 0x40 SHL SUB DUP1 DUP3 GT ISZERO PUSH2 0x2010 JUMPI PUSH1 0x0 DUP1 REVERT JUMPDEST DUP2 DUP6 ADD SWAP2 POP DUP6 PUSH1 0x1F DUP4 ADD SLT PUSH2 0x2024 JUMPI PUSH1 0x0 DUP1 REVERT JUMPDEST DUP2 MLOAD PUSH2 0x2032 PUSH2 0x1C8F DUP3 PUSH2 0x1C14 JUMP JUMPDEST DUP2 DUP2 MSTORE PUSH1 0x5 SWAP2 SWAP1 SWAP2 SHL DUP4 ADD DUP5 ADD SWAP1 DUP5 DUP2 ADD SWAP1 DUP9 DUP4 GT ISZERO PUSH2 0x2051 JUMPI PUSH1 0x0 DUP1 REVERT JUMPDEST DUP6 DUP6 ADD JUMPDEST DUP4 DUP2 LT ISZERO PUSH2 0x2135 JUMPI DUP1 MLOAD DUP6 DUP2 GT ISZERO PUSH2 0x206D JUMPI PUSH1 0x0 DUP1 DUP2 REVERT JUMPDEST DUP7 ADD PUSH2 0x1E0 DUP2 DUP13 SUB PUSH1 0x1F NOT ADD DUP2 SGT ISZERO PUSH2 0x2086 JUMPI PUSH1 0x0 DUP1 DUP2 REVERT JUMPDEST PUSH2 0x208E PUSH2 0x1A31 JUMP JUMPDEST PUSH2 0x2099 DUP11 DUP5 ADD PUSH2 0x1C37 JUMP JUMPDEST DUP2 MSTORE PUSH1 0x40 PUSH2 0x20A8 DUP2 DUP6 ADD PUSH2 0x1EE1 JUMP JUMPDEST DUP12 DUP4 ADD MSTORE PUSH1 0x60 PUSH2 0x20B9 DUP2 DUP7 ADD PUSH2 0x1C37 JUMP JUMPDEST DUP3 DUP5 ADD MSTORE PUSH1 0x80 SWAP2 POP DUP2 DUP6 ADD MLOAD DUP2 DUP5 ADD MSTORE POP PUSH1 0xA0 PUSH2 0x20D8 DUP16 DUP3 DUP8 ADD PUSH2 0x1CFB JUMP JUMPDEST DUP3 DUP5 ADD MSTORE PUSH2 0x180 DUP6 ADD MLOAD DUP2 DUP5 ADD MSTORE POP POP PUSH2 0x1A0 DUP4 ADD MLOAD PUSH1 0xC0 DUP3 ADD MSTORE PUSH2 0x1C0 DUP4 ADD MLOAD PUSH1 0xE0 DUP3 ADD MSTORE DUP2 DUP4 ADD MLOAD SWAP2 POP DUP8 DUP3 GT ISZERO PUSH2 0x2112 JUMPI PUSH1 0x0 DUP1 DUP2 REVERT JUMPDEST PUSH2 0x2120 DUP14 DUP12 DUP5 DUP7 ADD ADD PUSH2 0x1F3D JUMP JUMPDEST PUSH2 0x100 DUP3 ADD MSTORE DUP6 MSTORE POP POP SWAP2 DUP7 ADD SWAP2 DUP7 ADD PUSH2 0x2055 JUMP JUMPDEST POP SWAP9 SWAP8 POP POP POP POP POP POP POP POP JUMP JUMPDEST DUP1 DUP3 ADD DUP1 DUP3 GT ISZERO PUSH2 0x10E4 JUMPI PUSH2 0x10E4 PUSH2 0x1EB2 JUMP JUMPDEST DUP2 DUP2 SUB DUP2 DUP2 GT ISZERO PUSH2 0x10E4 JUMPI PUSH2 0x10E4 PUSH2 0x1EB2 JUMP JUMPDEST PUSH1 0xFF DUP3 DUP2 AND DUP3 DUP3 AND SUB SWAP1 DUP2 GT ISZERO PUSH2 0x10E4 JUMPI PUSH2 0x10E4 PUSH2 0x1EB2 JUMP JUMPDEST PUSH1 0x1 DUP2 DUP2 JUMPDEST DUP1 DUP6 GT ISZERO PUSH2 0x21BC JUMPI DUP2 PUSH1 0x0 NOT DIV DUP3 GT ISZERO PUSH2 0x21A2 JUMPI PUSH2 0x21A2 PUSH2 0x1EB2 JUMP JUMPDEST DUP1 DUP6 AND ISZERO PUSH2 0x21AF JUMPI SWAP2 DUP2 MUL SWAP2 JUMPDEST SWAP4 DUP5 SHR SWAP4 SWAP1 DUP1 MUL SWAP1 PUSH2 0x2186 JUMP JUMPDEST POP SWAP3 POP SWAP3 SWAP1 POP JUMP JUMPDEST PUSH1 0x0 DUP3 PUSH2 0x21D3 JUMPI POP PUSH1 0x1 PUSH2 0x10E4 JUMP JUMPDEST DUP2 PUSH2 0x21E0 JUMPI POP PUSH1 0x0 PUSH2 0x10E4 JUMP JUMPDEST DUP2 PUSH1 0x1 DUP2 EQ PUSH2 0x21F6 JUMPI PUSH1 0x2 DUP2 EQ PUSH2 0x2200 JUMPI PUSH2 0x221C JUMP JUMPDEST PUSH1 0x1 SWAP2 POP POP PUSH2 0x10E4 JUMP JUMPDEST PUSH1 0xFF DUP5 GT ISZERO PUSH2 0x2211 JUMPI PUSH2 0x2211 PUSH2 0x1EB2 JUMP JUMPDEST POP POP PUSH1 0x1 DUP3 SHL PUSH2 0x10E4 JUMP JUMPDEST POP PUSH1 0x20 DUP4 LT PUSH2 0x133 DUP4 LT AND PUSH1 0x4E DUP5 LT PUSH1 0xB DUP5 LT AND OR ISZERO PUSH2 0x223F JUMPI POP DUP2 DUP2 EXP PUSH2 0x10E4 JUMP JUMPDEST PUSH2 0x2249 DUP4 DUP4 PUSH2 0x2181 JUMP JUMPDEST DUP1 PUSH1 0x0 NOT DIV DUP3 GT ISZERO PUSH2 0x225D JUMPI PUSH2 0x225D PUSH2 0x1EB2 JUMP JUMPDEST MUL SWAP4 SWAP3 POP POP POP JUMP JUMPDEST PUSH1 0x0 PUSH2 0x162F PUSH1 0xFF DUP5 AND DUP4 PUSH2 0x21C4 JUMP JUMPDEST PUSH4 0x4E487B71 PUSH1 0xE0 SHL PUSH1 0x0 MSTORE PUSH1 0x12 PUSH1 0x4 MSTORE PUSH1 0x24 PUSH1 0x0 REVERT JUMPDEST PUSH1 0x0 DUP3 PUSH2 0x22A7 JUMPI PUSH4 0x4E487B71 PUSH1 0xE0 SHL PUSH1 0x0 MSTORE PUSH1 0x12 PUSH1 0x4 MSTORE PUSH1 0x24 PUSH1 0x0 REVERT JUMPDEST POP DIV SWAP1 JUMP JUMPDEST DUP1 DUP3 MUL DUP2 ISZERO DUP3 DUP3 DIV DUP5 EQ OR PUSH2 0x10E4 JUMPI PUSH2 0x10E4 PUSH2 0x1EB2 JUMP INVALID LOG2 PUSH5 0x6970667358 0x22 SLT KECCAK256 PUSH11 0x2365D0ECC67DFEA6B068B9 DUP9 0x1E SWAP7 STOP 0xCF 0xC1 0x22 CODECOPY 0xC8 0xD4 CALLCODE EQ 0xAF 0x5F JUMPDEST 0xAC 0xFB SAR 0xA9 SWAP6 PUSH5 0x736F6C6343 STOP ADDMOD GT STOP CALLER ","sha1":"e1faeaac26651a9f80b8ab84b24ae5cb5e404340","source":"// SPDX-License-Identifier: LicenseRef-Gyro-1.0\n// for information on licensing please see the README in the GitHub repository <https://github.com/gyrostable/core-protocol>.\npragma solidity ^0.8.4;\n\nimport \"@openzeppelin/contracts/token/ERC20/ERC20.sol\";\n\nimport \"../libraries/FixedPoint.sol\";\nimport \"../libraries/ConfigHelpers.sol\";\nimport \"../libraries/DecimalScale.sol\";\nimport \"../libraries/ConfigKeys.sol\";\nimport \"../libraries/VaultMetadataExtension.sol\";\n\nimport \"../interfaces/IReserveManager.sol\";\nimport \"../interfaces/oracles/IBatchVaultPriceOracle.sol\";\nimport \"../interfaces/IVaultRegistry.sol\";\nimport \"../interfaces/IAssetRegistry.sol\";\nimport \"../interfaces/IGyroConfig.sol\";\nimport \"../interfaces/IGyroVault.sol\";\n\nimport \"./auth/Governable.sol\";\n\ncontract ReserveManager is IReserveManager, Governable {\n    using FixedPoint for uint256;\n    using ConfigHelpers for IGyroConfig;\n    using DecimalScale for uint256;\n    using VaultMetadataExtension for DataTypes.PersistedVaultMetadata;\n\n    uint256 public constant DEFAULT_VAULT_DUST_THRESHOLD = 500e18;\n\n    IVaultRegistry public immutable vaultRegistry;\n    IAssetRegistry public immutable assetRegistry;\n    address public immutable reserveAddress;\n    IGyroConfig public immutable gyroConfig;\n\n    constructor(address governor, IGyroConfig _gyroConfig) Governable(governor) {\n        vaultRegistry = _gyroConfig.getVaultRegistry();\n        assetRegistry = _gyroConfig.getAssetRegistry();\n        reserveAddress = address(_gyroConfig.getReserve());\n\n        gyroConfig = _gyroConfig;\n    }\n\n    /// @inheritdoc IReserveManager\n    function getReserveState() public view returns (DataTypes.ReserveState memory) {\n        address[] memory vaultAddresses = vaultRegistry.listVaults();\n        if (vaultAddresses.length == 0) {\n            return DataTypes.ReserveState({vaults: new DataTypes.VaultInfo[](0), totalUSDValue: 0});\n        }\n\n        uint256 length = vaultAddresses.length;\n        DataTypes.VaultInfo[] memory vaultsInfo = new DataTypes.VaultInfo[](length);\n\n        for (uint256 i = 0; i < length; i++) {\n            DataTypes.PersistedVaultMetadata memory persistedMetadata;\n            persistedMetadata = vaultRegistry.getVaultMetadata(vaultAddresses[i]);\n\n            IERC20Metadata vault = IERC20Metadata(vaultAddresses[i]);\n            uint256 reserveBalance = vault.balanceOf(reserveAddress);\n\n            IERC20[] memory tokens = IGyroVault(vaultAddresses[i]).getTokens();\n            DataTypes.PricedToken[] memory pricedTokens = new DataTypes.PricedToken[](\n                tokens.length\n            );\n            for (uint256 j = 0; j < tokens.length; j++) {\n                bool isStable = assetRegistry.isAssetStable(address(tokens[j]));\n                DataTypes.Range memory range;\n                if (isStable) {\n                    range = assetRegistry.getAssetRange(address(tokens[j]));\n                }\n                pricedTokens[j] = DataTypes.PricedToken({\n                    tokenAddress: address(tokens[j]),\n                    isStable: isStable,\n                    price: 0,\n                    priceRange: range\n                });\n            }\n\n            vaultsInfo[i] = DataTypes.VaultInfo({\n                vault: vaultAddresses[i],\n                decimals: IERC20Metadata(vaultAddresses[i]).decimals(),\n                underlying: IGyroVault(vaultAddresses[i]).underlying(),\n                persistedMetadata: persistedMetadata,\n                reserveBalance: reserveBalance,\n                price: 0,\n                currentWeight: 0,\n                targetWeight: 0,\n                pricedTokens: pricedTokens\n            });\n        }\n\n        vaultsInfo = gyroConfig.getRootPriceOracle().fetchPricesUSD(vaultsInfo);\n\n        uint256 reserveUSDValue = 0;\n        uint256[] memory usdValues = new uint256[](length);\n\n        for (uint256 i = 0; i < length; i++) {\n            DataTypes.VaultInfo memory vaultInfo = vaultsInfo[i];\n            uint256 scaledReserveBalance = vaultInfo.reserveBalance.scaleFrom(vaultInfo.decimals);\n            uint256 usdValue = vaultsInfo[i].price.mulDown(scaledReserveBalance);\n            usdValues[i] = usdValue;\n            reserveUSDValue += usdValue;\n        }\n        for (uint256 i = 0; i < length; i++) {\n            // Only zero at initialization\n            // (or in a theoretical corner case when literally all GYD have been redeemed at collateralization ==\n            // exactly 1)\n            vaultsInfo[i].currentWeight = reserveUSDValue == 0\n                ? vaultsInfo[i].persistedMetadata.scheduleWeight()\n                : usdValues[i].divDown(reserveUSDValue);\n        }\n\n        uint256 returnsSum = 0;\n        uint256[] memory weightedReturns = new uint256[](length);\n        for (uint256 i = 0; i < length; i++) {\n            uint256 initialPrice = vaultsInfo[i].persistedMetadata.priceAtCalibration;\n            weightedReturns[i] = vaultsInfo[i].price.divDown(initialPrice).mulDown(\n                vaultsInfo[i].persistedMetadata.scheduleWeight()\n            );\n            returnsSum += weightedReturns[i];\n        }\n\n        // only 0 at initialization\n        if (returnsSum > 0) {\n            uint256 totaltargetWeight = 0;\n            for (uint256 i = 0; i < length; i++) {\n                uint256 targetWeight = weightedReturns[i].divUp(returnsSum);\n                if (totaltargetWeight + targetWeight > FixedPoint.ONE) {\n                    targetWeight = FixedPoint.ONE - totaltargetWeight;\n                }\n                vaultsInfo[i].targetWeight = targetWeight;\n                totaltargetWeight += targetWeight;\n            }\n        }\n\n        return DataTypes.ReserveState({vaults: vaultsInfo, totalUSDValue: reserveUSDValue});\n    }\n\n    function setVaults(DataTypes.VaultConfiguration[] calldata vaults) external governanceOnly {\n        _ensureValuableVaultsNotRemoved(vaults);\n        vaultRegistry.setVaults(vaults);\n    }\n\n    function _ensureValuableVaultsNotRemoved(DataTypes.VaultConfiguration[] memory vaults)\n        internal\n        view\n    {\n        DataTypes.ReserveState memory previousState = getReserveState();\n        for (uint256 i; i < previousState.vaults.length; i++) {\n            DataTypes.VaultInfo memory vaultInfo = previousState.vaults[i];\n            require(!_isValuableVaultRemoved(vaultInfo, vaults), Errors.VAULT_CANNOT_BE_REMOVED);\n        }\n    }\n\n    function _isValuableVaultRemoved(\n        DataTypes.VaultInfo memory vaultInfo,\n        DataTypes.VaultConfiguration[] memory vaults\n    ) internal view returns (bool) {\n        for (uint256 j; j < vaults.length; j++) {\n            if (vaultInfo.vault == vaults[j].vaultAddress) return false;\n        }\n        uint256 vaultUSDAmount = vaultInfo.price.mulDown(vaultInfo.reserveBalance);\n        uint256 vaultDustThreshold = gyroConfig.getUint(\n            ConfigKeys.VAULT_DUST_THRESHOLD,\n            DEFAULT_VAULT_DUST_THRESHOLD\n        );\n        return vaultUSDAmount >= vaultDustThreshold;\n    }\n}\n","sourcePath":"contracts/ReserveManager.sol","type":"contract","deployment":{"address":"0x5986aF4b0f6F4663DDDe2ff9DCb9A6d3389B3939","chainid":"1","blockHeight":18363466}}