{"abi":[{"inputs":[{"internalType":"address","name":"_governor","type":"address"},{"internalType":"address","name":"_gyroConfig","type":"address"}],"stateMutability":"nonpayable","type":"constructor","name":"constructor"},{"anonymous":false,"inputs":[{"indexed":false,"internalType":"address","name":"newGovernor","type":"address"}],"name":"GovernorChangeRequested","type":"event"},{"anonymous":false,"inputs":[{"indexed":false,"internalType":"address","name":"oldGovernor","type":"address"},{"indexed":false,"internalType":"address","name":"newGovernor","type":"address"}],"name":"GovernorChanged","type":"event"},{"anonymous":false,"inputs":[],"name":"InitiativeCanceled","type":"event"},{"anonymous":false,"inputs":[{"indexed":false,"internalType":"uint256","name":"startTime","type":"uint256"},{"indexed":false,"internalType":"uint256","name":"rewardGYDAmount","type":"uint256"}],"name":"InitiativeCompleted","type":"event"},{"anonymous":false,"inputs":[{"indexed":false,"internalType":"uint256","name":"endTime","type":"uint256"},{"indexed":false,"internalType":"uint256","name":"minCollateralRatio","type":"uint256"},{"indexed":false,"internalType":"uint256","name":"rewardPercentage","type":"uint256"}],"name":"InitiativeStarted","type":"event"},{"inputs":[],"name":"acceptGovernance","outputs":[],"stateMutability":"nonpayable","type":"function"},{"inputs":[],"name":"activeInitiative","outputs":[{"internalType":"uint256","name":"startTime","type":"uint256"},{"internalType":"uint256","name":"endTime","type":"uint256"},{"internalType":"uint256","name":"minCollateralRatio","type":"uint256"},{"internalType":"uint256","name":"maxHealthViolations","type":"uint256"},{"internalType":"uint256","name":"rewardPercentage","type":"uint256"}],"stateMutability":"view","type":"function"},{"inputs":[],"name":"aggSupply","outputs":[{"internalType":"uint256","name":"lastUpdatedTime","type":"uint256"},{"internalType":"uint256","name":"aggSupply","type":"uint256"}],"stateMutability":"view","type":"function"},{"inputs":[],"name":"cancelInitiative","outputs":[],"stateMutability":"nonpayable","type":"function"},{"inputs":[{"internalType":"address","name":"newGovernor","type":"address"}],"name":"changeGovernor","outputs":[],"stateMutability":"nonpayable","type":"function"},{"inputs":[{"components":[{"internalType":"uint256","name":"totalUSDValue","type":"uint256"},{"components":[{"internalType":"address","name":"vault","type":"address"},{"internalType":"uint8","name":"decimals","type":"uint8"},{"internalType":"address","name":"underlying","type":"address"},{"internalType":"uint256","name":"price","type":"uint256"},{"components":[{"internalType":"uint256","name":"priceAtCalibration","type":"uint256"},{"internalType":"uint256","name":"weightAtCalibration","type":"uint256"},{"internalType":"uint256","name":"shortFlowMemory","type":"uint256"},{"internalType":"uint256","name":"shortFlowThreshold","type":"uint256"},{"internalType":"uint64","name":"weightTransitionDuration","type":"uint64"},{"internalType":"uint64","name":"weightAtPreviousCalibration","type":"uint64"},{"internalType":"uint64","name":"timeOfCalibration","type":"uint64"}],"internalType":"struct DataTypes.PersistedVaultMetadata","name":"persistedMetadata","type":"tuple"},{"internalType":"uint256","name":"reserveBalance","type":"uint256"},{"internalType":"uint256","name":"currentWeight","type":"uint256"},{"internalType":"uint256","name":"targetWeight","type":"uint256"},{"components":[{"internalType":"address","name":"tokenAddress","type":"address"},{"internalType":"bool","name":"isStable","type":"bool"},{"internalType":"uint256","name":"price","type":"uint256"},{"components":[{"internalType":"uint256","name":"floor","type":"uint256"},{"internalType":"uint256","name":"ceiling","type":"uint256"}],"internalType":"struct DataTypes.Range","name":"priceRange","type":"tuple"}],"internalType":"struct DataTypes.PricedToken[]","name":"pricedTokens","type":"tuple[]"}],"internalType":"struct DataTypes.VaultInfo[]","name":"vaults","type":"tuple[]"}],"internalType":"struct DataTypes.ReserveState","name":"reserveState","type":"tuple"}],"name":"checkpoint","outputs":[],"stateMutability":"nonpayable","type":"function"},{"inputs":[],"name":"checkpoint","outputs":[],"stateMutability":"nonpayable","type":"function"},{"inputs":[],"name":"completeInitiative","outputs":[],"stateMutability":"nonpayable","type":"function"},{"inputs":[],"name":"governor","outputs":[{"internalType":"address","name":"","type":"address"}],"stateMutability":"view","type":"function"},{"inputs":[],"name":"gydToken","outputs":[{"internalType":"contract IGYDToken","name":"","type":"address"}],"stateMutability":"view","type":"function"},{"inputs":[],"name":"gyroConfig","outputs":[{"internalType":"contract IGyroConfig","name":"","type":"address"}],"stateMutability":"view","type":"function"},{"inputs":[],"name":"hasActiveInitiative","outputs":[{"internalType":"bool","name":"","type":"bool"}],"stateMutability":"view","type":"function"},{"inputs":[],"name":"hasFailed","outputs":[{"internalType":"bool","name":"","type":"bool"}],"stateMutability":"view","type":"function"},{"inputs":[],"name":"pendingGovernor","outputs":[{"internalType":"address","name":"","type":"address"}],"stateMutability":"view","type":"function"},{"inputs":[],"name":"reserveHealthViolations","outputs":[{"internalType":"uint256","name":"lastViolatedDate","type":"uint256"},{"internalType":"uint256","name":"nViolations","type":"uint256"}],"stateMutability":"view","type":"function"},{"inputs":[{"internalType":"uint256","name":"rewardPercentage","type":"uint256"}],"name":"startInitiative","outputs":[],"stateMutability":"nonpayable","type":"function"},{"inputs":[],"name":"tentativeRewards","outputs":[{"internalType":"uint256","name":"gydAmount","type":"uint256"}],"stateMutability":"view","type":"function"}],"bytecode":"60c06040523480156200001157600080fd5b50604051620025743803806200257483398101604081905262000034916200016e565b600080546001600160a01b0319166001600160a01b038416908117825560408051928352602083019190915283917fde4b3f61490b74c0ed6237523974fe299126bbbf8a8a7482fd220104c59b0c84910160405180910390a1506001600160a01b0381166080819052620000b490620000c9602090811b62000f1317901c565b6001600160a01b031660a05250620001cb9050565b6040516321f8a72160e01b8152704759445f544f4b454e5f4144445245535360781b60048201526000906001600160a01b038316906321f8a72190602401602060405180830381865afa15801562000125573d6000803e3d6000fd5b505050506040513d601f19601f820116820180604052508101906200014b9190620001a6565b92915050565b80516001600160a01b03811681146200016957600080fd5b919050565b600080604083850312156200018257600080fd5b6200018d8362000151565b91506200019d6020840162000151565b90509250929050565b600060208284031215620001b957600080fd5b620001c48262000151565b9392505050565b60805160a0516123286200024c6000396000610285015260008181610199015281816102ae015281816104e50152818161066d015281816107f60152818161082c015281816108620152818161099501528181610a3001528181610c4c01528181610da1015281816110140152818161114d015261143d01526123286000f3fe608060405234801561001057600080fd5b506004361061010b5760003560e01c80636e521181116100a2578063c1fd431911610071578063c1fd43191461024a578063c2c4c5c114610252578063e3056a341461025a578063e4c0aaf41461026d578063fbf600281461028057600080fd5b80636e521181146101ff578063708b1fed1461021257806390d0c7e61461022a578063b44410c71461023457600080fd5b806344bbdb55116100de57806344bbdb551461019457806347e41771146101bb5780636c1a3364146101ce5780636c78ec1d146101f157600080fd5b806302358fb9146101105780630c340a241461011a5780632131662a1461014a578063238efcbc1461018c575b600080fd5b6101186102a7565b005b60005461012d906001600160a01b031681565b6040516001600160a01b0390911681526020015b60405180910390f35b600254600354600454600554600654610164949392919085565b604080519586526020860194909452928401919091526060830152608082015260a001610141565b6101186105b8565b61012d7f000000000000000000000000000000000000000000000000000000000000000081565b6101186101c9366004611ba2565b610668565b6007546008546101dc919082565b60408051928352602083019190915201610141565b600954600a546101dc919082565b61011861020d366004611d2f565b6106f7565b61021a610c04565b6040519015158152602001610141565b600354151561021a565b61023c610c20565b604051908152602001610141565b610118610d24565b610118610d9a565b60015461012d906001600160a01b031681565b61011861027b366004611d48565b610e3e565b61012d7f000000000000000000000000000000000000000000000000000000000000000081565b60006102db7f00000000000000000000000000000000000000000000000000000000000000006001600160a01b0316610f99565b6001600160a01b031663ef5bac256040518163ffffffff1660e01b8152600401600060405180830381865afa158015610318573d6000803e3d6000fd5b505050506040513d6000823e601f3d908101601f191682016040526103409190810190611ebf565b905061034b81610fe8565b6040805160a0810182526002548152600354602082018190526004549282019290925260055460608201526006546080820152906103c75760405162461bcd60e51b81526020600482015260146024820152736e6f2061637469766520696e697469617469766560601b60448201526064015b60405180910390fd5b428160200151111561041b5760405162461bcd60e51b815260206004820152601b60248201527f696e6974696174697665206e6f742079657420636f6d706c657465000000000060448201526064016103be565b606081015160085411156104875760405162461bcd60e51b815260206004820152602d60248201527f696e6974696174697665206661696c65643a20746f6f206d616e79206865616c60448201526c74682076696f6c6174696f6e7360981b60648201526084016103be565b6000806104948484611143565b91509150806104e05760405162461bcd60e51b8152602060048201526018602482015277636f6c6c61746572616c20726174696f20746f6f206c6f7760401b60448201526064016103be565b6105127f00000000000000000000000000000000000000000000000000000000000000006001600160a01b03166112cb565b6001600160a01b031663900a043f836040518263ffffffff1660e01b815260040161053f91815260200190565b600060405180830381600087803b15801561055957600080fd5b505af115801561056d573d6000803e3d6000fd5b5050845160408051918252602082018690527f19f559240f66a084e92b410bb0ab37df63ac26eff3437796b6c9b2237a897b83935001905060405180910390a1505060006003555050565b600154604080518082019091526002815261033360f41b6020820152906001600160a01b031633146105fd5760405162461bcd60e51b81526004016103be9190612039565b5060008054600180546001600160a01b03198084166001600160a01b03808416919091179095551690556040805192909116808352336020840152917fde4b3f61490b74c0ed6237523974fe299126bbbf8a8a7482fd220104c59b0c8491015b60405180910390a150565b61069a7f00000000000000000000000000000000000000000000000000000000000000006001600160a01b03166112cb565b6001600160a01b0316336001600160a01b0316146106eb5760405162461bcd60e51b815260206004820152600e60248201526d1b9bdd08185d5d1a1bdc9a5e995960921b60448201526064016103be565b6106f481610fe8565b50565b600054604080518082019091526002815261033360f41b6020820152906001600160a01b0316331461073c5760405162461bcd60e51b81526004016103be9190612039565b506706f05b59d3b200008111156107955760405162461bcd60e51b815260206004820152601a60248201527f7265776172642070657263656e7461676520746f6f206869676800000000000060448201526064016103be565b600354156107ef5760405162461bcd60e51b815260206004820152602160248201527f61637469766520696e697469617469766520616c72656164792070726573656e6044820152601d60fa1b60648201526084016103be565b60006108237f00000000000000000000000000000000000000000000000000000000000000006001600160a01b0316611310565b905060006108597f00000000000000000000000000000000000000000000000000000000000000006001600160a01b0316611395565b9050600061088f7f00000000000000000000000000000000000000000000000000000000000000006001600160a01b03166113e4565b9050670de0b6b3a76400008310156108e95760405162461bcd60e51b815260206004820152601c60248201527f6d696e20636f6c6c61746572616c20726174696f20746f6f206c6f770000000060448201526064016103be565b600a82111561093a5760405162461bcd60e51b815260206004820152601e60248201527f6d6178206865616c74682076696f6c6174696f6e7320746f6f2068696768000060448201526064016103be565b6301e1338081101561098e5760405162461bcd60e51b815260206004820152601c60248201527f696e63656e74697665206475726174696f6e20746f6f2073686f72740000000060448201526064016103be565b60006109c27f00000000000000000000000000000000000000000000000000000000000000006001600160a01b0316610f99565b6001600160a01b031663ef5bac256040518163ffffffff1660e01b8152600401600060405180830381865afa1580156109ff573d6000803e3d6000fd5b505050506040513d6000823e601f3d908101601f19168201604052610a279190810190611ebf565b90506000610a5d7f00000000000000000000000000000000000000000000000000000000000000006001600160a01b03166112cb565b6001600160a01b031663c1bd8cf96040518163ffffffff1660e01b8152600401602060405180830381865afa158015610a9a573d6000803e3d6000fd5b505050506040513d601f19601f82011682018060405250810190610abe9190612087565b90506000610ad582610acf85611433565b90611471565b905085811015610b225760405162461bcd60e51b8152602060048201526018602482015277636f6c6c61746572616c20726174696f20746f6f206c6f7760401b60448201526064016103be565b604080518082018252600080825260209182018190526007819055600881905582518084018452428082529083018290526009819055600a829055835160a08101909452808452909291820190610b7a9088906120b6565b815260208082018a905260408083018a905260609283018c905283516002558382015160038190558482015160048190558585015160055560808601516006819055835192835293820152908101919091529192507f5194ee1c849a5656c562ddb20a538f9f87cc2b99a28c40068c33622c2f5bfc09910160405180910390a15050505050505050565b60035460009015801590610c1b5750600554600854115b905090565b6003546000908103610c325750600090565b610c3a610c04565b15610c455750600090565b6000610c797f00000000000000000000000000000000000000000000000000000000000000006001600160a01b0316610f99565b6001600160a01b031663ef5bac256040518163ffffffff1660e01b8152600401600060405180830381865afa158015610cb6573d6000803e3d6000fd5b505050506040513d6000823e601f3d908101601f19168201604052610cde9190810190611ebf565b6040805160a081018252600254815260035460208201526004549181019190915260055460608201526006546080820152909150610d1d908290611143565b5092915050565b600054604080518082019091526002815261033360f41b6020820152906001600160a01b03163314610d695760405162461bcd60e51b81526004016103be9190612039565b50600060038190556040517f6341b91be4593568b9cc34eb0394f7a6dbf75728938805e9deadc2c63f966fc89190a1565b6000610dce7f00000000000000000000000000000000000000000000000000000000000000006001600160a01b0316610f99565b6001600160a01b031663ef5bac256040518163ffffffff1660e01b8152600401600060405180830381865afa158015610e0b573d6000803e3d6000fd5b505050506040513d6000823e601f3d908101601f19168201604052610e339190810190611ebf565b90506106f481610fe8565b600054604080518082019091526002815261033360f41b6020820152906001600160a01b03163314610e835760405162461bcd60e51b81526004016103be9190612039565b50604080518082019091526002815261333160f01b60208201526001600160a01b038216610ec45760405162461bcd60e51b81526004016103be9190612039565b50600180546001600160a01b0319166001600160a01b0383169081179091556040519081527f67235ba2e63c748a35b95c4f92a3bbc2a1389938170a5ce6c9add5d0b03a314a9060200161065d565b6040516321f8a72160e01b8152704759445f544f4b454e5f4144445245535360781b60048201526000906001600160a01b038316906321f8a721906024015b602060405180830381865afa158015610f6f573d6000803e3d6000fd5b505050506040513d601f19601f82011682018060405250810190610f9391906120c9565b92915050565b6040516321f8a72160e01b81527f524553455256455f4d414e414745525f4144445245535300000000000000000060048201526000906001600160a01b038316906321f8a72190602401610f52565b6003546000819003610ff8575050565b42600082821115611009578261100b565b815b905060006110417f00000000000000000000000000000000000000000000000000000000000000006001600160a01b03166112cb565b6001600160a01b031663c1bd8cf96040518163ffffffff1660e01b8152600401602060405180830381865afa15801561107e573d6000803e3d6000fd5b505050506040513d601f19601f820116820180604052508101906110a29190612087565b60095490915081906110b490846120e6565b6110be91906120f9565b600a80546000906110d09084906120b6565b90915550506009829055838311156110e9575050505050565b60006110f882610acf88611433565b60045490915081101561113b576000611110426114e4565b9050806007600001541015611139576008805460009061112f90612110565b9091555060078190555b505b505050505050565b600080600061117a7f00000000000000000000000000000000000000000000000000000000000000006001600160a01b03166112cb565b6001600160a01b031663c1bd8cf96040518163ffffffff1660e01b8152600401602060405180830381865afa1580156111b7573d6000803e3d6000fd5b505050506040513d601f19601f820116820180604052508101906111db9190612087565b90506000846000015185602001516111f391906120e6565b90506000816009600101546112089190612129565b905060006112238288608001516114f390919063ffffffff16565b905060006112388860400151610acf8b611433565b905080851115611253576000809650965050505050506112c4565b600061125f86836120e6565b9050829750808811156112b957600061129b61127b838b6120e6565b61129567016345785d8a0000670de0b6b3a76400006120b6565b906114f3565b90508881106112ab5760006112b5565b6112b5818a6120e6565b9850505b506001955050505050505b9250929050565b6040516321f8a72160e01b8152724d4f54484552424f4152445f4144445245535360681b60048201526000906001600160a01b038316906321f8a72190602401610f52565b60405163bd02d0f560e01b81527529aa22aba0a92229a424a82fa4a721afa6a4a72fa1a960511b60048201526000906001600160a01b0383169063bd02d0f5906024015b602060405180830381865afa158015611371573d6000803e3d6000fd5b505050506040513d601f19601f82011682018060405250810190610f939190612087565b60405163bd02d0f560e01b81527f53544557415244534849505f494e435f4d41585f56494f4c4154494f4e53000060048201526000906001600160a01b0383169063bd02d0f590602401611354565b60405163bd02d0f560e01b81527f53544557415244534849505f494e435f4455524154494f4e000000000000000060048201526000906001600160a01b0383169063bd02d0f590602401611354565b6000610f9361146a7f00000000000000000000000000000000000000000000000000000000000000006001600160a01b0316611514565b8390611563565b604080518082019091526002815261323560f01b6020820152600090826114ab5760405162461bcd60e51b81526004016103be9190612039565b50826000036114bc57506000610f93565b60006114d0670de0b6b3a7640000856120f9565b90506114dc8382612129565b949350505050565b6000610f936201518083612129565b60008061150083856120f9565b90506114dc670de0b6b3a764000082612129565b6040516321f8a72160e01b81527f524f4f545f50524943455f4f5241434c455f414444524553530000000000000060048201526000906001600160a01b038316906321f8a72190602401610f52565b60008060005b8460200151518110156115f15760008560200151828151811061158e5761158e61214b565b6020026020010151905060006115a482876115f9565b905060006115c383602001518460a0015161167e90919063ffffffff16565b90506115cf81836114f3565b6115d990866120b6565b945050505080806115e990612110565b915050611569565b509392505050565b60008061160c84610100015160006116e6565b845160405163b32b752d60e01b81529192506001600160a01b0385169163b32b752d9161163d918590600401612161565b602060405180830381865afa15801561165a573d6000803e3d6000fd5b505050506040513d601f19601f820116820180604052508101906114dc9190612087565b600060111960ff831601611693575081610f93565b601260ff831611156116c6576116aa6012836121e6565b6116b590600a6122e3565b6116bf9084612129565b9050610f93565b6116d18260126121e6565b6116dc90600a6122e3565b6116bf90846120f9565b60606000835167ffffffffffffffff811115611704576117046118e7565b60405190808252806020026020018201604052801561176c57816020015b6117596040805160808101825260008082526020808301829052828401829052835180850190945281845283015290606082015290565b8152602001906001900390816117225790505b50905060005b84518110156115f15784818151811061178d5761178d61214b565b6020026020010151600001518282815181106117ab576117ab61214b565b60209081029190910101516001600160a01b03909116905284518590829081106117d7576117d761214b565b6020026020010151602001518282815181106117f5576117f561214b565b6020026020010151602001901515908115158152505084818151811061181d5761181d61214b565b602002602001015160200151801561185f5750670de0b6b3a764000085828151811061184b5761184b61214b565b602002602001015160400151101515841515145b1561189457670de0b6b3a764000082828151811061187f5761187f61214b565b602002602001015160400181815250506118d5565b8481815181106118a6576118a661214b565b6020026020010151604001518282815181106118c4576118c461214b565b602002602001015160400181815250505b806118df81612110565b915050611772565b634e487b7160e01b600052604160045260246000fd5b60405160e0810167ffffffffffffffff81118282101715611920576119206118e7565b60405290565b6040516080810167ffffffffffffffff81118282101715611920576119206118e7565b6040805190810167ffffffffffffffff81118282101715611920576119206118e7565b604051610120810167ffffffffffffffff81118282101715611920576119206118e7565b604051601f8201601f1916810167ffffffffffffffff811182821017156119b9576119b96118e7565b604052919050565b600067ffffffffffffffff8211156119db576119db6118e7565b5060051b60200190565b6001600160a01b03811681146106f457600080fd5b8035611a05816119e5565b919050565b60ff811681146106f457600080fd5b8035611a0581611a0a565b67ffffffffffffffff811681146106f457600080fd5b600060e08284031215611a4c57600080fd5b611a546118fd565b9050813581526020820135602082015260408201356040820152606082013560608201526080820135611a8681611a24565b608082015260a0820135611a9981611a24565b60a082015260c0820135611aac81611a24565b60c082015292915050565b80151581146106f457600080fd5b600082601f830112611ad657600080fd5b81356020611aeb611ae6836119c1565b611990565b82815260a09283028501820192828201919087851115611b0a57600080fd5b8387015b85811015611b955780890382811215611b275760008081fd5b611b2f611926565b8235611b3a816119e5565b815282870135611b4981611ab7565b81880152604083810135818301526060605f198401821315611b6b5760008081fd5b611b73611949565b85820135815260808601358a8201529083015250855250928401928101611b0e565b5090979650505050505050565b60006020808385031215611bb557600080fd5b823567ffffffffffffffff80821115611bcd57600080fd5b9084019060408287031215611be157600080fd5b611be9611949565b823581528383013582811115611bfe57600080fd5b80840193505086601f840112611c1357600080fd5b8235611c21611ae6826119c1565b81815260059190911b84018501908581019089831115611c4057600080fd5b8686015b83811015611d1c57803586811115611c5b57600080fd5b87016101e0818d03601f1901811315611c7357600080fd5b611c7b61196c565b611c868b84016119fa565b8152611c9460408401611a19565b8b820152611ca4606084016119fa565b60408201526080830135606082015260a0611cc18f828601611a3a565b6080830152610180840135908201526101a083013560c08201526101c083013560e0820152908201359088821115611cf95760008081fd5b611d078e8c84860101611ac5565b61010082015285525050918701918701611c44565b5095830195909552509695505050505050565b600060208284031215611d4157600080fd5b5035919050565b600060208284031215611d5a57600080fd5b8135611d65816119e5565b9392505050565b8051611a05816119e5565b8051611a0581611a0a565b600060e08284031215611d9457600080fd5b611d9c6118fd565b9050815181526020820151602082015260408201516040820152606082015160608201526080820151611dce81611a24565b608082015260a0820151611de181611a24565b60a082015260c0820151611aac81611a24565b600082601f830112611e0557600080fd5b81516020611e15611ae6836119c1565b82815260a09283028501820192828201919087851115611e3457600080fd5b8387015b85811015611b955780890382811215611e515760008081fd5b611e59611926565b8251611e64816119e5565b815282870151611e7381611ab7565b81880152604083810151818301526060605f198401821315611e955760008081fd5b611e9d611949565b85820151815260808601518a8201529083015250855250928401928101611e38565b60006020808385031215611ed257600080fd5b825167ffffffffffffffff80821115611eea57600080fd5b9084019060408287031215611efe57600080fd5b611f06611949565b825181528383015182811115611f1b57600080fd5b80840193505086601f840112611f3057600080fd5b8251611f3e611ae6826119c1565b81815260059190911b84018501908581019089831115611f5d57600080fd5b8686015b83811015611d1c57805186811115611f7857600080fd5b87016101e0818d03601f1901811315611f9057600080fd5b611f9861196c565b611fa38b8401611d6c565b8152611fb160408401611d77565b8b820152611fc160608401611d6c565b60408201526080830151606082015260a0611fde8f828601611d82565b6080830152610180840151908201526101a083015160c08201526101c083015160e08201529082015190888211156120165760008081fd5b6120248e8c84860101611df4565b61010082015285525050918701918701611f61565b600060208083528351808285015260005b818110156120665785810183015185820160400152820161204a565b506000604082860101526040601f19601f8301168501019250505092915050565b60006020828403121561209957600080fd5b5051919050565b634e487b7160e01b600052601160045260246000fd5b80820180821115610f9357610f936120a0565b6000602082840312156120db57600080fd5b8151611d65816119e5565b81810381811115610f9357610f936120a0565b8082028115828204841417610f9357610f936120a0565b600060018201612122576121226120a0565b5060010190565b60008261214657634e487b7160e01b600052601260045260246000fd5b500490565b634e487b7160e01b600052603260045260246000fd5b6001600160a01b038381168252604060208084018290528451848301819052600093606092909183870190888301875b828110156121d6578151805187168552858101511515868601528881015189860152870151805188860152850151608085015260a09093019290840190600101612191565b50919a9950505050505050505050565b60ff8281168282160390811115610f9357610f936120a0565b600181815b8085111561223a578160001904821115612220576122206120a0565b8085161561222d57918102915b93841c9390800290612204565b509250929050565b60008261225157506001610f93565b8161225e57506000610f93565b8160018114612274576002811461227e5761229a565b6001915050610f93565b60ff84111561228f5761228f6120a0565b50506001821b610f93565b5060208310610133831016604e8410600b84101617156122bd575081810a610f93565b6122c783836121ff565b80600019048211156122db576122db6120a0565b029392505050565b6000611d6560ff84168361224256fea26469706673582212200a9c302021e7db7bdcd6eaec51c6d85d673a6e9ad9f138067d04be5cc4f70cc264736f6c63430008110033","bytecodeSha1":"672ec50015d9b89198000f90aab301b070a24d78","compiler":{"evm_version":"london","optimizer":{"enabled":true,"runs":200},"version":"0.8.17+commit.8df45f5f"},"contractName":"ReserveStewardshipIncentives","language":"Solidity","natspec":{"kind":"dev","methods":{"acceptGovernance()":{"notice":"Called by the pending governor to approve the change"},"cancelInitiative()":{"notice":"Cancel the active initiative without claming rewards"},"changeGovernor(address)":{"notice":"Changes the governor can only be called by the current governor"},"checkpoint((uint256,(address,uint8,address,uint256,(uint256,uint256,uint256,uint256,uint64,uint64,uint64),uint256,uint256,uint256,(address,bool,uint256,(uint256,uint256))[])[]))":{"notice":"Variant of `checkpoint()` where the reserve state is passed in; only callable by Motherboard."},"checkpoint()":{"notice":"Update the internally tracked variables. Called internally but can also be called by anyone."},"completeInitiative()":{"notice":"Complete the active initiative and claim rewards. Rewards are sent to the governance treasury address. The initiative period must have passed while the reserve health conditions have held, and they must currently still hold. Callable by anyone."},"governor()":{"notice":"Returns the current governor"},"hasActiveInitiative()":{"notice":"Whether there is an active initiative."},"hasFailed()":{"notice":"Whether the initiative has already failed. This does *not* include any information based on the current state that would be included when `checkpoint()` is called. `false` if there is no active initiative."},"pendingGovernor()":{"notice":"Returns the pending governor"},"startInitiative(uint256)":{"notice":"Create new incentive initiative.","params":{"rewardPercentage":"Share of the average GYD supply over time that should be paid as a reward. How much *will* actually be paid will also depend on the system state when the incentive is completed."}},"tentativeRewards()":{"notice":"Rewards (in GYD) that the governance treasury would receive if the initiative had ended and `completeInitiative()` was called now."}},"version":1},"opcodes":"PUSH1 0x80 PUSH1 0x40 MSTORE CALLVALUE DUP1 ISZERO PUSH2 0x10 JUMPI PUSH1 0x0 DUP1 REVERT JUMPDEST POP PUSH1 0x4 CALLDATASIZE LT PUSH2 0x10B JUMPI PUSH1 0x0 CALLDATALOAD PUSH1 0xE0 SHR DUP1 PUSH4 0x6E521181 GT PUSH2 0xA2 JUMPI DUP1 PUSH4 0xC1FD4319 GT PUSH2 0x71 JUMPI DUP1 PUSH4 0xC1FD4319 EQ PUSH2 0x24A JUMPI DUP1 PUSH4 0xC2C4C5C1 EQ PUSH2 0x252 JUMPI DUP1 PUSH4 0xE3056A34 EQ PUSH2 0x25A JUMPI DUP1 PUSH4 0xE4C0AAF4 EQ PUSH2 0x26D JUMPI DUP1 PUSH4 0xFBF60028 EQ PUSH2 0x280 JUMPI PUSH1 0x0 DUP1 REVERT JUMPDEST DUP1 PUSH4 0x6E521181 EQ PUSH2 0x1FF JUMPI DUP1 PUSH4 0x708B1FED EQ PUSH2 0x212 JUMPI DUP1 PUSH4 0x90D0C7E6 EQ PUSH2 0x22A JUMPI DUP1 PUSH4 0xB44410C7 EQ PUSH2 0x234 JUMPI PUSH1 0x0 DUP1 REVERT JUMPDEST DUP1 PUSH4 0x44BBDB55 GT PUSH2 0xDE JUMPI DUP1 PUSH4 0x44BBDB55 EQ PUSH2 0x194 JUMPI DUP1 PUSH4 0x47E41771 EQ PUSH2 0x1BB JUMPI DUP1 PUSH4 0x6C1A3364 EQ PUSH2 0x1CE JUMPI DUP1 PUSH4 0x6C78EC1D EQ PUSH2 0x1F1 JUMPI PUSH1 0x0 DUP1 REVERT JUMPDEST DUP1 PUSH4 0x2358FB9 EQ PUSH2 0x110 JUMPI DUP1 PUSH4 0xC340A24 EQ PUSH2 0x11A JUMPI DUP1 PUSH4 0x2131662A EQ PUSH2 0x14A JUMPI DUP1 PUSH4 0x238EFCBC EQ PUSH2 0x18C JUMPI JUMPDEST PUSH1 0x0 DUP1 REVERT JUMPDEST PUSH2 0x118 PUSH2 0x2A7 JUMP JUMPDEST STOP JUMPDEST PUSH1 0x0 SLOAD PUSH2 0x12D SWAP1 PUSH1 0x1 PUSH1 0x1 PUSH1 0xA0 SHL SUB AND DUP2 JUMP JUMPDEST PUSH1 0x40 MLOAD PUSH1 0x1 PUSH1 0x1 PUSH1 0xA0 SHL SUB SWAP1 SWAP2 AND DUP2 MSTORE PUSH1 0x20 ADD JUMPDEST PUSH1 0x40 MLOAD DUP1 SWAP2 SUB SWAP1 RETURN JUMPDEST PUSH1 0x2 SLOAD PUSH1 0x3 SLOAD PUSH1 0x4 SLOAD PUSH1 0x5 SLOAD PUSH1 0x6 SLOAD PUSH2 0x164 SWAP5 SWAP4 SWAP3 SWAP2 SWAP1 DUP6 JUMP JUMPDEST PUSH1 0x40 DUP1 MLOAD SWAP6 DUP7 MSTORE PUSH1 0x20 DUP7 ADD SWAP5 SWAP1 SWAP5 MSTORE SWAP3 DUP5 ADD SWAP2 SWAP1 SWAP2 MSTORE PUSH1 0x60 DUP4 ADD MSTORE PUSH1 0x80 DUP3 ADD MSTORE PUSH1 0xA0 ADD PUSH2 0x141 JUMP JUMPDEST PUSH2 0x118 PUSH2 0x5B8 JUMP JUMPDEST PUSH2 0x12D PUSH32 0x0 DUP2 JUMP JUMPDEST PUSH2 0x118 PUSH2 0x1C9 CALLDATASIZE PUSH1 0x4 PUSH2 0x1BA2 JUMP JUMPDEST PUSH2 0x668 JUMP JUMPDEST PUSH1 0x7 SLOAD PUSH1 0x8 SLOAD PUSH2 0x1DC SWAP2 SWAP1 DUP3 JUMP JUMPDEST PUSH1 0x40 DUP1 MLOAD SWAP3 DUP4 MSTORE PUSH1 0x20 DUP4 ADD SWAP2 SWAP1 SWAP2 MSTORE ADD PUSH2 0x141 JUMP JUMPDEST PUSH1 0x9 SLOAD PUSH1 0xA SLOAD PUSH2 0x1DC SWAP2 SWAP1 DUP3 JUMP JUMPDEST PUSH2 0x118 PUSH2 0x20D CALLDATASIZE PUSH1 0x4 PUSH2 0x1D2F JUMP JUMPDEST PUSH2 0x6F7 JUMP JUMPDEST PUSH2 0x21A PUSH2 0xC04 JUMP JUMPDEST PUSH1 0x40 MLOAD SWAP1 ISZERO ISZERO DUP2 MSTORE PUSH1 0x20 ADD PUSH2 0x141 JUMP JUMPDEST PUSH1 0x3 SLOAD ISZERO ISZERO PUSH2 0x21A JUMP JUMPDEST PUSH2 0x23C PUSH2 0xC20 JUMP JUMPDEST PUSH1 0x40 MLOAD SWAP1 DUP2 MSTORE PUSH1 0x20 ADD PUSH2 0x141 JUMP JUMPDEST PUSH2 0x118 PUSH2 0xD24 JUMP JUMPDEST PUSH2 0x118 PUSH2 0xD9A JUMP JUMPDEST PUSH1 0x1 SLOAD PUSH2 0x12D SWAP1 PUSH1 0x1 PUSH1 0x1 PUSH1 0xA0 SHL SUB AND DUP2 JUMP JUMPDEST PUSH2 0x118 PUSH2 0x27B CALLDATASIZE PUSH1 0x4 PUSH2 0x1D48 JUMP JUMPDEST PUSH2 0xE3E JUMP JUMPDEST PUSH2 0x12D PUSH32 0x0 DUP2 JUMP JUMPDEST PUSH1 0x0 PUSH2 0x2DB PUSH32 0x0 PUSH1 0x1 PUSH1 0x1 PUSH1 0xA0 SHL SUB AND PUSH2 0xF99 JUMP JUMPDEST PUSH1 0x1 PUSH1 0x1 PUSH1 0xA0 SHL SUB AND PUSH4 0xEF5BAC25 PUSH1 0x40 MLOAD DUP2 PUSH4 0xFFFFFFFF AND PUSH1 0xE0 SHL DUP2 MSTORE PUSH1 0x4 ADD PUSH1 0x0 PUSH1 0x40 MLOAD DUP1 DUP4 SUB DUP2 DUP7 GAS STATICCALL ISZERO DUP1 ISZERO PUSH2 0x318 JUMPI RETURNDATASIZE PUSH1 0x0 DUP1 RETURNDATACOPY RETURNDATASIZE PUSH1 0x0 REVERT JUMPDEST POP POP POP POP PUSH1 0x40 MLOAD RETURNDATASIZE PUSH1 0x0 DUP3 RETURNDATACOPY PUSH1 0x1F RETURNDATASIZE SWAP1 DUP2 ADD PUSH1 0x1F NOT AND DUP3 ADD PUSH1 0x40 MSTORE PUSH2 0x340 SWAP2 SWAP1 DUP2 ADD SWAP1 PUSH2 0x1EBF JUMP JUMPDEST SWAP1 POP PUSH2 0x34B DUP2 PUSH2 0xFE8 JUMP JUMPDEST PUSH1 0x40 DUP1 MLOAD PUSH1 0xA0 DUP2 ADD DUP3 MSTORE PUSH1 0x2 SLOAD DUP2 MSTORE PUSH1 0x3 SLOAD PUSH1 0x20 DUP3 ADD DUP2 SWAP1 MSTORE PUSH1 0x4 SLOAD SWAP3 DUP3 ADD SWAP3 SWAP1 SWAP3 MSTORE PUSH1 0x5 SLOAD PUSH1 0x60 DUP3 ADD MSTORE PUSH1 0x6 SLOAD PUSH1 0x80 DUP3 ADD MSTORE SWAP1 PUSH2 0x3C7 JUMPI PUSH1 0x40 MLOAD PUSH3 0x461BCD PUSH1 0xE5 SHL DUP2 MSTORE PUSH1 0x20 PUSH1 0x4 DUP3 ADD MSTORE PUSH1 0x14 PUSH1 0x24 DUP3 ADD MSTORE PUSH20 0x6E6F2061637469766520696E6974696174697665 PUSH1 0x60 SHL PUSH1 0x44 DUP3 ADD MSTORE PUSH1 0x64 ADD JUMPDEST PUSH1 0x40 MLOAD DUP1 SWAP2 SUB SWAP1 REVERT JUMPDEST TIMESTAMP DUP2 PUSH1 0x20 ADD MLOAD GT ISZERO PUSH2 0x41B JUMPI PUSH1 0x40 MLOAD PUSH3 0x461BCD PUSH1 0xE5 SHL DUP2 MSTORE PUSH1 0x20 PUSH1 0x4 DUP3 ADD MSTORE PUSH1 0x1B PUSH1 0x24 DUP3 ADD MSTORE PUSH32 0x696E6974696174697665206E6F742079657420636F6D706C6574650000000000 PUSH1 0x44 DUP3 ADD MSTORE PUSH1 0x64 ADD PUSH2 0x3BE JUMP JUMPDEST PUSH1 0x60 DUP2 ADD MLOAD PUSH1 0x8 SLOAD GT ISZERO PUSH2 0x487 JUMPI PUSH1 0x40 MLOAD PUSH3 0x461BCD PUSH1 0xE5 SHL DUP2 MSTORE PUSH1 0x20 PUSH1 0x4 DUP3 ADD MSTORE PUSH1 0x2D PUSH1 0x24 DUP3 ADD MSTORE PUSH32 0x696E6974696174697665206661696C65643A20746F6F206D616E79206865616C PUSH1 0x44 DUP3 ADD MSTORE PUSH13 0x74682076696F6C6174696F6E73 PUSH1 0x98 SHL PUSH1 0x64 DUP3 ADD MSTORE PUSH1 0x84 ADD PUSH2 0x3BE JUMP JUMPDEST PUSH1 0x0 DUP1 PUSH2 0x494 DUP5 DUP5 PUSH2 0x1143 JUMP JUMPDEST SWAP2 POP SWAP2 POP DUP1 PUSH2 0x4E0 JUMPI PUSH1 0x40 MLOAD PUSH3 0x461BCD PUSH1 0xE5 SHL DUP2 MSTORE PUSH1 0x20 PUSH1 0x4 DUP3 ADD MSTORE PUSH1 0x18 PUSH1 0x24 DUP3 ADD MSTORE PUSH24 0x636F6C6C61746572616C20726174696F20746F6F206C6F77 PUSH1 0x40 SHL PUSH1 0x44 DUP3 ADD MSTORE PUSH1 0x64 ADD PUSH2 0x3BE JUMP JUMPDEST PUSH2 0x512 PUSH32 0x0 PUSH1 0x1 PUSH1 0x1 PUSH1 0xA0 SHL SUB AND PUSH2 0x12CB JUMP JUMPDEST PUSH1 0x1 PUSH1 0x1 PUSH1 0xA0 SHL SUB AND PUSH4 0x900A043F DUP4 PUSH1 0x40 MLOAD DUP3 PUSH4 0xFFFFFFFF AND PUSH1 0xE0 SHL DUP2 MSTORE PUSH1 0x4 ADD PUSH2 0x53F SWAP2 DUP2 MSTORE PUSH1 0x20 ADD SWAP1 JUMP JUMPDEST PUSH1 0x0 PUSH1 0x40 MLOAD DUP1 DUP4 SUB DUP2 PUSH1 0x0 DUP8 DUP1 EXTCODESIZE ISZERO DUP1 ISZERO PUSH2 0x559 JUMPI PUSH1 0x0 DUP1 REVERT JUMPDEST POP GAS CALL ISZERO DUP1 ISZERO PUSH2 0x56D JUMPI RETURNDATASIZE PUSH1 0x0 DUP1 RETURNDATACOPY RETURNDATASIZE PUSH1 0x0 REVERT JUMPDEST POP POP DUP5 MLOAD PUSH1 0x40 DUP1 MLOAD SWAP2 DUP3 MSTORE PUSH1 0x20 DUP3 ADD DUP7 SWAP1 MSTORE PUSH32 0x19F559240F66A084E92B410BB0AB37DF63AC26EFF3437796B6C9B2237A897B83 SWAP4 POP ADD SWAP1 POP PUSH1 0x40 MLOAD DUP1 SWAP2 SUB SWAP1 LOG1 POP POP PUSH1 0x0 PUSH1 0x3 SSTORE POP POP JUMP JUMPDEST PUSH1 0x1 SLOAD PUSH1 0x40 DUP1 MLOAD DUP1 DUP3 ADD SWAP1 SWAP2 MSTORE PUSH1 0x2 DUP2 MSTORE PUSH2 0x333 PUSH1 0xF4 SHL PUSH1 0x20 DUP3 ADD MSTORE SWAP1 PUSH1 0x1 PUSH1 0x1 PUSH1 0xA0 SHL SUB AND CALLER EQ PUSH2 0x5FD JUMPI PUSH1 0x40 MLOAD PUSH3 0x461BCD PUSH1 0xE5 SHL DUP2 MSTORE PUSH1 0x4 ADD PUSH2 0x3BE SWAP2 SWAP1 PUSH2 0x2039 JUMP JUMPDEST POP PUSH1 0x0 DUP1 SLOAD PUSH1 0x1 DUP1 SLOAD PUSH1 0x1 PUSH1 0x1 PUSH1 0xA0 SHL SUB NOT DUP1 DUP5 AND PUSH1 0x1 PUSH1 0x1 PUSH1 0xA0 SHL SUB DUP1 DUP5 AND SWAP2 SWAP1 SWAP2 OR SWAP1 SWAP6 SSTORE AND SWAP1 SSTORE PUSH1 0x40 DUP1 MLOAD SWAP3 SWAP1 SWAP2 AND DUP1 DUP4 MSTORE CALLER PUSH1 0x20 DUP5 ADD MSTORE SWAP2 PUSH32 0xDE4B3F61490B74C0ED6237523974FE299126BBBF8A8A7482FD220104C59B0C84 SWAP2 ADD JUMPDEST PUSH1 0x40 MLOAD DUP1 SWAP2 SUB SWAP1 LOG1 POP JUMP JUMPDEST PUSH2 0x69A PUSH32 0x0 PUSH1 0x1 PUSH1 0x1 PUSH1 0xA0 SHL SUB AND PUSH2 0x12CB JUMP JUMPDEST PUSH1 0x1 PUSH1 0x1 PUSH1 0xA0 SHL SUB AND CALLER PUSH1 0x1 PUSH1 0x1 PUSH1 0xA0 SHL SUB AND EQ PUSH2 0x6EB JUMPI PUSH1 0x40 MLOAD PUSH3 0x461BCD PUSH1 0xE5 SHL DUP2 MSTORE PUSH1 0x20 PUSH1 0x4 DUP3 ADD MSTORE PUSH1 0xE PUSH1 0x24 DUP3 ADD MSTORE PUSH14 0x1B9BDD08185D5D1A1BDC9A5E9959 PUSH1 0x92 SHL PUSH1 0x44 DUP3 ADD MSTORE PUSH1 0x64 ADD PUSH2 0x3BE JUMP JUMPDEST PUSH2 0x6F4 DUP2 PUSH2 0xFE8 JUMP JUMPDEST POP JUMP JUMPDEST PUSH1 0x0 SLOAD PUSH1 0x40 DUP1 MLOAD DUP1 DUP3 ADD SWAP1 SWAP2 MSTORE PUSH1 0x2 DUP2 MSTORE PUSH2 0x333 PUSH1 0xF4 SHL PUSH1 0x20 DUP3 ADD MSTORE SWAP1 PUSH1 0x1 PUSH1 0x1 PUSH1 0xA0 SHL SUB AND CALLER EQ PUSH2 0x73C JUMPI PUSH1 0x40 MLOAD PUSH3 0x461BCD PUSH1 0xE5 SHL DUP2 MSTORE PUSH1 0x4 ADD PUSH2 0x3BE SWAP2 SWAP1 PUSH2 0x2039 JUMP JUMPDEST POP PUSH8 0x6F05B59D3B20000 DUP2 GT ISZERO PUSH2 0x795 JUMPI PUSH1 0x40 MLOAD PUSH3 0x461BCD PUSH1 0xE5 SHL DUP2 MSTORE PUSH1 0x20 PUSH1 0x4 DUP3 ADD MSTORE PUSH1 0x1A PUSH1 0x24 DUP3 ADD MSTORE PUSH32 0x7265776172642070657263656E7461676520746F6F2068696768000000000000 PUSH1 0x44 DUP3 ADD MSTORE PUSH1 0x64 ADD PUSH2 0x3BE JUMP JUMPDEST PUSH1 0x3 SLOAD ISZERO PUSH2 0x7EF JUMPI PUSH1 0x40 MLOAD PUSH3 0x461BCD PUSH1 0xE5 SHL DUP2 MSTORE PUSH1 0x20 PUSH1 0x4 DUP3 ADD MSTORE PUSH1 0x21 PUSH1 0x24 DUP3 ADD MSTORE PUSH32 0x61637469766520696E697469617469766520616C72656164792070726573656E PUSH1 0x44 DUP3 ADD MSTORE PUSH1 0x1D PUSH1 0xFA SHL PUSH1 0x64 DUP3 ADD MSTORE PUSH1 0x84 ADD PUSH2 0x3BE JUMP JUMPDEST PUSH1 0x0 PUSH2 0x823 PUSH32 0x0 PUSH1 0x1 PUSH1 0x1 PUSH1 0xA0 SHL SUB AND PUSH2 0x1310 JUMP JUMPDEST SWAP1 POP PUSH1 0x0 PUSH2 0x859 PUSH32 0x0 PUSH1 0x1 PUSH1 0x1 PUSH1 0xA0 SHL SUB AND PUSH2 0x1395 JUMP JUMPDEST SWAP1 POP PUSH1 0x0 PUSH2 0x88F PUSH32 0x0 PUSH1 0x1 PUSH1 0x1 PUSH1 0xA0 SHL SUB AND PUSH2 0x13E4 JUMP JUMPDEST SWAP1 POP PUSH8 0xDE0B6B3A7640000 DUP4 LT ISZERO PUSH2 0x8E9 JUMPI PUSH1 0x40 MLOAD PUSH3 0x461BCD PUSH1 0xE5 SHL DUP2 MSTORE PUSH1 0x20 PUSH1 0x4 DUP3 ADD MSTORE PUSH1 0x1C PUSH1 0x24 DUP3 ADD MSTORE PUSH32 0x6D696E20636F6C6C61746572616C20726174696F20746F6F206C6F7700000000 PUSH1 0x44 DUP3 ADD MSTORE PUSH1 0x64 ADD PUSH2 0x3BE JUMP JUMPDEST PUSH1 0xA DUP3 GT ISZERO PUSH2 0x93A JUMPI PUSH1 0x40 MLOAD PUSH3 0x461BCD PUSH1 0xE5 SHL DUP2 MSTORE PUSH1 0x20 PUSH1 0x4 DUP3 ADD MSTORE PUSH1 0x1E PUSH1 0x24 DUP3 ADD MSTORE PUSH32 0x6D6178206865616C74682076696F6C6174696F6E7320746F6F20686967680000 PUSH1 0x44 DUP3 ADD MSTORE PUSH1 0x64 ADD PUSH2 0x3BE JUMP JUMPDEST PUSH4 0x1E13380 DUP2 LT ISZERO PUSH2 0x98E JUMPI PUSH1 0x40 MLOAD PUSH3 0x461BCD PUSH1 0xE5 SHL DUP2 MSTORE PUSH1 0x20 PUSH1 0x4 DUP3 ADD MSTORE PUSH1 0x1C PUSH1 0x24 DUP3 ADD MSTORE PUSH32 0x696E63656E74697665206475726174696F6E20746F6F2073686F727400000000 PUSH1 0x44 DUP3 ADD MSTORE PUSH1 0x64 ADD PUSH2 0x3BE JUMP JUMPDEST PUSH1 0x0 PUSH2 0x9C2 PUSH32 0x0 PUSH1 0x1 PUSH1 0x1 PUSH1 0xA0 SHL SUB AND PUSH2 0xF99 JUMP JUMPDEST PUSH1 0x1 PUSH1 0x1 PUSH1 0xA0 SHL SUB AND PUSH4 0xEF5BAC25 PUSH1 0x40 MLOAD DUP2 PUSH4 0xFFFFFFFF AND PUSH1 0xE0 SHL DUP2 MSTORE PUSH1 0x4 ADD PUSH1 0x0 PUSH1 0x40 MLOAD DUP1 DUP4 SUB DUP2 DUP7 GAS STATICCALL ISZERO DUP1 ISZERO PUSH2 0x9FF JUMPI RETURNDATASIZE PUSH1 0x0 DUP1 RETURNDATACOPY RETURNDATASIZE PUSH1 0x0 REVERT JUMPDEST POP POP POP POP PUSH1 0x40 MLOAD RETURNDATASIZE PUSH1 0x0 DUP3 RETURNDATACOPY PUSH1 0x1F RETURNDATASIZE SWAP1 DUP2 ADD PUSH1 0x1F NOT AND DUP3 ADD PUSH1 0x40 MSTORE PUSH2 0xA27 SWAP2 SWAP1 DUP2 ADD SWAP1 PUSH2 0x1EBF JUMP JUMPDEST SWAP1 POP PUSH1 0x0 PUSH2 0xA5D PUSH32 0x0 PUSH1 0x1 PUSH1 0x1 PUSH1 0xA0 SHL SUB AND PUSH2 0x12CB JUMP JUMPDEST PUSH1 0x1 PUSH1 0x1 PUSH1 0xA0 SHL SUB AND PUSH4 0xC1BD8CF9 PUSH1 0x40 MLOAD DUP2 PUSH4 0xFFFFFFFF AND PUSH1 0xE0 SHL DUP2 MSTORE PUSH1 0x4 ADD PUSH1 0x20 PUSH1 0x40 MLOAD DUP1 DUP4 SUB DUP2 DUP7 GAS STATICCALL ISZERO DUP1 ISZERO PUSH2 0xA9A JUMPI RETURNDATASIZE PUSH1 0x0 DUP1 RETURNDATACOPY RETURNDATASIZE PUSH1 0x0 REVERT JUMPDEST POP POP POP POP PUSH1 0x40 MLOAD RETURNDATASIZE PUSH1 0x1F NOT PUSH1 0x1F DUP3 ADD AND DUP3 ADD DUP1 PUSH1 0x40 MSTORE POP DUP2 ADD SWAP1 PUSH2 0xABE SWAP2 SWAP1 PUSH2 0x2087 JUMP JUMPDEST SWAP1 POP PUSH1 0x0 PUSH2 0xAD5 DUP3 PUSH2 0xACF DUP6 PUSH2 0x1433 JUMP JUMPDEST SWAP1 PUSH2 0x1471 JUMP JUMPDEST SWAP1 POP DUP6 DUP2 LT ISZERO PUSH2 0xB22 JUMPI PUSH1 0x40 MLOAD PUSH3 0x461BCD PUSH1 0xE5 SHL DUP2 MSTORE PUSH1 0x20 PUSH1 0x4 DUP3 ADD MSTORE PUSH1 0x18 PUSH1 0x24 DUP3 ADD MSTORE PUSH24 0x636F6C6C61746572616C20726174696F20746F6F206C6F77 PUSH1 0x40 SHL PUSH1 0x44 DUP3 ADD MSTORE PUSH1 0x64 ADD PUSH2 0x3BE JUMP JUMPDEST PUSH1 0x40 DUP1 MLOAD DUP1 DUP3 ADD DUP3 MSTORE PUSH1 0x0 DUP1 DUP3 MSTORE PUSH1 0x20 SWAP2 DUP3 ADD DUP2 SWAP1 MSTORE PUSH1 0x7 DUP2 SWAP1 SSTORE PUSH1 0x8 DUP2 SWAP1 SSTORE DUP3 MLOAD DUP1 DUP5 ADD DUP5 MSTORE TIMESTAMP DUP1 DUP3 MSTORE SWAP1 DUP4 ADD DUP3 SWAP1 MSTORE PUSH1 0x9 DUP2 SWAP1 SSTORE PUSH1 0xA DUP3 SWAP1 SSTORE DUP4 MLOAD PUSH1 0xA0 DUP2 ADD SWAP1 SWAP5 MSTORE DUP1 DUP5 MSTORE SWAP1 SWAP3 SWAP2 DUP3 ADD SWAP1 PUSH2 0xB7A SWAP1 DUP9 SWAP1 PUSH2 0x20B6 JUMP JUMPDEST DUP2 MSTORE PUSH1 0x20 DUP1 DUP3 ADD DUP11 SWAP1 MSTORE PUSH1 0x40 DUP1 DUP4 ADD DUP11 SWAP1 MSTORE PUSH1 0x60 SWAP3 DUP4 ADD DUP13 SWAP1 MSTORE DUP4 MLOAD PUSH1 0x2 SSTORE DUP4 DUP3 ADD MLOAD PUSH1 0x3 DUP2 SWAP1 SSTORE DUP5 DUP3 ADD MLOAD PUSH1 0x4 DUP2 SWAP1 SSTORE DUP6 DUP6 ADD MLOAD PUSH1 0x5 SSTORE PUSH1 0x80 DUP7 ADD MLOAD PUSH1 0x6 DUP2 SWAP1 SSTORE DUP4 MLOAD SWAP3 DUP4 MSTORE SWAP4 DUP3 ADD MSTORE SWAP1 DUP2 ADD SWAP2 SWAP1 SWAP2 MSTORE SWAP2 SWAP3 POP PUSH32 0x5194EE1C849A5656C562DDB20A538F9F87CC2B99A28C40068C33622C2F5BFC09 SWAP2 ADD PUSH1 0x40 MLOAD DUP1 SWAP2 SUB SWAP1 LOG1 POP POP POP POP POP POP POP POP JUMP JUMPDEST PUSH1 0x3 SLOAD PUSH1 0x0 SWAP1 ISZERO DUP1 ISZERO SWAP1 PUSH2 0xC1B JUMPI POP PUSH1 0x5 SLOAD PUSH1 0x8 SLOAD GT JUMPDEST SWAP1 POP SWAP1 JUMP JUMPDEST PUSH1 0x3 SLOAD PUSH1 0x0 SWAP1 DUP2 SUB PUSH2 0xC32 JUMPI POP PUSH1 0x0 SWAP1 JUMP JUMPDEST PUSH2 0xC3A PUSH2 0xC04 JUMP JUMPDEST ISZERO PUSH2 0xC45 JUMPI POP PUSH1 0x0 SWAP1 JUMP JUMPDEST PUSH1 0x0 PUSH2 0xC79 PUSH32 0x0 PUSH1 0x1 PUSH1 0x1 PUSH1 0xA0 SHL SUB AND PUSH2 0xF99 JUMP JUMPDEST PUSH1 0x1 PUSH1 0x1 PUSH1 0xA0 SHL SUB AND PUSH4 0xEF5BAC25 PUSH1 0x40 MLOAD DUP2 PUSH4 0xFFFFFFFF AND PUSH1 0xE0 SHL DUP2 MSTORE PUSH1 0x4 ADD PUSH1 0x0 PUSH1 0x40 MLOAD DUP1 DUP4 SUB DUP2 DUP7 GAS STATICCALL ISZERO DUP1 ISZERO PUSH2 0xCB6 JUMPI RETURNDATASIZE PUSH1 0x0 DUP1 RETURNDATACOPY RETURNDATASIZE PUSH1 0x0 REVERT JUMPDEST POP POP POP POP PUSH1 0x40 MLOAD RETURNDATASIZE PUSH1 0x0 DUP3 RETURNDATACOPY PUSH1 0x1F RETURNDATASIZE SWAP1 DUP2 ADD PUSH1 0x1F NOT AND DUP3 ADD PUSH1 0x40 MSTORE PUSH2 0xCDE SWAP2 SWAP1 DUP2 ADD SWAP1 PUSH2 0x1EBF JUMP JUMPDEST PUSH1 0x40 DUP1 MLOAD PUSH1 0xA0 DUP2 ADD DUP3 MSTORE PUSH1 0x2 SLOAD DUP2 MSTORE PUSH1 0x3 SLOAD PUSH1 0x20 DUP3 ADD MSTORE PUSH1 0x4 SLOAD SWAP2 DUP2 ADD SWAP2 SWAP1 SWAP2 MSTORE PUSH1 0x5 SLOAD PUSH1 0x60 DUP3 ADD MSTORE PUSH1 0x6 SLOAD PUSH1 0x80 DUP3 ADD MSTORE SWAP1 SWAP2 POP PUSH2 0xD1D SWAP1 DUP3 SWAP1 PUSH2 0x1143 JUMP JUMPDEST POP SWAP3 SWAP2 POP POP JUMP JUMPDEST PUSH1 0x0 SLOAD PUSH1 0x40 DUP1 MLOAD DUP1 DUP3 ADD SWAP1 SWAP2 MSTORE PUSH1 0x2 DUP2 MSTORE PUSH2 0x333 PUSH1 0xF4 SHL PUSH1 0x20 DUP3 ADD MSTORE SWAP1 PUSH1 0x1 PUSH1 0x1 PUSH1 0xA0 SHL SUB AND CALLER EQ PUSH2 0xD69 JUMPI PUSH1 0x40 MLOAD PUSH3 0x461BCD PUSH1 0xE5 SHL DUP2 MSTORE PUSH1 0x4 ADD PUSH2 0x3BE SWAP2 SWAP1 PUSH2 0x2039 JUMP JUMPDEST POP PUSH1 0x0 PUSH1 0x3 DUP2 SWAP1 SSTORE PUSH1 0x40 MLOAD PUSH32 0x6341B91BE4593568B9CC34EB0394F7A6DBF75728938805E9DEADC2C63F966FC8 SWAP2 SWAP1 LOG1 JUMP JUMPDEST PUSH1 0x0 PUSH2 0xDCE PUSH32 0x0 PUSH1 0x1 PUSH1 0x1 PUSH1 0xA0 SHL SUB AND PUSH2 0xF99 JUMP JUMPDEST PUSH1 0x1 PUSH1 0x1 PUSH1 0xA0 SHL SUB AND PUSH4 0xEF5BAC25 PUSH1 0x40 MLOAD DUP2 PUSH4 0xFFFFFFFF AND PUSH1 0xE0 SHL DUP2 MSTORE PUSH1 0x4 ADD PUSH1 0x0 PUSH1 0x40 MLOAD DUP1 DUP4 SUB DUP2 DUP7 GAS STATICCALL ISZERO DUP1 ISZERO PUSH2 0xE0B JUMPI RETURNDATASIZE PUSH1 0x0 DUP1 RETURNDATACOPY RETURNDATASIZE PUSH1 0x0 REVERT JUMPDEST POP POP POP POP PUSH1 0x40 MLOAD RETURNDATASIZE PUSH1 0x0 DUP3 RETURNDATACOPY PUSH1 0x1F RETURNDATASIZE SWAP1 DUP2 ADD PUSH1 0x1F NOT AND DUP3 ADD PUSH1 0x40 MSTORE PUSH2 0xE33 SWAP2 SWAP1 DUP2 ADD SWAP1 PUSH2 0x1EBF JUMP JUMPDEST SWAP1 POP PUSH2 0x6F4 DUP2 PUSH2 0xFE8 JUMP JUMPDEST PUSH1 0x0 SLOAD PUSH1 0x40 DUP1 MLOAD DUP1 DUP3 ADD SWAP1 SWAP2 MSTORE PUSH1 0x2 DUP2 MSTORE PUSH2 0x333 PUSH1 0xF4 SHL PUSH1 0x20 DUP3 ADD MSTORE SWAP1 PUSH1 0x1 PUSH1 0x1 PUSH1 0xA0 SHL SUB AND CALLER EQ PUSH2 0xE83 JUMPI PUSH1 0x40 MLOAD PUSH3 0x461BCD PUSH1 0xE5 SHL DUP2 MSTORE PUSH1 0x4 ADD PUSH2 0x3BE SWAP2 SWAP1 PUSH2 0x2039 JUMP JUMPDEST POP PUSH1 0x40 DUP1 MLOAD DUP1 DUP3 ADD SWAP1 SWAP2 MSTORE PUSH1 0x2 DUP2 MSTORE PUSH2 0x3331 PUSH1 0xF0 SHL PUSH1 0x20 DUP3 ADD MSTORE PUSH1 0x1 PUSH1 0x1 PUSH1 0xA0 SHL SUB DUP3 AND PUSH2 0xEC4 JUMPI PUSH1 0x40 MLOAD PUSH3 0x461BCD PUSH1 0xE5 SHL DUP2 MSTORE PUSH1 0x4 ADD PUSH2 0x3BE SWAP2 SWAP1 PUSH2 0x2039 JUMP JUMPDEST POP PUSH1 0x1 DUP1 SLOAD PUSH1 0x1 PUSH1 0x1 PUSH1 0xA0 SHL SUB NOT AND PUSH1 0x1 PUSH1 0x1 PUSH1 0xA0 SHL SUB DUP4 AND SWAP1 DUP2 OR SWAP1 SWAP2 SSTORE PUSH1 0x40 MLOAD SWAP1 DUP2 MSTORE PUSH32 0x67235BA2E63C748A35B95C4F92A3BBC2A1389938170A5CE6C9ADD5D0B03A314A SWAP1 PUSH1 0x20 ADD PUSH2 0x65D JUMP JUMPDEST PUSH1 0x40 MLOAD PUSH4 0x21F8A721 PUSH1 0xE0 SHL DUP2 MSTORE PUSH17 0x4759445F544F4B454E5F41444452455353 PUSH1 0x78 SHL PUSH1 0x4 DUP3 ADD MSTORE PUSH1 0x0 SWAP1 PUSH1 0x1 PUSH1 0x1 PUSH1 0xA0 SHL SUB DUP4 AND SWAP1 PUSH4 0x21F8A721 SWAP1 PUSH1 0x24 ADD JUMPDEST PUSH1 0x20 PUSH1 0x40 MLOAD DUP1 DUP4 SUB DUP2 DUP7 GAS STATICCALL ISZERO DUP1 ISZERO PUSH2 0xF6F JUMPI RETURNDATASIZE PUSH1 0x0 DUP1 RETURNDATACOPY RETURNDATASIZE PUSH1 0x0 REVERT JUMPDEST POP POP POP POP PUSH1 0x40 MLOAD RETURNDATASIZE PUSH1 0x1F NOT PUSH1 0x1F DUP3 ADD AND DUP3 ADD DUP1 PUSH1 0x40 MSTORE POP DUP2 ADD SWAP1 PUSH2 0xF93 SWAP2 SWAP1 PUSH2 0x20C9 JUMP JUMPDEST SWAP3 SWAP2 POP POP JUMP JUMPDEST PUSH1 0x40 MLOAD PUSH4 0x21F8A721 PUSH1 0xE0 SHL DUP2 MSTORE PUSH32 0x524553455256455F4D414E414745525F41444452455353000000000000000000 PUSH1 0x4 DUP3 ADD MSTORE PUSH1 0x0 SWAP1 PUSH1 0x1 PUSH1 0x1 PUSH1 0xA0 SHL SUB DUP4 AND SWAP1 PUSH4 0x21F8A721 SWAP1 PUSH1 0x24 ADD PUSH2 0xF52 JUMP JUMPDEST PUSH1 0x3 SLOAD PUSH1 0x0 DUP2 SWAP1 SUB PUSH2 0xFF8 JUMPI POP POP JUMP JUMPDEST TIMESTAMP PUSH1 0x0 DUP3 DUP3 GT ISZERO PUSH2 0x1009 JUMPI DUP3 PUSH2 0x100B JUMP JUMPDEST DUP2 JUMPDEST SWAP1 POP PUSH1 0x0 PUSH2 0x1041 PUSH32 0x0 PUSH1 0x1 PUSH1 0x1 PUSH1 0xA0 SHL SUB AND PUSH2 0x12CB JUMP JUMPDEST PUSH1 0x1 PUSH1 0x1 PUSH1 0xA0 SHL SUB AND PUSH4 0xC1BD8CF9 PUSH1 0x40 MLOAD DUP2 PUSH4 0xFFFFFFFF AND PUSH1 0xE0 SHL DUP2 MSTORE PUSH1 0x4 ADD PUSH1 0x20 PUSH1 0x40 MLOAD DUP1 DUP4 SUB DUP2 DUP7 GAS STATICCALL ISZERO DUP1 ISZERO PUSH2 0x107E JUMPI RETURNDATASIZE PUSH1 0x0 DUP1 RETURNDATACOPY RETURNDATASIZE PUSH1 0x0 REVERT JUMPDEST POP POP POP POP PUSH1 0x40 MLOAD RETURNDATASIZE PUSH1 0x1F NOT PUSH1 0x1F DUP3 ADD AND DUP3 ADD DUP1 PUSH1 0x40 MSTORE POP DUP2 ADD SWAP1 PUSH2 0x10A2 SWAP2 SWAP1 PUSH2 0x2087 JUMP JUMPDEST PUSH1 0x9 SLOAD SWAP1 SWAP2 POP DUP2 SWAP1 PUSH2 0x10B4 SWAP1 DUP5 PUSH2 0x20E6 JUMP JUMPDEST PUSH2 0x10BE SWAP2 SWAP1 PUSH2 0x20F9 JUMP JUMPDEST PUSH1 0xA DUP1 SLOAD PUSH1 0x0 SWAP1 PUSH2 0x10D0 SWAP1 DUP5 SWAP1 PUSH2 0x20B6 JUMP JUMPDEST SWAP1 SWAP2 SSTORE POP POP PUSH1 0x9 DUP3 SWAP1 SSTORE DUP4 DUP4 GT ISZERO PUSH2 0x10E9 JUMPI POP POP POP POP POP JUMP JUMPDEST PUSH1 0x0 PUSH2 0x10F8 DUP3 PUSH2 0xACF DUP9 PUSH2 0x1433 JUMP JUMPDEST PUSH1 0x4 SLOAD SWAP1 SWAP2 POP DUP2 LT ISZERO PUSH2 0x113B JUMPI PUSH1 0x0 PUSH2 0x1110 TIMESTAMP PUSH2 0x14E4 JUMP JUMPDEST SWAP1 POP DUP1 PUSH1 0x7 PUSH1 0x0 ADD SLOAD LT ISZERO PUSH2 0x1139 JUMPI PUSH1 0x8 DUP1 SLOAD PUSH1 0x0 SWAP1 PUSH2 0x112F SWAP1 PUSH2 0x2110 JUMP JUMPDEST SWAP1 SWAP2 SSTORE POP PUSH1 0x7 DUP2 SWAP1 SSTORE JUMPDEST POP JUMPDEST POP POP POP POP POP POP JUMP JUMPDEST PUSH1 0x0 DUP1 PUSH1 0x0 PUSH2 0x117A PUSH32 0x0 PUSH1 0x1 PUSH1 0x1 PUSH1 0xA0 SHL SUB AND PUSH2 0x12CB JUMP JUMPDEST PUSH1 0x1 PUSH1 0x1 PUSH1 0xA0 SHL SUB AND PUSH4 0xC1BD8CF9 PUSH1 0x40 MLOAD DUP2 PUSH4 0xFFFFFFFF AND PUSH1 0xE0 SHL DUP2 MSTORE PUSH1 0x4 ADD PUSH1 0x20 PUSH1 0x40 MLOAD DUP1 DUP4 SUB DUP2 DUP7 GAS STATICCALL ISZERO DUP1 ISZERO PUSH2 0x11B7 JUMPI RETURNDATASIZE PUSH1 0x0 DUP1 RETURNDATACOPY RETURNDATASIZE PUSH1 0x0 REVERT JUMPDEST POP POP POP POP PUSH1 0x40 MLOAD RETURNDATASIZE PUSH1 0x1F NOT PUSH1 0x1F DUP3 ADD AND DUP3 ADD DUP1 PUSH1 0x40 MSTORE POP DUP2 ADD SWAP1 PUSH2 0x11DB SWAP2 SWAP1 PUSH2 0x2087 JUMP JUMPDEST SWAP1 POP PUSH1 0x0 DUP5 PUSH1 0x0 ADD MLOAD DUP6 PUSH1 0x20 ADD MLOAD PUSH2 0x11F3 SWAP2 SWAP1 PUSH2 0x20E6 JUMP JUMPDEST SWAP1 POP PUSH1 0x0 DUP2 PUSH1 0x9 PUSH1 0x1 ADD SLOAD PUSH2 0x1208 SWAP2 SWAP1 PUSH2 0x2129 JUMP JUMPDEST SWAP1 POP PUSH1 0x0 PUSH2 0x1223 DUP3 DUP9 PUSH1 0x80 ADD MLOAD PUSH2 0x14F3 SWAP1 SWAP2 SWAP1 PUSH4 0xFFFFFFFF AND JUMP JUMPDEST SWAP1 POP PUSH1 0x0 PUSH2 0x1238 DUP9 PUSH1 0x40 ADD MLOAD PUSH2 0xACF DUP12 PUSH2 0x1433 JUMP JUMPDEST SWAP1 POP DUP1 DUP6 GT ISZERO PUSH2 0x1253 JUMPI PUSH1 0x0 DUP1 SWAP7 POP SWAP7 POP POP POP POP POP POP PUSH2 0x12C4 JUMP JUMPDEST PUSH1 0x0 PUSH2 0x125F DUP7 DUP4 PUSH2 0x20E6 JUMP JUMPDEST SWAP1 POP DUP3 SWAP8 POP DUP1 DUP9 GT ISZERO PUSH2 0x12B9 JUMPI PUSH1 0x0 PUSH2 0x129B PUSH2 0x127B DUP4 DUP12 PUSH2 0x20E6 JUMP JUMPDEST PUSH2 0x1295 PUSH8 0x16345785D8A0000 PUSH8 0xDE0B6B3A7640000 PUSH2 0x20B6 JUMP JUMPDEST SWAP1 PUSH2 0x14F3 JUMP JUMPDEST SWAP1 POP DUP9 DUP2 LT PUSH2 0x12AB JUMPI PUSH1 0x0 PUSH2 0x12B5 JUMP JUMPDEST PUSH2 0x12B5 DUP2 DUP11 PUSH2 0x20E6 JUMP JUMPDEST SWAP9 POP POP JUMPDEST POP PUSH1 0x1 SWAP6 POP POP POP POP POP POP JUMPDEST SWAP3 POP SWAP3 SWAP1 POP JUMP JUMPDEST PUSH1 0x40 MLOAD PUSH4 0x21F8A721 PUSH1 0xE0 SHL DUP2 MSTORE PUSH19 0x4D4F54484552424F4152445F41444452455353 PUSH1 0x68 SHL PUSH1 0x4 DUP3 ADD MSTORE PUSH1 0x0 SWAP1 PUSH1 0x1 PUSH1 0x1 PUSH1 0xA0 SHL SUB DUP4 AND SWAP1 PUSH4 0x21F8A721 SWAP1 PUSH1 0x24 ADD PUSH2 0xF52 JUMP JUMPDEST PUSH1 0x40 MLOAD PUSH4 0xBD02D0F5 PUSH1 0xE0 SHL DUP2 MSTORE PUSH22 0x29AA22ABA0A92229A424A82FA4A721AFA6A4A72FA1A9 PUSH1 0x51 SHL PUSH1 0x4 DUP3 ADD MSTORE PUSH1 0x0 SWAP1 PUSH1 0x1 PUSH1 0x1 PUSH1 0xA0 SHL SUB DUP4 AND SWAP1 PUSH4 0xBD02D0F5 SWAP1 PUSH1 0x24 ADD JUMPDEST PUSH1 0x20 PUSH1 0x40 MLOAD DUP1 DUP4 SUB DUP2 DUP7 GAS STATICCALL ISZERO DUP1 ISZERO PUSH2 0x1371 JUMPI RETURNDATASIZE PUSH1 0x0 DUP1 RETURNDATACOPY RETURNDATASIZE PUSH1 0x0 REVERT JUMPDEST POP POP POP POP PUSH1 0x40 MLOAD RETURNDATASIZE PUSH1 0x1F NOT PUSH1 0x1F DUP3 ADD AND DUP3 ADD DUP1 PUSH1 0x40 MSTORE POP DUP2 ADD SWAP1 PUSH2 0xF93 SWAP2 SWAP1 PUSH2 0x2087 JUMP JUMPDEST PUSH1 0x40 MLOAD PUSH4 0xBD02D0F5 PUSH1 0xE0 SHL DUP2 MSTORE PUSH32 0x53544557415244534849505F494E435F4D41585F56494F4C4154494F4E530000 PUSH1 0x4 DUP3 ADD MSTORE PUSH1 0x0 SWAP1 PUSH1 0x1 PUSH1 0x1 PUSH1 0xA0 SHL SUB DUP4 AND SWAP1 PUSH4 0xBD02D0F5 SWAP1 PUSH1 0x24 ADD PUSH2 0x1354 JUMP JUMPDEST PUSH1 0x40 MLOAD PUSH4 0xBD02D0F5 PUSH1 0xE0 SHL DUP2 MSTORE PUSH32 0x53544557415244534849505F494E435F4455524154494F4E0000000000000000 PUSH1 0x4 DUP3 ADD MSTORE PUSH1 0x0 SWAP1 PUSH1 0x1 PUSH1 0x1 PUSH1 0xA0 SHL SUB DUP4 AND SWAP1 PUSH4 0xBD02D0F5 SWAP1 PUSH1 0x24 ADD PUSH2 0x1354 JUMP JUMPDEST PUSH1 0x0 PUSH2 0xF93 PUSH2 0x146A PUSH32 0x0 PUSH1 0x1 PUSH1 0x1 PUSH1 0xA0 SHL SUB AND PUSH2 0x1514 JUMP JUMPDEST DUP4 SWAP1 PUSH2 0x1563 JUMP JUMPDEST PUSH1 0x40 DUP1 MLOAD DUP1 DUP3 ADD SWAP1 SWAP2 MSTORE PUSH1 0x2 DUP2 MSTORE PUSH2 0x3235 PUSH1 0xF0 SHL PUSH1 0x20 DUP3 ADD MSTORE PUSH1 0x0 SWAP1 DUP3 PUSH2 0x14AB JUMPI PUSH1 0x40 MLOAD PUSH3 0x461BCD PUSH1 0xE5 SHL DUP2 MSTORE PUSH1 0x4 ADD PUSH2 0x3BE SWAP2 SWAP1 PUSH2 0x2039 JUMP JUMPDEST POP DUP3 PUSH1 0x0 SUB PUSH2 0x14BC JUMPI POP PUSH1 0x0 PUSH2 0xF93 JUMP JUMPDEST PUSH1 0x0 PUSH2 0x14D0 PUSH8 0xDE0B6B3A7640000 DUP6 PUSH2 0x20F9 JUMP JUMPDEST SWAP1 POP PUSH2 0x14DC DUP4 DUP3 PUSH2 0x2129 JUMP JUMPDEST SWAP5 SWAP4 POP POP POP POP JUMP JUMPDEST PUSH1 0x0 PUSH2 0xF93 PUSH3 0x15180 DUP4 PUSH2 0x2129 JUMP JUMPDEST PUSH1 0x0 DUP1 PUSH2 0x1500 DUP4 DUP6 PUSH2 0x20F9 JUMP JUMPDEST SWAP1 POP PUSH2 0x14DC PUSH8 0xDE0B6B3A7640000 DUP3 PUSH2 0x2129 JUMP JUMPDEST PUSH1 0x40 MLOAD PUSH4 0x21F8A721 PUSH1 0xE0 SHL DUP2 MSTORE PUSH32 0x524F4F545F50524943455F4F5241434C455F4144445245535300000000000000 PUSH1 0x4 DUP3 ADD MSTORE PUSH1 0x0 SWAP1 PUSH1 0x1 PUSH1 0x1 PUSH1 0xA0 SHL SUB DUP4 AND SWAP1 PUSH4 0x21F8A721 SWAP1 PUSH1 0x24 ADD PUSH2 0xF52 JUMP JUMPDEST PUSH1 0x0 DUP1 PUSH1 0x0 JUMPDEST DUP5 PUSH1 0x20 ADD MLOAD MLOAD DUP2 LT ISZERO PUSH2 0x15F1 JUMPI PUSH1 0x0 DUP6 PUSH1 0x20 ADD MLOAD DUP3 DUP2 MLOAD DUP2 LT PUSH2 0x158E JUMPI PUSH2 0x158E PUSH2 0x214B JUMP JUMPDEST PUSH1 0x20 MUL PUSH1 0x20 ADD ADD MLOAD SWAP1 POP PUSH1 0x0 PUSH2 0x15A4 DUP3 DUP8 PUSH2 0x15F9 JUMP JUMPDEST SWAP1 POP PUSH1 0x0 PUSH2 0x15C3 DUP4 PUSH1 0x20 ADD MLOAD DUP5 PUSH1 0xA0 ADD MLOAD PUSH2 0x167E SWAP1 SWAP2 SWAP1 PUSH4 0xFFFFFFFF AND JUMP JUMPDEST SWAP1 POP PUSH2 0x15CF DUP2 DUP4 PUSH2 0x14F3 JUMP JUMPDEST PUSH2 0x15D9 SWAP1 DUP7 PUSH2 0x20B6 JUMP JUMPDEST SWAP5 POP POP POP POP DUP1 DUP1 PUSH2 0x15E9 SWAP1 PUSH2 0x2110 JUMP JUMPDEST SWAP2 POP POP PUSH2 0x1569 JUMP JUMPDEST POP SWAP4 SWAP3 POP POP POP JUMP JUMPDEST PUSH1 0x0 DUP1 PUSH2 0x160C DUP5 PUSH2 0x100 ADD MLOAD PUSH1 0x0 PUSH2 0x16E6 JUMP JUMPDEST DUP5 MLOAD PUSH1 0x40 MLOAD PUSH4 0xB32B752D PUSH1 0xE0 SHL DUP2 MSTORE SWAP2 SWAP3 POP PUSH1 0x1 PUSH1 0x1 PUSH1 0xA0 SHL SUB DUP6 AND SWAP2 PUSH4 0xB32B752D SWAP2 PUSH2 0x163D SWAP2 DUP6 SWAP1 PUSH1 0x4 ADD PUSH2 0x2161 JUMP JUMPDEST PUSH1 0x20 PUSH1 0x40 MLOAD DUP1 DUP4 SUB DUP2 DUP7 GAS STATICCALL ISZERO DUP1 ISZERO PUSH2 0x165A JUMPI RETURNDATASIZE PUSH1 0x0 DUP1 RETURNDATACOPY RETURNDATASIZE PUSH1 0x0 REVERT JUMPDEST POP POP POP POP PUSH1 0x40 MLOAD RETURNDATASIZE PUSH1 0x1F NOT PUSH1 0x1F DUP3 ADD AND DUP3 ADD DUP1 PUSH1 0x40 MSTORE POP DUP2 ADD SWAP1 PUSH2 0x14DC SWAP2 SWAP1 PUSH2 0x2087 JUMP JUMPDEST PUSH1 0x0 PUSH1 0x11 NOT PUSH1 0xFF DUP4 AND ADD PUSH2 0x1693 JUMPI POP DUP2 PUSH2 0xF93 JUMP JUMPDEST PUSH1 0x12 PUSH1 0xFF DUP4 AND GT ISZERO PUSH2 0x16C6 JUMPI PUSH2 0x16AA PUSH1 0x12 DUP4 PUSH2 0x21E6 JUMP JUMPDEST PUSH2 0x16B5 SWAP1 PUSH1 0xA PUSH2 0x22E3 JUMP JUMPDEST PUSH2 0x16BF SWAP1 DUP5 PUSH2 0x2129 JUMP JUMPDEST SWAP1 POP PUSH2 0xF93 JUMP JUMPDEST PUSH2 0x16D1 DUP3 PUSH1 0x12 PUSH2 0x21E6 JUMP JUMPDEST PUSH2 0x16DC SWAP1 PUSH1 0xA PUSH2 0x22E3 JUMP JUMPDEST PUSH2 0x16BF SWAP1 DUP5 PUSH2 0x20F9 JUMP JUMPDEST PUSH1 0x60 PUSH1 0x0 DUP4 MLOAD PUSH8 0xFFFFFFFFFFFFFFFF DUP2 GT ISZERO PUSH2 0x1704 JUMPI PUSH2 0x1704 PUSH2 0x18E7 JUMP JUMPDEST PUSH1 0x40 MLOAD SWAP1 DUP1 DUP3 MSTORE DUP1 PUSH1 0x20 MUL PUSH1 0x20 ADD DUP3 ADD PUSH1 0x40 MSTORE DUP1 ISZERO PUSH2 0x176C JUMPI DUP2 PUSH1 0x20 ADD JUMPDEST PUSH2 0x1759 PUSH1 0x40 DUP1 MLOAD PUSH1 0x80 DUP2 ADD DUP3 MSTORE PUSH1 0x0 DUP1 DUP3 MSTORE PUSH1 0x20 DUP1 DUP4 ADD DUP3 SWAP1 MSTORE DUP3 DUP5 ADD DUP3 SWAP1 MSTORE DUP4 MLOAD DUP1 DUP6 ADD SWAP1 SWAP5 MSTORE DUP2 DUP5 MSTORE DUP4 ADD MSTORE SWAP1 PUSH1 0x60 DUP3 ADD MSTORE SWAP1 JUMP JUMPDEST DUP2 MSTORE PUSH1 0x20 ADD SWAP1 PUSH1 0x1 SWAP1 SUB SWAP1 DUP2 PUSH2 0x1722 JUMPI SWAP1 POP JUMPDEST POP SWAP1 POP PUSH1 0x0 JUMPDEST DUP5 MLOAD DUP2 LT ISZERO PUSH2 0x15F1 JUMPI DUP5 DUP2 DUP2 MLOAD DUP2 LT PUSH2 0x178D JUMPI PUSH2 0x178D PUSH2 0x214B JUMP JUMPDEST PUSH1 0x20 MUL PUSH1 0x20 ADD ADD MLOAD PUSH1 0x0 ADD MLOAD DUP3 DUP3 DUP2 MLOAD DUP2 LT PUSH2 0x17AB JUMPI PUSH2 0x17AB PUSH2 0x214B JUMP JUMPDEST PUSH1 0x20 SWAP1 DUP2 MUL SWAP2 SWAP1 SWAP2 ADD ADD MLOAD PUSH1 0x1 PUSH1 0x1 PUSH1 0xA0 SHL SUB SWAP1 SWAP2 AND SWAP1 MSTORE DUP5 MLOAD DUP6 SWAP1 DUP3 SWAP1 DUP2 LT PUSH2 0x17D7 JUMPI PUSH2 0x17D7 PUSH2 0x214B JUMP JUMPDEST PUSH1 0x20 MUL PUSH1 0x20 ADD ADD MLOAD PUSH1 0x20 ADD MLOAD DUP3 DUP3 DUP2 MLOAD DUP2 LT PUSH2 0x17F5 JUMPI PUSH2 0x17F5 PUSH2 0x214B JUMP JUMPDEST PUSH1 0x20 MUL PUSH1 0x20 ADD ADD MLOAD PUSH1 0x20 ADD SWAP1 ISZERO ISZERO SWAP1 DUP2 ISZERO ISZERO DUP2 MSTORE POP POP DUP5 DUP2 DUP2 MLOAD DUP2 LT PUSH2 0x181D JUMPI PUSH2 0x181D PUSH2 0x214B JUMP JUMPDEST PUSH1 0x20 MUL PUSH1 0x20 ADD ADD MLOAD PUSH1 0x20 ADD MLOAD DUP1 ISZERO PUSH2 0x185F JUMPI POP PUSH8 0xDE0B6B3A7640000 DUP6 DUP3 DUP2 MLOAD DUP2 LT PUSH2 0x184B JUMPI PUSH2 0x184B PUSH2 0x214B JUMP JUMPDEST PUSH1 0x20 MUL PUSH1 0x20 ADD ADD MLOAD PUSH1 0x40 ADD MLOAD LT ISZERO ISZERO DUP5 ISZERO ISZERO EQ JUMPDEST ISZERO PUSH2 0x1894 JUMPI PUSH8 0xDE0B6B3A7640000 DUP3 DUP3 DUP2 MLOAD DUP2 LT PUSH2 0x187F JUMPI PUSH2 0x187F PUSH2 0x214B JUMP JUMPDEST PUSH1 0x20 MUL PUSH1 0x20 ADD ADD MLOAD PUSH1 0x40 ADD DUP2 DUP2 MSTORE POP POP PUSH2 0x18D5 JUMP JUMPDEST DUP5 DUP2 DUP2 MLOAD DUP2 LT PUSH2 0x18A6 JUMPI PUSH2 0x18A6 PUSH2 0x214B JUMP JUMPDEST PUSH1 0x20 MUL PUSH1 0x20 ADD ADD MLOAD PUSH1 0x40 ADD MLOAD DUP3 DUP3 DUP2 MLOAD DUP2 LT PUSH2 0x18C4 JUMPI PUSH2 0x18C4 PUSH2 0x214B JUMP JUMPDEST PUSH1 0x20 MUL PUSH1 0x20 ADD ADD MLOAD PUSH1 0x40 ADD DUP2 DUP2 MSTORE POP POP JUMPDEST DUP1 PUSH2 0x18DF DUP2 PUSH2 0x2110 JUMP JUMPDEST SWAP2 POP POP PUSH2 0x1772 JUMP JUMPDEST PUSH4 0x4E487B71 PUSH1 0xE0 SHL PUSH1 0x0 MSTORE PUSH1 0x41 PUSH1 0x4 MSTORE PUSH1 0x24 PUSH1 0x0 REVERT JUMPDEST PUSH1 0x40 MLOAD PUSH1 0xE0 DUP2 ADD PUSH8 0xFFFFFFFFFFFFFFFF DUP2 GT DUP3 DUP3 LT OR ISZERO PUSH2 0x1920 JUMPI PUSH2 0x1920 PUSH2 0x18E7 JUMP JUMPDEST PUSH1 0x40 MSTORE SWAP1 JUMP JUMPDEST PUSH1 0x40 MLOAD PUSH1 0x80 DUP2 ADD PUSH8 0xFFFFFFFFFFFFFFFF DUP2 GT DUP3 DUP3 LT OR ISZERO PUSH2 0x1920 JUMPI PUSH2 0x1920 PUSH2 0x18E7 JUMP JUMPDEST PUSH1 0x40 DUP1 MLOAD SWAP1 DUP2 ADD PUSH8 0xFFFFFFFFFFFFFFFF DUP2 GT DUP3 DUP3 LT OR ISZERO PUSH2 0x1920 JUMPI PUSH2 0x1920 PUSH2 0x18E7 JUMP JUMPDEST PUSH1 0x40 MLOAD PUSH2 0x120 DUP2 ADD PUSH8 0xFFFFFFFFFFFFFFFF DUP2 GT DUP3 DUP3 LT OR ISZERO PUSH2 0x1920 JUMPI PUSH2 0x1920 PUSH2 0x18E7 JUMP JUMPDEST PUSH1 0x40 MLOAD PUSH1 0x1F DUP3 ADD PUSH1 0x1F NOT AND DUP2 ADD PUSH8 0xFFFFFFFFFFFFFFFF DUP2 GT DUP3 DUP3 LT OR ISZERO PUSH2 0x19B9 JUMPI PUSH2 0x19B9 PUSH2 0x18E7 JUMP JUMPDEST PUSH1 0x40 MSTORE SWAP2 SWAP1 POP JUMP JUMPDEST PUSH1 0x0 PUSH8 0xFFFFFFFFFFFFFFFF DUP3 GT ISZERO PUSH2 0x19DB JUMPI PUSH2 0x19DB PUSH2 0x18E7 JUMP JUMPDEST POP PUSH1 0x5 SHL PUSH1 0x20 ADD SWAP1 JUMP JUMPDEST PUSH1 0x1 PUSH1 0x1 PUSH1 0xA0 SHL SUB DUP2 AND DUP2 EQ PUSH2 0x6F4 JUMPI PUSH1 0x0 DUP1 REVERT JUMPDEST DUP1 CALLDATALOAD PUSH2 0x1A05 DUP2 PUSH2 0x19E5 JUMP JUMPDEST SWAP2 SWAP1 POP JUMP JUMPDEST PUSH1 0xFF DUP2 AND DUP2 EQ PUSH2 0x6F4 JUMPI PUSH1 0x0 DUP1 REVERT JUMPDEST DUP1 CALLDATALOAD PUSH2 0x1A05 DUP2 PUSH2 0x1A0A JUMP JUMPDEST PUSH8 0xFFFFFFFFFFFFFFFF DUP2 AND DUP2 EQ PUSH2 0x6F4 JUMPI PUSH1 0x0 DUP1 REVERT JUMPDEST PUSH1 0x0 PUSH1 0xE0 DUP3 DUP5 SUB SLT ISZERO PUSH2 0x1A4C JUMPI PUSH1 0x0 DUP1 REVERT JUMPDEST PUSH2 0x1A54 PUSH2 0x18FD JUMP JUMPDEST SWAP1 POP DUP2 CALLDATALOAD DUP2 MSTORE PUSH1 0x20 DUP3 ADD CALLDATALOAD PUSH1 0x20 DUP3 ADD MSTORE PUSH1 0x40 DUP3 ADD CALLDATALOAD PUSH1 0x40 DUP3 ADD MSTORE PUSH1 0x60 DUP3 ADD CALLDATALOAD PUSH1 0x60 DUP3 ADD MSTORE PUSH1 0x80 DUP3 ADD CALLDATALOAD PUSH2 0x1A86 DUP2 PUSH2 0x1A24 JUMP JUMPDEST PUSH1 0x80 DUP3 ADD MSTORE PUSH1 0xA0 DUP3 ADD CALLDATALOAD PUSH2 0x1A99 DUP2 PUSH2 0x1A24 JUMP JUMPDEST PUSH1 0xA0 DUP3 ADD MSTORE PUSH1 0xC0 DUP3 ADD CALLDATALOAD PUSH2 0x1AAC DUP2 PUSH2 0x1A24 JUMP JUMPDEST PUSH1 0xC0 DUP3 ADD MSTORE SWAP3 SWAP2 POP POP JUMP JUMPDEST DUP1 ISZERO ISZERO DUP2 EQ PUSH2 0x6F4 JUMPI PUSH1 0x0 DUP1 REVERT JUMPDEST PUSH1 0x0 DUP3 PUSH1 0x1F DUP4 ADD SLT PUSH2 0x1AD6 JUMPI PUSH1 0x0 DUP1 REVERT JUMPDEST DUP2 CALLDATALOAD PUSH1 0x20 PUSH2 0x1AEB PUSH2 0x1AE6 DUP4 PUSH2 0x19C1 JUMP JUMPDEST PUSH2 0x1990 JUMP JUMPDEST DUP3 DUP2 MSTORE PUSH1 0xA0 SWAP3 DUP4 MUL DUP6 ADD DUP3 ADD SWAP3 DUP3 DUP3 ADD SWAP2 SWAP1 DUP8 DUP6 GT ISZERO PUSH2 0x1B0A JUMPI PUSH1 0x0 DUP1 REVERT JUMPDEST DUP4 DUP8 ADD JUMPDEST DUP6 DUP2 LT ISZERO PUSH2 0x1B95 JUMPI DUP1 DUP10 SUB DUP3 DUP2 SLT ISZERO PUSH2 0x1B27 JUMPI PUSH1 0x0 DUP1 DUP2 REVERT JUMPDEST PUSH2 0x1B2F PUSH2 0x1926 JUMP JUMPDEST DUP3 CALLDATALOAD PUSH2 0x1B3A DUP2 PUSH2 0x19E5 JUMP JUMPDEST DUP2 MSTORE DUP3 DUP8 ADD CALLDATALOAD PUSH2 0x1B49 DUP2 PUSH2 0x1AB7 JUMP JUMPDEST DUP2 DUP9 ADD MSTORE PUSH1 0x40 DUP4 DUP2 ADD CALLDATALOAD DUP2 DUP4 ADD MSTORE PUSH1 0x60 PUSH1 0x5F NOT DUP5 ADD DUP3 SGT ISZERO PUSH2 0x1B6B JUMPI PUSH1 0x0 DUP1 DUP2 REVERT JUMPDEST PUSH2 0x1B73 PUSH2 0x1949 JUMP JUMPDEST DUP6 DUP3 ADD CALLDATALOAD DUP2 MSTORE PUSH1 0x80 DUP7 ADD CALLDATALOAD DUP11 DUP3 ADD MSTORE SWAP1 DUP4 ADD MSTORE POP DUP6 MSTORE POP SWAP3 DUP5 ADD SWAP3 DUP2 ADD PUSH2 0x1B0E JUMP JUMPDEST POP SWAP1 SWAP8 SWAP7 POP POP POP POP POP POP POP JUMP JUMPDEST PUSH1 0x0 PUSH1 0x20 DUP1 DUP4 DUP6 SUB SLT ISZERO PUSH2 0x1BB5 JUMPI PUSH1 0x0 DUP1 REVERT JUMPDEST DUP3 CALLDATALOAD PUSH8 0xFFFFFFFFFFFFFFFF DUP1 DUP3 GT ISZERO PUSH2 0x1BCD JUMPI PUSH1 0x0 DUP1 REVERT JUMPDEST SWAP1 DUP5 ADD SWAP1 PUSH1 0x40 DUP3 DUP8 SUB SLT ISZERO PUSH2 0x1BE1 JUMPI PUSH1 0x0 DUP1 REVERT JUMPDEST PUSH2 0x1BE9 PUSH2 0x1949 JUMP JUMPDEST DUP3 CALLDATALOAD DUP2 MSTORE DUP4 DUP4 ADD CALLDATALOAD DUP3 DUP2 GT ISZERO PUSH2 0x1BFE JUMPI PUSH1 0x0 DUP1 REVERT JUMPDEST DUP1 DUP5 ADD SWAP4 POP POP DUP7 PUSH1 0x1F DUP5 ADD SLT PUSH2 0x1C13 JUMPI PUSH1 0x0 DUP1 REVERT JUMPDEST DUP3 CALLDATALOAD PUSH2 0x1C21 PUSH2 0x1AE6 DUP3 PUSH2 0x19C1 JUMP JUMPDEST DUP2 DUP2 MSTORE PUSH1 0x5 SWAP2 SWAP1 SWAP2 SHL DUP5 ADD DUP6 ADD SWAP1 DUP6 DUP2 ADD SWAP1 DUP10 DUP4 GT ISZERO PUSH2 0x1C40 JUMPI PUSH1 0x0 DUP1 REVERT JUMPDEST DUP7 DUP7 ADD JUMPDEST DUP4 DUP2 LT ISZERO PUSH2 0x1D1C JUMPI DUP1 CALLDATALOAD DUP7 DUP2 GT ISZERO PUSH2 0x1C5B JUMPI PUSH1 0x0 DUP1 REVERT JUMPDEST DUP8 ADD PUSH2 0x1E0 DUP2 DUP14 SUB PUSH1 0x1F NOT ADD DUP2 SGT ISZERO PUSH2 0x1C73 JUMPI PUSH1 0x0 DUP1 REVERT JUMPDEST PUSH2 0x1C7B PUSH2 0x196C JUMP JUMPDEST PUSH2 0x1C86 DUP12 DUP5 ADD PUSH2 0x19FA JUMP JUMPDEST DUP2 MSTORE PUSH2 0x1C94 PUSH1 0x40 DUP5 ADD PUSH2 0x1A19 JUMP JUMPDEST DUP12 DUP3 ADD MSTORE PUSH2 0x1CA4 PUSH1 0x60 DUP5 ADD PUSH2 0x19FA JUMP JUMPDEST PUSH1 0x40 DUP3 ADD MSTORE PUSH1 0x80 DUP4 ADD CALLDATALOAD PUSH1 0x60 DUP3 ADD MSTORE PUSH1 0xA0 PUSH2 0x1CC1 DUP16 DUP3 DUP7 ADD PUSH2 0x1A3A JUMP JUMPDEST PUSH1 0x80 DUP4 ADD MSTORE PUSH2 0x180 DUP5 ADD CALLDATALOAD SWAP1 DUP3 ADD MSTORE PUSH2 0x1A0 DUP4 ADD CALLDATALOAD PUSH1 0xC0 DUP3 ADD MSTORE PUSH2 0x1C0 DUP4 ADD CALLDATALOAD PUSH1 0xE0 DUP3 ADD MSTORE SWAP1 DUP3 ADD CALLDATALOAD SWAP1 DUP9 DUP3 GT ISZERO PUSH2 0x1CF9 JUMPI PUSH1 0x0 DUP1 DUP2 REVERT JUMPDEST PUSH2 0x1D07 DUP15 DUP13 DUP5 DUP7 ADD ADD PUSH2 0x1AC5 JUMP JUMPDEST PUSH2 0x100 DUP3 ADD MSTORE DUP6 MSTORE POP POP SWAP2 DUP8 ADD SWAP2 DUP8 ADD PUSH2 0x1C44 JUMP JUMPDEST POP SWAP6 DUP4 ADD SWAP6 SWAP1 SWAP6 MSTORE POP SWAP7 SWAP6 POP POP POP POP POP POP JUMP JUMPDEST PUSH1 0x0 PUSH1 0x20 DUP3 DUP5 SUB SLT ISZERO PUSH2 0x1D41 JUMPI PUSH1 0x0 DUP1 REVERT JUMPDEST POP CALLDATALOAD SWAP2 SWAP1 POP JUMP JUMPDEST PUSH1 0x0 PUSH1 0x20 DUP3 DUP5 SUB SLT ISZERO PUSH2 0x1D5A JUMPI PUSH1 0x0 DUP1 REVERT JUMPDEST DUP2 CALLDATALOAD PUSH2 0x1D65 DUP2 PUSH2 0x19E5 JUMP JUMPDEST SWAP4 SWAP3 POP POP POP JUMP JUMPDEST DUP1 MLOAD PUSH2 0x1A05 DUP2 PUSH2 0x19E5 JUMP JUMPDEST DUP1 MLOAD PUSH2 0x1A05 DUP2 PUSH2 0x1A0A JUMP JUMPDEST PUSH1 0x0 PUSH1 0xE0 DUP3 DUP5 SUB SLT ISZERO PUSH2 0x1D94 JUMPI PUSH1 0x0 DUP1 REVERT JUMPDEST PUSH2 0x1D9C PUSH2 0x18FD JUMP JUMPDEST SWAP1 POP DUP2 MLOAD DUP2 MSTORE PUSH1 0x20 DUP3 ADD MLOAD PUSH1 0x20 DUP3 ADD MSTORE PUSH1 0x40 DUP3 ADD MLOAD PUSH1 0x40 DUP3 ADD MSTORE PUSH1 0x60 DUP3 ADD MLOAD PUSH1 0x60 DUP3 ADD MSTORE PUSH1 0x80 DUP3 ADD MLOAD PUSH2 0x1DCE DUP2 PUSH2 0x1A24 JUMP JUMPDEST PUSH1 0x80 DUP3 ADD MSTORE PUSH1 0xA0 DUP3 ADD MLOAD PUSH2 0x1DE1 DUP2 PUSH2 0x1A24 JUMP JUMPDEST PUSH1 0xA0 DUP3 ADD MSTORE PUSH1 0xC0 DUP3 ADD MLOAD PUSH2 0x1AAC DUP2 PUSH2 0x1A24 JUMP JUMPDEST PUSH1 0x0 DUP3 PUSH1 0x1F DUP4 ADD SLT PUSH2 0x1E05 JUMPI PUSH1 0x0 DUP1 REVERT JUMPDEST DUP2 MLOAD PUSH1 0x20 PUSH2 0x1E15 PUSH2 0x1AE6 DUP4 PUSH2 0x19C1 JUMP JUMPDEST DUP3 DUP2 MSTORE PUSH1 0xA0 SWAP3 DUP4 MUL DUP6 ADD DUP3 ADD SWAP3 DUP3 DUP3 ADD SWAP2 SWAP1 DUP8 DUP6 GT ISZERO PUSH2 0x1E34 JUMPI PUSH1 0x0 DUP1 REVERT JUMPDEST DUP4 DUP8 ADD JUMPDEST DUP6 DUP2 LT ISZERO PUSH2 0x1B95 JUMPI DUP1 DUP10 SUB DUP3 DUP2 SLT ISZERO PUSH2 0x1E51 JUMPI PUSH1 0x0 DUP1 DUP2 REVERT JUMPDEST PUSH2 0x1E59 PUSH2 0x1926 JUMP JUMPDEST DUP3 MLOAD PUSH2 0x1E64 DUP2 PUSH2 0x19E5 JUMP JUMPDEST DUP2 MSTORE DUP3 DUP8 ADD MLOAD PUSH2 0x1E73 DUP2 PUSH2 0x1AB7 JUMP JUMPDEST DUP2 DUP9 ADD MSTORE PUSH1 0x40 DUP4 DUP2 ADD MLOAD DUP2 DUP4 ADD MSTORE PUSH1 0x60 PUSH1 0x5F NOT DUP5 ADD DUP3 SGT ISZERO PUSH2 0x1E95 JUMPI PUSH1 0x0 DUP1 DUP2 REVERT JUMPDEST PUSH2 0x1E9D PUSH2 0x1949 JUMP JUMPDEST DUP6 DUP3 ADD MLOAD DUP2 MSTORE PUSH1 0x80 DUP7 ADD MLOAD DUP11 DUP3 ADD MSTORE SWAP1 DUP4 ADD MSTORE POP DUP6 MSTORE POP SWAP3 DUP5 ADD SWAP3 DUP2 ADD PUSH2 0x1E38 JUMP JUMPDEST PUSH1 0x0 PUSH1 0x20 DUP1 DUP4 DUP6 SUB SLT ISZERO PUSH2 0x1ED2 JUMPI PUSH1 0x0 DUP1 REVERT JUMPDEST DUP3 MLOAD PUSH8 0xFFFFFFFFFFFFFFFF DUP1 DUP3 GT ISZERO PUSH2 0x1EEA JUMPI PUSH1 0x0 DUP1 REVERT JUMPDEST SWAP1 DUP5 ADD SWAP1 PUSH1 0x40 DUP3 DUP8 SUB SLT ISZERO PUSH2 0x1EFE JUMPI PUSH1 0x0 DUP1 REVERT JUMPDEST PUSH2 0x1F06 PUSH2 0x1949 JUMP JUMPDEST DUP3 MLOAD DUP2 MSTORE DUP4 DUP4 ADD MLOAD DUP3 DUP2 GT ISZERO PUSH2 0x1F1B JUMPI PUSH1 0x0 DUP1 REVERT JUMPDEST DUP1 DUP5 ADD SWAP4 POP POP DUP7 PUSH1 0x1F DUP5 ADD SLT PUSH2 0x1F30 JUMPI PUSH1 0x0 DUP1 REVERT JUMPDEST DUP3 MLOAD PUSH2 0x1F3E PUSH2 0x1AE6 DUP3 PUSH2 0x19C1 JUMP JUMPDEST DUP2 DUP2 MSTORE PUSH1 0x5 SWAP2 SWAP1 SWAP2 SHL DUP5 ADD DUP6 ADD SWAP1 DUP6 DUP2 ADD SWAP1 DUP10 DUP4 GT ISZERO PUSH2 0x1F5D JUMPI PUSH1 0x0 DUP1 REVERT JUMPDEST DUP7 DUP7 ADD JUMPDEST DUP4 DUP2 LT ISZERO PUSH2 0x1D1C JUMPI DUP1 MLOAD DUP7 DUP2 GT ISZERO PUSH2 0x1F78 JUMPI PUSH1 0x0 DUP1 REVERT JUMPDEST DUP8 ADD PUSH2 0x1E0 DUP2 DUP14 SUB PUSH1 0x1F NOT ADD DUP2 SGT ISZERO PUSH2 0x1F90 JUMPI PUSH1 0x0 DUP1 REVERT JUMPDEST PUSH2 0x1F98 PUSH2 0x196C JUMP JUMPDEST PUSH2 0x1FA3 DUP12 DUP5 ADD PUSH2 0x1D6C JUMP JUMPDEST DUP2 MSTORE PUSH2 0x1FB1 PUSH1 0x40 DUP5 ADD PUSH2 0x1D77 JUMP JUMPDEST DUP12 DUP3 ADD MSTORE PUSH2 0x1FC1 PUSH1 0x60 DUP5 ADD PUSH2 0x1D6C JUMP JUMPDEST PUSH1 0x40 DUP3 ADD MSTORE PUSH1 0x80 DUP4 ADD MLOAD PUSH1 0x60 DUP3 ADD MSTORE PUSH1 0xA0 PUSH2 0x1FDE DUP16 DUP3 DUP7 ADD PUSH2 0x1D82 JUMP JUMPDEST PUSH1 0x80 DUP4 ADD MSTORE PUSH2 0x180 DUP5 ADD MLOAD SWAP1 DUP3 ADD MSTORE PUSH2 0x1A0 DUP4 ADD MLOAD PUSH1 0xC0 DUP3 ADD MSTORE PUSH2 0x1C0 DUP4 ADD MLOAD PUSH1 0xE0 DUP3 ADD MSTORE SWAP1 DUP3 ADD MLOAD SWAP1 DUP9 DUP3 GT ISZERO PUSH2 0x2016 JUMPI PUSH1 0x0 DUP1 DUP2 REVERT JUMPDEST PUSH2 0x2024 DUP15 DUP13 DUP5 DUP7 ADD ADD PUSH2 0x1DF4 JUMP JUMPDEST PUSH2 0x100 DUP3 ADD MSTORE DUP6 MSTORE POP POP SWAP2 DUP8 ADD SWAP2 DUP8 ADD PUSH2 0x1F61 JUMP JUMPDEST PUSH1 0x0 PUSH1 0x20 DUP1 DUP4 MSTORE DUP4 MLOAD DUP1 DUP3 DUP6 ADD MSTORE PUSH1 0x0 JUMPDEST DUP2 DUP2 LT ISZERO PUSH2 0x2066 JUMPI DUP6 DUP2 ADD DUP4 ADD MLOAD DUP6 DUP3 ADD PUSH1 0x40 ADD MSTORE DUP3 ADD PUSH2 0x204A JUMP JUMPDEST POP PUSH1 0x0 PUSH1 0x40 DUP3 DUP7 ADD ADD MSTORE PUSH1 0x40 PUSH1 0x1F NOT PUSH1 0x1F DUP4 ADD AND DUP6 ADD ADD SWAP3 POP POP POP SWAP3 SWAP2 POP POP JUMP JUMPDEST PUSH1 0x0 PUSH1 0x20 DUP3 DUP5 SUB SLT ISZERO PUSH2 0x2099 JUMPI PUSH1 0x0 DUP1 REVERT JUMPDEST POP MLOAD SWAP2 SWAP1 POP JUMP JUMPDEST PUSH4 0x4E487B71 PUSH1 0xE0 SHL PUSH1 0x0 MSTORE PUSH1 0x11 PUSH1 0x4 MSTORE PUSH1 0x24 PUSH1 0x0 REVERT JUMPDEST DUP1 DUP3 ADD DUP1 DUP3 GT ISZERO PUSH2 0xF93 JUMPI PUSH2 0xF93 PUSH2 0x20A0 JUMP JUMPDEST PUSH1 0x0 PUSH1 0x20 DUP3 DUP5 SUB SLT ISZERO PUSH2 0x20DB JUMPI PUSH1 0x0 DUP1 REVERT JUMPDEST DUP2 MLOAD PUSH2 0x1D65 DUP2 PUSH2 0x19E5 JUMP JUMPDEST DUP2 DUP2 SUB DUP2 DUP2 GT ISZERO PUSH2 0xF93 JUMPI PUSH2 0xF93 PUSH2 0x20A0 JUMP JUMPDEST DUP1 DUP3 MUL DUP2 ISZERO DUP3 DUP3 DIV DUP5 EQ OR PUSH2 0xF93 JUMPI PUSH2 0xF93 PUSH2 0x20A0 JUMP JUMPDEST PUSH1 0x0 PUSH1 0x1 DUP3 ADD PUSH2 0x2122 JUMPI PUSH2 0x2122 PUSH2 0x20A0 JUMP JUMPDEST POP PUSH1 0x1 ADD SWAP1 JUMP JUMPDEST PUSH1 0x0 DUP3 PUSH2 0x2146 JUMPI PUSH4 0x4E487B71 PUSH1 0xE0 SHL PUSH1 0x0 MSTORE PUSH1 0x12 PUSH1 0x4 MSTORE PUSH1 0x24 PUSH1 0x0 REVERT JUMPDEST POP DIV SWAP1 JUMP JUMPDEST PUSH4 0x4E487B71 PUSH1 0xE0 SHL PUSH1 0x0 MSTORE PUSH1 0x32 PUSH1 0x4 MSTORE PUSH1 0x24 PUSH1 0x0 REVERT JUMPDEST PUSH1 0x1 PUSH1 0x1 PUSH1 0xA0 SHL SUB DUP4 DUP2 AND DUP3 MSTORE PUSH1 0x40 PUSH1 0x20 DUP1 DUP5 ADD DUP3 SWAP1 MSTORE DUP5 MLOAD DUP5 DUP4 ADD DUP2 SWAP1 MSTORE PUSH1 0x0 SWAP4 PUSH1 0x60 SWAP3 SWAP1 SWAP2 DUP4 DUP8 ADD SWAP1 DUP9 DUP4 ADD DUP8 JUMPDEST DUP3 DUP2 LT ISZERO PUSH2 0x21D6 JUMPI DUP2 MLOAD DUP1 MLOAD DUP8 AND DUP6 MSTORE DUP6 DUP2 ADD MLOAD ISZERO ISZERO DUP7 DUP7 ADD MSTORE DUP9 DUP2 ADD MLOAD DUP10 DUP7 ADD MSTORE DUP8 ADD MLOAD DUP1 MLOAD DUP9 DUP7 ADD MSTORE DUP6 ADD MLOAD PUSH1 0x80 DUP6 ADD MSTORE PUSH1 0xA0 SWAP1 SWAP4 ADD SWAP3 SWAP1 DUP5 ADD SWAP1 PUSH1 0x1 ADD PUSH2 0x2191 JUMP JUMPDEST POP SWAP2 SWAP11 SWAP10 POP POP POP POP POP POP POP POP POP POP JUMP JUMPDEST PUSH1 0xFF DUP3 DUP2 AND DUP3 DUP3 AND SUB SWAP1 DUP2 GT ISZERO PUSH2 0xF93 JUMPI PUSH2 0xF93 PUSH2 0x20A0 JUMP JUMPDEST PUSH1 0x1 DUP2 DUP2 JUMPDEST DUP1 DUP6 GT ISZERO PUSH2 0x223A JUMPI DUP2 PUSH1 0x0 NOT DIV DUP3 GT ISZERO PUSH2 0x2220 JUMPI PUSH2 0x2220 PUSH2 0x20A0 JUMP JUMPDEST DUP1 DUP6 AND ISZERO PUSH2 0x222D JUMPI SWAP2 DUP2 MUL SWAP2 JUMPDEST SWAP4 DUP5 SHR SWAP4 SWAP1 DUP1 MUL SWAP1 PUSH2 0x2204 JUMP JUMPDEST POP SWAP3 POP SWAP3 SWAP1 POP JUMP JUMPDEST PUSH1 0x0 DUP3 PUSH2 0x2251 JUMPI POP PUSH1 0x1 PUSH2 0xF93 JUMP JUMPDEST DUP2 PUSH2 0x225E JUMPI POP PUSH1 0x0 PUSH2 0xF93 JUMP JUMPDEST DUP2 PUSH1 0x1 DUP2 EQ PUSH2 0x2274 JUMPI PUSH1 0x2 DUP2 EQ PUSH2 0x227E JUMPI PUSH2 0x229A JUMP JUMPDEST PUSH1 0x1 SWAP2 POP POP PUSH2 0xF93 JUMP JUMPDEST PUSH1 0xFF DUP5 GT ISZERO PUSH2 0x228F JUMPI PUSH2 0x228F PUSH2 0x20A0 JUMP JUMPDEST POP POP PUSH1 0x1 DUP3 SHL PUSH2 0xF93 JUMP JUMPDEST POP PUSH1 0x20 DUP4 LT PUSH2 0x133 DUP4 LT AND PUSH1 0x4E DUP5 LT PUSH1 0xB DUP5 LT AND OR ISZERO PUSH2 0x22BD JUMPI POP DUP2 DUP2 EXP PUSH2 0xF93 JUMP JUMPDEST PUSH2 0x22C7 DUP4 DUP4 PUSH2 0x21FF JUMP JUMPDEST DUP1 PUSH1 0x0 NOT DIV DUP3 GT ISZERO PUSH2 0x22DB JUMPI PUSH2 0x22DB PUSH2 0x20A0 JUMP JUMPDEST MUL SWAP4 SWAP3 POP POP POP JUMP JUMPDEST PUSH1 0x0 PUSH2 0x1D65 PUSH1 0xFF DUP5 AND DUP4 PUSH2 0x2242 JUMP INVALID LOG2 PUSH5 0x6970667358 0x22 SLT KECCAK256 EXP SWAP13 ADDRESS KECCAK256 0x21 0xE7 0xDB PUSH28 0xDCD6EAEC51C6D85D673A6E9AD9F138067D04BE5CC4F70CC264736F6C PUSH4 0x43000811 STOP CALLER ","sha1":"53d66ff1350cd0b3ffd8059e36d99fc14ed8d9bc","source":"// SPDX-License-Identifier: LicenseRef-Gyro-1.0\n// for information on licensing please see the README in the GitHub repository <https://github.com/gyrostable/core-protocol>.\npragma solidity ^0.8.0;\n\nimport \"./auth/Governable.sol\";\nimport \"../interfaces/IGyroConfig.sol\";\nimport \"../interfaces/IGYDToken.sol\";\nimport \"../interfaces/IReserveStewardshipIncentives.sol\";\nimport \"../libraries/ConfigHelpers.sol\";\nimport \"../libraries/ReserveStateExtensions.sol\";\nimport \"../libraries/FixedPoint.sol\";\n\ncontract ReserveStewardshipIncentives is IReserveStewardshipIncentives, Governable {\n    using ConfigHelpers for IGyroConfig;\n    using FixedPoint for uint256;\n    using ReserveStateExtensions for DataTypes.ReserveState;\n\n    uint256 internal constant MAX_REWARD_PERCENTAGE = 0.5e18;\n    uint256 internal constant OVERESTIMATION_PENALTY_FACTOR = 0.1e18; // SOMEDAY maybe review\n    uint256 internal constant MAX_MAX_HEALTH_VIOLATIONS = 10;\n    uint256 internal constant MIN_MIN_COLLATERAL_RATIO = 1e18;\n    uint256 internal constant MIN_INITIATIVE_DURATION = 365 days;\n\n    /// @dev We call the collection of incentive start and end times and parameters an \"initiative\".\n    struct Initiative {\n        // SOMEDAY optimization: could be stored with fewer bits to save a slot\n        uint256 startTime; // timestamp\n        uint256 endTime; // timestamp\n        uint256 minCollateralRatio;\n        uint256 maxHealthViolations;\n        uint256 rewardPercentage;\n    }\n    Initiative public activeInitiative; // .endTime = 0 means none is there.\n\n    struct ReserveHealthViolations {\n        // SOMEDAY optimization: could be stored with fewer bits to save a slot\n        uint256 lastViolatedDate; // date\n        uint256 nViolations;\n    }\n    ReserveHealthViolations public reserveHealthViolations;\n\n    /// @dev We store the time integral of the GYD supply to compute the reward at the end based on avg supply.\n    struct AggSupply {\n        uint256 lastUpdatedTime;\n        uint256 aggSupply;\n    }\n    AggSupply public aggSupply;\n\n    IGyroConfig public immutable gyroConfig;\n    IGYDToken public immutable gydToken;\n\n    constructor(address _governor, address _gyroConfig) Governable(_governor) {\n        gyroConfig = IGyroConfig(_gyroConfig);\n        gydToken = gyroConfig.getGYDToken();\n    }\n\n    function startInitiative(uint256 rewardPercentage) external governanceOnly {\n        require(rewardPercentage <= MAX_REWARD_PERCENTAGE, \"reward percentage too high\");\n        require(activeInitiative.endTime == 0, \"active initiative already present\");\n\n        uint256 minCollateralRatio = gyroConfig.getStewardshipIncMinCollateralRatio();\n        uint256 maxHealthViolations = gyroConfig.getStewardshipIncMaxHealthViolations();\n        uint256 duration = gyroConfig.getStewardshipIncDuration();\n\n        require(minCollateralRatio >= MIN_MIN_COLLATERAL_RATIO, \"min collateral ratio too low\");\n        require(maxHealthViolations <= MAX_MAX_HEALTH_VIOLATIONS, \"max health violations too high\");\n        require(duration >= MIN_INITIATIVE_DURATION, \"incentive duration too short\");\n\n        DataTypes.ReserveState memory reserveState = gyroConfig\n            .getReserveManager()\n            .getReserveState();\n        uint256 gydSupply = gyroConfig.getMotherboard().mintedSupply();\n\n        uint256 collateralRatio = _getReserveUSDValue(reserveState).divDown(gydSupply);\n        require(collateralRatio >= minCollateralRatio, \"collateral ratio too low\");\n\n        reserveHealthViolations = ReserveHealthViolations(0, 0);\n\n        aggSupply = AggSupply(block.timestamp, 0);\n\n        Initiative memory initiative = Initiative({\n            startTime: block.timestamp,\n            endTime: block.timestamp + duration,\n            minCollateralRatio: minCollateralRatio,\n            maxHealthViolations: maxHealthViolations,\n            rewardPercentage: rewardPercentage\n        });\n        activeInitiative = initiative;\n        emit InitiativeStarted(\n            initiative.endTime,\n            initiative.minCollateralRatio,\n            initiative.rewardPercentage\n        );\n    }\n\n    function cancelInitiative() external governanceOnly {\n        activeInitiative.endTime = 0;\n        emit InitiativeCanceled();\n    }\n\n    function completeInitiative() external {\n        DataTypes.ReserveState memory reserveState = gyroConfig\n            .getReserveManager()\n            .getReserveState();\n        _checkpoint(reserveState);\n\n        Initiative memory initiative = activeInitiative;\n\n        require(initiative.endTime > 0, \"no active initiative\");\n        require(initiative.endTime <= block.timestamp, \"initiative not yet complete\");\n\n        // Check incentive success\n        require(\n            reserveHealthViolations.nViolations <= initiative.maxHealthViolations,\n            \"initiative failed: too many health violations\"\n        );\n\n        (uint256 reward, bool success) = _initiativeRewards(reserveState, initiative);\n        require(success, \"collateral ratio too low\");\n\n        gyroConfig.getMotherboard().mintStewardshipIncRewards(reward);\n        emit InitiativeCompleted(initiative.startTime, reward);\n\n        activeInitiative.endTime = 0;\n    }\n\n    function _checkpoint(DataTypes.ReserveState memory reserveState) internal {\n        uint256 endTime = activeInitiative.endTime;\n        if (endTime == 0) return;\n\n        uint256 nowTime = block.timestamp;\n\n        // Update aggSupply. If the active initiative has ended, we complete the update wrt. endTime to catch all of the\n        // GYD supply during the period.\n        uint256 aggSupplyUpdateTime = nowTime <= endTime ? nowTime : endTime;\n        uint256 gydSupply = gyroConfig.getMotherboard().mintedSupply();\n        aggSupply.aggSupply += (aggSupplyUpdateTime - aggSupply.lastUpdatedTime) * gydSupply;\n        aggSupply.lastUpdatedTime = aggSupplyUpdateTime;\n\n        if (nowTime > endTime) return;\n\n        // Update reserveHealthViolations. (only if the active initiative is still running)\n        uint256 collateralRatio = _getReserveUSDValue(reserveState).divDown(gydSupply);\n        if (collateralRatio < activeInitiative.minCollateralRatio) {\n            uint256 today = timestampToDatestamp(block.timestamp);\n            if (reserveHealthViolations.lastViolatedDate < today) {\n                ++reserveHealthViolations.nViolations;\n                reserveHealthViolations.lastViolatedDate = today;\n            }\n        }\n    }\n\n    function checkpoint(DataTypes.ReserveState memory reserveState) external {\n        require(msg.sender == address(gyroConfig.getMotherboard()), \"not authorized\");\n        return _checkpoint(reserveState);\n    }\n\n    function checkpoint() external {\n        DataTypes.ReserveState memory reserveState = gyroConfig\n            .getReserveManager()\n            .getReserveState();\n        _checkpoint(reserveState);\n    }\n\n    function hasActiveInitiative() public view returns (bool) {\n        return activeInitiative.endTime > 0;\n    }\n\n    function hasFailed() public view returns (bool) {\n        return\n            activeInitiative.endTime > 0 &&\n            reserveHealthViolations.nViolations > activeInitiative.maxHealthViolations;\n    }\n\n    /// @dev This does *not* do a full check whether the initiative was successful!\n    function _initiativeRewards(\n        DataTypes.ReserveState memory reserveState,\n        Initiative memory initiative\n    ) internal view returns (uint256 reward, bool success) {\n        // Compute target reward\n        uint256 gydSupply = gyroConfig.getMotherboard().mintedSupply();\n        uint256 initiativeLength = initiative.endTime - initiative.startTime;\n        uint256 avgGYDSupply = aggSupply.aggSupply / initiativeLength;\n        uint256 targetReward = initiative.rewardPercentage.mulDown(avgGYDSupply);\n\n        // Compute max available reward\n        uint256 maxAllowedGYDSupply = _getReserveUSDValue(reserveState).divDown(\n            initiative.minCollateralRatio\n        );\n\n        // The following fails if the current collateral ratio is below the minimum set in the incentive. This is almost\n        // but not quite redundant with _checkpoint(): it might be that now is the first time we're below the\n        // minimum, but we wouldn't allow incentive completion in this situation.\n        if (gydSupply > maxAllowedGYDSupply) return (0, false);\n        uint256 maxReward = maxAllowedGYDSupply - gydSupply;\n\n        // Marry target reward with max available reward. We could take the minimum here but we use a slightly different\n        // function to incentivize governance towards moderation when choosing rewardPercentage. We introduce a linear\n        // penalty for over-estimation here.\n        reward = targetReward;\n        if (reward > maxReward) {\n            uint256 reduction = (FixedPoint.ONE + OVERESTIMATION_PENALTY_FACTOR).mulDown(\n                reward - maxReward\n            );\n            reward = reduction < reward ? reward - reduction : 0;\n        }\n        return (reward, true);\n    }\n\n    function tentativeRewards() external view returns (uint256 gydAmount) {\n        if (activeInitiative.endTime == 0) return 0;\n        if (hasFailed()) return 0;\n        DataTypes.ReserveState memory reserveState = gyroConfig\n            .getReserveManager()\n            .getReserveState();\n        (gydAmount, ) = _initiativeRewards(reserveState, activeInitiative);\n    }\n\n    /// @dev Approximately days since epoch. Not quite correct but good enough to distinguish different days, which is\n    /// all we need here.\n    function timestampToDatestamp(uint256 timestamp) internal pure returns (uint256) {\n        return timestamp / 1 days;\n    }\n\n    function _getReserveUSDValue(DataTypes.ReserveState memory reserveState)\n        internal\n        view\n        returns (uint256)\n    {\n        return reserveState.computeLowerBoundUSDValue(gyroConfig.getRootPriceOracle());\n    }\n}\n","sourcePath":"contracts/ReserveStewardshipIncentives.sol","type":"contract","deployment":{"address":"0x5C73d4E5349ffD392e62fa6BeD994bB449D94F86","chainid":"1","blockHeight":18413542}}