{"abi":[{"inputs":[{"internalType":"address","name":"_assetRegistry","type":"address"},{"internalType":"address","name":"_priceSigner","type":"address"},{"internalType":"bool","name":"_preventStalePrice","type":"bool"}],"stateMutability":"nonpayable","type":"constructor","name":"constructor"},{"anonymous":false,"inputs":[{"indexed":true,"internalType":"address","name":"asset","type":"address"},{"indexed":false,"internalType":"uint256","name":"price","type":"uint256"},{"indexed":false,"internalType":"uint256","name":"timestamp","type":"uint256"}],"name":"PriceUpdated","type":"event"},{"inputs":[],"name":"MAX_LAG","outputs":[{"internalType":"uint256","name":"","type":"uint256"}],"stateMutability":"view","type":"function"},{"inputs":[],"name":"PRICE_DECIMALS","outputs":[{"internalType":"uint8","name":"","type":"uint8"}],"stateMutability":"view","type":"function"},{"inputs":[],"name":"assetRegistry","outputs":[{"internalType":"contract IAssetRegistry","name":"","type":"address"}],"stateMutability":"view","type":"function"},{"inputs":[{"internalType":"address","name":"asset","type":"address"}],"name":"getLastUpdate","outputs":[{"internalType":"uint256","name":"","type":"uint256"}],"stateMutability":"view","type":"function"},{"inputs":[{"internalType":"address","name":"baseAsset","type":"address"}],"name":"getPriceUSD","outputs":[{"internalType":"uint256","name":"","type":"uint256"}],"stateMutability":"view","type":"function"},{"inputs":[{"internalType":"bytes","name":"message","type":"bytes"},{"internalType":"bytes","name":"signature","type":"bytes"}],"name":"postPrice","outputs":[],"stateMutability":"nonpayable","type":"function"},{"inputs":[{"components":[{"internalType":"bytes","name":"message","type":"bytes"},{"internalType":"bytes","name":"signature","type":"bytes"}],"internalType":"struct TrustedSignerPriceOracle.SignedPrice[]","name":"signedPrices","type":"tuple[]"}],"name":"postPrices","outputs":[],"stateMutability":"nonpayable","type":"function"},{"inputs":[],"name":"preventStalePrice","outputs":[{"internalType":"bool","name":"","type":"bool"}],"stateMutability":"view","type":"function"},{"inputs":[],"name":"trustedPriceSigner","outputs":[{"internalType":"address","name":"","type":"address"}],"stateMutability":"view","type":"function"}],"bytecode":"60c060405234801561001057600080fd5b506040516200109938038062001099833981016040819052610031916100c0565b604080518082019091526002815261333160f01b60208201526001600160a01b03831661007a5760405162461bcd60e51b8152600401610071919061010c565b60405180910390fd5b506001600160a01b0392831660a05291166080526001805460ff191691151591909117905561015a565b80516001600160a01b03811681146100bb57600080fd5b919050565b6000806000606084860312156100d557600080fd5b6100de846100a4565b92506100ec602085016100a4565b91506040840151801515811461010157600080fd5b809150509250925092565b600060208083528351808285015260005b818110156101395785810183015185820160400152820161011d565b506000604082860101526040601f19601f8301168501019250505092915050565b60805160a051610f0b6200018e6000396000818161015b015261043101526000818161011c01526103ac0152610f0b6000f3fe608060405234801561001057600080fd5b50600436106100935760003560e01c80637571fd2c116100665780637571fd2c14610117578063979d7e8614610156578063b4ca06471461017d578063c536917c14610192578063f1a640f8146101a557600080fd5b806314c1d37f146100985780633ea8faac146100b45780635708447d146100d15780635a7e1989146100e4575b600080fd5b6100a1610e1081565b6040519081526020015b60405180910390f35b6001546100c19060ff1681565b60405190151581526020016100ab565b6100a16100df36600461098d565b6101bf565b6100a16100f236600461098d565b6001600160a01b031660009081526020819052604090205467ffffffffffffffff1690565b61013e7f000000000000000000000000000000000000000000000000000000000000000081565b6040516001600160a01b0390911681526020016100ab565b61013e7f000000000000000000000000000000000000000000000000000000000000000081565b61019061018b3660046109b1565b6102bb565b005b6101906101a0366004610aeb565b61038e565b6101ad600681565b60405160ff90911681526020016100ab565b6001600160a01b03811660009081526020818152604080832081518083018352905467ffffffffffffffff8116808352600160401b9091046001600160801b03168285015282518084019093526002835261034360f41b93830193909352916102445760405162461bcd60e51b815260040161023b9190610b73565b60405180910390fd5b5060015460ff16156102a8578051429061026b90610e109067ffffffffffffffff16610bbc565b101560405180604001604052806002815260200161343160f01b815250906102a65760405162461bcd60e51b815260040161023b9190610b73565b505b602001516001600160801b031692915050565b60005b8181101561038957368383838181106102d9576102d9610bcf565b90506020028101906102eb9190610be5565b90506103766102fa8280610c05565b8080601f01602080910402602001604051908101604052809392919081815260200183838082843760009201919091525061033c925050506020840184610c05565b8080601f01602080910402602001604051908101604052809392919081815260200183838082843760009201919091525061039c92505050565b508061038181610c53565b9150506102be565b505050565b610398828261039c565b5050565b60006103a883836105d9565b90507f00000000000000000000000000000000000000000000000000000000000000006001600160a01b0316816001600160a01b03161460405180604001604052806002815260200161343360f01b815250906104185760405162461bcd60e51b815260040161023b9190610b73565b50600080600061042786610675565b92509250925060007f00000000000000000000000000000000000000000000000000000000000000006001600160a01b0316637307ae55846040518263ffffffff1660e01b815260040161047b9190610b73565b602060405180830381865afa158015610498573d6000803e3d6000fd5b505050506040513d601f19601f820116820180604052508101906104bc9190610c6c565b6001600160a01b038116600090815260208190526040902080549192509067ffffffffffffffff16851180156104fd5750426104fa610e1087610bbc565b10155b60405180604001604052806002815260200161343160f01b815250906105365760405162461bcd60e51b815260040161023b9190610b73565b50600061054560066012610c89565b61055090600a610d86565b61055a9085610d95565b825467ffffffffffffffff88166001600160c01b031990911617600160401b6001600160801b0383160217835560408051828152602081018990529192506001600160a01b038516917fb556fac599c3c70efb9ab1fa725ecace6c81cc48d1455f886607def065f3e0c0910160405180910390a2505050505050505050565b60008061063a84805190602001206040517f19457468657265756d205369676e6564204d6573736167653a0a3332000000006020820152603c8101829052600090605c01604051602081830303815290604052805190602001209050919050565b90506000806000858060200190518101906106559190610dac565b919450925090506106688482858561073f565b9450505050505b92915050565b600060606000806000806000878060200190518101906106959190610e38565b93509350935093506040516020016106b9906570726963657360d01b815260060190565b60405160208183030381529060405280519060200120846040516020016106e09190610ead565b604051602081830303815290604052805190602001201460405180604001604052806002815260200161343360f01b815250906107305760405162461bcd60e51b815260040161023b9190610b73565b50919790965090945092505050565b600080600061075087878787610767565b9150915061075d8161082b565b5095945050505050565b6000807f7fffffffffffffffffffffffffffffff5d576e7357a4501ddfe92f46681b20a083111561079e5750600090506003610822565b6040805160008082526020820180845289905260ff881692820192909252606081018690526080810185905260019060a0016020604051602081039080840390855afa1580156107f2573d6000803e3d6000fd5b5050604051601f1901519150506001600160a01b03811661081b57600060019250925050610822565b9150600090505b94509492505050565b600081600481111561083f5761083f610ebf565b036108475750565b600181600481111561085b5761085b610ebf565b036108a85760405162461bcd60e51b815260206004820152601860248201527f45434453413a20696e76616c6964207369676e61747572650000000000000000604482015260640161023b565b60028160048111156108bc576108bc610ebf565b036109095760405162461bcd60e51b815260206004820152601f60248201527f45434453413a20696e76616c6964207369676e6174757265206c656e67746800604482015260640161023b565b600381600481111561091d5761091d610ebf565b036109755760405162461bcd60e51b815260206004820152602260248201527f45434453413a20696e76616c6964207369676e6174757265202773272076616c604482015261756560f01b606482015260840161023b565b50565b6001600160a01b038116811461097557600080fd5b60006020828403121561099f57600080fd5b81356109aa81610978565b9392505050565b600080602083850312156109c457600080fd5b823567ffffffffffffffff808211156109dc57600080fd5b818501915085601f8301126109f057600080fd5b8135818111156109ff57600080fd5b8660208260051b8501011115610a1457600080fd5b60209290920196919550909350505050565b634e487b7160e01b600052604160045260246000fd5b604051601f8201601f1916810167ffffffffffffffff81118282101715610a6557610a65610a26565b604052919050565b600067ffffffffffffffff821115610a8757610a87610a26565b50601f01601f191660200190565b600082601f830112610aa657600080fd5b8135610ab9610ab482610a6d565b610a3c565b818152846020838601011115610ace57600080fd5b816020850160208301376000918101602001919091529392505050565b60008060408385031215610afe57600080fd5b823567ffffffffffffffff80821115610b1657600080fd5b610b2286838701610a95565b93506020850135915080821115610b3857600080fd5b50610b4585828601610a95565b9150509250929050565b60005b83811015610b6a578181015183820152602001610b52565b50506000910152565b6020815260008251806020840152610b92816040850160208701610b4f565b601f01601f19169190910160400192915050565b634e487b7160e01b600052601160045260246000fd5b8082018082111561066f5761066f610ba6565b634e487b7160e01b600052603260045260246000fd5b60008235603e19833603018112610bfb57600080fd5b9190910192915050565b6000808335601e19843603018112610c1c57600080fd5b83018035915067ffffffffffffffff821115610c3757600080fd5b602001915036819003821315610c4c57600080fd5b9250929050565b600060018201610c6557610c65610ba6565b5060010190565b600060208284031215610c7e57600080fd5b81516109aa81610978565b60ff828116828216039081111561066f5761066f610ba6565b600181815b80851115610cdd578160001904821115610cc357610cc3610ba6565b80851615610cd057918102915b93841c9390800290610ca7565b509250929050565b600082610cf45750600161066f565b81610d015750600061066f565b8160018114610d175760028114610d2157610d3d565b600191505061066f565b60ff841115610d3257610d32610ba6565b50506001821b61066f565b5060208310610133831016604e8410600b8410161715610d60575081810a61066f565b610d6a8383610ca2565b8060001904821115610d7e57610d7e610ba6565b029392505050565b60006109aa60ff841683610ce5565b808202811582820484141761066f5761066f610ba6565b600080600060608486031215610dc157600080fd5b8351925060208401519150604084015160ff81168114610de057600080fd5b809150509250925092565b600082601f830112610dfc57600080fd5b8151610e0a610ab482610a6d565b818152846020838601011115610e1f57600080fd5b610e30826020830160208701610b4f565b949350505050565b60008060008060808587031215610e4e57600080fd5b845167ffffffffffffffff80821115610e6657600080fd5b610e7288838901610deb565b9550602087015194506040870151915080821115610e8f57600080fd5b50610e9c87828801610deb565b606096909601519497939650505050565b60008251610bfb818460208701610b4f565b634e487b7160e01b600052602160045260246000fdfea2646970667358221220190f440e19cbaab959a43fa22c70e64bf08e5b36529d241b2c0263661f719d6664736f6c63430008110033","bytecodeSha1":"a4bcad61b04be68ac7c456e84abe96441136ba75","compiler":{"evm_version":"london","optimizer":{"enabled":true,"runs":200},"version":"0.8.17+commit.8df45f5f"},"contractName":"TrustedSignerPriceOracle","language":"Solidity","natspec":{"kind":"dev","methods":{"MAX_LAG()":{"notice":"we throw an error if the price is older than `MAX_LAG` seconds"},"PRICE_DECIMALS()":{"notice":"prices posted should be scaled using `PRICE_DECIMALS` decimals"},"assetRegistry()":{"notice":"the asset registry used to find the mapping between a token address and its address"},"getLastUpdate(address)":{"notice":"returns the last update of `asset` or 0 if `asset` has never been updated"},"getPriceUSD(address)":{"notice":"Quotes the USD price of `tokenAddress` The quoted price is always scaled with 18 decimals regardless of the source used for the oracle.","params":{"tokenAddress":"the asset of which the price is to be quoted"},"returns":{"_0":"the USD price of the asset"}},"postPrice(bytes,bytes)":{"notice":"Upates the price with a message containing the price information and its signature The message should have the following ABI-encoded format: (string kind, uint256 timestamp, string key, uint256 price)"},"postPrices((bytes,bytes)[])":{"notice":"Updates prices using a list of signed prices received from a trusted signer (e.g. Coinbase)"},"preventStalePrice()":{"notice":"if this is `true`, the oracle will revert if the price is stale"},"trustedPriceSigner()":{"notice":"address of the trusted price signer This should be the Coinbase signing address in production deployments i.e. 0xfCEAdAFab14d46e20144F48824d0C09B1a03F2BC"}},"stateVariables":{"prices":{"details":"asset to prices storage"}},"version":1},"opcodes":"PUSH1 0x80 PUSH1 0x40 MSTORE CALLVALUE DUP1 ISZERO PUSH2 0x10 JUMPI PUSH1 0x0 DUP1 REVERT JUMPDEST POP PUSH1 0x4 CALLDATASIZE LT PUSH2 0x93 JUMPI PUSH1 0x0 CALLDATALOAD PUSH1 0xE0 SHR DUP1 PUSH4 0x7571FD2C GT PUSH2 0x66 JUMPI DUP1 PUSH4 0x7571FD2C EQ PUSH2 0x117 JUMPI DUP1 PUSH4 0x979D7E86 EQ PUSH2 0x156 JUMPI DUP1 PUSH4 0xB4CA0647 EQ PUSH2 0x17D JUMPI DUP1 PUSH4 0xC536917C EQ PUSH2 0x192 JUMPI DUP1 PUSH4 0xF1A640F8 EQ PUSH2 0x1A5 JUMPI PUSH1 0x0 DUP1 REVERT JUMPDEST DUP1 PUSH4 0x14C1D37F EQ PUSH2 0x98 JUMPI DUP1 PUSH4 0x3EA8FAAC EQ PUSH2 0xB4 JUMPI DUP1 PUSH4 0x5708447D EQ PUSH2 0xD1 JUMPI DUP1 PUSH4 0x5A7E1989 EQ PUSH2 0xE4 JUMPI JUMPDEST PUSH1 0x0 DUP1 REVERT JUMPDEST PUSH2 0xA1 PUSH2 0xE10 DUP2 JUMP JUMPDEST PUSH1 0x40 MLOAD SWAP1 DUP2 MSTORE PUSH1 0x20 ADD JUMPDEST PUSH1 0x40 MLOAD DUP1 SWAP2 SUB SWAP1 RETURN JUMPDEST PUSH1 0x1 SLOAD PUSH2 0xC1 SWAP1 PUSH1 0xFF AND DUP2 JUMP JUMPDEST PUSH1 0x40 MLOAD SWAP1 ISZERO ISZERO DUP2 MSTORE PUSH1 0x20 ADD PUSH2 0xAB JUMP JUMPDEST PUSH2 0xA1 PUSH2 0xDF CALLDATASIZE PUSH1 0x4 PUSH2 0x98D JUMP JUMPDEST PUSH2 0x1BF JUMP JUMPDEST PUSH2 0xA1 PUSH2 0xF2 CALLDATASIZE PUSH1 0x4 PUSH2 0x98D JUMP JUMPDEST PUSH1 0x1 PUSH1 0x1 PUSH1 0xA0 SHL SUB AND PUSH1 0x0 SWAP1 DUP2 MSTORE PUSH1 0x20 DUP2 SWAP1 MSTORE PUSH1 0x40 SWAP1 KECCAK256 SLOAD PUSH8 0xFFFFFFFFFFFFFFFF AND SWAP1 JUMP JUMPDEST PUSH2 0x13E PUSH32 0x0 DUP2 JUMP JUMPDEST PUSH1 0x40 MLOAD PUSH1 0x1 PUSH1 0x1 PUSH1 0xA0 SHL SUB SWAP1 SWAP2 AND DUP2 MSTORE PUSH1 0x20 ADD PUSH2 0xAB JUMP JUMPDEST PUSH2 0x13E PUSH32 0x0 DUP2 JUMP JUMPDEST PUSH2 0x190 PUSH2 0x18B CALLDATASIZE PUSH1 0x4 PUSH2 0x9B1 JUMP JUMPDEST PUSH2 0x2BB JUMP JUMPDEST STOP JUMPDEST PUSH2 0x190 PUSH2 0x1A0 CALLDATASIZE PUSH1 0x4 PUSH2 0xAEB JUMP JUMPDEST PUSH2 0x38E JUMP JUMPDEST PUSH2 0x1AD PUSH1 0x6 DUP2 JUMP JUMPDEST PUSH1 0x40 MLOAD PUSH1 0xFF SWAP1 SWAP2 AND DUP2 MSTORE PUSH1 0x20 ADD PUSH2 0xAB JUMP JUMPDEST PUSH1 0x1 PUSH1 0x1 PUSH1 0xA0 SHL SUB DUP2 AND PUSH1 0x0 SWAP1 DUP2 MSTORE PUSH1 0x20 DUP2 DUP2 MSTORE PUSH1 0x40 DUP1 DUP4 KECCAK256 DUP2 MLOAD DUP1 DUP4 ADD DUP4 MSTORE SWAP1 SLOAD PUSH8 0xFFFFFFFFFFFFFFFF DUP2 AND DUP1 DUP4 MSTORE PUSH1 0x1 PUSH1 0x40 SHL SWAP1 SWAP2 DIV PUSH1 0x1 PUSH1 0x1 PUSH1 0x80 SHL SUB AND DUP3 DUP6 ADD MSTORE DUP3 MLOAD DUP1 DUP5 ADD SWAP1 SWAP4 MSTORE PUSH1 0x2 DUP4 MSTORE PUSH2 0x343 PUSH1 0xF4 SHL SWAP4 DUP4 ADD SWAP4 SWAP1 SWAP4 MSTORE SWAP2 PUSH2 0x244 JUMPI PUSH1 0x40 MLOAD PUSH3 0x461BCD PUSH1 0xE5 SHL DUP2 MSTORE PUSH1 0x4 ADD PUSH2 0x23B SWAP2 SWAP1 PUSH2 0xB73 JUMP JUMPDEST PUSH1 0x40 MLOAD DUP1 SWAP2 SUB SWAP1 REVERT JUMPDEST POP PUSH1 0x1 SLOAD PUSH1 0xFF AND ISZERO PUSH2 0x2A8 JUMPI DUP1 MLOAD TIMESTAMP SWAP1 PUSH2 0x26B SWAP1 PUSH2 0xE10 SWAP1 PUSH8 0xFFFFFFFFFFFFFFFF AND PUSH2 0xBBC JUMP JUMPDEST LT ISZERO PUSH1 0x40 MLOAD DUP1 PUSH1 0x40 ADD PUSH1 0x40 MSTORE DUP1 PUSH1 0x2 DUP2 MSTORE PUSH1 0x20 ADD PUSH2 0x3431 PUSH1 0xF0 SHL DUP2 MSTORE POP SWAP1 PUSH2 0x2A6 JUMPI PUSH1 0x40 MLOAD PUSH3 0x461BCD PUSH1 0xE5 SHL DUP2 MSTORE PUSH1 0x4 ADD PUSH2 0x23B SWAP2 SWAP1 PUSH2 0xB73 JUMP JUMPDEST POP JUMPDEST PUSH1 0x20 ADD MLOAD PUSH1 0x1 PUSH1 0x1 PUSH1 0x80 SHL SUB AND SWAP3 SWAP2 POP POP JUMP JUMPDEST PUSH1 0x0 JUMPDEST DUP2 DUP2 LT ISZERO PUSH2 0x389 JUMPI CALLDATASIZE DUP4 DUP4 DUP4 DUP2 DUP2 LT PUSH2 0x2D9 JUMPI PUSH2 0x2D9 PUSH2 0xBCF JUMP JUMPDEST SWAP1 POP PUSH1 0x20 MUL DUP2 ADD SWAP1 PUSH2 0x2EB SWAP2 SWAP1 PUSH2 0xBE5 JUMP JUMPDEST SWAP1 POP PUSH2 0x376 PUSH2 0x2FA DUP3 DUP1 PUSH2 0xC05 JUMP JUMPDEST DUP1 DUP1 PUSH1 0x1F ADD PUSH1 0x20 DUP1 SWAP2 DIV MUL PUSH1 0x20 ADD PUSH1 0x40 MLOAD SWAP1 DUP2 ADD PUSH1 0x40 MSTORE DUP1 SWAP4 SWAP3 SWAP2 SWAP1 DUP2 DUP2 MSTORE PUSH1 0x20 ADD DUP4 DUP4 DUP1 DUP3 DUP5 CALLDATACOPY PUSH1 0x0 SWAP3 ADD SWAP2 SWAP1 SWAP2 MSTORE POP PUSH2 0x33C SWAP3 POP POP POP PUSH1 0x20 DUP5 ADD DUP5 PUSH2 0xC05 JUMP JUMPDEST DUP1 DUP1 PUSH1 0x1F ADD PUSH1 0x20 DUP1 SWAP2 DIV MUL PUSH1 0x20 ADD PUSH1 0x40 MLOAD SWAP1 DUP2 ADD PUSH1 0x40 MSTORE DUP1 SWAP4 SWAP3 SWAP2 SWAP1 DUP2 DUP2 MSTORE PUSH1 0x20 ADD DUP4 DUP4 DUP1 DUP3 DUP5 CALLDATACOPY PUSH1 0x0 SWAP3 ADD SWAP2 SWAP1 SWAP2 MSTORE POP PUSH2 0x39C SWAP3 POP POP POP JUMP JUMPDEST POP DUP1 PUSH2 0x381 DUP2 PUSH2 0xC53 JUMP JUMPDEST SWAP2 POP POP PUSH2 0x2BE JUMP JUMPDEST POP POP POP JUMP JUMPDEST PUSH2 0x398 DUP3 DUP3 PUSH2 0x39C JUMP JUMPDEST POP POP JUMP JUMPDEST PUSH1 0x0 PUSH2 0x3A8 DUP4 DUP4 PUSH2 0x5D9 JUMP JUMPDEST SWAP1 POP PUSH32 0x0 PUSH1 0x1 PUSH1 0x1 PUSH1 0xA0 SHL SUB AND DUP2 PUSH1 0x1 PUSH1 0x1 PUSH1 0xA0 SHL SUB AND EQ PUSH1 0x40 MLOAD DUP1 PUSH1 0x40 ADD PUSH1 0x40 MSTORE DUP1 PUSH1 0x2 DUP2 MSTORE PUSH1 0x20 ADD PUSH2 0x3433 PUSH1 0xF0 SHL DUP2 MSTORE POP SWAP1 PUSH2 0x418 JUMPI PUSH1 0x40 MLOAD PUSH3 0x461BCD PUSH1 0xE5 SHL DUP2 MSTORE PUSH1 0x4 ADD PUSH2 0x23B SWAP2 SWAP1 PUSH2 0xB73 JUMP JUMPDEST POP PUSH1 0x0 DUP1 PUSH1 0x0 PUSH2 0x427 DUP7 PUSH2 0x675 JUMP JUMPDEST SWAP3 POP SWAP3 POP SWAP3 POP PUSH1 0x0 PUSH32 0x0 PUSH1 0x1 PUSH1 0x1 PUSH1 0xA0 SHL SUB AND PUSH4 0x7307AE55 DUP5 PUSH1 0x40 MLOAD DUP3 PUSH4 0xFFFFFFFF AND PUSH1 0xE0 SHL DUP2 MSTORE PUSH1 0x4 ADD PUSH2 0x47B SWAP2 SWAP1 PUSH2 0xB73 JUMP JUMPDEST PUSH1 0x20 PUSH1 0x40 MLOAD DUP1 DUP4 SUB DUP2 DUP7 GAS STATICCALL ISZERO DUP1 ISZERO PUSH2 0x498 JUMPI RETURNDATASIZE PUSH1 0x0 DUP1 RETURNDATACOPY RETURNDATASIZE PUSH1 0x0 REVERT JUMPDEST POP POP POP POP PUSH1 0x40 MLOAD RETURNDATASIZE PUSH1 0x1F NOT PUSH1 0x1F DUP3 ADD AND DUP3 ADD DUP1 PUSH1 0x40 MSTORE POP DUP2 ADD SWAP1 PUSH2 0x4BC SWAP2 SWAP1 PUSH2 0xC6C JUMP JUMPDEST PUSH1 0x1 PUSH1 0x1 PUSH1 0xA0 SHL SUB DUP2 AND PUSH1 0x0 SWAP1 DUP2 MSTORE PUSH1 0x20 DUP2 SWAP1 MSTORE PUSH1 0x40 SWAP1 KECCAK256 DUP1 SLOAD SWAP2 SWAP3 POP SWAP1 PUSH8 0xFFFFFFFFFFFFFFFF AND DUP6 GT DUP1 ISZERO PUSH2 0x4FD JUMPI POP TIMESTAMP PUSH2 0x4FA PUSH2 0xE10 DUP8 PUSH2 0xBBC JUMP JUMPDEST LT ISZERO JUMPDEST PUSH1 0x40 MLOAD DUP1 PUSH1 0x40 ADD PUSH1 0x40 MSTORE DUP1 PUSH1 0x2 DUP2 MSTORE PUSH1 0x20 ADD PUSH2 0x3431 PUSH1 0xF0 SHL DUP2 MSTORE POP SWAP1 PUSH2 0x536 JUMPI PUSH1 0x40 MLOAD PUSH3 0x461BCD PUSH1 0xE5 SHL DUP2 MSTORE PUSH1 0x4 ADD PUSH2 0x23B SWAP2 SWAP1 PUSH2 0xB73 JUMP JUMPDEST POP PUSH1 0x0 PUSH2 0x545 PUSH1 0x6 PUSH1 0x12 PUSH2 0xC89 JUMP JUMPDEST PUSH2 0x550 SWAP1 PUSH1 0xA PUSH2 0xD86 JUMP JUMPDEST PUSH2 0x55A SWAP1 DUP6 PUSH2 0xD95 JUMP JUMPDEST DUP3 SLOAD PUSH8 0xFFFFFFFFFFFFFFFF DUP9 AND PUSH1 0x1 PUSH1 0x1 PUSH1 0xC0 SHL SUB NOT SWAP1 SWAP2 AND OR PUSH1 0x1 PUSH1 0x40 SHL PUSH1 0x1 PUSH1 0x1 PUSH1 0x80 SHL SUB DUP4 AND MUL OR DUP4 SSTORE PUSH1 0x40 DUP1 MLOAD DUP3 DUP2 MSTORE PUSH1 0x20 DUP2 ADD DUP10 SWAP1 MSTORE SWAP2 SWAP3 POP PUSH1 0x1 PUSH1 0x1 PUSH1 0xA0 SHL SUB DUP6 AND SWAP2 PUSH32 0xB556FAC599C3C70EFB9AB1FA725ECACE6C81CC48D1455F886607DEF065F3E0C0 SWAP2 ADD PUSH1 0x40 MLOAD DUP1 SWAP2 SUB SWAP1 LOG2 POP POP POP POP POP POP POP POP POP JUMP JUMPDEST PUSH1 0x0 DUP1 PUSH2 0x63A DUP5 DUP1 MLOAD SWAP1 PUSH1 0x20 ADD KECCAK256 PUSH1 0x40 MLOAD PUSH32 0x19457468657265756D205369676E6564204D6573736167653A0A333200000000 PUSH1 0x20 DUP3 ADD MSTORE PUSH1 0x3C DUP2 ADD DUP3 SWAP1 MSTORE PUSH1 0x0 SWAP1 PUSH1 0x5C ADD PUSH1 0x40 MLOAD PUSH1 0x20 DUP2 DUP4 SUB SUB DUP2 MSTORE SWAP1 PUSH1 0x40 MSTORE DUP1 MLOAD SWAP1 PUSH1 0x20 ADD KECCAK256 SWAP1 POP SWAP2 SWAP1 POP JUMP JUMPDEST SWAP1 POP PUSH1 0x0 DUP1 PUSH1 0x0 DUP6 DUP1 PUSH1 0x20 ADD SWAP1 MLOAD DUP2 ADD SWAP1 PUSH2 0x655 SWAP2 SWAP1 PUSH2 0xDAC JUMP JUMPDEST SWAP2 SWAP5 POP SWAP3 POP SWAP1 POP PUSH2 0x668 DUP5 DUP3 DUP6 DUP6 PUSH2 0x73F JUMP JUMPDEST SWAP5 POP POP POP POP POP JUMPDEST SWAP3 SWAP2 POP POP JUMP JUMPDEST PUSH1 0x0 PUSH1 0x60 PUSH1 0x0 DUP1 PUSH1 0x0 DUP1 PUSH1 0x0 DUP8 DUP1 PUSH1 0x20 ADD SWAP1 MLOAD DUP2 ADD SWAP1 PUSH2 0x695 SWAP2 SWAP1 PUSH2 0xE38 JUMP JUMPDEST SWAP4 POP SWAP4 POP SWAP4 POP SWAP4 POP PUSH1 0x40 MLOAD PUSH1 0x20 ADD PUSH2 0x6B9 SWAP1 PUSH6 0x707269636573 PUSH1 0xD0 SHL DUP2 MSTORE PUSH1 0x6 ADD SWAP1 JUMP JUMPDEST PUSH1 0x40 MLOAD PUSH1 0x20 DUP2 DUP4 SUB SUB DUP2 MSTORE SWAP1 PUSH1 0x40 MSTORE DUP1 MLOAD SWAP1 PUSH1 0x20 ADD KECCAK256 DUP5 PUSH1 0x40 MLOAD PUSH1 0x20 ADD PUSH2 0x6E0 SWAP2 SWAP1 PUSH2 0xEAD JUMP JUMPDEST PUSH1 0x40 MLOAD PUSH1 0x20 DUP2 DUP4 SUB SUB DUP2 MSTORE SWAP1 PUSH1 0x40 MSTORE DUP1 MLOAD SWAP1 PUSH1 0x20 ADD KECCAK256 EQ PUSH1 0x40 MLOAD DUP1 PUSH1 0x40 ADD PUSH1 0x40 MSTORE DUP1 PUSH1 0x2 DUP2 MSTORE PUSH1 0x20 ADD PUSH2 0x3433 PUSH1 0xF0 SHL DUP2 MSTORE POP SWAP1 PUSH2 0x730 JUMPI PUSH1 0x40 MLOAD PUSH3 0x461BCD PUSH1 0xE5 SHL DUP2 MSTORE PUSH1 0x4 ADD PUSH2 0x23B SWAP2 SWAP1 PUSH2 0xB73 JUMP JUMPDEST POP SWAP2 SWAP8 SWAP1 SWAP7 POP SWAP1 SWAP5 POP SWAP3 POP POP POP JUMP JUMPDEST PUSH1 0x0 DUP1 PUSH1 0x0 PUSH2 0x750 DUP8 DUP8 DUP8 DUP8 PUSH2 0x767 JUMP JUMPDEST SWAP2 POP SWAP2 POP PUSH2 0x75D DUP2 PUSH2 0x82B JUMP JUMPDEST POP SWAP6 SWAP5 POP POP POP POP POP JUMP JUMPDEST PUSH1 0x0 DUP1 PUSH32 0x7FFFFFFFFFFFFFFFFFFFFFFFFFFFFFFF5D576E7357A4501DDFE92F46681B20A0 DUP4 GT ISZERO PUSH2 0x79E JUMPI POP PUSH1 0x0 SWAP1 POP PUSH1 0x3 PUSH2 0x822 JUMP JUMPDEST PUSH1 0x40 DUP1 MLOAD PUSH1 0x0 DUP1 DUP3 MSTORE PUSH1 0x20 DUP3 ADD DUP1 DUP5 MSTORE DUP10 SWAP1 MSTORE PUSH1 0xFF DUP9 AND SWAP3 DUP3 ADD SWAP3 SWAP1 SWAP3 MSTORE PUSH1 0x60 DUP2 ADD DUP7 SWAP1 MSTORE PUSH1 0x80 DUP2 ADD DUP6 SWAP1 MSTORE PUSH1 0x1 SWAP1 PUSH1 0xA0 ADD PUSH1 0x20 PUSH1 0x40 MLOAD PUSH1 0x20 DUP2 SUB SWAP1 DUP1 DUP5 SUB SWAP1 DUP6 GAS STATICCALL ISZERO DUP1 ISZERO PUSH2 0x7F2 JUMPI RETURNDATASIZE PUSH1 0x0 DUP1 RETURNDATACOPY RETURNDATASIZE PUSH1 0x0 REVERT JUMPDEST POP POP PUSH1 0x40 MLOAD PUSH1 0x1F NOT ADD MLOAD SWAP2 POP POP PUSH1 0x1 PUSH1 0x1 PUSH1 0xA0 SHL SUB DUP2 AND PUSH2 0x81B JUMPI PUSH1 0x0 PUSH1 0x1 SWAP3 POP SWAP3 POP POP PUSH2 0x822 JUMP JUMPDEST SWAP2 POP PUSH1 0x0 SWAP1 POP JUMPDEST SWAP5 POP SWAP5 SWAP3 POP POP POP JUMP JUMPDEST PUSH1 0x0 DUP2 PUSH1 0x4 DUP2 GT ISZERO PUSH2 0x83F JUMPI PUSH2 0x83F PUSH2 0xEBF JUMP JUMPDEST SUB PUSH2 0x847 JUMPI POP JUMP JUMPDEST PUSH1 0x1 DUP2 PUSH1 0x4 DUP2 GT ISZERO PUSH2 0x85B JUMPI PUSH2 0x85B PUSH2 0xEBF JUMP JUMPDEST SUB PUSH2 0x8A8 JUMPI PUSH1 0x40 MLOAD PUSH3 0x461BCD PUSH1 0xE5 SHL DUP2 MSTORE PUSH1 0x20 PUSH1 0x4 DUP3 ADD MSTORE PUSH1 0x18 PUSH1 0x24 DUP3 ADD MSTORE PUSH32 0x45434453413A20696E76616C6964207369676E61747572650000000000000000 PUSH1 0x44 DUP3 ADD MSTORE PUSH1 0x64 ADD PUSH2 0x23B JUMP JUMPDEST PUSH1 0x2 DUP2 PUSH1 0x4 DUP2 GT ISZERO PUSH2 0x8BC JUMPI PUSH2 0x8BC PUSH2 0xEBF JUMP JUMPDEST SUB PUSH2 0x909 JUMPI PUSH1 0x40 MLOAD PUSH3 0x461BCD PUSH1 0xE5 SHL DUP2 MSTORE PUSH1 0x20 PUSH1 0x4 DUP3 ADD MSTORE PUSH1 0x1F PUSH1 0x24 DUP3 ADD MSTORE PUSH32 0x45434453413A20696E76616C6964207369676E6174757265206C656E67746800 PUSH1 0x44 DUP3 ADD MSTORE PUSH1 0x64 ADD PUSH2 0x23B JUMP JUMPDEST PUSH1 0x3 DUP2 PUSH1 0x4 DUP2 GT ISZERO PUSH2 0x91D JUMPI PUSH2 0x91D PUSH2 0xEBF JUMP JUMPDEST SUB PUSH2 0x975 JUMPI PUSH1 0x40 MLOAD PUSH3 0x461BCD PUSH1 0xE5 SHL DUP2 MSTORE PUSH1 0x20 PUSH1 0x4 DUP3 ADD MSTORE PUSH1 0x22 PUSH1 0x24 DUP3 ADD MSTORE PUSH32 0x45434453413A20696E76616C6964207369676E6174757265202773272076616C PUSH1 0x44 DUP3 ADD MSTORE PUSH2 0x7565 PUSH1 0xF0 SHL PUSH1 0x64 DUP3 ADD MSTORE PUSH1 0x84 ADD PUSH2 0x23B JUMP JUMPDEST POP JUMP JUMPDEST PUSH1 0x1 PUSH1 0x1 PUSH1 0xA0 SHL SUB DUP2 AND DUP2 EQ PUSH2 0x975 JUMPI PUSH1 0x0 DUP1 REVERT JUMPDEST PUSH1 0x0 PUSH1 0x20 DUP3 DUP5 SUB SLT ISZERO PUSH2 0x99F JUMPI PUSH1 0x0 DUP1 REVERT JUMPDEST DUP2 CALLDATALOAD PUSH2 0x9AA DUP2 PUSH2 0x978 JUMP JUMPDEST SWAP4 SWAP3 POP POP POP JUMP JUMPDEST PUSH1 0x0 DUP1 PUSH1 0x20 DUP4 DUP6 SUB SLT ISZERO PUSH2 0x9C4 JUMPI PUSH1 0x0 DUP1 REVERT JUMPDEST DUP3 CALLDATALOAD PUSH8 0xFFFFFFFFFFFFFFFF DUP1 DUP3 GT ISZERO PUSH2 0x9DC JUMPI PUSH1 0x0 DUP1 REVERT JUMPDEST DUP2 DUP6 ADD SWAP2 POP DUP6 PUSH1 0x1F DUP4 ADD SLT PUSH2 0x9F0 JUMPI PUSH1 0x0 DUP1 REVERT JUMPDEST DUP2 CALLDATALOAD DUP2 DUP2 GT ISZERO PUSH2 0x9FF JUMPI PUSH1 0x0 DUP1 REVERT JUMPDEST DUP7 PUSH1 0x20 DUP3 PUSH1 0x5 SHL DUP6 ADD ADD GT ISZERO PUSH2 0xA14 JUMPI PUSH1 0x0 DUP1 REVERT JUMPDEST PUSH1 0x20 SWAP3 SWAP1 SWAP3 ADD SWAP7 SWAP2 SWAP6 POP SWAP1 SWAP4 POP POP POP POP JUMP JUMPDEST PUSH4 0x4E487B71 PUSH1 0xE0 SHL PUSH1 0x0 MSTORE PUSH1 0x41 PUSH1 0x4 MSTORE PUSH1 0x24 PUSH1 0x0 REVERT JUMPDEST PUSH1 0x40 MLOAD PUSH1 0x1F DUP3 ADD PUSH1 0x1F NOT AND DUP2 ADD PUSH8 0xFFFFFFFFFFFFFFFF DUP2 GT DUP3 DUP3 LT OR ISZERO PUSH2 0xA65 JUMPI PUSH2 0xA65 PUSH2 0xA26 JUMP JUMPDEST PUSH1 0x40 MSTORE SWAP2 SWAP1 POP JUMP JUMPDEST PUSH1 0x0 PUSH8 0xFFFFFFFFFFFFFFFF DUP3 GT ISZERO PUSH2 0xA87 JUMPI PUSH2 0xA87 PUSH2 0xA26 JUMP JUMPDEST POP PUSH1 0x1F ADD PUSH1 0x1F NOT AND PUSH1 0x20 ADD SWAP1 JUMP JUMPDEST PUSH1 0x0 DUP3 PUSH1 0x1F DUP4 ADD SLT PUSH2 0xAA6 JUMPI PUSH1 0x0 DUP1 REVERT JUMPDEST DUP2 CALLDATALOAD PUSH2 0xAB9 PUSH2 0xAB4 DUP3 PUSH2 0xA6D JUMP JUMPDEST PUSH2 0xA3C JUMP JUMPDEST DUP2 DUP2 MSTORE DUP5 PUSH1 0x20 DUP4 DUP7 ADD ADD GT ISZERO PUSH2 0xACE JUMPI PUSH1 0x0 DUP1 REVERT JUMPDEST DUP2 PUSH1 0x20 DUP6 ADD PUSH1 0x20 DUP4 ADD CALLDATACOPY PUSH1 0x0 SWAP2 DUP2 ADD PUSH1 0x20 ADD SWAP2 SWAP1 SWAP2 MSTORE SWAP4 SWAP3 POP POP POP JUMP JUMPDEST PUSH1 0x0 DUP1 PUSH1 0x40 DUP4 DUP6 SUB SLT ISZERO PUSH2 0xAFE JUMPI PUSH1 0x0 DUP1 REVERT JUMPDEST DUP3 CALLDATALOAD PUSH8 0xFFFFFFFFFFFFFFFF DUP1 DUP3 GT ISZERO PUSH2 0xB16 JUMPI PUSH1 0x0 DUP1 REVERT JUMPDEST PUSH2 0xB22 DUP7 DUP4 DUP8 ADD PUSH2 0xA95 JUMP JUMPDEST SWAP4 POP PUSH1 0x20 DUP6 ADD CALLDATALOAD SWAP2 POP DUP1 DUP3 GT ISZERO PUSH2 0xB38 JUMPI PUSH1 0x0 DUP1 REVERT JUMPDEST POP PUSH2 0xB45 DUP6 DUP3 DUP7 ADD PUSH2 0xA95 JUMP JUMPDEST SWAP2 POP POP SWAP3 POP SWAP3 SWAP1 POP JUMP JUMPDEST PUSH1 0x0 JUMPDEST DUP4 DUP2 LT ISZERO PUSH2 0xB6A JUMPI DUP2 DUP2 ADD MLOAD DUP4 DUP3 ADD MSTORE PUSH1 0x20 ADD PUSH2 0xB52 JUMP JUMPDEST POP POP PUSH1 0x0 SWAP2 ADD MSTORE JUMP JUMPDEST PUSH1 0x20 DUP2 MSTORE PUSH1 0x0 DUP3 MLOAD DUP1 PUSH1 0x20 DUP5 ADD MSTORE PUSH2 0xB92 DUP2 PUSH1 0x40 DUP6 ADD PUSH1 0x20 DUP8 ADD PUSH2 0xB4F JUMP JUMPDEST PUSH1 0x1F ADD PUSH1 0x1F NOT AND SWAP2 SWAP1 SWAP2 ADD PUSH1 0x40 ADD SWAP3 SWAP2 POP POP JUMP JUMPDEST PUSH4 0x4E487B71 PUSH1 0xE0 SHL PUSH1 0x0 MSTORE PUSH1 0x11 PUSH1 0x4 MSTORE PUSH1 0x24 PUSH1 0x0 REVERT JUMPDEST DUP1 DUP3 ADD DUP1 DUP3 GT ISZERO PUSH2 0x66F JUMPI PUSH2 0x66F PUSH2 0xBA6 JUMP JUMPDEST PUSH4 0x4E487B71 PUSH1 0xE0 SHL PUSH1 0x0 MSTORE PUSH1 0x32 PUSH1 0x4 MSTORE PUSH1 0x24 PUSH1 0x0 REVERT JUMPDEST PUSH1 0x0 DUP3 CALLDATALOAD PUSH1 0x3E NOT DUP4 CALLDATASIZE SUB ADD DUP2 SLT PUSH2 0xBFB JUMPI PUSH1 0x0 DUP1 REVERT JUMPDEST SWAP2 SWAP1 SWAP2 ADD SWAP3 SWAP2 POP POP JUMP JUMPDEST PUSH1 0x0 DUP1 DUP4 CALLDATALOAD PUSH1 0x1E NOT DUP5 CALLDATASIZE SUB ADD DUP2 SLT PUSH2 0xC1C JUMPI PUSH1 0x0 DUP1 REVERT JUMPDEST DUP4 ADD DUP1 CALLDATALOAD SWAP2 POP PUSH8 0xFFFFFFFFFFFFFFFF DUP3 GT ISZERO PUSH2 0xC37 JUMPI PUSH1 0x0 DUP1 REVERT JUMPDEST PUSH1 0x20 ADD SWAP2 POP CALLDATASIZE DUP2 SWAP1 SUB DUP3 SGT ISZERO PUSH2 0xC4C JUMPI PUSH1 0x0 DUP1 REVERT JUMPDEST SWAP3 POP SWAP3 SWAP1 POP JUMP JUMPDEST PUSH1 0x0 PUSH1 0x1 DUP3 ADD PUSH2 0xC65 JUMPI PUSH2 0xC65 PUSH2 0xBA6 JUMP JUMPDEST POP PUSH1 0x1 ADD SWAP1 JUMP JUMPDEST PUSH1 0x0 PUSH1 0x20 DUP3 DUP5 SUB SLT ISZERO PUSH2 0xC7E JUMPI PUSH1 0x0 DUP1 REVERT JUMPDEST DUP2 MLOAD PUSH2 0x9AA DUP2 PUSH2 0x978 JUMP JUMPDEST PUSH1 0xFF DUP3 DUP2 AND DUP3 DUP3 AND SUB SWAP1 DUP2 GT ISZERO PUSH2 0x66F JUMPI PUSH2 0x66F PUSH2 0xBA6 JUMP JUMPDEST PUSH1 0x1 DUP2 DUP2 JUMPDEST DUP1 DUP6 GT ISZERO PUSH2 0xCDD JUMPI DUP2 PUSH1 0x0 NOT DIV DUP3 GT ISZERO PUSH2 0xCC3 JUMPI PUSH2 0xCC3 PUSH2 0xBA6 JUMP JUMPDEST DUP1 DUP6 AND ISZERO PUSH2 0xCD0 JUMPI SWAP2 DUP2 MUL SWAP2 JUMPDEST SWAP4 DUP5 SHR SWAP4 SWAP1 DUP1 MUL SWAP1 PUSH2 0xCA7 JUMP JUMPDEST POP SWAP3 POP SWAP3 SWAP1 POP JUMP JUMPDEST PUSH1 0x0 DUP3 PUSH2 0xCF4 JUMPI POP PUSH1 0x1 PUSH2 0x66F JUMP JUMPDEST DUP2 PUSH2 0xD01 JUMPI POP PUSH1 0x0 PUSH2 0x66F JUMP JUMPDEST DUP2 PUSH1 0x1 DUP2 EQ PUSH2 0xD17 JUMPI PUSH1 0x2 DUP2 EQ PUSH2 0xD21 JUMPI PUSH2 0xD3D JUMP JUMPDEST PUSH1 0x1 SWAP2 POP POP PUSH2 0x66F JUMP JUMPDEST PUSH1 0xFF DUP5 GT ISZERO PUSH2 0xD32 JUMPI PUSH2 0xD32 PUSH2 0xBA6 JUMP JUMPDEST POP POP PUSH1 0x1 DUP3 SHL PUSH2 0x66F JUMP JUMPDEST POP PUSH1 0x20 DUP4 LT PUSH2 0x133 DUP4 LT AND PUSH1 0x4E DUP5 LT PUSH1 0xB DUP5 LT AND OR ISZERO PUSH2 0xD60 JUMPI POP DUP2 DUP2 EXP PUSH2 0x66F JUMP JUMPDEST PUSH2 0xD6A DUP4 DUP4 PUSH2 0xCA2 JUMP JUMPDEST DUP1 PUSH1 0x0 NOT DIV DUP3 GT ISZERO PUSH2 0xD7E JUMPI PUSH2 0xD7E PUSH2 0xBA6 JUMP JUMPDEST MUL SWAP4 SWAP3 POP POP POP JUMP JUMPDEST PUSH1 0x0 PUSH2 0x9AA PUSH1 0xFF DUP5 AND DUP4 PUSH2 0xCE5 JUMP JUMPDEST DUP1 DUP3 MUL DUP2 ISZERO DUP3 DUP3 DIV DUP5 EQ OR PUSH2 0x66F JUMPI PUSH2 0x66F PUSH2 0xBA6 JUMP JUMPDEST PUSH1 0x0 DUP1 PUSH1 0x0 PUSH1 0x60 DUP5 DUP7 SUB SLT ISZERO PUSH2 0xDC1 JUMPI PUSH1 0x0 DUP1 REVERT JUMPDEST DUP4 MLOAD SWAP3 POP PUSH1 0x20 DUP5 ADD MLOAD SWAP2 POP PUSH1 0x40 DUP5 ADD MLOAD PUSH1 0xFF DUP2 AND DUP2 EQ PUSH2 0xDE0 JUMPI PUSH1 0x0 DUP1 REVERT JUMPDEST DUP1 SWAP2 POP POP SWAP3 POP SWAP3 POP SWAP3 JUMP JUMPDEST PUSH1 0x0 DUP3 PUSH1 0x1F DUP4 ADD SLT PUSH2 0xDFC JUMPI PUSH1 0x0 DUP1 REVERT JUMPDEST DUP2 MLOAD PUSH2 0xE0A PUSH2 0xAB4 DUP3 PUSH2 0xA6D JUMP JUMPDEST DUP2 DUP2 MSTORE DUP5 PUSH1 0x20 DUP4 DUP7 ADD ADD GT ISZERO PUSH2 0xE1F JUMPI PUSH1 0x0 DUP1 REVERT JUMPDEST PUSH2 0xE30 DUP3 PUSH1 0x20 DUP4 ADD PUSH1 0x20 DUP8 ADD PUSH2 0xB4F JUMP JUMPDEST SWAP5 SWAP4 POP POP POP POP JUMP JUMPDEST PUSH1 0x0 DUP1 PUSH1 0x0 DUP1 PUSH1 0x80 DUP6 DUP8 SUB SLT ISZERO PUSH2 0xE4E JUMPI PUSH1 0x0 DUP1 REVERT JUMPDEST DUP5 MLOAD PUSH8 0xFFFFFFFFFFFFFFFF DUP1 DUP3 GT ISZERO PUSH2 0xE66 JUMPI PUSH1 0x0 DUP1 REVERT JUMPDEST PUSH2 0xE72 DUP9 DUP4 DUP10 ADD PUSH2 0xDEB JUMP JUMPDEST SWAP6 POP PUSH1 0x20 DUP8 ADD MLOAD SWAP5 POP PUSH1 0x40 DUP8 ADD MLOAD SWAP2 POP DUP1 DUP3 GT ISZERO PUSH2 0xE8F JUMPI PUSH1 0x0 DUP1 REVERT JUMPDEST POP PUSH2 0xE9C DUP8 DUP3 DUP9 ADD PUSH2 0xDEB JUMP JUMPDEST PUSH1 0x60 SWAP7 SWAP1 SWAP7 ADD MLOAD SWAP5 SWAP8 SWAP4 SWAP7 POP POP POP POP JUMP JUMPDEST PUSH1 0x0 DUP3 MLOAD PUSH2 0xBFB DUP2 DUP5 PUSH1 0x20 DUP8 ADD PUSH2 0xB4F JUMP JUMPDEST PUSH4 0x4E487B71 PUSH1 0xE0 SHL PUSH1 0x0 MSTORE PUSH1 0x21 PUSH1 0x4 MSTORE PUSH1 0x24 PUSH1 0x0 REVERT INVALID LOG2 PUSH5 0x6970667358 0x22 SLT KECCAK256 NOT 0xF DIFFICULTY 0xE NOT 0xCB 0xAA 0xB9 MSIZE LOG4 EXTCODEHASH LOG2 0x2C PUSH17 0xE64BF08E5B36529D241B2C0263661F719D PUSH7 0x64736F6C634300 ADDMOD GT STOP CALLER ","sha1":"27506f4159667d298cb805c9b4d50c7cdfbc2e5c","source":"// SPDX-License-Identifier: LicenseRef-Gyro-1.0\n// for information on licensing please see the README in the GitHub repository <https://github.com/gyrostable/core-protocol>.\npragma solidity ^0.8.4;\n\nimport \"@openzeppelin/contracts/utils/cryptography/ECDSA.sol\";\n\nimport \"../../libraries/Errors.sol\";\nimport \"../../interfaces/IAssetRegistry.sol\";\nimport \"../../interfaces/oracles/IUSDPriceOracle.sol\";\n\ncontract TrustedSignerPriceOracle is IUSDPriceOracle {\n    using ECDSA for bytes32;\n\n    /// @notice prices posted should be scaled using `PRICE_DECIMALS` decimals\n    uint8 public constant PRICE_DECIMALS = 6;\n\n    /// @notice we throw an error if the price is older than `MAX_LAG` seconds\n    uint256 public constant MAX_LAG = 3600;\n\n    /// @notice this event is emitted when the price of `asset` is updated\n    event PriceUpdated(address indexed asset, uint256 price, uint256 timestamp);\n\n    struct SignedPrice {\n        bytes message;\n        bytes signature;\n    }\n\n    struct PriceData {\n        uint64 timestamp;\n        uint128 price;\n    }\n\n    /// @notice address of the trusted price signer\n    /// This should be the Coinbase signing address in production deployments\n    /// i.e. 0xfCEAdAFab14d46e20144F48824d0C09B1a03F2BC\n    address public immutable trustedPriceSigner;\n\n    /// @notice the asset registry used to find the mapping between\n    /// a token address and its address\n    IAssetRegistry public immutable assetRegistry;\n\n    /// @dev asset to prices storage\n    mapping(address => PriceData) internal prices;\n\n    /// @notice if this is `true`, the oracle will revert if the price is stale\n    bool public preventStalePrice;\n\n    constructor(\n        address _assetRegistry,\n        address _priceSigner,\n        bool _preventStalePrice\n    ) {\n        require(_priceSigner != address(0), Errors.INVALID_ARGUMENT);\n        assetRegistry = IAssetRegistry(_assetRegistry);\n        trustedPriceSigner = _priceSigner;\n        preventStalePrice = _preventStalePrice;\n    }\n\n    /// @inheritdoc IUSDPriceOracle\n    function getPriceUSD(address baseAsset) external view returns (uint256) {\n        PriceData memory signedPrice = prices[baseAsset];\n        require(signedPrice.timestamp > 0, Errors.ASSET_NOT_SUPPORTED);\n        if (preventStalePrice) {\n            require(signedPrice.timestamp + MAX_LAG >= block.timestamp, Errors.STALE_PRICE);\n        }\n        return signedPrice.price;\n    }\n\n    /// @notice returns the last update of `asset` or 0 if `asset` has never been updated\n    function getLastUpdate(address asset) external view returns (uint256) {\n        return prices[asset].timestamp;\n    }\n\n    /// @notice Updates prices using a list of signed prices received from a trusted signer (e.g. Coinbase)\n    function postPrices(SignedPrice[] calldata signedPrices) external {\n        for (uint256 i = 0; i < signedPrices.length; i++) {\n            SignedPrice calldata signedPrice = signedPrices[i];\n            _postPrice(signedPrice.message, signedPrice.signature);\n        }\n    }\n\n    /// @notice Upates the price with a message containing the price information and its signature\n    /// The message should have the following ABI-encoded format: (string kind, uint256 timestamp, string key, uint256 price)\n    function postPrice(bytes memory message, bytes memory signature) external {\n        _postPrice(message, signature);\n    }\n\n    function _postPrice(bytes memory message, bytes memory signature) internal {\n        address signingAddress = verifyMessage(message, signature);\n        require(signingAddress == trustedPriceSigner, Errors.INVALID_MESSAGE);\n\n        (uint256 timestamp, string memory assetName, uint256 price) = decodeMessage(message);\n        address assetAddress = assetRegistry.getAssetAddress(assetName);\n        PriceData storage priceData = prices[assetAddress];\n        require(\n            timestamp > priceData.timestamp && timestamp + MAX_LAG >= block.timestamp,\n            Errors.STALE_PRICE\n        );\n\n        uint256 scaledPrice = price * 10**(18 - PRICE_DECIMALS);\n\n        priceData.timestamp = uint64(timestamp);\n        priceData.price = uint128(scaledPrice);\n\n        emit PriceUpdated(assetAddress, scaledPrice, timestamp);\n    }\n\n    function decodeMessage(bytes memory message)\n        internal\n        pure\n        returns (\n            uint256,\n            string memory,\n            uint256\n        )\n    {\n        (string memory kind, uint256 timestamp, string memory key, uint256 value) = abi.decode(\n            message,\n            (string, uint256, string, uint256)\n        );\n        require(\n            keccak256(abi.encodePacked(kind)) == keccak256(abi.encodePacked(\"prices\")),\n            Errors.INVALID_MESSAGE\n        );\n        return (timestamp, key, value);\n    }\n\n    function verifyMessage(bytes memory message, bytes memory signature)\n        internal\n        pure\n        returns (address)\n    {\n        bytes32 signedHash = keccak256(message).toEthSignedMessageHash();\n        (bytes32 r, bytes32 s, uint8 v) = abi.decode(signature, (bytes32, bytes32, uint8));\n        return signedHash.recover(v, r, s);\n    }\n}\n","sourcePath":"contracts/oracles/TrustedSignerPriceOracle.sol","type":"contract","deployment":{"address":"0x60a6c5b447b1B9D6bc5d790E95889e0eAcBc42F0","chainid":"1","blockHeight":18364053}}