{"abi":[{"inputs":[{"internalType":"address","name":"_governor","type":"address"}],"stateMutability":"nonpayable","type":"constructor","name":"constructor"},{"anonymous":false,"inputs":[{"indexed":false,"internalType":"address","name":"newGovernor","type":"address"}],"name":"GovernorChangeRequested","type":"event"},{"anonymous":false,"inputs":[{"indexed":false,"internalType":"address","name":"oldGovernor","type":"address"},{"indexed":false,"internalType":"address","name":"newGovernor","type":"address"}],"name":"GovernorChanged","type":"event"},{"inputs":[],"name":"MAX_FEE","outputs":[{"internalType":"uint64","name":"","type":"uint64"}],"stateMutability":"view","type":"function"},{"inputs":[],"name":"acceptGovernance","outputs":[],"stateMutability":"nonpayable","type":"function"},{"inputs":[{"components":[{"components":[{"components":[{"internalType":"address","name":"vault","type":"address"},{"internalType":"uint8","name":"decimals","type":"uint8"},{"internalType":"address","name":"underlying","type":"address"},{"internalType":"uint256","name":"price","type":"uint256"},{"components":[{"internalType":"uint256","name":"priceAtCalibration","type":"uint256"},{"internalType":"uint256","name":"weightAtCalibration","type":"uint256"},{"internalType":"uint256","name":"shortFlowMemory","type":"uint256"},{"internalType":"uint256","name":"shortFlowThreshold","type":"uint256"},{"internalType":"uint64","name":"weightTransitionDuration","type":"uint64"},{"internalType":"uint64","name":"weightAtPreviousCalibration","type":"uint64"},{"internalType":"uint64","name":"timeOfCalibration","type":"uint64"}],"internalType":"struct DataTypes.PersistedVaultMetadata","name":"persistedMetadata","type":"tuple"},{"internalType":"uint256","name":"reserveBalance","type":"uint256"},{"internalType":"uint256","name":"currentWeight","type":"uint256"},{"internalType":"uint256","name":"targetWeight","type":"uint256"},{"components":[{"internalType":"address","name":"tokenAddress","type":"address"},{"internalType":"bool","name":"isStable","type":"bool"},{"internalType":"uint256","name":"price","type":"uint256"},{"components":[{"internalType":"uint256","name":"floor","type":"uint256"},{"internalType":"uint256","name":"ceiling","type":"uint256"}],"internalType":"struct DataTypes.Range","name":"priceRange","type":"tuple"}],"internalType":"struct DataTypes.PricedToken[]","name":"pricedTokens","type":"tuple[]"}],"internalType":"struct DataTypes.VaultInfo","name":"vaultInfo","type":"tuple"},{"internalType":"uint256","name":"amount","type":"uint256"}],"internalType":"struct DataTypes.VaultWithAmount[]","name":"vaultsWithAmount","type":"tuple[]"},{"internalType":"bool","name":"mint","type":"bool"}],"internalType":"struct DataTypes.Order","name":"order","type":"tuple"}],"name":"applyFees","outputs":[{"components":[{"components":[{"components":[{"internalType":"address","name":"vault","type":"address"},{"internalType":"uint8","name":"decimals","type":"uint8"},{"internalType":"address","name":"underlying","type":"address"},{"internalType":"uint256","name":"price","type":"uint256"},{"components":[{"internalType":"uint256","name":"priceAtCalibration","type":"uint256"},{"internalType":"uint256","name":"weightAtCalibration","type":"uint256"},{"internalType":"uint256","name":"shortFlowMemory","type":"uint256"},{"internalType":"uint256","name":"shortFlowThreshold","type":"uint256"},{"internalType":"uint64","name":"weightTransitionDuration","type":"uint64"},{"internalType":"uint64","name":"weightAtPreviousCalibration","type":"uint64"},{"internalType":"uint64","name":"timeOfCalibration","type":"uint64"}],"internalType":"struct DataTypes.PersistedVaultMetadata","name":"persistedMetadata","type":"tuple"},{"internalType":"uint256","name":"reserveBalance","type":"uint256"},{"internalType":"uint256","name":"currentWeight","type":"uint256"},{"internalType":"uint256","name":"targetWeight","type":"uint256"},{"components":[{"internalType":"address","name":"tokenAddress","type":"address"},{"internalType":"bool","name":"isStable","type":"bool"},{"internalType":"uint256","name":"price","type":"uint256"},{"components":[{"internalType":"uint256","name":"floor","type":"uint256"},{"internalType":"uint256","name":"ceiling","type":"uint256"}],"internalType":"struct DataTypes.Range","name":"priceRange","type":"tuple"}],"internalType":"struct DataTypes.PricedToken[]","name":"pricedTokens","type":"tuple[]"}],"internalType":"struct DataTypes.VaultInfo","name":"vaultInfo","type":"tuple"},{"internalType":"uint256","name":"amount","type":"uint256"}],"internalType":"struct DataTypes.VaultWithAmount[]","name":"vaultsWithAmount","type":"tuple[]"},{"internalType":"bool","name":"mint","type":"bool"}],"internalType":"struct DataTypes.Order","name":"","type":"tuple"}],"stateMutability":"view","type":"function"},{"inputs":[{"internalType":"address","name":"newGovernor","type":"address"}],"name":"changeGovernor","outputs":[],"stateMutability":"nonpayable","type":"function"},{"inputs":[],"name":"governor","outputs":[{"internalType":"address","name":"","type":"address"}],"stateMutability":"view","type":"function"},{"inputs":[{"internalType":"address","name":"vaultAddress","type":"address"}],"name":"isVaultSupported","outputs":[{"internalType":"bool","name":"","type":"bool"}],"stateMutability":"view","type":"function"},{"inputs":[],"name":"pendingGovernor","outputs":[{"internalType":"address","name":"","type":"address"}],"stateMutability":"view","type":"function"},{"inputs":[{"internalType":"address","name":"vault","type":"address"},{"internalType":"uint64","name":"mintFee","type":"uint64"},{"internalType":"uint64","name":"redeemFee","type":"uint64"}],"name":"setVaultFees","outputs":[],"stateMutability":"nonpayable","type":"function"},{"inputs":[{"internalType":"address","name":"","type":"address"}],"name":"vaultFees","outputs":[{"internalType":"bool","name":"exists","type":"bool"},{"internalType":"uint64","name":"mint","type":"uint64"},{"internalType":"uint64","name":"redeem","type":"uint64"}],"stateMutability":"view","type":"function"}],"bytecode":"608060405234801561001057600080fd5b506040516110db3803806110db83398101604081905261002f9161008f565b600080546001600160a01b0319166001600160a01b038316908117825560408051928352602083019190915282917fde4b3f61490b74c0ed6237523974fe299126bbbf8a8a7482fd220104c59b0c84910160405180910390a150506100bf565b6000602082840312156100a157600080fd5b81516001600160a01b03811681146100b857600080fd5b9392505050565b61100d806100ce6000396000f3fe608060405234801561001057600080fd5b50600436106100935760003560e01c80633e9d87e9116100665780633e9d87e914610172578063a90f236d14610192578063bc063e1a146101a5578063e3056a34146101cc578063e4c0aaf4146101df57600080fd5b80630a01286f146100985780630c340a2414610101578063238efcbc1461012c578063240825cb14610136575b600080fd5b6100d56100a6366004610858565b60026020526000908152604090205460ff8116906001600160401b036101008204811691600160481b90041683565b6040805193151584526001600160401b0392831660208501529116908201526060015b60405180910390f35b600054610114906001600160a01b031681565b6040516001600160a01b0390911681526020016100f8565b6101346101f2565b005b610162610144366004610858565b6001600160a01b031660009081526002602052604090205460ff1690565b60405190151581526020016100f8565b610185610180366004610af9565b6102ab565b6040516100f89190610d57565b6101346101a0366004610eb5565b6104d3565b6101b46702c68af0bb14000081565b6040516001600160401b0390911681526020016100f8565b600154610114906001600160a01b031681565b6101346101ed366004610858565b610662565b600154604080518082019091526002815261033360f41b6020820152906001600160a01b031633146102405760405162461bcd60e51b81526004016102379190610ef8565b60405180910390fd5b5060008054600180546001600160a01b03198084166001600160a01b03808416919091179095551690556040805192909116808352336020840152917fde4b3f61490b74c0ed6237523974fe299126bbbf8a8a7482fd220104c59b0c8491015b60405180910390a150565b6040805180820190915260608152600060208201528151516000906001600160401b038111156102dd576102dd61087a565b60405190808252806020026020018201604052801561031657816020015b610303610762565b8152602001906001900390816102fb5790505b50905060005b8351518110156104af5760008460000151828151811061033e5761033e610f46565b60209081029190910181015151516001600160a01b038116600090815260028084526040918290208251606081018452905460ff811615158083526001600160401b036101008304811684890152600160481b90920490911682850152835180850190945291835261333160f01b94830194909452919350906103d45760405162461bcd60e51b81526004016102379190610ef8565b50600086602001516103ea5781604001516103f0565b81602001515b61040b906001600160401b0316670de0b6b3a7640000610f72565b90506000610443828960000151878151811061042957610429610f46565b60200260200101516020015161073790919063ffffffff16565b905060405180604001604052808960000151878151811061046657610466610f46565b60200260200101516000015181526020018281525086868151811061048d5761048d610f46565b60200260200101819052505050505080806104a790610f85565b91505061031c565b50604051806040016040528082815260200184602001511515815250915050919050565b600054604080518082019091526002815261033360f41b6020820152906001600160a01b031633146105185760405162461bcd60e51b81526004016102379190610ef8565b50604080518082019091526002815261333160f01b60208201526001600160a01b0384166105595760405162461bcd60e51b81526004016102379190610ef8565b506702c68af0bb1400006001600160401b0383161180159061058c57506702c68af0bb1400006001600160401b03821611155b60405180604001604052806002815260200161333160f01b815250906105c55760405162461bcd60e51b81526004016102379190610ef8565b5060408051606081018252600181526001600160401b0393841660208083019182529385168284019081526001600160a01b03909616600090815260029094529190922091518254915194518416600160481b0270ffffffffffffffff00000000000000000019959094166101000268ffffffffffffffff00199115159190911668ffffffffffffffffff19909216919091171792909216179055565b600054604080518082019091526002815261033360f41b6020820152906001600160a01b031633146106a75760405162461bcd60e51b81526004016102379190610ef8565b50604080518082019091526002815261333160f01b60208201526001600160a01b0382166106e85760405162461bcd60e51b81526004016102379190610ef8565b50600180546001600160a01b0319166001600160a01b0383169081179091556040519081527f67235ba2e63c748a35b95c4f92a3bbc2a1389938170a5ce6c9add5d0b03a314a906020016102a0565b6000806107448385610f9e565b9050610758670de0b6b3a764000082610fb5565b9150505b92915050565b6040518060400160405280610775610782565b8152602001600081525090565b60405180610120016040528060006001600160a01b03168152602001600060ff16815260200160006001600160a01b031681526020016000815260200161081a6040518060e001604052806000815260200160008152602001600081526020016000815260200160006001600160401b0316815260200160006001600160401b0316815260200160006001600160401b031681525090565b8152602001600081526020016000815260200160008152602001606081525090565b80356001600160a01b038116811461085357600080fd5b919050565b60006020828403121561086a57600080fd5b6108738261083c565b9392505050565b634e487b7160e01b600052604160045260246000fd5b604051608081016001600160401b03811182821017156108b2576108b261087a565b60405290565b604080519081016001600160401b03811182821017156108b2576108b261087a565b60405161012081016001600160401b03811182821017156108b2576108b261087a565b604051601f8201601f191681016001600160401b03811182821017156109255761092561087a565b604052919050565b60006001600160401b038211156109465761094661087a565b5060051b60200190565b803560ff8116811461085357600080fd5b80356001600160401b038116811461085357600080fd5b600060e0828403121561098a57600080fd5b60405160e081018181106001600160401b03821117156109ac576109ac61087a565b8060405250809150823581526020830135602082015260408301356040820152606083013560608201526109e260808401610961565b60808201526109f360a08401610961565b60a0820152610a0460c08401610961565b60c08201525092915050565b8035801515811461085357600080fd5b600082601f830112610a3157600080fd5b81356020610a46610a418361092d565b6108fd565b82815260a09283028501820192828201919087851115610a6557600080fd5b8387015b85811015610aec5780890382811215610a825760008081fd5b610a8a610890565b610a938361083c565b8152610aa0878401610a10565b8782015260408084013581830152606081605f1985011215610ac25760008081fd5b610aca6108b8565b85820135815260808601358a8201529083015250855250928401928101610a69565b5090979650505050505050565b600060208284031215610b0b57600080fd5b6001600160401b038083351115610b2157600080fd5b60408335840185031215610b3457600080fd5b610b3c6108b8565b8184358501351115610b4d57600080fd5b83358401803501601f81018613610b6357600080fd5b610b70610a41823561092d565b81358082526020808301929160051b840101881015610b8e57600080fd5b602083015b6020843560051b850101811015610cc2578581351115610bb257600080fd5b80358401601f196040828c0382011215610bcb57600080fd5b610bd36108b8565b8860208401351115610be457600080fd5b602083013583016101e083828f03011215610bfe57600080fd5b610c066108da565b9250610c146020820161083c565b8352610c2260408201610950565b6020840152610c336060820161083c565b604084015260808101356060840152610c4f8d60a08301610978565b608084015261018081013560a08401526101a081013560c08401526101c081013560e0840152896101e08201351115610c8757600080fd5b610c9b8d60206101e0840135840101610a20565b61010084015250908152604091909101356020808301919091529084529283019201610b93565b50835250610cd7905084358501602001610a10565b6020820152949350505050565b600081518084526020808501945080840160005b83811015610d4c57815180516001600160a01b031688528381015115158489015260408082015190890152606090810151805191890191909152830151608088015260a09096019590820190600101610cf8565b509495945050505050565b600060208083526060808401855160408085880152828251808552608094508489019150848160051b8a0101878501945060005b82811015610e9a578a8203607f190184528551805186845280516001600160a01b031687850152808b015160ff8116858c015250808701516001600160a01b038116858b015250808a015160a08581019190915289820151805160c080880191909152602082015160e08801526040820151610100880152606082015161012088015260808201516001600160401b03908116610140890152828401518116610160890152818301511661018088015290918301516101a08701528201516101c08601525060e08101516101e08086019190915261010090910151610200850191909152610e7d610220850182610ce4565b918b0151938b019390935295890195938901939150600101610d8b565b50968a0151801515848b0152969a9950505050505050505050565b600080600060608486031215610eca57600080fd5b610ed38461083c565b9250610ee160208501610961565b9150610eef60408501610961565b90509250925092565b600060208083528351808285015260005b81811015610f2557858101830151858201604001528201610f09565b506000604082860101526040601f19601f8301168501019250505092915050565b634e487b7160e01b600052603260045260246000fd5b634e487b7160e01b600052601160045260246000fd5b8181038181111561075c5761075c610f5c565b600060018201610f9757610f97610f5c565b5060010190565b808202811582820484141761075c5761075c610f5c565b600082610fd257634e487b7160e01b600052601260045260246000fd5b50049056fea2646970667358221220ca2aa32c2d5dd97c43a54f0279dcfd13513b1bead42fca286dd787db27e71eb864736f6c63430008110033","bytecodeSha1":"d2154a5e6997b942971d70852875451ba3dd9f48","compiler":{"evm_version":"london","optimizer":{"enabled":true,"runs":200},"version":"0.8.17+commit.8df45f5f"},"contractName":"StaticPercentageFeeHandler","language":"Solidity","natspec":{"kind":"dev","methods":{"MAX_FEE()":{"notice":"Mint and redeem fees cannot be above 20%"},"acceptGovernance()":{"notice":"Called by the pending governor to approve the change"},"applyFees((((address,uint8,address,uint256,(uint256,uint256,uint256,uint256,uint64,uint64,uint64),uint256,uint256,uint256,(address,bool,uint256,(uint256,uint256))[]),uint256)[],bool))":{"returns":{"_0":"an order with the fees applied"}},"changeGovernor(address)":{"notice":"Changes the governor can only be called by the current governor"},"governor()":{"notice":"Returns the current governor"},"isVaultSupported(address)":{"returns":{"_0":"if the given vault is supported"}},"pendingGovernor()":{"notice":"Returns the pending governor"},"setVaultFees(address,uint64,uint64)":{"notice":"set the fees for a vault"},"vaultFees(address)":{"notice":"mapping from vault to fees"}},"version":1},"opcodes":"PUSH1 0x80 PUSH1 0x40 MSTORE CALLVALUE DUP1 ISZERO PUSH2 0x10 JUMPI PUSH1 0x0 DUP1 REVERT JUMPDEST POP PUSH1 0x4 CALLDATASIZE LT PUSH2 0x93 JUMPI PUSH1 0x0 CALLDATALOAD PUSH1 0xE0 SHR DUP1 PUSH4 0x3E9D87E9 GT PUSH2 0x66 JUMPI DUP1 PUSH4 0x3E9D87E9 EQ PUSH2 0x172 JUMPI DUP1 PUSH4 0xA90F236D EQ PUSH2 0x192 JUMPI DUP1 PUSH4 0xBC063E1A EQ PUSH2 0x1A5 JUMPI DUP1 PUSH4 0xE3056A34 EQ PUSH2 0x1CC JUMPI DUP1 PUSH4 0xE4C0AAF4 EQ PUSH2 0x1DF JUMPI PUSH1 0x0 DUP1 REVERT JUMPDEST DUP1 PUSH4 0xA01286F EQ PUSH2 0x98 JUMPI DUP1 PUSH4 0xC340A24 EQ PUSH2 0x101 JUMPI DUP1 PUSH4 0x238EFCBC EQ PUSH2 0x12C JUMPI DUP1 PUSH4 0x240825CB EQ PUSH2 0x136 JUMPI JUMPDEST PUSH1 0x0 DUP1 REVERT JUMPDEST PUSH2 0xD5 PUSH2 0xA6 CALLDATASIZE PUSH1 0x4 PUSH2 0x858 JUMP JUMPDEST PUSH1 0x2 PUSH1 0x20 MSTORE PUSH1 0x0 SWAP1 DUP2 MSTORE PUSH1 0x40 SWAP1 KECCAK256 SLOAD PUSH1 0xFF DUP2 AND SWAP1 PUSH1 0x1 PUSH1 0x1 PUSH1 0x40 SHL SUB PUSH2 0x100 DUP3 DIV DUP2 AND SWAP2 PUSH1 0x1 PUSH1 0x48 SHL SWAP1 DIV AND DUP4 JUMP JUMPDEST PUSH1 0x40 DUP1 MLOAD SWAP4 ISZERO ISZERO DUP5 MSTORE PUSH1 0x1 PUSH1 0x1 PUSH1 0x40 SHL SUB SWAP3 DUP4 AND PUSH1 0x20 DUP6 ADD MSTORE SWAP2 AND SWAP1 DUP3 ADD MSTORE PUSH1 0x60 ADD JUMPDEST PUSH1 0x40 MLOAD DUP1 SWAP2 SUB SWAP1 RETURN JUMPDEST PUSH1 0x0 SLOAD PUSH2 0x114 SWAP1 PUSH1 0x1 PUSH1 0x1 PUSH1 0xA0 SHL SUB AND DUP2 JUMP JUMPDEST PUSH1 0x40 MLOAD PUSH1 0x1 PUSH1 0x1 PUSH1 0xA0 SHL SUB SWAP1 SWAP2 AND DUP2 MSTORE PUSH1 0x20 ADD PUSH2 0xF8 JUMP JUMPDEST PUSH2 0x134 PUSH2 0x1F2 JUMP JUMPDEST STOP JUMPDEST PUSH2 0x162 PUSH2 0x144 CALLDATASIZE PUSH1 0x4 PUSH2 0x858 JUMP JUMPDEST PUSH1 0x1 PUSH1 0x1 PUSH1 0xA0 SHL SUB AND PUSH1 0x0 SWAP1 DUP2 MSTORE PUSH1 0x2 PUSH1 0x20 MSTORE PUSH1 0x40 SWAP1 KECCAK256 SLOAD PUSH1 0xFF AND SWAP1 JUMP JUMPDEST PUSH1 0x40 MLOAD SWAP1 ISZERO ISZERO DUP2 MSTORE PUSH1 0x20 ADD PUSH2 0xF8 JUMP JUMPDEST PUSH2 0x185 PUSH2 0x180 CALLDATASIZE PUSH1 0x4 PUSH2 0xAF9 JUMP JUMPDEST PUSH2 0x2AB JUMP JUMPDEST PUSH1 0x40 MLOAD PUSH2 0xF8 SWAP2 SWAP1 PUSH2 0xD57 JUMP JUMPDEST PUSH2 0x134 PUSH2 0x1A0 CALLDATASIZE PUSH1 0x4 PUSH2 0xEB5 JUMP JUMPDEST PUSH2 0x4D3 JUMP JUMPDEST PUSH2 0x1B4 PUSH8 0x2C68AF0BB140000 DUP2 JUMP JUMPDEST PUSH1 0x40 MLOAD PUSH1 0x1 PUSH1 0x1 PUSH1 0x40 SHL SUB SWAP1 SWAP2 AND DUP2 MSTORE PUSH1 0x20 ADD PUSH2 0xF8 JUMP JUMPDEST PUSH1 0x1 SLOAD PUSH2 0x114 SWAP1 PUSH1 0x1 PUSH1 0x1 PUSH1 0xA0 SHL SUB AND DUP2 JUMP JUMPDEST PUSH2 0x134 PUSH2 0x1ED CALLDATASIZE PUSH1 0x4 PUSH2 0x858 JUMP JUMPDEST PUSH2 0x662 JUMP JUMPDEST PUSH1 0x1 SLOAD PUSH1 0x40 DUP1 MLOAD DUP1 DUP3 ADD SWAP1 SWAP2 MSTORE PUSH1 0x2 DUP2 MSTORE PUSH2 0x333 PUSH1 0xF4 SHL PUSH1 0x20 DUP3 ADD MSTORE SWAP1 PUSH1 0x1 PUSH1 0x1 PUSH1 0xA0 SHL SUB AND CALLER EQ PUSH2 0x240 JUMPI PUSH1 0x40 MLOAD PUSH3 0x461BCD PUSH1 0xE5 SHL DUP2 MSTORE PUSH1 0x4 ADD PUSH2 0x237 SWAP2 SWAP1 PUSH2 0xEF8 JUMP JUMPDEST PUSH1 0x40 MLOAD DUP1 SWAP2 SUB SWAP1 REVERT JUMPDEST POP PUSH1 0x0 DUP1 SLOAD PUSH1 0x1 DUP1 SLOAD PUSH1 0x1 PUSH1 0x1 PUSH1 0xA0 SHL SUB NOT DUP1 DUP5 AND PUSH1 0x1 PUSH1 0x1 PUSH1 0xA0 SHL SUB DUP1 DUP5 AND SWAP2 SWAP1 SWAP2 OR SWAP1 SWAP6 SSTORE AND SWAP1 SSTORE PUSH1 0x40 DUP1 MLOAD SWAP3 SWAP1 SWAP2 AND DUP1 DUP4 MSTORE CALLER PUSH1 0x20 DUP5 ADD MSTORE SWAP2 PUSH32 0xDE4B3F61490B74C0ED6237523974FE299126BBBF8A8A7482FD220104C59B0C84 SWAP2 ADD JUMPDEST PUSH1 0x40 MLOAD DUP1 SWAP2 SUB SWAP1 LOG1 POP JUMP JUMPDEST PUSH1 0x40 DUP1 MLOAD DUP1 DUP3 ADD SWAP1 SWAP2 MSTORE PUSH1 0x60 DUP2 MSTORE PUSH1 0x0 PUSH1 0x20 DUP3 ADD MSTORE DUP2 MLOAD MLOAD PUSH1 0x0 SWAP1 PUSH1 0x1 PUSH1 0x1 PUSH1 0x40 SHL SUB DUP2 GT ISZERO PUSH2 0x2DD JUMPI PUSH2 0x2DD PUSH2 0x87A JUMP JUMPDEST PUSH1 0x40 MLOAD SWAP1 DUP1 DUP3 MSTORE DUP1 PUSH1 0x20 MUL PUSH1 0x20 ADD DUP3 ADD PUSH1 0x40 MSTORE DUP1 ISZERO PUSH2 0x316 JUMPI DUP2 PUSH1 0x20 ADD JUMPDEST PUSH2 0x303 PUSH2 0x762 JUMP JUMPDEST DUP2 MSTORE PUSH1 0x20 ADD SWAP1 PUSH1 0x1 SWAP1 SUB SWAP1 DUP2 PUSH2 0x2FB JUMPI SWAP1 POP JUMPDEST POP SWAP1 POP PUSH1 0x0 JUMPDEST DUP4 MLOAD MLOAD DUP2 LT ISZERO PUSH2 0x4AF JUMPI PUSH1 0x0 DUP5 PUSH1 0x0 ADD MLOAD DUP3 DUP2 MLOAD DUP2 LT PUSH2 0x33E JUMPI PUSH2 0x33E PUSH2 0xF46 JUMP JUMPDEST PUSH1 0x20 SWAP1 DUP2 MUL SWAP2 SWAP1 SWAP2 ADD DUP2 ADD MLOAD MLOAD MLOAD PUSH1 0x1 PUSH1 0x1 PUSH1 0xA0 SHL SUB DUP2 AND PUSH1 0x0 SWAP1 DUP2 MSTORE PUSH1 0x2 DUP1 DUP5 MSTORE PUSH1 0x40 SWAP2 DUP3 SWAP1 KECCAK256 DUP3 MLOAD PUSH1 0x60 DUP2 ADD DUP5 MSTORE SWAP1 SLOAD PUSH1 0xFF DUP2 AND ISZERO ISZERO DUP1 DUP4 MSTORE PUSH1 0x1 PUSH1 0x1 PUSH1 0x40 SHL SUB PUSH2 0x100 DUP4 DIV DUP2 AND DUP5 DUP10 ADD MSTORE PUSH1 0x1 PUSH1 0x48 SHL SWAP1 SWAP3 DIV SWAP1 SWAP2 AND DUP3 DUP6 ADD MSTORE DUP4 MLOAD DUP1 DUP6 ADD SWAP1 SWAP5 MSTORE SWAP2 DUP4 MSTORE PUSH2 0x3331 PUSH1 0xF0 SHL SWAP5 DUP4 ADD SWAP5 SWAP1 SWAP5 MSTORE SWAP2 SWAP4 POP SWAP1 PUSH2 0x3D4 JUMPI PUSH1 0x40 MLOAD PUSH3 0x461BCD PUSH1 0xE5 SHL DUP2 MSTORE PUSH1 0x4 ADD PUSH2 0x237 SWAP2 SWAP1 PUSH2 0xEF8 JUMP JUMPDEST POP PUSH1 0x0 DUP7 PUSH1 0x20 ADD MLOAD PUSH2 0x3EA JUMPI DUP2 PUSH1 0x40 ADD MLOAD PUSH2 0x3F0 JUMP JUMPDEST DUP2 PUSH1 0x20 ADD MLOAD JUMPDEST PUSH2 0x40B SWAP1 PUSH1 0x1 PUSH1 0x1 PUSH1 0x40 SHL SUB AND PUSH8 0xDE0B6B3A7640000 PUSH2 0xF72 JUMP JUMPDEST SWAP1 POP PUSH1 0x0 PUSH2 0x443 DUP3 DUP10 PUSH1 0x0 ADD MLOAD DUP8 DUP2 MLOAD DUP2 LT PUSH2 0x429 JUMPI PUSH2 0x429 PUSH2 0xF46 JUMP JUMPDEST PUSH1 0x20 MUL PUSH1 0x20 ADD ADD MLOAD PUSH1 0x20 ADD MLOAD PUSH2 0x737 SWAP1 SWAP2 SWAP1 PUSH4 0xFFFFFFFF AND JUMP JUMPDEST SWAP1 POP PUSH1 0x40 MLOAD DUP1 PUSH1 0x40 ADD PUSH1 0x40 MSTORE DUP1 DUP10 PUSH1 0x0 ADD MLOAD DUP8 DUP2 MLOAD DUP2 LT PUSH2 0x466 JUMPI PUSH2 0x466 PUSH2 0xF46 JUMP JUMPDEST PUSH1 0x20 MUL PUSH1 0x20 ADD ADD MLOAD PUSH1 0x0 ADD MLOAD DUP2 MSTORE PUSH1 0x20 ADD DUP3 DUP2 MSTORE POP DUP7 DUP7 DUP2 MLOAD DUP2 LT PUSH2 0x48D JUMPI PUSH2 0x48D PUSH2 0xF46 JUMP JUMPDEST PUSH1 0x20 MUL PUSH1 0x20 ADD ADD DUP2 SWAP1 MSTORE POP POP POP POP POP DUP1 DUP1 PUSH2 0x4A7 SWAP1 PUSH2 0xF85 JUMP JUMPDEST SWAP2 POP POP PUSH2 0x31C JUMP JUMPDEST POP PUSH1 0x40 MLOAD DUP1 PUSH1 0x40 ADD PUSH1 0x40 MSTORE DUP1 DUP3 DUP2 MSTORE PUSH1 0x20 ADD DUP5 PUSH1 0x20 ADD MLOAD ISZERO ISZERO DUP2 MSTORE POP SWAP2 POP POP SWAP2 SWAP1 POP JUMP JUMPDEST PUSH1 0x0 SLOAD PUSH1 0x40 DUP1 MLOAD DUP1 DUP3 ADD SWAP1 SWAP2 MSTORE PUSH1 0x2 DUP2 MSTORE PUSH2 0x333 PUSH1 0xF4 SHL PUSH1 0x20 DUP3 ADD MSTORE SWAP1 PUSH1 0x1 PUSH1 0x1 PUSH1 0xA0 SHL SUB AND CALLER EQ PUSH2 0x518 JUMPI PUSH1 0x40 MLOAD PUSH3 0x461BCD PUSH1 0xE5 SHL DUP2 MSTORE PUSH1 0x4 ADD PUSH2 0x237 SWAP2 SWAP1 PUSH2 0xEF8 JUMP JUMPDEST POP PUSH1 0x40 DUP1 MLOAD DUP1 DUP3 ADD SWAP1 SWAP2 MSTORE PUSH1 0x2 DUP2 MSTORE PUSH2 0x3331 PUSH1 0xF0 SHL PUSH1 0x20 DUP3 ADD MSTORE PUSH1 0x1 PUSH1 0x1 PUSH1 0xA0 SHL SUB DUP5 AND PUSH2 0x559 JUMPI PUSH1 0x40 MLOAD PUSH3 0x461BCD PUSH1 0xE5 SHL DUP2 MSTORE PUSH1 0x4 ADD PUSH2 0x237 SWAP2 SWAP1 PUSH2 0xEF8 JUMP JUMPDEST POP PUSH8 0x2C68AF0BB140000 PUSH1 0x1 PUSH1 0x1 PUSH1 0x40 SHL SUB DUP4 AND GT DUP1 ISZERO SWAP1 PUSH2 0x58C JUMPI POP PUSH8 0x2C68AF0BB140000 PUSH1 0x1 PUSH1 0x1 PUSH1 0x40 SHL SUB DUP3 AND GT ISZERO JUMPDEST PUSH1 0x40 MLOAD DUP1 PUSH1 0x40 ADD PUSH1 0x40 MSTORE DUP1 PUSH1 0x2 DUP2 MSTORE PUSH1 0x20 ADD PUSH2 0x3331 PUSH1 0xF0 SHL DUP2 MSTORE POP SWAP1 PUSH2 0x5C5 JUMPI PUSH1 0x40 MLOAD PUSH3 0x461BCD PUSH1 0xE5 SHL DUP2 MSTORE PUSH1 0x4 ADD PUSH2 0x237 SWAP2 SWAP1 PUSH2 0xEF8 JUMP JUMPDEST POP PUSH1 0x40 DUP1 MLOAD PUSH1 0x60 DUP2 ADD DUP3 MSTORE PUSH1 0x1 DUP2 MSTORE PUSH1 0x1 PUSH1 0x1 PUSH1 0x40 SHL SUB SWAP4 DUP5 AND PUSH1 0x20 DUP1 DUP4 ADD SWAP2 DUP3 MSTORE SWAP4 DUP6 AND DUP3 DUP5 ADD SWAP1 DUP2 MSTORE PUSH1 0x1 PUSH1 0x1 PUSH1 0xA0 SHL SUB SWAP1 SWAP7 AND PUSH1 0x0 SWAP1 DUP2 MSTORE PUSH1 0x2 SWAP1 SWAP5 MSTORE SWAP2 SWAP1 SWAP3 KECCAK256 SWAP2 MLOAD DUP3 SLOAD SWAP2 MLOAD SWAP5 MLOAD DUP5 AND PUSH1 0x1 PUSH1 0x48 SHL MUL PUSH17 0xFFFFFFFFFFFFFFFF000000000000000000 NOT SWAP6 SWAP1 SWAP5 AND PUSH2 0x100 MUL PUSH9 0xFFFFFFFFFFFFFFFF00 NOT SWAP2 ISZERO ISZERO SWAP2 SWAP1 SWAP2 AND PUSH9 0xFFFFFFFFFFFFFFFFFF NOT SWAP1 SWAP3 AND SWAP2 SWAP1 SWAP2 OR OR SWAP3 SWAP1 SWAP3 AND OR SWAP1 SSTORE JUMP JUMPDEST PUSH1 0x0 SLOAD PUSH1 0x40 DUP1 MLOAD DUP1 DUP3 ADD SWAP1 SWAP2 MSTORE PUSH1 0x2 DUP2 MSTORE PUSH2 0x333 PUSH1 0xF4 SHL PUSH1 0x20 DUP3 ADD MSTORE SWAP1 PUSH1 0x1 PUSH1 0x1 PUSH1 0xA0 SHL SUB AND CALLER EQ PUSH2 0x6A7 JUMPI PUSH1 0x40 MLOAD PUSH3 0x461BCD PUSH1 0xE5 SHL DUP2 MSTORE PUSH1 0x4 ADD PUSH2 0x237 SWAP2 SWAP1 PUSH2 0xEF8 JUMP JUMPDEST POP PUSH1 0x40 DUP1 MLOAD DUP1 DUP3 ADD SWAP1 SWAP2 MSTORE PUSH1 0x2 DUP2 MSTORE PUSH2 0x3331 PUSH1 0xF0 SHL PUSH1 0x20 DUP3 ADD MSTORE PUSH1 0x1 PUSH1 0x1 PUSH1 0xA0 SHL SUB DUP3 AND PUSH2 0x6E8 JUMPI PUSH1 0x40 MLOAD PUSH3 0x461BCD PUSH1 0xE5 SHL DUP2 MSTORE PUSH1 0x4 ADD PUSH2 0x237 SWAP2 SWAP1 PUSH2 0xEF8 JUMP JUMPDEST POP PUSH1 0x1 DUP1 SLOAD PUSH1 0x1 PUSH1 0x1 PUSH1 0xA0 SHL SUB NOT AND PUSH1 0x1 PUSH1 0x1 PUSH1 0xA0 SHL SUB DUP4 AND SWAP1 DUP2 OR SWAP1 SWAP2 SSTORE PUSH1 0x40 MLOAD SWAP1 DUP2 MSTORE PUSH32 0x67235BA2E63C748A35B95C4F92A3BBC2A1389938170A5CE6C9ADD5D0B03A314A SWAP1 PUSH1 0x20 ADD PUSH2 0x2A0 JUMP JUMPDEST PUSH1 0x0 DUP1 PUSH2 0x744 DUP4 DUP6 PUSH2 0xF9E JUMP JUMPDEST SWAP1 POP PUSH2 0x758 PUSH8 0xDE0B6B3A7640000 DUP3 PUSH2 0xFB5 JUMP JUMPDEST SWAP2 POP POP JUMPDEST SWAP3 SWAP2 POP POP JUMP JUMPDEST PUSH1 0x40 MLOAD DUP1 PUSH1 0x40 ADD PUSH1 0x40 MSTORE DUP1 PUSH2 0x775 PUSH2 0x782 JUMP JUMPDEST DUP2 MSTORE PUSH1 0x20 ADD PUSH1 0x0 DUP2 MSTORE POP SWAP1 JUMP JUMPDEST PUSH1 0x40 MLOAD DUP1 PUSH2 0x120 ADD PUSH1 0x40 MSTORE DUP1 PUSH1 0x0 PUSH1 0x1 PUSH1 0x1 PUSH1 0xA0 SHL SUB AND DUP2 MSTORE PUSH1 0x20 ADD PUSH1 0x0 PUSH1 0xFF AND DUP2 MSTORE PUSH1 0x20 ADD PUSH1 0x0 PUSH1 0x1 PUSH1 0x1 PUSH1 0xA0 SHL SUB AND DUP2 MSTORE PUSH1 0x20 ADD PUSH1 0x0 DUP2 MSTORE PUSH1 0x20 ADD PUSH2 0x81A PUSH1 0x40 MLOAD DUP1 PUSH1 0xE0 ADD PUSH1 0x40 MSTORE DUP1 PUSH1 0x0 DUP2 MSTORE PUSH1 0x20 ADD PUSH1 0x0 DUP2 MSTORE PUSH1 0x20 ADD PUSH1 0x0 DUP2 MSTORE PUSH1 0x20 ADD PUSH1 0x0 DUP2 MSTORE PUSH1 0x20 ADD PUSH1 0x0 PUSH1 0x1 PUSH1 0x1 PUSH1 0x40 SHL SUB AND DUP2 MSTORE PUSH1 0x20 ADD PUSH1 0x0 PUSH1 0x1 PUSH1 0x1 PUSH1 0x40 SHL SUB AND DUP2 MSTORE PUSH1 0x20 ADD PUSH1 0x0 PUSH1 0x1 PUSH1 0x1 PUSH1 0x40 SHL SUB AND DUP2 MSTORE POP SWAP1 JUMP JUMPDEST DUP2 MSTORE PUSH1 0x20 ADD PUSH1 0x0 DUP2 MSTORE PUSH1 0x20 ADD PUSH1 0x0 DUP2 MSTORE PUSH1 0x20 ADD PUSH1 0x0 DUP2 MSTORE PUSH1 0x20 ADD PUSH1 0x60 DUP2 MSTORE POP SWAP1 JUMP JUMPDEST DUP1 CALLDATALOAD PUSH1 0x1 PUSH1 0x1 PUSH1 0xA0 SHL SUB DUP2 AND DUP2 EQ PUSH2 0x853 JUMPI PUSH1 0x0 DUP1 REVERT JUMPDEST SWAP2 SWAP1 POP JUMP JUMPDEST PUSH1 0x0 PUSH1 0x20 DUP3 DUP5 SUB SLT ISZERO PUSH2 0x86A JUMPI PUSH1 0x0 DUP1 REVERT JUMPDEST PUSH2 0x873 DUP3 PUSH2 0x83C JUMP JUMPDEST SWAP4 SWAP3 POP POP POP JUMP JUMPDEST PUSH4 0x4E487B71 PUSH1 0xE0 SHL PUSH1 0x0 MSTORE PUSH1 0x41 PUSH1 0x4 MSTORE PUSH1 0x24 PUSH1 0x0 REVERT JUMPDEST PUSH1 0x40 MLOAD PUSH1 0x80 DUP2 ADD PUSH1 0x1 PUSH1 0x1 PUSH1 0x40 SHL SUB DUP2 GT DUP3 DUP3 LT OR ISZERO PUSH2 0x8B2 JUMPI PUSH2 0x8B2 PUSH2 0x87A JUMP JUMPDEST PUSH1 0x40 MSTORE SWAP1 JUMP JUMPDEST PUSH1 0x40 DUP1 MLOAD SWAP1 DUP2 ADD PUSH1 0x1 PUSH1 0x1 PUSH1 0x40 SHL SUB DUP2 GT DUP3 DUP3 LT OR ISZERO PUSH2 0x8B2 JUMPI PUSH2 0x8B2 PUSH2 0x87A JUMP JUMPDEST PUSH1 0x40 MLOAD PUSH2 0x120 DUP2 ADD PUSH1 0x1 PUSH1 0x1 PUSH1 0x40 SHL SUB DUP2 GT DUP3 DUP3 LT OR ISZERO PUSH2 0x8B2 JUMPI PUSH2 0x8B2 PUSH2 0x87A JUMP JUMPDEST PUSH1 0x40 MLOAD PUSH1 0x1F DUP3 ADD PUSH1 0x1F NOT AND DUP2 ADD PUSH1 0x1 PUSH1 0x1 PUSH1 0x40 SHL SUB DUP2 GT DUP3 DUP3 LT OR ISZERO PUSH2 0x925 JUMPI PUSH2 0x925 PUSH2 0x87A JUMP JUMPDEST PUSH1 0x40 MSTORE SWAP2 SWAP1 POP JUMP JUMPDEST PUSH1 0x0 PUSH1 0x1 PUSH1 0x1 PUSH1 0x40 SHL SUB DUP3 GT ISZERO PUSH2 0x946 JUMPI PUSH2 0x946 PUSH2 0x87A JUMP JUMPDEST POP PUSH1 0x5 SHL PUSH1 0x20 ADD SWAP1 JUMP JUMPDEST DUP1 CALLDATALOAD PUSH1 0xFF DUP2 AND DUP2 EQ PUSH2 0x853 JUMPI PUSH1 0x0 DUP1 REVERT JUMPDEST DUP1 CALLDATALOAD PUSH1 0x1 PUSH1 0x1 PUSH1 0x40 SHL SUB DUP2 AND DUP2 EQ PUSH2 0x853 JUMPI PUSH1 0x0 DUP1 REVERT JUMPDEST PUSH1 0x0 PUSH1 0xE0 DUP3 DUP5 SUB SLT ISZERO PUSH2 0x98A JUMPI PUSH1 0x0 DUP1 REVERT JUMPDEST PUSH1 0x40 MLOAD PUSH1 0xE0 DUP2 ADD DUP2 DUP2 LT PUSH1 0x1 PUSH1 0x1 PUSH1 0x40 SHL SUB DUP3 GT OR ISZERO PUSH2 0x9AC JUMPI PUSH2 0x9AC PUSH2 0x87A JUMP JUMPDEST DUP1 PUSH1 0x40 MSTORE POP DUP1 SWAP2 POP DUP3 CALLDATALOAD DUP2 MSTORE PUSH1 0x20 DUP4 ADD CALLDATALOAD PUSH1 0x20 DUP3 ADD MSTORE PUSH1 0x40 DUP4 ADD CALLDATALOAD PUSH1 0x40 DUP3 ADD MSTORE PUSH1 0x60 DUP4 ADD CALLDATALOAD PUSH1 0x60 DUP3 ADD MSTORE PUSH2 0x9E2 PUSH1 0x80 DUP5 ADD PUSH2 0x961 JUMP JUMPDEST PUSH1 0x80 DUP3 ADD MSTORE PUSH2 0x9F3 PUSH1 0xA0 DUP5 ADD PUSH2 0x961 JUMP JUMPDEST PUSH1 0xA0 DUP3 ADD MSTORE PUSH2 0xA04 PUSH1 0xC0 DUP5 ADD PUSH2 0x961 JUMP JUMPDEST PUSH1 0xC0 DUP3 ADD MSTORE POP SWAP3 SWAP2 POP POP JUMP JUMPDEST DUP1 CALLDATALOAD DUP1 ISZERO ISZERO DUP2 EQ PUSH2 0x853 JUMPI PUSH1 0x0 DUP1 REVERT JUMPDEST PUSH1 0x0 DUP3 PUSH1 0x1F DUP4 ADD SLT PUSH2 0xA31 JUMPI PUSH1 0x0 DUP1 REVERT JUMPDEST DUP2 CALLDATALOAD PUSH1 0x20 PUSH2 0xA46 PUSH2 0xA41 DUP4 PUSH2 0x92D JUMP JUMPDEST PUSH2 0x8FD JUMP JUMPDEST DUP3 DUP2 MSTORE PUSH1 0xA0 SWAP3 DUP4 MUL DUP6 ADD DUP3 ADD SWAP3 DUP3 DUP3 ADD SWAP2 SWAP1 DUP8 DUP6 GT ISZERO PUSH2 0xA65 JUMPI PUSH1 0x0 DUP1 REVERT JUMPDEST DUP4 DUP8 ADD JUMPDEST DUP6 DUP2 LT ISZERO PUSH2 0xAEC JUMPI DUP1 DUP10 SUB DUP3 DUP2 SLT ISZERO PUSH2 0xA82 JUMPI PUSH1 0x0 DUP1 DUP2 REVERT JUMPDEST PUSH2 0xA8A PUSH2 0x890 JUMP JUMPDEST PUSH2 0xA93 DUP4 PUSH2 0x83C JUMP JUMPDEST DUP2 MSTORE PUSH2 0xAA0 DUP8 DUP5 ADD PUSH2 0xA10 JUMP JUMPDEST DUP8 DUP3 ADD MSTORE PUSH1 0x40 DUP1 DUP5 ADD CALLDATALOAD DUP2 DUP4 ADD MSTORE PUSH1 0x60 DUP2 PUSH1 0x5F NOT DUP6 ADD SLT ISZERO PUSH2 0xAC2 JUMPI PUSH1 0x0 DUP1 DUP2 REVERT JUMPDEST PUSH2 0xACA PUSH2 0x8B8 JUMP JUMPDEST DUP6 DUP3 ADD CALLDATALOAD DUP2 MSTORE PUSH1 0x80 DUP7 ADD CALLDATALOAD DUP11 DUP3 ADD MSTORE SWAP1 DUP4 ADD MSTORE POP DUP6 MSTORE POP SWAP3 DUP5 ADD SWAP3 DUP2 ADD PUSH2 0xA69 JUMP JUMPDEST POP SWAP1 SWAP8 SWAP7 POP POP POP POP POP POP POP JUMP JUMPDEST PUSH1 0x0 PUSH1 0x20 DUP3 DUP5 SUB SLT ISZERO PUSH2 0xB0B JUMPI PUSH1 0x0 DUP1 REVERT JUMPDEST PUSH1 0x1 PUSH1 0x1 PUSH1 0x40 SHL SUB DUP1 DUP4 CALLDATALOAD GT ISZERO PUSH2 0xB21 JUMPI PUSH1 0x0 DUP1 REVERT JUMPDEST PUSH1 0x40 DUP4 CALLDATALOAD DUP5 ADD DUP6 SUB SLT ISZERO PUSH2 0xB34 JUMPI PUSH1 0x0 DUP1 REVERT JUMPDEST PUSH2 0xB3C PUSH2 0x8B8 JUMP JUMPDEST DUP2 DUP5 CALLDATALOAD DUP6 ADD CALLDATALOAD GT ISZERO PUSH2 0xB4D JUMPI PUSH1 0x0 DUP1 REVERT JUMPDEST DUP4 CALLDATALOAD DUP5 ADD DUP1 CALLDATALOAD ADD PUSH1 0x1F DUP2 ADD DUP7 SGT PUSH2 0xB63 JUMPI PUSH1 0x0 DUP1 REVERT JUMPDEST PUSH2 0xB70 PUSH2 0xA41 DUP3 CALLDATALOAD PUSH2 0x92D JUMP JUMPDEST DUP2 CALLDATALOAD DUP1 DUP3 MSTORE PUSH1 0x20 DUP1 DUP4 ADD SWAP3 SWAP2 PUSH1 0x5 SHL DUP5 ADD ADD DUP9 LT ISZERO PUSH2 0xB8E JUMPI PUSH1 0x0 DUP1 REVERT JUMPDEST PUSH1 0x20 DUP4 ADD JUMPDEST PUSH1 0x20 DUP5 CALLDATALOAD PUSH1 0x5 SHL DUP6 ADD ADD DUP2 LT ISZERO PUSH2 0xCC2 JUMPI DUP6 DUP2 CALLDATALOAD GT ISZERO PUSH2 0xBB2 JUMPI PUSH1 0x0 DUP1 REVERT JUMPDEST DUP1 CALLDATALOAD DUP5 ADD PUSH1 0x1F NOT PUSH1 0x40 DUP3 DUP13 SUB DUP3 ADD SLT ISZERO PUSH2 0xBCB JUMPI PUSH1 0x0 DUP1 REVERT JUMPDEST PUSH2 0xBD3 PUSH2 0x8B8 JUMP JUMPDEST DUP9 PUSH1 0x20 DUP5 ADD CALLDATALOAD GT ISZERO PUSH2 0xBE4 JUMPI PUSH1 0x0 DUP1 REVERT JUMPDEST PUSH1 0x20 DUP4 ADD CALLDATALOAD DUP4 ADD PUSH2 0x1E0 DUP4 DUP3 DUP16 SUB ADD SLT ISZERO PUSH2 0xBFE JUMPI PUSH1 0x0 DUP1 REVERT JUMPDEST PUSH2 0xC06 PUSH2 0x8DA JUMP JUMPDEST SWAP3 POP PUSH2 0xC14 PUSH1 0x20 DUP3 ADD PUSH2 0x83C JUMP JUMPDEST DUP4 MSTORE PUSH2 0xC22 PUSH1 0x40 DUP3 ADD PUSH2 0x950 JUMP JUMPDEST PUSH1 0x20 DUP5 ADD MSTORE PUSH2 0xC33 PUSH1 0x60 DUP3 ADD PUSH2 0x83C JUMP JUMPDEST PUSH1 0x40 DUP5 ADD MSTORE PUSH1 0x80 DUP2 ADD CALLDATALOAD PUSH1 0x60 DUP5 ADD MSTORE PUSH2 0xC4F DUP14 PUSH1 0xA0 DUP4 ADD PUSH2 0x978 JUMP JUMPDEST PUSH1 0x80 DUP5 ADD MSTORE PUSH2 0x180 DUP2 ADD CALLDATALOAD PUSH1 0xA0 DUP5 ADD MSTORE PUSH2 0x1A0 DUP2 ADD CALLDATALOAD PUSH1 0xC0 DUP5 ADD MSTORE PUSH2 0x1C0 DUP2 ADD CALLDATALOAD PUSH1 0xE0 DUP5 ADD MSTORE DUP10 PUSH2 0x1E0 DUP3 ADD CALLDATALOAD GT ISZERO PUSH2 0xC87 JUMPI PUSH1 0x0 DUP1 REVERT JUMPDEST PUSH2 0xC9B DUP14 PUSH1 0x20 PUSH2 0x1E0 DUP5 ADD CALLDATALOAD DUP5 ADD ADD PUSH2 0xA20 JUMP JUMPDEST PUSH2 0x100 DUP5 ADD MSTORE POP SWAP1 DUP2 MSTORE PUSH1 0x40 SWAP2 SWAP1 SWAP2 ADD CALLDATALOAD PUSH1 0x20 DUP1 DUP4 ADD SWAP2 SWAP1 SWAP2 MSTORE SWAP1 DUP5 MSTORE SWAP3 DUP4 ADD SWAP3 ADD PUSH2 0xB93 JUMP JUMPDEST POP DUP4 MSTORE POP PUSH2 0xCD7 SWAP1 POP DUP5 CALLDATALOAD DUP6 ADD PUSH1 0x20 ADD PUSH2 0xA10 JUMP JUMPDEST PUSH1 0x20 DUP3 ADD MSTORE SWAP5 SWAP4 POP POP POP POP JUMP JUMPDEST PUSH1 0x0 DUP2 MLOAD DUP1 DUP5 MSTORE PUSH1 0x20 DUP1 DUP6 ADD SWAP5 POP DUP1 DUP5 ADD PUSH1 0x0 JUMPDEST DUP4 DUP2 LT ISZERO PUSH2 0xD4C JUMPI DUP2 MLOAD DUP1 MLOAD PUSH1 0x1 PUSH1 0x1 PUSH1 0xA0 SHL SUB AND DUP9 MSTORE DUP4 DUP2 ADD MLOAD ISZERO ISZERO DUP5 DUP10 ADD MSTORE PUSH1 0x40 DUP1 DUP3 ADD MLOAD SWAP1 DUP10 ADD MSTORE PUSH1 0x60 SWAP1 DUP2 ADD MLOAD DUP1 MLOAD SWAP2 DUP10 ADD SWAP2 SWAP1 SWAP2 MSTORE DUP4 ADD MLOAD PUSH1 0x80 DUP9 ADD MSTORE PUSH1 0xA0 SWAP1 SWAP7 ADD SWAP6 SWAP1 DUP3 ADD SWAP1 PUSH1 0x1 ADD PUSH2 0xCF8 JUMP JUMPDEST POP SWAP5 SWAP6 SWAP5 POP POP POP POP POP JUMP JUMPDEST PUSH1 0x0 PUSH1 0x20 DUP1 DUP4 MSTORE PUSH1 0x60 DUP1 DUP5 ADD DUP6 MLOAD PUSH1 0x40 DUP1 DUP6 DUP9 ADD MSTORE DUP3 DUP3 MLOAD DUP1 DUP6 MSTORE PUSH1 0x80 SWAP5 POP DUP5 DUP10 ADD SWAP2 POP DUP5 DUP2 PUSH1 0x5 SHL DUP11 ADD ADD DUP8 DUP6 ADD SWAP5 POP PUSH1 0x0 JUMPDEST DUP3 DUP2 LT ISZERO PUSH2 0xE9A JUMPI DUP11 DUP3 SUB PUSH1 0x7F NOT ADD DUP5 MSTORE DUP6 MLOAD DUP1 MLOAD DUP7 DUP5 MSTORE DUP1 MLOAD PUSH1 0x1 PUSH1 0x1 PUSH1 0xA0 SHL SUB AND DUP8 DUP6 ADD MSTORE DUP1 DUP12 ADD MLOAD PUSH1 0xFF DUP2 AND DUP6 DUP13 ADD MSTORE POP DUP1 DUP8 ADD MLOAD PUSH1 0x1 PUSH1 0x1 PUSH1 0xA0 SHL SUB DUP2 AND DUP6 DUP12 ADD MSTORE POP DUP1 DUP11 ADD MLOAD PUSH1 0xA0 DUP6 DUP2 ADD SWAP2 SWAP1 SWAP2 MSTORE DUP10 DUP3 ADD MLOAD DUP1 MLOAD PUSH1 0xC0 DUP1 DUP9 ADD SWAP2 SWAP1 SWAP2 MSTORE PUSH1 0x20 DUP3 ADD MLOAD PUSH1 0xE0 DUP9 ADD MSTORE PUSH1 0x40 DUP3 ADD MLOAD PUSH2 0x100 DUP9 ADD MSTORE PUSH1 0x60 DUP3 ADD MLOAD PUSH2 0x120 DUP9 ADD MSTORE PUSH1 0x80 DUP3 ADD MLOAD PUSH1 0x1 PUSH1 0x1 PUSH1 0x40 SHL SUB SWAP1 DUP2 AND PUSH2 0x140 DUP10 ADD MSTORE DUP3 DUP5 ADD MLOAD DUP2 AND PUSH2 0x160 DUP10 ADD MSTORE DUP2 DUP4 ADD MLOAD AND PUSH2 0x180 DUP9 ADD MSTORE SWAP1 SWAP2 DUP4 ADD MLOAD PUSH2 0x1A0 DUP8 ADD MSTORE DUP3 ADD MLOAD PUSH2 0x1C0 DUP7 ADD MSTORE POP PUSH1 0xE0 DUP2 ADD MLOAD PUSH2 0x1E0 DUP1 DUP7 ADD SWAP2 SWAP1 SWAP2 MSTORE PUSH2 0x100 SWAP1 SWAP2 ADD MLOAD PUSH2 0x200 DUP6 ADD SWAP2 SWAP1 SWAP2 MSTORE PUSH2 0xE7D PUSH2 0x220 DUP6 ADD DUP3 PUSH2 0xCE4 JUMP JUMPDEST SWAP2 DUP12 ADD MLOAD SWAP4 DUP12 ADD SWAP4 SWAP1 SWAP4 MSTORE SWAP6 DUP10 ADD SWAP6 SWAP4 DUP10 ADD SWAP4 SWAP2 POP PUSH1 0x1 ADD PUSH2 0xD8B JUMP JUMPDEST POP SWAP7 DUP11 ADD MLOAD DUP1 ISZERO ISZERO DUP5 DUP12 ADD MSTORE SWAP7 SWAP11 SWAP10 POP POP POP POP POP POP POP POP POP POP JUMP JUMPDEST PUSH1 0x0 DUP1 PUSH1 0x0 PUSH1 0x60 DUP5 DUP7 SUB SLT ISZERO PUSH2 0xECA JUMPI PUSH1 0x0 DUP1 REVERT JUMPDEST PUSH2 0xED3 DUP5 PUSH2 0x83C JUMP JUMPDEST SWAP3 POP PUSH2 0xEE1 PUSH1 0x20 DUP6 ADD PUSH2 0x961 JUMP JUMPDEST SWAP2 POP PUSH2 0xEEF PUSH1 0x40 DUP6 ADD PUSH2 0x961 JUMP JUMPDEST SWAP1 POP SWAP3 POP SWAP3 POP SWAP3 JUMP JUMPDEST PUSH1 0x0 PUSH1 0x20 DUP1 DUP4 MSTORE DUP4 MLOAD DUP1 DUP3 DUP6 ADD MSTORE PUSH1 0x0 JUMPDEST DUP2 DUP2 LT ISZERO PUSH2 0xF25 JUMPI DUP6 DUP2 ADD DUP4 ADD MLOAD DUP6 DUP3 ADD PUSH1 0x40 ADD MSTORE DUP3 ADD PUSH2 0xF09 JUMP JUMPDEST POP PUSH1 0x0 PUSH1 0x40 DUP3 DUP7 ADD ADD MSTORE PUSH1 0x40 PUSH1 0x1F NOT PUSH1 0x1F DUP4 ADD AND DUP6 ADD ADD SWAP3 POP POP POP SWAP3 SWAP2 POP POP JUMP JUMPDEST PUSH4 0x4E487B71 PUSH1 0xE0 SHL PUSH1 0x0 MSTORE PUSH1 0x32 PUSH1 0x4 MSTORE PUSH1 0x24 PUSH1 0x0 REVERT JUMPDEST PUSH4 0x4E487B71 PUSH1 0xE0 SHL PUSH1 0x0 MSTORE PUSH1 0x11 PUSH1 0x4 MSTORE PUSH1 0x24 PUSH1 0x0 REVERT JUMPDEST DUP2 DUP2 SUB DUP2 DUP2 GT ISZERO PUSH2 0x75C JUMPI PUSH2 0x75C PUSH2 0xF5C JUMP JUMPDEST PUSH1 0x0 PUSH1 0x1 DUP3 ADD PUSH2 0xF97 JUMPI PUSH2 0xF97 PUSH2 0xF5C JUMP JUMPDEST POP PUSH1 0x1 ADD SWAP1 JUMP JUMPDEST DUP1 DUP3 MUL DUP2 ISZERO DUP3 DUP3 DIV DUP5 EQ OR PUSH2 0x75C JUMPI PUSH2 0x75C PUSH2 0xF5C JUMP JUMPDEST PUSH1 0x0 DUP3 PUSH2 0xFD2 JUMPI PUSH4 0x4E487B71 PUSH1 0xE0 SHL PUSH1 0x0 MSTORE PUSH1 0x12 PUSH1 0x4 MSTORE PUSH1 0x24 PUSH1 0x0 REVERT JUMPDEST POP DIV SWAP1 JUMP INVALID LOG2 PUSH5 0x6970667358 0x22 SLT KECCAK256 0xCA 0x2A LOG3 0x2C 0x2D 0x5D 0xD9 PUSH29 0x43A54F0279DCFD13513B1BEAD42FCA286DD787DB27E71EB864736F6C63 NUMBER STOP ADDMOD GT STOP CALLER ","sha1":"566372c28fb893ec873d6b10ec64daadff306ad4","source":"// SPDX-License-Identifier: LicenseRef-Gyro-1.0\n// for information on licensing please see the README in the GitHub repository <https://github.com/gyrostable/core-protocol>.\n\npragma solidity ^0.8.4;\n\nimport \"../../interfaces/IFeeHandler.sol\";\n\nimport \"../../libraries/Errors.sol\";\nimport \"../../libraries/FixedPoint.sol\";\n\nimport \"../auth/Governable.sol\";\n\ncontract StaticPercentageFeeHandler is IFeeHandler, Governable {\n    using FixedPoint for uint256;\n\n    /// @notice Mint and redeem fees cannot be above 20%\n    uint64 public constant MAX_FEE = 0.2e18;\n\n    /// @notice holds the mint and redeem fees for a single vault\n    struct Fees {\n        bool exists;\n        uint64 mint;\n        uint64 redeem;\n    }\n\n    /// @notice mapping from vault to fees\n    mapping(address => Fees) public vaultFees;\n\n    constructor(address _governor) Governable(_governor) {}\n\n    /// @notice set the fees for a vault\n    function setVaultFees(\n        address vault,\n        uint64 mintFee,\n        uint64 redeemFee\n    ) external governanceOnly {\n        require(vault != address(0), Errors.INVALID_ARGUMENT);\n        require(mintFee <= MAX_FEE && redeemFee <= MAX_FEE, Errors.INVALID_ARGUMENT);\n        vaultFees[vault] = Fees({exists: true, mint: mintFee, redeem: redeemFee});\n    }\n\n    /// @inheritdoc IFeeHandler\n    function isVaultSupported(address vaultAddress) external view override returns (bool) {\n        return vaultFees[vaultAddress].exists;\n    }\n\n    /// @inheritdoc IFeeHandler\n    function applyFees(DataTypes.Order memory order)\n        external\n        view\n        override\n        returns (DataTypes.Order memory)\n    {\n        DataTypes.VaultWithAmount[] memory vaultsWithAmount = new DataTypes.VaultWithAmount[](\n            order.vaultsWithAmount.length\n        );\n        for (uint256 i = 0; i < order.vaultsWithAmount.length; i++) {\n            address vaultAddress = order.vaultsWithAmount[i].vaultInfo.vault;\n            Fees memory fees = vaultFees[vaultAddress];\n            require(fees.exists, Errors.INVALID_ARGUMENT);\n            uint256 feeMultiplier = FixedPoint.ONE - (order.mint ? fees.mint : fees.redeem);\n            uint256 amountAfterFees = order.vaultsWithAmount[i].amount.mulDown(feeMultiplier);\n            vaultsWithAmount[i] = DataTypes.VaultWithAmount({\n                vaultInfo: order.vaultsWithAmount[i].vaultInfo,\n                amount: amountAfterFees\n            });\n        }\n\n        return DataTypes.Order(vaultsWithAmount, order.mint);\n    }\n}\n","sourcePath":"contracts/fee_handlers/StaticPercentageFeeHandler.sol","type":"contract","deployment":{"address":"0x757cFCf4Fec346E4880Ec686d11BEA60c8f9a051","chainid":"1","blockHeight":18387926}}