{"abi":[{"inputs":[{"internalType":"address","name":"_config","type":"address"}],"stateMutability":"nonpayable","type":"constructor","name":"constructor"},{"anonymous":false,"inputs":[{"indexed":true,"internalType":"address","name":"owner","type":"address"},{"indexed":true,"internalType":"address","name":"spender","type":"address"},{"indexed":false,"internalType":"uint256","name":"value","type":"uint256"}],"name":"Approval","type":"event"},{"anonymous":false,"inputs":[{"indexed":false,"internalType":"address","name":"newGovernor","type":"address"}],"name":"GovernorChangeRequested","type":"event"},{"anonymous":false,"inputs":[{"indexed":false,"internalType":"address","name":"oldGovernor","type":"address"},{"indexed":false,"internalType":"address","name":"newGovernor","type":"address"}],"name":"GovernorChanged","type":"event"},{"anonymous":false,"inputs":[{"indexed":false,"internalType":"uint8","name":"version","type":"uint8"}],"name":"Initialized","type":"event"},{"anonymous":false,"inputs":[{"indexed":true,"internalType":"address","name":"from","type":"address"},{"indexed":true,"internalType":"address","name":"to","type":"address"},{"indexed":false,"internalType":"uint256","name":"value","type":"uint256"}],"name":"Transfer","type":"event"},{"inputs":[],"name":"DOMAIN_SEPARATOR","outputs":[{"internalType":"bytes32","name":"","type":"bytes32"}],"stateMutability":"view","type":"function"},{"inputs":[],"name":"acceptGovernance","outputs":[],"stateMutability":"nonpayable","type":"function"},{"inputs":[{"internalType":"address","name":"owner","type":"address"},{"internalType":"address","name":"spender","type":"address"}],"name":"allowance","outputs":[{"internalType":"uint256","name":"","type":"uint256"}],"stateMutability":"view","type":"function"},{"inputs":[{"internalType":"address","name":"spender","type":"address"},{"internalType":"uint256","name":"amount","type":"uint256"}],"name":"approve","outputs":[{"internalType":"bool","name":"","type":"bool"}],"stateMutability":"nonpayable","type":"function"},{"inputs":[{"internalType":"address","name":"account","type":"address"}],"name":"balanceOf","outputs":[{"internalType":"uint256","name":"","type":"uint256"}],"stateMutability":"view","type":"function"},{"inputs":[{"internalType":"address","name":"newGovernor","type":"address"}],"name":"changeGovernor","outputs":[],"stateMutability":"nonpayable","type":"function"},{"inputs":[],"name":"decimals","outputs":[{"internalType":"uint8","name":"","type":"uint8"}],"stateMutability":"view","type":"function"},{"inputs":[{"internalType":"address","name":"spender","type":"address"},{"internalType":"uint256","name":"subtractedValue","type":"uint256"}],"name":"decreaseAllowance","outputs":[{"internalType":"bool","name":"","type":"bool"}],"stateMutability":"nonpayable","type":"function"},{"inputs":[],"name":"deployedAt","outputs":[{"internalType":"uint256","name":"","type":"uint256"}],"stateMutability":"view","type":"function"},{"inputs":[{"internalType":"uint256","name":"underlyingAmount","type":"uint256"},{"internalType":"uint256","name":"minVaultTokensOut","type":"uint256"}],"name":"deposit","outputs":[{"internalType":"uint256","name":"vaultTokensMinted","type":"uint256"}],"stateMutability":"nonpayable","type":"function"},{"inputs":[{"internalType":"address","name":"beneficiary","type":"address"},{"internalType":"uint256","name":"underlyingAmount","type":"uint256"},{"internalType":"uint256","name":"minVaultTokensOut","type":"uint256"}],"name":"depositFor","outputs":[{"internalType":"uint256","name":"vaultTokensMinted","type":"uint256"}],"stateMutability":"nonpayable","type":"function"},{"inputs":[{"internalType":"uint256","name":"underlyingAmount","type":"uint256"},{"internalType":"uint256","name":"minVaultTokensOut","type":"uint256"}],"name":"dryDeposit","outputs":[{"internalType":"uint256","name":"vaultTokensMinted","type":"uint256"},{"internalType":"string","name":"err","type":"string"}],"stateMutability":"view","type":"function"},{"inputs":[{"internalType":"uint256","name":"vaultTokenAmount","type":"uint256"},{"internalType":"uint256","name":"minUnderlyingOut","type":"uint256"}],"name":"dryWithdraw","outputs":[{"internalType":"uint256","name":"underlyingAmountWithdrawn","type":"uint256"},{"internalType":"string","name":"err","type":"string"}],"stateMutability":"view","type":"function"},{"inputs":[],"name":"exchangeRate","outputs":[{"internalType":"uint256","name":"","type":"uint256"}],"stateMutability":"view","type":"function"},{"inputs":[],"name":"getRate","outputs":[{"internalType":"uint256","name":"","type":"uint256"}],"stateMutability":"view","type":"function"},{"inputs":[],"name":"getTokens","outputs":[{"internalType":"contract IERC20[]","name":"","type":"address[]"}],"stateMutability":"view","type":"function"},{"inputs":[],"name":"governor","outputs":[{"internalType":"address","name":"","type":"address"}],"stateMutability":"view","type":"function"},{"inputs":[],"name":"gyroConfig","outputs":[{"internalType":"contract IGyroConfig","name":"","type":"address"}],"stateMutability":"view","type":"function"},{"inputs":[{"internalType":"address","name":"spender","type":"address"},{"internalType":"uint256","name":"addedValue","type":"uint256"}],"name":"increaseAllowance","outputs":[{"internalType":"bool","name":"","type":"bool"}],"stateMutability":"nonpayable","type":"function"},{"inputs":[{"internalType":"address","name":"_underlying","type":"address"},{"internalType":"address","name":"governor","type":"address"},{"internalType":"string","name":"name","type":"string"},{"internalType":"string","name":"symbol","type":"string"}],"name":"initialize","outputs":[],"stateMutability":"nonpayable","type":"function"},{"inputs":[{"internalType":"address","name":"_governor","type":"address"}],"name":"initialize","outputs":[],"stateMutability":"nonpayable","type":"function"},{"inputs":[],"name":"name","outputs":[{"internalType":"string","name":"","type":"string"}],"stateMutability":"view","type":"function"},{"inputs":[{"internalType":"address","name":"owner","type":"address"}],"name":"nonces","outputs":[{"internalType":"uint256","name":"","type":"uint256"}],"stateMutability":"view","type":"function"},{"inputs":[],"name":"pendingGovernor","outputs":[{"internalType":"address","name":"","type":"address"}],"stateMutability":"view","type":"function"},{"inputs":[{"internalType":"address","name":"owner","type":"address"},{"internalType":"address","name":"spender","type":"address"},{"internalType":"uint256","name":"value","type":"uint256"},{"internalType":"uint256","name":"deadline","type":"uint256"},{"internalType":"uint8","name":"v","type":"uint8"},{"internalType":"bytes32","name":"r","type":"bytes32"},{"internalType":"bytes32","name":"s","type":"bytes32"}],"name":"permit","outputs":[],"stateMutability":"nonpayable","type":"function"},{"inputs":[{"internalType":"address","name":"strategyAddress","type":"address"}],"name":"setStrategy","outputs":[],"stateMutability":"nonpayable","type":"function"},{"inputs":[],"name":"strategy","outputs":[{"internalType":"address","name":"","type":"address"}],"stateMutability":"view","type":"function"},{"inputs":[],"name":"symbol","outputs":[{"internalType":"string","name":"","type":"string"}],"stateMutability":"view","type":"function"},{"inputs":[],"name":"totalSupply","outputs":[{"internalType":"uint256","name":"","type":"uint256"}],"stateMutability":"view","type":"function"},{"inputs":[],"name":"totalUnderlying","outputs":[{"internalType":"uint256","name":"","type":"uint256"}],"stateMutability":"view","type":"function"},{"inputs":[{"internalType":"address","name":"to","type":"address"},{"internalType":"uint256","name":"amount","type":"uint256"}],"name":"transfer","outputs":[{"internalType":"bool","name":"","type":"bool"}],"stateMutability":"nonpayable","type":"function"},{"inputs":[{"internalType":"address","name":"from","type":"address"},{"internalType":"address","name":"to","type":"address"},{"internalType":"uint256","name":"amount","type":"uint256"}],"name":"transferFrom","outputs":[{"internalType":"bool","name":"","type":"bool"}],"stateMutability":"nonpayable","type":"function"},{"inputs":[],"name":"underlying","outputs":[{"internalType":"address","name":"","type":"address"}],"stateMutability":"view","type":"function"},{"inputs":[],"name":"vaultType","outputs":[{"internalType":"enum Vaults.Type","name":"","type":"uint8"}],"stateMutability":"view","type":"function"},{"inputs":[{"internalType":"uint256","name":"vaultTokenAmount","type":"uint256"},{"internalType":"uint256","name":"minUnderlyingOut","type":"uint256"}],"name":"withdraw","outputs":[{"internalType":"uint256","name":"underlyingAmountWithdrawn","type":"uint256"}],"stateMutability":"nonpayable","type":"function"}],"bytecode":"60a06040523480156200001157600080fd5b506040516200286c3803806200286c833981016040819052620000349162000121565b806200003f62000052565b6001600160a01b03166080525062000153565b600154600160a81b900460ff1615620000c15760405162461bcd60e51b815260206004820152602760248201527f496e697469616c697a61626c653a20636f6e747261637420697320696e697469604482015266616c697a696e6760c81b606482015260840160405180910390fd5b60015460ff600160a01b909104811610156200011f576001805460ff60a01b191660ff60a01b17905560405160ff81527f7f26b83ff96e1f2b6a682f133852f6798a09c465da95921460cefb38474024989060200160405180910390a15b565b6000602082840312156200013457600080fd5b81516001600160a01b03811681146200014c57600080fd5b9392505050565b6080516126f6620001766000396000818161032c0152610b8201526126f66000f3fe608060405234801561001057600080fd5b50600436106102115760003560e01c8063679aefce11610125578063c4d66de8116100ad578063dd62ed3e1161007c578063dd62ed3e14610479578063e2bbb1581461048c578063e3056a341461049f578063e4c0aaf4146104b2578063eae4c19f146104c557600080fd5b8063c4d66de814610438578063c70920bc1461044b578063cc04feff14610453578063d505accf1461046657600080fd5b806395d89b41116100f457806395d89b41146103e1578063a457c2d7146103e9578063a8c62e76146103fc578063a9059cbb14610410578063aa6ca8081461042357600080fd5b8063679aefce1461030c5780636f307dc31461039157806370a08231146103a55780637ecebe00146103ce57600080fd5b806333a100ca116101a8578063441a3e7011610177578063441a3e701461031457806344bbdb55146103275780634ac032be1461034e5780634cf5fbf51461035d578063550d2b621461037057600080fd5b806333a100ca146102de5780633644e515146102f157806339509351146102f95780633ba0b9a91461030c57600080fd5b80632016a0d2116101e45780632016a0d214610294578063238efcbc146102a957806323b872dd146102b1578063313ce567146102c457600080fd5b806306fdde0314610216578063095ea7b3146102345780630c340a241461025757806318160ddd14610282575b600080fd5b61021e6104cf565b60405161022b9190611fc2565b60405180910390f35b610247610242366004611fea565b610561565b604051901515815260200161022b565b60005461026a906001600160a01b031681565b6040516001600160a01b03909116815260200161022b565b6036545b60405190815260200161022b565b6102a76102a23660046120b9565b61057b565b005b6102a761066d565b6102476102bf366004612142565b61071d565b6102cc610741565b60405160ff909116815260200161022b565b6102a76102ec366004612183565b6107b5565b61028661081e565b610247610307366004611fea565b610828565b61028661084a565b6102866103223660046121a0565b610856565b61026a7f000000000000000000000000000000000000000000000000000000000000000081565b600060405161022b91906121d8565b61028661036b366004612200565b610964565b61038361037e3660046121a0565b610a54565b60405161022b929190612235565b6101315461026a906001600160a01b031681565b6102866103b3366004612183565b6001600160a01b031660009081526034602052604090205490565b6102866103dc366004612183565b610a9f565b61021e610abd565b6102476103f7366004611fea565b610acc565b6101335461026a906001600160a01b031681565b61024761041e366004611fea565b610b47565b61042b610b55565b60405161022b919061224e565b6102a7610446366004612183565b610cb6565b610286610d99565b6103836104613660046121a0565b610e07565b6102a76104743660046122aa565b610e21565b61028661048736600461231b565b610f85565b61028661049a3660046121a0565b610fb0565b60015461026a906001600160a01b031681565b6102a76104c0366004612183565b610fc4565b6102866101325481565b6060603780546104de90612354565b80601f016020809104026020016040519081016040528092919081815260200182805461050a90612354565b80156105575780601f1061052c57610100808354040283529160200191610557565b820191906000526020600020905b81548152906001019060200180831161053a57829003601f168201915b5050505050905090565b60003361056f818585611099565b60019150505b92915050565b600154600160a81b900460ff16158080156105a1575060018054600160a01b900460ff16105b806105c15750303b1580156105c1575060018054600160a01b900460ff16145b6105e65760405162461bcd60e51b81526004016105dd90612388565b60405180910390fd5b6001805460ff60a01b1916600160a01b1790558015610613576001805460ff60a81b1916600160a81b1790555b61061f858585856111be565b8015610666576001805460ff60a81b191681556040519081527f7f26b83ff96e1f2b6a682f133852f6798a09c465da95921460cefb38474024989060200160405180910390a15b5050505050565b600154604080518082019091526002815261033360f41b6020820152906001600160a01b031633146106b25760405162461bcd60e51b81526004016105dd9190611fc2565b5060008054600180546001600160a01b03198084166001600160a01b03808416919091179095551690556040805192909116808352336020840152917fde4b3f61490b74c0ed6237523974fe299126bbbf8a8a7482fd220104c59b0c8491015b60405180910390a150565b60003361072b858285611242565b6107368585856112b6565b506001949350505050565b610131546040805163313ce56760e01b815290516000926001600160a01b03169163313ce5679160048083019260209291908290030181865afa15801561078c573d6000803e3d6000fd5b505050506040513d601f19601f820116820180604052508101906107b091906123d6565b905090565b600054604080518082019091526002815261033360f41b6020820152906001600160a01b031633146107fa5760405162461bcd60e51b81526004016105dd9190611fc2565b5061013380546001600160a01b0319166001600160a01b0392909216919091179055565b60006107b0611461565b60003361056f81858561083b8383610f85565b6108459190612409565b611099565b60006107b060006114dc565b600080831160405180604001604052806002815260200161333160f01b815250906108945760405162461bcd60e51b81526004016105dd9190611fc2565b5033600090815260346020526040812054905083811015604051806040016040528060028152602001610ccd60f21b815250906108e45760405162461bcd60e51b81526004016105dd9190611fc2565b5060006108ef61084a565b90506108fb8582611535565b925083831015604051806040016040528060018152602001601960f91b815250906109395760405162461bcd60e51b81526004016105dd9190611fc2565b506109443386611556565b6101315461095c906001600160a01b03163385611687565b505092915050565b60008061097160016114dc565b6101315490915061098d906001600160a01b03163330876116ea565b6109978482611722565b91506109a260365490565b6000036109cf5760006109b3611795565b90506109c161dead826117b6565b6109cb818461241c565b9250505b60408051808201909152600381526231303360e81b602082015282610a075760405162461bcd60e51b81526004016105dd9190611fc2565b506040805180820190915260018152601960f91b602082015283831015610a415760405162461bcd60e51b81526004016105dd9190611fc2565b50610a4c85836117b6565b509392505050565b600060606000610a6460016114dc565b9050610a708582611722565b925083831015610a9757604051806040016040528060018152602001601960f91b81525091505b509250929050565b6001600160a01b0381166000908152609a6020526040812054610575565b6060603880546104de90612354565b60003381610ada8286610f85565b905083811015610b3a5760405162461bcd60e51b815260206004820152602560248201527f45524332303a2064656372656173656420616c6c6f77616e63652062656c6f77604482015264207a65726f60d81b60648201526084016105dd565b6107368286868403611099565b60003361056f8185856112b6565b60408051600180825281830190925260609160009190602080830190803683370190505090506000610baf7f00000000000000000000000000000000000000000000000000000000000000006001600160a01b0316611877565b61013154604051637583902f60e01b81526001600160a01b039182166004820152911690637583902f906024016040805180830381865afa158015610bf8573d6000803e3d6000fd5b505050506040513d601f19601f82011682018060405250810190610c1c919061242f565b80519091506001600160a01b031615610c6c57806000015182600081518110610c4757610c4761248e565b60200260200101906001600160a01b031690816001600160a01b031681525050610cb0565b6101315482516001600160a01b03909116908390600090610c8f57610c8f61248e565b60200260200101906001600160a01b031690816001600160a01b0316815250505b50919050565b600154600160a81b900460ff1615808015610cdc575060018054600160a01b900460ff16105b80610cfc5750303b158015610cfc575060018054600160a01b900460ff16145b610d185760405162461bcd60e51b81526004016105dd90612388565b6001805460ff60a01b1916600160a01b1790558015610d45576001805460ff60a81b1916600160a81b1790555b610d4e826118f9565b8015610d95576001805460ff60a81b191681556040519081527f7f26b83ff96e1f2b6a682f133852f6798a09c465da95921460cefb38474024989060200160405180910390a15b5050565b610131546040516370a0823160e01b81523060048201526000916001600160a01b0316906370a0823190602401602060405180830381865afa158015610de3573d6000803e3d6000fd5b505050506040513d601f19601f820116820180604052508101906107b091906124a4565b600060606000610e1561084a565b9050610a708582611535565b83421115610e715760405162461bcd60e51b815260206004820152601d60248201527f45524332305065726d69743a206578706972656420646561646c696e6500000060448201526064016105dd565b60007f6e71edae12b1b97f4d1f60370fef10105fa2faae0126114a169c64845d6126c9888888610ea08c61194d565b6040805160208101969096526001600160a01b0394851690860152929091166060840152608083015260a082015260c0810186905260e0016040516020818303038152906040528051906020012090506000610efb82611973565b90506000610f0b828787876119c1565b9050896001600160a01b0316816001600160a01b031614610f6e5760405162461bcd60e51b815260206004820152601e60248201527f45524332305065726d69743a20696e76616c6964207369676e6174757265000060448201526064016105dd565b610f798a8a8a611099565b50505050505050505050565b6001600160a01b03918216600090815260356020908152604080832093909416825291909152205490565b6000610fbd338484610964565b9392505050565b600054604080518082019091526002815261033360f41b6020820152906001600160a01b031633146110095760405162461bcd60e51b81526004016105dd9190611fc2565b50604080518082019091526002815261333160f01b60208201526001600160a01b03821661104a5760405162461bcd60e51b81526004016105dd9190611fc2565b50600180546001600160a01b0319166001600160a01b0383169081179091556040519081527f67235ba2e63c748a35b95c4f92a3bbc2a1389938170a5ce6c9add5d0b03a314a90602001610712565b6001600160a01b0383166110fb5760405162461bcd60e51b8152602060048201526024808201527f45524332303a20617070726f76652066726f6d20746865207a65726f206164646044820152637265737360e01b60648201526084016105dd565b6001600160a01b03821661115c5760405162461bcd60e51b815260206004820152602260248201527f45524332303a20617070726f766520746f20746865207a65726f206164647265604482015261737360f01b60648201526084016105dd565b6001600160a01b0383811660008181526035602090815260408083209487168084529482529182902085905590518481527f8c5be1e5ebec7d5bd14f71427d1e84f3dd0314c0f7b2291e5b200ac8c7c3b92591015b60405180910390a3505050565b604080518082019091526002815261333160f01b60208201526001600160a01b0385166111fe5760405162461bcd60e51b81526004016105dd9190611fc2565b5061013180546001600160a01b0319166001600160a01b0386161790554361013255611229836118f9565b61123382826119e9565b61123c82611a1c565b50505050565b600061124e8484610f85565b9050600019811461123c57818110156112a95760405162461bcd60e51b815260206004820152601d60248201527f45524332303a20696e73756666696369656e7420616c6c6f77616e636500000060448201526064016105dd565b61123c8484848403611099565b6001600160a01b03831661131a5760405162461bcd60e51b815260206004820152602560248201527f45524332303a207472616e736665722066726f6d20746865207a65726f206164604482015264647265737360d81b60648201526084016105dd565b6001600160a01b03821661137c5760405162461bcd60e51b815260206004820152602360248201527f45524332303a207472616e7366657220746f20746865207a65726f206164647260448201526265737360e81b60648201526084016105dd565b6001600160a01b038316600090815260346020526040902054818110156113f45760405162461bcd60e51b815260206004820152602660248201527f45524332303a207472616e7366657220616d6f756e7420657863656564732062604482015265616c616e636560d01b60648201526084016105dd565b6001600160a01b0380851660008181526034602052604080822086860390559286168082529083902080548601905591517fddf252ad1be2c89b69c2b068fc378daa952ba7f163c4a11628f55a4df523b3ef906114549086815260200190565b60405180910390a361123c565b60006107b07f8b73c3c69bb8fe3d512ecc4cf759cc79239f7b179b0ffacaa9a75d522b39400f61149060665490565b6067546040805160208101859052908101839052606081018290524660808201523060a082015260009060c0016040516020818303038152906040528051906020012090509392505050565b6000806114e7610d99565b905060006114f460365490565b90508060000361150f5750670de0b6b3a76400009392505050565b836115235761151e8282611722565b61152d565b61152d8282611a6b565b949350505050565b60008061154283856124bd565b905061152d670de0b6b3a7640000826124ea565b6001600160a01b0382166115b65760405162461bcd60e51b815260206004820152602160248201527f45524332303a206275726e2066726f6d20746865207a65726f206164647265736044820152607360f81b60648201526084016105dd565b6001600160a01b0382166000908152603460205260409020548181101561162a5760405162461bcd60e51b815260206004820152602260248201527f45524332303a206275726e20616d6f756e7420657863656564732062616c616e604482015261636560f01b60648201526084016105dd565b6001600160a01b03831660008181526034602090815260408083208686039055603680548790039055518581529192917fddf252ad1be2c89b69c2b068fc378daa952ba7f163c4a11628f55a4df523b3ef91016111b1565b505050565b6040516001600160a01b03831660248201526044810182905261168290849063a9059cbb60e01b906064015b60408051601f198184030181529190526020810180516001600160e01b03166001600160e01b031990931692909217909152611aea565b6040516001600160a01b038085166024830152831660448201526064810182905261123c9085906323b872dd60e01b906084016116b3565b604080518082019091526002815261323560f01b60208201526000908261175c5760405162461bcd60e51b81526004016105dd9190611fc2565b508260000361176d57506000610575565b6000611781670de0b6b3a7640000856124bd565b905061178d83826124ea565b915050610575565b600060086117a1610741565b60ff16116117af5750600a90565b506103e890565b6001600160a01b03821661180c5760405162461bcd60e51b815260206004820152601f60248201527f45524332303a206d696e7420746f20746865207a65726f20616464726573730060448201526064016105dd565b806036600082825461181e9190612409565b90915550506001600160a01b0382166000818152603460209081526040808320805486019055518481527fddf252ad1be2c89b69c2b068fc378daa952ba7f163c4a11628f55a4df523b3ef910160405180910390a35050565b6040516321f8a72160e01b815273524154455f4d414e414745525f4144445245535360601b60048201526000906001600160a01b038316906321f8a72190602401602060405180830381865afa1580156118d5573d6000803e3d6000fd5b505050506040513d601f19601f82011682018060405250810190610575919061250c565b600080546001600160a01b0319166001600160a01b03831690811782556040805192835260208301919091527fde4b3f61490b74c0ed6237523974fe299126bbbf8a8a7482fd220104c59b0c849101610712565b6001600160a01b0381166000908152609a60205260409020805460018101825590610cb0565b6000610575611980611461565b8360405161190160f01b6020820152602281018390526042810182905260009060620160405160208183030381529060405280519060200120905092915050565b60008060006119d287878787611bbc565b915091506119df81611c80565b5095945050505050565b600154600160a81b900460ff16611a125760405162461bcd60e51b81526004016105dd90612529565b610d958282611dca565b600154600160a81b900460ff16611a455760405162461bcd60e51b81526004016105dd90612529565b611a6881604051806040016040528060018152602001603160f81b815250611e0c565b50565b604080518082019091526002815261323560f01b602082015260009082611aa55760405162461bcd60e51b81526004016105dd9190611fc2565b5082600003611ab657506000610575565b6000611aca670de0b6b3a7640000856124bd565b9050826001820381611ade57611ade6124d4565b04600101915050610575565b6000611b3f826040518060400160405280602081526020017f5361666545524332303a206c6f772d6c6576656c2063616c6c206661696c6564815250856001600160a01b0316611e4f9092919063ffffffff16565b8051909150156116825780806020019051810190611b5d9190612574565b6116825760405162461bcd60e51b815260206004820152602a60248201527f5361666545524332303a204552433230206f7065726174696f6e20646964206e6044820152691bdd081cdd58d8d9595960b21b60648201526084016105dd565b6000807f7fffffffffffffffffffffffffffffff5d576e7357a4501ddfe92f46681b20a0831115611bf35750600090506003611c77565b6040805160008082526020820180845289905260ff881692820192909252606081018690526080810185905260019060a0016020604051602081039080840390855afa158015611c47573d6000803e3d6000fd5b5050604051601f1901519150506001600160a01b038116611c7057600060019250925050611c77565b9150600090505b94509492505050565b6000816004811115611c9457611c946121c2565b03611c9c5750565b6001816004811115611cb057611cb06121c2565b03611cfd5760405162461bcd60e51b815260206004820152601860248201527f45434453413a20696e76616c6964207369676e6174757265000000000000000060448201526064016105dd565b6002816004811115611d1157611d116121c2565b03611d5e5760405162461bcd60e51b815260206004820152601f60248201527f45434453413a20696e76616c6964207369676e6174757265206c656e6774680060448201526064016105dd565b6003816004811115611d7257611d726121c2565b03611a685760405162461bcd60e51b815260206004820152602260248201527f45434453413a20696e76616c6964207369676e6174757265202773272076616c604482015261756560f01b60648201526084016105dd565b600154600160a81b900460ff16611df35760405162461bcd60e51b81526004016105dd90612529565b6037611dff83826125e4565b50603861168282826125e4565b600154600160a81b900460ff16611e355760405162461bcd60e51b81526004016105dd90612529565b815160209283012081519190920120606691909155606755565b606061152d848460008585600080866001600160a01b03168587604051611e7691906126a4565b60006040518083038185875af1925050503d8060008114611eb3576040519150601f19603f3d011682016040523d82523d6000602084013e611eb8565b606091505b5091509150611ec987838387611ed4565b979650505050505050565b60608315611f43578251600003611f3c576001600160a01b0385163b611f3c5760405162461bcd60e51b815260206004820152601d60248201527f416464726573733a2063616c6c20746f206e6f6e2d636f6e747261637400000060448201526064016105dd565b508161152d565b61152d8383815115611f585781518083602001fd5b8060405162461bcd60e51b81526004016105dd9190611fc2565b60005b83811015611f8d578181015183820152602001611f75565b50506000910152565b60008151808452611fae816020860160208601611f72565b601f01601f19169290920160200192915050565b602081526000610fbd6020830184611f96565b6001600160a01b0381168114611a6857600080fd5b60008060408385031215611ffd57600080fd5b823561200881611fd5565b946020939093013593505050565b634e487b7160e01b600052604160045260246000fd5b600082601f83011261203d57600080fd5b813567ffffffffffffffff8082111561205857612058612016565b604051601f8301601f19908116603f0116810190828211818310171561208057612080612016565b8160405283815286602085880101111561209957600080fd5b836020870160208301376000602085830101528094505050505092915050565b600080600080608085870312156120cf57600080fd5b84356120da81611fd5565b935060208501356120ea81611fd5565b9250604085013567ffffffffffffffff8082111561210757600080fd5b6121138883890161202c565b9350606087013591508082111561212957600080fd5b506121368782880161202c565b91505092959194509250565b60008060006060848603121561215757600080fd5b833561216281611fd5565b9250602084013561217281611fd5565b929592945050506040919091013590565b60006020828403121561219557600080fd5b8135610fbd81611fd5565b600080604083850312156121b357600080fd5b50508035926020909101359150565b634e487b7160e01b600052602160045260246000fd5b60208101600583106121fa57634e487b7160e01b600052602160045260246000fd5b91905290565b60008060006060848603121561221557600080fd5b833561222081611fd5565b95602085013595506040909401359392505050565b82815260406020820152600061152d6040830184611f96565b6020808252825182820181905260009190848201906040850190845b8181101561228f5783516001600160a01b03168352928401929184019160010161226a565b50909695505050505050565b60ff81168114611a6857600080fd5b600080600080600080600060e0888a0312156122c557600080fd5b87356122d081611fd5565b965060208801356122e081611fd5565b9550604088013594506060880135935060808801356122fe8161229b565b9699959850939692959460a0840135945060c09093013592915050565b6000806040838503121561232e57600080fd5b823561233981611fd5565b9150602083013561234981611fd5565b809150509250929050565b600181811c9082168061236857607f821691505b602082108103610cb057634e487b7160e01b600052602260045260246000fd5b6020808252602e908201527f496e697469616c697a61626c653a20636f6e747261637420697320616c72656160408201526d191e481a5b9a5d1a585b1a5e995960921b606082015260800190565b6000602082840312156123e857600080fd5b8151610fbd8161229b565b634e487b7160e01b600052601160045260246000fd5b80820180821115610575576105756123f3565b81810381811115610575576105756123f3565b60006040828403121561244157600080fd5b6040516040810181811067ffffffffffffffff8211171561246457612464612016565b604052825161247281611fd5565b8152602083015161248281611fd5565b60208201529392505050565b634e487b7160e01b600052603260045260246000fd5b6000602082840312156124b657600080fd5b5051919050565b8082028115828204841417610575576105756123f3565b634e487b7160e01b600052601260045260246000fd5b60008261250757634e487b7160e01b600052601260045260246000fd5b500490565b60006020828403121561251e57600080fd5b8151610fbd81611fd5565b6020808252602b908201527f496e697469616c697a61626c653a20636f6e7472616374206973206e6f74206960408201526a6e697469616c697a696e6760a81b606082015260800190565b60006020828403121561258657600080fd5b81518015158114610fbd57600080fd5b601f82111561168257600081815260208120601f850160051c810160208610156125bd5750805b601f850160051c820191505b818110156125dc578281556001016125c9565b505050505050565b815167ffffffffffffffff8111156125fe576125fe612016565b6126128161260c8454612354565b84612596565b602080601f831160018114612647576000841561262f5750858301515b600019600386901b1c1916600185901b1785556125dc565b600085815260208120601f198616915b8281101561267657888601518255948401946001909101908401612657565b50858210156126945787850151600019600388901b60f8161c191681555b5050505050600190811b01905550565b600082516126b6818460208701611f72565b919091019291505056fea26469706673582212207df183057955d0a58e39ce2f4bb127225790a94e5671323f279c1e580eb3ecca64736f6c63430008110033","bytecodeSha1":"5f04e398664643516201f224d2cdc19280f1a51e","compiler":{"evm_version":"london","optimizer":{"enabled":true,"runs":200},"version":"0.8.17+commit.8df45f5f"},"contractName":"GenericVault","language":"Solidity","natspec":{"kind":"dev","methods":{"DOMAIN_SEPARATOR()":{"details":"See {IERC20Permit-DOMAIN_SEPARATOR}."},"acceptGovernance()":{"notice":"Called by the pending governor to approve the change"},"allowance(address,address)":{"details":"See {IERC20-allowance}."},"approve(address,uint256)":{"details":"See {IERC20-approve}. NOTE: If `amount` is the maximum `uint256`, the allowance is not updated on `transferFrom`. This is semantically equivalent to an infinite approval. Requirements: - `spender` cannot be the zero address."},"balanceOf(address)":{"details":"See {IERC20-balanceOf}."},"changeGovernor(address)":{"notice":"Changes the governor can only be called by the current governor"},"decimals()":{"details":"Returns the decimals places of the token."},"decreaseAllowance(address,uint256)":{"details":"Atomically decreases the allowance granted to `spender` by the caller. This is an alternative to {approve} that can be used as a mitigation for problems described in {IERC20-approve}. Emits an {Approval} event indicating the updated allowance. Requirements: - `spender` cannot be the zero address. - `spender` must have allowance for the caller of at least `subtractedValue`."},"deposit(uint256,uint256)":{"notice":"Deposits `underlyingAmount` of underlying (usually LP) token supported and sends back the received vault tokens","params":{"underlyingAmount":"the amount of underlying to deposit"},"returns":{"vaultTokensMinted":"the amount of vault token sent back"}},"depositFor(address,uint256,uint256)":{"notice":"Simlar to `deposit(uint256 underlyingAmount)` but credits the tokens to `beneficiary` instead of `msg.sender`"},"dryDeposit(uint256,uint256)":{"notice":"Dry-run version of deposit"},"dryWithdraw(uint256,uint256)":{"notice":"Dry-run version of `withdraw`"},"exchangeRate()":{"notice":"The same as getRate() from IRateProvider.","returns":{"_0":"The exchange rate between an underlying tokens and the token of this vault"}},"getTokens()":{"returns":{"_0":"The token associated with this vault In the case of an LP token, this will be the underlying tokens associated to it (e.g. [ETH, DAI] for a ETH/DAI pool LP token or [USDC] for aUSDC) In most cases, the tokens returned will not be LP tokens"}},"governor()":{"notice":"Returns the current governor"},"increaseAllowance(address,uint256)":{"details":"Atomically increases the allowance granted to `spender` by the caller. This is an alternative to {approve} that can be used as a mitigation for problems described in {IERC20-approve}. Emits an {Approval} event indicating the updated allowance. Requirements: - `spender` cannot be the zero address."},"name()":{"details":"Returns the name of the token."},"nonces(address)":{"details":"See {IERC20Permit-nonces}."},"pendingGovernor()":{"notice":"Returns the pending governor"},"permit(address,address,uint256,uint256,uint8,bytes32,bytes32)":{"details":"See {IERC20Permit-permit}."},"setStrategy(address)":{"notice":"Sets the address of the strategy to use for this vault This will be used through governance","params":{"strategyAddress":"the address of the strategy contract that should follow the `IStrategy` interface"}},"symbol()":{"details":"Returns the symbol of the token, usually a shorter version of the name."},"totalSupply()":{"details":"See {IERC20-totalSupply}."},"totalUnderlying()":{"returns":{"_0":"The total amount of underlying tokens in the vault"}},"transfer(address,uint256)":{"details":"See {IERC20-transfer}. Requirements: - `to` cannot be the zero address. - the caller must have a balance of at least `amount`."},"transferFrom(address,address,uint256)":{"details":"See {IERC20-transferFrom}. Emits an {Approval} event indicating the updated allowance. This is not required by the EIP. See the note at the beginning of {ERC20}. NOTE: Does not update the allowance if the current allowance is the maximum `uint256`. Requirements: - `from` and `to` cannot be the zero address. - `from` must have a balance of at least `amount`. - the caller must have allowance for ``from``'s tokens of at least `amount`."},"vaultType()":{"returns":{"_0":"The type of the vault"}},"withdraw(uint256,uint256)":{"notice":"Withdraws `vaultTokenAmount` of LP token supported and burns the vault tokens","params":{"vaultTokenAmount":"the amount of vault token to withdraw"},"returns":{"underlyingAmountWithdrawn":"the amount of LP token sent back"}}},"version":1},"opcodes":"PUSH1 0x80 PUSH1 0x40 MSTORE CALLVALUE DUP1 ISZERO PUSH2 0x10 JUMPI PUSH1 0x0 DUP1 REVERT JUMPDEST POP PUSH1 0x4 CALLDATASIZE LT PUSH2 0x211 JUMPI PUSH1 0x0 CALLDATALOAD PUSH1 0xE0 SHR DUP1 PUSH4 0x679AEFCE GT PUSH2 0x125 JUMPI DUP1 PUSH4 0xC4D66DE8 GT PUSH2 0xAD JUMPI DUP1 PUSH4 0xDD62ED3E GT PUSH2 0x7C JUMPI DUP1 PUSH4 0xDD62ED3E EQ PUSH2 0x479 JUMPI DUP1 PUSH4 0xE2BBB158 EQ PUSH2 0x48C JUMPI DUP1 PUSH4 0xE3056A34 EQ PUSH2 0x49F JUMPI DUP1 PUSH4 0xE4C0AAF4 EQ PUSH2 0x4B2 JUMPI DUP1 PUSH4 0xEAE4C19F EQ PUSH2 0x4C5 JUMPI PUSH1 0x0 DUP1 REVERT JUMPDEST DUP1 PUSH4 0xC4D66DE8 EQ PUSH2 0x438 JUMPI DUP1 PUSH4 0xC70920BC EQ PUSH2 0x44B JUMPI DUP1 PUSH4 0xCC04FEFF EQ PUSH2 0x453 JUMPI DUP1 PUSH4 0xD505ACCF EQ PUSH2 0x466 JUMPI PUSH1 0x0 DUP1 REVERT JUMPDEST DUP1 PUSH4 0x95D89B41 GT PUSH2 0xF4 JUMPI DUP1 PUSH4 0x95D89B41 EQ PUSH2 0x3E1 JUMPI DUP1 PUSH4 0xA457C2D7 EQ PUSH2 0x3E9 JUMPI DUP1 PUSH4 0xA8C62E76 EQ PUSH2 0x3FC JUMPI DUP1 PUSH4 0xA9059CBB EQ PUSH2 0x410 JUMPI DUP1 PUSH4 0xAA6CA808 EQ PUSH2 0x423 JUMPI PUSH1 0x0 DUP1 REVERT JUMPDEST DUP1 PUSH4 0x679AEFCE EQ PUSH2 0x30C JUMPI DUP1 PUSH4 0x6F307DC3 EQ PUSH2 0x391 JUMPI DUP1 PUSH4 0x70A08231 EQ PUSH2 0x3A5 JUMPI DUP1 PUSH4 0x7ECEBE00 EQ PUSH2 0x3CE JUMPI PUSH1 0x0 DUP1 REVERT JUMPDEST DUP1 PUSH4 0x33A100CA GT PUSH2 0x1A8 JUMPI DUP1 PUSH4 0x441A3E70 GT PUSH2 0x177 JUMPI DUP1 PUSH4 0x441A3E70 EQ PUSH2 0x314 JUMPI DUP1 PUSH4 0x44BBDB55 EQ PUSH2 0x327 JUMPI DUP1 PUSH4 0x4AC032BE EQ PUSH2 0x34E JUMPI DUP1 PUSH4 0x4CF5FBF5 EQ PUSH2 0x35D JUMPI DUP1 PUSH4 0x550D2B62 EQ PUSH2 0x370 JUMPI PUSH1 0x0 DUP1 REVERT JUMPDEST DUP1 PUSH4 0x33A100CA EQ PUSH2 0x2DE JUMPI DUP1 PUSH4 0x3644E515 EQ PUSH2 0x2F1 JUMPI DUP1 PUSH4 0x39509351 EQ PUSH2 0x2F9 JUMPI DUP1 PUSH4 0x3BA0B9A9 EQ PUSH2 0x30C JUMPI PUSH1 0x0 DUP1 REVERT JUMPDEST DUP1 PUSH4 0x2016A0D2 GT PUSH2 0x1E4 JUMPI DUP1 PUSH4 0x2016A0D2 EQ PUSH2 0x294 JUMPI DUP1 PUSH4 0x238EFCBC EQ PUSH2 0x2A9 JUMPI DUP1 PUSH4 0x23B872DD EQ PUSH2 0x2B1 JUMPI DUP1 PUSH4 0x313CE567 EQ PUSH2 0x2C4 JUMPI PUSH1 0x0 DUP1 REVERT JUMPDEST DUP1 PUSH4 0x6FDDE03 EQ PUSH2 0x216 JUMPI DUP1 PUSH4 0x95EA7B3 EQ PUSH2 0x234 JUMPI DUP1 PUSH4 0xC340A24 EQ PUSH2 0x257 JUMPI DUP1 PUSH4 0x18160DDD EQ PUSH2 0x282 JUMPI JUMPDEST PUSH1 0x0 DUP1 REVERT JUMPDEST PUSH2 0x21E PUSH2 0x4CF JUMP JUMPDEST PUSH1 0x40 MLOAD PUSH2 0x22B SWAP2 SWAP1 PUSH2 0x1FC2 JUMP JUMPDEST PUSH1 0x40 MLOAD DUP1 SWAP2 SUB SWAP1 RETURN JUMPDEST PUSH2 0x247 PUSH2 0x242 CALLDATASIZE PUSH1 0x4 PUSH2 0x1FEA JUMP JUMPDEST PUSH2 0x561 JUMP JUMPDEST PUSH1 0x40 MLOAD SWAP1 ISZERO ISZERO DUP2 MSTORE PUSH1 0x20 ADD PUSH2 0x22B JUMP JUMPDEST PUSH1 0x0 SLOAD PUSH2 0x26A SWAP1 PUSH1 0x1 PUSH1 0x1 PUSH1 0xA0 SHL SUB AND DUP2 JUMP JUMPDEST PUSH1 0x40 MLOAD PUSH1 0x1 PUSH1 0x1 PUSH1 0xA0 SHL SUB SWAP1 SWAP2 AND DUP2 MSTORE PUSH1 0x20 ADD PUSH2 0x22B JUMP JUMPDEST PUSH1 0x36 SLOAD JUMPDEST PUSH1 0x40 MLOAD SWAP1 DUP2 MSTORE PUSH1 0x20 ADD PUSH2 0x22B JUMP JUMPDEST PUSH2 0x2A7 PUSH2 0x2A2 CALLDATASIZE PUSH1 0x4 PUSH2 0x20B9 JUMP JUMPDEST PUSH2 0x57B JUMP JUMPDEST STOP JUMPDEST PUSH2 0x2A7 PUSH2 0x66D JUMP JUMPDEST PUSH2 0x247 PUSH2 0x2BF CALLDATASIZE PUSH1 0x4 PUSH2 0x2142 JUMP JUMPDEST PUSH2 0x71D JUMP JUMPDEST PUSH2 0x2CC PUSH2 0x741 JUMP JUMPDEST PUSH1 0x40 MLOAD PUSH1 0xFF SWAP1 SWAP2 AND DUP2 MSTORE PUSH1 0x20 ADD PUSH2 0x22B JUMP JUMPDEST PUSH2 0x2A7 PUSH2 0x2EC CALLDATASIZE PUSH1 0x4 PUSH2 0x2183 JUMP JUMPDEST PUSH2 0x7B5 JUMP JUMPDEST PUSH2 0x286 PUSH2 0x81E JUMP JUMPDEST PUSH2 0x247 PUSH2 0x307 CALLDATASIZE PUSH1 0x4 PUSH2 0x1FEA JUMP JUMPDEST PUSH2 0x828 JUMP JUMPDEST PUSH2 0x286 PUSH2 0x84A JUMP JUMPDEST PUSH2 0x286 PUSH2 0x322 CALLDATASIZE PUSH1 0x4 PUSH2 0x21A0 JUMP JUMPDEST PUSH2 0x856 JUMP JUMPDEST PUSH2 0x26A PUSH32 0x0 DUP2 JUMP JUMPDEST PUSH1 0x0 PUSH1 0x40 MLOAD PUSH2 0x22B SWAP2 SWAP1 PUSH2 0x21D8 JUMP JUMPDEST PUSH2 0x286 PUSH2 0x36B CALLDATASIZE PUSH1 0x4 PUSH2 0x2200 JUMP JUMPDEST PUSH2 0x964 JUMP JUMPDEST PUSH2 0x383 PUSH2 0x37E CALLDATASIZE PUSH1 0x4 PUSH2 0x21A0 JUMP JUMPDEST PUSH2 0xA54 JUMP JUMPDEST PUSH1 0x40 MLOAD PUSH2 0x22B SWAP3 SWAP2 SWAP1 PUSH2 0x2235 JUMP JUMPDEST PUSH2 0x131 SLOAD PUSH2 0x26A SWAP1 PUSH1 0x1 PUSH1 0x1 PUSH1 0xA0 SHL SUB AND DUP2 JUMP JUMPDEST PUSH2 0x286 PUSH2 0x3B3 CALLDATASIZE PUSH1 0x4 PUSH2 0x2183 JUMP JUMPDEST PUSH1 0x1 PUSH1 0x1 PUSH1 0xA0 SHL SUB AND PUSH1 0x0 SWAP1 DUP2 MSTORE PUSH1 0x34 PUSH1 0x20 MSTORE PUSH1 0x40 SWAP1 KECCAK256 SLOAD SWAP1 JUMP JUMPDEST PUSH2 0x286 PUSH2 0x3DC CALLDATASIZE PUSH1 0x4 PUSH2 0x2183 JUMP JUMPDEST PUSH2 0xA9F JUMP JUMPDEST PUSH2 0x21E PUSH2 0xABD JUMP JUMPDEST PUSH2 0x247 PUSH2 0x3F7 CALLDATASIZE PUSH1 0x4 PUSH2 0x1FEA JUMP JUMPDEST PUSH2 0xACC JUMP JUMPDEST PUSH2 0x133 SLOAD PUSH2 0x26A SWAP1 PUSH1 0x1 PUSH1 0x1 PUSH1 0xA0 SHL SUB AND DUP2 JUMP JUMPDEST PUSH2 0x247 PUSH2 0x41E CALLDATASIZE PUSH1 0x4 PUSH2 0x1FEA JUMP JUMPDEST PUSH2 0xB47 JUMP JUMPDEST PUSH2 0x42B PUSH2 0xB55 JUMP JUMPDEST PUSH1 0x40 MLOAD PUSH2 0x22B SWAP2 SWAP1 PUSH2 0x224E JUMP JUMPDEST PUSH2 0x2A7 PUSH2 0x446 CALLDATASIZE PUSH1 0x4 PUSH2 0x2183 JUMP JUMPDEST PUSH2 0xCB6 JUMP JUMPDEST PUSH2 0x286 PUSH2 0xD99 JUMP JUMPDEST PUSH2 0x383 PUSH2 0x461 CALLDATASIZE PUSH1 0x4 PUSH2 0x21A0 JUMP JUMPDEST PUSH2 0xE07 JUMP JUMPDEST PUSH2 0x2A7 PUSH2 0x474 CALLDATASIZE PUSH1 0x4 PUSH2 0x22AA JUMP JUMPDEST PUSH2 0xE21 JUMP JUMPDEST PUSH2 0x286 PUSH2 0x487 CALLDATASIZE PUSH1 0x4 PUSH2 0x231B JUMP JUMPDEST PUSH2 0xF85 JUMP JUMPDEST PUSH2 0x286 PUSH2 0x49A CALLDATASIZE PUSH1 0x4 PUSH2 0x21A0 JUMP JUMPDEST PUSH2 0xFB0 JUMP JUMPDEST PUSH1 0x1 SLOAD PUSH2 0x26A SWAP1 PUSH1 0x1 PUSH1 0x1 PUSH1 0xA0 SHL SUB AND DUP2 JUMP JUMPDEST PUSH2 0x2A7 PUSH2 0x4C0 CALLDATASIZE PUSH1 0x4 PUSH2 0x2183 JUMP JUMPDEST PUSH2 0xFC4 JUMP JUMPDEST PUSH2 0x286 PUSH2 0x132 SLOAD DUP2 JUMP JUMPDEST PUSH1 0x60 PUSH1 0x37 DUP1 SLOAD PUSH2 0x4DE SWAP1 PUSH2 0x2354 JUMP JUMPDEST DUP1 PUSH1 0x1F ADD PUSH1 0x20 DUP1 SWAP2 DIV MUL PUSH1 0x20 ADD PUSH1 0x40 MLOAD SWAP1 DUP2 ADD PUSH1 0x40 MSTORE DUP1 SWAP3 SWAP2 SWAP1 DUP2 DUP2 MSTORE PUSH1 0x20 ADD DUP3 DUP1 SLOAD PUSH2 0x50A SWAP1 PUSH2 0x2354 JUMP JUMPDEST DUP1 ISZERO PUSH2 0x557 JUMPI DUP1 PUSH1 0x1F LT PUSH2 0x52C JUMPI PUSH2 0x100 DUP1 DUP4 SLOAD DIV MUL DUP4 MSTORE SWAP2 PUSH1 0x20 ADD SWAP2 PUSH2 0x557 JUMP JUMPDEST DUP3 ADD SWAP2 SWAP1 PUSH1 0x0 MSTORE PUSH1 0x20 PUSH1 0x0 KECCAK256 SWAP1 JUMPDEST DUP2 SLOAD DUP2 MSTORE SWAP1 PUSH1 0x1 ADD SWAP1 PUSH1 0x20 ADD DUP1 DUP4 GT PUSH2 0x53A JUMPI DUP3 SWAP1 SUB PUSH1 0x1F AND DUP3 ADD SWAP2 JUMPDEST POP POP POP POP POP SWAP1 POP SWAP1 JUMP JUMPDEST PUSH1 0x0 CALLER PUSH2 0x56F DUP2 DUP6 DUP6 PUSH2 0x1099 JUMP JUMPDEST PUSH1 0x1 SWAP2 POP POP JUMPDEST SWAP3 SWAP2 POP POP JUMP JUMPDEST PUSH1 0x1 SLOAD PUSH1 0x1 PUSH1 0xA8 SHL SWAP1 DIV PUSH1 0xFF AND ISZERO DUP1 DUP1 ISZERO PUSH2 0x5A1 JUMPI POP PUSH1 0x1 DUP1 SLOAD PUSH1 0x1 PUSH1 0xA0 SHL SWAP1 DIV PUSH1 0xFF AND LT JUMPDEST DUP1 PUSH2 0x5C1 JUMPI POP ADDRESS EXTCODESIZE ISZERO DUP1 ISZERO PUSH2 0x5C1 JUMPI POP PUSH1 0x1 DUP1 SLOAD PUSH1 0x1 PUSH1 0xA0 SHL SWAP1 DIV PUSH1 0xFF AND EQ JUMPDEST PUSH2 0x5E6 JUMPI PUSH1 0x40 MLOAD PUSH3 0x461BCD PUSH1 0xE5 SHL DUP2 MSTORE PUSH1 0x4 ADD PUSH2 0x5DD SWAP1 PUSH2 0x2388 JUMP JUMPDEST PUSH1 0x40 MLOAD DUP1 SWAP2 SUB SWAP1 REVERT JUMPDEST PUSH1 0x1 DUP1 SLOAD PUSH1 0xFF PUSH1 0xA0 SHL NOT AND PUSH1 0x1 PUSH1 0xA0 SHL OR SWAP1 SSTORE DUP1 ISZERO PUSH2 0x613 JUMPI PUSH1 0x1 DUP1 SLOAD PUSH1 0xFF PUSH1 0xA8 SHL NOT AND PUSH1 0x1 PUSH1 0xA8 SHL OR SWAP1 SSTORE JUMPDEST PUSH2 0x61F DUP6 DUP6 DUP6 DUP6 PUSH2 0x11BE JUMP JUMPDEST DUP1 ISZERO PUSH2 0x666 JUMPI PUSH1 0x1 DUP1 SLOAD PUSH1 0xFF PUSH1 0xA8 SHL NOT AND DUP2 SSTORE PUSH1 0x40 MLOAD SWAP1 DUP2 MSTORE PUSH32 0x7F26B83FF96E1F2B6A682F133852F6798A09C465DA95921460CEFB3847402498 SWAP1 PUSH1 0x20 ADD PUSH1 0x40 MLOAD DUP1 SWAP2 SUB SWAP1 LOG1 JUMPDEST POP POP POP POP POP JUMP JUMPDEST PUSH1 0x1 SLOAD PUSH1 0x40 DUP1 MLOAD DUP1 DUP3 ADD SWAP1 SWAP2 MSTORE PUSH1 0x2 DUP2 MSTORE PUSH2 0x333 PUSH1 0xF4 SHL PUSH1 0x20 DUP3 ADD MSTORE SWAP1 PUSH1 0x1 PUSH1 0x1 PUSH1 0xA0 SHL SUB AND CALLER EQ PUSH2 0x6B2 JUMPI PUSH1 0x40 MLOAD PUSH3 0x461BCD PUSH1 0xE5 SHL DUP2 MSTORE PUSH1 0x4 ADD PUSH2 0x5DD SWAP2 SWAP1 PUSH2 0x1FC2 JUMP JUMPDEST POP PUSH1 0x0 DUP1 SLOAD PUSH1 0x1 DUP1 SLOAD PUSH1 0x1 PUSH1 0x1 PUSH1 0xA0 SHL SUB NOT DUP1 DUP5 AND PUSH1 0x1 PUSH1 0x1 PUSH1 0xA0 SHL SUB DUP1 DUP5 AND SWAP2 SWAP1 SWAP2 OR SWAP1 SWAP6 SSTORE AND SWAP1 SSTORE PUSH1 0x40 DUP1 MLOAD SWAP3 SWAP1 SWAP2 AND DUP1 DUP4 MSTORE CALLER PUSH1 0x20 DUP5 ADD MSTORE SWAP2 PUSH32 0xDE4B3F61490B74C0ED6237523974FE299126BBBF8A8A7482FD220104C59B0C84 SWAP2 ADD JUMPDEST PUSH1 0x40 MLOAD DUP1 SWAP2 SUB SWAP1 LOG1 POP JUMP JUMPDEST PUSH1 0x0 CALLER PUSH2 0x72B DUP6 DUP3 DUP6 PUSH2 0x1242 JUMP JUMPDEST PUSH2 0x736 DUP6 DUP6 DUP6 PUSH2 0x12B6 JUMP JUMPDEST POP PUSH1 0x1 SWAP5 SWAP4 POP POP POP POP JUMP JUMPDEST PUSH2 0x131 SLOAD PUSH1 0x40 DUP1 MLOAD PUSH4 0x313CE567 PUSH1 0xE0 SHL DUP2 MSTORE SWAP1 MLOAD PUSH1 0x0 SWAP3 PUSH1 0x1 PUSH1 0x1 PUSH1 0xA0 SHL SUB AND SWAP2 PUSH4 0x313CE567 SWAP2 PUSH1 0x4 DUP1 DUP4 ADD SWAP3 PUSH1 0x20 SWAP3 SWAP2 SWAP1 DUP3 SWAP1 SUB ADD DUP2 DUP7 GAS STATICCALL ISZERO DUP1 ISZERO PUSH2 0x78C JUMPI RETURNDATASIZE PUSH1 0x0 DUP1 RETURNDATACOPY RETURNDATASIZE PUSH1 0x0 REVERT JUMPDEST POP POP POP POP PUSH1 0x40 MLOAD RETURNDATASIZE PUSH1 0x1F NOT PUSH1 0x1F DUP3 ADD AND DUP3 ADD DUP1 PUSH1 0x40 MSTORE POP DUP2 ADD SWAP1 PUSH2 0x7B0 SWAP2 SWAP1 PUSH2 0x23D6 JUMP JUMPDEST SWAP1 POP SWAP1 JUMP JUMPDEST PUSH1 0x0 SLOAD PUSH1 0x40 DUP1 MLOAD DUP1 DUP3 ADD SWAP1 SWAP2 MSTORE PUSH1 0x2 DUP2 MSTORE PUSH2 0x333 PUSH1 0xF4 SHL PUSH1 0x20 DUP3 ADD MSTORE SWAP1 PUSH1 0x1 PUSH1 0x1 PUSH1 0xA0 SHL SUB AND CALLER EQ PUSH2 0x7FA JUMPI PUSH1 0x40 MLOAD PUSH3 0x461BCD PUSH1 0xE5 SHL DUP2 MSTORE PUSH1 0x4 ADD PUSH2 0x5DD SWAP2 SWAP1 PUSH2 0x1FC2 JUMP JUMPDEST POP PUSH2 0x133 DUP1 SLOAD PUSH1 0x1 PUSH1 0x1 PUSH1 0xA0 SHL SUB NOT AND PUSH1 0x1 PUSH1 0x1 PUSH1 0xA0 SHL SUB SWAP3 SWAP1 SWAP3 AND SWAP2 SWAP1 SWAP2 OR SWAP1 SSTORE JUMP JUMPDEST PUSH1 0x0 PUSH2 0x7B0 PUSH2 0x1461 JUMP JUMPDEST PUSH1 0x0 CALLER PUSH2 0x56F DUP2 DUP6 DUP6 PUSH2 0x83B DUP4 DUP4 PUSH2 0xF85 JUMP JUMPDEST PUSH2 0x845 SWAP2 SWAP1 PUSH2 0x2409 JUMP JUMPDEST PUSH2 0x1099 JUMP JUMPDEST PUSH1 0x0 PUSH2 0x7B0 PUSH1 0x0 PUSH2 0x14DC JUMP JUMPDEST PUSH1 0x0 DUP1 DUP4 GT PUSH1 0x40 MLOAD DUP1 PUSH1 0x40 ADD PUSH1 0x40 MSTORE DUP1 PUSH1 0x2 DUP2 MSTORE PUSH1 0x20 ADD PUSH2 0x3331 PUSH1 0xF0 SHL DUP2 MSTORE POP SWAP1 PUSH2 0x894 JUMPI PUSH1 0x40 MLOAD PUSH3 0x461BCD PUSH1 0xE5 SHL DUP2 MSTORE PUSH1 0x4 ADD PUSH2 0x5DD SWAP2 SWAP1 PUSH2 0x1FC2 JUMP JUMPDEST POP CALLER PUSH1 0x0 SWAP1 DUP2 MSTORE PUSH1 0x34 PUSH1 0x20 MSTORE PUSH1 0x40 DUP2 KECCAK256 SLOAD SWAP1 POP DUP4 DUP2 LT ISZERO PUSH1 0x40 MLOAD DUP1 PUSH1 0x40 ADD PUSH1 0x40 MSTORE DUP1 PUSH1 0x2 DUP2 MSTORE PUSH1 0x20 ADD PUSH2 0xCCD PUSH1 0xF2 SHL DUP2 MSTORE POP SWAP1 PUSH2 0x8E4 JUMPI PUSH1 0x40 MLOAD PUSH3 0x461BCD PUSH1 0xE5 SHL DUP2 MSTORE PUSH1 0x4 ADD PUSH2 0x5DD SWAP2 SWAP1 PUSH2 0x1FC2 JUMP JUMPDEST POP PUSH1 0x0 PUSH2 0x8EF PUSH2 0x84A JUMP JUMPDEST SWAP1 POP PUSH2 0x8FB DUP6 DUP3 PUSH2 0x1535 JUMP JUMPDEST SWAP3 POP DUP4 DUP4 LT ISZERO PUSH1 0x40 MLOAD DUP1 PUSH1 0x40 ADD PUSH1 0x40 MSTORE DUP1 PUSH1 0x1 DUP2 MSTORE PUSH1 0x20 ADD PUSH1 0x19 PUSH1 0xF9 SHL DUP2 MSTORE POP SWAP1 PUSH2 0x939 JUMPI PUSH1 0x40 MLOAD PUSH3 0x461BCD PUSH1 0xE5 SHL DUP2 MSTORE PUSH1 0x4 ADD PUSH2 0x5DD SWAP2 SWAP1 PUSH2 0x1FC2 JUMP JUMPDEST POP PUSH2 0x944 CALLER DUP7 PUSH2 0x1556 JUMP JUMPDEST PUSH2 0x131 SLOAD PUSH2 0x95C SWAP1 PUSH1 0x1 PUSH1 0x1 PUSH1 0xA0 SHL SUB AND CALLER DUP6 PUSH2 0x1687 JUMP JUMPDEST POP POP SWAP3 SWAP2 POP POP JUMP JUMPDEST PUSH1 0x0 DUP1 PUSH2 0x971 PUSH1 0x1 PUSH2 0x14DC JUMP JUMPDEST PUSH2 0x131 SLOAD SWAP1 SWAP2 POP PUSH2 0x98D SWAP1 PUSH1 0x1 PUSH1 0x1 PUSH1 0xA0 SHL SUB AND CALLER ADDRESS DUP8 PUSH2 0x16EA JUMP JUMPDEST PUSH2 0x997 DUP5 DUP3 PUSH2 0x1722 JUMP JUMPDEST SWAP2 POP PUSH2 0x9A2 PUSH1 0x36 SLOAD SWAP1 JUMP JUMPDEST PUSH1 0x0 SUB PUSH2 0x9CF JUMPI PUSH1 0x0 PUSH2 0x9B3 PUSH2 0x1795 JUMP JUMPDEST SWAP1 POP PUSH2 0x9C1 PUSH2 0xDEAD DUP3 PUSH2 0x17B6 JUMP JUMPDEST PUSH2 0x9CB DUP2 DUP5 PUSH2 0x241C JUMP JUMPDEST SWAP3 POP POP JUMPDEST PUSH1 0x40 DUP1 MLOAD DUP1 DUP3 ADD SWAP1 SWAP2 MSTORE PUSH1 0x3 DUP2 MSTORE PUSH3 0x313033 PUSH1 0xE8 SHL PUSH1 0x20 DUP3 ADD MSTORE DUP3 PUSH2 0xA07 JUMPI PUSH1 0x40 MLOAD PUSH3 0x461BCD PUSH1 0xE5 SHL DUP2 MSTORE PUSH1 0x4 ADD PUSH2 0x5DD SWAP2 SWAP1 PUSH2 0x1FC2 JUMP JUMPDEST POP PUSH1 0x40 DUP1 MLOAD DUP1 DUP3 ADD SWAP1 SWAP2 MSTORE PUSH1 0x1 DUP2 MSTORE PUSH1 0x19 PUSH1 0xF9 SHL PUSH1 0x20 DUP3 ADD MSTORE DUP4 DUP4 LT ISZERO PUSH2 0xA41 JUMPI PUSH1 0x40 MLOAD PUSH3 0x461BCD PUSH1 0xE5 SHL DUP2 MSTORE PUSH1 0x4 ADD PUSH2 0x5DD SWAP2 SWAP1 PUSH2 0x1FC2 JUMP JUMPDEST POP PUSH2 0xA4C DUP6 DUP4 PUSH2 0x17B6 JUMP JUMPDEST POP SWAP4 SWAP3 POP POP POP JUMP JUMPDEST PUSH1 0x0 PUSH1 0x60 PUSH1 0x0 PUSH2 0xA64 PUSH1 0x1 PUSH2 0x14DC JUMP JUMPDEST SWAP1 POP PUSH2 0xA70 DUP6 DUP3 PUSH2 0x1722 JUMP JUMPDEST SWAP3 POP DUP4 DUP4 LT ISZERO PUSH2 0xA97 JUMPI PUSH1 0x40 MLOAD DUP1 PUSH1 0x40 ADD PUSH1 0x40 MSTORE DUP1 PUSH1 0x1 DUP2 MSTORE PUSH1 0x20 ADD PUSH1 0x19 PUSH1 0xF9 SHL DUP2 MSTORE POP SWAP2 POP JUMPDEST POP SWAP3 POP SWAP3 SWAP1 POP JUMP JUMPDEST PUSH1 0x1 PUSH1 0x1 PUSH1 0xA0 SHL SUB DUP2 AND PUSH1 0x0 SWAP1 DUP2 MSTORE PUSH1 0x9A PUSH1 0x20 MSTORE PUSH1 0x40 DUP2 KECCAK256 SLOAD PUSH2 0x575 JUMP JUMPDEST PUSH1 0x60 PUSH1 0x38 DUP1 SLOAD PUSH2 0x4DE SWAP1 PUSH2 0x2354 JUMP JUMPDEST PUSH1 0x0 CALLER DUP2 PUSH2 0xADA DUP3 DUP7 PUSH2 0xF85 JUMP JUMPDEST SWAP1 POP DUP4 DUP2 LT ISZERO PUSH2 0xB3A JUMPI PUSH1 0x40 MLOAD PUSH3 0x461BCD PUSH1 0xE5 SHL DUP2 MSTORE PUSH1 0x20 PUSH1 0x4 DUP3 ADD MSTORE PUSH1 0x25 PUSH1 0x24 DUP3 ADD MSTORE PUSH32 0x45524332303A2064656372656173656420616C6C6F77616E63652062656C6F77 PUSH1 0x44 DUP3 ADD MSTORE PUSH5 0x207A65726F PUSH1 0xD8 SHL PUSH1 0x64 DUP3 ADD MSTORE PUSH1 0x84 ADD PUSH2 0x5DD JUMP JUMPDEST PUSH2 0x736 DUP3 DUP7 DUP7 DUP5 SUB PUSH2 0x1099 JUMP JUMPDEST PUSH1 0x0 CALLER PUSH2 0x56F DUP2 DUP6 DUP6 PUSH2 0x12B6 JUMP JUMPDEST PUSH1 0x40 DUP1 MLOAD PUSH1 0x1 DUP1 DUP3 MSTORE DUP2 DUP4 ADD SWAP1 SWAP3 MSTORE PUSH1 0x60 SWAP2 PUSH1 0x0 SWAP2 SWAP1 PUSH1 0x20 DUP1 DUP4 ADD SWAP1 DUP1 CALLDATASIZE DUP4 CALLDATACOPY ADD SWAP1 POP POP SWAP1 POP PUSH1 0x0 PUSH2 0xBAF PUSH32 0x0 PUSH1 0x1 PUSH1 0x1 PUSH1 0xA0 SHL SUB AND PUSH2 0x1877 JUMP JUMPDEST PUSH2 0x131 SLOAD PUSH1 0x40 MLOAD PUSH4 0x7583902F PUSH1 0xE0 SHL DUP2 MSTORE PUSH1 0x1 PUSH1 0x1 PUSH1 0xA0 SHL SUB SWAP2 DUP3 AND PUSH1 0x4 DUP3 ADD MSTORE SWAP2 AND SWAP1 PUSH4 0x7583902F SWAP1 PUSH1 0x24 ADD PUSH1 0x40 DUP1 MLOAD DUP1 DUP4 SUB DUP2 DUP7 GAS STATICCALL ISZERO DUP1 ISZERO PUSH2 0xBF8 JUMPI RETURNDATASIZE PUSH1 0x0 DUP1 RETURNDATACOPY RETURNDATASIZE PUSH1 0x0 REVERT JUMPDEST POP POP POP POP PUSH1 0x40 MLOAD RETURNDATASIZE PUSH1 0x1F NOT PUSH1 0x1F DUP3 ADD AND DUP3 ADD DUP1 PUSH1 0x40 MSTORE POP DUP2 ADD SWAP1 PUSH2 0xC1C SWAP2 SWAP1 PUSH2 0x242F JUMP JUMPDEST DUP1 MLOAD SWAP1 SWAP2 POP PUSH1 0x1 PUSH1 0x1 PUSH1 0xA0 SHL SUB AND ISZERO PUSH2 0xC6C JUMPI DUP1 PUSH1 0x0 ADD MLOAD DUP3 PUSH1 0x0 DUP2 MLOAD DUP2 LT PUSH2 0xC47 JUMPI PUSH2 0xC47 PUSH2 0x248E JUMP JUMPDEST PUSH1 0x20 MUL PUSH1 0x20 ADD ADD SWAP1 PUSH1 0x1 PUSH1 0x1 PUSH1 0xA0 SHL SUB AND SWAP1 DUP2 PUSH1 0x1 PUSH1 0x1 PUSH1 0xA0 SHL SUB AND DUP2 MSTORE POP POP PUSH2 0xCB0 JUMP JUMPDEST PUSH2 0x131 SLOAD DUP3 MLOAD PUSH1 0x1 PUSH1 0x1 PUSH1 0xA0 SHL SUB SWAP1 SWAP2 AND SWAP1 DUP4 SWAP1 PUSH1 0x0 SWAP1 PUSH2 0xC8F JUMPI PUSH2 0xC8F PUSH2 0x248E JUMP JUMPDEST PUSH1 0x20 MUL PUSH1 0x20 ADD ADD SWAP1 PUSH1 0x1 PUSH1 0x1 PUSH1 0xA0 SHL SUB AND SWAP1 DUP2 PUSH1 0x1 PUSH1 0x1 PUSH1 0xA0 SHL SUB AND DUP2 MSTORE POP POP JUMPDEST POP SWAP2 SWAP1 POP JUMP JUMPDEST PUSH1 0x1 SLOAD PUSH1 0x1 PUSH1 0xA8 SHL SWAP1 DIV PUSH1 0xFF AND ISZERO DUP1 DUP1 ISZERO PUSH2 0xCDC JUMPI POP PUSH1 0x1 DUP1 SLOAD PUSH1 0x1 PUSH1 0xA0 SHL SWAP1 DIV PUSH1 0xFF AND LT JUMPDEST DUP1 PUSH2 0xCFC JUMPI POP ADDRESS EXTCODESIZE ISZERO DUP1 ISZERO PUSH2 0xCFC JUMPI POP PUSH1 0x1 DUP1 SLOAD PUSH1 0x1 PUSH1 0xA0 SHL SWAP1 DIV PUSH1 0xFF AND EQ JUMPDEST PUSH2 0xD18 JUMPI PUSH1 0x40 MLOAD PUSH3 0x461BCD PUSH1 0xE5 SHL DUP2 MSTORE PUSH1 0x4 ADD PUSH2 0x5DD SWAP1 PUSH2 0x2388 JUMP JUMPDEST PUSH1 0x1 DUP1 SLOAD PUSH1 0xFF PUSH1 0xA0 SHL NOT AND PUSH1 0x1 PUSH1 0xA0 SHL OR SWAP1 SSTORE DUP1 ISZERO PUSH2 0xD45 JUMPI PUSH1 0x1 DUP1 SLOAD PUSH1 0xFF PUSH1 0xA8 SHL NOT AND PUSH1 0x1 PUSH1 0xA8 SHL OR SWAP1 SSTORE JUMPDEST PUSH2 0xD4E DUP3 PUSH2 0x18F9 JUMP JUMPDEST DUP1 ISZERO PUSH2 0xD95 JUMPI PUSH1 0x1 DUP1 SLOAD PUSH1 0xFF PUSH1 0xA8 SHL NOT AND DUP2 SSTORE PUSH1 0x40 MLOAD SWAP1 DUP2 MSTORE PUSH32 0x7F26B83FF96E1F2B6A682F133852F6798A09C465DA95921460CEFB3847402498 SWAP1 PUSH1 0x20 ADD PUSH1 0x40 MLOAD DUP1 SWAP2 SUB SWAP1 LOG1 JUMPDEST POP POP JUMP JUMPDEST PUSH2 0x131 SLOAD PUSH1 0x40 MLOAD PUSH4 0x70A08231 PUSH1 0xE0 SHL DUP2 MSTORE ADDRESS PUSH1 0x4 DUP3 ADD MSTORE PUSH1 0x0 SWAP2 PUSH1 0x1 PUSH1 0x1 PUSH1 0xA0 SHL SUB AND SWAP1 PUSH4 0x70A08231 SWAP1 PUSH1 0x24 ADD PUSH1 0x20 PUSH1 0x40 MLOAD DUP1 DUP4 SUB DUP2 DUP7 GAS STATICCALL ISZERO DUP1 ISZERO PUSH2 0xDE3 JUMPI RETURNDATASIZE PUSH1 0x0 DUP1 RETURNDATACOPY RETURNDATASIZE PUSH1 0x0 REVERT JUMPDEST POP POP POP POP PUSH1 0x40 MLOAD RETURNDATASIZE PUSH1 0x1F NOT PUSH1 0x1F DUP3 ADD AND DUP3 ADD DUP1 PUSH1 0x40 MSTORE POP DUP2 ADD SWAP1 PUSH2 0x7B0 SWAP2 SWAP1 PUSH2 0x24A4 JUMP JUMPDEST PUSH1 0x0 PUSH1 0x60 PUSH1 0x0 PUSH2 0xE15 PUSH2 0x84A JUMP JUMPDEST SWAP1 POP PUSH2 0xA70 DUP6 DUP3 PUSH2 0x1535 JUMP JUMPDEST DUP4 TIMESTAMP GT ISZERO PUSH2 0xE71 JUMPI PUSH1 0x40 MLOAD PUSH3 0x461BCD PUSH1 0xE5 SHL DUP2 MSTORE PUSH1 0x20 PUSH1 0x4 DUP3 ADD MSTORE PUSH1 0x1D PUSH1 0x24 DUP3 ADD MSTORE PUSH32 0x45524332305065726D69743A206578706972656420646561646C696E65000000 PUSH1 0x44 DUP3 ADD MSTORE PUSH1 0x64 ADD PUSH2 0x5DD JUMP JUMPDEST PUSH1 0x0 PUSH32 0x6E71EDAE12B1B97F4D1F60370FEF10105FA2FAAE0126114A169C64845D6126C9 DUP9 DUP9 DUP9 PUSH2 0xEA0 DUP13 PUSH2 0x194D JUMP JUMPDEST PUSH1 0x40 DUP1 MLOAD PUSH1 0x20 DUP2 ADD SWAP7 SWAP1 SWAP7 MSTORE PUSH1 0x1 PUSH1 0x1 PUSH1 0xA0 SHL SUB SWAP5 DUP6 AND SWAP1 DUP7 ADD MSTORE SWAP3 SWAP1 SWAP2 AND PUSH1 0x60 DUP5 ADD MSTORE PUSH1 0x80 DUP4 ADD MSTORE PUSH1 0xA0 DUP3 ADD MSTORE PUSH1 0xC0 DUP2 ADD DUP7 SWAP1 MSTORE PUSH1 0xE0 ADD PUSH1 0x40 MLOAD PUSH1 0x20 DUP2 DUP4 SUB SUB DUP2 MSTORE SWAP1 PUSH1 0x40 MSTORE DUP1 MLOAD SWAP1 PUSH1 0x20 ADD KECCAK256 SWAP1 POP PUSH1 0x0 PUSH2 0xEFB DUP3 PUSH2 0x1973 JUMP JUMPDEST SWAP1 POP PUSH1 0x0 PUSH2 0xF0B DUP3 DUP8 DUP8 DUP8 PUSH2 0x19C1 JUMP JUMPDEST SWAP1 POP DUP10 PUSH1 0x1 PUSH1 0x1 PUSH1 0xA0 SHL SUB AND DUP2 PUSH1 0x1 PUSH1 0x1 PUSH1 0xA0 SHL SUB AND EQ PUSH2 0xF6E JUMPI PUSH1 0x40 MLOAD PUSH3 0x461BCD PUSH1 0xE5 SHL DUP2 MSTORE PUSH1 0x20 PUSH1 0x4 DUP3 ADD MSTORE PUSH1 0x1E PUSH1 0x24 DUP3 ADD MSTORE PUSH32 0x45524332305065726D69743A20696E76616C6964207369676E61747572650000 PUSH1 0x44 DUP3 ADD MSTORE PUSH1 0x64 ADD PUSH2 0x5DD JUMP JUMPDEST PUSH2 0xF79 DUP11 DUP11 DUP11 PUSH2 0x1099 JUMP JUMPDEST POP POP POP POP POP POP POP POP POP POP JUMP JUMPDEST PUSH1 0x1 PUSH1 0x1 PUSH1 0xA0 SHL SUB SWAP2 DUP3 AND PUSH1 0x0 SWAP1 DUP2 MSTORE PUSH1 0x35 PUSH1 0x20 SWAP1 DUP2 MSTORE PUSH1 0x40 DUP1 DUP4 KECCAK256 SWAP4 SWAP1 SWAP5 AND DUP3 MSTORE SWAP2 SWAP1 SWAP2 MSTORE KECCAK256 SLOAD SWAP1 JUMP JUMPDEST PUSH1 0x0 PUSH2 0xFBD CALLER DUP5 DUP5 PUSH2 0x964 JUMP JUMPDEST SWAP4 SWAP3 POP POP POP JUMP JUMPDEST PUSH1 0x0 SLOAD PUSH1 0x40 DUP1 MLOAD DUP1 DUP3 ADD SWAP1 SWAP2 MSTORE PUSH1 0x2 DUP2 MSTORE PUSH2 0x333 PUSH1 0xF4 SHL PUSH1 0x20 DUP3 ADD MSTORE SWAP1 PUSH1 0x1 PUSH1 0x1 PUSH1 0xA0 SHL SUB AND CALLER EQ PUSH2 0x1009 JUMPI PUSH1 0x40 MLOAD PUSH3 0x461BCD PUSH1 0xE5 SHL DUP2 MSTORE PUSH1 0x4 ADD PUSH2 0x5DD SWAP2 SWAP1 PUSH2 0x1FC2 JUMP JUMPDEST POP PUSH1 0x40 DUP1 MLOAD DUP1 DUP3 ADD SWAP1 SWAP2 MSTORE PUSH1 0x2 DUP2 MSTORE PUSH2 0x3331 PUSH1 0xF0 SHL PUSH1 0x20 DUP3 ADD MSTORE PUSH1 0x1 PUSH1 0x1 PUSH1 0xA0 SHL SUB DUP3 AND PUSH2 0x104A JUMPI PUSH1 0x40 MLOAD PUSH3 0x461BCD PUSH1 0xE5 SHL DUP2 MSTORE PUSH1 0x4 ADD PUSH2 0x5DD SWAP2 SWAP1 PUSH2 0x1FC2 JUMP JUMPDEST POP PUSH1 0x1 DUP1 SLOAD PUSH1 0x1 PUSH1 0x1 PUSH1 0xA0 SHL SUB NOT AND PUSH1 0x1 PUSH1 0x1 PUSH1 0xA0 SHL SUB DUP4 AND SWAP1 DUP2 OR SWAP1 SWAP2 SSTORE PUSH1 0x40 MLOAD SWAP1 DUP2 MSTORE PUSH32 0x67235BA2E63C748A35B95C4F92A3BBC2A1389938170A5CE6C9ADD5D0B03A314A SWAP1 PUSH1 0x20 ADD PUSH2 0x712 JUMP JUMPDEST PUSH1 0x1 PUSH1 0x1 PUSH1 0xA0 SHL SUB DUP4 AND PUSH2 0x10FB JUMPI PUSH1 0x40 MLOAD PUSH3 0x461BCD PUSH1 0xE5 SHL DUP2 MSTORE PUSH1 0x20 PUSH1 0x4 DUP3 ADD MSTORE PUSH1 0x24 DUP1 DUP3 ADD MSTORE PUSH32 0x45524332303A20617070726F76652066726F6D20746865207A65726F20616464 PUSH1 0x44 DUP3 ADD MSTORE PUSH4 0x72657373 PUSH1 0xE0 SHL PUSH1 0x64 DUP3 ADD MSTORE PUSH1 0x84 ADD PUSH2 0x5DD JUMP JUMPDEST PUSH1 0x1 PUSH1 0x1 PUSH1 0xA0 SHL SUB DUP3 AND PUSH2 0x115C JUMPI PUSH1 0x40 MLOAD PUSH3 0x461BCD PUSH1 0xE5 SHL DUP2 MSTORE PUSH1 0x20 PUSH1 0x4 DUP3 ADD MSTORE PUSH1 0x22 PUSH1 0x24 DUP3 ADD MSTORE PUSH32 0x45524332303A20617070726F766520746F20746865207A65726F206164647265 PUSH1 0x44 DUP3 ADD MSTORE PUSH2 0x7373 PUSH1 0xF0 SHL PUSH1 0x64 DUP3 ADD MSTORE PUSH1 0x84 ADD PUSH2 0x5DD JUMP JUMPDEST PUSH1 0x1 PUSH1 0x1 PUSH1 0xA0 SHL SUB DUP4 DUP2 AND PUSH1 0x0 DUP2 DUP2 MSTORE PUSH1 0x35 PUSH1 0x20 SWAP1 DUP2 MSTORE PUSH1 0x40 DUP1 DUP4 KECCAK256 SWAP5 DUP8 AND DUP1 DUP5 MSTORE SWAP5 DUP3 MSTORE SWAP2 DUP3 SWAP1 KECCAK256 DUP6 SWAP1 SSTORE SWAP1 MLOAD DUP5 DUP2 MSTORE PUSH32 0x8C5BE1E5EBEC7D5BD14F71427D1E84F3DD0314C0F7B2291E5B200AC8C7C3B925 SWAP2 ADD JUMPDEST PUSH1 0x40 MLOAD DUP1 SWAP2 SUB SWAP1 LOG3 POP POP POP JUMP JUMPDEST PUSH1 0x40 DUP1 MLOAD DUP1 DUP3 ADD SWAP1 SWAP2 MSTORE PUSH1 0x2 DUP2 MSTORE PUSH2 0x3331 PUSH1 0xF0 SHL PUSH1 0x20 DUP3 ADD MSTORE PUSH1 0x1 PUSH1 0x1 PUSH1 0xA0 SHL SUB DUP6 AND PUSH2 0x11FE JUMPI PUSH1 0x40 MLOAD PUSH3 0x461BCD PUSH1 0xE5 SHL DUP2 MSTORE PUSH1 0x4 ADD PUSH2 0x5DD SWAP2 SWAP1 PUSH2 0x1FC2 JUMP JUMPDEST POP PUSH2 0x131 DUP1 SLOAD PUSH1 0x1 PUSH1 0x1 PUSH1 0xA0 SHL SUB NOT AND PUSH1 0x1 PUSH1 0x1 PUSH1 0xA0 SHL SUB DUP7 AND OR SWAP1 SSTORE NUMBER PUSH2 0x132 SSTORE PUSH2 0x1229 DUP4 PUSH2 0x18F9 JUMP JUMPDEST PUSH2 0x1233 DUP3 DUP3 PUSH2 0x19E9 JUMP JUMPDEST PUSH2 0x123C DUP3 PUSH2 0x1A1C JUMP JUMPDEST POP POP POP POP JUMP JUMPDEST PUSH1 0x0 PUSH2 0x124E DUP5 DUP5 PUSH2 0xF85 JUMP JUMPDEST SWAP1 POP PUSH1 0x0 NOT DUP2 EQ PUSH2 0x123C JUMPI DUP2 DUP2 LT ISZERO PUSH2 0x12A9 JUMPI PUSH1 0x40 MLOAD PUSH3 0x461BCD PUSH1 0xE5 SHL DUP2 MSTORE PUSH1 0x20 PUSH1 0x4 DUP3 ADD MSTORE PUSH1 0x1D PUSH1 0x24 DUP3 ADD MSTORE PUSH32 0x45524332303A20696E73756666696369656E7420616C6C6F77616E6365000000 PUSH1 0x44 DUP3 ADD MSTORE PUSH1 0x64 ADD PUSH2 0x5DD JUMP JUMPDEST PUSH2 0x123C DUP5 DUP5 DUP5 DUP5 SUB PUSH2 0x1099 JUMP JUMPDEST PUSH1 0x1 PUSH1 0x1 PUSH1 0xA0 SHL SUB DUP4 AND PUSH2 0x131A JUMPI PUSH1 0x40 MLOAD PUSH3 0x461BCD PUSH1 0xE5 SHL DUP2 MSTORE PUSH1 0x20 PUSH1 0x4 DUP3 ADD MSTORE PUSH1 0x25 PUSH1 0x24 DUP3 ADD MSTORE PUSH32 0x45524332303A207472616E736665722066726F6D20746865207A65726F206164 PUSH1 0x44 DUP3 ADD MSTORE PUSH5 0x6472657373 PUSH1 0xD8 SHL PUSH1 0x64 DUP3 ADD MSTORE PUSH1 0x84 ADD PUSH2 0x5DD JUMP JUMPDEST PUSH1 0x1 PUSH1 0x1 PUSH1 0xA0 SHL SUB DUP3 AND PUSH2 0x137C JUMPI PUSH1 0x40 MLOAD PUSH3 0x461BCD PUSH1 0xE5 SHL DUP2 MSTORE PUSH1 0x20 PUSH1 0x4 DUP3 ADD MSTORE PUSH1 0x23 PUSH1 0x24 DUP3 ADD MSTORE PUSH32 0x45524332303A207472616E7366657220746F20746865207A65726F2061646472 PUSH1 0x44 DUP3 ADD MSTORE PUSH3 0x657373 PUSH1 0xE8 SHL PUSH1 0x64 DUP3 ADD MSTORE PUSH1 0x84 ADD PUSH2 0x5DD JUMP JUMPDEST PUSH1 0x1 PUSH1 0x1 PUSH1 0xA0 SHL SUB DUP4 AND PUSH1 0x0 SWAP1 DUP2 MSTORE PUSH1 0x34 PUSH1 0x20 MSTORE PUSH1 0x40 SWAP1 KECCAK256 SLOAD DUP2 DUP2 LT ISZERO PUSH2 0x13F4 JUMPI PUSH1 0x40 MLOAD PUSH3 0x461BCD PUSH1 0xE5 SHL DUP2 MSTORE PUSH1 0x20 PUSH1 0x4 DUP3 ADD MSTORE PUSH1 0x26 PUSH1 0x24 DUP3 ADD MSTORE PUSH32 0x45524332303A207472616E7366657220616D6F756E7420657863656564732062 PUSH1 0x44 DUP3 ADD MSTORE PUSH6 0x616C616E6365 PUSH1 0xD0 SHL PUSH1 0x64 DUP3 ADD MSTORE PUSH1 0x84 ADD PUSH2 0x5DD JUMP JUMPDEST PUSH1 0x1 PUSH1 0x1 PUSH1 0xA0 SHL SUB DUP1 DUP6 AND PUSH1 0x0 DUP2 DUP2 MSTORE PUSH1 0x34 PUSH1 0x20 MSTORE PUSH1 0x40 DUP1 DUP3 KECCAK256 DUP7 DUP7 SUB SWAP1 SSTORE SWAP3 DUP7 AND DUP1 DUP3 MSTORE SWAP1 DUP4 SWAP1 KECCAK256 DUP1 SLOAD DUP7 ADD SWAP1 SSTORE SWAP2 MLOAD PUSH32 0xDDF252AD1BE2C89B69C2B068FC378DAA952BA7F163C4A11628F55A4DF523B3EF SWAP1 PUSH2 0x1454 SWAP1 DUP7 DUP2 MSTORE PUSH1 0x20 ADD SWAP1 JUMP JUMPDEST PUSH1 0x40 MLOAD DUP1 SWAP2 SUB SWAP1 LOG3 PUSH2 0x123C JUMP JUMPDEST PUSH1 0x0 PUSH2 0x7B0 PUSH32 0x8B73C3C69BB8FE3D512ECC4CF759CC79239F7B179B0FFACAA9A75D522B39400F PUSH2 0x1490 PUSH1 0x66 SLOAD SWAP1 JUMP JUMPDEST PUSH1 0x67 SLOAD PUSH1 0x40 DUP1 MLOAD PUSH1 0x20 DUP2 ADD DUP6 SWAP1 MSTORE SWAP1 DUP2 ADD DUP4 SWAP1 MSTORE PUSH1 0x60 DUP2 ADD DUP3 SWAP1 MSTORE CHAINID PUSH1 0x80 DUP3 ADD MSTORE ADDRESS PUSH1 0xA0 DUP3 ADD MSTORE PUSH1 0x0 SWAP1 PUSH1 0xC0 ADD PUSH1 0x40 MLOAD PUSH1 0x20 DUP2 DUP4 SUB SUB DUP2 MSTORE SWAP1 PUSH1 0x40 MSTORE DUP1 MLOAD SWAP1 PUSH1 0x20 ADD KECCAK256 SWAP1 POP SWAP4 SWAP3 POP POP POP JUMP JUMPDEST PUSH1 0x0 DUP1 PUSH2 0x14E7 PUSH2 0xD99 JUMP JUMPDEST SWAP1 POP PUSH1 0x0 PUSH2 0x14F4 PUSH1 0x36 SLOAD SWAP1 JUMP JUMPDEST SWAP1 POP DUP1 PUSH1 0x0 SUB PUSH2 0x150F JUMPI POP PUSH8 0xDE0B6B3A7640000 SWAP4 SWAP3 POP POP POP JUMP JUMPDEST DUP4 PUSH2 0x1523 JUMPI PUSH2 0x151E DUP3 DUP3 PUSH2 0x1722 JUMP JUMPDEST PUSH2 0x152D JUMP JUMPDEST PUSH2 0x152D DUP3 DUP3 PUSH2 0x1A6B JUMP JUMPDEST SWAP5 SWAP4 POP POP POP POP JUMP JUMPDEST PUSH1 0x0 DUP1 PUSH2 0x1542 DUP4 DUP6 PUSH2 0x24BD JUMP JUMPDEST SWAP1 POP PUSH2 0x152D PUSH8 0xDE0B6B3A7640000 DUP3 PUSH2 0x24EA JUMP JUMPDEST PUSH1 0x1 PUSH1 0x1 PUSH1 0xA0 SHL SUB DUP3 AND PUSH2 0x15B6 JUMPI PUSH1 0x40 MLOAD PUSH3 0x461BCD PUSH1 0xE5 SHL DUP2 MSTORE PUSH1 0x20 PUSH1 0x4 DUP3 ADD MSTORE PUSH1 0x21 PUSH1 0x24 DUP3 ADD MSTORE PUSH32 0x45524332303A206275726E2066726F6D20746865207A65726F20616464726573 PUSH1 0x44 DUP3 ADD MSTORE PUSH1 0x73 PUSH1 0xF8 SHL PUSH1 0x64 DUP3 ADD MSTORE PUSH1 0x84 ADD PUSH2 0x5DD JUMP JUMPDEST PUSH1 0x1 PUSH1 0x1 PUSH1 0xA0 SHL SUB DUP3 AND PUSH1 0x0 SWAP1 DUP2 MSTORE PUSH1 0x34 PUSH1 0x20 MSTORE PUSH1 0x40 SWAP1 KECCAK256 SLOAD DUP2 DUP2 LT ISZERO PUSH2 0x162A JUMPI PUSH1 0x40 MLOAD PUSH3 0x461BCD PUSH1 0xE5 SHL DUP2 MSTORE PUSH1 0x20 PUSH1 0x4 DUP3 ADD MSTORE PUSH1 0x22 PUSH1 0x24 DUP3 ADD MSTORE PUSH32 0x45524332303A206275726E20616D6F756E7420657863656564732062616C616E PUSH1 0x44 DUP3 ADD MSTORE PUSH2 0x6365 PUSH1 0xF0 SHL PUSH1 0x64 DUP3 ADD MSTORE PUSH1 0x84 ADD PUSH2 0x5DD JUMP JUMPDEST PUSH1 0x1 PUSH1 0x1 PUSH1 0xA0 SHL SUB DUP4 AND PUSH1 0x0 DUP2 DUP2 MSTORE PUSH1 0x34 PUSH1 0x20 SWAP1 DUP2 MSTORE PUSH1 0x40 DUP1 DUP4 KECCAK256 DUP7 DUP7 SUB SWAP1 SSTORE PUSH1 0x36 DUP1 SLOAD DUP8 SWAP1 SUB SWAP1 SSTORE MLOAD DUP6 DUP2 MSTORE SWAP2 SWAP3 SWAP2 PUSH32 0xDDF252AD1BE2C89B69C2B068FC378DAA952BA7F163C4A11628F55A4DF523B3EF SWAP2 ADD PUSH2 0x11B1 JUMP JUMPDEST POP POP POP JUMP JUMPDEST PUSH1 0x40 MLOAD PUSH1 0x1 PUSH1 0x1 PUSH1 0xA0 SHL SUB DUP4 AND PUSH1 0x24 DUP3 ADD MSTORE PUSH1 0x44 DUP2 ADD DUP3 SWAP1 MSTORE PUSH2 0x1682 SWAP1 DUP5 SWAP1 PUSH4 0xA9059CBB PUSH1 0xE0 SHL SWAP1 PUSH1 0x64 ADD JUMPDEST PUSH1 0x40 DUP1 MLOAD PUSH1 0x1F NOT DUP2 DUP5 SUB ADD DUP2 MSTORE SWAP2 SWAP1 MSTORE PUSH1 0x20 DUP2 ADD DUP1 MLOAD PUSH1 0x1 PUSH1 0x1 PUSH1 0xE0 SHL SUB AND PUSH1 0x1 PUSH1 0x1 PUSH1 0xE0 SHL SUB NOT SWAP1 SWAP4 AND SWAP3 SWAP1 SWAP3 OR SWAP1 SWAP2 MSTORE PUSH2 0x1AEA JUMP JUMPDEST PUSH1 0x40 MLOAD PUSH1 0x1 PUSH1 0x1 PUSH1 0xA0 SHL SUB DUP1 DUP6 AND PUSH1 0x24 DUP4 ADD MSTORE DUP4 AND PUSH1 0x44 DUP3 ADD MSTORE PUSH1 0x64 DUP2 ADD DUP3 SWAP1 MSTORE PUSH2 0x123C SWAP1 DUP6 SWAP1 PUSH4 0x23B872DD PUSH1 0xE0 SHL SWAP1 PUSH1 0x84 ADD PUSH2 0x16B3 JUMP JUMPDEST PUSH1 0x40 DUP1 MLOAD DUP1 DUP3 ADD SWAP1 SWAP2 MSTORE PUSH1 0x2 DUP2 MSTORE PUSH2 0x3235 PUSH1 0xF0 SHL PUSH1 0x20 DUP3 ADD MSTORE PUSH1 0x0 SWAP1 DUP3 PUSH2 0x175C JUMPI PUSH1 0x40 MLOAD PUSH3 0x461BCD PUSH1 0xE5 SHL DUP2 MSTORE PUSH1 0x4 ADD PUSH2 0x5DD SWAP2 SWAP1 PUSH2 0x1FC2 JUMP JUMPDEST POP DUP3 PUSH1 0x0 SUB PUSH2 0x176D JUMPI POP PUSH1 0x0 PUSH2 0x575 JUMP JUMPDEST PUSH1 0x0 PUSH2 0x1781 PUSH8 0xDE0B6B3A7640000 DUP6 PUSH2 0x24BD JUMP JUMPDEST SWAP1 POP PUSH2 0x178D DUP4 DUP3 PUSH2 0x24EA JUMP JUMPDEST SWAP2 POP POP PUSH2 0x575 JUMP JUMPDEST PUSH1 0x0 PUSH1 0x8 PUSH2 0x17A1 PUSH2 0x741 JUMP JUMPDEST PUSH1 0xFF AND GT PUSH2 0x17AF JUMPI POP PUSH1 0xA SWAP1 JUMP JUMPDEST POP PUSH2 0x3E8 SWAP1 JUMP JUMPDEST PUSH1 0x1 PUSH1 0x1 PUSH1 0xA0 SHL SUB DUP3 AND PUSH2 0x180C JUMPI PUSH1 0x40 MLOAD PUSH3 0x461BCD PUSH1 0xE5 SHL DUP2 MSTORE PUSH1 0x20 PUSH1 0x4 DUP3 ADD MSTORE PUSH1 0x1F PUSH1 0x24 DUP3 ADD MSTORE PUSH32 0x45524332303A206D696E7420746F20746865207A65726F206164647265737300 PUSH1 0x44 DUP3 ADD MSTORE PUSH1 0x64 ADD PUSH2 0x5DD JUMP JUMPDEST DUP1 PUSH1 0x36 PUSH1 0x0 DUP3 DUP3 SLOAD PUSH2 0x181E SWAP2 SWAP1 PUSH2 0x2409 JUMP JUMPDEST SWAP1 SWAP2 SSTORE POP POP PUSH1 0x1 PUSH1 0x1 PUSH1 0xA0 SHL SUB DUP3 AND PUSH1 0x0 DUP2 DUP2 MSTORE PUSH1 0x34 PUSH1 0x20 SWAP1 DUP2 MSTORE PUSH1 0x40 DUP1 DUP4 KECCAK256 DUP1 SLOAD DUP7 ADD SWAP1 SSTORE MLOAD DUP5 DUP2 MSTORE PUSH32 0xDDF252AD1BE2C89B69C2B068FC378DAA952BA7F163C4A11628F55A4DF523B3EF SWAP2 ADD PUSH1 0x40 MLOAD DUP1 SWAP2 SUB SWAP1 LOG3 POP POP JUMP JUMPDEST PUSH1 0x40 MLOAD PUSH4 0x21F8A721 PUSH1 0xE0 SHL DUP2 MSTORE PUSH20 0x524154455F4D414E414745525F41444452455353 PUSH1 0x60 SHL PUSH1 0x4 DUP3 ADD MSTORE PUSH1 0x0 SWAP1 PUSH1 0x1 PUSH1 0x1 PUSH1 0xA0 SHL SUB DUP4 AND SWAP1 PUSH4 0x21F8A721 SWAP1 PUSH1 0x24 ADD PUSH1 0x20 PUSH1 0x40 MLOAD DUP1 DUP4 SUB DUP2 DUP7 GAS STATICCALL ISZERO DUP1 ISZERO PUSH2 0x18D5 JUMPI RETURNDATASIZE PUSH1 0x0 DUP1 RETURNDATACOPY RETURNDATASIZE PUSH1 0x0 REVERT JUMPDEST POP POP POP POP PUSH1 0x40 MLOAD RETURNDATASIZE PUSH1 0x1F NOT PUSH1 0x1F DUP3 ADD AND DUP3 ADD DUP1 PUSH1 0x40 MSTORE POP DUP2 ADD SWAP1 PUSH2 0x575 SWAP2 SWAP1 PUSH2 0x250C JUMP JUMPDEST PUSH1 0x0 DUP1 SLOAD PUSH1 0x1 PUSH1 0x1 PUSH1 0xA0 SHL SUB NOT AND PUSH1 0x1 PUSH1 0x1 PUSH1 0xA0 SHL SUB DUP4 AND SWAP1 DUP2 OR DUP3 SSTORE PUSH1 0x40 DUP1 MLOAD SWAP3 DUP4 MSTORE PUSH1 0x20 DUP4 ADD SWAP2 SWAP1 SWAP2 MSTORE PUSH32 0xDE4B3F61490B74C0ED6237523974FE299126BBBF8A8A7482FD220104C59B0C84 SWAP2 ADD PUSH2 0x712 JUMP JUMPDEST PUSH1 0x1 PUSH1 0x1 PUSH1 0xA0 SHL SUB DUP2 AND PUSH1 0x0 SWAP1 DUP2 MSTORE PUSH1 0x9A PUSH1 0x20 MSTORE PUSH1 0x40 SWAP1 KECCAK256 DUP1 SLOAD PUSH1 0x1 DUP2 ADD DUP3 SSTORE SWAP1 PUSH2 0xCB0 JUMP JUMPDEST PUSH1 0x0 PUSH2 0x575 PUSH2 0x1980 PUSH2 0x1461 JUMP JUMPDEST DUP4 PUSH1 0x40 MLOAD PUSH2 0x1901 PUSH1 0xF0 SHL PUSH1 0x20 DUP3 ADD MSTORE PUSH1 0x22 DUP2 ADD DUP4 SWAP1 MSTORE PUSH1 0x42 DUP2 ADD DUP3 SWAP1 MSTORE PUSH1 0x0 SWAP1 PUSH1 0x62 ADD PUSH1 0x40 MLOAD PUSH1 0x20 DUP2 DUP4 SUB SUB DUP2 MSTORE SWAP1 PUSH1 0x40 MSTORE DUP1 MLOAD SWAP1 PUSH1 0x20 ADD KECCAK256 SWAP1 POP SWAP3 SWAP2 POP POP JUMP JUMPDEST PUSH1 0x0 DUP1 PUSH1 0x0 PUSH2 0x19D2 DUP8 DUP8 DUP8 DUP8 PUSH2 0x1BBC JUMP JUMPDEST SWAP2 POP SWAP2 POP PUSH2 0x19DF DUP2 PUSH2 0x1C80 JUMP JUMPDEST POP SWAP6 SWAP5 POP POP POP POP POP JUMP JUMPDEST PUSH1 0x1 SLOAD PUSH1 0x1 PUSH1 0xA8 SHL SWAP1 DIV PUSH1 0xFF AND PUSH2 0x1A12 JUMPI PUSH1 0x40 MLOAD PUSH3 0x461BCD PUSH1 0xE5 SHL DUP2 MSTORE PUSH1 0x4 ADD PUSH2 0x5DD SWAP1 PUSH2 0x2529 JUMP JUMPDEST PUSH2 0xD95 DUP3 DUP3 PUSH2 0x1DCA JUMP JUMPDEST PUSH1 0x1 SLOAD PUSH1 0x1 PUSH1 0xA8 SHL SWAP1 DIV PUSH1 0xFF AND PUSH2 0x1A45 JUMPI PUSH1 0x40 MLOAD PUSH3 0x461BCD PUSH1 0xE5 SHL DUP2 MSTORE PUSH1 0x4 ADD PUSH2 0x5DD SWAP1 PUSH2 0x2529 JUMP JUMPDEST PUSH2 0x1A68 DUP2 PUSH1 0x40 MLOAD DUP1 PUSH1 0x40 ADD PUSH1 0x40 MSTORE DUP1 PUSH1 0x1 DUP2 MSTORE PUSH1 0x20 ADD PUSH1 0x31 PUSH1 0xF8 SHL DUP2 MSTORE POP PUSH2 0x1E0C JUMP JUMPDEST POP JUMP JUMPDEST PUSH1 0x40 DUP1 MLOAD DUP1 DUP3 ADD SWAP1 SWAP2 MSTORE PUSH1 0x2 DUP2 MSTORE PUSH2 0x3235 PUSH1 0xF0 SHL PUSH1 0x20 DUP3 ADD MSTORE PUSH1 0x0 SWAP1 DUP3 PUSH2 0x1AA5 JUMPI PUSH1 0x40 MLOAD PUSH3 0x461BCD PUSH1 0xE5 SHL DUP2 MSTORE PUSH1 0x4 ADD PUSH2 0x5DD SWAP2 SWAP1 PUSH2 0x1FC2 JUMP JUMPDEST POP DUP3 PUSH1 0x0 SUB PUSH2 0x1AB6 JUMPI POP PUSH1 0x0 PUSH2 0x575 JUMP JUMPDEST PUSH1 0x0 PUSH2 0x1ACA PUSH8 0xDE0B6B3A7640000 DUP6 PUSH2 0x24BD JUMP JUMPDEST SWAP1 POP DUP3 PUSH1 0x1 DUP3 SUB DUP2 PUSH2 0x1ADE JUMPI PUSH2 0x1ADE PUSH2 0x24D4 JUMP JUMPDEST DIV PUSH1 0x1 ADD SWAP2 POP POP PUSH2 0x575 JUMP JUMPDEST PUSH1 0x0 PUSH2 0x1B3F DUP3 PUSH1 0x40 MLOAD DUP1 PUSH1 0x40 ADD PUSH1 0x40 MSTORE DUP1 PUSH1 0x20 DUP2 MSTORE PUSH1 0x20 ADD PUSH32 0x5361666545524332303A206C6F772D6C6576656C2063616C6C206661696C6564 DUP2 MSTORE POP DUP6 PUSH1 0x1 PUSH1 0x1 PUSH1 0xA0 SHL SUB AND PUSH2 0x1E4F SWAP1 SWAP3 SWAP2 SWAP1 PUSH4 0xFFFFFFFF AND JUMP JUMPDEST DUP1 MLOAD SWAP1 SWAP2 POP ISZERO PUSH2 0x1682 JUMPI DUP1 DUP1 PUSH1 0x20 ADD SWAP1 MLOAD DUP2 ADD SWAP1 PUSH2 0x1B5D SWAP2 SWAP1 PUSH2 0x2574 JUMP JUMPDEST PUSH2 0x1682 JUMPI PUSH1 0x40 MLOAD PUSH3 0x461BCD PUSH1 0xE5 SHL DUP2 MSTORE PUSH1 0x20 PUSH1 0x4 DUP3 ADD MSTORE PUSH1 0x2A PUSH1 0x24 DUP3 ADD MSTORE PUSH32 0x5361666545524332303A204552433230206F7065726174696F6E20646964206E PUSH1 0x44 DUP3 ADD MSTORE PUSH10 0x1BDD081CDD58D8D95959 PUSH1 0xB2 SHL PUSH1 0x64 DUP3 ADD MSTORE PUSH1 0x84 ADD PUSH2 0x5DD JUMP JUMPDEST PUSH1 0x0 DUP1 PUSH32 0x7FFFFFFFFFFFFFFFFFFFFFFFFFFFFFFF5D576E7357A4501DDFE92F46681B20A0 DUP4 GT ISZERO PUSH2 0x1BF3 JUMPI POP PUSH1 0x0 SWAP1 POP PUSH1 0x3 PUSH2 0x1C77 JUMP JUMPDEST PUSH1 0x40 DUP1 MLOAD PUSH1 0x0 DUP1 DUP3 MSTORE PUSH1 0x20 DUP3 ADD DUP1 DUP5 MSTORE DUP10 SWAP1 MSTORE PUSH1 0xFF DUP9 AND SWAP3 DUP3 ADD SWAP3 SWAP1 SWAP3 MSTORE PUSH1 0x60 DUP2 ADD DUP7 SWAP1 MSTORE PUSH1 0x80 DUP2 ADD DUP6 SWAP1 MSTORE PUSH1 0x1 SWAP1 PUSH1 0xA0 ADD PUSH1 0x20 PUSH1 0x40 MLOAD PUSH1 0x20 DUP2 SUB SWAP1 DUP1 DUP5 SUB SWAP1 DUP6 GAS STATICCALL ISZERO DUP1 ISZERO PUSH2 0x1C47 JUMPI RETURNDATASIZE PUSH1 0x0 DUP1 RETURNDATACOPY RETURNDATASIZE PUSH1 0x0 REVERT JUMPDEST POP POP PUSH1 0x40 MLOAD PUSH1 0x1F NOT ADD MLOAD SWAP2 POP POP PUSH1 0x1 PUSH1 0x1 PUSH1 0xA0 SHL SUB DUP2 AND PUSH2 0x1C70 JUMPI PUSH1 0x0 PUSH1 0x1 SWAP3 POP SWAP3 POP POP PUSH2 0x1C77 JUMP JUMPDEST SWAP2 POP PUSH1 0x0 SWAP1 POP JUMPDEST SWAP5 POP SWAP5 SWAP3 POP POP POP JUMP JUMPDEST PUSH1 0x0 DUP2 PUSH1 0x4 DUP2 GT ISZERO PUSH2 0x1C94 JUMPI PUSH2 0x1C94 PUSH2 0x21C2 JUMP JUMPDEST SUB PUSH2 0x1C9C JUMPI POP JUMP JUMPDEST PUSH1 0x1 DUP2 PUSH1 0x4 DUP2 GT ISZERO PUSH2 0x1CB0 JUMPI PUSH2 0x1CB0 PUSH2 0x21C2 JUMP JUMPDEST SUB PUSH2 0x1CFD JUMPI PUSH1 0x40 MLOAD PUSH3 0x461BCD PUSH1 0xE5 SHL DUP2 MSTORE PUSH1 0x20 PUSH1 0x4 DUP3 ADD MSTORE PUSH1 0x18 PUSH1 0x24 DUP3 ADD MSTORE PUSH32 0x45434453413A20696E76616C6964207369676E61747572650000000000000000 PUSH1 0x44 DUP3 ADD MSTORE PUSH1 0x64 ADD PUSH2 0x5DD JUMP JUMPDEST PUSH1 0x2 DUP2 PUSH1 0x4 DUP2 GT ISZERO PUSH2 0x1D11 JUMPI PUSH2 0x1D11 PUSH2 0x21C2 JUMP JUMPDEST SUB PUSH2 0x1D5E JUMPI PUSH1 0x40 MLOAD PUSH3 0x461BCD PUSH1 0xE5 SHL DUP2 MSTORE PUSH1 0x20 PUSH1 0x4 DUP3 ADD MSTORE PUSH1 0x1F PUSH1 0x24 DUP3 ADD MSTORE PUSH32 0x45434453413A20696E76616C6964207369676E6174757265206C656E67746800 PUSH1 0x44 DUP3 ADD MSTORE PUSH1 0x64 ADD PUSH2 0x5DD JUMP JUMPDEST PUSH1 0x3 DUP2 PUSH1 0x4 DUP2 GT ISZERO PUSH2 0x1D72 JUMPI PUSH2 0x1D72 PUSH2 0x21C2 JUMP JUMPDEST SUB PUSH2 0x1A68 JUMPI PUSH1 0x40 MLOAD PUSH3 0x461BCD PUSH1 0xE5 SHL DUP2 MSTORE PUSH1 0x20 PUSH1 0x4 DUP3 ADD MSTORE PUSH1 0x22 PUSH1 0x24 DUP3 ADD MSTORE PUSH32 0x45434453413A20696E76616C6964207369676E6174757265202773272076616C PUSH1 0x44 DUP3 ADD MSTORE PUSH2 0x7565 PUSH1 0xF0 SHL PUSH1 0x64 DUP3 ADD MSTORE PUSH1 0x84 ADD PUSH2 0x5DD JUMP JUMPDEST PUSH1 0x1 SLOAD PUSH1 0x1 PUSH1 0xA8 SHL SWAP1 DIV PUSH1 0xFF AND PUSH2 0x1DF3 JUMPI PUSH1 0x40 MLOAD PUSH3 0x461BCD PUSH1 0xE5 SHL DUP2 MSTORE PUSH1 0x4 ADD PUSH2 0x5DD SWAP1 PUSH2 0x2529 JUMP JUMPDEST PUSH1 0x37 PUSH2 0x1DFF DUP4 DUP3 PUSH2 0x25E4 JUMP JUMPDEST POP PUSH1 0x38 PUSH2 0x1682 DUP3 DUP3 PUSH2 0x25E4 JUMP JUMPDEST PUSH1 0x1 SLOAD PUSH1 0x1 PUSH1 0xA8 SHL SWAP1 DIV PUSH1 0xFF AND PUSH2 0x1E35 JUMPI PUSH1 0x40 MLOAD PUSH3 0x461BCD PUSH1 0xE5 SHL DUP2 MSTORE PUSH1 0x4 ADD PUSH2 0x5DD SWAP1 PUSH2 0x2529 JUMP JUMPDEST DUP2 MLOAD PUSH1 0x20 SWAP3 DUP4 ADD KECCAK256 DUP2 MLOAD SWAP2 SWAP1 SWAP3 ADD KECCAK256 PUSH1 0x66 SWAP2 SWAP1 SWAP2 SSTORE PUSH1 0x67 SSTORE JUMP JUMPDEST PUSH1 0x60 PUSH2 0x152D DUP5 DUP5 PUSH1 0x0 DUP6 DUP6 PUSH1 0x0 DUP1 DUP7 PUSH1 0x1 PUSH1 0x1 PUSH1 0xA0 SHL SUB AND DUP6 DUP8 PUSH1 0x40 MLOAD PUSH2 0x1E76 SWAP2 SWAP1 PUSH2 0x26A4 JUMP JUMPDEST PUSH1 0x0 PUSH1 0x40 MLOAD DUP1 DUP4 SUB DUP2 DUP6 DUP8 GAS CALL SWAP3 POP POP POP RETURNDATASIZE DUP1 PUSH1 0x0 DUP2 EQ PUSH2 0x1EB3 JUMPI PUSH1 0x40 MLOAD SWAP2 POP PUSH1 0x1F NOT PUSH1 0x3F RETURNDATASIZE ADD AND DUP3 ADD PUSH1 0x40 MSTORE RETURNDATASIZE DUP3 MSTORE RETURNDATASIZE PUSH1 0x0 PUSH1 0x20 DUP5 ADD RETURNDATACOPY PUSH2 0x1EB8 JUMP JUMPDEST PUSH1 0x60 SWAP2 POP JUMPDEST POP SWAP2 POP SWAP2 POP PUSH2 0x1EC9 DUP8 DUP4 DUP4 DUP8 PUSH2 0x1ED4 JUMP JUMPDEST SWAP8 SWAP7 POP POP POP POP POP POP POP JUMP JUMPDEST PUSH1 0x60 DUP4 ISZERO PUSH2 0x1F43 JUMPI DUP3 MLOAD PUSH1 0x0 SUB PUSH2 0x1F3C JUMPI PUSH1 0x1 PUSH1 0x1 PUSH1 0xA0 SHL SUB DUP6 AND EXTCODESIZE PUSH2 0x1F3C JUMPI PUSH1 0x40 MLOAD PUSH3 0x461BCD PUSH1 0xE5 SHL DUP2 MSTORE PUSH1 0x20 PUSH1 0x4 DUP3 ADD MSTORE PUSH1 0x1D PUSH1 0x24 DUP3 ADD MSTORE PUSH32 0x416464726573733A2063616C6C20746F206E6F6E2D636F6E7472616374000000 PUSH1 0x44 DUP3 ADD MSTORE PUSH1 0x64 ADD PUSH2 0x5DD JUMP JUMPDEST POP DUP2 PUSH2 0x152D JUMP JUMPDEST PUSH2 0x152D DUP4 DUP4 DUP2 MLOAD ISZERO PUSH2 0x1F58 JUMPI DUP2 MLOAD DUP1 DUP4 PUSH1 0x20 ADD REVERT JUMPDEST DUP1 PUSH1 0x40 MLOAD PUSH3 0x461BCD PUSH1 0xE5 SHL DUP2 MSTORE PUSH1 0x4 ADD PUSH2 0x5DD SWAP2 SWAP1 PUSH2 0x1FC2 JUMP JUMPDEST PUSH1 0x0 JUMPDEST DUP4 DUP2 LT ISZERO PUSH2 0x1F8D JUMPI DUP2 DUP2 ADD MLOAD DUP4 DUP3 ADD MSTORE PUSH1 0x20 ADD PUSH2 0x1F75 JUMP JUMPDEST POP POP PUSH1 0x0 SWAP2 ADD MSTORE JUMP JUMPDEST PUSH1 0x0 DUP2 MLOAD DUP1 DUP5 MSTORE PUSH2 0x1FAE DUP2 PUSH1 0x20 DUP7 ADD PUSH1 0x20 DUP7 ADD PUSH2 0x1F72 JUMP JUMPDEST PUSH1 0x1F ADD PUSH1 0x1F NOT AND SWAP3 SWAP1 SWAP3 ADD PUSH1 0x20 ADD SWAP3 SWAP2 POP POP JUMP JUMPDEST PUSH1 0x20 DUP2 MSTORE PUSH1 0x0 PUSH2 0xFBD PUSH1 0x20 DUP4 ADD DUP5 PUSH2 0x1F96 JUMP JUMPDEST PUSH1 0x1 PUSH1 0x1 PUSH1 0xA0 SHL SUB DUP2 AND DUP2 EQ PUSH2 0x1A68 JUMPI PUSH1 0x0 DUP1 REVERT JUMPDEST PUSH1 0x0 DUP1 PUSH1 0x40 DUP4 DUP6 SUB SLT ISZERO PUSH2 0x1FFD JUMPI PUSH1 0x0 DUP1 REVERT JUMPDEST DUP3 CALLDATALOAD PUSH2 0x2008 DUP2 PUSH2 0x1FD5 JUMP JUMPDEST SWAP5 PUSH1 0x20 SWAP4 SWAP1 SWAP4 ADD CALLDATALOAD SWAP4 POP POP POP JUMP JUMPDEST PUSH4 0x4E487B71 PUSH1 0xE0 SHL PUSH1 0x0 MSTORE PUSH1 0x41 PUSH1 0x4 MSTORE PUSH1 0x24 PUSH1 0x0 REVERT JUMPDEST PUSH1 0x0 DUP3 PUSH1 0x1F DUP4 ADD SLT PUSH2 0x203D JUMPI PUSH1 0x0 DUP1 REVERT JUMPDEST DUP2 CALLDATALOAD PUSH8 0xFFFFFFFFFFFFFFFF DUP1 DUP3 GT ISZERO PUSH2 0x2058 JUMPI PUSH2 0x2058 PUSH2 0x2016 JUMP JUMPDEST PUSH1 0x40 MLOAD PUSH1 0x1F DUP4 ADD PUSH1 0x1F NOT SWAP1 DUP2 AND PUSH1 0x3F ADD AND DUP2 ADD SWAP1 DUP3 DUP3 GT DUP2 DUP4 LT OR ISZERO PUSH2 0x2080 JUMPI PUSH2 0x2080 PUSH2 0x2016 JUMP JUMPDEST DUP2 PUSH1 0x40 MSTORE DUP4 DUP2 MSTORE DUP7 PUSH1 0x20 DUP6 DUP9 ADD ADD GT ISZERO PUSH2 0x2099 JUMPI PUSH1 0x0 DUP1 REVERT JUMPDEST DUP4 PUSH1 0x20 DUP8 ADD PUSH1 0x20 DUP4 ADD CALLDATACOPY PUSH1 0x0 PUSH1 0x20 DUP6 DUP4 ADD ADD MSTORE DUP1 SWAP5 POP POP POP POP POP SWAP3 SWAP2 POP POP JUMP JUMPDEST PUSH1 0x0 DUP1 PUSH1 0x0 DUP1 PUSH1 0x80 DUP6 DUP8 SUB SLT ISZERO PUSH2 0x20CF JUMPI PUSH1 0x0 DUP1 REVERT JUMPDEST DUP5 CALLDATALOAD PUSH2 0x20DA DUP2 PUSH2 0x1FD5 JUMP JUMPDEST SWAP4 POP PUSH1 0x20 DUP6 ADD CALLDATALOAD PUSH2 0x20EA DUP2 PUSH2 0x1FD5 JUMP JUMPDEST SWAP3 POP PUSH1 0x40 DUP6 ADD CALLDATALOAD PUSH8 0xFFFFFFFFFFFFFFFF DUP1 DUP3 GT ISZERO PUSH2 0x2107 JUMPI PUSH1 0x0 DUP1 REVERT JUMPDEST PUSH2 0x2113 DUP9 DUP4 DUP10 ADD PUSH2 0x202C JUMP JUMPDEST SWAP4 POP PUSH1 0x60 DUP8 ADD CALLDATALOAD SWAP2 POP DUP1 DUP3 GT ISZERO PUSH2 0x2129 JUMPI PUSH1 0x0 DUP1 REVERT JUMPDEST POP PUSH2 0x2136 DUP8 DUP3 DUP9 ADD PUSH2 0x202C JUMP JUMPDEST SWAP2 POP POP SWAP3 SWAP6 SWAP2 SWAP5 POP SWAP3 POP JUMP JUMPDEST PUSH1 0x0 DUP1 PUSH1 0x0 PUSH1 0x60 DUP5 DUP7 SUB SLT ISZERO PUSH2 0x2157 JUMPI PUSH1 0x0 DUP1 REVERT JUMPDEST DUP4 CALLDATALOAD PUSH2 0x2162 DUP2 PUSH2 0x1FD5 JUMP JUMPDEST SWAP3 POP PUSH1 0x20 DUP5 ADD CALLDATALOAD PUSH2 0x2172 DUP2 PUSH2 0x1FD5 JUMP JUMPDEST SWAP3 SWAP6 SWAP3 SWAP5 POP POP POP PUSH1 0x40 SWAP2 SWAP1 SWAP2 ADD CALLDATALOAD SWAP1 JUMP JUMPDEST PUSH1 0x0 PUSH1 0x20 DUP3 DUP5 SUB SLT ISZERO PUSH2 0x2195 JUMPI PUSH1 0x0 DUP1 REVERT JUMPDEST DUP2 CALLDATALOAD PUSH2 0xFBD DUP2 PUSH2 0x1FD5 JUMP JUMPDEST PUSH1 0x0 DUP1 PUSH1 0x40 DUP4 DUP6 SUB SLT ISZERO PUSH2 0x21B3 JUMPI PUSH1 0x0 DUP1 REVERT JUMPDEST POP POP DUP1 CALLDATALOAD SWAP3 PUSH1 0x20 SWAP1 SWAP2 ADD CALLDATALOAD SWAP2 POP JUMP JUMPDEST PUSH4 0x4E487B71 PUSH1 0xE0 SHL PUSH1 0x0 MSTORE PUSH1 0x21 PUSH1 0x4 MSTORE PUSH1 0x24 PUSH1 0x0 REVERT JUMPDEST PUSH1 0x20 DUP2 ADD PUSH1 0x5 DUP4 LT PUSH2 0x21FA JUMPI PUSH4 0x4E487B71 PUSH1 0xE0 SHL PUSH1 0x0 MSTORE PUSH1 0x21 PUSH1 0x4 MSTORE PUSH1 0x24 PUSH1 0x0 REVERT JUMPDEST SWAP2 SWAP1 MSTORE SWAP1 JUMP JUMPDEST PUSH1 0x0 DUP1 PUSH1 0x0 PUSH1 0x60 DUP5 DUP7 SUB SLT ISZERO PUSH2 0x2215 JUMPI PUSH1 0x0 DUP1 REVERT JUMPDEST DUP4 CALLDATALOAD PUSH2 0x2220 DUP2 PUSH2 0x1FD5 JUMP JUMPDEST SWAP6 PUSH1 0x20 DUP6 ADD CALLDATALOAD SWAP6 POP PUSH1 0x40 SWAP1 SWAP5 ADD CALLDATALOAD SWAP4 SWAP3 POP POP POP JUMP JUMPDEST DUP3 DUP2 MSTORE PUSH1 0x40 PUSH1 0x20 DUP3 ADD MSTORE PUSH1 0x0 PUSH2 0x152D PUSH1 0x40 DUP4 ADD DUP5 PUSH2 0x1F96 JUMP JUMPDEST PUSH1 0x20 DUP1 DUP3 MSTORE DUP3 MLOAD DUP3 DUP3 ADD DUP2 SWAP1 MSTORE PUSH1 0x0 SWAP2 SWAP1 DUP5 DUP3 ADD SWAP1 PUSH1 0x40 DUP6 ADD SWAP1 DUP5 JUMPDEST DUP2 DUP2 LT ISZERO PUSH2 0x228F JUMPI DUP4 MLOAD PUSH1 0x1 PUSH1 0x1 PUSH1 0xA0 SHL SUB AND DUP4 MSTORE SWAP3 DUP5 ADD SWAP3 SWAP2 DUP5 ADD SWAP2 PUSH1 0x1 ADD PUSH2 0x226A JUMP JUMPDEST POP SWAP1 SWAP7 SWAP6 POP POP POP POP POP POP JUMP JUMPDEST PUSH1 0xFF DUP2 AND DUP2 EQ PUSH2 0x1A68 JUMPI PUSH1 0x0 DUP1 REVERT JUMPDEST PUSH1 0x0 DUP1 PUSH1 0x0 DUP1 PUSH1 0x0 DUP1 PUSH1 0x0 PUSH1 0xE0 DUP9 DUP11 SUB SLT ISZERO PUSH2 0x22C5 JUMPI PUSH1 0x0 DUP1 REVERT JUMPDEST DUP8 CALLDATALOAD PUSH2 0x22D0 DUP2 PUSH2 0x1FD5 JUMP JUMPDEST SWAP7 POP PUSH1 0x20 DUP9 ADD CALLDATALOAD PUSH2 0x22E0 DUP2 PUSH2 0x1FD5 JUMP JUMPDEST SWAP6 POP PUSH1 0x40 DUP9 ADD CALLDATALOAD SWAP5 POP PUSH1 0x60 DUP9 ADD CALLDATALOAD SWAP4 POP PUSH1 0x80 DUP9 ADD CALLDATALOAD PUSH2 0x22FE DUP2 PUSH2 0x229B JUMP JUMPDEST SWAP7 SWAP10 SWAP6 SWAP9 POP SWAP4 SWAP7 SWAP3 SWAP6 SWAP5 PUSH1 0xA0 DUP5 ADD CALLDATALOAD SWAP5 POP PUSH1 0xC0 SWAP1 SWAP4 ADD CALLDATALOAD SWAP3 SWAP2 POP POP JUMP JUMPDEST PUSH1 0x0 DUP1 PUSH1 0x40 DUP4 DUP6 SUB SLT ISZERO PUSH2 0x232E JUMPI PUSH1 0x0 DUP1 REVERT JUMPDEST DUP3 CALLDATALOAD PUSH2 0x2339 DUP2 PUSH2 0x1FD5 JUMP JUMPDEST SWAP2 POP PUSH1 0x20 DUP4 ADD CALLDATALOAD PUSH2 0x2349 DUP2 PUSH2 0x1FD5 JUMP JUMPDEST DUP1 SWAP2 POP POP SWAP3 POP SWAP3 SWAP1 POP JUMP JUMPDEST PUSH1 0x1 DUP2 DUP2 SHR SWAP1 DUP3 AND DUP1 PUSH2 0x2368 JUMPI PUSH1 0x7F DUP3 AND SWAP2 POP JUMPDEST PUSH1 0x20 DUP3 LT DUP2 SUB PUSH2 0xCB0 JUMPI PUSH4 0x4E487B71 PUSH1 0xE0 SHL PUSH1 0x0 MSTORE PUSH1 0x22 PUSH1 0x4 MSTORE PUSH1 0x24 PUSH1 0x0 REVERT JUMPDEST PUSH1 0x20 DUP1 DUP3 MSTORE PUSH1 0x2E SWAP1 DUP3 ADD MSTORE PUSH32 0x496E697469616C697A61626C653A20636F6E747261637420697320616C726561 PUSH1 0x40 DUP3 ADD MSTORE PUSH14 0x191E481A5B9A5D1A585B1A5E9959 PUSH1 0x92 SHL PUSH1 0x60 DUP3 ADD MSTORE PUSH1 0x80 ADD SWAP1 JUMP JUMPDEST PUSH1 0x0 PUSH1 0x20 DUP3 DUP5 SUB SLT ISZERO PUSH2 0x23E8 JUMPI PUSH1 0x0 DUP1 REVERT JUMPDEST DUP2 MLOAD PUSH2 0xFBD DUP2 PUSH2 0x229B JUMP JUMPDEST PUSH4 0x4E487B71 PUSH1 0xE0 SHL PUSH1 0x0 MSTORE PUSH1 0x11 PUSH1 0x4 MSTORE PUSH1 0x24 PUSH1 0x0 REVERT JUMPDEST DUP1 DUP3 ADD DUP1 DUP3 GT ISZERO PUSH2 0x575 JUMPI PUSH2 0x575 PUSH2 0x23F3 JUMP JUMPDEST DUP2 DUP2 SUB DUP2 DUP2 GT ISZERO PUSH2 0x575 JUMPI PUSH2 0x575 PUSH2 0x23F3 JUMP JUMPDEST PUSH1 0x0 PUSH1 0x40 DUP3 DUP5 SUB SLT ISZERO PUSH2 0x2441 JUMPI PUSH1 0x0 DUP1 REVERT JUMPDEST PUSH1 0x40 MLOAD PUSH1 0x40 DUP2 ADD DUP2 DUP2 LT PUSH8 0xFFFFFFFFFFFFFFFF DUP3 GT OR ISZERO PUSH2 0x2464 JUMPI PUSH2 0x2464 PUSH2 0x2016 JUMP JUMPDEST PUSH1 0x40 MSTORE DUP3 MLOAD PUSH2 0x2472 DUP2 PUSH2 0x1FD5 JUMP JUMPDEST DUP2 MSTORE PUSH1 0x20 DUP4 ADD MLOAD PUSH2 0x2482 DUP2 PUSH2 0x1FD5 JUMP JUMPDEST PUSH1 0x20 DUP3 ADD MSTORE SWAP4 SWAP3 POP POP POP JUMP JUMPDEST PUSH4 0x4E487B71 PUSH1 0xE0 SHL PUSH1 0x0 MSTORE PUSH1 0x32 PUSH1 0x4 MSTORE PUSH1 0x24 PUSH1 0x0 REVERT JUMPDEST PUSH1 0x0 PUSH1 0x20 DUP3 DUP5 SUB SLT ISZERO PUSH2 0x24B6 JUMPI PUSH1 0x0 DUP1 REVERT JUMPDEST POP MLOAD SWAP2 SWAP1 POP JUMP JUMPDEST DUP1 DUP3 MUL DUP2 ISZERO DUP3 DUP3 DIV DUP5 EQ OR PUSH2 0x575 JUMPI PUSH2 0x575 PUSH2 0x23F3 JUMP JUMPDEST PUSH4 0x4E487B71 PUSH1 0xE0 SHL PUSH1 0x0 MSTORE PUSH1 0x12 PUSH1 0x4 MSTORE PUSH1 0x24 PUSH1 0x0 REVERT JUMPDEST PUSH1 0x0 DUP3 PUSH2 0x2507 JUMPI PUSH4 0x4E487B71 PUSH1 0xE0 SHL PUSH1 0x0 MSTORE PUSH1 0x12 PUSH1 0x4 MSTORE PUSH1 0x24 PUSH1 0x0 REVERT JUMPDEST POP DIV SWAP1 JUMP JUMPDEST PUSH1 0x0 PUSH1 0x20 DUP3 DUP5 SUB SLT ISZERO PUSH2 0x251E JUMPI PUSH1 0x0 DUP1 REVERT JUMPDEST DUP2 MLOAD PUSH2 0xFBD DUP2 PUSH2 0x1FD5 JUMP JUMPDEST PUSH1 0x20 DUP1 DUP3 MSTORE PUSH1 0x2B SWAP1 DUP3 ADD MSTORE PUSH32 0x496E697469616C697A61626C653A20636F6E7472616374206973206E6F742069 PUSH1 0x40 DUP3 ADD MSTORE PUSH11 0x6E697469616C697A696E67 PUSH1 0xA8 SHL PUSH1 0x60 DUP3 ADD MSTORE PUSH1 0x80 ADD SWAP1 JUMP JUMPDEST PUSH1 0x0 PUSH1 0x20 DUP3 DUP5 SUB SLT ISZERO PUSH2 0x2586 JUMPI PUSH1 0x0 DUP1 REVERT JUMPDEST DUP2 MLOAD DUP1 ISZERO ISZERO DUP2 EQ PUSH2 0xFBD JUMPI PUSH1 0x0 DUP1 REVERT JUMPDEST PUSH1 0x1F DUP3 GT ISZERO PUSH2 0x1682 JUMPI PUSH1 0x0 DUP2 DUP2 MSTORE PUSH1 0x20 DUP2 KECCAK256 PUSH1 0x1F DUP6 ADD PUSH1 0x5 SHR DUP2 ADD PUSH1 0x20 DUP7 LT ISZERO PUSH2 0x25BD JUMPI POP DUP1 JUMPDEST PUSH1 0x1F DUP6 ADD PUSH1 0x5 SHR DUP3 ADD SWAP2 POP JUMPDEST DUP2 DUP2 LT ISZERO PUSH2 0x25DC JUMPI DUP3 DUP2 SSTORE PUSH1 0x1 ADD PUSH2 0x25C9 JUMP JUMPDEST POP POP POP POP POP POP JUMP JUMPDEST DUP2 MLOAD PUSH8 0xFFFFFFFFFFFFFFFF DUP2 GT ISZERO PUSH2 0x25FE JUMPI PUSH2 0x25FE PUSH2 0x2016 JUMP JUMPDEST PUSH2 0x2612 DUP2 PUSH2 0x260C DUP5 SLOAD PUSH2 0x2354 JUMP JUMPDEST DUP5 PUSH2 0x2596 JUMP JUMPDEST PUSH1 0x20 DUP1 PUSH1 0x1F DUP4 GT PUSH1 0x1 DUP2 EQ PUSH2 0x2647 JUMPI PUSH1 0x0 DUP5 ISZERO PUSH2 0x262F JUMPI POP DUP6 DUP4 ADD MLOAD JUMPDEST PUSH1 0x0 NOT PUSH1 0x3 DUP7 SWAP1 SHL SHR NOT AND PUSH1 0x1 DUP6 SWAP1 SHL OR DUP6 SSTORE PUSH2 0x25DC JUMP JUMPDEST PUSH1 0x0 DUP6 DUP2 MSTORE PUSH1 0x20 DUP2 KECCAK256 PUSH1 0x1F NOT DUP7 AND SWAP2 JUMPDEST DUP3 DUP2 LT ISZERO PUSH2 0x2676 JUMPI DUP9 DUP7 ADD MLOAD DUP3 SSTORE SWAP5 DUP5 ADD SWAP5 PUSH1 0x1 SWAP1 SWAP2 ADD SWAP1 DUP5 ADD PUSH2 0x2657 JUMP JUMPDEST POP DUP6 DUP3 LT ISZERO PUSH2 0x2694 JUMPI DUP8 DUP6 ADD MLOAD PUSH1 0x0 NOT PUSH1 0x3 DUP9 SWAP1 SHL PUSH1 0xF8 AND SHR NOT AND DUP2 SSTORE JUMPDEST POP POP POP POP POP PUSH1 0x1 SWAP1 DUP2 SHL ADD SWAP1 SSTORE POP JUMP JUMPDEST PUSH1 0x0 DUP3 MLOAD PUSH2 0x26B6 DUP2 DUP5 PUSH1 0x20 DUP8 ADD PUSH2 0x1F72 JUMP JUMPDEST SWAP2 SWAP1 SWAP2 ADD SWAP3 SWAP2 POP POP JUMP INVALID LOG2 PUSH5 0x6970667358 0x22 SLT KECCAK256 PUSH30 0xF183057955D0A58E39CE2F4BB127225790A94E5671323F279C1E580EB3EC 0xCA PUSH5 0x736F6C6343 STOP ADDMOD GT STOP CALLER ","sha1":"ec7eee35ce70604962651a63677c783b257eb01b","source":"// SPDX-License-Identifier: LicenseRef-Gyro-1.0\n// for information on licensing please see the README in the GitHub repository <https://github.com/gyrostable/core-protocol>.\npragma solidity ^0.8.4;\n\nimport \"./BaseVault.sol\";\nimport \"../../libraries/ConfigHelpers.sol\";\nimport \"../../interfaces/oracles/IRateManager.sol\";\n\ncontract GenericVault is BaseVault {\n    using ConfigHelpers for IGyroConfig;\n\n    constructor(address _config) BaseVault(_config) {}\n\n    function initialize(\n        address _underlying,\n        address governor,\n        string memory name,\n        string memory symbol\n    ) external virtual initializer {\n        __BaseVault_initialize(_underlying, governor, name, symbol);\n    }\n\n    /// @inheritdoc IGyroVault\n    function vaultType() external view virtual override returns (Vaults.Type) {\n        return Vaults.Type.GENERIC;\n    }\n\n    /// @inheritdoc IGyroVault\n    function getTokens() external view virtual override returns (IERC20[] memory) {\n        IERC20[] memory tokens = new IERC20[](1);\n        IRateManager.RateProviderInfo memory providerInfo = gyroConfig\n            .getRateManager()\n            .getProviderInfo(underlying);\n        if (providerInfo.underlying != address(0)) {\n            tokens[0] = IERC20(providerInfo.underlying);\n        } else {\n            tokens[0] = IERC20(underlying);\n        }\n        return tokens;\n    }\n}\n","sourcePath":"contracts/vaults/GenericVault.sol","type":"contract","deployment":{"address":"0x80eCF3d96446AB3abAF3D037d1b352bb41295176","chainid":"1","blockHeight":18685039}}