{"abi":[{"inputs":[{"internalType":"address","name":"governor","type":"address"},{"internalType":"address","name":"_gyroConfig","type":"address"}],"stateMutability":"nonpayable","type":"constructor","name":"constructor"},{"anonymous":false,"inputs":[{"indexed":true,"internalType":"address","name":"account","type":"address"}],"name":"AddedToWhitelist","type":"event"},{"anonymous":false,"inputs":[{"indexed":false,"internalType":"address","name":"newGovernor","type":"address"}],"name":"GovernorChangeRequested","type":"event"},{"anonymous":false,"inputs":[{"indexed":false,"internalType":"address","name":"oldGovernor","type":"address"},{"indexed":false,"internalType":"address","name":"newGovernor","type":"address"}],"name":"GovernorChanged","type":"event"},{"anonymous":false,"inputs":[{"indexed":false,"internalType":"address","name":"vaultAddress","type":"address"},{"indexed":false,"internalType":"uint256","name":"durationOfProtectionInBlocks","type":"uint256"},{"indexed":false,"internalType":"bool","name":"inFlows","type":"bool"}],"name":"OracleGuardianActivated","type":"event"},{"anonymous":false,"inputs":[{"indexed":true,"internalType":"address","name":"account","type":"address"}],"name":"RemovedFromWhitelist","type":"event"},{"anonymous":false,"inputs":[{"indexed":false,"internalType":"string","name":"err","type":"string"}],"name":"SafetyStatus","type":"event"},{"inputs":[],"name":"THRESHOLD_BUFFER","outputs":[{"internalType":"uint256","name":"","type":"uint256"}],"stateMutability":"view","type":"function"},{"inputs":[],"name":"acceptGovernance","outputs":[],"stateMutability":"nonpayable","type":"function"},{"inputs":[{"components":[{"internalType":"address","name":"vaultAddress","type":"address"},{"internalType":"enum DataTypes.Direction","name":"direction","type":"uint8"}],"internalType":"struct DataTypes.GuardedVaults","name":"vaultToProtect","type":"tuple"},{"internalType":"uint256","name":"blocks","type":"uint256"}],"name":"activateOracleGuardian","outputs":[],"stateMutability":"nonpayable","type":"function"},{"inputs":[{"internalType":"address","name":"_addressToAdd","type":"address"}],"name":"addAddressToWhitelist","outputs":[],"stateMutability":"nonpayable","type":"function"},{"inputs":[{"internalType":"address","name":"newGovernor","type":"address"}],"name":"changeGovernor","outputs":[],"stateMutability":"nonpayable","type":"function"},{"inputs":[{"components":[{"components":[{"components":[{"internalType":"address","name":"vault","type":"address"},{"internalType":"uint8","name":"decimals","type":"uint8"},{"internalType":"address","name":"underlying","type":"address"},{"internalType":"uint256","name":"price","type":"uint256"},{"components":[{"internalType":"uint256","name":"priceAtCalibration","type":"uint256"},{"internalType":"uint256","name":"weightAtCalibration","type":"uint256"},{"internalType":"uint256","name":"shortFlowMemory","type":"uint256"},{"internalType":"uint256","name":"shortFlowThreshold","type":"uint256"},{"internalType":"uint64","name":"weightTransitionDuration","type":"uint64"},{"internalType":"uint64","name":"weightAtPreviousCalibration","type":"uint64"},{"internalType":"uint64","name":"timeOfCalibration","type":"uint64"}],"internalType":"struct DataTypes.PersistedVaultMetadata","name":"persistedMetadata","type":"tuple"},{"internalType":"uint256","name":"reserveBalance","type":"uint256"},{"internalType":"uint256","name":"currentWeight","type":"uint256"},{"internalType":"uint256","name":"targetWeight","type":"uint256"},{"components":[{"internalType":"address","name":"tokenAddress","type":"address"},{"internalType":"bool","name":"isStable","type":"bool"},{"internalType":"uint256","name":"price","type":"uint256"},{"components":[{"internalType":"uint256","name":"floor","type":"uint256"},{"internalType":"uint256","name":"ceiling","type":"uint256"}],"internalType":"struct DataTypes.Range","name":"priceRange","type":"tuple"}],"internalType":"struct DataTypes.PricedToken[]","name":"pricedTokens","type":"tuple[]"}],"internalType":"struct DataTypes.VaultInfo","name":"vaultInfo","type":"tuple"},{"internalType":"uint256","name":"amount","type":"uint256"}],"internalType":"struct DataTypes.VaultWithAmount[]","name":"vaultsWithAmount","type":"tuple[]"},{"internalType":"bool","name":"mint","type":"bool"}],"internalType":"struct DataTypes.Order","name":"order","type":"tuple"}],"name":"checkAndPersistMint","outputs":[],"stateMutability":"nonpayable","type":"function"},{"inputs":[{"components":[{"components":[{"components":[{"internalType":"address","name":"vault","type":"address"},{"internalType":"uint8","name":"decimals","type":"uint8"},{"internalType":"address","name":"underlying","type":"address"},{"internalType":"uint256","name":"price","type":"uint256"},{"components":[{"internalType":"uint256","name":"priceAtCalibration","type":"uint256"},{"internalType":"uint256","name":"weightAtCalibration","type":"uint256"},{"internalType":"uint256","name":"shortFlowMemory","type":"uint256"},{"internalType":"uint256","name":"shortFlowThreshold","type":"uint256"},{"internalType":"uint64","name":"weightTransitionDuration","type":"uint64"},{"internalType":"uint64","name":"weightAtPreviousCalibration","type":"uint64"},{"internalType":"uint64","name":"timeOfCalibration","type":"uint64"}],"internalType":"struct DataTypes.PersistedVaultMetadata","name":"persistedMetadata","type":"tuple"},{"internalType":"uint256","name":"reserveBalance","type":"uint256"},{"internalType":"uint256","name":"currentWeight","type":"uint256"},{"internalType":"uint256","name":"targetWeight","type":"uint256"},{"components":[{"internalType":"address","name":"tokenAddress","type":"address"},{"internalType":"bool","name":"isStable","type":"bool"},{"internalType":"uint256","name":"price","type":"uint256"},{"components":[{"internalType":"uint256","name":"floor","type":"uint256"},{"internalType":"uint256","name":"ceiling","type":"uint256"}],"internalType":"struct DataTypes.Range","name":"priceRange","type":"tuple"}],"internalType":"struct DataTypes.PricedToken[]","name":"pricedTokens","type":"tuple[]"}],"internalType":"struct DataTypes.VaultInfo","name":"vaultInfo","type":"tuple"},{"internalType":"uint256","name":"amount","type":"uint256"}],"internalType":"struct DataTypes.VaultWithAmount[]","name":"vaultsWithAmount","type":"tuple[]"},{"internalType":"bool","name":"mint","type":"bool"}],"internalType":"struct DataTypes.Order","name":"order","type":"tuple"}],"name":"checkAndPersistRedeem","outputs":[],"stateMutability":"nonpayable","type":"function"},{"inputs":[],"name":"getAllPersistedFlowData","outputs":[{"components":[{"components":[{"internalType":"uint128","name":"shortFlow","type":"uint128"},{"internalType":"uint64","name":"lastSafetyBlock","type":"uint64"},{"internalType":"uint64","name":"lastSeenBlock","type":"uint64"}],"internalType":"struct DataTypes.DirectionalFlowData","name":"inFlow","type":"tuple"},{"components":[{"internalType":"uint128","name":"shortFlow","type":"uint128"},{"internalType":"uint64","name":"lastSafetyBlock","type":"uint64"},{"internalType":"uint64","name":"lastSeenBlock","type":"uint64"}],"internalType":"struct DataTypes.DirectionalFlowData","name":"outFlow","type":"tuple"}],"internalType":"struct DataTypes.FlowData[]","name":"","type":"tuple[]"}],"stateMutability":"view","type":"function"},{"inputs":[],"name":"getWhitelist","outputs":[{"internalType":"address[]","name":"","type":"address[]"}],"stateMutability":"view","type":"function"},{"inputs":[],"name":"governor","outputs":[{"internalType":"address","name":"","type":"address"}],"stateMutability":"view","type":"function"},{"inputs":[],"name":"gyroConfig","outputs":[{"internalType":"contract IGyroConfig","name":"","type":"address"}],"stateMutability":"view","type":"function"},{"inputs":[{"components":[{"components":[{"components":[{"internalType":"address","name":"vault","type":"address"},{"internalType":"uint8","name":"decimals","type":"uint8"},{"internalType":"address","name":"underlying","type":"address"},{"internalType":"uint256","name":"price","type":"uint256"},{"components":[{"internalType":"uint256","name":"priceAtCalibration","type":"uint256"},{"internalType":"uint256","name":"weightAtCalibration","type":"uint256"},{"internalType":"uint256","name":"shortFlowMemory","type":"uint256"},{"internalType":"uint256","name":"shortFlowThreshold","type":"uint256"},{"internalType":"uint64","name":"weightTransitionDuration","type":"uint64"},{"internalType":"uint64","name":"weightAtPreviousCalibration","type":"uint64"},{"internalType":"uint64","name":"timeOfCalibration","type":"uint64"}],"internalType":"struct DataTypes.PersistedVaultMetadata","name":"persistedMetadata","type":"tuple"},{"internalType":"uint256","name":"reserveBalance","type":"uint256"},{"internalType":"uint256","name":"currentWeight","type":"uint256"},{"internalType":"uint256","name":"targetWeight","type":"uint256"},{"components":[{"internalType":"address","name":"tokenAddress","type":"address"},{"internalType":"bool","name":"isStable","type":"bool"},{"internalType":"uint256","name":"price","type":"uint256"},{"components":[{"internalType":"uint256","name":"floor","type":"uint256"},{"internalType":"uint256","name":"ceiling","type":"uint256"}],"internalType":"struct DataTypes.Range","name":"priceRange","type":"tuple"}],"internalType":"struct DataTypes.PricedToken[]","name":"pricedTokens","type":"tuple[]"}],"internalType":"struct DataTypes.VaultInfo","name":"vaultInfo","type":"tuple"},{"internalType":"uint256","name":"amount","type":"uint256"}],"internalType":"struct DataTypes.VaultWithAmount[]","name":"vaultsWithAmount","type":"tuple[]"},{"internalType":"bool","name":"mint","type":"bool"}],"internalType":"struct DataTypes.Order","name":"order","type":"tuple"}],"name":"isMintSafe","outputs":[{"internalType":"string","name":"err","type":"string"}],"stateMutability":"view","type":"function"},{"inputs":[{"components":[{"components":[{"components":[{"internalType":"address","name":"vault","type":"address"},{"internalType":"uint8","name":"decimals","type":"uint8"},{"internalType":"address","name":"underlying","type":"address"},{"internalType":"uint256","name":"price","type":"uint256"},{"components":[{"internalType":"uint256","name":"priceAtCalibration","type":"uint256"},{"internalType":"uint256","name":"weightAtCalibration","type":"uint256"},{"internalType":"uint256","name":"shortFlowMemory","type":"uint256"},{"internalType":"uint256","name":"shortFlowThreshold","type":"uint256"},{"internalType":"uint64","name":"weightTransitionDuration","type":"uint64"},{"internalType":"uint64","name":"weightAtPreviousCalibration","type":"uint64"},{"internalType":"uint64","name":"timeOfCalibration","type":"uint64"}],"internalType":"struct DataTypes.PersistedVaultMetadata","name":"persistedMetadata","type":"tuple"},{"internalType":"uint256","name":"reserveBalance","type":"uint256"},{"internalType":"uint256","name":"currentWeight","type":"uint256"},{"internalType":"uint256","name":"targetWeight","type":"uint256"},{"components":[{"internalType":"address","name":"tokenAddress","type":"address"},{"internalType":"bool","name":"isStable","type":"bool"},{"internalType":"uint256","name":"price","type":"uint256"},{"components":[{"internalType":"uint256","name":"floor","type":"uint256"},{"internalType":"uint256","name":"ceiling","type":"uint256"}],"internalType":"struct DataTypes.Range","name":"priceRange","type":"tuple"}],"internalType":"struct DataTypes.PricedToken[]","name":"pricedTokens","type":"tuple[]"}],"internalType":"struct DataTypes.VaultInfo","name":"vaultInfo","type":"tuple"},{"internalType":"uint256","name":"amount","type":"uint256"}],"internalType":"struct DataTypes.VaultWithAmount[]","name":"vaultsWithAmount","type":"tuple[]"},{"internalType":"bool","name":"mint","type":"bool"}],"internalType":"struct DataTypes.Order","name":"order","type":"tuple"}],"name":"isRedeemSafe","outputs":[{"internalType":"string","name":"err","type":"string"}],"stateMutability":"view","type":"function"},{"inputs":[{"internalType":"bool","name":"depositsOnly","type":"bool"}],"name":"pauseProtocol","outputs":[],"stateMutability":"nonpayable","type":"function"},{"inputs":[],"name":"pendingGovernor","outputs":[{"internalType":"address","name":"","type":"address"}],"stateMutability":"view","type":"function"},{"inputs":[{"internalType":"address","name":"","type":"address"}],"name":"persistedFlowData","outputs":[{"components":[{"internalType":"uint128","name":"shortFlow","type":"uint128"},{"internalType":"uint64","name":"lastSafetyBlock","type":"uint64"},{"internalType":"uint64","name":"lastSeenBlock","type":"uint64"}],"internalType":"struct DataTypes.DirectionalFlowData","name":"inFlow","type":"tuple"},{"components":[{"internalType":"uint128","name":"shortFlow","type":"uint128"},{"internalType":"uint64","name":"lastSafetyBlock","type":"uint64"},{"internalType":"uint64","name":"lastSeenBlock","type":"uint64"}],"internalType":"struct DataTypes.DirectionalFlowData","name":"outFlow","type":"tuple"}],"stateMutability":"view","type":"function"},{"inputs":[{"internalType":"address","name":"_addressToRemove","type":"address"}],"name":"removeAddressFromWhitelist","outputs":[],"stateMutability":"nonpayable","type":"function"}],"bytecode":"60a06040523480156200001157600080fd5b506040516200219a3803806200219a8339810160408190526200003491620000be565b600080546001600160a01b0319166001600160a01b038416908117825560408051928352602083019190915283917fde4b3f61490b74c0ed6237523974fe299126bbbf8a8a7482fd220104c59b0c84910160405180910390a1506001600160a01b031660805250620000f6565b80516001600160a01b0381168114620000b957600080fd5b919050565b60008060408385031215620000d257600080fd5b620000dd83620000a1565b9150620000ed60208401620000a1565b90509250929050565b608051612057620001436000396000818161024b01528181610321015281816106410152818161087201528181610afd01528181610be30152818161119a015261132b01526120576000f3fe608060405234801561001057600080fd5b506004361061010b5760003560e01c8063489c8b8e116100a2578063d01f63f511610071578063d01f63f5146102bb578063e3056a34146102d0578063e4c0aaf4146102e3578063ef2933ec146102f6578063fc283b861461030957600080fd5b8063489c8b8e1461026d57806359a047e9146102825780637b9417c8146102955780639109b8a3146102a857600080fd5b8063238efcbc116100de578063238efcbc1461019257806325aeb0921461019a578063286dd3f51461023357806344bbdb551461024657600080fd5b806305d76b9d146101105780630bdf8d22146101255780630c340a24146101475780631c46e99914610172575b600080fd5b61012361011e366004611aaa565b61031c565b005b610134670b1a2bc2ec50000081565b6040519081526020015b60405180910390f35b60005461015a906001600160a01b031681565b6040516001600160a01b03909116815260200161013e565b610185610180366004611aaa565b61048a565b60405161013e9190611c95565b6101236104ff565b6102256101a8366004611ce3565b60046020908152600091825260409182902082516060808201855282546001600160801b0380821684526001600160401b03600160801b808404821686890152600160c01b938490048216868a01528851948501895260019096015491821684529481048516958301959095529093049091169282019290925282565b60405161013e929190611d31565b610123610241366004611ce3565b6105af565b61015a7f000000000000000000000000000000000000000000000000000000000000000081565b610275610638565b60405161013e9190611d4c565b610123610290366004611aaa565b61086d565b6101236102a3366004611ce3565b61092c565b6101856102b6366004611aaa565b6109b5565b6102c36109ca565b60405161013e9190611dad565b60015461015a906001600160a01b031681565b6101236102f1366004611ce3565b6109db565b610123610304366004611dee565b610ab0565b610123610317366004611e09565b610ccd565b61034e7f00000000000000000000000000000000000000000000000000000000000000006001600160a01b0316610d1d565b6001600160a01b0316336001600160a01b03161460405180604001604052806002815260200161033360f41b815250906103a45760405162461bcd60e51b815260040161039b9190611c95565b60405180910390fd5b50806020015160405180604001604052806002815260200161333160f01b815250906103e35760405162461bcd60e51b815260040161039b9190611c95565b506000806103f083610daf565b815191935091501561047b57604080518082019091526002815261363160f01b6020820152610420908390611051565b15610461577f135e6dd29efa875112189add0769ed7f19cd6db71eefe10bf040c499f5aab344826040516104549190611c95565b60405180910390a161047b565b8160405162461bcd60e51b815260040161039b9190611c95565b610485838261107b565b505050565b606081602001516104e15761049e82610daf565b50604080518082019091526002815261363160f01b60208201529091506104c6908290611051565b156104dc57506040805160208101909152600081525b919050565b5050604080518082019091526002815261333160f01b602082015290565b600154604080518082019091526002815261033360f41b6020820152906001600160a01b031633146105445760405162461bcd60e51b815260040161039b9190611c95565b5060008054600180546001600160a01b03198084166001600160a01b03808416919091179095551690556040805192909116808352336020840152917fde4b3f61490b74c0ed6237523974fe299126bbbf8a8a7482fd220104c59b0c8491015b60405180910390a150565b600054604080518082019091526002815261033360f41b6020820152906001600160a01b031633146105f45760405162461bcd60e51b815260040161039b9190611c95565b50610600600282611255565b506040516001600160a01b038216907fcdd2e9b91a56913d370075169cefa1602ba36be5301664f752192bb1709df75790600090a250565b6060600061066e7f00000000000000000000000000000000000000000000000000000000000000006001600160a01b0316611271565b90506000816001600160a01b03166350cc258e6040518163ffffffff1660e01b8152600401600060405180830381865afa1580156106b0573d6000803e3d6000fd5b505050506040513d6000823e601f3d908101601f191682016040526106d89190810190611e66565b9050600081516001600160401b038111156106f5576106f5611806565b60405190808252806020026020018201604052801561077057816020015b61075d6040805160a0810182526000918101828152606082018390526080820192909252908190815260408051606081018252600080825260208281018290529282015291015290565b8152602001906001900390816107135790505b50905060005b8251811015610865576004600084838151811061079557610795611eff565b6020908102919091018101516001600160a01b03168252818101929092526040908101600020815160a08101835281546001600160801b038082168386019081526001600160401b03600160801b8085048216606080880191909152600160c01b95869004831660808801529286528751928301885260019096015492831682529482048516818801529190049092169282019290925291810191909152825183908390811061084757610847611eff565b6020026020010181905250808061085d90611f2b565b915050610776565b509392505050565b61089f7f00000000000000000000000000000000000000000000000000000000000000006001600160a01b0316610d1d565b6001600160a01b0316336001600160a01b03161460405180604001604052806002815260200161033360f41b815250906108ec5760405162461bcd60e51b815260040161039b9190611c95565b5080602001511560405180604001604052806002815260200161333160f01b815250906103e35760405162461bcd60e51b815260040161039b9190611c95565b600054604080518082019091526002815261033360f41b6020820152906001600160a01b031633146109715760405162461bcd60e51b815260040161039b9190611c95565b5061097d6002826112b9565b506040516001600160a01b038216907fa850ae9193f515cbae8d35e8925bd2be26627fc91bce650b8652ed254e9cab0390600090a250565b60608160200151156104e15761049e82610daf565b60606109d660026112ce565b905090565b600054604080518082019091526002815261033360f41b6020820152906001600160a01b03163314610a205760405162461bcd60e51b815260040161039b9190611c95565b50604080518082019091526002815261333160f01b60208201526001600160a01b038216610a615760405162461bcd60e51b815260040161039b9190611c95565b50600180546001600160a01b0319166001600160a01b0383169081179091556040519081527f67235ba2e63c748a35b95c4f92a3bbc2a1389938170a5ce6c9add5d0b03a314a906020016105a4565b33610abc6002826112db565b60405180604001604052806002815260200161033360f41b81525090610af55760405162461bcd60e51b815260040161039b9190611c95565b506000610b2a7f00000000000000000000000000000000000000000000000000000000000000006001600160a01b0316611271565b90506000816001600160a01b03166350cc258e6040518163ffffffff1660e01b8152600401600060405180830381865afa158015610b6c573d6000803e3d6000fd5b505050506040513d6000823e601f3d908101601f19168201604052610b949190810190611e66565b9050600084610ba4576002610ba7565b60005b60405163bd02d0f560e01b81527529a0a322aa2cafa12627a1a5a9afa3aaa0a92224a0a760511b60048201529091506000906001600160a01b037f0000000000000000000000000000000000000000000000000000000000000000169063bd02d0f590602401602060405180830381865afa158015610c2a573d6000803e3d6000fd5b505050506040513d601f19601f82011682018060405250810190610c4e9190611f44565b905060005b8351811015610cc45760006040518060400160405280868481518110610c7b57610c7b611eff565b60200260200101516001600160a01b03168152602001856002811115610ca357610ca3611f5d565b90529050610cb181846112fd565b5080610cbc81611f2b565b915050610c53565b50505050505050565b33610cd96002826112db565b60405180604001604052806002815260200161033360f41b81525090610d125760405162461bcd60e51b815260040161039b9190611c95565b5061048583836112fd565b6040516321f8a72160e01b81527f524f4f545f5341464554595f434845434b5f414444524553530000000000000060048201526000906001600160a01b038316906321f8a721906024015b602060405180830381865afa158015610d85573d6000803e3d6000fd5b505050506040513d601f19601f82011682018060405250810190610da99190611f73565b92915050565b6060808260000151516001600160401b03811115610dcf57610dcf611806565b604051908082528060200260200182016040528015610e1457816020015b6040805180820190915260008082526020820152815260200190600190039081610ded5790505b50905060005b83515181101561104b57600084600001518281518110610e3c57610e3c611eff565b6020026020010151602001519050600085600001518381518110610e6257610e62611eff565b6020908102919091018101515180516001600160a01b03166000908152600483526040808220815160608101835283815294850183905290840191909152909250908760200151610eb65781600101610eb8565b815b6040805160608101825291546001600160801b03811683526001600160401b03600160801b820481166020850152600160c01b909104169082015290508315801590610f11575080602001516001600160401b03164311155b15610f3c5760405180604001604052806002815260200161363560f01b81525096505050505061104b565b600083608001516060015190506000610f7983600001516001600160801b03164385604001516001600160401b031688608001516040015161156f565b610f839087611f90565b9050600086118015610f9457508181115b15610fc15760405180604001604052806002815260200161036360f41b815250985050505050505061104b565b6000610fd5670b1a2bc2ec500000846115f8565b821190508015610ffd5760405180604001604052806002815260200161363160f01b81525099505b604051806040016040528083815260200182151581525089898151811061102657611026611eff565b602002602001018190525050505050505050808061104390611f2b565b915050610e1a565b50915091565b6000815183511461106457506000610da9565b508051602091820120825192909101919091201490565b60005b825151811015610485576000836000015182815181106110a0576110a0611eff565b6020908102919091018101515180516001600160a01b0316600090815260048352604081209287015191935090156110d95750806110df565b50600181015b80546001600160c01b0316600160c01b436001600160401b031602178155845185908590811061111157611111611eff565b60209081029190910101515181546fffffffffffffffffffffffffffffffff19166001600160801b03909116178155845185908590811061115457611154611eff565b6020026020010151602001511561123f5760405163bd02d0f560e01b81527f5341464554595f424c4f434b535f4155544f4d4154494300000000000000000060048201527f00000000000000000000000000000000000000000000000000000000000000006001600160a01b03169063bd02d0f590602401602060405180830381865afa1580156111e9573d6000803e3d6000fd5b505050506040513d601f19601f8201168201806040525081019061120d9190611f44565b6112179043611f90565b81546001600160401b0391909116600160801b0267ffffffffffffffff60801b199091161781555b505050808061124d90611f2b565b91505061107e565b600061126a836001600160a01b038416611619565b9392505050565b6040516321f8a72160e01b8152755641554c545f52454749535452595f4144445245535360501b60048201526000906001600160a01b038316906321f8a72190602401610d68565b600061126a836001600160a01b03841661170c565b6060600061126a8361175b565b6001600160a01b0381166000908152600183016020526040812054151561126a565b60405163bd02d0f560e01b81527529a0a322aa2cafa12627a1a5a9afa3aaa0a92224a0a760511b60048201527f00000000000000000000000000000000000000000000000000000000000000006001600160a01b03169063bd02d0f590602401602060405180830381865afa15801561137a573d6000803e3d6000fd5b505050506040513d601f19601f8201168201806040525081019061139e9190611f44565b811115604051806040016040528060028152602001611b1960f11b815250906113da5760405162461bcd60e51b815260040161039b9190611c95565b5060006113e78243611f90565b905060008360200151600281111561140157611401611f5d565b1480611422575060028360200151600281111561142057611420611f5d565b145b156114aa5782516001600160a01b03908116600090815260046020908152604091829020805467ffffffffffffffff60801b1916600160801b6001600160401b03871602179055855182519316835282018490526001908201527fd3a9973922556aa8a1d3200840e7b0adc7851cb170484c2c7001999ae794abc49060600160405180910390a15b6001836020015160028111156114c2576114c2611f5d565b14806114e357506002836020015160028111156114e1576114e1611f5d565b145b156104855782516001600160a01b039081166000908152600460209081526040808320600101805467ffffffffffffffff60801b1916600160801b6001600160401b0388160217905586518151941684529083018590528201527fd3a9973922556aa8a1d3200840e7b0adc7851cb170484c2c7001999ae794abc49060600160405180910390a1505050565b60008383148061157d575084155b156115895750836115f0565b838310156115c057600061159d8486611fa3565b905060006115ab84836117b7565b90506115b787826115f8565b925050506115f0565b6040805180820182526002815261333160f01b6020820152905162461bcd60e51b815261039b9190600401611c95565b949350505050565b6000806116058385611fb6565b90506115f0670de0b6b3a764000082611fe3565b6000818152600183016020526040812054801561170257600061163d600183611fa3565b855490915060009061165190600190611fa3565b90508181146116b657600086600001828154811061167157611671611eff565b906000526020600020015490508087600001848154811061169457611694611eff565b6000918252602080832090910192909255918252600188019052604090208390555b85548690806116c7576116c7611ff7565b600190038181906000526020600020016000905590558560010160008681526020019081526020016000206000905560019350505050610da9565b6000915050610da9565b600081815260018301602052604081205461175357508154600181810184556000848152602080822090930184905584548482528286019093526040902091909155610da9565b506000610da9565b6060816000018054806020026020016040519081016040528092919081815260200182805480156117ab57602002820191906000526020600020905b815481526020019060010190808311611797575b50505050509050919050565b6000670de0b6b3a76400005b821561126a576117d460028461200d565b6001036117e8576117e581856115f8565b90505b6117f3600284611fe3565b92506117ff84856115f8565b93506117c3565b634e487b7160e01b600052604160045260246000fd5b604051608081016001600160401b038111828210171561183e5761183e611806565b60405290565b604080519081016001600160401b038111828210171561183e5761183e611806565b60405161012081016001600160401b038111828210171561183e5761183e611806565b604051601f8201601f191681016001600160401b03811182821017156118b1576118b1611806565b604052919050565b60006001600160401b038211156118d2576118d2611806565b5060051b60200190565b6001600160a01b03811681146118f157600080fd5b50565b80356104dc816118dc565b803560ff811681146104dc57600080fd5b80356001600160401b03811681146104dc57600080fd5b600060e0828403121561193957600080fd5b60405160e081018181106001600160401b038211171561195b5761195b611806565b80604052508091508235815260208301356020820152604083013560408201526060830135606082015261199160808401611910565b60808201526119a260a08401611910565b60a08201526119b360c08401611910565b60c08201525092915050565b803580151581146104dc57600080fd5b600082601f8301126119e057600080fd5b813560206119f56119f0836118b9565b611889565b82815260a09283028501820192828201919087851115611a1457600080fd5b8387015b85811015611a9d5780890382811215611a315760008081fd5b611a3961181c565b8235611a44816118dc565b8152611a518388016119bf565b8782015260408084013581830152606081605f1985011215611a735760008081fd5b611a7b611844565b85820135815260808601358a8201529083015250855250928401928101611a18565b5090979650505050505050565b600060208284031215611abc57600080fd5b6001600160401b038083351115611ad257600080fd5b60408335840185031215611ae557600080fd5b611aed611844565b8184358501351115611afe57600080fd5b83358401803501601f81018613611b1457600080fd5b611b216119f082356118b9565b81358082526020808301929160051b840101881015611b3f57600080fd5b602083015b6020843560051b850101811015611c73578581351115611b6357600080fd5b80358401601f196040828c0382011215611b7c57600080fd5b611b84611844565b8860208401351115611b9557600080fd5b602083013583016101e083828f03011215611baf57600080fd5b611bb7611866565b9250611bc5602082016118f4565b8352611bd3604082016118ff565b6020840152611be4606082016118f4565b604084015260808101356060840152611c008d60a08301611927565b608084015261018081013560a08401526101a081013560c08401526101c081013560e0840152896101e08201351115611c3857600080fd5b611c4c8d60206101e08401358401016119cf565b61010084015250908152604091909101356020808301919091529084529283019201611b44565b50835250611c889050843585016020016119bf565b6020820152949350505050565b600060208083528351808285015260005b81811015611cc257858101830151858201604001528201611ca6565b506000604082860101526040601f19601f8301168501019250505092915050565b600060208284031215611cf557600080fd5b813561126a816118dc565b80516001600160801b031682526020808201516001600160401b039081169184019190915260409182015116910152565b60c08101611d3f8285611d00565b61126a6060830184611d00565b6020808252825182820181905260009190848201906040850190845b81811015611da1578351611d7d848251611d00565b850151611d8d6060850182611d00565b509284019260c09290920191600101611d68565b50909695505050505050565b6020808252825182820181905260009190848201906040850190845b81811015611da15783516001600160a01b031683529284019291840191600101611dc9565b600060208284031215611e0057600080fd5b61126a826119bf565b6000808284036060811215611e1d57600080fd5b6040811215611e2b57600080fd5b50611e34611844565b8335611e3f816118dc565b8152602084013560038110611e5357600080fd5b6020820152946040939093013593505050565b60006020808385031215611e7957600080fd5b82516001600160401b03811115611e8f57600080fd5b8301601f81018513611ea057600080fd5b8051611eae6119f0826118b9565b81815260059190911b82018301908381019087831115611ecd57600080fd5b928401925b82841015611ef4578351611ee5816118dc565b82529284019290840190611ed2565b979650505050505050565b634e487b7160e01b600052603260045260246000fd5b634e487b7160e01b600052601160045260246000fd5b600060018201611f3d57611f3d611f15565b5060010190565b600060208284031215611f5657600080fd5b5051919050565b634e487b7160e01b600052602160045260246000fd5b600060208284031215611f8557600080fd5b815161126a816118dc565b80820180821115610da957610da9611f15565b81810381811115610da957610da9611f15565b8082028115828204841417610da957610da9611f15565b634e487b7160e01b600052601260045260246000fd5b600082611ff257611ff2611fcd565b500490565b634e487b7160e01b600052603160045260246000fd5b60008261201c5761201c611fcd565b50069056fea264697066735822122088fff9e6fbb87a971441644f7ce74495b292cf5261007d0a9a0ff40ca4711c9764736f6c63430008110033","bytecodeSha1":"0fc55b409f9c1e6a54b48b227aff18969a565de5","compiler":{"evm_version":"london","optimizer":{"enabled":true,"runs":200},"version":"0.8.17+commit.8df45f5f"},"contractName":"VaultSafetyMode","language":"Solidity","natspec":{"kind":"dev","methods":{"acceptGovernance()":{"notice":"Called by the pending governor to approve the change"},"changeGovernor(address)":{"notice":"Changes the governor can only be called by the current governor"},"checkAndPersistMint((((address,uint8,address,uint256,(uint256,uint256,uint256,uint256,uint64,uint64,uint64),uint256,uint256,uint256,(address,bool,uint256,(uint256,uint256))[]),uint256)[],bool))":{"notice":"Checks whether a mint operation is safe and reverts otherwise This is only called when an actual mint is performed The implementation should store any relevant information for the mint"},"checkAndPersistRedeem((((address,uint8,address,uint256,(uint256,uint256,uint256,uint256,uint64,uint64,uint64),uint256,uint256,uint256,(address,bool,uint256,(uint256,uint256))[]),uint256)[],bool))":{"notice":"Checks whether a redeem operation is safe This is only called when an actual redeem is performed The implementation should store any relevant information for the redeem"},"governor()":{"notice":"Returns the current governor"},"isMintSafe((((address,uint8,address,uint256,(uint256,uint256,uint256,uint256,uint64,uint64,uint64),uint256,uint256,uint256,(address,bool,uint256,(uint256,uint256))[]),uint256)[],bool))":{"notice":"Checks whether a mint operation is safe","returns":{"err":"empty string if it is safe, otherwise the reason why it is not safe"}},"isRedeemSafe((((address,uint8,address,uint256,(uint256,uint256,uint256,uint256,uint64,uint64,uint64),uint256,uint256,uint256,(address,bool,uint256,(uint256,uint256))[]),uint256)[],bool))":{"notice":"Checks whether a redeem operation is safe","returns":{"err":"empty string if it is safe, otherwise the reason why it is not safe"}},"pendingGovernor()":{"notice":"Returns the pending governor"}},"version":1},"opcodes":"PUSH1 0x80 PUSH1 0x40 MSTORE CALLVALUE DUP1 ISZERO PUSH2 0x10 JUMPI PUSH1 0x0 DUP1 REVERT JUMPDEST POP PUSH1 0x4 CALLDATASIZE LT PUSH2 0x10B JUMPI PUSH1 0x0 CALLDATALOAD PUSH1 0xE0 SHR DUP1 PUSH4 0x489C8B8E GT PUSH2 0xA2 JUMPI DUP1 PUSH4 0xD01F63F5 GT PUSH2 0x71 JUMPI DUP1 PUSH4 0xD01F63F5 EQ PUSH2 0x2BB JUMPI DUP1 PUSH4 0xE3056A34 EQ PUSH2 0x2D0 JUMPI DUP1 PUSH4 0xE4C0AAF4 EQ PUSH2 0x2E3 JUMPI DUP1 PUSH4 0xEF2933EC EQ PUSH2 0x2F6 JUMPI DUP1 PUSH4 0xFC283B86 EQ PUSH2 0x309 JUMPI PUSH1 0x0 DUP1 REVERT JUMPDEST DUP1 PUSH4 0x489C8B8E EQ PUSH2 0x26D JUMPI DUP1 PUSH4 0x59A047E9 EQ PUSH2 0x282 JUMPI DUP1 PUSH4 0x7B9417C8 EQ PUSH2 0x295 JUMPI DUP1 PUSH4 0x9109B8A3 EQ PUSH2 0x2A8 JUMPI PUSH1 0x0 DUP1 REVERT JUMPDEST DUP1 PUSH4 0x238EFCBC GT PUSH2 0xDE JUMPI DUP1 PUSH4 0x238EFCBC EQ PUSH2 0x192 JUMPI DUP1 PUSH4 0x25AEB092 EQ PUSH2 0x19A JUMPI DUP1 PUSH4 0x286DD3F5 EQ PUSH2 0x233 JUMPI DUP1 PUSH4 0x44BBDB55 EQ PUSH2 0x246 JUMPI PUSH1 0x0 DUP1 REVERT JUMPDEST DUP1 PUSH4 0x5D76B9D EQ PUSH2 0x110 JUMPI DUP1 PUSH4 0xBDF8D22 EQ PUSH2 0x125 JUMPI DUP1 PUSH4 0xC340A24 EQ PUSH2 0x147 JUMPI DUP1 PUSH4 0x1C46E999 EQ PUSH2 0x172 JUMPI JUMPDEST PUSH1 0x0 DUP1 REVERT JUMPDEST PUSH2 0x123 PUSH2 0x11E CALLDATASIZE PUSH1 0x4 PUSH2 0x1AAA JUMP JUMPDEST PUSH2 0x31C JUMP JUMPDEST STOP JUMPDEST PUSH2 0x134 PUSH8 0xB1A2BC2EC500000 DUP2 JUMP JUMPDEST PUSH1 0x40 MLOAD SWAP1 DUP2 MSTORE PUSH1 0x20 ADD JUMPDEST PUSH1 0x40 MLOAD DUP1 SWAP2 SUB SWAP1 RETURN JUMPDEST PUSH1 0x0 SLOAD PUSH2 0x15A SWAP1 PUSH1 0x1 PUSH1 0x1 PUSH1 0xA0 SHL SUB AND DUP2 JUMP JUMPDEST PUSH1 0x40 MLOAD PUSH1 0x1 PUSH1 0x1 PUSH1 0xA0 SHL SUB SWAP1 SWAP2 AND DUP2 MSTORE PUSH1 0x20 ADD PUSH2 0x13E JUMP JUMPDEST PUSH2 0x185 PUSH2 0x180 CALLDATASIZE PUSH1 0x4 PUSH2 0x1AAA JUMP JUMPDEST PUSH2 0x48A JUMP JUMPDEST PUSH1 0x40 MLOAD PUSH2 0x13E SWAP2 SWAP1 PUSH2 0x1C95 JUMP JUMPDEST PUSH2 0x123 PUSH2 0x4FF JUMP JUMPDEST PUSH2 0x225 PUSH2 0x1A8 CALLDATASIZE PUSH1 0x4 PUSH2 0x1CE3 JUMP JUMPDEST PUSH1 0x4 PUSH1 0x20 SWAP1 DUP2 MSTORE PUSH1 0x0 SWAP2 DUP3 MSTORE PUSH1 0x40 SWAP2 DUP3 SWAP1 KECCAK256 DUP3 MLOAD PUSH1 0x60 DUP1 DUP3 ADD DUP6 MSTORE DUP3 SLOAD PUSH1 0x1 PUSH1 0x1 PUSH1 0x80 SHL SUB DUP1 DUP3 AND DUP5 MSTORE PUSH1 0x1 PUSH1 0x1 PUSH1 0x40 SHL SUB PUSH1 0x1 PUSH1 0x80 SHL DUP1 DUP5 DIV DUP3 AND DUP7 DUP10 ADD MSTORE PUSH1 0x1 PUSH1 0xC0 SHL SWAP4 DUP5 SWAP1 DIV DUP3 AND DUP7 DUP11 ADD MSTORE DUP9 MLOAD SWAP5 DUP6 ADD DUP10 MSTORE PUSH1 0x1 SWAP1 SWAP7 ADD SLOAD SWAP2 DUP3 AND DUP5 MSTORE SWAP5 DUP2 DIV DUP6 AND SWAP6 DUP4 ADD SWAP6 SWAP1 SWAP6 MSTORE SWAP1 SWAP4 DIV SWAP1 SWAP2 AND SWAP3 DUP3 ADD SWAP3 SWAP1 SWAP3 MSTORE DUP3 JUMP JUMPDEST PUSH1 0x40 MLOAD PUSH2 0x13E SWAP3 SWAP2 SWAP1 PUSH2 0x1D31 JUMP JUMPDEST PUSH2 0x123 PUSH2 0x241 CALLDATASIZE PUSH1 0x4 PUSH2 0x1CE3 JUMP JUMPDEST PUSH2 0x5AF JUMP JUMPDEST PUSH2 0x15A PUSH32 0x0 DUP2 JUMP JUMPDEST PUSH2 0x275 PUSH2 0x638 JUMP JUMPDEST PUSH1 0x40 MLOAD PUSH2 0x13E SWAP2 SWAP1 PUSH2 0x1D4C JUMP JUMPDEST PUSH2 0x123 PUSH2 0x290 CALLDATASIZE PUSH1 0x4 PUSH2 0x1AAA JUMP JUMPDEST PUSH2 0x86D JUMP JUMPDEST PUSH2 0x123 PUSH2 0x2A3 CALLDATASIZE PUSH1 0x4 PUSH2 0x1CE3 JUMP JUMPDEST PUSH2 0x92C JUMP JUMPDEST PUSH2 0x185 PUSH2 0x2B6 CALLDATASIZE PUSH1 0x4 PUSH2 0x1AAA JUMP JUMPDEST PUSH2 0x9B5 JUMP JUMPDEST PUSH2 0x2C3 PUSH2 0x9CA JUMP JUMPDEST PUSH1 0x40 MLOAD PUSH2 0x13E SWAP2 SWAP1 PUSH2 0x1DAD JUMP JUMPDEST PUSH1 0x1 SLOAD PUSH2 0x15A SWAP1 PUSH1 0x1 PUSH1 0x1 PUSH1 0xA0 SHL SUB AND DUP2 JUMP JUMPDEST PUSH2 0x123 PUSH2 0x2F1 CALLDATASIZE PUSH1 0x4 PUSH2 0x1CE3 JUMP JUMPDEST PUSH2 0x9DB JUMP JUMPDEST PUSH2 0x123 PUSH2 0x304 CALLDATASIZE PUSH1 0x4 PUSH2 0x1DEE JUMP JUMPDEST PUSH2 0xAB0 JUMP JUMPDEST PUSH2 0x123 PUSH2 0x317 CALLDATASIZE PUSH1 0x4 PUSH2 0x1E09 JUMP JUMPDEST PUSH2 0xCCD JUMP JUMPDEST PUSH2 0x34E PUSH32 0x0 PUSH1 0x1 PUSH1 0x1 PUSH1 0xA0 SHL SUB AND PUSH2 0xD1D JUMP JUMPDEST PUSH1 0x1 PUSH1 0x1 PUSH1 0xA0 SHL SUB AND CALLER PUSH1 0x1 PUSH1 0x1 PUSH1 0xA0 SHL SUB AND EQ PUSH1 0x40 MLOAD DUP1 PUSH1 0x40 ADD PUSH1 0x40 MSTORE DUP1 PUSH1 0x2 DUP2 MSTORE PUSH1 0x20 ADD PUSH2 0x333 PUSH1 0xF4 SHL DUP2 MSTORE POP SWAP1 PUSH2 0x3A4 JUMPI PUSH1 0x40 MLOAD PUSH3 0x461BCD PUSH1 0xE5 SHL DUP2 MSTORE PUSH1 0x4 ADD PUSH2 0x39B SWAP2 SWAP1 PUSH2 0x1C95 JUMP JUMPDEST PUSH1 0x40 MLOAD DUP1 SWAP2 SUB SWAP1 REVERT JUMPDEST POP DUP1 PUSH1 0x20 ADD MLOAD PUSH1 0x40 MLOAD DUP1 PUSH1 0x40 ADD PUSH1 0x40 MSTORE DUP1 PUSH1 0x2 DUP2 MSTORE PUSH1 0x20 ADD PUSH2 0x3331 PUSH1 0xF0 SHL DUP2 MSTORE POP SWAP1 PUSH2 0x3E3 JUMPI PUSH1 0x40 MLOAD PUSH3 0x461BCD PUSH1 0xE5 SHL DUP2 MSTORE PUSH1 0x4 ADD PUSH2 0x39B SWAP2 SWAP1 PUSH2 0x1C95 JUMP JUMPDEST POP PUSH1 0x0 DUP1 PUSH2 0x3F0 DUP4 PUSH2 0xDAF JUMP JUMPDEST DUP2 MLOAD SWAP2 SWAP4 POP SWAP2 POP ISZERO PUSH2 0x47B JUMPI PUSH1 0x40 DUP1 MLOAD DUP1 DUP3 ADD SWAP1 SWAP2 MSTORE PUSH1 0x2 DUP2 MSTORE PUSH2 0x3631 PUSH1 0xF0 SHL PUSH1 0x20 DUP3 ADD MSTORE PUSH2 0x420 SWAP1 DUP4 SWAP1 PUSH2 0x1051 JUMP JUMPDEST ISZERO PUSH2 0x461 JUMPI PUSH32 0x135E6DD29EFA875112189ADD0769ED7F19CD6DB71EEFE10BF040C499F5AAB344 DUP3 PUSH1 0x40 MLOAD PUSH2 0x454 SWAP2 SWAP1 PUSH2 0x1C95 JUMP JUMPDEST PUSH1 0x40 MLOAD DUP1 SWAP2 SUB SWAP1 LOG1 PUSH2 0x47B JUMP JUMPDEST DUP2 PUSH1 0x40 MLOAD PUSH3 0x461BCD PUSH1 0xE5 SHL DUP2 MSTORE PUSH1 0x4 ADD PUSH2 0x39B SWAP2 SWAP1 PUSH2 0x1C95 JUMP JUMPDEST PUSH2 0x485 DUP4 DUP3 PUSH2 0x107B JUMP JUMPDEST POP POP POP JUMP JUMPDEST PUSH1 0x60 DUP2 PUSH1 0x20 ADD MLOAD PUSH2 0x4E1 JUMPI PUSH2 0x49E DUP3 PUSH2 0xDAF JUMP JUMPDEST POP PUSH1 0x40 DUP1 MLOAD DUP1 DUP3 ADD SWAP1 SWAP2 MSTORE PUSH1 0x2 DUP2 MSTORE PUSH2 0x3631 PUSH1 0xF0 SHL PUSH1 0x20 DUP3 ADD MSTORE SWAP1 SWAP2 POP PUSH2 0x4C6 SWAP1 DUP3 SWAP1 PUSH2 0x1051 JUMP JUMPDEST ISZERO PUSH2 0x4DC JUMPI POP PUSH1 0x40 DUP1 MLOAD PUSH1 0x20 DUP2 ADD SWAP1 SWAP2 MSTORE PUSH1 0x0 DUP2 MSTORE JUMPDEST SWAP2 SWAP1 POP JUMP JUMPDEST POP POP PUSH1 0x40 DUP1 MLOAD DUP1 DUP3 ADD SWAP1 SWAP2 MSTORE PUSH1 0x2 DUP2 MSTORE PUSH2 0x3331 PUSH1 0xF0 SHL PUSH1 0x20 DUP3 ADD MSTORE SWAP1 JUMP JUMPDEST PUSH1 0x1 SLOAD PUSH1 0x40 DUP1 MLOAD DUP1 DUP3 ADD SWAP1 SWAP2 MSTORE PUSH1 0x2 DUP2 MSTORE PUSH2 0x333 PUSH1 0xF4 SHL PUSH1 0x20 DUP3 ADD MSTORE SWAP1 PUSH1 0x1 PUSH1 0x1 PUSH1 0xA0 SHL SUB AND CALLER EQ PUSH2 0x544 JUMPI PUSH1 0x40 MLOAD PUSH3 0x461BCD PUSH1 0xE5 SHL DUP2 MSTORE PUSH1 0x4 ADD PUSH2 0x39B SWAP2 SWAP1 PUSH2 0x1C95 JUMP JUMPDEST POP PUSH1 0x0 DUP1 SLOAD PUSH1 0x1 DUP1 SLOAD PUSH1 0x1 PUSH1 0x1 PUSH1 0xA0 SHL SUB NOT DUP1 DUP5 AND PUSH1 0x1 PUSH1 0x1 PUSH1 0xA0 SHL SUB DUP1 DUP5 AND SWAP2 SWAP1 SWAP2 OR SWAP1 SWAP6 SSTORE AND SWAP1 SSTORE PUSH1 0x40 DUP1 MLOAD SWAP3 SWAP1 SWAP2 AND DUP1 DUP4 MSTORE CALLER PUSH1 0x20 DUP5 ADD MSTORE SWAP2 PUSH32 0xDE4B3F61490B74C0ED6237523974FE299126BBBF8A8A7482FD220104C59B0C84 SWAP2 ADD JUMPDEST PUSH1 0x40 MLOAD DUP1 SWAP2 SUB SWAP1 LOG1 POP JUMP JUMPDEST PUSH1 0x0 SLOAD PUSH1 0x40 DUP1 MLOAD DUP1 DUP3 ADD SWAP1 SWAP2 MSTORE PUSH1 0x2 DUP2 MSTORE PUSH2 0x333 PUSH1 0xF4 SHL PUSH1 0x20 DUP3 ADD MSTORE SWAP1 PUSH1 0x1 PUSH1 0x1 PUSH1 0xA0 SHL SUB AND CALLER EQ PUSH2 0x5F4 JUMPI PUSH1 0x40 MLOAD PUSH3 0x461BCD PUSH1 0xE5 SHL DUP2 MSTORE PUSH1 0x4 ADD PUSH2 0x39B SWAP2 SWAP1 PUSH2 0x1C95 JUMP JUMPDEST POP PUSH2 0x600 PUSH1 0x2 DUP3 PUSH2 0x1255 JUMP JUMPDEST POP PUSH1 0x40 MLOAD PUSH1 0x1 PUSH1 0x1 PUSH1 0xA0 SHL SUB DUP3 AND SWAP1 PUSH32 0xCDD2E9B91A56913D370075169CEFA1602BA36BE5301664F752192BB1709DF757 SWAP1 PUSH1 0x0 SWAP1 LOG2 POP JUMP JUMPDEST PUSH1 0x60 PUSH1 0x0 PUSH2 0x66E PUSH32 0x0 PUSH1 0x1 PUSH1 0x1 PUSH1 0xA0 SHL SUB AND PUSH2 0x1271 JUMP JUMPDEST SWAP1 POP PUSH1 0x0 DUP2 PUSH1 0x1 PUSH1 0x1 PUSH1 0xA0 SHL SUB AND PUSH4 0x50CC258E PUSH1 0x40 MLOAD DUP2 PUSH4 0xFFFFFFFF AND PUSH1 0xE0 SHL DUP2 MSTORE PUSH1 0x4 ADD PUSH1 0x0 PUSH1 0x40 MLOAD DUP1 DUP4 SUB DUP2 DUP7 GAS STATICCALL ISZERO DUP1 ISZERO PUSH2 0x6B0 JUMPI RETURNDATASIZE PUSH1 0x0 DUP1 RETURNDATACOPY RETURNDATASIZE PUSH1 0x0 REVERT JUMPDEST POP POP POP POP PUSH1 0x40 MLOAD RETURNDATASIZE PUSH1 0x0 DUP3 RETURNDATACOPY PUSH1 0x1F RETURNDATASIZE SWAP1 DUP2 ADD PUSH1 0x1F NOT AND DUP3 ADD PUSH1 0x40 MSTORE PUSH2 0x6D8 SWAP2 SWAP1 DUP2 ADD SWAP1 PUSH2 0x1E66 JUMP JUMPDEST SWAP1 POP PUSH1 0x0 DUP2 MLOAD PUSH1 0x1 PUSH1 0x1 PUSH1 0x40 SHL SUB DUP2 GT ISZERO PUSH2 0x6F5 JUMPI PUSH2 0x6F5 PUSH2 0x1806 JUMP JUMPDEST PUSH1 0x40 MLOAD SWAP1 DUP1 DUP3 MSTORE DUP1 PUSH1 0x20 MUL PUSH1 0x20 ADD DUP3 ADD PUSH1 0x40 MSTORE DUP1 ISZERO PUSH2 0x770 JUMPI DUP2 PUSH1 0x20 ADD JUMPDEST PUSH2 0x75D PUSH1 0x40 DUP1 MLOAD PUSH1 0xA0 DUP2 ADD DUP3 MSTORE PUSH1 0x0 SWAP2 DUP2 ADD DUP3 DUP2 MSTORE PUSH1 0x60 DUP3 ADD DUP4 SWAP1 MSTORE PUSH1 0x80 DUP3 ADD SWAP3 SWAP1 SWAP3 MSTORE SWAP1 DUP2 SWAP1 DUP2 MSTORE PUSH1 0x40 DUP1 MLOAD PUSH1 0x60 DUP2 ADD DUP3 MSTORE PUSH1 0x0 DUP1 DUP3 MSTORE PUSH1 0x20 DUP3 DUP2 ADD DUP3 SWAP1 MSTORE SWAP3 DUP3 ADD MSTORE SWAP2 ADD MSTORE SWAP1 JUMP JUMPDEST DUP2 MSTORE PUSH1 0x20 ADD SWAP1 PUSH1 0x1 SWAP1 SUB SWAP1 DUP2 PUSH2 0x713 JUMPI SWAP1 POP JUMPDEST POP SWAP1 POP PUSH1 0x0 JUMPDEST DUP3 MLOAD DUP2 LT ISZERO PUSH2 0x865 JUMPI PUSH1 0x4 PUSH1 0x0 DUP5 DUP4 DUP2 MLOAD DUP2 LT PUSH2 0x795 JUMPI PUSH2 0x795 PUSH2 0x1EFF JUMP JUMPDEST PUSH1 0x20 SWAP1 DUP2 MUL SWAP2 SWAP1 SWAP2 ADD DUP2 ADD MLOAD PUSH1 0x1 PUSH1 0x1 PUSH1 0xA0 SHL SUB AND DUP3 MSTORE DUP2 DUP2 ADD SWAP3 SWAP1 SWAP3 MSTORE PUSH1 0x40 SWAP1 DUP2 ADD PUSH1 0x0 KECCAK256 DUP2 MLOAD PUSH1 0xA0 DUP2 ADD DUP4 MSTORE DUP2 SLOAD PUSH1 0x1 PUSH1 0x1 PUSH1 0x80 SHL SUB DUP1 DUP3 AND DUP4 DUP7 ADD SWAP1 DUP2 MSTORE PUSH1 0x1 PUSH1 0x1 PUSH1 0x40 SHL SUB PUSH1 0x1 PUSH1 0x80 SHL DUP1 DUP6 DIV DUP3 AND PUSH1 0x60 DUP1 DUP9 ADD SWAP2 SWAP1 SWAP2 MSTORE PUSH1 0x1 PUSH1 0xC0 SHL SWAP6 DUP7 SWAP1 DIV DUP4 AND PUSH1 0x80 DUP9 ADD MSTORE SWAP3 DUP7 MSTORE DUP8 MLOAD SWAP3 DUP4 ADD DUP9 MSTORE PUSH1 0x1 SWAP1 SWAP7 ADD SLOAD SWAP3 DUP4 AND DUP3 MSTORE SWAP5 DUP3 DIV DUP6 AND DUP2 DUP9 ADD MSTORE SWAP2 SWAP1 DIV SWAP1 SWAP3 AND SWAP3 DUP3 ADD SWAP3 SWAP1 SWAP3 MSTORE SWAP2 DUP2 ADD SWAP2 SWAP1 SWAP2 MSTORE DUP3 MLOAD DUP4 SWAP1 DUP4 SWAP1 DUP2 LT PUSH2 0x847 JUMPI PUSH2 0x847 PUSH2 0x1EFF JUMP JUMPDEST PUSH1 0x20 MUL PUSH1 0x20 ADD ADD DUP2 SWAP1 MSTORE POP DUP1 DUP1 PUSH2 0x85D SWAP1 PUSH2 0x1F2B JUMP JUMPDEST SWAP2 POP POP PUSH2 0x776 JUMP JUMPDEST POP SWAP4 SWAP3 POP POP POP JUMP JUMPDEST PUSH2 0x89F PUSH32 0x0 PUSH1 0x1 PUSH1 0x1 PUSH1 0xA0 SHL SUB AND PUSH2 0xD1D JUMP JUMPDEST PUSH1 0x1 PUSH1 0x1 PUSH1 0xA0 SHL SUB AND CALLER PUSH1 0x1 PUSH1 0x1 PUSH1 0xA0 SHL SUB AND EQ PUSH1 0x40 MLOAD DUP1 PUSH1 0x40 ADD PUSH1 0x40 MSTORE DUP1 PUSH1 0x2 DUP2 MSTORE PUSH1 0x20 ADD PUSH2 0x333 PUSH1 0xF4 SHL DUP2 MSTORE POP SWAP1 PUSH2 0x8EC JUMPI PUSH1 0x40 MLOAD PUSH3 0x461BCD PUSH1 0xE5 SHL DUP2 MSTORE PUSH1 0x4 ADD PUSH2 0x39B SWAP2 SWAP1 PUSH2 0x1C95 JUMP JUMPDEST POP DUP1 PUSH1 0x20 ADD MLOAD ISZERO PUSH1 0x40 MLOAD DUP1 PUSH1 0x40 ADD PUSH1 0x40 MSTORE DUP1 PUSH1 0x2 DUP2 MSTORE PUSH1 0x20 ADD PUSH2 0x3331 PUSH1 0xF0 SHL DUP2 MSTORE POP SWAP1 PUSH2 0x3E3 JUMPI PUSH1 0x40 MLOAD PUSH3 0x461BCD PUSH1 0xE5 SHL DUP2 MSTORE PUSH1 0x4 ADD PUSH2 0x39B SWAP2 SWAP1 PUSH2 0x1C95 JUMP JUMPDEST PUSH1 0x0 SLOAD PUSH1 0x40 DUP1 MLOAD DUP1 DUP3 ADD SWAP1 SWAP2 MSTORE PUSH1 0x2 DUP2 MSTORE PUSH2 0x333 PUSH1 0xF4 SHL PUSH1 0x20 DUP3 ADD MSTORE SWAP1 PUSH1 0x1 PUSH1 0x1 PUSH1 0xA0 SHL SUB AND CALLER EQ PUSH2 0x971 JUMPI PUSH1 0x40 MLOAD PUSH3 0x461BCD PUSH1 0xE5 SHL DUP2 MSTORE PUSH1 0x4 ADD PUSH2 0x39B SWAP2 SWAP1 PUSH2 0x1C95 JUMP JUMPDEST POP PUSH2 0x97D PUSH1 0x2 DUP3 PUSH2 0x12B9 JUMP JUMPDEST POP PUSH1 0x40 MLOAD PUSH1 0x1 PUSH1 0x1 PUSH1 0xA0 SHL SUB DUP3 AND SWAP1 PUSH32 0xA850AE9193F515CBAE8D35E8925BD2BE26627FC91BCE650B8652ED254E9CAB03 SWAP1 PUSH1 0x0 SWAP1 LOG2 POP JUMP JUMPDEST PUSH1 0x60 DUP2 PUSH1 0x20 ADD MLOAD ISZERO PUSH2 0x4E1 JUMPI PUSH2 0x49E DUP3 PUSH2 0xDAF JUMP JUMPDEST PUSH1 0x60 PUSH2 0x9D6 PUSH1 0x2 PUSH2 0x12CE JUMP JUMPDEST SWAP1 POP SWAP1 JUMP JUMPDEST PUSH1 0x0 SLOAD PUSH1 0x40 DUP1 MLOAD DUP1 DUP3 ADD SWAP1 SWAP2 MSTORE PUSH1 0x2 DUP2 MSTORE PUSH2 0x333 PUSH1 0xF4 SHL PUSH1 0x20 DUP3 ADD MSTORE SWAP1 PUSH1 0x1 PUSH1 0x1 PUSH1 0xA0 SHL SUB AND CALLER EQ PUSH2 0xA20 JUMPI PUSH1 0x40 MLOAD PUSH3 0x461BCD PUSH1 0xE5 SHL DUP2 MSTORE PUSH1 0x4 ADD PUSH2 0x39B SWAP2 SWAP1 PUSH2 0x1C95 JUMP JUMPDEST POP PUSH1 0x40 DUP1 MLOAD DUP1 DUP3 ADD SWAP1 SWAP2 MSTORE PUSH1 0x2 DUP2 MSTORE PUSH2 0x3331 PUSH1 0xF0 SHL PUSH1 0x20 DUP3 ADD MSTORE PUSH1 0x1 PUSH1 0x1 PUSH1 0xA0 SHL SUB DUP3 AND PUSH2 0xA61 JUMPI PUSH1 0x40 MLOAD PUSH3 0x461BCD PUSH1 0xE5 SHL DUP2 MSTORE PUSH1 0x4 ADD PUSH2 0x39B SWAP2 SWAP1 PUSH2 0x1C95 JUMP JUMPDEST POP PUSH1 0x1 DUP1 SLOAD PUSH1 0x1 PUSH1 0x1 PUSH1 0xA0 SHL SUB NOT AND PUSH1 0x1 PUSH1 0x1 PUSH1 0xA0 SHL SUB DUP4 AND SWAP1 DUP2 OR SWAP1 SWAP2 SSTORE PUSH1 0x40 MLOAD SWAP1 DUP2 MSTORE PUSH32 0x67235BA2E63C748A35B95C4F92A3BBC2A1389938170A5CE6C9ADD5D0B03A314A SWAP1 PUSH1 0x20 ADD PUSH2 0x5A4 JUMP JUMPDEST CALLER PUSH2 0xABC PUSH1 0x2 DUP3 PUSH2 0x12DB JUMP JUMPDEST PUSH1 0x40 MLOAD DUP1 PUSH1 0x40 ADD PUSH1 0x40 MSTORE DUP1 PUSH1 0x2 DUP2 MSTORE PUSH1 0x20 ADD PUSH2 0x333 PUSH1 0xF4 SHL DUP2 MSTORE POP SWAP1 PUSH2 0xAF5 JUMPI PUSH1 0x40 MLOAD PUSH3 0x461BCD PUSH1 0xE5 SHL DUP2 MSTORE PUSH1 0x4 ADD PUSH2 0x39B SWAP2 SWAP1 PUSH2 0x1C95 JUMP JUMPDEST POP PUSH1 0x0 PUSH2 0xB2A PUSH32 0x0 PUSH1 0x1 PUSH1 0x1 PUSH1 0xA0 SHL SUB AND PUSH2 0x1271 JUMP JUMPDEST SWAP1 POP PUSH1 0x0 DUP2 PUSH1 0x1 PUSH1 0x1 PUSH1 0xA0 SHL SUB AND PUSH4 0x50CC258E PUSH1 0x40 MLOAD DUP2 PUSH4 0xFFFFFFFF AND PUSH1 0xE0 SHL DUP2 MSTORE PUSH1 0x4 ADD PUSH1 0x0 PUSH1 0x40 MLOAD DUP1 DUP4 SUB DUP2 DUP7 GAS STATICCALL ISZERO DUP1 ISZERO PUSH2 0xB6C JUMPI RETURNDATASIZE PUSH1 0x0 DUP1 RETURNDATACOPY RETURNDATASIZE PUSH1 0x0 REVERT JUMPDEST POP POP POP POP PUSH1 0x40 MLOAD RETURNDATASIZE PUSH1 0x0 DUP3 RETURNDATACOPY PUSH1 0x1F RETURNDATASIZE SWAP1 DUP2 ADD PUSH1 0x1F NOT AND DUP3 ADD PUSH1 0x40 MSTORE PUSH2 0xB94 SWAP2 SWAP1 DUP2 ADD SWAP1 PUSH2 0x1E66 JUMP JUMPDEST SWAP1 POP PUSH1 0x0 DUP5 PUSH2 0xBA4 JUMPI PUSH1 0x2 PUSH2 0xBA7 JUMP JUMPDEST PUSH1 0x0 JUMPDEST PUSH1 0x40 MLOAD PUSH4 0xBD02D0F5 PUSH1 0xE0 SHL DUP2 MSTORE PUSH22 0x29A0A322AA2CAFA12627A1A5A9AFA3AAA0A92224A0A7 PUSH1 0x51 SHL PUSH1 0x4 DUP3 ADD MSTORE SWAP1 SWAP2 POP PUSH1 0x0 SWAP1 PUSH1 0x1 PUSH1 0x1 PUSH1 0xA0 SHL SUB PUSH32 0x0 AND SWAP1 PUSH4 0xBD02D0F5 SWAP1 PUSH1 0x24 ADD PUSH1 0x20 PUSH1 0x40 MLOAD DUP1 DUP4 SUB DUP2 DUP7 GAS STATICCALL ISZERO DUP1 ISZERO PUSH2 0xC2A JUMPI RETURNDATASIZE PUSH1 0x0 DUP1 RETURNDATACOPY RETURNDATASIZE PUSH1 0x0 REVERT JUMPDEST POP POP POP POP PUSH1 0x40 MLOAD RETURNDATASIZE PUSH1 0x1F NOT PUSH1 0x1F DUP3 ADD AND DUP3 ADD DUP1 PUSH1 0x40 MSTORE POP DUP2 ADD SWAP1 PUSH2 0xC4E SWAP2 SWAP1 PUSH2 0x1F44 JUMP JUMPDEST SWAP1 POP PUSH1 0x0 JUMPDEST DUP4 MLOAD DUP2 LT ISZERO PUSH2 0xCC4 JUMPI PUSH1 0x0 PUSH1 0x40 MLOAD DUP1 PUSH1 0x40 ADD PUSH1 0x40 MSTORE DUP1 DUP7 DUP5 DUP2 MLOAD DUP2 LT PUSH2 0xC7B JUMPI PUSH2 0xC7B PUSH2 0x1EFF JUMP JUMPDEST PUSH1 0x20 MUL PUSH1 0x20 ADD ADD MLOAD PUSH1 0x1 PUSH1 0x1 PUSH1 0xA0 SHL SUB AND DUP2 MSTORE PUSH1 0x20 ADD DUP6 PUSH1 0x2 DUP2 GT ISZERO PUSH2 0xCA3 JUMPI PUSH2 0xCA3 PUSH2 0x1F5D JUMP JUMPDEST SWAP1 MSTORE SWAP1 POP PUSH2 0xCB1 DUP2 DUP5 PUSH2 0x12FD JUMP JUMPDEST POP DUP1 PUSH2 0xCBC DUP2 PUSH2 0x1F2B JUMP JUMPDEST SWAP2 POP POP PUSH2 0xC53 JUMP JUMPDEST POP POP POP POP POP POP POP JUMP JUMPDEST CALLER PUSH2 0xCD9 PUSH1 0x2 DUP3 PUSH2 0x12DB JUMP JUMPDEST PUSH1 0x40 MLOAD DUP1 PUSH1 0x40 ADD PUSH1 0x40 MSTORE DUP1 PUSH1 0x2 DUP2 MSTORE PUSH1 0x20 ADD PUSH2 0x333 PUSH1 0xF4 SHL DUP2 MSTORE POP SWAP1 PUSH2 0xD12 JUMPI PUSH1 0x40 MLOAD PUSH3 0x461BCD PUSH1 0xE5 SHL DUP2 MSTORE PUSH1 0x4 ADD PUSH2 0x39B SWAP2 SWAP1 PUSH2 0x1C95 JUMP JUMPDEST POP PUSH2 0x485 DUP4 DUP4 PUSH2 0x12FD JUMP JUMPDEST PUSH1 0x40 MLOAD PUSH4 0x21F8A721 PUSH1 0xE0 SHL DUP2 MSTORE PUSH32 0x524F4F545F5341464554595F434845434B5F4144445245535300000000000000 PUSH1 0x4 DUP3 ADD MSTORE PUSH1 0x0 SWAP1 PUSH1 0x1 PUSH1 0x1 PUSH1 0xA0 SHL SUB DUP4 AND SWAP1 PUSH4 0x21F8A721 SWAP1 PUSH1 0x24 ADD JUMPDEST PUSH1 0x20 PUSH1 0x40 MLOAD DUP1 DUP4 SUB DUP2 DUP7 GAS STATICCALL ISZERO DUP1 ISZERO PUSH2 0xD85 JUMPI RETURNDATASIZE PUSH1 0x0 DUP1 RETURNDATACOPY RETURNDATASIZE PUSH1 0x0 REVERT JUMPDEST POP POP POP POP PUSH1 0x40 MLOAD RETURNDATASIZE PUSH1 0x1F NOT PUSH1 0x1F DUP3 ADD AND DUP3 ADD DUP1 PUSH1 0x40 MSTORE POP DUP2 ADD SWAP1 PUSH2 0xDA9 SWAP2 SWAP1 PUSH2 0x1F73 JUMP JUMPDEST SWAP3 SWAP2 POP POP JUMP JUMPDEST PUSH1 0x60 DUP1 DUP3 PUSH1 0x0 ADD MLOAD MLOAD PUSH1 0x1 PUSH1 0x1 PUSH1 0x40 SHL SUB DUP2 GT ISZERO PUSH2 0xDCF JUMPI PUSH2 0xDCF PUSH2 0x1806 JUMP JUMPDEST PUSH1 0x40 MLOAD SWAP1 DUP1 DUP3 MSTORE DUP1 PUSH1 0x20 MUL PUSH1 0x20 ADD DUP3 ADD PUSH1 0x40 MSTORE DUP1 ISZERO PUSH2 0xE14 JUMPI DUP2 PUSH1 0x20 ADD JUMPDEST PUSH1 0x40 DUP1 MLOAD DUP1 DUP3 ADD SWAP1 SWAP2 MSTORE PUSH1 0x0 DUP1 DUP3 MSTORE PUSH1 0x20 DUP3 ADD MSTORE DUP2 MSTORE PUSH1 0x20 ADD SWAP1 PUSH1 0x1 SWAP1 SUB SWAP1 DUP2 PUSH2 0xDED JUMPI SWAP1 POP JUMPDEST POP SWAP1 POP PUSH1 0x0 JUMPDEST DUP4 MLOAD MLOAD DUP2 LT ISZERO PUSH2 0x104B JUMPI PUSH1 0x0 DUP5 PUSH1 0x0 ADD MLOAD DUP3 DUP2 MLOAD DUP2 LT PUSH2 0xE3C JUMPI PUSH2 0xE3C PUSH2 0x1EFF JUMP JUMPDEST PUSH1 0x20 MUL PUSH1 0x20 ADD ADD MLOAD PUSH1 0x20 ADD MLOAD SWAP1 POP PUSH1 0x0 DUP6 PUSH1 0x0 ADD MLOAD DUP4 DUP2 MLOAD DUP2 LT PUSH2 0xE62 JUMPI PUSH2 0xE62 PUSH2 0x1EFF JUMP JUMPDEST PUSH1 0x20 SWAP1 DUP2 MUL SWAP2 SWAP1 SWAP2 ADD DUP2 ADD MLOAD MLOAD DUP1 MLOAD PUSH1 0x1 PUSH1 0x1 PUSH1 0xA0 SHL SUB AND PUSH1 0x0 SWAP1 DUP2 MSTORE PUSH1 0x4 DUP4 MSTORE PUSH1 0x40 DUP1 DUP3 KECCAK256 DUP2 MLOAD PUSH1 0x60 DUP2 ADD DUP4 MSTORE DUP4 DUP2 MSTORE SWAP5 DUP6 ADD DUP4 SWAP1 MSTORE SWAP1 DUP5 ADD SWAP2 SWAP1 SWAP2 MSTORE SWAP1 SWAP3 POP SWAP1 DUP8 PUSH1 0x20 ADD MLOAD PUSH2 0xEB6 JUMPI DUP2 PUSH1 0x1 ADD PUSH2 0xEB8 JUMP JUMPDEST DUP2 JUMPDEST PUSH1 0x40 DUP1 MLOAD PUSH1 0x60 DUP2 ADD DUP3 MSTORE SWAP2 SLOAD PUSH1 0x1 PUSH1 0x1 PUSH1 0x80 SHL SUB DUP2 AND DUP4 MSTORE PUSH1 0x1 PUSH1 0x1 PUSH1 0x40 SHL SUB PUSH1 0x1 PUSH1 0x80 SHL DUP3 DIV DUP2 AND PUSH1 0x20 DUP6 ADD MSTORE PUSH1 0x1 PUSH1 0xC0 SHL SWAP1 SWAP2 DIV AND SWAP1 DUP3 ADD MSTORE SWAP1 POP DUP4 ISZERO DUP1 ISZERO SWAP1 PUSH2 0xF11 JUMPI POP DUP1 PUSH1 0x20 ADD MLOAD PUSH1 0x1 PUSH1 0x1 PUSH1 0x40 SHL SUB AND NUMBER GT ISZERO JUMPDEST ISZERO PUSH2 0xF3C JUMPI PUSH1 0x40 MLOAD DUP1 PUSH1 0x40 ADD PUSH1 0x40 MSTORE DUP1 PUSH1 0x2 DUP2 MSTORE PUSH1 0x20 ADD PUSH2 0x3635 PUSH1 0xF0 SHL DUP2 MSTORE POP SWAP7 POP POP POP POP POP PUSH2 0x104B JUMP JUMPDEST PUSH1 0x0 DUP4 PUSH1 0x80 ADD MLOAD PUSH1 0x60 ADD MLOAD SWAP1 POP PUSH1 0x0 PUSH2 0xF79 DUP4 PUSH1 0x0 ADD MLOAD PUSH1 0x1 PUSH1 0x1 PUSH1 0x80 SHL SUB AND NUMBER DUP6 PUSH1 0x40 ADD MLOAD PUSH1 0x1 PUSH1 0x1 PUSH1 0x40 SHL SUB AND DUP9 PUSH1 0x80 ADD MLOAD PUSH1 0x40 ADD MLOAD PUSH2 0x156F JUMP JUMPDEST PUSH2 0xF83 SWAP1 DUP8 PUSH2 0x1F90 JUMP JUMPDEST SWAP1 POP PUSH1 0x0 DUP7 GT DUP1 ISZERO PUSH2 0xF94 JUMPI POP DUP2 DUP2 GT JUMPDEST ISZERO PUSH2 0xFC1 JUMPI PUSH1 0x40 MLOAD DUP1 PUSH1 0x40 ADD PUSH1 0x40 MSTORE DUP1 PUSH1 0x2 DUP2 MSTORE PUSH1 0x20 ADD PUSH2 0x363 PUSH1 0xF4 SHL DUP2 MSTORE POP SWAP9 POP POP POP POP POP POP POP PUSH2 0x104B JUMP JUMPDEST PUSH1 0x0 PUSH2 0xFD5 PUSH8 0xB1A2BC2EC500000 DUP5 PUSH2 0x15F8 JUMP JUMPDEST DUP3 GT SWAP1 POP DUP1 ISZERO PUSH2 0xFFD JUMPI PUSH1 0x40 MLOAD DUP1 PUSH1 0x40 ADD PUSH1 0x40 MSTORE DUP1 PUSH1 0x2 DUP2 MSTORE PUSH1 0x20 ADD PUSH2 0x3631 PUSH1 0xF0 SHL DUP2 MSTORE POP SWAP10 POP JUMPDEST PUSH1 0x40 MLOAD DUP1 PUSH1 0x40 ADD PUSH1 0x40 MSTORE DUP1 DUP4 DUP2 MSTORE PUSH1 0x20 ADD DUP3 ISZERO ISZERO DUP2 MSTORE POP DUP10 DUP10 DUP2 MLOAD DUP2 LT PUSH2 0x1026 JUMPI PUSH2 0x1026 PUSH2 0x1EFF JUMP JUMPDEST PUSH1 0x20 MUL PUSH1 0x20 ADD ADD DUP2 SWAP1 MSTORE POP POP POP POP POP POP POP POP DUP1 DUP1 PUSH2 0x1043 SWAP1 PUSH2 0x1F2B JUMP JUMPDEST SWAP2 POP POP PUSH2 0xE1A JUMP JUMPDEST POP SWAP2 POP SWAP2 JUMP JUMPDEST PUSH1 0x0 DUP2 MLOAD DUP4 MLOAD EQ PUSH2 0x1064 JUMPI POP PUSH1 0x0 PUSH2 0xDA9 JUMP JUMPDEST POP DUP1 MLOAD PUSH1 0x20 SWAP2 DUP3 ADD KECCAK256 DUP3 MLOAD SWAP3 SWAP1 SWAP2 ADD SWAP2 SWAP1 SWAP2 KECCAK256 EQ SWAP1 JUMP JUMPDEST PUSH1 0x0 JUMPDEST DUP3 MLOAD MLOAD DUP2 LT ISZERO PUSH2 0x485 JUMPI PUSH1 0x0 DUP4 PUSH1 0x0 ADD MLOAD DUP3 DUP2 MLOAD DUP2 LT PUSH2 0x10A0 JUMPI PUSH2 0x10A0 PUSH2 0x1EFF JUMP JUMPDEST PUSH1 0x20 SWAP1 DUP2 MUL SWAP2 SWAP1 SWAP2 ADD DUP2 ADD MLOAD MLOAD DUP1 MLOAD PUSH1 0x1 PUSH1 0x1 PUSH1 0xA0 SHL SUB AND PUSH1 0x0 SWAP1 DUP2 MSTORE PUSH1 0x4 DUP4 MSTORE PUSH1 0x40 DUP2 KECCAK256 SWAP3 DUP8 ADD MLOAD SWAP2 SWAP4 POP SWAP1 ISZERO PUSH2 0x10D9 JUMPI POP DUP1 PUSH2 0x10DF JUMP JUMPDEST POP PUSH1 0x1 DUP2 ADD JUMPDEST DUP1 SLOAD PUSH1 0x1 PUSH1 0x1 PUSH1 0xC0 SHL SUB AND PUSH1 0x1 PUSH1 0xC0 SHL NUMBER PUSH1 0x1 PUSH1 0x1 PUSH1 0x40 SHL SUB AND MUL OR DUP2 SSTORE DUP5 MLOAD DUP6 SWAP1 DUP6 SWAP1 DUP2 LT PUSH2 0x1111 JUMPI PUSH2 0x1111 PUSH2 0x1EFF JUMP JUMPDEST PUSH1 0x20 SWAP1 DUP2 MUL SWAP2 SWAP1 SWAP2 ADD ADD MLOAD MLOAD DUP2 SLOAD PUSH16 0xFFFFFFFFFFFFFFFFFFFFFFFFFFFFFFFF NOT AND PUSH1 0x1 PUSH1 0x1 PUSH1 0x80 SHL SUB SWAP1 SWAP2 AND OR DUP2 SSTORE DUP5 MLOAD DUP6 SWAP1 DUP6 SWAP1 DUP2 LT PUSH2 0x1154 JUMPI PUSH2 0x1154 PUSH2 0x1EFF JUMP JUMPDEST PUSH1 0x20 MUL PUSH1 0x20 ADD ADD MLOAD PUSH1 0x20 ADD MLOAD ISZERO PUSH2 0x123F JUMPI PUSH1 0x40 MLOAD PUSH4 0xBD02D0F5 PUSH1 0xE0 SHL DUP2 MSTORE PUSH32 0x5341464554595F424C4F434B535F4155544F4D41544943000000000000000000 PUSH1 0x4 DUP3 ADD MSTORE PUSH32 0x0 PUSH1 0x1 PUSH1 0x1 PUSH1 0xA0 SHL SUB AND SWAP1 PUSH4 0xBD02D0F5 SWAP1 PUSH1 0x24 ADD PUSH1 0x20 PUSH1 0x40 MLOAD DUP1 DUP4 SUB DUP2 DUP7 GAS STATICCALL ISZERO DUP1 ISZERO PUSH2 0x11E9 JUMPI RETURNDATASIZE PUSH1 0x0 DUP1 RETURNDATACOPY RETURNDATASIZE PUSH1 0x0 REVERT JUMPDEST POP POP POP POP PUSH1 0x40 MLOAD RETURNDATASIZE PUSH1 0x1F NOT PUSH1 0x1F DUP3 ADD AND DUP3 ADD DUP1 PUSH1 0x40 MSTORE POP DUP2 ADD SWAP1 PUSH2 0x120D SWAP2 SWAP1 PUSH2 0x1F44 JUMP JUMPDEST PUSH2 0x1217 SWAP1 NUMBER PUSH2 0x1F90 JUMP JUMPDEST DUP2 SLOAD PUSH1 0x1 PUSH1 0x1 PUSH1 0x40 SHL SUB SWAP2 SWAP1 SWAP2 AND PUSH1 0x1 PUSH1 0x80 SHL MUL PUSH8 0xFFFFFFFFFFFFFFFF PUSH1 0x80 SHL NOT SWAP1 SWAP2 AND OR DUP2 SSTORE JUMPDEST POP POP POP DUP1 DUP1 PUSH2 0x124D SWAP1 PUSH2 0x1F2B JUMP JUMPDEST SWAP2 POP POP PUSH2 0x107E JUMP JUMPDEST PUSH1 0x0 PUSH2 0x126A DUP4 PUSH1 0x1 PUSH1 0x1 PUSH1 0xA0 SHL SUB DUP5 AND PUSH2 0x1619 JUMP JUMPDEST SWAP4 SWAP3 POP POP POP JUMP JUMPDEST PUSH1 0x40 MLOAD PUSH4 0x21F8A721 PUSH1 0xE0 SHL DUP2 MSTORE PUSH22 0x5641554C545F52454749535452595F41444452455353 PUSH1 0x50 SHL PUSH1 0x4 DUP3 ADD MSTORE PUSH1 0x0 SWAP1 PUSH1 0x1 PUSH1 0x1 PUSH1 0xA0 SHL SUB DUP4 AND SWAP1 PUSH4 0x21F8A721 SWAP1 PUSH1 0x24 ADD PUSH2 0xD68 JUMP JUMPDEST PUSH1 0x0 PUSH2 0x126A DUP4 PUSH1 0x1 PUSH1 0x1 PUSH1 0xA0 SHL SUB DUP5 AND PUSH2 0x170C JUMP JUMPDEST PUSH1 0x60 PUSH1 0x0 PUSH2 0x126A DUP4 PUSH2 0x175B JUMP JUMPDEST PUSH1 0x1 PUSH1 0x1 PUSH1 0xA0 SHL SUB DUP2 AND PUSH1 0x0 SWAP1 DUP2 MSTORE PUSH1 0x1 DUP4 ADD PUSH1 0x20 MSTORE PUSH1 0x40 DUP2 KECCAK256 SLOAD ISZERO ISZERO PUSH2 0x126A JUMP JUMPDEST PUSH1 0x40 MLOAD PUSH4 0xBD02D0F5 PUSH1 0xE0 SHL DUP2 MSTORE PUSH22 0x29A0A322AA2CAFA12627A1A5A9AFA3AAA0A92224A0A7 PUSH1 0x51 SHL PUSH1 0x4 DUP3 ADD MSTORE PUSH32 0x0 PUSH1 0x1 PUSH1 0x1 PUSH1 0xA0 SHL SUB AND SWAP1 PUSH4 0xBD02D0F5 SWAP1 PUSH1 0x24 ADD PUSH1 0x20 PUSH1 0x40 MLOAD DUP1 DUP4 SUB DUP2 DUP7 GAS STATICCALL ISZERO DUP1 ISZERO PUSH2 0x137A JUMPI RETURNDATASIZE PUSH1 0x0 DUP1 RETURNDATACOPY RETURNDATASIZE PUSH1 0x0 REVERT JUMPDEST POP POP POP POP PUSH1 0x40 MLOAD RETURNDATASIZE PUSH1 0x1F NOT PUSH1 0x1F DUP3 ADD AND DUP3 ADD DUP1 PUSH1 0x40 MSTORE POP DUP2 ADD SWAP1 PUSH2 0x139E SWAP2 SWAP1 PUSH2 0x1F44 JUMP JUMPDEST DUP2 GT ISZERO PUSH1 0x40 MLOAD DUP1 PUSH1 0x40 ADD PUSH1 0x40 MSTORE DUP1 PUSH1 0x2 DUP2 MSTORE PUSH1 0x20 ADD PUSH2 0x1B19 PUSH1 0xF1 SHL DUP2 MSTORE POP SWAP1 PUSH2 0x13DA JUMPI PUSH1 0x40 MLOAD PUSH3 0x461BCD PUSH1 0xE5 SHL DUP2 MSTORE PUSH1 0x4 ADD PUSH2 0x39B SWAP2 SWAP1 PUSH2 0x1C95 JUMP JUMPDEST POP PUSH1 0x0 PUSH2 0x13E7 DUP3 NUMBER PUSH2 0x1F90 JUMP JUMPDEST SWAP1 POP PUSH1 0x0 DUP4 PUSH1 0x20 ADD MLOAD PUSH1 0x2 DUP2 GT ISZERO PUSH2 0x1401 JUMPI PUSH2 0x1401 PUSH2 0x1F5D JUMP JUMPDEST EQ DUP1 PUSH2 0x1422 JUMPI POP PUSH1 0x2 DUP4 PUSH1 0x20 ADD MLOAD PUSH1 0x2 DUP2 GT ISZERO PUSH2 0x1420 JUMPI PUSH2 0x1420 PUSH2 0x1F5D JUMP JUMPDEST EQ JUMPDEST ISZERO PUSH2 0x14AA JUMPI DUP3 MLOAD PUSH1 0x1 PUSH1 0x1 PUSH1 0xA0 SHL SUB SWAP1 DUP2 AND PUSH1 0x0 SWAP1 DUP2 MSTORE PUSH1 0x4 PUSH1 0x20 SWAP1 DUP2 MSTORE PUSH1 0x40 SWAP2 DUP3 SWAP1 KECCAK256 DUP1 SLOAD PUSH8 0xFFFFFFFFFFFFFFFF PUSH1 0x80 SHL NOT AND PUSH1 0x1 PUSH1 0x80 SHL PUSH1 0x1 PUSH1 0x1 PUSH1 0x40 SHL SUB DUP8 AND MUL OR SWAP1 SSTORE DUP6 MLOAD DUP3 MLOAD SWAP4 AND DUP4 MSTORE DUP3 ADD DUP5 SWAP1 MSTORE PUSH1 0x1 SWAP1 DUP3 ADD MSTORE PUSH32 0xD3A9973922556AA8A1D3200840E7B0ADC7851CB170484C2C7001999AE794ABC4 SWAP1 PUSH1 0x60 ADD PUSH1 0x40 MLOAD DUP1 SWAP2 SUB SWAP1 LOG1 JUMPDEST PUSH1 0x1 DUP4 PUSH1 0x20 ADD MLOAD PUSH1 0x2 DUP2 GT ISZERO PUSH2 0x14C2 JUMPI PUSH2 0x14C2 PUSH2 0x1F5D JUMP JUMPDEST EQ DUP1 PUSH2 0x14E3 JUMPI POP PUSH1 0x2 DUP4 PUSH1 0x20 ADD MLOAD PUSH1 0x2 DUP2 GT ISZERO PUSH2 0x14E1 JUMPI PUSH2 0x14E1 PUSH2 0x1F5D JUMP JUMPDEST EQ JUMPDEST ISZERO PUSH2 0x485 JUMPI DUP3 MLOAD PUSH1 0x1 PUSH1 0x1 PUSH1 0xA0 SHL SUB SWAP1 DUP2 AND PUSH1 0x0 SWAP1 DUP2 MSTORE PUSH1 0x4 PUSH1 0x20 SWAP1 DUP2 MSTORE PUSH1 0x40 DUP1 DUP4 KECCAK256 PUSH1 0x1 ADD DUP1 SLOAD PUSH8 0xFFFFFFFFFFFFFFFF PUSH1 0x80 SHL NOT AND PUSH1 0x1 PUSH1 0x80 SHL PUSH1 0x1 PUSH1 0x1 PUSH1 0x40 SHL SUB DUP9 AND MUL OR SWAP1 SSTORE DUP7 MLOAD DUP2 MLOAD SWAP5 AND DUP5 MSTORE SWAP1 DUP4 ADD DUP6 SWAP1 MSTORE DUP3 ADD MSTORE PUSH32 0xD3A9973922556AA8A1D3200840E7B0ADC7851CB170484C2C7001999AE794ABC4 SWAP1 PUSH1 0x60 ADD PUSH1 0x40 MLOAD DUP1 SWAP2 SUB SWAP1 LOG1 POP POP POP JUMP JUMPDEST PUSH1 0x0 DUP4 DUP4 EQ DUP1 PUSH2 0x157D JUMPI POP DUP5 ISZERO JUMPDEST ISZERO PUSH2 0x1589 JUMPI POP DUP4 PUSH2 0x15F0 JUMP JUMPDEST DUP4 DUP4 LT ISZERO PUSH2 0x15C0 JUMPI PUSH1 0x0 PUSH2 0x159D DUP5 DUP7 PUSH2 0x1FA3 JUMP JUMPDEST SWAP1 POP PUSH1 0x0 PUSH2 0x15AB DUP5 DUP4 PUSH2 0x17B7 JUMP JUMPDEST SWAP1 POP PUSH2 0x15B7 DUP8 DUP3 PUSH2 0x15F8 JUMP JUMPDEST SWAP3 POP POP POP PUSH2 0x15F0 JUMP JUMPDEST PUSH1 0x40 DUP1 MLOAD DUP1 DUP3 ADD DUP3 MSTORE PUSH1 0x2 DUP2 MSTORE PUSH2 0x3331 PUSH1 0xF0 SHL PUSH1 0x20 DUP3 ADD MSTORE SWAP1 MLOAD PUSH3 0x461BCD PUSH1 0xE5 SHL DUP2 MSTORE PUSH2 0x39B SWAP2 SWAP1 PUSH1 0x4 ADD PUSH2 0x1C95 JUMP JUMPDEST SWAP5 SWAP4 POP POP POP POP JUMP JUMPDEST PUSH1 0x0 DUP1 PUSH2 0x1605 DUP4 DUP6 PUSH2 0x1FB6 JUMP JUMPDEST SWAP1 POP PUSH2 0x15F0 PUSH8 0xDE0B6B3A7640000 DUP3 PUSH2 0x1FE3 JUMP JUMPDEST PUSH1 0x0 DUP2 DUP2 MSTORE PUSH1 0x1 DUP4 ADD PUSH1 0x20 MSTORE PUSH1 0x40 DUP2 KECCAK256 SLOAD DUP1 ISZERO PUSH2 0x1702 JUMPI PUSH1 0x0 PUSH2 0x163D PUSH1 0x1 DUP4 PUSH2 0x1FA3 JUMP JUMPDEST DUP6 SLOAD SWAP1 SWAP2 POP PUSH1 0x0 SWAP1 PUSH2 0x1651 SWAP1 PUSH1 0x1 SWAP1 PUSH2 0x1FA3 JUMP JUMPDEST SWAP1 POP DUP2 DUP2 EQ PUSH2 0x16B6 JUMPI PUSH1 0x0 DUP7 PUSH1 0x0 ADD DUP3 DUP2 SLOAD DUP2 LT PUSH2 0x1671 JUMPI PUSH2 0x1671 PUSH2 0x1EFF JUMP JUMPDEST SWAP1 PUSH1 0x0 MSTORE PUSH1 0x20 PUSH1 0x0 KECCAK256 ADD SLOAD SWAP1 POP DUP1 DUP8 PUSH1 0x0 ADD DUP5 DUP2 SLOAD DUP2 LT PUSH2 0x1694 JUMPI PUSH2 0x1694 PUSH2 0x1EFF JUMP JUMPDEST PUSH1 0x0 SWAP2 DUP3 MSTORE PUSH1 0x20 DUP1 DUP4 KECCAK256 SWAP1 SWAP2 ADD SWAP3 SWAP1 SWAP3 SSTORE SWAP2 DUP3 MSTORE PUSH1 0x1 DUP9 ADD SWAP1 MSTORE PUSH1 0x40 SWAP1 KECCAK256 DUP4 SWAP1 SSTORE JUMPDEST DUP6 SLOAD DUP7 SWAP1 DUP1 PUSH2 0x16C7 JUMPI PUSH2 0x16C7 PUSH2 0x1FF7 JUMP JUMPDEST PUSH1 0x1 SWAP1 SUB DUP2 DUP2 SWAP1 PUSH1 0x0 MSTORE PUSH1 0x20 PUSH1 0x0 KECCAK256 ADD PUSH1 0x0 SWAP1 SSTORE SWAP1 SSTORE DUP6 PUSH1 0x1 ADD PUSH1 0x0 DUP7 DUP2 MSTORE PUSH1 0x20 ADD SWAP1 DUP2 MSTORE PUSH1 0x20 ADD PUSH1 0x0 KECCAK256 PUSH1 0x0 SWAP1 SSTORE PUSH1 0x1 SWAP4 POP POP POP POP PUSH2 0xDA9 JUMP JUMPDEST PUSH1 0x0 SWAP2 POP POP PUSH2 0xDA9 JUMP JUMPDEST PUSH1 0x0 DUP2 DUP2 MSTORE PUSH1 0x1 DUP4 ADD PUSH1 0x20 MSTORE PUSH1 0x40 DUP2 KECCAK256 SLOAD PUSH2 0x1753 JUMPI POP DUP2 SLOAD PUSH1 0x1 DUP2 DUP2 ADD DUP5 SSTORE PUSH1 0x0 DUP5 DUP2 MSTORE PUSH1 0x20 DUP1 DUP3 KECCAK256 SWAP1 SWAP4 ADD DUP5 SWAP1 SSTORE DUP5 SLOAD DUP5 DUP3 MSTORE DUP3 DUP7 ADD SWAP1 SWAP4 MSTORE PUSH1 0x40 SWAP1 KECCAK256 SWAP2 SWAP1 SWAP2 SSTORE PUSH2 0xDA9 JUMP JUMPDEST POP PUSH1 0x0 PUSH2 0xDA9 JUMP JUMPDEST PUSH1 0x60 DUP2 PUSH1 0x0 ADD DUP1 SLOAD DUP1 PUSH1 0x20 MUL PUSH1 0x20 ADD PUSH1 0x40 MLOAD SWAP1 DUP2 ADD PUSH1 0x40 MSTORE DUP1 SWAP3 SWAP2 SWAP1 DUP2 DUP2 MSTORE PUSH1 0x20 ADD DUP3 DUP1 SLOAD DUP1 ISZERO PUSH2 0x17AB JUMPI PUSH1 0x20 MUL DUP3 ADD SWAP2 SWAP1 PUSH1 0x0 MSTORE PUSH1 0x20 PUSH1 0x0 KECCAK256 SWAP1 JUMPDEST DUP2 SLOAD DUP2 MSTORE PUSH1 0x20 ADD SWAP1 PUSH1 0x1 ADD SWAP1 DUP1 DUP4 GT PUSH2 0x1797 JUMPI JUMPDEST POP POP POP POP POP SWAP1 POP SWAP2 SWAP1 POP JUMP JUMPDEST PUSH1 0x0 PUSH8 0xDE0B6B3A7640000 JUMPDEST DUP3 ISZERO PUSH2 0x126A JUMPI PUSH2 0x17D4 PUSH1 0x2 DUP5 PUSH2 0x200D JUMP JUMPDEST PUSH1 0x1 SUB PUSH2 0x17E8 JUMPI PUSH2 0x17E5 DUP2 DUP6 PUSH2 0x15F8 JUMP JUMPDEST SWAP1 POP JUMPDEST PUSH2 0x17F3 PUSH1 0x2 DUP5 PUSH2 0x1FE3 JUMP JUMPDEST SWAP3 POP PUSH2 0x17FF DUP5 DUP6 PUSH2 0x15F8 JUMP JUMPDEST SWAP4 POP PUSH2 0x17C3 JUMP JUMPDEST PUSH4 0x4E487B71 PUSH1 0xE0 SHL PUSH1 0x0 MSTORE PUSH1 0x41 PUSH1 0x4 MSTORE PUSH1 0x24 PUSH1 0x0 REVERT JUMPDEST PUSH1 0x40 MLOAD PUSH1 0x80 DUP2 ADD PUSH1 0x1 PUSH1 0x1 PUSH1 0x40 SHL SUB DUP2 GT DUP3 DUP3 LT OR ISZERO PUSH2 0x183E JUMPI PUSH2 0x183E PUSH2 0x1806 JUMP JUMPDEST PUSH1 0x40 MSTORE SWAP1 JUMP JUMPDEST PUSH1 0x40 DUP1 MLOAD SWAP1 DUP2 ADD PUSH1 0x1 PUSH1 0x1 PUSH1 0x40 SHL SUB DUP2 GT DUP3 DUP3 LT OR ISZERO PUSH2 0x183E JUMPI PUSH2 0x183E PUSH2 0x1806 JUMP JUMPDEST PUSH1 0x40 MLOAD PUSH2 0x120 DUP2 ADD PUSH1 0x1 PUSH1 0x1 PUSH1 0x40 SHL SUB DUP2 GT DUP3 DUP3 LT OR ISZERO PUSH2 0x183E JUMPI PUSH2 0x183E PUSH2 0x1806 JUMP JUMPDEST PUSH1 0x40 MLOAD PUSH1 0x1F DUP3 ADD PUSH1 0x1F NOT AND DUP2 ADD PUSH1 0x1 PUSH1 0x1 PUSH1 0x40 SHL SUB DUP2 GT DUP3 DUP3 LT OR ISZERO PUSH2 0x18B1 JUMPI PUSH2 0x18B1 PUSH2 0x1806 JUMP JUMPDEST PUSH1 0x40 MSTORE SWAP2 SWAP1 POP JUMP JUMPDEST PUSH1 0x0 PUSH1 0x1 PUSH1 0x1 PUSH1 0x40 SHL SUB DUP3 GT ISZERO PUSH2 0x18D2 JUMPI PUSH2 0x18D2 PUSH2 0x1806 JUMP JUMPDEST POP PUSH1 0x5 SHL PUSH1 0x20 ADD SWAP1 JUMP JUMPDEST PUSH1 0x1 PUSH1 0x1 PUSH1 0xA0 SHL SUB DUP2 AND DUP2 EQ PUSH2 0x18F1 JUMPI PUSH1 0x0 DUP1 REVERT JUMPDEST POP JUMP JUMPDEST DUP1 CALLDATALOAD PUSH2 0x4DC DUP2 PUSH2 0x18DC JUMP JUMPDEST DUP1 CALLDATALOAD PUSH1 0xFF DUP2 AND DUP2 EQ PUSH2 0x4DC JUMPI PUSH1 0x0 DUP1 REVERT JUMPDEST DUP1 CALLDATALOAD PUSH1 0x1 PUSH1 0x1 PUSH1 0x40 SHL SUB DUP2 AND DUP2 EQ PUSH2 0x4DC JUMPI PUSH1 0x0 DUP1 REVERT JUMPDEST PUSH1 0x0 PUSH1 0xE0 DUP3 DUP5 SUB SLT ISZERO PUSH2 0x1939 JUMPI PUSH1 0x0 DUP1 REVERT JUMPDEST PUSH1 0x40 MLOAD PUSH1 0xE0 DUP2 ADD DUP2 DUP2 LT PUSH1 0x1 PUSH1 0x1 PUSH1 0x40 SHL SUB DUP3 GT OR ISZERO PUSH2 0x195B JUMPI PUSH2 0x195B PUSH2 0x1806 JUMP JUMPDEST DUP1 PUSH1 0x40 MSTORE POP DUP1 SWAP2 POP DUP3 CALLDATALOAD DUP2 MSTORE PUSH1 0x20 DUP4 ADD CALLDATALOAD PUSH1 0x20 DUP3 ADD MSTORE PUSH1 0x40 DUP4 ADD CALLDATALOAD PUSH1 0x40 DUP3 ADD MSTORE PUSH1 0x60 DUP4 ADD CALLDATALOAD PUSH1 0x60 DUP3 ADD MSTORE PUSH2 0x1991 PUSH1 0x80 DUP5 ADD PUSH2 0x1910 JUMP JUMPDEST PUSH1 0x80 DUP3 ADD MSTORE PUSH2 0x19A2 PUSH1 0xA0 DUP5 ADD PUSH2 0x1910 JUMP JUMPDEST PUSH1 0xA0 DUP3 ADD MSTORE PUSH2 0x19B3 PUSH1 0xC0 DUP5 ADD PUSH2 0x1910 JUMP JUMPDEST PUSH1 0xC0 DUP3 ADD MSTORE POP SWAP3 SWAP2 POP POP JUMP JUMPDEST DUP1 CALLDATALOAD DUP1 ISZERO ISZERO DUP2 EQ PUSH2 0x4DC JUMPI PUSH1 0x0 DUP1 REVERT JUMPDEST PUSH1 0x0 DUP3 PUSH1 0x1F DUP4 ADD SLT PUSH2 0x19E0 JUMPI PUSH1 0x0 DUP1 REVERT JUMPDEST DUP2 CALLDATALOAD PUSH1 0x20 PUSH2 0x19F5 PUSH2 0x19F0 DUP4 PUSH2 0x18B9 JUMP JUMPDEST PUSH2 0x1889 JUMP JUMPDEST DUP3 DUP2 MSTORE PUSH1 0xA0 SWAP3 DUP4 MUL DUP6 ADD DUP3 ADD SWAP3 DUP3 DUP3 ADD SWAP2 SWAP1 DUP8 DUP6 GT ISZERO PUSH2 0x1A14 JUMPI PUSH1 0x0 DUP1 REVERT JUMPDEST DUP4 DUP8 ADD JUMPDEST DUP6 DUP2 LT ISZERO PUSH2 0x1A9D JUMPI DUP1 DUP10 SUB DUP3 DUP2 SLT ISZERO PUSH2 0x1A31 JUMPI PUSH1 0x0 DUP1 DUP2 REVERT JUMPDEST PUSH2 0x1A39 PUSH2 0x181C JUMP JUMPDEST DUP3 CALLDATALOAD PUSH2 0x1A44 DUP2 PUSH2 0x18DC JUMP JUMPDEST DUP2 MSTORE PUSH2 0x1A51 DUP4 DUP9 ADD PUSH2 0x19BF JUMP JUMPDEST DUP8 DUP3 ADD MSTORE PUSH1 0x40 DUP1 DUP5 ADD CALLDATALOAD DUP2 DUP4 ADD MSTORE PUSH1 0x60 DUP2 PUSH1 0x5F NOT DUP6 ADD SLT ISZERO PUSH2 0x1A73 JUMPI PUSH1 0x0 DUP1 DUP2 REVERT JUMPDEST PUSH2 0x1A7B PUSH2 0x1844 JUMP JUMPDEST DUP6 DUP3 ADD CALLDATALOAD DUP2 MSTORE PUSH1 0x80 DUP7 ADD CALLDATALOAD DUP11 DUP3 ADD MSTORE SWAP1 DUP4 ADD MSTORE POP DUP6 MSTORE POP SWAP3 DUP5 ADD SWAP3 DUP2 ADD PUSH2 0x1A18 JUMP JUMPDEST POP SWAP1 SWAP8 SWAP7 POP POP POP POP POP POP POP JUMP JUMPDEST PUSH1 0x0 PUSH1 0x20 DUP3 DUP5 SUB SLT ISZERO PUSH2 0x1ABC JUMPI PUSH1 0x0 DUP1 REVERT JUMPDEST PUSH1 0x1 PUSH1 0x1 PUSH1 0x40 SHL SUB DUP1 DUP4 CALLDATALOAD GT ISZERO PUSH2 0x1AD2 JUMPI PUSH1 0x0 DUP1 REVERT JUMPDEST PUSH1 0x40 DUP4 CALLDATALOAD DUP5 ADD DUP6 SUB SLT ISZERO PUSH2 0x1AE5 JUMPI PUSH1 0x0 DUP1 REVERT JUMPDEST PUSH2 0x1AED PUSH2 0x1844 JUMP JUMPDEST DUP2 DUP5 CALLDATALOAD DUP6 ADD CALLDATALOAD GT ISZERO PUSH2 0x1AFE JUMPI PUSH1 0x0 DUP1 REVERT JUMPDEST DUP4 CALLDATALOAD DUP5 ADD DUP1 CALLDATALOAD ADD PUSH1 0x1F DUP2 ADD DUP7 SGT PUSH2 0x1B14 JUMPI PUSH1 0x0 DUP1 REVERT JUMPDEST PUSH2 0x1B21 PUSH2 0x19F0 DUP3 CALLDATALOAD PUSH2 0x18B9 JUMP JUMPDEST DUP2 CALLDATALOAD DUP1 DUP3 MSTORE PUSH1 0x20 DUP1 DUP4 ADD SWAP3 SWAP2 PUSH1 0x5 SHL DUP5 ADD ADD DUP9 LT ISZERO PUSH2 0x1B3F JUMPI PUSH1 0x0 DUP1 REVERT JUMPDEST PUSH1 0x20 DUP4 ADD JUMPDEST PUSH1 0x20 DUP5 CALLDATALOAD PUSH1 0x5 SHL DUP6 ADD ADD DUP2 LT ISZERO PUSH2 0x1C73 JUMPI DUP6 DUP2 CALLDATALOAD GT ISZERO PUSH2 0x1B63 JUMPI PUSH1 0x0 DUP1 REVERT JUMPDEST DUP1 CALLDATALOAD DUP5 ADD PUSH1 0x1F NOT PUSH1 0x40 DUP3 DUP13 SUB DUP3 ADD SLT ISZERO PUSH2 0x1B7C JUMPI PUSH1 0x0 DUP1 REVERT JUMPDEST PUSH2 0x1B84 PUSH2 0x1844 JUMP JUMPDEST DUP9 PUSH1 0x20 DUP5 ADD CALLDATALOAD GT ISZERO PUSH2 0x1B95 JUMPI PUSH1 0x0 DUP1 REVERT JUMPDEST PUSH1 0x20 DUP4 ADD CALLDATALOAD DUP4 ADD PUSH2 0x1E0 DUP4 DUP3 DUP16 SUB ADD SLT ISZERO PUSH2 0x1BAF JUMPI PUSH1 0x0 DUP1 REVERT JUMPDEST PUSH2 0x1BB7 PUSH2 0x1866 JUMP JUMPDEST SWAP3 POP PUSH2 0x1BC5 PUSH1 0x20 DUP3 ADD PUSH2 0x18F4 JUMP JUMPDEST DUP4 MSTORE PUSH2 0x1BD3 PUSH1 0x40 DUP3 ADD PUSH2 0x18FF JUMP JUMPDEST PUSH1 0x20 DUP5 ADD MSTORE PUSH2 0x1BE4 PUSH1 0x60 DUP3 ADD PUSH2 0x18F4 JUMP JUMPDEST PUSH1 0x40 DUP5 ADD MSTORE PUSH1 0x80 DUP2 ADD CALLDATALOAD PUSH1 0x60 DUP5 ADD MSTORE PUSH2 0x1C00 DUP14 PUSH1 0xA0 DUP4 ADD PUSH2 0x1927 JUMP JUMPDEST PUSH1 0x80 DUP5 ADD MSTORE PUSH2 0x180 DUP2 ADD CALLDATALOAD PUSH1 0xA0 DUP5 ADD MSTORE PUSH2 0x1A0 DUP2 ADD CALLDATALOAD PUSH1 0xC0 DUP5 ADD MSTORE PUSH2 0x1C0 DUP2 ADD CALLDATALOAD PUSH1 0xE0 DUP5 ADD MSTORE DUP10 PUSH2 0x1E0 DUP3 ADD CALLDATALOAD GT ISZERO PUSH2 0x1C38 JUMPI PUSH1 0x0 DUP1 REVERT JUMPDEST PUSH2 0x1C4C DUP14 PUSH1 0x20 PUSH2 0x1E0 DUP5 ADD CALLDATALOAD DUP5 ADD ADD PUSH2 0x19CF JUMP JUMPDEST PUSH2 0x100 DUP5 ADD MSTORE POP SWAP1 DUP2 MSTORE PUSH1 0x40 SWAP2 SWAP1 SWAP2 ADD CALLDATALOAD PUSH1 0x20 DUP1 DUP4 ADD SWAP2 SWAP1 SWAP2 MSTORE SWAP1 DUP5 MSTORE SWAP3 DUP4 ADD SWAP3 ADD PUSH2 0x1B44 JUMP JUMPDEST POP DUP4 MSTORE POP PUSH2 0x1C88 SWAP1 POP DUP5 CALLDATALOAD DUP6 ADD PUSH1 0x20 ADD PUSH2 0x19BF JUMP JUMPDEST PUSH1 0x20 DUP3 ADD MSTORE SWAP5 SWAP4 POP POP POP POP JUMP JUMPDEST PUSH1 0x0 PUSH1 0x20 DUP1 DUP4 MSTORE DUP4 MLOAD DUP1 DUP3 DUP6 ADD MSTORE PUSH1 0x0 JUMPDEST DUP2 DUP2 LT ISZERO PUSH2 0x1CC2 JUMPI DUP6 DUP2 ADD DUP4 ADD MLOAD DUP6 DUP3 ADD PUSH1 0x40 ADD MSTORE DUP3 ADD PUSH2 0x1CA6 JUMP JUMPDEST POP PUSH1 0x0 PUSH1 0x40 DUP3 DUP7 ADD ADD MSTORE PUSH1 0x40 PUSH1 0x1F NOT PUSH1 0x1F DUP4 ADD AND DUP6 ADD ADD SWAP3 POP POP POP SWAP3 SWAP2 POP POP JUMP JUMPDEST PUSH1 0x0 PUSH1 0x20 DUP3 DUP5 SUB SLT ISZERO PUSH2 0x1CF5 JUMPI PUSH1 0x0 DUP1 REVERT JUMPDEST DUP2 CALLDATALOAD PUSH2 0x126A DUP2 PUSH2 0x18DC JUMP JUMPDEST DUP1 MLOAD PUSH1 0x1 PUSH1 0x1 PUSH1 0x80 SHL SUB AND DUP3 MSTORE PUSH1 0x20 DUP1 DUP3 ADD MLOAD PUSH1 0x1 PUSH1 0x1 PUSH1 0x40 SHL SUB SWAP1 DUP2 AND SWAP2 DUP5 ADD SWAP2 SWAP1 SWAP2 MSTORE PUSH1 0x40 SWAP2 DUP3 ADD MLOAD AND SWAP2 ADD MSTORE JUMP JUMPDEST PUSH1 0xC0 DUP2 ADD PUSH2 0x1D3F DUP3 DUP6 PUSH2 0x1D00 JUMP JUMPDEST PUSH2 0x126A PUSH1 0x60 DUP4 ADD DUP5 PUSH2 0x1D00 JUMP JUMPDEST PUSH1 0x20 DUP1 DUP3 MSTORE DUP3 MLOAD DUP3 DUP3 ADD DUP2 SWAP1 MSTORE PUSH1 0x0 SWAP2 SWAP1 DUP5 DUP3 ADD SWAP1 PUSH1 0x40 DUP6 ADD SWAP1 DUP5 JUMPDEST DUP2 DUP2 LT ISZERO PUSH2 0x1DA1 JUMPI DUP4 MLOAD PUSH2 0x1D7D DUP5 DUP3 MLOAD PUSH2 0x1D00 JUMP JUMPDEST DUP6 ADD MLOAD PUSH2 0x1D8D PUSH1 0x60 DUP6 ADD DUP3 PUSH2 0x1D00 JUMP JUMPDEST POP SWAP3 DUP5 ADD SWAP3 PUSH1 0xC0 SWAP3 SWAP1 SWAP3 ADD SWAP2 PUSH1 0x1 ADD PUSH2 0x1D68 JUMP JUMPDEST POP SWAP1 SWAP7 SWAP6 POP POP POP POP POP POP JUMP JUMPDEST PUSH1 0x20 DUP1 DUP3 MSTORE DUP3 MLOAD DUP3 DUP3 ADD DUP2 SWAP1 MSTORE PUSH1 0x0 SWAP2 SWAP1 DUP5 DUP3 ADD SWAP1 PUSH1 0x40 DUP6 ADD SWAP1 DUP5 JUMPDEST DUP2 DUP2 LT ISZERO PUSH2 0x1DA1 JUMPI DUP4 MLOAD PUSH1 0x1 PUSH1 0x1 PUSH1 0xA0 SHL SUB AND DUP4 MSTORE SWAP3 DUP5 ADD SWAP3 SWAP2 DUP5 ADD SWAP2 PUSH1 0x1 ADD PUSH2 0x1DC9 JUMP JUMPDEST PUSH1 0x0 PUSH1 0x20 DUP3 DUP5 SUB SLT ISZERO PUSH2 0x1E00 JUMPI PUSH1 0x0 DUP1 REVERT JUMPDEST PUSH2 0x126A DUP3 PUSH2 0x19BF JUMP JUMPDEST PUSH1 0x0 DUP1 DUP3 DUP5 SUB PUSH1 0x60 DUP2 SLT ISZERO PUSH2 0x1E1D JUMPI PUSH1 0x0 DUP1 REVERT JUMPDEST PUSH1 0x40 DUP2 SLT ISZERO PUSH2 0x1E2B JUMPI PUSH1 0x0 DUP1 REVERT JUMPDEST POP PUSH2 0x1E34 PUSH2 0x1844 JUMP JUMPDEST DUP4 CALLDATALOAD PUSH2 0x1E3F DUP2 PUSH2 0x18DC JUMP JUMPDEST DUP2 MSTORE PUSH1 0x20 DUP5 ADD CALLDATALOAD PUSH1 0x3 DUP2 LT PUSH2 0x1E53 JUMPI PUSH1 0x0 DUP1 REVERT JUMPDEST PUSH1 0x20 DUP3 ADD MSTORE SWAP5 PUSH1 0x40 SWAP4 SWAP1 SWAP4 ADD CALLDATALOAD SWAP4 POP POP POP JUMP JUMPDEST PUSH1 0x0 PUSH1 0x20 DUP1 DUP4 DUP6 SUB SLT ISZERO PUSH2 0x1E79 JUMPI PUSH1 0x0 DUP1 REVERT JUMPDEST DUP3 MLOAD PUSH1 0x1 PUSH1 0x1 PUSH1 0x40 SHL SUB DUP2 GT ISZERO PUSH2 0x1E8F JUMPI PUSH1 0x0 DUP1 REVERT JUMPDEST DUP4 ADD PUSH1 0x1F DUP2 ADD DUP6 SGT PUSH2 0x1EA0 JUMPI PUSH1 0x0 DUP1 REVERT JUMPDEST DUP1 MLOAD PUSH2 0x1EAE PUSH2 0x19F0 DUP3 PUSH2 0x18B9 JUMP JUMPDEST DUP2 DUP2 MSTORE PUSH1 0x5 SWAP2 SWAP1 SWAP2 SHL DUP3 ADD DUP4 ADD SWAP1 DUP4 DUP2 ADD SWAP1 DUP8 DUP4 GT ISZERO PUSH2 0x1ECD JUMPI PUSH1 0x0 DUP1 REVERT JUMPDEST SWAP3 DUP5 ADD SWAP3 JUMPDEST DUP3 DUP5 LT ISZERO PUSH2 0x1EF4 JUMPI DUP4 MLOAD PUSH2 0x1EE5 DUP2 PUSH2 0x18DC JUMP JUMPDEST DUP3 MSTORE SWAP3 DUP5 ADD SWAP3 SWAP1 DUP5 ADD SWAP1 PUSH2 0x1ED2 JUMP JUMPDEST SWAP8 SWAP7 POP POP POP POP POP POP POP JUMP JUMPDEST PUSH4 0x4E487B71 PUSH1 0xE0 SHL PUSH1 0x0 MSTORE PUSH1 0x32 PUSH1 0x4 MSTORE PUSH1 0x24 PUSH1 0x0 REVERT JUMPDEST PUSH4 0x4E487B71 PUSH1 0xE0 SHL PUSH1 0x0 MSTORE PUSH1 0x11 PUSH1 0x4 MSTORE PUSH1 0x24 PUSH1 0x0 REVERT JUMPDEST PUSH1 0x0 PUSH1 0x1 DUP3 ADD PUSH2 0x1F3D JUMPI PUSH2 0x1F3D PUSH2 0x1F15 JUMP JUMPDEST POP PUSH1 0x1 ADD SWAP1 JUMP JUMPDEST PUSH1 0x0 PUSH1 0x20 DUP3 DUP5 SUB SLT ISZERO PUSH2 0x1F56 JUMPI PUSH1 0x0 DUP1 REVERT JUMPDEST POP MLOAD SWAP2 SWAP1 POP JUMP JUMPDEST PUSH4 0x4E487B71 PUSH1 0xE0 SHL PUSH1 0x0 MSTORE PUSH1 0x21 PUSH1 0x4 MSTORE PUSH1 0x24 PUSH1 0x0 REVERT JUMPDEST PUSH1 0x0 PUSH1 0x20 DUP3 DUP5 SUB SLT ISZERO PUSH2 0x1F85 JUMPI PUSH1 0x0 DUP1 REVERT JUMPDEST DUP2 MLOAD PUSH2 0x126A DUP2 PUSH2 0x18DC JUMP JUMPDEST DUP1 DUP3 ADD DUP1 DUP3 GT ISZERO PUSH2 0xDA9 JUMPI PUSH2 0xDA9 PUSH2 0x1F15 JUMP JUMPDEST DUP2 DUP2 SUB DUP2 DUP2 GT ISZERO PUSH2 0xDA9 JUMPI PUSH2 0xDA9 PUSH2 0x1F15 JUMP JUMPDEST DUP1 DUP3 MUL DUP2 ISZERO DUP3 DUP3 DIV DUP5 EQ OR PUSH2 0xDA9 JUMPI PUSH2 0xDA9 PUSH2 0x1F15 JUMP JUMPDEST PUSH4 0x4E487B71 PUSH1 0xE0 SHL PUSH1 0x0 MSTORE PUSH1 0x12 PUSH1 0x4 MSTORE PUSH1 0x24 PUSH1 0x0 REVERT JUMPDEST PUSH1 0x0 DUP3 PUSH2 0x1FF2 JUMPI PUSH2 0x1FF2 PUSH2 0x1FCD JUMP JUMPDEST POP DIV SWAP1 JUMP JUMPDEST PUSH4 0x4E487B71 PUSH1 0xE0 SHL PUSH1 0x0 MSTORE PUSH1 0x31 PUSH1 0x4 MSTORE PUSH1 0x24 PUSH1 0x0 REVERT JUMPDEST PUSH1 0x0 DUP3 PUSH2 0x201C JUMPI PUSH2 0x201C PUSH2 0x1FCD JUMP JUMPDEST POP MOD SWAP1 JUMP INVALID LOG2 PUSH5 0x6970667358 0x22 SLT KECCAK256 DUP9 SELFDESTRUCT 0xF9 0xE6 0xFB 0xB8 PUSH27 0x971441644F7CE74495B292CF5261007D0A9A0FF40CA4711C976473 PUSH16 0x6C634300081100330000000000000000 ","sha1":"de88678b5bfde26a0cbcefabaf93c09d86316498","source":"// SPDX-License-Identifier: LicenseRef-Gyro-1.0\n// for information on licensing please see the README in the GitHub repository <https://github.com/gyrostable/core-protocol>.\npragma solidity ^0.8.4;\n\nimport \"@openzeppelin/contracts/token/ERC20/utils/SafeERC20.sol\";\nimport \"@openzeppelin/contracts/token/ERC20/ERC20.sol\";\nimport \"@openzeppelin/contracts/utils/structs/EnumerableSet.sol\";\n\nimport \"./../auth/Governable.sol\";\nimport \"../../libraries/DataTypes.sol\";\nimport \"../../interfaces/IGyroConfig.sol\";\nimport \"../../interfaces/IAssetRegistry.sol\";\nimport \"../../interfaces/IGyroVault.sol\";\nimport \"../../interfaces/balancer/IVault.sol\";\nimport \"../../libraries/Errors.sol\";\nimport \"../../interfaces/ISafetyCheck.sol\";\nimport \"../../interfaces/IVaultRegistry.sol\";\nimport \"../../libraries/FixedPoint.sol\";\nimport \"../../libraries/Flow.sol\";\nimport \"../../libraries/Errors.sol\";\nimport \"../../libraries/StringExtensions.sol\";\nimport \"../../libraries/ConfigHelpers.sol\";\n\ncontract VaultSafetyMode is ISafetyCheck, Governable {\n    using FixedPoint for uint256;\n    using StringExtensions for string;\n    using EnumerableSet for EnumerableSet.AddressSet;\n    using ConfigHelpers for IGyroConfig;\n\n    EnumerableSet.AddressSet internal whitelist;\n\n    /// @notice Emitted when entering safety mode\n    event SafetyStatus(string err);\n\n    /// @notice Emitted when a whitelisted address protects a vault\n    event OracleGuardianActivated(\n        address vaultAddress,\n        uint256 durationOfProtectionInBlocks,\n        bool inFlows\n    );\n\n    event AddedToWhitelist(address indexed account);\n    event RemovedFromWhitelist(address indexed account);\n\n    struct FlowResult {\n        uint256 newFlow;\n        bool safetyModeActivated;\n    }\n\n    mapping(address => DataTypes.FlowData) public persistedFlowData;\n\n    IGyroConfig public immutable gyroConfig;\n\n    uint256 public constant THRESHOLD_BUFFER = 8e17;\n\n    constructor(address governor, address _gyroConfig) Governable(governor) {\n        gyroConfig = IGyroConfig(_gyroConfig);\n    }\n\n    modifier rootSafetyCheckOnly() {\n        require(msg.sender == address(gyroConfig.getRootSafetyCheck()), Errors.NOT_AUTHORIZED);\n        _;\n    }\n\n    /// @notice Checks whether a mint operation is safe\n    /// @return err empty string if it is safe, otherwise the reason why it is not safe\n    function isMintSafe(DataTypes.Order memory order) external view returns (string memory err) {\n        if (order.mint) {\n            (err, ) = _checkFlows(order);\n            if (err.equals(Errors.OPERATION_SUCCEEDS_BUT_SAFETY_MODE_ACTIVATED)) {\n                err = \"\";\n            }\n        } else {\n            err = Errors.INVALID_ARGUMENT;\n        }\n    }\n\n    /// @inheritdoc ISafetyCheck\n    function checkAndPersistMint(DataTypes.Order memory order) external rootSafetyCheckOnly {\n        require(order.mint, Errors.INVALID_ARGUMENT);\n        (string memory err, FlowResult[] memory result) = _checkFlows(order);\n\n        if (bytes(err).length > 0) {\n            if (err.equals(Errors.OPERATION_SUCCEEDS_BUT_SAFETY_MODE_ACTIVATED)) {\n                emit SafetyStatus(err);\n            } else {\n                revert(err);\n            }\n        }\n\n        _updateFlows(order, result);\n    }\n\n    /// @notice Checks whether a redeem operation is safe\n    /// @return err empty string if it is safe, otherwise the reason why it is not safe\n    function isRedeemSafe(DataTypes.Order memory order) external view returns (string memory err) {\n        if (!order.mint) {\n            (err, ) = _checkFlows(order);\n            if (err.equals(Errors.OPERATION_SUCCEEDS_BUT_SAFETY_MODE_ACTIVATED)) {\n                err = \"\";\n            }\n        } else {\n            err = Errors.INVALID_ARGUMENT;\n        }\n    }\n\n    /// @notice Checks whether a redeem operation is safe\n    /// This is only called when an actual redeem is performed\n    /// The implementation should store any relevant information for the redeem\n    function checkAndPersistRedeem(DataTypes.Order memory order) external rootSafetyCheckOnly {\n        require(!order.mint, Errors.INVALID_ARGUMENT);\n        (string memory err, FlowResult[] memory result) = _checkFlows(order);\n\n        if (bytes(err).length > 0) {\n            if (err.equals(Errors.OPERATION_SUCCEEDS_BUT_SAFETY_MODE_ACTIVATED)) {\n                emit SafetyStatus(err);\n            } else {\n                revert(err);\n            }\n        }\n\n        _updateFlows(order, result);\n    }\n\n    function getWhitelist() external view returns (address[] memory) {\n        return whitelist.values();\n    }\n\n    function addAddressToWhitelist(address _addressToAdd) external governanceOnly {\n        whitelist.add(_addressToAdd);\n        emit AddedToWhitelist(_addressToAdd);\n    }\n\n    function removeAddressFromWhitelist(address _addressToRemove) external governanceOnly {\n        whitelist.remove(_addressToRemove);\n        emit RemovedFromWhitelist(_addressToRemove);\n    }\n\n    modifier isWhitelisted(address _address) {\n        require(whitelist.contains(_address), Errors.NOT_AUTHORIZED);\n        _;\n    }\n\n    function activateOracleGuardian(DataTypes.GuardedVaults memory vaultToProtect, uint256 blocks)\n        external\n        isWhitelisted(msg.sender)\n    {\n        _activateOracleGuardian(vaultToProtect, blocks);\n    }\n\n    function pauseProtocol(bool depositsOnly) external isWhitelisted(msg.sender) {\n        IVaultRegistry vaultRegistry = gyroConfig.getVaultRegistry();\n        address[] memory vaults = vaultRegistry.listVaults();\n        DataTypes.Direction direction = depositsOnly\n            ? DataTypes.Direction.In\n            : DataTypes.Direction.Both;\n        uint256 blocksToActivate = gyroConfig.getUint(ConfigKeys.SAFETY_BLOCKS_GUARDIAN);\n        for (uint256 i = 0; i < vaults.length; i++) {\n            DataTypes.GuardedVaults memory vaultToProtect = DataTypes.GuardedVaults(\n                vaults[i],\n                direction\n            );\n            _activateOracleGuardian(vaultToProtect, blocksToActivate);\n        }\n    }\n\n    function getAllPersistedFlowData() external view returns (DataTypes.FlowData[] memory) {\n        IVaultRegistry vaultRegistry = gyroConfig.getVaultRegistry();\n        address[] memory vaults = vaultRegistry.listVaults();\n        DataTypes.FlowData[] memory allFlowData = new DataTypes.FlowData[](vaults.length);\n        for (uint256 i = 0; i < vaults.length; i++) {\n            allFlowData[i] = persistedFlowData[vaults[i]];\n        }\n        return allFlowData;\n    }\n\n    function _checkFlows(DataTypes.Order memory order)\n        internal\n        view\n        returns (string memory err, FlowResult[] memory result)\n    {\n        result = new FlowResult[](order.vaultsWithAmount.length);\n\n        for (uint256 i; i < order.vaultsWithAmount.length; i++) {\n            uint256 amount = order.vaultsWithAmount[i].amount;\n            DataTypes.VaultInfo memory vault = order.vaultsWithAmount[i].vaultInfo;\n            DataTypes.FlowData storage flowData = persistedFlowData[vault.vault];\n            DataTypes.DirectionalFlowData memory directionalData;\n            directionalData = order.mint ? flowData.inFlow : flowData.outFlow;\n\n            if (amount > 0 && block.number <= directionalData.lastSafetyBlock) {\n                err = Errors.SAFETY_MODE_ACTIVATED;\n                break;\n            }\n\n            uint256 shortFlowThreshold = vault.persistedMetadata.shortFlowThreshold;\n            uint256 newFlow = amount +\n                Flow.updateFlow(\n                    directionalData.shortFlow,\n                    block.number,\n                    directionalData.lastSeenBlock,\n                    vault.persistedMetadata.shortFlowMemory\n                );\n\n            if (amount > 0 && newFlow > shortFlowThreshold) {\n                err = Errors.VAULT_FLOW_TOO_HIGH;\n                break;\n            }\n\n            bool activateSafetyMode = newFlow > THRESHOLD_BUFFER.mulDown(shortFlowThreshold);\n            if (activateSafetyMode) {\n                err = Errors.OPERATION_SUCCEEDS_BUT_SAFETY_MODE_ACTIVATED;\n            }\n\n            result[i] = FlowResult(newFlow, activateSafetyMode);\n        }\n    }\n\n    function _updateFlows(DataTypes.Order memory order, FlowResult[] memory result) internal {\n        for (uint256 i; i < order.vaultsWithAmount.length; i++) {\n            DataTypes.VaultInfo memory vault = order.vaultsWithAmount[i].vaultInfo;\n            DataTypes.FlowData storage flowData = persistedFlowData[vault.vault];\n            DataTypes.DirectionalFlowData storage directionalData;\n            if (order.mint) {\n                directionalData = flowData.inFlow;\n            } else {\n                directionalData = flowData.outFlow;\n            }\n            directionalData.lastSeenBlock = uint64(block.number);\n            directionalData.shortFlow = uint128(result[i].newFlow);\n            if (result[i].safetyModeActivated) {\n                directionalData.lastSafetyBlock = uint64(\n                    block.number + gyroConfig.getUint(ConfigKeys.SAFETY_BLOCKS_AUTOMATIC)\n                );\n            }\n        }\n    }\n\n    function _activateOracleGuardian(DataTypes.GuardedVaults memory vaultToProtect, uint256 blocks)\n        internal\n    {\n        require(\n            blocks <= gyroConfig.getUint(ConfigKeys.SAFETY_BLOCKS_GUARDIAN),\n            Errors.ORACLE_GUARDIAN_TIME_LIMIT\n        );\n\n        uint64 targetBlock = uint64(block.number + blocks);\n        if (\n            vaultToProtect.direction == DataTypes.Direction.In ||\n            vaultToProtect.direction == DataTypes.Direction.Both\n        ) {\n            persistedFlowData[vaultToProtect.vaultAddress].inFlow.lastSafetyBlock = targetBlock;\n            emit OracleGuardianActivated(vaultToProtect.vaultAddress, blocks, true);\n        }\n        if (\n            vaultToProtect.direction == DataTypes.Direction.Out ||\n            vaultToProtect.direction == DataTypes.Direction.Both\n        ) {\n            persistedFlowData[vaultToProtect.vaultAddress].outFlow.lastSafetyBlock = targetBlock;\n            emit OracleGuardianActivated(vaultToProtect.vaultAddress, blocks, false);\n        }\n    }\n}\n","sourcePath":"contracts/safety/VaultSafetyMode.sol","type":"contract","deployment":{"address":"0x84B22e0f83d848eaD9fC050734e946b665232c0e","chainid":"1","blockHeight":18387912}}