{"bytecode":"60c06040523480156200001157600080fd5b506040516200293838038062002938833981016040819052620000349162000140565b816200003f62000058565b6001600160a01b039081166080521660a052506200017f565b600154600160a81b900460ff1615620000c75760405162461bcd60e51b815260206004820152602760248201527f496e697469616c697a61626c653a20636f6e747261637420697320696e697469604482015266616c697a696e6760c81b606482015260840160405180910390fd5b60015460ff600160a01b9091048116101562000125576001805460ff60a01b191660ff60a01b17905560405160ff81527f7f26b83ff96e1f2b6a682f133852f6798a09c465da95921460cefb38474024989060200160405180910390a15b565b6001600160a01b03811681146200013d57600080fd5b50565b600080604083850312156200015457600080fd5b8251620001618162000127565b6020840151909250620001748162000127565b809150509250929050565b60805160a05161278c620001ac6000396000818161029d0152610ac501526000610360015261278c6000f3fe608060405234801561001057600080fd5b50600436106102275760003560e01c8063679aefce11610130578063b14b9f4d116100b8578063dd62ed3e1161007c578063dd62ed3e146104cc578063e2bbb158146104df578063e3056a34146104f2578063e4c0aaf414610505578063eae4c19f1461051857600080fd5b8063b14b9f4d14610478578063c4d66de81461048b578063c70920bc1461049e578063cc04feff146104a6578063d505accf146104b957600080fd5b806395d89b41116100ff57806395d89b4114610421578063a457c2d714610429578063a8c62e761461043c578063a9059cbb14610450578063aa6ca8081461046357600080fd5b8063679aefce146103365780636f307dc3146103d157806370a08231146103e55780637ecebe001461040e57600080fd5b80633644e515116101b3578063441a3e7011610182578063441a3e701461034857806344bbdb551461035b5780634ac032be146103825780634cf5fbf51461039d578063550d2b62146103b057600080fd5b80633644e5151461031b57806339509351146103235780633ba0b9a9146103365780633e0dc34e1461033e57600080fd5b806318160ddd116101fa57806318160ddd146102bf578063238efcbc146102d157806323b872dd146102db578063313ce567146102ee57806333a100ca1461030857600080fd5b806306fdde031461022c578063095ea7b31461024a5780630c340a241461026d578063158274a514610298575b600080fd5b610234610522565b6040516102419190611f71565b60405180910390f35b61025d610258366004611f99565b6105b4565b6040519015158152602001610241565b600054610280906001600160a01b031681565b6040516001600160a01b039091168152602001610241565b6102807f000000000000000000000000000000000000000000000000000000000000000081565b6036545b604051908152602001610241565b6102d96105ce565b005b61025d6102e9366004611fc5565b610687565b6102f66106ab565b60405160ff9091168152602001610241565b6102d9610316366004612006565b61071f565b6102c3610788565b61025d610331366004611f99565b610792565b6102c36107b4565b6102c36101345481565b6102c3610356366004612023565b6107c0565b6102807f000000000000000000000000000000000000000000000000000000000000000081565b610135546103909060ff1681565b604051610241919061205b565b6102c36103ab366004612083565b6108ce565b6103c36103be366004612023565b6109be565b6040516102419291906120b8565b61013154610280906001600160a01b031681565b6102c36103f3366004612006565b6001600160a01b031660009081526034602052604090205490565b6102c361041c366004612006565b610a09565b610234610a27565b61025d610437366004611f99565b610a36565b61013354610280906001600160a01b031681565b61025d61045e366004611f99565b610ab1565b61046b610abf565b60405161024191906120d1565b6102d96104863660046121d5565b610b62565b6102d9610499366004612006565b610c80565b6102c3610d63565b6103c36104b4366004612023565b610dd1565b6102d96104c736600461227d565b610deb565b6102c36104da3660046122ee565b610f4f565b6102c36104ed366004612023565b610f7a565b600154610280906001600160a01b031681565b6102d9610513366004612006565b610f8e565b6102c36101325481565b60606037805461053190612327565b80601f016020809104026020016040519081016040528092919081815260200182805461055d90612327565b80156105aa5780601f1061057f576101008083540402835291602001916105aa565b820191906000526020600020905b81548152906001019060200180831161058d57829003601f168201915b5050505050905090565b6000336105c2818585611063565b60019150505b92915050565b600154604080518082019091526002815261033360f41b6020820152906001600160a01b0316331461061c5760405162461bcd60e51b81526004016106139190611f71565b60405180910390fd5b5060008054600180546001600160a01b03198084166001600160a01b03808416919091179095551690556040805192909116808352336020840152917fde4b3f61490b74c0ed6237523974fe299126bbbf8a8a7482fd220104c59b0c8491015b60405180910390a150565b600033610695858285611188565b6106a0858585611202565b506001949350505050565b610131546040805163313ce56760e01b815290516000926001600160a01b03169163313ce5679160048083019260209291908290030181865afa1580156106f6573d6000803e3d6000fd5b505050506040513d601f19601f8201168201806040525081019061071a919061235b565b905090565b600054604080518082019091526002815261033360f41b6020820152906001600160a01b031633146107645760405162461bcd60e51b81526004016106139190611f71565b5061013380546001600160a01b0319166001600160a01b0392909216919091179055565b600061071a6113ad565b6000336105c28185856107a58383610f4f565b6107af919061238e565b611063565b600061071a6000611428565b600080831160405180604001604052806002815260200161333160f01b815250906107fe5760405162461bcd60e51b81526004016106139190611f71565b5033600090815260346020526040812054905083811015604051806040016040528060028152602001610ccd60f21b8152509061084e5760405162461bcd60e51b81526004016106139190611f71565b5060006108596107b4565b90506108658582611481565b925083831015604051806040016040528060018152602001601960f91b815250906108a35760405162461bcd60e51b81526004016106139190611f71565b506108ae33866114a2565b610131546108c6906001600160a01b031633856115d3565b505092915050565b6000806108db6001611428565b610131549091506108f7906001600160a01b0316333087611636565b610901848261166e565b915061090c60365490565b60000361093957600061091d6116e1565b905061092b61dead82611702565b61093581846123a1565b9250505b60408051808201909152600381526231303360e81b6020820152826109715760405162461bcd60e51b81526004016106139190611f71565b506040805180820190915260018152601960f91b6020820152838310156109ab5760405162461bcd60e51b81526004016106139190611f71565b506109b68583611702565b509392505050565b6000606060006109ce6001611428565b90506109da858261166e565b925083831015610a0157604051806040016040528060018152602001601960f91b81525091505b509250929050565b6001600160a01b0381166000908152609a60205260408120546105c8565b60606038805461053190612327565b60003381610a448286610f4f565b905083811015610aa45760405162461bcd60e51b815260206004820152602560248201527f45524332303a2064656372656173656420616c6c6f77616e63652062656c6f77604482015264207a65726f60d81b6064820152608401610613565b6106a08286868403611063565b6000336105c2818585611202565b606060007f00000000000000000000000000000000000000000000000000000000000000006001600160a01b031663f94d4668610134546040518263ffffffff1660e01b8152600401610b1491815260200190565b600060405180830381865afa158015610b31573d6000803e3d6000fd5b505050506040513d6000823e601f3d908101601f19168201604052610b599190810190612443565b50909392505050565b600154600160a81b900460ff1615808015610b88575060018054600160a01b900460ff16105b80610ba85750303b158015610ba8575060018054600160a01b900460ff16145b610bc45760405162461bcd60e51b815260040161061390612511565b6001805460ff60a01b1916600160a01b1790558015610bf1576001805460ff60a81b1916600160a81b1790555b610c06610bfe8760601c90565b8686866117c3565b610134869055610135805483919060ff19166001836004811115610c2c57610c2c612045565b02179055508015610c78576001805460ff60a81b191681556040519081527f7f26b83ff96e1f2b6a682f133852f6798a09c465da95921460cefb38474024989060200160405180910390a15b505050505050565b600154600160a81b900460ff1615808015610ca6575060018054600160a01b900460ff16105b80610cc65750303b158015610cc6575060018054600160a01b900460ff16145b610ce25760405162461bcd60e51b815260040161061390612511565b6001805460ff60a01b1916600160a01b1790558015610d0f576001805460ff60a81b1916600160a81b1790555b610d1882611841565b8015610d5f576001805460ff60a81b191681556040519081527f7f26b83ff96e1f2b6a682f133852f6798a09c465da95921460cefb38474024989060200160405180910390a15b5050565b610131546040516370a0823160e01b81523060048201526000916001600160a01b0316906370a0823190602401602060405180830381865afa158015610dad573d6000803e3d6000fd5b505050506040513d601f19601f8201168201806040525081019061071a919061255f565b600060606000610ddf6107b4565b90506109da8582611481565b83421115610e3b5760405162461bcd60e51b815260206004820152601d60248201527f45524332305065726d69743a206578706972656420646561646c696e650000006044820152606401610613565b60007f6e71edae12b1b97f4d1f60370fef10105fa2faae0126114a169c64845d6126c9888888610e6a8c611895565b6040805160208101969096526001600160a01b0394851690860152929091166060840152608083015260a082015260c0810186905260e0016040516020818303038152906040528051906020012090506000610ec5826118bd565b90506000610ed58287878761190b565b9050896001600160a01b0316816001600160a01b031614610f385760405162461bcd60e51b815260206004820152601e60248201527f45524332305065726d69743a20696e76616c6964207369676e617475726500006044820152606401610613565b610f438a8a8a611063565b50505050505050505050565b6001600160a01b03918216600090815260356020908152604080832093909416825291909152205490565b6000610f873384846108ce565b9392505050565b600054604080518082019091526002815261033360f41b6020820152906001600160a01b03163314610fd35760405162461bcd60e51b81526004016106139190611f71565b50604080518082019091526002815261333160f01b60208201526001600160a01b0382166110145760405162461bcd60e51b81526004016106139190611f71565b50600180546001600160a01b0319166001600160a01b0383169081179091556040519081527f67235ba2e63c748a35b95c4f92a3bbc2a1389938170a5ce6c9add5d0b03a314a9060200161067c565b6001600160a01b0383166110c55760405162461bcd60e51b8152602060048201526024808201527f45524332303a20617070726f76652066726f6d20746865207a65726f206164646044820152637265737360e01b6064820152608401610613565b6001600160a01b0382166111265760405162461bcd60e51b815260206004820152602260248201527f45524332303a20617070726f766520746f20746865207a65726f206164647265604482015261737360f01b6064820152608401610613565b6001600160a01b0383811660008181526035602090815260408083209487168084529482529182902085905590518481527f8c5be1e5ebec7d5bd14f71427d1e84f3dd0314c0f7b2291e5b200ac8c7c3b92591015b60405180910390a3505050565b60006111948484610f4f565b905060001981146111fc57818110156111ef5760405162461bcd60e51b815260206004820152601d60248201527f45524332303a20696e73756666696369656e7420616c6c6f77616e63650000006044820152606401610613565b6111fc8484848403611063565b50505050565b6001600160a01b0383166112665760405162461bcd60e51b815260206004820152602560248201527f45524332303a207472616e736665722066726f6d20746865207a65726f206164604482015264647265737360d81b6064820152608401610613565b6001600160a01b0382166112c85760405162461bcd60e51b815260206004820152602360248201527f45524332303a207472616e7366657220746f20746865207a65726f206164647260448201526265737360e81b6064820152608401610613565b6001600160a01b038316600090815260346020526040902054818110156113405760405162461bcd60e51b815260206004820152602660248201527f45524332303a207472616e7366657220616d6f756e7420657863656564732062604482015265616c616e636560d01b6064820152608401610613565b6001600160a01b0380851660008181526034602052604080822086860390559286168082529083902080548601905591517fddf252ad1be2c89b69c2b068fc378daa952ba7f163c4a11628f55a4df523b3ef906113a09086815260200190565b60405180910390a36111fc565b600061071a7f8b73c3c69bb8fe3d512ecc4cf759cc79239f7b179b0ffacaa9a75d522b39400f6113dc60665490565b6067546040805160208101859052908101839052606081018290524660808201523060a082015260009060c0016040516020818303038152906040528051906020012090509392505050565b600080611433610d63565b9050600061144060365490565b90508060000361145b5750670de0b6b3a76400009392505050565b8361146f5761146a828261166e565b611479565b6114798282611933565b949350505050565b60008061148e8385612578565b9050611479670de0b6b3a7640000826125a5565b6001600160a01b0382166115025760405162461bcd60e51b815260206004820152602160248201527f45524332303a206275726e2066726f6d20746865207a65726f206164647265736044820152607360f81b6064820152608401610613565b6001600160a01b038216600090815260346020526040902054818110156115765760405162461bcd60e51b815260206004820152602260248201527f45524332303a206275726e20616d6f756e7420657863656564732062616c616e604482015261636560f01b6064820152608401610613565b6001600160a01b03831660008181526034602090815260408083208686039055603680548790039055518581529192917fddf252ad1be2c89b69c2b068fc378daa952ba7f163c4a11628f55a4df523b3ef910161117b565b505050565b6040516001600160a01b0383166024820152604481018290526115ce90849063a9059cbb60e01b906064015b60408051601f198184030181529190526020810180516001600160e01b03166001600160e01b0319909316929092179091526119b2565b6040516001600160a01b03808516602483015283166044820152606481018290526111fc9085906323b872dd60e01b906084016115ff565b604080518082019091526002815261323560f01b6020820152600090826116a85760405162461bcd60e51b81526004016106139190611f71565b50826000036116b9575060006105c8565b60006116cd670de0b6b3a764000085612578565b90506116d983826125a5565b9150506105c8565b600060086116ed6106ab565b60ff16116116fb5750600a90565b506103e890565b6001600160a01b0382166117585760405162461bcd60e51b815260206004820152601f60248201527f45524332303a206d696e7420746f20746865207a65726f2061646472657373006044820152606401610613565b806036600082825461176a919061238e565b90915550506001600160a01b0382166000818152603460209081526040808320805486019055518481527fddf252ad1be2c89b69c2b068fc378daa952ba7f163c4a11628f55a4df523b3ef910160405180910390a35050565b604080518082019091526002815261333160f01b60208201526001600160a01b0385166118035760405162461bcd60e51b81526004016106139190611f71565b5061013180546001600160a01b0319166001600160a01b038616179055436101325561182e83611841565b6118388282611a84565b6111fc82611ab7565b600080546001600160a01b0319166001600160a01b03831690811782556040805192835260208301919091527fde4b3f61490b74c0ed6237523974fe299126bbbf8a8a7482fd220104c59b0c84910161067c565b6001600160a01b0381166000908152609a602052604090208054600181018255905b50919050565b60006105c86118ca6113ad565b8360405161190160f01b6020820152602281018390526042810182905260009060620160405160208183030381529060405280519060200120905092915050565b600080600061191c87878787611b06565b9150915061192981611bca565b5095945050505050565b604080518082019091526002815261323560f01b60208201526000908261196d5760405162461bcd60e51b81526004016106139190611f71565b508260000361197e575060006105c8565b6000611992670de0b6b3a764000085612578565b90508260018203816119a6576119a661258f565b046001019150506105c8565b6000611a07826040518060400160405280602081526020017f5361666545524332303a206c6f772d6c6576656c2063616c6c206661696c6564815250856001600160a01b0316611d149092919063ffffffff16565b8051909150156115ce5780806020019051810190611a2591906125c7565b6115ce5760405162461bcd60e51b815260206004820152602a60248201527f5361666545524332303a204552433230206f7065726174696f6e20646964206e6044820152691bdd081cdd58d8d9595960b21b6064820152608401610613565b600154600160a81b900460ff16611aad5760405162461bcd60e51b8152600401610613906125e9565b610d5f8282611d23565b600154600160a81b900460ff16611ae05760405162461bcd60e51b8152600401610613906125e9565b611b0381604051806040016040528060018152602001603160f81b815250611d65565b50565b6000807f7fffffffffffffffffffffffffffffff5d576e7357a4501ddfe92f46681b20a0831115611b3d5750600090506003611bc1565b6040805160008082526020820180845289905260ff881692820192909252606081018690526080810185905260019060a0016020604051602081039080840390855afa158015611b91573d6000803e3d6000fd5b5050604051601f1901519150506001600160a01b038116611bba57600060019250925050611bc1565b9150600090505b94509492505050565b6000816004811115611bde57611bde612045565b03611be65750565b6001816004811115611bfa57611bfa612045565b03611c475760405162461bcd60e51b815260206004820152601860248201527f45434453413a20696e76616c6964207369676e617475726500000000000000006044820152606401610613565b6002816004811115611c5b57611c5b612045565b03611ca85760405162461bcd60e51b815260206004820152601f60248201527f45434453413a20696e76616c6964207369676e6174757265206c656e677468006044820152606401610613565b6003816004811115611cbc57611cbc612045565b03611b035760405162461bcd60e51b815260206004820152602260248201527f45434453413a20696e76616c6964207369676e6174757265202773272076616c604482015261756560f01b6064820152608401610613565b60606114798484600085611da8565b600154600160a81b900460ff16611d4c5760405162461bcd60e51b8152600401610613906125e9565b6037611d58838261267a565b5060386115ce828261267a565b600154600160a81b900460ff16611d8e5760405162461bcd60e51b8152600401610613906125e9565b815160209283012081519190920120606691909155606755565b606082471015611e095760405162461bcd60e51b815260206004820152602660248201527f416464726573733a20696e73756666696369656e742062616c616e636520666f6044820152651c8818d85b1b60d21b6064820152608401610613565b600080866001600160a01b03168587604051611e25919061273a565b60006040518083038185875af1925050503d8060008114611e62576040519150601f19603f3d011682016040523d82523d6000602084013e611e67565b606091505b5091509150611e7887838387611e83565b979650505050505050565b60608315611ef2578251600003611eeb576001600160a01b0385163b611eeb5760405162461bcd60e51b815260206004820152601d60248201527f416464726573733a2063616c6c20746f206e6f6e2d636f6e74726163740000006044820152606401610613565b5081611479565b6114798383815115611f075781518083602001fd5b8060405162461bcd60e51b81526004016106139190611f71565b60005b83811015611f3c578181015183820152602001611f24565b50506000910152565b60008151808452611f5d816020860160208601611f21565b601f01601f19169290920160200192915050565b602081526000610f876020830184611f45565b6001600160a01b0381168114611b0357600080fd5b60008060408385031215611fac57600080fd5b8235611fb781611f84565b946020939093013593505050565b600080600060608486031215611fda57600080fd5b8335611fe581611f84565b92506020840135611ff581611f84565b929592945050506040919091013590565b60006020828403121561201857600080fd5b8135610f8781611f84565b6000806040838503121561203657600080fd5b50508035926020909101359150565b634e487b7160e01b600052602160045260246000fd5b602081016005831061207d57634e487b7160e01b600052602160045260246000fd5b91905290565b60008060006060848603121561209857600080fd5b83356120a381611f84565b95602085013595506040909401359392505050565b8281526040602082015260006114796040830184611f45565b6020808252825182820181905260009190848201906040850190845b818110156121125783516001600160a01b0316835292840192918401916001016120ed565b50909695505050505050565b634e487b7160e01b600052604160045260246000fd5b604051601f8201601f1916810167ffffffffffffffff8111828210171561215d5761215d61211e565b604052919050565b600082601f83011261217657600080fd5b813567ffffffffffffffff8111156121905761219061211e565b6121a3601f8201601f1916602001612134565b8181528460208386010111156121b857600080fd5b816020850160208301376000918101602001919091529392505050565b600080600080600060a086880312156121ed57600080fd5b8535945060208601356121ff81611f84565b9350604086013567ffffffffffffffff8082111561221c57600080fd5b61222889838a01612165565b9450606088013591508082111561223e57600080fd5b5061224b88828901612165565b92505060808601356005811061226057600080fd5b809150509295509295909350565b60ff81168114611b0357600080fd5b600080600080600080600060e0888a03121561229857600080fd5b87356122a381611f84565b965060208801356122b381611f84565b9550604088013594506060880135935060808801356122d18161226e565b9699959850939692959460a0840135945060c09093013592915050565b6000806040838503121561230157600080fd5b823561230c81611f84565b9150602083013561231c81611f84565b809150509250929050565b600181811c9082168061233b57607f821691505b6020821081036118b757634e487b7160e01b600052602260045260246000fd5b60006020828403121561236d57600080fd5b8151610f878161226e565b634e487b7160e01b600052601160045260246000fd5b808201808211156105c8576105c8612378565b818103818111156105c8576105c8612378565b600067ffffffffffffffff8211156123ce576123ce61211e565b5060051b60200190565b600082601f8301126123e957600080fd5b815160206123fe6123f9836123b4565b612134565b82815260059290921b8401810191818101908684111561241d57600080fd5b8286015b848110156124385780518352918301918301612421565b509695505050505050565b60008060006060848603121561245857600080fd5b835167ffffffffffffffff8082111561247057600080fd5b818601915086601f83011261248457600080fd5b815160206124946123f9836123b4565b82815260059290921b8401810191818101908a8411156124b357600080fd5b948201945b838610156124da5785516124cb81611f84565b825294820194908201906124b8565b918901519197509093505050808211156124f357600080fd5b50612500868287016123d8565b925050604084015190509250925092565b6020808252602e908201527f496e697469616c697a61626c653a20636f6e747261637420697320616c72656160408201526d191e481a5b9a5d1a585b1a5e995960921b606082015260800190565b60006020828403121561257157600080fd5b5051919050565b80820281158282048414176105c8576105c8612378565b634e487b7160e01b600052601260045260246000fd5b6000826125c257634e487b7160e01b600052601260045260246000fd5b500490565b6000602082840312156125d957600080fd5b81518015158114610f8757600080fd5b6020808252602b908201527f496e697469616c697a61626c653a20636f6e7472616374206973206e6f74206960408201526a6e697469616c697a696e6760a81b606082015260800190565b601f8211156115ce57600081815260208120601f850160051c8101602086101561265b5750805b601f850160051c820191505b81811015610c7857828155600101612667565b815167ffffffffffffffff8111156126945761269461211e565b6126a8816126a28454612327565b84612634565b602080601f8311600181146126dd57600084156126c55750858301515b600019600386901b1c1916600185901b178555610c78565b600085815260208120601f198616915b8281101561270c578886015182559484019460019091019084016126ed565b508582101561272a5787850151600019600388901b60f8161c191681555b5050505050600190811b01905550565b6000825161274c818460208701611f21565b919091019291505056fea264697066735822122027481d2ffe41488f40b1462468f1e80f30e4968d0a98360053f738f6cfbf161464736f6c63430008110033","bytecodeSha1":"fb44d0cd81bf62a6fa046fbb9e0d3da2c29da2fa","type":"contract","abi":[{"inputs":[{"internalType":"address","name":"_gyroConfig","type":"address"},{"internalType":"contract IVault","name":"_balancerVault","type":"address"}],"stateMutability":"nonpayable","type":"constructor","name":"constructor"},{"anonymous":false,"inputs":[{"indexed":true,"internalType":"address","name":"owner","type":"address"},{"indexed":true,"internalType":"address","name":"spender","type":"address"},{"indexed":false,"internalType":"uint256","name":"value","type":"uint256"}],"name":"Approval","type":"event"},{"anonymous":false,"inputs":[{"indexed":false,"internalType":"address","name":"newGovernor","type":"address"}],"name":"GovernorChangeRequested","type":"event"},{"anonymous":false,"inputs":[{"indexed":false,"internalType":"address","name":"oldGovernor","type":"address"},{"indexed":false,"internalType":"address","name":"newGovernor","type":"address"}],"name":"GovernorChanged","type":"event"},{"anonymous":false,"inputs":[{"indexed":false,"internalType":"uint8","name":"version","type":"uint8"}],"name":"Initialized","type":"event"},{"anonymous":false,"inputs":[{"indexed":true,"internalType":"address","name":"from","type":"address"},{"indexed":true,"internalType":"address","name":"to","type":"address"},{"indexed":false,"internalType":"uint256","name":"value","type":"uint256"}],"name":"Transfer","type":"event"},{"inputs":[],"name":"DOMAIN_SEPARATOR","outputs":[{"internalType":"bytes32","name":"","type":"bytes32"}],"stateMutability":"view","type":"function"},{"inputs":[],"name":"acceptGovernance","outputs":[],"stateMutability":"nonpayable","type":"function"},{"inputs":[{"internalType":"address","name":"owner","type":"address"},{"internalType":"address","name":"spender","type":"address"}],"name":"allowance","outputs":[{"internalType":"uint256","name":"","type":"uint256"}],"stateMutability":"view","type":"function"},{"inputs":[{"internalType":"address","name":"spender","type":"address"},{"internalType":"uint256","name":"amount","type":"uint256"}],"name":"approve","outputs":[{"internalType":"bool","name":"","type":"bool"}],"stateMutability":"nonpayable","type":"function"},{"inputs":[{"internalType":"address","name":"account","type":"address"}],"name":"balanceOf","outputs":[{"internalType":"uint256","name":"","type":"uint256"}],"stateMutability":"view","type":"function"},{"inputs":[],"name":"balancerVault","outputs":[{"internalType":"contract IVault","name":"","type":"address"}],"stateMutability":"view","type":"function"},{"inputs":[{"internalType":"address","name":"newGovernor","type":"address"}],"name":"changeGovernor","outputs":[],"stateMutability":"nonpayable","type":"function"},{"inputs":[],"name":"decimals","outputs":[{"internalType":"uint8","name":"","type":"uint8"}],"stateMutability":"view","type":"function"},{"inputs":[{"internalType":"address","name":"spender","type":"address"},{"internalType":"uint256","name":"subtractedValue","type":"uint256"}],"name":"decreaseAllowance","outputs":[{"internalType":"bool","name":"","type":"bool"}],"stateMutability":"nonpayable","type":"function"},{"inputs":[],"name":"deployedAt","outputs":[{"internalType":"uint256","name":"","type":"uint256"}],"stateMutability":"view","type":"function"},{"inputs":[{"internalType":"uint256","name":"underlyingAmount","type":"uint256"},{"internalType":"uint256","name":"minVaultTokensOut","type":"uint256"}],"name":"deposit","outputs":[{"internalType":"uint256","name":"vaultTokensMinted","type":"uint256"}],"stateMutability":"nonpayable","type":"function"},{"inputs":[{"internalType":"address","name":"beneficiary","type":"address"},{"internalType":"uint256","name":"underlyingAmount","type":"uint256"},{"internalType":"uint256","name":"minVaultTokensOut","type":"uint256"}],"name":"depositFor","outputs":[{"internalType":"uint256","name":"vaultTokensMinted","type":"uint256"}],"stateMutability":"nonpayable","type":"function"},{"inputs":[{"internalType":"uint256","name":"underlyingAmount","type":"uint256"},{"internalType":"uint256","name":"minVaultTokensOut","type":"uint256"}],"name":"dryDeposit","outputs":[{"internalType":"uint256","name":"vaultTokensMinted","type":"uint256"},{"internalType":"string","name":"err","type":"string"}],"stateMutability":"view","type":"function"},{"inputs":[{"internalType":"uint256","name":"vaultTokenAmount","type":"uint256"},{"internalType":"uint256","name":"minUnderlyingOut","type":"uint256"}],"name":"dryWithdraw","outputs":[{"internalType":"uint256","name":"underlyingAmountWithdrawn","type":"uint256"},{"internalType":"string","name":"err","type":"string"}],"stateMutability":"view","type":"function"},{"inputs":[],"name":"exchangeRate","outputs":[{"internalType":"uint256","name":"","type":"uint256"}],"stateMutability":"view","type":"function"},{"inputs":[],"name":"getRate","outputs":[{"internalType":"uint256","name":"","type":"uint256"}],"stateMutability":"view","type":"function"},{"inputs":[],"name":"getTokens","outputs":[{"internalType":"contract IERC20[]","name":"","type":"address[]"}],"stateMutability":"view","type":"function"},{"inputs":[],"name":"governor","outputs":[{"internalType":"address","name":"","type":"address"}],"stateMutability":"view","type":"function"},{"inputs":[],"name":"gyroConfig","outputs":[{"internalType":"contract IGyroConfig","name":"","type":"address"}],"stateMutability":"view","type":"function"},{"inputs":[{"internalType":"address","name":"spender","type":"address"},{"internalType":"uint256","name":"addedValue","type":"uint256"}],"name":"increaseAllowance","outputs":[{"internalType":"bool","name":"","type":"bool"}],"stateMutability":"nonpayable","type":"function"},{"inputs":[{"internalType":"bytes32","name":"_poolId","type":"bytes32"},{"internalType":"address","name":"governor","type":"address"},{"internalType":"string","name":"name","type":"string"},{"internalType":"string","name":"symbol","type":"string"},{"internalType":"enum Vaults.Type","name":"_vaultType","type":"uint8"}],"name":"initialize","outputs":[],"stateMutability":"nonpayable","type":"function"},{"inputs":[{"internalType":"address","name":"_governor","type":"address"}],"name":"initialize","outputs":[],"stateMutability":"nonpayable","type":"function"},{"inputs":[],"name":"name","outputs":[{"internalType":"string","name":"","type":"string"}],"stateMutability":"view","type":"function"},{"inputs":[{"internalType":"address","name":"owner","type":"address"}],"name":"nonces","outputs":[{"internalType":"uint256","name":"","type":"uint256"}],"stateMutability":"view","type":"function"},{"inputs":[],"name":"pendingGovernor","outputs":[{"internalType":"address","name":"","type":"address"}],"stateMutability":"view","type":"function"},{"inputs":[{"internalType":"address","name":"owner","type":"address"},{"internalType":"address","name":"spender","type":"address"},{"internalType":"uint256","name":"value","type":"uint256"},{"internalType":"uint256","name":"deadline","type":"uint256"},{"internalType":"uint8","name":"v","type":"uint8"},{"internalType":"bytes32","name":"r","type":"bytes32"},{"internalType":"bytes32","name":"s","type":"bytes32"}],"name":"permit","outputs":[],"stateMutability":"nonpayable","type":"function"},{"inputs":[],"name":"poolId","outputs":[{"internalType":"bytes32","name":"","type":"bytes32"}],"stateMutability":"view","type":"function"},{"inputs":[{"internalType":"address","name":"strategyAddress","type":"address"}],"name":"setStrategy","outputs":[],"stateMutability":"nonpayable","type":"function"},{"inputs":[],"name":"strategy","outputs":[{"internalType":"address","name":"","type":"address"}],"stateMutability":"view","type":"function"},{"inputs":[],"name":"symbol","outputs":[{"internalType":"string","name":"","type":"string"}],"stateMutability":"view","type":"function"},{"inputs":[],"name":"totalSupply","outputs":[{"internalType":"uint256","name":"","type":"uint256"}],"stateMutability":"view","type":"function"},{"inputs":[],"name":"totalUnderlying","outputs":[{"internalType":"uint256","name":"","type":"uint256"}],"stateMutability":"view","type":"function"},{"inputs":[{"internalType":"address","name":"to","type":"address"},{"internalType":"uint256","name":"amount","type":"uint256"}],"name":"transfer","outputs":[{"internalType":"bool","name":"","type":"bool"}],"stateMutability":"nonpayable","type":"function"},{"inputs":[{"internalType":"address","name":"from","type":"address"},{"internalType":"address","name":"to","type":"address"},{"internalType":"uint256","name":"amount","type":"uint256"}],"name":"transferFrom","outputs":[{"internalType":"bool","name":"","type":"bool"}],"stateMutability":"nonpayable","type":"function"},{"inputs":[],"name":"underlying","outputs":[{"internalType":"address","name":"","type":"address"}],"stateMutability":"view","type":"function"},{"inputs":[],"name":"vaultType","outputs":[{"internalType":"enum Vaults.Type","name":"","type":"uint8"}],"stateMutability":"view","type":"function"},{"inputs":[{"internalType":"uint256","name":"vaultTokenAmount","type":"uint256"},{"internalType":"uint256","name":"minUnderlyingOut","type":"uint256"}],"name":"withdraw","outputs":[{"internalType":"uint256","name":"underlyingAmountWithdrawn","type":"uint256"}],"stateMutability":"nonpayable","type":"function"}],"compiler":{"version":"0.8.17+commit.8df45f5f","evm_version":"london","optimizer":{"enabled":true,"runs":200}},"contractName":"BalancerPoolVault","language":"Solidity","natspec":{"methods":{"DOMAIN_SEPARATOR()":{"details":"See {IERC20Permit-DOMAIN_SEPARATOR}."},"allowance(address,address)":{"details":"See {IERC20-allowance}."},"approve(address,uint256)":{"details":"See {IERC20-approve}. NOTE: If `amount` is the maximum `uint256`, the allowance is not updated on `transferFrom`. This is semantically equivalent to an infinite approval. Requirements: - `spender` cannot be the zero address."},"balanceOf(address)":{"details":"See {IERC20-balanceOf}."},"decimals()":{"details":"Returns the decimals places of the token."},"decreaseAllowance(address,uint256)":{"details":"Atomically decreases the allowance granted to `spender` by the caller. This is an alternative to {approve} that can be used as a mitigation for problems described in {IERC20-approve}. Emits an {Approval} event indicating the updated allowance. Requirements: - `spender` cannot be the zero address. - `spender` must have allowance for the caller of at least `subtractedValue`."},"deposit(uint256,uint256)":{"notice":"Deposits `underlyingAmount` of underlying (usually LP) token supported and sends back the received vault tokens","params":{"underlyingAmount":"the amount of underlying to deposit"},"returns":{"vaultTokensMinted":"the amount of vault token sent back"}},"exchangeRate()":{"notice":"The same as getRate() from IRateProvider.","returns":{"_0":"The exchange rate between an underlying tokens and the token of this vault"}},"getTokens()":{"returns":{"_0":"The token associated with this vault In the case of an LP token, this will be the underlying tokens associated to it (e.g. [ETH, DAI] for a ETH/DAI pool LP token or [USDC] for aUSDC) In most cases, the tokens returned will not be LP tokens"}},"increaseAllowance(address,uint256)":{"details":"Atomically increases the allowance granted to `spender` by the caller. This is an alternative to {approve} that can be used as a mitigation for problems described in {IERC20-approve}. Emits an {Approval} event indicating the updated allowance. Requirements: - `spender` cannot be the zero address."},"name()":{"details":"Returns the name of the token."},"nonces(address)":{"details":"See {IERC20Permit-nonces}."},"permit(address,address,uint256,uint256,uint8,bytes32,bytes32)":{"details":"See {IERC20Permit-permit}."},"setStrategy(address)":{"notice":"Sets the address of the strategy to use for this vault This will be used through governance","params":{"strategyAddress":"the address of the strategy contract that should follow the `IStrategy` interface"}},"symbol()":{"details":"Returns the symbol of the token, usually a shorter version of the name."},"totalSupply()":{"details":"See {IERC20-totalSupply}."},"totalUnderlying()":{"returns":{"_0":"The total amount of underlying tokens in the vault"}},"transfer(address,uint256)":{"details":"See {IERC20-transfer}. Requirements: - `to` cannot be the zero address. - the caller must have a balance of at least `amount`."},"transferFrom(address,address,uint256)":{"details":"See {IERC20-transferFrom}. Emits an {Approval} event indicating the updated allowance. This is not required by the EIP. See the note at the beginning of {ERC20}. NOTE: Does not update the allowance if the current allowance is the maximum `uint256`. Requirements: - `from` and `to` cannot be the zero address. - `from` must have a balance of at least `amount`. - the caller must have allowance for ``from``'s tokens of at least `amount`."},"withdraw(uint256,uint256)":{"notice":"Withdraws `vaultTokenAmount` of LP token supported and burns the vault tokens","params":{"vaultTokenAmount":"the amount of vault token to withdraw"},"returns":{"underlyingAmountWithdrawn":"the amount of LP token sent back"}},"dryDeposit(uint256,uint256)":{"notice":"Dry-run version of deposit"},"poolId()":{"notice":"Balancer pool ID"},"acceptGovernance()":{"notice":"Called by the pending governor to approve the change"},"dryWithdraw(uint256,uint256)":{"notice":"Dry-run version of `withdraw`"},"depositFor(address,uint256,uint256)":{"notice":"Simlar to `deposit(uint256 underlyingAmount)` but credits the tokens to `beneficiary` instead of `msg.sender`"},"changeGovernor(address)":{"notice":"Changes the governor can only be called by the current governor"},"governor()":{"notice":"Returns the current governor"},"pendingGovernor()":{"notice":"Returns the pending governor"}},"kind":"dev","version":1,"stateVariables":{"vaultType":{"return":"The type of the vault","returns":{"_0":"The type of the vault"}}}},"opcodes":"PUSH1 0x80 PUSH1 0x40 MSTORE CALLVALUE DUP1 ISZERO PUSH2 0x10 JUMPI PUSH1 0x0 DUP1 REVERT JUMPDEST POP PUSH1 0x4 CALLDATASIZE LT PUSH2 0x227 JUMPI PUSH1 0x0 CALLDATALOAD PUSH1 0xE0 SHR DUP1 PUSH4 0x679AEFCE GT PUSH2 0x130 JUMPI DUP1 PUSH4 0xB14B9F4D GT PUSH2 0xB8 JUMPI DUP1 PUSH4 0xDD62ED3E GT PUSH2 0x7C JUMPI DUP1 PUSH4 0xDD62ED3E EQ PUSH2 0x4CC JUMPI DUP1 PUSH4 0xE2BBB158 EQ PUSH2 0x4DF JUMPI DUP1 PUSH4 0xE3056A34 EQ PUSH2 0x4F2 JUMPI DUP1 PUSH4 0xE4C0AAF4 EQ PUSH2 0x505 JUMPI DUP1 PUSH4 0xEAE4C19F EQ PUSH2 0x518 JUMPI PUSH1 0x0 DUP1 REVERT JUMPDEST DUP1 PUSH4 0xB14B9F4D EQ PUSH2 0x478 JUMPI DUP1 PUSH4 0xC4D66DE8 EQ PUSH2 0x48B JUMPI DUP1 PUSH4 0xC70920BC EQ PUSH2 0x49E JUMPI DUP1 PUSH4 0xCC04FEFF EQ PUSH2 0x4A6 JUMPI DUP1 PUSH4 0xD505ACCF EQ PUSH2 0x4B9 JUMPI PUSH1 0x0 DUP1 REVERT JUMPDEST DUP1 PUSH4 0x95D89B41 GT PUSH2 0xFF JUMPI DUP1 PUSH4 0x95D89B41 EQ PUSH2 0x421 JUMPI DUP1 PUSH4 0xA457C2D7 EQ PUSH2 0x429 JUMPI DUP1 PUSH4 0xA8C62E76 EQ PUSH2 0x43C JUMPI DUP1 PUSH4 0xA9059CBB EQ PUSH2 0x450 JUMPI DUP1 PUSH4 0xAA6CA808 EQ PUSH2 0x463 JUMPI PUSH1 0x0 DUP1 REVERT JUMPDEST DUP1 PUSH4 0x679AEFCE EQ PUSH2 0x336 JUMPI DUP1 PUSH4 0x6F307DC3 EQ PUSH2 0x3D1 JUMPI DUP1 PUSH4 0x70A08231 EQ PUSH2 0x3E5 JUMPI DUP1 PUSH4 0x7ECEBE00 EQ PUSH2 0x40E JUMPI PUSH1 0x0 DUP1 REVERT JUMPDEST DUP1 PUSH4 0x3644E515 GT PUSH2 0x1B3 JUMPI DUP1 PUSH4 0x441A3E70 GT PUSH2 0x182 JUMPI DUP1 PUSH4 0x441A3E70 EQ PUSH2 0x348 JUMPI DUP1 PUSH4 0x44BBDB55 EQ PUSH2 0x35B JUMPI DUP1 PUSH4 0x4AC032BE EQ PUSH2 0x382 JUMPI DUP1 PUSH4 0x4CF5FBF5 EQ PUSH2 0x39D JUMPI DUP1 PUSH4 0x550D2B62 EQ PUSH2 0x3B0 JUMPI PUSH1 0x0 DUP1 REVERT JUMPDEST DUP1 PUSH4 0x3644E515 EQ PUSH2 0x31B JUMPI DUP1 PUSH4 0x39509351 EQ PUSH2 0x323 JUMPI DUP1 PUSH4 0x3BA0B9A9 EQ PUSH2 0x336 JUMPI DUP1 PUSH4 0x3E0DC34E EQ PUSH2 0x33E JUMPI PUSH1 0x0 DUP1 REVERT JUMPDEST DUP1 PUSH4 0x18160DDD GT PUSH2 0x1FA JUMPI DUP1 PUSH4 0x18160DDD EQ PUSH2 0x2BF JUMPI DUP1 PUSH4 0x238EFCBC EQ PUSH2 0x2D1 JUMPI DUP1 PUSH4 0x23B872DD EQ PUSH2 0x2DB JUMPI DUP1 PUSH4 0x313CE567 EQ PUSH2 0x2EE JUMPI DUP1 PUSH4 0x33A100CA EQ PUSH2 0x308 JUMPI PUSH1 0x0 DUP1 REVERT JUMPDEST DUP1 PUSH4 0x6FDDE03 EQ PUSH2 0x22C JUMPI DUP1 PUSH4 0x95EA7B3 EQ PUSH2 0x24A JUMPI DUP1 PUSH4 0xC340A24 EQ PUSH2 0x26D JUMPI DUP1 PUSH4 0x158274A5 EQ PUSH2 0x298 JUMPI JUMPDEST PUSH1 0x0 DUP1 REVERT JUMPDEST PUSH2 0x234 PUSH2 0x522 JUMP JUMPDEST PUSH1 0x40 MLOAD PUSH2 0x241 SWAP2 SWAP1 PUSH2 0x1F71 JUMP JUMPDEST PUSH1 0x40 MLOAD DUP1 SWAP2 SUB SWAP1 RETURN JUMPDEST PUSH2 0x25D PUSH2 0x258 CALLDATASIZE PUSH1 0x4 PUSH2 0x1F99 JUMP JUMPDEST PUSH2 0x5B4 JUMP JUMPDEST PUSH1 0x40 MLOAD SWAP1 ISZERO ISZERO DUP2 MSTORE PUSH1 0x20 ADD PUSH2 0x241 JUMP JUMPDEST PUSH1 0x0 SLOAD PUSH2 0x280 SWAP1 PUSH1 0x1 PUSH1 0x1 PUSH1 0xA0 SHL SUB AND DUP2 JUMP JUMPDEST PUSH1 0x40 MLOAD PUSH1 0x1 PUSH1 0x1 PUSH1 0xA0 SHL SUB SWAP1 SWAP2 AND DUP2 MSTORE PUSH1 0x20 ADD PUSH2 0x241 JUMP JUMPDEST PUSH2 0x280 PUSH32 0x0 DUP2 JUMP JUMPDEST PUSH1 0x36 SLOAD JUMPDEST PUSH1 0x40 MLOAD SWAP1 DUP2 MSTORE PUSH1 0x20 ADD PUSH2 0x241 JUMP JUMPDEST PUSH2 0x2D9 PUSH2 0x5CE JUMP JUMPDEST STOP JUMPDEST PUSH2 0x25D PUSH2 0x2E9 CALLDATASIZE PUSH1 0x4 PUSH2 0x1FC5 JUMP JUMPDEST PUSH2 0x687 JUMP JUMPDEST PUSH2 0x2F6 PUSH2 0x6AB JUMP JUMPDEST PUSH1 0x40 MLOAD PUSH1 0xFF SWAP1 SWAP2 AND DUP2 MSTORE PUSH1 0x20 ADD PUSH2 0x241 JUMP JUMPDEST PUSH2 0x2D9 PUSH2 0x316 CALLDATASIZE PUSH1 0x4 PUSH2 0x2006 JUMP JUMPDEST PUSH2 0x71F JUMP JUMPDEST PUSH2 0x2C3 PUSH2 0x788 JUMP JUMPDEST PUSH2 0x25D PUSH2 0x331 CALLDATASIZE PUSH1 0x4 PUSH2 0x1F99 JUMP JUMPDEST PUSH2 0x792 JUMP JUMPDEST PUSH2 0x2C3 PUSH2 0x7B4 JUMP JUMPDEST PUSH2 0x2C3 PUSH2 0x134 SLOAD DUP2 JUMP JUMPDEST PUSH2 0x2C3 PUSH2 0x356 CALLDATASIZE PUSH1 0x4 PUSH2 0x2023 JUMP JUMPDEST PUSH2 0x7C0 JUMP JUMPDEST PUSH2 0x280 PUSH32 0x0 DUP2 JUMP JUMPDEST PUSH2 0x135 SLOAD PUSH2 0x390 SWAP1 PUSH1 0xFF AND DUP2 JUMP JUMPDEST PUSH1 0x40 MLOAD PUSH2 0x241 SWAP2 SWAP1 PUSH2 0x205B JUMP JUMPDEST PUSH2 0x2C3 PUSH2 0x3AB CALLDATASIZE PUSH1 0x4 PUSH2 0x2083 JUMP JUMPDEST PUSH2 0x8CE JUMP JUMPDEST PUSH2 0x3C3 PUSH2 0x3BE CALLDATASIZE PUSH1 0x4 PUSH2 0x2023 JUMP JUMPDEST PUSH2 0x9BE JUMP JUMPDEST PUSH1 0x40 MLOAD PUSH2 0x241 SWAP3 SWAP2 SWAP1 PUSH2 0x20B8 JUMP JUMPDEST PUSH2 0x131 SLOAD PUSH2 0x280 SWAP1 PUSH1 0x1 PUSH1 0x1 PUSH1 0xA0 SHL SUB AND DUP2 JUMP JUMPDEST PUSH2 0x2C3 PUSH2 0x3F3 CALLDATASIZE PUSH1 0x4 PUSH2 0x2006 JUMP JUMPDEST PUSH1 0x1 PUSH1 0x1 PUSH1 0xA0 SHL SUB AND PUSH1 0x0 SWAP1 DUP2 MSTORE PUSH1 0x34 PUSH1 0x20 MSTORE PUSH1 0x40 SWAP1 KECCAK256 SLOAD SWAP1 JUMP JUMPDEST PUSH2 0x2C3 PUSH2 0x41C CALLDATASIZE PUSH1 0x4 PUSH2 0x2006 JUMP JUMPDEST PUSH2 0xA09 JUMP JUMPDEST PUSH2 0x234 PUSH2 0xA27 JUMP JUMPDEST PUSH2 0x25D PUSH2 0x437 CALLDATASIZE PUSH1 0x4 PUSH2 0x1F99 JUMP JUMPDEST PUSH2 0xA36 JUMP JUMPDEST PUSH2 0x133 SLOAD PUSH2 0x280 SWAP1 PUSH1 0x1 PUSH1 0x1 PUSH1 0xA0 SHL SUB AND DUP2 JUMP JUMPDEST PUSH2 0x25D PUSH2 0x45E CALLDATASIZE PUSH1 0x4 PUSH2 0x1F99 JUMP JUMPDEST PUSH2 0xAB1 JUMP JUMPDEST PUSH2 0x46B PUSH2 0xABF JUMP JUMPDEST PUSH1 0x40 MLOAD PUSH2 0x241 SWAP2 SWAP1 PUSH2 0x20D1 JUMP JUMPDEST PUSH2 0x2D9 PUSH2 0x486 CALLDATASIZE PUSH1 0x4 PUSH2 0x21D5 JUMP JUMPDEST PUSH2 0xB62 JUMP JUMPDEST PUSH2 0x2D9 PUSH2 0x499 CALLDATASIZE PUSH1 0x4 PUSH2 0x2006 JUMP JUMPDEST PUSH2 0xC80 JUMP JUMPDEST PUSH2 0x2C3 PUSH2 0xD63 JUMP JUMPDEST PUSH2 0x3C3 PUSH2 0x4B4 CALLDATASIZE PUSH1 0x4 PUSH2 0x2023 JUMP JUMPDEST PUSH2 0xDD1 JUMP JUMPDEST PUSH2 0x2D9 PUSH2 0x4C7 CALLDATASIZE PUSH1 0x4 PUSH2 0x227D JUMP JUMPDEST PUSH2 0xDEB JUMP JUMPDEST PUSH2 0x2C3 PUSH2 0x4DA CALLDATASIZE PUSH1 0x4 PUSH2 0x22EE JUMP JUMPDEST PUSH2 0xF4F JUMP JUMPDEST PUSH2 0x2C3 PUSH2 0x4ED CALLDATASIZE PUSH1 0x4 PUSH2 0x2023 JUMP JUMPDEST PUSH2 0xF7A JUMP JUMPDEST PUSH1 0x1 SLOAD PUSH2 0x280 SWAP1 PUSH1 0x1 PUSH1 0x1 PUSH1 0xA0 SHL SUB AND DUP2 JUMP JUMPDEST PUSH2 0x2D9 PUSH2 0x513 CALLDATASIZE PUSH1 0x4 PUSH2 0x2006 JUMP JUMPDEST PUSH2 0xF8E JUMP JUMPDEST PUSH2 0x2C3 PUSH2 0x132 SLOAD DUP2 JUMP JUMPDEST PUSH1 0x60 PUSH1 0x37 DUP1 SLOAD PUSH2 0x531 SWAP1 PUSH2 0x2327 JUMP JUMPDEST DUP1 PUSH1 0x1F ADD PUSH1 0x20 DUP1 SWAP2 DIV MUL PUSH1 0x20 ADD PUSH1 0x40 MLOAD SWAP1 DUP2 ADD PUSH1 0x40 MSTORE DUP1 SWAP3 SWAP2 SWAP1 DUP2 DUP2 MSTORE PUSH1 0x20 ADD DUP3 DUP1 SLOAD PUSH2 0x55D SWAP1 PUSH2 0x2327 JUMP JUMPDEST DUP1 ISZERO PUSH2 0x5AA JUMPI DUP1 PUSH1 0x1F LT PUSH2 0x57F JUMPI PUSH2 0x100 DUP1 DUP4 SLOAD DIV MUL DUP4 MSTORE SWAP2 PUSH1 0x20 ADD SWAP2 PUSH2 0x5AA JUMP JUMPDEST DUP3 ADD SWAP2 SWAP1 PUSH1 0x0 MSTORE PUSH1 0x20 PUSH1 0x0 KECCAK256 SWAP1 JUMPDEST DUP2 SLOAD DUP2 MSTORE SWAP1 PUSH1 0x1 ADD SWAP1 PUSH1 0x20 ADD DUP1 DUP4 GT PUSH2 0x58D JUMPI DUP3 SWAP1 SUB PUSH1 0x1F AND DUP3 ADD SWAP2 JUMPDEST POP POP POP POP POP SWAP1 POP SWAP1 JUMP JUMPDEST PUSH1 0x0 CALLER PUSH2 0x5C2 DUP2 DUP6 DUP6 PUSH2 0x1063 JUMP JUMPDEST PUSH1 0x1 SWAP2 POP POP JUMPDEST SWAP3 SWAP2 POP POP JUMP JUMPDEST PUSH1 0x1 SLOAD PUSH1 0x40 DUP1 MLOAD DUP1 DUP3 ADD SWAP1 SWAP2 MSTORE PUSH1 0x2 DUP2 MSTORE PUSH2 0x333 PUSH1 0xF4 SHL PUSH1 0x20 DUP3 ADD MSTORE SWAP1 PUSH1 0x1 PUSH1 0x1 PUSH1 0xA0 SHL SUB AND CALLER EQ PUSH2 0x61C JUMPI PUSH1 0x40 MLOAD PUSH3 0x461BCD PUSH1 0xE5 SHL DUP2 MSTORE PUSH1 0x4 ADD PUSH2 0x613 SWAP2 SWAP1 PUSH2 0x1F71 JUMP JUMPDEST PUSH1 0x40 MLOAD DUP1 SWAP2 SUB SWAP1 REVERT JUMPDEST POP PUSH1 0x0 DUP1 SLOAD PUSH1 0x1 DUP1 SLOAD PUSH1 0x1 PUSH1 0x1 PUSH1 0xA0 SHL SUB NOT DUP1 DUP5 AND PUSH1 0x1 PUSH1 0x1 PUSH1 0xA0 SHL SUB DUP1 DUP5 AND SWAP2 SWAP1 SWAP2 OR SWAP1 SWAP6 SSTORE AND SWAP1 SSTORE PUSH1 0x40 DUP1 MLOAD SWAP3 SWAP1 SWAP2 AND DUP1 DUP4 MSTORE CALLER PUSH1 0x20 DUP5 ADD MSTORE SWAP2 PUSH32 0xDE4B3F61490B74C0ED6237523974FE299126BBBF8A8A7482FD220104C59B0C84 SWAP2 ADD JUMPDEST PUSH1 0x40 MLOAD DUP1 SWAP2 SUB SWAP1 LOG1 POP JUMP JUMPDEST PUSH1 0x0 CALLER PUSH2 0x695 DUP6 DUP3 DUP6 PUSH2 0x1188 JUMP JUMPDEST PUSH2 0x6A0 DUP6 DUP6 DUP6 PUSH2 0x1202 JUMP JUMPDEST POP PUSH1 0x1 SWAP5 SWAP4 POP POP POP POP JUMP JUMPDEST PUSH2 0x131 SLOAD PUSH1 0x40 DUP1 MLOAD PUSH4 0x313CE567 PUSH1 0xE0 SHL DUP2 MSTORE SWAP1 MLOAD PUSH1 0x0 SWAP3 PUSH1 0x1 PUSH1 0x1 PUSH1 0xA0 SHL SUB AND SWAP2 PUSH4 0x313CE567 SWAP2 PUSH1 0x4 DUP1 DUP4 ADD SWAP3 PUSH1 0x20 SWAP3 SWAP2 SWAP1 DUP3 SWAP1 SUB ADD DUP2 DUP7 GAS STATICCALL ISZERO DUP1 ISZERO PUSH2 0x6F6 JUMPI RETURNDATASIZE PUSH1 0x0 DUP1 RETURNDATACOPY RETURNDATASIZE PUSH1 0x0 REVERT JUMPDEST POP POP POP POP PUSH1 0x40 MLOAD RETURNDATASIZE PUSH1 0x1F NOT PUSH1 0x1F DUP3 ADD AND DUP3 ADD DUP1 PUSH1 0x40 MSTORE POP DUP2 ADD SWAP1 PUSH2 0x71A SWAP2 SWAP1 PUSH2 0x235B JUMP JUMPDEST SWAP1 POP SWAP1 JUMP JUMPDEST PUSH1 0x0 SLOAD PUSH1 0x40 DUP1 MLOAD DUP1 DUP3 ADD SWAP1 SWAP2 MSTORE PUSH1 0x2 DUP2 MSTORE PUSH2 0x333 PUSH1 0xF4 SHL PUSH1 0x20 DUP3 ADD MSTORE SWAP1 PUSH1 0x1 PUSH1 0x1 PUSH1 0xA0 SHL SUB AND CALLER EQ PUSH2 0x764 JUMPI PUSH1 0x40 MLOAD PUSH3 0x461BCD PUSH1 0xE5 SHL DUP2 MSTORE PUSH1 0x4 ADD PUSH2 0x613 SWAP2 SWAP1 PUSH2 0x1F71 JUMP JUMPDEST POP PUSH2 0x133 DUP1 SLOAD PUSH1 0x1 PUSH1 0x1 PUSH1 0xA0 SHL SUB NOT AND PUSH1 0x1 PUSH1 0x1 PUSH1 0xA0 SHL SUB SWAP3 SWAP1 SWAP3 AND SWAP2 SWAP1 SWAP2 OR SWAP1 SSTORE JUMP JUMPDEST PUSH1 0x0 PUSH2 0x71A PUSH2 0x13AD JUMP JUMPDEST PUSH1 0x0 CALLER PUSH2 0x5C2 DUP2 DUP6 DUP6 PUSH2 0x7A5 DUP4 DUP4 PUSH2 0xF4F JUMP JUMPDEST PUSH2 0x7AF SWAP2 SWAP1 PUSH2 0x238E JUMP JUMPDEST PUSH2 0x1063 JUMP JUMPDEST PUSH1 0x0 PUSH2 0x71A PUSH1 0x0 PUSH2 0x1428 JUMP JUMPDEST PUSH1 0x0 DUP1 DUP4 GT PUSH1 0x40 MLOAD DUP1 PUSH1 0x40 ADD PUSH1 0x40 MSTORE DUP1 PUSH1 0x2 DUP2 MSTORE PUSH1 0x20 ADD PUSH2 0x3331 PUSH1 0xF0 SHL DUP2 MSTORE POP SWAP1 PUSH2 0x7FE JUMPI PUSH1 0x40 MLOAD PUSH3 0x461BCD PUSH1 0xE5 SHL DUP2 MSTORE PUSH1 0x4 ADD PUSH2 0x613 SWAP2 SWAP1 PUSH2 0x1F71 JUMP JUMPDEST POP CALLER PUSH1 0x0 SWAP1 DUP2 MSTORE PUSH1 0x34 PUSH1 0x20 MSTORE PUSH1 0x40 DUP2 KECCAK256 SLOAD SWAP1 POP DUP4 DUP2 LT ISZERO PUSH1 0x40 MLOAD DUP1 PUSH1 0x40 ADD PUSH1 0x40 MSTORE DUP1 PUSH1 0x2 DUP2 MSTORE PUSH1 0x20 ADD PUSH2 0xCCD PUSH1 0xF2 SHL DUP2 MSTORE POP SWAP1 PUSH2 0x84E JUMPI PUSH1 0x40 MLOAD PUSH3 0x461BCD PUSH1 0xE5 SHL DUP2 MSTORE PUSH1 0x4 ADD PUSH2 0x613 SWAP2 SWAP1 PUSH2 0x1F71 JUMP JUMPDEST POP PUSH1 0x0 PUSH2 0x859 PUSH2 0x7B4 JUMP JUMPDEST SWAP1 POP PUSH2 0x865 DUP6 DUP3 PUSH2 0x1481 JUMP JUMPDEST SWAP3 POP DUP4 DUP4 LT ISZERO PUSH1 0x40 MLOAD DUP1 PUSH1 0x40 ADD PUSH1 0x40 MSTORE DUP1 PUSH1 0x1 DUP2 MSTORE PUSH1 0x20 ADD PUSH1 0x19 PUSH1 0xF9 SHL DUP2 MSTORE POP SWAP1 PUSH2 0x8A3 JUMPI PUSH1 0x40 MLOAD PUSH3 0x461BCD PUSH1 0xE5 SHL DUP2 MSTORE PUSH1 0x4 ADD PUSH2 0x613 SWAP2 SWAP1 PUSH2 0x1F71 JUMP JUMPDEST POP PUSH2 0x8AE CALLER DUP7 PUSH2 0x14A2 JUMP JUMPDEST PUSH2 0x131 SLOAD PUSH2 0x8C6 SWAP1 PUSH1 0x1 PUSH1 0x1 PUSH1 0xA0 SHL SUB AND CALLER DUP6 PUSH2 0x15D3 JUMP JUMPDEST POP POP SWAP3 SWAP2 POP POP JUMP JUMPDEST PUSH1 0x0 DUP1 PUSH2 0x8DB PUSH1 0x1 PUSH2 0x1428 JUMP JUMPDEST PUSH2 0x131 SLOAD SWAP1 SWAP2 POP PUSH2 0x8F7 SWAP1 PUSH1 0x1 PUSH1 0x1 PUSH1 0xA0 SHL SUB AND CALLER ADDRESS DUP8 PUSH2 0x1636 JUMP JUMPDEST PUSH2 0x901 DUP5 DUP3 PUSH2 0x166E JUMP JUMPDEST SWAP2 POP PUSH2 0x90C PUSH1 0x36 SLOAD SWAP1 JUMP JUMPDEST PUSH1 0x0 SUB PUSH2 0x939 JUMPI PUSH1 0x0 PUSH2 0x91D PUSH2 0x16E1 JUMP JUMPDEST SWAP1 POP PUSH2 0x92B PUSH2 0xDEAD DUP3 PUSH2 0x1702 JUMP JUMPDEST PUSH2 0x935 DUP2 DUP5 PUSH2 0x23A1 JUMP JUMPDEST SWAP3 POP POP JUMPDEST PUSH1 0x40 DUP1 MLOAD DUP1 DUP3 ADD SWAP1 SWAP2 MSTORE PUSH1 0x3 DUP2 MSTORE PUSH3 0x313033 PUSH1 0xE8 SHL PUSH1 0x20 DUP3 ADD MSTORE DUP3 PUSH2 0x971 JUMPI PUSH1 0x40 MLOAD PUSH3 0x461BCD PUSH1 0xE5 SHL DUP2 MSTORE PUSH1 0x4 ADD PUSH2 0x613 SWAP2 SWAP1 PUSH2 0x1F71 JUMP JUMPDEST POP PUSH1 0x40 DUP1 MLOAD DUP1 DUP3 ADD SWAP1 SWAP2 MSTORE PUSH1 0x1 DUP2 MSTORE PUSH1 0x19 PUSH1 0xF9 SHL PUSH1 0x20 DUP3 ADD MSTORE DUP4 DUP4 LT ISZERO PUSH2 0x9AB JUMPI PUSH1 0x40 MLOAD PUSH3 0x461BCD PUSH1 0xE5 SHL DUP2 MSTORE PUSH1 0x4 ADD PUSH2 0x613 SWAP2 SWAP1 PUSH2 0x1F71 JUMP JUMPDEST POP PUSH2 0x9B6 DUP6 DUP4 PUSH2 0x1702 JUMP JUMPDEST POP SWAP4 SWAP3 POP POP POP JUMP JUMPDEST PUSH1 0x0 PUSH1 0x60 PUSH1 0x0 PUSH2 0x9CE PUSH1 0x1 PUSH2 0x1428 JUMP JUMPDEST SWAP1 POP PUSH2 0x9DA DUP6 DUP3 PUSH2 0x166E JUMP JUMPDEST SWAP3 POP DUP4 DUP4 LT ISZERO PUSH2 0xA01 JUMPI PUSH1 0x40 MLOAD DUP1 PUSH1 0x40 ADD PUSH1 0x40 MSTORE DUP1 PUSH1 0x1 DUP2 MSTORE PUSH1 0x20 ADD PUSH1 0x19 PUSH1 0xF9 SHL DUP2 MSTORE POP SWAP2 POP JUMPDEST POP SWAP3 POP SWAP3 SWAP1 POP JUMP JUMPDEST PUSH1 0x1 PUSH1 0x1 PUSH1 0xA0 SHL SUB DUP2 AND PUSH1 0x0 SWAP1 DUP2 MSTORE PUSH1 0x9A PUSH1 0x20 MSTORE PUSH1 0x40 DUP2 KECCAK256 SLOAD PUSH2 0x5C8 JUMP JUMPDEST PUSH1 0x60 PUSH1 0x38 DUP1 SLOAD PUSH2 0x531 SWAP1 PUSH2 0x2327 JUMP JUMPDEST PUSH1 0x0 CALLER DUP2 PUSH2 0xA44 DUP3 DUP7 PUSH2 0xF4F JUMP JUMPDEST SWAP1 POP DUP4 DUP2 LT ISZERO PUSH2 0xAA4 JUMPI PUSH1 0x40 MLOAD PUSH3 0x461BCD PUSH1 0xE5 SHL DUP2 MSTORE PUSH1 0x20 PUSH1 0x4 DUP3 ADD MSTORE PUSH1 0x25 PUSH1 0x24 DUP3 ADD MSTORE PUSH32 0x45524332303A2064656372656173656420616C6C6F77616E63652062656C6F77 PUSH1 0x44 DUP3 ADD MSTORE PUSH5 0x207A65726F PUSH1 0xD8 SHL PUSH1 0x64 DUP3 ADD MSTORE PUSH1 0x84 ADD PUSH2 0x613 JUMP JUMPDEST PUSH2 0x6A0 DUP3 DUP7 DUP7 DUP5 SUB PUSH2 0x1063 JUMP JUMPDEST PUSH1 0x0 CALLER PUSH2 0x5C2 DUP2 DUP6 DUP6 PUSH2 0x1202 JUMP JUMPDEST PUSH1 0x60 PUSH1 0x0 PUSH32 0x0 PUSH1 0x1 PUSH1 0x1 PUSH1 0xA0 SHL SUB AND PUSH4 0xF94D4668 PUSH2 0x134 SLOAD PUSH1 0x40 MLOAD DUP3 PUSH4 0xFFFFFFFF AND PUSH1 0xE0 SHL DUP2 MSTORE PUSH1 0x4 ADD PUSH2 0xB14 SWAP2 DUP2 MSTORE PUSH1 0x20 ADD SWAP1 JUMP JUMPDEST PUSH1 0x0 PUSH1 0x40 MLOAD DUP1 DUP4 SUB DUP2 DUP7 GAS STATICCALL ISZERO DUP1 ISZERO PUSH2 0xB31 JUMPI RETURNDATASIZE PUSH1 0x0 DUP1 RETURNDATACOPY RETURNDATASIZE PUSH1 0x0 REVERT JUMPDEST POP POP POP POP PUSH1 0x40 MLOAD RETURNDATASIZE PUSH1 0x0 DUP3 RETURNDATACOPY PUSH1 0x1F RETURNDATASIZE SWAP1 DUP2 ADD PUSH1 0x1F NOT AND DUP3 ADD PUSH1 0x40 MSTORE PUSH2 0xB59 SWAP2 SWAP1 DUP2 ADD SWAP1 PUSH2 0x2443 JUMP JUMPDEST POP SWAP1 SWAP4 SWAP3 POP POP POP JUMP JUMPDEST PUSH1 0x1 SLOAD PUSH1 0x1 PUSH1 0xA8 SHL SWAP1 DIV PUSH1 0xFF AND ISZERO DUP1 DUP1 ISZERO PUSH2 0xB88 JUMPI POP PUSH1 0x1 DUP1 SLOAD PUSH1 0x1 PUSH1 0xA0 SHL SWAP1 DIV PUSH1 0xFF AND LT JUMPDEST DUP1 PUSH2 0xBA8 JUMPI POP ADDRESS EXTCODESIZE ISZERO DUP1 ISZERO PUSH2 0xBA8 JUMPI POP PUSH1 0x1 DUP1 SLOAD PUSH1 0x1 PUSH1 0xA0 SHL SWAP1 DIV PUSH1 0xFF AND EQ JUMPDEST PUSH2 0xBC4 JUMPI PUSH1 0x40 MLOAD PUSH3 0x461BCD PUSH1 0xE5 SHL DUP2 MSTORE PUSH1 0x4 ADD PUSH2 0x613 SWAP1 PUSH2 0x2511 JUMP JUMPDEST PUSH1 0x1 DUP1 SLOAD PUSH1 0xFF PUSH1 0xA0 SHL NOT AND PUSH1 0x1 PUSH1 0xA0 SHL OR SWAP1 SSTORE DUP1 ISZERO PUSH2 0xBF1 JUMPI PUSH1 0x1 DUP1 SLOAD PUSH1 0xFF PUSH1 0xA8 SHL NOT AND PUSH1 0x1 PUSH1 0xA8 SHL OR SWAP1 SSTORE JUMPDEST PUSH2 0xC06 PUSH2 0xBFE DUP8 PUSH1 0x60 SHR SWAP1 JUMP JUMPDEST DUP7 DUP7 DUP7 PUSH2 0x17C3 JUMP JUMPDEST PUSH2 0x134 DUP7 SWAP1 SSTORE PUSH2 0x135 DUP1 SLOAD DUP4 SWAP2 SWAP1 PUSH1 0xFF NOT AND PUSH1 0x1 DUP4 PUSH1 0x4 DUP2 GT ISZERO PUSH2 0xC2C JUMPI PUSH2 0xC2C PUSH2 0x2045 JUMP JUMPDEST MUL OR SWAP1 SSTORE POP DUP1 ISZERO PUSH2 0xC78 JUMPI PUSH1 0x1 DUP1 SLOAD PUSH1 0xFF PUSH1 0xA8 SHL NOT AND DUP2 SSTORE PUSH1 0x40 MLOAD SWAP1 DUP2 MSTORE PUSH32 0x7F26B83FF96E1F2B6A682F133852F6798A09C465DA95921460CEFB3847402498 SWAP1 PUSH1 0x20 ADD PUSH1 0x40 MLOAD DUP1 SWAP2 SUB SWAP1 LOG1 JUMPDEST POP POP POP POP POP POP JUMP JUMPDEST PUSH1 0x1 SLOAD PUSH1 0x1 PUSH1 0xA8 SHL SWAP1 DIV PUSH1 0xFF AND ISZERO DUP1 DUP1 ISZERO PUSH2 0xCA6 JUMPI POP PUSH1 0x1 DUP1 SLOAD PUSH1 0x1 PUSH1 0xA0 SHL SWAP1 DIV PUSH1 0xFF AND LT JUMPDEST DUP1 PUSH2 0xCC6 JUMPI POP ADDRESS EXTCODESIZE ISZERO DUP1 ISZERO PUSH2 0xCC6 JUMPI POP PUSH1 0x1 DUP1 SLOAD PUSH1 0x1 PUSH1 0xA0 SHL SWAP1 DIV PUSH1 0xFF AND EQ JUMPDEST PUSH2 0xCE2 JUMPI PUSH1 0x40 MLOAD PUSH3 0x461BCD PUSH1 0xE5 SHL DUP2 MSTORE PUSH1 0x4 ADD PUSH2 0x613 SWAP1 PUSH2 0x2511 JUMP JUMPDEST PUSH1 0x1 DUP1 SLOAD PUSH1 0xFF PUSH1 0xA0 SHL NOT AND PUSH1 0x1 PUSH1 0xA0 SHL OR SWAP1 SSTORE DUP1 ISZERO PUSH2 0xD0F JUMPI PUSH1 0x1 DUP1 SLOAD PUSH1 0xFF PUSH1 0xA8 SHL NOT AND PUSH1 0x1 PUSH1 0xA8 SHL OR SWAP1 SSTORE JUMPDEST PUSH2 0xD18 DUP3 PUSH2 0x1841 JUMP JUMPDEST DUP1 ISZERO PUSH2 0xD5F JUMPI PUSH1 0x1 DUP1 SLOAD PUSH1 0xFF PUSH1 0xA8 SHL NOT AND DUP2 SSTORE PUSH1 0x40 MLOAD SWAP1 DUP2 MSTORE PUSH32 0x7F26B83FF96E1F2B6A682F133852F6798A09C465DA95921460CEFB3847402498 SWAP1 PUSH1 0x20 ADD PUSH1 0x40 MLOAD DUP1 SWAP2 SUB SWAP1 LOG1 JUMPDEST POP POP JUMP JUMPDEST PUSH2 0x131 SLOAD PUSH1 0x40 MLOAD PUSH4 0x70A08231 PUSH1 0xE0 SHL DUP2 MSTORE ADDRESS PUSH1 0x4 DUP3 ADD MSTORE PUSH1 0x0 SWAP2 PUSH1 0x1 PUSH1 0x1 PUSH1 0xA0 SHL SUB AND SWAP1 PUSH4 0x70A08231 SWAP1 PUSH1 0x24 ADD PUSH1 0x20 PUSH1 0x40 MLOAD DUP1 DUP4 SUB DUP2 DUP7 GAS STATICCALL ISZERO DUP1 ISZERO PUSH2 0xDAD JUMPI RETURNDATASIZE PUSH1 0x0 DUP1 RETURNDATACOPY RETURNDATASIZE PUSH1 0x0 REVERT JUMPDEST POP POP POP POP PUSH1 0x40 MLOAD RETURNDATASIZE PUSH1 0x1F NOT PUSH1 0x1F DUP3 ADD AND DUP3 ADD DUP1 PUSH1 0x40 MSTORE POP DUP2 ADD SWAP1 PUSH2 0x71A SWAP2 SWAP1 PUSH2 0x255F JUMP JUMPDEST PUSH1 0x0 PUSH1 0x60 PUSH1 0x0 PUSH2 0xDDF PUSH2 0x7B4 JUMP JUMPDEST SWAP1 POP PUSH2 0x9DA DUP6 DUP3 PUSH2 0x1481 JUMP JUMPDEST DUP4 TIMESTAMP GT ISZERO PUSH2 0xE3B JUMPI PUSH1 0x40 MLOAD PUSH3 0x461BCD PUSH1 0xE5 SHL DUP2 MSTORE PUSH1 0x20 PUSH1 0x4 DUP3 ADD MSTORE PUSH1 0x1D PUSH1 0x24 DUP3 ADD MSTORE PUSH32 0x45524332305065726D69743A206578706972656420646561646C696E65000000 PUSH1 0x44 DUP3 ADD MSTORE PUSH1 0x64 ADD PUSH2 0x613 JUMP JUMPDEST PUSH1 0x0 PUSH32 0x6E71EDAE12B1B97F4D1F60370FEF10105FA2FAAE0126114A169C64845D6126C9 DUP9 DUP9 DUP9 PUSH2 0xE6A DUP13 PUSH2 0x1895 JUMP JUMPDEST PUSH1 0x40 DUP1 MLOAD PUSH1 0x20 DUP2 ADD SWAP7 SWAP1 SWAP7 MSTORE PUSH1 0x1 PUSH1 0x1 PUSH1 0xA0 SHL SUB SWAP5 DUP6 AND SWAP1 DUP7 ADD MSTORE SWAP3 SWAP1 SWAP2 AND PUSH1 0x60 DUP5 ADD MSTORE PUSH1 0x80 DUP4 ADD MSTORE PUSH1 0xA0 DUP3 ADD MSTORE PUSH1 0xC0 DUP2 ADD DUP7 SWAP1 MSTORE PUSH1 0xE0 ADD PUSH1 0x40 MLOAD PUSH1 0x20 DUP2 DUP4 SUB SUB DUP2 MSTORE SWAP1 PUSH1 0x40 MSTORE DUP1 MLOAD SWAP1 PUSH1 0x20 ADD KECCAK256 SWAP1 POP PUSH1 0x0 PUSH2 0xEC5 DUP3 PUSH2 0x18BD JUMP JUMPDEST SWAP1 POP PUSH1 0x0 PUSH2 0xED5 DUP3 DUP8 DUP8 DUP8 PUSH2 0x190B JUMP JUMPDEST SWAP1 POP DUP10 PUSH1 0x1 PUSH1 0x1 PUSH1 0xA0 SHL SUB AND DUP2 PUSH1 0x1 PUSH1 0x1 PUSH1 0xA0 SHL SUB AND EQ PUSH2 0xF38 JUMPI PUSH1 0x40 MLOAD PUSH3 0x461BCD PUSH1 0xE5 SHL DUP2 MSTORE PUSH1 0x20 PUSH1 0x4 DUP3 ADD MSTORE PUSH1 0x1E PUSH1 0x24 DUP3 ADD MSTORE PUSH32 0x45524332305065726D69743A20696E76616C6964207369676E61747572650000 PUSH1 0x44 DUP3 ADD MSTORE PUSH1 0x64 ADD PUSH2 0x613 JUMP JUMPDEST PUSH2 0xF43 DUP11 DUP11 DUP11 PUSH2 0x1063 JUMP JUMPDEST POP POP POP POP POP POP POP POP POP POP JUMP JUMPDEST PUSH1 0x1 PUSH1 0x1 PUSH1 0xA0 SHL SUB SWAP2 DUP3 AND PUSH1 0x0 SWAP1 DUP2 MSTORE PUSH1 0x35 PUSH1 0x20 SWAP1 DUP2 MSTORE PUSH1 0x40 DUP1 DUP4 KECCAK256 SWAP4 SWAP1 SWAP5 AND DUP3 MSTORE SWAP2 SWAP1 SWAP2 MSTORE KECCAK256 SLOAD SWAP1 JUMP JUMPDEST PUSH1 0x0 PUSH2 0xF87 CALLER DUP5 DUP5 PUSH2 0x8CE JUMP JUMPDEST SWAP4 SWAP3 POP POP POP JUMP JUMPDEST PUSH1 0x0 SLOAD PUSH1 0x40 DUP1 MLOAD DUP1 DUP3 ADD SWAP1 SWAP2 MSTORE PUSH1 0x2 DUP2 MSTORE PUSH2 0x333 PUSH1 0xF4 SHL PUSH1 0x20 DUP3 ADD MSTORE SWAP1 PUSH1 0x1 PUSH1 0x1 PUSH1 0xA0 SHL SUB AND CALLER EQ PUSH2 0xFD3 JUMPI PUSH1 0x40 MLOAD PUSH3 0x461BCD PUSH1 0xE5 SHL DUP2 MSTORE PUSH1 0x4 ADD PUSH2 0x613 SWAP2 SWAP1 PUSH2 0x1F71 JUMP JUMPDEST POP PUSH1 0x40 DUP1 MLOAD DUP1 DUP3 ADD SWAP1 SWAP2 MSTORE PUSH1 0x2 DUP2 MSTORE PUSH2 0x3331 PUSH1 0xF0 SHL PUSH1 0x20 DUP3 ADD MSTORE PUSH1 0x1 PUSH1 0x1 PUSH1 0xA0 SHL SUB DUP3 AND PUSH2 0x1014 JUMPI PUSH1 0x40 MLOAD PUSH3 0x461BCD PUSH1 0xE5 SHL DUP2 MSTORE PUSH1 0x4 ADD PUSH2 0x613 SWAP2 SWAP1 PUSH2 0x1F71 JUMP JUMPDEST POP PUSH1 0x1 DUP1 SLOAD PUSH1 0x1 PUSH1 0x1 PUSH1 0xA0 SHL SUB NOT AND PUSH1 0x1 PUSH1 0x1 PUSH1 0xA0 SHL SUB DUP4 AND SWAP1 DUP2 OR SWAP1 SWAP2 SSTORE PUSH1 0x40 MLOAD SWAP1 DUP2 MSTORE PUSH32 0x67235BA2E63C748A35B95C4F92A3BBC2A1389938170A5CE6C9ADD5D0B03A314A SWAP1 PUSH1 0x20 ADD PUSH2 0x67C JUMP JUMPDEST PUSH1 0x1 PUSH1 0x1 PUSH1 0xA0 SHL SUB DUP4 AND PUSH2 0x10C5 JUMPI PUSH1 0x40 MLOAD PUSH3 0x461BCD PUSH1 0xE5 SHL DUP2 MSTORE PUSH1 0x20 PUSH1 0x4 DUP3 ADD MSTORE PUSH1 0x24 DUP1 DUP3 ADD MSTORE PUSH32 0x45524332303A20617070726F76652066726F6D20746865207A65726F20616464 PUSH1 0x44 DUP3 ADD MSTORE PUSH4 0x72657373 PUSH1 0xE0 SHL PUSH1 0x64 DUP3 ADD MSTORE PUSH1 0x84 ADD PUSH2 0x613 JUMP JUMPDEST PUSH1 0x1 PUSH1 0x1 PUSH1 0xA0 SHL SUB DUP3 AND PUSH2 0x1126 JUMPI PUSH1 0x40 MLOAD PUSH3 0x461BCD PUSH1 0xE5 SHL DUP2 MSTORE PUSH1 0x20 PUSH1 0x4 DUP3 ADD MSTORE PUSH1 0x22 PUSH1 0x24 DUP3 ADD MSTORE PUSH32 0x45524332303A20617070726F766520746F20746865207A65726F206164647265 PUSH1 0x44 DUP3 ADD MSTORE PUSH2 0x7373 PUSH1 0xF0 SHL PUSH1 0x64 DUP3 ADD MSTORE PUSH1 0x84 ADD PUSH2 0x613 JUMP JUMPDEST PUSH1 0x1 PUSH1 0x1 PUSH1 0xA0 SHL SUB DUP4 DUP2 AND PUSH1 0x0 DUP2 DUP2 MSTORE PUSH1 0x35 PUSH1 0x20 SWAP1 DUP2 MSTORE PUSH1 0x40 DUP1 DUP4 KECCAK256 SWAP5 DUP8 AND DUP1 DUP5 MSTORE SWAP5 DUP3 MSTORE SWAP2 DUP3 SWAP1 KECCAK256 DUP6 SWAP1 SSTORE SWAP1 MLOAD DUP5 DUP2 MSTORE PUSH32 0x8C5BE1E5EBEC7D5BD14F71427D1E84F3DD0314C0F7B2291E5B200AC8C7C3B925 SWAP2 ADD JUMPDEST PUSH1 0x40 MLOAD DUP1 SWAP2 SUB SWAP1 LOG3 POP POP POP JUMP JUMPDEST PUSH1 0x0 PUSH2 0x1194 DUP5 DUP5 PUSH2 0xF4F JUMP JUMPDEST SWAP1 POP PUSH1 0x0 NOT DUP2 EQ PUSH2 0x11FC JUMPI DUP2 DUP2 LT ISZERO PUSH2 0x11EF JUMPI PUSH1 0x40 MLOAD PUSH3 0x461BCD PUSH1 0xE5 SHL DUP2 MSTORE PUSH1 0x20 PUSH1 0x4 DUP3 ADD MSTORE PUSH1 0x1D PUSH1 0x24 DUP3 ADD MSTORE PUSH32 0x45524332303A20696E73756666696369656E7420616C6C6F77616E6365000000 PUSH1 0x44 DUP3 ADD MSTORE PUSH1 0x64 ADD PUSH2 0x613 JUMP JUMPDEST PUSH2 0x11FC DUP5 DUP5 DUP5 DUP5 SUB PUSH2 0x1063 JUMP JUMPDEST POP POP POP POP JUMP JUMPDEST PUSH1 0x1 PUSH1 0x1 PUSH1 0xA0 SHL SUB DUP4 AND PUSH2 0x1266 JUMPI PUSH1 0x40 MLOAD PUSH3 0x461BCD PUSH1 0xE5 SHL DUP2 MSTORE PUSH1 0x20 PUSH1 0x4 DUP3 ADD MSTORE PUSH1 0x25 PUSH1 0x24 DUP3 ADD MSTORE PUSH32 0x45524332303A207472616E736665722066726F6D20746865207A65726F206164 PUSH1 0x44 DUP3 ADD MSTORE PUSH5 0x6472657373 PUSH1 0xD8 SHL PUSH1 0x64 DUP3 ADD MSTORE PUSH1 0x84 ADD PUSH2 0x613 JUMP JUMPDEST PUSH1 0x1 PUSH1 0x1 PUSH1 0xA0 SHL SUB DUP3 AND PUSH2 0x12C8 JUMPI PUSH1 0x40 MLOAD PUSH3 0x461BCD PUSH1 0xE5 SHL DUP2 MSTORE PUSH1 0x20 PUSH1 0x4 DUP3 ADD MSTORE PUSH1 0x23 PUSH1 0x24 DUP3 ADD MSTORE PUSH32 0x45524332303A207472616E7366657220746F20746865207A65726F2061646472 PUSH1 0x44 DUP3 ADD MSTORE PUSH3 0x657373 PUSH1 0xE8 SHL PUSH1 0x64 DUP3 ADD MSTORE PUSH1 0x84 ADD PUSH2 0x613 JUMP JUMPDEST PUSH1 0x1 PUSH1 0x1 PUSH1 0xA0 SHL SUB DUP4 AND PUSH1 0x0 SWAP1 DUP2 MSTORE PUSH1 0x34 PUSH1 0x20 MSTORE PUSH1 0x40 SWAP1 KECCAK256 SLOAD DUP2 DUP2 LT ISZERO PUSH2 0x1340 JUMPI PUSH1 0x40 MLOAD PUSH3 0x461BCD PUSH1 0xE5 SHL DUP2 MSTORE PUSH1 0x20 PUSH1 0x4 DUP3 ADD MSTORE PUSH1 0x26 PUSH1 0x24 DUP3 ADD MSTORE PUSH32 0x45524332303A207472616E7366657220616D6F756E7420657863656564732062 PUSH1 0x44 DUP3 ADD MSTORE PUSH6 0x616C616E6365 PUSH1 0xD0 SHL PUSH1 0x64 DUP3 ADD MSTORE PUSH1 0x84 ADD PUSH2 0x613 JUMP JUMPDEST PUSH1 0x1 PUSH1 0x1 PUSH1 0xA0 SHL SUB DUP1 DUP6 AND PUSH1 0x0 DUP2 DUP2 MSTORE PUSH1 0x34 PUSH1 0x20 MSTORE PUSH1 0x40 DUP1 DUP3 KECCAK256 DUP7 DUP7 SUB SWAP1 SSTORE SWAP3 DUP7 AND DUP1 DUP3 MSTORE SWAP1 DUP4 SWAP1 KECCAK256 DUP1 SLOAD DUP7 ADD SWAP1 SSTORE SWAP2 MLOAD PUSH32 0xDDF252AD1BE2C89B69C2B068FC378DAA952BA7F163C4A11628F55A4DF523B3EF SWAP1 PUSH2 0x13A0 SWAP1 DUP7 DUP2 MSTORE PUSH1 0x20 ADD SWAP1 JUMP JUMPDEST PUSH1 0x40 MLOAD DUP1 SWAP2 SUB SWAP1 LOG3 PUSH2 0x11FC JUMP JUMPDEST PUSH1 0x0 PUSH2 0x71A PUSH32 0x8B73C3C69BB8FE3D512ECC4CF759CC79239F7B179B0FFACAA9A75D522B39400F PUSH2 0x13DC PUSH1 0x66 SLOAD SWAP1 JUMP JUMPDEST PUSH1 0x67 SLOAD PUSH1 0x40 DUP1 MLOAD PUSH1 0x20 DUP2 ADD DUP6 SWAP1 MSTORE SWAP1 DUP2 ADD DUP4 SWAP1 MSTORE PUSH1 0x60 DUP2 ADD DUP3 SWAP1 MSTORE CHAINID PUSH1 0x80 DUP3 ADD MSTORE ADDRESS PUSH1 0xA0 DUP3 ADD MSTORE PUSH1 0x0 SWAP1 PUSH1 0xC0 ADD PUSH1 0x40 MLOAD PUSH1 0x20 DUP2 DUP4 SUB SUB DUP2 MSTORE SWAP1 PUSH1 0x40 MSTORE DUP1 MLOAD SWAP1 PUSH1 0x20 ADD KECCAK256 SWAP1 POP SWAP4 SWAP3 POP POP POP JUMP JUMPDEST PUSH1 0x0 DUP1 PUSH2 0x1433 PUSH2 0xD63 JUMP JUMPDEST SWAP1 POP PUSH1 0x0 PUSH2 0x1440 PUSH1 0x36 SLOAD SWAP1 JUMP JUMPDEST SWAP1 POP DUP1 PUSH1 0x0 SUB PUSH2 0x145B JUMPI POP PUSH8 0xDE0B6B3A7640000 SWAP4 SWAP3 POP POP POP JUMP JUMPDEST DUP4 PUSH2 0x146F JUMPI PUSH2 0x146A DUP3 DUP3 PUSH2 0x166E JUMP JUMPDEST PUSH2 0x1479 JUMP JUMPDEST PUSH2 0x1479 DUP3 DUP3 PUSH2 0x1933 JUMP JUMPDEST SWAP5 SWAP4 POP POP POP POP JUMP JUMPDEST PUSH1 0x0 DUP1 PUSH2 0x148E DUP4 DUP6 PUSH2 0x2578 JUMP JUMPDEST SWAP1 POP PUSH2 0x1479 PUSH8 0xDE0B6B3A7640000 DUP3 PUSH2 0x25A5 JUMP JUMPDEST PUSH1 0x1 PUSH1 0x1 PUSH1 0xA0 SHL SUB DUP3 AND PUSH2 0x1502 JUMPI PUSH1 0x40 MLOAD PUSH3 0x461BCD PUSH1 0xE5 SHL DUP2 MSTORE PUSH1 0x20 PUSH1 0x4 DUP3 ADD MSTORE PUSH1 0x21 PUSH1 0x24 DUP3 ADD MSTORE PUSH32 0x45524332303A206275726E2066726F6D20746865207A65726F20616464726573 PUSH1 0x44 DUP3 ADD MSTORE PUSH1 0x73 PUSH1 0xF8 SHL PUSH1 0x64 DUP3 ADD MSTORE PUSH1 0x84 ADD PUSH2 0x613 JUMP JUMPDEST PUSH1 0x1 PUSH1 0x1 PUSH1 0xA0 SHL SUB DUP3 AND PUSH1 0x0 SWAP1 DUP2 MSTORE PUSH1 0x34 PUSH1 0x20 MSTORE PUSH1 0x40 SWAP1 KECCAK256 SLOAD DUP2 DUP2 LT ISZERO PUSH2 0x1576 JUMPI PUSH1 0x40 MLOAD PUSH3 0x461BCD PUSH1 0xE5 SHL DUP2 MSTORE PUSH1 0x20 PUSH1 0x4 DUP3 ADD MSTORE PUSH1 0x22 PUSH1 0x24 DUP3 ADD MSTORE PUSH32 0x45524332303A206275726E20616D6F756E7420657863656564732062616C616E PUSH1 0x44 DUP3 ADD MSTORE PUSH2 0x6365 PUSH1 0xF0 SHL PUSH1 0x64 DUP3 ADD MSTORE PUSH1 0x84 ADD PUSH2 0x613 JUMP JUMPDEST PUSH1 0x1 PUSH1 0x1 PUSH1 0xA0 SHL SUB DUP4 AND PUSH1 0x0 DUP2 DUP2 MSTORE PUSH1 0x34 PUSH1 0x20 SWAP1 DUP2 MSTORE PUSH1 0x40 DUP1 DUP4 KECCAK256 DUP7 DUP7 SUB SWAP1 SSTORE PUSH1 0x36 DUP1 SLOAD DUP8 SWAP1 SUB SWAP1 SSTORE MLOAD DUP6 DUP2 MSTORE SWAP2 SWAP3 SWAP2 PUSH32 0xDDF252AD1BE2C89B69C2B068FC378DAA952BA7F163C4A11628F55A4DF523B3EF SWAP2 ADD PUSH2 0x117B JUMP JUMPDEST POP POP POP JUMP JUMPDEST PUSH1 0x40 MLOAD PUSH1 0x1 PUSH1 0x1 PUSH1 0xA0 SHL SUB DUP4 AND PUSH1 0x24 DUP3 ADD MSTORE PUSH1 0x44 DUP2 ADD DUP3 SWAP1 MSTORE PUSH2 0x15CE SWAP1 DUP5 SWAP1 PUSH4 0xA9059CBB PUSH1 0xE0 SHL SWAP1 PUSH1 0x64 ADD JUMPDEST PUSH1 0x40 DUP1 MLOAD PUSH1 0x1F NOT DUP2 DUP5 SUB ADD DUP2 MSTORE SWAP2 SWAP1 MSTORE PUSH1 0x20 DUP2 ADD DUP1 MLOAD PUSH1 0x1 PUSH1 0x1 PUSH1 0xE0 SHL SUB AND PUSH1 0x1 PUSH1 0x1 PUSH1 0xE0 SHL SUB NOT SWAP1 SWAP4 AND SWAP3 SWAP1 SWAP3 OR SWAP1 SWAP2 MSTORE PUSH2 0x19B2 JUMP JUMPDEST PUSH1 0x40 MLOAD PUSH1 0x1 PUSH1 0x1 PUSH1 0xA0 SHL SUB DUP1 DUP6 AND PUSH1 0x24 DUP4 ADD MSTORE DUP4 AND PUSH1 0x44 DUP3 ADD MSTORE PUSH1 0x64 DUP2 ADD DUP3 SWAP1 MSTORE PUSH2 0x11FC SWAP1 DUP6 SWAP1 PUSH4 0x23B872DD PUSH1 0xE0 SHL SWAP1 PUSH1 0x84 ADD PUSH2 0x15FF JUMP JUMPDEST PUSH1 0x40 DUP1 MLOAD DUP1 DUP3 ADD SWAP1 SWAP2 MSTORE PUSH1 0x2 DUP2 MSTORE PUSH2 0x3235 PUSH1 0xF0 SHL PUSH1 0x20 DUP3 ADD MSTORE PUSH1 0x0 SWAP1 DUP3 PUSH2 0x16A8 JUMPI PUSH1 0x40 MLOAD PUSH3 0x461BCD PUSH1 0xE5 SHL DUP2 MSTORE PUSH1 0x4 ADD PUSH2 0x613 SWAP2 SWAP1 PUSH2 0x1F71 JUMP JUMPDEST POP DUP3 PUSH1 0x0 SUB PUSH2 0x16B9 JUMPI POP PUSH1 0x0 PUSH2 0x5C8 JUMP JUMPDEST PUSH1 0x0 PUSH2 0x16CD PUSH8 0xDE0B6B3A7640000 DUP6 PUSH2 0x2578 JUMP JUMPDEST SWAP1 POP PUSH2 0x16D9 DUP4 DUP3 PUSH2 0x25A5 JUMP JUMPDEST SWAP2 POP POP PUSH2 0x5C8 JUMP JUMPDEST PUSH1 0x0 PUSH1 0x8 PUSH2 0x16ED PUSH2 0x6AB JUMP JUMPDEST PUSH1 0xFF AND GT PUSH2 0x16FB JUMPI POP PUSH1 0xA SWAP1 JUMP JUMPDEST POP PUSH2 0x3E8 SWAP1 JUMP JUMPDEST PUSH1 0x1 PUSH1 0x1 PUSH1 0xA0 SHL SUB DUP3 AND PUSH2 0x1758 JUMPI PUSH1 0x40 MLOAD PUSH3 0x461BCD PUSH1 0xE5 SHL DUP2 MSTORE PUSH1 0x20 PUSH1 0x4 DUP3 ADD MSTORE PUSH1 0x1F PUSH1 0x24 DUP3 ADD MSTORE PUSH32 0x45524332303A206D696E7420746F20746865207A65726F206164647265737300 PUSH1 0x44 DUP3 ADD MSTORE PUSH1 0x64 ADD PUSH2 0x613 JUMP JUMPDEST DUP1 PUSH1 0x36 PUSH1 0x0 DUP3 DUP3 SLOAD PUSH2 0x176A SWAP2 SWAP1 PUSH2 0x238E JUMP JUMPDEST SWAP1 SWAP2 SSTORE POP POP PUSH1 0x1 PUSH1 0x1 PUSH1 0xA0 SHL SUB DUP3 AND PUSH1 0x0 DUP2 DUP2 MSTORE PUSH1 0x34 PUSH1 0x20 SWAP1 DUP2 MSTORE PUSH1 0x40 DUP1 DUP4 KECCAK256 DUP1 SLOAD DUP7 ADD SWAP1 SSTORE MLOAD DUP5 DUP2 MSTORE PUSH32 0xDDF252AD1BE2C89B69C2B068FC378DAA952BA7F163C4A11628F55A4DF523B3EF SWAP2 ADD PUSH1 0x40 MLOAD DUP1 SWAP2 SUB SWAP1 LOG3 POP POP JUMP JUMPDEST PUSH1 0x40 DUP1 MLOAD DUP1 DUP3 ADD SWAP1 SWAP2 MSTORE PUSH1 0x2 DUP2 MSTORE PUSH2 0x3331 PUSH1 0xF0 SHL PUSH1 0x20 DUP3 ADD MSTORE PUSH1 0x1 PUSH1 0x1 PUSH1 0xA0 SHL SUB DUP6 AND PUSH2 0x1803 JUMPI PUSH1 0x40 MLOAD PUSH3 0x461BCD PUSH1 0xE5 SHL DUP2 MSTORE PUSH1 0x4 ADD PUSH2 0x613 SWAP2 SWAP1 PUSH2 0x1F71 JUMP JUMPDEST POP PUSH2 0x131 DUP1 SLOAD PUSH1 0x1 PUSH1 0x1 PUSH1 0xA0 SHL SUB NOT AND PUSH1 0x1 PUSH1 0x1 PUSH1 0xA0 SHL SUB DUP7 AND OR SWAP1 SSTORE NUMBER PUSH2 0x132 SSTORE PUSH2 0x182E DUP4 PUSH2 0x1841 JUMP JUMPDEST PUSH2 0x1838 DUP3 DUP3 PUSH2 0x1A84 JUMP JUMPDEST PUSH2 0x11FC DUP3 PUSH2 0x1AB7 JUMP JUMPDEST PUSH1 0x0 DUP1 SLOAD PUSH1 0x1 PUSH1 0x1 PUSH1 0xA0 SHL SUB NOT AND PUSH1 0x1 PUSH1 0x1 PUSH1 0xA0 SHL SUB DUP4 AND SWAP1 DUP2 OR DUP3 SSTORE PUSH1 0x40 DUP1 MLOAD SWAP3 DUP4 MSTORE PUSH1 0x20 DUP4 ADD SWAP2 SWAP1 SWAP2 MSTORE PUSH32 0xDE4B3F61490B74C0ED6237523974FE299126BBBF8A8A7482FD220104C59B0C84 SWAP2 ADD PUSH2 0x67C JUMP JUMPDEST PUSH1 0x1 PUSH1 0x1 PUSH1 0xA0 SHL SUB DUP2 AND PUSH1 0x0 SWAP1 DUP2 MSTORE PUSH1 0x9A PUSH1 0x20 MSTORE PUSH1 0x40 SWAP1 KECCAK256 DUP1 SLOAD PUSH1 0x1 DUP2 ADD DUP3 SSTORE SWAP1 JUMPDEST POP SWAP2 SWAP1 POP JUMP JUMPDEST PUSH1 0x0 PUSH2 0x5C8 PUSH2 0x18CA PUSH2 0x13AD JUMP JUMPDEST DUP4 PUSH1 0x40 MLOAD PUSH2 0x1901 PUSH1 0xF0 SHL PUSH1 0x20 DUP3 ADD MSTORE PUSH1 0x22 DUP2 ADD DUP4 SWAP1 MSTORE PUSH1 0x42 DUP2 ADD DUP3 SWAP1 MSTORE PUSH1 0x0 SWAP1 PUSH1 0x62 ADD PUSH1 0x40 MLOAD PUSH1 0x20 DUP2 DUP4 SUB SUB DUP2 MSTORE SWAP1 PUSH1 0x40 MSTORE DUP1 MLOAD SWAP1 PUSH1 0x20 ADD KECCAK256 SWAP1 POP SWAP3 SWAP2 POP POP JUMP JUMPDEST PUSH1 0x0 DUP1 PUSH1 0x0 PUSH2 0x191C DUP8 DUP8 DUP8 DUP8 PUSH2 0x1B06 JUMP JUMPDEST SWAP2 POP SWAP2 POP PUSH2 0x1929 DUP2 PUSH2 0x1BCA JUMP JUMPDEST POP SWAP6 SWAP5 POP POP POP POP POP JUMP JUMPDEST PUSH1 0x40 DUP1 MLOAD DUP1 DUP3 ADD SWAP1 SWAP2 MSTORE PUSH1 0x2 DUP2 MSTORE PUSH2 0x3235 PUSH1 0xF0 SHL PUSH1 0x20 DUP3 ADD MSTORE PUSH1 0x0 SWAP1 DUP3 PUSH2 0x196D JUMPI PUSH1 0x40 MLOAD PUSH3 0x461BCD PUSH1 0xE5 SHL DUP2 MSTORE PUSH1 0x4 ADD PUSH2 0x613 SWAP2 SWAP1 PUSH2 0x1F71 JUMP JUMPDEST POP DUP3 PUSH1 0x0 SUB PUSH2 0x197E JUMPI POP PUSH1 0x0 PUSH2 0x5C8 JUMP JUMPDEST PUSH1 0x0 PUSH2 0x1992 PUSH8 0xDE0B6B3A7640000 DUP6 PUSH2 0x2578 JUMP JUMPDEST SWAP1 POP DUP3 PUSH1 0x1 DUP3 SUB DUP2 PUSH2 0x19A6 JUMPI PUSH2 0x19A6 PUSH2 0x258F JUMP JUMPDEST DIV PUSH1 0x1 ADD SWAP2 POP POP PUSH2 0x5C8 JUMP JUMPDEST PUSH1 0x0 PUSH2 0x1A07 DUP3 PUSH1 0x40 MLOAD DUP1 PUSH1 0x40 ADD PUSH1 0x40 MSTORE DUP1 PUSH1 0x20 DUP2 MSTORE PUSH1 0x20 ADD PUSH32 0x5361666545524332303A206C6F772D6C6576656C2063616C6C206661696C6564 DUP2 MSTORE POP DUP6 PUSH1 0x1 PUSH1 0x1 PUSH1 0xA0 SHL SUB AND PUSH2 0x1D14 SWAP1 SWAP3 SWAP2 SWAP1 PUSH4 0xFFFFFFFF AND JUMP JUMPDEST DUP1 MLOAD SWAP1 SWAP2 POP ISZERO PUSH2 0x15CE JUMPI DUP1 DUP1 PUSH1 0x20 ADD SWAP1 MLOAD DUP2 ADD SWAP1 PUSH2 0x1A25 SWAP2 SWAP1 PUSH2 0x25C7 JUMP JUMPDEST PUSH2 0x15CE JUMPI PUSH1 0x40 MLOAD PUSH3 0x461BCD PUSH1 0xE5 SHL DUP2 MSTORE PUSH1 0x20 PUSH1 0x4 DUP3 ADD MSTORE PUSH1 0x2A PUSH1 0x24 DUP3 ADD MSTORE PUSH32 0x5361666545524332303A204552433230206F7065726174696F6E20646964206E PUSH1 0x44 DUP3 ADD MSTORE PUSH10 0x1BDD081CDD58D8D95959 PUSH1 0xB2 SHL PUSH1 0x64 DUP3 ADD MSTORE PUSH1 0x84 ADD PUSH2 0x613 JUMP JUMPDEST PUSH1 0x1 SLOAD PUSH1 0x1 PUSH1 0xA8 SHL SWAP1 DIV PUSH1 0xFF AND PUSH2 0x1AAD JUMPI PUSH1 0x40 MLOAD PUSH3 0x461BCD PUSH1 0xE5 SHL DUP2 MSTORE PUSH1 0x4 ADD PUSH2 0x613 SWAP1 PUSH2 0x25E9 JUMP JUMPDEST PUSH2 0xD5F DUP3 DUP3 PUSH2 0x1D23 JUMP JUMPDEST PUSH1 0x1 SLOAD PUSH1 0x1 PUSH1 0xA8 SHL SWAP1 DIV PUSH1 0xFF AND PUSH2 0x1AE0 JUMPI PUSH1 0x40 MLOAD PUSH3 0x461BCD PUSH1 0xE5 SHL DUP2 MSTORE PUSH1 0x4 ADD PUSH2 0x613 SWAP1 PUSH2 0x25E9 JUMP JUMPDEST PUSH2 0x1B03 DUP2 PUSH1 0x40 MLOAD DUP1 PUSH1 0x40 ADD PUSH1 0x40 MSTORE DUP1 PUSH1 0x1 DUP2 MSTORE PUSH1 0x20 ADD PUSH1 0x31 PUSH1 0xF8 SHL DUP2 MSTORE POP PUSH2 0x1D65 JUMP JUMPDEST POP JUMP JUMPDEST PUSH1 0x0 DUP1 PUSH32 0x7FFFFFFFFFFFFFFFFFFFFFFFFFFFFFFF5D576E7357A4501DDFE92F46681B20A0 DUP4 GT ISZERO PUSH2 0x1B3D JUMPI POP PUSH1 0x0 SWAP1 POP PUSH1 0x3 PUSH2 0x1BC1 JUMP JUMPDEST PUSH1 0x40 DUP1 MLOAD PUSH1 0x0 DUP1 DUP3 MSTORE PUSH1 0x20 DUP3 ADD DUP1 DUP5 MSTORE DUP10 SWAP1 MSTORE PUSH1 0xFF DUP9 AND SWAP3 DUP3 ADD SWAP3 SWAP1 SWAP3 MSTORE PUSH1 0x60 DUP2 ADD DUP7 SWAP1 MSTORE PUSH1 0x80 DUP2 ADD DUP6 SWAP1 MSTORE PUSH1 0x1 SWAP1 PUSH1 0xA0 ADD PUSH1 0x20 PUSH1 0x40 MLOAD PUSH1 0x20 DUP2 SUB SWAP1 DUP1 DUP5 SUB SWAP1 DUP6 GAS STATICCALL ISZERO DUP1 ISZERO PUSH2 0x1B91 JUMPI RETURNDATASIZE PUSH1 0x0 DUP1 RETURNDATACOPY RETURNDATASIZE PUSH1 0x0 REVERT JUMPDEST POP POP PUSH1 0x40 MLOAD PUSH1 0x1F NOT ADD MLOAD SWAP2 POP POP PUSH1 0x1 PUSH1 0x1 PUSH1 0xA0 SHL SUB DUP2 AND PUSH2 0x1BBA JUMPI PUSH1 0x0 PUSH1 0x1 SWAP3 POP SWAP3 POP POP PUSH2 0x1BC1 JUMP JUMPDEST SWAP2 POP PUSH1 0x0 SWAP1 POP JUMPDEST SWAP5 POP SWAP5 SWAP3 POP POP POP JUMP JUMPDEST PUSH1 0x0 DUP2 PUSH1 0x4 DUP2 GT ISZERO PUSH2 0x1BDE JUMPI PUSH2 0x1BDE PUSH2 0x2045 JUMP JUMPDEST SUB PUSH2 0x1BE6 JUMPI POP JUMP JUMPDEST PUSH1 0x1 DUP2 PUSH1 0x4 DUP2 GT ISZERO PUSH2 0x1BFA JUMPI PUSH2 0x1BFA PUSH2 0x2045 JUMP JUMPDEST SUB PUSH2 0x1C47 JUMPI PUSH1 0x40 MLOAD PUSH3 0x461BCD PUSH1 0xE5 SHL DUP2 MSTORE PUSH1 0x20 PUSH1 0x4 DUP3 ADD MSTORE PUSH1 0x18 PUSH1 0x24 DUP3 ADD MSTORE PUSH32 0x45434453413A20696E76616C6964207369676E61747572650000000000000000 PUSH1 0x44 DUP3 ADD MSTORE PUSH1 0x64 ADD PUSH2 0x613 JUMP JUMPDEST PUSH1 0x2 DUP2 PUSH1 0x4 DUP2 GT ISZERO PUSH2 0x1C5B JUMPI PUSH2 0x1C5B PUSH2 0x2045 JUMP JUMPDEST SUB PUSH2 0x1CA8 JUMPI PUSH1 0x40 MLOAD PUSH3 0x461BCD PUSH1 0xE5 SHL DUP2 MSTORE PUSH1 0x20 PUSH1 0x4 DUP3 ADD MSTORE PUSH1 0x1F PUSH1 0x24 DUP3 ADD MSTORE PUSH32 0x45434453413A20696E76616C6964207369676E6174757265206C656E67746800 PUSH1 0x44 DUP3 ADD MSTORE PUSH1 0x64 ADD PUSH2 0x613 JUMP JUMPDEST PUSH1 0x3 DUP2 PUSH1 0x4 DUP2 GT ISZERO PUSH2 0x1CBC JUMPI PUSH2 0x1CBC PUSH2 0x2045 JUMP JUMPDEST SUB PUSH2 0x1B03 JUMPI PUSH1 0x40 MLOAD PUSH3 0x461BCD PUSH1 0xE5 SHL DUP2 MSTORE PUSH1 0x20 PUSH1 0x4 DUP3 ADD MSTORE PUSH1 0x22 PUSH1 0x24 DUP3 ADD MSTORE PUSH32 0x45434453413A20696E76616C6964207369676E6174757265202773272076616C PUSH1 0x44 DUP3 ADD MSTORE PUSH2 0x7565 PUSH1 0xF0 SHL PUSH1 0x64 DUP3 ADD MSTORE PUSH1 0x84 ADD PUSH2 0x613 JUMP JUMPDEST PUSH1 0x60 PUSH2 0x1479 DUP5 DUP5 PUSH1 0x0 DUP6 PUSH2 0x1DA8 JUMP JUMPDEST PUSH1 0x1 SLOAD PUSH1 0x1 PUSH1 0xA8 SHL SWAP1 DIV PUSH1 0xFF AND PUSH2 0x1D4C JUMPI PUSH1 0x40 MLOAD PUSH3 0x461BCD PUSH1 0xE5 SHL DUP2 MSTORE PUSH1 0x4 ADD PUSH2 0x613 SWAP1 PUSH2 0x25E9 JUMP JUMPDEST PUSH1 0x37 PUSH2 0x1D58 DUP4 DUP3 PUSH2 0x267A JUMP JUMPDEST POP PUSH1 0x38 PUSH2 0x15CE DUP3 DUP3 PUSH2 0x267A JUMP JUMPDEST PUSH1 0x1 SLOAD PUSH1 0x1 PUSH1 0xA8 SHL SWAP1 DIV PUSH1 0xFF AND PUSH2 0x1D8E JUMPI PUSH1 0x40 MLOAD PUSH3 0x461BCD PUSH1 0xE5 SHL DUP2 MSTORE PUSH1 0x4 ADD PUSH2 0x613 SWAP1 PUSH2 0x25E9 JUMP JUMPDEST DUP2 MLOAD PUSH1 0x20 SWAP3 DUP4 ADD KECCAK256 DUP2 MLOAD SWAP2 SWAP1 SWAP3 ADD KECCAK256 PUSH1 0x66 SWAP2 SWAP1 SWAP2 SSTORE PUSH1 0x67 SSTORE JUMP JUMPDEST PUSH1 0x60 DUP3 SELFBALANCE LT ISZERO PUSH2 0x1E09 JUMPI PUSH1 0x40 MLOAD PUSH3 0x461BCD PUSH1 0xE5 SHL DUP2 MSTORE PUSH1 0x20 PUSH1 0x4 DUP3 ADD MSTORE PUSH1 0x26 PUSH1 0x24 DUP3 ADD MSTORE PUSH32 0x416464726573733A20696E73756666696369656E742062616C616E636520666F PUSH1 0x44 DUP3 ADD MSTORE PUSH6 0x1C8818D85B1B PUSH1 0xD2 SHL PUSH1 0x64 DUP3 ADD MSTORE PUSH1 0x84 ADD PUSH2 0x613 JUMP JUMPDEST PUSH1 0x0 DUP1 DUP7 PUSH1 0x1 PUSH1 0x1 PUSH1 0xA0 SHL SUB AND DUP6 DUP8 PUSH1 0x40 MLOAD PUSH2 0x1E25 SWAP2 SWAP1 PUSH2 0x273A JUMP JUMPDEST PUSH1 0x0 PUSH1 0x40 MLOAD DUP1 DUP4 SUB DUP2 DUP6 DUP8 GAS CALL SWAP3 POP POP POP RETURNDATASIZE DUP1 PUSH1 0x0 DUP2 EQ PUSH2 0x1E62 JUMPI PUSH1 0x40 MLOAD SWAP2 POP PUSH1 0x1F NOT PUSH1 0x3F RETURNDATASIZE ADD AND DUP3 ADD PUSH1 0x40 MSTORE RETURNDATASIZE DUP3 MSTORE RETURNDATASIZE PUSH1 0x0 PUSH1 0x20 DUP5 ADD RETURNDATACOPY PUSH2 0x1E67 JUMP JUMPDEST PUSH1 0x60 SWAP2 POP JUMPDEST POP SWAP2 POP SWAP2 POP PUSH2 0x1E78 DUP8 DUP4 DUP4 DUP8 PUSH2 0x1E83 JUMP JUMPDEST SWAP8 SWAP7 POP POP POP POP POP POP POP JUMP JUMPDEST PUSH1 0x60 DUP4 ISZERO PUSH2 0x1EF2 JUMPI DUP3 MLOAD PUSH1 0x0 SUB PUSH2 0x1EEB JUMPI PUSH1 0x1 PUSH1 0x1 PUSH1 0xA0 SHL SUB DUP6 AND EXTCODESIZE PUSH2 0x1EEB JUMPI PUSH1 0x40 MLOAD PUSH3 0x461BCD PUSH1 0xE5 SHL DUP2 MSTORE PUSH1 0x20 PUSH1 0x4 DUP3 ADD MSTORE PUSH1 0x1D PUSH1 0x24 DUP3 ADD MSTORE PUSH32 0x416464726573733A2063616C6C20746F206E6F6E2D636F6E7472616374000000 PUSH1 0x44 DUP3 ADD MSTORE PUSH1 0x64 ADD PUSH2 0x613 JUMP JUMPDEST POP DUP2 PUSH2 0x1479 JUMP JUMPDEST PUSH2 0x1479 DUP4 DUP4 DUP2 MLOAD ISZERO PUSH2 0x1F07 JUMPI DUP2 MLOAD DUP1 DUP4 PUSH1 0x20 ADD REVERT JUMPDEST DUP1 PUSH1 0x40 MLOAD PUSH3 0x461BCD PUSH1 0xE5 SHL DUP2 MSTORE PUSH1 0x4 ADD PUSH2 0x613 SWAP2 SWAP1 PUSH2 0x1F71 JUMP JUMPDEST PUSH1 0x0 JUMPDEST DUP4 DUP2 LT ISZERO PUSH2 0x1F3C JUMPI DUP2 DUP2 ADD MLOAD DUP4 DUP3 ADD MSTORE PUSH1 0x20 ADD PUSH2 0x1F24 JUMP JUMPDEST POP POP PUSH1 0x0 SWAP2 ADD MSTORE JUMP JUMPDEST PUSH1 0x0 DUP2 MLOAD DUP1 DUP5 MSTORE PUSH2 0x1F5D DUP2 PUSH1 0x20 DUP7 ADD PUSH1 0x20 DUP7 ADD PUSH2 0x1F21 JUMP JUMPDEST PUSH1 0x1F ADD PUSH1 0x1F NOT AND SWAP3 SWAP1 SWAP3 ADD PUSH1 0x20 ADD SWAP3 SWAP2 POP POP JUMP JUMPDEST PUSH1 0x20 DUP2 MSTORE PUSH1 0x0 PUSH2 0xF87 PUSH1 0x20 DUP4 ADD DUP5 PUSH2 0x1F45 JUMP JUMPDEST PUSH1 0x1 PUSH1 0x1 PUSH1 0xA0 SHL SUB DUP2 AND DUP2 EQ PUSH2 0x1B03 JUMPI PUSH1 0x0 DUP1 REVERT JUMPDEST PUSH1 0x0 DUP1 PUSH1 0x40 DUP4 DUP6 SUB SLT ISZERO PUSH2 0x1FAC JUMPI PUSH1 0x0 DUP1 REVERT JUMPDEST DUP3 CALLDATALOAD PUSH2 0x1FB7 DUP2 PUSH2 0x1F84 JUMP JUMPDEST SWAP5 PUSH1 0x20 SWAP4 SWAP1 SWAP4 ADD CALLDATALOAD SWAP4 POP POP POP JUMP JUMPDEST PUSH1 0x0 DUP1 PUSH1 0x0 PUSH1 0x60 DUP5 DUP7 SUB SLT ISZERO PUSH2 0x1FDA JUMPI PUSH1 0x0 DUP1 REVERT JUMPDEST DUP4 CALLDATALOAD PUSH2 0x1FE5 DUP2 PUSH2 0x1F84 JUMP JUMPDEST SWAP3 POP PUSH1 0x20 DUP5 ADD CALLDATALOAD PUSH2 0x1FF5 DUP2 PUSH2 0x1F84 JUMP JUMPDEST SWAP3 SWAP6 SWAP3 SWAP5 POP POP POP PUSH1 0x40 SWAP2 SWAP1 SWAP2 ADD CALLDATALOAD SWAP1 JUMP JUMPDEST PUSH1 0x0 PUSH1 0x20 DUP3 DUP5 SUB SLT ISZERO PUSH2 0x2018 JUMPI PUSH1 0x0 DUP1 REVERT JUMPDEST DUP2 CALLDATALOAD PUSH2 0xF87 DUP2 PUSH2 0x1F84 JUMP JUMPDEST PUSH1 0x0 DUP1 PUSH1 0x40 DUP4 DUP6 SUB SLT ISZERO PUSH2 0x2036 JUMPI PUSH1 0x0 DUP1 REVERT JUMPDEST POP POP DUP1 CALLDATALOAD SWAP3 PUSH1 0x20 SWAP1 SWAP2 ADD CALLDATALOAD SWAP2 POP JUMP JUMPDEST PUSH4 0x4E487B71 PUSH1 0xE0 SHL PUSH1 0x0 MSTORE PUSH1 0x21 PUSH1 0x4 MSTORE PUSH1 0x24 PUSH1 0x0 REVERT JUMPDEST PUSH1 0x20 DUP2 ADD PUSH1 0x5 DUP4 LT PUSH2 0x207D JUMPI PUSH4 0x4E487B71 PUSH1 0xE0 SHL PUSH1 0x0 MSTORE PUSH1 0x21 PUSH1 0x4 MSTORE PUSH1 0x24 PUSH1 0x0 REVERT JUMPDEST SWAP2 SWAP1 MSTORE SWAP1 JUMP JUMPDEST PUSH1 0x0 DUP1 PUSH1 0x0 PUSH1 0x60 DUP5 DUP7 SUB SLT ISZERO PUSH2 0x2098 JUMPI PUSH1 0x0 DUP1 REVERT JUMPDEST DUP4 CALLDATALOAD PUSH2 0x20A3 DUP2 PUSH2 0x1F84 JUMP JUMPDEST SWAP6 PUSH1 0x20 DUP6 ADD CALLDATALOAD SWAP6 POP PUSH1 0x40 SWAP1 SWAP5 ADD CALLDATALOAD SWAP4 SWAP3 POP POP POP JUMP JUMPDEST DUP3 DUP2 MSTORE PUSH1 0x40 PUSH1 0x20 DUP3 ADD MSTORE PUSH1 0x0 PUSH2 0x1479 PUSH1 0x40 DUP4 ADD DUP5 PUSH2 0x1F45 JUMP JUMPDEST PUSH1 0x20 DUP1 DUP3 MSTORE DUP3 MLOAD DUP3 DUP3 ADD DUP2 SWAP1 MSTORE PUSH1 0x0 SWAP2 SWAP1 DUP5 DUP3 ADD SWAP1 PUSH1 0x40 DUP6 ADD SWAP1 DUP5 JUMPDEST DUP2 DUP2 LT ISZERO PUSH2 0x2112 JUMPI DUP4 MLOAD PUSH1 0x1 PUSH1 0x1 PUSH1 0xA0 SHL SUB AND DUP4 MSTORE SWAP3 DUP5 ADD SWAP3 SWAP2 DUP5 ADD SWAP2 PUSH1 0x1 ADD PUSH2 0x20ED JUMP JUMPDEST POP SWAP1 SWAP7 SWAP6 POP POP POP POP POP POP JUMP JUMPDEST PUSH4 0x4E487B71 PUSH1 0xE0 SHL PUSH1 0x0 MSTORE PUSH1 0x41 PUSH1 0x4 MSTORE PUSH1 0x24 PUSH1 0x0 REVERT JUMPDEST PUSH1 0x40 MLOAD PUSH1 0x1F DUP3 ADD PUSH1 0x1F NOT AND DUP2 ADD PUSH8 0xFFFFFFFFFFFFFFFF DUP2 GT DUP3 DUP3 LT OR ISZERO PUSH2 0x215D JUMPI PUSH2 0x215D PUSH2 0x211E JUMP JUMPDEST PUSH1 0x40 MSTORE SWAP2 SWAP1 POP JUMP JUMPDEST PUSH1 0x0 DUP3 PUSH1 0x1F DUP4 ADD SLT PUSH2 0x2176 JUMPI PUSH1 0x0 DUP1 REVERT JUMPDEST DUP2 CALLDATALOAD PUSH8 0xFFFFFFFFFFFFFFFF DUP2 GT ISZERO PUSH2 0x2190 JUMPI PUSH2 0x2190 PUSH2 0x211E JUMP JUMPDEST PUSH2 0x21A3 PUSH1 0x1F DUP3 ADD PUSH1 0x1F NOT AND PUSH1 0x20 ADD PUSH2 0x2134 JUMP JUMPDEST DUP2 DUP2 MSTORE DUP5 PUSH1 0x20 DUP4 DUP7 ADD ADD GT ISZERO PUSH2 0x21B8 JUMPI PUSH1 0x0 DUP1 REVERT JUMPDEST DUP2 PUSH1 0x20 DUP6 ADD PUSH1 0x20 DUP4 ADD CALLDATACOPY PUSH1 0x0 SWAP2 DUP2 ADD PUSH1 0x20 ADD SWAP2 SWAP1 SWAP2 MSTORE SWAP4 SWAP3 POP POP POP JUMP JUMPDEST PUSH1 0x0 DUP1 PUSH1 0x0 DUP1 PUSH1 0x0 PUSH1 0xA0 DUP7 DUP9 SUB SLT ISZERO PUSH2 0x21ED JUMPI PUSH1 0x0 DUP1 REVERT JUMPDEST DUP6 CALLDATALOAD SWAP5 POP PUSH1 0x20 DUP7 ADD CALLDATALOAD PUSH2 0x21FF DUP2 PUSH2 0x1F84 JUMP JUMPDEST SWAP4 POP PUSH1 0x40 DUP7 ADD CALLDATALOAD PUSH8 0xFFFFFFFFFFFFFFFF DUP1 DUP3 GT ISZERO PUSH2 0x221C JUMPI PUSH1 0x0 DUP1 REVERT JUMPDEST PUSH2 0x2228 DUP10 DUP4 DUP11 ADD PUSH2 0x2165 JUMP JUMPDEST SWAP5 POP PUSH1 0x60 DUP9 ADD CALLDATALOAD SWAP2 POP DUP1 DUP3 GT ISZERO PUSH2 0x223E JUMPI PUSH1 0x0 DUP1 REVERT JUMPDEST POP PUSH2 0x224B DUP9 DUP3 DUP10 ADD PUSH2 0x2165 JUMP JUMPDEST SWAP3 POP POP PUSH1 0x80 DUP7 ADD CALLDATALOAD PUSH1 0x5 DUP2 LT PUSH2 0x2260 JUMPI PUSH1 0x0 DUP1 REVERT JUMPDEST DUP1 SWAP2 POP POP SWAP3 SWAP6 POP SWAP3 SWAP6 SWAP1 SWAP4 POP JUMP JUMPDEST PUSH1 0xFF DUP2 AND DUP2 EQ PUSH2 0x1B03 JUMPI PUSH1 0x0 DUP1 REVERT JUMPDEST PUSH1 0x0 DUP1 PUSH1 0x0 DUP1 PUSH1 0x0 DUP1 PUSH1 0x0 PUSH1 0xE0 DUP9 DUP11 SUB SLT ISZERO PUSH2 0x2298 JUMPI PUSH1 0x0 DUP1 REVERT JUMPDEST DUP8 CALLDATALOAD PUSH2 0x22A3 DUP2 PUSH2 0x1F84 JUMP JUMPDEST SWAP7 POP PUSH1 0x20 DUP9 ADD CALLDATALOAD PUSH2 0x22B3 DUP2 PUSH2 0x1F84 JUMP JUMPDEST SWAP6 POP PUSH1 0x40 DUP9 ADD CALLDATALOAD SWAP5 POP PUSH1 0x60 DUP9 ADD CALLDATALOAD SWAP4 POP PUSH1 0x80 DUP9 ADD CALLDATALOAD PUSH2 0x22D1 DUP2 PUSH2 0x226E JUMP JUMPDEST SWAP7 SWAP10 SWAP6 SWAP9 POP SWAP4 SWAP7 SWAP3 SWAP6 SWAP5 PUSH1 0xA0 DUP5 ADD CALLDATALOAD SWAP5 POP PUSH1 0xC0 SWAP1 SWAP4 ADD CALLDATALOAD SWAP3 SWAP2 POP POP JUMP JUMPDEST PUSH1 0x0 DUP1 PUSH1 0x40 DUP4 DUP6 SUB SLT ISZERO PUSH2 0x2301 JUMPI PUSH1 0x0 DUP1 REVERT JUMPDEST DUP3 CALLDATALOAD PUSH2 0x230C DUP2 PUSH2 0x1F84 JUMP JUMPDEST SWAP2 POP PUSH1 0x20 DUP4 ADD CALLDATALOAD PUSH2 0x231C DUP2 PUSH2 0x1F84 JUMP JUMPDEST DUP1 SWAP2 POP POP SWAP3 POP SWAP3 SWAP1 POP JUMP JUMPDEST PUSH1 0x1 DUP2 DUP2 SHR SWAP1 DUP3 AND DUP1 PUSH2 0x233B JUMPI PUSH1 0x7F DUP3 AND SWAP2 POP JUMPDEST PUSH1 0x20 DUP3 LT DUP2 SUB PUSH2 0x18B7 JUMPI PUSH4 0x4E487B71 PUSH1 0xE0 SHL PUSH1 0x0 MSTORE PUSH1 0x22 PUSH1 0x4 MSTORE PUSH1 0x24 PUSH1 0x0 REVERT JUMPDEST PUSH1 0x0 PUSH1 0x20 DUP3 DUP5 SUB SLT ISZERO PUSH2 0x236D JUMPI PUSH1 0x0 DUP1 REVERT JUMPDEST DUP2 MLOAD PUSH2 0xF87 DUP2 PUSH2 0x226E JUMP JUMPDEST PUSH4 0x4E487B71 PUSH1 0xE0 SHL PUSH1 0x0 MSTORE PUSH1 0x11 PUSH1 0x4 MSTORE PUSH1 0x24 PUSH1 0x0 REVERT JUMPDEST DUP1 DUP3 ADD DUP1 DUP3 GT ISZERO PUSH2 0x5C8 JUMPI PUSH2 0x5C8 PUSH2 0x2378 JUMP JUMPDEST DUP2 DUP2 SUB DUP2 DUP2 GT ISZERO PUSH2 0x5C8 JUMPI PUSH2 0x5C8 PUSH2 0x2378 JUMP JUMPDEST PUSH1 0x0 PUSH8 0xFFFFFFFFFFFFFFFF DUP3 GT ISZERO PUSH2 0x23CE JUMPI PUSH2 0x23CE PUSH2 0x211E JUMP JUMPDEST POP PUSH1 0x5 SHL PUSH1 0x20 ADD SWAP1 JUMP JUMPDEST PUSH1 0x0 DUP3 PUSH1 0x1F DUP4 ADD SLT PUSH2 0x23E9 JUMPI PUSH1 0x0 DUP1 REVERT JUMPDEST DUP2 MLOAD PUSH1 0x20 PUSH2 0x23FE PUSH2 0x23F9 DUP4 PUSH2 0x23B4 JUMP JUMPDEST PUSH2 0x2134 JUMP JUMPDEST DUP3 DUP2 MSTORE PUSH1 0x5 SWAP3 SWAP1 SWAP3 SHL DUP5 ADD DUP2 ADD SWAP2 DUP2 DUP2 ADD SWAP1 DUP7 DUP5 GT ISZERO PUSH2 0x241D JUMPI PUSH1 0x0 DUP1 REVERT JUMPDEST DUP3 DUP7 ADD JUMPDEST DUP5 DUP2 LT ISZERO PUSH2 0x2438 JUMPI DUP1 MLOAD DUP4 MSTORE SWAP2 DUP4 ADD SWAP2 DUP4 ADD PUSH2 0x2421 JUMP JUMPDEST POP SWAP7 SWAP6 POP POP POP POP POP POP JUMP JUMPDEST PUSH1 0x0 DUP1 PUSH1 0x0 PUSH1 0x60 DUP5 DUP7 SUB SLT ISZERO PUSH2 0x2458 JUMPI PUSH1 0x0 DUP1 REVERT JUMPDEST DUP4 MLOAD PUSH8 0xFFFFFFFFFFFFFFFF DUP1 DUP3 GT ISZERO PUSH2 0x2470 JUMPI PUSH1 0x0 DUP1 REVERT JUMPDEST DUP2 DUP7 ADD SWAP2 POP DUP7 PUSH1 0x1F DUP4 ADD SLT PUSH2 0x2484 JUMPI PUSH1 0x0 DUP1 REVERT JUMPDEST DUP2 MLOAD PUSH1 0x20 PUSH2 0x2494 PUSH2 0x23F9 DUP4 PUSH2 0x23B4 JUMP JUMPDEST DUP3 DUP2 MSTORE PUSH1 0x5 SWAP3 SWAP1 SWAP3 SHL DUP5 ADD DUP2 ADD SWAP2 DUP2 DUP2 ADD SWAP1 DUP11 DUP5 GT ISZERO PUSH2 0x24B3 JUMPI PUSH1 0x0 DUP1 REVERT JUMPDEST SWAP5 DUP3 ADD SWAP5 JUMPDEST DUP4 DUP7 LT ISZERO PUSH2 0x24DA JUMPI DUP6 MLOAD PUSH2 0x24CB DUP2 PUSH2 0x1F84 JUMP JUMPDEST DUP3 MSTORE SWAP5 DUP3 ADD SWAP5 SWAP1 DUP3 ADD SWAP1 PUSH2 0x24B8 JUMP JUMPDEST SWAP2 DUP10 ADD MLOAD SWAP2 SWAP8 POP SWAP1 SWAP4 POP POP POP DUP1 DUP3 GT ISZERO PUSH2 0x24F3 JUMPI PUSH1 0x0 DUP1 REVERT JUMPDEST POP PUSH2 0x2500 DUP7 DUP3 DUP8 ADD PUSH2 0x23D8 JUMP JUMPDEST SWAP3 POP POP PUSH1 0x40 DUP5 ADD MLOAD SWAP1 POP SWAP3 POP SWAP3 POP SWAP3 JUMP JUMPDEST PUSH1 0x20 DUP1 DUP3 MSTORE PUSH1 0x2E SWAP1 DUP3 ADD MSTORE PUSH32 0x496E697469616C697A61626C653A20636F6E747261637420697320616C726561 PUSH1 0x40 DUP3 ADD MSTORE PUSH14 0x191E481A5B9A5D1A585B1A5E9959 PUSH1 0x92 SHL PUSH1 0x60 DUP3 ADD MSTORE PUSH1 0x80 ADD SWAP1 JUMP JUMPDEST PUSH1 0x0 PUSH1 0x20 DUP3 DUP5 SUB SLT ISZERO PUSH2 0x2571 JUMPI PUSH1 0x0 DUP1 REVERT JUMPDEST POP MLOAD SWAP2 SWAP1 POP JUMP JUMPDEST DUP1 DUP3 MUL DUP2 ISZERO DUP3 DUP3 DIV DUP5 EQ OR PUSH2 0x5C8 JUMPI PUSH2 0x5C8 PUSH2 0x2378 JUMP JUMPDEST PUSH4 0x4E487B71 PUSH1 0xE0 SHL PUSH1 0x0 MSTORE PUSH1 0x12 PUSH1 0x4 MSTORE PUSH1 0x24 PUSH1 0x0 REVERT JUMPDEST PUSH1 0x0 DUP3 PUSH2 0x25C2 JUMPI PUSH4 0x4E487B71 PUSH1 0xE0 SHL PUSH1 0x0 MSTORE PUSH1 0x12 PUSH1 0x4 MSTORE PUSH1 0x24 PUSH1 0x0 REVERT JUMPDEST POP DIV SWAP1 JUMP JUMPDEST PUSH1 0x0 PUSH1 0x20 DUP3 DUP5 SUB SLT ISZERO PUSH2 0x25D9 JUMPI PUSH1 0x0 DUP1 REVERT JUMPDEST DUP2 MLOAD DUP1 ISZERO ISZERO DUP2 EQ PUSH2 0xF87 JUMPI PUSH1 0x0 DUP1 REVERT JUMPDEST PUSH1 0x20 DUP1 DUP3 MSTORE PUSH1 0x2B SWAP1 DUP3 ADD MSTORE PUSH32 0x496E697469616C697A61626C653A20636F6E7472616374206973206E6F742069 PUSH1 0x40 DUP3 ADD MSTORE PUSH11 0x6E697469616C697A696E67 PUSH1 0xA8 SHL PUSH1 0x60 DUP3 ADD MSTORE PUSH1 0x80 ADD SWAP1 JUMP JUMPDEST PUSH1 0x1F DUP3 GT ISZERO PUSH2 0x15CE JUMPI PUSH1 0x0 DUP2 DUP2 MSTORE PUSH1 0x20 DUP2 KECCAK256 PUSH1 0x1F DUP6 ADD PUSH1 0x5 SHR DUP2 ADD PUSH1 0x20 DUP7 LT ISZERO PUSH2 0x265B JUMPI POP DUP1 JUMPDEST PUSH1 0x1F DUP6 ADD PUSH1 0x5 SHR DUP3 ADD SWAP2 POP JUMPDEST DUP2 DUP2 LT ISZERO PUSH2 0xC78 JUMPI DUP3 DUP2 SSTORE PUSH1 0x1 ADD PUSH2 0x2667 JUMP JUMPDEST DUP2 MLOAD PUSH8 0xFFFFFFFFFFFFFFFF DUP2 GT ISZERO PUSH2 0x2694 JUMPI PUSH2 0x2694 PUSH2 0x211E JUMP JUMPDEST PUSH2 0x26A8 DUP2 PUSH2 0x26A2 DUP5 SLOAD PUSH2 0x2327 JUMP JUMPDEST DUP5 PUSH2 0x2634 JUMP JUMPDEST PUSH1 0x20 DUP1 PUSH1 0x1F DUP4 GT PUSH1 0x1 DUP2 EQ PUSH2 0x26DD JUMPI PUSH1 0x0 DUP5 ISZERO PUSH2 0x26C5 JUMPI POP DUP6 DUP4 ADD MLOAD JUMPDEST PUSH1 0x0 NOT PUSH1 0x3 DUP7 SWAP1 SHL SHR NOT AND PUSH1 0x1 DUP6 SWAP1 SHL OR DUP6 SSTORE PUSH2 0xC78 JUMP JUMPDEST PUSH1 0x0 DUP6 DUP2 MSTORE PUSH1 0x20 DUP2 KECCAK256 PUSH1 0x1F NOT DUP7 AND SWAP2 JUMPDEST DUP3 DUP2 LT ISZERO PUSH2 0x270C JUMPI DUP9 DUP7 ADD MLOAD DUP3 SSTORE SWAP5 DUP5 ADD SWAP5 PUSH1 0x1 SWAP1 SWAP2 ADD SWAP1 DUP5 ADD PUSH2 0x26ED JUMP JUMPDEST POP DUP6 DUP3 LT ISZERO PUSH2 0x272A JUMPI DUP8 DUP6 ADD MLOAD PUSH1 0x0 NOT PUSH1 0x3 DUP9 SWAP1 SHL PUSH1 0xF8 AND SHR NOT AND DUP2 SSTORE JUMPDEST POP POP POP POP POP PUSH1 0x1 SWAP1 DUP2 SHL ADD SWAP1 SSTORE POP JUMP JUMPDEST PUSH1 0x0 DUP3 MLOAD PUSH2 0x274C DUP2 DUP5 PUSH1 0x20 DUP8 ADD PUSH2 0x1F21 JUMP JUMPDEST SWAP2 SWAP1 SWAP2 ADD SWAP3 SWAP2 POP POP JUMP INVALID LOG2 PUSH5 0x6970667358 0x22 SLT KECCAK256 0x27 BASEFEE SAR 0x2F INVALID COINBASE BASEFEE DUP16 BLOCKHASH 0xB1 CHAINID 0x24 PUSH9 0xF1E80F30E4968D0A98 CALLDATASIZE STOP MSTORE8 0xF7 CODESIZE 0xF6 0xCF 0xBF AND EQ PUSH5 0x736F6C6343 STOP ADDMOD GT STOP CALLER ","sha1":"c383f505c1ea5be24e0873d77227851bb9c0ce62","source":"// SPDX-License-Identifier: LicenseRef-Gyro-1.0\n// for information on licensing please see the README in the GitHub repository <https://github.com/gyrostable/core-protocol>.\npragma solidity ^0.8.4;\n\nimport \"../../interfaces/balancer/IVault.sol\";\n\nimport \"./BaseVault.sol\";\n\ncontract BalancerPoolVault is BaseVault {\n    IVault public immutable balancerVault;\n\n    /// @notice Balancer pool ID\n    bytes32 public poolId;\n\n    /// @inheritdoc IGyroVault\n    Vaults.Type public override vaultType;\n\n    constructor(address _gyroConfig, IVault _balancerVault) BaseVault(_gyroConfig) {\n        balancerVault = _balancerVault;\n    }\n\n    function initialize(\n        bytes32 _poolId,\n        address governor,\n        string memory name,\n        string memory symbol,\n        Vaults.Type _vaultType\n    ) external virtual initializer {\n        __BaseVault_initialize(_getPoolAddress(_poolId), governor, name, symbol);\n        poolId = _poolId;\n        vaultType = _vaultType;\n    }\n\n    /// @inheritdoc IGyroVault\n    function getTokens() external view override returns (IERC20[] memory) {\n        (IERC20[] memory tokens, , ) = balancerVault.getPoolTokens(poolId);\n        return tokens;\n    }\n\n    function _getPoolAddress(bytes32 _poolId) internal pure returns (address) {\n        // 12 byte logical shift left to remove the nonce and specialization setting. We don't need to mask,\n        // since the logical shift already sets the upper bits to zero.\n        return address(uint160(uint256(_poolId) >> (12 * 8)));\n    }\n}\n","sourcePath":"contracts/vaults/BalancerPoolVault.sol","deployment":{"address":"0x86858b3d33e01842715a5c9c757dE9f7E18e3390","chainid":"1","blockHeight":18685082}}