{"abi":[{"inputs":[{"internalType":"address","name":"_config","type":"address"}],"stateMutability":"nonpayable","type":"constructor","name":"constructor"},{"inputs":[{"internalType":"contract IGyroVault","name":"vault","type":"address"},{"components":[{"internalType":"address","name":"tokenAddress","type":"address"},{"internalType":"bool","name":"isStable","type":"bool"},{"internalType":"uint256","name":"price","type":"uint256"},{"components":[{"internalType":"uint256","name":"floor","type":"uint256"},{"internalType":"uint256","name":"ceiling","type":"uint256"}],"internalType":"struct DataTypes.Range","name":"priceRange","type":"tuple"}],"internalType":"struct DataTypes.PricedToken[]","name":"underlyingPricedTokens","type":"tuple[]"}],"name":"getPoolTokenPriceUSD","outputs":[{"internalType":"uint256","name":"","type":"uint256"}],"stateMutability":"view","type":"function"},{"inputs":[{"internalType":"contract IGyroVault","name":"vault","type":"address"},{"components":[{"internalType":"address","name":"tokenAddress","type":"address"},{"internalType":"bool","name":"isStable","type":"bool"},{"internalType":"uint256","name":"price","type":"uint256"},{"components":[{"internalType":"uint256","name":"floor","type":"uint256"},{"internalType":"uint256","name":"ceiling","type":"uint256"}],"internalType":"struct DataTypes.Range","name":"priceRange","type":"tuple"}],"internalType":"struct DataTypes.PricedToken[]","name":"underlyingPricedTokens","type":"tuple[]"}],"name":"getPriceUSD","outputs":[{"internalType":"uint256","name":"","type":"uint256"}],"stateMutability":"view","type":"function"},{"inputs":[],"name":"gyroConfig","outputs":[{"internalType":"contract IGyroConfig","name":"","type":"address"}],"stateMutability":"view","type":"function"}],"bytecode":"60a060405234801561001057600080fd5b5060405161071438038061071483398101604081905261002f91610040565b6001600160a01b0316608052610070565b60006020828403121561005257600080fd5b81516001600160a01b038116811461006957600080fd5b9392505050565b60805161068361009160003960008181604b015261015501526106836000f3fe608060405234801561001057600080fd5b50600436106100415760003560e01c806344bbdb551461004657806385cb1a211461008a578063b71f4503146100ab575b600080fd5b61006d7f000000000000000000000000000000000000000000000000000000000000000081565b6040516001600160a01b0390911681526020015b60405180910390f35b61009d610098366004610453565b6100be565b604051908152602001610081565b61009d6100b9366004610453565b610282565b600080826000815181106100d4576100d4610585565b602002602001015190506000816040015190506000856001600160a01b0316636f307dc36040518163ffffffff1660e01b8152600401602060405180830381865afa158015610127573d6000803e3d6000fd5b505050506040513d601f19601f8201168201806040525081019061014b919061059b565b90506000806101827f00000000000000000000000000000000000000000000000000000000000000006001600160a01b0316610305565b6040516378412ceb60e01b81526001600160a01b03858116600483015291909116906378412ceb906024016040805180830381865afa1580156101c9573d6000803e3d6000fd5b505050506040513d601f19601f820116820180604052508101906101ed91906105bf565b9150915084600001516001600160a01b0316826001600160a01b03161461026a5760405162461bcd60e51b815260206004820152602760248201527f47656e657269635661756c7450726963654f7261636c653a20746f6b656e206d6044820152660d2e6dac2e8c6d60cb1b606482015260840160405180910390fd5b6102748482610387565b955050505050505b92915050565b60008061028f84846100be565b90506102fd846001600160a01b0316633ba0b9a96040518163ffffffff1660e01b8152600401602060405180830381865afa1580156102d2573d6000803e3d6000fd5b505050506040513d601f19601f820116820180604052508101906102f691906105ed565b8290610387565b949350505050565b6040516321f8a72160e01b815273524154455f4d414e414745525f4144445245535360601b60048201526000906001600160a01b038316906321f8a72190602401602060405180830381865afa158015610363573d6000803e3d6000fd5b505050506040513d601f19601f8201168201806040525081019061027c919061059b565b6000806103948385610606565b90506102fd670de0b6b3a76400008261062b565b6001600160a01b03811681146103bd57600080fd5b50565b634e487b7160e01b600052604160045260246000fd5b6040516080810167ffffffffffffffff811182821017156103f9576103f96103c0565b60405290565b6040805190810167ffffffffffffffff811182821017156103f9576103f96103c0565b604051601f8201601f1916810167ffffffffffffffff8111828210171561044b5761044b6103c0565b604052919050565b600080604080848603121561046757600080fd5b8335610472816103a8565b925060208481013567ffffffffffffffff8082111561049057600080fd5b818701915087601f8301126104a457600080fd5b8135818111156104b6576104b66103c0565b6104c4848260051b01610422565b818152848101925060a091820284018501918a8311156104e357600080fd5b938501935b8285101561057457848b03818112156105015760008081fd5b6105096103d6565b8635610514816103a8565b81528688013580151581146105295760008081fd5b8189015286890135898201526060605f1983018a13156105495760008081fd5b6105516103ff565b88820135815260808901358a8201529082015285525093840193928501926104e8565b508096505050505050509250929050565b634e487b7160e01b600052603260045260246000fd5b6000602082840312156105ad57600080fd5b81516105b8816103a8565b9392505050565b600080604083850312156105d257600080fd5b82516105dd816103a8565b6020939093015192949293505050565b6000602082840312156105ff57600080fd5b5051919050565b808202811582820484141761027c57634e487b7160e01b600052601160045260246000fd5b60008261064857634e487b7160e01b600052601260045260246000fd5b50049056fea2646970667358221220f39c21e2cd93ea6c252960f551fa1b4d59845c0d56d0e71215417d82dc7aa8dc64736f6c63430008110033","bytecodeSha1":"1f1bb224cd22b25692ddc25166e0532e2d248d79","compiler":{"evm_version":"london","optimizer":{"enabled":true,"runs":200},"version":"0.8.17+commit.8df45f5f"},"contractName":"GenericVaultPriceOracle","language":"Solidity","natspec":{"kind":"dev","methods":{"getPoolTokenPriceUSD(address,(address,bool,uint256,(uint256,uint256))[])":{"notice":"returns the price of the underlying pool token (e.g. BPT token) rather than the price of the vault token itself"},"getPriceUSD(address,(address,bool,uint256,(uint256,uint256))[])":{"notice":"Quotes the USD price of `vault` tokens The quoted price is always scaled with 18 decimals regardless of the source used for the oracle.","params":{"vault":"the vault of which the price is to be quoted"},"returns":{"_0":"the USD price of the vault token"}}},"version":1},"opcodes":"PUSH1 0x80 PUSH1 0x40 MSTORE CALLVALUE DUP1 ISZERO PUSH2 0x10 JUMPI PUSH1 0x0 DUP1 REVERT JUMPDEST POP PUSH1 0x4 CALLDATASIZE LT PUSH2 0x41 JUMPI PUSH1 0x0 CALLDATALOAD PUSH1 0xE0 SHR DUP1 PUSH4 0x44BBDB55 EQ PUSH2 0x46 JUMPI DUP1 PUSH4 0x85CB1A21 EQ PUSH2 0x8A JUMPI DUP1 PUSH4 0xB71F4503 EQ PUSH2 0xAB JUMPI JUMPDEST PUSH1 0x0 DUP1 REVERT JUMPDEST PUSH2 0x6D PUSH32 0x0 DUP2 JUMP JUMPDEST PUSH1 0x40 MLOAD PUSH1 0x1 PUSH1 0x1 PUSH1 0xA0 SHL SUB SWAP1 SWAP2 AND DUP2 MSTORE PUSH1 0x20 ADD JUMPDEST PUSH1 0x40 MLOAD DUP1 SWAP2 SUB SWAP1 RETURN JUMPDEST PUSH2 0x9D PUSH2 0x98 CALLDATASIZE PUSH1 0x4 PUSH2 0x453 JUMP JUMPDEST PUSH2 0xBE JUMP JUMPDEST PUSH1 0x40 MLOAD SWAP1 DUP2 MSTORE PUSH1 0x20 ADD PUSH2 0x81 JUMP JUMPDEST PUSH2 0x9D PUSH2 0xB9 CALLDATASIZE PUSH1 0x4 PUSH2 0x453 JUMP JUMPDEST PUSH2 0x282 JUMP JUMPDEST PUSH1 0x0 DUP1 DUP3 PUSH1 0x0 DUP2 MLOAD DUP2 LT PUSH2 0xD4 JUMPI PUSH2 0xD4 PUSH2 0x585 JUMP JUMPDEST PUSH1 0x20 MUL PUSH1 0x20 ADD ADD MLOAD SWAP1 POP PUSH1 0x0 DUP2 PUSH1 0x40 ADD MLOAD SWAP1 POP PUSH1 0x0 DUP6 PUSH1 0x1 PUSH1 0x1 PUSH1 0xA0 SHL SUB AND PUSH4 0x6F307DC3 PUSH1 0x40 MLOAD DUP2 PUSH4 0xFFFFFFFF AND PUSH1 0xE0 SHL DUP2 MSTORE PUSH1 0x4 ADD PUSH1 0x20 PUSH1 0x40 MLOAD DUP1 DUP4 SUB DUP2 DUP7 GAS STATICCALL ISZERO DUP1 ISZERO PUSH2 0x127 JUMPI RETURNDATASIZE PUSH1 0x0 DUP1 RETURNDATACOPY RETURNDATASIZE PUSH1 0x0 REVERT JUMPDEST POP POP POP POP PUSH1 0x40 MLOAD RETURNDATASIZE PUSH1 0x1F NOT PUSH1 0x1F DUP3 ADD AND DUP3 ADD DUP1 PUSH1 0x40 MSTORE POP DUP2 ADD SWAP1 PUSH2 0x14B SWAP2 SWAP1 PUSH2 0x59B JUMP JUMPDEST SWAP1 POP PUSH1 0x0 DUP1 PUSH2 0x182 PUSH32 0x0 PUSH1 0x1 PUSH1 0x1 PUSH1 0xA0 SHL SUB AND PUSH2 0x305 JUMP JUMPDEST PUSH1 0x40 MLOAD PUSH4 0x78412CEB PUSH1 0xE0 SHL DUP2 MSTORE PUSH1 0x1 PUSH1 0x1 PUSH1 0xA0 SHL SUB DUP6 DUP2 AND PUSH1 0x4 DUP4 ADD MSTORE SWAP2 SWAP1 SWAP2 AND SWAP1 PUSH4 0x78412CEB SWAP1 PUSH1 0x24 ADD PUSH1 0x40 DUP1 MLOAD DUP1 DUP4 SUB DUP2 DUP7 GAS STATICCALL ISZERO DUP1 ISZERO PUSH2 0x1C9 JUMPI RETURNDATASIZE PUSH1 0x0 DUP1 RETURNDATACOPY RETURNDATASIZE PUSH1 0x0 REVERT JUMPDEST POP POP POP POP PUSH1 0x40 MLOAD RETURNDATASIZE PUSH1 0x1F NOT PUSH1 0x1F DUP3 ADD AND DUP3 ADD DUP1 PUSH1 0x40 MSTORE POP DUP2 ADD SWAP1 PUSH2 0x1ED SWAP2 SWAP1 PUSH2 0x5BF JUMP JUMPDEST SWAP2 POP SWAP2 POP DUP5 PUSH1 0x0 ADD MLOAD PUSH1 0x1 PUSH1 0x1 PUSH1 0xA0 SHL SUB AND DUP3 PUSH1 0x1 PUSH1 0x1 PUSH1 0xA0 SHL SUB AND EQ PUSH2 0x26A JUMPI PUSH1 0x40 MLOAD PUSH3 0x461BCD PUSH1 0xE5 SHL DUP2 MSTORE PUSH1 0x20 PUSH1 0x4 DUP3 ADD MSTORE PUSH1 0x27 PUSH1 0x24 DUP3 ADD MSTORE PUSH32 0x47656E657269635661756C7450726963654F7261636C653A20746F6B656E206D PUSH1 0x44 DUP3 ADD MSTORE PUSH7 0xD2E6DAC2E8C6D PUSH1 0xCB SHL PUSH1 0x64 DUP3 ADD MSTORE PUSH1 0x84 ADD PUSH1 0x40 MLOAD DUP1 SWAP2 SUB SWAP1 REVERT JUMPDEST PUSH2 0x274 DUP5 DUP3 PUSH2 0x387 JUMP JUMPDEST SWAP6 POP POP POP POP POP POP JUMPDEST SWAP3 SWAP2 POP POP JUMP JUMPDEST PUSH1 0x0 DUP1 PUSH2 0x28F DUP5 DUP5 PUSH2 0xBE JUMP JUMPDEST SWAP1 POP PUSH2 0x2FD DUP5 PUSH1 0x1 PUSH1 0x1 PUSH1 0xA0 SHL SUB AND PUSH4 0x3BA0B9A9 PUSH1 0x40 MLOAD DUP2 PUSH4 0xFFFFFFFF AND PUSH1 0xE0 SHL DUP2 MSTORE PUSH1 0x4 ADD PUSH1 0x20 PUSH1 0x40 MLOAD DUP1 DUP4 SUB DUP2 DUP7 GAS STATICCALL ISZERO DUP1 ISZERO PUSH2 0x2D2 JUMPI RETURNDATASIZE PUSH1 0x0 DUP1 RETURNDATACOPY RETURNDATASIZE PUSH1 0x0 REVERT JUMPDEST POP POP POP POP PUSH1 0x40 MLOAD RETURNDATASIZE PUSH1 0x1F NOT PUSH1 0x1F DUP3 ADD AND DUP3 ADD DUP1 PUSH1 0x40 MSTORE POP DUP2 ADD SWAP1 PUSH2 0x2F6 SWAP2 SWAP1 PUSH2 0x5ED JUMP JUMPDEST DUP3 SWAP1 PUSH2 0x387 JUMP JUMPDEST SWAP5 SWAP4 POP POP POP POP JUMP JUMPDEST PUSH1 0x40 MLOAD PUSH4 0x21F8A721 PUSH1 0xE0 SHL DUP2 MSTORE PUSH20 0x524154455F4D414E414745525F41444452455353 PUSH1 0x60 SHL PUSH1 0x4 DUP3 ADD MSTORE PUSH1 0x0 SWAP1 PUSH1 0x1 PUSH1 0x1 PUSH1 0xA0 SHL SUB DUP4 AND SWAP1 PUSH4 0x21F8A721 SWAP1 PUSH1 0x24 ADD PUSH1 0x20 PUSH1 0x40 MLOAD DUP1 DUP4 SUB DUP2 DUP7 GAS STATICCALL ISZERO DUP1 ISZERO PUSH2 0x363 JUMPI RETURNDATASIZE PUSH1 0x0 DUP1 RETURNDATACOPY RETURNDATASIZE PUSH1 0x0 REVERT JUMPDEST POP POP POP POP PUSH1 0x40 MLOAD RETURNDATASIZE PUSH1 0x1F NOT PUSH1 0x1F DUP3 ADD AND DUP3 ADD DUP1 PUSH1 0x40 MSTORE POP DUP2 ADD SWAP1 PUSH2 0x27C SWAP2 SWAP1 PUSH2 0x59B JUMP JUMPDEST PUSH1 0x0 DUP1 PUSH2 0x394 DUP4 DUP6 PUSH2 0x606 JUMP JUMPDEST SWAP1 POP PUSH2 0x2FD PUSH8 0xDE0B6B3A7640000 DUP3 PUSH2 0x62B JUMP JUMPDEST PUSH1 0x1 PUSH1 0x1 PUSH1 0xA0 SHL SUB DUP2 AND DUP2 EQ PUSH2 0x3BD JUMPI PUSH1 0x0 DUP1 REVERT JUMPDEST POP JUMP JUMPDEST PUSH4 0x4E487B71 PUSH1 0xE0 SHL PUSH1 0x0 MSTORE PUSH1 0x41 PUSH1 0x4 MSTORE PUSH1 0x24 PUSH1 0x0 REVERT JUMPDEST PUSH1 0x40 MLOAD PUSH1 0x80 DUP2 ADD PUSH8 0xFFFFFFFFFFFFFFFF DUP2 GT DUP3 DUP3 LT OR ISZERO PUSH2 0x3F9 JUMPI PUSH2 0x3F9 PUSH2 0x3C0 JUMP JUMPDEST PUSH1 0x40 MSTORE SWAP1 JUMP JUMPDEST PUSH1 0x40 DUP1 MLOAD SWAP1 DUP2 ADD PUSH8 0xFFFFFFFFFFFFFFFF DUP2 GT DUP3 DUP3 LT OR ISZERO PUSH2 0x3F9 JUMPI PUSH2 0x3F9 PUSH2 0x3C0 JUMP JUMPDEST PUSH1 0x40 MLOAD PUSH1 0x1F DUP3 ADD PUSH1 0x1F NOT AND DUP2 ADD PUSH8 0xFFFFFFFFFFFFFFFF DUP2 GT DUP3 DUP3 LT OR ISZERO PUSH2 0x44B JUMPI PUSH2 0x44B PUSH2 0x3C0 JUMP JUMPDEST PUSH1 0x40 MSTORE SWAP2 SWAP1 POP JUMP JUMPDEST PUSH1 0x0 DUP1 PUSH1 0x40 DUP1 DUP5 DUP7 SUB SLT ISZERO PUSH2 0x467 JUMPI PUSH1 0x0 DUP1 REVERT JUMPDEST DUP4 CALLDATALOAD PUSH2 0x472 DUP2 PUSH2 0x3A8 JUMP JUMPDEST SWAP3 POP PUSH1 0x20 DUP5 DUP2 ADD CALLDATALOAD PUSH8 0xFFFFFFFFFFFFFFFF DUP1 DUP3 GT ISZERO PUSH2 0x490 JUMPI PUSH1 0x0 DUP1 REVERT JUMPDEST DUP2 DUP8 ADD SWAP2 POP DUP8 PUSH1 0x1F DUP4 ADD SLT PUSH2 0x4A4 JUMPI PUSH1 0x0 DUP1 REVERT JUMPDEST DUP2 CALLDATALOAD DUP2 DUP2 GT ISZERO PUSH2 0x4B6 JUMPI PUSH2 0x4B6 PUSH2 0x3C0 JUMP JUMPDEST PUSH2 0x4C4 DUP5 DUP3 PUSH1 0x5 SHL ADD PUSH2 0x422 JUMP JUMPDEST DUP2 DUP2 MSTORE DUP5 DUP2 ADD SWAP3 POP PUSH1 0xA0 SWAP2 DUP3 MUL DUP5 ADD DUP6 ADD SWAP2 DUP11 DUP4 GT ISZERO PUSH2 0x4E3 JUMPI PUSH1 0x0 DUP1 REVERT JUMPDEST SWAP4 DUP6 ADD SWAP4 JUMPDEST DUP3 DUP6 LT ISZERO PUSH2 0x574 JUMPI DUP5 DUP12 SUB DUP2 DUP2 SLT ISZERO PUSH2 0x501 JUMPI PUSH1 0x0 DUP1 DUP2 REVERT JUMPDEST PUSH2 0x509 PUSH2 0x3D6 JUMP JUMPDEST DUP7 CALLDATALOAD PUSH2 0x514 DUP2 PUSH2 0x3A8 JUMP JUMPDEST DUP2 MSTORE DUP7 DUP9 ADD CALLDATALOAD DUP1 ISZERO ISZERO DUP2 EQ PUSH2 0x529 JUMPI PUSH1 0x0 DUP1 DUP2 REVERT JUMPDEST DUP2 DUP10 ADD MSTORE DUP7 DUP10 ADD CALLDATALOAD DUP10 DUP3 ADD MSTORE PUSH1 0x60 PUSH1 0x5F NOT DUP4 ADD DUP11 SGT ISZERO PUSH2 0x549 JUMPI PUSH1 0x0 DUP1 DUP2 REVERT JUMPDEST PUSH2 0x551 PUSH2 0x3FF JUMP JUMPDEST DUP9 DUP3 ADD CALLDATALOAD DUP2 MSTORE PUSH1 0x80 DUP10 ADD CALLDATALOAD DUP11 DUP3 ADD MSTORE SWAP1 DUP3 ADD MSTORE DUP6 MSTORE POP SWAP4 DUP5 ADD SWAP4 SWAP3 DUP6 ADD SWAP3 PUSH2 0x4E8 JUMP JUMPDEST POP DUP1 SWAP7 POP POP POP POP POP POP POP SWAP3 POP SWAP3 SWAP1 POP JUMP JUMPDEST PUSH4 0x4E487B71 PUSH1 0xE0 SHL PUSH1 0x0 MSTORE PUSH1 0x32 PUSH1 0x4 MSTORE PUSH1 0x24 PUSH1 0x0 REVERT JUMPDEST PUSH1 0x0 PUSH1 0x20 DUP3 DUP5 SUB SLT ISZERO PUSH2 0x5AD JUMPI PUSH1 0x0 DUP1 REVERT JUMPDEST DUP2 MLOAD PUSH2 0x5B8 DUP2 PUSH2 0x3A8 JUMP JUMPDEST SWAP4 SWAP3 POP POP POP JUMP JUMPDEST PUSH1 0x0 DUP1 PUSH1 0x40 DUP4 DUP6 SUB SLT ISZERO PUSH2 0x5D2 JUMPI PUSH1 0x0 DUP1 REVERT JUMPDEST DUP3 MLOAD PUSH2 0x5DD DUP2 PUSH2 0x3A8 JUMP JUMPDEST PUSH1 0x20 SWAP4 SWAP1 SWAP4 ADD MLOAD SWAP3 SWAP5 SWAP3 SWAP4 POP POP POP JUMP JUMPDEST PUSH1 0x0 PUSH1 0x20 DUP3 DUP5 SUB SLT ISZERO PUSH2 0x5FF JUMPI PUSH1 0x0 DUP1 REVERT JUMPDEST POP MLOAD SWAP2 SWAP1 POP JUMP JUMPDEST DUP1 DUP3 MUL DUP2 ISZERO DUP3 DUP3 DIV DUP5 EQ OR PUSH2 0x27C JUMPI PUSH4 0x4E487B71 PUSH1 0xE0 SHL PUSH1 0x0 MSTORE PUSH1 0x11 PUSH1 0x4 MSTORE PUSH1 0x24 PUSH1 0x0 REVERT JUMPDEST PUSH1 0x0 DUP3 PUSH2 0x648 JUMPI PUSH4 0x4E487B71 PUSH1 0xE0 SHL PUSH1 0x0 MSTORE PUSH1 0x12 PUSH1 0x4 MSTORE PUSH1 0x24 PUSH1 0x0 REVERT JUMPDEST POP DIV SWAP1 JUMP INVALID LOG2 PUSH5 0x6970667358 0x22 SLT KECCAK256 RETURN SWAP13 0x21 0xE2 0xCD SWAP4 0xEA PUSH13 0x252960F551FA1B4D59845C0D56 0xD0 0xE7 SLT ISZERO COINBASE PUSH30 0x82DC7AA8DC64736F6C634300081100330000000000000000000000000000 ","sha1":"ec013c72302a498c51b1bde1b9c61388664bd343","source":"// SPDX-License-Identifier: LicenseRef-Gyro-1.0\n// for information on licensing please see the README in the GitHub repository <https://github.com/gyrostable/core-protocol>.\npragma solidity ^0.8.4;\n\nimport \"./BaseVaultPriceOracle.sol\";\nimport \"../../interfaces/IGyroConfig.sol\";\nimport \"../../libraries/ConfigHelpers.sol\";\n\ncontract GenericVaultPriceOracle is BaseVaultPriceOracle {\n    using FixedPoint for uint256;\n    using ConfigHelpers for IGyroConfig;\n\n    IGyroConfig public immutable gyroConfig;\n\n    constructor(address _config) {\n        gyroConfig = IGyroConfig(_config);\n    }\n\n    /// @inheritdoc BaseVaultPriceOracle\n    function getPoolTokenPriceUSD(\n        IGyroVault vault,\n        DataTypes.PricedToken[] memory underlyingPricedTokens\n    ) public view override returns (uint256) {\n        DataTypes.PricedToken memory pricedToken = underlyingPricedTokens[0];\n        uint256 underlyingPrice = pricedToken.price;\n        address vaultToken = vault.underlying(); // could be sDAI\n        (address underlyingToken, uint256 rate) = gyroConfig.getRateManager().getUnderlyingAndRate(\n            vaultToken\n        );\n        require(\n            underlyingToken == pricedToken.tokenAddress,\n            \"GenericVaultPriceOracle: token mismatch\"\n        );\n        return underlyingPrice.mulDown(rate);\n    }\n}\n","sourcePath":"contracts/oracles/GenericVaultPriceOracle.sol","type":"contract","deployment":{"address":"0x89B93862beBBA6c98E6f158ef9FadA004FDE854A","chainid":"1","blockHeight":18685157}}