{"abi":[{"inputs":[{"internalType":"address","name":"_governor","type":"address"},{"internalType":"uint256","name":"_maxAllowedVaultDeviation","type":"uint256"},{"internalType":"uint256","name":"_minTokenPrice","type":"uint256"}],"stateMutability":"nonpayable","type":"constructor","name":"constructor"},{"anonymous":false,"inputs":[{"indexed":false,"internalType":"address","name":"newGovernor","type":"address"}],"name":"GovernorChangeRequested","type":"event"},{"anonymous":false,"inputs":[{"indexed":false,"internalType":"address","name":"oldGovernor","type":"address"},{"indexed":false,"internalType":"address","name":"newGovernor","type":"address"}],"name":"GovernorChanged","type":"event"},{"inputs":[],"name":"acceptGovernance","outputs":[],"stateMutability":"nonpayable","type":"function"},{"inputs":[{"internalType":"address","name":"newGovernor","type":"address"}],"name":"changeGovernor","outputs":[],"stateMutability":"nonpayable","type":"function"},{"inputs":[{"components":[{"components":[{"components":[{"internalType":"address","name":"vault","type":"address"},{"internalType":"uint8","name":"decimals","type":"uint8"},{"internalType":"address","name":"underlying","type":"address"},{"internalType":"uint256","name":"price","type":"uint256"},{"components":[{"internalType":"uint256","name":"priceAtCalibration","type":"uint256"},{"internalType":"uint256","name":"weightAtCalibration","type":"uint256"},{"internalType":"uint256","name":"shortFlowMemory","type":"uint256"},{"internalType":"uint256","name":"shortFlowThreshold","type":"uint256"},{"internalType":"uint64","name":"weightTransitionDuration","type":"uint64"},{"internalType":"uint64","name":"weightAtPreviousCalibration","type":"uint64"},{"internalType":"uint64","name":"timeOfCalibration","type":"uint64"}],"internalType":"struct DataTypes.PersistedVaultMetadata","name":"persistedMetadata","type":"tuple"},{"internalType":"uint256","name":"reserveBalance","type":"uint256"},{"internalType":"uint256","name":"currentWeight","type":"uint256"},{"internalType":"uint256","name":"targetWeight","type":"uint256"},{"components":[{"internalType":"address","name":"tokenAddress","type":"address"},{"internalType":"bool","name":"isStable","type":"bool"},{"internalType":"uint256","name":"price","type":"uint256"},{"components":[{"internalType":"uint256","name":"floor","type":"uint256"},{"internalType":"uint256","name":"ceiling","type":"uint256"}],"internalType":"struct DataTypes.Range","name":"priceRange","type":"tuple"}],"internalType":"struct DataTypes.PricedToken[]","name":"pricedTokens","type":"tuple[]"}],"internalType":"struct DataTypes.VaultInfo","name":"vaultInfo","type":"tuple"},{"internalType":"uint256","name":"amount","type":"uint256"}],"internalType":"struct DataTypes.VaultWithAmount[]","name":"vaultsWithAmount","type":"tuple[]"},{"internalType":"bool","name":"mint","type":"bool"}],"internalType":"struct DataTypes.Order","name":"order","type":"tuple"}],"name":"checkAndPersistMint","outputs":[],"stateMutability":"view","type":"function"},{"inputs":[{"components":[{"components":[{"components":[{"internalType":"address","name":"vault","type":"address"},{"internalType":"uint8","name":"decimals","type":"uint8"},{"internalType":"address","name":"underlying","type":"address"},{"internalType":"uint256","name":"price","type":"uint256"},{"components":[{"internalType":"uint256","name":"priceAtCalibration","type":"uint256"},{"internalType":"uint256","name":"weightAtCalibration","type":"uint256"},{"internalType":"uint256","name":"shortFlowMemory","type":"uint256"},{"internalType":"uint256","name":"shortFlowThreshold","type":"uint256"},{"internalType":"uint64","name":"weightTransitionDuration","type":"uint64"},{"internalType":"uint64","name":"weightAtPreviousCalibration","type":"uint64"},{"internalType":"uint64","name":"timeOfCalibration","type":"uint64"}],"internalType":"struct DataTypes.PersistedVaultMetadata","name":"persistedMetadata","type":"tuple"},{"internalType":"uint256","name":"reserveBalance","type":"uint256"},{"internalType":"uint256","name":"currentWeight","type":"uint256"},{"internalType":"uint256","name":"targetWeight","type":"uint256"},{"components":[{"internalType":"address","name":"tokenAddress","type":"address"},{"internalType":"bool","name":"isStable","type":"bool"},{"internalType":"uint256","name":"price","type":"uint256"},{"components":[{"internalType":"uint256","name":"floor","type":"uint256"},{"internalType":"uint256","name":"ceiling","type":"uint256"}],"internalType":"struct DataTypes.Range","name":"priceRange","type":"tuple"}],"internalType":"struct DataTypes.PricedToken[]","name":"pricedTokens","type":"tuple[]"}],"internalType":"struct DataTypes.VaultInfo","name":"vaultInfo","type":"tuple"},{"internalType":"uint256","name":"amount","type":"uint256"}],"internalType":"struct DataTypes.VaultWithAmount[]","name":"vaultsWithAmount","type":"tuple[]"},{"internalType":"bool","name":"mint","type":"bool"}],"internalType":"struct DataTypes.Order","name":"order","type":"tuple"}],"name":"checkAndPersistRedeem","outputs":[],"stateMutability":"view","type":"function"},{"inputs":[],"name":"governor","outputs":[{"internalType":"address","name":"","type":"address"}],"stateMutability":"view","type":"function"},{"inputs":[{"components":[{"components":[{"components":[{"internalType":"address","name":"vault","type":"address"},{"internalType":"uint8","name":"decimals","type":"uint8"},{"internalType":"address","name":"underlying","type":"address"},{"internalType":"uint256","name":"price","type":"uint256"},{"components":[{"internalType":"uint256","name":"priceAtCalibration","type":"uint256"},{"internalType":"uint256","name":"weightAtCalibration","type":"uint256"},{"internalType":"uint256","name":"shortFlowMemory","type":"uint256"},{"internalType":"uint256","name":"shortFlowThreshold","type":"uint256"},{"internalType":"uint64","name":"weightTransitionDuration","type":"uint64"},{"internalType":"uint64","name":"weightAtPreviousCalibration","type":"uint64"},{"internalType":"uint64","name":"timeOfCalibration","type":"uint64"}],"internalType":"struct DataTypes.PersistedVaultMetadata","name":"persistedMetadata","type":"tuple"},{"internalType":"uint256","name":"reserveBalance","type":"uint256"},{"internalType":"uint256","name":"currentWeight","type":"uint256"},{"internalType":"uint256","name":"targetWeight","type":"uint256"},{"components":[{"internalType":"address","name":"tokenAddress","type":"address"},{"internalType":"bool","name":"isStable","type":"bool"},{"internalType":"uint256","name":"price","type":"uint256"},{"components":[{"internalType":"uint256","name":"floor","type":"uint256"},{"internalType":"uint256","name":"ceiling","type":"uint256"}],"internalType":"struct DataTypes.Range","name":"priceRange","type":"tuple"}],"internalType":"struct DataTypes.PricedToken[]","name":"pricedTokens","type":"tuple[]"}],"internalType":"struct DataTypes.VaultInfo","name":"vaultInfo","type":"tuple"},{"internalType":"uint256","name":"amount","type":"uint256"}],"internalType":"struct DataTypes.VaultWithAmount[]","name":"vaultsWithAmount","type":"tuple[]"},{"internalType":"bool","name":"mint","type":"bool"}],"internalType":"struct DataTypes.Order","name":"order","type":"tuple"}],"name":"isMintSafe","outputs":[{"internalType":"string","name":"","type":"string"}],"stateMutability":"view","type":"function"},{"inputs":[{"components":[{"components":[{"components":[{"internalType":"address","name":"vault","type":"address"},{"internalType":"uint8","name":"decimals","type":"uint8"},{"internalType":"address","name":"underlying","type":"address"},{"internalType":"uint256","name":"price","type":"uint256"},{"components":[{"internalType":"uint256","name":"priceAtCalibration","type":"uint256"},{"internalType":"uint256","name":"weightAtCalibration","type":"uint256"},{"internalType":"uint256","name":"shortFlowMemory","type":"uint256"},{"internalType":"uint256","name":"shortFlowThreshold","type":"uint256"},{"internalType":"uint64","name":"weightTransitionDuration","type":"uint64"},{"internalType":"uint64","name":"weightAtPreviousCalibration","type":"uint64"},{"internalType":"uint64","name":"timeOfCalibration","type":"uint64"}],"internalType":"struct DataTypes.PersistedVaultMetadata","name":"persistedMetadata","type":"tuple"},{"internalType":"uint256","name":"reserveBalance","type":"uint256"},{"internalType":"uint256","name":"currentWeight","type":"uint256"},{"internalType":"uint256","name":"targetWeight","type":"uint256"},{"components":[{"internalType":"address","name":"tokenAddress","type":"address"},{"internalType":"bool","name":"isStable","type":"bool"},{"internalType":"uint256","name":"price","type":"uint256"},{"components":[{"internalType":"uint256","name":"floor","type":"uint256"},{"internalType":"uint256","name":"ceiling","type":"uint256"}],"internalType":"struct DataTypes.Range","name":"priceRange","type":"tuple"}],"internalType":"struct DataTypes.PricedToken[]","name":"pricedTokens","type":"tuple[]"}],"internalType":"struct DataTypes.VaultInfo","name":"vaultInfo","type":"tuple"},{"internalType":"uint256","name":"amount","type":"uint256"}],"internalType":"struct DataTypes.VaultWithAmount[]","name":"vaultsWithAmount","type":"tuple[]"},{"internalType":"bool","name":"mint","type":"bool"}],"internalType":"struct DataTypes.Order","name":"order","type":"tuple"}],"name":"isRedeemSafe","outputs":[{"internalType":"string","name":"","type":"string"}],"stateMutability":"view","type":"function"},{"inputs":[],"name":"maxAllowedVaultDeviation","outputs":[{"internalType":"uint256","name":"","type":"uint256"}],"stateMutability":"view","type":"function"},{"inputs":[],"name":"minTokenPrice","outputs":[{"internalType":"uint256","name":"","type":"uint256"}],"stateMutability":"view","type":"function"},{"inputs":[],"name":"pendingGovernor","outputs":[{"internalType":"address","name":"","type":"address"}],"stateMutability":"view","type":"function"},{"inputs":[{"internalType":"uint256","name":"_minTokenPrice","type":"uint256"}],"name":"setMinTokenPrice","outputs":[],"stateMutability":"nonpayable","type":"function"},{"inputs":[{"internalType":"uint256","name":"_maxAllowedVaultDeviation","type":"uint256"}],"name":"setVaultMaxDeviation","outputs":[],"stateMutability":"nonpayable","type":"function"}],"bytecode":"608060405234801561001057600080fd5b506040516119d33803806119d383398101604081905261002f91610098565b600080546001600160a01b0319166001600160a01b038516908117825560408051928352602083019190915284917fde4b3f61490b74c0ed6237523974fe299126bbbf8a8a7482fd220104c59b0c84910160405180910390a150600291909155600355506100db565b6000806000606084860312156100ad57600080fd5b83516001600160a01b03811681146100c457600080fd5b602085015160409095015190969495509392505050565b6118e9806100ea6000396000f3fe608060405234801561001057600080fd5b50600436106100b45760003560e01c80639109b8a3116100715780639109b8a314610150578063bcbef65014610163578063bd162bdd14610176578063c203c83114610189578063e3056a3414610192578063e4c0aaf4146101a557600080fd5b806305d76b9d146100b95780630c340a24146100ce5780631c46e999146100fe578063238efcbc1461011e57806359a047e9146101265780635dabb20e14610139575b600080fd5b6100cc6100c7366004611495565b6101b8565b005b6000546100e1906001600160a01b031681565b6040516001600160a01b0390911681526020015b60405180910390f35b61011161010c366004611495565b6101f7565b6040516100f59190611681565b6100cc6102bb565b6100cc610134366004611495565b61036b565b61014260035481565b6040519081526020016100f5565b61011161015e366004611495565b610376565b6100cc6101713660046116cf565b610427565b6100cc6101843660046116cf565b610472565b61014260025481565b6001546100e1906001600160a01b031681565b6100cc6101b33660046116e8565b6104bd565b60006101c382610376565b9050805160001481906101f25760405162461bcd60e51b81526004016101e99190611681565b60405180910390fd5b505050565b606061020282610592565b6102245750506040805180820190915260028152611a9b60f11b602082015290565b600061022f83610610565b905061023a81610b15565b61024381610b94565b806060015161026c575050604080518082019091526002815261353560f01b6020820152919050565b806020015180610280575061028081610c57565b1561029b575050604080516020810190915260008152919050565b5050604080518082019091526002815261353360f01b6020820152919050565b600154604080518082019091526002815261033360f41b6020820152906001600160a01b031633146103005760405162461bcd60e51b81526004016101e99190611681565b5060008054600180546001600160a01b03198084166001600160a01b03808416919091179095551690556040805192909116808352336020840152917fde4b3f61490b74c0ed6237523974fe299126bbbf8a8a7482fd220104c59b0c8491015b60405180910390a150565b60006101c3826101f7565b6060600061038383610610565b905061038e81610b15565b61039781610b94565b80606001516103c0575050604080518082019091526002815261353560f01b6020820152919050565b60008160200151806103d657506103d682610c57565b90506103e182610cfe565b80156103ea5750805b1561040657505060408051602081019091526000815292915050565b50506040805180820190915260028152611a9960f11b602082015292915050565b600054604080518082019091526002815261033360f41b6020820152906001600160a01b0316331461046c5760405162461bcd60e51b81526004016101e99190611681565b50600355565b600054604080518082019091526002815261033360f41b6020820152906001600160a01b031633146104b75760405162461bcd60e51b81526004016101e99190611681565b50600255565b600054604080518082019091526002815261033360f41b6020820152906001600160a01b031633146105025760405162461bcd60e51b81526004016101e99190611681565b50604080518082019091526002815261333160f01b60208201526001600160a01b0382166105435760405162461bcd60e51b81526004016101e99190611681565b50600180546001600160a01b0319166001600160a01b0383169081179091556040519081527f67235ba2e63c748a35b95c4f92a3bbc2a1389938170a5ce6c9add5d0b03a314a90602001610360565b6000805b8251518110156106075782518051829081106105b4576105b4611703565b602002602001015160200151836000015182815181106105d6576105d6611703565b60200260200101516000015160a0015110156105f55750600092915050565b806105ff8161172f565b915050610596565b50600192915050565b6040805160a081018252606080825260006020830181905292820183905281018290526080810191909152815160208301511515608083015282515167ffffffffffffffff811115610664576106646111f3565b6040519080825280602002602001820160405280156106f357816020015b6106e060405180610120016040528060006001600160a01b0316815260200160008152602001600081526020016000815260200160008152602001600015158152602001600015158152602001600015158152602001606081525090565b8152602001906001900390816106825790505b508252805160009067ffffffffffffffff811115610713576107136111f3565b60405190808252806020026020018201604052801561073c578160200160208202803683370190505b5090506000825167ffffffffffffffff81111561075b5761075b6111f3565b604051908082528060200260200182016040528015610784578160200160208202803683370190505b50905060005b8351811015610a9d5785602001511561080a578381815181106107af576107af611703565b6020026020010151602001518482815181106107cd576107cd611703565b60200260200101516000015160a001516107e79190611748565b8382815181106107f9576107f9611703565b602002602001018181525050610873565b83818151811061081c5761081c611703565b60200260200101516020015184828151811061083a5761083a611703565b60200260200101516000015160a00151610854919061175b565b83828151811061086657610866611703565b6020026020010181815250505b6108c084828151811061088857610888611703565b602002602001015160000151602001518483815181106108aa576108aa611703565b6020026020010151610d2990919063ffffffff16565b8382815181106108d2576108d2611703565b6020026020010181815250508381815181106108f0576108f0611703565b60209081029190910101515151855180518390811061091157610911611703565b60209081029190910101516001600160a01b039091169052835184908290811061093d5761093d611703565b60200260200101516000015160e001518560000151828151811061096357610963611703565b6020026020010151602001818152505083818151811061098557610985611703565b60200260200101516000015160c00151856000015182815181106109ab576109ab611703565b602002602001015160400181815250508381815181106109cd576109cd611703565b60200260200101516000015160600151856000015182815181106109f3576109f3611703565b60200260200101516080018181525050838181518110610a1557610a15611703565b602002602001015160000151610100015185600001518281518110610a3c57610a3c611703565b60200260200101516101000181905250838181518110610a5e57610a5e611703565b60200260200101516000015160600151828281518110610a8057610a80611703565b602090810291909101015280610a958161172f565b91505061078a565b506000610aaa8383610d91565b50905060005b865151811015610b0b57818181518110610acc57610acc611703565b602002602001015186600001518281518110610aea57610aea611703565b60209081029190910101516060015280610b038161172f565b915050610ab0565b5050505050919050565b600160408201819052606082015260005b815151811015610b9057600082600001518281518110610b4857610b48611703565b60200260200101519050610b5b81610ee7565b8060a00151610b6c57600060408401525b8060c00151610b7d57600060608401525b5080610b888161172f565b915050610b26565b5050565b6001602082015260005b815151811015610b9057600082600001518281518110610bc057610bc0611703565b602002602001015190506000610be56002548360200151610faf90919063ffffffff16565b9050600081610c058460600151856020015161100190919063ffffffff16565b111590508085600001518581518110610c2057610c20611703565b602090810291909101015190151560e09091015280610c4157600060208601525b5050508080610c4f9061172f565b915050610b9e565b6000805b82515181101561060757600083600001518281518110610c7d57610c7d611703565b602002602001015190508060e0015115610c975750610cec565b6000610cb48260200151836060015161100190919063ffffffff16565b90506000610cd38360200151846040015161100190919063ffffffff16565b9050808210610ce85750600095945050505050565b5050505b80610cf68161172f565b915050610c5b565b6000816040015180610d145750610d148261102b565b80610d235750610d23826110f3565b92915050565b600060111960ff831601610d3e575081610d23565b601260ff83161115610d7157610d5560128361176e565b610d6090600a61186b565b610d6a908461187a565b9050610d23565b610d7c82601261176e565b610d8790600a61186b565b610d6a908461189c565b6060600080835167ffffffffffffffff811115610db057610db06111f3565b604051908082528060200260200182016040528015610dd9578160200160208202803683370190505b5090506000805b8651811015610e52576000610e30878381518110610e0057610e00611703565b6020026020010151898481518110610e1a57610e1a611703565b602002602001015161115f90919063ffffffff16565b9050610e3c8184611748565b9250508080610e4a9061172f565b915050610de0565b5080600003610e65579092509050610ee0565b60005b8651811015610ed957610eaa82610ea4888481518110610e8a57610e8a611703565b60200260200101518a8581518110610e1a57610e1a611703565b90611188565b838281518110610ebc57610ebc611703565b602090810291909101015280610ed18161172f565b915050610e68565b5090925090505b9250929050565b600160a0820152600060c082018190525b81610100015151811015610b905760008261010001518281518110610f1f57610f1f611703565b6020026020010151905060008160400151905060008461010001518481518110610f4b57610f4b611703565b6020026020010151602001519050808015610f7b5750606083015151821080610f7b575082606001516020015182115b15610f8857600060a08601525b6003548210610f9957600160c08601525b5050508080610fa79061172f565b915050610ef8565b600080610fbc838561189c565b905080600003610fd0576000915050610d23565b670de0b6b3a7640000610fe460018361175b565b610fee919061187a565b610ff9906001611748565b915050610d23565b60008183101561101a57611015838361175b565b611024565b611024828461175b565b9392505050565b6000816080015161103e57506001919050565b60005b8251518110156106075760008360000151828151811061106357611063611703565b6020026020010151905060005b816101000151518110156110de576000826101000151828151811061109757611097611703565b60200260200101519050806020015180156110ba57506060810151516040820151105b156110cb5750600095945050505050565b50806110d68161172f565b915050611070565b505080806110eb9061172f565b915050611041565b6000805b8251518110156106075760008360000151828151811061111957611119611703565b602002602001015190508060a0015115801561113d57508060400151816060015110155b1561114c575060009392505050565b50806111578161172f565b9150506110f7565b60008061116c838561189c565b9050611180670de0b6b3a76400008261187a565b949350505050565b604080518082019091526002815261323560f01b6020820152600090826111c25760405162461bcd60e51b81526004016101e99190611681565b50826000036111d357506000610d23565b60006111e7670de0b6b3a76400008561189c565b9050610ff9838261187a565b634e487b7160e01b600052604160045260246000fd5b6040516080810167ffffffffffffffff8111828210171561122c5761122c6111f3565b60405290565b6040805190810167ffffffffffffffff8111828210171561122c5761122c6111f3565b604051610120810167ffffffffffffffff8111828210171561122c5761122c6111f3565b604051601f8201601f1916810167ffffffffffffffff811182821017156112a2576112a26111f3565b604052919050565b600067ffffffffffffffff8211156112c4576112c46111f3565b5060051b60200190565b80356001600160a01b03811681146112e557600080fd5b919050565b803560ff811681146112e557600080fd5b803567ffffffffffffffff811681146112e557600080fd5b600060e0828403121561132557600080fd5b60405160e0810181811067ffffffffffffffff82111715611348576113486111f3565b80604052508091508235815260208301356020820152604083013560408201526060830135606082015261137e608084016112fb565b608082015261138f60a084016112fb565b60a08201526113a060c084016112fb565b60c08201525092915050565b803580151581146112e557600080fd5b600082601f8301126113cd57600080fd5b813560206113e26113dd836112aa565b611279565b82815260a0928302850182019282820191908785111561140157600080fd5b8387015b85811015611488578089038281121561141e5760008081fd5b611426611209565b61142f836112ce565b815261143c8784016113ac565b8782015260408084013581830152606081605f198501121561145e5760008081fd5b611466611232565b85820135815260808601358a8201529083015250855250928401928101611405565b5090979650505050505050565b6000602082840312156114a757600080fd5b67ffffffffffffffff80833511156114be57600080fd5b604083358401850312156114d157600080fd5b6114d9611232565b81843585013511156114ea57600080fd5b83358401803501601f8101861361150057600080fd5b61150d6113dd82356112aa565b81358082526020808301929160051b84010188101561152b57600080fd5b602083015b6020843560051b85010181101561165f57858135111561154f57600080fd5b80358401601f196040828c038201121561156857600080fd5b611570611232565b886020840135111561158157600080fd5b602083013583016101e083828f0301121561159b57600080fd5b6115a3611255565b92506115b1602082016112ce565b83526115bf604082016112ea565b60208401526115d0606082016112ce565b6040840152608081013560608401526115ec8d60a08301611313565b608084015261018081013560a08401526101a081013560c08401526101c081013560e0840152896101e0820135111561162457600080fd5b6116388d60206101e08401358401016113bc565b61010084015250908152604091909101356020808301919091529084529283019201611530565b508352506116749050843585016020016113ac565b6020820152949350505050565b600060208083528351808285015260005b818110156116ae57858101830151858201604001528201611692565b506000604082860101526040601f19601f8301168501019250505092915050565b6000602082840312156116e157600080fd5b5035919050565b6000602082840312156116fa57600080fd5b611024826112ce565b634e487b7160e01b600052603260045260246000fd5b634e487b7160e01b600052601160045260246000fd5b60006001820161174157611741611719565b5060010190565b80820180821115610d2357610d23611719565b81810381811115610d2357610d23611719565b60ff8281168282160390811115610d2357610d23611719565b600181815b808511156117c25781600019048211156117a8576117a8611719565b808516156117b557918102915b93841c939080029061178c565b509250929050565b6000826117d957506001610d23565b816117e657506000610d23565b81600181146117fc576002811461180657611822565b6001915050610d23565b60ff84111561181757611817611719565b50506001821b610d23565b5060208310610133831016604e8410600b8410161715611845575081810a610d23565b61184f8383611787565b806000190482111561186357611863611719565b029392505050565b600061102460ff8416836117ca565b60008261189757634e487b7160e01b600052601260045260246000fd5b500490565b8082028115828204841417610d2357610d2361171956fea264697066735822122059811625e13931b1f96bececdcdf8ff9e5f6028270d9a337798b8cec484ee18264736f6c63430008110033","bytecodeSha1":"9bd14d087c0c70810fa2275df08db73e9321bf48","compiler":{"evm_version":"london","optimizer":{"enabled":true,"runs":200},"version":"0.8.17+commit.8df45f5f"},"contractName":"ReserveSafetyManager","language":"Solidity","natspec":{"kind":"dev","methods":{"acceptGovernance()":{"notice":"Called by the pending governor to approve the change"},"changeGovernor(address)":{"notice":"Changes the governor can only be called by the current governor"},"checkAndPersistMint((((address,uint8,address,uint256,(uint256,uint256,uint256,uint256,uint64,uint64,uint64),uint256,uint256,uint256,(address,bool,uint256,(uint256,uint256))[]),uint256)[],bool))":{"notice":"Checks whether a mint operation is safe and reverts otherwise This is only called when an actual mint is performed The implementation should store any relevant information for the mint"},"checkAndPersistRedeem((((address,uint8,address,uint256,(uint256,uint256,uint256,uint256,uint64,uint64,uint64),uint256,uint256,uint256,(address,bool,uint256,(uint256,uint256))[]),uint256)[],bool))":{"notice":"Checks whether a redeem operation is safe and reverts otherwise This is only called when an actual redeem is performed The implementation should store any relevant information for the redeem"},"governor()":{"notice":"Returns the current governor"},"isMintSafe((((address,uint8,address,uint256,(uint256,uint256,uint256,uint256,uint64,uint64,uint64),uint256,uint256,uint256,(address,bool,uint256,(uint256,uint256))[]),uint256)[],bool))":{"notice":"Checks whether a mint operation is safe","returns":{"_0":"empty string if it is safe, otherwise the reason why it is not safe"}},"isRedeemSafe((((address,uint8,address,uint256,(uint256,uint256,uint256,uint256,uint64,uint64,uint64),uint256,uint256,uint256,(address,bool,uint256,(uint256,uint256))[]),uint256)[],bool))":{"notice":"Checks whether a redeem operation is safe","returns":{"_0":"empty string if it is safe, otherwise the reason why it is not safe"}},"pendingGovernor()":{"notice":"Returns the pending governor"}},"version":1},"opcodes":"PUSH1 0x80 PUSH1 0x40 MSTORE CALLVALUE DUP1 ISZERO PUSH2 0x10 JUMPI PUSH1 0x0 DUP1 REVERT JUMPDEST POP PUSH1 0x4 CALLDATASIZE LT PUSH2 0xB4 JUMPI PUSH1 0x0 CALLDATALOAD PUSH1 0xE0 SHR DUP1 PUSH4 0x9109B8A3 GT PUSH2 0x71 JUMPI DUP1 PUSH4 0x9109B8A3 EQ PUSH2 0x150 JUMPI DUP1 PUSH4 0xBCBEF650 EQ PUSH2 0x163 JUMPI DUP1 PUSH4 0xBD162BDD EQ PUSH2 0x176 JUMPI DUP1 PUSH4 0xC203C831 EQ PUSH2 0x189 JUMPI DUP1 PUSH4 0xE3056A34 EQ PUSH2 0x192 JUMPI DUP1 PUSH4 0xE4C0AAF4 EQ PUSH2 0x1A5 JUMPI PUSH1 0x0 DUP1 REVERT JUMPDEST DUP1 PUSH4 0x5D76B9D EQ PUSH2 0xB9 JUMPI DUP1 PUSH4 0xC340A24 EQ PUSH2 0xCE JUMPI DUP1 PUSH4 0x1C46E999 EQ PUSH2 0xFE JUMPI DUP1 PUSH4 0x238EFCBC EQ PUSH2 0x11E JUMPI DUP1 PUSH4 0x59A047E9 EQ PUSH2 0x126 JUMPI DUP1 PUSH4 0x5DABB20E EQ PUSH2 0x139 JUMPI JUMPDEST PUSH1 0x0 DUP1 REVERT JUMPDEST PUSH2 0xCC PUSH2 0xC7 CALLDATASIZE PUSH1 0x4 PUSH2 0x1495 JUMP JUMPDEST PUSH2 0x1B8 JUMP JUMPDEST STOP JUMPDEST PUSH1 0x0 SLOAD PUSH2 0xE1 SWAP1 PUSH1 0x1 PUSH1 0x1 PUSH1 0xA0 SHL SUB AND DUP2 JUMP JUMPDEST PUSH1 0x40 MLOAD PUSH1 0x1 PUSH1 0x1 PUSH1 0xA0 SHL SUB SWAP1 SWAP2 AND DUP2 MSTORE PUSH1 0x20 ADD JUMPDEST PUSH1 0x40 MLOAD DUP1 SWAP2 SUB SWAP1 RETURN JUMPDEST PUSH2 0x111 PUSH2 0x10C CALLDATASIZE PUSH1 0x4 PUSH2 0x1495 JUMP JUMPDEST PUSH2 0x1F7 JUMP JUMPDEST PUSH1 0x40 MLOAD PUSH2 0xF5 SWAP2 SWAP1 PUSH2 0x1681 JUMP JUMPDEST PUSH2 0xCC PUSH2 0x2BB JUMP JUMPDEST PUSH2 0xCC PUSH2 0x134 CALLDATASIZE PUSH1 0x4 PUSH2 0x1495 JUMP JUMPDEST PUSH2 0x36B JUMP JUMPDEST PUSH2 0x142 PUSH1 0x3 SLOAD DUP2 JUMP JUMPDEST PUSH1 0x40 MLOAD SWAP1 DUP2 MSTORE PUSH1 0x20 ADD PUSH2 0xF5 JUMP JUMPDEST PUSH2 0x111 PUSH2 0x15E CALLDATASIZE PUSH1 0x4 PUSH2 0x1495 JUMP JUMPDEST PUSH2 0x376 JUMP JUMPDEST PUSH2 0xCC PUSH2 0x171 CALLDATASIZE PUSH1 0x4 PUSH2 0x16CF JUMP JUMPDEST PUSH2 0x427 JUMP JUMPDEST PUSH2 0xCC PUSH2 0x184 CALLDATASIZE PUSH1 0x4 PUSH2 0x16CF JUMP JUMPDEST PUSH2 0x472 JUMP JUMPDEST PUSH2 0x142 PUSH1 0x2 SLOAD DUP2 JUMP JUMPDEST PUSH1 0x1 SLOAD PUSH2 0xE1 SWAP1 PUSH1 0x1 PUSH1 0x1 PUSH1 0xA0 SHL SUB AND DUP2 JUMP JUMPDEST PUSH2 0xCC PUSH2 0x1B3 CALLDATASIZE PUSH1 0x4 PUSH2 0x16E8 JUMP JUMPDEST PUSH2 0x4BD JUMP JUMPDEST PUSH1 0x0 PUSH2 0x1C3 DUP3 PUSH2 0x376 JUMP JUMPDEST SWAP1 POP DUP1 MLOAD PUSH1 0x0 EQ DUP2 SWAP1 PUSH2 0x1F2 JUMPI PUSH1 0x40 MLOAD PUSH3 0x461BCD PUSH1 0xE5 SHL DUP2 MSTORE PUSH1 0x4 ADD PUSH2 0x1E9 SWAP2 SWAP1 PUSH2 0x1681 JUMP JUMPDEST PUSH1 0x40 MLOAD DUP1 SWAP2 SUB SWAP1 REVERT JUMPDEST POP POP POP JUMP JUMPDEST PUSH1 0x60 PUSH2 0x202 DUP3 PUSH2 0x592 JUMP JUMPDEST PUSH2 0x224 JUMPI POP POP PUSH1 0x40 DUP1 MLOAD DUP1 DUP3 ADD SWAP1 SWAP2 MSTORE PUSH1 0x2 DUP2 MSTORE PUSH2 0x1A9B PUSH1 0xF1 SHL PUSH1 0x20 DUP3 ADD MSTORE SWAP1 JUMP JUMPDEST PUSH1 0x0 PUSH2 0x22F DUP4 PUSH2 0x610 JUMP JUMPDEST SWAP1 POP PUSH2 0x23A DUP2 PUSH2 0xB15 JUMP JUMPDEST PUSH2 0x243 DUP2 PUSH2 0xB94 JUMP JUMPDEST DUP1 PUSH1 0x60 ADD MLOAD PUSH2 0x26C JUMPI POP POP PUSH1 0x40 DUP1 MLOAD DUP1 DUP3 ADD SWAP1 SWAP2 MSTORE PUSH1 0x2 DUP2 MSTORE PUSH2 0x3535 PUSH1 0xF0 SHL PUSH1 0x20 DUP3 ADD MSTORE SWAP2 SWAP1 POP JUMP JUMPDEST DUP1 PUSH1 0x20 ADD MLOAD DUP1 PUSH2 0x280 JUMPI POP PUSH2 0x280 DUP2 PUSH2 0xC57 JUMP JUMPDEST ISZERO PUSH2 0x29B JUMPI POP POP PUSH1 0x40 DUP1 MLOAD PUSH1 0x20 DUP2 ADD SWAP1 SWAP2 MSTORE PUSH1 0x0 DUP2 MSTORE SWAP2 SWAP1 POP JUMP JUMPDEST POP POP PUSH1 0x40 DUP1 MLOAD DUP1 DUP3 ADD SWAP1 SWAP2 MSTORE PUSH1 0x2 DUP2 MSTORE PUSH2 0x3533 PUSH1 0xF0 SHL PUSH1 0x20 DUP3 ADD MSTORE SWAP2 SWAP1 POP JUMP JUMPDEST PUSH1 0x1 SLOAD PUSH1 0x40 DUP1 MLOAD DUP1 DUP3 ADD SWAP1 SWAP2 MSTORE PUSH1 0x2 DUP2 MSTORE PUSH2 0x333 PUSH1 0xF4 SHL PUSH1 0x20 DUP3 ADD MSTORE SWAP1 PUSH1 0x1 PUSH1 0x1 PUSH1 0xA0 SHL SUB AND CALLER EQ PUSH2 0x300 JUMPI PUSH1 0x40 MLOAD PUSH3 0x461BCD PUSH1 0xE5 SHL DUP2 MSTORE PUSH1 0x4 ADD PUSH2 0x1E9 SWAP2 SWAP1 PUSH2 0x1681 JUMP JUMPDEST POP PUSH1 0x0 DUP1 SLOAD PUSH1 0x1 DUP1 SLOAD PUSH1 0x1 PUSH1 0x1 PUSH1 0xA0 SHL SUB NOT DUP1 DUP5 AND PUSH1 0x1 PUSH1 0x1 PUSH1 0xA0 SHL SUB DUP1 DUP5 AND SWAP2 SWAP1 SWAP2 OR SWAP1 SWAP6 SSTORE AND SWAP1 SSTORE PUSH1 0x40 DUP1 MLOAD SWAP3 SWAP1 SWAP2 AND DUP1 DUP4 MSTORE CALLER PUSH1 0x20 DUP5 ADD MSTORE SWAP2 PUSH32 0xDE4B3F61490B74C0ED6237523974FE299126BBBF8A8A7482FD220104C59B0C84 SWAP2 ADD JUMPDEST PUSH1 0x40 MLOAD DUP1 SWAP2 SUB SWAP1 LOG1 POP JUMP JUMPDEST PUSH1 0x0 PUSH2 0x1C3 DUP3 PUSH2 0x1F7 JUMP JUMPDEST PUSH1 0x60 PUSH1 0x0 PUSH2 0x383 DUP4 PUSH2 0x610 JUMP JUMPDEST SWAP1 POP PUSH2 0x38E DUP2 PUSH2 0xB15 JUMP JUMPDEST PUSH2 0x397 DUP2 PUSH2 0xB94 JUMP JUMPDEST DUP1 PUSH1 0x60 ADD MLOAD PUSH2 0x3C0 JUMPI POP POP PUSH1 0x40 DUP1 MLOAD DUP1 DUP3 ADD SWAP1 SWAP2 MSTORE PUSH1 0x2 DUP2 MSTORE PUSH2 0x3535 PUSH1 0xF0 SHL PUSH1 0x20 DUP3 ADD MSTORE SWAP2 SWAP1 POP JUMP JUMPDEST PUSH1 0x0 DUP2 PUSH1 0x20 ADD MLOAD DUP1 PUSH2 0x3D6 JUMPI POP PUSH2 0x3D6 DUP3 PUSH2 0xC57 JUMP JUMPDEST SWAP1 POP PUSH2 0x3E1 DUP3 PUSH2 0xCFE JUMP JUMPDEST DUP1 ISZERO PUSH2 0x3EA JUMPI POP DUP1 JUMPDEST ISZERO PUSH2 0x406 JUMPI POP POP PUSH1 0x40 DUP1 MLOAD PUSH1 0x20 DUP2 ADD SWAP1 SWAP2 MSTORE PUSH1 0x0 DUP2 MSTORE SWAP3 SWAP2 POP POP JUMP JUMPDEST POP POP PUSH1 0x40 DUP1 MLOAD DUP1 DUP3 ADD SWAP1 SWAP2 MSTORE PUSH1 0x2 DUP2 MSTORE PUSH2 0x1A99 PUSH1 0xF1 SHL PUSH1 0x20 DUP3 ADD MSTORE SWAP3 SWAP2 POP POP JUMP JUMPDEST PUSH1 0x0 SLOAD PUSH1 0x40 DUP1 MLOAD DUP1 DUP3 ADD SWAP1 SWAP2 MSTORE PUSH1 0x2 DUP2 MSTORE PUSH2 0x333 PUSH1 0xF4 SHL PUSH1 0x20 DUP3 ADD MSTORE SWAP1 PUSH1 0x1 PUSH1 0x1 PUSH1 0xA0 SHL SUB AND CALLER EQ PUSH2 0x46C JUMPI PUSH1 0x40 MLOAD PUSH3 0x461BCD PUSH1 0xE5 SHL DUP2 MSTORE PUSH1 0x4 ADD PUSH2 0x1E9 SWAP2 SWAP1 PUSH2 0x1681 JUMP JUMPDEST POP PUSH1 0x3 SSTORE JUMP JUMPDEST PUSH1 0x0 SLOAD PUSH1 0x40 DUP1 MLOAD DUP1 DUP3 ADD SWAP1 SWAP2 MSTORE PUSH1 0x2 DUP2 MSTORE PUSH2 0x333 PUSH1 0xF4 SHL PUSH1 0x20 DUP3 ADD MSTORE SWAP1 PUSH1 0x1 PUSH1 0x1 PUSH1 0xA0 SHL SUB AND CALLER EQ PUSH2 0x4B7 JUMPI PUSH1 0x40 MLOAD PUSH3 0x461BCD PUSH1 0xE5 SHL DUP2 MSTORE PUSH1 0x4 ADD PUSH2 0x1E9 SWAP2 SWAP1 PUSH2 0x1681 JUMP JUMPDEST POP PUSH1 0x2 SSTORE JUMP JUMPDEST PUSH1 0x0 SLOAD PUSH1 0x40 DUP1 MLOAD DUP1 DUP3 ADD SWAP1 SWAP2 MSTORE PUSH1 0x2 DUP2 MSTORE PUSH2 0x333 PUSH1 0xF4 SHL PUSH1 0x20 DUP3 ADD MSTORE SWAP1 PUSH1 0x1 PUSH1 0x1 PUSH1 0xA0 SHL SUB AND CALLER EQ PUSH2 0x502 JUMPI PUSH1 0x40 MLOAD PUSH3 0x461BCD PUSH1 0xE5 SHL DUP2 MSTORE PUSH1 0x4 ADD PUSH2 0x1E9 SWAP2 SWAP1 PUSH2 0x1681 JUMP JUMPDEST POP PUSH1 0x40 DUP1 MLOAD DUP1 DUP3 ADD SWAP1 SWAP2 MSTORE PUSH1 0x2 DUP2 MSTORE PUSH2 0x3331 PUSH1 0xF0 SHL PUSH1 0x20 DUP3 ADD MSTORE PUSH1 0x1 PUSH1 0x1 PUSH1 0xA0 SHL SUB DUP3 AND PUSH2 0x543 JUMPI PUSH1 0x40 MLOAD PUSH3 0x461BCD PUSH1 0xE5 SHL DUP2 MSTORE PUSH1 0x4 ADD PUSH2 0x1E9 SWAP2 SWAP1 PUSH2 0x1681 JUMP JUMPDEST POP PUSH1 0x1 DUP1 SLOAD PUSH1 0x1 PUSH1 0x1 PUSH1 0xA0 SHL SUB NOT AND PUSH1 0x1 PUSH1 0x1 PUSH1 0xA0 SHL SUB DUP4 AND SWAP1 DUP2 OR SWAP1 SWAP2 SSTORE PUSH1 0x40 MLOAD SWAP1 DUP2 MSTORE PUSH32 0x67235BA2E63C748A35B95C4F92A3BBC2A1389938170A5CE6C9ADD5D0B03A314A SWAP1 PUSH1 0x20 ADD PUSH2 0x360 JUMP JUMPDEST PUSH1 0x0 DUP1 JUMPDEST DUP3 MLOAD MLOAD DUP2 LT ISZERO PUSH2 0x607 JUMPI DUP3 MLOAD DUP1 MLOAD DUP3 SWAP1 DUP2 LT PUSH2 0x5B4 JUMPI PUSH2 0x5B4 PUSH2 0x1703 JUMP JUMPDEST PUSH1 0x20 MUL PUSH1 0x20 ADD ADD MLOAD PUSH1 0x20 ADD MLOAD DUP4 PUSH1 0x0 ADD MLOAD DUP3 DUP2 MLOAD DUP2 LT PUSH2 0x5D6 JUMPI PUSH2 0x5D6 PUSH2 0x1703 JUMP JUMPDEST PUSH1 0x20 MUL PUSH1 0x20 ADD ADD MLOAD PUSH1 0x0 ADD MLOAD PUSH1 0xA0 ADD MLOAD LT ISZERO PUSH2 0x5F5 JUMPI POP PUSH1 0x0 SWAP3 SWAP2 POP POP JUMP JUMPDEST DUP1 PUSH2 0x5FF DUP2 PUSH2 0x172F JUMP JUMPDEST SWAP2 POP POP PUSH2 0x596 JUMP JUMPDEST POP PUSH1 0x1 SWAP3 SWAP2 POP POP JUMP JUMPDEST PUSH1 0x40 DUP1 MLOAD PUSH1 0xA0 DUP2 ADD DUP3 MSTORE PUSH1 0x60 DUP1 DUP3 MSTORE PUSH1 0x0 PUSH1 0x20 DUP4 ADD DUP2 SWAP1 MSTORE SWAP3 DUP3 ADD DUP4 SWAP1 MSTORE DUP2 ADD DUP3 SWAP1 MSTORE PUSH1 0x80 DUP2 ADD SWAP2 SWAP1 SWAP2 MSTORE DUP2 MLOAD PUSH1 0x20 DUP4 ADD MLOAD ISZERO ISZERO PUSH1 0x80 DUP4 ADD MSTORE DUP3 MLOAD MLOAD PUSH8 0xFFFFFFFFFFFFFFFF DUP2 GT ISZERO PUSH2 0x664 JUMPI PUSH2 0x664 PUSH2 0x11F3 JUMP JUMPDEST PUSH1 0x40 MLOAD SWAP1 DUP1 DUP3 MSTORE DUP1 PUSH1 0x20 MUL PUSH1 0x20 ADD DUP3 ADD PUSH1 0x40 MSTORE DUP1 ISZERO PUSH2 0x6F3 JUMPI DUP2 PUSH1 0x20 ADD JUMPDEST PUSH2 0x6E0 PUSH1 0x40 MLOAD DUP1 PUSH2 0x120 ADD PUSH1 0x40 MSTORE DUP1 PUSH1 0x0 PUSH1 0x1 PUSH1 0x1 PUSH1 0xA0 SHL SUB AND DUP2 MSTORE PUSH1 0x20 ADD PUSH1 0x0 DUP2 MSTORE PUSH1 0x20 ADD PUSH1 0x0 DUP2 MSTORE PUSH1 0x20 ADD PUSH1 0x0 DUP2 MSTORE PUSH1 0x20 ADD PUSH1 0x0 DUP2 MSTORE PUSH1 0x20 ADD PUSH1 0x0 ISZERO ISZERO DUP2 MSTORE PUSH1 0x20 ADD PUSH1 0x0 ISZERO ISZERO DUP2 MSTORE PUSH1 0x20 ADD PUSH1 0x0 ISZERO ISZERO DUP2 MSTORE PUSH1 0x20 ADD PUSH1 0x60 DUP2 MSTORE POP SWAP1 JUMP JUMPDEST DUP2 MSTORE PUSH1 0x20 ADD SWAP1 PUSH1 0x1 SWAP1 SUB SWAP1 DUP2 PUSH2 0x682 JUMPI SWAP1 POP JUMPDEST POP DUP3 MSTORE DUP1 MLOAD PUSH1 0x0 SWAP1 PUSH8 0xFFFFFFFFFFFFFFFF DUP2 GT ISZERO PUSH2 0x713 JUMPI PUSH2 0x713 PUSH2 0x11F3 JUMP JUMPDEST PUSH1 0x40 MLOAD SWAP1 DUP1 DUP3 MSTORE DUP1 PUSH1 0x20 MUL PUSH1 0x20 ADD DUP3 ADD PUSH1 0x40 MSTORE DUP1 ISZERO PUSH2 0x73C JUMPI DUP2 PUSH1 0x20 ADD PUSH1 0x20 DUP3 MUL DUP1 CALLDATASIZE DUP4 CALLDATACOPY ADD SWAP1 POP JUMPDEST POP SWAP1 POP PUSH1 0x0 DUP3 MLOAD PUSH8 0xFFFFFFFFFFFFFFFF DUP2 GT ISZERO PUSH2 0x75B JUMPI PUSH2 0x75B PUSH2 0x11F3 JUMP JUMPDEST PUSH1 0x40 MLOAD SWAP1 DUP1 DUP3 MSTORE DUP1 PUSH1 0x20 MUL PUSH1 0x20 ADD DUP3 ADD PUSH1 0x40 MSTORE DUP1 ISZERO PUSH2 0x784 JUMPI DUP2 PUSH1 0x20 ADD PUSH1 0x20 DUP3 MUL DUP1 CALLDATASIZE DUP4 CALLDATACOPY ADD SWAP1 POP JUMPDEST POP SWAP1 POP PUSH1 0x0 JUMPDEST DUP4 MLOAD DUP2 LT ISZERO PUSH2 0xA9D JUMPI DUP6 PUSH1 0x20 ADD MLOAD ISZERO PUSH2 0x80A JUMPI DUP4 DUP2 DUP2 MLOAD DUP2 LT PUSH2 0x7AF JUMPI PUSH2 0x7AF PUSH2 0x1703 JUMP JUMPDEST PUSH1 0x20 MUL PUSH1 0x20 ADD ADD MLOAD PUSH1 0x20 ADD MLOAD DUP5 DUP3 DUP2 MLOAD DUP2 LT PUSH2 0x7CD JUMPI PUSH2 0x7CD PUSH2 0x1703 JUMP JUMPDEST PUSH1 0x20 MUL PUSH1 0x20 ADD ADD MLOAD PUSH1 0x0 ADD MLOAD PUSH1 0xA0 ADD MLOAD PUSH2 0x7E7 SWAP2 SWAP1 PUSH2 0x1748 JUMP JUMPDEST DUP4 DUP3 DUP2 MLOAD DUP2 LT PUSH2 0x7F9 JUMPI PUSH2 0x7F9 PUSH2 0x1703 JUMP JUMPDEST PUSH1 0x20 MUL PUSH1 0x20 ADD ADD DUP2 DUP2 MSTORE POP POP PUSH2 0x873 JUMP JUMPDEST DUP4 DUP2 DUP2 MLOAD DUP2 LT PUSH2 0x81C JUMPI PUSH2 0x81C PUSH2 0x1703 JUMP JUMPDEST PUSH1 0x20 MUL PUSH1 0x20 ADD ADD MLOAD PUSH1 0x20 ADD MLOAD DUP5 DUP3 DUP2 MLOAD DUP2 LT PUSH2 0x83A JUMPI PUSH2 0x83A PUSH2 0x1703 JUMP JUMPDEST PUSH1 0x20 MUL PUSH1 0x20 ADD ADD MLOAD PUSH1 0x0 ADD MLOAD PUSH1 0xA0 ADD MLOAD PUSH2 0x854 SWAP2 SWAP1 PUSH2 0x175B JUMP JUMPDEST DUP4 DUP3 DUP2 MLOAD DUP2 LT PUSH2 0x866 JUMPI PUSH2 0x866 PUSH2 0x1703 JUMP JUMPDEST PUSH1 0x20 MUL PUSH1 0x20 ADD ADD DUP2 DUP2 MSTORE POP POP JUMPDEST PUSH2 0x8C0 DUP5 DUP3 DUP2 MLOAD DUP2 LT PUSH2 0x888 JUMPI PUSH2 0x888 PUSH2 0x1703 JUMP JUMPDEST PUSH1 0x20 MUL PUSH1 0x20 ADD ADD MLOAD PUSH1 0x0 ADD MLOAD PUSH1 0x20 ADD MLOAD DUP5 DUP4 DUP2 MLOAD DUP2 LT PUSH2 0x8AA JUMPI PUSH2 0x8AA PUSH2 0x1703 JUMP JUMPDEST PUSH1 0x20 MUL PUSH1 0x20 ADD ADD MLOAD PUSH2 0xD29 SWAP1 SWAP2 SWAP1 PUSH4 0xFFFFFFFF AND JUMP JUMPDEST DUP4 DUP3 DUP2 MLOAD DUP2 LT PUSH2 0x8D2 JUMPI PUSH2 0x8D2 PUSH2 0x1703 JUMP JUMPDEST PUSH1 0x20 MUL PUSH1 0x20 ADD ADD DUP2 DUP2 MSTORE POP POP DUP4 DUP2 DUP2 MLOAD DUP2 LT PUSH2 0x8F0 JUMPI PUSH2 0x8F0 PUSH2 0x1703 JUMP JUMPDEST PUSH1 0x20 SWAP1 DUP2 MUL SWAP2 SWAP1 SWAP2 ADD ADD MLOAD MLOAD MLOAD DUP6 MLOAD DUP1 MLOAD DUP4 SWAP1 DUP2 LT PUSH2 0x911 JUMPI PUSH2 0x911 PUSH2 0x1703 JUMP JUMPDEST PUSH1 0x20 SWAP1 DUP2 MUL SWAP2 SWAP1 SWAP2 ADD ADD MLOAD PUSH1 0x1 PUSH1 0x1 PUSH1 0xA0 SHL SUB SWAP1 SWAP2 AND SWAP1 MSTORE DUP4 MLOAD DUP5 SWAP1 DUP3 SWAP1 DUP2 LT PUSH2 0x93D JUMPI PUSH2 0x93D PUSH2 0x1703 JUMP JUMPDEST PUSH1 0x20 MUL PUSH1 0x20 ADD ADD MLOAD PUSH1 0x0 ADD MLOAD PUSH1 0xE0 ADD MLOAD DUP6 PUSH1 0x0 ADD MLOAD DUP3 DUP2 MLOAD DUP2 LT PUSH2 0x963 JUMPI PUSH2 0x963 PUSH2 0x1703 JUMP JUMPDEST PUSH1 0x20 MUL PUSH1 0x20 ADD ADD MLOAD PUSH1 0x20 ADD DUP2 DUP2 MSTORE POP POP DUP4 DUP2 DUP2 MLOAD DUP2 LT PUSH2 0x985 JUMPI PUSH2 0x985 PUSH2 0x1703 JUMP JUMPDEST PUSH1 0x20 MUL PUSH1 0x20 ADD ADD MLOAD PUSH1 0x0 ADD MLOAD PUSH1 0xC0 ADD MLOAD DUP6 PUSH1 0x0 ADD MLOAD DUP3 DUP2 MLOAD DUP2 LT PUSH2 0x9AB JUMPI PUSH2 0x9AB PUSH2 0x1703 JUMP JUMPDEST PUSH1 0x20 MUL PUSH1 0x20 ADD ADD MLOAD PUSH1 0x40 ADD DUP2 DUP2 MSTORE POP POP DUP4 DUP2 DUP2 MLOAD DUP2 LT PUSH2 0x9CD JUMPI PUSH2 0x9CD PUSH2 0x1703 JUMP JUMPDEST PUSH1 0x20 MUL PUSH1 0x20 ADD ADD MLOAD PUSH1 0x0 ADD MLOAD PUSH1 0x60 ADD MLOAD DUP6 PUSH1 0x0 ADD MLOAD DUP3 DUP2 MLOAD DUP2 LT PUSH2 0x9F3 JUMPI PUSH2 0x9F3 PUSH2 0x1703 JUMP JUMPDEST PUSH1 0x20 MUL PUSH1 0x20 ADD ADD MLOAD PUSH1 0x80 ADD DUP2 DUP2 MSTORE POP POP DUP4 DUP2 DUP2 MLOAD DUP2 LT PUSH2 0xA15 JUMPI PUSH2 0xA15 PUSH2 0x1703 JUMP JUMPDEST PUSH1 0x20 MUL PUSH1 0x20 ADD ADD MLOAD PUSH1 0x0 ADD MLOAD PUSH2 0x100 ADD MLOAD DUP6 PUSH1 0x0 ADD MLOAD DUP3 DUP2 MLOAD DUP2 LT PUSH2 0xA3C JUMPI PUSH2 0xA3C PUSH2 0x1703 JUMP JUMPDEST PUSH1 0x20 MUL PUSH1 0x20 ADD ADD MLOAD PUSH2 0x100 ADD DUP2 SWAP1 MSTORE POP DUP4 DUP2 DUP2 MLOAD DUP2 LT PUSH2 0xA5E JUMPI PUSH2 0xA5E PUSH2 0x1703 JUMP JUMPDEST PUSH1 0x20 MUL PUSH1 0x20 ADD ADD MLOAD PUSH1 0x0 ADD MLOAD PUSH1 0x60 ADD MLOAD DUP3 DUP3 DUP2 MLOAD DUP2 LT PUSH2 0xA80 JUMPI PUSH2 0xA80 PUSH2 0x1703 JUMP JUMPDEST PUSH1 0x20 SWAP1 DUP2 MUL SWAP2 SWAP1 SWAP2 ADD ADD MSTORE DUP1 PUSH2 0xA95 DUP2 PUSH2 0x172F JUMP JUMPDEST SWAP2 POP POP PUSH2 0x78A JUMP JUMPDEST POP PUSH1 0x0 PUSH2 0xAAA DUP4 DUP4 PUSH2 0xD91 JUMP JUMPDEST POP SWAP1 POP PUSH1 0x0 JUMPDEST DUP7 MLOAD MLOAD DUP2 LT ISZERO PUSH2 0xB0B JUMPI DUP2 DUP2 DUP2 MLOAD DUP2 LT PUSH2 0xACC JUMPI PUSH2 0xACC PUSH2 0x1703 JUMP JUMPDEST PUSH1 0x20 MUL PUSH1 0x20 ADD ADD MLOAD DUP7 PUSH1 0x0 ADD MLOAD DUP3 DUP2 MLOAD DUP2 LT PUSH2 0xAEA JUMPI PUSH2 0xAEA PUSH2 0x1703 JUMP JUMPDEST PUSH1 0x20 SWAP1 DUP2 MUL SWAP2 SWAP1 SWAP2 ADD ADD MLOAD PUSH1 0x60 ADD MSTORE DUP1 PUSH2 0xB03 DUP2 PUSH2 0x172F JUMP JUMPDEST SWAP2 POP POP PUSH2 0xAB0 JUMP JUMPDEST POP POP POP POP POP SWAP2 SWAP1 POP JUMP JUMPDEST PUSH1 0x1 PUSH1 0x40 DUP3 ADD DUP2 SWAP1 MSTORE PUSH1 0x60 DUP3 ADD MSTORE PUSH1 0x0 JUMPDEST DUP2 MLOAD MLOAD DUP2 LT ISZERO PUSH2 0xB90 JUMPI PUSH1 0x0 DUP3 PUSH1 0x0 ADD MLOAD DUP3 DUP2 MLOAD DUP2 LT PUSH2 0xB48 JUMPI PUSH2 0xB48 PUSH2 0x1703 JUMP JUMPDEST PUSH1 0x20 MUL PUSH1 0x20 ADD ADD MLOAD SWAP1 POP PUSH2 0xB5B DUP2 PUSH2 0xEE7 JUMP JUMPDEST DUP1 PUSH1 0xA0 ADD MLOAD PUSH2 0xB6C JUMPI PUSH1 0x0 PUSH1 0x40 DUP5 ADD MSTORE JUMPDEST DUP1 PUSH1 0xC0 ADD MLOAD PUSH2 0xB7D JUMPI PUSH1 0x0 PUSH1 0x60 DUP5 ADD MSTORE JUMPDEST POP DUP1 PUSH2 0xB88 DUP2 PUSH2 0x172F JUMP JUMPDEST SWAP2 POP POP PUSH2 0xB26 JUMP JUMPDEST POP POP JUMP JUMPDEST PUSH1 0x1 PUSH1 0x20 DUP3 ADD MSTORE PUSH1 0x0 JUMPDEST DUP2 MLOAD MLOAD DUP2 LT ISZERO PUSH2 0xB90 JUMPI PUSH1 0x0 DUP3 PUSH1 0x0 ADD MLOAD DUP3 DUP2 MLOAD DUP2 LT PUSH2 0xBC0 JUMPI PUSH2 0xBC0 PUSH2 0x1703 JUMP JUMPDEST PUSH1 0x20 MUL PUSH1 0x20 ADD ADD MLOAD SWAP1 POP PUSH1 0x0 PUSH2 0xBE5 PUSH1 0x2 SLOAD DUP4 PUSH1 0x20 ADD MLOAD PUSH2 0xFAF SWAP1 SWAP2 SWAP1 PUSH4 0xFFFFFFFF AND JUMP JUMPDEST SWAP1 POP PUSH1 0x0 DUP2 PUSH2 0xC05 DUP5 PUSH1 0x60 ADD MLOAD DUP6 PUSH1 0x20 ADD MLOAD PUSH2 0x1001 SWAP1 SWAP2 SWAP1 PUSH4 0xFFFFFFFF AND JUMP JUMPDEST GT ISZERO SWAP1 POP DUP1 DUP6 PUSH1 0x0 ADD MLOAD DUP6 DUP2 MLOAD DUP2 LT PUSH2 0xC20 JUMPI PUSH2 0xC20 PUSH2 0x1703 JUMP JUMPDEST PUSH1 0x20 SWAP1 DUP2 MUL SWAP2 SWAP1 SWAP2 ADD ADD MLOAD SWAP1 ISZERO ISZERO PUSH1 0xE0 SWAP1 SWAP2 ADD MSTORE DUP1 PUSH2 0xC41 JUMPI PUSH1 0x0 PUSH1 0x20 DUP7 ADD MSTORE JUMPDEST POP POP POP DUP1 DUP1 PUSH2 0xC4F SWAP1 PUSH2 0x172F JUMP JUMPDEST SWAP2 POP POP PUSH2 0xB9E JUMP JUMPDEST PUSH1 0x0 DUP1 JUMPDEST DUP3 MLOAD MLOAD DUP2 LT ISZERO PUSH2 0x607 JUMPI PUSH1 0x0 DUP4 PUSH1 0x0 ADD MLOAD DUP3 DUP2 MLOAD DUP2 LT PUSH2 0xC7D JUMPI PUSH2 0xC7D PUSH2 0x1703 JUMP JUMPDEST PUSH1 0x20 MUL PUSH1 0x20 ADD ADD MLOAD SWAP1 POP DUP1 PUSH1 0xE0 ADD MLOAD ISZERO PUSH2 0xC97 JUMPI POP PUSH2 0xCEC JUMP JUMPDEST PUSH1 0x0 PUSH2 0xCB4 DUP3 PUSH1 0x20 ADD MLOAD DUP4 PUSH1 0x60 ADD MLOAD PUSH2 0x1001 SWAP1 SWAP2 SWAP1 PUSH4 0xFFFFFFFF AND JUMP JUMPDEST SWAP1 POP PUSH1 0x0 PUSH2 0xCD3 DUP4 PUSH1 0x20 ADD MLOAD DUP5 PUSH1 0x40 ADD MLOAD PUSH2 0x1001 SWAP1 SWAP2 SWAP1 PUSH4 0xFFFFFFFF AND JUMP JUMPDEST SWAP1 POP DUP1 DUP3 LT PUSH2 0xCE8 JUMPI POP PUSH1 0x0 SWAP6 SWAP5 POP POP POP POP POP JUMP JUMPDEST POP POP POP JUMPDEST DUP1 PUSH2 0xCF6 DUP2 PUSH2 0x172F JUMP JUMPDEST SWAP2 POP POP PUSH2 0xC5B JUMP JUMPDEST PUSH1 0x0 DUP2 PUSH1 0x40 ADD MLOAD DUP1 PUSH2 0xD14 JUMPI POP PUSH2 0xD14 DUP3 PUSH2 0x102B JUMP JUMPDEST DUP1 PUSH2 0xD23 JUMPI POP PUSH2 0xD23 DUP3 PUSH2 0x10F3 JUMP JUMPDEST SWAP3 SWAP2 POP POP JUMP JUMPDEST PUSH1 0x0 PUSH1 0x11 NOT PUSH1 0xFF DUP4 AND ADD PUSH2 0xD3E JUMPI POP DUP2 PUSH2 0xD23 JUMP JUMPDEST PUSH1 0x12 PUSH1 0xFF DUP4 AND GT ISZERO PUSH2 0xD71 JUMPI PUSH2 0xD55 PUSH1 0x12 DUP4 PUSH2 0x176E JUMP JUMPDEST PUSH2 0xD60 SWAP1 PUSH1 0xA PUSH2 0x186B JUMP JUMPDEST PUSH2 0xD6A SWAP1 DUP5 PUSH2 0x187A JUMP JUMPDEST SWAP1 POP PUSH2 0xD23 JUMP JUMPDEST PUSH2 0xD7C DUP3 PUSH1 0x12 PUSH2 0x176E JUMP JUMPDEST PUSH2 0xD87 SWAP1 PUSH1 0xA PUSH2 0x186B JUMP JUMPDEST PUSH2 0xD6A SWAP1 DUP5 PUSH2 0x189C JUMP JUMPDEST PUSH1 0x60 PUSH1 0x0 DUP1 DUP4 MLOAD PUSH8 0xFFFFFFFFFFFFFFFF DUP2 GT ISZERO PUSH2 0xDB0 JUMPI PUSH2 0xDB0 PUSH2 0x11F3 JUMP JUMPDEST PUSH1 0x40 MLOAD SWAP1 DUP1 DUP3 MSTORE DUP1 PUSH1 0x20 MUL PUSH1 0x20 ADD DUP3 ADD PUSH1 0x40 MSTORE DUP1 ISZERO PUSH2 0xDD9 JUMPI DUP2 PUSH1 0x20 ADD PUSH1 0x20 DUP3 MUL DUP1 CALLDATASIZE DUP4 CALLDATACOPY ADD SWAP1 POP JUMPDEST POP SWAP1 POP PUSH1 0x0 DUP1 JUMPDEST DUP7 MLOAD DUP2 LT ISZERO PUSH2 0xE52 JUMPI PUSH1 0x0 PUSH2 0xE30 DUP8 DUP4 DUP2 MLOAD DUP2 LT PUSH2 0xE00 JUMPI PUSH2 0xE00 PUSH2 0x1703 JUMP JUMPDEST PUSH1 0x20 MUL PUSH1 0x20 ADD ADD MLOAD DUP10 DUP5 DUP2 MLOAD DUP2 LT PUSH2 0xE1A JUMPI PUSH2 0xE1A PUSH2 0x1703 JUMP JUMPDEST PUSH1 0x20 MUL PUSH1 0x20 ADD ADD MLOAD PUSH2 0x115F SWAP1 SWAP2 SWAP1 PUSH4 0xFFFFFFFF AND JUMP JUMPDEST SWAP1 POP PUSH2 0xE3C DUP2 DUP5 PUSH2 0x1748 JUMP JUMPDEST SWAP3 POP POP DUP1 DUP1 PUSH2 0xE4A SWAP1 PUSH2 0x172F JUMP JUMPDEST SWAP2 POP POP PUSH2 0xDE0 JUMP JUMPDEST POP DUP1 PUSH1 0x0 SUB PUSH2 0xE65 JUMPI SWAP1 SWAP3 POP SWAP1 POP PUSH2 0xEE0 JUMP JUMPDEST PUSH1 0x0 JUMPDEST DUP7 MLOAD DUP2 LT ISZERO PUSH2 0xED9 JUMPI PUSH2 0xEAA DUP3 PUSH2 0xEA4 DUP9 DUP5 DUP2 MLOAD DUP2 LT PUSH2 0xE8A JUMPI PUSH2 0xE8A PUSH2 0x1703 JUMP JUMPDEST PUSH1 0x20 MUL PUSH1 0x20 ADD ADD MLOAD DUP11 DUP6 DUP2 MLOAD DUP2 LT PUSH2 0xE1A JUMPI PUSH2 0xE1A PUSH2 0x1703 JUMP JUMPDEST SWAP1 PUSH2 0x1188 JUMP JUMPDEST DUP4 DUP3 DUP2 MLOAD DUP2 LT PUSH2 0xEBC JUMPI PUSH2 0xEBC PUSH2 0x1703 JUMP JUMPDEST PUSH1 0x20 SWAP1 DUP2 MUL SWAP2 SWAP1 SWAP2 ADD ADD MSTORE DUP1 PUSH2 0xED1 DUP2 PUSH2 0x172F JUMP JUMPDEST SWAP2 POP POP PUSH2 0xE68 JUMP JUMPDEST POP SWAP1 SWAP3 POP SWAP1 POP JUMPDEST SWAP3 POP SWAP3 SWAP1 POP JUMP JUMPDEST PUSH1 0x1 PUSH1 0xA0 DUP3 ADD MSTORE PUSH1 0x0 PUSH1 0xC0 DUP3 ADD DUP2 SWAP1 MSTORE JUMPDEST DUP2 PUSH2 0x100 ADD MLOAD MLOAD DUP2 LT ISZERO PUSH2 0xB90 JUMPI PUSH1 0x0 DUP3 PUSH2 0x100 ADD MLOAD DUP3 DUP2 MLOAD DUP2 LT PUSH2 0xF1F JUMPI PUSH2 0xF1F PUSH2 0x1703 JUMP JUMPDEST PUSH1 0x20 MUL PUSH1 0x20 ADD ADD MLOAD SWAP1 POP PUSH1 0x0 DUP2 PUSH1 0x40 ADD MLOAD SWAP1 POP PUSH1 0x0 DUP5 PUSH2 0x100 ADD MLOAD DUP5 DUP2 MLOAD DUP2 LT PUSH2 0xF4B JUMPI PUSH2 0xF4B PUSH2 0x1703 JUMP JUMPDEST PUSH1 0x20 MUL PUSH1 0x20 ADD ADD MLOAD PUSH1 0x20 ADD MLOAD SWAP1 POP DUP1 DUP1 ISZERO PUSH2 0xF7B JUMPI POP PUSH1 0x60 DUP4 ADD MLOAD MLOAD DUP3 LT DUP1 PUSH2 0xF7B JUMPI POP DUP3 PUSH1 0x60 ADD MLOAD PUSH1 0x20 ADD MLOAD DUP3 GT JUMPDEST ISZERO PUSH2 0xF88 JUMPI PUSH1 0x0 PUSH1 0xA0 DUP7 ADD MSTORE JUMPDEST PUSH1 0x3 SLOAD DUP3 LT PUSH2 0xF99 JUMPI PUSH1 0x1 PUSH1 0xC0 DUP7 ADD MSTORE JUMPDEST POP POP POP DUP1 DUP1 PUSH2 0xFA7 SWAP1 PUSH2 0x172F JUMP JUMPDEST SWAP2 POP POP PUSH2 0xEF8 JUMP JUMPDEST PUSH1 0x0 DUP1 PUSH2 0xFBC DUP4 DUP6 PUSH2 0x189C JUMP JUMPDEST SWAP1 POP DUP1 PUSH1 0x0 SUB PUSH2 0xFD0 JUMPI PUSH1 0x0 SWAP2 POP POP PUSH2 0xD23 JUMP JUMPDEST PUSH8 0xDE0B6B3A7640000 PUSH2 0xFE4 PUSH1 0x1 DUP4 PUSH2 0x175B JUMP JUMPDEST PUSH2 0xFEE SWAP2 SWAP1 PUSH2 0x187A JUMP JUMPDEST PUSH2 0xFF9 SWAP1 PUSH1 0x1 PUSH2 0x1748 JUMP JUMPDEST SWAP2 POP POP PUSH2 0xD23 JUMP JUMPDEST PUSH1 0x0 DUP2 DUP4 LT ISZERO PUSH2 0x101A JUMPI PUSH2 0x1015 DUP4 DUP4 PUSH2 0x175B JUMP JUMPDEST PUSH2 0x1024 JUMP JUMPDEST PUSH2 0x1024 DUP3 DUP5 PUSH2 0x175B JUMP JUMPDEST SWAP4 SWAP3 POP POP POP JUMP JUMPDEST PUSH1 0x0 DUP2 PUSH1 0x80 ADD MLOAD PUSH2 0x103E JUMPI POP PUSH1 0x1 SWAP2 SWAP1 POP JUMP JUMPDEST PUSH1 0x0 JUMPDEST DUP3 MLOAD MLOAD DUP2 LT ISZERO PUSH2 0x607 JUMPI PUSH1 0x0 DUP4 PUSH1 0x0 ADD MLOAD DUP3 DUP2 MLOAD DUP2 LT PUSH2 0x1063 JUMPI PUSH2 0x1063 PUSH2 0x1703 JUMP JUMPDEST PUSH1 0x20 MUL PUSH1 0x20 ADD ADD MLOAD SWAP1 POP PUSH1 0x0 JUMPDEST DUP2 PUSH2 0x100 ADD MLOAD MLOAD DUP2 LT ISZERO PUSH2 0x10DE JUMPI PUSH1 0x0 DUP3 PUSH2 0x100 ADD MLOAD DUP3 DUP2 MLOAD DUP2 LT PUSH2 0x1097 JUMPI PUSH2 0x1097 PUSH2 0x1703 JUMP JUMPDEST PUSH1 0x20 MUL PUSH1 0x20 ADD ADD MLOAD SWAP1 POP DUP1 PUSH1 0x20 ADD MLOAD DUP1 ISZERO PUSH2 0x10BA JUMPI POP PUSH1 0x60 DUP2 ADD MLOAD MLOAD PUSH1 0x40 DUP3 ADD MLOAD LT JUMPDEST ISZERO PUSH2 0x10CB JUMPI POP PUSH1 0x0 SWAP6 SWAP5 POP POP POP POP POP JUMP JUMPDEST POP DUP1 PUSH2 0x10D6 DUP2 PUSH2 0x172F JUMP JUMPDEST SWAP2 POP POP PUSH2 0x1070 JUMP JUMPDEST POP POP DUP1 DUP1 PUSH2 0x10EB SWAP1 PUSH2 0x172F JUMP JUMPDEST SWAP2 POP POP PUSH2 0x1041 JUMP JUMPDEST PUSH1 0x0 DUP1 JUMPDEST DUP3 MLOAD MLOAD DUP2 LT ISZERO PUSH2 0x607 JUMPI PUSH1 0x0 DUP4 PUSH1 0x0 ADD MLOAD DUP3 DUP2 MLOAD DUP2 LT PUSH2 0x1119 JUMPI PUSH2 0x1119 PUSH2 0x1703 JUMP JUMPDEST PUSH1 0x20 MUL PUSH1 0x20 ADD ADD MLOAD SWAP1 POP DUP1 PUSH1 0xA0 ADD MLOAD ISZERO DUP1 ISZERO PUSH2 0x113D JUMPI POP DUP1 PUSH1 0x40 ADD MLOAD DUP2 PUSH1 0x60 ADD MLOAD LT ISZERO JUMPDEST ISZERO PUSH2 0x114C JUMPI POP PUSH1 0x0 SWAP4 SWAP3 POP POP POP JUMP JUMPDEST POP DUP1 PUSH2 0x1157 DUP2 PUSH2 0x172F JUMP JUMPDEST SWAP2 POP POP PUSH2 0x10F7 JUMP JUMPDEST PUSH1 0x0 DUP1 PUSH2 0x116C DUP4 DUP6 PUSH2 0x189C JUMP JUMPDEST SWAP1 POP PUSH2 0x1180 PUSH8 0xDE0B6B3A7640000 DUP3 PUSH2 0x187A JUMP JUMPDEST SWAP5 SWAP4 POP POP POP POP JUMP JUMPDEST PUSH1 0x40 DUP1 MLOAD DUP1 DUP3 ADD SWAP1 SWAP2 MSTORE PUSH1 0x2 DUP2 MSTORE PUSH2 0x3235 PUSH1 0xF0 SHL PUSH1 0x20 DUP3 ADD MSTORE PUSH1 0x0 SWAP1 DUP3 PUSH2 0x11C2 JUMPI PUSH1 0x40 MLOAD PUSH3 0x461BCD PUSH1 0xE5 SHL DUP2 MSTORE PUSH1 0x4 ADD PUSH2 0x1E9 SWAP2 SWAP1 PUSH2 0x1681 JUMP JUMPDEST POP DUP3 PUSH1 0x0 SUB PUSH2 0x11D3 JUMPI POP PUSH1 0x0 PUSH2 0xD23 JUMP JUMPDEST PUSH1 0x0 PUSH2 0x11E7 PUSH8 0xDE0B6B3A7640000 DUP6 PUSH2 0x189C JUMP JUMPDEST SWAP1 POP PUSH2 0xFF9 DUP4 DUP3 PUSH2 0x187A JUMP JUMPDEST PUSH4 0x4E487B71 PUSH1 0xE0 SHL PUSH1 0x0 MSTORE PUSH1 0x41 PUSH1 0x4 MSTORE PUSH1 0x24 PUSH1 0x0 REVERT JUMPDEST PUSH1 0x40 MLOAD PUSH1 0x80 DUP2 ADD PUSH8 0xFFFFFFFFFFFFFFFF DUP2 GT DUP3 DUP3 LT OR ISZERO PUSH2 0x122C JUMPI PUSH2 0x122C PUSH2 0x11F3 JUMP JUMPDEST PUSH1 0x40 MSTORE SWAP1 JUMP JUMPDEST PUSH1 0x40 DUP1 MLOAD SWAP1 DUP2 ADD PUSH8 0xFFFFFFFFFFFFFFFF DUP2 GT DUP3 DUP3 LT OR ISZERO PUSH2 0x122C JUMPI PUSH2 0x122C PUSH2 0x11F3 JUMP JUMPDEST PUSH1 0x40 MLOAD PUSH2 0x120 DUP2 ADD PUSH8 0xFFFFFFFFFFFFFFFF DUP2 GT DUP3 DUP3 LT OR ISZERO PUSH2 0x122C JUMPI PUSH2 0x122C PUSH2 0x11F3 JUMP JUMPDEST PUSH1 0x40 MLOAD PUSH1 0x1F DUP3 ADD PUSH1 0x1F NOT AND DUP2 ADD PUSH8 0xFFFFFFFFFFFFFFFF DUP2 GT DUP3 DUP3 LT OR ISZERO PUSH2 0x12A2 JUMPI PUSH2 0x12A2 PUSH2 0x11F3 JUMP JUMPDEST PUSH1 0x40 MSTORE SWAP2 SWAP1 POP JUMP JUMPDEST PUSH1 0x0 PUSH8 0xFFFFFFFFFFFFFFFF DUP3 GT ISZERO PUSH2 0x12C4 JUMPI PUSH2 0x12C4 PUSH2 0x11F3 JUMP JUMPDEST POP PUSH1 0x5 SHL PUSH1 0x20 ADD SWAP1 JUMP JUMPDEST DUP1 CALLDATALOAD PUSH1 0x1 PUSH1 0x1 PUSH1 0xA0 SHL SUB DUP2 AND DUP2 EQ PUSH2 0x12E5 JUMPI PUSH1 0x0 DUP1 REVERT JUMPDEST SWAP2 SWAP1 POP JUMP JUMPDEST DUP1 CALLDATALOAD PUSH1 0xFF DUP2 AND DUP2 EQ PUSH2 0x12E5 JUMPI PUSH1 0x0 DUP1 REVERT JUMPDEST DUP1 CALLDATALOAD PUSH8 0xFFFFFFFFFFFFFFFF DUP2 AND DUP2 EQ PUSH2 0x12E5 JUMPI PUSH1 0x0 DUP1 REVERT JUMPDEST PUSH1 0x0 PUSH1 0xE0 DUP3 DUP5 SUB SLT ISZERO PUSH2 0x1325 JUMPI PUSH1 0x0 DUP1 REVERT JUMPDEST PUSH1 0x40 MLOAD PUSH1 0xE0 DUP2 ADD DUP2 DUP2 LT PUSH8 0xFFFFFFFFFFFFFFFF DUP3 GT OR ISZERO PUSH2 0x1348 JUMPI PUSH2 0x1348 PUSH2 0x11F3 JUMP JUMPDEST DUP1 PUSH1 0x40 MSTORE POP DUP1 SWAP2 POP DUP3 CALLDATALOAD DUP2 MSTORE PUSH1 0x20 DUP4 ADD CALLDATALOAD PUSH1 0x20 DUP3 ADD MSTORE PUSH1 0x40 DUP4 ADD CALLDATALOAD PUSH1 0x40 DUP3 ADD MSTORE PUSH1 0x60 DUP4 ADD CALLDATALOAD PUSH1 0x60 DUP3 ADD MSTORE PUSH2 0x137E PUSH1 0x80 DUP5 ADD PUSH2 0x12FB JUMP JUMPDEST PUSH1 0x80 DUP3 ADD MSTORE PUSH2 0x138F PUSH1 0xA0 DUP5 ADD PUSH2 0x12FB JUMP JUMPDEST PUSH1 0xA0 DUP3 ADD MSTORE PUSH2 0x13A0 PUSH1 0xC0 DUP5 ADD PUSH2 0x12FB JUMP JUMPDEST PUSH1 0xC0 DUP3 ADD MSTORE POP SWAP3 SWAP2 POP POP JUMP JUMPDEST DUP1 CALLDATALOAD DUP1 ISZERO ISZERO DUP2 EQ PUSH2 0x12E5 JUMPI PUSH1 0x0 DUP1 REVERT JUMPDEST PUSH1 0x0 DUP3 PUSH1 0x1F DUP4 ADD SLT PUSH2 0x13CD JUMPI PUSH1 0x0 DUP1 REVERT JUMPDEST DUP2 CALLDATALOAD PUSH1 0x20 PUSH2 0x13E2 PUSH2 0x13DD DUP4 PUSH2 0x12AA JUMP JUMPDEST PUSH2 0x1279 JUMP JUMPDEST DUP3 DUP2 MSTORE PUSH1 0xA0 SWAP3 DUP4 MUL DUP6 ADD DUP3 ADD SWAP3 DUP3 DUP3 ADD SWAP2 SWAP1 DUP8 DUP6 GT ISZERO PUSH2 0x1401 JUMPI PUSH1 0x0 DUP1 REVERT JUMPDEST DUP4 DUP8 ADD JUMPDEST DUP6 DUP2 LT ISZERO PUSH2 0x1488 JUMPI DUP1 DUP10 SUB DUP3 DUP2 SLT ISZERO PUSH2 0x141E JUMPI PUSH1 0x0 DUP1 DUP2 REVERT JUMPDEST PUSH2 0x1426 PUSH2 0x1209 JUMP JUMPDEST PUSH2 0x142F DUP4 PUSH2 0x12CE JUMP JUMPDEST DUP2 MSTORE PUSH2 0x143C DUP8 DUP5 ADD PUSH2 0x13AC JUMP JUMPDEST DUP8 DUP3 ADD MSTORE PUSH1 0x40 DUP1 DUP5 ADD CALLDATALOAD DUP2 DUP4 ADD MSTORE PUSH1 0x60 DUP2 PUSH1 0x5F NOT DUP6 ADD SLT ISZERO PUSH2 0x145E JUMPI PUSH1 0x0 DUP1 DUP2 REVERT JUMPDEST PUSH2 0x1466 PUSH2 0x1232 JUMP JUMPDEST DUP6 DUP3 ADD CALLDATALOAD DUP2 MSTORE PUSH1 0x80 DUP7 ADD CALLDATALOAD DUP11 DUP3 ADD MSTORE SWAP1 DUP4 ADD MSTORE POP DUP6 MSTORE POP SWAP3 DUP5 ADD SWAP3 DUP2 ADD PUSH2 0x1405 JUMP JUMPDEST POP SWAP1 SWAP8 SWAP7 POP POP POP POP POP POP POP JUMP JUMPDEST PUSH1 0x0 PUSH1 0x20 DUP3 DUP5 SUB SLT ISZERO PUSH2 0x14A7 JUMPI PUSH1 0x0 DUP1 REVERT JUMPDEST PUSH8 0xFFFFFFFFFFFFFFFF DUP1 DUP4 CALLDATALOAD GT ISZERO PUSH2 0x14BE JUMPI PUSH1 0x0 DUP1 REVERT JUMPDEST PUSH1 0x40 DUP4 CALLDATALOAD DUP5 ADD DUP6 SUB SLT ISZERO PUSH2 0x14D1 JUMPI PUSH1 0x0 DUP1 REVERT JUMPDEST PUSH2 0x14D9 PUSH2 0x1232 JUMP JUMPDEST DUP2 DUP5 CALLDATALOAD DUP6 ADD CALLDATALOAD GT ISZERO PUSH2 0x14EA JUMPI PUSH1 0x0 DUP1 REVERT JUMPDEST DUP4 CALLDATALOAD DUP5 ADD DUP1 CALLDATALOAD ADD PUSH1 0x1F DUP2 ADD DUP7 SGT PUSH2 0x1500 JUMPI PUSH1 0x0 DUP1 REVERT JUMPDEST PUSH2 0x150D PUSH2 0x13DD DUP3 CALLDATALOAD PUSH2 0x12AA JUMP JUMPDEST DUP2 CALLDATALOAD DUP1 DUP3 MSTORE PUSH1 0x20 DUP1 DUP4 ADD SWAP3 SWAP2 PUSH1 0x5 SHL DUP5 ADD ADD DUP9 LT ISZERO PUSH2 0x152B JUMPI PUSH1 0x0 DUP1 REVERT JUMPDEST PUSH1 0x20 DUP4 ADD JUMPDEST PUSH1 0x20 DUP5 CALLDATALOAD PUSH1 0x5 SHL DUP6 ADD ADD DUP2 LT ISZERO PUSH2 0x165F JUMPI DUP6 DUP2 CALLDATALOAD GT ISZERO PUSH2 0x154F JUMPI PUSH1 0x0 DUP1 REVERT JUMPDEST DUP1 CALLDATALOAD DUP5 ADD PUSH1 0x1F NOT PUSH1 0x40 DUP3 DUP13 SUB DUP3 ADD SLT ISZERO PUSH2 0x1568 JUMPI PUSH1 0x0 DUP1 REVERT JUMPDEST PUSH2 0x1570 PUSH2 0x1232 JUMP JUMPDEST DUP9 PUSH1 0x20 DUP5 ADD CALLDATALOAD GT ISZERO PUSH2 0x1581 JUMPI PUSH1 0x0 DUP1 REVERT JUMPDEST PUSH1 0x20 DUP4 ADD CALLDATALOAD DUP4 ADD PUSH2 0x1E0 DUP4 DUP3 DUP16 SUB ADD SLT ISZERO PUSH2 0x159B JUMPI PUSH1 0x0 DUP1 REVERT JUMPDEST PUSH2 0x15A3 PUSH2 0x1255 JUMP JUMPDEST SWAP3 POP PUSH2 0x15B1 PUSH1 0x20 DUP3 ADD PUSH2 0x12CE JUMP JUMPDEST DUP4 MSTORE PUSH2 0x15BF PUSH1 0x40 DUP3 ADD PUSH2 0x12EA JUMP JUMPDEST PUSH1 0x20 DUP5 ADD MSTORE PUSH2 0x15D0 PUSH1 0x60 DUP3 ADD PUSH2 0x12CE JUMP JUMPDEST PUSH1 0x40 DUP5 ADD MSTORE PUSH1 0x80 DUP2 ADD CALLDATALOAD PUSH1 0x60 DUP5 ADD MSTORE PUSH2 0x15EC DUP14 PUSH1 0xA0 DUP4 ADD PUSH2 0x1313 JUMP JUMPDEST PUSH1 0x80 DUP5 ADD MSTORE PUSH2 0x180 DUP2 ADD CALLDATALOAD PUSH1 0xA0 DUP5 ADD MSTORE PUSH2 0x1A0 DUP2 ADD CALLDATALOAD PUSH1 0xC0 DUP5 ADD MSTORE PUSH2 0x1C0 DUP2 ADD CALLDATALOAD PUSH1 0xE0 DUP5 ADD MSTORE DUP10 PUSH2 0x1E0 DUP3 ADD CALLDATALOAD GT ISZERO PUSH2 0x1624 JUMPI PUSH1 0x0 DUP1 REVERT JUMPDEST PUSH2 0x1638 DUP14 PUSH1 0x20 PUSH2 0x1E0 DUP5 ADD CALLDATALOAD DUP5 ADD ADD PUSH2 0x13BC JUMP JUMPDEST PUSH2 0x100 DUP5 ADD MSTORE POP SWAP1 DUP2 MSTORE PUSH1 0x40 SWAP2 SWAP1 SWAP2 ADD CALLDATALOAD PUSH1 0x20 DUP1 DUP4 ADD SWAP2 SWAP1 SWAP2 MSTORE SWAP1 DUP5 MSTORE SWAP3 DUP4 ADD SWAP3 ADD PUSH2 0x1530 JUMP JUMPDEST POP DUP4 MSTORE POP PUSH2 0x1674 SWAP1 POP DUP5 CALLDATALOAD DUP6 ADD PUSH1 0x20 ADD PUSH2 0x13AC JUMP JUMPDEST PUSH1 0x20 DUP3 ADD MSTORE SWAP5 SWAP4 POP POP POP POP JUMP JUMPDEST PUSH1 0x0 PUSH1 0x20 DUP1 DUP4 MSTORE DUP4 MLOAD DUP1 DUP3 DUP6 ADD MSTORE PUSH1 0x0 JUMPDEST DUP2 DUP2 LT ISZERO PUSH2 0x16AE JUMPI DUP6 DUP2 ADD DUP4 ADD MLOAD DUP6 DUP3 ADD PUSH1 0x40 ADD MSTORE DUP3 ADD PUSH2 0x1692 JUMP JUMPDEST POP PUSH1 0x0 PUSH1 0x40 DUP3 DUP7 ADD ADD MSTORE PUSH1 0x40 PUSH1 0x1F NOT PUSH1 0x1F DUP4 ADD AND DUP6 ADD ADD SWAP3 POP POP POP SWAP3 SWAP2 POP POP JUMP JUMPDEST PUSH1 0x0 PUSH1 0x20 DUP3 DUP5 SUB SLT ISZERO PUSH2 0x16E1 JUMPI PUSH1 0x0 DUP1 REVERT JUMPDEST POP CALLDATALOAD SWAP2 SWAP1 POP JUMP JUMPDEST PUSH1 0x0 PUSH1 0x20 DUP3 DUP5 SUB SLT ISZERO PUSH2 0x16FA JUMPI PUSH1 0x0 DUP1 REVERT JUMPDEST PUSH2 0x1024 DUP3 PUSH2 0x12CE JUMP JUMPDEST PUSH4 0x4E487B71 PUSH1 0xE0 SHL PUSH1 0x0 MSTORE PUSH1 0x32 PUSH1 0x4 MSTORE PUSH1 0x24 PUSH1 0x0 REVERT JUMPDEST PUSH4 0x4E487B71 PUSH1 0xE0 SHL PUSH1 0x0 MSTORE PUSH1 0x11 PUSH1 0x4 MSTORE PUSH1 0x24 PUSH1 0x0 REVERT JUMPDEST PUSH1 0x0 PUSH1 0x1 DUP3 ADD PUSH2 0x1741 JUMPI PUSH2 0x1741 PUSH2 0x1719 JUMP JUMPDEST POP PUSH1 0x1 ADD SWAP1 JUMP JUMPDEST DUP1 DUP3 ADD DUP1 DUP3 GT ISZERO PUSH2 0xD23 JUMPI PUSH2 0xD23 PUSH2 0x1719 JUMP JUMPDEST DUP2 DUP2 SUB DUP2 DUP2 GT ISZERO PUSH2 0xD23 JUMPI PUSH2 0xD23 PUSH2 0x1719 JUMP JUMPDEST PUSH1 0xFF DUP3 DUP2 AND DUP3 DUP3 AND SUB SWAP1 DUP2 GT ISZERO PUSH2 0xD23 JUMPI PUSH2 0xD23 PUSH2 0x1719 JUMP JUMPDEST PUSH1 0x1 DUP2 DUP2 JUMPDEST DUP1 DUP6 GT ISZERO PUSH2 0x17C2 JUMPI DUP2 PUSH1 0x0 NOT DIV DUP3 GT ISZERO PUSH2 0x17A8 JUMPI PUSH2 0x17A8 PUSH2 0x1719 JUMP JUMPDEST DUP1 DUP6 AND ISZERO PUSH2 0x17B5 JUMPI SWAP2 DUP2 MUL SWAP2 JUMPDEST SWAP4 DUP5 SHR SWAP4 SWAP1 DUP1 MUL SWAP1 PUSH2 0x178C JUMP JUMPDEST POP SWAP3 POP SWAP3 SWAP1 POP JUMP JUMPDEST PUSH1 0x0 DUP3 PUSH2 0x17D9 JUMPI POP PUSH1 0x1 PUSH2 0xD23 JUMP JUMPDEST DUP2 PUSH2 0x17E6 JUMPI POP PUSH1 0x0 PUSH2 0xD23 JUMP JUMPDEST DUP2 PUSH1 0x1 DUP2 EQ PUSH2 0x17FC JUMPI PUSH1 0x2 DUP2 EQ PUSH2 0x1806 JUMPI PUSH2 0x1822 JUMP JUMPDEST PUSH1 0x1 SWAP2 POP POP PUSH2 0xD23 JUMP JUMPDEST PUSH1 0xFF DUP5 GT ISZERO PUSH2 0x1817 JUMPI PUSH2 0x1817 PUSH2 0x1719 JUMP JUMPDEST POP POP PUSH1 0x1 DUP3 SHL PUSH2 0xD23 JUMP JUMPDEST POP PUSH1 0x20 DUP4 LT PUSH2 0x133 DUP4 LT AND PUSH1 0x4E DUP5 LT PUSH1 0xB DUP5 LT AND OR ISZERO PUSH2 0x1845 JUMPI POP DUP2 DUP2 EXP PUSH2 0xD23 JUMP JUMPDEST PUSH2 0x184F DUP4 DUP4 PUSH2 0x1787 JUMP JUMPDEST DUP1 PUSH1 0x0 NOT DIV DUP3 GT ISZERO PUSH2 0x1863 JUMPI PUSH2 0x1863 PUSH2 0x1719 JUMP JUMPDEST MUL SWAP4 SWAP3 POP POP POP JUMP JUMPDEST PUSH1 0x0 PUSH2 0x1024 PUSH1 0xFF DUP5 AND DUP4 PUSH2 0x17CA JUMP JUMPDEST PUSH1 0x0 DUP3 PUSH2 0x1897 JUMPI PUSH4 0x4E487B71 PUSH1 0xE0 SHL PUSH1 0x0 MSTORE PUSH1 0x12 PUSH1 0x4 MSTORE PUSH1 0x24 PUSH1 0x0 REVERT JUMPDEST POP DIV SWAP1 JUMP JUMPDEST DUP1 DUP3 MUL DUP2 ISZERO DUP3 DUP3 DIV DUP5 EQ OR PUSH2 0xD23 JUMPI PUSH2 0xD23 PUSH2 0x1719 JUMP INVALID LOG2 PUSH5 0x6970667358 0x22 SLT KECCAK256 MSIZE DUP2 AND 0x25 0xE1 CODECOPY BALANCE 0xB1 0xF9 PUSH12 0xECECDCDF8FF9E5F6028270D9 LOG3 CALLDATACOPY PUSH26 0x8B8CEC484EE18264736F6C634300081100330000000000000000 ","sha1":"8ac2d153e10839898226e86cea389f54952466dc","source":"// SPDX-License-Identifier: LicenseRef-Gyro-1.0\n// for information on licensing please see the README in the GitHub repository <https://github.com/gyrostable/core-protocol>.\npragma solidity ^0.8.10;\n\nimport \"@openzeppelin/contracts/token/ERC20/utils/SafeERC20.sol\";\nimport \"@openzeppelin/contracts/token/ERC20/ERC20.sol\";\n\nimport \"./../auth/Governable.sol\";\nimport \"../../libraries/DataTypes.sol\";\nimport \"../../libraries/DecimalScale.sol\";\nimport \"../../libraries/FixedPoint.sol\";\nimport \"../../interfaces/IGyroVault.sol\";\nimport \"../../interfaces/balancer/IVault.sol\";\nimport \"../../libraries/Errors.sol\";\nimport \"../../interfaces/ISafetyCheck.sol\";\n\ncontract ReserveSafetyManager is Governable, ISafetyCheck {\n    using FixedPoint for uint256;\n    using DecimalScale for uint256;\n\n    uint256 public maxAllowedVaultDeviation;\n    uint256 public minTokenPrice;\n\n    constructor(\n        address _governor,\n        uint256 _maxAllowedVaultDeviation,\n        uint256 _minTokenPrice\n    ) Governable(_governor) {\n        maxAllowedVaultDeviation = _maxAllowedVaultDeviation;\n        minTokenPrice = _minTokenPrice;\n    }\n\n    function setVaultMaxDeviation(uint256 _maxAllowedVaultDeviation) external governanceOnly {\n        maxAllowedVaultDeviation = _maxAllowedVaultDeviation;\n    }\n\n    function setMinTokenPrice(uint256 _minTokenPrice) external governanceOnly {\n        minTokenPrice = _minTokenPrice;\n    }\n\n    /// @notice For given token amounts and token prices, calculates the weight of each token with\n    /// respect to the quote price as well as the total value of the basket in terms of the quote price\n    /// @param amounts an array of token amounts\n    /// @param prices an array of prices\n    /// @return (weights, total) where the weights is an array and the total a uint\n    function _calculateWeightsAndTotal(uint256[] memory amounts, uint256[] memory prices)\n        internal\n        pure\n        returns (uint256[] memory, uint256)\n    {\n        uint256[] memory weights = new uint256[](prices.length);\n\n        uint256 total = 0;\n        for (uint256 i = 0; i < amounts.length; i++) {\n            uint256 amountInUSD = amounts[i].mulDown(prices[i]);\n            total += amountInUSD;\n        }\n\n        if (total == 0) {\n            return (weights, total);\n        }\n\n        for (uint256 i = 0; i < amounts.length; i++) {\n            weights[i] = amounts[i].mulDown(prices[i]).divDown(total);\n        }\n\n        return (weights, total);\n    }\n\n    /// @notice checks for all vaults whether if a particular vault contains a stablecoin that is off its peg,\n    /// whether the proposed change to the vault would be reducing the weight of the vault with the failed asset (as desired).\n    /// @param metaData an metadata struct containing all the vault information. Must be fully updated with the price\n    /// safety and epsilon data.\n    /// @return bool of whether all vaults exhibit this weight decreasing behavior\n    function _vaultWeightWithOffPegFalls(DataTypes.Metadata memory metaData)\n        internal\n        pure\n        returns (bool)\n    {\n        for (uint256 i; i < metaData.vaultMetadata.length; i++) {\n            DataTypes.VaultMetadata memory vaultData = metaData.vaultMetadata[i];\n\n            if (\n                !vaultData.allStablecoinsOnPeg &&\n                vaultData.resultingWeight >= vaultData.currentWeight\n            ) {\n                return false;\n            }\n        }\n\n        return true;\n    }\n\n    /// @notice we allow minting only if depegged stablecoins are above peg\n    /// we allow redeeming regardless of whether depegged stablecoins are above or under peg\n    /// the price of the stablecoin is adjusted later when computing the reserve value\n    /// and the amount that the user can mint/redeem\n    function _canOperateWithDepeggedStablecoins(DataTypes.Metadata memory metaData)\n        internal\n        pure\n        returns (bool)\n    {\n        if (!metaData.mint) return true;\n\n        for (uint256 i; i < metaData.vaultMetadata.length; i++) {\n            DataTypes.VaultMetadata memory vaultData = metaData.vaultMetadata[i];\n            for (uint256 j; j < vaultData.pricedTokens.length; j++) {\n                DataTypes.PricedToken memory pricedToken = vaultData.pricedTokens[j];\n                if (pricedToken.isStable && pricedToken.price < pricedToken.priceRange.floor) {\n                    return false;\n                }\n            }\n        }\n        return true;\n    }\n\n    function isRedeemFeasible(DataTypes.Order memory order) internal pure returns (bool) {\n        for (uint256 i = 0; i < order.vaultsWithAmount.length; i++) {\n            if (\n                order.vaultsWithAmount[i].vaultInfo.reserveBalance <\n                order.vaultsWithAmount[i].amount\n            ) {\n                return false;\n            }\n        }\n\n        return true;\n    }\n\n    /// @notice this function takes an order struct and builds the metadata struct, for use in this contract.\n    /// @param order an order struct received by the Reserve Safety Manager contract\n    /// @return metaData object\n    function _buildMetaData(DataTypes.Order memory order)\n        internal\n        pure\n        returns (DataTypes.Metadata memory metaData)\n    {\n        DataTypes.VaultWithAmount[] memory vaultsWithAmount = order.vaultsWithAmount;\n\n        metaData.mint = order.mint;\n        metaData.vaultMetadata = new DataTypes.VaultMetadata[](order.vaultsWithAmount.length);\n\n        uint256[] memory resultingAmounts = new uint256[](vaultsWithAmount.length);\n        uint256[] memory prices = new uint256[](vaultsWithAmount.length);\n\n        for (uint256 i = 0; i < vaultsWithAmount.length; i++) {\n            if (order.mint) {\n                resultingAmounts[i] =\n                    vaultsWithAmount[i].vaultInfo.reserveBalance +\n                    vaultsWithAmount[i].amount;\n            } else {\n                resultingAmounts[i] =\n                    vaultsWithAmount[i].vaultInfo.reserveBalance -\n                    vaultsWithAmount[i].amount;\n            }\n            resultingAmounts[i] = resultingAmounts[i].scaleFrom(\n                vaultsWithAmount[i].vaultInfo.decimals\n            );\n\n            metaData.vaultMetadata[i].vault = vaultsWithAmount[i].vaultInfo.vault;\n            metaData.vaultMetadata[i].targetWeight = vaultsWithAmount[i].vaultInfo.targetWeight;\n            metaData.vaultMetadata[i].currentWeight = vaultsWithAmount[i].vaultInfo.currentWeight;\n            metaData.vaultMetadata[i].price = vaultsWithAmount[i].vaultInfo.price;\n            metaData.vaultMetadata[i].pricedTokens = vaultsWithAmount[i].vaultInfo.pricedTokens;\n            prices[i] = vaultsWithAmount[i].vaultInfo.price;\n        }\n\n        (uint256[] memory resultingWeights, ) = _calculateWeightsAndTotal(resultingAmounts, prices);\n\n        for (uint256 i = 0; i < order.vaultsWithAmount.length; i++) {\n            metaData.vaultMetadata[i].resultingWeight = resultingWeights[i];\n        }\n    }\n\n    /// @notice given input metadata, updates it with the information about whether the vault would remain within\n    /// an acceptable band (+/- epsilon) around the ideal weight for the vault.\n    /// @param metaData a metadata struct containing all the vault information.\n    function _updateMetaDataWithEpsilonStatus(DataTypes.Metadata memory metaData) internal view {\n        metaData.allVaultsWithinEpsilon = true;\n\n        for (uint256 i = 0; i < metaData.vaultMetadata.length; i++) {\n            DataTypes.VaultMetadata memory vaultData = metaData.vaultMetadata[i];\n            uint256 scaledEpsilon = vaultData.targetWeight.mulUp(maxAllowedVaultDeviation);\n            bool withinEpsilon = vaultData.targetWeight.absSub(vaultData.resultingWeight) <=\n                scaledEpsilon;\n\n            metaData.vaultMetadata[i].vaultWithinEpsilon = withinEpsilon;\n\n            if (!withinEpsilon) {\n                metaData.allVaultsWithinEpsilon = false;\n            }\n        }\n    }\n\n    /// @notice given input vaultMetadata, updates it with the information about whether the vault contains assets\n    /// with safe prices. For a stablecoin, safe means the asset is sufficiently close to the peg. For a\n    /// vault consisting of entirely non-stablecoin assets, this means that at least one of the prices is not 'dust',\n    /// to avoid numerical error.\n    /// @param vaultMetadata a VaultMetadata struct containing information for a particular vault.\n    function _updateVaultWithPriceSafety(DataTypes.VaultMetadata memory vaultMetadata)\n        internal\n        view\n    {\n        vaultMetadata.allStablecoinsOnPeg = true;\n        vaultMetadata.atLeastOnePriceLargeEnough = false;\n        for (uint256 i = 0; i < vaultMetadata.pricedTokens.length; i++) {\n            DataTypes.PricedToken memory pricedToken = vaultMetadata.pricedTokens[i];\n            uint256 tokenPrice = pricedToken.price;\n            bool isStable = vaultMetadata.pricedTokens[i].isStable;\n\n            if (\n                isStable &&\n                (tokenPrice < pricedToken.priceRange.floor ||\n                    tokenPrice > pricedToken.priceRange.ceiling)\n            ) {\n                vaultMetadata.allStablecoinsOnPeg = false;\n            }\n            if (tokenPrice >= minTokenPrice) {\n                vaultMetadata.atLeastOnePriceLargeEnough = true;\n            }\n        }\n    }\n\n    /// @notice given input metadata, updates it with the information about whether all vaults contains assets with\n    /// safe prices as determined by the _updateVaultWithPriceSafety function.\n    /// @param metaData a metadata struct containing all the vault information.\n    function _updateMetadataWithPriceSafety(DataTypes.Metadata memory metaData) internal view {\n        metaData.allStablecoinsAllVaultsOnPeg = true;\n        metaData.allVaultsUsingLargeEnoughPrices = true;\n        for (uint256 i = 0; i < metaData.vaultMetadata.length; i++) {\n            DataTypes.VaultMetadata memory vaultData = metaData.vaultMetadata[i];\n            _updateVaultWithPriceSafety(vaultData);\n            if (!vaultData.allStablecoinsOnPeg) {\n                metaData.allStablecoinsAllVaultsOnPeg = false;\n            }\n            if (!vaultData.atLeastOnePriceLargeEnough) {\n                metaData.allVaultsUsingLargeEnoughPrices = false;\n            }\n        }\n    }\n\n    /// @notice given input metadata,\n    /// @param metaData a metadata struct containing all the vault information, updated with price safety and the\n    /// status of the vault regarding whether it is within epsilon.\n    /// @return bool equal to true if for any pool that is outside of epsilon, the weight after the mint/redeem will\n    /// be closer to the ideal weight than the current weight is, i.e., the operation promotes rebalancing.\n    function _safeToExecuteOutsideEpsilon(DataTypes.Metadata memory metaData)\n        internal\n        pure\n        returns (bool)\n    {\n        //Check that amount above maxAllowedVaultDeviation is decreasing\n        //Check that unhealthy pools have input weight below ideal weight\n        //If both true, then mint\n        //note: should always be able to mint at the ideal weights!\n\n        for (uint256 i; i < metaData.vaultMetadata.length; i++) {\n            DataTypes.VaultMetadata memory vaultMetadata = metaData.vaultMetadata[i];\n\n            if (vaultMetadata.vaultWithinEpsilon) {\n                continue;\n            }\n\n            uint256 distanceResultingToIdeal = vaultMetadata.resultingWeight.absSub(\n                vaultMetadata.targetWeight\n            );\n            uint256 distanceCurrentToIdeal = vaultMetadata.currentWeight.absSub(\n                vaultMetadata.targetWeight\n            );\n\n            if (distanceResultingToIdeal >= distanceCurrentToIdeal) {\n                return false;\n            }\n        }\n\n        return true;\n    }\n\n    function _isStablecoinSafe(DataTypes.Metadata memory metaData) internal pure returns (bool) {\n        return\n            metaData.allStablecoinsAllVaultsOnPeg ||\n            _canOperateWithDepeggedStablecoins(metaData) ||\n            _vaultWeightWithOffPegFalls(metaData);\n    }\n\n    /// @inheritdoc ISafetyCheck\n    function isMintSafe(DataTypes.Order memory order) public view returns (string memory) {\n        DataTypes.Metadata memory metaData = _buildMetaData(order);\n\n        _updateMetadataWithPriceSafety(metaData);\n        _updateMetaDataWithEpsilonStatus(metaData);\n\n        if (!metaData.allVaultsUsingLargeEnoughPrices) {\n            return Errors.TOKEN_PRICES_TOO_SMALL;\n        }\n\n        bool epsilonSafe = metaData.allVaultsWithinEpsilon ||\n            _safeToExecuteOutsideEpsilon(metaData);\n\n        if (_isStablecoinSafe(metaData) && epsilonSafe) {\n            return \"\";\n        }\n\n        return Errors.NOT_SAFE_TO_MINT;\n    }\n\n    /// @inheritdoc ISafetyCheck\n    function isRedeemSafe(DataTypes.Order memory order) public view returns (string memory) {\n        if (!isRedeemFeasible(order)) {\n            return Errors.TRYING_TO_REDEEM_MORE_THAN_VAULT_CONTAINS;\n        }\n\n        DataTypes.Metadata memory metaData = _buildMetaData(order);\n\n        _updateMetadataWithPriceSafety(metaData);\n        _updateMetaDataWithEpsilonStatus(metaData);\n\n        if (!metaData.allVaultsUsingLargeEnoughPrices) {\n            return Errors.TOKEN_PRICES_TOO_SMALL;\n        }\n\n        if (metaData.allVaultsWithinEpsilon || _safeToExecuteOutsideEpsilon(metaData)) {\n            return \"\";\n        }\n\n        return Errors.NOT_SAFE_TO_REDEEM;\n    }\n\n    /// @inheritdoc ISafetyCheck\n    function checkAndPersistMint(DataTypes.Order memory order) external view {\n        string memory err = isMintSafe(order);\n        require(bytes(err).length == 0, err);\n    }\n\n    /// @inheritdoc ISafetyCheck\n    function checkAndPersistRedeem(DataTypes.Order memory order) external view {\n        string memory err = isRedeemSafe(order);\n        require(bytes(err).length == 0, err);\n    }\n}\n","sourcePath":"contracts/safety/ReserveSafetyManager.sol","type":"contract","deployment":{"address":"0x8f38321416d587Ec4F3A4b37b1CcBB80013a3FAb","chainid":"1","blockHeight":18387907}}