{"abi":[{"inputs":[{"internalType":"address","name":"_governor","type":"address"},{"internalType":"address","name":"_usdOracle","type":"address"},{"internalType":"address","name":"_relativeOracle","type":"address"},{"internalType":"address","name":"_rateManager","type":"address"},{"internalType":"address","name":"_wethAddress","type":"address"}],"stateMutability":"nonpayable","type":"constructor","name":"constructor"},{"anonymous":false,"inputs":[{"indexed":false,"internalType":"address","name":"_addressToAdd","type":"address"}],"name":"AssetForRelativePriceCheckAdded","type":"event"},{"anonymous":false,"inputs":[{"indexed":false,"internalType":"address","name":"_addressToRemove","type":"address"}],"name":"AssetForRelativePriceCheckRemoved","type":"event"},{"anonymous":false,"inputs":[{"indexed":false,"internalType":"address","name":"assetToAdd","type":"address"}],"name":"AssetsWithIgnorableRelativePriceCheckAdded","type":"event"},{"anonymous":false,"inputs":[{"indexed":false,"internalType":"address","name":"assetToRemove","type":"address"}],"name":"AssetsWithIgnorableRelativePriceCheckRemoved","type":"event"},{"anonymous":false,"inputs":[{"indexed":false,"internalType":"address","name":"newGovernor","type":"address"}],"name":"GovernorChangeRequested","type":"event"},{"anonymous":false,"inputs":[{"indexed":false,"internalType":"address","name":"oldGovernor","type":"address"},{"indexed":false,"internalType":"address","name":"newGovernor","type":"address"}],"name":"GovernorChanged","type":"event"},{"anonymous":false,"inputs":[{"indexed":false,"internalType":"address","name":"_addressToAdd","type":"address"}],"name":"PriceLevelTWAPQuoteAssetAdded","type":"event"},{"anonymous":false,"inputs":[{"indexed":false,"internalType":"address","name":"_addressToRemove","type":"address"}],"name":"PriceLevelTWAPQuoteAssetRemoved","type":"event"},{"anonymous":false,"inputs":[{"indexed":true,"internalType":"address","name":"rateManager","type":"address"}],"name":"RateManagerUpdated","type":"event"},{"anonymous":false,"inputs":[{"indexed":true,"internalType":"address","name":"oracle","type":"address"}],"name":"RelativeOracleUpdated","type":"event"},{"anonymous":false,"inputs":[{"indexed":false,"internalType":"address","name":"_addressToAdd","type":"address"}],"name":"TrustedSignerOracleAdded","type":"event"},{"anonymous":false,"inputs":[{"indexed":false,"internalType":"address","name":"_addressToRemove","type":"address"}],"name":"TrustedSignerOracleRemoved","type":"event"},{"anonymous":false,"inputs":[{"indexed":true,"internalType":"address","name":"oracle","type":"address"}],"name":"USDOracleUpdated","type":"event"},{"inputs":[],"name":"INITIAL_MAX_PCT_WETH_USD_DEVIATION","outputs":[{"internalType":"uint256","name":"","type":"uint256"}],"stateMutability":"view","type":"function"},{"inputs":[],"name":"INITIAL_RELATIVE_EPSILON","outputs":[{"internalType":"uint256","name":"","type":"uint256"}],"stateMutability":"view","type":"function"},{"inputs":[],"name":"MAX_RELATIVE_EPSILON","outputs":[{"internalType":"uint256","name":"","type":"uint256"}],"stateMutability":"view","type":"function"},{"inputs":[],"name":"acceptGovernance","outputs":[],"stateMutability":"nonpayable","type":"function"},{"inputs":[{"internalType":"address","name":"assetToAdd","type":"address"}],"name":"addAssetForRelativePriceCheck","outputs":[],"stateMutability":"nonpayable","type":"function"},{"inputs":[{"internalType":"address","name":"assetToAdd","type":"address"}],"name":"addAssetsWithIgnorableRelativePriceCheck","outputs":[],"stateMutability":"nonpayable","type":"function"},{"inputs":[{"internalType":"address","name":"oracleToAdd","type":"address"}],"name":"addETHPriceOracle","outputs":[],"stateMutability":"nonpayable","type":"function"},{"inputs":[{"internalType":"address","name":"_quoteAssetToAdd","type":"address"}],"name":"addQuoteAssetsForPriceLevelTwap","outputs":[],"stateMutability":"nonpayable","type":"function"},{"inputs":[{"internalType":"address","name":"newGovernor","type":"address"}],"name":"changeGovernor","outputs":[],"stateMutability":"nonpayable","type":"function"},{"inputs":[],"name":"getETHPrices","outputs":[{"internalType":"uint256[]","name":"ethPrices","type":"uint256[]"}],"stateMutability":"view","type":"function"},{"inputs":[{"internalType":"address","name":"tokenAddress","type":"address"}],"name":"getPriceUSD","outputs":[{"internalType":"uint256","name":"","type":"uint256"}],"stateMutability":"view","type":"function"},{"inputs":[{"internalType":"address[]","name":"tokenAddresses","type":"address[]"}],"name":"getPricesUSD","outputs":[{"internalType":"uint256[]","name":"","type":"uint256[]"}],"stateMutability":"view","type":"function"},{"inputs":[{"internalType":"address[]","name":"tokenAddresses","type":"address[]"}],"name":"getPricesUSDWithMetadata","outputs":[{"internalType":"uint256[]","name":"","type":"uint256[]"},{"internalType":"uint256","name":"","type":"uint256"},{"internalType":"uint256[]","name":"","type":"uint256[]"},{"internalType":"uint256[]","name":"","type":"uint256[]"}],"stateMutability":"view","type":"function"},{"inputs":[{"internalType":"uint256[]","name":"signedPrices","type":"uint256[]"},{"internalType":"uint256[]","name":"twapPrices","type":"uint256[]"}],"name":"getRobustWETHPrice","outputs":[{"internalType":"uint256","name":"","type":"uint256"}],"stateMutability":"view","type":"function"},{"inputs":[],"name":"governor","outputs":[{"internalType":"address","name":"","type":"address"}],"stateMutability":"view","type":"function"},{"inputs":[],"name":"listAssetForRelativePriceCheck","outputs":[{"internalType":"address[]","name":"","type":"address[]"}],"stateMutability":"view","type":"function"},{"inputs":[],"name":"listAssetsWithIgnorableRelativePriceCheck","outputs":[{"internalType":"address[]","name":"","type":"address[]"}],"stateMutability":"view","type":"function"},{"inputs":[],"name":"listETHPriceOracles","outputs":[{"internalType":"address[]","name":"","type":"address[]"}],"stateMutability":"view","type":"function"},{"inputs":[],"name":"listQuoteAssetsForPriceLevelTwap","outputs":[{"internalType":"address[]","name":"","type":"address[]"}],"stateMutability":"view","type":"function"},{"inputs":[],"name":"maxPctWethUsdDeviation","outputs":[{"internalType":"uint256","name":"","type":"uint256"}],"stateMutability":"view","type":"function"},{"inputs":[],"name":"pendingGovernor","outputs":[{"internalType":"address","name":"","type":"address"}],"stateMutability":"view","type":"function"},{"inputs":[],"name":"rateManager","outputs":[{"internalType":"contract IRateManager","name":"","type":"address"}],"stateMutability":"view","type":"function"},{"inputs":[],"name":"relativeEpsilon","outputs":[{"internalType":"uint256","name":"","type":"uint256"}],"stateMutability":"view","type":"function"},{"inputs":[],"name":"relativeOracle","outputs":[{"internalType":"contract IRelativePriceOracle","name":"","type":"address"}],"stateMutability":"view","type":"function"},{"inputs":[{"internalType":"address","name":"assetToRemove","type":"address"}],"name":"removeAssetForRelativePriceCheck","outputs":[],"stateMutability":"nonpayable","type":"function"},{"inputs":[{"internalType":"address","name":"assetToRemove","type":"address"}],"name":"removeAssetsWithIgnorableRelativePriceCheck","outputs":[],"stateMutability":"nonpayable","type":"function"},{"inputs":[{"internalType":"address","name":"oracleToRemove","type":"address"}],"name":"removeETHPriceOracle","outputs":[],"stateMutability":"nonpayable","type":"function"},{"inputs":[{"internalType":"address","name":"_quoteAssetToRemove","type":"address"}],"name":"removeQuoteAssetsForPriceLevelTwap","outputs":[],"stateMutability":"nonpayable","type":"function"},{"inputs":[{"internalType":"uint256","name":"_maxPctWethUsdDeviation","type":"uint256"}],"name":"setMaxPctWethUsdDeviation","outputs":[],"stateMutability":"nonpayable","type":"function"},{"inputs":[{"internalType":"address","name":"_rateManager","type":"address"}],"name":"setRateManager","outputs":[],"stateMutability":"nonpayable","type":"function"},{"inputs":[{"internalType":"uint256","name":"_relativeEpsilon","type":"uint256"}],"name":"setRelativeMaxEpsilon","outputs":[],"stateMutability":"nonpayable","type":"function"},{"inputs":[{"internalType":"address","name":"_relativeOracle","type":"address"}],"name":"setRelativeOracle","outputs":[],"stateMutability":"nonpayable","type":"function"},{"inputs":[{"internalType":"address","name":"_usdOracle","type":"address"}],"name":"setUSDOracle","outputs":[],"stateMutability":"nonpayable","type":"function"},{"inputs":[],"name":"usdOracle","outputs":[{"internalType":"contract IUSDPriceOracle","name":"","type":"address"}],"stateMutability":"view","type":"function"},{"inputs":[],"name":"wethAddress","outputs":[{"internalType":"address","name":"","type":"address"}],"stateMutability":"view","type":"function"}],"bytecode":"60a06040523480156200001157600080fd5b5060405162002b6138038062002b61833981016040819052620000349162000196565b600080546001600160a01b0319166001600160a01b038716908117825560408051928352602083019190915286917fde4b3f61490b74c0ed6237523974fe299126bbbf8a8a7482fd220104c59b0c84910160405180910390a150604080518082019091526002815261333160f01b60208201526001600160a01b038516620000da5760405162461bcd60e51b8152600401620000d1919062000206565b60405180910390fd5b50604080518082019091526002815261333160f01b60208201526001600160a01b0384166200011e5760405162461bcd60e51b8152600401620000d1919062000206565b50600280546001600160a01b03199081166001600160a01b03968716179091556003805482169486169490941790935566470de4df820000600681905590841660805260048054909316919093161790556005555062000256565b80516001600160a01b03811681146200019157600080fd5b919050565b600080600080600060a08688031215620001af57600080fd5b620001ba8662000179565b9450620001ca6020870162000179565b9350620001da6040870162000179565b9250620001ea6060870162000179565b9150620001fa6080870162000179565b90509295509295909350565b600060208083528351808285015260005b81811015620002355785810183015185820160400152820162000217565b506000604082860101526040601f19601f8301168501019250505092915050565b6080516128cc6200029560003960008181610356015281816109f201528181610a940152818161137d015281816119830152611a1801526128cc6000f3fe608060405234801561001057600080fd5b50600436106102115760003560e01c80635fbdc7d411610125578063d8f4a0aa116100ad578063e4c0aaf41161007c578063e4c0aaf414610458578063e4dd02c31461046b578063e72a49d01461047e578063e7f9e3201461048d578063fcb0af8e146104a057600080fd5b8063d8f4a0aa14610421578063e0dcd3c314610434578063e18189601461043c578063e3056a341461044557600080fd5b8063a0b90f00116100f4578063a0b90f00146103df578063aeb00e04146103f2578063b55b3f1b1461025b578063c49db0cd146103fb578063c8a4271f1461040e57600080fd5b80635fbdc7d41461039e57806371c3cd88146103b1578063765aff1e146103c45780637cd8c1d0146103cc57600080fd5b8063317668ff116101a8578063442aae7911610177578063442aae791461032b57806347f21fb91461033e5780634f0e0ef3146103515780635708447d1461037857806357ae33891461038b57600080fd5b8063317668ff146102da5780633750815b146102ed5780633bb8c3bc146102f557806342f2316a1461031857600080fd5b80631a14aa8e116101e45780631a14aa8e1461028a578063238efcbc1461029f5780632af31283146102a75780632e191ed7146102c757600080fd5b80630317ca7c146102165780630c340a241461022b5780630e428bf41461025b578063149bf6e214610277575b600080fd5b610229610224366004612292565b6104a8565b005b60005461023e906001600160a01b031681565b6040516001600160a01b0390911681526020015b60405180910390f35b61026966470de4df82000081565b604051908152602001610252565b610229610285366004612292565b610543565b6102926105ce565b60405161025291906122af565b6102296105df565b6102ba6102b5366004612367565b610688565b6040516102529190612441565b6102696102d53660046124ba565b6106a0565b6102296102e836600461251e565b6107c4565b61029261080f565b610308610303366004612367565b61081b565b6040516102529493929190612537565b610229610326366004612292565b610bc4565b60035461023e906001600160a01b031681565b61022961034c366004612292565b610c4f565b61023e7f000000000000000000000000000000000000000000000000000000000000000081565b610269610386366004612292565b610cda565b61022961039936600461251e565b610d64565b6102296103ac366004612292565b610e29565b60045461023e906001600160a01b031681565b610292610eb4565b6102296103da366004612292565b610ec0565b6102296103ed366004612292565b610f4b565b61026960055481565b610229610409366004612292565b610fdb565b60025461023e906001600160a01b031681565b61022961042f366004612292565b61106b565b6102926110f6565b61026960065481565b60015461023e906001600160a01b031681565b610229610466366004612292565b611102565b610229610479366004612292565b6111d7565b61026967016345785d8a000081565b61022961049b366004612292565b611262565b6102ba6112f2565b600054604080518082019091526002815261033360f41b6020820152906001600160a01b031633146104f65760405162461bcd60e51b81526004016104ed9190612576565b60405180910390fd5b50610502600b82611508565b506040516001600160a01b03821681527f150f6605e7fc997b9ef5bed4e904eef6e3f887a080d2f7010632435b47f67adc906020015b60405180910390a150565b600054604080518082019091526002815261033360f41b6020820152906001600160a01b031633146105885760405162461bcd60e51b81526004016104ed9190612576565b50610594600d82611508565b506040516001600160a01b03821681527f42787e5656dab1871f396a5a502afd943ed547a1f540f873f0fc302046dfb4e190602001610538565b60606105da6007611524565b905090565b600154604080518082019091526002815261033360f41b6020820152906001600160a01b031633146106245760405162461bcd60e51b81526004016104ed9190612576565b5060008054600180546001600160a01b03198084166001600160a01b03808416919091179095551690556040805192909116808352336020840152917fde4b3f61490b74c0ed6237523974fe299126bbbf8a8a7482fd220104c59b0c849101610538565b606060006106958361081b565b509195945050505050565b60008082516000036106bd576106b584611531565b9150506107be565b6106c6836115de565b90506000845160016106d891906125da565b67ffffffffffffffff8111156106f0576106f06122fc565b604051908082528060200260200182016040528015610719578160200160208202803683370190505b50905081816001835161072c91906125ed565b8151811061073c5761073c612600565b60200260200101818152505060005b6001825161075991906125ed565b8110156107a95785818151811061077257610772612600565b602002602001015182828151811061078c5761078c612600565b6020908102919091010152806107a181612616565b91505061074b565b506107b381611531565b925050506107be565b505b92915050565b600054604080518082019091526002815261033360f41b6020820152906001600160a01b031633146108095760405162461bcd60e51b81526004016104ed9190612576565b50600555565b60606105da600d611524565b60606000606080600085511160405180604001604052806002815260200161333160f01b815250906108605760405162461bcd60e51b81526004016104ed9190612576565b506000855167ffffffffffffffff81111561087d5761087d6122fc565b6040519080825280602002602001820160405280156108a6578160200160208202803683370190505b506004805460405163ec63734b60e01b815292935060009283926001600160a01b039092169163ec63734b916108de918c91016122af565b600060405180830381865afa1580156108fb573d6000803e3d6000fd5b505050506040513d6000823e601f3d908101601f19168201604052610923919081019061268a565b90925090506000805b8351811015610a715760025484516001600160a01b0390911690635708447d9086908490811061095e5761095e612600565b60200260200101516040518263ffffffff1660e01b815260040161099191906001600160a01b0391909116815260200190565b602060405180830381865afa1580156109ae573d6000803e3d6000fd5b505050506040513d601f19601f820116820180604052508101906109d29190612745565b8582815181106109e4576109e4612600565b6020026020010181815250507f00000000000000000000000000000000000000000000000000000000000000006001600160a01b0316848281518110610a2c57610a2c612600565b60200260200101516001600160a01b031603610a5f57848181518110610a5457610a54612600565b602002602001015191505b80610a6981612616565b91505061092c565b5080600003610b0b57600254604051635708447d60e01b81526001600160a01b037f00000000000000000000000000000000000000000000000000000000000000008116600483015290911690635708447d90602401602060405180830381865afa158015610ae4573d6000803e3d6000fd5b505050506040513d601f19601f82011682018060405250810190610b089190612745565b90505b6000610b178486611778565b90506000610b236112f2565b9050610b30838284611c3b565b60005b8651811015610bb057610b81858281518110610b5157610b51612600565b6020026020010151888381518110610b6b57610b6b612600565b6020026020010151611ca890919063ffffffff16565b878281518110610b9357610b93612600565b602090810291909101015280610ba881612616565b915050610b33565b50949a919950939750929550919350505050565b600054604080518082019091526002815261033360f41b6020820152906001600160a01b03163314610c095760405162461bcd60e51b81526004016104ed9190612576565b50610c15600782611508565b506040516001600160a01b03821681527fb7f10b8974f181778e2544b4188359b499da116029e96c6a05bed5cdecee106490602001610538565b600054604080518082019091526002815261033360f41b6020820152906001600160a01b03163314610c945760405162461bcd60e51b81526004016104ed9190612576565b50610ca0600782611cd1565b506040516001600160a01b03821681527f8696120fb7656955ec406c2959998de0aa9798518606d5afb5f36789f522dfea90602001610538565b604080516001808252818301909252600091829190602080830190803683370190505090508281600081518110610d1357610d13612600565b60200260200101906001600160a01b031690816001600160a01b0316815250506000610d3e82610688565b905080600081518110610d5357610d53612600565b602002602001015192505050919050565b600054604080518082019091526002815261033360f41b6020820152906001600160a01b03163314610da95760405162461bcd60e51b81526004016104ed9190612576565b50604080518082019091526002815261333160f01b602082015281610de15760405162461bcd60e51b81526004016104ed9190612576565b50604080518082019091526002815261333160f01b602082015267016345785d8a00008210610e235760405162461bcd60e51b81526004016104ed9190612576565b50600655565b600054604080518082019091526002815261033360f41b6020820152906001600160a01b03163314610e6e5760405162461bcd60e51b81526004016104ed9190612576565b50610e7a600d82611cd1565b506040516001600160a01b03821681527f97f16989c0ca3c61d0f35531ff27abeb36547d171fa32e2d3a9311ee15a09d2d90602001610538565b60606105da600b611524565b600054604080518082019091526002815261033360f41b6020820152906001600160a01b03163314610f055760405162461bcd60e51b81526004016104ed9190612576565b50610f11600b82611cd1565b506040516001600160a01b03821681527fa67cac4de4567bfe36d7fa182b8455fd3e7d1b80c45191dd2b6dd5310a35306690602001610538565b600054604080518082019091526002815261033360f41b6020820152906001600160a01b03163314610f905760405162461bcd60e51b81526004016104ed9190612576565b50600280546001600160a01b0319166001600160a01b0383169081179091556040517f8bdf8e573e1e6b8aba457bd2a4fed210b28b0ed18344a7c4bb4bd1e87f6e1fb790600090a250565b600054604080518082019091526002815261033360f41b6020820152906001600160a01b031633146110205760405162461bcd60e51b81526004016104ed9190612576565b50600480546001600160a01b0319166001600160a01b0383169081179091556040517fee3204477c0c5b582290b191a71642a43d0b767284b32c6cecf61b00bd32fa1c90600090a250565b600054604080518082019091526002815261033360f41b6020820152906001600160a01b031633146110b05760405162461bcd60e51b81526004016104ed9190612576565b506110bc600982611cd1565b506040516001600160a01b03821681527f612ac93ad02ac7669d13be8835bb33d5c6d42bb4c46f0cdb717681ebd2b6455790602001610538565b60606105da6009611524565b600054604080518082019091526002815261033360f41b6020820152906001600160a01b031633146111475760405162461bcd60e51b81526004016104ed9190612576565b50604080518082019091526002815261333160f01b60208201526001600160a01b0382166111885760405162461bcd60e51b81526004016104ed9190612576565b50600180546001600160a01b0319166001600160a01b0383169081179091556040519081527f67235ba2e63c748a35b95c4f92a3bbc2a1389938170a5ce6c9add5d0b03a314a90602001610538565b600054604080518082019091526002815261033360f41b6020820152906001600160a01b0316331461121c5760405162461bcd60e51b81526004016104ed9190612576565b50611228600982611508565b506040516001600160a01b03821681527ffab625e04bc6eeef38aaf5c2e48b1f1953cf5183297f4115f0da9e906d4bf3ac90602001610538565b600054604080518082019091526002815261033360f41b6020820152906001600160a01b031633146112a75760405162461bcd60e51b81526004016104ed9190612576565b50600380546001600160a01b0319166001600160a01b0383169081179091556040517f99e4ac532391c2555b226b3d66f3d643e9256788b0c246834c1aaebfad90bd0190600090a250565b606060006113006007611ce6565b67ffffffffffffffff811115611318576113186122fc565b604051908082528060200260200182016040528015611341578160200160208202803683370190505b5090506000805b6113526007611ce6565b811015611430576000611366600783611cf0565b604051635708447d60e01b81526001600160a01b037f00000000000000000000000000000000000000000000000000000000000000008116600483015291925090821690635708447d90602401602060405180830381865afa9250505080156113ec575060408051601f3d908101601f191682019092526113e991810190612745565b60015b1561141d578085856113fd81612616565b96508151811061140f5761140f612600565b602002602001018181525050505b508061142881612616565b915050611348565b50604080518082019091526002815261343960f01b6020820152816114685760405162461bcd60e51b81526004016104ed9190612576565b508067ffffffffffffffff811115611482576114826122fc565b6040519080825280602002602001820160405280156114ab578160200160208202803683370190505b50925060005b81811015611502578281815181106114cb576114cb612600565b60200260200101518482815181106114e5576114e5612600565b6020908102919091010152806114fa81612616565b9150506114b1565b50505090565b600061151d836001600160a01b038416611cfc565b9392505050565b6060600061151d83611d4b565b600061153c82611da7565b506002825161154b9190612774565b1561157c57816002835161155f9190612788565b8151811061156f5761156f612600565b60200260200101516107be565b6107be826001600285516115909190612788565b61159a91906125ed565b815181106115aa576115aa612600565b602002602001015183600285516115c19190612788565b815181106115d1576115d1612600565b6020026020010151611dc6565b6000815160010361160b57816000815181106115fc576115fc612600565b60200260200101519050919050565b6000808360018151811061162157611621612600565b60200260200101518460008151811061163c5761163c612600565b602002602001015110611684578360018151811061165c5761165c612600565b60200260200101518460008151811061167757611677612600565b60200260200101516116bb565b8360008151811061169757611697612600565b6020026020010151846001815181106116b2576116b2612600565b60200260200101515b9150915083516002036116cf575092915050565b60025b845181101561177057828582815181106116ee576116ee612600565b602002602001015110156117205782915084818151811061171157611711612600565b6020026020010151925061175e565b8185828151811061173357611733612600565b6020026020010151101561175e5784818151811061175357611753612600565b602002602001015191505b8061176881612616565b9150506116d2565b509392505050565b60606000835167ffffffffffffffff811115611796576117966122fc565b6040519080825280602002602001820160405280156117bf578160200160208202803683370190505b5090506000805b8551811015611b95576000805b6117dd600b611ce6565b811015611b125760006117f1600b83611cf0565b9050806001600160a01b031689858151811061180f5761180f612600565b60200260200101516001600160a01b031614806118ce575060035489516001600160a01b0390911690639446994a908b908790811061185057611850612600565b6020026020010151836040518363ffffffff1660e01b815260040161188b9291906001600160a01b0392831681529116602082015260400190565b602060405180830381865afa1580156118a8573d6000803e3d6000fd5b505050506040513d601f19601f820116820180604052508101906118cc919061279c565b155b156118d95750611b00565b60035489516000916001600160a01b031690639b56e6a7908c908890811061190357611903612600565b6020026020010151846040518363ffffffff1660e01b815260040161193e9291906001600160a01b0392831681529116602082015260400190565b602060405180830381865afa15801561195b573d6000803e3d6000fd5b505050506040513d601f19601f8201168201806040525081019061197f9190612745565b90507f00000000000000000000000000000000000000000000000000000000000000006001600160a01b03168a86815181106119bd576119bd612600565b60200260200101516001600160a01b03161480156119e157506119e1600983611de1565b15611a1657808787815181106119f9576119f9612600565b602090810291909101015285611a0e81612616565b965050611ac1565b7f00000000000000000000000000000000000000000000000000000000000000006001600160a01b0316826001600160a01b0316148015611a7f5750611a7f8a8681518110611a6757611a67612600565b60200260200101516009611de190919063ffffffff16565b15611ac157611a96670de0b6b3a764000082611e03565b878781518110611aa857611aa8612600565b602090810291909101015285611abd81612616565b9650505b6000611ace838c8c611e6e565b9050611af48a8781518110611ae557611ae5612600565b60200260200101518284611f50565b60019450505050611b12565b80611b0a81612616565b9150506117d3565b508080611b475750611b47878381518110611b2f57611b2f612600565b6020026020010151600d611de190919063ffffffff16565b60405180604001604052806002815260200161034360f41b81525090611b805760405162461bcd60e51b81526004016104ed9190612576565b50508080611b8d90612616565b9150506117c6565b5060008167ffffffffffffffff811115611bb157611bb16122fc565b604051908082528060200260200182016040528015611bda578160200160208202803683370190505b50905060005b82811015611c3157838181518110611bfa57611bfa612600565b6020026020010151828281518110611c1457611c14612600565b602090810291909101015280611c2981612616565b915050611be0565b5095945050505050565b6000611c4783836106a0565b90506000611c5f82611c598782611fc2565b90611e03565b905060055481111560405180604001604052806002815260200161343560f01b81525090611ca05760405162461bcd60e51b81526004016104ed9190612576565b505050505050565b600080611cb583856127be565b9050611cc9670de0b6b3a764000082612788565b949350505050565b600061151d836001600160a01b038416611fe5565b60006107be825490565b600061151d83836120d8565b6000818152600183016020526040812054611d43575081546001818101845560008481526020808220909301849055845484825282860190935260409020919091556107be565b5060006107be565b606081600001805480602002602001604051908101604052809291908181526020018280548015611d9b57602002820191906000526020600020905b815481526020019060010190808311611d87575b50505050509050919050565b6060611dc282600060018551611dbd91906125ed565b612102565b5090565b6000611dd56002848418612788565b61151d908484166125da565b6001600160a01b0381166000908152600183016020526040812054151561151d565b604080518082019091526002815261323560f01b602082015260009082611e3d5760405162461bcd60e51b81526004016104ed9190612576565b5082600003611e4e575060006107be565b6000611e62670de0b6b3a7640000856127be565b90506106b58382612788565b6000805b8351811015611ee157846001600160a01b0316848281518110611e9757611e97612600565b60200260200101516001600160a01b031603611ecf57828181518110611ebf57611ebf612600565b602002602001015191505061151d565b80611ed981612616565b915050611e72565b50600254604051635708447d60e01b81526001600160a01b03868116600483015290911690635708447d90602401602060405180830381865afa158015611f2c573d6000803e3d6000fd5b505050506040513d601f19601f82011682018060405250810190611cc99190612745565b6000611f5c8484611e03565b90506000611f6a8383611fc2565b90506000611f788285611e03565b905060065481111560405180604001604052806002815260200161343160f01b81525090611fb95760405162461bcd60e51b81526004016104ed9190612576565b50505050505050565b600081831015611fdb57611fd683836125ed565b61151d565b61151d82846125ed565b600081815260018301602052604081205480156120ce5760006120096001836125ed565b855490915060009061201d906001906125ed565b905081811461208257600086600001828154811061203d5761203d612600565b906000526020600020015490508087600001848154811061206057612060612600565b6000918252602080832090910192909255918252600188019052604090208390555b8554869080612093576120936127d5565b6001900381819060005260206000200160009055905585600101600086815260200190815260200160002060009055600193505050506107be565b60009150506107be565b60008260000182815481106120ef576120ef612600565b9060005260206000200154905092915050565b8181808203612112575050505050565b600085600261212187876127eb565b61212b919061280b565b6121359087612839565b8151811061214557612145612600565b602002602001015190505b818313612254575b8086848151811061216b5761216b612600565b6020026020010151101561218b578261218381612861565b935050612158565b85828151811061219d5761219d612600565b60200260200101518110156121be57816121b681612879565b92505061218b565b81831361224f578582815181106121d7576121d7612600565b60200260200101518684815181106121f1576121f1612600565b602002602001015187858151811061220b5761220b612600565b6020026020010188858151811061222457612224612600565b6020908102919091010191909152528261223d81612861565b935050818061224b90612879565b9250505b612150565b8185121561226757612267868684612102565b83831215611ca057611ca0868486612102565b6001600160a01b038116811461228f57600080fd5b50565b6000602082840312156122a457600080fd5b813561151d8161227a565b6020808252825182820181905260009190848201906040850190845b818110156122f05783516001600160a01b0316835292840192918401916001016122cb565b50909695505050505050565b634e487b7160e01b600052604160045260246000fd5b604051601f8201601f1916810167ffffffffffffffff8111828210171561233b5761233b6122fc565b604052919050565b600067ffffffffffffffff82111561235d5761235d6122fc565b5060051b60200190565b6000602080838503121561237a57600080fd5b823567ffffffffffffffff81111561239157600080fd5b8301601f810185136123a257600080fd5b80356123b56123b082612343565b612312565b81815260059190911b820183019083810190878311156123d457600080fd5b928401925b828410156123fb5783356123ec8161227a565b825292840192908401906123d9565b979650505050505050565b600081518084526020808501945080840160005b838110156124365781518752958201959082019060010161241a565b509495945050505050565b60208152600061151d6020830184612406565b600082601f83011261246557600080fd5b813560206124756123b083612343565b82815260059290921b8401810191818101908684111561249457600080fd5b8286015b848110156124af5780358352918301918301612498565b509695505050505050565b600080604083850312156124cd57600080fd5b823567ffffffffffffffff808211156124e557600080fd5b6124f186838701612454565b9350602085013591508082111561250757600080fd5b5061251485828601612454565b9150509250929050565b60006020828403121561253057600080fd5b5035919050565b60808152600061254a6080830187612406565b85602084015282810360408401526125628186612406565b905082810360608401526123fb8185612406565b600060208083528351808285015260005b818110156125a357858101830151858201604001528201612587565b506000604082860101526040601f19601f8301168501019250505092915050565b634e487b7160e01b600052601160045260246000fd5b808201808211156107be576107be6125c4565b818103818111156107be576107be6125c4565b634e487b7160e01b600052603260045260246000fd5b600060018201612628576126286125c4565b5060010190565b600082601f83011261264057600080fd5b815160206126506123b083612343565b82815260059290921b8401810191818101908684111561266f57600080fd5b8286015b848110156124af5780518352918301918301612673565b6000806040838503121561269d57600080fd5b825167ffffffffffffffff808211156126b557600080fd5b818501915085601f8301126126c957600080fd5b815160206126d96123b083612343565b82815260059290921b840181019181810190898411156126f857600080fd5b948201945b8386101561271f5785516127108161227a565b825294820194908201906126fd565b9188015191965090935050508082111561273857600080fd5b506125148582860161262f565b60006020828403121561275757600080fd5b5051919050565b634e487b7160e01b600052601260045260246000fd5b6000826127835761278361275e565b500690565b6000826127975761279761275e565b500490565b6000602082840312156127ae57600080fd5b8151801515811461151d57600080fd5b80820281158282048414176107be576107be6125c4565b634e487b7160e01b600052603160045260246000fd5b81810360008312801583831316838312821617156107bc576107bc6125c4565b60008261281a5761281a61275e565b600160ff1b821460001984141615612834576128346125c4565b500590565b8082018281126000831280158216821582161715612859576128596125c4565b505092915050565b60006001600160ff1b018201612628576126286125c4565b6000600160ff1b820161288e5761288e6125c4565b50600019019056fea2646970667358221220125768c4f5e95cc32a1b3d5ef7afbc706a96b3927b55c4b630712f38607604ae64736f6c63430008110033","bytecodeSha1":"53904c26d3a1674de27e90b64d2e4ec75e5f0681","compiler":{"evm_version":"london","optimizer":{"enabled":true,"runs":200},"version":"0.8.17+commit.8df45f5f"},"contractName":"CheckedPriceOracle","language":"Solidity","natspec":{"kind":"dev","methods":{"acceptGovernance()":{"notice":"Called by the pending governor to approve the change"},"changeGovernor(address)":{"notice":"Changes the governor can only be called by the current governor"},"constructor":{"notice":"_usdOracle is for Chainlink"},"getPriceUSD(address)":{"notice":"Quotes the USD price of `tokenAddress` The quoted price is always scaled with 18 decimals regardless of the source used for the oracle.","params":{"tokenAddress":"the asset of which the price is to be quoted"},"returns":{"_0":"the USD price of the asset"}},"getPricesUSD(address[])":{"notice":"Quotes the USD price of `baseAssets` The quoted prices is always scaled with 18 decimals regardless of the source used for the oracle.","params":{"baseAssets":"the assets of which the price is to be quoted"},"returns":{"_0":"the USD prices of the asset"}},"getRobustWETHPrice(uint256[],uint256[])":{"notice":"this function provides an estimate of the true WETH price. 1. Find the minimum TWAP price (or second minumum if >2 TWAP prices) from a given array. 2. Add this to an array of signed prices 3. Compute the median of this array","params":{"signedPrices":"an array of prices from trusted providers (e.g. Chainlink, Coinbase, OKEx ETH/USD price)","twapPrices":"an array of Time Weighted Moving Average ETH/stablecoin prices"}},"governor()":{"notice":"Returns the current governor"},"pendingGovernor()":{"notice":"Returns the pending governor"}},"stateVariables":{"assetsForRelativePriceCheck":{"details":"This list is used to check if the relative price of the tokens are consistent"},"assetsWithIgnorableRelativePriceCheck":{"details":"Assets in this list are not required to have a relative price"}},"version":1},"opcodes":"PUSH1 0x80 PUSH1 0x40 MSTORE CALLVALUE DUP1 ISZERO PUSH2 0x10 JUMPI PUSH1 0x0 DUP1 REVERT JUMPDEST POP PUSH1 0x4 CALLDATASIZE LT PUSH2 0x211 JUMPI PUSH1 0x0 CALLDATALOAD PUSH1 0xE0 SHR DUP1 PUSH4 0x5FBDC7D4 GT PUSH2 0x125 JUMPI DUP1 PUSH4 0xD8F4A0AA GT PUSH2 0xAD JUMPI DUP1 PUSH4 0xE4C0AAF4 GT PUSH2 0x7C JUMPI DUP1 PUSH4 0xE4C0AAF4 EQ PUSH2 0x458 JUMPI DUP1 PUSH4 0xE4DD02C3 EQ PUSH2 0x46B JUMPI DUP1 PUSH4 0xE72A49D0 EQ PUSH2 0x47E JUMPI DUP1 PUSH4 0xE7F9E320 EQ PUSH2 0x48D JUMPI DUP1 PUSH4 0xFCB0AF8E EQ PUSH2 0x4A0 JUMPI PUSH1 0x0 DUP1 REVERT JUMPDEST DUP1 PUSH4 0xD8F4A0AA EQ PUSH2 0x421 JUMPI DUP1 PUSH4 0xE0DCD3C3 EQ PUSH2 0x434 JUMPI DUP1 PUSH4 0xE1818960 EQ PUSH2 0x43C JUMPI DUP1 PUSH4 0xE3056A34 EQ PUSH2 0x445 JUMPI PUSH1 0x0 DUP1 REVERT JUMPDEST DUP1 PUSH4 0xA0B90F00 GT PUSH2 0xF4 JUMPI DUP1 PUSH4 0xA0B90F00 EQ PUSH2 0x3DF JUMPI DUP1 PUSH4 0xAEB00E04 EQ PUSH2 0x3F2 JUMPI DUP1 PUSH4 0xB55B3F1B EQ PUSH2 0x25B JUMPI DUP1 PUSH4 0xC49DB0CD EQ PUSH2 0x3FB JUMPI DUP1 PUSH4 0xC8A4271F EQ PUSH2 0x40E JUMPI PUSH1 0x0 DUP1 REVERT JUMPDEST DUP1 PUSH4 0x5FBDC7D4 EQ PUSH2 0x39E JUMPI DUP1 PUSH4 0x71C3CD88 EQ PUSH2 0x3B1 JUMPI DUP1 PUSH4 0x765AFF1E EQ PUSH2 0x3C4 JUMPI DUP1 PUSH4 0x7CD8C1D0 EQ PUSH2 0x3CC JUMPI PUSH1 0x0 DUP1 REVERT JUMPDEST DUP1 PUSH4 0x317668FF GT PUSH2 0x1A8 JUMPI DUP1 PUSH4 0x442AAE79 GT PUSH2 0x177 JUMPI DUP1 PUSH4 0x442AAE79 EQ PUSH2 0x32B JUMPI DUP1 PUSH4 0x47F21FB9 EQ PUSH2 0x33E JUMPI DUP1 PUSH4 0x4F0E0EF3 EQ PUSH2 0x351 JUMPI DUP1 PUSH4 0x5708447D EQ PUSH2 0x378 JUMPI DUP1 PUSH4 0x57AE3389 EQ PUSH2 0x38B JUMPI PUSH1 0x0 DUP1 REVERT JUMPDEST DUP1 PUSH4 0x317668FF EQ PUSH2 0x2DA JUMPI DUP1 PUSH4 0x3750815B EQ PUSH2 0x2ED JUMPI DUP1 PUSH4 0x3BB8C3BC EQ PUSH2 0x2F5 JUMPI DUP1 PUSH4 0x42F2316A EQ PUSH2 0x318 JUMPI PUSH1 0x0 DUP1 REVERT JUMPDEST DUP1 PUSH4 0x1A14AA8E GT PUSH2 0x1E4 JUMPI DUP1 PUSH4 0x1A14AA8E EQ PUSH2 0x28A JUMPI DUP1 PUSH4 0x238EFCBC EQ PUSH2 0x29F JUMPI DUP1 PUSH4 0x2AF31283 EQ PUSH2 0x2A7 JUMPI DUP1 PUSH4 0x2E191ED7 EQ PUSH2 0x2C7 JUMPI PUSH1 0x0 DUP1 REVERT JUMPDEST DUP1 PUSH4 0x317CA7C EQ PUSH2 0x216 JUMPI DUP1 PUSH4 0xC340A24 EQ PUSH2 0x22B JUMPI DUP1 PUSH4 0xE428BF4 EQ PUSH2 0x25B JUMPI DUP1 PUSH4 0x149BF6E2 EQ PUSH2 0x277 JUMPI JUMPDEST PUSH1 0x0 DUP1 REVERT JUMPDEST PUSH2 0x229 PUSH2 0x224 CALLDATASIZE PUSH1 0x4 PUSH2 0x2292 JUMP JUMPDEST PUSH2 0x4A8 JUMP JUMPDEST STOP JUMPDEST PUSH1 0x0 SLOAD PUSH2 0x23E SWAP1 PUSH1 0x1 PUSH1 0x1 PUSH1 0xA0 SHL SUB AND DUP2 JUMP JUMPDEST PUSH1 0x40 MLOAD PUSH1 0x1 PUSH1 0x1 PUSH1 0xA0 SHL SUB SWAP1 SWAP2 AND DUP2 MSTORE PUSH1 0x20 ADD JUMPDEST PUSH1 0x40 MLOAD DUP1 SWAP2 SUB SWAP1 RETURN JUMPDEST PUSH2 0x269 PUSH7 0x470DE4DF820000 DUP2 JUMP JUMPDEST PUSH1 0x40 MLOAD SWAP1 DUP2 MSTORE PUSH1 0x20 ADD PUSH2 0x252 JUMP JUMPDEST PUSH2 0x229 PUSH2 0x285 CALLDATASIZE PUSH1 0x4 PUSH2 0x2292 JUMP JUMPDEST PUSH2 0x543 JUMP JUMPDEST PUSH2 0x292 PUSH2 0x5CE JUMP JUMPDEST PUSH1 0x40 MLOAD PUSH2 0x252 SWAP2 SWAP1 PUSH2 0x22AF JUMP JUMPDEST PUSH2 0x229 PUSH2 0x5DF JUMP JUMPDEST PUSH2 0x2BA PUSH2 0x2B5 CALLDATASIZE PUSH1 0x4 PUSH2 0x2367 JUMP JUMPDEST PUSH2 0x688 JUMP JUMPDEST PUSH1 0x40 MLOAD PUSH2 0x252 SWAP2 SWAP1 PUSH2 0x2441 JUMP JUMPDEST PUSH2 0x269 PUSH2 0x2D5 CALLDATASIZE PUSH1 0x4 PUSH2 0x24BA JUMP JUMPDEST PUSH2 0x6A0 JUMP JUMPDEST PUSH2 0x229 PUSH2 0x2E8 CALLDATASIZE PUSH1 0x4 PUSH2 0x251E JUMP JUMPDEST PUSH2 0x7C4 JUMP JUMPDEST PUSH2 0x292 PUSH2 0x80F JUMP JUMPDEST PUSH2 0x308 PUSH2 0x303 CALLDATASIZE PUSH1 0x4 PUSH2 0x2367 JUMP JUMPDEST PUSH2 0x81B JUMP JUMPDEST PUSH1 0x40 MLOAD PUSH2 0x252 SWAP5 SWAP4 SWAP3 SWAP2 SWAP1 PUSH2 0x2537 JUMP JUMPDEST PUSH2 0x229 PUSH2 0x326 CALLDATASIZE PUSH1 0x4 PUSH2 0x2292 JUMP JUMPDEST PUSH2 0xBC4 JUMP JUMPDEST PUSH1 0x3 SLOAD PUSH2 0x23E SWAP1 PUSH1 0x1 PUSH1 0x1 PUSH1 0xA0 SHL SUB AND DUP2 JUMP JUMPDEST PUSH2 0x229 PUSH2 0x34C CALLDATASIZE PUSH1 0x4 PUSH2 0x2292 JUMP JUMPDEST PUSH2 0xC4F JUMP JUMPDEST PUSH2 0x23E PUSH32 0x0 DUP2 JUMP JUMPDEST PUSH2 0x269 PUSH2 0x386 CALLDATASIZE PUSH1 0x4 PUSH2 0x2292 JUMP JUMPDEST PUSH2 0xCDA JUMP JUMPDEST PUSH2 0x229 PUSH2 0x399 CALLDATASIZE PUSH1 0x4 PUSH2 0x251E JUMP JUMPDEST PUSH2 0xD64 JUMP JUMPDEST PUSH2 0x229 PUSH2 0x3AC CALLDATASIZE PUSH1 0x4 PUSH2 0x2292 JUMP JUMPDEST PUSH2 0xE29 JUMP JUMPDEST PUSH1 0x4 SLOAD PUSH2 0x23E SWAP1 PUSH1 0x1 PUSH1 0x1 PUSH1 0xA0 SHL SUB AND DUP2 JUMP JUMPDEST PUSH2 0x292 PUSH2 0xEB4 JUMP JUMPDEST PUSH2 0x229 PUSH2 0x3DA CALLDATASIZE PUSH1 0x4 PUSH2 0x2292 JUMP JUMPDEST PUSH2 0xEC0 JUMP JUMPDEST PUSH2 0x229 PUSH2 0x3ED CALLDATASIZE PUSH1 0x4 PUSH2 0x2292 JUMP JUMPDEST PUSH2 0xF4B JUMP JUMPDEST PUSH2 0x269 PUSH1 0x5 SLOAD DUP2 JUMP JUMPDEST PUSH2 0x229 PUSH2 0x409 CALLDATASIZE PUSH1 0x4 PUSH2 0x2292 JUMP JUMPDEST PUSH2 0xFDB JUMP JUMPDEST PUSH1 0x2 SLOAD PUSH2 0x23E SWAP1 PUSH1 0x1 PUSH1 0x1 PUSH1 0xA0 SHL SUB AND DUP2 JUMP JUMPDEST PUSH2 0x229 PUSH2 0x42F CALLDATASIZE PUSH1 0x4 PUSH2 0x2292 JUMP JUMPDEST PUSH2 0x106B JUMP JUMPDEST PUSH2 0x292 PUSH2 0x10F6 JUMP JUMPDEST PUSH2 0x269 PUSH1 0x6 SLOAD DUP2 JUMP JUMPDEST PUSH1 0x1 SLOAD PUSH2 0x23E SWAP1 PUSH1 0x1 PUSH1 0x1 PUSH1 0xA0 SHL SUB AND DUP2 JUMP JUMPDEST PUSH2 0x229 PUSH2 0x466 CALLDATASIZE PUSH1 0x4 PUSH2 0x2292 JUMP JUMPDEST PUSH2 0x1102 JUMP JUMPDEST PUSH2 0x229 PUSH2 0x479 CALLDATASIZE PUSH1 0x4 PUSH2 0x2292 JUMP JUMPDEST PUSH2 0x11D7 JUMP JUMPDEST PUSH2 0x269 PUSH8 0x16345785D8A0000 DUP2 JUMP JUMPDEST PUSH2 0x229 PUSH2 0x49B CALLDATASIZE PUSH1 0x4 PUSH2 0x2292 JUMP JUMPDEST PUSH2 0x1262 JUMP JUMPDEST PUSH2 0x2BA PUSH2 0x12F2 JUMP JUMPDEST PUSH1 0x0 SLOAD PUSH1 0x40 DUP1 MLOAD DUP1 DUP3 ADD SWAP1 SWAP2 MSTORE PUSH1 0x2 DUP2 MSTORE PUSH2 0x333 PUSH1 0xF4 SHL PUSH1 0x20 DUP3 ADD MSTORE SWAP1 PUSH1 0x1 PUSH1 0x1 PUSH1 0xA0 SHL SUB AND CALLER EQ PUSH2 0x4F6 JUMPI PUSH1 0x40 MLOAD PUSH3 0x461BCD PUSH1 0xE5 SHL DUP2 MSTORE PUSH1 0x4 ADD PUSH2 0x4ED SWAP2 SWAP1 PUSH2 0x2576 JUMP JUMPDEST PUSH1 0x40 MLOAD DUP1 SWAP2 SUB SWAP1 REVERT JUMPDEST POP PUSH2 0x502 PUSH1 0xB DUP3 PUSH2 0x1508 JUMP JUMPDEST POP PUSH1 0x40 MLOAD PUSH1 0x1 PUSH1 0x1 PUSH1 0xA0 SHL SUB DUP3 AND DUP2 MSTORE PUSH32 0x150F6605E7FC997B9EF5BED4E904EEF6E3F887A080D2F7010632435B47F67ADC SWAP1 PUSH1 0x20 ADD JUMPDEST PUSH1 0x40 MLOAD DUP1 SWAP2 SUB SWAP1 LOG1 POP JUMP JUMPDEST PUSH1 0x0 SLOAD PUSH1 0x40 DUP1 MLOAD DUP1 DUP3 ADD SWAP1 SWAP2 MSTORE PUSH1 0x2 DUP2 MSTORE PUSH2 0x333 PUSH1 0xF4 SHL PUSH1 0x20 DUP3 ADD MSTORE SWAP1 PUSH1 0x1 PUSH1 0x1 PUSH1 0xA0 SHL SUB AND CALLER EQ PUSH2 0x588 JUMPI PUSH1 0x40 MLOAD PUSH3 0x461BCD PUSH1 0xE5 SHL DUP2 MSTORE PUSH1 0x4 ADD PUSH2 0x4ED SWAP2 SWAP1 PUSH2 0x2576 JUMP JUMPDEST POP PUSH2 0x594 PUSH1 0xD DUP3 PUSH2 0x1508 JUMP JUMPDEST POP PUSH1 0x40 MLOAD PUSH1 0x1 PUSH1 0x1 PUSH1 0xA0 SHL SUB DUP3 AND DUP2 MSTORE PUSH32 0x42787E5656DAB1871F396A5A502AFD943ED547A1F540F873F0FC302046DFB4E1 SWAP1 PUSH1 0x20 ADD PUSH2 0x538 JUMP JUMPDEST PUSH1 0x60 PUSH2 0x5DA PUSH1 0x7 PUSH2 0x1524 JUMP JUMPDEST SWAP1 POP SWAP1 JUMP JUMPDEST PUSH1 0x1 SLOAD PUSH1 0x40 DUP1 MLOAD DUP1 DUP3 ADD SWAP1 SWAP2 MSTORE PUSH1 0x2 DUP2 MSTORE PUSH2 0x333 PUSH1 0xF4 SHL PUSH1 0x20 DUP3 ADD MSTORE SWAP1 PUSH1 0x1 PUSH1 0x1 PUSH1 0xA0 SHL SUB AND CALLER EQ PUSH2 0x624 JUMPI PUSH1 0x40 MLOAD PUSH3 0x461BCD PUSH1 0xE5 SHL DUP2 MSTORE PUSH1 0x4 ADD PUSH2 0x4ED SWAP2 SWAP1 PUSH2 0x2576 JUMP JUMPDEST POP PUSH1 0x0 DUP1 SLOAD PUSH1 0x1 DUP1 SLOAD PUSH1 0x1 PUSH1 0x1 PUSH1 0xA0 SHL SUB NOT DUP1 DUP5 AND PUSH1 0x1 PUSH1 0x1 PUSH1 0xA0 SHL SUB DUP1 DUP5 AND SWAP2 SWAP1 SWAP2 OR SWAP1 SWAP6 SSTORE AND SWAP1 SSTORE PUSH1 0x40 DUP1 MLOAD SWAP3 SWAP1 SWAP2 AND DUP1 DUP4 MSTORE CALLER PUSH1 0x20 DUP5 ADD MSTORE SWAP2 PUSH32 0xDE4B3F61490B74C0ED6237523974FE299126BBBF8A8A7482FD220104C59B0C84 SWAP2 ADD PUSH2 0x538 JUMP JUMPDEST PUSH1 0x60 PUSH1 0x0 PUSH2 0x695 DUP4 PUSH2 0x81B JUMP JUMPDEST POP SWAP2 SWAP6 SWAP5 POP POP POP POP POP JUMP JUMPDEST PUSH1 0x0 DUP1 DUP3 MLOAD PUSH1 0x0 SUB PUSH2 0x6BD JUMPI PUSH2 0x6B5 DUP5 PUSH2 0x1531 JUMP JUMPDEST SWAP2 POP POP PUSH2 0x7BE JUMP JUMPDEST PUSH2 0x6C6 DUP4 PUSH2 0x15DE JUMP JUMPDEST SWAP1 POP PUSH1 0x0 DUP5 MLOAD PUSH1 0x1 PUSH2 0x6D8 SWAP2 SWAP1 PUSH2 0x25DA JUMP JUMPDEST PUSH8 0xFFFFFFFFFFFFFFFF DUP2 GT ISZERO PUSH2 0x6F0 JUMPI PUSH2 0x6F0 PUSH2 0x22FC JUMP JUMPDEST PUSH1 0x40 MLOAD SWAP1 DUP1 DUP3 MSTORE DUP1 PUSH1 0x20 MUL PUSH1 0x20 ADD DUP3 ADD PUSH1 0x40 MSTORE DUP1 ISZERO PUSH2 0x719 JUMPI DUP2 PUSH1 0x20 ADD PUSH1 0x20 DUP3 MUL DUP1 CALLDATASIZE DUP4 CALLDATACOPY ADD SWAP1 POP JUMPDEST POP SWAP1 POP DUP2 DUP2 PUSH1 0x1 DUP4 MLOAD PUSH2 0x72C SWAP2 SWAP1 PUSH2 0x25ED JUMP JUMPDEST DUP2 MLOAD DUP2 LT PUSH2 0x73C JUMPI PUSH2 0x73C PUSH2 0x2600 JUMP JUMPDEST PUSH1 0x20 MUL PUSH1 0x20 ADD ADD DUP2 DUP2 MSTORE POP POP PUSH1 0x0 JUMPDEST PUSH1 0x1 DUP3 MLOAD PUSH2 0x759 SWAP2 SWAP1 PUSH2 0x25ED JUMP JUMPDEST DUP2 LT ISZERO PUSH2 0x7A9 JUMPI DUP6 DUP2 DUP2 MLOAD DUP2 LT PUSH2 0x772 JUMPI PUSH2 0x772 PUSH2 0x2600 JUMP JUMPDEST PUSH1 0x20 MUL PUSH1 0x20 ADD ADD MLOAD DUP3 DUP3 DUP2 MLOAD DUP2 LT PUSH2 0x78C JUMPI PUSH2 0x78C PUSH2 0x2600 JUMP JUMPDEST PUSH1 0x20 SWAP1 DUP2 MUL SWAP2 SWAP1 SWAP2 ADD ADD MSTORE DUP1 PUSH2 0x7A1 DUP2 PUSH2 0x2616 JUMP JUMPDEST SWAP2 POP POP PUSH2 0x74B JUMP JUMPDEST POP PUSH2 0x7B3 DUP2 PUSH2 0x1531 JUMP JUMPDEST SWAP3 POP POP POP PUSH2 0x7BE JUMP JUMPDEST POP JUMPDEST SWAP3 SWAP2 POP POP JUMP JUMPDEST PUSH1 0x0 SLOAD PUSH1 0x40 DUP1 MLOAD DUP1 DUP3 ADD SWAP1 SWAP2 MSTORE PUSH1 0x2 DUP2 MSTORE PUSH2 0x333 PUSH1 0xF4 SHL PUSH1 0x20 DUP3 ADD MSTORE SWAP1 PUSH1 0x1 PUSH1 0x1 PUSH1 0xA0 SHL SUB AND CALLER EQ PUSH2 0x809 JUMPI PUSH1 0x40 MLOAD PUSH3 0x461BCD PUSH1 0xE5 SHL DUP2 MSTORE PUSH1 0x4 ADD PUSH2 0x4ED SWAP2 SWAP1 PUSH2 0x2576 JUMP JUMPDEST POP PUSH1 0x5 SSTORE JUMP JUMPDEST PUSH1 0x60 PUSH2 0x5DA PUSH1 0xD PUSH2 0x1524 JUMP JUMPDEST PUSH1 0x60 PUSH1 0x0 PUSH1 0x60 DUP1 PUSH1 0x0 DUP6 MLOAD GT PUSH1 0x40 MLOAD DUP1 PUSH1 0x40 ADD PUSH1 0x40 MSTORE DUP1 PUSH1 0x2 DUP2 MSTORE PUSH1 0x20 ADD PUSH2 0x3331 PUSH1 0xF0 SHL DUP2 MSTORE POP SWAP1 PUSH2 0x860 JUMPI PUSH1 0x40 MLOAD PUSH3 0x461BCD PUSH1 0xE5 SHL DUP2 MSTORE PUSH1 0x4 ADD PUSH2 0x4ED SWAP2 SWAP1 PUSH2 0x2576 JUMP JUMPDEST POP PUSH1 0x0 DUP6 MLOAD PUSH8 0xFFFFFFFFFFFFFFFF DUP2 GT ISZERO PUSH2 0x87D JUMPI PUSH2 0x87D PUSH2 0x22FC JUMP JUMPDEST PUSH1 0x40 MLOAD SWAP1 DUP1 DUP3 MSTORE DUP1 PUSH1 0x20 MUL PUSH1 0x20 ADD DUP3 ADD PUSH1 0x40 MSTORE DUP1 ISZERO PUSH2 0x8A6 JUMPI DUP2 PUSH1 0x20 ADD PUSH1 0x20 DUP3 MUL DUP1 CALLDATASIZE DUP4 CALLDATACOPY ADD SWAP1 POP JUMPDEST POP PUSH1 0x4 DUP1 SLOAD PUSH1 0x40 MLOAD PUSH4 0xEC63734B PUSH1 0xE0 SHL DUP2 MSTORE SWAP3 SWAP4 POP PUSH1 0x0 SWAP3 DUP4 SWAP3 PUSH1 0x1 PUSH1 0x1 PUSH1 0xA0 SHL SUB SWAP1 SWAP3 AND SWAP2 PUSH4 0xEC63734B SWAP2 PUSH2 0x8DE SWAP2 DUP13 SWAP2 ADD PUSH2 0x22AF JUMP JUMPDEST PUSH1 0x0 PUSH1 0x40 MLOAD DUP1 DUP4 SUB DUP2 DUP7 GAS STATICCALL ISZERO DUP1 ISZERO PUSH2 0x8FB JUMPI RETURNDATASIZE PUSH1 0x0 DUP1 RETURNDATACOPY RETURNDATASIZE PUSH1 0x0 REVERT JUMPDEST POP POP POP POP PUSH1 0x40 MLOAD RETURNDATASIZE PUSH1 0x0 DUP3 RETURNDATACOPY PUSH1 0x1F RETURNDATASIZE SWAP1 DUP2 ADD PUSH1 0x1F NOT AND DUP3 ADD PUSH1 0x40 MSTORE PUSH2 0x923 SWAP2 SWAP1 DUP2 ADD SWAP1 PUSH2 0x268A JUMP JUMPDEST SWAP1 SWAP3 POP SWAP1 POP PUSH1 0x0 DUP1 JUMPDEST DUP4 MLOAD DUP2 LT ISZERO PUSH2 0xA71 JUMPI PUSH1 0x2 SLOAD DUP5 MLOAD PUSH1 0x1 PUSH1 0x1 PUSH1 0xA0 SHL SUB SWAP1 SWAP2 AND SWAP1 PUSH4 0x5708447D SWAP1 DUP7 SWAP1 DUP5 SWAP1 DUP2 LT PUSH2 0x95E JUMPI PUSH2 0x95E PUSH2 0x2600 JUMP JUMPDEST PUSH1 0x20 MUL PUSH1 0x20 ADD ADD MLOAD PUSH1 0x40 MLOAD DUP3 PUSH4 0xFFFFFFFF AND PUSH1 0xE0 SHL DUP2 MSTORE PUSH1 0x4 ADD PUSH2 0x991 SWAP2 SWAP1 PUSH1 0x1 PUSH1 0x1 PUSH1 0xA0 SHL SUB SWAP2 SWAP1 SWAP2 AND DUP2 MSTORE PUSH1 0x20 ADD SWAP1 JUMP JUMPDEST PUSH1 0x20 PUSH1 0x40 MLOAD DUP1 DUP4 SUB DUP2 DUP7 GAS STATICCALL ISZERO DUP1 ISZERO PUSH2 0x9AE JUMPI RETURNDATASIZE PUSH1 0x0 DUP1 RETURNDATACOPY RETURNDATASIZE PUSH1 0x0 REVERT JUMPDEST POP POP POP POP PUSH1 0x40 MLOAD RETURNDATASIZE PUSH1 0x1F NOT PUSH1 0x1F DUP3 ADD AND DUP3 ADD DUP1 PUSH1 0x40 MSTORE POP DUP2 ADD SWAP1 PUSH2 0x9D2 SWAP2 SWAP1 PUSH2 0x2745 JUMP JUMPDEST DUP6 DUP3 DUP2 MLOAD DUP2 LT PUSH2 0x9E4 JUMPI PUSH2 0x9E4 PUSH2 0x2600 JUMP JUMPDEST PUSH1 0x20 MUL PUSH1 0x20 ADD ADD DUP2 DUP2 MSTORE POP POP PUSH32 0x0 PUSH1 0x1 PUSH1 0x1 PUSH1 0xA0 SHL SUB AND DUP5 DUP3 DUP2 MLOAD DUP2 LT PUSH2 0xA2C JUMPI PUSH2 0xA2C PUSH2 0x2600 JUMP JUMPDEST PUSH1 0x20 MUL PUSH1 0x20 ADD ADD MLOAD PUSH1 0x1 PUSH1 0x1 PUSH1 0xA0 SHL SUB AND SUB PUSH2 0xA5F JUMPI DUP5 DUP2 DUP2 MLOAD DUP2 LT PUSH2 0xA54 JUMPI PUSH2 0xA54 PUSH2 0x2600 JUMP JUMPDEST PUSH1 0x20 MUL PUSH1 0x20 ADD ADD MLOAD SWAP2 POP JUMPDEST DUP1 PUSH2 0xA69 DUP2 PUSH2 0x2616 JUMP JUMPDEST SWAP2 POP POP PUSH2 0x92C JUMP JUMPDEST POP DUP1 PUSH1 0x0 SUB PUSH2 0xB0B JUMPI PUSH1 0x2 SLOAD PUSH1 0x40 MLOAD PUSH4 0x5708447D PUSH1 0xE0 SHL DUP2 MSTORE PUSH1 0x1 PUSH1 0x1 PUSH1 0xA0 SHL SUB PUSH32 0x0 DUP2 AND PUSH1 0x4 DUP4 ADD MSTORE SWAP1 SWAP2 AND SWAP1 PUSH4 0x5708447D SWAP1 PUSH1 0x24 ADD PUSH1 0x20 PUSH1 0x40 MLOAD DUP1 DUP4 SUB DUP2 DUP7 GAS STATICCALL ISZERO DUP1 ISZERO PUSH2 0xAE4 JUMPI RETURNDATASIZE PUSH1 0x0 DUP1 RETURNDATACOPY RETURNDATASIZE PUSH1 0x0 REVERT JUMPDEST POP POP POP POP PUSH1 0x40 MLOAD RETURNDATASIZE PUSH1 0x1F NOT PUSH1 0x1F DUP3 ADD AND DUP3 ADD DUP1 PUSH1 0x40 MSTORE POP DUP2 ADD SWAP1 PUSH2 0xB08 SWAP2 SWAP1 PUSH2 0x2745 JUMP JUMPDEST SWAP1 POP JUMPDEST PUSH1 0x0 PUSH2 0xB17 DUP5 DUP7 PUSH2 0x1778 JUMP JUMPDEST SWAP1 POP PUSH1 0x0 PUSH2 0xB23 PUSH2 0x12F2 JUMP JUMPDEST SWAP1 POP PUSH2 0xB30 DUP4 DUP3 DUP5 PUSH2 0x1C3B JUMP JUMPDEST PUSH1 0x0 JUMPDEST DUP7 MLOAD DUP2 LT ISZERO PUSH2 0xBB0 JUMPI PUSH2 0xB81 DUP6 DUP3 DUP2 MLOAD DUP2 LT PUSH2 0xB51 JUMPI PUSH2 0xB51 PUSH2 0x2600 JUMP JUMPDEST PUSH1 0x20 MUL PUSH1 0x20 ADD ADD MLOAD DUP9 DUP4 DUP2 MLOAD DUP2 LT PUSH2 0xB6B JUMPI PUSH2 0xB6B PUSH2 0x2600 JUMP JUMPDEST PUSH1 0x20 MUL PUSH1 0x20 ADD ADD MLOAD PUSH2 0x1CA8 SWAP1 SWAP2 SWAP1 PUSH4 0xFFFFFFFF AND JUMP JUMPDEST DUP8 DUP3 DUP2 MLOAD DUP2 LT PUSH2 0xB93 JUMPI PUSH2 0xB93 PUSH2 0x2600 JUMP JUMPDEST PUSH1 0x20 SWAP1 DUP2 MUL SWAP2 SWAP1 SWAP2 ADD ADD MSTORE DUP1 PUSH2 0xBA8 DUP2 PUSH2 0x2616 JUMP JUMPDEST SWAP2 POP POP PUSH2 0xB33 JUMP JUMPDEST POP SWAP5 SWAP11 SWAP2 SWAP10 POP SWAP4 SWAP8 POP SWAP3 SWAP6 POP SWAP2 SWAP4 POP POP POP POP JUMP JUMPDEST PUSH1 0x0 SLOAD PUSH1 0x40 DUP1 MLOAD DUP1 DUP3 ADD SWAP1 SWAP2 MSTORE PUSH1 0x2 DUP2 MSTORE PUSH2 0x333 PUSH1 0xF4 SHL PUSH1 0x20 DUP3 ADD MSTORE SWAP1 PUSH1 0x1 PUSH1 0x1 PUSH1 0xA0 SHL SUB AND CALLER EQ PUSH2 0xC09 JUMPI PUSH1 0x40 MLOAD PUSH3 0x461BCD PUSH1 0xE5 SHL DUP2 MSTORE PUSH1 0x4 ADD PUSH2 0x4ED SWAP2 SWAP1 PUSH2 0x2576 JUMP JUMPDEST POP PUSH2 0xC15 PUSH1 0x7 DUP3 PUSH2 0x1508 JUMP JUMPDEST POP PUSH1 0x40 MLOAD PUSH1 0x1 PUSH1 0x1 PUSH1 0xA0 SHL SUB DUP3 AND DUP2 MSTORE PUSH32 0xB7F10B8974F181778E2544B4188359B499DA116029E96C6A05BED5CDECEE1064 SWAP1 PUSH1 0x20 ADD PUSH2 0x538 JUMP JUMPDEST PUSH1 0x0 SLOAD PUSH1 0x40 DUP1 MLOAD DUP1 DUP3 ADD SWAP1 SWAP2 MSTORE PUSH1 0x2 DUP2 MSTORE PUSH2 0x333 PUSH1 0xF4 SHL PUSH1 0x20 DUP3 ADD MSTORE SWAP1 PUSH1 0x1 PUSH1 0x1 PUSH1 0xA0 SHL SUB AND CALLER EQ PUSH2 0xC94 JUMPI PUSH1 0x40 MLOAD PUSH3 0x461BCD PUSH1 0xE5 SHL DUP2 MSTORE PUSH1 0x4 ADD PUSH2 0x4ED SWAP2 SWAP1 PUSH2 0x2576 JUMP JUMPDEST POP PUSH2 0xCA0 PUSH1 0x7 DUP3 PUSH2 0x1CD1 JUMP JUMPDEST POP PUSH1 0x40 MLOAD PUSH1 0x1 PUSH1 0x1 PUSH1 0xA0 SHL SUB DUP3 AND DUP2 MSTORE PUSH32 0x8696120FB7656955EC406C2959998DE0AA9798518606D5AFB5F36789F522DFEA SWAP1 PUSH1 0x20 ADD PUSH2 0x538 JUMP JUMPDEST PUSH1 0x40 DUP1 MLOAD PUSH1 0x1 DUP1 DUP3 MSTORE DUP2 DUP4 ADD SWAP1 SWAP3 MSTORE PUSH1 0x0 SWAP2 DUP3 SWAP2 SWAP1 PUSH1 0x20 DUP1 DUP4 ADD SWAP1 DUP1 CALLDATASIZE DUP4 CALLDATACOPY ADD SWAP1 POP POP SWAP1 POP DUP3 DUP2 PUSH1 0x0 DUP2 MLOAD DUP2 LT PUSH2 0xD13 JUMPI PUSH2 0xD13 PUSH2 0x2600 JUMP JUMPDEST PUSH1 0x20 MUL PUSH1 0x20 ADD ADD SWAP1 PUSH1 0x1 PUSH1 0x1 PUSH1 0xA0 SHL SUB AND SWAP1 DUP2 PUSH1 0x1 PUSH1 0x1 PUSH1 0xA0 SHL SUB AND DUP2 MSTORE POP POP PUSH1 0x0 PUSH2 0xD3E DUP3 PUSH2 0x688 JUMP JUMPDEST SWAP1 POP DUP1 PUSH1 0x0 DUP2 MLOAD DUP2 LT PUSH2 0xD53 JUMPI PUSH2 0xD53 PUSH2 0x2600 JUMP JUMPDEST PUSH1 0x20 MUL PUSH1 0x20 ADD ADD MLOAD SWAP3 POP POP POP SWAP2 SWAP1 POP JUMP JUMPDEST PUSH1 0x0 SLOAD PUSH1 0x40 DUP1 MLOAD DUP1 DUP3 ADD SWAP1 SWAP2 MSTORE PUSH1 0x2 DUP2 MSTORE PUSH2 0x333 PUSH1 0xF4 SHL PUSH1 0x20 DUP3 ADD MSTORE SWAP1 PUSH1 0x1 PUSH1 0x1 PUSH1 0xA0 SHL SUB AND CALLER EQ PUSH2 0xDA9 JUMPI PUSH1 0x40 MLOAD PUSH3 0x461BCD PUSH1 0xE5 SHL DUP2 MSTORE PUSH1 0x4 ADD PUSH2 0x4ED SWAP2 SWAP1 PUSH2 0x2576 JUMP JUMPDEST POP PUSH1 0x40 DUP1 MLOAD DUP1 DUP3 ADD SWAP1 SWAP2 MSTORE PUSH1 0x2 DUP2 MSTORE PUSH2 0x3331 PUSH1 0xF0 SHL PUSH1 0x20 DUP3 ADD MSTORE DUP2 PUSH2 0xDE1 JUMPI PUSH1 0x40 MLOAD PUSH3 0x461BCD PUSH1 0xE5 SHL DUP2 MSTORE PUSH1 0x4 ADD PUSH2 0x4ED SWAP2 SWAP1 PUSH2 0x2576 JUMP JUMPDEST POP PUSH1 0x40 DUP1 MLOAD DUP1 DUP3 ADD SWAP1 SWAP2 MSTORE PUSH1 0x2 DUP2 MSTORE PUSH2 0x3331 PUSH1 0xF0 SHL PUSH1 0x20 DUP3 ADD MSTORE PUSH8 0x16345785D8A0000 DUP3 LT PUSH2 0xE23 JUMPI PUSH1 0x40 MLOAD PUSH3 0x461BCD PUSH1 0xE5 SHL DUP2 MSTORE PUSH1 0x4 ADD PUSH2 0x4ED SWAP2 SWAP1 PUSH2 0x2576 JUMP JUMPDEST POP PUSH1 0x6 SSTORE JUMP JUMPDEST PUSH1 0x0 SLOAD PUSH1 0x40 DUP1 MLOAD DUP1 DUP3 ADD SWAP1 SWAP2 MSTORE PUSH1 0x2 DUP2 MSTORE PUSH2 0x333 PUSH1 0xF4 SHL PUSH1 0x20 DUP3 ADD MSTORE SWAP1 PUSH1 0x1 PUSH1 0x1 PUSH1 0xA0 SHL SUB AND CALLER EQ PUSH2 0xE6E JUMPI PUSH1 0x40 MLOAD PUSH3 0x461BCD PUSH1 0xE5 SHL DUP2 MSTORE PUSH1 0x4 ADD PUSH2 0x4ED SWAP2 SWAP1 PUSH2 0x2576 JUMP JUMPDEST POP PUSH2 0xE7A PUSH1 0xD DUP3 PUSH2 0x1CD1 JUMP JUMPDEST POP PUSH1 0x40 MLOAD PUSH1 0x1 PUSH1 0x1 PUSH1 0xA0 SHL SUB DUP3 AND DUP2 MSTORE PUSH32 0x97F16989C0CA3C61D0F35531FF27ABEB36547D171FA32E2D3A9311EE15A09D2D SWAP1 PUSH1 0x20 ADD PUSH2 0x538 JUMP JUMPDEST PUSH1 0x60 PUSH2 0x5DA PUSH1 0xB PUSH2 0x1524 JUMP JUMPDEST PUSH1 0x0 SLOAD PUSH1 0x40 DUP1 MLOAD DUP1 DUP3 ADD SWAP1 SWAP2 MSTORE PUSH1 0x2 DUP2 MSTORE PUSH2 0x333 PUSH1 0xF4 SHL PUSH1 0x20 DUP3 ADD MSTORE SWAP1 PUSH1 0x1 PUSH1 0x1 PUSH1 0xA0 SHL SUB AND CALLER EQ PUSH2 0xF05 JUMPI PUSH1 0x40 MLOAD PUSH3 0x461BCD PUSH1 0xE5 SHL DUP2 MSTORE PUSH1 0x4 ADD PUSH2 0x4ED SWAP2 SWAP1 PUSH2 0x2576 JUMP JUMPDEST POP PUSH2 0xF11 PUSH1 0xB DUP3 PUSH2 0x1CD1 JUMP JUMPDEST POP PUSH1 0x40 MLOAD PUSH1 0x1 PUSH1 0x1 PUSH1 0xA0 SHL SUB DUP3 AND DUP2 MSTORE PUSH32 0xA67CAC4DE4567BFE36D7FA182B8455FD3E7D1B80C45191DD2B6DD5310A353066 SWAP1 PUSH1 0x20 ADD PUSH2 0x538 JUMP JUMPDEST PUSH1 0x0 SLOAD PUSH1 0x40 DUP1 MLOAD DUP1 DUP3 ADD SWAP1 SWAP2 MSTORE PUSH1 0x2 DUP2 MSTORE PUSH2 0x333 PUSH1 0xF4 SHL PUSH1 0x20 DUP3 ADD MSTORE SWAP1 PUSH1 0x1 PUSH1 0x1 PUSH1 0xA0 SHL SUB AND CALLER EQ PUSH2 0xF90 JUMPI PUSH1 0x40 MLOAD PUSH3 0x461BCD PUSH1 0xE5 SHL DUP2 MSTORE PUSH1 0x4 ADD PUSH2 0x4ED SWAP2 SWAP1 PUSH2 0x2576 JUMP JUMPDEST POP PUSH1 0x2 DUP1 SLOAD PUSH1 0x1 PUSH1 0x1 PUSH1 0xA0 SHL SUB NOT AND PUSH1 0x1 PUSH1 0x1 PUSH1 0xA0 SHL SUB DUP4 AND SWAP1 DUP2 OR SWAP1 SWAP2 SSTORE PUSH1 0x40 MLOAD PUSH32 0x8BDF8E573E1E6B8ABA457BD2A4FED210B28B0ED18344A7C4BB4BD1E87F6E1FB7 SWAP1 PUSH1 0x0 SWAP1 LOG2 POP JUMP JUMPDEST PUSH1 0x0 SLOAD PUSH1 0x40 DUP1 MLOAD DUP1 DUP3 ADD SWAP1 SWAP2 MSTORE PUSH1 0x2 DUP2 MSTORE PUSH2 0x333 PUSH1 0xF4 SHL PUSH1 0x20 DUP3 ADD MSTORE SWAP1 PUSH1 0x1 PUSH1 0x1 PUSH1 0xA0 SHL SUB AND CALLER EQ PUSH2 0x1020 JUMPI PUSH1 0x40 MLOAD PUSH3 0x461BCD PUSH1 0xE5 SHL DUP2 MSTORE PUSH1 0x4 ADD PUSH2 0x4ED SWAP2 SWAP1 PUSH2 0x2576 JUMP JUMPDEST POP PUSH1 0x4 DUP1 SLOAD PUSH1 0x1 PUSH1 0x1 PUSH1 0xA0 SHL SUB NOT AND PUSH1 0x1 PUSH1 0x1 PUSH1 0xA0 SHL SUB DUP4 AND SWAP1 DUP2 OR SWAP1 SWAP2 SSTORE PUSH1 0x40 MLOAD PUSH32 0xEE3204477C0C5B582290B191A71642A43D0B767284B32C6CECF61B00BD32FA1C SWAP1 PUSH1 0x0 SWAP1 LOG2 POP JUMP JUMPDEST PUSH1 0x0 SLOAD PUSH1 0x40 DUP1 MLOAD DUP1 DUP3 ADD SWAP1 SWAP2 MSTORE PUSH1 0x2 DUP2 MSTORE PUSH2 0x333 PUSH1 0xF4 SHL PUSH1 0x20 DUP3 ADD MSTORE SWAP1 PUSH1 0x1 PUSH1 0x1 PUSH1 0xA0 SHL SUB AND CALLER EQ PUSH2 0x10B0 JUMPI PUSH1 0x40 MLOAD PUSH3 0x461BCD PUSH1 0xE5 SHL DUP2 MSTORE PUSH1 0x4 ADD PUSH2 0x4ED SWAP2 SWAP1 PUSH2 0x2576 JUMP JUMPDEST POP PUSH2 0x10BC PUSH1 0x9 DUP3 PUSH2 0x1CD1 JUMP JUMPDEST POP PUSH1 0x40 MLOAD PUSH1 0x1 PUSH1 0x1 PUSH1 0xA0 SHL SUB DUP3 AND DUP2 MSTORE PUSH32 0x612AC93AD02AC7669D13BE8835BB33D5C6D42BB4C46F0CDB717681EBD2B64557 SWAP1 PUSH1 0x20 ADD PUSH2 0x538 JUMP JUMPDEST PUSH1 0x60 PUSH2 0x5DA PUSH1 0x9 PUSH2 0x1524 JUMP JUMPDEST PUSH1 0x0 SLOAD PUSH1 0x40 DUP1 MLOAD DUP1 DUP3 ADD SWAP1 SWAP2 MSTORE PUSH1 0x2 DUP2 MSTORE PUSH2 0x333 PUSH1 0xF4 SHL PUSH1 0x20 DUP3 ADD MSTORE SWAP1 PUSH1 0x1 PUSH1 0x1 PUSH1 0xA0 SHL SUB AND CALLER EQ PUSH2 0x1147 JUMPI PUSH1 0x40 MLOAD PUSH3 0x461BCD PUSH1 0xE5 SHL DUP2 MSTORE PUSH1 0x4 ADD PUSH2 0x4ED SWAP2 SWAP1 PUSH2 0x2576 JUMP JUMPDEST POP PUSH1 0x40 DUP1 MLOAD DUP1 DUP3 ADD SWAP1 SWAP2 MSTORE PUSH1 0x2 DUP2 MSTORE PUSH2 0x3331 PUSH1 0xF0 SHL PUSH1 0x20 DUP3 ADD MSTORE PUSH1 0x1 PUSH1 0x1 PUSH1 0xA0 SHL SUB DUP3 AND PUSH2 0x1188 JUMPI PUSH1 0x40 MLOAD PUSH3 0x461BCD PUSH1 0xE5 SHL DUP2 MSTORE PUSH1 0x4 ADD PUSH2 0x4ED SWAP2 SWAP1 PUSH2 0x2576 JUMP JUMPDEST POP PUSH1 0x1 DUP1 SLOAD PUSH1 0x1 PUSH1 0x1 PUSH1 0xA0 SHL SUB NOT AND PUSH1 0x1 PUSH1 0x1 PUSH1 0xA0 SHL SUB DUP4 AND SWAP1 DUP2 OR SWAP1 SWAP2 SSTORE PUSH1 0x40 MLOAD SWAP1 DUP2 MSTORE PUSH32 0x67235BA2E63C748A35B95C4F92A3BBC2A1389938170A5CE6C9ADD5D0B03A314A SWAP1 PUSH1 0x20 ADD PUSH2 0x538 JUMP JUMPDEST PUSH1 0x0 SLOAD PUSH1 0x40 DUP1 MLOAD DUP1 DUP3 ADD SWAP1 SWAP2 MSTORE PUSH1 0x2 DUP2 MSTORE PUSH2 0x333 PUSH1 0xF4 SHL PUSH1 0x20 DUP3 ADD MSTORE SWAP1 PUSH1 0x1 PUSH1 0x1 PUSH1 0xA0 SHL SUB AND CALLER EQ PUSH2 0x121C JUMPI PUSH1 0x40 MLOAD PUSH3 0x461BCD PUSH1 0xE5 SHL DUP2 MSTORE PUSH1 0x4 ADD PUSH2 0x4ED SWAP2 SWAP1 PUSH2 0x2576 JUMP JUMPDEST POP PUSH2 0x1228 PUSH1 0x9 DUP3 PUSH2 0x1508 JUMP JUMPDEST POP PUSH1 0x40 MLOAD PUSH1 0x1 PUSH1 0x1 PUSH1 0xA0 SHL SUB DUP3 AND DUP2 MSTORE PUSH32 0xFAB625E04BC6EEEF38AAF5C2E48B1F1953CF5183297F4115F0DA9E906D4BF3AC SWAP1 PUSH1 0x20 ADD PUSH2 0x538 JUMP JUMPDEST PUSH1 0x0 SLOAD PUSH1 0x40 DUP1 MLOAD DUP1 DUP3 ADD SWAP1 SWAP2 MSTORE PUSH1 0x2 DUP2 MSTORE PUSH2 0x333 PUSH1 0xF4 SHL PUSH1 0x20 DUP3 ADD MSTORE SWAP1 PUSH1 0x1 PUSH1 0x1 PUSH1 0xA0 SHL SUB AND CALLER EQ PUSH2 0x12A7 JUMPI PUSH1 0x40 MLOAD PUSH3 0x461BCD PUSH1 0xE5 SHL DUP2 MSTORE PUSH1 0x4 ADD PUSH2 0x4ED SWAP2 SWAP1 PUSH2 0x2576 JUMP JUMPDEST POP PUSH1 0x3 DUP1 SLOAD PUSH1 0x1 PUSH1 0x1 PUSH1 0xA0 SHL SUB NOT AND PUSH1 0x1 PUSH1 0x1 PUSH1 0xA0 SHL SUB DUP4 AND SWAP1 DUP2 OR SWAP1 SWAP2 SSTORE PUSH1 0x40 MLOAD PUSH32 0x99E4AC532391C2555B226B3D66F3D643E9256788B0C246834C1AAEBFAD90BD01 SWAP1 PUSH1 0x0 SWAP1 LOG2 POP JUMP JUMPDEST PUSH1 0x60 PUSH1 0x0 PUSH2 0x1300 PUSH1 0x7 PUSH2 0x1CE6 JUMP JUMPDEST PUSH8 0xFFFFFFFFFFFFFFFF DUP2 GT ISZERO PUSH2 0x1318 JUMPI PUSH2 0x1318 PUSH2 0x22FC JUMP JUMPDEST PUSH1 0x40 MLOAD SWAP1 DUP1 DUP3 MSTORE DUP1 PUSH1 0x20 MUL PUSH1 0x20 ADD DUP3 ADD PUSH1 0x40 MSTORE DUP1 ISZERO PUSH2 0x1341 JUMPI DUP2 PUSH1 0x20 ADD PUSH1 0x20 DUP3 MUL DUP1 CALLDATASIZE DUP4 CALLDATACOPY ADD SWAP1 POP JUMPDEST POP SWAP1 POP PUSH1 0x0 DUP1 JUMPDEST PUSH2 0x1352 PUSH1 0x7 PUSH2 0x1CE6 JUMP JUMPDEST DUP2 LT ISZERO PUSH2 0x1430 JUMPI PUSH1 0x0 PUSH2 0x1366 PUSH1 0x7 DUP4 PUSH2 0x1CF0 JUMP JUMPDEST PUSH1 0x40 MLOAD PUSH4 0x5708447D PUSH1 0xE0 SHL DUP2 MSTORE PUSH1 0x1 PUSH1 0x1 PUSH1 0xA0 SHL SUB PUSH32 0x0 DUP2 AND PUSH1 0x4 DUP4 ADD MSTORE SWAP2 SWAP3 POP SWAP1 DUP3 AND SWAP1 PUSH4 0x5708447D SWAP1 PUSH1 0x24 ADD PUSH1 0x20 PUSH1 0x40 MLOAD DUP1 DUP4 SUB DUP2 DUP7 GAS STATICCALL SWAP3 POP POP POP DUP1 ISZERO PUSH2 0x13EC JUMPI POP PUSH1 0x40 DUP1 MLOAD PUSH1 0x1F RETURNDATASIZE SWAP1 DUP2 ADD PUSH1 0x1F NOT AND DUP3 ADD SWAP1 SWAP3 MSTORE PUSH2 0x13E9 SWAP2 DUP2 ADD SWAP1 PUSH2 0x2745 JUMP JUMPDEST PUSH1 0x1 JUMPDEST ISZERO PUSH2 0x141D JUMPI DUP1 DUP6 DUP6 PUSH2 0x13FD DUP2 PUSH2 0x2616 JUMP JUMPDEST SWAP7 POP DUP2 MLOAD DUP2 LT PUSH2 0x140F JUMPI PUSH2 0x140F PUSH2 0x2600 JUMP JUMPDEST PUSH1 0x20 MUL PUSH1 0x20 ADD ADD DUP2 DUP2 MSTORE POP POP POP JUMPDEST POP DUP1 PUSH2 0x1428 DUP2 PUSH2 0x2616 JUMP JUMPDEST SWAP2 POP POP PUSH2 0x1348 JUMP JUMPDEST POP PUSH1 0x40 DUP1 MLOAD DUP1 DUP3 ADD SWAP1 SWAP2 MSTORE PUSH1 0x2 DUP2 MSTORE PUSH2 0x3439 PUSH1 0xF0 SHL PUSH1 0x20 DUP3 ADD MSTORE DUP2 PUSH2 0x1468 JUMPI PUSH1 0x40 MLOAD PUSH3 0x461BCD PUSH1 0xE5 SHL DUP2 MSTORE PUSH1 0x4 ADD PUSH2 0x4ED SWAP2 SWAP1 PUSH2 0x2576 JUMP JUMPDEST POP DUP1 PUSH8 0xFFFFFFFFFFFFFFFF DUP2 GT ISZERO PUSH2 0x1482 JUMPI PUSH2 0x1482 PUSH2 0x22FC JUMP JUMPDEST PUSH1 0x40 MLOAD SWAP1 DUP1 DUP3 MSTORE DUP1 PUSH1 0x20 MUL PUSH1 0x20 ADD DUP3 ADD PUSH1 0x40 MSTORE DUP1 ISZERO PUSH2 0x14AB JUMPI DUP2 PUSH1 0x20 ADD PUSH1 0x20 DUP3 MUL DUP1 CALLDATASIZE DUP4 CALLDATACOPY ADD SWAP1 POP JUMPDEST POP SWAP3 POP PUSH1 0x0 JUMPDEST DUP2 DUP2 LT ISZERO PUSH2 0x1502 JUMPI DUP3 DUP2 DUP2 MLOAD DUP2 LT PUSH2 0x14CB JUMPI PUSH2 0x14CB PUSH2 0x2600 JUMP JUMPDEST PUSH1 0x20 MUL PUSH1 0x20 ADD ADD MLOAD DUP5 DUP3 DUP2 MLOAD DUP2 LT PUSH2 0x14E5 JUMPI PUSH2 0x14E5 PUSH2 0x2600 JUMP JUMPDEST PUSH1 0x20 SWAP1 DUP2 MUL SWAP2 SWAP1 SWAP2 ADD ADD MSTORE DUP1 PUSH2 0x14FA DUP2 PUSH2 0x2616 JUMP JUMPDEST SWAP2 POP POP PUSH2 0x14B1 JUMP JUMPDEST POP POP POP SWAP1 JUMP JUMPDEST PUSH1 0x0 PUSH2 0x151D DUP4 PUSH1 0x1 PUSH1 0x1 PUSH1 0xA0 SHL SUB DUP5 AND PUSH2 0x1CFC JUMP JUMPDEST SWAP4 SWAP3 POP POP POP JUMP JUMPDEST PUSH1 0x60 PUSH1 0x0 PUSH2 0x151D DUP4 PUSH2 0x1D4B JUMP JUMPDEST PUSH1 0x0 PUSH2 0x153C DUP3 PUSH2 0x1DA7 JUMP JUMPDEST POP PUSH1 0x2 DUP3 MLOAD PUSH2 0x154B SWAP2 SWAP1 PUSH2 0x2774 JUMP JUMPDEST ISZERO PUSH2 0x157C JUMPI DUP2 PUSH1 0x2 DUP4 MLOAD PUSH2 0x155F SWAP2 SWAP1 PUSH2 0x2788 JUMP JUMPDEST DUP2 MLOAD DUP2 LT PUSH2 0x156F JUMPI PUSH2 0x156F PUSH2 0x2600 JUMP JUMPDEST PUSH1 0x20 MUL PUSH1 0x20 ADD ADD MLOAD PUSH2 0x7BE JUMP JUMPDEST PUSH2 0x7BE DUP3 PUSH1 0x1 PUSH1 0x2 DUP6 MLOAD PUSH2 0x1590 SWAP2 SWAP1 PUSH2 0x2788 JUMP JUMPDEST PUSH2 0x159A SWAP2 SWAP1 PUSH2 0x25ED JUMP JUMPDEST DUP2 MLOAD DUP2 LT PUSH2 0x15AA JUMPI PUSH2 0x15AA PUSH2 0x2600 JUMP JUMPDEST PUSH1 0x20 MUL PUSH1 0x20 ADD ADD MLOAD DUP4 PUSH1 0x2 DUP6 MLOAD PUSH2 0x15C1 SWAP2 SWAP1 PUSH2 0x2788 JUMP JUMPDEST DUP2 MLOAD DUP2 LT PUSH2 0x15D1 JUMPI PUSH2 0x15D1 PUSH2 0x2600 JUMP JUMPDEST PUSH1 0x20 MUL PUSH1 0x20 ADD ADD MLOAD PUSH2 0x1DC6 JUMP JUMPDEST PUSH1 0x0 DUP2 MLOAD PUSH1 0x1 SUB PUSH2 0x160B JUMPI DUP2 PUSH1 0x0 DUP2 MLOAD DUP2 LT PUSH2 0x15FC JUMPI PUSH2 0x15FC PUSH2 0x2600 JUMP JUMPDEST PUSH1 0x20 MUL PUSH1 0x20 ADD ADD MLOAD SWAP1 POP SWAP2 SWAP1 POP JUMP JUMPDEST PUSH1 0x0 DUP1 DUP4 PUSH1 0x1 DUP2 MLOAD DUP2 LT PUSH2 0x1621 JUMPI PUSH2 0x1621 PUSH2 0x2600 JUMP JUMPDEST PUSH1 0x20 MUL PUSH1 0x20 ADD ADD MLOAD DUP5 PUSH1 0x0 DUP2 MLOAD DUP2 LT PUSH2 0x163C JUMPI PUSH2 0x163C PUSH2 0x2600 JUMP JUMPDEST PUSH1 0x20 MUL PUSH1 0x20 ADD ADD MLOAD LT PUSH2 0x1684 JUMPI DUP4 PUSH1 0x1 DUP2 MLOAD DUP2 LT PUSH2 0x165C JUMPI PUSH2 0x165C PUSH2 0x2600 JUMP JUMPDEST PUSH1 0x20 MUL PUSH1 0x20 ADD ADD MLOAD DUP5 PUSH1 0x0 DUP2 MLOAD DUP2 LT PUSH2 0x1677 JUMPI PUSH2 0x1677 PUSH2 0x2600 JUMP JUMPDEST PUSH1 0x20 MUL PUSH1 0x20 ADD ADD MLOAD PUSH2 0x16BB JUMP JUMPDEST DUP4 PUSH1 0x0 DUP2 MLOAD DUP2 LT PUSH2 0x1697 JUMPI PUSH2 0x1697 PUSH2 0x2600 JUMP JUMPDEST PUSH1 0x20 MUL PUSH1 0x20 ADD ADD MLOAD DUP5 PUSH1 0x1 DUP2 MLOAD DUP2 LT PUSH2 0x16B2 JUMPI PUSH2 0x16B2 PUSH2 0x2600 JUMP JUMPDEST PUSH1 0x20 MUL PUSH1 0x20 ADD ADD MLOAD JUMPDEST SWAP2 POP SWAP2 POP DUP4 MLOAD PUSH1 0x2 SUB PUSH2 0x16CF JUMPI POP SWAP3 SWAP2 POP POP JUMP JUMPDEST PUSH1 0x2 JUMPDEST DUP5 MLOAD DUP2 LT ISZERO PUSH2 0x1770 JUMPI DUP3 DUP6 DUP3 DUP2 MLOAD DUP2 LT PUSH2 0x16EE JUMPI PUSH2 0x16EE PUSH2 0x2600 JUMP JUMPDEST PUSH1 0x20 MUL PUSH1 0x20 ADD ADD MLOAD LT ISZERO PUSH2 0x1720 JUMPI DUP3 SWAP2 POP DUP5 DUP2 DUP2 MLOAD DUP2 LT PUSH2 0x1711 JUMPI PUSH2 0x1711 PUSH2 0x2600 JUMP JUMPDEST PUSH1 0x20 MUL PUSH1 0x20 ADD ADD MLOAD SWAP3 POP PUSH2 0x175E JUMP JUMPDEST DUP2 DUP6 DUP3 DUP2 MLOAD DUP2 LT PUSH2 0x1733 JUMPI PUSH2 0x1733 PUSH2 0x2600 JUMP JUMPDEST PUSH1 0x20 MUL PUSH1 0x20 ADD ADD MLOAD LT ISZERO PUSH2 0x175E JUMPI DUP5 DUP2 DUP2 MLOAD DUP2 LT PUSH2 0x1753 JUMPI PUSH2 0x1753 PUSH2 0x2600 JUMP JUMPDEST PUSH1 0x20 MUL PUSH1 0x20 ADD ADD MLOAD SWAP2 POP JUMPDEST DUP1 PUSH2 0x1768 DUP2 PUSH2 0x2616 JUMP JUMPDEST SWAP2 POP POP PUSH2 0x16D2 JUMP JUMPDEST POP SWAP4 SWAP3 POP POP POP JUMP JUMPDEST PUSH1 0x60 PUSH1 0x0 DUP4 MLOAD PUSH8 0xFFFFFFFFFFFFFFFF DUP2 GT ISZERO PUSH2 0x1796 JUMPI PUSH2 0x1796 PUSH2 0x22FC JUMP JUMPDEST PUSH1 0x40 MLOAD SWAP1 DUP1 DUP3 MSTORE DUP1 PUSH1 0x20 MUL PUSH1 0x20 ADD DUP3 ADD PUSH1 0x40 MSTORE DUP1 ISZERO PUSH2 0x17BF JUMPI DUP2 PUSH1 0x20 ADD PUSH1 0x20 DUP3 MUL DUP1 CALLDATASIZE DUP4 CALLDATACOPY ADD SWAP1 POP JUMPDEST POP SWAP1 POP PUSH1 0x0 DUP1 JUMPDEST DUP6 MLOAD DUP2 LT ISZERO PUSH2 0x1B95 JUMPI PUSH1 0x0 DUP1 JUMPDEST PUSH2 0x17DD PUSH1 0xB PUSH2 0x1CE6 JUMP JUMPDEST DUP2 LT ISZERO PUSH2 0x1B12 JUMPI PUSH1 0x0 PUSH2 0x17F1 PUSH1 0xB DUP4 PUSH2 0x1CF0 JUMP JUMPDEST SWAP1 POP DUP1 PUSH1 0x1 PUSH1 0x1 PUSH1 0xA0 SHL SUB AND DUP10 DUP6 DUP2 MLOAD DUP2 LT PUSH2 0x180F JUMPI PUSH2 0x180F PUSH2 0x2600 JUMP JUMPDEST PUSH1 0x20 MUL PUSH1 0x20 ADD ADD MLOAD PUSH1 0x1 PUSH1 0x1 PUSH1 0xA0 SHL SUB AND EQ DUP1 PUSH2 0x18CE JUMPI POP PUSH1 0x3 SLOAD DUP10 MLOAD PUSH1 0x1 PUSH1 0x1 PUSH1 0xA0 SHL SUB SWAP1 SWAP2 AND SWAP1 PUSH4 0x9446994A SWAP1 DUP12 SWAP1 DUP8 SWAP1 DUP2 LT PUSH2 0x1850 JUMPI PUSH2 0x1850 PUSH2 0x2600 JUMP JUMPDEST PUSH1 0x20 MUL PUSH1 0x20 ADD ADD MLOAD DUP4 PUSH1 0x40 MLOAD DUP4 PUSH4 0xFFFFFFFF AND PUSH1 0xE0 SHL DUP2 MSTORE PUSH1 0x4 ADD PUSH2 0x188B SWAP3 SWAP2 SWAP1 PUSH1 0x1 PUSH1 0x1 PUSH1 0xA0 SHL SUB SWAP3 DUP4 AND DUP2 MSTORE SWAP2 AND PUSH1 0x20 DUP3 ADD MSTORE PUSH1 0x40 ADD SWAP1 JUMP JUMPDEST PUSH1 0x20 PUSH1 0x40 MLOAD DUP1 DUP4 SUB DUP2 DUP7 GAS STATICCALL ISZERO DUP1 ISZERO PUSH2 0x18A8 JUMPI RETURNDATASIZE PUSH1 0x0 DUP1 RETURNDATACOPY RETURNDATASIZE PUSH1 0x0 REVERT JUMPDEST POP POP POP POP PUSH1 0x40 MLOAD RETURNDATASIZE PUSH1 0x1F NOT PUSH1 0x1F DUP3 ADD AND DUP3 ADD DUP1 PUSH1 0x40 MSTORE POP DUP2 ADD SWAP1 PUSH2 0x18CC SWAP2 SWAP1 PUSH2 0x279C JUMP JUMPDEST ISZERO JUMPDEST ISZERO PUSH2 0x18D9 JUMPI POP PUSH2 0x1B00 JUMP JUMPDEST PUSH1 0x3 SLOAD DUP10 MLOAD PUSH1 0x0 SWAP2 PUSH1 0x1 PUSH1 0x1 PUSH1 0xA0 SHL SUB AND SWAP1 PUSH4 0x9B56E6A7 SWAP1 DUP13 SWAP1 DUP9 SWAP1 DUP2 LT PUSH2 0x1903 JUMPI PUSH2 0x1903 PUSH2 0x2600 JUMP JUMPDEST PUSH1 0x20 MUL PUSH1 0x20 ADD ADD MLOAD DUP5 PUSH1 0x40 MLOAD DUP4 PUSH4 0xFFFFFFFF AND PUSH1 0xE0 SHL DUP2 MSTORE PUSH1 0x4 ADD PUSH2 0x193E SWAP3 SWAP2 SWAP1 PUSH1 0x1 PUSH1 0x1 PUSH1 0xA0 SHL SUB SWAP3 DUP4 AND DUP2 MSTORE SWAP2 AND PUSH1 0x20 DUP3 ADD MSTORE PUSH1 0x40 ADD SWAP1 JUMP JUMPDEST PUSH1 0x20 PUSH1 0x40 MLOAD DUP1 DUP4 SUB DUP2 DUP7 GAS STATICCALL ISZERO DUP1 ISZERO PUSH2 0x195B JUMPI RETURNDATASIZE PUSH1 0x0 DUP1 RETURNDATACOPY RETURNDATASIZE PUSH1 0x0 REVERT JUMPDEST POP POP POP POP PUSH1 0x40 MLOAD RETURNDATASIZE PUSH1 0x1F NOT PUSH1 0x1F DUP3 ADD AND DUP3 ADD DUP1 PUSH1 0x40 MSTORE POP DUP2 ADD SWAP1 PUSH2 0x197F SWAP2 SWAP1 PUSH2 0x2745 JUMP JUMPDEST SWAP1 POP PUSH32 0x0 PUSH1 0x1 PUSH1 0x1 PUSH1 0xA0 SHL SUB AND DUP11 DUP7 DUP2 MLOAD DUP2 LT PUSH2 0x19BD JUMPI PUSH2 0x19BD PUSH2 0x2600 JUMP JUMPDEST PUSH1 0x20 MUL PUSH1 0x20 ADD ADD MLOAD PUSH1 0x1 PUSH1 0x1 PUSH1 0xA0 SHL SUB AND EQ DUP1 ISZERO PUSH2 0x19E1 JUMPI POP PUSH2 0x19E1 PUSH1 0x9 DUP4 PUSH2 0x1DE1 JUMP JUMPDEST ISZERO PUSH2 0x1A16 JUMPI DUP1 DUP8 DUP8 DUP2 MLOAD DUP2 LT PUSH2 0x19F9 JUMPI PUSH2 0x19F9 PUSH2 0x2600 JUMP JUMPDEST PUSH1 0x20 SWAP1 DUP2 MUL SWAP2 SWAP1 SWAP2 ADD ADD MSTORE DUP6 PUSH2 0x1A0E DUP2 PUSH2 0x2616 JUMP JUMPDEST SWAP7 POP POP PUSH2 0x1AC1 JUMP JUMPDEST PUSH32 0x0 PUSH1 0x1 PUSH1 0x1 PUSH1 0xA0 SHL SUB AND DUP3 PUSH1 0x1 PUSH1 0x1 PUSH1 0xA0 SHL SUB AND EQ DUP1 ISZERO PUSH2 0x1A7F JUMPI POP PUSH2 0x1A7F DUP11 DUP7 DUP2 MLOAD DUP2 LT PUSH2 0x1A67 JUMPI PUSH2 0x1A67 PUSH2 0x2600 JUMP JUMPDEST PUSH1 0x20 MUL PUSH1 0x20 ADD ADD MLOAD PUSH1 0x9 PUSH2 0x1DE1 SWAP1 SWAP2 SWAP1 PUSH4 0xFFFFFFFF AND JUMP JUMPDEST ISZERO PUSH2 0x1AC1 JUMPI PUSH2 0x1A96 PUSH8 0xDE0B6B3A7640000 DUP3 PUSH2 0x1E03 JUMP JUMPDEST DUP8 DUP8 DUP2 MLOAD DUP2 LT PUSH2 0x1AA8 JUMPI PUSH2 0x1AA8 PUSH2 0x2600 JUMP JUMPDEST PUSH1 0x20 SWAP1 DUP2 MUL SWAP2 SWAP1 SWAP2 ADD ADD MSTORE DUP6 PUSH2 0x1ABD DUP2 PUSH2 0x2616 JUMP JUMPDEST SWAP7 POP POP JUMPDEST PUSH1 0x0 PUSH2 0x1ACE DUP4 DUP13 DUP13 PUSH2 0x1E6E JUMP JUMPDEST SWAP1 POP PUSH2 0x1AF4 DUP11 DUP8 DUP2 MLOAD DUP2 LT PUSH2 0x1AE5 JUMPI PUSH2 0x1AE5 PUSH2 0x2600 JUMP JUMPDEST PUSH1 0x20 MUL PUSH1 0x20 ADD ADD MLOAD DUP3 DUP5 PUSH2 0x1F50 JUMP JUMPDEST PUSH1 0x1 SWAP5 POP POP POP POP PUSH2 0x1B12 JUMP JUMPDEST DUP1 PUSH2 0x1B0A DUP2 PUSH2 0x2616 JUMP JUMPDEST SWAP2 POP POP PUSH2 0x17D3 JUMP JUMPDEST POP DUP1 DUP1 PUSH2 0x1B47 JUMPI POP PUSH2 0x1B47 DUP8 DUP4 DUP2 MLOAD DUP2 LT PUSH2 0x1B2F JUMPI PUSH2 0x1B2F PUSH2 0x2600 JUMP JUMPDEST PUSH1 0x20 MUL PUSH1 0x20 ADD ADD MLOAD PUSH1 0xD PUSH2 0x1DE1 SWAP1 SWAP2 SWAP1 PUSH4 0xFFFFFFFF AND JUMP JUMPDEST PUSH1 0x40 MLOAD DUP1 PUSH1 0x40 ADD PUSH1 0x40 MSTORE DUP1 PUSH1 0x2 DUP2 MSTORE PUSH1 0x20 ADD PUSH2 0x343 PUSH1 0xF4 SHL DUP2 MSTORE POP SWAP1 PUSH2 0x1B80 JUMPI PUSH1 0x40 MLOAD PUSH3 0x461BCD PUSH1 0xE5 SHL DUP2 MSTORE PUSH1 0x4 ADD PUSH2 0x4ED SWAP2 SWAP1 PUSH2 0x2576 JUMP JUMPDEST POP POP DUP1 DUP1 PUSH2 0x1B8D SWAP1 PUSH2 0x2616 JUMP JUMPDEST SWAP2 POP POP PUSH2 0x17C6 JUMP JUMPDEST POP PUSH1 0x0 DUP2 PUSH8 0xFFFFFFFFFFFFFFFF DUP2 GT ISZERO PUSH2 0x1BB1 JUMPI PUSH2 0x1BB1 PUSH2 0x22FC JUMP JUMPDEST PUSH1 0x40 MLOAD SWAP1 DUP1 DUP3 MSTORE DUP1 PUSH1 0x20 MUL PUSH1 0x20 ADD DUP3 ADD PUSH1 0x40 MSTORE DUP1 ISZERO PUSH2 0x1BDA JUMPI DUP2 PUSH1 0x20 ADD PUSH1 0x20 DUP3 MUL DUP1 CALLDATASIZE DUP4 CALLDATACOPY ADD SWAP1 POP JUMPDEST POP SWAP1 POP PUSH1 0x0 JUMPDEST DUP3 DUP2 LT ISZERO PUSH2 0x1C31 JUMPI DUP4 DUP2 DUP2 MLOAD DUP2 LT PUSH2 0x1BFA JUMPI PUSH2 0x1BFA PUSH2 0x2600 JUMP JUMPDEST PUSH1 0x20 MUL PUSH1 0x20 ADD ADD MLOAD DUP3 DUP3 DUP2 MLOAD DUP2 LT PUSH2 0x1C14 JUMPI PUSH2 0x1C14 PUSH2 0x2600 JUMP JUMPDEST PUSH1 0x20 SWAP1 DUP2 MUL SWAP2 SWAP1 SWAP2 ADD ADD MSTORE DUP1 PUSH2 0x1C29 DUP2 PUSH2 0x2616 JUMP JUMPDEST SWAP2 POP POP PUSH2 0x1BE0 JUMP JUMPDEST POP SWAP6 SWAP5 POP POP POP POP POP JUMP JUMPDEST PUSH1 0x0 PUSH2 0x1C47 DUP4 DUP4 PUSH2 0x6A0 JUMP JUMPDEST SWAP1 POP PUSH1 0x0 PUSH2 0x1C5F DUP3 PUSH2 0x1C59 DUP8 DUP3 PUSH2 0x1FC2 JUMP JUMPDEST SWAP1 PUSH2 0x1E03 JUMP JUMPDEST SWAP1 POP PUSH1 0x5 SLOAD DUP2 GT ISZERO PUSH1 0x40 MLOAD DUP1 PUSH1 0x40 ADD PUSH1 0x40 MSTORE DUP1 PUSH1 0x2 DUP2 MSTORE PUSH1 0x20 ADD PUSH2 0x3435 PUSH1 0xF0 SHL DUP2 MSTORE POP SWAP1 PUSH2 0x1CA0 JUMPI PUSH1 0x40 MLOAD PUSH3 0x461BCD PUSH1 0xE5 SHL DUP2 MSTORE PUSH1 0x4 ADD PUSH2 0x4ED SWAP2 SWAP1 PUSH2 0x2576 JUMP JUMPDEST POP POP POP POP POP POP JUMP JUMPDEST PUSH1 0x0 DUP1 PUSH2 0x1CB5 DUP4 DUP6 PUSH2 0x27BE JUMP JUMPDEST SWAP1 POP PUSH2 0x1CC9 PUSH8 0xDE0B6B3A7640000 DUP3 PUSH2 0x2788 JUMP JUMPDEST SWAP5 SWAP4 POP POP POP POP JUMP JUMPDEST PUSH1 0x0 PUSH2 0x151D DUP4 PUSH1 0x1 PUSH1 0x1 PUSH1 0xA0 SHL SUB DUP5 AND PUSH2 0x1FE5 JUMP JUMPDEST PUSH1 0x0 PUSH2 0x7BE DUP3 SLOAD SWAP1 JUMP JUMPDEST PUSH1 0x0 PUSH2 0x151D DUP4 DUP4 PUSH2 0x20D8 JUMP JUMPDEST PUSH1 0x0 DUP2 DUP2 MSTORE PUSH1 0x1 DUP4 ADD PUSH1 0x20 MSTORE PUSH1 0x40 DUP2 KECCAK256 SLOAD PUSH2 0x1D43 JUMPI POP DUP2 SLOAD PUSH1 0x1 DUP2 DUP2 ADD DUP5 SSTORE PUSH1 0x0 DUP5 DUP2 MSTORE PUSH1 0x20 DUP1 DUP3 KECCAK256 SWAP1 SWAP4 ADD DUP5 SWAP1 SSTORE DUP5 SLOAD DUP5 DUP3 MSTORE DUP3 DUP7 ADD SWAP1 SWAP4 MSTORE PUSH1 0x40 SWAP1 KECCAK256 SWAP2 SWAP1 SWAP2 SSTORE PUSH2 0x7BE JUMP JUMPDEST POP PUSH1 0x0 PUSH2 0x7BE JUMP JUMPDEST PUSH1 0x60 DUP2 PUSH1 0x0 ADD DUP1 SLOAD DUP1 PUSH1 0x20 MUL PUSH1 0x20 ADD PUSH1 0x40 MLOAD SWAP1 DUP2 ADD PUSH1 0x40 MSTORE DUP1 SWAP3 SWAP2 SWAP1 DUP2 DUP2 MSTORE PUSH1 0x20 ADD DUP3 DUP1 SLOAD DUP1 ISZERO PUSH2 0x1D9B JUMPI PUSH1 0x20 MUL DUP3 ADD SWAP2 SWAP1 PUSH1 0x0 MSTORE PUSH1 0x20 PUSH1 0x0 KECCAK256 SWAP1 JUMPDEST DUP2 SLOAD DUP2 MSTORE PUSH1 0x20 ADD SWAP1 PUSH1 0x1 ADD SWAP1 DUP1 DUP4 GT PUSH2 0x1D87 JUMPI JUMPDEST POP POP POP POP POP SWAP1 POP SWAP2 SWAP1 POP JUMP JUMPDEST PUSH1 0x60 PUSH2 0x1DC2 DUP3 PUSH1 0x0 PUSH1 0x1 DUP6 MLOAD PUSH2 0x1DBD SWAP2 SWAP1 PUSH2 0x25ED JUMP JUMPDEST PUSH2 0x2102 JUMP JUMPDEST POP SWAP1 JUMP JUMPDEST PUSH1 0x0 PUSH2 0x1DD5 PUSH1 0x2 DUP5 DUP5 XOR PUSH2 0x2788 JUMP JUMPDEST PUSH2 0x151D SWAP1 DUP5 DUP5 AND PUSH2 0x25DA JUMP JUMPDEST PUSH1 0x1 PUSH1 0x1 PUSH1 0xA0 SHL SUB DUP2 AND PUSH1 0x0 SWAP1 DUP2 MSTORE PUSH1 0x1 DUP4 ADD PUSH1 0x20 MSTORE PUSH1 0x40 DUP2 KECCAK256 SLOAD ISZERO ISZERO PUSH2 0x151D JUMP JUMPDEST PUSH1 0x40 DUP1 MLOAD DUP1 DUP3 ADD SWAP1 SWAP2 MSTORE PUSH1 0x2 DUP2 MSTORE PUSH2 0x3235 PUSH1 0xF0 SHL PUSH1 0x20 DUP3 ADD MSTORE PUSH1 0x0 SWAP1 DUP3 PUSH2 0x1E3D JUMPI PUSH1 0x40 MLOAD PUSH3 0x461BCD PUSH1 0xE5 SHL DUP2 MSTORE PUSH1 0x4 ADD PUSH2 0x4ED SWAP2 SWAP1 PUSH2 0x2576 JUMP JUMPDEST POP DUP3 PUSH1 0x0 SUB PUSH2 0x1E4E JUMPI POP PUSH1 0x0 PUSH2 0x7BE JUMP JUMPDEST PUSH1 0x0 PUSH2 0x1E62 PUSH8 0xDE0B6B3A7640000 DUP6 PUSH2 0x27BE JUMP JUMPDEST SWAP1 POP PUSH2 0x6B5 DUP4 DUP3 PUSH2 0x2788 JUMP JUMPDEST PUSH1 0x0 DUP1 JUMPDEST DUP4 MLOAD DUP2 LT ISZERO PUSH2 0x1EE1 JUMPI DUP5 PUSH1 0x1 PUSH1 0x1 PUSH1 0xA0 SHL SUB AND DUP5 DUP3 DUP2 MLOAD DUP2 LT PUSH2 0x1E97 JUMPI PUSH2 0x1E97 PUSH2 0x2600 JUMP JUMPDEST PUSH1 0x20 MUL PUSH1 0x20 ADD ADD MLOAD PUSH1 0x1 PUSH1 0x1 PUSH1 0xA0 SHL SUB AND SUB PUSH2 0x1ECF JUMPI DUP3 DUP2 DUP2 MLOAD DUP2 LT PUSH2 0x1EBF JUMPI PUSH2 0x1EBF PUSH2 0x2600 JUMP JUMPDEST PUSH1 0x20 MUL PUSH1 0x20 ADD ADD MLOAD SWAP2 POP POP PUSH2 0x151D JUMP JUMPDEST DUP1 PUSH2 0x1ED9 DUP2 PUSH2 0x2616 JUMP JUMPDEST SWAP2 POP POP PUSH2 0x1E72 JUMP JUMPDEST POP PUSH1 0x2 SLOAD PUSH1 0x40 MLOAD PUSH4 0x5708447D PUSH1 0xE0 SHL DUP2 MSTORE PUSH1 0x1 PUSH1 0x1 PUSH1 0xA0 SHL SUB DUP7 DUP2 AND PUSH1 0x4 DUP4 ADD MSTORE SWAP1 SWAP2 AND SWAP1 PUSH4 0x5708447D SWAP1 PUSH1 0x24 ADD PUSH1 0x20 PUSH1 0x40 MLOAD DUP1 DUP4 SUB DUP2 DUP7 GAS STATICCALL ISZERO DUP1 ISZERO PUSH2 0x1F2C JUMPI RETURNDATASIZE PUSH1 0x0 DUP1 RETURNDATACOPY RETURNDATASIZE PUSH1 0x0 REVERT JUMPDEST POP POP POP POP PUSH1 0x40 MLOAD RETURNDATASIZE PUSH1 0x1F NOT PUSH1 0x1F DUP3 ADD AND DUP3 ADD DUP1 PUSH1 0x40 MSTORE POP DUP2 ADD SWAP1 PUSH2 0x1CC9 SWAP2 SWAP1 PUSH2 0x2745 JUMP JUMPDEST PUSH1 0x0 PUSH2 0x1F5C DUP5 DUP5 PUSH2 0x1E03 JUMP JUMPDEST SWAP1 POP PUSH1 0x0 PUSH2 0x1F6A DUP4 DUP4 PUSH2 0x1FC2 JUMP JUMPDEST SWAP1 POP PUSH1 0x0 PUSH2 0x1F78 DUP3 DUP6 PUSH2 0x1E03 JUMP JUMPDEST SWAP1 POP PUSH1 0x6 SLOAD DUP2 GT ISZERO PUSH1 0x40 MLOAD DUP1 PUSH1 0x40 ADD PUSH1 0x40 MSTORE DUP1 PUSH1 0x2 DUP2 MSTORE PUSH1 0x20 ADD PUSH2 0x3431 PUSH1 0xF0 SHL DUP2 MSTORE POP SWAP1 PUSH2 0x1FB9 JUMPI PUSH1 0x40 MLOAD PUSH3 0x461BCD PUSH1 0xE5 SHL DUP2 MSTORE PUSH1 0x4 ADD PUSH2 0x4ED SWAP2 SWAP1 PUSH2 0x2576 JUMP JUMPDEST POP POP POP POP POP POP POP JUMP JUMPDEST PUSH1 0x0 DUP2 DUP4 LT ISZERO PUSH2 0x1FDB JUMPI PUSH2 0x1FD6 DUP4 DUP4 PUSH2 0x25ED JUMP JUMPDEST PUSH2 0x151D JUMP JUMPDEST PUSH2 0x151D DUP3 DUP5 PUSH2 0x25ED JUMP JUMPDEST PUSH1 0x0 DUP2 DUP2 MSTORE PUSH1 0x1 DUP4 ADD PUSH1 0x20 MSTORE PUSH1 0x40 DUP2 KECCAK256 SLOAD DUP1 ISZERO PUSH2 0x20CE JUMPI PUSH1 0x0 PUSH2 0x2009 PUSH1 0x1 DUP4 PUSH2 0x25ED JUMP JUMPDEST DUP6 SLOAD SWAP1 SWAP2 POP PUSH1 0x0 SWAP1 PUSH2 0x201D SWAP1 PUSH1 0x1 SWAP1 PUSH2 0x25ED JUMP JUMPDEST SWAP1 POP DUP2 DUP2 EQ PUSH2 0x2082 JUMPI PUSH1 0x0 DUP7 PUSH1 0x0 ADD DUP3 DUP2 SLOAD DUP2 LT PUSH2 0x203D JUMPI PUSH2 0x203D PUSH2 0x2600 JUMP JUMPDEST SWAP1 PUSH1 0x0 MSTORE PUSH1 0x20 PUSH1 0x0 KECCAK256 ADD SLOAD SWAP1 POP DUP1 DUP8 PUSH1 0x0 ADD DUP5 DUP2 SLOAD DUP2 LT PUSH2 0x2060 JUMPI PUSH2 0x2060 PUSH2 0x2600 JUMP JUMPDEST PUSH1 0x0 SWAP2 DUP3 MSTORE PUSH1 0x20 DUP1 DUP4 KECCAK256 SWAP1 SWAP2 ADD SWAP3 SWAP1 SWAP3 SSTORE SWAP2 DUP3 MSTORE PUSH1 0x1 DUP9 ADD SWAP1 MSTORE PUSH1 0x40 SWAP1 KECCAK256 DUP4 SWAP1 SSTORE JUMPDEST DUP6 SLOAD DUP7 SWAP1 DUP1 PUSH2 0x2093 JUMPI PUSH2 0x2093 PUSH2 0x27D5 JUMP JUMPDEST PUSH1 0x1 SWAP1 SUB DUP2 DUP2 SWAP1 PUSH1 0x0 MSTORE PUSH1 0x20 PUSH1 0x0 KECCAK256 ADD PUSH1 0x0 SWAP1 SSTORE SWAP1 SSTORE DUP6 PUSH1 0x1 ADD PUSH1 0x0 DUP7 DUP2 MSTORE PUSH1 0x20 ADD SWAP1 DUP2 MSTORE PUSH1 0x20 ADD PUSH1 0x0 KECCAK256 PUSH1 0x0 SWAP1 SSTORE PUSH1 0x1 SWAP4 POP POP POP POP PUSH2 0x7BE JUMP JUMPDEST PUSH1 0x0 SWAP2 POP POP PUSH2 0x7BE JUMP JUMPDEST PUSH1 0x0 DUP3 PUSH1 0x0 ADD DUP3 DUP2 SLOAD DUP2 LT PUSH2 0x20EF JUMPI PUSH2 0x20EF PUSH2 0x2600 JUMP JUMPDEST SWAP1 PUSH1 0x0 MSTORE PUSH1 0x20 PUSH1 0x0 KECCAK256 ADD SLOAD SWAP1 POP SWAP3 SWAP2 POP POP JUMP JUMPDEST DUP2 DUP2 DUP1 DUP3 SUB PUSH2 0x2112 JUMPI POP POP POP POP POP JUMP JUMPDEST PUSH1 0x0 DUP6 PUSH1 0x2 PUSH2 0x2121 DUP8 DUP8 PUSH2 0x27EB JUMP JUMPDEST PUSH2 0x212B SWAP2 SWAP1 PUSH2 0x280B JUMP JUMPDEST PUSH2 0x2135 SWAP1 DUP8 PUSH2 0x2839 JUMP JUMPDEST DUP2 MLOAD DUP2 LT PUSH2 0x2145 JUMPI PUSH2 0x2145 PUSH2 0x2600 JUMP JUMPDEST PUSH1 0x20 MUL PUSH1 0x20 ADD ADD MLOAD SWAP1 POP JUMPDEST DUP2 DUP4 SGT PUSH2 0x2254 JUMPI JUMPDEST DUP1 DUP7 DUP5 DUP2 MLOAD DUP2 LT PUSH2 0x216B JUMPI PUSH2 0x216B PUSH2 0x2600 JUMP JUMPDEST PUSH1 0x20 MUL PUSH1 0x20 ADD ADD MLOAD LT ISZERO PUSH2 0x218B JUMPI DUP3 PUSH2 0x2183 DUP2 PUSH2 0x2861 JUMP JUMPDEST SWAP4 POP POP PUSH2 0x2158 JUMP JUMPDEST DUP6 DUP3 DUP2 MLOAD DUP2 LT PUSH2 0x219D JUMPI PUSH2 0x219D PUSH2 0x2600 JUMP JUMPDEST PUSH1 0x20 MUL PUSH1 0x20 ADD ADD MLOAD DUP2 LT ISZERO PUSH2 0x21BE JUMPI DUP2 PUSH2 0x21B6 DUP2 PUSH2 0x2879 JUMP JUMPDEST SWAP3 POP POP PUSH2 0x218B JUMP JUMPDEST DUP2 DUP4 SGT PUSH2 0x224F JUMPI DUP6 DUP3 DUP2 MLOAD DUP2 LT PUSH2 0x21D7 JUMPI PUSH2 0x21D7 PUSH2 0x2600 JUMP JUMPDEST PUSH1 0x20 MUL PUSH1 0x20 ADD ADD MLOAD DUP7 DUP5 DUP2 MLOAD DUP2 LT PUSH2 0x21F1 JUMPI PUSH2 0x21F1 PUSH2 0x2600 JUMP JUMPDEST PUSH1 0x20 MUL PUSH1 0x20 ADD ADD MLOAD DUP8 DUP6 DUP2 MLOAD DUP2 LT PUSH2 0x220B JUMPI PUSH2 0x220B PUSH2 0x2600 JUMP JUMPDEST PUSH1 0x20 MUL PUSH1 0x20 ADD ADD DUP9 DUP6 DUP2 MLOAD DUP2 LT PUSH2 0x2224 JUMPI PUSH2 0x2224 PUSH2 0x2600 JUMP JUMPDEST PUSH1 0x20 SWAP1 DUP2 MUL SWAP2 SWAP1 SWAP2 ADD ADD SWAP2 SWAP1 SWAP2 MSTORE MSTORE DUP3 PUSH2 0x223D DUP2 PUSH2 0x2861 JUMP JUMPDEST SWAP4 POP POP DUP2 DUP1 PUSH2 0x224B SWAP1 PUSH2 0x2879 JUMP JUMPDEST SWAP3 POP POP JUMPDEST PUSH2 0x2150 JUMP JUMPDEST DUP2 DUP6 SLT ISZERO PUSH2 0x2267 JUMPI PUSH2 0x2267 DUP7 DUP7 DUP5 PUSH2 0x2102 JUMP JUMPDEST DUP4 DUP4 SLT ISZERO PUSH2 0x1CA0 JUMPI PUSH2 0x1CA0 DUP7 DUP5 DUP7 PUSH2 0x2102 JUMP JUMPDEST PUSH1 0x1 PUSH1 0x1 PUSH1 0xA0 SHL SUB DUP2 AND DUP2 EQ PUSH2 0x228F JUMPI PUSH1 0x0 DUP1 REVERT JUMPDEST POP JUMP JUMPDEST PUSH1 0x0 PUSH1 0x20 DUP3 DUP5 SUB SLT ISZERO PUSH2 0x22A4 JUMPI PUSH1 0x0 DUP1 REVERT JUMPDEST DUP2 CALLDATALOAD PUSH2 0x151D DUP2 PUSH2 0x227A JUMP JUMPDEST PUSH1 0x20 DUP1 DUP3 MSTORE DUP3 MLOAD DUP3 DUP3 ADD DUP2 SWAP1 MSTORE PUSH1 0x0 SWAP2 SWAP1 DUP5 DUP3 ADD SWAP1 PUSH1 0x40 DUP6 ADD SWAP1 DUP5 JUMPDEST DUP2 DUP2 LT ISZERO PUSH2 0x22F0 JUMPI DUP4 MLOAD PUSH1 0x1 PUSH1 0x1 PUSH1 0xA0 SHL SUB AND DUP4 MSTORE SWAP3 DUP5 ADD SWAP3 SWAP2 DUP5 ADD SWAP2 PUSH1 0x1 ADD PUSH2 0x22CB JUMP JUMPDEST POP SWAP1 SWAP7 SWAP6 POP POP POP POP POP POP JUMP JUMPDEST PUSH4 0x4E487B71 PUSH1 0xE0 SHL PUSH1 0x0 MSTORE PUSH1 0x41 PUSH1 0x4 MSTORE PUSH1 0x24 PUSH1 0x0 REVERT JUMPDEST PUSH1 0x40 MLOAD PUSH1 0x1F DUP3 ADD PUSH1 0x1F NOT AND DUP2 ADD PUSH8 0xFFFFFFFFFFFFFFFF DUP2 GT DUP3 DUP3 LT OR ISZERO PUSH2 0x233B JUMPI PUSH2 0x233B PUSH2 0x22FC JUMP JUMPDEST PUSH1 0x40 MSTORE SWAP2 SWAP1 POP JUMP JUMPDEST PUSH1 0x0 PUSH8 0xFFFFFFFFFFFFFFFF DUP3 GT ISZERO PUSH2 0x235D JUMPI PUSH2 0x235D PUSH2 0x22FC JUMP JUMPDEST POP PUSH1 0x5 SHL PUSH1 0x20 ADD SWAP1 JUMP JUMPDEST PUSH1 0x0 PUSH1 0x20 DUP1 DUP4 DUP6 SUB SLT ISZERO PUSH2 0x237A JUMPI PUSH1 0x0 DUP1 REVERT JUMPDEST DUP3 CALLDATALOAD PUSH8 0xFFFFFFFFFFFFFFFF DUP2 GT ISZERO PUSH2 0x2391 JUMPI PUSH1 0x0 DUP1 REVERT JUMPDEST DUP4 ADD PUSH1 0x1F DUP2 ADD DUP6 SGT PUSH2 0x23A2 JUMPI PUSH1 0x0 DUP1 REVERT JUMPDEST DUP1 CALLDATALOAD PUSH2 0x23B5 PUSH2 0x23B0 DUP3 PUSH2 0x2343 JUMP JUMPDEST PUSH2 0x2312 JUMP JUMPDEST DUP2 DUP2 MSTORE PUSH1 0x5 SWAP2 SWAP1 SWAP2 SHL DUP3 ADD DUP4 ADD SWAP1 DUP4 DUP2 ADD SWAP1 DUP8 DUP4 GT ISZERO PUSH2 0x23D4 JUMPI PUSH1 0x0 DUP1 REVERT JUMPDEST SWAP3 DUP5 ADD SWAP3 JUMPDEST DUP3 DUP5 LT ISZERO PUSH2 0x23FB JUMPI DUP4 CALLDATALOAD PUSH2 0x23EC DUP2 PUSH2 0x227A JUMP JUMPDEST DUP3 MSTORE SWAP3 DUP5 ADD SWAP3 SWAP1 DUP5 ADD SWAP1 PUSH2 0x23D9 JUMP JUMPDEST SWAP8 SWAP7 POP POP POP POP POP POP POP JUMP JUMPDEST PUSH1 0x0 DUP2 MLOAD DUP1 DUP5 MSTORE PUSH1 0x20 DUP1 DUP6 ADD SWAP5 POP DUP1 DUP5 ADD PUSH1 0x0 JUMPDEST DUP4 DUP2 LT ISZERO PUSH2 0x2436 JUMPI DUP2 MLOAD DUP8 MSTORE SWAP6 DUP3 ADD SWAP6 SWAP1 DUP3 ADD SWAP1 PUSH1 0x1 ADD PUSH2 0x241A JUMP JUMPDEST POP SWAP5 SWAP6 SWAP5 POP POP POP POP POP JUMP JUMPDEST PUSH1 0x20 DUP2 MSTORE PUSH1 0x0 PUSH2 0x151D PUSH1 0x20 DUP4 ADD DUP5 PUSH2 0x2406 JUMP JUMPDEST PUSH1 0x0 DUP3 PUSH1 0x1F DUP4 ADD SLT PUSH2 0x2465 JUMPI PUSH1 0x0 DUP1 REVERT JUMPDEST DUP2 CALLDATALOAD PUSH1 0x20 PUSH2 0x2475 PUSH2 0x23B0 DUP4 PUSH2 0x2343 JUMP JUMPDEST DUP3 DUP2 MSTORE PUSH1 0x5 SWAP3 SWAP1 SWAP3 SHL DUP5 ADD DUP2 ADD SWAP2 DUP2 DUP2 ADD SWAP1 DUP7 DUP5 GT ISZERO PUSH2 0x2494 JUMPI PUSH1 0x0 DUP1 REVERT JUMPDEST DUP3 DUP7 ADD JUMPDEST DUP5 DUP2 LT ISZERO PUSH2 0x24AF JUMPI DUP1 CALLDATALOAD DUP4 MSTORE SWAP2 DUP4 ADD SWAP2 DUP4 ADD PUSH2 0x2498 JUMP JUMPDEST POP SWAP7 SWAP6 POP POP POP POP POP POP JUMP JUMPDEST PUSH1 0x0 DUP1 PUSH1 0x40 DUP4 DUP6 SUB SLT ISZERO PUSH2 0x24CD JUMPI PUSH1 0x0 DUP1 REVERT JUMPDEST DUP3 CALLDATALOAD PUSH8 0xFFFFFFFFFFFFFFFF DUP1 DUP3 GT ISZERO PUSH2 0x24E5 JUMPI PUSH1 0x0 DUP1 REVERT JUMPDEST PUSH2 0x24F1 DUP7 DUP4 DUP8 ADD PUSH2 0x2454 JUMP JUMPDEST SWAP4 POP PUSH1 0x20 DUP6 ADD CALLDATALOAD SWAP2 POP DUP1 DUP3 GT ISZERO PUSH2 0x2507 JUMPI PUSH1 0x0 DUP1 REVERT JUMPDEST POP PUSH2 0x2514 DUP6 DUP3 DUP7 ADD PUSH2 0x2454 JUMP JUMPDEST SWAP2 POP POP SWAP3 POP SWAP3 SWAP1 POP JUMP JUMPDEST PUSH1 0x0 PUSH1 0x20 DUP3 DUP5 SUB SLT ISZERO PUSH2 0x2530 JUMPI PUSH1 0x0 DUP1 REVERT JUMPDEST POP CALLDATALOAD SWAP2 SWAP1 POP JUMP JUMPDEST PUSH1 0x80 DUP2 MSTORE PUSH1 0x0 PUSH2 0x254A PUSH1 0x80 DUP4 ADD DUP8 PUSH2 0x2406 JUMP JUMPDEST DUP6 PUSH1 0x20 DUP5 ADD MSTORE DUP3 DUP2 SUB PUSH1 0x40 DUP5 ADD MSTORE PUSH2 0x2562 DUP2 DUP7 PUSH2 0x2406 JUMP JUMPDEST SWAP1 POP DUP3 DUP2 SUB PUSH1 0x60 DUP5 ADD MSTORE PUSH2 0x23FB DUP2 DUP6 PUSH2 0x2406 JUMP JUMPDEST PUSH1 0x0 PUSH1 0x20 DUP1 DUP4 MSTORE DUP4 MLOAD DUP1 DUP3 DUP6 ADD MSTORE PUSH1 0x0 JUMPDEST DUP2 DUP2 LT ISZERO PUSH2 0x25A3 JUMPI DUP6 DUP2 ADD DUP4 ADD MLOAD DUP6 DUP3 ADD PUSH1 0x40 ADD MSTORE DUP3 ADD PUSH2 0x2587 JUMP JUMPDEST POP PUSH1 0x0 PUSH1 0x40 DUP3 DUP7 ADD ADD MSTORE PUSH1 0x40 PUSH1 0x1F NOT PUSH1 0x1F DUP4 ADD AND DUP6 ADD ADD SWAP3 POP POP POP SWAP3 SWAP2 POP POP JUMP JUMPDEST PUSH4 0x4E487B71 PUSH1 0xE0 SHL PUSH1 0x0 MSTORE PUSH1 0x11 PUSH1 0x4 MSTORE PUSH1 0x24 PUSH1 0x0 REVERT JUMPDEST DUP1 DUP3 ADD DUP1 DUP3 GT ISZERO PUSH2 0x7BE JUMPI PUSH2 0x7BE PUSH2 0x25C4 JUMP JUMPDEST DUP2 DUP2 SUB DUP2 DUP2 GT ISZERO PUSH2 0x7BE JUMPI PUSH2 0x7BE PUSH2 0x25C4 JUMP JUMPDEST PUSH4 0x4E487B71 PUSH1 0xE0 SHL PUSH1 0x0 MSTORE PUSH1 0x32 PUSH1 0x4 MSTORE PUSH1 0x24 PUSH1 0x0 REVERT JUMPDEST PUSH1 0x0 PUSH1 0x1 DUP3 ADD PUSH2 0x2628 JUMPI PUSH2 0x2628 PUSH2 0x25C4 JUMP JUMPDEST POP PUSH1 0x1 ADD SWAP1 JUMP JUMPDEST PUSH1 0x0 DUP3 PUSH1 0x1F DUP4 ADD SLT PUSH2 0x2640 JUMPI PUSH1 0x0 DUP1 REVERT JUMPDEST DUP2 MLOAD PUSH1 0x20 PUSH2 0x2650 PUSH2 0x23B0 DUP4 PUSH2 0x2343 JUMP JUMPDEST DUP3 DUP2 MSTORE PUSH1 0x5 SWAP3 SWAP1 SWAP3 SHL DUP5 ADD DUP2 ADD SWAP2 DUP2 DUP2 ADD SWAP1 DUP7 DUP5 GT ISZERO PUSH2 0x266F JUMPI PUSH1 0x0 DUP1 REVERT JUMPDEST DUP3 DUP7 ADD JUMPDEST DUP5 DUP2 LT ISZERO PUSH2 0x24AF JUMPI DUP1 MLOAD DUP4 MSTORE SWAP2 DUP4 ADD SWAP2 DUP4 ADD PUSH2 0x2673 JUMP JUMPDEST PUSH1 0x0 DUP1 PUSH1 0x40 DUP4 DUP6 SUB SLT ISZERO PUSH2 0x269D JUMPI PUSH1 0x0 DUP1 REVERT JUMPDEST DUP3 MLOAD PUSH8 0xFFFFFFFFFFFFFFFF DUP1 DUP3 GT ISZERO PUSH2 0x26B5 JUMPI PUSH1 0x0 DUP1 REVERT JUMPDEST DUP2 DUP6 ADD SWAP2 POP DUP6 PUSH1 0x1F DUP4 ADD SLT PUSH2 0x26C9 JUMPI PUSH1 0x0 DUP1 REVERT JUMPDEST DUP2 MLOAD PUSH1 0x20 PUSH2 0x26D9 PUSH2 0x23B0 DUP4 PUSH2 0x2343 JUMP JUMPDEST DUP3 DUP2 MSTORE PUSH1 0x5 SWAP3 SWAP1 SWAP3 SHL DUP5 ADD DUP2 ADD SWAP2 DUP2 DUP2 ADD SWAP1 DUP10 DUP5 GT ISZERO PUSH2 0x26F8 JUMPI PUSH1 0x0 DUP1 REVERT JUMPDEST SWAP5 DUP3 ADD SWAP5 JUMPDEST DUP4 DUP7 LT ISZERO PUSH2 0x271F JUMPI DUP6 MLOAD PUSH2 0x2710 DUP2 PUSH2 0x227A JUMP JUMPDEST DUP3 MSTORE SWAP5 DUP3 ADD SWAP5 SWAP1 DUP3 ADD SWAP1 PUSH2 0x26FD JUMP JUMPDEST SWAP2 DUP9 ADD MLOAD SWAP2 SWAP7 POP SWAP1 SWAP4 POP POP POP DUP1 DUP3 GT ISZERO PUSH2 0x2738 JUMPI PUSH1 0x0 DUP1 REVERT JUMPDEST POP PUSH2 0x2514 DUP6 DUP3 DUP7 ADD PUSH2 0x262F JUMP JUMPDEST PUSH1 0x0 PUSH1 0x20 DUP3 DUP5 SUB SLT ISZERO PUSH2 0x2757 JUMPI PUSH1 0x0 DUP1 REVERT JUMPDEST POP MLOAD SWAP2 SWAP1 POP JUMP JUMPDEST PUSH4 0x4E487B71 PUSH1 0xE0 SHL PUSH1 0x0 MSTORE PUSH1 0x12 PUSH1 0x4 MSTORE PUSH1 0x24 PUSH1 0x0 REVERT JUMPDEST PUSH1 0x0 DUP3 PUSH2 0x2783 JUMPI PUSH2 0x2783 PUSH2 0x275E JUMP JUMPDEST POP MOD SWAP1 JUMP JUMPDEST PUSH1 0x0 DUP3 PUSH2 0x2797 JUMPI PUSH2 0x2797 PUSH2 0x275E JUMP JUMPDEST POP DIV SWAP1 JUMP JUMPDEST PUSH1 0x0 PUSH1 0x20 DUP3 DUP5 SUB SLT ISZERO PUSH2 0x27AE JUMPI PUSH1 0x0 DUP1 REVERT JUMPDEST DUP2 MLOAD DUP1 ISZERO ISZERO DUP2 EQ PUSH2 0x151D JUMPI PUSH1 0x0 DUP1 REVERT JUMPDEST DUP1 DUP3 MUL DUP2 ISZERO DUP3 DUP3 DIV DUP5 EQ OR PUSH2 0x7BE JUMPI PUSH2 0x7BE PUSH2 0x25C4 JUMP JUMPDEST PUSH4 0x4E487B71 PUSH1 0xE0 SHL PUSH1 0x0 MSTORE PUSH1 0x31 PUSH1 0x4 MSTORE PUSH1 0x24 PUSH1 0x0 REVERT JUMPDEST DUP2 DUP2 SUB PUSH1 0x0 DUP4 SLT DUP1 ISZERO DUP4 DUP4 SGT AND DUP4 DUP4 SLT DUP3 AND OR ISZERO PUSH2 0x7BC JUMPI PUSH2 0x7BC PUSH2 0x25C4 JUMP JUMPDEST PUSH1 0x0 DUP3 PUSH2 0x281A JUMPI PUSH2 0x281A PUSH2 0x275E JUMP JUMPDEST PUSH1 0x1 PUSH1 0xFF SHL DUP3 EQ PUSH1 0x0 NOT DUP5 EQ AND ISZERO PUSH2 0x2834 JUMPI PUSH2 0x2834 PUSH2 0x25C4 JUMP JUMPDEST POP SDIV SWAP1 JUMP JUMPDEST DUP1 DUP3 ADD DUP3 DUP2 SLT PUSH1 0x0 DUP4 SLT DUP1 ISZERO DUP3 AND DUP3 ISZERO DUP3 AND OR ISZERO PUSH2 0x2859 JUMPI PUSH2 0x2859 PUSH2 0x25C4 JUMP JUMPDEST POP POP SWAP3 SWAP2 POP POP JUMP JUMPDEST PUSH1 0x0 PUSH1 0x1 PUSH1 0x1 PUSH1 0xFF SHL ADD DUP3 ADD PUSH2 0x2628 JUMPI PUSH2 0x2628 PUSH2 0x25C4 JUMP JUMPDEST PUSH1 0x0 PUSH1 0x1 PUSH1 0xFF SHL DUP3 ADD PUSH2 0x288E JUMPI PUSH2 0x288E PUSH2 0x25C4 JUMP JUMPDEST POP PUSH1 0x0 NOT ADD SWAP1 JUMP INVALID LOG2 PUSH5 0x6970667358 0x22 SLT KECCAK256 SLT JUMPI PUSH9 0xC4F5E95CC32A1B3D5E 0xF7 0xAF 0xBC PUSH17 0x6A96B3927B55C4B630712F38607604AE64 PUSH20 0x6F6C634300081100330000000000000000000000 ","sha1":"6ab0d02bce67581615e70b28a4c7f034a96dda9d","source":"// SPDX-License-Identifier: LicenseRef-Gyro-1.0\n// for information on licensing please see the README in the GitHub repository <https://github.com/gyrostable/core-protocol>.\npragma solidity ^0.8.4;\n\nimport \"@openzeppelin/contracts/utils/math/Math.sol\";\nimport \"@openzeppelin/contracts/utils/math/SafeCast.sol\";\nimport \"@openzeppelin/contracts/utils/structs/EnumerableSet.sol\";\n\nimport \"../../interfaces/oracles/IUSDPriceOracle.sol\";\nimport \"../../interfaces/oracles/IRelativePriceOracle.sol\";\nimport \"../../interfaces/oracles/IUSDBatchPriceOracle.sol\";\nimport \"../../interfaces/oracles/IRateManager.sol\";\nimport \"../../libraries/EnumerableExtensions.sol\";\n\nimport \"../auth/Governable.sol\";\n\nimport \"../../libraries/Errors.sol\";\nimport \"../../libraries/FixedPoint.sol\";\n\ncontract CheckedPriceOracle is IUSDPriceOracle, IUSDBatchPriceOracle, Governable {\n    using EnumerableSet for EnumerableSet.AddressSet;\n\n    using FixedPoint for uint256;\n    using SafeCast for uint256;\n    using SafeCast for int256;\n\n    uint256 public constant INITIAL_MAX_PCT_WETH_USD_DEVIATION = 0.02e18;\n    uint256 public constant INITIAL_RELATIVE_EPSILON = 0.02e18;\n    uint256 public constant MAX_RELATIVE_EPSILON = 0.1e18;\n\n    address public immutable wethAddress;\n\n    IUSDPriceOracle public usdOracle;\n    IRelativePriceOracle public relativeOracle;\n    IRateManager public rateManager;\n\n    uint256 public maxPctWethUsdDeviation;\n\n    uint256 public relativeEpsilon;\n\n    EnumerableSet.AddressSet internal ethPriceOracles;\n\n    /// These are the addresses of the assets to be paired with ETH e.g. USDC or USDT.\n    /// Subset of (assetsForRelativePriceCheck union ultimate reserve assets).\n    /// Must all be stablecoins.\n    EnumerableSet.AddressSet internal quoteAssetsForPriceLevelTWAPS;\n\n    /// @dev This list is used to check if the relative price of the tokens are consistent\n    EnumerableSet.AddressSet internal assetsForRelativePriceCheck;\n\n    /// @dev Assets in this list are not required to have a relative price\n    EnumerableSet.AddressSet internal assetsWithIgnorableRelativePriceCheck;\n\n    event USDOracleUpdated(address indexed oracle);\n    event RelativeOracleUpdated(address indexed oracle);\n    event RateManagerUpdated(address indexed rateManager);\n\n    event PriceLevelTWAPQuoteAssetAdded(address _addressToAdd);\n    event PriceLevelTWAPQuoteAssetRemoved(address _addressToRemove);\n\n    event AssetForRelativePriceCheckAdded(address _addressToAdd);\n    event AssetForRelativePriceCheckRemoved(address _addressToRemove);\n\n    event TrustedSignerOracleAdded(address _addressToAdd);\n    event TrustedSignerOracleRemoved(address _addressToRemove);\n\n    event AssetsWithIgnorableRelativePriceCheckAdded(address assetToAdd);\n    event AssetsWithIgnorableRelativePriceCheckRemoved(address assetToRemove);\n\n    /// _usdOracle is for Chainlink\n    constructor(\n        address _governor,\n        address _usdOracle,\n        address _relativeOracle,\n        address _rateManager,\n        address _wethAddress\n    ) Governable(_governor) {\n        require(_usdOracle != address(0), Errors.INVALID_ARGUMENT);\n        require(_relativeOracle != address(0), Errors.INVALID_ARGUMENT);\n        usdOracle = IUSDPriceOracle(_usdOracle);\n        relativeOracle = IRelativePriceOracle(_relativeOracle);\n        relativeEpsilon = INITIAL_RELATIVE_EPSILON;\n        wethAddress = _wethAddress;\n        rateManager = IRateManager(_rateManager);\n        maxPctWethUsdDeviation = INITIAL_MAX_PCT_WETH_USD_DEVIATION;\n    }\n\n    function setUSDOracle(address _usdOracle) external governanceOnly {\n        usdOracle = IUSDPriceOracle(_usdOracle);\n        emit USDOracleUpdated(_usdOracle);\n    }\n\n    function setRateManager(address _rateManager) external governanceOnly {\n        rateManager = IRateManager(_rateManager);\n        emit RateManagerUpdated(_rateManager);\n    }\n\n    function setRelativeOracle(address _relativeOracle) external governanceOnly {\n        relativeOracle = IRelativePriceOracle(_relativeOracle);\n        emit RelativeOracleUpdated(_relativeOracle);\n    }\n\n    function addETHPriceOracle(address oracleToAdd) external governanceOnly {\n        ethPriceOracles.add(oracleToAdd);\n        emit TrustedSignerOracleAdded(oracleToAdd);\n    }\n\n    function removeETHPriceOracle(address oracleToRemove) external governanceOnly {\n        ethPriceOracles.remove(oracleToRemove);\n        emit TrustedSignerOracleRemoved(oracleToRemove);\n    }\n\n    function listETHPriceOracles() external view returns (address[] memory) {\n        return ethPriceOracles.values();\n    }\n\n    function addQuoteAssetsForPriceLevelTwap(address _quoteAssetToAdd) external governanceOnly {\n        quoteAssetsForPriceLevelTWAPS.add(_quoteAssetToAdd);\n        emit PriceLevelTWAPQuoteAssetAdded(_quoteAssetToAdd);\n    }\n\n    function listQuoteAssetsForPriceLevelTwap() external view returns (address[] memory) {\n        return quoteAssetsForPriceLevelTWAPS.values();\n    }\n\n    function removeQuoteAssetsForPriceLevelTwap(address _quoteAssetToRemove)\n        external\n        governanceOnly\n    {\n        quoteAssetsForPriceLevelTWAPS.remove(_quoteAssetToRemove);\n        emit PriceLevelTWAPQuoteAssetRemoved(_quoteAssetToRemove);\n    }\n\n    function addAssetForRelativePriceCheck(address assetToAdd) external governanceOnly {\n        assetsForRelativePriceCheck.add(assetToAdd);\n        emit AssetForRelativePriceCheckAdded(assetToAdd);\n    }\n\n    function listAssetForRelativePriceCheck() external view returns (address[] memory) {\n        return assetsForRelativePriceCheck.values();\n    }\n\n    function removeAssetForRelativePriceCheck(address assetToRemove) external governanceOnly {\n        assetsForRelativePriceCheck.remove(assetToRemove);\n        emit AssetForRelativePriceCheckRemoved(assetToRemove);\n    }\n\n    function addAssetsWithIgnorableRelativePriceCheck(address assetToAdd) external governanceOnly {\n        assetsWithIgnorableRelativePriceCheck.add(assetToAdd);\n        emit AssetsWithIgnorableRelativePriceCheckAdded(assetToAdd);\n    }\n\n    function listAssetsWithIgnorableRelativePriceCheck() external view returns (address[] memory) {\n        return assetsWithIgnorableRelativePriceCheck.values();\n    }\n\n    function removeAssetsWithIgnorableRelativePriceCheck(address assetToRemove)\n        external\n        governanceOnly\n    {\n        assetsWithIgnorableRelativePriceCheck.remove(assetToRemove);\n        emit AssetsWithIgnorableRelativePriceCheckRemoved(assetToRemove);\n    }\n\n    function batchRelativePriceCheck(address[] memory tokenAddresses, uint256[] memory prices)\n        internal\n        view\n        returns (uint256[] memory)\n    {\n        uint256[] memory priceLevelTwaps = new uint256[](tokenAddresses.length);\n\n        uint256 k;\n        for (uint256 i = 0; i < tokenAddresses.length; i++) {\n            bool couldCheck = false;\n\n            for (uint256 j = 0; j < assetsForRelativePriceCheck.length(); j++) {\n                address assetForCheck = assetsForRelativePriceCheck.at(j);\n                if (\n                    tokenAddresses[i] == assetForCheck ||\n                    !relativeOracle.isPairSupported(tokenAddresses[i], assetForCheck)\n                ) {\n                    continue;\n                }\n\n                uint256 relativePrice = relativeOracle.getRelativePrice(\n                    tokenAddresses[i],\n                    assetForCheck\n                );\n\n                if (\n                    tokenAddresses[i] == wethAddress &&\n                    quoteAssetsForPriceLevelTWAPS.contains(assetForCheck)\n                ) {\n                    priceLevelTwaps[k] = relativePrice;\n                    k++;\n                } else if (\n                    assetForCheck == wethAddress &&\n                    quoteAssetsForPriceLevelTWAPS.contains(tokenAddresses[i])\n                ) {\n                    priceLevelTwaps[k] = FixedPoint.ONE.divDown(relativePrice);\n                    k++;\n                }\n\n                uint256 assetForCheckPrice = _findPrice(assetForCheck, tokenAddresses, prices);\n                _ensureRelativePriceConsistency(prices[i], assetForCheckPrice, relativePrice);\n\n                couldCheck = true;\n                break;\n            }\n\n            require(\n                couldCheck || assetsWithIgnorableRelativePriceCheck.contains(tokenAddresses[i]),\n                Errors.ASSET_NOT_SUPPORTED\n            );\n        }\n\n        uint256[] memory foundTwaps = new uint256[](k);\n        for (uint256 i = 0; i < k; i++) {\n            foundTwaps[i] = priceLevelTwaps[i];\n        }\n\n        return foundTwaps;\n    }\n\n    /// @inheritdoc IUSDPriceOracle\n    function getPriceUSD(address tokenAddress) public view override returns (uint256) {\n        address[] memory tokenAddresses = new address[](1);\n        tokenAddresses[0] = tokenAddress;\n        uint256[] memory prices = getPricesUSD(tokenAddresses);\n        return prices[0];\n    }\n\n    /// @inheritdoc IUSDBatchPriceOracle\n    function getPricesUSD(address[] memory tokenAddresses)\n        public\n        view\n        override\n        returns (uint256[] memory)\n    {\n        (uint256[] memory prices, , , ) = getPricesUSDWithMetadata(tokenAddresses);\n        return prices;\n    }\n\n    function getPricesUSDWithMetadata(address[] memory tokenAddresses)\n        public\n        view\n        returns (\n            uint256[] memory,\n            uint256,\n            uint256[] memory,\n            uint256[] memory\n        )\n    {\n        require(tokenAddresses.length > 0, Errors.INVALID_ARGUMENT);\n\n        uint256[] memory prices = new uint256[](tokenAddresses.length);\n\n        (address[] memory underlyingTokens, uint256[] memory rates) = rateManager.getTokensAndRates(\n            tokenAddresses\n        );\n\n        /// Will start with this being the WETH/USD price, this can be modified later if desired.\n        uint256 priceLevel;\n\n        for (uint256 i = 0; i < underlyingTokens.length; i++) {\n            prices[i] = usdOracle.getPriceUSD(underlyingTokens[i]);\n            if (underlyingTokens[i] == wethAddress) {\n                priceLevel = prices[i];\n            }\n        }\n\n        // avoid fetching the price of WETH twice\n        if (priceLevel == 0) {\n            priceLevel = usdOracle.getPriceUSD(wethAddress);\n        }\n\n        uint256[] memory priceLevelTwaps = batchRelativePriceCheck(underlyingTokens, prices);\n\n        uint256[] memory ethPrices = getETHPrices();\n\n        _checkPriceLevel(priceLevel, ethPrices, priceLevelTwaps);\n\n        for (uint256 i; i < prices.length; i++) {\n            prices[i] = prices[i].mulDown(rates[i]);\n        }\n\n        return (prices, priceLevel, ethPrices, priceLevelTwaps);\n    }\n\n    function setRelativeMaxEpsilon(uint256 _relativeEpsilon) external governanceOnly {\n        require(_relativeEpsilon > 0, Errors.INVALID_ARGUMENT);\n        require(_relativeEpsilon < MAX_RELATIVE_EPSILON, Errors.INVALID_ARGUMENT);\n\n        relativeEpsilon = _relativeEpsilon;\n    }\n\n    function setMaxPctWethUsdDeviation(uint256 _maxPctWethUsdDeviation) external governanceOnly {\n        maxPctWethUsdDeviation = _maxPctWethUsdDeviation;\n    }\n\n    function _checkPriceLevel(\n        uint256 priceLevel,\n        uint256[] memory signedPrices,\n        uint256[] memory priceLevelTwaps\n    ) internal view {\n        uint256 trueWETH = getRobustWETHPrice(signedPrices, priceLevelTwaps);\n        uint256 relativePriceDifference = priceLevel.absSub(trueWETH).divDown(trueWETH);\n        require(relativePriceDifference <= maxPctWethUsdDeviation, Errors.ROOT_PRICE_NOT_GROUNDED);\n    }\n\n    function _ensureRelativePriceConsistency(\n        uint256 aUSDPrice,\n        uint256 bUSDPrice,\n        uint256 abPrice\n    ) internal view {\n        uint256 abPriceFromUSD = aUSDPrice.divDown(bUSDPrice);\n        uint256 priceDifference = abPrice.absSub(abPriceFromUSD);\n        uint256 relativePriceDifference = priceDifference.divDown(abPrice);\n\n        require(relativePriceDifference <= relativeEpsilon, Errors.STALE_PRICE);\n    }\n\n    function _computeMinOrSecondMin(uint256[] memory twapPrices) internal pure returns (uint256) {\n        // min if there are two, or the 2nd min if more than two\n        if (twapPrices.length == 1) return twapPrices[0];\n        (uint256 min, uint256 secondMin) = twapPrices[0] < twapPrices[1]\n            ? (twapPrices[0], twapPrices[1])\n            : (twapPrices[1], twapPrices[0]);\n        if (twapPrices.length == 2) return min;\n\n        for (uint256 i = 2; i < twapPrices.length; i++) {\n            if (twapPrices[i] < min) {\n                secondMin = min;\n                min = twapPrices[i];\n            } else if (twapPrices[i] < secondMin) {\n                secondMin = twapPrices[i];\n            }\n        }\n        return secondMin;\n    }\n\n    function _findPrice(\n        address target,\n        address[] memory tokenAddresses,\n        uint256[] memory prices\n    ) internal view returns (uint256) {\n        for (uint256 i = 0; i < tokenAddresses.length; i++) {\n            if (tokenAddresses[i] == target) {\n                return prices[i];\n            }\n        }\n        return usdOracle.getPriceUSD(target);\n    }\n\n    function _sort(uint256[] memory data) internal view returns (uint256[] memory) {\n        _quickSort(data, int256(0), int256(data.length - 1));\n        return data;\n    }\n\n    function _quickSort(\n        uint256[] memory arr,\n        int256 left,\n        int256 right\n    ) internal view {\n        int256 i = left;\n        int256 j = right;\n        if (i == j) return;\n        uint256 pivot = arr[uint256(left + (right - left) / 2)];\n        while (i <= j) {\n            while (arr[uint256(i)] < pivot) i++;\n            while (pivot < arr[uint256(j)]) j--;\n            if (i <= j) {\n                (arr[uint256(i)], arr[uint256(j)]) = (arr[uint256(j)], arr[uint256(i)]);\n                i++;\n                j--;\n            }\n        }\n        if (left < j) _quickSort(arr, left, j);\n        if (i < right) _quickSort(arr, i, right);\n    }\n\n    function _median(uint256[] memory array) internal view returns (uint256) {\n        _sort(array);\n        return\n            array.length % 2 == 0\n                ? Math.average(array[array.length / 2 - 1], array[array.length / 2])\n                : array[array.length / 2];\n    }\n\n    function getETHPrices() public view returns (uint256[] memory ethPrices) {\n        uint256[] memory prices = new uint256[](ethPriceOracles.length());\n        uint256 successCount;\n        for (uint256 i; i < ethPriceOracles.length(); i++) {\n            IUSDPriceOracle oracle = IUSDPriceOracle(ethPriceOracles.at(i));\n            try oracle.getPriceUSD(wethAddress) returns (uint256 price) {\n                prices[successCount++] = price;\n            } catch {}\n        }\n        require(successCount > 0, Errors.NO_WETH_PRICE);\n        ethPrices = new uint256[](successCount);\n        for (uint256 i = 0; i < successCount; i++) {\n            ethPrices[i] = prices[i];\n        }\n    }\n\n    /// @notice this function provides an estimate of the true WETH price.\n    /// 1. Find the minimum TWAP price (or second minumum if >2 TWAP prices) from a given array.\n    /// 2. Add this to an array of signed prices\n    /// 3. Compute the median of this array\n    /// @param signedPrices an array of prices from trusted providers (e.g. Chainlink, Coinbase, OKEx ETH/USD price)\n    /// @param twapPrices an array of Time Weighted Moving Average ETH/stablecoin prices\n    function getRobustWETHPrice(uint256[] memory signedPrices, uint256[] memory twapPrices)\n        public\n        view\n        returns (uint256)\n    {\n        uint256 minTWAP;\n        if (twapPrices.length == 0) {\n            return _median(signedPrices);\n        } else {\n            minTWAP = _computeMinOrSecondMin(twapPrices);\n            uint256[] memory prices = new uint256[](signedPrices.length + 1);\n            prices[prices.length - 1] = minTWAP;\n            for (uint256 i = 0; i < prices.length - 1; i++) {\n                prices[i] = signedPrices[i];\n            }\n            return _median(prices);\n        }\n    }\n}\n","sourcePath":"contracts/oracles/CheckedPriceOracle.sol","type":"contract","deployment":{"address":"0x9B337C6dD33F99538A620F2670Be76920fA45287","chainid":"1","blockHeight":18413940}}