{"abi":[{"inputs":[{"internalType":"address","name":"_governor","type":"address"},{"internalType":"address","name":"_gyroConfig","type":"address"},{"components":[{"internalType":"uint64","name":"alphaBar","type":"uint64"},{"internalType":"uint64","name":"xuBar","type":"uint64"},{"internalType":"uint64","name":"thetaBar","type":"uint64"},{"internalType":"uint64","name":"outflowMemory","type":"uint64"}],"internalType":"struct IPAMM.Params","name":"params","type":"tuple"}],"stateMutability":"nonpayable","type":"constructor","name":"constructor"},{"anonymous":false,"inputs":[{"indexed":false,"internalType":"address","name":"newGovernor","type":"address"}],"name":"GovernorChangeRequested","type":"event"},{"anonymous":false,"inputs":[{"indexed":false,"internalType":"address","name":"oldGovernor","type":"address"},{"indexed":false,"internalType":"address","name":"newGovernor","type":"address"}],"name":"GovernorChanged","type":"event"},{"anonymous":false,"inputs":[{"indexed":false,"internalType":"uint64","name":"alphaBar","type":"uint64"},{"indexed":false,"internalType":"uint64","name":"xuBar","type":"uint64"},{"indexed":false,"internalType":"uint64","name":"thetaBar","type":"uint64"},{"indexed":false,"internalType":"uint64","name":"outflowMemory","type":"uint64"}],"name":"SystemParamsUpdated","type":"event"},{"inputs":[],"name":"acceptGovernance","outputs":[],"stateMutability":"nonpayable","type":"function"},{"inputs":[{"internalType":"address","name":"newGovernor","type":"address"}],"name":"changeGovernor","outputs":[],"stateMutability":"nonpayable","type":"function"},{"inputs":[{"internalType":"uint256","name":"usdAmount","type":"uint256"},{"internalType":"uint256","name":"","type":"uint256"}],"name":"computeMintAmount","outputs":[{"internalType":"uint256","name":"","type":"uint256"}],"stateMutability":"pure","type":"function"},{"inputs":[{"internalType":"uint256","name":"gydAmount","type":"uint256"},{"internalType":"uint256","name":"reserveUSDValue","type":"uint256"}],"name":"computeRedeemAmount","outputs":[{"internalType":"uint256","name":"","type":"uint256"}],"stateMutability":"view","type":"function"},{"inputs":[{"internalType":"uint256","name":"reserveUSDValue","type":"uint256"}],"name":"getNormalizedAnchoredReserveValue","outputs":[{"internalType":"uint256","name":"","type":"uint256"}],"stateMutability":"view","type":"function"},{"inputs":[],"name":"governor","outputs":[{"internalType":"address","name":"","type":"address"}],"stateMutability":"view","type":"function"},{"inputs":[],"name":"gyroConfig","outputs":[{"internalType":"contract IGyroConfig","name":"","type":"address"}],"stateMutability":"view","type":"function"},{"inputs":[],"name":"lastRedemptionBlock","outputs":[{"internalType":"uint256","name":"","type":"uint256"}],"stateMutability":"view","type":"function"},{"inputs":[{"internalType":"uint256","name":"usdAmount","type":"uint256"},{"internalType":"uint256","name":"","type":"uint256"}],"name":"mint","outputs":[{"internalType":"uint256","name":"","type":"uint256"}],"stateMutability":"view","type":"function"},{"inputs":[],"name":"pendingGovernor","outputs":[{"internalType":"address","name":"","type":"address"}],"stateMutability":"view","type":"function"},{"inputs":[{"internalType":"uint256","name":"gydAmount","type":"uint256"},{"internalType":"uint256","name":"reserveUSDValue","type":"uint256"}],"name":"redeem","outputs":[{"internalType":"uint256","name":"","type":"uint256"}],"stateMutability":"nonpayable","type":"function"},{"inputs":[],"name":"redemptionLevel","outputs":[{"internalType":"uint256","name":"","type":"uint256"}],"stateMutability":"view","type":"function"},{"inputs":[{"components":[{"internalType":"uint64","name":"alphaBar","type":"uint64"},{"internalType":"uint64","name":"xuBar","type":"uint64"},{"internalType":"uint64","name":"thetaBar","type":"uint64"},{"internalType":"uint64","name":"outflowMemory","type":"uint64"}],"internalType":"struct IPAMM.Params","name":"params","type":"tuple"}],"name":"setSystemParams","outputs":[],"stateMutability":"nonpayable","type":"function"},{"inputs":[],"name":"systemParams","outputs":[{"components":[{"internalType":"uint64","name":"alphaBar","type":"uint64"},{"internalType":"uint64","name":"xuBar","type":"uint64"},{"internalType":"uint64","name":"thetaBar","type":"uint64"},{"internalType":"uint64","name":"outflowMemory","type":"uint64"}],"internalType":"struct IPAMM.Params","name":"","type":"tuple"}],"stateMutability":"view","type":"function"}],"bytecode":"60a06040523480156200001157600080fd5b5060405162002faf38038062002faf833981016040819052620000349162000197565b600080546001600160a01b0319166001600160a01b038516908117825560408051928352602083019190915284917fde4b3f61490b74c0ed6237523974fe299126bbbf8a8a7482fd220104c59b0c84910160405180910390a150604080518082019091526002815261333160f01b60208201526001600160a01b038316620000da5760405162461bcd60e51b8152600401620000d1919062000269565b60405180910390fd5b506001600160a01b03909116608052805160028054602084015160408501516060909501516001600160401b03908116600160c01b026001600160c01b03968216600160801b02969096166001600160801b0392821668010000000000000000026001600160801b0319909416919095161791909117169190911791909117905550620002b9565b80516001600160a01b03811681146200017a57600080fd5b919050565b80516001600160401b03811681146200017a57600080fd5b600080600083850360c0811215620001ae57600080fd5b620001b98562000162565b9350620001c96020860162000162565b92506080603f1982011215620001de57600080fd5b50604051608081016001600160401b03811182821017156200021057634e487b7160e01b600052604160045260246000fd5b806040525062000223604086016200017f565b815262000233606086016200017f565b602082015262000246608086016200017f565b60408201526200025960a086016200017f565b6060820152809150509250925092565b600060208083528351808285015260005b8181101562000298578581018301518582016040015282016200027a565b506000604082860101526040601f19601f8301168501019250505092915050565b608051612cbe620002f16000396000818161016b015281816102c30152818161060b01528181610c7c01526117680152612cbe6000f3fe608060405234801561001057600080fd5b50600436106100ea5760003560e01c80635baaeaab1161008c5780637cbc2373116100665780637cbc2373146102705780639e59085414610283578063e3056a3414610296578063e4c0aaf4146102a957600080fd5b80635baaeaab14610242578063616a1ed91461024b57806371db63ec1461025d57600080fd5b806330a5204a116100c857806330a5204a1461014a578063362141441461015d57806344bbdb5514610166578063458e8e6b1461018d57600080fd5b80630c340a24146100ef5780631b2ef1ca1461011f578063238efcbc14610140575b600080fd5b600054610102906001600160a01b031681565b6040516001600160a01b0390911681526020015b60405180910390f35b61013261012d366004612954565b6102bc565b604051908152602001610116565b610148610351565b005b610132610158366004612976565b610401565b61013260045481565b6101027f000000000000000000000000000000000000000000000000000000000000000081565b6101ff60408051608081018252600080825260208201819052918101829052606081019190915250604080516080810182526002546001600160401b038082168352600160401b820481166020840152600160801b8204811693830193909352600160c01b9004909116606082015290565b604051610116919081516001600160401b039081168252602080840151821690830152604080840151821690830152606092830151169181019190915260800190565b61013260035481565b610132610259366004612954565b5090565b61013261026b366004612954565b61057a565b61013261027e366004612954565b610604565b6101486102913660046129ab565b610727565b600154610102906001600160a01b031681565b6101486102b7366004612a4d565b610860565b60006102f07f00000000000000000000000000000000000000000000000000000000000000006001600160a01b0316610935565b6001600160a01b0316336001600160a01b03161460405180604001604052806002815260200161033360f41b815250906103465760405162461bcd60e51b815260040161033d9190612a6a565b60405180910390fd5b508290505b92915050565b600154604080518082019091526002815261033360f41b6020820152906001600160a01b031633146103965760405162461bcd60e51b815260040161033d9190612a6a565b5060008054600180546001600160a01b03198084166001600160a01b03808416919091179095551690556040805192909116808352336020840152917fde4b3f61490b74c0ed6237523974fe299126bbbf8a8a7482fd220104c59b0c8491015b60405180910390a150565b604080516080810182526002546001600160401b038082168352600160401b820481166020840152600160801b8204811693830193909352600160c01b9004909116606082015260009081610455826109b6565b905060006104638584610bda565b905061048960405180606001604052806000815260200160008152602001600081525090565b8151604083015160009161049c91612ace565b90506104b083602001518460400151610c42565b602084015282516104c19082610d38565b825260208301516104d29082610d38565b602083015260408301516104e69082610d38565b6040830181905260208301516000916104ff9190610d38565b9050670de0b6b3a764000081106105255750670de0b6b3a7640000979650505050505050565b85604001516001600160401b0316811161056357600061055685604001518660200151610d3890919063ffffffff16565b9998505050505050505050565b61056e838787610dab565b98975050505050505050565b60008260000361058c5750600061034b565b604080516080810182526002546001600160401b038082168352600160401b820481166020840152600160801b8204811693830193909352600160c01b9004909116606082015260006105de826109b6565b905060006105ec8584610bda565b90506105fa81848489611279565b9695505050505050565b60006106387f00000000000000000000000000000000000000000000000000000000000000006001600160a01b0316610935565b6001600160a01b0316336001600160a01b03161460405180604001604052806002815260200161033360f41b815250906106855760405162461bcd60e51b815260040161033d9190612a6a565b50826000036106965750600061034b565b604080516080810182526002546001600160401b038082168352600160401b820481166020840152600160801b8204811693830193909352600160c01b9004909116606082015260006106e98483610bda565b905060006106f6836109b6565b905060006107068385848a611279565b8351909150610716908890612ace565b600355436004559695505050505050565b600054604080518082019091526002815261033360f41b6020820152906001600160a01b0316331461076c5760405162461bcd60e51b815260040161033d9190612a6a565b508051600280546020840151604085015160608601516001600160401b03908116600160c01b026001600160c01b03928216600160801b02929092166fffffffffffffffffffffffffffffffff938216600160401b026fffffffffffffffffffffffffffffffff1990951691909616179290921716929092179190911790556107f4816109b6565b507f4c76fdbdf1d037612da5c0dce3f84fb05d29652b0dbc2d66501d683d3df4df8881600001518260200151836040015184606001516040516103f694939291906001600160401b03948516815292841660208401529083166040830152909116606082015260800190565b600054604080518082019091526002815261033360f41b6020820152906001600160a01b031633146108a55760405162461bcd60e51b815260040161033d9190612a6a565b50604080518082019091526002815261333160f01b60208201526001600160a01b0382166108e65760405162461bcd60e51b815260040161033d9190612a6a565b50600180546001600160a01b0319166001600160a01b0383169081179091556040519081527f67235ba2e63c748a35b95c4f92a3bbc2a1389938170a5ce6c9add5d0b03a314a906020016103f6565b6040516321f8a72160e01b8152724d4f54484552424f4152445f4144445245535360681b60048201526000906001600160a01b038316906321f8a72190602401602060405180830381865afa158015610992573d6000803e3d6000fd5b505050506040513d601f19601f8201168201806040525081019061034b9190612ae1565b6109f66040518060e00160405280600081526020016000815260200160008152602001600081526020016000815260200160008152602001600081525090565b610a366040518060e00160405280600081526020016000815260200160008152602001600081526020016000815260200160008152602001600081525090565b610a4d83602001516001600160401b0316846113f8565b8152610a5a6000846113f8565b816020018181525050610a958160000151670de0b6b3a764000085600001516001600160401b031686602001516001600160401b0316611546565b604082015260208101518351610ac09190670de0b6b3a7640000906001600160401b03166000611546565b60608201526040830151600090610ae8906001600160401b0316670de0b6b3a7640000612afe565b8451909150600090610b04906001600160401b03166002612b11565b610b0f600284612c0c565b610b199190612c31565b905080670de0b6b3a76400001015610b32576000610b44565b610b4481670de0b6b3a7640000612afe565b6080840181905283511190508015610b63575081602001518260800151115b15610ba157610b9b8260800151670de0b6b3a764000086600001516001600160401b031687602001516001600160401b0316856115f7565b60c08301525b600284604001516001600160401b0316670de0b6b3a7640000610bc49190612ace565b610bce9190612c31565b60a08301525092915050565b610bfe60405180606001604052806000815260200160008152602001600081525090565b6040518060600160405280610c266003544360045487606001516001600160401b03166116e9565b8152602001848152602001610c39611761565b90529392505050565b60405163bd02d0f560e01b81527452454445454d5f444953434f554e545f524154494f60581b600482015260009081906001600160a01b037f0000000000000000000000000000000000000000000000000000000000000000169063bd02d0f590602401602060405180830381865afa158015610cc3573d6000803e3d6000fd5b505050506040513d601f19601f82011682018060405250810190610ce79190612c45565b9050610cf381846117fb565b610cfe906002612b11565b841115610d30576000610d1182856117fb565b610d1b9086612afe565b9050610d27818561181c565b9250505061034b565b509192915050565b604080518082019091526002815261323560f01b602082015260009082610d725760405162461bcd60e51b815260040161033d9190612a6a565b5082600003610d835750600061034b565b6000610d97670de0b6b3a764000085612b11565b9050610da38382612c31565b91505061034b565b6000610db5612914565b6000610dc2868686611832565b670de0b6b3a7640000835260408701516020880151919250610de49190610d38565b60208301819052610dfd90670de0b6b3a7640000612afe565b60608301526040850151610e22906001600160401b0316670de0b6b3a7640000612afe565b60808301526000816006811115610e3b57610e3b612c5e565b03610e5a5785516020870151610e519190612ace565b92505050611272565b6001816006811115610e6e57610e6e612c5e565b03610eea57600085602001516001600160401b03168760000151610e929190612afe565b9050671bc16d674ec80000610ea682611a36565b8751610ebb91906001600160401b0316612b11565b610ec59190612c31565b87516020890151610ed69190612ace565b610ee09190612afe565b9350505050611272565b6002816006811115610efe57610efe612c5e565b03610f75578451610f19906001600160401b03166002612b11565b60028360600151610f2a9190612c0c565b610f349190612c31565b610f5f836060015187602001516001600160401b03168560000151610f599190612afe565b906117fb565b8351610f6b9190612afe565b610e519190612ace565b6003816006811115610f8957610f89612c5e565b03611004576000671bc16d674ec80000610fd560028960400151610fad9190612c31565b88516060870151610fc6916001600160401b0316610d38565b610fd09190612ace565b611a36565b8751610fea91906001600160401b0316612b11565b610ff49190612c31565b8351909150610ee0908290612afe565b600481600681111561101857611018612c5e565b036110ff576000611064876040015161104f88600001516001600160401b031660026110449190612b11565b608087015190610d38565b6110599190612ace565b6080850151906117fb565b905060006110c761108f88604001516001600160401b03168a604001516117fb90919063ffffffff16565b896020015161109e9190612afe565b88600001516001600160401b0316600287608001516110bd9190612c0c565b610f599190612c31565b6110d2906002612b11565b9050816110de82611a42565b85516110ea9190612ace565b6110f49190612afe565b945050505050611272565b600581600681111561111357611113612c5e565b03611156576000610ff461112a8860000151611a36565b61113c90670de0b6b3a7640000612afe565b886020015189604001516111509190612afe565b90610d38565b600681600681111561116a5761116a612c5e565b03611239576000600283608001518860200151896040015161118c9190612afe565b6111969190612ace565b6111a09190612c31565b9050600060046111c36111b68a60000151611a36565b610f598760800151611a36565b6111cd9190612c31565b6111e985608001518a602001518b60400151610f599190612afe565b6111f39190612ace565b905060006112138261120485611a36565b61120e9190612afe565b611a42565b61121d9084612afe565b855190915061122d908290612afe565b95505050505050611272565b60405162461bcd60e51b815260206004820152600e60248201526d3ab735b737bbb7103932b3b4b7b760911b604482015260640161033d565b9392505050565b600061129f60405180606001604052806000815260200160008152602001600081525090565b855160408701516000916112b291612ace565b90506112c687602001518860400151610c42565b602088015286516112d79082610d38565b825260208701516112e89082610d38565b602083015260408701516112fc9082610d38565b6040830181905260208301516000916113159190610d38565b9050670de0b6b3a76400008110611331578493505050506113f0565b86604001516001600160401b0316811161137957600061136289604001518a60200151610d3890919063ffffffff16565b905061136e81876117fb565b9450505050506113f0565b6000611386848989610dab565b9050600061139482856117fb565b905060006113b3888c600001516113ab9190612ace565b83878d611a60565b90506000818c602001516113c79190612afe565b9050888111156113d45750875b8b604001518111156113e7575060408b01515b96505050505050505b949350505050565b600082670de0b6b3a764000010156114525760405162461bcd60e51b815260206004820152601a60248201527f7961206d7573742062652067726561746572207468616e207875000000000000604482015260640161033d565b81516001600160401b0316600061147185670de0b6b3a7640000612afe565b905061147d82826117fb565b84604001516001600160401b03166114959190612ace565b670de0b6b3a7640000106114db57671bc16d674ec800006114b582611a36565b6114bf9084612b11565b6114c99190612c31565b610d2790670de0b6b3a7640000612afe565b600084604001516001600160401b0316670de0b6b3a76400006114fe9190612afe565b905061150b836002612b11565b611516600283612c0c565b6115209190612c31565b61152a82846117fb565b61153c90670de0b6b3a7640000612afe565b6105fa9190612ace565b600083851060405180604001604052806002815260200161333160f01b815250906115845760405162461bcd60e51b815260040161033d9190612a6a565b5060006115996115948487612afe565b611ae7565b90506000846115a88888612afe565b6115ba90671bc16d674ec80000612b11565b6115c49190612c31565b90508082106115ed576115da61120e8284612afe565b6115e49087612afe565b925050506113f0565b85925050506113f0565b6000806116048787612afe565b9050600061161285886117fb565b90506000671bc16d674ec8000061162a600287612c0c565b6116349190612c31565b61163e88856117fb565b116116945760008761165885671bc16d674ec80000612b11565b6116629190612c31565b9050600061166f82611a42565b90508981101561168857611683818b612afe565b61168b565b60005b925050506116df565b60006116ab6116a4896002612b11565b8790610d38565b6116b58588610d38565b6116bf9190612ace565b9050888110156116d8576116d3818a612afe565b6116db565b60005b9150505b610556818361181c565b6000838314806116f7575084155b156117035750836113f0565b838310156117315760006117178486612afe565b905060006117258483611af3565b90506115e487826117fb565b6040805180820182526002815261333160f01b6020820152905162461bcd60e51b815261033d9190600401612a6a565b60006117957f00000000000000000000000000000000000000000000000000000000000000006001600160a01b0316610935565b6001600160a01b031663c1bd8cf96040518163ffffffff1660e01b8152600401602060405180830381865afa1580156117d2573d6000803e3d6000fd5b505050506040513d601f19601f820116820180604052508101906117f69190612c45565b905090565b6000806118088385612b11565b90506113f0670de0b6b3a764000082612c31565b600081831061182b5781611272565b5090919050565b600061183f848484611b42565b156118dc5782602001516001600160401b031684600001511161186457506000611272565b600061189784602001516001600160401b031686600001516118869190612afe565b85516001600160401b0316906117fb565b604086015160208701516118aa91610d38565b6118b49190612ace565b9050670de0b6b3a76400008082116118d157600192505050611272565b600292505050611272565b6118f48484600001516001600160401b031684611b90565b15611a14576119118484600001516001600160401b031684611bb5565b1561197757671bc16d674ec8000083600001516001600160401b031661193a8660400151611a36565b6119449190612b11565b61194e9190612c31565b846020015185604001516119629190612afe565b1161196f57506000611272565b506003611272565b600083604001516001600160401b0316670de0b6b3a764000061199a9190612afe565b84519091506119b3906001600160401b03166002612b11565b6119be600283612c0c565b6119c89190612c31565b6119ec866040015186604001516001600160401b03166117fb90919063ffffffff16565b86602001516119fb9190612afe565b10611a0a576000915050611272565b6004915050611272565b611a1f848484611c0d565b15611a2c57506005611272565b5060069392505050565b600061034b82836117fb565b600061034b82611a5b6002670de0b6b3a7640000612c31565b611c6e565b600080611a89858585604001516001600160401b031686600001516001600160401b0316611e00565b90506000611ac786868487602001516001600160401b031688604001516001600160401b0316670de0b6b3a7640000611ac29190612afe565b6115f7565b90506000611ad787878585611546565b905061056e888888868686611ed0565b600061034b8283611fe0565b6000670de0b6b3a76400005b821561127257611b10600284612c74565b600103611b2457611b2181856117fb565b90505b611b2f600284612c31565b9250611b3b84856117fb565b9350611aff565b6000611b8084600001518360000151670de0b6b3a764000086600001516001600160401b031687602001516001600160401b03168760400151611ed0565b8460200151101590509392505050565b6000611b8084600001518360200151670de0b6b3a76400008660008760600151611ed0565b60008160200151826080015111611bce57506001611272565b815160808301511115611be357506000611272565b611b8084600001518360800151670de0b6b3a7640000868660c00151670de0b6b3a7640000611ed0565b600081602001518260a001511115611c2757506000611272565b611b8084600001518360a00151670de0b6b3a764000086604001516001600160401b0316670de0b6b3a7640000611c5e9190612afe565b6000670de0b6b3a7640000611ed0565b600081600003611c875750670de0b6b3a764000061034b565b82600003611c975750600061034b565b604080518082019091526002815261032360f41b6020820152600160ff1b8410611cd45760405162461bcd60e51b815260040161033d9190612a6a565b50604080518082019091526002815261323160f01b60208201528390770bce5086492111aea88f4bb1ca6bcf584181ea8059f765328410611d285760405162461bcd60e51b815260040161033d9190612a6a565b50826000670c7d713b49da000083138015611d4a5750670f43fc2c04ee000083125b15611d81576000611d5a8461202a565b9050670de0b6b3a764000080820784020583670de0b6b3a764000083050201915050611d8f565b81611d8b84612149565b0290505b670de0b6b3a76400009005680238fd42c5cf03ffff198112801590611dbd575068070c1cc73b00c800008113155b60405180604001604052806002815260200161191960f11b81525090611df65760405162461bcd60e51b815260040161033d9190612a6a565b506105fa816124f3565b600080611e0d8686610d38565b90506000611e1b8487610d38565b905060006002611e3387670de0b6b3a7640000612ace565b611e3d9190612c31565b8310611e7257611e6b87611150611e5c86670de0b6b3a7640000612afe565b671bc16d674ec80000906117fb565b9050611ec6565b60006002611e8888670de0b6b3a7640000612afe565b611e929190612c0c565b90506000611ea0888a6117fb565b611eaa908b612afe565b9050611eb7816002612b11565b611ec19083612c31565b925050505b61056e8183612905565b6000828711611eea57611ee38787612afe565b90506105fa565b818711611fa2576000671bc16d674ec80000611f09610fd0868b612afe565b611f139087612b11565b611f1d9190612c31565b611f279088612ace565b9050878110611f4257611f3a8882612afe565b9150506105fa565b87611f526402540be400886117fb565b611f5c9083612ace565b101560405180604001604052806002815260200161323760f01b81525090611f975760405162461bcd60e51b815260040161033d9190612a6a565b5060009150506105fa565b6000611fb8611fb18585612afe565b86906117fb565b611fca90670de0b6b3a7640000612afe565b905061056e611fd98988612afe565b82906117fb565b600080611fed8385612b11565b90508060000361200157600091505061034b565b670de0b6b3a7640000612015600183612afe565b61201f9190612c31565b610da3906001612ace565b670de0b6b3a7640000026000806a0c097ce7bc90715b34b9f160241b808401906ec097ce7bc90715b34b9f0fffffffff198501028161206b5761206b612c1b565b05905060006a0c097ce7bc90715b34b9f160241b82800205905081806a0c097ce7bc90715b34b9f160241b81840205915060038205016a0c097ce7bc90715b34b9f160241b82840205915060058205016a0c097ce7bc90715b34b9f160241b82840205915060078205016a0c097ce7bc90715b34b9f160241b82840205915060098205016a0c097ce7bc90715b34b9f160241b828402059150600b8205016a0c097ce7bc90715b34b9f160241b828402059150600d8205016a0c097ce7bc90715b34b9f160241b828402059150600f82050160020295945050505050565b6000670de0b6b3a764000082121561218a57612181826a0c097ce7bc90715b34b9f160241b8161217b5761217b612c1b565b05612149565b60000392915050565b60007e1600ef3172e58d2e933ec884fde10064c63b5372d805e203c000000000000083126121db57770195e54c5dd42177f53a27172fa9ec630262827000000000830592506806f05b59d3b2000000015b73011798004d755d3c8bc8e03204cf44619e0000008312612213576b1425982cf597cd205cef7380830592506803782dace9d9000000015b606492830292026e01855144814a7ff805980ff0084000831261225b576e01855144814a7ff805980ff008400068056bc75e2d63100000840205925068ad78ebc5ac62000000015b6b02df0ab5a80a22c61ab5a7008312612296576b02df0ab5a80a22c61ab5a70068056bc75e2d6310000084020592506856bc75e2d631000000015b693f1fce3da636ea5cf85083126122cd57693f1fce3da636ea5cf85068056bc75e2d631000008402059250682b5e3af16b18800000015b690127fa27722cc06cc5e2831261230457690127fa27722cc06cc5e268056bc75e2d6310000084020592506815af1d78b58c400000015b68280e60114edb805d0383126123395768280e60114edb805d0368056bc75e2d631000008402059250680ad78ebc5ac6200000015b680ebc5fb41746121110831261236457680ebc5fb4174612111068056bc75e2d631000009384020592015b6808f00f760a4b2db55d8312612399576808f00f760a4b2db55d68056bc75e2d6310000084020592506802b5e3af16b1880000015b6806f5f177578893793783126123ce576806f5f177578893793768056bc75e2d63100000840205925068015af1d78b58c40000015b6806248f33704b2866038312612402576806248f33704b28660368056bc75e2d63100000840205925067ad78ebc5ac620000015b6805c548670b9510e7ac8312612436576805c548670b9510e7ac68056bc75e2d6310000084020592506756bc75e2d6310000015b600068056bc75e2d63100000840168056bc75e2d63100000808603028161245f5761245f612c1b565b059050600068056bc75e2d63100000828002059050818068056bc75e2d63100000818402059150600382050168056bc75e2d63100000828402059150600582050168056bc75e2d63100000828402059150600782050168056bc75e2d63100000828402059150600982050168056bc75e2d63100000828402059150600b820501600202606485820105979650505050505050565b6000680238fd42c5cf03ffff198212158015612518575068070c1cc73b00c800008213155b60405180604001604052806002815260200161323360f01b815250906125515760405162461bcd60e51b815260040161033d9190612a6a565b50600082121561258a57612567826000036124f3565b6a0c097ce7bc90715b34b9f160241b8161258357612583612c1b565b0592915050565b60006806f05b59d3b200000083126125ca57506806f05b59d3b1ffffff1990910190770195e54c5dd42177f53a27172fa9ec630262827000000000612600565b6803782dace9d900000083126125fc57506803782dace9d8ffffff19909101906b1425982cf597cd205cef7380612600565b5060015b6064929092029168056bc75e2d6310000068ad78ebc5ac6200000084126126505768ad78ebc5ac61ffffff199093019268056bc75e2d631000006e01855144814a7ff805980ff008400082020590505b6856bc75e2d631000000841261268c576856bc75e2d630ffffff199093019268056bc75e2d631000006b02df0ab5a80a22c61ab5a70082020590505b682b5e3af16b1880000084126126c657682b5e3af16b187fffff199093019268056bc75e2d63100000693f1fce3da636ea5cf85082020590505b6815af1d78b58c4000008412612700576815af1d78b58c3fffff199093019268056bc75e2d63100000690127fa27722cc06cc5e282020590505b680ad78ebc5ac6200000841261273957680ad78ebc5ac61fffff199093019268056bc75e2d6310000068280e60114edb805d0382020590505b68056bc75e2d6310000084126127725768056bc75e2d630fffff199093019268056bc75e2d63100000680ebc5fb4174612111082020590505b6802b5e3af16b188000084126127ab576802b5e3af16b187ffff199093019268056bc75e2d631000006808f00f760a4b2db55d82020590505b68015af1d78b58c4000084126127e45768015af1d78b58c3ffff199093019268056bc75e2d631000006806f5f177578893793782020590505b68056bc75e2d631000008481019085906002908280020505918201919050600368056bc75e2d631000008783020505918201919050600468056bc75e2d631000008783020505918201919050600568056bc75e2d631000008783020505918201919050600668056bc75e2d631000008783020505918201919050600768056bc75e2d631000008783020505918201919050600868056bc75e2d631000008783020505918201919050600968056bc75e2d631000008783020505918201919050600a68056bc75e2d631000008783020505918201919050600b68056bc75e2d631000008783020505918201919050600c68056bc75e2d631000008783020505918201919050606468056bc75e2d63100000848402058502059695505050505050565b600081831161182b5781611272565b6040518060a0016040528060008152602001600081526020016000600681111561294057612940612c5e565b815260200160008152602001600081525090565b6000806040838503121561296757600080fd5b50508035926020909101359150565b60006020828403121561298857600080fd5b5035919050565b80356001600160401b03811681146129a657600080fd5b919050565b6000608082840312156129bd57600080fd5b604051608081018181106001600160401b03821117156129ed57634e487b7160e01b600052604160045260246000fd5b6040526129f98361298f565b8152612a076020840161298f565b6020820152612a186040840161298f565b6040820152612a296060840161298f565b60608201529392505050565b6001600160a01b0381168114612a4a57600080fd5b50565b600060208284031215612a5f57600080fd5b813561127281612a35565b600060208083528351808285015260005b81811015612a9757858101830151858201604001528201612a7b565b506000604082860101526040601f19601f8301168501019250505092915050565b634e487b7160e01b600052601160045260246000fd5b8082018082111561034b5761034b612ab8565b600060208284031215612af357600080fd5b815161127281612a35565b8181038181111561034b5761034b612ab8565b808202811582820484141761034b5761034b612ab8565b600181815b80851115612b63578160001904821115612b4957612b49612ab8565b80851615612b5657918102915b93841c9390800290612b2d565b509250929050565b600082612b7a5750600161034b565b81612b875750600061034b565b8160018114612b9d5760028114612ba757612bc3565b600191505061034b565b60ff841115612bb857612bb8612ab8565b50506001821b61034b565b5060208310610133831016604e8410600b8410161715612be6575081810a61034b565b612bf08383612b28565b8060001904821115612c0457612c04612ab8565b029392505050565b600061127260ff841683612b6b565b634e487b7160e01b600052601260045260246000fd5b600082612c4057612c40612c1b565b500490565b600060208284031215612c5757600080fd5b5051919050565b634e487b7160e01b600052602160045260246000fd5b600082612c8357612c83612c1b565b50069056fea26469706673582212207bfff913805b86aeb62dd81ae249da4f8b8154064ce4c3bc91d9ee17f271f98964736f6c63430008110033","bytecodeSha1":"34858e19b0450b6be88ef39379a12dc4447372bb","compiler":{"evm_version":"london","optimizer":{"enabled":true,"runs":200},"version":"0.8.17+commit.8df45f5f"},"contractName":"PrimaryAMMV1","language":"Solidity","natspec":{"kind":"dev","methods":{"acceptGovernance()":{"notice":"Called by the pending governor to approve the change"},"changeGovernor(address)":{"notice":"Changes the governor can only be called by the current governor"},"computeMintAmount(uint256,uint256)":{"notice":"Returns the USD value to mint given an ammount of Gyro dollars"},"computeRedeemAmount(uint256,uint256)":{"notice":"Computes the USD value to redeem given an ammount of Gyro dollars"},"constructor":{"notice":"Initializes the PAMM with the given system parameters"},"getNormalizedAnchoredReserveValue(uint256)":{"details":"This function extends the meaning of the anchor reserve value to cases where it's not formally defined as follows. Let r be the current reserve value, discounted by the configured redeem discount ratio. - If r >= 1, this returns 1. - If thetaBar < r < 1, this returns the normalized anchor reserve value like in the PAMM   mathematics paper. - If r <= thetaBar, this returns r. Note that, in the two edge cases, the mapping is not 1:1 and the anchor reserve value is not actually used by the PAMM to compute redemption amounts.","notice":"Internal value that may be useful to predict the state of the system under different scenarios. This value is the 'anchor reserve value', normalized to 'anchor GYD supply' = 1."},"governor()":{"notice":"Returns the current governor"},"lastRedemptionBlock()":{"notice":"the last block at which a redemption occured"},"mint(uint256,uint256)":{"notice":"Records and returns the USD value to mint given an ammount of Gyro dollars"},"pendingGovernor()":{"notice":"Returns the pending governor"},"redeem(uint256,uint256)":{"notice":"Computes and records the USD value to redeem given an ammount of Gyro dollars"},"redemptionLevel()":{"notice":"current redemption level of the primary AMM"},"setSystemParams((uint64,uint64,uint64,uint64))":{"notice":"Allows for the system parameters to be updated"},"systemParams()":{"notice":"Retrieves the system parameters to be updated"}},"notice":"Implements the primary AMM pricing mechanism","stateVariables":{"_UNDERFLOW_EPSILON":{"details":"we tolerate underflows due to numerical issues up to 1e10, so 1e-8 given our 1e18 scale"}},"version":1},"opcodes":"PUSH1 0x80 PUSH1 0x40 MSTORE CALLVALUE DUP1 ISZERO PUSH2 0x10 JUMPI PUSH1 0x0 DUP1 REVERT JUMPDEST POP PUSH1 0x4 CALLDATASIZE LT PUSH2 0xEA JUMPI PUSH1 0x0 CALLDATALOAD PUSH1 0xE0 SHR DUP1 PUSH4 0x5BAAEAAB GT PUSH2 0x8C JUMPI DUP1 PUSH4 0x7CBC2373 GT PUSH2 0x66 JUMPI DUP1 PUSH4 0x7CBC2373 EQ PUSH2 0x270 JUMPI DUP1 PUSH4 0x9E590854 EQ PUSH2 0x283 JUMPI DUP1 PUSH4 0xE3056A34 EQ PUSH2 0x296 JUMPI DUP1 PUSH4 0xE4C0AAF4 EQ PUSH2 0x2A9 JUMPI PUSH1 0x0 DUP1 REVERT JUMPDEST DUP1 PUSH4 0x5BAAEAAB EQ PUSH2 0x242 JUMPI DUP1 PUSH4 0x616A1ED9 EQ PUSH2 0x24B JUMPI DUP1 PUSH4 0x71DB63EC EQ PUSH2 0x25D JUMPI PUSH1 0x0 DUP1 REVERT JUMPDEST DUP1 PUSH4 0x30A5204A GT PUSH2 0xC8 JUMPI DUP1 PUSH4 0x30A5204A EQ PUSH2 0x14A JUMPI DUP1 PUSH4 0x36214144 EQ PUSH2 0x15D JUMPI DUP1 PUSH4 0x44BBDB55 EQ PUSH2 0x166 JUMPI DUP1 PUSH4 0x458E8E6B EQ PUSH2 0x18D JUMPI PUSH1 0x0 DUP1 REVERT JUMPDEST DUP1 PUSH4 0xC340A24 EQ PUSH2 0xEF JUMPI DUP1 PUSH4 0x1B2EF1CA EQ PUSH2 0x11F JUMPI DUP1 PUSH4 0x238EFCBC EQ PUSH2 0x140 JUMPI JUMPDEST PUSH1 0x0 DUP1 REVERT JUMPDEST PUSH1 0x0 SLOAD PUSH2 0x102 SWAP1 PUSH1 0x1 PUSH1 0x1 PUSH1 0xA0 SHL SUB AND DUP2 JUMP JUMPDEST PUSH1 0x40 MLOAD PUSH1 0x1 PUSH1 0x1 PUSH1 0xA0 SHL SUB SWAP1 SWAP2 AND DUP2 MSTORE PUSH1 0x20 ADD JUMPDEST PUSH1 0x40 MLOAD DUP1 SWAP2 SUB SWAP1 RETURN JUMPDEST PUSH2 0x132 PUSH2 0x12D CALLDATASIZE PUSH1 0x4 PUSH2 0x2954 JUMP JUMPDEST PUSH2 0x2BC JUMP JUMPDEST PUSH1 0x40 MLOAD SWAP1 DUP2 MSTORE PUSH1 0x20 ADD PUSH2 0x116 JUMP JUMPDEST PUSH2 0x148 PUSH2 0x351 JUMP JUMPDEST STOP JUMPDEST PUSH2 0x132 PUSH2 0x158 CALLDATASIZE PUSH1 0x4 PUSH2 0x2976 JUMP JUMPDEST PUSH2 0x401 JUMP JUMPDEST PUSH2 0x132 PUSH1 0x4 SLOAD DUP2 JUMP JUMPDEST PUSH2 0x102 PUSH32 0x0 DUP2 JUMP JUMPDEST PUSH2 0x1FF PUSH1 0x40 DUP1 MLOAD PUSH1 0x80 DUP2 ADD DUP3 MSTORE PUSH1 0x0 DUP1 DUP3 MSTORE PUSH1 0x20 DUP3 ADD DUP2 SWAP1 MSTORE SWAP2 DUP2 ADD DUP3 SWAP1 MSTORE PUSH1 0x60 DUP2 ADD SWAP2 SWAP1 SWAP2 MSTORE POP PUSH1 0x40 DUP1 MLOAD PUSH1 0x80 DUP2 ADD DUP3 MSTORE PUSH1 0x2 SLOAD PUSH1 0x1 PUSH1 0x1 PUSH1 0x40 SHL SUB DUP1 DUP3 AND DUP4 MSTORE PUSH1 0x1 PUSH1 0x40 SHL DUP3 DIV DUP2 AND PUSH1 0x20 DUP5 ADD MSTORE PUSH1 0x1 PUSH1 0x80 SHL DUP3 DIV DUP2 AND SWAP4 DUP4 ADD SWAP4 SWAP1 SWAP4 MSTORE PUSH1 0x1 PUSH1 0xC0 SHL SWAP1 DIV SWAP1 SWAP2 AND PUSH1 0x60 DUP3 ADD MSTORE SWAP1 JUMP JUMPDEST PUSH1 0x40 MLOAD PUSH2 0x116 SWAP2 SWAP1 DUP2 MLOAD PUSH1 0x1 PUSH1 0x1 PUSH1 0x40 SHL SUB SWAP1 DUP2 AND DUP3 MSTORE PUSH1 0x20 DUP1 DUP5 ADD MLOAD DUP3 AND SWAP1 DUP4 ADD MSTORE PUSH1 0x40 DUP1 DUP5 ADD MLOAD DUP3 AND SWAP1 DUP4 ADD MSTORE PUSH1 0x60 SWAP3 DUP4 ADD MLOAD AND SWAP2 DUP2 ADD SWAP2 SWAP1 SWAP2 MSTORE PUSH1 0x80 ADD SWAP1 JUMP JUMPDEST PUSH2 0x132 PUSH1 0x3 SLOAD DUP2 JUMP JUMPDEST PUSH2 0x132 PUSH2 0x259 CALLDATASIZE PUSH1 0x4 PUSH2 0x2954 JUMP JUMPDEST POP SWAP1 JUMP JUMPDEST PUSH2 0x132 PUSH2 0x26B CALLDATASIZE PUSH1 0x4 PUSH2 0x2954 JUMP JUMPDEST PUSH2 0x57A JUMP JUMPDEST PUSH2 0x132 PUSH2 0x27E CALLDATASIZE PUSH1 0x4 PUSH2 0x2954 JUMP JUMPDEST PUSH2 0x604 JUMP JUMPDEST PUSH2 0x148 PUSH2 0x291 CALLDATASIZE PUSH1 0x4 PUSH2 0x29AB JUMP JUMPDEST PUSH2 0x727 JUMP JUMPDEST PUSH1 0x1 SLOAD PUSH2 0x102 SWAP1 PUSH1 0x1 PUSH1 0x1 PUSH1 0xA0 SHL SUB AND DUP2 JUMP JUMPDEST PUSH2 0x148 PUSH2 0x2B7 CALLDATASIZE PUSH1 0x4 PUSH2 0x2A4D JUMP JUMPDEST PUSH2 0x860 JUMP JUMPDEST PUSH1 0x0 PUSH2 0x2F0 PUSH32 0x0 PUSH1 0x1 PUSH1 0x1 PUSH1 0xA0 SHL SUB AND PUSH2 0x935 JUMP JUMPDEST PUSH1 0x1 PUSH1 0x1 PUSH1 0xA0 SHL SUB AND CALLER PUSH1 0x1 PUSH1 0x1 PUSH1 0xA0 SHL SUB AND EQ PUSH1 0x40 MLOAD DUP1 PUSH1 0x40 ADD PUSH1 0x40 MSTORE DUP1 PUSH1 0x2 DUP2 MSTORE PUSH1 0x20 ADD PUSH2 0x333 PUSH1 0xF4 SHL DUP2 MSTORE POP SWAP1 PUSH2 0x346 JUMPI PUSH1 0x40 MLOAD PUSH3 0x461BCD PUSH1 0xE5 SHL DUP2 MSTORE PUSH1 0x4 ADD PUSH2 0x33D SWAP2 SWAP1 PUSH2 0x2A6A JUMP JUMPDEST PUSH1 0x40 MLOAD DUP1 SWAP2 SUB SWAP1 REVERT JUMPDEST POP DUP3 SWAP1 POP JUMPDEST SWAP3 SWAP2 POP POP JUMP JUMPDEST PUSH1 0x1 SLOAD PUSH1 0x40 DUP1 MLOAD DUP1 DUP3 ADD SWAP1 SWAP2 MSTORE PUSH1 0x2 DUP2 MSTORE PUSH2 0x333 PUSH1 0xF4 SHL PUSH1 0x20 DUP3 ADD MSTORE SWAP1 PUSH1 0x1 PUSH1 0x1 PUSH1 0xA0 SHL SUB AND CALLER EQ PUSH2 0x396 JUMPI PUSH1 0x40 MLOAD PUSH3 0x461BCD PUSH1 0xE5 SHL DUP2 MSTORE PUSH1 0x4 ADD PUSH2 0x33D SWAP2 SWAP1 PUSH2 0x2A6A JUMP JUMPDEST POP PUSH1 0x0 DUP1 SLOAD PUSH1 0x1 DUP1 SLOAD PUSH1 0x1 PUSH1 0x1 PUSH1 0xA0 SHL SUB NOT DUP1 DUP5 AND PUSH1 0x1 PUSH1 0x1 PUSH1 0xA0 SHL SUB DUP1 DUP5 AND SWAP2 SWAP1 SWAP2 OR SWAP1 SWAP6 SSTORE AND SWAP1 SSTORE PUSH1 0x40 DUP1 MLOAD SWAP3 SWAP1 SWAP2 AND DUP1 DUP4 MSTORE CALLER PUSH1 0x20 DUP5 ADD MSTORE SWAP2 PUSH32 0xDE4B3F61490B74C0ED6237523974FE299126BBBF8A8A7482FD220104C59B0C84 SWAP2 ADD JUMPDEST PUSH1 0x40 MLOAD DUP1 SWAP2 SUB SWAP1 LOG1 POP JUMP JUMPDEST PUSH1 0x40 DUP1 MLOAD PUSH1 0x80 DUP2 ADD DUP3 MSTORE PUSH1 0x2 SLOAD PUSH1 0x1 PUSH1 0x1 PUSH1 0x40 SHL SUB DUP1 DUP3 AND DUP4 MSTORE PUSH1 0x1 PUSH1 0x40 SHL DUP3 DIV DUP2 AND PUSH1 0x20 DUP5 ADD MSTORE PUSH1 0x1 PUSH1 0x80 SHL DUP3 DIV DUP2 AND SWAP4 DUP4 ADD SWAP4 SWAP1 SWAP4 MSTORE PUSH1 0x1 PUSH1 0xC0 SHL SWAP1 DIV SWAP1 SWAP2 AND PUSH1 0x60 DUP3 ADD MSTORE PUSH1 0x0 SWAP1 DUP2 PUSH2 0x455 DUP3 PUSH2 0x9B6 JUMP JUMPDEST SWAP1 POP PUSH1 0x0 PUSH2 0x463 DUP6 DUP5 PUSH2 0xBDA JUMP JUMPDEST SWAP1 POP PUSH2 0x489 PUSH1 0x40 MLOAD DUP1 PUSH1 0x60 ADD PUSH1 0x40 MSTORE DUP1 PUSH1 0x0 DUP2 MSTORE PUSH1 0x20 ADD PUSH1 0x0 DUP2 MSTORE PUSH1 0x20 ADD PUSH1 0x0 DUP2 MSTORE POP SWAP1 JUMP JUMPDEST DUP2 MLOAD PUSH1 0x40 DUP4 ADD MLOAD PUSH1 0x0 SWAP2 PUSH2 0x49C SWAP2 PUSH2 0x2ACE JUMP JUMPDEST SWAP1 POP PUSH2 0x4B0 DUP4 PUSH1 0x20 ADD MLOAD DUP5 PUSH1 0x40 ADD MLOAD PUSH2 0xC42 JUMP JUMPDEST PUSH1 0x20 DUP5 ADD MSTORE DUP3 MLOAD PUSH2 0x4C1 SWAP1 DUP3 PUSH2 0xD38 JUMP JUMPDEST DUP3 MSTORE PUSH1 0x20 DUP4 ADD MLOAD PUSH2 0x4D2 SWAP1 DUP3 PUSH2 0xD38 JUMP JUMPDEST PUSH1 0x20 DUP4 ADD MSTORE PUSH1 0x40 DUP4 ADD MLOAD PUSH2 0x4E6 SWAP1 DUP3 PUSH2 0xD38 JUMP JUMPDEST PUSH1 0x40 DUP4 ADD DUP2 SWAP1 MSTORE PUSH1 0x20 DUP4 ADD MLOAD PUSH1 0x0 SWAP2 PUSH2 0x4FF SWAP2 SWAP1 PUSH2 0xD38 JUMP JUMPDEST SWAP1 POP PUSH8 0xDE0B6B3A7640000 DUP2 LT PUSH2 0x525 JUMPI POP PUSH8 0xDE0B6B3A7640000 SWAP8 SWAP7 POP POP POP POP POP POP POP JUMP JUMPDEST DUP6 PUSH1 0x40 ADD MLOAD PUSH1 0x1 PUSH1 0x1 PUSH1 0x40 SHL SUB AND DUP2 GT PUSH2 0x563 JUMPI PUSH1 0x0 PUSH2 0x556 DUP6 PUSH1 0x40 ADD MLOAD DUP7 PUSH1 0x20 ADD MLOAD PUSH2 0xD38 SWAP1 SWAP2 SWAP1 PUSH4 0xFFFFFFFF AND JUMP JUMPDEST SWAP10 SWAP9 POP POP POP POP POP POP POP POP POP JUMP JUMPDEST PUSH2 0x56E DUP4 DUP8 DUP8 PUSH2 0xDAB JUMP JUMPDEST SWAP9 SWAP8 POP POP POP POP POP POP POP POP JUMP JUMPDEST PUSH1 0x0 DUP3 PUSH1 0x0 SUB PUSH2 0x58C JUMPI POP PUSH1 0x0 PUSH2 0x34B JUMP JUMPDEST PUSH1 0x40 DUP1 MLOAD PUSH1 0x80 DUP2 ADD DUP3 MSTORE PUSH1 0x2 SLOAD PUSH1 0x1 PUSH1 0x1 PUSH1 0x40 SHL SUB DUP1 DUP3 AND DUP4 MSTORE PUSH1 0x1 PUSH1 0x40 SHL DUP3 DIV DUP2 AND PUSH1 0x20 DUP5 ADD MSTORE PUSH1 0x1 PUSH1 0x80 SHL DUP3 DIV DUP2 AND SWAP4 DUP4 ADD SWAP4 SWAP1 SWAP4 MSTORE PUSH1 0x1 PUSH1 0xC0 SHL SWAP1 DIV SWAP1 SWAP2 AND PUSH1 0x60 DUP3 ADD MSTORE PUSH1 0x0 PUSH2 0x5DE DUP3 PUSH2 0x9B6 JUMP JUMPDEST SWAP1 POP PUSH1 0x0 PUSH2 0x5EC DUP6 DUP5 PUSH2 0xBDA JUMP JUMPDEST SWAP1 POP PUSH2 0x5FA DUP2 DUP5 DUP5 DUP10 PUSH2 0x1279 JUMP JUMPDEST SWAP7 SWAP6 POP POP POP POP POP POP JUMP JUMPDEST PUSH1 0x0 PUSH2 0x638 PUSH32 0x0 PUSH1 0x1 PUSH1 0x1 PUSH1 0xA0 SHL SUB AND PUSH2 0x935 JUMP JUMPDEST PUSH1 0x1 PUSH1 0x1 PUSH1 0xA0 SHL SUB AND CALLER PUSH1 0x1 PUSH1 0x1 PUSH1 0xA0 SHL SUB AND EQ PUSH1 0x40 MLOAD DUP1 PUSH1 0x40 ADD PUSH1 0x40 MSTORE DUP1 PUSH1 0x2 DUP2 MSTORE PUSH1 0x20 ADD PUSH2 0x333 PUSH1 0xF4 SHL DUP2 MSTORE POP SWAP1 PUSH2 0x685 JUMPI PUSH1 0x40 MLOAD PUSH3 0x461BCD PUSH1 0xE5 SHL DUP2 MSTORE PUSH1 0x4 ADD PUSH2 0x33D SWAP2 SWAP1 PUSH2 0x2A6A JUMP JUMPDEST POP DUP3 PUSH1 0x0 SUB PUSH2 0x696 JUMPI POP PUSH1 0x0 PUSH2 0x34B JUMP JUMPDEST PUSH1 0x40 DUP1 MLOAD PUSH1 0x80 DUP2 ADD DUP3 MSTORE PUSH1 0x2 SLOAD PUSH1 0x1 PUSH1 0x1 PUSH1 0x40 SHL SUB DUP1 DUP3 AND DUP4 MSTORE PUSH1 0x1 PUSH1 0x40 SHL DUP3 DIV DUP2 AND PUSH1 0x20 DUP5 ADD MSTORE PUSH1 0x1 PUSH1 0x80 SHL DUP3 DIV DUP2 AND SWAP4 DUP4 ADD SWAP4 SWAP1 SWAP4 MSTORE PUSH1 0x1 PUSH1 0xC0 SHL SWAP1 DIV SWAP1 SWAP2 AND PUSH1 0x60 DUP3 ADD MSTORE PUSH1 0x0 PUSH2 0x6E9 DUP5 DUP4 PUSH2 0xBDA JUMP JUMPDEST SWAP1 POP PUSH1 0x0 PUSH2 0x6F6 DUP4 PUSH2 0x9B6 JUMP JUMPDEST SWAP1 POP PUSH1 0x0 PUSH2 0x706 DUP4 DUP6 DUP5 DUP11 PUSH2 0x1279 JUMP JUMPDEST DUP4 MLOAD SWAP1 SWAP2 POP PUSH2 0x716 SWAP1 DUP9 SWAP1 PUSH2 0x2ACE JUMP JUMPDEST PUSH1 0x3 SSTORE NUMBER PUSH1 0x4 SSTORE SWAP7 SWAP6 POP POP POP POP POP POP JUMP JUMPDEST PUSH1 0x0 SLOAD PUSH1 0x40 DUP1 MLOAD DUP1 DUP3 ADD SWAP1 SWAP2 MSTORE PUSH1 0x2 DUP2 MSTORE PUSH2 0x333 PUSH1 0xF4 SHL PUSH1 0x20 DUP3 ADD MSTORE SWAP1 PUSH1 0x1 PUSH1 0x1 PUSH1 0xA0 SHL SUB AND CALLER EQ PUSH2 0x76C JUMPI PUSH1 0x40 MLOAD PUSH3 0x461BCD PUSH1 0xE5 SHL DUP2 MSTORE PUSH1 0x4 ADD PUSH2 0x33D SWAP2 SWAP1 PUSH2 0x2A6A JUMP JUMPDEST POP DUP1 MLOAD PUSH1 0x2 DUP1 SLOAD PUSH1 0x20 DUP5 ADD MLOAD PUSH1 0x40 DUP6 ADD MLOAD PUSH1 0x60 DUP7 ADD MLOAD PUSH1 0x1 PUSH1 0x1 PUSH1 0x40 SHL SUB SWAP1 DUP2 AND PUSH1 0x1 PUSH1 0xC0 SHL MUL PUSH1 0x1 PUSH1 0x1 PUSH1 0xC0 SHL SUB SWAP3 DUP3 AND PUSH1 0x1 PUSH1 0x80 SHL MUL SWAP3 SWAP1 SWAP3 AND PUSH16 0xFFFFFFFFFFFFFFFFFFFFFFFFFFFFFFFF SWAP4 DUP3 AND PUSH1 0x1 PUSH1 0x40 SHL MUL PUSH16 0xFFFFFFFFFFFFFFFFFFFFFFFFFFFFFFFF NOT SWAP1 SWAP6 AND SWAP2 SWAP1 SWAP7 AND OR SWAP3 SWAP1 SWAP3 OR AND SWAP3 SWAP1 SWAP3 OR SWAP2 SWAP1 SWAP2 OR SWAP1 SSTORE PUSH2 0x7F4 DUP2 PUSH2 0x9B6 JUMP JUMPDEST POP PUSH32 0x4C76FDBDF1D037612DA5C0DCE3F84FB05D29652B0DBC2D66501D683D3DF4DF88 DUP2 PUSH1 0x0 ADD MLOAD DUP3 PUSH1 0x20 ADD MLOAD DUP4 PUSH1 0x40 ADD MLOAD DUP5 PUSH1 0x60 ADD MLOAD PUSH1 0x40 MLOAD PUSH2 0x3F6 SWAP5 SWAP4 SWAP3 SWAP2 SWAP1 PUSH1 0x1 PUSH1 0x1 PUSH1 0x40 SHL SUB SWAP5 DUP6 AND DUP2 MSTORE SWAP3 DUP5 AND PUSH1 0x20 DUP5 ADD MSTORE SWAP1 DUP4 AND PUSH1 0x40 DUP4 ADD MSTORE SWAP1 SWAP2 AND PUSH1 0x60 DUP3 ADD MSTORE PUSH1 0x80 ADD SWAP1 JUMP JUMPDEST PUSH1 0x0 SLOAD PUSH1 0x40 DUP1 MLOAD DUP1 DUP3 ADD SWAP1 SWAP2 MSTORE PUSH1 0x2 DUP2 MSTORE PUSH2 0x333 PUSH1 0xF4 SHL PUSH1 0x20 DUP3 ADD MSTORE SWAP1 PUSH1 0x1 PUSH1 0x1 PUSH1 0xA0 SHL SUB AND CALLER EQ PUSH2 0x8A5 JUMPI PUSH1 0x40 MLOAD PUSH3 0x461BCD PUSH1 0xE5 SHL DUP2 MSTORE PUSH1 0x4 ADD PUSH2 0x33D SWAP2 SWAP1 PUSH2 0x2A6A JUMP JUMPDEST POP PUSH1 0x40 DUP1 MLOAD DUP1 DUP3 ADD SWAP1 SWAP2 MSTORE PUSH1 0x2 DUP2 MSTORE PUSH2 0x3331 PUSH1 0xF0 SHL PUSH1 0x20 DUP3 ADD MSTORE PUSH1 0x1 PUSH1 0x1 PUSH1 0xA0 SHL SUB DUP3 AND PUSH2 0x8E6 JUMPI PUSH1 0x40 MLOAD PUSH3 0x461BCD PUSH1 0xE5 SHL DUP2 MSTORE PUSH1 0x4 ADD PUSH2 0x33D SWAP2 SWAP1 PUSH2 0x2A6A JUMP JUMPDEST POP PUSH1 0x1 DUP1 SLOAD PUSH1 0x1 PUSH1 0x1 PUSH1 0xA0 SHL SUB NOT AND PUSH1 0x1 PUSH1 0x1 PUSH1 0xA0 SHL SUB DUP4 AND SWAP1 DUP2 OR SWAP1 SWAP2 SSTORE PUSH1 0x40 MLOAD SWAP1 DUP2 MSTORE PUSH32 0x67235BA2E63C748A35B95C4F92A3BBC2A1389938170A5CE6C9ADD5D0B03A314A SWAP1 PUSH1 0x20 ADD PUSH2 0x3F6 JUMP JUMPDEST PUSH1 0x40 MLOAD PUSH4 0x21F8A721 PUSH1 0xE0 SHL DUP2 MSTORE PUSH19 0x4D4F54484552424F4152445F41444452455353 PUSH1 0x68 SHL PUSH1 0x4 DUP3 ADD MSTORE PUSH1 0x0 SWAP1 PUSH1 0x1 PUSH1 0x1 PUSH1 0xA0 SHL SUB DUP4 AND SWAP1 PUSH4 0x21F8A721 SWAP1 PUSH1 0x24 ADD PUSH1 0x20 PUSH1 0x40 MLOAD DUP1 DUP4 SUB DUP2 DUP7 GAS STATICCALL ISZERO DUP1 ISZERO PUSH2 0x992 JUMPI RETURNDATASIZE PUSH1 0x0 DUP1 RETURNDATACOPY RETURNDATASIZE PUSH1 0x0 REVERT JUMPDEST POP POP POP POP PUSH1 0x40 MLOAD RETURNDATASIZE PUSH1 0x1F NOT PUSH1 0x1F DUP3 ADD AND DUP3 ADD DUP1 PUSH1 0x40 MSTORE POP DUP2 ADD SWAP1 PUSH2 0x34B SWAP2 SWAP1 PUSH2 0x2AE1 JUMP JUMPDEST PUSH2 0x9F6 PUSH1 0x40 MLOAD DUP1 PUSH1 0xE0 ADD PUSH1 0x40 MSTORE DUP1 PUSH1 0x0 DUP2 MSTORE PUSH1 0x20 ADD PUSH1 0x0 DUP2 MSTORE PUSH1 0x20 ADD PUSH1 0x0 DUP2 MSTORE PUSH1 0x20 ADD PUSH1 0x0 DUP2 MSTORE PUSH1 0x20 ADD PUSH1 0x0 DUP2 MSTORE PUSH1 0x20 ADD PUSH1 0x0 DUP2 MSTORE PUSH1 0x20 ADD PUSH1 0x0 DUP2 MSTORE POP SWAP1 JUMP JUMPDEST PUSH2 0xA36 PUSH1 0x40 MLOAD DUP1 PUSH1 0xE0 ADD PUSH1 0x40 MSTORE DUP1 PUSH1 0x0 DUP2 MSTORE PUSH1 0x20 ADD PUSH1 0x0 DUP2 MSTORE PUSH1 0x20 ADD PUSH1 0x0 DUP2 MSTORE PUSH1 0x20 ADD PUSH1 0x0 DUP2 MSTORE PUSH1 0x20 ADD PUSH1 0x0 DUP2 MSTORE PUSH1 0x20 ADD PUSH1 0x0 DUP2 MSTORE PUSH1 0x20 ADD PUSH1 0x0 DUP2 MSTORE POP SWAP1 JUMP JUMPDEST PUSH2 0xA4D DUP4 PUSH1 0x20 ADD MLOAD PUSH1 0x1 PUSH1 0x1 PUSH1 0x40 SHL SUB AND DUP5 PUSH2 0x13F8 JUMP JUMPDEST DUP2 MSTORE PUSH2 0xA5A PUSH1 0x0 DUP5 PUSH2 0x13F8 JUMP JUMPDEST DUP2 PUSH1 0x20 ADD DUP2 DUP2 MSTORE POP POP PUSH2 0xA95 DUP2 PUSH1 0x0 ADD MLOAD PUSH8 0xDE0B6B3A7640000 DUP6 PUSH1 0x0 ADD MLOAD PUSH1 0x1 PUSH1 0x1 PUSH1 0x40 SHL SUB AND DUP7 PUSH1 0x20 ADD MLOAD PUSH1 0x1 PUSH1 0x1 PUSH1 0x40 SHL SUB AND PUSH2 0x1546 JUMP JUMPDEST PUSH1 0x40 DUP3 ADD MSTORE PUSH1 0x20 DUP2 ADD MLOAD DUP4 MLOAD PUSH2 0xAC0 SWAP2 SWAP1 PUSH8 0xDE0B6B3A7640000 SWAP1 PUSH1 0x1 PUSH1 0x1 PUSH1 0x40 SHL SUB AND PUSH1 0x0 PUSH2 0x1546 JUMP JUMPDEST PUSH1 0x60 DUP3 ADD MSTORE PUSH1 0x40 DUP4 ADD MLOAD PUSH1 0x0 SWAP1 PUSH2 0xAE8 SWAP1 PUSH1 0x1 PUSH1 0x1 PUSH1 0x40 SHL SUB AND PUSH8 0xDE0B6B3A7640000 PUSH2 0x2AFE JUMP JUMPDEST DUP5 MLOAD SWAP1 SWAP2 POP PUSH1 0x0 SWAP1 PUSH2 0xB04 SWAP1 PUSH1 0x1 PUSH1 0x1 PUSH1 0x40 SHL SUB AND PUSH1 0x2 PUSH2 0x2B11 JUMP JUMPDEST PUSH2 0xB0F PUSH1 0x2 DUP5 PUSH2 0x2C0C JUMP JUMPDEST PUSH2 0xB19 SWAP2 SWAP1 PUSH2 0x2C31 JUMP JUMPDEST SWAP1 POP DUP1 PUSH8 0xDE0B6B3A7640000 LT ISZERO PUSH2 0xB32 JUMPI PUSH1 0x0 PUSH2 0xB44 JUMP JUMPDEST PUSH2 0xB44 DUP2 PUSH8 0xDE0B6B3A7640000 PUSH2 0x2AFE JUMP JUMPDEST PUSH1 0x80 DUP5 ADD DUP2 SWAP1 MSTORE DUP4 MLOAD GT SWAP1 POP DUP1 ISZERO PUSH2 0xB63 JUMPI POP DUP2 PUSH1 0x20 ADD MLOAD DUP3 PUSH1 0x80 ADD MLOAD GT JUMPDEST ISZERO PUSH2 0xBA1 JUMPI PUSH2 0xB9B DUP3 PUSH1 0x80 ADD MLOAD PUSH8 0xDE0B6B3A7640000 DUP7 PUSH1 0x0 ADD MLOAD PUSH1 0x1 PUSH1 0x1 PUSH1 0x40 SHL SUB AND DUP8 PUSH1 0x20 ADD MLOAD PUSH1 0x1 PUSH1 0x1 PUSH1 0x40 SHL SUB AND DUP6 PUSH2 0x15F7 JUMP JUMPDEST PUSH1 0xC0 DUP4 ADD MSTORE JUMPDEST PUSH1 0x2 DUP5 PUSH1 0x40 ADD MLOAD PUSH1 0x1 PUSH1 0x1 PUSH1 0x40 SHL SUB AND PUSH8 0xDE0B6B3A7640000 PUSH2 0xBC4 SWAP2 SWAP1 PUSH2 0x2ACE JUMP JUMPDEST PUSH2 0xBCE SWAP2 SWAP1 PUSH2 0x2C31 JUMP JUMPDEST PUSH1 0xA0 DUP4 ADD MSTORE POP SWAP3 SWAP2 POP POP JUMP JUMPDEST PUSH2 0xBFE PUSH1 0x40 MLOAD DUP1 PUSH1 0x60 ADD PUSH1 0x40 MSTORE DUP1 PUSH1 0x0 DUP2 MSTORE PUSH1 0x20 ADD PUSH1 0x0 DUP2 MSTORE PUSH1 0x20 ADD PUSH1 0x0 DUP2 MSTORE POP SWAP1 JUMP JUMPDEST PUSH1 0x40 MLOAD DUP1 PUSH1 0x60 ADD PUSH1 0x40 MSTORE DUP1 PUSH2 0xC26 PUSH1 0x3 SLOAD NUMBER PUSH1 0x4 SLOAD DUP8 PUSH1 0x60 ADD MLOAD PUSH1 0x1 PUSH1 0x1 PUSH1 0x40 SHL SUB AND PUSH2 0x16E9 JUMP JUMPDEST DUP2 MSTORE PUSH1 0x20 ADD DUP5 DUP2 MSTORE PUSH1 0x20 ADD PUSH2 0xC39 PUSH2 0x1761 JUMP JUMPDEST SWAP1 MSTORE SWAP4 SWAP3 POP POP POP JUMP JUMPDEST PUSH1 0x40 MLOAD PUSH4 0xBD02D0F5 PUSH1 0xE0 SHL DUP2 MSTORE PUSH21 0x52454445454D5F444953434F554E545F524154494F PUSH1 0x58 SHL PUSH1 0x4 DUP3 ADD MSTORE PUSH1 0x0 SWAP1 DUP2 SWAP1 PUSH1 0x1 PUSH1 0x1 PUSH1 0xA0 SHL SUB PUSH32 0x0 AND SWAP1 PUSH4 0xBD02D0F5 SWAP1 PUSH1 0x24 ADD PUSH1 0x20 PUSH1 0x40 MLOAD DUP1 DUP4 SUB DUP2 DUP7 GAS STATICCALL ISZERO DUP1 ISZERO PUSH2 0xCC3 JUMPI RETURNDATASIZE PUSH1 0x0 DUP1 RETURNDATACOPY RETURNDATASIZE PUSH1 0x0 REVERT JUMPDEST POP POP POP POP PUSH1 0x40 MLOAD RETURNDATASIZE PUSH1 0x1F NOT PUSH1 0x1F DUP3 ADD AND DUP3 ADD DUP1 PUSH1 0x40 MSTORE POP DUP2 ADD SWAP1 PUSH2 0xCE7 SWAP2 SWAP1 PUSH2 0x2C45 JUMP JUMPDEST SWAP1 POP PUSH2 0xCF3 DUP2 DUP5 PUSH2 0x17FB JUMP JUMPDEST PUSH2 0xCFE SWAP1 PUSH1 0x2 PUSH2 0x2B11 JUMP JUMPDEST DUP5 GT ISZERO PUSH2 0xD30 JUMPI PUSH1 0x0 PUSH2 0xD11 DUP3 DUP6 PUSH2 0x17FB JUMP JUMPDEST PUSH2 0xD1B SWAP1 DUP7 PUSH2 0x2AFE JUMP JUMPDEST SWAP1 POP PUSH2 0xD27 DUP2 DUP6 PUSH2 0x181C JUMP JUMPDEST SWAP3 POP POP POP PUSH2 0x34B JUMP JUMPDEST POP SWAP2 SWAP3 SWAP2 POP POP JUMP JUMPDEST PUSH1 0x40 DUP1 MLOAD DUP1 DUP3 ADD SWAP1 SWAP2 MSTORE PUSH1 0x2 DUP2 MSTORE PUSH2 0x3235 PUSH1 0xF0 SHL PUSH1 0x20 DUP3 ADD MSTORE PUSH1 0x0 SWAP1 DUP3 PUSH2 0xD72 JUMPI PUSH1 0x40 MLOAD PUSH3 0x461BCD PUSH1 0xE5 SHL DUP2 MSTORE PUSH1 0x4 ADD PUSH2 0x33D SWAP2 SWAP1 PUSH2 0x2A6A JUMP JUMPDEST POP DUP3 PUSH1 0x0 SUB PUSH2 0xD83 JUMPI POP PUSH1 0x0 PUSH2 0x34B JUMP JUMPDEST PUSH1 0x0 PUSH2 0xD97 PUSH8 0xDE0B6B3A7640000 DUP6 PUSH2 0x2B11 JUMP JUMPDEST SWAP1 POP PUSH2 0xDA3 DUP4 DUP3 PUSH2 0x2C31 JUMP JUMPDEST SWAP2 POP POP PUSH2 0x34B JUMP JUMPDEST PUSH1 0x0 PUSH2 0xDB5 PUSH2 0x2914 JUMP JUMPDEST PUSH1 0x0 PUSH2 0xDC2 DUP7 DUP7 DUP7 PUSH2 0x1832 JUMP JUMPDEST PUSH8 0xDE0B6B3A7640000 DUP4 MSTORE PUSH1 0x40 DUP8 ADD MLOAD PUSH1 0x20 DUP9 ADD MLOAD SWAP2 SWAP3 POP PUSH2 0xDE4 SWAP2 SWAP1 PUSH2 0xD38 JUMP JUMPDEST PUSH1 0x20 DUP4 ADD DUP2 SWAP1 MSTORE PUSH2 0xDFD SWAP1 PUSH8 0xDE0B6B3A7640000 PUSH2 0x2AFE JUMP JUMPDEST PUSH1 0x60 DUP4 ADD MSTORE PUSH1 0x40 DUP6 ADD MLOAD PUSH2 0xE22 SWAP1 PUSH1 0x1 PUSH1 0x1 PUSH1 0x40 SHL SUB AND PUSH8 0xDE0B6B3A7640000 PUSH2 0x2AFE JUMP JUMPDEST PUSH1 0x80 DUP4 ADD MSTORE PUSH1 0x0 DUP2 PUSH1 0x6 DUP2 GT ISZERO PUSH2 0xE3B JUMPI PUSH2 0xE3B PUSH2 0x2C5E JUMP JUMPDEST SUB PUSH2 0xE5A JUMPI DUP6 MLOAD PUSH1 0x20 DUP8 ADD MLOAD PUSH2 0xE51 SWAP2 SWAP1 PUSH2 0x2ACE JUMP JUMPDEST SWAP3 POP POP POP PUSH2 0x1272 JUMP JUMPDEST PUSH1 0x1 DUP2 PUSH1 0x6 DUP2 GT ISZERO PUSH2 0xE6E JUMPI PUSH2 0xE6E PUSH2 0x2C5E JUMP JUMPDEST SUB PUSH2 0xEEA JUMPI PUSH1 0x0 DUP6 PUSH1 0x20 ADD MLOAD PUSH1 0x1 PUSH1 0x1 PUSH1 0x40 SHL SUB AND DUP8 PUSH1 0x0 ADD MLOAD PUSH2 0xE92 SWAP2 SWAP1 PUSH2 0x2AFE JUMP JUMPDEST SWAP1 POP PUSH8 0x1BC16D674EC80000 PUSH2 0xEA6 DUP3 PUSH2 0x1A36 JUMP JUMPDEST DUP8 MLOAD PUSH2 0xEBB SWAP2 SWAP1 PUSH1 0x1 PUSH1 0x1 PUSH1 0x40 SHL SUB AND PUSH2 0x2B11 JUMP JUMPDEST PUSH2 0xEC5 SWAP2 SWAP1 PUSH2 0x2C31 JUMP JUMPDEST DUP8 MLOAD PUSH1 0x20 DUP10 ADD MLOAD PUSH2 0xED6 SWAP2 SWAP1 PUSH2 0x2ACE JUMP JUMPDEST PUSH2 0xEE0 SWAP2 SWAP1 PUSH2 0x2AFE JUMP JUMPDEST SWAP4 POP POP POP POP PUSH2 0x1272 JUMP JUMPDEST PUSH1 0x2 DUP2 PUSH1 0x6 DUP2 GT ISZERO PUSH2 0xEFE JUMPI PUSH2 0xEFE PUSH2 0x2C5E JUMP JUMPDEST SUB PUSH2 0xF75 JUMPI DUP5 MLOAD PUSH2 0xF19 SWAP1 PUSH1 0x1 PUSH1 0x1 PUSH1 0x40 SHL SUB AND PUSH1 0x2 PUSH2 0x2B11 JUMP JUMPDEST PUSH1 0x2 DUP4 PUSH1 0x60 ADD MLOAD PUSH2 0xF2A SWAP2 SWAP1 PUSH2 0x2C0C JUMP JUMPDEST PUSH2 0xF34 SWAP2 SWAP1 PUSH2 0x2C31 JUMP JUMPDEST PUSH2 0xF5F DUP4 PUSH1 0x60 ADD MLOAD DUP8 PUSH1 0x20 ADD MLOAD PUSH1 0x1 PUSH1 0x1 PUSH1 0x40 SHL SUB AND DUP6 PUSH1 0x0 ADD MLOAD PUSH2 0xF59 SWAP2 SWAP1 PUSH2 0x2AFE JUMP JUMPDEST SWAP1 PUSH2 0x17FB JUMP JUMPDEST DUP4 MLOAD PUSH2 0xF6B SWAP2 SWAP1 PUSH2 0x2AFE JUMP JUMPDEST PUSH2 0xE51 SWAP2 SWAP1 PUSH2 0x2ACE JUMP JUMPDEST PUSH1 0x3 DUP2 PUSH1 0x6 DUP2 GT ISZERO PUSH2 0xF89 JUMPI PUSH2 0xF89 PUSH2 0x2C5E JUMP JUMPDEST SUB PUSH2 0x1004 JUMPI PUSH1 0x0 PUSH8 0x1BC16D674EC80000 PUSH2 0xFD5 PUSH1 0x2 DUP10 PUSH1 0x40 ADD MLOAD PUSH2 0xFAD SWAP2 SWAP1 PUSH2 0x2C31 JUMP JUMPDEST DUP9 MLOAD PUSH1 0x60 DUP8 ADD MLOAD PUSH2 0xFC6 SWAP2 PUSH1 0x1 PUSH1 0x1 PUSH1 0x40 SHL SUB AND PUSH2 0xD38 JUMP JUMPDEST PUSH2 0xFD0 SWAP2 SWAP1 PUSH2 0x2ACE JUMP JUMPDEST PUSH2 0x1A36 JUMP JUMPDEST DUP8 MLOAD PUSH2 0xFEA SWAP2 SWAP1 PUSH1 0x1 PUSH1 0x1 PUSH1 0x40 SHL SUB AND PUSH2 0x2B11 JUMP JUMPDEST PUSH2 0xFF4 SWAP2 SWAP1 PUSH2 0x2C31 JUMP JUMPDEST DUP4 MLOAD SWAP1 SWAP2 POP PUSH2 0xEE0 SWAP1 DUP3 SWAP1 PUSH2 0x2AFE JUMP JUMPDEST PUSH1 0x4 DUP2 PUSH1 0x6 DUP2 GT ISZERO PUSH2 0x1018 JUMPI PUSH2 0x1018 PUSH2 0x2C5E JUMP JUMPDEST SUB PUSH2 0x10FF JUMPI PUSH1 0x0 PUSH2 0x1064 DUP8 PUSH1 0x40 ADD MLOAD PUSH2 0x104F DUP9 PUSH1 0x0 ADD MLOAD PUSH1 0x1 PUSH1 0x1 PUSH1 0x40 SHL SUB AND PUSH1 0x2 PUSH2 0x1044 SWAP2 SWAP1 PUSH2 0x2B11 JUMP JUMPDEST PUSH1 0x80 DUP8 ADD MLOAD SWAP1 PUSH2 0xD38 JUMP JUMPDEST PUSH2 0x1059 SWAP2 SWAP1 PUSH2 0x2ACE JUMP JUMPDEST PUSH1 0x80 DUP6 ADD MLOAD SWAP1 PUSH2 0x17FB JUMP JUMPDEST SWAP1 POP PUSH1 0x0 PUSH2 0x10C7 PUSH2 0x108F DUP9 PUSH1 0x40 ADD MLOAD PUSH1 0x1 PUSH1 0x1 PUSH1 0x40 SHL SUB AND DUP11 PUSH1 0x40 ADD MLOAD PUSH2 0x17FB SWAP1 SWAP2 SWAP1 PUSH4 0xFFFFFFFF AND JUMP JUMPDEST DUP10 PUSH1 0x20 ADD MLOAD PUSH2 0x109E SWAP2 SWAP1 PUSH2 0x2AFE JUMP JUMPDEST DUP9 PUSH1 0x0 ADD MLOAD PUSH1 0x1 PUSH1 0x1 PUSH1 0x40 SHL SUB AND PUSH1 0x2 DUP8 PUSH1 0x80 ADD MLOAD PUSH2 0x10BD SWAP2 SWAP1 PUSH2 0x2C0C JUMP JUMPDEST PUSH2 0xF59 SWAP2 SWAP1 PUSH2 0x2C31 JUMP JUMPDEST PUSH2 0x10D2 SWAP1 PUSH1 0x2 PUSH2 0x2B11 JUMP JUMPDEST SWAP1 POP DUP2 PUSH2 0x10DE DUP3 PUSH2 0x1A42 JUMP JUMPDEST DUP6 MLOAD PUSH2 0x10EA SWAP2 SWAP1 PUSH2 0x2ACE JUMP JUMPDEST PUSH2 0x10F4 SWAP2 SWAP1 PUSH2 0x2AFE JUMP JUMPDEST SWAP5 POP POP POP POP POP PUSH2 0x1272 JUMP JUMPDEST PUSH1 0x5 DUP2 PUSH1 0x6 DUP2 GT ISZERO PUSH2 0x1113 JUMPI PUSH2 0x1113 PUSH2 0x2C5E JUMP JUMPDEST SUB PUSH2 0x1156 JUMPI PUSH1 0x0 PUSH2 0xFF4 PUSH2 0x112A DUP9 PUSH1 0x0 ADD MLOAD PUSH2 0x1A36 JUMP JUMPDEST PUSH2 0x113C SWAP1 PUSH8 0xDE0B6B3A7640000 PUSH2 0x2AFE JUMP JUMPDEST DUP9 PUSH1 0x20 ADD MLOAD DUP10 PUSH1 0x40 ADD MLOAD PUSH2 0x1150 SWAP2 SWAP1 PUSH2 0x2AFE JUMP JUMPDEST SWAP1 PUSH2 0xD38 JUMP JUMPDEST PUSH1 0x6 DUP2 PUSH1 0x6 DUP2 GT ISZERO PUSH2 0x116A JUMPI PUSH2 0x116A PUSH2 0x2C5E JUMP JUMPDEST SUB PUSH2 0x1239 JUMPI PUSH1 0x0 PUSH1 0x2 DUP4 PUSH1 0x80 ADD MLOAD DUP9 PUSH1 0x20 ADD MLOAD DUP10 PUSH1 0x40 ADD MLOAD PUSH2 0x118C SWAP2 SWAP1 PUSH2 0x2AFE JUMP JUMPDEST PUSH2 0x1196 SWAP2 SWAP1 PUSH2 0x2ACE JUMP JUMPDEST PUSH2 0x11A0 SWAP2 SWAP1 PUSH2 0x2C31 JUMP JUMPDEST SWAP1 POP PUSH1 0x0 PUSH1 0x4 PUSH2 0x11C3 PUSH2 0x11B6 DUP11 PUSH1 0x0 ADD MLOAD PUSH2 0x1A36 JUMP JUMPDEST PUSH2 0xF59 DUP8 PUSH1 0x80 ADD MLOAD PUSH2 0x1A36 JUMP JUMPDEST PUSH2 0x11CD SWAP2 SWAP1 PUSH2 0x2C31 JUMP JUMPDEST PUSH2 0x11E9 DUP6 PUSH1 0x80 ADD MLOAD DUP11 PUSH1 0x20 ADD MLOAD DUP12 PUSH1 0x40 ADD MLOAD PUSH2 0xF59 SWAP2 SWAP1 PUSH2 0x2AFE JUMP JUMPDEST PUSH2 0x11F3 SWAP2 SWAP1 PUSH2 0x2ACE JUMP JUMPDEST SWAP1 POP PUSH1 0x0 PUSH2 0x1213 DUP3 PUSH2 0x1204 DUP6 PUSH2 0x1A36 JUMP JUMPDEST PUSH2 0x120E SWAP2 SWAP1 PUSH2 0x2AFE JUMP JUMPDEST PUSH2 0x1A42 JUMP JUMPDEST PUSH2 0x121D SWAP1 DUP5 PUSH2 0x2AFE JUMP JUMPDEST DUP6 MLOAD SWAP1 SWAP2 POP PUSH2 0x122D SWAP1 DUP3 SWAP1 PUSH2 0x2AFE JUMP JUMPDEST SWAP6 POP POP POP POP POP POP PUSH2 0x1272 JUMP JUMPDEST PUSH1 0x40 MLOAD PUSH3 0x461BCD PUSH1 0xE5 SHL DUP2 MSTORE PUSH1 0x20 PUSH1 0x4 DUP3 ADD MSTORE PUSH1 0xE PUSH1 0x24 DUP3 ADD MSTORE PUSH14 0x3AB735B737BBB7103932B3B4B7B7 PUSH1 0x91 SHL PUSH1 0x44 DUP3 ADD MSTORE PUSH1 0x64 ADD PUSH2 0x33D JUMP JUMPDEST SWAP4 SWAP3 POP POP POP JUMP JUMPDEST PUSH1 0x0 PUSH2 0x129F PUSH1 0x40 MLOAD DUP1 PUSH1 0x60 ADD PUSH1 0x40 MSTORE DUP1 PUSH1 0x0 DUP2 MSTORE PUSH1 0x20 ADD PUSH1 0x0 DUP2 MSTORE PUSH1 0x20 ADD PUSH1 0x0 DUP2 MSTORE POP SWAP1 JUMP JUMPDEST DUP6 MLOAD PUSH1 0x40 DUP8 ADD MLOAD PUSH1 0x0 SWAP2 PUSH2 0x12B2 SWAP2 PUSH2 0x2ACE JUMP JUMPDEST SWAP1 POP PUSH2 0x12C6 DUP8 PUSH1 0x20 ADD MLOAD DUP9 PUSH1 0x40 ADD MLOAD PUSH2 0xC42 JUMP JUMPDEST PUSH1 0x20 DUP9 ADD MSTORE DUP7 MLOAD PUSH2 0x12D7 SWAP1 DUP3 PUSH2 0xD38 JUMP JUMPDEST DUP3 MSTORE PUSH1 0x20 DUP8 ADD MLOAD PUSH2 0x12E8 SWAP1 DUP3 PUSH2 0xD38 JUMP JUMPDEST PUSH1 0x20 DUP4 ADD MSTORE PUSH1 0x40 DUP8 ADD MLOAD PUSH2 0x12FC SWAP1 DUP3 PUSH2 0xD38 JUMP JUMPDEST PUSH1 0x40 DUP4 ADD DUP2 SWAP1 MSTORE PUSH1 0x20 DUP4 ADD MLOAD PUSH1 0x0 SWAP2 PUSH2 0x1315 SWAP2 SWAP1 PUSH2 0xD38 JUMP JUMPDEST SWAP1 POP PUSH8 0xDE0B6B3A7640000 DUP2 LT PUSH2 0x1331 JUMPI DUP5 SWAP4 POP POP POP POP PUSH2 0x13F0 JUMP JUMPDEST DUP7 PUSH1 0x40 ADD MLOAD PUSH1 0x1 PUSH1 0x1 PUSH1 0x40 SHL SUB AND DUP2 GT PUSH2 0x1379 JUMPI PUSH1 0x0 PUSH2 0x1362 DUP10 PUSH1 0x40 ADD MLOAD DUP11 PUSH1 0x20 ADD MLOAD PUSH2 0xD38 SWAP1 SWAP2 SWAP1 PUSH4 0xFFFFFFFF AND JUMP JUMPDEST SWAP1 POP PUSH2 0x136E DUP2 DUP8 PUSH2 0x17FB JUMP JUMPDEST SWAP5 POP POP POP POP POP PUSH2 0x13F0 JUMP JUMPDEST PUSH1 0x0 PUSH2 0x1386 DUP5 DUP10 DUP10 PUSH2 0xDAB JUMP JUMPDEST SWAP1 POP PUSH1 0x0 PUSH2 0x1394 DUP3 DUP6 PUSH2 0x17FB JUMP JUMPDEST SWAP1 POP PUSH1 0x0 PUSH2 0x13B3 DUP9 DUP13 PUSH1 0x0 ADD MLOAD PUSH2 0x13AB SWAP2 SWAP1 PUSH2 0x2ACE JUMP JUMPDEST DUP4 DUP8 DUP14 PUSH2 0x1A60 JUMP JUMPDEST SWAP1 POP PUSH1 0x0 DUP2 DUP13 PUSH1 0x20 ADD MLOAD PUSH2 0x13C7 SWAP2 SWAP1 PUSH2 0x2AFE JUMP JUMPDEST SWAP1 POP DUP9 DUP2 GT ISZERO PUSH2 0x13D4 JUMPI POP DUP8 JUMPDEST DUP12 PUSH1 0x40 ADD MLOAD DUP2 GT ISZERO PUSH2 0x13E7 JUMPI POP PUSH1 0x40 DUP12 ADD MLOAD JUMPDEST SWAP7 POP POP POP POP POP POP POP JUMPDEST SWAP5 SWAP4 POP POP POP POP JUMP JUMPDEST PUSH1 0x0 DUP3 PUSH8 0xDE0B6B3A7640000 LT ISZERO PUSH2 0x1452 JUMPI PUSH1 0x40 MLOAD PUSH3 0x461BCD PUSH1 0xE5 SHL DUP2 MSTORE PUSH1 0x20 PUSH1 0x4 DUP3 ADD MSTORE PUSH1 0x1A PUSH1 0x24 DUP3 ADD MSTORE PUSH32 0x7961206D7573742062652067726561746572207468616E207875000000000000 PUSH1 0x44 DUP3 ADD MSTORE PUSH1 0x64 ADD PUSH2 0x33D JUMP JUMPDEST DUP2 MLOAD PUSH1 0x1 PUSH1 0x1 PUSH1 0x40 SHL SUB AND PUSH1 0x0 PUSH2 0x1471 DUP6 PUSH8 0xDE0B6B3A7640000 PUSH2 0x2AFE JUMP JUMPDEST SWAP1 POP PUSH2 0x147D DUP3 DUP3 PUSH2 0x17FB JUMP JUMPDEST DUP5 PUSH1 0x40 ADD MLOAD PUSH1 0x1 PUSH1 0x1 PUSH1 0x40 SHL SUB AND PUSH2 0x1495 SWAP2 SWAP1 PUSH2 0x2ACE JUMP JUMPDEST PUSH8 0xDE0B6B3A7640000 LT PUSH2 0x14DB JUMPI PUSH8 0x1BC16D674EC80000 PUSH2 0x14B5 DUP3 PUSH2 0x1A36 JUMP JUMPDEST PUSH2 0x14BF SWAP1 DUP5 PUSH2 0x2B11 JUMP JUMPDEST PUSH2 0x14C9 SWAP2 SWAP1 PUSH2 0x2C31 JUMP JUMPDEST PUSH2 0xD27 SWAP1 PUSH8 0xDE0B6B3A7640000 PUSH2 0x2AFE JUMP JUMPDEST PUSH1 0x0 DUP5 PUSH1 0x40 ADD MLOAD PUSH1 0x1 PUSH1 0x1 PUSH1 0x40 SHL SUB AND PUSH8 0xDE0B6B3A7640000 PUSH2 0x14FE SWAP2 SWAP1 PUSH2 0x2AFE JUMP JUMPDEST SWAP1 POP PUSH2 0x150B DUP4 PUSH1 0x2 PUSH2 0x2B11 JUMP JUMPDEST PUSH2 0x1516 PUSH1 0x2 DUP4 PUSH2 0x2C0C JUMP JUMPDEST PUSH2 0x1520 SWAP2 SWAP1 PUSH2 0x2C31 JUMP JUMPDEST PUSH2 0x152A DUP3 DUP5 PUSH2 0x17FB JUMP JUMPDEST PUSH2 0x153C SWAP1 PUSH8 0xDE0B6B3A7640000 PUSH2 0x2AFE JUMP JUMPDEST PUSH2 0x5FA SWAP2 SWAP1 PUSH2 0x2ACE JUMP JUMPDEST PUSH1 0x0 DUP4 DUP6 LT PUSH1 0x40 MLOAD DUP1 PUSH1 0x40 ADD PUSH1 0x40 MSTORE DUP1 PUSH1 0x2 DUP2 MSTORE PUSH1 0x20 ADD PUSH2 0x3331 PUSH1 0xF0 SHL DUP2 MSTORE POP SWAP1 PUSH2 0x1584 JUMPI PUSH1 0x40 MLOAD PUSH3 0x461BCD PUSH1 0xE5 SHL DUP2 MSTORE PUSH1 0x4 ADD PUSH2 0x33D SWAP2 SWAP1 PUSH2 0x2A6A JUMP JUMPDEST POP PUSH1 0x0 PUSH2 0x1599 PUSH2 0x1594 DUP5 DUP8 PUSH2 0x2AFE JUMP JUMPDEST PUSH2 0x1AE7 JUMP JUMPDEST SWAP1 POP PUSH1 0x0 DUP5 PUSH2 0x15A8 DUP9 DUP9 PUSH2 0x2AFE JUMP JUMPDEST PUSH2 0x15BA SWAP1 PUSH8 0x1BC16D674EC80000 PUSH2 0x2B11 JUMP JUMPDEST PUSH2 0x15C4 SWAP2 SWAP1 PUSH2 0x2C31 JUMP JUMPDEST SWAP1 POP DUP1 DUP3 LT PUSH2 0x15ED JUMPI PUSH2 0x15DA PUSH2 0x120E DUP3 DUP5 PUSH2 0x2AFE JUMP JUMPDEST PUSH2 0x15E4 SWAP1 DUP8 PUSH2 0x2AFE JUMP JUMPDEST SWAP3 POP POP POP PUSH2 0x13F0 JUMP JUMPDEST DUP6 SWAP3 POP POP POP PUSH2 0x13F0 JUMP JUMPDEST PUSH1 0x0 DUP1 PUSH2 0x1604 DUP8 DUP8 PUSH2 0x2AFE JUMP JUMPDEST SWAP1 POP PUSH1 0x0 PUSH2 0x1612 DUP6 DUP9 PUSH2 0x17FB JUMP JUMPDEST SWAP1 POP PUSH1 0x0 PUSH8 0x1BC16D674EC80000 PUSH2 0x162A PUSH1 0x2 DUP8 PUSH2 0x2C0C JUMP JUMPDEST PUSH2 0x1634 SWAP2 SWAP1 PUSH2 0x2C31 JUMP JUMPDEST PUSH2 0x163E DUP9 DUP6 PUSH2 0x17FB JUMP JUMPDEST GT PUSH2 0x1694 JUMPI PUSH1 0x0 DUP8 PUSH2 0x1658 DUP6 PUSH8 0x1BC16D674EC80000 PUSH2 0x2B11 JUMP JUMPDEST PUSH2 0x1662 SWAP2 SWAP1 PUSH2 0x2C31 JUMP JUMPDEST SWAP1 POP PUSH1 0x0 PUSH2 0x166F DUP3 PUSH2 0x1A42 JUMP JUMPDEST SWAP1 POP DUP10 DUP2 LT ISZERO PUSH2 0x1688 JUMPI PUSH2 0x1683 DUP2 DUP12 PUSH2 0x2AFE JUMP JUMPDEST PUSH2 0x168B JUMP JUMPDEST PUSH1 0x0 JUMPDEST SWAP3 POP POP POP PUSH2 0x16DF JUMP JUMPDEST PUSH1 0x0 PUSH2 0x16AB PUSH2 0x16A4 DUP10 PUSH1 0x2 PUSH2 0x2B11 JUMP JUMPDEST DUP8 SWAP1 PUSH2 0xD38 JUMP JUMPDEST PUSH2 0x16B5 DUP6 DUP9 PUSH2 0xD38 JUMP JUMPDEST PUSH2 0x16BF SWAP2 SWAP1 PUSH2 0x2ACE JUMP JUMPDEST SWAP1 POP DUP9 DUP2 LT ISZERO PUSH2 0x16D8 JUMPI PUSH2 0x16D3 DUP2 DUP11 PUSH2 0x2AFE JUMP JUMPDEST PUSH2 0x16DB JUMP JUMPDEST PUSH1 0x0 JUMPDEST SWAP2 POP POP JUMPDEST PUSH2 0x556 DUP2 DUP4 PUSH2 0x181C JUMP JUMPDEST PUSH1 0x0 DUP4 DUP4 EQ DUP1 PUSH2 0x16F7 JUMPI POP DUP5 ISZERO JUMPDEST ISZERO PUSH2 0x1703 JUMPI POP DUP4 PUSH2 0x13F0 JUMP JUMPDEST DUP4 DUP4 LT ISZERO PUSH2 0x1731 JUMPI PUSH1 0x0 PUSH2 0x1717 DUP5 DUP7 PUSH2 0x2AFE JUMP JUMPDEST SWAP1 POP PUSH1 0x0 PUSH2 0x1725 DUP5 DUP4 PUSH2 0x1AF3 JUMP JUMPDEST SWAP1 POP PUSH2 0x15E4 DUP8 DUP3 PUSH2 0x17FB JUMP JUMPDEST PUSH1 0x40 DUP1 MLOAD DUP1 DUP3 ADD DUP3 MSTORE PUSH1 0x2 DUP2 MSTORE PUSH2 0x3331 PUSH1 0xF0 SHL PUSH1 0x20 DUP3 ADD MSTORE SWAP1 MLOAD PUSH3 0x461BCD PUSH1 0xE5 SHL DUP2 MSTORE PUSH2 0x33D SWAP2 SWAP1 PUSH1 0x4 ADD PUSH2 0x2A6A JUMP JUMPDEST PUSH1 0x0 PUSH2 0x1795 PUSH32 0x0 PUSH1 0x1 PUSH1 0x1 PUSH1 0xA0 SHL SUB AND PUSH2 0x935 JUMP JUMPDEST PUSH1 0x1 PUSH1 0x1 PUSH1 0xA0 SHL SUB AND PUSH4 0xC1BD8CF9 PUSH1 0x40 MLOAD DUP2 PUSH4 0xFFFFFFFF AND PUSH1 0xE0 SHL DUP2 MSTORE PUSH1 0x4 ADD PUSH1 0x20 PUSH1 0x40 MLOAD DUP1 DUP4 SUB DUP2 DUP7 GAS STATICCALL ISZERO DUP1 ISZERO PUSH2 0x17D2 JUMPI RETURNDATASIZE PUSH1 0x0 DUP1 RETURNDATACOPY RETURNDATASIZE PUSH1 0x0 REVERT JUMPDEST POP POP POP POP PUSH1 0x40 MLOAD RETURNDATASIZE PUSH1 0x1F NOT PUSH1 0x1F DUP3 ADD AND DUP3 ADD DUP1 PUSH1 0x40 MSTORE POP DUP2 ADD SWAP1 PUSH2 0x17F6 SWAP2 SWAP1 PUSH2 0x2C45 JUMP JUMPDEST SWAP1 POP SWAP1 JUMP JUMPDEST PUSH1 0x0 DUP1 PUSH2 0x1808 DUP4 DUP6 PUSH2 0x2B11 JUMP JUMPDEST SWAP1 POP PUSH2 0x13F0 PUSH8 0xDE0B6B3A7640000 DUP3 PUSH2 0x2C31 JUMP JUMPDEST PUSH1 0x0 DUP2 DUP4 LT PUSH2 0x182B JUMPI DUP2 PUSH2 0x1272 JUMP JUMPDEST POP SWAP1 SWAP2 SWAP1 POP JUMP JUMPDEST PUSH1 0x0 PUSH2 0x183F DUP5 DUP5 DUP5 PUSH2 0x1B42 JUMP JUMPDEST ISZERO PUSH2 0x18DC JUMPI DUP3 PUSH1 0x20 ADD MLOAD PUSH1 0x1 PUSH1 0x1 PUSH1 0x40 SHL SUB AND DUP5 PUSH1 0x0 ADD MLOAD GT PUSH2 0x1864 JUMPI POP PUSH1 0x0 PUSH2 0x1272 JUMP JUMPDEST PUSH1 0x0 PUSH2 0x1897 DUP5 PUSH1 0x20 ADD MLOAD PUSH1 0x1 PUSH1 0x1 PUSH1 0x40 SHL SUB AND DUP7 PUSH1 0x0 ADD MLOAD PUSH2 0x1886 SWAP2 SWAP1 PUSH2 0x2AFE JUMP JUMPDEST DUP6 MLOAD PUSH1 0x1 PUSH1 0x1 PUSH1 0x40 SHL SUB AND SWAP1 PUSH2 0x17FB JUMP JUMPDEST PUSH1 0x40 DUP7 ADD MLOAD PUSH1 0x20 DUP8 ADD MLOAD PUSH2 0x18AA SWAP2 PUSH2 0xD38 JUMP JUMPDEST PUSH2 0x18B4 SWAP2 SWAP1 PUSH2 0x2ACE JUMP JUMPDEST SWAP1 POP PUSH8 0xDE0B6B3A7640000 DUP1 DUP3 GT PUSH2 0x18D1 JUMPI PUSH1 0x1 SWAP3 POP POP POP PUSH2 0x1272 JUMP JUMPDEST PUSH1 0x2 SWAP3 POP POP POP PUSH2 0x1272 JUMP JUMPDEST PUSH2 0x18F4 DUP5 DUP5 PUSH1 0x0 ADD MLOAD PUSH1 0x1 PUSH1 0x1 PUSH1 0x40 SHL SUB AND DUP5 PUSH2 0x1B90 JUMP JUMPDEST ISZERO PUSH2 0x1A14 JUMPI PUSH2 0x1911 DUP5 DUP5 PUSH1 0x0 ADD MLOAD PUSH1 0x1 PUSH1 0x1 PUSH1 0x40 SHL SUB AND DUP5 PUSH2 0x1BB5 JUMP JUMPDEST ISZERO PUSH2 0x1977 JUMPI PUSH8 0x1BC16D674EC80000 DUP4 PUSH1 0x0 ADD MLOAD PUSH1 0x1 PUSH1 0x1 PUSH1 0x40 SHL SUB AND PUSH2 0x193A DUP7 PUSH1 0x40 ADD MLOAD PUSH2 0x1A36 JUMP JUMPDEST PUSH2 0x1944 SWAP2 SWAP1 PUSH2 0x2B11 JUMP JUMPDEST PUSH2 0x194E SWAP2 SWAP1 PUSH2 0x2C31 JUMP JUMPDEST DUP5 PUSH1 0x20 ADD MLOAD DUP6 PUSH1 0x40 ADD MLOAD PUSH2 0x1962 SWAP2 SWAP1 PUSH2 0x2AFE JUMP JUMPDEST GT PUSH2 0x196F JUMPI POP PUSH1 0x0 PUSH2 0x1272 JUMP JUMPDEST POP PUSH1 0x3 PUSH2 0x1272 JUMP JUMPDEST PUSH1 0x0 DUP4 PUSH1 0x40 ADD MLOAD PUSH1 0x1 PUSH1 0x1 PUSH1 0x40 SHL SUB AND PUSH8 0xDE0B6B3A7640000 PUSH2 0x199A SWAP2 SWAP1 PUSH2 0x2AFE JUMP JUMPDEST DUP5 MLOAD SWAP1 SWAP2 POP PUSH2 0x19B3 SWAP1 PUSH1 0x1 PUSH1 0x1 PUSH1 0x40 SHL SUB AND PUSH1 0x2 PUSH2 0x2B11 JUMP JUMPDEST PUSH2 0x19BE PUSH1 0x2 DUP4 PUSH2 0x2C0C JUMP JUMPDEST PUSH2 0x19C8 SWAP2 SWAP1 PUSH2 0x2C31 JUMP JUMPDEST PUSH2 0x19EC DUP7 PUSH1 0x40 ADD MLOAD DUP7 PUSH1 0x40 ADD MLOAD PUSH1 0x1 PUSH1 0x1 PUSH1 0x40 SHL SUB AND PUSH2 0x17FB SWAP1 SWAP2 SWAP1 PUSH4 0xFFFFFFFF AND JUMP JUMPDEST DUP7 PUSH1 0x20 ADD MLOAD PUSH2 0x19FB SWAP2 SWAP1 PUSH2 0x2AFE JUMP JUMPDEST LT PUSH2 0x1A0A JUMPI PUSH1 0x0 SWAP2 POP POP PUSH2 0x1272 JUMP JUMPDEST PUSH1 0x4 SWAP2 POP POP PUSH2 0x1272 JUMP JUMPDEST PUSH2 0x1A1F DUP5 DUP5 DUP5 PUSH2 0x1C0D JUMP JUMPDEST ISZERO PUSH2 0x1A2C JUMPI POP PUSH1 0x5 PUSH2 0x1272 JUMP JUMPDEST POP PUSH1 0x6 SWAP4 SWAP3 POP POP POP JUMP JUMPDEST PUSH1 0x0 PUSH2 0x34B DUP3 DUP4 PUSH2 0x17FB JUMP JUMPDEST PUSH1 0x0 PUSH2 0x34B DUP3 PUSH2 0x1A5B PUSH1 0x2 PUSH8 0xDE0B6B3A7640000 PUSH2 0x2C31 JUMP JUMPDEST PUSH2 0x1C6E JUMP JUMPDEST PUSH1 0x0 DUP1 PUSH2 0x1A89 DUP6 DUP6 DUP6 PUSH1 0x40 ADD MLOAD PUSH1 0x1 PUSH1 0x1 PUSH1 0x40 SHL SUB AND DUP7 PUSH1 0x0 ADD MLOAD PUSH1 0x1 PUSH1 0x1 PUSH1 0x40 SHL SUB AND PUSH2 0x1E00 JUMP JUMPDEST SWAP1 POP PUSH1 0x0 PUSH2 0x1AC7 DUP7 DUP7 DUP5 DUP8 PUSH1 0x20 ADD MLOAD PUSH1 0x1 PUSH1 0x1 PUSH1 0x40 SHL SUB AND DUP9 PUSH1 0x40 ADD MLOAD PUSH1 0x1 PUSH1 0x1 PUSH1 0x40 SHL SUB AND PUSH8 0xDE0B6B3A7640000 PUSH2 0x1AC2 SWAP2 SWAP1 PUSH2 0x2AFE JUMP JUMPDEST PUSH2 0x15F7 JUMP JUMPDEST SWAP1 POP PUSH1 0x0 PUSH2 0x1AD7 DUP8 DUP8 DUP6 DUP6 PUSH2 0x1546 JUMP JUMPDEST SWAP1 POP PUSH2 0x56E DUP9 DUP9 DUP9 DUP7 DUP7 DUP7 PUSH2 0x1ED0 JUMP JUMPDEST PUSH1 0x0 PUSH2 0x34B DUP3 DUP4 PUSH2 0x1FE0 JUMP JUMPDEST PUSH1 0x0 PUSH8 0xDE0B6B3A7640000 JUMPDEST DUP3 ISZERO PUSH2 0x1272 JUMPI PUSH2 0x1B10 PUSH1 0x2 DUP5 PUSH2 0x2C74 JUMP JUMPDEST PUSH1 0x1 SUB PUSH2 0x1B24 JUMPI PUSH2 0x1B21 DUP2 DUP6 PUSH2 0x17FB JUMP JUMPDEST SWAP1 POP JUMPDEST PUSH2 0x1B2F PUSH1 0x2 DUP5 PUSH2 0x2C31 JUMP JUMPDEST SWAP3 POP PUSH2 0x1B3B DUP5 DUP6 PUSH2 0x17FB JUMP JUMPDEST SWAP4 POP PUSH2 0x1AFF JUMP JUMPDEST PUSH1 0x0 PUSH2 0x1B80 DUP5 PUSH1 0x0 ADD MLOAD DUP4 PUSH1 0x0 ADD MLOAD PUSH8 0xDE0B6B3A7640000 DUP7 PUSH1 0x0 ADD MLOAD PUSH1 0x1 PUSH1 0x1 PUSH1 0x40 SHL SUB AND DUP8 PUSH1 0x20 ADD MLOAD PUSH1 0x1 PUSH1 0x1 PUSH1 0x40 SHL SUB AND DUP8 PUSH1 0x40 ADD MLOAD PUSH2 0x1ED0 JUMP JUMPDEST DUP5 PUSH1 0x20 ADD MLOAD LT ISZERO SWAP1 POP SWAP4 SWAP3 POP POP POP JUMP JUMPDEST PUSH1 0x0 PUSH2 0x1B80 DUP5 PUSH1 0x0 ADD MLOAD DUP4 PUSH1 0x20 ADD MLOAD PUSH8 0xDE0B6B3A7640000 DUP7 PUSH1 0x0 DUP8 PUSH1 0x60 ADD MLOAD PUSH2 0x1ED0 JUMP JUMPDEST PUSH1 0x0 DUP2 PUSH1 0x20 ADD MLOAD DUP3 PUSH1 0x80 ADD MLOAD GT PUSH2 0x1BCE JUMPI POP PUSH1 0x1 PUSH2 0x1272 JUMP JUMPDEST DUP2 MLOAD PUSH1 0x80 DUP4 ADD MLOAD GT ISZERO PUSH2 0x1BE3 JUMPI POP PUSH1 0x0 PUSH2 0x1272 JUMP JUMPDEST PUSH2 0x1B80 DUP5 PUSH1 0x0 ADD MLOAD DUP4 PUSH1 0x80 ADD MLOAD PUSH8 0xDE0B6B3A7640000 DUP7 DUP7 PUSH1 0xC0 ADD MLOAD PUSH8 0xDE0B6B3A7640000 PUSH2 0x1ED0 JUMP JUMPDEST PUSH1 0x0 DUP2 PUSH1 0x20 ADD MLOAD DUP3 PUSH1 0xA0 ADD MLOAD GT ISZERO PUSH2 0x1C27 JUMPI POP PUSH1 0x0 PUSH2 0x1272 JUMP JUMPDEST PUSH2 0x1B80 DUP5 PUSH1 0x0 ADD MLOAD DUP4 PUSH1 0xA0 ADD MLOAD PUSH8 0xDE0B6B3A7640000 DUP7 PUSH1 0x40 ADD MLOAD PUSH1 0x1 PUSH1 0x1 PUSH1 0x40 SHL SUB AND PUSH8 0xDE0B6B3A7640000 PUSH2 0x1C5E SWAP2 SWAP1 PUSH2 0x2AFE JUMP JUMPDEST PUSH1 0x0 PUSH8 0xDE0B6B3A7640000 PUSH2 0x1ED0 JUMP JUMPDEST PUSH1 0x0 DUP2 PUSH1 0x0 SUB PUSH2 0x1C87 JUMPI POP PUSH8 0xDE0B6B3A7640000 PUSH2 0x34B JUMP JUMPDEST DUP3 PUSH1 0x0 SUB PUSH2 0x1C97 JUMPI POP PUSH1 0x0 PUSH2 0x34B JUMP JUMPDEST PUSH1 0x40 DUP1 MLOAD DUP1 DUP3 ADD SWAP1 SWAP2 MSTORE PUSH1 0x2 DUP2 MSTORE PUSH2 0x323 PUSH1 0xF4 SHL PUSH1 0x20 DUP3 ADD MSTORE PUSH1 0x1 PUSH1 0xFF SHL DUP5 LT PUSH2 0x1CD4 JUMPI PUSH1 0x40 MLOAD PUSH3 0x461BCD PUSH1 0xE5 SHL DUP2 MSTORE PUSH1 0x4 ADD PUSH2 0x33D SWAP2 SWAP1 PUSH2 0x2A6A JUMP JUMPDEST POP PUSH1 0x40 DUP1 MLOAD DUP1 DUP3 ADD SWAP1 SWAP2 MSTORE PUSH1 0x2 DUP2 MSTORE PUSH2 0x3231 PUSH1 0xF0 SHL PUSH1 0x20 DUP3 ADD MSTORE DUP4 SWAP1 PUSH24 0xBCE5086492111AEA88F4BB1CA6BCF584181EA8059F76532 DUP5 LT PUSH2 0x1D28 JUMPI PUSH1 0x40 MLOAD PUSH3 0x461BCD PUSH1 0xE5 SHL DUP2 MSTORE PUSH1 0x4 ADD PUSH2 0x33D SWAP2 SWAP1 PUSH2 0x2A6A JUMP JUMPDEST POP DUP3 PUSH1 0x0 PUSH8 0xC7D713B49DA0000 DUP4 SGT DUP1 ISZERO PUSH2 0x1D4A JUMPI POP PUSH8 0xF43FC2C04EE0000 DUP4 SLT JUMPDEST ISZERO PUSH2 0x1D81 JUMPI PUSH1 0x0 PUSH2 0x1D5A DUP5 PUSH2 0x202A JUMP JUMPDEST SWAP1 POP PUSH8 0xDE0B6B3A7640000 DUP1 DUP3 SMOD DUP5 MUL SDIV DUP4 PUSH8 0xDE0B6B3A7640000 DUP4 SDIV MUL ADD SWAP2 POP POP PUSH2 0x1D8F JUMP JUMPDEST DUP2 PUSH2 0x1D8B DUP5 PUSH2 0x2149 JUMP JUMPDEST MUL SWAP1 POP JUMPDEST PUSH8 0xDE0B6B3A7640000 SWAP1 SDIV PUSH9 0x238FD42C5CF03FFFF NOT DUP2 SLT DUP1 ISZERO SWAP1 PUSH2 0x1DBD JUMPI POP PUSH9 0x70C1CC73B00C80000 DUP2 SGT ISZERO JUMPDEST PUSH1 0x40 MLOAD DUP1 PUSH1 0x40 ADD PUSH1 0x40 MSTORE DUP1 PUSH1 0x2 DUP2 MSTORE PUSH1 0x20 ADD PUSH2 0x1919 PUSH1 0xF1 SHL DUP2 MSTORE POP SWAP1 PUSH2 0x1DF6 JUMPI PUSH1 0x40 MLOAD PUSH3 0x461BCD PUSH1 0xE5 SHL DUP2 MSTORE PUSH1 0x4 ADD PUSH2 0x33D SWAP2 SWAP1 PUSH2 0x2A6A JUMP JUMPDEST POP PUSH2 0x5FA DUP2 PUSH2 0x24F3 JUMP JUMPDEST PUSH1 0x0 DUP1 PUSH2 0x1E0D DUP7 DUP7 PUSH2 0xD38 JUMP JUMPDEST SWAP1 POP PUSH1 0x0 PUSH2 0x1E1B DUP5 DUP8 PUSH2 0xD38 JUMP JUMPDEST SWAP1 POP PUSH1 0x0 PUSH1 0x2 PUSH2 0x1E33 DUP8 PUSH8 0xDE0B6B3A7640000 PUSH2 0x2ACE JUMP JUMPDEST PUSH2 0x1E3D SWAP2 SWAP1 PUSH2 0x2C31 JUMP JUMPDEST DUP4 LT PUSH2 0x1E72 JUMPI PUSH2 0x1E6B DUP8 PUSH2 0x1150 PUSH2 0x1E5C DUP7 PUSH8 0xDE0B6B3A7640000 PUSH2 0x2AFE JUMP JUMPDEST PUSH8 0x1BC16D674EC80000 SWAP1 PUSH2 0x17FB JUMP JUMPDEST SWAP1 POP PUSH2 0x1EC6 JUMP JUMPDEST PUSH1 0x0 PUSH1 0x2 PUSH2 0x1E88 DUP9 PUSH8 0xDE0B6B3A7640000 PUSH2 0x2AFE JUMP JUMPDEST PUSH2 0x1E92 SWAP2 SWAP1 PUSH2 0x2C0C JUMP JUMPDEST SWAP1 POP PUSH1 0x0 PUSH2 0x1EA0 DUP9 DUP11 PUSH2 0x17FB JUMP JUMPDEST PUSH2 0x1EAA SWAP1 DUP12 PUSH2 0x2AFE JUMP JUMPDEST SWAP1 POP PUSH2 0x1EB7 DUP2 PUSH1 0x2 PUSH2 0x2B11 JUMP JUMPDEST PUSH2 0x1EC1 SWAP1 DUP4 PUSH2 0x2C31 JUMP JUMPDEST SWAP3 POP POP POP JUMPDEST PUSH2 0x56E DUP2 DUP4 PUSH2 0x2905 JUMP JUMPDEST PUSH1 0x0 DUP3 DUP8 GT PUSH2 0x1EEA JUMPI PUSH2 0x1EE3 DUP8 DUP8 PUSH2 0x2AFE JUMP JUMPDEST SWAP1 POP PUSH2 0x5FA JUMP JUMPDEST DUP2 DUP8 GT PUSH2 0x1FA2 JUMPI PUSH1 0x0 PUSH8 0x1BC16D674EC80000 PUSH2 0x1F09 PUSH2 0xFD0 DUP7 DUP12 PUSH2 0x2AFE JUMP JUMPDEST PUSH2 0x1F13 SWAP1 DUP8 PUSH2 0x2B11 JUMP JUMPDEST PUSH2 0x1F1D SWAP2 SWAP1 PUSH2 0x2C31 JUMP JUMPDEST PUSH2 0x1F27 SWAP1 DUP9 PUSH2 0x2ACE JUMP JUMPDEST SWAP1 POP DUP8 DUP2 LT PUSH2 0x1F42 JUMPI PUSH2 0x1F3A DUP9 DUP3 PUSH2 0x2AFE JUMP JUMPDEST SWAP2 POP POP PUSH2 0x5FA JUMP JUMPDEST DUP8 PUSH2 0x1F52 PUSH5 0x2540BE400 DUP9 PUSH2 0x17FB JUMP JUMPDEST PUSH2 0x1F5C SWAP1 DUP4 PUSH2 0x2ACE JUMP JUMPDEST LT ISZERO PUSH1 0x40 MLOAD DUP1 PUSH1 0x40 ADD PUSH1 0x40 MSTORE DUP1 PUSH1 0x2 DUP2 MSTORE PUSH1 0x20 ADD PUSH2 0x3237 PUSH1 0xF0 SHL DUP2 MSTORE POP SWAP1 PUSH2 0x1F97 JUMPI PUSH1 0x40 MLOAD PUSH3 0x461BCD PUSH1 0xE5 SHL DUP2 MSTORE PUSH1 0x4 ADD PUSH2 0x33D SWAP2 SWAP1 PUSH2 0x2A6A JUMP JUMPDEST POP PUSH1 0x0 SWAP2 POP POP PUSH2 0x5FA JUMP JUMPDEST PUSH1 0x0 PUSH2 0x1FB8 PUSH2 0x1FB1 DUP6 DUP6 PUSH2 0x2AFE JUMP JUMPDEST DUP7 SWAP1 PUSH2 0x17FB JUMP JUMPDEST PUSH2 0x1FCA SWAP1 PUSH8 0xDE0B6B3A7640000 PUSH2 0x2AFE JUMP JUMPDEST SWAP1 POP PUSH2 0x56E PUSH2 0x1FD9 DUP10 DUP9 PUSH2 0x2AFE JUMP JUMPDEST DUP3 SWAP1 PUSH2 0x17FB JUMP JUMPDEST PUSH1 0x0 DUP1 PUSH2 0x1FED DUP4 DUP6 PUSH2 0x2B11 JUMP JUMPDEST SWAP1 POP DUP1 PUSH1 0x0 SUB PUSH2 0x2001 JUMPI PUSH1 0x0 SWAP2 POP POP PUSH2 0x34B JUMP JUMPDEST PUSH8 0xDE0B6B3A7640000 PUSH2 0x2015 PUSH1 0x1 DUP4 PUSH2 0x2AFE JUMP JUMPDEST PUSH2 0x201F SWAP2 SWAP1 PUSH2 0x2C31 JUMP JUMPDEST PUSH2 0xDA3 SWAP1 PUSH1 0x1 PUSH2 0x2ACE JUMP JUMPDEST PUSH8 0xDE0B6B3A7640000 MUL PUSH1 0x0 DUP1 PUSH11 0xC097CE7BC90715B34B9F1 PUSH1 0x24 SHL DUP1 DUP5 ADD SWAP1 PUSH15 0xC097CE7BC90715B34B9F0FFFFFFFFF NOT DUP6 ADD MUL DUP2 PUSH2 0x206B JUMPI PUSH2 0x206B PUSH2 0x2C1B JUMP JUMPDEST SDIV SWAP1 POP PUSH1 0x0 PUSH11 0xC097CE7BC90715B34B9F1 PUSH1 0x24 SHL DUP3 DUP1 MUL SDIV SWAP1 POP DUP2 DUP1 PUSH11 0xC097CE7BC90715B34B9F1 PUSH1 0x24 SHL DUP2 DUP5 MUL SDIV SWAP2 POP PUSH1 0x3 DUP3 SDIV ADD PUSH11 0xC097CE7BC90715B34B9F1 PUSH1 0x24 SHL DUP3 DUP5 MUL SDIV SWAP2 POP PUSH1 0x5 DUP3 SDIV ADD PUSH11 0xC097CE7BC90715B34B9F1 PUSH1 0x24 SHL DUP3 DUP5 MUL SDIV SWAP2 POP PUSH1 0x7 DUP3 SDIV ADD PUSH11 0xC097CE7BC90715B34B9F1 PUSH1 0x24 SHL DUP3 DUP5 MUL SDIV SWAP2 POP PUSH1 0x9 DUP3 SDIV ADD PUSH11 0xC097CE7BC90715B34B9F1 PUSH1 0x24 SHL DUP3 DUP5 MUL SDIV SWAP2 POP PUSH1 0xB DUP3 SDIV ADD PUSH11 0xC097CE7BC90715B34B9F1 PUSH1 0x24 SHL DUP3 DUP5 MUL SDIV SWAP2 POP PUSH1 0xD DUP3 SDIV ADD PUSH11 0xC097CE7BC90715B34B9F1 PUSH1 0x24 SHL DUP3 DUP5 MUL SDIV SWAP2 POP PUSH1 0xF DUP3 SDIV ADD PUSH1 0x2 MUL SWAP6 SWAP5 POP POP POP POP POP JUMP JUMPDEST PUSH1 0x0 PUSH8 0xDE0B6B3A7640000 DUP3 SLT ISZERO PUSH2 0x218A JUMPI PUSH2 0x2181 DUP3 PUSH11 0xC097CE7BC90715B34B9F1 PUSH1 0x24 SHL DUP2 PUSH2 0x217B JUMPI PUSH2 0x217B PUSH2 0x2C1B JUMP JUMPDEST SDIV PUSH2 0x2149 JUMP JUMPDEST PUSH1 0x0 SUB SWAP3 SWAP2 POP POP JUMP JUMPDEST PUSH1 0x0 PUSH31 0x1600EF3172E58D2E933EC884FDE10064C63B5372D805E203C0000000000000 DUP4 SLT PUSH2 0x21DB JUMPI PUSH24 0x195E54C5DD42177F53A27172FA9EC630262827000000000 DUP4 SDIV SWAP3 POP PUSH9 0x6F05B59D3B2000000 ADD JUMPDEST PUSH20 0x11798004D755D3C8BC8E03204CF44619E000000 DUP4 SLT PUSH2 0x2213 JUMPI PUSH12 0x1425982CF597CD205CEF7380 DUP4 SDIV SWAP3 POP PUSH9 0x3782DACE9D9000000 ADD JUMPDEST PUSH1 0x64 SWAP3 DUP4 MUL SWAP3 MUL PUSH15 0x1855144814A7FF805980FF0084000 DUP4 SLT PUSH2 0x225B JUMPI PUSH15 0x1855144814A7FF805980FF0084000 PUSH9 0x56BC75E2D63100000 DUP5 MUL SDIV SWAP3 POP PUSH9 0xAD78EBC5AC62000000 ADD JUMPDEST PUSH12 0x2DF0AB5A80A22C61AB5A700 DUP4 SLT PUSH2 0x2296 JUMPI PUSH12 0x2DF0AB5A80A22C61AB5A700 PUSH9 0x56BC75E2D63100000 DUP5 MUL SDIV SWAP3 POP PUSH9 0x56BC75E2D631000000 ADD JUMPDEST PUSH10 0x3F1FCE3DA636EA5CF850 DUP4 SLT PUSH2 0x22CD JUMPI PUSH10 0x3F1FCE3DA636EA5CF850 PUSH9 0x56BC75E2D63100000 DUP5 MUL SDIV SWAP3 POP PUSH9 0x2B5E3AF16B18800000 ADD JUMPDEST PUSH10 0x127FA27722CC06CC5E2 DUP4 SLT PUSH2 0x2304 JUMPI PUSH10 0x127FA27722CC06CC5E2 PUSH9 0x56BC75E2D63100000 DUP5 MUL SDIV SWAP3 POP PUSH9 0x15AF1D78B58C400000 ADD JUMPDEST PUSH9 0x280E60114EDB805D03 DUP4 SLT PUSH2 0x2339 JUMPI PUSH9 0x280E60114EDB805D03 PUSH9 0x56BC75E2D63100000 DUP5 MUL SDIV SWAP3 POP PUSH9 0xAD78EBC5AC6200000 ADD JUMPDEST PUSH9 0xEBC5FB41746121110 DUP4 SLT PUSH2 0x2364 JUMPI PUSH9 0xEBC5FB41746121110 PUSH9 0x56BC75E2D63100000 SWAP4 DUP5 MUL SDIV SWAP3 ADD JUMPDEST PUSH9 0x8F00F760A4B2DB55D DUP4 SLT PUSH2 0x2399 JUMPI PUSH9 0x8F00F760A4B2DB55D PUSH9 0x56BC75E2D63100000 DUP5 MUL SDIV SWAP3 POP PUSH9 0x2B5E3AF16B1880000 ADD JUMPDEST PUSH9 0x6F5F1775788937937 DUP4 SLT PUSH2 0x23CE JUMPI PUSH9 0x6F5F1775788937937 PUSH9 0x56BC75E2D63100000 DUP5 MUL SDIV SWAP3 POP PUSH9 0x15AF1D78B58C40000 ADD JUMPDEST PUSH9 0x6248F33704B286603 DUP4 SLT PUSH2 0x2402 JUMPI PUSH9 0x6248F33704B286603 PUSH9 0x56BC75E2D63100000 DUP5 MUL SDIV SWAP3 POP PUSH8 0xAD78EBC5AC620000 ADD JUMPDEST PUSH9 0x5C548670B9510E7AC DUP4 SLT PUSH2 0x2436 JUMPI PUSH9 0x5C548670B9510E7AC PUSH9 0x56BC75E2D63100000 DUP5 MUL SDIV SWAP3 POP PUSH8 0x56BC75E2D6310000 ADD JUMPDEST PUSH1 0x0 PUSH9 0x56BC75E2D63100000 DUP5 ADD PUSH9 0x56BC75E2D63100000 DUP1 DUP7 SUB MUL DUP2 PUSH2 0x245F JUMPI PUSH2 0x245F PUSH2 0x2C1B JUMP JUMPDEST SDIV SWAP1 POP PUSH1 0x0 PUSH9 0x56BC75E2D63100000 DUP3 DUP1 MUL SDIV SWAP1 POP DUP2 DUP1 PUSH9 0x56BC75E2D63100000 DUP2 DUP5 MUL SDIV SWAP2 POP PUSH1 0x3 DUP3 SDIV ADD PUSH9 0x56BC75E2D63100000 DUP3 DUP5 MUL SDIV SWAP2 POP PUSH1 0x5 DUP3 SDIV ADD PUSH9 0x56BC75E2D63100000 DUP3 DUP5 MUL SDIV SWAP2 POP PUSH1 0x7 DUP3 SDIV ADD PUSH9 0x56BC75E2D63100000 DUP3 DUP5 MUL SDIV SWAP2 POP PUSH1 0x9 DUP3 SDIV ADD PUSH9 0x56BC75E2D63100000 DUP3 DUP5 MUL SDIV SWAP2 POP PUSH1 0xB DUP3 SDIV ADD PUSH1 0x2 MUL PUSH1 0x64 DUP6 DUP3 ADD SDIV SWAP8 SWAP7 POP POP POP POP POP POP POP JUMP JUMPDEST PUSH1 0x0 PUSH9 0x238FD42C5CF03FFFF NOT DUP3 SLT ISZERO DUP1 ISZERO PUSH2 0x2518 JUMPI POP PUSH9 0x70C1CC73B00C80000 DUP3 SGT ISZERO JUMPDEST PUSH1 0x40 MLOAD DUP1 PUSH1 0x40 ADD PUSH1 0x40 MSTORE DUP1 PUSH1 0x2 DUP2 MSTORE PUSH1 0x20 ADD PUSH2 0x3233 PUSH1 0xF0 SHL DUP2 MSTORE POP SWAP1 PUSH2 0x2551 JUMPI PUSH1 0x40 MLOAD PUSH3 0x461BCD PUSH1 0xE5 SHL DUP2 MSTORE PUSH1 0x4 ADD PUSH2 0x33D SWAP2 SWAP1 PUSH2 0x2A6A JUMP JUMPDEST POP PUSH1 0x0 DUP3 SLT ISZERO PUSH2 0x258A JUMPI PUSH2 0x2567 DUP3 PUSH1 0x0 SUB PUSH2 0x24F3 JUMP JUMPDEST PUSH11 0xC097CE7BC90715B34B9F1 PUSH1 0x24 SHL DUP2 PUSH2 0x2583 JUMPI PUSH2 0x2583 PUSH2 0x2C1B JUMP JUMPDEST SDIV SWAP3 SWAP2 POP POP JUMP JUMPDEST PUSH1 0x0 PUSH9 0x6F05B59D3B2000000 DUP4 SLT PUSH2 0x25CA JUMPI POP PUSH9 0x6F05B59D3B1FFFFFF NOT SWAP1 SWAP2 ADD SWAP1 PUSH24 0x195E54C5DD42177F53A27172FA9EC630262827000000000 PUSH2 0x2600 JUMP JUMPDEST PUSH9 0x3782DACE9D9000000 DUP4 SLT PUSH2 0x25FC JUMPI POP PUSH9 0x3782DACE9D8FFFFFF NOT SWAP1 SWAP2 ADD SWAP1 PUSH12 0x1425982CF597CD205CEF7380 PUSH2 0x2600 JUMP JUMPDEST POP PUSH1 0x1 JUMPDEST PUSH1 0x64 SWAP3 SWAP1 SWAP3 MUL SWAP2 PUSH9 0x56BC75E2D63100000 PUSH9 0xAD78EBC5AC62000000 DUP5 SLT PUSH2 0x2650 JUMPI PUSH9 0xAD78EBC5AC61FFFFFF NOT SWAP1 SWAP4 ADD SWAP3 PUSH9 0x56BC75E2D63100000 PUSH15 0x1855144814A7FF805980FF0084000 DUP3 MUL SDIV SWAP1 POP JUMPDEST PUSH9 0x56BC75E2D631000000 DUP5 SLT PUSH2 0x268C JUMPI PUSH9 0x56BC75E2D630FFFFFF NOT SWAP1 SWAP4 ADD SWAP3 PUSH9 0x56BC75E2D63100000 PUSH12 0x2DF0AB5A80A22C61AB5A700 DUP3 MUL SDIV SWAP1 POP JUMPDEST PUSH9 0x2B5E3AF16B18800000 DUP5 SLT PUSH2 0x26C6 JUMPI PUSH9 0x2B5E3AF16B187FFFFF NOT SWAP1 SWAP4 ADD SWAP3 PUSH9 0x56BC75E2D63100000 PUSH10 0x3F1FCE3DA636EA5CF850 DUP3 MUL SDIV SWAP1 POP JUMPDEST PUSH9 0x15AF1D78B58C400000 DUP5 SLT PUSH2 0x2700 JUMPI PUSH9 0x15AF1D78B58C3FFFFF NOT SWAP1 SWAP4 ADD SWAP3 PUSH9 0x56BC75E2D63100000 PUSH10 0x127FA27722CC06CC5E2 DUP3 MUL SDIV SWAP1 POP JUMPDEST PUSH9 0xAD78EBC5AC6200000 DUP5 SLT PUSH2 0x2739 JUMPI PUSH9 0xAD78EBC5AC61FFFFF NOT SWAP1 SWAP4 ADD SWAP3 PUSH9 0x56BC75E2D63100000 PUSH9 0x280E60114EDB805D03 DUP3 MUL SDIV SWAP1 POP JUMPDEST PUSH9 0x56BC75E2D63100000 DUP5 SLT PUSH2 0x2772 JUMPI PUSH9 0x56BC75E2D630FFFFF NOT SWAP1 SWAP4 ADD SWAP3 PUSH9 0x56BC75E2D63100000 PUSH9 0xEBC5FB41746121110 DUP3 MUL SDIV SWAP1 POP JUMPDEST PUSH9 0x2B5E3AF16B1880000 DUP5 SLT PUSH2 0x27AB JUMPI PUSH9 0x2B5E3AF16B187FFFF NOT SWAP1 SWAP4 ADD SWAP3 PUSH9 0x56BC75E2D63100000 PUSH9 0x8F00F760A4B2DB55D DUP3 MUL SDIV SWAP1 POP JUMPDEST PUSH9 0x15AF1D78B58C40000 DUP5 SLT PUSH2 0x27E4 JUMPI PUSH9 0x15AF1D78B58C3FFFF NOT SWAP1 SWAP4 ADD SWAP3 PUSH9 0x56BC75E2D63100000 PUSH9 0x6F5F1775788937937 DUP3 MUL SDIV SWAP1 POP JUMPDEST PUSH9 0x56BC75E2D63100000 DUP5 DUP2 ADD SWAP1 DUP6 SWAP1 PUSH1 0x2 SWAP1 DUP3 DUP1 MUL SDIV SDIV SWAP2 DUP3 ADD SWAP2 SWAP1 POP PUSH1 0x3 PUSH9 0x56BC75E2D63100000 DUP8 DUP4 MUL SDIV SDIV SWAP2 DUP3 ADD SWAP2 SWAP1 POP PUSH1 0x4 PUSH9 0x56BC75E2D63100000 DUP8 DUP4 MUL SDIV SDIV SWAP2 DUP3 ADD SWAP2 SWAP1 POP PUSH1 0x5 PUSH9 0x56BC75E2D63100000 DUP8 DUP4 MUL SDIV SDIV SWAP2 DUP3 ADD SWAP2 SWAP1 POP PUSH1 0x6 PUSH9 0x56BC75E2D63100000 DUP8 DUP4 MUL SDIV SDIV SWAP2 DUP3 ADD SWAP2 SWAP1 POP PUSH1 0x7 PUSH9 0x56BC75E2D63100000 DUP8 DUP4 MUL SDIV SDIV SWAP2 DUP3 ADD SWAP2 SWAP1 POP PUSH1 0x8 PUSH9 0x56BC75E2D63100000 DUP8 DUP4 MUL SDIV SDIV SWAP2 DUP3 ADD SWAP2 SWAP1 POP PUSH1 0x9 PUSH9 0x56BC75E2D63100000 DUP8 DUP4 MUL SDIV SDIV SWAP2 DUP3 ADD SWAP2 SWAP1 POP PUSH1 0xA PUSH9 0x56BC75E2D63100000 DUP8 DUP4 MUL SDIV SDIV SWAP2 DUP3 ADD SWAP2 SWAP1 POP PUSH1 0xB PUSH9 0x56BC75E2D63100000 DUP8 DUP4 MUL SDIV SDIV SWAP2 DUP3 ADD SWAP2 SWAP1 POP PUSH1 0xC PUSH9 0x56BC75E2D63100000 DUP8 DUP4 MUL SDIV SDIV SWAP2 DUP3 ADD SWAP2 SWAP1 POP PUSH1 0x64 PUSH9 0x56BC75E2D63100000 DUP5 DUP5 MUL SDIV DUP6 MUL SDIV SWAP7 SWAP6 POP POP POP POP POP POP JUMP JUMPDEST PUSH1 0x0 DUP2 DUP4 GT PUSH2 0x182B JUMPI DUP2 PUSH2 0x1272 JUMP JUMPDEST PUSH1 0x40 MLOAD DUP1 PUSH1 0xA0 ADD PUSH1 0x40 MSTORE DUP1 PUSH1 0x0 DUP2 MSTORE PUSH1 0x20 ADD PUSH1 0x0 DUP2 MSTORE PUSH1 0x20 ADD PUSH1 0x0 PUSH1 0x6 DUP2 GT ISZERO PUSH2 0x2940 JUMPI PUSH2 0x2940 PUSH2 0x2C5E JUMP JUMPDEST DUP2 MSTORE PUSH1 0x20 ADD PUSH1 0x0 DUP2 MSTORE PUSH1 0x20 ADD PUSH1 0x0 DUP2 MSTORE POP SWAP1 JUMP JUMPDEST PUSH1 0x0 DUP1 PUSH1 0x40 DUP4 DUP6 SUB SLT ISZERO PUSH2 0x2967 JUMPI PUSH1 0x0 DUP1 REVERT JUMPDEST POP POP DUP1 CALLDATALOAD SWAP3 PUSH1 0x20 SWAP1 SWAP2 ADD CALLDATALOAD SWAP2 POP JUMP JUMPDEST PUSH1 0x0 PUSH1 0x20 DUP3 DUP5 SUB SLT ISZERO PUSH2 0x2988 JUMPI PUSH1 0x0 DUP1 REVERT JUMPDEST POP CALLDATALOAD SWAP2 SWAP1 POP JUMP JUMPDEST DUP1 CALLDATALOAD PUSH1 0x1 PUSH1 0x1 PUSH1 0x40 SHL SUB DUP2 AND DUP2 EQ PUSH2 0x29A6 JUMPI PUSH1 0x0 DUP1 REVERT JUMPDEST SWAP2 SWAP1 POP JUMP JUMPDEST PUSH1 0x0 PUSH1 0x80 DUP3 DUP5 SUB SLT ISZERO PUSH2 0x29BD JUMPI PUSH1 0x0 DUP1 REVERT JUMPDEST PUSH1 0x40 MLOAD PUSH1 0x80 DUP2 ADD DUP2 DUP2 LT PUSH1 0x1 PUSH1 0x1 PUSH1 0x40 SHL SUB DUP3 GT OR ISZERO PUSH2 0x29ED JUMPI PUSH4 0x4E487B71 PUSH1 0xE0 SHL PUSH1 0x0 MSTORE PUSH1 0x41 PUSH1 0x4 MSTORE PUSH1 0x24 PUSH1 0x0 REVERT JUMPDEST PUSH1 0x40 MSTORE PUSH2 0x29F9 DUP4 PUSH2 0x298F JUMP JUMPDEST DUP2 MSTORE PUSH2 0x2A07 PUSH1 0x20 DUP5 ADD PUSH2 0x298F JUMP JUMPDEST PUSH1 0x20 DUP3 ADD MSTORE PUSH2 0x2A18 PUSH1 0x40 DUP5 ADD PUSH2 0x298F JUMP JUMPDEST PUSH1 0x40 DUP3 ADD MSTORE PUSH2 0x2A29 PUSH1 0x60 DUP5 ADD PUSH2 0x298F JUMP JUMPDEST PUSH1 0x60 DUP3 ADD MSTORE SWAP4 SWAP3 POP POP POP JUMP JUMPDEST PUSH1 0x1 PUSH1 0x1 PUSH1 0xA0 SHL SUB DUP2 AND DUP2 EQ PUSH2 0x2A4A JUMPI PUSH1 0x0 DUP1 REVERT JUMPDEST POP JUMP JUMPDEST PUSH1 0x0 PUSH1 0x20 DUP3 DUP5 SUB SLT ISZERO PUSH2 0x2A5F JUMPI PUSH1 0x0 DUP1 REVERT JUMPDEST DUP2 CALLDATALOAD PUSH2 0x1272 DUP2 PUSH2 0x2A35 JUMP JUMPDEST PUSH1 0x0 PUSH1 0x20 DUP1 DUP4 MSTORE DUP4 MLOAD DUP1 DUP3 DUP6 ADD MSTORE PUSH1 0x0 JUMPDEST DUP2 DUP2 LT ISZERO PUSH2 0x2A97 JUMPI DUP6 DUP2 ADD DUP4 ADD MLOAD DUP6 DUP3 ADD PUSH1 0x40 ADD MSTORE DUP3 ADD PUSH2 0x2A7B JUMP JUMPDEST POP PUSH1 0x0 PUSH1 0x40 DUP3 DUP7 ADD ADD MSTORE PUSH1 0x40 PUSH1 0x1F NOT PUSH1 0x1F DUP4 ADD AND DUP6 ADD ADD SWAP3 POP POP POP SWAP3 SWAP2 POP POP JUMP JUMPDEST PUSH4 0x4E487B71 PUSH1 0xE0 SHL PUSH1 0x0 MSTORE PUSH1 0x11 PUSH1 0x4 MSTORE PUSH1 0x24 PUSH1 0x0 REVERT JUMPDEST DUP1 DUP3 ADD DUP1 DUP3 GT ISZERO PUSH2 0x34B JUMPI PUSH2 0x34B PUSH2 0x2AB8 JUMP JUMPDEST PUSH1 0x0 PUSH1 0x20 DUP3 DUP5 SUB SLT ISZERO PUSH2 0x2AF3 JUMPI PUSH1 0x0 DUP1 REVERT JUMPDEST DUP2 MLOAD PUSH2 0x1272 DUP2 PUSH2 0x2A35 JUMP JUMPDEST DUP2 DUP2 SUB DUP2 DUP2 GT ISZERO PUSH2 0x34B JUMPI PUSH2 0x34B PUSH2 0x2AB8 JUMP JUMPDEST DUP1 DUP3 MUL DUP2 ISZERO DUP3 DUP3 DIV DUP5 EQ OR PUSH2 0x34B JUMPI PUSH2 0x34B PUSH2 0x2AB8 JUMP JUMPDEST PUSH1 0x1 DUP2 DUP2 JUMPDEST DUP1 DUP6 GT ISZERO PUSH2 0x2B63 JUMPI DUP2 PUSH1 0x0 NOT DIV DUP3 GT ISZERO PUSH2 0x2B49 JUMPI PUSH2 0x2B49 PUSH2 0x2AB8 JUMP JUMPDEST DUP1 DUP6 AND ISZERO PUSH2 0x2B56 JUMPI SWAP2 DUP2 MUL SWAP2 JUMPDEST SWAP4 DUP5 SHR SWAP4 SWAP1 DUP1 MUL SWAP1 PUSH2 0x2B2D JUMP JUMPDEST POP SWAP3 POP SWAP3 SWAP1 POP JUMP JUMPDEST PUSH1 0x0 DUP3 PUSH2 0x2B7A JUMPI POP PUSH1 0x1 PUSH2 0x34B JUMP JUMPDEST DUP2 PUSH2 0x2B87 JUMPI POP PUSH1 0x0 PUSH2 0x34B JUMP JUMPDEST DUP2 PUSH1 0x1 DUP2 EQ PUSH2 0x2B9D JUMPI PUSH1 0x2 DUP2 EQ PUSH2 0x2BA7 JUMPI PUSH2 0x2BC3 JUMP JUMPDEST PUSH1 0x1 SWAP2 POP POP PUSH2 0x34B JUMP JUMPDEST PUSH1 0xFF DUP5 GT ISZERO PUSH2 0x2BB8 JUMPI PUSH2 0x2BB8 PUSH2 0x2AB8 JUMP JUMPDEST POP POP PUSH1 0x1 DUP3 SHL PUSH2 0x34B JUMP JUMPDEST POP PUSH1 0x20 DUP4 LT PUSH2 0x133 DUP4 LT AND PUSH1 0x4E DUP5 LT PUSH1 0xB DUP5 LT AND OR ISZERO PUSH2 0x2BE6 JUMPI POP DUP2 DUP2 EXP PUSH2 0x34B JUMP JUMPDEST PUSH2 0x2BF0 DUP4 DUP4 PUSH2 0x2B28 JUMP JUMPDEST DUP1 PUSH1 0x0 NOT DIV DUP3 GT ISZERO PUSH2 0x2C04 JUMPI PUSH2 0x2C04 PUSH2 0x2AB8 JUMP JUMPDEST MUL SWAP4 SWAP3 POP POP POP JUMP JUMPDEST PUSH1 0x0 PUSH2 0x1272 PUSH1 0xFF DUP5 AND DUP4 PUSH2 0x2B6B JUMP JUMPDEST PUSH4 0x4E487B71 PUSH1 0xE0 SHL PUSH1 0x0 MSTORE PUSH1 0x12 PUSH1 0x4 MSTORE PUSH1 0x24 PUSH1 0x0 REVERT JUMPDEST PUSH1 0x0 DUP3 PUSH2 0x2C40 JUMPI PUSH2 0x2C40 PUSH2 0x2C1B JUMP JUMPDEST POP DIV SWAP1 JUMP JUMPDEST PUSH1 0x0 PUSH1 0x20 DUP3 DUP5 SUB SLT ISZERO PUSH2 0x2C57 JUMPI PUSH1 0x0 DUP1 REVERT JUMPDEST POP MLOAD SWAP2 SWAP1 POP JUMP JUMPDEST PUSH4 0x4E487B71 PUSH1 0xE0 SHL PUSH1 0x0 MSTORE PUSH1 0x21 PUSH1 0x4 MSTORE PUSH1 0x24 PUSH1 0x0 REVERT JUMPDEST PUSH1 0x0 DUP3 PUSH2 0x2C83 JUMPI PUSH2 0x2C83 PUSH2 0x2C1B JUMP JUMPDEST POP MOD SWAP1 JUMP INVALID LOG2 PUSH5 0x6970667358 0x22 SLT KECCAK256 PUSH28 0xFFF913805B86AEB62DD81AE249DA4F8B8154064CE4C3BC91D9EE17F2 PUSH18 0xF98964736F6C634300081100330000000000 ","sha1":"53a5aa8e91f4b3ff58f79082b88f9c8ba75b2ef6","source":"// SPDX-License-Identifier: LicenseRef-Gyro-1.0\n// for information on licensing please see the README in the GitHub repository <https://github.com/gyrostable/core-protocol>.\npragma solidity ^0.8.4;\n\nimport \"@openzeppelin/contracts/access/Ownable.sol\";\n\nimport \"../interfaces/IPAMM.sol\";\nimport \"../interfaces/IGyroConfig.sol\";\n\nimport \"../libraries/LogExpMath.sol\";\nimport \"../libraries/FixedPoint.sol\";\nimport \"../libraries/Flow.sol\";\nimport \"../libraries/ConfigHelpers.sol\";\n\nimport \"./auth/Governable.sol\";\n\n/// @notice Implements the primary AMM pricing mechanism\ncontract PrimaryAMMV1 is IPAMM, Governable {\n    using LogExpMath for uint256;\n    using FixedPoint for uint256;\n    using ConfigHelpers for IGyroConfig;\n\n    IGyroConfig public immutable gyroConfig;\n\n    /// @dev we tolerate underflows due to numerical issues up to 1e10, so 1e-8\n    /// given our 1e18 scale\n    uint256 internal constant _UNDERFLOW_EPSILON = 1e10;\n\n    uint256 internal constant ONE = 1e18;\n    uint256 internal constant TWO = 2e18;\n    uint256 internal constant ANCHOR = ONE;\n\n    modifier onlyMotherboard() {\n        require(msg.sender == address(gyroConfig.getMotherboard()), Errors.NOT_AUTHORIZED);\n        _;\n    }\n\n    enum Region {\n        CASE_i, // 0\n        CASE_I_ii, // 1\n        CASE_I_iii, // 2\n        CASE_II_H, // 3\n        CASE_II_L, // 4\n        CASE_III_H, // 5\n        CASE_III_L // 6\n    }\n\n    struct State {\n        uint256 redemptionLevel; // x\n        uint256 reserveValue; // b\n        uint256 totalGyroSupply; // y\n    }\n\n    /** @dev\n     * For the `*HL` values, these are only defined if both of the respective regions (on either\n     * side of the threshold) exist (and are otherwise 0). To see if this is the case, check the\n     * respective `ba*HL` value against `baThresholdRegionI` and `baThresholdRegionII`.\n     * Specifically:\n     *  - The `*IIHL` values are well-defined iff\n     *    `baThresholdRegionI > baThresholdIIHL > baThresholdRegionII`.\n     *  - The `*IIIHL` values are well-defined iff `baThresholdRegionII > baThresholdIIIHL`.\n     * In constrast, the `*{I,II,III}` values are all always well-defined.\n     */\n    struct DerivedParams {\n        uint256 baThresholdRegionI; // b_a^{I/II}\n        uint256 baThresholdRegionII; // b_a^{II/III}\n        // SOMEDAY knowing that these are at their respective thresholds, the xl and xu calculations could be further simplified.\n        uint256 xlThresholdAtThresholdI; // x_L^{I/II}\n        uint256 xlThresholdAtThresholdII; // x_L^{II/III}\n        uint256 baThresholdIIHL; // ba^{h/l}\n        uint256 baThresholdIIIHL; // ba^{H/L}\n        uint256 xuThresholdIIHL; // x_U^{h/l}\n    }\n\n    /// @notice parameters of the primary AMM\n    Params internal _systemParams;\n\n    /// @notice current redemption level of the primary AMM\n    uint256 public redemptionLevel;\n\n    /// @notice the last block at which a redemption occured\n    uint256 public lastRedemptionBlock;\n\n    /// @notice Initializes the PAMM with the given system parameters\n    constructor(\n        address _governor,\n        address _gyroConfig,\n        Params memory params\n    ) Governable(_governor) {\n        require(_gyroConfig != address(0), Errors.INVALID_ARGUMENT);\n        gyroConfig = IGyroConfig(_gyroConfig);\n        _systemParams = params;\n    }\n\n    /// @inheritdoc IPAMM\n    function systemParams() external view returns (Params memory) {\n        return _systemParams;\n    }\n\n    /// @inheritdoc IPAMM\n    function setSystemParams(Params memory params) external governanceOnly {\n        _systemParams = params;\n\n        // NOTE: this is not strictly needed but ensures that the given\n        // parameters allow to compute the derived parameters without underflowing\n        createDerivedParams(params);\n\n        emit SystemParamsUpdated(\n            params.alphaBar,\n            params.xuBar,\n            params.thetaBar,\n            params.outflowMemory\n        );\n    }\n\n    /// Helpers to compute various parameters\n\n    /// @dev Proposition 3 (section 3) of the paper\n    function computeAlpha(\n        uint256 ba,\n        uint256 ya,\n        uint256 thetaBar,\n        uint256 alphaBar\n    ) internal pure returns (uint256) {\n        uint256 ra = ba.divDown(ya);\n        uint256 alphaMin = alphaBar.divDown(ya);\n        uint256 alphaHat;\n        if (ra >= (ONE + thetaBar) / 2) {\n            alphaHat = TWO.mulDown(ONE - ra).divDown(ya);\n        } else {\n            uint256 numerator = (ONE - thetaBar)**2;\n            uint256 denominator = ba - thetaBar.mulDown(ya);\n            alphaHat = numerator / (denominator * 2);\n        }\n        return alphaHat.max(alphaMin);\n    }\n\n    /// @dev Proposition 1 (section 3) of the paper\n    function computeReserveFixedParams(\n        uint256 x,\n        uint256 ba,\n        uint256 ya,\n        uint256 alpha,\n        uint256 xu,\n        uint256 xl\n    ) internal pure returns (uint256) {\n        if (x <= xu) {\n            return ba - x;\n        }\n        if (x <= xl) {\n            uint256 pos = ba + (alpha * (x - xu).squareDown()) / TWO;\n            if (pos >= x) return pos - x;\n            else {\n                require(pos + _UNDERFLOW_EPSILON.mulDown(ya) >= x, Errors.SUB_OVERFLOW);\n                return 0;\n            }\n        }\n        // x > xl:\n        uint256 rl = ONE - alpha.mulDown(xl - xu);\n        return rl.mulDown(ya - x);\n    }\n\n    /// @dev Proposition 2 (section 3) of the paper\n    function computeXl(\n        uint256 ba,\n        uint256 ya,\n        uint256 alpha,\n        uint256 xu\n    ) internal pure returns (uint256) {\n        require(ba < ya, Errors.INVALID_ARGUMENT);\n        uint256 left = (ya - xu).squareUp();\n        uint256 right = (TWO * (ya - ba)) / alpha;\n        if (left >= right) {\n            return ya - (left - right).sqrt();\n        } else {\n            return ya;\n        }\n    }\n\n    /// @dev Proposition 4 (section 3) of the paper\n    function computeXu(\n        uint256 ba,\n        uint256 ya,\n        uint256 alpha,\n        uint256 xuBar,\n        uint256 theta\n    ) internal pure returns (uint256) {\n        uint256 delta = ya - ba;\n        uint256 xuMax = xuBar.mulDown(ya);\n        uint256 xu;\n        if (alpha.mulDown(delta) <= theta**2 / TWO) {\n            uint256 rh = ((TWO * delta) / alpha);\n            uint256 rhSqrt = rh.sqrt();\n            xu = rhSqrt >= ya ? 0 : ya - rhSqrt;\n        } else {\n            uint256 subtracted = delta.divDown(theta) + theta.divDown(2 * alpha);\n            xu = subtracted >= ya ? 0 : ya - subtracted;\n        }\n\n        return xu.min(xuMax);\n    }\n\n    /// @dev Lemma 4 (seection 7) of the paper\n    function computeBa(uint256 xu, Params memory params) internal pure returns (uint256) {\n        require(ONE >= xu, \"ya must be greater than xu\");\n        uint256 alpha = params.alphaBar;\n\n        uint256 yz = ANCHOR - xu;\n        if (ONE >= params.thetaBar + alpha.mulDown(yz))\n            return ANCHOR - (alpha * yz.squareDown()) / TWO;\n        uint256 theta = ONE - params.thetaBar;\n        return ANCHOR - theta.mulDown(yz) + theta**2 / (2 * alpha);\n    }\n\n    /// @dev Algorithm 1 (section 7) of the paper\n    function createDerivedParams(Params memory params)\n        internal\n        pure\n        returns (DerivedParams memory)\n    {\n        DerivedParams memory derived;\n\n        derived.baThresholdRegionI = computeBa(params.xuBar, params);\n\n        derived.baThresholdRegionII = computeBa(0, params);\n\n        derived.xlThresholdAtThresholdI = computeXl(\n            derived.baThresholdRegionI,\n            ONE,\n            params.alphaBar,\n            params.xuBar\n        );\n        derived.xlThresholdAtThresholdII = computeXl(\n            derived.baThresholdRegionII,\n            ONE,\n            params.alphaBar,\n            0\n        );\n\n        uint256 theta = ONE - params.thetaBar;\n\n        {\n            uint256 subtrahend = (theta**2) / (2 * uint256(params.alphaBar));\n            derived.baThresholdIIHL = ONE >= subtrahend ? ONE - subtrahend : 0;\n        }\n\n        if (\n            derived.baThresholdRegionI > derived.baThresholdIIHL &&\n            derived.baThresholdIIHL > derived.baThresholdRegionII\n        ) {\n            derived.xuThresholdIIHL = computeXu(\n                derived.baThresholdIIHL,\n                ONE,\n                params.alphaBar,\n                params.xuBar,\n                theta\n            );\n        }\n\n        derived.baThresholdIIIHL = (ONE + params.thetaBar) / 2;\n\n        return derived;\n    }\n\n    function computeReserve(\n        uint256 x,\n        uint256 ba,\n        uint256 ya,\n        Params memory params\n    ) internal pure returns (uint256) {\n        uint256 alpha = computeAlpha(ba, ya, params.thetaBar, params.alphaBar);\n        uint256 xu = computeXu(ba, ya, alpha, params.xuBar, ONE - params.thetaBar);\n        uint256 xl = computeXl(ba, ya, alpha, xu);\n        return computeReserveFixedParams(x, ba, ya, alpha, xu, xl);\n    }\n\n    function isInFirstRegion(\n        State memory normalizedState,\n        Params memory params,\n        DerivedParams memory derived\n    ) internal pure returns (bool) {\n        return\n            normalizedState.reserveValue >=\n            computeReserveFixedParams(\n                normalizedState.redemptionLevel,\n                derived.baThresholdRegionI,\n                ONE,\n                params.alphaBar,\n                params.xuBar,\n                derived.xlThresholdAtThresholdI\n            );\n    }\n\n    function isInSecondRegion(\n        State memory normalizedState,\n        uint256 alphaBar,\n        DerivedParams memory derived\n    ) internal pure returns (bool) {\n        return\n            normalizedState.reserveValue >=\n            computeReserveFixedParams(\n                normalizedState.redemptionLevel,\n                derived.baThresholdRegionII,\n                ONE,\n                alphaBar,\n                0,\n                derived.xlThresholdAtThresholdII\n            );\n    }\n\n    function isInSecondRegionHigh(\n        State memory normalizedState,\n        uint256 alphaBar,\n        DerivedParams memory derived\n    ) internal pure returns (bool) {\n        if (derived.baThresholdIIHL <= derived.baThresholdRegionII) return true;\n        if (derived.baThresholdIIHL > derived.baThresholdRegionI) return false;\n        return\n            normalizedState.reserveValue >=\n            computeReserveFixedParams(\n                normalizedState.redemptionLevel,\n                derived.baThresholdIIHL,\n                ONE,\n                alphaBar,\n                derived.xuThresholdIIHL,\n                ONE\n            );\n    }\n\n    function isInThirdRegionHigh(\n        State memory normalizedState,\n        Params memory params,\n        DerivedParams memory derived\n    ) internal pure returns (bool) {\n        if (derived.baThresholdIIIHL > derived.baThresholdRegionII) return false;\n        return\n            normalizedState.reserveValue >=\n            computeReserveFixedParams(\n                normalizedState.redemptionLevel,\n                derived.baThresholdIIIHL,\n                ONE,\n                ONE - params.thetaBar,\n                0,\n                ONE\n            );\n    }\n\n    function computeReserveValueRegion(\n        State memory normalizedState,\n        Params memory params,\n        DerivedParams memory derived\n    ) internal pure returns (Region) {\n        if (isInFirstRegion(normalizedState, params, derived)) {\n            // case I\n            if (normalizedState.redemptionLevel <= params.xuBar) return Region.CASE_i;\n\n            uint256 lhs = normalizedState.reserveValue.divDown(normalizedState.totalGyroSupply) +\n                uint256(params.alphaBar).mulDown(normalizedState.redemptionLevel - params.xuBar);\n            uint256 rhs = ONE;\n            if (lhs <= rhs) return Region.CASE_I_ii;\n            return Region.CASE_I_iii;\n        }\n\n        if (isInSecondRegion(normalizedState, params.alphaBar, derived)) {\n            // case II\n            if (isInSecondRegionHigh(normalizedState, params.alphaBar, derived)) {\n                // case II_h\n                if (\n                    normalizedState.totalGyroSupply - normalizedState.reserveValue <=\n                    (normalizedState.totalGyroSupply.squareDown() * params.alphaBar) / TWO\n                ) return Region.CASE_i;\n                return Region.CASE_II_H;\n            }\n\n            uint256 theta = ONE - params.thetaBar;\n            if (\n                normalizedState.reserveValue -\n                    uint256(params.thetaBar).mulDown(normalizedState.totalGyroSupply) >=\n                theta**2 / (2 * uint256(params.alphaBar))\n            ) return Region.CASE_i;\n            return Region.CASE_II_L;\n        }\n\n        if (isInThirdRegionHigh(normalizedState, params, derived)) {\n            return Region.CASE_III_H;\n        }\n\n        return Region.CASE_III_L;\n    }\n\n    struct NextReserveValueVars {\n        uint256 ya;\n        uint256 r;\n        Region region;\n        uint256 u;\n        uint256 theta;\n    }\n\n    function computeAnchoredReserveValue(\n        State memory normalizedState,\n        Params memory params,\n        DerivedParams memory derived\n    ) internal pure returns (uint256) {\n        NextReserveValueVars memory vars;\n\n        Region region = computeReserveValueRegion(normalizedState, params, derived);\n\n        vars.ya = ONE;\n        vars.r = normalizedState.reserveValue.divDown(normalizedState.totalGyroSupply);\n        vars.u = ONE - vars.r;\n        vars.theta = ONE - params.thetaBar;\n\n        if (region == Region.CASE_i) {\n            return normalizedState.reserveValue + normalizedState.redemptionLevel;\n        }\n\n        if (region == Region.CASE_I_ii) {\n            uint256 xDiff = normalizedState.redemptionLevel - params.xuBar;\n            return (normalizedState.reserveValue +\n                normalizedState.redemptionLevel -\n                (params.alphaBar * xDiff.squareDown()) /\n                TWO);\n        }\n\n        if (region == Region.CASE_I_iii)\n            return\n                vars.ya -\n                (vars.ya - params.xuBar).mulDown(vars.u) +\n                (vars.u**2 / (2 * uint256(params.alphaBar)));\n\n        if (region == Region.CASE_II_H) {\n            uint256 delta = (params.alphaBar *\n                (vars.u.divDown(params.alphaBar) + (normalizedState.totalGyroSupply / 2))\n                    .squareDown()) / TWO;\n            return vars.ya - delta;\n        }\n\n        if (region == Region.CASE_II_L) {\n            uint256 p = vars.theta.mulDown(\n                vars.theta.divDown(2 * uint256(params.alphaBar)) + normalizedState.totalGyroSupply\n            );\n            uint256 d = 2 *\n                (vars.theta**2 / params.alphaBar).mulDown(\n                    normalizedState.reserveValue -\n                        normalizedState.totalGyroSupply.mulDown(params.thetaBar)\n                );\n            return vars.ya + d.sqrt() - p;\n        }\n\n        if (region == Region.CASE_III_H) {\n            uint256 delta = (normalizedState.totalGyroSupply - normalizedState.reserveValue)\n                .divDown((ONE - normalizedState.redemptionLevel.squareDown()));\n            return vars.ya - delta;\n        }\n\n        if (region == Region.CASE_III_L) {\n            uint256 p = (normalizedState.totalGyroSupply -\n                normalizedState.reserveValue +\n                vars.theta) / 2;\n            uint256 q = (normalizedState.totalGyroSupply - normalizedState.reserveValue).mulDown(\n                vars.theta\n            ) + vars.theta.squareDown().mulDown(normalizedState.redemptionLevel.squareDown()) / 4;\n            uint256 delta = p - (p.squareDown() - q).sqrt();\n            return vars.ya - delta;\n        }\n\n        revert(\"unknown region\");\n    }\n\n    /// @dev redeemDiscountRatio is expected to be a small value along the lines of 1%\n    /// this means that the first condition should always be true unless if the system\n    /// is in a extreme state\n    function _computeDiscountedReserveValue(uint256 reserveValue, uint256 totalGyroSupply)\n        internal\n        view\n        returns (uint256)\n    {\n        uint256 redeemDiscountRatio = gyroConfig.getUint(ConfigKeys.REDEEM_DISCOUNT_RATIO);\n\n        if (reserveValue > 2 * redeemDiscountRatio.mulDown(totalGyroSupply)) {\n            uint256 discounted = reserveValue - redeemDiscountRatio.mulDown(totalGyroSupply);\n            return discounted.min(totalGyroSupply);\n        }\n\n        return reserveValue;\n    }\n\n    function computeRedeemAmount(\n        State memory state,\n        Params memory params,\n        DerivedParams memory derived,\n        uint256 amount\n    ) internal view returns (uint256) {\n        State memory normalizedState;\n        uint256 ya = state.totalGyroSupply + state.redemptionLevel;\n\n        state.reserveValue = _computeDiscountedReserveValue(\n            state.reserveValue,\n            state.totalGyroSupply\n        );\n\n        normalizedState.redemptionLevel = state.redemptionLevel.divDown(ya);\n        normalizedState.reserveValue = state.reserveValue.divDown(ya);\n        normalizedState.totalGyroSupply = state.totalGyroSupply.divDown(ya);\n\n        uint256 normalizedNav = normalizedState.reserveValue.divDown(\n            normalizedState.totalGyroSupply\n        );\n\n        if (normalizedNav >= ONE) {\n            return amount;\n        }\n\n        if (normalizedNav <= params.thetaBar) {\n            uint256 nav = state.reserveValue.divDown(state.totalGyroSupply);\n            return nav.mulDown(amount);\n        }\n\n        uint256 normalizedAnchoredReserveValue = computeAnchoredReserveValue(\n            normalizedState,\n            params,\n            derived\n        );\n        uint256 anchoredReserveValue = normalizedAnchoredReserveValue.mulDown(ya);\n\n        uint256 nextReserveValue = computeReserve(\n            state.redemptionLevel + amount,\n            anchoredReserveValue,\n            ya,\n            params\n        );\n        // we are redeeming so the next reserve value must be smaller than the current one\n        uint256 redeemAmount = state.reserveValue - nextReserveValue;\n\n        // Defensive programming. The following conditions could only occur due to numerical inaccuracy in extreme situations.\n        if (redeemAmount > amount) redeemAmount = amount;\n        if (redeemAmount > state.totalGyroSupply) redeemAmount = state.totalGyroSupply;\n\n        return redeemAmount;\n    }\n\n    function getNormalizedAnchoredReserveValue(uint256 reserveUSDValue)\n        external\n        view\n        returns (uint256)\n    {\n        // This is copied & adjusted from the two variants of computeRedeemAmount(), but we exit earlier.\n        Params memory params = _systemParams;\n        DerivedParams memory derived = createDerivedParams(params);\n        State memory state = computeStartingRedeemState(reserveUSDValue, params);\n\n        State memory normalizedState;\n        uint256 ya = state.totalGyroSupply + state.redemptionLevel;\n\n        state.reserveValue = _computeDiscountedReserveValue(\n            state.reserveValue,\n            state.totalGyroSupply\n        );\n\n        normalizedState.redemptionLevel = state.redemptionLevel.divDown(ya);\n        normalizedState.reserveValue = state.reserveValue.divDown(ya);\n        normalizedState.totalGyroSupply = state.totalGyroSupply.divDown(ya);\n\n        uint256 normalizedNav = normalizedState.reserveValue.divDown(\n            normalizedState.totalGyroSupply\n        );\n\n        if (normalizedNav >= ONE) {\n            return ONE;\n        }\n\n        if (normalizedNav <= params.thetaBar) {\n            uint256 nav = state.reserveValue.divDown(state.totalGyroSupply);\n            return nav;\n        }\n\n        return computeAnchoredReserveValue(normalizedState, params, derived);\n    }\n\n    /// @notice Returns the USD value to mint given an ammount of Gyro dollars\n    function computeMintAmount(uint256 usdAmount, uint256) external pure returns (uint256) {\n        return usdAmount;\n    }\n\n    /// @notice Records and returns the USD value to mint given an ammount of Gyro dollars\n    function mint(uint256 usdAmount, uint256) external view onlyMotherboard returns (uint256) {\n        return usdAmount;\n    }\n\n    /// @notice Computes the USD value to redeem given an ammount of Gyro dollars\n    function computeRedeemAmount(uint256 gydAmount, uint256 reserveUSDValue)\n        external\n        view\n        returns (uint256)\n    {\n        if (gydAmount == 0) return 0;\n        Params memory params = _systemParams;\n        DerivedParams memory derived = createDerivedParams(params);\n        State memory currentState = computeStartingRedeemState(reserveUSDValue, params);\n        return computeRedeemAmount(currentState, params, derived, gydAmount);\n    }\n\n    function computeStartingRedeemState(uint256 reserveUSDValue, Params memory params)\n        internal\n        view\n        returns (State memory currentState)\n    {\n        return\n            State({\n                reserveValue: reserveUSDValue,\n                redemptionLevel: Flow.updateFlow(\n                    redemptionLevel,\n                    block.number,\n                    lastRedemptionBlock,\n                    params.outflowMemory\n                ),\n                totalGyroSupply: _getGyroSupply()\n            });\n    }\n\n    /// @notice Computes and records the USD value to redeem given an ammount of Gyro dollars\n    // NB reserveValue does not need to be stored as part of state - could be passed around\n    function redeem(uint256 gydAmount, uint256 reserveUSDValue)\n        public\n        onlyMotherboard\n        returns (uint256)\n    {\n        if (gydAmount == 0) return 0;\n        Params memory params = _systemParams;\n        State memory currentState = computeStartingRedeemState(reserveUSDValue, params);\n        DerivedParams memory derived = createDerivedParams(params);\n        uint256 redeemAmount = computeRedeemAmount(currentState, params, derived, gydAmount);\n\n        redemptionLevel = currentState.redemptionLevel + gydAmount;\n        lastRedemptionBlock = block.number;\n\n        return redeemAmount;\n    }\n\n    function _getGyroSupply() internal view virtual returns (uint256) {\n        return gyroConfig.getMotherboard().mintedSupply();\n    }\n}\n","sourcePath":"contracts/PrimaryAMMV1.sol","type":"contract","deployment":{"address":"0x9d2F03eaF1f9Da36a3e4E8E0e9dbd408BD11AC78","chainid":"1","blockHeight":18363472}}