{"abi":[{"inputs":[{"internalType":"address","name":"_governor","type":"address"}],"stateMutability":"nonpayable","type":"constructor","name":"constructor"},{"anonymous":false,"inputs":[{"indexed":true,"internalType":"address","name":"asset","type":"address"},{"indexed":true,"internalType":"address","name":"previousFeed","type":"address"},{"indexed":true,"internalType":"address","name":"newFeed","type":"address"}],"name":"FeedUpdated","type":"event"},{"anonymous":false,"inputs":[{"indexed":false,"internalType":"address","name":"newGovernor","type":"address"}],"name":"GovernorChangeRequested","type":"event"},{"anonymous":false,"inputs":[{"indexed":false,"internalType":"address","name":"oldGovernor","type":"address"},{"indexed":false,"internalType":"address","name":"newGovernor","type":"address"}],"name":"GovernorChanged","type":"event"},{"inputs":[],"name":"MAX_LAG","outputs":[{"internalType":"uint256","name":"","type":"uint256"}],"stateMutability":"view","type":"function"},{"inputs":[],"name":"acceptGovernance","outputs":[],"stateMutability":"nonpayable","type":"function"},{"inputs":[{"internalType":"address","name":"newGovernor","type":"address"}],"name":"changeGovernor","outputs":[],"stateMutability":"nonpayable","type":"function"},{"inputs":[{"internalType":"address","name":"","type":"address"}],"name":"feeds","outputs":[{"internalType":"address","name":"","type":"address"}],"stateMutability":"view","type":"function"},{"inputs":[{"internalType":"address","name":"asset","type":"address"}],"name":"getPriceUSD","outputs":[{"internalType":"uint256","name":"","type":"uint256"}],"stateMutability":"view","type":"function"},{"inputs":[],"name":"governor","outputs":[{"internalType":"address","name":"","type":"address"}],"stateMutability":"view","type":"function"},{"inputs":[],"name":"listSupportedAssets","outputs":[{"internalType":"address[]","name":"","type":"address[]"}],"stateMutability":"view","type":"function"},{"inputs":[],"name":"pendingGovernor","outputs":[{"internalType":"address","name":"","type":"address"}],"stateMutability":"view","type":"function"},{"inputs":[{"internalType":"address","name":"asset","type":"address"},{"internalType":"address","name":"feed","type":"address"}],"name":"setFeed","outputs":[],"stateMutability":"nonpayable","type":"function"}],"bytecode":"608060405234801561001057600080fd5b50604051610cf6380380610cf683398101604081905261002f91610092565b600080546001600160a01b0319166001600160a01b0383169081178255604080519283526020830191909152829182917fde4b3f61490b74c0ed6237523974fe299126bbbf8a8a7482fd220104c59b0c84910160405180910390a15050506100c2565b6000602082840312156100a457600080fd5b81516001600160a01b03811681146100bb57600080fd5b9392505050565b610c25806100d16000396000f3fe608060405234801561001057600080fd5b50600436106100935760003560e01c806340b1eb101161006657806340b1eb10146101135780635436ae9a146101265780635708447d1461013b578063e3056a341461014e578063e4c0aaf41461016157600080fd5b80630c340a241461009857806314c1d37f146100c8578063238efcbc146100e05780632fba4aa9146100ea575b600080fd5b6000546100ab906001600160a01b031681565b6040516001600160a01b0390911681526020015b60405180910390f35b6100d26201518081565b6040519081526020016100bf565b6100e8610174565b005b6100ab6100f83660046108cc565b6004602052600090815260409020546001600160a01b031681565b6100e86101213660046108e7565b61022d565b61012e61039e565b6040516100bf919061091a565b6100d26101493660046108cc565b6103af565b6001546100ab906001600160a01b031681565b6100e861016f3660046108cc565b61048b565b600154604080518082019091526002815261033360f41b6020820152906001600160a01b031633146101c25760405162461bcd60e51b81526004016101b99190610967565b60405180910390fd5b5060008054600180546001600160a01b03198084166001600160a01b03808416919091179095551690556040805192909116808352336020840152917fde4b3f61490b74c0ed6237523974fe299126bbbf8a8a7482fd220104c59b0c8491015b60405180910390a150565b600054604080518082019091526002815261033360f41b6020820152906001600160a01b031633146102725760405162461bcd60e51b81526004016101b99190610967565b506001600160a01b038083166000908152600460209081526040918290205482518084019093526002835261333160f01b91830191909152821691831682036102ce5760405162461bcd60e51b81526004016101b99190610967565b506001600160a01b038216610314576102e8600284610560565b506001600160a01b038316600090815260046020526040902080546001600160a01b031916905561034f565b61031f60028461057e565b506001600160a01b03838116600090815260046020526040902080546001600160a01b0319169184169190911790555b816001600160a01b0316816001600160a01b0316846001600160a01b03167f321e37f6a0404dbaed483cc2ece840899199567b4a62f4639eff9587735b87fd60405160405180910390a4505050565b60606103aa6002610593565b905090565b6001600160a01b0380821660009081526004602090815260408083205481518083019092526002825261034360f41b9282019290925291921690816104075760405162461bcd60e51b81526004016101b99190610967565b506000610413826105a7565b50915050610483826001600160a01b031663313ce5676040518163ffffffff1660e01b8152600401602060405180830381865afa158015610458573d6000803e3d6000fd5b505050506040513d601f19601f8201168201806040525081019061047c91906109b5565b82906106aa565b949350505050565b600054604080518082019091526002815261033360f41b6020820152906001600160a01b031633146104d05760405162461bcd60e51b81526004016101b99190610967565b50604080518082019091526002815261333160f01b60208201526001600160a01b0382166105115760405162461bcd60e51b81526004016101b99190610967565b50600180546001600160a01b0319166001600160a01b0383169081179091556040519081527f67235ba2e63c748a35b95c4f92a3bbc2a1389938170a5ce6c9add5d0b03a314a90602001610222565b6000610575836001600160a01b038416610712565b90505b92915050565b6000610575836001600160a01b038416610805565b606060006105a083610854565b9392505050565b600080600080846001600160a01b031663feaf968c6040518163ffffffff1660e01b815260040160a060405180830381865afa1580156105eb573d6000803e3d6000fd5b505050506040513d601f19601f8201168201806040525081019061060f91906109f2565b50929650919350915061062790506201518083610a58565b42111560405180604001604052806002815260200161343160f01b815250906106635760405162461bcd60e51b81526004016101b99190610967565b506040805180820190915260028152611a1960f11b6020820152600082121561069f5760405162461bcd60e51b81526004016101b99190610967565b509294929350919050565b600060111960ff8316016106bf575081610578565b601260ff831611156106f2576106d6601283610a6b565b6106e190600a610b68565b6106eb9084610b77565b9050610578565b6106fd826012610a6b565b61070890600a610b68565b6106eb9084610b99565b600081815260018301602052604081205480156107fb576000610736600183610bb0565b855490915060009061074a90600190610bb0565b90508181146107af57600086600001828154811061076a5761076a610bc3565b906000526020600020015490508087600001848154811061078d5761078d610bc3565b6000918252602080832090910192909255918252600188019052604090208390555b85548690806107c0576107c0610bd9565b600190038181906000526020600020016000905590558560010160008681526020019081526020016000206000905560019350505050610578565b6000915050610578565b600081815260018301602052604081205461084c57508154600181810184556000848152602080822090930184905584548482528286019093526040902091909155610578565b506000610578565b6060816000018054806020026020016040519081016040528092919081815260200182805480156108a457602002820191906000526020600020905b815481526020019060010190808311610890575b50505050509050919050565b80356001600160a01b03811681146108c757600080fd5b919050565b6000602082840312156108de57600080fd5b610575826108b0565b600080604083850312156108fa57600080fd5b610903836108b0565b9150610911602084016108b0565b90509250929050565b6020808252825182820181905260009190848201906040850190845b8181101561095b5783516001600160a01b031683529284019291840191600101610936565b50909695505050505050565b600060208083528351808285015260005b8181101561099457858101830151858201604001528201610978565b506000604082860101526040601f19601f8301168501019250505092915050565b6000602082840312156109c757600080fd5b815160ff811681146105a057600080fd5b805169ffffffffffffffffffff811681146108c757600080fd5b600080600080600060a08688031215610a0a57600080fd5b610a13866109d8565b9450602086015193506040860151925060608601519150610a36608087016109d8565b90509295509295909350565b634e487b7160e01b600052601160045260246000fd5b8082018082111561057857610578610a42565b60ff828116828216039081111561057857610578610a42565b600181815b80851115610abf578160001904821115610aa557610aa5610a42565b80851615610ab257918102915b93841c9390800290610a89565b509250929050565b600082610ad657506001610578565b81610ae357506000610578565b8160018114610af95760028114610b0357610b1f565b6001915050610578565b60ff841115610b1457610b14610a42565b50506001821b610578565b5060208310610133831016604e8410600b8410161715610b42575081810a610578565b610b4c8383610a84565b8060001904821115610b6057610b60610a42565b029392505050565b600061057560ff841683610ac7565b600082610b9457634e487b7160e01b600052601260045260246000fd5b500490565b808202811582820484141761057857610578610a42565b8181038181111561057857610578610a42565b634e487b7160e01b600052603260045260246000fd5b634e487b7160e01b600052603160045260246000fdfea264697066735822122007253d6443e71f460aeb47721a10e0b10ede3bb5876893de3d6e0ac4f11d2f7864736f6c63430008110033","bytecodeSha1":"af5a5cd94d02671cc17cbc1e2ce5c110c18bdd31","compiler":{"evm_version":"london","optimizer":{"enabled":true,"runs":200},"version":"0.8.17+commit.8df45f5f"},"contractName":"ChainlinkPriceOracle","language":"Solidity","natspec":{"kind":"dev","methods":{"acceptGovernance()":{"notice":"Called by the pending governor to approve the change"},"changeGovernor(address)":{"notice":"Changes the governor can only be called by the current governor"},"getPriceUSD(address)":{"notice":"Quotes the USD price of `tokenAddress` The quoted price is always scaled with 18 decimals regardless of the source used for the oracle.","params":{"tokenAddress":"the asset of which the price is to be quoted"},"returns":{"_0":"the USD price of the asset"}},"governor()":{"notice":"Returns the current governor"},"pendingGovernor()":{"notice":"Returns the pending governor"},"setFeed(address,address)":{"notice":"Allows to set Chainlink feeds This can only be called by governance","params":{"feed":"the Chainlink feed address. If this is 0, the asset is removed (i.e. not supported anymore)"}}},"version":1},"opcodes":"PUSH1 0x80 PUSH1 0x40 MSTORE CALLVALUE DUP1 ISZERO PUSH2 0x10 JUMPI PUSH1 0x0 DUP1 REVERT JUMPDEST POP PUSH1 0x4 CALLDATASIZE LT PUSH2 0x93 JUMPI PUSH1 0x0 CALLDATALOAD PUSH1 0xE0 SHR DUP1 PUSH4 0x40B1EB10 GT PUSH2 0x66 JUMPI DUP1 PUSH4 0x40B1EB10 EQ PUSH2 0x113 JUMPI DUP1 PUSH4 0x5436AE9A EQ PUSH2 0x126 JUMPI DUP1 PUSH4 0x5708447D EQ PUSH2 0x13B JUMPI DUP1 PUSH4 0xE3056A34 EQ PUSH2 0x14E JUMPI DUP1 PUSH4 0xE4C0AAF4 EQ PUSH2 0x161 JUMPI PUSH1 0x0 DUP1 REVERT JUMPDEST DUP1 PUSH4 0xC340A24 EQ PUSH2 0x98 JUMPI DUP1 PUSH4 0x14C1D37F EQ PUSH2 0xC8 JUMPI DUP1 PUSH4 0x238EFCBC EQ PUSH2 0xE0 JUMPI DUP1 PUSH4 0x2FBA4AA9 EQ PUSH2 0xEA JUMPI JUMPDEST PUSH1 0x0 DUP1 REVERT JUMPDEST PUSH1 0x0 SLOAD PUSH2 0xAB SWAP1 PUSH1 0x1 PUSH1 0x1 PUSH1 0xA0 SHL SUB AND DUP2 JUMP JUMPDEST PUSH1 0x40 MLOAD PUSH1 0x1 PUSH1 0x1 PUSH1 0xA0 SHL SUB SWAP1 SWAP2 AND DUP2 MSTORE PUSH1 0x20 ADD JUMPDEST PUSH1 0x40 MLOAD DUP1 SWAP2 SUB SWAP1 RETURN JUMPDEST PUSH2 0xD2 PUSH3 0x15180 DUP2 JUMP JUMPDEST PUSH1 0x40 MLOAD SWAP1 DUP2 MSTORE PUSH1 0x20 ADD PUSH2 0xBF JUMP JUMPDEST PUSH2 0xE8 PUSH2 0x174 JUMP JUMPDEST STOP JUMPDEST PUSH2 0xAB PUSH2 0xF8 CALLDATASIZE PUSH1 0x4 PUSH2 0x8CC JUMP JUMPDEST PUSH1 0x4 PUSH1 0x20 MSTORE PUSH1 0x0 SWAP1 DUP2 MSTORE PUSH1 0x40 SWAP1 KECCAK256 SLOAD PUSH1 0x1 PUSH1 0x1 PUSH1 0xA0 SHL SUB AND DUP2 JUMP JUMPDEST PUSH2 0xE8 PUSH2 0x121 CALLDATASIZE PUSH1 0x4 PUSH2 0x8E7 JUMP JUMPDEST PUSH2 0x22D JUMP JUMPDEST PUSH2 0x12E PUSH2 0x39E JUMP JUMPDEST PUSH1 0x40 MLOAD PUSH2 0xBF SWAP2 SWAP1 PUSH2 0x91A JUMP JUMPDEST PUSH2 0xD2 PUSH2 0x149 CALLDATASIZE PUSH1 0x4 PUSH2 0x8CC JUMP JUMPDEST PUSH2 0x3AF JUMP JUMPDEST PUSH1 0x1 SLOAD PUSH2 0xAB SWAP1 PUSH1 0x1 PUSH1 0x1 PUSH1 0xA0 SHL SUB AND DUP2 JUMP JUMPDEST PUSH2 0xE8 PUSH2 0x16F CALLDATASIZE PUSH1 0x4 PUSH2 0x8CC JUMP JUMPDEST PUSH2 0x48B JUMP JUMPDEST PUSH1 0x1 SLOAD PUSH1 0x40 DUP1 MLOAD DUP1 DUP3 ADD SWAP1 SWAP2 MSTORE PUSH1 0x2 DUP2 MSTORE PUSH2 0x333 PUSH1 0xF4 SHL PUSH1 0x20 DUP3 ADD MSTORE SWAP1 PUSH1 0x1 PUSH1 0x1 PUSH1 0xA0 SHL SUB AND CALLER EQ PUSH2 0x1C2 JUMPI PUSH1 0x40 MLOAD PUSH3 0x461BCD PUSH1 0xE5 SHL DUP2 MSTORE PUSH1 0x4 ADD PUSH2 0x1B9 SWAP2 SWAP1 PUSH2 0x967 JUMP JUMPDEST PUSH1 0x40 MLOAD DUP1 SWAP2 SUB SWAP1 REVERT JUMPDEST POP PUSH1 0x0 DUP1 SLOAD PUSH1 0x1 DUP1 SLOAD PUSH1 0x1 PUSH1 0x1 PUSH1 0xA0 SHL SUB NOT DUP1 DUP5 AND PUSH1 0x1 PUSH1 0x1 PUSH1 0xA0 SHL SUB DUP1 DUP5 AND SWAP2 SWAP1 SWAP2 OR SWAP1 SWAP6 SSTORE AND SWAP1 SSTORE PUSH1 0x40 DUP1 MLOAD SWAP3 SWAP1 SWAP2 AND DUP1 DUP4 MSTORE CALLER PUSH1 0x20 DUP5 ADD MSTORE SWAP2 PUSH32 0xDE4B3F61490B74C0ED6237523974FE299126BBBF8A8A7482FD220104C59B0C84 SWAP2 ADD JUMPDEST PUSH1 0x40 MLOAD DUP1 SWAP2 SUB SWAP1 LOG1 POP JUMP JUMPDEST PUSH1 0x0 SLOAD PUSH1 0x40 DUP1 MLOAD DUP1 DUP3 ADD SWAP1 SWAP2 MSTORE PUSH1 0x2 DUP2 MSTORE PUSH2 0x333 PUSH1 0xF4 SHL PUSH1 0x20 DUP3 ADD MSTORE SWAP1 PUSH1 0x1 PUSH1 0x1 PUSH1 0xA0 SHL SUB AND CALLER EQ PUSH2 0x272 JUMPI PUSH1 0x40 MLOAD PUSH3 0x461BCD PUSH1 0xE5 SHL DUP2 MSTORE PUSH1 0x4 ADD PUSH2 0x1B9 SWAP2 SWAP1 PUSH2 0x967 JUMP JUMPDEST POP PUSH1 0x1 PUSH1 0x1 PUSH1 0xA0 SHL SUB DUP1 DUP4 AND PUSH1 0x0 SWAP1 DUP2 MSTORE PUSH1 0x4 PUSH1 0x20 SWAP1 DUP2 MSTORE PUSH1 0x40 SWAP2 DUP3 SWAP1 KECCAK256 SLOAD DUP3 MLOAD DUP1 DUP5 ADD SWAP1 SWAP4 MSTORE PUSH1 0x2 DUP4 MSTORE PUSH2 0x3331 PUSH1 0xF0 SHL SWAP2 DUP4 ADD SWAP2 SWAP1 SWAP2 MSTORE DUP3 AND SWAP2 DUP4 AND DUP3 SUB PUSH2 0x2CE JUMPI PUSH1 0x40 MLOAD PUSH3 0x461BCD PUSH1 0xE5 SHL DUP2 MSTORE PUSH1 0x4 ADD PUSH2 0x1B9 SWAP2 SWAP1 PUSH2 0x967 JUMP JUMPDEST POP PUSH1 0x1 PUSH1 0x1 PUSH1 0xA0 SHL SUB DUP3 AND PUSH2 0x314 JUMPI PUSH2 0x2E8 PUSH1 0x2 DUP5 PUSH2 0x560 JUMP JUMPDEST POP PUSH1 0x1 PUSH1 0x1 PUSH1 0xA0 SHL SUB DUP4 AND PUSH1 0x0 SWAP1 DUP2 MSTORE PUSH1 0x4 PUSH1 0x20 MSTORE PUSH1 0x40 SWAP1 KECCAK256 DUP1 SLOAD PUSH1 0x1 PUSH1 0x1 PUSH1 0xA0 SHL SUB NOT AND SWAP1 SSTORE PUSH2 0x34F JUMP JUMPDEST PUSH2 0x31F PUSH1 0x2 DUP5 PUSH2 0x57E JUMP JUMPDEST POP PUSH1 0x1 PUSH1 0x1 PUSH1 0xA0 SHL SUB DUP4 DUP2 AND PUSH1 0x0 SWAP1 DUP2 MSTORE PUSH1 0x4 PUSH1 0x20 MSTORE PUSH1 0x40 SWAP1 KECCAK256 DUP1 SLOAD PUSH1 0x1 PUSH1 0x1 PUSH1 0xA0 SHL SUB NOT AND SWAP2 DUP5 AND SWAP2 SWAP1 SWAP2 OR SWAP1 SSTORE JUMPDEST DUP2 PUSH1 0x1 PUSH1 0x1 PUSH1 0xA0 SHL SUB AND DUP2 PUSH1 0x1 PUSH1 0x1 PUSH1 0xA0 SHL SUB AND DUP5 PUSH1 0x1 PUSH1 0x1 PUSH1 0xA0 SHL SUB AND PUSH32 0x321E37F6A0404DBAED483CC2ECE840899199567B4A62F4639EFF9587735B87FD PUSH1 0x40 MLOAD PUSH1 0x40 MLOAD DUP1 SWAP2 SUB SWAP1 LOG4 POP POP POP JUMP JUMPDEST PUSH1 0x60 PUSH2 0x3AA PUSH1 0x2 PUSH2 0x593 JUMP JUMPDEST SWAP1 POP SWAP1 JUMP JUMPDEST PUSH1 0x1 PUSH1 0x1 PUSH1 0xA0 SHL SUB DUP1 DUP3 AND PUSH1 0x0 SWAP1 DUP2 MSTORE PUSH1 0x4 PUSH1 0x20 SWAP1 DUP2 MSTORE PUSH1 0x40 DUP1 DUP4 KECCAK256 SLOAD DUP2 MLOAD DUP1 DUP4 ADD SWAP1 SWAP3 MSTORE PUSH1 0x2 DUP3 MSTORE PUSH2 0x343 PUSH1 0xF4 SHL SWAP3 DUP3 ADD SWAP3 SWAP1 SWAP3 MSTORE SWAP2 SWAP3 AND SWAP1 DUP2 PUSH2 0x407 JUMPI PUSH1 0x40 MLOAD PUSH3 0x461BCD PUSH1 0xE5 SHL DUP2 MSTORE PUSH1 0x4 ADD PUSH2 0x1B9 SWAP2 SWAP1 PUSH2 0x967 JUMP JUMPDEST POP PUSH1 0x0 PUSH2 0x413 DUP3 PUSH2 0x5A7 JUMP JUMPDEST POP SWAP2 POP POP PUSH2 0x483 DUP3 PUSH1 0x1 PUSH1 0x1 PUSH1 0xA0 SHL SUB AND PUSH4 0x313CE567 PUSH1 0x40 MLOAD DUP2 PUSH4 0xFFFFFFFF AND PUSH1 0xE0 SHL DUP2 MSTORE PUSH1 0x4 ADD PUSH1 0x20 PUSH1 0x40 MLOAD DUP1 DUP4 SUB DUP2 DUP7 GAS STATICCALL ISZERO DUP1 ISZERO PUSH2 0x458 JUMPI RETURNDATASIZE PUSH1 0x0 DUP1 RETURNDATACOPY RETURNDATASIZE PUSH1 0x0 REVERT JUMPDEST POP POP POP POP PUSH1 0x40 MLOAD RETURNDATASIZE PUSH1 0x1F NOT PUSH1 0x1F DUP3 ADD AND DUP3 ADD DUP1 PUSH1 0x40 MSTORE POP DUP2 ADD SWAP1 PUSH2 0x47C SWAP2 SWAP1 PUSH2 0x9B5 JUMP JUMPDEST DUP3 SWAP1 PUSH2 0x6AA JUMP JUMPDEST SWAP5 SWAP4 POP POP POP POP JUMP JUMPDEST PUSH1 0x0 SLOAD PUSH1 0x40 DUP1 MLOAD DUP1 DUP3 ADD SWAP1 SWAP2 MSTORE PUSH1 0x2 DUP2 MSTORE PUSH2 0x333 PUSH1 0xF4 SHL PUSH1 0x20 DUP3 ADD MSTORE SWAP1 PUSH1 0x1 PUSH1 0x1 PUSH1 0xA0 SHL SUB AND CALLER EQ PUSH2 0x4D0 JUMPI PUSH1 0x40 MLOAD PUSH3 0x461BCD PUSH1 0xE5 SHL DUP2 MSTORE PUSH1 0x4 ADD PUSH2 0x1B9 SWAP2 SWAP1 PUSH2 0x967 JUMP JUMPDEST POP PUSH1 0x40 DUP1 MLOAD DUP1 DUP3 ADD SWAP1 SWAP2 MSTORE PUSH1 0x2 DUP2 MSTORE PUSH2 0x3331 PUSH1 0xF0 SHL PUSH1 0x20 DUP3 ADD MSTORE PUSH1 0x1 PUSH1 0x1 PUSH1 0xA0 SHL SUB DUP3 AND PUSH2 0x511 JUMPI PUSH1 0x40 MLOAD PUSH3 0x461BCD PUSH1 0xE5 SHL DUP2 MSTORE PUSH1 0x4 ADD PUSH2 0x1B9 SWAP2 SWAP1 PUSH2 0x967 JUMP JUMPDEST POP PUSH1 0x1 DUP1 SLOAD PUSH1 0x1 PUSH1 0x1 PUSH1 0xA0 SHL SUB NOT AND PUSH1 0x1 PUSH1 0x1 PUSH1 0xA0 SHL SUB DUP4 AND SWAP1 DUP2 OR SWAP1 SWAP2 SSTORE PUSH1 0x40 MLOAD SWAP1 DUP2 MSTORE PUSH32 0x67235BA2E63C748A35B95C4F92A3BBC2A1389938170A5CE6C9ADD5D0B03A314A SWAP1 PUSH1 0x20 ADD PUSH2 0x222 JUMP JUMPDEST PUSH1 0x0 PUSH2 0x575 DUP4 PUSH1 0x1 PUSH1 0x1 PUSH1 0xA0 SHL SUB DUP5 AND PUSH2 0x712 JUMP JUMPDEST SWAP1 POP JUMPDEST SWAP3 SWAP2 POP POP JUMP JUMPDEST PUSH1 0x0 PUSH2 0x575 DUP4 PUSH1 0x1 PUSH1 0x1 PUSH1 0xA0 SHL SUB DUP5 AND PUSH2 0x805 JUMP JUMPDEST PUSH1 0x60 PUSH1 0x0 PUSH2 0x5A0 DUP4 PUSH2 0x854 JUMP JUMPDEST SWAP4 SWAP3 POP POP POP JUMP JUMPDEST PUSH1 0x0 DUP1 PUSH1 0x0 DUP1 DUP5 PUSH1 0x1 PUSH1 0x1 PUSH1 0xA0 SHL SUB AND PUSH4 0xFEAF968C PUSH1 0x40 MLOAD DUP2 PUSH4 0xFFFFFFFF AND PUSH1 0xE0 SHL DUP2 MSTORE PUSH1 0x4 ADD PUSH1 0xA0 PUSH1 0x40 MLOAD DUP1 DUP4 SUB DUP2 DUP7 GAS STATICCALL ISZERO DUP1 ISZERO PUSH2 0x5EB JUMPI RETURNDATASIZE PUSH1 0x0 DUP1 RETURNDATACOPY RETURNDATASIZE PUSH1 0x0 REVERT JUMPDEST POP POP POP POP PUSH1 0x40 MLOAD RETURNDATASIZE PUSH1 0x1F NOT PUSH1 0x1F DUP3 ADD AND DUP3 ADD DUP1 PUSH1 0x40 MSTORE POP DUP2 ADD SWAP1 PUSH2 0x60F SWAP2 SWAP1 PUSH2 0x9F2 JUMP JUMPDEST POP SWAP3 SWAP7 POP SWAP2 SWAP4 POP SWAP2 POP PUSH2 0x627 SWAP1 POP PUSH3 0x15180 DUP4 PUSH2 0xA58 JUMP JUMPDEST TIMESTAMP GT ISZERO PUSH1 0x40 MLOAD DUP1 PUSH1 0x40 ADD PUSH1 0x40 MSTORE DUP1 PUSH1 0x2 DUP2 MSTORE PUSH1 0x20 ADD PUSH2 0x3431 PUSH1 0xF0 SHL DUP2 MSTORE POP SWAP1 PUSH2 0x663 JUMPI PUSH1 0x40 MLOAD PUSH3 0x461BCD PUSH1 0xE5 SHL DUP2 MSTORE PUSH1 0x4 ADD PUSH2 0x1B9 SWAP2 SWAP1 PUSH2 0x967 JUMP JUMPDEST POP PUSH1 0x40 DUP1 MLOAD DUP1 DUP3 ADD SWAP1 SWAP2 MSTORE PUSH1 0x2 DUP2 MSTORE PUSH2 0x1A19 PUSH1 0xF1 SHL PUSH1 0x20 DUP3 ADD MSTORE PUSH1 0x0 DUP3 SLT ISZERO PUSH2 0x69F JUMPI PUSH1 0x40 MLOAD PUSH3 0x461BCD PUSH1 0xE5 SHL DUP2 MSTORE PUSH1 0x4 ADD PUSH2 0x1B9 SWAP2 SWAP1 PUSH2 0x967 JUMP JUMPDEST POP SWAP3 SWAP5 SWAP3 SWAP4 POP SWAP2 SWAP1 POP JUMP JUMPDEST PUSH1 0x0 PUSH1 0x11 NOT PUSH1 0xFF DUP4 AND ADD PUSH2 0x6BF JUMPI POP DUP2 PUSH2 0x578 JUMP JUMPDEST PUSH1 0x12 PUSH1 0xFF DUP4 AND GT ISZERO PUSH2 0x6F2 JUMPI PUSH2 0x6D6 PUSH1 0x12 DUP4 PUSH2 0xA6B JUMP JUMPDEST PUSH2 0x6E1 SWAP1 PUSH1 0xA PUSH2 0xB68 JUMP JUMPDEST PUSH2 0x6EB SWAP1 DUP5 PUSH2 0xB77 JUMP JUMPDEST SWAP1 POP PUSH2 0x578 JUMP JUMPDEST PUSH2 0x6FD DUP3 PUSH1 0x12 PUSH2 0xA6B JUMP JUMPDEST PUSH2 0x708 SWAP1 PUSH1 0xA PUSH2 0xB68 JUMP JUMPDEST PUSH2 0x6EB SWAP1 DUP5 PUSH2 0xB99 JUMP JUMPDEST PUSH1 0x0 DUP2 DUP2 MSTORE PUSH1 0x1 DUP4 ADD PUSH1 0x20 MSTORE PUSH1 0x40 DUP2 KECCAK256 SLOAD DUP1 ISZERO PUSH2 0x7FB JUMPI PUSH1 0x0 PUSH2 0x736 PUSH1 0x1 DUP4 PUSH2 0xBB0 JUMP JUMPDEST DUP6 SLOAD SWAP1 SWAP2 POP PUSH1 0x0 SWAP1 PUSH2 0x74A SWAP1 PUSH1 0x1 SWAP1 PUSH2 0xBB0 JUMP JUMPDEST SWAP1 POP DUP2 DUP2 EQ PUSH2 0x7AF JUMPI PUSH1 0x0 DUP7 PUSH1 0x0 ADD DUP3 DUP2 SLOAD DUP2 LT PUSH2 0x76A JUMPI PUSH2 0x76A PUSH2 0xBC3 JUMP JUMPDEST SWAP1 PUSH1 0x0 MSTORE PUSH1 0x20 PUSH1 0x0 KECCAK256 ADD SLOAD SWAP1 POP DUP1 DUP8 PUSH1 0x0 ADD DUP5 DUP2 SLOAD DUP2 LT PUSH2 0x78D JUMPI PUSH2 0x78D PUSH2 0xBC3 JUMP JUMPDEST PUSH1 0x0 SWAP2 DUP3 MSTORE PUSH1 0x20 DUP1 DUP4 KECCAK256 SWAP1 SWAP2 ADD SWAP3 SWAP1 SWAP3 SSTORE SWAP2 DUP3 MSTORE PUSH1 0x1 DUP9 ADD SWAP1 MSTORE PUSH1 0x40 SWAP1 KECCAK256 DUP4 SWAP1 SSTORE JUMPDEST DUP6 SLOAD DUP7 SWAP1 DUP1 PUSH2 0x7C0 JUMPI PUSH2 0x7C0 PUSH2 0xBD9 JUMP JUMPDEST PUSH1 0x1 SWAP1 SUB DUP2 DUP2 SWAP1 PUSH1 0x0 MSTORE PUSH1 0x20 PUSH1 0x0 KECCAK256 ADD PUSH1 0x0 SWAP1 SSTORE SWAP1 SSTORE DUP6 PUSH1 0x1 ADD PUSH1 0x0 DUP7 DUP2 MSTORE PUSH1 0x20 ADD SWAP1 DUP2 MSTORE PUSH1 0x20 ADD PUSH1 0x0 KECCAK256 PUSH1 0x0 SWAP1 SSTORE PUSH1 0x1 SWAP4 POP POP POP POP PUSH2 0x578 JUMP JUMPDEST PUSH1 0x0 SWAP2 POP POP PUSH2 0x578 JUMP JUMPDEST PUSH1 0x0 DUP2 DUP2 MSTORE PUSH1 0x1 DUP4 ADD PUSH1 0x20 MSTORE PUSH1 0x40 DUP2 KECCAK256 SLOAD PUSH2 0x84C JUMPI POP DUP2 SLOAD PUSH1 0x1 DUP2 DUP2 ADD DUP5 SSTORE PUSH1 0x0 DUP5 DUP2 MSTORE PUSH1 0x20 DUP1 DUP3 KECCAK256 SWAP1 SWAP4 ADD DUP5 SWAP1 SSTORE DUP5 SLOAD DUP5 DUP3 MSTORE DUP3 DUP7 ADD SWAP1 SWAP4 MSTORE PUSH1 0x40 SWAP1 KECCAK256 SWAP2 SWAP1 SWAP2 SSTORE PUSH2 0x578 JUMP JUMPDEST POP PUSH1 0x0 PUSH2 0x578 JUMP JUMPDEST PUSH1 0x60 DUP2 PUSH1 0x0 ADD DUP1 SLOAD DUP1 PUSH1 0x20 MUL PUSH1 0x20 ADD PUSH1 0x40 MLOAD SWAP1 DUP2 ADD PUSH1 0x40 MSTORE DUP1 SWAP3 SWAP2 SWAP1 DUP2 DUP2 MSTORE PUSH1 0x20 ADD DUP3 DUP1 SLOAD DUP1 ISZERO PUSH2 0x8A4 JUMPI PUSH1 0x20 MUL DUP3 ADD SWAP2 SWAP1 PUSH1 0x0 MSTORE PUSH1 0x20 PUSH1 0x0 KECCAK256 SWAP1 JUMPDEST DUP2 SLOAD DUP2 MSTORE PUSH1 0x20 ADD SWAP1 PUSH1 0x1 ADD SWAP1 DUP1 DUP4 GT PUSH2 0x890 JUMPI JUMPDEST POP POP POP POP POP SWAP1 POP SWAP2 SWAP1 POP JUMP JUMPDEST DUP1 CALLDATALOAD PUSH1 0x1 PUSH1 0x1 PUSH1 0xA0 SHL SUB DUP2 AND DUP2 EQ PUSH2 0x8C7 JUMPI PUSH1 0x0 DUP1 REVERT JUMPDEST SWAP2 SWAP1 POP JUMP JUMPDEST PUSH1 0x0 PUSH1 0x20 DUP3 DUP5 SUB SLT ISZERO PUSH2 0x8DE JUMPI PUSH1 0x0 DUP1 REVERT JUMPDEST PUSH2 0x575 DUP3 PUSH2 0x8B0 JUMP JUMPDEST PUSH1 0x0 DUP1 PUSH1 0x40 DUP4 DUP6 SUB SLT ISZERO PUSH2 0x8FA JUMPI PUSH1 0x0 DUP1 REVERT JUMPDEST PUSH2 0x903 DUP4 PUSH2 0x8B0 JUMP JUMPDEST SWAP2 POP PUSH2 0x911 PUSH1 0x20 DUP5 ADD PUSH2 0x8B0 JUMP JUMPDEST SWAP1 POP SWAP3 POP SWAP3 SWAP1 POP JUMP JUMPDEST PUSH1 0x20 DUP1 DUP3 MSTORE DUP3 MLOAD DUP3 DUP3 ADD DUP2 SWAP1 MSTORE PUSH1 0x0 SWAP2 SWAP1 DUP5 DUP3 ADD SWAP1 PUSH1 0x40 DUP6 ADD SWAP1 DUP5 JUMPDEST DUP2 DUP2 LT ISZERO PUSH2 0x95B JUMPI DUP4 MLOAD PUSH1 0x1 PUSH1 0x1 PUSH1 0xA0 SHL SUB AND DUP4 MSTORE SWAP3 DUP5 ADD SWAP3 SWAP2 DUP5 ADD SWAP2 PUSH1 0x1 ADD PUSH2 0x936 JUMP JUMPDEST POP SWAP1 SWAP7 SWAP6 POP POP POP POP POP POP JUMP JUMPDEST PUSH1 0x0 PUSH1 0x20 DUP1 DUP4 MSTORE DUP4 MLOAD DUP1 DUP3 DUP6 ADD MSTORE PUSH1 0x0 JUMPDEST DUP2 DUP2 LT ISZERO PUSH2 0x994 JUMPI DUP6 DUP2 ADD DUP4 ADD MLOAD DUP6 DUP3 ADD PUSH1 0x40 ADD MSTORE DUP3 ADD PUSH2 0x978 JUMP JUMPDEST POP PUSH1 0x0 PUSH1 0x40 DUP3 DUP7 ADD ADD MSTORE PUSH1 0x40 PUSH1 0x1F NOT PUSH1 0x1F DUP4 ADD AND DUP6 ADD ADD SWAP3 POP POP POP SWAP3 SWAP2 POP POP JUMP JUMPDEST PUSH1 0x0 PUSH1 0x20 DUP3 DUP5 SUB SLT ISZERO PUSH2 0x9C7 JUMPI PUSH1 0x0 DUP1 REVERT JUMPDEST DUP2 MLOAD PUSH1 0xFF DUP2 AND DUP2 EQ PUSH2 0x5A0 JUMPI PUSH1 0x0 DUP1 REVERT JUMPDEST DUP1 MLOAD PUSH10 0xFFFFFFFFFFFFFFFFFFFF DUP2 AND DUP2 EQ PUSH2 0x8C7 JUMPI PUSH1 0x0 DUP1 REVERT JUMPDEST PUSH1 0x0 DUP1 PUSH1 0x0 DUP1 PUSH1 0x0 PUSH1 0xA0 DUP7 DUP9 SUB SLT ISZERO PUSH2 0xA0A JUMPI PUSH1 0x0 DUP1 REVERT JUMPDEST PUSH2 0xA13 DUP7 PUSH2 0x9D8 JUMP JUMPDEST SWAP5 POP PUSH1 0x20 DUP7 ADD MLOAD SWAP4 POP PUSH1 0x40 DUP7 ADD MLOAD SWAP3 POP PUSH1 0x60 DUP7 ADD MLOAD SWAP2 POP PUSH2 0xA36 PUSH1 0x80 DUP8 ADD PUSH2 0x9D8 JUMP JUMPDEST SWAP1 POP SWAP3 SWAP6 POP SWAP3 SWAP6 SWAP1 SWAP4 POP JUMP JUMPDEST PUSH4 0x4E487B71 PUSH1 0xE0 SHL PUSH1 0x0 MSTORE PUSH1 0x11 PUSH1 0x4 MSTORE PUSH1 0x24 PUSH1 0x0 REVERT JUMPDEST DUP1 DUP3 ADD DUP1 DUP3 GT ISZERO PUSH2 0x578 JUMPI PUSH2 0x578 PUSH2 0xA42 JUMP JUMPDEST PUSH1 0xFF DUP3 DUP2 AND DUP3 DUP3 AND SUB SWAP1 DUP2 GT ISZERO PUSH2 0x578 JUMPI PUSH2 0x578 PUSH2 0xA42 JUMP JUMPDEST PUSH1 0x1 DUP2 DUP2 JUMPDEST DUP1 DUP6 GT ISZERO PUSH2 0xABF JUMPI DUP2 PUSH1 0x0 NOT DIV DUP3 GT ISZERO PUSH2 0xAA5 JUMPI PUSH2 0xAA5 PUSH2 0xA42 JUMP JUMPDEST DUP1 DUP6 AND ISZERO PUSH2 0xAB2 JUMPI SWAP2 DUP2 MUL SWAP2 JUMPDEST SWAP4 DUP5 SHR SWAP4 SWAP1 DUP1 MUL SWAP1 PUSH2 0xA89 JUMP JUMPDEST POP SWAP3 POP SWAP3 SWAP1 POP JUMP JUMPDEST PUSH1 0x0 DUP3 PUSH2 0xAD6 JUMPI POP PUSH1 0x1 PUSH2 0x578 JUMP JUMPDEST DUP2 PUSH2 0xAE3 JUMPI POP PUSH1 0x0 PUSH2 0x578 JUMP JUMPDEST DUP2 PUSH1 0x1 DUP2 EQ PUSH2 0xAF9 JUMPI PUSH1 0x2 DUP2 EQ PUSH2 0xB03 JUMPI PUSH2 0xB1F JUMP JUMPDEST PUSH1 0x1 SWAP2 POP POP PUSH2 0x578 JUMP JUMPDEST PUSH1 0xFF DUP5 GT ISZERO PUSH2 0xB14 JUMPI PUSH2 0xB14 PUSH2 0xA42 JUMP JUMPDEST POP POP PUSH1 0x1 DUP3 SHL PUSH2 0x578 JUMP JUMPDEST POP PUSH1 0x20 DUP4 LT PUSH2 0x133 DUP4 LT AND PUSH1 0x4E DUP5 LT PUSH1 0xB DUP5 LT AND OR ISZERO PUSH2 0xB42 JUMPI POP DUP2 DUP2 EXP PUSH2 0x578 JUMP JUMPDEST PUSH2 0xB4C DUP4 DUP4 PUSH2 0xA84 JUMP JUMPDEST DUP1 PUSH1 0x0 NOT DIV DUP3 GT ISZERO PUSH2 0xB60 JUMPI PUSH2 0xB60 PUSH2 0xA42 JUMP JUMPDEST MUL SWAP4 SWAP3 POP POP POP JUMP JUMPDEST PUSH1 0x0 PUSH2 0x575 PUSH1 0xFF DUP5 AND DUP4 PUSH2 0xAC7 JUMP JUMPDEST PUSH1 0x0 DUP3 PUSH2 0xB94 JUMPI PUSH4 0x4E487B71 PUSH1 0xE0 SHL PUSH1 0x0 MSTORE PUSH1 0x12 PUSH1 0x4 MSTORE PUSH1 0x24 PUSH1 0x0 REVERT JUMPDEST POP DIV SWAP1 JUMP JUMPDEST DUP1 DUP3 MUL DUP2 ISZERO DUP3 DUP3 DIV DUP5 EQ OR PUSH2 0x578 JUMPI PUSH2 0x578 PUSH2 0xA42 JUMP JUMPDEST DUP2 DUP2 SUB DUP2 DUP2 GT ISZERO PUSH2 0x578 JUMPI PUSH2 0x578 PUSH2 0xA42 JUMP JUMPDEST PUSH4 0x4E487B71 PUSH1 0xE0 SHL PUSH1 0x0 MSTORE PUSH1 0x32 PUSH1 0x4 MSTORE PUSH1 0x24 PUSH1 0x0 REVERT JUMPDEST PUSH4 0x4E487B71 PUSH1 0xE0 SHL PUSH1 0x0 MSTORE PUSH1 0x31 PUSH1 0x4 MSTORE PUSH1 0x24 PUSH1 0x0 REVERT INVALID LOG2 PUSH5 0x6970667358 0x22 SLT KECCAK256 SMOD 0x25 RETURNDATASIZE PUSH5 0x43E71F460A 0xEB SELFBALANCE PUSH19 0x1A10E0B10EDE3BB5876893DE3D6E0AC4F11D2F PUSH25 0x64736F6C634300081100330000000000000000000000000000 ","sha1":"643b48b213189c59f93f5479e7d6c9f5def4d160","source":"// SPDX-License-Identifier: LicenseRef-Gyro-1.0\n// for information on licensing please see the README in the GitHub repository <https://github.com/gyrostable/core-protocol>.\npragma solidity ^0.8.4;\n\nimport \"./BaseChainLinkOracle.sol\";\n\nimport \"../../libraries/Errors.sol\";\nimport \"../../libraries/DecimalScale.sol\";\n\ncontract ChainlinkPriceOracle is BaseChainlinkPriceOracle {\n    using DecimalScale for uint256;\n    using EnumerableSet for EnumerableSet.AddressSet;\n\n    event FeedUpdated(address indexed asset, address indexed previousFeed, address indexed newFeed);\n\n    constructor(address _governor) BaseChainlinkPriceOracle(_governor) {}\n\n    /// @inheritdoc IUSDPriceOracle\n    function getPriceUSD(address asset) external view override returns (uint256) {\n        address feed = feeds[asset];\n        require(feed != address(0), Errors.ASSET_NOT_SUPPORTED);\n        (, uint256 price, ) = _getLatestRoundData(feed);\n        return price.scaleFrom(AggregatorV3Interface(feed).decimals());\n    }\n\n    /// @notice Allows to set Chainlink feeds\n    /// This can only be called by governance\n    /// @param feed the Chainlink feed address. If this is 0, the asset is removed (i.e. not supported anymore)\n    function setFeed(address asset, address feed) external virtual governanceOnly {\n        address previousFeed = feeds[asset];\n        require(feed != previousFeed, Errors.INVALID_ARGUMENT);\n        if (feed == address(0)) {\n            _supportedAssets.remove(asset);\n            delete feeds[asset];\n        } else {\n            _supportedAssets.add(asset);\n            feeds[asset] = feed;\n        }\n        emit FeedUpdated(asset, previousFeed, feed);\n    }\n}\n","sourcePath":"contracts/oracles/ChainLinkPriceOracle.sol","type":"contract","deployment":{"address":"0xa2b76e60215617e676c6a0041B26a7C3C126DB5E","chainid":"1","blockHeight":18363498}}