{"bytecode":"60c06040523480156200001157600080fd5b5060405162002a0838038062002a08833981016040819052620000349162000140565b816200003f62000058565b6001600160a01b039081166080521660a052506200017f565b600154600160a81b900460ff1615620000c75760405162461bcd60e51b815260206004820152602760248201527f496e697469616c697a61626c653a20636f6e747261637420697320696e697469604482015266616c697a696e6760c81b606482015260840160405180910390fd5b60015460ff600160a01b9091048116101562000125576001805460ff60a01b191660ff60a01b17905560405160ff81527f7f26b83ff96e1f2b6a682f133852f6798a09c465da95921460cefb38474024989060200160405180910390a15b565b6001600160a01b03811681146200013d57600080fd5b50565b600080604083850312156200015457600080fd5b8251620001618162000127565b6020840151909250620001748162000127565b809150509250929050565b60805160a05161285c620001ac600039600081816102bd0152610b6e0152600061037e015261285c6000f3fe608060405234801561001057600080fd5b50600436106102325760003560e01c8063679aefce11610130578063b14b9f4d116100b8578063dd62ed3e1161007c578063dd62ed3e146104ea578063e2bbb158146104fd578063e3056a3414610510578063e4c0aaf414610523578063eae4c19f1461053657600080fd5b8063b14b9f4d14610496578063c4d66de8146104a9578063c70920bc146104bc578063cc04feff146104c4578063d505accf146104d757600080fd5b806395d89b41116100ff57806395d89b411461043f578063a457c2d714610447578063a8c62e761461045a578063a9059cbb1461046e578063aa6ca8081461048157600080fd5b8063679aefce146103545780636f307dc3146103ef57806370a08231146104035780637ecebe001461042c57600080fd5b806333a100ca116101be578063441a3e7011610182578063441a3e701461036657806344bbdb55146103795780634ac032be146103a05780634cf5fbf5146103bb578063550d2b62146103ce57600080fd5b806333a100ca146103265780633644e5151461033957806339509351146103415780633ba0b9a9146103545780633e0dc34e1461035c57600080fd5b8063158274a511610205578063158274a5146102b857806318160ddd146102df578063238efcbc146102f157806323b872dd146102f9578063313ce5671461030c57600080fd5b806306fdde0314610237578063073de42e14610255578063095ea7b31461026a5780630c340a241461028d575b600080fd5b61023f610540565b60405161024c919061201a565b60405180910390f35b610268610263366004612041565b6105d2565b005b61027d610278366004612071565b610666565b604051901515815260200161024c565b6000546102a0906001600160a01b031681565b6040516001600160a01b03909116815260200161024c565b6102a07f000000000000000000000000000000000000000000000000000000000000000081565b6036545b60405190815260200161024c565b610268610680565b61027d61030736600461209d565b610730565b610314610754565b60405160ff909116815260200161024c565b6102686103343660046120de565b6107c8565b6102e3610831565b61027d61034f366004612071565b61083b565b6102e361085d565b6102e36101345481565b6102e36103743660046120fb565b610869565b6102a07f000000000000000000000000000000000000000000000000000000000000000081565b610135546103ae9060ff1681565b60405161024c9190612133565b6102e36103c936600461215b565b610977565b6103e16103dc3660046120fb565b610a67565b60405161024c929190612190565b610131546102a0906001600160a01b031681565b6102e36104113660046120de565b6001600160a01b031660009081526034602052604090205490565b6102e361043a3660046120de565b610ab2565b61023f610ad0565b61027d610455366004612071565b610adf565b610133546102a0906001600160a01b031681565b61027d61047c366004612071565b610b5a565b610489610b68565b60405161024c91906121a9565b6102686104a43660046122ad565b610c0b565b6102686104b73660046120de565b610d29565b6102e3610e0c565b6103e16104d23660046120fb565b610e7a565b6102686104e536600461234d565b610e94565b6102e36104f83660046123be565b610ff8565b6102e361050b3660046120fb565b611023565b6001546102a0906001600160a01b031681565b6102686105313660046120de565b611037565b6102e36101325481565b60606037805461054f906123f7565b80601f016020809104026020016040519081016040528092919081815260200182805461057b906123f7565b80156105c85780601f1061059d576101008083540402835291602001916105c8565b820191906000526020600020905b8154815290600101906020018083116105ab57829003601f168201915b5050505050905090565b60006101355460ff1660048111156105ec576105ec61211d565b1461063e5760405162461bcd60e51b815260206004820152601a60248201527f5661756c743a20616c726561647920696e697469616c697a656400000000000060448201526064015b60405180910390fd5b610135805482919060ff1916600183600481111561065e5761065e61211d565b021790555050565b60003361067481858561110c565b60019150505b92915050565b600154604080518082019091526002815261033360f41b6020820152906001600160a01b031633146106c55760405162461bcd60e51b8152600401610635919061201a565b5060008054600180546001600160a01b03198084166001600160a01b03808416919091179095551690556040805192909116808352336020840152917fde4b3f61490b74c0ed6237523974fe299126bbbf8a8a7482fd220104c59b0c8491015b60405180910390a150565b60003361073e858285611231565b6107498585856112ab565b506001949350505050565b610131546040805163313ce56760e01b815290516000926001600160a01b03169163313ce5679160048083019260209291908290030181865afa15801561079f573d6000803e3d6000fd5b505050506040513d601f19601f820116820180604052508101906107c3919061242b565b905090565b600054604080518082019091526002815261033360f41b6020820152906001600160a01b0316331461080d5760405162461bcd60e51b8152600401610635919061201a565b5061013380546001600160a01b0319166001600160a01b0392909216919091179055565b60006107c3611456565b60003361067481858561084e8383610ff8565b610858919061245e565b61110c565b60006107c360006114d1565b600080831160405180604001604052806002815260200161333160f01b815250906108a75760405162461bcd60e51b8152600401610635919061201a565b5033600090815260346020526040812054905083811015604051806040016040528060028152602001610ccd60f21b815250906108f75760405162461bcd60e51b8152600401610635919061201a565b50600061090261085d565b905061090e858261152a565b925083831015604051806040016040528060018152602001601960f91b8152509061094c5760405162461bcd60e51b8152600401610635919061201a565b50610957338661154b565b6101315461096f906001600160a01b0316338561167c565b505092915050565b60008061098460016114d1565b610131549091506109a0906001600160a01b03163330876116df565b6109aa8482611717565b91506109b560365490565b6000036109e25760006109c661178a565b90506109d461dead826117ab565b6109de8184612471565b9250505b60408051808201909152600381526231303360e81b602082015282610a1a5760405162461bcd60e51b8152600401610635919061201a565b506040805180820190915260018152601960f91b602082015283831015610a545760405162461bcd60e51b8152600401610635919061201a565b50610a5f85836117ab565b509392505050565b600060606000610a7760016114d1565b9050610a838582611717565b925083831015610aaa57604051806040016040528060018152602001601960f91b81525091505b509250929050565b6001600160a01b0381166000908152609a602052604081205461067a565b60606038805461054f906123f7565b60003381610aed8286610ff8565b905083811015610b4d5760405162461bcd60e51b815260206004820152602560248201527f45524332303a2064656372656173656420616c6c6f77616e63652062656c6f77604482015264207a65726f60d81b6064820152608401610635565b610749828686840361110c565b6000336106748185856112ab565b606060007f00000000000000000000000000000000000000000000000000000000000000006001600160a01b031663f94d4668610134546040518263ffffffff1660e01b8152600401610bbd91815260200190565b600060405180830381865afa158015610bda573d6000803e3d6000fd5b505050506040513d6000823e601f3d908101601f19168201604052610c029190810190612513565b50909392505050565b600154600160a81b900460ff1615808015610c31575060018054600160a01b900460ff16105b80610c515750303b158015610c51575060018054600160a01b900460ff16145b610c6d5760405162461bcd60e51b8152600401610635906125e1565b6001805460ff60a01b1916600160a01b1790558015610c9a576001805460ff60a81b1916600160a81b1790555b610caf610ca78760601c90565b86868661186c565b610134869055610135805483919060ff19166001836004811115610cd557610cd561211d565b02179055508015610d21576001805460ff60a81b191681556040519081527f7f26b83ff96e1f2b6a682f133852f6798a09c465da95921460cefb38474024989060200160405180910390a15b505050505050565b600154600160a81b900460ff1615808015610d4f575060018054600160a01b900460ff16105b80610d6f5750303b158015610d6f575060018054600160a01b900460ff16145b610d8b5760405162461bcd60e51b8152600401610635906125e1565b6001805460ff60a01b1916600160a01b1790558015610db8576001805460ff60a81b1916600160a81b1790555b610dc1826118ea565b8015610e08576001805460ff60a81b191681556040519081527f7f26b83ff96e1f2b6a682f133852f6798a09c465da95921460cefb38474024989060200160405180910390a15b5050565b610131546040516370a0823160e01b81523060048201526000916001600160a01b0316906370a0823190602401602060405180830381865afa158015610e56573d6000803e3d6000fd5b505050506040513d601f19601f820116820180604052508101906107c3919061262f565b600060606000610e8861085d565b9050610a83858261152a565b83421115610ee45760405162461bcd60e51b815260206004820152601d60248201527f45524332305065726d69743a206578706972656420646561646c696e650000006044820152606401610635565b60007f6e71edae12b1b97f4d1f60370fef10105fa2faae0126114a169c64845d6126c9888888610f138c61193e565b6040805160208101969096526001600160a01b0394851690860152929091166060840152608083015260a082015260c0810186905260e0016040516020818303038152906040528051906020012090506000610f6e82611966565b90506000610f7e828787876119b4565b9050896001600160a01b0316816001600160a01b031614610fe15760405162461bcd60e51b815260206004820152601e60248201527f45524332305065726d69743a20696e76616c6964207369676e617475726500006044820152606401610635565b610fec8a8a8a61110c565b50505050505050505050565b6001600160a01b03918216600090815260356020908152604080832093909416825291909152205490565b6000611030338484610977565b9392505050565b600054604080518082019091526002815261033360f41b6020820152906001600160a01b0316331461107c5760405162461bcd60e51b8152600401610635919061201a565b50604080518082019091526002815261333160f01b60208201526001600160a01b0382166110bd5760405162461bcd60e51b8152600401610635919061201a565b50600180546001600160a01b0319166001600160a01b0383169081179091556040519081527f67235ba2e63c748a35b95c4f92a3bbc2a1389938170a5ce6c9add5d0b03a314a90602001610725565b6001600160a01b03831661116e5760405162461bcd60e51b8152602060048201526024808201527f45524332303a20617070726f76652066726f6d20746865207a65726f206164646044820152637265737360e01b6064820152608401610635565b6001600160a01b0382166111cf5760405162461bcd60e51b815260206004820152602260248201527f45524332303a20617070726f766520746f20746865207a65726f206164647265604482015261737360f01b6064820152608401610635565b6001600160a01b0383811660008181526035602090815260408083209487168084529482529182902085905590518481527f8c5be1e5ebec7d5bd14f71427d1e84f3dd0314c0f7b2291e5b200ac8c7c3b92591015b60405180910390a3505050565b600061123d8484610ff8565b905060001981146112a557818110156112985760405162461bcd60e51b815260206004820152601d60248201527f45524332303a20696e73756666696369656e7420616c6c6f77616e63650000006044820152606401610635565b6112a5848484840361110c565b50505050565b6001600160a01b03831661130f5760405162461bcd60e51b815260206004820152602560248201527f45524332303a207472616e736665722066726f6d20746865207a65726f206164604482015264647265737360d81b6064820152608401610635565b6001600160a01b0382166113715760405162461bcd60e51b815260206004820152602360248201527f45524332303a207472616e7366657220746f20746865207a65726f206164647260448201526265737360e81b6064820152608401610635565b6001600160a01b038316600090815260346020526040902054818110156113e95760405162461bcd60e51b815260206004820152602660248201527f45524332303a207472616e7366657220616d6f756e7420657863656564732062604482015265616c616e636560d01b6064820152608401610635565b6001600160a01b0380851660008181526034602052604080822086860390559286168082529083902080548601905591517fddf252ad1be2c89b69c2b068fc378daa952ba7f163c4a11628f55a4df523b3ef906114499086815260200190565b60405180910390a36112a5565b60006107c37f8b73c3c69bb8fe3d512ecc4cf759cc79239f7b179b0ffacaa9a75d522b39400f61148560665490565b6067546040805160208101859052908101839052606081018290524660808201523060a082015260009060c0016040516020818303038152906040528051906020012090509392505050565b6000806114dc610e0c565b905060006114e960365490565b9050806000036115045750670de0b6b3a76400009392505050565b83611518576115138282611717565b611522565b61152282826119dc565b949350505050565b6000806115378385612648565b9050611522670de0b6b3a764000082612675565b6001600160a01b0382166115ab5760405162461bcd60e51b815260206004820152602160248201527f45524332303a206275726e2066726f6d20746865207a65726f206164647265736044820152607360f81b6064820152608401610635565b6001600160a01b0382166000908152603460205260409020548181101561161f5760405162461bcd60e51b815260206004820152602260248201527f45524332303a206275726e20616d6f756e7420657863656564732062616c616e604482015261636560f01b6064820152608401610635565b6001600160a01b03831660008181526034602090815260408083208686039055603680548790039055518581529192917fddf252ad1be2c89b69c2b068fc378daa952ba7f163c4a11628f55a4df523b3ef9101611224565b505050565b6040516001600160a01b03831660248201526044810182905261167790849063a9059cbb60e01b906064015b60408051601f198184030181529190526020810180516001600160e01b03166001600160e01b031990931692909217909152611a5b565b6040516001600160a01b03808516602483015283166044820152606481018290526112a59085906323b872dd60e01b906084016116a8565b604080518082019091526002815261323560f01b6020820152600090826117515760405162461bcd60e51b8152600401610635919061201a565b50826000036117625750600061067a565b6000611776670de0b6b3a764000085612648565b90506117828382612675565b91505061067a565b60006008611796610754565b60ff16116117a45750600a90565b506103e890565b6001600160a01b0382166118015760405162461bcd60e51b815260206004820152601f60248201527f45524332303a206d696e7420746f20746865207a65726f2061646472657373006044820152606401610635565b8060366000828254611813919061245e565b90915550506001600160a01b0382166000818152603460209081526040808320805486019055518481527fddf252ad1be2c89b69c2b068fc378daa952ba7f163c4a11628f55a4df523b3ef910160405180910390a35050565b604080518082019091526002815261333160f01b60208201526001600160a01b0385166118ac5760405162461bcd60e51b8152600401610635919061201a565b5061013180546001600160a01b0319166001600160a01b03861617905543610132556118d7836118ea565b6118e18282611b2d565b6112a582611b60565b600080546001600160a01b0319166001600160a01b03831690811782556040805192835260208301919091527fde4b3f61490b74c0ed6237523974fe299126bbbf8a8a7482fd220104c59b0c849101610725565b6001600160a01b0381166000908152609a602052604090208054600181018255905b50919050565b600061067a611973611456565b8360405161190160f01b6020820152602281018390526042810182905260009060620160405160208183030381529060405280519060200120905092915050565b60008060006119c587878787611baf565b915091506119d281611c73565b5095945050505050565b604080518082019091526002815261323560f01b602082015260009082611a165760405162461bcd60e51b8152600401610635919061201a565b5082600003611a275750600061067a565b6000611a3b670de0b6b3a764000085612648565b9050826001820381611a4f57611a4f61265f565b0460010191505061067a565b6000611ab0826040518060400160405280602081526020017f5361666545524332303a206c6f772d6c6576656c2063616c6c206661696c6564815250856001600160a01b0316611dbd9092919063ffffffff16565b8051909150156116775780806020019051810190611ace9190612697565b6116775760405162461bcd60e51b815260206004820152602a60248201527f5361666545524332303a204552433230206f7065726174696f6e20646964206e6044820152691bdd081cdd58d8d9595960b21b6064820152608401610635565b600154600160a81b900460ff16611b565760405162461bcd60e51b8152600401610635906126b9565b610e088282611dcc565b600154600160a81b900460ff16611b895760405162461bcd60e51b8152600401610635906126b9565b611bac81604051806040016040528060018152602001603160f81b815250611e0e565b50565b6000807f7fffffffffffffffffffffffffffffff5d576e7357a4501ddfe92f46681b20a0831115611be65750600090506003611c6a565b6040805160008082526020820180845289905260ff881692820192909252606081018690526080810185905260019060a0016020604051602081039080840390855afa158015611c3a573d6000803e3d6000fd5b5050604051601f1901519150506001600160a01b038116611c6357600060019250925050611c6a565b9150600090505b94509492505050565b6000816004811115611c8757611c8761211d565b03611c8f5750565b6001816004811115611ca357611ca361211d565b03611cf05760405162461bcd60e51b815260206004820152601860248201527f45434453413a20696e76616c6964207369676e617475726500000000000000006044820152606401610635565b6002816004811115611d0457611d0461211d565b03611d515760405162461bcd60e51b815260206004820152601f60248201527f45434453413a20696e76616c6964207369676e6174757265206c656e677468006044820152606401610635565b6003816004811115611d6557611d6561211d565b03611bac5760405162461bcd60e51b815260206004820152602260248201527f45434453413a20696e76616c6964207369676e6174757265202773272076616c604482015261756560f01b6064820152608401610635565b60606115228484600085611e51565b600154600160a81b900460ff16611df55760405162461bcd60e51b8152600401610635906126b9565b6037611e01838261274a565b506038611677828261274a565b600154600160a81b900460ff16611e375760405162461bcd60e51b8152600401610635906126b9565b815160209283012081519190920120606691909155606755565b606082471015611eb25760405162461bcd60e51b815260206004820152602660248201527f416464726573733a20696e73756666696369656e742062616c616e636520666f6044820152651c8818d85b1b60d21b6064820152608401610635565b600080866001600160a01b03168587604051611ece919061280a565b60006040518083038185875af1925050503d8060008114611f0b576040519150601f19603f3d011682016040523d82523d6000602084013e611f10565b606091505b5091509150611f2187838387611f2c565b979650505050505050565b60608315611f9b578251600003611f94576001600160a01b0385163b611f945760405162461bcd60e51b815260206004820152601d60248201527f416464726573733a2063616c6c20746f206e6f6e2d636f6e74726163740000006044820152606401610635565b5081611522565b6115228383815115611fb05781518083602001fd5b8060405162461bcd60e51b8152600401610635919061201a565b60005b83811015611fe5578181015183820152602001611fcd565b50506000910152565b60008151808452612006816020860160208601611fca565b601f01601f19169290920160200192915050565b6020815260006110306020830184611fee565b80356005811061203c57600080fd5b919050565b60006020828403121561205357600080fd5b6110308261202d565b6001600160a01b0381168114611bac57600080fd5b6000806040838503121561208457600080fd5b823561208f8161205c565b946020939093013593505050565b6000806000606084860312156120b257600080fd5b83356120bd8161205c565b925060208401356120cd8161205c565b929592945050506040919091013590565b6000602082840312156120f057600080fd5b81356110308161205c565b6000806040838503121561210e57600080fd5b50508035926020909101359150565b634e487b7160e01b600052602160045260246000fd5b602081016005831061215557634e487b7160e01b600052602160045260246000fd5b91905290565b60008060006060848603121561217057600080fd5b833561217b8161205c565b95602085013595506040909401359392505050565b8281526040602082015260006115226040830184611fee565b6020808252825182820181905260009190848201906040850190845b818110156121ea5783516001600160a01b0316835292840192918401916001016121c5565b50909695505050505050565b634e487b7160e01b600052604160045260246000fd5b604051601f8201601f1916810167ffffffffffffffff81118282101715612235576122356121f6565b604052919050565b600082601f83011261224e57600080fd5b813567ffffffffffffffff811115612268576122686121f6565b61227b601f8201601f191660200161220c565b81815284602083860101111561229057600080fd5b816020850160208301376000918101602001919091529392505050565b600080600080600060a086880312156122c557600080fd5b8535945060208601356122d78161205c565b9350604086013567ffffffffffffffff808211156122f457600080fd5b61230089838a0161223d565b9450606088013591508082111561231657600080fd5b506123238882890161223d565b9250506123326080870161202d565b90509295509295909350565b60ff81168114611bac57600080fd5b600080600080600080600060e0888a03121561236857600080fd5b87356123738161205c565b965060208801356123838161205c565b9550604088013594506060880135935060808801356123a18161233e565b9699959850939692959460a0840135945060c09093013592915050565b600080604083850312156123d157600080fd5b82356123dc8161205c565b915060208301356123ec8161205c565b809150509250929050565b600181811c9082168061240b57607f821691505b60208210810361196057634e487b7160e01b600052602260045260246000fd5b60006020828403121561243d57600080fd5b81516110308161233e565b634e487b7160e01b600052601160045260246000fd5b8082018082111561067a5761067a612448565b8181038181111561067a5761067a612448565b600067ffffffffffffffff82111561249e5761249e6121f6565b5060051b60200190565b600082601f8301126124b957600080fd5b815160206124ce6124c983612484565b61220c565b82815260059290921b840181019181810190868411156124ed57600080fd5b8286015b8481101561250857805183529183019183016124f1565b509695505050505050565b60008060006060848603121561252857600080fd5b835167ffffffffffffffff8082111561254057600080fd5b818601915086601f83011261255457600080fd5b815160206125646124c983612484565b82815260059290921b8401810191818101908a84111561258357600080fd5b948201945b838610156125aa57855161259b8161205c565b82529482019490820190612588565b918901519197509093505050808211156125c357600080fd5b506125d0868287016124a8565b925050604084015190509250925092565b6020808252602e908201527f496e697469616c697a61626c653a20636f6e747261637420697320616c72656160408201526d191e481a5b9a5d1a585b1a5e995960921b606082015260800190565b60006020828403121561264157600080fd5b5051919050565b808202811582820484141761067a5761067a612448565b634e487b7160e01b600052601260045260246000fd5b60008261269257634e487b7160e01b600052601260045260246000fd5b500490565b6000602082840312156126a957600080fd5b8151801515811461103057600080fd5b6020808252602b908201527f496e697469616c697a61626c653a20636f6e7472616374206973206e6f74206960408201526a6e697469616c697a696e6760a81b606082015260800190565b601f82111561167757600081815260208120601f850160051c8101602086101561272b5750805b601f850160051c820191505b81811015610d2157828155600101612737565b815167ffffffffffffffff811115612764576127646121f6565b6127788161277284546123f7565b84612704565b602080601f8311600181146127ad57600084156127955750858301515b600019600386901b1c1916600185901b178555610d21565b600085815260208120601f198616915b828110156127dc578886015182559484019460019091019084016127bd565b50858210156127fa5787850151600019600388901b60f8161c191681555b5050505050600190811b01905550565b6000825161281c818460208701611fca565b919091019291505056fea2646970667358221220dcbb9f4c816d492b606cc8a92c9e856056cbbb9708407972602e00c93525232a64736f6c63430008110033","bytecodeSha1":"514a7800cb1d79ce4860afba6533101ff64a896e","type":"contract","abi":[{"inputs":[{"internalType":"address","name":"_gyroConfig","type":"address"},{"internalType":"contract IVault","name":"_balancerVault","type":"address"}],"stateMutability":"nonpayable","type":"constructor","name":"constructor"},{"anonymous":false,"inputs":[{"indexed":true,"internalType":"address","name":"owner","type":"address"},{"indexed":true,"internalType":"address","name":"spender","type":"address"},{"indexed":false,"internalType":"uint256","name":"value","type":"uint256"}],"name":"Approval","type":"event"},{"anonymous":false,"inputs":[{"indexed":false,"internalType":"address","name":"newGovernor","type":"address"}],"name":"GovernorChangeRequested","type":"event"},{"anonymous":false,"inputs":[{"indexed":false,"internalType":"address","name":"oldGovernor","type":"address"},{"indexed":false,"internalType":"address","name":"newGovernor","type":"address"}],"name":"GovernorChanged","type":"event"},{"anonymous":false,"inputs":[{"indexed":false,"internalType":"uint8","name":"version","type":"uint8"}],"name":"Initialized","type":"event"},{"anonymous":false,"inputs":[{"indexed":true,"internalType":"address","name":"from","type":"address"},{"indexed":true,"internalType":"address","name":"to","type":"address"},{"indexed":false,"internalType":"uint256","name":"value","type":"uint256"}],"name":"Transfer","type":"event"},{"inputs":[],"name":"DOMAIN_SEPARATOR","outputs":[{"internalType":"bytes32","name":"","type":"bytes32"}],"stateMutability":"view","type":"function"},{"inputs":[],"name":"acceptGovernance","outputs":[],"stateMutability":"nonpayable","type":"function"},{"inputs":[{"internalType":"address","name":"owner","type":"address"},{"internalType":"address","name":"spender","type":"address"}],"name":"allowance","outputs":[{"internalType":"uint256","name":"","type":"uint256"}],"stateMutability":"view","type":"function"},{"inputs":[{"internalType":"address","name":"spender","type":"address"},{"internalType":"uint256","name":"amount","type":"uint256"}],"name":"approve","outputs":[{"internalType":"bool","name":"","type":"bool"}],"stateMutability":"nonpayable","type":"function"},{"inputs":[{"internalType":"address","name":"account","type":"address"}],"name":"balanceOf","outputs":[{"internalType":"uint256","name":"","type":"uint256"}],"stateMutability":"view","type":"function"},{"inputs":[],"name":"balancerVault","outputs":[{"internalType":"contract IVault","name":"","type":"address"}],"stateMutability":"view","type":"function"},{"inputs":[{"internalType":"address","name":"newGovernor","type":"address"}],"name":"changeGovernor","outputs":[],"stateMutability":"nonpayable","type":"function"},{"inputs":[],"name":"decimals","outputs":[{"internalType":"uint8","name":"","type":"uint8"}],"stateMutability":"view","type":"function"},{"inputs":[{"internalType":"address","name":"spender","type":"address"},{"internalType":"uint256","name":"subtractedValue","type":"uint256"}],"name":"decreaseAllowance","outputs":[{"internalType":"bool","name":"","type":"bool"}],"stateMutability":"nonpayable","type":"function"},{"inputs":[],"name":"deployedAt","outputs":[{"internalType":"uint256","name":"","type":"uint256"}],"stateMutability":"view","type":"function"},{"inputs":[{"internalType":"uint256","name":"underlyingAmount","type":"uint256"},{"internalType":"uint256","name":"minVaultTokensOut","type":"uint256"}],"name":"deposit","outputs":[{"internalType":"uint256","name":"vaultTokensMinted","type":"uint256"}],"stateMutability":"nonpayable","type":"function"},{"inputs":[{"internalType":"address","name":"beneficiary","type":"address"},{"internalType":"uint256","name":"underlyingAmount","type":"uint256"},{"internalType":"uint256","name":"minVaultTokensOut","type":"uint256"}],"name":"depositFor","outputs":[{"internalType":"uint256","name":"vaultTokensMinted","type":"uint256"}],"stateMutability":"nonpayable","type":"function"},{"inputs":[{"internalType":"uint256","name":"underlyingAmount","type":"uint256"},{"internalType":"uint256","name":"minVaultTokensOut","type":"uint256"}],"name":"dryDeposit","outputs":[{"internalType":"uint256","name":"vaultTokensMinted","type":"uint256"},{"internalType":"string","name":"err","type":"string"}],"stateMutability":"view","type":"function"},{"inputs":[{"internalType":"uint256","name":"vaultTokenAmount","type":"uint256"},{"internalType":"uint256","name":"minUnderlyingOut","type":"uint256"}],"name":"dryWithdraw","outputs":[{"internalType":"uint256","name":"underlyingAmountWithdrawn","type":"uint256"},{"internalType":"string","name":"err","type":"string"}],"stateMutability":"view","type":"function"},{"inputs":[],"name":"exchangeRate","outputs":[{"internalType":"uint256","name":"","type":"uint256"}],"stateMutability":"view","type":"function"},{"inputs":[],"name":"getRate","outputs":[{"internalType":"uint256","name":"","type":"uint256"}],"stateMutability":"view","type":"function"},{"inputs":[],"name":"getTokens","outputs":[{"internalType":"contract IERC20[]","name":"","type":"address[]"}],"stateMutability":"view","type":"function"},{"inputs":[],"name":"governor","outputs":[{"internalType":"address","name":"","type":"address"}],"stateMutability":"view","type":"function"},{"inputs":[],"name":"gyroConfig","outputs":[{"internalType":"contract IGyroConfig","name":"","type":"address"}],"stateMutability":"view","type":"function"},{"inputs":[{"internalType":"address","name":"spender","type":"address"},{"internalType":"uint256","name":"addedValue","type":"uint256"}],"name":"increaseAllowance","outputs":[{"internalType":"bool","name":"","type":"bool"}],"stateMutability":"nonpayable","type":"function"},{"inputs":[{"internalType":"bytes32","name":"_poolId","type":"bytes32"},{"internalType":"address","name":"governor","type":"address"},{"internalType":"string","name":"name","type":"string"},{"internalType":"string","name":"symbol","type":"string"},{"internalType":"enum Vaults.Type","name":"_vaultType","type":"uint8"}],"name":"initialize","outputs":[],"stateMutability":"nonpayable","type":"function"},{"inputs":[{"internalType":"address","name":"_governor","type":"address"}],"name":"initialize","outputs":[],"stateMutability":"nonpayable","type":"function"},{"inputs":[],"name":"name","outputs":[{"internalType":"string","name":"","type":"string"}],"stateMutability":"view","type":"function"},{"inputs":[{"internalType":"address","name":"owner","type":"address"}],"name":"nonces","outputs":[{"internalType":"uint256","name":"","type":"uint256"}],"stateMutability":"view","type":"function"},{"inputs":[],"name":"pendingGovernor","outputs":[{"internalType":"address","name":"","type":"address"}],"stateMutability":"view","type":"function"},{"inputs":[{"internalType":"address","name":"owner","type":"address"},{"internalType":"address","name":"spender","type":"address"},{"internalType":"uint256","name":"value","type":"uint256"},{"internalType":"uint256","name":"deadline","type":"uint256"},{"internalType":"uint8","name":"v","type":"uint8"},{"internalType":"bytes32","name":"r","type":"bytes32"},{"internalType":"bytes32","name":"s","type":"bytes32"}],"name":"permit","outputs":[],"stateMutability":"nonpayable","type":"function"},{"inputs":[],"name":"poolId","outputs":[{"internalType":"bytes32","name":"","type":"bytes32"}],"stateMutability":"view","type":"function"},{"inputs":[{"internalType":"enum Vaults.Type","name":"_vaultType","type":"uint8"}],"name":"reinitialize","outputs":[],"stateMutability":"nonpayable","type":"function"},{"inputs":[{"internalType":"address","name":"strategyAddress","type":"address"}],"name":"setStrategy","outputs":[],"stateMutability":"nonpayable","type":"function"},{"inputs":[],"name":"strategy","outputs":[{"internalType":"address","name":"","type":"address"}],"stateMutability":"view","type":"function"},{"inputs":[],"name":"symbol","outputs":[{"internalType":"string","name":"","type":"string"}],"stateMutability":"view","type":"function"},{"inputs":[],"name":"totalSupply","outputs":[{"internalType":"uint256","name":"","type":"uint256"}],"stateMutability":"view","type":"function"},{"inputs":[],"name":"totalUnderlying","outputs":[{"internalType":"uint256","name":"","type":"uint256"}],"stateMutability":"view","type":"function"},{"inputs":[{"internalType":"address","name":"to","type":"address"},{"internalType":"uint256","name":"amount","type":"uint256"}],"name":"transfer","outputs":[{"internalType":"bool","name":"","type":"bool"}],"stateMutability":"nonpayable","type":"function"},{"inputs":[{"internalType":"address","name":"from","type":"address"},{"internalType":"address","name":"to","type":"address"},{"internalType":"uint256","name":"amount","type":"uint256"}],"name":"transferFrom","outputs":[{"internalType":"bool","name":"","type":"bool"}],"stateMutability":"nonpayable","type":"function"},{"inputs":[],"name":"underlying","outputs":[{"internalType":"address","name":"","type":"address"}],"stateMutability":"view","type":"function"},{"inputs":[],"name":"vaultType","outputs":[{"internalType":"enum Vaults.Type","name":"","type":"uint8"}],"stateMutability":"view","type":"function"},{"inputs":[{"internalType":"uint256","name":"vaultTokenAmount","type":"uint256"},{"internalType":"uint256","name":"minUnderlyingOut","type":"uint256"}],"name":"withdraw","outputs":[{"internalType":"uint256","name":"underlyingAmountWithdrawn","type":"uint256"}],"stateMutability":"nonpayable","type":"function"}],"compiler":{"version":"0.8.17+commit.8df45f5f","evm_version":"london","optimizer":{"enabled":true,"runs":200}},"contractName":"BalancerPoolVault","language":"Solidity","natspec":{"methods":{"DOMAIN_SEPARATOR()":{"details":"See {IERC20Permit-DOMAIN_SEPARATOR}."},"allowance(address,address)":{"details":"See {IERC20-allowance}."},"approve(address,uint256)":{"details":"See {IERC20-approve}. NOTE: If `amount` is the maximum `uint256`, the allowance is not updated on `transferFrom`. This is semantically equivalent to an infinite approval. Requirements: - `spender` cannot be the zero address."},"balanceOf(address)":{"details":"See {IERC20-balanceOf}."},"decimals()":{"details":"Returns the decimals places of the token."},"decreaseAllowance(address,uint256)":{"details":"Atomically decreases the allowance granted to `spender` by the caller. This is an alternative to {approve} that can be used as a mitigation for problems described in {IERC20-approve}. Emits an {Approval} event indicating the updated allowance. Requirements: - `spender` cannot be the zero address. - `spender` must have allowance for the caller of at least `subtractedValue`."},"deposit(uint256,uint256)":{"notice":"Deposits `underlyingAmount` of underlying (usually LP) token supported and sends back the received vault tokens","params":{"underlyingAmount":"the amount of underlying to deposit"},"returns":{"vaultTokensMinted":"the amount of vault token sent back"}},"exchangeRate()":{"notice":"The same as getRate() from IRateProvider.","returns":{"_0":"The exchange rate between an underlying tokens and the token of this vault"}},"getTokens()":{"returns":{"_0":"The token associated with this vault In the case of an LP token, this will be the underlying tokens associated to it (e.g. [ETH, DAI] for a ETH/DAI pool LP token or [USDC] for aUSDC) In most cases, the tokens returned will not be LP tokens"}},"increaseAllowance(address,uint256)":{"details":"Atomically increases the allowance granted to `spender` by the caller. This is an alternative to {approve} that can be used as a mitigation for problems described in {IERC20-approve}. Emits an {Approval} event indicating the updated allowance. Requirements: - `spender` cannot be the zero address."},"name()":{"details":"Returns the name of the token."},"nonces(address)":{"details":"See {IERC20Permit-nonces}."},"permit(address,address,uint256,uint256,uint8,bytes32,bytes32)":{"details":"See {IERC20Permit-permit}."},"reinitialize(uint8)":{"details":"this is a temporary function to allow for the migration to a single logic contract for all the proxies"},"setStrategy(address)":{"notice":"Sets the address of the strategy to use for this vault This will be used through governance","params":{"strategyAddress":"the address of the strategy contract that should follow the `IStrategy` interface"}},"symbol()":{"details":"Returns the symbol of the token, usually a shorter version of the name."},"totalSupply()":{"details":"See {IERC20-totalSupply}."},"totalUnderlying()":{"returns":{"_0":"The total amount of underlying tokens in the vault"}},"transfer(address,uint256)":{"details":"See {IERC20-transfer}. Requirements: - `to` cannot be the zero address. - the caller must have a balance of at least `amount`."},"transferFrom(address,address,uint256)":{"details":"See {IERC20-transferFrom}. Emits an {Approval} event indicating the updated allowance. This is not required by the EIP. See the note at the beginning of {ERC20}. NOTE: Does not update the allowance if the current allowance is the maximum `uint256`. Requirements: - `from` and `to` cannot be the zero address. - `from` must have a balance of at least `amount`. - the caller must have allowance for ``from``'s tokens of at least `amount`."},"withdraw(uint256,uint256)":{"notice":"Withdraws `vaultTokenAmount` of LP token supported and burns the vault tokens","params":{"vaultTokenAmount":"the amount of vault token to withdraw"},"returns":{"underlyingAmountWithdrawn":"the amount of LP token sent back"}},"poolId()":{"notice":"Balancer pool ID"},"governor()":{"notice":"Returns the current governor"},"pendingGovernor()":{"notice":"Returns the pending governor"},"acceptGovernance()":{"notice":"Called by the pending governor to approve the change"},"dryWithdraw(uint256,uint256)":{"notice":"Dry-run version of `withdraw`"},"changeGovernor(address)":{"notice":"Changes the governor can only be called by the current governor"},"dryDeposit(uint256,uint256)":{"notice":"Dry-run version of deposit"},"depositFor(address,uint256,uint256)":{"notice":"Simlar to `deposit(uint256 underlyingAmount)` but credits the tokens to `beneficiary` instead of `msg.sender`"}},"kind":"dev","version":1,"stateVariables":{"vaultType":{"return":"The type of the vault","returns":{"_0":"The type of the vault"}}}},"opcodes":"PUSH1 0x80 PUSH1 0x40 MSTORE CALLVALUE DUP1 ISZERO PUSH2 0x10 JUMPI PUSH1 0x0 DUP1 REVERT JUMPDEST POP PUSH1 0x4 CALLDATASIZE LT PUSH2 0x232 JUMPI PUSH1 0x0 CALLDATALOAD PUSH1 0xE0 SHR DUP1 PUSH4 0x679AEFCE GT PUSH2 0x130 JUMPI DUP1 PUSH4 0xB14B9F4D GT PUSH2 0xB8 JUMPI DUP1 PUSH4 0xDD62ED3E GT PUSH2 0x7C JUMPI DUP1 PUSH4 0xDD62ED3E EQ PUSH2 0x4EA JUMPI DUP1 PUSH4 0xE2BBB158 EQ PUSH2 0x4FD JUMPI DUP1 PUSH4 0xE3056A34 EQ PUSH2 0x510 JUMPI DUP1 PUSH4 0xE4C0AAF4 EQ PUSH2 0x523 JUMPI DUP1 PUSH4 0xEAE4C19F EQ PUSH2 0x536 JUMPI PUSH1 0x0 DUP1 REVERT JUMPDEST DUP1 PUSH4 0xB14B9F4D EQ PUSH2 0x496 JUMPI DUP1 PUSH4 0xC4D66DE8 EQ PUSH2 0x4A9 JUMPI DUP1 PUSH4 0xC70920BC EQ PUSH2 0x4BC JUMPI DUP1 PUSH4 0xCC04FEFF EQ PUSH2 0x4C4 JUMPI DUP1 PUSH4 0xD505ACCF EQ PUSH2 0x4D7 JUMPI PUSH1 0x0 DUP1 REVERT JUMPDEST DUP1 PUSH4 0x95D89B41 GT PUSH2 0xFF JUMPI DUP1 PUSH4 0x95D89B41 EQ PUSH2 0x43F JUMPI DUP1 PUSH4 0xA457C2D7 EQ PUSH2 0x447 JUMPI DUP1 PUSH4 0xA8C62E76 EQ PUSH2 0x45A JUMPI DUP1 PUSH4 0xA9059CBB EQ PUSH2 0x46E JUMPI DUP1 PUSH4 0xAA6CA808 EQ PUSH2 0x481 JUMPI PUSH1 0x0 DUP1 REVERT JUMPDEST DUP1 PUSH4 0x679AEFCE EQ PUSH2 0x354 JUMPI DUP1 PUSH4 0x6F307DC3 EQ PUSH2 0x3EF JUMPI DUP1 PUSH4 0x70A08231 EQ PUSH2 0x403 JUMPI DUP1 PUSH4 0x7ECEBE00 EQ PUSH2 0x42C JUMPI PUSH1 0x0 DUP1 REVERT JUMPDEST DUP1 PUSH4 0x33A100CA GT PUSH2 0x1BE JUMPI DUP1 PUSH4 0x441A3E70 GT PUSH2 0x182 JUMPI DUP1 PUSH4 0x441A3E70 EQ PUSH2 0x366 JUMPI DUP1 PUSH4 0x44BBDB55 EQ PUSH2 0x379 JUMPI DUP1 PUSH4 0x4AC032BE EQ PUSH2 0x3A0 JUMPI DUP1 PUSH4 0x4CF5FBF5 EQ PUSH2 0x3BB JUMPI DUP1 PUSH4 0x550D2B62 EQ PUSH2 0x3CE JUMPI PUSH1 0x0 DUP1 REVERT JUMPDEST DUP1 PUSH4 0x33A100CA EQ PUSH2 0x326 JUMPI DUP1 PUSH4 0x3644E515 EQ PUSH2 0x339 JUMPI DUP1 PUSH4 0x39509351 EQ PUSH2 0x341 JUMPI DUP1 PUSH4 0x3BA0B9A9 EQ PUSH2 0x354 JUMPI DUP1 PUSH4 0x3E0DC34E EQ PUSH2 0x35C JUMPI PUSH1 0x0 DUP1 REVERT JUMPDEST DUP1 PUSH4 0x158274A5 GT PUSH2 0x205 JUMPI DUP1 PUSH4 0x158274A5 EQ PUSH2 0x2B8 JUMPI DUP1 PUSH4 0x18160DDD EQ PUSH2 0x2DF JUMPI DUP1 PUSH4 0x238EFCBC EQ PUSH2 0x2F1 JUMPI DUP1 PUSH4 0x23B872DD EQ PUSH2 0x2F9 JUMPI DUP1 PUSH4 0x313CE567 EQ PUSH2 0x30C JUMPI PUSH1 0x0 DUP1 REVERT JUMPDEST DUP1 PUSH4 0x6FDDE03 EQ PUSH2 0x237 JUMPI DUP1 PUSH4 0x73DE42E EQ PUSH2 0x255 JUMPI DUP1 PUSH4 0x95EA7B3 EQ PUSH2 0x26A JUMPI DUP1 PUSH4 0xC340A24 EQ PUSH2 0x28D JUMPI JUMPDEST PUSH1 0x0 DUP1 REVERT JUMPDEST PUSH2 0x23F PUSH2 0x540 JUMP JUMPDEST PUSH1 0x40 MLOAD PUSH2 0x24C SWAP2 SWAP1 PUSH2 0x201A JUMP JUMPDEST PUSH1 0x40 MLOAD DUP1 SWAP2 SUB SWAP1 RETURN JUMPDEST PUSH2 0x268 PUSH2 0x263 CALLDATASIZE PUSH1 0x4 PUSH2 0x2041 JUMP JUMPDEST PUSH2 0x5D2 JUMP JUMPDEST STOP JUMPDEST PUSH2 0x27D PUSH2 0x278 CALLDATASIZE PUSH1 0x4 PUSH2 0x2071 JUMP JUMPDEST PUSH2 0x666 JUMP JUMPDEST PUSH1 0x40 MLOAD SWAP1 ISZERO ISZERO DUP2 MSTORE PUSH1 0x20 ADD PUSH2 0x24C JUMP JUMPDEST PUSH1 0x0 SLOAD PUSH2 0x2A0 SWAP1 PUSH1 0x1 PUSH1 0x1 PUSH1 0xA0 SHL SUB AND DUP2 JUMP JUMPDEST PUSH1 0x40 MLOAD PUSH1 0x1 PUSH1 0x1 PUSH1 0xA0 SHL SUB SWAP1 SWAP2 AND DUP2 MSTORE PUSH1 0x20 ADD PUSH2 0x24C JUMP JUMPDEST PUSH2 0x2A0 PUSH32 0x0 DUP2 JUMP JUMPDEST PUSH1 0x36 SLOAD JUMPDEST PUSH1 0x40 MLOAD SWAP1 DUP2 MSTORE PUSH1 0x20 ADD PUSH2 0x24C JUMP JUMPDEST PUSH2 0x268 PUSH2 0x680 JUMP JUMPDEST PUSH2 0x27D PUSH2 0x307 CALLDATASIZE PUSH1 0x4 PUSH2 0x209D JUMP JUMPDEST PUSH2 0x730 JUMP JUMPDEST PUSH2 0x314 PUSH2 0x754 JUMP JUMPDEST PUSH1 0x40 MLOAD PUSH1 0xFF SWAP1 SWAP2 AND DUP2 MSTORE PUSH1 0x20 ADD PUSH2 0x24C JUMP JUMPDEST PUSH2 0x268 PUSH2 0x334 CALLDATASIZE PUSH1 0x4 PUSH2 0x20DE JUMP JUMPDEST PUSH2 0x7C8 JUMP JUMPDEST PUSH2 0x2E3 PUSH2 0x831 JUMP JUMPDEST PUSH2 0x27D PUSH2 0x34F CALLDATASIZE PUSH1 0x4 PUSH2 0x2071 JUMP JUMPDEST PUSH2 0x83B JUMP JUMPDEST PUSH2 0x2E3 PUSH2 0x85D JUMP JUMPDEST PUSH2 0x2E3 PUSH2 0x134 SLOAD DUP2 JUMP JUMPDEST PUSH2 0x2E3 PUSH2 0x374 CALLDATASIZE PUSH1 0x4 PUSH2 0x20FB JUMP JUMPDEST PUSH2 0x869 JUMP JUMPDEST PUSH2 0x2A0 PUSH32 0x0 DUP2 JUMP JUMPDEST PUSH2 0x135 SLOAD PUSH2 0x3AE SWAP1 PUSH1 0xFF AND DUP2 JUMP JUMPDEST PUSH1 0x40 MLOAD PUSH2 0x24C SWAP2 SWAP1 PUSH2 0x2133 JUMP JUMPDEST PUSH2 0x2E3 PUSH2 0x3C9 CALLDATASIZE PUSH1 0x4 PUSH2 0x215B JUMP JUMPDEST PUSH2 0x977 JUMP JUMPDEST PUSH2 0x3E1 PUSH2 0x3DC CALLDATASIZE PUSH1 0x4 PUSH2 0x20FB JUMP JUMPDEST PUSH2 0xA67 JUMP JUMPDEST PUSH1 0x40 MLOAD PUSH2 0x24C SWAP3 SWAP2 SWAP1 PUSH2 0x2190 JUMP JUMPDEST PUSH2 0x131 SLOAD PUSH2 0x2A0 SWAP1 PUSH1 0x1 PUSH1 0x1 PUSH1 0xA0 SHL SUB AND DUP2 JUMP JUMPDEST PUSH2 0x2E3 PUSH2 0x411 CALLDATASIZE PUSH1 0x4 PUSH2 0x20DE JUMP JUMPDEST PUSH1 0x1 PUSH1 0x1 PUSH1 0xA0 SHL SUB AND PUSH1 0x0 SWAP1 DUP2 MSTORE PUSH1 0x34 PUSH1 0x20 MSTORE PUSH1 0x40 SWAP1 KECCAK256 SLOAD SWAP1 JUMP JUMPDEST PUSH2 0x2E3 PUSH2 0x43A CALLDATASIZE PUSH1 0x4 PUSH2 0x20DE JUMP JUMPDEST PUSH2 0xAB2 JUMP JUMPDEST PUSH2 0x23F PUSH2 0xAD0 JUMP JUMPDEST PUSH2 0x27D PUSH2 0x455 CALLDATASIZE PUSH1 0x4 PUSH2 0x2071 JUMP JUMPDEST PUSH2 0xADF JUMP JUMPDEST PUSH2 0x133 SLOAD PUSH2 0x2A0 SWAP1 PUSH1 0x1 PUSH1 0x1 PUSH1 0xA0 SHL SUB AND DUP2 JUMP JUMPDEST PUSH2 0x27D PUSH2 0x47C CALLDATASIZE PUSH1 0x4 PUSH2 0x2071 JUMP JUMPDEST PUSH2 0xB5A JUMP JUMPDEST PUSH2 0x489 PUSH2 0xB68 JUMP JUMPDEST PUSH1 0x40 MLOAD PUSH2 0x24C SWAP2 SWAP1 PUSH2 0x21A9 JUMP JUMPDEST PUSH2 0x268 PUSH2 0x4A4 CALLDATASIZE PUSH1 0x4 PUSH2 0x22AD JUMP JUMPDEST PUSH2 0xC0B JUMP JUMPDEST PUSH2 0x268 PUSH2 0x4B7 CALLDATASIZE PUSH1 0x4 PUSH2 0x20DE JUMP JUMPDEST PUSH2 0xD29 JUMP JUMPDEST PUSH2 0x2E3 PUSH2 0xE0C JUMP JUMPDEST PUSH2 0x3E1 PUSH2 0x4D2 CALLDATASIZE PUSH1 0x4 PUSH2 0x20FB JUMP JUMPDEST PUSH2 0xE7A JUMP JUMPDEST PUSH2 0x268 PUSH2 0x4E5 CALLDATASIZE PUSH1 0x4 PUSH2 0x234D JUMP JUMPDEST PUSH2 0xE94 JUMP JUMPDEST PUSH2 0x2E3 PUSH2 0x4F8 CALLDATASIZE PUSH1 0x4 PUSH2 0x23BE JUMP JUMPDEST PUSH2 0xFF8 JUMP JUMPDEST PUSH2 0x2E3 PUSH2 0x50B CALLDATASIZE PUSH1 0x4 PUSH2 0x20FB JUMP JUMPDEST PUSH2 0x1023 JUMP JUMPDEST PUSH1 0x1 SLOAD PUSH2 0x2A0 SWAP1 PUSH1 0x1 PUSH1 0x1 PUSH1 0xA0 SHL SUB AND DUP2 JUMP JUMPDEST PUSH2 0x268 PUSH2 0x531 CALLDATASIZE PUSH1 0x4 PUSH2 0x20DE JUMP JUMPDEST PUSH2 0x1037 JUMP JUMPDEST PUSH2 0x2E3 PUSH2 0x132 SLOAD DUP2 JUMP JUMPDEST PUSH1 0x60 PUSH1 0x37 DUP1 SLOAD PUSH2 0x54F SWAP1 PUSH2 0x23F7 JUMP JUMPDEST DUP1 PUSH1 0x1F ADD PUSH1 0x20 DUP1 SWAP2 DIV MUL PUSH1 0x20 ADD PUSH1 0x40 MLOAD SWAP1 DUP2 ADD PUSH1 0x40 MSTORE DUP1 SWAP3 SWAP2 SWAP1 DUP2 DUP2 MSTORE PUSH1 0x20 ADD DUP3 DUP1 SLOAD PUSH2 0x57B SWAP1 PUSH2 0x23F7 JUMP JUMPDEST DUP1 ISZERO PUSH2 0x5C8 JUMPI DUP1 PUSH1 0x1F LT PUSH2 0x59D JUMPI PUSH2 0x100 DUP1 DUP4 SLOAD DIV MUL DUP4 MSTORE SWAP2 PUSH1 0x20 ADD SWAP2 PUSH2 0x5C8 JUMP JUMPDEST DUP3 ADD SWAP2 SWAP1 PUSH1 0x0 MSTORE PUSH1 0x20 PUSH1 0x0 KECCAK256 SWAP1 JUMPDEST DUP2 SLOAD DUP2 MSTORE SWAP1 PUSH1 0x1 ADD SWAP1 PUSH1 0x20 ADD DUP1 DUP4 GT PUSH2 0x5AB JUMPI DUP3 SWAP1 SUB PUSH1 0x1F AND DUP3 ADD SWAP2 JUMPDEST POP POP POP POP POP SWAP1 POP SWAP1 JUMP JUMPDEST PUSH1 0x0 PUSH2 0x135 SLOAD PUSH1 0xFF AND PUSH1 0x4 DUP2 GT ISZERO PUSH2 0x5EC JUMPI PUSH2 0x5EC PUSH2 0x211D JUMP JUMPDEST EQ PUSH2 0x63E JUMPI PUSH1 0x40 MLOAD PUSH3 0x461BCD PUSH1 0xE5 SHL DUP2 MSTORE PUSH1 0x20 PUSH1 0x4 DUP3 ADD MSTORE PUSH1 0x1A PUSH1 0x24 DUP3 ADD MSTORE PUSH32 0x5661756C743A20616C726561647920696E697469616C697A6564000000000000 PUSH1 0x44 DUP3 ADD MSTORE PUSH1 0x64 ADD JUMPDEST PUSH1 0x40 MLOAD DUP1 SWAP2 SUB SWAP1 REVERT JUMPDEST PUSH2 0x135 DUP1 SLOAD DUP3 SWAP2 SWAP1 PUSH1 0xFF NOT AND PUSH1 0x1 DUP4 PUSH1 0x4 DUP2 GT ISZERO PUSH2 0x65E JUMPI PUSH2 0x65E PUSH2 0x211D JUMP JUMPDEST MUL OR SWAP1 SSTORE POP POP JUMP JUMPDEST PUSH1 0x0 CALLER PUSH2 0x674 DUP2 DUP6 DUP6 PUSH2 0x110C JUMP JUMPDEST PUSH1 0x1 SWAP2 POP POP JUMPDEST SWAP3 SWAP2 POP POP JUMP JUMPDEST PUSH1 0x1 SLOAD PUSH1 0x40 DUP1 MLOAD DUP1 DUP3 ADD SWAP1 SWAP2 MSTORE PUSH1 0x2 DUP2 MSTORE PUSH2 0x333 PUSH1 0xF4 SHL PUSH1 0x20 DUP3 ADD MSTORE SWAP1 PUSH1 0x1 PUSH1 0x1 PUSH1 0xA0 SHL SUB AND CALLER EQ PUSH2 0x6C5 JUMPI PUSH1 0x40 MLOAD PUSH3 0x461BCD PUSH1 0xE5 SHL DUP2 MSTORE PUSH1 0x4 ADD PUSH2 0x635 SWAP2 SWAP1 PUSH2 0x201A JUMP JUMPDEST POP PUSH1 0x0 DUP1 SLOAD PUSH1 0x1 DUP1 SLOAD PUSH1 0x1 PUSH1 0x1 PUSH1 0xA0 SHL SUB NOT DUP1 DUP5 AND PUSH1 0x1 PUSH1 0x1 PUSH1 0xA0 SHL SUB DUP1 DUP5 AND SWAP2 SWAP1 SWAP2 OR SWAP1 SWAP6 SSTORE AND SWAP1 SSTORE PUSH1 0x40 DUP1 MLOAD SWAP3 SWAP1 SWAP2 AND DUP1 DUP4 MSTORE CALLER PUSH1 0x20 DUP5 ADD MSTORE SWAP2 PUSH32 0xDE4B3F61490B74C0ED6237523974FE299126BBBF8A8A7482FD220104C59B0C84 SWAP2 ADD JUMPDEST PUSH1 0x40 MLOAD DUP1 SWAP2 SUB SWAP1 LOG1 POP JUMP JUMPDEST PUSH1 0x0 CALLER PUSH2 0x73E DUP6 DUP3 DUP6 PUSH2 0x1231 JUMP JUMPDEST PUSH2 0x749 DUP6 DUP6 DUP6 PUSH2 0x12AB JUMP JUMPDEST POP PUSH1 0x1 SWAP5 SWAP4 POP POP POP POP JUMP JUMPDEST PUSH2 0x131 SLOAD PUSH1 0x40 DUP1 MLOAD PUSH4 0x313CE567 PUSH1 0xE0 SHL DUP2 MSTORE SWAP1 MLOAD PUSH1 0x0 SWAP3 PUSH1 0x1 PUSH1 0x1 PUSH1 0xA0 SHL SUB AND SWAP2 PUSH4 0x313CE567 SWAP2 PUSH1 0x4 DUP1 DUP4 ADD SWAP3 PUSH1 0x20 SWAP3 SWAP2 SWAP1 DUP3 SWAP1 SUB ADD DUP2 DUP7 GAS STATICCALL ISZERO DUP1 ISZERO PUSH2 0x79F JUMPI RETURNDATASIZE PUSH1 0x0 DUP1 RETURNDATACOPY RETURNDATASIZE PUSH1 0x0 REVERT JUMPDEST POP POP POP POP PUSH1 0x40 MLOAD RETURNDATASIZE PUSH1 0x1F NOT PUSH1 0x1F DUP3 ADD AND DUP3 ADD DUP1 PUSH1 0x40 MSTORE POP DUP2 ADD SWAP1 PUSH2 0x7C3 SWAP2 SWAP1 PUSH2 0x242B JUMP JUMPDEST SWAP1 POP SWAP1 JUMP JUMPDEST PUSH1 0x0 SLOAD PUSH1 0x40 DUP1 MLOAD DUP1 DUP3 ADD SWAP1 SWAP2 MSTORE PUSH1 0x2 DUP2 MSTORE PUSH2 0x333 PUSH1 0xF4 SHL PUSH1 0x20 DUP3 ADD MSTORE SWAP1 PUSH1 0x1 PUSH1 0x1 PUSH1 0xA0 SHL SUB AND CALLER EQ PUSH2 0x80D JUMPI PUSH1 0x40 MLOAD PUSH3 0x461BCD PUSH1 0xE5 SHL DUP2 MSTORE PUSH1 0x4 ADD PUSH2 0x635 SWAP2 SWAP1 PUSH2 0x201A JUMP JUMPDEST POP PUSH2 0x133 DUP1 SLOAD PUSH1 0x1 PUSH1 0x1 PUSH1 0xA0 SHL SUB NOT AND PUSH1 0x1 PUSH1 0x1 PUSH1 0xA0 SHL SUB SWAP3 SWAP1 SWAP3 AND SWAP2 SWAP1 SWAP2 OR SWAP1 SSTORE JUMP JUMPDEST PUSH1 0x0 PUSH2 0x7C3 PUSH2 0x1456 JUMP JUMPDEST PUSH1 0x0 CALLER PUSH2 0x674 DUP2 DUP6 DUP6 PUSH2 0x84E DUP4 DUP4 PUSH2 0xFF8 JUMP JUMPDEST PUSH2 0x858 SWAP2 SWAP1 PUSH2 0x245E JUMP JUMPDEST PUSH2 0x110C JUMP JUMPDEST PUSH1 0x0 PUSH2 0x7C3 PUSH1 0x0 PUSH2 0x14D1 JUMP JUMPDEST PUSH1 0x0 DUP1 DUP4 GT PUSH1 0x40 MLOAD DUP1 PUSH1 0x40 ADD PUSH1 0x40 MSTORE DUP1 PUSH1 0x2 DUP2 MSTORE PUSH1 0x20 ADD PUSH2 0x3331 PUSH1 0xF0 SHL DUP2 MSTORE POP SWAP1 PUSH2 0x8A7 JUMPI PUSH1 0x40 MLOAD PUSH3 0x461BCD PUSH1 0xE5 SHL DUP2 MSTORE PUSH1 0x4 ADD PUSH2 0x635 SWAP2 SWAP1 PUSH2 0x201A JUMP JUMPDEST POP CALLER PUSH1 0x0 SWAP1 DUP2 MSTORE PUSH1 0x34 PUSH1 0x20 MSTORE PUSH1 0x40 DUP2 KECCAK256 SLOAD SWAP1 POP DUP4 DUP2 LT ISZERO PUSH1 0x40 MLOAD DUP1 PUSH1 0x40 ADD PUSH1 0x40 MSTORE DUP1 PUSH1 0x2 DUP2 MSTORE PUSH1 0x20 ADD PUSH2 0xCCD PUSH1 0xF2 SHL DUP2 MSTORE POP SWAP1 PUSH2 0x8F7 JUMPI PUSH1 0x40 MLOAD PUSH3 0x461BCD PUSH1 0xE5 SHL DUP2 MSTORE PUSH1 0x4 ADD PUSH2 0x635 SWAP2 SWAP1 PUSH2 0x201A JUMP JUMPDEST POP PUSH1 0x0 PUSH2 0x902 PUSH2 0x85D JUMP JUMPDEST SWAP1 POP PUSH2 0x90E DUP6 DUP3 PUSH2 0x152A JUMP JUMPDEST SWAP3 POP DUP4 DUP4 LT ISZERO PUSH1 0x40 MLOAD DUP1 PUSH1 0x40 ADD PUSH1 0x40 MSTORE DUP1 PUSH1 0x1 DUP2 MSTORE PUSH1 0x20 ADD PUSH1 0x19 PUSH1 0xF9 SHL DUP2 MSTORE POP SWAP1 PUSH2 0x94C JUMPI PUSH1 0x40 MLOAD PUSH3 0x461BCD PUSH1 0xE5 SHL DUP2 MSTORE PUSH1 0x4 ADD PUSH2 0x635 SWAP2 SWAP1 PUSH2 0x201A JUMP JUMPDEST POP PUSH2 0x957 CALLER DUP7 PUSH2 0x154B JUMP JUMPDEST PUSH2 0x131 SLOAD PUSH2 0x96F SWAP1 PUSH1 0x1 PUSH1 0x1 PUSH1 0xA0 SHL SUB AND CALLER DUP6 PUSH2 0x167C JUMP JUMPDEST POP POP SWAP3 SWAP2 POP POP JUMP JUMPDEST PUSH1 0x0 DUP1 PUSH2 0x984 PUSH1 0x1 PUSH2 0x14D1 JUMP JUMPDEST PUSH2 0x131 SLOAD SWAP1 SWAP2 POP PUSH2 0x9A0 SWAP1 PUSH1 0x1 PUSH1 0x1 PUSH1 0xA0 SHL SUB AND CALLER ADDRESS DUP8 PUSH2 0x16DF JUMP JUMPDEST PUSH2 0x9AA DUP5 DUP3 PUSH2 0x1717 JUMP JUMPDEST SWAP2 POP PUSH2 0x9B5 PUSH1 0x36 SLOAD SWAP1 JUMP JUMPDEST PUSH1 0x0 SUB PUSH2 0x9E2 JUMPI PUSH1 0x0 PUSH2 0x9C6 PUSH2 0x178A JUMP JUMPDEST SWAP1 POP PUSH2 0x9D4 PUSH2 0xDEAD DUP3 PUSH2 0x17AB JUMP JUMPDEST PUSH2 0x9DE DUP2 DUP5 PUSH2 0x2471 JUMP JUMPDEST SWAP3 POP POP JUMPDEST PUSH1 0x40 DUP1 MLOAD DUP1 DUP3 ADD SWAP1 SWAP2 MSTORE PUSH1 0x3 DUP2 MSTORE PUSH3 0x313033 PUSH1 0xE8 SHL PUSH1 0x20 DUP3 ADD MSTORE DUP3 PUSH2 0xA1A JUMPI PUSH1 0x40 MLOAD PUSH3 0x461BCD PUSH1 0xE5 SHL DUP2 MSTORE PUSH1 0x4 ADD PUSH2 0x635 SWAP2 SWAP1 PUSH2 0x201A JUMP JUMPDEST POP PUSH1 0x40 DUP1 MLOAD DUP1 DUP3 ADD SWAP1 SWAP2 MSTORE PUSH1 0x1 DUP2 MSTORE PUSH1 0x19 PUSH1 0xF9 SHL PUSH1 0x20 DUP3 ADD MSTORE DUP4 DUP4 LT ISZERO PUSH2 0xA54 JUMPI PUSH1 0x40 MLOAD PUSH3 0x461BCD PUSH1 0xE5 SHL DUP2 MSTORE PUSH1 0x4 ADD PUSH2 0x635 SWAP2 SWAP1 PUSH2 0x201A JUMP JUMPDEST POP PUSH2 0xA5F DUP6 DUP4 PUSH2 0x17AB JUMP JUMPDEST POP SWAP4 SWAP3 POP POP POP JUMP JUMPDEST PUSH1 0x0 PUSH1 0x60 PUSH1 0x0 PUSH2 0xA77 PUSH1 0x1 PUSH2 0x14D1 JUMP JUMPDEST SWAP1 POP PUSH2 0xA83 DUP6 DUP3 PUSH2 0x1717 JUMP JUMPDEST SWAP3 POP DUP4 DUP4 LT ISZERO PUSH2 0xAAA JUMPI PUSH1 0x40 MLOAD DUP1 PUSH1 0x40 ADD PUSH1 0x40 MSTORE DUP1 PUSH1 0x1 DUP2 MSTORE PUSH1 0x20 ADD PUSH1 0x19 PUSH1 0xF9 SHL DUP2 MSTORE POP SWAP2 POP JUMPDEST POP SWAP3 POP SWAP3 SWAP1 POP JUMP JUMPDEST PUSH1 0x1 PUSH1 0x1 PUSH1 0xA0 SHL SUB DUP2 AND PUSH1 0x0 SWAP1 DUP2 MSTORE PUSH1 0x9A PUSH1 0x20 MSTORE PUSH1 0x40 DUP2 KECCAK256 SLOAD PUSH2 0x67A JUMP JUMPDEST PUSH1 0x60 PUSH1 0x38 DUP1 SLOAD PUSH2 0x54F SWAP1 PUSH2 0x23F7 JUMP JUMPDEST PUSH1 0x0 CALLER DUP2 PUSH2 0xAED DUP3 DUP7 PUSH2 0xFF8 JUMP JUMPDEST SWAP1 POP DUP4 DUP2 LT ISZERO PUSH2 0xB4D JUMPI PUSH1 0x40 MLOAD PUSH3 0x461BCD PUSH1 0xE5 SHL DUP2 MSTORE PUSH1 0x20 PUSH1 0x4 DUP3 ADD MSTORE PUSH1 0x25 PUSH1 0x24 DUP3 ADD MSTORE PUSH32 0x45524332303A2064656372656173656420616C6C6F77616E63652062656C6F77 PUSH1 0x44 DUP3 ADD MSTORE PUSH5 0x207A65726F PUSH1 0xD8 SHL PUSH1 0x64 DUP3 ADD MSTORE PUSH1 0x84 ADD PUSH2 0x635 JUMP JUMPDEST PUSH2 0x749 DUP3 DUP7 DUP7 DUP5 SUB PUSH2 0x110C JUMP JUMPDEST PUSH1 0x0 CALLER PUSH2 0x674 DUP2 DUP6 DUP6 PUSH2 0x12AB JUMP JUMPDEST PUSH1 0x60 PUSH1 0x0 PUSH32 0x0 PUSH1 0x1 PUSH1 0x1 PUSH1 0xA0 SHL SUB AND PUSH4 0xF94D4668 PUSH2 0x134 SLOAD PUSH1 0x40 MLOAD DUP3 PUSH4 0xFFFFFFFF AND PUSH1 0xE0 SHL DUP2 MSTORE PUSH1 0x4 ADD PUSH2 0xBBD SWAP2 DUP2 MSTORE PUSH1 0x20 ADD SWAP1 JUMP JUMPDEST PUSH1 0x0 PUSH1 0x40 MLOAD DUP1 DUP4 SUB DUP2 DUP7 GAS STATICCALL ISZERO DUP1 ISZERO PUSH2 0xBDA JUMPI RETURNDATASIZE PUSH1 0x0 DUP1 RETURNDATACOPY RETURNDATASIZE PUSH1 0x0 REVERT JUMPDEST POP POP POP POP PUSH1 0x40 MLOAD RETURNDATASIZE PUSH1 0x0 DUP3 RETURNDATACOPY PUSH1 0x1F RETURNDATASIZE SWAP1 DUP2 ADD PUSH1 0x1F NOT AND DUP3 ADD PUSH1 0x40 MSTORE PUSH2 0xC02 SWAP2 SWAP1 DUP2 ADD SWAP1 PUSH2 0x2513 JUMP JUMPDEST POP SWAP1 SWAP4 SWAP3 POP POP POP JUMP JUMPDEST PUSH1 0x1 SLOAD PUSH1 0x1 PUSH1 0xA8 SHL SWAP1 DIV PUSH1 0xFF AND ISZERO DUP1 DUP1 ISZERO PUSH2 0xC31 JUMPI POP PUSH1 0x1 DUP1 SLOAD PUSH1 0x1 PUSH1 0xA0 SHL SWAP1 DIV PUSH1 0xFF AND LT JUMPDEST DUP1 PUSH2 0xC51 JUMPI POP ADDRESS EXTCODESIZE ISZERO DUP1 ISZERO PUSH2 0xC51 JUMPI POP PUSH1 0x1 DUP1 SLOAD PUSH1 0x1 PUSH1 0xA0 SHL SWAP1 DIV PUSH1 0xFF AND EQ JUMPDEST PUSH2 0xC6D JUMPI PUSH1 0x40 MLOAD PUSH3 0x461BCD PUSH1 0xE5 SHL DUP2 MSTORE PUSH1 0x4 ADD PUSH2 0x635 SWAP1 PUSH2 0x25E1 JUMP JUMPDEST PUSH1 0x1 DUP1 SLOAD PUSH1 0xFF PUSH1 0xA0 SHL NOT AND PUSH1 0x1 PUSH1 0xA0 SHL OR SWAP1 SSTORE DUP1 ISZERO PUSH2 0xC9A JUMPI PUSH1 0x1 DUP1 SLOAD PUSH1 0xFF PUSH1 0xA8 SHL NOT AND PUSH1 0x1 PUSH1 0xA8 SHL OR SWAP1 SSTORE JUMPDEST PUSH2 0xCAF PUSH2 0xCA7 DUP8 PUSH1 0x60 SHR SWAP1 JUMP JUMPDEST DUP7 DUP7 DUP7 PUSH2 0x186C JUMP JUMPDEST PUSH2 0x134 DUP7 SWAP1 SSTORE PUSH2 0x135 DUP1 SLOAD DUP4 SWAP2 SWAP1 PUSH1 0xFF NOT AND PUSH1 0x1 DUP4 PUSH1 0x4 DUP2 GT ISZERO PUSH2 0xCD5 JUMPI PUSH2 0xCD5 PUSH2 0x211D JUMP JUMPDEST MUL OR SWAP1 SSTORE POP DUP1 ISZERO PUSH2 0xD21 JUMPI PUSH1 0x1 DUP1 SLOAD PUSH1 0xFF PUSH1 0xA8 SHL NOT AND DUP2 SSTORE PUSH1 0x40 MLOAD SWAP1 DUP2 MSTORE PUSH32 0x7F26B83FF96E1F2B6A682F133852F6798A09C465DA95921460CEFB3847402498 SWAP1 PUSH1 0x20 ADD PUSH1 0x40 MLOAD DUP1 SWAP2 SUB SWAP1 LOG1 JUMPDEST POP POP POP POP POP POP JUMP JUMPDEST PUSH1 0x1 SLOAD PUSH1 0x1 PUSH1 0xA8 SHL SWAP1 DIV PUSH1 0xFF AND ISZERO DUP1 DUP1 ISZERO PUSH2 0xD4F JUMPI POP PUSH1 0x1 DUP1 SLOAD PUSH1 0x1 PUSH1 0xA0 SHL SWAP1 DIV PUSH1 0xFF AND LT JUMPDEST DUP1 PUSH2 0xD6F JUMPI POP ADDRESS EXTCODESIZE ISZERO DUP1 ISZERO PUSH2 0xD6F JUMPI POP PUSH1 0x1 DUP1 SLOAD PUSH1 0x1 PUSH1 0xA0 SHL SWAP1 DIV PUSH1 0xFF AND EQ JUMPDEST PUSH2 0xD8B JUMPI PUSH1 0x40 MLOAD PUSH3 0x461BCD PUSH1 0xE5 SHL DUP2 MSTORE PUSH1 0x4 ADD PUSH2 0x635 SWAP1 PUSH2 0x25E1 JUMP JUMPDEST PUSH1 0x1 DUP1 SLOAD PUSH1 0xFF PUSH1 0xA0 SHL NOT AND PUSH1 0x1 PUSH1 0xA0 SHL OR SWAP1 SSTORE DUP1 ISZERO PUSH2 0xDB8 JUMPI PUSH1 0x1 DUP1 SLOAD PUSH1 0xFF PUSH1 0xA8 SHL NOT AND PUSH1 0x1 PUSH1 0xA8 SHL OR SWAP1 SSTORE JUMPDEST PUSH2 0xDC1 DUP3 PUSH2 0x18EA JUMP JUMPDEST DUP1 ISZERO PUSH2 0xE08 JUMPI PUSH1 0x1 DUP1 SLOAD PUSH1 0xFF PUSH1 0xA8 SHL NOT AND DUP2 SSTORE PUSH1 0x40 MLOAD SWAP1 DUP2 MSTORE PUSH32 0x7F26B83FF96E1F2B6A682F133852F6798A09C465DA95921460CEFB3847402498 SWAP1 PUSH1 0x20 ADD PUSH1 0x40 MLOAD DUP1 SWAP2 SUB SWAP1 LOG1 JUMPDEST POP POP JUMP JUMPDEST PUSH2 0x131 SLOAD PUSH1 0x40 MLOAD PUSH4 0x70A08231 PUSH1 0xE0 SHL DUP2 MSTORE ADDRESS PUSH1 0x4 DUP3 ADD MSTORE PUSH1 0x0 SWAP2 PUSH1 0x1 PUSH1 0x1 PUSH1 0xA0 SHL SUB AND SWAP1 PUSH4 0x70A08231 SWAP1 PUSH1 0x24 ADD PUSH1 0x20 PUSH1 0x40 MLOAD DUP1 DUP4 SUB DUP2 DUP7 GAS STATICCALL ISZERO DUP1 ISZERO PUSH2 0xE56 JUMPI RETURNDATASIZE PUSH1 0x0 DUP1 RETURNDATACOPY RETURNDATASIZE PUSH1 0x0 REVERT JUMPDEST POP POP POP POP PUSH1 0x40 MLOAD RETURNDATASIZE PUSH1 0x1F NOT PUSH1 0x1F DUP3 ADD AND DUP3 ADD DUP1 PUSH1 0x40 MSTORE POP DUP2 ADD SWAP1 PUSH2 0x7C3 SWAP2 SWAP1 PUSH2 0x262F JUMP JUMPDEST PUSH1 0x0 PUSH1 0x60 PUSH1 0x0 PUSH2 0xE88 PUSH2 0x85D JUMP JUMPDEST SWAP1 POP PUSH2 0xA83 DUP6 DUP3 PUSH2 0x152A JUMP JUMPDEST DUP4 TIMESTAMP GT ISZERO PUSH2 0xEE4 JUMPI PUSH1 0x40 MLOAD PUSH3 0x461BCD PUSH1 0xE5 SHL DUP2 MSTORE PUSH1 0x20 PUSH1 0x4 DUP3 ADD MSTORE PUSH1 0x1D PUSH1 0x24 DUP3 ADD MSTORE PUSH32 0x45524332305065726D69743A206578706972656420646561646C696E65000000 PUSH1 0x44 DUP3 ADD MSTORE PUSH1 0x64 ADD PUSH2 0x635 JUMP JUMPDEST PUSH1 0x0 PUSH32 0x6E71EDAE12B1B97F4D1F60370FEF10105FA2FAAE0126114A169C64845D6126C9 DUP9 DUP9 DUP9 PUSH2 0xF13 DUP13 PUSH2 0x193E JUMP JUMPDEST PUSH1 0x40 DUP1 MLOAD PUSH1 0x20 DUP2 ADD SWAP7 SWAP1 SWAP7 MSTORE PUSH1 0x1 PUSH1 0x1 PUSH1 0xA0 SHL SUB SWAP5 DUP6 AND SWAP1 DUP7 ADD MSTORE SWAP3 SWAP1 SWAP2 AND PUSH1 0x60 DUP5 ADD MSTORE PUSH1 0x80 DUP4 ADD MSTORE PUSH1 0xA0 DUP3 ADD MSTORE PUSH1 0xC0 DUP2 ADD DUP7 SWAP1 MSTORE PUSH1 0xE0 ADD PUSH1 0x40 MLOAD PUSH1 0x20 DUP2 DUP4 SUB SUB DUP2 MSTORE SWAP1 PUSH1 0x40 MSTORE DUP1 MLOAD SWAP1 PUSH1 0x20 ADD KECCAK256 SWAP1 POP PUSH1 0x0 PUSH2 0xF6E DUP3 PUSH2 0x1966 JUMP JUMPDEST SWAP1 POP PUSH1 0x0 PUSH2 0xF7E DUP3 DUP8 DUP8 DUP8 PUSH2 0x19B4 JUMP JUMPDEST SWAP1 POP DUP10 PUSH1 0x1 PUSH1 0x1 PUSH1 0xA0 SHL SUB AND DUP2 PUSH1 0x1 PUSH1 0x1 PUSH1 0xA0 SHL SUB AND EQ PUSH2 0xFE1 JUMPI PUSH1 0x40 MLOAD PUSH3 0x461BCD PUSH1 0xE5 SHL DUP2 MSTORE PUSH1 0x20 PUSH1 0x4 DUP3 ADD MSTORE PUSH1 0x1E PUSH1 0x24 DUP3 ADD MSTORE PUSH32 0x45524332305065726D69743A20696E76616C6964207369676E61747572650000 PUSH1 0x44 DUP3 ADD MSTORE PUSH1 0x64 ADD PUSH2 0x635 JUMP JUMPDEST PUSH2 0xFEC DUP11 DUP11 DUP11 PUSH2 0x110C JUMP JUMPDEST POP POP POP POP POP POP POP POP POP POP JUMP JUMPDEST PUSH1 0x1 PUSH1 0x1 PUSH1 0xA0 SHL SUB SWAP2 DUP3 AND PUSH1 0x0 SWAP1 DUP2 MSTORE PUSH1 0x35 PUSH1 0x20 SWAP1 DUP2 MSTORE PUSH1 0x40 DUP1 DUP4 KECCAK256 SWAP4 SWAP1 SWAP5 AND DUP3 MSTORE SWAP2 SWAP1 SWAP2 MSTORE KECCAK256 SLOAD SWAP1 JUMP JUMPDEST PUSH1 0x0 PUSH2 0x1030 CALLER DUP5 DUP5 PUSH2 0x977 JUMP JUMPDEST SWAP4 SWAP3 POP POP POP JUMP JUMPDEST PUSH1 0x0 SLOAD PUSH1 0x40 DUP1 MLOAD DUP1 DUP3 ADD SWAP1 SWAP2 MSTORE PUSH1 0x2 DUP2 MSTORE PUSH2 0x333 PUSH1 0xF4 SHL PUSH1 0x20 DUP3 ADD MSTORE SWAP1 PUSH1 0x1 PUSH1 0x1 PUSH1 0xA0 SHL SUB AND CALLER EQ PUSH2 0x107C JUMPI PUSH1 0x40 MLOAD PUSH3 0x461BCD PUSH1 0xE5 SHL DUP2 MSTORE PUSH1 0x4 ADD PUSH2 0x635 SWAP2 SWAP1 PUSH2 0x201A JUMP JUMPDEST POP PUSH1 0x40 DUP1 MLOAD DUP1 DUP3 ADD SWAP1 SWAP2 MSTORE PUSH1 0x2 DUP2 MSTORE PUSH2 0x3331 PUSH1 0xF0 SHL PUSH1 0x20 DUP3 ADD MSTORE PUSH1 0x1 PUSH1 0x1 PUSH1 0xA0 SHL SUB DUP3 AND PUSH2 0x10BD JUMPI PUSH1 0x40 MLOAD PUSH3 0x461BCD PUSH1 0xE5 SHL DUP2 MSTORE PUSH1 0x4 ADD PUSH2 0x635 SWAP2 SWAP1 PUSH2 0x201A JUMP JUMPDEST POP PUSH1 0x1 DUP1 SLOAD PUSH1 0x1 PUSH1 0x1 PUSH1 0xA0 SHL SUB NOT AND PUSH1 0x1 PUSH1 0x1 PUSH1 0xA0 SHL SUB DUP4 AND SWAP1 DUP2 OR SWAP1 SWAP2 SSTORE PUSH1 0x40 MLOAD SWAP1 DUP2 MSTORE PUSH32 0x67235BA2E63C748A35B95C4F92A3BBC2A1389938170A5CE6C9ADD5D0B03A314A SWAP1 PUSH1 0x20 ADD PUSH2 0x725 JUMP JUMPDEST PUSH1 0x1 PUSH1 0x1 PUSH1 0xA0 SHL SUB DUP4 AND PUSH2 0x116E JUMPI PUSH1 0x40 MLOAD PUSH3 0x461BCD PUSH1 0xE5 SHL DUP2 MSTORE PUSH1 0x20 PUSH1 0x4 DUP3 ADD MSTORE PUSH1 0x24 DUP1 DUP3 ADD MSTORE PUSH32 0x45524332303A20617070726F76652066726F6D20746865207A65726F20616464 PUSH1 0x44 DUP3 ADD MSTORE PUSH4 0x72657373 PUSH1 0xE0 SHL PUSH1 0x64 DUP3 ADD MSTORE PUSH1 0x84 ADD PUSH2 0x635 JUMP JUMPDEST PUSH1 0x1 PUSH1 0x1 PUSH1 0xA0 SHL SUB DUP3 AND PUSH2 0x11CF JUMPI PUSH1 0x40 MLOAD PUSH3 0x461BCD PUSH1 0xE5 SHL DUP2 MSTORE PUSH1 0x20 PUSH1 0x4 DUP3 ADD MSTORE PUSH1 0x22 PUSH1 0x24 DUP3 ADD MSTORE PUSH32 0x45524332303A20617070726F766520746F20746865207A65726F206164647265 PUSH1 0x44 DUP3 ADD MSTORE PUSH2 0x7373 PUSH1 0xF0 SHL PUSH1 0x64 DUP3 ADD MSTORE PUSH1 0x84 ADD PUSH2 0x635 JUMP JUMPDEST PUSH1 0x1 PUSH1 0x1 PUSH1 0xA0 SHL SUB DUP4 DUP2 AND PUSH1 0x0 DUP2 DUP2 MSTORE PUSH1 0x35 PUSH1 0x20 SWAP1 DUP2 MSTORE PUSH1 0x40 DUP1 DUP4 KECCAK256 SWAP5 DUP8 AND DUP1 DUP5 MSTORE SWAP5 DUP3 MSTORE SWAP2 DUP3 SWAP1 KECCAK256 DUP6 SWAP1 SSTORE SWAP1 MLOAD DUP5 DUP2 MSTORE PUSH32 0x8C5BE1E5EBEC7D5BD14F71427D1E84F3DD0314C0F7B2291E5B200AC8C7C3B925 SWAP2 ADD JUMPDEST PUSH1 0x40 MLOAD DUP1 SWAP2 SUB SWAP1 LOG3 POP POP POP JUMP JUMPDEST PUSH1 0x0 PUSH2 0x123D DUP5 DUP5 PUSH2 0xFF8 JUMP JUMPDEST SWAP1 POP PUSH1 0x0 NOT DUP2 EQ PUSH2 0x12A5 JUMPI DUP2 DUP2 LT ISZERO PUSH2 0x1298 JUMPI PUSH1 0x40 MLOAD PUSH3 0x461BCD PUSH1 0xE5 SHL DUP2 MSTORE PUSH1 0x20 PUSH1 0x4 DUP3 ADD MSTORE PUSH1 0x1D PUSH1 0x24 DUP3 ADD MSTORE PUSH32 0x45524332303A20696E73756666696369656E7420616C6C6F77616E6365000000 PUSH1 0x44 DUP3 ADD MSTORE PUSH1 0x64 ADD PUSH2 0x635 JUMP JUMPDEST PUSH2 0x12A5 DUP5 DUP5 DUP5 DUP5 SUB PUSH2 0x110C JUMP JUMPDEST POP POP POP POP JUMP JUMPDEST PUSH1 0x1 PUSH1 0x1 PUSH1 0xA0 SHL SUB DUP4 AND PUSH2 0x130F JUMPI PUSH1 0x40 MLOAD PUSH3 0x461BCD PUSH1 0xE5 SHL DUP2 MSTORE PUSH1 0x20 PUSH1 0x4 DUP3 ADD MSTORE PUSH1 0x25 PUSH1 0x24 DUP3 ADD MSTORE PUSH32 0x45524332303A207472616E736665722066726F6D20746865207A65726F206164 PUSH1 0x44 DUP3 ADD MSTORE PUSH5 0x6472657373 PUSH1 0xD8 SHL PUSH1 0x64 DUP3 ADD MSTORE PUSH1 0x84 ADD PUSH2 0x635 JUMP JUMPDEST PUSH1 0x1 PUSH1 0x1 PUSH1 0xA0 SHL SUB DUP3 AND PUSH2 0x1371 JUMPI PUSH1 0x40 MLOAD PUSH3 0x461BCD PUSH1 0xE5 SHL DUP2 MSTORE PUSH1 0x20 PUSH1 0x4 DUP3 ADD MSTORE PUSH1 0x23 PUSH1 0x24 DUP3 ADD MSTORE PUSH32 0x45524332303A207472616E7366657220746F20746865207A65726F2061646472 PUSH1 0x44 DUP3 ADD MSTORE PUSH3 0x657373 PUSH1 0xE8 SHL PUSH1 0x64 DUP3 ADD MSTORE PUSH1 0x84 ADD PUSH2 0x635 JUMP JUMPDEST PUSH1 0x1 PUSH1 0x1 PUSH1 0xA0 SHL SUB DUP4 AND PUSH1 0x0 SWAP1 DUP2 MSTORE PUSH1 0x34 PUSH1 0x20 MSTORE PUSH1 0x40 SWAP1 KECCAK256 SLOAD DUP2 DUP2 LT ISZERO PUSH2 0x13E9 JUMPI PUSH1 0x40 MLOAD PUSH3 0x461BCD PUSH1 0xE5 SHL DUP2 MSTORE PUSH1 0x20 PUSH1 0x4 DUP3 ADD MSTORE PUSH1 0x26 PUSH1 0x24 DUP3 ADD MSTORE PUSH32 0x45524332303A207472616E7366657220616D6F756E7420657863656564732062 PUSH1 0x44 DUP3 ADD MSTORE PUSH6 0x616C616E6365 PUSH1 0xD0 SHL PUSH1 0x64 DUP3 ADD MSTORE PUSH1 0x84 ADD PUSH2 0x635 JUMP JUMPDEST PUSH1 0x1 PUSH1 0x1 PUSH1 0xA0 SHL SUB DUP1 DUP6 AND PUSH1 0x0 DUP2 DUP2 MSTORE PUSH1 0x34 PUSH1 0x20 MSTORE PUSH1 0x40 DUP1 DUP3 KECCAK256 DUP7 DUP7 SUB SWAP1 SSTORE SWAP3 DUP7 AND DUP1 DUP3 MSTORE SWAP1 DUP4 SWAP1 KECCAK256 DUP1 SLOAD DUP7 ADD SWAP1 SSTORE SWAP2 MLOAD PUSH32 0xDDF252AD1BE2C89B69C2B068FC378DAA952BA7F163C4A11628F55A4DF523B3EF SWAP1 PUSH2 0x1449 SWAP1 DUP7 DUP2 MSTORE PUSH1 0x20 ADD SWAP1 JUMP JUMPDEST PUSH1 0x40 MLOAD DUP1 SWAP2 SUB SWAP1 LOG3 PUSH2 0x12A5 JUMP JUMPDEST PUSH1 0x0 PUSH2 0x7C3 PUSH32 0x8B73C3C69BB8FE3D512ECC4CF759CC79239F7B179B0FFACAA9A75D522B39400F PUSH2 0x1485 PUSH1 0x66 SLOAD SWAP1 JUMP JUMPDEST PUSH1 0x67 SLOAD PUSH1 0x40 DUP1 MLOAD PUSH1 0x20 DUP2 ADD DUP6 SWAP1 MSTORE SWAP1 DUP2 ADD DUP4 SWAP1 MSTORE PUSH1 0x60 DUP2 ADD DUP3 SWAP1 MSTORE CHAINID PUSH1 0x80 DUP3 ADD MSTORE ADDRESS PUSH1 0xA0 DUP3 ADD MSTORE PUSH1 0x0 SWAP1 PUSH1 0xC0 ADD PUSH1 0x40 MLOAD PUSH1 0x20 DUP2 DUP4 SUB SUB DUP2 MSTORE SWAP1 PUSH1 0x40 MSTORE DUP1 MLOAD SWAP1 PUSH1 0x20 ADD KECCAK256 SWAP1 POP SWAP4 SWAP3 POP POP POP JUMP JUMPDEST PUSH1 0x0 DUP1 PUSH2 0x14DC PUSH2 0xE0C JUMP JUMPDEST SWAP1 POP PUSH1 0x0 PUSH2 0x14E9 PUSH1 0x36 SLOAD SWAP1 JUMP JUMPDEST SWAP1 POP DUP1 PUSH1 0x0 SUB PUSH2 0x1504 JUMPI POP PUSH8 0xDE0B6B3A7640000 SWAP4 SWAP3 POP POP POP JUMP JUMPDEST DUP4 PUSH2 0x1518 JUMPI PUSH2 0x1513 DUP3 DUP3 PUSH2 0x1717 JUMP JUMPDEST PUSH2 0x1522 JUMP JUMPDEST PUSH2 0x1522 DUP3 DUP3 PUSH2 0x19DC JUMP JUMPDEST SWAP5 SWAP4 POP POP POP POP JUMP JUMPDEST PUSH1 0x0 DUP1 PUSH2 0x1537 DUP4 DUP6 PUSH2 0x2648 JUMP JUMPDEST SWAP1 POP PUSH2 0x1522 PUSH8 0xDE0B6B3A7640000 DUP3 PUSH2 0x2675 JUMP JUMPDEST PUSH1 0x1 PUSH1 0x1 PUSH1 0xA0 SHL SUB DUP3 AND PUSH2 0x15AB JUMPI PUSH1 0x40 MLOAD PUSH3 0x461BCD PUSH1 0xE5 SHL DUP2 MSTORE PUSH1 0x20 PUSH1 0x4 DUP3 ADD MSTORE PUSH1 0x21 PUSH1 0x24 DUP3 ADD MSTORE PUSH32 0x45524332303A206275726E2066726F6D20746865207A65726F20616464726573 PUSH1 0x44 DUP3 ADD MSTORE PUSH1 0x73 PUSH1 0xF8 SHL PUSH1 0x64 DUP3 ADD MSTORE PUSH1 0x84 ADD PUSH2 0x635 JUMP JUMPDEST PUSH1 0x1 PUSH1 0x1 PUSH1 0xA0 SHL SUB DUP3 AND PUSH1 0x0 SWAP1 DUP2 MSTORE PUSH1 0x34 PUSH1 0x20 MSTORE PUSH1 0x40 SWAP1 KECCAK256 SLOAD DUP2 DUP2 LT ISZERO PUSH2 0x161F JUMPI PUSH1 0x40 MLOAD PUSH3 0x461BCD PUSH1 0xE5 SHL DUP2 MSTORE PUSH1 0x20 PUSH1 0x4 DUP3 ADD MSTORE PUSH1 0x22 PUSH1 0x24 DUP3 ADD MSTORE PUSH32 0x45524332303A206275726E20616D6F756E7420657863656564732062616C616E PUSH1 0x44 DUP3 ADD MSTORE PUSH2 0x6365 PUSH1 0xF0 SHL PUSH1 0x64 DUP3 ADD MSTORE PUSH1 0x84 ADD PUSH2 0x635 JUMP JUMPDEST PUSH1 0x1 PUSH1 0x1 PUSH1 0xA0 SHL SUB DUP4 AND PUSH1 0x0 DUP2 DUP2 MSTORE PUSH1 0x34 PUSH1 0x20 SWAP1 DUP2 MSTORE PUSH1 0x40 DUP1 DUP4 KECCAK256 DUP7 DUP7 SUB SWAP1 SSTORE PUSH1 0x36 DUP1 SLOAD DUP8 SWAP1 SUB SWAP1 SSTORE MLOAD DUP6 DUP2 MSTORE SWAP2 SWAP3 SWAP2 PUSH32 0xDDF252AD1BE2C89B69C2B068FC378DAA952BA7F163C4A11628F55A4DF523B3EF SWAP2 ADD PUSH2 0x1224 JUMP JUMPDEST POP POP POP JUMP JUMPDEST PUSH1 0x40 MLOAD PUSH1 0x1 PUSH1 0x1 PUSH1 0xA0 SHL SUB DUP4 AND PUSH1 0x24 DUP3 ADD MSTORE PUSH1 0x44 DUP2 ADD DUP3 SWAP1 MSTORE PUSH2 0x1677 SWAP1 DUP5 SWAP1 PUSH4 0xA9059CBB PUSH1 0xE0 SHL SWAP1 PUSH1 0x64 ADD JUMPDEST PUSH1 0x40 DUP1 MLOAD PUSH1 0x1F NOT DUP2 DUP5 SUB ADD DUP2 MSTORE SWAP2 SWAP1 MSTORE PUSH1 0x20 DUP2 ADD DUP1 MLOAD PUSH1 0x1 PUSH1 0x1 PUSH1 0xE0 SHL SUB AND PUSH1 0x1 PUSH1 0x1 PUSH1 0xE0 SHL SUB NOT SWAP1 SWAP4 AND SWAP3 SWAP1 SWAP3 OR SWAP1 SWAP2 MSTORE PUSH2 0x1A5B JUMP JUMPDEST PUSH1 0x40 MLOAD PUSH1 0x1 PUSH1 0x1 PUSH1 0xA0 SHL SUB DUP1 DUP6 AND PUSH1 0x24 DUP4 ADD MSTORE DUP4 AND PUSH1 0x44 DUP3 ADD MSTORE PUSH1 0x64 DUP2 ADD DUP3 SWAP1 MSTORE PUSH2 0x12A5 SWAP1 DUP6 SWAP1 PUSH4 0x23B872DD PUSH1 0xE0 SHL SWAP1 PUSH1 0x84 ADD PUSH2 0x16A8 JUMP JUMPDEST PUSH1 0x40 DUP1 MLOAD DUP1 DUP3 ADD SWAP1 SWAP2 MSTORE PUSH1 0x2 DUP2 MSTORE PUSH2 0x3235 PUSH1 0xF0 SHL PUSH1 0x20 DUP3 ADD MSTORE PUSH1 0x0 SWAP1 DUP3 PUSH2 0x1751 JUMPI PUSH1 0x40 MLOAD PUSH3 0x461BCD PUSH1 0xE5 SHL DUP2 MSTORE PUSH1 0x4 ADD PUSH2 0x635 SWAP2 SWAP1 PUSH2 0x201A JUMP JUMPDEST POP DUP3 PUSH1 0x0 SUB PUSH2 0x1762 JUMPI POP PUSH1 0x0 PUSH2 0x67A JUMP JUMPDEST PUSH1 0x0 PUSH2 0x1776 PUSH8 0xDE0B6B3A7640000 DUP6 PUSH2 0x2648 JUMP JUMPDEST SWAP1 POP PUSH2 0x1782 DUP4 DUP3 PUSH2 0x2675 JUMP JUMPDEST SWAP2 POP POP PUSH2 0x67A JUMP JUMPDEST PUSH1 0x0 PUSH1 0x8 PUSH2 0x1796 PUSH2 0x754 JUMP JUMPDEST PUSH1 0xFF AND GT PUSH2 0x17A4 JUMPI POP PUSH1 0xA SWAP1 JUMP JUMPDEST POP PUSH2 0x3E8 SWAP1 JUMP JUMPDEST PUSH1 0x1 PUSH1 0x1 PUSH1 0xA0 SHL SUB DUP3 AND PUSH2 0x1801 JUMPI PUSH1 0x40 MLOAD PUSH3 0x461BCD PUSH1 0xE5 SHL DUP2 MSTORE PUSH1 0x20 PUSH1 0x4 DUP3 ADD MSTORE PUSH1 0x1F PUSH1 0x24 DUP3 ADD MSTORE PUSH32 0x45524332303A206D696E7420746F20746865207A65726F206164647265737300 PUSH1 0x44 DUP3 ADD MSTORE PUSH1 0x64 ADD PUSH2 0x635 JUMP JUMPDEST DUP1 PUSH1 0x36 PUSH1 0x0 DUP3 DUP3 SLOAD PUSH2 0x1813 SWAP2 SWAP1 PUSH2 0x245E JUMP JUMPDEST SWAP1 SWAP2 SSTORE POP POP PUSH1 0x1 PUSH1 0x1 PUSH1 0xA0 SHL SUB DUP3 AND PUSH1 0x0 DUP2 DUP2 MSTORE PUSH1 0x34 PUSH1 0x20 SWAP1 DUP2 MSTORE PUSH1 0x40 DUP1 DUP4 KECCAK256 DUP1 SLOAD DUP7 ADD SWAP1 SSTORE MLOAD DUP5 DUP2 MSTORE PUSH32 0xDDF252AD1BE2C89B69C2B068FC378DAA952BA7F163C4A11628F55A4DF523B3EF SWAP2 ADD PUSH1 0x40 MLOAD DUP1 SWAP2 SUB SWAP1 LOG3 POP POP JUMP JUMPDEST PUSH1 0x40 DUP1 MLOAD DUP1 DUP3 ADD SWAP1 SWAP2 MSTORE PUSH1 0x2 DUP2 MSTORE PUSH2 0x3331 PUSH1 0xF0 SHL PUSH1 0x20 DUP3 ADD MSTORE PUSH1 0x1 PUSH1 0x1 PUSH1 0xA0 SHL SUB DUP6 AND PUSH2 0x18AC JUMPI PUSH1 0x40 MLOAD PUSH3 0x461BCD PUSH1 0xE5 SHL DUP2 MSTORE PUSH1 0x4 ADD PUSH2 0x635 SWAP2 SWAP1 PUSH2 0x201A JUMP JUMPDEST POP PUSH2 0x131 DUP1 SLOAD PUSH1 0x1 PUSH1 0x1 PUSH1 0xA0 SHL SUB NOT AND PUSH1 0x1 PUSH1 0x1 PUSH1 0xA0 SHL SUB DUP7 AND OR SWAP1 SSTORE NUMBER PUSH2 0x132 SSTORE PUSH2 0x18D7 DUP4 PUSH2 0x18EA JUMP JUMPDEST PUSH2 0x18E1 DUP3 DUP3 PUSH2 0x1B2D JUMP JUMPDEST PUSH2 0x12A5 DUP3 PUSH2 0x1B60 JUMP JUMPDEST PUSH1 0x0 DUP1 SLOAD PUSH1 0x1 PUSH1 0x1 PUSH1 0xA0 SHL SUB NOT AND PUSH1 0x1 PUSH1 0x1 PUSH1 0xA0 SHL SUB DUP4 AND SWAP1 DUP2 OR DUP3 SSTORE PUSH1 0x40 DUP1 MLOAD SWAP3 DUP4 MSTORE PUSH1 0x20 DUP4 ADD SWAP2 SWAP1 SWAP2 MSTORE PUSH32 0xDE4B3F61490B74C0ED6237523974FE299126BBBF8A8A7482FD220104C59B0C84 SWAP2 ADD PUSH2 0x725 JUMP JUMPDEST PUSH1 0x1 PUSH1 0x1 PUSH1 0xA0 SHL SUB DUP2 AND PUSH1 0x0 SWAP1 DUP2 MSTORE PUSH1 0x9A PUSH1 0x20 MSTORE PUSH1 0x40 SWAP1 KECCAK256 DUP1 SLOAD PUSH1 0x1 DUP2 ADD DUP3 SSTORE SWAP1 JUMPDEST POP SWAP2 SWAP1 POP JUMP JUMPDEST PUSH1 0x0 PUSH2 0x67A PUSH2 0x1973 PUSH2 0x1456 JUMP JUMPDEST DUP4 PUSH1 0x40 MLOAD PUSH2 0x1901 PUSH1 0xF0 SHL PUSH1 0x20 DUP3 ADD MSTORE PUSH1 0x22 DUP2 ADD DUP4 SWAP1 MSTORE PUSH1 0x42 DUP2 ADD DUP3 SWAP1 MSTORE PUSH1 0x0 SWAP1 PUSH1 0x62 ADD PUSH1 0x40 MLOAD PUSH1 0x20 DUP2 DUP4 SUB SUB DUP2 MSTORE SWAP1 PUSH1 0x40 MSTORE DUP1 MLOAD SWAP1 PUSH1 0x20 ADD KECCAK256 SWAP1 POP SWAP3 SWAP2 POP POP JUMP JUMPDEST PUSH1 0x0 DUP1 PUSH1 0x0 PUSH2 0x19C5 DUP8 DUP8 DUP8 DUP8 PUSH2 0x1BAF JUMP JUMPDEST SWAP2 POP SWAP2 POP PUSH2 0x19D2 DUP2 PUSH2 0x1C73 JUMP JUMPDEST POP SWAP6 SWAP5 POP POP POP POP POP JUMP JUMPDEST PUSH1 0x40 DUP1 MLOAD DUP1 DUP3 ADD SWAP1 SWAP2 MSTORE PUSH1 0x2 DUP2 MSTORE PUSH2 0x3235 PUSH1 0xF0 SHL PUSH1 0x20 DUP3 ADD MSTORE PUSH1 0x0 SWAP1 DUP3 PUSH2 0x1A16 JUMPI PUSH1 0x40 MLOAD PUSH3 0x461BCD PUSH1 0xE5 SHL DUP2 MSTORE PUSH1 0x4 ADD PUSH2 0x635 SWAP2 SWAP1 PUSH2 0x201A JUMP JUMPDEST POP DUP3 PUSH1 0x0 SUB PUSH2 0x1A27 JUMPI POP PUSH1 0x0 PUSH2 0x67A JUMP JUMPDEST PUSH1 0x0 PUSH2 0x1A3B PUSH8 0xDE0B6B3A7640000 DUP6 PUSH2 0x2648 JUMP JUMPDEST SWAP1 POP DUP3 PUSH1 0x1 DUP3 SUB DUP2 PUSH2 0x1A4F JUMPI PUSH2 0x1A4F PUSH2 0x265F JUMP JUMPDEST DIV PUSH1 0x1 ADD SWAP2 POP POP PUSH2 0x67A JUMP JUMPDEST PUSH1 0x0 PUSH2 0x1AB0 DUP3 PUSH1 0x40 MLOAD DUP1 PUSH1 0x40 ADD PUSH1 0x40 MSTORE DUP1 PUSH1 0x20 DUP2 MSTORE PUSH1 0x20 ADD PUSH32 0x5361666545524332303A206C6F772D6C6576656C2063616C6C206661696C6564 DUP2 MSTORE POP DUP6 PUSH1 0x1 PUSH1 0x1 PUSH1 0xA0 SHL SUB AND PUSH2 0x1DBD SWAP1 SWAP3 SWAP2 SWAP1 PUSH4 0xFFFFFFFF AND JUMP JUMPDEST DUP1 MLOAD SWAP1 SWAP2 POP ISZERO PUSH2 0x1677 JUMPI DUP1 DUP1 PUSH1 0x20 ADD SWAP1 MLOAD DUP2 ADD SWAP1 PUSH2 0x1ACE SWAP2 SWAP1 PUSH2 0x2697 JUMP JUMPDEST PUSH2 0x1677 JUMPI PUSH1 0x40 MLOAD PUSH3 0x461BCD PUSH1 0xE5 SHL DUP2 MSTORE PUSH1 0x20 PUSH1 0x4 DUP3 ADD MSTORE PUSH1 0x2A PUSH1 0x24 DUP3 ADD MSTORE PUSH32 0x5361666545524332303A204552433230206F7065726174696F6E20646964206E PUSH1 0x44 DUP3 ADD MSTORE PUSH10 0x1BDD081CDD58D8D95959 PUSH1 0xB2 SHL PUSH1 0x64 DUP3 ADD MSTORE PUSH1 0x84 ADD PUSH2 0x635 JUMP JUMPDEST PUSH1 0x1 SLOAD PUSH1 0x1 PUSH1 0xA8 SHL SWAP1 DIV PUSH1 0xFF AND PUSH2 0x1B56 JUMPI PUSH1 0x40 MLOAD PUSH3 0x461BCD PUSH1 0xE5 SHL DUP2 MSTORE PUSH1 0x4 ADD PUSH2 0x635 SWAP1 PUSH2 0x26B9 JUMP JUMPDEST PUSH2 0xE08 DUP3 DUP3 PUSH2 0x1DCC JUMP JUMPDEST PUSH1 0x1 SLOAD PUSH1 0x1 PUSH1 0xA8 SHL SWAP1 DIV PUSH1 0xFF AND PUSH2 0x1B89 JUMPI PUSH1 0x40 MLOAD PUSH3 0x461BCD PUSH1 0xE5 SHL DUP2 MSTORE PUSH1 0x4 ADD PUSH2 0x635 SWAP1 PUSH2 0x26B9 JUMP JUMPDEST PUSH2 0x1BAC DUP2 PUSH1 0x40 MLOAD DUP1 PUSH1 0x40 ADD PUSH1 0x40 MSTORE DUP1 PUSH1 0x1 DUP2 MSTORE PUSH1 0x20 ADD PUSH1 0x31 PUSH1 0xF8 SHL DUP2 MSTORE POP PUSH2 0x1E0E JUMP JUMPDEST POP JUMP JUMPDEST PUSH1 0x0 DUP1 PUSH32 0x7FFFFFFFFFFFFFFFFFFFFFFFFFFFFFFF5D576E7357A4501DDFE92F46681B20A0 DUP4 GT ISZERO PUSH2 0x1BE6 JUMPI POP PUSH1 0x0 SWAP1 POP PUSH1 0x3 PUSH2 0x1C6A JUMP JUMPDEST PUSH1 0x40 DUP1 MLOAD PUSH1 0x0 DUP1 DUP3 MSTORE PUSH1 0x20 DUP3 ADD DUP1 DUP5 MSTORE DUP10 SWAP1 MSTORE PUSH1 0xFF DUP9 AND SWAP3 DUP3 ADD SWAP3 SWAP1 SWAP3 MSTORE PUSH1 0x60 DUP2 ADD DUP7 SWAP1 MSTORE PUSH1 0x80 DUP2 ADD DUP6 SWAP1 MSTORE PUSH1 0x1 SWAP1 PUSH1 0xA0 ADD PUSH1 0x20 PUSH1 0x40 MLOAD PUSH1 0x20 DUP2 SUB SWAP1 DUP1 DUP5 SUB SWAP1 DUP6 GAS STATICCALL ISZERO DUP1 ISZERO PUSH2 0x1C3A JUMPI RETURNDATASIZE PUSH1 0x0 DUP1 RETURNDATACOPY RETURNDATASIZE PUSH1 0x0 REVERT JUMPDEST POP POP PUSH1 0x40 MLOAD PUSH1 0x1F NOT ADD MLOAD SWAP2 POP POP PUSH1 0x1 PUSH1 0x1 PUSH1 0xA0 SHL SUB DUP2 AND PUSH2 0x1C63 JUMPI PUSH1 0x0 PUSH1 0x1 SWAP3 POP SWAP3 POP POP PUSH2 0x1C6A JUMP JUMPDEST SWAP2 POP PUSH1 0x0 SWAP1 POP JUMPDEST SWAP5 POP SWAP5 SWAP3 POP POP POP JUMP JUMPDEST PUSH1 0x0 DUP2 PUSH1 0x4 DUP2 GT ISZERO PUSH2 0x1C87 JUMPI PUSH2 0x1C87 PUSH2 0x211D JUMP JUMPDEST SUB PUSH2 0x1C8F JUMPI POP JUMP JUMPDEST PUSH1 0x1 DUP2 PUSH1 0x4 DUP2 GT ISZERO PUSH2 0x1CA3 JUMPI PUSH2 0x1CA3 PUSH2 0x211D JUMP JUMPDEST SUB PUSH2 0x1CF0 JUMPI PUSH1 0x40 MLOAD PUSH3 0x461BCD PUSH1 0xE5 SHL DUP2 MSTORE PUSH1 0x20 PUSH1 0x4 DUP3 ADD MSTORE PUSH1 0x18 PUSH1 0x24 DUP3 ADD MSTORE PUSH32 0x45434453413A20696E76616C6964207369676E61747572650000000000000000 PUSH1 0x44 DUP3 ADD MSTORE PUSH1 0x64 ADD PUSH2 0x635 JUMP JUMPDEST PUSH1 0x2 DUP2 PUSH1 0x4 DUP2 GT ISZERO PUSH2 0x1D04 JUMPI PUSH2 0x1D04 PUSH2 0x211D JUMP JUMPDEST SUB PUSH2 0x1D51 JUMPI PUSH1 0x40 MLOAD PUSH3 0x461BCD PUSH1 0xE5 SHL DUP2 MSTORE PUSH1 0x20 PUSH1 0x4 DUP3 ADD MSTORE PUSH1 0x1F PUSH1 0x24 DUP3 ADD MSTORE PUSH32 0x45434453413A20696E76616C6964207369676E6174757265206C656E67746800 PUSH1 0x44 DUP3 ADD MSTORE PUSH1 0x64 ADD PUSH2 0x635 JUMP JUMPDEST PUSH1 0x3 DUP2 PUSH1 0x4 DUP2 GT ISZERO PUSH2 0x1D65 JUMPI PUSH2 0x1D65 PUSH2 0x211D JUMP JUMPDEST SUB PUSH2 0x1BAC JUMPI PUSH1 0x40 MLOAD PUSH3 0x461BCD PUSH1 0xE5 SHL DUP2 MSTORE PUSH1 0x20 PUSH1 0x4 DUP3 ADD MSTORE PUSH1 0x22 PUSH1 0x24 DUP3 ADD MSTORE PUSH32 0x45434453413A20696E76616C6964207369676E6174757265202773272076616C PUSH1 0x44 DUP3 ADD MSTORE PUSH2 0x7565 PUSH1 0xF0 SHL PUSH1 0x64 DUP3 ADD MSTORE PUSH1 0x84 ADD PUSH2 0x635 JUMP JUMPDEST PUSH1 0x60 PUSH2 0x1522 DUP5 DUP5 PUSH1 0x0 DUP6 PUSH2 0x1E51 JUMP JUMPDEST PUSH1 0x1 SLOAD PUSH1 0x1 PUSH1 0xA8 SHL SWAP1 DIV PUSH1 0xFF AND PUSH2 0x1DF5 JUMPI PUSH1 0x40 MLOAD PUSH3 0x461BCD PUSH1 0xE5 SHL DUP2 MSTORE PUSH1 0x4 ADD PUSH2 0x635 SWAP1 PUSH2 0x26B9 JUMP JUMPDEST PUSH1 0x37 PUSH2 0x1E01 DUP4 DUP3 PUSH2 0x274A JUMP JUMPDEST POP PUSH1 0x38 PUSH2 0x1677 DUP3 DUP3 PUSH2 0x274A JUMP JUMPDEST PUSH1 0x1 SLOAD PUSH1 0x1 PUSH1 0xA8 SHL SWAP1 DIV PUSH1 0xFF AND PUSH2 0x1E37 JUMPI PUSH1 0x40 MLOAD PUSH3 0x461BCD PUSH1 0xE5 SHL DUP2 MSTORE PUSH1 0x4 ADD PUSH2 0x635 SWAP1 PUSH2 0x26B9 JUMP JUMPDEST DUP2 MLOAD PUSH1 0x20 SWAP3 DUP4 ADD KECCAK256 DUP2 MLOAD SWAP2 SWAP1 SWAP3 ADD KECCAK256 PUSH1 0x66 SWAP2 SWAP1 SWAP2 SSTORE PUSH1 0x67 SSTORE JUMP JUMPDEST PUSH1 0x60 DUP3 SELFBALANCE LT ISZERO PUSH2 0x1EB2 JUMPI PUSH1 0x40 MLOAD PUSH3 0x461BCD PUSH1 0xE5 SHL DUP2 MSTORE PUSH1 0x20 PUSH1 0x4 DUP3 ADD MSTORE PUSH1 0x26 PUSH1 0x24 DUP3 ADD MSTORE PUSH32 0x416464726573733A20696E73756666696369656E742062616C616E636520666F PUSH1 0x44 DUP3 ADD MSTORE PUSH6 0x1C8818D85B1B PUSH1 0xD2 SHL PUSH1 0x64 DUP3 ADD MSTORE PUSH1 0x84 ADD PUSH2 0x635 JUMP JUMPDEST PUSH1 0x0 DUP1 DUP7 PUSH1 0x1 PUSH1 0x1 PUSH1 0xA0 SHL SUB AND DUP6 DUP8 PUSH1 0x40 MLOAD PUSH2 0x1ECE SWAP2 SWAP1 PUSH2 0x280A JUMP JUMPDEST PUSH1 0x0 PUSH1 0x40 MLOAD DUP1 DUP4 SUB DUP2 DUP6 DUP8 GAS CALL SWAP3 POP POP POP RETURNDATASIZE DUP1 PUSH1 0x0 DUP2 EQ PUSH2 0x1F0B JUMPI PUSH1 0x40 MLOAD SWAP2 POP PUSH1 0x1F NOT PUSH1 0x3F RETURNDATASIZE ADD AND DUP3 ADD PUSH1 0x40 MSTORE RETURNDATASIZE DUP3 MSTORE RETURNDATASIZE PUSH1 0x0 PUSH1 0x20 DUP5 ADD RETURNDATACOPY PUSH2 0x1F10 JUMP JUMPDEST PUSH1 0x60 SWAP2 POP JUMPDEST POP SWAP2 POP SWAP2 POP PUSH2 0x1F21 DUP8 DUP4 DUP4 DUP8 PUSH2 0x1F2C JUMP JUMPDEST SWAP8 SWAP7 POP POP POP POP POP POP POP JUMP JUMPDEST PUSH1 0x60 DUP4 ISZERO PUSH2 0x1F9B JUMPI DUP3 MLOAD PUSH1 0x0 SUB PUSH2 0x1F94 JUMPI PUSH1 0x1 PUSH1 0x1 PUSH1 0xA0 SHL SUB DUP6 AND EXTCODESIZE PUSH2 0x1F94 JUMPI PUSH1 0x40 MLOAD PUSH3 0x461BCD PUSH1 0xE5 SHL DUP2 MSTORE PUSH1 0x20 PUSH1 0x4 DUP3 ADD MSTORE PUSH1 0x1D PUSH1 0x24 DUP3 ADD MSTORE PUSH32 0x416464726573733A2063616C6C20746F206E6F6E2D636F6E7472616374000000 PUSH1 0x44 DUP3 ADD MSTORE PUSH1 0x64 ADD PUSH2 0x635 JUMP JUMPDEST POP DUP2 PUSH2 0x1522 JUMP JUMPDEST PUSH2 0x1522 DUP4 DUP4 DUP2 MLOAD ISZERO PUSH2 0x1FB0 JUMPI DUP2 MLOAD DUP1 DUP4 PUSH1 0x20 ADD REVERT JUMPDEST DUP1 PUSH1 0x40 MLOAD PUSH3 0x461BCD PUSH1 0xE5 SHL DUP2 MSTORE PUSH1 0x4 ADD PUSH2 0x635 SWAP2 SWAP1 PUSH2 0x201A JUMP JUMPDEST PUSH1 0x0 JUMPDEST DUP4 DUP2 LT ISZERO PUSH2 0x1FE5 JUMPI DUP2 DUP2 ADD MLOAD DUP4 DUP3 ADD MSTORE PUSH1 0x20 ADD PUSH2 0x1FCD JUMP JUMPDEST POP POP PUSH1 0x0 SWAP2 ADD MSTORE JUMP JUMPDEST PUSH1 0x0 DUP2 MLOAD DUP1 DUP5 MSTORE PUSH2 0x2006 DUP2 PUSH1 0x20 DUP7 ADD PUSH1 0x20 DUP7 ADD PUSH2 0x1FCA JUMP JUMPDEST PUSH1 0x1F ADD PUSH1 0x1F NOT AND SWAP3 SWAP1 SWAP3 ADD PUSH1 0x20 ADD SWAP3 SWAP2 POP POP JUMP JUMPDEST PUSH1 0x20 DUP2 MSTORE PUSH1 0x0 PUSH2 0x1030 PUSH1 0x20 DUP4 ADD DUP5 PUSH2 0x1FEE JUMP JUMPDEST DUP1 CALLDATALOAD PUSH1 0x5 DUP2 LT PUSH2 0x203C JUMPI PUSH1 0x0 DUP1 REVERT JUMPDEST SWAP2 SWAP1 POP JUMP JUMPDEST PUSH1 0x0 PUSH1 0x20 DUP3 DUP5 SUB SLT ISZERO PUSH2 0x2053 JUMPI PUSH1 0x0 DUP1 REVERT JUMPDEST PUSH2 0x1030 DUP3 PUSH2 0x202D JUMP JUMPDEST PUSH1 0x1 PUSH1 0x1 PUSH1 0xA0 SHL SUB DUP2 AND DUP2 EQ PUSH2 0x1BAC JUMPI PUSH1 0x0 DUP1 REVERT JUMPDEST PUSH1 0x0 DUP1 PUSH1 0x40 DUP4 DUP6 SUB SLT ISZERO PUSH2 0x2084 JUMPI PUSH1 0x0 DUP1 REVERT JUMPDEST DUP3 CALLDATALOAD PUSH2 0x208F DUP2 PUSH2 0x205C JUMP JUMPDEST SWAP5 PUSH1 0x20 SWAP4 SWAP1 SWAP4 ADD CALLDATALOAD SWAP4 POP POP POP JUMP JUMPDEST PUSH1 0x0 DUP1 PUSH1 0x0 PUSH1 0x60 DUP5 DUP7 SUB SLT ISZERO PUSH2 0x20B2 JUMPI PUSH1 0x0 DUP1 REVERT JUMPDEST DUP4 CALLDATALOAD PUSH2 0x20BD DUP2 PUSH2 0x205C JUMP JUMPDEST SWAP3 POP PUSH1 0x20 DUP5 ADD CALLDATALOAD PUSH2 0x20CD DUP2 PUSH2 0x205C JUMP JUMPDEST SWAP3 SWAP6 SWAP3 SWAP5 POP POP POP PUSH1 0x40 SWAP2 SWAP1 SWAP2 ADD CALLDATALOAD SWAP1 JUMP JUMPDEST PUSH1 0x0 PUSH1 0x20 DUP3 DUP5 SUB SLT ISZERO PUSH2 0x20F0 JUMPI PUSH1 0x0 DUP1 REVERT JUMPDEST DUP2 CALLDATALOAD PUSH2 0x1030 DUP2 PUSH2 0x205C JUMP JUMPDEST PUSH1 0x0 DUP1 PUSH1 0x40 DUP4 DUP6 SUB SLT ISZERO PUSH2 0x210E JUMPI PUSH1 0x0 DUP1 REVERT JUMPDEST POP POP DUP1 CALLDATALOAD SWAP3 PUSH1 0x20 SWAP1 SWAP2 ADD CALLDATALOAD SWAP2 POP JUMP JUMPDEST PUSH4 0x4E487B71 PUSH1 0xE0 SHL PUSH1 0x0 MSTORE PUSH1 0x21 PUSH1 0x4 MSTORE PUSH1 0x24 PUSH1 0x0 REVERT JUMPDEST PUSH1 0x20 DUP2 ADD PUSH1 0x5 DUP4 LT PUSH2 0x2155 JUMPI PUSH4 0x4E487B71 PUSH1 0xE0 SHL PUSH1 0x0 MSTORE PUSH1 0x21 PUSH1 0x4 MSTORE PUSH1 0x24 PUSH1 0x0 REVERT JUMPDEST SWAP2 SWAP1 MSTORE SWAP1 JUMP JUMPDEST PUSH1 0x0 DUP1 PUSH1 0x0 PUSH1 0x60 DUP5 DUP7 SUB SLT ISZERO PUSH2 0x2170 JUMPI PUSH1 0x0 DUP1 REVERT JUMPDEST DUP4 CALLDATALOAD PUSH2 0x217B DUP2 PUSH2 0x205C JUMP JUMPDEST SWAP6 PUSH1 0x20 DUP6 ADD CALLDATALOAD SWAP6 POP PUSH1 0x40 SWAP1 SWAP5 ADD CALLDATALOAD SWAP4 SWAP3 POP POP POP JUMP JUMPDEST DUP3 DUP2 MSTORE PUSH1 0x40 PUSH1 0x20 DUP3 ADD MSTORE PUSH1 0x0 PUSH2 0x1522 PUSH1 0x40 DUP4 ADD DUP5 PUSH2 0x1FEE JUMP JUMPDEST PUSH1 0x20 DUP1 DUP3 MSTORE DUP3 MLOAD DUP3 DUP3 ADD DUP2 SWAP1 MSTORE PUSH1 0x0 SWAP2 SWAP1 DUP5 DUP3 ADD SWAP1 PUSH1 0x40 DUP6 ADD SWAP1 DUP5 JUMPDEST DUP2 DUP2 LT ISZERO PUSH2 0x21EA JUMPI DUP4 MLOAD PUSH1 0x1 PUSH1 0x1 PUSH1 0xA0 SHL SUB AND DUP4 MSTORE SWAP3 DUP5 ADD SWAP3 SWAP2 DUP5 ADD SWAP2 PUSH1 0x1 ADD PUSH2 0x21C5 JUMP JUMPDEST POP SWAP1 SWAP7 SWAP6 POP POP POP POP POP POP JUMP JUMPDEST PUSH4 0x4E487B71 PUSH1 0xE0 SHL PUSH1 0x0 MSTORE PUSH1 0x41 PUSH1 0x4 MSTORE PUSH1 0x24 PUSH1 0x0 REVERT JUMPDEST PUSH1 0x40 MLOAD PUSH1 0x1F DUP3 ADD PUSH1 0x1F NOT AND DUP2 ADD PUSH8 0xFFFFFFFFFFFFFFFF DUP2 GT DUP3 DUP3 LT OR ISZERO PUSH2 0x2235 JUMPI PUSH2 0x2235 PUSH2 0x21F6 JUMP JUMPDEST PUSH1 0x40 MSTORE SWAP2 SWAP1 POP JUMP JUMPDEST PUSH1 0x0 DUP3 PUSH1 0x1F DUP4 ADD SLT PUSH2 0x224E JUMPI PUSH1 0x0 DUP1 REVERT JUMPDEST DUP2 CALLDATALOAD PUSH8 0xFFFFFFFFFFFFFFFF DUP2 GT ISZERO PUSH2 0x2268 JUMPI PUSH2 0x2268 PUSH2 0x21F6 JUMP JUMPDEST PUSH2 0x227B PUSH1 0x1F DUP3 ADD PUSH1 0x1F NOT AND PUSH1 0x20 ADD PUSH2 0x220C JUMP JUMPDEST DUP2 DUP2 MSTORE DUP5 PUSH1 0x20 DUP4 DUP7 ADD ADD GT ISZERO PUSH2 0x2290 JUMPI PUSH1 0x0 DUP1 REVERT JUMPDEST DUP2 PUSH1 0x20 DUP6 ADD PUSH1 0x20 DUP4 ADD CALLDATACOPY PUSH1 0x0 SWAP2 DUP2 ADD PUSH1 0x20 ADD SWAP2 SWAP1 SWAP2 MSTORE SWAP4 SWAP3 POP POP POP JUMP JUMPDEST PUSH1 0x0 DUP1 PUSH1 0x0 DUP1 PUSH1 0x0 PUSH1 0xA0 DUP7 DUP9 SUB SLT ISZERO PUSH2 0x22C5 JUMPI PUSH1 0x0 DUP1 REVERT JUMPDEST DUP6 CALLDATALOAD SWAP5 POP PUSH1 0x20 DUP7 ADD CALLDATALOAD PUSH2 0x22D7 DUP2 PUSH2 0x205C JUMP JUMPDEST SWAP4 POP PUSH1 0x40 DUP7 ADD CALLDATALOAD PUSH8 0xFFFFFFFFFFFFFFFF DUP1 DUP3 GT ISZERO PUSH2 0x22F4 JUMPI PUSH1 0x0 DUP1 REVERT JUMPDEST PUSH2 0x2300 DUP10 DUP4 DUP11 ADD PUSH2 0x223D JUMP JUMPDEST SWAP5 POP PUSH1 0x60 DUP9 ADD CALLDATALOAD SWAP2 POP DUP1 DUP3 GT ISZERO PUSH2 0x2316 JUMPI PUSH1 0x0 DUP1 REVERT JUMPDEST POP PUSH2 0x2323 DUP9 DUP3 DUP10 ADD PUSH2 0x223D JUMP JUMPDEST SWAP3 POP POP PUSH2 0x2332 PUSH1 0x80 DUP8 ADD PUSH2 0x202D JUMP JUMPDEST SWAP1 POP SWAP3 SWAP6 POP SWAP3 SWAP6 SWAP1 SWAP4 POP JUMP JUMPDEST PUSH1 0xFF DUP2 AND DUP2 EQ PUSH2 0x1BAC JUMPI PUSH1 0x0 DUP1 REVERT JUMPDEST PUSH1 0x0 DUP1 PUSH1 0x0 DUP1 PUSH1 0x0 DUP1 PUSH1 0x0 PUSH1 0xE0 DUP9 DUP11 SUB SLT ISZERO PUSH2 0x2368 JUMPI PUSH1 0x0 DUP1 REVERT JUMPDEST DUP8 CALLDATALOAD PUSH2 0x2373 DUP2 PUSH2 0x205C JUMP JUMPDEST SWAP7 POP PUSH1 0x20 DUP9 ADD CALLDATALOAD PUSH2 0x2383 DUP2 PUSH2 0x205C JUMP JUMPDEST SWAP6 POP PUSH1 0x40 DUP9 ADD CALLDATALOAD SWAP5 POP PUSH1 0x60 DUP9 ADD CALLDATALOAD SWAP4 POP PUSH1 0x80 DUP9 ADD CALLDATALOAD PUSH2 0x23A1 DUP2 PUSH2 0x233E JUMP JUMPDEST SWAP7 SWAP10 SWAP6 SWAP9 POP SWAP4 SWAP7 SWAP3 SWAP6 SWAP5 PUSH1 0xA0 DUP5 ADD CALLDATALOAD SWAP5 POP PUSH1 0xC0 SWAP1 SWAP4 ADD CALLDATALOAD SWAP3 SWAP2 POP POP JUMP JUMPDEST PUSH1 0x0 DUP1 PUSH1 0x40 DUP4 DUP6 SUB SLT ISZERO PUSH2 0x23D1 JUMPI PUSH1 0x0 DUP1 REVERT JUMPDEST DUP3 CALLDATALOAD PUSH2 0x23DC DUP2 PUSH2 0x205C JUMP JUMPDEST SWAP2 POP PUSH1 0x20 DUP4 ADD CALLDATALOAD PUSH2 0x23EC DUP2 PUSH2 0x205C JUMP JUMPDEST DUP1 SWAP2 POP POP SWAP3 POP SWAP3 SWAP1 POP JUMP JUMPDEST PUSH1 0x1 DUP2 DUP2 SHR SWAP1 DUP3 AND DUP1 PUSH2 0x240B JUMPI PUSH1 0x7F DUP3 AND SWAP2 POP JUMPDEST PUSH1 0x20 DUP3 LT DUP2 SUB PUSH2 0x1960 JUMPI PUSH4 0x4E487B71 PUSH1 0xE0 SHL PUSH1 0x0 MSTORE PUSH1 0x22 PUSH1 0x4 MSTORE PUSH1 0x24 PUSH1 0x0 REVERT JUMPDEST PUSH1 0x0 PUSH1 0x20 DUP3 DUP5 SUB SLT ISZERO PUSH2 0x243D JUMPI PUSH1 0x0 DUP1 REVERT JUMPDEST DUP2 MLOAD PUSH2 0x1030 DUP2 PUSH2 0x233E JUMP JUMPDEST PUSH4 0x4E487B71 PUSH1 0xE0 SHL PUSH1 0x0 MSTORE PUSH1 0x11 PUSH1 0x4 MSTORE PUSH1 0x24 PUSH1 0x0 REVERT JUMPDEST DUP1 DUP3 ADD DUP1 DUP3 GT ISZERO PUSH2 0x67A JUMPI PUSH2 0x67A PUSH2 0x2448 JUMP JUMPDEST DUP2 DUP2 SUB DUP2 DUP2 GT ISZERO PUSH2 0x67A JUMPI PUSH2 0x67A PUSH2 0x2448 JUMP JUMPDEST PUSH1 0x0 PUSH8 0xFFFFFFFFFFFFFFFF DUP3 GT ISZERO PUSH2 0x249E JUMPI PUSH2 0x249E PUSH2 0x21F6 JUMP JUMPDEST POP PUSH1 0x5 SHL PUSH1 0x20 ADD SWAP1 JUMP JUMPDEST PUSH1 0x0 DUP3 PUSH1 0x1F DUP4 ADD SLT PUSH2 0x24B9 JUMPI PUSH1 0x0 DUP1 REVERT JUMPDEST DUP2 MLOAD PUSH1 0x20 PUSH2 0x24CE PUSH2 0x24C9 DUP4 PUSH2 0x2484 JUMP JUMPDEST PUSH2 0x220C JUMP JUMPDEST DUP3 DUP2 MSTORE PUSH1 0x5 SWAP3 SWAP1 SWAP3 SHL DUP5 ADD DUP2 ADD SWAP2 DUP2 DUP2 ADD SWAP1 DUP7 DUP5 GT ISZERO PUSH2 0x24ED JUMPI PUSH1 0x0 DUP1 REVERT JUMPDEST DUP3 DUP7 ADD JUMPDEST DUP5 DUP2 LT ISZERO PUSH2 0x2508 JUMPI DUP1 MLOAD DUP4 MSTORE SWAP2 DUP4 ADD SWAP2 DUP4 ADD PUSH2 0x24F1 JUMP JUMPDEST POP SWAP7 SWAP6 POP POP POP POP POP POP JUMP JUMPDEST PUSH1 0x0 DUP1 PUSH1 0x0 PUSH1 0x60 DUP5 DUP7 SUB SLT ISZERO PUSH2 0x2528 JUMPI PUSH1 0x0 DUP1 REVERT JUMPDEST DUP4 MLOAD PUSH8 0xFFFFFFFFFFFFFFFF DUP1 DUP3 GT ISZERO PUSH2 0x2540 JUMPI PUSH1 0x0 DUP1 REVERT JUMPDEST DUP2 DUP7 ADD SWAP2 POP DUP7 PUSH1 0x1F DUP4 ADD SLT PUSH2 0x2554 JUMPI PUSH1 0x0 DUP1 REVERT JUMPDEST DUP2 MLOAD PUSH1 0x20 PUSH2 0x2564 PUSH2 0x24C9 DUP4 PUSH2 0x2484 JUMP JUMPDEST DUP3 DUP2 MSTORE PUSH1 0x5 SWAP3 SWAP1 SWAP3 SHL DUP5 ADD DUP2 ADD SWAP2 DUP2 DUP2 ADD SWAP1 DUP11 DUP5 GT ISZERO PUSH2 0x2583 JUMPI PUSH1 0x0 DUP1 REVERT JUMPDEST SWAP5 DUP3 ADD SWAP5 JUMPDEST DUP4 DUP7 LT ISZERO PUSH2 0x25AA JUMPI DUP6 MLOAD PUSH2 0x259B DUP2 PUSH2 0x205C JUMP JUMPDEST DUP3 MSTORE SWAP5 DUP3 ADD SWAP5 SWAP1 DUP3 ADD SWAP1 PUSH2 0x2588 JUMP JUMPDEST SWAP2 DUP10 ADD MLOAD SWAP2 SWAP8 POP SWAP1 SWAP4 POP POP POP DUP1 DUP3 GT ISZERO PUSH2 0x25C3 JUMPI PUSH1 0x0 DUP1 REVERT JUMPDEST POP PUSH2 0x25D0 DUP7 DUP3 DUP8 ADD PUSH2 0x24A8 JUMP JUMPDEST SWAP3 POP POP PUSH1 0x40 DUP5 ADD MLOAD SWAP1 POP SWAP3 POP SWAP3 POP SWAP3 JUMP JUMPDEST PUSH1 0x20 DUP1 DUP3 MSTORE PUSH1 0x2E SWAP1 DUP3 ADD MSTORE PUSH32 0x496E697469616C697A61626C653A20636F6E747261637420697320616C726561 PUSH1 0x40 DUP3 ADD MSTORE PUSH14 0x191E481A5B9A5D1A585B1A5E9959 PUSH1 0x92 SHL PUSH1 0x60 DUP3 ADD MSTORE PUSH1 0x80 ADD SWAP1 JUMP JUMPDEST PUSH1 0x0 PUSH1 0x20 DUP3 DUP5 SUB SLT ISZERO PUSH2 0x2641 JUMPI PUSH1 0x0 DUP1 REVERT JUMPDEST POP MLOAD SWAP2 SWAP1 POP JUMP JUMPDEST DUP1 DUP3 MUL DUP2 ISZERO DUP3 DUP3 DIV DUP5 EQ OR PUSH2 0x67A JUMPI PUSH2 0x67A PUSH2 0x2448 JUMP JUMPDEST PUSH4 0x4E487B71 PUSH1 0xE0 SHL PUSH1 0x0 MSTORE PUSH1 0x12 PUSH1 0x4 MSTORE PUSH1 0x24 PUSH1 0x0 REVERT JUMPDEST PUSH1 0x0 DUP3 PUSH2 0x2692 JUMPI PUSH4 0x4E487B71 PUSH1 0xE0 SHL PUSH1 0x0 MSTORE PUSH1 0x12 PUSH1 0x4 MSTORE PUSH1 0x24 PUSH1 0x0 REVERT JUMPDEST POP DIV SWAP1 JUMP JUMPDEST PUSH1 0x0 PUSH1 0x20 DUP3 DUP5 SUB SLT ISZERO PUSH2 0x26A9 JUMPI PUSH1 0x0 DUP1 REVERT JUMPDEST DUP2 MLOAD DUP1 ISZERO ISZERO DUP2 EQ PUSH2 0x1030 JUMPI PUSH1 0x0 DUP1 REVERT JUMPDEST PUSH1 0x20 DUP1 DUP3 MSTORE PUSH1 0x2B SWAP1 DUP3 ADD MSTORE PUSH32 0x496E697469616C697A61626C653A20636F6E7472616374206973206E6F742069 PUSH1 0x40 DUP3 ADD MSTORE PUSH11 0x6E697469616C697A696E67 PUSH1 0xA8 SHL PUSH1 0x60 DUP3 ADD MSTORE PUSH1 0x80 ADD SWAP1 JUMP JUMPDEST PUSH1 0x1F DUP3 GT ISZERO PUSH2 0x1677 JUMPI PUSH1 0x0 DUP2 DUP2 MSTORE PUSH1 0x20 DUP2 KECCAK256 PUSH1 0x1F DUP6 ADD PUSH1 0x5 SHR DUP2 ADD PUSH1 0x20 DUP7 LT ISZERO PUSH2 0x272B JUMPI POP DUP1 JUMPDEST PUSH1 0x1F DUP6 ADD PUSH1 0x5 SHR DUP3 ADD SWAP2 POP JUMPDEST DUP2 DUP2 LT ISZERO PUSH2 0xD21 JUMPI DUP3 DUP2 SSTORE PUSH1 0x1 ADD PUSH2 0x2737 JUMP JUMPDEST DUP2 MLOAD PUSH8 0xFFFFFFFFFFFFFFFF DUP2 GT ISZERO PUSH2 0x2764 JUMPI PUSH2 0x2764 PUSH2 0x21F6 JUMP JUMPDEST PUSH2 0x2778 DUP2 PUSH2 0x2772 DUP5 SLOAD PUSH2 0x23F7 JUMP JUMPDEST DUP5 PUSH2 0x2704 JUMP JUMPDEST PUSH1 0x20 DUP1 PUSH1 0x1F DUP4 GT PUSH1 0x1 DUP2 EQ PUSH2 0x27AD JUMPI PUSH1 0x0 DUP5 ISZERO PUSH2 0x2795 JUMPI POP DUP6 DUP4 ADD MLOAD JUMPDEST PUSH1 0x0 NOT PUSH1 0x3 DUP7 SWAP1 SHL SHR NOT AND PUSH1 0x1 DUP6 SWAP1 SHL OR DUP6 SSTORE PUSH2 0xD21 JUMP JUMPDEST PUSH1 0x0 DUP6 DUP2 MSTORE PUSH1 0x20 DUP2 KECCAK256 PUSH1 0x1F NOT DUP7 AND SWAP2 JUMPDEST DUP3 DUP2 LT ISZERO PUSH2 0x27DC JUMPI DUP9 DUP7 ADD MLOAD DUP3 SSTORE SWAP5 DUP5 ADD SWAP5 PUSH1 0x1 SWAP1 SWAP2 ADD SWAP1 DUP5 ADD PUSH2 0x27BD JUMP JUMPDEST POP DUP6 DUP3 LT ISZERO PUSH2 0x27FA JUMPI DUP8 DUP6 ADD MLOAD PUSH1 0x0 NOT PUSH1 0x3 DUP9 SWAP1 SHL PUSH1 0xF8 AND SHR NOT AND DUP2 SSTORE JUMPDEST POP POP POP POP POP PUSH1 0x1 SWAP1 DUP2 SHL ADD SWAP1 SSTORE POP JUMP JUMPDEST PUSH1 0x0 DUP3 MLOAD PUSH2 0x281C DUP2 DUP5 PUSH1 0x20 DUP8 ADD PUSH2 0x1FCA JUMP JUMPDEST SWAP2 SWAP1 SWAP2 ADD SWAP3 SWAP2 POP POP JUMP INVALID LOG2 PUSH5 0x6970667358 0x22 SLT KECCAK256 0xDC 0xBB SWAP16 0x4C DUP2 PUSH14 0x492B606CC8A92C9E856056CBBB97 ADDMOD BLOCKHASH PUSH26 0x72602E00C93525232A64736F6C63430008110033000000000000 ","sha1":"892c938aeaa4ede0e1ac9571835956dc7bc7318f","source":"// SPDX-License-Identifier: LicenseRef-Gyro-1.0\n// for information on licensing please see the README in the GitHub repository <https://github.com/gyrostable/core-protocol>.\npragma solidity ^0.8.4;\n\nimport \"../../interfaces/balancer/IVault.sol\";\n\nimport \"./BaseVault.sol\";\n\ncontract BalancerPoolVault is BaseVault {\n    IVault public immutable balancerVault;\n\n    /// @notice Balancer pool ID\n    bytes32 public poolId;\n\n    /// @inheritdoc IGyroVault\n    Vaults.Type public override vaultType;\n\n    constructor(address _gyroConfig, IVault _balancerVault) BaseVault(_gyroConfig) {\n        balancerVault = _balancerVault;\n    }\n\n    function initialize(\n        bytes32 _poolId,\n        address governor,\n        string memory name,\n        string memory symbol,\n        Vaults.Type _vaultType\n    ) external virtual initializer {\n        __BaseVault_initialize(_getPoolAddress(_poolId), governor, name, symbol);\n        poolId = _poolId;\n        vaultType = _vaultType;\n    }\n\n    /// @dev this is a temporary function to allow for the migration\n    /// to a single logic contract for all the proxies\n    function reinitialize(Vaults.Type _vaultType) external {\n        require(vaultType == Vaults.Type.GENERIC, \"Vault: already initialized\");\n        vaultType = _vaultType;\n    }\n\n    /// @inheritdoc IGyroVault\n    function getTokens() external view override returns (IERC20[] memory) {\n        (IERC20[] memory tokens, , ) = balancerVault.getPoolTokens(poolId);\n        return tokens;\n    }\n\n    function _getPoolAddress(bytes32 _poolId) internal pure returns (address) {\n        // 12 byte logical shift left to remove the nonce and specialization setting. We don't need to mask,\n        // since the logical shift already sets the upper bits to zero.\n        return address(uint160(uint256(_poolId) >> (12 * 8)));\n    }\n}\n","sourcePath":"contracts/vaults/BalancerPoolVault.sol","deployment":{"address":"0xb0753a3a53e96eb3053C3cd62A6D14D527246F6c","chainid":"1","blockHeight":18685077}}