{"abi":[{"inputs":[{"internalType":"contract IGyroConfig","name":"_gyroConfig","type":"address"}],"stateMutability":"nonpayable","type":"constructor","name":"constructor"},{"anonymous":false,"inputs":[{"indexed":false,"internalType":"address","name":"newGovernor","type":"address"}],"name":"GovernorChangeRequested","type":"event"},{"anonymous":false,"inputs":[{"indexed":false,"internalType":"address","name":"oldGovernor","type":"address"},{"indexed":false,"internalType":"address","name":"newGovernor","type":"address"}],"name":"GovernorChanged","type":"event"},{"anonymous":false,"inputs":[{"indexed":false,"internalType":"uint8","name":"version","type":"uint8"}],"name":"Initialized","type":"event"},{"anonymous":false,"inputs":[{"indexed":true,"internalType":"address","name":"minter","type":"address"},{"indexed":false,"internalType":"uint256","name":"mintedGYDAmount","type":"uint256"},{"indexed":false,"internalType":"uint256","name":"usdValue","type":"uint256"},{"components":[{"components":[{"components":[{"internalType":"address","name":"vault","type":"address"},{"internalType":"uint8","name":"decimals","type":"uint8"},{"internalType":"address","name":"underlying","type":"address"},{"internalType":"uint256","name":"price","type":"uint256"},{"components":[{"internalType":"uint256","name":"priceAtCalibration","type":"uint256"},{"internalType":"uint256","name":"weightAtCalibration","type":"uint256"},{"internalType":"uint256","name":"shortFlowMemory","type":"uint256"},{"internalType":"uint256","name":"shortFlowThreshold","type":"uint256"},{"internalType":"uint64","name":"weightTransitionDuration","type":"uint64"},{"internalType":"uint64","name":"weightAtPreviousCalibration","type":"uint64"},{"internalType":"uint64","name":"timeOfCalibration","type":"uint64"}],"internalType":"struct DataTypes.PersistedVaultMetadata","name":"persistedMetadata","type":"tuple"},{"internalType":"uint256","name":"reserveBalance","type":"uint256"},{"internalType":"uint256","name":"currentWeight","type":"uint256"},{"internalType":"uint256","name":"targetWeight","type":"uint256"},{"components":[{"internalType":"address","name":"tokenAddress","type":"address"},{"internalType":"bool","name":"isStable","type":"bool"},{"internalType":"uint256","name":"price","type":"uint256"},{"components":[{"internalType":"uint256","name":"floor","type":"uint256"},{"internalType":"uint256","name":"ceiling","type":"uint256"}],"internalType":"struct DataTypes.Range","name":"priceRange","type":"tuple"}],"internalType":"struct DataTypes.PricedToken[]","name":"pricedTokens","type":"tuple[]"}],"internalType":"struct DataTypes.VaultInfo","name":"vaultInfo","type":"tuple"},{"internalType":"uint256","name":"amount","type":"uint256"}],"internalType":"struct DataTypes.VaultWithAmount[]","name":"vaultsWithAmount","type":"tuple[]"},{"internalType":"bool","name":"mint","type":"bool"}],"indexed":false,"internalType":"struct DataTypes.Order","name":"orderBeforeFees","type":"tuple"},{"components":[{"components":[{"components":[{"internalType":"address","name":"vault","type":"address"},{"internalType":"uint8","name":"decimals","type":"uint8"},{"internalType":"address","name":"underlying","type":"address"},{"internalType":"uint256","name":"price","type":"uint256"},{"components":[{"internalType":"uint256","name":"priceAtCalibration","type":"uint256"},{"internalType":"uint256","name":"weightAtCalibration","type":"uint256"},{"internalType":"uint256","name":"shortFlowMemory","type":"uint256"},{"internalType":"uint256","name":"shortFlowThreshold","type":"uint256"},{"internalType":"uint64","name":"weightTransitionDuration","type":"uint64"},{"internalType":"uint64","name":"weightAtPreviousCalibration","type":"uint64"},{"internalType":"uint64","name":"timeOfCalibration","type":"uint64"}],"internalType":"struct DataTypes.PersistedVaultMetadata","name":"persistedMetadata","type":"tuple"},{"internalType":"uint256","name":"reserveBalance","type":"uint256"},{"internalType":"uint256","name":"currentWeight","type":"uint256"},{"internalType":"uint256","name":"targetWeight","type":"uint256"},{"components":[{"internalType":"address","name":"tokenAddress","type":"address"},{"internalType":"bool","name":"isStable","type":"bool"},{"internalType":"uint256","name":"price","type":"uint256"},{"components":[{"internalType":"uint256","name":"floor","type":"uint256"},{"internalType":"uint256","name":"ceiling","type":"uint256"}],"internalType":"struct DataTypes.Range","name":"priceRange","type":"tuple"}],"internalType":"struct DataTypes.PricedToken[]","name":"pricedTokens","type":"tuple[]"}],"internalType":"struct DataTypes.VaultInfo","name":"vaultInfo","type":"tuple"},{"internalType":"uint256","name":"amount","type":"uint256"}],"internalType":"struct DataTypes.VaultWithAmount[]","name":"vaultsWithAmount","type":"tuple[]"},{"internalType":"bool","name":"mint","type":"bool"}],"indexed":false,"internalType":"struct DataTypes.Order","name":"orderAfterFees","type":"tuple"}],"name":"Mint","type":"event"},{"anonymous":false,"inputs":[{"indexed":true,"internalType":"address","name":"redeemer","type":"address"},{"indexed":false,"internalType":"uint256","name":"gydToRedeem","type":"uint256"},{"indexed":false,"internalType":"uint256","name":"usdValueToRedeem","type":"uint256"},{"components":[{"components":[{"components":[{"internalType":"address","name":"vault","type":"address"},{"internalType":"uint8","name":"decimals","type":"uint8"},{"internalType":"address","name":"underlying","type":"address"},{"internalType":"uint256","name":"price","type":"uint256"},{"components":[{"internalType":"uint256","name":"priceAtCalibration","type":"uint256"},{"internalType":"uint256","name":"weightAtCalibration","type":"uint256"},{"internalType":"uint256","name":"shortFlowMemory","type":"uint256"},{"internalType":"uint256","name":"shortFlowThreshold","type":"uint256"},{"internalType":"uint64","name":"weightTransitionDuration","type":"uint64"},{"internalType":"uint64","name":"weightAtPreviousCalibration","type":"uint64"},{"internalType":"uint64","name":"timeOfCalibration","type":"uint64"}],"internalType":"struct DataTypes.PersistedVaultMetadata","name":"persistedMetadata","type":"tuple"},{"internalType":"uint256","name":"reserveBalance","type":"uint256"},{"internalType":"uint256","name":"currentWeight","type":"uint256"},{"internalType":"uint256","name":"targetWeight","type":"uint256"},{"components":[{"internalType":"address","name":"tokenAddress","type":"address"},{"internalType":"bool","name":"isStable","type":"bool"},{"internalType":"uint256","name":"price","type":"uint256"},{"components":[{"internalType":"uint256","name":"floor","type":"uint256"},{"internalType":"uint256","name":"ceiling","type":"uint256"}],"internalType":"struct DataTypes.Range","name":"priceRange","type":"tuple"}],"internalType":"struct DataTypes.PricedToken[]","name":"pricedTokens","type":"tuple[]"}],"internalType":"struct DataTypes.VaultInfo","name":"vaultInfo","type":"tuple"},{"internalType":"uint256","name":"amount","type":"uint256"}],"internalType":"struct DataTypes.VaultWithAmount[]","name":"vaultsWithAmount","type":"tuple[]"},{"internalType":"bool","name":"mint","type":"bool"}],"indexed":false,"internalType":"struct DataTypes.Order","name":"orderBeforeFees","type":"tuple"},{"components":[{"components":[{"components":[{"internalType":"address","name":"vault","type":"address"},{"internalType":"uint8","name":"decimals","type":"uint8"},{"internalType":"address","name":"underlying","type":"address"},{"internalType":"uint256","name":"price","type":"uint256"},{"components":[{"internalType":"uint256","name":"priceAtCalibration","type":"uint256"},{"internalType":"uint256","name":"weightAtCalibration","type":"uint256"},{"internalType":"uint256","name":"shortFlowMemory","type":"uint256"},{"internalType":"uint256","name":"shortFlowThreshold","type":"uint256"},{"internalType":"uint64","name":"weightTransitionDuration","type":"uint64"},{"internalType":"uint64","name":"weightAtPreviousCalibration","type":"uint64"},{"internalType":"uint64","name":"timeOfCalibration","type":"uint64"}],"internalType":"struct DataTypes.PersistedVaultMetadata","name":"persistedMetadata","type":"tuple"},{"internalType":"uint256","name":"reserveBalance","type":"uint256"},{"internalType":"uint256","name":"currentWeight","type":"uint256"},{"internalType":"uint256","name":"targetWeight","type":"uint256"},{"components":[{"internalType":"address","name":"tokenAddress","type":"address"},{"internalType":"bool","name":"isStable","type":"bool"},{"internalType":"uint256","name":"price","type":"uint256"},{"components":[{"internalType":"uint256","name":"floor","type":"uint256"},{"internalType":"uint256","name":"ceiling","type":"uint256"}],"internalType":"struct DataTypes.Range","name":"priceRange","type":"tuple"}],"internalType":"struct DataTypes.PricedToken[]","name":"pricedTokens","type":"tuple[]"}],"internalType":"struct DataTypes.VaultInfo","name":"vaultInfo","type":"tuple"},{"internalType":"uint256","name":"amount","type":"uint256"}],"internalType":"struct DataTypes.VaultWithAmount[]","name":"vaultsWithAmount","type":"tuple[]"},{"internalType":"bool","name":"mint","type":"bool"}],"indexed":false,"internalType":"struct DataTypes.Order","name":"orderAfterFees","type":"tuple"}],"name":"Redeem","type":"event"},{"inputs":[],"name":"acceptGovernance","outputs":[],"stateMutability":"nonpayable","type":"function"},{"inputs":[],"name":"bootstrappingSupply","outputs":[{"internalType":"uint256","name":"","type":"uint256"}],"stateMutability":"view","type":"function"},{"inputs":[{"internalType":"address","name":"newGovernor","type":"address"}],"name":"changeGovernor","outputs":[],"stateMutability":"nonpayable","type":"function"},{"inputs":[{"components":[{"internalType":"address","name":"inputToken","type":"address"},{"internalType":"uint256","name":"inputAmount","type":"uint256"},{"internalType":"address","name":"destinationVault","type":"address"}],"internalType":"struct DataTypes.MintAsset[]","name":"assets","type":"tuple[]"},{"internalType":"uint256","name":"minReceivedAmount","type":"uint256"}],"name":"dryMint","outputs":[{"internalType":"uint256","name":"mintedGYDAmount","type":"uint256"},{"internalType":"string","name":"err","type":"string"}],"stateMutability":"view","type":"function"},{"inputs":[{"internalType":"uint256","name":"gydToRedeem","type":"uint256"},{"components":[{"internalType":"address","name":"outputToken","type":"address"},{"internalType":"uint256","name":"minOutputAmount","type":"uint256"},{"internalType":"uint256","name":"valueRatio","type":"uint256"},{"internalType":"address","name":"originVault","type":"address"}],"internalType":"struct DataTypes.RedeemAsset[]","name":"assets","type":"tuple[]"}],"name":"dryRedeem","outputs":[{"internalType":"uint256[]","name":"outputAmounts","type":"uint256[]"},{"internalType":"string","name":"err","type":"string"}],"stateMutability":"view","type":"function"},{"inputs":[],"name":"externalActionExecutor","outputs":[{"internalType":"contract IExternalActionExecutor","name":"","type":"address"}],"stateMutability":"view","type":"function"},{"inputs":[],"name":"governor","outputs":[{"internalType":"address","name":"","type":"address"}],"stateMutability":"view","type":"function"},{"inputs":[],"name":"gydToken","outputs":[{"internalType":"contract IGYDToken","name":"","type":"address"}],"stateMutability":"view","type":"function"},{"inputs":[],"name":"gyroConfig","outputs":[{"internalType":"contract IGyroConfig","name":"","type":"address"}],"stateMutability":"view","type":"function"},{"inputs":[{"internalType":"address","name":"_governor","type":"address"}],"name":"initialize","outputs":[],"stateMutability":"nonpayable","type":"function"},{"inputs":[{"components":[{"internalType":"address","name":"inputToken","type":"address"},{"internalType":"uint256","name":"inputAmount","type":"uint256"},{"internalType":"address","name":"destinationVault","type":"address"}],"internalType":"struct DataTypes.MintAsset[]","name":"assets","type":"tuple[]"},{"internalType":"uint256","name":"minReceivedAmount","type":"uint256"}],"name":"mint","outputs":[{"internalType":"uint256","name":"mintedGYDAmount","type":"uint256"}],"stateMutability":"nonpayable","type":"function"},{"inputs":[{"components":[{"internalType":"address","name":"inputToken","type":"address"},{"internalType":"uint256","name":"inputAmount","type":"uint256"},{"internalType":"address","name":"destinationVault","type":"address"}],"internalType":"struct DataTypes.MintAsset[]","name":"assets","type":"tuple[]"},{"internalType":"uint256","name":"minReceivedAmount","type":"uint256"},{"components":[{"internalType":"address","name":"target","type":"address"},{"internalType":"bytes","name":"data","type":"bytes"}],"internalType":"struct DataTypes.ExternalAction[]","name":"actions","type":"tuple[]"}],"name":"mint","outputs":[{"internalType":"uint256","name":"mintedGYDAmount","type":"uint256"}],"stateMutability":"nonpayable","type":"function"},{"inputs":[{"internalType":"uint256","name":"amount","type":"uint256"}],"name":"mintStewardshipIncRewards","outputs":[],"stateMutability":"nonpayable","type":"function"},{"inputs":[],"name":"mintedSupply","outputs":[{"internalType":"uint256","name":"","type":"uint256"}],"stateMutability":"view","type":"function"},{"inputs":[],"name":"pamm","outputs":[{"internalType":"contract IPAMM","name":"","type":"address"}],"stateMutability":"view","type":"function"},{"inputs":[],"name":"pendingGovernor","outputs":[{"internalType":"address","name":"","type":"address"}],"stateMutability":"view","type":"function"},{"inputs":[{"internalType":"uint256","name":"gydToRedeem","type":"uint256"},{"components":[{"internalType":"address","name":"outputToken","type":"address"},{"internalType":"uint256","name":"minOutputAmount","type":"uint256"},{"internalType":"uint256","name":"valueRatio","type":"uint256"},{"internalType":"address","name":"originVault","type":"address"}],"internalType":"struct DataTypes.RedeemAsset[]","name":"assets","type":"tuple[]"},{"components":[{"internalType":"address","name":"target","type":"address"},{"internalType":"bytes","name":"data","type":"bytes"}],"internalType":"struct DataTypes.ExternalAction[]","name":"actions","type":"tuple[]"}],"name":"redeem","outputs":[{"internalType":"uint256[]","name":"outputAmounts","type":"uint256[]"}],"stateMutability":"nonpayable","type":"function"},{"inputs":[{"internalType":"uint256","name":"gydToRedeem","type":"uint256"},{"components":[{"internalType":"address","name":"outputToken","type":"address"},{"internalType":"uint256","name":"minOutputAmount","type":"uint256"},{"internalType":"uint256","name":"valueRatio","type":"uint256"},{"internalType":"address","name":"originVault","type":"address"}],"internalType":"struct DataTypes.RedeemAsset[]","name":"assets","type":"tuple[]"}],"name":"redeem","outputs":[{"internalType":"uint256[]","name":"outputAmounts","type":"uint256[]"}],"stateMutability":"nonpayable","type":"function"},{"inputs":[],"name":"reserve","outputs":[{"internalType":"contract IReserve","name":"","type":"address"}],"stateMutability":"view","type":"function"},{"inputs":[{"internalType":"uint256","name":"_bootstrappingSupply","type":"uint256"}],"name":"setBootstrappingSupply","outputs":[],"stateMutability":"nonpayable","type":"function"}],"bytecode":"6101206040523480156200001257600080fd5b506040516200561b3803806200561b833981016040819052620000359162000332565b6200003f62000121565b6001600160a01b03811660c08190526200006590620001f0602090811b62001a6517901c565b6001600160a01b03166080816001600160a01b0316815250506200009d816001600160a01b03166200027960201b62001aeb1760201c565b6001600160a01b031660a0816001600160a01b031681525050620000d5816001600160a01b0316620002bb60201b62001b2c1760201c565b6001600160a01b031661010052604051620000f0906200030b565b604051809103906000f0801580156200010d573d6000803e3d6000fd5b506001600160a01b031660e0525062000359565b600154600160a81b900460ff1615620001905760405162461bcd60e51b815260206004820152602760248201527f496e697469616c697a61626c653a20636f6e747261637420697320696e697469604482015266616c697a696e6760c81b606482015260840160405180910390fd5b60015460ff600160a01b90910481161015620001ee576001805460ff60a01b191660ff60a01b17905560405160ff81527f7f26b83ff96e1f2b6a682f133852f6798a09c465da95921460cefb38474024989060200160405180910390a15b565b6040516321f8a72160e01b8152704759445f544f4b454e5f4144445245535360781b60048201526000906001600160a01b038316906321f8a721906024015b602060405180830381865afa1580156200024d573d6000803e3d6000fd5b505050506040513d601f19601f8201168201806040525081019062000273919062000332565b92915050565b6040516321f8a72160e01b81526e524553455256455f4144445245535360881b60048201526000906001600160a01b038316906321f8a721906024016200022f565b6040516321f8a72160e01b81527f42414c414e4345525f5641554c545f414444524553530000000000000000000060048201526000906001600160a01b038316906321f8a721906024016200022f565b6105a8806200507383390190565b6001600160a01b03811681146200032f57600080fd5b50565b6000602082840312156200034557600080fd5b8151620003528162000319565b9392505050565b60805160a05160c05160e05161010051614bfc620004776000396000611c500152600081816101910152818161098b01526117160152600081816101b8015281816104000152818161049901528181610528015281816105db015281816106f001528181610a8601528181610bc701528181610c7e01528181610d9101528181610e3901528181610ec8015281816110dd0152818161116e0152818161128601528181611331015281816113eb0152818161158b015281816115c2015281816116440152818161213f015261220b01526000818161029d015281816106940152818161309001526131e90152600081816102f3015281816108ba015281816110600152818161169a0152818161179101526121720152614bfc6000f3fe608060405234801561001057600080fd5b506004361061012c5760003560e01c8063900a043f116100ad578063e3056a3411610071578063e3056a34146102bf578063e4c0aaf4146102d2578063f3700ab3146102e5578063fbf60028146102ee578063fc196db01461031557600080fd5b8063900a043f14610257578063a75963ea1461026a578063c1bd8cf91461027d578063c4d66de814610285578063cd3293de1461029857600080fd5b8063466342cf116100f4578063466342cf146101da5780634d8ca4c5146101fa5780634e4d822a1461021b5780636235c4041461022e57806385b0c7811461024f57600080fd5b80630c340a2414610131578063238efcbc146101615780632799c6cf1461016b5780633a854b421461018c57806344bbdb55146101b3575b600080fd5b600054610144906001600160a01b031681565b6040516001600160a01b0390911681526020015b60405180910390f35b610169610328565b005b61017e610179366004613b77565b6103e1565b604051908152602001610158565b6101447f000000000000000000000000000000000000000000000000000000000000000081565b6101447f000000000000000000000000000000000000000000000000000000000000000081565b6101ed6101e8366004613c4a565b610971565b6040516101589190613cfe565b61020d610208366004613d18565b610a09565b604051610158929190613db3565b6101ed610229366004613d18565b610d3a565b61024161023c366004613b77565b611259565b604051610158929190613de1565b610144611584565b610169610265366004613dfa565b6115bd565b61017e610278366004613e13565b6116fc565b61017e61178a565b610169610293366004613e86565b61181b565b6101447f000000000000000000000000000000000000000000000000000000000000000081565b600154610144906001600160a01b031681565b6101696102e0366004613e86565b611945565b61017e60345481565b6101447f000000000000000000000000000000000000000000000000000000000000000081565b610169610323366004613dfa565b611a1a565b600154604080518082019091526002815261033360f41b6020820152906001600160a01b031633146103765760405162461bcd60e51b815260040161036d9190613ea3565b60405180910390fd5b5060008054600180546001600160a01b03198084166001600160a01b03808416919091179095551690556040805192909116808352336020840152917fde4b3f61490b74c0ed6237523974fe299126bbbf8a8a7482fd220104c59b0c8491015b60405180910390a150565b60006103eb611b74565b60006103f78585611cbc565b9050600061042d7f00000000000000000000000000000000000000000000000000000000000000006001600160a01b0316611db7565b6001600160a01b031663ef5bac256040518163ffffffff1660e01b8152600401600060405180830381865afa15801561046a573d6000803e3d6000fd5b505050506040513d6000823e601f3d908101601f191682016040526104929190810190614201565b90506104c67f00000000000000000000000000000000000000000000000000000000000000006001600160a01b0316611e06565b6001600160a01b03166347e41771826040518263ffffffff1660e01b81526004016104f1919061443a565b600060405180830381600087803b15801561050b57600080fd5b505af115801561051f573d6000803e3d6000fd5b505050506105557f00000000000000000000000000000000000000000000000000000000000000006001600160a01b0316611e55565b6001600160a01b0316635bd98c77826040518263ffffffff1660e01b8152600401610580919061443a565b6020604051808303816000875af115801561059f573d6000803e3d6000fd5b505050506040513d601f19601f820116820180604052508101906105c391906144af565b5060006105d4838360200151611e9b565b90506106087f00000000000000000000000000000000000000000000000000000000000000006001600160a01b0316611f9a565b6001600160a01b03166305d76b9d826040518263ffffffff1660e01b81526004016106339190614550565b600060405180830381600087803b15801561064d57600080fd5b505af1158015610661573d6000803e3d6000fd5b5050505060005b83518110156106e857600084828151811061068557610685614563565b602002602001015190506106d57f0000000000000000000000000000000000000000000000000000000000000000826020015183600001516001600160a01b0316611fe99092919063ffffffff16565b50806106e08161458f565b915050610668565b50600061071d7f00000000000000000000000000000000000000000000000000000000000000006001600160a01b0316612051565b6001600160a01b0316633e9d87e9836040518263ffffffff1660e01b81526004016107489190614550565b600060405180830381865afa158015610765573d6000803e3d6000fd5b505050506040513d6000823e601f3d908101601f1916820160405261078d91908101906145a8565b9050600061079a82612096565b90506107a4611584565b8451604051630d9778e560e11b81526004810184905260248101919091526001600160a01b039190911690631b2ef1ca906044016020604051808303816000875af11580156107f7573d6000803e3d6000fd5b505050506040513d601f19601f8201168201806040525081019061081b91906146d4565b955086861015604051806040016040528060018152602001601960f91b815250906108595760405162461bcd60e51b815260040161036d9190613ea3565b5061086386612137565b15604051806040016040528060028152602001610d8d60f21b8152509061089d5760405162461bcd60e51b815260040161036d9190613ea3565b506040516340c10f1960e01b8152336004820152602481018790527f00000000000000000000000000000000000000000000000000000000000000006001600160a01b0316906340c10f1990604401600060405180830381600087803b15801561090657600080fd5b505af115801561091a573d6000803e3d6000fd5b50505050336001600160a01b03167f0e6b487ae7843fcf6c728cbbd5f0f22d17c1ebbcfff196f4bb61550daca65be98783868660405161095d94939291906146ed565b60405180910390a250505050509392505050565b604051635c12c8e760e01b81526060906001600160a01b037f00000000000000000000000000000000000000000000000000000000000000001690635c12c8e7906109c2908690869060040161471e565b600060405180830381600087803b1580156109dc57600080fd5b505af11580156109f0573d6000803e3d6000fd5b505050506109ff868686610d3a565b9695505050505050565b606080826001600160401b03811115610a2457610a24613eb6565b604051908082528060200260200182016040528015610a4d578160200160208202803683370190505b509150610a5861178a565b851115610a7f57506040805180820190915260038152620c4c0d60ea1b6020820152610d32565b6000610ab37f00000000000000000000000000000000000000000000000000000000000000006001600160a01b0316611db7565b6001600160a01b031663ef5bac256040518163ffffffff1660e01b8152600401600060405180830381865afa158015610af0573d6000803e3d6000fd5b505050506040513d6000823e601f3d908101601f19168201604052610b189190810190614201565b90506000610b2e610b27612204565b8390612238565b90506000610b3a611584565b604051631c76d8fb60e21b8152600481018a9052602481018490526001600160a01b0391909116906371db63ec90604401602060405180830381865afa158015610b88573d6000803e3d6000fd5b505050506040513d601f19601f82011682018060405250810190610bac91906146d4565b90506000610bc082898987602001516122c6565b9050610bf47f00000000000000000000000000000000000000000000000000000000000000006001600160a01b0316611f9a565b6001600160a01b0316631c46e999826040518263ffffffff1660e01b8152600401610c1f9190614550565b600060405180830381865afa158015610c3c573d6000803e3d6000fd5b505050506040513d6000823e601f3d908101601f19168201604052610c649190810190614867565b805190955015610c775750505050610d32565b6000610cab7f00000000000000000000000000000000000000000000000000000000000000006001600160a01b0316612051565b6001600160a01b0316633e9d87e9836040518263ffffffff1660e01b8152600401610cd69190614550565b600060405180830381865afa158015610cf3573d6000803e3d6000fd5b505050506040513d6000823e601f3d908101601f19168201604052610d1b91908101906145a8565b9050610d2889898361243a565b9650965050505050505b935093915050565b6060610d44611b74565b610d4c61178a565b841115604051806040016040528060038152602001620c4c0d60ea1b81525090610d895760405162461bcd60e51b815260040161036d9190613ea3565b506000610dbe7f00000000000000000000000000000000000000000000000000000000000000006001600160a01b0316611db7565b6001600160a01b031663ef5bac256040518163ffffffff1660e01b8152600401600060405180830381865afa158015610dfb573d6000803e3d6000fd5b505050506040513d6000823e601f3d908101601f19168201604052610e239190810190614201565b90506000610e32610b27612204565b9050610e667f00000000000000000000000000000000000000000000000000000000000000006001600160a01b0316611e06565b6001600160a01b03166347e41771836040518263ffffffff1660e01b8152600401610e91919061443a565b600060405180830381600087803b158015610eab57600080fd5b505af1158015610ebf573d6000803e3d6000fd5b50505050610ef57f00000000000000000000000000000000000000000000000000000000000000006001600160a01b0316611e55565b6001600160a01b0316635bd98c77836040518263ffffffff1660e01b8152600401610f20919061443a565b6020604051808303816000875af1158015610f3f573d6000803e3d6000fd5b505050506040513d601f19601f82011682018060405250810190610f6391906144af565b506000610f6e611584565b604051637cbc237360e01b815260048101899052602481018490526001600160a01b039190911690637cbc2373906044016020604051808303816000875af1158015610fbe573d6000803e3d6000fd5b505050506040513d601f19601f82011682018060405250810190610fe291906146d4565b9050611006610fff6509184e72a000670de0b6b3a764000061489b565b889061255b565b8111156040518060400160405280600381526020016203130360ec1b815250906110435760405162461bcd60e51b815260040161036d9190613ea3565b5060405163079cc67960e41b8152336004820152602481018890527f00000000000000000000000000000000000000000000000000000000000000006001600160a01b0316906379cc679090604401600060405180830381600087803b1580156110ac57600080fd5b505af11580156110c0573d6000803e3d6000fd5b5050505060006110d682888887602001516122c6565b905061110a7f00000000000000000000000000000000000000000000000000000000000000006001600160a01b0316611f9a565b6001600160a01b03166359a047e9826040518263ffffffff1660e01b81526004016111359190614550565b600060405180830381600087803b15801561114f57600080fd5b505af1158015611163573d6000803e3d6000fd5b50505050600061119b7f00000000000000000000000000000000000000000000000000000000000000006001600160a01b0316612051565b6001600160a01b0316633e9d87e9836040518263ffffffff1660e01b81526004016111c69190614550565b600060405180830381865afa1580156111e3573d6000803e3d6000fd5b505050506040513d6000823e601f3d908101601f1916820160405261120b91908101906145a8565b905061121888888361257c565b9550336001600160a01b03167f9011ced5e66e56fb73e6022eff4e35b5082bc30c39774d4b9e047668e4e7781e8a85858560405161095d94939291906146ed565b600060608061126886866126a8565b80519093509091501561127f576000925050610d32565b60006112b37f00000000000000000000000000000000000000000000000000000000000000006001600160a01b0316611db7565b6001600160a01b031663ef5bac256040518163ffffffff1660e01b8152600401600060405180830381865afa1580156112f0573d6000803e3d6000fd5b505050506040513d6000823e601f3d908101601f191682016040526113189190810190614201565b9050600061132a838360200151611e9b565b905061135e7f00000000000000000000000000000000000000000000000000000000000000006001600160a01b0316611f9a565b6001600160a01b0316639109b8a3826040518263ffffffff1660e01b81526004016113899190614550565b600060405180830381865afa1580156113a6573d6000803e3d6000fd5b505050506040513d6000823e601f3d908101601f191682016040526113ce9190810190614867565b8051909450156113e45760009450505050610d32565b60006114187f00000000000000000000000000000000000000000000000000000000000000006001600160a01b0316612051565b6001600160a01b0316633e9d87e9836040518263ffffffff1660e01b81526004016114439190614550565b600060405180830381865afa158015611460573d6000803e3d6000fd5b505050506040513d6000823e601f3d908101601f1916820160405261148891908101906145a8565b9050600061149582612096565b905061149f611584565b845160405163616a1ed960e01b81526004810184905260248101919091526001600160a01b03919091169063616a1ed990604401602060405180830381865afa1580156114f0573d6000803e3d6000fd5b505050506040513d601f19601f8201168201806040525081019061151491906146d4565b9650878710156115435750506040805180820190915260018152601960f91b60208201529350610d3292505050565b61154c87612137565b156115775750506040805180820190915260028152610d8d60f21b60208201529350610d3292505050565b5050505050935093915050565b60006115b87f00000000000000000000000000000000000000000000000000000000000000006001600160a01b03166127bc565b905090565b6115ef7f00000000000000000000000000000000000000000000000000000000000000006001600160a01b0316611e06565b6001600160a01b0316336001600160a01b03161460405180604001604052806002815260200161033360f41b8152509061163c5760405162461bcd60e51b815260040161036d9190613ea3565b5060006116717f00000000000000000000000000000000000000000000000000000000000000006001600160a01b03166127fa565b6040516340c10f1960e01b81526001600160a01b038083166004830152602482018590529192507f0000000000000000000000000000000000000000000000000000000000000000909116906340c10f1990604401600060405180830381600087803b1580156116e057600080fd5b505af11580156116f4573d6000803e3d6000fd5b505050505050565b604051635c12c8e760e01b81526000906001600160a01b037f00000000000000000000000000000000000000000000000000000000000000001690635c12c8e79061174d908690869060040161471e565b600060405180830381600087803b15801561176757600080fd5b505af115801561177b573d6000803e3d6000fd5b505050506109ff8686866103e1565b60006034547f00000000000000000000000000000000000000000000000000000000000000006001600160a01b03166318160ddd6040518163ffffffff1660e01b8152600401602060405180830381865afa1580156117ed573d6000803e3d6000fd5b505050506040513d601f19601f8201168201806040525081019061181191906146d4565b6115b891906148ae565b600154600160a81b900460ff1615808015611841575060018054600160a01b900460ff16105b806118615750303b158015611861575060018054600160a01b900460ff16145b6118c45760405162461bcd60e51b815260206004820152602e60248201527f496e697469616c697a61626c653a20636f6e747261637420697320616c72656160448201526d191e481a5b9a5d1a585b1a5e995960921b606482015260840161036d565b6001805460ff60a01b1916600160a01b17905580156118f1576001805460ff60a81b1916600160a81b1790555b6118fa82612840565b8015611941576001805460ff60a81b191681556040519081527f7f26b83ff96e1f2b6a682f133852f6798a09c465da95921460cefb38474024989060200160405180910390a15b5050565b600054604080518082019091526002815261033360f41b6020820152906001600160a01b0316331461198a5760405162461bcd60e51b815260040161036d9190613ea3565b50604080518082019091526002815261333160f01b60208201526001600160a01b0382166119cb5760405162461bcd60e51b815260040161036d9190613ea3565b50600180546001600160a01b0319166001600160a01b0383169081179091556040519081527f67235ba2e63c748a35b95c4f92a3bbc2a1389938170a5ce6c9add5d0b03a314a906020016103d6565b600054604080518082019091526002815261033360f41b6020820152906001600160a01b03163314611a5f5760405162461bcd60e51b815260040161036d9190613ea3565b50603455565b6040516321f8a72160e01b8152704759445f544f4b454e5f4144445245535360781b60048201526000906001600160a01b038316906321f8a721906024015b602060405180830381865afa158015611ac1573d6000803e3d6000fd5b505050506040513d601f19601f82011682018060405250810190611ae591906148c1565b92915050565b6040516321f8a72160e01b81526e524553455256455f4144445245535360881b60048201526000906001600160a01b038316906321f8a72190602401611aa4565b6040516321f8a72160e01b81527542414c414e4345525f5641554c545f4144445245535360501b60048201526000906001600160a01b038316906321f8a72190602401611aa4565b604080516001808252818301909252600091816020015b6040805160a081018252600080825260208083018290529282018190526060820181905260808201528252600019909201910181611b8b579050509050600181600081518110611bdd57611bdd614563565b6020026020010151600001906003811115611bfa57611bfa6148de565b90816003811115611c0d57611c0d6148de565b815250503081600081518110611c2557611c25614563565b60209081029190910101516001600160a01b039182166060909101526040516303a38fa160e21b81527f000000000000000000000000000000000000000000000000000000000000000090911690630e8e3e8490611c879084906004016148f4565b600060405180830381600087803b158015611ca157600080fd5b505af1158015611cb5573d6000803e3d6000fd5b5050505050565b60606000826001600160401b03811115611cd857611cd8613eb6565b604051908082528060200260200182016040528015611d1d57816020015b6040805180820190915260008082526020820152815260200190600190039081611cf65790505b50905060005b83811015611daf5736858583818110611d3e57611d3e614563565b90506060020190506040518060400160405280826040016020810190611d649190613e86565b6001600160a01b03168152602001611d7b83612894565b815250838381518110611d9057611d90614563565b6020026020010181905250508080611da79061458f565b915050611d23565b509392505050565b6040516321f8a72160e01b81527f524553455256455f4d414e414745525f4144445245535300000000000000000060048201526000906001600160a01b038316906321f8a72190602401611aa4565b6040516321f8a72160e01b81527f53544557415244534849505f494e435f4144445245535300000000000000000060048201526000906001600160a01b038316906321f8a72190602401611aa4565b6040516321f8a72160e01b8152734759445f5245434f564552595f4144445245535360601b60048201526000906001600160a01b038316906321f8a72190602401611aa4565b6040805180820190915260608152600060208201526000604051806040016040528084516001600160401b03811115611ed657611ed6613eb6565b604051908082528060200260200182016040528015611f0f57816020015b611efc613a59565b815260200190600190039081611ef45790505b5081526001602090910152905060005b8351811015611daf576000848281518110611f3c57611f3c614563565b602002602001015190506040518060400160405280828152602001611f65836000015189612a4c565b90528351805184908110611f7b57611f7b614563565b6020026020010181905250508080611f929061458f565b915050611f1f565b6040516321f8a72160e01b81527f524f4f545f5341464554595f434845434b5f414444524553530000000000000060048201526000906001600160a01b038316906321f8a72190602401611aa4565b6040516001600160a01b03831660248201526044810182905261204c90849063a9059cbb60e01b906064015b60408051601f198184030181529190526020810180516001600160e01b03166001600160e01b031990931692909217909152612aba565b505050565b6040516321f8a72160e01b8152724645455f48414e444c45525f4144445245535360681b60048201526000906001600160a01b038316906321f8a72190602401611aa4565b6000805b825151811015612131576000836000015182815181106120bc576120bc614563565b6020026020010151905060008160000151905060006120e36120dc612204565b8390612b8c565b9050600061210283602001518560200151612bed90919063ffffffff16565b905061210e818361255b565b612118908761489b565b95505050505080806121299061458f565b91505061209a565b50919050565b60008061216c7f00000000000000000000000000000000000000000000000000000000000000006001600160a01b0316612c55565b905080837f00000000000000000000000000000000000000000000000000000000000000006001600160a01b03166318160ddd6040518163ffffffff1660e01b8152600401602060405180830381865afa1580156121ce573d6000803e3d6000fd5b505050506040513d601f19601f820116820180604052508101906121f291906146d4565b6121fc919061489b565b119392505050565b60006115b87f00000000000000000000000000000000000000000000000000000000000000006001600160a01b0316612ce0565b60008060005b846020015151811015611daf5760008560200151828151811061226357612263614563565b6020026020010151905060006122798287612b8c565b9050600061229883602001518460a00151612bed90919063ffffffff16565b90506122a4818361255b565b6122ae908661489b565b945050505080806122be9061458f565b91505061223e565b6040805180820190915260608152600060208201526122e58484612d2f565b6000604051806040016040528084516001600160401b0381111561230b5761230b613eb6565b60405190808252806020026020018201604052801561234457816020015b612331613a59565b8152602001906001900390816123295790505b5081526020016000151581525090506000805b84518110156123ea57600085828151811061237457612374614563565b6020026020010151905060008061238d838c8c8c612e24565b909250905061239c818661489b565b9450604051806040016040528084815260200183815250866000015185815181106123c9576123c9614563565b602002602001018190525050505080806123e29061458f565b915050612357565b50604080518082019091526002815261333160f01b6020820152670de0b6b3a7640000821461242c5760405162461bcd60e51b815260040161036d9190613ea3565b50909150505b949350505050565b606080836001600160401b0381111561245557612455613eb6565b60405190808252806020026020018201604052801561247e578160200160208202803683370190505b50915060005b84811015612552573686868381811061249f5761249f614563565b905060800201905060006124c986600001518360600160208101906124c49190613e86565b612f05565b905060006124d78383612f7b565b8051909650909150156124ed5750505050610d32565b826020013581101561251d5750506040805180820190915260018152601960f91b60208201529250610d32915050565b8086858151811061253057612530614563565b602002602001018181525050505050808061254a9061458f565b915050612484565b50935093915050565b600080612568838561498f565b9050612432670de0b6b3a7640000826149a6565b6060826001600160401b0381111561259657612596613eb6565b6040519080825280602002602001820160405280156125bf578160200160208202803683370190505b50905060005b83811015611daf5760008585838181106125e1576125e1614563565b9050608002018036038101906125f791906149c8565b9050600061260d85600001518360600151612f05565b9050600061261b83836131ba565b90508260200151811015604051806040016040528060018152602001601960f91b8152509061265d5760405162461bcd60e51b815260040161036d9190613ea3565b508085858151811061267157612671614563565b60209081029190910101528251612692906001600160a01b03163383611fe9565b50505080806126a09061458f565b9150506125c5565b606080826001600160401b038111156126c3576126c3613eb6565b60405190808252806020026020018201604052801561270857816020015b60408051808201909152600080825260208201528152602001906001900390816126e15790505b50915060005b838110156127b3573685858381811061272957612729614563565b9050606002019050600061273c8261339b565b805190955090915015612751575050506127b5565b604051806040016040528083604001602081019061276f9190613e86565b6001600160a01b031681526020018281525085848151811061279357612793614563565b6020026020010181905250505080806127ab9061458f565b91505061270e565b505b9250929050565b6040516321f8a72160e01b81526b50414d4d5f4144445245535360a01b60048201526000906001600160a01b038316906321f8a72190602401611aa4565b6040516321f8a72160e01b815273474f565f54524541535552595f4144445245535360601b60048201526000906001600160a01b038316906321f8a72190602401611aa4565b600080546001600160a01b0319166001600160a01b03831690811782556040805192835260208301919091527fde4b3f61490b74c0ed6237523974fe299126bbbf8a8a7482fd220104c59b0c8491016103d6565b6000806128a76060840160408501613e86565b90506128d03330602086018035906128bf9088613e86565b6001600160a01b031692919061352c565b6001600160a01b0381166128e76020850185613e86565b6001600160a01b0316036128fe5750506020013590565b6000816001600160a01b0316636f307dc36040518163ffffffff1660e01b8152600401602060405180830381865afa15801561293e573d6000803e3d6000fd5b505050506040513d601f19601f8201168201806040525081019061296291906148c1565b90506001600160a01b03811661297b6020860186613e86565b6001600160a01b03161460405180604001604052806002815260200161333560f01b815250906129be5760405162461bcd60e51b815260040161036d9190613ea3565b506129d76001600160a01b03821683602087013561356a565b604051631c57762b60e31b815260208501356004820152600060248201526001600160a01b0383169063e2bbb158906044016020604051808303816000875af1158015612a28573d6000803e3d6000fd5b505050506040513d601f19601f8201168201806040525081019061243291906146d4565b600080805b8351811015611daf576000848281518110612a6e57612a6e614563565b60200260200101519050856001600160a01b031681600001516001600160a01b031603612aa7576020810151612aa4908461489b565b92505b5080612ab28161458f565b915050612a51565b6000612b0f826040518060400160405280602081526020017f5361666545524332303a206c6f772d6c6576656c2063616c6c206661696c6564815250856001600160a01b031661361c9092919063ffffffff16565b80519091501561204c5780806020019051810190612b2d91906144af565b61204c5760405162461bcd60e51b815260206004820152602a60248201527f5361666545524332303a204552433230206f7065726174696f6e20646964206e6044820152691bdd081cdd58d8d9595960b21b606482015260840161036d565b600080612b9f846101000151600061362b565b845160405163b32b752d60e01b81529192506001600160a01b0385169163b32b752d91612bd0918590600401614a3c565b602060405180830381865afa158015612a28573d6000803e3d6000fd5b600060111960ff831601612c02575081611ae5565b601260ff83161115612c3557612c19601283614a60565b612c2490600a614b55565b612c2e90846149a6565b9050611ae5565b612c40826012614a60565b612c4b90600a614b55565b612c2e908461498f565b60405163e964da1560e01b81527404759445f474c4f42414c5f535550504c595f43415605c1b600482015260001960248201526000906001600160a01b0383169063e964da1590604401602060405180830381865afa158015612cbc573d6000803e3d6000fd5b505050506040513d601f19601f82011682018060405250810190611ae591906146d4565b6040516321f8a72160e01b81527f524f4f545f50524943455f4f5241434c455f414444524553530000000000000060048201526000906001600160a01b038316906321f8a72190602401611aa4565b60005b8181101561204c5736838383818110612d4d57612d4d614563565b90506080020190506000826001612d64919061489b565b90505b83811015612e0f5736858583818110612d8257612d82614563565b9050608002019050806060016020810190612d9d9190613e86565b6001600160a01b0316612db66080850160608601613e86565b6001600160a01b0316141560405180604001604052806002815260200161333160f01b81525090612dfa5760405162461bcd60e51b815260040161036d9190613ea3565b50508080612e079061458f565b915050612d67565b50508080612e1c9061458f565b915050612d32565b60008060005b83811015612ef35736858583818110612e4557612e45614563565b905060800201905087600001516001600160a01b0316816060016020810190612e6e9190613e86565b6001600160a01b031603612ee0576000612e90612e89612204565b8a9061382b565b90506000612ea289604085013561255b565b90506000612eb0828461383e565b90506000612ecb8c60200151836138a990919063ffffffff16565b975050506040909201359350612efc92505050565b5080612eeb8161458f565b915050612e2a565b50600080915091505b94509492505050565b6000805b8351811015612f71576000848281518110612f2657612f26614563565b60200260200101519050836001600160a01b03168160000151600001516001600160a01b031603612f5e57602001519150611ae59050565b5080612f698161458f565b915050612f09565b5060009392505050565b6000606081612f8f60808601868401613e86565b90506001600160a01b038116612fa86020870187613e86565b6001600160a01b031603612fcf5750506040805160208101909152600081528291506127b5565b806001600160a01b0316636f307dc36040518163ffffffff1660e01b8152600401602060405180830381865afa15801561300d573d6000803e3d6000fd5b505050506040513d601f19601f8201168201806040525081019061303191906148c1565b6001600160a01b03166130476020870187613e86565b6001600160a01b031614613079575050604080518082019091526002815261333560f01b6020820152600091506127b5565b6040516370a0823160e01b81526001600160a01b037f000000000000000000000000000000000000000000000000000000000000000081166004830152600091908316906370a0823190602401602060405180830381865afa1580156130e3573d6000803e3d6000fd5b505050506040513d601f19601f8201168201806040525081019061310791906146d4565b905084811015613139576000604051806040016040528060028152602001610ccd60f21b8152509350935050506127b5565b60405163cc04feff60e01b815260048101869052600060248201526001600160a01b0383169063cc04feff90604401600060405180830381865afa158015613185573d6000803e3d6000fd5b505050506040513d6000823e601f3d908101601f191682016040526131ad9190810190614b64565b9350935050509250929050565b60608201516040516313c5035360e31b81526001600160a01b03808316600483015260248201849052600092917f000000000000000000000000000000000000000000000000000000000000000090911690639e281a9890604401600060405180830381600087803b15801561322f57600080fd5b505af1158015613243573d6000803e3d6000fd5b50505050806001600160a01b031684600001516001600160a01b03160361326d5782915050611ae5565b806001600160a01b0316636f307dc36040518163ffffffff1660e01b8152600401602060405180830381865afa1580156132ab573d6000803e3d6000fd5b505050506040513d601f19601f820116820180604052508101906132cf91906148c1565b6001600160a01b031684600001516001600160a01b03161460405180604001604052806002815260200161333560f01b815250906133205760405162461bcd60e51b815260040161036d9190613ea3565b50604051630441a3e760e41b815260048101849052600060248201526001600160a01b0382169063441a3e70906044016020604051808303816000875af115801561336f573d6000803e3d6000fd5b505050506040513d601f19601f8201168201806040525081019061339391906146d4565b915050611ae5565b600060606133ae83820160408501613e86565b6001600160a01b03166133c46020850185613e86565b6001600160a01b0316036133ea5750506040805160208181019092526000815291013591565b60006133fc6060850160408601613e86565b9050806001600160a01b0316636f307dc36040518163ffffffff1660e01b8152600401602060405180830381865afa15801561343c573d6000803e3d6000fd5b505050506040513d601f19601f8201168201806040525081019061346091906148c1565b6001600160a01b03166134766020860186613e86565b6001600160a01b03160361350557604051632a8695b160e11b815260208501356004820152600060248201526001600160a01b0382169063550d2b6290604401600060405180830381865afa1580156134d3573d6000803e3d6000fd5b505050506040513d6000823e601f3d908101601f191682016040526134fb9190810190614b64565b9250925050915091565b600060405180604001604052806002815260200161333560f01b8152509250925050915091565b6040516001600160a01b03808516602483015283166044820152606481018290526135649085906323b872dd60e01b90608401612015565b50505050565b604051636eb1769f60e11b81523060048201526001600160a01b038381166024830152600091839186169063dd62ed3e90604401602060405180830381865afa1580156135bb573d6000803e3d6000fd5b505050506040513d601f19601f820116820180604052508101906135df91906146d4565b6135e9919061489b565b6040516001600160a01b03851660248201526044810182905290915061356490859063095ea7b360e01b90606401612015565b606061243284846000856138e0565b6060600083516001600160401b0381111561364857613648613eb6565b6040519080825280602002602001820160405280156136b057816020015b61369d6040805160808101825260008082526020808301829052828401829052835180850190945281845283015290606082015290565b8152602001906001900390816136665790505b50905060005b8451811015611daf578481815181106136d1576136d1614563565b6020026020010151600001518282815181106136ef576136ef614563565b60209081029190910101516001600160a01b039091169052845185908290811061371b5761371b614563565b60200260200101516020015182828151811061373957613739614563565b6020026020010151602001901515908115158152505084818151811061376157613761614563565b60200260200101516020015180156137a35750670de0b6b3a764000085828151811061378f5761378f614563565b602002602001015160400151101515841515145b156137d857670de0b6b3a76400008282815181106137c3576137c3614563565b60200260200101516040018181525050613819565b8481815181106137ea576137ea614563565b60200260200101516040015182828151811061380857613808614563565b602002602001015160400181815250505b806138238161458f565b9150506136b6565b600080612b9f846101000151600161362b565b604080518082019091526002815261323560f01b6020820152600090826138785760405162461bcd60e51b815260040161036d9190613ea3565b508260000361388957506000611ae5565b600061389d670de0b6b3a76400008561498f565b905061339383826149a6565b600060111960ff8316016138be575081611ae5565b601260ff831611156138d557612c40601283614a60565b612c19826012614a60565b6060824710156139415760405162461bcd60e51b815260206004820152602660248201527f416464726573733a20696e73756666696369656e742062616c616e636520666f6044820152651c8818d85b1b60d21b606482015260840161036d565b600080866001600160a01b0316858760405161395d9190614baa565b60006040518083038185875af1925050503d806000811461399a576040519150601f19603f3d011682016040523d82523d6000602084013e61399f565b606091505b50915091506139b0878383876139bb565b979650505050505050565b60608315613a2a578251600003613a23576001600160a01b0385163b613a235760405162461bcd60e51b815260206004820152601d60248201527f416464726573733a2063616c6c20746f206e6f6e2d636f6e7472616374000000604482015260640161036d565b5081612432565b6124328383815115613a3f5781518083602001fd5b8060405162461bcd60e51b815260040161036d9190613ea3565b6040518060400160405280613a6c613a79565b8152602001600081525090565b60405180610120016040528060006001600160a01b03168152602001600060ff16815260200160006001600160a01b0316815260200160008152602001613b116040518060e001604052806000815260200160008152602001600081526020016000815260200160006001600160401b0316815260200160006001600160401b0316815260200160006001600160401b031681525090565b8152602001600081526020016000815260200160008152602001606081525090565b60008083601f840112613b4557600080fd5b5081356001600160401b03811115613b5c57600080fd5b6020830191508360206060830285010111156127b557600080fd5b600080600060408486031215613b8c57600080fd5b83356001600160401b03811115613ba257600080fd5b613bae86828701613b33565b909790965060209590950135949350505050565b60008083601f840112613bd457600080fd5b5081356001600160401b03811115613beb57600080fd5b6020830191508360208260071b85010111156127b557600080fd5b60008083601f840112613c1857600080fd5b5081356001600160401b03811115613c2f57600080fd5b6020830191508360208260051b85010111156127b557600080fd5b600080600080600060608688031215613c6257600080fd5b8535945060208601356001600160401b0380821115613c8057600080fd5b613c8c89838a01613bc2565b90965094506040880135915080821115613ca557600080fd5b50613cb288828901613c06565b969995985093965092949392505050565b600081518084526020808501945080840160005b83811015613cf357815187529582019590820190600101613cd7565b509495945050505050565b602081526000613d116020830184613cc3565b9392505050565b600080600060408486031215613d2d57600080fd5b8335925060208401356001600160401b03811115613d4a57600080fd5b613d5686828701613bc2565b9497909650939450505050565b60005b83811015613d7e578181015183820152602001613d66565b50506000910152565b60008151808452613d9f816020860160208601613d63565b601f01601f19169290920160200192915050565b604081526000613dc66040830185613cc3565b8281036020840152613dd88185613d87565b95945050505050565b8281526040602082015260006124326040830184613d87565b600060208284031215613e0c57600080fd5b5035919050565b600080600080600060608688031215613e2b57600080fd5b85356001600160401b0380821115613e4257600080fd5b613e4e89838a01613b33565b9097509550602088013594506040880135915080821115613ca557600080fd5b6001600160a01b0381168114613e8357600080fd5b50565b600060208284031215613e9857600080fd5b8135613d1181613e6e565b602081526000613d116020830184613d87565b634e487b7160e01b600052604160045260246000fd5b604051608081016001600160401b0381118282101715613eee57613eee613eb6565b60405290565b604080519081016001600160401b0381118282101715613eee57613eee613eb6565b60405161012081016001600160401b0381118282101715613eee57613eee613eb6565b604051601f8201601f191681016001600160401b0381118282101715613f6157613f61613eb6565b604052919050565b60006001600160401b03821115613f8257613f82613eb6565b5060051b60200190565b8051613f9781613e6e565b919050565b805160ff81168114613f9757600080fd5b80516001600160401b0381168114613f9757600080fd5b600060e08284031215613fd657600080fd5b60405160e081018181106001600160401b0382111715613ff857613ff8613eb6565b80604052508091508251815260208301516020820152604083015160408201526060830151606082015261402e60808401613fad565b608082015261403f60a08401613fad565b60a082015261405060c08401613fad565b60c08201525092915050565b80518015158114613f9757600080fd5b600082601f83011261407d57600080fd5b8151602061409261408d83613f69565b613f39565b82815260a092830285018201928282019190878511156140b157600080fd5b8387015b8581101561413a57808903828112156140ce5760008081fd5b6140d6613ecc565b82516140e181613e6e565b81526140ee83880161405c565b8782015260408084015181830152606081605f19850112156141105760008081fd5b614118613ef4565b85820151815260808601518a82015290830152508552509284019281016140b5565b5090979650505050505050565b60006101e0828403121561415a57600080fd5b614162613f16565b905061416d82613f8c565b815261417b60208301613f9c565b602082015261418c60408301613f8c565b6040820152606082015160608201526141a88360808401613fc4565b608082015261016082015160a082015261018082015160c08201526101a082015160e08201526101c08201516001600160401b038111156141e857600080fd5b6141f48482850161406c565b6101008301525092915050565b6000602080838503121561421457600080fd5b82516001600160401b038082111561422b57600080fd5b908401906040828703121561423f57600080fd5b614247613ef4565b82518152838301518281111561425c57600080fd5b80840193505086601f84011261427157600080fd5b825161427f61408d82613f69565b81815260059190911b8401850190858101908983111561429e57600080fd5b8686015b838110156142d6578051868111156142ba5760008081fd5b6142c88c8a838b0101614147565b8452509187019187016142a2565b5095830195909552509695505050505050565b600081518084526020808501945080840160005b83811015613cf357815180516001600160a01b031688528381015115158489015260408082015190890152606090810151805191890191909152830151608088015260a090960195908201906001016142fd565b80516001600160a01b0316825260006101e06020830151614377602086018260ff169052565b50604083015161439260408601826001600160a01b03169052565b506060830151606085015260808301516143ff60808601828051825260208101516020830152604081015160408301526060810151606083015260808101516001600160401b0380821660808501528060a08401511660a08501528060c08401511660c085015250505050565b5060a083015161016085015260c083015161018085015260e08301516101a0850152610100830151816101c0860152613dd8828601826142e9565b60006020808352606083018451828501528185015160408086015281815180845260808701915060808160051b8801019350848301925060005b818110156144a257607f19888603018352614490858551614351565b94509285019291850191600101614474565b5092979650505050505050565b6000602082840312156144c157600080fd5b613d118261405c565b60006040808401835182865281815180845260608801915060608160051b89010193506020808401935060005b8281101561453857898603605f190184528451805188885261451b89890182614351565b9184015197840197909752955093810193928101926001016144f7565b50968701511515979096019690965250949350505050565b602081526000613d1160208301846144ca565b634e487b7160e01b600052603260045260246000fd5b634e487b7160e01b600052601160045260246000fd5b6000600182016145a1576145a1614579565b5060010190565b600060208083850312156145bb57600080fd5b82516001600160401b03808211156145d257600080fd5b90840190604082870312156145e657600080fd5b6145ee613ef4565b8251828111156145fd57600080fd5b8301601f8101881361460e57600080fd5b805161461c61408d82613f69565b81815260059190911b8201860190868101908a83111561463b57600080fd5b8784015b838110156146b1578051878111156146575760008081fd5b85016040818e03601f1901121561466e5760008081fd5b614676613ef4565b8a820151898111156146885760008081fd5b6146968f8d83860101614147565b825250604091909101518a820152835291880191880161463f565b508452506146c391505083850161405c565b848201528094505050505092915050565b6000602082840312156146e657600080fd5b5051919050565b84815283602082015260806040820152600061470c60808301856144ca565b82810360608401526139b081856144ca565b60208082528181018390526000906040808401600586901b8501820187855b888110156147f657878303603f190184528135368b9003603e1901811261476357600080fd5b8a01803561477081613e6e565b6001600160a01b031684528087013536829003601e1901811261479257600080fd5b0186810190356001600160401b038111156147ac57600080fd5b8036038213156147bb57600080fd5b868886015280878601526060818382880137600086830182015295880195601f909101601f191690940190930192509085019060010161473d565b509098975050505050505050565b600082601f83011261481557600080fd5b81516001600160401b0381111561482e5761482e613eb6565b614841601f8201601f1916602001613f39565b81815284602083860101111561485657600080fd5b612432826020830160208701613d63565b60006020828403121561487957600080fd5b81516001600160401b0381111561488f57600080fd5b61243284828501614804565b80820180821115611ae557611ae5614579565b81810381811115611ae557611ae5614579565b6000602082840312156148d357600080fd5b8151613d1181613e6e565b634e487b7160e01b600052602160045260246000fd5b60208082528251828201819052600091906040908185019086840185805b838110156149815782518051600480821061493a57634e487b7160e01b855260218152602485fd5b508652808801516001600160a01b03908116898801528782015188880152606080830151821690880152608091820151169086015260a09094019391860191600101614912565b509298975050505050505050565b8082028115828204841417611ae557611ae5614579565b6000826149c357634e487b7160e01b600052601260045260246000fd5b500490565b6000608082840312156149da57600080fd5b604051608081018181106001600160401b03821117156149fc576149fc613eb6565b6040528235614a0a81613e6e565b8082525060208301356020820152604083013560408201526060830135614a3081613e6e565b60608201529392505050565b6001600160a01b0383168152604060208201819052600090612432908301846142e9565b60ff8281168282160390811115611ae557611ae5614579565b600181815b808511156127b3578160001904821115614a9a57614a9a614579565b80851615614aa757918102915b93841c9390800290614a7e565b600082614ac357506001611ae5565b81614ad057506000611ae5565b8160018114614ae65760028114614af057614b0c565b6001915050611ae5565b60ff841115614b0157614b01614579565b50506001821b611ae5565b5060208310610133831016604e8410600b8410161715614b2f575081810a611ae5565b614b398383614a79565b8060001904821115614b4d57614b4d614579565b029392505050565b6000613d1160ff841683614ab4565b60008060408385031215614b7757600080fd5b8251915060208301516001600160401b03811115614b9457600080fd5b614ba085828601614804565b9150509250929050565b60008251614bbc818460208701613d63565b919091019291505056fea264697066735822122085188861356932d9dab55c9878a07bd457fe3634c7e89536e9c873136cf9d52864736f6c63430008110033608060405234801561001057600080fd5b50610588806100206000396000f3fe608060405234801561001057600080fd5b50600436106100365760003560e01c806306b06c281461003b5780635c12c8e714610050575b600080fd5b61004e6100493660046103aa565b610063565b005b61004e61005e3660046103df565b6100a8565b6100a481602001516040518060400160405280600381526020016231303160e81b81525083600001516001600160a01b03166100e89092919063ffffffff16565b5050565b60005b81518110156100a4576100d68282815181106100c9576100c96104a2565b6020026020010151610063565b806100e0816104b8565b9150506100ab565b60606100f784846000856100ff565b949350505050565b6060824710156101655760405162461bcd60e51b815260206004820152602660248201527f416464726573733a20696e73756666696369656e742062616c616e636520666f6044820152651c8818d85b1b60d21b60648201526084015b60405180910390fd5b600080866001600160a01b031685876040516101819190610503565b60006040518083038185875af1925050503d80600081146101be576040519150601f19603f3d011682016040523d82523d6000602084013e6101c3565b606091505b50915091506101d4878383876101df565b979650505050505050565b6060831561024e578251600003610247576001600160a01b0385163b6102475760405162461bcd60e51b815260206004820152601d60248201527f416464726573733a2063616c6c20746f206e6f6e2d636f6e7472616374000000604482015260640161015c565b50816100f7565b6100f783838151156102635781518083602001fd5b8060405162461bcd60e51b815260040161015c919061051f565b634e487b7160e01b600052604160045260246000fd5b6040805190810167ffffffffffffffff811182821017156102b6576102b661027d565b60405290565b604051601f8201601f1916810167ffffffffffffffff811182821017156102e5576102e561027d565b604052919050565b6000604082840312156102ff57600080fd5b610307610293565b905081356001600160a01b038116811461032057600080fd5b815260208281013567ffffffffffffffff8082111561033e57600080fd5b818501915085601f83011261035257600080fd5b8135818111156103645761036461027d565b610376601f8201601f191685016102bc565b9150808252868482850101111561038c57600080fd5b80848401858401376000908201840152918301919091525092915050565b6000602082840312156103bc57600080fd5b813567ffffffffffffffff8111156103d357600080fd5b6100f7848285016102ed565b600060208083850312156103f257600080fd5b823567ffffffffffffffff8082111561040a57600080fd5b818501915085601f83011261041e57600080fd5b8135818111156104305761043061027d565b8060051b61043f8582016102bc565b918252838101850191858101908984111561045957600080fd5b86860192505b83831015610495578235858111156104775760008081fd5b6104858b89838a01016102ed565b835250918601919086019061045f565b9998505050505050505050565b634e487b7160e01b600052603260045260246000fd5b6000600182016104d857634e487b7160e01b600052601160045260246000fd5b5060010190565b60005b838110156104fa5781810151838201526020016104e2565b50506000910152565b600082516105158184602087016104df565b9190910192915050565b602081526000825180602084015261053e8160408501602087016104df565b601f01601f1916919091016040019291505056fea2646970667358221220d31ce5ca7c5e296a14bdae3669d78cb73ef626811d668fbb62c2950f4c0f832564736f6c63430008110033","bytecodeSha1":"cda4ae96565a06e35db96394754f5644d0d59b3e","compiler":{"evm_version":"london","optimizer":{"enabled":true,"runs":200},"version":"0.8.17+commit.8df45f5f"},"contractName":"Motherboard","language":"Solidity","natspec":{"kind":"dev","methods":{"acceptGovernance()":{"notice":"Called by the pending governor to approve the change"},"bootstrappingSupply()":{"notice":"Supply preminted for bootstrapping."},"changeGovernor(address)":{"notice":"Changes the governor can only be called by the current governor"},"dryMint((address,uint256,address)[],uint256)":{"notice":"Simulates a mint to know whether it would succeed and how much would be minted The parameters are the same as the `mint` function Note: This does *not* include the action of the recovery module, if any!","params":{"assets":"the assets and associated amounts used to mint GYD","minReceivedAmount":"the minimum amount of GYD to be minted"},"returns":{"err":"a non-empty error message in case an error would happen when minting","mintedGYDAmount":"the amount that would be minted, or 0 if it an error would occur"}},"dryRedeem(uint256,(address,uint256,uint256,address)[])":{"notice":"Dry version of the `redeem` function exact outputs as specified by `tokens` and `amounts` Note: This does *not* include the action of the recovery module, if any!","params":{"assets":"the output tokens and associated amounts to return against GYD","gydToRedeem":"the maximum amount of GYD to redeem"},"returns":{"err":"a non-empty error message in case an error would happen when redeeming","outputAmounts":"the amounts receivd against the redeemed GYD"}},"externalActionExecutor()":{"notice":"Used to execute permits and other actions, such as oracle updates, that do not require any privilege"},"governor()":{"notice":"Returns the current governor"},"gyroConfig()":{"notice":"Returns the address of the global configuration"},"mint((address,uint256,address)[],uint256)":{"notice":"Main minting function to be called by a depositor This mints using the exact input amount and mints at least `minMintedAmount` All the `inputTokens` should be approved for the motherboard to spend at least `inputAmounts` on behalf of the sender","params":{"assets":"the assets and associated amounts used to mint GYD","minReceivedAmount":"the minimum amount of GYD to be minted"},"returns":{"mintedGYDAmount":"GYD token minted amount"}},"mintStewardshipIncRewards(uint256)":{"notice":"Only callable from the reserve stewardship incentives module. Mints new GYD to the governance treasury."},"mintedSupply()":{"details":"Reverts if bootstrappingSupply() > totalSupply(), but this never happens, assuming that governance consistently calls setBootstrappingSupply() with minting/burning bootstrapping supply.","notice":"Total supply created through minting via the reserve (`Motherboard.mint()`). Excludes supply created for bootstrapping."},"pamm()":{"notice":"Returns the address for the PAMM","returns":{"_0":"the PAMM address"}},"pendingGovernor()":{"notice":"Returns the pending governor"},"redeem(uint256,(address,uint256,uint256,address)[])":{"notice":"Main redemption function to be called by a withdrawer This redeems using at most `maxRedeemedAmount` of GYD and returns the exact outputs as specified by `tokens` and `amounts`","params":{"assets":"the output tokens and associated amounts to return against GYD","gydToRedeem":"the maximum amount of GYD to redeem"},"returns":{"outputAmounts":"the amounts receivd against the redeemed GYD"}},"reserve()":{"notice":"Returns the address for the reserve"}},"stateVariables":{"gydToken":{"details":"The GYD token is not upgradable so this will always return the same value","return":"the address of the GYD token","returns":{"_0":"the address of the GYD token"}},"gyroConfig":{"return":"the global configuration address","returns":{"_0":"the global configuration address"}},"reserve":{"return":"the address of the reserve","returns":{"_0":"the address of the reserve"}}},"title":"MotherBoard is the central contract connecting the different pieces of the Gyro protocol","version":1},"opcodes":"PUSH1 0x80 PUSH1 0x40 MSTORE CALLVALUE DUP1 ISZERO PUSH2 0x10 JUMPI PUSH1 0x0 DUP1 REVERT JUMPDEST POP PUSH1 0x4 CALLDATASIZE LT PUSH2 0x12C JUMPI PUSH1 0x0 CALLDATALOAD PUSH1 0xE0 SHR DUP1 PUSH4 0x900A043F GT PUSH2 0xAD JUMPI DUP1 PUSH4 0xE3056A34 GT PUSH2 0x71 JUMPI DUP1 PUSH4 0xE3056A34 EQ PUSH2 0x2BF JUMPI DUP1 PUSH4 0xE4C0AAF4 EQ PUSH2 0x2D2 JUMPI DUP1 PUSH4 0xF3700AB3 EQ PUSH2 0x2E5 JUMPI DUP1 PUSH4 0xFBF60028 EQ PUSH2 0x2EE JUMPI DUP1 PUSH4 0xFC196DB0 EQ PUSH2 0x315 JUMPI PUSH1 0x0 DUP1 REVERT JUMPDEST DUP1 PUSH4 0x900A043F EQ PUSH2 0x257 JUMPI DUP1 PUSH4 0xA75963EA EQ PUSH2 0x26A JUMPI DUP1 PUSH4 0xC1BD8CF9 EQ PUSH2 0x27D JUMPI DUP1 PUSH4 0xC4D66DE8 EQ PUSH2 0x285 JUMPI DUP1 PUSH4 0xCD3293DE EQ PUSH2 0x298 JUMPI PUSH1 0x0 DUP1 REVERT JUMPDEST DUP1 PUSH4 0x466342CF GT PUSH2 0xF4 JUMPI DUP1 PUSH4 0x466342CF EQ PUSH2 0x1DA JUMPI DUP1 PUSH4 0x4D8CA4C5 EQ PUSH2 0x1FA JUMPI DUP1 PUSH4 0x4E4D822A EQ PUSH2 0x21B JUMPI DUP1 PUSH4 0x6235C404 EQ PUSH2 0x22E JUMPI DUP1 PUSH4 0x85B0C781 EQ PUSH2 0x24F JUMPI PUSH1 0x0 DUP1 REVERT JUMPDEST DUP1 PUSH4 0xC340A24 EQ PUSH2 0x131 JUMPI DUP1 PUSH4 0x238EFCBC EQ PUSH2 0x161 JUMPI DUP1 PUSH4 0x2799C6CF EQ PUSH2 0x16B JUMPI DUP1 PUSH4 0x3A854B42 EQ PUSH2 0x18C JUMPI DUP1 PUSH4 0x44BBDB55 EQ PUSH2 0x1B3 JUMPI JUMPDEST PUSH1 0x0 DUP1 REVERT JUMPDEST PUSH1 0x0 SLOAD PUSH2 0x144 SWAP1 PUSH1 0x1 PUSH1 0x1 PUSH1 0xA0 SHL SUB AND DUP2 JUMP JUMPDEST PUSH1 0x40 MLOAD PUSH1 0x1 PUSH1 0x1 PUSH1 0xA0 SHL SUB SWAP1 SWAP2 AND DUP2 MSTORE PUSH1 0x20 ADD JUMPDEST PUSH1 0x40 MLOAD DUP1 SWAP2 SUB SWAP1 RETURN JUMPDEST PUSH2 0x169 PUSH2 0x328 JUMP JUMPDEST STOP JUMPDEST PUSH2 0x17E PUSH2 0x179 CALLDATASIZE PUSH1 0x4 PUSH2 0x3B77 JUMP JUMPDEST PUSH2 0x3E1 JUMP JUMPDEST PUSH1 0x40 MLOAD SWAP1 DUP2 MSTORE PUSH1 0x20 ADD PUSH2 0x158 JUMP JUMPDEST PUSH2 0x144 PUSH32 0x0 DUP2 JUMP JUMPDEST PUSH2 0x144 PUSH32 0x0 DUP2 JUMP JUMPDEST PUSH2 0x1ED PUSH2 0x1E8 CALLDATASIZE PUSH1 0x4 PUSH2 0x3C4A JUMP JUMPDEST PUSH2 0x971 JUMP JUMPDEST PUSH1 0x40 MLOAD PUSH2 0x158 SWAP2 SWAP1 PUSH2 0x3CFE JUMP JUMPDEST PUSH2 0x20D PUSH2 0x208 CALLDATASIZE PUSH1 0x4 PUSH2 0x3D18 JUMP JUMPDEST PUSH2 0xA09 JUMP JUMPDEST PUSH1 0x40 MLOAD PUSH2 0x158 SWAP3 SWAP2 SWAP1 PUSH2 0x3DB3 JUMP JUMPDEST PUSH2 0x1ED PUSH2 0x229 CALLDATASIZE PUSH1 0x4 PUSH2 0x3D18 JUMP JUMPDEST PUSH2 0xD3A JUMP JUMPDEST PUSH2 0x241 PUSH2 0x23C CALLDATASIZE PUSH1 0x4 PUSH2 0x3B77 JUMP JUMPDEST PUSH2 0x1259 JUMP JUMPDEST PUSH1 0x40 MLOAD PUSH2 0x158 SWAP3 SWAP2 SWAP1 PUSH2 0x3DE1 JUMP JUMPDEST PUSH2 0x144 PUSH2 0x1584 JUMP JUMPDEST PUSH2 0x169 PUSH2 0x265 CALLDATASIZE PUSH1 0x4 PUSH2 0x3DFA JUMP JUMPDEST PUSH2 0x15BD JUMP JUMPDEST PUSH2 0x17E PUSH2 0x278 CALLDATASIZE PUSH1 0x4 PUSH2 0x3E13 JUMP JUMPDEST PUSH2 0x16FC JUMP JUMPDEST PUSH2 0x17E PUSH2 0x178A JUMP JUMPDEST PUSH2 0x169 PUSH2 0x293 CALLDATASIZE PUSH1 0x4 PUSH2 0x3E86 JUMP JUMPDEST PUSH2 0x181B JUMP JUMPDEST PUSH2 0x144 PUSH32 0x0 DUP2 JUMP JUMPDEST PUSH1 0x1 SLOAD PUSH2 0x144 SWAP1 PUSH1 0x1 PUSH1 0x1 PUSH1 0xA0 SHL SUB AND DUP2 JUMP JUMPDEST PUSH2 0x169 PUSH2 0x2E0 CALLDATASIZE PUSH1 0x4 PUSH2 0x3E86 JUMP JUMPDEST PUSH2 0x1945 JUMP JUMPDEST PUSH2 0x17E PUSH1 0x34 SLOAD DUP2 JUMP JUMPDEST PUSH2 0x144 PUSH32 0x0 DUP2 JUMP JUMPDEST PUSH2 0x169 PUSH2 0x323 CALLDATASIZE PUSH1 0x4 PUSH2 0x3DFA JUMP JUMPDEST PUSH2 0x1A1A JUMP JUMPDEST PUSH1 0x1 SLOAD PUSH1 0x40 DUP1 MLOAD DUP1 DUP3 ADD SWAP1 SWAP2 MSTORE PUSH1 0x2 DUP2 MSTORE PUSH2 0x333 PUSH1 0xF4 SHL PUSH1 0x20 DUP3 ADD MSTORE SWAP1 PUSH1 0x1 PUSH1 0x1 PUSH1 0xA0 SHL SUB AND CALLER EQ PUSH2 0x376 JUMPI PUSH1 0x40 MLOAD PUSH3 0x461BCD PUSH1 0xE5 SHL DUP2 MSTORE PUSH1 0x4 ADD PUSH2 0x36D SWAP2 SWAP1 PUSH2 0x3EA3 JUMP JUMPDEST PUSH1 0x40 MLOAD DUP1 SWAP2 SUB SWAP1 REVERT JUMPDEST POP PUSH1 0x0 DUP1 SLOAD PUSH1 0x1 DUP1 SLOAD PUSH1 0x1 PUSH1 0x1 PUSH1 0xA0 SHL SUB NOT DUP1 DUP5 AND PUSH1 0x1 PUSH1 0x1 PUSH1 0xA0 SHL SUB DUP1 DUP5 AND SWAP2 SWAP1 SWAP2 OR SWAP1 SWAP6 SSTORE AND SWAP1 SSTORE PUSH1 0x40 DUP1 MLOAD SWAP3 SWAP1 SWAP2 AND DUP1 DUP4 MSTORE CALLER PUSH1 0x20 DUP5 ADD MSTORE SWAP2 PUSH32 0xDE4B3F61490B74C0ED6237523974FE299126BBBF8A8A7482FD220104C59B0C84 SWAP2 ADD JUMPDEST PUSH1 0x40 MLOAD DUP1 SWAP2 SUB SWAP1 LOG1 POP JUMP JUMPDEST PUSH1 0x0 PUSH2 0x3EB PUSH2 0x1B74 JUMP JUMPDEST PUSH1 0x0 PUSH2 0x3F7 DUP6 DUP6 PUSH2 0x1CBC JUMP JUMPDEST SWAP1 POP PUSH1 0x0 PUSH2 0x42D PUSH32 0x0 PUSH1 0x1 PUSH1 0x1 PUSH1 0xA0 SHL SUB AND PUSH2 0x1DB7 JUMP JUMPDEST PUSH1 0x1 PUSH1 0x1 PUSH1 0xA0 SHL SUB AND PUSH4 0xEF5BAC25 PUSH1 0x40 MLOAD DUP2 PUSH4 0xFFFFFFFF AND PUSH1 0xE0 SHL DUP2 MSTORE PUSH1 0x4 ADD PUSH1 0x0 PUSH1 0x40 MLOAD DUP1 DUP4 SUB DUP2 DUP7 GAS STATICCALL ISZERO DUP1 ISZERO PUSH2 0x46A JUMPI RETURNDATASIZE PUSH1 0x0 DUP1 RETURNDATACOPY RETURNDATASIZE PUSH1 0x0 REVERT JUMPDEST POP POP POP POP PUSH1 0x40 MLOAD RETURNDATASIZE PUSH1 0x0 DUP3 RETURNDATACOPY PUSH1 0x1F RETURNDATASIZE SWAP1 DUP2 ADD PUSH1 0x1F NOT AND DUP3 ADD PUSH1 0x40 MSTORE PUSH2 0x492 SWAP2 SWAP1 DUP2 ADD SWAP1 PUSH2 0x4201 JUMP JUMPDEST SWAP1 POP PUSH2 0x4C6 PUSH32 0x0 PUSH1 0x1 PUSH1 0x1 PUSH1 0xA0 SHL SUB AND PUSH2 0x1E06 JUMP JUMPDEST PUSH1 0x1 PUSH1 0x1 PUSH1 0xA0 SHL SUB AND PUSH4 0x47E41771 DUP3 PUSH1 0x40 MLOAD DUP3 PUSH4 0xFFFFFFFF AND PUSH1 0xE0 SHL DUP2 MSTORE PUSH1 0x4 ADD PUSH2 0x4F1 SWAP2 SWAP1 PUSH2 0x443A JUMP JUMPDEST PUSH1 0x0 PUSH1 0x40 MLOAD DUP1 DUP4 SUB DUP2 PUSH1 0x0 DUP8 DUP1 EXTCODESIZE ISZERO DUP1 ISZERO PUSH2 0x50B JUMPI PUSH1 0x0 DUP1 REVERT JUMPDEST POP GAS CALL ISZERO DUP1 ISZERO PUSH2 0x51F JUMPI RETURNDATASIZE PUSH1 0x0 DUP1 RETURNDATACOPY RETURNDATASIZE PUSH1 0x0 REVERT JUMPDEST POP POP POP POP PUSH2 0x555 PUSH32 0x0 PUSH1 0x1 PUSH1 0x1 PUSH1 0xA0 SHL SUB AND PUSH2 0x1E55 JUMP JUMPDEST PUSH1 0x1 PUSH1 0x1 PUSH1 0xA0 SHL SUB AND PUSH4 0x5BD98C77 DUP3 PUSH1 0x40 MLOAD DUP3 PUSH4 0xFFFFFFFF AND PUSH1 0xE0 SHL DUP2 MSTORE PUSH1 0x4 ADD PUSH2 0x580 SWAP2 SWAP1 PUSH2 0x443A JUMP JUMPDEST PUSH1 0x20 PUSH1 0x40 MLOAD DUP1 DUP4 SUB DUP2 PUSH1 0x0 DUP8 GAS CALL ISZERO DUP1 ISZERO PUSH2 0x59F JUMPI RETURNDATASIZE PUSH1 0x0 DUP1 RETURNDATACOPY RETURNDATASIZE PUSH1 0x0 REVERT JUMPDEST POP POP POP POP PUSH1 0x40 MLOAD RETURNDATASIZE PUSH1 0x1F NOT PUSH1 0x1F DUP3 ADD AND DUP3 ADD DUP1 PUSH1 0x40 MSTORE POP DUP2 ADD SWAP1 PUSH2 0x5C3 SWAP2 SWAP1 PUSH2 0x44AF JUMP JUMPDEST POP PUSH1 0x0 PUSH2 0x5D4 DUP4 DUP4 PUSH1 0x20 ADD MLOAD PUSH2 0x1E9B JUMP JUMPDEST SWAP1 POP PUSH2 0x608 PUSH32 0x0 PUSH1 0x1 PUSH1 0x1 PUSH1 0xA0 SHL SUB AND PUSH2 0x1F9A JUMP JUMPDEST PUSH1 0x1 PUSH1 0x1 PUSH1 0xA0 SHL SUB AND PUSH4 0x5D76B9D DUP3 PUSH1 0x40 MLOAD DUP3 PUSH4 0xFFFFFFFF AND PUSH1 0xE0 SHL DUP2 MSTORE PUSH1 0x4 ADD PUSH2 0x633 SWAP2 SWAP1 PUSH2 0x4550 JUMP JUMPDEST PUSH1 0x0 PUSH1 0x40 MLOAD DUP1 DUP4 SUB DUP2 PUSH1 0x0 DUP8 DUP1 EXTCODESIZE ISZERO DUP1 ISZERO PUSH2 0x64D JUMPI PUSH1 0x0 DUP1 REVERT JUMPDEST POP GAS CALL ISZERO DUP1 ISZERO PUSH2 0x661 JUMPI RETURNDATASIZE PUSH1 0x0 DUP1 RETURNDATACOPY RETURNDATASIZE PUSH1 0x0 REVERT JUMPDEST POP POP POP POP PUSH1 0x0 JUMPDEST DUP4 MLOAD DUP2 LT ISZERO PUSH2 0x6E8 JUMPI PUSH1 0x0 DUP5 DUP3 DUP2 MLOAD DUP2 LT PUSH2 0x685 JUMPI PUSH2 0x685 PUSH2 0x4563 JUMP JUMPDEST PUSH1 0x20 MUL PUSH1 0x20 ADD ADD MLOAD SWAP1 POP PUSH2 0x6D5 PUSH32 0x0 DUP3 PUSH1 0x20 ADD MLOAD DUP4 PUSH1 0x0 ADD MLOAD PUSH1 0x1 PUSH1 0x1 PUSH1 0xA0 SHL SUB AND PUSH2 0x1FE9 SWAP1 SWAP3 SWAP2 SWAP1 PUSH4 0xFFFFFFFF AND JUMP JUMPDEST POP DUP1 PUSH2 0x6E0 DUP2 PUSH2 0x458F JUMP JUMPDEST SWAP2 POP POP PUSH2 0x668 JUMP JUMPDEST POP PUSH1 0x0 PUSH2 0x71D PUSH32 0x0 PUSH1 0x1 PUSH1 0x1 PUSH1 0xA0 SHL SUB AND PUSH2 0x2051 JUMP JUMPDEST PUSH1 0x1 PUSH1 0x1 PUSH1 0xA0 SHL SUB AND PUSH4 0x3E9D87E9 DUP4 PUSH1 0x40 MLOAD DUP3 PUSH4 0xFFFFFFFF AND PUSH1 0xE0 SHL DUP2 MSTORE PUSH1 0x4 ADD PUSH2 0x748 SWAP2 SWAP1 PUSH2 0x4550 JUMP JUMPDEST PUSH1 0x0 PUSH1 0x40 MLOAD DUP1 DUP4 SUB DUP2 DUP7 GAS STATICCALL ISZERO DUP1 ISZERO PUSH2 0x765 JUMPI RETURNDATASIZE PUSH1 0x0 DUP1 RETURNDATACOPY RETURNDATASIZE PUSH1 0x0 REVERT JUMPDEST POP POP POP POP PUSH1 0x40 MLOAD RETURNDATASIZE PUSH1 0x0 DUP3 RETURNDATACOPY PUSH1 0x1F RETURNDATASIZE SWAP1 DUP2 ADD PUSH1 0x1F NOT AND DUP3 ADD PUSH1 0x40 MSTORE PUSH2 0x78D SWAP2 SWAP1 DUP2 ADD SWAP1 PUSH2 0x45A8 JUMP JUMPDEST SWAP1 POP PUSH1 0x0 PUSH2 0x79A DUP3 PUSH2 0x2096 JUMP JUMPDEST SWAP1 POP PUSH2 0x7A4 PUSH2 0x1584 JUMP JUMPDEST DUP5 MLOAD PUSH1 0x40 MLOAD PUSH4 0xD9778E5 PUSH1 0xE1 SHL DUP2 MSTORE PUSH1 0x4 DUP2 ADD DUP5 SWAP1 MSTORE PUSH1 0x24 DUP2 ADD SWAP2 SWAP1 SWAP2 MSTORE PUSH1 0x1 PUSH1 0x1 PUSH1 0xA0 SHL SUB SWAP2 SWAP1 SWAP2 AND SWAP1 PUSH4 0x1B2EF1CA SWAP1 PUSH1 0x44 ADD PUSH1 0x20 PUSH1 0x40 MLOAD DUP1 DUP4 SUB DUP2 PUSH1 0x0 DUP8 GAS CALL ISZERO DUP1 ISZERO PUSH2 0x7F7 JUMPI RETURNDATASIZE PUSH1 0x0 DUP1 RETURNDATACOPY RETURNDATASIZE PUSH1 0x0 REVERT JUMPDEST POP POP POP POP PUSH1 0x40 MLOAD RETURNDATASIZE PUSH1 0x1F NOT PUSH1 0x1F DUP3 ADD AND DUP3 ADD DUP1 PUSH1 0x40 MSTORE POP DUP2 ADD SWAP1 PUSH2 0x81B SWAP2 SWAP1 PUSH2 0x46D4 JUMP JUMPDEST SWAP6 POP DUP7 DUP7 LT ISZERO PUSH1 0x40 MLOAD DUP1 PUSH1 0x40 ADD PUSH1 0x40 MSTORE DUP1 PUSH1 0x1 DUP2 MSTORE PUSH1 0x20 ADD PUSH1 0x19 PUSH1 0xF9 SHL DUP2 MSTORE POP SWAP1 PUSH2 0x859 JUMPI PUSH1 0x40 MLOAD PUSH3 0x461BCD PUSH1 0xE5 SHL DUP2 MSTORE PUSH1 0x4 ADD PUSH2 0x36D SWAP2 SWAP1 PUSH2 0x3EA3 JUMP JUMPDEST POP PUSH2 0x863 DUP7 PUSH2 0x2137 JUMP JUMPDEST ISZERO PUSH1 0x40 MLOAD DUP1 PUSH1 0x40 ADD PUSH1 0x40 MSTORE DUP1 PUSH1 0x2 DUP2 MSTORE PUSH1 0x20 ADD PUSH2 0xD8D PUSH1 0xF2 SHL DUP2 MSTORE POP SWAP1 PUSH2 0x89D JUMPI PUSH1 0x40 MLOAD PUSH3 0x461BCD PUSH1 0xE5 SHL DUP2 MSTORE PUSH1 0x4 ADD PUSH2 0x36D SWAP2 SWAP1 PUSH2 0x3EA3 JUMP JUMPDEST POP PUSH1 0x40 MLOAD PUSH4 0x40C10F19 PUSH1 0xE0 SHL DUP2 MSTORE CALLER PUSH1 0x4 DUP3 ADD MSTORE PUSH1 0x24 DUP2 ADD DUP8 SWAP1 MSTORE PUSH32 0x0 PUSH1 0x1 PUSH1 0x1 PUSH1 0xA0 SHL SUB AND SWAP1 PUSH4 0x40C10F19 SWAP1 PUSH1 0x44 ADD PUSH1 0x0 PUSH1 0x40 MLOAD DUP1 DUP4 SUB DUP2 PUSH1 0x0 DUP8 DUP1 EXTCODESIZE ISZERO DUP1 ISZERO PUSH2 0x906 JUMPI PUSH1 0x0 DUP1 REVERT JUMPDEST POP GAS CALL ISZERO DUP1 ISZERO PUSH2 0x91A JUMPI RETURNDATASIZE PUSH1 0x0 DUP1 RETURNDATACOPY RETURNDATASIZE PUSH1 0x0 REVERT JUMPDEST POP POP POP POP CALLER PUSH1 0x1 PUSH1 0x1 PUSH1 0xA0 SHL SUB AND PUSH32 0xE6B487AE7843FCF6C728CBBD5F0F22D17C1EBBCFFF196F4BB61550DACA65BE9 DUP8 DUP4 DUP7 DUP7 PUSH1 0x40 MLOAD PUSH2 0x95D SWAP5 SWAP4 SWAP3 SWAP2 SWAP1 PUSH2 0x46ED JUMP JUMPDEST PUSH1 0x40 MLOAD DUP1 SWAP2 SUB SWAP1 LOG2 POP POP POP POP POP SWAP4 SWAP3 POP POP POP JUMP JUMPDEST PUSH1 0x40 MLOAD PUSH4 0x5C12C8E7 PUSH1 0xE0 SHL DUP2 MSTORE PUSH1 0x60 SWAP1 PUSH1 0x1 PUSH1 0x1 PUSH1 0xA0 SHL SUB PUSH32 0x0 AND SWAP1 PUSH4 0x5C12C8E7 SWAP1 PUSH2 0x9C2 SWAP1 DUP7 SWAP1 DUP7 SWAP1 PUSH1 0x4 ADD PUSH2 0x471E JUMP JUMPDEST PUSH1 0x0 PUSH1 0x40 MLOAD DUP1 DUP4 SUB DUP2 PUSH1 0x0 DUP8 DUP1 EXTCODESIZE ISZERO DUP1 ISZERO PUSH2 0x9DC JUMPI PUSH1 0x0 DUP1 REVERT JUMPDEST POP GAS CALL ISZERO DUP1 ISZERO PUSH2 0x9F0 JUMPI RETURNDATASIZE PUSH1 0x0 DUP1 RETURNDATACOPY RETURNDATASIZE PUSH1 0x0 REVERT JUMPDEST POP POP POP POP PUSH2 0x9FF DUP7 DUP7 DUP7 PUSH2 0xD3A JUMP JUMPDEST SWAP7 SWAP6 POP POP POP POP POP POP JUMP JUMPDEST PUSH1 0x60 DUP1 DUP3 PUSH1 0x1 PUSH1 0x1 PUSH1 0x40 SHL SUB DUP2 GT ISZERO PUSH2 0xA24 JUMPI PUSH2 0xA24 PUSH2 0x3EB6 JUMP JUMPDEST PUSH1 0x40 MLOAD SWAP1 DUP1 DUP3 MSTORE DUP1 PUSH1 0x20 MUL PUSH1 0x20 ADD DUP3 ADD PUSH1 0x40 MSTORE DUP1 ISZERO PUSH2 0xA4D JUMPI DUP2 PUSH1 0x20 ADD PUSH1 0x20 DUP3 MUL DUP1 CALLDATASIZE DUP4 CALLDATACOPY ADD SWAP1 POP JUMPDEST POP SWAP2 POP PUSH2 0xA58 PUSH2 0x178A JUMP JUMPDEST DUP6 GT ISZERO PUSH2 0xA7F JUMPI POP PUSH1 0x40 DUP1 MLOAD DUP1 DUP3 ADD SWAP1 SWAP2 MSTORE PUSH1 0x3 DUP2 MSTORE PUSH3 0xC4C0D PUSH1 0xEA SHL PUSH1 0x20 DUP3 ADD MSTORE PUSH2 0xD32 JUMP JUMPDEST PUSH1 0x0 PUSH2 0xAB3 PUSH32 0x0 PUSH1 0x1 PUSH1 0x1 PUSH1 0xA0 SHL SUB AND PUSH2 0x1DB7 JUMP JUMPDEST PUSH1 0x1 PUSH1 0x1 PUSH1 0xA0 SHL SUB AND PUSH4 0xEF5BAC25 PUSH1 0x40 MLOAD DUP2 PUSH4 0xFFFFFFFF AND PUSH1 0xE0 SHL DUP2 MSTORE PUSH1 0x4 ADD PUSH1 0x0 PUSH1 0x40 MLOAD DUP1 DUP4 SUB DUP2 DUP7 GAS STATICCALL ISZERO DUP1 ISZERO PUSH2 0xAF0 JUMPI RETURNDATASIZE PUSH1 0x0 DUP1 RETURNDATACOPY RETURNDATASIZE PUSH1 0x0 REVERT JUMPDEST POP POP POP POP PUSH1 0x40 MLOAD RETURNDATASIZE PUSH1 0x0 DUP3 RETURNDATACOPY PUSH1 0x1F RETURNDATASIZE SWAP1 DUP2 ADD PUSH1 0x1F NOT AND DUP3 ADD PUSH1 0x40 MSTORE PUSH2 0xB18 SWAP2 SWAP1 DUP2 ADD SWAP1 PUSH2 0x4201 JUMP JUMPDEST SWAP1 POP PUSH1 0x0 PUSH2 0xB2E PUSH2 0xB27 PUSH2 0x2204 JUMP JUMPDEST DUP4 SWAP1 PUSH2 0x2238 JUMP JUMPDEST SWAP1 POP PUSH1 0x0 PUSH2 0xB3A PUSH2 0x1584 JUMP JUMPDEST PUSH1 0x40 MLOAD PUSH4 0x1C76D8FB PUSH1 0xE2 SHL DUP2 MSTORE PUSH1 0x4 DUP2 ADD DUP11 SWAP1 MSTORE PUSH1 0x24 DUP2 ADD DUP5 SWAP1 MSTORE PUSH1 0x1 PUSH1 0x1 PUSH1 0xA0 SHL SUB SWAP2 SWAP1 SWAP2 AND SWAP1 PUSH4 0x71DB63EC SWAP1 PUSH1 0x44 ADD PUSH1 0x20 PUSH1 0x40 MLOAD DUP1 DUP4 SUB DUP2 DUP7 GAS STATICCALL ISZERO DUP1 ISZERO PUSH2 0xB88 JUMPI RETURNDATASIZE PUSH1 0x0 DUP1 RETURNDATACOPY RETURNDATASIZE PUSH1 0x0 REVERT JUMPDEST POP POP POP POP PUSH1 0x40 MLOAD RETURNDATASIZE PUSH1 0x1F NOT PUSH1 0x1F DUP3 ADD AND DUP3 ADD DUP1 PUSH1 0x40 MSTORE POP DUP2 ADD SWAP1 PUSH2 0xBAC SWAP2 SWAP1 PUSH2 0x46D4 JUMP JUMPDEST SWAP1 POP PUSH1 0x0 PUSH2 0xBC0 DUP3 DUP10 DUP10 DUP8 PUSH1 0x20 ADD MLOAD PUSH2 0x22C6 JUMP JUMPDEST SWAP1 POP PUSH2 0xBF4 PUSH32 0x0 PUSH1 0x1 PUSH1 0x1 PUSH1 0xA0 SHL SUB AND PUSH2 0x1F9A JUMP JUMPDEST PUSH1 0x1 PUSH1 0x1 PUSH1 0xA0 SHL SUB AND PUSH4 0x1C46E999 DUP3 PUSH1 0x40 MLOAD DUP3 PUSH4 0xFFFFFFFF AND PUSH1 0xE0 SHL DUP2 MSTORE PUSH1 0x4 ADD PUSH2 0xC1F SWAP2 SWAP1 PUSH2 0x4550 JUMP JUMPDEST PUSH1 0x0 PUSH1 0x40 MLOAD DUP1 DUP4 SUB DUP2 DUP7 GAS STATICCALL ISZERO DUP1 ISZERO PUSH2 0xC3C JUMPI RETURNDATASIZE PUSH1 0x0 DUP1 RETURNDATACOPY RETURNDATASIZE PUSH1 0x0 REVERT JUMPDEST POP POP POP POP PUSH1 0x40 MLOAD RETURNDATASIZE PUSH1 0x0 DUP3 RETURNDATACOPY PUSH1 0x1F RETURNDATASIZE SWAP1 DUP2 ADD PUSH1 0x1F NOT AND DUP3 ADD PUSH1 0x40 MSTORE PUSH2 0xC64 SWAP2 SWAP1 DUP2 ADD SWAP1 PUSH2 0x4867 JUMP JUMPDEST DUP1 MLOAD SWAP1 SWAP6 POP ISZERO PUSH2 0xC77 JUMPI POP POP POP POP PUSH2 0xD32 JUMP JUMPDEST PUSH1 0x0 PUSH2 0xCAB PUSH32 0x0 PUSH1 0x1 PUSH1 0x1 PUSH1 0xA0 SHL SUB AND PUSH2 0x2051 JUMP JUMPDEST PUSH1 0x1 PUSH1 0x1 PUSH1 0xA0 SHL SUB AND PUSH4 0x3E9D87E9 DUP4 PUSH1 0x40 MLOAD DUP3 PUSH4 0xFFFFFFFF AND PUSH1 0xE0 SHL DUP2 MSTORE PUSH1 0x4 ADD PUSH2 0xCD6 SWAP2 SWAP1 PUSH2 0x4550 JUMP JUMPDEST PUSH1 0x0 PUSH1 0x40 MLOAD DUP1 DUP4 SUB DUP2 DUP7 GAS STATICCALL ISZERO DUP1 ISZERO PUSH2 0xCF3 JUMPI RETURNDATASIZE PUSH1 0x0 DUP1 RETURNDATACOPY RETURNDATASIZE PUSH1 0x0 REVERT JUMPDEST POP POP POP POP PUSH1 0x40 MLOAD RETURNDATASIZE PUSH1 0x0 DUP3 RETURNDATACOPY PUSH1 0x1F RETURNDATASIZE SWAP1 DUP2 ADD PUSH1 0x1F NOT AND DUP3 ADD PUSH1 0x40 MSTORE PUSH2 0xD1B SWAP2 SWAP1 DUP2 ADD SWAP1 PUSH2 0x45A8 JUMP JUMPDEST SWAP1 POP PUSH2 0xD28 DUP10 DUP10 DUP4 PUSH2 0x243A JUMP JUMPDEST SWAP7 POP SWAP7 POP POP POP POP POP POP JUMPDEST SWAP4 POP SWAP4 SWAP2 POP POP JUMP JUMPDEST PUSH1 0x60 PUSH2 0xD44 PUSH2 0x1B74 JUMP JUMPDEST PUSH2 0xD4C PUSH2 0x178A JUMP JUMPDEST DUP5 GT ISZERO PUSH1 0x40 MLOAD DUP1 PUSH1 0x40 ADD PUSH1 0x40 MSTORE DUP1 PUSH1 0x3 DUP2 MSTORE PUSH1 0x20 ADD PUSH3 0xC4C0D PUSH1 0xEA SHL DUP2 MSTORE POP SWAP1 PUSH2 0xD89 JUMPI PUSH1 0x40 MLOAD PUSH3 0x461BCD PUSH1 0xE5 SHL DUP2 MSTORE PUSH1 0x4 ADD PUSH2 0x36D SWAP2 SWAP1 PUSH2 0x3EA3 JUMP JUMPDEST POP PUSH1 0x0 PUSH2 0xDBE PUSH32 0x0 PUSH1 0x1 PUSH1 0x1 PUSH1 0xA0 SHL SUB AND PUSH2 0x1DB7 JUMP JUMPDEST PUSH1 0x1 PUSH1 0x1 PUSH1 0xA0 SHL SUB AND PUSH4 0xEF5BAC25 PUSH1 0x40 MLOAD DUP2 PUSH4 0xFFFFFFFF AND PUSH1 0xE0 SHL DUP2 MSTORE PUSH1 0x4 ADD PUSH1 0x0 PUSH1 0x40 MLOAD DUP1 DUP4 SUB DUP2 DUP7 GAS STATICCALL ISZERO DUP1 ISZERO PUSH2 0xDFB JUMPI RETURNDATASIZE PUSH1 0x0 DUP1 RETURNDATACOPY RETURNDATASIZE PUSH1 0x0 REVERT JUMPDEST POP POP POP POP PUSH1 0x40 MLOAD RETURNDATASIZE PUSH1 0x0 DUP3 RETURNDATACOPY PUSH1 0x1F RETURNDATASIZE SWAP1 DUP2 ADD PUSH1 0x1F NOT AND DUP3 ADD PUSH1 0x40 MSTORE PUSH2 0xE23 SWAP2 SWAP1 DUP2 ADD SWAP1 PUSH2 0x4201 JUMP JUMPDEST SWAP1 POP PUSH1 0x0 PUSH2 0xE32 PUSH2 0xB27 PUSH2 0x2204 JUMP JUMPDEST SWAP1 POP PUSH2 0xE66 PUSH32 0x0 PUSH1 0x1 PUSH1 0x1 PUSH1 0xA0 SHL SUB AND PUSH2 0x1E06 JUMP JUMPDEST PUSH1 0x1 PUSH1 0x1 PUSH1 0xA0 SHL SUB AND PUSH4 0x47E41771 DUP4 PUSH1 0x40 MLOAD DUP3 PUSH4 0xFFFFFFFF AND PUSH1 0xE0 SHL DUP2 MSTORE PUSH1 0x4 ADD PUSH2 0xE91 SWAP2 SWAP1 PUSH2 0x443A JUMP JUMPDEST PUSH1 0x0 PUSH1 0x40 MLOAD DUP1 DUP4 SUB DUP2 PUSH1 0x0 DUP8 DUP1 EXTCODESIZE ISZERO DUP1 ISZERO PUSH2 0xEAB JUMPI PUSH1 0x0 DUP1 REVERT JUMPDEST POP GAS CALL ISZERO DUP1 ISZERO PUSH2 0xEBF JUMPI RETURNDATASIZE PUSH1 0x0 DUP1 RETURNDATACOPY RETURNDATASIZE PUSH1 0x0 REVERT JUMPDEST POP POP POP POP PUSH2 0xEF5 PUSH32 0x0 PUSH1 0x1 PUSH1 0x1 PUSH1 0xA0 SHL SUB AND PUSH2 0x1E55 JUMP JUMPDEST PUSH1 0x1 PUSH1 0x1 PUSH1 0xA0 SHL SUB AND PUSH4 0x5BD98C77 DUP4 PUSH1 0x40 MLOAD DUP3 PUSH4 0xFFFFFFFF AND PUSH1 0xE0 SHL DUP2 MSTORE PUSH1 0x4 ADD PUSH2 0xF20 SWAP2 SWAP1 PUSH2 0x443A JUMP JUMPDEST PUSH1 0x20 PUSH1 0x40 MLOAD DUP1 DUP4 SUB DUP2 PUSH1 0x0 DUP8 GAS CALL ISZERO DUP1 ISZERO PUSH2 0xF3F JUMPI RETURNDATASIZE PUSH1 0x0 DUP1 RETURNDATACOPY RETURNDATASIZE PUSH1 0x0 REVERT JUMPDEST POP POP POP POP PUSH1 0x40 MLOAD RETURNDATASIZE PUSH1 0x1F NOT PUSH1 0x1F DUP3 ADD AND DUP3 ADD DUP1 PUSH1 0x40 MSTORE POP DUP2 ADD SWAP1 PUSH2 0xF63 SWAP2 SWAP1 PUSH2 0x44AF JUMP JUMPDEST POP PUSH1 0x0 PUSH2 0xF6E PUSH2 0x1584 JUMP JUMPDEST PUSH1 0x40 MLOAD PUSH4 0x7CBC2373 PUSH1 0xE0 SHL DUP2 MSTORE PUSH1 0x4 DUP2 ADD DUP10 SWAP1 MSTORE PUSH1 0x24 DUP2 ADD DUP5 SWAP1 MSTORE PUSH1 0x1 PUSH1 0x1 PUSH1 0xA0 SHL SUB SWAP2 SWAP1 SWAP2 AND SWAP1 PUSH4 0x7CBC2373 SWAP1 PUSH1 0x44 ADD PUSH1 0x20 PUSH1 0x40 MLOAD DUP1 DUP4 SUB DUP2 PUSH1 0x0 DUP8 GAS CALL ISZERO DUP1 ISZERO PUSH2 0xFBE JUMPI RETURNDATASIZE PUSH1 0x0 DUP1 RETURNDATACOPY RETURNDATASIZE PUSH1 0x0 REVERT JUMPDEST POP POP POP POP PUSH1 0x40 MLOAD RETURNDATASIZE PUSH1 0x1F NOT PUSH1 0x1F DUP3 ADD AND DUP3 ADD DUP1 PUSH1 0x40 MSTORE POP DUP2 ADD SWAP1 PUSH2 0xFE2 SWAP2 SWAP1 PUSH2 0x46D4 JUMP JUMPDEST SWAP1 POP PUSH2 0x1006 PUSH2 0xFFF PUSH6 0x9184E72A000 PUSH8 0xDE0B6B3A7640000 PUSH2 0x489B JUMP JUMPDEST DUP9 SWAP1 PUSH2 0x255B JUMP JUMPDEST DUP2 GT ISZERO PUSH1 0x40 MLOAD DUP1 PUSH1 0x40 ADD PUSH1 0x40 MSTORE DUP1 PUSH1 0x3 DUP2 MSTORE PUSH1 0x20 ADD PUSH3 0x31303 PUSH1 0xEC SHL DUP2 MSTORE POP SWAP1 PUSH2 0x1043 JUMPI PUSH1 0x40 MLOAD PUSH3 0x461BCD PUSH1 0xE5 SHL DUP2 MSTORE PUSH1 0x4 ADD PUSH2 0x36D SWAP2 SWAP1 PUSH2 0x3EA3 JUMP JUMPDEST POP PUSH1 0x40 MLOAD PUSH4 0x79CC679 PUSH1 0xE4 SHL DUP2 MSTORE CALLER PUSH1 0x4 DUP3 ADD MSTORE PUSH1 0x24 DUP2 ADD DUP9 SWAP1 MSTORE PUSH32 0x0 PUSH1 0x1 PUSH1 0x1 PUSH1 0xA0 SHL SUB AND SWAP1 PUSH4 0x79CC6790 SWAP1 PUSH1 0x44 ADD PUSH1 0x0 PUSH1 0x40 MLOAD DUP1 DUP4 SUB DUP2 PUSH1 0x0 DUP8 DUP1 EXTCODESIZE ISZERO DUP1 ISZERO PUSH2 0x10AC JUMPI PUSH1 0x0 DUP1 REVERT JUMPDEST POP GAS CALL ISZERO DUP1 ISZERO PUSH2 0x10C0 JUMPI RETURNDATASIZE PUSH1 0x0 DUP1 RETURNDATACOPY RETURNDATASIZE PUSH1 0x0 REVERT JUMPDEST POP POP POP POP PUSH1 0x0 PUSH2 0x10D6 DUP3 DUP9 DUP9 DUP8 PUSH1 0x20 ADD MLOAD PUSH2 0x22C6 JUMP JUMPDEST SWAP1 POP PUSH2 0x110A PUSH32 0x0 PUSH1 0x1 PUSH1 0x1 PUSH1 0xA0 SHL SUB AND PUSH2 0x1F9A JUMP JUMPDEST PUSH1 0x1 PUSH1 0x1 PUSH1 0xA0 SHL SUB AND PUSH4 0x59A047E9 DUP3 PUSH1 0x40 MLOAD DUP3 PUSH4 0xFFFFFFFF AND PUSH1 0xE0 SHL DUP2 MSTORE PUSH1 0x4 ADD PUSH2 0x1135 SWAP2 SWAP1 PUSH2 0x4550 JUMP JUMPDEST PUSH1 0x0 PUSH1 0x40 MLOAD DUP1 DUP4 SUB DUP2 PUSH1 0x0 DUP8 DUP1 EXTCODESIZE ISZERO DUP1 ISZERO PUSH2 0x114F JUMPI PUSH1 0x0 DUP1 REVERT JUMPDEST POP GAS CALL ISZERO DUP1 ISZERO PUSH2 0x1163 JUMPI RETURNDATASIZE PUSH1 0x0 DUP1 RETURNDATACOPY RETURNDATASIZE PUSH1 0x0 REVERT JUMPDEST POP POP POP POP PUSH1 0x0 PUSH2 0x119B PUSH32 0x0 PUSH1 0x1 PUSH1 0x1 PUSH1 0xA0 SHL SUB AND PUSH2 0x2051 JUMP JUMPDEST PUSH1 0x1 PUSH1 0x1 PUSH1 0xA0 SHL SUB AND PUSH4 0x3E9D87E9 DUP4 PUSH1 0x40 MLOAD DUP3 PUSH4 0xFFFFFFFF AND PUSH1 0xE0 SHL DUP2 MSTORE PUSH1 0x4 ADD PUSH2 0x11C6 SWAP2 SWAP1 PUSH2 0x4550 JUMP JUMPDEST PUSH1 0x0 PUSH1 0x40 MLOAD DUP1 DUP4 SUB DUP2 DUP7 GAS STATICCALL ISZERO DUP1 ISZERO PUSH2 0x11E3 JUMPI RETURNDATASIZE PUSH1 0x0 DUP1 RETURNDATACOPY RETURNDATASIZE PUSH1 0x0 REVERT JUMPDEST POP POP POP POP PUSH1 0x40 MLOAD RETURNDATASIZE PUSH1 0x0 DUP3 RETURNDATACOPY PUSH1 0x1F RETURNDATASIZE SWAP1 DUP2 ADD PUSH1 0x1F NOT AND DUP3 ADD PUSH1 0x40 MSTORE PUSH2 0x120B SWAP2 SWAP1 DUP2 ADD SWAP1 PUSH2 0x45A8 JUMP JUMPDEST SWAP1 POP PUSH2 0x1218 DUP9 DUP9 DUP4 PUSH2 0x257C JUMP JUMPDEST SWAP6 POP CALLER PUSH1 0x1 PUSH1 0x1 PUSH1 0xA0 SHL SUB AND PUSH32 0x9011CED5E66E56FB73E6022EFF4E35B5082BC30C39774D4B9E047668E4E7781E DUP11 DUP6 DUP6 DUP6 PUSH1 0x40 MLOAD PUSH2 0x95D SWAP5 SWAP4 SWAP3 SWAP2 SWAP1 PUSH2 0x46ED JUMP JUMPDEST PUSH1 0x0 PUSH1 0x60 DUP1 PUSH2 0x1268 DUP7 DUP7 PUSH2 0x26A8 JUMP JUMPDEST DUP1 MLOAD SWAP1 SWAP4 POP SWAP1 SWAP2 POP ISZERO PUSH2 0x127F JUMPI PUSH1 0x0 SWAP3 POP POP PUSH2 0xD32 JUMP JUMPDEST PUSH1 0x0 PUSH2 0x12B3 PUSH32 0x0 PUSH1 0x1 PUSH1 0x1 PUSH1 0xA0 SHL SUB AND PUSH2 0x1DB7 JUMP JUMPDEST PUSH1 0x1 PUSH1 0x1 PUSH1 0xA0 SHL SUB AND PUSH4 0xEF5BAC25 PUSH1 0x40 MLOAD DUP2 PUSH4 0xFFFFFFFF AND PUSH1 0xE0 SHL DUP2 MSTORE PUSH1 0x4 ADD PUSH1 0x0 PUSH1 0x40 MLOAD DUP1 DUP4 SUB DUP2 DUP7 GAS STATICCALL ISZERO DUP1 ISZERO PUSH2 0x12F0 JUMPI RETURNDATASIZE PUSH1 0x0 DUP1 RETURNDATACOPY RETURNDATASIZE PUSH1 0x0 REVERT JUMPDEST POP POP POP POP PUSH1 0x40 MLOAD RETURNDATASIZE PUSH1 0x0 DUP3 RETURNDATACOPY PUSH1 0x1F RETURNDATASIZE SWAP1 DUP2 ADD PUSH1 0x1F NOT AND DUP3 ADD PUSH1 0x40 MSTORE PUSH2 0x1318 SWAP2 SWAP1 DUP2 ADD SWAP1 PUSH2 0x4201 JUMP JUMPDEST SWAP1 POP PUSH1 0x0 PUSH2 0x132A DUP4 DUP4 PUSH1 0x20 ADD MLOAD PUSH2 0x1E9B JUMP JUMPDEST SWAP1 POP PUSH2 0x135E PUSH32 0x0 PUSH1 0x1 PUSH1 0x1 PUSH1 0xA0 SHL SUB AND PUSH2 0x1F9A JUMP JUMPDEST PUSH1 0x1 PUSH1 0x1 PUSH1 0xA0 SHL SUB AND PUSH4 0x9109B8A3 DUP3 PUSH1 0x40 MLOAD DUP3 PUSH4 0xFFFFFFFF AND PUSH1 0xE0 SHL DUP2 MSTORE PUSH1 0x4 ADD PUSH2 0x1389 SWAP2 SWAP1 PUSH2 0x4550 JUMP JUMPDEST PUSH1 0x0 PUSH1 0x40 MLOAD DUP1 DUP4 SUB DUP2 DUP7 GAS STATICCALL ISZERO DUP1 ISZERO PUSH2 0x13A6 JUMPI RETURNDATASIZE PUSH1 0x0 DUP1 RETURNDATACOPY RETURNDATASIZE PUSH1 0x0 REVERT JUMPDEST POP POP POP POP PUSH1 0x40 MLOAD RETURNDATASIZE PUSH1 0x0 DUP3 RETURNDATACOPY PUSH1 0x1F RETURNDATASIZE SWAP1 DUP2 ADD PUSH1 0x1F NOT AND DUP3 ADD PUSH1 0x40 MSTORE PUSH2 0x13CE SWAP2 SWAP1 DUP2 ADD SWAP1 PUSH2 0x4867 JUMP JUMPDEST DUP1 MLOAD SWAP1 SWAP5 POP ISZERO PUSH2 0x13E4 JUMPI PUSH1 0x0 SWAP5 POP POP POP POP PUSH2 0xD32 JUMP JUMPDEST PUSH1 0x0 PUSH2 0x1418 PUSH32 0x0 PUSH1 0x1 PUSH1 0x1 PUSH1 0xA0 SHL SUB AND PUSH2 0x2051 JUMP JUMPDEST PUSH1 0x1 PUSH1 0x1 PUSH1 0xA0 SHL SUB AND PUSH4 0x3E9D87E9 DUP4 PUSH1 0x40 MLOAD DUP3 PUSH4 0xFFFFFFFF AND PUSH1 0xE0 SHL DUP2 MSTORE PUSH1 0x4 ADD PUSH2 0x1443 SWAP2 SWAP1 PUSH2 0x4550 JUMP JUMPDEST PUSH1 0x0 PUSH1 0x40 MLOAD DUP1 DUP4 SUB DUP2 DUP7 GAS STATICCALL ISZERO DUP1 ISZERO PUSH2 0x1460 JUMPI RETURNDATASIZE PUSH1 0x0 DUP1 RETURNDATACOPY RETURNDATASIZE PUSH1 0x0 REVERT JUMPDEST POP POP POP POP PUSH1 0x40 MLOAD RETURNDATASIZE PUSH1 0x0 DUP3 RETURNDATACOPY PUSH1 0x1F RETURNDATASIZE SWAP1 DUP2 ADD PUSH1 0x1F NOT AND DUP3 ADD PUSH1 0x40 MSTORE PUSH2 0x1488 SWAP2 SWAP1 DUP2 ADD SWAP1 PUSH2 0x45A8 JUMP JUMPDEST SWAP1 POP PUSH1 0x0 PUSH2 0x1495 DUP3 PUSH2 0x2096 JUMP JUMPDEST SWAP1 POP PUSH2 0x149F PUSH2 0x1584 JUMP JUMPDEST DUP5 MLOAD PUSH1 0x40 MLOAD PUSH4 0x616A1ED9 PUSH1 0xE0 SHL DUP2 MSTORE PUSH1 0x4 DUP2 ADD DUP5 SWAP1 MSTORE PUSH1 0x24 DUP2 ADD SWAP2 SWAP1 SWAP2 MSTORE PUSH1 0x1 PUSH1 0x1 PUSH1 0xA0 SHL SUB SWAP2 SWAP1 SWAP2 AND SWAP1 PUSH4 0x616A1ED9 SWAP1 PUSH1 0x44 ADD PUSH1 0x20 PUSH1 0x40 MLOAD DUP1 DUP4 SUB DUP2 DUP7 GAS STATICCALL ISZERO DUP1 ISZERO PUSH2 0x14F0 JUMPI RETURNDATASIZE PUSH1 0x0 DUP1 RETURNDATACOPY RETURNDATASIZE PUSH1 0x0 REVERT JUMPDEST POP POP POP POP PUSH1 0x40 MLOAD RETURNDATASIZE PUSH1 0x1F NOT PUSH1 0x1F DUP3 ADD AND DUP3 ADD DUP1 PUSH1 0x40 MSTORE POP DUP2 ADD SWAP1 PUSH2 0x1514 SWAP2 SWAP1 PUSH2 0x46D4 JUMP JUMPDEST SWAP7 POP DUP8 DUP8 LT ISZERO PUSH2 0x1543 JUMPI POP POP PUSH1 0x40 DUP1 MLOAD DUP1 DUP3 ADD SWAP1 SWAP2 MSTORE PUSH1 0x1 DUP2 MSTORE PUSH1 0x19 PUSH1 0xF9 SHL PUSH1 0x20 DUP3 ADD MSTORE SWAP4 POP PUSH2 0xD32 SWAP3 POP POP POP JUMP JUMPDEST PUSH2 0x154C DUP8 PUSH2 0x2137 JUMP JUMPDEST ISZERO PUSH2 0x1577 JUMPI POP POP PUSH1 0x40 DUP1 MLOAD DUP1 DUP3 ADD SWAP1 SWAP2 MSTORE PUSH1 0x2 DUP2 MSTORE PUSH2 0xD8D PUSH1 0xF2 SHL PUSH1 0x20 DUP3 ADD MSTORE SWAP4 POP PUSH2 0xD32 SWAP3 POP POP POP JUMP JUMPDEST POP POP POP POP POP SWAP4 POP SWAP4 SWAP2 POP POP JUMP JUMPDEST PUSH1 0x0 PUSH2 0x15B8 PUSH32 0x0 PUSH1 0x1 PUSH1 0x1 PUSH1 0xA0 SHL SUB AND PUSH2 0x27BC JUMP JUMPDEST SWAP1 POP SWAP1 JUMP JUMPDEST PUSH2 0x15EF PUSH32 0x0 PUSH1 0x1 PUSH1 0x1 PUSH1 0xA0 SHL SUB AND PUSH2 0x1E06 JUMP JUMPDEST PUSH1 0x1 PUSH1 0x1 PUSH1 0xA0 SHL SUB AND CALLER PUSH1 0x1 PUSH1 0x1 PUSH1 0xA0 SHL SUB AND EQ PUSH1 0x40 MLOAD DUP1 PUSH1 0x40 ADD PUSH1 0x40 MSTORE DUP1 PUSH1 0x2 DUP2 MSTORE PUSH1 0x20 ADD PUSH2 0x333 PUSH1 0xF4 SHL DUP2 MSTORE POP SWAP1 PUSH2 0x163C JUMPI PUSH1 0x40 MLOAD PUSH3 0x461BCD PUSH1 0xE5 SHL DUP2 MSTORE PUSH1 0x4 ADD PUSH2 0x36D SWAP2 SWAP1 PUSH2 0x3EA3 JUMP JUMPDEST POP PUSH1 0x0 PUSH2 0x1671 PUSH32 0x0 PUSH1 0x1 PUSH1 0x1 PUSH1 0xA0 SHL SUB AND PUSH2 0x27FA JUMP JUMPDEST PUSH1 0x40 MLOAD PUSH4 0x40C10F19 PUSH1 0xE0 SHL DUP2 MSTORE PUSH1 0x1 PUSH1 0x1 PUSH1 0xA0 SHL SUB DUP1 DUP4 AND PUSH1 0x4 DUP4 ADD MSTORE PUSH1 0x24 DUP3 ADD DUP6 SWAP1 MSTORE SWAP2 SWAP3 POP PUSH32 0x0 SWAP1 SWAP2 AND SWAP1 PUSH4 0x40C10F19 SWAP1 PUSH1 0x44 ADD PUSH1 0x0 PUSH1 0x40 MLOAD DUP1 DUP4 SUB DUP2 PUSH1 0x0 DUP8 DUP1 EXTCODESIZE ISZERO DUP1 ISZERO PUSH2 0x16E0 JUMPI PUSH1 0x0 DUP1 REVERT JUMPDEST POP GAS CALL ISZERO DUP1 ISZERO PUSH2 0x16F4 JUMPI RETURNDATASIZE PUSH1 0x0 DUP1 RETURNDATACOPY RETURNDATASIZE PUSH1 0x0 REVERT JUMPDEST POP POP POP POP POP POP JUMP JUMPDEST PUSH1 0x40 MLOAD PUSH4 0x5C12C8E7 PUSH1 0xE0 SHL DUP2 MSTORE PUSH1 0x0 SWAP1 PUSH1 0x1 PUSH1 0x1 PUSH1 0xA0 SHL SUB PUSH32 0x0 AND SWAP1 PUSH4 0x5C12C8E7 SWAP1 PUSH2 0x174D SWAP1 DUP7 SWAP1 DUP7 SWAP1 PUSH1 0x4 ADD PUSH2 0x471E JUMP JUMPDEST PUSH1 0x0 PUSH1 0x40 MLOAD DUP1 DUP4 SUB DUP2 PUSH1 0x0 DUP8 DUP1 EXTCODESIZE ISZERO DUP1 ISZERO PUSH2 0x1767 JUMPI PUSH1 0x0 DUP1 REVERT JUMPDEST POP GAS CALL ISZERO DUP1 ISZERO PUSH2 0x177B JUMPI RETURNDATASIZE PUSH1 0x0 DUP1 RETURNDATACOPY RETURNDATASIZE PUSH1 0x0 REVERT JUMPDEST POP POP POP POP PUSH2 0x9FF DUP7 DUP7 DUP7 PUSH2 0x3E1 JUMP JUMPDEST PUSH1 0x0 PUSH1 0x34 SLOAD PUSH32 0x0 PUSH1 0x1 PUSH1 0x1 PUSH1 0xA0 SHL SUB AND PUSH4 0x18160DDD PUSH1 0x40 MLOAD DUP2 PUSH4 0xFFFFFFFF AND PUSH1 0xE0 SHL DUP2 MSTORE PUSH1 0x4 ADD PUSH1 0x20 PUSH1 0x40 MLOAD DUP1 DUP4 SUB DUP2 DUP7 GAS STATICCALL ISZERO DUP1 ISZERO PUSH2 0x17ED JUMPI RETURNDATASIZE PUSH1 0x0 DUP1 RETURNDATACOPY RETURNDATASIZE PUSH1 0x0 REVERT JUMPDEST POP POP POP POP PUSH1 0x40 MLOAD RETURNDATASIZE PUSH1 0x1F NOT PUSH1 0x1F DUP3 ADD AND DUP3 ADD DUP1 PUSH1 0x40 MSTORE POP DUP2 ADD SWAP1 PUSH2 0x1811 SWAP2 SWAP1 PUSH2 0x46D4 JUMP JUMPDEST PUSH2 0x15B8 SWAP2 SWAP1 PUSH2 0x48AE JUMP JUMPDEST PUSH1 0x1 SLOAD PUSH1 0x1 PUSH1 0xA8 SHL SWAP1 DIV PUSH1 0xFF AND ISZERO DUP1 DUP1 ISZERO PUSH2 0x1841 JUMPI POP PUSH1 0x1 DUP1 SLOAD PUSH1 0x1 PUSH1 0xA0 SHL SWAP1 DIV PUSH1 0xFF AND LT JUMPDEST DUP1 PUSH2 0x1861 JUMPI POP ADDRESS EXTCODESIZE ISZERO DUP1 ISZERO PUSH2 0x1861 JUMPI POP PUSH1 0x1 DUP1 SLOAD PUSH1 0x1 PUSH1 0xA0 SHL SWAP1 DIV PUSH1 0xFF AND EQ JUMPDEST PUSH2 0x18C4 JUMPI PUSH1 0x40 MLOAD PUSH3 0x461BCD PUSH1 0xE5 SHL DUP2 MSTORE PUSH1 0x20 PUSH1 0x4 DUP3 ADD MSTORE PUSH1 0x2E PUSH1 0x24 DUP3 ADD MSTORE PUSH32 0x496E697469616C697A61626C653A20636F6E747261637420697320616C726561 PUSH1 0x44 DUP3 ADD MSTORE PUSH14 0x191E481A5B9A5D1A585B1A5E9959 PUSH1 0x92 SHL PUSH1 0x64 DUP3 ADD MSTORE PUSH1 0x84 ADD PUSH2 0x36D JUMP JUMPDEST PUSH1 0x1 DUP1 SLOAD PUSH1 0xFF PUSH1 0xA0 SHL NOT AND PUSH1 0x1 PUSH1 0xA0 SHL OR SWAP1 SSTORE DUP1 ISZERO PUSH2 0x18F1 JUMPI PUSH1 0x1 DUP1 SLOAD PUSH1 0xFF PUSH1 0xA8 SHL NOT AND PUSH1 0x1 PUSH1 0xA8 SHL OR SWAP1 SSTORE JUMPDEST PUSH2 0x18FA DUP3 PUSH2 0x2840 JUMP JUMPDEST DUP1 ISZERO PUSH2 0x1941 JUMPI PUSH1 0x1 DUP1 SLOAD PUSH1 0xFF PUSH1 0xA8 SHL NOT AND DUP2 SSTORE PUSH1 0x40 MLOAD SWAP1 DUP2 MSTORE PUSH32 0x7F26B83FF96E1F2B6A682F133852F6798A09C465DA95921460CEFB3847402498 SWAP1 PUSH1 0x20 ADD PUSH1 0x40 MLOAD DUP1 SWAP2 SUB SWAP1 LOG1 JUMPDEST POP POP JUMP JUMPDEST PUSH1 0x0 SLOAD PUSH1 0x40 DUP1 MLOAD DUP1 DUP3 ADD SWAP1 SWAP2 MSTORE PUSH1 0x2 DUP2 MSTORE PUSH2 0x333 PUSH1 0xF4 SHL PUSH1 0x20 DUP3 ADD MSTORE SWAP1 PUSH1 0x1 PUSH1 0x1 PUSH1 0xA0 SHL SUB AND CALLER EQ PUSH2 0x198A JUMPI PUSH1 0x40 MLOAD PUSH3 0x461BCD PUSH1 0xE5 SHL DUP2 MSTORE PUSH1 0x4 ADD PUSH2 0x36D SWAP2 SWAP1 PUSH2 0x3EA3 JUMP JUMPDEST POP PUSH1 0x40 DUP1 MLOAD DUP1 DUP3 ADD SWAP1 SWAP2 MSTORE PUSH1 0x2 DUP2 MSTORE PUSH2 0x3331 PUSH1 0xF0 SHL PUSH1 0x20 DUP3 ADD MSTORE PUSH1 0x1 PUSH1 0x1 PUSH1 0xA0 SHL SUB DUP3 AND PUSH2 0x19CB JUMPI PUSH1 0x40 MLOAD PUSH3 0x461BCD PUSH1 0xE5 SHL DUP2 MSTORE PUSH1 0x4 ADD PUSH2 0x36D SWAP2 SWAP1 PUSH2 0x3EA3 JUMP JUMPDEST POP PUSH1 0x1 DUP1 SLOAD PUSH1 0x1 PUSH1 0x1 PUSH1 0xA0 SHL SUB NOT AND PUSH1 0x1 PUSH1 0x1 PUSH1 0xA0 SHL SUB DUP4 AND SWAP1 DUP2 OR SWAP1 SWAP2 SSTORE PUSH1 0x40 MLOAD SWAP1 DUP2 MSTORE PUSH32 0x67235BA2E63C748A35B95C4F92A3BBC2A1389938170A5CE6C9ADD5D0B03A314A SWAP1 PUSH1 0x20 ADD PUSH2 0x3D6 JUMP JUMPDEST PUSH1 0x0 SLOAD PUSH1 0x40 DUP1 MLOAD DUP1 DUP3 ADD SWAP1 SWAP2 MSTORE PUSH1 0x2 DUP2 MSTORE PUSH2 0x333 PUSH1 0xF4 SHL PUSH1 0x20 DUP3 ADD MSTORE SWAP1 PUSH1 0x1 PUSH1 0x1 PUSH1 0xA0 SHL SUB AND CALLER EQ PUSH2 0x1A5F JUMPI PUSH1 0x40 MLOAD PUSH3 0x461BCD PUSH1 0xE5 SHL DUP2 MSTORE PUSH1 0x4 ADD PUSH2 0x36D SWAP2 SWAP1 PUSH2 0x3EA3 JUMP JUMPDEST POP PUSH1 0x34 SSTORE JUMP JUMPDEST PUSH1 0x40 MLOAD PUSH4 0x21F8A721 PUSH1 0xE0 SHL DUP2 MSTORE PUSH17 0x4759445F544F4B454E5F41444452455353 PUSH1 0x78 SHL PUSH1 0x4 DUP3 ADD MSTORE PUSH1 0x0 SWAP1 PUSH1 0x1 PUSH1 0x1 PUSH1 0xA0 SHL SUB DUP4 AND SWAP1 PUSH4 0x21F8A721 SWAP1 PUSH1 0x24 ADD JUMPDEST PUSH1 0x20 PUSH1 0x40 MLOAD DUP1 DUP4 SUB DUP2 DUP7 GAS STATICCALL ISZERO DUP1 ISZERO PUSH2 0x1AC1 JUMPI RETURNDATASIZE PUSH1 0x0 DUP1 RETURNDATACOPY RETURNDATASIZE PUSH1 0x0 REVERT JUMPDEST POP POP POP POP PUSH1 0x40 MLOAD RETURNDATASIZE PUSH1 0x1F NOT PUSH1 0x1F DUP3 ADD AND DUP3 ADD DUP1 PUSH1 0x40 MSTORE POP DUP2 ADD SWAP1 PUSH2 0x1AE5 SWAP2 SWAP1 PUSH2 0x48C1 JUMP JUMPDEST SWAP3 SWAP2 POP POP JUMP JUMPDEST PUSH1 0x40 MLOAD PUSH4 0x21F8A721 PUSH1 0xE0 SHL DUP2 MSTORE PUSH15 0x524553455256455F41444452455353 PUSH1 0x88 SHL PUSH1 0x4 DUP3 ADD MSTORE PUSH1 0x0 SWAP1 PUSH1 0x1 PUSH1 0x1 PUSH1 0xA0 SHL SUB DUP4 AND SWAP1 PUSH4 0x21F8A721 SWAP1 PUSH1 0x24 ADD PUSH2 0x1AA4 JUMP JUMPDEST PUSH1 0x40 MLOAD PUSH4 0x21F8A721 PUSH1 0xE0 SHL DUP2 MSTORE PUSH22 0x42414C414E4345525F5641554C545F41444452455353 PUSH1 0x50 SHL PUSH1 0x4 DUP3 ADD MSTORE PUSH1 0x0 SWAP1 PUSH1 0x1 PUSH1 0x1 PUSH1 0xA0 SHL SUB DUP4 AND SWAP1 PUSH4 0x21F8A721 SWAP1 PUSH1 0x24 ADD PUSH2 0x1AA4 JUMP JUMPDEST PUSH1 0x40 DUP1 MLOAD PUSH1 0x1 DUP1 DUP3 MSTORE DUP2 DUP4 ADD SWAP1 SWAP3 MSTORE PUSH1 0x0 SWAP2 DUP2 PUSH1 0x20 ADD JUMPDEST PUSH1 0x40 DUP1 MLOAD PUSH1 0xA0 DUP2 ADD DUP3 MSTORE PUSH1 0x0 DUP1 DUP3 MSTORE PUSH1 0x20 DUP1 DUP4 ADD DUP3 SWAP1 MSTORE SWAP3 DUP3 ADD DUP2 SWAP1 MSTORE PUSH1 0x60 DUP3 ADD DUP2 SWAP1 MSTORE PUSH1 0x80 DUP3 ADD MSTORE DUP3 MSTORE PUSH1 0x0 NOT SWAP1 SWAP3 ADD SWAP2 ADD DUP2 PUSH2 0x1B8B JUMPI SWAP1 POP POP SWAP1 POP PUSH1 0x1 DUP2 PUSH1 0x0 DUP2 MLOAD DUP2 LT PUSH2 0x1BDD JUMPI PUSH2 0x1BDD PUSH2 0x4563 JUMP JUMPDEST PUSH1 0x20 MUL PUSH1 0x20 ADD ADD MLOAD PUSH1 0x0 ADD SWAP1 PUSH1 0x3 DUP2 GT ISZERO PUSH2 0x1BFA JUMPI PUSH2 0x1BFA PUSH2 0x48DE JUMP JUMPDEST SWAP1 DUP2 PUSH1 0x3 DUP2 GT ISZERO PUSH2 0x1C0D JUMPI PUSH2 0x1C0D PUSH2 0x48DE JUMP JUMPDEST DUP2 MSTORE POP POP ADDRESS DUP2 PUSH1 0x0 DUP2 MLOAD DUP2 LT PUSH2 0x1C25 JUMPI PUSH2 0x1C25 PUSH2 0x4563 JUMP JUMPDEST PUSH1 0x20 SWAP1 DUP2 MUL SWAP2 SWAP1 SWAP2 ADD ADD MLOAD PUSH1 0x1 PUSH1 0x1 PUSH1 0xA0 SHL SUB SWAP2 DUP3 AND PUSH1 0x60 SWAP1 SWAP2 ADD MSTORE PUSH1 0x40 MLOAD PUSH4 0x3A38FA1 PUSH1 0xE2 SHL DUP2 MSTORE PUSH32 0x0 SWAP1 SWAP2 AND SWAP1 PUSH4 0xE8E3E84 SWAP1 PUSH2 0x1C87 SWAP1 DUP5 SWAP1 PUSH1 0x4 ADD PUSH2 0x48F4 JUMP JUMPDEST PUSH1 0x0 PUSH1 0x40 MLOAD DUP1 DUP4 SUB DUP2 PUSH1 0x0 DUP8 DUP1 EXTCODESIZE ISZERO DUP1 ISZERO PUSH2 0x1CA1 JUMPI PUSH1 0x0 DUP1 REVERT JUMPDEST POP GAS CALL ISZERO DUP1 ISZERO PUSH2 0x1CB5 JUMPI RETURNDATASIZE PUSH1 0x0 DUP1 RETURNDATACOPY RETURNDATASIZE PUSH1 0x0 REVERT JUMPDEST POP POP POP POP POP JUMP JUMPDEST PUSH1 0x60 PUSH1 0x0 DUP3 PUSH1 0x1 PUSH1 0x1 PUSH1 0x40 SHL SUB DUP2 GT ISZERO PUSH2 0x1CD8 JUMPI PUSH2 0x1CD8 PUSH2 0x3EB6 JUMP JUMPDEST PUSH1 0x40 MLOAD SWAP1 DUP1 DUP3 MSTORE DUP1 PUSH1 0x20 MUL PUSH1 0x20 ADD DUP3 ADD PUSH1 0x40 MSTORE DUP1 ISZERO PUSH2 0x1D1D JUMPI DUP2 PUSH1 0x20 ADD JUMPDEST PUSH1 0x40 DUP1 MLOAD DUP1 DUP3 ADD SWAP1 SWAP2 MSTORE PUSH1 0x0 DUP1 DUP3 MSTORE PUSH1 0x20 DUP3 ADD MSTORE DUP2 MSTORE PUSH1 0x20 ADD SWAP1 PUSH1 0x1 SWAP1 SUB SWAP1 DUP2 PUSH2 0x1CF6 JUMPI SWAP1 POP JUMPDEST POP SWAP1 POP PUSH1 0x0 JUMPDEST DUP4 DUP2 LT ISZERO PUSH2 0x1DAF JUMPI CALLDATASIZE DUP6 DUP6 DUP4 DUP2 DUP2 LT PUSH2 0x1D3E JUMPI PUSH2 0x1D3E PUSH2 0x4563 JUMP JUMPDEST SWAP1 POP PUSH1 0x60 MUL ADD SWAP1 POP PUSH1 0x40 MLOAD DUP1 PUSH1 0x40 ADD PUSH1 0x40 MSTORE DUP1 DUP3 PUSH1 0x40 ADD PUSH1 0x20 DUP2 ADD SWAP1 PUSH2 0x1D64 SWAP2 SWAP1 PUSH2 0x3E86 JUMP JUMPDEST PUSH1 0x1 PUSH1 0x1 PUSH1 0xA0 SHL SUB AND DUP2 MSTORE PUSH1 0x20 ADD PUSH2 0x1D7B DUP4 PUSH2 0x2894 JUMP JUMPDEST DUP2 MSTORE POP DUP4 DUP4 DUP2 MLOAD DUP2 LT PUSH2 0x1D90 JUMPI PUSH2 0x1D90 PUSH2 0x4563 JUMP JUMPDEST PUSH1 0x20 MUL PUSH1 0x20 ADD ADD DUP2 SWAP1 MSTORE POP POP DUP1 DUP1 PUSH2 0x1DA7 SWAP1 PUSH2 0x458F JUMP JUMPDEST SWAP2 POP POP PUSH2 0x1D23 JUMP JUMPDEST POP SWAP4 SWAP3 POP POP POP JUMP JUMPDEST PUSH1 0x40 MLOAD PUSH4 0x21F8A721 PUSH1 0xE0 SHL DUP2 MSTORE PUSH32 0x524553455256455F4D414E414745525F41444452455353000000000000000000 PUSH1 0x4 DUP3 ADD MSTORE PUSH1 0x0 SWAP1 PUSH1 0x1 PUSH1 0x1 PUSH1 0xA0 SHL SUB DUP4 AND SWAP1 PUSH4 0x21F8A721 SWAP1 PUSH1 0x24 ADD PUSH2 0x1AA4 JUMP JUMPDEST PUSH1 0x40 MLOAD PUSH4 0x21F8A721 PUSH1 0xE0 SHL DUP2 MSTORE PUSH32 0x53544557415244534849505F494E435F41444452455353000000000000000000 PUSH1 0x4 DUP3 ADD MSTORE PUSH1 0x0 SWAP1 PUSH1 0x1 PUSH1 0x1 PUSH1 0xA0 SHL SUB DUP4 AND SWAP1 PUSH4 0x21F8A721 SWAP1 PUSH1 0x24 ADD PUSH2 0x1AA4 JUMP JUMPDEST PUSH1 0x40 MLOAD PUSH4 0x21F8A721 PUSH1 0xE0 SHL DUP2 MSTORE PUSH20 0x4759445F5245434F564552595F41444452455353 PUSH1 0x60 SHL PUSH1 0x4 DUP3 ADD MSTORE PUSH1 0x0 SWAP1 PUSH1 0x1 PUSH1 0x1 PUSH1 0xA0 SHL SUB DUP4 AND SWAP1 PUSH4 0x21F8A721 SWAP1 PUSH1 0x24 ADD PUSH2 0x1AA4 JUMP JUMPDEST PUSH1 0x40 DUP1 MLOAD DUP1 DUP3 ADD SWAP1 SWAP2 MSTORE PUSH1 0x60 DUP2 MSTORE PUSH1 0x0 PUSH1 0x20 DUP3 ADD MSTORE PUSH1 0x0 PUSH1 0x40 MLOAD DUP1 PUSH1 0x40 ADD PUSH1 0x40 MSTORE DUP1 DUP5 MLOAD PUSH1 0x1 PUSH1 0x1 PUSH1 0x40 SHL SUB DUP2 GT ISZERO PUSH2 0x1ED6 JUMPI PUSH2 0x1ED6 PUSH2 0x3EB6 JUMP JUMPDEST PUSH1 0x40 MLOAD SWAP1 DUP1 DUP3 MSTORE DUP1 PUSH1 0x20 MUL PUSH1 0x20 ADD DUP3 ADD PUSH1 0x40 MSTORE DUP1 ISZERO PUSH2 0x1F0F JUMPI DUP2 PUSH1 0x20 ADD JUMPDEST PUSH2 0x1EFC PUSH2 0x3A59 JUMP JUMPDEST DUP2 MSTORE PUSH1 0x20 ADD SWAP1 PUSH1 0x1 SWAP1 SUB SWAP1 DUP2 PUSH2 0x1EF4 JUMPI SWAP1 POP JUMPDEST POP DUP2 MSTORE PUSH1 0x1 PUSH1 0x20 SWAP1 SWAP2 ADD MSTORE SWAP1 POP PUSH1 0x0 JUMPDEST DUP4 MLOAD DUP2 LT ISZERO PUSH2 0x1DAF JUMPI PUSH1 0x0 DUP5 DUP3 DUP2 MLOAD DUP2 LT PUSH2 0x1F3C JUMPI PUSH2 0x1F3C PUSH2 0x4563 JUMP JUMPDEST PUSH1 0x20 MUL PUSH1 0x20 ADD ADD MLOAD SWAP1 POP PUSH1 0x40 MLOAD DUP1 PUSH1 0x40 ADD PUSH1 0x40 MSTORE DUP1 DUP3 DUP2 MSTORE PUSH1 0x20 ADD PUSH2 0x1F65 DUP4 PUSH1 0x0 ADD MLOAD DUP10 PUSH2 0x2A4C JUMP JUMPDEST SWAP1 MSTORE DUP4 MLOAD DUP1 MLOAD DUP5 SWAP1 DUP2 LT PUSH2 0x1F7B JUMPI PUSH2 0x1F7B PUSH2 0x4563 JUMP JUMPDEST PUSH1 0x20 MUL PUSH1 0x20 ADD ADD DUP2 SWAP1 MSTORE POP POP DUP1 DUP1 PUSH2 0x1F92 SWAP1 PUSH2 0x458F JUMP JUMPDEST SWAP2 POP POP PUSH2 0x1F1F JUMP JUMPDEST PUSH1 0x40 MLOAD PUSH4 0x21F8A721 PUSH1 0xE0 SHL DUP2 MSTORE PUSH32 0x524F4F545F5341464554595F434845434B5F4144445245535300000000000000 PUSH1 0x4 DUP3 ADD MSTORE PUSH1 0x0 SWAP1 PUSH1 0x1 PUSH1 0x1 PUSH1 0xA0 SHL SUB DUP4 AND SWAP1 PUSH4 0x21F8A721 SWAP1 PUSH1 0x24 ADD PUSH2 0x1AA4 JUMP JUMPDEST PUSH1 0x40 MLOAD PUSH1 0x1 PUSH1 0x1 PUSH1 0xA0 SHL SUB DUP4 AND PUSH1 0x24 DUP3 ADD MSTORE PUSH1 0x44 DUP2 ADD DUP3 SWAP1 MSTORE PUSH2 0x204C SWAP1 DUP5 SWAP1 PUSH4 0xA9059CBB PUSH1 0xE0 SHL SWAP1 PUSH1 0x64 ADD JUMPDEST PUSH1 0x40 DUP1 MLOAD PUSH1 0x1F NOT DUP2 DUP5 SUB ADD DUP2 MSTORE SWAP2 SWAP1 MSTORE PUSH1 0x20 DUP2 ADD DUP1 MLOAD PUSH1 0x1 PUSH1 0x1 PUSH1 0xE0 SHL SUB AND PUSH1 0x1 PUSH1 0x1 PUSH1 0xE0 SHL SUB NOT SWAP1 SWAP4 AND SWAP3 SWAP1 SWAP3 OR SWAP1 SWAP2 MSTORE PUSH2 0x2ABA JUMP JUMPDEST POP POP POP JUMP JUMPDEST PUSH1 0x40 MLOAD PUSH4 0x21F8A721 PUSH1 0xE0 SHL DUP2 MSTORE PUSH19 0x4645455F48414E444C45525F41444452455353 PUSH1 0x68 SHL PUSH1 0x4 DUP3 ADD MSTORE PUSH1 0x0 SWAP1 PUSH1 0x1 PUSH1 0x1 PUSH1 0xA0 SHL SUB DUP4 AND SWAP1 PUSH4 0x21F8A721 SWAP1 PUSH1 0x24 ADD PUSH2 0x1AA4 JUMP JUMPDEST PUSH1 0x0 DUP1 JUMPDEST DUP3 MLOAD MLOAD DUP2 LT ISZERO PUSH2 0x2131 JUMPI PUSH1 0x0 DUP4 PUSH1 0x0 ADD MLOAD DUP3 DUP2 MLOAD DUP2 LT PUSH2 0x20BC JUMPI PUSH2 0x20BC PUSH2 0x4563 JUMP JUMPDEST PUSH1 0x20 MUL PUSH1 0x20 ADD ADD MLOAD SWAP1 POP PUSH1 0x0 DUP2 PUSH1 0x0 ADD MLOAD SWAP1 POP PUSH1 0x0 PUSH2 0x20E3 PUSH2 0x20DC PUSH2 0x2204 JUMP JUMPDEST DUP4 SWAP1 PUSH2 0x2B8C JUMP JUMPDEST SWAP1 POP PUSH1 0x0 PUSH2 0x2102 DUP4 PUSH1 0x20 ADD MLOAD DUP6 PUSH1 0x20 ADD MLOAD PUSH2 0x2BED SWAP1 SWAP2 SWAP1 PUSH4 0xFFFFFFFF AND JUMP JUMPDEST SWAP1 POP PUSH2 0x210E DUP2 DUP4 PUSH2 0x255B JUMP JUMPDEST PUSH2 0x2118 SWAP1 DUP8 PUSH2 0x489B JUMP JUMPDEST SWAP6 POP POP POP POP POP DUP1 DUP1 PUSH2 0x2129 SWAP1 PUSH2 0x458F JUMP JUMPDEST SWAP2 POP POP PUSH2 0x209A JUMP JUMPDEST POP SWAP2 SWAP1 POP JUMP JUMPDEST PUSH1 0x0 DUP1 PUSH2 0x216C PUSH32 0x0 PUSH1 0x1 PUSH1 0x1 PUSH1 0xA0 SHL SUB AND PUSH2 0x2C55 JUMP JUMPDEST SWAP1 POP DUP1 DUP4 PUSH32 0x0 PUSH1 0x1 PUSH1 0x1 PUSH1 0xA0 SHL SUB AND PUSH4 0x18160DDD PUSH1 0x40 MLOAD DUP2 PUSH4 0xFFFFFFFF AND PUSH1 0xE0 SHL DUP2 MSTORE PUSH1 0x4 ADD PUSH1 0x20 PUSH1 0x40 MLOAD DUP1 DUP4 SUB DUP2 DUP7 GAS STATICCALL ISZERO DUP1 ISZERO PUSH2 0x21CE JUMPI RETURNDATASIZE PUSH1 0x0 DUP1 RETURNDATACOPY RETURNDATASIZE PUSH1 0x0 REVERT JUMPDEST POP POP POP POP PUSH1 0x40 MLOAD RETURNDATASIZE PUSH1 0x1F NOT PUSH1 0x1F DUP3 ADD AND DUP3 ADD DUP1 PUSH1 0x40 MSTORE POP DUP2 ADD SWAP1 PUSH2 0x21F2 SWAP2 SWAP1 PUSH2 0x46D4 JUMP JUMPDEST PUSH2 0x21FC SWAP2 SWAP1 PUSH2 0x489B JUMP JUMPDEST GT SWAP4 SWAP3 POP POP POP JUMP JUMPDEST PUSH1 0x0 PUSH2 0x15B8 PUSH32 0x0 PUSH1 0x1 PUSH1 0x1 PUSH1 0xA0 SHL SUB AND PUSH2 0x2CE0 JUMP JUMPDEST PUSH1 0x0 DUP1 PUSH1 0x0 JUMPDEST DUP5 PUSH1 0x20 ADD MLOAD MLOAD DUP2 LT ISZERO PUSH2 0x1DAF JUMPI PUSH1 0x0 DUP6 PUSH1 0x20 ADD MLOAD DUP3 DUP2 MLOAD DUP2 LT PUSH2 0x2263 JUMPI PUSH2 0x2263 PUSH2 0x4563 JUMP JUMPDEST PUSH1 0x20 MUL PUSH1 0x20 ADD ADD MLOAD SWAP1 POP PUSH1 0x0 PUSH2 0x2279 DUP3 DUP8 PUSH2 0x2B8C JUMP JUMPDEST SWAP1 POP PUSH1 0x0 PUSH2 0x2298 DUP4 PUSH1 0x20 ADD MLOAD DUP5 PUSH1 0xA0 ADD MLOAD PUSH2 0x2BED SWAP1 SWAP2 SWAP1 PUSH4 0xFFFFFFFF AND JUMP JUMPDEST SWAP1 POP PUSH2 0x22A4 DUP2 DUP4 PUSH2 0x255B JUMP JUMPDEST PUSH2 0x22AE SWAP1 DUP7 PUSH2 0x489B JUMP JUMPDEST SWAP5 POP POP POP POP DUP1 DUP1 PUSH2 0x22BE SWAP1 PUSH2 0x458F JUMP JUMPDEST SWAP2 POP POP PUSH2 0x223E JUMP JUMPDEST PUSH1 0x40 DUP1 MLOAD DUP1 DUP3 ADD SWAP1 SWAP2 MSTORE PUSH1 0x60 DUP2 MSTORE PUSH1 0x0 PUSH1 0x20 DUP3 ADD MSTORE PUSH2 0x22E5 DUP5 DUP5 PUSH2 0x2D2F JUMP JUMPDEST PUSH1 0x0 PUSH1 0x40 MLOAD DUP1 PUSH1 0x40 ADD PUSH1 0x40 MSTORE DUP1 DUP5 MLOAD PUSH1 0x1 PUSH1 0x1 PUSH1 0x40 SHL SUB DUP2 GT ISZERO PUSH2 0x230B JUMPI PUSH2 0x230B PUSH2 0x3EB6 JUMP JUMPDEST PUSH1 0x40 MLOAD SWAP1 DUP1 DUP3 MSTORE DUP1 PUSH1 0x20 MUL PUSH1 0x20 ADD DUP3 ADD PUSH1 0x40 MSTORE DUP1 ISZERO PUSH2 0x2344 JUMPI DUP2 PUSH1 0x20 ADD JUMPDEST PUSH2 0x2331 PUSH2 0x3A59 JUMP JUMPDEST DUP2 MSTORE PUSH1 0x20 ADD SWAP1 PUSH1 0x1 SWAP1 SUB SWAP1 DUP2 PUSH2 0x2329 JUMPI SWAP1 POP JUMPDEST POP DUP2 MSTORE PUSH1 0x20 ADD PUSH1 0x0 ISZERO ISZERO DUP2 MSTORE POP SWAP1 POP PUSH1 0x0 DUP1 JUMPDEST DUP5 MLOAD DUP2 LT ISZERO PUSH2 0x23EA JUMPI PUSH1 0x0 DUP6 DUP3 DUP2 MLOAD DUP2 LT PUSH2 0x2374 JUMPI PUSH2 0x2374 PUSH2 0x4563 JUMP JUMPDEST PUSH1 0x20 MUL PUSH1 0x20 ADD ADD MLOAD SWAP1 POP PUSH1 0x0 DUP1 PUSH2 0x238D DUP4 DUP13 DUP13 DUP13 PUSH2 0x2E24 JUMP JUMPDEST SWAP1 SWAP3 POP SWAP1 POP PUSH2 0x239C DUP2 DUP7 PUSH2 0x489B JUMP JUMPDEST SWAP5 POP PUSH1 0x40 MLOAD DUP1 PUSH1 0x40 ADD PUSH1 0x40 MSTORE DUP1 DUP5 DUP2 MSTORE PUSH1 0x20 ADD DUP4 DUP2 MSTORE POP DUP7 PUSH1 0x0 ADD MLOAD DUP6 DUP2 MLOAD DUP2 LT PUSH2 0x23C9 JUMPI PUSH2 0x23C9 PUSH2 0x4563 JUMP JUMPDEST PUSH1 0x20 MUL PUSH1 0x20 ADD ADD DUP2 SWAP1 MSTORE POP POP POP POP DUP1 DUP1 PUSH2 0x23E2 SWAP1 PUSH2 0x458F JUMP JUMPDEST SWAP2 POP POP PUSH2 0x2357 JUMP JUMPDEST POP PUSH1 0x40 DUP1 MLOAD DUP1 DUP3 ADD SWAP1 SWAP2 MSTORE PUSH1 0x2 DUP2 MSTORE PUSH2 0x3331 PUSH1 0xF0 SHL PUSH1 0x20 DUP3 ADD MSTORE PUSH8 0xDE0B6B3A7640000 DUP3 EQ PUSH2 0x242C JUMPI PUSH1 0x40 MLOAD PUSH3 0x461BCD PUSH1 0xE5 SHL DUP2 MSTORE PUSH1 0x4 ADD PUSH2 0x36D SWAP2 SWAP1 PUSH2 0x3EA3 JUMP JUMPDEST POP SWAP1 SWAP2 POP POP JUMPDEST SWAP5 SWAP4 POP POP POP POP JUMP JUMPDEST PUSH1 0x60 DUP1 DUP4 PUSH1 0x1 PUSH1 0x1 PUSH1 0x40 SHL SUB DUP2 GT ISZERO PUSH2 0x2455 JUMPI PUSH2 0x2455 PUSH2 0x3EB6 JUMP JUMPDEST PUSH1 0x40 MLOAD SWAP1 DUP1 DUP3 MSTORE DUP1 PUSH1 0x20 MUL PUSH1 0x20 ADD DUP3 ADD PUSH1 0x40 MSTORE DUP1 ISZERO PUSH2 0x247E JUMPI DUP2 PUSH1 0x20 ADD PUSH1 0x20 DUP3 MUL DUP1 CALLDATASIZE DUP4 CALLDATACOPY ADD SWAP1 POP JUMPDEST POP SWAP2 POP PUSH1 0x0 JUMPDEST DUP5 DUP2 LT ISZERO PUSH2 0x2552 JUMPI CALLDATASIZE DUP7 DUP7 DUP4 DUP2 DUP2 LT PUSH2 0x249F JUMPI PUSH2 0x249F PUSH2 0x4563 JUMP JUMPDEST SWAP1 POP PUSH1 0x80 MUL ADD SWAP1 POP PUSH1 0x0 PUSH2 0x24C9 DUP7 PUSH1 0x0 ADD MLOAD DUP4 PUSH1 0x60 ADD PUSH1 0x20 DUP2 ADD SWAP1 PUSH2 0x24C4 SWAP2 SWAP1 PUSH2 0x3E86 JUMP JUMPDEST PUSH2 0x2F05 JUMP JUMPDEST SWAP1 POP PUSH1 0x0 PUSH2 0x24D7 DUP4 DUP4 PUSH2 0x2F7B JUMP JUMPDEST DUP1 MLOAD SWAP1 SWAP7 POP SWAP1 SWAP2 POP ISZERO PUSH2 0x24ED JUMPI POP POP POP POP PUSH2 0xD32 JUMP JUMPDEST DUP3 PUSH1 0x20 ADD CALLDATALOAD DUP2 LT ISZERO PUSH2 0x251D JUMPI POP POP PUSH1 0x40 DUP1 MLOAD DUP1 DUP3 ADD SWAP1 SWAP2 MSTORE PUSH1 0x1 DUP2 MSTORE PUSH1 0x19 PUSH1 0xF9 SHL PUSH1 0x20 DUP3 ADD MSTORE SWAP3 POP PUSH2 0xD32 SWAP2 POP POP JUMP JUMPDEST DUP1 DUP7 DUP6 DUP2 MLOAD DUP2 LT PUSH2 0x2530 JUMPI PUSH2 0x2530 PUSH2 0x4563 JUMP JUMPDEST PUSH1 0x20 MUL PUSH1 0x20 ADD ADD DUP2 DUP2 MSTORE POP POP POP POP POP DUP1 DUP1 PUSH2 0x254A SWAP1 PUSH2 0x458F JUMP JUMPDEST SWAP2 POP POP PUSH2 0x2484 JUMP JUMPDEST POP SWAP4 POP SWAP4 SWAP2 POP POP JUMP JUMPDEST PUSH1 0x0 DUP1 PUSH2 0x2568 DUP4 DUP6 PUSH2 0x498F JUMP JUMPDEST SWAP1 POP PUSH2 0x2432 PUSH8 0xDE0B6B3A7640000 DUP3 PUSH2 0x49A6 JUMP JUMPDEST PUSH1 0x60 DUP3 PUSH1 0x1 PUSH1 0x1 PUSH1 0x40 SHL SUB DUP2 GT ISZERO PUSH2 0x2596 JUMPI PUSH2 0x2596 PUSH2 0x3EB6 JUMP JUMPDEST PUSH1 0x40 MLOAD SWAP1 DUP1 DUP3 MSTORE DUP1 PUSH1 0x20 MUL PUSH1 0x20 ADD DUP3 ADD PUSH1 0x40 MSTORE DUP1 ISZERO PUSH2 0x25BF JUMPI DUP2 PUSH1 0x20 ADD PUSH1 0x20 DUP3 MUL DUP1 CALLDATASIZE DUP4 CALLDATACOPY ADD SWAP1 POP JUMPDEST POP SWAP1 POP PUSH1 0x0 JUMPDEST DUP4 DUP2 LT ISZERO PUSH2 0x1DAF JUMPI PUSH1 0x0 DUP6 DUP6 DUP4 DUP2 DUP2 LT PUSH2 0x25E1 JUMPI PUSH2 0x25E1 PUSH2 0x4563 JUMP JUMPDEST SWAP1 POP PUSH1 0x80 MUL ADD DUP1 CALLDATASIZE SUB DUP2 ADD SWAP1 PUSH2 0x25F7 SWAP2 SWAP1 PUSH2 0x49C8 JUMP JUMPDEST SWAP1 POP PUSH1 0x0 PUSH2 0x260D DUP6 PUSH1 0x0 ADD MLOAD DUP4 PUSH1 0x60 ADD MLOAD PUSH2 0x2F05 JUMP JUMPDEST SWAP1 POP PUSH1 0x0 PUSH2 0x261B DUP4 DUP4 PUSH2 0x31BA JUMP JUMPDEST SWAP1 POP DUP3 PUSH1 0x20 ADD MLOAD DUP2 LT ISZERO PUSH1 0x40 MLOAD DUP1 PUSH1 0x40 ADD PUSH1 0x40 MSTORE DUP1 PUSH1 0x1 DUP2 MSTORE PUSH1 0x20 ADD PUSH1 0x19 PUSH1 0xF9 SHL DUP2 MSTORE POP SWAP1 PUSH2 0x265D JUMPI PUSH1 0x40 MLOAD PUSH3 0x461BCD PUSH1 0xE5 SHL DUP2 MSTORE PUSH1 0x4 ADD PUSH2 0x36D SWAP2 SWAP1 PUSH2 0x3EA3 JUMP JUMPDEST POP DUP1 DUP6 DUP6 DUP2 MLOAD DUP2 LT PUSH2 0x2671 JUMPI PUSH2 0x2671 PUSH2 0x4563 JUMP JUMPDEST PUSH1 0x20 SWAP1 DUP2 MUL SWAP2 SWAP1 SWAP2 ADD ADD MSTORE DUP3 MLOAD PUSH2 0x2692 SWAP1 PUSH1 0x1 PUSH1 0x1 PUSH1 0xA0 SHL SUB AND CALLER DUP4 PUSH2 0x1FE9 JUMP JUMPDEST POP POP POP DUP1 DUP1 PUSH2 0x26A0 SWAP1 PUSH2 0x458F JUMP JUMPDEST SWAP2 POP POP PUSH2 0x25C5 JUMP JUMPDEST PUSH1 0x60 DUP1 DUP3 PUSH1 0x1 PUSH1 0x1 PUSH1 0x40 SHL SUB DUP2 GT ISZERO PUSH2 0x26C3 JUMPI PUSH2 0x26C3 PUSH2 0x3EB6 JUMP JUMPDEST PUSH1 0x40 MLOAD SWAP1 DUP1 DUP3 MSTORE DUP1 PUSH1 0x20 MUL PUSH1 0x20 ADD DUP3 ADD PUSH1 0x40 MSTORE DUP1 ISZERO PUSH2 0x2708 JUMPI DUP2 PUSH1 0x20 ADD JUMPDEST PUSH1 0x40 DUP1 MLOAD DUP1 DUP3 ADD SWAP1 SWAP2 MSTORE PUSH1 0x0 DUP1 DUP3 MSTORE PUSH1 0x20 DUP3 ADD MSTORE DUP2 MSTORE PUSH1 0x20 ADD SWAP1 PUSH1 0x1 SWAP1 SUB SWAP1 DUP2 PUSH2 0x26E1 JUMPI SWAP1 POP JUMPDEST POP SWAP2 POP PUSH1 0x0 JUMPDEST DUP4 DUP2 LT ISZERO PUSH2 0x27B3 JUMPI CALLDATASIZE DUP6 DUP6 DUP4 DUP2 DUP2 LT PUSH2 0x2729 JUMPI PUSH2 0x2729 PUSH2 0x4563 JUMP JUMPDEST SWAP1 POP PUSH1 0x60 MUL ADD SWAP1 POP PUSH1 0x0 PUSH2 0x273C DUP3 PUSH2 0x339B JUMP JUMPDEST DUP1 MLOAD SWAP1 SWAP6 POP SWAP1 SWAP2 POP ISZERO PUSH2 0x2751 JUMPI POP POP POP PUSH2 0x27B5 JUMP JUMPDEST PUSH1 0x40 MLOAD DUP1 PUSH1 0x40 ADD PUSH1 0x40 MSTORE DUP1 DUP4 PUSH1 0x40 ADD PUSH1 0x20 DUP2 ADD SWAP1 PUSH2 0x276F SWAP2 SWAP1 PUSH2 0x3E86 JUMP JUMPDEST PUSH1 0x1 PUSH1 0x1 PUSH1 0xA0 SHL SUB AND DUP2 MSTORE PUSH1 0x20 ADD DUP3 DUP2 MSTORE POP DUP6 DUP5 DUP2 MLOAD DUP2 LT PUSH2 0x2793 JUMPI PUSH2 0x2793 PUSH2 0x4563 JUMP JUMPDEST PUSH1 0x20 MUL PUSH1 0x20 ADD ADD DUP2 SWAP1 MSTORE POP POP POP DUP1 DUP1 PUSH2 0x27AB SWAP1 PUSH2 0x458F JUMP JUMPDEST SWAP2 POP POP PUSH2 0x270E JUMP JUMPDEST POP JUMPDEST SWAP3 POP SWAP3 SWAP1 POP JUMP JUMPDEST PUSH1 0x40 MLOAD PUSH4 0x21F8A721 PUSH1 0xE0 SHL DUP2 MSTORE PUSH12 0x50414D4D5F41444452455353 PUSH1 0xA0 SHL PUSH1 0x4 DUP3 ADD MSTORE PUSH1 0x0 SWAP1 PUSH1 0x1 PUSH1 0x1 PUSH1 0xA0 SHL SUB DUP4 AND SWAP1 PUSH4 0x21F8A721 SWAP1 PUSH1 0x24 ADD PUSH2 0x1AA4 JUMP JUMPDEST PUSH1 0x40 MLOAD PUSH4 0x21F8A721 PUSH1 0xE0 SHL DUP2 MSTORE PUSH20 0x474F565F54524541535552595F41444452455353 PUSH1 0x60 SHL PUSH1 0x4 DUP3 ADD MSTORE PUSH1 0x0 SWAP1 PUSH1 0x1 PUSH1 0x1 PUSH1 0xA0 SHL SUB DUP4 AND SWAP1 PUSH4 0x21F8A721 SWAP1 PUSH1 0x24 ADD PUSH2 0x1AA4 JUMP JUMPDEST PUSH1 0x0 DUP1 SLOAD PUSH1 0x1 PUSH1 0x1 PUSH1 0xA0 SHL SUB NOT AND PUSH1 0x1 PUSH1 0x1 PUSH1 0xA0 SHL SUB DUP4 AND SWAP1 DUP2 OR DUP3 SSTORE PUSH1 0x40 DUP1 MLOAD SWAP3 DUP4 MSTORE PUSH1 0x20 DUP4 ADD SWAP2 SWAP1 SWAP2 MSTORE PUSH32 0xDE4B3F61490B74C0ED6237523974FE299126BBBF8A8A7482FD220104C59B0C84 SWAP2 ADD PUSH2 0x3D6 JUMP JUMPDEST PUSH1 0x0 DUP1 PUSH2 0x28A7 PUSH1 0x60 DUP5 ADD PUSH1 0x40 DUP6 ADD PUSH2 0x3E86 JUMP JUMPDEST SWAP1 POP PUSH2 0x28D0 CALLER ADDRESS PUSH1 0x20 DUP7 ADD DUP1 CALLDATALOAD SWAP1 PUSH2 0x28BF SWAP1 DUP9 PUSH2 0x3E86 JUMP JUMPDEST PUSH1 0x1 PUSH1 0x1 PUSH1 0xA0 SHL SUB AND SWAP3 SWAP2 SWAP1 PUSH2 0x352C JUMP JUMPDEST PUSH1 0x1 PUSH1 0x1 PUSH1 0xA0 SHL SUB DUP2 AND PUSH2 0x28E7 PUSH1 0x20 DUP6 ADD DUP6 PUSH2 0x3E86 JUMP JUMPDEST PUSH1 0x1 PUSH1 0x1 PUSH1 0xA0 SHL SUB AND SUB PUSH2 0x28FE JUMPI POP POP PUSH1 0x20 ADD CALLDATALOAD SWAP1 JUMP JUMPDEST PUSH1 0x0 DUP2 PUSH1 0x1 PUSH1 0x1 PUSH1 0xA0 SHL SUB AND PUSH4 0x6F307DC3 PUSH1 0x40 MLOAD DUP2 PUSH4 0xFFFFFFFF AND PUSH1 0xE0 SHL DUP2 MSTORE PUSH1 0x4 ADD PUSH1 0x20 PUSH1 0x40 MLOAD DUP1 DUP4 SUB DUP2 DUP7 GAS STATICCALL ISZERO DUP1 ISZERO PUSH2 0x293E JUMPI RETURNDATASIZE PUSH1 0x0 DUP1 RETURNDATACOPY RETURNDATASIZE PUSH1 0x0 REVERT JUMPDEST POP POP POP POP PUSH1 0x40 MLOAD RETURNDATASIZE PUSH1 0x1F NOT PUSH1 0x1F DUP3 ADD AND DUP3 ADD DUP1 PUSH1 0x40 MSTORE POP DUP2 ADD SWAP1 PUSH2 0x2962 SWAP2 SWAP1 PUSH2 0x48C1 JUMP JUMPDEST SWAP1 POP PUSH1 0x1 PUSH1 0x1 PUSH1 0xA0 SHL SUB DUP2 AND PUSH2 0x297B PUSH1 0x20 DUP7 ADD DUP7 PUSH2 0x3E86 JUMP JUMPDEST PUSH1 0x1 PUSH1 0x1 PUSH1 0xA0 SHL SUB AND EQ PUSH1 0x40 MLOAD DUP1 PUSH1 0x40 ADD PUSH1 0x40 MSTORE DUP1 PUSH1 0x2 DUP2 MSTORE PUSH1 0x20 ADD PUSH2 0x3335 PUSH1 0xF0 SHL DUP2 MSTORE POP SWAP1 PUSH2 0x29BE JUMPI PUSH1 0x40 MLOAD PUSH3 0x461BCD PUSH1 0xE5 SHL DUP2 MSTORE PUSH1 0x4 ADD PUSH2 0x36D SWAP2 SWAP1 PUSH2 0x3EA3 JUMP JUMPDEST POP PUSH2 0x29D7 PUSH1 0x1 PUSH1 0x1 PUSH1 0xA0 SHL SUB DUP3 AND DUP4 PUSH1 0x20 DUP8 ADD CALLDATALOAD PUSH2 0x356A JUMP JUMPDEST PUSH1 0x40 MLOAD PUSH4 0x1C57762B PUSH1 0xE3 SHL DUP2 MSTORE PUSH1 0x20 DUP6 ADD CALLDATALOAD PUSH1 0x4 DUP3 ADD MSTORE PUSH1 0x0 PUSH1 0x24 DUP3 ADD MSTORE PUSH1 0x1 PUSH1 0x1 PUSH1 0xA0 SHL SUB DUP4 AND SWAP1 PUSH4 0xE2BBB158 SWAP1 PUSH1 0x44 ADD PUSH1 0x20 PUSH1 0x40 MLOAD DUP1 DUP4 SUB DUP2 PUSH1 0x0 DUP8 GAS CALL ISZERO DUP1 ISZERO PUSH2 0x2A28 JUMPI RETURNDATASIZE PUSH1 0x0 DUP1 RETURNDATACOPY RETURNDATASIZE PUSH1 0x0 REVERT JUMPDEST POP POP POP POP PUSH1 0x40 MLOAD RETURNDATASIZE PUSH1 0x1F NOT PUSH1 0x1F DUP3 ADD AND DUP3 ADD DUP1 PUSH1 0x40 MSTORE POP DUP2 ADD SWAP1 PUSH2 0x2432 SWAP2 SWAP1 PUSH2 0x46D4 JUMP JUMPDEST PUSH1 0x0 DUP1 DUP1 JUMPDEST DUP4 MLOAD DUP2 LT ISZERO PUSH2 0x1DAF JUMPI PUSH1 0x0 DUP5 DUP3 DUP2 MLOAD DUP2 LT PUSH2 0x2A6E JUMPI PUSH2 0x2A6E PUSH2 0x4563 JUMP JUMPDEST PUSH1 0x20 MUL PUSH1 0x20 ADD ADD MLOAD SWAP1 POP DUP6 PUSH1 0x1 PUSH1 0x1 PUSH1 0xA0 SHL SUB AND DUP2 PUSH1 0x0 ADD MLOAD PUSH1 0x1 PUSH1 0x1 PUSH1 0xA0 SHL SUB AND SUB PUSH2 0x2AA7 JUMPI PUSH1 0x20 DUP2 ADD MLOAD PUSH2 0x2AA4 SWAP1 DUP5 PUSH2 0x489B JUMP JUMPDEST SWAP3 POP JUMPDEST POP DUP1 PUSH2 0x2AB2 DUP2 PUSH2 0x458F JUMP JUMPDEST SWAP2 POP POP PUSH2 0x2A51 JUMP JUMPDEST PUSH1 0x0 PUSH2 0x2B0F DUP3 PUSH1 0x40 MLOAD DUP1 PUSH1 0x40 ADD PUSH1 0x40 MSTORE DUP1 PUSH1 0x20 DUP2 MSTORE PUSH1 0x20 ADD PUSH32 0x5361666545524332303A206C6F772D6C6576656C2063616C6C206661696C6564 DUP2 MSTORE POP DUP6 PUSH1 0x1 PUSH1 0x1 PUSH1 0xA0 SHL SUB AND PUSH2 0x361C SWAP1 SWAP3 SWAP2 SWAP1 PUSH4 0xFFFFFFFF AND JUMP JUMPDEST DUP1 MLOAD SWAP1 SWAP2 POP ISZERO PUSH2 0x204C JUMPI DUP1 DUP1 PUSH1 0x20 ADD SWAP1 MLOAD DUP2 ADD SWAP1 PUSH2 0x2B2D SWAP2 SWAP1 PUSH2 0x44AF JUMP JUMPDEST PUSH2 0x204C JUMPI PUSH1 0x40 MLOAD PUSH3 0x461BCD PUSH1 0xE5 SHL DUP2 MSTORE PUSH1 0x20 PUSH1 0x4 DUP3 ADD MSTORE PUSH1 0x2A PUSH1 0x24 DUP3 ADD MSTORE PUSH32 0x5361666545524332303A204552433230206F7065726174696F6E20646964206E PUSH1 0x44 DUP3 ADD MSTORE PUSH10 0x1BDD081CDD58D8D95959 PUSH1 0xB2 SHL PUSH1 0x64 DUP3 ADD MSTORE PUSH1 0x84 ADD PUSH2 0x36D JUMP JUMPDEST PUSH1 0x0 DUP1 PUSH2 0x2B9F DUP5 PUSH2 0x100 ADD MLOAD PUSH1 0x0 PUSH2 0x362B JUMP JUMPDEST DUP5 MLOAD PUSH1 0x40 MLOAD PUSH4 0xB32B752D PUSH1 0xE0 SHL DUP2 MSTORE SWAP2 SWAP3 POP PUSH1 0x1 PUSH1 0x1 PUSH1 0xA0 SHL SUB DUP6 AND SWAP2 PUSH4 0xB32B752D SWAP2 PUSH2 0x2BD0 SWAP2 DUP6 SWAP1 PUSH1 0x4 ADD PUSH2 0x4A3C JUMP JUMPDEST PUSH1 0x20 PUSH1 0x40 MLOAD DUP1 DUP4 SUB DUP2 DUP7 GAS STATICCALL ISZERO DUP1 ISZERO PUSH2 0x2A28 JUMPI RETURNDATASIZE PUSH1 0x0 DUP1 RETURNDATACOPY RETURNDATASIZE PUSH1 0x0 REVERT JUMPDEST PUSH1 0x0 PUSH1 0x11 NOT PUSH1 0xFF DUP4 AND ADD PUSH2 0x2C02 JUMPI POP DUP2 PUSH2 0x1AE5 JUMP JUMPDEST PUSH1 0x12 PUSH1 0xFF DUP4 AND GT ISZERO PUSH2 0x2C35 JUMPI PUSH2 0x2C19 PUSH1 0x12 DUP4 PUSH2 0x4A60 JUMP JUMPDEST PUSH2 0x2C24 SWAP1 PUSH1 0xA PUSH2 0x4B55 JUMP JUMPDEST PUSH2 0x2C2E SWAP1 DUP5 PUSH2 0x49A6 JUMP JUMPDEST SWAP1 POP PUSH2 0x1AE5 JUMP JUMPDEST PUSH2 0x2C40 DUP3 PUSH1 0x12 PUSH2 0x4A60 JUMP JUMPDEST PUSH2 0x2C4B SWAP1 PUSH1 0xA PUSH2 0x4B55 JUMP JUMPDEST PUSH2 0x2C2E SWAP1 DUP5 PUSH2 0x498F JUMP JUMPDEST PUSH1 0x40 MLOAD PUSH4 0xE964DA15 PUSH1 0xE0 SHL DUP2 MSTORE PUSH21 0x4759445F474C4F42414C5F535550504C595F43415 PUSH1 0x5C SHL PUSH1 0x4 DUP3 ADD MSTORE PUSH1 0x0 NOT PUSH1 0x24 DUP3 ADD MSTORE PUSH1 0x0 SWAP1 PUSH1 0x1 PUSH1 0x1 PUSH1 0xA0 SHL SUB DUP4 AND SWAP1 PUSH4 0xE964DA15 SWAP1 PUSH1 0x44 ADD PUSH1 0x20 PUSH1 0x40 MLOAD DUP1 DUP4 SUB DUP2 DUP7 GAS STATICCALL ISZERO DUP1 ISZERO PUSH2 0x2CBC JUMPI RETURNDATASIZE PUSH1 0x0 DUP1 RETURNDATACOPY RETURNDATASIZE PUSH1 0x0 REVERT JUMPDEST POP POP POP POP PUSH1 0x40 MLOAD RETURNDATASIZE PUSH1 0x1F NOT PUSH1 0x1F DUP3 ADD AND DUP3 ADD DUP1 PUSH1 0x40 MSTORE POP DUP2 ADD SWAP1 PUSH2 0x1AE5 SWAP2 SWAP1 PUSH2 0x46D4 JUMP JUMPDEST PUSH1 0x40 MLOAD PUSH4 0x21F8A721 PUSH1 0xE0 SHL DUP2 MSTORE PUSH32 0x524F4F545F50524943455F4F5241434C455F4144445245535300000000000000 PUSH1 0x4 DUP3 ADD MSTORE PUSH1 0x0 SWAP1 PUSH1 0x1 PUSH1 0x1 PUSH1 0xA0 SHL SUB DUP4 AND SWAP1 PUSH4 0x21F8A721 SWAP1 PUSH1 0x24 ADD PUSH2 0x1AA4 JUMP JUMPDEST PUSH1 0x0 JUMPDEST DUP2 DUP2 LT ISZERO PUSH2 0x204C JUMPI CALLDATASIZE DUP4 DUP4 DUP4 DUP2 DUP2 LT PUSH2 0x2D4D JUMPI PUSH2 0x2D4D PUSH2 0x4563 JUMP JUMPDEST SWAP1 POP PUSH1 0x80 MUL ADD SWAP1 POP PUSH1 0x0 DUP3 PUSH1 0x1 PUSH2 0x2D64 SWAP2 SWAP1 PUSH2 0x489B JUMP JUMPDEST SWAP1 POP JUMPDEST DUP4 DUP2 LT ISZERO PUSH2 0x2E0F JUMPI CALLDATASIZE DUP6 DUP6 DUP4 DUP2 DUP2 LT PUSH2 0x2D82 JUMPI PUSH2 0x2D82 PUSH2 0x4563 JUMP JUMPDEST SWAP1 POP PUSH1 0x80 MUL ADD SWAP1 POP DUP1 PUSH1 0x60 ADD PUSH1 0x20 DUP2 ADD SWAP1 PUSH2 0x2D9D SWAP2 SWAP1 PUSH2 0x3E86 JUMP JUMPDEST PUSH1 0x1 PUSH1 0x1 PUSH1 0xA0 SHL SUB AND PUSH2 0x2DB6 PUSH1 0x80 DUP6 ADD PUSH1 0x60 DUP7 ADD PUSH2 0x3E86 JUMP JUMPDEST PUSH1 0x1 PUSH1 0x1 PUSH1 0xA0 SHL SUB AND EQ ISZERO PUSH1 0x40 MLOAD DUP1 PUSH1 0x40 ADD PUSH1 0x40 MSTORE DUP1 PUSH1 0x2 DUP2 MSTORE PUSH1 0x20 ADD PUSH2 0x3331 PUSH1 0xF0 SHL DUP2 MSTORE POP SWAP1 PUSH2 0x2DFA JUMPI PUSH1 0x40 MLOAD PUSH3 0x461BCD PUSH1 0xE5 SHL DUP2 MSTORE PUSH1 0x4 ADD PUSH2 0x36D SWAP2 SWAP1 PUSH2 0x3EA3 JUMP JUMPDEST POP POP DUP1 DUP1 PUSH2 0x2E07 SWAP1 PUSH2 0x458F JUMP JUMPDEST SWAP2 POP POP PUSH2 0x2D67 JUMP JUMPDEST POP POP DUP1 DUP1 PUSH2 0x2E1C SWAP1 PUSH2 0x458F JUMP JUMPDEST SWAP2 POP POP PUSH2 0x2D32 JUMP JUMPDEST PUSH1 0x0 DUP1 PUSH1 0x0 JUMPDEST DUP4 DUP2 LT ISZERO PUSH2 0x2EF3 JUMPI CALLDATASIZE DUP6 DUP6 DUP4 DUP2 DUP2 LT PUSH2 0x2E45 JUMPI PUSH2 0x2E45 PUSH2 0x4563 JUMP JUMPDEST SWAP1 POP PUSH1 0x80 MUL ADD SWAP1 POP DUP8 PUSH1 0x0 ADD MLOAD PUSH1 0x1 PUSH1 0x1 PUSH1 0xA0 SHL SUB AND DUP2 PUSH1 0x60 ADD PUSH1 0x20 DUP2 ADD SWAP1 PUSH2 0x2E6E SWAP2 SWAP1 PUSH2 0x3E86 JUMP JUMPDEST PUSH1 0x1 PUSH1 0x1 PUSH1 0xA0 SHL SUB AND SUB PUSH2 0x2EE0 JUMPI PUSH1 0x0 PUSH2 0x2E90 PUSH2 0x2E89 PUSH2 0x2204 JUMP JUMPDEST DUP11 SWAP1 PUSH2 0x382B JUMP JUMPDEST SWAP1 POP PUSH1 0x0 PUSH2 0x2EA2 DUP10 PUSH1 0x40 DUP6 ADD CALLDATALOAD PUSH2 0x255B JUMP JUMPDEST SWAP1 POP PUSH1 0x0 PUSH2 0x2EB0 DUP3 DUP5 PUSH2 0x383E JUMP JUMPDEST SWAP1 POP PUSH1 0x0 PUSH2 0x2ECB DUP13 PUSH1 0x20 ADD MLOAD DUP4 PUSH2 0x38A9 SWAP1 SWAP2 SWAP1 PUSH4 0xFFFFFFFF AND JUMP JUMPDEST SWAP8 POP POP POP PUSH1 0x40 SWAP1 SWAP3 ADD CALLDATALOAD SWAP4 POP PUSH2 0x2EFC SWAP3 POP POP POP JUMP JUMPDEST POP DUP1 PUSH2 0x2EEB DUP2 PUSH2 0x458F JUMP JUMPDEST SWAP2 POP POP PUSH2 0x2E2A JUMP JUMPDEST POP PUSH1 0x0 DUP1 SWAP2 POP SWAP2 POP JUMPDEST SWAP5 POP SWAP5 SWAP3 POP POP POP JUMP JUMPDEST PUSH1 0x0 DUP1 JUMPDEST DUP4 MLOAD DUP2 LT ISZERO PUSH2 0x2F71 JUMPI PUSH1 0x0 DUP5 DUP3 DUP2 MLOAD DUP2 LT PUSH2 0x2F26 JUMPI PUSH2 0x2F26 PUSH2 0x4563 JUMP JUMPDEST PUSH1 0x20 MUL PUSH1 0x20 ADD ADD MLOAD SWAP1 POP DUP4 PUSH1 0x1 PUSH1 0x1 PUSH1 0xA0 SHL SUB AND DUP2 PUSH1 0x0 ADD MLOAD PUSH1 0x0 ADD MLOAD PUSH1 0x1 PUSH1 0x1 PUSH1 0xA0 SHL SUB AND SUB PUSH2 0x2F5E JUMPI PUSH1 0x20 ADD MLOAD SWAP2 POP PUSH2 0x1AE5 SWAP1 POP JUMP JUMPDEST POP DUP1 PUSH2 0x2F69 DUP2 PUSH2 0x458F JUMP JUMPDEST SWAP2 POP POP PUSH2 0x2F09 JUMP JUMPDEST POP PUSH1 0x0 SWAP4 SWAP3 POP POP POP JUMP JUMPDEST PUSH1 0x0 PUSH1 0x60 DUP2 PUSH2 0x2F8F PUSH1 0x80 DUP7 ADD DUP7 DUP5 ADD PUSH2 0x3E86 JUMP JUMPDEST SWAP1 POP PUSH1 0x1 PUSH1 0x1 PUSH1 0xA0 SHL SUB DUP2 AND PUSH2 0x2FA8 PUSH1 0x20 DUP8 ADD DUP8 PUSH2 0x3E86 JUMP JUMPDEST PUSH1 0x1 PUSH1 0x1 PUSH1 0xA0 SHL SUB AND SUB PUSH2 0x2FCF JUMPI POP POP PUSH1 0x40 DUP1 MLOAD PUSH1 0x20 DUP2 ADD SWAP1 SWAP2 MSTORE PUSH1 0x0 DUP2 MSTORE DUP3 SWAP2 POP PUSH2 0x27B5 JUMP JUMPDEST DUP1 PUSH1 0x1 PUSH1 0x1 PUSH1 0xA0 SHL SUB AND PUSH4 0x6F307DC3 PUSH1 0x40 MLOAD DUP2 PUSH4 0xFFFFFFFF AND PUSH1 0xE0 SHL DUP2 MSTORE PUSH1 0x4 ADD PUSH1 0x20 PUSH1 0x40 MLOAD DUP1 DUP4 SUB DUP2 DUP7 GAS STATICCALL ISZERO DUP1 ISZERO PUSH2 0x300D JUMPI RETURNDATASIZE PUSH1 0x0 DUP1 RETURNDATACOPY RETURNDATASIZE PUSH1 0x0 REVERT JUMPDEST POP POP POP POP PUSH1 0x40 MLOAD RETURNDATASIZE PUSH1 0x1F NOT PUSH1 0x1F DUP3 ADD AND DUP3 ADD DUP1 PUSH1 0x40 MSTORE POP DUP2 ADD SWAP1 PUSH2 0x3031 SWAP2 SWAP1 PUSH2 0x48C1 JUMP JUMPDEST PUSH1 0x1 PUSH1 0x1 PUSH1 0xA0 SHL SUB AND PUSH2 0x3047 PUSH1 0x20 DUP8 ADD DUP8 PUSH2 0x3E86 JUMP JUMPDEST PUSH1 0x1 PUSH1 0x1 PUSH1 0xA0 SHL SUB AND EQ PUSH2 0x3079 JUMPI POP POP PUSH1 0x40 DUP1 MLOAD DUP1 DUP3 ADD SWAP1 SWAP2 MSTORE PUSH1 0x2 DUP2 MSTORE PUSH2 0x3335 PUSH1 0xF0 SHL PUSH1 0x20 DUP3 ADD MSTORE PUSH1 0x0 SWAP2 POP PUSH2 0x27B5 JUMP JUMPDEST PUSH1 0x40 MLOAD PUSH4 0x70A08231 PUSH1 0xE0 SHL DUP2 MSTORE PUSH1 0x1 PUSH1 0x1 PUSH1 0xA0 SHL SUB PUSH32 0x0 DUP2 AND PUSH1 0x4 DUP4 ADD MSTORE PUSH1 0x0 SWAP2 SWAP1 DUP4 AND SWAP1 PUSH4 0x70A08231 SWAP1 PUSH1 0x24 ADD PUSH1 0x20 PUSH1 0x40 MLOAD DUP1 DUP4 SUB DUP2 DUP7 GAS STATICCALL ISZERO DUP1 ISZERO PUSH2 0x30E3 JUMPI RETURNDATASIZE PUSH1 0x0 DUP1 RETURNDATACOPY RETURNDATASIZE PUSH1 0x0 REVERT JUMPDEST POP POP POP POP PUSH1 0x40 MLOAD RETURNDATASIZE PUSH1 0x1F NOT PUSH1 0x1F DUP3 ADD AND DUP3 ADD DUP1 PUSH1 0x40 MSTORE POP DUP2 ADD SWAP1 PUSH2 0x3107 SWAP2 SWAP1 PUSH2 0x46D4 JUMP JUMPDEST SWAP1 POP DUP5 DUP2 LT ISZERO PUSH2 0x3139 JUMPI PUSH1 0x0 PUSH1 0x40 MLOAD DUP1 PUSH1 0x40 ADD PUSH1 0x40 MSTORE DUP1 PUSH1 0x2 DUP2 MSTORE PUSH1 0x20 ADD PUSH2 0xCCD PUSH1 0xF2 SHL DUP2 MSTORE POP SWAP4 POP SWAP4 POP POP POP PUSH2 0x27B5 JUMP JUMPDEST PUSH1 0x40 MLOAD PUSH4 0xCC04FEFF PUSH1 0xE0 SHL DUP2 MSTORE PUSH1 0x4 DUP2 ADD DUP7 SWAP1 MSTORE PUSH1 0x0 PUSH1 0x24 DUP3 ADD MSTORE PUSH1 0x1 PUSH1 0x1 PUSH1 0xA0 SHL SUB DUP4 AND SWAP1 PUSH4 0xCC04FEFF SWAP1 PUSH1 0x44 ADD PUSH1 0x0 PUSH1 0x40 MLOAD DUP1 DUP4 SUB DUP2 DUP7 GAS STATICCALL ISZERO DUP1 ISZERO PUSH2 0x3185 JUMPI RETURNDATASIZE PUSH1 0x0 DUP1 RETURNDATACOPY RETURNDATASIZE PUSH1 0x0 REVERT JUMPDEST POP POP POP POP PUSH1 0x40 MLOAD RETURNDATASIZE PUSH1 0x0 DUP3 RETURNDATACOPY PUSH1 0x1F RETURNDATASIZE SWAP1 DUP2 ADD PUSH1 0x1F NOT AND DUP3 ADD PUSH1 0x40 MSTORE PUSH2 0x31AD SWAP2 SWAP1 DUP2 ADD SWAP1 PUSH2 0x4B64 JUMP JUMPDEST SWAP4 POP SWAP4 POP POP POP SWAP3 POP SWAP3 SWAP1 POP JUMP JUMPDEST PUSH1 0x60 DUP3 ADD MLOAD PUSH1 0x40 MLOAD PUSH4 0x13C50353 PUSH1 0xE3 SHL DUP2 MSTORE PUSH1 0x1 PUSH1 0x1 PUSH1 0xA0 SHL SUB DUP1 DUP4 AND PUSH1 0x4 DUP4 ADD MSTORE PUSH1 0x24 DUP3 ADD DUP5 SWAP1 MSTORE PUSH1 0x0 SWAP3 SWAP2 PUSH32 0x0 SWAP1 SWAP2 AND SWAP1 PUSH4 0x9E281A98 SWAP1 PUSH1 0x44 ADD PUSH1 0x0 PUSH1 0x40 MLOAD DUP1 DUP4 SUB DUP2 PUSH1 0x0 DUP8 DUP1 EXTCODESIZE ISZERO DUP1 ISZERO PUSH2 0x322F JUMPI PUSH1 0x0 DUP1 REVERT JUMPDEST POP GAS CALL ISZERO DUP1 ISZERO PUSH2 0x3243 JUMPI RETURNDATASIZE PUSH1 0x0 DUP1 RETURNDATACOPY RETURNDATASIZE PUSH1 0x0 REVERT JUMPDEST POP POP POP POP DUP1 PUSH1 0x1 PUSH1 0x1 PUSH1 0xA0 SHL SUB AND DUP5 PUSH1 0x0 ADD MLOAD PUSH1 0x1 PUSH1 0x1 PUSH1 0xA0 SHL SUB AND SUB PUSH2 0x326D JUMPI DUP3 SWAP2 POP POP PUSH2 0x1AE5 JUMP JUMPDEST DUP1 PUSH1 0x1 PUSH1 0x1 PUSH1 0xA0 SHL SUB AND PUSH4 0x6F307DC3 PUSH1 0x40 MLOAD DUP2 PUSH4 0xFFFFFFFF AND PUSH1 0xE0 SHL DUP2 MSTORE PUSH1 0x4 ADD PUSH1 0x20 PUSH1 0x40 MLOAD DUP1 DUP4 SUB DUP2 DUP7 GAS STATICCALL ISZERO DUP1 ISZERO PUSH2 0x32AB JUMPI RETURNDATASIZE PUSH1 0x0 DUP1 RETURNDATACOPY RETURNDATASIZE PUSH1 0x0 REVERT JUMPDEST POP POP POP POP PUSH1 0x40 MLOAD RETURNDATASIZE PUSH1 0x1F NOT PUSH1 0x1F DUP3 ADD AND DUP3 ADD DUP1 PUSH1 0x40 MSTORE POP DUP2 ADD SWAP1 PUSH2 0x32CF SWAP2 SWAP1 PUSH2 0x48C1 JUMP JUMPDEST PUSH1 0x1 PUSH1 0x1 PUSH1 0xA0 SHL SUB AND DUP5 PUSH1 0x0 ADD MLOAD PUSH1 0x1 PUSH1 0x1 PUSH1 0xA0 SHL SUB AND EQ PUSH1 0x40 MLOAD DUP1 PUSH1 0x40 ADD PUSH1 0x40 MSTORE DUP1 PUSH1 0x2 DUP2 MSTORE PUSH1 0x20 ADD PUSH2 0x3335 PUSH1 0xF0 SHL DUP2 MSTORE POP SWAP1 PUSH2 0x3320 JUMPI PUSH1 0x40 MLOAD PUSH3 0x461BCD PUSH1 0xE5 SHL DUP2 MSTORE PUSH1 0x4 ADD PUSH2 0x36D SWAP2 SWAP1 PUSH2 0x3EA3 JUMP JUMPDEST POP PUSH1 0x40 MLOAD PUSH4 0x441A3E7 PUSH1 0xE4 SHL DUP2 MSTORE PUSH1 0x4 DUP2 ADD DUP5 SWAP1 MSTORE PUSH1 0x0 PUSH1 0x24 DUP3 ADD MSTORE PUSH1 0x1 PUSH1 0x1 PUSH1 0xA0 SHL SUB DUP3 AND SWAP1 PUSH4 0x441A3E70 SWAP1 PUSH1 0x44 ADD PUSH1 0x20 PUSH1 0x40 MLOAD DUP1 DUP4 SUB DUP2 PUSH1 0x0 DUP8 GAS CALL ISZERO DUP1 ISZERO PUSH2 0x336F JUMPI RETURNDATASIZE PUSH1 0x0 DUP1 RETURNDATACOPY RETURNDATASIZE PUSH1 0x0 REVERT JUMPDEST POP POP POP POP PUSH1 0x40 MLOAD RETURNDATASIZE PUSH1 0x1F NOT PUSH1 0x1F DUP3 ADD AND DUP3 ADD DUP1 PUSH1 0x40 MSTORE POP DUP2 ADD SWAP1 PUSH2 0x3393 SWAP2 SWAP1 PUSH2 0x46D4 JUMP JUMPDEST SWAP2 POP POP PUSH2 0x1AE5 JUMP JUMPDEST PUSH1 0x0 PUSH1 0x60 PUSH2 0x33AE DUP4 DUP3 ADD PUSH1 0x40 DUP6 ADD PUSH2 0x3E86 JUMP JUMPDEST PUSH1 0x1 PUSH1 0x1 PUSH1 0xA0 SHL SUB AND PUSH2 0x33C4 PUSH1 0x20 DUP6 ADD DUP6 PUSH2 0x3E86 JUMP JUMPDEST PUSH1 0x1 PUSH1 0x1 PUSH1 0xA0 SHL SUB AND SUB PUSH2 0x33EA JUMPI POP POP PUSH1 0x40 DUP1 MLOAD PUSH1 0x20 DUP2 DUP2 ADD SWAP1 SWAP3 MSTORE PUSH1 0x0 DUP2 MSTORE SWAP2 ADD CALLDATALOAD SWAP2 JUMP JUMPDEST PUSH1 0x0 PUSH2 0x33FC PUSH1 0x60 DUP6 ADD PUSH1 0x40 DUP7 ADD PUSH2 0x3E86 JUMP JUMPDEST SWAP1 POP DUP1 PUSH1 0x1 PUSH1 0x1 PUSH1 0xA0 SHL SUB AND PUSH4 0x6F307DC3 PUSH1 0x40 MLOAD DUP2 PUSH4 0xFFFFFFFF AND PUSH1 0xE0 SHL DUP2 MSTORE PUSH1 0x4 ADD PUSH1 0x20 PUSH1 0x40 MLOAD DUP1 DUP4 SUB DUP2 DUP7 GAS STATICCALL ISZERO DUP1 ISZERO PUSH2 0x343C JUMPI RETURNDATASIZE PUSH1 0x0 DUP1 RETURNDATACOPY RETURNDATASIZE PUSH1 0x0 REVERT JUMPDEST POP POP POP POP PUSH1 0x40 MLOAD RETURNDATASIZE PUSH1 0x1F NOT PUSH1 0x1F DUP3 ADD AND DUP3 ADD DUP1 PUSH1 0x40 MSTORE POP DUP2 ADD SWAP1 PUSH2 0x3460 SWAP2 SWAP1 PUSH2 0x48C1 JUMP JUMPDEST PUSH1 0x1 PUSH1 0x1 PUSH1 0xA0 SHL SUB AND PUSH2 0x3476 PUSH1 0x20 DUP7 ADD DUP7 PUSH2 0x3E86 JUMP JUMPDEST PUSH1 0x1 PUSH1 0x1 PUSH1 0xA0 SHL SUB AND SUB PUSH2 0x3505 JUMPI PUSH1 0x40 MLOAD PUSH4 0x2A8695B1 PUSH1 0xE1 SHL DUP2 MSTORE PUSH1 0x20 DUP6 ADD CALLDATALOAD PUSH1 0x4 DUP3 ADD MSTORE PUSH1 0x0 PUSH1 0x24 DUP3 ADD MSTORE PUSH1 0x1 PUSH1 0x1 PUSH1 0xA0 SHL SUB DUP3 AND SWAP1 PUSH4 0x550D2B62 SWAP1 PUSH1 0x44 ADD PUSH1 0x0 PUSH1 0x40 MLOAD DUP1 DUP4 SUB DUP2 DUP7 GAS STATICCALL ISZERO DUP1 ISZERO PUSH2 0x34D3 JUMPI RETURNDATASIZE PUSH1 0x0 DUP1 RETURNDATACOPY RETURNDATASIZE PUSH1 0x0 REVERT JUMPDEST POP POP POP POP PUSH1 0x40 MLOAD RETURNDATASIZE PUSH1 0x0 DUP3 RETURNDATACOPY PUSH1 0x1F RETURNDATASIZE SWAP1 DUP2 ADD PUSH1 0x1F NOT AND DUP3 ADD PUSH1 0x40 MSTORE PUSH2 0x34FB SWAP2 SWAP1 DUP2 ADD SWAP1 PUSH2 0x4B64 JUMP JUMPDEST SWAP3 POP SWAP3 POP POP SWAP2 POP SWAP2 JUMP JUMPDEST PUSH1 0x0 PUSH1 0x40 MLOAD DUP1 PUSH1 0x40 ADD PUSH1 0x40 MSTORE DUP1 PUSH1 0x2 DUP2 MSTORE PUSH1 0x20 ADD PUSH2 0x3335 PUSH1 0xF0 SHL DUP2 MSTORE POP SWAP3 POP SWAP3 POP POP SWAP2 POP SWAP2 JUMP JUMPDEST PUSH1 0x40 MLOAD PUSH1 0x1 PUSH1 0x1 PUSH1 0xA0 SHL SUB DUP1 DUP6 AND PUSH1 0x24 DUP4 ADD MSTORE DUP4 AND PUSH1 0x44 DUP3 ADD MSTORE PUSH1 0x64 DUP2 ADD DUP3 SWAP1 MSTORE PUSH2 0x3564 SWAP1 DUP6 SWAP1 PUSH4 0x23B872DD PUSH1 0xE0 SHL SWAP1 PUSH1 0x84 ADD PUSH2 0x2015 JUMP JUMPDEST POP POP POP POP JUMP JUMPDEST PUSH1 0x40 MLOAD PUSH4 0x6EB1769F PUSH1 0xE1 SHL DUP2 MSTORE ADDRESS PUSH1 0x4 DUP3 ADD MSTORE PUSH1 0x1 PUSH1 0x1 PUSH1 0xA0 SHL SUB DUP4 DUP2 AND PUSH1 0x24 DUP4 ADD MSTORE PUSH1 0x0 SWAP2 DUP4 SWAP2 DUP7 AND SWAP1 PUSH4 0xDD62ED3E SWAP1 PUSH1 0x44 ADD PUSH1 0x20 PUSH1 0x40 MLOAD DUP1 DUP4 SUB DUP2 DUP7 GAS STATICCALL ISZERO DUP1 ISZERO PUSH2 0x35BB JUMPI RETURNDATASIZE PUSH1 0x0 DUP1 RETURNDATACOPY RETURNDATASIZE PUSH1 0x0 REVERT JUMPDEST POP POP POP POP PUSH1 0x40 MLOAD RETURNDATASIZE PUSH1 0x1F NOT PUSH1 0x1F DUP3 ADD AND DUP3 ADD DUP1 PUSH1 0x40 MSTORE POP DUP2 ADD SWAP1 PUSH2 0x35DF SWAP2 SWAP1 PUSH2 0x46D4 JUMP JUMPDEST PUSH2 0x35E9 SWAP2 SWAP1 PUSH2 0x489B JUMP JUMPDEST PUSH1 0x40 MLOAD PUSH1 0x1 PUSH1 0x1 PUSH1 0xA0 SHL SUB DUP6 AND PUSH1 0x24 DUP3 ADD MSTORE PUSH1 0x44 DUP2 ADD DUP3 SWAP1 MSTORE SWAP1 SWAP2 POP PUSH2 0x3564 SWAP1 DUP6 SWAP1 PUSH4 0x95EA7B3 PUSH1 0xE0 SHL SWAP1 PUSH1 0x64 ADD PUSH2 0x2015 JUMP JUMPDEST PUSH1 0x60 PUSH2 0x2432 DUP5 DUP5 PUSH1 0x0 DUP6 PUSH2 0x38E0 JUMP JUMPDEST PUSH1 0x60 PUSH1 0x0 DUP4 MLOAD PUSH1 0x1 PUSH1 0x1 PUSH1 0x40 SHL SUB DUP2 GT ISZERO PUSH2 0x3648 JUMPI PUSH2 0x3648 PUSH2 0x3EB6 JUMP JUMPDEST PUSH1 0x40 MLOAD SWAP1 DUP1 DUP3 MSTORE DUP1 PUSH1 0x20 MUL PUSH1 0x20 ADD DUP3 ADD PUSH1 0x40 MSTORE DUP1 ISZERO PUSH2 0x36B0 JUMPI DUP2 PUSH1 0x20 ADD JUMPDEST PUSH2 0x369D PUSH1 0x40 DUP1 MLOAD PUSH1 0x80 DUP2 ADD DUP3 MSTORE PUSH1 0x0 DUP1 DUP3 MSTORE PUSH1 0x20 DUP1 DUP4 ADD DUP3 SWAP1 MSTORE DUP3 DUP5 ADD DUP3 SWAP1 MSTORE DUP4 MLOAD DUP1 DUP6 ADD SWAP1 SWAP5 MSTORE DUP2 DUP5 MSTORE DUP4 ADD MSTORE SWAP1 PUSH1 0x60 DUP3 ADD MSTORE SWAP1 JUMP JUMPDEST DUP2 MSTORE PUSH1 0x20 ADD SWAP1 PUSH1 0x1 SWAP1 SUB SWAP1 DUP2 PUSH2 0x3666 JUMPI SWAP1 POP JUMPDEST POP SWAP1 POP PUSH1 0x0 JUMPDEST DUP5 MLOAD DUP2 LT ISZERO PUSH2 0x1DAF JUMPI DUP5 DUP2 DUP2 MLOAD DUP2 LT PUSH2 0x36D1 JUMPI PUSH2 0x36D1 PUSH2 0x4563 JUMP JUMPDEST PUSH1 0x20 MUL PUSH1 0x20 ADD ADD MLOAD PUSH1 0x0 ADD MLOAD DUP3 DUP3 DUP2 MLOAD DUP2 LT PUSH2 0x36EF JUMPI PUSH2 0x36EF PUSH2 0x4563 JUMP JUMPDEST PUSH1 0x20 SWAP1 DUP2 MUL SWAP2 SWAP1 SWAP2 ADD ADD MLOAD PUSH1 0x1 PUSH1 0x1 PUSH1 0xA0 SHL SUB SWAP1 SWAP2 AND SWAP1 MSTORE DUP5 MLOAD DUP6 SWAP1 DUP3 SWAP1 DUP2 LT PUSH2 0x371B JUMPI PUSH2 0x371B PUSH2 0x4563 JUMP JUMPDEST PUSH1 0x20 MUL PUSH1 0x20 ADD ADD MLOAD PUSH1 0x20 ADD MLOAD DUP3 DUP3 DUP2 MLOAD DUP2 LT PUSH2 0x3739 JUMPI PUSH2 0x3739 PUSH2 0x4563 JUMP JUMPDEST PUSH1 0x20 MUL PUSH1 0x20 ADD ADD MLOAD PUSH1 0x20 ADD SWAP1 ISZERO ISZERO SWAP1 DUP2 ISZERO ISZERO DUP2 MSTORE POP POP DUP5 DUP2 DUP2 MLOAD DUP2 LT PUSH2 0x3761 JUMPI PUSH2 0x3761 PUSH2 0x4563 JUMP JUMPDEST PUSH1 0x20 MUL PUSH1 0x20 ADD ADD MLOAD PUSH1 0x20 ADD MLOAD DUP1 ISZERO PUSH2 0x37A3 JUMPI POP PUSH8 0xDE0B6B3A7640000 DUP6 DUP3 DUP2 MLOAD DUP2 LT PUSH2 0x378F JUMPI PUSH2 0x378F PUSH2 0x4563 JUMP JUMPDEST PUSH1 0x20 MUL PUSH1 0x20 ADD ADD MLOAD PUSH1 0x40 ADD MLOAD LT ISZERO ISZERO DUP5 ISZERO ISZERO EQ JUMPDEST ISZERO PUSH2 0x37D8 JUMPI PUSH8 0xDE0B6B3A7640000 DUP3 DUP3 DUP2 MLOAD DUP2 LT PUSH2 0x37C3 JUMPI PUSH2 0x37C3 PUSH2 0x4563 JUMP JUMPDEST PUSH1 0x20 MUL PUSH1 0x20 ADD ADD MLOAD PUSH1 0x40 ADD DUP2 DUP2 MSTORE POP POP PUSH2 0x3819 JUMP JUMPDEST DUP5 DUP2 DUP2 MLOAD DUP2 LT PUSH2 0x37EA JUMPI PUSH2 0x37EA PUSH2 0x4563 JUMP JUMPDEST PUSH1 0x20 MUL PUSH1 0x20 ADD ADD MLOAD PUSH1 0x40 ADD MLOAD DUP3 DUP3 DUP2 MLOAD DUP2 LT PUSH2 0x3808 JUMPI PUSH2 0x3808 PUSH2 0x4563 JUMP JUMPDEST PUSH1 0x20 MUL PUSH1 0x20 ADD ADD MLOAD PUSH1 0x40 ADD DUP2 DUP2 MSTORE POP POP JUMPDEST DUP1 PUSH2 0x3823 DUP2 PUSH2 0x458F JUMP JUMPDEST SWAP2 POP POP PUSH2 0x36B6 JUMP JUMPDEST PUSH1 0x0 DUP1 PUSH2 0x2B9F DUP5 PUSH2 0x100 ADD MLOAD PUSH1 0x1 PUSH2 0x362B JUMP JUMPDEST PUSH1 0x40 DUP1 MLOAD DUP1 DUP3 ADD SWAP1 SWAP2 MSTORE PUSH1 0x2 DUP2 MSTORE PUSH2 0x3235 PUSH1 0xF0 SHL PUSH1 0x20 DUP3 ADD MSTORE PUSH1 0x0 SWAP1 DUP3 PUSH2 0x3878 JUMPI PUSH1 0x40 MLOAD PUSH3 0x461BCD PUSH1 0xE5 SHL DUP2 MSTORE PUSH1 0x4 ADD PUSH2 0x36D SWAP2 SWAP1 PUSH2 0x3EA3 JUMP JUMPDEST POP DUP3 PUSH1 0x0 SUB PUSH2 0x3889 JUMPI POP PUSH1 0x0 PUSH2 0x1AE5 JUMP JUMPDEST PUSH1 0x0 PUSH2 0x389D PUSH8 0xDE0B6B3A7640000 DUP6 PUSH2 0x498F JUMP JUMPDEST SWAP1 POP PUSH2 0x3393 DUP4 DUP3 PUSH2 0x49A6 JUMP JUMPDEST PUSH1 0x0 PUSH1 0x11 NOT PUSH1 0xFF DUP4 AND ADD PUSH2 0x38BE JUMPI POP DUP2 PUSH2 0x1AE5 JUMP JUMPDEST PUSH1 0x12 PUSH1 0xFF DUP4 AND GT ISZERO PUSH2 0x38D5 JUMPI PUSH2 0x2C40 PUSH1 0x12 DUP4 PUSH2 0x4A60 JUMP JUMPDEST PUSH2 0x2C19 DUP3 PUSH1 0x12 PUSH2 0x4A60 JUMP JUMPDEST PUSH1 0x60 DUP3 SELFBALANCE LT ISZERO PUSH2 0x3941 JUMPI PUSH1 0x40 MLOAD PUSH3 0x461BCD PUSH1 0xE5 SHL DUP2 MSTORE PUSH1 0x20 PUSH1 0x4 DUP3 ADD MSTORE PUSH1 0x26 PUSH1 0x24 DUP3 ADD MSTORE PUSH32 0x416464726573733A20696E73756666696369656E742062616C616E636520666F PUSH1 0x44 DUP3 ADD MSTORE PUSH6 0x1C8818D85B1B PUSH1 0xD2 SHL PUSH1 0x64 DUP3 ADD MSTORE PUSH1 0x84 ADD PUSH2 0x36D JUMP JUMPDEST PUSH1 0x0 DUP1 DUP7 PUSH1 0x1 PUSH1 0x1 PUSH1 0xA0 SHL SUB AND DUP6 DUP8 PUSH1 0x40 MLOAD PUSH2 0x395D SWAP2 SWAP1 PUSH2 0x4BAA JUMP JUMPDEST PUSH1 0x0 PUSH1 0x40 MLOAD DUP1 DUP4 SUB DUP2 DUP6 DUP8 GAS CALL SWAP3 POP POP POP RETURNDATASIZE DUP1 PUSH1 0x0 DUP2 EQ PUSH2 0x399A JUMPI PUSH1 0x40 MLOAD SWAP2 POP PUSH1 0x1F NOT PUSH1 0x3F RETURNDATASIZE ADD AND DUP3 ADD PUSH1 0x40 MSTORE RETURNDATASIZE DUP3 MSTORE RETURNDATASIZE PUSH1 0x0 PUSH1 0x20 DUP5 ADD RETURNDATACOPY PUSH2 0x399F JUMP JUMPDEST PUSH1 0x60 SWAP2 POP JUMPDEST POP SWAP2 POP SWAP2 POP PUSH2 0x39B0 DUP8 DUP4 DUP4 DUP8 PUSH2 0x39BB JUMP JUMPDEST SWAP8 SWAP7 POP POP POP POP POP POP POP JUMP JUMPDEST PUSH1 0x60 DUP4 ISZERO PUSH2 0x3A2A JUMPI DUP3 MLOAD PUSH1 0x0 SUB PUSH2 0x3A23 JUMPI PUSH1 0x1 PUSH1 0x1 PUSH1 0xA0 SHL SUB DUP6 AND EXTCODESIZE PUSH2 0x3A23 JUMPI PUSH1 0x40 MLOAD PUSH3 0x461BCD PUSH1 0xE5 SHL DUP2 MSTORE PUSH1 0x20 PUSH1 0x4 DUP3 ADD MSTORE PUSH1 0x1D PUSH1 0x24 DUP3 ADD MSTORE PUSH32 0x416464726573733A2063616C6C20746F206E6F6E2D636F6E7472616374000000 PUSH1 0x44 DUP3 ADD MSTORE PUSH1 0x64 ADD PUSH2 0x36D JUMP JUMPDEST POP DUP2 PUSH2 0x2432 JUMP JUMPDEST PUSH2 0x2432 DUP4 DUP4 DUP2 MLOAD ISZERO PUSH2 0x3A3F JUMPI DUP2 MLOAD DUP1 DUP4 PUSH1 0x20 ADD REVERT JUMPDEST DUP1 PUSH1 0x40 MLOAD PUSH3 0x461BCD PUSH1 0xE5 SHL DUP2 MSTORE PUSH1 0x4 ADD PUSH2 0x36D SWAP2 SWAP1 PUSH2 0x3EA3 JUMP JUMPDEST PUSH1 0x40 MLOAD DUP1 PUSH1 0x40 ADD PUSH1 0x40 MSTORE DUP1 PUSH2 0x3A6C PUSH2 0x3A79 JUMP JUMPDEST DUP2 MSTORE PUSH1 0x20 ADD PUSH1 0x0 DUP2 MSTORE POP SWAP1 JUMP JUMPDEST PUSH1 0x40 MLOAD DUP1 PUSH2 0x120 ADD PUSH1 0x40 MSTORE DUP1 PUSH1 0x0 PUSH1 0x1 PUSH1 0x1 PUSH1 0xA0 SHL SUB AND DUP2 MSTORE PUSH1 0x20 ADD PUSH1 0x0 PUSH1 0xFF AND DUP2 MSTORE PUSH1 0x20 ADD PUSH1 0x0 PUSH1 0x1 PUSH1 0x1 PUSH1 0xA0 SHL SUB AND DUP2 MSTORE PUSH1 0x20 ADD PUSH1 0x0 DUP2 MSTORE PUSH1 0x20 ADD PUSH2 0x3B11 PUSH1 0x40 MLOAD DUP1 PUSH1 0xE0 ADD PUSH1 0x40 MSTORE DUP1 PUSH1 0x0 DUP2 MSTORE PUSH1 0x20 ADD PUSH1 0x0 DUP2 MSTORE PUSH1 0x20 ADD PUSH1 0x0 DUP2 MSTORE PUSH1 0x20 ADD PUSH1 0x0 DUP2 MSTORE PUSH1 0x20 ADD PUSH1 0x0 PUSH1 0x1 PUSH1 0x1 PUSH1 0x40 SHL SUB AND DUP2 MSTORE PUSH1 0x20 ADD PUSH1 0x0 PUSH1 0x1 PUSH1 0x1 PUSH1 0x40 SHL SUB AND DUP2 MSTORE PUSH1 0x20 ADD PUSH1 0x0 PUSH1 0x1 PUSH1 0x1 PUSH1 0x40 SHL SUB AND DUP2 MSTORE POP SWAP1 JUMP JUMPDEST DUP2 MSTORE PUSH1 0x20 ADD PUSH1 0x0 DUP2 MSTORE PUSH1 0x20 ADD PUSH1 0x0 DUP2 MSTORE PUSH1 0x20 ADD PUSH1 0x0 DUP2 MSTORE PUSH1 0x20 ADD PUSH1 0x60 DUP2 MSTORE POP SWAP1 JUMP JUMPDEST PUSH1 0x0 DUP1 DUP4 PUSH1 0x1F DUP5 ADD SLT PUSH2 0x3B45 JUMPI PUSH1 0x0 DUP1 REVERT JUMPDEST POP DUP2 CALLDATALOAD PUSH1 0x1 PUSH1 0x1 PUSH1 0x40 SHL SUB DUP2 GT ISZERO PUSH2 0x3B5C JUMPI PUSH1 0x0 DUP1 REVERT JUMPDEST PUSH1 0x20 DUP4 ADD SWAP2 POP DUP4 PUSH1 0x20 PUSH1 0x60 DUP4 MUL DUP6 ADD ADD GT ISZERO PUSH2 0x27B5 JUMPI PUSH1 0x0 DUP1 REVERT JUMPDEST PUSH1 0x0 DUP1 PUSH1 0x0 PUSH1 0x40 DUP5 DUP7 SUB SLT ISZERO PUSH2 0x3B8C JUMPI PUSH1 0x0 DUP1 REVERT JUMPDEST DUP4 CALLDATALOAD PUSH1 0x1 PUSH1 0x1 PUSH1 0x40 SHL SUB DUP2 GT ISZERO PUSH2 0x3BA2 JUMPI PUSH1 0x0 DUP1 REVERT JUMPDEST PUSH2 0x3BAE DUP7 DUP3 DUP8 ADD PUSH2 0x3B33 JUMP JUMPDEST SWAP1 SWAP8 SWAP1 SWAP7 POP PUSH1 0x20 SWAP6 SWAP1 SWAP6 ADD CALLDATALOAD SWAP5 SWAP4 POP POP POP POP JUMP JUMPDEST PUSH1 0x0 DUP1 DUP4 PUSH1 0x1F DUP5 ADD SLT PUSH2 0x3BD4 JUMPI PUSH1 0x0 DUP1 REVERT JUMPDEST POP DUP2 CALLDATALOAD PUSH1 0x1 PUSH1 0x1 PUSH1 0x40 SHL SUB DUP2 GT ISZERO PUSH2 0x3BEB JUMPI PUSH1 0x0 DUP1 REVERT JUMPDEST PUSH1 0x20 DUP4 ADD SWAP2 POP DUP4 PUSH1 0x20 DUP3 PUSH1 0x7 SHL DUP6 ADD ADD GT ISZERO PUSH2 0x27B5 JUMPI PUSH1 0x0 DUP1 REVERT JUMPDEST PUSH1 0x0 DUP1 DUP4 PUSH1 0x1F DUP5 ADD SLT PUSH2 0x3C18 JUMPI PUSH1 0x0 DUP1 REVERT JUMPDEST POP DUP2 CALLDATALOAD PUSH1 0x1 PUSH1 0x1 PUSH1 0x40 SHL SUB DUP2 GT ISZERO PUSH2 0x3C2F JUMPI PUSH1 0x0 DUP1 REVERT JUMPDEST PUSH1 0x20 DUP4 ADD SWAP2 POP DUP4 PUSH1 0x20 DUP3 PUSH1 0x5 SHL DUP6 ADD ADD GT ISZERO PUSH2 0x27B5 JUMPI PUSH1 0x0 DUP1 REVERT JUMPDEST PUSH1 0x0 DUP1 PUSH1 0x0 DUP1 PUSH1 0x0 PUSH1 0x60 DUP7 DUP9 SUB SLT ISZERO PUSH2 0x3C62 JUMPI PUSH1 0x0 DUP1 REVERT JUMPDEST DUP6 CALLDATALOAD SWAP5 POP PUSH1 0x20 DUP7 ADD CALLDATALOAD PUSH1 0x1 PUSH1 0x1 PUSH1 0x40 SHL SUB DUP1 DUP3 GT ISZERO PUSH2 0x3C80 JUMPI PUSH1 0x0 DUP1 REVERT JUMPDEST PUSH2 0x3C8C DUP10 DUP4 DUP11 ADD PUSH2 0x3BC2 JUMP JUMPDEST SWAP1 SWAP7 POP SWAP5 POP PUSH1 0x40 DUP9 ADD CALLDATALOAD SWAP2 POP DUP1 DUP3 GT ISZERO PUSH2 0x3CA5 JUMPI PUSH1 0x0 DUP1 REVERT JUMPDEST POP PUSH2 0x3CB2 DUP9 DUP3 DUP10 ADD PUSH2 0x3C06 JUMP JUMPDEST SWAP7 SWAP10 SWAP6 SWAP9 POP SWAP4 SWAP7 POP SWAP3 SWAP5 SWAP4 SWAP3 POP POP POP JUMP JUMPDEST PUSH1 0x0 DUP2 MLOAD DUP1 DUP5 MSTORE PUSH1 0x20 DUP1 DUP6 ADD SWAP5 POP DUP1 DUP5 ADD PUSH1 0x0 JUMPDEST DUP4 DUP2 LT ISZERO PUSH2 0x3CF3 JUMPI DUP2 MLOAD DUP8 MSTORE SWAP6 DUP3 ADD SWAP6 SWAP1 DUP3 ADD SWAP1 PUSH1 0x1 ADD PUSH2 0x3CD7 JUMP JUMPDEST POP SWAP5 SWAP6 SWAP5 POP POP POP POP POP JUMP JUMPDEST PUSH1 0x20 DUP2 MSTORE PUSH1 0x0 PUSH2 0x3D11 PUSH1 0x20 DUP4 ADD DUP5 PUSH2 0x3CC3 JUMP JUMPDEST SWAP4 SWAP3 POP POP POP JUMP JUMPDEST PUSH1 0x0 DUP1 PUSH1 0x0 PUSH1 0x40 DUP5 DUP7 SUB SLT ISZERO PUSH2 0x3D2D JUMPI PUSH1 0x0 DUP1 REVERT JUMPDEST DUP4 CALLDATALOAD SWAP3 POP PUSH1 0x20 DUP5 ADD CALLDATALOAD PUSH1 0x1 PUSH1 0x1 PUSH1 0x40 SHL SUB DUP2 GT ISZERO PUSH2 0x3D4A JUMPI PUSH1 0x0 DUP1 REVERT JUMPDEST PUSH2 0x3D56 DUP7 DUP3 DUP8 ADD PUSH2 0x3BC2 JUMP JUMPDEST SWAP5 SWAP8 SWAP1 SWAP7 POP SWAP4 SWAP5 POP POP POP POP JUMP JUMPDEST PUSH1 0x0 JUMPDEST DUP4 DUP2 LT ISZERO PUSH2 0x3D7E JUMPI DUP2 DUP2 ADD MLOAD DUP4 DUP3 ADD MSTORE PUSH1 0x20 ADD PUSH2 0x3D66 JUMP JUMPDEST POP POP PUSH1 0x0 SWAP2 ADD MSTORE JUMP JUMPDEST PUSH1 0x0 DUP2 MLOAD DUP1 DUP5 MSTORE PUSH2 0x3D9F DUP2 PUSH1 0x20 DUP7 ADD PUSH1 0x20 DUP7 ADD PUSH2 0x3D63 JUMP JUMPDEST PUSH1 0x1F ADD PUSH1 0x1F NOT AND SWAP3 SWAP1 SWAP3 ADD PUSH1 0x20 ADD SWAP3 SWAP2 POP POP JUMP JUMPDEST PUSH1 0x40 DUP2 MSTORE PUSH1 0x0 PUSH2 0x3DC6 PUSH1 0x40 DUP4 ADD DUP6 PUSH2 0x3CC3 JUMP JUMPDEST DUP3 DUP2 SUB PUSH1 0x20 DUP5 ADD MSTORE PUSH2 0x3DD8 DUP2 DUP6 PUSH2 0x3D87 JUMP JUMPDEST SWAP6 SWAP5 POP POP POP POP POP JUMP JUMPDEST DUP3 DUP2 MSTORE PUSH1 0x40 PUSH1 0x20 DUP3 ADD MSTORE PUSH1 0x0 PUSH2 0x2432 PUSH1 0x40 DUP4 ADD DUP5 PUSH2 0x3D87 JUMP JUMPDEST PUSH1 0x0 PUSH1 0x20 DUP3 DUP5 SUB SLT ISZERO PUSH2 0x3E0C JUMPI PUSH1 0x0 DUP1 REVERT JUMPDEST POP CALLDATALOAD SWAP2 SWAP1 POP JUMP JUMPDEST PUSH1 0x0 DUP1 PUSH1 0x0 DUP1 PUSH1 0x0 PUSH1 0x60 DUP7 DUP9 SUB SLT ISZERO PUSH2 0x3E2B JUMPI PUSH1 0x0 DUP1 REVERT JUMPDEST DUP6 CALLDATALOAD PUSH1 0x1 PUSH1 0x1 PUSH1 0x40 SHL SUB DUP1 DUP3 GT ISZERO PUSH2 0x3E42 JUMPI PUSH1 0x0 DUP1 REVERT JUMPDEST PUSH2 0x3E4E DUP10 DUP4 DUP11 ADD PUSH2 0x3B33 JUMP JUMPDEST SWAP1 SWAP8 POP SWAP6 POP PUSH1 0x20 DUP9 ADD CALLDATALOAD SWAP5 POP PUSH1 0x40 DUP9 ADD CALLDATALOAD SWAP2 POP DUP1 DUP3 GT ISZERO PUSH2 0x3CA5 JUMPI PUSH1 0x0 DUP1 REVERT JUMPDEST PUSH1 0x1 PUSH1 0x1 PUSH1 0xA0 SHL SUB DUP2 AND DUP2 EQ PUSH2 0x3E83 JUMPI PUSH1 0x0 DUP1 REVERT JUMPDEST POP JUMP JUMPDEST PUSH1 0x0 PUSH1 0x20 DUP3 DUP5 SUB SLT ISZERO PUSH2 0x3E98 JUMPI PUSH1 0x0 DUP1 REVERT JUMPDEST DUP2 CALLDATALOAD PUSH2 0x3D11 DUP2 PUSH2 0x3E6E JUMP JUMPDEST PUSH1 0x20 DUP2 MSTORE PUSH1 0x0 PUSH2 0x3D11 PUSH1 0x20 DUP4 ADD DUP5 PUSH2 0x3D87 JUMP JUMPDEST PUSH4 0x4E487B71 PUSH1 0xE0 SHL PUSH1 0x0 MSTORE PUSH1 0x41 PUSH1 0x4 MSTORE PUSH1 0x24 PUSH1 0x0 REVERT JUMPDEST PUSH1 0x40 MLOAD PUSH1 0x80 DUP2 ADD PUSH1 0x1 PUSH1 0x1 PUSH1 0x40 SHL SUB DUP2 GT DUP3 DUP3 LT OR ISZERO PUSH2 0x3EEE JUMPI PUSH2 0x3EEE PUSH2 0x3EB6 JUMP JUMPDEST PUSH1 0x40 MSTORE SWAP1 JUMP JUMPDEST PUSH1 0x40 DUP1 MLOAD SWAP1 DUP2 ADD PUSH1 0x1 PUSH1 0x1 PUSH1 0x40 SHL SUB DUP2 GT DUP3 DUP3 LT OR ISZERO PUSH2 0x3EEE JUMPI PUSH2 0x3EEE PUSH2 0x3EB6 JUMP JUMPDEST PUSH1 0x40 MLOAD PUSH2 0x120 DUP2 ADD PUSH1 0x1 PUSH1 0x1 PUSH1 0x40 SHL SUB DUP2 GT DUP3 DUP3 LT OR ISZERO PUSH2 0x3EEE JUMPI PUSH2 0x3EEE PUSH2 0x3EB6 JUMP JUMPDEST PUSH1 0x40 MLOAD PUSH1 0x1F DUP3 ADD PUSH1 0x1F NOT AND DUP2 ADD PUSH1 0x1 PUSH1 0x1 PUSH1 0x40 SHL SUB DUP2 GT DUP3 DUP3 LT OR ISZERO PUSH2 0x3F61 JUMPI PUSH2 0x3F61 PUSH2 0x3EB6 JUMP JUMPDEST PUSH1 0x40 MSTORE SWAP2 SWAP1 POP JUMP JUMPDEST PUSH1 0x0 PUSH1 0x1 PUSH1 0x1 PUSH1 0x40 SHL SUB DUP3 GT ISZERO PUSH2 0x3F82 JUMPI PUSH2 0x3F82 PUSH2 0x3EB6 JUMP JUMPDEST POP PUSH1 0x5 SHL PUSH1 0x20 ADD SWAP1 JUMP JUMPDEST DUP1 MLOAD PUSH2 0x3F97 DUP2 PUSH2 0x3E6E JUMP JUMPDEST SWAP2 SWAP1 POP JUMP JUMPDEST DUP1 MLOAD PUSH1 0xFF DUP2 AND DUP2 EQ PUSH2 0x3F97 JUMPI PUSH1 0x0 DUP1 REVERT JUMPDEST DUP1 MLOAD PUSH1 0x1 PUSH1 0x1 PUSH1 0x40 SHL SUB DUP2 AND DUP2 EQ PUSH2 0x3F97 JUMPI PUSH1 0x0 DUP1 REVERT JUMPDEST PUSH1 0x0 PUSH1 0xE0 DUP3 DUP5 SUB SLT ISZERO PUSH2 0x3FD6 JUMPI PUSH1 0x0 DUP1 REVERT JUMPDEST PUSH1 0x40 MLOAD PUSH1 0xE0 DUP2 ADD DUP2 DUP2 LT PUSH1 0x1 PUSH1 0x1 PUSH1 0x40 SHL SUB DUP3 GT OR ISZERO PUSH2 0x3FF8 JUMPI PUSH2 0x3FF8 PUSH2 0x3EB6 JUMP JUMPDEST DUP1 PUSH1 0x40 MSTORE POP DUP1 SWAP2 POP DUP3 MLOAD DUP2 MSTORE PUSH1 0x20 DUP4 ADD MLOAD PUSH1 0x20 DUP3 ADD MSTORE PUSH1 0x40 DUP4 ADD MLOAD PUSH1 0x40 DUP3 ADD MSTORE PUSH1 0x60 DUP4 ADD MLOAD PUSH1 0x60 DUP3 ADD MSTORE PUSH2 0x402E PUSH1 0x80 DUP5 ADD PUSH2 0x3FAD JUMP JUMPDEST PUSH1 0x80 DUP3 ADD MSTORE PUSH2 0x403F PUSH1 0xA0 DUP5 ADD PUSH2 0x3FAD JUMP JUMPDEST PUSH1 0xA0 DUP3 ADD MSTORE PUSH2 0x4050 PUSH1 0xC0 DUP5 ADD PUSH2 0x3FAD JUMP JUMPDEST PUSH1 0xC0 DUP3 ADD MSTORE POP SWAP3 SWAP2 POP POP JUMP JUMPDEST DUP1 MLOAD DUP1 ISZERO ISZERO DUP2 EQ PUSH2 0x3F97 JUMPI PUSH1 0x0 DUP1 REVERT JUMPDEST PUSH1 0x0 DUP3 PUSH1 0x1F DUP4 ADD SLT PUSH2 0x407D JUMPI PUSH1 0x0 DUP1 REVERT JUMPDEST DUP2 MLOAD PUSH1 0x20 PUSH2 0x4092 PUSH2 0x408D DUP4 PUSH2 0x3F69 JUMP JUMPDEST PUSH2 0x3F39 JUMP JUMPDEST DUP3 DUP2 MSTORE PUSH1 0xA0 SWAP3 DUP4 MUL DUP6 ADD DUP3 ADD SWAP3 DUP3 DUP3 ADD SWAP2 SWAP1 DUP8 DUP6 GT ISZERO PUSH2 0x40B1 JUMPI PUSH1 0x0 DUP1 REVERT JUMPDEST DUP4 DUP8 ADD JUMPDEST DUP6 DUP2 LT ISZERO PUSH2 0x413A JUMPI DUP1 DUP10 SUB DUP3 DUP2 SLT ISZERO PUSH2 0x40CE JUMPI PUSH1 0x0 DUP1 DUP2 REVERT JUMPDEST PUSH2 0x40D6 PUSH2 0x3ECC JUMP JUMPDEST DUP3 MLOAD PUSH2 0x40E1 DUP2 PUSH2 0x3E6E JUMP JUMPDEST DUP2 MSTORE PUSH2 0x40EE DUP4 DUP9 ADD PUSH2 0x405C JUMP JUMPDEST DUP8 DUP3 ADD MSTORE PUSH1 0x40 DUP1 DUP5 ADD MLOAD DUP2 DUP4 ADD MSTORE PUSH1 0x60 DUP2 PUSH1 0x5F NOT DUP6 ADD SLT ISZERO PUSH2 0x4110 JUMPI PUSH1 0x0 DUP1 DUP2 REVERT JUMPDEST PUSH2 0x4118 PUSH2 0x3EF4 JUMP JUMPDEST DUP6 DUP3 ADD MLOAD DUP2 MSTORE PUSH1 0x80 DUP7 ADD MLOAD DUP11 DUP3 ADD MSTORE SWAP1 DUP4 ADD MSTORE POP DUP6 MSTORE POP SWAP3 DUP5 ADD SWAP3 DUP2 ADD PUSH2 0x40B5 JUMP JUMPDEST POP SWAP1 SWAP8 SWAP7 POP POP POP POP POP POP POP JUMP JUMPDEST PUSH1 0x0 PUSH2 0x1E0 DUP3 DUP5 SUB SLT ISZERO PUSH2 0x415A JUMPI PUSH1 0x0 DUP1 REVERT JUMPDEST PUSH2 0x4162 PUSH2 0x3F16 JUMP JUMPDEST SWAP1 POP PUSH2 0x416D DUP3 PUSH2 0x3F8C JUMP JUMPDEST DUP2 MSTORE PUSH2 0x417B PUSH1 0x20 DUP4 ADD PUSH2 0x3F9C JUMP JUMPDEST PUSH1 0x20 DUP3 ADD MSTORE PUSH2 0x418C PUSH1 0x40 DUP4 ADD PUSH2 0x3F8C JUMP JUMPDEST PUSH1 0x40 DUP3 ADD MSTORE PUSH1 0x60 DUP3 ADD MLOAD PUSH1 0x60 DUP3 ADD MSTORE PUSH2 0x41A8 DUP4 PUSH1 0x80 DUP5 ADD PUSH2 0x3FC4 JUMP JUMPDEST PUSH1 0x80 DUP3 ADD MSTORE PUSH2 0x160 DUP3 ADD MLOAD PUSH1 0xA0 DUP3 ADD MSTORE PUSH2 0x180 DUP3 ADD MLOAD PUSH1 0xC0 DUP3 ADD MSTORE PUSH2 0x1A0 DUP3 ADD MLOAD PUSH1 0xE0 DUP3 ADD MSTORE PUSH2 0x1C0 DUP3 ADD MLOAD PUSH1 0x1 PUSH1 0x1 PUSH1 0x40 SHL SUB DUP2 GT ISZERO PUSH2 0x41E8 JUMPI PUSH1 0x0 DUP1 REVERT JUMPDEST PUSH2 0x41F4 DUP5 DUP3 DUP6 ADD PUSH2 0x406C JUMP JUMPDEST PUSH2 0x100 DUP4 ADD MSTORE POP SWAP3 SWAP2 POP POP JUMP JUMPDEST PUSH1 0x0 PUSH1 0x20 DUP1 DUP4 DUP6 SUB SLT ISZERO PUSH2 0x4214 JUMPI PUSH1 0x0 DUP1 REVERT JUMPDEST DUP3 MLOAD PUSH1 0x1 PUSH1 0x1 PUSH1 0x40 SHL SUB DUP1 DUP3 GT ISZERO PUSH2 0x422B JUMPI PUSH1 0x0 DUP1 REVERT JUMPDEST SWAP1 DUP5 ADD SWAP1 PUSH1 0x40 DUP3 DUP8 SUB SLT ISZERO PUSH2 0x423F JUMPI PUSH1 0x0 DUP1 REVERT JUMPDEST PUSH2 0x4247 PUSH2 0x3EF4 JUMP JUMPDEST DUP3 MLOAD DUP2 MSTORE DUP4 DUP4 ADD MLOAD DUP3 DUP2 GT ISZERO PUSH2 0x425C JUMPI PUSH1 0x0 DUP1 REVERT JUMPDEST DUP1 DUP5 ADD SWAP4 POP POP DUP7 PUSH1 0x1F DUP5 ADD SLT PUSH2 0x4271 JUMPI PUSH1 0x0 DUP1 REVERT JUMPDEST DUP3 MLOAD PUSH2 0x427F PUSH2 0x408D DUP3 PUSH2 0x3F69 JUMP JUMPDEST DUP2 DUP2 MSTORE PUSH1 0x5 SWAP2 SWAP1 SWAP2 SHL DUP5 ADD DUP6 ADD SWAP1 DUP6 DUP2 ADD SWAP1 DUP10 DUP4 GT ISZERO PUSH2 0x429E JUMPI PUSH1 0x0 DUP1 REVERT JUMPDEST DUP7 DUP7 ADD JUMPDEST DUP4 DUP2 LT ISZERO PUSH2 0x42D6 JUMPI DUP1 MLOAD DUP7 DUP2 GT ISZERO PUSH2 0x42BA JUMPI PUSH1 0x0 DUP1 DUP2 REVERT JUMPDEST PUSH2 0x42C8 DUP13 DUP11 DUP4 DUP12 ADD ADD PUSH2 0x4147 JUMP JUMPDEST DUP5 MSTORE POP SWAP2 DUP8 ADD SWAP2 DUP8 ADD PUSH2 0x42A2 JUMP JUMPDEST POP SWAP6 DUP4 ADD SWAP6 SWAP1 SWAP6 MSTORE POP SWAP7 SWAP6 POP POP POP POP POP POP JUMP JUMPDEST PUSH1 0x0 DUP2 MLOAD DUP1 DUP5 MSTORE PUSH1 0x20 DUP1 DUP6 ADD SWAP5 POP DUP1 DUP5 ADD PUSH1 0x0 JUMPDEST DUP4 DUP2 LT ISZERO PUSH2 0x3CF3 JUMPI DUP2 MLOAD DUP1 MLOAD PUSH1 0x1 PUSH1 0x1 PUSH1 0xA0 SHL SUB AND DUP9 MSTORE DUP4 DUP2 ADD MLOAD ISZERO ISZERO DUP5 DUP10 ADD MSTORE PUSH1 0x40 DUP1 DUP3 ADD MLOAD SWAP1 DUP10 ADD MSTORE PUSH1 0x60 SWAP1 DUP2 ADD MLOAD DUP1 MLOAD SWAP2 DUP10 ADD SWAP2 SWAP1 SWAP2 MSTORE DUP4 ADD MLOAD PUSH1 0x80 DUP9 ADD MSTORE PUSH1 0xA0 SWAP1 SWAP7 ADD SWAP6 SWAP1 DUP3 ADD SWAP1 PUSH1 0x1 ADD PUSH2 0x42FD JUMP JUMPDEST DUP1 MLOAD PUSH1 0x1 PUSH1 0x1 PUSH1 0xA0 SHL SUB AND DUP3 MSTORE PUSH1 0x0 PUSH2 0x1E0 PUSH1 0x20 DUP4 ADD MLOAD PUSH2 0x4377 PUSH1 0x20 DUP7 ADD DUP3 PUSH1 0xFF AND SWAP1 MSTORE JUMP JUMPDEST POP PUSH1 0x40 DUP4 ADD MLOAD PUSH2 0x4392 PUSH1 0x40 DUP7 ADD DUP3 PUSH1 0x1 PUSH1 0x1 PUSH1 0xA0 SHL SUB AND SWAP1 MSTORE JUMP JUMPDEST POP PUSH1 0x60 DUP4 ADD MLOAD PUSH1 0x60 DUP6 ADD MSTORE PUSH1 0x80 DUP4 ADD MLOAD PUSH2 0x43FF PUSH1 0x80 DUP7 ADD DUP3 DUP1 MLOAD DUP3 MSTORE PUSH1 0x20 DUP2 ADD MLOAD PUSH1 0x20 DUP4 ADD MSTORE PUSH1 0x40 DUP2 ADD MLOAD PUSH1 0x40 DUP4 ADD MSTORE PUSH1 0x60 DUP2 ADD MLOAD PUSH1 0x60 DUP4 ADD MSTORE PUSH1 0x80 DUP2 ADD MLOAD PUSH1 0x1 PUSH1 0x1 PUSH1 0x40 SHL SUB DUP1 DUP3 AND PUSH1 0x80 DUP6 ADD MSTORE DUP1 PUSH1 0xA0 DUP5 ADD MLOAD AND PUSH1 0xA0 DUP6 ADD MSTORE DUP1 PUSH1 0xC0 DUP5 ADD MLOAD AND PUSH1 0xC0 DUP6 ADD MSTORE POP POP POP POP JUMP JUMPDEST POP PUSH1 0xA0 DUP4 ADD MLOAD PUSH2 0x160 DUP6 ADD MSTORE PUSH1 0xC0 DUP4 ADD MLOAD PUSH2 0x180 DUP6 ADD MSTORE PUSH1 0xE0 DUP4 ADD MLOAD PUSH2 0x1A0 DUP6 ADD MSTORE PUSH2 0x100 DUP4 ADD MLOAD DUP2 PUSH2 0x1C0 DUP7 ADD MSTORE PUSH2 0x3DD8 DUP3 DUP7 ADD DUP3 PUSH2 0x42E9 JUMP JUMPDEST PUSH1 0x0 PUSH1 0x20 DUP1 DUP4 MSTORE PUSH1 0x60 DUP4 ADD DUP5 MLOAD DUP3 DUP6 ADD MSTORE DUP2 DUP6 ADD MLOAD PUSH1 0x40 DUP1 DUP7 ADD MSTORE DUP2 DUP2 MLOAD DUP1 DUP5 MSTORE PUSH1 0x80 DUP8 ADD SWAP2 POP PUSH1 0x80 DUP2 PUSH1 0x5 SHL DUP9 ADD ADD SWAP4 POP DUP5 DUP4 ADD SWAP3 POP PUSH1 0x0 JUMPDEST DUP2 DUP2 LT ISZERO PUSH2 0x44A2 JUMPI PUSH1 0x7F NOT DUP9 DUP7 SUB ADD DUP4 MSTORE PUSH2 0x4490 DUP6 DUP6 MLOAD PUSH2 0x4351 JUMP JUMPDEST SWAP5 POP SWAP3 DUP6 ADD SWAP3 SWAP2 DUP6 ADD SWAP2 PUSH1 0x1 ADD PUSH2 0x4474 JUMP JUMPDEST POP SWAP3 SWAP8 SWAP7 POP POP POP POP POP POP POP JUMP JUMPDEST PUSH1 0x0 PUSH1 0x20 DUP3 DUP5 SUB SLT ISZERO PUSH2 0x44C1 JUMPI PUSH1 0x0 DUP1 REVERT JUMPDEST PUSH2 0x3D11 DUP3 PUSH2 0x405C JUMP JUMPDEST PUSH1 0x0 PUSH1 0x40 DUP1 DUP5 ADD DUP4 MLOAD DUP3 DUP7 MSTORE DUP2 DUP2 MLOAD DUP1 DUP5 MSTORE PUSH1 0x60 DUP9 ADD SWAP2 POP PUSH1 0x60 DUP2 PUSH1 0x5 SHL DUP10 ADD ADD SWAP4 POP PUSH1 0x20 DUP1 DUP5 ADD SWAP4 POP PUSH1 0x0 JUMPDEST DUP3 DUP2 LT ISZERO PUSH2 0x4538 JUMPI DUP10 DUP7 SUB PUSH1 0x5F NOT ADD DUP5 MSTORE DUP5 MLOAD DUP1 MLOAD DUP9 DUP9 MSTORE PUSH2 0x451B DUP10 DUP10 ADD DUP3 PUSH2 0x4351 JUMP JUMPDEST SWAP2 DUP5 ADD MLOAD SWAP8 DUP5 ADD SWAP8 SWAP1 SWAP8 MSTORE SWAP6 POP SWAP4 DUP2 ADD SWAP4 SWAP3 DUP2 ADD SWAP3 PUSH1 0x1 ADD PUSH2 0x44F7 JUMP JUMPDEST POP SWAP7 DUP8 ADD MLOAD ISZERO ISZERO SWAP8 SWAP1 SWAP7 ADD SWAP7 SWAP1 SWAP7 MSTORE POP SWAP5 SWAP4 POP POP POP POP JUMP JUMPDEST PUSH1 0x20 DUP2 MSTORE PUSH1 0x0 PUSH2 0x3D11 PUSH1 0x20 DUP4 ADD DUP5 PUSH2 0x44CA JUMP JUMPDEST PUSH4 0x4E487B71 PUSH1 0xE0 SHL PUSH1 0x0 MSTORE PUSH1 0x32 PUSH1 0x4 MSTORE PUSH1 0x24 PUSH1 0x0 REVERT JUMPDEST PUSH4 0x4E487B71 PUSH1 0xE0 SHL PUSH1 0x0 MSTORE PUSH1 0x11 PUSH1 0x4 MSTORE PUSH1 0x24 PUSH1 0x0 REVERT JUMPDEST PUSH1 0x0 PUSH1 0x1 DUP3 ADD PUSH2 0x45A1 JUMPI PUSH2 0x45A1 PUSH2 0x4579 JUMP JUMPDEST POP PUSH1 0x1 ADD SWAP1 JUMP JUMPDEST PUSH1 0x0 PUSH1 0x20 DUP1 DUP4 DUP6 SUB SLT ISZERO PUSH2 0x45BB JUMPI PUSH1 0x0 DUP1 REVERT JUMPDEST DUP3 MLOAD PUSH1 0x1 PUSH1 0x1 PUSH1 0x40 SHL SUB DUP1 DUP3 GT ISZERO PUSH2 0x45D2 JUMPI PUSH1 0x0 DUP1 REVERT JUMPDEST SWAP1 DUP5 ADD SWAP1 PUSH1 0x40 DUP3 DUP8 SUB SLT ISZERO PUSH2 0x45E6 JUMPI PUSH1 0x0 DUP1 REVERT JUMPDEST PUSH2 0x45EE PUSH2 0x3EF4 JUMP JUMPDEST DUP3 MLOAD DUP3 DUP2 GT ISZERO PUSH2 0x45FD JUMPI PUSH1 0x0 DUP1 REVERT JUMPDEST DUP4 ADD PUSH1 0x1F DUP2 ADD DUP9 SGT PUSH2 0x460E JUMPI PUSH1 0x0 DUP1 REVERT JUMPDEST DUP1 MLOAD PUSH2 0x461C PUSH2 0x408D DUP3 PUSH2 0x3F69 JUMP JUMPDEST DUP2 DUP2 MSTORE PUSH1 0x5 SWAP2 SWAP1 SWAP2 SHL DUP3 ADD DUP7 ADD SWAP1 DUP7 DUP2 ADD SWAP1 DUP11 DUP4 GT ISZERO PUSH2 0x463B JUMPI PUSH1 0x0 DUP1 REVERT JUMPDEST DUP8 DUP5 ADD JUMPDEST DUP4 DUP2 LT ISZERO PUSH2 0x46B1 JUMPI DUP1 MLOAD DUP8 DUP2 GT ISZERO PUSH2 0x4657 JUMPI PUSH1 0x0 DUP1 DUP2 REVERT JUMPDEST DUP6 ADD PUSH1 0x40 DUP2 DUP15 SUB PUSH1 0x1F NOT ADD SLT ISZERO PUSH2 0x466E JUMPI PUSH1 0x0 DUP1 DUP2 REVERT JUMPDEST PUSH2 0x4676 PUSH2 0x3EF4 JUMP JUMPDEST DUP11 DUP3 ADD MLOAD DUP10 DUP2 GT ISZERO PUSH2 0x4688 JUMPI PUSH1 0x0 DUP1 DUP2 REVERT JUMPDEST PUSH2 0x4696 DUP16 DUP14 DUP4 DUP7 ADD ADD PUSH2 0x4147 JUMP JUMPDEST DUP3 MSTORE POP PUSH1 0x40 SWAP2 SWAP1 SWAP2 ADD MLOAD DUP11 DUP3 ADD MSTORE DUP4 MSTORE SWAP2 DUP9 ADD SWAP2 DUP9 ADD PUSH2 0x463F JUMP JUMPDEST POP DUP5 MSTORE POP PUSH2 0x46C3 SWAP2 POP POP DUP4 DUP6 ADD PUSH2 0x405C JUMP JUMPDEST DUP5 DUP3 ADD MSTORE DUP1 SWAP5 POP POP POP POP POP SWAP3 SWAP2 POP POP JUMP JUMPDEST PUSH1 0x0 PUSH1 0x20 DUP3 DUP5 SUB SLT ISZERO PUSH2 0x46E6 JUMPI PUSH1 0x0 DUP1 REVERT JUMPDEST POP MLOAD SWAP2 SWAP1 POP JUMP JUMPDEST DUP5 DUP2 MSTORE DUP4 PUSH1 0x20 DUP3 ADD MSTORE PUSH1 0x80 PUSH1 0x40 DUP3 ADD MSTORE PUSH1 0x0 PUSH2 0x470C PUSH1 0x80 DUP4 ADD DUP6 PUSH2 0x44CA JUMP JUMPDEST DUP3 DUP2 SUB PUSH1 0x60 DUP5 ADD MSTORE PUSH2 0x39B0 DUP2 DUP6 PUSH2 0x44CA JUMP JUMPDEST PUSH1 0x20 DUP1 DUP3 MSTORE DUP2 DUP2 ADD DUP4 SWAP1 MSTORE PUSH1 0x0 SWAP1 PUSH1 0x40 DUP1 DUP5 ADD PUSH1 0x5 DUP7 SWAP1 SHL DUP6 ADD DUP3 ADD DUP8 DUP6 JUMPDEST DUP9 DUP2 LT ISZERO PUSH2 0x47F6 JUMPI DUP8 DUP4 SUB PUSH1 0x3F NOT ADD DUP5 MSTORE DUP2 CALLDATALOAD CALLDATASIZE DUP12 SWAP1 SUB PUSH1 0x3E NOT ADD DUP2 SLT PUSH2 0x4763 JUMPI PUSH1 0x0 DUP1 REVERT JUMPDEST DUP11 ADD DUP1 CALLDATALOAD PUSH2 0x4770 DUP2 PUSH2 0x3E6E JUMP JUMPDEST PUSH1 0x1 PUSH1 0x1 PUSH1 0xA0 SHL SUB AND DUP5 MSTORE DUP1 DUP8 ADD CALLDATALOAD CALLDATASIZE DUP3 SWAP1 SUB PUSH1 0x1E NOT ADD DUP2 SLT PUSH2 0x4792 JUMPI PUSH1 0x0 DUP1 REVERT JUMPDEST ADD DUP7 DUP2 ADD SWAP1 CALLDATALOAD PUSH1 0x1 PUSH1 0x1 PUSH1 0x40 SHL SUB DUP2 GT ISZERO PUSH2 0x47AC JUMPI PUSH1 0x0 DUP1 REVERT JUMPDEST DUP1 CALLDATASIZE SUB DUP3 SGT ISZERO PUSH2 0x47BB JUMPI PUSH1 0x0 DUP1 REVERT JUMPDEST DUP7 DUP9 DUP7 ADD MSTORE DUP1 DUP8 DUP7 ADD MSTORE PUSH1 0x60 DUP2 DUP4 DUP3 DUP9 ADD CALLDATACOPY PUSH1 0x0 DUP7 DUP4 ADD DUP3 ADD MSTORE SWAP6 DUP9 ADD SWAP6 PUSH1 0x1F SWAP1 SWAP2 ADD PUSH1 0x1F NOT AND SWAP1 SWAP5 ADD SWAP1 SWAP4 ADD SWAP3 POP SWAP1 DUP6 ADD SWAP1 PUSH1 0x1 ADD PUSH2 0x473D JUMP JUMPDEST POP SWAP1 SWAP9 SWAP8 POP POP POP POP POP POP POP POP JUMP JUMPDEST PUSH1 0x0 DUP3 PUSH1 0x1F DUP4 ADD SLT PUSH2 0x4815 JUMPI PUSH1 0x0 DUP1 REVERT JUMPDEST DUP2 MLOAD PUSH1 0x1 PUSH1 0x1 PUSH1 0x40 SHL SUB DUP2 GT ISZERO PUSH2 0x482E JUMPI PUSH2 0x482E PUSH2 0x3EB6 JUMP JUMPDEST PUSH2 0x4841 PUSH1 0x1F DUP3 ADD PUSH1 0x1F NOT AND PUSH1 0x20 ADD PUSH2 0x3F39 JUMP JUMPDEST DUP2 DUP2 MSTORE DUP5 PUSH1 0x20 DUP4 DUP7 ADD ADD GT ISZERO PUSH2 0x4856 JUMPI PUSH1 0x0 DUP1 REVERT JUMPDEST PUSH2 0x2432 DUP3 PUSH1 0x20 DUP4 ADD PUSH1 0x20 DUP8 ADD PUSH2 0x3D63 JUMP JUMPDEST PUSH1 0x0 PUSH1 0x20 DUP3 DUP5 SUB SLT ISZERO PUSH2 0x4879 JUMPI PUSH1 0x0 DUP1 REVERT JUMPDEST DUP2 MLOAD PUSH1 0x1 PUSH1 0x1 PUSH1 0x40 SHL SUB DUP2 GT ISZERO PUSH2 0x488F JUMPI PUSH1 0x0 DUP1 REVERT JUMPDEST PUSH2 0x2432 DUP5 DUP3 DUP6 ADD PUSH2 0x4804 JUMP JUMPDEST DUP1 DUP3 ADD DUP1 DUP3 GT ISZERO PUSH2 0x1AE5 JUMPI PUSH2 0x1AE5 PUSH2 0x4579 JUMP JUMPDEST DUP2 DUP2 SUB DUP2 DUP2 GT ISZERO PUSH2 0x1AE5 JUMPI PUSH2 0x1AE5 PUSH2 0x4579 JUMP JUMPDEST PUSH1 0x0 PUSH1 0x20 DUP3 DUP5 SUB SLT ISZERO PUSH2 0x48D3 JUMPI PUSH1 0x0 DUP1 REVERT JUMPDEST DUP2 MLOAD PUSH2 0x3D11 DUP2 PUSH2 0x3E6E JUMP JUMPDEST PUSH4 0x4E487B71 PUSH1 0xE0 SHL PUSH1 0x0 MSTORE PUSH1 0x21 PUSH1 0x4 MSTORE PUSH1 0x24 PUSH1 0x0 REVERT JUMPDEST PUSH1 0x20 DUP1 DUP3 MSTORE DUP3 MLOAD DUP3 DUP3 ADD DUP2 SWAP1 MSTORE PUSH1 0x0 SWAP2 SWAP1 PUSH1 0x40 SWAP1 DUP2 DUP6 ADD SWAP1 DUP7 DUP5 ADD DUP6 DUP1 JUMPDEST DUP4 DUP2 LT ISZERO PUSH2 0x4981 JUMPI DUP3 MLOAD DUP1 MLOAD PUSH1 0x4 DUP1 DUP3 LT PUSH2 0x493A JUMPI PUSH4 0x4E487B71 PUSH1 0xE0 SHL DUP6 MSTORE PUSH1 0x21 DUP2 MSTORE PUSH1 0x24 DUP6 REVERT JUMPDEST POP DUP7 MSTORE DUP1 DUP9 ADD MLOAD PUSH1 0x1 PUSH1 0x1 PUSH1 0xA0 SHL SUB SWAP1 DUP2 AND DUP10 DUP9 ADD MSTORE DUP8 DUP3 ADD MLOAD DUP9 DUP9 ADD MSTORE PUSH1 0x60 DUP1 DUP4 ADD MLOAD DUP3 AND SWAP1 DUP9 ADD MSTORE PUSH1 0x80 SWAP2 DUP3 ADD MLOAD AND SWAP1 DUP7 ADD MSTORE PUSH1 0xA0 SWAP1 SWAP5 ADD SWAP4 SWAP2 DUP7 ADD SWAP2 PUSH1 0x1 ADD PUSH2 0x4912 JUMP JUMPDEST POP SWAP3 SWAP9 SWAP8 POP POP POP POP POP POP POP POP JUMP JUMPDEST DUP1 DUP3 MUL DUP2 ISZERO DUP3 DUP3 DIV DUP5 EQ OR PUSH2 0x1AE5 JUMPI PUSH2 0x1AE5 PUSH2 0x4579 JUMP JUMPDEST PUSH1 0x0 DUP3 PUSH2 0x49C3 JUMPI PUSH4 0x4E487B71 PUSH1 0xE0 SHL PUSH1 0x0 MSTORE PUSH1 0x12 PUSH1 0x4 MSTORE PUSH1 0x24 PUSH1 0x0 REVERT JUMPDEST POP DIV SWAP1 JUMP JUMPDEST PUSH1 0x0 PUSH1 0x80 DUP3 DUP5 SUB SLT ISZERO PUSH2 0x49DA JUMPI PUSH1 0x0 DUP1 REVERT JUMPDEST PUSH1 0x40 MLOAD PUSH1 0x80 DUP2 ADD DUP2 DUP2 LT PUSH1 0x1 PUSH1 0x1 PUSH1 0x40 SHL SUB DUP3 GT OR ISZERO PUSH2 0x49FC JUMPI PUSH2 0x49FC PUSH2 0x3EB6 JUMP JUMPDEST PUSH1 0x40 MSTORE DUP3 CALLDATALOAD PUSH2 0x4A0A DUP2 PUSH2 0x3E6E JUMP JUMPDEST DUP1 DUP3 MSTORE POP PUSH1 0x20 DUP4 ADD CALLDATALOAD PUSH1 0x20 DUP3 ADD MSTORE PUSH1 0x40 DUP4 ADD CALLDATALOAD PUSH1 0x40 DUP3 ADD MSTORE PUSH1 0x60 DUP4 ADD CALLDATALOAD PUSH2 0x4A30 DUP2 PUSH2 0x3E6E JUMP JUMPDEST PUSH1 0x60 DUP3 ADD MSTORE SWAP4 SWAP3 POP POP POP JUMP JUMPDEST PUSH1 0x1 PUSH1 0x1 PUSH1 0xA0 SHL SUB DUP4 AND DUP2 MSTORE PUSH1 0x40 PUSH1 0x20 DUP3 ADD DUP2 SWAP1 MSTORE PUSH1 0x0 SWAP1 PUSH2 0x2432 SWAP1 DUP4 ADD DUP5 PUSH2 0x42E9 JUMP JUMPDEST PUSH1 0xFF DUP3 DUP2 AND DUP3 DUP3 AND SUB SWAP1 DUP2 GT ISZERO PUSH2 0x1AE5 JUMPI PUSH2 0x1AE5 PUSH2 0x4579 JUMP JUMPDEST PUSH1 0x1 DUP2 DUP2 JUMPDEST DUP1 DUP6 GT ISZERO PUSH2 0x27B3 JUMPI DUP2 PUSH1 0x0 NOT DIV DUP3 GT ISZERO PUSH2 0x4A9A JUMPI PUSH2 0x4A9A PUSH2 0x4579 JUMP JUMPDEST DUP1 DUP6 AND ISZERO PUSH2 0x4AA7 JUMPI SWAP2 DUP2 MUL SWAP2 JUMPDEST SWAP4 DUP5 SHR SWAP4 SWAP1 DUP1 MUL SWAP1 PUSH2 0x4A7E JUMP JUMPDEST PUSH1 0x0 DUP3 PUSH2 0x4AC3 JUMPI POP PUSH1 0x1 PUSH2 0x1AE5 JUMP JUMPDEST DUP2 PUSH2 0x4AD0 JUMPI POP PUSH1 0x0 PUSH2 0x1AE5 JUMP JUMPDEST DUP2 PUSH1 0x1 DUP2 EQ PUSH2 0x4AE6 JUMPI PUSH1 0x2 DUP2 EQ PUSH2 0x4AF0 JUMPI PUSH2 0x4B0C JUMP JUMPDEST PUSH1 0x1 SWAP2 POP POP PUSH2 0x1AE5 JUMP JUMPDEST PUSH1 0xFF DUP5 GT ISZERO PUSH2 0x4B01 JUMPI PUSH2 0x4B01 PUSH2 0x4579 JUMP JUMPDEST POP POP PUSH1 0x1 DUP3 SHL PUSH2 0x1AE5 JUMP JUMPDEST POP PUSH1 0x20 DUP4 LT PUSH2 0x133 DUP4 LT AND PUSH1 0x4E DUP5 LT PUSH1 0xB DUP5 LT AND OR ISZERO PUSH2 0x4B2F JUMPI POP DUP2 DUP2 EXP PUSH2 0x1AE5 JUMP JUMPDEST PUSH2 0x4B39 DUP4 DUP4 PUSH2 0x4A79 JUMP JUMPDEST DUP1 PUSH1 0x0 NOT DIV DUP3 GT ISZERO PUSH2 0x4B4D JUMPI PUSH2 0x4B4D PUSH2 0x4579 JUMP JUMPDEST MUL SWAP4 SWAP3 POP POP POP JUMP JUMPDEST PUSH1 0x0 PUSH2 0x3D11 PUSH1 0xFF DUP5 AND DUP4 PUSH2 0x4AB4 JUMP JUMPDEST PUSH1 0x0 DUP1 PUSH1 0x40 DUP4 DUP6 SUB SLT ISZERO PUSH2 0x4B77 JUMPI PUSH1 0x0 DUP1 REVERT JUMPDEST DUP3 MLOAD SWAP2 POP PUSH1 0x20 DUP4 ADD MLOAD PUSH1 0x1 PUSH1 0x1 PUSH1 0x40 SHL SUB DUP2 GT ISZERO PUSH2 0x4B94 JUMPI PUSH1 0x0 DUP1 REVERT JUMPDEST PUSH2 0x4BA0 DUP6 DUP3 DUP7 ADD PUSH2 0x4804 JUMP JUMPDEST SWAP2 POP POP SWAP3 POP SWAP3 SWAP1 POP JUMP JUMPDEST PUSH1 0x0 DUP3 MLOAD PUSH2 0x4BBC DUP2 DUP5 PUSH1 0x20 DUP8 ADD PUSH2 0x3D63 JUMP JUMPDEST SWAP2 SWAP1 SWAP2 ADD SWAP3 SWAP2 POP POP JUMP INVALID LOG2 PUSH5 0x6970667358 0x22 SLT KECCAK256 DUP6 XOR DUP9 PUSH2 0x3569 ORIGIN 0xD9 0xDA 0xB5 0x5C SWAP9 PUSH25 0xA07BD457FE3634C7E89536E9C873136CF9D52864736F6C6343 STOP ADDMOD GT STOP CALLER ","sha1":"4b2605d1db1a4d0f21b12f7485c7bdaffc7e01a2","source":"// SPDX-License-Identifier: LicenseRef-Gyro-1.0\n// for information on licensing please see the README in the GitHub repository <https://github.com/gyrostable/core-protocol>.\npragma solidity ^0.8.4;\n\nimport \"@openzeppelin/contracts/token/ERC20/utils/SafeERC20.sol\";\nimport \"@openzeppelin/contracts/token/ERC20/IERC20.sol\";\nimport \"@openzeppelin/contracts/utils/structs/EnumerableSet.sol\";\nimport \"@openzeppelin/contracts-upgradeable/token/ERC20/IERC20Upgradeable.sol\";\nimport \"@openzeppelin/contracts-upgradeable/token/ERC20/utils/SafeERC20Upgradeable.sol\";\n\nimport \"../interfaces/IFeeHandler.sol\";\nimport \"../interfaces/IMotherboard.sol\";\nimport \"../interfaces/IGyroVault.sol\";\nimport \"../interfaces/ILPTokenExchanger.sol\";\nimport \"../interfaces/IPAMM.sol\";\nimport \"../interfaces/IGyroConfig.sol\";\nimport \"../interfaces/IGYDToken.sol\";\nimport \"../interfaces/IExternalActionExecutor.sol\";\nimport \"../interfaces/balancer/IVault.sol\";\n\nimport \"../libraries/DataTypes.sol\";\nimport \"../libraries/ConfigKeys.sol\";\nimport \"../libraries/ConfigHelpers.sol\";\nimport \"../libraries/Errors.sol\";\nimport \"../libraries/FixedPoint.sol\";\nimport \"../libraries/DecimalScale.sol\";\nimport \"../libraries/ReserveStateExtensions.sol\";\nimport \"../libraries/StringExtensions.sol\";\n\nimport \"./ExternalActionExecutor.sol\";\nimport \"./auth/GovernableUpgradeable.sol\";\n\n/// @title MotherBoard is the central contract connecting the different pieces\n/// of the Gyro protocol\ncontract Motherboard is IMotherboard, GovernableUpgradeable {\n    using FixedPoint for uint256;\n    using DecimalScale for uint256;\n    using SafeERC20 for IERC20;\n    using SafeERC20Upgradeable for IGYDToken;\n    using ConfigHelpers for IGyroConfig;\n    using EnumerableSet for EnumerableSet.AddressSet;\n    using ReserveStateExtensions for DataTypes.ReserveState;\n    using ReserveStateExtensions for DataTypes.VaultInfo;\n    using StringExtensions for string;\n\n    uint256 internal constant _REDEEM_DEVIATION_EPSILON = 1e13; // 0.001 %\n\n    /// @inheritdoc IMotherboard\n    IGYDToken public immutable override gydToken;\n\n    /// @inheritdoc IMotherboard\n    IReserve public immutable override reserve;\n\n    /// @inheritdoc IMotherboard\n    IGyroConfig public immutable override gyroConfig;\n\n    /// @notice Used to execute permits and other actions, such as oracle updates,\n    /// that do not require any privilege\n    IExternalActionExecutor public immutable externalActionExecutor;\n\n    // Balancer vault used for re-entrancy check.\n    IVault internal immutable balancerVault;\n\n    /// @inheritdoc IMotherboard\n    uint256 public override bootstrappingSupply;\n\n    // Events\n    event Mint(\n        address indexed minter,\n        uint256 mintedGYDAmount,\n        uint256 usdValue,\n        DataTypes.Order orderBeforeFees,\n        DataTypes.Order orderAfterFees\n    );\n\n    event Redeem(\n        address indexed redeemer,\n        uint256 gydToRedeem,\n        uint256 usdValueToRedeem,\n        DataTypes.Order orderBeforeFees,\n        DataTypes.Order orderAfterFees\n    );\n\n    constructor(IGyroConfig _gyroConfig) {\n        gyroConfig = _gyroConfig;\n        gydToken = _gyroConfig.getGYDToken();\n        reserve = _gyroConfig.getReserve();\n        balancerVault = _gyroConfig.getBalancerVault();\n        externalActionExecutor = new ExternalActionExecutor();\n    }\n\n    /// @inheritdoc IMotherboard\n    function mint(DataTypes.MintAsset[] calldata assets, uint256 minReceivedAmount)\n        public\n        override\n        returns (uint256 mintedGYDAmount)\n    {\n        _ensureBalancerVaultNotReentrant();\n\n        DataTypes.MonetaryAmount[] memory vaultAmounts = _convertMintInputAssetsToVaultTokens(\n            assets\n        );\n        DataTypes.ReserveState memory reserveState = gyroConfig\n            .getReserveManager()\n            .getReserveState();\n\n        // order matters!\n        gyroConfig.getReserveStewardshipIncentives().checkpoint(reserveState);\n        gyroConfig.getGydRecovery().checkAndRun(reserveState);\n\n        DataTypes.Order memory order = _monetaryAmountsToMintOrder(\n            vaultAmounts,\n            reserveState.vaults\n        );\n\n        gyroConfig.getRootSafetyCheck().checkAndPersistMint(order);\n\n        for (uint256 i = 0; i < vaultAmounts.length; i++) {\n            DataTypes.MonetaryAmount memory vaultAmount = vaultAmounts[i];\n            IERC20(vaultAmount.tokenAddress).safeTransfer(address(reserve), vaultAmount.amount);\n        }\n\n        DataTypes.Order memory orderAfterFees = gyroConfig.getFeeHandler().applyFees(order);\n\n        uint256 usdValue = _getBasketUSDValue(orderAfterFees);\n        mintedGYDAmount = pamm().mint(usdValue, reserveState.totalUSDValue);\n\n        require(mintedGYDAmount >= minReceivedAmount, Errors.TOO_MUCH_SLIPPAGE);\n        require(!_isOverCap(mintedGYDAmount), Errors.SUPPLY_CAP_EXCEEDED);\n\n        gydToken.mint(msg.sender, mintedGYDAmount);\n\n        emit Mint(msg.sender, mintedGYDAmount, usdValue, order, orderAfterFees);\n    }\n\n    function mint(\n        DataTypes.MintAsset[] calldata assets,\n        uint256 minReceivedAmount,\n        DataTypes.ExternalAction[] calldata actions\n    ) public returns (uint256 mintedGYDAmount) {\n        externalActionExecutor.executeActions(actions);\n        return mint(assets, minReceivedAmount);\n    }\n\n    /// @inheritdoc IMotherboard\n    function redeem(uint256 gydToRedeem, DataTypes.RedeemAsset[] calldata assets)\n        public\n        override\n        returns (uint256[] memory outputAmounts)\n    {\n        _ensureBalancerVaultNotReentrant();\n\n        // Catch a corner case where the complete minted supply and some of the bootstrapping supply\n        // is redeemed, which would make mintedSupply() underflow in following calls.\n        require(gydToRedeem <= mintedSupply(), Errors.TRYING_TO_REDEEM_MORE_THAN_SUPPLY);\n\n        DataTypes.ReserveState memory reserveState = gyroConfig\n            .getReserveManager()\n            .getReserveState();\n\n        uint256 reserveRedeemUSDValue = reserveState.computeLowerBoundUSDValue(_oracle());\n\n        // order matters!\n        gyroConfig.getReserveStewardshipIncentives().checkpoint(reserveState);\n        gyroConfig.getGydRecovery().checkAndRun(reserveState);\n\n        uint256 usdValueToRedeem = pamm().redeem(gydToRedeem, reserveRedeemUSDValue);\n        require(\n            usdValueToRedeem <= gydToRedeem.mulDown(FixedPoint.ONE + _REDEEM_DEVIATION_EPSILON),\n            Errors.REDEEM_AMOUNT_BUG\n        );\n\n        gydToken.burnFrom(msg.sender, gydToRedeem);\n\n        DataTypes.Order memory order = _createRedeemOrder(\n            usdValueToRedeem,\n            assets,\n            reserveState.vaults\n        );\n        gyroConfig.getRootSafetyCheck().checkAndPersistRedeem(order);\n\n        DataTypes.Order memory orderAfterFees = gyroConfig.getFeeHandler().applyFees(order);\n        outputAmounts = _convertAndSendRedeemOutputAssets(assets, orderAfterFees);\n\n        emit Redeem(msg.sender, gydToRedeem, usdValueToRedeem, order, orderAfterFees);\n    }\n\n    function redeem(\n        uint256 gydToRedeem,\n        DataTypes.RedeemAsset[] calldata assets,\n        DataTypes.ExternalAction[] calldata actions\n    ) external returns (uint256[] memory outputAmounts) {\n        externalActionExecutor.executeActions(actions);\n        return redeem(gydToRedeem, assets);\n    }\n\n    /// @inheritdoc IMotherboard\n    function dryMint(DataTypes.MintAsset[] calldata assets, uint256 minReceivedAmount)\n        external\n        view\n        override\n        returns (uint256 mintedGYDAmount, string memory err)\n    {\n        DataTypes.MonetaryAmount[] memory vaultAmounts;\n        (vaultAmounts, err) = _dryConvertMintInputAssetsToVaultTokens(assets);\n        if (bytes(err).length > 0) {\n            return (0, err);\n        }\n\n        DataTypes.ReserveState memory reserveState = gyroConfig\n            .getReserveManager()\n            .getReserveState();\n\n        DataTypes.Order memory order = _monetaryAmountsToMintOrder(\n            vaultAmounts,\n            reserveState.vaults\n        );\n\n        err = gyroConfig.getRootSafetyCheck().isMintSafe(order);\n        if (bytes(err).length > 0) {\n            return (0, err);\n        }\n\n        DataTypes.Order memory orderAfterFees = gyroConfig.getFeeHandler().applyFees(order);\n        uint256 usdValue = _getBasketUSDValue(orderAfterFees);\n        mintedGYDAmount = pamm().computeMintAmount(usdValue, reserveState.totalUSDValue);\n\n        if (mintedGYDAmount < minReceivedAmount) {\n            return (mintedGYDAmount, Errors.TOO_MUCH_SLIPPAGE);\n        }\n\n        if (_isOverCap(mintedGYDAmount)) {\n            return (mintedGYDAmount, Errors.SUPPLY_CAP_EXCEEDED);\n        }\n    }\n\n    /// @inheritdoc IMotherboard\n    function dryRedeem(uint256 gydToRedeem, DataTypes.RedeemAsset[] calldata assets)\n        external\n        view\n        override\n        returns (uint256[] memory outputAmounts, string memory err)\n    {\n        outputAmounts = new uint256[](assets.length);\n\n        if (gydToRedeem > mintedSupply()) {\n            return (outputAmounts, Errors.TRYING_TO_REDEEM_MORE_THAN_SUPPLY);\n        }\n\n        DataTypes.ReserveState memory reserveState = gyroConfig\n            .getReserveManager()\n            .getReserveState();\n        uint256 reserveRedeemUSDValue = reserveState.computeLowerBoundUSDValue(_oracle());\n        uint256 usdValueToRedeem = pamm().computeRedeemAmount(gydToRedeem, reserveRedeemUSDValue);\n\n        DataTypes.Order memory order = _createRedeemOrder(\n            usdValueToRedeem,\n            assets,\n            reserveState.vaults\n        );\n        err = gyroConfig.getRootSafetyCheck().isRedeemSafe(order);\n        if (bytes(err).length > 0) {\n            return (outputAmounts, err);\n        }\n        DataTypes.Order memory orderAfterFees = gyroConfig.getFeeHandler().applyFees(order);\n        return _computeRedeemOutputAmounts(assets, orderAfterFees);\n    }\n\n    /// @inheritdoc IMotherboard\n    function pamm() public view override returns (IPAMM) {\n        return gyroConfig.getPAMM();\n    }\n\n    function mintStewardshipIncRewards(uint256 amount) external override {\n        require(\n            msg.sender == address(gyroConfig.getReserveStewardshipIncentives()),\n            Errors.NOT_AUTHORIZED\n        );\n        address treasury = gyroConfig.getGovTreasuryAddress();\n        gydToken.mint(treasury, amount);\n    }\n\n    function _dryConvertMintInputAssetsToVaultTokens(DataTypes.MintAsset[] calldata assets)\n        internal\n        view\n        returns (DataTypes.MonetaryAmount[] memory vaultAmounts, string memory err)\n    {\n        vaultAmounts = new DataTypes.MonetaryAmount[](assets.length);\n        for (uint256 i = 0; i < assets.length; i++) {\n            DataTypes.MintAsset calldata asset = assets[i];\n            uint256 vaultTokenAmount;\n            (vaultTokenAmount, err) = _computeVaultTokensForAsset(asset);\n            if (bytes(err).length > 0) {\n                return (vaultAmounts, err);\n            }\n            vaultAmounts[i] = DataTypes.MonetaryAmount({\n                tokenAddress: asset.destinationVault,\n                amount: vaultTokenAmount\n            });\n        }\n    }\n\n    function _computeVaultTokensForAsset(DataTypes.MintAsset calldata asset)\n        internal\n        view\n        returns (uint256, string memory err)\n    {\n        if (asset.inputToken == asset.destinationVault) {\n            return (asset.inputAmount, \"\");\n        } else {\n            IGyroVault vault = IGyroVault(asset.destinationVault);\n            if (asset.inputToken == vault.underlying()) {\n                return vault.dryDeposit(asset.inputAmount, 0);\n            } else {\n                return (0, Errors.INVALID_ASSET);\n            }\n        }\n    }\n\n    function _convertMintInputAssetsToVaultTokens(DataTypes.MintAsset[] calldata assets)\n        internal\n        returns (DataTypes.MonetaryAmount[] memory)\n    {\n        DataTypes.MonetaryAmount[] memory vaultAmounts = new DataTypes.MonetaryAmount[](\n            assets.length\n        );\n\n        for (uint256 i = 0; i < assets.length; i++) {\n            DataTypes.MintAsset calldata asset = assets[i];\n            vaultAmounts[i] = DataTypes.MonetaryAmount({\n                tokenAddress: asset.destinationVault,\n                amount: _convertMintInputAssetToVaultToken(asset)\n            });\n        }\n        return vaultAmounts;\n    }\n\n    function _convertMintInputAssetToVaultToken(DataTypes.MintAsset calldata asset)\n        internal\n        returns (uint256)\n    {\n        IGyroVault vault = IGyroVault(asset.destinationVault);\n\n        IERC20(asset.inputToken).safeTransferFrom(msg.sender, address(this), asset.inputAmount);\n\n        if (asset.inputToken == address(vault)) {\n            return asset.inputAmount;\n        }\n\n        address lpTokenAddress = vault.underlying();\n        require(asset.inputToken == lpTokenAddress, Errors.INVALID_ASSET);\n\n        IERC20(lpTokenAddress).safeIncreaseAllowance(address(vault), asset.inputAmount);\n        return vault.deposit(asset.inputAmount, 0);\n    }\n\n    function _getAssetAmountMint(address vault, DataTypes.MonetaryAmount[] memory amounts)\n        internal\n        pure\n        returns (uint256)\n    {\n        uint256 total = 0;\n        for (uint256 i = 0; i < amounts.length; i++) {\n            DataTypes.MonetaryAmount memory vaultAmount = amounts[i];\n            if (vaultAmount.tokenAddress == vault) total += vaultAmount.amount;\n        }\n        return total;\n    }\n\n    function _monetaryAmountsToMintOrder(\n        DataTypes.MonetaryAmount[] memory amounts,\n        DataTypes.VaultInfo[] memory vaultsInfo\n    ) internal pure returns (DataTypes.Order memory) {\n        DataTypes.Order memory order = DataTypes.Order({\n            mint: true,\n            vaultsWithAmount: new DataTypes.VaultWithAmount[](vaultsInfo.length)\n        });\n\n        for (uint256 i = 0; i < vaultsInfo.length; i++) {\n            DataTypes.VaultInfo memory vaultInfo = vaultsInfo[i];\n            order.vaultsWithAmount[i] = DataTypes.VaultWithAmount({\n                amount: _getAssetAmountMint(vaultInfo.vault, amounts),\n                vaultInfo: vaultInfo\n            });\n        }\n\n        return order;\n    }\n\n    function _getRedeemAssetAmountAndRatio(\n        DataTypes.VaultInfo memory vaultInfo,\n        uint256 usdValueToRedeem,\n        DataTypes.RedeemAsset[] calldata redeemAssets\n    ) internal view returns (uint256, uint256) {\n        for (uint256 i = 0; i < redeemAssets.length; i++) {\n            DataTypes.RedeemAsset calldata asset = redeemAssets[i];\n            if (asset.originVault == vaultInfo.vault) {\n                uint256 vaultPrice = vaultInfo.computeUpperBoundUSDPrice(_oracle());\n                uint256 vaultUsdValueToWithdraw = usdValueToRedeem.mulDown(asset.valueRatio);\n                uint256 vaultTokenAmount = vaultUsdValueToWithdraw.divDown(vaultPrice);\n                uint256 scaledVaultTokenAmount = vaultTokenAmount.scaleTo(vaultInfo.decimals);\n\n                return (scaledVaultTokenAmount, asset.valueRatio);\n            }\n        }\n        return (0, 0);\n    }\n\n    function _createRedeemOrder(\n        uint256 usdValueToRedeem,\n        DataTypes.RedeemAsset[] calldata assets,\n        DataTypes.VaultInfo[] memory vaultsInfo\n    ) internal view returns (DataTypes.Order memory) {\n        _ensureNoDuplicates(assets);\n\n        DataTypes.Order memory order = DataTypes.Order({\n            mint: false,\n            vaultsWithAmount: new DataTypes.VaultWithAmount[](vaultsInfo.length)\n        });\n\n        uint256 totalValueRatio = 0;\n\n        for (uint256 i = 0; i < vaultsInfo.length; i++) {\n            DataTypes.VaultInfo memory vaultInfo = vaultsInfo[i];\n            (uint256 amount, uint256 valueRatio) = _getRedeemAssetAmountAndRatio(\n                vaultInfo,\n                usdValueToRedeem,\n                assets\n            );\n            totalValueRatio += valueRatio;\n\n            order.vaultsWithAmount[i] = DataTypes.VaultWithAmount({\n                amount: amount,\n                vaultInfo: vaultInfo\n            });\n        }\n\n        require(totalValueRatio == FixedPoint.ONE, Errors.INVALID_ARGUMENT);\n\n        return order;\n    }\n\n    function _convertAndSendRedeemOutputAssets(\n        DataTypes.RedeemAsset[] calldata assets,\n        DataTypes.Order memory order\n    ) internal returns (uint256[] memory outputAmounts) {\n        outputAmounts = new uint256[](assets.length);\n        for (uint256 i = 0; i < assets.length; i++) {\n            DataTypes.RedeemAsset memory asset = assets[i];\n            uint256 vaultTokenAmount = _getRedeemAmount(order.vaultsWithAmount, asset.originVault);\n            uint256 outputAmount = _convertRedeemOutputAsset(asset, vaultTokenAmount);\n            // ensure we received enough tokens and transfer them to the user\n            require(outputAmount >= asset.minOutputAmount, Errors.TOO_MUCH_SLIPPAGE);\n            outputAmounts[i] = outputAmount;\n\n            IERC20(asset.outputToken).safeTransfer(msg.sender, outputAmount);\n        }\n    }\n\n    function _getRedeemAmount(DataTypes.VaultWithAmount[] memory vaultsWithAmount, address vault)\n        internal\n        pure\n        returns (uint256)\n    {\n        for (uint256 i = 0; i < vaultsWithAmount.length; i++) {\n            DataTypes.VaultWithAmount memory vaultWithAmount = vaultsWithAmount[i];\n            if (vaultWithAmount.vaultInfo.vault == vault) {\n                return vaultWithAmount.amount;\n            }\n        }\n        return 0;\n    }\n\n    function _convertRedeemOutputAsset(DataTypes.RedeemAsset memory asset, uint256 vaultTokenAmount)\n        internal\n        returns (uint256)\n    {\n        IGyroVault vault = IGyroVault(asset.originVault);\n        // withdraw the amount of vault tokens from the reserve\n        reserve.withdrawToken(address(vault), vaultTokenAmount);\n\n        // nothing to do if the user wants the vault token\n        if (asset.outputToken == address(vault)) {\n            return vaultTokenAmount;\n        } else {\n            // otherwise, convert the vault token into its underlying LP token\n            require(asset.outputToken == vault.underlying(), Errors.INVALID_ASSET);\n            return vault.withdraw(vaultTokenAmount, 0);\n        }\n    }\n\n    function _computeRedeemOutputAmounts(\n        DataTypes.RedeemAsset[] calldata assets,\n        DataTypes.Order memory order\n    ) internal view returns (uint256[] memory outputAmounts, string memory err) {\n        outputAmounts = new uint256[](assets.length);\n        for (uint256 i = 0; i < assets.length; i++) {\n            DataTypes.RedeemAsset calldata asset = assets[i];\n            uint256 vaultTokenAmount = _getRedeemAmount(order.vaultsWithAmount, asset.originVault);\n            uint256 outputAmount;\n            (outputAmount, err) = _computeRedeemOutputAmount(asset, vaultTokenAmount);\n            if (bytes(err).length > 0) {\n                return (outputAmounts, err);\n            }\n            // ensure we received enough tokens and transfer them to the user\n            if (outputAmount < asset.minOutputAmount) {\n                return (outputAmounts, Errors.TOO_MUCH_SLIPPAGE);\n            }\n            outputAmounts[i] = outputAmount;\n        }\n    }\n\n    function _computeRedeemOutputAmount(\n        DataTypes.RedeemAsset calldata asset,\n        uint256 vaultTokenAmount\n    ) internal view returns (uint256 outputAmount, string memory err) {\n        IGyroVault vault = IGyroVault(asset.originVault);\n\n        // nothing to do if the user wants the vault token\n        if (asset.outputToken == address(vault)) {\n            return (vaultTokenAmount, \"\");\n        }\n\n        // otherwise, we need the outputToken to be the underlying LP token\n        // and to convert the vault token into the underlying LP token\n        if (asset.outputToken != vault.underlying()) {\n            return (0, Errors.INVALID_ASSET);\n        }\n\n        uint256 vaultTokenBalance = vault.balanceOf(address(reserve));\n        if (vaultTokenBalance < vaultTokenAmount) {\n            return (0, Errors.INSUFFICIENT_BALANCE);\n        }\n\n        return vault.dryWithdraw(vaultTokenAmount, 0);\n    }\n\n    function _getBasketUSDValue(DataTypes.Order memory order)\n        internal\n        view\n        returns (uint256 result)\n    {\n        for (uint256 i = 0; i < order.vaultsWithAmount.length; i++) {\n            DataTypes.VaultWithAmount memory vaultWithAmount = order.vaultsWithAmount[i];\n            DataTypes.VaultInfo memory vaultInfo = vaultWithAmount.vaultInfo;\n            uint256 vaultPrice = vaultInfo.computeLowerBoundUSDPrice(_oracle());\n            uint256 scaledAmount = vaultWithAmount.amount.scaleFrom(vaultInfo.decimals);\n            result += scaledAmount.mulDown(vaultPrice);\n        }\n    }\n\n    function _ensureNoDuplicates(DataTypes.RedeemAsset[] calldata redeemAssets) internal pure {\n        for (uint256 i = 0; i < redeemAssets.length; i++) {\n            DataTypes.RedeemAsset calldata asset = redeemAssets[i];\n            for (uint256 j = i + 1; j < redeemAssets.length; j++) {\n                DataTypes.RedeemAsset calldata otherAsset = redeemAssets[j];\n                require(asset.originVault != otherAsset.originVault, Errors.INVALID_ARGUMENT);\n            }\n        }\n    }\n\n    /// @dev Ensures that this is not called from inside a Balancer vault operation. This avoids a reentrancy condition.\n    function _ensureBalancerVaultNotReentrant() internal {\n        // A simple no-op that would trip the Vault's reentrancy check. The code \"withdraws\" an amount of 0 of token\n        // address(0) from the Vault’s internal balance for the calling contract and sends it to address(0).\n        IVault.UserBalanceOp[] memory ops = new IVault.UserBalanceOp[](1);\n        ops[0].kind = IVault.UserBalanceOpKind.WITHDRAW_INTERNAL;\n        ops[0].sender = address(this);\n        balancerVault.manageUserBalance(ops);\n    }\n\n    function mintedSupply() public view returns (uint256) {\n        return gydToken.totalSupply() - bootstrappingSupply;\n    }\n\n    function setBootstrappingSupply(uint256 _bootstrappingSupply) external governanceOnly {\n        bootstrappingSupply = _bootstrappingSupply;\n    }\n\n    function _isOverCap(uint256 mintedGYDAmount) internal view returns (bool) {\n        uint256 globalSupplyCap = gyroConfig.getGlobalSupplyCap();\n        return gydToken.totalSupply() + mintedGYDAmount > globalSupplyCap;\n    }\n\n    function _oracle() internal view returns (IBatchVaultPriceOracle) {\n        return gyroConfig.getRootPriceOracle();\n    }\n}\n","sourcePath":"contracts/Motherboard.sol","type":"contract","deployment":{"address":"0xBaF6A0bE2DCA3350D3558783740dd8d540A6CC95","chainid":"1","blockHeight":18712908}}