{"abi":[{"inputs":[{"internalType":"address payable","name":"_tellorAddress","type":"address"},{"internalType":"address","name":"_wethAddress","type":"address"},{"internalType":"uint256","name":"_stalePriceDelay","type":"uint256"}],"stateMutability":"nonpayable","type":"constructor","name":"constructor"},{"inputs":[{"internalType":"bytes32","name":"_queryId","type":"bytes32"},{"internalType":"uint256","name":"_timestamp","type":"uint256"}],"name":"getDataAfter","outputs":[{"internalType":"bytes","name":"_value","type":"bytes"},{"internalType":"uint256","name":"_timestampRetrieved","type":"uint256"}],"stateMutability":"view","type":"function"},{"inputs":[{"internalType":"bytes32","name":"_queryId","type":"bytes32"},{"internalType":"uint256","name":"_timestamp","type":"uint256"}],"name":"getDataBefore","outputs":[{"internalType":"bytes","name":"_value","type":"bytes"},{"internalType":"uint256","name":"_timestampRetrieved","type":"uint256"}],"stateMutability":"view","type":"function"},{"inputs":[{"internalType":"bytes32","name":"_queryId","type":"bytes32"},{"internalType":"uint256","name":"_timestamp","type":"uint256"}],"name":"getIndexForDataAfter","outputs":[{"internalType":"bool","name":"_found","type":"bool"},{"internalType":"uint256","name":"_index","type":"uint256"}],"stateMutability":"view","type":"function"},{"inputs":[{"internalType":"bytes32","name":"_queryId","type":"bytes32"},{"internalType":"uint256","name":"_timestamp","type":"uint256"}],"name":"getIndexForDataBefore","outputs":[{"internalType":"bool","name":"_found","type":"bool"},{"internalType":"uint256","name":"_index","type":"uint256"}],"stateMutability":"view","type":"function"},{"inputs":[{"internalType":"bytes32","name":"_queryId","type":"bytes32"},{"internalType":"uint256","name":"_timestamp","type":"uint256"},{"internalType":"uint256","name":"_maxAge","type":"uint256"},{"internalType":"uint256","name":"_maxCount","type":"uint256"}],"name":"getMultipleValuesBefore","outputs":[{"internalType":"bytes[]","name":"_values","type":"bytes[]"},{"internalType":"uint256[]","name":"_timestamps","type":"uint256[]"}],"stateMutability":"view","type":"function"},{"inputs":[{"internalType":"bytes32","name":"_queryId","type":"bytes32"}],"name":"getNewValueCountbyQueryId","outputs":[{"internalType":"uint256","name":"","type":"uint256"}],"stateMutability":"view","type":"function"},{"inputs":[{"internalType":"address","name":"tokenAddress","type":"address"}],"name":"getPriceUSD","outputs":[{"internalType":"uint256","name":"","type":"uint256"}],"stateMutability":"view","type":"function"},{"inputs":[{"internalType":"bytes32","name":"_queryId","type":"bytes32"},{"internalType":"uint256","name":"_timestamp","type":"uint256"}],"name":"getReporterByTimestamp","outputs":[{"internalType":"address","name":"","type":"address"}],"stateMutability":"view","type":"function"},{"inputs":[{"internalType":"bytes32","name":"_queryId","type":"bytes32"},{"internalType":"uint256","name":"_index","type":"uint256"}],"name":"getTimestampbyQueryIdandIndex","outputs":[{"internalType":"uint256","name":"","type":"uint256"}],"stateMutability":"view","type":"function"},{"inputs":[],"name":"idMappingContract","outputs":[{"internalType":"contract IMappingContract","name":"","type":"address"}],"stateMutability":"view","type":"function"},{"inputs":[{"internalType":"bytes32","name":"_queryId","type":"bytes32"},{"internalType":"uint256","name":"_timestamp","type":"uint256"}],"name":"isInDispute","outputs":[{"internalType":"bool","name":"","type":"bool"}],"stateMutability":"view","type":"function"},{"inputs":[{"internalType":"bytes32","name":"_queryId","type":"bytes32"},{"internalType":"uint256","name":"_timestamp","type":"uint256"}],"name":"retrieveData","outputs":[{"internalType":"bytes","name":"","type":"bytes"}],"stateMutability":"view","type":"function"},{"inputs":[{"internalType":"address","name":"_addy","type":"address"}],"name":"setIdMappingContract","outputs":[],"stateMutability":"nonpayable","type":"function"},{"inputs":[],"name":"stalePriceDelay","outputs":[{"internalType":"uint256","name":"","type":"uint256"}],"stateMutability":"view","type":"function"},{"inputs":[],"name":"tellor","outputs":[{"internalType":"contract ITellor","name":"","type":"address"}],"stateMutability":"view","type":"function"},{"inputs":[{"internalType":"bytes32","name":"_id","type":"bytes32"}],"name":"valueFor","outputs":[{"internalType":"int256","name":"_value","type":"int256"},{"internalType":"uint256","name":"_timestamp","type":"uint256"},{"internalType":"uint256","name":"_statusCode","type":"uint256"}],"stateMutability":"view","type":"function"},{"inputs":[],"name":"wethAddress","outputs":[{"internalType":"address","name":"","type":"address"}],"stateMutability":"view","type":"function"}],"bytecode":"60e06040523480156200001157600080fd5b506040516200149c3803806200149c8339810160408190526200003491620000fc565b600080546001600160a01b038086166001600160a01b031990921691909117825583166080526040516200009c9060200160408082526003908201819052620cae8d60eb1b6060830152608060208301819052820152621d5cd960ea1b60a082015260c00190565b60408051601f1981840301815290829052620000bb9160200162000144565b60408051601f19818403018152919052805160209091012060a0525060c05250620001b59050565b6001600160a01b0381168114620000f957600080fd5b50565b6000806000606084860312156200011257600080fd5b83516200011f81620000e3565b60208501519093506200013281620000e3565b80925050604084015190509250925092565b60408152600960408201526853706f74507269636560b81b606082015260006020608081840152835180608085015260005b81811015620001945785810183015185820160a00152820162000176565b50600060a0828601015260a0601f19601f8301168501019250505092915050565b60805160a05160c0516112a9620001f3600039600081816101e1015261053a015260006104cb0152600081816101ba015261044d01526112a96000f3fe608060405234801561001057600080fd5b506004361061010b5760003560e01c806364ee3c6d116100a2578063ce5e11bf11610071578063ce5e11bf1461028b578063e07c54861461029e578063f66f49c3146102b1578063f78eea83146102c4578063fcd4a546146102f257600080fd5b806364ee3c6d1461022457806377b03e0d14610245578063a792765f14610258578063c5958af91461026b57600080fd5b806344e87f91116100de57806344e87f91146101925780634f0e0ef3146101b55780635647a646146101dc5780635708447d1461021157600080fd5b8063193b505b146101105780631959ad5b1461012557806329449085146101555780632af8aae01461017f575b600080fd5b61012361011e366004610e4b565b610313565b005b600054610138906001600160a01b031681565b6040516001600160a01b0390911681526020015b60405180910390f35b610168610163366004610e6f565b61034b565b60408051921515835260208301919091520161014c565b600154610138906001600160a01b031681565b6101a56101a0366004610e6f565b6103cb565b604051901515815260200161014c565b6101387f000000000000000000000000000000000000000000000000000000000000000081565b6102037f000000000000000000000000000000000000000000000000000000000000000081565b60405190815260200161014c565b61020361021f366004610e4b565b610449565b610237610232366004610e6f565b6105ba565b60405161014c929190610ee1565b610203610253366004610f03565b610613565b610237610266366004610e6f565b610681565b61027e610279366004610e6f565b610708565b60405161014c9190610f1c565b610203610299366004610e6f565b610781565b6101386102ac366004610e6f565b6107f6565b6101686102bf366004610e6f565b61086b565b6102d76102d2366004610f03565b610a28565b6040805193845260208401929092529082015260600161014c565b610305610300366004610f2f565b610aed565b60405161014c929190610f61565b6001546001600160a01b03161561032957600080fd5b600180546001600160a01b0319166001600160a01b0392909216919091179055565b60008054604051632944908560e01b8152600481018590526024810184905282916001600160a01b0316906329449085906044016040805180830381865afa15801561039b573d6000803e3d6000fd5b505050506040513d601f19601f820116820180604052508101906103bf9190611011565b915091505b9250929050565b600080546040516344e87f9160e01b815260048101859052602481018490526001600160a01b03909116906344e87f9190604401602060405180830381865afa15801561041c573d6000803e3d6000fd5b505050506040513d601f19601f82011682018060405250810190610440919061103d565b90505b92915050565b60007f00000000000000000000000000000000000000000000000000000000000000006001600160a01b0316826001600160a01b03161460405180604001604052806002815260200161034360f41b815250906104c25760405162461bcd60e51b81526004016104b99190610f1c565b60405180910390fd5b506000806104f67f00000000000000000000000000000000000000000000000000000000000000006102666102584261106e565b915091506000811160405180604001604052806002815260200161343160f01b815250906105375760405162461bcd60e51b81526004016104b99190610f1c565b507f0000000000000000000000000000000000000000000000000000000000000000610563824261106e565b1060405180604001604052806002815260200161343160f01b8152509061059d5760405162461bcd60e51b81526004016104b99190610f1c565b50818060200190518101906105b29190611081565b949350505050565b606060008060006105cb868661086b565b91509150816105f257600060405180602001604052806000815250909350935050506103c4565b6105fc8682610781565b92506106088684610708565b935050509250929050565b600080546040516377b03e0d60e01b8152600481018490526001600160a01b03909116906377b03e0d90602401602060405180830381865afa15801561065d573d6000803e3d6000fd5b505050506040513d601f19601f820116820180604052508101906104439190611081565b6000805460405163a792765f60e01b81526004810185905260248101849052606092916001600160a01b03169063a792765f90604401600060405180830381865afa1580156106d4573d6000803e3d6000fd5b505050506040513d6000823e601f3d908101601f191682016040526106fc9190810190611138565b90969095509350505050565b60005460405163c5958af960e01b815260048101849052602481018390526060916001600160a01b03169063c5958af990604401600060405180830381865afa158015610759573d6000803e3d6000fd5b505050506040513d6000823e601f3d908101601f19168201604052610440919081019061118f565b6000805460405163ce5e11bf60e01b815260048101859052602481018490526001600160a01b039091169063ce5e11bf90604401602060405180830381865afa1580156107d2573d6000803e3d6000fd5b505050506040513d601f19601f820116820180604052508101906104409190611081565b6000805460405163703e2a4360e11b815260048101859052602481018490526001600160a01b039091169063e07c548690604401602060405180830381865afa158015610847573d6000803e3d6000fd5b505050506040513d601f19601f8201168201806040525081019061044091906111c4565b600080600061087985610613565b9050806000036108905760008092509250506103c4565b8061089a816111e1565b91506001905060008083816108af8a83610781565b90508881116108ca57600080975097505050505050506103c4565b6108d48a84610781565b9050888111156108e357600094505b84156109935760026108f584846111f8565b6108ff919061120b565b935061090b8a85610781565b90508881111561094c5760006109268b61029960018861106e565b90508981116109385760009550610946565b61094360018661106e565b92505b506108e3565b600061095d8b6102998760016111f8565b9050898111156109805760009550846109758161122d565b955050809150610946565b61098b8560016111f8565b9350506108e3565b61099d8a826103cb565b6109b357600184975097505050505050506103c4565b6109bd8a826103cb565b80156109c857508584105b156109eb57836109d78161122d565b9450506109e48a85610781565b90506109b3565b85841480156109ff57506109ff8a826103cb565b15610a1657600080975097505050505050506103c4565b600184975097505050505050506103c4565b6001546040516387a475fd60e01b8152600481018390526000918291829182916001600160a01b03909116906387a475fd90602401602060405180830381865afa158015610a7a573d6000803e3d6000fd5b505050506040513d601f19601f82011682018060405250810190610a9e9190611081565b90506060610ab1826102664260016111f8565b945090506000849003610ad1576000806101949450945094505050610ae6565b6000610adc82610ddc565b955060c893505050505b9193909250565b606080600080610b01886102bf888a61106e565b9150915081610b52576040805160008082526020820190925290610b35565b6060815260200190600190039081610b205790505b506040805160008152602081019091529094509250610dd3915050565b6000610b5e898961034b565b909350905082610bb1576040805160008082526020820190925290610b93565b6060815260200190600190039081610b7e5790505b506040805160008152602081019091529095509350610dd392505050565b60008060008867ffffffffffffffff811115610bcf57610bcf61109a565b604051908082528060200260200182016040528015610bf8578160200160208202803683370190505b5090505b8883108015610c1f57508482610c138660016111f8565b610c1d919061106e565b115b15610c83576000610c348d610299858861106e565b9050610c408d826103cb565b610c705780828581518110610c5757610c57611246565b602090810291909101015283610c6c8161122d565b9450505b82610c7a8161122d565b93505050610bfc565b60008367ffffffffffffffff811115610c9e57610c9e61109a565b604051908082528060200260200182016040528015610cd157816020015b6060815260200190600190039081610cbc5790505b50905060008467ffffffffffffffff811115610cef57610cef61109a565b604051908082528060200260200182016040528015610d18578160200160208202803683370190505b50905060005b85811015610dc6578381610d3360018961106e565b610d3d919061106e565b81518110610d4d57610d4d611246565b6020026020010151828281518110610d6757610d67611246565b602002602001018181525050610d968f838381518110610d8957610d89611246565b6020026020010151610708565b838281518110610da857610da8611246565b60200260200101819052508080610dbe9061122d565b915050610d1e565b5090985096505050505050505b94509492505050565b6000805b8251811015610e2d57828181518110610dfb57610dfb611246565b016020015160f81c610e0f8361010061125c565b610e1991906111f8565b915080610e258161122d565b915050610de0565b50919050565b6001600160a01b0381168114610e4857600080fd5b50565b600060208284031215610e5d57600080fd5b8135610e6881610e33565b9392505050565b60008060408385031215610e8257600080fd5b50508035926020909101359150565b60005b83811015610eac578181015183820152602001610e94565b50506000910152565b60008151808452610ecd816020860160208601610e91565b601f01601f19169290920160200192915050565b604081526000610ef46040830185610eb5565b90508260208301529392505050565b600060208284031215610f1557600080fd5b5035919050565b6020815260006104406020830184610eb5565b60008060008060808587031215610f4557600080fd5b5050823594602084013594506040840135936060013592509050565b6000604082016040835280855180835260608501915060608160051b8601019250602080880160005b83811015610fb857605f19888703018552610fa6868351610eb5565b95509382019390820190600101610f8a565b50508584038187015286518085528782019482019350915060005b82811015610fef57845184529381019392810192600101610fd3565b5091979650505050505050565b8051801515811461100c57600080fd5b919050565b6000806040838503121561102457600080fd5b61102d83610ffc565b9150602083015190509250929050565b60006020828403121561104f57600080fd5b61044082610ffc565b634e487b7160e01b600052601160045260246000fd5b8181038181111561044357610443611058565b60006020828403121561109357600080fd5b5051919050565b634e487b7160e01b600052604160045260246000fd5b600082601f8301126110c157600080fd5b815167ffffffffffffffff808211156110dc576110dc61109a565b604051601f8301601f19908116603f011681019082821181831017156111045761110461109a565b8160405283815286602085880101111561111d57600080fd5b61112e846020830160208901610e91565b9695505050505050565b60008060006060848603121561114d57600080fd5b61115684610ffc565b9250602084015167ffffffffffffffff81111561117257600080fd5b61117e868287016110b0565b925050604084015190509250925092565b6000602082840312156111a157600080fd5b815167ffffffffffffffff8111156111b857600080fd5b6105b2848285016110b0565b6000602082840312156111d657600080fd5b8151610e6881610e33565b6000816111f0576111f0611058565b506000190190565b8082018082111561044357610443611058565b60008261122857634e487b7160e01b600052601260045260246000fd5b500490565b60006001820161123f5761123f611058565b5060010190565b634e487b7160e01b600052603260045260246000fd5b80820281158282048414176104435761044361105856fea2646970667358221220bdd777a69728f61e2d56a006133caaf6d1098ea5e932ca56fccf9a09ce75383464736f6c63430008110033","bytecodeSha1":"a7b1816ca66ea3ede4a7158c8dfba6468579115f","compiler":{"evm_version":"london","optimizer":{"enabled":true,"runs":200},"version":"0.8.17+commit.8df45f5f"},"contractName":"TellorOracle","language":"Solidity","natspec":{"kind":"dev","methods":{"getDataAfter(bytes32,uint256)":{"details":"Retrieves the next value for the queryId after the specified timestamp","params":{"_queryId":"is the queryId to look up the value for","_timestamp":"after which to search for next value"},"returns":{"_timestampRetrieved":"the value's timestamp","_value":"the value retrieved"}},"getDataBefore(bytes32,uint256)":{"details":"Retrieves the latest value for the queryId before the specified timestamp","params":{"_queryId":"is the queryId to look up the value for","_timestamp":"before which to search for latest value"},"returns":{"_timestampRetrieved":"the value's timestamp","_value":"the value retrieved"}},"getIndexForDataAfter(bytes32,uint256)":{"details":"Retrieves latest array index of data before the specified timestamp for the queryId","params":{"_queryId":"is the queryId to look up the index for","_timestamp":"is the timestamp before which to search for the latest index"},"returns":{"_found":"whether the index was found","_index":"the latest index found before the specified timestamp"}},"getIndexForDataBefore(bytes32,uint256)":{"details":"Retrieves latest array index of data before the specified timestamp for the queryId","params":{"_queryId":"is the queryId to look up the index for","_timestamp":"is the timestamp before which to search for the latest index"},"returns":{"_found":"whether the index was found","_index":"the latest index found before the specified timestamp"}},"getMultipleValuesBefore(bytes32,uint256,uint256,uint256)":{"details":"Retrieves multiple uint256 values before the specified timestamp","params":{"_maxAge":"the maximum number of seconds before the _timestamp to search for values","_maxCount":"the maximum number of values to return","_queryId":"the unique id of the data query","_timestamp":"the timestamp before which to search for values"},"returns":{"_timestamps":"the timestamps of the values retrieved","_values":"the values retrieved, ordered from oldest to newest"}},"getNewValueCountbyQueryId(bytes32)":{"details":"Counts the number of values that have been submitted for the queryId","params":{"_queryId":"the id to look up"},"returns":{"_0":"uint256 count of the number of values received for the queryId"}},"getPriceUSD(address)":{"notice":"Quotes the USD price of `tokenAddress` The quoted price is always scaled with 18 decimals regardless of the source used for the oracle.","params":{"tokenAddress":"the asset of which the price is to be quoted"},"returns":{"_0":"the USD price of the asset"}},"getReporterByTimestamp(bytes32,uint256)":{"details":"Returns the address of the reporter who submitted a value for a data ID at a specific time","params":{"_queryId":"is ID of the specific data feed","_timestamp":"is the timestamp to find a corresponding reporter for"},"returns":{"_0":"address of the reporter who reported the value for the data ID at the given timestamp"}},"getTimestampbyQueryIdandIndex(bytes32,uint256)":{"details":"Gets the timestamp for the value based on their index","params":{"_index":"is the value index to look up","_queryId":"is the id to look up"},"returns":{"_0":"uint256 timestamp"}},"isInDispute(bytes32,uint256)":{"details":"Determines whether a value with a given queryId and timestamp has been disputed","params":{"_queryId":"is the value id to look up","_timestamp":"is the timestamp of the value to look up"},"returns":{"_0":"bool true if queryId/timestamp is under dispute"}},"retrieveData(bytes32,uint256)":{"details":"Retrieve value from oracle based on queryId/timestamp","params":{"_queryId":"being requested","_timestamp":"to retrieve data/value from"},"returns":{"_0":"bytes value for query/timestamp submitted"}},"setIdMappingContract(address)":{"details":"allows dev to set mapping contract for valueFor (EIP2362)","params":{"_addy":"address of mapping contract"}},"valueFor(bytes32)":{"details":"Retrieve most recent int256 value from oracle based on queryId","params":{"_id":"being requested"},"returns":{"_statusCode":"200 if value found, 404 if not found","_timestamp":"timestamp of most recent value","_value":"most recent value submitted"}}},"version":1},"opcodes":"PUSH1 0x80 PUSH1 0x40 MSTORE CALLVALUE DUP1 ISZERO PUSH2 0x10 JUMPI PUSH1 0x0 DUP1 REVERT JUMPDEST POP PUSH1 0x4 CALLDATASIZE LT PUSH2 0x10B JUMPI PUSH1 0x0 CALLDATALOAD PUSH1 0xE0 SHR DUP1 PUSH4 0x64EE3C6D GT PUSH2 0xA2 JUMPI DUP1 PUSH4 0xCE5E11BF GT PUSH2 0x71 JUMPI DUP1 PUSH4 0xCE5E11BF EQ PUSH2 0x28B JUMPI DUP1 PUSH4 0xE07C5486 EQ PUSH2 0x29E JUMPI DUP1 PUSH4 0xF66F49C3 EQ PUSH2 0x2B1 JUMPI DUP1 PUSH4 0xF78EEA83 EQ PUSH2 0x2C4 JUMPI DUP1 PUSH4 0xFCD4A546 EQ PUSH2 0x2F2 JUMPI PUSH1 0x0 DUP1 REVERT JUMPDEST DUP1 PUSH4 0x64EE3C6D EQ PUSH2 0x224 JUMPI DUP1 PUSH4 0x77B03E0D EQ PUSH2 0x245 JUMPI DUP1 PUSH4 0xA792765F EQ PUSH2 0x258 JUMPI DUP1 PUSH4 0xC5958AF9 EQ PUSH2 0x26B JUMPI PUSH1 0x0 DUP1 REVERT JUMPDEST DUP1 PUSH4 0x44E87F91 GT PUSH2 0xDE JUMPI DUP1 PUSH4 0x44E87F91 EQ PUSH2 0x192 JUMPI DUP1 PUSH4 0x4F0E0EF3 EQ PUSH2 0x1B5 JUMPI DUP1 PUSH4 0x5647A646 EQ PUSH2 0x1DC JUMPI DUP1 PUSH4 0x5708447D EQ PUSH2 0x211 JUMPI PUSH1 0x0 DUP1 REVERT JUMPDEST DUP1 PUSH4 0x193B505B EQ PUSH2 0x110 JUMPI DUP1 PUSH4 0x1959AD5B EQ PUSH2 0x125 JUMPI DUP1 PUSH4 0x29449085 EQ PUSH2 0x155 JUMPI DUP1 PUSH4 0x2AF8AAE0 EQ PUSH2 0x17F JUMPI JUMPDEST PUSH1 0x0 DUP1 REVERT JUMPDEST PUSH2 0x123 PUSH2 0x11E CALLDATASIZE PUSH1 0x4 PUSH2 0xE4B JUMP JUMPDEST PUSH2 0x313 JUMP JUMPDEST STOP JUMPDEST PUSH1 0x0 SLOAD PUSH2 0x138 SWAP1 PUSH1 0x1 PUSH1 0x1 PUSH1 0xA0 SHL SUB AND DUP2 JUMP JUMPDEST PUSH1 0x40 MLOAD PUSH1 0x1 PUSH1 0x1 PUSH1 0xA0 SHL SUB SWAP1 SWAP2 AND DUP2 MSTORE PUSH1 0x20 ADD JUMPDEST PUSH1 0x40 MLOAD DUP1 SWAP2 SUB SWAP1 RETURN JUMPDEST PUSH2 0x168 PUSH2 0x163 CALLDATASIZE PUSH1 0x4 PUSH2 0xE6F JUMP JUMPDEST PUSH2 0x34B JUMP JUMPDEST PUSH1 0x40 DUP1 MLOAD SWAP3 ISZERO ISZERO DUP4 MSTORE PUSH1 0x20 DUP4 ADD SWAP2 SWAP1 SWAP2 MSTORE ADD PUSH2 0x14C JUMP JUMPDEST PUSH1 0x1 SLOAD PUSH2 0x138 SWAP1 PUSH1 0x1 PUSH1 0x1 PUSH1 0xA0 SHL SUB AND DUP2 JUMP JUMPDEST PUSH2 0x1A5 PUSH2 0x1A0 CALLDATASIZE PUSH1 0x4 PUSH2 0xE6F JUMP JUMPDEST PUSH2 0x3CB JUMP JUMPDEST PUSH1 0x40 MLOAD SWAP1 ISZERO ISZERO DUP2 MSTORE PUSH1 0x20 ADD PUSH2 0x14C JUMP JUMPDEST PUSH2 0x138 PUSH32 0x0 DUP2 JUMP JUMPDEST PUSH2 0x203 PUSH32 0x0 DUP2 JUMP JUMPDEST PUSH1 0x40 MLOAD SWAP1 DUP2 MSTORE PUSH1 0x20 ADD PUSH2 0x14C JUMP JUMPDEST PUSH2 0x203 PUSH2 0x21F CALLDATASIZE PUSH1 0x4 PUSH2 0xE4B JUMP JUMPDEST PUSH2 0x449 JUMP JUMPDEST PUSH2 0x237 PUSH2 0x232 CALLDATASIZE PUSH1 0x4 PUSH2 0xE6F JUMP JUMPDEST PUSH2 0x5BA JUMP JUMPDEST PUSH1 0x40 MLOAD PUSH2 0x14C SWAP3 SWAP2 SWAP1 PUSH2 0xEE1 JUMP JUMPDEST PUSH2 0x203 PUSH2 0x253 CALLDATASIZE PUSH1 0x4 PUSH2 0xF03 JUMP JUMPDEST PUSH2 0x613 JUMP JUMPDEST PUSH2 0x237 PUSH2 0x266 CALLDATASIZE PUSH1 0x4 PUSH2 0xE6F JUMP JUMPDEST PUSH2 0x681 JUMP JUMPDEST PUSH2 0x27E PUSH2 0x279 CALLDATASIZE PUSH1 0x4 PUSH2 0xE6F JUMP JUMPDEST PUSH2 0x708 JUMP JUMPDEST PUSH1 0x40 MLOAD PUSH2 0x14C SWAP2 SWAP1 PUSH2 0xF1C JUMP JUMPDEST PUSH2 0x203 PUSH2 0x299 CALLDATASIZE PUSH1 0x4 PUSH2 0xE6F JUMP JUMPDEST PUSH2 0x781 JUMP JUMPDEST PUSH2 0x138 PUSH2 0x2AC CALLDATASIZE PUSH1 0x4 PUSH2 0xE6F JUMP JUMPDEST PUSH2 0x7F6 JUMP JUMPDEST PUSH2 0x168 PUSH2 0x2BF CALLDATASIZE PUSH1 0x4 PUSH2 0xE6F JUMP JUMPDEST PUSH2 0x86B JUMP JUMPDEST PUSH2 0x2D7 PUSH2 0x2D2 CALLDATASIZE PUSH1 0x4 PUSH2 0xF03 JUMP JUMPDEST PUSH2 0xA28 JUMP JUMPDEST PUSH1 0x40 DUP1 MLOAD SWAP4 DUP5 MSTORE PUSH1 0x20 DUP5 ADD SWAP3 SWAP1 SWAP3 MSTORE SWAP1 DUP3 ADD MSTORE PUSH1 0x60 ADD PUSH2 0x14C JUMP JUMPDEST PUSH2 0x305 PUSH2 0x300 CALLDATASIZE PUSH1 0x4 PUSH2 0xF2F JUMP JUMPDEST PUSH2 0xAED JUMP JUMPDEST PUSH1 0x40 MLOAD PUSH2 0x14C SWAP3 SWAP2 SWAP1 PUSH2 0xF61 JUMP JUMPDEST PUSH1 0x1 SLOAD PUSH1 0x1 PUSH1 0x1 PUSH1 0xA0 SHL SUB AND ISZERO PUSH2 0x329 JUMPI PUSH1 0x0 DUP1 REVERT JUMPDEST PUSH1 0x1 DUP1 SLOAD PUSH1 0x1 PUSH1 0x1 PUSH1 0xA0 SHL SUB NOT AND PUSH1 0x1 PUSH1 0x1 PUSH1 0xA0 SHL SUB SWAP3 SWAP1 SWAP3 AND SWAP2 SWAP1 SWAP2 OR SWAP1 SSTORE JUMP JUMPDEST PUSH1 0x0 DUP1 SLOAD PUSH1 0x40 MLOAD PUSH4 0x29449085 PUSH1 0xE0 SHL DUP2 MSTORE PUSH1 0x4 DUP2 ADD DUP6 SWAP1 MSTORE PUSH1 0x24 DUP2 ADD DUP5 SWAP1 MSTORE DUP3 SWAP2 PUSH1 0x1 PUSH1 0x1 PUSH1 0xA0 SHL SUB AND SWAP1 PUSH4 0x29449085 SWAP1 PUSH1 0x44 ADD PUSH1 0x40 DUP1 MLOAD DUP1 DUP4 SUB DUP2 DUP7 GAS STATICCALL ISZERO DUP1 ISZERO PUSH2 0x39B JUMPI RETURNDATASIZE PUSH1 0x0 DUP1 RETURNDATACOPY RETURNDATASIZE PUSH1 0x0 REVERT JUMPDEST POP POP POP POP PUSH1 0x40 MLOAD RETURNDATASIZE PUSH1 0x1F NOT PUSH1 0x1F DUP3 ADD AND DUP3 ADD DUP1 PUSH1 0x40 MSTORE POP DUP2 ADD SWAP1 PUSH2 0x3BF SWAP2 SWAP1 PUSH2 0x1011 JUMP JUMPDEST SWAP2 POP SWAP2 POP JUMPDEST SWAP3 POP SWAP3 SWAP1 POP JUMP JUMPDEST PUSH1 0x0 DUP1 SLOAD PUSH1 0x40 MLOAD PUSH4 0x44E87F91 PUSH1 0xE0 SHL DUP2 MSTORE PUSH1 0x4 DUP2 ADD DUP6 SWAP1 MSTORE PUSH1 0x24 DUP2 ADD DUP5 SWAP1 MSTORE PUSH1 0x1 PUSH1 0x1 PUSH1 0xA0 SHL SUB SWAP1 SWAP2 AND SWAP1 PUSH4 0x44E87F91 SWAP1 PUSH1 0x44 ADD PUSH1 0x20 PUSH1 0x40 MLOAD DUP1 DUP4 SUB DUP2 DUP7 GAS STATICCALL ISZERO DUP1 ISZERO PUSH2 0x41C JUMPI RETURNDATASIZE PUSH1 0x0 DUP1 RETURNDATACOPY RETURNDATASIZE PUSH1 0x0 REVERT JUMPDEST POP POP POP POP PUSH1 0x40 MLOAD RETURNDATASIZE PUSH1 0x1F NOT PUSH1 0x1F DUP3 ADD AND DUP3 ADD DUP1 PUSH1 0x40 MSTORE POP DUP2 ADD SWAP1 PUSH2 0x440 SWAP2 SWAP1 PUSH2 0x103D JUMP JUMPDEST SWAP1 POP JUMPDEST SWAP3 SWAP2 POP POP JUMP JUMPDEST PUSH1 0x0 PUSH32 0x0 PUSH1 0x1 PUSH1 0x1 PUSH1 0xA0 SHL SUB AND DUP3 PUSH1 0x1 PUSH1 0x1 PUSH1 0xA0 SHL SUB AND EQ PUSH1 0x40 MLOAD DUP1 PUSH1 0x40 ADD PUSH1 0x40 MSTORE DUP1 PUSH1 0x2 DUP2 MSTORE PUSH1 0x20 ADD PUSH2 0x343 PUSH1 0xF4 SHL DUP2 MSTORE POP SWAP1 PUSH2 0x4C2 JUMPI PUSH1 0x40 MLOAD PUSH3 0x461BCD PUSH1 0xE5 SHL DUP2 MSTORE PUSH1 0x4 ADD PUSH2 0x4B9 SWAP2 SWAP1 PUSH2 0xF1C JUMP JUMPDEST PUSH1 0x40 MLOAD DUP1 SWAP2 SUB SWAP1 REVERT JUMPDEST POP PUSH1 0x0 DUP1 PUSH2 0x4F6 PUSH32 0x0 PUSH2 0x266 PUSH2 0x258 TIMESTAMP PUSH2 0x106E JUMP JUMPDEST SWAP2 POP SWAP2 POP PUSH1 0x0 DUP2 GT PUSH1 0x40 MLOAD DUP1 PUSH1 0x40 ADD PUSH1 0x40 MSTORE DUP1 PUSH1 0x2 DUP2 MSTORE PUSH1 0x20 ADD PUSH2 0x3431 PUSH1 0xF0 SHL DUP2 MSTORE POP SWAP1 PUSH2 0x537 JUMPI PUSH1 0x40 MLOAD PUSH3 0x461BCD PUSH1 0xE5 SHL DUP2 MSTORE PUSH1 0x4 ADD PUSH2 0x4B9 SWAP2 SWAP1 PUSH2 0xF1C JUMP JUMPDEST POP PUSH32 0x0 PUSH2 0x563 DUP3 TIMESTAMP PUSH2 0x106E JUMP JUMPDEST LT PUSH1 0x40 MLOAD DUP1 PUSH1 0x40 ADD PUSH1 0x40 MSTORE DUP1 PUSH1 0x2 DUP2 MSTORE PUSH1 0x20 ADD PUSH2 0x3431 PUSH1 0xF0 SHL DUP2 MSTORE POP SWAP1 PUSH2 0x59D JUMPI PUSH1 0x40 MLOAD PUSH3 0x461BCD PUSH1 0xE5 SHL DUP2 MSTORE PUSH1 0x4 ADD PUSH2 0x4B9 SWAP2 SWAP1 PUSH2 0xF1C JUMP JUMPDEST POP DUP2 DUP1 PUSH1 0x20 ADD SWAP1 MLOAD DUP2 ADD SWAP1 PUSH2 0x5B2 SWAP2 SWAP1 PUSH2 0x1081 JUMP JUMPDEST SWAP5 SWAP4 POP POP POP POP JUMP JUMPDEST PUSH1 0x60 PUSH1 0x0 DUP1 PUSH1 0x0 PUSH2 0x5CB DUP7 DUP7 PUSH2 0x86B JUMP JUMPDEST SWAP2 POP SWAP2 POP DUP2 PUSH2 0x5F2 JUMPI PUSH1 0x0 PUSH1 0x40 MLOAD DUP1 PUSH1 0x20 ADD PUSH1 0x40 MSTORE DUP1 PUSH1 0x0 DUP2 MSTORE POP SWAP1 SWAP4 POP SWAP4 POP POP POP PUSH2 0x3C4 JUMP JUMPDEST PUSH2 0x5FC DUP7 DUP3 PUSH2 0x781 JUMP JUMPDEST SWAP3 POP PUSH2 0x608 DUP7 DUP5 PUSH2 0x708 JUMP JUMPDEST SWAP4 POP POP POP SWAP3 POP SWAP3 SWAP1 POP JUMP JUMPDEST PUSH1 0x0 DUP1 SLOAD PUSH1 0x40 MLOAD PUSH4 0x77B03E0D PUSH1 0xE0 SHL DUP2 MSTORE PUSH1 0x4 DUP2 ADD DUP5 SWAP1 MSTORE PUSH1 0x1 PUSH1 0x1 PUSH1 0xA0 SHL SUB SWAP1 SWAP2 AND SWAP1 PUSH4 0x77B03E0D SWAP1 PUSH1 0x24 ADD PUSH1 0x20 PUSH1 0x40 MLOAD DUP1 DUP4 SUB DUP2 DUP7 GAS STATICCALL ISZERO DUP1 ISZERO PUSH2 0x65D JUMPI RETURNDATASIZE PUSH1 0x0 DUP1 RETURNDATACOPY RETURNDATASIZE PUSH1 0x0 REVERT JUMPDEST POP POP POP POP PUSH1 0x40 MLOAD RETURNDATASIZE PUSH1 0x1F NOT PUSH1 0x1F DUP3 ADD AND DUP3 ADD DUP1 PUSH1 0x40 MSTORE POP DUP2 ADD SWAP1 PUSH2 0x443 SWAP2 SWAP1 PUSH2 0x1081 JUMP JUMPDEST PUSH1 0x0 DUP1 SLOAD PUSH1 0x40 MLOAD PUSH4 0xA792765F PUSH1 0xE0 SHL DUP2 MSTORE PUSH1 0x4 DUP2 ADD DUP6 SWAP1 MSTORE PUSH1 0x24 DUP2 ADD DUP5 SWAP1 MSTORE PUSH1 0x60 SWAP3 SWAP2 PUSH1 0x1 PUSH1 0x1 PUSH1 0xA0 SHL SUB AND SWAP1 PUSH4 0xA792765F SWAP1 PUSH1 0x44 ADD PUSH1 0x0 PUSH1 0x40 MLOAD DUP1 DUP4 SUB DUP2 DUP7 GAS STATICCALL ISZERO DUP1 ISZERO PUSH2 0x6D4 JUMPI RETURNDATASIZE PUSH1 0x0 DUP1 RETURNDATACOPY RETURNDATASIZE PUSH1 0x0 REVERT JUMPDEST POP POP POP POP PUSH1 0x40 MLOAD RETURNDATASIZE PUSH1 0x0 DUP3 RETURNDATACOPY PUSH1 0x1F RETURNDATASIZE SWAP1 DUP2 ADD PUSH1 0x1F NOT AND DUP3 ADD PUSH1 0x40 MSTORE PUSH2 0x6FC SWAP2 SWAP1 DUP2 ADD SWAP1 PUSH2 0x1138 JUMP JUMPDEST SWAP1 SWAP7 SWAP1 SWAP6 POP SWAP4 POP POP POP POP JUMP JUMPDEST PUSH1 0x0 SLOAD PUSH1 0x40 MLOAD PUSH4 0xC5958AF9 PUSH1 0xE0 SHL DUP2 MSTORE PUSH1 0x4 DUP2 ADD DUP5 SWAP1 MSTORE PUSH1 0x24 DUP2 ADD DUP4 SWAP1 MSTORE PUSH1 0x60 SWAP2 PUSH1 0x1 PUSH1 0x1 PUSH1 0xA0 SHL SUB AND SWAP1 PUSH4 0xC5958AF9 SWAP1 PUSH1 0x44 ADD PUSH1 0x0 PUSH1 0x40 MLOAD DUP1 DUP4 SUB DUP2 DUP7 GAS STATICCALL ISZERO DUP1 ISZERO PUSH2 0x759 JUMPI RETURNDATASIZE PUSH1 0x0 DUP1 RETURNDATACOPY RETURNDATASIZE PUSH1 0x0 REVERT JUMPDEST POP POP POP POP PUSH1 0x40 MLOAD RETURNDATASIZE PUSH1 0x0 DUP3 RETURNDATACOPY PUSH1 0x1F RETURNDATASIZE SWAP1 DUP2 ADD PUSH1 0x1F NOT AND DUP3 ADD PUSH1 0x40 MSTORE PUSH2 0x440 SWAP2 SWAP1 DUP2 ADD SWAP1 PUSH2 0x118F JUMP JUMPDEST PUSH1 0x0 DUP1 SLOAD PUSH1 0x40 MLOAD PUSH4 0xCE5E11BF PUSH1 0xE0 SHL DUP2 MSTORE PUSH1 0x4 DUP2 ADD DUP6 SWAP1 MSTORE PUSH1 0x24 DUP2 ADD DUP5 SWAP1 MSTORE PUSH1 0x1 PUSH1 0x1 PUSH1 0xA0 SHL SUB SWAP1 SWAP2 AND SWAP1 PUSH4 0xCE5E11BF SWAP1 PUSH1 0x44 ADD PUSH1 0x20 PUSH1 0x40 MLOAD DUP1 DUP4 SUB DUP2 DUP7 GAS STATICCALL ISZERO DUP1 ISZERO PUSH2 0x7D2 JUMPI RETURNDATASIZE PUSH1 0x0 DUP1 RETURNDATACOPY RETURNDATASIZE PUSH1 0x0 REVERT JUMPDEST POP POP POP POP PUSH1 0x40 MLOAD RETURNDATASIZE PUSH1 0x1F NOT PUSH1 0x1F DUP3 ADD AND DUP3 ADD DUP1 PUSH1 0x40 MSTORE POP DUP2 ADD SWAP1 PUSH2 0x440 SWAP2 SWAP1 PUSH2 0x1081 JUMP JUMPDEST PUSH1 0x0 DUP1 SLOAD PUSH1 0x40 MLOAD PUSH4 0x703E2A43 PUSH1 0xE1 SHL DUP2 MSTORE PUSH1 0x4 DUP2 ADD DUP6 SWAP1 MSTORE PUSH1 0x24 DUP2 ADD DUP5 SWAP1 MSTORE PUSH1 0x1 PUSH1 0x1 PUSH1 0xA0 SHL SUB SWAP1 SWAP2 AND SWAP1 PUSH4 0xE07C5486 SWAP1 PUSH1 0x44 ADD PUSH1 0x20 PUSH1 0x40 MLOAD DUP1 DUP4 SUB DUP2 DUP7 GAS STATICCALL ISZERO DUP1 ISZERO PUSH2 0x847 JUMPI RETURNDATASIZE PUSH1 0x0 DUP1 RETURNDATACOPY RETURNDATASIZE PUSH1 0x0 REVERT JUMPDEST POP POP POP POP PUSH1 0x40 MLOAD RETURNDATASIZE PUSH1 0x1F NOT PUSH1 0x1F DUP3 ADD AND DUP3 ADD DUP1 PUSH1 0x40 MSTORE POP DUP2 ADD SWAP1 PUSH2 0x440 SWAP2 SWAP1 PUSH2 0x11C4 JUMP JUMPDEST PUSH1 0x0 DUP1 PUSH1 0x0 PUSH2 0x879 DUP6 PUSH2 0x613 JUMP JUMPDEST SWAP1 POP DUP1 PUSH1 0x0 SUB PUSH2 0x890 JUMPI PUSH1 0x0 DUP1 SWAP3 POP SWAP3 POP POP PUSH2 0x3C4 JUMP JUMPDEST DUP1 PUSH2 0x89A DUP2 PUSH2 0x11E1 JUMP JUMPDEST SWAP2 POP PUSH1 0x1 SWAP1 POP PUSH1 0x0 DUP1 DUP4 DUP2 PUSH2 0x8AF DUP11 DUP4 PUSH2 0x781 JUMP JUMPDEST SWAP1 POP DUP9 DUP2 GT PUSH2 0x8CA JUMPI PUSH1 0x0 DUP1 SWAP8 POP SWAP8 POP POP POP POP POP POP POP PUSH2 0x3C4 JUMP JUMPDEST PUSH2 0x8D4 DUP11 DUP5 PUSH2 0x781 JUMP JUMPDEST SWAP1 POP DUP9 DUP2 GT ISZERO PUSH2 0x8E3 JUMPI PUSH1 0x0 SWAP5 POP JUMPDEST DUP5 ISZERO PUSH2 0x993 JUMPI PUSH1 0x2 PUSH2 0x8F5 DUP5 DUP5 PUSH2 0x11F8 JUMP JUMPDEST PUSH2 0x8FF SWAP2 SWAP1 PUSH2 0x120B JUMP JUMPDEST SWAP4 POP PUSH2 0x90B DUP11 DUP6 PUSH2 0x781 JUMP JUMPDEST SWAP1 POP DUP9 DUP2 GT ISZERO PUSH2 0x94C JUMPI PUSH1 0x0 PUSH2 0x926 DUP12 PUSH2 0x299 PUSH1 0x1 DUP9 PUSH2 0x106E JUMP JUMPDEST SWAP1 POP DUP10 DUP2 GT PUSH2 0x938 JUMPI PUSH1 0x0 SWAP6 POP PUSH2 0x946 JUMP JUMPDEST PUSH2 0x943 PUSH1 0x1 DUP7 PUSH2 0x106E JUMP JUMPDEST SWAP3 POP JUMPDEST POP PUSH2 0x8E3 JUMP JUMPDEST PUSH1 0x0 PUSH2 0x95D DUP12 PUSH2 0x299 DUP8 PUSH1 0x1 PUSH2 0x11F8 JUMP JUMPDEST SWAP1 POP DUP10 DUP2 GT ISZERO PUSH2 0x980 JUMPI PUSH1 0x0 SWAP6 POP DUP5 PUSH2 0x975 DUP2 PUSH2 0x122D JUMP JUMPDEST SWAP6 POP POP DUP1 SWAP2 POP PUSH2 0x946 JUMP JUMPDEST PUSH2 0x98B DUP6 PUSH1 0x1 PUSH2 0x11F8 JUMP JUMPDEST SWAP4 POP POP PUSH2 0x8E3 JUMP JUMPDEST PUSH2 0x99D DUP11 DUP3 PUSH2 0x3CB JUMP JUMPDEST PUSH2 0x9B3 JUMPI PUSH1 0x1 DUP5 SWAP8 POP SWAP8 POP POP POP POP POP POP POP PUSH2 0x3C4 JUMP JUMPDEST PUSH2 0x9BD DUP11 DUP3 PUSH2 0x3CB JUMP JUMPDEST DUP1 ISZERO PUSH2 0x9C8 JUMPI POP DUP6 DUP5 LT JUMPDEST ISZERO PUSH2 0x9EB JUMPI DUP4 PUSH2 0x9D7 DUP2 PUSH2 0x122D JUMP JUMPDEST SWAP5 POP POP PUSH2 0x9E4 DUP11 DUP6 PUSH2 0x781 JUMP JUMPDEST SWAP1 POP PUSH2 0x9B3 JUMP JUMPDEST DUP6 DUP5 EQ DUP1 ISZERO PUSH2 0x9FF JUMPI POP PUSH2 0x9FF DUP11 DUP3 PUSH2 0x3CB JUMP JUMPDEST ISZERO PUSH2 0xA16 JUMPI PUSH1 0x0 DUP1 SWAP8 POP SWAP8 POP POP POP POP POP POP POP PUSH2 0x3C4 JUMP JUMPDEST PUSH1 0x1 DUP5 SWAP8 POP SWAP8 POP POP POP POP POP POP POP PUSH2 0x3C4 JUMP JUMPDEST PUSH1 0x1 SLOAD PUSH1 0x40 MLOAD PUSH4 0x87A475FD PUSH1 0xE0 SHL DUP2 MSTORE PUSH1 0x4 DUP2 ADD DUP4 SWAP1 MSTORE PUSH1 0x0 SWAP2 DUP3 SWAP2 DUP3 SWAP2 DUP3 SWAP2 PUSH1 0x1 PUSH1 0x1 PUSH1 0xA0 SHL SUB SWAP1 SWAP2 AND SWAP1 PUSH4 0x87A475FD SWAP1 PUSH1 0x24 ADD PUSH1 0x20 PUSH1 0x40 MLOAD DUP1 DUP4 SUB DUP2 DUP7 GAS STATICCALL ISZERO DUP1 ISZERO PUSH2 0xA7A JUMPI RETURNDATASIZE PUSH1 0x0 DUP1 RETURNDATACOPY RETURNDATASIZE PUSH1 0x0 REVERT JUMPDEST POP POP POP POP PUSH1 0x40 MLOAD RETURNDATASIZE PUSH1 0x1F NOT PUSH1 0x1F DUP3 ADD AND DUP3 ADD DUP1 PUSH1 0x40 MSTORE POP DUP2 ADD SWAP1 PUSH2 0xA9E SWAP2 SWAP1 PUSH2 0x1081 JUMP JUMPDEST SWAP1 POP PUSH1 0x60 PUSH2 0xAB1 DUP3 PUSH2 0x266 TIMESTAMP PUSH1 0x1 PUSH2 0x11F8 JUMP JUMPDEST SWAP5 POP SWAP1 POP PUSH1 0x0 DUP5 SWAP1 SUB PUSH2 0xAD1 JUMPI PUSH1 0x0 DUP1 PUSH2 0x194 SWAP5 POP SWAP5 POP SWAP5 POP POP POP PUSH2 0xAE6 JUMP JUMPDEST PUSH1 0x0 PUSH2 0xADC DUP3 PUSH2 0xDDC JUMP JUMPDEST SWAP6 POP PUSH1 0xC8 SWAP4 POP POP POP POP JUMPDEST SWAP2 SWAP4 SWAP1 SWAP3 POP JUMP JUMPDEST PUSH1 0x60 DUP1 PUSH1 0x0 DUP1 PUSH2 0xB01 DUP9 PUSH2 0x2BF DUP9 DUP11 PUSH2 0x106E JUMP JUMPDEST SWAP2 POP SWAP2 POP DUP2 PUSH2 0xB52 JUMPI PUSH1 0x40 DUP1 MLOAD PUSH1 0x0 DUP1 DUP3 MSTORE PUSH1 0x20 DUP3 ADD SWAP1 SWAP3 MSTORE SWAP1 PUSH2 0xB35 JUMP JUMPDEST PUSH1 0x60 DUP2 MSTORE PUSH1 0x20 ADD SWAP1 PUSH1 0x1 SWAP1 SUB SWAP1 DUP2 PUSH2 0xB20 JUMPI SWAP1 POP JUMPDEST POP PUSH1 0x40 DUP1 MLOAD PUSH1 0x0 DUP2 MSTORE PUSH1 0x20 DUP2 ADD SWAP1 SWAP2 MSTORE SWAP1 SWAP5 POP SWAP3 POP PUSH2 0xDD3 SWAP2 POP POP JUMP JUMPDEST PUSH1 0x0 PUSH2 0xB5E DUP10 DUP10 PUSH2 0x34B JUMP JUMPDEST SWAP1 SWAP4 POP SWAP1 POP DUP3 PUSH2 0xBB1 JUMPI PUSH1 0x40 DUP1 MLOAD PUSH1 0x0 DUP1 DUP3 MSTORE PUSH1 0x20 DUP3 ADD SWAP1 SWAP3 MSTORE SWAP1 PUSH2 0xB93 JUMP JUMPDEST PUSH1 0x60 DUP2 MSTORE PUSH1 0x20 ADD SWAP1 PUSH1 0x1 SWAP1 SUB SWAP1 DUP2 PUSH2 0xB7E JUMPI SWAP1 POP JUMPDEST POP PUSH1 0x40 DUP1 MLOAD PUSH1 0x0 DUP2 MSTORE PUSH1 0x20 DUP2 ADD SWAP1 SWAP2 MSTORE SWAP1 SWAP6 POP SWAP4 POP PUSH2 0xDD3 SWAP3 POP POP POP JUMP JUMPDEST PUSH1 0x0 DUP1 PUSH1 0x0 DUP9 PUSH8 0xFFFFFFFFFFFFFFFF DUP2 GT ISZERO PUSH2 0xBCF JUMPI PUSH2 0xBCF PUSH2 0x109A JUMP JUMPDEST PUSH1 0x40 MLOAD SWAP1 DUP1 DUP3 MSTORE DUP1 PUSH1 0x20 MUL PUSH1 0x20 ADD DUP3 ADD PUSH1 0x40 MSTORE DUP1 ISZERO PUSH2 0xBF8 JUMPI DUP2 PUSH1 0x20 ADD PUSH1 0x20 DUP3 MUL DUP1 CALLDATASIZE DUP4 CALLDATACOPY ADD SWAP1 POP JUMPDEST POP SWAP1 POP JUMPDEST DUP9 DUP4 LT DUP1 ISZERO PUSH2 0xC1F JUMPI POP DUP5 DUP3 PUSH2 0xC13 DUP7 PUSH1 0x1 PUSH2 0x11F8 JUMP JUMPDEST PUSH2 0xC1D SWAP2 SWAP1 PUSH2 0x106E JUMP JUMPDEST GT JUMPDEST ISZERO PUSH2 0xC83 JUMPI PUSH1 0x0 PUSH2 0xC34 DUP14 PUSH2 0x299 DUP6 DUP9 PUSH2 0x106E JUMP JUMPDEST SWAP1 POP PUSH2 0xC40 DUP14 DUP3 PUSH2 0x3CB JUMP JUMPDEST PUSH2 0xC70 JUMPI DUP1 DUP3 DUP6 DUP2 MLOAD DUP2 LT PUSH2 0xC57 JUMPI PUSH2 0xC57 PUSH2 0x1246 JUMP JUMPDEST PUSH1 0x20 SWAP1 DUP2 MUL SWAP2 SWAP1 SWAP2 ADD ADD MSTORE DUP4 PUSH2 0xC6C DUP2 PUSH2 0x122D JUMP JUMPDEST SWAP5 POP POP JUMPDEST DUP3 PUSH2 0xC7A DUP2 PUSH2 0x122D JUMP JUMPDEST SWAP4 POP POP POP PUSH2 0xBFC JUMP JUMPDEST PUSH1 0x0 DUP4 PUSH8 0xFFFFFFFFFFFFFFFF DUP2 GT ISZERO PUSH2 0xC9E JUMPI PUSH2 0xC9E PUSH2 0x109A JUMP JUMPDEST PUSH1 0x40 MLOAD SWAP1 DUP1 DUP3 MSTORE DUP1 PUSH1 0x20 MUL PUSH1 0x20 ADD DUP3 ADD PUSH1 0x40 MSTORE DUP1 ISZERO PUSH2 0xCD1 JUMPI DUP2 PUSH1 0x20 ADD JUMPDEST PUSH1 0x60 DUP2 MSTORE PUSH1 0x20 ADD SWAP1 PUSH1 0x1 SWAP1 SUB SWAP1 DUP2 PUSH2 0xCBC JUMPI SWAP1 POP JUMPDEST POP SWAP1 POP PUSH1 0x0 DUP5 PUSH8 0xFFFFFFFFFFFFFFFF DUP2 GT ISZERO PUSH2 0xCEF JUMPI PUSH2 0xCEF PUSH2 0x109A JUMP JUMPDEST PUSH1 0x40 MLOAD SWAP1 DUP1 DUP3 MSTORE DUP1 PUSH1 0x20 MUL PUSH1 0x20 ADD DUP3 ADD PUSH1 0x40 MSTORE DUP1 ISZERO PUSH2 0xD18 JUMPI DUP2 PUSH1 0x20 ADD PUSH1 0x20 DUP3 MUL DUP1 CALLDATASIZE DUP4 CALLDATACOPY ADD SWAP1 POP JUMPDEST POP SWAP1 POP PUSH1 0x0 JUMPDEST DUP6 DUP2 LT ISZERO PUSH2 0xDC6 JUMPI DUP4 DUP2 PUSH2 0xD33 PUSH1 0x1 DUP10 PUSH2 0x106E JUMP JUMPDEST PUSH2 0xD3D SWAP2 SWAP1 PUSH2 0x106E JUMP JUMPDEST DUP2 MLOAD DUP2 LT PUSH2 0xD4D JUMPI PUSH2 0xD4D PUSH2 0x1246 JUMP JUMPDEST PUSH1 0x20 MUL PUSH1 0x20 ADD ADD MLOAD DUP3 DUP3 DUP2 MLOAD DUP2 LT PUSH2 0xD67 JUMPI PUSH2 0xD67 PUSH2 0x1246 JUMP JUMPDEST PUSH1 0x20 MUL PUSH1 0x20 ADD ADD DUP2 DUP2 MSTORE POP POP PUSH2 0xD96 DUP16 DUP4 DUP4 DUP2 MLOAD DUP2 LT PUSH2 0xD89 JUMPI PUSH2 0xD89 PUSH2 0x1246 JUMP JUMPDEST PUSH1 0x20 MUL PUSH1 0x20 ADD ADD MLOAD PUSH2 0x708 JUMP JUMPDEST DUP4 DUP3 DUP2 MLOAD DUP2 LT PUSH2 0xDA8 JUMPI PUSH2 0xDA8 PUSH2 0x1246 JUMP JUMPDEST PUSH1 0x20 MUL PUSH1 0x20 ADD ADD DUP2 SWAP1 MSTORE POP DUP1 DUP1 PUSH2 0xDBE SWAP1 PUSH2 0x122D JUMP JUMPDEST SWAP2 POP POP PUSH2 0xD1E JUMP JUMPDEST POP SWAP1 SWAP9 POP SWAP7 POP POP POP POP POP POP POP JUMPDEST SWAP5 POP SWAP5 SWAP3 POP POP POP JUMP JUMPDEST PUSH1 0x0 DUP1 JUMPDEST DUP3 MLOAD DUP2 LT ISZERO PUSH2 0xE2D JUMPI DUP3 DUP2 DUP2 MLOAD DUP2 LT PUSH2 0xDFB JUMPI PUSH2 0xDFB PUSH2 0x1246 JUMP JUMPDEST ADD PUSH1 0x20 ADD MLOAD PUSH1 0xF8 SHR PUSH2 0xE0F DUP4 PUSH2 0x100 PUSH2 0x125C JUMP JUMPDEST PUSH2 0xE19 SWAP2 SWAP1 PUSH2 0x11F8 JUMP JUMPDEST SWAP2 POP DUP1 PUSH2 0xE25 DUP2 PUSH2 0x122D JUMP JUMPDEST SWAP2 POP POP PUSH2 0xDE0 JUMP JUMPDEST POP SWAP2 SWAP1 POP JUMP JUMPDEST PUSH1 0x1 PUSH1 0x1 PUSH1 0xA0 SHL SUB DUP2 AND DUP2 EQ PUSH2 0xE48 JUMPI PUSH1 0x0 DUP1 REVERT JUMPDEST POP JUMP JUMPDEST PUSH1 0x0 PUSH1 0x20 DUP3 DUP5 SUB SLT ISZERO PUSH2 0xE5D JUMPI PUSH1 0x0 DUP1 REVERT JUMPDEST DUP2 CALLDATALOAD PUSH2 0xE68 DUP2 PUSH2 0xE33 JUMP JUMPDEST SWAP4 SWAP3 POP POP POP JUMP JUMPDEST PUSH1 0x0 DUP1 PUSH1 0x40 DUP4 DUP6 SUB SLT ISZERO PUSH2 0xE82 JUMPI PUSH1 0x0 DUP1 REVERT JUMPDEST POP POP DUP1 CALLDATALOAD SWAP3 PUSH1 0x20 SWAP1 SWAP2 ADD CALLDATALOAD SWAP2 POP JUMP JUMPDEST PUSH1 0x0 JUMPDEST DUP4 DUP2 LT ISZERO PUSH2 0xEAC JUMPI DUP2 DUP2 ADD MLOAD DUP4 DUP3 ADD MSTORE PUSH1 0x20 ADD PUSH2 0xE94 JUMP JUMPDEST POP POP PUSH1 0x0 SWAP2 ADD MSTORE JUMP JUMPDEST PUSH1 0x0 DUP2 MLOAD DUP1 DUP5 MSTORE PUSH2 0xECD DUP2 PUSH1 0x20 DUP7 ADD PUSH1 0x20 DUP7 ADD PUSH2 0xE91 JUMP JUMPDEST PUSH1 0x1F ADD PUSH1 0x1F NOT AND SWAP3 SWAP1 SWAP3 ADD PUSH1 0x20 ADD SWAP3 SWAP2 POP POP JUMP JUMPDEST PUSH1 0x40 DUP2 MSTORE PUSH1 0x0 PUSH2 0xEF4 PUSH1 0x40 DUP4 ADD DUP6 PUSH2 0xEB5 JUMP JUMPDEST SWAP1 POP DUP3 PUSH1 0x20 DUP4 ADD MSTORE SWAP4 SWAP3 POP POP POP JUMP JUMPDEST PUSH1 0x0 PUSH1 0x20 DUP3 DUP5 SUB SLT ISZERO PUSH2 0xF15 JUMPI PUSH1 0x0 DUP1 REVERT JUMPDEST POP CALLDATALOAD SWAP2 SWAP1 POP JUMP JUMPDEST PUSH1 0x20 DUP2 MSTORE PUSH1 0x0 PUSH2 0x440 PUSH1 0x20 DUP4 ADD DUP5 PUSH2 0xEB5 JUMP JUMPDEST PUSH1 0x0 DUP1 PUSH1 0x0 DUP1 PUSH1 0x80 DUP6 DUP8 SUB SLT ISZERO PUSH2 0xF45 JUMPI PUSH1 0x0 DUP1 REVERT JUMPDEST POP POP DUP3 CALLDATALOAD SWAP5 PUSH1 0x20 DUP5 ADD CALLDATALOAD SWAP5 POP PUSH1 0x40 DUP5 ADD CALLDATALOAD SWAP4 PUSH1 0x60 ADD CALLDATALOAD SWAP3 POP SWAP1 POP JUMP JUMPDEST PUSH1 0x0 PUSH1 0x40 DUP3 ADD PUSH1 0x40 DUP4 MSTORE DUP1 DUP6 MLOAD DUP1 DUP4 MSTORE PUSH1 0x60 DUP6 ADD SWAP2 POP PUSH1 0x60 DUP2 PUSH1 0x5 SHL DUP7 ADD ADD SWAP3 POP PUSH1 0x20 DUP1 DUP9 ADD PUSH1 0x0 JUMPDEST DUP4 DUP2 LT ISZERO PUSH2 0xFB8 JUMPI PUSH1 0x5F NOT DUP9 DUP8 SUB ADD DUP6 MSTORE PUSH2 0xFA6 DUP7 DUP4 MLOAD PUSH2 0xEB5 JUMP JUMPDEST SWAP6 POP SWAP4 DUP3 ADD SWAP4 SWAP1 DUP3 ADD SWAP1 PUSH1 0x1 ADD PUSH2 0xF8A JUMP JUMPDEST POP POP DUP6 DUP5 SUB DUP2 DUP8 ADD MSTORE DUP7 MLOAD DUP1 DUP6 MSTORE DUP8 DUP3 ADD SWAP5 DUP3 ADD SWAP4 POP SWAP2 POP PUSH1 0x0 JUMPDEST DUP3 DUP2 LT ISZERO PUSH2 0xFEF JUMPI DUP5 MLOAD DUP5 MSTORE SWAP4 DUP2 ADD SWAP4 SWAP3 DUP2 ADD SWAP3 PUSH1 0x1 ADD PUSH2 0xFD3 JUMP JUMPDEST POP SWAP2 SWAP8 SWAP7 POP POP POP POP POP POP POP JUMP JUMPDEST DUP1 MLOAD DUP1 ISZERO ISZERO DUP2 EQ PUSH2 0x100C JUMPI PUSH1 0x0 DUP1 REVERT JUMPDEST SWAP2 SWAP1 POP JUMP JUMPDEST PUSH1 0x0 DUP1 PUSH1 0x40 DUP4 DUP6 SUB SLT ISZERO PUSH2 0x1024 JUMPI PUSH1 0x0 DUP1 REVERT JUMPDEST PUSH2 0x102D DUP4 PUSH2 0xFFC JUMP JUMPDEST SWAP2 POP PUSH1 0x20 DUP4 ADD MLOAD SWAP1 POP SWAP3 POP SWAP3 SWAP1 POP JUMP JUMPDEST PUSH1 0x0 PUSH1 0x20 DUP3 DUP5 SUB SLT ISZERO PUSH2 0x104F JUMPI PUSH1 0x0 DUP1 REVERT JUMPDEST PUSH2 0x440 DUP3 PUSH2 0xFFC JUMP JUMPDEST PUSH4 0x4E487B71 PUSH1 0xE0 SHL PUSH1 0x0 MSTORE PUSH1 0x11 PUSH1 0x4 MSTORE PUSH1 0x24 PUSH1 0x0 REVERT JUMPDEST DUP2 DUP2 SUB DUP2 DUP2 GT ISZERO PUSH2 0x443 JUMPI PUSH2 0x443 PUSH2 0x1058 JUMP JUMPDEST PUSH1 0x0 PUSH1 0x20 DUP3 DUP5 SUB SLT ISZERO PUSH2 0x1093 JUMPI PUSH1 0x0 DUP1 REVERT JUMPDEST POP MLOAD SWAP2 SWAP1 POP JUMP JUMPDEST PUSH4 0x4E487B71 PUSH1 0xE0 SHL PUSH1 0x0 MSTORE PUSH1 0x41 PUSH1 0x4 MSTORE PUSH1 0x24 PUSH1 0x0 REVERT JUMPDEST PUSH1 0x0 DUP3 PUSH1 0x1F DUP4 ADD SLT PUSH2 0x10C1 JUMPI PUSH1 0x0 DUP1 REVERT JUMPDEST DUP2 MLOAD PUSH8 0xFFFFFFFFFFFFFFFF DUP1 DUP3 GT ISZERO PUSH2 0x10DC JUMPI PUSH2 0x10DC PUSH2 0x109A JUMP JUMPDEST PUSH1 0x40 MLOAD PUSH1 0x1F DUP4 ADD PUSH1 0x1F NOT SWAP1 DUP2 AND PUSH1 0x3F ADD AND DUP2 ADD SWAP1 DUP3 DUP3 GT DUP2 DUP4 LT OR ISZERO PUSH2 0x1104 JUMPI PUSH2 0x1104 PUSH2 0x109A JUMP JUMPDEST DUP2 PUSH1 0x40 MSTORE DUP4 DUP2 MSTORE DUP7 PUSH1 0x20 DUP6 DUP9 ADD ADD GT ISZERO PUSH2 0x111D JUMPI PUSH1 0x0 DUP1 REVERT JUMPDEST PUSH2 0x112E DUP5 PUSH1 0x20 DUP4 ADD PUSH1 0x20 DUP10 ADD PUSH2 0xE91 JUMP JUMPDEST SWAP7 SWAP6 POP POP POP POP POP POP JUMP JUMPDEST PUSH1 0x0 DUP1 PUSH1 0x0 PUSH1 0x60 DUP5 DUP7 SUB SLT ISZERO PUSH2 0x114D JUMPI PUSH1 0x0 DUP1 REVERT JUMPDEST PUSH2 0x1156 DUP5 PUSH2 0xFFC JUMP JUMPDEST SWAP3 POP PUSH1 0x20 DUP5 ADD MLOAD PUSH8 0xFFFFFFFFFFFFFFFF DUP2 GT ISZERO PUSH2 0x1172 JUMPI PUSH1 0x0 DUP1 REVERT JUMPDEST PUSH2 0x117E DUP7 DUP3 DUP8 ADD PUSH2 0x10B0 JUMP JUMPDEST SWAP3 POP POP PUSH1 0x40 DUP5 ADD MLOAD SWAP1 POP SWAP3 POP SWAP3 POP SWAP3 JUMP JUMPDEST PUSH1 0x0 PUSH1 0x20 DUP3 DUP5 SUB SLT ISZERO PUSH2 0x11A1 JUMPI PUSH1 0x0 DUP1 REVERT JUMPDEST DUP2 MLOAD PUSH8 0xFFFFFFFFFFFFFFFF DUP2 GT ISZERO PUSH2 0x11B8 JUMPI PUSH1 0x0 DUP1 REVERT JUMPDEST PUSH2 0x5B2 DUP5 DUP3 DUP6 ADD PUSH2 0x10B0 JUMP JUMPDEST PUSH1 0x0 PUSH1 0x20 DUP3 DUP5 SUB SLT ISZERO PUSH2 0x11D6 JUMPI PUSH1 0x0 DUP1 REVERT JUMPDEST DUP2 MLOAD PUSH2 0xE68 DUP2 PUSH2 0xE33 JUMP JUMPDEST PUSH1 0x0 DUP2 PUSH2 0x11F0 JUMPI PUSH2 0x11F0 PUSH2 0x1058 JUMP JUMPDEST POP PUSH1 0x0 NOT ADD SWAP1 JUMP JUMPDEST DUP1 DUP3 ADD DUP1 DUP3 GT ISZERO PUSH2 0x443 JUMPI PUSH2 0x443 PUSH2 0x1058 JUMP JUMPDEST PUSH1 0x0 DUP3 PUSH2 0x1228 JUMPI PUSH4 0x4E487B71 PUSH1 0xE0 SHL PUSH1 0x0 MSTORE PUSH1 0x12 PUSH1 0x4 MSTORE PUSH1 0x24 PUSH1 0x0 REVERT JUMPDEST POP DIV SWAP1 JUMP JUMPDEST PUSH1 0x0 PUSH1 0x1 DUP3 ADD PUSH2 0x123F JUMPI PUSH2 0x123F PUSH2 0x1058 JUMP JUMPDEST POP PUSH1 0x1 ADD SWAP1 JUMP JUMPDEST PUSH4 0x4E487B71 PUSH1 0xE0 SHL PUSH1 0x0 MSTORE PUSH1 0x32 PUSH1 0x4 MSTORE PUSH1 0x24 PUSH1 0x0 REVERT JUMPDEST DUP1 DUP3 MUL DUP2 ISZERO DUP3 DUP3 DIV DUP5 EQ OR PUSH2 0x443 JUMPI PUSH2 0x443 PUSH2 0x1058 JUMP INVALID LOG2 PUSH5 0x6970667358 0x22 SLT KECCAK256 0xBD 0xD7 PUSH24 0xA69728F61E2D56A006133CAAF6D1098EA5E932CA56FCCF9A MULMOD 0xCE PUSH22 0x383464736F6C63430008110033000000000000000000 ","sha1":"1c58897b2db269efaa4143eede0bff3741bbc16a","source":"// SPDX-License-Identifier: LicenseRef-Gyro-1.0\n// for information on licensing please see the README in the GitHub repository <https://github.com/gyrostable/core-protocol>.\npragma solidity ^0.8.4;\n\nimport \"../../interfaces/oracles/IUSDPriceOracle.sol\";\nimport \"@usingtellor/contracts/UsingTellor.sol\";\n\nimport \"../../libraries/Errors.sol\";\n\ncontract TellorOracle is IUSDPriceOracle, UsingTellor {\n    address public immutable wethAddress;\n    bytes32 internal immutable queryId;\n    uint256 public immutable stalePriceDelay;\n\n    constructor(\n        address payable _tellorAddress,\n        address _wethAddress,\n        uint256 _stalePriceDelay\n    ) UsingTellor(_tellorAddress) {\n        wethAddress = _wethAddress;\n        bytes memory _queryData = abi.encode(\"SpotPrice\", abi.encode(\"eth\", \"usd\"));\n        queryId = keccak256(_queryData);\n        stalePriceDelay = _stalePriceDelay;\n    }\n\n    function getPriceUSD(address tokenAddress) external view returns (uint256) {\n        require(tokenAddress == wethAddress, Errors.ASSET_NOT_SUPPORTED);\n        (bytes memory _value, uint256 _timestampRetrieved) = getDataBefore(\n            queryId,\n            block.timestamp - 10 minutes\n        );\n        require(_timestampRetrieved > 0, Errors.STALE_PRICE);\n        require(block.timestamp - _timestampRetrieved < stalePriceDelay, Errors.STALE_PRICE);\n        return abi.decode(_value, (uint256));\n    }\n}\n","sourcePath":"contracts/oracles/TellorOracle.sol","type":"contract","deployment":{"address":"0xbC7168dA9ee565FA0becB5aec9400929dD3ac25D","chainid":"1","blockHeight":18533900}}