{"abi":[{"inputs":[{"internalType":"address","name":"_governor","type":"address"}],"stateMutability":"nonpayable","type":"constructor","name":"constructor"},{"anonymous":false,"inputs":[{"indexed":false,"internalType":"address","name":"newGovernor","type":"address"}],"name":"GovernorChangeRequested","type":"event"},{"anonymous":false,"inputs":[{"indexed":false,"internalType":"address","name":"oldGovernor","type":"address"},{"indexed":false,"internalType":"address","name":"newGovernor","type":"address"}],"name":"GovernorChanged","type":"event"},{"anonymous":false,"inputs":[{"indexed":true,"internalType":"address","name":"token","type":"address"},{"components":[{"internalType":"address","name":"underlying","type":"address"},{"internalType":"contract IRateProvider","name":"provider","type":"address"}],"indexed":false,"internalType":"struct IRateManager.RateProviderInfo","name":"providerInfo","type":"tuple"}],"name":"RateProviderChanged","type":"event"},{"inputs":[],"name":"acceptGovernance","outputs":[],"stateMutability":"nonpayable","type":"function"},{"inputs":[{"internalType":"address","name":"newGovernor","type":"address"}],"name":"changeGovernor","outputs":[],"stateMutability":"nonpayable","type":"function"},{"inputs":[{"internalType":"address","name":"token","type":"address"}],"name":"getProviderInfo","outputs":[{"components":[{"internalType":"address","name":"underlying","type":"address"},{"internalType":"contract IRateProvider","name":"provider","type":"address"}],"internalType":"struct IRateManager.RateProviderInfo","name":"","type":"tuple"}],"stateMutability":"view","type":"function"},{"inputs":[{"internalType":"address","name":"token","type":"address"}],"name":"getUnderlyingAndRate","outputs":[{"internalType":"address","name":"underlyingToken","type":"address"},{"internalType":"uint256","name":"rate","type":"uint256"}],"stateMutability":"view","type":"function"},{"inputs":[],"name":"governor","outputs":[{"internalType":"address","name":"","type":"address"}],"stateMutability":"view","type":"function"},{"inputs":[],"name":"pendingGovernor","outputs":[{"internalType":"address","name":"","type":"address"}],"stateMutability":"view","type":"function"},{"inputs":[{"internalType":"address","name":"token","type":"address"},{"components":[{"internalType":"address","name":"underlying","type":"address"},{"internalType":"contract IRateProvider","name":"provider","type":"address"}],"internalType":"struct IRateManager.RateProviderInfo","name":"providerInfo","type":"tuple"}],"name":"setRateProviderInfo","outputs":[],"stateMutability":"nonpayable","type":"function"}],"bytecode":"608060405234801561001057600080fd5b5060405161070338038061070383398101604081905261002f9161008f565b600080546001600160a01b0319166001600160a01b038316908117825560408051928352602083019190915282917fde4b3f61490b74c0ed6237523974fe299126bbbf8a8a7482fd220104c59b0c84910160405180910390a150506100bf565b6000602082840312156100a157600080fd5b81516001600160a01b03811681146100b857600080fd5b9392505050565b610635806100ce6000396000f3fe608060405234801561001057600080fd5b506004361061007d5760003560e01c80637583902f1161005b5780637583902f146100cf57806378412ceb1461014d578063e3056a341461017f578063e4c0aaf41461019257600080fd5b80630c340a2414610082578063238efcbc146100b25780636f9e8a8a146100bc575b600080fd5b600054610095906001600160a01b031681565b6040516001600160a01b0390911681526020015b60405180910390f35b6100ba6101a5565b005b6100ba6100ca3660046104de565b61025e565b6101266100dd366004610574565b604080518082018252600080825260209182018190526001600160a01b039384168152600282528290208251808401909352805484168352600101549092169181019190915290565b6040805182516001600160a01b0390811682526020938401511692810192909252016100a9565b61016061015b366004610574565b610330565b604080516001600160a01b0390931683526020830191909152016100a9565b600154610095906001600160a01b031681565b6100ba6101a0366004610574565b6103f1565b600154604080518082019091526002815261033360f41b6020820152906001600160a01b031633146101f35760405162461bcd60e51b81526004016101ea9190610598565b60405180910390fd5b5060008054600180546001600160a01b03198084166001600160a01b03808416919091179095551690556040805192909116808352336020840152917fde4b3f61490b74c0ed6237523974fe299126bbbf8a8a7482fd220104c59b0c8491015b60405180910390a150565b600054604080518082019091526002815261033360f41b6020820152906001600160a01b031633146102a35760405162461bcd60e51b81526004016101ea9190610598565b506001600160a01b03828116600081815260026020908152604091829020855181546001600160a01b03199081169187169182178355878401805160019094018054909216938816939093179055835190815290519094169084015290917f839ffd7889c8bc6224f31f240563efc261f43fcf0ddbac7e7487dd898c94a7b0910160405180910390a25050565b6001600160a01b0380821660009081526002602052604081206001015490918291168061036957509192670de0b6b3a764000092509050565b6001600160a01b038085166000908152600260209081526040918290205482516333cd77e760e11b815292519084169385169263679aefce9260048083019391928290030181865afa1580156103c3573d6000803e3d6000fd5b505050506040513d601f19601f820116820180604052508101906103e791906105e6565b9250925050915091565b600054604080518082019091526002815261033360f41b6020820152906001600160a01b031633146104365760405162461bcd60e51b81526004016101ea9190610598565b50604080518082019091526002815261333160f01b60208201526001600160a01b0382166104775760405162461bcd60e51b81526004016101ea9190610598565b50600180546001600160a01b0319166001600160a01b0383169081179091556040519081527f67235ba2e63c748a35b95c4f92a3bbc2a1389938170a5ce6c9add5d0b03a314a90602001610253565b6001600160a01b03811681146104db57600080fd5b50565b60008082840360608112156104f257600080fd5b83356104fd816104c6565b92506040601f198201121561051157600080fd5b506040516040810181811067ffffffffffffffff8211171561054357634e487b7160e01b600052604160045260246000fd5b6040526020840135610554816104c6565b81526040840135610564816104c6565b6020820152919491935090915050565b60006020828403121561058657600080fd5b8135610591816104c6565b9392505050565b600060208083528351808285015260005b818110156105c5578581018301518582016040015282016105a9565b506000604082860101526040601f19601f8301168501019250505092915050565b6000602082840312156105f857600080fd5b505191905056fea2646970667358221220cecee434afc063716c338d8cabfd1085c6ca045d0bd8596597b965ac259e489864736f6c63430008110033","bytecodeSha1":"bad11ad38563a925492a4a9b314d249b2e885d31","compiler":{"evm_version":"london","optimizer":{"enabled":true,"runs":200},"version":"0.8.17+commit.8df45f5f"},"contractName":"RateManager","language":"Solidity","natspec":{"kind":"dev","methods":{"acceptGovernance()":{"notice":"Called by the pending governor to approve the change"},"changeGovernor(address)":{"notice":"Changes the governor can only be called by the current governor"},"getProviderInfo(address)":{"returns":{"_0":"the info about the rate provider for the given token"}},"getUnderlyingAndRate(address)":{"details":"if the token does not have a rate, its address will be returned as-is and its rate will be 1e18","notice":"input token may have a rate such as sDAI or aUSDC, or be a \"normal\" token such as DAI or USDC","returns":{"rate":"the rate of the token","underlyingToken":"the \"underlying\" token, e.g. DAI instead of sDAI"}},"governor()":{"notice":"Returns the current governor"},"pendingGovernor()":{"notice":"Returns the pending governor"}},"version":1},"opcodes":"PUSH1 0x80 PUSH1 0x40 MSTORE CALLVALUE DUP1 ISZERO PUSH2 0x10 JUMPI PUSH1 0x0 DUP1 REVERT JUMPDEST POP PUSH1 0x4 CALLDATASIZE LT PUSH2 0x7D JUMPI PUSH1 0x0 CALLDATALOAD PUSH1 0xE0 SHR DUP1 PUSH4 0x7583902F GT PUSH2 0x5B JUMPI DUP1 PUSH4 0x7583902F EQ PUSH2 0xCF JUMPI DUP1 PUSH4 0x78412CEB EQ PUSH2 0x14D JUMPI DUP1 PUSH4 0xE3056A34 EQ PUSH2 0x17F JUMPI DUP1 PUSH4 0xE4C0AAF4 EQ PUSH2 0x192 JUMPI PUSH1 0x0 DUP1 REVERT JUMPDEST DUP1 PUSH4 0xC340A24 EQ PUSH2 0x82 JUMPI DUP1 PUSH4 0x238EFCBC EQ PUSH2 0xB2 JUMPI DUP1 PUSH4 0x6F9E8A8A EQ PUSH2 0xBC JUMPI JUMPDEST PUSH1 0x0 DUP1 REVERT JUMPDEST PUSH1 0x0 SLOAD PUSH2 0x95 SWAP1 PUSH1 0x1 PUSH1 0x1 PUSH1 0xA0 SHL SUB AND DUP2 JUMP JUMPDEST PUSH1 0x40 MLOAD PUSH1 0x1 PUSH1 0x1 PUSH1 0xA0 SHL SUB SWAP1 SWAP2 AND DUP2 MSTORE PUSH1 0x20 ADD JUMPDEST PUSH1 0x40 MLOAD DUP1 SWAP2 SUB SWAP1 RETURN JUMPDEST PUSH2 0xBA PUSH2 0x1A5 JUMP JUMPDEST STOP JUMPDEST PUSH2 0xBA PUSH2 0xCA CALLDATASIZE PUSH1 0x4 PUSH2 0x4DE JUMP JUMPDEST PUSH2 0x25E JUMP JUMPDEST PUSH2 0x126 PUSH2 0xDD CALLDATASIZE PUSH1 0x4 PUSH2 0x574 JUMP JUMPDEST PUSH1 0x40 DUP1 MLOAD DUP1 DUP3 ADD DUP3 MSTORE PUSH1 0x0 DUP1 DUP3 MSTORE PUSH1 0x20 SWAP2 DUP3 ADD DUP2 SWAP1 MSTORE PUSH1 0x1 PUSH1 0x1 PUSH1 0xA0 SHL SUB SWAP4 DUP5 AND DUP2 MSTORE PUSH1 0x2 DUP3 MSTORE DUP3 SWAP1 KECCAK256 DUP3 MLOAD DUP1 DUP5 ADD SWAP1 SWAP4 MSTORE DUP1 SLOAD DUP5 AND DUP4 MSTORE PUSH1 0x1 ADD SLOAD SWAP1 SWAP3 AND SWAP2 DUP2 ADD SWAP2 SWAP1 SWAP2 MSTORE SWAP1 JUMP JUMPDEST PUSH1 0x40 DUP1 MLOAD DUP3 MLOAD PUSH1 0x1 PUSH1 0x1 PUSH1 0xA0 SHL SUB SWAP1 DUP2 AND DUP3 MSTORE PUSH1 0x20 SWAP4 DUP5 ADD MLOAD AND SWAP3 DUP2 ADD SWAP3 SWAP1 SWAP3 MSTORE ADD PUSH2 0xA9 JUMP JUMPDEST PUSH2 0x160 PUSH2 0x15B CALLDATASIZE PUSH1 0x4 PUSH2 0x574 JUMP JUMPDEST PUSH2 0x330 JUMP JUMPDEST PUSH1 0x40 DUP1 MLOAD PUSH1 0x1 PUSH1 0x1 PUSH1 0xA0 SHL SUB SWAP1 SWAP4 AND DUP4 MSTORE PUSH1 0x20 DUP4 ADD SWAP2 SWAP1 SWAP2 MSTORE ADD PUSH2 0xA9 JUMP JUMPDEST PUSH1 0x1 SLOAD PUSH2 0x95 SWAP1 PUSH1 0x1 PUSH1 0x1 PUSH1 0xA0 SHL SUB AND DUP2 JUMP JUMPDEST PUSH2 0xBA PUSH2 0x1A0 CALLDATASIZE PUSH1 0x4 PUSH2 0x574 JUMP JUMPDEST PUSH2 0x3F1 JUMP JUMPDEST PUSH1 0x1 SLOAD PUSH1 0x40 DUP1 MLOAD DUP1 DUP3 ADD SWAP1 SWAP2 MSTORE PUSH1 0x2 DUP2 MSTORE PUSH2 0x333 PUSH1 0xF4 SHL PUSH1 0x20 DUP3 ADD MSTORE SWAP1 PUSH1 0x1 PUSH1 0x1 PUSH1 0xA0 SHL SUB AND CALLER EQ PUSH2 0x1F3 JUMPI PUSH1 0x40 MLOAD PUSH3 0x461BCD PUSH1 0xE5 SHL DUP2 MSTORE PUSH1 0x4 ADD PUSH2 0x1EA SWAP2 SWAP1 PUSH2 0x598 JUMP JUMPDEST PUSH1 0x40 MLOAD DUP1 SWAP2 SUB SWAP1 REVERT JUMPDEST POP PUSH1 0x0 DUP1 SLOAD PUSH1 0x1 DUP1 SLOAD PUSH1 0x1 PUSH1 0x1 PUSH1 0xA0 SHL SUB NOT DUP1 DUP5 AND PUSH1 0x1 PUSH1 0x1 PUSH1 0xA0 SHL SUB DUP1 DUP5 AND SWAP2 SWAP1 SWAP2 OR SWAP1 SWAP6 SSTORE AND SWAP1 SSTORE PUSH1 0x40 DUP1 MLOAD SWAP3 SWAP1 SWAP2 AND DUP1 DUP4 MSTORE CALLER PUSH1 0x20 DUP5 ADD MSTORE SWAP2 PUSH32 0xDE4B3F61490B74C0ED6237523974FE299126BBBF8A8A7482FD220104C59B0C84 SWAP2 ADD JUMPDEST PUSH1 0x40 MLOAD DUP1 SWAP2 SUB SWAP1 LOG1 POP JUMP JUMPDEST PUSH1 0x0 SLOAD PUSH1 0x40 DUP1 MLOAD DUP1 DUP3 ADD SWAP1 SWAP2 MSTORE PUSH1 0x2 DUP2 MSTORE PUSH2 0x333 PUSH1 0xF4 SHL PUSH1 0x20 DUP3 ADD MSTORE SWAP1 PUSH1 0x1 PUSH1 0x1 PUSH1 0xA0 SHL SUB AND CALLER EQ PUSH2 0x2A3 JUMPI PUSH1 0x40 MLOAD PUSH3 0x461BCD PUSH1 0xE5 SHL DUP2 MSTORE PUSH1 0x4 ADD PUSH2 0x1EA SWAP2 SWAP1 PUSH2 0x598 JUMP JUMPDEST POP PUSH1 0x1 PUSH1 0x1 PUSH1 0xA0 SHL SUB DUP3 DUP2 AND PUSH1 0x0 DUP2 DUP2 MSTORE PUSH1 0x2 PUSH1 0x20 SWAP1 DUP2 MSTORE PUSH1 0x40 SWAP2 DUP3 SWAP1 KECCAK256 DUP6 MLOAD DUP2 SLOAD PUSH1 0x1 PUSH1 0x1 PUSH1 0xA0 SHL SUB NOT SWAP1 DUP2 AND SWAP2 DUP8 AND SWAP2 DUP3 OR DUP4 SSTORE DUP8 DUP5 ADD DUP1 MLOAD PUSH1 0x1 SWAP1 SWAP5 ADD DUP1 SLOAD SWAP1 SWAP3 AND SWAP4 DUP9 AND SWAP4 SWAP1 SWAP4 OR SWAP1 SSTORE DUP4 MLOAD SWAP1 DUP2 MSTORE SWAP1 MLOAD SWAP1 SWAP5 AND SWAP1 DUP5 ADD MSTORE SWAP1 SWAP2 PUSH32 0x839FFD7889C8BC6224F31F240563EFC261F43FCF0DDBAC7E7487DD898C94A7B0 SWAP2 ADD PUSH1 0x40 MLOAD DUP1 SWAP2 SUB SWAP1 LOG2 POP POP JUMP JUMPDEST PUSH1 0x1 PUSH1 0x1 PUSH1 0xA0 SHL SUB DUP1 DUP3 AND PUSH1 0x0 SWAP1 DUP2 MSTORE PUSH1 0x2 PUSH1 0x20 MSTORE PUSH1 0x40 DUP2 KECCAK256 PUSH1 0x1 ADD SLOAD SWAP1 SWAP2 DUP3 SWAP2 AND DUP1 PUSH2 0x369 JUMPI POP SWAP2 SWAP3 PUSH8 0xDE0B6B3A7640000 SWAP3 POP SWAP1 POP JUMP JUMPDEST PUSH1 0x1 PUSH1 0x1 PUSH1 0xA0 SHL SUB DUP1 DUP6 AND PUSH1 0x0 SWAP1 DUP2 MSTORE PUSH1 0x2 PUSH1 0x20 SWAP1 DUP2 MSTORE PUSH1 0x40 SWAP2 DUP3 SWAP1 KECCAK256 SLOAD DUP3 MLOAD PUSH4 0x33CD77E7 PUSH1 0xE1 SHL DUP2 MSTORE SWAP3 MLOAD SWAP1 DUP5 AND SWAP4 DUP6 AND SWAP3 PUSH4 0x679AEFCE SWAP3 PUSH1 0x4 DUP1 DUP4 ADD SWAP4 SWAP2 SWAP3 DUP3 SWAP1 SUB ADD DUP2 DUP7 GAS STATICCALL ISZERO DUP1 ISZERO PUSH2 0x3C3 JUMPI RETURNDATASIZE PUSH1 0x0 DUP1 RETURNDATACOPY RETURNDATASIZE PUSH1 0x0 REVERT JUMPDEST POP POP POP POP PUSH1 0x40 MLOAD RETURNDATASIZE PUSH1 0x1F NOT PUSH1 0x1F DUP3 ADD AND DUP3 ADD DUP1 PUSH1 0x40 MSTORE POP DUP2 ADD SWAP1 PUSH2 0x3E7 SWAP2 SWAP1 PUSH2 0x5E6 JUMP JUMPDEST SWAP3 POP SWAP3 POP POP SWAP2 POP SWAP2 JUMP JUMPDEST PUSH1 0x0 SLOAD PUSH1 0x40 DUP1 MLOAD DUP1 DUP3 ADD SWAP1 SWAP2 MSTORE PUSH1 0x2 DUP2 MSTORE PUSH2 0x333 PUSH1 0xF4 SHL PUSH1 0x20 DUP3 ADD MSTORE SWAP1 PUSH1 0x1 PUSH1 0x1 PUSH1 0xA0 SHL SUB AND CALLER EQ PUSH2 0x436 JUMPI PUSH1 0x40 MLOAD PUSH3 0x461BCD PUSH1 0xE5 SHL DUP2 MSTORE PUSH1 0x4 ADD PUSH2 0x1EA SWAP2 SWAP1 PUSH2 0x598 JUMP JUMPDEST POP PUSH1 0x40 DUP1 MLOAD DUP1 DUP3 ADD SWAP1 SWAP2 MSTORE PUSH1 0x2 DUP2 MSTORE PUSH2 0x3331 PUSH1 0xF0 SHL PUSH1 0x20 DUP3 ADD MSTORE PUSH1 0x1 PUSH1 0x1 PUSH1 0xA0 SHL SUB DUP3 AND PUSH2 0x477 JUMPI PUSH1 0x40 MLOAD PUSH3 0x461BCD PUSH1 0xE5 SHL DUP2 MSTORE PUSH1 0x4 ADD PUSH2 0x1EA SWAP2 SWAP1 PUSH2 0x598 JUMP JUMPDEST POP PUSH1 0x1 DUP1 SLOAD PUSH1 0x1 PUSH1 0x1 PUSH1 0xA0 SHL SUB NOT AND PUSH1 0x1 PUSH1 0x1 PUSH1 0xA0 SHL SUB DUP4 AND SWAP1 DUP2 OR SWAP1 SWAP2 SSTORE PUSH1 0x40 MLOAD SWAP1 DUP2 MSTORE PUSH32 0x67235BA2E63C748A35B95C4F92A3BBC2A1389938170A5CE6C9ADD5D0B03A314A SWAP1 PUSH1 0x20 ADD PUSH2 0x253 JUMP JUMPDEST PUSH1 0x1 PUSH1 0x1 PUSH1 0xA0 SHL SUB DUP2 AND DUP2 EQ PUSH2 0x4DB JUMPI PUSH1 0x0 DUP1 REVERT JUMPDEST POP JUMP JUMPDEST PUSH1 0x0 DUP1 DUP3 DUP5 SUB PUSH1 0x60 DUP2 SLT ISZERO PUSH2 0x4F2 JUMPI PUSH1 0x0 DUP1 REVERT JUMPDEST DUP4 CALLDATALOAD PUSH2 0x4FD DUP2 PUSH2 0x4C6 JUMP JUMPDEST SWAP3 POP PUSH1 0x40 PUSH1 0x1F NOT DUP3 ADD SLT ISZERO PUSH2 0x511 JUMPI PUSH1 0x0 DUP1 REVERT JUMPDEST POP PUSH1 0x40 MLOAD PUSH1 0x40 DUP2 ADD DUP2 DUP2 LT PUSH8 0xFFFFFFFFFFFFFFFF DUP3 GT OR ISZERO PUSH2 0x543 JUMPI PUSH4 0x4E487B71 PUSH1 0xE0 SHL PUSH1 0x0 MSTORE PUSH1 0x41 PUSH1 0x4 MSTORE PUSH1 0x24 PUSH1 0x0 REVERT JUMPDEST PUSH1 0x40 MSTORE PUSH1 0x20 DUP5 ADD CALLDATALOAD PUSH2 0x554 DUP2 PUSH2 0x4C6 JUMP JUMPDEST DUP2 MSTORE PUSH1 0x40 DUP5 ADD CALLDATALOAD PUSH2 0x564 DUP2 PUSH2 0x4C6 JUMP JUMPDEST PUSH1 0x20 DUP3 ADD MSTORE SWAP2 SWAP5 SWAP2 SWAP4 POP SWAP1 SWAP2 POP POP JUMP JUMPDEST PUSH1 0x0 PUSH1 0x20 DUP3 DUP5 SUB SLT ISZERO PUSH2 0x586 JUMPI PUSH1 0x0 DUP1 REVERT JUMPDEST DUP2 CALLDATALOAD PUSH2 0x591 DUP2 PUSH2 0x4C6 JUMP JUMPDEST SWAP4 SWAP3 POP POP POP JUMP JUMPDEST PUSH1 0x0 PUSH1 0x20 DUP1 DUP4 MSTORE DUP4 MLOAD DUP1 DUP3 DUP6 ADD MSTORE PUSH1 0x0 JUMPDEST DUP2 DUP2 LT ISZERO PUSH2 0x5C5 JUMPI DUP6 DUP2 ADD DUP4 ADD MLOAD DUP6 DUP3 ADD PUSH1 0x40 ADD MSTORE DUP3 ADD PUSH2 0x5A9 JUMP JUMPDEST POP PUSH1 0x0 PUSH1 0x40 DUP3 DUP7 ADD ADD MSTORE PUSH1 0x40 PUSH1 0x1F NOT PUSH1 0x1F DUP4 ADD AND DUP6 ADD ADD SWAP3 POP POP POP SWAP3 SWAP2 POP POP JUMP JUMPDEST PUSH1 0x0 PUSH1 0x20 DUP3 DUP5 SUB SLT ISZERO PUSH2 0x5F8 JUMPI PUSH1 0x0 DUP1 REVERT JUMPDEST POP MLOAD SWAP2 SWAP1 POP JUMP INVALID LOG2 PUSH5 0x6970667358 0x22 SLT KECCAK256 0xCE 0xCE 0xE4 CALLVALUE 0xAF 0xC0 PUSH4 0x716C338D DUP13 0xAB REVERT LT DUP6 0xC6 0xCA DIV 0x5D SIGNEXTEND 0xD8 MSIZE PUSH6 0x97B965AC259E BASEFEE SWAP9 PUSH5 0x736F6C6343 STOP ADDMOD GT STOP CALLER ","sha1":"6b2d4557e2985db56037fa593a42e7a46141b2ad","source":"// SPDX-License-Identifier: LicenseRef-Gyro-1.0\n// for information on licensing please see the README in the GitHub repository <https://github.com/gyrostable/core-protocol>.\npragma solidity ^0.8.4;\n\nimport \"../auth/Governable.sol\";\nimport \"../../interfaces/oracles/IRateManager.sol\";\n\ncontract RateManager is IRateManager, Governable {\n    mapping(address => RateProviderInfo) internal _providers;\n\n    constructor(address _governor) Governable(_governor) {}\n\n    function getUnderlyingAndRate(address token)\n        external\n        view\n        override\n        returns (address underlyingToken, uint256 rate)\n    {\n        IRateProvider provider = _providers[token].provider;\n        if (address(provider) == address(0)) {\n            return (token, 1e18);\n        } else {\n            return (_providers[token].underlying, provider.getRate());\n        }\n    }\n\n    function getProviderInfo(address token)\n        external\n        view\n        override\n        returns (RateProviderInfo memory)\n    {\n        return _providers[token];\n    }\n\n    function setRateProviderInfo(address token, RateProviderInfo memory providerInfo)\n        external\n        governanceOnly\n    {\n        _providers[token] = providerInfo;\n        emit RateProviderChanged(token, providerInfo);\n    }\n}\n","sourcePath":"contracts/oracles/RateManager.sol","type":"contract","deployment":{"address":"0xdbc810d748f808967F34da2f37f116c58EC4eDA7","chainid":"1","blockHeight":18685319}}