{"abi":[{"inputs":[{"internalType":"contract ICToken","name":"_cToken","type":"address"}],"stateMutability":"nonpayable","type":"constructor","name":"constructor"},{"inputs":[],"name":"cToken","outputs":[{"internalType":"contract ICToken","name":"","type":"address"}],"stateMutability":"view","type":"function"},{"inputs":[],"name":"getRate","outputs":[{"internalType":"uint256","name":"","type":"uint256"}],"stateMutability":"view","type":"function"},{"inputs":[],"name":"rateDecimals","outputs":[{"internalType":"uint8","name":"","type":"uint8"}],"stateMutability":"view","type":"function"}],"bytecode":"60c060405234801561001057600080fd5b5060405161060d38038061060d83398101604081905261002f91610199565b6001600160a01b03811660808190526040805163313ce56760e01b8152905163313ce567916004808201926020929091908290030181865afa158015610079573d6000803e3d6000fd5b505050506040513d601f19601f8201168201806040525081019061009d91906101bd565b816001600160a01b0316636f307dc36040518163ffffffff1660e01b8152600401602060405180830381865afa1580156100db573d6000803e3d6000fd5b505050506040513d601f19601f820116820180604052508101906100ff9190610199565b6001600160a01b031663313ce5676040518163ffffffff1660e01b8152600401602060405180830381865afa15801561013c573d6000803e3d6000fd5b505050506040513d601f19601f8201168201806040525081019061016091906101bd565b61016b9060126101f6565b6101759190610215565b60ff1660a0525061022e565b6001600160a01b038116811461019657600080fd5b50565b6000602082840312156101ab57600080fd5b81516101b681610181565b9392505050565b6000602082840312156101cf57600080fd5b815160ff811681146101b657600080fd5b634e487b7160e01b600052601160045260246000fd5b60ff818116838216019081111561020f5761020f6101e0565b92915050565b60ff828116828216039081111561020f5761020f6101e0565b60805160a0516103af61025e60003960008181604b0152610166015260008181609f015260de01526103af6000f3fe608060405234801561001057600080fd5b50600436106100415760003560e01c80631a3480b514610046578063679aefce1461008457806369e527da1461009a575b600080fd5b61006d7f000000000000000000000000000000000000000000000000000000000000000081565b60405160ff90911681526020015b60405180910390f35b61008c6100d9565b60405190815260200161007b565b6100c17f000000000000000000000000000000000000000000000000000000000000000081565b6040516001600160a01b03909116815260200161007b565b6000807f00000000000000000000000000000000000000000000000000000000000000006001600160a01b031663182df0f56040518163ffffffff1660e01b8152600401602060405180830381865afa15801561013a573d6000803e3d6000fd5b505050506040513d601f19601f8201168201806040525081019061015e91906101fe565b905061018a817f0000000000000000000000000000000000000000000000000000000000000000610190565b91505090565b600060111960ff8316016101a55750816101f8565b601260ff831611156101d8576101bc60128361022d565b6101c790600a61032a565b6101d19084610340565b90506101f8565b6101e382601261022d565b6101ee90600a61032a565b6101d19084610362565b92915050565b60006020828403121561021057600080fd5b5051919050565b634e487b7160e01b600052601160045260246000fd5b60ff82811682821603908111156101f8576101f8610217565b600181815b8085111561028157816000190482111561026757610267610217565b8085161561027457918102915b93841c939080029061024b565b509250929050565b600082610298575060016101f8565b816102a5575060006101f8565b81600181146102bb57600281146102c5576102e1565b60019150506101f8565b60ff8411156102d6576102d6610217565b50506001821b6101f8565b5060208310610133831016604e8410600b8410161715610304575081810a6101f8565b61030e8383610246565b806000190482111561032257610322610217565b029392505050565b600061033960ff841683610289565b9392505050565b60008261035d57634e487b7160e01b600052601260045260246000fd5b500490565b80820281158282048414176101f8576101f861021756fea26469706673582212204c3aba0becfde1f13afbc46863485598ccdabbc96bb5ebe2d594592ef153921d64736f6c63430008110033","bytecodeSha1":"8d1d11a9556f5e3c5d0af7908f9c891856be5c45","compiler":{"evm_version":"london","optimizer":{"enabled":true,"runs":200},"version":"0.8.17+commit.8df45f5f"},"contractName":"CompoundV2RateProvider","language":"Solidity","natspec":{"kind":"dev","methods":{},"notice":"This is used for Compound V2 or Flux tokens","version":1},"opcodes":"PUSH1 0x80 PUSH1 0x40 MSTORE CALLVALUE DUP1 ISZERO PUSH2 0x10 JUMPI PUSH1 0x0 DUP1 REVERT JUMPDEST POP PUSH1 0x4 CALLDATASIZE LT PUSH2 0x41 JUMPI PUSH1 0x0 CALLDATALOAD PUSH1 0xE0 SHR DUP1 PUSH4 0x1A3480B5 EQ PUSH2 0x46 JUMPI DUP1 PUSH4 0x679AEFCE EQ PUSH2 0x84 JUMPI DUP1 PUSH4 0x69E527DA EQ PUSH2 0x9A JUMPI JUMPDEST PUSH1 0x0 DUP1 REVERT JUMPDEST PUSH2 0x6D PUSH32 0x0 DUP2 JUMP JUMPDEST PUSH1 0x40 MLOAD PUSH1 0xFF SWAP1 SWAP2 AND DUP2 MSTORE PUSH1 0x20 ADD JUMPDEST PUSH1 0x40 MLOAD DUP1 SWAP2 SUB SWAP1 RETURN JUMPDEST PUSH2 0x8C PUSH2 0xD9 JUMP JUMPDEST PUSH1 0x40 MLOAD SWAP1 DUP2 MSTORE PUSH1 0x20 ADD PUSH2 0x7B JUMP JUMPDEST PUSH2 0xC1 PUSH32 0x0 DUP2 JUMP JUMPDEST PUSH1 0x40 MLOAD PUSH1 0x1 PUSH1 0x1 PUSH1 0xA0 SHL SUB SWAP1 SWAP2 AND DUP2 MSTORE PUSH1 0x20 ADD PUSH2 0x7B JUMP JUMPDEST PUSH1 0x0 DUP1 PUSH32 0x0 PUSH1 0x1 PUSH1 0x1 PUSH1 0xA0 SHL SUB AND PUSH4 0x182DF0F5 PUSH1 0x40 MLOAD DUP2 PUSH4 0xFFFFFFFF AND PUSH1 0xE0 SHL DUP2 MSTORE PUSH1 0x4 ADD PUSH1 0x20 PUSH1 0x40 MLOAD DUP1 DUP4 SUB DUP2 DUP7 GAS STATICCALL ISZERO DUP1 ISZERO PUSH2 0x13A JUMPI RETURNDATASIZE PUSH1 0x0 DUP1 RETURNDATACOPY RETURNDATASIZE PUSH1 0x0 REVERT JUMPDEST POP POP POP POP PUSH1 0x40 MLOAD RETURNDATASIZE PUSH1 0x1F NOT PUSH1 0x1F DUP3 ADD AND DUP3 ADD DUP1 PUSH1 0x40 MSTORE POP DUP2 ADD SWAP1 PUSH2 0x15E SWAP2 SWAP1 PUSH2 0x1FE JUMP JUMPDEST SWAP1 POP PUSH2 0x18A DUP2 PUSH32 0x0 PUSH2 0x190 JUMP JUMPDEST SWAP2 POP POP SWAP1 JUMP JUMPDEST PUSH1 0x0 PUSH1 0x11 NOT PUSH1 0xFF DUP4 AND ADD PUSH2 0x1A5 JUMPI POP DUP2 PUSH2 0x1F8 JUMP JUMPDEST PUSH1 0x12 PUSH1 0xFF DUP4 AND GT ISZERO PUSH2 0x1D8 JUMPI PUSH2 0x1BC PUSH1 0x12 DUP4 PUSH2 0x22D JUMP JUMPDEST PUSH2 0x1C7 SWAP1 PUSH1 0xA PUSH2 0x32A JUMP JUMPDEST PUSH2 0x1D1 SWAP1 DUP5 PUSH2 0x340 JUMP JUMPDEST SWAP1 POP PUSH2 0x1F8 JUMP JUMPDEST PUSH2 0x1E3 DUP3 PUSH1 0x12 PUSH2 0x22D JUMP JUMPDEST PUSH2 0x1EE SWAP1 PUSH1 0xA PUSH2 0x32A JUMP JUMPDEST PUSH2 0x1D1 SWAP1 DUP5 PUSH2 0x362 JUMP JUMPDEST SWAP3 SWAP2 POP POP JUMP JUMPDEST PUSH1 0x0 PUSH1 0x20 DUP3 DUP5 SUB SLT ISZERO PUSH2 0x210 JUMPI PUSH1 0x0 DUP1 REVERT JUMPDEST POP MLOAD SWAP2 SWAP1 POP JUMP JUMPDEST PUSH4 0x4E487B71 PUSH1 0xE0 SHL PUSH1 0x0 MSTORE PUSH1 0x11 PUSH1 0x4 MSTORE PUSH1 0x24 PUSH1 0x0 REVERT JUMPDEST PUSH1 0xFF DUP3 DUP2 AND DUP3 DUP3 AND SUB SWAP1 DUP2 GT ISZERO PUSH2 0x1F8 JUMPI PUSH2 0x1F8 PUSH2 0x217 JUMP JUMPDEST PUSH1 0x1 DUP2 DUP2 JUMPDEST DUP1 DUP6 GT ISZERO PUSH2 0x281 JUMPI DUP2 PUSH1 0x0 NOT DIV DUP3 GT ISZERO PUSH2 0x267 JUMPI PUSH2 0x267 PUSH2 0x217 JUMP JUMPDEST DUP1 DUP6 AND ISZERO PUSH2 0x274 JUMPI SWAP2 DUP2 MUL SWAP2 JUMPDEST SWAP4 DUP5 SHR SWAP4 SWAP1 DUP1 MUL SWAP1 PUSH2 0x24B JUMP JUMPDEST POP SWAP3 POP SWAP3 SWAP1 POP JUMP JUMPDEST PUSH1 0x0 DUP3 PUSH2 0x298 JUMPI POP PUSH1 0x1 PUSH2 0x1F8 JUMP JUMPDEST DUP2 PUSH2 0x2A5 JUMPI POP PUSH1 0x0 PUSH2 0x1F8 JUMP JUMPDEST DUP2 PUSH1 0x1 DUP2 EQ PUSH2 0x2BB JUMPI PUSH1 0x2 DUP2 EQ PUSH2 0x2C5 JUMPI PUSH2 0x2E1 JUMP JUMPDEST PUSH1 0x1 SWAP2 POP POP PUSH2 0x1F8 JUMP JUMPDEST PUSH1 0xFF DUP5 GT ISZERO PUSH2 0x2D6 JUMPI PUSH2 0x2D6 PUSH2 0x217 JUMP JUMPDEST POP POP PUSH1 0x1 DUP3 SHL PUSH2 0x1F8 JUMP JUMPDEST POP PUSH1 0x20 DUP4 LT PUSH2 0x133 DUP4 LT AND PUSH1 0x4E DUP5 LT PUSH1 0xB DUP5 LT AND OR ISZERO PUSH2 0x304 JUMPI POP DUP2 DUP2 EXP PUSH2 0x1F8 JUMP JUMPDEST PUSH2 0x30E DUP4 DUP4 PUSH2 0x246 JUMP JUMPDEST DUP1 PUSH1 0x0 NOT DIV DUP3 GT ISZERO PUSH2 0x322 JUMPI PUSH2 0x322 PUSH2 0x217 JUMP JUMPDEST MUL SWAP4 SWAP3 POP POP POP JUMP JUMPDEST PUSH1 0x0 PUSH2 0x339 PUSH1 0xFF DUP5 AND DUP4 PUSH2 0x289 JUMP JUMPDEST SWAP4 SWAP3 POP POP POP JUMP JUMPDEST PUSH1 0x0 DUP3 PUSH2 0x35D JUMPI PUSH4 0x4E487B71 PUSH1 0xE0 SHL PUSH1 0x0 MSTORE PUSH1 0x12 PUSH1 0x4 MSTORE PUSH1 0x24 PUSH1 0x0 REVERT JUMPDEST POP DIV SWAP1 JUMP JUMPDEST DUP1 DUP3 MUL DUP2 ISZERO DUP3 DUP3 DIV DUP5 EQ OR PUSH2 0x1F8 JUMPI PUSH2 0x1F8 PUSH2 0x217 JUMP INVALID LOG2 PUSH5 0x6970667358 0x22 SLT KECCAK256 0x4C GASPRICE 0xBA SIGNEXTEND 0xEC REVERT 0xE1 CALL GASPRICE 0xFB 0xC4 PUSH9 0x63485598CCDABBC96B 0xB5 0xEB 0xE2 0xD5 SWAP5 MSIZE 0x2E CALL MSTORE8 SWAP3 SAR PUSH5 0x736F6C6343 STOP ADDMOD GT STOP CALLER ","sha1":"83e7b78742e754f19973379d147ed7d4de5729e5","source":"// SPDX-License-Identifier: LicenseRef-Gyro-1.0\n// for information on licensing please see the README in the GitHub repository <https://github.com/gyrostable/core-protocol>.\npragma solidity ^0.8.4;\n\nimport \"@openzeppelin/contracts/token/ERC20/extensions/IERC20Metadata.sol\";\n\nimport \"../../libraries/DecimalScale.sol\";\nimport \"../../interfaces/oracles/IRateProvider.sol\";\n\ninterface ICToken {\n    function underlying() external view returns (address);\n\n    function exchangeRateStored() external view returns (uint256);\n\n    function decimals() external view returns (uint8);\n}\n\n/// @notice This is used for Compound V2 or Flux tokens\ncontract CompoundV2RateProvider is IRateProvider {\n    using DecimalScale for uint256;\n\n    ICToken public immutable cToken;\n    uint8 public immutable rateDecimals;\n\n    constructor(ICToken _cToken) {\n        cToken = _cToken;\n        rateDecimals = 18 + IERC20Metadata(_cToken.underlying()).decimals() - _cToken.decimals();\n    }\n\n    function getRate() external view override returns (uint256) {\n        uint256 exchangeRate = cToken.exchangeRateStored();\n        return exchangeRate.scaleFrom(rateDecimals);\n    }\n}\n","sourcePath":"contracts/oracles/CompoundV2RateProvider.sol","type":"contract","deployment":{"address":"0xE08407336B6D9878c9561FcE6052a0404D1Ec143","chainid":"1","blockHeight":18578165}}