{"abi":[{"inputs":[{"internalType":"address","name":"_governor","type":"address"},{"internalType":"address","name":"_gyroConfig","type":"address"},{"components":[{"internalType":"uint64","name":"alphaBar","type":"uint64"},{"internalType":"uint64","name":"xuBar","type":"uint64"},{"internalType":"uint64","name":"thetaBar","type":"uint64"},{"internalType":"uint64","name":"outflowMemory","type":"uint64"}],"internalType":"struct IPAMM.Params","name":"params","type":"tuple"}],"stateMutability":"nonpayable","type":"constructor","name":"constructor"},{"anonymous":false,"inputs":[{"indexed":false,"internalType":"address","name":"newGovernor","type":"address"}],"name":"GovernorChangeRequested","type":"event"},{"anonymous":false,"inputs":[{"indexed":false,"internalType":"address","name":"oldGovernor","type":"address"},{"indexed":false,"internalType":"address","name":"newGovernor","type":"address"}],"name":"GovernorChanged","type":"event"},{"anonymous":false,"inputs":[{"indexed":false,"internalType":"uint64","name":"alphaBar","type":"uint64"},{"indexed":false,"internalType":"uint64","name":"xuBar","type":"uint64"},{"indexed":false,"internalType":"uint64","name":"thetaBar","type":"uint64"},{"indexed":false,"internalType":"uint64","name":"outflowMemory","type":"uint64"}],"name":"SystemParamsUpdated","type":"event"},{"inputs":[],"name":"acceptGovernance","outputs":[],"stateMutability":"nonpayable","type":"function"},{"inputs":[{"internalType":"address","name":"newGovernor","type":"address"}],"name":"changeGovernor","outputs":[],"stateMutability":"nonpayable","type":"function"},{"inputs":[{"internalType":"uint256","name":"usdAmount","type":"uint256"},{"internalType":"uint256","name":"","type":"uint256"}],"name":"computeMintAmount","outputs":[{"internalType":"uint256","name":"","type":"uint256"}],"stateMutability":"pure","type":"function"},{"inputs":[{"internalType":"uint256","name":"gydAmount","type":"uint256"},{"internalType":"uint256","name":"reserveUSDValue","type":"uint256"}],"name":"computeRedeemAmount","outputs":[{"internalType":"uint256","name":"","type":"uint256"}],"stateMutability":"view","type":"function"},{"inputs":[{"internalType":"uint256","name":"reserveUSDValue","type":"uint256"}],"name":"getNormalizedAnchoredReserveValue","outputs":[{"internalType":"uint256","name":"","type":"uint256"}],"stateMutability":"view","type":"function"},{"inputs":[{"internalType":"uint256","name":"reserveUSDValue","type":"uint256"},{"internalType":"uint256","name":"_redemptionLevel","type":"uint256"},{"internalType":"uint256","name":"totalGyroSupply","type":"uint256"}],"name":"getNormalizedAnchoredReserveValueAtState","outputs":[{"internalType":"uint256","name":"","type":"uint256"}],"stateMutability":"view","type":"function"},{"inputs":[],"name":"getRedemptionLevel","outputs":[{"internalType":"uint256","name":"","type":"uint256"}],"stateMutability":"view","type":"function"},{"inputs":[],"name":"governor","outputs":[{"internalType":"address","name":"","type":"address"}],"stateMutability":"view","type":"function"},{"inputs":[],"name":"gyroConfig","outputs":[{"internalType":"contract IGyroConfig","name":"","type":"address"}],"stateMutability":"view","type":"function"},{"inputs":[],"name":"lastRedemptionBlock","outputs":[{"internalType":"uint256","name":"","type":"uint256"}],"stateMutability":"view","type":"function"},{"inputs":[{"internalType":"uint256","name":"usdAmount","type":"uint256"},{"internalType":"uint256","name":"","type":"uint256"}],"name":"mint","outputs":[{"internalType":"uint256","name":"","type":"uint256"}],"stateMutability":"view","type":"function"},{"inputs":[],"name":"pendingGovernor","outputs":[{"internalType":"address","name":"","type":"address"}],"stateMutability":"view","type":"function"},{"inputs":[{"internalType":"uint256","name":"gydAmount","type":"uint256"},{"internalType":"uint256","name":"reserveUSDValue","type":"uint256"}],"name":"redeem","outputs":[{"internalType":"uint256","name":"","type":"uint256"}],"stateMutability":"nonpayable","type":"function"},{"inputs":[],"name":"redemptionLevel","outputs":[{"internalType":"uint256","name":"","type":"uint256"}],"stateMutability":"view","type":"function"},{"inputs":[{"components":[{"internalType":"uint64","name":"alphaBar","type":"uint64"},{"internalType":"uint64","name":"xuBar","type":"uint64"},{"internalType":"uint64","name":"thetaBar","type":"uint64"},{"internalType":"uint64","name":"outflowMemory","type":"uint64"}],"internalType":"struct IPAMM.Params","name":"params","type":"tuple"}],"name":"setSystemParams","outputs":[],"stateMutability":"nonpayable","type":"function"},{"inputs":[],"name":"systemParams","outputs":[{"components":[{"internalType":"uint64","name":"alphaBar","type":"uint64"},{"internalType":"uint64","name":"xuBar","type":"uint64"},{"internalType":"uint64","name":"thetaBar","type":"uint64"},{"internalType":"uint64","name":"outflowMemory","type":"uint64"}],"internalType":"struct IPAMM.Params","name":"","type":"tuple"}],"stateMutability":"view","type":"function"}],"bytecode":"60a06040523480156200001157600080fd5b50604051620030c5380380620030c5833981016040819052620000349162000197565b600080546001600160a01b0319166001600160a01b038516908117825560408051928352602083019190915284917fde4b3f61490b74c0ed6237523974fe299126bbbf8a8a7482fd220104c59b0c84910160405180910390a150604080518082019091526002815261333160f01b60208201526001600160a01b038316620000da5760405162461bcd60e51b8152600401620000d1919062000269565b60405180910390fd5b506001600160a01b03909116608052805160028054602084015160408501516060909501516001600160401b03908116600160c01b026001600160c01b03968216600160801b02969096166001600160801b0392821668010000000000000000026001600160801b0319909416919095161791909117169190911791909117905550620002b9565b80516001600160a01b03811681146200017a57600080fd5b919050565b80516001600160401b03811681146200017a57600080fd5b600080600083850360c0811215620001ae57600080fd5b620001b98562000162565b9350620001c96020860162000162565b92506080603f1982011215620001de57600080fd5b50604051608081016001600160401b03811182821017156200021057634e487b7160e01b600052604160045260246000fd5b806040525062000223604086016200017f565b815262000233606086016200017f565b602082015262000246608086016200017f565b60408201526200025960a086016200017f565b6060820152809150509250925092565b600060208083528351808285015260005b8181101562000298578581018301518582016040015282016200027a565b506000604082860101526040601f19601f8301168501019250505092915050565b608051612dd4620002f160003960008181610194015281816103250152818161055601528181610f5901526115560152612dd46000f3fe608060405234801561001057600080fd5b50600436106101005760003560e01c80635baaeaab11610097578063946347051161006657806394634705146102ac5780639e590854146102b4578063e3056a34146102c7578063e4c0aaf4146102da57600080fd5b80635baaeaab1461026b578063616a1ed91461027457806371db63ec146102865780637cbc23731461029957600080fd5b806330a5204a116100d357806330a5204a14610173578063362141441461018657806344bbdb551461018f578063458e8e6b146101b657600080fd5b80630c340a241461010557806313e23f84146101355780631b2ef1ca14610156578063238efcbc14610169575b600080fd5b600054610118906001600160a01b031681565b6040516001600160a01b0390911681526020015b60405180910390f35b610148610143366004612a3e565b6102ed565b60405190815260200161012c565b610148610164366004612a6a565b61031e565b6101716103b3565b005b610148610181366004612a8c565b610463565b61014860045481565b6101187f000000000000000000000000000000000000000000000000000000000000000081565b61022860408051608081018252600080825260208201819052918101829052606081019190915250604080516080810182526002546001600160401b038082168352600160401b820481166020840152600160801b8204811693830193909352600160c01b9004909116606082015290565b60405161012c919081516001600160401b039081168252602080840151821690830152604080840151821690830152606092830151169181019190915260800190565b61014860035481565b610148610282366004612a6a565b5090565b610148610294366004612a6a565b6104c5565b6101486102a7366004612a6a565b61054f565b610148610672565b6101716102c2366004612ac1565b6106a1565b600154610118906001600160a01b031681565b6101716102e8366004612b63565b6107da565b6040805160608101825283815260208101859052908101829052600090610313816108af565b9150505b9392505050565b60006103527f00000000000000000000000000000000000000000000000000000000000000006001600160a01b0316610a12565b6001600160a01b0316336001600160a01b03161460405180604001604052806002815260200161033360f41b815250906103a85760405162461bcd60e51b815260040161039f9190612b80565b60405180910390fd5b508290505b92915050565b600154604080518082019091526002815261033360f41b6020820152906001600160a01b031633146103f85760405162461bcd60e51b815260040161039f9190612b80565b5060008054600180546001600160a01b03198084166001600160a01b03808416919091179095551690556040805192909116808352336020840152917fde4b3f61490b74c0ed6237523974fe299126bbbf8a8a7482fd220104c59b0c8491015b60405180910390a150565b604080516080810182526002546001600160401b038082168352600160401b820481166020840152600160801b8204811693830193909352600160c01b9004909116606082015260009081906104ba908490610a93565b9050610317816108af565b6000826000036104d7575060006103ad565b604080516080810182526002546001600160401b038082168352600160401b820481166020840152600160801b8204811693830193909352600160c01b90049091166060820152600061052982610afb565b905060006105378584610a93565b905061054581848489610d1f565b9695505050505050565b60006105837f00000000000000000000000000000000000000000000000000000000000000006001600160a01b0316610a12565b6001600160a01b0316336001600160a01b03161460405180604001604052806002815260200161033360f41b815250906105d05760405162461bcd60e51b815260040161039f9190612b80565b50826000036105e1575060006103ad565b604080516080810182526002546001600160401b038082168352600160401b820481166020840152600160801b8204811693830193909352600160c01b9004909116606082015260006106348483610a93565b9050600061064183610afb565b905060006106518385848a610d1f565b8351909150610661908890612be4565b600355436004559695505050505050565b60035460045460025460009261069c929091439190600160c01b90046001600160401b0316610e9e565b905090565b600054604080518082019091526002815261033360f41b6020820152906001600160a01b031633146106e65760405162461bcd60e51b815260040161039f9190612b80565b508051600280546020840151604085015160608601516001600160401b03908116600160c01b026001600160c01b03928216600160801b02929092166fffffffffffffffffffffffffffffffff938216600160401b026fffffffffffffffffffffffffffffffff19909516919096161792909217169290921791909117905561076e81610afb565b507f4c76fdbdf1d037612da5c0dce3f84fb05d29652b0dbc2d66501d683d3df4df88816000015182602001518360400151846060015160405161045894939291906001600160401b03948516815292841660208401529083166040830152909116606082015260800190565b600054604080518082019091526002815261033360f41b6020820152906001600160a01b0316331461081f5760405162461bcd60e51b815260040161039f9190612b80565b50604080518082019091526002815261333160f01b60208201526001600160a01b0382166108605760405162461bcd60e51b815260040161039f9190612b80565b50600180546001600160a01b0319166001600160a01b0383169081179091556040519081527f67235ba2e63c748a35b95c4f92a3bbc2a1389938170a5ce6c9add5d0b03a314a90602001610458565b604080516080810182526002546001600160401b038082168352600160401b82048116602080850191909152600160801b8304821684860152600160c01b9092041660608301528301519183015160009261090991610f1f565b60208401528251604084015160009161092191612be4565b90506000604051806060016040528061094784886000015161101590919063ffffffff16565b815260200161096384886020015161101590919063ffffffff16565b815260200161097f84886040015161101590919063ffffffff16565b90526040810151602082015191925060009161099a91611015565b9050670de0b6b3a764000081106109be5750670de0b6b3a764000095945050505050565b83604001516001600160401b031681116109fa5760006109ef8760400151886020015161101590919063ffffffff16565b979650505050505050565b6000610a0585610afb565b90506109ef838683611088565b6040516321f8a72160e01b8152724d4f54484552424f4152445f4144445245535360681b60048201526000906001600160a01b038316906321f8a72190602401602060405180830381865afa158015610a6f573d6000803e3d6000fd5b505050506040513d601f19601f820116820180604052508101906103ad9190612bf7565b610ab760405180606001604052806000815260200160008152602001600081525090565b6040518060600160405280610adf6003544360045487606001516001600160401b0316610e9e565b8152602001848152602001610af261154f565b90529392505050565b610b3b6040518060e00160405280600081526020016000815260200160008152602001600081526020016000815260200160008152602001600081525090565b610b7b6040518060e00160405280600081526020016000815260200160008152602001600081526020016000815260200160008152602001600081525090565b610b9283602001516001600160401b0316846115e4565b8152610b9f6000846115e4565b816020018181525050610bda8160000151670de0b6b3a764000085600001516001600160401b031686602001516001600160401b0316611732565b604082015260208101518351610c059190670de0b6b3a7640000906001600160401b03166000611732565b60608201526040830151600090610c2d906001600160401b0316670de0b6b3a7640000612c14565b8451909150600090610c49906001600160401b03166002612c27565b610c54600284612d22565b610c5e9190612d47565b905080670de0b6b3a76400001015610c77576000610c89565b610c8981670de0b6b3a7640000612c14565b6080840181905283511190508015610ca8575081602001518260800151115b15610ce657610ce08260800151670de0b6b3a764000086600001516001600160401b031687602001516001600160401b0316856117da565b60c08301525b600284604001516001600160401b0316670de0b6b3a7640000610d099190612be4565b610d139190612d47565b60a08301525092915050565b6000610d4560405180606001604052806000815260200160008152602001600081525090565b85516040870151600091610d5891612be4565b9050610d6c87602001518860400151610f1f565b60208801528651610d7d9082611015565b82526020870151610d8e9082611015565b60208301526040870151610da29082611015565b604083018190526020830151600091610dbb9190611015565b9050670de0b6b3a76400008110610dd757849350505050610e96565b86604001516001600160401b03168111610e1f576000610e0889604001518a6020015161101590919063ffffffff16565b9050610e1481876118d9565b945050505050610e96565b6000610e2c848989611088565b90506000610e3a82856118d9565b90506000610e59888c60000151610e519190612be4565b83878d6118fa565b90506000818c60200151610e6d9190612c14565b905088811115610e7a5750875b8b60400151811115610e8d575060408b01515b96505050505050505b949350505050565b600083831480610eac575084155b15610eb8575083610e96565b83831015610eef576000610ecc8486612c14565b90506000610eda848361198d565b9050610ee687826118d9565b92505050610e96565b6040805180820182526002815261333160f01b6020820152905162461bcd60e51b815261039f9190600401612b80565b60405163bd02d0f560e01b81527452454445454d5f444953434f554e545f524154494f60581b600482015260009081906001600160a01b037f0000000000000000000000000000000000000000000000000000000000000000169063bd02d0f590602401602060405180830381865afa158015610fa0573d6000803e3d6000fd5b505050506040513d601f19601f82011682018060405250810190610fc49190612d5b565b9050610fd081846118d9565b610fdb906002612c27565b84111561100d576000610fee82856118d9565b610ff89086612c14565b905061100481856119dc565b925050506103ad565b509192915050565b604080518082019091526002815261323560f01b60208201526000908261104f5760405162461bcd60e51b815260040161039f9190612b80565b5082600003611060575060006103ad565b6000611074670de0b6b3a764000085612c27565b90506110808382612d47565b9150506103ad565b60006110926129fe565b600061109f8686866119f2565b670de0b6b3a76400008352604087015160208801519192506110c19190611015565b602083018190526110da90670de0b6b3a7640000612c14565b606083015260408501516110ff906001600160401b0316670de0b6b3a7640000612c14565b6080830152600081600681111561111857611118612d74565b03611137578551602087015161112e9190612be4565b92505050610317565b600181600681111561114b5761114b612d74565b036111c757600085602001516001600160401b0316876000015161116f9190612c14565b9050671bc16d674ec8000061118382611bf6565b875161119891906001600160401b0316612c27565b6111a29190612d47565b875160208901516111b39190612be4565b6111bd9190612c14565b9350505050610317565b60028160068111156111db576111db612d74565b036112525784516111f6906001600160401b03166002612c27565b600283606001516112079190612d22565b6112119190612d47565b61123c836060015187602001516001600160401b031685600001516112369190612c14565b906118d9565b83516112489190612c14565b61112e9190612be4565b600381600681111561126657611266612d74565b036112e1576000671bc16d674ec800006112b26002896040015161128a9190612d47565b885160608701516112a3916001600160401b0316611015565b6112ad9190612be4565b611bf6565b87516112c791906001600160401b0316612c27565b6112d19190612d47565b83519091506111bd908290612c14565b60048160068111156112f5576112f5612d74565b036113dc576000611341876040015161132c88600001516001600160401b031660026113219190612c27565b608087015190611015565b6113369190612be4565b6080850151906118d9565b905060006113a461136c88604001516001600160401b03168a604001516118d990919063ffffffff16565b896020015161137b9190612c14565b88600001516001600160401b03166002876080015161139a9190612d22565b6112369190612d47565b6113af906002612c27565b9050816113bb82611c02565b85516113c79190612be4565b6113d19190612c14565b945050505050610317565b60058160068111156113f0576113f0612d74565b036114335760006112d16114078860000151611bf6565b61141990670de0b6b3a7640000612c14565b8860200151896040015161142d9190612c14565b90611015565b600681600681111561144757611447612d74565b0361151657600060028360800151886020015189604001516114699190612c14565b6114739190612be4565b61147d9190612d47565b9050600060046114a06114938a60000151611bf6565b6112368760800151611bf6565b6114aa9190612d47565b6114c685608001518a602001518b604001516112369190612c14565b6114d09190612be4565b905060006114f0826114e185611bf6565b6114eb9190612c14565b611c02565b6114fa9084612c14565b855190915061150a908290612c14565b95505050505050610317565b60405162461bcd60e51b815260206004820152600e60248201526d3ab735b737bbb7103932b3b4b7b760911b604482015260640161039f565b60006115837f00000000000000000000000000000000000000000000000000000000000000006001600160a01b0316610a12565b6001600160a01b031663c1bd8cf96040518163ffffffff1660e01b8152600401602060405180830381865afa1580156115c0573d6000803e3d6000fd5b505050506040513d601f19601f8201168201806040525081019061069c9190612d5b565b600082670de0b6b3a7640000101561163e5760405162461bcd60e51b815260206004820152601a60248201527f7961206d7573742062652067726561746572207468616e207875000000000000604482015260640161039f565b81516001600160401b0316600061165d85670de0b6b3a7640000612c14565b905061166982826118d9565b84604001516001600160401b03166116819190612be4565b670de0b6b3a7640000106116c757671bc16d674ec800006116a182611bf6565b6116ab9084612c27565b6116b59190612d47565b61100490670de0b6b3a7640000612c14565b600084604001516001600160401b0316670de0b6b3a76400006116ea9190612c14565b90506116f7836002612c27565b611702600283612d22565b61170c9190612d47565b61171682846118d9565b61172890670de0b6b3a7640000612c14565b6105459190612be4565b600083851060405180604001604052806002815260200161333160f01b815250906117705760405162461bcd60e51b815260040161039f9190612b80565b5060006117856117808487612c14565b611c20565b90506000846117948888612c14565b6117a690671bc16d674ec80000612c27565b6117b09190612d47565b90508082106117d0576117c66114eb8284612c14565b610ee69087612c14565b8592505050610e96565b6000806117e78787612c14565b905060006117f585886118d9565b90506000671bc16d674ec8000061180d600287612d22565b6118179190612d47565b61182188856118d9565b116118775760008761183b85671bc16d674ec80000612c27565b6118459190612d47565b9050600061185282611c02565b90508981101561186b57611866818b612c14565b61186e565b60005b925050506118c2565b600061188e611887896002612c27565b8790611015565b6118988588611015565b6118a29190612be4565b9050888110156118bb576118b6818a612c14565b6118be565b60005b9150505b6118cc81836119dc565b9998505050505050505050565b6000806118e68385612c27565b9050610e96670de0b6b3a764000082612d47565b600080611923858585604001516001600160401b031686600001516001600160401b0316611c2c565b9050600061196186868487602001516001600160401b031688604001516001600160401b0316670de0b6b3a764000061195c9190612c14565b6117da565b9050600061197187878585611732565b9050611981888888868686611cfc565b98975050505050505050565b6000670de0b6b3a76400005b8215610317576119aa600284612d8a565b6001036119be576119bb81856118d9565b90505b6119c9600284612d47565b92506119d584856118d9565b9350611999565b60008183106119eb5781610317565b5090919050565b60006119ff848484611e0c565b15611a9c5782602001516001600160401b0316846000015111611a2457506000610317565b6000611a5784602001516001600160401b03168660000151611a469190612c14565b85516001600160401b0316906118d9565b60408601516020870151611a6a91611015565b611a749190612be4565b9050670de0b6b3a7640000808211611a9157600192505050610317565b600292505050610317565b611ab48484600001516001600160401b031684611e5a565b15611bd457611ad18484600001516001600160401b031684611e7f565b15611b3757671bc16d674ec8000083600001516001600160401b0316611afa8660400151611bf6565b611b049190612c27565b611b0e9190612d47565b84602001518560400151611b229190612c14565b11611b2f57506000610317565b506003610317565b600083604001516001600160401b0316670de0b6b3a7640000611b5a9190612c14565b8451909150611b73906001600160401b03166002612c27565b611b7e600283612d22565b611b889190612d47565b611bac866040015186604001516001600160401b03166118d990919063ffffffff16565b8660200151611bbb9190612c14565b10611bca576000915050610317565b6004915050610317565b611bdf848484611ed7565b15611bec57506005610317565b5060069392505050565b60006103ad82836118d9565b60006103ad82611c1b6002670de0b6b3a7640000612d47565b611f38565b60006103ad82836120ca565b600080611c398686611015565b90506000611c478487611015565b905060006002611c5f87670de0b6b3a7640000612be4565b611c699190612d47565b8310611c9e57611c978761142d611c8886670de0b6b3a7640000612c14565b671bc16d674ec80000906118d9565b9050611cf2565b60006002611cb488670de0b6b3a7640000612c14565b611cbe9190612d22565b90506000611ccc888a6118d9565b611cd6908b612c14565b9050611ce3816002612c27565b611ced9083612d47565b925050505b6119818183612114565b6000828711611d1657611d0f8787612c14565b9050610545565b818711611dce576000671bc16d674ec80000611d356112ad868b612c14565b611d3f9087612c27565b611d499190612d47565b611d539088612be4565b9050878110611d6e57611d668882612c14565b915050610545565b87611d7e6402540be400886118d9565b611d889083612be4565b101560405180604001604052806002815260200161323760f01b81525090611dc35760405162461bcd60e51b815260040161039f9190612b80565b506000915050610545565b6000611de4611ddd8585612c14565b86906118d9565b611df690670de0b6b3a7640000612c14565b9050611981611e058988612c14565b82906118d9565b6000611e4a84600001518360000151670de0b6b3a764000086600001516001600160401b031687602001516001600160401b03168760400151611cfc565b8460200151101590509392505050565b6000611e4a84600001518360200151670de0b6b3a76400008660008760600151611cfc565b60008160200151826080015111611e9857506001610317565b815160808301511115611ead57506000610317565b611e4a84600001518360800151670de0b6b3a7640000868660c00151670de0b6b3a7640000611cfc565b600081602001518260a001511115611ef157506000610317565b611e4a84600001518360a00151670de0b6b3a764000086604001516001600160401b0316670de0b6b3a7640000611f289190612c14565b6000670de0b6b3a7640000611cfc565b600081600003611f515750670de0b6b3a76400006103ad565b82600003611f61575060006103ad565b604080518082019091526002815261032360f41b6020820152600160ff1b8410611f9e5760405162461bcd60e51b815260040161039f9190612b80565b50604080518082019091526002815261323160f01b60208201528390770bce5086492111aea88f4bb1ca6bcf584181ea8059f765328410611ff25760405162461bcd60e51b815260040161039f9190612b80565b50826000670c7d713b49da0000831380156120145750670f43fc2c04ee000083125b1561204b57600061202484612123565b9050670de0b6b3a764000080820784020583670de0b6b3a764000083050201915050612059565b8161205584612242565b0290505b670de0b6b3a76400009005680238fd42c5cf03ffff198112801590612087575068070c1cc73b00c800008113155b60405180604001604052806002815260200161191960f11b815250906120c05760405162461bcd60e51b815260040161039f9190612b80565b50610545816125ec565b6000806120d78385612c27565b9050806000036120eb5760009150506103ad565b670de0b6b3a76400006120ff600183612c14565b6121099190612d47565b611080906001612be4565b60008183116119eb5781610317565b670de0b6b3a7640000026000806a0c097ce7bc90715b34b9f160241b808401906ec097ce7bc90715b34b9f0fffffffff198501028161216457612164612d31565b05905060006a0c097ce7bc90715b34b9f160241b82800205905081806a0c097ce7bc90715b34b9f160241b81840205915060038205016a0c097ce7bc90715b34b9f160241b82840205915060058205016a0c097ce7bc90715b34b9f160241b82840205915060078205016a0c097ce7bc90715b34b9f160241b82840205915060098205016a0c097ce7bc90715b34b9f160241b828402059150600b8205016a0c097ce7bc90715b34b9f160241b828402059150600d8205016a0c097ce7bc90715b34b9f160241b828402059150600f82050160020295945050505050565b6000670de0b6b3a76400008212156122835761227a826a0c097ce7bc90715b34b9f160241b8161227457612274612d31565b05612242565b60000392915050565b60007e1600ef3172e58d2e933ec884fde10064c63b5372d805e203c000000000000083126122d457770195e54c5dd42177f53a27172fa9ec630262827000000000830592506806f05b59d3b2000000015b73011798004d755d3c8bc8e03204cf44619e000000831261230c576b1425982cf597cd205cef7380830592506803782dace9d9000000015b606492830292026e01855144814a7ff805980ff00840008312612354576e01855144814a7ff805980ff008400068056bc75e2d63100000840205925068ad78ebc5ac62000000015b6b02df0ab5a80a22c61ab5a700831261238f576b02df0ab5a80a22c61ab5a70068056bc75e2d6310000084020592506856bc75e2d631000000015b693f1fce3da636ea5cf85083126123c657693f1fce3da636ea5cf85068056bc75e2d631000008402059250682b5e3af16b18800000015b690127fa27722cc06cc5e283126123fd57690127fa27722cc06cc5e268056bc75e2d6310000084020592506815af1d78b58c400000015b68280e60114edb805d0383126124325768280e60114edb805d0368056bc75e2d631000008402059250680ad78ebc5ac6200000015b680ebc5fb41746121110831261245d57680ebc5fb4174612111068056bc75e2d631000009384020592015b6808f00f760a4b2db55d8312612492576808f00f760a4b2db55d68056bc75e2d6310000084020592506802b5e3af16b1880000015b6806f5f177578893793783126124c7576806f5f177578893793768056bc75e2d63100000840205925068015af1d78b58c40000015b6806248f33704b28660383126124fb576806248f33704b28660368056bc75e2d63100000840205925067ad78ebc5ac620000015b6805c548670b9510e7ac831261252f576805c548670b9510e7ac68056bc75e2d6310000084020592506756bc75e2d6310000015b600068056bc75e2d63100000840168056bc75e2d63100000808603028161255857612558612d31565b059050600068056bc75e2d63100000828002059050818068056bc75e2d63100000818402059150600382050168056bc75e2d63100000828402059150600582050168056bc75e2d63100000828402059150600782050168056bc75e2d63100000828402059150600982050168056bc75e2d63100000828402059150600b820501600202606485820105979650505050505050565b6000680238fd42c5cf03ffff198212158015612611575068070c1cc73b00c800008213155b60405180604001604052806002815260200161323360f01b8152509061264a5760405162461bcd60e51b815260040161039f9190612b80565b50600082121561268357612660826000036125ec565b6a0c097ce7bc90715b34b9f160241b8161267c5761267c612d31565b0592915050565b60006806f05b59d3b200000083126126c357506806f05b59d3b1ffffff1990910190770195e54c5dd42177f53a27172fa9ec6302628270000000006126f9565b6803782dace9d900000083126126f557506803782dace9d8ffffff19909101906b1425982cf597cd205cef73806126f9565b5060015b6064929092029168056bc75e2d6310000068ad78ebc5ac6200000084126127495768ad78ebc5ac61ffffff199093019268056bc75e2d631000006e01855144814a7ff805980ff008400082020590505b6856bc75e2d6310000008412612785576856bc75e2d630ffffff199093019268056bc75e2d631000006b02df0ab5a80a22c61ab5a70082020590505b682b5e3af16b1880000084126127bf57682b5e3af16b187fffff199093019268056bc75e2d63100000693f1fce3da636ea5cf85082020590505b6815af1d78b58c40000084126127f9576815af1d78b58c3fffff199093019268056bc75e2d63100000690127fa27722cc06cc5e282020590505b680ad78ebc5ac6200000841261283257680ad78ebc5ac61fffff199093019268056bc75e2d6310000068280e60114edb805d0382020590505b68056bc75e2d63100000841261286b5768056bc75e2d630fffff199093019268056bc75e2d63100000680ebc5fb4174612111082020590505b6802b5e3af16b188000084126128a4576802b5e3af16b187ffff199093019268056bc75e2d631000006808f00f760a4b2db55d82020590505b68015af1d78b58c4000084126128dd5768015af1d78b58c3ffff199093019268056bc75e2d631000006806f5f177578893793782020590505b68056bc75e2d631000008481019085906002908280020505918201919050600368056bc75e2d631000008783020505918201919050600468056bc75e2d631000008783020505918201919050600568056bc75e2d631000008783020505918201919050600668056bc75e2d631000008783020505918201919050600768056bc75e2d631000008783020505918201919050600868056bc75e2d631000008783020505918201919050600968056bc75e2d631000008783020505918201919050600a68056bc75e2d631000008783020505918201919050600b68056bc75e2d631000008783020505918201919050600c68056bc75e2d631000008783020505918201919050606468056bc75e2d63100000848402058502059695505050505050565b6040518060a00160405280600081526020016000815260200160006006811115612a2a57612a2a612d74565b815260200160008152602001600081525090565b600080600060608486031215612a5357600080fd5b505081359360208301359350604090920135919050565b60008060408385031215612a7d57600080fd5b50508035926020909101359150565b600060208284031215612a9e57600080fd5b5035919050565b80356001600160401b0381168114612abc57600080fd5b919050565b600060808284031215612ad357600080fd5b604051608081018181106001600160401b0382111715612b0357634e487b7160e01b600052604160045260246000fd5b604052612b0f83612aa5565b8152612b1d60208401612aa5565b6020820152612b2e60408401612aa5565b6040820152612b3f60608401612aa5565b60608201529392505050565b6001600160a01b0381168114612b6057600080fd5b50565b600060208284031215612b7557600080fd5b813561031781612b4b565b600060208083528351808285015260005b81811015612bad57858101830151858201604001528201612b91565b506000604082860101526040601f19601f8301168501019250505092915050565b634e487b7160e01b600052601160045260246000fd5b808201808211156103ad576103ad612bce565b600060208284031215612c0957600080fd5b815161031781612b4b565b818103818111156103ad576103ad612bce565b80820281158282048414176103ad576103ad612bce565b600181815b80851115612c79578160001904821115612c5f57612c5f612bce565b80851615612c6c57918102915b93841c9390800290612c43565b509250929050565b600082612c90575060016103ad565b81612c9d575060006103ad565b8160018114612cb35760028114612cbd57612cd9565b60019150506103ad565b60ff841115612cce57612cce612bce565b50506001821b6103ad565b5060208310610133831016604e8410600b8410161715612cfc575081810a6103ad565b612d068383612c3e565b8060001904821115612d1a57612d1a612bce565b029392505050565b600061031760ff841683612c81565b634e487b7160e01b600052601260045260246000fd5b600082612d5657612d56612d31565b500490565b600060208284031215612d6d57600080fd5b5051919050565b634e487b7160e01b600052602160045260246000fd5b600082612d9957612d99612d31565b50069056fea2646970667358221220375f20b46149faeec073cbf031c21c14230d89a869850d33df1b237b3b2a150564736f6c63430008110033","bytecodeSha1":"4b02878c66f913608c85773f46e0621e6ce8b971","compiler":{"evm_version":"london","optimizer":{"enabled":true,"runs":200},"version":"0.8.17+commit.8df45f5f"},"contractName":"PrimaryAMMV1","language":"Solidity","natspec":{"kind":"dev","methods":{"acceptGovernance()":{"notice":"Called by the pending governor to approve the change"},"changeGovernor(address)":{"notice":"Changes the governor can only be called by the current governor"},"computeMintAmount(uint256,uint256)":{"notice":"Returns the USD value to mint given an ammount of Gyro dollars"},"computeRedeemAmount(uint256,uint256)":{"notice":"Computes the USD value to redeem given an ammount of Gyro dollars"},"constructor":{"notice":"Initializes the PAMM with the given system parameters"},"getNormalizedAnchoredReserveValue(uint256)":{"details":"This function extends the meaning of the anchor reserve value to cases where it's not formally defined as follows. Let r be the current reserve value, discounted by the configured redeem discount ratio. - If r >= 1, this returns 1. - If thetaBar < r < 1, this returns the normalized anchor reserve value like in the PAMM   mathematics paper. - If r <= thetaBar, this returns r. Note that, in the two edge cases, the mapping is not 1:1 and the anchor reserve value is not actually used by the PAMM to compute redemption amounts.","notice":"Internal value that may be useful to predict the state of the system under different scenarios. This value is the 'anchor reserve value', normalized to 'anchor GYD supply' = 1."},"getRedemptionLevel()":{"notice":"Current redemption level"},"governor()":{"notice":"Returns the current governor"},"lastRedemptionBlock()":{"notice":"the last block at which a redemption occured"},"mint(uint256,uint256)":{"notice":"Records and returns the USD value to mint given an ammount of Gyro dollars"},"pendingGovernor()":{"notice":"Returns the pending governor"},"redeem(uint256,uint256)":{"notice":"Computes and records the USD value to redeem given an ammount of Gyro dollars"},"redemptionLevel()":{"notice":"current redemption level of the primary AMM"},"setSystemParams((uint64,uint64,uint64,uint64))":{"notice":"Allows for the system parameters to be updated"},"systemParams()":{"notice":"Retrieves the system parameters to be updated"}},"notice":"Implements the primary AMM pricing mechanism","stateVariables":{"_UNDERFLOW_EPSILON":{"details":"we tolerate underflows due to numerical issues up to 1e10, so 1e-8 given our 1e18 scale"}},"version":1},"opcodes":"PUSH1 0x80 PUSH1 0x40 MSTORE CALLVALUE DUP1 ISZERO PUSH2 0x10 JUMPI PUSH1 0x0 DUP1 REVERT JUMPDEST POP PUSH1 0x4 CALLDATASIZE LT PUSH2 0x100 JUMPI PUSH1 0x0 CALLDATALOAD PUSH1 0xE0 SHR DUP1 PUSH4 0x5BAAEAAB GT PUSH2 0x97 JUMPI DUP1 PUSH4 0x94634705 GT PUSH2 0x66 JUMPI DUP1 PUSH4 0x94634705 EQ PUSH2 0x2AC JUMPI DUP1 PUSH4 0x9E590854 EQ PUSH2 0x2B4 JUMPI DUP1 PUSH4 0xE3056A34 EQ PUSH2 0x2C7 JUMPI DUP1 PUSH4 0xE4C0AAF4 EQ PUSH2 0x2DA JUMPI PUSH1 0x0 DUP1 REVERT JUMPDEST DUP1 PUSH4 0x5BAAEAAB EQ PUSH2 0x26B JUMPI DUP1 PUSH4 0x616A1ED9 EQ PUSH2 0x274 JUMPI DUP1 PUSH4 0x71DB63EC EQ PUSH2 0x286 JUMPI DUP1 PUSH4 0x7CBC2373 EQ PUSH2 0x299 JUMPI PUSH1 0x0 DUP1 REVERT JUMPDEST DUP1 PUSH4 0x30A5204A GT PUSH2 0xD3 JUMPI DUP1 PUSH4 0x30A5204A EQ PUSH2 0x173 JUMPI DUP1 PUSH4 0x36214144 EQ PUSH2 0x186 JUMPI DUP1 PUSH4 0x44BBDB55 EQ PUSH2 0x18F JUMPI DUP1 PUSH4 0x458E8E6B EQ PUSH2 0x1B6 JUMPI PUSH1 0x0 DUP1 REVERT JUMPDEST DUP1 PUSH4 0xC340A24 EQ PUSH2 0x105 JUMPI DUP1 PUSH4 0x13E23F84 EQ PUSH2 0x135 JUMPI DUP1 PUSH4 0x1B2EF1CA EQ PUSH2 0x156 JUMPI DUP1 PUSH4 0x238EFCBC EQ PUSH2 0x169 JUMPI JUMPDEST PUSH1 0x0 DUP1 REVERT JUMPDEST PUSH1 0x0 SLOAD PUSH2 0x118 SWAP1 PUSH1 0x1 PUSH1 0x1 PUSH1 0xA0 SHL SUB AND DUP2 JUMP JUMPDEST PUSH1 0x40 MLOAD PUSH1 0x1 PUSH1 0x1 PUSH1 0xA0 SHL SUB SWAP1 SWAP2 AND DUP2 MSTORE PUSH1 0x20 ADD JUMPDEST PUSH1 0x40 MLOAD DUP1 SWAP2 SUB SWAP1 RETURN JUMPDEST PUSH2 0x148 PUSH2 0x143 CALLDATASIZE PUSH1 0x4 PUSH2 0x2A3E JUMP JUMPDEST PUSH2 0x2ED JUMP JUMPDEST PUSH1 0x40 MLOAD SWAP1 DUP2 MSTORE PUSH1 0x20 ADD PUSH2 0x12C JUMP JUMPDEST PUSH2 0x148 PUSH2 0x164 CALLDATASIZE PUSH1 0x4 PUSH2 0x2A6A JUMP JUMPDEST PUSH2 0x31E JUMP JUMPDEST PUSH2 0x171 PUSH2 0x3B3 JUMP JUMPDEST STOP JUMPDEST PUSH2 0x148 PUSH2 0x181 CALLDATASIZE PUSH1 0x4 PUSH2 0x2A8C JUMP JUMPDEST PUSH2 0x463 JUMP JUMPDEST PUSH2 0x148 PUSH1 0x4 SLOAD DUP2 JUMP JUMPDEST PUSH2 0x118 PUSH32 0x0 DUP2 JUMP JUMPDEST PUSH2 0x228 PUSH1 0x40 DUP1 MLOAD PUSH1 0x80 DUP2 ADD DUP3 MSTORE PUSH1 0x0 DUP1 DUP3 MSTORE PUSH1 0x20 DUP3 ADD DUP2 SWAP1 MSTORE SWAP2 DUP2 ADD DUP3 SWAP1 MSTORE PUSH1 0x60 DUP2 ADD SWAP2 SWAP1 SWAP2 MSTORE POP PUSH1 0x40 DUP1 MLOAD PUSH1 0x80 DUP2 ADD DUP3 MSTORE PUSH1 0x2 SLOAD PUSH1 0x1 PUSH1 0x1 PUSH1 0x40 SHL SUB DUP1 DUP3 AND DUP4 MSTORE PUSH1 0x1 PUSH1 0x40 SHL DUP3 DIV DUP2 AND PUSH1 0x20 DUP5 ADD MSTORE PUSH1 0x1 PUSH1 0x80 SHL DUP3 DIV DUP2 AND SWAP4 DUP4 ADD SWAP4 SWAP1 SWAP4 MSTORE PUSH1 0x1 PUSH1 0xC0 SHL SWAP1 DIV SWAP1 SWAP2 AND PUSH1 0x60 DUP3 ADD MSTORE SWAP1 JUMP JUMPDEST PUSH1 0x40 MLOAD PUSH2 0x12C SWAP2 SWAP1 DUP2 MLOAD PUSH1 0x1 PUSH1 0x1 PUSH1 0x40 SHL SUB SWAP1 DUP2 AND DUP3 MSTORE PUSH1 0x20 DUP1 DUP5 ADD MLOAD DUP3 AND SWAP1 DUP4 ADD MSTORE PUSH1 0x40 DUP1 DUP5 ADD MLOAD DUP3 AND SWAP1 DUP4 ADD MSTORE PUSH1 0x60 SWAP3 DUP4 ADD MLOAD AND SWAP2 DUP2 ADD SWAP2 SWAP1 SWAP2 MSTORE PUSH1 0x80 ADD SWAP1 JUMP JUMPDEST PUSH2 0x148 PUSH1 0x3 SLOAD DUP2 JUMP JUMPDEST PUSH2 0x148 PUSH2 0x282 CALLDATASIZE PUSH1 0x4 PUSH2 0x2A6A JUMP JUMPDEST POP SWAP1 JUMP JUMPDEST PUSH2 0x148 PUSH2 0x294 CALLDATASIZE PUSH1 0x4 PUSH2 0x2A6A JUMP JUMPDEST PUSH2 0x4C5 JUMP JUMPDEST PUSH2 0x148 PUSH2 0x2A7 CALLDATASIZE PUSH1 0x4 PUSH2 0x2A6A JUMP JUMPDEST PUSH2 0x54F JUMP JUMPDEST PUSH2 0x148 PUSH2 0x672 JUMP JUMPDEST PUSH2 0x171 PUSH2 0x2C2 CALLDATASIZE PUSH1 0x4 PUSH2 0x2AC1 JUMP JUMPDEST PUSH2 0x6A1 JUMP JUMPDEST PUSH1 0x1 SLOAD PUSH2 0x118 SWAP1 PUSH1 0x1 PUSH1 0x1 PUSH1 0xA0 SHL SUB AND DUP2 JUMP JUMPDEST PUSH2 0x171 PUSH2 0x2E8 CALLDATASIZE PUSH1 0x4 PUSH2 0x2B63 JUMP JUMPDEST PUSH2 0x7DA JUMP JUMPDEST PUSH1 0x40 DUP1 MLOAD PUSH1 0x60 DUP2 ADD DUP3 MSTORE DUP4 DUP2 MSTORE PUSH1 0x20 DUP2 ADD DUP6 SWAP1 MSTORE SWAP1 DUP2 ADD DUP3 SWAP1 MSTORE PUSH1 0x0 SWAP1 PUSH2 0x313 DUP2 PUSH2 0x8AF JUMP JUMPDEST SWAP2 POP POP JUMPDEST SWAP4 SWAP3 POP POP POP JUMP JUMPDEST PUSH1 0x0 PUSH2 0x352 PUSH32 0x0 PUSH1 0x1 PUSH1 0x1 PUSH1 0xA0 SHL SUB AND PUSH2 0xA12 JUMP JUMPDEST PUSH1 0x1 PUSH1 0x1 PUSH1 0xA0 SHL SUB AND CALLER PUSH1 0x1 PUSH1 0x1 PUSH1 0xA0 SHL SUB AND EQ PUSH1 0x40 MLOAD DUP1 PUSH1 0x40 ADD PUSH1 0x40 MSTORE DUP1 PUSH1 0x2 DUP2 MSTORE PUSH1 0x20 ADD PUSH2 0x333 PUSH1 0xF4 SHL DUP2 MSTORE POP SWAP1 PUSH2 0x3A8 JUMPI PUSH1 0x40 MLOAD PUSH3 0x461BCD PUSH1 0xE5 SHL DUP2 MSTORE PUSH1 0x4 ADD PUSH2 0x39F SWAP2 SWAP1 PUSH2 0x2B80 JUMP JUMPDEST PUSH1 0x40 MLOAD DUP1 SWAP2 SUB SWAP1 REVERT JUMPDEST POP DUP3 SWAP1 POP JUMPDEST SWAP3 SWAP2 POP POP JUMP JUMPDEST PUSH1 0x1 SLOAD PUSH1 0x40 DUP1 MLOAD DUP1 DUP3 ADD SWAP1 SWAP2 MSTORE PUSH1 0x2 DUP2 MSTORE PUSH2 0x333 PUSH1 0xF4 SHL PUSH1 0x20 DUP3 ADD MSTORE SWAP1 PUSH1 0x1 PUSH1 0x1 PUSH1 0xA0 SHL SUB AND CALLER EQ PUSH2 0x3F8 JUMPI PUSH1 0x40 MLOAD PUSH3 0x461BCD PUSH1 0xE5 SHL DUP2 MSTORE PUSH1 0x4 ADD PUSH2 0x39F SWAP2 SWAP1 PUSH2 0x2B80 JUMP JUMPDEST POP PUSH1 0x0 DUP1 SLOAD PUSH1 0x1 DUP1 SLOAD PUSH1 0x1 PUSH1 0x1 PUSH1 0xA0 SHL SUB NOT DUP1 DUP5 AND PUSH1 0x1 PUSH1 0x1 PUSH1 0xA0 SHL SUB DUP1 DUP5 AND SWAP2 SWAP1 SWAP2 OR SWAP1 SWAP6 SSTORE AND SWAP1 SSTORE PUSH1 0x40 DUP1 MLOAD SWAP3 SWAP1 SWAP2 AND DUP1 DUP4 MSTORE CALLER PUSH1 0x20 DUP5 ADD MSTORE SWAP2 PUSH32 0xDE4B3F61490B74C0ED6237523974FE299126BBBF8A8A7482FD220104C59B0C84 SWAP2 ADD JUMPDEST PUSH1 0x40 MLOAD DUP1 SWAP2 SUB SWAP1 LOG1 POP JUMP JUMPDEST PUSH1 0x40 DUP1 MLOAD PUSH1 0x80 DUP2 ADD DUP3 MSTORE PUSH1 0x2 SLOAD PUSH1 0x1 PUSH1 0x1 PUSH1 0x40 SHL SUB DUP1 DUP3 AND DUP4 MSTORE PUSH1 0x1 PUSH1 0x40 SHL DUP3 DIV DUP2 AND PUSH1 0x20 DUP5 ADD MSTORE PUSH1 0x1 PUSH1 0x80 SHL DUP3 DIV DUP2 AND SWAP4 DUP4 ADD SWAP4 SWAP1 SWAP4 MSTORE PUSH1 0x1 PUSH1 0xC0 SHL SWAP1 DIV SWAP1 SWAP2 AND PUSH1 0x60 DUP3 ADD MSTORE PUSH1 0x0 SWAP1 DUP2 SWAP1 PUSH2 0x4BA SWAP1 DUP5 SWAP1 PUSH2 0xA93 JUMP JUMPDEST SWAP1 POP PUSH2 0x317 DUP2 PUSH2 0x8AF JUMP JUMPDEST PUSH1 0x0 DUP3 PUSH1 0x0 SUB PUSH2 0x4D7 JUMPI POP PUSH1 0x0 PUSH2 0x3AD JUMP JUMPDEST PUSH1 0x40 DUP1 MLOAD PUSH1 0x80 DUP2 ADD DUP3 MSTORE PUSH1 0x2 SLOAD PUSH1 0x1 PUSH1 0x1 PUSH1 0x40 SHL SUB DUP1 DUP3 AND DUP4 MSTORE PUSH1 0x1 PUSH1 0x40 SHL DUP3 DIV DUP2 AND PUSH1 0x20 DUP5 ADD MSTORE PUSH1 0x1 PUSH1 0x80 SHL DUP3 DIV DUP2 AND SWAP4 DUP4 ADD SWAP4 SWAP1 SWAP4 MSTORE PUSH1 0x1 PUSH1 0xC0 SHL SWAP1 DIV SWAP1 SWAP2 AND PUSH1 0x60 DUP3 ADD MSTORE PUSH1 0x0 PUSH2 0x529 DUP3 PUSH2 0xAFB JUMP JUMPDEST SWAP1 POP PUSH1 0x0 PUSH2 0x537 DUP6 DUP5 PUSH2 0xA93 JUMP JUMPDEST SWAP1 POP PUSH2 0x545 DUP2 DUP5 DUP5 DUP10 PUSH2 0xD1F JUMP JUMPDEST SWAP7 SWAP6 POP POP POP POP POP POP JUMP JUMPDEST PUSH1 0x0 PUSH2 0x583 PUSH32 0x0 PUSH1 0x1 PUSH1 0x1 PUSH1 0xA0 SHL SUB AND PUSH2 0xA12 JUMP JUMPDEST PUSH1 0x1 PUSH1 0x1 PUSH1 0xA0 SHL SUB AND CALLER PUSH1 0x1 PUSH1 0x1 PUSH1 0xA0 SHL SUB AND EQ PUSH1 0x40 MLOAD DUP1 PUSH1 0x40 ADD PUSH1 0x40 MSTORE DUP1 PUSH1 0x2 DUP2 MSTORE PUSH1 0x20 ADD PUSH2 0x333 PUSH1 0xF4 SHL DUP2 MSTORE POP SWAP1 PUSH2 0x5D0 JUMPI PUSH1 0x40 MLOAD PUSH3 0x461BCD PUSH1 0xE5 SHL DUP2 MSTORE PUSH1 0x4 ADD PUSH2 0x39F SWAP2 SWAP1 PUSH2 0x2B80 JUMP JUMPDEST POP DUP3 PUSH1 0x0 SUB PUSH2 0x5E1 JUMPI POP PUSH1 0x0 PUSH2 0x3AD JUMP JUMPDEST PUSH1 0x40 DUP1 MLOAD PUSH1 0x80 DUP2 ADD DUP3 MSTORE PUSH1 0x2 SLOAD PUSH1 0x1 PUSH1 0x1 PUSH1 0x40 SHL SUB DUP1 DUP3 AND DUP4 MSTORE PUSH1 0x1 PUSH1 0x40 SHL DUP3 DIV DUP2 AND PUSH1 0x20 DUP5 ADD MSTORE PUSH1 0x1 PUSH1 0x80 SHL DUP3 DIV DUP2 AND SWAP4 DUP4 ADD SWAP4 SWAP1 SWAP4 MSTORE PUSH1 0x1 PUSH1 0xC0 SHL SWAP1 DIV SWAP1 SWAP2 AND PUSH1 0x60 DUP3 ADD MSTORE PUSH1 0x0 PUSH2 0x634 DUP5 DUP4 PUSH2 0xA93 JUMP JUMPDEST SWAP1 POP PUSH1 0x0 PUSH2 0x641 DUP4 PUSH2 0xAFB JUMP JUMPDEST SWAP1 POP PUSH1 0x0 PUSH2 0x651 DUP4 DUP6 DUP5 DUP11 PUSH2 0xD1F JUMP JUMPDEST DUP4 MLOAD SWAP1 SWAP2 POP PUSH2 0x661 SWAP1 DUP9 SWAP1 PUSH2 0x2BE4 JUMP JUMPDEST PUSH1 0x3 SSTORE NUMBER PUSH1 0x4 SSTORE SWAP7 SWAP6 POP POP POP POP POP POP JUMP JUMPDEST PUSH1 0x3 SLOAD PUSH1 0x4 SLOAD PUSH1 0x2 SLOAD PUSH1 0x0 SWAP3 PUSH2 0x69C SWAP3 SWAP1 SWAP2 NUMBER SWAP2 SWAP1 PUSH1 0x1 PUSH1 0xC0 SHL SWAP1 DIV PUSH1 0x1 PUSH1 0x1 PUSH1 0x40 SHL SUB AND PUSH2 0xE9E JUMP JUMPDEST SWAP1 POP SWAP1 JUMP JUMPDEST PUSH1 0x0 SLOAD PUSH1 0x40 DUP1 MLOAD DUP1 DUP3 ADD SWAP1 SWAP2 MSTORE PUSH1 0x2 DUP2 MSTORE PUSH2 0x333 PUSH1 0xF4 SHL PUSH1 0x20 DUP3 ADD MSTORE SWAP1 PUSH1 0x1 PUSH1 0x1 PUSH1 0xA0 SHL SUB AND CALLER EQ PUSH2 0x6E6 JUMPI PUSH1 0x40 MLOAD PUSH3 0x461BCD PUSH1 0xE5 SHL DUP2 MSTORE PUSH1 0x4 ADD PUSH2 0x39F SWAP2 SWAP1 PUSH2 0x2B80 JUMP JUMPDEST POP DUP1 MLOAD PUSH1 0x2 DUP1 SLOAD PUSH1 0x20 DUP5 ADD MLOAD PUSH1 0x40 DUP6 ADD MLOAD PUSH1 0x60 DUP7 ADD MLOAD PUSH1 0x1 PUSH1 0x1 PUSH1 0x40 SHL SUB SWAP1 DUP2 AND PUSH1 0x1 PUSH1 0xC0 SHL MUL PUSH1 0x1 PUSH1 0x1 PUSH1 0xC0 SHL SUB SWAP3 DUP3 AND PUSH1 0x1 PUSH1 0x80 SHL MUL SWAP3 SWAP1 SWAP3 AND PUSH16 0xFFFFFFFFFFFFFFFFFFFFFFFFFFFFFFFF SWAP4 DUP3 AND PUSH1 0x1 PUSH1 0x40 SHL MUL PUSH16 0xFFFFFFFFFFFFFFFFFFFFFFFFFFFFFFFF NOT SWAP1 SWAP6 AND SWAP2 SWAP1 SWAP7 AND OR SWAP3 SWAP1 SWAP3 OR AND SWAP3 SWAP1 SWAP3 OR SWAP2 SWAP1 SWAP2 OR SWAP1 SSTORE PUSH2 0x76E DUP2 PUSH2 0xAFB JUMP JUMPDEST POP PUSH32 0x4C76FDBDF1D037612DA5C0DCE3F84FB05D29652B0DBC2D66501D683D3DF4DF88 DUP2 PUSH1 0x0 ADD MLOAD DUP3 PUSH1 0x20 ADD MLOAD DUP4 PUSH1 0x40 ADD MLOAD DUP5 PUSH1 0x60 ADD MLOAD PUSH1 0x40 MLOAD PUSH2 0x458 SWAP5 SWAP4 SWAP3 SWAP2 SWAP1 PUSH1 0x1 PUSH1 0x1 PUSH1 0x40 SHL SUB SWAP5 DUP6 AND DUP2 MSTORE SWAP3 DUP5 AND PUSH1 0x20 DUP5 ADD MSTORE SWAP1 DUP4 AND PUSH1 0x40 DUP4 ADD MSTORE SWAP1 SWAP2 AND PUSH1 0x60 DUP3 ADD MSTORE PUSH1 0x80 ADD SWAP1 JUMP JUMPDEST PUSH1 0x0 SLOAD PUSH1 0x40 DUP1 MLOAD DUP1 DUP3 ADD SWAP1 SWAP2 MSTORE PUSH1 0x2 DUP2 MSTORE PUSH2 0x333 PUSH1 0xF4 SHL PUSH1 0x20 DUP3 ADD MSTORE SWAP1 PUSH1 0x1 PUSH1 0x1 PUSH1 0xA0 SHL SUB AND CALLER EQ PUSH2 0x81F JUMPI PUSH1 0x40 MLOAD PUSH3 0x461BCD PUSH1 0xE5 SHL DUP2 MSTORE PUSH1 0x4 ADD PUSH2 0x39F SWAP2 SWAP1 PUSH2 0x2B80 JUMP JUMPDEST POP PUSH1 0x40 DUP1 MLOAD DUP1 DUP3 ADD SWAP1 SWAP2 MSTORE PUSH1 0x2 DUP2 MSTORE PUSH2 0x3331 PUSH1 0xF0 SHL PUSH1 0x20 DUP3 ADD MSTORE PUSH1 0x1 PUSH1 0x1 PUSH1 0xA0 SHL SUB DUP3 AND PUSH2 0x860 JUMPI PUSH1 0x40 MLOAD PUSH3 0x461BCD PUSH1 0xE5 SHL DUP2 MSTORE PUSH1 0x4 ADD PUSH2 0x39F SWAP2 SWAP1 PUSH2 0x2B80 JUMP JUMPDEST POP PUSH1 0x1 DUP1 SLOAD PUSH1 0x1 PUSH1 0x1 PUSH1 0xA0 SHL SUB NOT AND PUSH1 0x1 PUSH1 0x1 PUSH1 0xA0 SHL SUB DUP4 AND SWAP1 DUP2 OR SWAP1 SWAP2 SSTORE PUSH1 0x40 MLOAD SWAP1 DUP2 MSTORE PUSH32 0x67235BA2E63C748A35B95C4F92A3BBC2A1389938170A5CE6C9ADD5D0B03A314A SWAP1 PUSH1 0x20 ADD PUSH2 0x458 JUMP JUMPDEST PUSH1 0x40 DUP1 MLOAD PUSH1 0x80 DUP2 ADD DUP3 MSTORE PUSH1 0x2 SLOAD PUSH1 0x1 PUSH1 0x1 PUSH1 0x40 SHL SUB DUP1 DUP3 AND DUP4 MSTORE PUSH1 0x1 PUSH1 0x40 SHL DUP3 DIV DUP2 AND PUSH1 0x20 DUP1 DUP6 ADD SWAP2 SWAP1 SWAP2 MSTORE PUSH1 0x1 PUSH1 0x80 SHL DUP4 DIV DUP3 AND DUP5 DUP7 ADD MSTORE PUSH1 0x1 PUSH1 0xC0 SHL SWAP1 SWAP3 DIV AND PUSH1 0x60 DUP4 ADD MSTORE DUP4 ADD MLOAD SWAP2 DUP4 ADD MLOAD PUSH1 0x0 SWAP3 PUSH2 0x909 SWAP2 PUSH2 0xF1F JUMP JUMPDEST PUSH1 0x20 DUP5 ADD MSTORE DUP3 MLOAD PUSH1 0x40 DUP5 ADD MLOAD PUSH1 0x0 SWAP2 PUSH2 0x921 SWAP2 PUSH2 0x2BE4 JUMP JUMPDEST SWAP1 POP PUSH1 0x0 PUSH1 0x40 MLOAD DUP1 PUSH1 0x60 ADD PUSH1 0x40 MSTORE DUP1 PUSH2 0x947 DUP5 DUP9 PUSH1 0x0 ADD MLOAD PUSH2 0x1015 SWAP1 SWAP2 SWAP1 PUSH4 0xFFFFFFFF AND JUMP JUMPDEST DUP2 MSTORE PUSH1 0x20 ADD PUSH2 0x963 DUP5 DUP9 PUSH1 0x20 ADD MLOAD PUSH2 0x1015 SWAP1 SWAP2 SWAP1 PUSH4 0xFFFFFFFF AND JUMP JUMPDEST DUP2 MSTORE PUSH1 0x20 ADD PUSH2 0x97F DUP5 DUP9 PUSH1 0x40 ADD MLOAD PUSH2 0x1015 SWAP1 SWAP2 SWAP1 PUSH4 0xFFFFFFFF AND JUMP JUMPDEST SWAP1 MSTORE PUSH1 0x40 DUP2 ADD MLOAD PUSH1 0x20 DUP3 ADD MLOAD SWAP2 SWAP3 POP PUSH1 0x0 SWAP2 PUSH2 0x99A SWAP2 PUSH2 0x1015 JUMP JUMPDEST SWAP1 POP PUSH8 0xDE0B6B3A7640000 DUP2 LT PUSH2 0x9BE JUMPI POP PUSH8 0xDE0B6B3A7640000 SWAP6 SWAP5 POP POP POP POP POP JUMP JUMPDEST DUP4 PUSH1 0x40 ADD MLOAD PUSH1 0x1 PUSH1 0x1 PUSH1 0x40 SHL SUB AND DUP2 GT PUSH2 0x9FA JUMPI PUSH1 0x0 PUSH2 0x9EF DUP8 PUSH1 0x40 ADD MLOAD DUP9 PUSH1 0x20 ADD MLOAD PUSH2 0x1015 SWAP1 SWAP2 SWAP1 PUSH4 0xFFFFFFFF AND JUMP JUMPDEST SWAP8 SWAP7 POP POP POP POP POP POP POP JUMP JUMPDEST PUSH1 0x0 PUSH2 0xA05 DUP6 PUSH2 0xAFB JUMP JUMPDEST SWAP1 POP PUSH2 0x9EF DUP4 DUP7 DUP4 PUSH2 0x1088 JUMP JUMPDEST PUSH1 0x40 MLOAD PUSH4 0x21F8A721 PUSH1 0xE0 SHL DUP2 MSTORE PUSH19 0x4D4F54484552424F4152445F41444452455353 PUSH1 0x68 SHL PUSH1 0x4 DUP3 ADD MSTORE PUSH1 0x0 SWAP1 PUSH1 0x1 PUSH1 0x1 PUSH1 0xA0 SHL SUB DUP4 AND SWAP1 PUSH4 0x21F8A721 SWAP1 PUSH1 0x24 ADD PUSH1 0x20 PUSH1 0x40 MLOAD DUP1 DUP4 SUB DUP2 DUP7 GAS STATICCALL ISZERO DUP1 ISZERO PUSH2 0xA6F JUMPI RETURNDATASIZE PUSH1 0x0 DUP1 RETURNDATACOPY RETURNDATASIZE PUSH1 0x0 REVERT JUMPDEST POP POP POP POP PUSH1 0x40 MLOAD RETURNDATASIZE PUSH1 0x1F NOT PUSH1 0x1F DUP3 ADD AND DUP3 ADD DUP1 PUSH1 0x40 MSTORE POP DUP2 ADD SWAP1 PUSH2 0x3AD SWAP2 SWAP1 PUSH2 0x2BF7 JUMP JUMPDEST PUSH2 0xAB7 PUSH1 0x40 MLOAD DUP1 PUSH1 0x60 ADD PUSH1 0x40 MSTORE DUP1 PUSH1 0x0 DUP2 MSTORE PUSH1 0x20 ADD PUSH1 0x0 DUP2 MSTORE PUSH1 0x20 ADD PUSH1 0x0 DUP2 MSTORE POP SWAP1 JUMP JUMPDEST PUSH1 0x40 MLOAD DUP1 PUSH1 0x60 ADD PUSH1 0x40 MSTORE DUP1 PUSH2 0xADF PUSH1 0x3 SLOAD NUMBER PUSH1 0x4 SLOAD DUP8 PUSH1 0x60 ADD MLOAD PUSH1 0x1 PUSH1 0x1 PUSH1 0x40 SHL SUB AND PUSH2 0xE9E JUMP JUMPDEST DUP2 MSTORE PUSH1 0x20 ADD DUP5 DUP2 MSTORE PUSH1 0x20 ADD PUSH2 0xAF2 PUSH2 0x154F JUMP JUMPDEST SWAP1 MSTORE SWAP4 SWAP3 POP POP POP JUMP JUMPDEST PUSH2 0xB3B PUSH1 0x40 MLOAD DUP1 PUSH1 0xE0 ADD PUSH1 0x40 MSTORE DUP1 PUSH1 0x0 DUP2 MSTORE PUSH1 0x20 ADD PUSH1 0x0 DUP2 MSTORE PUSH1 0x20 ADD PUSH1 0x0 DUP2 MSTORE PUSH1 0x20 ADD PUSH1 0x0 DUP2 MSTORE PUSH1 0x20 ADD PUSH1 0x0 DUP2 MSTORE PUSH1 0x20 ADD PUSH1 0x0 DUP2 MSTORE PUSH1 0x20 ADD PUSH1 0x0 DUP2 MSTORE POP SWAP1 JUMP JUMPDEST PUSH2 0xB7B PUSH1 0x40 MLOAD DUP1 PUSH1 0xE0 ADD PUSH1 0x40 MSTORE DUP1 PUSH1 0x0 DUP2 MSTORE PUSH1 0x20 ADD PUSH1 0x0 DUP2 MSTORE PUSH1 0x20 ADD PUSH1 0x0 DUP2 MSTORE PUSH1 0x20 ADD PUSH1 0x0 DUP2 MSTORE PUSH1 0x20 ADD PUSH1 0x0 DUP2 MSTORE PUSH1 0x20 ADD PUSH1 0x0 DUP2 MSTORE PUSH1 0x20 ADD PUSH1 0x0 DUP2 MSTORE POP SWAP1 JUMP JUMPDEST PUSH2 0xB92 DUP4 PUSH1 0x20 ADD MLOAD PUSH1 0x1 PUSH1 0x1 PUSH1 0x40 SHL SUB AND DUP5 PUSH2 0x15E4 JUMP JUMPDEST DUP2 MSTORE PUSH2 0xB9F PUSH1 0x0 DUP5 PUSH2 0x15E4 JUMP JUMPDEST DUP2 PUSH1 0x20 ADD DUP2 DUP2 MSTORE POP POP PUSH2 0xBDA DUP2 PUSH1 0x0 ADD MLOAD PUSH8 0xDE0B6B3A7640000 DUP6 PUSH1 0x0 ADD MLOAD PUSH1 0x1 PUSH1 0x1 PUSH1 0x40 SHL SUB AND DUP7 PUSH1 0x20 ADD MLOAD PUSH1 0x1 PUSH1 0x1 PUSH1 0x40 SHL SUB AND PUSH2 0x1732 JUMP JUMPDEST PUSH1 0x40 DUP3 ADD MSTORE PUSH1 0x20 DUP2 ADD MLOAD DUP4 MLOAD PUSH2 0xC05 SWAP2 SWAP1 PUSH8 0xDE0B6B3A7640000 SWAP1 PUSH1 0x1 PUSH1 0x1 PUSH1 0x40 SHL SUB AND PUSH1 0x0 PUSH2 0x1732 JUMP JUMPDEST PUSH1 0x60 DUP3 ADD MSTORE PUSH1 0x40 DUP4 ADD MLOAD PUSH1 0x0 SWAP1 PUSH2 0xC2D SWAP1 PUSH1 0x1 PUSH1 0x1 PUSH1 0x40 SHL SUB AND PUSH8 0xDE0B6B3A7640000 PUSH2 0x2C14 JUMP JUMPDEST DUP5 MLOAD SWAP1 SWAP2 POP PUSH1 0x0 SWAP1 PUSH2 0xC49 SWAP1 PUSH1 0x1 PUSH1 0x1 PUSH1 0x40 SHL SUB AND PUSH1 0x2 PUSH2 0x2C27 JUMP JUMPDEST PUSH2 0xC54 PUSH1 0x2 DUP5 PUSH2 0x2D22 JUMP JUMPDEST PUSH2 0xC5E SWAP2 SWAP1 PUSH2 0x2D47 JUMP JUMPDEST SWAP1 POP DUP1 PUSH8 0xDE0B6B3A7640000 LT ISZERO PUSH2 0xC77 JUMPI PUSH1 0x0 PUSH2 0xC89 JUMP JUMPDEST PUSH2 0xC89 DUP2 PUSH8 0xDE0B6B3A7640000 PUSH2 0x2C14 JUMP JUMPDEST PUSH1 0x80 DUP5 ADD DUP2 SWAP1 MSTORE DUP4 MLOAD GT SWAP1 POP DUP1 ISZERO PUSH2 0xCA8 JUMPI POP DUP2 PUSH1 0x20 ADD MLOAD DUP3 PUSH1 0x80 ADD MLOAD GT JUMPDEST ISZERO PUSH2 0xCE6 JUMPI PUSH2 0xCE0 DUP3 PUSH1 0x80 ADD MLOAD PUSH8 0xDE0B6B3A7640000 DUP7 PUSH1 0x0 ADD MLOAD PUSH1 0x1 PUSH1 0x1 PUSH1 0x40 SHL SUB AND DUP8 PUSH1 0x20 ADD MLOAD PUSH1 0x1 PUSH1 0x1 PUSH1 0x40 SHL SUB AND DUP6 PUSH2 0x17DA JUMP JUMPDEST PUSH1 0xC0 DUP4 ADD MSTORE JUMPDEST PUSH1 0x2 DUP5 PUSH1 0x40 ADD MLOAD PUSH1 0x1 PUSH1 0x1 PUSH1 0x40 SHL SUB AND PUSH8 0xDE0B6B3A7640000 PUSH2 0xD09 SWAP2 SWAP1 PUSH2 0x2BE4 JUMP JUMPDEST PUSH2 0xD13 SWAP2 SWAP1 PUSH2 0x2D47 JUMP JUMPDEST PUSH1 0xA0 DUP4 ADD MSTORE POP SWAP3 SWAP2 POP POP JUMP JUMPDEST PUSH1 0x0 PUSH2 0xD45 PUSH1 0x40 MLOAD DUP1 PUSH1 0x60 ADD PUSH1 0x40 MSTORE DUP1 PUSH1 0x0 DUP2 MSTORE PUSH1 0x20 ADD PUSH1 0x0 DUP2 MSTORE PUSH1 0x20 ADD PUSH1 0x0 DUP2 MSTORE POP SWAP1 JUMP JUMPDEST DUP6 MLOAD PUSH1 0x40 DUP8 ADD MLOAD PUSH1 0x0 SWAP2 PUSH2 0xD58 SWAP2 PUSH2 0x2BE4 JUMP JUMPDEST SWAP1 POP PUSH2 0xD6C DUP8 PUSH1 0x20 ADD MLOAD DUP9 PUSH1 0x40 ADD MLOAD PUSH2 0xF1F JUMP JUMPDEST PUSH1 0x20 DUP9 ADD MSTORE DUP7 MLOAD PUSH2 0xD7D SWAP1 DUP3 PUSH2 0x1015 JUMP JUMPDEST DUP3 MSTORE PUSH1 0x20 DUP8 ADD MLOAD PUSH2 0xD8E SWAP1 DUP3 PUSH2 0x1015 JUMP JUMPDEST PUSH1 0x20 DUP4 ADD MSTORE PUSH1 0x40 DUP8 ADD MLOAD PUSH2 0xDA2 SWAP1 DUP3 PUSH2 0x1015 JUMP JUMPDEST PUSH1 0x40 DUP4 ADD DUP2 SWAP1 MSTORE PUSH1 0x20 DUP4 ADD MLOAD PUSH1 0x0 SWAP2 PUSH2 0xDBB SWAP2 SWAP1 PUSH2 0x1015 JUMP JUMPDEST SWAP1 POP PUSH8 0xDE0B6B3A7640000 DUP2 LT PUSH2 0xDD7 JUMPI DUP5 SWAP4 POP POP POP POP PUSH2 0xE96 JUMP JUMPDEST DUP7 PUSH1 0x40 ADD MLOAD PUSH1 0x1 PUSH1 0x1 PUSH1 0x40 SHL SUB AND DUP2 GT PUSH2 0xE1F JUMPI PUSH1 0x0 PUSH2 0xE08 DUP10 PUSH1 0x40 ADD MLOAD DUP11 PUSH1 0x20 ADD MLOAD PUSH2 0x1015 SWAP1 SWAP2 SWAP1 PUSH4 0xFFFFFFFF AND JUMP JUMPDEST SWAP1 POP PUSH2 0xE14 DUP2 DUP8 PUSH2 0x18D9 JUMP JUMPDEST SWAP5 POP POP POP POP POP PUSH2 0xE96 JUMP JUMPDEST PUSH1 0x0 PUSH2 0xE2C DUP5 DUP10 DUP10 PUSH2 0x1088 JUMP JUMPDEST SWAP1 POP PUSH1 0x0 PUSH2 0xE3A DUP3 DUP6 PUSH2 0x18D9 JUMP JUMPDEST SWAP1 POP PUSH1 0x0 PUSH2 0xE59 DUP9 DUP13 PUSH1 0x0 ADD MLOAD PUSH2 0xE51 SWAP2 SWAP1 PUSH2 0x2BE4 JUMP JUMPDEST DUP4 DUP8 DUP14 PUSH2 0x18FA JUMP JUMPDEST SWAP1 POP PUSH1 0x0 DUP2 DUP13 PUSH1 0x20 ADD MLOAD PUSH2 0xE6D SWAP2 SWAP1 PUSH2 0x2C14 JUMP JUMPDEST SWAP1 POP DUP9 DUP2 GT ISZERO PUSH2 0xE7A JUMPI POP DUP8 JUMPDEST DUP12 PUSH1 0x40 ADD MLOAD DUP2 GT ISZERO PUSH2 0xE8D JUMPI POP PUSH1 0x40 DUP12 ADD MLOAD JUMPDEST SWAP7 POP POP POP POP POP POP POP JUMPDEST SWAP5 SWAP4 POP POP POP POP JUMP JUMPDEST PUSH1 0x0 DUP4 DUP4 EQ DUP1 PUSH2 0xEAC JUMPI POP DUP5 ISZERO JUMPDEST ISZERO PUSH2 0xEB8 JUMPI POP DUP4 PUSH2 0xE96 JUMP JUMPDEST DUP4 DUP4 LT ISZERO PUSH2 0xEEF JUMPI PUSH1 0x0 PUSH2 0xECC DUP5 DUP7 PUSH2 0x2C14 JUMP JUMPDEST SWAP1 POP PUSH1 0x0 PUSH2 0xEDA DUP5 DUP4 PUSH2 0x198D JUMP JUMPDEST SWAP1 POP PUSH2 0xEE6 DUP8 DUP3 PUSH2 0x18D9 JUMP JUMPDEST SWAP3 POP POP POP PUSH2 0xE96 JUMP JUMPDEST PUSH1 0x40 DUP1 MLOAD DUP1 DUP3 ADD DUP3 MSTORE PUSH1 0x2 DUP2 MSTORE PUSH2 0x3331 PUSH1 0xF0 SHL PUSH1 0x20 DUP3 ADD MSTORE SWAP1 MLOAD PUSH3 0x461BCD PUSH1 0xE5 SHL DUP2 MSTORE PUSH2 0x39F SWAP2 SWAP1 PUSH1 0x4 ADD PUSH2 0x2B80 JUMP JUMPDEST PUSH1 0x40 MLOAD PUSH4 0xBD02D0F5 PUSH1 0xE0 SHL DUP2 MSTORE PUSH21 0x52454445454D5F444953434F554E545F524154494F PUSH1 0x58 SHL PUSH1 0x4 DUP3 ADD MSTORE PUSH1 0x0 SWAP1 DUP2 SWAP1 PUSH1 0x1 PUSH1 0x1 PUSH1 0xA0 SHL SUB PUSH32 0x0 AND SWAP1 PUSH4 0xBD02D0F5 SWAP1 PUSH1 0x24 ADD PUSH1 0x20 PUSH1 0x40 MLOAD DUP1 DUP4 SUB DUP2 DUP7 GAS STATICCALL ISZERO DUP1 ISZERO PUSH2 0xFA0 JUMPI RETURNDATASIZE PUSH1 0x0 DUP1 RETURNDATACOPY RETURNDATASIZE PUSH1 0x0 REVERT JUMPDEST POP POP POP POP PUSH1 0x40 MLOAD RETURNDATASIZE PUSH1 0x1F NOT PUSH1 0x1F DUP3 ADD AND DUP3 ADD DUP1 PUSH1 0x40 MSTORE POP DUP2 ADD SWAP1 PUSH2 0xFC4 SWAP2 SWAP1 PUSH2 0x2D5B JUMP JUMPDEST SWAP1 POP PUSH2 0xFD0 DUP2 DUP5 PUSH2 0x18D9 JUMP JUMPDEST PUSH2 0xFDB SWAP1 PUSH1 0x2 PUSH2 0x2C27 JUMP JUMPDEST DUP5 GT ISZERO PUSH2 0x100D JUMPI PUSH1 0x0 PUSH2 0xFEE DUP3 DUP6 PUSH2 0x18D9 JUMP JUMPDEST PUSH2 0xFF8 SWAP1 DUP7 PUSH2 0x2C14 JUMP JUMPDEST SWAP1 POP PUSH2 0x1004 DUP2 DUP6 PUSH2 0x19DC JUMP JUMPDEST SWAP3 POP POP POP PUSH2 0x3AD JUMP JUMPDEST POP SWAP2 SWAP3 SWAP2 POP POP JUMP JUMPDEST PUSH1 0x40 DUP1 MLOAD DUP1 DUP3 ADD SWAP1 SWAP2 MSTORE PUSH1 0x2 DUP2 MSTORE PUSH2 0x3235 PUSH1 0xF0 SHL PUSH1 0x20 DUP3 ADD MSTORE PUSH1 0x0 SWAP1 DUP3 PUSH2 0x104F JUMPI PUSH1 0x40 MLOAD PUSH3 0x461BCD PUSH1 0xE5 SHL DUP2 MSTORE PUSH1 0x4 ADD PUSH2 0x39F SWAP2 SWAP1 PUSH2 0x2B80 JUMP JUMPDEST POP DUP3 PUSH1 0x0 SUB PUSH2 0x1060 JUMPI POP PUSH1 0x0 PUSH2 0x3AD JUMP JUMPDEST PUSH1 0x0 PUSH2 0x1074 PUSH8 0xDE0B6B3A7640000 DUP6 PUSH2 0x2C27 JUMP JUMPDEST SWAP1 POP PUSH2 0x1080 DUP4 DUP3 PUSH2 0x2D47 JUMP JUMPDEST SWAP2 POP POP PUSH2 0x3AD JUMP JUMPDEST PUSH1 0x0 PUSH2 0x1092 PUSH2 0x29FE JUMP JUMPDEST PUSH1 0x0 PUSH2 0x109F DUP7 DUP7 DUP7 PUSH2 0x19F2 JUMP JUMPDEST PUSH8 0xDE0B6B3A7640000 DUP4 MSTORE PUSH1 0x40 DUP8 ADD MLOAD PUSH1 0x20 DUP9 ADD MLOAD SWAP2 SWAP3 POP PUSH2 0x10C1 SWAP2 SWAP1 PUSH2 0x1015 JUMP JUMPDEST PUSH1 0x20 DUP4 ADD DUP2 SWAP1 MSTORE PUSH2 0x10DA SWAP1 PUSH8 0xDE0B6B3A7640000 PUSH2 0x2C14 JUMP JUMPDEST PUSH1 0x60 DUP4 ADD MSTORE PUSH1 0x40 DUP6 ADD MLOAD PUSH2 0x10FF SWAP1 PUSH1 0x1 PUSH1 0x1 PUSH1 0x40 SHL SUB AND PUSH8 0xDE0B6B3A7640000 PUSH2 0x2C14 JUMP JUMPDEST PUSH1 0x80 DUP4 ADD MSTORE PUSH1 0x0 DUP2 PUSH1 0x6 DUP2 GT ISZERO PUSH2 0x1118 JUMPI PUSH2 0x1118 PUSH2 0x2D74 JUMP JUMPDEST SUB PUSH2 0x1137 JUMPI DUP6 MLOAD PUSH1 0x20 DUP8 ADD MLOAD PUSH2 0x112E SWAP2 SWAP1 PUSH2 0x2BE4 JUMP JUMPDEST SWAP3 POP POP POP PUSH2 0x317 JUMP JUMPDEST PUSH1 0x1 DUP2 PUSH1 0x6 DUP2 GT ISZERO PUSH2 0x114B JUMPI PUSH2 0x114B PUSH2 0x2D74 JUMP JUMPDEST SUB PUSH2 0x11C7 JUMPI PUSH1 0x0 DUP6 PUSH1 0x20 ADD MLOAD PUSH1 0x1 PUSH1 0x1 PUSH1 0x40 SHL SUB AND DUP8 PUSH1 0x0 ADD MLOAD PUSH2 0x116F SWAP2 SWAP1 PUSH2 0x2C14 JUMP JUMPDEST SWAP1 POP PUSH8 0x1BC16D674EC80000 PUSH2 0x1183 DUP3 PUSH2 0x1BF6 JUMP JUMPDEST DUP8 MLOAD PUSH2 0x1198 SWAP2 SWAP1 PUSH1 0x1 PUSH1 0x1 PUSH1 0x40 SHL SUB AND PUSH2 0x2C27 JUMP JUMPDEST PUSH2 0x11A2 SWAP2 SWAP1 PUSH2 0x2D47 JUMP JUMPDEST DUP8 MLOAD PUSH1 0x20 DUP10 ADD MLOAD PUSH2 0x11B3 SWAP2 SWAP1 PUSH2 0x2BE4 JUMP JUMPDEST PUSH2 0x11BD SWAP2 SWAP1 PUSH2 0x2C14 JUMP JUMPDEST SWAP4 POP POP POP POP PUSH2 0x317 JUMP JUMPDEST PUSH1 0x2 DUP2 PUSH1 0x6 DUP2 GT ISZERO PUSH2 0x11DB JUMPI PUSH2 0x11DB PUSH2 0x2D74 JUMP JUMPDEST SUB PUSH2 0x1252 JUMPI DUP5 MLOAD PUSH2 0x11F6 SWAP1 PUSH1 0x1 PUSH1 0x1 PUSH1 0x40 SHL SUB AND PUSH1 0x2 PUSH2 0x2C27 JUMP JUMPDEST PUSH1 0x2 DUP4 PUSH1 0x60 ADD MLOAD PUSH2 0x1207 SWAP2 SWAP1 PUSH2 0x2D22 JUMP JUMPDEST PUSH2 0x1211 SWAP2 SWAP1 PUSH2 0x2D47 JUMP JUMPDEST PUSH2 0x123C DUP4 PUSH1 0x60 ADD MLOAD DUP8 PUSH1 0x20 ADD MLOAD PUSH1 0x1 PUSH1 0x1 PUSH1 0x40 SHL SUB AND DUP6 PUSH1 0x0 ADD MLOAD PUSH2 0x1236 SWAP2 SWAP1 PUSH2 0x2C14 JUMP JUMPDEST SWAP1 PUSH2 0x18D9 JUMP JUMPDEST DUP4 MLOAD PUSH2 0x1248 SWAP2 SWAP1 PUSH2 0x2C14 JUMP JUMPDEST PUSH2 0x112E SWAP2 SWAP1 PUSH2 0x2BE4 JUMP JUMPDEST PUSH1 0x3 DUP2 PUSH1 0x6 DUP2 GT ISZERO PUSH2 0x1266 JUMPI PUSH2 0x1266 PUSH2 0x2D74 JUMP JUMPDEST SUB PUSH2 0x12E1 JUMPI PUSH1 0x0 PUSH8 0x1BC16D674EC80000 PUSH2 0x12B2 PUSH1 0x2 DUP10 PUSH1 0x40 ADD MLOAD PUSH2 0x128A SWAP2 SWAP1 PUSH2 0x2D47 JUMP JUMPDEST DUP9 MLOAD PUSH1 0x60 DUP8 ADD MLOAD PUSH2 0x12A3 SWAP2 PUSH1 0x1 PUSH1 0x1 PUSH1 0x40 SHL SUB AND PUSH2 0x1015 JUMP JUMPDEST PUSH2 0x12AD SWAP2 SWAP1 PUSH2 0x2BE4 JUMP JUMPDEST PUSH2 0x1BF6 JUMP JUMPDEST DUP8 MLOAD PUSH2 0x12C7 SWAP2 SWAP1 PUSH1 0x1 PUSH1 0x1 PUSH1 0x40 SHL SUB AND PUSH2 0x2C27 JUMP JUMPDEST PUSH2 0x12D1 SWAP2 SWAP1 PUSH2 0x2D47 JUMP JUMPDEST DUP4 MLOAD SWAP1 SWAP2 POP PUSH2 0x11BD SWAP1 DUP3 SWAP1 PUSH2 0x2C14 JUMP JUMPDEST PUSH1 0x4 DUP2 PUSH1 0x6 DUP2 GT ISZERO PUSH2 0x12F5 JUMPI PUSH2 0x12F5 PUSH2 0x2D74 JUMP JUMPDEST SUB PUSH2 0x13DC JUMPI PUSH1 0x0 PUSH2 0x1341 DUP8 PUSH1 0x40 ADD MLOAD PUSH2 0x132C DUP9 PUSH1 0x0 ADD MLOAD PUSH1 0x1 PUSH1 0x1 PUSH1 0x40 SHL SUB AND PUSH1 0x2 PUSH2 0x1321 SWAP2 SWAP1 PUSH2 0x2C27 JUMP JUMPDEST PUSH1 0x80 DUP8 ADD MLOAD SWAP1 PUSH2 0x1015 JUMP JUMPDEST PUSH2 0x1336 SWAP2 SWAP1 PUSH2 0x2BE4 JUMP JUMPDEST PUSH1 0x80 DUP6 ADD MLOAD SWAP1 PUSH2 0x18D9 JUMP JUMPDEST SWAP1 POP PUSH1 0x0 PUSH2 0x13A4 PUSH2 0x136C DUP9 PUSH1 0x40 ADD MLOAD PUSH1 0x1 PUSH1 0x1 PUSH1 0x40 SHL SUB AND DUP11 PUSH1 0x40 ADD MLOAD PUSH2 0x18D9 SWAP1 SWAP2 SWAP1 PUSH4 0xFFFFFFFF AND JUMP JUMPDEST DUP10 PUSH1 0x20 ADD MLOAD PUSH2 0x137B SWAP2 SWAP1 PUSH2 0x2C14 JUMP JUMPDEST DUP9 PUSH1 0x0 ADD MLOAD PUSH1 0x1 PUSH1 0x1 PUSH1 0x40 SHL SUB AND PUSH1 0x2 DUP8 PUSH1 0x80 ADD MLOAD PUSH2 0x139A SWAP2 SWAP1 PUSH2 0x2D22 JUMP JUMPDEST PUSH2 0x1236 SWAP2 SWAP1 PUSH2 0x2D47 JUMP JUMPDEST PUSH2 0x13AF SWAP1 PUSH1 0x2 PUSH2 0x2C27 JUMP JUMPDEST SWAP1 POP DUP2 PUSH2 0x13BB DUP3 PUSH2 0x1C02 JUMP JUMPDEST DUP6 MLOAD PUSH2 0x13C7 SWAP2 SWAP1 PUSH2 0x2BE4 JUMP JUMPDEST PUSH2 0x13D1 SWAP2 SWAP1 PUSH2 0x2C14 JUMP JUMPDEST SWAP5 POP POP POP POP POP PUSH2 0x317 JUMP JUMPDEST PUSH1 0x5 DUP2 PUSH1 0x6 DUP2 GT ISZERO PUSH2 0x13F0 JUMPI PUSH2 0x13F0 PUSH2 0x2D74 JUMP JUMPDEST SUB PUSH2 0x1433 JUMPI PUSH1 0x0 PUSH2 0x12D1 PUSH2 0x1407 DUP9 PUSH1 0x0 ADD MLOAD PUSH2 0x1BF6 JUMP JUMPDEST PUSH2 0x1419 SWAP1 PUSH8 0xDE0B6B3A7640000 PUSH2 0x2C14 JUMP JUMPDEST DUP9 PUSH1 0x20 ADD MLOAD DUP10 PUSH1 0x40 ADD MLOAD PUSH2 0x142D SWAP2 SWAP1 PUSH2 0x2C14 JUMP JUMPDEST SWAP1 PUSH2 0x1015 JUMP JUMPDEST PUSH1 0x6 DUP2 PUSH1 0x6 DUP2 GT ISZERO PUSH2 0x1447 JUMPI PUSH2 0x1447 PUSH2 0x2D74 JUMP JUMPDEST SUB PUSH2 0x1516 JUMPI PUSH1 0x0 PUSH1 0x2 DUP4 PUSH1 0x80 ADD MLOAD DUP9 PUSH1 0x20 ADD MLOAD DUP10 PUSH1 0x40 ADD MLOAD PUSH2 0x1469 SWAP2 SWAP1 PUSH2 0x2C14 JUMP JUMPDEST PUSH2 0x1473 SWAP2 SWAP1 PUSH2 0x2BE4 JUMP JUMPDEST PUSH2 0x147D SWAP2 SWAP1 PUSH2 0x2D47 JUMP JUMPDEST SWAP1 POP PUSH1 0x0 PUSH1 0x4 PUSH2 0x14A0 PUSH2 0x1493 DUP11 PUSH1 0x0 ADD MLOAD PUSH2 0x1BF6 JUMP JUMPDEST PUSH2 0x1236 DUP8 PUSH1 0x80 ADD MLOAD PUSH2 0x1BF6 JUMP JUMPDEST PUSH2 0x14AA SWAP2 SWAP1 PUSH2 0x2D47 JUMP JUMPDEST PUSH2 0x14C6 DUP6 PUSH1 0x80 ADD MLOAD DUP11 PUSH1 0x20 ADD MLOAD DUP12 PUSH1 0x40 ADD MLOAD PUSH2 0x1236 SWAP2 SWAP1 PUSH2 0x2C14 JUMP JUMPDEST PUSH2 0x14D0 SWAP2 SWAP1 PUSH2 0x2BE4 JUMP JUMPDEST SWAP1 POP PUSH1 0x0 PUSH2 0x14F0 DUP3 PUSH2 0x14E1 DUP6 PUSH2 0x1BF6 JUMP JUMPDEST PUSH2 0x14EB SWAP2 SWAP1 PUSH2 0x2C14 JUMP JUMPDEST PUSH2 0x1C02 JUMP JUMPDEST PUSH2 0x14FA SWAP1 DUP5 PUSH2 0x2C14 JUMP JUMPDEST DUP6 MLOAD SWAP1 SWAP2 POP PUSH2 0x150A SWAP1 DUP3 SWAP1 PUSH2 0x2C14 JUMP JUMPDEST SWAP6 POP POP POP POP POP POP PUSH2 0x317 JUMP JUMPDEST PUSH1 0x40 MLOAD PUSH3 0x461BCD PUSH1 0xE5 SHL DUP2 MSTORE PUSH1 0x20 PUSH1 0x4 DUP3 ADD MSTORE PUSH1 0xE PUSH1 0x24 DUP3 ADD MSTORE PUSH14 0x3AB735B737BBB7103932B3B4B7B7 PUSH1 0x91 SHL PUSH1 0x44 DUP3 ADD MSTORE PUSH1 0x64 ADD PUSH2 0x39F JUMP JUMPDEST PUSH1 0x0 PUSH2 0x1583 PUSH32 0x0 PUSH1 0x1 PUSH1 0x1 PUSH1 0xA0 SHL SUB AND PUSH2 0xA12 JUMP JUMPDEST PUSH1 0x1 PUSH1 0x1 PUSH1 0xA0 SHL SUB AND PUSH4 0xC1BD8CF9 PUSH1 0x40 MLOAD DUP2 PUSH4 0xFFFFFFFF AND PUSH1 0xE0 SHL DUP2 MSTORE PUSH1 0x4 ADD PUSH1 0x20 PUSH1 0x40 MLOAD DUP1 DUP4 SUB DUP2 DUP7 GAS STATICCALL ISZERO DUP1 ISZERO PUSH2 0x15C0 JUMPI RETURNDATASIZE PUSH1 0x0 DUP1 RETURNDATACOPY RETURNDATASIZE PUSH1 0x0 REVERT JUMPDEST POP POP POP POP PUSH1 0x40 MLOAD RETURNDATASIZE PUSH1 0x1F NOT PUSH1 0x1F DUP3 ADD AND DUP3 ADD DUP1 PUSH1 0x40 MSTORE POP DUP2 ADD SWAP1 PUSH2 0x69C SWAP2 SWAP1 PUSH2 0x2D5B JUMP JUMPDEST PUSH1 0x0 DUP3 PUSH8 0xDE0B6B3A7640000 LT ISZERO PUSH2 0x163E JUMPI PUSH1 0x40 MLOAD PUSH3 0x461BCD PUSH1 0xE5 SHL DUP2 MSTORE PUSH1 0x20 PUSH1 0x4 DUP3 ADD MSTORE PUSH1 0x1A PUSH1 0x24 DUP3 ADD MSTORE PUSH32 0x7961206D7573742062652067726561746572207468616E207875000000000000 PUSH1 0x44 DUP3 ADD MSTORE PUSH1 0x64 ADD PUSH2 0x39F JUMP JUMPDEST DUP2 MLOAD PUSH1 0x1 PUSH1 0x1 PUSH1 0x40 SHL SUB AND PUSH1 0x0 PUSH2 0x165D DUP6 PUSH8 0xDE0B6B3A7640000 PUSH2 0x2C14 JUMP JUMPDEST SWAP1 POP PUSH2 0x1669 DUP3 DUP3 PUSH2 0x18D9 JUMP JUMPDEST DUP5 PUSH1 0x40 ADD MLOAD PUSH1 0x1 PUSH1 0x1 PUSH1 0x40 SHL SUB AND PUSH2 0x1681 SWAP2 SWAP1 PUSH2 0x2BE4 JUMP JUMPDEST PUSH8 0xDE0B6B3A7640000 LT PUSH2 0x16C7 JUMPI PUSH8 0x1BC16D674EC80000 PUSH2 0x16A1 DUP3 PUSH2 0x1BF6 JUMP JUMPDEST PUSH2 0x16AB SWAP1 DUP5 PUSH2 0x2C27 JUMP JUMPDEST PUSH2 0x16B5 SWAP2 SWAP1 PUSH2 0x2D47 JUMP JUMPDEST PUSH2 0x1004 SWAP1 PUSH8 0xDE0B6B3A7640000 PUSH2 0x2C14 JUMP JUMPDEST PUSH1 0x0 DUP5 PUSH1 0x40 ADD MLOAD PUSH1 0x1 PUSH1 0x1 PUSH1 0x40 SHL SUB AND PUSH8 0xDE0B6B3A7640000 PUSH2 0x16EA SWAP2 SWAP1 PUSH2 0x2C14 JUMP JUMPDEST SWAP1 POP PUSH2 0x16F7 DUP4 PUSH1 0x2 PUSH2 0x2C27 JUMP JUMPDEST PUSH2 0x1702 PUSH1 0x2 DUP4 PUSH2 0x2D22 JUMP JUMPDEST PUSH2 0x170C SWAP2 SWAP1 PUSH2 0x2D47 JUMP JUMPDEST PUSH2 0x1716 DUP3 DUP5 PUSH2 0x18D9 JUMP JUMPDEST PUSH2 0x1728 SWAP1 PUSH8 0xDE0B6B3A7640000 PUSH2 0x2C14 JUMP JUMPDEST PUSH2 0x545 SWAP2 SWAP1 PUSH2 0x2BE4 JUMP JUMPDEST PUSH1 0x0 DUP4 DUP6 LT PUSH1 0x40 MLOAD DUP1 PUSH1 0x40 ADD PUSH1 0x40 MSTORE DUP1 PUSH1 0x2 DUP2 MSTORE PUSH1 0x20 ADD PUSH2 0x3331 PUSH1 0xF0 SHL DUP2 MSTORE POP SWAP1 PUSH2 0x1770 JUMPI PUSH1 0x40 MLOAD PUSH3 0x461BCD PUSH1 0xE5 SHL DUP2 MSTORE PUSH1 0x4 ADD PUSH2 0x39F SWAP2 SWAP1 PUSH2 0x2B80 JUMP JUMPDEST POP PUSH1 0x0 PUSH2 0x1785 PUSH2 0x1780 DUP5 DUP8 PUSH2 0x2C14 JUMP JUMPDEST PUSH2 0x1C20 JUMP JUMPDEST SWAP1 POP PUSH1 0x0 DUP5 PUSH2 0x1794 DUP9 DUP9 PUSH2 0x2C14 JUMP JUMPDEST PUSH2 0x17A6 SWAP1 PUSH8 0x1BC16D674EC80000 PUSH2 0x2C27 JUMP JUMPDEST PUSH2 0x17B0 SWAP2 SWAP1 PUSH2 0x2D47 JUMP JUMPDEST SWAP1 POP DUP1 DUP3 LT PUSH2 0x17D0 JUMPI PUSH2 0x17C6 PUSH2 0x14EB DUP3 DUP5 PUSH2 0x2C14 JUMP JUMPDEST PUSH2 0xEE6 SWAP1 DUP8 PUSH2 0x2C14 JUMP JUMPDEST DUP6 SWAP3 POP POP POP PUSH2 0xE96 JUMP JUMPDEST PUSH1 0x0 DUP1 PUSH2 0x17E7 DUP8 DUP8 PUSH2 0x2C14 JUMP JUMPDEST SWAP1 POP PUSH1 0x0 PUSH2 0x17F5 DUP6 DUP9 PUSH2 0x18D9 JUMP JUMPDEST SWAP1 POP PUSH1 0x0 PUSH8 0x1BC16D674EC80000 PUSH2 0x180D PUSH1 0x2 DUP8 PUSH2 0x2D22 JUMP JUMPDEST PUSH2 0x1817 SWAP2 SWAP1 PUSH2 0x2D47 JUMP JUMPDEST PUSH2 0x1821 DUP9 DUP6 PUSH2 0x18D9 JUMP JUMPDEST GT PUSH2 0x1877 JUMPI PUSH1 0x0 DUP8 PUSH2 0x183B DUP6 PUSH8 0x1BC16D674EC80000 PUSH2 0x2C27 JUMP JUMPDEST PUSH2 0x1845 SWAP2 SWAP1 PUSH2 0x2D47 JUMP JUMPDEST SWAP1 POP PUSH1 0x0 PUSH2 0x1852 DUP3 PUSH2 0x1C02 JUMP JUMPDEST SWAP1 POP DUP10 DUP2 LT ISZERO PUSH2 0x186B JUMPI PUSH2 0x1866 DUP2 DUP12 PUSH2 0x2C14 JUMP JUMPDEST PUSH2 0x186E JUMP JUMPDEST PUSH1 0x0 JUMPDEST SWAP3 POP POP POP PUSH2 0x18C2 JUMP JUMPDEST PUSH1 0x0 PUSH2 0x188E PUSH2 0x1887 DUP10 PUSH1 0x2 PUSH2 0x2C27 JUMP JUMPDEST DUP8 SWAP1 PUSH2 0x1015 JUMP JUMPDEST PUSH2 0x1898 DUP6 DUP9 PUSH2 0x1015 JUMP JUMPDEST PUSH2 0x18A2 SWAP2 SWAP1 PUSH2 0x2BE4 JUMP JUMPDEST SWAP1 POP DUP9 DUP2 LT ISZERO PUSH2 0x18BB JUMPI PUSH2 0x18B6 DUP2 DUP11 PUSH2 0x2C14 JUMP JUMPDEST PUSH2 0x18BE JUMP JUMPDEST PUSH1 0x0 JUMPDEST SWAP2 POP POP JUMPDEST PUSH2 0x18CC DUP2 DUP4 PUSH2 0x19DC JUMP JUMPDEST SWAP10 SWAP9 POP POP POP POP POP POP POP POP POP JUMP JUMPDEST PUSH1 0x0 DUP1 PUSH2 0x18E6 DUP4 DUP6 PUSH2 0x2C27 JUMP JUMPDEST SWAP1 POP PUSH2 0xE96 PUSH8 0xDE0B6B3A7640000 DUP3 PUSH2 0x2D47 JUMP JUMPDEST PUSH1 0x0 DUP1 PUSH2 0x1923 DUP6 DUP6 DUP6 PUSH1 0x40 ADD MLOAD PUSH1 0x1 PUSH1 0x1 PUSH1 0x40 SHL SUB AND DUP7 PUSH1 0x0 ADD MLOAD PUSH1 0x1 PUSH1 0x1 PUSH1 0x40 SHL SUB AND PUSH2 0x1C2C JUMP JUMPDEST SWAP1 POP PUSH1 0x0 PUSH2 0x1961 DUP7 DUP7 DUP5 DUP8 PUSH1 0x20 ADD MLOAD PUSH1 0x1 PUSH1 0x1 PUSH1 0x40 SHL SUB AND DUP9 PUSH1 0x40 ADD MLOAD PUSH1 0x1 PUSH1 0x1 PUSH1 0x40 SHL SUB AND PUSH8 0xDE0B6B3A7640000 PUSH2 0x195C SWAP2 SWAP1 PUSH2 0x2C14 JUMP JUMPDEST PUSH2 0x17DA JUMP JUMPDEST SWAP1 POP PUSH1 0x0 PUSH2 0x1971 DUP8 DUP8 DUP6 DUP6 PUSH2 0x1732 JUMP JUMPDEST SWAP1 POP PUSH2 0x1981 DUP9 DUP9 DUP9 DUP7 DUP7 DUP7 PUSH2 0x1CFC JUMP JUMPDEST SWAP9 SWAP8 POP POP POP POP POP POP POP POP JUMP JUMPDEST PUSH1 0x0 PUSH8 0xDE0B6B3A7640000 JUMPDEST DUP3 ISZERO PUSH2 0x317 JUMPI PUSH2 0x19AA PUSH1 0x2 DUP5 PUSH2 0x2D8A JUMP JUMPDEST PUSH1 0x1 SUB PUSH2 0x19BE JUMPI PUSH2 0x19BB DUP2 DUP6 PUSH2 0x18D9 JUMP JUMPDEST SWAP1 POP JUMPDEST PUSH2 0x19C9 PUSH1 0x2 DUP5 PUSH2 0x2D47 JUMP JUMPDEST SWAP3 POP PUSH2 0x19D5 DUP5 DUP6 PUSH2 0x18D9 JUMP JUMPDEST SWAP4 POP PUSH2 0x1999 JUMP JUMPDEST PUSH1 0x0 DUP2 DUP4 LT PUSH2 0x19EB JUMPI DUP2 PUSH2 0x317 JUMP JUMPDEST POP SWAP1 SWAP2 SWAP1 POP JUMP JUMPDEST PUSH1 0x0 PUSH2 0x19FF DUP5 DUP5 DUP5 PUSH2 0x1E0C JUMP JUMPDEST ISZERO PUSH2 0x1A9C JUMPI DUP3 PUSH1 0x20 ADD MLOAD PUSH1 0x1 PUSH1 0x1 PUSH1 0x40 SHL SUB AND DUP5 PUSH1 0x0 ADD MLOAD GT PUSH2 0x1A24 JUMPI POP PUSH1 0x0 PUSH2 0x317 JUMP JUMPDEST PUSH1 0x0 PUSH2 0x1A57 DUP5 PUSH1 0x20 ADD MLOAD PUSH1 0x1 PUSH1 0x1 PUSH1 0x40 SHL SUB AND DUP7 PUSH1 0x0 ADD MLOAD PUSH2 0x1A46 SWAP2 SWAP1 PUSH2 0x2C14 JUMP JUMPDEST DUP6 MLOAD PUSH1 0x1 PUSH1 0x1 PUSH1 0x40 SHL SUB AND SWAP1 PUSH2 0x18D9 JUMP JUMPDEST PUSH1 0x40 DUP7 ADD MLOAD PUSH1 0x20 DUP8 ADD MLOAD PUSH2 0x1A6A SWAP2 PUSH2 0x1015 JUMP JUMPDEST PUSH2 0x1A74 SWAP2 SWAP1 PUSH2 0x2BE4 JUMP JUMPDEST SWAP1 POP PUSH8 0xDE0B6B3A7640000 DUP1 DUP3 GT PUSH2 0x1A91 JUMPI PUSH1 0x1 SWAP3 POP POP POP PUSH2 0x317 JUMP JUMPDEST PUSH1 0x2 SWAP3 POP POP POP PUSH2 0x317 JUMP JUMPDEST PUSH2 0x1AB4 DUP5 DUP5 PUSH1 0x0 ADD MLOAD PUSH1 0x1 PUSH1 0x1 PUSH1 0x40 SHL SUB AND DUP5 PUSH2 0x1E5A JUMP JUMPDEST ISZERO PUSH2 0x1BD4 JUMPI PUSH2 0x1AD1 DUP5 DUP5 PUSH1 0x0 ADD MLOAD PUSH1 0x1 PUSH1 0x1 PUSH1 0x40 SHL SUB AND DUP5 PUSH2 0x1E7F JUMP JUMPDEST ISZERO PUSH2 0x1B37 JUMPI PUSH8 0x1BC16D674EC80000 DUP4 PUSH1 0x0 ADD MLOAD PUSH1 0x1 PUSH1 0x1 PUSH1 0x40 SHL SUB AND PUSH2 0x1AFA DUP7 PUSH1 0x40 ADD MLOAD PUSH2 0x1BF6 JUMP JUMPDEST PUSH2 0x1B04 SWAP2 SWAP1 PUSH2 0x2C27 JUMP JUMPDEST PUSH2 0x1B0E SWAP2 SWAP1 PUSH2 0x2D47 JUMP JUMPDEST DUP5 PUSH1 0x20 ADD MLOAD DUP6 PUSH1 0x40 ADD MLOAD PUSH2 0x1B22 SWAP2 SWAP1 PUSH2 0x2C14 JUMP JUMPDEST GT PUSH2 0x1B2F JUMPI POP PUSH1 0x0 PUSH2 0x317 JUMP JUMPDEST POP PUSH1 0x3 PUSH2 0x317 JUMP JUMPDEST PUSH1 0x0 DUP4 PUSH1 0x40 ADD MLOAD PUSH1 0x1 PUSH1 0x1 PUSH1 0x40 SHL SUB AND PUSH8 0xDE0B6B3A7640000 PUSH2 0x1B5A SWAP2 SWAP1 PUSH2 0x2C14 JUMP JUMPDEST DUP5 MLOAD SWAP1 SWAP2 POP PUSH2 0x1B73 SWAP1 PUSH1 0x1 PUSH1 0x1 PUSH1 0x40 SHL SUB AND PUSH1 0x2 PUSH2 0x2C27 JUMP JUMPDEST PUSH2 0x1B7E PUSH1 0x2 DUP4 PUSH2 0x2D22 JUMP JUMPDEST PUSH2 0x1B88 SWAP2 SWAP1 PUSH2 0x2D47 JUMP JUMPDEST PUSH2 0x1BAC DUP7 PUSH1 0x40 ADD MLOAD DUP7 PUSH1 0x40 ADD MLOAD PUSH1 0x1 PUSH1 0x1 PUSH1 0x40 SHL SUB AND PUSH2 0x18D9 SWAP1 SWAP2 SWAP1 PUSH4 0xFFFFFFFF AND JUMP JUMPDEST DUP7 PUSH1 0x20 ADD MLOAD PUSH2 0x1BBB SWAP2 SWAP1 PUSH2 0x2C14 JUMP JUMPDEST LT PUSH2 0x1BCA JUMPI PUSH1 0x0 SWAP2 POP POP PUSH2 0x317 JUMP JUMPDEST PUSH1 0x4 SWAP2 POP POP PUSH2 0x317 JUMP JUMPDEST PUSH2 0x1BDF DUP5 DUP5 DUP5 PUSH2 0x1ED7 JUMP JUMPDEST ISZERO PUSH2 0x1BEC JUMPI POP PUSH1 0x5 PUSH2 0x317 JUMP JUMPDEST POP PUSH1 0x6 SWAP4 SWAP3 POP POP POP JUMP JUMPDEST PUSH1 0x0 PUSH2 0x3AD DUP3 DUP4 PUSH2 0x18D9 JUMP JUMPDEST PUSH1 0x0 PUSH2 0x3AD DUP3 PUSH2 0x1C1B PUSH1 0x2 PUSH8 0xDE0B6B3A7640000 PUSH2 0x2D47 JUMP JUMPDEST PUSH2 0x1F38 JUMP JUMPDEST PUSH1 0x0 PUSH2 0x3AD DUP3 DUP4 PUSH2 0x20CA JUMP JUMPDEST PUSH1 0x0 DUP1 PUSH2 0x1C39 DUP7 DUP7 PUSH2 0x1015 JUMP JUMPDEST SWAP1 POP PUSH1 0x0 PUSH2 0x1C47 DUP5 DUP8 PUSH2 0x1015 JUMP JUMPDEST SWAP1 POP PUSH1 0x0 PUSH1 0x2 PUSH2 0x1C5F DUP8 PUSH8 0xDE0B6B3A7640000 PUSH2 0x2BE4 JUMP JUMPDEST PUSH2 0x1C69 SWAP2 SWAP1 PUSH2 0x2D47 JUMP JUMPDEST DUP4 LT PUSH2 0x1C9E JUMPI PUSH2 0x1C97 DUP8 PUSH2 0x142D PUSH2 0x1C88 DUP7 PUSH8 0xDE0B6B3A7640000 PUSH2 0x2C14 JUMP JUMPDEST PUSH8 0x1BC16D674EC80000 SWAP1 PUSH2 0x18D9 JUMP JUMPDEST SWAP1 POP PUSH2 0x1CF2 JUMP JUMPDEST PUSH1 0x0 PUSH1 0x2 PUSH2 0x1CB4 DUP9 PUSH8 0xDE0B6B3A7640000 PUSH2 0x2C14 JUMP JUMPDEST PUSH2 0x1CBE SWAP2 SWAP1 PUSH2 0x2D22 JUMP JUMPDEST SWAP1 POP PUSH1 0x0 PUSH2 0x1CCC DUP9 DUP11 PUSH2 0x18D9 JUMP JUMPDEST PUSH2 0x1CD6 SWAP1 DUP12 PUSH2 0x2C14 JUMP JUMPDEST SWAP1 POP PUSH2 0x1CE3 DUP2 PUSH1 0x2 PUSH2 0x2C27 JUMP JUMPDEST PUSH2 0x1CED SWAP1 DUP4 PUSH2 0x2D47 JUMP JUMPDEST SWAP3 POP POP POP JUMPDEST PUSH2 0x1981 DUP2 DUP4 PUSH2 0x2114 JUMP JUMPDEST PUSH1 0x0 DUP3 DUP8 GT PUSH2 0x1D16 JUMPI PUSH2 0x1D0F DUP8 DUP8 PUSH2 0x2C14 JUMP JUMPDEST SWAP1 POP PUSH2 0x545 JUMP JUMPDEST DUP2 DUP8 GT PUSH2 0x1DCE JUMPI PUSH1 0x0 PUSH8 0x1BC16D674EC80000 PUSH2 0x1D35 PUSH2 0x12AD DUP7 DUP12 PUSH2 0x2C14 JUMP JUMPDEST PUSH2 0x1D3F SWAP1 DUP8 PUSH2 0x2C27 JUMP JUMPDEST PUSH2 0x1D49 SWAP2 SWAP1 PUSH2 0x2D47 JUMP JUMPDEST PUSH2 0x1D53 SWAP1 DUP9 PUSH2 0x2BE4 JUMP JUMPDEST SWAP1 POP DUP8 DUP2 LT PUSH2 0x1D6E JUMPI PUSH2 0x1D66 DUP9 DUP3 PUSH2 0x2C14 JUMP JUMPDEST SWAP2 POP POP PUSH2 0x545 JUMP JUMPDEST DUP8 PUSH2 0x1D7E PUSH5 0x2540BE400 DUP9 PUSH2 0x18D9 JUMP JUMPDEST PUSH2 0x1D88 SWAP1 DUP4 PUSH2 0x2BE4 JUMP JUMPDEST LT ISZERO PUSH1 0x40 MLOAD DUP1 PUSH1 0x40 ADD PUSH1 0x40 MSTORE DUP1 PUSH1 0x2 DUP2 MSTORE PUSH1 0x20 ADD PUSH2 0x3237 PUSH1 0xF0 SHL DUP2 MSTORE POP SWAP1 PUSH2 0x1DC3 JUMPI PUSH1 0x40 MLOAD PUSH3 0x461BCD PUSH1 0xE5 SHL DUP2 MSTORE PUSH1 0x4 ADD PUSH2 0x39F SWAP2 SWAP1 PUSH2 0x2B80 JUMP JUMPDEST POP PUSH1 0x0 SWAP2 POP POP PUSH2 0x545 JUMP JUMPDEST PUSH1 0x0 PUSH2 0x1DE4 PUSH2 0x1DDD DUP6 DUP6 PUSH2 0x2C14 JUMP JUMPDEST DUP7 SWAP1 PUSH2 0x18D9 JUMP JUMPDEST PUSH2 0x1DF6 SWAP1 PUSH8 0xDE0B6B3A7640000 PUSH2 0x2C14 JUMP JUMPDEST SWAP1 POP PUSH2 0x1981 PUSH2 0x1E05 DUP10 DUP9 PUSH2 0x2C14 JUMP JUMPDEST DUP3 SWAP1 PUSH2 0x18D9 JUMP JUMPDEST PUSH1 0x0 PUSH2 0x1E4A DUP5 PUSH1 0x0 ADD MLOAD DUP4 PUSH1 0x0 ADD MLOAD PUSH8 0xDE0B6B3A7640000 DUP7 PUSH1 0x0 ADD MLOAD PUSH1 0x1 PUSH1 0x1 PUSH1 0x40 SHL SUB AND DUP8 PUSH1 0x20 ADD MLOAD PUSH1 0x1 PUSH1 0x1 PUSH1 0x40 SHL SUB AND DUP8 PUSH1 0x40 ADD MLOAD PUSH2 0x1CFC JUMP JUMPDEST DUP5 PUSH1 0x20 ADD MLOAD LT ISZERO SWAP1 POP SWAP4 SWAP3 POP POP POP JUMP JUMPDEST PUSH1 0x0 PUSH2 0x1E4A DUP5 PUSH1 0x0 ADD MLOAD DUP4 PUSH1 0x20 ADD MLOAD PUSH8 0xDE0B6B3A7640000 DUP7 PUSH1 0x0 DUP8 PUSH1 0x60 ADD MLOAD PUSH2 0x1CFC JUMP JUMPDEST PUSH1 0x0 DUP2 PUSH1 0x20 ADD MLOAD DUP3 PUSH1 0x80 ADD MLOAD GT PUSH2 0x1E98 JUMPI POP PUSH1 0x1 PUSH2 0x317 JUMP JUMPDEST DUP2 MLOAD PUSH1 0x80 DUP4 ADD MLOAD GT ISZERO PUSH2 0x1EAD JUMPI POP PUSH1 0x0 PUSH2 0x317 JUMP JUMPDEST PUSH2 0x1E4A DUP5 PUSH1 0x0 ADD MLOAD DUP4 PUSH1 0x80 ADD MLOAD PUSH8 0xDE0B6B3A7640000 DUP7 DUP7 PUSH1 0xC0 ADD MLOAD PUSH8 0xDE0B6B3A7640000 PUSH2 0x1CFC JUMP JUMPDEST PUSH1 0x0 DUP2 PUSH1 0x20 ADD MLOAD DUP3 PUSH1 0xA0 ADD MLOAD GT ISZERO PUSH2 0x1EF1 JUMPI POP PUSH1 0x0 PUSH2 0x317 JUMP JUMPDEST PUSH2 0x1E4A DUP5 PUSH1 0x0 ADD MLOAD DUP4 PUSH1 0xA0 ADD MLOAD PUSH8 0xDE0B6B3A7640000 DUP7 PUSH1 0x40 ADD MLOAD PUSH1 0x1 PUSH1 0x1 PUSH1 0x40 SHL SUB AND PUSH8 0xDE0B6B3A7640000 PUSH2 0x1F28 SWAP2 SWAP1 PUSH2 0x2C14 JUMP JUMPDEST PUSH1 0x0 PUSH8 0xDE0B6B3A7640000 PUSH2 0x1CFC JUMP JUMPDEST PUSH1 0x0 DUP2 PUSH1 0x0 SUB PUSH2 0x1F51 JUMPI POP PUSH8 0xDE0B6B3A7640000 PUSH2 0x3AD JUMP JUMPDEST DUP3 PUSH1 0x0 SUB PUSH2 0x1F61 JUMPI POP PUSH1 0x0 PUSH2 0x3AD JUMP JUMPDEST PUSH1 0x40 DUP1 MLOAD DUP1 DUP3 ADD SWAP1 SWAP2 MSTORE PUSH1 0x2 DUP2 MSTORE PUSH2 0x323 PUSH1 0xF4 SHL PUSH1 0x20 DUP3 ADD MSTORE PUSH1 0x1 PUSH1 0xFF SHL DUP5 LT PUSH2 0x1F9E JUMPI PUSH1 0x40 MLOAD PUSH3 0x461BCD PUSH1 0xE5 SHL DUP2 MSTORE PUSH1 0x4 ADD PUSH2 0x39F SWAP2 SWAP1 PUSH2 0x2B80 JUMP JUMPDEST POP PUSH1 0x40 DUP1 MLOAD DUP1 DUP3 ADD SWAP1 SWAP2 MSTORE PUSH1 0x2 DUP2 MSTORE PUSH2 0x3231 PUSH1 0xF0 SHL PUSH1 0x20 DUP3 ADD MSTORE DUP4 SWAP1 PUSH24 0xBCE5086492111AEA88F4BB1CA6BCF584181EA8059F76532 DUP5 LT PUSH2 0x1FF2 JUMPI PUSH1 0x40 MLOAD PUSH3 0x461BCD PUSH1 0xE5 SHL DUP2 MSTORE PUSH1 0x4 ADD PUSH2 0x39F SWAP2 SWAP1 PUSH2 0x2B80 JUMP JUMPDEST POP DUP3 PUSH1 0x0 PUSH8 0xC7D713B49DA0000 DUP4 SGT DUP1 ISZERO PUSH2 0x2014 JUMPI POP PUSH8 0xF43FC2C04EE0000 DUP4 SLT JUMPDEST ISZERO PUSH2 0x204B JUMPI PUSH1 0x0 PUSH2 0x2024 DUP5 PUSH2 0x2123 JUMP JUMPDEST SWAP1 POP PUSH8 0xDE0B6B3A7640000 DUP1 DUP3 SMOD DUP5 MUL SDIV DUP4 PUSH8 0xDE0B6B3A7640000 DUP4 SDIV MUL ADD SWAP2 POP POP PUSH2 0x2059 JUMP JUMPDEST DUP2 PUSH2 0x2055 DUP5 PUSH2 0x2242 JUMP JUMPDEST MUL SWAP1 POP JUMPDEST PUSH8 0xDE0B6B3A7640000 SWAP1 SDIV PUSH9 0x238FD42C5CF03FFFF NOT DUP2 SLT DUP1 ISZERO SWAP1 PUSH2 0x2087 JUMPI POP PUSH9 0x70C1CC73B00C80000 DUP2 SGT ISZERO JUMPDEST PUSH1 0x40 MLOAD DUP1 PUSH1 0x40 ADD PUSH1 0x40 MSTORE DUP1 PUSH1 0x2 DUP2 MSTORE PUSH1 0x20 ADD PUSH2 0x1919 PUSH1 0xF1 SHL DUP2 MSTORE POP SWAP1 PUSH2 0x20C0 JUMPI PUSH1 0x40 MLOAD PUSH3 0x461BCD PUSH1 0xE5 SHL DUP2 MSTORE PUSH1 0x4 ADD PUSH2 0x39F SWAP2 SWAP1 PUSH2 0x2B80 JUMP JUMPDEST POP PUSH2 0x545 DUP2 PUSH2 0x25EC JUMP JUMPDEST PUSH1 0x0 DUP1 PUSH2 0x20D7 DUP4 DUP6 PUSH2 0x2C27 JUMP JUMPDEST SWAP1 POP DUP1 PUSH1 0x0 SUB PUSH2 0x20EB JUMPI PUSH1 0x0 SWAP2 POP POP PUSH2 0x3AD JUMP JUMPDEST PUSH8 0xDE0B6B3A7640000 PUSH2 0x20FF PUSH1 0x1 DUP4 PUSH2 0x2C14 JUMP JUMPDEST PUSH2 0x2109 SWAP2 SWAP1 PUSH2 0x2D47 JUMP JUMPDEST PUSH2 0x1080 SWAP1 PUSH1 0x1 PUSH2 0x2BE4 JUMP JUMPDEST PUSH1 0x0 DUP2 DUP4 GT PUSH2 0x19EB JUMPI DUP2 PUSH2 0x317 JUMP JUMPDEST PUSH8 0xDE0B6B3A7640000 MUL PUSH1 0x0 DUP1 PUSH11 0xC097CE7BC90715B34B9F1 PUSH1 0x24 SHL DUP1 DUP5 ADD SWAP1 PUSH15 0xC097CE7BC90715B34B9F0FFFFFFFFF NOT DUP6 ADD MUL DUP2 PUSH2 0x2164 JUMPI PUSH2 0x2164 PUSH2 0x2D31 JUMP JUMPDEST SDIV SWAP1 POP PUSH1 0x0 PUSH11 0xC097CE7BC90715B34B9F1 PUSH1 0x24 SHL DUP3 DUP1 MUL SDIV SWAP1 POP DUP2 DUP1 PUSH11 0xC097CE7BC90715B34B9F1 PUSH1 0x24 SHL DUP2 DUP5 MUL SDIV SWAP2 POP PUSH1 0x3 DUP3 SDIV ADD PUSH11 0xC097CE7BC90715B34B9F1 PUSH1 0x24 SHL DUP3 DUP5 MUL SDIV SWAP2 POP PUSH1 0x5 DUP3 SDIV ADD PUSH11 0xC097CE7BC90715B34B9F1 PUSH1 0x24 SHL DUP3 DUP5 MUL SDIV SWAP2 POP PUSH1 0x7 DUP3 SDIV ADD PUSH11 0xC097CE7BC90715B34B9F1 PUSH1 0x24 SHL DUP3 DUP5 MUL SDIV SWAP2 POP PUSH1 0x9 DUP3 SDIV ADD PUSH11 0xC097CE7BC90715B34B9F1 PUSH1 0x24 SHL DUP3 DUP5 MUL SDIV SWAP2 POP PUSH1 0xB DUP3 SDIV ADD PUSH11 0xC097CE7BC90715B34B9F1 PUSH1 0x24 SHL DUP3 DUP5 MUL SDIV SWAP2 POP PUSH1 0xD DUP3 SDIV ADD PUSH11 0xC097CE7BC90715B34B9F1 PUSH1 0x24 SHL DUP3 DUP5 MUL SDIV SWAP2 POP PUSH1 0xF DUP3 SDIV ADD PUSH1 0x2 MUL SWAP6 SWAP5 POP POP POP POP POP JUMP JUMPDEST PUSH1 0x0 PUSH8 0xDE0B6B3A7640000 DUP3 SLT ISZERO PUSH2 0x2283 JUMPI PUSH2 0x227A DUP3 PUSH11 0xC097CE7BC90715B34B9F1 PUSH1 0x24 SHL DUP2 PUSH2 0x2274 JUMPI PUSH2 0x2274 PUSH2 0x2D31 JUMP JUMPDEST SDIV PUSH2 0x2242 JUMP JUMPDEST PUSH1 0x0 SUB SWAP3 SWAP2 POP POP JUMP JUMPDEST PUSH1 0x0 PUSH31 0x1600EF3172E58D2E933EC884FDE10064C63B5372D805E203C0000000000000 DUP4 SLT PUSH2 0x22D4 JUMPI PUSH24 0x195E54C5DD42177F53A27172FA9EC630262827000000000 DUP4 SDIV SWAP3 POP PUSH9 0x6F05B59D3B2000000 ADD JUMPDEST PUSH20 0x11798004D755D3C8BC8E03204CF44619E000000 DUP4 SLT PUSH2 0x230C JUMPI PUSH12 0x1425982CF597CD205CEF7380 DUP4 SDIV SWAP3 POP PUSH9 0x3782DACE9D9000000 ADD JUMPDEST PUSH1 0x64 SWAP3 DUP4 MUL SWAP3 MUL PUSH15 0x1855144814A7FF805980FF0084000 DUP4 SLT PUSH2 0x2354 JUMPI PUSH15 0x1855144814A7FF805980FF0084000 PUSH9 0x56BC75E2D63100000 DUP5 MUL SDIV SWAP3 POP PUSH9 0xAD78EBC5AC62000000 ADD JUMPDEST PUSH12 0x2DF0AB5A80A22C61AB5A700 DUP4 SLT PUSH2 0x238F JUMPI PUSH12 0x2DF0AB5A80A22C61AB5A700 PUSH9 0x56BC75E2D63100000 DUP5 MUL SDIV SWAP3 POP PUSH9 0x56BC75E2D631000000 ADD JUMPDEST PUSH10 0x3F1FCE3DA636EA5CF850 DUP4 SLT PUSH2 0x23C6 JUMPI PUSH10 0x3F1FCE3DA636EA5CF850 PUSH9 0x56BC75E2D63100000 DUP5 MUL SDIV SWAP3 POP PUSH9 0x2B5E3AF16B18800000 ADD JUMPDEST PUSH10 0x127FA27722CC06CC5E2 DUP4 SLT PUSH2 0x23FD JUMPI PUSH10 0x127FA27722CC06CC5E2 PUSH9 0x56BC75E2D63100000 DUP5 MUL SDIV SWAP3 POP PUSH9 0x15AF1D78B58C400000 ADD JUMPDEST PUSH9 0x280E60114EDB805D03 DUP4 SLT PUSH2 0x2432 JUMPI PUSH9 0x280E60114EDB805D03 PUSH9 0x56BC75E2D63100000 DUP5 MUL SDIV SWAP3 POP PUSH9 0xAD78EBC5AC6200000 ADD JUMPDEST PUSH9 0xEBC5FB41746121110 DUP4 SLT PUSH2 0x245D JUMPI PUSH9 0xEBC5FB41746121110 PUSH9 0x56BC75E2D63100000 SWAP4 DUP5 MUL SDIV SWAP3 ADD JUMPDEST PUSH9 0x8F00F760A4B2DB55D DUP4 SLT PUSH2 0x2492 JUMPI PUSH9 0x8F00F760A4B2DB55D PUSH9 0x56BC75E2D63100000 DUP5 MUL SDIV SWAP3 POP PUSH9 0x2B5E3AF16B1880000 ADD JUMPDEST PUSH9 0x6F5F1775788937937 DUP4 SLT PUSH2 0x24C7 JUMPI PUSH9 0x6F5F1775788937937 PUSH9 0x56BC75E2D63100000 DUP5 MUL SDIV SWAP3 POP PUSH9 0x15AF1D78B58C40000 ADD JUMPDEST PUSH9 0x6248F33704B286603 DUP4 SLT PUSH2 0x24FB JUMPI PUSH9 0x6248F33704B286603 PUSH9 0x56BC75E2D63100000 DUP5 MUL SDIV SWAP3 POP PUSH8 0xAD78EBC5AC620000 ADD JUMPDEST PUSH9 0x5C548670B9510E7AC DUP4 SLT PUSH2 0x252F JUMPI PUSH9 0x5C548670B9510E7AC PUSH9 0x56BC75E2D63100000 DUP5 MUL SDIV SWAP3 POP PUSH8 0x56BC75E2D6310000 ADD JUMPDEST PUSH1 0x0 PUSH9 0x56BC75E2D63100000 DUP5 ADD PUSH9 0x56BC75E2D63100000 DUP1 DUP7 SUB MUL DUP2 PUSH2 0x2558 JUMPI PUSH2 0x2558 PUSH2 0x2D31 JUMP JUMPDEST SDIV SWAP1 POP PUSH1 0x0 PUSH9 0x56BC75E2D63100000 DUP3 DUP1 MUL SDIV SWAP1 POP DUP2 DUP1 PUSH9 0x56BC75E2D63100000 DUP2 DUP5 MUL SDIV SWAP2 POP PUSH1 0x3 DUP3 SDIV ADD PUSH9 0x56BC75E2D63100000 DUP3 DUP5 MUL SDIV SWAP2 POP PUSH1 0x5 DUP3 SDIV ADD PUSH9 0x56BC75E2D63100000 DUP3 DUP5 MUL SDIV SWAP2 POP PUSH1 0x7 DUP3 SDIV ADD PUSH9 0x56BC75E2D63100000 DUP3 DUP5 MUL SDIV SWAP2 POP PUSH1 0x9 DUP3 SDIV ADD PUSH9 0x56BC75E2D63100000 DUP3 DUP5 MUL SDIV SWAP2 POP PUSH1 0xB DUP3 SDIV ADD PUSH1 0x2 MUL PUSH1 0x64 DUP6 DUP3 ADD SDIV SWAP8 SWAP7 POP POP POP POP POP POP POP JUMP JUMPDEST PUSH1 0x0 PUSH9 0x238FD42C5CF03FFFF NOT DUP3 SLT ISZERO DUP1 ISZERO PUSH2 0x2611 JUMPI POP PUSH9 0x70C1CC73B00C80000 DUP3 SGT ISZERO JUMPDEST PUSH1 0x40 MLOAD DUP1 PUSH1 0x40 ADD PUSH1 0x40 MSTORE DUP1 PUSH1 0x2 DUP2 MSTORE PUSH1 0x20 ADD PUSH2 0x3233 PUSH1 0xF0 SHL DUP2 MSTORE POP SWAP1 PUSH2 0x264A JUMPI PUSH1 0x40 MLOAD PUSH3 0x461BCD PUSH1 0xE5 SHL DUP2 MSTORE PUSH1 0x4 ADD PUSH2 0x39F SWAP2 SWAP1 PUSH2 0x2B80 JUMP JUMPDEST POP PUSH1 0x0 DUP3 SLT ISZERO PUSH2 0x2683 JUMPI PUSH2 0x2660 DUP3 PUSH1 0x0 SUB PUSH2 0x25EC JUMP JUMPDEST PUSH11 0xC097CE7BC90715B34B9F1 PUSH1 0x24 SHL DUP2 PUSH2 0x267C JUMPI PUSH2 0x267C PUSH2 0x2D31 JUMP JUMPDEST SDIV SWAP3 SWAP2 POP POP JUMP JUMPDEST PUSH1 0x0 PUSH9 0x6F05B59D3B2000000 DUP4 SLT PUSH2 0x26C3 JUMPI POP PUSH9 0x6F05B59D3B1FFFFFF NOT SWAP1 SWAP2 ADD SWAP1 PUSH24 0x195E54C5DD42177F53A27172FA9EC630262827000000000 PUSH2 0x26F9 JUMP JUMPDEST PUSH9 0x3782DACE9D9000000 DUP4 SLT PUSH2 0x26F5 JUMPI POP PUSH9 0x3782DACE9D8FFFFFF NOT SWAP1 SWAP2 ADD SWAP1 PUSH12 0x1425982CF597CD205CEF7380 PUSH2 0x26F9 JUMP JUMPDEST POP PUSH1 0x1 JUMPDEST PUSH1 0x64 SWAP3 SWAP1 SWAP3 MUL SWAP2 PUSH9 0x56BC75E2D63100000 PUSH9 0xAD78EBC5AC62000000 DUP5 SLT PUSH2 0x2749 JUMPI PUSH9 0xAD78EBC5AC61FFFFFF NOT SWAP1 SWAP4 ADD SWAP3 PUSH9 0x56BC75E2D63100000 PUSH15 0x1855144814A7FF805980FF0084000 DUP3 MUL SDIV SWAP1 POP JUMPDEST PUSH9 0x56BC75E2D631000000 DUP5 SLT PUSH2 0x2785 JUMPI PUSH9 0x56BC75E2D630FFFFFF NOT SWAP1 SWAP4 ADD SWAP3 PUSH9 0x56BC75E2D63100000 PUSH12 0x2DF0AB5A80A22C61AB5A700 DUP3 MUL SDIV SWAP1 POP JUMPDEST PUSH9 0x2B5E3AF16B18800000 DUP5 SLT PUSH2 0x27BF JUMPI PUSH9 0x2B5E3AF16B187FFFFF NOT SWAP1 SWAP4 ADD SWAP3 PUSH9 0x56BC75E2D63100000 PUSH10 0x3F1FCE3DA636EA5CF850 DUP3 MUL SDIV SWAP1 POP JUMPDEST PUSH9 0x15AF1D78B58C400000 DUP5 SLT PUSH2 0x27F9 JUMPI PUSH9 0x15AF1D78B58C3FFFFF NOT SWAP1 SWAP4 ADD SWAP3 PUSH9 0x56BC75E2D63100000 PUSH10 0x127FA27722CC06CC5E2 DUP3 MUL SDIV SWAP1 POP JUMPDEST PUSH9 0xAD78EBC5AC6200000 DUP5 SLT PUSH2 0x2832 JUMPI PUSH9 0xAD78EBC5AC61FFFFF NOT SWAP1 SWAP4 ADD SWAP3 PUSH9 0x56BC75E2D63100000 PUSH9 0x280E60114EDB805D03 DUP3 MUL SDIV SWAP1 POP JUMPDEST PUSH9 0x56BC75E2D63100000 DUP5 SLT PUSH2 0x286B JUMPI PUSH9 0x56BC75E2D630FFFFF NOT SWAP1 SWAP4 ADD SWAP3 PUSH9 0x56BC75E2D63100000 PUSH9 0xEBC5FB41746121110 DUP3 MUL SDIV SWAP1 POP JUMPDEST PUSH9 0x2B5E3AF16B1880000 DUP5 SLT PUSH2 0x28A4 JUMPI PUSH9 0x2B5E3AF16B187FFFF NOT SWAP1 SWAP4 ADD SWAP3 PUSH9 0x56BC75E2D63100000 PUSH9 0x8F00F760A4B2DB55D DUP3 MUL SDIV SWAP1 POP JUMPDEST PUSH9 0x15AF1D78B58C40000 DUP5 SLT PUSH2 0x28DD JUMPI PUSH9 0x15AF1D78B58C3FFFF NOT SWAP1 SWAP4 ADD SWAP3 PUSH9 0x56BC75E2D63100000 PUSH9 0x6F5F1775788937937 DUP3 MUL SDIV SWAP1 POP JUMPDEST PUSH9 0x56BC75E2D63100000 DUP5 DUP2 ADD SWAP1 DUP6 SWAP1 PUSH1 0x2 SWAP1 DUP3 DUP1 MUL SDIV SDIV SWAP2 DUP3 ADD SWAP2 SWAP1 POP PUSH1 0x3 PUSH9 0x56BC75E2D63100000 DUP8 DUP4 MUL SDIV SDIV SWAP2 DUP3 ADD SWAP2 SWAP1 POP PUSH1 0x4 PUSH9 0x56BC75E2D63100000 DUP8 DUP4 MUL SDIV SDIV SWAP2 DUP3 ADD SWAP2 SWAP1 POP PUSH1 0x5 PUSH9 0x56BC75E2D63100000 DUP8 DUP4 MUL SDIV SDIV SWAP2 DUP3 ADD SWAP2 SWAP1 POP PUSH1 0x6 PUSH9 0x56BC75E2D63100000 DUP8 DUP4 MUL SDIV SDIV SWAP2 DUP3 ADD SWAP2 SWAP1 POP PUSH1 0x7 PUSH9 0x56BC75E2D63100000 DUP8 DUP4 MUL SDIV SDIV SWAP2 DUP3 ADD SWAP2 SWAP1 POP PUSH1 0x8 PUSH9 0x56BC75E2D63100000 DUP8 DUP4 MUL SDIV SDIV SWAP2 DUP3 ADD SWAP2 SWAP1 POP PUSH1 0x9 PUSH9 0x56BC75E2D63100000 DUP8 DUP4 MUL SDIV SDIV SWAP2 DUP3 ADD SWAP2 SWAP1 POP PUSH1 0xA PUSH9 0x56BC75E2D63100000 DUP8 DUP4 MUL SDIV SDIV SWAP2 DUP3 ADD SWAP2 SWAP1 POP PUSH1 0xB PUSH9 0x56BC75E2D63100000 DUP8 DUP4 MUL SDIV SDIV SWAP2 DUP3 ADD SWAP2 SWAP1 POP PUSH1 0xC PUSH9 0x56BC75E2D63100000 DUP8 DUP4 MUL SDIV SDIV SWAP2 DUP3 ADD SWAP2 SWAP1 POP PUSH1 0x64 PUSH9 0x56BC75E2D63100000 DUP5 DUP5 MUL SDIV DUP6 MUL SDIV SWAP7 SWAP6 POP POP POP POP POP POP JUMP JUMPDEST PUSH1 0x40 MLOAD DUP1 PUSH1 0xA0 ADD PUSH1 0x40 MSTORE DUP1 PUSH1 0x0 DUP2 MSTORE PUSH1 0x20 ADD PUSH1 0x0 DUP2 MSTORE PUSH1 0x20 ADD PUSH1 0x0 PUSH1 0x6 DUP2 GT ISZERO PUSH2 0x2A2A JUMPI PUSH2 0x2A2A PUSH2 0x2D74 JUMP JUMPDEST DUP2 MSTORE PUSH1 0x20 ADD PUSH1 0x0 DUP2 MSTORE PUSH1 0x20 ADD PUSH1 0x0 DUP2 MSTORE POP SWAP1 JUMP JUMPDEST PUSH1 0x0 DUP1 PUSH1 0x0 PUSH1 0x60 DUP5 DUP7 SUB SLT ISZERO PUSH2 0x2A53 JUMPI PUSH1 0x0 DUP1 REVERT JUMPDEST POP POP DUP2 CALLDATALOAD SWAP4 PUSH1 0x20 DUP4 ADD CALLDATALOAD SWAP4 POP PUSH1 0x40 SWAP1 SWAP3 ADD CALLDATALOAD SWAP2 SWAP1 POP JUMP JUMPDEST PUSH1 0x0 DUP1 PUSH1 0x40 DUP4 DUP6 SUB SLT ISZERO PUSH2 0x2A7D JUMPI PUSH1 0x0 DUP1 REVERT JUMPDEST POP POP DUP1 CALLDATALOAD SWAP3 PUSH1 0x20 SWAP1 SWAP2 ADD CALLDATALOAD SWAP2 POP JUMP JUMPDEST PUSH1 0x0 PUSH1 0x20 DUP3 DUP5 SUB SLT ISZERO PUSH2 0x2A9E JUMPI PUSH1 0x0 DUP1 REVERT JUMPDEST POP CALLDATALOAD SWAP2 SWAP1 POP JUMP JUMPDEST DUP1 CALLDATALOAD PUSH1 0x1 PUSH1 0x1 PUSH1 0x40 SHL SUB DUP2 AND DUP2 EQ PUSH2 0x2ABC JUMPI PUSH1 0x0 DUP1 REVERT JUMPDEST SWAP2 SWAP1 POP JUMP JUMPDEST PUSH1 0x0 PUSH1 0x80 DUP3 DUP5 SUB SLT ISZERO PUSH2 0x2AD3 JUMPI PUSH1 0x0 DUP1 REVERT JUMPDEST PUSH1 0x40 MLOAD PUSH1 0x80 DUP2 ADD DUP2 DUP2 LT PUSH1 0x1 PUSH1 0x1 PUSH1 0x40 SHL SUB DUP3 GT OR ISZERO PUSH2 0x2B03 JUMPI PUSH4 0x4E487B71 PUSH1 0xE0 SHL PUSH1 0x0 MSTORE PUSH1 0x41 PUSH1 0x4 MSTORE PUSH1 0x24 PUSH1 0x0 REVERT JUMPDEST PUSH1 0x40 MSTORE PUSH2 0x2B0F DUP4 PUSH2 0x2AA5 JUMP JUMPDEST DUP2 MSTORE PUSH2 0x2B1D PUSH1 0x20 DUP5 ADD PUSH2 0x2AA5 JUMP JUMPDEST PUSH1 0x20 DUP3 ADD MSTORE PUSH2 0x2B2E PUSH1 0x40 DUP5 ADD PUSH2 0x2AA5 JUMP JUMPDEST PUSH1 0x40 DUP3 ADD MSTORE PUSH2 0x2B3F PUSH1 0x60 DUP5 ADD PUSH2 0x2AA5 JUMP JUMPDEST PUSH1 0x60 DUP3 ADD MSTORE SWAP4 SWAP3 POP POP POP JUMP JUMPDEST PUSH1 0x1 PUSH1 0x1 PUSH1 0xA0 SHL SUB DUP2 AND DUP2 EQ PUSH2 0x2B60 JUMPI PUSH1 0x0 DUP1 REVERT JUMPDEST POP JUMP JUMPDEST PUSH1 0x0 PUSH1 0x20 DUP3 DUP5 SUB SLT ISZERO PUSH2 0x2B75 JUMPI PUSH1 0x0 DUP1 REVERT JUMPDEST DUP2 CALLDATALOAD PUSH2 0x317 DUP2 PUSH2 0x2B4B JUMP JUMPDEST PUSH1 0x0 PUSH1 0x20 DUP1 DUP4 MSTORE DUP4 MLOAD DUP1 DUP3 DUP6 ADD MSTORE PUSH1 0x0 JUMPDEST DUP2 DUP2 LT ISZERO PUSH2 0x2BAD JUMPI DUP6 DUP2 ADD DUP4 ADD MLOAD DUP6 DUP3 ADD PUSH1 0x40 ADD MSTORE DUP3 ADD PUSH2 0x2B91 JUMP JUMPDEST POP PUSH1 0x0 PUSH1 0x40 DUP3 DUP7 ADD ADD MSTORE PUSH1 0x40 PUSH1 0x1F NOT PUSH1 0x1F DUP4 ADD AND DUP6 ADD ADD SWAP3 POP POP POP SWAP3 SWAP2 POP POP JUMP JUMPDEST PUSH4 0x4E487B71 PUSH1 0xE0 SHL PUSH1 0x0 MSTORE PUSH1 0x11 PUSH1 0x4 MSTORE PUSH1 0x24 PUSH1 0x0 REVERT JUMPDEST DUP1 DUP3 ADD DUP1 DUP3 GT ISZERO PUSH2 0x3AD JUMPI PUSH2 0x3AD PUSH2 0x2BCE JUMP JUMPDEST PUSH1 0x0 PUSH1 0x20 DUP3 DUP5 SUB SLT ISZERO PUSH2 0x2C09 JUMPI PUSH1 0x0 DUP1 REVERT JUMPDEST DUP2 MLOAD PUSH2 0x317 DUP2 PUSH2 0x2B4B JUMP JUMPDEST DUP2 DUP2 SUB DUP2 DUP2 GT ISZERO PUSH2 0x3AD JUMPI PUSH2 0x3AD PUSH2 0x2BCE JUMP JUMPDEST DUP1 DUP3 MUL DUP2 ISZERO DUP3 DUP3 DIV DUP5 EQ OR PUSH2 0x3AD JUMPI PUSH2 0x3AD PUSH2 0x2BCE JUMP JUMPDEST PUSH1 0x1 DUP2 DUP2 JUMPDEST DUP1 DUP6 GT ISZERO PUSH2 0x2C79 JUMPI DUP2 PUSH1 0x0 NOT DIV DUP3 GT ISZERO PUSH2 0x2C5F JUMPI PUSH2 0x2C5F PUSH2 0x2BCE JUMP JUMPDEST DUP1 DUP6 AND ISZERO PUSH2 0x2C6C JUMPI SWAP2 DUP2 MUL SWAP2 JUMPDEST SWAP4 DUP5 SHR SWAP4 SWAP1 DUP1 MUL SWAP1 PUSH2 0x2C43 JUMP JUMPDEST POP SWAP3 POP SWAP3 SWAP1 POP JUMP JUMPDEST PUSH1 0x0 DUP3 PUSH2 0x2C90 JUMPI POP PUSH1 0x1 PUSH2 0x3AD JUMP JUMPDEST DUP2 PUSH2 0x2C9D JUMPI POP PUSH1 0x0 PUSH2 0x3AD JUMP JUMPDEST DUP2 PUSH1 0x1 DUP2 EQ PUSH2 0x2CB3 JUMPI PUSH1 0x2 DUP2 EQ PUSH2 0x2CBD JUMPI PUSH2 0x2CD9 JUMP JUMPDEST PUSH1 0x1 SWAP2 POP POP PUSH2 0x3AD JUMP JUMPDEST PUSH1 0xFF DUP5 GT ISZERO PUSH2 0x2CCE JUMPI PUSH2 0x2CCE PUSH2 0x2BCE JUMP JUMPDEST POP POP PUSH1 0x1 DUP3 SHL PUSH2 0x3AD JUMP JUMPDEST POP PUSH1 0x20 DUP4 LT PUSH2 0x133 DUP4 LT AND PUSH1 0x4E DUP5 LT PUSH1 0xB DUP5 LT AND OR ISZERO PUSH2 0x2CFC JUMPI POP DUP2 DUP2 EXP PUSH2 0x3AD JUMP JUMPDEST PUSH2 0x2D06 DUP4 DUP4 PUSH2 0x2C3E JUMP JUMPDEST DUP1 PUSH1 0x0 NOT DIV DUP3 GT ISZERO PUSH2 0x2D1A JUMPI PUSH2 0x2D1A PUSH2 0x2BCE JUMP JUMPDEST MUL SWAP4 SWAP3 POP POP POP JUMP JUMPDEST PUSH1 0x0 PUSH2 0x317 PUSH1 0xFF DUP5 AND DUP4 PUSH2 0x2C81 JUMP JUMPDEST PUSH4 0x4E487B71 PUSH1 0xE0 SHL PUSH1 0x0 MSTORE PUSH1 0x12 PUSH1 0x4 MSTORE PUSH1 0x24 PUSH1 0x0 REVERT JUMPDEST PUSH1 0x0 DUP3 PUSH2 0x2D56 JUMPI PUSH2 0x2D56 PUSH2 0x2D31 JUMP JUMPDEST POP DIV SWAP1 JUMP JUMPDEST PUSH1 0x0 PUSH1 0x20 DUP3 DUP5 SUB SLT ISZERO PUSH2 0x2D6D JUMPI PUSH1 0x0 DUP1 REVERT JUMPDEST POP MLOAD SWAP2 SWAP1 POP JUMP JUMPDEST PUSH4 0x4E487B71 PUSH1 0xE0 SHL PUSH1 0x0 MSTORE PUSH1 0x21 PUSH1 0x4 MSTORE PUSH1 0x24 PUSH1 0x0 REVERT JUMPDEST PUSH1 0x0 DUP3 PUSH2 0x2D99 JUMPI PUSH2 0x2D99 PUSH2 0x2D31 JUMP JUMPDEST POP MOD SWAP1 JUMP INVALID LOG2 PUSH5 0x6970667358 0x22 SLT KECCAK256 CALLDATACOPY 0x5F KECCAK256 0xB4 PUSH2 0x49FA 0xEE 0xC0 PUSH20 0xCBF031C21C14230D89A869850D33DF1B237B3B2A ISZERO SDIV PUSH5 0x736F6C6343 STOP ADDMOD GT STOP CALLER ","sha1":"dc3bbc1727e21f4f550b841165780914dafed07c","source":"// SPDX-License-Identifier: LicenseRef-Gyro-1.0\n// for information on licensing please see the README in the GitHub repository <https://github.com/gyrostable/core-protocol>.\npragma solidity ^0.8.4;\n\nimport \"@openzeppelin/contracts/access/Ownable.sol\";\n\nimport \"../interfaces/IPAMM.sol\";\nimport \"../interfaces/IGyroConfig.sol\";\n\nimport \"../libraries/LogExpMath.sol\";\nimport \"../libraries/FixedPoint.sol\";\nimport \"../libraries/Flow.sol\";\nimport \"../libraries/ConfigHelpers.sol\";\n\nimport \"./auth/Governable.sol\";\n\n/// @notice Implements the primary AMM pricing mechanism\ncontract PrimaryAMMV1 is IPAMM, Governable {\n    using LogExpMath for uint256;\n    using FixedPoint for uint256;\n    using ConfigHelpers for IGyroConfig;\n\n    IGyroConfig public immutable gyroConfig;\n\n    /// @dev we tolerate underflows due to numerical issues up to 1e10, so 1e-8\n    /// given our 1e18 scale\n    uint256 internal constant _UNDERFLOW_EPSILON = 1e10;\n\n    uint256 internal constant ONE = 1e18;\n    uint256 internal constant TWO = 2e18;\n    uint256 internal constant ANCHOR = ONE;\n\n    modifier onlyMotherboard() {\n        require(msg.sender == address(gyroConfig.getMotherboard()), Errors.NOT_AUTHORIZED);\n        _;\n    }\n\n    enum Region {\n        CASE_i, // 0\n        CASE_I_ii, // 1\n        CASE_I_iii, // 2\n        CASE_II_H, // 3\n        CASE_II_L, // 4\n        CASE_III_H, // 5\n        CASE_III_L // 6\n    }\n\n    struct State {\n        uint256 redemptionLevel; // x\n        uint256 reserveValue; // b\n        uint256 totalGyroSupply; // y\n    }\n\n    /** @dev\n     * For the `*HL` values, these are only defined if both of the respective regions (on either\n     * side of the threshold) exist (and are otherwise 0). To see if this is the case, check the\n     * respective `ba*HL` value against `baThresholdRegionI` and `baThresholdRegionII`.\n     * Specifically:\n     *  - The `*IIHL` values are well-defined iff\n     *    `baThresholdRegionI > baThresholdIIHL > baThresholdRegionII`.\n     *  - The `*IIIHL` values are well-defined iff `baThresholdRegionII > baThresholdIIIHL`.\n     * In constrast, the `*{I,II,III}` values are all always well-defined.\n     */\n    struct DerivedParams {\n        uint256 baThresholdRegionI; // b_a^{I/II}\n        uint256 baThresholdRegionII; // b_a^{II/III}\n        // SOMEDAY knowing that these are at their respective thresholds, the xl and xu calculations could be further simplified.\n        uint256 xlThresholdAtThresholdI; // x_L^{I/II}\n        uint256 xlThresholdAtThresholdII; // x_L^{II/III}\n        uint256 baThresholdIIHL; // ba^{h/l}\n        uint256 baThresholdIIIHL; // ba^{H/L}\n        uint256 xuThresholdIIHL; // x_U^{h/l}\n    }\n\n    /// @notice parameters of the primary AMM\n    Params internal _systemParams;\n\n    /// @notice current redemption level of the primary AMM\n    uint256 public redemptionLevel;\n\n    /// @notice the last block at which a redemption occured\n    uint256 public lastRedemptionBlock;\n\n    /// @notice Initializes the PAMM with the given system parameters\n    constructor(\n        address _governor,\n        address _gyroConfig,\n        Params memory params\n    ) Governable(_governor) {\n        require(_gyroConfig != address(0), Errors.INVALID_ARGUMENT);\n        gyroConfig = IGyroConfig(_gyroConfig);\n        _systemParams = params;\n    }\n\n    /// @inheritdoc IPAMM\n    function systemParams() external view returns (Params memory) {\n        return _systemParams;\n    }\n\n    /// @inheritdoc IPAMM\n    function setSystemParams(Params memory params) external governanceOnly {\n        _systemParams = params;\n\n        // NOTE: this is not strictly needed but ensures that the given\n        // parameters allow to compute the derived parameters without underflowing\n        createDerivedParams(params);\n\n        emit SystemParamsUpdated(\n            params.alphaBar,\n            params.xuBar,\n            params.thetaBar,\n            params.outflowMemory\n        );\n    }\n\n    /// Helpers to compute various parameters\n\n    /// @dev Proposition 3 (section 3) of the paper\n    function computeAlpha(\n        uint256 ba,\n        uint256 ya,\n        uint256 thetaBar,\n        uint256 alphaBar\n    ) internal pure returns (uint256) {\n        uint256 ra = ba.divDown(ya);\n        uint256 alphaMin = alphaBar.divDown(ya);\n        uint256 alphaHat;\n        if (ra >= (ONE + thetaBar) / 2) {\n            alphaHat = TWO.mulDown(ONE - ra).divDown(ya);\n        } else {\n            uint256 numerator = (ONE - thetaBar)**2;\n            uint256 denominator = ba - thetaBar.mulDown(ya);\n            alphaHat = numerator / (denominator * 2);\n        }\n        return alphaHat.max(alphaMin);\n    }\n\n    /// @dev Proposition 1 (section 3) of the paper\n    function computeReserveFixedParams(\n        uint256 x,\n        uint256 ba,\n        uint256 ya,\n        uint256 alpha,\n        uint256 xu,\n        uint256 xl\n    ) internal pure returns (uint256) {\n        if (x <= xu) {\n            return ba - x;\n        }\n        if (x <= xl) {\n            uint256 pos = ba + (alpha * (x - xu).squareDown()) / TWO;\n            if (pos >= x) return pos - x;\n            else {\n                require(pos + _UNDERFLOW_EPSILON.mulDown(ya) >= x, Errors.SUB_OVERFLOW);\n                return 0;\n            }\n        }\n        // x > xl:\n        uint256 rl = ONE - alpha.mulDown(xl - xu);\n        return rl.mulDown(ya - x);\n    }\n\n    /// @dev Proposition 2 (section 3) of the paper\n    function computeXl(\n        uint256 ba,\n        uint256 ya,\n        uint256 alpha,\n        uint256 xu\n    ) internal pure returns (uint256) {\n        require(ba < ya, Errors.INVALID_ARGUMENT);\n        uint256 left = (ya - xu).squareUp();\n        uint256 right = (TWO * (ya - ba)) / alpha;\n        if (left >= right) {\n            return ya - (left - right).sqrt();\n        } else {\n            return ya;\n        }\n    }\n\n    /// @dev Proposition 4 (section 3) of the paper\n    function computeXu(\n        uint256 ba,\n        uint256 ya,\n        uint256 alpha,\n        uint256 xuBar,\n        uint256 theta\n    ) internal pure returns (uint256) {\n        uint256 delta = ya - ba;\n        uint256 xuMax = xuBar.mulDown(ya);\n        uint256 xu;\n        if (alpha.mulDown(delta) <= theta**2 / TWO) {\n            uint256 rh = ((TWO * delta) / alpha);\n            uint256 rhSqrt = rh.sqrt();\n            xu = rhSqrt >= ya ? 0 : ya - rhSqrt;\n        } else {\n            uint256 subtracted = delta.divDown(theta) + theta.divDown(2 * alpha);\n            xu = subtracted >= ya ? 0 : ya - subtracted;\n        }\n\n        return xu.min(xuMax);\n    }\n\n    /// @dev Lemma 4 (seection 7) of the paper\n    function computeBa(uint256 xu, Params memory params) internal pure returns (uint256) {\n        require(ONE >= xu, \"ya must be greater than xu\");\n        uint256 alpha = params.alphaBar;\n\n        uint256 yz = ANCHOR - xu;\n        if (ONE >= params.thetaBar + alpha.mulDown(yz))\n            return ANCHOR - (alpha * yz.squareDown()) / TWO;\n        uint256 theta = ONE - params.thetaBar;\n        return ANCHOR - theta.mulDown(yz) + theta**2 / (2 * alpha);\n    }\n\n    /// @dev Algorithm 1 (section 7) of the paper\n    function createDerivedParams(Params memory params)\n        internal\n        pure\n        returns (DerivedParams memory)\n    {\n        DerivedParams memory derived;\n\n        derived.baThresholdRegionI = computeBa(params.xuBar, params);\n\n        derived.baThresholdRegionII = computeBa(0, params);\n\n        derived.xlThresholdAtThresholdI = computeXl(\n            derived.baThresholdRegionI,\n            ONE,\n            params.alphaBar,\n            params.xuBar\n        );\n        derived.xlThresholdAtThresholdII = computeXl(\n            derived.baThresholdRegionII,\n            ONE,\n            params.alphaBar,\n            0\n        );\n\n        uint256 theta = ONE - params.thetaBar;\n\n        {\n            uint256 subtrahend = (theta**2) / (2 * uint256(params.alphaBar));\n            derived.baThresholdIIHL = ONE >= subtrahend ? ONE - subtrahend : 0;\n        }\n\n        if (\n            derived.baThresholdRegionI > derived.baThresholdIIHL &&\n            derived.baThresholdIIHL > derived.baThresholdRegionII\n        ) {\n            derived.xuThresholdIIHL = computeXu(\n                derived.baThresholdIIHL,\n                ONE,\n                params.alphaBar,\n                params.xuBar,\n                theta\n            );\n        }\n\n        derived.baThresholdIIIHL = (ONE + params.thetaBar) / 2;\n\n        return derived;\n    }\n\n    function computeReserve(\n        uint256 x,\n        uint256 ba,\n        uint256 ya,\n        Params memory params\n    ) internal pure returns (uint256) {\n        uint256 alpha = computeAlpha(ba, ya, params.thetaBar, params.alphaBar);\n        uint256 xu = computeXu(ba, ya, alpha, params.xuBar, ONE - params.thetaBar);\n        uint256 xl = computeXl(ba, ya, alpha, xu);\n        return computeReserveFixedParams(x, ba, ya, alpha, xu, xl);\n    }\n\n    function isInFirstRegion(\n        State memory normalizedState,\n        Params memory params,\n        DerivedParams memory derived\n    ) internal pure returns (bool) {\n        return\n            normalizedState.reserveValue >=\n            computeReserveFixedParams(\n                normalizedState.redemptionLevel,\n                derived.baThresholdRegionI,\n                ONE,\n                params.alphaBar,\n                params.xuBar,\n                derived.xlThresholdAtThresholdI\n            );\n    }\n\n    function isInSecondRegion(\n        State memory normalizedState,\n        uint256 alphaBar,\n        DerivedParams memory derived\n    ) internal pure returns (bool) {\n        return\n            normalizedState.reserveValue >=\n            computeReserveFixedParams(\n                normalizedState.redemptionLevel,\n                derived.baThresholdRegionII,\n                ONE,\n                alphaBar,\n                0,\n                derived.xlThresholdAtThresholdII\n            );\n    }\n\n    function isInSecondRegionHigh(\n        State memory normalizedState,\n        uint256 alphaBar,\n        DerivedParams memory derived\n    ) internal pure returns (bool) {\n        if (derived.baThresholdIIHL <= derived.baThresholdRegionII) return true;\n        if (derived.baThresholdIIHL > derived.baThresholdRegionI) return false;\n        return\n            normalizedState.reserveValue >=\n            computeReserveFixedParams(\n                normalizedState.redemptionLevel,\n                derived.baThresholdIIHL,\n                ONE,\n                alphaBar,\n                derived.xuThresholdIIHL,\n                ONE\n            );\n    }\n\n    function isInThirdRegionHigh(\n        State memory normalizedState,\n        Params memory params,\n        DerivedParams memory derived\n    ) internal pure returns (bool) {\n        if (derived.baThresholdIIIHL > derived.baThresholdRegionII) return false;\n        return\n            normalizedState.reserveValue >=\n            computeReserveFixedParams(\n                normalizedState.redemptionLevel,\n                derived.baThresholdIIIHL,\n                ONE,\n                ONE - params.thetaBar,\n                0,\n                ONE\n            );\n    }\n\n    function computeReserveValueRegion(\n        State memory normalizedState,\n        Params memory params,\n        DerivedParams memory derived\n    ) internal pure returns (Region) {\n        if (isInFirstRegion(normalizedState, params, derived)) {\n            // case I\n            if (normalizedState.redemptionLevel <= params.xuBar) return Region.CASE_i;\n\n            uint256 lhs = normalizedState.reserveValue.divDown(normalizedState.totalGyroSupply) +\n                uint256(params.alphaBar).mulDown(normalizedState.redemptionLevel - params.xuBar);\n            uint256 rhs = ONE;\n            if (lhs <= rhs) return Region.CASE_I_ii;\n            return Region.CASE_I_iii;\n        }\n\n        if (isInSecondRegion(normalizedState, params.alphaBar, derived)) {\n            // case II\n            if (isInSecondRegionHigh(normalizedState, params.alphaBar, derived)) {\n                // case II_h\n                if (\n                    normalizedState.totalGyroSupply - normalizedState.reserveValue <=\n                    (normalizedState.totalGyroSupply.squareDown() * params.alphaBar) / TWO\n                ) return Region.CASE_i;\n                return Region.CASE_II_H;\n            }\n\n            uint256 theta = ONE - params.thetaBar;\n            if (\n                normalizedState.reserveValue -\n                    uint256(params.thetaBar).mulDown(normalizedState.totalGyroSupply) >=\n                theta**2 / (2 * uint256(params.alphaBar))\n            ) return Region.CASE_i;\n            return Region.CASE_II_L;\n        }\n\n        if (isInThirdRegionHigh(normalizedState, params, derived)) {\n            return Region.CASE_III_H;\n        }\n\n        return Region.CASE_III_L;\n    }\n\n    struct NextReserveValueVars {\n        uint256 ya;\n        uint256 r;\n        Region region;\n        uint256 u;\n        uint256 theta;\n    }\n\n    function computeAnchoredReserveValue(\n        State memory normalizedState,\n        Params memory params,\n        DerivedParams memory derived\n    ) internal pure returns (uint256) {\n        NextReserveValueVars memory vars;\n\n        Region region = computeReserveValueRegion(normalizedState, params, derived);\n\n        vars.ya = ONE;\n        vars.r = normalizedState.reserveValue.divDown(normalizedState.totalGyroSupply);\n        vars.u = ONE - vars.r;\n        vars.theta = ONE - params.thetaBar;\n\n        if (region == Region.CASE_i) {\n            return normalizedState.reserveValue + normalizedState.redemptionLevel;\n        }\n\n        if (region == Region.CASE_I_ii) {\n            uint256 xDiff = normalizedState.redemptionLevel - params.xuBar;\n            return (normalizedState.reserveValue +\n                normalizedState.redemptionLevel -\n                (params.alphaBar * xDiff.squareDown()) /\n                TWO);\n        }\n\n        if (region == Region.CASE_I_iii)\n            return\n                vars.ya -\n                (vars.ya - params.xuBar).mulDown(vars.u) +\n                (vars.u**2 / (2 * uint256(params.alphaBar)));\n\n        if (region == Region.CASE_II_H) {\n            uint256 delta = (params.alphaBar *\n                (vars.u.divDown(params.alphaBar) + (normalizedState.totalGyroSupply / 2))\n                    .squareDown()) / TWO;\n            return vars.ya - delta;\n        }\n\n        if (region == Region.CASE_II_L) {\n            uint256 p = vars.theta.mulDown(\n                vars.theta.divDown(2 * uint256(params.alphaBar)) + normalizedState.totalGyroSupply\n            );\n            uint256 d = 2 *\n                (vars.theta**2 / params.alphaBar).mulDown(\n                    normalizedState.reserveValue -\n                        normalizedState.totalGyroSupply.mulDown(params.thetaBar)\n                );\n            return vars.ya + d.sqrt() - p;\n        }\n\n        if (region == Region.CASE_III_H) {\n            uint256 delta = (normalizedState.totalGyroSupply - normalizedState.reserveValue)\n                .divDown((ONE - normalizedState.redemptionLevel.squareDown()));\n            return vars.ya - delta;\n        }\n\n        if (region == Region.CASE_III_L) {\n            uint256 p = (normalizedState.totalGyroSupply -\n                normalizedState.reserveValue +\n                vars.theta) / 2;\n            uint256 q = (normalizedState.totalGyroSupply - normalizedState.reserveValue).mulDown(\n                vars.theta\n            ) + vars.theta.squareDown().mulDown(normalizedState.redemptionLevel.squareDown()) / 4;\n            uint256 delta = p - (p.squareDown() - q).sqrt();\n            return vars.ya - delta;\n        }\n\n        revert(\"unknown region\");\n    }\n\n    /// @dev redeemDiscountRatio is expected to be a small value along the lines of 1%\n    /// this means that the first condition should always be true unless if the system\n    /// is in a extreme state\n    function _computeDiscountedReserveValue(uint256 reserveValue, uint256 totalGyroSupply)\n        internal\n        view\n        returns (uint256)\n    {\n        uint256 redeemDiscountRatio = gyroConfig.getUint(ConfigKeys.REDEEM_DISCOUNT_RATIO);\n\n        if (reserveValue > 2 * redeemDiscountRatio.mulDown(totalGyroSupply)) {\n            uint256 discounted = reserveValue - redeemDiscountRatio.mulDown(totalGyroSupply);\n            return discounted.min(totalGyroSupply);\n        }\n\n        return reserveValue;\n    }\n\n    function computeRedeemAmount(\n        State memory state,\n        Params memory params,\n        DerivedParams memory derived,\n        uint256 amount\n    ) internal view returns (uint256) {\n        State memory normalizedState;\n        uint256 ya = state.totalGyroSupply + state.redemptionLevel;\n\n        state.reserveValue = _computeDiscountedReserveValue(\n            state.reserveValue,\n            state.totalGyroSupply\n        );\n\n        normalizedState.redemptionLevel = state.redemptionLevel.divDown(ya);\n        normalizedState.reserveValue = state.reserveValue.divDown(ya);\n        normalizedState.totalGyroSupply = state.totalGyroSupply.divDown(ya);\n\n        uint256 normalizedNav = normalizedState.reserveValue.divDown(\n            normalizedState.totalGyroSupply\n        );\n\n        if (normalizedNav >= ONE) {\n            return amount;\n        }\n\n        if (normalizedNav <= params.thetaBar) {\n            uint256 nav = state.reserveValue.divDown(state.totalGyroSupply);\n            return nav.mulDown(amount);\n        }\n\n        uint256 normalizedAnchoredReserveValue = computeAnchoredReserveValue(\n            normalizedState,\n            params,\n            derived\n        );\n        uint256 anchoredReserveValue = normalizedAnchoredReserveValue.mulDown(ya);\n\n        uint256 nextReserveValue = computeReserve(\n            state.redemptionLevel + amount,\n            anchoredReserveValue,\n            ya,\n            params\n        );\n        // we are redeeming so the next reserve value must be smaller than the current one\n        uint256 redeemAmount = state.reserveValue - nextReserveValue;\n\n        // Defensive programming. The following conditions could only occur due to numerical inaccuracy in extreme situations.\n        if (redeemAmount > amount) redeemAmount = amount;\n        if (redeemAmount > state.totalGyroSupply) redeemAmount = state.totalGyroSupply;\n\n        return redeemAmount;\n    }\n\n    function getNormalizedAnchoredReserveValue(uint256 reserveUSDValue)\n        external\n        view\n        returns (uint256)\n    {\n        State memory state = computeStartingRedeemState(reserveUSDValue, _systemParams);\n        return _getNormalizedAnchoredReserveValueAtState(state);\n    }\n\n    function getNormalizedAnchoredReserveValueAtState(\n        uint256 reserveUSDValue,\n        uint256 _redemptionLevel,\n        uint256 totalGyroSupply\n    ) external view returns (uint256) {\n        State memory state = State({\n            reserveValue: reserveUSDValue,\n            redemptionLevel: _redemptionLevel,\n            totalGyroSupply: totalGyroSupply\n        });\n        return _getNormalizedAnchoredReserveValueAtState(state);\n    }\n\n    function _getNormalizedAnchoredReserveValueAtState(State memory state)\n        internal\n        view\n        returns (uint256)\n    {\n        // This is copied & adjusted from the two variants of computeRedeemAmount(), but we exit earlier.\n        Params memory params = _systemParams;\n\n        state.reserveValue = _computeDiscountedReserveValue(\n            state.reserveValue,\n            state.totalGyroSupply\n        );\n\n        uint256 ya = state.totalGyroSupply + state.redemptionLevel;\n        State memory normalizedState = State({\n            redemptionLevel: state.redemptionLevel.divDown(ya),\n            reserveValue: state.reserveValue.divDown(ya),\n            totalGyroSupply: state.totalGyroSupply.divDown(ya)\n        });\n\n        uint256 normalizedNav = normalizedState.reserveValue.divDown(\n            normalizedState.totalGyroSupply\n        );\n        if (normalizedNav >= ONE) {\n            return ONE;\n        }\n        if (normalizedNav <= params.thetaBar) {\n            uint256 nav = state.reserveValue.divDown(state.totalGyroSupply);\n            return nav;\n        }\n\n        DerivedParams memory derived = createDerivedParams(params);\n        return computeAnchoredReserveValue(normalizedState, params, derived);\n    }\n\n    /// @notice Returns the USD value to mint given an ammount of Gyro dollars\n    function computeMintAmount(uint256 usdAmount, uint256) external pure returns (uint256) {\n        return usdAmount;\n    }\n\n    /// @notice Records and returns the USD value to mint given an ammount of Gyro dollars\n    function mint(uint256 usdAmount, uint256) external view onlyMotherboard returns (uint256) {\n        return usdAmount;\n    }\n\n    /// @notice Computes the USD value to redeem given an ammount of Gyro dollars\n    function computeRedeemAmount(uint256 gydAmount, uint256 reserveUSDValue)\n        external\n        view\n        returns (uint256)\n    {\n        if (gydAmount == 0) return 0;\n        Params memory params = _systemParams;\n        DerivedParams memory derived = createDerivedParams(params);\n        State memory currentState = computeStartingRedeemState(reserveUSDValue, params);\n        return computeRedeemAmount(currentState, params, derived, gydAmount);\n    }\n\n    function getRedemptionLevel() external view returns (uint256) {\n        return\n            Flow.updateFlow(\n                redemptionLevel,\n                block.number,\n                lastRedemptionBlock,\n                _systemParams.outflowMemory\n            );\n    }\n\n    function computeStartingRedeemState(uint256 reserveUSDValue, Params memory params)\n        internal\n        view\n        returns (State memory currentState)\n    {\n        return\n            State({\n                reserveValue: reserveUSDValue,\n                redemptionLevel: Flow.updateFlow(\n                    redemptionLevel,\n                    block.number,\n                    lastRedemptionBlock,\n                    params.outflowMemory\n                ),\n                totalGyroSupply: _getGyroSupply()\n            });\n    }\n\n    /// @notice Computes and records the USD value to redeem given an ammount of Gyro dollars\n    // NB reserveValue does not need to be stored as part of state - could be passed around\n    function redeem(uint256 gydAmount, uint256 reserveUSDValue)\n        public\n        onlyMotherboard\n        returns (uint256)\n    {\n        if (gydAmount == 0) return 0;\n        Params memory params = _systemParams;\n        State memory currentState = computeStartingRedeemState(reserveUSDValue, params);\n        DerivedParams memory derived = createDerivedParams(params);\n        uint256 redeemAmount = computeRedeemAmount(currentState, params, derived, gydAmount);\n\n        redemptionLevel = currentState.redemptionLevel + gydAmount;\n        lastRedemptionBlock = block.number;\n\n        return redeemAmount;\n    }\n\n    function _getGyroSupply() internal view virtual returns (uint256) {\n        return gyroConfig.getMotherboard().mintedSupply();\n    }\n}\n","sourcePath":"contracts/PrimaryAMMV1.sol","type":"contract","deployment":{"address":"0xE7eA594b5905eC0dd321E61d7625711B635a6Ce5","chainid":"1","blockHeight":18428204}}