{
  "abi": [
    {
      "anonymous": false,
      "inputs": [
        {
          "indexed": false,
          "internalType": "uint8",
          "name": "version",
          "type": "uint8"
        }
      ],
      "name": "Initialized",
      "type": "event"
    },
    {
      "inputs": [
        {
          "internalType": "address",
          "name": "owner",
          "type": "address"
        }
      ],
      "name": "addOwner",
      "outputs": [],
      "stateMutability": "nonpayable",
      "type": "function"
    },
    {
      "inputs": [
        {
          "internalType": "address",
          "name": "owner",
          "type": "address"
        }
      ],
      "name": "initialize",
      "outputs": [],
      "stateMutability": "nonpayable",
      "type": "function"
    },
    {
      "inputs": [],
      "name": "owners",
      "outputs": [
        {
          "internalType": "address[]",
          "name": "",
          "type": "address[]"
        }
      ],
      "stateMutability": "view",
      "type": "function"
    },
    {
      "inputs": [
        {
          "internalType": "address",
          "name": "owner",
          "type": "address"
        }
      ],
      "name": "removeOwner",
      "outputs": [],
      "stateMutability": "nonpayable",
      "type": "function"
    }
  ],
  "bytecode": {
    "object": "0x608060405234801561001057600080fd5b5061069d806100206000396000f3fe608060405234801561001057600080fd5b506004361061004c5760003560e01c8063173825d9146100515780637065cb4814610066578063affe39c114610079578063c4d66de814610097575b600080fd5b61006461005f366004610556565b6100aa565b005b610064610074366004610556565b61018f565b610081610225565b60405161008e919061057f565b60405180910390f35b6100646100a5366004610556565b610236565b6100b5600133610348565b60405180604001604052806002815260200161033360f41b815250906100f75760405162461bcd60e51b81526004016100ee91906105cc565b60405180910390fd5b50604080518082019091526002815261033360f41b60208201526001600160a01b038216330361013a5760405162461bcd60e51b81526004016100ee91906105cc565b50610146600182610348565b60405180604001604052806002815260200161333160f01b8152509061017f5760405162461bcd60e51b81526004016100ee91906105cc565b5061018b60018261036f565b5050565b61019a600133610348565b60405180604001604052806002815260200161033360f41b815250906101d35760405162461bcd60e51b81526004016100ee91906105cc565b506101df600182610348565b1560405180604001604052806002815260200161333160f01b815250906102195760405162461bcd60e51b81526004016100ee91906105cc565b5061018b600182610384565b60606102316001610399565b905090565b600054610100900460ff16158080156102565750600054600160ff909116105b806102705750303b158015610270575060005460ff166001145b6102d35760405162461bcd60e51b815260206004820152602e60248201527f496e697469616c697a61626c653a20636f6e747261637420697320616c72656160448201526d191e481a5b9a5d1a585b1a5e995960921b60648201526084016100ee565b6000805460ff1916600117905580156102f6576000805461ff0019166101001790555b6102ff826103ad565b801561018b576000805461ff0019169055604051600181527f7f26b83ff96e1f2b6a682f133852f6798a09c465da95921460cefb38474024989060200160405180910390a15050565b6001600160a01b038116600090815260018301602052604081205415155b90505b92915050565b6000610366836001600160a01b0384166103b8565b6000610366836001600160a01b0384166104ab565b606060006103a6836104fa565b9392505050565b61018b600182610384565b600081815260018301602052604081205480156104a15760006103dc60018361061a565b85549091506000906103f09060019061061a565b90508181146104555760008660000182815481106104105761041061063b565b90600052602060002001549050808760000184815481106104335761043361063b565b6000918252602080832090910192909255918252600188019052604090208390555b855486908061046657610466610651565b600190038181906000526020600020016000905590558560010160008681526020019081526020016000206000905560019350505050610369565b6000915050610369565b60008181526001830160205260408120546104f257508154600181810184556000848152602080822090930184905584548482528286019093526040902091909155610369565b506000610369565b60608160000180548060200260200160405190810160405280929190818152602001828054801561054a57602002820191906000526020600020905b815481526020019060010190808311610536575b50505050509050919050565b60006020828403121561056857600080fd5b81356001600160a01b03811681146103a657600080fd5b6020808252825182820181905260009190848201906040850190845b818110156105c05783516001600160a01b03168352928401929184019160010161059b565b50909695505050505050565b600060208083528351808285015260005b818110156105f9578581018301518582016040015282016105dd565b506000604082860101526040601f19601f8301168501019250505092915050565b8181038181111561036957634e487b7160e01b600052601160045260246000fd5b634e487b7160e01b600052603260045260246000fd5b634e487b7160e01b600052603160045260246000fdfea2646970667358221220588af52d4d4363c07080c28367608d3c11f1ae99d77ada7c3459bebb48670c1764736f6c63430008110033",
    "linkReferences": {}
  },
  "methodIdentifiers": {
    "addOwner(address)": "7065cb48",
    "initialize(address)": "c4d66de8",
    "owners()": "affe39c1",
    "removeOwner(address)": "173825d9"
  },
  "id": 45
}