{
  "abi": [
    {
      "anonymous": false,
      "inputs": [
        {
          "indexed": false,
          "internalType": "uint8",
          "name": "version",
          "type": "uint8"
        }
      ],
      "name": "Initialized",
      "type": "event"
    },
    {
      "inputs": [
        {
          "internalType": "address",
          "name": "owner",
          "type": "address"
        }
      ],
      "name": "addOwner",
      "outputs": [],
      "stateMutability": "nonpayable",
      "type": "function"
    },
    {
      "inputs": [
        {
          "internalType": "address",
          "name": "account",
          "type": "address"
        }
      ],
      "name": "authenticate",
      "outputs": [],
      "stateMutability": "nonpayable",
      "type": "function"
    },
    {
      "inputs": [
        {
          "internalType": "address",
          "name": "account",
          "type": "address"
        }
      ],
      "name": "deauthenticate",
      "outputs": [],
      "stateMutability": "nonpayable",
      "type": "function"
    },
    {
      "inputs": [
        {
          "internalType": "address",
          "name": "owner",
          "type": "address"
        }
      ],
      "name": "initialize",
      "outputs": [],
      "stateMutability": "nonpayable",
      "type": "function"
    },
    {
      "inputs": [
        {
          "internalType": "address",
          "name": "account",
          "type": "address"
        }
      ],
      "name": "isAuthenticated",
      "outputs": [
        {
          "internalType": "bool",
          "name": "",
          "type": "bool"
        }
      ],
      "stateMutability": "view",
      "type": "function"
    },
    {
      "inputs": [],
      "name": "listAuthenticatedAccounts",
      "outputs": [
        {
          "internalType": "address[]",
          "name": "",
          "type": "address[]"
        }
      ],
      "stateMutability": "view",
      "type": "function"
    },
    {
      "inputs": [],
      "name": "owners",
      "outputs": [
        {
          "internalType": "address[]",
          "name": "",
          "type": "address[]"
        }
      ],
      "stateMutability": "view",
      "type": "function"
    },
    {
      "inputs": [
        {
          "internalType": "address",
          "name": "owner",
          "type": "address"
        }
      ],
      "name": "removeOwner",
      "outputs": [],
      "stateMutability": "nonpayable",
      "type": "function"
    }
  ],
  "bytecode": {
    "object": "0x608060405234801561001057600080fd5b506107ec806100206000396000f3fe608060405234801561001057600080fd5b50600436106100885760003560e01c8063affe39c11161005b578063affe39c1146100db578063c4d66de8146100f9578063d15d41501461010c578063e7818c6f1461012f57600080fd5b806308e0d29d1461008d578063173825d9146100a25780637065cb48146100b557806383495bf8146100c8575b600080fd5b6100a061009b3660046106a5565b610137565b005b6100a06100b03660046106a5565b610194565b6100a06100c33660046106a5565b61026c565b6100a06100d63660046106a5565b610302565b6100e3610352565b6040516100f091906106ce565b60405180910390f35b6100a06101073660046106a5565b610363565b61011f61011a3660046106a5565b610481565b60405190151581526020016100f0565b6100e3610494565b6101426001336104a0565b60405180604001604052806002815260200161033360f41b815250906101845760405162461bcd60e51b815260040161017b919061071b565b60405180910390fd5b506101906003826104c5565b5050565b61019f6001336104a0565b60405180604001604052806002815260200161033360f41b815250906101d85760405162461bcd60e51b815260040161017b919061071b565b50604080518082019091526002815261033360f41b60208201526001600160a01b038216330361021b5760405162461bcd60e51b815260040161017b919061071b565b506102276001826104a0565b60405180604001604052806002815260200161333160f01b815250906102605760405162461bcd60e51b815260040161017b919061071b565b506101906001826104da565b6102776001336104a0565b60405180604001604052806002815260200161033360f41b815250906102b05760405162461bcd60e51b815260040161017b919061071b565b506102bc6001826104a0565b1560405180604001604052806002815260200161333160f01b815250906102f65760405162461bcd60e51b815260040161017b919061071b565b506101906001826104c5565b61030d6001336104a0565b60405180604001604052806002815260200161033360f41b815250906103465760405162461bcd60e51b815260040161017b919061071b565b506101906003826104da565b606061035e60016104ef565b905090565b600054610100900460ff16158080156103835750600054600160ff909116105b8061039d5750303b15801561039d575060005460ff166001145b6104005760405162461bcd60e51b815260206004820152602e60248201527f496e697469616c697a61626c653a20636f6e747261637420697320616c72656160448201526d191e481a5b9a5d1a585b1a5e995960921b606482015260840161017b565b6000805460ff191660011790558015610423576000805461ff0019166101001790555b61042c826104fc565b6104376003836104c5565b508015610190576000805461ff0019169055604051600181527f7f26b83ff96e1f2b6a682f133852f6798a09c465da95921460cefb38474024989060200160405180910390a15050565b600061048e6003836104a0565b92915050565b606061035e60036104ef565b6001600160a01b038116600090815260018301602052604081205415155b9392505050565b60006104be836001600160a01b038416610507565b60006104be836001600160a01b038416610556565b606060006104be83610649565b6101906001826104c5565b600081815260018301602052604081205461054e5750815460018181018455600084815260208082209093018490558454848252828601909352604090209190915561048e565b50600061048e565b6000818152600183016020526040812054801561063f57600061057a600183610769565b855490915060009061058e90600190610769565b90508181146105f35760008660000182815481106105ae576105ae61078a565b90600052602060002001549050808760000184815481106105d1576105d161078a565b6000918252602080832090910192909255918252600188019052604090208390555b8554869080610604576106046107a0565b60019003818190600052602060002001600090559055856001016000868152602001908152602001600020600090556001935050505061048e565b600091505061048e565b60608160000180548060200260200160405190810160405280929190818152602001828054801561069957602002820191906000526020600020905b815481526020019060010190808311610685575b50505050509050919050565b6000602082840312156106b757600080fd5b81356001600160a01b03811681146104be57600080fd5b6020808252825182820181905260009190848201906040850190845b8181101561070f5783516001600160a01b0316835292840192918401916001016106ea565b50909695505050505050565b600060208083528351808285015260005b818110156107485785810183015185820160400152820161072c565b506000604082860101526040601f19601f8301168501019250505092915050565b8181038181111561048e57634e487b7160e01b600052601160045260246000fd5b634e487b7160e01b600052603260045260246000fd5b634e487b7160e01b600052603160045260246000fdfea26469706673582212204f19d277e6afd7fb97a3593426c30a162bd873babce01b7f361bf118901fe2fb64736f6c63430008110033",
    "linkReferences": {}
  },
  "methodIdentifiers": {
    "addOwner(address)": "7065cb48",
    "authenticate(address)": "08e0d29d",
    "deauthenticate(address)": "83495bf8",
    "initialize(address)": "c4d66de8",
    "isAuthenticated(address)": "d15d4150",
    "listAuthenticatedAccounts()": "e7818c6f",
    "owners()": "affe39c1",
    "removeOwner(address)": "173825d9"
  },
  "id": 9
}