{
  "abi": [
    {
      "anonymous": false,
      "inputs": [
        {
          "indexed": false,
          "internalType": "uint64",
          "name": "alphaBar",
          "type": "uint64"
        },
        {
          "indexed": false,
          "internalType": "uint64",
          "name": "xuBar",
          "type": "uint64"
        },
        {
          "indexed": false,
          "internalType": "uint64",
          "name": "thetaBar",
          "type": "uint64"
        },
        {
          "indexed": false,
          "internalType": "uint64",
          "name": "outflowMemory",
          "type": "uint64"
        }
      ],
      "name": "SystemParamsUpdated",
      "type": "event"
    },
    {
      "inputs": [
        {
          "internalType": "uint256",
          "name": "amount",
          "type": "uint256"
        },
        {
          "internalType": "uint256",
          "name": "",
          "type": "uint256"
        }
      ],
      "name": "computeMintAmount",
      "outputs": [
        {
          "internalType": "uint256",
          "name": "",
          "type": "uint256"
        }
      ],
      "stateMutability": "pure",
      "type": "function"
    },
    {
      "inputs": [
        {
          "internalType": "uint256",
          "name": "amount",
          "type": "uint256"
        },
        {
          "internalType": "uint256",
          "name": "",
          "type": "uint256"
        }
      ],
      "name": "computeRedeemAmount",
      "outputs": [
        {
          "internalType": "uint256",
          "name": "",
          "type": "uint256"
        }
      ],
      "stateMutability": "pure",
      "type": "function"
    },
    {
      "inputs": [
        {
          "internalType": "uint256",
          "name": "amount",
          "type": "uint256"
        },
        {
          "internalType": "uint256",
          "name": "",
          "type": "uint256"
        }
      ],
      "name": "mint",
      "outputs": [
        {
          "internalType": "uint256",
          "name": "",
          "type": "uint256"
        }
      ],
      "stateMutability": "pure",
      "type": "function"
    },
    {
      "inputs": [
        {
          "internalType": "uint256",
          "name": "amount",
          "type": "uint256"
        },
        {
          "internalType": "uint256",
          "name": "",
          "type": "uint256"
        }
      ],
      "name": "redeem",
      "outputs": [
        {
          "internalType": "uint256",
          "name": "",
          "type": "uint256"
        }
      ],
      "stateMutability": "pure",
      "type": "function"
    },
    {
      "inputs": [
        {
          "components": [
            {
              "internalType": "uint64",
              "name": "alphaBar",
              "type": "uint64"
            },
            {
              "internalType": "uint64",
              "name": "xuBar",
              "type": "uint64"
            },
            {
              "internalType": "uint64",
              "name": "thetaBar",
              "type": "uint64"
            },
            {
              "internalType": "uint64",
              "name": "outflowMemory",
              "type": "uint64"
            }
          ],
          "internalType": "struct IPAMM.Params",
          "name": "params",
          "type": "tuple"
        }
      ],
      "name": "setSystemParams",
      "outputs": [],
      "stateMutability": "pure",
      "type": "function"
    }
  ],
  "bytecode": {
    "object": "0x608060405234801561001057600080fd5b50610193806100206000396000f3fe608060405234801561001057600080fd5b50600436106100575760003560e01c80631b2ef1ca1461005c578063616a1ed91461005c57806371db63ec1461005c5780637cbc23731461005c5780639e59085414610080575b600080fd5b61006e61006a366004610093565b5090565b60405190815260200160405180910390f35b61009161008e3660046100d2565b50565b005b600080604083850312156100a657600080fd5b50508035926020909101359150565b803567ffffffffffffffff811681146100cd57600080fd5b919050565b6000608082840312156100e457600080fd5b6040516080810181811067ffffffffffffffff8211171561011557634e487b7160e01b600052604160045260246000fd5b604052610121836100b5565b815261012f602084016100b5565b6020820152610140604084016100b5565b6040820152610151606084016100b5565b6060820152939250505056fea264697066735822122038ebc2220b0bf03be1f6af2692fc103403a69b91a8a26cdf45558fa7d8ae822464736f6c63430008110033",
    "linkReferences": {}
  },
  "methodIdentifiers": {
    "computeMintAmount(uint256,uint256)": "616a1ed9",
    "computeRedeemAmount(uint256,uint256)": "71db63ec",
    "mint(uint256,uint256)": "1b2ef1ca",
    "redeem(uint256,uint256)": "7cbc2373",
    "setSystemParams((uint64,uint64,uint64,uint64))": "9e590854"
  },
  "id": 36
}