{
  "abi": [
    {
      "inputs": [
        {
          "internalType": "address",
          "name": "_governor",
          "type": "address"
        },
        {
          "internalType": "contract IUSDBatchPriceOracle",
          "name": "_batchPriceOracle",
          "type": "address"
        }
      ],
      "stateMutability": "nonpayable",
      "type": "constructor"
    },
    {
      "anonymous": false,
      "inputs": [
        {
          "indexed": true,
          "internalType": "address",
          "name": "priceOracle",
          "type": "address"
        }
      ],
      "name": "BatchPriceOracleChanged",
      "type": "event"
    },
    {
      "anonymous": false,
      "inputs": [
        {
          "indexed": false,
          "internalType": "address",
          "name": "newGovernor",
          "type": "address"
        }
      ],
      "name": "GovernorChangeRequested",
      "type": "event"
    },
    {
      "anonymous": false,
      "inputs": [
        {
          "indexed": false,
          "internalType": "address",
          "name": "oldGovernor",
          "type": "address"
        },
        {
          "indexed": false,
          "internalType": "address",
          "name": "newGovernor",
          "type": "address"
        }
      ],
      "name": "GovernorChanged",
      "type": "event"
    },
    {
      "anonymous": false,
      "inputs": [
        {
          "indexed": true,
          "internalType": "enum Vaults.Type",
          "name": "vaultType",
          "type": "uint8"
        },
        {
          "indexed": true,
          "internalType": "address",
          "name": "priceOracle",
          "type": "address"
        }
      ],
      "name": "VaultPriceOracleChanged",
      "type": "event"
    },
    {
      "inputs": [],
      "name": "acceptGovernance",
      "outputs": [],
      "stateMutability": "nonpayable",
      "type": "function"
    },
    {
      "inputs": [],
      "name": "batchPriceOracle",
      "outputs": [
        {
          "internalType": "contract IUSDBatchPriceOracle",
          "name": "",
          "type": "address"
        }
      ],
      "stateMutability": "view",
      "type": "function"
    },
    {
      "inputs": [
        {
          "internalType": "address",
          "name": "newGovernor",
          "type": "address"
        }
      ],
      "name": "changeGovernor",
      "outputs": [],
      "stateMutability": "nonpayable",
      "type": "function"
    },
    {
      "inputs": [
        {
          "components": [
            {
              "internalType": "address",
              "name": "vault",
              "type": "address"
            },
            {
              "internalType": "uint8",
              "name": "decimals",
              "type": "uint8"
            },
            {
              "internalType": "address",
              "name": "underlying",
              "type": "address"
            },
            {
              "internalType": "uint256",
              "name": "price",
              "type": "uint256"
            },
            {
              "components": [
                {
                  "internalType": "uint256",
                  "name": "initialPrice",
                  "type": "uint256"
                },
                {
                  "internalType": "uint256",
                  "name": "initialWeight",
                  "type": "uint256"
                },
                {
                  "internalType": "uint256",
                  "name": "shortFlowMemory",
                  "type": "uint256"
                },
                {
                  "internalType": "uint256",
                  "name": "shortFlowThreshold",
                  "type": "uint256"
                }
              ],
              "internalType": "struct DataTypes.PersistedVaultMetadata",
              "name": "persistedMetadata",
              "type": "tuple"
            },
            {
              "internalType": "uint256",
              "name": "reserveBalance",
              "type": "uint256"
            },
            {
              "internalType": "uint256",
              "name": "currentWeight",
              "type": "uint256"
            },
            {
              "internalType": "uint256",
              "name": "idealWeight",
              "type": "uint256"
            },
            {
              "components": [
                {
                  "internalType": "address",
                  "name": "tokenAddress",
                  "type": "address"
                },
                {
                  "internalType": "bool",
                  "name": "isStable",
                  "type": "bool"
                },
                {
                  "internalType": "uint256",
                  "name": "price",
                  "type": "uint256"
                }
              ],
              "internalType": "struct DataTypes.PricedToken[]",
              "name": "pricedTokens",
              "type": "tuple[]"
            }
          ],
          "internalType": "struct DataTypes.VaultInfo[]",
          "name": "vaultsInfo",
          "type": "tuple[]"
        }
      ],
      "name": "fetchPricesUSD",
      "outputs": [
        {
          "components": [
            {
              "internalType": "address",
              "name": "vault",
              "type": "address"
            },
            {
              "internalType": "uint8",
              "name": "decimals",
              "type": "uint8"
            },
            {
              "internalType": "address",
              "name": "underlying",
              "type": "address"
            },
            {
              "internalType": "uint256",
              "name": "price",
              "type": "uint256"
            },
            {
              "components": [
                {
                  "internalType": "uint256",
                  "name": "initialPrice",
                  "type": "uint256"
                },
                {
                  "internalType": "uint256",
                  "name": "initialWeight",
                  "type": "uint256"
                },
                {
                  "internalType": "uint256",
                  "name": "shortFlowMemory",
                  "type": "uint256"
                },
                {
                  "internalType": "uint256",
                  "name": "shortFlowThreshold",
                  "type": "uint256"
                }
              ],
              "internalType": "struct DataTypes.PersistedVaultMetadata",
              "name": "persistedMetadata",
              "type": "tuple"
            },
            {
              "internalType": "uint256",
              "name": "reserveBalance",
              "type": "uint256"
            },
            {
              "internalType": "uint256",
              "name": "currentWeight",
              "type": "uint256"
            },
            {
              "internalType": "uint256",
              "name": "idealWeight",
              "type": "uint256"
            },
            {
              "components": [
                {
                  "internalType": "address",
                  "name": "tokenAddress",
                  "type": "address"
                },
                {
                  "internalType": "bool",
                  "name": "isStable",
                  "type": "bool"
                },
                {
                  "internalType": "uint256",
                  "name": "price",
                  "type": "uint256"
                }
              ],
              "internalType": "struct DataTypes.PricedToken[]",
              "name": "pricedTokens",
              "type": "tuple[]"
            }
          ],
          "internalType": "struct DataTypes.VaultInfo[]",
          "name": "",
          "type": "tuple[]"
        }
      ],
      "stateMutability": "view",
      "type": "function"
    },
    {
      "inputs": [],
      "name": "governor",
      "outputs": [
        {
          "internalType": "address",
          "name": "",
          "type": "address"
        }
      ],
      "stateMutability": "view",
      "type": "function"
    },
    {
      "inputs": [],
      "name": "pendingGovernor",
      "outputs": [
        {
          "internalType": "address",
          "name": "",
          "type": "address"
        }
      ],
      "stateMutability": "view",
      "type": "function"
    },
    {
      "inputs": [
        {
          "internalType": "enum Vaults.Type",
          "name": "vaultType",
          "type": "uint8"
        },
        {
          "internalType": "contract IVaultPriceOracle",
          "name": "priceOracle",
          "type": "address"
        }
      ],
      "name": "registerVaultPriceOracle",
      "outputs": [],
      "stateMutability": "nonpayable",
      "type": "function"
    },
    {
      "inputs": [
        {
          "internalType": "contract IUSDBatchPriceOracle",
          "name": "priceOracle",
          "type": "address"
        }
      ],
      "name": "setBatchPriceOracle",
      "outputs": [],
      "stateMutability": "nonpayable",
      "type": "function"
    },
    {
      "inputs": [
        {
          "internalType": "enum Vaults.Type",
          "name": "",
          "type": "uint8"
        }
      ],
      "name": "vaultPriceOracles",
      "outputs": [
        {
          "internalType": "contract IVaultPriceOracle",
          "name": "",
          "type": "address"
        }
      ],
      "stateMutability": "view",
      "type": "function"
    }
  ],
  "bytecode": {
    "object": "0x60806040523480156200001157600080fd5b50604051620017373803806200173783398101604081905262000034916200011b565b600080546001600160a01b0319166001600160a01b038416908117825560408051928352602083019190915283917fde4b3f61490b74c0ed6237523974fe299126bbbf8a8a7482fd220104c59b0c84910160405180910390a150604080518082019091526002815261333160f01b60208201526001600160a01b038216620000da5760405162461bcd60e51b8152600401620000d191906200015a565b60405180910390fd5b50600280546001600160a01b0319166001600160a01b039290921691909117905550620001aa565b6001600160a01b03811681146200011857600080fd5b50565b600080604083850312156200012f57600080fd5b82516200013c8162000102565b60208401519092506200014f8162000102565b809150509250929050565b600060208083528351808285015260005b8181101562000189578581018301518582016040015282016200016b565b506000604082860101526040601f19601f8301168501019250505092915050565b61157d80620001ba6000396000f3fe608060405234801561001057600080fd5b50600436106100935760003560e01c8063cc8ce65211610066578063cc8ce652146100f8578063ccda1ef71461010b578063d089a0e71461012b578063e3056a3414610154578063e4c0aaf41461016757600080fd5b80630c340a2414610098578063238efcbc146100c85780639ca12cda146100d2578063ad3390c0146100e5575b600080fd5b6000546100ab906001600160a01b031681565b6040516001600160a01b0390911681526020015b60405180910390f35b6100d061017a565b005b6100d06100e0366004610d0d565b610233565b6002546100ab906001600160a01b031681565b6100d0610106366004610d46565b61030c565b61011e610119366004610f5a565b61039c565b6040516100bf9190611115565b6100ab610139366004611215565b6003602052600090815260409020546001600160a01b031681565b6001546100ab906001600160a01b031681565b6100d0610175366004610d46565b6104b4565b600154604080518082019091526002815261033360f41b6020820152906001600160a01b031633146101c85760405162461bcd60e51b81526004016101bf9190611232565b60405180910390fd5b5060008054600180546001600160a01b03198084166001600160a01b03808416919091179095551690556040805192909116808352336020840152917fde4b3f61490b74c0ed6237523974fe299126bbbf8a8a7482fd220104c59b0c8491015b60405180910390a150565b600054604080518082019091526002815261033360f41b6020820152906001600160a01b031633146102785760405162461bcd60e51b81526004016101bf9190611232565b50806003600084600481111561029057610290611280565b60048111156102a1576102a1611280565b8152602081019190915260400160002080546001600160a01b0319166001600160a01b0392831617905581168260048111156102df576102df611280565b6040517fd992eaec24a9c32398c97bf68d6b13420cfa61ab8a600800cdd1c760d1fc786190600090a35050565b600054604080518082019091526002815261033360f41b6020820152906001600160a01b031633146103515760405162461bcd60e51b81526004016101bf9190611232565b50600280546001600160a01b0319166001600160a01b0383169081179091556040517f6a307a24f425432e870b96f8281754586de703b1ea0ed2d883134333b3a3bdf190600090a250565b606060006103a983610589565b600254604051632af3128360e01b81529192506000916001600160a01b0390911690632af31283906103df908590600401611296565b600060405180830381865afa1580156103fc573d6000803e3d6000fd5b505050506040513d6000823e601f3d908101601f1916820160405261042491908101906112e3565b905060005b84518110156104ab5761045685828151811061044757610447611374565b60200260200101518484610709565b61047885828151811061046b5761046b611374565b60200260200101516107db565b85828151811061048a5761048a611374565b602090810291909101015160600152806104a3816113a0565b915050610429565b50929392505050565b600054604080518082019091526002815261033360f41b6020820152906001600160a01b031633146104f95760405162461bcd60e51b81526004016101bf9190611232565b50604080518082019091526002815261333160f01b60208201526001600160a01b03821661053a5760405162461bcd60e51b81526004016101bf9190611232565b50600180546001600160a01b0319166001600160a01b0383169081179091556040519081527f67235ba2e63c748a35b95c4f92a3bbc2a1389938170a5ce6c9add5d0b03a314a90602001610228565b60606000805b83518110156105d7578381815181106105aa576105aa611374565b6020026020010151610100015151826105c391906113b9565b9150806105cf816113a0565b91505061058f565b5060008167ffffffffffffffff8111156105f3576105f3610d6a565b60405190808252806020026020018201604052801561061c578160200160208202803683370190505b5090506000805b85518210156106ee5760005b86838151811061064157610641611374565b60200260200101516101000151518110156106db5786838151811061066857610668611374565b60200260200101516101000151818151811061068657610686611374565b6020026020010151600001518483815181106106a4576106a4611374565b6001600160a01b0390921660209283029190910190910152806106c6816113a0565b9150826106d2816113a0565b9350505061062f565b50816106e6816113a0565b925050610623565b50506107016106fc8261093b565b610967565b949350505050565b6000805b846101000151518210156107d4575b846101000151828151811061073357610733611374565b6020026020010151600001516001600160a01b031684828151811061075a5761075a611374565b60200260200101516001600160a01b031614610782578061077a816113a0565b91505061071c565b82818151811061079457610794611374565b602002602001015185610100015183815181106107b3576107b3611374565b602090810291909101015160400152816107cc816113a0565b92505061070d565b5050505050565b60008082600001519050600060036000836001600160a01b0316634ac032be6040518163ffffffff1660e01b8152600401602060405180830381865afa158015610829573d6000803e3d6000fd5b505050506040513d601f19601f8201168201806040525081019061084d91906113d2565b600481111561085e5761085e611280565b600481111561086f5761086f611280565b815260208082019290925260409081016000205481518083019092526002825261034360f41b928201929092526001600160a01b039091169150816108c75760405162461bcd60e51b81526004016101bf9190611232565b506101008401516040516305bdd97f60e51b81526001600160a01b0383169163b7bb2fe0916108fa9186916004016113ef565b602060405180830381865afa158015610917573d6000803e3d6000fd5b505050506040513d601f19601f82011682018060405250810190610701919061145b565b6060815160000361094a575090565b6109638260006001855161095e9190611474565b610b39565b5090565b6060600060015b83518110156109ee5783818151811061098957610989611374565b60200260200101516001600160a01b0316846001836109a89190611474565b815181106109b8576109b8611374565b60200260200101516001600160a01b0316036109dc57816109d8816113a0565b9250505b806109e6816113a0565b91505061096e565b50806000036109fe575090919050565b6000818451610a0d9190611474565b67ffffffffffffffff811115610a2557610a25610d6a565b604051908082528060200260200182016040528015610a4e578160200160208202803683370190505b5090506000805b8551821015610b2f5760018651610a6c9190611474565b82108015610ac7575085610a818360016113b9565b81518110610a9157610a91611374565b60200260200101516001600160a01b0316868381518110610ab457610ab4611374565b60200260200101516001600160a01b0316145b610b1d57858281518110610add57610add611374565b6020026020010151838281518110610af757610af7611374565b6001600160a01b039092166020928302919091019091015280610b19816113a0565b9150505b81610b27816113a0565b925050610a55565b5090949350505050565b8181808203610b49575050505050565b6000856002610b588787611487565b610b6291906114ae565b610b6c90876114ea565b81518110610b7c57610b7c611374565b602002602001015190505b818313610cba575b806001600160a01b0316868481518110610bab57610bab611374565b60200260200101516001600160a01b03161015610bd45782610bcc81611512565b935050610b8f565b858281518110610be657610be6611374565b60200260200101516001600160a01b0316816001600160a01b03161015610c195781610c118161152a565b925050610bd4565b818313610cb557858281518110610c3257610c32611374565b6020026020010151868481518110610c4c57610c4c611374565b6020026020010151878581518110610c6657610c66611374565b60200260200101888581518110610c7f57610c7f611374565b6001600160a01b0393841660209182029290920101529116905282610ca381611512565b9350508180610cb19061152a565b9250505b610b87565b81851215610ccd57610ccd868684610b39565b83831215610ce057610ce0868486610b39565b505050505050565b60058110610cf557600080fd5b50565b6001600160a01b0381168114610cf557600080fd5b60008060408385031215610d2057600080fd5b8235610d2b81610ce8565b91506020830135610d3b81610cf8565b809150509250929050565b600060208284031215610d5857600080fd5b8135610d6381610cf8565b9392505050565b634e487b7160e01b600052604160045260246000fd5b6040516060810167ffffffffffffffff81118282101715610da357610da3610d6a565b60405290565b604051610120810167ffffffffffffffff81118282101715610da357610da3610d6a565b604051601f8201601f1916810167ffffffffffffffff81118282101715610df657610df6610d6a565b604052919050565b600067ffffffffffffffff821115610e1857610e18610d6a565b5060051b60200190565b8035610e2d81610cf8565b919050565b803560ff81168114610e2d57600080fd5b600060808284031215610e5557600080fd5b6040516080810181811067ffffffffffffffff82111715610e7857610e78610d6a565b8060405250809150823581526020830135602082015260408301356040820152606083013560608201525092915050565b600082601f830112610eba57600080fd5b81356020610ecf610eca83610dfe565b610dcd565b82815260609283028501820192828201919087851115610eee57600080fd5b8387015b85811015610f4d5781818a031215610f0a5760008081fd5b610f12610d80565b8135610f1d81610cf8565b8152818601358015158114610f325760008081fd5b81870152604082810135908201528452928401928101610ef2565b5090979650505050505050565b60006020808385031215610f6d57600080fd5b823567ffffffffffffffff80821115610f8557600080fd5b818501915085601f830112610f9957600080fd5b8135610fa7610eca82610dfe565b81815260059190911b83018401908481019088831115610fc657600080fd5b8585015b838110156110aa57803585811115610fe25760008081fd5b8601610180818c03601f1901811315610ffb5760008081fd5b611003610da9565b61100e8a8401610e22565b8152604061101d818501610e32565b8b830152606061102e818601610e22565b828401526080915081850135818401525060a061104d8f828701610e43565b8284015261012085013581840152505061014083013560c082015261016083013560e0820152818301359150878211156110875760008081fd5b6110958d8b84860101610ea9565b61010082015285525050918601918601610fca565b5098975050505050505050565b600081518084526020808501945080840160005b8381101561110a57815180516001600160a01b0316885260208082015115159089015260409081015190880152606087019650908201906001016110cb565b509495945050505050565b60006020808301818452808551808352604092508286019150828160051b87010184880160005b8381101561120757888303603f19018552815180516001600160a01b031684526101808189015160ff8116868b015250818801516001600160a01b038116868a01525060608281015186820152608080840151805182890152602081015160a0890152604081015160c08901529182015160e088015290505060a0820151610100818188015260c084015161012088015260e08401516101408801528084015193505050806101608601526111f3818601836110b7565b96890196945050509086019060010161113c565b509098975050505050505050565b60006020828403121561122757600080fd5b8135610d6381610ce8565b600060208083528351808285015260005b8181101561125f57858101830151858201604001528201611243565b506000604082860101526040601f19601f8301168501019250505092915050565b634e487b7160e01b600052602160045260246000fd5b6020808252825182820181905260009190848201906040850190845b818110156112d75783516001600160a01b0316835292840192918401916001016112b2565b50909695505050505050565b600060208083850312156112f657600080fd5b825167ffffffffffffffff81111561130d57600080fd5b8301601f8101851361131e57600080fd5b805161132c610eca82610dfe565b81815260059190911b8201830190838101908783111561134b57600080fd5b928401925b8284101561136957835182529284019290840190611350565b979650505050505050565b634e487b7160e01b600052603260045260246000fd5b634e487b7160e01b600052601160045260246000fd5b6000600182016113b2576113b261138a565b5060010190565b808201808211156113cc576113cc61138a565b92915050565b6000602082840312156113e457600080fd5b8151610d6381610ce8565b6001600160a01b038316815260406020808301829052835191830182905260009184820191906060850190845b81811015610f4d57845180516001600160a01b03168452602080820151151590850152604090810151908401526060830194840194925060010161141c565b60006020828403121561146d57600080fd5b5051919050565b818103818111156113cc576113cc61138a565b81810360008312801583831316838312821617156114a7576114a761138a565b5092915050565b6000826114cb57634e487b7160e01b600052601260045260246000fd5b600160ff1b8214600019841416156114e5576114e561138a565b500590565b808201828112600083128015821682158216171561150a5761150a61138a565b505092915050565b60006001600160ff1b0182016113b2576113b261138a565b6000600160ff1b820161153f5761153f61138a565b50600019019056fea2646970667358221220ad7509eeb248831c4caccfe9b3ffb2f603c54ed14e225571104e5be0ee1a156364736f6c63430008110033",
    "linkReferences": {}
  },
  "methodIdentifiers": {
    "acceptGovernance()": "238efcbc",
    "batchPriceOracle()": "ad3390c0",
    "changeGovernor(address)": "e4c0aaf4",
    "fetchPricesUSD((address,uint8,address,uint256,(uint256,uint256,uint256,uint256),uint256,uint256,uint256,(address,bool,uint256)[])[])": "ccda1ef7",
    "governor()": "0c340a24",
    "pendingGovernor()": "e3056a34",
    "registerVaultPriceOracle(uint8,address)": "9ca12cda",
    "setBatchPriceOracle(address)": "cc8ce652",
    "vaultPriceOracles(uint8)": "d089a0e7"
  },
  "id": 19
}