{
  "abi": [
    {
      "anonymous": false,
      "inputs": [
        {
          "indexed": false,
          "internalType": "address",
          "name": "newGovernor",
          "type": "address"
        }
      ],
      "name": "GovernorChangeRequested",
      "type": "event"
    },
    {
      "anonymous": false,
      "inputs": [
        {
          "indexed": false,
          "internalType": "address",
          "name": "oldGovernor",
          "type": "address"
        },
        {
          "indexed": false,
          "internalType": "address",
          "name": "newGovernor",
          "type": "address"
        }
      ],
      "name": "GovernorChanged",
      "type": "event"
    },
    {
      "anonymous": false,
      "inputs": [
        {
          "indexed": false,
          "internalType": "uint8",
          "name": "version",
          "type": "uint8"
        }
      ],
      "name": "Initialized",
      "type": "event"
    },
    {
      "inputs": [],
      "name": "acceptGovernance",
      "outputs": [],
      "stateMutability": "nonpayable",
      "type": "function"
    },
    {
      "inputs": [
        {
          "internalType": "address",
          "name": "newGovernor",
          "type": "address"
        }
      ],
      "name": "changeGovernor",
      "outputs": [],
      "stateMutability": "nonpayable",
      "type": "function"
    },
    {
      "inputs": [
        {
          "internalType": "address",
          "name": "underlying",
          "type": "address"
        },
        {
          "internalType": "uint256",
          "name": "amount",
          "type": "uint256"
        }
      ],
      "name": "depositFees",
      "outputs": [],
      "stateMutability": "nonpayable",
      "type": "function"
    },
    {
      "inputs": [],
      "name": "governor",
      "outputs": [
        {
          "internalType": "address",
          "name": "",
          "type": "address"
        }
      ],
      "stateMutability": "view",
      "type": "function"
    },
    {
      "inputs": [
        {
          "internalType": "address",
          "name": "_governor",
          "type": "address"
        }
      ],
      "name": "initialize",
      "outputs": [],
      "stateMutability": "nonpayable",
      "type": "function"
    },
    {
      "inputs": [],
      "name": "pendingGovernor",
      "outputs": [
        {
          "internalType": "address",
          "name": "",
          "type": "address"
        }
      ],
      "stateMutability": "view",
      "type": "function"
    },
    {
      "inputs": [
        {
          "internalType": "address",
          "name": "underlying",
          "type": "address"
        },
        {
          "internalType": "address",
          "name": "beneficiary",
          "type": "address"
        },
        {
          "internalType": "uint256",
          "name": "amount",
          "type": "uint256"
        }
      ],
      "name": "withdrawFees",
      "outputs": [],
      "stateMutability": "nonpayable",
      "type": "function"
    }
  ],
  "bytecode": {
    "object": "0x608060405234801561001057600080fd5b5061090f806100206000396000f3fe608060405234801561001057600080fd5b506004361061007d5760003560e01c8063c4d66de81161005b578063c4d66de8146100ce578063e3056a34146100e1578063e4c0aaf4146100f4578063e55dc4e61461010757600080fd5b80630c340a2414610082578063238efcbc146100b1578063a71532cd146100bb575b600080fd5b600054610095906001600160a01b031681565b6040516001600160a01b03909116815260200160405180910390f35b6100b961011a565b005b6100b96100c93660046107bc565b6101d3565b6100b96100dc3660046107e6565b6101ec565b600154610095906001600160a01b031681565b6100b96101023660046107e6565b610315565b6100b9610115366004610808565b6103ea565b600154604080518082019091526002815261033360f41b6020820152906001600160a01b031633146101685760405162461bcd60e51b815260040161015f9190610868565b60405180910390fd5b5060008054600180546001600160a01b03198084166001600160a01b03808416919091179095551690556040805192909116808352336020840152917fde4b3f61490b74c0ed6237523974fe299126bbbf8a8a7482fd220104c59b0c8491015b60405180910390a150565b6101e86001600160a01b038316333084610449565b5050565b600154600160a81b900460ff1615808015610212575060018054600160a01b900460ff16105b806102325750303b158015610232575060018054600160a01b900460ff16145b6102955760405162461bcd60e51b815260206004820152602e60248201527f496e697469616c697a61626c653a20636f6e747261637420697320616c72656160448201526d191e481a5b9a5d1a585b1a5e995960921b606482015260840161015f565b6001805460ff60a01b1916600160a01b17905580156102c2576001805460ff60a81b1916600160a81b1790555b6102cb826104ba565b80156101e8576001805460ff60a81b191681556040519081527f7f26b83ff96e1f2b6a682f133852f6798a09c465da95921460cefb38474024989060200160405180910390a15050565b600054604080518082019091526002815261033360f41b6020820152906001600160a01b0316331461035a5760405162461bcd60e51b815260040161015f9190610868565b50604080518082019091526002815261333160f01b60208201526001600160a01b03821661039b5760405162461bcd60e51b815260040161015f9190610868565b50600180546001600160a01b0319166001600160a01b0383169081179091556040519081527f67235ba2e63c748a35b95c4f92a3bbc2a1389938170a5ce6c9add5d0b03a314a906020016101c8565b600054604080518082019091526002815261033360f41b6020820152906001600160a01b0316331461042f5760405162461bcd60e51b815260040161015f9190610868565b506104446001600160a01b038416838361050e565b505050565b6040516001600160a01b03808516602483015283166044820152606481018290526104b49085906323b872dd60e01b906084015b60408051601f198184030181529190526020810180516001600160e01b03166001600160e01b03199093169290921790915261053e565b50505050565b600080546001600160a01b0319166001600160a01b03831690811782556040805192835260208301919091527fde4b3f61490b74c0ed6237523974fe299126bbbf8a8a7482fd220104c59b0c8491016101c8565b6040516001600160a01b03831660248201526044810182905261044490849063a9059cbb60e01b9060640161047d565b6000610593826040518060400160405280602081526020017f5361666545524332303a206c6f772d6c6576656c2063616c6c206661696c6564815250856001600160a01b03166106109092919063ffffffff16565b80519091501561044457808060200190518101906105b1919061089b565b6104445760405162461bcd60e51b815260206004820152602a60248201527f5361666545524332303a204552433230206f7065726174696f6e20646964206e6044820152691bdd081cdd58d8d9595960b21b606482015260840161015f565b606061061f8484600085610627565b949350505050565b6060824710156106885760405162461bcd60e51b815260206004820152602660248201527f416464726573733a20696e73756666696369656e742062616c616e636520666f6044820152651c8818d85b1b60d21b606482015260840161015f565b600080866001600160a01b031685876040516106a491906108bd565b60006040518083038185875af1925050503d80600081146106e1576040519150601f19603f3d011682016040523d82523d6000602084013e6106e6565b606091505b50915091506106f787838387610702565b979650505050505050565b6060831561077157825160000361076a576001600160a01b0385163b61076a5760405162461bcd60e51b815260206004820152601d60248201527f416464726573733a2063616c6c20746f206e6f6e2d636f6e7472616374000000604482015260640161015f565b508161061f565b61061f83838151156107865781518083602001fd5b8060405162461bcd60e51b815260040161015f9190610868565b80356001600160a01b03811681146107b757600080fd5b919050565b600080604083850312156107cf57600080fd5b6107d8836107a0565b946020939093013593505050565b6000602082840312156107f857600080fd5b610801826107a0565b9392505050565b60008060006060848603121561081d57600080fd5b610826846107a0565b9250610834602085016107a0565b9150604084013590509250925092565b60005b8381101561085f578181015183820152602001610847565b50506000910152565b6020815260008251806020840152610887816040850160208701610844565b601f01601f19169190910160400192915050565b6000602082840312156108ad57600080fd5b8151801515811461080157600080fd5b600082516108cf818460208701610844565b919091019291505056fea26469706673582212203db61f9b99b6c9a9d17e0c52de0092996460fe9d14c679772b366f72aacf7ffd64736f6c63430008110033",
    "linkReferences": {}
  },
  "methodIdentifiers": {
    "acceptGovernance()": "238efcbc",
    "changeGovernor(address)": "e4c0aaf4",
    "depositFees(address,uint256)": "a71532cd",
    "governor()": "0c340a24",
    "initialize(address)": "c4d66de8",
    "pendingGovernor()": "e3056a34",
    "withdrawFees(address,address,uint256)": "e55dc4e6"
  },
  "id": 0
}