{
  "abi": [
    {
      "anonymous": false,
      "inputs": [
        {
          "indexed": false,
          "internalType": "address",
          "name": "newGovernor",
          "type": "address"
        }
      ],
      "name": "GovernorChangeRequested",
      "type": "event"
    },
    {
      "anonymous": false,
      "inputs": [
        {
          "indexed": false,
          "internalType": "address",
          "name": "oldGovernor",
          "type": "address"
        },
        {
          "indexed": false,
          "internalType": "address",
          "name": "newGovernor",
          "type": "address"
        }
      ],
      "name": "GovernorChanged",
      "type": "event"
    },
    {
      "anonymous": false,
      "inputs": [
        {
          "indexed": false,
          "internalType": "uint8",
          "name": "version",
          "type": "uint8"
        }
      ],
      "name": "Initialized",
      "type": "event"
    },
    {
      "inputs": [],
      "name": "acceptGovernance",
      "outputs": [],
      "stateMutability": "nonpayable",
      "type": "function"
    },
    {
      "inputs": [
        {
          "internalType": "address",
          "name": "newGovernor",
          "type": "address"
        }
      ],
      "name": "changeGovernor",
      "outputs": [],
      "stateMutability": "nonpayable",
      "type": "function"
    },
    {
      "inputs": [
        {
          "internalType": "address",
          "name": "target",
          "type": "address"
        },
        {
          "internalType": "bytes",
          "name": "payload",
          "type": "bytes"
        }
      ],
      "name": "executeCall",
      "outputs": [],
      "stateMutability": "nonpayable",
      "type": "function"
    },
    {
      "inputs": [],
      "name": "governor",
      "outputs": [
        {
          "internalType": "address",
          "name": "",
          "type": "address"
        }
      ],
      "stateMutability": "view",
      "type": "function"
    },
    {
      "inputs": [
        {
          "internalType": "address",
          "name": "_governor",
          "type": "address"
        }
      ],
      "name": "initialize",
      "outputs": [],
      "stateMutability": "nonpayable",
      "type": "function"
    },
    {
      "inputs": [],
      "name": "pendingGovernor",
      "outputs": [
        {
          "internalType": "address",
          "name": "",
          "type": "address"
        }
      ],
      "stateMutability": "view",
      "type": "function"
    }
  ],
  "bytecode": {
    "object": "0x608060405234801561001057600080fd5b506107b7806100206000396000f3fe608060405234801561001057600080fd5b50600436106100625760003560e01c80630c340a2414610067578063238efcbc14610096578063bca8c7b5146100a0578063c4d66de8146100b3578063e3056a34146100c6578063e4c0aaf4146100d9575b600080fd5b60005461007a906001600160a01b031681565b6040516001600160a01b03909116815260200160405180910390f35b61009e6100ec565b005b61009e6100ae366004610670565b6101a5565b61009e6100c13660046106f3565b61023b565b60015461007a906001600160a01b031681565b61009e6100e73660046106f3565b610365565b600154604080518082019091526002815261033360f41b6020820152906001600160a01b0316331461013a5760405162461bcd60e51b81526004016101319190610732565b60405180910390fd5b5060008054600180546001600160a01b03198084166001600160a01b03808416919091179095551690556040805192909116808352336020840152917fde4b3f61490b74c0ed6237523974fe299126bbbf8a8a7482fd220104c59b0c8491015b60405180910390a150565b600054604080518082019091526002815261033360f41b6020820152906001600160a01b031633146101ea5760405162461bcd60e51b81526004016101319190610732565b5061023582828080601f016020809104026020016040519081016040528093929190818152602001838380828437600092019190915250506001600160a01b0387169291505061043a565b50505050565b600154600160a81b900460ff1615808015610261575060018054600160a01b900460ff16105b806102815750303b158015610281575060018054600160a01b900460ff16145b6102e45760405162461bcd60e51b815260206004820152602e60248201527f496e697469616c697a61626c653a20636f6e747261637420697320616c72656160448201526d191e481a5b9a5d1a585b1a5e995960921b6064820152608401610131565b6001805460ff60a01b1916600160a01b1790558015610311576001805460ff60a81b1916600160a81b1790555b61031a82610485565b8015610361576001805460ff60a81b191681556040519081527f7f26b83ff96e1f2b6a682f133852f6798a09c465da95921460cefb38474024989060200160405180910390a15b5050565b600054604080518082019091526002815261033360f41b6020820152906001600160a01b031633146103aa5760405162461bcd60e51b81526004016101319190610732565b50604080518082019091526002815261333160f01b60208201526001600160a01b0382166103eb5760405162461bcd60e51b81526004016101319190610732565b50600180546001600160a01b0319166001600160a01b0383169081179091556040519081527f67235ba2e63c748a35b95c4f92a3bbc2a1389938170a5ce6c9add5d0b03a314a9060200161019a565b606061047e838360006040518060400160405280601e81526020017f416464726573733a206c6f772d6c6576656c2063616c6c206661696c656400008152506104d9565b9392505050565b600080546001600160a01b0319166001600160a01b03831690811782556040805192835260208301919091527fde4b3f61490b74c0ed6237523974fe299126bbbf8a8a7482fd220104c59b0c84910161019a565b60608247101561053a5760405162461bcd60e51b815260206004820152602660248201527f416464726573733a20696e73756666696369656e742062616c616e636520666f6044820152651c8818d85b1b60d21b6064820152608401610131565b600080866001600160a01b031685876040516105569190610765565b60006040518083038185875af1925050503d8060008114610593576040519150601f19603f3d011682016040523d82523d6000602084013e610598565b606091505b50915091506105a9878383876105b6565b925050505b949350505050565b6060831561062557825160000361061e576001600160a01b0385163b61061e5760405162461bcd60e51b815260206004820152601d60248201527f416464726573733a2063616c6c20746f206e6f6e2d636f6e74726163740000006044820152606401610131565b50816105ae565b6105ae838381511561063a5781518083602001fd5b8060405162461bcd60e51b81526004016101319190610732565b80356001600160a01b038116811461066b57600080fd5b919050565b60008060006040848603121561068557600080fd5b61068e84610654565b9250602084013567ffffffffffffffff808211156106ab57600080fd5b818601915086601f8301126106bf57600080fd5b8135818111156106ce57600080fd5b8760208285010111156106e057600080fd5b6020830194508093505050509250925092565b60006020828403121561070557600080fd5b61047e82610654565b60005b83811015610729578181015183820152602001610711565b50506000910152565b602081526000825180602084015261075181604085016020870161070e565b601f01601f19169190910160400192915050565b6000825161077781846020870161070e565b919091019291505056fea26469706673582212207ede45437987a52c170182f4d1039758a72f939b79292d75598b1f9b8e1b8d0d64736f6c63430008110033",
    "linkReferences": {}
  },
  "methodIdentifiers": {
    "acceptGovernance()": "238efcbc",
    "changeGovernor(address)": "e4c0aaf4",
    "executeCall(address,bytes)": "bca8c7b5",
    "governor()": "0c340a24",
    "initialize(address)": "c4d66de8",
    "pendingGovernor()": "e3056a34"
  },
  "id": 13
}