{
  "abi": [
    {
      "inputs": [
        {
          "internalType": "address",
          "name": "governor",
          "type": "address"
        },
        {
          "internalType": "contract IGyroConfig",
          "name": "_gyroConfig",
          "type": "address"
        }
      ],
      "stateMutability": "nonpayable",
      "type": "constructor"
    },
    {
      "anonymous": false,
      "inputs": [
        {
          "indexed": false,
          "internalType": "address",
          "name": "newGovernor",
          "type": "address"
        }
      ],
      "name": "GovernorChangeRequested",
      "type": "event"
    },
    {
      "anonymous": false,
      "inputs": [
        {
          "indexed": false,
          "internalType": "address",
          "name": "oldGovernor",
          "type": "address"
        },
        {
          "indexed": false,
          "internalType": "address",
          "name": "newGovernor",
          "type": "address"
        }
      ],
      "name": "GovernorChanged",
      "type": "event"
    },
    {
      "anonymous": false,
      "inputs": [
        {
          "indexed": true,
          "internalType": "address",
          "name": "oldOracle",
          "type": "address"
        },
        {
          "indexed": true,
          "internalType": "address",
          "name": "newOracle",
          "type": "address"
        }
      ],
      "name": "NewPriceOracle",
      "type": "event"
    },
    {
      "anonymous": false,
      "inputs": [
        {
          "indexed": true,
          "internalType": "address",
          "name": "oldManager",
          "type": "address"
        },
        {
          "indexed": true,
          "internalType": "address",
          "name": "newManager",
          "type": "address"
        }
      ],
      "name": "NewVaultWeightManager",
      "type": "event"
    },
    {
      "inputs": [],
      "name": "acceptGovernance",
      "outputs": [],
      "stateMutability": "nonpayable",
      "type": "function"
    },
    {
      "inputs": [],
      "name": "assetRegistry",
      "outputs": [
        {
          "internalType": "contract IAssetRegistry",
          "name": "",
          "type": "address"
        }
      ],
      "stateMutability": "view",
      "type": "function"
    },
    {
      "inputs": [
        {
          "internalType": "address",
          "name": "newGovernor",
          "type": "address"
        }
      ],
      "name": "changeGovernor",
      "outputs": [],
      "stateMutability": "nonpayable",
      "type": "function"
    },
    {
      "inputs": [],
      "name": "getReserveState",
      "outputs": [
        {
          "components": [
            {
              "internalType": "uint256",
              "name": "totalUSDValue",
              "type": "uint256"
            },
            {
              "components": [
                {
                  "internalType": "address",
                  "name": "vault",
                  "type": "address"
                },
                {
                  "internalType": "uint8",
                  "name": "decimals",
                  "type": "uint8"
                },
                {
                  "internalType": "address",
                  "name": "underlying",
                  "type": "address"
                },
                {
                  "internalType": "uint256",
                  "name": "price",
                  "type": "uint256"
                },
                {
                  "components": [
                    {
                      "internalType": "uint256",
                      "name": "initialPrice",
                      "type": "uint256"
                    },
                    {
                      "internalType": "uint256",
                      "name": "initialWeight",
                      "type": "uint256"
                    },
                    {
                      "internalType": "uint256",
                      "name": "shortFlowMemory",
                      "type": "uint256"
                    },
                    {
                      "internalType": "uint256",
                      "name": "shortFlowThreshold",
                      "type": "uint256"
                    }
                  ],
                  "internalType": "struct DataTypes.PersistedVaultMetadata",
                  "name": "persistedMetadata",
                  "type": "tuple"
                },
                {
                  "internalType": "uint256",
                  "name": "reserveBalance",
                  "type": "uint256"
                },
                {
                  "internalType": "uint256",
                  "name": "currentWeight",
                  "type": "uint256"
                },
                {
                  "internalType": "uint256",
                  "name": "idealWeight",
                  "type": "uint256"
                },
                {
                  "components": [
                    {
                      "internalType": "address",
                      "name": "tokenAddress",
                      "type": "address"
                    },
                    {
                      "internalType": "bool",
                      "name": "isStable",
                      "type": "bool"
                    },
                    {
                      "internalType": "uint256",
                      "name": "price",
                      "type": "uint256"
                    }
                  ],
                  "internalType": "struct DataTypes.PricedToken[]",
                  "name": "pricedTokens",
                  "type": "tuple[]"
                }
              ],
              "internalType": "struct DataTypes.VaultInfo[]",
              "name": "vaults",
              "type": "tuple[]"
            }
          ],
          "internalType": "struct DataTypes.ReserveState",
          "name": "",
          "type": "tuple"
        }
      ],
      "stateMutability": "view",
      "type": "function"
    },
    {
      "inputs": [],
      "name": "governor",
      "outputs": [
        {
          "internalType": "address",
          "name": "",
          "type": "address"
        }
      ],
      "stateMutability": "view",
      "type": "function"
    },
    {
      "inputs": [],
      "name": "gyroConfig",
      "outputs": [
        {
          "internalType": "contract IGyroConfig",
          "name": "",
          "type": "address"
        }
      ],
      "stateMutability": "view",
      "type": "function"
    },
    {
      "inputs": [],
      "name": "pendingGovernor",
      "outputs": [
        {
          "internalType": "address",
          "name": "",
          "type": "address"
        }
      ],
      "stateMutability": "view",
      "type": "function"
    },
    {
      "inputs": [
        {
          "internalType": "address",
          "name": "_addressOfVault",
          "type": "address"
        },
        {
          "internalType": "uint256",
          "name": "initialWeight",
          "type": "uint256"
        },
        {
          "internalType": "uint256",
          "name": "shortFlowMemory",
          "type": "uint256"
        },
        {
          "internalType": "uint256",
          "name": "shortFlowThreshold",
          "type": "uint256"
        }
      ],
      "name": "registerVault",
      "outputs": [],
      "stateMutability": "nonpayable",
      "type": "function"
    },
    {
      "inputs": [],
      "name": "reserveAddress",
      "outputs": [
        {
          "internalType": "address",
          "name": "",
          "type": "address"
        }
      ],
      "stateMutability": "view",
      "type": "function"
    },
    {
      "inputs": [],
      "name": "vaultRegistry",
      "outputs": [
        {
          "internalType": "contract IVaultRegistry",
          "name": "",
          "type": "address"
        }
      ],
      "stateMutability": "view",
      "type": "function"
    }
  ],
  "bytecode": {
    "object": "0x6101006040523480156200001257600080fd5b5060405162001fc838038062001fc883398101604081905262000035916200035f565b600080546001600160a01b0319166001600160a01b038416908117825560408051928352602083019190915283917fde4b3f61490b74c0ed6237523974fe299126bbbf8a8a7482fd220104c59b0c84910160405180910390a150620000ae816001600160a01b03166200026160201b620010101760201c565b6001600160a01b03166080816001600160a01b031681525050620000e6816001600160a01b0316620002f660201b6200109b1760201c565b6001600160a01b0390811660a0526040516321f8a72160e01b81526e524553455256455f4144445245535360881b6004820152908216906321f8a72190602401602060405180830381865afa15801562000144573d6000803e3d6000fd5b505050506040513d601f19601f820116820180604052508101906200016a91906200039e565b6001600160a01b0390811660c052608051604080518082019091526002815261333160f01b60208201529116620001bf5760405162461bcd60e51b8152600401620001b69190620003c5565b60405180910390fd5b5060a051604080518082019091526002815261333160f01b6020820152906001600160a01b0316620002065760405162461bcd60e51b8152600401620001b69190620003c5565b5060c051604080518082019091526002815261333160f01b6020820152906001600160a01b03166200024d5760405162461bcd60e51b8152600401620001b69190620003c5565b506001600160a01b031660e0525062000415565b6040516321f8a72160e01b81527f5641554c545f52454749535452595f414444524553530000000000000000000060048201526000906001600160a01b038316906321f8a721906024015b602060405180830381865afa158015620002ca573d6000803e3d6000fd5b505050506040513d601f19601f82011682018060405250810190620002f091906200039e565b92915050565b6040516321f8a72160e01b81527f41535345545f52454749535452595f414444524553530000000000000000000060048201526000906001600160a01b038316906321f8a72190602401620002ac565b6001600160a01b03811681146200035c57600080fd5b50565b600080604083850312156200037357600080fd5b8251620003808162000346565b6020840151909250620003938162000346565b809150509250929050565b600060208284031215620003b157600080fd5b8151620003be8162000346565b9392505050565b600060208083528351808285015260005b81811015620003f457858101830151858201604001528201620003d6565b506000604082860101526040601f19601f8301168501019250505092915050565b60805160a05160c05160e051611b496200047f6000396000818160e20152610be30152600081816101a501526107b001526000818161011c0152610954015260008181610143015281816102fe0152818161041c0152818161056f01526106c50152611b496000f3fe608060405234801561001057600080fd5b506004361061009e5760003560e01c8063cdd7b38a11610066578063cdd7b38a1461013e578063e3056a3414610165578063e4c0aaf414610178578063ef5bac251461018b578063f79ed94b146101a057600080fd5b80630c340a24146100a3578063238efcbc146100d357806344bbdb55146100dd5780637eca5f7c14610104578063979d7e8614610117575b600080fd5b6000546100b6906001600160a01b031681565b6040516001600160a01b0390911681526020015b60405180910390f35b6100db6101c7565b005b6100b67f000000000000000000000000000000000000000000000000000000000000000081565b6100db6101123660046112ef565b610280565b6100b67f000000000000000000000000000000000000000000000000000000000000000081565b6100b67f000000000000000000000000000000000000000000000000000000000000000081565b6001546100b6906001600160a01b031681565b6100db61018636600461132a565b610481565b610193610556565b6040516100ca919061149c565b6100b67f000000000000000000000000000000000000000000000000000000000000000081565b600154604080518082019091526002815261033360f41b6020820152906001600160a01b031633146102155760405162461bcd60e51b815260040161020c91906114c1565b60405180910390fd5b5060008054600180546001600160a01b03198084166001600160a01b03808416919091179095551690556040805192909116808352336020840152917fde4b3f61490b74c0ed6237523974fe299126bbbf8a8a7482fd220104c59b0c8491015b60405180910390a150565b600054604080518082019091526002815261033360f41b6020820152906001600160a01b031633146102c55760405162461bcd60e51b815260040161020c91906114c1565b5060408051608081018252600081526020810185905280820184905260608101839052905163e746401560e01b81526001600160a01b037f0000000000000000000000000000000000000000000000000000000000000000169063e746401590610335908890859060040161150f565b600060405180830381600087803b15801561034f57600080fd5b505af1158015610363573d6000803e3d6000fd5b505050506000610371610556565b90506000805b8260200151518110156103f557876001600160a01b0316836020015182815181106103a4576103a461154d565b6020026020010151600001516001600160a01b0316036103e357826020015181815181106103d4576103d461154d565b60200260200101516060015191505b806103ed81611579565b915050610377565b50604051634af28b8d60e11b81526001600160a01b038881166004830152602482018390527f000000000000000000000000000000000000000000000000000000000000000016906395e5171a90604401600060405180830381600087803b15801561046057600080fd5b505af1158015610474573d6000803e3d6000fd5b5050505050505050505050565b600054604080518082019091526002815261033360f41b6020820152906001600160a01b031633146104c65760405162461bcd60e51b815260040161020c91906114c1565b50604080518082019091526002815261333160f01b60208201526001600160a01b0382166105075760405162461bcd60e51b815260040161020c91906114c1565b50600180546001600160a01b0319166001600160a01b0383169081179091556040519081527f67235ba2e63c748a35b95c4f92a3bbc2a1389938170a5ce6c9add5d0b03a314a90602001610275565b60408051808201909152600081526060602082015260007f00000000000000000000000000000000000000000000000000000000000000006001600160a01b03166350cc258e6040518163ffffffff1660e01b8152600401600060405180830381865afa1580156105cb573d6000803e3d6000fd5b505050506040513d6000823e601f3d908101601f191682016040526105f3919081019061165a565b9050600081511160405180604001604052806002815260200161333160f01b815250906106335760405162461bcd60e51b815260040161020c91906114c1565b50805160008167ffffffffffffffff81111561065157610651611592565b60405190808252806020026020018201604052801561068a57816020015b61067761124d565b81526020019060019003908161066f5790505b50905060005b82811015610bdd576106c36040518060800160405280600081526020016000815260200160008152602001600081525090565b7f00000000000000000000000000000000000000000000000000000000000000006001600160a01b031663dc4f1e498684815181106107045761070461154d565b60200260200101516040518263ffffffff1660e01b815260040161073791906001600160a01b0391909116815260200190565b608060405180830381865afa158015610754573d6000803e3d6000fd5b505050506040513d601f19601f82011682018060405250810190610778919061175f565b9050600085838151811061078e5761078e61154d565b60209081029190910101516040516370a0823160e01b81526001600160a01b037f000000000000000000000000000000000000000000000000000000000000000081166004830152909116906370a0823190602401602060405180830381865afa158015610800573d6000803e3d6000fd5b505050506040513d601f19601f82011682018060405250810190610824919061177b565b9050600086848151811061083a5761083a61154d565b60200260200101516001600160a01b031663aa6ca8086040518163ffffffff1660e01b8152600401600060405180830381865afa15801561087f573d6000803e3d6000fd5b505050506040513d6000823e601f3d908101601f191682016040526108a79190810190611794565b90506000815167ffffffffffffffff8111156108c5576108c5611592565b60405190808252806020026020018201604052801561091057816020015b60408051606081018252600080825260208083018290529282015282526000199092019101816108e35790505b50905060005b8251811015610a4357604051806060016040528084838151811061093c5761093c61154d565b60200260200101516001600160a01b031681526020017f00000000000000000000000000000000000000000000000000000000000000006001600160a01b0316634976c5888685815181106109935761099361154d565b60200260200101516040518263ffffffff1660e01b81526004016109c691906001600160a01b0391909116815260200190565b602060405180830381865afa1580156109e3573d6000803e3d6000fd5b505050506040513d601f19601f82011682018060405250810190610a079190611833565b151581526020016000815250828281518110610a2557610a2561154d565b60200260200101819052508080610a3b90611579565b915050610916565b50604051806101200160405280898781518110610a6257610a6261154d565b60200260200101516001600160a01b03168152602001898781518110610a8a57610a8a61154d565b60200260200101516001600160a01b031663313ce5676040518163ffffffff1660e01b8152600401602060405180830381865afa158015610acf573d6000803e3d6000fd5b505050506040513d601f19601f82011682018060405250810190610af3919061185f565b60ff168152602001898781518110610b0d57610b0d61154d565b60200260200101516001600160a01b0316636f307dc36040518163ffffffff1660e01b8152600401602060405180830381865afa158015610b52573d6000803e3d6000fd5b505050506040513d601f19601f82011682018060405250810190610b76919061187a565b6001600160a01b0316815260200160008152602001858152602001848152602001600081526020016000815260200182815250868681518110610bbb57610bbb61154d565b6020026020010181905250505050508080610bd590611579565b915050610690565b50610c107f00000000000000000000000000000000000000000000000000000000000000006001600160a01b03166110e3565b6001600160a01b031663ccda1ef7826040518263ffffffff1660e01b8152600401610c3b9190611897565b600060405180830381865afa158015610c58573d6000803e3d6000fd5b505050506040513d6000823e601f3d908101601f19168201604052610c809190810190611941565b90506000808367ffffffffffffffff811115610c9e57610c9e611592565b604051908082528060200260200182016040528015610cc7578160200160208202803683370190505b50905060005b84811015610d64576000610d24858381518110610cec57610cec61154d565b602002602001015160a00151868481518110610d0a57610d0a61154d565b60200260200101516060015161113290919063ffffffff16565b905080838381518110610d3957610d3961154d565b6020908102919091010152610d4e8185611a9e565b9350508080610d5c90611579565b915050610ccd565b5060005b84811015610dfd578215610da757610da283838381518110610d8c57610d8c61154d565b602002602001015161115b90919063ffffffff16565b610dca565b838181518110610db957610db961154d565b602002602001015160800151602001515b848281518110610ddc57610ddc61154d565b602090810291909101015160c0015280610df581611579565b915050610d68565b506000808567ffffffffffffffff811115610e1a57610e1a611592565b604051908082528060200260200182016040528015610e43578160200160208202803683370190505b50905060005b86811015610f39576000868281518110610e6557610e6561154d565b60200260200101516080015160000151905080600003610e855750610f27565b610ee0878381518110610e9a57610e9a61154d565b60200260200101516080015160200151610eda838a8681518110610ec057610ec061154d565b60200260200101516060015161115b90919063ffffffff16565b90611132565b838381518110610ef257610ef261154d565b602002602001018181525050828281518110610f1057610f1061154d565b602002602001015184610f239190611a9e565b9350505b80610f3181611579565b915050610e49565b508115610fef576000805b87811015610fec576000610f7a85858481518110610f6457610f6461154d565b60200260200101516111ce90919063ffffffff16565b9050670de0b6b3a7640000610f8f8285611a9e565b1115610faa57610fa783670de0b6b3a7640000611ab1565b90505b80888381518110610fbd57610fbd61154d565b602090810291909101015160e00152610fd68184611a9e565b9250508080610fe490611579565b915050610f44565b50505b60405180604001604052808581526020018681525097505050505050505090565b6040516321f8a72160e01b8152755641554c545f52454749535452595f4144445245535360501b60048201526000906001600160a01b038316906321f8a721906024015b602060405180830381865afa158015611071573d6000803e3d6000fd5b505050506040513d601f19601f82011682018060405250810190611095919061187a565b92915050565b6040516321f8a72160e01b81527541535345545f52454749535452595f4144445245535360501b60048201526000906001600160a01b038316906321f8a72190602401611054565b6040516321f8a72160e01b81527f524f4f545f50524943455f4f5241434c455f414444524553530000000000000060048201526000906001600160a01b038316906321f8a72190602401611054565b60008061113f8385611ac4565b9050611153670de0b6b3a764000082611af1565b949350505050565b604080518082019091526002815261323560f01b6020820152600090826111955760405162461bcd60e51b815260040161020c91906114c1565b50826000036111a657506000611095565b60006111ba670de0b6b3a764000085611ac4565b90506111c68382611af1565b915050611095565b604080518082019091526002815261323560f01b6020820152600090826112085760405162461bcd60e51b815260040161020c91906114c1565b508260000361121957506000611095565b600061122d670de0b6b3a764000085611ac4565b905082600182038161124157611241611adb565b04600101915050611095565b60405180610120016040528060006001600160a01b03168152602001600060ff16815260200160006001600160a01b03168152602001600081526020016112b56040518060800160405280600081526020016000815260200160008152602001600081525090565b8152602001600081526020016000815260200160008152602001606081525090565b6001600160a01b03811681146112ec57600080fd5b50565b6000806000806080858703121561130557600080fd5b8435611310816112d7565b966020860135965060408601359560600135945092505050565b60006020828403121561133c57600080fd5b8135611347816112d7565b9392505050565b600081518084526020808501945080840160005b8381101561139f57815180516001600160a01b03168852838101511515848901526040908101519088015260609096019590820190600101611362565b509495945050505050565b6000815180845260208085019450848260051b860182860160005b8581101561148f578383038952815180516001600160a01b031684526101808187015160ff811686890152506040828101516001600160a01b03811687830152505060608281015186820152608080840151805182890152602081015160a0890152604081015160c08901529182015160e088015290505060a0820151610100818188015260c084015161012088015260e084015161014088015280840151935050508061016086015261147b8186018361134e565b9a87019a94505050908401906001016113c5565b5090979650505050505050565b60208152815160208201526000602083015160408084015261115360608401826113aa565b600060208083528351808285015260005b818110156114ee578581018301518582016040015282016114d2565b506000604082860101526040601f19601f8301168501019250505092915050565b6001600160a01b038316815260a081016113476020830184805182526020810151602083015260408101516040830152606081015160608301525050565b634e487b7160e01b600052603260045260246000fd5b634e487b7160e01b600052601160045260246000fd5b60006001820161158b5761158b611563565b5060010190565b634e487b7160e01b600052604160045260246000fd5b6040516060810167ffffffffffffffff811182821017156115cb576115cb611592565b60405290565b604051610120810167ffffffffffffffff811182821017156115cb576115cb611592565b604051601f8201601f1916810167ffffffffffffffff8111828210171561161e5761161e611592565b604052919050565b600067ffffffffffffffff82111561164057611640611592565b5060051b60200190565b8051611655816112d7565b919050565b6000602080838503121561166d57600080fd5b825167ffffffffffffffff81111561168457600080fd5b8301601f8101851361169557600080fd5b80516116a86116a382611626565b6115f5565b81815260059190911b820183019083810190878311156116c757600080fd5b928401925b828410156116ee5783516116df816112d7565b825292840192908401906116cc565b979650505050505050565b60006080828403121561170b57600080fd5b6040516080810181811067ffffffffffffffff8211171561172e5761172e611592565b8060405250809150825181526020830151602082015260408301516040820152606083015160608201525092915050565b60006080828403121561177157600080fd5b61134783836116f9565b60006020828403121561178d57600080fd5b5051919050565b600060208083850312156117a757600080fd5b825167ffffffffffffffff8111156117be57600080fd5b8301601f810185136117cf57600080fd5b80516117dd6116a382611626565b81815260059190911b820183019083810190878311156117fc57600080fd5b928401925b828410156116ee578351611814816112d7565b82529284019290840190611801565b8051801515811461165557600080fd5b60006020828403121561184557600080fd5b61134782611823565b805160ff8116811461165557600080fd5b60006020828403121561187157600080fd5b6113478261184e565b60006020828403121561188c57600080fd5b8151611347816112d7565b60208152600061134760208301846113aa565b600082601f8301126118bb57600080fd5b815160206118cb6116a383611626565b828152606092830285018201928282019190878511156118ea57600080fd5b8387015b8581101561148f5781818a0312156119065760008081fd5b61190e6115a8565b8151611919816112d7565b8152611926828701611823565b818701526040828101519082015284529284019281016118ee565b6000602080838503121561195457600080fd5b825167ffffffffffffffff8082111561196c57600080fd5b818501915085601f83011261198057600080fd5b815161198e6116a382611626565b81815260059190911b830184019084810190888311156119ad57600080fd5b8585015b83811015611a91578051858111156119c95760008081fd5b8601610180818c03601f19018113156119e25760008081fd5b6119ea6115d1565b6119f58a840161164a565b81526040611a0481850161184e565b8b8301526060611a1581860161164a565b828401526080915081850151818401525060a0611a348f8287016116f9565b8284015261012085015181840152505061014083015160c082015261016083015160e082015281830151915087821115611a6e5760008081fd5b611a7c8d8b848601016118aa565b610100820152855250509186019186016119b1565b5098975050505050505050565b8082018082111561109557611095611563565b8181038181111561109557611095611563565b808202811582820484141761109557611095611563565b634e487b7160e01b600052601260045260246000fd5b600082611b0e57634e487b7160e01b600052601260045260246000fd5b50049056fea26469706673582212200f3f051bdb43775c81a1f0be0ce4336f1a2c7c44dbcbe8abf975ffb0edc6f8a564736f6c63430008110033",
    "linkReferences": {}
  },
  "methodIdentifiers": {
    "acceptGovernance()": "238efcbc",
    "assetRegistry()": "979d7e86",
    "changeGovernor(address)": "e4c0aaf4",
    "getReserveState()": "ef5bac25",
    "governor()": "0c340a24",
    "gyroConfig()": "44bbdb55",
    "pendingGovernor()": "e3056a34",
    "registerVault(address,uint256,uint256,uint256)": "7eca5f7c",
    "reserveAddress()": "f79ed94b",
    "vaultRegistry()": "cdd7b38a"
  },
  "id": 1
}