{
  "abi": [
    {
      "inputs": [
        {
          "internalType": "address[]",
          "name": "data",
          "type": "address[]"
        }
      ],
      "name": "dedup",
      "outputs": [
        {
          "internalType": "address[]",
          "name": "",
          "type": "address[]"
        }
      ],
      "stateMutability": "pure",
      "type": "function"
    },
    {
      "inputs": [
        {
          "internalType": "address[]",
          "name": "data",
          "type": "address[]"
        }
      ],
      "name": "sort",
      "outputs": [
        {
          "internalType": "address[]",
          "name": "",
          "type": "address[]"
        }
      ],
      "stateMutability": "view",
      "type": "function"
    }
  ],
  "bytecode": {
    "object": "0x608060405234801561001057600080fd5b506106e5806100206000396000f3fe608060405234801561001057600080fd5b50600436106100365760003560e01c8063128424a71461003b57806331080ca014610064575b600080fd5b61004e610049366004610472565b610077565b60405161005b9190610537565b60405180910390f35b61004e610072366004610472565b610088565b606061008282610093565b92915050565b6060610082826100bf565b606081516000036100a2575090565b6100bb826000600185516100b6919061059a565b610291565b5090565b6060600060015b8351811015610146578381815181106100e1576100e16105ad565b60200260200101516001600160a01b031684600183610100919061059a565b81518110610110576101106105ad565b60200260200101516001600160a01b0316036101345781610130816105c3565b9250505b8061013e816105c3565b9150506100c6565b5080600003610156575090919050565b6000818451610165919061059a565b67ffffffffffffffff81111561017d5761017d610440565b6040519080825280602002602001820160405280156101a6578160200160208202803683370190505b5090506000805b855182101561028757600186516101c4919061059a565b8210801561021f5750856101d98360016105dc565b815181106101e9576101e96105ad565b60200260200101516001600160a01b031686838151811061020c5761020c6105ad565b60200260200101516001600160a01b0316145b61027557858281518110610235576102356105ad565b602002602001015183828151811061024f5761024f6105ad565b6001600160a01b039092166020928302919091019091015280610271816105c3565b9150505b8161027f816105c3565b9250506101ad565b5090949350505050565b81818082036102a1575050505050565b60008560026102b087876105ef565b6102ba9190610616565b6102c49087610652565b815181106102d4576102d46105ad565b602002602001015190505b818313610412575b806001600160a01b0316868481518110610303576103036105ad565b60200260200101516001600160a01b0316101561032c57826103248161067a565b9350506102e7565b85828151811061033e5761033e6105ad565b60200260200101516001600160a01b0316816001600160a01b03161015610371578161036981610692565b92505061032c565b81831361040d5785828151811061038a5761038a6105ad565b60200260200101518684815181106103a4576103a46105ad565b60200260200101518785815181106103be576103be6105ad565b602002602001018885815181106103d7576103d76105ad565b6001600160a01b03938416602091820292909201015291169052826103fb8161067a565b935050818061040990610692565b9250505b6102df565b8185121561042557610425868684610291565b8383121561043857610438868486610291565b505050505050565b634e487b7160e01b600052604160045260246000fd5b80356001600160a01b038116811461046d57600080fd5b919050565b6000602080838503121561048557600080fd5b823567ffffffffffffffff8082111561049d57600080fd5b818501915085601f8301126104b157600080fd5b8135818111156104c3576104c3610440565b8060051b604051601f19603f830116810181811085821117156104e8576104e8610440565b60405291825284820192508381018501918883111561050657600080fd5b938501935b8285101561052b5761051c85610456565b8452938501939285019261050b565b98975050505050505050565b6020808252825182820181905260009190848201906040850190845b818110156105785783516001600160a01b031683529284019291840191600101610553565b50909695505050505050565b634e487b7160e01b600052601160045260246000fd5b8181038181111561008257610082610584565b634e487b7160e01b600052603260045260246000fd5b6000600182016105d5576105d5610584565b5060010190565b8082018082111561008257610082610584565b818103600083128015838313168383128216171561060f5761060f610584565b5092915050565b60008261063357634e487b7160e01b600052601260045260246000fd5b600160ff1b82146000198414161561064d5761064d610584565b500590565b808201828112600083128015821682158216171561067257610672610584565b505092915050565b60006001600160ff1b0182016105d5576105d5610584565b6000600160ff1b82016106a7576106a7610584565b50600019019056fea26469706673582212204c756d45124dd66cf220378a8a99515713f2393053f83c0931ac24f8d7fc73ea64736f6c63430008110033",
    "linkReferences": {}
  },
  "methodIdentifiers": {
    "dedup(address[])": "31080ca0",
    "sort(address[])": "128424a7"
  },
  "id": 40
}