{
  "abi": [
    {
      "inputs": [
        {
          "internalType": "contract IGyroConfig",
          "name": "_gyroConfig",
          "type": "address"
        }
      ],
      "stateMutability": "nonpayable",
      "type": "constructor"
    },
    {
      "anonymous": false,
      "inputs": [
        {
          "indexed": false,
          "internalType": "address",
          "name": "newGovernor",
          "type": "address"
        }
      ],
      "name": "GovernorChangeRequested",
      "type": "event"
    },
    {
      "anonymous": false,
      "inputs": [
        {
          "indexed": false,
          "internalType": "address",
          "name": "oldGovernor",
          "type": "address"
        },
        {
          "indexed": false,
          "internalType": "address",
          "name": "newGovernor",
          "type": "address"
        }
      ],
      "name": "GovernorChanged",
      "type": "event"
    },
    {
      "anonymous": false,
      "inputs": [
        {
          "indexed": false,
          "internalType": "uint8",
          "name": "version",
          "type": "uint8"
        }
      ],
      "name": "Initialized",
      "type": "event"
    },
    {
      "inputs": [],
      "name": "acceptGovernance",
      "outputs": [],
      "stateMutability": "nonpayable",
      "type": "function"
    },
    {
      "inputs": [
        {
          "internalType": "address",
          "name": "newGovernor",
          "type": "address"
        }
      ],
      "name": "changeGovernor",
      "outputs": [],
      "stateMutability": "nonpayable",
      "type": "function"
    },
    {
      "inputs": [
        {
          "components": [
            {
              "internalType": "address",
              "name": "inputToken",
              "type": "address"
            },
            {
              "internalType": "uint256",
              "name": "inputAmount",
              "type": "uint256"
            },
            {
              "internalType": "address",
              "name": "destinationVault",
              "type": "address"
            }
          ],
          "internalType": "struct DataTypes.MintAsset[]",
          "name": "assets",
          "type": "tuple[]"
        },
        {
          "internalType": "uint256",
          "name": "minReceivedAmount",
          "type": "uint256"
        },
        {
          "internalType": "address",
          "name": "account",
          "type": "address"
        }
      ],
      "name": "dryMint",
      "outputs": [
        {
          "internalType": "uint256",
          "name": "mintedGYDAmount",
          "type": "uint256"
        },
        {
          "internalType": "string",
          "name": "err",
          "type": "string"
        }
      ],
      "stateMutability": "view",
      "type": "function"
    },
    {
      "inputs": [
        {
          "internalType": "uint256",
          "name": "gydToRedeem",
          "type": "uint256"
        },
        {
          "components": [
            {
              "internalType": "address",
              "name": "outputToken",
              "type": "address"
            },
            {
              "internalType": "uint256",
              "name": "minOutputAmount",
              "type": "uint256"
            },
            {
              "internalType": "uint256",
              "name": "valueRatio",
              "type": "uint256"
            },
            {
              "internalType": "address",
              "name": "originVault",
              "type": "address"
            }
          ],
          "internalType": "struct DataTypes.RedeemAsset[]",
          "name": "assets",
          "type": "tuple[]"
        }
      ],
      "name": "dryRedeem",
      "outputs": [
        {
          "internalType": "uint256[]",
          "name": "outputAmounts",
          "type": "uint256[]"
        },
        {
          "internalType": "string",
          "name": "err",
          "type": "string"
        }
      ],
      "stateMutability": "view",
      "type": "function"
    },
    {
      "inputs": [],
      "name": "governor",
      "outputs": [
        {
          "internalType": "address",
          "name": "",
          "type": "address"
        }
      ],
      "stateMutability": "view",
      "type": "function"
    },
    {
      "inputs": [],
      "name": "gydToken",
      "outputs": [
        {
          "internalType": "contract IGYDToken",
          "name": "",
          "type": "address"
        }
      ],
      "stateMutability": "view",
      "type": "function"
    },
    {
      "inputs": [],
      "name": "gyroConfig",
      "outputs": [
        {
          "internalType": "contract IGyroConfig",
          "name": "",
          "type": "address"
        }
      ],
      "stateMutability": "view",
      "type": "function"
    },
    {
      "inputs": [
        {
          "internalType": "address",
          "name": "_governor",
          "type": "address"
        }
      ],
      "name": "initialize",
      "outputs": [],
      "stateMutability": "nonpayable",
      "type": "function"
    },
    {
      "inputs": [
        {
          "components": [
            {
              "internalType": "address",
              "name": "inputToken",
              "type": "address"
            },
            {
              "internalType": "uint256",
              "name": "inputAmount",
              "type": "uint256"
            },
            {
              "internalType": "address",
              "name": "destinationVault",
              "type": "address"
            }
          ],
          "internalType": "struct DataTypes.MintAsset[]",
          "name": "assets",
          "type": "tuple[]"
        },
        {
          "internalType": "uint256",
          "name": "minReceivedAmount",
          "type": "uint256"
        }
      ],
      "name": "mint",
      "outputs": [
        {
          "internalType": "uint256",
          "name": "mintedGYDAmount",
          "type": "uint256"
        }
      ],
      "stateMutability": "nonpayable",
      "type": "function"
    },
    {
      "inputs": [],
      "name": "pamm",
      "outputs": [
        {
          "internalType": "contract IPAMM",
          "name": "",
          "type": "address"
        }
      ],
      "stateMutability": "view",
      "type": "function"
    },
    {
      "inputs": [],
      "name": "pendingGovernor",
      "outputs": [
        {
          "internalType": "address",
          "name": "",
          "type": "address"
        }
      ],
      "stateMutability": "view",
      "type": "function"
    },
    {
      "inputs": [
        {
          "internalType": "uint256",
          "name": "gydToRedeem",
          "type": "uint256"
        },
        {
          "components": [
            {
              "internalType": "address",
              "name": "outputToken",
              "type": "address"
            },
            {
              "internalType": "uint256",
              "name": "minOutputAmount",
              "type": "uint256"
            },
            {
              "internalType": "uint256",
              "name": "valueRatio",
              "type": "uint256"
            },
            {
              "internalType": "address",
              "name": "originVault",
              "type": "address"
            }
          ],
          "internalType": "struct DataTypes.RedeemAsset[]",
          "name": "assets",
          "type": "tuple[]"
        }
      ],
      "name": "redeem",
      "outputs": [
        {
          "internalType": "uint256[]",
          "name": "",
          "type": "uint256[]"
        }
      ],
      "stateMutability": "nonpayable",
      "type": "function"
    },
    {
      "inputs": [],
      "name": "reserve",
      "outputs": [
        {
          "internalType": "contract IReserve",
          "name": "",
          "type": "address"
        }
      ],
      "stateMutability": "view",
      "type": "function"
    }
  ],
  "bytecode": {
    "object": "0x6101006040523480156200001257600080fd5b50604051620049a2380380620049a283398101604081905262000035916200067e565b6001600160a01b03811660c08190526200005b9062000132602090811b6200133b17901c565b6001600160a01b03166080816001600160a01b03168152505062000093816001600160a01b0316620001bb60201b620013c11760201c565b6001600160a01b031660a0816001600160a01b031681525050620000cb816001600160a01b0316620001fd60201b620014021760201c565b6001600160a01b031660e0816001600160a01b0316815250506200012b62000107826001600160a01b03166200024d60201b6200144a1760201c565b6000196080516001600160a01b03166200029060201b6200148c179092919060201c565b506200075c565b6040516321f8a72160e01b8152704759445f544f4b454e5f4144445245535360781b60048201526000906001600160a01b038316906321f8a721906024015b602060405180830381865afa1580156200018f573d6000803e3d6000fd5b505050506040513d601f19601f82011682018060405250810190620001b591906200067e565b92915050565b6040516321f8a72160e01b81526e524553455256455f4144445245535360881b60048201526000906001600160a01b038316906321f8a7219060240162000171565b6040516321f8a72160e01b81527f42414c414e4345525f5641554c545f414444524553530000000000000000000060048201526000906001600160a01b038316906321f8a7219060240162000171565b6040516321f8a72160e01b81526f4645455f42414e4b5f4144445245535360801b60048201526000906001600160a01b038316906321f8a7219060240162000171565b8015806200030e5750604051636eb1769f60e11b81523060048201526001600160a01b03838116602483015284169063dd62ed3e90604401602060405180830381865afa158015620002e6573d6000803e3d6000fd5b505050506040513d601f19601f820116820180604052508101906200030c9190620006a5565b155b620003865760405162461bcd60e51b815260206004820152603660248201527f5361666545524332303a20617070726f76652066726f6d206e6f6e2d7a65726f60448201527f20746f206e6f6e2d7a65726f20616c6c6f77616e63650000000000000000000060648201526084015b60405180910390fd5b604080516001600160a01b038416602482015260448082018490528251808303909101815260649091019091526020810180516001600160e01b0390811663095ea7b360e01b17909152620003de918591620003e316565b505050565b60006200043f826040518060400160405280602081526020017f5361666545524332303a206c6f772d6c6576656c2063616c6c206661696c6564815250856001600160a01b0316620004c160201b620015d9179092919060201c565b805190915015620003de5780806020019051810190620004609190620006bf565b620003de5760405162461bcd60e51b815260206004820152602a60248201527f5361666545524332303a204552433230206f7065726174696f6e20646964206e6044820152691bdd081cdd58d8d9595960b21b60648201526084016200037d565b6060620004d28484600085620004da565b949350505050565b6060824710156200053d5760405162461bcd60e51b815260206004820152602660248201527f416464726573733a20696e73756666696369656e742062616c616e636520666f6044820152651c8818d85b1b60d21b60648201526084016200037d565b600080866001600160a01b031685876040516200055b919062000709565b60006040518083038185875af1925050503d80600081146200059a576040519150601f19603f3d011682016040523d82523d6000602084013e6200059f565b606091505b509092509050620005b387838387620005be565b979650505050505050565b60608315620006325782516000036200062a576001600160a01b0385163b6200062a5760405162461bcd60e51b815260206004820152601d60248201527f416464726573733a2063616c6c20746f206e6f6e2d636f6e747261637400000060448201526064016200037d565b5081620004d2565b620004d28383815115620006495781518083602001fd5b8060405162461bcd60e51b81526004016200037d919062000727565b6001600160a01b03811681146200067b57600080fd5b50565b6000602082840312156200069157600080fd5b81516200069e8162000665565b9392505050565b600060208284031215620006b857600080fd5b5051919050565b600060208284031215620006d257600080fd5b815180151581146200069e57600080fd5b60005b8381101562000700578181015183820152602001620006e6565b50506000910152565b600082516200071d818460208701620006e3565b9190910192915050565b602081526000825180602084015262000748816040850160208701620006e3565b601f01601f19169190910160400192915050565b60805160a05160c05160e05161416b6200083760003960006116cc0152600081816101340152818161031f015281816103ca015281816104df01528181610768015281816108960152818161094c01528181610a9801528181610c2801528181610cb901528181610d9c01528181610e4701528181610f01015281816110c401528181611ad901528181611bb50152611bec0152600081816101d80152818161048301528181612cc30152612e1c015260008181610225015281816106aa01528181610a2d01528181611b0c0152611c38015261416b6000f3fe608060405234801561001057600080fd5b50600436106100cf5760003560e01c8063565294031161008c578063cd3293de11610066578063cd3293de146101d3578063e3056a34146101fa578063e4c0aaf41461020d578063fbf600281461022057600080fd5b8063565294031461019757806385b0c781146101b8578063c4d66de8146101c057600080fd5b80630c340a24146100d4578063238efcbc146101045780632799c6cf1461010e57806344bbdb551461012f5780634d8ca4c5146101565780634e4d822a14610177575b600080fd5b6000546100e7906001600160a01b031681565b6040516001600160a01b0390911681526020015b60405180910390f35b61010c610247565b005b61012161011c366004613482565b610300565b6040519081526020016100fb565b6100e77f000000000000000000000000000000000000000000000000000000000000000081565b6101696101643660046134cd565b61071a565b6040516100fb9291906135d6565b61018a6101853660046134cd565b610a07565b6040516100fb9190613604565b6101aa6101a536600461362f565b610d6f565b6040516100fb92919061368d565b6100e761109d565b61010c6101ce3660046136a6565b61113c565b6100e77f000000000000000000000000000000000000000000000000000000000000000081565b6001546100e7906001600160a01b031681565b61010c61021b3660046136a6565b611266565b6100e77f000000000000000000000000000000000000000000000000000000000000000081565b600154604080518082019091526002815261033360f41b6020820152906001600160a01b031633146102955760405162461bcd60e51b815260040161028c91906136c3565b60405180910390fd5b5060008054600180546001600160a01b03198084166001600160a01b03808416919091179095551690556040805192909116808352336020840152917fde4b3f61490b74c0ed6237523974fe299126bbbf8a8a7482fd220104c59b0c8491015b60405180910390a150565b600061030a6115f0565b60006103168585611738565b9050600061034c7f00000000000000000000000000000000000000000000000000000000000000006001600160a01b0316611833565b6001600160a01b031663ef5bac256040518163ffffffff1660e01b8152600401600060405180830381865afa158015610389573d6000803e3d6000fd5b505050506040513d6000823e601f3d908101601f191682016040526103b191908101906139a5565b905060006103c3838360200151611882565b90506103f77f00000000000000000000000000000000000000000000000000000000000000006001600160a01b0316611981565b6001600160a01b031663d625436c826040518263ffffffff1660e01b81526004016104229190613ade565b600060405180830381600087803b15801561043c57600080fd5b505af1158015610450573d6000803e3d6000fd5b5050505060005b83518110156104d757600084828151811061047457610474613c05565b602002602001015190506104c47f0000000000000000000000000000000000000000000000000000000000000000826020015183600001516001600160a01b03166119d09092919063ffffffff16565b50806104cf81613c31565b915050610457565b50600061050c7f00000000000000000000000000000000000000000000000000000000000000006001600160a01b0316611a00565b6001600160a01b031663aa52e2b4836040518263ffffffff1660e01b81526004016105379190613ade565b600060405180830381865afa158015610554573d6000803e3d6000fd5b505050506040513d6000823e601f3d908101601f1916820160405261057c9190810190613c4a565b9050600061058982611a45565b905061059361109d565b8451604051630d9778e560e11b81526004810184905260248101919091526001600160a01b039190911690631b2ef1ca906044016020604051808303816000875af11580156105e6573d6000803e3d6000fd5b505050506040513d601f19601f8201168201806040525081019061060a9190613d76565b955086861015604051806040016040528060018152602001601960f91b815250906106485760405162461bcd60e51b815260040161028c91906136c3565b506106533387611ad1565b15604051806040016040528060028152602001610d8d60f21b8152509061068d5760405162461bcd60e51b815260040161028c91906136c3565b506040516340c10f1960e01b8152336004820152602481018790527f00000000000000000000000000000000000000000000000000000000000000006001600160a01b0316906340c10f1990604401600060405180830381600087803b1580156106f657600080fd5b505af115801561070a573d6000803e3d6000fd5b5050505050505050509392505050565b606080826001600160401b03811115610735576107356136d6565b60405190808252806020026020018201604052801561075e578160200160208202803683370190505b50915060006107957f00000000000000000000000000000000000000000000000000000000000000006001600160a01b0316611833565b6001600160a01b031663ef5bac256040518163ffffffff1660e01b8152600401600060405180830381865afa1580156107d2573d6000803e3d6000fd5b505050506040513d6000823e601f3d908101601f191682016040526107fa91908101906139a5565b9050600061080661109d565b8251604051631c76d8fb60e21b8152600481018a905260248101919091526001600160a01b0391909116906371db63ec90604401602060405180830381865afa158015610857573d6000803e3d6000fd5b505050506040513d601f19601f8201168201806040525081019061087b9190613d76565b9050600061088f8288888660200151611cba565b90506108c37f00000000000000000000000000000000000000000000000000000000000000006001600160a01b0316611981565b6001600160a01b0316636382b296826040518263ffffffff1660e01b81526004016108ee9190613ade565b600060405180830381865afa15801561090b573d6000803e3d6000fd5b505050506040513d6000823e601f3d908101601f191682016040526109339190810190613df2565b805190945015610945575050506109ff565b60006109797f00000000000000000000000000000000000000000000000000000000000000006001600160a01b0316611a00565b6001600160a01b031663aa52e2b4836040518263ffffffff1660e01b81526004016109a49190613ade565b600060405180830381865afa1580156109c1573d6000803e3d6000fd5b505050506040513d6000823e601f3d908101601f191682016040526109e99190810190613c4a565b90506109f6888883611e2c565b95509550505050505b935093915050565b6060610a116115f0565b60405163079cc67960e41b8152336004820152602481018590527f00000000000000000000000000000000000000000000000000000000000000006001600160a01b0316906379cc679090604401600060405180830381600087803b158015610a7957600080fd5b505af1158015610a8d573d6000803e3d6000fd5b505050506000610ac57f00000000000000000000000000000000000000000000000000000000000000006001600160a01b0316611833565b6001600160a01b031663ef5bac256040518163ffffffff1660e01b8152600401600060405180830381865afa158015610b02573d6000803e3d6000fd5b505050506040513d6000823e601f3d908101601f19168201604052610b2a91908101906139a5565b90506000610b3661109d565b8251604051637cbc237360e01b81526004810189905260248101919091526001600160a01b039190911690637cbc2373906044016020604051808303816000875af1158015610b89573d6000803e3d6000fd5b505050506040513d601f19601f82011682018060405250810190610bad9190613d76565b9050610bd1610bca6509184e72a000670de0b6b3a7640000613e26565b8790611f4d565b8111156040518060400160405280600381526020016203130360ec1b81525090610c0e5760405162461bcd60e51b815260040161028c91906136c3565b506000610c218287878660200151611cba565b9050610c557f00000000000000000000000000000000000000000000000000000000000000006001600160a01b0316611981565b6001600160a01b031663a0763820826040518263ffffffff1660e01b8152600401610c809190613ade565b600060405180830381600087803b158015610c9a57600080fd5b505af1158015610cae573d6000803e3d6000fd5b505050506000610ce67f00000000000000000000000000000000000000000000000000000000000000006001600160a01b0316611a00565b6001600160a01b031663aa52e2b4836040518263ffffffff1660e01b8152600401610d119190613ade565b600060405180830381865afa158015610d2e573d6000803e3d6000fd5b505050506040513d6000823e601f3d908101601f19168201604052610d569190810190613c4a565b9050610d63878783611f6e565b98975050505050505050565b6000606080610d7e878761209a565b805190935090915015610d95576000925050611094565b6000610dc97f00000000000000000000000000000000000000000000000000000000000000006001600160a01b0316611833565b6001600160a01b031663ef5bac256040518163ffffffff1660e01b8152600401600060405180830381865afa158015610e06573d6000803e3d6000fd5b505050506040513d6000823e601f3d908101601f19168201604052610e2e91908101906139a5565b90506000610e40838360200151611882565b9050610e747f00000000000000000000000000000000000000000000000000000000000000006001600160a01b0316611981565b6001600160a01b031663e2cc8679826040518263ffffffff1660e01b8152600401610e9f9190613ade565b600060405180830381865afa158015610ebc573d6000803e3d6000fd5b505050506040513d6000823e601f3d908101601f19168201604052610ee49190810190613df2565b805190945015610efa5760009450505050611094565b6000610f2e7f00000000000000000000000000000000000000000000000000000000000000006001600160a01b0316611a00565b6001600160a01b031663aa52e2b4836040518263ffffffff1660e01b8152600401610f599190613ade565b600060405180830381865afa158015610f76573d6000803e3d6000fd5b505050506040513d6000823e601f3d908101601f19168201604052610f9e9190810190613c4a565b90506000610fab82611a45565b9050610fb561109d565b845160405163616a1ed960e01b81526004810184905260248101919091526001600160a01b03919091169063616a1ed990604401602060405180830381865afa158015611006573d6000803e3d6000fd5b505050506040513d601f19601f8201168201806040525081019061102a9190613d76565b9650888710156110595750506040805180820190915260018152601960f91b6020820152935061109492505050565b6110638888611ad1565b1561108e5750506040805180820190915260028152610d8d60f21b6020820152935061109492505050565b50505050505b94509492505050565b6040516321f8a72160e01b81526b50414d4d5f4144445245535360a01b60048201526000907f00000000000000000000000000000000000000000000000000000000000000006001600160a01b0316906321f8a72190602401602060405180830381865afa158015611113573d6000803e3d6000fd5b505050506040513d601f19601f820116820180604052508101906111379190613e39565b905090565b600154600160a81b900460ff1615808015611162575060018054600160a01b900460ff16105b806111825750303b158015611182575060018054600160a01b900460ff16145b6111e55760405162461bcd60e51b815260206004820152602e60248201527f496e697469616c697a61626c653a20636f6e747261637420697320616c72656160448201526d191e481a5b9a5d1a585b1a5e995960921b606482015260840161028c565b6001805460ff60a01b1916600160a01b1790558015611212576001805460ff60a81b1916600160a81b1790555b61121b826121ae565b8015611262576001805460ff60a81b191681556040519081527f7f26b83ff96e1f2b6a682f133852f6798a09c465da95921460cefb38474024989060200160405180910390a15b5050565b600054604080518082019091526002815261033360f41b6020820152906001600160a01b031633146112ab5760405162461bcd60e51b815260040161028c91906136c3565b50604080518082019091526002815261333160f01b60208201526001600160a01b0382166112ec5760405162461bcd60e51b815260040161028c91906136c3565b50600180546001600160a01b0319166001600160a01b0383169081179091556040519081527f67235ba2e63c748a35b95c4f92a3bbc2a1389938170a5ce6c9add5d0b03a314a906020016102f5565b6040516321f8a72160e01b8152704759445f544f4b454e5f4144445245535360781b60048201526000906001600160a01b038316906321f8a721906024015b602060405180830381865afa158015611397573d6000803e3d6000fd5b505050506040513d601f19601f820116820180604052508101906113bb9190613e39565b92915050565b6040516321f8a72160e01b81526e524553455256455f4144445245535360881b60048201526000906001600160a01b038316906321f8a7219060240161137a565b6040516321f8a72160e01b81527542414c414e4345525f5641554c545f4144445245535360501b60048201526000906001600160a01b038316906321f8a7219060240161137a565b6040516321f8a72160e01b81526f4645455f42414e4b5f4144445245535360801b60048201526000906001600160a01b038316906321f8a7219060240161137a565b8015806115065750604051636eb1769f60e11b81523060048201526001600160a01b03838116602483015284169063dd62ed3e90604401602060405180830381865afa1580156114e0573d6000803e3d6000fd5b505050506040513d601f19601f820116820180604052508101906115049190613d76565b155b6115715760405162461bcd60e51b815260206004820152603660248201527f5361666545524332303a20617070726f76652066726f6d206e6f6e2d7a65726f60448201527520746f206e6f6e2d7a65726f20616c6c6f77616e636560501b606482015260840161028c565b6040516001600160a01b0383166024820152604481018290526115d490849063095ea7b360e01b906064015b60408051601f198184030181529190526020810180516001600160e01b03166001600160e01b031990931692909217909152612202565b505050565b60606115e884846000856122d4565b949350505050565b604080516001808252818301909252600091816020015b6040805160a08101825260008082526020808301829052928201819052606082018190526080820152825260001990920191018161160757905050905060018160008151811061165957611659613c05565b602002602001015160000190600381111561167657611676613e56565b9081600381111561168957611689613e56565b8152505030816000815181106116a1576116a1613c05565b60209081029190910101516001600160a01b039182166060909101526040516303a38fa160e21b81527f000000000000000000000000000000000000000000000000000000000000000090911690630e8e3e8490611703908490600401613e6c565b600060405180830381600087803b15801561171d57600080fd5b505af1158015611731573d6000803e3d6000fd5b5050505050565b60606000826001600160401b03811115611754576117546136d6565b60405190808252806020026020018201604052801561179957816020015b60408051808201909152600080825260208201528152602001906001900390816117725790505b50905060005b8381101561182b57368585838181106117ba576117ba613c05565b905060600201905060405180604001604052808260400160208101906117e091906136a6565b6001600160a01b031681526020016117f7836123af565b81525083838151811061180c5761180c613c05565b602002602001018190525050808061182390613c31565b91505061179f565b509392505050565b6040516321f8a72160e01b81527f524553455256455f4d414e414745525f4144445245535300000000000000000060048201526000906001600160a01b038316906321f8a7219060240161137a565b6040805180820190915260608152600060208201526000604051806040016040528084516001600160401b038111156118bd576118bd6136d6565b6040519080825280602002602001820160405280156118f657816020015b6118e3613394565b8152602001906001900390816118db5790505b5081526001602090910152905060005b835181101561182b57600084828151811061192357611923613c05565b60200260200101519050604051806040016040528082815260200161194c836000015189612567565b9052835180518490811061196257611962613c05565b602002602001018190525050808061197990613c31565b915050611906565b6040516321f8a72160e01b81527f524f4f545f5341464554595f434845434b5f414444524553530000000000000060048201526000906001600160a01b038316906321f8a7219060240161137a565b6040516001600160a01b0383166024820152604481018290526115d490849063a9059cbb60e01b9060640161159d565b6040516321f8a72160e01b8152724645455f48414e444c45525f4144445245535360681b60048201526000906001600160a01b038316906321f8a7219060240161137a565b6000805b825151811015611acb57600083600001518281518110611a6b57611a6b613c05565b602002602001015190506000611a9682600001516020015183602001516125d590919063ffffffff16565b825160600151909150611aaa908290611f4d565b611ab49085613e26565b935050508080611ac390613c31565b915050611a49565b50919050565b600080611b067f00000000000000000000000000000000000000000000000000000000000000006001600160a01b031661263d565b905080837f00000000000000000000000000000000000000000000000000000000000000006001600160a01b03166318160ddd6040518163ffffffff1660e01b8152600401602060405180830381865afa158015611b68573d6000803e3d6000fd5b505050506040513d601f19601f82011682018060405250810190611b8c9190613d76565b611b969190613e26565b1115611ba65760019150506113bb565b6000611bdb6001600160a01b037f000000000000000000000000000000000000000000000000000000000000000016866126c8565b90506000611c126001600160a01b037f0000000000000000000000000000000000000000000000000000000000000000168361285a565b6040516370a0823160e01b81526001600160a01b038881166004830152919250829187917f0000000000000000000000000000000000000000000000000000000000000000909116906370a0823190602401602060405180830381865afa158015611c81573d6000803e3d6000fd5b505050506040513d601f19601f82011682018060405250810190611ca59190613d76565b611caf9190613e26565b119695505050505050565b604080518082019091526060815260006020820152611cd98484612971565b6000604051806040016040528084516001600160401b03811115611cff57611cff6136d6565b604051908082528060200260200182016040528015611d3857816020015b611d25613394565b815260200190600190039081611d1d5790505b5081526020016000151581525090506000805b8451811015611dde576000858281518110611d6857611d68613c05565b60200260200101519050600080611d81838c8c8c612a66565b9092509050611d908186613e26565b945060405180604001604052808481526020018381525086600001518581518110611dbd57611dbd613c05565b60200260200101819052505050508080611dd690613c31565b915050611d4b565b50604080518082019091526002815261333160f01b6020820152670de0b6b3a76400008214611e205760405162461bcd60e51b815260040161028c91906136c3565b50909695505050505050565b606080836001600160401b03811115611e4757611e476136d6565b604051908082528060200260200182016040528015611e70578160200160208202803683370190505b50915060005b84811015611f445736868683818110611e9157611e91613c05565b90506080020190506000611ebb8660000151836060016020810190611eb691906136a6565b612b38565b90506000611ec98383612bae565b805190965090915015611edf57505050506109ff565b8260200135811015611f0f5750506040805180820190915260018152601960f91b602082015292506109ff915050565b80868581518110611f2257611f22613c05565b6020026020010181815250505050508080611f3c90613c31565b915050611e76565b50935093915050565b600080611f5a8385613f07565b90506115e8670de0b6b3a764000082613f1e565b6060826001600160401b03811115611f8857611f886136d6565b604051908082528060200260200182016040528015611fb1578160200160208202803683370190505b50905060005b8381101561182b576000858583818110611fd357611fd3613c05565b905060800201803603810190611fe99190613f40565b90506000611fff85600001518360600151612b38565b9050600061200d8383612ded565b90508260200151811015604051806040016040528060018152602001601960f91b8152509061204f5760405162461bcd60e51b815260040161028c91906136c3565b508085858151811061206357612063613c05565b60209081029190910101528251612084906001600160a01b031633836119d0565b505050808061209290613c31565b915050611fb7565b606080826001600160401b038111156120b5576120b56136d6565b6040519080825280602002602001820160405280156120fa57816020015b60408051808201909152600080825260208201528152602001906001900390816120d35790505b50915060005b838110156121a5573685858381811061211b5761211b613c05565b9050606002019050600061212e82612fce565b805190955090915015612143575050506121a7565b604051806040016040528083604001602081019061216191906136a6565b6001600160a01b031681526020018281525085848151811061218557612185613c05565b60200260200101819052505050808061219d90613c31565b915050612100565b505b9250929050565b600080546001600160a01b0319166001600160a01b03831690811782556040805192835260208301919091527fde4b3f61490b74c0ed6237523974fe299126bbbf8a8a7482fd220104c59b0c8491016102f5565b6000612257826040518060400160405280602081526020017f5361666545524332303a206c6f772d6c6576656c2063616c6c206661696c6564815250856001600160a01b03166115d99092919063ffffffff16565b8051909150156115d457808060200190518101906122759190613fb4565b6115d45760405162461bcd60e51b815260206004820152602a60248201527f5361666545524332303a204552433230206f7065726174696f6e20646964206e6044820152691bdd081cdd58d8d9595960b21b606482015260840161028c565b6060824710156123355760405162461bcd60e51b815260206004820152602660248201527f416464726573733a20696e73756666696369656e742062616c616e636520666f6044820152651c8818d85b1b60d21b606482015260840161028c565b600080866001600160a01b031685876040516123519190613fcf565b60006040518083038185875af1925050503d806000811461238e576040519150601f19603f3d011682016040523d82523d6000602084013e612393565b606091505b50915091506123a48783838761315f565b979650505050505050565b6000806123c260608401604085016136a6565b90506123eb3330602086018035906123da90886136a6565b6001600160a01b03169291906131d8565b6001600160a01b03811661240260208501856136a6565b6001600160a01b0316036124195750506020013590565b6000816001600160a01b0316636f307dc36040518163ffffffff1660e01b8152600401602060405180830381865afa158015612459573d6000803e3d6000fd5b505050506040513d601f19601f8201168201806040525081019061247d9190613e39565b90506001600160a01b03811661249660208601866136a6565b6001600160a01b03161460405180604001604052806002815260200161333560f01b815250906124d95760405162461bcd60e51b815260040161028c91906136c3565b506124f26001600160a01b038216836020870135613216565b604051631c57762b60e31b815260208501356004820152600060248201526001600160a01b0383169063e2bbb158906044016020604051808303816000875af1158015612543573d6000803e3d6000fd5b505050506040513d601f19601f820116820180604052508101906115e89190613d76565b600080805b835181101561182b57600084828151811061258957612589613c05565b60200260200101519050856001600160a01b031681600001516001600160a01b0316036125c25760208101516125bf9084613e26565b92505b50806125cd81613c31565b91505061256c565b600060111960ff8316016125ea5750816113bb565b601260ff8316111561261d57612601601283613feb565b61260c90600a6140e0565b6126169084613f1e565b90506113bb565b612628826012613feb565b61263390600a6140e0565b6126169084613f07565b60405163e964da1560e01b81527404759445f474c4f42414c5f535550504c595f43415605c1b600482015260001960248201526000906001600160a01b0383169063e964da1590604401602060405180830381865afa1580156126a4573d6000803e3d6000fd5b505050506040513d601f19601f820116820180604052508101906113bb9190613d76565b60405163696eb37560e01b81527f4341505f41555448454e5449434154494f4e5f4144445245535300000000000060048201526000906001600160a01b0384169063696eb37590602401602060405180830381865afa15801561272f573d6000803e3d6000fd5b505050506040513d601f19601f820116820180604052508101906127539190613fb4565b61275f575060006113bb565b6040516321f8a72160e01b81527f4341505f41555448454e5449434154494f4e5f4144445245535300000000000060048201526001600160a01b038416906321f8a72190602401602060405180830381865afa1580156127c3573d6000803e3d6000fd5b505050506040513d601f19601f820116820180604052508101906127e79190613e39565b604051630d15d41560e41b81526001600160a01b038481166004830152919091169063d15d415090602401602060405180830381865afa15801561282f573d6000803e3d6000fd5b505050506040513d601f19601f820116820180604052508101906128539190613fb4565b9392505050565b600081156128f25760405163e964da1560e01b81527f4759445f41555448454e544943415445445f555345525f434150000000000000600482015260001960248201526001600160a01b0384169063e964da1590604401602060405180830381865afa1580156128ce573d6000803e3d6000fd5b505050506040513d601f19601f820116820180604052508101906126169190613d76565b60405163e964da1560e01b81526b04759445f555345525f4341560a41b600482015260001960248201526001600160a01b0384169063e964da1590604401602060405180830381865afa15801561294d573d6000803e3d6000fd5b505050506040513d601f19601f820116820180604052508101906128539190613d76565b60005b818110156115d4573683838381811061298f5761298f613c05565b905060800201905060008260016129a69190613e26565b90505b83811015612a5157368585838181106129c4576129c4613c05565b90506080020190508060600160208101906129df91906136a6565b6001600160a01b03166129f860808501606086016136a6565b6001600160a01b0316141560405180604001604052806002815260200161333160f01b81525090612a3c5760405162461bcd60e51b815260040161028c91906136c3565b50508080612a4990613c31565b9150506129a9565b50508080612a5e90613c31565b915050612974565b60008060005b83811015612b295736858583818110612a8757612a87613c05565b905060800201905087600001516001600160a01b0316816060016020810190612ab091906136a6565b6001600160a01b031603612b16576000612ace886040840135611f4d565b90506000612ae98a60600151836132c890919063ffffffff16565b90506000612b048b602001518361333390919063ffffffff16565b96505050506040013591506110949050565b5080612b2181613c31565b915050612a6c565b50600096879650945050505050565b6000805b8351811015612ba4576000848281518110612b5957612b59613c05565b60200260200101519050836001600160a01b03168160000151600001516001600160a01b031603612b91576020015191506113bb9050565b5080612b9c81613c31565b915050612b3c565b5060009392505050565b6000606081612bc2608086018684016136a6565b90506001600160a01b038116612bdb60208701876136a6565b6001600160a01b031603612c025750506040805160208101909152600081528291506121a7565b806001600160a01b0316636f307dc36040518163ffffffff1660e01b8152600401602060405180830381865afa158015612c40573d6000803e3d6000fd5b505050506040513d601f19601f82011682018060405250810190612c649190613e39565b6001600160a01b0316612c7a60208701876136a6565b6001600160a01b031614612cac575050604080518082019091526002815261333560f01b6020820152600091506121a7565b6040516370a0823160e01b81526001600160a01b037f000000000000000000000000000000000000000000000000000000000000000081166004830152600091908316906370a0823190602401602060405180830381865afa158015612d16573d6000803e3d6000fd5b505050506040513d601f19601f82011682018060405250810190612d3a9190613d76565b905084811015612d6c576000604051806040016040528060028152602001610ccd60f21b8152509350935050506121a7565b60405163cc04feff60e01b815260048101869052600060248201526001600160a01b0383169063cc04feff90604401600060405180830381865afa158015612db8573d6000803e3d6000fd5b505050506040513d6000823e601f3d908101601f19168201604052612de091908101906140ef565b9350935050509250929050565b60608201516040516313c5035360e31b81526001600160a01b03808316600483015260248201849052600092917f000000000000000000000000000000000000000000000000000000000000000090911690639e281a9890604401600060405180830381600087803b158015612e6257600080fd5b505af1158015612e76573d6000803e3d6000fd5b50505050806001600160a01b031684600001516001600160a01b031603612ea057829150506113bb565b806001600160a01b0316636f307dc36040518163ffffffff1660e01b8152600401602060405180830381865afa158015612ede573d6000803e3d6000fd5b505050506040513d601f19601f82011682018060405250810190612f029190613e39565b6001600160a01b031684600001516001600160a01b03161460405180604001604052806002815260200161333560f01b81525090612f535760405162461bcd60e51b815260040161028c91906136c3565b50604051630441a3e760e41b815260048101849052600060248201526001600160a01b0382169063441a3e70906044016020604051808303816000875af1158015612fa2573d6000803e3d6000fd5b505050506040513d601f19601f82011682018060405250810190612fc69190613d76565b9150506113bb565b60006060612fe1838201604085016136a6565b6001600160a01b0316612ff760208501856136a6565b6001600160a01b03160361301d5750506040805160208181019092526000815291013591565b600061302f60608501604086016136a6565b9050806001600160a01b0316636f307dc36040518163ffffffff1660e01b8152600401602060405180830381865afa15801561306f573d6000803e3d6000fd5b505050506040513d601f19601f820116820180604052508101906130939190613e39565b6001600160a01b03166130a960208601866136a6565b6001600160a01b03160361313857604051632a8695b160e11b815260208501356004820152600060248201526001600160a01b0382169063550d2b6290604401600060405180830381865afa158015613106573d6000803e3d6000fd5b505050506040513d6000823e601f3d908101601f1916820160405261312e91908101906140ef565b9250925050915091565b600060405180604001604052806002815260200161333560f01b8152509250925050915091565b606083156131ce5782516000036131c7576001600160a01b0385163b6131c75760405162461bcd60e51b815260206004820152601d60248201527f416464726573733a2063616c6c20746f206e6f6e2d636f6e7472616374000000604482015260640161028c565b50816115e8565b6115e8838361336a565b6040516001600160a01b03808516602483015283166044820152606481018290526132109085906323b872dd60e01b9060840161159d565b50505050565b604051636eb1769f60e11b81523060048201526001600160a01b038381166024830152600091839186169063dd62ed3e90604401602060405180830381865afa158015613267573d6000803e3d6000fd5b505050506040513d601f19601f8201168201806040525081019061328b9190613d76565b6132959190613e26565b6040516001600160a01b03851660248201526044810182905290915061321090859063095ea7b360e01b9060640161159d565b604080518082019091526002815261323560f01b6020820152600090826133025760405162461bcd60e51b815260040161028c91906136c3565b5082600003613313575060006113bb565b6000613327670de0b6b3a764000085613f07565b9050612fc68382613f1e565b600060111960ff8316016133485750816113bb565b601260ff8316111561335f57612628601283613feb565b612601826012613feb565b81511561337a5781518083602001fd5b8060405162461bcd60e51b815260040161028c91906136c3565b60405180604001604052806133a76133b4565b8152602001600081525090565b60405180610120016040528060006001600160a01b03168152602001600060ff16815260200160006001600160a01b031681526020016000815260200161341c6040518060800160405280600081526020016000815260200160008152602001600081525090565b8152602001600081526020016000815260200160008152602001606081525090565b60008083601f84011261345057600080fd5b5081356001600160401b0381111561346757600080fd5b6020830191508360206060830285010111156121a757600080fd5b60008060006040848603121561349757600080fd5b83356001600160401b038111156134ad57600080fd5b6134b98682870161343e565b909790965060209590950135949350505050565b6000806000604084860312156134e257600080fd5b8335925060208401356001600160401b038082111561350057600080fd5b818601915086601f83011261351457600080fd5b81358181111561352357600080fd5b8760208260071b850101111561353857600080fd5b6020830194508093505050509250925092565b600081518084526020808501945080840160005b8381101561357b5781518752958201959082019060010161355f565b509495945050505050565b60005b838110156135a1578181015183820152602001613589565b50506000910152565b600081518084526135c2816020860160208601613586565b601f01601f19169290920160200192915050565b6040815260006135e9604083018561354b565b82810360208401526135fb81856135aa565b95945050505050565b602081526000612853602083018461354b565b6001600160a01b038116811461362c57600080fd5b50565b6000806000806060858703121561364557600080fd5b84356001600160401b0381111561365b57600080fd5b6136678782880161343e565b90955093505060208501359150604085013561368281613617565b939692955090935050565b8281526040602082015260006115e860408301846135aa565b6000602082840312156136b857600080fd5b813561285381613617565b60208152600061285360208301846135aa565b634e487b7160e01b600052604160045260246000fd5b604051606081016001600160401b038111828210171561370e5761370e6136d6565b60405290565b60405161012081016001600160401b038111828210171561370e5761370e6136d6565b604080519081016001600160401b038111828210171561370e5761370e6136d6565b604051601f8201601f191681016001600160401b0381118282101715613781576137816136d6565b604052919050565b60006001600160401b038211156137a2576137a26136d6565b5060051b60200190565b80516137b781613617565b919050565b805160ff811681146137b757600080fd5b6000608082840312156137df57600080fd5b604051608081018181106001600160401b0382111715613801576138016136d6565b8060405250809150825181526020830151602082015260408301516040820152606083015160608201525092915050565b805180151581146137b757600080fd5b600082601f83011261385357600080fd5b8151602061386861386383613789565b613759565b8281526060928302850182019282820191908785111561388757600080fd5b8387015b858110156138de5781818a0312156138a35760008081fd5b6138ab6136ec565b81516138b681613617565b81526138c3828701613832565b8187015260408281015190820152845292840192810161388b565b5090979650505050505050565b600061018082840312156138fe57600080fd5b613906613714565b9050613911826137ac565b815261391f602083016137bc565b6020820152613930604083016137ac565b60408201526060820151606082015261394c83608084016137cd565b60808201526101008083015160a083015261012083015160c083015261014083015160e08301526101608301516001600160401b0381111561398d57600080fd5b61399985828601613842565b82840152505092915050565b600060208083850312156139b857600080fd5b82516001600160401b03808211156139cf57600080fd5b90840190604082870312156139e357600080fd5b6139eb613737565b825181528383015182811115613a0057600080fd5b80840193505086601f840112613a1557600080fd5b8251613a2361386382613789565b81815260059190911b84018501908581019089831115613a4257600080fd5b8686015b83811015613a7a57805186811115613a5e5760008081fd5b613a6c8c8a838b01016138eb565b845250918701918701613a46565b5095830195909552509695505050505050565b600081518084526020808501945080840160005b8381101561357b57815180516001600160a01b03168852838101511515848901526040908101519088015260609096019590820190600101613aa1565b600060208083526060808401855160408085880152828251808552608094508489019150848160051b8a0101878501945060005b82811015613bea57607f198b83030184528551805186845280516001600160a01b03908116888601528b82015160ff168b8601528782015116898501528981015160a08086019190915289820151805160c080880191909152602082015160e08801526040820151610100880152606082015161012088015290918301516101408701528201516101608601525060e081015161018080860191909152610100909101516101a0850191909152613bcd6101c0850182613a8d565b918b0151938b019390935295890195938901939150600101613b12565b50968a0151801515848b0152969a9950505050505050505050565b634e487b7160e01b600052603260045260246000fd5b634e487b7160e01b600052601160045260246000fd5b600060018201613c4357613c43613c1b565b5060010190565b60006020808385031215613c5d57600080fd5b82516001600160401b0380821115613c7457600080fd5b9084019060408287031215613c8857600080fd5b613c90613737565b825182811115613c9f57600080fd5b8301601f81018813613cb057600080fd5b8051613cbe61386382613789565b81815260059190911b8201860190868101908a831115613cdd57600080fd5b8784015b83811015613d5357805187811115613cf95760008081fd5b85016040818e03601f19011215613d105760008081fd5b613d18613737565b8a82015189811115613d2a5760008081fd5b613d388f8d838601016138eb565b825250604091909101518a8201528352918801918801613ce1565b50845250613d65915050838501613832565b848201528094505050505092915050565b600060208284031215613d8857600080fd5b5051919050565b600082601f830112613da057600080fd5b81516001600160401b03811115613db957613db96136d6565b613dcc601f8201601f1916602001613759565b818152846020838601011115613de157600080fd5b6115e8826020830160208701613586565b600060208284031215613e0457600080fd5b81516001600160401b03811115613e1a57600080fd5b6115e884828501613d8f565b808201808211156113bb576113bb613c1b565b600060208284031215613e4b57600080fd5b815161285381613617565b634e487b7160e01b600052602160045260246000fd5b60208082528251828201819052600091906040908185019086840185805b83811015613ef957825180516004808210613eb257634e487b7160e01b855260218152602485fd5b508652808801516001600160a01b03908116898801528782015188880152606080830151821690880152608091820151169086015260a09094019391860191600101613e8a565b509298975050505050505050565b80820281158282048414176113bb576113bb613c1b565b600082613f3b57634e487b7160e01b600052601260045260246000fd5b500490565b600060808284031215613f5257600080fd5b604051608081018181106001600160401b0382111715613f7457613f746136d6565b6040528235613f8281613617565b8082525060208301356020820152604083013560408201526060830135613fa881613617565b60608201529392505050565b600060208284031215613fc657600080fd5b61285382613832565b60008251613fe1818460208701613586565b9190910192915050565b60ff82811682821603908111156113bb576113bb613c1b565b600181815b808511156121a557816000190482111561402557614025613c1b565b8085161561403257918102915b93841c9390800290614009565b60008261404e575060016113bb565b8161405b575060006113bb565b8160018114614071576002811461407b57614097565b60019150506113bb565b60ff84111561408c5761408c613c1b565b50506001821b6113bb565b5060208310610133831016604e8410600b84101617156140ba575081810a6113bb565b6140c48383614004565b80600019048211156140d8576140d8613c1b565b029392505050565b600061285360ff84168361403f565b6000806040838503121561410257600080fd5b8251915060208301516001600160401b0381111561411f57600080fd5b61412b85828601613d8f565b915050925092905056fea26469706673582212203a8917d71b9e35486710023f7a5f4ce75a20a579f2c27e0340f5e4387c21358964736f6c63430008110033",
    "linkReferences": {}
  },
  "methodIdentifiers": {
    "acceptGovernance()": "238efcbc",
    "changeGovernor(address)": "e4c0aaf4",
    "dryMint((address,uint256,address)[],uint256,address)": "56529403",
    "dryRedeem(uint256,(address,uint256,uint256,address)[])": "4d8ca4c5",
    "governor()": "0c340a24",
    "gydToken()": "fbf60028",
    "gyroConfig()": "44bbdb55",
    "initialize(address)": "c4d66de8",
    "mint((address,uint256,address)[],uint256)": "2799c6cf",
    "pamm()": "85b0c781",
    "pendingGovernor()": "e3056a34",
    "redeem(uint256,(address,uint256,uint256,address)[])": "4e4d822a",
    "reserve()": "cd3293de"
  },
  "id": 4
}