{
  "abi": [
    {
      "anonymous": false,
      "inputs": [
        {
          "indexed": true,
          "internalType": "string",
          "name": "assetName",
          "type": "string"
        },
        {
          "indexed": true,
          "internalType": "address",
          "name": "previousAddress",
          "type": "address"
        },
        {
          "indexed": true,
          "internalType": "address",
          "name": "newAddress",
          "type": "address"
        }
      ],
      "name": "AssetAddressUpdated",
      "type": "event"
    },
    {
      "anonymous": false,
      "inputs": [
        {
          "indexed": false,
          "internalType": "address",
          "name": "newGovernor",
          "type": "address"
        }
      ],
      "name": "GovernorChangeRequested",
      "type": "event"
    },
    {
      "anonymous": false,
      "inputs": [
        {
          "indexed": false,
          "internalType": "address",
          "name": "oldGovernor",
          "type": "address"
        },
        {
          "indexed": false,
          "internalType": "address",
          "name": "newGovernor",
          "type": "address"
        }
      ],
      "name": "GovernorChanged",
      "type": "event"
    },
    {
      "anonymous": false,
      "inputs": [
        {
          "indexed": false,
          "internalType": "uint8",
          "name": "version",
          "type": "uint8"
        }
      ],
      "name": "Initialized",
      "type": "event"
    },
    {
      "anonymous": false,
      "inputs": [
        {
          "indexed": true,
          "internalType": "address",
          "name": "asset",
          "type": "address"
        }
      ],
      "name": "StableAssetAdded",
      "type": "event"
    },
    {
      "anonymous": false,
      "inputs": [
        {
          "indexed": true,
          "internalType": "address",
          "name": "asset",
          "type": "address"
        }
      ],
      "name": "StableAssetRemoved",
      "type": "event"
    },
    {
      "inputs": [],
      "name": "acceptGovernance",
      "outputs": [],
      "stateMutability": "nonpayable",
      "type": "function"
    },
    {
      "inputs": [
        {
          "internalType": "address",
          "name": "asset",
          "type": "address"
        }
      ],
      "name": "addStableAsset",
      "outputs": [],
      "stateMutability": "nonpayable",
      "type": "function"
    },
    {
      "inputs": [
        {
          "internalType": "address",
          "name": "newGovernor",
          "type": "address"
        }
      ],
      "name": "changeGovernor",
      "outputs": [],
      "stateMutability": "nonpayable",
      "type": "function"
    },
    {
      "inputs": [
        {
          "internalType": "string",
          "name": "assetName",
          "type": "string"
        }
      ],
      "name": "getAssetAddress",
      "outputs": [
        {
          "internalType": "address",
          "name": "",
          "type": "address"
        }
      ],
      "stateMutability": "view",
      "type": "function"
    },
    {
      "inputs": [],
      "name": "getRegisteredAssetAddresses",
      "outputs": [
        {
          "internalType": "address[]",
          "name": "",
          "type": "address[]"
        }
      ],
      "stateMutability": "view",
      "type": "function"
    },
    {
      "inputs": [],
      "name": "getRegisteredAssetNames",
      "outputs": [
        {
          "internalType": "bytes32[]",
          "name": "",
          "type": "bytes32[]"
        }
      ],
      "stateMutability": "view",
      "type": "function"
    },
    {
      "inputs": [],
      "name": "getStableAssets",
      "outputs": [
        {
          "internalType": "address[]",
          "name": "",
          "type": "address[]"
        }
      ],
      "stateMutability": "view",
      "type": "function"
    },
    {
      "inputs": [],
      "name": "governor",
      "outputs": [
        {
          "internalType": "address",
          "name": "",
          "type": "address"
        }
      ],
      "stateMutability": "view",
      "type": "function"
    },
    {
      "inputs": [
        {
          "internalType": "address",
          "name": "_governor",
          "type": "address"
        }
      ],
      "name": "initialize",
      "outputs": [],
      "stateMutability": "nonpayable",
      "type": "function"
    },
    {
      "inputs": [
        {
          "internalType": "address",
          "name": "assetAddress",
          "type": "address"
        }
      ],
      "name": "isAssetAddressRegistered",
      "outputs": [
        {
          "internalType": "bool",
          "name": "",
          "type": "bool"
        }
      ],
      "stateMutability": "view",
      "type": "function"
    },
    {
      "inputs": [
        {
          "internalType": "string",
          "name": "assetName",
          "type": "string"
        }
      ],
      "name": "isAssetNameRegistered",
      "outputs": [
        {
          "internalType": "bool",
          "name": "",
          "type": "bool"
        }
      ],
      "stateMutability": "view",
      "type": "function"
    },
    {
      "inputs": [
        {
          "internalType": "address",
          "name": "assetAddress",
          "type": "address"
        }
      ],
      "name": "isAssetStable",
      "outputs": [
        {
          "internalType": "bool",
          "name": "",
          "type": "bool"
        }
      ],
      "stateMutability": "view",
      "type": "function"
    },
    {
      "inputs": [],
      "name": "pendingGovernor",
      "outputs": [
        {
          "internalType": "address",
          "name": "",
          "type": "address"
        }
      ],
      "stateMutability": "view",
      "type": "function"
    },
    {
      "inputs": [
        {
          "internalType": "string",
          "name": "assetName",
          "type": "string"
        }
      ],
      "name": "removeAsset",
      "outputs": [],
      "stateMutability": "nonpayable",
      "type": "function"
    },
    {
      "inputs": [
        {
          "internalType": "address",
          "name": "asset",
          "type": "address"
        }
      ],
      "name": "removeStableAsset",
      "outputs": [],
      "stateMutability": "nonpayable",
      "type": "function"
    },
    {
      "inputs": [
        {
          "internalType": "string",
          "name": "assetName",
          "type": "string"
        },
        {
          "internalType": "address",
          "name": "assetAddress",
          "type": "address"
        }
      ],
      "name": "setAssetAddress",
      "outputs": [],
      "stateMutability": "nonpayable",
      "type": "function"
    }
  ],
  "bytecode": {
    "object": "0x608060405234801561001057600080fd5b506111ba806100206000396000f3fe608060405234801561001057600080fd5b50600436106101005760003560e01c80638b46c4fd11610097578063e3056a3411610066578063e3056a3414610204578063e4c0aaf414610217578063f41092de1461022a578063f804c0c81461023d57600080fd5b80638b46c4fd146101b8578063a5c7b384146101cb578063c4d66de8146101de578063c6a052b6146101f157600080fd5b80634976c588116100d35780634976c588146101675780636df5d2d31461018a5780637307ae5514610192578063759af9ec146101a557600080fd5b80630c340a241461010557806310ec087814610135578063238efcbc1461014a57806336daa73114610152575b600080fd5b600054610118906001600160a01b031681565b6040516001600160a01b0390911681526020015b60405180910390f35b610148610143366004610e2c565b610252565b005b610148610329565b61015a6103d9565b60405161012c9190610e47565b61017a610175366004610e2c565b6103ea565b604051901515815260200161012c565b61015a6103fd565b6101186101a0366004610e94565b610409565b6101486101b3366004610fa9565b610476565b61017a6101c6366004610e2c565b61057d565b6101486101d9366004610fe6565b61058a565b6101486101ec366004610e2c565b610770565b6101486101ff366004610e2c565b61089a565b600154610118906001600160a01b031681565b610148610225366004610e2c565b610968565b61017a610238366004610e94565b610a3d565b610245610a7e565b60405161012c9190611034565b600054604080518082019091526002815261033360f41b6020820152906001600160a01b031633146102a05760405162461bcd60e51b81526004016102979190611090565b60405180910390fd5b506102ac600582610a8a565b60405180604001604052806002815260200161034360f41b815250906102e55760405162461bcd60e51b81526004016102979190611090565b506102f1600782610aaf565b506040516001600160a01b038216907f93266109223f3ffe4999eeedd7026e74a3ba153a9b782165be501bcfbdccd3a990600090a250565b600154604080518082019091526002815261033360f41b6020820152906001600160a01b0316331461036e5760405162461bcd60e51b81526004016102979190611090565b5060008054600180546001600160a01b03198084166001600160a01b03808416919091179095551690556040805192909116808352336020840152917fde4b3f61490b74c0ed6237523974fe299126bbbf8a8a7482fd220104c59b0c8491015b60405180910390a150565b60606103e56005610ac4565b905090565b60006103f7600783610a8a565b92915050565b60606103e56007610ac4565b6000806002848460405161041e9291906110c3565b908152604080519182900360209081018320548383019092526002835261034360f41b908301526001600160a01b031691508161046e5760405162461bcd60e51b81526004016102979190611090565b509392505050565b600054604080518082019091526002815261033360f41b6020820152906001600160a01b031633146104bb5760405162461bcd60e51b81526004016102979190611090565b5060006002826040516104ce91906110d3565b908152604080519182900360209081018320548383019092526002835261034360f41b908301526001600160a01b031691508161051e5760405162461bcd60e51b81526004016102979190611090565b5060028260405161052f91906110d3565b90815260405190819003602001902080546001600160a01b0319169055610560610558836110ef565b600390610b6b565b5061056c600582610b77565b50610578600782610b77565b505050565b60006103f7600583610a8a565b600054604080518082019091526002815261033360f41b6020820152906001600160a01b031633146105cf5760405162461bcd60e51b81526004016102979190611090565b50602082511060405180604001604052806002815260200161333160f01b8152509061060e5760405162461bcd60e51b81526004016102979190611090565b50604080518082019091526002815261333160f01b60208201526001600160a01b03821661064f5760405162461bcd60e51b81526004016102979190611090565b50600060028360405161066291906110d3565b908152604080519182900360209081018320548383019092526002835261333160f01b908301526001600160a01b039081169250831682036106b75760405162461bcd60e51b81526004016102979190611090565b50816002846040516106c991906110d3565b90815260405190819003602001902080546001600160a01b03929092166001600160a01b031990921691909117905561070c610704846110ef565b600390610b8c565b50610718600583610aaf565b50816001600160a01b0316816001600160a01b03168460405161073b91906110d3565b604051908190038120907fbae65703f0aeb3db2f7b7f07b34b9cf2f9dde13c561a9e3423915de548dd20e390600090a4505050565b600154600160a81b900460ff1615808015610796575060018054600160a01b900460ff16105b806107b65750303b1580156107b6575060018054600160a01b900460ff16145b6108195760405162461bcd60e51b815260206004820152602e60248201527f496e697469616c697a61626c653a20636f6e747261637420697320616c72656160448201526d191e481a5b9a5d1a585b1a5e995960921b6064820152608401610297565b6001805460ff60a01b1916600160a01b1790558015610846576001805460ff60a81b1916600160a81b1790555b61084f82610b98565b8015610896576001805460ff60a81b191681556040519081527f7f26b83ff96e1f2b6a682f133852f6798a09c465da95921460cefb38474024989060200160405180910390a15b5050565b600054604080518082019091526002815261033360f41b6020820152906001600160a01b031633146108df5760405162461bcd60e51b81526004016102979190611090565b506108eb600782610a8a565b60405180604001604052806002815260200161034360f41b815250906109245760405162461bcd60e51b81526004016102979190611090565b50610930600782610b77565b506040516001600160a01b038216907f02d765d86e62553c49c4853f47990fbb8cf7713f511ac332855aaa6b02bebd3690600090a250565b600054604080518082019091526002815261033360f41b6020820152906001600160a01b031633146109ad5760405162461bcd60e51b81526004016102979190611090565b50604080518082019091526002815261333160f01b60208201526001600160a01b0382166109ee5760405162461bcd60e51b81526004016102979190611090565b50600180546001600160a01b0319166001600160a01b0383169081179091556040519081527f67235ba2e63c748a35b95c4f92a3bbc2a1389938170a5ce6c9add5d0b03a314a906020016103ce565b6000806001600160a01b031660028484604051610a5b9291906110c3565b908152604051908190036020019020546001600160a01b03161415905092915050565b60606103e56003610bec565b6001600160a01b038116600090815260018301602052604081205415155b9392505050565b6000610aa8836001600160a01b038416610c86565b60606000610ad183610cd5565b905060008167ffffffffffffffff811115610aee57610aee610f06565b604051908082528060200260200182016040528015610b17578160200160208202803683370190505b50905060005b8281101561046e57610b2f8582610cdf565b828281518110610b4157610b41611116565b6001600160a01b039092166020928302919091019091015280610b6381611142565b915050610b1d565b6000610aa88383610ceb565b6000610aa8836001600160a01b038416610ceb565b6000610aa88383610c86565b600080546001600160a01b0319166001600160a01b03831690811782556040805192835260208301919091527fde4b3f61490b74c0ed6237523974fe299126bbbf8a8a7482fd220104c59b0c8491016103ce565b60606000610bf983610cd5565b905060008167ffffffffffffffff811115610c1657610c16610f06565b604051908082528060200260200182016040528015610c3f578160200160208202803683370190505b50905060005b8281101561046e57610c578582610dde565b828281518110610c6957610c69611116565b602090810291909101015280610c7e81611142565b915050610c45565b6000818152600183016020526040812054610ccd575081546001818101845560008481526020808220909301849055845484825282860190935260409020919091556103f7565b5060006103f7565b60006103f7825490565b6000610aa88383610de6565b60008181526001830160205260408120548015610dd4576000610d0f60018361115b565b8554909150600090610d239060019061115b565b9050818114610d88576000866000018281548110610d4357610d43611116565b9060005260206000200154905080876000018481548110610d6657610d66611116565b6000918252602080832090910192909255918252600188019052604090208390555b8554869080610d9957610d9961116e565b6001900381819060005260206000200160009055905585600101600086815260200190815260200160002060009055600193505050506103f7565b60009150506103f7565b6000610aa883835b6000826000018281548110610dfd57610dfd611116565b9060005260206000200154905092915050565b80356001600160a01b0381168114610e2757600080fd5b919050565b600060208284031215610e3e57600080fd5b610aa882610e10565b6020808252825182820181905260009190848201906040850190845b81811015610e885783516001600160a01b031683529284019291840191600101610e63565b50909695505050505050565b60008060208385031215610ea757600080fd5b823567ffffffffffffffff80821115610ebf57600080fd5b818501915085601f830112610ed357600080fd5b813581811115610ee257600080fd5b866020828501011115610ef457600080fd5b60209290920196919550909350505050565b634e487b7160e01b600052604160045260246000fd5b600082601f830112610f2d57600080fd5b813567ffffffffffffffff80821115610f4857610f48610f06565b604051601f8301601f19908116603f01168101908282118183101715610f7057610f70610f06565b81604052838152866020858801011115610f8957600080fd5b836020870160208301376000602085830101528094505050505092915050565b600060208284031215610fbb57600080fd5b813567ffffffffffffffff811115610fd257600080fd5b610fde84828501610f1c565b949350505050565b60008060408385031215610ff957600080fd5b823567ffffffffffffffff81111561101057600080fd5b61101c85828601610f1c565b92505061102b60208401610e10565b90509250929050565b6020808252825182820181905260009190848201906040850190845b81811015610e8857835183529284019291840191600101611050565b60005b8381101561108757818101518382015260200161106f565b50506000910152565b60208152600082518060208401526110af81604085016020870161106c565b601f01601f19169190910160400192915050565b8183823760009101908152919050565b600082516110e581846020870161106c565b9190910192915050565b80516020808301519190811015611110576000198160200360031b1b821691505b50919050565b634e487b7160e01b600052603260045260246000fd5b634e487b7160e01b600052601160045260246000fd5b6000600182016111545761115461112c565b5060010190565b818103818111156103f7576103f761112c565b634e487b7160e01b600052603160045260246000fdfea26469706673582212206de6ae1a295a3c9a1eaa25443c17a2c6e3883872dafd7ca21cd65436d0e20d3d64736f6c63430008110033",
    "linkReferences": {}
  },
  "methodIdentifiers": {
    "acceptGovernance()": "238efcbc",
    "addStableAsset(address)": "10ec0878",
    "changeGovernor(address)": "e4c0aaf4",
    "getAssetAddress(string)": "7307ae55",
    "getRegisteredAssetAddresses()": "36daa731",
    "getRegisteredAssetNames()": "f804c0c8",
    "getStableAssets()": "6df5d2d3",
    "governor()": "0c340a24",
    "initialize(address)": "c4d66de8",
    "isAssetAddressRegistered(address)": "8b46c4fd",
    "isAssetNameRegistered(string)": "f41092de",
    "isAssetStable(address)": "4976c588",
    "pendingGovernor()": "e3056a34",
    "removeAsset(string)": "759af9ec",
    "removeStableAsset(address)": "c6a052b6",
    "setAssetAddress(string,address)": "a5c7b384"
  },
  "id": 16
}