{
  "abi": [
    {
      "inputs": [
        {
          "internalType": "contract UniswapRouter02",
          "name": "router",
          "type": "address"
        }
      ],
      "stateMutability": "nonpayable",
      "type": "constructor"
    },
    {
      "inputs": [
        {
          "internalType": "address",
          "name": "baseToken",
          "type": "address"
        },
        {
          "internalType": "address",
          "name": "quoteToken",
          "type": "address"
        }
      ],
      "name": "getRelativePrice",
      "outputs": [
        {
          "internalType": "uint256",
          "name": "",
          "type": "uint256"
        }
      ],
      "stateMutability": "view",
      "type": "function"
    },
    {
      "inputs": [
        {
          "internalType": "address",
          "name": "baseToken",
          "type": "address"
        },
        {
          "internalType": "address",
          "name": "quoteToken",
          "type": "address"
        }
      ],
      "name": "isPairSupported",
      "outputs": [
        {
          "internalType": "bool",
          "name": "",
          "type": "bool"
        }
      ],
      "stateMutability": "view",
      "type": "function"
    },
    {
      "inputs": [],
      "name": "uniswapRouter",
      "outputs": [
        {
          "internalType": "contract UniswapRouter02",
          "name": "",
          "type": "address"
        }
      ],
      "stateMutability": "view",
      "type": "function"
    }
  ],
  "bytecode": {
    "object": "0x60a060405234801561001057600080fd5b5060405161082138038061082183398101604081905261002f91610040565b6001600160a01b0316608052610070565b60006020828403121561005257600080fd5b81516001600160a01b038116811461006957600080fd5b9392505050565b60805161079061009160003960008181604b01526102eb01526107906000f3fe608060405234801561001057600080fd5b50600436106100415760003560e01c8063735de9f7146100465780639446994a1461008a5780639b56e6a7146100ad575b600080fd5b61006d7f000000000000000000000000000000000000000000000000000000000000000081565b6040516001600160a01b0390911681526020015b60405180910390f35b61009d61009836600461043c565b6100ce565b6040519015158152602001610081565b6100c06100bb36600461043c565b610183565b604051908152602001610081565b604051639b56e6a760e01b81526001600160a01b038084166004830152821660248201526000903090639b56e6a790604401602060405180830381865afa925050508015610139575060408051601f3d908101601f191682019092526101369181019061046f565b60015b610177573d808015610167576040519150601f19603f3d011682016040523d82523d6000602084013e61016c565b606091505b50600091505061017d565b50600190505b92915050565b6040805160028082526060820183526000928392919060208301908036833701905050905083816000815181106101bc576101bc61049e565b60200260200101906001600160a01b031690816001600160a01b03168152505082816001815181106101f0576101f061049e565b60200260200101906001600160a01b031690816001600160a01b0316815250506000846001600160a01b031663313ce5676040518163ffffffff1660e01b8152600401602060405180830381865afa158015610250573d6000803e3d6000fd5b505050506040513d601f19601f8201168201806040525081019061027491906104b4565b60ff1690506000846001600160a01b031663313ce5676040518163ffffffff1660e01b8152600401602060405180830381865afa1580156102b9573d6000803e3d6000fd5b505050506040513d601f19601f820116820180604052508101906102dd91906104b4565b905060006001600160a01b037f00000000000000000000000000000000000000000000000000000000000000001663d06ca61f61031b85600a6105d8565b866040518363ffffffff1660e01b81526004016103399291906105e4565b600060405180830381865afa158015610356573d6000803e3d6000fd5b505050506040513d6000823e601f3d908101601f1916820160405261037e919081019061063b565b6001815181106103905761039061049e565b602002602001015190506103ad82826103b890919063ffffffff16565b979650505050505050565b600060111960ff8316016103cd57508161017d565b601260ff83161115610400576103e46012836106f9565b6103ef90600a610712565b6103f99084610721565b905061017d565b61040b8260126106f9565b61041690600a610712565b6103f99084610743565b80356001600160a01b038116811461043757600080fd5b919050565b6000806040838503121561044f57600080fd5b61045883610420565b915061046660208401610420565b90509250929050565b60006020828403121561048157600080fd5b5051919050565b634e487b7160e01b600052604160045260246000fd5b634e487b7160e01b600052603260045260246000fd5b6000602082840312156104c657600080fd5b815160ff811681146104d757600080fd5b9392505050565b634e487b7160e01b600052601160045260246000fd5b600181815b8085111561052f578160001904821115610515576105156104de565b8085161561052257918102915b93841c93908002906104f9565b509250929050565b6000826105465750600161017d565b816105535750600061017d565b816001811461056957600281146105735761058f565b600191505061017d565b60ff841115610584576105846104de565b50506001821b61017d565b5060208310610133831016604e8410600b84101617156105b2575081810a61017d565b6105bc83836104f4565b80600019048211156105d0576105d06104de565b029392505050565b60006104d78383610537565b6000604082018483526020604081850152818551808452606086019150828701935060005b8181101561062e5784516001600160a01b031683529383019391830191600101610609565b5090979650505050505050565b6000602080838503121561064e57600080fd5b825167ffffffffffffffff8082111561066657600080fd5b818501915085601f83011261067a57600080fd5b81518181111561068c5761068c610488565b8060051b604051601f19603f830116810181811085821117156106b1576106b1610488565b6040529182528482019250838101850191888311156106cf57600080fd5b938501935b828510156106ed578451845293850193928501926106d4565b98975050505050505050565b60ff828116828216039081111561017d5761017d6104de565b60006104d760ff841683610537565b60008261073e57634e487b7160e01b600052601260045260246000fd5b500490565b808202811582820484141761017d5761017d6104de56fea26469706673582212200198e2f8cd6ebf7b9209a2c4ac5af451d333c20f94213821234be72f9d2ddb7b64736f6c63430008110033",
    "linkReferences": {}
  },
  "methodIdentifiers": {
    "getRelativePrice(address,address)": "9b56e6a7",
    "isPairSupported(address,address)": "9446994a",
    "uniswapRouter()": "735de9f7"
  },
  "id": 39
}