{
  "abi": [
    {
      "inputs": [
        {
          "internalType": "address",
          "name": "governor",
          "type": "address"
        },
        {
          "internalType": "uint256",
          "name": "_safetyBlocksAutomatic",
          "type": "uint256"
        },
        {
          "internalType": "uint256",
          "name": "_safetyBlocksGuardian",
          "type": "uint256"
        },
        {
          "internalType": "address",
          "name": "_gyroConfig",
          "type": "address"
        }
      ],
      "stateMutability": "nonpayable",
      "type": "constructor"
    },
    {
      "anonymous": false,
      "inputs": [
        {
          "indexed": true,
          "internalType": "address",
          "name": "account",
          "type": "address"
        }
      ],
      "name": "AddedToWhitelist",
      "type": "event"
    },
    {
      "anonymous": false,
      "inputs": [
        {
          "indexed": false,
          "internalType": "address",
          "name": "newGovernor",
          "type": "address"
        }
      ],
      "name": "GovernorChangeRequested",
      "type": "event"
    },
    {
      "anonymous": false,
      "inputs": [
        {
          "indexed": false,
          "internalType": "address",
          "name": "oldGovernor",
          "type": "address"
        },
        {
          "indexed": false,
          "internalType": "address",
          "name": "newGovernor",
          "type": "address"
        }
      ],
      "name": "GovernorChanged",
      "type": "event"
    },
    {
      "anonymous": false,
      "inputs": [
        {
          "indexed": false,
          "internalType": "address",
          "name": "vaultAddress",
          "type": "address"
        },
        {
          "indexed": false,
          "internalType": "uint256",
          "name": "durationOfProtectionInBlocks",
          "type": "uint256"
        },
        {
          "indexed": false,
          "internalType": "bool",
          "name": "inFlows",
          "type": "bool"
        }
      ],
      "name": "OracleGuardianActivated",
      "type": "event"
    },
    {
      "anonymous": false,
      "inputs": [
        {
          "indexed": true,
          "internalType": "address",
          "name": "account",
          "type": "address"
        }
      ],
      "name": "RemovedFromWhitelist",
      "type": "event"
    },
    {
      "anonymous": false,
      "inputs": [
        {
          "indexed": false,
          "internalType": "string",
          "name": "err",
          "type": "string"
        }
      ],
      "name": "SafetyStatus",
      "type": "event"
    },
    {
      "inputs": [],
      "name": "THRESHOLD_BUFFER",
      "outputs": [
        {
          "internalType": "uint256",
          "name": "",
          "type": "uint256"
        }
      ],
      "stateMutability": "view",
      "type": "function"
    },
    {
      "inputs": [],
      "name": "acceptGovernance",
      "outputs": [],
      "stateMutability": "nonpayable",
      "type": "function"
    },
    {
      "inputs": [
        {
          "components": [
            {
              "internalType": "address",
              "name": "vaultAddress",
              "type": "address"
            },
            {
              "internalType": "enum DataTypes.Direction",
              "name": "direction",
              "type": "uint8"
            }
          ],
          "internalType": "struct DataTypes.GuardedVaults",
          "name": "vaultToProtect",
          "type": "tuple"
        },
        {
          "internalType": "uint256",
          "name": "blocks",
          "type": "uint256"
        }
      ],
      "name": "activateOracleGuardian",
      "outputs": [],
      "stateMutability": "nonpayable",
      "type": "function"
    },
    {
      "inputs": [
        {
          "internalType": "address",
          "name": "_addressToAdd",
          "type": "address"
        }
      ],
      "name": "addAddressToWhitelist",
      "outputs": [],
      "stateMutability": "nonpayable",
      "type": "function"
    },
    {
      "inputs": [
        {
          "internalType": "address",
          "name": "newGovernor",
          "type": "address"
        }
      ],
      "name": "changeGovernor",
      "outputs": [],
      "stateMutability": "nonpayable",
      "type": "function"
    },
    {
      "inputs": [
        {
          "components": [
            {
              "components": [
                {
                  "components": [
                    {
                      "internalType": "address",
                      "name": "vault",
                      "type": "address"
                    },
                    {
                      "internalType": "uint8",
                      "name": "decimals",
                      "type": "uint8"
                    },
                    {
                      "internalType": "address",
                      "name": "underlying",
                      "type": "address"
                    },
                    {
                      "internalType": "uint256",
                      "name": "price",
                      "type": "uint256"
                    },
                    {
                      "components": [
                        {
                          "internalType": "uint256",
                          "name": "initialPrice",
                          "type": "uint256"
                        },
                        {
                          "internalType": "uint256",
                          "name": "initialWeight",
                          "type": "uint256"
                        },
                        {
                          "internalType": "uint256",
                          "name": "shortFlowMemory",
                          "type": "uint256"
                        },
                        {
                          "internalType": "uint256",
                          "name": "shortFlowThreshold",
                          "type": "uint256"
                        }
                      ],
                      "internalType": "struct DataTypes.PersistedVaultMetadata",
                      "name": "persistedMetadata",
                      "type": "tuple"
                    },
                    {
                      "internalType": "uint256",
                      "name": "reserveBalance",
                      "type": "uint256"
                    },
                    {
                      "internalType": "uint256",
                      "name": "currentWeight",
                      "type": "uint256"
                    },
                    {
                      "internalType": "uint256",
                      "name": "idealWeight",
                      "type": "uint256"
                    },
                    {
                      "components": [
                        {
                          "internalType": "address",
                          "name": "tokenAddress",
                          "type": "address"
                        },
                        {
                          "internalType": "bool",
                          "name": "isStable",
                          "type": "bool"
                        },
                        {
                          "internalType": "uint256",
                          "name": "price",
                          "type": "uint256"
                        }
                      ],
                      "internalType": "struct DataTypes.PricedToken[]",
                      "name": "pricedTokens",
                      "type": "tuple[]"
                    }
                  ],
                  "internalType": "struct DataTypes.VaultInfo",
                  "name": "vaultInfo",
                  "type": "tuple"
                },
                {
                  "internalType": "uint256",
                  "name": "amount",
                  "type": "uint256"
                }
              ],
              "internalType": "struct DataTypes.VaultWithAmount[]",
              "name": "vaultsWithAmount",
              "type": "tuple[]"
            },
            {
              "internalType": "bool",
              "name": "mint",
              "type": "bool"
            }
          ],
          "internalType": "struct DataTypes.Order",
          "name": "order",
          "type": "tuple"
        }
      ],
      "name": "checkAndPersistMint",
      "outputs": [],
      "stateMutability": "nonpayable",
      "type": "function"
    },
    {
      "inputs": [
        {
          "components": [
            {
              "components": [
                {
                  "components": [
                    {
                      "internalType": "address",
                      "name": "vault",
                      "type": "address"
                    },
                    {
                      "internalType": "uint8",
                      "name": "decimals",
                      "type": "uint8"
                    },
                    {
                      "internalType": "address",
                      "name": "underlying",
                      "type": "address"
                    },
                    {
                      "internalType": "uint256",
                      "name": "price",
                      "type": "uint256"
                    },
                    {
                      "components": [
                        {
                          "internalType": "uint256",
                          "name": "initialPrice",
                          "type": "uint256"
                        },
                        {
                          "internalType": "uint256",
                          "name": "initialWeight",
                          "type": "uint256"
                        },
                        {
                          "internalType": "uint256",
                          "name": "shortFlowMemory",
                          "type": "uint256"
                        },
                        {
                          "internalType": "uint256",
                          "name": "shortFlowThreshold",
                          "type": "uint256"
                        }
                      ],
                      "internalType": "struct DataTypes.PersistedVaultMetadata",
                      "name": "persistedMetadata",
                      "type": "tuple"
                    },
                    {
                      "internalType": "uint256",
                      "name": "reserveBalance",
                      "type": "uint256"
                    },
                    {
                      "internalType": "uint256",
                      "name": "currentWeight",
                      "type": "uint256"
                    },
                    {
                      "internalType": "uint256",
                      "name": "idealWeight",
                      "type": "uint256"
                    },
                    {
                      "components": [
                        {
                          "internalType": "address",
                          "name": "tokenAddress",
                          "type": "address"
                        },
                        {
                          "internalType": "bool",
                          "name": "isStable",
                          "type": "bool"
                        },
                        {
                          "internalType": "uint256",
                          "name": "price",
                          "type": "uint256"
                        }
                      ],
                      "internalType": "struct DataTypes.PricedToken[]",
                      "name": "pricedTokens",
                      "type": "tuple[]"
                    }
                  ],
                  "internalType": "struct DataTypes.VaultInfo",
                  "name": "vaultInfo",
                  "type": "tuple"
                },
                {
                  "internalType": "uint256",
                  "name": "amount",
                  "type": "uint256"
                }
              ],
              "internalType": "struct DataTypes.VaultWithAmount[]",
              "name": "vaultsWithAmount",
              "type": "tuple[]"
            },
            {
              "internalType": "bool",
              "name": "mint",
              "type": "bool"
            }
          ],
          "internalType": "struct DataTypes.Order",
          "name": "order",
          "type": "tuple"
        }
      ],
      "name": "checkAndPersistRedeem",
      "outputs": [],
      "stateMutability": "nonpayable",
      "type": "function"
    },
    {
      "inputs": [],
      "name": "getWhitelist",
      "outputs": [
        {
          "internalType": "address[]",
          "name": "",
          "type": "address[]"
        }
      ],
      "stateMutability": "view",
      "type": "function"
    },
    {
      "inputs": [],
      "name": "governor",
      "outputs": [
        {
          "internalType": "address",
          "name": "",
          "type": "address"
        }
      ],
      "stateMutability": "view",
      "type": "function"
    },
    {
      "inputs": [],
      "name": "gyroConfig",
      "outputs": [
        {
          "internalType": "contract IGyroConfig",
          "name": "",
          "type": "address"
        }
      ],
      "stateMutability": "view",
      "type": "function"
    },
    {
      "inputs": [
        {
          "components": [
            {
              "components": [
                {
                  "components": [
                    {
                      "internalType": "address",
                      "name": "vault",
                      "type": "address"
                    },
                    {
                      "internalType": "uint8",
                      "name": "decimals",
                      "type": "uint8"
                    },
                    {
                      "internalType": "address",
                      "name": "underlying",
                      "type": "address"
                    },
                    {
                      "internalType": "uint256",
                      "name": "price",
                      "type": "uint256"
                    },
                    {
                      "components": [
                        {
                          "internalType": "uint256",
                          "name": "initialPrice",
                          "type": "uint256"
                        },
                        {
                          "internalType": "uint256",
                          "name": "initialWeight",
                          "type": "uint256"
                        },
                        {
                          "internalType": "uint256",
                          "name": "shortFlowMemory",
                          "type": "uint256"
                        },
                        {
                          "internalType": "uint256",
                          "name": "shortFlowThreshold",
                          "type": "uint256"
                        }
                      ],
                      "internalType": "struct DataTypes.PersistedVaultMetadata",
                      "name": "persistedMetadata",
                      "type": "tuple"
                    },
                    {
                      "internalType": "uint256",
                      "name": "reserveBalance",
                      "type": "uint256"
                    },
                    {
                      "internalType": "uint256",
                      "name": "currentWeight",
                      "type": "uint256"
                    },
                    {
                      "internalType": "uint256",
                      "name": "idealWeight",
                      "type": "uint256"
                    },
                    {
                      "components": [
                        {
                          "internalType": "address",
                          "name": "tokenAddress",
                          "type": "address"
                        },
                        {
                          "internalType": "bool",
                          "name": "isStable",
                          "type": "bool"
                        },
                        {
                          "internalType": "uint256",
                          "name": "price",
                          "type": "uint256"
                        }
                      ],
                      "internalType": "struct DataTypes.PricedToken[]",
                      "name": "pricedTokens",
                      "type": "tuple[]"
                    }
                  ],
                  "internalType": "struct DataTypes.VaultInfo",
                  "name": "vaultInfo",
                  "type": "tuple"
                },
                {
                  "internalType": "uint256",
                  "name": "amount",
                  "type": "uint256"
                }
              ],
              "internalType": "struct DataTypes.VaultWithAmount[]",
              "name": "vaultsWithAmount",
              "type": "tuple[]"
            },
            {
              "internalType": "bool",
              "name": "mint",
              "type": "bool"
            }
          ],
          "internalType": "struct DataTypes.Order",
          "name": "order",
          "type": "tuple"
        }
      ],
      "name": "isMintSafe",
      "outputs": [
        {
          "internalType": "string",
          "name": "err",
          "type": "string"
        }
      ],
      "stateMutability": "view",
      "type": "function"
    },
    {
      "inputs": [
        {
          "components": [
            {
              "components": [
                {
                  "components": [
                    {
                      "internalType": "address",
                      "name": "vault",
                      "type": "address"
                    },
                    {
                      "internalType": "uint8",
                      "name": "decimals",
                      "type": "uint8"
                    },
                    {
                      "internalType": "address",
                      "name": "underlying",
                      "type": "address"
                    },
                    {
                      "internalType": "uint256",
                      "name": "price",
                      "type": "uint256"
                    },
                    {
                      "components": [
                        {
                          "internalType": "uint256",
                          "name": "initialPrice",
                          "type": "uint256"
                        },
                        {
                          "internalType": "uint256",
                          "name": "initialWeight",
                          "type": "uint256"
                        },
                        {
                          "internalType": "uint256",
                          "name": "shortFlowMemory",
                          "type": "uint256"
                        },
                        {
                          "internalType": "uint256",
                          "name": "shortFlowThreshold",
                          "type": "uint256"
                        }
                      ],
                      "internalType": "struct DataTypes.PersistedVaultMetadata",
                      "name": "persistedMetadata",
                      "type": "tuple"
                    },
                    {
                      "internalType": "uint256",
                      "name": "reserveBalance",
                      "type": "uint256"
                    },
                    {
                      "internalType": "uint256",
                      "name": "currentWeight",
                      "type": "uint256"
                    },
                    {
                      "internalType": "uint256",
                      "name": "idealWeight",
                      "type": "uint256"
                    },
                    {
                      "components": [
                        {
                          "internalType": "address",
                          "name": "tokenAddress",
                          "type": "address"
                        },
                        {
                          "internalType": "bool",
                          "name": "isStable",
                          "type": "bool"
                        },
                        {
                          "internalType": "uint256",
                          "name": "price",
                          "type": "uint256"
                        }
                      ],
                      "internalType": "struct DataTypes.PricedToken[]",
                      "name": "pricedTokens",
                      "type": "tuple[]"
                    }
                  ],
                  "internalType": "struct DataTypes.VaultInfo",
                  "name": "vaultInfo",
                  "type": "tuple"
                },
                {
                  "internalType": "uint256",
                  "name": "amount",
                  "type": "uint256"
                }
              ],
              "internalType": "struct DataTypes.VaultWithAmount[]",
              "name": "vaultsWithAmount",
              "type": "tuple[]"
            },
            {
              "internalType": "bool",
              "name": "mint",
              "type": "bool"
            }
          ],
          "internalType": "struct DataTypes.Order",
          "name": "order",
          "type": "tuple"
        }
      ],
      "name": "isRedeemSafe",
      "outputs": [
        {
          "internalType": "string",
          "name": "err",
          "type": "string"
        }
      ],
      "stateMutability": "view",
      "type": "function"
    },
    {
      "inputs": [
        {
          "internalType": "bool",
          "name": "depositsOnly",
          "type": "bool"
        }
      ],
      "name": "pauseProtocol",
      "outputs": [],
      "stateMutability": "nonpayable",
      "type": "function"
    },
    {
      "inputs": [],
      "name": "pendingGovernor",
      "outputs": [
        {
          "internalType": "address",
          "name": "",
          "type": "address"
        }
      ],
      "stateMutability": "view",
      "type": "function"
    },
    {
      "inputs": [
        {
          "internalType": "address",
          "name": "",
          "type": "address"
        }
      ],
      "name": "persistedFlowData",
      "outputs": [
        {
          "components": [
            {
              "internalType": "uint128",
              "name": "shortFlow",
              "type": "uint128"
            },
            {
              "internalType": "uint64",
              "name": "lastSafetyBlock",
              "type": "uint64"
            },
            {
              "internalType": "uint64",
              "name": "lastSeenBlock",
              "type": "uint64"
            }
          ],
          "internalType": "struct DataTypes.DirectionalFlowData",
          "name": "inFlow",
          "type": "tuple"
        },
        {
          "components": [
            {
              "internalType": "uint128",
              "name": "shortFlow",
              "type": "uint128"
            },
            {
              "internalType": "uint64",
              "name": "lastSafetyBlock",
              "type": "uint64"
            },
            {
              "internalType": "uint64",
              "name": "lastSeenBlock",
              "type": "uint64"
            }
          ],
          "internalType": "struct DataTypes.DirectionalFlowData",
          "name": "outFlow",
          "type": "tuple"
        }
      ],
      "stateMutability": "view",
      "type": "function"
    },
    {
      "inputs": [
        {
          "internalType": "address",
          "name": "_addressToRemove",
          "type": "address"
        }
      ],
      "name": "removeAddressFromWhitelist",
      "outputs": [],
      "stateMutability": "nonpayable",
      "type": "function"
    },
    {
      "inputs": [],
      "name": "safetyBlocksAutomatic",
      "outputs": [
        {
          "internalType": "uint256",
          "name": "",
          "type": "uint256"
        }
      ],
      "stateMutability": "view",
      "type": "function"
    },
    {
      "inputs": [],
      "name": "safetyBlocksGuardian",
      "outputs": [
        {
          "internalType": "uint256",
          "name": "",
          "type": "uint256"
        }
      ],
      "stateMutability": "view",
      "type": "function"
    }
  ],
  "bytecode": {
    "object": "0x60e06040523480156200001157600080fd5b5060405162001d5738038062001d578339810160408190526200003491620000c7565b600080546001600160a01b0319166001600160a01b038616908117825560408051928352602083019190915285917fde4b3f61490b74c0ed6237523974fe299126bbbf8a8a7482fd220104c59b0c84910160405180910390a15060a09290925260c0526001600160a01b03166080525062000112565b80516001600160a01b0381168114620000c257600080fd5b919050565b60008060008060808587031215620000de57600080fd5b620000e985620000aa565b935060208501519250604085015191506200010760608601620000aa565b905092959194509250565b60805160a05160c051611beb6200016c6000396000818161027d015281816109800152610ff60152600081816102b70152610efa0152600081816102230152818161056b015281816106e201526108d20152611beb6000f3fe608060405234801561001057600080fd5b50600436106101165760003560e01c8063a0763820116100a2578063e2cc867911610071578063e2cc867914610301578063e3056a3414610314578063e4c0aaf414610327578063ef2933ec1461033a578063fc283b861461034d57600080fd5b8063a07638201461029f578063c9e959bf146102b2578063d01f63f5146102d9578063d625436c146102ee57600080fd5b8063286dd3f5116100e9578063286dd3f51461020b57806344bbdb551461021e5780636382b296146102455780637b9417c814610265578063a036c2841461027857600080fd5b80630bdf8d221461011b5780630c340a241461013d578063238efcbc1461016857806325aeb09214610172575b600080fd5b61012a670b1a2bc2ec50000081565b6040519081526020015b60405180910390f35b600054610150906001600160a01b031681565b6040516001600160a01b039091168152602001610134565b610170610360565b005b6101fd610180366004611484565b60046020908152600091825260409182902082516060808201855282546001600160801b0380821684526001600160401b03600160801b808404821686890152600160c01b938490048216868a01528851948501895260019096015491821684529481048516958301959095529093049091169282019290925282565b6040516101349291906114a1565b610170610219366004611484565b610419565b6101507f000000000000000000000000000000000000000000000000000000000000000081565b610258610253366004611715565b6104a2565b6040516101349190611900565b610170610273366004611484565b6104dd565b61012a7f000000000000000000000000000000000000000000000000000000000000000081565b6101706102ad366004611715565b610566565b61012a7f000000000000000000000000000000000000000000000000000000000000000081565b6102e16106cc565b604051610134919061194e565b6101706102fc366004611715565b6106dd565b61025861030f366004611715565b61079b565b600154610150906001600160a01b031681565b610170610335366004611484565b6107b0565b61017061034836600461199b565b610885565b61017061035b3660046119b6565b610a1c565b600154604080518082019091526002815261033360f41b6020820152906001600160a01b031633146103ae5760405162461bcd60e51b81526004016103a59190611900565b60405180910390fd5b5060008054600180546001600160a01b03198084166001600160a01b03808416919091179095551690556040805192909116808352336020840152917fde4b3f61490b74c0ed6237523974fe299126bbbf8a8a7482fd220104c59b0c8491015b60405180910390a150565b600054604080518082019091526002815261033360f41b6020820152906001600160a01b0316331461045e5760405162461bcd60e51b81526004016103a59190611900565b5061046a600282610a6c565b506040516001600160a01b038216907fcdd2e9b91a56913d370075169cefa1602ba36be5301664f752192bb1709df75790600090a250565b606081602001516104bd576104b682610a8a565b5092915050565b50604080518082019091526002815261333160f01b60208201525b919050565b600054604080518082019091526002815261033360f41b6020820152906001600160a01b031633146105225760405162461bcd60e51b81526004016103a59190611900565b5061052e600282610d40565b506040516001600160a01b038216907fa850ae9193f515cbae8d35e8925bd2be26627fc91bce650b8652ed254e9cab0390600090a250565b6105987f00000000000000000000000000000000000000000000000000000000000000006001600160a01b0316610d55565b6001600160a01b0316336001600160a01b03161460405180604001604052806002815260200161033360f41b815250906105e55760405162461bcd60e51b81526004016103a59190611900565b5080602001511560405180604001604052806002815260200161333160f01b815250906106255760405162461bcd60e51b81526004016103a59190611900565b5060008061063283610a8a565b81519193509150156106bd57604080518082019091526002815261363160f01b6020820152610662908390610de1565b156106a3577f135e6dd29efa875112189add0769ed7f19cd6db71eefe10bf040c499f5aab344826040516106969190611900565b60405180910390a16106bd565b8160405162461bcd60e51b81526004016103a59190611900565b6106c78382610e0b565b505050565b60606106d86002610f5d565b905090565b61070f7f00000000000000000000000000000000000000000000000000000000000000006001600160a01b0316610d55565b6001600160a01b0316336001600160a01b03161460405180604001604052806002815260200161033360f41b8152509061075c5760405162461bcd60e51b81526004016103a59190611900565b50806020015160405180604001604052806002815260200161333160f01b815250906106255760405162461bcd60e51b81526004016103a59190611900565b60608160200151156104bd576104b682610a8a565b600054604080518082019091526002815261033360f41b6020820152906001600160a01b031633146107f55760405162461bcd60e51b81526004016103a59190611900565b50604080518082019091526002815261333160f01b60208201526001600160a01b0382166108365760405162461bcd60e51b81526004016103a59190611900565b50600180546001600160a01b0319166001600160a01b0383169081179091556040519081527f67235ba2e63c748a35b95c4f92a3bbc2a1389938170a5ce6c9add5d0b03a314a9060200161040e565b33610891600282610f71565b60405180604001604052806002815260200161033360f41b815250906108ca5760405162461bcd60e51b81526004016103a59190611900565b5060006108ff7f00000000000000000000000000000000000000000000000000000000000000006001600160a01b0316610f93565b90506000816001600160a01b03166350cc258e6040518163ffffffff1660e01b8152600401600060405180830381865afa158015610941573d6000803e3d6000fd5b505050506040513d6000823e601f3d908101601f191682016040526109699190810190611a13565b905060008461097957600261097c565b60005b90507f000000000000000000000000000000000000000000000000000000000000000060005b8351811015610a1357600060405180604001604052808684815181106109ca576109ca611aac565b60200260200101516001600160a01b031681526020018560028111156109f2576109f2611ac2565b90529050610a008184610fdb565b5080610a0b81611aee565b9150506109a2565b50505050505050565b33610a28600282610f71565b60405180604001604052806002815260200161033360f41b81525090610a615760405162461bcd60e51b81526004016103a59190611900565b506106c78383610fdb565b6000610a81836001600160a01b0384166111ca565b90505b92915050565b6060808260000151516001600160401b03811115610aaa57610aaa611510565b604051908082528060200260200182016040528015610aef57816020015b6040805180820190915260008082526020820152815260200190600190039081610ac85790505b50905060005b835151811015610d3a57600084600001518281518110610b1757610b17611aac565b6020026020010151602001519050600085600001518381518110610b3d57610b3d611aac565b6020908102919091018101515180516001600160a01b03166000908152600483526040808220815160608101835283815294850183905290840191909152909250908760200151610b915781600101610b93565b815b6040805160608101825291546001600160801b03811683526001600160401b03600160801b820481166020850152600160c01b909104169082015290508315801590610bec575080602001516001600160401b03164311155b15610c175760405180604001604052806002815260200161363560f01b815250965050505050610d3a565b600083608001516060015190506000610c5483600001516001600160801b03164385604001516001600160401b03168860800151604001516112bd565b8a51805189908110610c6857610c68611aac565b602002602001015160200151610c7e9190611b07565b905081811115610cb05760405180604001604052806002815260200161036360f41b8152509850505050505050610d3a565b6000610cc4670b1a2bc2ec50000084611346565b821190508015610cec5760405180604001604052806002815260200161363160f01b81525099505b6040518060400160405280838152602001821515815250898981518110610d1557610d15611aac565b6020026020010181905250505050505050508080610d3290611aee565b915050610af5565b50915091565b6000610a81836001600160a01b038416611367565b6040516321f8a72160e01b81527f524f4f545f5341464554595f434845434b5f414444524553530000000000000060048201526000906001600160a01b038316906321f8a721906024015b602060405180830381865afa158015610dbd573d6000803e3d6000fd5b505050506040513d601f19601f82011682018060405250810190610a849190611b1a565b60008151835114610df457506000610a84565b508051602091820120825192909101919091201490565b60005b8251518110156106c757600083600001518281518110610e3057610e30611aac565b6020908102919091018101515180516001600160a01b031660009081526004835260408120928701519193509015610e69575080610e6f565b50600181015b80546001600160c01b0316600160c01b436001600160401b0316021781558451859085908110610ea157610ea1611aac565b60209081029190910101515181546fffffffffffffffffffffffffffffffff19166001600160801b039091161781558451859085908110610ee457610ee4611aac565b60200260200101516020015115610f4757610f1f7f000000000000000000000000000000000000000000000000000000000000000043611b07565b81546001600160401b0391909116600160801b0267ffffffffffffffff60801b199091161781555b5050508080610f5590611aee565b915050610e0e565b60606000610f6a836113b6565b9392505050565b6001600160a01b03811660009081526001830160205260408120541515610a81565b6040516321f8a72160e01b8152755641554c545f52454749535452595f4144445245535360501b60048201526000906001600160a01b038316906321f8a72190602401610da0565b6040805180820190915260028152611b1960f11b60208201527f00000000000000000000000000000000000000000000000000000000000000008211156110355760405162461bcd60e51b81526004016103a59190611900565b5060006110428243611b07565b905060008360200151600281111561105c5761105c611ac2565b148061107d575060028360200151600281111561107b5761107b611ac2565b145b156111055782516001600160a01b03908116600090815260046020908152604091829020805467ffffffffffffffff60801b1916600160801b6001600160401b03871602179055855182519316835282018490526001908201527fd3a9973922556aa8a1d3200840e7b0adc7851cb170484c2c7001999ae794abc49060600160405180910390a15b60018360200151600281111561111d5761111d611ac2565b148061113e575060028360200151600281111561113c5761113c611ac2565b145b156106c75782516001600160a01b039081166000908152600460209081526040808320600101805467ffffffffffffffff60801b1916600160801b6001600160401b0388160217905586518151941684529083018590528201527fd3a9973922556aa8a1d3200840e7b0adc7851cb170484c2c7001999ae794abc49060600160405180910390a1505050565b600081815260018301602052604081205480156112b35760006111ee600183611b37565b855490915060009061120290600190611b37565b905081811461126757600086600001828154811061122257611222611aac565b906000526020600020015490508087600001848154811061124557611245611aac565b6000918252602080832090910192909255918252600188019052604090208390555b855486908061127857611278611b4a565b600190038181906000526020600020016000905590558560010160008681526020019081526020016000206000905560019350505050610a84565b6000915050610a84565b6000838314806112cb575084155b156112d757508361133e565b8383101561130e5760006112eb8486611b37565b905060006112f98483611412565b90506113058782611346565b9250505061133e565b6040805180820182526002815261333160f01b6020820152905162461bcd60e51b81526103a59190600401611900565b949350505050565b6000806113538385611b60565b905061133e670de0b6b3a764000082611b8d565b60008181526001830160205260408120546113ae57508154600181810184556000848152602080822090930184905584548482528286019093526040902091909155610a84565b506000610a84565b60608160000180548060200260200160405190810160405280929190818152602001828054801561140657602002820191906000526020600020905b8154815260200190600101908083116113f2575b50505050509050919050565b6000670de0b6b3a76400005b8215610a815761142f600284611ba1565b600103611443576114408185611346565b90505b61144e600284611b8d565b925061145a8485611346565b935061141e565b6001600160a01b038116811461147657600080fd5b50565b80356104d881611461565b60006020828403121561149657600080fd5b8135610a8181611461565b60c081016114db828580516001600160801b031682526020808201516001600160401b039081169184019190915260409182015116910152565b82516001600160801b0316606083015260208301516001600160401b03908116608084015260408401511660a0830152610f6a565b634e487b7160e01b600052604160045260246000fd5b604051606081016001600160401b038111828210171561154857611548611510565b60405290565b604080519081016001600160401b038111828210171561154857611548611510565b60405161012081016001600160401b038111828210171561154857611548611510565b604051601f8201601f191681016001600160401b03811182821017156115bb576115bb611510565b604052919050565b60006001600160401b038211156115dc576115dc611510565b5060051b60200190565b803560ff811681146104d857600080fd5b60006080828403121561160957600080fd5b604051608081018181106001600160401b038211171561162b5761162b611510565b8060405250809150823581526020830135602082015260408301356040820152606083013560608201525092915050565b803580151581146104d857600080fd5b600082601f83011261167d57600080fd5b8135602061169261168d836115c3565b611593565b828152606092830285018201928282019190878511156116b157600080fd5b8387015b858110156117085781818a0312156116cd5760008081fd5b6116d5611526565b81356116e081611461565b81526116ed82870161165c565b818701526040828101359082015284529284019281016116b5565b5090979650505050505050565b60006020828403121561172757600080fd5b6001600160401b03808335111561173d57600080fd5b6040833584018503121561175057600080fd5b61175861154e565b818435850135111561176957600080fd5b83358401803501601f8101861361177f57600080fd5b61178c61168d82356115c3565b81358082526020808301929160051b8401018810156117aa57600080fd5b602083015b6020843560051b8501018110156118de5785813511156117ce57600080fd5b80358401601f196040828c03820112156117e757600080fd5b6117ef61154e565b886020840135111561180057600080fd5b6020830135830161018083828f0301121561181a57600080fd5b611822611570565b925061183060208201611479565b835261183e604082016115e6565b602084015261184f60608201611479565b60408401526080810135606084015261186b8d60a083016115f7565b608084015261012081013560a084015261014081013560c084015261016081013560e08401528961018082013511156118a357600080fd5b6118b78d602061018084013584010161166c565b610100840152509081526040919091013560208083019190915290845292830192016117af565b508352506118f390508435850160200161165c565b6020820152949350505050565b600060208083528351808285015260005b8181101561192d57858101830151858201604001528201611911565b506000604082860101526040601f19601f8301168501019250505092915050565b6020808252825182820181905260009190848201906040850190845b8181101561198f5783516001600160a01b03168352928401929184019160010161196a565b50909695505050505050565b6000602082840312156119ad57600080fd5b610a818261165c565b60008082840360608112156119ca57600080fd5b60408112156119d857600080fd5b506119e161154e565b83356119ec81611461565b8152602084013560038110611a0057600080fd5b6020820152946040939093013593505050565b60006020808385031215611a2657600080fd5b82516001600160401b03811115611a3c57600080fd5b8301601f81018513611a4d57600080fd5b8051611a5b61168d826115c3565b81815260059190911b82018301908381019087831115611a7a57600080fd5b928401925b82841015611aa1578351611a9281611461565b82529284019290840190611a7f565b979650505050505050565b634e487b7160e01b600052603260045260246000fd5b634e487b7160e01b600052602160045260246000fd5b634e487b7160e01b600052601160045260246000fd5b600060018201611b0057611b00611ad8565b5060010190565b80820180821115610a8457610a84611ad8565b600060208284031215611b2c57600080fd5b8151610a8181611461565b81810381811115610a8457610a84611ad8565b634e487b7160e01b600052603160045260246000fd5b8082028115828204841417610a8457610a84611ad8565b634e487b7160e01b600052601260045260246000fd5b600082611b9c57611b9c611b77565b500490565b600082611bb057611bb0611b77565b50069056fea2646970667358221220e07d52c88bc359eac6b25a5083f06fbc9273c88961e2307af00c5b1d19c781c764736f6c63430008110033",
    "linkReferences": {}
  },
  "methodIdentifiers": {
    "THRESHOLD_BUFFER()": "0bdf8d22",
    "acceptGovernance()": "238efcbc",
    "activateOracleGuardian((address,uint8),uint256)": "fc283b86",
    "addAddressToWhitelist(address)": "7b9417c8",
    "changeGovernor(address)": "e4c0aaf4",
    "checkAndPersistMint((((address,uint8,address,uint256,(uint256,uint256,uint256,uint256),uint256,uint256,uint256,(address,bool,uint256)[]),uint256)[],bool))": "d625436c",
    "checkAndPersistRedeem((((address,uint8,address,uint256,(uint256,uint256,uint256,uint256),uint256,uint256,uint256,(address,bool,uint256)[]),uint256)[],bool))": "a0763820",
    "getWhitelist()": "d01f63f5",
    "governor()": "0c340a24",
    "gyroConfig()": "44bbdb55",
    "isMintSafe((((address,uint8,address,uint256,(uint256,uint256,uint256,uint256),uint256,uint256,uint256,(address,bool,uint256)[]),uint256)[],bool))": "e2cc8679",
    "isRedeemSafe((((address,uint8,address,uint256,(uint256,uint256,uint256,uint256),uint256,uint256,uint256,(address,bool,uint256)[]),uint256)[],bool))": "6382b296",
    "pauseProtocol(bool)": "ef2933ec",
    "pendingGovernor()": "e3056a34",
    "persistedFlowData(address)": "25aeb092",
    "removeAddressFromWhitelist(address)": "286dd3f5",
    "safetyBlocksAutomatic()": "c9e959bf",
    "safetyBlocksGuardian()": "a036c284"
  },
  "id": 33
}