{
  "abi": [
    {
      "inputs": [
        {
          "internalType": "address",
          "name": "_governor",
          "type": "address"
        }
      ],
      "stateMutability": "nonpayable",
      "type": "constructor"
    },
    {
      "anonymous": false,
      "inputs": [
        {
          "indexed": true,
          "internalType": "address",
          "name": "asset",
          "type": "address"
        },
        {
          "indexed": true,
          "internalType": "address",
          "name": "previousFeed",
          "type": "address"
        },
        {
          "indexed": true,
          "internalType": "address",
          "name": "newFeed",
          "type": "address"
        },
        {
          "components": [
            {
              "internalType": "uint64",
              "name": "minDiffTime",
              "type": "uint64"
            },
            {
              "internalType": "uint64",
              "name": "maxDeviation",
              "type": "uint64"
            }
          ],
          "indexed": false,
          "internalType": "struct CrashProtectedChainlinkPriceOracle.FeedMeta",
          "name": "meta",
          "type": "tuple"
        }
      ],
      "name": "FeedUpdated",
      "type": "event"
    },
    {
      "anonymous": false,
      "inputs": [
        {
          "indexed": false,
          "internalType": "address",
          "name": "newGovernor",
          "type": "address"
        }
      ],
      "name": "GovernorChangeRequested",
      "type": "event"
    },
    {
      "anonymous": false,
      "inputs": [
        {
          "indexed": false,
          "internalType": "address",
          "name": "oldGovernor",
          "type": "address"
        },
        {
          "indexed": false,
          "internalType": "address",
          "name": "newGovernor",
          "type": "address"
        }
      ],
      "name": "GovernorChanged",
      "type": "event"
    },
    {
      "inputs": [],
      "name": "MAX_LAG",
      "outputs": [
        {
          "internalType": "uint256",
          "name": "",
          "type": "uint256"
        }
      ],
      "stateMutability": "view",
      "type": "function"
    },
    {
      "inputs": [],
      "name": "acceptGovernance",
      "outputs": [],
      "stateMutability": "nonpayable",
      "type": "function"
    },
    {
      "inputs": [
        {
          "internalType": "address",
          "name": "newGovernor",
          "type": "address"
        }
      ],
      "name": "changeGovernor",
      "outputs": [],
      "stateMutability": "nonpayable",
      "type": "function"
    },
    {
      "inputs": [
        {
          "internalType": "address",
          "name": "",
          "type": "address"
        }
      ],
      "name": "feedMetas",
      "outputs": [
        {
          "internalType": "uint64",
          "name": "minDiffTime",
          "type": "uint64"
        },
        {
          "internalType": "uint64",
          "name": "maxDeviation",
          "type": "uint64"
        }
      ],
      "stateMutability": "view",
      "type": "function"
    },
    {
      "inputs": [
        {
          "internalType": "address",
          "name": "",
          "type": "address"
        }
      ],
      "name": "feeds",
      "outputs": [
        {
          "internalType": "address",
          "name": "",
          "type": "address"
        }
      ],
      "stateMutability": "view",
      "type": "function"
    },
    {
      "inputs": [
        {
          "internalType": "address",
          "name": "asset",
          "type": "address"
        }
      ],
      "name": "getPriceUSD",
      "outputs": [
        {
          "internalType": "uint256",
          "name": "",
          "type": "uint256"
        }
      ],
      "stateMutability": "view",
      "type": "function"
    },
    {
      "inputs": [],
      "name": "governor",
      "outputs": [
        {
          "internalType": "address",
          "name": "",
          "type": "address"
        }
      ],
      "stateMutability": "view",
      "type": "function"
    },
    {
      "inputs": [],
      "name": "listSupportedAssets",
      "outputs": [
        {
          "internalType": "address[]",
          "name": "",
          "type": "address[]"
        }
      ],
      "stateMutability": "view",
      "type": "function"
    },
    {
      "inputs": [],
      "name": "pendingGovernor",
      "outputs": [
        {
          "internalType": "address",
          "name": "",
          "type": "address"
        }
      ],
      "stateMutability": "view",
      "type": "function"
    },
    {
      "inputs": [
        {
          "internalType": "address",
          "name": "asset",
          "type": "address"
        },
        {
          "internalType": "address",
          "name": "feed",
          "type": "address"
        },
        {
          "components": [
            {
              "internalType": "uint64",
              "name": "minDiffTime",
              "type": "uint64"
            },
            {
              "internalType": "uint64",
              "name": "maxDeviation",
              "type": "uint64"
            }
          ],
          "internalType": "struct CrashProtectedChainlinkPriceOracle.FeedMeta",
          "name": "feedMeta",
          "type": "tuple"
        }
      ],
      "name": "setFeed",
      "outputs": [],
      "stateMutability": "nonpayable",
      "type": "function"
    }
  ],
  "bytecode": {
    "object": "0x608060405234801561001057600080fd5b50604051610f70380380610f7083398101604081905261002f91610092565b600080546001600160a01b0319166001600160a01b0383169081178255604080519283526020830191909152829182917fde4b3f61490b74c0ed6237523974fe299126bbbf8a8a7482fd220104c59b0c84910160405180910390a15050506100c2565b6000602082840312156100a457600080fd5b81516001600160a01b03811681146100bb57600080fd5b9392505050565b610e9f806100d16000396000f3fe608060405234801561001057600080fd5b506004361061009e5760003560e01c80635436ae9a116100665780635436ae9a146101745780635462001e146101895780635708447d1461019c578063e3056a34146101af578063e4c0aaf4146101c257600080fd5b80630c340a24146100a357806314c1d37f146100d3578063238efcbc146100eb5780632fba4aa9146100f55780634cbacc841461011e575b600080fd5b6000546100b6906001600160a01b031681565b6040516001600160a01b0390911681526020015b60405180910390f35b6100dd6201518081565b6040519081526020016100ca565b6100f36101d5565b005b6100b6610103366004610ac1565b6004602052600090815260409020546001600160a01b031681565b61015361012c366004610ac1565b60056020526000908152604090205467ffffffffffffffff80821691600160401b90041682565b6040805167ffffffffffffffff9384168152929091166020830152016100ca565b61017c61028e565b6040516100ca9190610adc565b6100f3610197366004610b41565b61029f565b6100dd6101aa366004610ac1565b61047e565b6001546100b6906001600160a01b031681565b6100f36101d0366004610ac1565b6106f2565b600154604080518082019091526002815261033360f41b6020820152906001600160a01b031633146102235760405162461bcd60e51b815260040161021a9190610be3565b60405180910390fd5b5060008054600180546001600160a01b03198084166001600160a01b03808416919091179095551690556040805192909116808352336020840152917fde4b3f61490b74c0ed6237523974fe299126bbbf8a8a7482fd220104c59b0c8491015b60405180910390a150565b606061029a60026107c7565b905090565b600054604080518082019091526002815261033360f41b6020820152906001600160a01b031633146102e45760405162461bcd60e51b815260040161021a9190610be3565b506001600160a01b038084166000908152600460209081526040918290205482518084019093526002835261333160f01b91830191909152821691841682036103405760405162461bcd60e51b815260040161021a9190610be3565b508151604080518082019091526002815261333160f01b60208201529067ffffffffffffffff166103845760405162461bcd60e51b815260040161021a9190610be3565b506001600160a01b03808516600090815260046020908152604080832080549488166001600160a01b03199095168517905592825260058152919020835181549285015167ffffffffffffffff908116600160401b026fffffffffffffffffffffffffffffffff199094169116179190911790556104036002856107db565b50826001600160a01b0316816001600160a01b0316856001600160a01b03167fdc65aceb37af772a52834bdb6f74f79c209765225d01455d6a9b273a776547bb856040516104709190815167ffffffffffffffff9081168252602092830151169181019190915260400190565b60405180910390a450505050565b6001600160a01b0380821660009081526004602090815260408083205481518083019092526002825261034360f41b9282019290925291921690816104d65760405162461bcd60e51b815260040161021a9190610be3565b5060008060006104e5846107f9565b6001600160a01b038716600090815260056020908152604080832081518083019092525467ffffffffffffffff8082168352600160401b90910416918101919091529396509194509250805b61053c600187610c47565b604051639a6fc8f560e01b815269ffffffffffffffffffff821660048201529096506001600160a01b03881690639a6fc8f59060240160a060405180830381865afa15801561058f573d6000803e3d6000fd5b505050506040513d601f19601f820116820180604052508101906105b39190610c8b565b50865192955093505067ffffffffffffffff1690506105d28286610cdb565b10610531576040805180820190915260028152611a1960f11b602082015260008312156106125760405162461bcd60e51b815260040161021a9190610be3565b5081600061062a8761062484826108fc565b9061091f565b9050846020015167ffffffffffffffff168110604051806040016040528060028152602001610d0d60f21b815250906106765760405162461bcd60e51b815260040161021a9190610be3565b506106e3896001600160a01b031663313ce5676040518163ffffffff1660e01b8152600401602060405180830381865afa1580156106b8573d6000803e3d6000fd5b505050506040513d601f19601f820116820180604052508101906106dc9190610cee565b8890610992565b9b9a5050505050505050505050565b600054604080518082019091526002815261033360f41b6020820152906001600160a01b031633146107375760405162461bcd60e51b815260040161021a9190610be3565b50604080518082019091526002815261333160f01b60208201526001600160a01b0382166107785760405162461bcd60e51b815260040161021a9190610be3565b50600180546001600160a01b0319166001600160a01b0383169081179091556040519081527f67235ba2e63c748a35b95c4f92a3bbc2a1389938170a5ce6c9add5d0b03a314a90602001610283565b606060006107d4836109fa565b9392505050565b60006107f0836001600160a01b038416610a56565b90505b92915050565b600080600080846001600160a01b031663feaf968c6040518163ffffffff1660e01b815260040160a060405180830381865afa15801561083d573d6000803e3d6000fd5b505050506040513d601f19601f820116820180604052508101906108619190610c8b565b50929650919350915061087990506201518083610d11565b42111560405180604001604052806002815260200161343160f01b815250906108b55760405162461bcd60e51b815260040161021a9190610be3565b506040805180820190915260028152611a1960f11b602082015260008212156108f15760405162461bcd60e51b815260040161021a9190610be3565b509294929350919050565b600081831015610915576109108383610cdb565b6107f0565b6107f08284610cdb565b604080518082019091526002815261323560f01b6020820152600090826109595760405162461bcd60e51b815260040161021a9190610be3565b508260000361096a575060006107f3565b600061097e670de0b6b3a764000085610d24565b905061098a8382610d3b565b9150506107f3565b600060111960ff8316016109a75750816107f3565b601260ff831611156109da576109be601283610d5d565b6109c990600a610e5a565b6109d39084610d3b565b90506107f3565b6109e5826012610d5d565b6109f090600a610e5a565b6109d39084610d24565b606081600001805480602002602001604051908101604052809291908181526020018280548015610a4a57602002820191906000526020600020905b815481526020019060010190808311610a36575b50505050509050919050565b6000818152600183016020526040812054610a9d575081546001818101845560008481526020808220909301849055845484825282860190935260409020919091556107f3565b5060006107f3565b80356001600160a01b0381168114610abc57600080fd5b919050565b600060208284031215610ad357600080fd5b6107f082610aa5565b6020808252825182820181905260009190848201906040850190845b81811015610b1d5783516001600160a01b031683529284019291840191600101610af8565b50909695505050505050565b803567ffffffffffffffff81168114610abc57600080fd5b60008060008385036080811215610b5757600080fd5b610b6085610aa5565b9350610b6e60208601610aa5565b92506040603f1982011215610b8257600080fd5b506040516040810181811067ffffffffffffffff82111715610bb457634e487b7160e01b600052604160045260246000fd5b8060405250610bc560408601610b29565b8152610bd360608601610b29565b6020820152809150509250925092565b600060208083528351808285015260005b81811015610c1057858101830151858201604001528201610bf4565b506000604082860101526040601f19601f8301168501019250505092915050565b634e487b7160e01b600052601160045260246000fd5b69ffffffffffffffffffff828116828216039080821115610c6a57610c6a610c31565b5092915050565b805169ffffffffffffffffffff81168114610abc57600080fd5b600080600080600060a08688031215610ca357600080fd5b610cac86610c71565b9450602086015193506040860151925060608601519150610ccf60808701610c71565b90509295509295909350565b818103818111156107f3576107f3610c31565b600060208284031215610d0057600080fd5b815160ff811681146107d457600080fd5b808201808211156107f3576107f3610c31565b80820281158282048414176107f3576107f3610c31565b600082610d5857634e487b7160e01b600052601260045260246000fd5b500490565b60ff82811682821603908111156107f3576107f3610c31565b600181815b80851115610db1578160001904821115610d9757610d97610c31565b80851615610da457918102915b93841c9390800290610d7b565b509250929050565b600082610dc8575060016107f3565b81610dd5575060006107f3565b8160018114610deb5760028114610df557610e11565b60019150506107f3565b60ff841115610e0657610e06610c31565b50506001821b6107f3565b5060208310610133831016604e8410600b8410161715610e34575081810a6107f3565b610e3e8383610d76565b8060001904821115610e5257610e52610c31565b029392505050565b60006107f060ff841683610db956fea26469706673582212207c289350a1cd09b9be56d264935bcecc0f1b69dfab241580850fce93362d8e3c64736f6c63430008110033",
    "linkReferences": {}
  },
  "methodIdentifiers": {
    "MAX_LAG()": "14c1d37f",
    "acceptGovernance()": "238efcbc",
    "changeGovernor(address)": "e4c0aaf4",
    "feedMetas(address)": "4cbacc84",
    "feeds(address)": "2fba4aa9",
    "getPriceUSD(address)": "5708447d",
    "governor()": "0c340a24",
    "listSupportedAssets()": "5436ae9a",
    "pendingGovernor()": "e3056a34",
    "setFeed(address,address,(uint64,uint64))": "5462001e"
  },
  "id": 22
}