{
  "abi": [
    {
      "anonymous": false,
      "inputs": [
        {
          "indexed": false,
          "internalType": "uint64",
          "name": "alphaBar",
          "type": "uint64"
        },
        {
          "indexed": false,
          "internalType": "uint64",
          "name": "xuBar",
          "type": "uint64"
        },
        {
          "indexed": false,
          "internalType": "uint64",
          "name": "thetaBar",
          "type": "uint64"
        },
        {
          "indexed": false,
          "internalType": "uint64",
          "name": "outflowMemory",
          "type": "uint64"
        }
      ],
      "name": "SystemParamsUpdated",
      "type": "event"
    },
    {
      "inputs": [
        {
          "internalType": "uint256",
          "name": "usdAmount",
          "type": "uint256"
        },
        {
          "internalType": "uint256",
          "name": "",
          "type": "uint256"
        }
      ],
      "name": "computeMintAmount",
      "outputs": [
        {
          "internalType": "uint256",
          "name": "",
          "type": "uint256"
        }
      ],
      "stateMutability": "pure",
      "type": "function"
    },
    {
      "inputs": [
        {
          "internalType": "uint256",
          "name": "gydAmount",
          "type": "uint256"
        },
        {
          "internalType": "uint256",
          "name": "",
          "type": "uint256"
        }
      ],
      "name": "computeRedeemAmount",
      "outputs": [
        {
          "internalType": "uint256",
          "name": "",
          "type": "uint256"
        }
      ],
      "stateMutability": "pure",
      "type": "function"
    },
    {
      "inputs": [
        {
          "internalType": "uint256",
          "name": "usdAmount",
          "type": "uint256"
        },
        {
          "internalType": "uint256",
          "name": "",
          "type": "uint256"
        }
      ],
      "name": "mint",
      "outputs": [
        {
          "internalType": "uint256",
          "name": "",
          "type": "uint256"
        }
      ],
      "stateMutability": "pure",
      "type": "function"
    },
    {
      "inputs": [
        {
          "internalType": "uint256",
          "name": "gydAmount",
          "type": "uint256"
        },
        {
          "internalType": "uint256",
          "name": "",
          "type": "uint256"
        }
      ],
      "name": "redeem",
      "outputs": [
        {
          "internalType": "uint256",
          "name": "",
          "type": "uint256"
        }
      ],
      "stateMutability": "pure",
      "type": "function"
    },
    {
      "inputs": [
        {
          "components": [
            {
              "internalType": "uint64",
              "name": "alphaBar",
              "type": "uint64"
            },
            {
              "internalType": "uint64",
              "name": "xuBar",
              "type": "uint64"
            },
            {
              "internalType": "uint64",
              "name": "thetaBar",
              "type": "uint64"
            },
            {
              "internalType": "uint64",
              "name": "outflowMemory",
              "type": "uint64"
            }
          ],
          "internalType": "struct IPAMM.Params",
          "name": "params",
          "type": "tuple"
        }
      ],
      "name": "setSystemParams",
      "outputs": [],
      "stateMutability": "nonpayable",
      "type": "function"
    }
  ],
  "bytecode": {
    "object": "0x608060405234801561001057600080fd5b5061023a806100206000396000f3fe608060405234801561001057600080fd5b50600436106100575760003560e01c80631b2ef1ca1461005c578063616a1ed91461005c57806371db63ec146100815780637cbc2373146100815780639e59085414610094575b600080fd5b61006f61006a3660046100f3565b6100a7565b60405190815260200160405180910390f35b61006f61008f3660046100f3565b6100af565b6100a56100a2366004610132565b50565b005b815b92915050565b60006100c383670de444324c2a80006100ca565b9392505050565b6000806100d783856101bd565b90506100eb670de0b6b3a7640000826101e2565b949350505050565b6000806040838503121561010657600080fd5b50508035926020909101359150565b803567ffffffffffffffff8116811461012d57600080fd5b919050565b60006080828403121561014457600080fd5b6040516080810181811067ffffffffffffffff8211171561017557634e487b7160e01b600052604160045260246000fd5b60405261018183610115565b815261018f60208401610115565b60208201526101a060408401610115565b60408201526101b160608401610115565b60608201529392505050565b80820281158282048414176100a957634e487b7160e01b600052601160045260246000fd5b6000826101ff57634e487b7160e01b600052601260045260246000fd5b50049056fea26469706673582212202e0b6aeb36217f87b577266b7855aeef2d6d925268596ba5381b9577765a75d164736f6c63430008110033",
    "linkReferences": {}
  },
  "methodIdentifiers": {
    "computeMintAmount(uint256,uint256)": "616a1ed9",
    "computeRedeemAmount(uint256,uint256)": "71db63ec",
    "mint(uint256,uint256)": "1b2ef1ca",
    "redeem(uint256,uint256)": "7cbc2373",
    "setSystemParams((uint64,uint64,uint64,uint64))": "9e590854"
  },
  "id": 38
}