{
  "abi": [
    {
      "inputs": [
        {
          "internalType": "uint256[]",
          "name": "values",
          "type": "uint256[]"
        }
      ],
      "name": "profileSqrt",
      "outputs": [
        {
          "internalType": "uint256",
          "name": "sqrt",
          "type": "uint256"
        }
      ],
      "stateMutability": "nonpayable",
      "type": "function"
    }
  ],
  "bytecode": {
    "object": "0x608060405234801561001057600080fd5b50610caf806100206000396000f3fe608060405234801561001057600080fd5b506004361061002b5760003560e01c8063d38fb02a14610030575b600080fd5b61004361003e366004610b41565b610055565b60405190815260200160405180910390f35b6000805b828110156100965761008284848381811061007657610076610bb6565b9050602002013561009d565b91508061008e81610bcc565b915050610059565b5092915050565b60006100bb826100b66002670de0b6b3a7640000610c09565b6100c1565b92915050565b6000816000036100da5750670de0b6b3a76400006100bb565b826000036100ea575060006100bb565b604080518082019091526002815261032360f41b6020820152600160ff1b84106101305760405162461bcd60e51b81526004016101279190610c2b565b60405180910390fd5b50604080518082019091526002815261323160f01b60208201528390770bce5086492111aea88f4bb1ca6bcf584181ea8059f7653284106101845760405162461bcd60e51b81526004016101279190610c2b565b50826000670c7d713b49da0000831380156101a65750670f43fc2c04ee000083125b156101dd5760006101b684610266565b9050670de0b6b3a764000080820784020583670de0b6b3a7640000830502019150506101eb565b816101e784610385565b0290505b670de0b6b3a76400009005680238fd42c5cf03ffff198112801590610219575068070c1cc73b00c800008113155b60405180604001604052806002815260200161191960f11b815250906102525760405162461bcd60e51b81526004016101279190610c2b565b5061025c8161072f565b9695505050505050565b670de0b6b3a7640000026000806a0c097ce7bc90715b34b9f160241b808401906ec097ce7bc90715b34b9f0fffffffff19850102816102a7576102a7610bf3565b05905060006a0c097ce7bc90715b34b9f160241b82800205905081806a0c097ce7bc90715b34b9f160241b81840205915060038205016a0c097ce7bc90715b34b9f160241b82840205915060058205016a0c097ce7bc90715b34b9f160241b82840205915060078205016a0c097ce7bc90715b34b9f160241b82840205915060098205016a0c097ce7bc90715b34b9f160241b828402059150600b8205016a0c097ce7bc90715b34b9f160241b828402059150600d8205016a0c097ce7bc90715b34b9f160241b828402059150600f82050160020295945050505050565b6000670de0b6b3a76400008212156103c6576103bd826a0c097ce7bc90715b34b9f160241b816103b7576103b7610bf3565b05610385565b60000392915050565b60007e1600ef3172e58d2e933ec884fde10064c63b5372d805e203c0000000000000831261041757770195e54c5dd42177f53a27172fa9ec630262827000000000830592506806f05b59d3b2000000015b73011798004d755d3c8bc8e03204cf44619e000000831261044f576b1425982cf597cd205cef7380830592506803782dace9d9000000015b606492830292026e01855144814a7ff805980ff00840008312610497576e01855144814a7ff805980ff008400068056bc75e2d63100000840205925068ad78ebc5ac62000000015b6b02df0ab5a80a22c61ab5a70083126104d2576b02df0ab5a80a22c61ab5a70068056bc75e2d6310000084020592506856bc75e2d631000000015b693f1fce3da636ea5cf850831261050957693f1fce3da636ea5cf85068056bc75e2d631000008402059250682b5e3af16b18800000015b690127fa27722cc06cc5e2831261054057690127fa27722cc06cc5e268056bc75e2d6310000084020592506815af1d78b58c400000015b68280e60114edb805d0383126105755768280e60114edb805d0368056bc75e2d631000008402059250680ad78ebc5ac6200000015b680ebc5fb4174612111083126105a057680ebc5fb4174612111068056bc75e2d631000009384020592015b6808f00f760a4b2db55d83126105d5576808f00f760a4b2db55d68056bc75e2d6310000084020592506802b5e3af16b1880000015b6806f5f1775788937937831261060a576806f5f177578893793768056bc75e2d63100000840205925068015af1d78b58c40000015b6806248f33704b286603831261063e576806248f33704b28660368056bc75e2d63100000840205925067ad78ebc5ac620000015b6805c548670b9510e7ac8312610672576805c548670b9510e7ac68056bc75e2d6310000084020592506756bc75e2d6310000015b600068056bc75e2d63100000840168056bc75e2d63100000808603028161069b5761069b610bf3565b059050600068056bc75e2d63100000828002059050818068056bc75e2d63100000818402059150600382050168056bc75e2d63100000828402059150600582050168056bc75e2d63100000828402059150600782050168056bc75e2d63100000828402059150600982050168056bc75e2d63100000828402059150600b820501600202606485820105979650505050505050565b6000680238fd42c5cf03ffff198212158015610754575068070c1cc73b00c800008213155b60405180604001604052806002815260200161323360f01b8152509061078d5760405162461bcd60e51b81526004016101279190610c2b565b5060008212156107c6576107a38260000361072f565b6a0c097ce7bc90715b34b9f160241b816107bf576107bf610bf3565b0592915050565b60006806f05b59d3b2000000831261080657506806f05b59d3b1ffffff1990910190770195e54c5dd42177f53a27172fa9ec63026282700000000061083c565b6803782dace9d9000000831261083857506803782dace9d8ffffff19909101906b1425982cf597cd205cef738061083c565b5060015b6064929092029168056bc75e2d6310000068ad78ebc5ac62000000841261088c5768ad78ebc5ac61ffffff199093019268056bc75e2d631000006e01855144814a7ff805980ff008400082020590505b6856bc75e2d63100000084126108c8576856bc75e2d630ffffff199093019268056bc75e2d631000006b02df0ab5a80a22c61ab5a70082020590505b682b5e3af16b18800000841261090257682b5e3af16b187fffff199093019268056bc75e2d63100000693f1fce3da636ea5cf85082020590505b6815af1d78b58c400000841261093c576815af1d78b58c3fffff199093019268056bc75e2d63100000690127fa27722cc06cc5e282020590505b680ad78ebc5ac6200000841261097557680ad78ebc5ac61fffff199093019268056bc75e2d6310000068280e60114edb805d0382020590505b68056bc75e2d6310000084126109ae5768056bc75e2d630fffff199093019268056bc75e2d63100000680ebc5fb4174612111082020590505b6802b5e3af16b188000084126109e7576802b5e3af16b187ffff199093019268056bc75e2d631000006808f00f760a4b2db55d82020590505b68015af1d78b58c400008412610a205768015af1d78b58c3ffff199093019268056bc75e2d631000006806f5f177578893793782020590505b68056bc75e2d631000008481019085906002908280020505918201919050600368056bc75e2d631000008783020505918201919050600468056bc75e2d631000008783020505918201919050600568056bc75e2d631000008783020505918201919050600668056bc75e2d631000008783020505918201919050600768056bc75e2d631000008783020505918201919050600868056bc75e2d631000008783020505918201919050600968056bc75e2d631000008783020505918201919050600a68056bc75e2d631000008783020505918201919050600b68056bc75e2d631000008783020505918201919050600c68056bc75e2d631000008783020505918201919050606468056bc75e2d63100000848402058502059695505050505050565b60008060208385031215610b5457600080fd5b823567ffffffffffffffff80821115610b6c57600080fd5b818501915085601f830112610b8057600080fd5b813581811115610b8f57600080fd5b8660208260051b8501011115610ba457600080fd5b60209290920196919550909350505050565b634e487b7160e01b600052603260045260246000fd5b600060018201610bec57634e487b7160e01b600052601160045260246000fd5b5060010190565b634e487b7160e01b600052601260045260246000fd5b600082610c2657634e487b7160e01b600052601260045260246000fd5b500490565b600060208083528351808285015260005b81811015610c5857858101830151858201604001528201610c3c565b506000604082860101526040601f19601f830116850101925050509291505056fea2646970667358221220fdbf3b86409dccfd022cbbc7cafdeee58db9132f6821fa3ea9d94baffc13636d64736f6c63430008110033",
    "linkReferences": {}
  },
  "methodIdentifiers": {
    "profileSqrt(uint256[])": "d38fb02a"
  },
  "id": 58
}