{
  "abi": [
    {
      "inputs": [
        {
          "internalType": "address",
          "name": "_assetRegistry",
          "type": "address"
        },
        {
          "internalType": "address",
          "name": "_priceSigner",
          "type": "address"
        },
        {
          "internalType": "bool",
          "name": "_preventStalePrice",
          "type": "bool"
        }
      ],
      "stateMutability": "nonpayable",
      "type": "constructor"
    },
    {
      "anonymous": false,
      "inputs": [
        {
          "indexed": true,
          "internalType": "address",
          "name": "asset",
          "type": "address"
        },
        {
          "indexed": false,
          "internalType": "uint256",
          "name": "price",
          "type": "uint256"
        },
        {
          "indexed": false,
          "internalType": "uint256",
          "name": "timestamp",
          "type": "uint256"
        }
      ],
      "name": "PriceUpdated",
      "type": "event"
    },
    {
      "inputs": [],
      "name": "MAX_LAG",
      "outputs": [
        {
          "internalType": "uint256",
          "name": "",
          "type": "uint256"
        }
      ],
      "stateMutability": "view",
      "type": "function"
    },
    {
      "inputs": [],
      "name": "PRICE_DECIMALS",
      "outputs": [
        {
          "internalType": "uint8",
          "name": "",
          "type": "uint8"
        }
      ],
      "stateMutability": "view",
      "type": "function"
    },
    {
      "inputs": [],
      "name": "assetRegistry",
      "outputs": [
        {
          "internalType": "contract IAssetRegistry",
          "name": "",
          "type": "address"
        }
      ],
      "stateMutability": "view",
      "type": "function"
    },
    {
      "inputs": [
        {
          "internalType": "address",
          "name": "asset",
          "type": "address"
        }
      ],
      "name": "getLastUpdate",
      "outputs": [
        {
          "internalType": "uint256",
          "name": "",
          "type": "uint256"
        }
      ],
      "stateMutability": "view",
      "type": "function"
    },
    {
      "inputs": [
        {
          "internalType": "address",
          "name": "baseAsset",
          "type": "address"
        }
      ],
      "name": "getPriceUSD",
      "outputs": [
        {
          "internalType": "uint256",
          "name": "",
          "type": "uint256"
        }
      ],
      "stateMutability": "view",
      "type": "function"
    },
    {
      "inputs": [
        {
          "internalType": "bytes",
          "name": "message",
          "type": "bytes"
        },
        {
          "internalType": "bytes",
          "name": "signature",
          "type": "bytes"
        }
      ],
      "name": "postPrice",
      "outputs": [],
      "stateMutability": "nonpayable",
      "type": "function"
    },
    {
      "inputs": [
        {
          "components": [
            {
              "internalType": "bytes",
              "name": "message",
              "type": "bytes"
            },
            {
              "internalType": "bytes",
              "name": "signature",
              "type": "bytes"
            }
          ],
          "internalType": "struct TrustedSignerPriceOracle.SignedPrice[]",
          "name": "signedPrices",
          "type": "tuple[]"
        }
      ],
      "name": "postPrices",
      "outputs": [],
      "stateMutability": "nonpayable",
      "type": "function"
    },
    {
      "inputs": [],
      "name": "preventStalePrice",
      "outputs": [
        {
          "internalType": "bool",
          "name": "",
          "type": "bool"
        }
      ],
      "stateMutability": "view",
      "type": "function"
    },
    {
      "inputs": [
        {
          "components": [
            {
              "internalType": "bytes",
              "name": "message",
              "type": "bytes"
            },
            {
              "internalType": "bytes",
              "name": "signature",
              "type": "bytes"
            }
          ],
          "internalType": "struct TrustedSignerPriceOracle.SignedPrice[]",
          "name": "signedPrices",
          "type": "tuple[]"
        }
      ],
      "name": "profilePostPrice",
      "outputs": [],
      "stateMutability": "nonpayable",
      "type": "function"
    },
    {
      "inputs": [],
      "name": "trustedPriceSigner",
      "outputs": [
        {
          "internalType": "address",
          "name": "",
          "type": "address"
        }
      ],
      "stateMutability": "view",
      "type": "function"
    }
  ],
  "bytecode": {
    "object": "0x60c060405234801561001057600080fd5b50604051610f28380380610f2883398101604081905261002f91610074565b6001600160a01b0392831660a05291166080526001805460ff19169115159190911790556100c0565b80516001600160a01b038116811461006f57600080fd5b919050565b60008060006060848603121561008957600080fd5b61009284610058565b92506100a060208501610058565b9150604084015180151581146100b557600080fd5b809150509250925092565b60805160a051610e356100f36000396000818161017b015261050301526000818161013c015261047e0152610e356000f3fe608060405234801561001057600080fd5b506004361061009e5760003560e01c80637571fd2c116100665780637571fd2c14610137578063979d7e8614610176578063b4ca06471461019d578063c536917c146101b0578063f1a640f8146101c357600080fd5b8063031c8f55146100a357806314c1d37f146100b85780633ea8faac146100d45780635708447d146100f15780635a7e198914610104575b600080fd5b6100b66100b136600461085a565b6101dd565b005b6100c1610e1081565b6040519081526020015b60405180910390f35b6001546100e19060ff1681565b60405190151581526020016100cb565b6100c16100ff3660046108e7565b610296565b6100c16101123660046108e7565b6001600160a01b031660009081526020819052604090205467ffffffffffffffff1690565b61015e7f000000000000000000000000000000000000000000000000000000000000000081565b6040516001600160a01b0390911681526020016100cb565b61015e7f000000000000000000000000000000000000000000000000000000000000000081565b6100b66101ab36600461085a565b610392565b6100b66101be3660046109d0565b610460565b6101cb600681565b60405160ff90911681526020016100cb565b60005b8181101561029157368383838181106101fb576101fb610a34565b905060200281019061020d9190610a4a565b90503063c536917c61021f8380610a6a565b61022c6020860186610a6a565b6040518563ffffffff1660e01b815260040161024b9493929190610ae1565b600060405180830381600087803b15801561026557600080fd5b505af1158015610279573d6000803e3d6000fd5b5050505050808061028990610b29565b9150506101e0565b505050565b6001600160a01b03811660009081526020818152604080832081518083018352905467ffffffffffffffff8116808352600160401b9091046001600160801b03168285015282518084019093526002835261034360f41b938301939093529161031b5760405162461bcd60e51b81526004016103129190610b66565b60405180910390fd5b5060015460ff161561037f578051429061034290610e109067ffffffffffffffff16610b99565b101560405180604001604052806002815260200161343160f01b8152509061037d5760405162461bcd60e51b81526004016103129190610b66565b505b602001516001600160801b031692915050565b60005b8181101561029157368383838181106103b0576103b0610a34565b90506020028101906103c29190610a4a565b905061044d6103d18280610a6a565b8080601f016020809104026020016040519081016040528093929190818152602001838380828437600092019190915250610413925050506020840184610a6a565b8080601f01602080910402602001604051908101604052809392919081815260200183838082843760009201919091525061046e92505050565b508061045881610b29565b915050610395565b61046a828261046e565b5050565b600061047a83836106ab565b90507f00000000000000000000000000000000000000000000000000000000000000006001600160a01b0316816001600160a01b03161460405180604001604052806002815260200161343360f01b815250906104ea5760405162461bcd60e51b81526004016103129190610b66565b5060008060006104f986610790565b92509250925060007f00000000000000000000000000000000000000000000000000000000000000006001600160a01b0316637307ae55846040518263ffffffff1660e01b815260040161054d9190610b66565b602060405180830381865afa15801561056a573d6000803e3d6000fd5b505050506040513d601f19601f8201168201806040525081019061058e9190610bac565b6001600160a01b038116600090815260208190526040902080549192509067ffffffffffffffff16851180156105cf5750426105cc610e1087610b99565b10155b60405180604001604052806002815260200161343160f01b815250906106085760405162461bcd60e51b81526004016103129190610b66565b50600061061760066012610bc9565b61062290600a610cc6565b61062c9085610cd5565b825467ffffffffffffffff88166001600160c01b031990911617600160401b6001600160801b0383160217835560408051828152602081018990529192506001600160a01b038516917fb556fac599c3c70efb9ab1fa725ecace6c81cc48d1455f886607def065f3e0c0910160405180910390a2505050505050505050565b600080600080848060200190518101906106c59190610cec565b9250925092506000868051906020012060405160200161071191907f19457468657265756d205369676e6564204d6573736167653a0a3332000000008152601c810191909152603c0190565b60408051601f1981840301815282825280516020918201206000845290830180835281905260ff8516918301919091526060820186905260808201859052915060019060a0016020604051602081039080840390855afa158015610779573d6000803e3d6000fd5b505050602060405103519450505050505b92915050565b600060606000806000806000878060200190518101906107b09190610d78565b93509350935093506040516020016107d4906570726963657360d01b815260060190565b60405160208183030381529060405280519060200120846040516020016107fb9190610ded565b604051602081830303815290604052805190602001201460405180604001604052806002815260200161343360f01b8152509061084b5760405162461bcd60e51b81526004016103129190610b66565b50919790965090945092505050565b6000806020838503121561086d57600080fd5b823567ffffffffffffffff8082111561088557600080fd5b818501915085601f83011261089957600080fd5b8135818111156108a857600080fd5b8660208260051b85010111156108bd57600080fd5b60209290920196919550909350505050565b6001600160a01b03811681146108e457600080fd5b50565b6000602082840312156108f957600080fd5b8135610904816108cf565b9392505050565b634e487b7160e01b600052604160045260246000fd5b604051601f8201601f1916810167ffffffffffffffff8111828210171561094a5761094a61090b565b604052919050565b600067ffffffffffffffff82111561096c5761096c61090b565b50601f01601f191660200190565b600082601f83011261098b57600080fd5b813561099e61099982610952565b610921565b8181528460208386010111156109b357600080fd5b816020850160208301376000918101602001919091529392505050565b600080604083850312156109e357600080fd5b823567ffffffffffffffff808211156109fb57600080fd5b610a078683870161097a565b93506020850135915080821115610a1d57600080fd5b50610a2a8582860161097a565b9150509250929050565b634e487b7160e01b600052603260045260246000fd5b60008235603e19833603018112610a6057600080fd5b9190910192915050565b6000808335601e19843603018112610a8157600080fd5b83018035915067ffffffffffffffff821115610a9c57600080fd5b602001915036819003821315610ab157600080fd5b9250929050565b81835281816020850137506000828201602090810191909152601f909101601f19169091010190565b604081526000610af5604083018688610ab8565b8281036020840152610b08818587610ab8565b979650505050505050565b634e487b7160e01b600052601160045260246000fd5b600060018201610b3b57610b3b610b13565b5060010190565b60005b83811015610b5d578181015183820152602001610b45565b50506000910152565b6020815260008251806020840152610b85816040850160208701610b42565b601f01601f19169190910160400192915050565b8082018082111561078a5761078a610b13565b600060208284031215610bbe57600080fd5b8151610904816108cf565b60ff828116828216039081111561078a5761078a610b13565b600181815b80851115610c1d578160001904821115610c0357610c03610b13565b80851615610c1057918102915b93841c9390800290610be7565b509250929050565b600082610c345750600161078a565b81610c415750600061078a565b8160018114610c575760028114610c6157610c7d565b600191505061078a565b60ff841115610c7257610c72610b13565b50506001821b61078a565b5060208310610133831016604e8410600b8410161715610ca0575081810a61078a565b610caa8383610be2565b8060001904821115610cbe57610cbe610b13565b029392505050565b600061090460ff841683610c25565b808202811582820484141761078a5761078a610b13565b600080600060608486031215610d0157600080fd5b8351925060208401519150604084015160ff81168114610d2057600080fd5b809150509250925092565b600082601f830112610d3c57600080fd5b8151610d4a61099982610952565b818152846020838601011115610d5f57600080fd5b610d70826020830160208701610b42565b949350505050565b60008060008060808587031215610d8e57600080fd5b845167ffffffffffffffff80821115610da657600080fd5b610db288838901610d2b565b9550602087015194506040870151915080821115610dcf57600080fd5b50610ddc87828801610d2b565b606096909601519497939650505050565b60008251610a60818460208701610b4256fea26469706673582212206824733463b123a0f944d801e2a93bd3f5f303e97d744a100a2491a102375db264736f6c63430008110033",
    "linkReferences": {}
  },
  "methodIdentifiers": {
    "MAX_LAG()": "14c1d37f",
    "PRICE_DECIMALS()": "f1a640f8",
    "assetRegistry()": "979d7e86",
    "getLastUpdate(address)": "5a7e1989",
    "getPriceUSD(address)": "5708447d",
    "postPrice(bytes,bytes)": "c536917c",
    "postPrices((bytes,bytes)[])": "b4ca0647",
    "preventStalePrice()": "3ea8faac",
    "profilePostPrice((bytes,bytes)[])": "031c8f55",
    "trustedPriceSigner()": "7571fd2c"
  },
  "id": 58
}