{
  "abi": [
    {
      "inputs": [],
      "name": "ADD_OVERFLOW",
      "outputs": [
        {
          "internalType": "string",
          "name": "",
          "type": "string"
        }
      ],
      "stateMutability": "view",
      "type": "function"
    },
    {
      "inputs": [],
      "name": "AMOUNT_AND_PRICE_LENGTH_DIFFER",
      "outputs": [
        {
          "internalType": "string",
          "name": "",
          "type": "string"
        }
      ],
      "stateMutability": "view",
      "type": "function"
    },
    {
      "inputs": [],
      "name": "ASSET_NOT_SUPPORTED",
      "outputs": [
        {
          "internalType": "string",
          "name": "",
          "type": "string"
        }
      ],
      "stateMutability": "view",
      "type": "function"
    },
    {
      "inputs": [],
      "name": "A_VAULT_HAS_ALL_STABLECOINS_OFF_PEG",
      "outputs": [
        {
          "internalType": "string",
          "name": "",
          "type": "string"
        }
      ],
      "stateMutability": "view",
      "type": "function"
    },
    {
      "inputs": [],
      "name": "CALLER_NOT_MOTHERBOARD",
      "outputs": [
        {
          "internalType": "string",
          "name": "",
          "type": "string"
        }
      ],
      "stateMutability": "view",
      "type": "function"
    },
    {
      "inputs": [],
      "name": "CALLER_NOT_RESERVE_MANAGER",
      "outputs": [
        {
          "internalType": "string",
          "name": "",
          "type": "string"
        }
      ],
      "stateMutability": "view",
      "type": "function"
    },
    {
      "inputs": [],
      "name": "DIV_INTERNAL",
      "outputs": [
        {
          "internalType": "string",
          "name": "",
          "type": "string"
        }
      ],
      "stateMutability": "view",
      "type": "function"
    },
    {
      "inputs": [],
      "name": "EXCHANGER_NOT_FOUND",
      "outputs": [
        {
          "internalType": "string",
          "name": "",
          "type": "string"
        }
      ],
      "stateMutability": "view",
      "type": "function"
    },
    {
      "inputs": [],
      "name": "INSUFFICIENT_BALANCE",
      "outputs": [
        {
          "internalType": "string",
          "name": "",
          "type": "string"
        }
      ],
      "stateMutability": "view",
      "type": "function"
    },
    {
      "inputs": [],
      "name": "INVALID_ARGUMENT",
      "outputs": [
        {
          "internalType": "string",
          "name": "",
          "type": "string"
        }
      ],
      "stateMutability": "view",
      "type": "function"
    },
    {
      "inputs": [],
      "name": "INVALID_ASSET",
      "outputs": [
        {
          "internalType": "string",
          "name": "",
          "type": "string"
        }
      ],
      "stateMutability": "view",
      "type": "function"
    },
    {
      "inputs": [],
      "name": "INVALID_EXPONENT",
      "outputs": [
        {
          "internalType": "string",
          "name": "",
          "type": "string"
        }
      ],
      "stateMutability": "view",
      "type": "function"
    },
    {
      "inputs": [],
      "name": "INVALID_MESSAGE",
      "outputs": [
        {
          "internalType": "string",
          "name": "",
          "type": "string"
        }
      ],
      "stateMutability": "view",
      "type": "function"
    },
    {
      "inputs": [],
      "name": "INVALID_NUMBER_WEIGHTS",
      "outputs": [
        {
          "internalType": "string",
          "name": "",
          "type": "string"
        }
      ],
      "stateMutability": "view",
      "type": "function"
    },
    {
      "inputs": [],
      "name": "KEY_FROZEN",
      "outputs": [
        {
          "internalType": "string",
          "name": "",
          "type": "string"
        }
      ],
      "stateMutability": "view",
      "type": "function"
    },
    {
      "inputs": [],
      "name": "KEY_NOT_FOUND",
      "outputs": [
        {
          "internalType": "string",
          "name": "",
          "type": "string"
        }
      ],
      "stateMutability": "view",
      "type": "function"
    },
    {
      "inputs": [],
      "name": "MUL_OVERFLOW",
      "outputs": [
        {
          "internalType": "string",
          "name": "",
          "type": "string"
        }
      ],
      "stateMutability": "view",
      "type": "function"
    },
    {
      "inputs": [],
      "name": "NEGATIVE_PRICE",
      "outputs": [
        {
          "internalType": "string",
          "name": "",
          "type": "string"
        }
      ],
      "stateMutability": "view",
      "type": "function"
    },
    {
      "inputs": [],
      "name": "NOT_AUTHORIZED",
      "outputs": [
        {
          "internalType": "string",
          "name": "",
          "type": "string"
        }
      ],
      "stateMutability": "view",
      "type": "function"
    },
    {
      "inputs": [],
      "name": "NOT_ENOUGH_FLOW_DATA",
      "outputs": [
        {
          "internalType": "string",
          "name": "",
          "type": "string"
        }
      ],
      "stateMutability": "view",
      "type": "function"
    },
    {
      "inputs": [],
      "name": "NOT_ENOUGH_TWAPS",
      "outputs": [
        {
          "internalType": "string",
          "name": "",
          "type": "string"
        }
      ],
      "stateMutability": "view",
      "type": "function"
    },
    {
      "inputs": [],
      "name": "NOT_SAFE_TO_MINT",
      "outputs": [
        {
          "internalType": "string",
          "name": "",
          "type": "string"
        }
      ],
      "stateMutability": "view",
      "type": "function"
    },
    {
      "inputs": [],
      "name": "NOT_SAFE_TO_REDEEM",
      "outputs": [
        {
          "internalType": "string",
          "name": "",
          "type": "string"
        }
      ],
      "stateMutability": "view",
      "type": "function"
    },
    {
      "inputs": [],
      "name": "OPERATION_SUCCEEDS_BUT_SAFETY_MODE_ACTIVATED",
      "outputs": [
        {
          "internalType": "string",
          "name": "",
          "type": "string"
        }
      ],
      "stateMutability": "view",
      "type": "function"
    },
    {
      "inputs": [],
      "name": "ORACLE_GUARDIAN_TIME_LIMIT",
      "outputs": [
        {
          "internalType": "string",
          "name": "",
          "type": "string"
        }
      ],
      "stateMutability": "view",
      "type": "function"
    },
    {
      "inputs": [],
      "name": "OUT_OF_BOUNDS",
      "outputs": [
        {
          "internalType": "string",
          "name": "",
          "type": "string"
        }
      ],
      "stateMutability": "view",
      "type": "function"
    },
    {
      "inputs": [],
      "name": "POOL_IDS_NOT_FOUND",
      "outputs": [
        {
          "internalType": "string",
          "name": "",
          "type": "string"
        }
      ],
      "stateMutability": "view",
      "type": "function"
    },
    {
      "inputs": [],
      "name": "PRODUCT_OUT_OF_BOUNDS",
      "outputs": [
        {
          "internalType": "string",
          "name": "",
          "type": "string"
        }
      ],
      "stateMutability": "view",
      "type": "function"
    },
    {
      "inputs": [],
      "name": "REDEEM_AMOUNT_BUG",
      "outputs": [
        {
          "internalType": "string",
          "name": "",
          "type": "string"
        }
      ],
      "stateMutability": "view",
      "type": "function"
    },
    {
      "inputs": [],
      "name": "ROOT_PRICE_NOT_GROUNDED",
      "outputs": [
        {
          "internalType": "string",
          "name": "",
          "type": "string"
        }
      ],
      "stateMutability": "view",
      "type": "function"
    },
    {
      "inputs": [],
      "name": "SAFETY_MODE_ACTIVATED",
      "outputs": [
        {
          "internalType": "string",
          "name": "",
          "type": "string"
        }
      ],
      "stateMutability": "view",
      "type": "function"
    },
    {
      "inputs": [],
      "name": "STALE_PRICE",
      "outputs": [
        {
          "internalType": "string",
          "name": "",
          "type": "string"
        }
      ],
      "stateMutability": "view",
      "type": "function"
    },
    {
      "inputs": [],
      "name": "SUB_OVERFLOW",
      "outputs": [
        {
          "internalType": "string",
          "name": "",
          "type": "string"
        }
      ],
      "stateMutability": "view",
      "type": "function"
    },
    {
      "inputs": [],
      "name": "SUPPLY_CAP_EXCEEDED",
      "outputs": [
        {
          "internalType": "string",
          "name": "",
          "type": "string"
        }
      ],
      "stateMutability": "view",
      "type": "function"
    },
    {
      "inputs": [],
      "name": "TOKEN_AND_AMOUNTS_LENGTH_DIFFER",
      "outputs": [
        {
          "internalType": "string",
          "name": "",
          "type": "string"
        }
      ],
      "stateMutability": "view",
      "type": "function"
    },
    {
      "inputs": [],
      "name": "TOKEN_PRICES_TOO_SMALL",
      "outputs": [
        {
          "internalType": "string",
          "name": "",
          "type": "string"
        }
      ],
      "stateMutability": "view",
      "type": "function"
    },
    {
      "inputs": [],
      "name": "TOO_MUCH_SLIPPAGE",
      "outputs": [
        {
          "internalType": "string",
          "name": "",
          "type": "string"
        }
      ],
      "stateMutability": "view",
      "type": "function"
    },
    {
      "inputs": [],
      "name": "TOO_MUCH_VOLATILITY",
      "outputs": [
        {
          "internalType": "string",
          "name": "",
          "type": "string"
        }
      ],
      "stateMutability": "view",
      "type": "function"
    },
    {
      "inputs": [],
      "name": "TRYING_TO_REDEEM_MORE_THAN_VAULT_CONTAINS",
      "outputs": [
        {
          "internalType": "string",
          "name": "",
          "type": "string"
        }
      ],
      "stateMutability": "view",
      "type": "function"
    },
    {
      "inputs": [],
      "name": "VAULT_ALREADY_EXISTS",
      "outputs": [
        {
          "internalType": "string",
          "name": "",
          "type": "string"
        }
      ],
      "stateMutability": "view",
      "type": "function"
    },
    {
      "inputs": [],
      "name": "VAULT_FLOW_TOO_HIGH",
      "outputs": [
        {
          "internalType": "string",
          "name": "",
          "type": "string"
        }
      ],
      "stateMutability": "view",
      "type": "function"
    },
    {
      "inputs": [],
      "name": "VAULT_NOT_FOUND",
      "outputs": [
        {
          "internalType": "string",
          "name": "",
          "type": "string"
        }
      ],
      "stateMutability": "view",
      "type": "function"
    },
    {
      "inputs": [],
      "name": "WETH_ADDRESS_NOT_FIRST",
      "outputs": [
        {
          "internalType": "string",
          "name": "",
          "type": "string"
        }
      ],
      "stateMutability": "view",
      "type": "function"
    },
    {
      "inputs": [],
      "name": "WOULD_UNBALANCE_GYROSCOPE",
      "outputs": [
        {
          "internalType": "string",
          "name": "",
          "type": "string"
        }
      ],
      "stateMutability": "view",
      "type": "function"
    },
    {
      "inputs": [],
      "name": "X_OUT_OF_BOUNDS",
      "outputs": [
        {
          "internalType": "string",
          "name": "",
          "type": "string"
        }
      ],
      "stateMutability": "view",
      "type": "function"
    },
    {
      "inputs": [],
      "name": "Y_OUT_OF_BOUNDS",
      "outputs": [
        {
          "internalType": "string",
          "name": "",
          "type": "string"
        }
      ],
      "stateMutability": "view",
      "type": "function"
    },
    {
      "inputs": [],
      "name": "ZERO_DIVISION",
      "outputs": [
        {
          "internalType": "string",
          "name": "",
          "type": "string"
        }
      ],
      "stateMutability": "view",
      "type": "function"
    },
    {
      "inputs": [],
      "name": "ZERO_PRICE_TWAP",
      "outputs": [
        {
          "internalType": "string",
          "name": "",
          "type": "string"
        }
      ],
      "stateMutability": "view",
      "type": "function"
    }
  ],
  "bytecode": {
    "object": "0x61095261003a600b82828239805160001a60731461002d57634e487b7160e01b600052600060045260246000fd5b30600052607381538281f3fe73000000000000000000000000000000000000000030146080604052600436106102aa5760003560e01c80636096269f11610171578063a3672b8d116100d8578063ceed132c11610091578063ceed132c1461080a578063d5c1065e1461082b578063db3308c91461084c578063e32adbd21461086c578063f24881681461088d578063fe2cea69146108ad57600080fd5b8063a3672b8d14610744578063b051005414610765578063b6cc0ca114610786578063c1197b7c146107a7578063c8ac40b3146107c8578063cc4dfd4e146107e957600080fd5b806381d757411161012a57806381d75741146106a057806397b80d9e146106c1578063984d92f8146106e25780639a2460c0146107025780639cd6c6ab14610723578063a1e2599b146105fb57600080fd5b80636096269f146105da57806364b53ff2146105fb578063689c8d1b1461061c57806371e915091461063d5780637ce927011461065e578063819f81ea1461067f57600080fd5b80632f879403116102155780634eeecb26116101ce5780634eeecb261461051557806350b1f35614610536578063584d961514610557578063595630af146105785780635bc192e4146105995780635d9893e4146105b957600080fd5b80632f879403146104505780633d83866f1461047157806344bf5c581461049257806345c754b6146104b35780634827679d146104d35780634d66dfe8146104f357600080fd5b80631b86b7df116102675780631b86b7df1461038b57806320979386146103ac578063213bcfcd146103cd57806321c692a6146103ee578063259a0cde1461040f5780632a6ba3211461043057600080fd5b8063022a1a39146102af578063086781d6146102e65780630c11ceb0146103075780630dd829761461032857806315dc5bde1461034957806318ac32ca1461036a575b600080fd5b6102d060405180604001604052806002815260200161323560f01b81525081565b6040516102dd91906108ce565b60405180910390f35b6102d060405180604001604052806002815260200161199960f11b81525081565b6102d06040518060400160405280600281526020016106a760f31b81525081565b6102d060405180604001604052806002815260200161323160f01b81525081565b6102d060405180604001604052806002815260200161036360f41b81525081565b6102d060405180604001604052806002815260200161191960f11b81525081565b6102d060405180604001604052806002815260200161064760f31b81525081565b6102d060405180604001604052806002815260200161343360f01b81525081565b6102d060405180604001604052806002815260200161191b60f11b81525081565b6102d060405180604001604052806002815260200161323760f01b81525081565b6102d060405180604001604052806002815260200161353360f01b81525081565b6102d0604051806040016040528060018152602001603560f81b81525081565b6102d060405180604001604052806002815260200161353160f01b81525081565b6102d060405180604001604052806002815260200161033360f41b81525081565b6102d0604051806040016040528060028152602001610c8d60f21b81525081565b6102d0604051806040016040528060018152602001603360f81b81525081565b6102d0604051806040016040528060018152602001601b60f91b81525081565b6102d06040518060400160405280600381526020016203130360ec1b81525081565b6102d060405180604001604052806002815260200161034360f41b81525081565b6102d0604051806040016040528060028152602001610ccd60f21b81525081565b6102d060405180604001604052806002815260200161363160f01b81525081565b6102d0604051806040016040528060028152602001611a1b60f11b81525081565b6102d0604051806040016040528060018152602001603760f81b81525081565b6102d0604051806040016040528060028152602001611a9b60f11b81525081565b6102d060405180604001604052806002815260200161353760f01b81525081565b6102d0604051806040016040528060028152602001610d0d60f21b81525081565b6102d060405180604001604052806002815260200161032360f41b81525081565b6102d060405180604001604052806002815260200161068760f31b81525081565b6102d060405180604001604052806002815260200161343560f01b81525081565b6102d060405180604001604052806002815260200161323960f01b81525081565b6102d060405180604001604052806002815260200161363560f01b81525081565b6102d0604051806040016040528060028152602001610d4d60f21b81525081565b6102d0604051806040016040528060018152602001603160f81b81525081565b6102d0604051806040016040528060028152602001611b1960f11b81525081565b6102d060405180604001604052806002815260200161343160f01b81525081565b6102d060405180604001604052806002815260200161363360f01b81525081565b6102d0604051806040016040528060028152602001610d8d60f21b81525081565b6102d0604051806040016040528060028152602001611a1960f11b81525081565b6102d0604051806040016040528060028152602001611a9960f11b81525081565b6102d060405180604001604052806002815260200161333160f01b81525081565b6102d060405180604001604052806002815260200161333360f01b81525081565b6102d060405180604001604052806002815260200161333560f01b81525081565b6102d060405180604001604052806002815260200161323360f01b81525081565b6102d0604051806040016040528060018152602001600d60fa1b81525081565b6102d060405180604001604052806002815260200161343760f01b81525081565b6102d0604051806040016040528060018152602001601960f91b81525081565b6102d060405180604001604052806002815260200161353560f01b81525081565b600060208083528351808285015260005b818110156108fb578581018301518582016040015282016108df565b506000604082860101526040601f19601f830116850101925050509291505056fea26469706673582212204fc5e3f0f1b23a9b2f2dc879be2d7fbf3b3c3304e7a52b38fbd4cb3210a7dc2564736f6c63430008110033",
    "linkReferences": {}
  },
  "methodIdentifiers": {
    "ADD_OVERFLOW()": "213bcfcd",
    "AMOUNT_AND_PRICE_LENGTH_DIFFER()": "97b80d9e",
    "ASSET_NOT_SUPPORTED()": "4eeecb26",
    "A_VAULT_HAS_ALL_STABLECOINS_OFF_PEG()": "2f879403",
    "CALLER_NOT_MOTHERBOARD()": "6096269f",
    "CALLER_NOT_RESERVE_MANAGER()": "0c11ceb0",
    "DIV_INTERNAL()": "819f81ea",
    "EXCHANGER_NOT_FOUND()": "45c754b6",
    "INSUFFICIENT_BALANCE()": "50b1f356",
    "INVALID_ARGUMENT()": "c8ac40b3",
    "INVALID_ASSET()": "ceed132c",
    "INVALID_EXPONENT()": "d5c1065e",
    "INVALID_MESSAGE()": "20979386",
    "INVALID_NUMBER_WEIGHTS()": "71e91509",
    "KEY_FROZEN()": "cc4dfd4e",
    "KEY_NOT_FOUND()": "086781d6",
    "MUL_OVERFLOW()": "1b86b7df",
    "NEGATIVE_PRICE()": "b6cc0ca1",
    "NOT_AUTHORIZED()": "3d83866f",
    "NOT_ENOUGH_FLOW_DATA()": "a3672b8d",
    "NOT_ENOUGH_TWAPS()": "595630af",
    "NOT_SAFE_TO_MINT()": "c1197b7c",
    "NOT_SAFE_TO_REDEEM()": "259a0cde",
    "OPERATION_SUCCEEDS_BUT_SAFETY_MODE_ACTIVATED()": "584d9615",
    "ORACLE_GUARDIAN_TIME_LIMIT()": "9a2460c0",
    "OUT_OF_BOUNDS()": "44bf5c58",
    "POOL_IDS_NOT_FOUND()": "db3308c9",
    "PRODUCT_OUT_OF_BOUNDS()": "18ac32ca",
    "REDEEM_AMOUNT_BUG()": "4d66dfe8",
    "ROOT_PRICE_NOT_GROUNDED()": "7ce92701",
    "SAFETY_MODE_ACTIVATED()": "81d75741",
    "STALE_PRICE()": "9cd6c6ab",
    "SUB_OVERFLOW()": "21c692a6",
    "SUPPLY_CAP_EXCEEDED()": "b0510054",
    "TOKEN_AND_AMOUNTS_LENGTH_DIFFER()": "984d92f8",
    "TOKEN_PRICES_TOO_SMALL()": "fe2cea69",
    "TOO_MUCH_SLIPPAGE()": "f2488168",
    "TOO_MUCH_VOLATILITY()": "64b53ff2",
    "TRYING_TO_REDEEM_MORE_THAN_VAULT_CONTAINS()": "5d9893e4",
    "VAULT_ALREADY_EXISTS()": "4827679d",
    "VAULT_FLOW_TOO_HIGH()": "15dc5bde",
    "VAULT_NOT_FOUND()": "5bc192e4",
    "WETH_ADDRESS_NOT_FIRST()": "a1e2599b",
    "WOULD_UNBALANCE_GYROSCOPE()": "2a6ba321",
    "X_OUT_OF_BOUNDS()": "689c8d1b",
    "Y_OUT_OF_BOUNDS()": "0dd82976",
    "ZERO_DIVISION()": "022a1a39",
    "ZERO_PRICE_TWAP()": "e32adbd2"
  },
  "id": 158
}