{"bytecode":"6101006040523480156200001257600080fd5b5060405162001ff638038062001ff683398101604081905262000035916200035f565b600080546001600160a01b0319166001600160a01b038416908117825560408051928352602083019190915283917fde4b3f61490b74c0ed6237523974fe299126bbbf8a8a7482fd220104c59b0c84910160405180910390a150620000ae816001600160a01b03166200026160201b620010121760201c565b6001600160a01b03166080816001600160a01b031681525050620000e6816001600160a01b0316620002f660201b6200109d1760201c565b6001600160a01b0390811660a0526040516321f8a72160e01b81526e524553455256455f4144445245535360881b6004820152908216906321f8a72190602401602060405180830381865afa15801562000144573d6000803e3d6000fd5b505050506040513d601f19601f820116820180604052508101906200016a91906200039e565b6001600160a01b0390811660c052608051604080518082019091526002815261333160f01b60208201529116620001bf5760405162461bcd60e51b8152600401620001b69190620003c5565b60405180910390fd5b5060a051604080518082019091526002815261333160f01b6020820152906001600160a01b0316620002065760405162461bcd60e51b8152600401620001b69190620003c5565b5060c051604080518082019091526002815261333160f01b6020820152906001600160a01b03166200024d5760405162461bcd60e51b8152600401620001b69190620003c5565b506001600160a01b031660e052506200041d565b6040516321f8a72160e01b81527f5641554c545f52454749535452595f414444524553530000000000000000000060048201526000906001600160a01b038316906321f8a721906024015b602060405180830381865afa158015620002ca573d6000803e3d6000fd5b505050506040513d601f19601f82011682018060405250810190620002f091906200039e565b92915050565b6040516321f8a72160e01b81527f41535345545f52454749535452595f414444524553530000000000000000000060048201526000906001600160a01b038316906321f8a72190602401620002ac565b6001600160a01b03811681146200035c57600080fd5b50565b600080604083850312156200037357600080fd5b8251620003808162000346565b6020840151909250620003938162000346565b809150509250929050565b600060208284031215620003b157600080fd5b8151620003be8162000346565b9392505050565b600060208083528351808285015260005b81811015620003f457858101830151858201604001528201620003d6565b8181111562000407576000604083870101525b50601f01601f1916929092016040019392505050565b60805160a05160c05160e051611b6f620004876000396000818160e20152610be40152600081816101a501526107b101526000818161011c0152610955015260008181610143015281816102fe0152818161041d0152818161057001526106c60152611b6f6000f3fe608060405234801561001057600080fd5b506004361061009e5760003560e01c8063cdd7b38a11610066578063cdd7b38a1461013e578063e3056a3414610165578063e4c0aaf414610178578063ef5bac251461018b578063f79ed94b146101a057600080fd5b80630c340a24146100a3578063238efcbc146100d357806344bbdb55146100dd5780637eca5f7c14610104578063979d7e8614610117575b600080fd5b6000546100b6906001600160a01b031681565b6040516001600160a01b0390911681526020015b60405180910390f35b6100db6101c7565b005b6100b67f000000000000000000000000000000000000000000000000000000000000000081565b6100db6101123660046112eb565b610280565b6100b67f000000000000000000000000000000000000000000000000000000000000000081565b6100b67f000000000000000000000000000000000000000000000000000000000000000081565b6001546100b6906001600160a01b031681565b6100db610186366004611326565b610482565b610193610557565b6040516100ca919061149b565b6100b67f000000000000000000000000000000000000000000000000000000000000000081565b600154604080518082019091526002815261033360f41b6020820152906001600160a01b031633146102155760405162461bcd60e51b815260040161020c91906114c0565b60405180910390fd5b5060008054600180546001600160a01b03198084166001600160a01b03808416919091179095551690556040805192909116808352336020840152917fde4b3f61490b74c0ed6237523974fe299126bbbf8a8a7482fd220104c59b0c8491015b60405180910390a150565b600054604080518082019091526002815261033360f41b6020820152906001600160a01b031633146102c55760405162461bcd60e51b815260040161020c91906114c0565b5060408051608081018252600081526020810185905280820184905260608101839052905163e746401560e01b81526001600160a01b037f0000000000000000000000000000000000000000000000000000000000000000169063e7464015906103359088908590600401611515565b600060405180830381600087803b15801561034f57600080fd5b505af1158015610363573d6000803e3d6000fd5b505050506000610371610557565b90506000805b8260200151518110156103f657876001600160a01b0316836020015182815181106103a4576103a4611553565b6020026020010151600001516001600160a01b031614156103e457826020015181815181106103d5576103d5611553565b60200260200101516060015191505b806103ee8161157f565b915050610377565b50604051634af28b8d60e11b81526001600160a01b038881166004830152602482018390527f000000000000000000000000000000000000000000000000000000000000000016906395e5171a90604401600060405180830381600087803b15801561046157600080fd5b505af1158015610475573d6000803e3d6000fd5b5050505050505050505050565b600054604080518082019091526002815261033360f41b6020820152906001600160a01b031633146104c75760405162461bcd60e51b815260040161020c91906114c0565b50604080518082019091526002815261333160f01b60208201526001600160a01b0382166105085760405162461bcd60e51b815260040161020c91906114c0565b50600180546001600160a01b0319166001600160a01b0383169081179091556040519081527f67235ba2e63c748a35b95c4f92a3bbc2a1389938170a5ce6c9add5d0b03a314a90602001610275565b60408051808201909152600081526060602082015260007f00000000000000000000000000000000000000000000000000000000000000006001600160a01b03166350cc258e6040518163ffffffff1660e01b8152600401600060405180830381865afa1580156105cc573d6000803e3d6000fd5b505050506040513d6000823e601f3d908101601f191682016040526105f49190810190611662565b9050600081511160405180604001604052806002815260200161333160f01b815250906106345760405162461bcd60e51b815260040161020c91906114c0565b50805160008167ffffffffffffffff8111156106525761065261159a565b60405190808252806020026020018201604052801561068b57816020015b610678611249565b8152602001906001900390816106705790505b50905060005b82811015610bde576106c46040518060800160405280600081526020016000815260200160008152602001600081525090565b7f00000000000000000000000000000000000000000000000000000000000000006001600160a01b031663dc4f1e4986848151811061070557610705611553565b60200260200101516040518263ffffffff1660e01b815260040161073891906001600160a01b0391909116815260200190565b608060405180830381865afa158015610755573d6000803e3d6000fd5b505050506040513d601f19601f820116820180604052508101906107799190611767565b9050600085838151811061078f5761078f611553565b60209081029190910101516040516370a0823160e01b81526001600160a01b037f000000000000000000000000000000000000000000000000000000000000000081166004830152909116906370a0823190602401602060405180830381865afa158015610801573d6000803e3d6000fd5b505050506040513d601f19601f820116820180604052508101906108259190611783565b9050600086848151811061083b5761083b611553565b60200260200101516001600160a01b031663aa6ca8086040518163ffffffff1660e01b8152600401600060405180830381865afa158015610880573d6000803e3d6000fd5b505050506040513d6000823e601f3d908101601f191682016040526108a8919081019061179c565b90506000815167ffffffffffffffff8111156108c6576108c661159a565b60405190808252806020026020018201604052801561091157816020015b60408051606081018252600080825260208083018290529282015282526000199092019101816108e45790505b50905060005b8251811015610a4457604051806060016040528084838151811061093d5761093d611553565b60200260200101516001600160a01b031681526020017f00000000000000000000000000000000000000000000000000000000000000006001600160a01b0316634976c58886858151811061099457610994611553565b60200260200101516040518263ffffffff1660e01b81526004016109c791906001600160a01b0391909116815260200190565b602060405180830381865afa1580156109e4573d6000803e3d6000fd5b505050506040513d601f19601f82011682018060405250810190610a08919061183b565b151581526020016000815250828281518110610a2657610a26611553565b60200260200101819052508080610a3c9061157f565b915050610917565b50604051806101200160405280898781518110610a6357610a63611553565b60200260200101516001600160a01b03168152602001898781518110610a8b57610a8b611553565b60200260200101516001600160a01b031663313ce5676040518163ffffffff1660e01b8152600401602060405180830381865afa158015610ad0573d6000803e3d6000fd5b505050506040513d601f19601f82011682018060405250810190610af49190611867565b60ff168152602001898781518110610b0e57610b0e611553565b60200260200101516001600160a01b0316636f307dc36040518163ffffffff1660e01b8152600401602060405180830381865afa158015610b53573d6000803e3d6000fd5b505050506040513d601f19601f82011682018060405250810190610b779190611882565b6001600160a01b0316815260200160008152602001858152602001848152602001600081526020016000815260200182815250868681518110610bbc57610bbc611553565b6020026020010181905250505050508080610bd69061157f565b915050610691565b50610c117f00000000000000000000000000000000000000000000000000000000000000006001600160a01b03166110e5565b6001600160a01b031663ccda1ef7826040518263ffffffff1660e01b8152600401610c3c919061189f565b600060405180830381865afa158015610c59573d6000803e3d6000fd5b505050506040513d6000823e601f3d908101601f19168201604052610c819190810190611956565b90506000808367ffffffffffffffff811115610c9f57610c9f61159a565b604051908082528060200260200182016040528015610cc8578160200160208202803683370190505b50905060005b84811015610d65576000610d25858381518110610ced57610ced611553565b602002602001015160a00151868481518110610d0b57610d0b611553565b60200260200101516060015161113490919063ffffffff16565b905080838381518110610d3a57610d3a611553565b6020908102919091010152610d4f8185611ab3565b9350508080610d5d9061157f565b915050610cce565b5060005b84811015610dfe578215610da857610da383838381518110610d8d57610d8d611553565b602002602001015161115d90919063ffffffff16565b610dcb565b838181518110610dba57610dba611553565b602002602001015160800151602001515b848281518110610ddd57610ddd611553565b602090810291909101015160c0015280610df68161157f565b915050610d69565b506000808567ffffffffffffffff811115610e1b57610e1b61159a565b604051908082528060200260200182016040528015610e44578160200160208202803683370190505b50905060005b86811015610f3b576000868281518110610e6657610e66611553565b6020026020010151608001516000015190508060001415610e875750610f29565b610ee2878381518110610e9c57610e9c611553565b60200260200101516080015160200151610edc838a8681518110610ec257610ec2611553565b60200260200101516060015161115d90919063ffffffff16565b90611134565b838381518110610ef457610ef4611553565b602002602001018181525050828281518110610f1257610f12611553565b602002602001015184610f259190611ab3565b9350505b80610f338161157f565b915050610e4a565b508115610ff1576000805b87811015610fee576000610f7c85858481518110610f6657610f66611553565b60200260200101516111cd90919063ffffffff16565b9050670de0b6b3a7640000610f918285611ab3565b1115610fac57610fa983670de0b6b3a7640000611acb565b90505b80888381518110610fbf57610fbf611553565b602090810291909101015160e00152610fd88184611ab3565b9250508080610fe69061157f565b915050610f46565b50505b60405180604001604052808581526020018681525097505050505050505090565b6040516321f8a72160e01b8152755641554c545f52454749535452595f4144445245535360501b60048201526000906001600160a01b038316906321f8a721906024015b602060405180830381865afa158015611073573d6000803e3d6000fd5b505050506040513d601f19601f820116820180604052508101906110979190611882565b92915050565b6040516321f8a72160e01b81527541535345545f52454749535452595f4144445245535360501b60048201526000906001600160a01b038316906321f8a72190602401611056565b6040516321f8a72160e01b81527f524f4f545f50524943455f4f5241434c455f414444524553530000000000000060048201526000906001600160a01b038316906321f8a72190602401611056565b6000806111418385611ae2565b9050611155670de0b6b3a764000082611b17565b949350505050565b604080518082019091526002815261323560f01b6020820152600090826111975760405162461bcd60e51b815260040161020c91906114c0565b50826111a557506000611097565b60006111b9670de0b6b3a764000085611ae2565b90506111c58382611b17565b915050611097565b604080518082019091526002815261323560f01b6020820152600090826112075760405162461bcd60e51b815260040161020c91906114c0565b508261121557506000611097565b6000611229670de0b6b3a764000085611ae2565b905082600182038161123d5761123d611b01565b04600101915050611097565b60405180610120016040528060006001600160a01b03168152602001600060ff16815260200160006001600160a01b03168152602001600081526020016112b16040518060800160405280600081526020016000815260200160008152602001600081525090565b8152602001600081526020016000815260200160008152602001606081525090565b6001600160a01b03811681146112e857600080fd5b50565b6000806000806080858703121561130157600080fd5b843561130c816112d3565b966020860135965060408601359560600135945092505050565b60006020828403121561133857600080fd5b8135611343816112d3565b9392505050565b600081518084526020808501945080840160005b8381101561139b57815180516001600160a01b0316885283810151151584890152604090810151908801526060909601959082019060010161135e565b509495945050505050565b600081518084526020808501808196508360051b8101915082860160005b8581101561148e578284038952815180516001600160a01b031685526101808187015160ff811687890152506040828101516001600160a01b038116888301525050606082810151878201526080808401518051828a0152602081015160a08a0152604081015160c08a01529182015160e089015290505060a0820151610100818189015260c084015161012089015260e084015161014089015280840151935050508061016087015261147a8187018361134a565b9a87019a95505050908401906001016113c4565b5091979650505050505050565b60208152815160208201526000602083015160408084015261115560608401826113a6565b600060208083528351808285015260005b818110156114ed578581018301518582016040015282016114d1565b818111156114ff576000604083870101525b50601f01601f1916929092016040019392505050565b6001600160a01b038316815260a081016113436020830184805182526020810151602083015260408101516040830152606081015160608301525050565b634e487b7160e01b600052603260045260246000fd5b634e487b7160e01b600052601160045260246000fd5b600060001982141561159357611593611569565b5060010190565b634e487b7160e01b600052604160045260246000fd5b6040516060810167ffffffffffffffff811182821017156115d3576115d361159a565b60405290565b604051610120810167ffffffffffffffff811182821017156115d3576115d361159a565b604051601f8201601f1916810167ffffffffffffffff811182821017156116265761162661159a565b604052919050565b600067ffffffffffffffff8211156116485761164861159a565b5060051b60200190565b805161165d816112d3565b919050565b6000602080838503121561167557600080fd5b825167ffffffffffffffff81111561168c57600080fd5b8301601f8101851361169d57600080fd5b80516116b06116ab8261162e565b6115fd565b81815260059190911b820183019083810190878311156116cf57600080fd5b928401925b828410156116f65783516116e7816112d3565b825292840192908401906116d4565b979650505050505050565b60006080828403121561171357600080fd5b6040516080810181811067ffffffffffffffff821117156117365761173661159a565b8060405250809150825181526020830151602082015260408301516040820152606083015160608201525092915050565b60006080828403121561177957600080fd5b6113438383611701565b60006020828403121561179557600080fd5b5051919050565b600060208083850312156117af57600080fd5b825167ffffffffffffffff8111156117c657600080fd5b8301601f810185136117d757600080fd5b80516117e56116ab8261162e565b81815260059190911b8201830190838101908783111561180457600080fd5b928401925b828410156116f657835161181c816112d3565b82529284019290840190611809565b8051801515811461165d57600080fd5b60006020828403121561184d57600080fd5b6113438261182b565b805160ff8116811461165d57600080fd5b60006020828403121561187957600080fd5b61134382611856565b60006020828403121561189457600080fd5b8151611343816112d3565b60208152600061134360208301846113a6565b600082601f8301126118c357600080fd5b815160206118d36116ab8361162e565b828152606092830285018201928282019190878511156118f257600080fd5b8387015b858110156119495781818a03121561190e5760008081fd5b6119166115b0565b8151611921816112d3565b815261192e82870161182b565b818701526040828101519082015284529284019281016118f6565b5090979650505050505050565b6000602080838503121561196957600080fd5b825167ffffffffffffffff8082111561198157600080fd5b818501915085601f83011261199557600080fd5b81516119a36116ab8261162e565b81815260059190911b830184019084810190888311156119c257600080fd5b8585015b83811015611aa6578051858111156119de5760008081fd5b8601610180818c03601f19018113156119f75760008081fd5b6119ff6115d9565b611a0a8a8401611652565b81526040611a19818501611856565b8b8301526060611a2a818601611652565b828401526080915081850151818401525060a0611a498f828701611701565b8284015261012085015181840152505061014083015160c082015261016083015160e082015281830151915087821115611a835760008081fd5b611a918d8b848601016118b2565b610100820152855250509186019186016119c6565b5098975050505050505050565b60008219821115611ac657611ac6611569565b500190565b600082821015611add57611add611569565b500390565b6000816000190483118215151615611afc57611afc611569565b500290565b634e487b7160e01b600052601260045260246000fd5b600082611b3457634e487b7160e01b600052601260045260246000fd5b50049056fea26469706673582212206b7a2ebb8e70b49a09cf14906bd6fbe2bcb3eb0bb088d0501d658f98ea866fcc64736f6c634300080a0033","bytecodeSha1":"0b7393f6e6fd82915ac10fa2dec17c5e65aab019","type":"contract","abi":[{"inputs":[{"internalType":"address","name":"governor","type":"address"},{"internalType":"contract IGyroConfig","name":"_gyroConfig","type":"address"}],"stateMutability":"nonpayable","type":"constructor","name":"constructor"},{"anonymous":false,"inputs":[{"indexed":false,"internalType":"address","name":"newGovernor","type":"address"}],"name":"GovernorChangeRequested","type":"event"},{"anonymous":false,"inputs":[{"indexed":false,"internalType":"address","name":"oldGovernor","type":"address"},{"indexed":false,"internalType":"address","name":"newGovernor","type":"address"}],"name":"GovernorChanged","type":"event"},{"anonymous":false,"inputs":[{"indexed":true,"internalType":"address","name":"oldOracle","type":"address"},{"indexed":true,"internalType":"address","name":"newOracle","type":"address"}],"name":"NewPriceOracle","type":"event"},{"anonymous":false,"inputs":[{"indexed":true,"internalType":"address","name":"oldManager","type":"address"},{"indexed":true,"internalType":"address","name":"newManager","type":"address"}],"name":"NewVaultWeightManager","type":"event"},{"inputs":[],"name":"acceptGovernance","outputs":[],"stateMutability":"nonpayable","type":"function"},{"inputs":[],"name":"assetRegistry","outputs":[{"internalType":"contract IAssetRegistry","name":"","type":"address"}],"stateMutability":"view","type":"function"},{"inputs":[{"internalType":"address","name":"newGovernor","type":"address"}],"name":"changeGovernor","outputs":[],"stateMutability":"nonpayable","type":"function"},{"inputs":[],"name":"getReserveState","outputs":[{"components":[{"internalType":"uint256","name":"totalUSDValue","type":"uint256"},{"components":[{"internalType":"address","name":"vault","type":"address"},{"internalType":"uint8","name":"decimals","type":"uint8"},{"internalType":"address","name":"underlying","type":"address"},{"internalType":"uint256","name":"price","type":"uint256"},{"components":[{"internalType":"uint256","name":"initialPrice","type":"uint256"},{"internalType":"uint256","name":"initialWeight","type":"uint256"},{"internalType":"uint256","name":"shortFlowMemory","type":"uint256"},{"internalType":"uint256","name":"shortFlowThreshold","type":"uint256"}],"internalType":"struct DataTypes.PersistedVaultMetadata","name":"persistedMetadata","type":"tuple"},{"internalType":"uint256","name":"reserveBalance","type":"uint256"},{"internalType":"uint256","name":"currentWeight","type":"uint256"},{"internalType":"uint256","name":"idealWeight","type":"uint256"},{"components":[{"internalType":"address","name":"tokenAddress","type":"address"},{"internalType":"bool","name":"isStable","type":"bool"},{"internalType":"uint256","name":"price","type":"uint256"}],"internalType":"struct DataTypes.PricedToken[]","name":"pricedTokens","type":"tuple[]"}],"internalType":"struct DataTypes.VaultInfo[]","name":"vaults","type":"tuple[]"}],"internalType":"struct DataTypes.ReserveState","name":"","type":"tuple"}],"stateMutability":"view","type":"function"},{"inputs":[],"name":"governor","outputs":[{"internalType":"address","name":"","type":"address"}],"stateMutability":"view","type":"function"},{"inputs":[],"name":"gyroConfig","outputs":[{"internalType":"contract IGyroConfig","name":"","type":"address"}],"stateMutability":"view","type":"function"},{"inputs":[],"name":"pendingGovernor","outputs":[{"internalType":"address","name":"","type":"address"}],"stateMutability":"view","type":"function"},{"inputs":[{"internalType":"address","name":"_addressOfVault","type":"address"},{"internalType":"uint256","name":"initialWeight","type":"uint256"},{"internalType":"uint256","name":"shortFlowMemory","type":"uint256"},{"internalType":"uint256","name":"shortFlowThreshold","type":"uint256"}],"name":"registerVault","outputs":[],"stateMutability":"nonpayable","type":"function"},{"inputs":[],"name":"reserveAddress","outputs":[{"internalType":"address","name":"","type":"address"}],"stateMutability":"view","type":"function"},{"inputs":[],"name":"vaultRegistry","outputs":[{"internalType":"contract IVaultRegistry","name":"","type":"address"}],"stateMutability":"view","type":"function"}],"compiler":{"version":"0.8.10+commit.fc410830","evm_version":"london","optimizer":{"enabled":true,"runs":200}},"contractName":"ReserveManager","language":"Solidity","natspec":{"methods":{"acceptGovernance()":{"notice":"Called by the pending governor to approve the change"},"changeGovernor(address)":{"notice":"Changes the governor can only be called by the current governor"},"getReserveState()":{"notice":"Returns a list of vaults including metadata such as price and weights"},"pendingGovernor()":{"notice":"Returns the pending governor"},"governor()":{"notice":"Returns the current governor"}},"kind":"dev","version":1},"opcodes":"PUSH1 0x80 PUSH1 0x40 MSTORE CALLVALUE DUP1 ISZERO PUSH2 0x10 JUMPI PUSH1 0x0 DUP1 REVERT JUMPDEST POP PUSH1 0x4 CALLDATASIZE LT PUSH2 0x9E JUMPI PUSH1 0x0 CALLDATALOAD PUSH1 0xE0 SHR DUP1 PUSH4 0xCDD7B38A GT PUSH2 0x66 JUMPI DUP1 PUSH4 0xCDD7B38A EQ PUSH2 0x13E JUMPI DUP1 PUSH4 0xE3056A34 EQ PUSH2 0x165 JUMPI DUP1 PUSH4 0xE4C0AAF4 EQ PUSH2 0x178 JUMPI DUP1 PUSH4 0xEF5BAC25 EQ PUSH2 0x18B JUMPI DUP1 PUSH4 0xF79ED94B EQ PUSH2 0x1A0 JUMPI PUSH1 0x0 DUP1 REVERT JUMPDEST DUP1 PUSH4 0xC340A24 EQ PUSH2 0xA3 JUMPI DUP1 PUSH4 0x238EFCBC EQ PUSH2 0xD3 JUMPI DUP1 PUSH4 0x44BBDB55 EQ PUSH2 0xDD JUMPI DUP1 PUSH4 0x7ECA5F7C EQ PUSH2 0x104 JUMPI DUP1 PUSH4 0x979D7E86 EQ PUSH2 0x117 JUMPI JUMPDEST PUSH1 0x0 DUP1 REVERT JUMPDEST PUSH1 0x0 SLOAD PUSH2 0xB6 SWAP1 PUSH1 0x1 PUSH1 0x1 PUSH1 0xA0 SHL SUB AND DUP2 JUMP JUMPDEST PUSH1 0x40 MLOAD PUSH1 0x1 PUSH1 0x1 PUSH1 0xA0 SHL SUB SWAP1 SWAP2 AND DUP2 MSTORE PUSH1 0x20 ADD JUMPDEST PUSH1 0x40 MLOAD DUP1 SWAP2 SUB SWAP1 RETURN JUMPDEST PUSH2 0xDB PUSH2 0x1C7 JUMP JUMPDEST STOP JUMPDEST PUSH2 0xB6 PUSH32 0x0 DUP2 JUMP JUMPDEST PUSH2 0xDB PUSH2 0x112 CALLDATASIZE PUSH1 0x4 PUSH2 0x12EB JUMP JUMPDEST PUSH2 0x280 JUMP JUMPDEST PUSH2 0xB6 PUSH32 0x0 DUP2 JUMP JUMPDEST PUSH2 0xB6 PUSH32 0x0 DUP2 JUMP JUMPDEST PUSH1 0x1 SLOAD PUSH2 0xB6 SWAP1 PUSH1 0x1 PUSH1 0x1 PUSH1 0xA0 SHL SUB AND DUP2 JUMP JUMPDEST PUSH2 0xDB PUSH2 0x186 CALLDATASIZE PUSH1 0x4 PUSH2 0x1326 JUMP JUMPDEST PUSH2 0x482 JUMP JUMPDEST PUSH2 0x193 PUSH2 0x557 JUMP JUMPDEST PUSH1 0x40 MLOAD PUSH2 0xCA SWAP2 SWAP1 PUSH2 0x149B JUMP JUMPDEST PUSH2 0xB6 PUSH32 0x0 DUP2 JUMP JUMPDEST PUSH1 0x1 SLOAD PUSH1 0x40 DUP1 MLOAD DUP1 DUP3 ADD SWAP1 SWAP2 MSTORE PUSH1 0x2 DUP2 MSTORE PUSH2 0x333 PUSH1 0xF4 SHL PUSH1 0x20 DUP3 ADD MSTORE SWAP1 PUSH1 0x1 PUSH1 0x1 PUSH1 0xA0 SHL SUB AND CALLER EQ PUSH2 0x215 JUMPI PUSH1 0x40 MLOAD PUSH3 0x461BCD PUSH1 0xE5 SHL DUP2 MSTORE PUSH1 0x4 ADD PUSH2 0x20C SWAP2 SWAP1 PUSH2 0x14C0 JUMP JUMPDEST PUSH1 0x40 MLOAD DUP1 SWAP2 SUB SWAP1 REVERT JUMPDEST POP PUSH1 0x0 DUP1 SLOAD PUSH1 0x1 DUP1 SLOAD PUSH1 0x1 PUSH1 0x1 PUSH1 0xA0 SHL SUB NOT DUP1 DUP5 AND PUSH1 0x1 PUSH1 0x1 PUSH1 0xA0 SHL SUB DUP1 DUP5 AND SWAP2 SWAP1 SWAP2 OR SWAP1 SWAP6 SSTORE AND SWAP1 SSTORE PUSH1 0x40 DUP1 MLOAD SWAP3 SWAP1 SWAP2 AND DUP1 DUP4 MSTORE CALLER PUSH1 0x20 DUP5 ADD MSTORE SWAP2 PUSH32 0xDE4B3F61490B74C0ED6237523974FE299126BBBF8A8A7482FD220104C59B0C84 SWAP2 ADD JUMPDEST PUSH1 0x40 MLOAD DUP1 SWAP2 SUB SWAP1 LOG1 POP JUMP JUMPDEST PUSH1 0x0 SLOAD PUSH1 0x40 DUP1 MLOAD DUP1 DUP3 ADD SWAP1 SWAP2 MSTORE PUSH1 0x2 DUP2 MSTORE PUSH2 0x333 PUSH1 0xF4 SHL PUSH1 0x20 DUP3 ADD MSTORE SWAP1 PUSH1 0x1 PUSH1 0x1 PUSH1 0xA0 SHL SUB AND CALLER EQ PUSH2 0x2C5 JUMPI PUSH1 0x40 MLOAD PUSH3 0x461BCD PUSH1 0xE5 SHL DUP2 MSTORE PUSH1 0x4 ADD PUSH2 0x20C SWAP2 SWAP1 PUSH2 0x14C0 JUMP JUMPDEST POP PUSH1 0x40 DUP1 MLOAD PUSH1 0x80 DUP2 ADD DUP3 MSTORE PUSH1 0x0 DUP2 MSTORE PUSH1 0x20 DUP2 ADD DUP6 SWAP1 MSTORE DUP1 DUP3 ADD DUP5 SWAP1 MSTORE PUSH1 0x60 DUP2 ADD DUP4 SWAP1 MSTORE SWAP1 MLOAD PUSH4 0xE7464015 PUSH1 0xE0 SHL DUP2 MSTORE PUSH1 0x1 PUSH1 0x1 PUSH1 0xA0 SHL SUB PUSH32 0x0 AND SWAP1 PUSH4 0xE7464015 SWAP1 PUSH2 0x335 SWAP1 DUP9 SWAP1 DUP6 SWAP1 PUSH1 0x4 ADD PUSH2 0x1515 JUMP JUMPDEST PUSH1 0x0 PUSH1 0x40 MLOAD DUP1 DUP4 SUB DUP2 PUSH1 0x0 DUP8 DUP1 EXTCODESIZE ISZERO DUP1 ISZERO PUSH2 0x34F JUMPI PUSH1 0x0 DUP1 REVERT JUMPDEST POP GAS CALL ISZERO DUP1 ISZERO PUSH2 0x363 JUMPI RETURNDATASIZE PUSH1 0x0 DUP1 RETURNDATACOPY RETURNDATASIZE PUSH1 0x0 REVERT JUMPDEST POP POP POP POP PUSH1 0x0 PUSH2 0x371 PUSH2 0x557 JUMP JUMPDEST SWAP1 POP PUSH1 0x0 DUP1 JUMPDEST DUP3 PUSH1 0x20 ADD MLOAD MLOAD DUP2 LT ISZERO PUSH2 0x3F6 JUMPI DUP8 PUSH1 0x1 PUSH1 0x1 PUSH1 0xA0 SHL SUB AND DUP4 PUSH1 0x20 ADD MLOAD DUP3 DUP2 MLOAD DUP2 LT PUSH2 0x3A4 JUMPI PUSH2 0x3A4 PUSH2 0x1553 JUMP JUMPDEST PUSH1 0x20 MUL PUSH1 0x20 ADD ADD MLOAD PUSH1 0x0 ADD MLOAD PUSH1 0x1 PUSH1 0x1 PUSH1 0xA0 SHL SUB AND EQ ISZERO PUSH2 0x3E4 JUMPI DUP3 PUSH1 0x20 ADD MLOAD DUP2 DUP2 MLOAD DUP2 LT PUSH2 0x3D5 JUMPI PUSH2 0x3D5 PUSH2 0x1553 JUMP JUMPDEST PUSH1 0x20 MUL PUSH1 0x20 ADD ADD MLOAD PUSH1 0x60 ADD MLOAD SWAP2 POP JUMPDEST DUP1 PUSH2 0x3EE DUP2 PUSH2 0x157F JUMP JUMPDEST SWAP2 POP POP PUSH2 0x377 JUMP JUMPDEST POP PUSH1 0x40 MLOAD PUSH4 0x4AF28B8D PUSH1 0xE1 SHL DUP2 MSTORE PUSH1 0x1 PUSH1 0x1 PUSH1 0xA0 SHL SUB DUP9 DUP2 AND PUSH1 0x4 DUP4 ADD MSTORE PUSH1 0x24 DUP3 ADD DUP4 SWAP1 MSTORE PUSH32 0x0 AND SWAP1 PUSH4 0x95E5171A SWAP1 PUSH1 0x44 ADD PUSH1 0x0 PUSH1 0x40 MLOAD DUP1 DUP4 SUB DUP2 PUSH1 0x0 DUP8 DUP1 EXTCODESIZE ISZERO DUP1 ISZERO PUSH2 0x461 JUMPI PUSH1 0x0 DUP1 REVERT JUMPDEST POP GAS CALL ISZERO DUP1 ISZERO PUSH2 0x475 JUMPI RETURNDATASIZE PUSH1 0x0 DUP1 RETURNDATACOPY RETURNDATASIZE PUSH1 0x0 REVERT JUMPDEST POP POP POP POP POP POP POP POP POP POP POP JUMP JUMPDEST PUSH1 0x0 SLOAD PUSH1 0x40 DUP1 MLOAD DUP1 DUP3 ADD SWAP1 SWAP2 MSTORE PUSH1 0x2 DUP2 MSTORE PUSH2 0x333 PUSH1 0xF4 SHL PUSH1 0x20 DUP3 ADD MSTORE SWAP1 PUSH1 0x1 PUSH1 0x1 PUSH1 0xA0 SHL SUB AND CALLER EQ PUSH2 0x4C7 JUMPI PUSH1 0x40 MLOAD PUSH3 0x461BCD PUSH1 0xE5 SHL DUP2 MSTORE PUSH1 0x4 ADD PUSH2 0x20C SWAP2 SWAP1 PUSH2 0x14C0 JUMP JUMPDEST POP PUSH1 0x40 DUP1 MLOAD DUP1 DUP3 ADD SWAP1 SWAP2 MSTORE PUSH1 0x2 DUP2 MSTORE PUSH2 0x3331 PUSH1 0xF0 SHL PUSH1 0x20 DUP3 ADD MSTORE PUSH1 0x1 PUSH1 0x1 PUSH1 0xA0 SHL SUB DUP3 AND PUSH2 0x508 JUMPI PUSH1 0x40 MLOAD PUSH3 0x461BCD PUSH1 0xE5 SHL DUP2 MSTORE PUSH1 0x4 ADD PUSH2 0x20C SWAP2 SWAP1 PUSH2 0x14C0 JUMP JUMPDEST POP PUSH1 0x1 DUP1 SLOAD PUSH1 0x1 PUSH1 0x1 PUSH1 0xA0 SHL SUB NOT AND PUSH1 0x1 PUSH1 0x1 PUSH1 0xA0 SHL SUB DUP4 AND SWAP1 DUP2 OR SWAP1 SWAP2 SSTORE PUSH1 0x40 MLOAD SWAP1 DUP2 MSTORE PUSH32 0x67235BA2E63C748A35B95C4F92A3BBC2A1389938170A5CE6C9ADD5D0B03A314A SWAP1 PUSH1 0x20 ADD PUSH2 0x275 JUMP JUMPDEST PUSH1 0x40 DUP1 MLOAD DUP1 DUP3 ADD SWAP1 SWAP2 MSTORE PUSH1 0x0 DUP2 MSTORE PUSH1 0x60 PUSH1 0x20 DUP3 ADD MSTORE PUSH1 0x0 PUSH32 0x0 PUSH1 0x1 PUSH1 0x1 PUSH1 0xA0 SHL SUB AND PUSH4 0x50CC258E PUSH1 0x40 MLOAD DUP2 PUSH4 0xFFFFFFFF AND PUSH1 0xE0 SHL DUP2 MSTORE PUSH1 0x4 ADD PUSH1 0x0 PUSH1 0x40 MLOAD DUP1 DUP4 SUB DUP2 DUP7 GAS STATICCALL ISZERO DUP1 ISZERO PUSH2 0x5CC JUMPI RETURNDATASIZE PUSH1 0x0 DUP1 RETURNDATACOPY RETURNDATASIZE PUSH1 0x0 REVERT JUMPDEST POP POP POP POP PUSH1 0x40 MLOAD RETURNDATASIZE PUSH1 0x0 DUP3 RETURNDATACOPY PUSH1 0x1F RETURNDATASIZE SWAP1 DUP2 ADD PUSH1 0x1F NOT AND DUP3 ADD PUSH1 0x40 MSTORE PUSH2 0x5F4 SWAP2 SWAP1 DUP2 ADD SWAP1 PUSH2 0x1662 JUMP JUMPDEST SWAP1 POP PUSH1 0x0 DUP2 MLOAD GT PUSH1 0x40 MLOAD DUP1 PUSH1 0x40 ADD PUSH1 0x40 MSTORE DUP1 PUSH1 0x2 DUP2 MSTORE PUSH1 0x20 ADD PUSH2 0x3331 PUSH1 0xF0 SHL DUP2 MSTORE POP SWAP1 PUSH2 0x634 JUMPI PUSH1 0x40 MLOAD PUSH3 0x461BCD PUSH1 0xE5 SHL DUP2 MSTORE PUSH1 0x4 ADD PUSH2 0x20C SWAP2 SWAP1 PUSH2 0x14C0 JUMP JUMPDEST POP DUP1 MLOAD PUSH1 0x0 DUP2 PUSH8 0xFFFFFFFFFFFFFFFF DUP2 GT ISZERO PUSH2 0x652 JUMPI PUSH2 0x652 PUSH2 0x159A JUMP JUMPDEST PUSH1 0x40 MLOAD SWAP1 DUP1 DUP3 MSTORE DUP1 PUSH1 0x20 MUL PUSH1 0x20 ADD DUP3 ADD PUSH1 0x40 MSTORE DUP1 ISZERO PUSH2 0x68B JUMPI DUP2 PUSH1 0x20 ADD JUMPDEST PUSH2 0x678 PUSH2 0x1249 JUMP JUMPDEST DUP2 MSTORE PUSH1 0x20 ADD SWAP1 PUSH1 0x1 SWAP1 SUB SWAP1 DUP2 PUSH2 0x670 JUMPI SWAP1 POP JUMPDEST POP SWAP1 POP PUSH1 0x0 JUMPDEST DUP3 DUP2 LT ISZERO PUSH2 0xBDE JUMPI PUSH2 0x6C4 PUSH1 0x40 MLOAD DUP1 PUSH1 0x80 ADD PUSH1 0x40 MSTORE DUP1 PUSH1 0x0 DUP2 MSTORE PUSH1 0x20 ADD PUSH1 0x0 DUP2 MSTORE PUSH1 0x20 ADD PUSH1 0x0 DUP2 MSTORE PUSH1 0x20 ADD PUSH1 0x0 DUP2 MSTORE POP SWAP1 JUMP JUMPDEST PUSH32 0x0 PUSH1 0x1 PUSH1 0x1 PUSH1 0xA0 SHL SUB AND PUSH4 0xDC4F1E49 DUP7 DUP5 DUP2 MLOAD DUP2 LT PUSH2 0x705 JUMPI PUSH2 0x705 PUSH2 0x1553 JUMP JUMPDEST PUSH1 0x20 MUL PUSH1 0x20 ADD ADD MLOAD PUSH1 0x40 MLOAD DUP3 PUSH4 0xFFFFFFFF AND PUSH1 0xE0 SHL DUP2 MSTORE PUSH1 0x4 ADD PUSH2 0x738 SWAP2 SWAP1 PUSH1 0x1 PUSH1 0x1 PUSH1 0xA0 SHL SUB SWAP2 SWAP1 SWAP2 AND DUP2 MSTORE PUSH1 0x20 ADD SWAP1 JUMP JUMPDEST PUSH1 0x80 PUSH1 0x40 MLOAD DUP1 DUP4 SUB DUP2 DUP7 GAS STATICCALL ISZERO DUP1 ISZERO PUSH2 0x755 JUMPI RETURNDATASIZE PUSH1 0x0 DUP1 RETURNDATACOPY RETURNDATASIZE PUSH1 0x0 REVERT JUMPDEST POP POP POP POP PUSH1 0x40 MLOAD RETURNDATASIZE PUSH1 0x1F NOT PUSH1 0x1F DUP3 ADD AND DUP3 ADD DUP1 PUSH1 0x40 MSTORE POP DUP2 ADD SWAP1 PUSH2 0x779 SWAP2 SWAP1 PUSH2 0x1767 JUMP JUMPDEST SWAP1 POP PUSH1 0x0 DUP6 DUP4 DUP2 MLOAD DUP2 LT PUSH2 0x78F JUMPI PUSH2 0x78F PUSH2 0x1553 JUMP JUMPDEST PUSH1 0x20 SWAP1 DUP2 MUL SWAP2 SWAP1 SWAP2 ADD ADD MLOAD PUSH1 0x40 MLOAD PUSH4 0x70A08231 PUSH1 0xE0 SHL DUP2 MSTORE PUSH1 0x1 PUSH1 0x1 PUSH1 0xA0 SHL SUB PUSH32 0x0 DUP2 AND PUSH1 0x4 DUP4 ADD MSTORE SWAP1 SWAP2 AND SWAP1 PUSH4 0x70A08231 SWAP1 PUSH1 0x24 ADD PUSH1 0x20 PUSH1 0x40 MLOAD DUP1 DUP4 SUB DUP2 DUP7 GAS STATICCALL ISZERO DUP1 ISZERO PUSH2 0x801 JUMPI RETURNDATASIZE PUSH1 0x0 DUP1 RETURNDATACOPY RETURNDATASIZE PUSH1 0x0 REVERT JUMPDEST POP POP POP POP PUSH1 0x40 MLOAD RETURNDATASIZE PUSH1 0x1F NOT PUSH1 0x1F DUP3 ADD AND DUP3 ADD DUP1 PUSH1 0x40 MSTORE POP DUP2 ADD SWAP1 PUSH2 0x825 SWAP2 SWAP1 PUSH2 0x1783 JUMP JUMPDEST SWAP1 POP PUSH1 0x0 DUP7 DUP5 DUP2 MLOAD DUP2 LT PUSH2 0x83B JUMPI PUSH2 0x83B PUSH2 0x1553 JUMP JUMPDEST PUSH1 0x20 MUL PUSH1 0x20 ADD ADD MLOAD PUSH1 0x1 PUSH1 0x1 PUSH1 0xA0 SHL SUB AND PUSH4 0xAA6CA808 PUSH1 0x40 MLOAD DUP2 PUSH4 0xFFFFFFFF AND PUSH1 0xE0 SHL DUP2 MSTORE PUSH1 0x4 ADD PUSH1 0x0 PUSH1 0x40 MLOAD DUP1 DUP4 SUB DUP2 DUP7 GAS STATICCALL ISZERO DUP1 ISZERO PUSH2 0x880 JUMPI RETURNDATASIZE PUSH1 0x0 DUP1 RETURNDATACOPY RETURNDATASIZE PUSH1 0x0 REVERT JUMPDEST POP POP POP POP PUSH1 0x40 MLOAD RETURNDATASIZE PUSH1 0x0 DUP3 RETURNDATACOPY PUSH1 0x1F RETURNDATASIZE SWAP1 DUP2 ADD PUSH1 0x1F NOT AND DUP3 ADD PUSH1 0x40 MSTORE PUSH2 0x8A8 SWAP2 SWAP1 DUP2 ADD SWAP1 PUSH2 0x179C JUMP JUMPDEST SWAP1 POP PUSH1 0x0 DUP2 MLOAD PUSH8 0xFFFFFFFFFFFFFFFF DUP2 GT ISZERO PUSH2 0x8C6 JUMPI PUSH2 0x8C6 PUSH2 0x159A JUMP JUMPDEST PUSH1 0x40 MLOAD SWAP1 DUP1 DUP3 MSTORE DUP1 PUSH1 0x20 MUL PUSH1 0x20 ADD DUP3 ADD PUSH1 0x40 MSTORE DUP1 ISZERO PUSH2 0x911 JUMPI DUP2 PUSH1 0x20 ADD JUMPDEST PUSH1 0x40 DUP1 MLOAD PUSH1 0x60 DUP2 ADD DUP3 MSTORE PUSH1 0x0 DUP1 DUP3 MSTORE PUSH1 0x20 DUP1 DUP4 ADD DUP3 SWAP1 MSTORE SWAP3 DUP3 ADD MSTORE DUP3 MSTORE PUSH1 0x0 NOT SWAP1 SWAP3 ADD SWAP2 ADD DUP2 PUSH2 0x8E4 JUMPI SWAP1 POP JUMPDEST POP SWAP1 POP PUSH1 0x0 JUMPDEST DUP3 MLOAD DUP2 LT ISZERO PUSH2 0xA44 JUMPI PUSH1 0x40 MLOAD DUP1 PUSH1 0x60 ADD PUSH1 0x40 MSTORE DUP1 DUP5 DUP4 DUP2 MLOAD DUP2 LT PUSH2 0x93D JUMPI PUSH2 0x93D PUSH2 0x1553 JUMP JUMPDEST PUSH1 0x20 MUL PUSH1 0x20 ADD ADD MLOAD PUSH1 0x1 PUSH1 0x1 PUSH1 0xA0 SHL SUB AND DUP2 MSTORE PUSH1 0x20 ADD PUSH32 0x0 PUSH1 0x1 PUSH1 0x1 PUSH1 0xA0 SHL SUB AND PUSH4 0x4976C588 DUP7 DUP6 DUP2 MLOAD DUP2 LT PUSH2 0x994 JUMPI PUSH2 0x994 PUSH2 0x1553 JUMP JUMPDEST PUSH1 0x20 MUL PUSH1 0x20 ADD ADD MLOAD PUSH1 0x40 MLOAD DUP3 PUSH4 0xFFFFFFFF AND PUSH1 0xE0 SHL DUP2 MSTORE PUSH1 0x4 ADD PUSH2 0x9C7 SWAP2 SWAP1 PUSH1 0x1 PUSH1 0x1 PUSH1 0xA0 SHL SUB SWAP2 SWAP1 SWAP2 AND DUP2 MSTORE PUSH1 0x20 ADD SWAP1 JUMP JUMPDEST PUSH1 0x20 PUSH1 0x40 MLOAD DUP1 DUP4 SUB DUP2 DUP7 GAS STATICCALL ISZERO DUP1 ISZERO PUSH2 0x9E4 JUMPI RETURNDATASIZE PUSH1 0x0 DUP1 RETURNDATACOPY RETURNDATASIZE PUSH1 0x0 REVERT JUMPDEST POP POP POP POP PUSH1 0x40 MLOAD RETURNDATASIZE PUSH1 0x1F NOT PUSH1 0x1F DUP3 ADD AND DUP3 ADD DUP1 PUSH1 0x40 MSTORE POP DUP2 ADD SWAP1 PUSH2 0xA08 SWAP2 SWAP1 PUSH2 0x183B JUMP JUMPDEST ISZERO ISZERO DUP2 MSTORE PUSH1 0x20 ADD PUSH1 0x0 DUP2 MSTORE POP DUP3 DUP3 DUP2 MLOAD DUP2 LT PUSH2 0xA26 JUMPI PUSH2 0xA26 PUSH2 0x1553 JUMP JUMPDEST PUSH1 0x20 MUL PUSH1 0x20 ADD ADD DUP2 SWAP1 MSTORE POP DUP1 DUP1 PUSH2 0xA3C SWAP1 PUSH2 0x157F JUMP JUMPDEST SWAP2 POP POP PUSH2 0x917 JUMP JUMPDEST POP PUSH1 0x40 MLOAD DUP1 PUSH2 0x120 ADD PUSH1 0x40 MSTORE DUP1 DUP10 DUP8 DUP2 MLOAD DUP2 LT PUSH2 0xA63 JUMPI PUSH2 0xA63 PUSH2 0x1553 JUMP JUMPDEST PUSH1 0x20 MUL PUSH1 0x20 ADD ADD MLOAD PUSH1 0x1 PUSH1 0x1 PUSH1 0xA0 SHL SUB AND DUP2 MSTORE PUSH1 0x20 ADD DUP10 DUP8 DUP2 MLOAD DUP2 LT PUSH2 0xA8B JUMPI PUSH2 0xA8B PUSH2 0x1553 JUMP JUMPDEST PUSH1 0x20 MUL PUSH1 0x20 ADD ADD MLOAD PUSH1 0x1 PUSH1 0x1 PUSH1 0xA0 SHL SUB AND PUSH4 0x313CE567 PUSH1 0x40 MLOAD DUP2 PUSH4 0xFFFFFFFF AND PUSH1 0xE0 SHL DUP2 MSTORE PUSH1 0x4 ADD PUSH1 0x20 PUSH1 0x40 MLOAD DUP1 DUP4 SUB DUP2 DUP7 GAS STATICCALL ISZERO DUP1 ISZERO PUSH2 0xAD0 JUMPI RETURNDATASIZE PUSH1 0x0 DUP1 RETURNDATACOPY RETURNDATASIZE PUSH1 0x0 REVERT JUMPDEST POP POP POP POP PUSH1 0x40 MLOAD RETURNDATASIZE PUSH1 0x1F NOT PUSH1 0x1F DUP3 ADD AND DUP3 ADD DUP1 PUSH1 0x40 MSTORE POP DUP2 ADD SWAP1 PUSH2 0xAF4 SWAP2 SWAP1 PUSH2 0x1867 JUMP JUMPDEST PUSH1 0xFF AND DUP2 MSTORE PUSH1 0x20 ADD DUP10 DUP8 DUP2 MLOAD DUP2 LT PUSH2 0xB0E JUMPI PUSH2 0xB0E PUSH2 0x1553 JUMP JUMPDEST PUSH1 0x20 MUL PUSH1 0x20 ADD ADD MLOAD PUSH1 0x1 PUSH1 0x1 PUSH1 0xA0 SHL SUB AND PUSH4 0x6F307DC3 PUSH1 0x40 MLOAD DUP2 PUSH4 0xFFFFFFFF AND PUSH1 0xE0 SHL DUP2 MSTORE PUSH1 0x4 ADD PUSH1 0x20 PUSH1 0x40 MLOAD DUP1 DUP4 SUB DUP2 DUP7 GAS STATICCALL ISZERO DUP1 ISZERO PUSH2 0xB53 JUMPI RETURNDATASIZE PUSH1 0x0 DUP1 RETURNDATACOPY RETURNDATASIZE PUSH1 0x0 REVERT JUMPDEST POP POP POP POP PUSH1 0x40 MLOAD RETURNDATASIZE PUSH1 0x1F NOT PUSH1 0x1F DUP3 ADD AND DUP3 ADD DUP1 PUSH1 0x40 MSTORE POP DUP2 ADD SWAP1 PUSH2 0xB77 SWAP2 SWAP1 PUSH2 0x1882 JUMP JUMPDEST PUSH1 0x1 PUSH1 0x1 PUSH1 0xA0 SHL SUB AND DUP2 MSTORE PUSH1 0x20 ADD PUSH1 0x0 DUP2 MSTORE PUSH1 0x20 ADD DUP6 DUP2 MSTORE PUSH1 0x20 ADD DUP5 DUP2 MSTORE PUSH1 0x20 ADD PUSH1 0x0 DUP2 MSTORE PUSH1 0x20 ADD PUSH1 0x0 DUP2 MSTORE PUSH1 0x20 ADD DUP3 DUP2 MSTORE POP DUP7 DUP7 DUP2 MLOAD DUP2 LT PUSH2 0xBBC JUMPI PUSH2 0xBBC PUSH2 0x1553 JUMP JUMPDEST PUSH1 0x20 MUL PUSH1 0x20 ADD ADD DUP2 SWAP1 MSTORE POP POP POP POP POP DUP1 DUP1 PUSH2 0xBD6 SWAP1 PUSH2 0x157F JUMP JUMPDEST SWAP2 POP POP PUSH2 0x691 JUMP JUMPDEST POP PUSH2 0xC11 PUSH32 0x0 PUSH1 0x1 PUSH1 0x1 PUSH1 0xA0 SHL SUB AND PUSH2 0x10E5 JUMP JUMPDEST PUSH1 0x1 PUSH1 0x1 PUSH1 0xA0 SHL SUB AND PUSH4 0xCCDA1EF7 DUP3 PUSH1 0x40 MLOAD DUP3 PUSH4 0xFFFFFFFF AND PUSH1 0xE0 SHL DUP2 MSTORE PUSH1 0x4 ADD PUSH2 0xC3C SWAP2 SWAP1 PUSH2 0x189F JUMP JUMPDEST PUSH1 0x0 PUSH1 0x40 MLOAD DUP1 DUP4 SUB DUP2 DUP7 GAS STATICCALL ISZERO DUP1 ISZERO PUSH2 0xC59 JUMPI RETURNDATASIZE PUSH1 0x0 DUP1 RETURNDATACOPY RETURNDATASIZE PUSH1 0x0 REVERT JUMPDEST POP POP POP POP PUSH1 0x40 MLOAD RETURNDATASIZE PUSH1 0x0 DUP3 RETURNDATACOPY PUSH1 0x1F RETURNDATASIZE SWAP1 DUP2 ADD PUSH1 0x1F NOT AND DUP3 ADD PUSH1 0x40 MSTORE PUSH2 0xC81 SWAP2 SWAP1 DUP2 ADD SWAP1 PUSH2 0x1956 JUMP JUMPDEST SWAP1 POP PUSH1 0x0 DUP1 DUP4 PUSH8 0xFFFFFFFFFFFFFFFF DUP2 GT ISZERO PUSH2 0xC9F JUMPI PUSH2 0xC9F PUSH2 0x159A JUMP JUMPDEST PUSH1 0x40 MLOAD SWAP1 DUP1 DUP3 MSTORE DUP1 PUSH1 0x20 MUL PUSH1 0x20 ADD DUP3 ADD PUSH1 0x40 MSTORE DUP1 ISZERO PUSH2 0xCC8 JUMPI DUP2 PUSH1 0x20 ADD PUSH1 0x20 DUP3 MUL DUP1 CALLDATASIZE DUP4 CALLDATACOPY ADD SWAP1 POP JUMPDEST POP SWAP1 POP PUSH1 0x0 JUMPDEST DUP5 DUP2 LT ISZERO PUSH2 0xD65 JUMPI PUSH1 0x0 PUSH2 0xD25 DUP6 DUP4 DUP2 MLOAD DUP2 LT PUSH2 0xCED JUMPI PUSH2 0xCED PUSH2 0x1553 JUMP JUMPDEST PUSH1 0x20 MUL PUSH1 0x20 ADD ADD MLOAD PUSH1 0xA0 ADD MLOAD DUP7 DUP5 DUP2 MLOAD DUP2 LT PUSH2 0xD0B JUMPI PUSH2 0xD0B PUSH2 0x1553 JUMP JUMPDEST PUSH1 0x20 MUL PUSH1 0x20 ADD ADD MLOAD PUSH1 0x60 ADD MLOAD PUSH2 0x1134 SWAP1 SWAP2 SWAP1 PUSH4 0xFFFFFFFF AND JUMP JUMPDEST SWAP1 POP DUP1 DUP4 DUP4 DUP2 MLOAD DUP2 LT PUSH2 0xD3A JUMPI PUSH2 0xD3A PUSH2 0x1553 JUMP JUMPDEST PUSH1 0x20 SWAP1 DUP2 MUL SWAP2 SWAP1 SWAP2 ADD ADD MSTORE PUSH2 0xD4F DUP2 DUP6 PUSH2 0x1AB3 JUMP JUMPDEST SWAP4 POP POP DUP1 DUP1 PUSH2 0xD5D SWAP1 PUSH2 0x157F JUMP JUMPDEST SWAP2 POP POP PUSH2 0xCCE JUMP JUMPDEST POP PUSH1 0x0 JUMPDEST DUP5 DUP2 LT ISZERO PUSH2 0xDFE JUMPI DUP3 ISZERO PUSH2 0xDA8 JUMPI PUSH2 0xDA3 DUP4 DUP4 DUP4 DUP2 MLOAD DUP2 LT PUSH2 0xD8D JUMPI PUSH2 0xD8D PUSH2 0x1553 JUMP JUMPDEST PUSH1 0x20 MUL PUSH1 0x20 ADD ADD MLOAD PUSH2 0x115D SWAP1 SWAP2 SWAP1 PUSH4 0xFFFFFFFF AND JUMP JUMPDEST PUSH2 0xDCB JUMP JUMPDEST DUP4 DUP2 DUP2 MLOAD DUP2 LT PUSH2 0xDBA JUMPI PUSH2 0xDBA PUSH2 0x1553 JUMP JUMPDEST PUSH1 0x20 MUL PUSH1 0x20 ADD ADD MLOAD PUSH1 0x80 ADD MLOAD PUSH1 0x20 ADD MLOAD JUMPDEST DUP5 DUP3 DUP2 MLOAD DUP2 LT PUSH2 0xDDD JUMPI PUSH2 0xDDD PUSH2 0x1553 JUMP JUMPDEST PUSH1 0x20 SWAP1 DUP2 MUL SWAP2 SWAP1 SWAP2 ADD ADD MLOAD PUSH1 0xC0 ADD MSTORE DUP1 PUSH2 0xDF6 DUP2 PUSH2 0x157F JUMP JUMPDEST SWAP2 POP POP PUSH2 0xD69 JUMP JUMPDEST POP PUSH1 0x0 DUP1 DUP6 PUSH8 0xFFFFFFFFFFFFFFFF DUP2 GT ISZERO PUSH2 0xE1B JUMPI PUSH2 0xE1B PUSH2 0x159A JUMP JUMPDEST PUSH1 0x40 MLOAD SWAP1 DUP1 DUP3 MSTORE DUP1 PUSH1 0x20 MUL PUSH1 0x20 ADD DUP3 ADD PUSH1 0x40 MSTORE DUP1 ISZERO PUSH2 0xE44 JUMPI DUP2 PUSH1 0x20 ADD PUSH1 0x20 DUP3 MUL DUP1 CALLDATASIZE DUP4 CALLDATACOPY ADD SWAP1 POP JUMPDEST POP SWAP1 POP PUSH1 0x0 JUMPDEST DUP7 DUP2 LT ISZERO PUSH2 0xF3B JUMPI PUSH1 0x0 DUP7 DUP3 DUP2 MLOAD DUP2 LT PUSH2 0xE66 JUMPI PUSH2 0xE66 PUSH2 0x1553 JUMP JUMPDEST PUSH1 0x20 MUL PUSH1 0x20 ADD ADD MLOAD PUSH1 0x80 ADD MLOAD PUSH1 0x0 ADD MLOAD SWAP1 POP DUP1 PUSH1 0x0 EQ ISZERO PUSH2 0xE87 JUMPI POP PUSH2 0xF29 JUMP JUMPDEST PUSH2 0xEE2 DUP8 DUP4 DUP2 MLOAD DUP2 LT PUSH2 0xE9C JUMPI PUSH2 0xE9C PUSH2 0x1553 JUMP JUMPDEST PUSH1 0x20 MUL PUSH1 0x20 ADD ADD MLOAD PUSH1 0x80 ADD MLOAD PUSH1 0x20 ADD MLOAD PUSH2 0xEDC DUP4 DUP11 DUP7 DUP2 MLOAD DUP2 LT PUSH2 0xEC2 JUMPI PUSH2 0xEC2 PUSH2 0x1553 JUMP JUMPDEST PUSH1 0x20 MUL PUSH1 0x20 ADD ADD MLOAD PUSH1 0x60 ADD MLOAD PUSH2 0x115D SWAP1 SWAP2 SWAP1 PUSH4 0xFFFFFFFF AND JUMP JUMPDEST SWAP1 PUSH2 0x1134 JUMP JUMPDEST DUP4 DUP4 DUP2 MLOAD DUP2 LT PUSH2 0xEF4 JUMPI PUSH2 0xEF4 PUSH2 0x1553 JUMP JUMPDEST PUSH1 0x20 MUL PUSH1 0x20 ADD ADD DUP2 DUP2 MSTORE POP POP DUP3 DUP3 DUP2 MLOAD DUP2 LT PUSH2 0xF12 JUMPI PUSH2 0xF12 PUSH2 0x1553 JUMP JUMPDEST PUSH1 0x20 MUL PUSH1 0x20 ADD ADD MLOAD DUP5 PUSH2 0xF25 SWAP2 SWAP1 PUSH2 0x1AB3 JUMP JUMPDEST SWAP4 POP POP JUMPDEST DUP1 PUSH2 0xF33 DUP2 PUSH2 0x157F JUMP JUMPDEST SWAP2 POP POP PUSH2 0xE4A JUMP JUMPDEST POP DUP2 ISZERO PUSH2 0xFF1 JUMPI PUSH1 0x0 DUP1 JUMPDEST DUP8 DUP2 LT ISZERO PUSH2 0xFEE JUMPI PUSH1 0x0 PUSH2 0xF7C DUP6 DUP6 DUP5 DUP2 MLOAD DUP2 LT PUSH2 0xF66 JUMPI PUSH2 0xF66 PUSH2 0x1553 JUMP JUMPDEST PUSH1 0x20 MUL PUSH1 0x20 ADD ADD MLOAD PUSH2 0x11CD SWAP1 SWAP2 SWAP1 PUSH4 0xFFFFFFFF AND JUMP JUMPDEST SWAP1 POP PUSH8 0xDE0B6B3A7640000 PUSH2 0xF91 DUP3 DUP6 PUSH2 0x1AB3 JUMP JUMPDEST GT ISZERO PUSH2 0xFAC JUMPI PUSH2 0xFA9 DUP4 PUSH8 0xDE0B6B3A7640000 PUSH2 0x1ACB JUMP JUMPDEST SWAP1 POP JUMPDEST DUP1 DUP9 DUP4 DUP2 MLOAD DUP2 LT PUSH2 0xFBF JUMPI PUSH2 0xFBF PUSH2 0x1553 JUMP JUMPDEST PUSH1 0x20 SWAP1 DUP2 MUL SWAP2 SWAP1 SWAP2 ADD ADD MLOAD PUSH1 0xE0 ADD MSTORE PUSH2 0xFD8 DUP2 DUP5 PUSH2 0x1AB3 JUMP JUMPDEST SWAP3 POP POP DUP1 DUP1 PUSH2 0xFE6 SWAP1 PUSH2 0x157F JUMP JUMPDEST SWAP2 POP POP PUSH2 0xF46 JUMP JUMPDEST POP POP JUMPDEST PUSH1 0x40 MLOAD DUP1 PUSH1 0x40 ADD PUSH1 0x40 MSTORE DUP1 DUP6 DUP2 MSTORE PUSH1 0x20 ADD DUP7 DUP2 MSTORE POP SWAP8 POP POP POP POP POP POP POP POP SWAP1 JUMP JUMPDEST PUSH1 0x40 MLOAD PUSH4 0x21F8A721 PUSH1 0xE0 SHL DUP2 MSTORE PUSH22 0x5641554C545F52454749535452595F41444452455353 PUSH1 0x50 SHL PUSH1 0x4 DUP3 ADD MSTORE PUSH1 0x0 SWAP1 PUSH1 0x1 PUSH1 0x1 PUSH1 0xA0 SHL SUB DUP4 AND SWAP1 PUSH4 0x21F8A721 SWAP1 PUSH1 0x24 ADD JUMPDEST PUSH1 0x20 PUSH1 0x40 MLOAD DUP1 DUP4 SUB DUP2 DUP7 GAS STATICCALL ISZERO DUP1 ISZERO PUSH2 0x1073 JUMPI RETURNDATASIZE PUSH1 0x0 DUP1 RETURNDATACOPY RETURNDATASIZE PUSH1 0x0 REVERT JUMPDEST POP POP POP POP PUSH1 0x40 MLOAD RETURNDATASIZE PUSH1 0x1F NOT PUSH1 0x1F DUP3 ADD AND DUP3 ADD DUP1 PUSH1 0x40 MSTORE POP DUP2 ADD SWAP1 PUSH2 0x1097 SWAP2 SWAP1 PUSH2 0x1882 JUMP JUMPDEST SWAP3 SWAP2 POP POP JUMP JUMPDEST PUSH1 0x40 MLOAD PUSH4 0x21F8A721 PUSH1 0xE0 SHL DUP2 MSTORE PUSH22 0x41535345545F52454749535452595F41444452455353 PUSH1 0x50 SHL PUSH1 0x4 DUP3 ADD MSTORE PUSH1 0x0 SWAP1 PUSH1 0x1 PUSH1 0x1 PUSH1 0xA0 SHL SUB DUP4 AND SWAP1 PUSH4 0x21F8A721 SWAP1 PUSH1 0x24 ADD PUSH2 0x1056 JUMP JUMPDEST PUSH1 0x40 MLOAD PUSH4 0x21F8A721 PUSH1 0xE0 SHL DUP2 MSTORE PUSH32 0x524F4F545F50524943455F4F5241434C455F4144445245535300000000000000 PUSH1 0x4 DUP3 ADD MSTORE PUSH1 0x0 SWAP1 PUSH1 0x1 PUSH1 0x1 PUSH1 0xA0 SHL SUB DUP4 AND SWAP1 PUSH4 0x21F8A721 SWAP1 PUSH1 0x24 ADD PUSH2 0x1056 JUMP JUMPDEST PUSH1 0x0 DUP1 PUSH2 0x1141 DUP4 DUP6 PUSH2 0x1AE2 JUMP JUMPDEST SWAP1 POP PUSH2 0x1155 PUSH8 0xDE0B6B3A7640000 DUP3 PUSH2 0x1B17 JUMP JUMPDEST SWAP5 SWAP4 POP POP POP POP JUMP JUMPDEST PUSH1 0x40 DUP1 MLOAD DUP1 DUP3 ADD SWAP1 SWAP2 MSTORE PUSH1 0x2 DUP2 MSTORE PUSH2 0x3235 PUSH1 0xF0 SHL PUSH1 0x20 DUP3 ADD MSTORE PUSH1 0x0 SWAP1 DUP3 PUSH2 0x1197 JUMPI PUSH1 0x40 MLOAD PUSH3 0x461BCD PUSH1 0xE5 SHL DUP2 MSTORE PUSH1 0x4 ADD PUSH2 0x20C SWAP2 SWAP1 PUSH2 0x14C0 JUMP JUMPDEST POP DUP3 PUSH2 0x11A5 JUMPI POP PUSH1 0x0 PUSH2 0x1097 JUMP JUMPDEST PUSH1 0x0 PUSH2 0x11B9 PUSH8 0xDE0B6B3A7640000 DUP6 PUSH2 0x1AE2 JUMP JUMPDEST SWAP1 POP PUSH2 0x11C5 DUP4 DUP3 PUSH2 0x1B17 JUMP JUMPDEST SWAP2 POP POP PUSH2 0x1097 JUMP JUMPDEST PUSH1 0x40 DUP1 MLOAD DUP1 DUP3 ADD SWAP1 SWAP2 MSTORE PUSH1 0x2 DUP2 MSTORE PUSH2 0x3235 PUSH1 0xF0 SHL PUSH1 0x20 DUP3 ADD MSTORE PUSH1 0x0 SWAP1 DUP3 PUSH2 0x1207 JUMPI PUSH1 0x40 MLOAD PUSH3 0x461BCD PUSH1 0xE5 SHL DUP2 MSTORE PUSH1 0x4 ADD PUSH2 0x20C SWAP2 SWAP1 PUSH2 0x14C0 JUMP JUMPDEST POP DUP3 PUSH2 0x1215 JUMPI POP PUSH1 0x0 PUSH2 0x1097 JUMP JUMPDEST PUSH1 0x0 PUSH2 0x1229 PUSH8 0xDE0B6B3A7640000 DUP6 PUSH2 0x1AE2 JUMP JUMPDEST SWAP1 POP DUP3 PUSH1 0x1 DUP3 SUB DUP2 PUSH2 0x123D JUMPI PUSH2 0x123D PUSH2 0x1B01 JUMP JUMPDEST DIV PUSH1 0x1 ADD SWAP2 POP POP PUSH2 0x1097 JUMP JUMPDEST PUSH1 0x40 MLOAD DUP1 PUSH2 0x120 ADD PUSH1 0x40 MSTORE DUP1 PUSH1 0x0 PUSH1 0x1 PUSH1 0x1 PUSH1 0xA0 SHL SUB AND DUP2 MSTORE PUSH1 0x20 ADD PUSH1 0x0 PUSH1 0xFF AND DUP2 MSTORE PUSH1 0x20 ADD PUSH1 0x0 PUSH1 0x1 PUSH1 0x1 PUSH1 0xA0 SHL SUB AND DUP2 MSTORE PUSH1 0x20 ADD PUSH1 0x0 DUP2 MSTORE PUSH1 0x20 ADD PUSH2 0x12B1 PUSH1 0x40 MLOAD DUP1 PUSH1 0x80 ADD PUSH1 0x40 MSTORE DUP1 PUSH1 0x0 DUP2 MSTORE PUSH1 0x20 ADD PUSH1 0x0 DUP2 MSTORE PUSH1 0x20 ADD PUSH1 0x0 DUP2 MSTORE PUSH1 0x20 ADD PUSH1 0x0 DUP2 MSTORE POP SWAP1 JUMP JUMPDEST DUP2 MSTORE PUSH1 0x20 ADD PUSH1 0x0 DUP2 MSTORE PUSH1 0x20 ADD PUSH1 0x0 DUP2 MSTORE PUSH1 0x20 ADD PUSH1 0x0 DUP2 MSTORE PUSH1 0x20 ADD PUSH1 0x60 DUP2 MSTORE POP SWAP1 JUMP JUMPDEST PUSH1 0x1 PUSH1 0x1 PUSH1 0xA0 SHL SUB DUP2 AND DUP2 EQ PUSH2 0x12E8 JUMPI PUSH1 0x0 DUP1 REVERT JUMPDEST POP JUMP JUMPDEST PUSH1 0x0 DUP1 PUSH1 0x0 DUP1 PUSH1 0x80 DUP6 DUP8 SUB SLT ISZERO PUSH2 0x1301 JUMPI PUSH1 0x0 DUP1 REVERT JUMPDEST DUP5 CALLDATALOAD PUSH2 0x130C DUP2 PUSH2 0x12D3 JUMP JUMPDEST SWAP7 PUSH1 0x20 DUP7 ADD CALLDATALOAD SWAP7 POP PUSH1 0x40 DUP7 ADD CALLDATALOAD SWAP6 PUSH1 0x60 ADD CALLDATALOAD SWAP5 POP SWAP3 POP POP POP JUMP JUMPDEST PUSH1 0x0 PUSH1 0x20 DUP3 DUP5 SUB SLT ISZERO PUSH2 0x1338 JUMPI PUSH1 0x0 DUP1 REVERT JUMPDEST DUP2 CALLDATALOAD PUSH2 0x1343 DUP2 PUSH2 0x12D3 JUMP JUMPDEST SWAP4 SWAP3 POP POP POP JUMP JUMPDEST PUSH1 0x0 DUP2 MLOAD DUP1 DUP5 MSTORE PUSH1 0x20 DUP1 DUP6 ADD SWAP5 POP DUP1 DUP5 ADD PUSH1 0x0 JUMPDEST DUP4 DUP2 LT ISZERO PUSH2 0x139B JUMPI DUP2 MLOAD DUP1 MLOAD PUSH1 0x1 PUSH1 0x1 PUSH1 0xA0 SHL SUB AND DUP9 MSTORE DUP4 DUP2 ADD MLOAD ISZERO ISZERO DUP5 DUP10 ADD MSTORE PUSH1 0x40 SWAP1 DUP2 ADD MLOAD SWAP1 DUP9 ADD MSTORE PUSH1 0x60 SWAP1 SWAP7 ADD SWAP6 SWAP1 DUP3 ADD SWAP1 PUSH1 0x1 ADD PUSH2 0x135E JUMP JUMPDEST POP SWAP5 SWAP6 SWAP5 POP POP POP POP POP JUMP JUMPDEST PUSH1 0x0 DUP2 MLOAD DUP1 DUP5 MSTORE PUSH1 0x20 DUP1 DUP6 ADD DUP1 DUP2 SWAP7 POP DUP4 PUSH1 0x5 SHL DUP2 ADD SWAP2 POP DUP3 DUP7 ADD PUSH1 0x0 JUMPDEST DUP6 DUP2 LT ISZERO PUSH2 0x148E JUMPI DUP3 DUP5 SUB DUP10 MSTORE DUP2 MLOAD DUP1 MLOAD PUSH1 0x1 PUSH1 0x1 PUSH1 0xA0 SHL SUB AND DUP6 MSTORE PUSH2 0x180 DUP2 DUP8 ADD MLOAD PUSH1 0xFF DUP2 AND DUP8 DUP10 ADD MSTORE POP PUSH1 0x40 DUP3 DUP2 ADD MLOAD PUSH1 0x1 PUSH1 0x1 PUSH1 0xA0 SHL SUB DUP2 AND DUP9 DUP4 ADD MSTORE POP POP PUSH1 0x60 DUP3 DUP2 ADD MLOAD DUP8 DUP3 ADD MSTORE PUSH1 0x80 DUP1 DUP5 ADD MLOAD DUP1 MLOAD DUP3 DUP11 ADD MSTORE PUSH1 0x20 DUP2 ADD MLOAD PUSH1 0xA0 DUP11 ADD MSTORE PUSH1 0x40 DUP2 ADD MLOAD PUSH1 0xC0 DUP11 ADD MSTORE SWAP2 DUP3 ADD MLOAD PUSH1 0xE0 DUP10 ADD MSTORE SWAP1 POP POP PUSH1 0xA0 DUP3 ADD MLOAD PUSH2 0x100 DUP2 DUP2 DUP10 ADD MSTORE PUSH1 0xC0 DUP5 ADD MLOAD PUSH2 0x120 DUP10 ADD MSTORE PUSH1 0xE0 DUP5 ADD MLOAD PUSH2 0x140 DUP10 ADD MSTORE DUP1 DUP5 ADD MLOAD SWAP4 POP POP POP DUP1 PUSH2 0x160 DUP8 ADD MSTORE PUSH2 0x147A DUP2 DUP8 ADD DUP4 PUSH2 0x134A JUMP JUMPDEST SWAP11 DUP8 ADD SWAP11 SWAP6 POP POP POP SWAP1 DUP5 ADD SWAP1 PUSH1 0x1 ADD PUSH2 0x13C4 JUMP JUMPDEST POP SWAP2 SWAP8 SWAP7 POP POP POP POP POP POP POP JUMP JUMPDEST PUSH1 0x20 DUP2 MSTORE DUP2 MLOAD PUSH1 0x20 DUP3 ADD MSTORE PUSH1 0x0 PUSH1 0x20 DUP4 ADD MLOAD PUSH1 0x40 DUP1 DUP5 ADD MSTORE PUSH2 0x1155 PUSH1 0x60 DUP5 ADD DUP3 PUSH2 0x13A6 JUMP JUMPDEST PUSH1 0x0 PUSH1 0x20 DUP1 DUP4 MSTORE DUP4 MLOAD DUP1 DUP3 DUP6 ADD MSTORE PUSH1 0x0 JUMPDEST DUP2 DUP2 LT ISZERO PUSH2 0x14ED JUMPI DUP6 DUP2 ADD DUP4 ADD MLOAD DUP6 DUP3 ADD PUSH1 0x40 ADD MSTORE DUP3 ADD PUSH2 0x14D1 JUMP JUMPDEST DUP2 DUP2 GT ISZERO PUSH2 0x14FF JUMPI PUSH1 0x0 PUSH1 0x40 DUP4 DUP8 ADD ADD MSTORE JUMPDEST POP PUSH1 0x1F ADD PUSH1 0x1F NOT AND SWAP3 SWAP1 SWAP3 ADD PUSH1 0x40 ADD SWAP4 SWAP3 POP POP POP JUMP JUMPDEST PUSH1 0x1 PUSH1 0x1 PUSH1 0xA0 SHL SUB DUP4 AND DUP2 MSTORE PUSH1 0xA0 DUP2 ADD PUSH2 0x1343 PUSH1 0x20 DUP4 ADD DUP5 DUP1 MLOAD DUP3 MSTORE PUSH1 0x20 DUP2 ADD MLOAD PUSH1 0x20 DUP4 ADD MSTORE PUSH1 0x40 DUP2 ADD MLOAD PUSH1 0x40 DUP4 ADD MSTORE PUSH1 0x60 DUP2 ADD MLOAD PUSH1 0x60 DUP4 ADD MSTORE POP POP JUMP JUMPDEST PUSH4 0x4E487B71 PUSH1 0xE0 SHL PUSH1 0x0 MSTORE PUSH1 0x32 PUSH1 0x4 MSTORE PUSH1 0x24 PUSH1 0x0 REVERT JUMPDEST PUSH4 0x4E487B71 PUSH1 0xE0 SHL PUSH1 0x0 MSTORE PUSH1 0x11 PUSH1 0x4 MSTORE PUSH1 0x24 PUSH1 0x0 REVERT JUMPDEST PUSH1 0x0 PUSH1 0x0 NOT DUP3 EQ ISZERO PUSH2 0x1593 JUMPI PUSH2 0x1593 PUSH2 0x1569 JUMP JUMPDEST POP PUSH1 0x1 ADD SWAP1 JUMP JUMPDEST PUSH4 0x4E487B71 PUSH1 0xE0 SHL PUSH1 0x0 MSTORE PUSH1 0x41 PUSH1 0x4 MSTORE PUSH1 0x24 PUSH1 0x0 REVERT JUMPDEST PUSH1 0x40 MLOAD PUSH1 0x60 DUP2 ADD PUSH8 0xFFFFFFFFFFFFFFFF DUP2 GT DUP3 DUP3 LT OR ISZERO PUSH2 0x15D3 JUMPI PUSH2 0x15D3 PUSH2 0x159A JUMP JUMPDEST PUSH1 0x40 MSTORE SWAP1 JUMP JUMPDEST PUSH1 0x40 MLOAD PUSH2 0x120 DUP2 ADD PUSH8 0xFFFFFFFFFFFFFFFF DUP2 GT DUP3 DUP3 LT OR ISZERO PUSH2 0x15D3 JUMPI PUSH2 0x15D3 PUSH2 0x159A JUMP JUMPDEST PUSH1 0x40 MLOAD PUSH1 0x1F DUP3 ADD PUSH1 0x1F NOT AND DUP2 ADD PUSH8 0xFFFFFFFFFFFFFFFF DUP2 GT DUP3 DUP3 LT OR ISZERO PUSH2 0x1626 JUMPI PUSH2 0x1626 PUSH2 0x159A JUMP JUMPDEST PUSH1 0x40 MSTORE SWAP2 SWAP1 POP JUMP JUMPDEST PUSH1 0x0 PUSH8 0xFFFFFFFFFFFFFFFF DUP3 GT ISZERO PUSH2 0x1648 JUMPI PUSH2 0x1648 PUSH2 0x159A JUMP JUMPDEST POP PUSH1 0x5 SHL PUSH1 0x20 ADD SWAP1 JUMP JUMPDEST DUP1 MLOAD PUSH2 0x165D DUP2 PUSH2 0x12D3 JUMP JUMPDEST SWAP2 SWAP1 POP JUMP JUMPDEST PUSH1 0x0 PUSH1 0x20 DUP1 DUP4 DUP6 SUB SLT ISZERO PUSH2 0x1675 JUMPI PUSH1 0x0 DUP1 REVERT JUMPDEST DUP3 MLOAD PUSH8 0xFFFFFFFFFFFFFFFF DUP2 GT ISZERO PUSH2 0x168C JUMPI PUSH1 0x0 DUP1 REVERT JUMPDEST DUP4 ADD PUSH1 0x1F DUP2 ADD DUP6 SGT PUSH2 0x169D JUMPI PUSH1 0x0 DUP1 REVERT JUMPDEST DUP1 MLOAD PUSH2 0x16B0 PUSH2 0x16AB DUP3 PUSH2 0x162E JUMP JUMPDEST PUSH2 0x15FD JUMP JUMPDEST DUP2 DUP2 MSTORE PUSH1 0x5 SWAP2 SWAP1 SWAP2 SHL DUP3 ADD DUP4 ADD SWAP1 DUP4 DUP2 ADD SWAP1 DUP8 DUP4 GT ISZERO PUSH2 0x16CF JUMPI PUSH1 0x0 DUP1 REVERT JUMPDEST SWAP3 DUP5 ADD SWAP3 JUMPDEST DUP3 DUP5 LT ISZERO PUSH2 0x16F6 JUMPI DUP4 MLOAD PUSH2 0x16E7 DUP2 PUSH2 0x12D3 JUMP JUMPDEST DUP3 MSTORE SWAP3 DUP5 ADD SWAP3 SWAP1 DUP5 ADD SWAP1 PUSH2 0x16D4 JUMP JUMPDEST SWAP8 SWAP7 POP POP POP POP POP POP POP JUMP JUMPDEST PUSH1 0x0 PUSH1 0x80 DUP3 DUP5 SUB SLT ISZERO PUSH2 0x1713 JUMPI PUSH1 0x0 DUP1 REVERT JUMPDEST PUSH1 0x40 MLOAD PUSH1 0x80 DUP2 ADD DUP2 DUP2 LT PUSH8 0xFFFFFFFFFFFFFFFF DUP3 GT OR ISZERO PUSH2 0x1736 JUMPI PUSH2 0x1736 PUSH2 0x159A JUMP JUMPDEST DUP1 PUSH1 0x40 MSTORE POP DUP1 SWAP2 POP DUP3 MLOAD DUP2 MSTORE PUSH1 0x20 DUP4 ADD MLOAD PUSH1 0x20 DUP3 ADD MSTORE PUSH1 0x40 DUP4 ADD MLOAD PUSH1 0x40 DUP3 ADD MSTORE PUSH1 0x60 DUP4 ADD MLOAD PUSH1 0x60 DUP3 ADD MSTORE POP SWAP3 SWAP2 POP POP JUMP JUMPDEST PUSH1 0x0 PUSH1 0x80 DUP3 DUP5 SUB SLT ISZERO PUSH2 0x1779 JUMPI PUSH1 0x0 DUP1 REVERT JUMPDEST PUSH2 0x1343 DUP4 DUP4 PUSH2 0x1701 JUMP JUMPDEST PUSH1 0x0 PUSH1 0x20 DUP3 DUP5 SUB SLT ISZERO PUSH2 0x1795 JUMPI PUSH1 0x0 DUP1 REVERT JUMPDEST POP MLOAD SWAP2 SWAP1 POP JUMP JUMPDEST PUSH1 0x0 PUSH1 0x20 DUP1 DUP4 DUP6 SUB SLT ISZERO PUSH2 0x17AF JUMPI PUSH1 0x0 DUP1 REVERT JUMPDEST DUP3 MLOAD PUSH8 0xFFFFFFFFFFFFFFFF DUP2 GT ISZERO PUSH2 0x17C6 JUMPI PUSH1 0x0 DUP1 REVERT JUMPDEST DUP4 ADD PUSH1 0x1F DUP2 ADD DUP6 SGT PUSH2 0x17D7 JUMPI PUSH1 0x0 DUP1 REVERT JUMPDEST DUP1 MLOAD PUSH2 0x17E5 PUSH2 0x16AB DUP3 PUSH2 0x162E JUMP JUMPDEST DUP2 DUP2 MSTORE PUSH1 0x5 SWAP2 SWAP1 SWAP2 SHL DUP3 ADD DUP4 ADD SWAP1 DUP4 DUP2 ADD SWAP1 DUP8 DUP4 GT ISZERO PUSH2 0x1804 JUMPI PUSH1 0x0 DUP1 REVERT JUMPDEST SWAP3 DUP5 ADD SWAP3 JUMPDEST DUP3 DUP5 LT ISZERO PUSH2 0x16F6 JUMPI DUP4 MLOAD PUSH2 0x181C DUP2 PUSH2 0x12D3 JUMP JUMPDEST DUP3 MSTORE SWAP3 DUP5 ADD SWAP3 SWAP1 DUP5 ADD SWAP1 PUSH2 0x1809 JUMP JUMPDEST DUP1 MLOAD DUP1 ISZERO ISZERO DUP2 EQ PUSH2 0x165D JUMPI PUSH1 0x0 DUP1 REVERT JUMPDEST PUSH1 0x0 PUSH1 0x20 DUP3 DUP5 SUB SLT ISZERO PUSH2 0x184D JUMPI PUSH1 0x0 DUP1 REVERT JUMPDEST PUSH2 0x1343 DUP3 PUSH2 0x182B JUMP JUMPDEST DUP1 MLOAD PUSH1 0xFF DUP2 AND DUP2 EQ PUSH2 0x165D JUMPI PUSH1 0x0 DUP1 REVERT JUMPDEST PUSH1 0x0 PUSH1 0x20 DUP3 DUP5 SUB SLT ISZERO PUSH2 0x1879 JUMPI PUSH1 0x0 DUP1 REVERT JUMPDEST PUSH2 0x1343 DUP3 PUSH2 0x1856 JUMP JUMPDEST PUSH1 0x0 PUSH1 0x20 DUP3 DUP5 SUB SLT ISZERO PUSH2 0x1894 JUMPI PUSH1 0x0 DUP1 REVERT JUMPDEST DUP2 MLOAD PUSH2 0x1343 DUP2 PUSH2 0x12D3 JUMP JUMPDEST PUSH1 0x20 DUP2 MSTORE PUSH1 0x0 PUSH2 0x1343 PUSH1 0x20 DUP4 ADD DUP5 PUSH2 0x13A6 JUMP JUMPDEST PUSH1 0x0 DUP3 PUSH1 0x1F DUP4 ADD SLT PUSH2 0x18C3 JUMPI PUSH1 0x0 DUP1 REVERT JUMPDEST DUP2 MLOAD PUSH1 0x20 PUSH2 0x18D3 PUSH2 0x16AB DUP4 PUSH2 0x162E JUMP JUMPDEST DUP3 DUP2 MSTORE PUSH1 0x60 SWAP3 DUP4 MUL DUP6 ADD DUP3 ADD SWAP3 DUP3 DUP3 ADD SWAP2 SWAP1 DUP8 DUP6 GT ISZERO PUSH2 0x18F2 JUMPI PUSH1 0x0 DUP1 REVERT JUMPDEST DUP4 DUP8 ADD JUMPDEST DUP6 DUP2 LT ISZERO PUSH2 0x1949 JUMPI DUP2 DUP2 DUP11 SUB SLT ISZERO PUSH2 0x190E JUMPI PUSH1 0x0 DUP1 DUP2 REVERT JUMPDEST PUSH2 0x1916 PUSH2 0x15B0 JUMP JUMPDEST DUP2 MLOAD PUSH2 0x1921 DUP2 PUSH2 0x12D3 JUMP JUMPDEST DUP2 MSTORE PUSH2 0x192E DUP3 DUP8 ADD PUSH2 0x182B JUMP JUMPDEST DUP2 DUP8 ADD MSTORE PUSH1 0x40 DUP3 DUP2 ADD MLOAD SWAP1 DUP3 ADD MSTORE DUP5 MSTORE SWAP3 DUP5 ADD SWAP3 DUP2 ADD PUSH2 0x18F6 JUMP JUMPDEST POP SWAP1 SWAP8 SWAP7 POP POP POP POP POP POP POP JUMP JUMPDEST PUSH1 0x0 PUSH1 0x20 DUP1 DUP4 DUP6 SUB SLT ISZERO PUSH2 0x1969 JUMPI PUSH1 0x0 DUP1 REVERT JUMPDEST DUP3 MLOAD PUSH8 0xFFFFFFFFFFFFFFFF DUP1 DUP3 GT ISZERO PUSH2 0x1981 JUMPI PUSH1 0x0 DUP1 REVERT JUMPDEST DUP2 DUP6 ADD SWAP2 POP DUP6 PUSH1 0x1F DUP4 ADD SLT PUSH2 0x1995 JUMPI PUSH1 0x0 DUP1 REVERT JUMPDEST DUP2 MLOAD PUSH2 0x19A3 PUSH2 0x16AB DUP3 PUSH2 0x162E JUMP JUMPDEST DUP2 DUP2 MSTORE PUSH1 0x5 SWAP2 SWAP1 SWAP2 SHL DUP4 ADD DUP5 ADD SWAP1 DUP5 DUP2 ADD SWAP1 DUP9 DUP4 GT ISZERO PUSH2 0x19C2 JUMPI PUSH1 0x0 DUP1 REVERT JUMPDEST DUP6 DUP6 ADD JUMPDEST DUP4 DUP2 LT ISZERO PUSH2 0x1AA6 JUMPI DUP1 MLOAD DUP6 DUP2 GT ISZERO PUSH2 0x19DE JUMPI PUSH1 0x0 DUP1 DUP2 REVERT JUMPDEST DUP7 ADD PUSH2 0x180 DUP2 DUP13 SUB PUSH1 0x1F NOT ADD DUP2 SGT ISZERO PUSH2 0x19F7 JUMPI PUSH1 0x0 DUP1 DUP2 REVERT JUMPDEST PUSH2 0x19FF PUSH2 0x15D9 JUMP JUMPDEST PUSH2 0x1A0A DUP11 DUP5 ADD PUSH2 0x1652 JUMP JUMPDEST DUP2 MSTORE PUSH1 0x40 PUSH2 0x1A19 DUP2 DUP6 ADD PUSH2 0x1856 JUMP JUMPDEST DUP12 DUP4 ADD MSTORE PUSH1 0x60 PUSH2 0x1A2A DUP2 DUP7 ADD PUSH2 0x1652 JUMP JUMPDEST DUP3 DUP5 ADD MSTORE PUSH1 0x80 SWAP2 POP DUP2 DUP6 ADD MLOAD DUP2 DUP5 ADD MSTORE POP PUSH1 0xA0 PUSH2 0x1A49 DUP16 DUP3 DUP8 ADD PUSH2 0x1701 JUMP JUMPDEST DUP3 DUP5 ADD MSTORE PUSH2 0x120 DUP6 ADD MLOAD DUP2 DUP5 ADD MSTORE POP POP PUSH2 0x140 DUP4 ADD MLOAD PUSH1 0xC0 DUP3 ADD MSTORE PUSH2 0x160 DUP4 ADD MLOAD PUSH1 0xE0 DUP3 ADD MSTORE DUP2 DUP4 ADD MLOAD SWAP2 POP DUP8 DUP3 GT ISZERO PUSH2 0x1A83 JUMPI PUSH1 0x0 DUP1 DUP2 REVERT JUMPDEST PUSH2 0x1A91 DUP14 DUP12 DUP5 DUP7 ADD ADD PUSH2 0x18B2 JUMP JUMPDEST PUSH2 0x100 DUP3 ADD MSTORE DUP6 MSTORE POP POP SWAP2 DUP7 ADD SWAP2 DUP7 ADD PUSH2 0x19C6 JUMP JUMPDEST POP SWAP9 SWAP8 POP POP POP POP POP POP POP POP JUMP JUMPDEST PUSH1 0x0 DUP3 NOT DUP3 GT ISZERO PUSH2 0x1AC6 JUMPI PUSH2 0x1AC6 PUSH2 0x1569 JUMP JUMPDEST POP ADD SWAP1 JUMP JUMPDEST PUSH1 0x0 DUP3 DUP3 LT ISZERO PUSH2 0x1ADD JUMPI PUSH2 0x1ADD PUSH2 0x1569 JUMP JUMPDEST POP SUB SWAP1 JUMP JUMPDEST PUSH1 0x0 DUP2 PUSH1 0x0 NOT DIV DUP4 GT DUP3 ISZERO ISZERO AND ISZERO PUSH2 0x1AFC JUMPI PUSH2 0x1AFC PUSH2 0x1569 JUMP JUMPDEST POP MUL SWAP1 JUMP JUMPDEST PUSH4 0x4E487B71 PUSH1 0xE0 SHL PUSH1 0x0 MSTORE PUSH1 0x12 PUSH1 0x4 MSTORE PUSH1 0x24 PUSH1 0x0 REVERT JUMPDEST PUSH1 0x0 DUP3 PUSH2 0x1B34 JUMPI PUSH4 0x4E487B71 PUSH1 0xE0 SHL PUSH1 0x0 MSTORE PUSH1 0x12 PUSH1 0x4 MSTORE PUSH1 0x24 PUSH1 0x0 REVERT JUMPDEST POP DIV SWAP1 JUMP INVALID LOG2 PUSH5 0x6970667358 0x22 SLT KECCAK256 PUSH12 0x7A2EBB8E70B49A09CF14906B 0xD6 0xFB 0xE2 0xBC 0xB3 0xEB SIGNEXTEND 0xB0 DUP9 0xD0 POP SAR PUSH6 0x8F98EA866FCC PUSH5 0x736F6C6343 STOP ADDMOD EXP STOP CALLER ","sha1":"56f31bdbea38cefef3a973843d57c622a9b03bf3","source":"// SPDX-License-Identifier: LicenseRef-Gyro-1.0\n// for information on licensing please see the README in the GitHub repository <https://github.com/gyrostable/core-protocol>.\npragma solidity ^0.8.4;\n\nimport \"@openzeppelin/contracts/token/ERC20/ERC20.sol\";\n\nimport \"../libraries/FixedPoint.sol\";\nimport \"../libraries/ConfigHelpers.sol\";\nimport \"../libraries/ConfigKeys.sol\";\n\nimport \"../interfaces/IReserveManager.sol\";\nimport \"../interfaces/oracles/IBatchVaultPriceOracle.sol\";\nimport \"../interfaces/IVaultRegistry.sol\";\nimport \"../interfaces/IAssetRegistry.sol\";\nimport \"../interfaces/IGyroConfig.sol\";\nimport \"../interfaces/IGyroVault.sol\";\n\nimport \"./auth/Governable.sol\";\n\ncontract ReserveManager is IReserveManager, Governable {\n    using FixedPoint for uint256;\n    using ConfigHelpers for IGyroConfig;\n\n    IVaultRegistry public immutable vaultRegistry;\n    IAssetRegistry public immutable assetRegistry;\n    address public immutable reserveAddress;\n    IGyroConfig public immutable gyroConfig;\n\n    constructor(address governor, IGyroConfig _gyroConfig) Governable(governor) {\n        vaultRegistry = _gyroConfig.getVaultRegistry();\n        assetRegistry = _gyroConfig.getAssetRegistry();\n        reserveAddress = _gyroConfig.getAddress(ConfigKeys.RESERVE_ADDRESS);\n\n        require(address(vaultRegistry) != address(0), Errors.INVALID_ARGUMENT);\n        require(address(assetRegistry) != address(0), Errors.INVALID_ARGUMENT);\n        require(reserveAddress != address(0), Errors.INVALID_ARGUMENT);\n\n        gyroConfig = _gyroConfig;\n    }\n\n    /// @inheritdoc IReserveManager\n    function getReserveState() public view returns (DataTypes.ReserveState memory) {\n        address[] memory vaultAddresses = vaultRegistry.listVaults();\n        require(vaultAddresses.length > 0, Errors.INVALID_ARGUMENT);\n\n        uint256 length = vaultAddresses.length;\n        DataTypes.VaultInfo[] memory vaultsInfo = new DataTypes.VaultInfo[](length);\n\n        for (uint256 i = 0; i < length; i++) {\n            DataTypes.PersistedVaultMetadata memory persistedMetadata;\n            persistedMetadata = vaultRegistry.getVaultMetadata(vaultAddresses[i]);\n\n            uint256 reserveBalance = IERC20(vaultAddresses[i]).balanceOf(reserveAddress);\n\n            IERC20[] memory tokens = IGyroVault(vaultAddresses[i]).getTokens();\n            DataTypes.PricedToken[] memory pricedTokens = new DataTypes.PricedToken[](\n                tokens.length\n            );\n            for (uint256 j = 0; j < tokens.length; j++) {\n                pricedTokens[j] = DataTypes.PricedToken({\n                    tokenAddress: address(tokens[j]),\n                    isStable: assetRegistry.isAssetStable(address(tokens[j])),\n                    price: 0\n                });\n            }\n\n            vaultsInfo[i] = DataTypes.VaultInfo({\n                vault: vaultAddresses[i],\n                decimals: IERC20Metadata(vaultAddresses[i]).decimals(),\n                underlying: IGyroVault(vaultAddresses[i]).underlying(),\n                persistedMetadata: persistedMetadata,\n                reserveBalance: reserveBalance,\n                price: 0,\n                currentWeight: 0,\n                idealWeight: 0,\n                pricedTokens: pricedTokens\n            });\n        }\n\n        vaultsInfo = gyroConfig.getRootPriceOracle().fetchPricesUSD(vaultsInfo);\n\n        uint256 reserveUSDValue = 0;\n        uint256[] memory usdValues = new uint256[](length);\n\n        for (uint256 i = 0; i < length; i++) {\n            uint256 usdValue = vaultsInfo[i].price.mulDown(vaultsInfo[i].reserveBalance);\n            usdValues[i] = usdValue;\n            reserveUSDValue += usdValue;\n        }\n        for (uint256 i = 0; i < length; i++) {\n            /// Only zero at initialization\n            vaultsInfo[i].currentWeight = reserveUSDValue == 0\n                ? vaultsInfo[i].persistedMetadata.initialWeight\n                : usdValues[i].divDown(reserveUSDValue);\n        }\n\n        uint256 returnsSum = 0;\n        uint256[] memory weightedReturns = new uint256[](length);\n        for (uint256 i = 0; i < length; i++) {\n            uint256 initialPrice = vaultsInfo[i].persistedMetadata.initialPrice;\n            if (initialPrice == 0) continue;\n            weightedReturns[i] = vaultsInfo[i].price.divDown(initialPrice).mulDown(\n                vaultsInfo[i].persistedMetadata.initialWeight\n            );\n            returnsSum += weightedReturns[i];\n        }\n\n        // only 0 at initialization\n        if (returnsSum > 0) {\n            uint256 totalIdealWeight = 0;\n            for (uint256 i = 0; i < length; i++) {\n                uint256 idealWeight = weightedReturns[i].divUp(returnsSum);\n                if (totalIdealWeight + idealWeight > FixedPoint.ONE) {\n                    idealWeight = FixedPoint.ONE - totalIdealWeight;\n                }\n                vaultsInfo[i].idealWeight = idealWeight;\n                totalIdealWeight += idealWeight;\n            }\n        }\n\n        return DataTypes.ReserveState({vaults: vaultsInfo, totalUSDValue: reserveUSDValue});\n    }\n\n    function registerVault(\n        address _addressOfVault,\n        uint256 initialWeight,\n        uint256 shortFlowMemory,\n        uint256 shortFlowThreshold\n    ) external governanceOnly {\n        DataTypes.PersistedVaultMetadata memory persistedVaultMetadata = DataTypes\n            .PersistedVaultMetadata({\n                initialPrice: 0,\n                initialWeight: initialWeight,\n                shortFlowMemory: shortFlowMemory,\n                shortFlowThreshold: shortFlowThreshold\n            });\n\n        vaultRegistry.registerVault(_addressOfVault, persistedVaultMetadata);\n\n        DataTypes.ReserveState memory reserveState = getReserveState();\n        uint256 initialVaultPrice = 0;\n        for (uint256 i = 0; i < reserveState.vaults.length; i++) {\n            if (reserveState.vaults[i].vault == _addressOfVault) {\n                initialVaultPrice = reserveState.vaults[i].price;\n            }\n        }\n        vaultRegistry.setInitialPrice(_addressOfVault, initialVaultPrice);\n    }\n}\n","sourcePath":"contracts/ReserveManager.sol","deployment":{"address":"0x0803e03203ba4f0ccD7A6b52Ba2bC2FbF831DEaF","chainid":"137","blockHeight":38271737}}