{"abi":[{"inputs":[{"internalType":"contract IGyroConfig","name":"_gyroConfig","type":"address"}],"stateMutability":"nonpayable","type":"constructor","name":"constructor"},{"anonymous":false,"inputs":[{"indexed":false,"internalType":"address","name":"oldGovernor","type":"address"},{"indexed":false,"internalType":"address","name":"newGovernor","type":"address"}],"name":"GovernorChanged","type":"event"},{"inputs":[{"internalType":"address","name":"newGovernor","type":"address"}],"name":"changeGovernor","outputs":[],"stateMutability":"nonpayable","type":"function"},{"inputs":[{"components":[{"internalType":"address","name":"inputToken","type":"address"},{"internalType":"uint256","name":"inputAmount","type":"uint256"},{"internalType":"address","name":"destinationVault","type":"address"}],"internalType":"struct DataTypes.MintAsset[]","name":"assets","type":"tuple[]"},{"internalType":"uint256","name":"minReceivedAmount","type":"uint256"}],"name":"dryMint","outputs":[{"internalType":"uint256","name":"mintedGYDAmount","type":"uint256"},{"internalType":"string","name":"err","type":"string"}],"stateMutability":"view","type":"function"},{"inputs":[{"internalType":"uint256","name":"gydToRedeem","type":"uint256"},{"components":[{"internalType":"address","name":"outputToken","type":"address"},{"internalType":"uint256","name":"minOutputAmount","type":"uint256"},{"internalType":"uint256","name":"valueRatio","type":"uint256"},{"internalType":"address","name":"originVault","type":"address"}],"internalType":"struct DataTypes.RedeemAsset[]","name":"assets","type":"tuple[]"}],"name":"dryRedeem","outputs":[{"internalType":"uint256[]","name":"outputAmounts","type":"uint256[]"},{"internalType":"string","name":"err","type":"string"}],"stateMutability":"view","type":"function"},{"inputs":[],"name":"governor","outputs":[{"internalType":"address","name":"","type":"address"}],"stateMutability":"view","type":"function"},{"inputs":[],"name":"gydToken","outputs":[{"internalType":"contract IGYDToken","name":"","type":"address"}],"stateMutability":"view","type":"function"},{"inputs":[],"name":"gyroConfig","outputs":[{"internalType":"contract IGyroConfig","name":"","type":"address"}],"stateMutability":"view","type":"function"},{"inputs":[{"components":[{"internalType":"address","name":"inputToken","type":"address"},{"internalType":"uint256","name":"inputAmount","type":"uint256"},{"internalType":"address","name":"destinationVault","type":"address"}],"internalType":"struct DataTypes.MintAsset[]","name":"assets","type":"tuple[]"},{"internalType":"uint256","name":"minReceivedAmount","type":"uint256"}],"name":"mint","outputs":[{"internalType":"uint256","name":"mintedGYDAmount","type":"uint256"}],"stateMutability":"nonpayable","type":"function"},{"inputs":[],"name":"pamm","outputs":[{"internalType":"contract IPAMM","name":"","type":"address"}],"stateMutability":"view","type":"function"},{"inputs":[{"internalType":"uint256","name":"gydToRedeem","type":"uint256"},{"components":[{"internalType":"address","name":"outputToken","type":"address"},{"internalType":"uint256","name":"minOutputAmount","type":"uint256"},{"internalType":"uint256","name":"valueRatio","type":"uint256"},{"internalType":"address","name":"originVault","type":"address"}],"internalType":"struct DataTypes.RedeemAsset[]","name":"assets","type":"tuple[]"}],"name":"redeem","outputs":[{"internalType":"uint256[]","name":"","type":"uint256[]"}],"stateMutability":"nonpayable","type":"function"},{"inputs":[],"name":"reserve","outputs":[{"internalType":"contract IReserve","name":"","type":"address"}],"stateMutability":"view","type":"function"}],"bytecode":"60e06040523480156200001157600080fd5b50604051620041a1380380620041a183398101604081905262000034916200062b565b600080546001600160a01b0319163390811782556040805192835260208301919091527fde4b3f61490b74c0ed6237523974fe299126bbbf8a8a7482fd220104c59b0c84910160405180910390a16001600160a01b03811660c0819052620000a89062000147602090811b6200103317901c565b6001600160a01b03166080816001600160a01b031681525050620000e0816001600160a01b0316620001d060201b620010b91760201c565b6001600160a01b031660a0816001600160a01b031681525050620001406200011c826001600160a01b03166200021260201b620010fa1760201c565b6000196080516001600160a01b03166200025560201b6200113c179092919060201c565b506200070f565b6040516321f8a72160e01b8152704759445f544f4b454e5f4144445245535360781b60048201526000906001600160a01b038316906321f8a721906024015b602060405180830381865afa158015620001a4573d6000803e3d6000fd5b505050506040513d601f19601f82011682018060405250810190620001ca91906200062b565b92915050565b6040516321f8a72160e01b81526e524553455256455f4144445245535360881b60048201526000906001600160a01b038316906321f8a7219060240162000186565b6040516321f8a72160e01b81526f4645455f42414e4b5f4144445245535360801b60048201526000906001600160a01b038316906321f8a7219060240162000186565b801580620002d35750604051636eb1769f60e11b81523060048201526001600160a01b03838116602483015284169063dd62ed3e90604401602060405180830381865afa158015620002ab573d6000803e3d6000fd5b505050506040513d601f19601f82011682018060405250810190620002d191906200064b565b155b6200034b5760405162461bcd60e51b815260206004820152603660248201527f5361666545524332303a20617070726f76652066726f6d206e6f6e2d7a65726f60448201527f20746f206e6f6e2d7a65726f20616c6c6f77616e63650000000000000000000060648201526084015b60405180910390fd5b604080516001600160a01b038416602482015260448082018490528251808303909101815260649091019091526020810180516001600160e01b0390811663095ea7b360e01b17909152620003a3918591620003a816565b505050565b600062000404826040518060400160405280602081526020017f5361666545524332303a206c6f772d6c6576656c2063616c6c206661696c6564815250856001600160a01b03166200048660201b62001289179092919060201c565b805190915015620003a3578080602001905181019062000425919062000665565b620003a35760405162461bcd60e51b815260206004820152602a60248201527f5361666545524332303a204552433230206f7065726174696f6e20646964206e6044820152691bdd081cdd58d8d9595960b21b606482015260840162000342565b6060620004978484600085620004a1565b90505b9392505050565b606082471015620005045760405162461bcd60e51b815260206004820152602660248201527f416464726573733a20696e73756666696369656e742062616c616e636520666f6044820152651c8818d85b1b60d21b606482015260840162000342565b843b620005545760405162461bcd60e51b815260206004820152601d60248201527f416464726573733a2063616c6c20746f206e6f6e2d636f6e7472616374000000604482015260640162000342565b600080866001600160a01b03168587604051620005729190620006bc565b60006040518083038185875af1925050503d8060008114620005b1576040519150601f19603f3d011682016040523d82523d6000602084013e620005b6565b606091505b509092509050620005c9828286620005d4565b979650505050505050565b60608315620005e55750816200049a565b825115620005f65782518084602001fd5b8160405162461bcd60e51b8152600401620003429190620006da565b6001600160a01b03811681146200062857600080fd5b50565b6000602082840312156200063e57600080fd5b81516200049a8162000612565b6000602082840312156200065e57600080fd5b5051919050565b6000602082840312156200067857600080fd5b815180151581146200049a57600080fd5b60005b83811015620006a65781810151838201526020016200068c565b83811115620006b6576000848401525b50505050565b60008251620006d081846020870162000689565b9190910192915050565b6020815260008251806020840152620006fb81604085016020870162000689565b601f01601f19169190910160400192915050565b60805160a05160c0516139c2620007df6000396000818160f9015281816101fe015281816102a9015281816103d40152818161065c0152818161078a015281816108400152818161098501528181610ab501528181610b5c01528181610c3f01528181610cea01528181610d9001528181610f140152818161130b015281816118300152818161198a0152611b1301526000818161018a01528181610378015281816123a701526126d60152600081816101c601528181610565015281816105d6015261091a01526139c26000f3fe608060405234801561001057600080fd5b506004361061009e5760003560e01c80636235c404116100665780636235c4041461015c57806385b0c7811461017d578063cd3293de14610185578063e4c0aaf4146101ac578063fbf60028146101c157600080fd5b80630c340a24146100a35780632799c6cf146100d357806344bbdb55146100f45780634d8ca4c51461011b5780634e4d822a1461013c575b600080fd5b6000546100b6906001600160a01b031681565b6040516001600160a01b0390911681526020015b60405180910390f35b6100e66100e1366004612dcb565b6101e8565b6040519081526020016100ca565b6100b67f000000000000000000000000000000000000000000000000000000000000000081565b61012e610129366004612e45565b61060e565b6040516100ca929190612f56565b61014f61014a366004612e45565b6108fb565b6040516100ca9190612f84565b61016f61016a366004612dcb565b610c12565b6040516100ca929190612f97565b6100b6610eed565b6100b67f000000000000000000000000000000000000000000000000000000000000000081565b6101bf6101ba366004612fc8565b610f8c565b005b6100b67f000000000000000000000000000000000000000000000000000000000000000081565b6000806101f585856112a0565b9050600061022b7f00000000000000000000000000000000000000000000000000000000000000006001600160a01b03166113d4565b6001600160a01b031663ef5bac256040518163ffffffff1660e01b8152600401600060405180830381865afa158015610268573d6000803e3d6000fd5b505050506040513d6000823e601f3d908101601f19168201604052610290919081019061325e565b905060006102a2838360200151611423565b90506102d67f00000000000000000000000000000000000000000000000000000000000000006001600160a01b031661152a565b6001600160a01b0316638d404e98826040518263ffffffff1660e01b81526004016103019190613393565b6000604051808303816000875af1158015610320573d6000803e3d6000fd5b505050506040513d6000823e601f3d908101601f19168201604052610348919081019061350c565b5060005b83518110156103cc57600084828151811061036957610369613540565b602002602001015190506103b97f0000000000000000000000000000000000000000000000000000000000000000826020015183600001516001600160a01b03166115799092919063ffffffff16565b50806103c48161356c565b91505061034c565b5060006104017f00000000000000000000000000000000000000000000000000000000000000006001600160a01b03166115a9565b6001600160a01b031663ded9d02b836040518263ffffffff1660e01b815260040161042c9190613393565b600060405180830381865afa158015610449573d6000803e3d6000fd5b505050506040513d6000823e601f3d908101601f191682016040526104719190810190613597565b9050600061047e826115ee565b9050600061048a610eed565b8551604051630d9778e560e11b81526004810185905260248101919091526001600160a01b039190911690631b2ef1ca906044016020604051808303816000875af11580156104dd573d6000803e3d6000fd5b505050506040513d601f19601f8201168201806040525081019061050191906136c3565b905087811015604051806040016040528060018152602001601960f91b815250906105485760405162461bcd60e51b815260040161053f91906136dc565b60405180910390fd5b506040516340c10f1960e01b8152306004820152602481018290527f00000000000000000000000000000000000000000000000000000000000000006001600160a01b0316906340c10f1990604401600060405180830381600087803b1580156105b157600080fd5b505af11580156105c5573d6000803e3d6000fd5b506105ff9250506001600160a01b037f00000000000000000000000000000000000000000000000000000000000000001690503383611579565b955050505050505b9392505050565b606080826001600160401b0381111561062957610629612fe5565b604051908082528060200260200182016040528015610652578160200160208202803683370190505b50915060006106897f00000000000000000000000000000000000000000000000000000000000000006001600160a01b03166113d4565b6001600160a01b031663ef5bac256040518163ffffffff1660e01b8152600401600060405180830381865afa1580156106c6573d6000803e3d6000fd5b505050506040513d6000823e601f3d908101601f191682016040526106ee919081019061325e565b905060006106fa610eed565b8251604051631c76d8fb60e21b8152600481018a905260248101919091526001600160a01b0391909116906371db63ec90604401602060405180830381865afa15801561074b573d6000803e3d6000fd5b505050506040513d601f19601f8201168201806040525081019061076f91906136c3565b90506000610783828888866020015161167a565b90506107b77f00000000000000000000000000000000000000000000000000000000000000006001600160a01b031661152a565b6001600160a01b03166329c97771826040518263ffffffff1660e01b81526004016107e29190613393565b600060405180830381865afa1580156107ff573d6000803e3d6000fd5b505050506040513d6000823e601f3d908101601f19168201604052610827919081019061350c565b805190945015610839575050506108f3565b600061086d7f00000000000000000000000000000000000000000000000000000000000000006001600160a01b03166115a9565b6001600160a01b031663ded9d02b836040518263ffffffff1660e01b81526004016108989190613393565b600060405180830381865afa1580156108b5573d6000803e3d6000fd5b505050506040513d6000823e601f3d908101601f191682016040526108dd9190810190613597565b90506108ea8888836117e2565b95509550505050505b935093915050565b60405163079cc67960e41b8152336004820152602481018490526060907f00000000000000000000000000000000000000000000000000000000000000006001600160a01b0316906379cc679090604401600060405180830381600087803b15801561096657600080fd5b505af115801561097a573d6000803e3d6000fd5b5050505060006109b27f00000000000000000000000000000000000000000000000000000000000000006001600160a01b03166113d4565b6001600160a01b031663ef5bac256040518163ffffffff1660e01b8152600401600060405180830381865afa1580156109ef573d6000803e3d6000fd5b505050506040513d6000823e601f3d908101601f19168201604052610a17919081019061325e565b90506000610a23610eed565b8251604051637cbc237360e01b81526004810189905260248101919091526001600160a01b039190911690637cbc2373906044016020604051808303816000875af1158015610a76573d6000803e3d6000fd5b505050506040513d601f19601f82011682018060405250810190610a9a91906136c3565b90506000610aae828787866020015161167a565b9050610ae27f00000000000000000000000000000000000000000000000000000000000000006001600160a01b031661152a565b6001600160a01b031663c4ea1209826040518263ffffffff1660e01b8152600401610b0d9190613393565b6000604051808303816000875af1158015610b2c573d6000803e3d6000fd5b505050506040513d6000823e601f3d908101601f19168201604052610b54919081019061350c565b506000610b897f00000000000000000000000000000000000000000000000000000000000000006001600160a01b03166115a9565b6001600160a01b031663ded9d02b836040518263ffffffff1660e01b8152600401610bb49190613393565b600060405180830381865afa158015610bd1573d6000803e3d6000fd5b505050506040513d6000823e601f3d908101601f19168201604052610bf99190810190613597565b9050610c0687878361193d565b98975050505050505050565b6000606080610c218686611aa9565b805190935090915015610c385760009250506108f3565b6000610c6c7f00000000000000000000000000000000000000000000000000000000000000006001600160a01b03166113d4565b6001600160a01b031663ef5bac256040518163ffffffff1660e01b8152600401600060405180830381865afa158015610ca9573d6000803e3d6000fd5b505050506040513d6000823e601f3d908101601f19168201604052610cd1919081019061325e565b90506000610ce3838360200151611423565b9050610d177f00000000000000000000000000000000000000000000000000000000000000006001600160a01b031661152a565b6001600160a01b031663071231cf826040518263ffffffff1660e01b8152600401610d429190613393565b600060405180830381865afa158015610d5f573d6000803e3d6000fd5b505050506040513d6000823e601f3d908101601f19168201604052610d87919081019061350c565b93506000610dbd7f00000000000000000000000000000000000000000000000000000000000000006001600160a01b03166115a9565b6001600160a01b031663ded9d02b836040518263ffffffff1660e01b8152600401610de89190613393565b600060405180830381865afa158015610e05573d6000803e3d6000fd5b505050506040513d6000823e601f3d908101601f19168201604052610e2d9190810190613597565b90506000610e3a826115ee565b9050610e44610eed565b845160405163616a1ed960e01b81526004810184905260248101919091526001600160a01b03919091169063616a1ed990604401602060405180830381865afa158015610e95573d6000803e3d6000fd5b505050506040513d601f19601f82011682018060405250810190610eb991906136c3565b965087871015610ee057604051806040016040528060018152602001601960f91b81525095505b5050505050935093915050565b6040516321f8a72160e01b81526b50414d4d5f4144445245535360a01b60048201526000907f00000000000000000000000000000000000000000000000000000000000000006001600160a01b0316906321f8a72190602401602060405180830381865afa158015610f63573d6000803e3d6000fd5b505050506040513d601f19601f82011682018060405250810190610f8791906136ef565b905090565b600054604080518082019091526002815261033360f41b6020820152906001600160a01b03163314610fd15760405162461bcd60e51b815260040161053f91906136dc565b50600080546001600160a01b038381166001600160a01b031983168117909355604080519190921680825260208201939093527fde4b3f61490b74c0ed6237523974fe299126bbbf8a8a7482fd220104c59b0c84910160405180910390a15050565b6040516321f8a72160e01b8152704759445f544f4b454e5f4144445245535360781b60048201526000906001600160a01b038316906321f8a721906024015b602060405180830381865afa15801561108f573d6000803e3d6000fd5b505050506040513d601f19601f820116820180604052508101906110b391906136ef565b92915050565b6040516321f8a72160e01b81526e524553455256455f4144445245535360881b60048201526000906001600160a01b038316906321f8a72190602401611072565b6040516321f8a72160e01b81526f4645455f42414e4b5f4144445245535360801b60048201526000906001600160a01b038316906321f8a72190602401611072565b8015806111b65750604051636eb1769f60e11b81523060048201526001600160a01b03838116602483015284169063dd62ed3e90604401602060405180830381865afa158015611190573d6000803e3d6000fd5b505050506040513d601f19601f820116820180604052508101906111b491906136c3565b155b6112215760405162461bcd60e51b815260206004820152603660248201527f5361666545524332303a20617070726f76652066726f6d206e6f6e2d7a65726f60448201527520746f206e6f6e2d7a65726f20616c6c6f77616e636560501b606482015260840161053f565b6040516001600160a01b03831660248201526044810182905261128490849063095ea7b360e01b906064015b60408051601f198184030181529190526020810180516001600160e01b03166001600160e01b031990931692909217909152611bf6565b505050565b60606112988484600085611cc8565b949350505050565b60606000826001600160401b038111156112bc576112bc612fe5565b60405190808252806020026020018201604052801561130157816020015b60408051808201909152600080825260208201528152602001906001900390816112da5790505b50905060006113387f00000000000000000000000000000000000000000000000000000000000000006001600160a01b0316611df0565b905060005b848110156113ca573686868381811061135857611358613540565b9050606002019050604051806040016040528082604001602081019061137e9190612fc8565b6001600160a01b031681526020016113968386611e3f565b8152508483815181106113ab576113ab613540565b60200260200101819052505080806113c29061356c565b91505061133d565b5090949350505050565b6040516321f8a72160e01b81527f524553455256455f4d414e414745525f4144445245535300000000000000000060048201526000906001600160a01b038316906321f8a72190602401611072565b6040805180820190915260608152600060208201526000604051806040016040528084516001600160401b0381111561145e5761145e612fe5565b60405190808252806020026020018201604052801561149757816020015b611484612d31565b81526020019060019003908161147c5790505b5081526001602090910152905060005b83518110156115225760008482815181106114c4576114c4613540565b6020026020010151905060405180604001604052808281526020016114ed8360000151896120ec565b9052835180518490811061150357611503613540565b602002602001018190525050808061151a9061356c565b9150506114a7565b509392505050565b6040516321f8a72160e01b81527f524f4f545f5341464554595f434845434b5f414444524553530000000000000060048201526000906001600160a01b038316906321f8a72190602401611072565b6040516001600160a01b03831660248201526044810182905261128490849063a9059cbb60e01b9060640161124d565b6040516321f8a72160e01b8152724645455f48414e444c45525f4144445245535360681b60048201526000906001600160a01b038316906321f8a72190602401611072565b6000805b8251518110156116745760008360000151828151811061161457611614613540565b60200260200101519050600061163f826000015160200151836020015161215f90919063ffffffff16565b8251604001519091506116539082906121c7565b61165d908561370c565b93505050808061166c9061356c565b9150506115f2565b50919050565b6040805180820190915260608152600060208201526000604051806040016040528084516001600160401b038111156116b5576116b5612fe5565b6040519080825280602002602001820160405280156116ee57816020015b6116db612d31565b8152602001906001900390816116d35790505b5081526020016000151581525090506000805b845181101561179457600085828151811061171e5761171e613540565b60200260200101519050600080611737838c8c8c6121e8565b9092509050611746818661370c565b94506040518060400160405280848152602001838152508660000151858151811061177357611773613540565b6020026020010181905250505050808061178c9061356c565b915050611701565b50604080518082019091526002815261333160f01b6020820152670de0b6b3a764000082146117d65760405162461bcd60e51b815260040161053f91906136dc565b50909695505050505050565b606080836001600160401b038111156117fd576117fd612fe5565b604051908082528060200260200182016040528015611826578160200160208202803683370190505b509150600061185d7f00000000000000000000000000000000000000000000000000000000000000006001600160a01b0316611df0565b905060005b85811015611933573687878381811061187d5761187d613540565b905060800201905060006118a787600001518360600160208101906118a29190612fc8565b6122ce565b905060006118b683838761233b565b8051909750909150156118cd5750505050506108f3565b82602001358110156118fe5750506040805180820190915260018152601960f91b602082015293506108f392505050565b8087858151811061191157611911613540565b602002602001018181525050505050808061192b9061356c565b915050611862565b5050935093915050565b6060826001600160401b0381111561195757611957612fe5565b604051908082528060200260200182016040528015611980578160200160208202803683370190505b50905060006119b77f00000000000000000000000000000000000000000000000000000000000000006001600160a01b0316611df0565b905060005b84811015611aa05760008686838181106119d8576119d8613540565b9050608002018036038101906119ee9190613724565b90506000611a04866000015183606001516122ce565b90506000611a138383876126a7565b90508260200151811015604051806040016040528060018152602001601960f91b81525090611a555760405162461bcd60e51b815260040161053f91906136dc565b5080868581518110611a6957611a69613540565b60209081029190910101528251611a8a906001600160a01b03163383611579565b5050508080611a989061356c565b9150506119bc565b50509392505050565b606080826001600160401b03811115611ac457611ac4612fe5565b604051908082528060200260200182016040528015611b0957816020015b6040805180820190915260008082526020820152815260200190600190039081611ae25790505b5091506000611b407f00000000000000000000000000000000000000000000000000000000000000006001600160a01b0316611df0565b905060005b84811015611bec5736868683818110611b6057611b60613540565b90506060020190506000611b748285612960565b805190965090915015611b8a5750505050611bef565b6040518060400160405280836040016020810190611ba89190612fc8565b6001600160a01b0316815260200182815250868481518110611bcc57611bcc613540565b602002602001018190525050508080611be49061356c565b915050611b45565b50505b9250929050565b6000611c4b826040518060400160405280602081526020017f5361666545524332303a206c6f772d6c6576656c2063616c6c206661696c6564815250856001600160a01b03166112899092919063ffffffff16565b8051909150156112845780806020019051810190611c699190613798565b6112845760405162461bcd60e51b815260206004820152602a60248201527f5361666545524332303a204552433230206f7065726174696f6e20646964206e6044820152691bdd081cdd58d8d9595960b21b606482015260840161053f565b606082471015611d295760405162461bcd60e51b815260206004820152602660248201527f416464726573733a20696e73756666696369656e742062616c616e636520666f6044820152651c8818d85b1b60d21b606482015260840161053f565b843b611d775760405162461bcd60e51b815260206004820152601d60248201527f416464726573733a2063616c6c20746f206e6f6e2d636f6e7472616374000000604482015260640161053f565b600080866001600160a01b03168587604051611d9391906137b3565b60006040518083038185875af1925050503d8060008114611dd0576040519150601f19603f3d011682016040523d82523d6000602084013e611dd5565b606091505b5091509150611de5828286612c13565b979650505050505050565b6040516321f8a72160e01b81527f45584348414e4745525f52454749535452595f4144445245535300000000000060048201526000906001600160a01b038316906321f8a72190602401611072565b600080611e526060850160408601612fc8565b9050611e7b333060208701803590611e6a9089612fc8565b6001600160a01b0316929190612c4c565b6001600160a01b038116611e926020860186612fc8565b6001600160a01b03161415611ead57505060208201356110b3565b600080826001600160a01b0316636f307dc36040518163ffffffff1660e01b8152600401602060405180830381865afa158015611eee573d6000803e3d6000fd5b505050506040513d601f19601f82011682018060405250810190611f1291906136ef565b90506001600160a01b038116611f2b6020880188612fc8565b6001600160a01b03161415611f46578560200135915061205c565b60405163150f4f5160e01b81526001600160a01b0382811660048301526000919087169063150f4f5190602401602060405180830381865afa158015611f90573d6000803e3d6000fd5b505050506040513d601f19601f82011682018060405250810190611fb491906136ef565b9050806001600160a01b0316635c7a2a8060405180604001604052808a6000016020810190611fe39190612fc8565b6001600160a01b031681526020018a602001358152506040518263ffffffff1660e01b815260040161201591906137cf565b6020604051808303816000875af1158015612034573d6000803e3d6000fd5b505050506040513d601f19601f8201168201806040525081019061205891906136c3565b9250505b6120706001600160a01b038216848461113c565b604051631c57762b60e31b815260048101839052600060248201526001600160a01b0384169063e2bbb158906044016020604051808303816000875af11580156120be573d6000803e3d6000fd5b505050506040513d601f19601f820116820180604052508101906120e291906136c3565b9695505050505050565b6000805b825181101561215557600083828151811061210d5761210d613540565b60200260200101519050846001600160a01b031681600001516001600160a01b03161415612142576020015191506110b39050565b508061214d8161356c565b9150506120f0565b5060009392505050565b600060ff8216601214156121745750816110b3565b601260ff831611156121a75761218b6012836137ef565b61219690600a6138f6565b6121a09084613905565b90506110b3565b6121b28260126137ef565b6121bd90600a6138f6565b6121a09084613927565b6000806121d48385613927565b9050611298670de0b6b3a764000082613905565b60008060005b838110156122bc57600085858381811061220a5761220a613540565b9050608002018036038101906122209190613724565b905087600001516001600160a01b031681606001516001600160a01b031614156122a957600061225d8260400151896121c790919063ffffffff16565b905060006122788a6040015183612c8a90919063ffffffff16565b905060006122938b6020015183612cfa90919063ffffffff16565b90508084604001519650965050505050506122c5565b50806122b48161356c565b9150506121ee565b50600080915091505b94509492505050565b6000805b83518110156121555760008482815181106122ef576122ef613540565b60200260200101519050836001600160a01b03168160000151600001516001600160a01b03161415612328576020015191506110b39050565b50806123338161356c565b9150506122d2565b600060608161234f60808701878401612fc8565b90506001600160a01b0381166123686020880188612fc8565b6001600160a01b031614156123905750506040805160208101909152600081528391506108f3565b6040516370a0823160e01b81526001600160a01b037f00000000000000000000000000000000000000000000000000000000000000008116600483015260009182918416906370a0823190602401602060405180830381865afa1580156123fb573d6000803e3d6000fd5b505050506040513d601f19601f8201168201806040525081019061241f91906136c3565b905086811015612452576000604051806040016040528060028152602001610ccd60f21b815250945094505050506108f3565b60405163cc04feff60e01b815260048101889052600060248201526001600160a01b0384169063cc04feff90604401600060405180830381865afa15801561249e573d6000803e3d6000fd5b505050506040513d6000823e601f3d908101601f191682016040526124c69190810190613946565b8051909550909250156124df57600094505050506108f3565b6000836001600160a01b0316636f307dc36040518163ffffffff1660e01b8152600401602060405180830381865afa15801561251f573d6000803e3d6000fd5b505050506040513d601f19601f8201168201806040525081019061254391906136ef565b90506001600160a01b03811661255c60208b018b612fc8565b6001600160a01b0316141561258957826040518060200160405280600081525095509550505050506108f3565b60405163150f4f5160e01b81526001600160a01b0382811660048301526000919089169063150f4f5190602401602060405180830381865afa1580156125d3573d6000803e3d6000fd5b505050506040513d601f19601f820116820180604052508101906125f791906136ef565b9050806001600160a01b03166374e5357760405180604001604052808d60000160208101906126269190612fc8565b6001600160a01b03168152602001878152506040518263ffffffff1660e01b815260040161265491906137cf565b600060405180830381865afa158015612671573d6000803e3d6000fd5b505050506040513d6000823e601f3d908101601f191682016040526126999190810190613946565b9650965050505050506108f3565b60608301516040516313c5035360e31b81526001600160a01b03808316600483015260248201859052600092917f000000000000000000000000000000000000000000000000000000000000000090911690639e281a9890604401600060405180830381600087803b15801561271c57600080fd5b505af1158015612730573d6000803e3d6000fd5b50505050806001600160a01b031685600001516001600160a01b0316141561275b5783915050610607565b604051630441a3e760e41b815260048101859052600060248201819052906001600160a01b0383169063441a3e70906044016020604051808303816000875af11580156127ac573d6000803e3d6000fd5b505050506040513d601f19601f820116820180604052508101906127d091906136c3565b90506000826001600160a01b0316636f307dc36040518163ffffffff1660e01b8152600401602060405180830381865afa158015612812573d6000803e3d6000fd5b505050506040513d601f19601f8201168201806040525081019061283691906136ef565b9050806001600160a01b031687600001516001600160a01b03161415612860575091506106079050565b60405163150f4f5160e01b81526001600160a01b0382811660048301526000919087169063150f4f5190602401602060405180830381865afa1580156128aa573d6000803e3d6000fd5b505050506040513d601f19601f820116820180604052508101906128ce91906136ef565b6040805180820182528a516001600160a01b039081168252602082018790529151633c56541760e01b815292935090831691633c56541791612912916004016137cf565b6020604051808303816000875af1158015612931573d6000803e3d6000fd5b505050506040513d601f19601f8201168201806040525081019061295591906136c3565b945050505050610607565b6000606061297384820160408601612fc8565b6001600160a01b03166129896020860186612fc8565b6001600160a01b031614156129b65783602001356040518060200160405280600081525091509150611bef565b60006129c86060860160408701612fc8565b90506000816001600160a01b0316636f307dc36040518163ffffffff1660e01b8152600401602060405180830381865afa158015612a0a573d6000803e3d6000fd5b505050506040513d601f19601f82011682018060405250810190612a2e91906136ef565b905060006001600160a01b038216612a496020890189612fc8565b6001600160a01b03161415612a6357506020860135612b93565b60405163150f4f5160e01b81526001600160a01b0383811660048301526000919088169063150f4f5190602401602060405180830381865afa158015612aad573d6000803e3d6000fd5b505050506040513d601f19601f82011682018060405250810190612ad191906136ef565b9050806001600160a01b031663ecc05a5b60405180604001604052808b6000016020810190612b009190612fc8565b6001600160a01b031681526020018b602001358152506040518263ffffffff1660e01b8152600401612b3291906137cf565b600060405180830381865afa158015612b4f573d6000803e3d6000fd5b505050506040513d6000823e601f3d908101601f19168201604052612b779190810190613946565b805190965090925015612b91576000955050505050611bef565b505b604051632a8695b160e11b815260048101829052600060248201526001600160a01b0384169063550d2b6290604401600060405180830381865afa158015612bdf573d6000803e3d6000fd5b505050506040513d6000823e601f3d908101601f19168201604052612c079190810190613946565b94509450505050611bef565b60608315612c22575081610607565b825115612c325782518084602001fd5b8160405162461bcd60e51b815260040161053f91906136dc565b6040516001600160a01b0380851660248301528316604482015260648101829052612c849085906323b872dd60e01b9060840161124d565b50505050565b604080518082019091526002815261323560f01b602082015260009082612cc45760405162461bcd60e51b815260040161053f91906136dc565b5082612cd2575060006110b3565b6000612ce6670de0b6b3a764000085613927565b9050612cf28382613905565b9150506110b3565b600060ff821660121415612d0f5750816110b3565b601260ff83161115612d26576121b26012836137ef565b61218b8260126137ef565b6040518060400160405280612d44612d51565b8152602001600081525090565b60405180610100016040528060006001600160a01b03168152602001600060ff16815260200160008152602001612da96040518060800160405280600081526020016000815260200160008152602001600081525090565b8152602001600081526020016000815260200160008152602001606081525090565b600080600060408486031215612de057600080fd5b83356001600160401b0380821115612df757600080fd5b818601915086601f830112612e0b57600080fd5b813581811115612e1a57600080fd5b876020606083028501011115612e2f57600080fd5b6020928301989097509590910135949350505050565b600080600060408486031215612e5a57600080fd5b8335925060208401356001600160401b0380821115612e7857600080fd5b818601915086601f830112612e8c57600080fd5b813581811115612e9b57600080fd5b8760208260071b8501011115612eb057600080fd5b6020830194508093505050509250925092565b600081518084526020808501945080840160005b83811015612ef357815187529582019590820190600101612ed7565b509495945050505050565b60005b83811015612f19578181015183820152602001612f01565b83811115612c845750506000910152565b60008151808452612f42816020860160208601612efe565b601f01601f19169290920160200192915050565b604081526000612f696040830185612ec3565b8281036020840152612f7b8185612f2a565b95945050505050565b6020815260006106076020830184612ec3565b8281526040602082015260006112986040830184612f2a565b6001600160a01b0381168114612fc557600080fd5b50565b600060208284031215612fda57600080fd5b813561060781612fb0565b634e487b7160e01b600052604160045260246000fd5b604080519081016001600160401b038111828210171561301d5761301d612fe5565b60405290565b60405161010081016001600160401b038111828210171561301d5761301d612fe5565b604051601f8201601f191681016001600160401b038111828210171561306e5761306e612fe5565b604052919050565b60006001600160401b0382111561308f5761308f612fe5565b5060051b60200190565b80516130a481612fb0565b919050565b805160ff811681146130a457600080fd5b6000608082840312156130cc57600080fd5b604051608081018181106001600160401b03821117156130ee576130ee612fe5565b8060405250809150825181526020830151602082015260408301516040820152606083015160608201525092915050565b600082601f83011261313057600080fd5b8151602061314561314083613076565b613046565b82815260069290921b8401810191818101908684111561316457600080fd5b8286015b848110156131ac57604081890312156131815760008081fd5b613189612ffb565b815161319481612fb0565b81528185015185820152835291830191604001613168565b509695505050505050565b600061016082840312156131ca57600080fd5b6131d2613023565b90506131dd82613099565b81526131eb602083016130a9565b60208201526040820151604082015261320783606084016130ba565b606082015260e0820151608082015261010082015160a082015261012082015160c08201526101408201516001600160401b0381111561324657600080fd5b6132528482850161311f565b60e08301525092915050565b6000602080838503121561327157600080fd5b82516001600160401b038082111561328857600080fd5b908401906040828703121561329c57600080fd5b6132a4612ffb565b8251815283830151828111156132b957600080fd5b80840193505086601f8401126132ce57600080fd5b82516132dc61314082613076565b81815260059190911b840185019085810190898311156132fb57600080fd5b8686015b83811015613333578051868111156133175760008081fd5b6133258c8a838b01016131b7565b8452509187019187016132ff565b5095830195909552509695505050505050565b600081518084526020808501945080840160005b83811015612ef35761338087835180516001600160a01b03168252602090810151910152565b604096909601959082019060010161335a565b600060208083526060808401855160408085880152828251808552608094508489019150848160051b8a0101878501945060005b8281101561348e57607f198b83030184528551805186845280516001600160a01b0316878501528a81015160ff81168b8601525080870151848a015289810151805160a080870191909152602082015160c0870152604082015160e08701526060820151610100870152828b01516101208701528201516101408601525060c08101516101608086019190915260e0909101516101808501919091526134716101a0850182613346565b918b0151938b0193909352958901959389019391506001016133c7565b50968a0151801515848b0152969a9950505050505050505050565b600082601f8301126134ba57600080fd5b81516001600160401b038111156134d3576134d3612fe5565b6134e6601f8201601f1916602001613046565b8181528460208386010111156134fb57600080fd5b611298826020830160208701612efe565b60006020828403121561351e57600080fd5b81516001600160401b0381111561353457600080fd5b611298848285016134a9565b634e487b7160e01b600052603260045260246000fd5b634e487b7160e01b600052601160045260246000fd5b600060001982141561358057613580613556565b5060010190565b805180151581146130a457600080fd5b600060208083850312156135aa57600080fd5b82516001600160401b03808211156135c157600080fd5b90840190604082870312156135d557600080fd5b6135dd612ffb565b8251828111156135ec57600080fd5b8301601f810188136135fd57600080fd5b805161360b61314082613076565b81815260059190911b8201860190868101908a83111561362a57600080fd5b8784015b838110156136a0578051878111156136465760008081fd5b85016040818e03601f1901121561365d5760008081fd5b613665612ffb565b8a820151898111156136775760008081fd5b6136858f8d838601016131b7565b825250604091909101518a820152835291880191880161362e565b508452506136b2915050838501613587565b848201528094505050505092915050565b6000602082840312156136d557600080fd5b5051919050565b6020815260006106076020830184612f2a565b60006020828403121561370157600080fd5b815161060781612fb0565b6000821982111561371f5761371f613556565b500190565b60006080828403121561373657600080fd5b604051608081018181106001600160401b038211171561375857613758612fe5565b604052823561376681612fb0565b808252506020830135602082015260408301356040820152606083013561378c81612fb0565b60608201529392505050565b6000602082840312156137aa57600080fd5b61060782613587565b600082516137c5818460208701612efe565b9190910192915050565b81516001600160a01b0316815260208083015190820152604081016110b3565b600060ff821660ff84168082101561380957613809613556565b90039392505050565b600181815b8085111561384d57816000190482111561383357613833613556565b8085161561384057918102915b93841c9390800290613817565b509250929050565b600082613864575060016110b3565b81613871575060006110b3565b81600181146138875760028114613891576138ad565b60019150506110b3565b60ff8411156138a2576138a2613556565b50506001821b6110b3565b5060208310610133831016604e8410600b84101617156138d0575081810a6110b3565b6138da8383613812565b80600019048211156138ee576138ee613556565b029392505050565b600061060760ff841683613855565b60008261392257634e487b7160e01b600052601260045260246000fd5b500490565b600081600019048311821515161561394157613941613556565b500290565b6000806040838503121561395957600080fd5b8251915060208301516001600160401b0381111561397657600080fd5b613982858286016134a9565b915050925092905056fea26469706673582212208005acc52a473189f9d68d160b837ad948e7d589cb3275fc6eb410fc08c0fe5964736f6c634300080a0033","bytecodeSha1":"b9516a9301b5550f27df287f8a9a0ab920dbf8f6","compiler":{"evm_version":"istanbul","optimizer":{"enabled":true,"runs":200},"version":"0.8.10+commit.fc410830"},"contractName":"Motherboard","language":"Solidity","natspec":{"kind":"dev","methods":{"changeGovernor(address)":{"notice":"Changes the governor can only be called by the current governor"},"dryMint((address,uint256,address)[],uint256)":{"notice":"Simulates a mint to know whether it would succeed and how much would be minted The parameters are the same as the `mint` function","params":{"assets":"the assets and associated amounts used to mint GYD","minReceivedAmount":"the minimum amount of GYD to be minted"},"returns":{"err":"a non-empty error message in case an error would happen when minting","mintedGYDAmount":"the amount that would be minted, or 0 if it an error would occur"}},"dryRedeem(uint256,(address,uint256,uint256,address)[])":{"notice":"Dry version of the `redeem` function exact outputs as specified by `tokens` and `amounts`","params":{"assets":"the output tokens and associated amounts to return against GYD","gydToRedeem":"the maximum amount of GYD to redeem"},"returns":{"err":"a non-empty error message in case an error would happen when redeeming","outputAmounts":"the amounts receivd against the redeemed GYD"}},"governor()":{"notice":"Returns the current governor"},"gyroConfig()":{"notice":"Returns the address of the global configuration"},"mint((address,uint256,address)[],uint256)":{"notice":"Main minting function to be called by a depositor This mints using the exact input amount and mints at least `minMintedAmount` All the `inputTokens` should be approved for the motherboard to spend at least `inputAmounts` on behalf of the sender","params":{"assets":"the assets and associated amounts used to mint GYD","minReceivedAmount":"the minimum amount of GYD to be minted"},"returns":{"mintedGYDAmount":"GYD token minted amount"}},"pamm()":{"notice":"Returns the address for the PAMM","returns":{"_0":"the PAMM address"}},"redeem(uint256,(address,uint256,uint256,address)[])":{"notice":"Main redemption function to be called by a withdrawer This redeems using at most `maxRedeemedAmount` of GYD and returns the exact outputs as specified by `tokens` and `amounts`","params":{"assets":"the output tokens and associated amounts to return against GYD","gydToRedeem":"the maximum amount of GYD to redeem"},"returns":{"_0":"the amounts receivd against the redeemed GYD"}},"reserve()":{"notice":"Returns the address for the reserve"}},"stateVariables":{"gydToken":{"details":"The GYD token is not upgradable so this will always return the same value","return":"the address of the GYD token","returns":{"_0":"the address of the GYD token"}},"gyroConfig":{"return":"the global configuration address","returns":{"_0":"the global configuration address"}},"reserve":{"return":"the address of the reserve","returns":{"_0":"the address of the reserve"}}},"title":"MotherBoard is the central contract connecting the different pieces of the Gyro protocol","version":1},"opcodes":"PUSH1 0x80 PUSH1 0x40 MSTORE CALLVALUE DUP1 ISZERO PUSH2 0x10 JUMPI PUSH1 0x0 DUP1 REVERT JUMPDEST POP PUSH1 0x4 CALLDATASIZE LT PUSH2 0x9E JUMPI PUSH1 0x0 CALLDATALOAD PUSH1 0xE0 SHR DUP1 PUSH4 0x6235C404 GT PUSH2 0x66 JUMPI DUP1 PUSH4 0x6235C404 EQ PUSH2 0x15C JUMPI DUP1 PUSH4 0x85B0C781 EQ PUSH2 0x17D JUMPI DUP1 PUSH4 0xCD3293DE EQ PUSH2 0x185 JUMPI DUP1 PUSH4 0xE4C0AAF4 EQ PUSH2 0x1AC JUMPI DUP1 PUSH4 0xFBF60028 EQ PUSH2 0x1C1 JUMPI PUSH1 0x0 DUP1 REVERT JUMPDEST DUP1 PUSH4 0xC340A24 EQ PUSH2 0xA3 JUMPI DUP1 PUSH4 0x2799C6CF EQ PUSH2 0xD3 JUMPI DUP1 PUSH4 0x44BBDB55 EQ PUSH2 0xF4 JUMPI DUP1 PUSH4 0x4D8CA4C5 EQ PUSH2 0x11B JUMPI DUP1 PUSH4 0x4E4D822A EQ PUSH2 0x13C JUMPI JUMPDEST PUSH1 0x0 DUP1 REVERT JUMPDEST PUSH1 0x0 SLOAD PUSH2 0xB6 SWAP1 PUSH1 0x1 PUSH1 0x1 PUSH1 0xA0 SHL SUB AND DUP2 JUMP JUMPDEST PUSH1 0x40 MLOAD PUSH1 0x1 PUSH1 0x1 PUSH1 0xA0 SHL SUB SWAP1 SWAP2 AND DUP2 MSTORE PUSH1 0x20 ADD JUMPDEST PUSH1 0x40 MLOAD DUP1 SWAP2 SUB SWAP1 RETURN JUMPDEST PUSH2 0xE6 PUSH2 0xE1 CALLDATASIZE PUSH1 0x4 PUSH2 0x2DCB JUMP JUMPDEST PUSH2 0x1E8 JUMP JUMPDEST PUSH1 0x40 MLOAD SWAP1 DUP2 MSTORE PUSH1 0x20 ADD PUSH2 0xCA JUMP JUMPDEST PUSH2 0xB6 PUSH32 0x0 DUP2 JUMP JUMPDEST PUSH2 0x12E PUSH2 0x129 CALLDATASIZE PUSH1 0x4 PUSH2 0x2E45 JUMP JUMPDEST PUSH2 0x60E JUMP JUMPDEST PUSH1 0x40 MLOAD PUSH2 0xCA SWAP3 SWAP2 SWAP1 PUSH2 0x2F56 JUMP JUMPDEST PUSH2 0x14F PUSH2 0x14A CALLDATASIZE PUSH1 0x4 PUSH2 0x2E45 JUMP JUMPDEST PUSH2 0x8FB JUMP JUMPDEST PUSH1 0x40 MLOAD PUSH2 0xCA SWAP2 SWAP1 PUSH2 0x2F84 JUMP JUMPDEST PUSH2 0x16F PUSH2 0x16A CALLDATASIZE PUSH1 0x4 PUSH2 0x2DCB JUMP JUMPDEST PUSH2 0xC12 JUMP JUMPDEST PUSH1 0x40 MLOAD PUSH2 0xCA SWAP3 SWAP2 SWAP1 PUSH2 0x2F97 JUMP JUMPDEST PUSH2 0xB6 PUSH2 0xEED JUMP JUMPDEST PUSH2 0xB6 PUSH32 0x0 DUP2 JUMP JUMPDEST PUSH2 0x1BF PUSH2 0x1BA CALLDATASIZE PUSH1 0x4 PUSH2 0x2FC8 JUMP JUMPDEST PUSH2 0xF8C JUMP JUMPDEST STOP JUMPDEST PUSH2 0xB6 PUSH32 0x0 DUP2 JUMP JUMPDEST PUSH1 0x0 DUP1 PUSH2 0x1F5 DUP6 DUP6 PUSH2 0x12A0 JUMP JUMPDEST SWAP1 POP PUSH1 0x0 PUSH2 0x22B PUSH32 0x0 PUSH1 0x1 PUSH1 0x1 PUSH1 0xA0 SHL SUB AND PUSH2 0x13D4 JUMP JUMPDEST PUSH1 0x1 PUSH1 0x1 PUSH1 0xA0 SHL SUB AND PUSH4 0xEF5BAC25 PUSH1 0x40 MLOAD DUP2 PUSH4 0xFFFFFFFF AND PUSH1 0xE0 SHL DUP2 MSTORE PUSH1 0x4 ADD PUSH1 0x0 PUSH1 0x40 MLOAD DUP1 DUP4 SUB DUP2 DUP7 GAS STATICCALL ISZERO DUP1 ISZERO PUSH2 0x268 JUMPI RETURNDATASIZE PUSH1 0x0 DUP1 RETURNDATACOPY RETURNDATASIZE PUSH1 0x0 REVERT JUMPDEST POP POP POP POP PUSH1 0x40 MLOAD RETURNDATASIZE PUSH1 0x0 DUP3 RETURNDATACOPY PUSH1 0x1F RETURNDATASIZE SWAP1 DUP2 ADD PUSH1 0x1F NOT AND DUP3 ADD PUSH1 0x40 MSTORE PUSH2 0x290 SWAP2 SWAP1 DUP2 ADD SWAP1 PUSH2 0x325E JUMP JUMPDEST SWAP1 POP PUSH1 0x0 PUSH2 0x2A2 DUP4 DUP4 PUSH1 0x20 ADD MLOAD PUSH2 0x1423 JUMP JUMPDEST SWAP1 POP PUSH2 0x2D6 PUSH32 0x0 PUSH1 0x1 PUSH1 0x1 PUSH1 0xA0 SHL SUB AND PUSH2 0x152A JUMP JUMPDEST PUSH1 0x1 PUSH1 0x1 PUSH1 0xA0 SHL SUB AND PUSH4 0x8D404E98 DUP3 PUSH1 0x40 MLOAD DUP3 PUSH4 0xFFFFFFFF AND PUSH1 0xE0 SHL DUP2 MSTORE PUSH1 0x4 ADD PUSH2 0x301 SWAP2 SWAP1 PUSH2 0x3393 JUMP JUMPDEST PUSH1 0x0 PUSH1 0x40 MLOAD DUP1 DUP4 SUB DUP2 PUSH1 0x0 DUP8 GAS CALL ISZERO DUP1 ISZERO PUSH2 0x320 JUMPI RETURNDATASIZE PUSH1 0x0 DUP1 RETURNDATACOPY RETURNDATASIZE PUSH1 0x0 REVERT JUMPDEST POP POP POP POP PUSH1 0x40 MLOAD RETURNDATASIZE PUSH1 0x0 DUP3 RETURNDATACOPY PUSH1 0x1F RETURNDATASIZE SWAP1 DUP2 ADD PUSH1 0x1F NOT AND DUP3 ADD PUSH1 0x40 MSTORE PUSH2 0x348 SWAP2 SWAP1 DUP2 ADD SWAP1 PUSH2 0x350C JUMP JUMPDEST POP PUSH1 0x0 JUMPDEST DUP4 MLOAD DUP2 LT ISZERO PUSH2 0x3CC JUMPI PUSH1 0x0 DUP5 DUP3 DUP2 MLOAD DUP2 LT PUSH2 0x369 JUMPI PUSH2 0x369 PUSH2 0x3540 JUMP JUMPDEST PUSH1 0x20 MUL PUSH1 0x20 ADD ADD MLOAD SWAP1 POP PUSH2 0x3B9 PUSH32 0x0 DUP3 PUSH1 0x20 ADD MLOAD DUP4 PUSH1 0x0 ADD MLOAD PUSH1 0x1 PUSH1 0x1 PUSH1 0xA0 SHL SUB AND PUSH2 0x1579 SWAP1 SWAP3 SWAP2 SWAP1 PUSH4 0xFFFFFFFF AND JUMP JUMPDEST POP DUP1 PUSH2 0x3C4 DUP2 PUSH2 0x356C JUMP JUMPDEST SWAP2 POP POP PUSH2 0x34C JUMP JUMPDEST POP PUSH1 0x0 PUSH2 0x401 PUSH32 0x0 PUSH1 0x1 PUSH1 0x1 PUSH1 0xA0 SHL SUB AND PUSH2 0x15A9 JUMP JUMPDEST PUSH1 0x1 PUSH1 0x1 PUSH1 0xA0 SHL SUB AND PUSH4 0xDED9D02B DUP4 PUSH1 0x40 MLOAD DUP3 PUSH4 0xFFFFFFFF AND PUSH1 0xE0 SHL DUP2 MSTORE PUSH1 0x4 ADD PUSH2 0x42C SWAP2 SWAP1 PUSH2 0x3393 JUMP JUMPDEST PUSH1 0x0 PUSH1 0x40 MLOAD DUP1 DUP4 SUB DUP2 DUP7 GAS STATICCALL ISZERO DUP1 ISZERO PUSH2 0x449 JUMPI RETURNDATASIZE PUSH1 0x0 DUP1 RETURNDATACOPY RETURNDATASIZE PUSH1 0x0 REVERT JUMPDEST POP POP POP POP PUSH1 0x40 MLOAD RETURNDATASIZE PUSH1 0x0 DUP3 RETURNDATACOPY PUSH1 0x1F RETURNDATASIZE SWAP1 DUP2 ADD PUSH1 0x1F NOT AND DUP3 ADD PUSH1 0x40 MSTORE PUSH2 0x471 SWAP2 SWAP1 DUP2 ADD SWAP1 PUSH2 0x3597 JUMP JUMPDEST SWAP1 POP PUSH1 0x0 PUSH2 0x47E DUP3 PUSH2 0x15EE JUMP JUMPDEST SWAP1 POP PUSH1 0x0 PUSH2 0x48A PUSH2 0xEED JUMP JUMPDEST DUP6 MLOAD PUSH1 0x40 MLOAD PUSH4 0xD9778E5 PUSH1 0xE1 SHL DUP2 MSTORE PUSH1 0x4 DUP2 ADD DUP6 SWAP1 MSTORE PUSH1 0x24 DUP2 ADD SWAP2 SWAP1 SWAP2 MSTORE PUSH1 0x1 PUSH1 0x1 PUSH1 0xA0 SHL SUB SWAP2 SWAP1 SWAP2 AND SWAP1 PUSH4 0x1B2EF1CA SWAP1 PUSH1 0x44 ADD PUSH1 0x20 PUSH1 0x40 MLOAD DUP1 DUP4 SUB DUP2 PUSH1 0x0 DUP8 GAS CALL ISZERO DUP1 ISZERO PUSH2 0x4DD JUMPI RETURNDATASIZE PUSH1 0x0 DUP1 RETURNDATACOPY RETURNDATASIZE PUSH1 0x0 REVERT JUMPDEST POP POP POP POP PUSH1 0x40 MLOAD RETURNDATASIZE PUSH1 0x1F NOT PUSH1 0x1F DUP3 ADD AND DUP3 ADD DUP1 PUSH1 0x40 MSTORE POP DUP2 ADD SWAP1 PUSH2 0x501 SWAP2 SWAP1 PUSH2 0x36C3 JUMP JUMPDEST SWAP1 POP DUP8 DUP2 LT ISZERO PUSH1 0x40 MLOAD DUP1 PUSH1 0x40 ADD PUSH1 0x40 MSTORE DUP1 PUSH1 0x1 DUP2 MSTORE PUSH1 0x20 ADD PUSH1 0x19 PUSH1 0xF9 SHL DUP2 MSTORE POP SWAP1 PUSH2 0x548 JUMPI PUSH1 0x40 MLOAD PUSH3 0x461BCD PUSH1 0xE5 SHL DUP2 MSTORE PUSH1 0x4 ADD PUSH2 0x53F SWAP2 SWAP1 PUSH2 0x36DC JUMP JUMPDEST PUSH1 0x40 MLOAD DUP1 SWAP2 SUB SWAP1 REVERT JUMPDEST POP PUSH1 0x40 MLOAD PUSH4 0x40C10F19 PUSH1 0xE0 SHL DUP2 MSTORE ADDRESS PUSH1 0x4 DUP3 ADD MSTORE PUSH1 0x24 DUP2 ADD DUP3 SWAP1 MSTORE PUSH32 0x0 PUSH1 0x1 PUSH1 0x1 PUSH1 0xA0 SHL SUB AND SWAP1 PUSH4 0x40C10F19 SWAP1 PUSH1 0x44 ADD PUSH1 0x0 PUSH1 0x40 MLOAD DUP1 DUP4 SUB DUP2 PUSH1 0x0 DUP8 DUP1 EXTCODESIZE ISZERO DUP1 ISZERO PUSH2 0x5B1 JUMPI PUSH1 0x0 DUP1 REVERT JUMPDEST POP GAS CALL ISZERO DUP1 ISZERO PUSH2 0x5C5 JUMPI RETURNDATASIZE PUSH1 0x0 DUP1 RETURNDATACOPY RETURNDATASIZE PUSH1 0x0 REVERT JUMPDEST POP PUSH2 0x5FF SWAP3 POP POP PUSH1 0x1 PUSH1 0x1 PUSH1 0xA0 SHL SUB PUSH32 0x0 AND SWAP1 POP CALLER DUP4 PUSH2 0x1579 JUMP JUMPDEST SWAP6 POP POP POP POP POP POP JUMPDEST SWAP4 SWAP3 POP POP POP JUMP JUMPDEST PUSH1 0x60 DUP1 DUP3 PUSH1 0x1 PUSH1 0x1 PUSH1 0x40 SHL SUB DUP2 GT ISZERO PUSH2 0x629 JUMPI PUSH2 0x629 PUSH2 0x2FE5 JUMP JUMPDEST PUSH1 0x40 MLOAD SWAP1 DUP1 DUP3 MSTORE DUP1 PUSH1 0x20 MUL PUSH1 0x20 ADD DUP3 ADD PUSH1 0x40 MSTORE DUP1 ISZERO PUSH2 0x652 JUMPI DUP2 PUSH1 0x20 ADD PUSH1 0x20 DUP3 MUL DUP1 CALLDATASIZE DUP4 CALLDATACOPY ADD SWAP1 POP JUMPDEST POP SWAP2 POP PUSH1 0x0 PUSH2 0x689 PUSH32 0x0 PUSH1 0x1 PUSH1 0x1 PUSH1 0xA0 SHL SUB AND PUSH2 0x13D4 JUMP JUMPDEST PUSH1 0x1 PUSH1 0x1 PUSH1 0xA0 SHL SUB AND PUSH4 0xEF5BAC25 PUSH1 0x40 MLOAD DUP2 PUSH4 0xFFFFFFFF AND PUSH1 0xE0 SHL DUP2 MSTORE PUSH1 0x4 ADD PUSH1 0x0 PUSH1 0x40 MLOAD DUP1 DUP4 SUB DUP2 DUP7 GAS STATICCALL ISZERO DUP1 ISZERO PUSH2 0x6C6 JUMPI RETURNDATASIZE PUSH1 0x0 DUP1 RETURNDATACOPY RETURNDATASIZE PUSH1 0x0 REVERT JUMPDEST POP POP POP POP PUSH1 0x40 MLOAD RETURNDATASIZE PUSH1 0x0 DUP3 RETURNDATACOPY PUSH1 0x1F RETURNDATASIZE SWAP1 DUP2 ADD PUSH1 0x1F NOT AND DUP3 ADD PUSH1 0x40 MSTORE PUSH2 0x6EE SWAP2 SWAP1 DUP2 ADD SWAP1 PUSH2 0x325E JUMP JUMPDEST SWAP1 POP PUSH1 0x0 PUSH2 0x6FA PUSH2 0xEED JUMP JUMPDEST DUP3 MLOAD PUSH1 0x40 MLOAD PUSH4 0x1C76D8FB PUSH1 0xE2 SHL DUP2 MSTORE PUSH1 0x4 DUP2 ADD DUP11 SWAP1 MSTORE PUSH1 0x24 DUP2 ADD SWAP2 SWAP1 SWAP2 MSTORE PUSH1 0x1 PUSH1 0x1 PUSH1 0xA0 SHL SUB SWAP2 SWAP1 SWAP2 AND SWAP1 PUSH4 0x71DB63EC SWAP1 PUSH1 0x44 ADD PUSH1 0x20 PUSH1 0x40 MLOAD DUP1 DUP4 SUB DUP2 DUP7 GAS STATICCALL ISZERO DUP1 ISZERO PUSH2 0x74B JUMPI RETURNDATASIZE PUSH1 0x0 DUP1 RETURNDATACOPY RETURNDATASIZE PUSH1 0x0 REVERT JUMPDEST POP POP POP POP PUSH1 0x40 MLOAD RETURNDATASIZE PUSH1 0x1F NOT PUSH1 0x1F DUP3 ADD AND DUP3 ADD DUP1 PUSH1 0x40 MSTORE POP DUP2 ADD SWAP1 PUSH2 0x76F SWAP2 SWAP1 PUSH2 0x36C3 JUMP JUMPDEST SWAP1 POP PUSH1 0x0 PUSH2 0x783 DUP3 DUP9 DUP9 DUP7 PUSH1 0x20 ADD MLOAD PUSH2 0x167A JUMP JUMPDEST SWAP1 POP PUSH2 0x7B7 PUSH32 0x0 PUSH1 0x1 PUSH1 0x1 PUSH1 0xA0 SHL SUB AND PUSH2 0x152A JUMP JUMPDEST PUSH1 0x1 PUSH1 0x1 PUSH1 0xA0 SHL SUB AND PUSH4 0x29C97771 DUP3 PUSH1 0x40 MLOAD DUP3 PUSH4 0xFFFFFFFF AND PUSH1 0xE0 SHL DUP2 MSTORE PUSH1 0x4 ADD PUSH2 0x7E2 SWAP2 SWAP1 PUSH2 0x3393 JUMP JUMPDEST PUSH1 0x0 PUSH1 0x40 MLOAD DUP1 DUP4 SUB DUP2 DUP7 GAS STATICCALL ISZERO DUP1 ISZERO PUSH2 0x7FF JUMPI RETURNDATASIZE PUSH1 0x0 DUP1 RETURNDATACOPY RETURNDATASIZE PUSH1 0x0 REVERT JUMPDEST POP POP POP POP PUSH1 0x40 MLOAD RETURNDATASIZE PUSH1 0x0 DUP3 RETURNDATACOPY PUSH1 0x1F RETURNDATASIZE SWAP1 DUP2 ADD PUSH1 0x1F NOT AND DUP3 ADD PUSH1 0x40 MSTORE PUSH2 0x827 SWAP2 SWAP1 DUP2 ADD SWAP1 PUSH2 0x350C JUMP JUMPDEST DUP1 MLOAD SWAP1 SWAP5 POP ISZERO PUSH2 0x839 JUMPI POP POP POP PUSH2 0x8F3 JUMP JUMPDEST PUSH1 0x0 PUSH2 0x86D PUSH32 0x0 PUSH1 0x1 PUSH1 0x1 PUSH1 0xA0 SHL SUB AND PUSH2 0x15A9 JUMP JUMPDEST PUSH1 0x1 PUSH1 0x1 PUSH1 0xA0 SHL SUB AND PUSH4 0xDED9D02B DUP4 PUSH1 0x40 MLOAD DUP3 PUSH4 0xFFFFFFFF AND PUSH1 0xE0 SHL DUP2 MSTORE PUSH1 0x4 ADD PUSH2 0x898 SWAP2 SWAP1 PUSH2 0x3393 JUMP JUMPDEST PUSH1 0x0 PUSH1 0x40 MLOAD DUP1 DUP4 SUB DUP2 DUP7 GAS STATICCALL ISZERO DUP1 ISZERO PUSH2 0x8B5 JUMPI RETURNDATASIZE PUSH1 0x0 DUP1 RETURNDATACOPY RETURNDATASIZE PUSH1 0x0 REVERT JUMPDEST POP POP POP POP PUSH1 0x40 MLOAD RETURNDATASIZE PUSH1 0x0 DUP3 RETURNDATACOPY PUSH1 0x1F RETURNDATASIZE SWAP1 DUP2 ADD PUSH1 0x1F NOT AND DUP3 ADD PUSH1 0x40 MSTORE PUSH2 0x8DD SWAP2 SWAP1 DUP2 ADD SWAP1 PUSH2 0x3597 JUMP JUMPDEST SWAP1 POP PUSH2 0x8EA DUP9 DUP9 DUP4 PUSH2 0x17E2 JUMP JUMPDEST SWAP6 POP SWAP6 POP POP POP POP POP JUMPDEST SWAP4 POP SWAP4 SWAP2 POP POP JUMP JUMPDEST PUSH1 0x40 MLOAD PUSH4 0x79CC679 PUSH1 0xE4 SHL DUP2 MSTORE CALLER PUSH1 0x4 DUP3 ADD MSTORE PUSH1 0x24 DUP2 ADD DUP5 SWAP1 MSTORE PUSH1 0x60 SWAP1 PUSH32 0x0 PUSH1 0x1 PUSH1 0x1 PUSH1 0xA0 SHL SUB AND SWAP1 PUSH4 0x79CC6790 SWAP1 PUSH1 0x44 ADD PUSH1 0x0 PUSH1 0x40 MLOAD DUP1 DUP4 SUB DUP2 PUSH1 0x0 DUP8 DUP1 EXTCODESIZE ISZERO DUP1 ISZERO PUSH2 0x966 JUMPI PUSH1 0x0 DUP1 REVERT JUMPDEST POP GAS CALL ISZERO DUP1 ISZERO PUSH2 0x97A JUMPI RETURNDATASIZE PUSH1 0x0 DUP1 RETURNDATACOPY RETURNDATASIZE PUSH1 0x0 REVERT JUMPDEST POP POP POP POP PUSH1 0x0 PUSH2 0x9B2 PUSH32 0x0 PUSH1 0x1 PUSH1 0x1 PUSH1 0xA0 SHL SUB AND PUSH2 0x13D4 JUMP JUMPDEST PUSH1 0x1 PUSH1 0x1 PUSH1 0xA0 SHL SUB AND PUSH4 0xEF5BAC25 PUSH1 0x40 MLOAD DUP2 PUSH4 0xFFFFFFFF AND PUSH1 0xE0 SHL DUP2 MSTORE PUSH1 0x4 ADD PUSH1 0x0 PUSH1 0x40 MLOAD DUP1 DUP4 SUB DUP2 DUP7 GAS STATICCALL ISZERO DUP1 ISZERO PUSH2 0x9EF JUMPI RETURNDATASIZE PUSH1 0x0 DUP1 RETURNDATACOPY RETURNDATASIZE PUSH1 0x0 REVERT JUMPDEST POP POP POP POP PUSH1 0x40 MLOAD RETURNDATASIZE PUSH1 0x0 DUP3 RETURNDATACOPY PUSH1 0x1F RETURNDATASIZE SWAP1 DUP2 ADD PUSH1 0x1F NOT AND DUP3 ADD PUSH1 0x40 MSTORE PUSH2 0xA17 SWAP2 SWAP1 DUP2 ADD SWAP1 PUSH2 0x325E JUMP JUMPDEST SWAP1 POP PUSH1 0x0 PUSH2 0xA23 PUSH2 0xEED JUMP JUMPDEST DUP3 MLOAD PUSH1 0x40 MLOAD PUSH4 0x7CBC2373 PUSH1 0xE0 SHL DUP2 MSTORE PUSH1 0x4 DUP2 ADD DUP10 SWAP1 MSTORE PUSH1 0x24 DUP2 ADD SWAP2 SWAP1 SWAP2 MSTORE PUSH1 0x1 PUSH1 0x1 PUSH1 0xA0 SHL SUB SWAP2 SWAP1 SWAP2 AND SWAP1 PUSH4 0x7CBC2373 SWAP1 PUSH1 0x44 ADD PUSH1 0x20 PUSH1 0x40 MLOAD DUP1 DUP4 SUB DUP2 PUSH1 0x0 DUP8 GAS CALL ISZERO DUP1 ISZERO PUSH2 0xA76 JUMPI RETURNDATASIZE PUSH1 0x0 DUP1 RETURNDATACOPY RETURNDATASIZE PUSH1 0x0 REVERT JUMPDEST POP POP POP POP PUSH1 0x40 MLOAD RETURNDATASIZE PUSH1 0x1F NOT PUSH1 0x1F DUP3 ADD AND DUP3 ADD DUP1 PUSH1 0x40 MSTORE POP DUP2 ADD SWAP1 PUSH2 0xA9A SWAP2 SWAP1 PUSH2 0x36C3 JUMP JUMPDEST SWAP1 POP PUSH1 0x0 PUSH2 0xAAE DUP3 DUP8 DUP8 DUP7 PUSH1 0x20 ADD MLOAD PUSH2 0x167A JUMP JUMPDEST SWAP1 POP PUSH2 0xAE2 PUSH32 0x0 PUSH1 0x1 PUSH1 0x1 PUSH1 0xA0 SHL SUB AND PUSH2 0x152A JUMP JUMPDEST PUSH1 0x1 PUSH1 0x1 PUSH1 0xA0 SHL SUB AND PUSH4 0xC4EA1209 DUP3 PUSH1 0x40 MLOAD DUP3 PUSH4 0xFFFFFFFF AND PUSH1 0xE0 SHL DUP2 MSTORE PUSH1 0x4 ADD PUSH2 0xB0D SWAP2 SWAP1 PUSH2 0x3393 JUMP JUMPDEST PUSH1 0x0 PUSH1 0x40 MLOAD DUP1 DUP4 SUB DUP2 PUSH1 0x0 DUP8 GAS CALL ISZERO DUP1 ISZERO PUSH2 0xB2C JUMPI RETURNDATASIZE PUSH1 0x0 DUP1 RETURNDATACOPY RETURNDATASIZE PUSH1 0x0 REVERT JUMPDEST POP POP POP POP PUSH1 0x40 MLOAD RETURNDATASIZE PUSH1 0x0 DUP3 RETURNDATACOPY PUSH1 0x1F RETURNDATASIZE SWAP1 DUP2 ADD PUSH1 0x1F NOT AND DUP3 ADD PUSH1 0x40 MSTORE PUSH2 0xB54 SWAP2 SWAP1 DUP2 ADD SWAP1 PUSH2 0x350C JUMP JUMPDEST POP PUSH1 0x0 PUSH2 0xB89 PUSH32 0x0 PUSH1 0x1 PUSH1 0x1 PUSH1 0xA0 SHL SUB AND PUSH2 0x15A9 JUMP JUMPDEST PUSH1 0x1 PUSH1 0x1 PUSH1 0xA0 SHL SUB AND PUSH4 0xDED9D02B DUP4 PUSH1 0x40 MLOAD DUP3 PUSH4 0xFFFFFFFF AND PUSH1 0xE0 SHL DUP2 MSTORE PUSH1 0x4 ADD PUSH2 0xBB4 SWAP2 SWAP1 PUSH2 0x3393 JUMP JUMPDEST PUSH1 0x0 PUSH1 0x40 MLOAD DUP1 DUP4 SUB DUP2 DUP7 GAS STATICCALL ISZERO DUP1 ISZERO PUSH2 0xBD1 JUMPI RETURNDATASIZE PUSH1 0x0 DUP1 RETURNDATACOPY RETURNDATASIZE PUSH1 0x0 REVERT JUMPDEST POP POP POP POP PUSH1 0x40 MLOAD RETURNDATASIZE PUSH1 0x0 DUP3 RETURNDATACOPY PUSH1 0x1F RETURNDATASIZE SWAP1 DUP2 ADD PUSH1 0x1F NOT AND DUP3 ADD PUSH1 0x40 MSTORE PUSH2 0xBF9 SWAP2 SWAP1 DUP2 ADD SWAP1 PUSH2 0x3597 JUMP JUMPDEST SWAP1 POP PUSH2 0xC06 DUP8 DUP8 DUP4 PUSH2 0x193D JUMP JUMPDEST SWAP9 SWAP8 POP POP POP POP POP POP POP POP JUMP JUMPDEST PUSH1 0x0 PUSH1 0x60 DUP1 PUSH2 0xC21 DUP7 DUP7 PUSH2 0x1AA9 JUMP JUMPDEST DUP1 MLOAD SWAP1 SWAP4 POP SWAP1 SWAP2 POP ISZERO PUSH2 0xC38 JUMPI PUSH1 0x0 SWAP3 POP POP PUSH2 0x8F3 JUMP JUMPDEST PUSH1 0x0 PUSH2 0xC6C PUSH32 0x0 PUSH1 0x1 PUSH1 0x1 PUSH1 0xA0 SHL SUB AND PUSH2 0x13D4 JUMP JUMPDEST PUSH1 0x1 PUSH1 0x1 PUSH1 0xA0 SHL SUB AND PUSH4 0xEF5BAC25 PUSH1 0x40 MLOAD DUP2 PUSH4 0xFFFFFFFF AND PUSH1 0xE0 SHL DUP2 MSTORE PUSH1 0x4 ADD PUSH1 0x0 PUSH1 0x40 MLOAD DUP1 DUP4 SUB DUP2 DUP7 GAS STATICCALL ISZERO DUP1 ISZERO PUSH2 0xCA9 JUMPI RETURNDATASIZE PUSH1 0x0 DUP1 RETURNDATACOPY RETURNDATASIZE PUSH1 0x0 REVERT JUMPDEST POP POP POP POP PUSH1 0x40 MLOAD RETURNDATASIZE PUSH1 0x0 DUP3 RETURNDATACOPY PUSH1 0x1F RETURNDATASIZE SWAP1 DUP2 ADD PUSH1 0x1F NOT AND DUP3 ADD PUSH1 0x40 MSTORE PUSH2 0xCD1 SWAP2 SWAP1 DUP2 ADD SWAP1 PUSH2 0x325E JUMP JUMPDEST SWAP1 POP PUSH1 0x0 PUSH2 0xCE3 DUP4 DUP4 PUSH1 0x20 ADD MLOAD PUSH2 0x1423 JUMP JUMPDEST SWAP1 POP PUSH2 0xD17 PUSH32 0x0 PUSH1 0x1 PUSH1 0x1 PUSH1 0xA0 SHL SUB AND PUSH2 0x152A JUMP JUMPDEST PUSH1 0x1 PUSH1 0x1 PUSH1 0xA0 SHL SUB AND PUSH4 0x71231CF DUP3 PUSH1 0x40 MLOAD DUP3 PUSH4 0xFFFFFFFF AND PUSH1 0xE0 SHL DUP2 MSTORE PUSH1 0x4 ADD PUSH2 0xD42 SWAP2 SWAP1 PUSH2 0x3393 JUMP JUMPDEST PUSH1 0x0 PUSH1 0x40 MLOAD DUP1 DUP4 SUB DUP2 DUP7 GAS STATICCALL ISZERO DUP1 ISZERO PUSH2 0xD5F JUMPI RETURNDATASIZE PUSH1 0x0 DUP1 RETURNDATACOPY RETURNDATASIZE PUSH1 0x0 REVERT JUMPDEST POP POP POP POP PUSH1 0x40 MLOAD RETURNDATASIZE PUSH1 0x0 DUP3 RETURNDATACOPY PUSH1 0x1F RETURNDATASIZE SWAP1 DUP2 ADD PUSH1 0x1F NOT AND DUP3 ADD PUSH1 0x40 MSTORE PUSH2 0xD87 SWAP2 SWAP1 DUP2 ADD SWAP1 PUSH2 0x350C JUMP JUMPDEST SWAP4 POP PUSH1 0x0 PUSH2 0xDBD PUSH32 0x0 PUSH1 0x1 PUSH1 0x1 PUSH1 0xA0 SHL SUB AND PUSH2 0x15A9 JUMP JUMPDEST PUSH1 0x1 PUSH1 0x1 PUSH1 0xA0 SHL SUB AND PUSH4 0xDED9D02B DUP4 PUSH1 0x40 MLOAD DUP3 PUSH4 0xFFFFFFFF AND PUSH1 0xE0 SHL DUP2 MSTORE PUSH1 0x4 ADD PUSH2 0xDE8 SWAP2 SWAP1 PUSH2 0x3393 JUMP JUMPDEST PUSH1 0x0 PUSH1 0x40 MLOAD DUP1 DUP4 SUB DUP2 DUP7 GAS STATICCALL ISZERO DUP1 ISZERO PUSH2 0xE05 JUMPI RETURNDATASIZE PUSH1 0x0 DUP1 RETURNDATACOPY RETURNDATASIZE PUSH1 0x0 REVERT JUMPDEST POP POP POP POP PUSH1 0x40 MLOAD RETURNDATASIZE PUSH1 0x0 DUP3 RETURNDATACOPY PUSH1 0x1F RETURNDATASIZE SWAP1 DUP2 ADD PUSH1 0x1F NOT AND DUP3 ADD PUSH1 0x40 MSTORE PUSH2 0xE2D SWAP2 SWAP1 DUP2 ADD SWAP1 PUSH2 0x3597 JUMP JUMPDEST SWAP1 POP PUSH1 0x0 PUSH2 0xE3A DUP3 PUSH2 0x15EE JUMP JUMPDEST SWAP1 POP PUSH2 0xE44 PUSH2 0xEED JUMP JUMPDEST DUP5 MLOAD PUSH1 0x40 MLOAD PUSH4 0x616A1ED9 PUSH1 0xE0 SHL DUP2 MSTORE PUSH1 0x4 DUP2 ADD DUP5 SWAP1 MSTORE PUSH1 0x24 DUP2 ADD SWAP2 SWAP1 SWAP2 MSTORE PUSH1 0x1 PUSH1 0x1 PUSH1 0xA0 SHL SUB SWAP2 SWAP1 SWAP2 AND SWAP1 PUSH4 0x616A1ED9 SWAP1 PUSH1 0x44 ADD PUSH1 0x20 PUSH1 0x40 MLOAD DUP1 DUP4 SUB DUP2 DUP7 GAS STATICCALL ISZERO DUP1 ISZERO PUSH2 0xE95 JUMPI RETURNDATASIZE PUSH1 0x0 DUP1 RETURNDATACOPY RETURNDATASIZE PUSH1 0x0 REVERT JUMPDEST POP POP POP POP PUSH1 0x40 MLOAD RETURNDATASIZE PUSH1 0x1F NOT PUSH1 0x1F DUP3 ADD AND DUP3 ADD DUP1 PUSH1 0x40 MSTORE POP DUP2 ADD SWAP1 PUSH2 0xEB9 SWAP2 SWAP1 PUSH2 0x36C3 JUMP JUMPDEST SWAP7 POP DUP8 DUP8 LT ISZERO PUSH2 0xEE0 JUMPI PUSH1 0x40 MLOAD DUP1 PUSH1 0x40 ADD PUSH1 0x40 MSTORE DUP1 PUSH1 0x1 DUP2 MSTORE PUSH1 0x20 ADD PUSH1 0x19 PUSH1 0xF9 SHL DUP2 MSTORE POP SWAP6 POP JUMPDEST POP POP POP POP POP SWAP4 POP SWAP4 SWAP2 POP POP JUMP JUMPDEST PUSH1 0x40 MLOAD PUSH4 0x21F8A721 PUSH1 0xE0 SHL DUP2 MSTORE PUSH12 0x50414D4D5F41444452455353 PUSH1 0xA0 SHL PUSH1 0x4 DUP3 ADD MSTORE PUSH1 0x0 SWAP1 PUSH32 0x0 PUSH1 0x1 PUSH1 0x1 PUSH1 0xA0 SHL SUB AND SWAP1 PUSH4 0x21F8A721 SWAP1 PUSH1 0x24 ADD PUSH1 0x20 PUSH1 0x40 MLOAD DUP1 DUP4 SUB DUP2 DUP7 GAS STATICCALL ISZERO DUP1 ISZERO PUSH2 0xF63 JUMPI RETURNDATASIZE PUSH1 0x0 DUP1 RETURNDATACOPY RETURNDATASIZE PUSH1 0x0 REVERT JUMPDEST POP POP POP POP PUSH1 0x40 MLOAD RETURNDATASIZE PUSH1 0x1F NOT PUSH1 0x1F DUP3 ADD AND DUP3 ADD DUP1 PUSH1 0x40 MSTORE POP DUP2 ADD SWAP1 PUSH2 0xF87 SWAP2 SWAP1 PUSH2 0x36EF JUMP JUMPDEST SWAP1 POP SWAP1 JUMP JUMPDEST PUSH1 0x0 SLOAD PUSH1 0x40 DUP1 MLOAD DUP1 DUP3 ADD SWAP1 SWAP2 MSTORE PUSH1 0x2 DUP2 MSTORE PUSH2 0x333 PUSH1 0xF4 SHL PUSH1 0x20 DUP3 ADD MSTORE SWAP1 PUSH1 0x1 PUSH1 0x1 PUSH1 0xA0 SHL SUB AND CALLER EQ PUSH2 0xFD1 JUMPI PUSH1 0x40 MLOAD PUSH3 0x461BCD PUSH1 0xE5 SHL DUP2 MSTORE PUSH1 0x4 ADD PUSH2 0x53F SWAP2 SWAP1 PUSH2 0x36DC JUMP JUMPDEST POP PUSH1 0x0 DUP1 SLOAD PUSH1 0x1 PUSH1 0x1 PUSH1 0xA0 SHL SUB DUP4 DUP2 AND PUSH1 0x1 PUSH1 0x1 PUSH1 0xA0 SHL SUB NOT DUP4 AND DUP2 OR SWAP1 SWAP4 SSTORE PUSH1 0x40 DUP1 MLOAD SWAP2 SWAP1 SWAP3 AND DUP1 DUP3 MSTORE PUSH1 0x20 DUP3 ADD SWAP4 SWAP1 SWAP4 MSTORE PUSH32 0xDE4B3F61490B74C0ED6237523974FE299126BBBF8A8A7482FD220104C59B0C84 SWAP2 ADD PUSH1 0x40 MLOAD DUP1 SWAP2 SUB SWAP1 LOG1 POP POP JUMP JUMPDEST PUSH1 0x40 MLOAD PUSH4 0x21F8A721 PUSH1 0xE0 SHL DUP2 MSTORE PUSH17 0x4759445F544F4B454E5F41444452455353 PUSH1 0x78 SHL PUSH1 0x4 DUP3 ADD MSTORE PUSH1 0x0 SWAP1 PUSH1 0x1 PUSH1 0x1 PUSH1 0xA0 SHL SUB DUP4 AND SWAP1 PUSH4 0x21F8A721 SWAP1 PUSH1 0x24 ADD JUMPDEST PUSH1 0x20 PUSH1 0x40 MLOAD DUP1 DUP4 SUB DUP2 DUP7 GAS STATICCALL ISZERO DUP1 ISZERO PUSH2 0x108F JUMPI RETURNDATASIZE PUSH1 0x0 DUP1 RETURNDATACOPY RETURNDATASIZE PUSH1 0x0 REVERT JUMPDEST POP POP POP POP PUSH1 0x40 MLOAD RETURNDATASIZE PUSH1 0x1F NOT PUSH1 0x1F DUP3 ADD AND DUP3 ADD DUP1 PUSH1 0x40 MSTORE POP DUP2 ADD SWAP1 PUSH2 0x10B3 SWAP2 SWAP1 PUSH2 0x36EF JUMP JUMPDEST SWAP3 SWAP2 POP POP JUMP JUMPDEST PUSH1 0x40 MLOAD PUSH4 0x21F8A721 PUSH1 0xE0 SHL DUP2 MSTORE PUSH15 0x524553455256455F41444452455353 PUSH1 0x88 SHL PUSH1 0x4 DUP3 ADD MSTORE PUSH1 0x0 SWAP1 PUSH1 0x1 PUSH1 0x1 PUSH1 0xA0 SHL SUB DUP4 AND SWAP1 PUSH4 0x21F8A721 SWAP1 PUSH1 0x24 ADD PUSH2 0x1072 JUMP JUMPDEST PUSH1 0x40 MLOAD PUSH4 0x21F8A721 PUSH1 0xE0 SHL DUP2 MSTORE PUSH16 0x4645455F42414E4B5F41444452455353 PUSH1 0x80 SHL PUSH1 0x4 DUP3 ADD MSTORE PUSH1 0x0 SWAP1 PUSH1 0x1 PUSH1 0x1 PUSH1 0xA0 SHL SUB DUP4 AND SWAP1 PUSH4 0x21F8A721 SWAP1 PUSH1 0x24 ADD PUSH2 0x1072 JUMP JUMPDEST DUP1 ISZERO DUP1 PUSH2 0x11B6 JUMPI POP PUSH1 0x40 MLOAD PUSH4 0x6EB1769F PUSH1 0xE1 SHL DUP2 MSTORE ADDRESS PUSH1 0x4 DUP3 ADD MSTORE PUSH1 0x1 PUSH1 0x1 PUSH1 0xA0 SHL SUB DUP4 DUP2 AND PUSH1 0x24 DUP4 ADD MSTORE DUP5 AND SWAP1 PUSH4 0xDD62ED3E SWAP1 PUSH1 0x44 ADD PUSH1 0x20 PUSH1 0x40 MLOAD DUP1 DUP4 SUB DUP2 DUP7 GAS STATICCALL ISZERO DUP1 ISZERO PUSH2 0x1190 JUMPI RETURNDATASIZE PUSH1 0x0 DUP1 RETURNDATACOPY RETURNDATASIZE PUSH1 0x0 REVERT JUMPDEST POP POP POP POP PUSH1 0x40 MLOAD RETURNDATASIZE PUSH1 0x1F NOT PUSH1 0x1F DUP3 ADD AND DUP3 ADD DUP1 PUSH1 0x40 MSTORE POP DUP2 ADD SWAP1 PUSH2 0x11B4 SWAP2 SWAP1 PUSH2 0x36C3 JUMP JUMPDEST ISZERO JUMPDEST PUSH2 0x1221 JUMPI PUSH1 0x40 MLOAD PUSH3 0x461BCD PUSH1 0xE5 SHL DUP2 MSTORE PUSH1 0x20 PUSH1 0x4 DUP3 ADD MSTORE PUSH1 0x36 PUSH1 0x24 DUP3 ADD MSTORE PUSH32 0x5361666545524332303A20617070726F76652066726F6D206E6F6E2D7A65726F PUSH1 0x44 DUP3 ADD MSTORE PUSH22 0x20746F206E6F6E2D7A65726F20616C6C6F77616E6365 PUSH1 0x50 SHL PUSH1 0x64 DUP3 ADD MSTORE PUSH1 0x84 ADD PUSH2 0x53F JUMP JUMPDEST PUSH1 0x40 MLOAD PUSH1 0x1 PUSH1 0x1 PUSH1 0xA0 SHL SUB DUP4 AND PUSH1 0x24 DUP3 ADD MSTORE PUSH1 0x44 DUP2 ADD DUP3 SWAP1 MSTORE PUSH2 0x1284 SWAP1 DUP5 SWAP1 PUSH4 0x95EA7B3 PUSH1 0xE0 SHL SWAP1 PUSH1 0x64 ADD JUMPDEST PUSH1 0x40 DUP1 MLOAD PUSH1 0x1F NOT DUP2 DUP5 SUB ADD DUP2 MSTORE SWAP2 SWAP1 MSTORE PUSH1 0x20 DUP2 ADD DUP1 MLOAD PUSH1 0x1 PUSH1 0x1 PUSH1 0xE0 SHL SUB AND PUSH1 0x1 PUSH1 0x1 PUSH1 0xE0 SHL SUB NOT SWAP1 SWAP4 AND SWAP3 SWAP1 SWAP3 OR SWAP1 SWAP2 MSTORE PUSH2 0x1BF6 JUMP JUMPDEST POP POP POP JUMP JUMPDEST PUSH1 0x60 PUSH2 0x1298 DUP5 DUP5 PUSH1 0x0 DUP6 PUSH2 0x1CC8 JUMP JUMPDEST SWAP5 SWAP4 POP POP POP POP JUMP JUMPDEST PUSH1 0x60 PUSH1 0x0 DUP3 PUSH1 0x1 PUSH1 0x1 PUSH1 0x40 SHL SUB DUP2 GT ISZERO PUSH2 0x12BC JUMPI PUSH2 0x12BC PUSH2 0x2FE5 JUMP JUMPDEST PUSH1 0x40 MLOAD SWAP1 DUP1 DUP3 MSTORE DUP1 PUSH1 0x20 MUL PUSH1 0x20 ADD DUP3 ADD PUSH1 0x40 MSTORE DUP1 ISZERO PUSH2 0x1301 JUMPI DUP2 PUSH1 0x20 ADD JUMPDEST PUSH1 0x40 DUP1 MLOAD DUP1 DUP3 ADD SWAP1 SWAP2 MSTORE PUSH1 0x0 DUP1 DUP3 MSTORE PUSH1 0x20 DUP3 ADD MSTORE DUP2 MSTORE PUSH1 0x20 ADD SWAP1 PUSH1 0x1 SWAP1 SUB SWAP1 DUP2 PUSH2 0x12DA JUMPI SWAP1 POP JUMPDEST POP SWAP1 POP PUSH1 0x0 PUSH2 0x1338 PUSH32 0x0 PUSH1 0x1 PUSH1 0x1 PUSH1 0xA0 SHL SUB AND PUSH2 0x1DF0 JUMP JUMPDEST SWAP1 POP PUSH1 0x0 JUMPDEST DUP5 DUP2 LT ISZERO PUSH2 0x13CA JUMPI CALLDATASIZE DUP7 DUP7 DUP4 DUP2 DUP2 LT PUSH2 0x1358 JUMPI PUSH2 0x1358 PUSH2 0x3540 JUMP JUMPDEST SWAP1 POP PUSH1 0x60 MUL ADD SWAP1 POP PUSH1 0x40 MLOAD DUP1 PUSH1 0x40 ADD PUSH1 0x40 MSTORE DUP1 DUP3 PUSH1 0x40 ADD PUSH1 0x20 DUP2 ADD SWAP1 PUSH2 0x137E SWAP2 SWAP1 PUSH2 0x2FC8 JUMP JUMPDEST PUSH1 0x1 PUSH1 0x1 PUSH1 0xA0 SHL SUB AND DUP2 MSTORE PUSH1 0x20 ADD PUSH2 0x1396 DUP4 DUP7 PUSH2 0x1E3F JUMP JUMPDEST DUP2 MSTORE POP DUP5 DUP4 DUP2 MLOAD DUP2 LT PUSH2 0x13AB JUMPI PUSH2 0x13AB PUSH2 0x3540 JUMP JUMPDEST PUSH1 0x20 MUL PUSH1 0x20 ADD ADD DUP2 SWAP1 MSTORE POP POP DUP1 DUP1 PUSH2 0x13C2 SWAP1 PUSH2 0x356C JUMP JUMPDEST SWAP2 POP POP PUSH2 0x133D JUMP JUMPDEST POP SWAP1 SWAP5 SWAP4 POP POP POP POP JUMP JUMPDEST PUSH1 0x40 MLOAD PUSH4 0x21F8A721 PUSH1 0xE0 SHL DUP2 MSTORE PUSH32 0x524553455256455F4D414E414745525F41444452455353000000000000000000 PUSH1 0x4 DUP3 ADD MSTORE PUSH1 0x0 SWAP1 PUSH1 0x1 PUSH1 0x1 PUSH1 0xA0 SHL SUB DUP4 AND SWAP1 PUSH4 0x21F8A721 SWAP1 PUSH1 0x24 ADD PUSH2 0x1072 JUMP JUMPDEST PUSH1 0x40 DUP1 MLOAD DUP1 DUP3 ADD SWAP1 SWAP2 MSTORE PUSH1 0x60 DUP2 MSTORE PUSH1 0x0 PUSH1 0x20 DUP3 ADD MSTORE PUSH1 0x0 PUSH1 0x40 MLOAD DUP1 PUSH1 0x40 ADD PUSH1 0x40 MSTORE DUP1 DUP5 MLOAD PUSH1 0x1 PUSH1 0x1 PUSH1 0x40 SHL SUB DUP2 GT ISZERO PUSH2 0x145E JUMPI PUSH2 0x145E PUSH2 0x2FE5 JUMP JUMPDEST PUSH1 0x40 MLOAD SWAP1 DUP1 DUP3 MSTORE DUP1 PUSH1 0x20 MUL PUSH1 0x20 ADD DUP3 ADD PUSH1 0x40 MSTORE DUP1 ISZERO PUSH2 0x1497 JUMPI DUP2 PUSH1 0x20 ADD JUMPDEST PUSH2 0x1484 PUSH2 0x2D31 JUMP JUMPDEST DUP2 MSTORE PUSH1 0x20 ADD SWAP1 PUSH1 0x1 SWAP1 SUB SWAP1 DUP2 PUSH2 0x147C JUMPI SWAP1 POP JUMPDEST POP DUP2 MSTORE PUSH1 0x1 PUSH1 0x20 SWAP1 SWAP2 ADD MSTORE SWAP1 POP PUSH1 0x0 JUMPDEST DUP4 MLOAD DUP2 LT ISZERO PUSH2 0x1522 JUMPI PUSH1 0x0 DUP5 DUP3 DUP2 MLOAD DUP2 LT PUSH2 0x14C4 JUMPI PUSH2 0x14C4 PUSH2 0x3540 JUMP JUMPDEST PUSH1 0x20 MUL PUSH1 0x20 ADD ADD MLOAD SWAP1 POP PUSH1 0x40 MLOAD DUP1 PUSH1 0x40 ADD PUSH1 0x40 MSTORE DUP1 DUP3 DUP2 MSTORE PUSH1 0x20 ADD PUSH2 0x14ED DUP4 PUSH1 0x0 ADD MLOAD DUP10 PUSH2 0x20EC JUMP JUMPDEST SWAP1 MSTORE DUP4 MLOAD DUP1 MLOAD DUP5 SWAP1 DUP2 LT PUSH2 0x1503 JUMPI PUSH2 0x1503 PUSH2 0x3540 JUMP JUMPDEST PUSH1 0x20 MUL PUSH1 0x20 ADD ADD DUP2 SWAP1 MSTORE POP POP DUP1 DUP1 PUSH2 0x151A SWAP1 PUSH2 0x356C JUMP JUMPDEST SWAP2 POP POP PUSH2 0x14A7 JUMP JUMPDEST POP SWAP4 SWAP3 POP POP POP JUMP JUMPDEST PUSH1 0x40 MLOAD PUSH4 0x21F8A721 PUSH1 0xE0 SHL DUP2 MSTORE PUSH32 0x524F4F545F5341464554595F434845434B5F4144445245535300000000000000 PUSH1 0x4 DUP3 ADD MSTORE PUSH1 0x0 SWAP1 PUSH1 0x1 PUSH1 0x1 PUSH1 0xA0 SHL SUB DUP4 AND SWAP1 PUSH4 0x21F8A721 SWAP1 PUSH1 0x24 ADD PUSH2 0x1072 JUMP JUMPDEST PUSH1 0x40 MLOAD PUSH1 0x1 PUSH1 0x1 PUSH1 0xA0 SHL SUB DUP4 AND PUSH1 0x24 DUP3 ADD MSTORE PUSH1 0x44 DUP2 ADD DUP3 SWAP1 MSTORE PUSH2 0x1284 SWAP1 DUP5 SWAP1 PUSH4 0xA9059CBB PUSH1 0xE0 SHL SWAP1 PUSH1 0x64 ADD PUSH2 0x124D JUMP JUMPDEST PUSH1 0x40 MLOAD PUSH4 0x21F8A721 PUSH1 0xE0 SHL DUP2 MSTORE PUSH19 0x4645455F48414E444C45525F41444452455353 PUSH1 0x68 SHL PUSH1 0x4 DUP3 ADD MSTORE PUSH1 0x0 SWAP1 PUSH1 0x1 PUSH1 0x1 PUSH1 0xA0 SHL SUB DUP4 AND SWAP1 PUSH4 0x21F8A721 SWAP1 PUSH1 0x24 ADD PUSH2 0x1072 JUMP JUMPDEST PUSH1 0x0 DUP1 JUMPDEST DUP3 MLOAD MLOAD DUP2 LT ISZERO PUSH2 0x1674 JUMPI PUSH1 0x0 DUP4 PUSH1 0x0 ADD MLOAD DUP3 DUP2 MLOAD DUP2 LT PUSH2 0x1614 JUMPI PUSH2 0x1614 PUSH2 0x3540 JUMP JUMPDEST PUSH1 0x20 MUL PUSH1 0x20 ADD ADD MLOAD SWAP1 POP PUSH1 0x0 PUSH2 0x163F DUP3 PUSH1 0x0 ADD MLOAD PUSH1 0x20 ADD MLOAD DUP4 PUSH1 0x20 ADD MLOAD PUSH2 0x215F SWAP1 SWAP2 SWAP1 PUSH4 0xFFFFFFFF AND JUMP JUMPDEST DUP3 MLOAD PUSH1 0x40 ADD MLOAD SWAP1 SWAP2 POP PUSH2 0x1653 SWAP1 DUP3 SWAP1 PUSH2 0x21C7 JUMP JUMPDEST PUSH2 0x165D SWAP1 DUP6 PUSH2 0x370C JUMP JUMPDEST SWAP4 POP POP POP DUP1 DUP1 PUSH2 0x166C SWAP1 PUSH2 0x356C JUMP JUMPDEST SWAP2 POP POP PUSH2 0x15F2 JUMP JUMPDEST POP SWAP2 SWAP1 POP JUMP JUMPDEST PUSH1 0x40 DUP1 MLOAD DUP1 DUP3 ADD SWAP1 SWAP2 MSTORE PUSH1 0x60 DUP2 MSTORE PUSH1 0x0 PUSH1 0x20 DUP3 ADD MSTORE PUSH1 0x0 PUSH1 0x40 MLOAD DUP1 PUSH1 0x40 ADD PUSH1 0x40 MSTORE DUP1 DUP5 MLOAD PUSH1 0x1 PUSH1 0x1 PUSH1 0x40 SHL SUB DUP2 GT ISZERO PUSH2 0x16B5 JUMPI PUSH2 0x16B5 PUSH2 0x2FE5 JUMP JUMPDEST PUSH1 0x40 MLOAD SWAP1 DUP1 DUP3 MSTORE DUP1 PUSH1 0x20 MUL PUSH1 0x20 ADD DUP3 ADD PUSH1 0x40 MSTORE DUP1 ISZERO PUSH2 0x16EE JUMPI DUP2 PUSH1 0x20 ADD JUMPDEST PUSH2 0x16DB PUSH2 0x2D31 JUMP JUMPDEST DUP2 MSTORE PUSH1 0x20 ADD SWAP1 PUSH1 0x1 SWAP1 SUB SWAP1 DUP2 PUSH2 0x16D3 JUMPI SWAP1 POP JUMPDEST POP DUP2 MSTORE PUSH1 0x20 ADD PUSH1 0x0 ISZERO ISZERO DUP2 MSTORE POP SWAP1 POP PUSH1 0x0 DUP1 JUMPDEST DUP5 MLOAD DUP2 LT ISZERO PUSH2 0x1794 JUMPI PUSH1 0x0 DUP6 DUP3 DUP2 MLOAD DUP2 LT PUSH2 0x171E JUMPI PUSH2 0x171E PUSH2 0x3540 JUMP JUMPDEST PUSH1 0x20 MUL PUSH1 0x20 ADD ADD MLOAD SWAP1 POP PUSH1 0x0 DUP1 PUSH2 0x1737 DUP4 DUP13 DUP13 DUP13 PUSH2 0x21E8 JUMP JUMPDEST SWAP1 SWAP3 POP SWAP1 POP PUSH2 0x1746 DUP2 DUP7 PUSH2 0x370C JUMP JUMPDEST SWAP5 POP PUSH1 0x40 MLOAD DUP1 PUSH1 0x40 ADD PUSH1 0x40 MSTORE DUP1 DUP5 DUP2 MSTORE PUSH1 0x20 ADD DUP4 DUP2 MSTORE POP DUP7 PUSH1 0x0 ADD MLOAD DUP6 DUP2 MLOAD DUP2 LT PUSH2 0x1773 JUMPI PUSH2 0x1773 PUSH2 0x3540 JUMP JUMPDEST PUSH1 0x20 MUL PUSH1 0x20 ADD ADD DUP2 SWAP1 MSTORE POP POP POP POP DUP1 DUP1 PUSH2 0x178C SWAP1 PUSH2 0x356C JUMP JUMPDEST SWAP2 POP POP PUSH2 0x1701 JUMP JUMPDEST POP PUSH1 0x40 DUP1 MLOAD DUP1 DUP3 ADD SWAP1 SWAP2 MSTORE PUSH1 0x2 DUP2 MSTORE PUSH2 0x3331 PUSH1 0xF0 SHL PUSH1 0x20 DUP3 ADD MSTORE PUSH8 0xDE0B6B3A7640000 DUP3 EQ PUSH2 0x17D6 JUMPI PUSH1 0x40 MLOAD PUSH3 0x461BCD PUSH1 0xE5 SHL DUP2 MSTORE PUSH1 0x4 ADD PUSH2 0x53F SWAP2 SWAP1 PUSH2 0x36DC JUMP JUMPDEST POP SWAP1 SWAP7 SWAP6 POP POP POP POP POP POP JUMP JUMPDEST PUSH1 0x60 DUP1 DUP4 PUSH1 0x1 PUSH1 0x1 PUSH1 0x40 SHL SUB DUP2 GT ISZERO PUSH2 0x17FD JUMPI PUSH2 0x17FD PUSH2 0x2FE5 JUMP JUMPDEST PUSH1 0x40 MLOAD SWAP1 DUP1 DUP3 MSTORE DUP1 PUSH1 0x20 MUL PUSH1 0x20 ADD DUP3 ADD PUSH1 0x40 MSTORE DUP1 ISZERO PUSH2 0x1826 JUMPI DUP2 PUSH1 0x20 ADD PUSH1 0x20 DUP3 MUL DUP1 CALLDATASIZE DUP4 CALLDATACOPY ADD SWAP1 POP JUMPDEST POP SWAP2 POP PUSH1 0x0 PUSH2 0x185D PUSH32 0x0 PUSH1 0x1 PUSH1 0x1 PUSH1 0xA0 SHL SUB AND PUSH2 0x1DF0 JUMP JUMPDEST SWAP1 POP PUSH1 0x0 JUMPDEST DUP6 DUP2 LT ISZERO PUSH2 0x1933 JUMPI CALLDATASIZE DUP8 DUP8 DUP4 DUP2 DUP2 LT PUSH2 0x187D JUMPI PUSH2 0x187D PUSH2 0x3540 JUMP JUMPDEST SWAP1 POP PUSH1 0x80 MUL ADD SWAP1 POP PUSH1 0x0 PUSH2 0x18A7 DUP8 PUSH1 0x0 ADD MLOAD DUP4 PUSH1 0x60 ADD PUSH1 0x20 DUP2 ADD SWAP1 PUSH2 0x18A2 SWAP2 SWAP1 PUSH2 0x2FC8 JUMP JUMPDEST PUSH2 0x22CE JUMP JUMPDEST SWAP1 POP PUSH1 0x0 PUSH2 0x18B6 DUP4 DUP4 DUP8 PUSH2 0x233B JUMP JUMPDEST DUP1 MLOAD SWAP1 SWAP8 POP SWAP1 SWAP2 POP ISZERO PUSH2 0x18CD JUMPI POP POP POP POP POP PUSH2 0x8F3 JUMP JUMPDEST DUP3 PUSH1 0x20 ADD CALLDATALOAD DUP2 LT ISZERO PUSH2 0x18FE JUMPI POP POP PUSH1 0x40 DUP1 MLOAD DUP1 DUP3 ADD SWAP1 SWAP2 MSTORE PUSH1 0x1 DUP2 MSTORE PUSH1 0x19 PUSH1 0xF9 SHL PUSH1 0x20 DUP3 ADD MSTORE SWAP4 POP PUSH2 0x8F3 SWAP3 POP POP POP JUMP JUMPDEST DUP1 DUP8 DUP6 DUP2 MLOAD DUP2 LT PUSH2 0x1911 JUMPI PUSH2 0x1911 PUSH2 0x3540 JUMP JUMPDEST PUSH1 0x20 MUL PUSH1 0x20 ADD ADD DUP2 DUP2 MSTORE POP POP POP POP POP DUP1 DUP1 PUSH2 0x192B SWAP1 PUSH2 0x356C JUMP JUMPDEST SWAP2 POP POP PUSH2 0x1862 JUMP JUMPDEST POP POP SWAP4 POP SWAP4 SWAP2 POP POP JUMP JUMPDEST PUSH1 0x60 DUP3 PUSH1 0x1 PUSH1 0x1 PUSH1 0x40 SHL SUB DUP2 GT ISZERO PUSH2 0x1957 JUMPI PUSH2 0x1957 PUSH2 0x2FE5 JUMP JUMPDEST PUSH1 0x40 MLOAD SWAP1 DUP1 DUP3 MSTORE DUP1 PUSH1 0x20 MUL PUSH1 0x20 ADD DUP3 ADD PUSH1 0x40 MSTORE DUP1 ISZERO PUSH2 0x1980 JUMPI DUP2 PUSH1 0x20 ADD PUSH1 0x20 DUP3 MUL DUP1 CALLDATASIZE DUP4 CALLDATACOPY ADD SWAP1 POP JUMPDEST POP SWAP1 POP PUSH1 0x0 PUSH2 0x19B7 PUSH32 0x0 PUSH1 0x1 PUSH1 0x1 PUSH1 0xA0 SHL SUB AND PUSH2 0x1DF0 JUMP JUMPDEST SWAP1 POP PUSH1 0x0 JUMPDEST DUP5 DUP2 LT ISZERO PUSH2 0x1AA0 JUMPI PUSH1 0x0 DUP7 DUP7 DUP4 DUP2 DUP2 LT PUSH2 0x19D8 JUMPI PUSH2 0x19D8 PUSH2 0x3540 JUMP JUMPDEST SWAP1 POP PUSH1 0x80 MUL ADD DUP1 CALLDATASIZE SUB DUP2 ADD SWAP1 PUSH2 0x19EE SWAP2 SWAP1 PUSH2 0x3724 JUMP JUMPDEST SWAP1 POP PUSH1 0x0 PUSH2 0x1A04 DUP7 PUSH1 0x0 ADD MLOAD DUP4 PUSH1 0x60 ADD MLOAD PUSH2 0x22CE JUMP JUMPDEST SWAP1 POP PUSH1 0x0 PUSH2 0x1A13 DUP4 DUP4 DUP8 PUSH2 0x26A7 JUMP JUMPDEST SWAP1 POP DUP3 PUSH1 0x20 ADD MLOAD DUP2 LT ISZERO PUSH1 0x40 MLOAD DUP1 PUSH1 0x40 ADD PUSH1 0x40 MSTORE DUP1 PUSH1 0x1 DUP2 MSTORE PUSH1 0x20 ADD PUSH1 0x19 PUSH1 0xF9 SHL DUP2 MSTORE POP SWAP1 PUSH2 0x1A55 JUMPI PUSH1 0x40 MLOAD PUSH3 0x461BCD PUSH1 0xE5 SHL DUP2 MSTORE PUSH1 0x4 ADD PUSH2 0x53F SWAP2 SWAP1 PUSH2 0x36DC JUMP JUMPDEST POP DUP1 DUP7 DUP6 DUP2 MLOAD DUP2 LT PUSH2 0x1A69 JUMPI PUSH2 0x1A69 PUSH2 0x3540 JUMP JUMPDEST PUSH1 0x20 SWAP1 DUP2 MUL SWAP2 SWAP1 SWAP2 ADD ADD MSTORE DUP3 MLOAD PUSH2 0x1A8A SWAP1 PUSH1 0x1 PUSH1 0x1 PUSH1 0xA0 SHL SUB AND CALLER DUP4 PUSH2 0x1579 JUMP JUMPDEST POP POP POP DUP1 DUP1 PUSH2 0x1A98 SWAP1 PUSH2 0x356C JUMP JUMPDEST SWAP2 POP POP PUSH2 0x19BC JUMP JUMPDEST POP POP SWAP4 SWAP3 POP POP POP JUMP JUMPDEST PUSH1 0x60 DUP1 DUP3 PUSH1 0x1 PUSH1 0x1 PUSH1 0x40 SHL SUB DUP2 GT ISZERO PUSH2 0x1AC4 JUMPI PUSH2 0x1AC4 PUSH2 0x2FE5 JUMP JUMPDEST PUSH1 0x40 MLOAD SWAP1 DUP1 DUP3 MSTORE DUP1 PUSH1 0x20 MUL PUSH1 0x20 ADD DUP3 ADD PUSH1 0x40 MSTORE DUP1 ISZERO PUSH2 0x1B09 JUMPI DUP2 PUSH1 0x20 ADD JUMPDEST PUSH1 0x40 DUP1 MLOAD DUP1 DUP3 ADD SWAP1 SWAP2 MSTORE PUSH1 0x0 DUP1 DUP3 MSTORE PUSH1 0x20 DUP3 ADD MSTORE DUP2 MSTORE PUSH1 0x20 ADD SWAP1 PUSH1 0x1 SWAP1 SUB SWAP1 DUP2 PUSH2 0x1AE2 JUMPI SWAP1 POP JUMPDEST POP SWAP2 POP PUSH1 0x0 PUSH2 0x1B40 PUSH32 0x0 PUSH1 0x1 PUSH1 0x1 PUSH1 0xA0 SHL SUB AND PUSH2 0x1DF0 JUMP JUMPDEST SWAP1 POP PUSH1 0x0 JUMPDEST DUP5 DUP2 LT ISZERO PUSH2 0x1BEC JUMPI CALLDATASIZE DUP7 DUP7 DUP4 DUP2 DUP2 LT PUSH2 0x1B60 JUMPI PUSH2 0x1B60 PUSH2 0x3540 JUMP JUMPDEST SWAP1 POP PUSH1 0x60 MUL ADD SWAP1 POP PUSH1 0x0 PUSH2 0x1B74 DUP3 DUP6 PUSH2 0x2960 JUMP JUMPDEST DUP1 MLOAD SWAP1 SWAP7 POP SWAP1 SWAP2 POP ISZERO PUSH2 0x1B8A JUMPI POP POP POP POP PUSH2 0x1BEF JUMP JUMPDEST PUSH1 0x40 MLOAD DUP1 PUSH1 0x40 ADD PUSH1 0x40 MSTORE DUP1 DUP4 PUSH1 0x40 ADD PUSH1 0x20 DUP2 ADD SWAP1 PUSH2 0x1BA8 SWAP2 SWAP1 PUSH2 0x2FC8 JUMP JUMPDEST PUSH1 0x1 PUSH1 0x1 PUSH1 0xA0 SHL SUB AND DUP2 MSTORE PUSH1 0x20 ADD DUP3 DUP2 MSTORE POP DUP7 DUP5 DUP2 MLOAD DUP2 LT PUSH2 0x1BCC JUMPI PUSH2 0x1BCC PUSH2 0x3540 JUMP JUMPDEST PUSH1 0x20 MUL PUSH1 0x20 ADD ADD DUP2 SWAP1 MSTORE POP POP POP DUP1 DUP1 PUSH2 0x1BE4 SWAP1 PUSH2 0x356C JUMP JUMPDEST SWAP2 POP POP PUSH2 0x1B45 JUMP JUMPDEST POP POP JUMPDEST SWAP3 POP SWAP3 SWAP1 POP JUMP JUMPDEST PUSH1 0x0 PUSH2 0x1C4B DUP3 PUSH1 0x40 MLOAD DUP1 PUSH1 0x40 ADD PUSH1 0x40 MSTORE DUP1 PUSH1 0x20 DUP2 MSTORE PUSH1 0x20 ADD PUSH32 0x5361666545524332303A206C6F772D6C6576656C2063616C6C206661696C6564 DUP2 MSTORE POP DUP6 PUSH1 0x1 PUSH1 0x1 PUSH1 0xA0 SHL SUB AND PUSH2 0x1289 SWAP1 SWAP3 SWAP2 SWAP1 PUSH4 0xFFFFFFFF AND JUMP JUMPDEST DUP1 MLOAD SWAP1 SWAP2 POP ISZERO PUSH2 0x1284 JUMPI DUP1 DUP1 PUSH1 0x20 ADD SWAP1 MLOAD DUP2 ADD SWAP1 PUSH2 0x1C69 SWAP2 SWAP1 PUSH2 0x3798 JUMP JUMPDEST PUSH2 0x1284 JUMPI PUSH1 0x40 MLOAD PUSH3 0x461BCD PUSH1 0xE5 SHL DUP2 MSTORE PUSH1 0x20 PUSH1 0x4 DUP3 ADD MSTORE PUSH1 0x2A PUSH1 0x24 DUP3 ADD MSTORE PUSH32 0x5361666545524332303A204552433230206F7065726174696F6E20646964206E PUSH1 0x44 DUP3 ADD MSTORE PUSH10 0x1BDD081CDD58D8D95959 PUSH1 0xB2 SHL PUSH1 0x64 DUP3 ADD MSTORE PUSH1 0x84 ADD PUSH2 0x53F JUMP JUMPDEST PUSH1 0x60 DUP3 SELFBALANCE LT ISZERO PUSH2 0x1D29 JUMPI PUSH1 0x40 MLOAD PUSH3 0x461BCD PUSH1 0xE5 SHL DUP2 MSTORE PUSH1 0x20 PUSH1 0x4 DUP3 ADD MSTORE PUSH1 0x26 PUSH1 0x24 DUP3 ADD MSTORE PUSH32 0x416464726573733A20696E73756666696369656E742062616C616E636520666F PUSH1 0x44 DUP3 ADD MSTORE PUSH6 0x1C8818D85B1B PUSH1 0xD2 SHL PUSH1 0x64 DUP3 ADD MSTORE PUSH1 0x84 ADD PUSH2 0x53F JUMP JUMPDEST DUP5 EXTCODESIZE PUSH2 0x1D77 JUMPI PUSH1 0x40 MLOAD PUSH3 0x461BCD PUSH1 0xE5 SHL DUP2 MSTORE PUSH1 0x20 PUSH1 0x4 DUP3 ADD MSTORE PUSH1 0x1D PUSH1 0x24 DUP3 ADD MSTORE PUSH32 0x416464726573733A2063616C6C20746F206E6F6E2D636F6E7472616374000000 PUSH1 0x44 DUP3 ADD MSTORE PUSH1 0x64 ADD PUSH2 0x53F JUMP JUMPDEST PUSH1 0x0 DUP1 DUP7 PUSH1 0x1 PUSH1 0x1 PUSH1 0xA0 SHL SUB AND DUP6 DUP8 PUSH1 0x40 MLOAD PUSH2 0x1D93 SWAP2 SWAP1 PUSH2 0x37B3 JUMP JUMPDEST PUSH1 0x0 PUSH1 0x40 MLOAD DUP1 DUP4 SUB DUP2 DUP6 DUP8 GAS CALL SWAP3 POP POP POP RETURNDATASIZE DUP1 PUSH1 0x0 DUP2 EQ PUSH2 0x1DD0 JUMPI PUSH1 0x40 MLOAD SWAP2 POP PUSH1 0x1F NOT PUSH1 0x3F RETURNDATASIZE ADD AND DUP3 ADD PUSH1 0x40 MSTORE RETURNDATASIZE DUP3 MSTORE RETURNDATASIZE PUSH1 0x0 PUSH1 0x20 DUP5 ADD RETURNDATACOPY PUSH2 0x1DD5 JUMP JUMPDEST PUSH1 0x60 SWAP2 POP JUMPDEST POP SWAP2 POP SWAP2 POP PUSH2 0x1DE5 DUP3 DUP3 DUP7 PUSH2 0x2C13 JUMP JUMPDEST SWAP8 SWAP7 POP POP POP POP POP POP POP JUMP JUMPDEST PUSH1 0x40 MLOAD PUSH4 0x21F8A721 PUSH1 0xE0 SHL DUP2 MSTORE PUSH32 0x45584348414E4745525F52454749535452595F41444452455353000000000000 PUSH1 0x4 DUP3 ADD MSTORE PUSH1 0x0 SWAP1 PUSH1 0x1 PUSH1 0x1 PUSH1 0xA0 SHL SUB DUP4 AND SWAP1 PUSH4 0x21F8A721 SWAP1 PUSH1 0x24 ADD PUSH2 0x1072 JUMP JUMPDEST PUSH1 0x0 DUP1 PUSH2 0x1E52 PUSH1 0x60 DUP6 ADD PUSH1 0x40 DUP7 ADD PUSH2 0x2FC8 JUMP JUMPDEST SWAP1 POP PUSH2 0x1E7B CALLER ADDRESS PUSH1 0x20 DUP8 ADD DUP1 CALLDATALOAD SWAP1 PUSH2 0x1E6A SWAP1 DUP10 PUSH2 0x2FC8 JUMP JUMPDEST PUSH1 0x1 PUSH1 0x1 PUSH1 0xA0 SHL SUB AND SWAP3 SWAP2 SWAP1 PUSH2 0x2C4C JUMP JUMPDEST PUSH1 0x1 PUSH1 0x1 PUSH1 0xA0 SHL SUB DUP2 AND PUSH2 0x1E92 PUSH1 0x20 DUP7 ADD DUP7 PUSH2 0x2FC8 JUMP JUMPDEST PUSH1 0x1 PUSH1 0x1 PUSH1 0xA0 SHL SUB AND EQ ISZERO PUSH2 0x1EAD JUMPI POP POP PUSH1 0x20 DUP3 ADD CALLDATALOAD PUSH2 0x10B3 JUMP JUMPDEST PUSH1 0x0 DUP1 DUP3 PUSH1 0x1 PUSH1 0x1 PUSH1 0xA0 SHL SUB AND PUSH4 0x6F307DC3 PUSH1 0x40 MLOAD DUP2 PUSH4 0xFFFFFFFF AND PUSH1 0xE0 SHL DUP2 MSTORE PUSH1 0x4 ADD PUSH1 0x20 PUSH1 0x40 MLOAD DUP1 DUP4 SUB DUP2 DUP7 GAS STATICCALL ISZERO DUP1 ISZERO PUSH2 0x1EEE JUMPI RETURNDATASIZE PUSH1 0x0 DUP1 RETURNDATACOPY RETURNDATASIZE PUSH1 0x0 REVERT JUMPDEST POP POP POP POP PUSH1 0x40 MLOAD RETURNDATASIZE PUSH1 0x1F NOT PUSH1 0x1F DUP3 ADD AND DUP3 ADD DUP1 PUSH1 0x40 MSTORE POP DUP2 ADD SWAP1 PUSH2 0x1F12 SWAP2 SWAP1 PUSH2 0x36EF JUMP JUMPDEST SWAP1 POP PUSH1 0x1 PUSH1 0x1 PUSH1 0xA0 SHL SUB DUP2 AND PUSH2 0x1F2B PUSH1 0x20 DUP9 ADD DUP9 PUSH2 0x2FC8 JUMP JUMPDEST PUSH1 0x1 PUSH1 0x1 PUSH1 0xA0 SHL SUB AND EQ ISZERO PUSH2 0x1F46 JUMPI DUP6 PUSH1 0x20 ADD CALLDATALOAD SWAP2 POP PUSH2 0x205C JUMP JUMPDEST PUSH1 0x40 MLOAD PUSH4 0x150F4F51 PUSH1 0xE0 SHL DUP2 MSTORE PUSH1 0x1 PUSH1 0x1 PUSH1 0xA0 SHL SUB DUP3 DUP2 AND PUSH1 0x4 DUP4 ADD MSTORE PUSH1 0x0 SWAP2 SWAP1 DUP8 AND SWAP1 PUSH4 0x150F4F51 SWAP1 PUSH1 0x24 ADD PUSH1 0x20 PUSH1 0x40 MLOAD DUP1 DUP4 SUB DUP2 DUP7 GAS STATICCALL ISZERO DUP1 ISZERO PUSH2 0x1F90 JUMPI RETURNDATASIZE PUSH1 0x0 DUP1 RETURNDATACOPY RETURNDATASIZE PUSH1 0x0 REVERT JUMPDEST POP POP POP POP PUSH1 0x40 MLOAD RETURNDATASIZE PUSH1 0x1F NOT PUSH1 0x1F DUP3 ADD AND DUP3 ADD DUP1 PUSH1 0x40 MSTORE POP DUP2 ADD SWAP1 PUSH2 0x1FB4 SWAP2 SWAP1 PUSH2 0x36EF JUMP JUMPDEST SWAP1 POP DUP1 PUSH1 0x1 PUSH1 0x1 PUSH1 0xA0 SHL SUB AND PUSH4 0x5C7A2A80 PUSH1 0x40 MLOAD DUP1 PUSH1 0x40 ADD PUSH1 0x40 MSTORE DUP1 DUP11 PUSH1 0x0 ADD PUSH1 0x20 DUP2 ADD SWAP1 PUSH2 0x1FE3 SWAP2 SWAP1 PUSH2 0x2FC8 JUMP JUMPDEST PUSH1 0x1 PUSH1 0x1 PUSH1 0xA0 SHL SUB AND DUP2 MSTORE PUSH1 0x20 ADD DUP11 PUSH1 0x20 ADD CALLDATALOAD DUP2 MSTORE POP PUSH1 0x40 MLOAD DUP3 PUSH4 0xFFFFFFFF AND PUSH1 0xE0 SHL DUP2 MSTORE PUSH1 0x4 ADD PUSH2 0x2015 SWAP2 SWAP1 PUSH2 0x37CF JUMP JUMPDEST PUSH1 0x20 PUSH1 0x40 MLOAD DUP1 DUP4 SUB DUP2 PUSH1 0x0 DUP8 GAS CALL ISZERO DUP1 ISZERO PUSH2 0x2034 JUMPI RETURNDATASIZE PUSH1 0x0 DUP1 RETURNDATACOPY RETURNDATASIZE PUSH1 0x0 REVERT JUMPDEST POP POP POP POP PUSH1 0x40 MLOAD RETURNDATASIZE PUSH1 0x1F NOT PUSH1 0x1F DUP3 ADD AND DUP3 ADD DUP1 PUSH1 0x40 MSTORE POP DUP2 ADD SWAP1 PUSH2 0x2058 SWAP2 SWAP1 PUSH2 0x36C3 JUMP JUMPDEST SWAP3 POP POP JUMPDEST PUSH2 0x2070 PUSH1 0x1 PUSH1 0x1 PUSH1 0xA0 SHL SUB DUP3 AND DUP5 DUP5 PUSH2 0x113C JUMP JUMPDEST PUSH1 0x40 MLOAD PUSH4 0x1C57762B PUSH1 0xE3 SHL DUP2 MSTORE PUSH1 0x4 DUP2 ADD DUP4 SWAP1 MSTORE PUSH1 0x0 PUSH1 0x24 DUP3 ADD MSTORE PUSH1 0x1 PUSH1 0x1 PUSH1 0xA0 SHL SUB DUP5 AND SWAP1 PUSH4 0xE2BBB158 SWAP1 PUSH1 0x44 ADD PUSH1 0x20 PUSH1 0x40 MLOAD DUP1 DUP4 SUB DUP2 PUSH1 0x0 DUP8 GAS CALL ISZERO DUP1 ISZERO PUSH2 0x20BE JUMPI RETURNDATASIZE PUSH1 0x0 DUP1 RETURNDATACOPY RETURNDATASIZE PUSH1 0x0 REVERT JUMPDEST POP POP POP POP PUSH1 0x40 MLOAD RETURNDATASIZE PUSH1 0x1F NOT PUSH1 0x1F DUP3 ADD AND DUP3 ADD DUP1 PUSH1 0x40 MSTORE POP DUP2 ADD SWAP1 PUSH2 0x20E2 SWAP2 SWAP1 PUSH2 0x36C3 JUMP JUMPDEST SWAP7 SWAP6 POP POP POP POP POP POP JUMP JUMPDEST PUSH1 0x0 DUP1 JUMPDEST DUP3 MLOAD DUP2 LT ISZERO PUSH2 0x2155 JUMPI PUSH1 0x0 DUP4 DUP3 DUP2 MLOAD DUP2 LT PUSH2 0x210D JUMPI PUSH2 0x210D PUSH2 0x3540 JUMP JUMPDEST PUSH1 0x20 MUL PUSH1 0x20 ADD ADD MLOAD SWAP1 POP DUP5 PUSH1 0x1 PUSH1 0x1 PUSH1 0xA0 SHL SUB AND DUP2 PUSH1 0x0 ADD MLOAD PUSH1 0x1 PUSH1 0x1 PUSH1 0xA0 SHL SUB AND EQ ISZERO PUSH2 0x2142 JUMPI PUSH1 0x20 ADD MLOAD SWAP2 POP PUSH2 0x10B3 SWAP1 POP JUMP JUMPDEST POP DUP1 PUSH2 0x214D DUP2 PUSH2 0x356C JUMP JUMPDEST SWAP2 POP POP PUSH2 0x20F0 JUMP JUMPDEST POP PUSH1 0x0 SWAP4 SWAP3 POP POP POP JUMP JUMPDEST PUSH1 0x0 PUSH1 0xFF DUP3 AND PUSH1 0x12 EQ ISZERO PUSH2 0x2174 JUMPI POP DUP2 PUSH2 0x10B3 JUMP JUMPDEST PUSH1 0x12 PUSH1 0xFF DUP4 AND GT ISZERO PUSH2 0x21A7 JUMPI PUSH2 0x218B PUSH1 0x12 DUP4 PUSH2 0x37EF JUMP JUMPDEST PUSH2 0x2196 SWAP1 PUSH1 0xA PUSH2 0x38F6 JUMP JUMPDEST PUSH2 0x21A0 SWAP1 DUP5 PUSH2 0x3905 JUMP JUMPDEST SWAP1 POP PUSH2 0x10B3 JUMP JUMPDEST PUSH2 0x21B2 DUP3 PUSH1 0x12 PUSH2 0x37EF JUMP JUMPDEST PUSH2 0x21BD SWAP1 PUSH1 0xA PUSH2 0x38F6 JUMP JUMPDEST PUSH2 0x21A0 SWAP1 DUP5 PUSH2 0x3927 JUMP JUMPDEST PUSH1 0x0 DUP1 PUSH2 0x21D4 DUP4 DUP6 PUSH2 0x3927 JUMP JUMPDEST SWAP1 POP PUSH2 0x1298 PUSH8 0xDE0B6B3A7640000 DUP3 PUSH2 0x3905 JUMP JUMPDEST PUSH1 0x0 DUP1 PUSH1 0x0 JUMPDEST DUP4 DUP2 LT ISZERO PUSH2 0x22BC JUMPI PUSH1 0x0 DUP6 DUP6 DUP4 DUP2 DUP2 LT PUSH2 0x220A JUMPI PUSH2 0x220A PUSH2 0x3540 JUMP JUMPDEST SWAP1 POP PUSH1 0x80 MUL ADD DUP1 CALLDATASIZE SUB DUP2 ADD SWAP1 PUSH2 0x2220 SWAP2 SWAP1 PUSH2 0x3724 JUMP JUMPDEST SWAP1 POP DUP8 PUSH1 0x0 ADD MLOAD PUSH1 0x1 PUSH1 0x1 PUSH1 0xA0 SHL SUB AND DUP2 PUSH1 0x60 ADD MLOAD PUSH1 0x1 PUSH1 0x1 PUSH1 0xA0 SHL SUB AND EQ ISZERO PUSH2 0x22A9 JUMPI PUSH1 0x0 PUSH2 0x225D DUP3 PUSH1 0x40 ADD MLOAD DUP10 PUSH2 0x21C7 SWAP1 SWAP2 SWAP1 PUSH4 0xFFFFFFFF AND JUMP JUMPDEST SWAP1 POP PUSH1 0x0 PUSH2 0x2278 DUP11 PUSH1 0x40 ADD MLOAD DUP4 PUSH2 0x2C8A SWAP1 SWAP2 SWAP1 PUSH4 0xFFFFFFFF AND JUMP JUMPDEST SWAP1 POP PUSH1 0x0 PUSH2 0x2293 DUP12 PUSH1 0x20 ADD MLOAD DUP4 PUSH2 0x2CFA SWAP1 SWAP2 SWAP1 PUSH4 0xFFFFFFFF AND JUMP JUMPDEST SWAP1 POP DUP1 DUP5 PUSH1 0x40 ADD MLOAD SWAP7 POP SWAP7 POP POP POP POP POP POP PUSH2 0x22C5 JUMP JUMPDEST POP DUP1 PUSH2 0x22B4 DUP2 PUSH2 0x356C JUMP JUMPDEST SWAP2 POP POP PUSH2 0x21EE JUMP JUMPDEST POP PUSH1 0x0 DUP1 SWAP2 POP SWAP2 POP JUMPDEST SWAP5 POP SWAP5 SWAP3 POP POP POP JUMP JUMPDEST PUSH1 0x0 DUP1 JUMPDEST DUP4 MLOAD DUP2 LT ISZERO PUSH2 0x2155 JUMPI PUSH1 0x0 DUP5 DUP3 DUP2 MLOAD DUP2 LT PUSH2 0x22EF JUMPI PUSH2 0x22EF PUSH2 0x3540 JUMP JUMPDEST PUSH1 0x20 MUL PUSH1 0x20 ADD ADD MLOAD SWAP1 POP DUP4 PUSH1 0x1 PUSH1 0x1 PUSH1 0xA0 SHL SUB AND DUP2 PUSH1 0x0 ADD MLOAD PUSH1 0x0 ADD MLOAD PUSH1 0x1 PUSH1 0x1 PUSH1 0xA0 SHL SUB AND EQ ISZERO PUSH2 0x2328 JUMPI PUSH1 0x20 ADD MLOAD SWAP2 POP PUSH2 0x10B3 SWAP1 POP JUMP JUMPDEST POP DUP1 PUSH2 0x2333 DUP2 PUSH2 0x356C JUMP JUMPDEST SWAP2 POP POP PUSH2 0x22D2 JUMP JUMPDEST PUSH1 0x0 PUSH1 0x60 DUP2 PUSH2 0x234F PUSH1 0x80 DUP8 ADD DUP8 DUP5 ADD PUSH2 0x2FC8 JUMP JUMPDEST SWAP1 POP PUSH1 0x1 PUSH1 0x1 PUSH1 0xA0 SHL SUB DUP2 AND PUSH2 0x2368 PUSH1 0x20 DUP9 ADD DUP9 PUSH2 0x2FC8 JUMP JUMPDEST PUSH1 0x1 PUSH1 0x1 PUSH1 0xA0 SHL SUB AND EQ ISZERO PUSH2 0x2390 JUMPI POP POP PUSH1 0x40 DUP1 MLOAD PUSH1 0x20 DUP2 ADD SWAP1 SWAP2 MSTORE PUSH1 0x0 DUP2 MSTORE DUP4 SWAP2 POP PUSH2 0x8F3 JUMP JUMPDEST PUSH1 0x40 MLOAD PUSH4 0x70A08231 PUSH1 0xE0 SHL DUP2 MSTORE PUSH1 0x1 PUSH1 0x1 PUSH1 0xA0 SHL SUB PUSH32 0x0 DUP2 AND PUSH1 0x4 DUP4 ADD MSTORE PUSH1 0x0 SWAP2 DUP3 SWAP2 DUP5 AND SWAP1 PUSH4 0x70A08231 SWAP1 PUSH1 0x24 ADD PUSH1 0x20 PUSH1 0x40 MLOAD DUP1 DUP4 SUB DUP2 DUP7 GAS STATICCALL ISZERO DUP1 ISZERO PUSH2 0x23FB JUMPI RETURNDATASIZE PUSH1 0x0 DUP1 RETURNDATACOPY RETURNDATASIZE PUSH1 0x0 REVERT JUMPDEST POP POP POP POP PUSH1 0x40 MLOAD RETURNDATASIZE PUSH1 0x1F NOT PUSH1 0x1F DUP3 ADD AND DUP3 ADD DUP1 PUSH1 0x40 MSTORE POP DUP2 ADD SWAP1 PUSH2 0x241F SWAP2 SWAP1 PUSH2 0x36C3 JUMP JUMPDEST SWAP1 POP DUP7 DUP2 LT ISZERO PUSH2 0x2452 JUMPI PUSH1 0x0 PUSH1 0x40 MLOAD DUP1 PUSH1 0x40 ADD PUSH1 0x40 MSTORE DUP1 PUSH1 0x2 DUP2 MSTORE PUSH1 0x20 ADD PUSH2 0xCCD PUSH1 0xF2 SHL DUP2 MSTORE POP SWAP5 POP SWAP5 POP POP POP POP PUSH2 0x8F3 JUMP JUMPDEST PUSH1 0x40 MLOAD PUSH4 0xCC04FEFF PUSH1 0xE0 SHL DUP2 MSTORE PUSH1 0x4 DUP2 ADD DUP9 SWAP1 MSTORE PUSH1 0x0 PUSH1 0x24 DUP3 ADD MSTORE PUSH1 0x1 PUSH1 0x1 PUSH1 0xA0 SHL SUB DUP5 AND SWAP1 PUSH4 0xCC04FEFF SWAP1 PUSH1 0x44 ADD PUSH1 0x0 PUSH1 0x40 MLOAD DUP1 DUP4 SUB DUP2 DUP7 GAS STATICCALL ISZERO DUP1 ISZERO PUSH2 0x249E JUMPI RETURNDATASIZE PUSH1 0x0 DUP1 RETURNDATACOPY RETURNDATASIZE PUSH1 0x0 REVERT JUMPDEST POP POP POP POP PUSH1 0x40 MLOAD RETURNDATASIZE PUSH1 0x0 DUP3 RETURNDATACOPY PUSH1 0x1F RETURNDATASIZE SWAP1 DUP2 ADD PUSH1 0x1F NOT AND DUP3 ADD PUSH1 0x40 MSTORE PUSH2 0x24C6 SWAP2 SWAP1 DUP2 ADD SWAP1 PUSH2 0x3946 JUMP JUMPDEST DUP1 MLOAD SWAP1 SWAP6 POP SWAP1 SWAP3 POP ISZERO PUSH2 0x24DF JUMPI PUSH1 0x0 SWAP5 POP POP POP POP PUSH2 0x8F3 JUMP JUMPDEST PUSH1 0x0 DUP4 PUSH1 0x1 PUSH1 0x1 PUSH1 0xA0 SHL SUB AND PUSH4 0x6F307DC3 PUSH1 0x40 MLOAD DUP2 PUSH4 0xFFFFFFFF AND PUSH1 0xE0 SHL DUP2 MSTORE PUSH1 0x4 ADD PUSH1 0x20 PUSH1 0x40 MLOAD DUP1 DUP4 SUB DUP2 DUP7 GAS STATICCALL ISZERO DUP1 ISZERO PUSH2 0x251F JUMPI RETURNDATASIZE PUSH1 0x0 DUP1 RETURNDATACOPY RETURNDATASIZE PUSH1 0x0 REVERT JUMPDEST POP POP POP POP PUSH1 0x40 MLOAD RETURNDATASIZE PUSH1 0x1F NOT PUSH1 0x1F DUP3 ADD AND DUP3 ADD DUP1 PUSH1 0x40 MSTORE POP DUP2 ADD SWAP1 PUSH2 0x2543 SWAP2 SWAP1 PUSH2 0x36EF JUMP JUMPDEST SWAP1 POP PUSH1 0x1 PUSH1 0x1 PUSH1 0xA0 SHL SUB DUP2 AND PUSH2 0x255C PUSH1 0x20 DUP12 ADD DUP12 PUSH2 0x2FC8 JUMP JUMPDEST PUSH1 0x1 PUSH1 0x1 PUSH1 0xA0 SHL SUB AND EQ ISZERO PUSH2 0x2589 JUMPI DUP3 PUSH1 0x40 MLOAD DUP1 PUSH1 0x20 ADD PUSH1 0x40 MSTORE DUP1 PUSH1 0x0 DUP2 MSTORE POP SWAP6 POP SWAP6 POP POP POP POP POP PUSH2 0x8F3 JUMP JUMPDEST PUSH1 0x40 MLOAD PUSH4 0x150F4F51 PUSH1 0xE0 SHL DUP2 MSTORE PUSH1 0x1 PUSH1 0x1 PUSH1 0xA0 SHL SUB DUP3 DUP2 AND PUSH1 0x4 DUP4 ADD MSTORE PUSH1 0x0 SWAP2 SWAP1 DUP10 AND SWAP1 PUSH4 0x150F4F51 SWAP1 PUSH1 0x24 ADD PUSH1 0x20 PUSH1 0x40 MLOAD DUP1 DUP4 SUB DUP2 DUP7 GAS STATICCALL ISZERO DUP1 ISZERO PUSH2 0x25D3 JUMPI RETURNDATASIZE PUSH1 0x0 DUP1 RETURNDATACOPY RETURNDATASIZE PUSH1 0x0 REVERT JUMPDEST POP POP POP POP PUSH1 0x40 MLOAD RETURNDATASIZE PUSH1 0x1F NOT PUSH1 0x1F DUP3 ADD AND DUP3 ADD DUP1 PUSH1 0x40 MSTORE POP DUP2 ADD SWAP1 PUSH2 0x25F7 SWAP2 SWAP1 PUSH2 0x36EF JUMP JUMPDEST SWAP1 POP DUP1 PUSH1 0x1 PUSH1 0x1 PUSH1 0xA0 SHL SUB AND PUSH4 0x74E53577 PUSH1 0x40 MLOAD DUP1 PUSH1 0x40 ADD PUSH1 0x40 MSTORE DUP1 DUP14 PUSH1 0x0 ADD PUSH1 0x20 DUP2 ADD SWAP1 PUSH2 0x2626 SWAP2 SWAP1 PUSH2 0x2FC8 JUMP JUMPDEST PUSH1 0x1 PUSH1 0x1 PUSH1 0xA0 SHL SUB AND DUP2 MSTORE PUSH1 0x20 ADD DUP8 DUP2 MSTORE POP PUSH1 0x40 MLOAD DUP3 PUSH4 0xFFFFFFFF AND PUSH1 0xE0 SHL DUP2 MSTORE PUSH1 0x4 ADD PUSH2 0x2654 SWAP2 SWAP1 PUSH2 0x37CF JUMP JUMPDEST PUSH1 0x0 PUSH1 0x40 MLOAD DUP1 DUP4 SUB DUP2 DUP7 GAS STATICCALL ISZERO DUP1 ISZERO PUSH2 0x2671 JUMPI RETURNDATASIZE PUSH1 0x0 DUP1 RETURNDATACOPY RETURNDATASIZE PUSH1 0x0 REVERT JUMPDEST POP POP POP POP PUSH1 0x40 MLOAD RETURNDATASIZE PUSH1 0x0 DUP3 RETURNDATACOPY PUSH1 0x1F RETURNDATASIZE SWAP1 DUP2 ADD PUSH1 0x1F NOT AND DUP3 ADD PUSH1 0x40 MSTORE PUSH2 0x2699 SWAP2 SWAP1 DUP2 ADD SWAP1 PUSH2 0x3946 JUMP JUMPDEST SWAP7 POP SWAP7 POP POP POP POP POP POP PUSH2 0x8F3 JUMP JUMPDEST PUSH1 0x60 DUP4 ADD MLOAD PUSH1 0x40 MLOAD PUSH4 0x13C50353 PUSH1 0xE3 SHL DUP2 MSTORE PUSH1 0x1 PUSH1 0x1 PUSH1 0xA0 SHL SUB DUP1 DUP4 AND PUSH1 0x4 DUP4 ADD MSTORE PUSH1 0x24 DUP3 ADD DUP6 SWAP1 MSTORE PUSH1 0x0 SWAP3 SWAP2 PUSH32 0x0 SWAP1 SWAP2 AND SWAP1 PUSH4 0x9E281A98 SWAP1 PUSH1 0x44 ADD PUSH1 0x0 PUSH1 0x40 MLOAD DUP1 DUP4 SUB DUP2 PUSH1 0x0 DUP8 DUP1 EXTCODESIZE ISZERO DUP1 ISZERO PUSH2 0x271C JUMPI PUSH1 0x0 DUP1 REVERT JUMPDEST POP GAS CALL ISZERO DUP1 ISZERO PUSH2 0x2730 JUMPI RETURNDATASIZE PUSH1 0x0 DUP1 RETURNDATACOPY RETURNDATASIZE PUSH1 0x0 REVERT JUMPDEST POP POP POP POP DUP1 PUSH1 0x1 PUSH1 0x1 PUSH1 0xA0 SHL SUB AND DUP6 PUSH1 0x0 ADD MLOAD PUSH1 0x1 PUSH1 0x1 PUSH1 0xA0 SHL SUB AND EQ ISZERO PUSH2 0x275B JUMPI DUP4 SWAP2 POP POP PUSH2 0x607 JUMP JUMPDEST PUSH1 0x40 MLOAD PUSH4 0x441A3E7 PUSH1 0xE4 SHL DUP2 MSTORE PUSH1 0x4 DUP2 ADD DUP6 SWAP1 MSTORE PUSH1 0x0 PUSH1 0x24 DUP3 ADD DUP2 SWAP1 MSTORE SWAP1 PUSH1 0x1 PUSH1 0x1 PUSH1 0xA0 SHL SUB DUP4 AND SWAP1 PUSH4 0x441A3E70 SWAP1 PUSH1 0x44 ADD PUSH1 0x20 PUSH1 0x40 MLOAD DUP1 DUP4 SUB DUP2 PUSH1 0x0 DUP8 GAS CALL ISZERO DUP1 ISZERO PUSH2 0x27AC JUMPI RETURNDATASIZE PUSH1 0x0 DUP1 RETURNDATACOPY RETURNDATASIZE PUSH1 0x0 REVERT JUMPDEST POP POP POP POP PUSH1 0x40 MLOAD RETURNDATASIZE PUSH1 0x1F NOT PUSH1 0x1F DUP3 ADD AND DUP3 ADD DUP1 PUSH1 0x40 MSTORE POP DUP2 ADD SWAP1 PUSH2 0x27D0 SWAP2 SWAP1 PUSH2 0x36C3 JUMP JUMPDEST SWAP1 POP PUSH1 0x0 DUP3 PUSH1 0x1 PUSH1 0x1 PUSH1 0xA0 SHL SUB AND PUSH4 0x6F307DC3 PUSH1 0x40 MLOAD DUP2 PUSH4 0xFFFFFFFF AND PUSH1 0xE0 SHL DUP2 MSTORE PUSH1 0x4 ADD PUSH1 0x20 PUSH1 0x40 MLOAD DUP1 DUP4 SUB DUP2 DUP7 GAS STATICCALL ISZERO DUP1 ISZERO PUSH2 0x2812 JUMPI RETURNDATASIZE PUSH1 0x0 DUP1 RETURNDATACOPY RETURNDATASIZE PUSH1 0x0 REVERT JUMPDEST POP POP POP POP PUSH1 0x40 MLOAD RETURNDATASIZE PUSH1 0x1F NOT PUSH1 0x1F DUP3 ADD AND DUP3 ADD DUP1 PUSH1 0x40 MSTORE POP DUP2 ADD SWAP1 PUSH2 0x2836 SWAP2 SWAP1 PUSH2 0x36EF JUMP JUMPDEST SWAP1 POP DUP1 PUSH1 0x1 PUSH1 0x1 PUSH1 0xA0 SHL SUB AND DUP8 PUSH1 0x0 ADD MLOAD PUSH1 0x1 PUSH1 0x1 PUSH1 0xA0 SHL SUB AND EQ ISZERO PUSH2 0x2860 JUMPI POP SWAP2 POP PUSH2 0x607 SWAP1 POP JUMP JUMPDEST PUSH1 0x40 MLOAD PUSH4 0x150F4F51 PUSH1 0xE0 SHL DUP2 MSTORE PUSH1 0x1 PUSH1 0x1 PUSH1 0xA0 SHL SUB DUP3 DUP2 AND PUSH1 0x4 DUP4 ADD MSTORE PUSH1 0x0 SWAP2 SWAP1 DUP8 AND SWAP1 PUSH4 0x150F4F51 SWAP1 PUSH1 0x24 ADD PUSH1 0x20 PUSH1 0x40 MLOAD DUP1 DUP4 SUB DUP2 DUP7 GAS STATICCALL ISZERO DUP1 ISZERO PUSH2 0x28AA JUMPI RETURNDATASIZE PUSH1 0x0 DUP1 RETURNDATACOPY RETURNDATASIZE PUSH1 0x0 REVERT JUMPDEST POP POP POP POP PUSH1 0x40 MLOAD RETURNDATASIZE PUSH1 0x1F NOT PUSH1 0x1F DUP3 ADD AND DUP3 ADD DUP1 PUSH1 0x40 MSTORE POP DUP2 ADD SWAP1 PUSH2 0x28CE SWAP2 SWAP1 PUSH2 0x36EF JUMP JUMPDEST PUSH1 0x40 DUP1 MLOAD DUP1 DUP3 ADD DUP3 MSTORE DUP11 MLOAD PUSH1 0x1 PUSH1 0x1 PUSH1 0xA0 SHL SUB SWAP1 DUP2 AND DUP3 MSTORE PUSH1 0x20 DUP3 ADD DUP8 SWAP1 MSTORE SWAP2 MLOAD PUSH4 0x3C565417 PUSH1 0xE0 SHL DUP2 MSTORE SWAP3 SWAP4 POP SWAP1 DUP4 AND SWAP2 PUSH4 0x3C565417 SWAP2 PUSH2 0x2912 SWAP2 PUSH1 0x4 ADD PUSH2 0x37CF JUMP JUMPDEST PUSH1 0x20 PUSH1 0x40 MLOAD DUP1 DUP4 SUB DUP2 PUSH1 0x0 DUP8 GAS CALL ISZERO DUP1 ISZERO PUSH2 0x2931 JUMPI RETURNDATASIZE PUSH1 0x0 DUP1 RETURNDATACOPY RETURNDATASIZE PUSH1 0x0 REVERT JUMPDEST POP POP POP POP PUSH1 0x40 MLOAD RETURNDATASIZE PUSH1 0x1F NOT PUSH1 0x1F DUP3 ADD AND DUP3 ADD DUP1 PUSH1 0x40 MSTORE POP DUP2 ADD SWAP1 PUSH2 0x2955 SWAP2 SWAP1 PUSH2 0x36C3 JUMP JUMPDEST SWAP5 POP POP POP POP POP PUSH2 0x607 JUMP JUMPDEST PUSH1 0x0 PUSH1 0x60 PUSH2 0x2973 DUP5 DUP3 ADD PUSH1 0x40 DUP7 ADD PUSH2 0x2FC8 JUMP JUMPDEST PUSH1 0x1 PUSH1 0x1 PUSH1 0xA0 SHL SUB AND PUSH2 0x2989 PUSH1 0x20 DUP7 ADD DUP7 PUSH2 0x2FC8 JUMP JUMPDEST PUSH1 0x1 PUSH1 0x1 PUSH1 0xA0 SHL SUB AND EQ ISZERO PUSH2 0x29B6 JUMPI DUP4 PUSH1 0x20 ADD CALLDATALOAD PUSH1 0x40 MLOAD DUP1 PUSH1 0x20 ADD PUSH1 0x40 MSTORE DUP1 PUSH1 0x0 DUP2 MSTORE POP SWAP2 POP SWAP2 POP PUSH2 0x1BEF JUMP JUMPDEST PUSH1 0x0 PUSH2 0x29C8 PUSH1 0x60 DUP7 ADD PUSH1 0x40 DUP8 ADD PUSH2 0x2FC8 JUMP JUMPDEST SWAP1 POP PUSH1 0x0 DUP2 PUSH1 0x1 PUSH1 0x1 PUSH1 0xA0 SHL SUB AND PUSH4 0x6F307DC3 PUSH1 0x40 MLOAD DUP2 PUSH4 0xFFFFFFFF AND PUSH1 0xE0 SHL DUP2 MSTORE PUSH1 0x4 ADD PUSH1 0x20 PUSH1 0x40 MLOAD DUP1 DUP4 SUB DUP2 DUP7 GAS STATICCALL ISZERO DUP1 ISZERO PUSH2 0x2A0A JUMPI RETURNDATASIZE PUSH1 0x0 DUP1 RETURNDATACOPY RETURNDATASIZE PUSH1 0x0 REVERT JUMPDEST POP POP POP POP PUSH1 0x40 MLOAD RETURNDATASIZE PUSH1 0x1F NOT PUSH1 0x1F DUP3 ADD AND DUP3 ADD DUP1 PUSH1 0x40 MSTORE POP DUP2 ADD SWAP1 PUSH2 0x2A2E SWAP2 SWAP1 PUSH2 0x36EF JUMP JUMPDEST SWAP1 POP PUSH1 0x0 PUSH1 0x1 PUSH1 0x1 PUSH1 0xA0 SHL SUB DUP3 AND PUSH2 0x2A49 PUSH1 0x20 DUP10 ADD DUP10 PUSH2 0x2FC8 JUMP JUMPDEST PUSH1 0x1 PUSH1 0x1 PUSH1 0xA0 SHL SUB AND EQ ISZERO PUSH2 0x2A63 JUMPI POP PUSH1 0x20 DUP7 ADD CALLDATALOAD PUSH2 0x2B93 JUMP JUMPDEST PUSH1 0x40 MLOAD PUSH4 0x150F4F51 PUSH1 0xE0 SHL DUP2 MSTORE PUSH1 0x1 PUSH1 0x1 PUSH1 0xA0 SHL SUB DUP4 DUP2 AND PUSH1 0x4 DUP4 ADD MSTORE PUSH1 0x0 SWAP2 SWAP1 DUP9 AND SWAP1 PUSH4 0x150F4F51 SWAP1 PUSH1 0x24 ADD PUSH1 0x20 PUSH1 0x40 MLOAD DUP1 DUP4 SUB DUP2 DUP7 GAS STATICCALL ISZERO DUP1 ISZERO PUSH2 0x2AAD JUMPI RETURNDATASIZE PUSH1 0x0 DUP1 RETURNDATACOPY RETURNDATASIZE PUSH1 0x0 REVERT JUMPDEST POP POP POP POP PUSH1 0x40 MLOAD RETURNDATASIZE PUSH1 0x1F NOT PUSH1 0x1F DUP3 ADD AND DUP3 ADD DUP1 PUSH1 0x40 MSTORE POP DUP2 ADD SWAP1 PUSH2 0x2AD1 SWAP2 SWAP1 PUSH2 0x36EF JUMP JUMPDEST SWAP1 POP DUP1 PUSH1 0x1 PUSH1 0x1 PUSH1 0xA0 SHL SUB AND PUSH4 0xECC05A5B PUSH1 0x40 MLOAD DUP1 PUSH1 0x40 ADD PUSH1 0x40 MSTORE DUP1 DUP12 PUSH1 0x0 ADD PUSH1 0x20 DUP2 ADD SWAP1 PUSH2 0x2B00 SWAP2 SWAP1 PUSH2 0x2FC8 JUMP JUMPDEST PUSH1 0x1 PUSH1 0x1 PUSH1 0xA0 SHL SUB AND DUP2 MSTORE PUSH1 0x20 ADD DUP12 PUSH1 0x20 ADD CALLDATALOAD DUP2 MSTORE POP PUSH1 0x40 MLOAD DUP3 PUSH4 0xFFFFFFFF AND PUSH1 0xE0 SHL DUP2 MSTORE PUSH1 0x4 ADD PUSH2 0x2B32 SWAP2 SWAP1 PUSH2 0x37CF JUMP JUMPDEST PUSH1 0x0 PUSH1 0x40 MLOAD DUP1 DUP4 SUB DUP2 DUP7 GAS STATICCALL ISZERO DUP1 ISZERO PUSH2 0x2B4F JUMPI RETURNDATASIZE PUSH1 0x0 DUP1 RETURNDATACOPY RETURNDATASIZE PUSH1 0x0 REVERT JUMPDEST POP POP POP POP PUSH1 0x40 MLOAD RETURNDATASIZE PUSH1 0x0 DUP3 RETURNDATACOPY PUSH1 0x1F RETURNDATASIZE SWAP1 DUP2 ADD PUSH1 0x1F NOT AND DUP3 ADD PUSH1 0x40 MSTORE PUSH2 0x2B77 SWAP2 SWAP1 DUP2 ADD SWAP1 PUSH2 0x3946 JUMP JUMPDEST DUP1 MLOAD SWAP1 SWAP7 POP SWAP1 SWAP3 POP ISZERO PUSH2 0x2B91 JUMPI PUSH1 0x0 SWAP6 POP POP POP POP POP PUSH2 0x1BEF JUMP JUMPDEST POP JUMPDEST PUSH1 0x40 MLOAD PUSH4 0x2A8695B1 PUSH1 0xE1 SHL DUP2 MSTORE PUSH1 0x4 DUP2 ADD DUP3 SWAP1 MSTORE PUSH1 0x0 PUSH1 0x24 DUP3 ADD MSTORE PUSH1 0x1 PUSH1 0x1 PUSH1 0xA0 SHL SUB DUP5 AND SWAP1 PUSH4 0x550D2B62 SWAP1 PUSH1 0x44 ADD PUSH1 0x0 PUSH1 0x40 MLOAD DUP1 DUP4 SUB DUP2 DUP7 GAS STATICCALL ISZERO DUP1 ISZERO PUSH2 0x2BDF JUMPI RETURNDATASIZE PUSH1 0x0 DUP1 RETURNDATACOPY RETURNDATASIZE PUSH1 0x0 REVERT JUMPDEST POP POP POP POP PUSH1 0x40 MLOAD RETURNDATASIZE PUSH1 0x0 DUP3 RETURNDATACOPY PUSH1 0x1F RETURNDATASIZE SWAP1 DUP2 ADD PUSH1 0x1F NOT AND DUP3 ADD PUSH1 0x40 MSTORE PUSH2 0x2C07 SWAP2 SWAP1 DUP2 ADD SWAP1 PUSH2 0x3946 JUMP JUMPDEST SWAP5 POP SWAP5 POP POP POP POP PUSH2 0x1BEF JUMP JUMPDEST PUSH1 0x60 DUP4 ISZERO PUSH2 0x2C22 JUMPI POP DUP2 PUSH2 0x607 JUMP JUMPDEST DUP3 MLOAD ISZERO PUSH2 0x2C32 JUMPI DUP3 MLOAD DUP1 DUP5 PUSH1 0x20 ADD REVERT JUMPDEST DUP2 PUSH1 0x40 MLOAD PUSH3 0x461BCD PUSH1 0xE5 SHL DUP2 MSTORE PUSH1 0x4 ADD PUSH2 0x53F SWAP2 SWAP1 PUSH2 0x36DC JUMP JUMPDEST PUSH1 0x40 MLOAD PUSH1 0x1 PUSH1 0x1 PUSH1 0xA0 SHL SUB DUP1 DUP6 AND PUSH1 0x24 DUP4 ADD MSTORE DUP4 AND PUSH1 0x44 DUP3 ADD MSTORE PUSH1 0x64 DUP2 ADD DUP3 SWAP1 MSTORE PUSH2 0x2C84 SWAP1 DUP6 SWAP1 PUSH4 0x23B872DD PUSH1 0xE0 SHL SWAP1 PUSH1 0x84 ADD PUSH2 0x124D JUMP JUMPDEST POP POP POP POP JUMP JUMPDEST PUSH1 0x40 DUP1 MLOAD DUP1 DUP3 ADD SWAP1 SWAP2 MSTORE PUSH1 0x2 DUP2 MSTORE PUSH2 0x3235 PUSH1 0xF0 SHL PUSH1 0x20 DUP3 ADD MSTORE PUSH1 0x0 SWAP1 DUP3 PUSH2 0x2CC4 JUMPI PUSH1 0x40 MLOAD PUSH3 0x461BCD PUSH1 0xE5 SHL DUP2 MSTORE PUSH1 0x4 ADD PUSH2 0x53F SWAP2 SWAP1 PUSH2 0x36DC JUMP JUMPDEST POP DUP3 PUSH2 0x2CD2 JUMPI POP PUSH1 0x0 PUSH2 0x10B3 JUMP JUMPDEST PUSH1 0x0 PUSH2 0x2CE6 PUSH8 0xDE0B6B3A7640000 DUP6 PUSH2 0x3927 JUMP JUMPDEST SWAP1 POP PUSH2 0x2CF2 DUP4 DUP3 PUSH2 0x3905 JUMP JUMPDEST SWAP2 POP POP PUSH2 0x10B3 JUMP JUMPDEST PUSH1 0x0 PUSH1 0xFF DUP3 AND PUSH1 0x12 EQ ISZERO PUSH2 0x2D0F JUMPI POP DUP2 PUSH2 0x10B3 JUMP JUMPDEST PUSH1 0x12 PUSH1 0xFF DUP4 AND GT ISZERO PUSH2 0x2D26 JUMPI PUSH2 0x21B2 PUSH1 0x12 DUP4 PUSH2 0x37EF JUMP JUMPDEST PUSH2 0x218B DUP3 PUSH1 0x12 PUSH2 0x37EF JUMP JUMPDEST PUSH1 0x40 MLOAD DUP1 PUSH1 0x40 ADD PUSH1 0x40 MSTORE DUP1 PUSH2 0x2D44 PUSH2 0x2D51 JUMP JUMPDEST DUP2 MSTORE PUSH1 0x20 ADD PUSH1 0x0 DUP2 MSTORE POP SWAP1 JUMP JUMPDEST PUSH1 0x40 MLOAD DUP1 PUSH2 0x100 ADD PUSH1 0x40 MSTORE DUP1 PUSH1 0x0 PUSH1 0x1 PUSH1 0x1 PUSH1 0xA0 SHL SUB AND DUP2 MSTORE PUSH1 0x20 ADD PUSH1 0x0 PUSH1 0xFF AND DUP2 MSTORE PUSH1 0x20 ADD PUSH1 0x0 DUP2 MSTORE PUSH1 0x20 ADD PUSH2 0x2DA9 PUSH1 0x40 MLOAD DUP1 PUSH1 0x80 ADD PUSH1 0x40 MSTORE DUP1 PUSH1 0x0 DUP2 MSTORE PUSH1 0x20 ADD PUSH1 0x0 DUP2 MSTORE PUSH1 0x20 ADD PUSH1 0x0 DUP2 MSTORE PUSH1 0x20 ADD PUSH1 0x0 DUP2 MSTORE POP SWAP1 JUMP JUMPDEST DUP2 MSTORE PUSH1 0x20 ADD PUSH1 0x0 DUP2 MSTORE PUSH1 0x20 ADD PUSH1 0x0 DUP2 MSTORE PUSH1 0x20 ADD PUSH1 0x0 DUP2 MSTORE PUSH1 0x20 ADD PUSH1 0x60 DUP2 MSTORE POP SWAP1 JUMP JUMPDEST PUSH1 0x0 DUP1 PUSH1 0x0 PUSH1 0x40 DUP5 DUP7 SUB SLT ISZERO PUSH2 0x2DE0 JUMPI PUSH1 0x0 DUP1 REVERT JUMPDEST DUP4 CALLDATALOAD PUSH1 0x1 PUSH1 0x1 PUSH1 0x40 SHL SUB DUP1 DUP3 GT ISZERO PUSH2 0x2DF7 JUMPI PUSH1 0x0 DUP1 REVERT JUMPDEST DUP2 DUP7 ADD SWAP2 POP DUP7 PUSH1 0x1F DUP4 ADD SLT PUSH2 0x2E0B JUMPI PUSH1 0x0 DUP1 REVERT JUMPDEST DUP2 CALLDATALOAD DUP2 DUP2 GT ISZERO PUSH2 0x2E1A JUMPI PUSH1 0x0 DUP1 REVERT JUMPDEST DUP8 PUSH1 0x20 PUSH1 0x60 DUP4 MUL DUP6 ADD ADD GT ISZERO PUSH2 0x2E2F JUMPI PUSH1 0x0 DUP1 REVERT JUMPDEST PUSH1 0x20 SWAP3 DUP4 ADD SWAP9 SWAP1 SWAP8 POP SWAP6 SWAP1 SWAP2 ADD CALLDATALOAD SWAP5 SWAP4 POP POP POP POP JUMP JUMPDEST PUSH1 0x0 DUP1 PUSH1 0x0 PUSH1 0x40 DUP5 DUP7 SUB SLT ISZERO PUSH2 0x2E5A JUMPI PUSH1 0x0 DUP1 REVERT JUMPDEST DUP4 CALLDATALOAD SWAP3 POP PUSH1 0x20 DUP5 ADD CALLDATALOAD PUSH1 0x1 PUSH1 0x1 PUSH1 0x40 SHL SUB DUP1 DUP3 GT ISZERO PUSH2 0x2E78 JUMPI PUSH1 0x0 DUP1 REVERT JUMPDEST DUP2 DUP7 ADD SWAP2 POP DUP7 PUSH1 0x1F DUP4 ADD SLT PUSH2 0x2E8C JUMPI PUSH1 0x0 DUP1 REVERT JUMPDEST DUP2 CALLDATALOAD DUP2 DUP2 GT ISZERO PUSH2 0x2E9B JUMPI PUSH1 0x0 DUP1 REVERT JUMPDEST DUP8 PUSH1 0x20 DUP3 PUSH1 0x7 SHL DUP6 ADD ADD GT ISZERO PUSH2 0x2EB0 JUMPI PUSH1 0x0 DUP1 REVERT JUMPDEST PUSH1 0x20 DUP4 ADD SWAP5 POP DUP1 SWAP4 POP POP POP POP SWAP3 POP SWAP3 POP SWAP3 JUMP JUMPDEST PUSH1 0x0 DUP2 MLOAD DUP1 DUP5 MSTORE PUSH1 0x20 DUP1 DUP6 ADD SWAP5 POP DUP1 DUP5 ADD PUSH1 0x0 JUMPDEST DUP4 DUP2 LT ISZERO PUSH2 0x2EF3 JUMPI DUP2 MLOAD DUP8 MSTORE SWAP6 DUP3 ADD SWAP6 SWAP1 DUP3 ADD SWAP1 PUSH1 0x1 ADD PUSH2 0x2ED7 JUMP JUMPDEST POP SWAP5 SWAP6 SWAP5 POP POP POP POP POP JUMP JUMPDEST PUSH1 0x0 JUMPDEST DUP4 DUP2 LT ISZERO PUSH2 0x2F19 JUMPI DUP2 DUP2 ADD MLOAD DUP4 DUP3 ADD MSTORE PUSH1 0x20 ADD PUSH2 0x2F01 JUMP JUMPDEST DUP4 DUP2 GT ISZERO PUSH2 0x2C84 JUMPI POP POP PUSH1 0x0 SWAP2 ADD MSTORE JUMP JUMPDEST PUSH1 0x0 DUP2 MLOAD DUP1 DUP5 MSTORE PUSH2 0x2F42 DUP2 PUSH1 0x20 DUP7 ADD PUSH1 0x20 DUP7 ADD PUSH2 0x2EFE JUMP JUMPDEST PUSH1 0x1F ADD PUSH1 0x1F NOT AND SWAP3 SWAP1 SWAP3 ADD PUSH1 0x20 ADD SWAP3 SWAP2 POP POP JUMP JUMPDEST PUSH1 0x40 DUP2 MSTORE PUSH1 0x0 PUSH2 0x2F69 PUSH1 0x40 DUP4 ADD DUP6 PUSH2 0x2EC3 JUMP JUMPDEST DUP3 DUP2 SUB PUSH1 0x20 DUP5 ADD MSTORE PUSH2 0x2F7B DUP2 DUP6 PUSH2 0x2F2A JUMP JUMPDEST SWAP6 SWAP5 POP POP POP POP POP JUMP JUMPDEST PUSH1 0x20 DUP2 MSTORE PUSH1 0x0 PUSH2 0x607 PUSH1 0x20 DUP4 ADD DUP5 PUSH2 0x2EC3 JUMP JUMPDEST DUP3 DUP2 MSTORE PUSH1 0x40 PUSH1 0x20 DUP3 ADD MSTORE PUSH1 0x0 PUSH2 0x1298 PUSH1 0x40 DUP4 ADD DUP5 PUSH2 0x2F2A JUMP JUMPDEST PUSH1 0x1 PUSH1 0x1 PUSH1 0xA0 SHL SUB DUP2 AND DUP2 EQ PUSH2 0x2FC5 JUMPI PUSH1 0x0 DUP1 REVERT JUMPDEST POP JUMP JUMPDEST PUSH1 0x0 PUSH1 0x20 DUP3 DUP5 SUB SLT ISZERO PUSH2 0x2FDA JUMPI PUSH1 0x0 DUP1 REVERT JUMPDEST DUP2 CALLDATALOAD PUSH2 0x607 DUP2 PUSH2 0x2FB0 JUMP JUMPDEST PUSH4 0x4E487B71 PUSH1 0xE0 SHL PUSH1 0x0 MSTORE PUSH1 0x41 PUSH1 0x4 MSTORE PUSH1 0x24 PUSH1 0x0 REVERT JUMPDEST PUSH1 0x40 DUP1 MLOAD SWAP1 DUP2 ADD PUSH1 0x1 PUSH1 0x1 PUSH1 0x40 SHL SUB DUP2 GT DUP3 DUP3 LT OR ISZERO PUSH2 0x301D JUMPI PUSH2 0x301D PUSH2 0x2FE5 JUMP JUMPDEST PUSH1 0x40 MSTORE SWAP1 JUMP JUMPDEST PUSH1 0x40 MLOAD PUSH2 0x100 DUP2 ADD PUSH1 0x1 PUSH1 0x1 PUSH1 0x40 SHL SUB DUP2 GT DUP3 DUP3 LT OR ISZERO PUSH2 0x301D JUMPI PUSH2 0x301D PUSH2 0x2FE5 JUMP JUMPDEST PUSH1 0x40 MLOAD PUSH1 0x1F DUP3 ADD PUSH1 0x1F NOT AND DUP2 ADD PUSH1 0x1 PUSH1 0x1 PUSH1 0x40 SHL SUB DUP2 GT DUP3 DUP3 LT OR ISZERO PUSH2 0x306E JUMPI PUSH2 0x306E PUSH2 0x2FE5 JUMP JUMPDEST PUSH1 0x40 MSTORE SWAP2 SWAP1 POP JUMP JUMPDEST PUSH1 0x0 PUSH1 0x1 PUSH1 0x1 PUSH1 0x40 SHL SUB DUP3 GT ISZERO PUSH2 0x308F JUMPI PUSH2 0x308F PUSH2 0x2FE5 JUMP JUMPDEST POP PUSH1 0x5 SHL PUSH1 0x20 ADD SWAP1 JUMP JUMPDEST DUP1 MLOAD PUSH2 0x30A4 DUP2 PUSH2 0x2FB0 JUMP JUMPDEST SWAP2 SWAP1 POP JUMP JUMPDEST DUP1 MLOAD PUSH1 0xFF DUP2 AND DUP2 EQ PUSH2 0x30A4 JUMPI PUSH1 0x0 DUP1 REVERT JUMPDEST PUSH1 0x0 PUSH1 0x80 DUP3 DUP5 SUB SLT ISZERO PUSH2 0x30CC JUMPI PUSH1 0x0 DUP1 REVERT JUMPDEST PUSH1 0x40 MLOAD PUSH1 0x80 DUP2 ADD DUP2 DUP2 LT PUSH1 0x1 PUSH1 0x1 PUSH1 0x40 SHL SUB DUP3 GT OR ISZERO PUSH2 0x30EE JUMPI PUSH2 0x30EE PUSH2 0x2FE5 JUMP JUMPDEST DUP1 PUSH1 0x40 MSTORE POP DUP1 SWAP2 POP DUP3 MLOAD DUP2 MSTORE PUSH1 0x20 DUP4 ADD MLOAD PUSH1 0x20 DUP3 ADD MSTORE PUSH1 0x40 DUP4 ADD MLOAD PUSH1 0x40 DUP3 ADD MSTORE PUSH1 0x60 DUP4 ADD MLOAD PUSH1 0x60 DUP3 ADD MSTORE POP SWAP3 SWAP2 POP POP JUMP JUMPDEST PUSH1 0x0 DUP3 PUSH1 0x1F DUP4 ADD SLT PUSH2 0x3130 JUMPI PUSH1 0x0 DUP1 REVERT JUMPDEST DUP2 MLOAD PUSH1 0x20 PUSH2 0x3145 PUSH2 0x3140 DUP4 PUSH2 0x3076 JUMP JUMPDEST PUSH2 0x3046 JUMP JUMPDEST DUP3 DUP2 MSTORE PUSH1 0x6 SWAP3 SWAP1 SWAP3 SHL DUP5 ADD DUP2 ADD SWAP2 DUP2 DUP2 ADD SWAP1 DUP7 DUP5 GT ISZERO PUSH2 0x3164 JUMPI PUSH1 0x0 DUP1 REVERT JUMPDEST DUP3 DUP7 ADD JUMPDEST DUP5 DUP2 LT ISZERO PUSH2 0x31AC JUMPI PUSH1 0x40 DUP2 DUP10 SUB SLT ISZERO PUSH2 0x3181 JUMPI PUSH1 0x0 DUP1 DUP2 REVERT JUMPDEST PUSH2 0x3189 PUSH2 0x2FFB JUMP JUMPDEST DUP2 MLOAD PUSH2 0x3194 DUP2 PUSH2 0x2FB0 JUMP JUMPDEST DUP2 MSTORE DUP2 DUP6 ADD MLOAD DUP6 DUP3 ADD MSTORE DUP4 MSTORE SWAP2 DUP4 ADD SWAP2 PUSH1 0x40 ADD PUSH2 0x3168 JUMP JUMPDEST POP SWAP7 SWAP6 POP POP POP POP POP POP JUMP JUMPDEST PUSH1 0x0 PUSH2 0x160 DUP3 DUP5 SUB SLT ISZERO PUSH2 0x31CA JUMPI PUSH1 0x0 DUP1 REVERT JUMPDEST PUSH2 0x31D2 PUSH2 0x3023 JUMP JUMPDEST SWAP1 POP PUSH2 0x31DD DUP3 PUSH2 0x3099 JUMP JUMPDEST DUP2 MSTORE PUSH2 0x31EB PUSH1 0x20 DUP4 ADD PUSH2 0x30A9 JUMP JUMPDEST PUSH1 0x20 DUP3 ADD MSTORE PUSH1 0x40 DUP3 ADD MLOAD PUSH1 0x40 DUP3 ADD MSTORE PUSH2 0x3207 DUP4 PUSH1 0x60 DUP5 ADD PUSH2 0x30BA JUMP JUMPDEST PUSH1 0x60 DUP3 ADD MSTORE PUSH1 0xE0 DUP3 ADD MLOAD PUSH1 0x80 DUP3 ADD MSTORE PUSH2 0x100 DUP3 ADD MLOAD PUSH1 0xA0 DUP3 ADD MSTORE PUSH2 0x120 DUP3 ADD MLOAD PUSH1 0xC0 DUP3 ADD MSTORE PUSH2 0x140 DUP3 ADD MLOAD PUSH1 0x1 PUSH1 0x1 PUSH1 0x40 SHL SUB DUP2 GT ISZERO PUSH2 0x3246 JUMPI PUSH1 0x0 DUP1 REVERT JUMPDEST PUSH2 0x3252 DUP5 DUP3 DUP6 ADD PUSH2 0x311F JUMP JUMPDEST PUSH1 0xE0 DUP4 ADD MSTORE POP SWAP3 SWAP2 POP POP JUMP JUMPDEST PUSH1 0x0 PUSH1 0x20 DUP1 DUP4 DUP6 SUB SLT ISZERO PUSH2 0x3271 JUMPI PUSH1 0x0 DUP1 REVERT JUMPDEST DUP3 MLOAD PUSH1 0x1 PUSH1 0x1 PUSH1 0x40 SHL SUB DUP1 DUP3 GT ISZERO PUSH2 0x3288 JUMPI PUSH1 0x0 DUP1 REVERT JUMPDEST SWAP1 DUP5 ADD SWAP1 PUSH1 0x40 DUP3 DUP8 SUB SLT ISZERO PUSH2 0x329C JUMPI PUSH1 0x0 DUP1 REVERT JUMPDEST PUSH2 0x32A4 PUSH2 0x2FFB JUMP JUMPDEST DUP3 MLOAD DUP2 MSTORE DUP4 DUP4 ADD MLOAD DUP3 DUP2 GT ISZERO PUSH2 0x32B9 JUMPI PUSH1 0x0 DUP1 REVERT JUMPDEST DUP1 DUP5 ADD SWAP4 POP POP DUP7 PUSH1 0x1F DUP5 ADD SLT PUSH2 0x32CE JUMPI PUSH1 0x0 DUP1 REVERT JUMPDEST DUP3 MLOAD PUSH2 0x32DC PUSH2 0x3140 DUP3 PUSH2 0x3076 JUMP JUMPDEST DUP2 DUP2 MSTORE PUSH1 0x5 SWAP2 SWAP1 SWAP2 SHL DUP5 ADD DUP6 ADD SWAP1 DUP6 DUP2 ADD SWAP1 DUP10 DUP4 GT ISZERO PUSH2 0x32FB JUMPI PUSH1 0x0 DUP1 REVERT JUMPDEST DUP7 DUP7 ADD JUMPDEST DUP4 DUP2 LT ISZERO PUSH2 0x3333 JUMPI DUP1 MLOAD DUP7 DUP2 GT ISZERO PUSH2 0x3317 JUMPI PUSH1 0x0 DUP1 DUP2 REVERT JUMPDEST PUSH2 0x3325 DUP13 DUP11 DUP4 DUP12 ADD ADD PUSH2 0x31B7 JUMP JUMPDEST DUP5 MSTORE POP SWAP2 DUP8 ADD SWAP2 DUP8 ADD PUSH2 0x32FF JUMP JUMPDEST POP SWAP6 DUP4 ADD SWAP6 SWAP1 SWAP6 MSTORE POP SWAP7 SWAP6 POP POP POP POP POP POP JUMP JUMPDEST PUSH1 0x0 DUP2 MLOAD DUP1 DUP5 MSTORE PUSH1 0x20 DUP1 DUP6 ADD SWAP5 POP DUP1 DUP5 ADD PUSH1 0x0 JUMPDEST DUP4 DUP2 LT ISZERO PUSH2 0x2EF3 JUMPI PUSH2 0x3380 DUP8 DUP4 MLOAD DUP1 MLOAD PUSH1 0x1 PUSH1 0x1 PUSH1 0xA0 SHL SUB AND DUP3 MSTORE PUSH1 0x20 SWAP1 DUP2 ADD MLOAD SWAP2 ADD MSTORE JUMP JUMPDEST PUSH1 0x40 SWAP7 SWAP1 SWAP7 ADD SWAP6 SWAP1 DUP3 ADD SWAP1 PUSH1 0x1 ADD PUSH2 0x335A JUMP JUMPDEST PUSH1 0x0 PUSH1 0x20 DUP1 DUP4 MSTORE PUSH1 0x60 DUP1 DUP5 ADD DUP6 MLOAD PUSH1 0x40 DUP1 DUP6 DUP9 ADD MSTORE DUP3 DUP3 MLOAD DUP1 DUP6 MSTORE PUSH1 0x80 SWAP5 POP DUP5 DUP10 ADD SWAP2 POP DUP5 DUP2 PUSH1 0x5 SHL DUP11 ADD ADD DUP8 DUP6 ADD SWAP5 POP PUSH1 0x0 JUMPDEST DUP3 DUP2 LT ISZERO PUSH2 0x348E JUMPI PUSH1 0x7F NOT DUP12 DUP4 SUB ADD DUP5 MSTORE DUP6 MLOAD DUP1 MLOAD DUP7 DUP5 MSTORE DUP1 MLOAD PUSH1 0x1 PUSH1 0x1 PUSH1 0xA0 SHL SUB AND DUP8 DUP6 ADD MSTORE DUP11 DUP2 ADD MLOAD PUSH1 0xFF DUP2 AND DUP12 DUP7 ADD MSTORE POP DUP1 DUP8 ADD MLOAD DUP5 DUP11 ADD MSTORE DUP10 DUP2 ADD MLOAD DUP1 MLOAD PUSH1 0xA0 DUP1 DUP8 ADD SWAP2 SWAP1 SWAP2 MSTORE PUSH1 0x20 DUP3 ADD MLOAD PUSH1 0xC0 DUP8 ADD MSTORE PUSH1 0x40 DUP3 ADD MLOAD PUSH1 0xE0 DUP8 ADD MSTORE PUSH1 0x60 DUP3 ADD MLOAD PUSH2 0x100 DUP8 ADD MSTORE DUP3 DUP12 ADD MLOAD PUSH2 0x120 DUP8 ADD MSTORE DUP3 ADD MLOAD PUSH2 0x140 DUP7 ADD MSTORE POP PUSH1 0xC0 DUP2 ADD MLOAD PUSH2 0x160 DUP1 DUP7 ADD SWAP2 SWAP1 SWAP2 MSTORE PUSH1 0xE0 SWAP1 SWAP2 ADD MLOAD PUSH2 0x180 DUP6 ADD SWAP2 SWAP1 SWAP2 MSTORE PUSH2 0x3471 PUSH2 0x1A0 DUP6 ADD DUP3 PUSH2 0x3346 JUMP JUMPDEST SWAP2 DUP12 ADD MLOAD SWAP4 DUP12 ADD SWAP4 SWAP1 SWAP4 MSTORE SWAP6 DUP10 ADD SWAP6 SWAP4 DUP10 ADD SWAP4 SWAP2 POP PUSH1 0x1 ADD PUSH2 0x33C7 JUMP JUMPDEST POP SWAP7 DUP11 ADD MLOAD DUP1 ISZERO ISZERO DUP5 DUP12 ADD MSTORE SWAP7 SWAP11 SWAP10 POP POP POP POP POP POP POP POP POP POP JUMP JUMPDEST PUSH1 0x0 DUP3 PUSH1 0x1F DUP4 ADD SLT PUSH2 0x34BA JUMPI PUSH1 0x0 DUP1 REVERT JUMPDEST DUP2 MLOAD PUSH1 0x1 PUSH1 0x1 PUSH1 0x40 SHL SUB DUP2 GT ISZERO PUSH2 0x34D3 JUMPI PUSH2 0x34D3 PUSH2 0x2FE5 JUMP JUMPDEST PUSH2 0x34E6 PUSH1 0x1F DUP3 ADD PUSH1 0x1F NOT AND PUSH1 0x20 ADD PUSH2 0x3046 JUMP JUMPDEST DUP2 DUP2 MSTORE DUP5 PUSH1 0x20 DUP4 DUP7 ADD ADD GT ISZERO PUSH2 0x34FB JUMPI PUSH1 0x0 DUP1 REVERT JUMPDEST PUSH2 0x1298 DUP3 PUSH1 0x20 DUP4 ADD PUSH1 0x20 DUP8 ADD PUSH2 0x2EFE JUMP JUMPDEST PUSH1 0x0 PUSH1 0x20 DUP3 DUP5 SUB SLT ISZERO PUSH2 0x351E JUMPI PUSH1 0x0 DUP1 REVERT JUMPDEST DUP2 MLOAD PUSH1 0x1 PUSH1 0x1 PUSH1 0x40 SHL SUB DUP2 GT ISZERO PUSH2 0x3534 JUMPI PUSH1 0x0 DUP1 REVERT JUMPDEST PUSH2 0x1298 DUP5 DUP3 DUP6 ADD PUSH2 0x34A9 JUMP JUMPDEST PUSH4 0x4E487B71 PUSH1 0xE0 SHL PUSH1 0x0 MSTORE PUSH1 0x32 PUSH1 0x4 MSTORE PUSH1 0x24 PUSH1 0x0 REVERT JUMPDEST PUSH4 0x4E487B71 PUSH1 0xE0 SHL PUSH1 0x0 MSTORE PUSH1 0x11 PUSH1 0x4 MSTORE PUSH1 0x24 PUSH1 0x0 REVERT JUMPDEST PUSH1 0x0 PUSH1 0x0 NOT DUP3 EQ ISZERO PUSH2 0x3580 JUMPI PUSH2 0x3580 PUSH2 0x3556 JUMP JUMPDEST POP PUSH1 0x1 ADD SWAP1 JUMP JUMPDEST DUP1 MLOAD DUP1 ISZERO ISZERO DUP2 EQ PUSH2 0x30A4 JUMPI PUSH1 0x0 DUP1 REVERT JUMPDEST PUSH1 0x0 PUSH1 0x20 DUP1 DUP4 DUP6 SUB SLT ISZERO PUSH2 0x35AA JUMPI PUSH1 0x0 DUP1 REVERT JUMPDEST DUP3 MLOAD PUSH1 0x1 PUSH1 0x1 PUSH1 0x40 SHL SUB DUP1 DUP3 GT ISZERO PUSH2 0x35C1 JUMPI PUSH1 0x0 DUP1 REVERT JUMPDEST SWAP1 DUP5 ADD SWAP1 PUSH1 0x40 DUP3 DUP8 SUB SLT ISZERO PUSH2 0x35D5 JUMPI PUSH1 0x0 DUP1 REVERT JUMPDEST PUSH2 0x35DD PUSH2 0x2FFB JUMP JUMPDEST DUP3 MLOAD DUP3 DUP2 GT ISZERO PUSH2 0x35EC JUMPI PUSH1 0x0 DUP1 REVERT JUMPDEST DUP4 ADD PUSH1 0x1F DUP2 ADD DUP9 SGT PUSH2 0x35FD JUMPI PUSH1 0x0 DUP1 REVERT JUMPDEST DUP1 MLOAD PUSH2 0x360B PUSH2 0x3140 DUP3 PUSH2 0x3076 JUMP JUMPDEST DUP2 DUP2 MSTORE PUSH1 0x5 SWAP2 SWAP1 SWAP2 SHL DUP3 ADD DUP7 ADD SWAP1 DUP7 DUP2 ADD SWAP1 DUP11 DUP4 GT ISZERO PUSH2 0x362A JUMPI PUSH1 0x0 DUP1 REVERT JUMPDEST DUP8 DUP5 ADD JUMPDEST DUP4 DUP2 LT ISZERO PUSH2 0x36A0 JUMPI DUP1 MLOAD DUP8 DUP2 GT ISZERO PUSH2 0x3646 JUMPI PUSH1 0x0 DUP1 DUP2 REVERT JUMPDEST DUP6 ADD PUSH1 0x40 DUP2 DUP15 SUB PUSH1 0x1F NOT ADD SLT ISZERO PUSH2 0x365D JUMPI PUSH1 0x0 DUP1 DUP2 REVERT JUMPDEST PUSH2 0x3665 PUSH2 0x2FFB JUMP JUMPDEST DUP11 DUP3 ADD MLOAD DUP10 DUP2 GT ISZERO PUSH2 0x3677 JUMPI PUSH1 0x0 DUP1 DUP2 REVERT JUMPDEST PUSH2 0x3685 DUP16 DUP14 DUP4 DUP7 ADD ADD PUSH2 0x31B7 JUMP JUMPDEST DUP3 MSTORE POP PUSH1 0x40 SWAP2 SWAP1 SWAP2 ADD MLOAD DUP11 DUP3 ADD MSTORE DUP4 MSTORE SWAP2 DUP9 ADD SWAP2 DUP9 ADD PUSH2 0x362E JUMP JUMPDEST POP DUP5 MSTORE POP PUSH2 0x36B2 SWAP2 POP POP DUP4 DUP6 ADD PUSH2 0x3587 JUMP JUMPDEST DUP5 DUP3 ADD MSTORE DUP1 SWAP5 POP POP POP POP POP SWAP3 SWAP2 POP POP JUMP JUMPDEST PUSH1 0x0 PUSH1 0x20 DUP3 DUP5 SUB SLT ISZERO PUSH2 0x36D5 JUMPI PUSH1 0x0 DUP1 REVERT JUMPDEST POP MLOAD SWAP2 SWAP1 POP JUMP JUMPDEST PUSH1 0x20 DUP2 MSTORE PUSH1 0x0 PUSH2 0x607 PUSH1 0x20 DUP4 ADD DUP5 PUSH2 0x2F2A JUMP JUMPDEST PUSH1 0x0 PUSH1 0x20 DUP3 DUP5 SUB SLT ISZERO PUSH2 0x3701 JUMPI PUSH1 0x0 DUP1 REVERT JUMPDEST DUP2 MLOAD PUSH2 0x607 DUP2 PUSH2 0x2FB0 JUMP JUMPDEST PUSH1 0x0 DUP3 NOT DUP3 GT ISZERO PUSH2 0x371F JUMPI PUSH2 0x371F PUSH2 0x3556 JUMP JUMPDEST POP ADD SWAP1 JUMP JUMPDEST PUSH1 0x0 PUSH1 0x80 DUP3 DUP5 SUB SLT ISZERO PUSH2 0x3736 JUMPI PUSH1 0x0 DUP1 REVERT JUMPDEST PUSH1 0x40 MLOAD PUSH1 0x80 DUP2 ADD DUP2 DUP2 LT PUSH1 0x1 PUSH1 0x1 PUSH1 0x40 SHL SUB DUP3 GT OR ISZERO PUSH2 0x3758 JUMPI PUSH2 0x3758 PUSH2 0x2FE5 JUMP JUMPDEST PUSH1 0x40 MSTORE DUP3 CALLDATALOAD PUSH2 0x3766 DUP2 PUSH2 0x2FB0 JUMP JUMPDEST DUP1 DUP3 MSTORE POP PUSH1 0x20 DUP4 ADD CALLDATALOAD PUSH1 0x20 DUP3 ADD MSTORE PUSH1 0x40 DUP4 ADD CALLDATALOAD PUSH1 0x40 DUP3 ADD MSTORE PUSH1 0x60 DUP4 ADD CALLDATALOAD PUSH2 0x378C DUP2 PUSH2 0x2FB0 JUMP JUMPDEST PUSH1 0x60 DUP3 ADD MSTORE SWAP4 SWAP3 POP POP POP JUMP JUMPDEST PUSH1 0x0 PUSH1 0x20 DUP3 DUP5 SUB SLT ISZERO PUSH2 0x37AA JUMPI PUSH1 0x0 DUP1 REVERT JUMPDEST PUSH2 0x607 DUP3 PUSH2 0x3587 JUMP JUMPDEST PUSH1 0x0 DUP3 MLOAD PUSH2 0x37C5 DUP2 DUP5 PUSH1 0x20 DUP8 ADD PUSH2 0x2EFE JUMP JUMPDEST SWAP2 SWAP1 SWAP2 ADD SWAP3 SWAP2 POP POP JUMP JUMPDEST DUP2 MLOAD PUSH1 0x1 PUSH1 0x1 PUSH1 0xA0 SHL SUB AND DUP2 MSTORE PUSH1 0x20 DUP1 DUP4 ADD MLOAD SWAP1 DUP3 ADD MSTORE PUSH1 0x40 DUP2 ADD PUSH2 0x10B3 JUMP JUMPDEST PUSH1 0x0 PUSH1 0xFF DUP3 AND PUSH1 0xFF DUP5 AND DUP1 DUP3 LT ISZERO PUSH2 0x3809 JUMPI PUSH2 0x3809 PUSH2 0x3556 JUMP JUMPDEST SWAP1 SUB SWAP4 SWAP3 POP POP POP JUMP JUMPDEST PUSH1 0x1 DUP2 DUP2 JUMPDEST DUP1 DUP6 GT ISZERO PUSH2 0x384D JUMPI DUP2 PUSH1 0x0 NOT DIV DUP3 GT ISZERO PUSH2 0x3833 JUMPI PUSH2 0x3833 PUSH2 0x3556 JUMP JUMPDEST DUP1 DUP6 AND ISZERO PUSH2 0x3840 JUMPI SWAP2 DUP2 MUL SWAP2 JUMPDEST SWAP4 DUP5 SHR SWAP4 SWAP1 DUP1 MUL SWAP1 PUSH2 0x3817 JUMP JUMPDEST POP SWAP3 POP SWAP3 SWAP1 POP JUMP JUMPDEST PUSH1 0x0 DUP3 PUSH2 0x3864 JUMPI POP PUSH1 0x1 PUSH2 0x10B3 JUMP JUMPDEST DUP2 PUSH2 0x3871 JUMPI POP PUSH1 0x0 PUSH2 0x10B3 JUMP JUMPDEST DUP2 PUSH1 0x1 DUP2 EQ PUSH2 0x3887 JUMPI PUSH1 0x2 DUP2 EQ PUSH2 0x3891 JUMPI PUSH2 0x38AD JUMP JUMPDEST PUSH1 0x1 SWAP2 POP POP PUSH2 0x10B3 JUMP JUMPDEST PUSH1 0xFF DUP5 GT ISZERO PUSH2 0x38A2 JUMPI PUSH2 0x38A2 PUSH2 0x3556 JUMP JUMPDEST POP POP PUSH1 0x1 DUP3 SHL PUSH2 0x10B3 JUMP JUMPDEST POP PUSH1 0x20 DUP4 LT PUSH2 0x133 DUP4 LT AND PUSH1 0x4E DUP5 LT PUSH1 0xB DUP5 LT AND OR ISZERO PUSH2 0x38D0 JUMPI POP DUP2 DUP2 EXP PUSH2 0x10B3 JUMP JUMPDEST PUSH2 0x38DA DUP4 DUP4 PUSH2 0x3812 JUMP JUMPDEST DUP1 PUSH1 0x0 NOT DIV DUP3 GT ISZERO PUSH2 0x38EE JUMPI PUSH2 0x38EE PUSH2 0x3556 JUMP JUMPDEST MUL SWAP4 SWAP3 POP POP POP JUMP JUMPDEST PUSH1 0x0 PUSH2 0x607 PUSH1 0xFF DUP5 AND DUP4 PUSH2 0x3855 JUMP JUMPDEST PUSH1 0x0 DUP3 PUSH2 0x3922 JUMPI PUSH4 0x4E487B71 PUSH1 0xE0 SHL PUSH1 0x0 MSTORE PUSH1 0x12 PUSH1 0x4 MSTORE PUSH1 0x24 PUSH1 0x0 REVERT JUMPDEST POP DIV SWAP1 JUMP JUMPDEST PUSH1 0x0 DUP2 PUSH1 0x0 NOT DIV DUP4 GT DUP3 ISZERO ISZERO AND ISZERO PUSH2 0x3941 JUMPI PUSH2 0x3941 PUSH2 0x3556 JUMP JUMPDEST POP MUL SWAP1 JUMP JUMPDEST PUSH1 0x0 DUP1 PUSH1 0x40 DUP4 DUP6 SUB SLT ISZERO PUSH2 0x3959 JUMPI PUSH1 0x0 DUP1 REVERT JUMPDEST DUP3 MLOAD SWAP2 POP PUSH1 0x20 DUP4 ADD MLOAD PUSH1 0x1 PUSH1 0x1 PUSH1 0x40 SHL SUB DUP2 GT ISZERO PUSH2 0x3976 JUMPI PUSH1 0x0 DUP1 REVERT JUMPDEST PUSH2 0x3982 DUP6 DUP3 DUP7 ADD PUSH2 0x34A9 JUMP JUMPDEST SWAP2 POP POP SWAP3 POP SWAP3 SWAP1 POP JUMP INVALID LOG2 PUSH5 0x6970667358 0x22 SLT KECCAK256 DUP1 SDIV 0xAC 0xC5 0x2A SELFBALANCE BALANCE DUP10 0xF9 0xD6 DUP14 AND SIGNEXTEND DUP4 PUSH27 0xD948E7D589CB3275FC6EB410FC08C0FE5964736F6C634300080A00 CALLER ","sha1":"61266067b1abcf11d4eb1b54d4f141b4ba925623","source":"// SPDX-License-Identifier: UNLICENSED\npragma solidity ^0.8.4;\n\nimport \"@openzeppelin/contracts/token/ERC20/utils/SafeERC20.sol\";\nimport \"@openzeppelin/contracts/token/ERC20/IERC20.sol\";\n\nimport \"../interfaces/IFeeHandler.sol\";\nimport \"../interfaces/IMotherboard.sol\";\nimport \"../interfaces/IGyroVault.sol\";\nimport \"../interfaces/ILPTokenExchangerRegistry.sol\";\nimport \"../interfaces/ILPTokenExchanger.sol\";\nimport \"../interfaces/IPAMM.sol\";\nimport \"../interfaces/IGyroConfig.sol\";\nimport \"../interfaces/IGYDToken.sol\";\nimport \"../interfaces/IFeeBank.sol\";\nimport \"../interfaces/oracles/IUSDPriceOracle.sol\";\n\nimport \"../libraries/DataTypes.sol\";\nimport \"../libraries/ConfigKeys.sol\";\nimport \"../libraries/ConfigHelpers.sol\";\nimport \"../libraries/Errors.sol\";\nimport \"../libraries/FixedPoint.sol\";\nimport \"../libraries/DecimalScale.sol\";\n\nimport \"./auth/Governable.sol\";\n\n/// @title MotherBoard is the central contract connecting the different pieces\n/// of the Gyro protocol\ncontract Motherboard is IMotherboard, Governable {\n    using FixedPoint for uint256;\n    using DecimalScale for uint256;\n    using SafeERC20 for IERC20;\n    using SafeERC20 for IGYDToken;\n    using ConfigHelpers for IGyroConfig;\n\n    /// @inheritdoc IMotherboard\n    IGYDToken public immutable override gydToken;\n\n    /// @inheritdoc IMotherboard\n    IReserve public immutable override reserve;\n\n    /// @inheritdoc IMotherboard\n    IGyroConfig public immutable override gyroConfig;\n\n    constructor(IGyroConfig _gyroConfig) {\n        gyroConfig = _gyroConfig;\n        gydToken = _gyroConfig.getGYDToken();\n        reserve = _gyroConfig.getReserve();\n        gydToken.safeApprove(address(_gyroConfig.getFeeBank()), type(uint256).max);\n    }\n\n    /// @inheritdoc IMotherboard\n    function mint(DataTypes.MintAsset[] calldata assets, uint256 minReceivedAmount)\n        external\n        override\n        returns (uint256 mintedGYDAmount)\n    {\n        DataTypes.MonetaryAmount[] memory vaultAmounts = _convertMintInputAssetsToVaultTokens(\n            assets\n        );\n        DataTypes.ReserveState memory reserveState = gyroConfig\n            .getReserveManager()\n            .getReserveState();\n\n        DataTypes.Order memory order = _monetaryAmountsToMintOrder(\n            vaultAmounts,\n            reserveState.vaults\n        );\n\n        gyroConfig.getRootSafetyCheck().checkAndPersistMint(order);\n\n        for (uint256 i = 0; i < vaultAmounts.length; i++) {\n            DataTypes.MonetaryAmount memory vaultAmount = vaultAmounts[i];\n            IERC20(vaultAmount.tokenAddress).safeTransfer(address(reserve), vaultAmount.amount);\n        }\n\n        DataTypes.Order memory orderAfterFees = gyroConfig.getFeeHandler().applyFees(order);\n\n        uint256 usdValue = _getBasketUSDValue(orderAfterFees);\n        uint256 gyroToMint = pamm().mint(usdValue, reserveState.totalUSDValue);\n\n        require(gyroToMint >= minReceivedAmount, Errors.TOO_MUCH_SLIPPAGE);\n\n        gydToken.mint(address(this), gyroToMint);\n\n        gydToken.safeTransfer(msg.sender, gyroToMint);\n\n        return gyroToMint;\n    }\n\n    /// @inheritdoc IMotherboard\n    function redeem(uint256 gydToRedeem, DataTypes.RedeemAsset[] calldata assets)\n        external\n        override\n        returns (uint256[] memory)\n    {\n        gydToken.burnFrom(msg.sender, gydToRedeem);\n        DataTypes.ReserveState memory reserveState = gyroConfig\n            .getReserveManager()\n            .getReserveState();\n\n        uint256 usdValueToRedeem = pamm().redeem(gydToRedeem, reserveState.totalUSDValue);\n        DataTypes.Order memory order = _createRedeemOrder(\n            usdValueToRedeem,\n            assets,\n            reserveState.vaults\n        );\n        gyroConfig.getRootSafetyCheck().checkAndPersistRedeem(order);\n\n        DataTypes.Order memory orderAfterFees = gyroConfig.getFeeHandler().applyFees(order);\n        return _convertAndSendRedeemOutputAssets(assets, orderAfterFees);\n    }\n\n    /// @inheritdoc IMotherboard\n    function dryMint(DataTypes.MintAsset[] calldata assets, uint256 minReceivedAmount)\n        external\n        view\n        override\n        returns (uint256 mintedGYDAmount, string memory err)\n    {\n        DataTypes.MonetaryAmount[] memory vaultAmounts;\n        (vaultAmounts, err) = _dryConvertMintInputAssetsToVaultTokens(assets);\n        if (bytes(err).length > 0) {\n            return (0, err);\n        }\n\n        DataTypes.ReserveState memory reserveState = gyroConfig\n            .getReserveManager()\n            .getReserveState();\n\n        DataTypes.Order memory order = _monetaryAmountsToMintOrder(\n            vaultAmounts,\n            reserveState.vaults\n        );\n\n        err = gyroConfig.getRootSafetyCheck().isMintSafe(order);\n\n        DataTypes.Order memory orderAfterFees = gyroConfig.getFeeHandler().applyFees(order);\n        uint256 usdValue = _getBasketUSDValue(orderAfterFees);\n        mintedGYDAmount = pamm().computeMintAmount(usdValue, reserveState.totalUSDValue);\n\n        if (mintedGYDAmount < minReceivedAmount) {\n            err = Errors.TOO_MUCH_SLIPPAGE;\n        }\n    }\n\n    /// @inheritdoc IMotherboard\n    function dryRedeem(uint256 gydToRedeem, DataTypes.RedeemAsset[] calldata assets)\n        external\n        view\n        override\n        returns (uint256[] memory outputAmounts, string memory err)\n    {\n        outputAmounts = new uint256[](assets.length);\n        DataTypes.ReserveState memory reserveState = gyroConfig\n            .getReserveManager()\n            .getReserveState();\n        uint256 usdValueToRedeem = pamm().computeRedeemAmount(\n            gydToRedeem,\n            reserveState.totalUSDValue\n        );\n        DataTypes.Order memory order = _createRedeemOrder(\n            usdValueToRedeem,\n            assets,\n            reserveState.vaults\n        );\n        err = gyroConfig.getRootSafetyCheck().isRedeemSafe(order);\n        if (bytes(err).length > 0) {\n            return (outputAmounts, err);\n        }\n        DataTypes.Order memory orderAfterFees = gyroConfig.getFeeHandler().applyFees(order);\n        return _computeRedeemOutputAmounts(assets, orderAfterFees);\n    }\n\n    /// @inheritdoc IMotherboard\n    function pamm() public view override returns (IPAMM) {\n        return IPAMM(gyroConfig.getAddress(ConfigKeys.PAMM_ADDRESS));\n    }\n\n    function _dryConvertMintInputAssetsToVaultTokens(DataTypes.MintAsset[] calldata assets)\n        internal\n        view\n        returns (DataTypes.MonetaryAmount[] memory vaultAmounts, string memory err)\n    {\n        vaultAmounts = new DataTypes.MonetaryAmount[](assets.length);\n        ILPTokenExchangerRegistry exchangerRegistry = gyroConfig.getExchangerRegistry();\n        for (uint256 i = 0; i < assets.length; i++) {\n            DataTypes.MintAsset calldata asset = assets[i];\n            uint256 vaultTokenAmount;\n            (vaultTokenAmount, err) = _computeVaultTokensForAsset(asset, exchangerRegistry);\n            if (bytes(err).length > 0) {\n                return (vaultAmounts, err);\n            }\n            vaultAmounts[i] = DataTypes.MonetaryAmount({\n                tokenAddress: asset.destinationVault,\n                amount: vaultTokenAmount\n            });\n        }\n    }\n\n    function _computeVaultTokensForAsset(\n        DataTypes.MintAsset calldata asset,\n        ILPTokenExchangerRegistry exchangerRegistry\n    ) internal view returns (uint256, string memory err) {\n        if (asset.inputToken == asset.destinationVault) {\n            return (asset.inputAmount, \"\");\n        } else {\n            IGyroVault vault = IGyroVault(asset.destinationVault);\n            address lpTokenAddress = vault.underlying();\n            uint256 lpTokenAmount;\n            if (asset.inputToken == lpTokenAddress) {\n                lpTokenAmount = asset.inputAmount;\n            } else {\n                ILPTokenExchanger exchanger = exchangerRegistry.getTokenExchanger(lpTokenAddress);\n                (lpTokenAmount, err) = exchanger.dryDeposit(\n                    DataTypes.MonetaryAmount(asset.inputToken, asset.inputAmount)\n                );\n                if (bytes(err).length > 0) {\n                    return (0, err);\n                }\n            }\n\n            return vault.dryDeposit(lpTokenAmount, 0);\n        }\n    }\n\n    function _convertMintInputAssetsToVaultTokens(DataTypes.MintAsset[] calldata assets)\n        internal\n        returns (DataTypes.MonetaryAmount[] memory)\n    {\n        DataTypes.MonetaryAmount[] memory vaultAmounts = new DataTypes.MonetaryAmount[](\n            assets.length\n        );\n\n        ILPTokenExchangerRegistry exchangerRegistry = gyroConfig.getExchangerRegistry();\n        for (uint256 i = 0; i < assets.length; i++) {\n            DataTypes.MintAsset calldata asset = assets[i];\n            vaultAmounts[i] = DataTypes.MonetaryAmount({\n                tokenAddress: asset.destinationVault,\n                amount: _convertMintInputAssetToVaultToken(asset, exchangerRegistry)\n            });\n        }\n        return vaultAmounts;\n    }\n\n    function _convertMintInputAssetToVaultToken(\n        DataTypes.MintAsset calldata asset,\n        ILPTokenExchangerRegistry exchangerRegistry\n    ) internal returns (uint256) {\n        IGyroVault vault = IGyroVault(asset.destinationVault);\n\n        IERC20(asset.inputToken).safeTransferFrom(msg.sender, address(this), asset.inputAmount);\n\n        if (asset.inputToken == address(vault)) {\n            return asset.inputAmount;\n        }\n\n        uint256 lpTokenAmount;\n        address lpTokenAddress = vault.underlying();\n        if (asset.inputToken == lpTokenAddress) {\n            lpTokenAmount = asset.inputAmount;\n        } else {\n            ILPTokenExchanger exchanger = exchangerRegistry.getTokenExchanger(lpTokenAddress);\n            lpTokenAmount = exchanger.deposit(\n                DataTypes.MonetaryAmount(asset.inputToken, asset.inputAmount)\n            );\n        }\n\n        IERC20(lpTokenAddress).safeApprove(address(vault), lpTokenAmount);\n        return vault.deposit(lpTokenAmount, 0);\n    }\n\n    function _getAssetAmountMint(address vault, DataTypes.MonetaryAmount[] memory amounts)\n        internal\n        pure\n        returns (uint256)\n    {\n        for (uint256 i = 0; i < amounts.length; i++) {\n            DataTypes.MonetaryAmount memory vaultAmount = amounts[i];\n            if (vaultAmount.tokenAddress == vault) return vaultAmount.amount;\n        }\n        return 0;\n    }\n\n    function _monetaryAmountsToMintOrder(\n        DataTypes.MonetaryAmount[] memory amounts,\n        DataTypes.VaultInfo[] memory vaultsInfo\n    ) internal pure returns (DataTypes.Order memory) {\n        DataTypes.Order memory order = DataTypes.Order({\n            mint: true,\n            vaultsWithAmount: new DataTypes.VaultWithAmount[](vaultsInfo.length)\n        });\n\n        for (uint256 i = 0; i < vaultsInfo.length; i++) {\n            DataTypes.VaultInfo memory vaultInfo = vaultsInfo[i];\n            order.vaultsWithAmount[i] = DataTypes.VaultWithAmount({\n                amount: _getAssetAmountMint(vaultInfo.vault, amounts),\n                vaultInfo: vaultInfo\n            });\n        }\n\n        return order;\n    }\n\n    function _getAssetAmountAndValueRatioRedeem(\n        DataTypes.VaultInfo memory vaultInfo,\n        uint256 usdValueToRedeem,\n        DataTypes.RedeemAsset[] calldata assets\n    ) internal pure returns (uint256, uint256) {\n        for (uint256 i = 0; i < assets.length; i++) {\n            DataTypes.RedeemAsset memory redeemAsset = assets[i];\n            if (redeemAsset.originVault == vaultInfo.vault) {\n                uint256 vaultUsdValueToWithdraw = usdValueToRedeem.mulDown(redeemAsset.valueRatio);\n                uint256 vaultTokenAmount = vaultUsdValueToWithdraw.divDown(vaultInfo.price);\n                uint256 scaledVaultTokenAmount = vaultTokenAmount.scaleTo(vaultInfo.decimals);\n\n                return (scaledVaultTokenAmount, redeemAsset.valueRatio);\n            }\n        }\n        return (0, 0);\n    }\n\n    function _createRedeemOrder(\n        uint256 usdValueToRedeem,\n        DataTypes.RedeemAsset[] calldata assets,\n        DataTypes.VaultInfo[] memory vaultsInfo\n    ) internal pure returns (DataTypes.Order memory) {\n        DataTypes.Order memory order = DataTypes.Order({\n            mint: false,\n            vaultsWithAmount: new DataTypes.VaultWithAmount[](vaultsInfo.length)\n        });\n\n        uint256 totalValueRatio = 0;\n\n        for (uint256 i = 0; i < vaultsInfo.length; i++) {\n            DataTypes.VaultInfo memory vaultInfo = vaultsInfo[i];\n            (uint256 amount, uint256 valueRatio) = _getAssetAmountAndValueRatioRedeem(\n                vaultInfo,\n                usdValueToRedeem,\n                assets\n            );\n            totalValueRatio += valueRatio;\n\n            order.vaultsWithAmount[i] = DataTypes.VaultWithAmount({\n                amount: amount,\n                vaultInfo: vaultInfo\n            });\n        }\n\n        require(totalValueRatio == FixedPoint.ONE, Errors.INVALID_ARGUMENT);\n\n        return order;\n    }\n\n    function _convertAndSendRedeemOutputAssets(\n        DataTypes.RedeemAsset[] calldata assets,\n        DataTypes.Order memory order\n    ) internal returns (uint256[] memory outputAmounts) {\n        outputAmounts = new uint256[](assets.length);\n        ILPTokenExchangerRegistry exchangerRegistry = gyroConfig.getExchangerRegistry();\n        for (uint256 i = 0; i < assets.length; i++) {\n            DataTypes.RedeemAsset memory asset = assets[i];\n            uint256 vaultTokenAmount = _getRedeemAmount(order.vaultsWithAmount, asset.originVault);\n            uint256 outputAmount = _convertRedeemOutputAsset(\n                asset,\n                vaultTokenAmount,\n                exchangerRegistry\n            );\n            // ensure we received enough tokens and transfer them to the user\n            require(outputAmount >= asset.minOutputAmount, Errors.TOO_MUCH_SLIPPAGE);\n            outputAmounts[i] = outputAmount;\n\n            IERC20(asset.outputToken).safeTransfer(msg.sender, outputAmount);\n        }\n    }\n\n    function _getRedeemAmount(DataTypes.VaultWithAmount[] memory vaultsWithAmount, address vault)\n        internal\n        pure\n        returns (uint256)\n    {\n        for (uint256 i = 0; i < vaultsWithAmount.length; i++) {\n            DataTypes.VaultWithAmount memory vaultWithAmount = vaultsWithAmount[i];\n            if (vaultWithAmount.vaultInfo.vault == vault) {\n                return vaultWithAmount.amount;\n            }\n        }\n        return 0;\n    }\n\n    function _convertRedeemOutputAsset(\n        DataTypes.RedeemAsset memory asset,\n        uint256 vaultTokenAmount,\n        ILPTokenExchangerRegistry exchangerRegistry\n    ) internal returns (uint256) {\n        IGyroVault vault = IGyroVault(asset.originVault);\n        // withdraw the amount of vault tokens from the reserve\n        reserve.withdrawToken(address(vault), vaultTokenAmount);\n\n        // nothing to do if the user wants the vault token\n        if (asset.outputToken == address(vault)) {\n            return vaultTokenAmount;\n        } else {\n            // convert the vault token into its underlying LP token\n            uint256 lpTokenAmount = vault.withdraw(vaultTokenAmount, 0);\n\n            address lpTokenAddress = vault.underlying();\n            // nothing more to do if the user wants the underlying LP token\n            if (asset.outputToken == lpTokenAddress) {\n                return lpTokenAmount;\n            } else {\n                // otherwise, convert the LP token into the desired output token\n                ILPTokenExchanger exchanger = exchangerRegistry.getTokenExchanger(lpTokenAddress);\n                return\n                    exchanger.withdraw(DataTypes.MonetaryAmount(asset.outputToken, lpTokenAmount));\n            }\n        }\n    }\n\n    function _computeRedeemOutputAmounts(\n        DataTypes.RedeemAsset[] calldata assets,\n        DataTypes.Order memory order\n    ) internal view returns (uint256[] memory outputAmounts, string memory err) {\n        outputAmounts = new uint256[](assets.length);\n        ILPTokenExchangerRegistry exchangerRegistry = gyroConfig.getExchangerRegistry();\n        for (uint256 i = 0; i < assets.length; i++) {\n            DataTypes.RedeemAsset calldata asset = assets[i];\n            uint256 vaultTokenAmount = _getRedeemAmount(order.vaultsWithAmount, asset.originVault);\n            uint256 outputAmount;\n            (outputAmount, err) = _computeRedeemOutputAmount(\n                asset,\n                vaultTokenAmount,\n                exchangerRegistry\n            );\n            if (bytes(err).length > 0) {\n                return (outputAmounts, err);\n            }\n            // ensure we received enough tokens and transfer them to the user\n            if (outputAmount < asset.minOutputAmount) {\n                return (outputAmounts, Errors.TOO_MUCH_SLIPPAGE);\n            }\n            outputAmounts[i] = outputAmount;\n        }\n    }\n\n    function _computeRedeemOutputAmount(\n        DataTypes.RedeemAsset calldata asset,\n        uint256 vaultTokenAmount,\n        ILPTokenExchangerRegistry exchangerRegistry\n    ) internal view returns (uint256 outputAmount, string memory err) {\n        IGyroVault vault = IGyroVault(asset.originVault);\n\n        // nothing to do if the user wants the vault token\n        if (asset.outputToken == address(vault)) {\n            return (vaultTokenAmount, \"\");\n        } else {\n            // convert the vault token into its underlying LP token\n            uint256 lpTokenAmount;\n\n            uint256 vaultTokenBalance = vault.balanceOf(address(reserve));\n            if (vaultTokenBalance < vaultTokenAmount) {\n                return (0, Errors.INSUFFICIENT_BALANCE);\n            }\n            (lpTokenAmount, err) = vault.dryWithdraw(vaultTokenAmount, 0);\n            if (bytes(err).length > 0) {\n                return (0, err);\n            }\n\n            address lpTokenAddress = vault.underlying();\n            // nothing more to do if the user wants the underlying LP token\n            if (asset.outputToken == lpTokenAddress) {\n                return (lpTokenAmount, \"\");\n            } else {\n                // otherwise, convert the LP token into the desired output token\n                ILPTokenExchanger exchanger = exchangerRegistry.getTokenExchanger(lpTokenAddress);\n                return\n                    exchanger.dryWithdraw(\n                        DataTypes.MonetaryAmount(asset.outputToken, lpTokenAmount)\n                    );\n            }\n        }\n    }\n\n    function _getBasketUSDValue(DataTypes.Order memory order)\n        internal\n        pure\n        returns (uint256 result)\n    {\n        for (uint256 i = 0; i < order.vaultsWithAmount.length; i++) {\n            DataTypes.VaultWithAmount memory vaultWithAmount = order.vaultsWithAmount[i];\n            uint256 scaledAmount = vaultWithAmount.amount.scaleFrom(\n                vaultWithAmount.vaultInfo.decimals\n            );\n            result += scaledAmount.mulDown(vaultWithAmount.vaultInfo.price);\n        }\n    }\n}\n","sourcePath":"contracts/Motherboard.sol","type":"contract","deployment":{"address":"0x0b0F9A196A78F6B36Dcc097E0f5e48Ad4cA508E5","chainid":"137","blockHeight":26855933}}