{"abi":[{"inputs":[{"internalType":"contract IGyroVault","name":"vault","type":"address"},{"components":[{"internalType":"address","name":"tokenAddress","type":"address"},{"internalType":"bool","name":"isStable","type":"bool"},{"internalType":"uint256","name":"price","type":"uint256"}],"internalType":"struct DataTypes.PricedToken[]","name":"underlyingPricedTokens","type":"tuple[]"}],"name":"getPoolTokenPriceUSD","outputs":[{"internalType":"uint256","name":"","type":"uint256"}],"stateMutability":"view","type":"function"},{"inputs":[{"internalType":"contract IGyroVault","name":"vault","type":"address"},{"components":[{"internalType":"address","name":"tokenAddress","type":"address"},{"internalType":"bool","name":"isStable","type":"bool"},{"internalType":"uint256","name":"price","type":"uint256"}],"internalType":"struct DataTypes.PricedToken[]","name":"underlyingPricedTokens","type":"tuple[]"}],"name":"getPriceUSD","outputs":[{"internalType":"uint256","name":"","type":"uint256"}],"stateMutability":"view","type":"function"}],"bytecode":"608060405234801561001057600080fd5b50611aa5806100206000396000f3fe608060405234801561001057600080fd5b50600436106100365760003560e01c8063b141266e1461003b578063b7bb2fe014610060575b600080fd5b61004e6100493660046115af565b610073565b60405190815260200160405180910390f35b61004e61006e3660046115af565b61016c565b600080836001600160a01b0316636f307dc36040518163ffffffff1660e01b8152600401602060405180830381865afa1580156100b4573d6000803e3d6000fd5b505050506040513d601f19601f820116820180604052508101906100d891906116b0565b9050600080826001600160a01b0316637be219a26040518163ffffffff1660e01b81526004016101c060405180830381865afa15801561011c573d6000803e3d6000fd5b505050506040513d601f19601f82011682018060405250810190610140919061171c565b915091506101608282610152866101ef565b61015b896102c6565b610370565b93505050505b92915050565b6000806101798484610073565b90506101e7846001600160a01b0316633ba0b9a96040518163ffffffff1660e01b8152600401602060405180830381865afa1580156101bc573d6000803e3d6000fd5b505050506040513d601f19601f820116820180604052508101906101e091906117f2565b8290610501565b949350505050565b600080826001600160a01b031663c0ff1a156040518163ffffffff1660e01b8152600401602060405180830381865afa158015610230573d6000803e3d6000fd5b505050506040513d601f19601f8201168201806040525081019061025491906117f2565b90506000836001600160a01b03166318160ddd6040518163ffffffff1660e01b8152600401602060405180830381865afa158015610296573d6000803e3d6000fd5b505050506040513d601f19601f820116820180604052508101906102ba91906117f2565b90506101e78282610522565b60606000825167ffffffffffffffff8111156102e4576102e46114f9565b60405190808252806020026020018201604052801561030d578160200160208202803683370190505b50905060005b83518110156103695783818151811061032e5761032e61180b565b60200260200101516040015182828151811061034c5761034c61180b565b60209081029190910101528061036181611837565b915050610313565b5092915050565b60008060006103988460008151811061038b5761038b61180b565b602002602001015161059b565b6103ae8560018151811061038b5761038b61180b565b909250905060006103bf8383610609565b885190915081121561041e5760006103db8989600001516106bf565b600001516103ed8a8a602001516106bf565b516103f89190611852565b90506104168761041061040b848861075f565b6107cf565b90610501565b9450506104f6565b876020015181131561046d57600061043a8989602001516106bf565b6020015161044c8a8a600001516106bf565b6020015161045a9190611852565b90506104168761041061040b848761075f565b60006104828961047d8b85610821565b6106bf565b905080600001516104978a8a602001516106bf565b516104a29190611852565b8152602081015188516104b6908b906106bf565b602001516104c49190611852565b8160200181815250506104f28761041061040b6040518060400160405280898152602001888152508561084e565b9450505b505050949350505050565b60008061050e8385611891565b90506101e7670de0b6b3a7640000826118c6565b604080518082019091526002815261323560f01b6020820152600090826105655760405162461bcd60e51b815260040161055c91906118da565b60405180910390fd5b508261057357506000610166565b6000610587670de0b6b3a764000085611891565b905061059383826118c6565b915050610166565b60006001600160ff1b038211156106055760405162461bcd60e51b815260206004820152602860248201527f53616665436173743a2076616c756520646f65736e27742066697420696e2061604482015267371034b73a191a9b60c11b606482015260840161055c565b5090565b604080518082019091526002815261323560f01b6020820152600090826106435760405162461bcd60e51b815260040161055c91906118da565b508261065157506000610166565b6000610665670de0b6b3a76400008561192f565b9050670de0b6b3a764000061067a85836119b4565b1460405180604001604052806002815260200161323960f01b815250906106b45760405162461bcd60e51b815260040161055c91906118da565b5061059383826119b4565b6040805180820190915260008082526020820152606083015160208301516106e69161075f565b6040840151608085015184516107079291610701919061075f565b9061075f565b61071191906119e2565b8152604083015160208301516107269161075f565b6060840151608085015184516107419291610701919061075f565b61074a90611a23565b61075491906119e2565b602082015292915050565b60008061076c838561192f565b905083158061078357508261078185836119b4565b145b60405180604001604052806002815260200161064760f31b815250906107bc5760405162461bcd60e51b815260040161055c91906118da565b506101e7670de0b6b3a7640000826119b4565b6000808212156106055760405162461bcd60e51b815260206004820181905260248201527f53616665436173743a2076616c7565206d75737420626520706f736974697665604482015260640161055c565b60408051808201909152600080825260208201526108476108428484610882565b6108d0565b9392505050565b600061086b8260200151846020015161075f90919063ffffffff16565b825184516108789161075f565b61084791906119e2565b6000806108b3846040518060400160405280670de0b6b3a76400006108a690611a23565b815260200186905261092a565b805160208201519192506108c79190610609565b6101e790611a23565b6040805180820190915260008082526020820152600061091e6109196108f961040b868061075f565b61090b90670de0b6b3a7640000611a40565b6706f05b59d3b200006109b1565b61059b565b90506108478382610a01565b604080518082019091526000808252602082015261096783608001516109618460200151866060015161075f90919063ffffffff16565b90610609565b6080840151835160408601516109829291610961919061075f565b61098c9190611852565b8152602082015160408401516109a19161075f565b8251606085015161074a9161075f565b6000806109be8484610a33565b905060006109ce82612710610bbf565b6109d9906001611a40565b9050808210156109ee57600092505050610166565b6109f88183611a58565b92505050610166565b6040805180820190915260008082526020820152610a1f8383610609565b8152610754670de0b6b3a764000083610609565b600081610a495750670de0b6b3a7640000610166565b82610a5657506000610166565b604080518082019091526002815261032360f41b6020820152600160ff1b8410610a935760405162461bcd60e51b815260040161055c91906118da565b50604080518082019091526002815261323160f01b60208201528390770bce5086492111aea88f4bb1ca6bcf584181ea8059f765328410610ae75760405162461bcd60e51b815260040161055c91906118da565b50826000670c7d713b49da000083138015610b095750670f43fc2c04ee000083125b15610b40576000610b1984610c06565b9050670de0b6b3a764000080820784020583670de0b6b3a764000083050201915050610b4e565b81610b4a84610d25565b0290505b670de0b6b3a76400009005680238fd42c5cf03ffff198112801590610b7c575068070c1cc73b00c800008113155b60405180604001604052806002815260200161191960f11b81525090610bb55760405162461bcd60e51b815260040161055c91906118da565b50610160816110cf565b600080610bcc8385611891565b905080610bdd576000915050610166565b670de0b6b3a7640000610bf1600183611a58565b610bfb91906118c6565b610593906001611a40565b670de0b6b3a7640000026000806a0c097ce7bc90715b34b9f160241b808401906ec097ce7bc90715b34b9f0fffffffff1985010281610c4757610c476118b0565b05905060006a0c097ce7bc90715b34b9f160241b82800205905081806a0c097ce7bc90715b34b9f160241b81840205915060038205016a0c097ce7bc90715b34b9f160241b82840205915060058205016a0c097ce7bc90715b34b9f160241b82840205915060078205016a0c097ce7bc90715b34b9f160241b82840205915060098205016a0c097ce7bc90715b34b9f160241b828402059150600b8205016a0c097ce7bc90715b34b9f160241b828402059150600d8205016a0c097ce7bc90715b34b9f160241b828402059150600f82050160020295945050505050565b6000670de0b6b3a7640000821215610d6657610d5d826a0c097ce7bc90715b34b9f160241b81610d5757610d576118b0565b05610d25565b60000392915050565b60007e1600ef3172e58d2e933ec884fde10064c63b5372d805e203c00000000000008312610db757770195e54c5dd42177f53a27172fa9ec630262827000000000830592506806f05b59d3b2000000015b73011798004d755d3c8bc8e03204cf44619e0000008312610def576b1425982cf597cd205cef7380830592506803782dace9d9000000015b606492830292026e01855144814a7ff805980ff00840008312610e37576e01855144814a7ff805980ff008400068056bc75e2d63100000840205925068ad78ebc5ac62000000015b6b02df0ab5a80a22c61ab5a7008312610e72576b02df0ab5a80a22c61ab5a70068056bc75e2d6310000084020592506856bc75e2d631000000015b693f1fce3da636ea5cf8508312610ea957693f1fce3da636ea5cf85068056bc75e2d631000008402059250682b5e3af16b18800000015b690127fa27722cc06cc5e28312610ee057690127fa27722cc06cc5e268056bc75e2d6310000084020592506815af1d78b58c400000015b68280e60114edb805d038312610f155768280e60114edb805d0368056bc75e2d631000008402059250680ad78ebc5ac6200000015b680ebc5fb417461211108312610f4057680ebc5fb4174612111068056bc75e2d631000009384020592015b6808f00f760a4b2db55d8312610f75576808f00f760a4b2db55d68056bc75e2d6310000084020592506802b5e3af16b1880000015b6806f5f17757889379378312610faa576806f5f177578893793768056bc75e2d63100000840205925068015af1d78b58c40000015b6806248f33704b2866038312610fde576806248f33704b28660368056bc75e2d63100000840205925067ad78ebc5ac620000015b6805c548670b9510e7ac8312611012576805c548670b9510e7ac68056bc75e2d6310000084020592506756bc75e2d6310000015b600068056bc75e2d63100000840168056bc75e2d63100000808603028161103b5761103b6118b0565b059050600068056bc75e2d63100000828002059050818068056bc75e2d63100000818402059150600382050168056bc75e2d63100000828402059150600582050168056bc75e2d63100000828402059150600782050168056bc75e2d63100000828402059150600982050168056bc75e2d63100000828402059150600b820501600202606485820105979650505050505050565b6000680238fd42c5cf03ffff1982121580156110f4575068070c1cc73b00c800008213155b60405180604001604052806002815260200161323360f01b8152509061112d5760405162461bcd60e51b815260040161055c91906118da565b50600082121561116657611143826000036110cf565b6a0c097ce7bc90715b34b9f160241b8161115f5761115f6118b0565b0592915050565b60006806f05b59d3b200000083126111a657506806f05b59d3b1ffffff1990910190770195e54c5dd42177f53a27172fa9ec6302628270000000006111dc565b6803782dace9d900000083126111d857506803782dace9d8ffffff19909101906b1425982cf597cd205cef73806111dc565b5060015b6064929092029168056bc75e2d6310000068ad78ebc5ac62000000841261122c5768ad78ebc5ac61ffffff199093019268056bc75e2d631000006e01855144814a7ff805980ff008400082020590505b6856bc75e2d6310000008412611268576856bc75e2d630ffffff199093019268056bc75e2d631000006b02df0ab5a80a22c61ab5a70082020590505b682b5e3af16b1880000084126112a257682b5e3af16b187fffff199093019268056bc75e2d63100000693f1fce3da636ea5cf85082020590505b6815af1d78b58c40000084126112dc576815af1d78b58c3fffff199093019268056bc75e2d63100000690127fa27722cc06cc5e282020590505b680ad78ebc5ac6200000841261131557680ad78ebc5ac61fffff199093019268056bc75e2d6310000068280e60114edb805d0382020590505b68056bc75e2d63100000841261134e5768056bc75e2d630fffff199093019268056bc75e2d63100000680ebc5fb4174612111082020590505b6802b5e3af16b18800008412611387576802b5e3af16b187ffff199093019268056bc75e2d631000006808f00f760a4b2db55d82020590505b68015af1d78b58c4000084126113c05768015af1d78b58c3ffff199093019268056bc75e2d631000006806f5f177578893793782020590505b68056bc75e2d631000008481019085906002908280020505918201919050600368056bc75e2d631000008783020505918201919050600468056bc75e2d631000008783020505918201919050600568056bc75e2d631000008783020505918201919050600668056bc75e2d631000008783020505918201919050600768056bc75e2d631000008783020505918201919050600868056bc75e2d631000008783020505918201919050600968056bc75e2d631000008783020505918201919050600a68056bc75e2d631000008783020505918201919050600b68056bc75e2d631000008783020505918201919050600c68056bc75e2d631000008783020505918201919050606468056bc75e2d63100000848402058502059695505050505050565b6001600160a01b03811681146114f657600080fd5b50565b634e487b7160e01b600052604160045260246000fd5b6040516060810167ffffffffffffffff81118282101715611532576115326114f9565b60405290565b60405160a0810167ffffffffffffffff81118282101715611532576115326114f9565b60405160e0810167ffffffffffffffff81118282101715611532576115326114f9565b604051601f8201601f1916810167ffffffffffffffff811182821017156115a7576115a76114f9565b604052919050565b60008060408084860312156115c357600080fd5b83356115ce816114e1565b925060208481013567ffffffffffffffff808211156115ec57600080fd5b818701915087601f83011261160057600080fd5b813581811115611612576116126114f9565b611620848260051b0161157e565b8181528481019250606091820284018501918a83111561163f57600080fd5b938501935b8285101561169f5780858c03121561165c5760008081fd5b61166461150f565b853561166f816114e1565b81528587013580151581146116845760008081fd5b81880152858801358882015284529384019392850192611644565b508096505050505050509250929050565b6000602082840312156116c257600080fd5b8151610847816114e1565b6000604082840312156116df57600080fd5b6040516040810181811067ffffffffffffffff82111715611702576117026114f9565b604052825181526020928301519281019290925250919050565b6000808284036101c081121561173157600080fd5b60a081121561173f57600080fd5b611747611538565b84518152602085015160208201526040850151604082015260608501516060820152608085015160808201528093505061012080609f198301121561178b57600080fd5b61179361155b565b91506117a28660a087016116cd565b82526117b18660e087016116cd565b602083015284015160408201526101408401516060820152610160840151608082015261018084015160a08201526101a09093015160c08401525092909150565b60006020828403121561180457600080fd5b5051919050565b634e487b7160e01b600052603260045260246000fd5b634e487b7160e01b600052601160045260246000fd5b600060001982141561184b5761184b611821565b5060010190565b60008083128015600160ff1b85018412161561187057611870611821565b6001600160ff1b038401831381161561188b5761188b611821565b50500390565b60008160001904831182151516156118ab576118ab611821565b500290565b634e487b7160e01b600052601260045260246000fd5b6000826118d5576118d56118b0565b500490565b600060208083528351808285015260005b81811015611907578581018301518582016040015282016118eb565b81811115611919576000604083870101525b50601f01601f1916929092016040019392505050565b60006001600160ff1b038184138284138082168684048611161561195557611955611821565b600160ff1b600087128281168783058912161561197457611974611821565b6000871292508782058712848416161561199057611990611821565b878505871281841616156119a6576119a6611821565b505050929093029392505050565b6000826119c3576119c36118b0565b600160ff1b8214600019841416156119dd576119dd611821565b500590565b600080821280156001600160ff1b0384900385131615611a0457611a04611821565b600160ff1b8390038412811615611a1d57611a1d611821565b50500190565b6000600160ff1b821415611a3957611a39611821565b5060000390565b60008219821115611a5357611a53611821565b500190565b600082821015611a6a57611a6a611821565b50039056fea264697066735822122069a89936f160e7d262443bea22b71309fd221f491d949ae13037dc9968e8e51464736f6c634300080a0033","bytecodeSha1":"22a0dbedbca30128528467820d7068af22390bec","compiler":{"evm_version":"london","optimizer":{"enabled":true,"runs":200},"version":"0.8.10+commit.fc410830"},"contractName":"BalancerECLPPriceOracle","language":"Solidity","natspec":{"kind":"dev","methods":{"getPoolTokenPriceUSD(address,(address,bool,uint256)[])":{"notice":"returns the price of the underlying pool token (e.g. BPT token) rather than the price of the vault token itself"},"getPriceUSD(address,(address,bool,uint256)[])":{"notice":"Quotes the USD price of `vault` tokens The quoted price is always scaled with 18 decimals regardless of the source used for the oracle.","params":{"vault":"the vault of which the price is to be quoted"},"returns":{"_0":"the USD price of the vault token"}}},"version":1},"opcodes":"PUSH1 0x80 PUSH1 0x40 MSTORE CALLVALUE DUP1 ISZERO PUSH2 0x10 JUMPI PUSH1 0x0 DUP1 REVERT JUMPDEST POP PUSH1 0x4 CALLDATASIZE LT PUSH2 0x36 JUMPI PUSH1 0x0 CALLDATALOAD PUSH1 0xE0 SHR DUP1 PUSH4 0xB141266E EQ PUSH2 0x3B JUMPI DUP1 PUSH4 0xB7BB2FE0 EQ PUSH2 0x60 JUMPI JUMPDEST PUSH1 0x0 DUP1 REVERT JUMPDEST PUSH2 0x4E PUSH2 0x49 CALLDATASIZE PUSH1 0x4 PUSH2 0x15AF JUMP JUMPDEST PUSH2 0x73 JUMP JUMPDEST PUSH1 0x40 MLOAD SWAP1 DUP2 MSTORE PUSH1 0x20 ADD PUSH1 0x40 MLOAD DUP1 SWAP2 SUB SWAP1 RETURN JUMPDEST PUSH2 0x4E PUSH2 0x6E CALLDATASIZE PUSH1 0x4 PUSH2 0x15AF JUMP JUMPDEST PUSH2 0x16C JUMP JUMPDEST PUSH1 0x0 DUP1 DUP4 PUSH1 0x1 PUSH1 0x1 PUSH1 0xA0 SHL SUB AND PUSH4 0x6F307DC3 PUSH1 0x40 MLOAD DUP2 PUSH4 0xFFFFFFFF AND PUSH1 0xE0 SHL DUP2 MSTORE PUSH1 0x4 ADD PUSH1 0x20 PUSH1 0x40 MLOAD DUP1 DUP4 SUB DUP2 DUP7 GAS STATICCALL ISZERO DUP1 ISZERO PUSH2 0xB4 JUMPI RETURNDATASIZE PUSH1 0x0 DUP1 RETURNDATACOPY RETURNDATASIZE PUSH1 0x0 REVERT JUMPDEST POP POP POP POP PUSH1 0x40 MLOAD RETURNDATASIZE PUSH1 0x1F NOT PUSH1 0x1F DUP3 ADD AND DUP3 ADD DUP1 PUSH1 0x40 MSTORE POP DUP2 ADD SWAP1 PUSH2 0xD8 SWAP2 SWAP1 PUSH2 0x16B0 JUMP JUMPDEST SWAP1 POP PUSH1 0x0 DUP1 DUP3 PUSH1 0x1 PUSH1 0x1 PUSH1 0xA0 SHL SUB AND PUSH4 0x7BE219A2 PUSH1 0x40 MLOAD DUP2 PUSH4 0xFFFFFFFF AND PUSH1 0xE0 SHL DUP2 MSTORE PUSH1 0x4 ADD PUSH2 0x1C0 PUSH1 0x40 MLOAD DUP1 DUP4 SUB DUP2 DUP7 GAS STATICCALL ISZERO DUP1 ISZERO PUSH2 0x11C JUMPI RETURNDATASIZE PUSH1 0x0 DUP1 RETURNDATACOPY RETURNDATASIZE PUSH1 0x0 REVERT JUMPDEST POP POP POP POP PUSH1 0x40 MLOAD RETURNDATASIZE PUSH1 0x1F NOT PUSH1 0x1F DUP3 ADD AND DUP3 ADD DUP1 PUSH1 0x40 MSTORE POP DUP2 ADD SWAP1 PUSH2 0x140 SWAP2 SWAP1 PUSH2 0x171C JUMP JUMPDEST SWAP2 POP SWAP2 POP PUSH2 0x160 DUP3 DUP3 PUSH2 0x152 DUP7 PUSH2 0x1EF JUMP JUMPDEST PUSH2 0x15B DUP10 PUSH2 0x2C6 JUMP JUMPDEST PUSH2 0x370 JUMP JUMPDEST SWAP4 POP POP POP POP JUMPDEST SWAP3 SWAP2 POP POP JUMP JUMPDEST PUSH1 0x0 DUP1 PUSH2 0x179 DUP5 DUP5 PUSH2 0x73 JUMP JUMPDEST SWAP1 POP PUSH2 0x1E7 DUP5 PUSH1 0x1 PUSH1 0x1 PUSH1 0xA0 SHL SUB AND PUSH4 0x3BA0B9A9 PUSH1 0x40 MLOAD DUP2 PUSH4 0xFFFFFFFF AND PUSH1 0xE0 SHL DUP2 MSTORE PUSH1 0x4 ADD PUSH1 0x20 PUSH1 0x40 MLOAD DUP1 DUP4 SUB DUP2 DUP7 GAS STATICCALL ISZERO DUP1 ISZERO PUSH2 0x1BC JUMPI RETURNDATASIZE PUSH1 0x0 DUP1 RETURNDATACOPY RETURNDATASIZE PUSH1 0x0 REVERT JUMPDEST POP POP POP POP PUSH1 0x40 MLOAD RETURNDATASIZE PUSH1 0x1F NOT PUSH1 0x1F DUP3 ADD AND DUP3 ADD DUP1 PUSH1 0x40 MSTORE POP DUP2 ADD SWAP1 PUSH2 0x1E0 SWAP2 SWAP1 PUSH2 0x17F2 JUMP JUMPDEST DUP3 SWAP1 PUSH2 0x501 JUMP JUMPDEST SWAP5 SWAP4 POP POP POP POP JUMP JUMPDEST PUSH1 0x0 DUP1 DUP3 PUSH1 0x1 PUSH1 0x1 PUSH1 0xA0 SHL SUB AND PUSH4 0xC0FF1A15 PUSH1 0x40 MLOAD DUP2 PUSH4 0xFFFFFFFF AND PUSH1 0xE0 SHL DUP2 MSTORE PUSH1 0x4 ADD PUSH1 0x20 PUSH1 0x40 MLOAD DUP1 DUP4 SUB DUP2 DUP7 GAS STATICCALL ISZERO DUP1 ISZERO PUSH2 0x230 JUMPI RETURNDATASIZE PUSH1 0x0 DUP1 RETURNDATACOPY RETURNDATASIZE PUSH1 0x0 REVERT JUMPDEST POP POP POP POP PUSH1 0x40 MLOAD RETURNDATASIZE PUSH1 0x1F NOT PUSH1 0x1F DUP3 ADD AND DUP3 ADD DUP1 PUSH1 0x40 MSTORE POP DUP2 ADD SWAP1 PUSH2 0x254 SWAP2 SWAP1 PUSH2 0x17F2 JUMP JUMPDEST SWAP1 POP PUSH1 0x0 DUP4 PUSH1 0x1 PUSH1 0x1 PUSH1 0xA0 SHL SUB AND PUSH4 0x18160DDD PUSH1 0x40 MLOAD DUP2 PUSH4 0xFFFFFFFF AND PUSH1 0xE0 SHL DUP2 MSTORE PUSH1 0x4 ADD PUSH1 0x20 PUSH1 0x40 MLOAD DUP1 DUP4 SUB DUP2 DUP7 GAS STATICCALL ISZERO DUP1 ISZERO PUSH2 0x296 JUMPI RETURNDATASIZE PUSH1 0x0 DUP1 RETURNDATACOPY RETURNDATASIZE PUSH1 0x0 REVERT JUMPDEST POP POP POP POP PUSH1 0x40 MLOAD RETURNDATASIZE PUSH1 0x1F NOT PUSH1 0x1F DUP3 ADD AND DUP3 ADD DUP1 PUSH1 0x40 MSTORE POP DUP2 ADD SWAP1 PUSH2 0x2BA SWAP2 SWAP1 PUSH2 0x17F2 JUMP JUMPDEST SWAP1 POP PUSH2 0x1E7 DUP3 DUP3 PUSH2 0x522 JUMP JUMPDEST PUSH1 0x60 PUSH1 0x0 DUP3 MLOAD PUSH8 0xFFFFFFFFFFFFFFFF DUP2 GT ISZERO PUSH2 0x2E4 JUMPI PUSH2 0x2E4 PUSH2 0x14F9 JUMP JUMPDEST PUSH1 0x40 MLOAD SWAP1 DUP1 DUP3 MSTORE DUP1 PUSH1 0x20 MUL PUSH1 0x20 ADD DUP3 ADD PUSH1 0x40 MSTORE DUP1 ISZERO PUSH2 0x30D JUMPI DUP2 PUSH1 0x20 ADD PUSH1 0x20 DUP3 MUL DUP1 CALLDATASIZE DUP4 CALLDATACOPY ADD SWAP1 POP JUMPDEST POP SWAP1 POP PUSH1 0x0 JUMPDEST DUP4 MLOAD DUP2 LT ISZERO PUSH2 0x369 JUMPI DUP4 DUP2 DUP2 MLOAD DUP2 LT PUSH2 0x32E JUMPI PUSH2 0x32E PUSH2 0x180B JUMP JUMPDEST PUSH1 0x20 MUL PUSH1 0x20 ADD ADD MLOAD PUSH1 0x40 ADD MLOAD DUP3 DUP3 DUP2 MLOAD DUP2 LT PUSH2 0x34C JUMPI PUSH2 0x34C PUSH2 0x180B JUMP JUMPDEST PUSH1 0x20 SWAP1 DUP2 MUL SWAP2 SWAP1 SWAP2 ADD ADD MSTORE DUP1 PUSH2 0x361 DUP2 PUSH2 0x1837 JUMP JUMPDEST SWAP2 POP POP PUSH2 0x313 JUMP JUMPDEST POP SWAP3 SWAP2 POP POP JUMP JUMPDEST PUSH1 0x0 DUP1 PUSH1 0x0 PUSH2 0x398 DUP5 PUSH1 0x0 DUP2 MLOAD DUP2 LT PUSH2 0x38B JUMPI PUSH2 0x38B PUSH2 0x180B JUMP JUMPDEST PUSH1 0x20 MUL PUSH1 0x20 ADD ADD MLOAD PUSH2 0x59B JUMP JUMPDEST PUSH2 0x3AE DUP6 PUSH1 0x1 DUP2 MLOAD DUP2 LT PUSH2 0x38B JUMPI PUSH2 0x38B PUSH2 0x180B JUMP JUMPDEST SWAP1 SWAP3 POP SWAP1 POP PUSH1 0x0 PUSH2 0x3BF DUP4 DUP4 PUSH2 0x609 JUMP JUMPDEST DUP9 MLOAD SWAP1 SWAP2 POP DUP2 SLT ISZERO PUSH2 0x41E JUMPI PUSH1 0x0 PUSH2 0x3DB DUP10 DUP10 PUSH1 0x0 ADD MLOAD PUSH2 0x6BF JUMP JUMPDEST PUSH1 0x0 ADD MLOAD PUSH2 0x3ED DUP11 DUP11 PUSH1 0x20 ADD MLOAD PUSH2 0x6BF JUMP JUMPDEST MLOAD PUSH2 0x3F8 SWAP2 SWAP1 PUSH2 0x1852 JUMP JUMPDEST SWAP1 POP PUSH2 0x416 DUP8 PUSH2 0x410 PUSH2 0x40B DUP5 DUP9 PUSH2 0x75F JUMP JUMPDEST PUSH2 0x7CF JUMP JUMPDEST SWAP1 PUSH2 0x501 JUMP JUMPDEST SWAP5 POP POP PUSH2 0x4F6 JUMP JUMPDEST DUP8 PUSH1 0x20 ADD MLOAD DUP2 SGT ISZERO PUSH2 0x46D JUMPI PUSH1 0x0 PUSH2 0x43A DUP10 DUP10 PUSH1 0x20 ADD MLOAD PUSH2 0x6BF JUMP JUMPDEST PUSH1 0x20 ADD MLOAD PUSH2 0x44C DUP11 DUP11 PUSH1 0x0 ADD MLOAD PUSH2 0x6BF JUMP JUMPDEST PUSH1 0x20 ADD MLOAD PUSH2 0x45A SWAP2 SWAP1 PUSH2 0x1852 JUMP JUMPDEST SWAP1 POP PUSH2 0x416 DUP8 PUSH2 0x410 PUSH2 0x40B DUP5 DUP8 PUSH2 0x75F JUMP JUMPDEST PUSH1 0x0 PUSH2 0x482 DUP10 PUSH2 0x47D DUP12 DUP6 PUSH2 0x821 JUMP JUMPDEST PUSH2 0x6BF JUMP JUMPDEST SWAP1 POP DUP1 PUSH1 0x0 ADD MLOAD PUSH2 0x497 DUP11 DUP11 PUSH1 0x20 ADD MLOAD PUSH2 0x6BF JUMP JUMPDEST MLOAD PUSH2 0x4A2 SWAP2 SWAP1 PUSH2 0x1852 JUMP JUMPDEST DUP2 MSTORE PUSH1 0x20 DUP2 ADD MLOAD DUP9 MLOAD PUSH2 0x4B6 SWAP1 DUP12 SWAP1 PUSH2 0x6BF JUMP JUMPDEST PUSH1 0x20 ADD MLOAD PUSH2 0x4C4 SWAP2 SWAP1 PUSH2 0x1852 JUMP JUMPDEST DUP2 PUSH1 0x20 ADD DUP2 DUP2 MSTORE POP POP PUSH2 0x4F2 DUP8 PUSH2 0x410 PUSH2 0x40B PUSH1 0x40 MLOAD DUP1 PUSH1 0x40 ADD PUSH1 0x40 MSTORE DUP1 DUP10 DUP2 MSTORE PUSH1 0x20 ADD DUP9 DUP2 MSTORE POP DUP6 PUSH2 0x84E JUMP JUMPDEST SWAP5 POP POP JUMPDEST POP POP POP SWAP5 SWAP4 POP POP POP POP JUMP JUMPDEST PUSH1 0x0 DUP1 PUSH2 0x50E DUP4 DUP6 PUSH2 0x1891 JUMP JUMPDEST SWAP1 POP PUSH2 0x1E7 PUSH8 0xDE0B6B3A7640000 DUP3 PUSH2 0x18C6 JUMP JUMPDEST PUSH1 0x40 DUP1 MLOAD DUP1 DUP3 ADD SWAP1 SWAP2 MSTORE PUSH1 0x2 DUP2 MSTORE PUSH2 0x3235 PUSH1 0xF0 SHL PUSH1 0x20 DUP3 ADD MSTORE PUSH1 0x0 SWAP1 DUP3 PUSH2 0x565 JUMPI PUSH1 0x40 MLOAD PUSH3 0x461BCD PUSH1 0xE5 SHL DUP2 MSTORE PUSH1 0x4 ADD PUSH2 0x55C SWAP2 SWAP1 PUSH2 0x18DA JUMP JUMPDEST PUSH1 0x40 MLOAD DUP1 SWAP2 SUB SWAP1 REVERT JUMPDEST POP DUP3 PUSH2 0x573 JUMPI POP PUSH1 0x0 PUSH2 0x166 JUMP JUMPDEST PUSH1 0x0 PUSH2 0x587 PUSH8 0xDE0B6B3A7640000 DUP6 PUSH2 0x1891 JUMP JUMPDEST SWAP1 POP PUSH2 0x593 DUP4 DUP3 PUSH2 0x18C6 JUMP JUMPDEST SWAP2 POP POP PUSH2 0x166 JUMP JUMPDEST PUSH1 0x0 PUSH1 0x1 PUSH1 0x1 PUSH1 0xFF SHL SUB DUP3 GT ISZERO PUSH2 0x605 JUMPI PUSH1 0x40 MLOAD PUSH3 0x461BCD PUSH1 0xE5 SHL DUP2 MSTORE PUSH1 0x20 PUSH1 0x4 DUP3 ADD MSTORE PUSH1 0x28 PUSH1 0x24 DUP3 ADD MSTORE PUSH32 0x53616665436173743A2076616C756520646F65736E27742066697420696E2061 PUSH1 0x44 DUP3 ADD MSTORE PUSH8 0x371034B73A191A9B PUSH1 0xC1 SHL PUSH1 0x64 DUP3 ADD MSTORE PUSH1 0x84 ADD PUSH2 0x55C JUMP JUMPDEST POP SWAP1 JUMP JUMPDEST PUSH1 0x40 DUP1 MLOAD DUP1 DUP3 ADD SWAP1 SWAP2 MSTORE PUSH1 0x2 DUP2 MSTORE PUSH2 0x3235 PUSH1 0xF0 SHL PUSH1 0x20 DUP3 ADD MSTORE PUSH1 0x0 SWAP1 DUP3 PUSH2 0x643 JUMPI PUSH1 0x40 MLOAD PUSH3 0x461BCD PUSH1 0xE5 SHL DUP2 MSTORE PUSH1 0x4 ADD PUSH2 0x55C SWAP2 SWAP1 PUSH2 0x18DA JUMP JUMPDEST POP DUP3 PUSH2 0x651 JUMPI POP PUSH1 0x0 PUSH2 0x166 JUMP JUMPDEST PUSH1 0x0 PUSH2 0x665 PUSH8 0xDE0B6B3A7640000 DUP6 PUSH2 0x192F JUMP JUMPDEST SWAP1 POP PUSH8 0xDE0B6B3A7640000 PUSH2 0x67A DUP6 DUP4 PUSH2 0x19B4 JUMP JUMPDEST EQ PUSH1 0x40 MLOAD DUP1 PUSH1 0x40 ADD PUSH1 0x40 MSTORE DUP1 PUSH1 0x2 DUP2 MSTORE PUSH1 0x20 ADD PUSH2 0x3239 PUSH1 0xF0 SHL DUP2 MSTORE POP SWAP1 PUSH2 0x6B4 JUMPI PUSH1 0x40 MLOAD PUSH3 0x461BCD PUSH1 0xE5 SHL DUP2 MSTORE PUSH1 0x4 ADD PUSH2 0x55C SWAP2 SWAP1 PUSH2 0x18DA JUMP JUMPDEST POP PUSH2 0x593 DUP4 DUP3 PUSH2 0x19B4 JUMP JUMPDEST PUSH1 0x40 DUP1 MLOAD DUP1 DUP3 ADD SWAP1 SWAP2 MSTORE PUSH1 0x0 DUP1 DUP3 MSTORE PUSH1 0x20 DUP3 ADD MSTORE PUSH1 0x60 DUP4 ADD MLOAD PUSH1 0x20 DUP4 ADD MLOAD PUSH2 0x6E6 SWAP2 PUSH2 0x75F JUMP JUMPDEST PUSH1 0x40 DUP5 ADD MLOAD PUSH1 0x80 DUP6 ADD MLOAD DUP5 MLOAD PUSH2 0x707 SWAP3 SWAP2 PUSH2 0x701 SWAP2 SWAP1 PUSH2 0x75F JUMP JUMPDEST SWAP1 PUSH2 0x75F JUMP JUMPDEST PUSH2 0x711 SWAP2 SWAP1 PUSH2 0x19E2 JUMP JUMPDEST DUP2 MSTORE PUSH1 0x40 DUP4 ADD MLOAD PUSH1 0x20 DUP4 ADD MLOAD PUSH2 0x726 SWAP2 PUSH2 0x75F JUMP JUMPDEST PUSH1 0x60 DUP5 ADD MLOAD PUSH1 0x80 DUP6 ADD MLOAD DUP5 MLOAD PUSH2 0x741 SWAP3 SWAP2 PUSH2 0x701 SWAP2 SWAP1 PUSH2 0x75F JUMP JUMPDEST PUSH2 0x74A SWAP1 PUSH2 0x1A23 JUMP JUMPDEST PUSH2 0x754 SWAP2 SWAP1 PUSH2 0x19E2 JUMP JUMPDEST PUSH1 0x20 DUP3 ADD MSTORE SWAP3 SWAP2 POP POP JUMP JUMPDEST PUSH1 0x0 DUP1 PUSH2 0x76C DUP4 DUP6 PUSH2 0x192F JUMP JUMPDEST SWAP1 POP DUP4 ISZERO DUP1 PUSH2 0x783 JUMPI POP DUP3 PUSH2 0x781 DUP6 DUP4 PUSH2 0x19B4 JUMP JUMPDEST EQ JUMPDEST PUSH1 0x40 MLOAD DUP1 PUSH1 0x40 ADD PUSH1 0x40 MSTORE DUP1 PUSH1 0x2 DUP2 MSTORE PUSH1 0x20 ADD PUSH2 0x647 PUSH1 0xF3 SHL DUP2 MSTORE POP SWAP1 PUSH2 0x7BC JUMPI PUSH1 0x40 MLOAD PUSH3 0x461BCD PUSH1 0xE5 SHL DUP2 MSTORE PUSH1 0x4 ADD PUSH2 0x55C SWAP2 SWAP1 PUSH2 0x18DA JUMP JUMPDEST POP PUSH2 0x1E7 PUSH8 0xDE0B6B3A7640000 DUP3 PUSH2 0x19B4 JUMP JUMPDEST PUSH1 0x0 DUP1 DUP3 SLT ISZERO PUSH2 0x605 JUMPI PUSH1 0x40 MLOAD PUSH3 0x461BCD PUSH1 0xE5 SHL DUP2 MSTORE PUSH1 0x20 PUSH1 0x4 DUP3 ADD DUP2 SWAP1 MSTORE PUSH1 0x24 DUP3 ADD MSTORE PUSH32 0x53616665436173743A2076616C7565206D75737420626520706F736974697665 PUSH1 0x44 DUP3 ADD MSTORE PUSH1 0x64 ADD PUSH2 0x55C JUMP JUMPDEST PUSH1 0x40 DUP1 MLOAD DUP1 DUP3 ADD SWAP1 SWAP2 MSTORE PUSH1 0x0 DUP1 DUP3 MSTORE PUSH1 0x20 DUP3 ADD MSTORE PUSH2 0x847 PUSH2 0x842 DUP5 DUP5 PUSH2 0x882 JUMP JUMPDEST PUSH2 0x8D0 JUMP JUMPDEST SWAP4 SWAP3 POP POP POP JUMP JUMPDEST PUSH1 0x0 PUSH2 0x86B DUP3 PUSH1 0x20 ADD MLOAD DUP5 PUSH1 0x20 ADD MLOAD PUSH2 0x75F SWAP1 SWAP2 SWAP1 PUSH4 0xFFFFFFFF AND JUMP JUMPDEST DUP3 MLOAD DUP5 MLOAD PUSH2 0x878 SWAP2 PUSH2 0x75F JUMP JUMPDEST PUSH2 0x847 SWAP2 SWAP1 PUSH2 0x19E2 JUMP JUMPDEST PUSH1 0x0 DUP1 PUSH2 0x8B3 DUP5 PUSH1 0x40 MLOAD DUP1 PUSH1 0x40 ADD PUSH1 0x40 MSTORE DUP1 PUSH8 0xDE0B6B3A7640000 PUSH2 0x8A6 SWAP1 PUSH2 0x1A23 JUMP JUMPDEST DUP2 MSTORE PUSH1 0x20 ADD DUP7 SWAP1 MSTORE PUSH2 0x92A JUMP JUMPDEST DUP1 MLOAD PUSH1 0x20 DUP3 ADD MLOAD SWAP2 SWAP3 POP PUSH2 0x8C7 SWAP2 SWAP1 PUSH2 0x609 JUMP JUMPDEST PUSH2 0x1E7 SWAP1 PUSH2 0x1A23 JUMP JUMPDEST PUSH1 0x40 DUP1 MLOAD DUP1 DUP3 ADD SWAP1 SWAP2 MSTORE PUSH1 0x0 DUP1 DUP3 MSTORE PUSH1 0x20 DUP3 ADD MSTORE PUSH1 0x0 PUSH2 0x91E PUSH2 0x919 PUSH2 0x8F9 PUSH2 0x40B DUP7 DUP1 PUSH2 0x75F JUMP JUMPDEST PUSH2 0x90B SWAP1 PUSH8 0xDE0B6B3A7640000 PUSH2 0x1A40 JUMP JUMPDEST PUSH8 0x6F05B59D3B20000 PUSH2 0x9B1 JUMP JUMPDEST PUSH2 0x59B JUMP JUMPDEST SWAP1 POP PUSH2 0x847 DUP4 DUP3 PUSH2 0xA01 JUMP JUMPDEST PUSH1 0x40 DUP1 MLOAD DUP1 DUP3 ADD SWAP1 SWAP2 MSTORE PUSH1 0x0 DUP1 DUP3 MSTORE PUSH1 0x20 DUP3 ADD MSTORE PUSH2 0x967 DUP4 PUSH1 0x80 ADD MLOAD PUSH2 0x961 DUP5 PUSH1 0x20 ADD MLOAD DUP7 PUSH1 0x60 ADD MLOAD PUSH2 0x75F SWAP1 SWAP2 SWAP1 PUSH4 0xFFFFFFFF AND JUMP JUMPDEST SWAP1 PUSH2 0x609 JUMP JUMPDEST PUSH1 0x80 DUP5 ADD MLOAD DUP4 MLOAD PUSH1 0x40 DUP7 ADD MLOAD PUSH2 0x982 SWAP3 SWAP2 PUSH2 0x961 SWAP2 SWAP1 PUSH2 0x75F JUMP JUMPDEST PUSH2 0x98C SWAP2 SWAP1 PUSH2 0x1852 JUMP JUMPDEST DUP2 MSTORE PUSH1 0x20 DUP3 ADD MLOAD PUSH1 0x40 DUP5 ADD MLOAD PUSH2 0x9A1 SWAP2 PUSH2 0x75F JUMP JUMPDEST DUP3 MLOAD PUSH1 0x60 DUP6 ADD MLOAD PUSH2 0x74A SWAP2 PUSH2 0x75F JUMP JUMPDEST PUSH1 0x0 DUP1 PUSH2 0x9BE DUP5 DUP5 PUSH2 0xA33 JUMP JUMPDEST SWAP1 POP PUSH1 0x0 PUSH2 0x9CE DUP3 PUSH2 0x2710 PUSH2 0xBBF JUMP JUMPDEST PUSH2 0x9D9 SWAP1 PUSH1 0x1 PUSH2 0x1A40 JUMP JUMPDEST SWAP1 POP DUP1 DUP3 LT ISZERO PUSH2 0x9EE JUMPI PUSH1 0x0 SWAP3 POP POP POP PUSH2 0x166 JUMP JUMPDEST PUSH2 0x9F8 DUP2 DUP4 PUSH2 0x1A58 JUMP JUMPDEST SWAP3 POP POP POP PUSH2 0x166 JUMP JUMPDEST PUSH1 0x40 DUP1 MLOAD DUP1 DUP3 ADD SWAP1 SWAP2 MSTORE PUSH1 0x0 DUP1 DUP3 MSTORE PUSH1 0x20 DUP3 ADD MSTORE PUSH2 0xA1F DUP4 DUP4 PUSH2 0x609 JUMP JUMPDEST DUP2 MSTORE PUSH2 0x754 PUSH8 0xDE0B6B3A7640000 DUP4 PUSH2 0x609 JUMP JUMPDEST PUSH1 0x0 DUP2 PUSH2 0xA49 JUMPI POP PUSH8 0xDE0B6B3A7640000 PUSH2 0x166 JUMP JUMPDEST DUP3 PUSH2 0xA56 JUMPI POP PUSH1 0x0 PUSH2 0x166 JUMP JUMPDEST PUSH1 0x40 DUP1 MLOAD DUP1 DUP3 ADD SWAP1 SWAP2 MSTORE PUSH1 0x2 DUP2 MSTORE PUSH2 0x323 PUSH1 0xF4 SHL PUSH1 0x20 DUP3 ADD MSTORE PUSH1 0x1 PUSH1 0xFF SHL DUP5 LT PUSH2 0xA93 JUMPI PUSH1 0x40 MLOAD PUSH3 0x461BCD PUSH1 0xE5 SHL DUP2 MSTORE PUSH1 0x4 ADD PUSH2 0x55C SWAP2 SWAP1 PUSH2 0x18DA JUMP JUMPDEST POP PUSH1 0x40 DUP1 MLOAD DUP1 DUP3 ADD SWAP1 SWAP2 MSTORE PUSH1 0x2 DUP2 MSTORE PUSH2 0x3231 PUSH1 0xF0 SHL PUSH1 0x20 DUP3 ADD MSTORE DUP4 SWAP1 PUSH24 0xBCE5086492111AEA88F4BB1CA6BCF584181EA8059F76532 DUP5 LT PUSH2 0xAE7 JUMPI PUSH1 0x40 MLOAD PUSH3 0x461BCD PUSH1 0xE5 SHL DUP2 MSTORE PUSH1 0x4 ADD PUSH2 0x55C SWAP2 SWAP1 PUSH2 0x18DA JUMP JUMPDEST POP DUP3 PUSH1 0x0 PUSH8 0xC7D713B49DA0000 DUP4 SGT DUP1 ISZERO PUSH2 0xB09 JUMPI POP PUSH8 0xF43FC2C04EE0000 DUP4 SLT JUMPDEST ISZERO PUSH2 0xB40 JUMPI PUSH1 0x0 PUSH2 0xB19 DUP5 PUSH2 0xC06 JUMP JUMPDEST SWAP1 POP PUSH8 0xDE0B6B3A7640000 DUP1 DUP3 SMOD DUP5 MUL SDIV DUP4 PUSH8 0xDE0B6B3A7640000 DUP4 SDIV MUL ADD SWAP2 POP POP PUSH2 0xB4E JUMP JUMPDEST DUP2 PUSH2 0xB4A DUP5 PUSH2 0xD25 JUMP JUMPDEST MUL SWAP1 POP JUMPDEST PUSH8 0xDE0B6B3A7640000 SWAP1 SDIV PUSH9 0x238FD42C5CF03FFFF NOT DUP2 SLT DUP1 ISZERO SWAP1 PUSH2 0xB7C JUMPI POP PUSH9 0x70C1CC73B00C80000 DUP2 SGT ISZERO JUMPDEST PUSH1 0x40 MLOAD DUP1 PUSH1 0x40 ADD PUSH1 0x40 MSTORE DUP1 PUSH1 0x2 DUP2 MSTORE PUSH1 0x20 ADD PUSH2 0x1919 PUSH1 0xF1 SHL DUP2 MSTORE POP SWAP1 PUSH2 0xBB5 JUMPI PUSH1 0x40 MLOAD PUSH3 0x461BCD PUSH1 0xE5 SHL DUP2 MSTORE PUSH1 0x4 ADD PUSH2 0x55C SWAP2 SWAP1 PUSH2 0x18DA JUMP JUMPDEST POP PUSH2 0x160 DUP2 PUSH2 0x10CF JUMP JUMPDEST PUSH1 0x0 DUP1 PUSH2 0xBCC DUP4 DUP6 PUSH2 0x1891 JUMP JUMPDEST SWAP1 POP DUP1 PUSH2 0xBDD JUMPI PUSH1 0x0 SWAP2 POP POP PUSH2 0x166 JUMP JUMPDEST PUSH8 0xDE0B6B3A7640000 PUSH2 0xBF1 PUSH1 0x1 DUP4 PUSH2 0x1A58 JUMP JUMPDEST PUSH2 0xBFB SWAP2 SWAP1 PUSH2 0x18C6 JUMP JUMPDEST PUSH2 0x593 SWAP1 PUSH1 0x1 PUSH2 0x1A40 JUMP JUMPDEST PUSH8 0xDE0B6B3A7640000 MUL PUSH1 0x0 DUP1 PUSH11 0xC097CE7BC90715B34B9F1 PUSH1 0x24 SHL DUP1 DUP5 ADD SWAP1 PUSH15 0xC097CE7BC90715B34B9F0FFFFFFFFF NOT DUP6 ADD MUL DUP2 PUSH2 0xC47 JUMPI PUSH2 0xC47 PUSH2 0x18B0 JUMP JUMPDEST SDIV SWAP1 POP PUSH1 0x0 PUSH11 0xC097CE7BC90715B34B9F1 PUSH1 0x24 SHL DUP3 DUP1 MUL SDIV SWAP1 POP DUP2 DUP1 PUSH11 0xC097CE7BC90715B34B9F1 PUSH1 0x24 SHL DUP2 DUP5 MUL SDIV SWAP2 POP PUSH1 0x3 DUP3 SDIV ADD PUSH11 0xC097CE7BC90715B34B9F1 PUSH1 0x24 SHL DUP3 DUP5 MUL SDIV SWAP2 POP PUSH1 0x5 DUP3 SDIV ADD PUSH11 0xC097CE7BC90715B34B9F1 PUSH1 0x24 SHL DUP3 DUP5 MUL SDIV SWAP2 POP PUSH1 0x7 DUP3 SDIV ADD PUSH11 0xC097CE7BC90715B34B9F1 PUSH1 0x24 SHL DUP3 DUP5 MUL SDIV SWAP2 POP PUSH1 0x9 DUP3 SDIV ADD PUSH11 0xC097CE7BC90715B34B9F1 PUSH1 0x24 SHL DUP3 DUP5 MUL SDIV SWAP2 POP PUSH1 0xB DUP3 SDIV ADD PUSH11 0xC097CE7BC90715B34B9F1 PUSH1 0x24 SHL DUP3 DUP5 MUL SDIV SWAP2 POP PUSH1 0xD DUP3 SDIV ADD PUSH11 0xC097CE7BC90715B34B9F1 PUSH1 0x24 SHL DUP3 DUP5 MUL SDIV SWAP2 POP PUSH1 0xF DUP3 SDIV ADD PUSH1 0x2 MUL SWAP6 SWAP5 POP POP POP POP POP JUMP JUMPDEST PUSH1 0x0 PUSH8 0xDE0B6B3A7640000 DUP3 SLT ISZERO PUSH2 0xD66 JUMPI PUSH2 0xD5D DUP3 PUSH11 0xC097CE7BC90715B34B9F1 PUSH1 0x24 SHL DUP2 PUSH2 0xD57 JUMPI PUSH2 0xD57 PUSH2 0x18B0 JUMP JUMPDEST SDIV PUSH2 0xD25 JUMP JUMPDEST PUSH1 0x0 SUB SWAP3 SWAP2 POP POP JUMP JUMPDEST PUSH1 0x0 PUSH31 0x1600EF3172E58D2E933EC884FDE10064C63B5372D805E203C0000000000000 DUP4 SLT PUSH2 0xDB7 JUMPI PUSH24 0x195E54C5DD42177F53A27172FA9EC630262827000000000 DUP4 SDIV SWAP3 POP PUSH9 0x6F05B59D3B2000000 ADD JUMPDEST PUSH20 0x11798004D755D3C8BC8E03204CF44619E000000 DUP4 SLT PUSH2 0xDEF JUMPI PUSH12 0x1425982CF597CD205CEF7380 DUP4 SDIV SWAP3 POP PUSH9 0x3782DACE9D9000000 ADD JUMPDEST PUSH1 0x64 SWAP3 DUP4 MUL SWAP3 MUL PUSH15 0x1855144814A7FF805980FF0084000 DUP4 SLT PUSH2 0xE37 JUMPI PUSH15 0x1855144814A7FF805980FF0084000 PUSH9 0x56BC75E2D63100000 DUP5 MUL SDIV SWAP3 POP PUSH9 0xAD78EBC5AC62000000 ADD JUMPDEST PUSH12 0x2DF0AB5A80A22C61AB5A700 DUP4 SLT PUSH2 0xE72 JUMPI PUSH12 0x2DF0AB5A80A22C61AB5A700 PUSH9 0x56BC75E2D63100000 DUP5 MUL SDIV SWAP3 POP PUSH9 0x56BC75E2D631000000 ADD JUMPDEST PUSH10 0x3F1FCE3DA636EA5CF850 DUP4 SLT PUSH2 0xEA9 JUMPI PUSH10 0x3F1FCE3DA636EA5CF850 PUSH9 0x56BC75E2D63100000 DUP5 MUL SDIV SWAP3 POP PUSH9 0x2B5E3AF16B18800000 ADD JUMPDEST PUSH10 0x127FA27722CC06CC5E2 DUP4 SLT PUSH2 0xEE0 JUMPI PUSH10 0x127FA27722CC06CC5E2 PUSH9 0x56BC75E2D63100000 DUP5 MUL SDIV SWAP3 POP PUSH9 0x15AF1D78B58C400000 ADD JUMPDEST PUSH9 0x280E60114EDB805D03 DUP4 SLT PUSH2 0xF15 JUMPI PUSH9 0x280E60114EDB805D03 PUSH9 0x56BC75E2D63100000 DUP5 MUL SDIV SWAP3 POP PUSH9 0xAD78EBC5AC6200000 ADD JUMPDEST PUSH9 0xEBC5FB41746121110 DUP4 SLT PUSH2 0xF40 JUMPI PUSH9 0xEBC5FB41746121110 PUSH9 0x56BC75E2D63100000 SWAP4 DUP5 MUL SDIV SWAP3 ADD JUMPDEST PUSH9 0x8F00F760A4B2DB55D DUP4 SLT PUSH2 0xF75 JUMPI PUSH9 0x8F00F760A4B2DB55D PUSH9 0x56BC75E2D63100000 DUP5 MUL SDIV SWAP3 POP PUSH9 0x2B5E3AF16B1880000 ADD JUMPDEST PUSH9 0x6F5F1775788937937 DUP4 SLT PUSH2 0xFAA JUMPI PUSH9 0x6F5F1775788937937 PUSH9 0x56BC75E2D63100000 DUP5 MUL SDIV SWAP3 POP PUSH9 0x15AF1D78B58C40000 ADD JUMPDEST PUSH9 0x6248F33704B286603 DUP4 SLT PUSH2 0xFDE JUMPI PUSH9 0x6248F33704B286603 PUSH9 0x56BC75E2D63100000 DUP5 MUL SDIV SWAP3 POP PUSH8 0xAD78EBC5AC620000 ADD JUMPDEST PUSH9 0x5C548670B9510E7AC DUP4 SLT PUSH2 0x1012 JUMPI PUSH9 0x5C548670B9510E7AC PUSH9 0x56BC75E2D63100000 DUP5 MUL SDIV SWAP3 POP PUSH8 0x56BC75E2D6310000 ADD JUMPDEST PUSH1 0x0 PUSH9 0x56BC75E2D63100000 DUP5 ADD PUSH9 0x56BC75E2D63100000 DUP1 DUP7 SUB MUL DUP2 PUSH2 0x103B JUMPI PUSH2 0x103B PUSH2 0x18B0 JUMP JUMPDEST SDIV SWAP1 POP PUSH1 0x0 PUSH9 0x56BC75E2D63100000 DUP3 DUP1 MUL SDIV SWAP1 POP DUP2 DUP1 PUSH9 0x56BC75E2D63100000 DUP2 DUP5 MUL SDIV SWAP2 POP PUSH1 0x3 DUP3 SDIV ADD PUSH9 0x56BC75E2D63100000 DUP3 DUP5 MUL SDIV SWAP2 POP PUSH1 0x5 DUP3 SDIV ADD PUSH9 0x56BC75E2D63100000 DUP3 DUP5 MUL SDIV SWAP2 POP PUSH1 0x7 DUP3 SDIV ADD PUSH9 0x56BC75E2D63100000 DUP3 DUP5 MUL SDIV SWAP2 POP PUSH1 0x9 DUP3 SDIV ADD PUSH9 0x56BC75E2D63100000 DUP3 DUP5 MUL SDIV SWAP2 POP PUSH1 0xB DUP3 SDIV ADD PUSH1 0x2 MUL PUSH1 0x64 DUP6 DUP3 ADD SDIV SWAP8 SWAP7 POP POP POP POP POP POP POP JUMP JUMPDEST PUSH1 0x0 PUSH9 0x238FD42C5CF03FFFF NOT DUP3 SLT ISZERO DUP1 ISZERO PUSH2 0x10F4 JUMPI POP PUSH9 0x70C1CC73B00C80000 DUP3 SGT ISZERO JUMPDEST PUSH1 0x40 MLOAD DUP1 PUSH1 0x40 ADD PUSH1 0x40 MSTORE DUP1 PUSH1 0x2 DUP2 MSTORE PUSH1 0x20 ADD PUSH2 0x3233 PUSH1 0xF0 SHL DUP2 MSTORE POP SWAP1 PUSH2 0x112D JUMPI PUSH1 0x40 MLOAD PUSH3 0x461BCD PUSH1 0xE5 SHL DUP2 MSTORE PUSH1 0x4 ADD PUSH2 0x55C SWAP2 SWAP1 PUSH2 0x18DA JUMP JUMPDEST POP PUSH1 0x0 DUP3 SLT ISZERO PUSH2 0x1166 JUMPI PUSH2 0x1143 DUP3 PUSH1 0x0 SUB PUSH2 0x10CF JUMP JUMPDEST PUSH11 0xC097CE7BC90715B34B9F1 PUSH1 0x24 SHL DUP2 PUSH2 0x115F JUMPI PUSH2 0x115F PUSH2 0x18B0 JUMP JUMPDEST SDIV SWAP3 SWAP2 POP POP JUMP JUMPDEST PUSH1 0x0 PUSH9 0x6F05B59D3B2000000 DUP4 SLT PUSH2 0x11A6 JUMPI POP PUSH9 0x6F05B59D3B1FFFFFF NOT SWAP1 SWAP2 ADD SWAP1 PUSH24 0x195E54C5DD42177F53A27172FA9EC630262827000000000 PUSH2 0x11DC JUMP JUMPDEST PUSH9 0x3782DACE9D9000000 DUP4 SLT PUSH2 0x11D8 JUMPI POP PUSH9 0x3782DACE9D8FFFFFF NOT SWAP1 SWAP2 ADD SWAP1 PUSH12 0x1425982CF597CD205CEF7380 PUSH2 0x11DC JUMP JUMPDEST POP PUSH1 0x1 JUMPDEST PUSH1 0x64 SWAP3 SWAP1 SWAP3 MUL SWAP2 PUSH9 0x56BC75E2D63100000 PUSH9 0xAD78EBC5AC62000000 DUP5 SLT PUSH2 0x122C JUMPI PUSH9 0xAD78EBC5AC61FFFFFF NOT SWAP1 SWAP4 ADD SWAP3 PUSH9 0x56BC75E2D63100000 PUSH15 0x1855144814A7FF805980FF0084000 DUP3 MUL SDIV SWAP1 POP JUMPDEST PUSH9 0x56BC75E2D631000000 DUP5 SLT PUSH2 0x1268 JUMPI PUSH9 0x56BC75E2D630FFFFFF NOT SWAP1 SWAP4 ADD SWAP3 PUSH9 0x56BC75E2D63100000 PUSH12 0x2DF0AB5A80A22C61AB5A700 DUP3 MUL SDIV SWAP1 POP JUMPDEST PUSH9 0x2B5E3AF16B18800000 DUP5 SLT PUSH2 0x12A2 JUMPI PUSH9 0x2B5E3AF16B187FFFFF NOT SWAP1 SWAP4 ADD SWAP3 PUSH9 0x56BC75E2D63100000 PUSH10 0x3F1FCE3DA636EA5CF850 DUP3 MUL SDIV SWAP1 POP JUMPDEST PUSH9 0x15AF1D78B58C400000 DUP5 SLT PUSH2 0x12DC JUMPI PUSH9 0x15AF1D78B58C3FFFFF NOT SWAP1 SWAP4 ADD SWAP3 PUSH9 0x56BC75E2D63100000 PUSH10 0x127FA27722CC06CC5E2 DUP3 MUL SDIV SWAP1 POP JUMPDEST PUSH9 0xAD78EBC5AC6200000 DUP5 SLT PUSH2 0x1315 JUMPI PUSH9 0xAD78EBC5AC61FFFFF NOT SWAP1 SWAP4 ADD SWAP3 PUSH9 0x56BC75E2D63100000 PUSH9 0x280E60114EDB805D03 DUP3 MUL SDIV SWAP1 POP JUMPDEST PUSH9 0x56BC75E2D63100000 DUP5 SLT PUSH2 0x134E JUMPI PUSH9 0x56BC75E2D630FFFFF NOT SWAP1 SWAP4 ADD SWAP3 PUSH9 0x56BC75E2D63100000 PUSH9 0xEBC5FB41746121110 DUP3 MUL SDIV SWAP1 POP JUMPDEST PUSH9 0x2B5E3AF16B1880000 DUP5 SLT PUSH2 0x1387 JUMPI PUSH9 0x2B5E3AF16B187FFFF NOT SWAP1 SWAP4 ADD SWAP3 PUSH9 0x56BC75E2D63100000 PUSH9 0x8F00F760A4B2DB55D DUP3 MUL SDIV SWAP1 POP JUMPDEST PUSH9 0x15AF1D78B58C40000 DUP5 SLT PUSH2 0x13C0 JUMPI PUSH9 0x15AF1D78B58C3FFFF NOT SWAP1 SWAP4 ADD SWAP3 PUSH9 0x56BC75E2D63100000 PUSH9 0x6F5F1775788937937 DUP3 MUL SDIV SWAP1 POP JUMPDEST PUSH9 0x56BC75E2D63100000 DUP5 DUP2 ADD SWAP1 DUP6 SWAP1 PUSH1 0x2 SWAP1 DUP3 DUP1 MUL SDIV SDIV SWAP2 DUP3 ADD SWAP2 SWAP1 POP PUSH1 0x3 PUSH9 0x56BC75E2D63100000 DUP8 DUP4 MUL SDIV SDIV SWAP2 DUP3 ADD SWAP2 SWAP1 POP PUSH1 0x4 PUSH9 0x56BC75E2D63100000 DUP8 DUP4 MUL SDIV SDIV SWAP2 DUP3 ADD SWAP2 SWAP1 POP PUSH1 0x5 PUSH9 0x56BC75E2D63100000 DUP8 DUP4 MUL SDIV SDIV SWAP2 DUP3 ADD SWAP2 SWAP1 POP PUSH1 0x6 PUSH9 0x56BC75E2D63100000 DUP8 DUP4 MUL SDIV SDIV SWAP2 DUP3 ADD SWAP2 SWAP1 POP PUSH1 0x7 PUSH9 0x56BC75E2D63100000 DUP8 DUP4 MUL SDIV SDIV SWAP2 DUP3 ADD SWAP2 SWAP1 POP PUSH1 0x8 PUSH9 0x56BC75E2D63100000 DUP8 DUP4 MUL SDIV SDIV SWAP2 DUP3 ADD SWAP2 SWAP1 POP PUSH1 0x9 PUSH9 0x56BC75E2D63100000 DUP8 DUP4 MUL SDIV SDIV SWAP2 DUP3 ADD SWAP2 SWAP1 POP PUSH1 0xA PUSH9 0x56BC75E2D63100000 DUP8 DUP4 MUL SDIV SDIV SWAP2 DUP3 ADD SWAP2 SWAP1 POP PUSH1 0xB PUSH9 0x56BC75E2D63100000 DUP8 DUP4 MUL SDIV SDIV SWAP2 DUP3 ADD SWAP2 SWAP1 POP PUSH1 0xC PUSH9 0x56BC75E2D63100000 DUP8 DUP4 MUL SDIV SDIV SWAP2 DUP3 ADD SWAP2 SWAP1 POP PUSH1 0x64 PUSH9 0x56BC75E2D63100000 DUP5 DUP5 MUL SDIV DUP6 MUL SDIV SWAP7 SWAP6 POP POP POP POP POP POP JUMP JUMPDEST PUSH1 0x1 PUSH1 0x1 PUSH1 0xA0 SHL SUB DUP2 AND DUP2 EQ PUSH2 0x14F6 JUMPI PUSH1 0x0 DUP1 REVERT JUMPDEST POP JUMP JUMPDEST PUSH4 0x4E487B71 PUSH1 0xE0 SHL PUSH1 0x0 MSTORE PUSH1 0x41 PUSH1 0x4 MSTORE PUSH1 0x24 PUSH1 0x0 REVERT JUMPDEST PUSH1 0x40 MLOAD PUSH1 0x60 DUP2 ADD PUSH8 0xFFFFFFFFFFFFFFFF DUP2 GT DUP3 DUP3 LT OR ISZERO PUSH2 0x1532 JUMPI PUSH2 0x1532 PUSH2 0x14F9 JUMP JUMPDEST PUSH1 0x40 MSTORE SWAP1 JUMP JUMPDEST PUSH1 0x40 MLOAD PUSH1 0xA0 DUP2 ADD PUSH8 0xFFFFFFFFFFFFFFFF DUP2 GT DUP3 DUP3 LT OR ISZERO PUSH2 0x1532 JUMPI PUSH2 0x1532 PUSH2 0x14F9 JUMP JUMPDEST PUSH1 0x40 MLOAD PUSH1 0xE0 DUP2 ADD PUSH8 0xFFFFFFFFFFFFFFFF DUP2 GT DUP3 DUP3 LT OR ISZERO PUSH2 0x1532 JUMPI PUSH2 0x1532 PUSH2 0x14F9 JUMP JUMPDEST PUSH1 0x40 MLOAD PUSH1 0x1F DUP3 ADD PUSH1 0x1F NOT AND DUP2 ADD PUSH8 0xFFFFFFFFFFFFFFFF DUP2 GT DUP3 DUP3 LT OR ISZERO PUSH2 0x15A7 JUMPI PUSH2 0x15A7 PUSH2 0x14F9 JUMP JUMPDEST PUSH1 0x40 MSTORE SWAP2 SWAP1 POP JUMP JUMPDEST PUSH1 0x0 DUP1 PUSH1 0x40 DUP1 DUP5 DUP7 SUB SLT ISZERO PUSH2 0x15C3 JUMPI PUSH1 0x0 DUP1 REVERT JUMPDEST DUP4 CALLDATALOAD PUSH2 0x15CE DUP2 PUSH2 0x14E1 JUMP JUMPDEST SWAP3 POP PUSH1 0x20 DUP5 DUP2 ADD CALLDATALOAD PUSH8 0xFFFFFFFFFFFFFFFF DUP1 DUP3 GT ISZERO PUSH2 0x15EC JUMPI PUSH1 0x0 DUP1 REVERT JUMPDEST DUP2 DUP8 ADD SWAP2 POP DUP8 PUSH1 0x1F DUP4 ADD SLT PUSH2 0x1600 JUMPI PUSH1 0x0 DUP1 REVERT JUMPDEST DUP2 CALLDATALOAD DUP2 DUP2 GT ISZERO PUSH2 0x1612 JUMPI PUSH2 0x1612 PUSH2 0x14F9 JUMP JUMPDEST PUSH2 0x1620 DUP5 DUP3 PUSH1 0x5 SHL ADD PUSH2 0x157E JUMP JUMPDEST DUP2 DUP2 MSTORE DUP5 DUP2 ADD SWAP3 POP PUSH1 0x60 SWAP2 DUP3 MUL DUP5 ADD DUP6 ADD SWAP2 DUP11 DUP4 GT ISZERO PUSH2 0x163F JUMPI PUSH1 0x0 DUP1 REVERT JUMPDEST SWAP4 DUP6 ADD SWAP4 JUMPDEST DUP3 DUP6 LT ISZERO PUSH2 0x169F JUMPI DUP1 DUP6 DUP13 SUB SLT ISZERO PUSH2 0x165C JUMPI PUSH1 0x0 DUP1 DUP2 REVERT JUMPDEST PUSH2 0x1664 PUSH2 0x150F JUMP JUMPDEST DUP6 CALLDATALOAD PUSH2 0x166F DUP2 PUSH2 0x14E1 JUMP JUMPDEST DUP2 MSTORE DUP6 DUP8 ADD CALLDATALOAD DUP1 ISZERO ISZERO DUP2 EQ PUSH2 0x1684 JUMPI PUSH1 0x0 DUP1 DUP2 REVERT JUMPDEST DUP2 DUP9 ADD MSTORE DUP6 DUP9 ADD CALLDATALOAD DUP9 DUP3 ADD MSTORE DUP5 MSTORE SWAP4 DUP5 ADD SWAP4 SWAP3 DUP6 ADD SWAP3 PUSH2 0x1644 JUMP JUMPDEST POP DUP1 SWAP7 POP POP POP POP POP POP POP SWAP3 POP SWAP3 SWAP1 POP JUMP JUMPDEST PUSH1 0x0 PUSH1 0x20 DUP3 DUP5 SUB SLT ISZERO PUSH2 0x16C2 JUMPI PUSH1 0x0 DUP1 REVERT JUMPDEST DUP2 MLOAD PUSH2 0x847 DUP2 PUSH2 0x14E1 JUMP JUMPDEST PUSH1 0x0 PUSH1 0x40 DUP3 DUP5 SUB SLT ISZERO PUSH2 0x16DF JUMPI PUSH1 0x0 DUP1 REVERT JUMPDEST PUSH1 0x40 MLOAD PUSH1 0x40 DUP2 ADD DUP2 DUP2 LT PUSH8 0xFFFFFFFFFFFFFFFF DUP3 GT OR ISZERO PUSH2 0x1702 JUMPI PUSH2 0x1702 PUSH2 0x14F9 JUMP JUMPDEST PUSH1 0x40 MSTORE DUP3 MLOAD DUP2 MSTORE PUSH1 0x20 SWAP3 DUP4 ADD MLOAD SWAP3 DUP2 ADD SWAP3 SWAP1 SWAP3 MSTORE POP SWAP2 SWAP1 POP JUMP JUMPDEST PUSH1 0x0 DUP1 DUP3 DUP5 SUB PUSH2 0x1C0 DUP2 SLT ISZERO PUSH2 0x1731 JUMPI PUSH1 0x0 DUP1 REVERT JUMPDEST PUSH1 0xA0 DUP2 SLT ISZERO PUSH2 0x173F JUMPI PUSH1 0x0 DUP1 REVERT JUMPDEST PUSH2 0x1747 PUSH2 0x1538 JUMP JUMPDEST DUP5 MLOAD DUP2 MSTORE PUSH1 0x20 DUP6 ADD MLOAD PUSH1 0x20 DUP3 ADD MSTORE PUSH1 0x40 DUP6 ADD MLOAD PUSH1 0x40 DUP3 ADD MSTORE PUSH1 0x60 DUP6 ADD MLOAD PUSH1 0x60 DUP3 ADD MSTORE PUSH1 0x80 DUP6 ADD MLOAD PUSH1 0x80 DUP3 ADD MSTORE DUP1 SWAP4 POP POP PUSH2 0x120 DUP1 PUSH1 0x9F NOT DUP4 ADD SLT ISZERO PUSH2 0x178B JUMPI PUSH1 0x0 DUP1 REVERT JUMPDEST PUSH2 0x1793 PUSH2 0x155B JUMP JUMPDEST SWAP2 POP PUSH2 0x17A2 DUP7 PUSH1 0xA0 DUP8 ADD PUSH2 0x16CD JUMP JUMPDEST DUP3 MSTORE PUSH2 0x17B1 DUP7 PUSH1 0xE0 DUP8 ADD PUSH2 0x16CD JUMP JUMPDEST PUSH1 0x20 DUP4 ADD MSTORE DUP5 ADD MLOAD PUSH1 0x40 DUP3 ADD MSTORE PUSH2 0x140 DUP5 ADD MLOAD PUSH1 0x60 DUP3 ADD MSTORE PUSH2 0x160 DUP5 ADD MLOAD PUSH1 0x80 DUP3 ADD MSTORE PUSH2 0x180 DUP5 ADD MLOAD PUSH1 0xA0 DUP3 ADD MSTORE PUSH2 0x1A0 SWAP1 SWAP4 ADD MLOAD PUSH1 0xC0 DUP5 ADD MSTORE POP SWAP3 SWAP1 SWAP2 POP JUMP JUMPDEST PUSH1 0x0 PUSH1 0x20 DUP3 DUP5 SUB SLT ISZERO PUSH2 0x1804 JUMPI PUSH1 0x0 DUP1 REVERT JUMPDEST POP MLOAD SWAP2 SWAP1 POP JUMP JUMPDEST PUSH4 0x4E487B71 PUSH1 0xE0 SHL PUSH1 0x0 MSTORE PUSH1 0x32 PUSH1 0x4 MSTORE PUSH1 0x24 PUSH1 0x0 REVERT JUMPDEST PUSH4 0x4E487B71 PUSH1 0xE0 SHL PUSH1 0x0 MSTORE PUSH1 0x11 PUSH1 0x4 MSTORE PUSH1 0x24 PUSH1 0x0 REVERT JUMPDEST PUSH1 0x0 PUSH1 0x0 NOT DUP3 EQ ISZERO PUSH2 0x184B JUMPI PUSH2 0x184B PUSH2 0x1821 JUMP JUMPDEST POP PUSH1 0x1 ADD SWAP1 JUMP JUMPDEST PUSH1 0x0 DUP1 DUP4 SLT DUP1 ISZERO PUSH1 0x1 PUSH1 0xFF SHL DUP6 ADD DUP5 SLT AND ISZERO PUSH2 0x1870 JUMPI PUSH2 0x1870 PUSH2 0x1821 JUMP JUMPDEST PUSH1 0x1 PUSH1 0x1 PUSH1 0xFF SHL SUB DUP5 ADD DUP4 SGT DUP2 AND ISZERO PUSH2 0x188B JUMPI PUSH2 0x188B PUSH2 0x1821 JUMP JUMPDEST POP POP SUB SWAP1 JUMP JUMPDEST PUSH1 0x0 DUP2 PUSH1 0x0 NOT DIV DUP4 GT DUP3 ISZERO ISZERO AND ISZERO PUSH2 0x18AB JUMPI PUSH2 0x18AB PUSH2 0x1821 JUMP JUMPDEST POP MUL SWAP1 JUMP JUMPDEST PUSH4 0x4E487B71 PUSH1 0xE0 SHL PUSH1 0x0 MSTORE PUSH1 0x12 PUSH1 0x4 MSTORE PUSH1 0x24 PUSH1 0x0 REVERT JUMPDEST PUSH1 0x0 DUP3 PUSH2 0x18D5 JUMPI PUSH2 0x18D5 PUSH2 0x18B0 JUMP JUMPDEST POP DIV SWAP1 JUMP JUMPDEST PUSH1 0x0 PUSH1 0x20 DUP1 DUP4 MSTORE DUP4 MLOAD DUP1 DUP3 DUP6 ADD MSTORE PUSH1 0x0 JUMPDEST DUP2 DUP2 LT ISZERO PUSH2 0x1907 JUMPI DUP6 DUP2 ADD DUP4 ADD MLOAD DUP6 DUP3 ADD PUSH1 0x40 ADD MSTORE DUP3 ADD PUSH2 0x18EB JUMP JUMPDEST DUP2 DUP2 GT ISZERO PUSH2 0x1919 JUMPI PUSH1 0x0 PUSH1 0x40 DUP4 DUP8 ADD ADD MSTORE JUMPDEST POP PUSH1 0x1F ADD PUSH1 0x1F NOT AND SWAP3 SWAP1 SWAP3 ADD PUSH1 0x40 ADD SWAP4 SWAP3 POP POP POP JUMP JUMPDEST PUSH1 0x0 PUSH1 0x1 PUSH1 0x1 PUSH1 0xFF SHL SUB DUP2 DUP5 SGT DUP3 DUP5 SGT DUP1 DUP3 AND DUP7 DUP5 DIV DUP7 GT AND ISZERO PUSH2 0x1955 JUMPI PUSH2 0x1955 PUSH2 0x1821 JUMP JUMPDEST PUSH1 0x1 PUSH1 0xFF SHL PUSH1 0x0 DUP8 SLT DUP3 DUP2 AND DUP8 DUP4 SDIV DUP10 SLT AND ISZERO PUSH2 0x1974 JUMPI PUSH2 0x1974 PUSH2 0x1821 JUMP JUMPDEST PUSH1 0x0 DUP8 SLT SWAP3 POP DUP8 DUP3 SDIV DUP8 SLT DUP5 DUP5 AND AND ISZERO PUSH2 0x1990 JUMPI PUSH2 0x1990 PUSH2 0x1821 JUMP JUMPDEST DUP8 DUP6 SDIV DUP8 SLT DUP2 DUP5 AND AND ISZERO PUSH2 0x19A6 JUMPI PUSH2 0x19A6 PUSH2 0x1821 JUMP JUMPDEST POP POP POP SWAP3 SWAP1 SWAP4 MUL SWAP4 SWAP3 POP POP POP JUMP JUMPDEST PUSH1 0x0 DUP3 PUSH2 0x19C3 JUMPI PUSH2 0x19C3 PUSH2 0x18B0 JUMP JUMPDEST PUSH1 0x1 PUSH1 0xFF SHL DUP3 EQ PUSH1 0x0 NOT DUP5 EQ AND ISZERO PUSH2 0x19DD JUMPI PUSH2 0x19DD PUSH2 0x1821 JUMP JUMPDEST POP SDIV SWAP1 JUMP JUMPDEST PUSH1 0x0 DUP1 DUP3 SLT DUP1 ISZERO PUSH1 0x1 PUSH1 0x1 PUSH1 0xFF SHL SUB DUP5 SWAP1 SUB DUP6 SGT AND ISZERO PUSH2 0x1A04 JUMPI PUSH2 0x1A04 PUSH2 0x1821 JUMP JUMPDEST PUSH1 0x1 PUSH1 0xFF SHL DUP4 SWAP1 SUB DUP5 SLT DUP2 AND ISZERO PUSH2 0x1A1D JUMPI PUSH2 0x1A1D PUSH2 0x1821 JUMP JUMPDEST POP POP ADD SWAP1 JUMP JUMPDEST PUSH1 0x0 PUSH1 0x1 PUSH1 0xFF SHL DUP3 EQ ISZERO PUSH2 0x1A39 JUMPI PUSH2 0x1A39 PUSH2 0x1821 JUMP JUMPDEST POP PUSH1 0x0 SUB SWAP1 JUMP JUMPDEST PUSH1 0x0 DUP3 NOT DUP3 GT ISZERO PUSH2 0x1A53 JUMPI PUSH2 0x1A53 PUSH2 0x1821 JUMP JUMPDEST POP ADD SWAP1 JUMP JUMPDEST PUSH1 0x0 DUP3 DUP3 LT ISZERO PUSH2 0x1A6A JUMPI PUSH2 0x1A6A PUSH2 0x1821 JUMP JUMPDEST POP SUB SWAP1 JUMP INVALID LOG2 PUSH5 0x6970667358 0x22 SLT KECCAK256 PUSH10 0xA89936F160E7D262443B 0xEA 0x22 0xB7 SGT MULMOD REVERT 0x22 0x1F 0x49 SAR SWAP5 SWAP11 0xE1 ADDRESS CALLDATACOPY 0xDC SWAP10 PUSH9 0xE8E51464736F6C6343 STOP ADDMOD EXP STOP CALLER ","sha1":"9ba1b179cda7856442852da9bc5f7d10e28af8b2","source":"// SPDX-License-Identifier: LicenseRef-Gyro-1.0\n// for information on licensing please see the README in the GitHub repository <https://github.com/gyrostable/core-protocol>.\npragma solidity ^0.8.4;\n\nimport \"./BalancerLPSharePricing.sol\";\nimport \"./BaseBalancerPriceOracle.sol\";\n\nimport \"../../../libraries/TypeConversion.sol\";\n\nimport \"../../../interfaces/balancer/IECLP.sol\";\n\ncontract BalancerECLPPriceOracle is BaseBalancerPriceOracle {\n    using TypeConversion for DataTypes.PricedToken[];\n    using FixedPoint for uint256;\n\n    /// @inheritdoc BaseVaultPriceOracle\n    function getPoolTokenPriceUSD(\n        IGyroVault vault,\n        DataTypes.PricedToken[] memory underlyingPricedTokens\n    ) public view override returns (uint256) {\n        IECLP pool = IECLP(vault.underlying());\n        (IECLP.Params memory params, IECLP.DerivedParams memory derivedParams) = pool\n            .getECLPParams();\n        return\n            BalancerLPSharePricing.priceBptECLP(\n                params,\n                derivedParams,\n                getInvariantDivSupply(pool),\n                underlyingPricedTokens.pluckPrices()\n            );\n    }\n}\n","sourcePath":"contracts/oracles/balancer/BalancerCEMMPriceOracle.sol","type":"contract","deployment":{"address":"0x0C90612E4e3bac4d09BB011141605f3712BC39A6","chainid":"137","blockHeight":36550454}}