{"abi":[{"anonymous":false,"inputs":[{"indexed":true,"internalType":"string","name":"assetName","type":"string"},{"indexed":true,"internalType":"address","name":"previousAddress","type":"address"},{"indexed":true,"internalType":"address","name":"newAddress","type":"address"}],"name":"AssetAddressUpdated","type":"event"},{"anonymous":false,"inputs":[{"indexed":false,"internalType":"address","name":"newGovernor","type":"address"}],"name":"GovernorChangeRequested","type":"event"},{"anonymous":false,"inputs":[{"indexed":false,"internalType":"address","name":"oldGovernor","type":"address"},{"indexed":false,"internalType":"address","name":"newGovernor","type":"address"}],"name":"GovernorChanged","type":"event"},{"anonymous":false,"inputs":[{"indexed":true,"internalType":"address","name":"asset","type":"address"}],"name":"StableAssetAdded","type":"event"},{"anonymous":false,"inputs":[{"indexed":true,"internalType":"address","name":"asset","type":"address"}],"name":"StableAssetRemoved","type":"event"},{"inputs":[],"name":"acceptGovernance","outputs":[],"stateMutability":"nonpayable","type":"function"},{"inputs":[{"internalType":"address","name":"asset","type":"address"}],"name":"addStableAsset","outputs":[],"stateMutability":"nonpayable","type":"function"},{"inputs":[{"internalType":"address","name":"newGovernor","type":"address"}],"name":"changeGovernor","outputs":[],"stateMutability":"nonpayable","type":"function"},{"inputs":[{"internalType":"string","name":"assetName","type":"string"}],"name":"getAssetAddress","outputs":[{"internalType":"address","name":"","type":"address"}],"stateMutability":"view","type":"function"},{"inputs":[],"name":"getRegisteredAssetAddresses","outputs":[{"internalType":"address[]","name":"","type":"address[]"}],"stateMutability":"view","type":"function"},{"inputs":[],"name":"getRegisteredAssetNames","outputs":[{"internalType":"bytes32[]","name":"","type":"bytes32[]"}],"stateMutability":"view","type":"function"},{"inputs":[],"name":"getStableAssets","outputs":[{"internalType":"address[]","name":"","type":"address[]"}],"stateMutability":"view","type":"function"},{"inputs":[],"name":"governor","outputs":[{"internalType":"address","name":"","type":"address"}],"stateMutability":"view","type":"function"},{"inputs":[{"internalType":"address","name":"_governor","type":"address"}],"name":"initialize","outputs":[],"stateMutability":"nonpayable","type":"function"},{"inputs":[{"internalType":"address","name":"assetAddress","type":"address"}],"name":"isAssetAddressRegistered","outputs":[{"internalType":"bool","name":"","type":"bool"}],"stateMutability":"view","type":"function"},{"inputs":[{"internalType":"string","name":"assetName","type":"string"}],"name":"isAssetNameRegistered","outputs":[{"internalType":"bool","name":"","type":"bool"}],"stateMutability":"view","type":"function"},{"inputs":[{"internalType":"address","name":"assetAddress","type":"address"}],"name":"isAssetStable","outputs":[{"internalType":"bool","name":"","type":"bool"}],"stateMutability":"view","type":"function"},{"inputs":[],"name":"pendingGovernor","outputs":[{"internalType":"address","name":"","type":"address"}],"stateMutability":"view","type":"function"},{"inputs":[{"internalType":"string","name":"assetName","type":"string"}],"name":"removeAsset","outputs":[],"stateMutability":"nonpayable","type":"function"},{"inputs":[{"internalType":"address","name":"asset","type":"address"}],"name":"removeStableAsset","outputs":[],"stateMutability":"nonpayable","type":"function"},{"inputs":[{"internalType":"string","name":"assetName","type":"string"},{"internalType":"address","name":"assetAddress","type":"address"}],"name":"setAssetAddress","outputs":[],"stateMutability":"nonpayable","type":"function"}],"bytecode":"608060405234801561001057600080fd5b50611173806100206000396000f3fe608060405234801561001057600080fd5b50600436106101005760003560e01c80638b46c4fd11610097578063e3056a3411610066578063e3056a3414610204578063e4c0aaf414610217578063f41092de1461022a578063f804c0c81461023d57600080fd5b80638b46c4fd146101b8578063a5c7b384146101cb578063c4d66de8146101de578063c6a052b6146101f157600080fd5b80634976c588116100d35780634976c588146101675780636df5d2d31461018a5780637307ae5514610192578063759af9ec146101a557600080fd5b80630c340a241461010557806310ec087814610135578063238efcbc1461014a57806336daa73114610152575b600080fd5b600054610118906001600160a01b031681565b6040516001600160a01b0390911681526020015b60405180910390f35b610148610143366004610dd3565b610252565b005b610148610329565b61015a6103d9565b60405161012c9190610dee565b61017a610175366004610dd3565b6103ea565b604051901515815260200161012c565b61015a6103fd565b6101186101a0366004610e3b565b610409565b6101486101b3366004610f50565b610476565b61017a6101c6366004610dd3565b61057d565b6101486101d9366004610f8d565b61058a565b6101486101ec366004610dd3565b610771565b6101486101ff366004610dd3565b610841565b600154610118906001600160a01b031681565b610148610225366004610dd3565b61090f565b61017a610238366004610e3b565b6109e4565b610245610a25565b60405161012c9190610fdb565b600054604080518082019091526002815261033360f41b6020820152906001600160a01b031633146102a05760405162461bcd60e51b81526004016102979190611043565b60405180910390fd5b506102ac600582610a31565b60405180604001604052806002815260200161034360f41b815250906102e55760405162461bcd60e51b81526004016102979190611043565b506102f1600782610a56565b506040516001600160a01b038216907f93266109223f3ffe4999eeedd7026e74a3ba153a9b782165be501bcfbdccd3a990600090a250565b600154604080518082019091526002815261033360f41b6020820152906001600160a01b0316331461036e5760405162461bcd60e51b81526004016102979190611043565b5060008054600180546001600160a01b03198084166001600160a01b03808416919091179095551690556040805192909116808352336020840152917fde4b3f61490b74c0ed6237523974fe299126bbbf8a8a7482fd220104c59b0c8491015b60405180910390a150565b60606103e56005610a6b565b905090565b60006103f7600783610a31565b92915050565b60606103e56007610a6b565b6000806002848460405161041e929190611076565b908152604080519182900360209081018320548383019092526002835261034360f41b908301526001600160a01b031691508161046e5760405162461bcd60e51b81526004016102979190611043565b509392505050565b600054604080518082019091526002815261033360f41b6020820152906001600160a01b031633146104bb5760405162461bcd60e51b81526004016102979190611043565b5060006002826040516104ce9190611086565b908152604080519182900360209081018320548383019092526002835261034360f41b908301526001600160a01b031691508161051e5760405162461bcd60e51b81526004016102979190611043565b5060028260405161052f9190611086565b90815260405190819003602001902080546001600160a01b0319169055610560610558836110a2565b600390610b12565b5061056c600582610b1e565b50610578600782610b1e565b505050565b60006103f7600583610a31565b600054604080518082019091526002815261033360f41b6020820152906001600160a01b031633146105cf5760405162461bcd60e51b81526004016102979190611043565b50602082511060405180604001604052806002815260200161333160f01b8152509061060e5760405162461bcd60e51b81526004016102979190611043565b50604080518082019091526002815261333160f01b60208201526001600160a01b03821661064f5760405162461bcd60e51b81526004016102979190611043565b5060006002836040516106629190611086565b908152604080519182900360209081018320548383019092526002835261333160f01b908301526001600160a01b03908116925083168214156106b85760405162461bcd60e51b81526004016102979190611043565b50816002846040516106ca9190611086565b90815260405190819003602001902080546001600160a01b03929092166001600160a01b031990921691909117905561070d610705846110a2565b600390610b33565b50610719600583610a56565b50816001600160a01b0316816001600160a01b03168460405161073c9190611086565b604051908190038120907fbae65703f0aeb3db2f7b7f07b34b9cf2f9dde13c561a9e3423915de548dd20e390600090a4505050565b600154600160a81b900460ff16806107935750600154600160a01b900460ff16155b6107f65760405162461bcd60e51b815260206004820152602e60248201527f496e697469616c697a61626c653a20636f6e747261637420697320616c72656160448201526d191e481a5b9a5d1a585b1a5e995960921b6064820152608401610297565b600154600160a81b900460ff16158015610820576001805461ffff60a01b191661010160a01b1790555b61082982610b3f565b801561083d576001805460ff60a81b191690555b5050565b600054604080518082019091526002815261033360f41b6020820152906001600160a01b031633146108865760405162461bcd60e51b81526004016102979190611043565b50610892600782610a31565b60405180604001604052806002815260200161034360f41b815250906108cb5760405162461bcd60e51b81526004016102979190611043565b506108d7600782610b1e565b506040516001600160a01b038216907f02d765d86e62553c49c4853f47990fbb8cf7713f511ac332855aaa6b02bebd3690600090a250565b600054604080518082019091526002815261033360f41b6020820152906001600160a01b031633146109545760405162461bcd60e51b81526004016102979190611043565b50604080518082019091526002815261333160f01b60208201526001600160a01b0382166109955760405162461bcd60e51b81526004016102979190611043565b50600180546001600160a01b0319166001600160a01b0383169081179091556040519081527f67235ba2e63c748a35b95c4f92a3bbc2a1389938170a5ce6c9add5d0b03a314a906020016103ce565b6000806001600160a01b031660028484604051610a02929190611076565b908152604051908190036020019020546001600160a01b03161415905092915050565b60606103e56003610b93565b6001600160a01b038116600090815260018301602052604081205415155b9392505050565b6000610a4f836001600160a01b038416610c2d565b60606000610a7883610c7c565b905060008167ffffffffffffffff811115610a9557610a95610ead565b604051908082528060200260200182016040528015610abe578160200160208202803683370190505b50905060005b8281101561046e57610ad68582610c86565b828281518110610ae857610ae86110c9565b6001600160a01b039092166020928302919091019091015280610b0a816110f5565b915050610ac4565b6000610a4f8383610c92565b6000610a4f836001600160a01b038416610c92565b6000610a4f8383610c2d565b600080546001600160a01b0319166001600160a01b03831690811782556040805192835260208301919091527fde4b3f61490b74c0ed6237523974fe299126bbbf8a8a7482fd220104c59b0c8491016103ce565b60606000610ba083610c7c565b905060008167ffffffffffffffff811115610bbd57610bbd610ead565b604051908082528060200260200182016040528015610be6578160200160208202803683370190505b50905060005b8281101561046e57610bfe8582610d85565b828281518110610c1057610c106110c9565b602090810291909101015280610c25816110f5565b915050610bec565b6000818152600183016020526040812054610c74575081546001818101845560008481526020808220909301849055845484825282860190935260409020919091556103f7565b5060006103f7565b60006103f7825490565b6000610a4f8383610d8d565b60008181526001830160205260408120548015610d7b576000610cb6600183611110565b8554909150600090610cca90600190611110565b9050818114610d2f576000866000018281548110610cea57610cea6110c9565b9060005260206000200154905080876000018481548110610d0d57610d0d6110c9565b6000918252602080832090910192909255918252600188019052604090208390555b8554869080610d4057610d40611127565b6001900381819060005260206000200160009055905585600101600086815260200190815260200160002060009055600193505050506103f7565b60009150506103f7565b6000610a4f83835b6000826000018281548110610da457610da46110c9565b9060005260206000200154905092915050565b80356001600160a01b0381168114610dce57600080fd5b919050565b600060208284031215610de557600080fd5b610a4f82610db7565b6020808252825182820181905260009190848201906040850190845b81811015610e2f5783516001600160a01b031683529284019291840191600101610e0a565b50909695505050505050565b60008060208385031215610e4e57600080fd5b823567ffffffffffffffff80821115610e6657600080fd5b818501915085601f830112610e7a57600080fd5b813581811115610e8957600080fd5b866020828501011115610e9b57600080fd5b60209290920196919550909350505050565b634e487b7160e01b600052604160045260246000fd5b600082601f830112610ed457600080fd5b813567ffffffffffffffff80821115610eef57610eef610ead565b604051601f8301601f19908116603f01168101908282118183101715610f1757610f17610ead565b81604052838152866020858801011115610f3057600080fd5b836020870160208301376000602085830101528094505050505092915050565b600060208284031215610f6257600080fd5b813567ffffffffffffffff811115610f7957600080fd5b610f8584828501610ec3565b949350505050565b60008060408385031215610fa057600080fd5b823567ffffffffffffffff811115610fb757600080fd5b610fc385828601610ec3565b925050610fd260208401610db7565b90509250929050565b6020808252825182820181905260009190848201906040850190845b81811015610e2f57835183529284019291840191600101610ff7565b60005b8381101561102e578181015183820152602001611016565b8381111561103d576000848401525b50505050565b6020815260008251806020840152611062816040850160208701611013565b601f01601f19169190910160400192915050565b8183823760009101908152919050565b60008251611098818460208701611013565b9190910192915050565b805160208083015191908110156110c3576000198160200360031b1b821691505b50919050565b634e487b7160e01b600052603260045260246000fd5b634e487b7160e01b600052601160045260246000fd5b6000600019821415611109576111096110df565b5060010190565b600082821015611122576111226110df565b500390565b634e487b7160e01b600052603160045260246000fdfea26469706673582212201b0ad9a2e767e50a852dd07fedeaffc04fdbac53f625bb86b7f287567024522e64736f6c634300080a0033","bytecodeSha1":"0a4d63ef898a42f0e316c572caf2fe32789668b6","compiler":{"evm_version":"london","optimizer":{"enabled":true,"runs":200},"version":"0.8.10+commit.fc410830"},"contractName":"AssetRegistry","language":"Solidity","natspec":{"kind":"dev","methods":{"acceptGovernance()":{"notice":"Called by the pending governor to approve the change"},"addStableAsset(address)":{"notice":"Adds a stable asset to the registry The asset must already be registered in the registry"},"changeGovernor(address)":{"notice":"Changes the governor can only be called by the current governor"},"getAssetAddress(string)":{"notice":"Returns the address associated with the given asset name e.g. \"DAI\" -> 0x6B175474E89094C44Da98b954EedeAC495271d0F"},"getRegisteredAssetAddresses()":{"notice":"Returns a list of addresses for the registered assets"},"getRegisteredAssetNames()":{"notice":"Returns a list of names for the registered assets The asset are encoded as bytes32 (big endian) rather than string"},"getStableAssets()":{"notice":"Returns a list of addresses contaning the stable assets"},"governor()":{"notice":"Returns the current governor"},"isAssetAddressRegistered(address)":{"returns":{"_0":"true if the asset address is registered"}},"isAssetNameRegistered(string)":{"returns":{"_0":"true if the asset name is registered"}},"isAssetStable(address)":{"returns":{"_0":"true if the asset name is stable"}},"pendingGovernor()":{"notice":"Returns the pending governor"},"removeAsset(string)":{"notice":"Removes `assetName` from the registry"},"removeStableAsset(address)":{"notice":"Removes a stable asset to the registry The asset must already be a stable asset"},"setAssetAddress(string,address)":{"notice":"Set the `assetName` to the given `assetAddress`"}},"version":1},"opcodes":"PUSH1 0x80 PUSH1 0x40 MSTORE CALLVALUE DUP1 ISZERO PUSH2 0x10 JUMPI PUSH1 0x0 DUP1 REVERT JUMPDEST POP PUSH1 0x4 CALLDATASIZE LT PUSH2 0x100 JUMPI PUSH1 0x0 CALLDATALOAD PUSH1 0xE0 SHR DUP1 PUSH4 0x8B46C4FD GT PUSH2 0x97 JUMPI DUP1 PUSH4 0xE3056A34 GT PUSH2 0x66 JUMPI DUP1 PUSH4 0xE3056A34 EQ PUSH2 0x204 JUMPI DUP1 PUSH4 0xE4C0AAF4 EQ PUSH2 0x217 JUMPI DUP1 PUSH4 0xF41092DE EQ PUSH2 0x22A JUMPI DUP1 PUSH4 0xF804C0C8 EQ PUSH2 0x23D JUMPI PUSH1 0x0 DUP1 REVERT JUMPDEST DUP1 PUSH4 0x8B46C4FD EQ PUSH2 0x1B8 JUMPI DUP1 PUSH4 0xA5C7B384 EQ PUSH2 0x1CB JUMPI DUP1 PUSH4 0xC4D66DE8 EQ PUSH2 0x1DE JUMPI DUP1 PUSH4 0xC6A052B6 EQ PUSH2 0x1F1 JUMPI PUSH1 0x0 DUP1 REVERT JUMPDEST DUP1 PUSH4 0x4976C588 GT PUSH2 0xD3 JUMPI DUP1 PUSH4 0x4976C588 EQ PUSH2 0x167 JUMPI DUP1 PUSH4 0x6DF5D2D3 EQ PUSH2 0x18A JUMPI DUP1 PUSH4 0x7307AE55 EQ PUSH2 0x192 JUMPI DUP1 PUSH4 0x759AF9EC EQ PUSH2 0x1A5 JUMPI PUSH1 0x0 DUP1 REVERT JUMPDEST DUP1 PUSH4 0xC340A24 EQ PUSH2 0x105 JUMPI DUP1 PUSH4 0x10EC0878 EQ PUSH2 0x135 JUMPI DUP1 PUSH4 0x238EFCBC EQ PUSH2 0x14A JUMPI DUP1 PUSH4 0x36DAA731 EQ PUSH2 0x152 JUMPI JUMPDEST PUSH1 0x0 DUP1 REVERT JUMPDEST PUSH1 0x0 SLOAD PUSH2 0x118 SWAP1 PUSH1 0x1 PUSH1 0x1 PUSH1 0xA0 SHL SUB AND DUP2 JUMP JUMPDEST PUSH1 0x40 MLOAD PUSH1 0x1 PUSH1 0x1 PUSH1 0xA0 SHL SUB SWAP1 SWAP2 AND DUP2 MSTORE PUSH1 0x20 ADD JUMPDEST PUSH1 0x40 MLOAD DUP1 SWAP2 SUB SWAP1 RETURN JUMPDEST PUSH2 0x148 PUSH2 0x143 CALLDATASIZE PUSH1 0x4 PUSH2 0xDD3 JUMP JUMPDEST PUSH2 0x252 JUMP JUMPDEST STOP JUMPDEST PUSH2 0x148 PUSH2 0x329 JUMP JUMPDEST PUSH2 0x15A PUSH2 0x3D9 JUMP JUMPDEST PUSH1 0x40 MLOAD PUSH2 0x12C SWAP2 SWAP1 PUSH2 0xDEE JUMP JUMPDEST PUSH2 0x17A PUSH2 0x175 CALLDATASIZE PUSH1 0x4 PUSH2 0xDD3 JUMP JUMPDEST PUSH2 0x3EA JUMP JUMPDEST PUSH1 0x40 MLOAD SWAP1 ISZERO ISZERO DUP2 MSTORE PUSH1 0x20 ADD PUSH2 0x12C JUMP JUMPDEST PUSH2 0x15A PUSH2 0x3FD JUMP JUMPDEST PUSH2 0x118 PUSH2 0x1A0 CALLDATASIZE PUSH1 0x4 PUSH2 0xE3B JUMP JUMPDEST PUSH2 0x409 JUMP JUMPDEST PUSH2 0x148 PUSH2 0x1B3 CALLDATASIZE PUSH1 0x4 PUSH2 0xF50 JUMP JUMPDEST PUSH2 0x476 JUMP JUMPDEST PUSH2 0x17A PUSH2 0x1C6 CALLDATASIZE PUSH1 0x4 PUSH2 0xDD3 JUMP JUMPDEST PUSH2 0x57D JUMP JUMPDEST PUSH2 0x148 PUSH2 0x1D9 CALLDATASIZE PUSH1 0x4 PUSH2 0xF8D JUMP JUMPDEST PUSH2 0x58A JUMP JUMPDEST PUSH2 0x148 PUSH2 0x1EC CALLDATASIZE PUSH1 0x4 PUSH2 0xDD3 JUMP JUMPDEST PUSH2 0x771 JUMP JUMPDEST PUSH2 0x148 PUSH2 0x1FF CALLDATASIZE PUSH1 0x4 PUSH2 0xDD3 JUMP JUMPDEST PUSH2 0x841 JUMP JUMPDEST PUSH1 0x1 SLOAD PUSH2 0x118 SWAP1 PUSH1 0x1 PUSH1 0x1 PUSH1 0xA0 SHL SUB AND DUP2 JUMP JUMPDEST PUSH2 0x148 PUSH2 0x225 CALLDATASIZE PUSH1 0x4 PUSH2 0xDD3 JUMP JUMPDEST PUSH2 0x90F JUMP JUMPDEST PUSH2 0x17A PUSH2 0x238 CALLDATASIZE PUSH1 0x4 PUSH2 0xE3B JUMP JUMPDEST PUSH2 0x9E4 JUMP JUMPDEST PUSH2 0x245 PUSH2 0xA25 JUMP JUMPDEST PUSH1 0x40 MLOAD PUSH2 0x12C SWAP2 SWAP1 PUSH2 0xFDB JUMP JUMPDEST PUSH1 0x0 SLOAD PUSH1 0x40 DUP1 MLOAD DUP1 DUP3 ADD SWAP1 SWAP2 MSTORE PUSH1 0x2 DUP2 MSTORE PUSH2 0x333 PUSH1 0xF4 SHL PUSH1 0x20 DUP3 ADD MSTORE SWAP1 PUSH1 0x1 PUSH1 0x1 PUSH1 0xA0 SHL SUB AND CALLER EQ PUSH2 0x2A0 JUMPI PUSH1 0x40 MLOAD PUSH3 0x461BCD PUSH1 0xE5 SHL DUP2 MSTORE PUSH1 0x4 ADD PUSH2 0x297 SWAP2 SWAP1 PUSH2 0x1043 JUMP JUMPDEST PUSH1 0x40 MLOAD DUP1 SWAP2 SUB SWAP1 REVERT JUMPDEST POP PUSH2 0x2AC PUSH1 0x5 DUP3 PUSH2 0xA31 JUMP JUMPDEST PUSH1 0x40 MLOAD DUP1 PUSH1 0x40 ADD PUSH1 0x40 MSTORE DUP1 PUSH1 0x2 DUP2 MSTORE PUSH1 0x20 ADD PUSH2 0x343 PUSH1 0xF4 SHL DUP2 MSTORE POP SWAP1 PUSH2 0x2E5 JUMPI PUSH1 0x40 MLOAD PUSH3 0x461BCD PUSH1 0xE5 SHL DUP2 MSTORE PUSH1 0x4 ADD PUSH2 0x297 SWAP2 SWAP1 PUSH2 0x1043 JUMP JUMPDEST POP PUSH2 0x2F1 PUSH1 0x7 DUP3 PUSH2 0xA56 JUMP JUMPDEST POP PUSH1 0x40 MLOAD PUSH1 0x1 PUSH1 0x1 PUSH1 0xA0 SHL SUB DUP3 AND SWAP1 PUSH32 0x93266109223F3FFE4999EEEDD7026E74A3BA153A9B782165BE501BCFBDCCD3A9 SWAP1 PUSH1 0x0 SWAP1 LOG2 POP JUMP JUMPDEST PUSH1 0x1 SLOAD PUSH1 0x40 DUP1 MLOAD DUP1 DUP3 ADD SWAP1 SWAP2 MSTORE PUSH1 0x2 DUP2 MSTORE PUSH2 0x333 PUSH1 0xF4 SHL PUSH1 0x20 DUP3 ADD MSTORE SWAP1 PUSH1 0x1 PUSH1 0x1 PUSH1 0xA0 SHL SUB AND CALLER EQ PUSH2 0x36E JUMPI PUSH1 0x40 MLOAD PUSH3 0x461BCD PUSH1 0xE5 SHL DUP2 MSTORE PUSH1 0x4 ADD PUSH2 0x297 SWAP2 SWAP1 PUSH2 0x1043 JUMP JUMPDEST POP PUSH1 0x0 DUP1 SLOAD PUSH1 0x1 DUP1 SLOAD PUSH1 0x1 PUSH1 0x1 PUSH1 0xA0 SHL SUB NOT DUP1 DUP5 AND PUSH1 0x1 PUSH1 0x1 PUSH1 0xA0 SHL SUB DUP1 DUP5 AND SWAP2 SWAP1 SWAP2 OR SWAP1 SWAP6 SSTORE AND SWAP1 SSTORE PUSH1 0x40 DUP1 MLOAD SWAP3 SWAP1 SWAP2 AND DUP1 DUP4 MSTORE CALLER PUSH1 0x20 DUP5 ADD MSTORE SWAP2 PUSH32 0xDE4B3F61490B74C0ED6237523974FE299126BBBF8A8A7482FD220104C59B0C84 SWAP2 ADD JUMPDEST PUSH1 0x40 MLOAD DUP1 SWAP2 SUB SWAP1 LOG1 POP JUMP JUMPDEST PUSH1 0x60 PUSH2 0x3E5 PUSH1 0x5 PUSH2 0xA6B JUMP JUMPDEST SWAP1 POP SWAP1 JUMP JUMPDEST PUSH1 0x0 PUSH2 0x3F7 PUSH1 0x7 DUP4 PUSH2 0xA31 JUMP JUMPDEST SWAP3 SWAP2 POP POP JUMP JUMPDEST PUSH1 0x60 PUSH2 0x3E5 PUSH1 0x7 PUSH2 0xA6B JUMP JUMPDEST PUSH1 0x0 DUP1 PUSH1 0x2 DUP5 DUP5 PUSH1 0x40 MLOAD PUSH2 0x41E SWAP3 SWAP2 SWAP1 PUSH2 0x1076 JUMP JUMPDEST SWAP1 DUP2 MSTORE PUSH1 0x40 DUP1 MLOAD SWAP2 DUP3 SWAP1 SUB PUSH1 0x20 SWAP1 DUP2 ADD DUP4 KECCAK256 SLOAD DUP4 DUP4 ADD SWAP1 SWAP3 MSTORE PUSH1 0x2 DUP4 MSTORE PUSH2 0x343 PUSH1 0xF4 SHL SWAP1 DUP4 ADD MSTORE PUSH1 0x1 PUSH1 0x1 PUSH1 0xA0 SHL SUB AND SWAP2 POP DUP2 PUSH2 0x46E JUMPI PUSH1 0x40 MLOAD PUSH3 0x461BCD PUSH1 0xE5 SHL DUP2 MSTORE PUSH1 0x4 ADD PUSH2 0x297 SWAP2 SWAP1 PUSH2 0x1043 JUMP JUMPDEST POP SWAP4 SWAP3 POP POP POP JUMP JUMPDEST PUSH1 0x0 SLOAD PUSH1 0x40 DUP1 MLOAD DUP1 DUP3 ADD SWAP1 SWAP2 MSTORE PUSH1 0x2 DUP2 MSTORE PUSH2 0x333 PUSH1 0xF4 SHL PUSH1 0x20 DUP3 ADD MSTORE SWAP1 PUSH1 0x1 PUSH1 0x1 PUSH1 0xA0 SHL SUB AND CALLER EQ PUSH2 0x4BB JUMPI PUSH1 0x40 MLOAD PUSH3 0x461BCD PUSH1 0xE5 SHL DUP2 MSTORE PUSH1 0x4 ADD PUSH2 0x297 SWAP2 SWAP1 PUSH2 0x1043 JUMP JUMPDEST POP PUSH1 0x0 PUSH1 0x2 DUP3 PUSH1 0x40 MLOAD PUSH2 0x4CE SWAP2 SWAP1 PUSH2 0x1086 JUMP JUMPDEST SWAP1 DUP2 MSTORE PUSH1 0x40 DUP1 MLOAD SWAP2 DUP3 SWAP1 SUB PUSH1 0x20 SWAP1 DUP2 ADD DUP4 KECCAK256 SLOAD DUP4 DUP4 ADD SWAP1 SWAP3 MSTORE PUSH1 0x2 DUP4 MSTORE PUSH2 0x343 PUSH1 0xF4 SHL SWAP1 DUP4 ADD MSTORE PUSH1 0x1 PUSH1 0x1 PUSH1 0xA0 SHL SUB AND SWAP2 POP DUP2 PUSH2 0x51E JUMPI PUSH1 0x40 MLOAD PUSH3 0x461BCD PUSH1 0xE5 SHL DUP2 MSTORE PUSH1 0x4 ADD PUSH2 0x297 SWAP2 SWAP1 PUSH2 0x1043 JUMP JUMPDEST POP PUSH1 0x2 DUP3 PUSH1 0x40 MLOAD PUSH2 0x52F SWAP2 SWAP1 PUSH2 0x1086 JUMP JUMPDEST SWAP1 DUP2 MSTORE PUSH1 0x40 MLOAD SWAP1 DUP2 SWAP1 SUB PUSH1 0x20 ADD SWAP1 KECCAK256 DUP1 SLOAD PUSH1 0x1 PUSH1 0x1 PUSH1 0xA0 SHL SUB NOT AND SWAP1 SSTORE PUSH2 0x560 PUSH2 0x558 DUP4 PUSH2 0x10A2 JUMP JUMPDEST PUSH1 0x3 SWAP1 PUSH2 0xB12 JUMP JUMPDEST POP PUSH2 0x56C PUSH1 0x5 DUP3 PUSH2 0xB1E JUMP JUMPDEST POP PUSH2 0x578 PUSH1 0x7 DUP3 PUSH2 0xB1E JUMP JUMPDEST POP POP POP JUMP JUMPDEST PUSH1 0x0 PUSH2 0x3F7 PUSH1 0x5 DUP4 PUSH2 0xA31 JUMP JUMPDEST PUSH1 0x0 SLOAD PUSH1 0x40 DUP1 MLOAD DUP1 DUP3 ADD SWAP1 SWAP2 MSTORE PUSH1 0x2 DUP2 MSTORE PUSH2 0x333 PUSH1 0xF4 SHL PUSH1 0x20 DUP3 ADD MSTORE SWAP1 PUSH1 0x1 PUSH1 0x1 PUSH1 0xA0 SHL SUB AND CALLER EQ PUSH2 0x5CF JUMPI PUSH1 0x40 MLOAD PUSH3 0x461BCD PUSH1 0xE5 SHL DUP2 MSTORE PUSH1 0x4 ADD PUSH2 0x297 SWAP2 SWAP1 PUSH2 0x1043 JUMP JUMPDEST POP PUSH1 0x20 DUP3 MLOAD LT PUSH1 0x40 MLOAD DUP1 PUSH1 0x40 ADD PUSH1 0x40 MSTORE DUP1 PUSH1 0x2 DUP2 MSTORE PUSH1 0x20 ADD PUSH2 0x3331 PUSH1 0xF0 SHL DUP2 MSTORE POP SWAP1 PUSH2 0x60E JUMPI PUSH1 0x40 MLOAD PUSH3 0x461BCD PUSH1 0xE5 SHL DUP2 MSTORE PUSH1 0x4 ADD PUSH2 0x297 SWAP2 SWAP1 PUSH2 0x1043 JUMP JUMPDEST POP PUSH1 0x40 DUP1 MLOAD DUP1 DUP3 ADD SWAP1 SWAP2 MSTORE PUSH1 0x2 DUP2 MSTORE PUSH2 0x3331 PUSH1 0xF0 SHL PUSH1 0x20 DUP3 ADD MSTORE PUSH1 0x1 PUSH1 0x1 PUSH1 0xA0 SHL SUB DUP3 AND PUSH2 0x64F JUMPI PUSH1 0x40 MLOAD PUSH3 0x461BCD PUSH1 0xE5 SHL DUP2 MSTORE PUSH1 0x4 ADD PUSH2 0x297 SWAP2 SWAP1 PUSH2 0x1043 JUMP JUMPDEST POP PUSH1 0x0 PUSH1 0x2 DUP4 PUSH1 0x40 MLOAD PUSH2 0x662 SWAP2 SWAP1 PUSH2 0x1086 JUMP JUMPDEST SWAP1 DUP2 MSTORE PUSH1 0x40 DUP1 MLOAD SWAP2 DUP3 SWAP1 SUB PUSH1 0x20 SWAP1 DUP2 ADD DUP4 KECCAK256 SLOAD DUP4 DUP4 ADD SWAP1 SWAP3 MSTORE PUSH1 0x2 DUP4 MSTORE PUSH2 0x3331 PUSH1 0xF0 SHL SWAP1 DUP4 ADD MSTORE PUSH1 0x1 PUSH1 0x1 PUSH1 0xA0 SHL SUB SWAP1 DUP2 AND SWAP3 POP DUP4 AND DUP3 EQ ISZERO PUSH2 0x6B8 JUMPI PUSH1 0x40 MLOAD PUSH3 0x461BCD PUSH1 0xE5 SHL DUP2 MSTORE PUSH1 0x4 ADD PUSH2 0x297 SWAP2 SWAP1 PUSH2 0x1043 JUMP JUMPDEST POP DUP2 PUSH1 0x2 DUP5 PUSH1 0x40 MLOAD PUSH2 0x6CA SWAP2 SWAP1 PUSH2 0x1086 JUMP JUMPDEST SWAP1 DUP2 MSTORE PUSH1 0x40 MLOAD SWAP1 DUP2 SWAP1 SUB PUSH1 0x20 ADD SWAP1 KECCAK256 DUP1 SLOAD PUSH1 0x1 PUSH1 0x1 PUSH1 0xA0 SHL SUB SWAP3 SWAP1 SWAP3 AND PUSH1 0x1 PUSH1 0x1 PUSH1 0xA0 SHL SUB NOT SWAP1 SWAP3 AND SWAP2 SWAP1 SWAP2 OR SWAP1 SSTORE PUSH2 0x70D PUSH2 0x705 DUP5 PUSH2 0x10A2 JUMP JUMPDEST PUSH1 0x3 SWAP1 PUSH2 0xB33 JUMP JUMPDEST POP PUSH2 0x719 PUSH1 0x5 DUP4 PUSH2 0xA56 JUMP JUMPDEST POP DUP2 PUSH1 0x1 PUSH1 0x1 PUSH1 0xA0 SHL SUB AND DUP2 PUSH1 0x1 PUSH1 0x1 PUSH1 0xA0 SHL SUB AND DUP5 PUSH1 0x40 MLOAD PUSH2 0x73C SWAP2 SWAP1 PUSH2 0x1086 JUMP JUMPDEST PUSH1 0x40 MLOAD SWAP1 DUP2 SWAP1 SUB DUP2 KECCAK256 SWAP1 PUSH32 0xBAE65703F0AEB3DB2F7B7F07B34B9CF2F9DDE13C561A9E3423915DE548DD20E3 SWAP1 PUSH1 0x0 SWAP1 LOG4 POP POP POP JUMP JUMPDEST PUSH1 0x1 SLOAD PUSH1 0x1 PUSH1 0xA8 SHL SWAP1 DIV PUSH1 0xFF AND DUP1 PUSH2 0x793 JUMPI POP PUSH1 0x1 SLOAD PUSH1 0x1 PUSH1 0xA0 SHL SWAP1 DIV PUSH1 0xFF AND ISZERO JUMPDEST PUSH2 0x7F6 JUMPI PUSH1 0x40 MLOAD PUSH3 0x461BCD PUSH1 0xE5 SHL DUP2 MSTORE PUSH1 0x20 PUSH1 0x4 DUP3 ADD MSTORE PUSH1 0x2E PUSH1 0x24 DUP3 ADD MSTORE PUSH32 0x496E697469616C697A61626C653A20636F6E747261637420697320616C726561 PUSH1 0x44 DUP3 ADD MSTORE PUSH14 0x191E481A5B9A5D1A585B1A5E9959 PUSH1 0x92 SHL PUSH1 0x64 DUP3 ADD MSTORE PUSH1 0x84 ADD PUSH2 0x297 JUMP JUMPDEST PUSH1 0x1 SLOAD PUSH1 0x1 PUSH1 0xA8 SHL SWAP1 DIV PUSH1 0xFF AND ISZERO DUP1 ISZERO PUSH2 0x820 JUMPI PUSH1 0x1 DUP1 SLOAD PUSH2 0xFFFF PUSH1 0xA0 SHL NOT AND PUSH2 0x101 PUSH1 0xA0 SHL OR SWAP1 SSTORE JUMPDEST PUSH2 0x829 DUP3 PUSH2 0xB3F JUMP JUMPDEST DUP1 ISZERO PUSH2 0x83D JUMPI PUSH1 0x1 DUP1 SLOAD PUSH1 0xFF PUSH1 0xA8 SHL NOT AND SWAP1 SSTORE JUMPDEST POP POP JUMP JUMPDEST PUSH1 0x0 SLOAD PUSH1 0x40 DUP1 MLOAD DUP1 DUP3 ADD SWAP1 SWAP2 MSTORE PUSH1 0x2 DUP2 MSTORE PUSH2 0x333 PUSH1 0xF4 SHL PUSH1 0x20 DUP3 ADD MSTORE SWAP1 PUSH1 0x1 PUSH1 0x1 PUSH1 0xA0 SHL SUB AND CALLER EQ PUSH2 0x886 JUMPI PUSH1 0x40 MLOAD PUSH3 0x461BCD PUSH1 0xE5 SHL DUP2 MSTORE PUSH1 0x4 ADD PUSH2 0x297 SWAP2 SWAP1 PUSH2 0x1043 JUMP JUMPDEST POP PUSH2 0x892 PUSH1 0x7 DUP3 PUSH2 0xA31 JUMP JUMPDEST PUSH1 0x40 MLOAD DUP1 PUSH1 0x40 ADD PUSH1 0x40 MSTORE DUP1 PUSH1 0x2 DUP2 MSTORE PUSH1 0x20 ADD PUSH2 0x343 PUSH1 0xF4 SHL DUP2 MSTORE POP SWAP1 PUSH2 0x8CB JUMPI PUSH1 0x40 MLOAD PUSH3 0x461BCD PUSH1 0xE5 SHL DUP2 MSTORE PUSH1 0x4 ADD PUSH2 0x297 SWAP2 SWAP1 PUSH2 0x1043 JUMP JUMPDEST POP PUSH2 0x8D7 PUSH1 0x7 DUP3 PUSH2 0xB1E JUMP JUMPDEST POP PUSH1 0x40 MLOAD PUSH1 0x1 PUSH1 0x1 PUSH1 0xA0 SHL SUB DUP3 AND SWAP1 PUSH32 0x2D765D86E62553C49C4853F47990FBB8CF7713F511AC332855AAA6B02BEBD36 SWAP1 PUSH1 0x0 SWAP1 LOG2 POP JUMP JUMPDEST PUSH1 0x0 SLOAD PUSH1 0x40 DUP1 MLOAD DUP1 DUP3 ADD SWAP1 SWAP2 MSTORE PUSH1 0x2 DUP2 MSTORE PUSH2 0x333 PUSH1 0xF4 SHL PUSH1 0x20 DUP3 ADD MSTORE SWAP1 PUSH1 0x1 PUSH1 0x1 PUSH1 0xA0 SHL SUB AND CALLER EQ PUSH2 0x954 JUMPI PUSH1 0x40 MLOAD PUSH3 0x461BCD PUSH1 0xE5 SHL DUP2 MSTORE PUSH1 0x4 ADD PUSH2 0x297 SWAP2 SWAP1 PUSH2 0x1043 JUMP JUMPDEST POP PUSH1 0x40 DUP1 MLOAD DUP1 DUP3 ADD SWAP1 SWAP2 MSTORE PUSH1 0x2 DUP2 MSTORE PUSH2 0x3331 PUSH1 0xF0 SHL PUSH1 0x20 DUP3 ADD MSTORE PUSH1 0x1 PUSH1 0x1 PUSH1 0xA0 SHL SUB DUP3 AND PUSH2 0x995 JUMPI PUSH1 0x40 MLOAD PUSH3 0x461BCD PUSH1 0xE5 SHL DUP2 MSTORE PUSH1 0x4 ADD PUSH2 0x297 SWAP2 SWAP1 PUSH2 0x1043 JUMP JUMPDEST POP PUSH1 0x1 DUP1 SLOAD PUSH1 0x1 PUSH1 0x1 PUSH1 0xA0 SHL SUB NOT AND PUSH1 0x1 PUSH1 0x1 PUSH1 0xA0 SHL SUB DUP4 AND SWAP1 DUP2 OR SWAP1 SWAP2 SSTORE PUSH1 0x40 MLOAD SWAP1 DUP2 MSTORE PUSH32 0x67235BA2E63C748A35B95C4F92A3BBC2A1389938170A5CE6C9ADD5D0B03A314A SWAP1 PUSH1 0x20 ADD PUSH2 0x3CE JUMP JUMPDEST PUSH1 0x0 DUP1 PUSH1 0x1 PUSH1 0x1 PUSH1 0xA0 SHL SUB AND PUSH1 0x2 DUP5 DUP5 PUSH1 0x40 MLOAD PUSH2 0xA02 SWAP3 SWAP2 SWAP1 PUSH2 0x1076 JUMP JUMPDEST SWAP1 DUP2 MSTORE PUSH1 0x40 MLOAD SWAP1 DUP2 SWAP1 SUB PUSH1 0x20 ADD SWAP1 KECCAK256 SLOAD PUSH1 0x1 PUSH1 0x1 PUSH1 0xA0 SHL SUB AND EQ ISZERO SWAP1 POP SWAP3 SWAP2 POP POP JUMP JUMPDEST PUSH1 0x60 PUSH2 0x3E5 PUSH1 0x3 PUSH2 0xB93 JUMP JUMPDEST PUSH1 0x1 PUSH1 0x1 PUSH1 0xA0 SHL SUB DUP2 AND PUSH1 0x0 SWAP1 DUP2 MSTORE PUSH1 0x1 DUP4 ADD PUSH1 0x20 MSTORE PUSH1 0x40 DUP2 KECCAK256 SLOAD ISZERO ISZERO JUMPDEST SWAP4 SWAP3 POP POP POP JUMP JUMPDEST PUSH1 0x0 PUSH2 0xA4F DUP4 PUSH1 0x1 PUSH1 0x1 PUSH1 0xA0 SHL SUB DUP5 AND PUSH2 0xC2D JUMP JUMPDEST PUSH1 0x60 PUSH1 0x0 PUSH2 0xA78 DUP4 PUSH2 0xC7C JUMP JUMPDEST SWAP1 POP PUSH1 0x0 DUP2 PUSH8 0xFFFFFFFFFFFFFFFF DUP2 GT ISZERO PUSH2 0xA95 JUMPI PUSH2 0xA95 PUSH2 0xEAD JUMP JUMPDEST PUSH1 0x40 MLOAD SWAP1 DUP1 DUP3 MSTORE DUP1 PUSH1 0x20 MUL PUSH1 0x20 ADD DUP3 ADD PUSH1 0x40 MSTORE DUP1 ISZERO PUSH2 0xABE JUMPI DUP2 PUSH1 0x20 ADD PUSH1 0x20 DUP3 MUL DUP1 CALLDATASIZE DUP4 CALLDATACOPY ADD SWAP1 POP JUMPDEST POP SWAP1 POP PUSH1 0x0 JUMPDEST DUP3 DUP2 LT ISZERO PUSH2 0x46E JUMPI PUSH2 0xAD6 DUP6 DUP3 PUSH2 0xC86 JUMP JUMPDEST DUP3 DUP3 DUP2 MLOAD DUP2 LT PUSH2 0xAE8 JUMPI PUSH2 0xAE8 PUSH2 0x10C9 JUMP JUMPDEST PUSH1 0x1 PUSH1 0x1 PUSH1 0xA0 SHL SUB SWAP1 SWAP3 AND PUSH1 0x20 SWAP3 DUP4 MUL SWAP2 SWAP1 SWAP2 ADD SWAP1 SWAP2 ADD MSTORE DUP1 PUSH2 0xB0A DUP2 PUSH2 0x10F5 JUMP JUMPDEST SWAP2 POP POP PUSH2 0xAC4 JUMP JUMPDEST PUSH1 0x0 PUSH2 0xA4F DUP4 DUP4 PUSH2 0xC92 JUMP JUMPDEST PUSH1 0x0 PUSH2 0xA4F DUP4 PUSH1 0x1 PUSH1 0x1 PUSH1 0xA0 SHL SUB DUP5 AND PUSH2 0xC92 JUMP JUMPDEST PUSH1 0x0 PUSH2 0xA4F DUP4 DUP4 PUSH2 0xC2D JUMP JUMPDEST PUSH1 0x0 DUP1 SLOAD PUSH1 0x1 PUSH1 0x1 PUSH1 0xA0 SHL SUB NOT AND PUSH1 0x1 PUSH1 0x1 PUSH1 0xA0 SHL SUB DUP4 AND SWAP1 DUP2 OR DUP3 SSTORE PUSH1 0x40 DUP1 MLOAD SWAP3 DUP4 MSTORE PUSH1 0x20 DUP4 ADD SWAP2 SWAP1 SWAP2 MSTORE PUSH32 0xDE4B3F61490B74C0ED6237523974FE299126BBBF8A8A7482FD220104C59B0C84 SWAP2 ADD PUSH2 0x3CE JUMP JUMPDEST PUSH1 0x60 PUSH1 0x0 PUSH2 0xBA0 DUP4 PUSH2 0xC7C JUMP JUMPDEST SWAP1 POP PUSH1 0x0 DUP2 PUSH8 0xFFFFFFFFFFFFFFFF DUP2 GT ISZERO PUSH2 0xBBD JUMPI PUSH2 0xBBD PUSH2 0xEAD JUMP JUMPDEST PUSH1 0x40 MLOAD SWAP1 DUP1 DUP3 MSTORE DUP1 PUSH1 0x20 MUL PUSH1 0x20 ADD DUP3 ADD PUSH1 0x40 MSTORE DUP1 ISZERO PUSH2 0xBE6 JUMPI DUP2 PUSH1 0x20 ADD PUSH1 0x20 DUP3 MUL DUP1 CALLDATASIZE DUP4 CALLDATACOPY ADD SWAP1 POP JUMPDEST POP SWAP1 POP PUSH1 0x0 JUMPDEST DUP3 DUP2 LT ISZERO PUSH2 0x46E JUMPI PUSH2 0xBFE DUP6 DUP3 PUSH2 0xD85 JUMP JUMPDEST DUP3 DUP3 DUP2 MLOAD DUP2 LT PUSH2 0xC10 JUMPI PUSH2 0xC10 PUSH2 0x10C9 JUMP JUMPDEST PUSH1 0x20 SWAP1 DUP2 MUL SWAP2 SWAP1 SWAP2 ADD ADD MSTORE DUP1 PUSH2 0xC25 DUP2 PUSH2 0x10F5 JUMP JUMPDEST SWAP2 POP POP PUSH2 0xBEC JUMP JUMPDEST PUSH1 0x0 DUP2 DUP2 MSTORE PUSH1 0x1 DUP4 ADD PUSH1 0x20 MSTORE PUSH1 0x40 DUP2 KECCAK256 SLOAD PUSH2 0xC74 JUMPI POP DUP2 SLOAD PUSH1 0x1 DUP2 DUP2 ADD DUP5 SSTORE PUSH1 0x0 DUP5 DUP2 MSTORE PUSH1 0x20 DUP1 DUP3 KECCAK256 SWAP1 SWAP4 ADD DUP5 SWAP1 SSTORE DUP5 SLOAD DUP5 DUP3 MSTORE DUP3 DUP7 ADD SWAP1 SWAP4 MSTORE PUSH1 0x40 SWAP1 KECCAK256 SWAP2 SWAP1 SWAP2 SSTORE PUSH2 0x3F7 JUMP JUMPDEST POP PUSH1 0x0 PUSH2 0x3F7 JUMP JUMPDEST PUSH1 0x0 PUSH2 0x3F7 DUP3 SLOAD SWAP1 JUMP JUMPDEST PUSH1 0x0 PUSH2 0xA4F DUP4 DUP4 PUSH2 0xD8D JUMP JUMPDEST PUSH1 0x0 DUP2 DUP2 MSTORE PUSH1 0x1 DUP4 ADD PUSH1 0x20 MSTORE PUSH1 0x40 DUP2 KECCAK256 SLOAD DUP1 ISZERO PUSH2 0xD7B JUMPI PUSH1 0x0 PUSH2 0xCB6 PUSH1 0x1 DUP4 PUSH2 0x1110 JUMP JUMPDEST DUP6 SLOAD SWAP1 SWAP2 POP PUSH1 0x0 SWAP1 PUSH2 0xCCA SWAP1 PUSH1 0x1 SWAP1 PUSH2 0x1110 JUMP JUMPDEST SWAP1 POP DUP2 DUP2 EQ PUSH2 0xD2F JUMPI PUSH1 0x0 DUP7 PUSH1 0x0 ADD DUP3 DUP2 SLOAD DUP2 LT PUSH2 0xCEA JUMPI PUSH2 0xCEA PUSH2 0x10C9 JUMP JUMPDEST SWAP1 PUSH1 0x0 MSTORE PUSH1 0x20 PUSH1 0x0 KECCAK256 ADD SLOAD SWAP1 POP DUP1 DUP8 PUSH1 0x0 ADD DUP5 DUP2 SLOAD DUP2 LT PUSH2 0xD0D JUMPI PUSH2 0xD0D PUSH2 0x10C9 JUMP JUMPDEST PUSH1 0x0 SWAP2 DUP3 MSTORE PUSH1 0x20 DUP1 DUP4 KECCAK256 SWAP1 SWAP2 ADD SWAP3 SWAP1 SWAP3 SSTORE SWAP2 DUP3 MSTORE PUSH1 0x1 DUP9 ADD SWAP1 MSTORE PUSH1 0x40 SWAP1 KECCAK256 DUP4 SWAP1 SSTORE JUMPDEST DUP6 SLOAD DUP7 SWAP1 DUP1 PUSH2 0xD40 JUMPI PUSH2 0xD40 PUSH2 0x1127 JUMP JUMPDEST PUSH1 0x1 SWAP1 SUB DUP2 DUP2 SWAP1 PUSH1 0x0 MSTORE PUSH1 0x20 PUSH1 0x0 KECCAK256 ADD PUSH1 0x0 SWAP1 SSTORE SWAP1 SSTORE DUP6 PUSH1 0x1 ADD PUSH1 0x0 DUP7 DUP2 MSTORE PUSH1 0x20 ADD SWAP1 DUP2 MSTORE PUSH1 0x20 ADD PUSH1 0x0 KECCAK256 PUSH1 0x0 SWAP1 SSTORE PUSH1 0x1 SWAP4 POP POP POP POP PUSH2 0x3F7 JUMP JUMPDEST PUSH1 0x0 SWAP2 POP POP PUSH2 0x3F7 JUMP JUMPDEST PUSH1 0x0 PUSH2 0xA4F DUP4 DUP4 JUMPDEST PUSH1 0x0 DUP3 PUSH1 0x0 ADD DUP3 DUP2 SLOAD DUP2 LT PUSH2 0xDA4 JUMPI PUSH2 0xDA4 PUSH2 0x10C9 JUMP JUMPDEST SWAP1 PUSH1 0x0 MSTORE PUSH1 0x20 PUSH1 0x0 KECCAK256 ADD SLOAD SWAP1 POP SWAP3 SWAP2 POP POP JUMP JUMPDEST DUP1 CALLDATALOAD PUSH1 0x1 PUSH1 0x1 PUSH1 0xA0 SHL SUB DUP2 AND DUP2 EQ PUSH2 0xDCE JUMPI PUSH1 0x0 DUP1 REVERT JUMPDEST SWAP2 SWAP1 POP JUMP JUMPDEST PUSH1 0x0 PUSH1 0x20 DUP3 DUP5 SUB SLT ISZERO PUSH2 0xDE5 JUMPI PUSH1 0x0 DUP1 REVERT JUMPDEST PUSH2 0xA4F DUP3 PUSH2 0xDB7 JUMP JUMPDEST PUSH1 0x20 DUP1 DUP3 MSTORE DUP3 MLOAD DUP3 DUP3 ADD DUP2 SWAP1 MSTORE PUSH1 0x0 SWAP2 SWAP1 DUP5 DUP3 ADD SWAP1 PUSH1 0x40 DUP6 ADD SWAP1 DUP5 JUMPDEST DUP2 DUP2 LT ISZERO PUSH2 0xE2F JUMPI DUP4 MLOAD PUSH1 0x1 PUSH1 0x1 PUSH1 0xA0 SHL SUB AND DUP4 MSTORE SWAP3 DUP5 ADD SWAP3 SWAP2 DUP5 ADD SWAP2 PUSH1 0x1 ADD PUSH2 0xE0A JUMP JUMPDEST POP SWAP1 SWAP7 SWAP6 POP POP POP POP POP POP JUMP JUMPDEST PUSH1 0x0 DUP1 PUSH1 0x20 DUP4 DUP6 SUB SLT ISZERO PUSH2 0xE4E JUMPI PUSH1 0x0 DUP1 REVERT JUMPDEST DUP3 CALLDATALOAD PUSH8 0xFFFFFFFFFFFFFFFF DUP1 DUP3 GT ISZERO PUSH2 0xE66 JUMPI PUSH1 0x0 DUP1 REVERT JUMPDEST DUP2 DUP6 ADD SWAP2 POP DUP6 PUSH1 0x1F DUP4 ADD SLT PUSH2 0xE7A JUMPI PUSH1 0x0 DUP1 REVERT JUMPDEST DUP2 CALLDATALOAD DUP2 DUP2 GT ISZERO PUSH2 0xE89 JUMPI PUSH1 0x0 DUP1 REVERT JUMPDEST DUP7 PUSH1 0x20 DUP3 DUP6 ADD ADD GT ISZERO PUSH2 0xE9B JUMPI PUSH1 0x0 DUP1 REVERT JUMPDEST PUSH1 0x20 SWAP3 SWAP1 SWAP3 ADD SWAP7 SWAP2 SWAP6 POP SWAP1 SWAP4 POP POP POP POP JUMP JUMPDEST PUSH4 0x4E487B71 PUSH1 0xE0 SHL PUSH1 0x0 MSTORE PUSH1 0x41 PUSH1 0x4 MSTORE PUSH1 0x24 PUSH1 0x0 REVERT JUMPDEST PUSH1 0x0 DUP3 PUSH1 0x1F DUP4 ADD SLT PUSH2 0xED4 JUMPI PUSH1 0x0 DUP1 REVERT JUMPDEST DUP2 CALLDATALOAD PUSH8 0xFFFFFFFFFFFFFFFF DUP1 DUP3 GT ISZERO PUSH2 0xEEF JUMPI PUSH2 0xEEF PUSH2 0xEAD JUMP JUMPDEST PUSH1 0x40 MLOAD PUSH1 0x1F DUP4 ADD PUSH1 0x1F NOT SWAP1 DUP2 AND PUSH1 0x3F ADD AND DUP2 ADD SWAP1 DUP3 DUP3 GT DUP2 DUP4 LT OR ISZERO PUSH2 0xF17 JUMPI PUSH2 0xF17 PUSH2 0xEAD JUMP JUMPDEST DUP2 PUSH1 0x40 MSTORE DUP4 DUP2 MSTORE DUP7 PUSH1 0x20 DUP6 DUP9 ADD ADD GT ISZERO PUSH2 0xF30 JUMPI PUSH1 0x0 DUP1 REVERT JUMPDEST DUP4 PUSH1 0x20 DUP8 ADD PUSH1 0x20 DUP4 ADD CALLDATACOPY PUSH1 0x0 PUSH1 0x20 DUP6 DUP4 ADD ADD MSTORE DUP1 SWAP5 POP POP POP POP POP SWAP3 SWAP2 POP POP JUMP JUMPDEST PUSH1 0x0 PUSH1 0x20 DUP3 DUP5 SUB SLT ISZERO PUSH2 0xF62 JUMPI PUSH1 0x0 DUP1 REVERT JUMPDEST DUP2 CALLDATALOAD PUSH8 0xFFFFFFFFFFFFFFFF DUP2 GT ISZERO PUSH2 0xF79 JUMPI PUSH1 0x0 DUP1 REVERT JUMPDEST PUSH2 0xF85 DUP5 DUP3 DUP6 ADD PUSH2 0xEC3 JUMP JUMPDEST SWAP5 SWAP4 POP POP POP POP JUMP JUMPDEST PUSH1 0x0 DUP1 PUSH1 0x40 DUP4 DUP6 SUB SLT ISZERO PUSH2 0xFA0 JUMPI PUSH1 0x0 DUP1 REVERT JUMPDEST DUP3 CALLDATALOAD PUSH8 0xFFFFFFFFFFFFFFFF DUP2 GT ISZERO PUSH2 0xFB7 JUMPI PUSH1 0x0 DUP1 REVERT JUMPDEST PUSH2 0xFC3 DUP6 DUP3 DUP7 ADD PUSH2 0xEC3 JUMP JUMPDEST SWAP3 POP POP PUSH2 0xFD2 PUSH1 0x20 DUP5 ADD PUSH2 0xDB7 JUMP JUMPDEST SWAP1 POP SWAP3 POP SWAP3 SWAP1 POP JUMP JUMPDEST PUSH1 0x20 DUP1 DUP3 MSTORE DUP3 MLOAD DUP3 DUP3 ADD DUP2 SWAP1 MSTORE PUSH1 0x0 SWAP2 SWAP1 DUP5 DUP3 ADD SWAP1 PUSH1 0x40 DUP6 ADD SWAP1 DUP5 JUMPDEST DUP2 DUP2 LT ISZERO PUSH2 0xE2F JUMPI DUP4 MLOAD DUP4 MSTORE SWAP3 DUP5 ADD SWAP3 SWAP2 DUP5 ADD SWAP2 PUSH1 0x1 ADD PUSH2 0xFF7 JUMP JUMPDEST PUSH1 0x0 JUMPDEST DUP4 DUP2 LT ISZERO PUSH2 0x102E JUMPI DUP2 DUP2 ADD MLOAD DUP4 DUP3 ADD MSTORE PUSH1 0x20 ADD PUSH2 0x1016 JUMP JUMPDEST DUP4 DUP2 GT ISZERO PUSH2 0x103D JUMPI PUSH1 0x0 DUP5 DUP5 ADD MSTORE JUMPDEST POP POP POP POP JUMP JUMPDEST PUSH1 0x20 DUP2 MSTORE PUSH1 0x0 DUP3 MLOAD DUP1 PUSH1 0x20 DUP5 ADD MSTORE PUSH2 0x1062 DUP2 PUSH1 0x40 DUP6 ADD PUSH1 0x20 DUP8 ADD PUSH2 0x1013 JUMP JUMPDEST PUSH1 0x1F ADD PUSH1 0x1F NOT AND SWAP2 SWAP1 SWAP2 ADD PUSH1 0x40 ADD SWAP3 SWAP2 POP POP JUMP JUMPDEST DUP2 DUP4 DUP3 CALLDATACOPY PUSH1 0x0 SWAP2 ADD SWAP1 DUP2 MSTORE SWAP2 SWAP1 POP JUMP JUMPDEST PUSH1 0x0 DUP3 MLOAD PUSH2 0x1098 DUP2 DUP5 PUSH1 0x20 DUP8 ADD PUSH2 0x1013 JUMP JUMPDEST SWAP2 SWAP1 SWAP2 ADD SWAP3 SWAP2 POP POP JUMP JUMPDEST DUP1 MLOAD PUSH1 0x20 DUP1 DUP4 ADD MLOAD SWAP2 SWAP1 DUP2 LT ISZERO PUSH2 0x10C3 JUMPI PUSH1 0x0 NOT DUP2 PUSH1 0x20 SUB PUSH1 0x3 SHL SHL DUP3 AND SWAP2 POP JUMPDEST POP SWAP2 SWAP1 POP JUMP JUMPDEST PUSH4 0x4E487B71 PUSH1 0xE0 SHL PUSH1 0x0 MSTORE PUSH1 0x32 PUSH1 0x4 MSTORE PUSH1 0x24 PUSH1 0x0 REVERT JUMPDEST PUSH4 0x4E487B71 PUSH1 0xE0 SHL PUSH1 0x0 MSTORE PUSH1 0x11 PUSH1 0x4 MSTORE PUSH1 0x24 PUSH1 0x0 REVERT JUMPDEST PUSH1 0x0 PUSH1 0x0 NOT DUP3 EQ ISZERO PUSH2 0x1109 JUMPI PUSH2 0x1109 PUSH2 0x10DF JUMP JUMPDEST POP PUSH1 0x1 ADD SWAP1 JUMP JUMPDEST PUSH1 0x0 DUP3 DUP3 LT ISZERO PUSH2 0x1122 JUMPI PUSH2 0x1122 PUSH2 0x10DF JUMP JUMPDEST POP SUB SWAP1 JUMP JUMPDEST PUSH4 0x4E487B71 PUSH1 0xE0 SHL PUSH1 0x0 MSTORE PUSH1 0x31 PUSH1 0x4 MSTORE PUSH1 0x24 PUSH1 0x0 REVERT INVALID LOG2 PUSH5 0x6970667358 0x22 SLT KECCAK256 SHL EXP 0xD9 LOG2 0xE7 PUSH8 0xE50A852DD07FEDEA SELFDESTRUCT 0xC0 0x4F 0xDB 0xAC MSTORE8 0xF6 0x25 0xBB DUP7 0xB7 CALLCODE DUP8 JUMP PUSH17 0x24522E64736F6C634300080A0033000000 ","sha1":"36e899f5b5690d82b5e46d022ea970a80451682f","source":"// SPDX-License-Identifier: LicenseRef-Gyro-1.0\n// for information on licensing please see the README in the GitHub repository <https://github.com/gyrostable/core-protocol>.\npragma solidity ^0.8.4;\n\nimport \"@openzeppelin/contracts/utils/structs/EnumerableSet.sol\";\n\nimport \"../../interfaces/IAssetRegistry.sol\";\n\nimport \"../../libraries/Errors.sol\";\nimport \"../../libraries/EnumerableExtensions.sol\";\n\nimport \"../auth/GovernableUpgradeable.sol\";\n\ncontract AssetRegistry is IAssetRegistry, GovernableUpgradeable {\n    using EnumerableSet for EnumerableSet.AddressSet;\n    using EnumerableSet for EnumerableSet.Bytes32Set;\n    using EnumerableExtensions for EnumerableSet.Bytes32Set;\n    using EnumerableExtensions for EnumerableSet.AddressSet;\n\n    mapping(string => address) internal assets;\n\n    EnumerableSet.Bytes32Set internal assetNames;\n    EnumerableSet.AddressSet internal assetAddresses;\n    EnumerableSet.AddressSet internal stableAssetAddresses;\n\n    /// @inheritdoc IAssetRegistry\n    function isAssetNameRegistered(string calldata assetName)\n        external\n        view\n        override\n        returns (bool)\n    {\n        return assets[assetName] != address(0);\n    }\n\n    /// @inheritdoc IAssetRegistry\n    function isAssetAddressRegistered(address assetAddress) external view override returns (bool) {\n        return assetAddresses.contains(assetAddress);\n    }\n\n    /// @inheritdoc IAssetRegistry\n    function isAssetStable(address assetAddress) external view returns (bool) {\n        return stableAssetAddresses.contains(assetAddress);\n    }\n\n    /// @inheritdoc IAssetRegistry\n    function getRegisteredAssetNames() external view returns (bytes32[] memory) {\n        return assetNames.toArray();\n    }\n\n    /// @inheritdoc IAssetRegistry\n    function getRegisteredAssetAddresses() external view returns (address[] memory) {\n        return assetAddresses.toArray();\n    }\n\n    /// @inheritdoc IAssetRegistry\n    function getStableAssets() external view returns (address[] memory) {\n        return stableAssetAddresses.toArray();\n    }\n\n    /// @inheritdoc IAssetRegistry\n    function getAssetAddress(string calldata assetName) external view returns (address) {\n        address assetAddress = assets[assetName];\n        require(assetAddress != address(0), Errors.ASSET_NOT_SUPPORTED);\n        return assetAddress;\n    }\n\n    /// @inheritdoc IAssetRegistry\n    function setAssetAddress(string memory assetName, address assetAddress)\n        external\n        governanceOnly\n    {\n        require(bytes(assetName).length < 32, Errors.INVALID_ARGUMENT);\n        require(assetAddress != address(0), Errors.INVALID_ARGUMENT);\n\n        address previousAddress = assets[assetName];\n        require(previousAddress != assetAddress, Errors.INVALID_ARGUMENT);\n        assets[assetName] = assetAddress;\n\n        assetNames.add(bytes32(bytes(assetName)));\n        assetAddresses.add(assetAddress);\n\n        emit AssetAddressUpdated(assetName, previousAddress, assetAddress);\n    }\n\n    /// @inheritdoc IAssetRegistry\n    function addStableAsset(address asset) external governanceOnly {\n        require(assetAddresses.contains(asset), Errors.ASSET_NOT_SUPPORTED);\n        stableAssetAddresses.add(asset);\n        emit StableAssetAdded(asset);\n    }\n\n    /// @inheritdoc IAssetRegistry\n    function removeStableAsset(address asset) external governanceOnly {\n        require(stableAssetAddresses.contains(asset), Errors.ASSET_NOT_SUPPORTED);\n        stableAssetAddresses.remove(asset);\n        emit StableAssetRemoved(asset);\n    }\n\n    /// @inheritdoc IAssetRegistry\n    function removeAsset(string memory assetName) external governanceOnly {\n        address assetAddress = assets[assetName];\n        require(assetAddress != address(0), Errors.ASSET_NOT_SUPPORTED);\n        delete assets[assetName];\n        assetNames.remove(bytes32(bytes(assetName)));\n        assetAddresses.remove(assetAddress);\n        stableAssetAddresses.remove(assetAddress);\n    }\n}\n","sourcePath":"contracts/oracles/AssetRegistry.sol","type":"contract","deployment":{"address":"0x0FEfDfCa029822C18ae73c2b76c4602949621fe1","chainid":"137","blockHeight":36343546}}