{"abi":[{"inputs":[{"internalType":"address","name":"_governor","type":"address"},{"internalType":"enum Vaults.Type","name":"_vaultType","type":"uint8"},{"internalType":"bytes32","name":"_poolId","type":"bytes32"},{"internalType":"contract IVault","name":"_balancerVault","type":"address"},{"internalType":"string","name":"name","type":"string"},{"internalType":"string","name":"symbol","type":"string"}],"stateMutability":"nonpayable","type":"constructor","name":"constructor"},{"anonymous":false,"inputs":[{"indexed":true,"internalType":"address","name":"owner","type":"address"},{"indexed":true,"internalType":"address","name":"spender","type":"address"},{"indexed":false,"internalType":"uint256","name":"value","type":"uint256"}],"name":"Approval","type":"event"},{"anonymous":false,"inputs":[{"indexed":false,"internalType":"address","name":"newGovernor","type":"address"}],"name":"GovernorChangeRequested","type":"event"},{"anonymous":false,"inputs":[{"indexed":false,"internalType":"address","name":"oldGovernor","type":"address"},{"indexed":false,"internalType":"address","name":"newGovernor","type":"address"}],"name":"GovernorChanged","type":"event"},{"anonymous":false,"inputs":[{"indexed":true,"internalType":"address","name":"from","type":"address"},{"indexed":true,"internalType":"address","name":"to","type":"address"},{"indexed":false,"internalType":"uint256","name":"value","type":"uint256"}],"name":"Transfer","type":"event"},{"inputs":[],"name":"acceptGovernance","outputs":[],"stateMutability":"nonpayable","type":"function"},{"inputs":[{"internalType":"address","name":"owner","type":"address"},{"internalType":"address","name":"spender","type":"address"}],"name":"allowance","outputs":[{"internalType":"uint256","name":"","type":"uint256"}],"stateMutability":"view","type":"function"},{"inputs":[{"internalType":"address","name":"spender","type":"address"},{"internalType":"uint256","name":"amount","type":"uint256"}],"name":"approve","outputs":[{"internalType":"bool","name":"","type":"bool"}],"stateMutability":"nonpayable","type":"function"},{"inputs":[{"internalType":"address","name":"account","type":"address"}],"name":"balanceOf","outputs":[{"internalType":"uint256","name":"","type":"uint256"}],"stateMutability":"view","type":"function"},{"inputs":[],"name":"balancerVault","outputs":[{"internalType":"contract IVault","name":"","type":"address"}],"stateMutability":"view","type":"function"},{"inputs":[{"internalType":"address","name":"newGovernor","type":"address"}],"name":"changeGovernor","outputs":[],"stateMutability":"nonpayable","type":"function"},{"inputs":[],"name":"decimals","outputs":[{"internalType":"uint8","name":"","type":"uint8"}],"stateMutability":"view","type":"function"},{"inputs":[{"internalType":"address","name":"spender","type":"address"},{"internalType":"uint256","name":"subtractedValue","type":"uint256"}],"name":"decreaseAllowance","outputs":[{"internalType":"bool","name":"","type":"bool"}],"stateMutability":"nonpayable","type":"function"},{"inputs":[],"name":"deployedAt","outputs":[{"internalType":"uint256","name":"","type":"uint256"}],"stateMutability":"view","type":"function"},{"inputs":[{"internalType":"uint256","name":"underlyingAmount","type":"uint256"},{"internalType":"uint256","name":"minVaultTokensOut","type":"uint256"}],"name":"deposit","outputs":[{"internalType":"uint256","name":"vaultTokensMinted","type":"uint256"}],"stateMutability":"nonpayable","type":"function"},{"inputs":[{"internalType":"address","name":"beneficiary","type":"address"},{"internalType":"uint256","name":"underlyingAmount","type":"uint256"},{"internalType":"uint256","name":"minVaultTokensOut","type":"uint256"}],"name":"depositFor","outputs":[{"internalType":"uint256","name":"vaultTokensMinted","type":"uint256"}],"stateMutability":"nonpayable","type":"function"},{"inputs":[{"internalType":"uint256","name":"underlyingAmount","type":"uint256"},{"internalType":"uint256","name":"minVaultTokensOut","type":"uint256"}],"name":"dryDeposit","outputs":[{"internalType":"uint256","name":"vaultTokensMinted","type":"uint256"},{"internalType":"string","name":"err","type":"string"}],"stateMutability":"view","type":"function"},{"inputs":[{"internalType":"uint256","name":"vaultTokenAmount","type":"uint256"},{"internalType":"uint256","name":"minUnderlyingOut","type":"uint256"}],"name":"dryWithdraw","outputs":[{"internalType":"uint256","name":"underlyingAmountWithdrawn","type":"uint256"},{"internalType":"string","name":"err","type":"string"}],"stateMutability":"view","type":"function"},{"inputs":[],"name":"exchangeRate","outputs":[{"internalType":"uint256","name":"","type":"uint256"}],"stateMutability":"view","type":"function"},{"inputs":[],"name":"getTokens","outputs":[{"internalType":"contract IERC20[]","name":"","type":"address[]"}],"stateMutability":"view","type":"function"},{"inputs":[],"name":"governor","outputs":[{"internalType":"address","name":"","type":"address"}],"stateMutability":"view","type":"function"},{"inputs":[{"internalType":"address","name":"spender","type":"address"},{"internalType":"uint256","name":"addedValue","type":"uint256"}],"name":"increaseAllowance","outputs":[{"internalType":"bool","name":"","type":"bool"}],"stateMutability":"nonpayable","type":"function"},{"inputs":[],"name":"name","outputs":[{"internalType":"string","name":"","type":"string"}],"stateMutability":"view","type":"function"},{"inputs":[],"name":"pendingGovernor","outputs":[{"internalType":"address","name":"","type":"address"}],"stateMutability":"view","type":"function"},{"inputs":[],"name":"poolId","outputs":[{"internalType":"bytes32","name":"","type":"bytes32"}],"stateMutability":"view","type":"function"},{"inputs":[{"internalType":"address","name":"strategyAddress","type":"address"}],"name":"setStrategy","outputs":[],"stateMutability":"nonpayable","type":"function"},{"inputs":[],"name":"strategy","outputs":[{"internalType":"address","name":"","type":"address"}],"stateMutability":"view","type":"function"},{"inputs":[],"name":"symbol","outputs":[{"internalType":"string","name":"","type":"string"}],"stateMutability":"view","type":"function"},{"inputs":[],"name":"totalSupply","outputs":[{"internalType":"uint256","name":"","type":"uint256"}],"stateMutability":"view","type":"function"},{"inputs":[],"name":"totalUnderlying","outputs":[{"internalType":"uint256","name":"","type":"uint256"}],"stateMutability":"view","type":"function"},{"inputs":[{"internalType":"address","name":"recipient","type":"address"},{"internalType":"uint256","name":"amount","type":"uint256"}],"name":"transfer","outputs":[{"internalType":"bool","name":"","type":"bool"}],"stateMutability":"nonpayable","type":"function"},{"inputs":[{"internalType":"address","name":"sender","type":"address"},{"internalType":"address","name":"recipient","type":"address"},{"internalType":"uint256","name":"amount","type":"uint256"}],"name":"transferFrom","outputs":[{"internalType":"bool","name":"","type":"bool"}],"stateMutability":"nonpayable","type":"function"},{"inputs":[],"name":"underlying","outputs":[{"internalType":"address","name":"","type":"address"}],"stateMutability":"view","type":"function"},{"inputs":[],"name":"vaultType","outputs":[{"internalType":"enum Vaults.Type","name":"","type":"uint8"}],"stateMutability":"view","type":"function"},{"inputs":[{"internalType":"uint256","name":"vaultTokenAmount","type":"uint256"},{"internalType":"uint256","name":"minUnderlyingOut","type":"uint256"}],"name":"withdraw","outputs":[{"internalType":"uint256","name":"underlyingAmountWithdrawn","type":"uint256"}],"stateMutability":"nonpayable","type":"function"}],"bytecode":"6101206040523480156200001257600080fd5b506040516200204738038062002047833981016040819052620000359162000313565b85620000418560601c90565b838383828281600390805190602001906200005e9291906200017a565b508051620000749060049060208401906200017a565b5050600580546001600160a01b0319166001600160a01b038416908117909155604080516000815260208101929092527fde4b3f61490b74c0ed6237523974fe299126bbbf8a8a7482fd220104c59b0c8492500160405180910390a150604080518082019091526002815261333160f01b60208201526001600160a01b0384166200011d5760405162461bcd60e51b8152600401620001149190620003c9565b60405180910390fd5b5050506001600160a01b039081166080524360a05260c0869052841660e05250846004811115620001525762000152620003fe565b6101008160048111156200016a576200016a620003fe565b8152505050505050505062000451565b828054620001889062000414565b90600052602060002090601f016020900481019282620001ac5760008555620001f7565b82601f10620001c757805160ff1916838001178555620001f7565b82800160010185558215620001f7579182015b82811115620001f7578251825591602001919060010190620001da565b506200020592915062000209565b5090565b5b808211156200020557600081556001016200020a565b6001600160a01b03811681146200023657600080fd5b50565b634e487b7160e01b600052604160045260246000fd5b60005b838110156200026c57818101518382015260200162000252565b838111156200027c576000848401525b50505050565b600082601f8301126200029457600080fd5b81516001600160401b0380821115620002b157620002b162000239565b604051601f8301601f19908116603f01168101908282118183101715620002dc57620002dc62000239565b81604052838152866020858801011115620002f657600080fd5b620003098460208301602089016200024f565b9695505050505050565b60008060008060008060c087890312156200032d57600080fd5b86516200033a8162000220565b6020880151909650600581106200035057600080fd5b6040880151606089015191965094506200036a8162000220565b60808801519093506001600160401b03808211156200038857600080fd5b620003968a838b0162000282565b935060a0890151915080821115620003ad57600080fd5b50620003bc89828a0162000282565b9150509295509295509295565b6020815260008251806020840152620003ea8160408501602087016200024f565b601f01601f19169190910160400192915050565b634e487b7160e01b600052602160045260246000fd5b600181811c908216806200042957607f821691505b602082108114156200044b57634e487b7160e01b600052602260045260246000fd5b50919050565b60805160a05160c05160e05161010051611b87620004c060003960006103280152600081816102500152610b380152600081816102ee0152610b04015260006104c3015260008181610390015281816106f701528181610927015281816109720152610bc80152611b876000f3fe608060405234801561001057600080fd5b50600436106101da5760003560e01c8063550d2b6211610104578063aa6ca808116100a2578063e2bbb15811610071578063e2bbb15814610485578063e3056a3414610498578063e4c0aaf4146104ab578063eae4c19f146104be57600080fd5b8063aa6ca8081461041c578063c70920bc14610431578063cc04feff14610439578063dd62ed3e1461044c57600080fd5b806395d89b41116100de57806395d89b41146103db578063a457c2d7146103e3578063a8c62e76146103f6578063a9059cbb1461040957600080fd5b8063550d2b621461036a5780636f307dc31461038b57806370a08231146103b257600080fd5b8063313ce5671161017c5780633e0dc34e1161014b5780633e0dc34e146102e9578063441a3e70146103105780634ac032be146103235780634cf5fbf51461035757600080fd5b8063313ce567146102a157806333a100ca146102bb57806339509351146102ce5780633ba0b9a9146102e157600080fd5b8063158274a5116101b8578063158274a51461024b57806318160ddd14610272578063238efcbc1461028457806323b872dd1461028e57600080fd5b806306fdde03146101df578063095ea7b3146101fd5780630c340a2414610220575b600080fd5b6101e76104e5565b6040516101f49190611689565b60405180910390f35b61021061020b3660046116b4565b610577565b60405190151581526020016101f4565b600554610233906001600160a01b031681565b6040516001600160a01b0390911681526020016101f4565b6102337f000000000000000000000000000000000000000000000000000000000000000081565b6002545b6040519081526020016101f4565b61028c61058e565b005b61021061029c3660046116e0565b610647565b6102a96106f3565b60405160ff90911681526020016101f4565b61028c6102c9366004611721565b61077c565b6102106102dc3660046116b4565b6107e4565b610276610820565b6102767f000000000000000000000000000000000000000000000000000000000000000081565b61027661031e36600461173e565b61082c565b61034a7f000000000000000000000000000000000000000000000000000000000000000081565b6040516101f49190611760565b610276610365366004611788565b610956565b61037d61037836600461173e565b6109f5565b6040516101f49291906117bd565b6102337f000000000000000000000000000000000000000000000000000000000000000081565b6102766103c0366004611721565b6001600160a01b031660009081526020819052604090205490565b6101e7610a40565b6102106103f13660046116b4565b610a4f565b600754610233906001600160a01b031681565b6102106104173660046116b4565b610ae8565b610424610af5565b6040516101f491906117d6565b610276610bb0565b61037d61044736600461173e565b610c3b565b61027661045a366004611823565b6001600160a01b03918216600090815260016020908152604080832093909416825291909152205490565b61027661049336600461173e565b610c55565b600654610233906001600160a01b031681565b61028c6104b9366004611721565b610c62565b6102767f000000000000000000000000000000000000000000000000000000000000000081565b6060600380546104f49061185c565b80601f01602080910402602001604051908101604052809291908181526020018280546105209061185c565b801561056d5780601f106105425761010080835404028352916020019161056d565b820191906000526020600020905b81548152906001019060200180831161055057829003601f168201915b5050505050905090565b6000610584338484610d37565b5060015b92915050565b600654604080518082019091526002815261033360f41b6020820152906001600160a01b031633146105dc5760405162461bcd60e51b81526004016105d39190611689565b60405180910390fd5b5060058054600680546001600160a01b03198084166001600160a01b03808416919091179095551690556040805192909116808352336020840152917fde4b3f61490b74c0ed6237523974fe299126bbbf8a8a7482fd220104c59b0c8491015b60405180910390a150565b6000610654848484610e5c565b6001600160a01b0384166000908152600160209081526040808320338452909152902054828110156106d95760405162461bcd60e51b815260206004820152602860248201527f45524332303a207472616e7366657220616d6f756e74206578636565647320616044820152676c6c6f77616e636560c01b60648201526084016105d3565b6106e68533858403610d37565b60019150505b9392505050565b60007f00000000000000000000000000000000000000000000000000000000000000006001600160a01b031663313ce5676040518163ffffffff1660e01b8152600401602060405180830381865afa158015610753573d6000803e3d6000fd5b505050506040513d601f19601f820116820180604052508101906107779190611897565b905090565b600554604080518082019091526002815261033360f41b6020820152906001600160a01b031633146107c15760405162461bcd60e51b81526004016105d39190611689565b50600780546001600160a01b0319166001600160a01b0392909216919091179055565b3360008181526001602090815260408083206001600160a01b0387168452909152812054909161058491859061081b9086906118d0565b610d37565b6000610777600061102c565b600080831160405180604001604052806002815260200161333160f01b8152509061086a5760405162461bcd60e51b81526004016105d39190611689565b5033600090815260208190526040812054905083811015604051806040016040528060028152602001610ccd60f21b815250906108ba5760405162461bcd60e51b81526004016105d39190611689565b5060006108c5610820565b90506108d18582611082565b925083831015604051806040016040528060018152602001601960f91b8152509061090f5760405162461bcd60e51b81526004016105d39190611689565b5061091a33866110a3565b61094e6001600160a01b037f00000000000000000000000000000000000000000000000000000000000000001633856111ee565b505092915050565b600080610963600161102c565b905061099a6001600160a01b037f000000000000000000000000000000000000000000000000000000000000000016333087611251565b6109a48482611289565b915082821015604051806040016040528060018152602001601960f91b815250906109e25760405162461bcd60e51b81526004016105d39190611689565b506109ed85836112f9565b509392505050565b600060606000610a05600161102c565b9050610a118582611289565b925083831015610a3857604051806040016040528060018152602001601960f91b81525091505b509250929050565b6060600480546104f49061185c565b3360009081526001602090815260408083206001600160a01b038616845290915281205482811015610ad15760405162461bcd60e51b815260206004820152602560248201527f45524332303a2064656372656173656420616c6c6f77616e63652062656c6f77604482015264207a65726f60d81b60648201526084016105d3565b610ade3385858403610d37565b5060019392505050565b6000610584338484610e5c565b604051631f29a8cd60e31b81527f000000000000000000000000000000000000000000000000000000000000000060048201526060906000906001600160a01b037f0000000000000000000000000000000000000000000000000000000000000000169063f94d466890602401600060405180830381865afa158015610b7f573d6000803e3d6000fd5b505050506040513d6000823e601f3d908101601f19168201604052610ba791908101906119be565b50909392505050565b6040516370a0823160e01b81523060048201526000907f00000000000000000000000000000000000000000000000000000000000000006001600160a01b0316906370a0823190602401602060405180830381865afa158015610c17573d6000803e3d6000fd5b505050506040513d601f19601f820116820180604052508101906107779190611a8c565b600060606000610c49610820565b9050610a118582611082565b60006106ec338484610956565b600554604080518082019091526002815261033360f41b6020820152906001600160a01b03163314610ca75760405162461bcd60e51b81526004016105d39190611689565b50604080518082019091526002815261333160f01b60208201526001600160a01b038216610ce85760405162461bcd60e51b81526004016105d39190611689565b50600680546001600160a01b0319166001600160a01b0383169081179091556040519081527f67235ba2e63c748a35b95c4f92a3bbc2a1389938170a5ce6c9add5d0b03a314a9060200161063c565b6001600160a01b038316610d995760405162461bcd60e51b8152602060048201526024808201527f45524332303a20617070726f76652066726f6d20746865207a65726f206164646044820152637265737360e01b60648201526084016105d3565b6001600160a01b038216610dfa5760405162461bcd60e51b815260206004820152602260248201527f45524332303a20617070726f766520746f20746865207a65726f206164647265604482015261737360f01b60648201526084016105d3565b6001600160a01b0383811660008181526001602090815260408083209487168084529482529182902085905590518481527f8c5be1e5ebec7d5bd14f71427d1e84f3dd0314c0f7b2291e5b200ac8c7c3b92591015b60405180910390a3505050565b6001600160a01b038316610ec05760405162461bcd60e51b815260206004820152602560248201527f45524332303a207472616e736665722066726f6d20746865207a65726f206164604482015264647265737360d81b60648201526084016105d3565b6001600160a01b038216610f225760405162461bcd60e51b815260206004820152602360248201527f45524332303a207472616e7366657220746f20746865207a65726f206164647260448201526265737360e81b60648201526084016105d3565b6001600160a01b03831660009081526020819052604090205481811015610f9a5760405162461bcd60e51b815260206004820152602660248201527f45524332303a207472616e7366657220616d6f756e7420657863656564732062604482015265616c616e636560d01b60648201526084016105d3565b6001600160a01b03808516600090815260208190526040808220858503905591851681529081208054849290610fd19084906118d0565b92505081905550826001600160a01b0316846001600160a01b03167fddf252ad1be2c89b69c2b068fc378daa952ba7f163c4a11628f55a4df523b3ef8460405161101d91815260200190565b60405180910390a35b50505050565b600080611037610bb0565b9050600061104460025490565b90508061105c5750670de0b6b3a76400009392505050565b836110705761106b8282611289565b61107a565b61107a82826113d8565b949350505050565b60008061108f8385611aa5565b905061107a670de0b6b3a764000082611ada565b6001600160a01b0382166111035760405162461bcd60e51b815260206004820152602160248201527f45524332303a206275726e2066726f6d20746865207a65726f206164647265736044820152607360f81b60648201526084016105d3565b6001600160a01b038216600090815260208190526040902054818110156111775760405162461bcd60e51b815260206004820152602260248201527f45524332303a206275726e20616d6f756e7420657863656564732062616c616e604482015261636560f01b60648201526084016105d3565b6001600160a01b03831660009081526020819052604081208383039055600280548492906111a6908490611afc565b90915550506040518281526000906001600160a01b038516907fddf252ad1be2c89b69c2b068fc378daa952ba7f163c4a11628f55a4df523b3ef90602001610e4f565b505050565b6040516001600160a01b0383166024820152604481018290526111e990849063a9059cbb60e01b906064015b60408051601f198184030181529190526020810180516001600160e01b03166001600160e01b031990931692909217909152611454565b6040516001600160a01b03808516602483015283166044820152606481018290526110269085906323b872dd60e01b9060840161121a565b604080518082019091526002815261323560f01b6020820152600090826112c35760405162461bcd60e51b81526004016105d39190611689565b50826112d157506000610588565b60006112e5670de0b6b3a764000085611aa5565b90506112f18382611ada565b915050610588565b6001600160a01b03821661134f5760405162461bcd60e51b815260206004820152601f60248201527f45524332303a206d696e7420746f20746865207a65726f20616464726573730060448201526064016105d3565b806002600082825461136191906118d0565b90915550506001600160a01b0382166000908152602081905260408120805483929061138e9084906118d0565b90915550506040518181526001600160a01b038316906000907fddf252ad1be2c89b69c2b068fc378daa952ba7f163c4a11628f55a4df523b3ef9060200160405180910390a35050565b604080518082019091526002815261323560f01b6020820152600090826114125760405162461bcd60e51b81526004016105d39190611689565b508261142057506000610588565b6000611434670de0b6b3a764000085611aa5565b905082600182038161144857611448611ac4565b04600101915050610588565b60006114a9826040518060400160405280602081526020017f5361666545524332303a206c6f772d6c6576656c2063616c6c206661696c6564815250856001600160a01b03166115269092919063ffffffff16565b8051909150156111e957808060200190518101906114c79190611b13565b6111e95760405162461bcd60e51b815260206004820152602a60248201527f5361666545524332303a204552433230206f7065726174696f6e20646964206e6044820152691bdd081cdd58d8d9595960b21b60648201526084016105d3565b606061107a848460008585843b61157f5760405162461bcd60e51b815260206004820152601d60248201527f416464726573733a2063616c6c20746f206e6f6e2d636f6e747261637400000060448201526064016105d3565b600080866001600160a01b0316858760405161159b9190611b35565b60006040518083038185875af1925050503d80600081146115d8576040519150601f19603f3d011682016040523d82523d6000602084013e6115dd565b606091505b50915091506115ed8282866115f8565b979650505050505050565b606083156116075750816106ec565b8251156116175782518084602001fd5b8160405162461bcd60e51b81526004016105d39190611689565b60005b8381101561164c578181015183820152602001611634565b838111156110265750506000910152565b60008151808452611675816020860160208601611631565b601f01601f19169290920160200192915050565b6020815260006106ec602083018461165d565b6001600160a01b03811681146116b157600080fd5b50565b600080604083850312156116c757600080fd5b82356116d28161169c565b946020939093013593505050565b6000806000606084860312156116f557600080fd5b83356117008161169c565b925060208401356117108161169c565b929592945050506040919091013590565b60006020828403121561173357600080fd5b81356106ec8161169c565b6000806040838503121561175157600080fd5b50508035926020909101359150565b602081016005831061178257634e487b7160e01b600052602160045260246000fd5b91905290565b60008060006060848603121561179d57600080fd5b83356117a88161169c565b95602085013595506040909401359392505050565b82815260406020820152600061107a604083018461165d565b6020808252825182820181905260009190848201906040850190845b818110156118175783516001600160a01b0316835292840192918401916001016117f2565b50909695505050505050565b6000806040838503121561183657600080fd5b82356118418161169c565b915060208301356118518161169c565b809150509250929050565b600181811c9082168061187057607f821691505b6020821081141561189157634e487b7160e01b600052602260045260246000fd5b50919050565b6000602082840312156118a957600080fd5b815160ff811681146106ec57600080fd5b634e487b7160e01b600052601160045260246000fd5b600082198211156118e3576118e36118ba565b500190565b634e487b7160e01b600052604160045260246000fd5b604051601f8201601f1916810167ffffffffffffffff81118282101715611927576119276118e8565b604052919050565b600067ffffffffffffffff821115611949576119496118e8565b5060051b60200190565b600082601f83011261196457600080fd5b815160206119796119748361192f565b6118fe565b82815260059290921b8401810191818101908684111561199857600080fd5b8286015b848110156119b3578051835291830191830161199c565b509695505050505050565b6000806000606084860312156119d357600080fd5b835167ffffffffffffffff808211156119eb57600080fd5b818601915086601f8301126119ff57600080fd5b81516020611a0f6119748361192f565b82815260059290921b8401810191818101908a841115611a2e57600080fd5b948201945b83861015611a55578551611a468161169c565b82529482019490820190611a33565b91890151919750909350505080821115611a6e57600080fd5b50611a7b86828701611953565b925050604084015190509250925092565b600060208284031215611a9e57600080fd5b5051919050565b6000816000190483118215151615611abf57611abf6118ba565b500290565b634e487b7160e01b600052601260045260246000fd5b600082611af757634e487b7160e01b600052601260045260246000fd5b500490565b600082821015611b0e57611b0e6118ba565b500390565b600060208284031215611b2557600080fd5b815180151581146106ec57600080fd5b60008251611b47818460208701611631565b919091019291505056fea26469706673582212200b66f4af53e99f6e3e03d3fcfe3075ed54618f9d41c7e80495bbc40ce252c6f664736f6c634300080a0033","bytecodeSha1":"1ecedfff3701504d89dc568eb7fc143f98752806","compiler":{"evm_version":"london","optimizer":{"enabled":true,"runs":200},"version":"0.8.10+commit.fc410830"},"contractName":"BalancerPoolVault","language":"Solidity","natspec":{"kind":"dev","methods":{"acceptGovernance()":{"notice":"Called by the pending governor to approve the change"},"allowance(address,address)":{"details":"See {IERC20-allowance}."},"approve(address,uint256)":{"details":"See {IERC20-approve}. Requirements: - `spender` cannot be the zero address."},"balanceOf(address)":{"details":"See {IERC20-balanceOf}."},"changeGovernor(address)":{"notice":"Changes the governor can only be called by the current governor"},"decimals()":{"details":"Returns the decimals places of the token."},"decreaseAllowance(address,uint256)":{"details":"Atomically decreases the allowance granted to `spender` by the caller. This is an alternative to {approve} that can be used as a mitigation for problems described in {IERC20-approve}. Emits an {Approval} event indicating the updated allowance. Requirements: - `spender` cannot be the zero address. - `spender` must have allowance for the caller of at least `subtractedValue`."},"deposit(uint256,uint256)":{"notice":"Deposits `underlyingAmount` of LP token supported and sends back the received vault tokens","params":{"underlyingAmount":"the amount of underlying to deposit"},"returns":{"vaultTokensMinted":"the amount of vault token sent back"}},"depositFor(address,uint256,uint256)":{"notice":"Simlar to `deposit(uint256 underlyingAmount)` but credits the tokens to `beneficiary` instead of `msg.sender`"},"dryDeposit(uint256,uint256)":{"notice":"Dry-run version of deposit"},"dryWithdraw(uint256,uint256)":{"notice":"Dry-run version of `withdraw`"},"exchangeRate()":{"returns":{"_0":"The exchange rate between an underlying tokens and the token of this vault"}},"getTokens()":{"returns":{"_0":"The token associated with this vault In the case of an LP token, this will be the underlying tokens associated to it (e.g. [ETH, DAI] for a ETH/DAI pool LP token or [USDC] for aUSDC) In most cases, the tokens returned will not be LP tokens"}},"governor()":{"notice":"Returns the current governor"},"increaseAllowance(address,uint256)":{"details":"Atomically increases the allowance granted to `spender` by the caller. This is an alternative to {approve} that can be used as a mitigation for problems described in {IERC20-approve}. Emits an {Approval} event indicating the updated allowance. Requirements: - `spender` cannot be the zero address."},"name()":{"details":"Returns the name of the token."},"pendingGovernor()":{"notice":"Returns the pending governor"},"poolId()":{"notice":"Balancer pool ID"},"setStrategy(address)":{"notice":"Sets the address of the strategy to use for this vault This will be used through governance","params":{"strategyAddress":"the address of the strategy contract that should follow the `IStrategy` interface"}},"symbol()":{"details":"Returns the symbol of the token, usually a shorter version of the name."},"totalSupply()":{"details":"See {IERC20-totalSupply}."},"totalUnderlying()":{"returns":{"_0":"The total amount of underlying tokens in the vault"}},"transfer(address,uint256)":{"details":"See {IERC20-transfer}. Requirements: - `recipient` cannot be the zero address. - the caller must have a balance of at least `amount`."},"transferFrom(address,address,uint256)":{"details":"See {IERC20-transferFrom}. Emits an {Approval} event indicating the updated allowance. This is not required by the EIP. See the note at the beginning of {ERC20}. Requirements: - `sender` and `recipient` cannot be the zero address. - `sender` must have a balance of at least `amount`. - the caller must have allowance for ``sender``'s tokens of at least `amount`."},"withdraw(uint256,uint256)":{"notice":"Withdraws `vaultTokenAmount` of LP token supported and burns the vault tokens","params":{"vaultTokenAmount":"the amount of vault token to withdraw"},"returns":{"underlyingAmountWithdrawn":"the amount of LP token sent back"}}},"stateVariables":{"vaultType":{"return":"The type of the vault","returns":{"_0":"The type of the vault"}}},"version":1},"opcodes":"PUSH1 0x80 PUSH1 0x40 MSTORE CALLVALUE DUP1 ISZERO PUSH2 0x10 JUMPI PUSH1 0x0 DUP1 REVERT JUMPDEST POP PUSH1 0x4 CALLDATASIZE LT PUSH2 0x1DA JUMPI PUSH1 0x0 CALLDATALOAD PUSH1 0xE0 SHR DUP1 PUSH4 0x550D2B62 GT PUSH2 0x104 JUMPI DUP1 PUSH4 0xAA6CA808 GT PUSH2 0xA2 JUMPI DUP1 PUSH4 0xE2BBB158 GT PUSH2 0x71 JUMPI DUP1 PUSH4 0xE2BBB158 EQ PUSH2 0x485 JUMPI DUP1 PUSH4 0xE3056A34 EQ PUSH2 0x498 JUMPI DUP1 PUSH4 0xE4C0AAF4 EQ PUSH2 0x4AB JUMPI DUP1 PUSH4 0xEAE4C19F EQ PUSH2 0x4BE JUMPI PUSH1 0x0 DUP1 REVERT JUMPDEST DUP1 PUSH4 0xAA6CA808 EQ PUSH2 0x41C JUMPI DUP1 PUSH4 0xC70920BC EQ PUSH2 0x431 JUMPI DUP1 PUSH4 0xCC04FEFF EQ PUSH2 0x439 JUMPI DUP1 PUSH4 0xDD62ED3E EQ PUSH2 0x44C JUMPI PUSH1 0x0 DUP1 REVERT JUMPDEST DUP1 PUSH4 0x95D89B41 GT PUSH2 0xDE JUMPI DUP1 PUSH4 0x95D89B41 EQ PUSH2 0x3DB JUMPI DUP1 PUSH4 0xA457C2D7 EQ PUSH2 0x3E3 JUMPI DUP1 PUSH4 0xA8C62E76 EQ PUSH2 0x3F6 JUMPI DUP1 PUSH4 0xA9059CBB EQ PUSH2 0x409 JUMPI PUSH1 0x0 DUP1 REVERT JUMPDEST DUP1 PUSH4 0x550D2B62 EQ PUSH2 0x36A JUMPI DUP1 PUSH4 0x6F307DC3 EQ PUSH2 0x38B JUMPI DUP1 PUSH4 0x70A08231 EQ PUSH2 0x3B2 JUMPI PUSH1 0x0 DUP1 REVERT JUMPDEST DUP1 PUSH4 0x313CE567 GT PUSH2 0x17C JUMPI DUP1 PUSH4 0x3E0DC34E GT PUSH2 0x14B JUMPI DUP1 PUSH4 0x3E0DC34E EQ PUSH2 0x2E9 JUMPI DUP1 PUSH4 0x441A3E70 EQ PUSH2 0x310 JUMPI DUP1 PUSH4 0x4AC032BE EQ PUSH2 0x323 JUMPI DUP1 PUSH4 0x4CF5FBF5 EQ PUSH2 0x357 JUMPI PUSH1 0x0 DUP1 REVERT JUMPDEST DUP1 PUSH4 0x313CE567 EQ PUSH2 0x2A1 JUMPI DUP1 PUSH4 0x33A100CA EQ PUSH2 0x2BB JUMPI DUP1 PUSH4 0x39509351 EQ PUSH2 0x2CE JUMPI DUP1 PUSH4 0x3BA0B9A9 EQ PUSH2 0x2E1 JUMPI PUSH1 0x0 DUP1 REVERT JUMPDEST DUP1 PUSH4 0x158274A5 GT PUSH2 0x1B8 JUMPI DUP1 PUSH4 0x158274A5 EQ PUSH2 0x24B JUMPI DUP1 PUSH4 0x18160DDD EQ PUSH2 0x272 JUMPI DUP1 PUSH4 0x238EFCBC EQ PUSH2 0x284 JUMPI DUP1 PUSH4 0x23B872DD EQ PUSH2 0x28E JUMPI PUSH1 0x0 DUP1 REVERT JUMPDEST DUP1 PUSH4 0x6FDDE03 EQ PUSH2 0x1DF JUMPI DUP1 PUSH4 0x95EA7B3 EQ PUSH2 0x1FD JUMPI DUP1 PUSH4 0xC340A24 EQ PUSH2 0x220 JUMPI JUMPDEST PUSH1 0x0 DUP1 REVERT JUMPDEST PUSH2 0x1E7 PUSH2 0x4E5 JUMP JUMPDEST PUSH1 0x40 MLOAD PUSH2 0x1F4 SWAP2 SWAP1 PUSH2 0x1689 JUMP JUMPDEST PUSH1 0x40 MLOAD DUP1 SWAP2 SUB SWAP1 RETURN JUMPDEST PUSH2 0x210 PUSH2 0x20B CALLDATASIZE PUSH1 0x4 PUSH2 0x16B4 JUMP JUMPDEST PUSH2 0x577 JUMP JUMPDEST PUSH1 0x40 MLOAD SWAP1 ISZERO ISZERO DUP2 MSTORE PUSH1 0x20 ADD PUSH2 0x1F4 JUMP JUMPDEST PUSH1 0x5 SLOAD PUSH2 0x233 SWAP1 PUSH1 0x1 PUSH1 0x1 PUSH1 0xA0 SHL SUB AND DUP2 JUMP JUMPDEST PUSH1 0x40 MLOAD PUSH1 0x1 PUSH1 0x1 PUSH1 0xA0 SHL SUB SWAP1 SWAP2 AND DUP2 MSTORE PUSH1 0x20 ADD PUSH2 0x1F4 JUMP JUMPDEST PUSH2 0x233 PUSH32 0x0 DUP2 JUMP JUMPDEST PUSH1 0x2 SLOAD JUMPDEST PUSH1 0x40 MLOAD SWAP1 DUP2 MSTORE PUSH1 0x20 ADD PUSH2 0x1F4 JUMP JUMPDEST PUSH2 0x28C PUSH2 0x58E JUMP JUMPDEST STOP JUMPDEST PUSH2 0x210 PUSH2 0x29C CALLDATASIZE PUSH1 0x4 PUSH2 0x16E0 JUMP JUMPDEST PUSH2 0x647 JUMP JUMPDEST PUSH2 0x2A9 PUSH2 0x6F3 JUMP JUMPDEST PUSH1 0x40 MLOAD PUSH1 0xFF SWAP1 SWAP2 AND DUP2 MSTORE PUSH1 0x20 ADD PUSH2 0x1F4 JUMP JUMPDEST PUSH2 0x28C PUSH2 0x2C9 CALLDATASIZE PUSH1 0x4 PUSH2 0x1721 JUMP JUMPDEST PUSH2 0x77C JUMP JUMPDEST PUSH2 0x210 PUSH2 0x2DC CALLDATASIZE PUSH1 0x4 PUSH2 0x16B4 JUMP JUMPDEST PUSH2 0x7E4 JUMP JUMPDEST PUSH2 0x276 PUSH2 0x820 JUMP JUMPDEST PUSH2 0x276 PUSH32 0x0 DUP2 JUMP JUMPDEST PUSH2 0x276 PUSH2 0x31E CALLDATASIZE PUSH1 0x4 PUSH2 0x173E JUMP JUMPDEST PUSH2 0x82C JUMP JUMPDEST PUSH2 0x34A PUSH32 0x0 DUP2 JUMP JUMPDEST PUSH1 0x40 MLOAD PUSH2 0x1F4 SWAP2 SWAP1 PUSH2 0x1760 JUMP JUMPDEST PUSH2 0x276 PUSH2 0x365 CALLDATASIZE PUSH1 0x4 PUSH2 0x1788 JUMP JUMPDEST PUSH2 0x956 JUMP JUMPDEST PUSH2 0x37D PUSH2 0x378 CALLDATASIZE PUSH1 0x4 PUSH2 0x173E JUMP JUMPDEST PUSH2 0x9F5 JUMP JUMPDEST PUSH1 0x40 MLOAD PUSH2 0x1F4 SWAP3 SWAP2 SWAP1 PUSH2 0x17BD JUMP JUMPDEST PUSH2 0x233 PUSH32 0x0 DUP2 JUMP JUMPDEST PUSH2 0x276 PUSH2 0x3C0 CALLDATASIZE PUSH1 0x4 PUSH2 0x1721 JUMP JUMPDEST PUSH1 0x1 PUSH1 0x1 PUSH1 0xA0 SHL SUB AND PUSH1 0x0 SWAP1 DUP2 MSTORE PUSH1 0x20 DUP2 SWAP1 MSTORE PUSH1 0x40 SWAP1 KECCAK256 SLOAD SWAP1 JUMP JUMPDEST PUSH2 0x1E7 PUSH2 0xA40 JUMP JUMPDEST PUSH2 0x210 PUSH2 0x3F1 CALLDATASIZE PUSH1 0x4 PUSH2 0x16B4 JUMP JUMPDEST PUSH2 0xA4F JUMP JUMPDEST PUSH1 0x7 SLOAD PUSH2 0x233 SWAP1 PUSH1 0x1 PUSH1 0x1 PUSH1 0xA0 SHL SUB AND DUP2 JUMP JUMPDEST PUSH2 0x210 PUSH2 0x417 CALLDATASIZE PUSH1 0x4 PUSH2 0x16B4 JUMP JUMPDEST PUSH2 0xAE8 JUMP JUMPDEST PUSH2 0x424 PUSH2 0xAF5 JUMP JUMPDEST PUSH1 0x40 MLOAD PUSH2 0x1F4 SWAP2 SWAP1 PUSH2 0x17D6 JUMP JUMPDEST PUSH2 0x276 PUSH2 0xBB0 JUMP JUMPDEST PUSH2 0x37D PUSH2 0x447 CALLDATASIZE PUSH1 0x4 PUSH2 0x173E JUMP JUMPDEST PUSH2 0xC3B JUMP JUMPDEST PUSH2 0x276 PUSH2 0x45A CALLDATASIZE PUSH1 0x4 PUSH2 0x1823 JUMP JUMPDEST PUSH1 0x1 PUSH1 0x1 PUSH1 0xA0 SHL SUB SWAP2 DUP3 AND PUSH1 0x0 SWAP1 DUP2 MSTORE PUSH1 0x1 PUSH1 0x20 SWAP1 DUP2 MSTORE PUSH1 0x40 DUP1 DUP4 KECCAK256 SWAP4 SWAP1 SWAP5 AND DUP3 MSTORE SWAP2 SWAP1 SWAP2 MSTORE KECCAK256 SLOAD SWAP1 JUMP JUMPDEST PUSH2 0x276 PUSH2 0x493 CALLDATASIZE PUSH1 0x4 PUSH2 0x173E JUMP JUMPDEST PUSH2 0xC55 JUMP JUMPDEST PUSH1 0x6 SLOAD PUSH2 0x233 SWAP1 PUSH1 0x1 PUSH1 0x1 PUSH1 0xA0 SHL SUB AND DUP2 JUMP JUMPDEST PUSH2 0x28C PUSH2 0x4B9 CALLDATASIZE PUSH1 0x4 PUSH2 0x1721 JUMP JUMPDEST PUSH2 0xC62 JUMP JUMPDEST PUSH2 0x276 PUSH32 0x0 DUP2 JUMP JUMPDEST PUSH1 0x60 PUSH1 0x3 DUP1 SLOAD PUSH2 0x4F4 SWAP1 PUSH2 0x185C JUMP JUMPDEST DUP1 PUSH1 0x1F ADD PUSH1 0x20 DUP1 SWAP2 DIV MUL PUSH1 0x20 ADD PUSH1 0x40 MLOAD SWAP1 DUP2 ADD PUSH1 0x40 MSTORE DUP1 SWAP3 SWAP2 SWAP1 DUP2 DUP2 MSTORE PUSH1 0x20 ADD DUP3 DUP1 SLOAD PUSH2 0x520 SWAP1 PUSH2 0x185C JUMP JUMPDEST DUP1 ISZERO PUSH2 0x56D JUMPI DUP1 PUSH1 0x1F LT PUSH2 0x542 JUMPI PUSH2 0x100 DUP1 DUP4 SLOAD DIV MUL DUP4 MSTORE SWAP2 PUSH1 0x20 ADD SWAP2 PUSH2 0x56D JUMP JUMPDEST DUP3 ADD SWAP2 SWAP1 PUSH1 0x0 MSTORE PUSH1 0x20 PUSH1 0x0 KECCAK256 SWAP1 JUMPDEST DUP2 SLOAD DUP2 MSTORE SWAP1 PUSH1 0x1 ADD SWAP1 PUSH1 0x20 ADD DUP1 DUP4 GT PUSH2 0x550 JUMPI DUP3 SWAP1 SUB PUSH1 0x1F AND DUP3 ADD SWAP2 JUMPDEST POP POP POP POP POP SWAP1 POP SWAP1 JUMP JUMPDEST PUSH1 0x0 PUSH2 0x584 CALLER DUP5 DUP5 PUSH2 0xD37 JUMP JUMPDEST POP PUSH1 0x1 JUMPDEST SWAP3 SWAP2 POP POP JUMP JUMPDEST PUSH1 0x6 SLOAD PUSH1 0x40 DUP1 MLOAD DUP1 DUP3 ADD SWAP1 SWAP2 MSTORE PUSH1 0x2 DUP2 MSTORE PUSH2 0x333 PUSH1 0xF4 SHL PUSH1 0x20 DUP3 ADD MSTORE SWAP1 PUSH1 0x1 PUSH1 0x1 PUSH1 0xA0 SHL SUB AND CALLER EQ PUSH2 0x5DC JUMPI PUSH1 0x40 MLOAD PUSH3 0x461BCD PUSH1 0xE5 SHL DUP2 MSTORE PUSH1 0x4 ADD PUSH2 0x5D3 SWAP2 SWAP1 PUSH2 0x1689 JUMP JUMPDEST PUSH1 0x40 MLOAD DUP1 SWAP2 SUB SWAP1 REVERT JUMPDEST POP PUSH1 0x5 DUP1 SLOAD PUSH1 0x6 DUP1 SLOAD PUSH1 0x1 PUSH1 0x1 PUSH1 0xA0 SHL SUB NOT DUP1 DUP5 AND PUSH1 0x1 PUSH1 0x1 PUSH1 0xA0 SHL SUB DUP1 DUP5 AND SWAP2 SWAP1 SWAP2 OR SWAP1 SWAP6 SSTORE AND SWAP1 SSTORE PUSH1 0x40 DUP1 MLOAD SWAP3 SWAP1 SWAP2 AND DUP1 DUP4 MSTORE CALLER PUSH1 0x20 DUP5 ADD MSTORE SWAP2 PUSH32 0xDE4B3F61490B74C0ED6237523974FE299126BBBF8A8A7482FD220104C59B0C84 SWAP2 ADD JUMPDEST PUSH1 0x40 MLOAD DUP1 SWAP2 SUB SWAP1 LOG1 POP JUMP JUMPDEST PUSH1 0x0 PUSH2 0x654 DUP5 DUP5 DUP5 PUSH2 0xE5C JUMP JUMPDEST PUSH1 0x1 PUSH1 0x1 PUSH1 0xA0 SHL SUB DUP5 AND PUSH1 0x0 SWAP1 DUP2 MSTORE PUSH1 0x1 PUSH1 0x20 SWAP1 DUP2 MSTORE PUSH1 0x40 DUP1 DUP4 KECCAK256 CALLER DUP5 MSTORE SWAP1 SWAP2 MSTORE SWAP1 KECCAK256 SLOAD DUP3 DUP2 LT ISZERO PUSH2 0x6D9 JUMPI PUSH1 0x40 MLOAD PUSH3 0x461BCD PUSH1 0xE5 SHL DUP2 MSTORE PUSH1 0x20 PUSH1 0x4 DUP3 ADD MSTORE PUSH1 0x28 PUSH1 0x24 DUP3 ADD MSTORE PUSH32 0x45524332303A207472616E7366657220616D6F756E7420657863656564732061 PUSH1 0x44 DUP3 ADD MSTORE PUSH8 0x6C6C6F77616E6365 PUSH1 0xC0 SHL PUSH1 0x64 DUP3 ADD MSTORE PUSH1 0x84 ADD PUSH2 0x5D3 JUMP JUMPDEST PUSH2 0x6E6 DUP6 CALLER DUP6 DUP5 SUB PUSH2 0xD37 JUMP JUMPDEST PUSH1 0x1 SWAP2 POP POP JUMPDEST SWAP4 SWAP3 POP POP POP JUMP JUMPDEST PUSH1 0x0 PUSH32 0x0 PUSH1 0x1 PUSH1 0x1 PUSH1 0xA0 SHL SUB AND PUSH4 0x313CE567 PUSH1 0x40 MLOAD DUP2 PUSH4 0xFFFFFFFF AND PUSH1 0xE0 SHL DUP2 MSTORE PUSH1 0x4 ADD PUSH1 0x20 PUSH1 0x40 MLOAD DUP1 DUP4 SUB DUP2 DUP7 GAS STATICCALL ISZERO DUP1 ISZERO PUSH2 0x753 JUMPI RETURNDATASIZE PUSH1 0x0 DUP1 RETURNDATACOPY RETURNDATASIZE PUSH1 0x0 REVERT JUMPDEST POP POP POP POP PUSH1 0x40 MLOAD RETURNDATASIZE PUSH1 0x1F NOT PUSH1 0x1F DUP3 ADD AND DUP3 ADD DUP1 PUSH1 0x40 MSTORE POP DUP2 ADD SWAP1 PUSH2 0x777 SWAP2 SWAP1 PUSH2 0x1897 JUMP JUMPDEST SWAP1 POP SWAP1 JUMP JUMPDEST PUSH1 0x5 SLOAD PUSH1 0x40 DUP1 MLOAD DUP1 DUP3 ADD SWAP1 SWAP2 MSTORE PUSH1 0x2 DUP2 MSTORE PUSH2 0x333 PUSH1 0xF4 SHL PUSH1 0x20 DUP3 ADD MSTORE SWAP1 PUSH1 0x1 PUSH1 0x1 PUSH1 0xA0 SHL SUB AND CALLER EQ PUSH2 0x7C1 JUMPI PUSH1 0x40 MLOAD PUSH3 0x461BCD PUSH1 0xE5 SHL DUP2 MSTORE PUSH1 0x4 ADD PUSH2 0x5D3 SWAP2 SWAP1 PUSH2 0x1689 JUMP JUMPDEST POP PUSH1 0x7 DUP1 SLOAD PUSH1 0x1 PUSH1 0x1 PUSH1 0xA0 SHL SUB NOT AND PUSH1 0x1 PUSH1 0x1 PUSH1 0xA0 SHL SUB SWAP3 SWAP1 SWAP3 AND SWAP2 SWAP1 SWAP2 OR SWAP1 SSTORE JUMP JUMPDEST CALLER PUSH1 0x0 DUP2 DUP2 MSTORE PUSH1 0x1 PUSH1 0x20 SWAP1 DUP2 MSTORE PUSH1 0x40 DUP1 DUP4 KECCAK256 PUSH1 0x1 PUSH1 0x1 PUSH1 0xA0 SHL SUB DUP8 AND DUP5 MSTORE SWAP1 SWAP2 MSTORE DUP2 KECCAK256 SLOAD SWAP1 SWAP2 PUSH2 0x584 SWAP2 DUP6 SWAP1 PUSH2 0x81B SWAP1 DUP7 SWAP1 PUSH2 0x18D0 JUMP JUMPDEST PUSH2 0xD37 JUMP JUMPDEST PUSH1 0x0 PUSH2 0x777 PUSH1 0x0 PUSH2 0x102C JUMP JUMPDEST PUSH1 0x0 DUP1 DUP4 GT PUSH1 0x40 MLOAD DUP1 PUSH1 0x40 ADD PUSH1 0x40 MSTORE DUP1 PUSH1 0x2 DUP2 MSTORE PUSH1 0x20 ADD PUSH2 0x3331 PUSH1 0xF0 SHL DUP2 MSTORE POP SWAP1 PUSH2 0x86A JUMPI PUSH1 0x40 MLOAD PUSH3 0x461BCD PUSH1 0xE5 SHL DUP2 MSTORE PUSH1 0x4 ADD PUSH2 0x5D3 SWAP2 SWAP1 PUSH2 0x1689 JUMP JUMPDEST POP CALLER PUSH1 0x0 SWAP1 DUP2 MSTORE PUSH1 0x20 DUP2 SWAP1 MSTORE PUSH1 0x40 DUP2 KECCAK256 SLOAD SWAP1 POP DUP4 DUP2 LT ISZERO PUSH1 0x40 MLOAD DUP1 PUSH1 0x40 ADD PUSH1 0x40 MSTORE DUP1 PUSH1 0x2 DUP2 MSTORE PUSH1 0x20 ADD PUSH2 0xCCD PUSH1 0xF2 SHL DUP2 MSTORE POP SWAP1 PUSH2 0x8BA JUMPI PUSH1 0x40 MLOAD PUSH3 0x461BCD PUSH1 0xE5 SHL DUP2 MSTORE PUSH1 0x4 ADD PUSH2 0x5D3 SWAP2 SWAP1 PUSH2 0x1689 JUMP JUMPDEST POP PUSH1 0x0 PUSH2 0x8C5 PUSH2 0x820 JUMP JUMPDEST SWAP1 POP PUSH2 0x8D1 DUP6 DUP3 PUSH2 0x1082 JUMP JUMPDEST SWAP3 POP DUP4 DUP4 LT ISZERO PUSH1 0x40 MLOAD DUP1 PUSH1 0x40 ADD PUSH1 0x40 MSTORE DUP1 PUSH1 0x1 DUP2 MSTORE PUSH1 0x20 ADD PUSH1 0x19 PUSH1 0xF9 SHL DUP2 MSTORE POP SWAP1 PUSH2 0x90F JUMPI PUSH1 0x40 MLOAD PUSH3 0x461BCD PUSH1 0xE5 SHL DUP2 MSTORE PUSH1 0x4 ADD PUSH2 0x5D3 SWAP2 SWAP1 PUSH2 0x1689 JUMP JUMPDEST POP PUSH2 0x91A CALLER DUP7 PUSH2 0x10A3 JUMP JUMPDEST PUSH2 0x94E PUSH1 0x1 PUSH1 0x1 PUSH1 0xA0 SHL SUB PUSH32 0x0 AND CALLER DUP6 PUSH2 0x11EE JUMP JUMPDEST POP POP SWAP3 SWAP2 POP POP JUMP JUMPDEST PUSH1 0x0 DUP1 PUSH2 0x963 PUSH1 0x1 PUSH2 0x102C JUMP JUMPDEST SWAP1 POP PUSH2 0x99A PUSH1 0x1 PUSH1 0x1 PUSH1 0xA0 SHL SUB PUSH32 0x0 AND CALLER ADDRESS DUP8 PUSH2 0x1251 JUMP JUMPDEST PUSH2 0x9A4 DUP5 DUP3 PUSH2 0x1289 JUMP JUMPDEST SWAP2 POP DUP3 DUP3 LT ISZERO PUSH1 0x40 MLOAD DUP1 PUSH1 0x40 ADD PUSH1 0x40 MSTORE DUP1 PUSH1 0x1 DUP2 MSTORE PUSH1 0x20 ADD PUSH1 0x19 PUSH1 0xF9 SHL DUP2 MSTORE POP SWAP1 PUSH2 0x9E2 JUMPI PUSH1 0x40 MLOAD PUSH3 0x461BCD PUSH1 0xE5 SHL DUP2 MSTORE PUSH1 0x4 ADD PUSH2 0x5D3 SWAP2 SWAP1 PUSH2 0x1689 JUMP JUMPDEST POP PUSH2 0x9ED DUP6 DUP4 PUSH2 0x12F9 JUMP JUMPDEST POP SWAP4 SWAP3 POP POP POP JUMP JUMPDEST PUSH1 0x0 PUSH1 0x60 PUSH1 0x0 PUSH2 0xA05 PUSH1 0x1 PUSH2 0x102C JUMP JUMPDEST SWAP1 POP PUSH2 0xA11 DUP6 DUP3 PUSH2 0x1289 JUMP JUMPDEST SWAP3 POP DUP4 DUP4 LT ISZERO PUSH2 0xA38 JUMPI PUSH1 0x40 MLOAD DUP1 PUSH1 0x40 ADD PUSH1 0x40 MSTORE DUP1 PUSH1 0x1 DUP2 MSTORE PUSH1 0x20 ADD PUSH1 0x19 PUSH1 0xF9 SHL DUP2 MSTORE POP SWAP2 POP JUMPDEST POP SWAP3 POP SWAP3 SWAP1 POP JUMP JUMPDEST PUSH1 0x60 PUSH1 0x4 DUP1 SLOAD PUSH2 0x4F4 SWAP1 PUSH2 0x185C JUMP JUMPDEST CALLER PUSH1 0x0 SWAP1 DUP2 MSTORE PUSH1 0x1 PUSH1 0x20 SWAP1 DUP2 MSTORE PUSH1 0x40 DUP1 DUP4 KECCAK256 PUSH1 0x1 PUSH1 0x1 PUSH1 0xA0 SHL SUB DUP7 AND DUP5 MSTORE SWAP1 SWAP2 MSTORE DUP2 KECCAK256 SLOAD DUP3 DUP2 LT ISZERO PUSH2 0xAD1 JUMPI PUSH1 0x40 MLOAD PUSH3 0x461BCD PUSH1 0xE5 SHL DUP2 MSTORE PUSH1 0x20 PUSH1 0x4 DUP3 ADD MSTORE PUSH1 0x25 PUSH1 0x24 DUP3 ADD MSTORE PUSH32 0x45524332303A2064656372656173656420616C6C6F77616E63652062656C6F77 PUSH1 0x44 DUP3 ADD MSTORE PUSH5 0x207A65726F PUSH1 0xD8 SHL PUSH1 0x64 DUP3 ADD MSTORE PUSH1 0x84 ADD PUSH2 0x5D3 JUMP JUMPDEST PUSH2 0xADE CALLER DUP6 DUP6 DUP5 SUB PUSH2 0xD37 JUMP JUMPDEST POP PUSH1 0x1 SWAP4 SWAP3 POP POP POP JUMP JUMPDEST PUSH1 0x0 PUSH2 0x584 CALLER DUP5 DUP5 PUSH2 0xE5C JUMP JUMPDEST PUSH1 0x40 MLOAD PUSH4 0x1F29A8CD PUSH1 0xE3 SHL DUP2 MSTORE PUSH32 0x0 PUSH1 0x4 DUP3 ADD MSTORE PUSH1 0x60 SWAP1 PUSH1 0x0 SWAP1 PUSH1 0x1 PUSH1 0x1 PUSH1 0xA0 SHL SUB PUSH32 0x0 AND SWAP1 PUSH4 0xF94D4668 SWAP1 PUSH1 0x24 ADD PUSH1 0x0 PUSH1 0x40 MLOAD DUP1 DUP4 SUB DUP2 DUP7 GAS STATICCALL ISZERO DUP1 ISZERO PUSH2 0xB7F JUMPI RETURNDATASIZE PUSH1 0x0 DUP1 RETURNDATACOPY RETURNDATASIZE PUSH1 0x0 REVERT JUMPDEST POP POP POP POP PUSH1 0x40 MLOAD RETURNDATASIZE PUSH1 0x0 DUP3 RETURNDATACOPY PUSH1 0x1F RETURNDATASIZE SWAP1 DUP2 ADD PUSH1 0x1F NOT AND DUP3 ADD PUSH1 0x40 MSTORE PUSH2 0xBA7 SWAP2 SWAP1 DUP2 ADD SWAP1 PUSH2 0x19BE JUMP JUMPDEST POP SWAP1 SWAP4 SWAP3 POP POP POP JUMP JUMPDEST PUSH1 0x40 MLOAD PUSH4 0x70A08231 PUSH1 0xE0 SHL DUP2 MSTORE ADDRESS PUSH1 0x4 DUP3 ADD MSTORE PUSH1 0x0 SWAP1 PUSH32 0x0 PUSH1 0x1 PUSH1 0x1 PUSH1 0xA0 SHL SUB AND SWAP1 PUSH4 0x70A08231 SWAP1 PUSH1 0x24 ADD PUSH1 0x20 PUSH1 0x40 MLOAD DUP1 DUP4 SUB DUP2 DUP7 GAS STATICCALL ISZERO DUP1 ISZERO PUSH2 0xC17 JUMPI RETURNDATASIZE PUSH1 0x0 DUP1 RETURNDATACOPY RETURNDATASIZE PUSH1 0x0 REVERT JUMPDEST POP POP POP POP PUSH1 0x40 MLOAD RETURNDATASIZE PUSH1 0x1F NOT PUSH1 0x1F DUP3 ADD AND DUP3 ADD DUP1 PUSH1 0x40 MSTORE POP DUP2 ADD SWAP1 PUSH2 0x777 SWAP2 SWAP1 PUSH2 0x1A8C JUMP JUMPDEST PUSH1 0x0 PUSH1 0x60 PUSH1 0x0 PUSH2 0xC49 PUSH2 0x820 JUMP JUMPDEST SWAP1 POP PUSH2 0xA11 DUP6 DUP3 PUSH2 0x1082 JUMP JUMPDEST PUSH1 0x0 PUSH2 0x6EC CALLER DUP5 DUP5 PUSH2 0x956 JUMP JUMPDEST PUSH1 0x5 SLOAD PUSH1 0x40 DUP1 MLOAD DUP1 DUP3 ADD SWAP1 SWAP2 MSTORE PUSH1 0x2 DUP2 MSTORE PUSH2 0x333 PUSH1 0xF4 SHL PUSH1 0x20 DUP3 ADD MSTORE SWAP1 PUSH1 0x1 PUSH1 0x1 PUSH1 0xA0 SHL SUB AND CALLER EQ PUSH2 0xCA7 JUMPI PUSH1 0x40 MLOAD PUSH3 0x461BCD PUSH1 0xE5 SHL DUP2 MSTORE PUSH1 0x4 ADD PUSH2 0x5D3 SWAP2 SWAP1 PUSH2 0x1689 JUMP JUMPDEST POP PUSH1 0x40 DUP1 MLOAD DUP1 DUP3 ADD SWAP1 SWAP2 MSTORE PUSH1 0x2 DUP2 MSTORE PUSH2 0x3331 PUSH1 0xF0 SHL PUSH1 0x20 DUP3 ADD MSTORE PUSH1 0x1 PUSH1 0x1 PUSH1 0xA0 SHL SUB DUP3 AND PUSH2 0xCE8 JUMPI PUSH1 0x40 MLOAD PUSH3 0x461BCD PUSH1 0xE5 SHL DUP2 MSTORE PUSH1 0x4 ADD PUSH2 0x5D3 SWAP2 SWAP1 PUSH2 0x1689 JUMP JUMPDEST POP PUSH1 0x6 DUP1 SLOAD PUSH1 0x1 PUSH1 0x1 PUSH1 0xA0 SHL SUB NOT AND PUSH1 0x1 PUSH1 0x1 PUSH1 0xA0 SHL SUB DUP4 AND SWAP1 DUP2 OR SWAP1 SWAP2 SSTORE PUSH1 0x40 MLOAD SWAP1 DUP2 MSTORE PUSH32 0x67235BA2E63C748A35B95C4F92A3BBC2A1389938170A5CE6C9ADD5D0B03A314A SWAP1 PUSH1 0x20 ADD PUSH2 0x63C JUMP JUMPDEST PUSH1 0x1 PUSH1 0x1 PUSH1 0xA0 SHL SUB DUP4 AND PUSH2 0xD99 JUMPI PUSH1 0x40 MLOAD PUSH3 0x461BCD PUSH1 0xE5 SHL DUP2 MSTORE PUSH1 0x20 PUSH1 0x4 DUP3 ADD MSTORE PUSH1 0x24 DUP1 DUP3 ADD MSTORE PUSH32 0x45524332303A20617070726F76652066726F6D20746865207A65726F20616464 PUSH1 0x44 DUP3 ADD MSTORE PUSH4 0x72657373 PUSH1 0xE0 SHL PUSH1 0x64 DUP3 ADD MSTORE PUSH1 0x84 ADD PUSH2 0x5D3 JUMP JUMPDEST PUSH1 0x1 PUSH1 0x1 PUSH1 0xA0 SHL SUB DUP3 AND PUSH2 0xDFA JUMPI PUSH1 0x40 MLOAD PUSH3 0x461BCD PUSH1 0xE5 SHL DUP2 MSTORE PUSH1 0x20 PUSH1 0x4 DUP3 ADD MSTORE PUSH1 0x22 PUSH1 0x24 DUP3 ADD MSTORE PUSH32 0x45524332303A20617070726F766520746F20746865207A65726F206164647265 PUSH1 0x44 DUP3 ADD MSTORE PUSH2 0x7373 PUSH1 0xF0 SHL PUSH1 0x64 DUP3 ADD MSTORE PUSH1 0x84 ADD PUSH2 0x5D3 JUMP JUMPDEST PUSH1 0x1 PUSH1 0x1 PUSH1 0xA0 SHL SUB DUP4 DUP2 AND PUSH1 0x0 DUP2 DUP2 MSTORE PUSH1 0x1 PUSH1 0x20 SWAP1 DUP2 MSTORE PUSH1 0x40 DUP1 DUP4 KECCAK256 SWAP5 DUP8 AND DUP1 DUP5 MSTORE SWAP5 DUP3 MSTORE SWAP2 DUP3 SWAP1 KECCAK256 DUP6 SWAP1 SSTORE SWAP1 MLOAD DUP5 DUP2 MSTORE PUSH32 0x8C5BE1E5EBEC7D5BD14F71427D1E84F3DD0314C0F7B2291E5B200AC8C7C3B925 SWAP2 ADD JUMPDEST PUSH1 0x40 MLOAD DUP1 SWAP2 SUB SWAP1 LOG3 POP POP POP JUMP JUMPDEST PUSH1 0x1 PUSH1 0x1 PUSH1 0xA0 SHL SUB DUP4 AND PUSH2 0xEC0 JUMPI PUSH1 0x40 MLOAD PUSH3 0x461BCD PUSH1 0xE5 SHL DUP2 MSTORE PUSH1 0x20 PUSH1 0x4 DUP3 ADD MSTORE PUSH1 0x25 PUSH1 0x24 DUP3 ADD MSTORE PUSH32 0x45524332303A207472616E736665722066726F6D20746865207A65726F206164 PUSH1 0x44 DUP3 ADD MSTORE PUSH5 0x6472657373 PUSH1 0xD8 SHL PUSH1 0x64 DUP3 ADD MSTORE PUSH1 0x84 ADD PUSH2 0x5D3 JUMP JUMPDEST PUSH1 0x1 PUSH1 0x1 PUSH1 0xA0 SHL SUB DUP3 AND PUSH2 0xF22 JUMPI PUSH1 0x40 MLOAD PUSH3 0x461BCD PUSH1 0xE5 SHL DUP2 MSTORE PUSH1 0x20 PUSH1 0x4 DUP3 ADD MSTORE PUSH1 0x23 PUSH1 0x24 DUP3 ADD MSTORE PUSH32 0x45524332303A207472616E7366657220746F20746865207A65726F2061646472 PUSH1 0x44 DUP3 ADD MSTORE PUSH3 0x657373 PUSH1 0xE8 SHL PUSH1 0x64 DUP3 ADD MSTORE PUSH1 0x84 ADD PUSH2 0x5D3 JUMP JUMPDEST PUSH1 0x1 PUSH1 0x1 PUSH1 0xA0 SHL SUB DUP4 AND PUSH1 0x0 SWAP1 DUP2 MSTORE PUSH1 0x20 DUP2 SWAP1 MSTORE PUSH1 0x40 SWAP1 KECCAK256 SLOAD DUP2 DUP2 LT ISZERO PUSH2 0xF9A JUMPI PUSH1 0x40 MLOAD PUSH3 0x461BCD PUSH1 0xE5 SHL DUP2 MSTORE PUSH1 0x20 PUSH1 0x4 DUP3 ADD MSTORE PUSH1 0x26 PUSH1 0x24 DUP3 ADD MSTORE PUSH32 0x45524332303A207472616E7366657220616D6F756E7420657863656564732062 PUSH1 0x44 DUP3 ADD MSTORE PUSH6 0x616C616E6365 PUSH1 0xD0 SHL PUSH1 0x64 DUP3 ADD MSTORE PUSH1 0x84 ADD PUSH2 0x5D3 JUMP JUMPDEST PUSH1 0x1 PUSH1 0x1 PUSH1 0xA0 SHL SUB DUP1 DUP6 AND PUSH1 0x0 SWAP1 DUP2 MSTORE PUSH1 0x20 DUP2 SWAP1 MSTORE PUSH1 0x40 DUP1 DUP3 KECCAK256 DUP6 DUP6 SUB SWAP1 SSTORE SWAP2 DUP6 AND DUP2 MSTORE SWAP1 DUP2 KECCAK256 DUP1 SLOAD DUP5 SWAP3 SWAP1 PUSH2 0xFD1 SWAP1 DUP5 SWAP1 PUSH2 0x18D0 JUMP JUMPDEST SWAP3 POP POP DUP2 SWAP1 SSTORE POP DUP3 PUSH1 0x1 PUSH1 0x1 PUSH1 0xA0 SHL SUB AND DUP5 PUSH1 0x1 PUSH1 0x1 PUSH1 0xA0 SHL SUB AND PUSH32 0xDDF252AD1BE2C89B69C2B068FC378DAA952BA7F163C4A11628F55A4DF523B3EF DUP5 PUSH1 0x40 MLOAD PUSH2 0x101D SWAP2 DUP2 MSTORE PUSH1 0x20 ADD SWAP1 JUMP JUMPDEST PUSH1 0x40 MLOAD DUP1 SWAP2 SUB SWAP1 LOG3 JUMPDEST POP POP POP POP JUMP JUMPDEST PUSH1 0x0 DUP1 PUSH2 0x1037 PUSH2 0xBB0 JUMP JUMPDEST SWAP1 POP PUSH1 0x0 PUSH2 0x1044 PUSH1 0x2 SLOAD SWAP1 JUMP JUMPDEST SWAP1 POP DUP1 PUSH2 0x105C JUMPI POP PUSH8 0xDE0B6B3A7640000 SWAP4 SWAP3 POP POP POP JUMP JUMPDEST DUP4 PUSH2 0x1070 JUMPI PUSH2 0x106B DUP3 DUP3 PUSH2 0x1289 JUMP JUMPDEST PUSH2 0x107A JUMP JUMPDEST PUSH2 0x107A DUP3 DUP3 PUSH2 0x13D8 JUMP JUMPDEST SWAP5 SWAP4 POP POP POP POP JUMP JUMPDEST PUSH1 0x0 DUP1 PUSH2 0x108F DUP4 DUP6 PUSH2 0x1AA5 JUMP JUMPDEST SWAP1 POP PUSH2 0x107A PUSH8 0xDE0B6B3A7640000 DUP3 PUSH2 0x1ADA JUMP JUMPDEST PUSH1 0x1 PUSH1 0x1 PUSH1 0xA0 SHL SUB DUP3 AND PUSH2 0x1103 JUMPI PUSH1 0x40 MLOAD PUSH3 0x461BCD PUSH1 0xE5 SHL DUP2 MSTORE PUSH1 0x20 PUSH1 0x4 DUP3 ADD MSTORE PUSH1 0x21 PUSH1 0x24 DUP3 ADD MSTORE PUSH32 0x45524332303A206275726E2066726F6D20746865207A65726F20616464726573 PUSH1 0x44 DUP3 ADD MSTORE PUSH1 0x73 PUSH1 0xF8 SHL PUSH1 0x64 DUP3 ADD MSTORE PUSH1 0x84 ADD PUSH2 0x5D3 JUMP JUMPDEST PUSH1 0x1 PUSH1 0x1 PUSH1 0xA0 SHL SUB DUP3 AND PUSH1 0x0 SWAP1 DUP2 MSTORE PUSH1 0x20 DUP2 SWAP1 MSTORE PUSH1 0x40 SWAP1 KECCAK256 SLOAD DUP2 DUP2 LT ISZERO PUSH2 0x1177 JUMPI PUSH1 0x40 MLOAD PUSH3 0x461BCD PUSH1 0xE5 SHL DUP2 MSTORE PUSH1 0x20 PUSH1 0x4 DUP3 ADD MSTORE PUSH1 0x22 PUSH1 0x24 DUP3 ADD MSTORE PUSH32 0x45524332303A206275726E20616D6F756E7420657863656564732062616C616E PUSH1 0x44 DUP3 ADD MSTORE PUSH2 0x6365 PUSH1 0xF0 SHL PUSH1 0x64 DUP3 ADD MSTORE PUSH1 0x84 ADD PUSH2 0x5D3 JUMP JUMPDEST PUSH1 0x1 PUSH1 0x1 PUSH1 0xA0 SHL SUB DUP4 AND PUSH1 0x0 SWAP1 DUP2 MSTORE PUSH1 0x20 DUP2 SWAP1 MSTORE PUSH1 0x40 DUP2 KECCAK256 DUP4 DUP4 SUB SWAP1 SSTORE PUSH1 0x2 DUP1 SLOAD DUP5 SWAP3 SWAP1 PUSH2 0x11A6 SWAP1 DUP5 SWAP1 PUSH2 0x1AFC JUMP JUMPDEST SWAP1 SWAP2 SSTORE POP POP PUSH1 0x40 MLOAD DUP3 DUP2 MSTORE PUSH1 0x0 SWAP1 PUSH1 0x1 PUSH1 0x1 PUSH1 0xA0 SHL SUB DUP6 AND SWAP1 PUSH32 0xDDF252AD1BE2C89B69C2B068FC378DAA952BA7F163C4A11628F55A4DF523B3EF SWAP1 PUSH1 0x20 ADD PUSH2 0xE4F JUMP JUMPDEST POP POP POP JUMP JUMPDEST PUSH1 0x40 MLOAD PUSH1 0x1 PUSH1 0x1 PUSH1 0xA0 SHL SUB DUP4 AND PUSH1 0x24 DUP3 ADD MSTORE PUSH1 0x44 DUP2 ADD DUP3 SWAP1 MSTORE PUSH2 0x11E9 SWAP1 DUP5 SWAP1 PUSH4 0xA9059CBB PUSH1 0xE0 SHL SWAP1 PUSH1 0x64 ADD JUMPDEST PUSH1 0x40 DUP1 MLOAD PUSH1 0x1F NOT DUP2 DUP5 SUB ADD DUP2 MSTORE SWAP2 SWAP1 MSTORE PUSH1 0x20 DUP2 ADD DUP1 MLOAD PUSH1 0x1 PUSH1 0x1 PUSH1 0xE0 SHL SUB AND PUSH1 0x1 PUSH1 0x1 PUSH1 0xE0 SHL SUB NOT SWAP1 SWAP4 AND SWAP3 SWAP1 SWAP3 OR SWAP1 SWAP2 MSTORE PUSH2 0x1454 JUMP JUMPDEST PUSH1 0x40 MLOAD PUSH1 0x1 PUSH1 0x1 PUSH1 0xA0 SHL SUB DUP1 DUP6 AND PUSH1 0x24 DUP4 ADD MSTORE DUP4 AND PUSH1 0x44 DUP3 ADD MSTORE PUSH1 0x64 DUP2 ADD DUP3 SWAP1 MSTORE PUSH2 0x1026 SWAP1 DUP6 SWAP1 PUSH4 0x23B872DD PUSH1 0xE0 SHL SWAP1 PUSH1 0x84 ADD PUSH2 0x121A JUMP JUMPDEST PUSH1 0x40 DUP1 MLOAD DUP1 DUP3 ADD SWAP1 SWAP2 MSTORE PUSH1 0x2 DUP2 MSTORE PUSH2 0x3235 PUSH1 0xF0 SHL PUSH1 0x20 DUP3 ADD MSTORE PUSH1 0x0 SWAP1 DUP3 PUSH2 0x12C3 JUMPI PUSH1 0x40 MLOAD PUSH3 0x461BCD PUSH1 0xE5 SHL DUP2 MSTORE PUSH1 0x4 ADD PUSH2 0x5D3 SWAP2 SWAP1 PUSH2 0x1689 JUMP JUMPDEST POP DUP3 PUSH2 0x12D1 JUMPI POP PUSH1 0x0 PUSH2 0x588 JUMP JUMPDEST PUSH1 0x0 PUSH2 0x12E5 PUSH8 0xDE0B6B3A7640000 DUP6 PUSH2 0x1AA5 JUMP JUMPDEST SWAP1 POP PUSH2 0x12F1 DUP4 DUP3 PUSH2 0x1ADA JUMP JUMPDEST SWAP2 POP POP PUSH2 0x588 JUMP JUMPDEST PUSH1 0x1 PUSH1 0x1 PUSH1 0xA0 SHL SUB DUP3 AND PUSH2 0x134F JUMPI PUSH1 0x40 MLOAD PUSH3 0x461BCD PUSH1 0xE5 SHL DUP2 MSTORE PUSH1 0x20 PUSH1 0x4 DUP3 ADD MSTORE PUSH1 0x1F PUSH1 0x24 DUP3 ADD MSTORE PUSH32 0x45524332303A206D696E7420746F20746865207A65726F206164647265737300 PUSH1 0x44 DUP3 ADD MSTORE PUSH1 0x64 ADD PUSH2 0x5D3 JUMP JUMPDEST DUP1 PUSH1 0x2 PUSH1 0x0 DUP3 DUP3 SLOAD PUSH2 0x1361 SWAP2 SWAP1 PUSH2 0x18D0 JUMP JUMPDEST SWAP1 SWAP2 SSTORE POP POP PUSH1 0x1 PUSH1 0x1 PUSH1 0xA0 SHL SUB DUP3 AND PUSH1 0x0 SWAP1 DUP2 MSTORE PUSH1 0x20 DUP2 SWAP1 MSTORE PUSH1 0x40 DUP2 KECCAK256 DUP1 SLOAD DUP4 SWAP3 SWAP1 PUSH2 0x138E SWAP1 DUP5 SWAP1 PUSH2 0x18D0 JUMP JUMPDEST SWAP1 SWAP2 SSTORE POP POP PUSH1 0x40 MLOAD DUP2 DUP2 MSTORE PUSH1 0x1 PUSH1 0x1 PUSH1 0xA0 SHL SUB DUP4 AND SWAP1 PUSH1 0x0 SWAP1 PUSH32 0xDDF252AD1BE2C89B69C2B068FC378DAA952BA7F163C4A11628F55A4DF523B3EF SWAP1 PUSH1 0x20 ADD PUSH1 0x40 MLOAD DUP1 SWAP2 SUB SWAP1 LOG3 POP POP JUMP JUMPDEST PUSH1 0x40 DUP1 MLOAD DUP1 DUP3 ADD SWAP1 SWAP2 MSTORE PUSH1 0x2 DUP2 MSTORE PUSH2 0x3235 PUSH1 0xF0 SHL PUSH1 0x20 DUP3 ADD MSTORE PUSH1 0x0 SWAP1 DUP3 PUSH2 0x1412 JUMPI PUSH1 0x40 MLOAD PUSH3 0x461BCD PUSH1 0xE5 SHL DUP2 MSTORE PUSH1 0x4 ADD PUSH2 0x5D3 SWAP2 SWAP1 PUSH2 0x1689 JUMP JUMPDEST POP DUP3 PUSH2 0x1420 JUMPI POP PUSH1 0x0 PUSH2 0x588 JUMP JUMPDEST PUSH1 0x0 PUSH2 0x1434 PUSH8 0xDE0B6B3A7640000 DUP6 PUSH2 0x1AA5 JUMP JUMPDEST SWAP1 POP DUP3 PUSH1 0x1 DUP3 SUB DUP2 PUSH2 0x1448 JUMPI PUSH2 0x1448 PUSH2 0x1AC4 JUMP JUMPDEST DIV PUSH1 0x1 ADD SWAP2 POP POP PUSH2 0x588 JUMP JUMPDEST PUSH1 0x0 PUSH2 0x14A9 DUP3 PUSH1 0x40 MLOAD DUP1 PUSH1 0x40 ADD PUSH1 0x40 MSTORE DUP1 PUSH1 0x20 DUP2 MSTORE PUSH1 0x20 ADD PUSH32 0x5361666545524332303A206C6F772D6C6576656C2063616C6C206661696C6564 DUP2 MSTORE POP DUP6 PUSH1 0x1 PUSH1 0x1 PUSH1 0xA0 SHL SUB AND PUSH2 0x1526 SWAP1 SWAP3 SWAP2 SWAP1 PUSH4 0xFFFFFFFF AND JUMP JUMPDEST DUP1 MLOAD SWAP1 SWAP2 POP ISZERO PUSH2 0x11E9 JUMPI DUP1 DUP1 PUSH1 0x20 ADD SWAP1 MLOAD DUP2 ADD SWAP1 PUSH2 0x14C7 SWAP2 SWAP1 PUSH2 0x1B13 JUMP JUMPDEST PUSH2 0x11E9 JUMPI PUSH1 0x40 MLOAD PUSH3 0x461BCD PUSH1 0xE5 SHL DUP2 MSTORE PUSH1 0x20 PUSH1 0x4 DUP3 ADD MSTORE PUSH1 0x2A PUSH1 0x24 DUP3 ADD MSTORE PUSH32 0x5361666545524332303A204552433230206F7065726174696F6E20646964206E PUSH1 0x44 DUP3 ADD MSTORE PUSH10 0x1BDD081CDD58D8D95959 PUSH1 0xB2 SHL PUSH1 0x64 DUP3 ADD MSTORE PUSH1 0x84 ADD PUSH2 0x5D3 JUMP JUMPDEST PUSH1 0x60 PUSH2 0x107A DUP5 DUP5 PUSH1 0x0 DUP6 DUP6 DUP5 EXTCODESIZE PUSH2 0x157F JUMPI PUSH1 0x40 MLOAD PUSH3 0x461BCD PUSH1 0xE5 SHL DUP2 MSTORE PUSH1 0x20 PUSH1 0x4 DUP3 ADD MSTORE PUSH1 0x1D PUSH1 0x24 DUP3 ADD MSTORE PUSH32 0x416464726573733A2063616C6C20746F206E6F6E2D636F6E7472616374000000 PUSH1 0x44 DUP3 ADD MSTORE PUSH1 0x64 ADD PUSH2 0x5D3 JUMP JUMPDEST PUSH1 0x0 DUP1 DUP7 PUSH1 0x1 PUSH1 0x1 PUSH1 0xA0 SHL SUB AND DUP6 DUP8 PUSH1 0x40 MLOAD PUSH2 0x159B SWAP2 SWAP1 PUSH2 0x1B35 JUMP JUMPDEST PUSH1 0x0 PUSH1 0x40 MLOAD DUP1 DUP4 SUB DUP2 DUP6 DUP8 GAS CALL SWAP3 POP POP POP RETURNDATASIZE DUP1 PUSH1 0x0 DUP2 EQ PUSH2 0x15D8 JUMPI PUSH1 0x40 MLOAD SWAP2 POP PUSH1 0x1F NOT PUSH1 0x3F RETURNDATASIZE ADD AND DUP3 ADD PUSH1 0x40 MSTORE RETURNDATASIZE DUP3 MSTORE RETURNDATASIZE PUSH1 0x0 PUSH1 0x20 DUP5 ADD RETURNDATACOPY PUSH2 0x15DD JUMP JUMPDEST PUSH1 0x60 SWAP2 POP JUMPDEST POP SWAP2 POP SWAP2 POP PUSH2 0x15ED DUP3 DUP3 DUP7 PUSH2 0x15F8 JUMP JUMPDEST SWAP8 SWAP7 POP POP POP POP POP POP POP JUMP JUMPDEST PUSH1 0x60 DUP4 ISZERO PUSH2 0x1607 JUMPI POP DUP2 PUSH2 0x6EC JUMP JUMPDEST DUP3 MLOAD ISZERO PUSH2 0x1617 JUMPI DUP3 MLOAD DUP1 DUP5 PUSH1 0x20 ADD REVERT JUMPDEST DUP2 PUSH1 0x40 MLOAD PUSH3 0x461BCD PUSH1 0xE5 SHL DUP2 MSTORE PUSH1 0x4 ADD PUSH2 0x5D3 SWAP2 SWAP1 PUSH2 0x1689 JUMP JUMPDEST PUSH1 0x0 JUMPDEST DUP4 DUP2 LT ISZERO PUSH2 0x164C JUMPI DUP2 DUP2 ADD MLOAD DUP4 DUP3 ADD MSTORE PUSH1 0x20 ADD PUSH2 0x1634 JUMP JUMPDEST DUP4 DUP2 GT ISZERO PUSH2 0x1026 JUMPI POP POP PUSH1 0x0 SWAP2 ADD MSTORE JUMP JUMPDEST PUSH1 0x0 DUP2 MLOAD DUP1 DUP5 MSTORE PUSH2 0x1675 DUP2 PUSH1 0x20 DUP7 ADD PUSH1 0x20 DUP7 ADD PUSH2 0x1631 JUMP JUMPDEST PUSH1 0x1F ADD PUSH1 0x1F NOT AND SWAP3 SWAP1 SWAP3 ADD PUSH1 0x20 ADD SWAP3 SWAP2 POP POP JUMP JUMPDEST PUSH1 0x20 DUP2 MSTORE PUSH1 0x0 PUSH2 0x6EC PUSH1 0x20 DUP4 ADD DUP5 PUSH2 0x165D JUMP JUMPDEST PUSH1 0x1 PUSH1 0x1 PUSH1 0xA0 SHL SUB DUP2 AND DUP2 EQ PUSH2 0x16B1 JUMPI PUSH1 0x0 DUP1 REVERT JUMPDEST POP JUMP JUMPDEST PUSH1 0x0 DUP1 PUSH1 0x40 DUP4 DUP6 SUB SLT ISZERO PUSH2 0x16C7 JUMPI PUSH1 0x0 DUP1 REVERT JUMPDEST DUP3 CALLDATALOAD PUSH2 0x16D2 DUP2 PUSH2 0x169C JUMP JUMPDEST SWAP5 PUSH1 0x20 SWAP4 SWAP1 SWAP4 ADD CALLDATALOAD SWAP4 POP POP POP JUMP JUMPDEST PUSH1 0x0 DUP1 PUSH1 0x0 PUSH1 0x60 DUP5 DUP7 SUB SLT ISZERO PUSH2 0x16F5 JUMPI PUSH1 0x0 DUP1 REVERT JUMPDEST DUP4 CALLDATALOAD PUSH2 0x1700 DUP2 PUSH2 0x169C JUMP JUMPDEST SWAP3 POP PUSH1 0x20 DUP5 ADD CALLDATALOAD PUSH2 0x1710 DUP2 PUSH2 0x169C JUMP JUMPDEST SWAP3 SWAP6 SWAP3 SWAP5 POP POP POP PUSH1 0x40 SWAP2 SWAP1 SWAP2 ADD CALLDATALOAD SWAP1 JUMP JUMPDEST PUSH1 0x0 PUSH1 0x20 DUP3 DUP5 SUB SLT ISZERO PUSH2 0x1733 JUMPI PUSH1 0x0 DUP1 REVERT JUMPDEST DUP2 CALLDATALOAD PUSH2 0x6EC DUP2 PUSH2 0x169C JUMP JUMPDEST PUSH1 0x0 DUP1 PUSH1 0x40 DUP4 DUP6 SUB SLT ISZERO PUSH2 0x1751 JUMPI PUSH1 0x0 DUP1 REVERT JUMPDEST POP POP DUP1 CALLDATALOAD SWAP3 PUSH1 0x20 SWAP1 SWAP2 ADD CALLDATALOAD SWAP2 POP JUMP JUMPDEST PUSH1 0x20 DUP2 ADD PUSH1 0x5 DUP4 LT PUSH2 0x1782 JUMPI PUSH4 0x4E487B71 PUSH1 0xE0 SHL PUSH1 0x0 MSTORE PUSH1 0x21 PUSH1 0x4 MSTORE PUSH1 0x24 PUSH1 0x0 REVERT JUMPDEST SWAP2 SWAP1 MSTORE SWAP1 JUMP JUMPDEST PUSH1 0x0 DUP1 PUSH1 0x0 PUSH1 0x60 DUP5 DUP7 SUB SLT ISZERO PUSH2 0x179D JUMPI PUSH1 0x0 DUP1 REVERT JUMPDEST DUP4 CALLDATALOAD PUSH2 0x17A8 DUP2 PUSH2 0x169C JUMP JUMPDEST SWAP6 PUSH1 0x20 DUP6 ADD CALLDATALOAD SWAP6 POP PUSH1 0x40 SWAP1 SWAP5 ADD CALLDATALOAD SWAP4 SWAP3 POP POP POP JUMP JUMPDEST DUP3 DUP2 MSTORE PUSH1 0x40 PUSH1 0x20 DUP3 ADD MSTORE PUSH1 0x0 PUSH2 0x107A PUSH1 0x40 DUP4 ADD DUP5 PUSH2 0x165D JUMP JUMPDEST PUSH1 0x20 DUP1 DUP3 MSTORE DUP3 MLOAD DUP3 DUP3 ADD DUP2 SWAP1 MSTORE PUSH1 0x0 SWAP2 SWAP1 DUP5 DUP3 ADD SWAP1 PUSH1 0x40 DUP6 ADD SWAP1 DUP5 JUMPDEST DUP2 DUP2 LT ISZERO PUSH2 0x1817 JUMPI DUP4 MLOAD PUSH1 0x1 PUSH1 0x1 PUSH1 0xA0 SHL SUB AND DUP4 MSTORE SWAP3 DUP5 ADD SWAP3 SWAP2 DUP5 ADD SWAP2 PUSH1 0x1 ADD PUSH2 0x17F2 JUMP JUMPDEST POP SWAP1 SWAP7 SWAP6 POP POP POP POP POP POP JUMP JUMPDEST PUSH1 0x0 DUP1 PUSH1 0x40 DUP4 DUP6 SUB SLT ISZERO PUSH2 0x1836 JUMPI PUSH1 0x0 DUP1 REVERT JUMPDEST DUP3 CALLDATALOAD PUSH2 0x1841 DUP2 PUSH2 0x169C JUMP JUMPDEST SWAP2 POP PUSH1 0x20 DUP4 ADD CALLDATALOAD PUSH2 0x1851 DUP2 PUSH2 0x169C JUMP JUMPDEST DUP1 SWAP2 POP POP SWAP3 POP SWAP3 SWAP1 POP JUMP JUMPDEST PUSH1 0x1 DUP2 DUP2 SHR SWAP1 DUP3 AND DUP1 PUSH2 0x1870 JUMPI PUSH1 0x7F DUP3 AND SWAP2 POP JUMPDEST PUSH1 0x20 DUP3 LT DUP2 EQ ISZERO PUSH2 0x1891 JUMPI PUSH4 0x4E487B71 PUSH1 0xE0 SHL PUSH1 0x0 MSTORE PUSH1 0x22 PUSH1 0x4 MSTORE PUSH1 0x24 PUSH1 0x0 REVERT JUMPDEST POP SWAP2 SWAP1 POP JUMP JUMPDEST PUSH1 0x0 PUSH1 0x20 DUP3 DUP5 SUB SLT ISZERO PUSH2 0x18A9 JUMPI PUSH1 0x0 DUP1 REVERT JUMPDEST DUP2 MLOAD PUSH1 0xFF DUP2 AND DUP2 EQ PUSH2 0x6EC JUMPI PUSH1 0x0 DUP1 REVERT JUMPDEST PUSH4 0x4E487B71 PUSH1 0xE0 SHL PUSH1 0x0 MSTORE PUSH1 0x11 PUSH1 0x4 MSTORE PUSH1 0x24 PUSH1 0x0 REVERT JUMPDEST PUSH1 0x0 DUP3 NOT DUP3 GT ISZERO PUSH2 0x18E3 JUMPI PUSH2 0x18E3 PUSH2 0x18BA JUMP JUMPDEST POP ADD SWAP1 JUMP JUMPDEST PUSH4 0x4E487B71 PUSH1 0xE0 SHL PUSH1 0x0 MSTORE PUSH1 0x41 PUSH1 0x4 MSTORE PUSH1 0x24 PUSH1 0x0 REVERT JUMPDEST PUSH1 0x40 MLOAD PUSH1 0x1F DUP3 ADD PUSH1 0x1F NOT AND DUP2 ADD PUSH8 0xFFFFFFFFFFFFFFFF DUP2 GT DUP3 DUP3 LT OR ISZERO PUSH2 0x1927 JUMPI PUSH2 0x1927 PUSH2 0x18E8 JUMP JUMPDEST PUSH1 0x40 MSTORE SWAP2 SWAP1 POP JUMP JUMPDEST PUSH1 0x0 PUSH8 0xFFFFFFFFFFFFFFFF DUP3 GT ISZERO PUSH2 0x1949 JUMPI PUSH2 0x1949 PUSH2 0x18E8 JUMP JUMPDEST POP PUSH1 0x5 SHL PUSH1 0x20 ADD SWAP1 JUMP JUMPDEST PUSH1 0x0 DUP3 PUSH1 0x1F DUP4 ADD SLT PUSH2 0x1964 JUMPI PUSH1 0x0 DUP1 REVERT JUMPDEST DUP2 MLOAD PUSH1 0x20 PUSH2 0x1979 PUSH2 0x1974 DUP4 PUSH2 0x192F JUMP JUMPDEST PUSH2 0x18FE JUMP JUMPDEST DUP3 DUP2 MSTORE PUSH1 0x5 SWAP3 SWAP1 SWAP3 SHL DUP5 ADD DUP2 ADD SWAP2 DUP2 DUP2 ADD SWAP1 DUP7 DUP5 GT ISZERO PUSH2 0x1998 JUMPI PUSH1 0x0 DUP1 REVERT JUMPDEST DUP3 DUP7 ADD JUMPDEST DUP5 DUP2 LT ISZERO PUSH2 0x19B3 JUMPI DUP1 MLOAD DUP4 MSTORE SWAP2 DUP4 ADD SWAP2 DUP4 ADD PUSH2 0x199C JUMP JUMPDEST POP SWAP7 SWAP6 POP POP POP POP POP POP JUMP JUMPDEST PUSH1 0x0 DUP1 PUSH1 0x0 PUSH1 0x60 DUP5 DUP7 SUB SLT ISZERO PUSH2 0x19D3 JUMPI PUSH1 0x0 DUP1 REVERT JUMPDEST DUP4 MLOAD PUSH8 0xFFFFFFFFFFFFFFFF DUP1 DUP3 GT ISZERO PUSH2 0x19EB JUMPI PUSH1 0x0 DUP1 REVERT JUMPDEST DUP2 DUP7 ADD SWAP2 POP DUP7 PUSH1 0x1F DUP4 ADD SLT PUSH2 0x19FF JUMPI PUSH1 0x0 DUP1 REVERT JUMPDEST DUP2 MLOAD PUSH1 0x20 PUSH2 0x1A0F PUSH2 0x1974 DUP4 PUSH2 0x192F JUMP JUMPDEST DUP3 DUP2 MSTORE PUSH1 0x5 SWAP3 SWAP1 SWAP3 SHL DUP5 ADD DUP2 ADD SWAP2 DUP2 DUP2 ADD SWAP1 DUP11 DUP5 GT ISZERO PUSH2 0x1A2E JUMPI PUSH1 0x0 DUP1 REVERT JUMPDEST SWAP5 DUP3 ADD SWAP5 JUMPDEST DUP4 DUP7 LT ISZERO PUSH2 0x1A55 JUMPI DUP6 MLOAD PUSH2 0x1A46 DUP2 PUSH2 0x169C JUMP JUMPDEST DUP3 MSTORE SWAP5 DUP3 ADD SWAP5 SWAP1 DUP3 ADD SWAP1 PUSH2 0x1A33 JUMP JUMPDEST SWAP2 DUP10 ADD MLOAD SWAP2 SWAP8 POP SWAP1 SWAP4 POP POP POP DUP1 DUP3 GT ISZERO PUSH2 0x1A6E JUMPI PUSH1 0x0 DUP1 REVERT JUMPDEST POP PUSH2 0x1A7B DUP7 DUP3 DUP8 ADD PUSH2 0x1953 JUMP JUMPDEST SWAP3 POP POP PUSH1 0x40 DUP5 ADD MLOAD SWAP1 POP SWAP3 POP SWAP3 POP SWAP3 JUMP JUMPDEST PUSH1 0x0 PUSH1 0x20 DUP3 DUP5 SUB SLT ISZERO PUSH2 0x1A9E JUMPI PUSH1 0x0 DUP1 REVERT JUMPDEST POP MLOAD SWAP2 SWAP1 POP JUMP JUMPDEST PUSH1 0x0 DUP2 PUSH1 0x0 NOT DIV DUP4 GT DUP3 ISZERO ISZERO AND ISZERO PUSH2 0x1ABF JUMPI PUSH2 0x1ABF PUSH2 0x18BA JUMP JUMPDEST POP MUL SWAP1 JUMP JUMPDEST PUSH4 0x4E487B71 PUSH1 0xE0 SHL PUSH1 0x0 MSTORE PUSH1 0x12 PUSH1 0x4 MSTORE PUSH1 0x24 PUSH1 0x0 REVERT JUMPDEST PUSH1 0x0 DUP3 PUSH2 0x1AF7 JUMPI PUSH4 0x4E487B71 PUSH1 0xE0 SHL PUSH1 0x0 MSTORE PUSH1 0x12 PUSH1 0x4 MSTORE PUSH1 0x24 PUSH1 0x0 REVERT JUMPDEST POP DIV SWAP1 JUMP JUMPDEST PUSH1 0x0 DUP3 DUP3 LT ISZERO PUSH2 0x1B0E JUMPI PUSH2 0x1B0E PUSH2 0x18BA JUMP JUMPDEST POP SUB SWAP1 JUMP JUMPDEST PUSH1 0x0 PUSH1 0x20 DUP3 DUP5 SUB SLT ISZERO PUSH2 0x1B25 JUMPI PUSH1 0x0 DUP1 REVERT JUMPDEST DUP2 MLOAD DUP1 ISZERO ISZERO DUP2 EQ PUSH2 0x6EC JUMPI PUSH1 0x0 DUP1 REVERT JUMPDEST PUSH1 0x0 DUP3 MLOAD PUSH2 0x1B47 DUP2 DUP5 PUSH1 0x20 DUP8 ADD PUSH2 0x1631 JUMP JUMPDEST SWAP2 SWAP1 SWAP2 ADD SWAP3 SWAP2 POP POP JUMP INVALID LOG2 PUSH5 0x6970667358 0x22 SLT KECCAK256 SIGNEXTEND PUSH7 0xF4AF53E99F6E3E SUB 0xD3 0xFC INVALID ADDRESS PUSH22 0xED54618F9D41C7E80495BBC40CE252C6F664736F6C63 NUMBER STOP ADDMOD EXP STOP CALLER ","sha1":"3c3e1dc4bbd9526c3402bfeb6d6c17c62814aeae","source":"// SPDX-License-Identifier: LicenseRef-Gyro-1.0\n// for information on licensing please see the README in the GitHub repository <https://github.com/gyrostable/core-protocol>.\npragma solidity ^0.8.4;\n\nimport \"../../interfaces/balancer/IVault.sol\";\n\nimport \"./BaseVault.sol\";\n\ncontract BalancerPoolVault is BaseVault {\n    /// @notice Balancer pool ID\n    bytes32 public immutable poolId;\n\n    IVault public immutable balancerVault;\n\n    /// @inheritdoc IGyroVault\n    Vaults.Type public immutable override vaultType;\n\n    constructor(\n        address _governor,\n        Vaults.Type _vaultType,\n        bytes32 _poolId,\n        IVault _balancerVault,\n        string memory name,\n        string memory symbol\n    ) BaseVault(_governor, _getPoolAddress(_poolId), name, symbol) {\n        poolId = _poolId;\n        balancerVault = _balancerVault;\n        vaultType = _vaultType;\n    }\n\n    /// @inheritdoc IGyroVault\n    function getTokens() external view override returns (IERC20[] memory) {\n        (IERC20[] memory tokens, , ) = balancerVault.getPoolTokens(poolId);\n        return tokens;\n    }\n\n    function _getPoolAddress(bytes32 _poolId) internal pure returns (address) {\n        // 12 byte logical shift left to remove the nonce and specialization setting. We don't need to mask,\n        // since the logical shift already sets the upper bits to zero.\n        return address(uint160(uint256(_poolId) >> (12 * 8)));\n    }\n}\n","sourcePath":"contracts/vaults/BalancerPoolVault.sol","type":"contract","deployment":{"address":"0x1E6aFF38A1A908b71ad36834895515c9cf3b786b","chainid":"137","blockHeight":36550810}}