{"abi":[{"inputs":[{"internalType":"uint256","name":"_safetyBlocksAutomatic","type":"uint256"},{"internalType":"uint256","name":"_safetyBlocksGuardian","type":"uint256"},{"internalType":"address","name":"_gyroConfig","type":"address"}],"stateMutability":"nonpayable","type":"constructor","name":"constructor"},{"anonymous":false,"inputs":[{"indexed":true,"internalType":"address","name":"account","type":"address"}],"name":"AddedToWhitelist","type":"event"},{"anonymous":false,"inputs":[{"indexed":false,"internalType":"address","name":"oldGovernor","type":"address"},{"indexed":false,"internalType":"address","name":"newGovernor","type":"address"}],"name":"GovernorChanged","type":"event"},{"anonymous":false,"inputs":[{"indexed":false,"internalType":"address","name":"oldMotherboard","type":"address"},{"indexed":false,"internalType":"address","name":"newMotherboard","type":"address"}],"name":"MotherboardAddressChanged","type":"event"},{"anonymous":false,"inputs":[{"indexed":false,"internalType":"address","name":"vaultAddress","type":"address"},{"indexed":false,"internalType":"uint256","name":"durationOfProtectionInBlocks","type":"uint256"}],"name":"OracleGuardianActivated","type":"event"},{"anonymous":false,"inputs":[{"indexed":true,"internalType":"address","name":"account","type":"address"}],"name":"RemovedFromWhitelist","type":"event"},{"anonymous":false,"inputs":[{"indexed":false,"internalType":"string","name":"err","type":"string"}],"name":"SafetyStatus","type":"event"},{"inputs":[],"name":"THRESHOLD_BUFFER","outputs":[{"internalType":"uint256","name":"","type":"uint256"}],"stateMutability":"view","type":"function"},{"inputs":[{"components":[{"internalType":"address","name":"vaultAddress","type":"address"},{"internalType":"enum DataTypes.Direction","name":"direction","type":"uint8"}],"internalType":"struct DataTypes.GuardedVaults","name":"vaultToProtect","type":"tuple"},{"internalType":"uint256","name":"blocksToActivate","type":"uint256"}],"name":"activateOracleGuardian","outputs":[],"stateMutability":"nonpayable","type":"function"},{"inputs":[{"internalType":"address","name":"_addressToAdd","type":"address"}],"name":"addAddressToWhitelist","outputs":[],"stateMutability":"nonpayable","type":"function"},{"inputs":[{"internalType":"address","name":"newGovernor","type":"address"}],"name":"changeGovernor","outputs":[],"stateMutability":"nonpayable","type":"function"},{"inputs":[{"components":[{"components":[{"components":[{"internalType":"address","name":"vault","type":"address"},{"internalType":"uint8","name":"decimals","type":"uint8"},{"internalType":"uint256","name":"price","type":"uint256"},{"components":[{"internalType":"uint256","name":"initialPrice","type":"uint256"},{"internalType":"uint256","name":"initialWeight","type":"uint256"},{"internalType":"uint256","name":"shortFlowMemory","type":"uint256"},{"internalType":"uint256","name":"shortFlowThreshold","type":"uint256"}],"internalType":"struct DataTypes.PersistedVaultMetadata","name":"persistedMetadata","type":"tuple"},{"internalType":"uint256","name":"reserveBalance","type":"uint256"},{"internalType":"uint256","name":"currentWeight","type":"uint256"},{"internalType":"uint256","name":"idealWeight","type":"uint256"},{"components":[{"internalType":"address","name":"tokenAddress","type":"address"},{"internalType":"uint256","name":"price","type":"uint256"}],"internalType":"struct DataTypes.PricedToken[]","name":"pricedTokens","type":"tuple[]"}],"internalType":"struct DataTypes.VaultInfo","name":"vaultInfo","type":"tuple"},{"internalType":"uint256","name":"amount","type":"uint256"}],"internalType":"struct DataTypes.VaultWithAmount[]","name":"vaultsWithAmount","type":"tuple[]"},{"internalType":"bool","name":"mint","type":"bool"}],"internalType":"struct DataTypes.Order","name":"order","type":"tuple"}],"name":"checkAndPersistMint","outputs":[{"internalType":"string","name":"","type":"string"}],"stateMutability":"nonpayable","type":"function"},{"inputs":[{"components":[{"components":[{"components":[{"internalType":"address","name":"vault","type":"address"},{"internalType":"uint8","name":"decimals","type":"uint8"},{"internalType":"uint256","name":"price","type":"uint256"},{"components":[{"internalType":"uint256","name":"initialPrice","type":"uint256"},{"internalType":"uint256","name":"initialWeight","type":"uint256"},{"internalType":"uint256","name":"shortFlowMemory","type":"uint256"},{"internalType":"uint256","name":"shortFlowThreshold","type":"uint256"}],"internalType":"struct DataTypes.PersistedVaultMetadata","name":"persistedMetadata","type":"tuple"},{"internalType":"uint256","name":"reserveBalance","type":"uint256"},{"internalType":"uint256","name":"currentWeight","type":"uint256"},{"internalType":"uint256","name":"idealWeight","type":"uint256"},{"components":[{"internalType":"address","name":"tokenAddress","type":"address"},{"internalType":"uint256","name":"price","type":"uint256"}],"internalType":"struct DataTypes.PricedToken[]","name":"pricedTokens","type":"tuple[]"}],"internalType":"struct DataTypes.VaultInfo","name":"vaultInfo","type":"tuple"},{"internalType":"uint256","name":"amount","type":"uint256"}],"internalType":"struct DataTypes.VaultWithAmount[]","name":"vaultsWithAmount","type":"tuple[]"},{"internalType":"bool","name":"mint","type":"bool"}],"internalType":"struct DataTypes.Order","name":"order","type":"tuple"}],"name":"checkAndPersistRedeem","outputs":[{"internalType":"string","name":"","type":"string"}],"stateMutability":"nonpayable","type":"function"},{"inputs":[],"name":"getWhitelist","outputs":[{"internalType":"address[]","name":"","type":"address[]"}],"stateMutability":"view","type":"function"},{"inputs":[],"name":"governor","outputs":[{"internalType":"address","name":"","type":"address"}],"stateMutability":"view","type":"function"},{"inputs":[],"name":"gyroConfig","outputs":[{"internalType":"contract IGyroConfig","name":"","type":"address"}],"stateMutability":"view","type":"function"},{"inputs":[{"components":[{"components":[{"components":[{"internalType":"address","name":"vault","type":"address"},{"internalType":"uint8","name":"decimals","type":"uint8"},{"internalType":"uint256","name":"price","type":"uint256"},{"components":[{"internalType":"uint256","name":"initialPrice","type":"uint256"},{"internalType":"uint256","name":"initialWeight","type":"uint256"},{"internalType":"uint256","name":"shortFlowMemory","type":"uint256"},{"internalType":"uint256","name":"shortFlowThreshold","type":"uint256"}],"internalType":"struct DataTypes.PersistedVaultMetadata","name":"persistedMetadata","type":"tuple"},{"internalType":"uint256","name":"reserveBalance","type":"uint256"},{"internalType":"uint256","name":"currentWeight","type":"uint256"},{"internalType":"uint256","name":"idealWeight","type":"uint256"},{"components":[{"internalType":"address","name":"tokenAddress","type":"address"},{"internalType":"uint256","name":"price","type":"uint256"}],"internalType":"struct DataTypes.PricedToken[]","name":"pricedTokens","type":"tuple[]"}],"internalType":"struct DataTypes.VaultInfo","name":"vaultInfo","type":"tuple"},{"internalType":"uint256","name":"amount","type":"uint256"}],"internalType":"struct DataTypes.VaultWithAmount[]","name":"vaultsWithAmount","type":"tuple[]"},{"internalType":"bool","name":"mint","type":"bool"}],"internalType":"struct DataTypes.Order","name":"order","type":"tuple"}],"name":"isMintSafe","outputs":[{"internalType":"string","name":"","type":"string"}],"stateMutability":"view","type":"function"},{"inputs":[{"components":[{"components":[{"components":[{"internalType":"address","name":"vault","type":"address"},{"internalType":"uint8","name":"decimals","type":"uint8"},{"internalType":"uint256","name":"price","type":"uint256"},{"components":[{"internalType":"uint256","name":"initialPrice","type":"uint256"},{"internalType":"uint256","name":"initialWeight","type":"uint256"},{"internalType":"uint256","name":"shortFlowMemory","type":"uint256"},{"internalType":"uint256","name":"shortFlowThreshold","type":"uint256"}],"internalType":"struct DataTypes.PersistedVaultMetadata","name":"persistedMetadata","type":"tuple"},{"internalType":"uint256","name":"reserveBalance","type":"uint256"},{"internalType":"uint256","name":"currentWeight","type":"uint256"},{"internalType":"uint256","name":"idealWeight","type":"uint256"},{"components":[{"internalType":"address","name":"tokenAddress","type":"address"},{"internalType":"uint256","name":"price","type":"uint256"}],"internalType":"struct DataTypes.PricedToken[]","name":"pricedTokens","type":"tuple[]"}],"internalType":"struct DataTypes.VaultInfo","name":"vaultInfo","type":"tuple"},{"internalType":"uint256","name":"amount","type":"uint256"}],"internalType":"struct DataTypes.VaultWithAmount[]","name":"vaultsWithAmount","type":"tuple[]"},{"internalType":"bool","name":"mint","type":"bool"}],"internalType":"struct DataTypes.Order","name":"order","type":"tuple"}],"name":"isRedeemSafe","outputs":[{"internalType":"string","name":"","type":"string"}],"stateMutability":"view","type":"function"},{"inputs":[{"internalType":"address","name":"","type":"address"}],"name":"persistedFlowData","outputs":[{"internalType":"uint256","name":"lastSeenBlock","type":"uint256"},{"components":[{"internalType":"uint256","name":"shortFlow","type":"uint256"},{"internalType":"uint256","name":"remainingSafetyBlocks","type":"uint256"}],"internalType":"struct DataTypes.DirectionalFlowData","name":"inFlow","type":"tuple"},{"components":[{"internalType":"uint256","name":"shortFlow","type":"uint256"},{"internalType":"uint256","name":"remainingSafetyBlocks","type":"uint256"}],"internalType":"struct DataTypes.DirectionalFlowData","name":"outFlow","type":"tuple"}],"stateMutability":"view","type":"function"},{"inputs":[{"internalType":"address","name":"_addressToRemove","type":"address"}],"name":"removeAddressFromWhitelist","outputs":[],"stateMutability":"nonpayable","type":"function"},{"inputs":[],"name":"safetyBlocksAutomatic","outputs":[{"internalType":"uint256","name":"","type":"uint256"}],"stateMutability":"view","type":"function"},{"inputs":[],"name":"safetyBlocksGuardian","outputs":[{"internalType":"uint256","name":"","type":"uint256"}],"stateMutability":"view","type":"function"}],"bytecode":"60e060405234801561001057600080fd5b50604051611e1f380380611e1f83398101604081905261002f91610097565b600080546001600160a01b0319163390811782556040805192835260208301919091527fde4b3f61490b74c0ed6237523974fe299126bbbf8a8a7482fd220104c59b0c84910160405180910390a160a09290925260c0526001600160a01b03166080526100dd565b6000806000606084860312156100ac57600080fd5b83516020850151604086015191945092506001600160a01b03811681146100d257600080fd5b809150509250925092565b60805160a05160c051611cf061012f600039600081816102390152610797015260008181610273015281816110ff01526111470152600081816101ec0152818161040a015261055a0152611cf06000f3fe608060405234801561001057600080fd5b50600436106100f55760003560e01c80637b9417c811610097578063c9e959bf11610066578063c9e959bf1461026e578063d01f63f514610295578063e4c0aaf4146102aa578063fc283b86146102bd57600080fd5b80637b9417c81461020e5780638d404e9814610221578063a036c28414610234578063c4ea12091461025b57600080fd5b806325aeb092116100d357806325aeb0921461016b578063286dd3f5146101d257806329c97771146100fa57806344bbdb55146101e757600080fd5b8063071231cf146100fa5780630bdf8d22146101235780630c340a2414610140575b600080fd5b61010d61010836600461185b565b6102d0565b60405161011a9190611a35565b60405180910390f35b610132670b1a2bc2ec50000081565b60405190815260200161011a565b600054610153906001600160a01b031681565b6040516001600160a01b03909116815260200161011a565b6101c3610179366004611a8a565b600360208181526000928352604092839020805484518086018652600183015481526002830154818501528551808701909652938201548552600490910154918401919091529183565b60405161011a93929190611aa7565b6101e56101e0366004611a8a565b6102e8565b005b6101537f000000000000000000000000000000000000000000000000000000000000000081565b6101e561021c366004611a8a565b61037a565b61010d61022f36600461185b565b610403565b6101327f000000000000000000000000000000000000000000000000000000000000000081565b61010d61026936600461185b565b610553565b6101327f000000000000000000000000000000000000000000000000000000000000000081565b61029d61067e565b60405161011a9190611adb565b6101e56102b8366004611a8a565b61068f565b6101e56102cb366004611b28565b610736565b606060006102dd83610914565b509195945050505050565b600054604080518082019091526002815261033360f41b6020820152906001600160a01b031633146103365760405162461bcd60e51b815260040161032d9190611a35565b60405180910390fd5b50610342600182610b75565b506040516001600160a01b038216907fcdd2e9b91a56913d370075169cefa1602ba36be5301664f752192bb1709df75790600090a250565b600054604080518082019091526002815261033360f41b6020820152906001600160a01b031633146103bf5760405162461bcd60e51b815260040161032d9190611a35565b506103cb600182610b93565b506040516001600160a01b038216907fa850ae9193f515cbae8d35e8925bd2be26627fc91bce650b8652ed254e9cab0390600090a250565b60606104377f00000000000000000000000000000000000000000000000000000000000000006001600160a01b0316610ba8565b6001600160a01b0316336001600160a01b03161460405180604001604052806002815260200161033360f41b815250906104845760405162461bcd60e51b815260040161032d9190611a35565b5060008060008061049486610914565b935093509350935060008451111561053b57604080518082019091526002815261363160f01b60208201526104ca908590610c33565b1561050b577f135e6dd29efa875112189add0769ed7f19cd6db71eefe10bf040c499f5aab344846040516104fe9190611a35565b60405180910390a161053b565b60408051808201825260028152611a9960f11b6020820152905162461bcd60e51b815261032d9190600401611a35565b61054783878484610c5d565b5091925050505b919050565b60606105877f00000000000000000000000000000000000000000000000000000000000000006001600160a01b0316610ba8565b6001600160a01b0316336001600160a01b03161460405180604001604052806002815260200161033360f41b815250906105d45760405162461bcd60e51b815260040161032d9190611a35565b506000806000806105e486610914565b935093509350935060008451111561053b57604080518082019091526002815261363160f01b602082015261061a908590610c33565b1561064e577f135e6dd29efa875112189add0769ed7f19cd6db71eefe10bf040c499f5aab344846040516104fe9190611a35565b6040805180820182526002815261353360f01b6020820152905162461bcd60e51b815261032d9190600401611a35565b606061068a6001610ea0565b905090565b600054604080518082019091526002815261033360f41b6020820152906001600160a01b031633146106d45760405162461bcd60e51b815260040161032d9190611a35565b50600080546001600160a01b038381166001600160a01b031983168117909355604080519190921680825260208201939093527fde4b3f61490b74c0ed6237523974fe299126bbbf8a8a7482fd220104c59b0c84910160405180910390a15050565b33610742600182610f4f565b60405180604001604052806002815260200161033360f41b8152509061077b5760405162461bcd60e51b815260040161032d9190611a35565b506040805180820190915260028152611b1960f11b60208201527f00000000000000000000000000000000000000000000000000000000000000008311156107d65760405162461bcd60e51b815260040161032d9190611a35565b506000836020015160028111156107ef576107ef611b85565b1480610810575060028360200151600281111561080e5761080e611b85565b145b156108735782516001600160a01b03908116600090815260036020908152604091829020600201859055855182519316835282018490527fe90da2e9a0fdaf7644472f107c782b166da61c0cc6d6311cde8028b5b120d304910160405180910390a15b60018360200151600281111561088b5761088b611b85565b14806108ac57506002836020015160028111156108aa576108aa611b85565b145b1561090f5782516001600160a01b03908116600090815260036020908152604091829020600401859055855182519316835282018490527fe90da2e9a0fdaf7644472f107c782b166da61c0cc6d6311cde8028b5b120d304910160405180910390a15b505050565b80515160609081908190439067ffffffffffffffff81111561093857610938611661565b604051908082528060200260200182016040528015610961578160200160208202803683370190505b5085515190925067ffffffffffffffff81111561098057610980611661565b6040519080825280602002602001820160405280156109c557816020015b604080518082019091526000808252602082015281526020019060019003908161099e5790505b50925060005b855151811015610a355785518051829081106109e9576109e9611b9b565b60200260200101516000015160000151838281518110610a0b57610a0b611b9b565b6001600160a01b039092166020928302919091019091015280610a2d81611bc7565b9150506109cb565b50610a41828287610f71565b9250600160005b8451811015610b3257600080610ac2878481518110610a6957610a69611b9b565b60200260200101518a600001518581518110610a8757610a87611b9b565b6020026020010151602001518b600001518681518110610aa957610aa9611b9b565b60200260200101516000015160600151606001516110a9565b898681518110610ad457610ad4611b9b565b602002602001018194508295508390525050508015610af257600093505b81610b1d5760405180604001604052806002815260200161036360f41b815250975050505050610b6e565b50508080610b2a90611bc7565b915050610a48565b5080610b5b5760405180604001604052806002815260200161363160f01b815250945050610b6e565b5060408051602081019091526000815293505b9193509193565b6000610b8a836001600160a01b0384166111b1565b90505b92915050565b6000610b8a836001600160a01b0384166112a4565b6040516321f8a72160e01b81527f524f4f545f5341464554595f434845434b5f414444524553530000000000000060048201526000906001600160a01b038316906321f8a72190602401602060405180830381865afa158015610c0f573d6000803e3d6000fd5b505050506040513d601f19601f82011682018060405250810190610b8d9190611be2565b60008151835114610c4657506000610b8d565b508051602091820120825192909101919091201490565b815184511460405180604001604052806002815260200161363360f01b81525090610c9b5760405162461bcd60e51b815260040161032d9190611a35565b50826020015115610da25760005b8451811015610d9c57848181518110610cc457610cc4611b9b565b602002602001015160036000858481518110610ce257610ce2611b9b565b60200260200101516001600160a01b03166001600160a01b031681526020019081526020016000206001016000820151816000015560208201518160010155905050600084600001518281518110610d3c57610d3c611b9b565b6020026020010151602001511115610d8a578160036000858481518110610d6557610d65611b9b565b6020908102919091018101516001600160a01b03168252810191909152604001600020555b80610d9481611bc7565b915050610ca9565b50610e9a565b60005b8451811015610e9857848181518110610dc057610dc0611b9b565b602002602001015160036000858481518110610dde57610dde611b9b565b60200260200101516001600160a01b03166001600160a01b031681526020019081526020016000206003016000820151816000015560208201518160010155905050600084600001518281518110610e3857610e38611b9b565b6020026020010151602001511115610e86578160036000858481518110610e6157610e61611b9b565b6020908102919091018101516001600160a01b03168252810191909152604001600020555b80610e9081611bc7565b915050610da5565b505b50505050565b60606000610ead836112f3565b905060008167ffffffffffffffff811115610eca57610eca611661565b604051908082528060200260200182016040528015610ef3578160200160208202803683370190505b50905060005b82811015610f4757610f0b85826112fd565b828281518110610f1d57610f1d611b9b565b6001600160a01b039092166020928302919091019091015280610f3f81611bc7565b915050610ef9565b509392505050565b6001600160a01b03811660009081526001830160205260408120541515610b8a565b6060600080610f808685611309565b9150915060005b825181101561109e576000828281518110610fa457610fa4611b9b565b602002602001015187610fb79190611bff565b9050610fe0848381518110610fce57610fce611b9b565b60200260200101516020015182611558565b848381518110610ff257610ff2611b9b565b6020026020010151602001818152505061106d84838151811061101757611017611b9b565b6020026020010151600001518885858151811061103657611036611b9b565b60200260200101518960000151868151811061105457611054611b9b565b602002602001015160000151606001516040015161157a565b84838151811061107f5761107f611b9b565b602090810291909101015152508061109681611bc7565b915050610f87565b509095945050505050565b6040805180820190915260008082526020820152602084015160009081906001908290156110e357876000600194509450945050506111a8565b87516000906110f3908990611c16565b90508681111561112c577f000000000000000000000000000000000000000000000000000000000000000060208a01526000925061119e565b61113e670b1a2bc2ec500000886115c6565b811115611188577f000000000000000000000000000000000000000000000000000000000000000060208a0152885181908a9061117c908390611c16565b9052506001915061119e565b808960000181815161119a9190611c16565b9052505b5087945090925090505b93509350939050565b6000818152600183016020526040812054801561129a5760006111d5600183611bff565b85549091506000906111e990600190611bff565b905081811461124e57600086600001828154811061120957611209611b9b565b906000526020600020015490508087600001848154811061122c5761122c611b9b565b6000918252602080832090910192909255918252600188019052604090208390555b855486908061125f5761125f611c2e565b600190038181906000526020600020016000905590558560010160008681526020019081526020016000206000905560019350505050610b8d565b6000915050610b8d565b60008181526001830160205260408120546112eb57508154600181810184556000848152602080822090930184905584548482528286019093526040902091909155610b8d565b506000610b8d565b6000610b8d825490565b6000610b8a83836115e7565b606080835167ffffffffffffffff81111561132657611326611661565b60405190808252806020026020018201604052801561136b57816020015b60408051808201909152600080825260208201528152602001906001900390816113445790505b509150835167ffffffffffffffff81111561138857611388611661565b6040519080825280602002602001820160405280156113b1578160200160208202803683370190505b50905060005b84518110156115505760008582815181106113d4576113d4611b9b565b6020908102919091018101516001600160a01b038116600090815260039092526040909120549091508061146757816001600160a01b031663eae4c19f6040518163ffffffff1660e01b8152600401602060405180830381865afa158015611440573d6000803e3d6000fd5b505050506040513d601f19601f820116820180604052508101906114649190611c44565b90505b8084848151811061147a5761147a611b9b565b6020026020010181815250508560200151156114e7576001600160a01b038216600090815260036020908152604091829020825180840190935260018101548352600201549082015285518690859081106114d7576114d7611b9b565b602002602001018190525061153b565b6001600160a01b038216600090815260036020818152604092839020835180850190945291820154835260049091015490820152855186908590811061152f5761152f611b9b565b60200260200101819052505b5050808061154890611bc7565b9150506113b7565b509250929050565b600082821061156957506000610b8d565b6115738284611bff565b9050610b8d565b6000838310156115b35760006115908486611bff565b9050600061159e8483611611565b90506115aa87826115c6565b925050506115be565b838314156115be5750835b949350505050565b6000806115d38385611c5d565b90506115be670de0b6b3a764000082611c92565b60008260000182815481106115fe576115fe611b9b565b9060005260206000200154905092915050565b6000670de0b6b3a76400005b8215610b8a5761162e600284611ca6565b600114156116435761164081856115c6565b90505b61164e600284611c92565b925061165a84856115c6565b935061161d565b634e487b7160e01b600052604160045260246000fd5b6040805190810167ffffffffffffffff8111828210171561169a5761169a611661565b60405290565b604051610100810167ffffffffffffffff8111828210171561169a5761169a611661565b604051601f8201601f1916810167ffffffffffffffff811182821017156116ed576116ed611661565b604052919050565b600067ffffffffffffffff82111561170f5761170f611661565b5060051b60200190565b6001600160a01b038116811461172e57600080fd5b50565b803561054e81611719565b803560ff8116811461054e57600080fd5b60006080828403121561175f57600080fd5b6040516080810181811067ffffffffffffffff8211171561178257611782611661565b8060405250809150823581526020830135602082015260408301356040820152606083013560608201525092915050565b600082601f8301126117c457600080fd5b813560206117d96117d4836116f5565b6116c4565b82815260069290921b840181019181810190868411156117f857600080fd5b8286015b8481101561184057604081890312156118155760008081fd5b61181d611677565b813561182881611719565b815281850135858201528352918301916040016117fc565b509695505050505050565b8035801515811461054e57600080fd5b60006020828403121561186d57600080fd5b67ffffffffffffffff808335111561188457600080fd5b6040833584018503121561189757600080fd5b61189f611677565b81843585013511156118b057600080fd5b83358401803501601f810186136118c657600080fd5b6118d36117d482356116f5565b81358082526020808301929160051b8401018810156118f157600080fd5b602083015b6020843560051b850101811015611a1357858135111561191557600080fd5b80358401601f196040828c038201121561192e57600080fd5b611936611677565b886020840135111561194757600080fd5b6020830135830161016083828f0301121561196157600080fd5b6119696116a0565b925061197760208201611731565b83526119856040820161173c565b6020840152606081013560408401526119a18d6080830161174d565b6060840152610100810135608084015261012081013560a084015261014081013560c08401528961016082013511156119d957600080fd5b6119ed8d60206101608401358401016117b3565b60e0840152509081526040919091013560208083019190915290845292830192016118f6565b50835250611a2890508435850160200161184b565b6020820152949350505050565b600060208083528351808285015260005b81811015611a6257858101830151858201604001528201611a46565b81811115611a74576000604083870101525b50601f01601f1916929092016040019392505050565b600060208284031215611a9c57600080fd5b8135610b8a81611719565b83815260a08101611ac5602083018580518252602090810151910152565b82516060830152602083015160808301526115be565b6020808252825182820181905260009190848201906040850190845b81811015611b1c5783516001600160a01b031683529284019291840191600101611af7565b50909695505050505050565b6000808284036060811215611b3c57600080fd5b6040811215611b4a57600080fd5b50611b53611677565b8335611b5e81611719565b8152602084013560038110611b7257600080fd5b6020820152946040939093013593505050565b634e487b7160e01b600052602160045260246000fd5b634e487b7160e01b600052603260045260246000fd5b634e487b7160e01b600052601160045260246000fd5b6000600019821415611bdb57611bdb611bb1565b5060010190565b600060208284031215611bf457600080fd5b8151610b8a81611719565b600082821015611c1157611c11611bb1565b500390565b60008219821115611c2957611c29611bb1565b500190565b634e487b7160e01b600052603160045260246000fd5b600060208284031215611c5657600080fd5b5051919050565b6000816000190483118215151615611c7757611c77611bb1565b500290565b634e487b7160e01b600052601260045260246000fd5b600082611ca157611ca1611c7c565b500490565b600082611cb557611cb5611c7c565b50069056fea2646970667358221220981ed93f34f184f756948659beda29570fa1462db8d468ec11e0115840112cff64736f6c634300080a0033","bytecodeSha1":"9653eca2e94b6cfb7c66a590543d95c64399a897","compiler":{"evm_version":"istanbul","optimizer":{"enabled":true,"runs":200},"version":"0.8.10+commit.fc410830"},"contractName":"VaultSafetyMode","language":"Solidity","natspec":{"kind":"dev","methods":{"changeGovernor(address)":{"notice":"Changes the governor can only be called by the current governor"},"checkAndPersistMint((((address,uint8,uint256,(uint256,uint256,uint256,uint256),uint256,uint256,uint256,(address,uint256)[]),uint256)[],bool))":{"notice":"Checks whether a mint operation is safe This is only called when an actual mint is performed The implementation should store any relevant information for the mint","returns":{"_0":"empty string if it is safe, otherwise the reason why it is not safe"}},"checkAndPersistRedeem((((address,uint8,uint256,(uint256,uint256,uint256,uint256),uint256,uint256,uint256,(address,uint256)[]),uint256)[],bool))":{"notice":"Checks whether a redeem operation is safe This is only called when an actual redeem is performed The implementation should store any relevant information for the redeem","returns":{"_0":"empty string if it is safe, otherwise the reason why it is not safe"}},"governor()":{"notice":"Returns the current governor"},"isMintSafe((((address,uint8,uint256,(uint256,uint256,uint256,uint256),uint256,uint256,uint256,(address,uint256)[]),uint256)[],bool))":{"notice":"Checks whether a mint operation is safe","returns":{"_0":"empty string if it is safe, otherwise the reason why it is not safe"}},"isRedeemSafe((((address,uint8,uint256,(uint256,uint256,uint256,uint256),uint256,uint256,uint256,(address,uint256)[]),uint256)[],bool))":{"notice":"Checks whether a redeem operation is safe","returns":{"_0":"empty string if it is safe, otherwise the reason why it is not safe"}}},"version":1},"opcodes":"PUSH1 0x80 PUSH1 0x40 MSTORE CALLVALUE DUP1 ISZERO PUSH2 0x10 JUMPI PUSH1 0x0 DUP1 REVERT JUMPDEST POP PUSH1 0x4 CALLDATASIZE LT PUSH2 0xF5 JUMPI PUSH1 0x0 CALLDATALOAD PUSH1 0xE0 SHR DUP1 PUSH4 0x7B9417C8 GT PUSH2 0x97 JUMPI DUP1 PUSH4 0xC9E959BF GT PUSH2 0x66 JUMPI DUP1 PUSH4 0xC9E959BF EQ PUSH2 0x26E JUMPI DUP1 PUSH4 0xD01F63F5 EQ PUSH2 0x295 JUMPI DUP1 PUSH4 0xE4C0AAF4 EQ PUSH2 0x2AA JUMPI DUP1 PUSH4 0xFC283B86 EQ PUSH2 0x2BD JUMPI PUSH1 0x0 DUP1 REVERT JUMPDEST DUP1 PUSH4 0x7B9417C8 EQ PUSH2 0x20E JUMPI DUP1 PUSH4 0x8D404E98 EQ PUSH2 0x221 JUMPI DUP1 PUSH4 0xA036C284 EQ PUSH2 0x234 JUMPI DUP1 PUSH4 0xC4EA1209 EQ PUSH2 0x25B JUMPI PUSH1 0x0 DUP1 REVERT JUMPDEST DUP1 PUSH4 0x25AEB092 GT PUSH2 0xD3 JUMPI DUP1 PUSH4 0x25AEB092 EQ PUSH2 0x16B JUMPI DUP1 PUSH4 0x286DD3F5 EQ PUSH2 0x1D2 JUMPI DUP1 PUSH4 0x29C97771 EQ PUSH2 0xFA JUMPI DUP1 PUSH4 0x44BBDB55 EQ PUSH2 0x1E7 JUMPI PUSH1 0x0 DUP1 REVERT JUMPDEST DUP1 PUSH4 0x71231CF EQ PUSH2 0xFA JUMPI DUP1 PUSH4 0xBDF8D22 EQ PUSH2 0x123 JUMPI DUP1 PUSH4 0xC340A24 EQ PUSH2 0x140 JUMPI JUMPDEST PUSH1 0x0 DUP1 REVERT JUMPDEST PUSH2 0x10D PUSH2 0x108 CALLDATASIZE PUSH1 0x4 PUSH2 0x185B JUMP JUMPDEST PUSH2 0x2D0 JUMP JUMPDEST PUSH1 0x40 MLOAD PUSH2 0x11A SWAP2 SWAP1 PUSH2 0x1A35 JUMP JUMPDEST PUSH1 0x40 MLOAD DUP1 SWAP2 SUB SWAP1 RETURN JUMPDEST PUSH2 0x132 PUSH8 0xB1A2BC2EC500000 DUP2 JUMP JUMPDEST PUSH1 0x40 MLOAD SWAP1 DUP2 MSTORE PUSH1 0x20 ADD PUSH2 0x11A JUMP JUMPDEST PUSH1 0x0 SLOAD PUSH2 0x153 SWAP1 PUSH1 0x1 PUSH1 0x1 PUSH1 0xA0 SHL SUB AND DUP2 JUMP JUMPDEST PUSH1 0x40 MLOAD PUSH1 0x1 PUSH1 0x1 PUSH1 0xA0 SHL SUB SWAP1 SWAP2 AND DUP2 MSTORE PUSH1 0x20 ADD PUSH2 0x11A JUMP JUMPDEST PUSH2 0x1C3 PUSH2 0x179 CALLDATASIZE PUSH1 0x4 PUSH2 0x1A8A JUMP JUMPDEST PUSH1 0x3 PUSH1 0x20 DUP2 DUP2 MSTORE PUSH1 0x0 SWAP3 DUP4 MSTORE PUSH1 0x40 SWAP3 DUP4 SWAP1 KECCAK256 DUP1 SLOAD DUP5 MLOAD DUP1 DUP7 ADD DUP7 MSTORE PUSH1 0x1 DUP4 ADD SLOAD DUP2 MSTORE PUSH1 0x2 DUP4 ADD SLOAD DUP2 DUP6 ADD MSTORE DUP6 MLOAD DUP1 DUP8 ADD SWAP1 SWAP7 MSTORE SWAP4 DUP3 ADD SLOAD DUP6 MSTORE PUSH1 0x4 SWAP1 SWAP2 ADD SLOAD SWAP2 DUP5 ADD SWAP2 SWAP1 SWAP2 MSTORE SWAP2 DUP4 JUMP JUMPDEST PUSH1 0x40 MLOAD PUSH2 0x11A SWAP4 SWAP3 SWAP2 SWAP1 PUSH2 0x1AA7 JUMP JUMPDEST PUSH2 0x1E5 PUSH2 0x1E0 CALLDATASIZE PUSH1 0x4 PUSH2 0x1A8A JUMP JUMPDEST PUSH2 0x2E8 JUMP JUMPDEST STOP JUMPDEST PUSH2 0x153 PUSH32 0x0 DUP2 JUMP JUMPDEST PUSH2 0x1E5 PUSH2 0x21C CALLDATASIZE PUSH1 0x4 PUSH2 0x1A8A JUMP JUMPDEST PUSH2 0x37A JUMP JUMPDEST PUSH2 0x10D PUSH2 0x22F CALLDATASIZE PUSH1 0x4 PUSH2 0x185B JUMP JUMPDEST PUSH2 0x403 JUMP JUMPDEST PUSH2 0x132 PUSH32 0x0 DUP2 JUMP JUMPDEST PUSH2 0x10D PUSH2 0x269 CALLDATASIZE PUSH1 0x4 PUSH2 0x185B JUMP JUMPDEST PUSH2 0x553 JUMP JUMPDEST PUSH2 0x132 PUSH32 0x0 DUP2 JUMP JUMPDEST PUSH2 0x29D PUSH2 0x67E JUMP JUMPDEST PUSH1 0x40 MLOAD PUSH2 0x11A SWAP2 SWAP1 PUSH2 0x1ADB JUMP JUMPDEST PUSH2 0x1E5 PUSH2 0x2B8 CALLDATASIZE PUSH1 0x4 PUSH2 0x1A8A JUMP JUMPDEST PUSH2 0x68F JUMP JUMPDEST PUSH2 0x1E5 PUSH2 0x2CB CALLDATASIZE PUSH1 0x4 PUSH2 0x1B28 JUMP JUMPDEST PUSH2 0x736 JUMP JUMPDEST PUSH1 0x60 PUSH1 0x0 PUSH2 0x2DD DUP4 PUSH2 0x914 JUMP JUMPDEST POP SWAP2 SWAP6 SWAP5 POP POP POP POP POP JUMP JUMPDEST PUSH1 0x0 SLOAD PUSH1 0x40 DUP1 MLOAD DUP1 DUP3 ADD SWAP1 SWAP2 MSTORE PUSH1 0x2 DUP2 MSTORE PUSH2 0x333 PUSH1 0xF4 SHL PUSH1 0x20 DUP3 ADD MSTORE SWAP1 PUSH1 0x1 PUSH1 0x1 PUSH1 0xA0 SHL SUB AND CALLER EQ PUSH2 0x336 JUMPI PUSH1 0x40 MLOAD PUSH3 0x461BCD PUSH1 0xE5 SHL DUP2 MSTORE PUSH1 0x4 ADD PUSH2 0x32D SWAP2 SWAP1 PUSH2 0x1A35 JUMP JUMPDEST PUSH1 0x40 MLOAD DUP1 SWAP2 SUB SWAP1 REVERT JUMPDEST POP PUSH2 0x342 PUSH1 0x1 DUP3 PUSH2 0xB75 JUMP JUMPDEST POP PUSH1 0x40 MLOAD PUSH1 0x1 PUSH1 0x1 PUSH1 0xA0 SHL SUB DUP3 AND SWAP1 PUSH32 0xCDD2E9B91A56913D370075169CEFA1602BA36BE5301664F752192BB1709DF757 SWAP1 PUSH1 0x0 SWAP1 LOG2 POP JUMP JUMPDEST PUSH1 0x0 SLOAD PUSH1 0x40 DUP1 MLOAD DUP1 DUP3 ADD SWAP1 SWAP2 MSTORE PUSH1 0x2 DUP2 MSTORE PUSH2 0x333 PUSH1 0xF4 SHL PUSH1 0x20 DUP3 ADD MSTORE SWAP1 PUSH1 0x1 PUSH1 0x1 PUSH1 0xA0 SHL SUB AND CALLER EQ PUSH2 0x3BF JUMPI PUSH1 0x40 MLOAD PUSH3 0x461BCD PUSH1 0xE5 SHL DUP2 MSTORE PUSH1 0x4 ADD PUSH2 0x32D SWAP2 SWAP1 PUSH2 0x1A35 JUMP JUMPDEST POP PUSH2 0x3CB PUSH1 0x1 DUP3 PUSH2 0xB93 JUMP JUMPDEST POP PUSH1 0x40 MLOAD PUSH1 0x1 PUSH1 0x1 PUSH1 0xA0 SHL SUB DUP3 AND SWAP1 PUSH32 0xA850AE9193F515CBAE8D35E8925BD2BE26627FC91BCE650B8652ED254E9CAB03 SWAP1 PUSH1 0x0 SWAP1 LOG2 POP JUMP JUMPDEST PUSH1 0x60 PUSH2 0x437 PUSH32 0x0 PUSH1 0x1 PUSH1 0x1 PUSH1 0xA0 SHL SUB AND PUSH2 0xBA8 JUMP JUMPDEST PUSH1 0x1 PUSH1 0x1 PUSH1 0xA0 SHL SUB AND CALLER PUSH1 0x1 PUSH1 0x1 PUSH1 0xA0 SHL SUB AND EQ PUSH1 0x40 MLOAD DUP1 PUSH1 0x40 ADD PUSH1 0x40 MSTORE DUP1 PUSH1 0x2 DUP2 MSTORE PUSH1 0x20 ADD PUSH2 0x333 PUSH1 0xF4 SHL DUP2 MSTORE POP SWAP1 PUSH2 0x484 JUMPI PUSH1 0x40 MLOAD PUSH3 0x461BCD PUSH1 0xE5 SHL DUP2 MSTORE PUSH1 0x4 ADD PUSH2 0x32D SWAP2 SWAP1 PUSH2 0x1A35 JUMP JUMPDEST POP PUSH1 0x0 DUP1 PUSH1 0x0 DUP1 PUSH2 0x494 DUP7 PUSH2 0x914 JUMP JUMPDEST SWAP4 POP SWAP4 POP SWAP4 POP SWAP4 POP PUSH1 0x0 DUP5 MLOAD GT ISZERO PUSH2 0x53B JUMPI PUSH1 0x40 DUP1 MLOAD DUP1 DUP3 ADD SWAP1 SWAP2 MSTORE PUSH1 0x2 DUP2 MSTORE PUSH2 0x3631 PUSH1 0xF0 SHL PUSH1 0x20 DUP3 ADD MSTORE PUSH2 0x4CA SWAP1 DUP6 SWAP1 PUSH2 0xC33 JUMP JUMPDEST ISZERO PUSH2 0x50B JUMPI PUSH32 0x135E6DD29EFA875112189ADD0769ED7F19CD6DB71EEFE10BF040C499F5AAB344 DUP5 PUSH1 0x40 MLOAD PUSH2 0x4FE SWAP2 SWAP1 PUSH2 0x1A35 JUMP JUMPDEST PUSH1 0x40 MLOAD DUP1 SWAP2 SUB SWAP1 LOG1 PUSH2 0x53B JUMP JUMPDEST PUSH1 0x40 DUP1 MLOAD DUP1 DUP3 ADD DUP3 MSTORE PUSH1 0x2 DUP2 MSTORE PUSH2 0x1A99 PUSH1 0xF1 SHL PUSH1 0x20 DUP3 ADD MSTORE SWAP1 MLOAD PUSH3 0x461BCD PUSH1 0xE5 SHL DUP2 MSTORE PUSH2 0x32D SWAP2 SWAP1 PUSH1 0x4 ADD PUSH2 0x1A35 JUMP JUMPDEST PUSH2 0x547 DUP4 DUP8 DUP5 DUP5 PUSH2 0xC5D JUMP JUMPDEST POP SWAP2 SWAP3 POP POP POP JUMPDEST SWAP2 SWAP1 POP JUMP JUMPDEST PUSH1 0x60 PUSH2 0x587 PUSH32 0x0 PUSH1 0x1 PUSH1 0x1 PUSH1 0xA0 SHL SUB AND PUSH2 0xBA8 JUMP JUMPDEST PUSH1 0x1 PUSH1 0x1 PUSH1 0xA0 SHL SUB AND CALLER PUSH1 0x1 PUSH1 0x1 PUSH1 0xA0 SHL SUB AND EQ PUSH1 0x40 MLOAD DUP1 PUSH1 0x40 ADD PUSH1 0x40 MSTORE DUP1 PUSH1 0x2 DUP2 MSTORE PUSH1 0x20 ADD PUSH2 0x333 PUSH1 0xF4 SHL DUP2 MSTORE POP SWAP1 PUSH2 0x5D4 JUMPI PUSH1 0x40 MLOAD PUSH3 0x461BCD PUSH1 0xE5 SHL DUP2 MSTORE PUSH1 0x4 ADD PUSH2 0x32D SWAP2 SWAP1 PUSH2 0x1A35 JUMP JUMPDEST POP PUSH1 0x0 DUP1 PUSH1 0x0 DUP1 PUSH2 0x5E4 DUP7 PUSH2 0x914 JUMP JUMPDEST SWAP4 POP SWAP4 POP SWAP4 POP SWAP4 POP PUSH1 0x0 DUP5 MLOAD GT ISZERO PUSH2 0x53B JUMPI PUSH1 0x40 DUP1 MLOAD DUP1 DUP3 ADD SWAP1 SWAP2 MSTORE PUSH1 0x2 DUP2 MSTORE PUSH2 0x3631 PUSH1 0xF0 SHL PUSH1 0x20 DUP3 ADD MSTORE PUSH2 0x61A SWAP1 DUP6 SWAP1 PUSH2 0xC33 JUMP JUMPDEST ISZERO PUSH2 0x64E JUMPI PUSH32 0x135E6DD29EFA875112189ADD0769ED7F19CD6DB71EEFE10BF040C499F5AAB344 DUP5 PUSH1 0x40 MLOAD PUSH2 0x4FE SWAP2 SWAP1 PUSH2 0x1A35 JUMP JUMPDEST PUSH1 0x40 DUP1 MLOAD DUP1 DUP3 ADD DUP3 MSTORE PUSH1 0x2 DUP2 MSTORE PUSH2 0x3533 PUSH1 0xF0 SHL PUSH1 0x20 DUP3 ADD MSTORE SWAP1 MLOAD PUSH3 0x461BCD PUSH1 0xE5 SHL DUP2 MSTORE PUSH2 0x32D SWAP2 SWAP1 PUSH1 0x4 ADD PUSH2 0x1A35 JUMP JUMPDEST PUSH1 0x60 PUSH2 0x68A PUSH1 0x1 PUSH2 0xEA0 JUMP JUMPDEST SWAP1 POP SWAP1 JUMP JUMPDEST PUSH1 0x0 SLOAD PUSH1 0x40 DUP1 MLOAD DUP1 DUP3 ADD SWAP1 SWAP2 MSTORE PUSH1 0x2 DUP2 MSTORE PUSH2 0x333 PUSH1 0xF4 SHL PUSH1 0x20 DUP3 ADD MSTORE SWAP1 PUSH1 0x1 PUSH1 0x1 PUSH1 0xA0 SHL SUB AND CALLER EQ PUSH2 0x6D4 JUMPI PUSH1 0x40 MLOAD PUSH3 0x461BCD PUSH1 0xE5 SHL DUP2 MSTORE PUSH1 0x4 ADD PUSH2 0x32D SWAP2 SWAP1 PUSH2 0x1A35 JUMP JUMPDEST POP PUSH1 0x0 DUP1 SLOAD PUSH1 0x1 PUSH1 0x1 PUSH1 0xA0 SHL SUB DUP4 DUP2 AND PUSH1 0x1 PUSH1 0x1 PUSH1 0xA0 SHL SUB NOT DUP4 AND DUP2 OR SWAP1 SWAP4 SSTORE PUSH1 0x40 DUP1 MLOAD SWAP2 SWAP1 SWAP3 AND DUP1 DUP3 MSTORE PUSH1 0x20 DUP3 ADD SWAP4 SWAP1 SWAP4 MSTORE PUSH32 0xDE4B3F61490B74C0ED6237523974FE299126BBBF8A8A7482FD220104C59B0C84 SWAP2 ADD PUSH1 0x40 MLOAD DUP1 SWAP2 SUB SWAP1 LOG1 POP POP JUMP JUMPDEST CALLER PUSH2 0x742 PUSH1 0x1 DUP3 PUSH2 0xF4F JUMP JUMPDEST PUSH1 0x40 MLOAD DUP1 PUSH1 0x40 ADD PUSH1 0x40 MSTORE DUP1 PUSH1 0x2 DUP2 MSTORE PUSH1 0x20 ADD PUSH2 0x333 PUSH1 0xF4 SHL DUP2 MSTORE POP SWAP1 PUSH2 0x77B JUMPI PUSH1 0x40 MLOAD PUSH3 0x461BCD PUSH1 0xE5 SHL DUP2 MSTORE PUSH1 0x4 ADD PUSH2 0x32D SWAP2 SWAP1 PUSH2 0x1A35 JUMP JUMPDEST POP PUSH1 0x40 DUP1 MLOAD DUP1 DUP3 ADD SWAP1 SWAP2 MSTORE PUSH1 0x2 DUP2 MSTORE PUSH2 0x1B19 PUSH1 0xF1 SHL PUSH1 0x20 DUP3 ADD MSTORE PUSH32 0x0 DUP4 GT ISZERO PUSH2 0x7D6 JUMPI PUSH1 0x40 MLOAD PUSH3 0x461BCD PUSH1 0xE5 SHL DUP2 MSTORE PUSH1 0x4 ADD PUSH2 0x32D SWAP2 SWAP1 PUSH2 0x1A35 JUMP JUMPDEST POP PUSH1 0x0 DUP4 PUSH1 0x20 ADD MLOAD PUSH1 0x2 DUP2 GT ISZERO PUSH2 0x7EF JUMPI PUSH2 0x7EF PUSH2 0x1B85 JUMP JUMPDEST EQ DUP1 PUSH2 0x810 JUMPI POP PUSH1 0x2 DUP4 PUSH1 0x20 ADD MLOAD PUSH1 0x2 DUP2 GT ISZERO PUSH2 0x80E JUMPI PUSH2 0x80E PUSH2 0x1B85 JUMP JUMPDEST EQ JUMPDEST ISZERO PUSH2 0x873 JUMPI DUP3 MLOAD PUSH1 0x1 PUSH1 0x1 PUSH1 0xA0 SHL SUB SWAP1 DUP2 AND PUSH1 0x0 SWAP1 DUP2 MSTORE PUSH1 0x3 PUSH1 0x20 SWAP1 DUP2 MSTORE PUSH1 0x40 SWAP2 DUP3 SWAP1 KECCAK256 PUSH1 0x2 ADD DUP6 SWAP1 SSTORE DUP6 MLOAD DUP3 MLOAD SWAP4 AND DUP4 MSTORE DUP3 ADD DUP5 SWAP1 MSTORE PUSH32 0xE90DA2E9A0FDAF7644472F107C782B166DA61C0CC6D6311CDE8028B5B120D304 SWAP2 ADD PUSH1 0x40 MLOAD DUP1 SWAP2 SUB SWAP1 LOG1 JUMPDEST PUSH1 0x1 DUP4 PUSH1 0x20 ADD MLOAD PUSH1 0x2 DUP2 GT ISZERO PUSH2 0x88B JUMPI PUSH2 0x88B PUSH2 0x1B85 JUMP JUMPDEST EQ DUP1 PUSH2 0x8AC JUMPI POP PUSH1 0x2 DUP4 PUSH1 0x20 ADD MLOAD PUSH1 0x2 DUP2 GT ISZERO PUSH2 0x8AA JUMPI PUSH2 0x8AA PUSH2 0x1B85 JUMP JUMPDEST EQ JUMPDEST ISZERO PUSH2 0x90F JUMPI DUP3 MLOAD PUSH1 0x1 PUSH1 0x1 PUSH1 0xA0 SHL SUB SWAP1 DUP2 AND PUSH1 0x0 SWAP1 DUP2 MSTORE PUSH1 0x3 PUSH1 0x20 SWAP1 DUP2 MSTORE PUSH1 0x40 SWAP2 DUP3 SWAP1 KECCAK256 PUSH1 0x4 ADD DUP6 SWAP1 SSTORE DUP6 MLOAD DUP3 MLOAD SWAP4 AND DUP4 MSTORE DUP3 ADD DUP5 SWAP1 MSTORE PUSH32 0xE90DA2E9A0FDAF7644472F107C782B166DA61C0CC6D6311CDE8028B5B120D304 SWAP2 ADD PUSH1 0x40 MLOAD DUP1 SWAP2 SUB SWAP1 LOG1 JUMPDEST POP POP POP JUMP JUMPDEST DUP1 MLOAD MLOAD PUSH1 0x60 SWAP1 DUP2 SWAP1 DUP2 SWAP1 NUMBER SWAP1 PUSH8 0xFFFFFFFFFFFFFFFF DUP2 GT ISZERO PUSH2 0x938 JUMPI PUSH2 0x938 PUSH2 0x1661 JUMP JUMPDEST PUSH1 0x40 MLOAD SWAP1 DUP1 DUP3 MSTORE DUP1 PUSH1 0x20 MUL PUSH1 0x20 ADD DUP3 ADD PUSH1 0x40 MSTORE DUP1 ISZERO PUSH2 0x961 JUMPI DUP2 PUSH1 0x20 ADD PUSH1 0x20 DUP3 MUL DUP1 CALLDATASIZE DUP4 CALLDATACOPY ADD SWAP1 POP JUMPDEST POP DUP6 MLOAD MLOAD SWAP1 SWAP3 POP PUSH8 0xFFFFFFFFFFFFFFFF DUP2 GT ISZERO PUSH2 0x980 JUMPI PUSH2 0x980 PUSH2 0x1661 JUMP JUMPDEST PUSH1 0x40 MLOAD SWAP1 DUP1 DUP3 MSTORE DUP1 PUSH1 0x20 MUL PUSH1 0x20 ADD DUP3 ADD PUSH1 0x40 MSTORE DUP1 ISZERO PUSH2 0x9C5 JUMPI DUP2 PUSH1 0x20 ADD JUMPDEST PUSH1 0x40 DUP1 MLOAD DUP1 DUP3 ADD SWAP1 SWAP2 MSTORE PUSH1 0x0 DUP1 DUP3 MSTORE PUSH1 0x20 DUP3 ADD MSTORE DUP2 MSTORE PUSH1 0x20 ADD SWAP1 PUSH1 0x1 SWAP1 SUB SWAP1 DUP2 PUSH2 0x99E JUMPI SWAP1 POP JUMPDEST POP SWAP3 POP PUSH1 0x0 JUMPDEST DUP6 MLOAD MLOAD DUP2 LT ISZERO PUSH2 0xA35 JUMPI DUP6 MLOAD DUP1 MLOAD DUP3 SWAP1 DUP2 LT PUSH2 0x9E9 JUMPI PUSH2 0x9E9 PUSH2 0x1B9B JUMP JUMPDEST PUSH1 0x20 MUL PUSH1 0x20 ADD ADD MLOAD PUSH1 0x0 ADD MLOAD PUSH1 0x0 ADD MLOAD DUP4 DUP3 DUP2 MLOAD DUP2 LT PUSH2 0xA0B JUMPI PUSH2 0xA0B PUSH2 0x1B9B JUMP JUMPDEST PUSH1 0x1 PUSH1 0x1 PUSH1 0xA0 SHL SUB SWAP1 SWAP3 AND PUSH1 0x20 SWAP3 DUP4 MUL SWAP2 SWAP1 SWAP2 ADD SWAP1 SWAP2 ADD MSTORE DUP1 PUSH2 0xA2D DUP2 PUSH2 0x1BC7 JUMP JUMPDEST SWAP2 POP POP PUSH2 0x9CB JUMP JUMPDEST POP PUSH2 0xA41 DUP3 DUP3 DUP8 PUSH2 0xF71 JUMP JUMPDEST SWAP3 POP PUSH1 0x1 PUSH1 0x0 JUMPDEST DUP5 MLOAD DUP2 LT ISZERO PUSH2 0xB32 JUMPI PUSH1 0x0 DUP1 PUSH2 0xAC2 DUP8 DUP5 DUP2 MLOAD DUP2 LT PUSH2 0xA69 JUMPI PUSH2 0xA69 PUSH2 0x1B9B JUMP JUMPDEST PUSH1 0x20 MUL PUSH1 0x20 ADD ADD MLOAD DUP11 PUSH1 0x0 ADD MLOAD DUP6 DUP2 MLOAD DUP2 LT PUSH2 0xA87 JUMPI PUSH2 0xA87 PUSH2 0x1B9B JUMP JUMPDEST PUSH1 0x20 MUL PUSH1 0x20 ADD ADD MLOAD PUSH1 0x20 ADD MLOAD DUP12 PUSH1 0x0 ADD MLOAD DUP7 DUP2 MLOAD DUP2 LT PUSH2 0xAA9 JUMPI PUSH2 0xAA9 PUSH2 0x1B9B JUMP JUMPDEST PUSH1 0x20 MUL PUSH1 0x20 ADD ADD MLOAD PUSH1 0x0 ADD MLOAD PUSH1 0x60 ADD MLOAD PUSH1 0x60 ADD MLOAD PUSH2 0x10A9 JUMP JUMPDEST DUP10 DUP7 DUP2 MLOAD DUP2 LT PUSH2 0xAD4 JUMPI PUSH2 0xAD4 PUSH2 0x1B9B JUMP JUMPDEST PUSH1 0x20 MUL PUSH1 0x20 ADD ADD DUP2 SWAP5 POP DUP3 SWAP6 POP DUP4 SWAP1 MSTORE POP POP POP DUP1 ISZERO PUSH2 0xAF2 JUMPI PUSH1 0x0 SWAP4 POP JUMPDEST DUP2 PUSH2 0xB1D JUMPI PUSH1 0x40 MLOAD DUP1 PUSH1 0x40 ADD PUSH1 0x40 MSTORE DUP1 PUSH1 0x2 DUP2 MSTORE PUSH1 0x20 ADD PUSH2 0x363 PUSH1 0xF4 SHL DUP2 MSTORE POP SWAP8 POP POP POP POP POP PUSH2 0xB6E JUMP JUMPDEST POP POP DUP1 DUP1 PUSH2 0xB2A SWAP1 PUSH2 0x1BC7 JUMP JUMPDEST SWAP2 POP POP PUSH2 0xA48 JUMP JUMPDEST POP DUP1 PUSH2 0xB5B JUMPI PUSH1 0x40 MLOAD DUP1 PUSH1 0x40 ADD PUSH1 0x40 MSTORE DUP1 PUSH1 0x2 DUP2 MSTORE PUSH1 0x20 ADD PUSH2 0x3631 PUSH1 0xF0 SHL DUP2 MSTORE POP SWAP5 POP POP PUSH2 0xB6E JUMP JUMPDEST POP PUSH1 0x40 DUP1 MLOAD PUSH1 0x20 DUP2 ADD SWAP1 SWAP2 MSTORE PUSH1 0x0 DUP2 MSTORE SWAP4 POP JUMPDEST SWAP2 SWAP4 POP SWAP2 SWAP4 JUMP JUMPDEST PUSH1 0x0 PUSH2 0xB8A DUP4 PUSH1 0x1 PUSH1 0x1 PUSH1 0xA0 SHL SUB DUP5 AND PUSH2 0x11B1 JUMP JUMPDEST SWAP1 POP JUMPDEST SWAP3 SWAP2 POP POP JUMP JUMPDEST PUSH1 0x0 PUSH2 0xB8A DUP4 PUSH1 0x1 PUSH1 0x1 PUSH1 0xA0 SHL SUB DUP5 AND PUSH2 0x12A4 JUMP JUMPDEST PUSH1 0x40 MLOAD PUSH4 0x21F8A721 PUSH1 0xE0 SHL DUP2 MSTORE PUSH32 0x524F4F545F5341464554595F434845434B5F4144445245535300000000000000 PUSH1 0x4 DUP3 ADD MSTORE PUSH1 0x0 SWAP1 PUSH1 0x1 PUSH1 0x1 PUSH1 0xA0 SHL SUB DUP4 AND SWAP1 PUSH4 0x21F8A721 SWAP1 PUSH1 0x24 ADD PUSH1 0x20 PUSH1 0x40 MLOAD DUP1 DUP4 SUB DUP2 DUP7 GAS STATICCALL ISZERO DUP1 ISZERO PUSH2 0xC0F JUMPI RETURNDATASIZE PUSH1 0x0 DUP1 RETURNDATACOPY RETURNDATASIZE PUSH1 0x0 REVERT JUMPDEST POP POP POP POP PUSH1 0x40 MLOAD RETURNDATASIZE PUSH1 0x1F NOT PUSH1 0x1F DUP3 ADD AND DUP3 ADD DUP1 PUSH1 0x40 MSTORE POP DUP2 ADD SWAP1 PUSH2 0xB8D SWAP2 SWAP1 PUSH2 0x1BE2 JUMP JUMPDEST PUSH1 0x0 DUP2 MLOAD DUP4 MLOAD EQ PUSH2 0xC46 JUMPI POP PUSH1 0x0 PUSH2 0xB8D JUMP JUMPDEST POP DUP1 MLOAD PUSH1 0x20 SWAP2 DUP3 ADD KECCAK256 DUP3 MLOAD SWAP3 SWAP1 SWAP2 ADD SWAP2 SWAP1 SWAP2 KECCAK256 EQ SWAP1 JUMP JUMPDEST DUP2 MLOAD DUP5 MLOAD EQ PUSH1 0x40 MLOAD DUP1 PUSH1 0x40 ADD PUSH1 0x40 MSTORE DUP1 PUSH1 0x2 DUP2 MSTORE PUSH1 0x20 ADD PUSH2 0x3633 PUSH1 0xF0 SHL DUP2 MSTORE POP SWAP1 PUSH2 0xC9B JUMPI PUSH1 0x40 MLOAD PUSH3 0x461BCD PUSH1 0xE5 SHL DUP2 MSTORE PUSH1 0x4 ADD PUSH2 0x32D SWAP2 SWAP1 PUSH2 0x1A35 JUMP JUMPDEST POP DUP3 PUSH1 0x20 ADD MLOAD ISZERO PUSH2 0xDA2 JUMPI PUSH1 0x0 JUMPDEST DUP5 MLOAD DUP2 LT ISZERO PUSH2 0xD9C JUMPI DUP5 DUP2 DUP2 MLOAD DUP2 LT PUSH2 0xCC4 JUMPI PUSH2 0xCC4 PUSH2 0x1B9B JUMP JUMPDEST PUSH1 0x20 MUL PUSH1 0x20 ADD ADD MLOAD PUSH1 0x3 PUSH1 0x0 DUP6 DUP5 DUP2 MLOAD DUP2 LT PUSH2 0xCE2 JUMPI PUSH2 0xCE2 PUSH2 0x1B9B JUMP JUMPDEST PUSH1 0x20 MUL PUSH1 0x20 ADD ADD MLOAD PUSH1 0x1 PUSH1 0x1 PUSH1 0xA0 SHL SUB AND PUSH1 0x1 PUSH1 0x1 PUSH1 0xA0 SHL SUB AND DUP2 MSTORE PUSH1 0x20 ADD SWAP1 DUP2 MSTORE PUSH1 0x20 ADD PUSH1 0x0 KECCAK256 PUSH1 0x1 ADD PUSH1 0x0 DUP3 ADD MLOAD DUP2 PUSH1 0x0 ADD SSTORE PUSH1 0x20 DUP3 ADD MLOAD DUP2 PUSH1 0x1 ADD SSTORE SWAP1 POP POP PUSH1 0x0 DUP5 PUSH1 0x0 ADD MLOAD DUP3 DUP2 MLOAD DUP2 LT PUSH2 0xD3C JUMPI PUSH2 0xD3C PUSH2 0x1B9B JUMP JUMPDEST PUSH1 0x20 MUL PUSH1 0x20 ADD ADD MLOAD PUSH1 0x20 ADD MLOAD GT ISZERO PUSH2 0xD8A JUMPI DUP2 PUSH1 0x3 PUSH1 0x0 DUP6 DUP5 DUP2 MLOAD DUP2 LT PUSH2 0xD65 JUMPI PUSH2 0xD65 PUSH2 0x1B9B JUMP JUMPDEST PUSH1 0x20 SWAP1 DUP2 MUL SWAP2 SWAP1 SWAP2 ADD DUP2 ADD MLOAD PUSH1 0x1 PUSH1 0x1 PUSH1 0xA0 SHL SUB AND DUP3 MSTORE DUP2 ADD SWAP2 SWAP1 SWAP2 MSTORE PUSH1 0x40 ADD PUSH1 0x0 KECCAK256 SSTORE JUMPDEST DUP1 PUSH2 0xD94 DUP2 PUSH2 0x1BC7 JUMP JUMPDEST SWAP2 POP POP PUSH2 0xCA9 JUMP JUMPDEST POP PUSH2 0xE9A JUMP JUMPDEST PUSH1 0x0 JUMPDEST DUP5 MLOAD DUP2 LT ISZERO PUSH2 0xE98 JUMPI DUP5 DUP2 DUP2 MLOAD DUP2 LT PUSH2 0xDC0 JUMPI PUSH2 0xDC0 PUSH2 0x1B9B JUMP JUMPDEST PUSH1 0x20 MUL PUSH1 0x20 ADD ADD MLOAD PUSH1 0x3 PUSH1 0x0 DUP6 DUP5 DUP2 MLOAD DUP2 LT PUSH2 0xDDE JUMPI PUSH2 0xDDE PUSH2 0x1B9B JUMP JUMPDEST PUSH1 0x20 MUL PUSH1 0x20 ADD ADD MLOAD PUSH1 0x1 PUSH1 0x1 PUSH1 0xA0 SHL SUB AND PUSH1 0x1 PUSH1 0x1 PUSH1 0xA0 SHL SUB AND DUP2 MSTORE PUSH1 0x20 ADD SWAP1 DUP2 MSTORE PUSH1 0x20 ADD PUSH1 0x0 KECCAK256 PUSH1 0x3 ADD PUSH1 0x0 DUP3 ADD MLOAD DUP2 PUSH1 0x0 ADD SSTORE PUSH1 0x20 DUP3 ADD MLOAD DUP2 PUSH1 0x1 ADD SSTORE SWAP1 POP POP PUSH1 0x0 DUP5 PUSH1 0x0 ADD MLOAD DUP3 DUP2 MLOAD DUP2 LT PUSH2 0xE38 JUMPI PUSH2 0xE38 PUSH2 0x1B9B JUMP JUMPDEST PUSH1 0x20 MUL PUSH1 0x20 ADD ADD MLOAD PUSH1 0x20 ADD MLOAD GT ISZERO PUSH2 0xE86 JUMPI DUP2 PUSH1 0x3 PUSH1 0x0 DUP6 DUP5 DUP2 MLOAD DUP2 LT PUSH2 0xE61 JUMPI PUSH2 0xE61 PUSH2 0x1B9B JUMP JUMPDEST PUSH1 0x20 SWAP1 DUP2 MUL SWAP2 SWAP1 SWAP2 ADD DUP2 ADD MLOAD PUSH1 0x1 PUSH1 0x1 PUSH1 0xA0 SHL SUB AND DUP3 MSTORE DUP2 ADD SWAP2 SWAP1 SWAP2 MSTORE PUSH1 0x40 ADD PUSH1 0x0 KECCAK256 SSTORE JUMPDEST DUP1 PUSH2 0xE90 DUP2 PUSH2 0x1BC7 JUMP JUMPDEST SWAP2 POP POP PUSH2 0xDA5 JUMP JUMPDEST POP JUMPDEST POP POP POP POP JUMP JUMPDEST PUSH1 0x60 PUSH1 0x0 PUSH2 0xEAD DUP4 PUSH2 0x12F3 JUMP JUMPDEST SWAP1 POP PUSH1 0x0 DUP2 PUSH8 0xFFFFFFFFFFFFFFFF DUP2 GT ISZERO PUSH2 0xECA JUMPI PUSH2 0xECA PUSH2 0x1661 JUMP JUMPDEST PUSH1 0x40 MLOAD SWAP1 DUP1 DUP3 MSTORE DUP1 PUSH1 0x20 MUL PUSH1 0x20 ADD DUP3 ADD PUSH1 0x40 MSTORE DUP1 ISZERO PUSH2 0xEF3 JUMPI DUP2 PUSH1 0x20 ADD PUSH1 0x20 DUP3 MUL DUP1 CALLDATASIZE DUP4 CALLDATACOPY ADD SWAP1 POP JUMPDEST POP SWAP1 POP PUSH1 0x0 JUMPDEST DUP3 DUP2 LT ISZERO PUSH2 0xF47 JUMPI PUSH2 0xF0B DUP6 DUP3 PUSH2 0x12FD JUMP JUMPDEST DUP3 DUP3 DUP2 MLOAD DUP2 LT PUSH2 0xF1D JUMPI PUSH2 0xF1D PUSH2 0x1B9B JUMP JUMPDEST PUSH1 0x1 PUSH1 0x1 PUSH1 0xA0 SHL SUB SWAP1 SWAP3 AND PUSH1 0x20 SWAP3 DUP4 MUL SWAP2 SWAP1 SWAP2 ADD SWAP1 SWAP2 ADD MSTORE DUP1 PUSH2 0xF3F DUP2 PUSH2 0x1BC7 JUMP JUMPDEST SWAP2 POP POP PUSH2 0xEF9 JUMP JUMPDEST POP SWAP4 SWAP3 POP POP POP JUMP JUMPDEST PUSH1 0x1 PUSH1 0x1 PUSH1 0xA0 SHL SUB DUP2 AND PUSH1 0x0 SWAP1 DUP2 MSTORE PUSH1 0x1 DUP4 ADD PUSH1 0x20 MSTORE PUSH1 0x40 DUP2 KECCAK256 SLOAD ISZERO ISZERO PUSH2 0xB8A JUMP JUMPDEST PUSH1 0x60 PUSH1 0x0 DUP1 PUSH2 0xF80 DUP7 DUP6 PUSH2 0x1309 JUMP JUMPDEST SWAP2 POP SWAP2 POP PUSH1 0x0 JUMPDEST DUP3 MLOAD DUP2 LT ISZERO PUSH2 0x109E JUMPI PUSH1 0x0 DUP3 DUP3 DUP2 MLOAD DUP2 LT PUSH2 0xFA4 JUMPI PUSH2 0xFA4 PUSH2 0x1B9B JUMP JUMPDEST PUSH1 0x20 MUL PUSH1 0x20 ADD ADD MLOAD DUP8 PUSH2 0xFB7 SWAP2 SWAP1 PUSH2 0x1BFF JUMP JUMPDEST SWAP1 POP PUSH2 0xFE0 DUP5 DUP4 DUP2 MLOAD DUP2 LT PUSH2 0xFCE JUMPI PUSH2 0xFCE PUSH2 0x1B9B JUMP JUMPDEST PUSH1 0x20 MUL PUSH1 0x20 ADD ADD MLOAD PUSH1 0x20 ADD MLOAD DUP3 PUSH2 0x1558 JUMP JUMPDEST DUP5 DUP4 DUP2 MLOAD DUP2 LT PUSH2 0xFF2 JUMPI PUSH2 0xFF2 PUSH2 0x1B9B JUMP JUMPDEST PUSH1 0x20 MUL PUSH1 0x20 ADD ADD MLOAD PUSH1 0x20 ADD DUP2 DUP2 MSTORE POP POP PUSH2 0x106D DUP5 DUP4 DUP2 MLOAD DUP2 LT PUSH2 0x1017 JUMPI PUSH2 0x1017 PUSH2 0x1B9B JUMP JUMPDEST PUSH1 0x20 MUL PUSH1 0x20 ADD ADD MLOAD PUSH1 0x0 ADD MLOAD DUP9 DUP6 DUP6 DUP2 MLOAD DUP2 LT PUSH2 0x1036 JUMPI PUSH2 0x1036 PUSH2 0x1B9B JUMP JUMPDEST PUSH1 0x20 MUL PUSH1 0x20 ADD ADD MLOAD DUP10 PUSH1 0x0 ADD MLOAD DUP7 DUP2 MLOAD DUP2 LT PUSH2 0x1054 JUMPI PUSH2 0x1054 PUSH2 0x1B9B JUMP JUMPDEST PUSH1 0x20 MUL PUSH1 0x20 ADD ADD MLOAD PUSH1 0x0 ADD MLOAD PUSH1 0x60 ADD MLOAD PUSH1 0x40 ADD MLOAD PUSH2 0x157A JUMP JUMPDEST DUP5 DUP4 DUP2 MLOAD DUP2 LT PUSH2 0x107F JUMPI PUSH2 0x107F PUSH2 0x1B9B JUMP JUMPDEST PUSH1 0x20 SWAP1 DUP2 MUL SWAP2 SWAP1 SWAP2 ADD ADD MLOAD MSTORE POP DUP1 PUSH2 0x1096 DUP2 PUSH2 0x1BC7 JUMP JUMPDEST SWAP2 POP POP PUSH2 0xF87 JUMP JUMPDEST POP SWAP1 SWAP6 SWAP5 POP POP POP POP POP JUMP JUMPDEST PUSH1 0x40 DUP1 MLOAD DUP1 DUP3 ADD SWAP1 SWAP2 MSTORE PUSH1 0x0 DUP1 DUP3 MSTORE PUSH1 0x20 DUP3 ADD MSTORE PUSH1 0x20 DUP5 ADD MLOAD PUSH1 0x0 SWAP1 DUP2 SWAP1 PUSH1 0x1 SWAP1 DUP3 SWAP1 ISZERO PUSH2 0x10E3 JUMPI DUP8 PUSH1 0x0 PUSH1 0x1 SWAP5 POP SWAP5 POP SWAP5 POP POP POP PUSH2 0x11A8 JUMP JUMPDEST DUP8 MLOAD PUSH1 0x0 SWAP1 PUSH2 0x10F3 SWAP1 DUP10 SWAP1 PUSH2 0x1C16 JUMP JUMPDEST SWAP1 POP DUP7 DUP2 GT ISZERO PUSH2 0x112C JUMPI PUSH32 0x0 PUSH1 0x20 DUP11 ADD MSTORE PUSH1 0x0 SWAP3 POP PUSH2 0x119E JUMP JUMPDEST PUSH2 0x113E PUSH8 0xB1A2BC2EC500000 DUP9 PUSH2 0x15C6 JUMP JUMPDEST DUP2 GT ISZERO PUSH2 0x1188 JUMPI PUSH32 0x0 PUSH1 0x20 DUP11 ADD MSTORE DUP9 MLOAD DUP2 SWAP1 DUP11 SWAP1 PUSH2 0x117C SWAP1 DUP4 SWAP1 PUSH2 0x1C16 JUMP JUMPDEST SWAP1 MSTORE POP PUSH1 0x1 SWAP2 POP PUSH2 0x119E JUMP JUMPDEST DUP1 DUP10 PUSH1 0x0 ADD DUP2 DUP2 MLOAD PUSH2 0x119A SWAP2 SWAP1 PUSH2 0x1C16 JUMP JUMPDEST SWAP1 MSTORE POP JUMPDEST POP DUP8 SWAP5 POP SWAP1 SWAP3 POP SWAP1 POP JUMPDEST SWAP4 POP SWAP4 POP SWAP4 SWAP1 POP JUMP JUMPDEST PUSH1 0x0 DUP2 DUP2 MSTORE PUSH1 0x1 DUP4 ADD PUSH1 0x20 MSTORE PUSH1 0x40 DUP2 KECCAK256 SLOAD DUP1 ISZERO PUSH2 0x129A JUMPI PUSH1 0x0 PUSH2 0x11D5 PUSH1 0x1 DUP4 PUSH2 0x1BFF JUMP JUMPDEST DUP6 SLOAD SWAP1 SWAP2 POP PUSH1 0x0 SWAP1 PUSH2 0x11E9 SWAP1 PUSH1 0x1 SWAP1 PUSH2 0x1BFF JUMP JUMPDEST SWAP1 POP DUP2 DUP2 EQ PUSH2 0x124E JUMPI PUSH1 0x0 DUP7 PUSH1 0x0 ADD DUP3 DUP2 SLOAD DUP2 LT PUSH2 0x1209 JUMPI PUSH2 0x1209 PUSH2 0x1B9B JUMP JUMPDEST SWAP1 PUSH1 0x0 MSTORE PUSH1 0x20 PUSH1 0x0 KECCAK256 ADD SLOAD SWAP1 POP DUP1 DUP8 PUSH1 0x0 ADD DUP5 DUP2 SLOAD DUP2 LT PUSH2 0x122C JUMPI PUSH2 0x122C PUSH2 0x1B9B JUMP JUMPDEST PUSH1 0x0 SWAP2 DUP3 MSTORE PUSH1 0x20 DUP1 DUP4 KECCAK256 SWAP1 SWAP2 ADD SWAP3 SWAP1 SWAP3 SSTORE SWAP2 DUP3 MSTORE PUSH1 0x1 DUP9 ADD SWAP1 MSTORE PUSH1 0x40 SWAP1 KECCAK256 DUP4 SWAP1 SSTORE JUMPDEST DUP6 SLOAD DUP7 SWAP1 DUP1 PUSH2 0x125F JUMPI PUSH2 0x125F PUSH2 0x1C2E JUMP JUMPDEST PUSH1 0x1 SWAP1 SUB DUP2 DUP2 SWAP1 PUSH1 0x0 MSTORE PUSH1 0x20 PUSH1 0x0 KECCAK256 ADD PUSH1 0x0 SWAP1 SSTORE SWAP1 SSTORE DUP6 PUSH1 0x1 ADD PUSH1 0x0 DUP7 DUP2 MSTORE PUSH1 0x20 ADD SWAP1 DUP2 MSTORE PUSH1 0x20 ADD PUSH1 0x0 KECCAK256 PUSH1 0x0 SWAP1 SSTORE PUSH1 0x1 SWAP4 POP POP POP POP PUSH2 0xB8D JUMP JUMPDEST PUSH1 0x0 SWAP2 POP POP PUSH2 0xB8D JUMP JUMPDEST PUSH1 0x0 DUP2 DUP2 MSTORE PUSH1 0x1 DUP4 ADD PUSH1 0x20 MSTORE PUSH1 0x40 DUP2 KECCAK256 SLOAD PUSH2 0x12EB JUMPI POP DUP2 SLOAD PUSH1 0x1 DUP2 DUP2 ADD DUP5 SSTORE PUSH1 0x0 DUP5 DUP2 MSTORE PUSH1 0x20 DUP1 DUP3 KECCAK256 SWAP1 SWAP4 ADD DUP5 SWAP1 SSTORE DUP5 SLOAD DUP5 DUP3 MSTORE DUP3 DUP7 ADD SWAP1 SWAP4 MSTORE PUSH1 0x40 SWAP1 KECCAK256 SWAP2 SWAP1 SWAP2 SSTORE PUSH2 0xB8D JUMP JUMPDEST POP PUSH1 0x0 PUSH2 0xB8D JUMP JUMPDEST PUSH1 0x0 PUSH2 0xB8D DUP3 SLOAD SWAP1 JUMP JUMPDEST PUSH1 0x0 PUSH2 0xB8A DUP4 DUP4 PUSH2 0x15E7 JUMP JUMPDEST PUSH1 0x60 DUP1 DUP4 MLOAD PUSH8 0xFFFFFFFFFFFFFFFF DUP2 GT ISZERO PUSH2 0x1326 JUMPI PUSH2 0x1326 PUSH2 0x1661 JUMP JUMPDEST PUSH1 0x40 MLOAD SWAP1 DUP1 DUP3 MSTORE DUP1 PUSH1 0x20 MUL PUSH1 0x20 ADD DUP3 ADD PUSH1 0x40 MSTORE DUP1 ISZERO PUSH2 0x136B JUMPI DUP2 PUSH1 0x20 ADD JUMPDEST PUSH1 0x40 DUP1 MLOAD DUP1 DUP3 ADD SWAP1 SWAP2 MSTORE PUSH1 0x0 DUP1 DUP3 MSTORE PUSH1 0x20 DUP3 ADD MSTORE DUP2 MSTORE PUSH1 0x20 ADD SWAP1 PUSH1 0x1 SWAP1 SUB SWAP1 DUP2 PUSH2 0x1344 JUMPI SWAP1 POP JUMPDEST POP SWAP2 POP DUP4 MLOAD PUSH8 0xFFFFFFFFFFFFFFFF DUP2 GT ISZERO PUSH2 0x1388 JUMPI PUSH2 0x1388 PUSH2 0x1661 JUMP JUMPDEST PUSH1 0x40 MLOAD SWAP1 DUP1 DUP3 MSTORE DUP1 PUSH1 0x20 MUL PUSH1 0x20 ADD DUP3 ADD PUSH1 0x40 MSTORE DUP1 ISZERO PUSH2 0x13B1 JUMPI DUP2 PUSH1 0x20 ADD PUSH1 0x20 DUP3 MUL DUP1 CALLDATASIZE DUP4 CALLDATACOPY ADD SWAP1 POP JUMPDEST POP SWAP1 POP PUSH1 0x0 JUMPDEST DUP5 MLOAD DUP2 LT ISZERO PUSH2 0x1550 JUMPI PUSH1 0x0 DUP6 DUP3 DUP2 MLOAD DUP2 LT PUSH2 0x13D4 JUMPI PUSH2 0x13D4 PUSH2 0x1B9B JUMP JUMPDEST PUSH1 0x20 SWAP1 DUP2 MUL SWAP2 SWAP1 SWAP2 ADD DUP2 ADD MLOAD PUSH1 0x1 PUSH1 0x1 PUSH1 0xA0 SHL SUB DUP2 AND PUSH1 0x0 SWAP1 DUP2 MSTORE PUSH1 0x3 SWAP1 SWAP3 MSTORE PUSH1 0x40 SWAP1 SWAP2 KECCAK256 SLOAD SWAP1 SWAP2 POP DUP1 PUSH2 0x1467 JUMPI DUP2 PUSH1 0x1 PUSH1 0x1 PUSH1 0xA0 SHL SUB AND PUSH4 0xEAE4C19F PUSH1 0x40 MLOAD DUP2 PUSH4 0xFFFFFFFF AND PUSH1 0xE0 SHL DUP2 MSTORE PUSH1 0x4 ADD PUSH1 0x20 PUSH1 0x40 MLOAD DUP1 DUP4 SUB DUP2 DUP7 GAS STATICCALL ISZERO DUP1 ISZERO PUSH2 0x1440 JUMPI RETURNDATASIZE PUSH1 0x0 DUP1 RETURNDATACOPY RETURNDATASIZE PUSH1 0x0 REVERT JUMPDEST POP POP POP POP PUSH1 0x40 MLOAD RETURNDATASIZE PUSH1 0x1F NOT PUSH1 0x1F DUP3 ADD AND DUP3 ADD DUP1 PUSH1 0x40 MSTORE POP DUP2 ADD SWAP1 PUSH2 0x1464 SWAP2 SWAP1 PUSH2 0x1C44 JUMP JUMPDEST SWAP1 POP JUMPDEST DUP1 DUP5 DUP5 DUP2 MLOAD DUP2 LT PUSH2 0x147A JUMPI PUSH2 0x147A PUSH2 0x1B9B JUMP JUMPDEST PUSH1 0x20 MUL PUSH1 0x20 ADD ADD DUP2 DUP2 MSTORE POP POP DUP6 PUSH1 0x20 ADD MLOAD ISZERO PUSH2 0x14E7 JUMPI PUSH1 0x1 PUSH1 0x1 PUSH1 0xA0 SHL SUB DUP3 AND PUSH1 0x0 SWAP1 DUP2 MSTORE PUSH1 0x3 PUSH1 0x20 SWAP1 DUP2 MSTORE PUSH1 0x40 SWAP2 DUP3 SWAP1 KECCAK256 DUP3 MLOAD DUP1 DUP5 ADD SWAP1 SWAP4 MSTORE PUSH1 0x1 DUP2 ADD SLOAD DUP4 MSTORE PUSH1 0x2 ADD SLOAD SWAP1 DUP3 ADD MSTORE DUP6 MLOAD DUP7 SWAP1 DUP6 SWAP1 DUP2 LT PUSH2 0x14D7 JUMPI PUSH2 0x14D7 PUSH2 0x1B9B JUMP JUMPDEST PUSH1 0x20 MUL PUSH1 0x20 ADD ADD DUP2 SWAP1 MSTORE POP PUSH2 0x153B JUMP JUMPDEST PUSH1 0x1 PUSH1 0x1 PUSH1 0xA0 SHL SUB DUP3 AND PUSH1 0x0 SWAP1 DUP2 MSTORE PUSH1 0x3 PUSH1 0x20 DUP2 DUP2 MSTORE PUSH1 0x40 SWAP3 DUP4 SWAP1 KECCAK256 DUP4 MLOAD DUP1 DUP6 ADD SWAP1 SWAP5 MSTORE SWAP2 DUP3 ADD SLOAD DUP4 MSTORE PUSH1 0x4 SWAP1 SWAP2 ADD SLOAD SWAP1 DUP3 ADD MSTORE DUP6 MLOAD DUP7 SWAP1 DUP6 SWAP1 DUP2 LT PUSH2 0x152F JUMPI PUSH2 0x152F PUSH2 0x1B9B JUMP JUMPDEST PUSH1 0x20 MUL PUSH1 0x20 ADD ADD DUP2 SWAP1 MSTORE POP JUMPDEST POP POP DUP1 DUP1 PUSH2 0x1548 SWAP1 PUSH2 0x1BC7 JUMP JUMPDEST SWAP2 POP POP PUSH2 0x13B7 JUMP JUMPDEST POP SWAP3 POP SWAP3 SWAP1 POP JUMP JUMPDEST PUSH1 0x0 DUP3 DUP3 LT PUSH2 0x1569 JUMPI POP PUSH1 0x0 PUSH2 0xB8D JUMP JUMPDEST PUSH2 0x1573 DUP3 DUP5 PUSH2 0x1BFF JUMP JUMPDEST SWAP1 POP PUSH2 0xB8D JUMP JUMPDEST PUSH1 0x0 DUP4 DUP4 LT ISZERO PUSH2 0x15B3 JUMPI PUSH1 0x0 PUSH2 0x1590 DUP5 DUP7 PUSH2 0x1BFF JUMP JUMPDEST SWAP1 POP PUSH1 0x0 PUSH2 0x159E DUP5 DUP4 PUSH2 0x1611 JUMP JUMPDEST SWAP1 POP PUSH2 0x15AA DUP8 DUP3 PUSH2 0x15C6 JUMP JUMPDEST SWAP3 POP POP POP PUSH2 0x15BE JUMP JUMPDEST DUP4 DUP4 EQ ISZERO PUSH2 0x15BE JUMPI POP DUP4 JUMPDEST SWAP5 SWAP4 POP POP POP POP JUMP JUMPDEST PUSH1 0x0 DUP1 PUSH2 0x15D3 DUP4 DUP6 PUSH2 0x1C5D JUMP JUMPDEST SWAP1 POP PUSH2 0x15BE PUSH8 0xDE0B6B3A7640000 DUP3 PUSH2 0x1C92 JUMP JUMPDEST PUSH1 0x0 DUP3 PUSH1 0x0 ADD DUP3 DUP2 SLOAD DUP2 LT PUSH2 0x15FE JUMPI PUSH2 0x15FE PUSH2 0x1B9B JUMP JUMPDEST SWAP1 PUSH1 0x0 MSTORE PUSH1 0x20 PUSH1 0x0 KECCAK256 ADD SLOAD SWAP1 POP SWAP3 SWAP2 POP POP JUMP JUMPDEST PUSH1 0x0 PUSH8 0xDE0B6B3A7640000 JUMPDEST DUP3 ISZERO PUSH2 0xB8A JUMPI PUSH2 0x162E PUSH1 0x2 DUP5 PUSH2 0x1CA6 JUMP JUMPDEST PUSH1 0x1 EQ ISZERO PUSH2 0x1643 JUMPI PUSH2 0x1640 DUP2 DUP6 PUSH2 0x15C6 JUMP JUMPDEST SWAP1 POP JUMPDEST PUSH2 0x164E PUSH1 0x2 DUP5 PUSH2 0x1C92 JUMP JUMPDEST SWAP3 POP PUSH2 0x165A DUP5 DUP6 PUSH2 0x15C6 JUMP JUMPDEST SWAP4 POP PUSH2 0x161D JUMP JUMPDEST PUSH4 0x4E487B71 PUSH1 0xE0 SHL PUSH1 0x0 MSTORE PUSH1 0x41 PUSH1 0x4 MSTORE PUSH1 0x24 PUSH1 0x0 REVERT JUMPDEST PUSH1 0x40 DUP1 MLOAD SWAP1 DUP2 ADD PUSH8 0xFFFFFFFFFFFFFFFF DUP2 GT DUP3 DUP3 LT OR ISZERO PUSH2 0x169A JUMPI PUSH2 0x169A PUSH2 0x1661 JUMP JUMPDEST PUSH1 0x40 MSTORE SWAP1 JUMP JUMPDEST PUSH1 0x40 MLOAD PUSH2 0x100 DUP2 ADD PUSH8 0xFFFFFFFFFFFFFFFF DUP2 GT DUP3 DUP3 LT OR ISZERO PUSH2 0x169A JUMPI PUSH2 0x169A PUSH2 0x1661 JUMP JUMPDEST PUSH1 0x40 MLOAD PUSH1 0x1F DUP3 ADD PUSH1 0x1F NOT AND DUP2 ADD PUSH8 0xFFFFFFFFFFFFFFFF DUP2 GT DUP3 DUP3 LT OR ISZERO PUSH2 0x16ED JUMPI PUSH2 0x16ED PUSH2 0x1661 JUMP JUMPDEST PUSH1 0x40 MSTORE SWAP2 SWAP1 POP JUMP JUMPDEST PUSH1 0x0 PUSH8 0xFFFFFFFFFFFFFFFF DUP3 GT ISZERO PUSH2 0x170F JUMPI PUSH2 0x170F PUSH2 0x1661 JUMP JUMPDEST POP PUSH1 0x5 SHL PUSH1 0x20 ADD SWAP1 JUMP JUMPDEST PUSH1 0x1 PUSH1 0x1 PUSH1 0xA0 SHL SUB DUP2 AND DUP2 EQ PUSH2 0x172E JUMPI PUSH1 0x0 DUP1 REVERT JUMPDEST POP JUMP JUMPDEST DUP1 CALLDATALOAD PUSH2 0x54E DUP2 PUSH2 0x1719 JUMP JUMPDEST DUP1 CALLDATALOAD PUSH1 0xFF DUP2 AND DUP2 EQ PUSH2 0x54E JUMPI PUSH1 0x0 DUP1 REVERT JUMPDEST PUSH1 0x0 PUSH1 0x80 DUP3 DUP5 SUB SLT ISZERO PUSH2 0x175F JUMPI PUSH1 0x0 DUP1 REVERT JUMPDEST PUSH1 0x40 MLOAD PUSH1 0x80 DUP2 ADD DUP2 DUP2 LT PUSH8 0xFFFFFFFFFFFFFFFF DUP3 GT OR ISZERO PUSH2 0x1782 JUMPI PUSH2 0x1782 PUSH2 0x1661 JUMP JUMPDEST DUP1 PUSH1 0x40 MSTORE POP DUP1 SWAP2 POP DUP3 CALLDATALOAD DUP2 MSTORE PUSH1 0x20 DUP4 ADD CALLDATALOAD PUSH1 0x20 DUP3 ADD MSTORE PUSH1 0x40 DUP4 ADD CALLDATALOAD PUSH1 0x40 DUP3 ADD MSTORE PUSH1 0x60 DUP4 ADD CALLDATALOAD PUSH1 0x60 DUP3 ADD MSTORE POP SWAP3 SWAP2 POP POP JUMP JUMPDEST PUSH1 0x0 DUP3 PUSH1 0x1F DUP4 ADD SLT PUSH2 0x17C4 JUMPI PUSH1 0x0 DUP1 REVERT JUMPDEST DUP2 CALLDATALOAD PUSH1 0x20 PUSH2 0x17D9 PUSH2 0x17D4 DUP4 PUSH2 0x16F5 JUMP JUMPDEST PUSH2 0x16C4 JUMP JUMPDEST DUP3 DUP2 MSTORE PUSH1 0x6 SWAP3 SWAP1 SWAP3 SHL DUP5 ADD DUP2 ADD SWAP2 DUP2 DUP2 ADD SWAP1 DUP7 DUP5 GT ISZERO PUSH2 0x17F8 JUMPI PUSH1 0x0 DUP1 REVERT JUMPDEST DUP3 DUP7 ADD JUMPDEST DUP5 DUP2 LT ISZERO PUSH2 0x1840 JUMPI PUSH1 0x40 DUP2 DUP10 SUB SLT ISZERO PUSH2 0x1815 JUMPI PUSH1 0x0 DUP1 DUP2 REVERT JUMPDEST PUSH2 0x181D PUSH2 0x1677 JUMP JUMPDEST DUP2 CALLDATALOAD PUSH2 0x1828 DUP2 PUSH2 0x1719 JUMP JUMPDEST DUP2 MSTORE DUP2 DUP6 ADD CALLDATALOAD DUP6 DUP3 ADD MSTORE DUP4 MSTORE SWAP2 DUP4 ADD SWAP2 PUSH1 0x40 ADD PUSH2 0x17FC JUMP JUMPDEST POP SWAP7 SWAP6 POP POP POP POP POP POP JUMP JUMPDEST DUP1 CALLDATALOAD DUP1 ISZERO ISZERO DUP2 EQ PUSH2 0x54E JUMPI PUSH1 0x0 DUP1 REVERT JUMPDEST PUSH1 0x0 PUSH1 0x20 DUP3 DUP5 SUB SLT ISZERO PUSH2 0x186D JUMPI PUSH1 0x0 DUP1 REVERT JUMPDEST PUSH8 0xFFFFFFFFFFFFFFFF DUP1 DUP4 CALLDATALOAD GT ISZERO PUSH2 0x1884 JUMPI PUSH1 0x0 DUP1 REVERT JUMPDEST PUSH1 0x40 DUP4 CALLDATALOAD DUP5 ADD DUP6 SUB SLT ISZERO PUSH2 0x1897 JUMPI PUSH1 0x0 DUP1 REVERT JUMPDEST PUSH2 0x189F PUSH2 0x1677 JUMP JUMPDEST DUP2 DUP5 CALLDATALOAD DUP6 ADD CALLDATALOAD GT ISZERO PUSH2 0x18B0 JUMPI PUSH1 0x0 DUP1 REVERT JUMPDEST DUP4 CALLDATALOAD DUP5 ADD DUP1 CALLDATALOAD ADD PUSH1 0x1F DUP2 ADD DUP7 SGT PUSH2 0x18C6 JUMPI PUSH1 0x0 DUP1 REVERT JUMPDEST PUSH2 0x18D3 PUSH2 0x17D4 DUP3 CALLDATALOAD PUSH2 0x16F5 JUMP JUMPDEST DUP2 CALLDATALOAD DUP1 DUP3 MSTORE PUSH1 0x20 DUP1 DUP4 ADD SWAP3 SWAP2 PUSH1 0x5 SHL DUP5 ADD ADD DUP9 LT ISZERO PUSH2 0x18F1 JUMPI PUSH1 0x0 DUP1 REVERT JUMPDEST PUSH1 0x20 DUP4 ADD JUMPDEST PUSH1 0x20 DUP5 CALLDATALOAD PUSH1 0x5 SHL DUP6 ADD ADD DUP2 LT ISZERO PUSH2 0x1A13 JUMPI DUP6 DUP2 CALLDATALOAD GT ISZERO PUSH2 0x1915 JUMPI PUSH1 0x0 DUP1 REVERT JUMPDEST DUP1 CALLDATALOAD DUP5 ADD PUSH1 0x1F NOT PUSH1 0x40 DUP3 DUP13 SUB DUP3 ADD SLT ISZERO PUSH2 0x192E JUMPI PUSH1 0x0 DUP1 REVERT JUMPDEST PUSH2 0x1936 PUSH2 0x1677 JUMP JUMPDEST DUP9 PUSH1 0x20 DUP5 ADD CALLDATALOAD GT ISZERO PUSH2 0x1947 JUMPI PUSH1 0x0 DUP1 REVERT JUMPDEST PUSH1 0x20 DUP4 ADD CALLDATALOAD DUP4 ADD PUSH2 0x160 DUP4 DUP3 DUP16 SUB ADD SLT ISZERO PUSH2 0x1961 JUMPI PUSH1 0x0 DUP1 REVERT JUMPDEST PUSH2 0x1969 PUSH2 0x16A0 JUMP JUMPDEST SWAP3 POP PUSH2 0x1977 PUSH1 0x20 DUP3 ADD PUSH2 0x1731 JUMP JUMPDEST DUP4 MSTORE PUSH2 0x1985 PUSH1 0x40 DUP3 ADD PUSH2 0x173C JUMP JUMPDEST PUSH1 0x20 DUP5 ADD MSTORE PUSH1 0x60 DUP2 ADD CALLDATALOAD PUSH1 0x40 DUP5 ADD MSTORE PUSH2 0x19A1 DUP14 PUSH1 0x80 DUP4 ADD PUSH2 0x174D JUMP JUMPDEST PUSH1 0x60 DUP5 ADD MSTORE PUSH2 0x100 DUP2 ADD CALLDATALOAD PUSH1 0x80 DUP5 ADD MSTORE PUSH2 0x120 DUP2 ADD CALLDATALOAD PUSH1 0xA0 DUP5 ADD MSTORE PUSH2 0x140 DUP2 ADD CALLDATALOAD PUSH1 0xC0 DUP5 ADD MSTORE DUP10 PUSH2 0x160 DUP3 ADD CALLDATALOAD GT ISZERO PUSH2 0x19D9 JUMPI PUSH1 0x0 DUP1 REVERT JUMPDEST PUSH2 0x19ED DUP14 PUSH1 0x20 PUSH2 0x160 DUP5 ADD CALLDATALOAD DUP5 ADD ADD PUSH2 0x17B3 JUMP JUMPDEST PUSH1 0xE0 DUP5 ADD MSTORE POP SWAP1 DUP2 MSTORE PUSH1 0x40 SWAP2 SWAP1 SWAP2 ADD CALLDATALOAD PUSH1 0x20 DUP1 DUP4 ADD SWAP2 SWAP1 SWAP2 MSTORE SWAP1 DUP5 MSTORE SWAP3 DUP4 ADD SWAP3 ADD PUSH2 0x18F6 JUMP JUMPDEST POP DUP4 MSTORE POP PUSH2 0x1A28 SWAP1 POP DUP5 CALLDATALOAD DUP6 ADD PUSH1 0x20 ADD PUSH2 0x184B JUMP JUMPDEST PUSH1 0x20 DUP3 ADD MSTORE SWAP5 SWAP4 POP POP POP POP JUMP JUMPDEST PUSH1 0x0 PUSH1 0x20 DUP1 DUP4 MSTORE DUP4 MLOAD DUP1 DUP3 DUP6 ADD MSTORE PUSH1 0x0 JUMPDEST DUP2 DUP2 LT ISZERO PUSH2 0x1A62 JUMPI DUP6 DUP2 ADD DUP4 ADD MLOAD DUP6 DUP3 ADD PUSH1 0x40 ADD MSTORE DUP3 ADD PUSH2 0x1A46 JUMP JUMPDEST DUP2 DUP2 GT ISZERO PUSH2 0x1A74 JUMPI PUSH1 0x0 PUSH1 0x40 DUP4 DUP8 ADD ADD MSTORE JUMPDEST POP PUSH1 0x1F ADD PUSH1 0x1F NOT AND SWAP3 SWAP1 SWAP3 ADD PUSH1 0x40 ADD SWAP4 SWAP3 POP POP POP JUMP JUMPDEST PUSH1 0x0 PUSH1 0x20 DUP3 DUP5 SUB SLT ISZERO PUSH2 0x1A9C JUMPI PUSH1 0x0 DUP1 REVERT JUMPDEST DUP2 CALLDATALOAD PUSH2 0xB8A DUP2 PUSH2 0x1719 JUMP JUMPDEST DUP4 DUP2 MSTORE PUSH1 0xA0 DUP2 ADD PUSH2 0x1AC5 PUSH1 0x20 DUP4 ADD DUP6 DUP1 MLOAD DUP3 MSTORE PUSH1 0x20 SWAP1 DUP2 ADD MLOAD SWAP2 ADD MSTORE JUMP JUMPDEST DUP3 MLOAD PUSH1 0x60 DUP4 ADD MSTORE PUSH1 0x20 DUP4 ADD MLOAD PUSH1 0x80 DUP4 ADD MSTORE PUSH2 0x15BE JUMP JUMPDEST PUSH1 0x20 DUP1 DUP3 MSTORE DUP3 MLOAD DUP3 DUP3 ADD DUP2 SWAP1 MSTORE PUSH1 0x0 SWAP2 SWAP1 DUP5 DUP3 ADD SWAP1 PUSH1 0x40 DUP6 ADD SWAP1 DUP5 JUMPDEST DUP2 DUP2 LT ISZERO PUSH2 0x1B1C JUMPI DUP4 MLOAD PUSH1 0x1 PUSH1 0x1 PUSH1 0xA0 SHL SUB AND DUP4 MSTORE SWAP3 DUP5 ADD SWAP3 SWAP2 DUP5 ADD SWAP2 PUSH1 0x1 ADD PUSH2 0x1AF7 JUMP JUMPDEST POP SWAP1 SWAP7 SWAP6 POP POP POP POP POP POP JUMP JUMPDEST PUSH1 0x0 DUP1 DUP3 DUP5 SUB PUSH1 0x60 DUP2 SLT ISZERO PUSH2 0x1B3C JUMPI PUSH1 0x0 DUP1 REVERT JUMPDEST PUSH1 0x40 DUP2 SLT ISZERO PUSH2 0x1B4A JUMPI PUSH1 0x0 DUP1 REVERT JUMPDEST POP PUSH2 0x1B53 PUSH2 0x1677 JUMP JUMPDEST DUP4 CALLDATALOAD PUSH2 0x1B5E DUP2 PUSH2 0x1719 JUMP JUMPDEST DUP2 MSTORE PUSH1 0x20 DUP5 ADD CALLDATALOAD PUSH1 0x3 DUP2 LT PUSH2 0x1B72 JUMPI PUSH1 0x0 DUP1 REVERT JUMPDEST PUSH1 0x20 DUP3 ADD MSTORE SWAP5 PUSH1 0x40 SWAP4 SWAP1 SWAP4 ADD CALLDATALOAD SWAP4 POP POP POP JUMP JUMPDEST PUSH4 0x4E487B71 PUSH1 0xE0 SHL PUSH1 0x0 MSTORE PUSH1 0x21 PUSH1 0x4 MSTORE PUSH1 0x24 PUSH1 0x0 REVERT JUMPDEST PUSH4 0x4E487B71 PUSH1 0xE0 SHL PUSH1 0x0 MSTORE PUSH1 0x32 PUSH1 0x4 MSTORE PUSH1 0x24 PUSH1 0x0 REVERT JUMPDEST PUSH4 0x4E487B71 PUSH1 0xE0 SHL PUSH1 0x0 MSTORE PUSH1 0x11 PUSH1 0x4 MSTORE PUSH1 0x24 PUSH1 0x0 REVERT JUMPDEST PUSH1 0x0 PUSH1 0x0 NOT DUP3 EQ ISZERO PUSH2 0x1BDB JUMPI PUSH2 0x1BDB PUSH2 0x1BB1 JUMP JUMPDEST POP PUSH1 0x1 ADD SWAP1 JUMP JUMPDEST PUSH1 0x0 PUSH1 0x20 DUP3 DUP5 SUB SLT ISZERO PUSH2 0x1BF4 JUMPI PUSH1 0x0 DUP1 REVERT JUMPDEST DUP2 MLOAD PUSH2 0xB8A DUP2 PUSH2 0x1719 JUMP JUMPDEST PUSH1 0x0 DUP3 DUP3 LT ISZERO PUSH2 0x1C11 JUMPI PUSH2 0x1C11 PUSH2 0x1BB1 JUMP JUMPDEST POP SUB SWAP1 JUMP JUMPDEST PUSH1 0x0 DUP3 NOT DUP3 GT ISZERO PUSH2 0x1C29 JUMPI PUSH2 0x1C29 PUSH2 0x1BB1 JUMP JUMPDEST POP ADD SWAP1 JUMP JUMPDEST PUSH4 0x4E487B71 PUSH1 0xE0 SHL PUSH1 0x0 MSTORE PUSH1 0x31 PUSH1 0x4 MSTORE PUSH1 0x24 PUSH1 0x0 REVERT JUMPDEST PUSH1 0x0 PUSH1 0x20 DUP3 DUP5 SUB SLT ISZERO PUSH2 0x1C56 JUMPI PUSH1 0x0 DUP1 REVERT JUMPDEST POP MLOAD SWAP2 SWAP1 POP JUMP JUMPDEST PUSH1 0x0 DUP2 PUSH1 0x0 NOT DIV DUP4 GT DUP3 ISZERO ISZERO AND ISZERO PUSH2 0x1C77 JUMPI PUSH2 0x1C77 PUSH2 0x1BB1 JUMP JUMPDEST POP MUL SWAP1 JUMP JUMPDEST PUSH4 0x4E487B71 PUSH1 0xE0 SHL PUSH1 0x0 MSTORE PUSH1 0x12 PUSH1 0x4 MSTORE PUSH1 0x24 PUSH1 0x0 REVERT JUMPDEST PUSH1 0x0 DUP3 PUSH2 0x1CA1 JUMPI PUSH2 0x1CA1 PUSH2 0x1C7C JUMP JUMPDEST POP DIV SWAP1 JUMP JUMPDEST PUSH1 0x0 DUP3 PUSH2 0x1CB5 JUMPI PUSH2 0x1CB5 PUSH2 0x1C7C JUMP JUMPDEST POP MOD SWAP1 JUMP INVALID LOG2 PUSH5 0x6970667358 0x22 SLT KECCAK256 SWAP9 0x1E 0xD9 EXTCODEHASH CALLVALUE CALL DUP5 0xF7 JUMP SWAP5 DUP7 MSIZE 0xBE 0xDA 0x29 JUMPI 0xF LOG1 CHAINID 0x2D 0xB8 0xD4 PUSH9 0xEC11E0115840112CFF PUSH5 0x736F6C6343 STOP ADDMOD EXP STOP CALLER ","sha1":"7290c6cbd509545764ad8054d822c512513d4d23","source":"// SPDX-License-Identifier: UNLICENSED\npragma solidity ^0.8.4;\n\nimport \"@openzeppelin/contracts/token/ERC20/utils/SafeERC20.sol\";\nimport \"@openzeppelin/contracts/token/ERC20/ERC20.sol\";\nimport \"@openzeppelin/contracts/utils/structs/EnumerableSet.sol\";\n\nimport \"./../auth/Governable.sol\";\nimport \"../../libraries/DataTypes.sol\";\nimport \"../../interfaces/IReserveManager.sol\";\nimport \"../../interfaces/IGyroConfig.sol\";\nimport \"../../interfaces/IAssetRegistry.sol\";\nimport \"../../interfaces/IGyroVault.sol\";\nimport \"../../interfaces/balancer/IVault.sol\";\nimport \"../../libraries/Errors.sol\";\nimport \"../../interfaces/ISafetyCheck.sol\";\nimport \"../../interfaces/IVaultRegistry.sol\";\nimport \"../../libraries/FixedPoint.sol\";\nimport \"../../libraries/Flow.sol\";\nimport \"../../libraries/Errors.sol\";\nimport \"../../libraries/StringExtensions.sol\";\nimport \"../../libraries/EnumerableExtensions.sol\";\nimport \"../../libraries/ConfigHelpers.sol\";\n\ncontract VaultSafetyMode is ISafetyCheck, Governable {\n    using FixedPoint for uint256;\n    using StringExtensions for string;\n    using EnumerableSet for EnumerableSet.AddressSet;\n    using EnumerableExtensions for EnumerableSet.AddressSet;\n    using ConfigHelpers for IGyroConfig;\n\n    EnumerableSet.AddressSet internal whitelist;\n\n    /// @notice Emmited when the motherboard is changed\n    event MotherboardAddressChanged(address oldMotherboard, address newMotherboard);\n\n    /// @notice Emitted when entering safety mode\n    event SafetyStatus(string err);\n\n    /// @notice Emitted when a whitelisted address protects a vault\n    event OracleGuardianActivated(address vaultAddress, uint256 durationOfProtectionInBlocks);\n\n    event AddedToWhitelist(address indexed account);\n    event RemovedFromWhitelist(address indexed account);\n\n    mapping(address => DataTypes.FlowData) public persistedFlowData;\n\n    IGyroConfig public immutable gyroConfig;\n\n    uint256 public immutable safetyBlocksAutomatic;\n    uint256 public immutable safetyBlocksGuardian;\n\n    uint256 public constant THRESHOLD_BUFFER = 8e17;\n\n    constructor(\n        uint256 _safetyBlocksAutomatic,\n        uint256 _safetyBlocksGuardian,\n        address _gyroConfig\n    ) {\n        safetyBlocksAutomatic = _safetyBlocksAutomatic;\n        safetyBlocksGuardian = _safetyBlocksGuardian;\n        gyroConfig = IGyroConfig(_gyroConfig);\n    }\n\n    modifier rootSafetyCheckOnly() {\n        require(msg.sender == address(gyroConfig.getRootSafetyCheck()), Errors.NOT_AUTHORIZED);\n        _;\n    }\n\n    function _calculateRemainingBlocks(uint256 lastRemainingBlocks, uint256 blocksElapsed)\n        internal\n        pure\n        returns (uint256)\n    {\n        if (blocksElapsed >= lastRemainingBlocks) {\n            return 0;\n        } else {\n            return (lastRemainingBlocks - blocksElapsed);\n        }\n    }\n\n    //TODO: gas optimize this\n    function _storeDirectionalFlowData(\n        DataTypes.DirectionalFlowData[] memory directionalFlowData,\n        DataTypes.Order memory order,\n        address[] memory vaultAddresses,\n        uint256 currentBlockNumber\n    ) internal {\n        require(directionalFlowData.length == vaultAddresses.length, Errors.NOT_ENOUGH_FLOW_DATA);\n        if (order.mint) {\n            for (uint256 i = 0; i < directionalFlowData.length; i++) {\n                persistedFlowData[vaultAddresses[i]].inFlow = directionalFlowData[i];\n                if (order.vaultsWithAmount[i].amount > 0) {\n                    persistedFlowData[vaultAddresses[i]].lastSeenBlock = currentBlockNumber;\n                }\n            }\n        } else {\n            for (uint256 i = 0; i < directionalFlowData.length; i++) {\n                persistedFlowData[vaultAddresses[i]].outFlow = directionalFlowData[i];\n                if (order.vaultsWithAmount[i].amount > 0) {\n                    persistedFlowData[vaultAddresses[i]].lastSeenBlock = currentBlockNumber;\n                }\n            }\n        }\n    }\n\n    //TODO: gas optimize this. The parameters for this contract could also potentially be packed here.\n    function _accessDirectionalFlowData(\n        address[] memory vaultAddresses,\n        DataTypes.Order memory order\n    )\n        internal\n        view\n        returns (\n            DataTypes.DirectionalFlowData[] memory directionalFlowData,\n            uint256[] memory lastSeenBlock\n        )\n    {\n        directionalFlowData = new DataTypes.DirectionalFlowData[](vaultAddresses.length);\n        lastSeenBlock = new uint256[](vaultAddresses.length);\n\n        for (uint256 i = 0; i < vaultAddresses.length; i++) {\n            address vaultAddress = vaultAddresses[i];\n            uint256 lastBlock = persistedFlowData[vaultAddress].lastSeenBlock;\n            if (lastBlock == 0) {\n                lastBlock = IGyroVault(vaultAddress).deployedAt();\n            }\n            lastSeenBlock[i] = lastBlock;\n            if (order.mint) {\n                directionalFlowData[i] = persistedFlowData[vaultAddress].inFlow;\n            } else {\n                directionalFlowData[i] = persistedFlowData[vaultAddress].outFlow;\n            }\n        }\n    }\n\n    function _fetchLatestDirectionalFlowData(\n        address[] memory vaultAddresses,\n        uint256 currentBlockNumber,\n        DataTypes.Order memory order\n    ) internal view returns (DataTypes.DirectionalFlowData[] memory) {\n        (\n            DataTypes.DirectionalFlowData[] memory directionalFlowData,\n            uint256[] memory lastSeenBlock\n        ) = _accessDirectionalFlowData(vaultAddresses, order);\n\n        for (uint256 i = 0; i < directionalFlowData.length; i++) {\n            uint256 blocksElapsed = currentBlockNumber - lastSeenBlock[i];\n\n            directionalFlowData[i].remainingSafetyBlocks = _calculateRemainingBlocks(\n                directionalFlowData[i].remainingSafetyBlocks,\n                blocksElapsed\n            );\n\n            directionalFlowData[i].shortFlow = Flow.updateFlow(\n                directionalFlowData[i].shortFlow,\n                currentBlockNumber,\n                lastSeenBlock[i],\n                order.vaultsWithAmount[i].vaultInfo.persistedMetadata.shortFlowMemory\n            );\n        }\n        return directionalFlowData;\n    }\n\n    function _updateVaultFlowSafety(\n        DataTypes.DirectionalFlowData memory directionalFlowData,\n        uint256 proposedFlowChange,\n        uint256 shortFlowThreshold\n    )\n        internal\n        view\n        returns (\n            DataTypes.DirectionalFlowData memory,\n            bool,\n            bool\n        )\n    {\n        bool allowTransaction = true;\n        bool isSafetyModeActivated = false;\n\n        if (directionalFlowData.remainingSafetyBlocks > 0) {\n            return (directionalFlowData, false, true);\n        }\n        uint256 newFlow = directionalFlowData.shortFlow + proposedFlowChange;\n        if (newFlow > shortFlowThreshold) {\n            allowTransaction = false;\n            directionalFlowData.remainingSafetyBlocks = safetyBlocksAutomatic;\n        } else if (newFlow > THRESHOLD_BUFFER.mulDown(shortFlowThreshold)) {\n            directionalFlowData.remainingSafetyBlocks = safetyBlocksAutomatic;\n            directionalFlowData.shortFlow += newFlow;\n            isSafetyModeActivated = true;\n        } else {\n            directionalFlowData.shortFlow += newFlow;\n        }\n\n        return (directionalFlowData, allowTransaction, isSafetyModeActivated);\n    }\n\n    function _flowSafetyStateUpdater(DataTypes.Order memory order)\n        internal\n        view\n        returns (\n            string memory,\n            DataTypes.DirectionalFlowData[] memory latestDirectionalFlowData,\n            address[] memory vaultAddresses,\n            uint256 currentBlockNumber\n        )\n    {\n        currentBlockNumber = block.number;\n\n        vaultAddresses = new address[](order.vaultsWithAmount.length);\n        latestDirectionalFlowData = new DataTypes.DirectionalFlowData[](\n            order.vaultsWithAmount.length\n        );\n\n        for (uint256 i = 0; i < order.vaultsWithAmount.length; i++) {\n            vaultAddresses[i] = order.vaultsWithAmount[i].vaultInfo.vault;\n        }\n\n        latestDirectionalFlowData = _fetchLatestDirectionalFlowData(\n            vaultAddresses,\n            currentBlockNumber,\n            order\n        );\n\n        bool safetyModeOff = true;\n        for (uint256 i = 0; i < latestDirectionalFlowData.length; i++) {\n            bool allowTransaction;\n            bool isSafetyModeActivated;\n            (\n                latestDirectionalFlowData[i],\n                allowTransaction,\n                isSafetyModeActivated\n            ) = _updateVaultFlowSafety(\n                latestDirectionalFlowData[i],\n                order.vaultsWithAmount[i].amount,\n                order.vaultsWithAmount[i].vaultInfo.persistedMetadata.shortFlowThreshold\n            );\n\n            if (isSafetyModeActivated) {\n                safetyModeOff = false;\n            }\n            if (!allowTransaction) {\n                return (\n                    Errors.VAULT_FLOW_TOO_HIGH,\n                    latestDirectionalFlowData,\n                    vaultAddresses,\n                    currentBlockNumber\n                );\n            }\n        }\n\n        if (!safetyModeOff) {\n            return (\n                Errors.OPERATION_SUCCEEDS_BUT_SAFETY_MODE_ACTIVATED,\n                latestDirectionalFlowData,\n                vaultAddresses,\n                currentBlockNumber\n            );\n        }\n\n        return (\"\", latestDirectionalFlowData, vaultAddresses, currentBlockNumber);\n    }\n\n    /// @notice Checks whether a mint operation is safe\n    /// @return empty string if it is safe, otherwise the reason why it is not safe\n    function isMintSafe(DataTypes.Order memory order) external view returns (string memory) {\n        (string memory mintSafety, , , ) = _flowSafetyStateUpdater(order);\n        return mintSafety;\n    }\n\n    /// @notice Checks whether a mint operation is safe\n    /// This is only called when an actual mint is performed\n    /// The implementation should store any relevant information for the mint\n    /// @return empty string if it is safe, otherwise the reason why it is not safe\n    function checkAndPersistMint(DataTypes.Order memory order)\n        external\n        rootSafetyCheckOnly\n        returns (string memory)\n    {\n        (\n            string memory err,\n            DataTypes.DirectionalFlowData[] memory latestDirectionalFlowData,\n            address[] memory vaultAddresses,\n            uint256 currentBlockNumber\n        ) = _flowSafetyStateUpdater(order);\n\n        if (bytes(err).length > 0) {\n            if (err.compareStrings(Errors.OPERATION_SUCCEEDS_BUT_SAFETY_MODE_ACTIVATED)) {\n                emit SafetyStatus(err);\n            } else {\n                revert(Errors.NOT_SAFE_TO_MINT);\n            }\n        }\n\n        _storeDirectionalFlowData(\n            latestDirectionalFlowData,\n            order,\n            vaultAddresses,\n            currentBlockNumber\n        );\n        return err;\n    }\n\n    /// @notice Checks whether a redeem operation is safe\n    /// @return empty string if it is safe, otherwise the reason why it is not safe\n    function isRedeemSafe(DataTypes.Order memory order) external view returns (string memory) {\n        (string memory redeemSafety, , , ) = _flowSafetyStateUpdater(order);\n        return redeemSafety;\n    }\n\n    /// @notice Checks whether a redeem operation is safe\n    /// This is only called when an actual redeem is performed\n    /// The implementation should store any relevant information for the redeem\n    /// @return empty string if it is safe, otherwise the reason why it is not safe\n    function checkAndPersistRedeem(DataTypes.Order memory order)\n        external\n        rootSafetyCheckOnly\n        returns (string memory)\n    {\n        (\n            string memory err,\n            DataTypes.DirectionalFlowData[] memory latestDirectionalFlowData,\n            address[] memory vaultAddresses,\n            uint256 currentBlockNumber\n        ) = _flowSafetyStateUpdater(order);\n\n        if (bytes(err).length > 0) {\n            if (err.compareStrings(Errors.OPERATION_SUCCEEDS_BUT_SAFETY_MODE_ACTIVATED)) {\n                emit SafetyStatus(err);\n            } else {\n                revert(Errors.NOT_SAFE_TO_REDEEM);\n            }\n        }\n\n        _storeDirectionalFlowData(\n            latestDirectionalFlowData,\n            order,\n            vaultAddresses,\n            currentBlockNumber\n        );\n        return err;\n    }\n\n    function getWhitelist() external view returns (address[] memory) {\n        return whitelist.toArray();\n    }\n\n    function addAddressToWhitelist(address _addressToAdd) external governanceOnly {\n        whitelist.add(_addressToAdd);\n        emit AddedToWhitelist(_addressToAdd);\n    }\n\n    function removeAddressFromWhitelist(address _addressToRemove) external governanceOnly {\n        whitelist.remove(_addressToRemove);\n        emit RemovedFromWhitelist(_addressToRemove);\n    }\n\n    modifier isWhitelisted(address _address) {\n        require(whitelist.contains(_address), Errors.NOT_AUTHORIZED);\n        _;\n    }\n\n    function activateOracleGuardian(\n        DataTypes.GuardedVaults memory vaultToProtect,\n        uint256 blocksToActivate\n    ) external isWhitelisted(msg.sender) {\n        require(blocksToActivate <= safetyBlocksGuardian, Errors.ORACLE_GUARDIAN_TIME_LIMIT);\n\n        if (\n            vaultToProtect.direction == DataTypes.Direction.In ||\n            vaultToProtect.direction == DataTypes.Direction.Both\n        ) {\n            persistedFlowData[vaultToProtect.vaultAddress]\n                .inFlow\n                .remainingSafetyBlocks = blocksToActivate;\n            emit OracleGuardianActivated(vaultToProtect.vaultAddress, blocksToActivate);\n        }\n        if (\n            vaultToProtect.direction == DataTypes.Direction.Out ||\n            vaultToProtect.direction == DataTypes.Direction.Both\n        ) {\n            persistedFlowData[vaultToProtect.vaultAddress]\n                .outFlow\n                .remainingSafetyBlocks = blocksToActivate;\n            emit OracleGuardianActivated(vaultToProtect.vaultAddress, blocksToActivate);\n        }\n    }\n}\n","sourcePath":"contracts/safety/VaultSafetyMode.sol","type":"contract","deployment":{"address":"0x317e59004ad722A7d1645e82f311D417810eD914","chainid":"137","blockHeight":26856420}}