{"abi":[{"inputs":[{"internalType":"uint256","name":"_safetyBlocksAutomatic","type":"uint256"},{"internalType":"uint256","name":"_safetyBlocksGuardian","type":"uint256"},{"internalType":"address","name":"_gyroConfig","type":"address"}],"stateMutability":"nonpayable","type":"constructor","name":"constructor"},{"anonymous":false,"inputs":[{"indexed":true,"internalType":"address","name":"account","type":"address"}],"name":"AddedToWhitelist","type":"event"},{"anonymous":false,"inputs":[{"indexed":false,"internalType":"address","name":"newGovernor","type":"address"}],"name":"GovernorChangeRequested","type":"event"},{"anonymous":false,"inputs":[{"indexed":false,"internalType":"address","name":"oldGovernor","type":"address"},{"indexed":false,"internalType":"address","name":"newGovernor","type":"address"}],"name":"GovernorChanged","type":"event"},{"anonymous":false,"inputs":[{"indexed":false,"internalType":"address","name":"vaultAddress","type":"address"},{"indexed":false,"internalType":"uint256","name":"durationOfProtectionInBlocks","type":"uint256"}],"name":"OracleGuardianActivated","type":"event"},{"anonymous":false,"inputs":[{"indexed":true,"internalType":"address","name":"account","type":"address"}],"name":"RemovedFromWhitelist","type":"event"},{"anonymous":false,"inputs":[{"indexed":false,"internalType":"string","name":"err","type":"string"}],"name":"SafetyStatus","type":"event"},{"inputs":[],"name":"THRESHOLD_BUFFER","outputs":[{"internalType":"uint256","name":"","type":"uint256"}],"stateMutability":"view","type":"function"},{"inputs":[],"name":"acceptGovernance","outputs":[],"stateMutability":"nonpayable","type":"function"},{"inputs":[{"components":[{"internalType":"address","name":"vaultAddress","type":"address"},{"internalType":"enum DataTypes.Direction","name":"direction","type":"uint8"}],"internalType":"struct DataTypes.GuardedVaults","name":"vaultToProtect","type":"tuple"},{"internalType":"uint256","name":"blocksToActivate","type":"uint256"}],"name":"activateOracleGuardian","outputs":[],"stateMutability":"nonpayable","type":"function"},{"inputs":[{"internalType":"address","name":"_addressToAdd","type":"address"}],"name":"addAddressToWhitelist","outputs":[],"stateMutability":"nonpayable","type":"function"},{"inputs":[{"internalType":"address","name":"newGovernor","type":"address"}],"name":"changeGovernor","outputs":[],"stateMutability":"nonpayable","type":"function"},{"inputs":[{"components":[{"components":[{"components":[{"internalType":"address","name":"vault","type":"address"},{"internalType":"uint8","name":"decimals","type":"uint8"},{"internalType":"address","name":"underlying","type":"address"},{"internalType":"uint256","name":"price","type":"uint256"},{"components":[{"internalType":"uint256","name":"initialPrice","type":"uint256"},{"internalType":"uint256","name":"initialWeight","type":"uint256"},{"internalType":"uint256","name":"shortFlowMemory","type":"uint256"},{"internalType":"uint256","name":"shortFlowThreshold","type":"uint256"}],"internalType":"struct DataTypes.PersistedVaultMetadata","name":"persistedMetadata","type":"tuple"},{"internalType":"uint256","name":"reserveBalance","type":"uint256"},{"internalType":"uint256","name":"currentWeight","type":"uint256"},{"internalType":"uint256","name":"idealWeight","type":"uint256"},{"components":[{"internalType":"address","name":"tokenAddress","type":"address"},{"internalType":"bool","name":"isStable","type":"bool"},{"internalType":"uint256","name":"price","type":"uint256"}],"internalType":"struct DataTypes.PricedToken[]","name":"pricedTokens","type":"tuple[]"}],"internalType":"struct DataTypes.VaultInfo","name":"vaultInfo","type":"tuple"},{"internalType":"uint256","name":"amount","type":"uint256"}],"internalType":"struct DataTypes.VaultWithAmount[]","name":"vaultsWithAmount","type":"tuple[]"},{"internalType":"bool","name":"mint","type":"bool"}],"internalType":"struct DataTypes.Order","name":"order","type":"tuple"}],"name":"checkAndPersistMint","outputs":[],"stateMutability":"nonpayable","type":"function"},{"inputs":[{"components":[{"components":[{"components":[{"internalType":"address","name":"vault","type":"address"},{"internalType":"uint8","name":"decimals","type":"uint8"},{"internalType":"address","name":"underlying","type":"address"},{"internalType":"uint256","name":"price","type":"uint256"},{"components":[{"internalType":"uint256","name":"initialPrice","type":"uint256"},{"internalType":"uint256","name":"initialWeight","type":"uint256"},{"internalType":"uint256","name":"shortFlowMemory","type":"uint256"},{"internalType":"uint256","name":"shortFlowThreshold","type":"uint256"}],"internalType":"struct DataTypes.PersistedVaultMetadata","name":"persistedMetadata","type":"tuple"},{"internalType":"uint256","name":"reserveBalance","type":"uint256"},{"internalType":"uint256","name":"currentWeight","type":"uint256"},{"internalType":"uint256","name":"idealWeight","type":"uint256"},{"components":[{"internalType":"address","name":"tokenAddress","type":"address"},{"internalType":"bool","name":"isStable","type":"bool"},{"internalType":"uint256","name":"price","type":"uint256"}],"internalType":"struct DataTypes.PricedToken[]","name":"pricedTokens","type":"tuple[]"}],"internalType":"struct DataTypes.VaultInfo","name":"vaultInfo","type":"tuple"},{"internalType":"uint256","name":"amount","type":"uint256"}],"internalType":"struct DataTypes.VaultWithAmount[]","name":"vaultsWithAmount","type":"tuple[]"},{"internalType":"bool","name":"mint","type":"bool"}],"internalType":"struct DataTypes.Order","name":"order","type":"tuple"}],"name":"checkAndPersistRedeem","outputs":[],"stateMutability":"nonpayable","type":"function"},{"inputs":[],"name":"getWhitelist","outputs":[{"internalType":"address[]","name":"","type":"address[]"}],"stateMutability":"view","type":"function"},{"inputs":[],"name":"governor","outputs":[{"internalType":"address","name":"","type":"address"}],"stateMutability":"view","type":"function"},{"inputs":[],"name":"gyroConfig","outputs":[{"internalType":"contract IGyroConfig","name":"","type":"address"}],"stateMutability":"view","type":"function"},{"inputs":[{"internalType":"address","name":"_governor","type":"address"}],"name":"initialize","outputs":[],"stateMutability":"nonpayable","type":"function"},{"inputs":[{"components":[{"components":[{"components":[{"internalType":"address","name":"vault","type":"address"},{"internalType":"uint8","name":"decimals","type":"uint8"},{"internalType":"address","name":"underlying","type":"address"},{"internalType":"uint256","name":"price","type":"uint256"},{"components":[{"internalType":"uint256","name":"initialPrice","type":"uint256"},{"internalType":"uint256","name":"initialWeight","type":"uint256"},{"internalType":"uint256","name":"shortFlowMemory","type":"uint256"},{"internalType":"uint256","name":"shortFlowThreshold","type":"uint256"}],"internalType":"struct DataTypes.PersistedVaultMetadata","name":"persistedMetadata","type":"tuple"},{"internalType":"uint256","name":"reserveBalance","type":"uint256"},{"internalType":"uint256","name":"currentWeight","type":"uint256"},{"internalType":"uint256","name":"idealWeight","type":"uint256"},{"components":[{"internalType":"address","name":"tokenAddress","type":"address"},{"internalType":"bool","name":"isStable","type":"bool"},{"internalType":"uint256","name":"price","type":"uint256"}],"internalType":"struct DataTypes.PricedToken[]","name":"pricedTokens","type":"tuple[]"}],"internalType":"struct DataTypes.VaultInfo","name":"vaultInfo","type":"tuple"},{"internalType":"uint256","name":"amount","type":"uint256"}],"internalType":"struct DataTypes.VaultWithAmount[]","name":"vaultsWithAmount","type":"tuple[]"},{"internalType":"bool","name":"mint","type":"bool"}],"internalType":"struct DataTypes.Order","name":"order","type":"tuple"}],"name":"isMintSafe","outputs":[{"internalType":"string","name":"","type":"string"}],"stateMutability":"view","type":"function"},{"inputs":[{"components":[{"components":[{"components":[{"internalType":"address","name":"vault","type":"address"},{"internalType":"uint8","name":"decimals","type":"uint8"},{"internalType":"address","name":"underlying","type":"address"},{"internalType":"uint256","name":"price","type":"uint256"},{"components":[{"internalType":"uint256","name":"initialPrice","type":"uint256"},{"internalType":"uint256","name":"initialWeight","type":"uint256"},{"internalType":"uint256","name":"shortFlowMemory","type":"uint256"},{"internalType":"uint256","name":"shortFlowThreshold","type":"uint256"}],"internalType":"struct DataTypes.PersistedVaultMetadata","name":"persistedMetadata","type":"tuple"},{"internalType":"uint256","name":"reserveBalance","type":"uint256"},{"internalType":"uint256","name":"currentWeight","type":"uint256"},{"internalType":"uint256","name":"idealWeight","type":"uint256"},{"components":[{"internalType":"address","name":"tokenAddress","type":"address"},{"internalType":"bool","name":"isStable","type":"bool"},{"internalType":"uint256","name":"price","type":"uint256"}],"internalType":"struct DataTypes.PricedToken[]","name":"pricedTokens","type":"tuple[]"}],"internalType":"struct DataTypes.VaultInfo","name":"vaultInfo","type":"tuple"},{"internalType":"uint256","name":"amount","type":"uint256"}],"internalType":"struct DataTypes.VaultWithAmount[]","name":"vaultsWithAmount","type":"tuple[]"},{"internalType":"bool","name":"mint","type":"bool"}],"internalType":"struct DataTypes.Order","name":"order","type":"tuple"}],"name":"isRedeemSafe","outputs":[{"internalType":"string","name":"","type":"string"}],"stateMutability":"view","type":"function"},{"inputs":[],"name":"pendingGovernor","outputs":[{"internalType":"address","name":"","type":"address"}],"stateMutability":"view","type":"function"},{"inputs":[{"internalType":"address","name":"","type":"address"}],"name":"persistedFlowData","outputs":[{"internalType":"uint256","name":"lastSeenBlock","type":"uint256"},{"components":[{"internalType":"uint256","name":"shortFlow","type":"uint256"},{"internalType":"uint256","name":"remainingSafetyBlocks","type":"uint256"}],"internalType":"struct DataTypes.DirectionalFlowData","name":"inFlow","type":"tuple"},{"components":[{"internalType":"uint256","name":"shortFlow","type":"uint256"},{"internalType":"uint256","name":"remainingSafetyBlocks","type":"uint256"}],"internalType":"struct DataTypes.DirectionalFlowData","name":"outFlow","type":"tuple"}],"stateMutability":"view","type":"function"},{"inputs":[{"internalType":"address","name":"_addressToRemove","type":"address"}],"name":"removeAddressFromWhitelist","outputs":[],"stateMutability":"nonpayable","type":"function"},{"inputs":[],"name":"safetyBlocksAutomatic","outputs":[{"internalType":"uint256","name":"","type":"uint256"}],"stateMutability":"view","type":"function"},{"inputs":[],"name":"safetyBlocksGuardian","outputs":[{"internalType":"uint256","name":"","type":"uint256"}],"stateMutability":"view","type":"function"}],"bytecode":"60e060405234801561001057600080fd5b5060405161209238038061209283398101604081905261002f91610049565b60a09290925260c0526001600160a01b031660805261008f565b60008060006060848603121561005e57600080fd5b83516020850151604086015191945092506001600160a01b038116811461008457600080fd5b809150509250925092565b60805160a05160c051611fb16100e16000396000818161024c015261098801526000818161029901528181611435015261147d0152600081816101f201528181610504015261072e0152611fb16000f3fe608060405234801561001057600080fd5b50600436106101165760003560e01c8063a0763820116100a2578063d625436c11610071578063d625436c146102d0578063e2cc867914610214578063e3056a34146102e3578063e4c0aaf4146102f6578063fc283b861461030957600080fd5b8063a07638201461026e578063c4d66de814610281578063c9e959bf14610294578063d01f63f5146102bb57600080fd5b8063286dd3f5116100e9578063286dd3f5146101da57806344bbdb55146101ed5780636382b296146102145780637b9417c814610234578063a036c2841461024757600080fd5b80630bdf8d221461011b5780630c340a241461013d578063238efcbc1461016857806325aeb09214610172575b600080fd5b61012a670b1a2bc2ec50000081565b6040519081526020015b60405180910390f35b600054610150906001600160a01b031681565b6040516001600160a01b039091168152602001610134565b61017061031c565b005b6101cb6101803660046118ff565b60046020818152600092835260409283902080548451808601865260018301548152600283015481850152855180870190965260038301548652919093015491840191909152909183565b6040516101349392919061191c565b6101706101e83660046118ff565b6103d5565b6101507f000000000000000000000000000000000000000000000000000000000000000081565b610227610222366004611b5b565b61045e565b6040516101349190611d47565b6101706102423660046118ff565b610476565b61012a7f000000000000000000000000000000000000000000000000000000000000000081565b61017061027c366004611b5b565b6104ff565b61017061028f3660046118ff565b610648565b61012a7f000000000000000000000000000000000000000000000000000000000000000081565b6102c3610718565b6040516101349190611d9c565b6101706102de366004611b5b565b610729565b600154610150906001600160a01b031681565b6101706103043660046118ff565b610852565b610170610317366004611de9565b610927565b600154604080518082019091526002815261033360f41b6020820152906001600160a01b0316331461036a5760405162461bcd60e51b81526004016103619190611d47565b60405180910390fd5b5060008054600180546001600160a01b03198084166001600160a01b03808416919091179095551690556040805192909116808352336020840152917fde4b3f61490b74c0ed6237523974fe299126bbbf8a8a7482fd220104c59b0c8491015b60405180910390a150565b600054604080518082019091526002815261033360f41b6020820152906001600160a01b0316331461041a5760405162461bcd60e51b81526004016103619190611d47565b50610426600282610b05565b506040516001600160a01b038216907fcdd2e9b91a56913d370075169cefa1602ba36be5301664f752192bb1709df75790600090a250565b6060600061046b83610b23565b509195945050505050565b600054604080518082019091526002815261033360f41b6020820152906001600160a01b031633146104bb5760405162461bcd60e51b81526004016103619190611d47565b506104c7600282610d84565b506040516001600160a01b038216907fa850ae9193f515cbae8d35e8925bd2be26627fc91bce650b8652ed254e9cab0390600090a250565b6105317f00000000000000000000000000000000000000000000000000000000000000006001600160a01b0316610d99565b6001600160a01b0316336001600160a01b03161460405180604001604052806002815260200161033360f41b8152509061057e5760405162461bcd60e51b81526004016103619190611d47565b5060008060008061058e85610b23565b935093509350935060008451111561063557604080518082019091526002815261363160f01b60208201526105c4908590610e24565b15610605577f135e6dd29efa875112189add0769ed7f19cd6db71eefe10bf040c499f5aab344846040516105f89190611d47565b60405180910390a1610635565b6040805180820182526002815261353360f01b6020820152905162461bcd60e51b81526103619190600401611d47565b61064183868484610e4e565b5050505050565b600154600160a81b900460ff168061066a5750600154600160a01b900460ff16155b6106cd5760405162461bcd60e51b815260206004820152602e60248201527f496e697469616c697a61626c653a20636f6e747261637420697320616c72656160448201526d191e481a5b9a5d1a585b1a5e995960921b6064820152608401610361565b600154600160a81b900460ff161580156106f7576001805461ffff60a01b191661010160a01b1790555b6107008261108f565b8015610714576001805460ff60a81b191690555b5050565b606061072460026110e3565b905090565b61075b7f00000000000000000000000000000000000000000000000000000000000000006001600160a01b0316610d99565b6001600160a01b0316336001600160a01b03161460405180604001604052806002815260200161033360f41b815250906107a85760405162461bcd60e51b81526004016103619190611d47565b506000806000806107b885610b23565b935093509350935060008451111561063557604080518082019091526002815261363160f01b60208201526107ee908590610e24565b15610822577f135e6dd29efa875112189add0769ed7f19cd6db71eefe10bf040c499f5aab344846040516105f89190611d47565b60408051808201825260028152611a9960f11b6020820152905162461bcd60e51b81526103619190600401611d47565b600054604080518082019091526002815261033360f41b6020820152906001600160a01b031633146108975760405162461bcd60e51b81526004016103619190611d47565b50604080518082019091526002815261333160f01b60208201526001600160a01b0382166108d85760405162461bcd60e51b81526004016103619190611d47565b50600180546001600160a01b0319166001600160a01b0383169081179091556040519081527f67235ba2e63c748a35b95c4f92a3bbc2a1389938170a5ce6c9add5d0b03a314a906020016103ca565b33610933600282611192565b60405180604001604052806002815260200161033360f41b8152509061096c5760405162461bcd60e51b81526004016103619190611d47565b506040805180820190915260028152611b1960f11b60208201527f00000000000000000000000000000000000000000000000000000000000000008311156109c75760405162461bcd60e51b81526004016103619190611d47565b506000836020015160028111156109e0576109e0611e46565b1480610a0157506002836020015160028111156109ff576109ff611e46565b145b15610a645782516001600160a01b03908116600090815260046020908152604091829020600201859055855182519316835282018490527fe90da2e9a0fdaf7644472f107c782b166da61c0cc6d6311cde8028b5b120d304910160405180910390a15b600183602001516002811115610a7c57610a7c611e46565b1480610a9d5750600283602001516002811115610a9b57610a9b611e46565b145b15610b005782516001600160a01b03908116600090815260046020818152604092839020909101859055855182519316835282018490527fe90da2e9a0fdaf7644472f107c782b166da61c0cc6d6311cde8028b5b120d304910160405180910390a15b505050565b6000610b1a836001600160a01b0384166111b4565b90505b92915050565b80515160609081908190439067ffffffffffffffff811115610b4757610b47611950565b604051908082528060200260200182016040528015610b70578160200160208202803683370190505b5085515190925067ffffffffffffffff811115610b8f57610b8f611950565b604051908082528060200260200182016040528015610bd457816020015b6040805180820190915260008082526020820152815260200190600190039081610bad5790505b50925060005b855151811015610c44578551805182908110610bf857610bf8611e5c565b60200260200101516000015160000151838281518110610c1a57610c1a611e5c565b6001600160a01b039092166020928302919091019091015280610c3c81611e88565b915050610bda565b50610c508282876112a7565b9250600160005b8451811015610d4157600080610cd1878481518110610c7857610c78611e5c565b60200260200101518a600001518581518110610c9657610c96611e5c565b6020026020010151602001518b600001518681518110610cb857610cb8611e5c565b60200260200101516000015160800151606001516113df565b898681518110610ce357610ce3611e5c565b602002602001018194508295508390525050508015610d0157600093505b81610d2c5760405180604001604052806002815260200161036360f41b815250975050505050610d7d565b50508080610d3990611e88565b915050610c57565b5080610d6a5760405180604001604052806002815260200161363160f01b815250945050610d7d565b5060408051602081019091526000815293505b9193509193565b6000610b1a836001600160a01b0384166114e7565b6040516321f8a72160e01b81527f524f4f545f5341464554595f434845434b5f414444524553530000000000000060048201526000906001600160a01b038316906321f8a72190602401602060405180830381865afa158015610e00573d6000803e3d6000fd5b505050506040513d601f19601f82011682018060405250810190610b1d9190611ea3565b60008151835114610e3757506000610b1d565b508051602091820120825192909101919091201490565b815184511460405180604001604052806002815260200161363360f01b81525090610e8c5760405162461bcd60e51b81526004016103619190611d47565b50826020015115610f935760005b8451811015610f8d57848181518110610eb557610eb5611e5c565b602002602001015160046000858481518110610ed357610ed3611e5c565b60200260200101516001600160a01b03166001600160a01b031681526020019081526020016000206001016000820151816000015560208201518160010155905050600084600001518281518110610f2d57610f2d611e5c565b6020026020010151602001511115610f7b578160046000858481518110610f5657610f56611e5c565b6020908102919091018101516001600160a01b03168252810191909152604001600020555b80610f8581611e88565b915050610e9a565b50611089565b60005b845181101561064157848181518110610fb157610fb1611e5c565b602002602001015160046000858481518110610fcf57610fcf611e5c565b60200260200101516001600160a01b03166001600160a01b03168152602001908152602001600020600301600082015181600001556020820151816001015590505060008460000151828151811061102957611029611e5c565b602002602001015160200151111561107757816004600085848151811061105257611052611e5c565b6020908102919091018101516001600160a01b03168252810191909152604001600020555b8061108181611e88565b915050610f96565b50505050565b600080546001600160a01b0319166001600160a01b03831690811782556040805192835260208301919091527fde4b3f61490b74c0ed6237523974fe299126bbbf8a8a7482fd220104c59b0c8491016103ca565b606060006110f083611536565b905060008167ffffffffffffffff81111561110d5761110d611950565b604051908082528060200260200182016040528015611136578160200160208202803683370190505b50905060005b8281101561118a5761114e8582611540565b82828151811061116057611160611e5c565b6001600160a01b03909216602092830291909101909101528061118281611e88565b91505061113c565b509392505050565b6001600160a01b03811660009081526001830160205260408120541515610b1a565b6000818152600183016020526040812054801561129d5760006111d8600183611ec0565b85549091506000906111ec90600190611ec0565b905081811461125157600086600001828154811061120c5761120c611e5c565b906000526020600020015490508087600001848154811061122f5761122f611e5c565b6000918252602080832090910192909255918252600188019052604090208390555b855486908061126257611262611ed7565b600190038181906000526020600020016000905590558560010160008681526020019081526020016000206000905560019350505050610b1d565b6000915050610b1d565b60606000806112b6868561154c565b9150915060005b82518110156113d45760008282815181106112da576112da611e5c565b6020026020010151876112ed9190611ec0565b905061131684838151811061130457611304611e5c565b6020026020010151602001518261179a565b84838151811061132857611328611e5c565b602002602001015160200181815250506113a384838151811061134d5761134d611e5c565b6020026020010151600001518885858151811061136c5761136c611e5c565b60200260200101518960000151868151811061138a5761138a611e5c565b60200260200101516000015160800151604001516117bc565b8483815181106113b5576113b5611e5c565b60209081029190910101515250806113cc81611e88565b9150506112bd565b509095945050505050565b60408051808201909152600080825260208201526020840151600090819060019082901561141957876000600194509450945050506114de565b8751600090611429908990611eed565b905086811115611462577f000000000000000000000000000000000000000000000000000000000000000060208a0152600092506114d4565b611474670b1a2bc2ec5000008861183c565b8111156114be577f000000000000000000000000000000000000000000000000000000000000000060208a0152885181908a906114b2908390611eed565b905250600191506114d4565b80896000018181516114d09190611eed565b9052505b5087945090925090505b93509350939050565b600081815260018301602052604081205461152e57508154600181810184556000848152602080822090930184905584548482528286019093526040902091909155610b1d565b506000610b1d565b6000610b1d825490565b6000610b1a838361185d565b606080835167ffffffffffffffff81111561156957611569611950565b6040519080825280602002602001820160405280156115ae57816020015b60408051808201909152600080825260208201528152602001906001900390816115875790505b509150835167ffffffffffffffff8111156115cb576115cb611950565b6040519080825280602002602001820160405280156115f4578160200160208202803683370190505b50905060005b845181101561179257600085828151811061161757611617611e5c565b6020908102919091018101516001600160a01b03811660009081526004909252604090912054909150806116aa57816001600160a01b031663eae4c19f6040518163ffffffff1660e01b8152600401602060405180830381865afa158015611683573d6000803e3d6000fd5b505050506040513d601f19601f820116820180604052508101906116a79190611f05565b90505b808484815181106116bd576116bd611e5c565b60200260200101818152505085602001511561172a576001600160a01b0382166000908152600460209081526040918290208251808401909352600181015483526002015490820152855186908590811061171a5761171a611e5c565b602002602001018190525061177d565b6001600160a01b0382166000908152600460208181526040928390208351808501909452600381015484529091015490820152855186908590811061177157611771611e5c565b60200260200101819052505b5050808061178a90611e88565b9150506115fa565b509250929050565b60008282106117ab57506000610b1d565b6117b58284611ec0565b9050610b1d565b6000838310156117f55760006117d28486611ec0565b905060006117e08483611887565b90506117ec878261183c565b92505050611834565b83831415611804575083611834565b6040805180820182526002815261333160f01b6020820152905162461bcd60e51b81526103619190600401611d47565b949350505050565b6000806118498385611f1e565b9050611834670de0b6b3a764000082611f53565b600082600001828154811061187457611874611e5c565b9060005260206000200154905092915050565b6000670de0b6b3a76400005b8215610b1a576118a4600284611f67565b600114156118b9576118b6818561183c565b90505b6118c4600284611f53565b92506118d0848561183c565b9350611893565b6001600160a01b03811681146118ec57600080fd5b50565b80356118fa816118d7565b919050565b60006020828403121561191157600080fd5b8135610b1a816118d7565b83815260a0810161193a602083018580518252602090810151910152565b8251606083015260208301516080830152611834565b634e487b7160e01b600052604160045260246000fd5b6040516060810167ffffffffffffffff8111828210171561198957611989611950565b60405290565b6040805190810167ffffffffffffffff8111828210171561198957611989611950565b604051610120810167ffffffffffffffff8111828210171561198957611989611950565b604051601f8201601f1916810167ffffffffffffffff811182821017156119ff576119ff611950565b604052919050565b600067ffffffffffffffff821115611a2157611a21611950565b5060051b60200190565b803560ff811681146118fa57600080fd5b600060808284031215611a4e57600080fd5b6040516080810181811067ffffffffffffffff82111715611a7157611a71611950565b8060405250809150823581526020830135602082015260408301356040820152606083013560608201525092915050565b803580151581146118fa57600080fd5b600082601f830112611ac357600080fd5b81356020611ad8611ad383611a07565b6119d6565b82815260609283028501820192828201919087851115611af757600080fd5b8387015b85811015611b4e5781818a031215611b135760008081fd5b611b1b611966565b8135611b26816118d7565b8152611b33828701611aa2565b81870152604082810135908201528452928401928101611afb565b5090979650505050505050565b600060208284031215611b6d57600080fd5b67ffffffffffffffff8083351115611b8457600080fd5b60408335840185031215611b9757600080fd5b611b9f61198f565b8184358501351115611bb057600080fd5b83358401803501601f81018613611bc657600080fd5b611bd3611ad38235611a07565b81358082526020808301929160051b840101881015611bf157600080fd5b602083015b6020843560051b850101811015611d25578581351115611c1557600080fd5b80358401601f196040828c0382011215611c2e57600080fd5b611c3661198f565b8860208401351115611c4757600080fd5b6020830135830161018083828f03011215611c6157600080fd5b611c696119b2565b9250611c77602082016118ef565b8352611c8560408201611a2b565b6020840152611c96606082016118ef565b604084015260808101356060840152611cb28d60a08301611a3c565b608084015261012081013560a084015261014081013560c084015261016081013560e0840152896101808201351115611cea57600080fd5b611cfe8d6020610180840135840101611ab2565b61010084015250908152604091909101356020808301919091529084529283019201611bf6565b50835250611d3a905084358501602001611aa2565b6020820152949350505050565b600060208083528351808285015260005b81811015611d7457858101830151858201604001528201611d58565b81811115611d86576000604083870101525b50601f01601f1916929092016040019392505050565b6020808252825182820181905260009190848201906040850190845b81811015611ddd5783516001600160a01b031683529284019291840191600101611db8565b50909695505050505050565b6000808284036060811215611dfd57600080fd5b6040811215611e0b57600080fd5b50611e1461198f565b8335611e1f816118d7565b8152602084013560038110611e3357600080fd5b6020820152946040939093013593505050565b634e487b7160e01b600052602160045260246000fd5b634e487b7160e01b600052603260045260246000fd5b634e487b7160e01b600052601160045260246000fd5b6000600019821415611e9c57611e9c611e72565b5060010190565b600060208284031215611eb557600080fd5b8151610b1a816118d7565b600082821015611ed257611ed2611e72565b500390565b634e487b7160e01b600052603160045260246000fd5b60008219821115611f0057611f00611e72565b500190565b600060208284031215611f1757600080fd5b5051919050565b6000816000190483118215151615611f3857611f38611e72565b500290565b634e487b7160e01b600052601260045260246000fd5b600082611f6257611f62611f3d565b500490565b600082611f7657611f76611f3d565b50069056fea2646970667358221220e52f7cf2c043bfae94b2f3175d0253ea3f3dade4ca8f74f1b54ea6b2cfd50ef864736f6c634300080a0033","bytecodeSha1":"07426e3805efce0a1ea1935714d750988518adfd","compiler":{"evm_version":"london","optimizer":{"enabled":true,"runs":200},"version":"0.8.10+commit.fc410830"},"contractName":"VaultSafetyMode","language":"Solidity","natspec":{"kind":"dev","methods":{"acceptGovernance()":{"notice":"Called by the pending governor to approve the change"},"changeGovernor(address)":{"notice":"Changes the governor can only be called by the current governor"},"checkAndPersistMint((((address,uint8,address,uint256,(uint256,uint256,uint256,uint256),uint256,uint256,uint256,(address,bool,uint256)[]),uint256)[],bool))":{"notice":"Checks whether a mint operation is safe and reverts otherwise This is only called when an actual mint is performed The implementation should store any relevant information for the mint"},"checkAndPersistRedeem((((address,uint8,address,uint256,(uint256,uint256,uint256,uint256),uint256,uint256,uint256,(address,bool,uint256)[]),uint256)[],bool))":{"notice":"Checks whether a redeem operation is safe This is only called when an actual redeem is performed The implementation should store any relevant information for the redeem"},"governor()":{"notice":"Returns the current governor"},"isMintSafe((((address,uint8,address,uint256,(uint256,uint256,uint256,uint256),uint256,uint256,uint256,(address,bool,uint256)[]),uint256)[],bool))":{"notice":"Checks whether a mint operation is safe","returns":{"_0":"empty string if it is safe, otherwise the reason why it is not safe"}},"isRedeemSafe((((address,uint8,address,uint256,(uint256,uint256,uint256,uint256),uint256,uint256,uint256,(address,bool,uint256)[]),uint256)[],bool))":{"notice":"Checks whether a redeem operation is safe","returns":{"_0":"empty string if it is safe, otherwise the reason why it is not safe"}},"pendingGovernor()":{"notice":"Returns the pending governor"}},"version":1},"opcodes":"PUSH1 0x80 PUSH1 0x40 MSTORE CALLVALUE DUP1 ISZERO PUSH2 0x10 JUMPI PUSH1 0x0 DUP1 REVERT JUMPDEST POP PUSH1 0x4 CALLDATASIZE LT PUSH2 0x116 JUMPI PUSH1 0x0 CALLDATALOAD PUSH1 0xE0 SHR DUP1 PUSH4 0xA0763820 GT PUSH2 0xA2 JUMPI DUP1 PUSH4 0xD625436C GT PUSH2 0x71 JUMPI DUP1 PUSH4 0xD625436C EQ PUSH2 0x2D0 JUMPI DUP1 PUSH4 0xE2CC8679 EQ PUSH2 0x214 JUMPI DUP1 PUSH4 0xE3056A34 EQ PUSH2 0x2E3 JUMPI DUP1 PUSH4 0xE4C0AAF4 EQ PUSH2 0x2F6 JUMPI DUP1 PUSH4 0xFC283B86 EQ PUSH2 0x309 JUMPI PUSH1 0x0 DUP1 REVERT JUMPDEST DUP1 PUSH4 0xA0763820 EQ PUSH2 0x26E JUMPI DUP1 PUSH4 0xC4D66DE8 EQ PUSH2 0x281 JUMPI DUP1 PUSH4 0xC9E959BF EQ PUSH2 0x294 JUMPI DUP1 PUSH4 0xD01F63F5 EQ PUSH2 0x2BB JUMPI PUSH1 0x0 DUP1 REVERT JUMPDEST DUP1 PUSH4 0x286DD3F5 GT PUSH2 0xE9 JUMPI DUP1 PUSH4 0x286DD3F5 EQ PUSH2 0x1DA JUMPI DUP1 PUSH4 0x44BBDB55 EQ PUSH2 0x1ED JUMPI DUP1 PUSH4 0x6382B296 EQ PUSH2 0x214 JUMPI DUP1 PUSH4 0x7B9417C8 EQ PUSH2 0x234 JUMPI DUP1 PUSH4 0xA036C284 EQ PUSH2 0x247 JUMPI PUSH1 0x0 DUP1 REVERT JUMPDEST DUP1 PUSH4 0xBDF8D22 EQ PUSH2 0x11B JUMPI DUP1 PUSH4 0xC340A24 EQ PUSH2 0x13D JUMPI DUP1 PUSH4 0x238EFCBC EQ PUSH2 0x168 JUMPI DUP1 PUSH4 0x25AEB092 EQ PUSH2 0x172 JUMPI JUMPDEST PUSH1 0x0 DUP1 REVERT JUMPDEST PUSH2 0x12A PUSH8 0xB1A2BC2EC500000 DUP2 JUMP JUMPDEST PUSH1 0x40 MLOAD SWAP1 DUP2 MSTORE PUSH1 0x20 ADD JUMPDEST PUSH1 0x40 MLOAD DUP1 SWAP2 SUB SWAP1 RETURN JUMPDEST PUSH1 0x0 SLOAD PUSH2 0x150 SWAP1 PUSH1 0x1 PUSH1 0x1 PUSH1 0xA0 SHL SUB AND DUP2 JUMP JUMPDEST PUSH1 0x40 MLOAD PUSH1 0x1 PUSH1 0x1 PUSH1 0xA0 SHL SUB SWAP1 SWAP2 AND DUP2 MSTORE PUSH1 0x20 ADD PUSH2 0x134 JUMP JUMPDEST PUSH2 0x170 PUSH2 0x31C JUMP JUMPDEST STOP JUMPDEST PUSH2 0x1CB PUSH2 0x180 CALLDATASIZE PUSH1 0x4 PUSH2 0x18FF JUMP JUMPDEST PUSH1 0x4 PUSH1 0x20 DUP2 DUP2 MSTORE PUSH1 0x0 SWAP3 DUP4 MSTORE PUSH1 0x40 SWAP3 DUP4 SWAP1 KECCAK256 DUP1 SLOAD DUP5 MLOAD DUP1 DUP7 ADD DUP7 MSTORE PUSH1 0x1 DUP4 ADD SLOAD DUP2 MSTORE PUSH1 0x2 DUP4 ADD SLOAD DUP2 DUP6 ADD MSTORE DUP6 MLOAD DUP1 DUP8 ADD SWAP1 SWAP7 MSTORE PUSH1 0x3 DUP4 ADD SLOAD DUP7 MSTORE SWAP2 SWAP1 SWAP4 ADD SLOAD SWAP2 DUP5 ADD SWAP2 SWAP1 SWAP2 MSTORE SWAP1 SWAP2 DUP4 JUMP JUMPDEST PUSH1 0x40 MLOAD PUSH2 0x134 SWAP4 SWAP3 SWAP2 SWAP1 PUSH2 0x191C JUMP JUMPDEST PUSH2 0x170 PUSH2 0x1E8 CALLDATASIZE PUSH1 0x4 PUSH2 0x18FF JUMP JUMPDEST PUSH2 0x3D5 JUMP JUMPDEST PUSH2 0x150 PUSH32 0x0 DUP2 JUMP JUMPDEST PUSH2 0x227 PUSH2 0x222 CALLDATASIZE PUSH1 0x4 PUSH2 0x1B5B JUMP JUMPDEST PUSH2 0x45E JUMP JUMPDEST PUSH1 0x40 MLOAD PUSH2 0x134 SWAP2 SWAP1 PUSH2 0x1D47 JUMP JUMPDEST PUSH2 0x170 PUSH2 0x242 CALLDATASIZE PUSH1 0x4 PUSH2 0x18FF JUMP JUMPDEST PUSH2 0x476 JUMP JUMPDEST PUSH2 0x12A PUSH32 0x0 DUP2 JUMP JUMPDEST PUSH2 0x170 PUSH2 0x27C CALLDATASIZE PUSH1 0x4 PUSH2 0x1B5B JUMP JUMPDEST PUSH2 0x4FF JUMP JUMPDEST PUSH2 0x170 PUSH2 0x28F CALLDATASIZE PUSH1 0x4 PUSH2 0x18FF JUMP JUMPDEST PUSH2 0x648 JUMP JUMPDEST PUSH2 0x12A PUSH32 0x0 DUP2 JUMP JUMPDEST PUSH2 0x2C3 PUSH2 0x718 JUMP JUMPDEST PUSH1 0x40 MLOAD PUSH2 0x134 SWAP2 SWAP1 PUSH2 0x1D9C JUMP JUMPDEST PUSH2 0x170 PUSH2 0x2DE CALLDATASIZE PUSH1 0x4 PUSH2 0x1B5B JUMP JUMPDEST PUSH2 0x729 JUMP JUMPDEST PUSH1 0x1 SLOAD PUSH2 0x150 SWAP1 PUSH1 0x1 PUSH1 0x1 PUSH1 0xA0 SHL SUB AND DUP2 JUMP JUMPDEST PUSH2 0x170 PUSH2 0x304 CALLDATASIZE PUSH1 0x4 PUSH2 0x18FF JUMP JUMPDEST PUSH2 0x852 JUMP JUMPDEST PUSH2 0x170 PUSH2 0x317 CALLDATASIZE PUSH1 0x4 PUSH2 0x1DE9 JUMP JUMPDEST PUSH2 0x927 JUMP JUMPDEST PUSH1 0x1 SLOAD PUSH1 0x40 DUP1 MLOAD DUP1 DUP3 ADD SWAP1 SWAP2 MSTORE PUSH1 0x2 DUP2 MSTORE PUSH2 0x333 PUSH1 0xF4 SHL PUSH1 0x20 DUP3 ADD MSTORE SWAP1 PUSH1 0x1 PUSH1 0x1 PUSH1 0xA0 SHL SUB AND CALLER EQ PUSH2 0x36A JUMPI PUSH1 0x40 MLOAD PUSH3 0x461BCD PUSH1 0xE5 SHL DUP2 MSTORE PUSH1 0x4 ADD PUSH2 0x361 SWAP2 SWAP1 PUSH2 0x1D47 JUMP JUMPDEST PUSH1 0x40 MLOAD DUP1 SWAP2 SUB SWAP1 REVERT JUMPDEST POP PUSH1 0x0 DUP1 SLOAD PUSH1 0x1 DUP1 SLOAD PUSH1 0x1 PUSH1 0x1 PUSH1 0xA0 SHL SUB NOT DUP1 DUP5 AND PUSH1 0x1 PUSH1 0x1 PUSH1 0xA0 SHL SUB DUP1 DUP5 AND SWAP2 SWAP1 SWAP2 OR SWAP1 SWAP6 SSTORE AND SWAP1 SSTORE PUSH1 0x40 DUP1 MLOAD SWAP3 SWAP1 SWAP2 AND DUP1 DUP4 MSTORE CALLER PUSH1 0x20 DUP5 ADD MSTORE SWAP2 PUSH32 0xDE4B3F61490B74C0ED6237523974FE299126BBBF8A8A7482FD220104C59B0C84 SWAP2 ADD JUMPDEST PUSH1 0x40 MLOAD DUP1 SWAP2 SUB SWAP1 LOG1 POP JUMP JUMPDEST PUSH1 0x0 SLOAD PUSH1 0x40 DUP1 MLOAD DUP1 DUP3 ADD SWAP1 SWAP2 MSTORE PUSH1 0x2 DUP2 MSTORE PUSH2 0x333 PUSH1 0xF4 SHL PUSH1 0x20 DUP3 ADD MSTORE SWAP1 PUSH1 0x1 PUSH1 0x1 PUSH1 0xA0 SHL SUB AND CALLER EQ PUSH2 0x41A JUMPI PUSH1 0x40 MLOAD PUSH3 0x461BCD PUSH1 0xE5 SHL DUP2 MSTORE PUSH1 0x4 ADD PUSH2 0x361 SWAP2 SWAP1 PUSH2 0x1D47 JUMP JUMPDEST POP PUSH2 0x426 PUSH1 0x2 DUP3 PUSH2 0xB05 JUMP JUMPDEST POP PUSH1 0x40 MLOAD PUSH1 0x1 PUSH1 0x1 PUSH1 0xA0 SHL SUB DUP3 AND SWAP1 PUSH32 0xCDD2E9B91A56913D370075169CEFA1602BA36BE5301664F752192BB1709DF757 SWAP1 PUSH1 0x0 SWAP1 LOG2 POP JUMP JUMPDEST PUSH1 0x60 PUSH1 0x0 PUSH2 0x46B DUP4 PUSH2 0xB23 JUMP JUMPDEST POP SWAP2 SWAP6 SWAP5 POP POP POP POP POP JUMP JUMPDEST PUSH1 0x0 SLOAD PUSH1 0x40 DUP1 MLOAD DUP1 DUP3 ADD SWAP1 SWAP2 MSTORE PUSH1 0x2 DUP2 MSTORE PUSH2 0x333 PUSH1 0xF4 SHL PUSH1 0x20 DUP3 ADD MSTORE SWAP1 PUSH1 0x1 PUSH1 0x1 PUSH1 0xA0 SHL SUB AND CALLER EQ PUSH2 0x4BB JUMPI PUSH1 0x40 MLOAD PUSH3 0x461BCD PUSH1 0xE5 SHL DUP2 MSTORE PUSH1 0x4 ADD PUSH2 0x361 SWAP2 SWAP1 PUSH2 0x1D47 JUMP JUMPDEST POP PUSH2 0x4C7 PUSH1 0x2 DUP3 PUSH2 0xD84 JUMP JUMPDEST POP PUSH1 0x40 MLOAD PUSH1 0x1 PUSH1 0x1 PUSH1 0xA0 SHL SUB DUP3 AND SWAP1 PUSH32 0xA850AE9193F515CBAE8D35E8925BD2BE26627FC91BCE650B8652ED254E9CAB03 SWAP1 PUSH1 0x0 SWAP1 LOG2 POP JUMP JUMPDEST PUSH2 0x531 PUSH32 0x0 PUSH1 0x1 PUSH1 0x1 PUSH1 0xA0 SHL SUB AND PUSH2 0xD99 JUMP JUMPDEST PUSH1 0x1 PUSH1 0x1 PUSH1 0xA0 SHL SUB AND CALLER PUSH1 0x1 PUSH1 0x1 PUSH1 0xA0 SHL SUB AND EQ PUSH1 0x40 MLOAD DUP1 PUSH1 0x40 ADD PUSH1 0x40 MSTORE DUP1 PUSH1 0x2 DUP2 MSTORE PUSH1 0x20 ADD PUSH2 0x333 PUSH1 0xF4 SHL DUP2 MSTORE POP SWAP1 PUSH2 0x57E JUMPI PUSH1 0x40 MLOAD PUSH3 0x461BCD PUSH1 0xE5 SHL DUP2 MSTORE PUSH1 0x4 ADD PUSH2 0x361 SWAP2 SWAP1 PUSH2 0x1D47 JUMP JUMPDEST POP PUSH1 0x0 DUP1 PUSH1 0x0 DUP1 PUSH2 0x58E DUP6 PUSH2 0xB23 JUMP JUMPDEST SWAP4 POP SWAP4 POP SWAP4 POP SWAP4 POP PUSH1 0x0 DUP5 MLOAD GT ISZERO PUSH2 0x635 JUMPI PUSH1 0x40 DUP1 MLOAD DUP1 DUP3 ADD SWAP1 SWAP2 MSTORE PUSH1 0x2 DUP2 MSTORE PUSH2 0x3631 PUSH1 0xF0 SHL PUSH1 0x20 DUP3 ADD MSTORE PUSH2 0x5C4 SWAP1 DUP6 SWAP1 PUSH2 0xE24 JUMP JUMPDEST ISZERO PUSH2 0x605 JUMPI PUSH32 0x135E6DD29EFA875112189ADD0769ED7F19CD6DB71EEFE10BF040C499F5AAB344 DUP5 PUSH1 0x40 MLOAD PUSH2 0x5F8 SWAP2 SWAP1 PUSH2 0x1D47 JUMP JUMPDEST PUSH1 0x40 MLOAD DUP1 SWAP2 SUB SWAP1 LOG1 PUSH2 0x635 JUMP JUMPDEST PUSH1 0x40 DUP1 MLOAD DUP1 DUP3 ADD DUP3 MSTORE PUSH1 0x2 DUP2 MSTORE PUSH2 0x3533 PUSH1 0xF0 SHL PUSH1 0x20 DUP3 ADD MSTORE SWAP1 MLOAD PUSH3 0x461BCD PUSH1 0xE5 SHL DUP2 MSTORE PUSH2 0x361 SWAP2 SWAP1 PUSH1 0x4 ADD PUSH2 0x1D47 JUMP JUMPDEST PUSH2 0x641 DUP4 DUP7 DUP5 DUP5 PUSH2 0xE4E JUMP JUMPDEST POP POP POP POP POP JUMP JUMPDEST PUSH1 0x1 SLOAD PUSH1 0x1 PUSH1 0xA8 SHL SWAP1 DIV PUSH1 0xFF AND DUP1 PUSH2 0x66A JUMPI POP PUSH1 0x1 SLOAD PUSH1 0x1 PUSH1 0xA0 SHL SWAP1 DIV PUSH1 0xFF AND ISZERO JUMPDEST PUSH2 0x6CD JUMPI PUSH1 0x40 MLOAD PUSH3 0x461BCD PUSH1 0xE5 SHL DUP2 MSTORE PUSH1 0x20 PUSH1 0x4 DUP3 ADD MSTORE PUSH1 0x2E PUSH1 0x24 DUP3 ADD MSTORE PUSH32 0x496E697469616C697A61626C653A20636F6E747261637420697320616C726561 PUSH1 0x44 DUP3 ADD MSTORE PUSH14 0x191E481A5B9A5D1A585B1A5E9959 PUSH1 0x92 SHL PUSH1 0x64 DUP3 ADD MSTORE PUSH1 0x84 ADD PUSH2 0x361 JUMP JUMPDEST PUSH1 0x1 SLOAD PUSH1 0x1 PUSH1 0xA8 SHL SWAP1 DIV PUSH1 0xFF AND ISZERO DUP1 ISZERO PUSH2 0x6F7 JUMPI PUSH1 0x1 DUP1 SLOAD PUSH2 0xFFFF PUSH1 0xA0 SHL NOT AND PUSH2 0x101 PUSH1 0xA0 SHL OR SWAP1 SSTORE JUMPDEST PUSH2 0x700 DUP3 PUSH2 0x108F JUMP JUMPDEST DUP1 ISZERO PUSH2 0x714 JUMPI PUSH1 0x1 DUP1 SLOAD PUSH1 0xFF PUSH1 0xA8 SHL NOT AND SWAP1 SSTORE JUMPDEST POP POP JUMP JUMPDEST PUSH1 0x60 PUSH2 0x724 PUSH1 0x2 PUSH2 0x10E3 JUMP JUMPDEST SWAP1 POP SWAP1 JUMP JUMPDEST PUSH2 0x75B PUSH32 0x0 PUSH1 0x1 PUSH1 0x1 PUSH1 0xA0 SHL SUB AND PUSH2 0xD99 JUMP JUMPDEST PUSH1 0x1 PUSH1 0x1 PUSH1 0xA0 SHL SUB AND CALLER PUSH1 0x1 PUSH1 0x1 PUSH1 0xA0 SHL SUB AND EQ PUSH1 0x40 MLOAD DUP1 PUSH1 0x40 ADD PUSH1 0x40 MSTORE DUP1 PUSH1 0x2 DUP2 MSTORE PUSH1 0x20 ADD PUSH2 0x333 PUSH1 0xF4 SHL DUP2 MSTORE POP SWAP1 PUSH2 0x7A8 JUMPI PUSH1 0x40 MLOAD PUSH3 0x461BCD PUSH1 0xE5 SHL DUP2 MSTORE PUSH1 0x4 ADD PUSH2 0x361 SWAP2 SWAP1 PUSH2 0x1D47 JUMP JUMPDEST POP PUSH1 0x0 DUP1 PUSH1 0x0 DUP1 PUSH2 0x7B8 DUP6 PUSH2 0xB23 JUMP JUMPDEST SWAP4 POP SWAP4 POP SWAP4 POP SWAP4 POP PUSH1 0x0 DUP5 MLOAD GT ISZERO PUSH2 0x635 JUMPI PUSH1 0x40 DUP1 MLOAD DUP1 DUP3 ADD SWAP1 SWAP2 MSTORE PUSH1 0x2 DUP2 MSTORE PUSH2 0x3631 PUSH1 0xF0 SHL PUSH1 0x20 DUP3 ADD MSTORE PUSH2 0x7EE SWAP1 DUP6 SWAP1 PUSH2 0xE24 JUMP JUMPDEST ISZERO PUSH2 0x822 JUMPI PUSH32 0x135E6DD29EFA875112189ADD0769ED7F19CD6DB71EEFE10BF040C499F5AAB344 DUP5 PUSH1 0x40 MLOAD PUSH2 0x5F8 SWAP2 SWAP1 PUSH2 0x1D47 JUMP JUMPDEST PUSH1 0x40 DUP1 MLOAD DUP1 DUP3 ADD DUP3 MSTORE PUSH1 0x2 DUP2 MSTORE PUSH2 0x1A99 PUSH1 0xF1 SHL PUSH1 0x20 DUP3 ADD MSTORE SWAP1 MLOAD PUSH3 0x461BCD PUSH1 0xE5 SHL DUP2 MSTORE PUSH2 0x361 SWAP2 SWAP1 PUSH1 0x4 ADD PUSH2 0x1D47 JUMP JUMPDEST PUSH1 0x0 SLOAD PUSH1 0x40 DUP1 MLOAD DUP1 DUP3 ADD SWAP1 SWAP2 MSTORE PUSH1 0x2 DUP2 MSTORE PUSH2 0x333 PUSH1 0xF4 SHL PUSH1 0x20 DUP3 ADD MSTORE SWAP1 PUSH1 0x1 PUSH1 0x1 PUSH1 0xA0 SHL SUB AND CALLER EQ PUSH2 0x897 JUMPI PUSH1 0x40 MLOAD PUSH3 0x461BCD PUSH1 0xE5 SHL DUP2 MSTORE PUSH1 0x4 ADD PUSH2 0x361 SWAP2 SWAP1 PUSH2 0x1D47 JUMP JUMPDEST POP PUSH1 0x40 DUP1 MLOAD DUP1 DUP3 ADD SWAP1 SWAP2 MSTORE PUSH1 0x2 DUP2 MSTORE PUSH2 0x3331 PUSH1 0xF0 SHL PUSH1 0x20 DUP3 ADD MSTORE PUSH1 0x1 PUSH1 0x1 PUSH1 0xA0 SHL SUB DUP3 AND PUSH2 0x8D8 JUMPI PUSH1 0x40 MLOAD PUSH3 0x461BCD PUSH1 0xE5 SHL DUP2 MSTORE PUSH1 0x4 ADD PUSH2 0x361 SWAP2 SWAP1 PUSH2 0x1D47 JUMP JUMPDEST POP PUSH1 0x1 DUP1 SLOAD PUSH1 0x1 PUSH1 0x1 PUSH1 0xA0 SHL SUB NOT AND PUSH1 0x1 PUSH1 0x1 PUSH1 0xA0 SHL SUB DUP4 AND SWAP1 DUP2 OR SWAP1 SWAP2 SSTORE PUSH1 0x40 MLOAD SWAP1 DUP2 MSTORE PUSH32 0x67235BA2E63C748A35B95C4F92A3BBC2A1389938170A5CE6C9ADD5D0B03A314A SWAP1 PUSH1 0x20 ADD PUSH2 0x3CA JUMP JUMPDEST CALLER PUSH2 0x933 PUSH1 0x2 DUP3 PUSH2 0x1192 JUMP JUMPDEST PUSH1 0x40 MLOAD DUP1 PUSH1 0x40 ADD PUSH1 0x40 MSTORE DUP1 PUSH1 0x2 DUP2 MSTORE PUSH1 0x20 ADD PUSH2 0x333 PUSH1 0xF4 SHL DUP2 MSTORE POP SWAP1 PUSH2 0x96C JUMPI PUSH1 0x40 MLOAD PUSH3 0x461BCD PUSH1 0xE5 SHL DUP2 MSTORE PUSH1 0x4 ADD PUSH2 0x361 SWAP2 SWAP1 PUSH2 0x1D47 JUMP JUMPDEST POP PUSH1 0x40 DUP1 MLOAD DUP1 DUP3 ADD SWAP1 SWAP2 MSTORE PUSH1 0x2 DUP2 MSTORE PUSH2 0x1B19 PUSH1 0xF1 SHL PUSH1 0x20 DUP3 ADD MSTORE PUSH32 0x0 DUP4 GT ISZERO PUSH2 0x9C7 JUMPI PUSH1 0x40 MLOAD PUSH3 0x461BCD PUSH1 0xE5 SHL DUP2 MSTORE PUSH1 0x4 ADD PUSH2 0x361 SWAP2 SWAP1 PUSH2 0x1D47 JUMP JUMPDEST POP PUSH1 0x0 DUP4 PUSH1 0x20 ADD MLOAD PUSH1 0x2 DUP2 GT ISZERO PUSH2 0x9E0 JUMPI PUSH2 0x9E0 PUSH2 0x1E46 JUMP JUMPDEST EQ DUP1 PUSH2 0xA01 JUMPI POP PUSH1 0x2 DUP4 PUSH1 0x20 ADD MLOAD PUSH1 0x2 DUP2 GT ISZERO PUSH2 0x9FF JUMPI PUSH2 0x9FF PUSH2 0x1E46 JUMP JUMPDEST EQ JUMPDEST ISZERO PUSH2 0xA64 JUMPI DUP3 MLOAD PUSH1 0x1 PUSH1 0x1 PUSH1 0xA0 SHL SUB SWAP1 DUP2 AND PUSH1 0x0 SWAP1 DUP2 MSTORE PUSH1 0x4 PUSH1 0x20 SWAP1 DUP2 MSTORE PUSH1 0x40 SWAP2 DUP3 SWAP1 KECCAK256 PUSH1 0x2 ADD DUP6 SWAP1 SSTORE DUP6 MLOAD DUP3 MLOAD SWAP4 AND DUP4 MSTORE DUP3 ADD DUP5 SWAP1 MSTORE PUSH32 0xE90DA2E9A0FDAF7644472F107C782B166DA61C0CC6D6311CDE8028B5B120D304 SWAP2 ADD PUSH1 0x40 MLOAD DUP1 SWAP2 SUB SWAP1 LOG1 JUMPDEST PUSH1 0x1 DUP4 PUSH1 0x20 ADD MLOAD PUSH1 0x2 DUP2 GT ISZERO PUSH2 0xA7C JUMPI PUSH2 0xA7C PUSH2 0x1E46 JUMP JUMPDEST EQ DUP1 PUSH2 0xA9D JUMPI POP PUSH1 0x2 DUP4 PUSH1 0x20 ADD MLOAD PUSH1 0x2 DUP2 GT ISZERO PUSH2 0xA9B JUMPI PUSH2 0xA9B PUSH2 0x1E46 JUMP JUMPDEST EQ JUMPDEST ISZERO PUSH2 0xB00 JUMPI DUP3 MLOAD PUSH1 0x1 PUSH1 0x1 PUSH1 0xA0 SHL SUB SWAP1 DUP2 AND PUSH1 0x0 SWAP1 DUP2 MSTORE PUSH1 0x4 PUSH1 0x20 DUP2 DUP2 MSTORE PUSH1 0x40 SWAP3 DUP4 SWAP1 KECCAK256 SWAP1 SWAP2 ADD DUP6 SWAP1 SSTORE DUP6 MLOAD DUP3 MLOAD SWAP4 AND DUP4 MSTORE DUP3 ADD DUP5 SWAP1 MSTORE PUSH32 0xE90DA2E9A0FDAF7644472F107C782B166DA61C0CC6D6311CDE8028B5B120D304 SWAP2 ADD PUSH1 0x40 MLOAD DUP1 SWAP2 SUB SWAP1 LOG1 JUMPDEST POP POP POP JUMP JUMPDEST PUSH1 0x0 PUSH2 0xB1A DUP4 PUSH1 0x1 PUSH1 0x1 PUSH1 0xA0 SHL SUB DUP5 AND PUSH2 0x11B4 JUMP JUMPDEST SWAP1 POP JUMPDEST SWAP3 SWAP2 POP POP JUMP JUMPDEST DUP1 MLOAD MLOAD PUSH1 0x60 SWAP1 DUP2 SWAP1 DUP2 SWAP1 NUMBER SWAP1 PUSH8 0xFFFFFFFFFFFFFFFF DUP2 GT ISZERO PUSH2 0xB47 JUMPI PUSH2 0xB47 PUSH2 0x1950 JUMP JUMPDEST PUSH1 0x40 MLOAD SWAP1 DUP1 DUP3 MSTORE DUP1 PUSH1 0x20 MUL PUSH1 0x20 ADD DUP3 ADD PUSH1 0x40 MSTORE DUP1 ISZERO PUSH2 0xB70 JUMPI DUP2 PUSH1 0x20 ADD PUSH1 0x20 DUP3 MUL DUP1 CALLDATASIZE DUP4 CALLDATACOPY ADD SWAP1 POP JUMPDEST POP DUP6 MLOAD MLOAD SWAP1 SWAP3 POP PUSH8 0xFFFFFFFFFFFFFFFF DUP2 GT ISZERO PUSH2 0xB8F JUMPI PUSH2 0xB8F PUSH2 0x1950 JUMP JUMPDEST PUSH1 0x40 MLOAD SWAP1 DUP1 DUP3 MSTORE DUP1 PUSH1 0x20 MUL PUSH1 0x20 ADD DUP3 ADD PUSH1 0x40 MSTORE DUP1 ISZERO PUSH2 0xBD4 JUMPI DUP2 PUSH1 0x20 ADD JUMPDEST PUSH1 0x40 DUP1 MLOAD DUP1 DUP3 ADD SWAP1 SWAP2 MSTORE PUSH1 0x0 DUP1 DUP3 MSTORE PUSH1 0x20 DUP3 ADD MSTORE DUP2 MSTORE PUSH1 0x20 ADD SWAP1 PUSH1 0x1 SWAP1 SUB SWAP1 DUP2 PUSH2 0xBAD JUMPI SWAP1 POP JUMPDEST POP SWAP3 POP PUSH1 0x0 JUMPDEST DUP6 MLOAD MLOAD DUP2 LT ISZERO PUSH2 0xC44 JUMPI DUP6 MLOAD DUP1 MLOAD DUP3 SWAP1 DUP2 LT PUSH2 0xBF8 JUMPI PUSH2 0xBF8 PUSH2 0x1E5C JUMP JUMPDEST PUSH1 0x20 MUL PUSH1 0x20 ADD ADD MLOAD PUSH1 0x0 ADD MLOAD PUSH1 0x0 ADD MLOAD DUP4 DUP3 DUP2 MLOAD DUP2 LT PUSH2 0xC1A JUMPI PUSH2 0xC1A PUSH2 0x1E5C JUMP JUMPDEST PUSH1 0x1 PUSH1 0x1 PUSH1 0xA0 SHL SUB SWAP1 SWAP3 AND PUSH1 0x20 SWAP3 DUP4 MUL SWAP2 SWAP1 SWAP2 ADD SWAP1 SWAP2 ADD MSTORE DUP1 PUSH2 0xC3C DUP2 PUSH2 0x1E88 JUMP JUMPDEST SWAP2 POP POP PUSH2 0xBDA JUMP JUMPDEST POP PUSH2 0xC50 DUP3 DUP3 DUP8 PUSH2 0x12A7 JUMP JUMPDEST SWAP3 POP PUSH1 0x1 PUSH1 0x0 JUMPDEST DUP5 MLOAD DUP2 LT ISZERO PUSH2 0xD41 JUMPI PUSH1 0x0 DUP1 PUSH2 0xCD1 DUP8 DUP5 DUP2 MLOAD DUP2 LT PUSH2 0xC78 JUMPI PUSH2 0xC78 PUSH2 0x1E5C JUMP JUMPDEST PUSH1 0x20 MUL PUSH1 0x20 ADD ADD MLOAD DUP11 PUSH1 0x0 ADD MLOAD DUP6 DUP2 MLOAD DUP2 LT PUSH2 0xC96 JUMPI PUSH2 0xC96 PUSH2 0x1E5C JUMP JUMPDEST PUSH1 0x20 MUL PUSH1 0x20 ADD ADD MLOAD PUSH1 0x20 ADD MLOAD DUP12 PUSH1 0x0 ADD MLOAD DUP7 DUP2 MLOAD DUP2 LT PUSH2 0xCB8 JUMPI PUSH2 0xCB8 PUSH2 0x1E5C JUMP JUMPDEST PUSH1 0x20 MUL PUSH1 0x20 ADD ADD MLOAD PUSH1 0x0 ADD MLOAD PUSH1 0x80 ADD MLOAD PUSH1 0x60 ADD MLOAD PUSH2 0x13DF JUMP JUMPDEST DUP10 DUP7 DUP2 MLOAD DUP2 LT PUSH2 0xCE3 JUMPI PUSH2 0xCE3 PUSH2 0x1E5C JUMP JUMPDEST PUSH1 0x20 MUL PUSH1 0x20 ADD ADD DUP2 SWAP5 POP DUP3 SWAP6 POP DUP4 SWAP1 MSTORE POP POP POP DUP1 ISZERO PUSH2 0xD01 JUMPI PUSH1 0x0 SWAP4 POP JUMPDEST DUP2 PUSH2 0xD2C JUMPI PUSH1 0x40 MLOAD DUP1 PUSH1 0x40 ADD PUSH1 0x40 MSTORE DUP1 PUSH1 0x2 DUP2 MSTORE PUSH1 0x20 ADD PUSH2 0x363 PUSH1 0xF4 SHL DUP2 MSTORE POP SWAP8 POP POP POP POP POP PUSH2 0xD7D JUMP JUMPDEST POP POP DUP1 DUP1 PUSH2 0xD39 SWAP1 PUSH2 0x1E88 JUMP JUMPDEST SWAP2 POP POP PUSH2 0xC57 JUMP JUMPDEST POP DUP1 PUSH2 0xD6A JUMPI PUSH1 0x40 MLOAD DUP1 PUSH1 0x40 ADD PUSH1 0x40 MSTORE DUP1 PUSH1 0x2 DUP2 MSTORE PUSH1 0x20 ADD PUSH2 0x3631 PUSH1 0xF0 SHL DUP2 MSTORE POP SWAP5 POP POP PUSH2 0xD7D JUMP JUMPDEST POP PUSH1 0x40 DUP1 MLOAD PUSH1 0x20 DUP2 ADD SWAP1 SWAP2 MSTORE PUSH1 0x0 DUP2 MSTORE SWAP4 POP JUMPDEST SWAP2 SWAP4 POP SWAP2 SWAP4 JUMP JUMPDEST PUSH1 0x0 PUSH2 0xB1A DUP4 PUSH1 0x1 PUSH1 0x1 PUSH1 0xA0 SHL SUB DUP5 AND PUSH2 0x14E7 JUMP JUMPDEST PUSH1 0x40 MLOAD PUSH4 0x21F8A721 PUSH1 0xE0 SHL DUP2 MSTORE PUSH32 0x524F4F545F5341464554595F434845434B5F4144445245535300000000000000 PUSH1 0x4 DUP3 ADD MSTORE PUSH1 0x0 SWAP1 PUSH1 0x1 PUSH1 0x1 PUSH1 0xA0 SHL SUB DUP4 AND SWAP1 PUSH4 0x21F8A721 SWAP1 PUSH1 0x24 ADD PUSH1 0x20 PUSH1 0x40 MLOAD DUP1 DUP4 SUB DUP2 DUP7 GAS STATICCALL ISZERO DUP1 ISZERO PUSH2 0xE00 JUMPI RETURNDATASIZE PUSH1 0x0 DUP1 RETURNDATACOPY RETURNDATASIZE PUSH1 0x0 REVERT JUMPDEST POP POP POP POP PUSH1 0x40 MLOAD RETURNDATASIZE PUSH1 0x1F NOT PUSH1 0x1F DUP3 ADD AND DUP3 ADD DUP1 PUSH1 0x40 MSTORE POP DUP2 ADD SWAP1 PUSH2 0xB1D SWAP2 SWAP1 PUSH2 0x1EA3 JUMP JUMPDEST PUSH1 0x0 DUP2 MLOAD DUP4 MLOAD EQ PUSH2 0xE37 JUMPI POP PUSH1 0x0 PUSH2 0xB1D JUMP JUMPDEST POP DUP1 MLOAD PUSH1 0x20 SWAP2 DUP3 ADD KECCAK256 DUP3 MLOAD SWAP3 SWAP1 SWAP2 ADD SWAP2 SWAP1 SWAP2 KECCAK256 EQ SWAP1 JUMP JUMPDEST DUP2 MLOAD DUP5 MLOAD EQ PUSH1 0x40 MLOAD DUP1 PUSH1 0x40 ADD PUSH1 0x40 MSTORE DUP1 PUSH1 0x2 DUP2 MSTORE PUSH1 0x20 ADD PUSH2 0x3633 PUSH1 0xF0 SHL DUP2 MSTORE POP SWAP1 PUSH2 0xE8C JUMPI PUSH1 0x40 MLOAD PUSH3 0x461BCD PUSH1 0xE5 SHL DUP2 MSTORE PUSH1 0x4 ADD PUSH2 0x361 SWAP2 SWAP1 PUSH2 0x1D47 JUMP JUMPDEST POP DUP3 PUSH1 0x20 ADD MLOAD ISZERO PUSH2 0xF93 JUMPI PUSH1 0x0 JUMPDEST DUP5 MLOAD DUP2 LT ISZERO PUSH2 0xF8D JUMPI DUP5 DUP2 DUP2 MLOAD DUP2 LT PUSH2 0xEB5 JUMPI PUSH2 0xEB5 PUSH2 0x1E5C JUMP JUMPDEST PUSH1 0x20 MUL PUSH1 0x20 ADD ADD MLOAD PUSH1 0x4 PUSH1 0x0 DUP6 DUP5 DUP2 MLOAD DUP2 LT PUSH2 0xED3 JUMPI PUSH2 0xED3 PUSH2 0x1E5C JUMP JUMPDEST PUSH1 0x20 MUL PUSH1 0x20 ADD ADD MLOAD PUSH1 0x1 PUSH1 0x1 PUSH1 0xA0 SHL SUB AND PUSH1 0x1 PUSH1 0x1 PUSH1 0xA0 SHL SUB AND DUP2 MSTORE PUSH1 0x20 ADD SWAP1 DUP2 MSTORE PUSH1 0x20 ADD PUSH1 0x0 KECCAK256 PUSH1 0x1 ADD PUSH1 0x0 DUP3 ADD MLOAD DUP2 PUSH1 0x0 ADD SSTORE PUSH1 0x20 DUP3 ADD MLOAD DUP2 PUSH1 0x1 ADD SSTORE SWAP1 POP POP PUSH1 0x0 DUP5 PUSH1 0x0 ADD MLOAD DUP3 DUP2 MLOAD DUP2 LT PUSH2 0xF2D JUMPI PUSH2 0xF2D PUSH2 0x1E5C JUMP JUMPDEST PUSH1 0x20 MUL PUSH1 0x20 ADD ADD MLOAD PUSH1 0x20 ADD MLOAD GT ISZERO PUSH2 0xF7B JUMPI DUP2 PUSH1 0x4 PUSH1 0x0 DUP6 DUP5 DUP2 MLOAD DUP2 LT PUSH2 0xF56 JUMPI PUSH2 0xF56 PUSH2 0x1E5C JUMP JUMPDEST PUSH1 0x20 SWAP1 DUP2 MUL SWAP2 SWAP1 SWAP2 ADD DUP2 ADD MLOAD PUSH1 0x1 PUSH1 0x1 PUSH1 0xA0 SHL SUB AND DUP3 MSTORE DUP2 ADD SWAP2 SWAP1 SWAP2 MSTORE PUSH1 0x40 ADD PUSH1 0x0 KECCAK256 SSTORE JUMPDEST DUP1 PUSH2 0xF85 DUP2 PUSH2 0x1E88 JUMP JUMPDEST SWAP2 POP POP PUSH2 0xE9A JUMP JUMPDEST POP PUSH2 0x1089 JUMP JUMPDEST PUSH1 0x0 JUMPDEST DUP5 MLOAD DUP2 LT ISZERO PUSH2 0x641 JUMPI DUP5 DUP2 DUP2 MLOAD DUP2 LT PUSH2 0xFB1 JUMPI PUSH2 0xFB1 PUSH2 0x1E5C JUMP JUMPDEST PUSH1 0x20 MUL PUSH1 0x20 ADD ADD MLOAD PUSH1 0x4 PUSH1 0x0 DUP6 DUP5 DUP2 MLOAD DUP2 LT PUSH2 0xFCF JUMPI PUSH2 0xFCF PUSH2 0x1E5C JUMP JUMPDEST PUSH1 0x20 MUL PUSH1 0x20 ADD ADD MLOAD PUSH1 0x1 PUSH1 0x1 PUSH1 0xA0 SHL SUB AND PUSH1 0x1 PUSH1 0x1 PUSH1 0xA0 SHL SUB AND DUP2 MSTORE PUSH1 0x20 ADD SWAP1 DUP2 MSTORE PUSH1 0x20 ADD PUSH1 0x0 KECCAK256 PUSH1 0x3 ADD PUSH1 0x0 DUP3 ADD MLOAD DUP2 PUSH1 0x0 ADD SSTORE PUSH1 0x20 DUP3 ADD MLOAD DUP2 PUSH1 0x1 ADD SSTORE SWAP1 POP POP PUSH1 0x0 DUP5 PUSH1 0x0 ADD MLOAD DUP3 DUP2 MLOAD DUP2 LT PUSH2 0x1029 JUMPI PUSH2 0x1029 PUSH2 0x1E5C JUMP JUMPDEST PUSH1 0x20 MUL PUSH1 0x20 ADD ADD MLOAD PUSH1 0x20 ADD MLOAD GT ISZERO PUSH2 0x1077 JUMPI DUP2 PUSH1 0x4 PUSH1 0x0 DUP6 DUP5 DUP2 MLOAD DUP2 LT PUSH2 0x1052 JUMPI PUSH2 0x1052 PUSH2 0x1E5C JUMP JUMPDEST PUSH1 0x20 SWAP1 DUP2 MUL SWAP2 SWAP1 SWAP2 ADD DUP2 ADD MLOAD PUSH1 0x1 PUSH1 0x1 PUSH1 0xA0 SHL SUB AND DUP3 MSTORE DUP2 ADD SWAP2 SWAP1 SWAP2 MSTORE PUSH1 0x40 ADD PUSH1 0x0 KECCAK256 SSTORE JUMPDEST DUP1 PUSH2 0x1081 DUP2 PUSH2 0x1E88 JUMP JUMPDEST SWAP2 POP POP PUSH2 0xF96 JUMP JUMPDEST POP POP POP POP JUMP JUMPDEST PUSH1 0x0 DUP1 SLOAD PUSH1 0x1 PUSH1 0x1 PUSH1 0xA0 SHL SUB NOT AND PUSH1 0x1 PUSH1 0x1 PUSH1 0xA0 SHL SUB DUP4 AND SWAP1 DUP2 OR DUP3 SSTORE PUSH1 0x40 DUP1 MLOAD SWAP3 DUP4 MSTORE PUSH1 0x20 DUP4 ADD SWAP2 SWAP1 SWAP2 MSTORE PUSH32 0xDE4B3F61490B74C0ED6237523974FE299126BBBF8A8A7482FD220104C59B0C84 SWAP2 ADD PUSH2 0x3CA JUMP JUMPDEST PUSH1 0x60 PUSH1 0x0 PUSH2 0x10F0 DUP4 PUSH2 0x1536 JUMP JUMPDEST SWAP1 POP PUSH1 0x0 DUP2 PUSH8 0xFFFFFFFFFFFFFFFF DUP2 GT ISZERO PUSH2 0x110D JUMPI PUSH2 0x110D PUSH2 0x1950 JUMP JUMPDEST PUSH1 0x40 MLOAD SWAP1 DUP1 DUP3 MSTORE DUP1 PUSH1 0x20 MUL PUSH1 0x20 ADD DUP3 ADD PUSH1 0x40 MSTORE DUP1 ISZERO PUSH2 0x1136 JUMPI DUP2 PUSH1 0x20 ADD PUSH1 0x20 DUP3 MUL DUP1 CALLDATASIZE DUP4 CALLDATACOPY ADD SWAP1 POP JUMPDEST POP SWAP1 POP PUSH1 0x0 JUMPDEST DUP3 DUP2 LT ISZERO PUSH2 0x118A JUMPI PUSH2 0x114E DUP6 DUP3 PUSH2 0x1540 JUMP JUMPDEST DUP3 DUP3 DUP2 MLOAD DUP2 LT PUSH2 0x1160 JUMPI PUSH2 0x1160 PUSH2 0x1E5C JUMP JUMPDEST PUSH1 0x1 PUSH1 0x1 PUSH1 0xA0 SHL SUB SWAP1 SWAP3 AND PUSH1 0x20 SWAP3 DUP4 MUL SWAP2 SWAP1 SWAP2 ADD SWAP1 SWAP2 ADD MSTORE DUP1 PUSH2 0x1182 DUP2 PUSH2 0x1E88 JUMP JUMPDEST SWAP2 POP POP PUSH2 0x113C JUMP JUMPDEST POP SWAP4 SWAP3 POP POP POP JUMP JUMPDEST PUSH1 0x1 PUSH1 0x1 PUSH1 0xA0 SHL SUB DUP2 AND PUSH1 0x0 SWAP1 DUP2 MSTORE PUSH1 0x1 DUP4 ADD PUSH1 0x20 MSTORE PUSH1 0x40 DUP2 KECCAK256 SLOAD ISZERO ISZERO PUSH2 0xB1A JUMP JUMPDEST PUSH1 0x0 DUP2 DUP2 MSTORE PUSH1 0x1 DUP4 ADD PUSH1 0x20 MSTORE PUSH1 0x40 DUP2 KECCAK256 SLOAD DUP1 ISZERO PUSH2 0x129D JUMPI PUSH1 0x0 PUSH2 0x11D8 PUSH1 0x1 DUP4 PUSH2 0x1EC0 JUMP JUMPDEST DUP6 SLOAD SWAP1 SWAP2 POP PUSH1 0x0 SWAP1 PUSH2 0x11EC SWAP1 PUSH1 0x1 SWAP1 PUSH2 0x1EC0 JUMP JUMPDEST SWAP1 POP DUP2 DUP2 EQ PUSH2 0x1251 JUMPI PUSH1 0x0 DUP7 PUSH1 0x0 ADD DUP3 DUP2 SLOAD DUP2 LT PUSH2 0x120C JUMPI PUSH2 0x120C PUSH2 0x1E5C JUMP JUMPDEST SWAP1 PUSH1 0x0 MSTORE PUSH1 0x20 PUSH1 0x0 KECCAK256 ADD SLOAD SWAP1 POP DUP1 DUP8 PUSH1 0x0 ADD DUP5 DUP2 SLOAD DUP2 LT PUSH2 0x122F JUMPI PUSH2 0x122F PUSH2 0x1E5C JUMP JUMPDEST PUSH1 0x0 SWAP2 DUP3 MSTORE PUSH1 0x20 DUP1 DUP4 KECCAK256 SWAP1 SWAP2 ADD SWAP3 SWAP1 SWAP3 SSTORE SWAP2 DUP3 MSTORE PUSH1 0x1 DUP9 ADD SWAP1 MSTORE PUSH1 0x40 SWAP1 KECCAK256 DUP4 SWAP1 SSTORE JUMPDEST DUP6 SLOAD DUP7 SWAP1 DUP1 PUSH2 0x1262 JUMPI PUSH2 0x1262 PUSH2 0x1ED7 JUMP JUMPDEST PUSH1 0x1 SWAP1 SUB DUP2 DUP2 SWAP1 PUSH1 0x0 MSTORE PUSH1 0x20 PUSH1 0x0 KECCAK256 ADD PUSH1 0x0 SWAP1 SSTORE SWAP1 SSTORE DUP6 PUSH1 0x1 ADD PUSH1 0x0 DUP7 DUP2 MSTORE PUSH1 0x20 ADD SWAP1 DUP2 MSTORE PUSH1 0x20 ADD PUSH1 0x0 KECCAK256 PUSH1 0x0 SWAP1 SSTORE PUSH1 0x1 SWAP4 POP POP POP POP PUSH2 0xB1D JUMP JUMPDEST PUSH1 0x0 SWAP2 POP POP PUSH2 0xB1D JUMP JUMPDEST PUSH1 0x60 PUSH1 0x0 DUP1 PUSH2 0x12B6 DUP7 DUP6 PUSH2 0x154C JUMP JUMPDEST SWAP2 POP SWAP2 POP PUSH1 0x0 JUMPDEST DUP3 MLOAD DUP2 LT ISZERO PUSH2 0x13D4 JUMPI PUSH1 0x0 DUP3 DUP3 DUP2 MLOAD DUP2 LT PUSH2 0x12DA JUMPI PUSH2 0x12DA PUSH2 0x1E5C JUMP JUMPDEST PUSH1 0x20 MUL PUSH1 0x20 ADD ADD MLOAD DUP8 PUSH2 0x12ED SWAP2 SWAP1 PUSH2 0x1EC0 JUMP JUMPDEST SWAP1 POP PUSH2 0x1316 DUP5 DUP4 DUP2 MLOAD DUP2 LT PUSH2 0x1304 JUMPI PUSH2 0x1304 PUSH2 0x1E5C JUMP JUMPDEST PUSH1 0x20 MUL PUSH1 0x20 ADD ADD MLOAD PUSH1 0x20 ADD MLOAD DUP3 PUSH2 0x179A JUMP JUMPDEST DUP5 DUP4 DUP2 MLOAD DUP2 LT PUSH2 0x1328 JUMPI PUSH2 0x1328 PUSH2 0x1E5C JUMP JUMPDEST PUSH1 0x20 MUL PUSH1 0x20 ADD ADD MLOAD PUSH1 0x20 ADD DUP2 DUP2 MSTORE POP POP PUSH2 0x13A3 DUP5 DUP4 DUP2 MLOAD DUP2 LT PUSH2 0x134D JUMPI PUSH2 0x134D PUSH2 0x1E5C JUMP JUMPDEST PUSH1 0x20 MUL PUSH1 0x20 ADD ADD MLOAD PUSH1 0x0 ADD MLOAD DUP9 DUP6 DUP6 DUP2 MLOAD DUP2 LT PUSH2 0x136C JUMPI PUSH2 0x136C PUSH2 0x1E5C JUMP JUMPDEST PUSH1 0x20 MUL PUSH1 0x20 ADD ADD MLOAD DUP10 PUSH1 0x0 ADD MLOAD DUP7 DUP2 MLOAD DUP2 LT PUSH2 0x138A JUMPI PUSH2 0x138A PUSH2 0x1E5C JUMP JUMPDEST PUSH1 0x20 MUL PUSH1 0x20 ADD ADD MLOAD PUSH1 0x0 ADD MLOAD PUSH1 0x80 ADD MLOAD PUSH1 0x40 ADD MLOAD PUSH2 0x17BC JUMP JUMPDEST DUP5 DUP4 DUP2 MLOAD DUP2 LT PUSH2 0x13B5 JUMPI PUSH2 0x13B5 PUSH2 0x1E5C JUMP JUMPDEST PUSH1 0x20 SWAP1 DUP2 MUL SWAP2 SWAP1 SWAP2 ADD ADD MLOAD MSTORE POP DUP1 PUSH2 0x13CC DUP2 PUSH2 0x1E88 JUMP JUMPDEST SWAP2 POP POP PUSH2 0x12BD JUMP JUMPDEST POP SWAP1 SWAP6 SWAP5 POP POP POP POP POP JUMP JUMPDEST PUSH1 0x40 DUP1 MLOAD DUP1 DUP3 ADD SWAP1 SWAP2 MSTORE PUSH1 0x0 DUP1 DUP3 MSTORE PUSH1 0x20 DUP3 ADD MSTORE PUSH1 0x20 DUP5 ADD MLOAD PUSH1 0x0 SWAP1 DUP2 SWAP1 PUSH1 0x1 SWAP1 DUP3 SWAP1 ISZERO PUSH2 0x1419 JUMPI DUP8 PUSH1 0x0 PUSH1 0x1 SWAP5 POP SWAP5 POP SWAP5 POP POP POP PUSH2 0x14DE JUMP JUMPDEST DUP8 MLOAD PUSH1 0x0 SWAP1 PUSH2 0x1429 SWAP1 DUP10 SWAP1 PUSH2 0x1EED JUMP JUMPDEST SWAP1 POP DUP7 DUP2 GT ISZERO PUSH2 0x1462 JUMPI PUSH32 0x0 PUSH1 0x20 DUP11 ADD MSTORE PUSH1 0x0 SWAP3 POP PUSH2 0x14D4 JUMP JUMPDEST PUSH2 0x1474 PUSH8 0xB1A2BC2EC500000 DUP9 PUSH2 0x183C JUMP JUMPDEST DUP2 GT ISZERO PUSH2 0x14BE JUMPI PUSH32 0x0 PUSH1 0x20 DUP11 ADD MSTORE DUP9 MLOAD DUP2 SWAP1 DUP11 SWAP1 PUSH2 0x14B2 SWAP1 DUP4 SWAP1 PUSH2 0x1EED JUMP JUMPDEST SWAP1 MSTORE POP PUSH1 0x1 SWAP2 POP PUSH2 0x14D4 JUMP JUMPDEST DUP1 DUP10 PUSH1 0x0 ADD DUP2 DUP2 MLOAD PUSH2 0x14D0 SWAP2 SWAP1 PUSH2 0x1EED JUMP JUMPDEST SWAP1 MSTORE POP JUMPDEST POP DUP8 SWAP5 POP SWAP1 SWAP3 POP SWAP1 POP JUMPDEST SWAP4 POP SWAP4 POP SWAP4 SWAP1 POP JUMP JUMPDEST PUSH1 0x0 DUP2 DUP2 MSTORE PUSH1 0x1 DUP4 ADD PUSH1 0x20 MSTORE PUSH1 0x40 DUP2 KECCAK256 SLOAD PUSH2 0x152E JUMPI POP DUP2 SLOAD PUSH1 0x1 DUP2 DUP2 ADD DUP5 SSTORE PUSH1 0x0 DUP5 DUP2 MSTORE PUSH1 0x20 DUP1 DUP3 KECCAK256 SWAP1 SWAP4 ADD DUP5 SWAP1 SSTORE DUP5 SLOAD DUP5 DUP3 MSTORE DUP3 DUP7 ADD SWAP1 SWAP4 MSTORE PUSH1 0x40 SWAP1 KECCAK256 SWAP2 SWAP1 SWAP2 SSTORE PUSH2 0xB1D JUMP JUMPDEST POP PUSH1 0x0 PUSH2 0xB1D JUMP JUMPDEST PUSH1 0x0 PUSH2 0xB1D DUP3 SLOAD SWAP1 JUMP JUMPDEST PUSH1 0x0 PUSH2 0xB1A DUP4 DUP4 PUSH2 0x185D JUMP JUMPDEST PUSH1 0x60 DUP1 DUP4 MLOAD PUSH8 0xFFFFFFFFFFFFFFFF DUP2 GT ISZERO PUSH2 0x1569 JUMPI PUSH2 0x1569 PUSH2 0x1950 JUMP JUMPDEST PUSH1 0x40 MLOAD SWAP1 DUP1 DUP3 MSTORE DUP1 PUSH1 0x20 MUL PUSH1 0x20 ADD DUP3 ADD PUSH1 0x40 MSTORE DUP1 ISZERO PUSH2 0x15AE JUMPI DUP2 PUSH1 0x20 ADD JUMPDEST PUSH1 0x40 DUP1 MLOAD DUP1 DUP3 ADD SWAP1 SWAP2 MSTORE PUSH1 0x0 DUP1 DUP3 MSTORE PUSH1 0x20 DUP3 ADD MSTORE DUP2 MSTORE PUSH1 0x20 ADD SWAP1 PUSH1 0x1 SWAP1 SUB SWAP1 DUP2 PUSH2 0x1587 JUMPI SWAP1 POP JUMPDEST POP SWAP2 POP DUP4 MLOAD PUSH8 0xFFFFFFFFFFFFFFFF DUP2 GT ISZERO PUSH2 0x15CB JUMPI PUSH2 0x15CB PUSH2 0x1950 JUMP JUMPDEST PUSH1 0x40 MLOAD SWAP1 DUP1 DUP3 MSTORE DUP1 PUSH1 0x20 MUL PUSH1 0x20 ADD DUP3 ADD PUSH1 0x40 MSTORE DUP1 ISZERO PUSH2 0x15F4 JUMPI DUP2 PUSH1 0x20 ADD PUSH1 0x20 DUP3 MUL DUP1 CALLDATASIZE DUP4 CALLDATACOPY ADD SWAP1 POP JUMPDEST POP SWAP1 POP PUSH1 0x0 JUMPDEST DUP5 MLOAD DUP2 LT ISZERO PUSH2 0x1792 JUMPI PUSH1 0x0 DUP6 DUP3 DUP2 MLOAD DUP2 LT PUSH2 0x1617 JUMPI PUSH2 0x1617 PUSH2 0x1E5C JUMP JUMPDEST PUSH1 0x20 SWAP1 DUP2 MUL SWAP2 SWAP1 SWAP2 ADD DUP2 ADD MLOAD PUSH1 0x1 PUSH1 0x1 PUSH1 0xA0 SHL SUB DUP2 AND PUSH1 0x0 SWAP1 DUP2 MSTORE PUSH1 0x4 SWAP1 SWAP3 MSTORE PUSH1 0x40 SWAP1 SWAP2 KECCAK256 SLOAD SWAP1 SWAP2 POP DUP1 PUSH2 0x16AA JUMPI DUP2 PUSH1 0x1 PUSH1 0x1 PUSH1 0xA0 SHL SUB AND PUSH4 0xEAE4C19F PUSH1 0x40 MLOAD DUP2 PUSH4 0xFFFFFFFF AND PUSH1 0xE0 SHL DUP2 MSTORE PUSH1 0x4 ADD PUSH1 0x20 PUSH1 0x40 MLOAD DUP1 DUP4 SUB DUP2 DUP7 GAS STATICCALL ISZERO DUP1 ISZERO PUSH2 0x1683 JUMPI RETURNDATASIZE PUSH1 0x0 DUP1 RETURNDATACOPY RETURNDATASIZE PUSH1 0x0 REVERT JUMPDEST POP POP POP POP PUSH1 0x40 MLOAD RETURNDATASIZE PUSH1 0x1F NOT PUSH1 0x1F DUP3 ADD AND DUP3 ADD DUP1 PUSH1 0x40 MSTORE POP DUP2 ADD SWAP1 PUSH2 0x16A7 SWAP2 SWAP1 PUSH2 0x1F05 JUMP JUMPDEST SWAP1 POP JUMPDEST DUP1 DUP5 DUP5 DUP2 MLOAD DUP2 LT PUSH2 0x16BD JUMPI PUSH2 0x16BD PUSH2 0x1E5C JUMP JUMPDEST PUSH1 0x20 MUL PUSH1 0x20 ADD ADD DUP2 DUP2 MSTORE POP POP DUP6 PUSH1 0x20 ADD MLOAD ISZERO PUSH2 0x172A JUMPI PUSH1 0x1 PUSH1 0x1 PUSH1 0xA0 SHL SUB DUP3 AND PUSH1 0x0 SWAP1 DUP2 MSTORE PUSH1 0x4 PUSH1 0x20 SWAP1 DUP2 MSTORE PUSH1 0x40 SWAP2 DUP3 SWAP1 KECCAK256 DUP3 MLOAD DUP1 DUP5 ADD SWAP1 SWAP4 MSTORE PUSH1 0x1 DUP2 ADD SLOAD DUP4 MSTORE PUSH1 0x2 ADD SLOAD SWAP1 DUP3 ADD MSTORE DUP6 MLOAD DUP7 SWAP1 DUP6 SWAP1 DUP2 LT PUSH2 0x171A JUMPI PUSH2 0x171A PUSH2 0x1E5C JUMP JUMPDEST PUSH1 0x20 MUL PUSH1 0x20 ADD ADD DUP2 SWAP1 MSTORE POP PUSH2 0x177D JUMP JUMPDEST PUSH1 0x1 PUSH1 0x1 PUSH1 0xA0 SHL SUB DUP3 AND PUSH1 0x0 SWAP1 DUP2 MSTORE PUSH1 0x4 PUSH1 0x20 DUP2 DUP2 MSTORE PUSH1 0x40 SWAP3 DUP4 SWAP1 KECCAK256 DUP4 MLOAD DUP1 DUP6 ADD SWAP1 SWAP5 MSTORE PUSH1 0x3 DUP2 ADD SLOAD DUP5 MSTORE SWAP1 SWAP2 ADD SLOAD SWAP1 DUP3 ADD MSTORE DUP6 MLOAD DUP7 SWAP1 DUP6 SWAP1 DUP2 LT PUSH2 0x1771 JUMPI PUSH2 0x1771 PUSH2 0x1E5C JUMP JUMPDEST PUSH1 0x20 MUL PUSH1 0x20 ADD ADD DUP2 SWAP1 MSTORE POP JUMPDEST POP POP DUP1 DUP1 PUSH2 0x178A SWAP1 PUSH2 0x1E88 JUMP JUMPDEST SWAP2 POP POP PUSH2 0x15FA JUMP JUMPDEST POP SWAP3 POP SWAP3 SWAP1 POP JUMP JUMPDEST PUSH1 0x0 DUP3 DUP3 LT PUSH2 0x17AB JUMPI POP PUSH1 0x0 PUSH2 0xB1D JUMP JUMPDEST PUSH2 0x17B5 DUP3 DUP5 PUSH2 0x1EC0 JUMP JUMPDEST SWAP1 POP PUSH2 0xB1D JUMP JUMPDEST PUSH1 0x0 DUP4 DUP4 LT ISZERO PUSH2 0x17F5 JUMPI PUSH1 0x0 PUSH2 0x17D2 DUP5 DUP7 PUSH2 0x1EC0 JUMP JUMPDEST SWAP1 POP PUSH1 0x0 PUSH2 0x17E0 DUP5 DUP4 PUSH2 0x1887 JUMP JUMPDEST SWAP1 POP PUSH2 0x17EC DUP8 DUP3 PUSH2 0x183C JUMP JUMPDEST SWAP3 POP POP POP PUSH2 0x1834 JUMP JUMPDEST DUP4 DUP4 EQ ISZERO PUSH2 0x1804 JUMPI POP DUP4 PUSH2 0x1834 JUMP JUMPDEST PUSH1 0x40 DUP1 MLOAD DUP1 DUP3 ADD DUP3 MSTORE PUSH1 0x2 DUP2 MSTORE PUSH2 0x3331 PUSH1 0xF0 SHL PUSH1 0x20 DUP3 ADD MSTORE SWAP1 MLOAD PUSH3 0x461BCD PUSH1 0xE5 SHL DUP2 MSTORE PUSH2 0x361 SWAP2 SWAP1 PUSH1 0x4 ADD PUSH2 0x1D47 JUMP JUMPDEST SWAP5 SWAP4 POP POP POP POP JUMP JUMPDEST PUSH1 0x0 DUP1 PUSH2 0x1849 DUP4 DUP6 PUSH2 0x1F1E JUMP JUMPDEST SWAP1 POP PUSH2 0x1834 PUSH8 0xDE0B6B3A7640000 DUP3 PUSH2 0x1F53 JUMP JUMPDEST PUSH1 0x0 DUP3 PUSH1 0x0 ADD DUP3 DUP2 SLOAD DUP2 LT PUSH2 0x1874 JUMPI PUSH2 0x1874 PUSH2 0x1E5C JUMP JUMPDEST SWAP1 PUSH1 0x0 MSTORE PUSH1 0x20 PUSH1 0x0 KECCAK256 ADD SLOAD SWAP1 POP SWAP3 SWAP2 POP POP JUMP JUMPDEST PUSH1 0x0 PUSH8 0xDE0B6B3A7640000 JUMPDEST DUP3 ISZERO PUSH2 0xB1A JUMPI PUSH2 0x18A4 PUSH1 0x2 DUP5 PUSH2 0x1F67 JUMP JUMPDEST PUSH1 0x1 EQ ISZERO PUSH2 0x18B9 JUMPI PUSH2 0x18B6 DUP2 DUP6 PUSH2 0x183C JUMP JUMPDEST SWAP1 POP JUMPDEST PUSH2 0x18C4 PUSH1 0x2 DUP5 PUSH2 0x1F53 JUMP JUMPDEST SWAP3 POP PUSH2 0x18D0 DUP5 DUP6 PUSH2 0x183C JUMP JUMPDEST SWAP4 POP PUSH2 0x1893 JUMP JUMPDEST PUSH1 0x1 PUSH1 0x1 PUSH1 0xA0 SHL SUB DUP2 AND DUP2 EQ PUSH2 0x18EC JUMPI PUSH1 0x0 DUP1 REVERT JUMPDEST POP JUMP JUMPDEST DUP1 CALLDATALOAD PUSH2 0x18FA DUP2 PUSH2 0x18D7 JUMP JUMPDEST SWAP2 SWAP1 POP JUMP JUMPDEST PUSH1 0x0 PUSH1 0x20 DUP3 DUP5 SUB SLT ISZERO PUSH2 0x1911 JUMPI PUSH1 0x0 DUP1 REVERT JUMPDEST DUP2 CALLDATALOAD PUSH2 0xB1A DUP2 PUSH2 0x18D7 JUMP JUMPDEST DUP4 DUP2 MSTORE PUSH1 0xA0 DUP2 ADD PUSH2 0x193A PUSH1 0x20 DUP4 ADD DUP6 DUP1 MLOAD DUP3 MSTORE PUSH1 0x20 SWAP1 DUP2 ADD MLOAD SWAP2 ADD MSTORE JUMP JUMPDEST DUP3 MLOAD PUSH1 0x60 DUP4 ADD MSTORE PUSH1 0x20 DUP4 ADD MLOAD PUSH1 0x80 DUP4 ADD MSTORE PUSH2 0x1834 JUMP JUMPDEST PUSH4 0x4E487B71 PUSH1 0xE0 SHL PUSH1 0x0 MSTORE PUSH1 0x41 PUSH1 0x4 MSTORE PUSH1 0x24 PUSH1 0x0 REVERT JUMPDEST PUSH1 0x40 MLOAD PUSH1 0x60 DUP2 ADD PUSH8 0xFFFFFFFFFFFFFFFF DUP2 GT DUP3 DUP3 LT OR ISZERO PUSH2 0x1989 JUMPI PUSH2 0x1989 PUSH2 0x1950 JUMP JUMPDEST PUSH1 0x40 MSTORE SWAP1 JUMP JUMPDEST PUSH1 0x40 DUP1 MLOAD SWAP1 DUP2 ADD PUSH8 0xFFFFFFFFFFFFFFFF DUP2 GT DUP3 DUP3 LT OR ISZERO PUSH2 0x1989 JUMPI PUSH2 0x1989 PUSH2 0x1950 JUMP JUMPDEST PUSH1 0x40 MLOAD PUSH2 0x120 DUP2 ADD PUSH8 0xFFFFFFFFFFFFFFFF DUP2 GT DUP3 DUP3 LT OR ISZERO PUSH2 0x1989 JUMPI PUSH2 0x1989 PUSH2 0x1950 JUMP JUMPDEST PUSH1 0x40 MLOAD PUSH1 0x1F DUP3 ADD PUSH1 0x1F NOT AND DUP2 ADD PUSH8 0xFFFFFFFFFFFFFFFF DUP2 GT DUP3 DUP3 LT OR ISZERO PUSH2 0x19FF JUMPI PUSH2 0x19FF PUSH2 0x1950 JUMP JUMPDEST PUSH1 0x40 MSTORE SWAP2 SWAP1 POP JUMP JUMPDEST PUSH1 0x0 PUSH8 0xFFFFFFFFFFFFFFFF DUP3 GT ISZERO PUSH2 0x1A21 JUMPI PUSH2 0x1A21 PUSH2 0x1950 JUMP JUMPDEST POP PUSH1 0x5 SHL PUSH1 0x20 ADD SWAP1 JUMP JUMPDEST DUP1 CALLDATALOAD PUSH1 0xFF DUP2 AND DUP2 EQ PUSH2 0x18FA JUMPI PUSH1 0x0 DUP1 REVERT JUMPDEST PUSH1 0x0 PUSH1 0x80 DUP3 DUP5 SUB SLT ISZERO PUSH2 0x1A4E JUMPI PUSH1 0x0 DUP1 REVERT JUMPDEST PUSH1 0x40 MLOAD PUSH1 0x80 DUP2 ADD DUP2 DUP2 LT PUSH8 0xFFFFFFFFFFFFFFFF DUP3 GT OR ISZERO PUSH2 0x1A71 JUMPI PUSH2 0x1A71 PUSH2 0x1950 JUMP JUMPDEST DUP1 PUSH1 0x40 MSTORE POP DUP1 SWAP2 POP DUP3 CALLDATALOAD DUP2 MSTORE PUSH1 0x20 DUP4 ADD CALLDATALOAD PUSH1 0x20 DUP3 ADD MSTORE PUSH1 0x40 DUP4 ADD CALLDATALOAD PUSH1 0x40 DUP3 ADD MSTORE PUSH1 0x60 DUP4 ADD CALLDATALOAD PUSH1 0x60 DUP3 ADD MSTORE POP SWAP3 SWAP2 POP POP JUMP JUMPDEST DUP1 CALLDATALOAD DUP1 ISZERO ISZERO DUP2 EQ PUSH2 0x18FA JUMPI PUSH1 0x0 DUP1 REVERT JUMPDEST PUSH1 0x0 DUP3 PUSH1 0x1F DUP4 ADD SLT PUSH2 0x1AC3 JUMPI PUSH1 0x0 DUP1 REVERT JUMPDEST DUP2 CALLDATALOAD PUSH1 0x20 PUSH2 0x1AD8 PUSH2 0x1AD3 DUP4 PUSH2 0x1A07 JUMP JUMPDEST PUSH2 0x19D6 JUMP JUMPDEST DUP3 DUP2 MSTORE PUSH1 0x60 SWAP3 DUP4 MUL DUP6 ADD DUP3 ADD SWAP3 DUP3 DUP3 ADD SWAP2 SWAP1 DUP8 DUP6 GT ISZERO PUSH2 0x1AF7 JUMPI PUSH1 0x0 DUP1 REVERT JUMPDEST DUP4 DUP8 ADD JUMPDEST DUP6 DUP2 LT ISZERO PUSH2 0x1B4E JUMPI DUP2 DUP2 DUP11 SUB SLT ISZERO PUSH2 0x1B13 JUMPI PUSH1 0x0 DUP1 DUP2 REVERT JUMPDEST PUSH2 0x1B1B PUSH2 0x1966 JUMP JUMPDEST DUP2 CALLDATALOAD PUSH2 0x1B26 DUP2 PUSH2 0x18D7 JUMP JUMPDEST DUP2 MSTORE PUSH2 0x1B33 DUP3 DUP8 ADD PUSH2 0x1AA2 JUMP JUMPDEST DUP2 DUP8 ADD MSTORE PUSH1 0x40 DUP3 DUP2 ADD CALLDATALOAD SWAP1 DUP3 ADD MSTORE DUP5 MSTORE SWAP3 DUP5 ADD SWAP3 DUP2 ADD PUSH2 0x1AFB JUMP JUMPDEST POP SWAP1 SWAP8 SWAP7 POP POP POP POP POP POP POP JUMP JUMPDEST PUSH1 0x0 PUSH1 0x20 DUP3 DUP5 SUB SLT ISZERO PUSH2 0x1B6D JUMPI PUSH1 0x0 DUP1 REVERT JUMPDEST PUSH8 0xFFFFFFFFFFFFFFFF DUP1 DUP4 CALLDATALOAD GT ISZERO PUSH2 0x1B84 JUMPI PUSH1 0x0 DUP1 REVERT JUMPDEST PUSH1 0x40 DUP4 CALLDATALOAD DUP5 ADD DUP6 SUB SLT ISZERO PUSH2 0x1B97 JUMPI PUSH1 0x0 DUP1 REVERT JUMPDEST PUSH2 0x1B9F PUSH2 0x198F JUMP JUMPDEST DUP2 DUP5 CALLDATALOAD DUP6 ADD CALLDATALOAD GT ISZERO PUSH2 0x1BB0 JUMPI PUSH1 0x0 DUP1 REVERT JUMPDEST DUP4 CALLDATALOAD DUP5 ADD DUP1 CALLDATALOAD ADD PUSH1 0x1F DUP2 ADD DUP7 SGT PUSH2 0x1BC6 JUMPI PUSH1 0x0 DUP1 REVERT JUMPDEST PUSH2 0x1BD3 PUSH2 0x1AD3 DUP3 CALLDATALOAD PUSH2 0x1A07 JUMP JUMPDEST DUP2 CALLDATALOAD DUP1 DUP3 MSTORE PUSH1 0x20 DUP1 DUP4 ADD SWAP3 SWAP2 PUSH1 0x5 SHL DUP5 ADD ADD DUP9 LT ISZERO PUSH2 0x1BF1 JUMPI PUSH1 0x0 DUP1 REVERT JUMPDEST PUSH1 0x20 DUP4 ADD JUMPDEST PUSH1 0x20 DUP5 CALLDATALOAD PUSH1 0x5 SHL DUP6 ADD ADD DUP2 LT ISZERO PUSH2 0x1D25 JUMPI DUP6 DUP2 CALLDATALOAD GT ISZERO PUSH2 0x1C15 JUMPI PUSH1 0x0 DUP1 REVERT JUMPDEST DUP1 CALLDATALOAD DUP5 ADD PUSH1 0x1F NOT PUSH1 0x40 DUP3 DUP13 SUB DUP3 ADD SLT ISZERO PUSH2 0x1C2E JUMPI PUSH1 0x0 DUP1 REVERT JUMPDEST PUSH2 0x1C36 PUSH2 0x198F JUMP JUMPDEST DUP9 PUSH1 0x20 DUP5 ADD CALLDATALOAD GT ISZERO PUSH2 0x1C47 JUMPI PUSH1 0x0 DUP1 REVERT JUMPDEST PUSH1 0x20 DUP4 ADD CALLDATALOAD DUP4 ADD PUSH2 0x180 DUP4 DUP3 DUP16 SUB ADD SLT ISZERO PUSH2 0x1C61 JUMPI PUSH1 0x0 DUP1 REVERT JUMPDEST PUSH2 0x1C69 PUSH2 0x19B2 JUMP JUMPDEST SWAP3 POP PUSH2 0x1C77 PUSH1 0x20 DUP3 ADD PUSH2 0x18EF JUMP JUMPDEST DUP4 MSTORE PUSH2 0x1C85 PUSH1 0x40 DUP3 ADD PUSH2 0x1A2B JUMP JUMPDEST PUSH1 0x20 DUP5 ADD MSTORE PUSH2 0x1C96 PUSH1 0x60 DUP3 ADD PUSH2 0x18EF JUMP JUMPDEST PUSH1 0x40 DUP5 ADD MSTORE PUSH1 0x80 DUP2 ADD CALLDATALOAD PUSH1 0x60 DUP5 ADD MSTORE PUSH2 0x1CB2 DUP14 PUSH1 0xA0 DUP4 ADD PUSH2 0x1A3C JUMP JUMPDEST PUSH1 0x80 DUP5 ADD MSTORE PUSH2 0x120 DUP2 ADD CALLDATALOAD PUSH1 0xA0 DUP5 ADD MSTORE PUSH2 0x140 DUP2 ADD CALLDATALOAD PUSH1 0xC0 DUP5 ADD MSTORE PUSH2 0x160 DUP2 ADD CALLDATALOAD PUSH1 0xE0 DUP5 ADD MSTORE DUP10 PUSH2 0x180 DUP3 ADD CALLDATALOAD GT ISZERO PUSH2 0x1CEA JUMPI PUSH1 0x0 DUP1 REVERT JUMPDEST PUSH2 0x1CFE DUP14 PUSH1 0x20 PUSH2 0x180 DUP5 ADD CALLDATALOAD DUP5 ADD ADD PUSH2 0x1AB2 JUMP JUMPDEST PUSH2 0x100 DUP5 ADD MSTORE POP SWAP1 DUP2 MSTORE PUSH1 0x40 SWAP2 SWAP1 SWAP2 ADD CALLDATALOAD PUSH1 0x20 DUP1 DUP4 ADD SWAP2 SWAP1 SWAP2 MSTORE SWAP1 DUP5 MSTORE SWAP3 DUP4 ADD SWAP3 ADD PUSH2 0x1BF6 JUMP JUMPDEST POP DUP4 MSTORE POP PUSH2 0x1D3A SWAP1 POP DUP5 CALLDATALOAD DUP6 ADD PUSH1 0x20 ADD PUSH2 0x1AA2 JUMP JUMPDEST PUSH1 0x20 DUP3 ADD MSTORE SWAP5 SWAP4 POP POP POP POP JUMP JUMPDEST PUSH1 0x0 PUSH1 0x20 DUP1 DUP4 MSTORE DUP4 MLOAD DUP1 DUP3 DUP6 ADD MSTORE PUSH1 0x0 JUMPDEST DUP2 DUP2 LT ISZERO PUSH2 0x1D74 JUMPI DUP6 DUP2 ADD DUP4 ADD MLOAD DUP6 DUP3 ADD PUSH1 0x40 ADD MSTORE DUP3 ADD PUSH2 0x1D58 JUMP JUMPDEST DUP2 DUP2 GT ISZERO PUSH2 0x1D86 JUMPI PUSH1 0x0 PUSH1 0x40 DUP4 DUP8 ADD ADD MSTORE JUMPDEST POP PUSH1 0x1F ADD PUSH1 0x1F NOT AND SWAP3 SWAP1 SWAP3 ADD PUSH1 0x40 ADD SWAP4 SWAP3 POP POP POP JUMP JUMPDEST PUSH1 0x20 DUP1 DUP3 MSTORE DUP3 MLOAD DUP3 DUP3 ADD DUP2 SWAP1 MSTORE PUSH1 0x0 SWAP2 SWAP1 DUP5 DUP3 ADD SWAP1 PUSH1 0x40 DUP6 ADD SWAP1 DUP5 JUMPDEST DUP2 DUP2 LT ISZERO PUSH2 0x1DDD JUMPI DUP4 MLOAD PUSH1 0x1 PUSH1 0x1 PUSH1 0xA0 SHL SUB AND DUP4 MSTORE SWAP3 DUP5 ADD SWAP3 SWAP2 DUP5 ADD SWAP2 PUSH1 0x1 ADD PUSH2 0x1DB8 JUMP JUMPDEST POP SWAP1 SWAP7 SWAP6 POP POP POP POP POP POP JUMP JUMPDEST PUSH1 0x0 DUP1 DUP3 DUP5 SUB PUSH1 0x60 DUP2 SLT ISZERO PUSH2 0x1DFD JUMPI PUSH1 0x0 DUP1 REVERT JUMPDEST PUSH1 0x40 DUP2 SLT ISZERO PUSH2 0x1E0B JUMPI PUSH1 0x0 DUP1 REVERT JUMPDEST POP PUSH2 0x1E14 PUSH2 0x198F JUMP JUMPDEST DUP4 CALLDATALOAD PUSH2 0x1E1F DUP2 PUSH2 0x18D7 JUMP JUMPDEST DUP2 MSTORE PUSH1 0x20 DUP5 ADD CALLDATALOAD PUSH1 0x3 DUP2 LT PUSH2 0x1E33 JUMPI PUSH1 0x0 DUP1 REVERT JUMPDEST PUSH1 0x20 DUP3 ADD MSTORE SWAP5 PUSH1 0x40 SWAP4 SWAP1 SWAP4 ADD CALLDATALOAD SWAP4 POP POP POP JUMP JUMPDEST PUSH4 0x4E487B71 PUSH1 0xE0 SHL PUSH1 0x0 MSTORE PUSH1 0x21 PUSH1 0x4 MSTORE PUSH1 0x24 PUSH1 0x0 REVERT JUMPDEST PUSH4 0x4E487B71 PUSH1 0xE0 SHL PUSH1 0x0 MSTORE PUSH1 0x32 PUSH1 0x4 MSTORE PUSH1 0x24 PUSH1 0x0 REVERT JUMPDEST PUSH4 0x4E487B71 PUSH1 0xE0 SHL PUSH1 0x0 MSTORE PUSH1 0x11 PUSH1 0x4 MSTORE PUSH1 0x24 PUSH1 0x0 REVERT JUMPDEST PUSH1 0x0 PUSH1 0x0 NOT DUP3 EQ ISZERO PUSH2 0x1E9C JUMPI PUSH2 0x1E9C PUSH2 0x1E72 JUMP JUMPDEST POP PUSH1 0x1 ADD SWAP1 JUMP JUMPDEST PUSH1 0x0 PUSH1 0x20 DUP3 DUP5 SUB SLT ISZERO PUSH2 0x1EB5 JUMPI PUSH1 0x0 DUP1 REVERT JUMPDEST DUP2 MLOAD PUSH2 0xB1A DUP2 PUSH2 0x18D7 JUMP JUMPDEST PUSH1 0x0 DUP3 DUP3 LT ISZERO PUSH2 0x1ED2 JUMPI PUSH2 0x1ED2 PUSH2 0x1E72 JUMP JUMPDEST POP SUB SWAP1 JUMP JUMPDEST PUSH4 0x4E487B71 PUSH1 0xE0 SHL PUSH1 0x0 MSTORE PUSH1 0x31 PUSH1 0x4 MSTORE PUSH1 0x24 PUSH1 0x0 REVERT JUMPDEST PUSH1 0x0 DUP3 NOT DUP3 GT ISZERO PUSH2 0x1F00 JUMPI PUSH2 0x1F00 PUSH2 0x1E72 JUMP JUMPDEST POP ADD SWAP1 JUMP JUMPDEST PUSH1 0x0 PUSH1 0x20 DUP3 DUP5 SUB SLT ISZERO PUSH2 0x1F17 JUMPI PUSH1 0x0 DUP1 REVERT JUMPDEST POP MLOAD SWAP2 SWAP1 POP JUMP JUMPDEST PUSH1 0x0 DUP2 PUSH1 0x0 NOT DIV DUP4 GT DUP3 ISZERO ISZERO AND ISZERO PUSH2 0x1F38 JUMPI PUSH2 0x1F38 PUSH2 0x1E72 JUMP JUMPDEST POP MUL SWAP1 JUMP JUMPDEST PUSH4 0x4E487B71 PUSH1 0xE0 SHL PUSH1 0x0 MSTORE PUSH1 0x12 PUSH1 0x4 MSTORE PUSH1 0x24 PUSH1 0x0 REVERT JUMPDEST PUSH1 0x0 DUP3 PUSH2 0x1F62 JUMPI PUSH2 0x1F62 PUSH2 0x1F3D JUMP JUMPDEST POP DIV SWAP1 JUMP JUMPDEST PUSH1 0x0 DUP3 PUSH2 0x1F76 JUMPI PUSH2 0x1F76 PUSH2 0x1F3D JUMP JUMPDEST POP MOD SWAP1 JUMP INVALID LOG2 PUSH5 0x6970667358 0x22 SLT KECCAK256 0xE5 0x2F PUSH29 0xF2C043BFAE94B2F3175D0253EA3F3DADE4CA8F74F1B54EA6B2CFD50EF8 PUSH5 0x736F6C6343 STOP ADDMOD EXP STOP CALLER ","sha1":"abc00578ad8dda908957b39b31c1e54cb1333a90","source":"// SPDX-License-Identifier: LicenseRef-Gyro-1.0\n// for information on licensing please see the README in the GitHub repository <https://github.com/gyrostable/core-protocol>.\npragma solidity ^0.8.4;\n\nimport \"@openzeppelin/contracts/token/ERC20/utils/SafeERC20.sol\";\nimport \"@openzeppelin/contracts/token/ERC20/ERC20.sol\";\nimport \"@openzeppelin/contracts/utils/structs/EnumerableSet.sol\";\n\nimport \"./../auth/GovernableUpgradeable.sol\";\nimport \"../../libraries/DataTypes.sol\";\nimport \"../../interfaces/IGyroConfig.sol\";\nimport \"../../interfaces/IAssetRegistry.sol\";\nimport \"../../interfaces/IGyroVault.sol\";\nimport \"../../interfaces/balancer/IVault.sol\";\nimport \"../../libraries/Errors.sol\";\nimport \"../../interfaces/ISafetyCheck.sol\";\nimport \"../../interfaces/IVaultRegistry.sol\";\nimport \"../../libraries/FixedPoint.sol\";\nimport \"../../libraries/Flow.sol\";\nimport \"../../libraries/Errors.sol\";\nimport \"../../libraries/StringExtensions.sol\";\nimport \"../../libraries/EnumerableExtensions.sol\";\nimport \"../../libraries/ConfigHelpers.sol\";\n\ncontract VaultSafetyMode is ISafetyCheck, GovernableUpgradeable {\n    using FixedPoint for uint256;\n    using StringExtensions for string;\n    using EnumerableSet for EnumerableSet.AddressSet;\n    using EnumerableExtensions for EnumerableSet.AddressSet;\n    using ConfigHelpers for IGyroConfig;\n\n    EnumerableSet.AddressSet internal whitelist;\n\n    /// @notice Emitted when entering safety mode\n    event SafetyStatus(string err);\n\n    /// @notice Emitted when a whitelisted address protects a vault\n    event OracleGuardianActivated(address vaultAddress, uint256 durationOfProtectionInBlocks);\n\n    event AddedToWhitelist(address indexed account);\n    event RemovedFromWhitelist(address indexed account);\n\n    mapping(address => DataTypes.FlowData) public persistedFlowData;\n\n    IGyroConfig public immutable gyroConfig;\n\n    uint256 public immutable safetyBlocksAutomatic;\n    uint256 public immutable safetyBlocksGuardian;\n\n    uint256 public constant THRESHOLD_BUFFER = 8e17;\n\n    constructor(\n        uint256 _safetyBlocksAutomatic,\n        uint256 _safetyBlocksGuardian,\n        address _gyroConfig\n    ) {\n        safetyBlocksAutomatic = _safetyBlocksAutomatic;\n        safetyBlocksGuardian = _safetyBlocksGuardian;\n        gyroConfig = IGyroConfig(_gyroConfig);\n    }\n\n    modifier rootSafetyCheckOnly() {\n        require(msg.sender == address(gyroConfig.getRootSafetyCheck()), Errors.NOT_AUTHORIZED);\n        _;\n    }\n\n    function _calculateRemainingBlocks(uint256 lastRemainingBlocks, uint256 blocksElapsed)\n        internal\n        pure\n        returns (uint256)\n    {\n        if (blocksElapsed >= lastRemainingBlocks) {\n            return 0;\n        } else {\n            return (lastRemainingBlocks - blocksElapsed);\n        }\n    }\n\n    //TODO: gas optimize this\n    function _storeDirectionalFlowData(\n        DataTypes.DirectionalFlowData[] memory directionalFlowData,\n        DataTypes.Order memory order,\n        address[] memory vaultAddresses,\n        uint256 currentBlockNumber\n    ) internal {\n        require(directionalFlowData.length == vaultAddresses.length, Errors.NOT_ENOUGH_FLOW_DATA);\n        if (order.mint) {\n            for (uint256 i = 0; i < directionalFlowData.length; i++) {\n                persistedFlowData[vaultAddresses[i]].inFlow = directionalFlowData[i];\n                if (order.vaultsWithAmount[i].amount > 0) {\n                    persistedFlowData[vaultAddresses[i]].lastSeenBlock = currentBlockNumber;\n                }\n            }\n        } else {\n            for (uint256 i = 0; i < directionalFlowData.length; i++) {\n                persistedFlowData[vaultAddresses[i]].outFlow = directionalFlowData[i];\n                if (order.vaultsWithAmount[i].amount > 0) {\n                    persistedFlowData[vaultAddresses[i]].lastSeenBlock = currentBlockNumber;\n                }\n            }\n        }\n    }\n\n    //TODO: gas optimize this. The parameters for this contract could also potentially be packed here.\n    function _accessDirectionalFlowData(\n        address[] memory vaultAddresses,\n        DataTypes.Order memory order\n    )\n        internal\n        view\n        returns (\n            DataTypes.DirectionalFlowData[] memory directionalFlowData,\n            uint256[] memory lastSeenBlock\n        )\n    {\n        directionalFlowData = new DataTypes.DirectionalFlowData[](vaultAddresses.length);\n        lastSeenBlock = new uint256[](vaultAddresses.length);\n\n        for (uint256 i = 0; i < vaultAddresses.length; i++) {\n            address vaultAddress = vaultAddresses[i];\n            uint256 lastBlock = persistedFlowData[vaultAddress].lastSeenBlock;\n            if (lastBlock == 0) {\n                lastBlock = IGyroVault(vaultAddress).deployedAt();\n            }\n            lastSeenBlock[i] = lastBlock;\n            if (order.mint) {\n                directionalFlowData[i] = persistedFlowData[vaultAddress].inFlow;\n            } else {\n                directionalFlowData[i] = persistedFlowData[vaultAddress].outFlow;\n            }\n        }\n    }\n\n    function _fetchLatestDirectionalFlowData(\n        address[] memory vaultAddresses,\n        uint256 currentBlockNumber,\n        DataTypes.Order memory order\n    ) internal view returns (DataTypes.DirectionalFlowData[] memory) {\n        (\n            DataTypes.DirectionalFlowData[] memory directionalFlowData,\n            uint256[] memory lastSeenBlock\n        ) = _accessDirectionalFlowData(vaultAddresses, order);\n\n        for (uint256 i = 0; i < directionalFlowData.length; i++) {\n            uint256 blocksElapsed = currentBlockNumber - lastSeenBlock[i];\n\n            directionalFlowData[i].remainingSafetyBlocks = _calculateRemainingBlocks(\n                directionalFlowData[i].remainingSafetyBlocks,\n                blocksElapsed\n            );\n\n            directionalFlowData[i].shortFlow = Flow.updateFlow(\n                directionalFlowData[i].shortFlow,\n                currentBlockNumber,\n                lastSeenBlock[i],\n                order.vaultsWithAmount[i].vaultInfo.persistedMetadata.shortFlowMemory\n            );\n        }\n        return directionalFlowData;\n    }\n\n    function _updateVaultFlowSafety(\n        DataTypes.DirectionalFlowData memory directionalFlowData,\n        uint256 proposedFlowChange,\n        uint256 shortFlowThreshold\n    )\n        internal\n        view\n        returns (\n            DataTypes.DirectionalFlowData memory,\n            bool,\n            bool\n        )\n    {\n        bool allowTransaction = true;\n        bool isSafetyModeActivated = false;\n\n        if (directionalFlowData.remainingSafetyBlocks > 0) {\n            return (directionalFlowData, false, true);\n        }\n        uint256 newFlow = directionalFlowData.shortFlow + proposedFlowChange;\n        if (newFlow > shortFlowThreshold) {\n            allowTransaction = false;\n            directionalFlowData.remainingSafetyBlocks = safetyBlocksAutomatic;\n        } else if (newFlow > THRESHOLD_BUFFER.mulDown(shortFlowThreshold)) {\n            directionalFlowData.remainingSafetyBlocks = safetyBlocksAutomatic;\n            directionalFlowData.shortFlow += newFlow;\n            isSafetyModeActivated = true;\n        } else {\n            directionalFlowData.shortFlow += newFlow;\n        }\n\n        return (directionalFlowData, allowTransaction, isSafetyModeActivated);\n    }\n\n    function _flowSafetyStateUpdater(DataTypes.Order memory order)\n        internal\n        view\n        returns (\n            string memory,\n            DataTypes.DirectionalFlowData[] memory latestDirectionalFlowData,\n            address[] memory vaultAddresses,\n            uint256 currentBlockNumber\n        )\n    {\n        currentBlockNumber = block.number;\n\n        vaultAddresses = new address[](order.vaultsWithAmount.length);\n        latestDirectionalFlowData = new DataTypes.DirectionalFlowData[](\n            order.vaultsWithAmount.length\n        );\n\n        for (uint256 i = 0; i < order.vaultsWithAmount.length; i++) {\n            vaultAddresses[i] = order.vaultsWithAmount[i].vaultInfo.vault;\n        }\n\n        latestDirectionalFlowData = _fetchLatestDirectionalFlowData(\n            vaultAddresses,\n            currentBlockNumber,\n            order\n        );\n\n        bool safetyModeOff = true;\n        for (uint256 i = 0; i < latestDirectionalFlowData.length; i++) {\n            bool allowTransaction;\n            bool isSafetyModeActivated;\n            (\n                latestDirectionalFlowData[i],\n                allowTransaction,\n                isSafetyModeActivated\n            ) = _updateVaultFlowSafety(\n                latestDirectionalFlowData[i],\n                order.vaultsWithAmount[i].amount,\n                order.vaultsWithAmount[i].vaultInfo.persistedMetadata.shortFlowThreshold\n            );\n\n            if (isSafetyModeActivated) {\n                safetyModeOff = false;\n            }\n            if (!allowTransaction) {\n                return (\n                    Errors.VAULT_FLOW_TOO_HIGH,\n                    latestDirectionalFlowData,\n                    vaultAddresses,\n                    currentBlockNumber\n                );\n            }\n        }\n\n        if (!safetyModeOff) {\n            return (\n                Errors.OPERATION_SUCCEEDS_BUT_SAFETY_MODE_ACTIVATED,\n                latestDirectionalFlowData,\n                vaultAddresses,\n                currentBlockNumber\n            );\n        }\n\n        return (\"\", latestDirectionalFlowData, vaultAddresses, currentBlockNumber);\n    }\n\n    /// @notice Checks whether a mint operation is safe\n    /// @return empty string if it is safe, otherwise the reason why it is not safe\n    function isMintSafe(DataTypes.Order memory order) external view returns (string memory) {\n        (string memory mintSafety, , , ) = _flowSafetyStateUpdater(order);\n        return mintSafety;\n    }\n\n    /// @inheritdoc ISafetyCheck\n    function checkAndPersistMint(DataTypes.Order memory order) external rootSafetyCheckOnly {\n        (\n            string memory err,\n            DataTypes.DirectionalFlowData[] memory latestDirectionalFlowData,\n            address[] memory vaultAddresses,\n            uint256 currentBlockNumber\n        ) = _flowSafetyStateUpdater(order);\n\n        if (bytes(err).length > 0) {\n            if (err.compareStrings(Errors.OPERATION_SUCCEEDS_BUT_SAFETY_MODE_ACTIVATED)) {\n                emit SafetyStatus(err);\n            } else {\n                revert(Errors.NOT_SAFE_TO_MINT);\n            }\n        }\n\n        _storeDirectionalFlowData(\n            latestDirectionalFlowData,\n            order,\n            vaultAddresses,\n            currentBlockNumber\n        );\n    }\n\n    /// @notice Checks whether a redeem operation is safe\n    /// @return empty string if it is safe, otherwise the reason why it is not safe\n    function isRedeemSafe(DataTypes.Order memory order) external view returns (string memory) {\n        (string memory redeemSafety, , , ) = _flowSafetyStateUpdater(order);\n        return redeemSafety;\n    }\n\n    /// @notice Checks whether a redeem operation is safe\n    /// This is only called when an actual redeem is performed\n    /// The implementation should store any relevant information for the redeem\n    function checkAndPersistRedeem(DataTypes.Order memory order) external rootSafetyCheckOnly {\n        (\n            string memory err,\n            DataTypes.DirectionalFlowData[] memory latestDirectionalFlowData,\n            address[] memory vaultAddresses,\n            uint256 currentBlockNumber\n        ) = _flowSafetyStateUpdater(order);\n\n        if (bytes(err).length > 0) {\n            if (err.compareStrings(Errors.OPERATION_SUCCEEDS_BUT_SAFETY_MODE_ACTIVATED)) {\n                emit SafetyStatus(err);\n            } else {\n                revert(Errors.NOT_SAFE_TO_REDEEM);\n            }\n        }\n\n        _storeDirectionalFlowData(\n            latestDirectionalFlowData,\n            order,\n            vaultAddresses,\n            currentBlockNumber\n        );\n    }\n\n    function getWhitelist() external view returns (address[] memory) {\n        return whitelist.toArray();\n    }\n\n    function addAddressToWhitelist(address _addressToAdd) external governanceOnly {\n        whitelist.add(_addressToAdd);\n        emit AddedToWhitelist(_addressToAdd);\n    }\n\n    function removeAddressFromWhitelist(address _addressToRemove) external governanceOnly {\n        whitelist.remove(_addressToRemove);\n        emit RemovedFromWhitelist(_addressToRemove);\n    }\n\n    modifier isWhitelisted(address _address) {\n        require(whitelist.contains(_address), Errors.NOT_AUTHORIZED);\n        _;\n    }\n\n    function activateOracleGuardian(\n        DataTypes.GuardedVaults memory vaultToProtect,\n        uint256 blocksToActivate\n    ) external isWhitelisted(msg.sender) {\n        require(blocksToActivate <= safetyBlocksGuardian, Errors.ORACLE_GUARDIAN_TIME_LIMIT);\n\n        if (\n            vaultToProtect.direction == DataTypes.Direction.In ||\n            vaultToProtect.direction == DataTypes.Direction.Both\n        ) {\n            persistedFlowData[vaultToProtect.vaultAddress]\n                .inFlow\n                .remainingSafetyBlocks = blocksToActivate;\n            emit OracleGuardianActivated(vaultToProtect.vaultAddress, blocksToActivate);\n        }\n        if (\n            vaultToProtect.direction == DataTypes.Direction.Out ||\n            vaultToProtect.direction == DataTypes.Direction.Both\n        ) {\n            persistedFlowData[vaultToProtect.vaultAddress]\n                .outFlow\n                .remainingSafetyBlocks = blocksToActivate;\n            emit OracleGuardianActivated(vaultToProtect.vaultAddress, blocksToActivate);\n        }\n    }\n}\n","sourcePath":"contracts/safety/VaultSafetyMode.sol","type":"contract","deployment":{"address":"0x375d1371dB50a914d1BCbAaf5E5DD266bA5D546F","chainid":"137","blockHeight":36345118}}