{"abi":[{"inputs":[{"internalType":"address","name":"_governor","type":"address"}],"stateMutability":"nonpayable","type":"constructor","name":"constructor"},{"anonymous":false,"inputs":[{"indexed":true,"internalType":"address","name":"asset","type":"address"},{"indexed":true,"internalType":"address","name":"previousFeed","type":"address"},{"indexed":true,"internalType":"address","name":"newFeed","type":"address"}],"name":"FeedUpdated","type":"event"},{"anonymous":false,"inputs":[{"indexed":false,"internalType":"address","name":"newGovernor","type":"address"}],"name":"GovernorChangeRequested","type":"event"},{"anonymous":false,"inputs":[{"indexed":false,"internalType":"address","name":"oldGovernor","type":"address"},{"indexed":false,"internalType":"address","name":"newGovernor","type":"address"}],"name":"GovernorChanged","type":"event"},{"inputs":[],"name":"MAX_LAG","outputs":[{"internalType":"uint256","name":"","type":"uint256"}],"stateMutability":"view","type":"function"},{"inputs":[],"name":"acceptGovernance","outputs":[],"stateMutability":"nonpayable","type":"function"},{"inputs":[{"internalType":"address","name":"newGovernor","type":"address"}],"name":"changeGovernor","outputs":[],"stateMutability":"nonpayable","type":"function"},{"inputs":[{"internalType":"address","name":"","type":"address"}],"name":"feeds","outputs":[{"internalType":"address","name":"","type":"address"}],"stateMutability":"view","type":"function"},{"inputs":[{"internalType":"address","name":"asset","type":"address"}],"name":"getPriceUSD","outputs":[{"internalType":"uint256","name":"","type":"uint256"}],"stateMutability":"view","type":"function"},{"inputs":[],"name":"governor","outputs":[{"internalType":"address","name":"","type":"address"}],"stateMutability":"view","type":"function"},{"inputs":[],"name":"listSupportedAssets","outputs":[{"internalType":"address[]","name":"","type":"address[]"}],"stateMutability":"view","type":"function"},{"inputs":[],"name":"pendingGovernor","outputs":[{"internalType":"address","name":"","type":"address"}],"stateMutability":"view","type":"function"},{"inputs":[{"internalType":"address","name":"asset","type":"address"},{"internalType":"address","name":"feed","type":"address"}],"name":"setFeed","outputs":[],"stateMutability":"nonpayable","type":"function"}],"bytecode":"608060405234801561001057600080fd5b50604051610b6a380380610b6a83398101604081905261002f91610092565b600080546001600160a01b0319166001600160a01b0383169081178255604080519283526020830191909152829182917fde4b3f61490b74c0ed6237523974fe299126bbbf8a8a7482fd220104c59b0c84910160405180910390a15050506100c2565b6000602082840312156100a457600080fd5b81516001600160a01b03811681146100bb57600080fd5b9392505050565b610a99806100d16000396000f3fe608060405234801561001057600080fd5b50600436106100935760003560e01c806340b1eb101161006657806340b1eb10146101135780635436ae9a146101265780635708447d1461013b578063e3056a341461014e578063e4c0aaf41461016157600080fd5b80630c340a241461009857806314c1d37f146100c8578063238efcbc146100e05780632fba4aa9146100ea575b600080fd5b6000546100ab906001600160a01b031681565b6040516001600160a01b0390911681526020015b60405180910390f35b6100d26201518081565b6040519081526020016100bf565b6100e8610174565b005b6100ab6100f8366004610761565b6004602052600090815260409020546001600160a01b031681565b6100e861012136600461077c565b61022d565b61012e61033b565b6040516100bf91906107af565b6100d2610149366004610761565b61034c565b6001546100ab906001600160a01b031681565b6100e861016f366004610761565b610428565b600154604080518082019091526002815261033360f41b6020820152906001600160a01b031633146101c25760405162461bcd60e51b81526004016101b991906107fc565b60405180910390fd5b5060008054600180546001600160a01b03198084166001600160a01b03808416919091179095551690556040805192909116808352336020840152917fde4b3f61490b74c0ed6237523974fe299126bbbf8a8a7482fd220104c59b0c8491015b60405180910390a150565b600054604080518082019091526002815261033360f41b6020820152906001600160a01b031633146102725760405162461bcd60e51b81526004016101b991906107fc565b506001600160a01b038083166000908152600460209081526040918290205482518084019093526002835261333160f01b9183019190915282169183168214156102cf5760405162461bcd60e51b81526004016101b991906107fc565b506102db6002846104fd565b506001600160a01b0383811660008181526004602052604080822080546001600160a01b03191687861690811790915590519093851692917f321e37f6a0404dbaed483cc2ece840899199567b4a62f4639eff9587735b87fd91a4505050565b6060610347600261051b565b905090565b6001600160a01b0380821660009081526004602090815260408083205481518083019092526002825261034360f41b9282019290925291921690816103a45760405162461bcd60e51b81526004016101b991906107fc565b5060006103b08261052f565b50915050610420826001600160a01b031663313ce5676040518163ffffffff1660e01b8152600401602060405180830381865afa1580156103f5573d6000803e3d6000fd5b505050506040513d601f19601f820116820180604052508101906104199190610851565b8290610632565b949350505050565b600054604080518082019091526002815261033360f41b6020820152906001600160a01b0316331461046d5760405162461bcd60e51b81526004016101b991906107fc565b50604080518082019091526002815261333160f01b60208201526001600160a01b0382166104ae5760405162461bcd60e51b81526004016101b991906107fc565b50600180546001600160a01b0319166001600160a01b0383169081179091556040519081527f67235ba2e63c748a35b95c4f92a3bbc2a1389938170a5ce6c9add5d0b03a314a90602001610222565b6000610512836001600160a01b03841661069a565b90505b92915050565b60606000610528836106e9565b9392505050565b600080600080846001600160a01b031663feaf968c6040518163ffffffff1660e01b815260040160a060405180830381865afa158015610573573d6000803e3d6000fd5b505050506040513d601f19601f82011682018060405250810190610597919061088e565b5092965091935091506105af905062015180836108f4565b42111560405180604001604052806002815260200161343160f01b815250906105eb5760405162461bcd60e51b81526004016101b991906107fc565b506040805180820190915260028152611a1960f11b602082015260008212156106275760405162461bcd60e51b81526004016101b991906107fc565b509294929350919050565b600060ff821660121415610647575081610515565b601260ff8316111561067a5761065e60128361090c565b61066990600a610a13565b6106739084610a22565b9050610515565b61068582601261090c565b61069090600a610a13565b6106739084610a44565b60008181526001830160205260408120546106e157508154600181810184556000848152602080822090930184905584548482528286019093526040902091909155610515565b506000610515565b60608160000180548060200260200160405190810160405280929190818152602001828054801561073957602002820191906000526020600020905b815481526020019060010190808311610725575b50505050509050919050565b80356001600160a01b038116811461075c57600080fd5b919050565b60006020828403121561077357600080fd5b61051282610745565b6000806040838503121561078f57600080fd5b61079883610745565b91506107a660208401610745565b90509250929050565b6020808252825182820181905260009190848201906040850190845b818110156107f05783516001600160a01b0316835292840192918401916001016107cb565b50909695505050505050565b600060208083528351808285015260005b818110156108295785810183015185820160400152820161080d565b8181111561083b576000604083870101525b50601f01601f1916929092016040019392505050565b60006020828403121561086357600080fd5b815160ff8116811461052857600080fd5b805169ffffffffffffffffffff8116811461075c57600080fd5b600080600080600060a086880312156108a657600080fd5b6108af86610874565b94506020860151935060408601519250606086015191506108d260808701610874565b90509295509295909350565b634e487b7160e01b600052601160045260246000fd5b60008219821115610907576109076108de565b500190565b600060ff821660ff841680821015610926576109266108de565b90039392505050565b600181815b8085111561096a578160001904821115610950576109506108de565b8085161561095d57918102915b93841c9390800290610934565b509250929050565b60008261098157506001610515565b8161098e57506000610515565b81600181146109a457600281146109ae576109ca565b6001915050610515565b60ff8411156109bf576109bf6108de565b50506001821b610515565b5060208310610133831016604e8410600b84101617156109ed575081810a610515565b6109f7838361092f565b8060001904821115610a0b57610a0b6108de565b029392505050565b600061051260ff841683610972565b600082610a3f57634e487b7160e01b600052601260045260246000fd5b500490565b6000816000190483118215151615610a5e57610a5e6108de565b50029056fea26469706673582212203fc24f9e41b8c53118234f784fefd36a177b0d97505fad826e998ade1b9035f764736f6c634300080a0033","bytecodeSha1":"7de17d1809587aa22f5c55f5d780363c840cd5fe","compiler":{"evm_version":"london","optimizer":{"enabled":true,"runs":200},"version":"0.8.10+commit.fc410830"},"contractName":"ChainlinkPriceOracle","language":"Solidity","natspec":{"kind":"dev","methods":{"acceptGovernance()":{"notice":"Called by the pending governor to approve the change"},"changeGovernor(address)":{"notice":"Changes the governor can only be called by the current governor"},"getPriceUSD(address)":{"notice":"Quotes the USD price of `tokenAddress` The quoted price is always scaled with 18 decimals regardless of the source used for the oracle.","params":{"tokenAddress":"the asset of which the price is to be quoted"},"returns":{"_0":"the USD price of the asset"}},"governor()":{"notice":"Returns the current governor"},"pendingGovernor()":{"notice":"Returns the pending governor"},"setFeed(address,address)":{"notice":"Allows to set Chainlink feeds This can only be called by governance"}},"version":1},"opcodes":"PUSH1 0x80 PUSH1 0x40 MSTORE CALLVALUE DUP1 ISZERO PUSH2 0x10 JUMPI PUSH1 0x0 DUP1 REVERT JUMPDEST POP PUSH1 0x4 CALLDATASIZE LT PUSH2 0x93 JUMPI PUSH1 0x0 CALLDATALOAD PUSH1 0xE0 SHR DUP1 PUSH4 0x40B1EB10 GT PUSH2 0x66 JUMPI DUP1 PUSH4 0x40B1EB10 EQ PUSH2 0x113 JUMPI DUP1 PUSH4 0x5436AE9A EQ PUSH2 0x126 JUMPI DUP1 PUSH4 0x5708447D EQ PUSH2 0x13B JUMPI DUP1 PUSH4 0xE3056A34 EQ PUSH2 0x14E JUMPI DUP1 PUSH4 0xE4C0AAF4 EQ PUSH2 0x161 JUMPI PUSH1 0x0 DUP1 REVERT JUMPDEST DUP1 PUSH4 0xC340A24 EQ PUSH2 0x98 JUMPI DUP1 PUSH4 0x14C1D37F EQ PUSH2 0xC8 JUMPI DUP1 PUSH4 0x238EFCBC EQ PUSH2 0xE0 JUMPI DUP1 PUSH4 0x2FBA4AA9 EQ PUSH2 0xEA JUMPI JUMPDEST PUSH1 0x0 DUP1 REVERT JUMPDEST PUSH1 0x0 SLOAD PUSH2 0xAB SWAP1 PUSH1 0x1 PUSH1 0x1 PUSH1 0xA0 SHL SUB AND DUP2 JUMP JUMPDEST PUSH1 0x40 MLOAD PUSH1 0x1 PUSH1 0x1 PUSH1 0xA0 SHL SUB SWAP1 SWAP2 AND DUP2 MSTORE PUSH1 0x20 ADD JUMPDEST PUSH1 0x40 MLOAD DUP1 SWAP2 SUB SWAP1 RETURN JUMPDEST PUSH2 0xD2 PUSH3 0x15180 DUP2 JUMP JUMPDEST PUSH1 0x40 MLOAD SWAP1 DUP2 MSTORE PUSH1 0x20 ADD PUSH2 0xBF JUMP JUMPDEST PUSH2 0xE8 PUSH2 0x174 JUMP JUMPDEST STOP JUMPDEST PUSH2 0xAB PUSH2 0xF8 CALLDATASIZE PUSH1 0x4 PUSH2 0x761 JUMP JUMPDEST PUSH1 0x4 PUSH1 0x20 MSTORE PUSH1 0x0 SWAP1 DUP2 MSTORE PUSH1 0x40 SWAP1 KECCAK256 SLOAD PUSH1 0x1 PUSH1 0x1 PUSH1 0xA0 SHL SUB AND DUP2 JUMP JUMPDEST PUSH2 0xE8 PUSH2 0x121 CALLDATASIZE PUSH1 0x4 PUSH2 0x77C JUMP JUMPDEST PUSH2 0x22D JUMP JUMPDEST PUSH2 0x12E PUSH2 0x33B JUMP JUMPDEST PUSH1 0x40 MLOAD PUSH2 0xBF SWAP2 SWAP1 PUSH2 0x7AF JUMP JUMPDEST PUSH2 0xD2 PUSH2 0x149 CALLDATASIZE PUSH1 0x4 PUSH2 0x761 JUMP JUMPDEST PUSH2 0x34C JUMP JUMPDEST PUSH1 0x1 SLOAD PUSH2 0xAB SWAP1 PUSH1 0x1 PUSH1 0x1 PUSH1 0xA0 SHL SUB AND DUP2 JUMP JUMPDEST PUSH2 0xE8 PUSH2 0x16F CALLDATASIZE PUSH1 0x4 PUSH2 0x761 JUMP JUMPDEST PUSH2 0x428 JUMP JUMPDEST PUSH1 0x1 SLOAD PUSH1 0x40 DUP1 MLOAD DUP1 DUP3 ADD SWAP1 SWAP2 MSTORE PUSH1 0x2 DUP2 MSTORE PUSH2 0x333 PUSH1 0xF4 SHL PUSH1 0x20 DUP3 ADD MSTORE SWAP1 PUSH1 0x1 PUSH1 0x1 PUSH1 0xA0 SHL SUB AND CALLER EQ PUSH2 0x1C2 JUMPI PUSH1 0x40 MLOAD PUSH3 0x461BCD PUSH1 0xE5 SHL DUP2 MSTORE PUSH1 0x4 ADD PUSH2 0x1B9 SWAP2 SWAP1 PUSH2 0x7FC JUMP JUMPDEST PUSH1 0x40 MLOAD DUP1 SWAP2 SUB SWAP1 REVERT JUMPDEST POP PUSH1 0x0 DUP1 SLOAD PUSH1 0x1 DUP1 SLOAD PUSH1 0x1 PUSH1 0x1 PUSH1 0xA0 SHL SUB NOT DUP1 DUP5 AND PUSH1 0x1 PUSH1 0x1 PUSH1 0xA0 SHL SUB DUP1 DUP5 AND SWAP2 SWAP1 SWAP2 OR SWAP1 SWAP6 SSTORE AND SWAP1 SSTORE PUSH1 0x40 DUP1 MLOAD SWAP3 SWAP1 SWAP2 AND DUP1 DUP4 MSTORE CALLER PUSH1 0x20 DUP5 ADD MSTORE SWAP2 PUSH32 0xDE4B3F61490B74C0ED6237523974FE299126BBBF8A8A7482FD220104C59B0C84 SWAP2 ADD JUMPDEST PUSH1 0x40 MLOAD DUP1 SWAP2 SUB SWAP1 LOG1 POP JUMP JUMPDEST PUSH1 0x0 SLOAD PUSH1 0x40 DUP1 MLOAD DUP1 DUP3 ADD SWAP1 SWAP2 MSTORE PUSH1 0x2 DUP2 MSTORE PUSH2 0x333 PUSH1 0xF4 SHL PUSH1 0x20 DUP3 ADD MSTORE SWAP1 PUSH1 0x1 PUSH1 0x1 PUSH1 0xA0 SHL SUB AND CALLER EQ PUSH2 0x272 JUMPI PUSH1 0x40 MLOAD PUSH3 0x461BCD PUSH1 0xE5 SHL DUP2 MSTORE PUSH1 0x4 ADD PUSH2 0x1B9 SWAP2 SWAP1 PUSH2 0x7FC JUMP JUMPDEST POP PUSH1 0x1 PUSH1 0x1 PUSH1 0xA0 SHL SUB DUP1 DUP4 AND PUSH1 0x0 SWAP1 DUP2 MSTORE PUSH1 0x4 PUSH1 0x20 SWAP1 DUP2 MSTORE PUSH1 0x40 SWAP2 DUP3 SWAP1 KECCAK256 SLOAD DUP3 MLOAD DUP1 DUP5 ADD SWAP1 SWAP4 MSTORE PUSH1 0x2 DUP4 MSTORE PUSH2 0x3331 PUSH1 0xF0 SHL SWAP2 DUP4 ADD SWAP2 SWAP1 SWAP2 MSTORE DUP3 AND SWAP2 DUP4 AND DUP3 EQ ISZERO PUSH2 0x2CF JUMPI PUSH1 0x40 MLOAD PUSH3 0x461BCD PUSH1 0xE5 SHL DUP2 MSTORE PUSH1 0x4 ADD PUSH2 0x1B9 SWAP2 SWAP1 PUSH2 0x7FC JUMP JUMPDEST POP PUSH2 0x2DB PUSH1 0x2 DUP5 PUSH2 0x4FD JUMP JUMPDEST POP PUSH1 0x1 PUSH1 0x1 PUSH1 0xA0 SHL SUB DUP4 DUP2 AND PUSH1 0x0 DUP2 DUP2 MSTORE PUSH1 0x4 PUSH1 0x20 MSTORE PUSH1 0x40 DUP1 DUP3 KECCAK256 DUP1 SLOAD PUSH1 0x1 PUSH1 0x1 PUSH1 0xA0 SHL SUB NOT AND DUP8 DUP7 AND SWAP1 DUP2 OR SWAP1 SWAP2 SSTORE SWAP1 MLOAD SWAP1 SWAP4 DUP6 AND SWAP3 SWAP2 PUSH32 0x321E37F6A0404DBAED483CC2ECE840899199567B4A62F4639EFF9587735B87FD SWAP2 LOG4 POP POP POP JUMP JUMPDEST PUSH1 0x60 PUSH2 0x347 PUSH1 0x2 PUSH2 0x51B JUMP JUMPDEST SWAP1 POP SWAP1 JUMP JUMPDEST PUSH1 0x1 PUSH1 0x1 PUSH1 0xA0 SHL SUB DUP1 DUP3 AND PUSH1 0x0 SWAP1 DUP2 MSTORE PUSH1 0x4 PUSH1 0x20 SWAP1 DUP2 MSTORE PUSH1 0x40 DUP1 DUP4 KECCAK256 SLOAD DUP2 MLOAD DUP1 DUP4 ADD SWAP1 SWAP3 MSTORE PUSH1 0x2 DUP3 MSTORE PUSH2 0x343 PUSH1 0xF4 SHL SWAP3 DUP3 ADD SWAP3 SWAP1 SWAP3 MSTORE SWAP2 SWAP3 AND SWAP1 DUP2 PUSH2 0x3A4 JUMPI PUSH1 0x40 MLOAD PUSH3 0x461BCD PUSH1 0xE5 SHL DUP2 MSTORE PUSH1 0x4 ADD PUSH2 0x1B9 SWAP2 SWAP1 PUSH2 0x7FC JUMP JUMPDEST POP PUSH1 0x0 PUSH2 0x3B0 DUP3 PUSH2 0x52F JUMP JUMPDEST POP SWAP2 POP POP PUSH2 0x420 DUP3 PUSH1 0x1 PUSH1 0x1 PUSH1 0xA0 SHL SUB AND PUSH4 0x313CE567 PUSH1 0x40 MLOAD DUP2 PUSH4 0xFFFFFFFF AND PUSH1 0xE0 SHL DUP2 MSTORE PUSH1 0x4 ADD PUSH1 0x20 PUSH1 0x40 MLOAD DUP1 DUP4 SUB DUP2 DUP7 GAS STATICCALL ISZERO DUP1 ISZERO PUSH2 0x3F5 JUMPI RETURNDATASIZE PUSH1 0x0 DUP1 RETURNDATACOPY RETURNDATASIZE PUSH1 0x0 REVERT JUMPDEST POP POP POP POP PUSH1 0x40 MLOAD RETURNDATASIZE PUSH1 0x1F NOT PUSH1 0x1F DUP3 ADD AND DUP3 ADD DUP1 PUSH1 0x40 MSTORE POP DUP2 ADD SWAP1 PUSH2 0x419 SWAP2 SWAP1 PUSH2 0x851 JUMP JUMPDEST DUP3 SWAP1 PUSH2 0x632 JUMP JUMPDEST SWAP5 SWAP4 POP POP POP POP JUMP JUMPDEST PUSH1 0x0 SLOAD PUSH1 0x40 DUP1 MLOAD DUP1 DUP3 ADD SWAP1 SWAP2 MSTORE PUSH1 0x2 DUP2 MSTORE PUSH2 0x333 PUSH1 0xF4 SHL PUSH1 0x20 DUP3 ADD MSTORE SWAP1 PUSH1 0x1 PUSH1 0x1 PUSH1 0xA0 SHL SUB AND CALLER EQ PUSH2 0x46D JUMPI PUSH1 0x40 MLOAD PUSH3 0x461BCD PUSH1 0xE5 SHL DUP2 MSTORE PUSH1 0x4 ADD PUSH2 0x1B9 SWAP2 SWAP1 PUSH2 0x7FC JUMP JUMPDEST POP PUSH1 0x40 DUP1 MLOAD DUP1 DUP3 ADD SWAP1 SWAP2 MSTORE PUSH1 0x2 DUP2 MSTORE PUSH2 0x3331 PUSH1 0xF0 SHL PUSH1 0x20 DUP3 ADD MSTORE PUSH1 0x1 PUSH1 0x1 PUSH1 0xA0 SHL SUB DUP3 AND PUSH2 0x4AE JUMPI PUSH1 0x40 MLOAD PUSH3 0x461BCD PUSH1 0xE5 SHL DUP2 MSTORE PUSH1 0x4 ADD PUSH2 0x1B9 SWAP2 SWAP1 PUSH2 0x7FC JUMP JUMPDEST POP PUSH1 0x1 DUP1 SLOAD PUSH1 0x1 PUSH1 0x1 PUSH1 0xA0 SHL SUB NOT AND PUSH1 0x1 PUSH1 0x1 PUSH1 0xA0 SHL SUB DUP4 AND SWAP1 DUP2 OR SWAP1 SWAP2 SSTORE PUSH1 0x40 MLOAD SWAP1 DUP2 MSTORE PUSH32 0x67235BA2E63C748A35B95C4F92A3BBC2A1389938170A5CE6C9ADD5D0B03A314A SWAP1 PUSH1 0x20 ADD PUSH2 0x222 JUMP JUMPDEST PUSH1 0x0 PUSH2 0x512 DUP4 PUSH1 0x1 PUSH1 0x1 PUSH1 0xA0 SHL SUB DUP5 AND PUSH2 0x69A JUMP JUMPDEST SWAP1 POP JUMPDEST SWAP3 SWAP2 POP POP JUMP JUMPDEST PUSH1 0x60 PUSH1 0x0 PUSH2 0x528 DUP4 PUSH2 0x6E9 JUMP JUMPDEST SWAP4 SWAP3 POP POP POP JUMP JUMPDEST PUSH1 0x0 DUP1 PUSH1 0x0 DUP1 DUP5 PUSH1 0x1 PUSH1 0x1 PUSH1 0xA0 SHL SUB AND PUSH4 0xFEAF968C PUSH1 0x40 MLOAD DUP2 PUSH4 0xFFFFFFFF AND PUSH1 0xE0 SHL DUP2 MSTORE PUSH1 0x4 ADD PUSH1 0xA0 PUSH1 0x40 MLOAD DUP1 DUP4 SUB DUP2 DUP7 GAS STATICCALL ISZERO DUP1 ISZERO PUSH2 0x573 JUMPI RETURNDATASIZE PUSH1 0x0 DUP1 RETURNDATACOPY RETURNDATASIZE PUSH1 0x0 REVERT JUMPDEST POP POP POP POP PUSH1 0x40 MLOAD RETURNDATASIZE PUSH1 0x1F NOT PUSH1 0x1F DUP3 ADD AND DUP3 ADD DUP1 PUSH1 0x40 MSTORE POP DUP2 ADD SWAP1 PUSH2 0x597 SWAP2 SWAP1 PUSH2 0x88E JUMP JUMPDEST POP SWAP3 SWAP7 POP SWAP2 SWAP4 POP SWAP2 POP PUSH2 0x5AF SWAP1 POP PUSH3 0x15180 DUP4 PUSH2 0x8F4 JUMP JUMPDEST TIMESTAMP GT ISZERO PUSH1 0x40 MLOAD DUP1 PUSH1 0x40 ADD PUSH1 0x40 MSTORE DUP1 PUSH1 0x2 DUP2 MSTORE PUSH1 0x20 ADD PUSH2 0x3431 PUSH1 0xF0 SHL DUP2 MSTORE POP SWAP1 PUSH2 0x5EB JUMPI PUSH1 0x40 MLOAD PUSH3 0x461BCD PUSH1 0xE5 SHL DUP2 MSTORE PUSH1 0x4 ADD PUSH2 0x1B9 SWAP2 SWAP1 PUSH2 0x7FC JUMP JUMPDEST POP PUSH1 0x40 DUP1 MLOAD DUP1 DUP3 ADD SWAP1 SWAP2 MSTORE PUSH1 0x2 DUP2 MSTORE PUSH2 0x1A19 PUSH1 0xF1 SHL PUSH1 0x20 DUP3 ADD MSTORE PUSH1 0x0 DUP3 SLT ISZERO PUSH2 0x627 JUMPI PUSH1 0x40 MLOAD PUSH3 0x461BCD PUSH1 0xE5 SHL DUP2 MSTORE PUSH1 0x4 ADD PUSH2 0x1B9 SWAP2 SWAP1 PUSH2 0x7FC JUMP JUMPDEST POP SWAP3 SWAP5 SWAP3 SWAP4 POP SWAP2 SWAP1 POP JUMP JUMPDEST PUSH1 0x0 PUSH1 0xFF DUP3 AND PUSH1 0x12 EQ ISZERO PUSH2 0x647 JUMPI POP DUP2 PUSH2 0x515 JUMP JUMPDEST PUSH1 0x12 PUSH1 0xFF DUP4 AND GT ISZERO PUSH2 0x67A JUMPI PUSH2 0x65E PUSH1 0x12 DUP4 PUSH2 0x90C JUMP JUMPDEST PUSH2 0x669 SWAP1 PUSH1 0xA PUSH2 0xA13 JUMP JUMPDEST PUSH2 0x673 SWAP1 DUP5 PUSH2 0xA22 JUMP JUMPDEST SWAP1 POP PUSH2 0x515 JUMP JUMPDEST PUSH2 0x685 DUP3 PUSH1 0x12 PUSH2 0x90C JUMP JUMPDEST PUSH2 0x690 SWAP1 PUSH1 0xA PUSH2 0xA13 JUMP JUMPDEST PUSH2 0x673 SWAP1 DUP5 PUSH2 0xA44 JUMP JUMPDEST PUSH1 0x0 DUP2 DUP2 MSTORE PUSH1 0x1 DUP4 ADD PUSH1 0x20 MSTORE PUSH1 0x40 DUP2 KECCAK256 SLOAD PUSH2 0x6E1 JUMPI POP DUP2 SLOAD PUSH1 0x1 DUP2 DUP2 ADD DUP5 SSTORE PUSH1 0x0 DUP5 DUP2 MSTORE PUSH1 0x20 DUP1 DUP3 KECCAK256 SWAP1 SWAP4 ADD DUP5 SWAP1 SSTORE DUP5 SLOAD DUP5 DUP3 MSTORE DUP3 DUP7 ADD SWAP1 SWAP4 MSTORE PUSH1 0x40 SWAP1 KECCAK256 SWAP2 SWAP1 SWAP2 SSTORE PUSH2 0x515 JUMP JUMPDEST POP PUSH1 0x0 PUSH2 0x515 JUMP JUMPDEST PUSH1 0x60 DUP2 PUSH1 0x0 ADD DUP1 SLOAD DUP1 PUSH1 0x20 MUL PUSH1 0x20 ADD PUSH1 0x40 MLOAD SWAP1 DUP2 ADD PUSH1 0x40 MSTORE DUP1 SWAP3 SWAP2 SWAP1 DUP2 DUP2 MSTORE PUSH1 0x20 ADD DUP3 DUP1 SLOAD DUP1 ISZERO PUSH2 0x739 JUMPI PUSH1 0x20 MUL DUP3 ADD SWAP2 SWAP1 PUSH1 0x0 MSTORE PUSH1 0x20 PUSH1 0x0 KECCAK256 SWAP1 JUMPDEST DUP2 SLOAD DUP2 MSTORE PUSH1 0x20 ADD SWAP1 PUSH1 0x1 ADD SWAP1 DUP1 DUP4 GT PUSH2 0x725 JUMPI JUMPDEST POP POP POP POP POP SWAP1 POP SWAP2 SWAP1 POP JUMP JUMPDEST DUP1 CALLDATALOAD PUSH1 0x1 PUSH1 0x1 PUSH1 0xA0 SHL SUB DUP2 AND DUP2 EQ PUSH2 0x75C JUMPI PUSH1 0x0 DUP1 REVERT JUMPDEST SWAP2 SWAP1 POP JUMP JUMPDEST PUSH1 0x0 PUSH1 0x20 DUP3 DUP5 SUB SLT ISZERO PUSH2 0x773 JUMPI PUSH1 0x0 DUP1 REVERT JUMPDEST PUSH2 0x512 DUP3 PUSH2 0x745 JUMP JUMPDEST PUSH1 0x0 DUP1 PUSH1 0x40 DUP4 DUP6 SUB SLT ISZERO PUSH2 0x78F JUMPI PUSH1 0x0 DUP1 REVERT JUMPDEST PUSH2 0x798 DUP4 PUSH2 0x745 JUMP JUMPDEST SWAP2 POP PUSH2 0x7A6 PUSH1 0x20 DUP5 ADD PUSH2 0x745 JUMP JUMPDEST SWAP1 POP SWAP3 POP SWAP3 SWAP1 POP JUMP JUMPDEST PUSH1 0x20 DUP1 DUP3 MSTORE DUP3 MLOAD DUP3 DUP3 ADD DUP2 SWAP1 MSTORE PUSH1 0x0 SWAP2 SWAP1 DUP5 DUP3 ADD SWAP1 PUSH1 0x40 DUP6 ADD SWAP1 DUP5 JUMPDEST DUP2 DUP2 LT ISZERO PUSH2 0x7F0 JUMPI DUP4 MLOAD PUSH1 0x1 PUSH1 0x1 PUSH1 0xA0 SHL SUB AND DUP4 MSTORE SWAP3 DUP5 ADD SWAP3 SWAP2 DUP5 ADD SWAP2 PUSH1 0x1 ADD PUSH2 0x7CB JUMP JUMPDEST POP SWAP1 SWAP7 SWAP6 POP POP POP POP POP POP JUMP JUMPDEST PUSH1 0x0 PUSH1 0x20 DUP1 DUP4 MSTORE DUP4 MLOAD DUP1 DUP3 DUP6 ADD MSTORE PUSH1 0x0 JUMPDEST DUP2 DUP2 LT ISZERO PUSH2 0x829 JUMPI DUP6 DUP2 ADD DUP4 ADD MLOAD DUP6 DUP3 ADD PUSH1 0x40 ADD MSTORE DUP3 ADD PUSH2 0x80D JUMP JUMPDEST DUP2 DUP2 GT ISZERO PUSH2 0x83B JUMPI PUSH1 0x0 PUSH1 0x40 DUP4 DUP8 ADD ADD MSTORE JUMPDEST POP PUSH1 0x1F ADD PUSH1 0x1F NOT AND SWAP3 SWAP1 SWAP3 ADD PUSH1 0x40 ADD SWAP4 SWAP3 POP POP POP JUMP JUMPDEST PUSH1 0x0 PUSH1 0x20 DUP3 DUP5 SUB SLT ISZERO PUSH2 0x863 JUMPI PUSH1 0x0 DUP1 REVERT JUMPDEST DUP2 MLOAD PUSH1 0xFF DUP2 AND DUP2 EQ PUSH2 0x528 JUMPI PUSH1 0x0 DUP1 REVERT JUMPDEST DUP1 MLOAD PUSH10 0xFFFFFFFFFFFFFFFFFFFF DUP2 AND DUP2 EQ PUSH2 0x75C JUMPI PUSH1 0x0 DUP1 REVERT JUMPDEST PUSH1 0x0 DUP1 PUSH1 0x0 DUP1 PUSH1 0x0 PUSH1 0xA0 DUP7 DUP9 SUB SLT ISZERO PUSH2 0x8A6 JUMPI PUSH1 0x0 DUP1 REVERT JUMPDEST PUSH2 0x8AF DUP7 PUSH2 0x874 JUMP JUMPDEST SWAP5 POP PUSH1 0x20 DUP7 ADD MLOAD SWAP4 POP PUSH1 0x40 DUP7 ADD MLOAD SWAP3 POP PUSH1 0x60 DUP7 ADD MLOAD SWAP2 POP PUSH2 0x8D2 PUSH1 0x80 DUP8 ADD PUSH2 0x874 JUMP JUMPDEST SWAP1 POP SWAP3 SWAP6 POP SWAP3 SWAP6 SWAP1 SWAP4 POP JUMP JUMPDEST PUSH4 0x4E487B71 PUSH1 0xE0 SHL PUSH1 0x0 MSTORE PUSH1 0x11 PUSH1 0x4 MSTORE PUSH1 0x24 PUSH1 0x0 REVERT JUMPDEST PUSH1 0x0 DUP3 NOT DUP3 GT ISZERO PUSH2 0x907 JUMPI PUSH2 0x907 PUSH2 0x8DE JUMP JUMPDEST POP ADD SWAP1 JUMP JUMPDEST PUSH1 0x0 PUSH1 0xFF DUP3 AND PUSH1 0xFF DUP5 AND DUP1 DUP3 LT ISZERO PUSH2 0x926 JUMPI PUSH2 0x926 PUSH2 0x8DE JUMP JUMPDEST SWAP1 SUB SWAP4 SWAP3 POP POP POP JUMP JUMPDEST PUSH1 0x1 DUP2 DUP2 JUMPDEST DUP1 DUP6 GT ISZERO PUSH2 0x96A JUMPI DUP2 PUSH1 0x0 NOT DIV DUP3 GT ISZERO PUSH2 0x950 JUMPI PUSH2 0x950 PUSH2 0x8DE JUMP JUMPDEST DUP1 DUP6 AND ISZERO PUSH2 0x95D JUMPI SWAP2 DUP2 MUL SWAP2 JUMPDEST SWAP4 DUP5 SHR SWAP4 SWAP1 DUP1 MUL SWAP1 PUSH2 0x934 JUMP JUMPDEST POP SWAP3 POP SWAP3 SWAP1 POP JUMP JUMPDEST PUSH1 0x0 DUP3 PUSH2 0x981 JUMPI POP PUSH1 0x1 PUSH2 0x515 JUMP JUMPDEST DUP2 PUSH2 0x98E JUMPI POP PUSH1 0x0 PUSH2 0x515 JUMP JUMPDEST DUP2 PUSH1 0x1 DUP2 EQ PUSH2 0x9A4 JUMPI PUSH1 0x2 DUP2 EQ PUSH2 0x9AE JUMPI PUSH2 0x9CA JUMP JUMPDEST PUSH1 0x1 SWAP2 POP POP PUSH2 0x515 JUMP JUMPDEST PUSH1 0xFF DUP5 GT ISZERO PUSH2 0x9BF JUMPI PUSH2 0x9BF PUSH2 0x8DE JUMP JUMPDEST POP POP PUSH1 0x1 DUP3 SHL PUSH2 0x515 JUMP JUMPDEST POP PUSH1 0x20 DUP4 LT PUSH2 0x133 DUP4 LT AND PUSH1 0x4E DUP5 LT PUSH1 0xB DUP5 LT AND OR ISZERO PUSH2 0x9ED JUMPI POP DUP2 DUP2 EXP PUSH2 0x515 JUMP JUMPDEST PUSH2 0x9F7 DUP4 DUP4 PUSH2 0x92F JUMP JUMPDEST DUP1 PUSH1 0x0 NOT DIV DUP3 GT ISZERO PUSH2 0xA0B JUMPI PUSH2 0xA0B PUSH2 0x8DE JUMP JUMPDEST MUL SWAP4 SWAP3 POP POP POP JUMP JUMPDEST PUSH1 0x0 PUSH2 0x512 PUSH1 0xFF DUP5 AND DUP4 PUSH2 0x972 JUMP JUMPDEST PUSH1 0x0 DUP3 PUSH2 0xA3F JUMPI PUSH4 0x4E487B71 PUSH1 0xE0 SHL PUSH1 0x0 MSTORE PUSH1 0x12 PUSH1 0x4 MSTORE PUSH1 0x24 PUSH1 0x0 REVERT JUMPDEST POP DIV SWAP1 JUMP JUMPDEST PUSH1 0x0 DUP2 PUSH1 0x0 NOT DIV DUP4 GT DUP3 ISZERO ISZERO AND ISZERO PUSH2 0xA5E JUMPI PUSH2 0xA5E PUSH2 0x8DE JUMP JUMPDEST POP MUL SWAP1 JUMP INVALID LOG2 PUSH5 0x6970667358 0x22 SLT KECCAK256 EXTCODEHASH 0xC2 0x4F SWAP15 COINBASE 0xB8 0xC5 BALANCE XOR 0x23 0x4F PUSH25 0x4FEFD36A177B0D97505FAD826E998ADE1B9035F764736F6C63 NUMBER STOP ADDMOD EXP STOP CALLER ","sha1":"c2ba6d0ed31701c9c853989401512a5780fca856","source":"// SPDX-License-Identifier: LicenseRef-Gyro-1.0\n// for information on licensing please see the README in the GitHub repository <https://github.com/gyrostable/core-protocol>.\npragma solidity ^0.8.4;\n\nimport \"./BaseChainLinkOracle.sol\";\n\nimport \"../../libraries/Errors.sol\";\nimport \"../../libraries/DecimalScale.sol\";\n\ncontract ChainlinkPriceOracle is BaseChainlinkPriceOracle {\n    using DecimalScale for uint256;\n    using EnumerableSet for EnumerableSet.AddressSet;\n\n    event FeedUpdated(address indexed asset, address indexed previousFeed, address indexed newFeed);\n\n    constructor(address _governor) BaseChainlinkPriceOracle(_governor) {}\n\n    /// @inheritdoc IUSDPriceOracle\n    function getPriceUSD(address asset) external view override returns (uint256) {\n        address feed = feeds[asset];\n        require(feed != address(0), Errors.ASSET_NOT_SUPPORTED);\n        (, uint256 price, ) = _getLatestRoundData(feed);\n        return price.scaleFrom(AggregatorV2V3Interface(feed).decimals());\n    }\n\n    /// @notice Allows to set Chainlink feeds\n    /// This can only be called by governance\n    function setFeed(address asset, address feed) external virtual governanceOnly {\n        address previousFeed = feeds[asset];\n        require(feed != previousFeed, Errors.INVALID_ARGUMENT);\n        _supportedAssets.add(asset);\n        feeds[asset] = feed;\n        emit FeedUpdated(asset, previousFeed, feed);\n    }\n}\n","sourcePath":"contracts/oracles/ChainLinkPriceOracle.sol","type":"contract","deployment":{"address":"0x3acFdE13B9C2Fea1E637990956F519f43a21A459","chainid":"137","blockHeight":36758380}}