{"abi":[{"anonymous":false,"inputs":[{"indexed":true,"internalType":"string","name":"assetName","type":"string"},{"indexed":true,"internalType":"address","name":"previousAddress","type":"address"},{"indexed":true,"internalType":"address","name":"newAddress","type":"address"}],"name":"AssetAddressUpdated","type":"event"},{"anonymous":false,"inputs":[{"indexed":false,"internalType":"address","name":"oldGovernor","type":"address"},{"indexed":false,"internalType":"address","name":"newGovernor","type":"address"}],"name":"GovernorChanged","type":"event"},{"anonymous":false,"inputs":[{"indexed":true,"internalType":"address","name":"asset","type":"address"}],"name":"StableAssetAdded","type":"event"},{"anonymous":false,"inputs":[{"indexed":true,"internalType":"address","name":"asset","type":"address"}],"name":"StableAssetRemoved","type":"event"},{"inputs":[{"internalType":"address","name":"asset","type":"address"}],"name":"addStableAsset","outputs":[],"stateMutability":"nonpayable","type":"function"},{"inputs":[{"internalType":"address","name":"newGovernor","type":"address"}],"name":"changeGovernor","outputs":[],"stateMutability":"nonpayable","type":"function"},{"inputs":[{"internalType":"string","name":"assetName","type":"string"}],"name":"getAssetAddress","outputs":[{"internalType":"address","name":"","type":"address"}],"stateMutability":"view","type":"function"},{"inputs":[],"name":"getRegisteredAssetAddresses","outputs":[{"internalType":"address[]","name":"","type":"address[]"}],"stateMutability":"view","type":"function"},{"inputs":[],"name":"getRegisteredAssetNames","outputs":[{"internalType":"bytes32[]","name":"","type":"bytes32[]"}],"stateMutability":"view","type":"function"},{"inputs":[],"name":"getStableAssets","outputs":[{"internalType":"address[]","name":"","type":"address[]"}],"stateMutability":"view","type":"function"},{"inputs":[],"name":"governor","outputs":[{"internalType":"address","name":"","type":"address"}],"stateMutability":"view","type":"function"},{"inputs":[{"internalType":"address","name":"assetAddress","type":"address"}],"name":"isAssetAddressRegistered","outputs":[{"internalType":"bool","name":"","type":"bool"}],"stateMutability":"view","type":"function"},{"inputs":[{"internalType":"string","name":"assetName","type":"string"}],"name":"isAssetNameRegistered","outputs":[{"internalType":"bool","name":"","type":"bool"}],"stateMutability":"view","type":"function"},{"inputs":[{"internalType":"address","name":"assetAddress","type":"address"}],"name":"isAssetStable","outputs":[{"internalType":"bool","name":"","type":"bool"}],"stateMutability":"view","type":"function"},{"inputs":[{"internalType":"string","name":"assetName","type":"string"}],"name":"removeAsset","outputs":[],"stateMutability":"nonpayable","type":"function"},{"inputs":[{"internalType":"address","name":"asset","type":"address"}],"name":"removeStableAsset","outputs":[],"stateMutability":"nonpayable","type":"function"},{"inputs":[{"internalType":"string","name":"assetName","type":"string"},{"internalType":"address","name":"assetAddress","type":"address"}],"name":"setAssetAddress","outputs":[],"stateMutability":"nonpayable","type":"function"}],"bytecode":"608060405234801561001057600080fd5b50600080546001600160a01b0319163390811782556040805192835260208301919091527fde4b3f61490b74c0ed6237523974fe299126bbbf8a8a7482fd220104c59b0c84910160405180910390a1610f128061006e6000396000f3fe608060405234801561001057600080fd5b50600436106100cf5760003560e01c8063759af9ec1161008c578063c6a052b611610066578063c6a052b6146101a5578063e4c0aaf4146101b8578063f41092de146101cb578063f804c0c8146101de57600080fd5b8063759af9ec1461016c5780638b46c4fd1461017f578063a5c7b3841461019257600080fd5b80630c340a24146100d457806310ec08781461010457806336daa731146101195780634976c5881461012e5780636df5d2d3146101515780637307ae5514610159575b600080fd5b6000546100e7906001600160a01b031681565b6040516001600160a01b0390911681526020015b60405180910390f35b610117610112366004610b72565b6101f3565b005b6101216102ca565b6040516100fb9190610b8d565b61014161013c366004610b72565b6102db565b60405190151581526020016100fb565b6101216102ee565b6100e7610167366004610bda565b6102fa565b61011761017a366004610cef565b610367565b61014161018d366004610b72565b61046e565b6101176101a0366004610d2c565b61047b565b6101176101b3366004610b72565b610662565b6101176101c6366004610b72565b610730565b6101416101d9366004610bda565b6107d7565b6101e6610818565b6040516100fb9190610d7a565b600054604080518082019091526002815261033360f41b6020820152906001600160a01b031633146102415760405162461bcd60e51b81526004016102389190610de2565b60405180910390fd5b5061024d600482610824565b60405180604001604052806002815260200161034360f41b815250906102865760405162461bcd60e51b81526004016102389190610de2565b50610292600682610849565b506040516001600160a01b038216907f93266109223f3ffe4999eeedd7026e74a3ba153a9b782165be501bcfbdccd3a990600090a250565b60606102d6600461085e565b905090565b60006102e8600683610824565b92915050565b60606102d6600661085e565b6000806001848460405161030f929190610e15565b908152604080519182900360209081018320548383019092526002835261034360f41b908301526001600160a01b031691508161035f5760405162461bcd60e51b81526004016102389190610de2565b509392505050565b600054604080518082019091526002815261033360f41b6020820152906001600160a01b031633146103ac5760405162461bcd60e51b81526004016102389190610de2565b5060006001826040516103bf9190610e25565b908152604080519182900360209081018320548383019092526002835261034360f41b908301526001600160a01b031691508161040f5760405162461bcd60e51b81526004016102389190610de2565b506001826040516104209190610e25565b90815260405190819003602001902080546001600160a01b031916905561045161044983610e41565b600290610905565b5061045d600482610911565b50610469600682610911565b505050565b60006102e8600483610824565b600054604080518082019091526002815261033360f41b6020820152906001600160a01b031633146104c05760405162461bcd60e51b81526004016102389190610de2565b50602082511060405180604001604052806002815260200161333160f01b815250906104ff5760405162461bcd60e51b81526004016102389190610de2565b50604080518082019091526002815261333160f01b60208201526001600160a01b0382166105405760405162461bcd60e51b81526004016102389190610de2565b5060006001836040516105539190610e25565b908152604080519182900360209081018320548383019092526002835261333160f01b908301526001600160a01b03908116925083168214156105a95760405162461bcd60e51b81526004016102389190610de2565b50816001846040516105bb9190610e25565b90815260405190819003602001902080546001600160a01b03929092166001600160a01b03199092169190911790556105fe6105f684610e41565b600290610926565b5061060a600483610849565b50816001600160a01b0316816001600160a01b03168460405161062d9190610e25565b604051908190038120907fbae65703f0aeb3db2f7b7f07b34b9cf2f9dde13c561a9e3423915de548dd20e390600090a4505050565b600054604080518082019091526002815261033360f41b6020820152906001600160a01b031633146106a75760405162461bcd60e51b81526004016102389190610de2565b506106b3600682610824565b60405180604001604052806002815260200161034360f41b815250906106ec5760405162461bcd60e51b81526004016102389190610de2565b506106f8600682610911565b506040516001600160a01b038216907f02d765d86e62553c49c4853f47990fbb8cf7713f511ac332855aaa6b02bebd3690600090a250565b600054604080518082019091526002815261033360f41b6020820152906001600160a01b031633146107755760405162461bcd60e51b81526004016102389190610de2565b50600080546001600160a01b038381166001600160a01b031983168117909355604080519190921680825260208201939093527fde4b3f61490b74c0ed6237523974fe299126bbbf8a8a7482fd220104c59b0c84910160405180910390a15050565b6000806001600160a01b0316600184846040516107f5929190610e15565b908152604051908190036020019020546001600160a01b03161415905092915050565b60606102d66002610932565b6001600160a01b038116600090815260018301602052604081205415155b9392505050565b6000610842836001600160a01b0384166109cc565b6060600061086b83610a1b565b905060008167ffffffffffffffff81111561088857610888610c4c565b6040519080825280602002602001820160405280156108b1578160200160208202803683370190505b50905060005b8281101561035f576108c98582610a25565b8282815181106108db576108db610e68565b6001600160a01b0390921660209283029190910190910152806108fd81610e94565b9150506108b7565b60006108428383610a31565b6000610842836001600160a01b038416610a31565b600061084283836109cc565b6060600061093f83610a1b565b905060008167ffffffffffffffff81111561095c5761095c610c4c565b604051908082528060200260200182016040528015610985578160200160208202803683370190505b50905060005b8281101561035f5761099d8582610b24565b8282815181106109af576109af610e68565b6020908102919091010152806109c481610e94565b91505061098b565b6000818152600183016020526040812054610a13575081546001818101845560008481526020808220909301849055845484825282860190935260409020919091556102e8565b5060006102e8565b60006102e8825490565b60006108428383610b2c565b60008181526001830160205260408120548015610b1a576000610a55600183610eaf565b8554909150600090610a6990600190610eaf565b9050818114610ace576000866000018281548110610a8957610a89610e68565b9060005260206000200154905080876000018481548110610aac57610aac610e68565b6000918252602080832090910192909255918252600188019052604090208390555b8554869080610adf57610adf610ec6565b6001900381819060005260206000200160009055905585600101600086815260200190815260200160002060009055600193505050506102e8565b60009150506102e8565b600061084283835b6000826000018281548110610b4357610b43610e68565b9060005260206000200154905092915050565b80356001600160a01b0381168114610b6d57600080fd5b919050565b600060208284031215610b8457600080fd5b61084282610b56565b6020808252825182820181905260009190848201906040850190845b81811015610bce5783516001600160a01b031683529284019291840191600101610ba9565b50909695505050505050565b60008060208385031215610bed57600080fd5b823567ffffffffffffffff80821115610c0557600080fd5b818501915085601f830112610c1957600080fd5b813581811115610c2857600080fd5b866020828501011115610c3a57600080fd5b60209290920196919550909350505050565b634e487b7160e01b600052604160045260246000fd5b600082601f830112610c7357600080fd5b813567ffffffffffffffff80821115610c8e57610c8e610c4c565b604051601f8301601f19908116603f01168101908282118183101715610cb657610cb6610c4c565b81604052838152866020858801011115610ccf57600080fd5b836020870160208301376000602085830101528094505050505092915050565b600060208284031215610d0157600080fd5b813567ffffffffffffffff811115610d1857600080fd5b610d2484828501610c62565b949350505050565b60008060408385031215610d3f57600080fd5b823567ffffffffffffffff811115610d5657600080fd5b610d6285828601610c62565b925050610d7160208401610b56565b90509250929050565b6020808252825182820181905260009190848201906040850190845b81811015610bce57835183529284019291840191600101610d96565b60005b83811015610dcd578181015183820152602001610db5565b83811115610ddc576000848401525b50505050565b6020815260008251806020840152610e01816040850160208701610db2565b601f01601f19169190910160400192915050565b8183823760009101908152919050565b60008251610e37818460208701610db2565b9190910192915050565b80516020808301519190811015610e62576000198160200360031b1b821691505b50919050565b634e487b7160e01b600052603260045260246000fd5b634e487b7160e01b600052601160045260246000fd5b6000600019821415610ea857610ea8610e7e565b5060010190565b600082821015610ec157610ec1610e7e565b500390565b634e487b7160e01b600052603160045260246000fdfea26469706673582212209fb60b50c7b9db401a92068c6a4948cc8b6399eefa9afecc150956a44567c5f764736f6c634300080a0033","bytecodeSha1":"a6f1f3980e29c7ba7f9d30d8a312eb1b735b6fcb","compiler":{"evm_version":"istanbul","optimizer":{"enabled":true,"runs":200},"version":"0.8.10+commit.fc410830"},"contractName":"AssetRegistry","language":"Solidity","natspec":{"kind":"dev","methods":{"addStableAsset(address)":{"notice":"Adds a stable asset to the registry The asset must already be registered in the registry"},"changeGovernor(address)":{"notice":"Changes the governor can only be called by the current governor"},"getAssetAddress(string)":{"notice":"Returns the address associated with the given asset name e.g. \"DAI\" -> 0x6B175474E89094C44Da98b954EedeAC495271d0F"},"getRegisteredAssetAddresses()":{"notice":"Returns a list of addresses for the registered assets"},"getRegisteredAssetNames()":{"notice":"Returns a list of names for the registered assets The asset are encoded as bytes32 (big endian) rather than string"},"getStableAssets()":{"notice":"Returns a list of addresses contaning the stable assets"},"governor()":{"notice":"Returns the current governor"},"isAssetAddressRegistered(address)":{"returns":{"_0":"true if the asset address is registered"}},"isAssetNameRegistered(string)":{"returns":{"_0":"true if the asset name is registered"}},"isAssetStable(address)":{"returns":{"_0":"true if the asset name is stable"}},"removeAsset(string)":{"notice":"Removes `assetName` from the registry"},"removeStableAsset(address)":{"notice":"Removes a stable asset to the registry The asset must already be a stable asset"},"setAssetAddress(string,address)":{"notice":"Set the `assetName` to the given `assetAddress`"}},"version":1},"opcodes":"PUSH1 0x80 PUSH1 0x40 MSTORE CALLVALUE DUP1 ISZERO PUSH2 0x10 JUMPI PUSH1 0x0 DUP1 REVERT JUMPDEST POP PUSH1 0x4 CALLDATASIZE LT PUSH2 0xCF JUMPI PUSH1 0x0 CALLDATALOAD PUSH1 0xE0 SHR DUP1 PUSH4 0x759AF9EC GT PUSH2 0x8C JUMPI DUP1 PUSH4 0xC6A052B6 GT PUSH2 0x66 JUMPI DUP1 PUSH4 0xC6A052B6 EQ PUSH2 0x1A5 JUMPI DUP1 PUSH4 0xE4C0AAF4 EQ PUSH2 0x1B8 JUMPI DUP1 PUSH4 0xF41092DE EQ PUSH2 0x1CB JUMPI DUP1 PUSH4 0xF804C0C8 EQ PUSH2 0x1DE JUMPI PUSH1 0x0 DUP1 REVERT JUMPDEST DUP1 PUSH4 0x759AF9EC EQ PUSH2 0x16C JUMPI DUP1 PUSH4 0x8B46C4FD EQ PUSH2 0x17F JUMPI DUP1 PUSH4 0xA5C7B384 EQ PUSH2 0x192 JUMPI PUSH1 0x0 DUP1 REVERT JUMPDEST DUP1 PUSH4 0xC340A24 EQ PUSH2 0xD4 JUMPI DUP1 PUSH4 0x10EC0878 EQ PUSH2 0x104 JUMPI DUP1 PUSH4 0x36DAA731 EQ PUSH2 0x119 JUMPI DUP1 PUSH4 0x4976C588 EQ PUSH2 0x12E JUMPI DUP1 PUSH4 0x6DF5D2D3 EQ PUSH2 0x151 JUMPI DUP1 PUSH4 0x7307AE55 EQ PUSH2 0x159 JUMPI JUMPDEST PUSH1 0x0 DUP1 REVERT JUMPDEST PUSH1 0x0 SLOAD PUSH2 0xE7 SWAP1 PUSH1 0x1 PUSH1 0x1 PUSH1 0xA0 SHL SUB AND DUP2 JUMP JUMPDEST PUSH1 0x40 MLOAD PUSH1 0x1 PUSH1 0x1 PUSH1 0xA0 SHL SUB SWAP1 SWAP2 AND DUP2 MSTORE PUSH1 0x20 ADD JUMPDEST PUSH1 0x40 MLOAD DUP1 SWAP2 SUB SWAP1 RETURN JUMPDEST PUSH2 0x117 PUSH2 0x112 CALLDATASIZE PUSH1 0x4 PUSH2 0xB72 JUMP JUMPDEST PUSH2 0x1F3 JUMP JUMPDEST STOP JUMPDEST PUSH2 0x121 PUSH2 0x2CA JUMP JUMPDEST PUSH1 0x40 MLOAD PUSH2 0xFB SWAP2 SWAP1 PUSH2 0xB8D JUMP JUMPDEST PUSH2 0x141 PUSH2 0x13C CALLDATASIZE PUSH1 0x4 PUSH2 0xB72 JUMP JUMPDEST PUSH2 0x2DB JUMP JUMPDEST PUSH1 0x40 MLOAD SWAP1 ISZERO ISZERO DUP2 MSTORE PUSH1 0x20 ADD PUSH2 0xFB JUMP JUMPDEST PUSH2 0x121 PUSH2 0x2EE JUMP JUMPDEST PUSH2 0xE7 PUSH2 0x167 CALLDATASIZE PUSH1 0x4 PUSH2 0xBDA JUMP JUMPDEST PUSH2 0x2FA JUMP JUMPDEST PUSH2 0x117 PUSH2 0x17A CALLDATASIZE PUSH1 0x4 PUSH2 0xCEF JUMP JUMPDEST PUSH2 0x367 JUMP JUMPDEST PUSH2 0x141 PUSH2 0x18D CALLDATASIZE PUSH1 0x4 PUSH2 0xB72 JUMP JUMPDEST PUSH2 0x46E JUMP JUMPDEST PUSH2 0x117 PUSH2 0x1A0 CALLDATASIZE PUSH1 0x4 PUSH2 0xD2C JUMP JUMPDEST PUSH2 0x47B JUMP JUMPDEST PUSH2 0x117 PUSH2 0x1B3 CALLDATASIZE PUSH1 0x4 PUSH2 0xB72 JUMP JUMPDEST PUSH2 0x662 JUMP JUMPDEST PUSH2 0x117 PUSH2 0x1C6 CALLDATASIZE PUSH1 0x4 PUSH2 0xB72 JUMP JUMPDEST PUSH2 0x730 JUMP JUMPDEST PUSH2 0x141 PUSH2 0x1D9 CALLDATASIZE PUSH1 0x4 PUSH2 0xBDA JUMP JUMPDEST PUSH2 0x7D7 JUMP JUMPDEST PUSH2 0x1E6 PUSH2 0x818 JUMP JUMPDEST PUSH1 0x40 MLOAD PUSH2 0xFB SWAP2 SWAP1 PUSH2 0xD7A JUMP JUMPDEST PUSH1 0x0 SLOAD PUSH1 0x40 DUP1 MLOAD DUP1 DUP3 ADD SWAP1 SWAP2 MSTORE PUSH1 0x2 DUP2 MSTORE PUSH2 0x333 PUSH1 0xF4 SHL PUSH1 0x20 DUP3 ADD MSTORE SWAP1 PUSH1 0x1 PUSH1 0x1 PUSH1 0xA0 SHL SUB AND CALLER EQ PUSH2 0x241 JUMPI PUSH1 0x40 MLOAD PUSH3 0x461BCD PUSH1 0xE5 SHL DUP2 MSTORE PUSH1 0x4 ADD PUSH2 0x238 SWAP2 SWAP1 PUSH2 0xDE2 JUMP JUMPDEST PUSH1 0x40 MLOAD DUP1 SWAP2 SUB SWAP1 REVERT JUMPDEST POP PUSH2 0x24D PUSH1 0x4 DUP3 PUSH2 0x824 JUMP JUMPDEST PUSH1 0x40 MLOAD DUP1 PUSH1 0x40 ADD PUSH1 0x40 MSTORE DUP1 PUSH1 0x2 DUP2 MSTORE PUSH1 0x20 ADD PUSH2 0x343 PUSH1 0xF4 SHL DUP2 MSTORE POP SWAP1 PUSH2 0x286 JUMPI PUSH1 0x40 MLOAD PUSH3 0x461BCD PUSH1 0xE5 SHL DUP2 MSTORE PUSH1 0x4 ADD PUSH2 0x238 SWAP2 SWAP1 PUSH2 0xDE2 JUMP JUMPDEST POP PUSH2 0x292 PUSH1 0x6 DUP3 PUSH2 0x849 JUMP JUMPDEST POP PUSH1 0x40 MLOAD PUSH1 0x1 PUSH1 0x1 PUSH1 0xA0 SHL SUB DUP3 AND SWAP1 PUSH32 0x93266109223F3FFE4999EEEDD7026E74A3BA153A9B782165BE501BCFBDCCD3A9 SWAP1 PUSH1 0x0 SWAP1 LOG2 POP JUMP JUMPDEST PUSH1 0x60 PUSH2 0x2D6 PUSH1 0x4 PUSH2 0x85E JUMP JUMPDEST SWAP1 POP SWAP1 JUMP JUMPDEST PUSH1 0x0 PUSH2 0x2E8 PUSH1 0x6 DUP4 PUSH2 0x824 JUMP JUMPDEST SWAP3 SWAP2 POP POP JUMP JUMPDEST PUSH1 0x60 PUSH2 0x2D6 PUSH1 0x6 PUSH2 0x85E JUMP JUMPDEST PUSH1 0x0 DUP1 PUSH1 0x1 DUP5 DUP5 PUSH1 0x40 MLOAD PUSH2 0x30F SWAP3 SWAP2 SWAP1 PUSH2 0xE15 JUMP JUMPDEST SWAP1 DUP2 MSTORE PUSH1 0x40 DUP1 MLOAD SWAP2 DUP3 SWAP1 SUB PUSH1 0x20 SWAP1 DUP2 ADD DUP4 KECCAK256 SLOAD DUP4 DUP4 ADD SWAP1 SWAP3 MSTORE PUSH1 0x2 DUP4 MSTORE PUSH2 0x343 PUSH1 0xF4 SHL SWAP1 DUP4 ADD MSTORE PUSH1 0x1 PUSH1 0x1 PUSH1 0xA0 SHL SUB AND SWAP2 POP DUP2 PUSH2 0x35F JUMPI PUSH1 0x40 MLOAD PUSH3 0x461BCD PUSH1 0xE5 SHL DUP2 MSTORE PUSH1 0x4 ADD PUSH2 0x238 SWAP2 SWAP1 PUSH2 0xDE2 JUMP JUMPDEST POP SWAP4 SWAP3 POP POP POP JUMP JUMPDEST PUSH1 0x0 SLOAD PUSH1 0x40 DUP1 MLOAD DUP1 DUP3 ADD SWAP1 SWAP2 MSTORE PUSH1 0x2 DUP2 MSTORE PUSH2 0x333 PUSH1 0xF4 SHL PUSH1 0x20 DUP3 ADD MSTORE SWAP1 PUSH1 0x1 PUSH1 0x1 PUSH1 0xA0 SHL SUB AND CALLER EQ PUSH2 0x3AC JUMPI PUSH1 0x40 MLOAD PUSH3 0x461BCD PUSH1 0xE5 SHL DUP2 MSTORE PUSH1 0x4 ADD PUSH2 0x238 SWAP2 SWAP1 PUSH2 0xDE2 JUMP JUMPDEST POP PUSH1 0x0 PUSH1 0x1 DUP3 PUSH1 0x40 MLOAD PUSH2 0x3BF SWAP2 SWAP1 PUSH2 0xE25 JUMP JUMPDEST SWAP1 DUP2 MSTORE PUSH1 0x40 DUP1 MLOAD SWAP2 DUP3 SWAP1 SUB PUSH1 0x20 SWAP1 DUP2 ADD DUP4 KECCAK256 SLOAD DUP4 DUP4 ADD SWAP1 SWAP3 MSTORE PUSH1 0x2 DUP4 MSTORE PUSH2 0x343 PUSH1 0xF4 SHL SWAP1 DUP4 ADD MSTORE PUSH1 0x1 PUSH1 0x1 PUSH1 0xA0 SHL SUB AND SWAP2 POP DUP2 PUSH2 0x40F JUMPI PUSH1 0x40 MLOAD PUSH3 0x461BCD PUSH1 0xE5 SHL DUP2 MSTORE PUSH1 0x4 ADD PUSH2 0x238 SWAP2 SWAP1 PUSH2 0xDE2 JUMP JUMPDEST POP PUSH1 0x1 DUP3 PUSH1 0x40 MLOAD PUSH2 0x420 SWAP2 SWAP1 PUSH2 0xE25 JUMP JUMPDEST SWAP1 DUP2 MSTORE PUSH1 0x40 MLOAD SWAP1 DUP2 SWAP1 SUB PUSH1 0x20 ADD SWAP1 KECCAK256 DUP1 SLOAD PUSH1 0x1 PUSH1 0x1 PUSH1 0xA0 SHL SUB NOT AND SWAP1 SSTORE PUSH2 0x451 PUSH2 0x449 DUP4 PUSH2 0xE41 JUMP JUMPDEST PUSH1 0x2 SWAP1 PUSH2 0x905 JUMP JUMPDEST POP PUSH2 0x45D PUSH1 0x4 DUP3 PUSH2 0x911 JUMP JUMPDEST POP PUSH2 0x469 PUSH1 0x6 DUP3 PUSH2 0x911 JUMP JUMPDEST POP POP POP JUMP JUMPDEST PUSH1 0x0 PUSH2 0x2E8 PUSH1 0x4 DUP4 PUSH2 0x824 JUMP JUMPDEST PUSH1 0x0 SLOAD PUSH1 0x40 DUP1 MLOAD DUP1 DUP3 ADD SWAP1 SWAP2 MSTORE PUSH1 0x2 DUP2 MSTORE PUSH2 0x333 PUSH1 0xF4 SHL PUSH1 0x20 DUP3 ADD MSTORE SWAP1 PUSH1 0x1 PUSH1 0x1 PUSH1 0xA0 SHL SUB AND CALLER EQ PUSH2 0x4C0 JUMPI PUSH1 0x40 MLOAD PUSH3 0x461BCD PUSH1 0xE5 SHL DUP2 MSTORE PUSH1 0x4 ADD PUSH2 0x238 SWAP2 SWAP1 PUSH2 0xDE2 JUMP JUMPDEST POP PUSH1 0x20 DUP3 MLOAD LT PUSH1 0x40 MLOAD DUP1 PUSH1 0x40 ADD PUSH1 0x40 MSTORE DUP1 PUSH1 0x2 DUP2 MSTORE PUSH1 0x20 ADD PUSH2 0x3331 PUSH1 0xF0 SHL DUP2 MSTORE POP SWAP1 PUSH2 0x4FF JUMPI PUSH1 0x40 MLOAD PUSH3 0x461BCD PUSH1 0xE5 SHL DUP2 MSTORE PUSH1 0x4 ADD PUSH2 0x238 SWAP2 SWAP1 PUSH2 0xDE2 JUMP JUMPDEST POP PUSH1 0x40 DUP1 MLOAD DUP1 DUP3 ADD SWAP1 SWAP2 MSTORE PUSH1 0x2 DUP2 MSTORE PUSH2 0x3331 PUSH1 0xF0 SHL PUSH1 0x20 DUP3 ADD MSTORE PUSH1 0x1 PUSH1 0x1 PUSH1 0xA0 SHL SUB DUP3 AND PUSH2 0x540 JUMPI PUSH1 0x40 MLOAD PUSH3 0x461BCD PUSH1 0xE5 SHL DUP2 MSTORE PUSH1 0x4 ADD PUSH2 0x238 SWAP2 SWAP1 PUSH2 0xDE2 JUMP JUMPDEST POP PUSH1 0x0 PUSH1 0x1 DUP4 PUSH1 0x40 MLOAD PUSH2 0x553 SWAP2 SWAP1 PUSH2 0xE25 JUMP JUMPDEST SWAP1 DUP2 MSTORE PUSH1 0x40 DUP1 MLOAD SWAP2 DUP3 SWAP1 SUB PUSH1 0x20 SWAP1 DUP2 ADD DUP4 KECCAK256 SLOAD DUP4 DUP4 ADD SWAP1 SWAP3 MSTORE PUSH1 0x2 DUP4 MSTORE PUSH2 0x3331 PUSH1 0xF0 SHL SWAP1 DUP4 ADD MSTORE PUSH1 0x1 PUSH1 0x1 PUSH1 0xA0 SHL SUB SWAP1 DUP2 AND SWAP3 POP DUP4 AND DUP3 EQ ISZERO PUSH2 0x5A9 JUMPI PUSH1 0x40 MLOAD PUSH3 0x461BCD PUSH1 0xE5 SHL DUP2 MSTORE PUSH1 0x4 ADD PUSH2 0x238 SWAP2 SWAP1 PUSH2 0xDE2 JUMP JUMPDEST POP DUP2 PUSH1 0x1 DUP5 PUSH1 0x40 MLOAD PUSH2 0x5BB SWAP2 SWAP1 PUSH2 0xE25 JUMP JUMPDEST SWAP1 DUP2 MSTORE PUSH1 0x40 MLOAD SWAP1 DUP2 SWAP1 SUB PUSH1 0x20 ADD SWAP1 KECCAK256 DUP1 SLOAD PUSH1 0x1 PUSH1 0x1 PUSH1 0xA0 SHL SUB SWAP3 SWAP1 SWAP3 AND PUSH1 0x1 PUSH1 0x1 PUSH1 0xA0 SHL SUB NOT SWAP1 SWAP3 AND SWAP2 SWAP1 SWAP2 OR SWAP1 SSTORE PUSH2 0x5FE PUSH2 0x5F6 DUP5 PUSH2 0xE41 JUMP JUMPDEST PUSH1 0x2 SWAP1 PUSH2 0x926 JUMP JUMPDEST POP PUSH2 0x60A PUSH1 0x4 DUP4 PUSH2 0x849 JUMP JUMPDEST POP DUP2 PUSH1 0x1 PUSH1 0x1 PUSH1 0xA0 SHL SUB AND DUP2 PUSH1 0x1 PUSH1 0x1 PUSH1 0xA0 SHL SUB AND DUP5 PUSH1 0x40 MLOAD PUSH2 0x62D SWAP2 SWAP1 PUSH2 0xE25 JUMP JUMPDEST PUSH1 0x40 MLOAD SWAP1 DUP2 SWAP1 SUB DUP2 KECCAK256 SWAP1 PUSH32 0xBAE65703F0AEB3DB2F7B7F07B34B9CF2F9DDE13C561A9E3423915DE548DD20E3 SWAP1 PUSH1 0x0 SWAP1 LOG4 POP POP POP JUMP JUMPDEST PUSH1 0x0 SLOAD PUSH1 0x40 DUP1 MLOAD DUP1 DUP3 ADD SWAP1 SWAP2 MSTORE PUSH1 0x2 DUP2 MSTORE PUSH2 0x333 PUSH1 0xF4 SHL PUSH1 0x20 DUP3 ADD MSTORE SWAP1 PUSH1 0x1 PUSH1 0x1 PUSH1 0xA0 SHL SUB AND CALLER EQ PUSH2 0x6A7 JUMPI PUSH1 0x40 MLOAD PUSH3 0x461BCD PUSH1 0xE5 SHL DUP2 MSTORE PUSH1 0x4 ADD PUSH2 0x238 SWAP2 SWAP1 PUSH2 0xDE2 JUMP JUMPDEST POP PUSH2 0x6B3 PUSH1 0x6 DUP3 PUSH2 0x824 JUMP JUMPDEST PUSH1 0x40 MLOAD DUP1 PUSH1 0x40 ADD PUSH1 0x40 MSTORE DUP1 PUSH1 0x2 DUP2 MSTORE PUSH1 0x20 ADD PUSH2 0x343 PUSH1 0xF4 SHL DUP2 MSTORE POP SWAP1 PUSH2 0x6EC JUMPI PUSH1 0x40 MLOAD PUSH3 0x461BCD PUSH1 0xE5 SHL DUP2 MSTORE PUSH1 0x4 ADD PUSH2 0x238 SWAP2 SWAP1 PUSH2 0xDE2 JUMP JUMPDEST POP PUSH2 0x6F8 PUSH1 0x6 DUP3 PUSH2 0x911 JUMP JUMPDEST POP PUSH1 0x40 MLOAD PUSH1 0x1 PUSH1 0x1 PUSH1 0xA0 SHL SUB DUP3 AND SWAP1 PUSH32 0x2D765D86E62553C49C4853F47990FBB8CF7713F511AC332855AAA6B02BEBD36 SWAP1 PUSH1 0x0 SWAP1 LOG2 POP JUMP JUMPDEST PUSH1 0x0 SLOAD PUSH1 0x40 DUP1 MLOAD DUP1 DUP3 ADD SWAP1 SWAP2 MSTORE PUSH1 0x2 DUP2 MSTORE PUSH2 0x333 PUSH1 0xF4 SHL PUSH1 0x20 DUP3 ADD MSTORE SWAP1 PUSH1 0x1 PUSH1 0x1 PUSH1 0xA0 SHL SUB AND CALLER EQ PUSH2 0x775 JUMPI PUSH1 0x40 MLOAD PUSH3 0x461BCD PUSH1 0xE5 SHL DUP2 MSTORE PUSH1 0x4 ADD PUSH2 0x238 SWAP2 SWAP1 PUSH2 0xDE2 JUMP JUMPDEST POP PUSH1 0x0 DUP1 SLOAD PUSH1 0x1 PUSH1 0x1 PUSH1 0xA0 SHL SUB DUP4 DUP2 AND PUSH1 0x1 PUSH1 0x1 PUSH1 0xA0 SHL SUB NOT DUP4 AND DUP2 OR SWAP1 SWAP4 SSTORE PUSH1 0x40 DUP1 MLOAD SWAP2 SWAP1 SWAP3 AND DUP1 DUP3 MSTORE PUSH1 0x20 DUP3 ADD SWAP4 SWAP1 SWAP4 MSTORE PUSH32 0xDE4B3F61490B74C0ED6237523974FE299126BBBF8A8A7482FD220104C59B0C84 SWAP2 ADD PUSH1 0x40 MLOAD DUP1 SWAP2 SUB SWAP1 LOG1 POP POP JUMP JUMPDEST PUSH1 0x0 DUP1 PUSH1 0x1 PUSH1 0x1 PUSH1 0xA0 SHL SUB AND PUSH1 0x1 DUP5 DUP5 PUSH1 0x40 MLOAD PUSH2 0x7F5 SWAP3 SWAP2 SWAP1 PUSH2 0xE15 JUMP JUMPDEST SWAP1 DUP2 MSTORE PUSH1 0x40 MLOAD SWAP1 DUP2 SWAP1 SUB PUSH1 0x20 ADD SWAP1 KECCAK256 SLOAD PUSH1 0x1 PUSH1 0x1 PUSH1 0xA0 SHL SUB AND EQ ISZERO SWAP1 POP SWAP3 SWAP2 POP POP JUMP JUMPDEST PUSH1 0x60 PUSH2 0x2D6 PUSH1 0x2 PUSH2 0x932 JUMP JUMPDEST PUSH1 0x1 PUSH1 0x1 PUSH1 0xA0 SHL SUB DUP2 AND PUSH1 0x0 SWAP1 DUP2 MSTORE PUSH1 0x1 DUP4 ADD PUSH1 0x20 MSTORE PUSH1 0x40 DUP2 KECCAK256 SLOAD ISZERO ISZERO JUMPDEST SWAP4 SWAP3 POP POP POP JUMP JUMPDEST PUSH1 0x0 PUSH2 0x842 DUP4 PUSH1 0x1 PUSH1 0x1 PUSH1 0xA0 SHL SUB DUP5 AND PUSH2 0x9CC JUMP JUMPDEST PUSH1 0x60 PUSH1 0x0 PUSH2 0x86B DUP4 PUSH2 0xA1B JUMP JUMPDEST SWAP1 POP PUSH1 0x0 DUP2 PUSH8 0xFFFFFFFFFFFFFFFF DUP2 GT ISZERO PUSH2 0x888 JUMPI PUSH2 0x888 PUSH2 0xC4C JUMP JUMPDEST PUSH1 0x40 MLOAD SWAP1 DUP1 DUP3 MSTORE DUP1 PUSH1 0x20 MUL PUSH1 0x20 ADD DUP3 ADD PUSH1 0x40 MSTORE DUP1 ISZERO PUSH2 0x8B1 JUMPI DUP2 PUSH1 0x20 ADD PUSH1 0x20 DUP3 MUL DUP1 CALLDATASIZE DUP4 CALLDATACOPY ADD SWAP1 POP JUMPDEST POP SWAP1 POP PUSH1 0x0 JUMPDEST DUP3 DUP2 LT ISZERO PUSH2 0x35F JUMPI PUSH2 0x8C9 DUP6 DUP3 PUSH2 0xA25 JUMP JUMPDEST DUP3 DUP3 DUP2 MLOAD DUP2 LT PUSH2 0x8DB JUMPI PUSH2 0x8DB PUSH2 0xE68 JUMP JUMPDEST PUSH1 0x1 PUSH1 0x1 PUSH1 0xA0 SHL SUB SWAP1 SWAP3 AND PUSH1 0x20 SWAP3 DUP4 MUL SWAP2 SWAP1 SWAP2 ADD SWAP1 SWAP2 ADD MSTORE DUP1 PUSH2 0x8FD DUP2 PUSH2 0xE94 JUMP JUMPDEST SWAP2 POP POP PUSH2 0x8B7 JUMP JUMPDEST PUSH1 0x0 PUSH2 0x842 DUP4 DUP4 PUSH2 0xA31 JUMP JUMPDEST PUSH1 0x0 PUSH2 0x842 DUP4 PUSH1 0x1 PUSH1 0x1 PUSH1 0xA0 SHL SUB DUP5 AND PUSH2 0xA31 JUMP JUMPDEST PUSH1 0x0 PUSH2 0x842 DUP4 DUP4 PUSH2 0x9CC JUMP JUMPDEST PUSH1 0x60 PUSH1 0x0 PUSH2 0x93F DUP4 PUSH2 0xA1B JUMP JUMPDEST SWAP1 POP PUSH1 0x0 DUP2 PUSH8 0xFFFFFFFFFFFFFFFF DUP2 GT ISZERO PUSH2 0x95C JUMPI PUSH2 0x95C PUSH2 0xC4C JUMP JUMPDEST PUSH1 0x40 MLOAD SWAP1 DUP1 DUP3 MSTORE DUP1 PUSH1 0x20 MUL PUSH1 0x20 ADD DUP3 ADD PUSH1 0x40 MSTORE DUP1 ISZERO PUSH2 0x985 JUMPI DUP2 PUSH1 0x20 ADD PUSH1 0x20 DUP3 MUL DUP1 CALLDATASIZE DUP4 CALLDATACOPY ADD SWAP1 POP JUMPDEST POP SWAP1 POP PUSH1 0x0 JUMPDEST DUP3 DUP2 LT ISZERO PUSH2 0x35F JUMPI PUSH2 0x99D DUP6 DUP3 PUSH2 0xB24 JUMP JUMPDEST DUP3 DUP3 DUP2 MLOAD DUP2 LT PUSH2 0x9AF JUMPI PUSH2 0x9AF PUSH2 0xE68 JUMP JUMPDEST PUSH1 0x20 SWAP1 DUP2 MUL SWAP2 SWAP1 SWAP2 ADD ADD MSTORE DUP1 PUSH2 0x9C4 DUP2 PUSH2 0xE94 JUMP JUMPDEST SWAP2 POP POP PUSH2 0x98B JUMP JUMPDEST PUSH1 0x0 DUP2 DUP2 MSTORE PUSH1 0x1 DUP4 ADD PUSH1 0x20 MSTORE PUSH1 0x40 DUP2 KECCAK256 SLOAD PUSH2 0xA13 JUMPI POP DUP2 SLOAD PUSH1 0x1 DUP2 DUP2 ADD DUP5 SSTORE PUSH1 0x0 DUP5 DUP2 MSTORE PUSH1 0x20 DUP1 DUP3 KECCAK256 SWAP1 SWAP4 ADD DUP5 SWAP1 SSTORE DUP5 SLOAD DUP5 DUP3 MSTORE DUP3 DUP7 ADD SWAP1 SWAP4 MSTORE PUSH1 0x40 SWAP1 KECCAK256 SWAP2 SWAP1 SWAP2 SSTORE PUSH2 0x2E8 JUMP JUMPDEST POP PUSH1 0x0 PUSH2 0x2E8 JUMP JUMPDEST PUSH1 0x0 PUSH2 0x2E8 DUP3 SLOAD SWAP1 JUMP JUMPDEST PUSH1 0x0 PUSH2 0x842 DUP4 DUP4 PUSH2 0xB2C JUMP JUMPDEST PUSH1 0x0 DUP2 DUP2 MSTORE PUSH1 0x1 DUP4 ADD PUSH1 0x20 MSTORE PUSH1 0x40 DUP2 KECCAK256 SLOAD DUP1 ISZERO PUSH2 0xB1A JUMPI PUSH1 0x0 PUSH2 0xA55 PUSH1 0x1 DUP4 PUSH2 0xEAF JUMP JUMPDEST DUP6 SLOAD SWAP1 SWAP2 POP PUSH1 0x0 SWAP1 PUSH2 0xA69 SWAP1 PUSH1 0x1 SWAP1 PUSH2 0xEAF JUMP JUMPDEST SWAP1 POP DUP2 DUP2 EQ PUSH2 0xACE JUMPI PUSH1 0x0 DUP7 PUSH1 0x0 ADD DUP3 DUP2 SLOAD DUP2 LT PUSH2 0xA89 JUMPI PUSH2 0xA89 PUSH2 0xE68 JUMP JUMPDEST SWAP1 PUSH1 0x0 MSTORE PUSH1 0x20 PUSH1 0x0 KECCAK256 ADD SLOAD SWAP1 POP DUP1 DUP8 PUSH1 0x0 ADD DUP5 DUP2 SLOAD DUP2 LT PUSH2 0xAAC JUMPI PUSH2 0xAAC PUSH2 0xE68 JUMP JUMPDEST PUSH1 0x0 SWAP2 DUP3 MSTORE PUSH1 0x20 DUP1 DUP4 KECCAK256 SWAP1 SWAP2 ADD SWAP3 SWAP1 SWAP3 SSTORE SWAP2 DUP3 MSTORE PUSH1 0x1 DUP9 ADD SWAP1 MSTORE PUSH1 0x40 SWAP1 KECCAK256 DUP4 SWAP1 SSTORE JUMPDEST DUP6 SLOAD DUP7 SWAP1 DUP1 PUSH2 0xADF JUMPI PUSH2 0xADF PUSH2 0xEC6 JUMP JUMPDEST PUSH1 0x1 SWAP1 SUB DUP2 DUP2 SWAP1 PUSH1 0x0 MSTORE PUSH1 0x20 PUSH1 0x0 KECCAK256 ADD PUSH1 0x0 SWAP1 SSTORE SWAP1 SSTORE DUP6 PUSH1 0x1 ADD PUSH1 0x0 DUP7 DUP2 MSTORE PUSH1 0x20 ADD SWAP1 DUP2 MSTORE PUSH1 0x20 ADD PUSH1 0x0 KECCAK256 PUSH1 0x0 SWAP1 SSTORE PUSH1 0x1 SWAP4 POP POP POP POP PUSH2 0x2E8 JUMP JUMPDEST PUSH1 0x0 SWAP2 POP POP PUSH2 0x2E8 JUMP JUMPDEST PUSH1 0x0 PUSH2 0x842 DUP4 DUP4 JUMPDEST PUSH1 0x0 DUP3 PUSH1 0x0 ADD DUP3 DUP2 SLOAD DUP2 LT PUSH2 0xB43 JUMPI PUSH2 0xB43 PUSH2 0xE68 JUMP JUMPDEST SWAP1 PUSH1 0x0 MSTORE PUSH1 0x20 PUSH1 0x0 KECCAK256 ADD SLOAD SWAP1 POP SWAP3 SWAP2 POP POP JUMP JUMPDEST DUP1 CALLDATALOAD PUSH1 0x1 PUSH1 0x1 PUSH1 0xA0 SHL SUB DUP2 AND DUP2 EQ PUSH2 0xB6D JUMPI PUSH1 0x0 DUP1 REVERT JUMPDEST SWAP2 SWAP1 POP JUMP JUMPDEST PUSH1 0x0 PUSH1 0x20 DUP3 DUP5 SUB SLT ISZERO PUSH2 0xB84 JUMPI PUSH1 0x0 DUP1 REVERT JUMPDEST PUSH2 0x842 DUP3 PUSH2 0xB56 JUMP JUMPDEST PUSH1 0x20 DUP1 DUP3 MSTORE DUP3 MLOAD DUP3 DUP3 ADD DUP2 SWAP1 MSTORE PUSH1 0x0 SWAP2 SWAP1 DUP5 DUP3 ADD SWAP1 PUSH1 0x40 DUP6 ADD SWAP1 DUP5 JUMPDEST DUP2 DUP2 LT ISZERO PUSH2 0xBCE JUMPI DUP4 MLOAD PUSH1 0x1 PUSH1 0x1 PUSH1 0xA0 SHL SUB AND DUP4 MSTORE SWAP3 DUP5 ADD SWAP3 SWAP2 DUP5 ADD SWAP2 PUSH1 0x1 ADD PUSH2 0xBA9 JUMP JUMPDEST POP SWAP1 SWAP7 SWAP6 POP POP POP POP POP POP JUMP JUMPDEST PUSH1 0x0 DUP1 PUSH1 0x20 DUP4 DUP6 SUB SLT ISZERO PUSH2 0xBED JUMPI PUSH1 0x0 DUP1 REVERT JUMPDEST DUP3 CALLDATALOAD PUSH8 0xFFFFFFFFFFFFFFFF DUP1 DUP3 GT ISZERO PUSH2 0xC05 JUMPI PUSH1 0x0 DUP1 REVERT JUMPDEST DUP2 DUP6 ADD SWAP2 POP DUP6 PUSH1 0x1F DUP4 ADD SLT PUSH2 0xC19 JUMPI PUSH1 0x0 DUP1 REVERT JUMPDEST DUP2 CALLDATALOAD DUP2 DUP2 GT ISZERO PUSH2 0xC28 JUMPI PUSH1 0x0 DUP1 REVERT JUMPDEST DUP7 PUSH1 0x20 DUP3 DUP6 ADD ADD GT ISZERO PUSH2 0xC3A JUMPI PUSH1 0x0 DUP1 REVERT JUMPDEST PUSH1 0x20 SWAP3 SWAP1 SWAP3 ADD SWAP7 SWAP2 SWAP6 POP SWAP1 SWAP4 POP POP POP POP JUMP JUMPDEST PUSH4 0x4E487B71 PUSH1 0xE0 SHL PUSH1 0x0 MSTORE PUSH1 0x41 PUSH1 0x4 MSTORE PUSH1 0x24 PUSH1 0x0 REVERT JUMPDEST PUSH1 0x0 DUP3 PUSH1 0x1F DUP4 ADD SLT PUSH2 0xC73 JUMPI PUSH1 0x0 DUP1 REVERT JUMPDEST DUP2 CALLDATALOAD PUSH8 0xFFFFFFFFFFFFFFFF DUP1 DUP3 GT ISZERO PUSH2 0xC8E JUMPI PUSH2 0xC8E PUSH2 0xC4C JUMP JUMPDEST PUSH1 0x40 MLOAD PUSH1 0x1F DUP4 ADD PUSH1 0x1F NOT SWAP1 DUP2 AND PUSH1 0x3F ADD AND DUP2 ADD SWAP1 DUP3 DUP3 GT DUP2 DUP4 LT OR ISZERO PUSH2 0xCB6 JUMPI PUSH2 0xCB6 PUSH2 0xC4C JUMP JUMPDEST DUP2 PUSH1 0x40 MSTORE DUP4 DUP2 MSTORE DUP7 PUSH1 0x20 DUP6 DUP9 ADD ADD GT ISZERO PUSH2 0xCCF JUMPI PUSH1 0x0 DUP1 REVERT JUMPDEST DUP4 PUSH1 0x20 DUP8 ADD PUSH1 0x20 DUP4 ADD CALLDATACOPY PUSH1 0x0 PUSH1 0x20 DUP6 DUP4 ADD ADD MSTORE DUP1 SWAP5 POP POP POP POP POP SWAP3 SWAP2 POP POP JUMP JUMPDEST PUSH1 0x0 PUSH1 0x20 DUP3 DUP5 SUB SLT ISZERO PUSH2 0xD01 JUMPI PUSH1 0x0 DUP1 REVERT JUMPDEST DUP2 CALLDATALOAD PUSH8 0xFFFFFFFFFFFFFFFF DUP2 GT ISZERO PUSH2 0xD18 JUMPI PUSH1 0x0 DUP1 REVERT JUMPDEST PUSH2 0xD24 DUP5 DUP3 DUP6 ADD PUSH2 0xC62 JUMP JUMPDEST SWAP5 SWAP4 POP POP POP POP JUMP JUMPDEST PUSH1 0x0 DUP1 PUSH1 0x40 DUP4 DUP6 SUB SLT ISZERO PUSH2 0xD3F JUMPI PUSH1 0x0 DUP1 REVERT JUMPDEST DUP3 CALLDATALOAD PUSH8 0xFFFFFFFFFFFFFFFF DUP2 GT ISZERO PUSH2 0xD56 JUMPI PUSH1 0x0 DUP1 REVERT JUMPDEST PUSH2 0xD62 DUP6 DUP3 DUP7 ADD PUSH2 0xC62 JUMP JUMPDEST SWAP3 POP POP PUSH2 0xD71 PUSH1 0x20 DUP5 ADD PUSH2 0xB56 JUMP JUMPDEST SWAP1 POP SWAP3 POP SWAP3 SWAP1 POP JUMP JUMPDEST PUSH1 0x20 DUP1 DUP3 MSTORE DUP3 MLOAD DUP3 DUP3 ADD DUP2 SWAP1 MSTORE PUSH1 0x0 SWAP2 SWAP1 DUP5 DUP3 ADD SWAP1 PUSH1 0x40 DUP6 ADD SWAP1 DUP5 JUMPDEST DUP2 DUP2 LT ISZERO PUSH2 0xBCE JUMPI DUP4 MLOAD DUP4 MSTORE SWAP3 DUP5 ADD SWAP3 SWAP2 DUP5 ADD SWAP2 PUSH1 0x1 ADD PUSH2 0xD96 JUMP JUMPDEST PUSH1 0x0 JUMPDEST DUP4 DUP2 LT ISZERO PUSH2 0xDCD JUMPI DUP2 DUP2 ADD MLOAD DUP4 DUP3 ADD MSTORE PUSH1 0x20 ADD PUSH2 0xDB5 JUMP JUMPDEST DUP4 DUP2 GT ISZERO PUSH2 0xDDC JUMPI PUSH1 0x0 DUP5 DUP5 ADD MSTORE JUMPDEST POP POP POP POP JUMP JUMPDEST PUSH1 0x20 DUP2 MSTORE PUSH1 0x0 DUP3 MLOAD DUP1 PUSH1 0x20 DUP5 ADD MSTORE PUSH2 0xE01 DUP2 PUSH1 0x40 DUP6 ADD PUSH1 0x20 DUP8 ADD PUSH2 0xDB2 JUMP JUMPDEST PUSH1 0x1F ADD PUSH1 0x1F NOT AND SWAP2 SWAP1 SWAP2 ADD PUSH1 0x40 ADD SWAP3 SWAP2 POP POP JUMP JUMPDEST DUP2 DUP4 DUP3 CALLDATACOPY PUSH1 0x0 SWAP2 ADD SWAP1 DUP2 MSTORE SWAP2 SWAP1 POP JUMP JUMPDEST PUSH1 0x0 DUP3 MLOAD PUSH2 0xE37 DUP2 DUP5 PUSH1 0x20 DUP8 ADD PUSH2 0xDB2 JUMP JUMPDEST SWAP2 SWAP1 SWAP2 ADD SWAP3 SWAP2 POP POP JUMP JUMPDEST DUP1 MLOAD PUSH1 0x20 DUP1 DUP4 ADD MLOAD SWAP2 SWAP1 DUP2 LT ISZERO PUSH2 0xE62 JUMPI PUSH1 0x0 NOT DUP2 PUSH1 0x20 SUB PUSH1 0x3 SHL SHL DUP3 AND SWAP2 POP JUMPDEST POP SWAP2 SWAP1 POP JUMP JUMPDEST PUSH4 0x4E487B71 PUSH1 0xE0 SHL PUSH1 0x0 MSTORE PUSH1 0x32 PUSH1 0x4 MSTORE PUSH1 0x24 PUSH1 0x0 REVERT JUMPDEST PUSH4 0x4E487B71 PUSH1 0xE0 SHL PUSH1 0x0 MSTORE PUSH1 0x11 PUSH1 0x4 MSTORE PUSH1 0x24 PUSH1 0x0 REVERT JUMPDEST PUSH1 0x0 PUSH1 0x0 NOT DUP3 EQ ISZERO PUSH2 0xEA8 JUMPI PUSH2 0xEA8 PUSH2 0xE7E JUMP JUMPDEST POP PUSH1 0x1 ADD SWAP1 JUMP JUMPDEST PUSH1 0x0 DUP3 DUP3 LT ISZERO PUSH2 0xEC1 JUMPI PUSH2 0xEC1 PUSH2 0xE7E JUMP JUMPDEST POP SUB SWAP1 JUMP JUMPDEST PUSH4 0x4E487B71 PUSH1 0xE0 SHL PUSH1 0x0 MSTORE PUSH1 0x31 PUSH1 0x4 MSTORE PUSH1 0x24 PUSH1 0x0 REVERT INVALID LOG2 PUSH5 0x6970667358 0x22 SLT KECCAK256 SWAP16 0xB6 SIGNEXTEND POP 0xC7 0xB9 0xDB BLOCKHASH BYTE SWAP3 MOD DUP13 PUSH11 0x4948CC8B6399EEFA9AFECC ISZERO MULMOD JUMP LOG4 GASLIMIT PUSH8 0xC5F764736F6C6343 STOP ADDMOD EXP STOP CALLER ","sha1":"73ec8013c09c21f84e52600ea60294d318933039","source":"// SPDX-License-Identifier: UNLICENSED\npragma solidity ^0.8.4;\n\nimport \"@openzeppelin/contracts/utils/structs/EnumerableSet.sol\";\n\nimport \"../../interfaces/IAssetRegistry.sol\";\n\nimport \"../../libraries/Errors.sol\";\nimport \"../../libraries/EnumerableExtensions.sol\";\n\nimport \"../auth/Governable.sol\";\n\ncontract AssetRegistry is IAssetRegistry, Governable {\n    using EnumerableSet for EnumerableSet.AddressSet;\n    using EnumerableSet for EnumerableSet.Bytes32Set;\n    using EnumerableExtensions for EnumerableSet.Bytes32Set;\n    using EnumerableExtensions for EnumerableSet.AddressSet;\n\n    mapping(string => address) internal assets;\n\n    EnumerableSet.Bytes32Set internal assetNames;\n    EnumerableSet.AddressSet internal assetAddresses;\n    EnumerableSet.AddressSet internal stableAssetAddresses;\n\n    /// @inheritdoc IAssetRegistry\n    function isAssetNameRegistered(string calldata assetName)\n        external\n        view\n        override\n        returns (bool)\n    {\n        return assets[assetName] != address(0);\n    }\n\n    /// @inheritdoc IAssetRegistry\n    function isAssetAddressRegistered(address assetAddress) external view override returns (bool) {\n        return assetAddresses.contains(assetAddress);\n    }\n\n    /// @inheritdoc IAssetRegistry\n    function isAssetStable(address assetAddress) external view returns (bool) {\n        return stableAssetAddresses.contains(assetAddress);\n    }\n\n    /// @inheritdoc IAssetRegistry\n    function getRegisteredAssetNames() external view returns (bytes32[] memory) {\n        return assetNames.toArray();\n    }\n\n    /// @inheritdoc IAssetRegistry\n    function getRegisteredAssetAddresses() external view returns (address[] memory) {\n        return assetAddresses.toArray();\n    }\n\n    /// @inheritdoc IAssetRegistry\n    function getStableAssets() external view returns (address[] memory) {\n        return stableAssetAddresses.toArray();\n    }\n\n    /// @inheritdoc IAssetRegistry\n    function getAssetAddress(string calldata assetName) external view returns (address) {\n        address assetAddress = assets[assetName];\n        require(assetAddress != address(0), Errors.ASSET_NOT_SUPPORTED);\n        return assetAddress;\n    }\n\n    /// @inheritdoc IAssetRegistry\n    function setAssetAddress(string memory assetName, address assetAddress)\n        external\n        governanceOnly\n    {\n        require(bytes(assetName).length < 32, Errors.INVALID_ARGUMENT);\n        require(assetAddress != address(0), Errors.INVALID_ARGUMENT);\n\n        address previousAddress = assets[assetName];\n        require(previousAddress != assetAddress, Errors.INVALID_ARGUMENT);\n        assets[assetName] = assetAddress;\n\n        assetNames.add(bytes32(bytes(assetName)));\n        assetAddresses.add(assetAddress);\n\n        emit AssetAddressUpdated(assetName, previousAddress, assetAddress);\n    }\n\n    /// @inheritdoc IAssetRegistry\n    function addStableAsset(address asset) external governanceOnly {\n        require(assetAddresses.contains(asset), Errors.ASSET_NOT_SUPPORTED);\n        stableAssetAddresses.add(asset);\n        emit StableAssetAdded(asset);\n    }\n\n    /// @inheritdoc IAssetRegistry\n    function removeStableAsset(address asset) external governanceOnly {\n        require(stableAssetAddresses.contains(asset), Errors.ASSET_NOT_SUPPORTED);\n        stableAssetAddresses.remove(asset);\n        emit StableAssetRemoved(asset);\n    }\n\n    /// @inheritdoc IAssetRegistry\n    function removeAsset(string memory assetName) external governanceOnly {\n        address assetAddress = assets[assetName];\n        require(assetAddress != address(0), Errors.ASSET_NOT_SUPPORTED);\n        delete assets[assetName];\n        assetNames.remove(bytes32(bytes(assetName)));\n        assetAddresses.remove(assetAddress);\n        stableAssetAddresses.remove(assetAddress);\n    }\n}\n","sourcePath":"contracts/oracles/AssetRegistry.sol","type":"contract","deployment":{"address":"0x3D6BF45D806ac832094d7BFC63D903806aaE047D","chainid":"137","blockHeight":26855802}}