{"abi":[{"inputs":[{"internalType":"address","name":"_governor","type":"address"},{"internalType":"address","name":"_gyroConfig","type":"address"},{"internalType":"address","name":"_rewardToken","type":"address"},{"internalType":"uint256","name":"_withdrawalWaitDuration","type":"uint256"},{"internalType":"uint256","name":"_maxWithdrawalWaitDuration","type":"uint256"},{"internalType":"uint256","name":"_maxTriggerCR","type":"uint256"}],"stateMutability":"nonpayable","type":"constructor","name":"constructor"},{"anonymous":false,"inputs":[{"indexed":true,"internalType":"address","name":"beneficiary","type":"address"},{"indexed":false,"internalType":"uint256","name":"amount","type":"uint256"}],"name":"Claim","type":"event"},{"anonymous":false,"inputs":[{"indexed":false,"internalType":"address","name":"beneficiary","type":"address"},{"indexed":false,"internalType":"uint256","name":"adjustedAmount","type":"uint256"},{"indexed":false,"internalType":"uint256","name":"amount","type":"uint256"}],"name":"Deposit","type":"event"},{"anonymous":false,"inputs":[{"indexed":false,"internalType":"address","name":"newGovernor","type":"address"}],"name":"GovernorChangeRequested","type":"event"},{"anonymous":false,"inputs":[{"indexed":false,"internalType":"address","name":"oldGovernor","type":"address"},{"indexed":false,"internalType":"address","name":"newGovernor","type":"address"}],"name":"GovernorChanged","type":"event"},{"anonymous":false,"inputs":[{"indexed":false,"internalType":"uint256","name":"tokensBurned","type":"uint256"},{"indexed":false,"internalType":"bool","name":"isFullBurn","type":"bool"},{"indexed":false,"internalType":"uint256","name":"newAdjustmentFactor","type":"uint256"}],"name":"RecoveryExecuted","type":"event"},{"anonymous":false,"inputs":[{"indexed":true,"internalType":"address","name":"account","type":"address"},{"indexed":false,"internalType":"uint256","name":"amount","type":"uint256"}],"name":"Stake","type":"event"},{"anonymous":false,"inputs":[{"indexed":false,"internalType":"uint256","name":"amount","type":"uint256"},{"indexed":false,"internalType":"uint256","name":"endTime","type":"uint256"}],"name":"StartMining","type":"event"},{"anonymous":false,"inputs":[],"name":"StopMining","type":"event"},{"anonymous":false,"inputs":[{"indexed":true,"internalType":"address","name":"account","type":"address"},{"indexed":false,"internalType":"uint256","name":"amount","type":"uint256"}],"name":"Unstake","type":"event"},{"anonymous":false,"inputs":[{"indexed":false,"internalType":"uint256","name":"id","type":"uint256"},{"indexed":false,"internalType":"address","name":"to","type":"address"},{"indexed":false,"internalType":"uint256","name":"adjustedAmount","type":"uint256"},{"indexed":false,"internalType":"uint256","name":"amount","type":"uint256"}],"name":"WithdrawalCompleted","type":"event"},{"anonymous":false,"inputs":[{"indexed":false,"internalType":"uint256","name":"id","type":"uint256"},{"indexed":false,"internalType":"address","name":"to","type":"address"},{"indexed":false,"internalType":"uint256","name":"withdrawalAt","type":"uint256"},{"indexed":false,"internalType":"uint256","name":"adjustedAmount","type":"uint256"},{"indexed":false,"internalType":"uint256","name":"amount","type":"uint256"}],"name":"WithdrawalQueued","type":"event"},{"inputs":[],"name":"acceptGovernance","outputs":[],"stateMutability":"nonpayable","type":"function"},{"inputs":[{"internalType":"uint256","name":"adjustedAmount","type":"uint256"}],"name":"adjustedAmountToAmount","outputs":[{"internalType":"uint256","name":"amount","type":"uint256"}],"stateMutability":"view","type":"function"},{"inputs":[],"name":"adjustmentFactor","outputs":[{"internalType":"uint256","name":"","type":"uint256"}],"stateMutability":"view","type":"function"},{"inputs":[{"internalType":"uint256","name":"amount","type":"uint256"}],"name":"amountToAdjustedAmount","outputs":[{"internalType":"uint256","name":"adjustedAmount","type":"uint256"}],"stateMutability":"view","type":"function"},{"inputs":[{"internalType":"address","name":"account","type":"address"}],"name":"balanceAdjustedOf","outputs":[{"internalType":"uint256","name":"adjustedAmount","type":"uint256"}],"stateMutability":"view","type":"function"},{"inputs":[{"internalType":"address","name":"account","type":"address"}],"name":"balanceOf","outputs":[{"internalType":"uint256","name":"","type":"uint256"}],"stateMutability":"view","type":"function"},{"inputs":[{"internalType":"address","name":"newGovernor","type":"address"}],"name":"changeGovernor","outputs":[],"stateMutability":"nonpayable","type":"function"},{"inputs":[],"name":"checkAndRun","outputs":[{"internalType":"bool","name":"","type":"bool"}],"stateMutability":"nonpayable","type":"function"},{"inputs":[{"components":[{"internalType":"uint256","name":"totalUSDValue","type":"uint256"},{"components":[{"internalType":"address","name":"vault","type":"address"},{"internalType":"uint8","name":"decimals","type":"uint8"},{"internalType":"address","name":"underlying","type":"address"},{"internalType":"uint256","name":"price","type":"uint256"},{"components":[{"internalType":"uint256","name":"initialPrice","type":"uint256"},{"internalType":"uint256","name":"initialWeight","type":"uint256"},{"internalType":"uint256","name":"shortFlowMemory","type":"uint256"},{"internalType":"uint256","name":"shortFlowThreshold","type":"uint256"}],"internalType":"struct DataTypes.PersistedVaultMetadata","name":"persistedMetadata","type":"tuple"},{"internalType":"uint256","name":"reserveBalance","type":"uint256"},{"internalType":"uint256","name":"currentWeight","type":"uint256"},{"internalType":"uint256","name":"idealWeight","type":"uint256"},{"components":[{"internalType":"address","name":"tokenAddress","type":"address"},{"internalType":"bool","name":"isStable","type":"bool"},{"internalType":"uint256","name":"price","type":"uint256"}],"internalType":"struct DataTypes.PricedToken[]","name":"pricedTokens","type":"tuple[]"}],"internalType":"struct DataTypes.VaultInfo[]","name":"vaults","type":"tuple[]"}],"internalType":"struct DataTypes.ReserveState","name":"reserveState","type":"tuple"}],"name":"checkAndRun","outputs":[{"internalType":"bool","name":"","type":"bool"}],"stateMutability":"nonpayable","type":"function"},{"inputs":[],"name":"claimRewards","outputs":[{"internalType":"uint256","name":"","type":"uint256"}],"stateMutability":"nonpayable","type":"function"},{"inputs":[{"internalType":"address","name":"beneficiary","type":"address"}],"name":"claimableRewards","outputs":[{"internalType":"uint256","name":"","type":"uint256"}],"stateMutability":"view","type":"function"},{"inputs":[{"internalType":"uint256","name":"amount","type":"uint256"}],"name":"deposit","outputs":[],"stateMutability":"nonpayable","type":"function"},{"inputs":[{"internalType":"address","name":"beneficiary","type":"address"},{"internalType":"uint256","name":"amount","type":"uint256"}],"name":"depositFor","outputs":[],"stateMutability":"nonpayable","type":"function"},{"inputs":[],"name":"globalCheckpoint","outputs":[],"stateMutability":"nonpayable","type":"function"},{"inputs":[],"name":"governor","outputs":[{"internalType":"address","name":"","type":"address"}],"stateMutability":"view","type":"function"},{"inputs":[],"name":"gydToken","outputs":[{"internalType":"contract IGYDToken","name":"","type":"address"}],"stateMutability":"view","type":"function"},{"inputs":[],"name":"gyroConfig","outputs":[{"internalType":"contract IGyroConfig","name":"","type":"address"}],"stateMutability":"view","type":"function"},{"inputs":[{"internalType":"uint256","name":"amount","type":"uint256"}],"name":"initiateWithdrawal","outputs":[{"internalType":"uint256","name":"withdrawalId","type":"uint256"}],"stateMutability":"nonpayable","type":"function"},{"inputs":[{"internalType":"uint256","name":"adjustedAmount","type":"uint256"}],"name":"initiateWithdrawalAdjusted","outputs":[{"internalType":"uint256","name":"withdrawalId","type":"uint256"}],"stateMutability":"nonpayable","type":"function"},{"inputs":[{"internalType":"address","name":"_user","type":"address"}],"name":"listPendingWithdrawals","outputs":[{"components":[{"internalType":"uint256","name":"createdFullBurnId","type":"uint256"},{"internalType":"uint256","name":"adjustedAmount","type":"uint256"},{"internalType":"uint256","name":"withdrawableAt","type":"uint256"},{"internalType":"address","name":"to","type":"address"}],"internalType":"struct GydRecovery.PendingWithdrawal[]","name":"","type":"tuple[]"}],"stateMutability":"view","type":"function"},{"inputs":[],"name":"maxTriggerCR","outputs":[{"internalType":"uint256","name":"","type":"uint256"}],"stateMutability":"view","type":"function"},{"inputs":[],"name":"maxWithdrawalWaitDuration","outputs":[{"internalType":"uint256","name":"","type":"uint256"}],"stateMutability":"view","type":"function"},{"inputs":[],"name":"pendingGovernor","outputs":[{"internalType":"address","name":"","type":"address"}],"stateMutability":"view","type":"function"},{"inputs":[],"name":"rewardToken","outputs":[{"internalType":"contract IERC20","name":"","type":"address"}],"stateMutability":"view","type":"function"},{"inputs":[],"name":"rewardsEmissionEndTime","outputs":[{"internalType":"uint256","name":"","type":"uint256"}],"stateMutability":"view","type":"function"},{"inputs":[],"name":"rewardsEmissionRate","outputs":[{"internalType":"uint256","name":"","type":"uint256"}],"stateMutability":"view","type":"function"},{"inputs":[{"internalType":"uint256","name":"_duration","type":"uint256"}],"name":"setWithdrawalWaitDuration","outputs":[],"stateMutability":"nonpayable","type":"function"},{"inputs":[{"components":[{"internalType":"uint256","name":"totalUSDValue","type":"uint256"},{"components":[{"internalType":"address","name":"vault","type":"address"},{"internalType":"uint8","name":"decimals","type":"uint8"},{"internalType":"address","name":"underlying","type":"address"},{"internalType":"uint256","name":"price","type":"uint256"},{"components":[{"internalType":"uint256","name":"initialPrice","type":"uint256"},{"internalType":"uint256","name":"initialWeight","type":"uint256"},{"internalType":"uint256","name":"shortFlowMemory","type":"uint256"},{"internalType":"uint256","name":"shortFlowThreshold","type":"uint256"}],"internalType":"struct DataTypes.PersistedVaultMetadata","name":"persistedMetadata","type":"tuple"},{"internalType":"uint256","name":"reserveBalance","type":"uint256"},{"internalType":"uint256","name":"currentWeight","type":"uint256"},{"internalType":"uint256","name":"idealWeight","type":"uint256"},{"components":[{"internalType":"address","name":"tokenAddress","type":"address"},{"internalType":"bool","name":"isStable","type":"bool"},{"internalType":"uint256","name":"price","type":"uint256"}],"internalType":"struct DataTypes.PricedToken[]","name":"pricedTokens","type":"tuple[]"}],"internalType":"struct DataTypes.VaultInfo[]","name":"vaults","type":"tuple[]"}],"internalType":"struct DataTypes.ReserveState","name":"reserveState","type":"tuple"}],"name":"shouldRun","outputs":[{"internalType":"bool","name":"","type":"bool"}],"stateMutability":"view","type":"function"},{"inputs":[],"name":"shouldRun","outputs":[{"internalType":"bool","name":"","type":"bool"}],"stateMutability":"view","type":"function"},{"inputs":[{"internalType":"address","name":"account","type":"address"}],"name":"stakedBalanceOf","outputs":[{"internalType":"uint256","name":"","type":"uint256"}],"stateMutability":"view","type":"function"},{"inputs":[{"internalType":"address","name":"rewardsFrom","type":"address"},{"internalType":"uint256","name":"amount","type":"uint256"},{"internalType":"uint256","name":"endTime","type":"uint256"}],"name":"startMining","outputs":[],"stateMutability":"nonpayable","type":"function"},{"inputs":[{"internalType":"address","name":"reimbursementTo","type":"address"}],"name":"stopMining","outputs":[],"stateMutability":"nonpayable","type":"function"},{"inputs":[{"internalType":"address","name":"account","type":"address"}],"name":"totalBalanceAdjustedOf","outputs":[{"internalType":"uint256","name":"adjustedAmount","type":"uint256"}],"stateMutability":"view","type":"function"},{"inputs":[{"internalType":"address","name":"account","type":"address"}],"name":"totalBalanceOf","outputs":[{"internalType":"uint256","name":"amount","type":"uint256"}],"stateMutability":"view","type":"function"},{"inputs":[],"name":"totalStaked","outputs":[{"internalType":"uint256","name":"","type":"uint256"}],"stateMutability":"view","type":"function"},{"inputs":[],"name":"totalUnderlying","outputs":[{"internalType":"uint256","name":"","type":"uint256"}],"stateMutability":"view","type":"function"},{"inputs":[{"internalType":"address","name":"account","type":"address"}],"name":"userCheckpoint","outputs":[],"stateMutability":"nonpayable","type":"function"},{"inputs":[{"internalType":"uint256","name":"withdrawalId","type":"uint256"}],"name":"withdraw","outputs":[{"internalType":"uint256","name":"amount","type":"uint256"}],"stateMutability":"nonpayable","type":"function"},{"inputs":[],"name":"withdrawalWaitDuration","outputs":[{"internalType":"uint256","name":"","type":"uint256"}],"stateMutability":"view","type":"function"}],"bytecode":"6101206040526001600d55670de0b6b3a7640000600e553480156200002357600080fd5b5060405162002fea38038062002fea8339810160408190526200004691620001ef565b600080546001600160a01b0319166001600160a01b0388169081178255604080519283526020830191909152859188917fde4b3f61490b74c0ed6237523974fe299126bbbf8a8a7482fd220104c59b0c84910160405180910390a150426004556001600160a01b03908116608052851660e0819052620000d2906200014a602090811b620017b617901c565b6001600160a01b03166101005281831115620001345760405162461bcd60e51b815260206004820181905260248201527f696e76616c6964207769746864726177616c2077616974206475726174696f6e604482015260640160405180910390fd5b60129290925560a05260c052506200027a915050565b6040516321f8a72160e01b8152704759445f544f4b454e5f4144445245535360781b60048201526000906001600160a01b038316906321f8a72190602401602060405180830381865afa158015620001a6573d6000803e3d6000fd5b505050506040513d601f19601f82011682018060405250810190620001cc919062000255565b92915050565b80516001600160a01b0381168114620001ea57600080fd5b919050565b60008060008060008060c087890312156200020957600080fd5b6200021487620001d2565b95506200022460208801620001d2565b94506200023460408801620001d2565b9350606087015192506080870151915060a087015190509295509295509295565b6000602082840312156200026857600080fd5b6200027382620001d2565b9392505050565b60805160a05160c05160e05161010051612cad6200033d6000396000818161055401528181610ba301528181610c8701528181610f170152818161146a01528181611ad9015261201201526000818161037901528181610739015281816107bf01528181610df201528181610fe2015281816110ee0152611a4e015260008181610450015261105101526000818161031101526116f401526000818161052d01528181611cd201528181611d5901528181611e150152611e990152612cad6000f3fe608060405234801561001057600080fd5b506004361061023d5760003560e01c8063713f6d001161013b578063c24ab3bb116100b8578063e4c0aaf41161007c578063e4c0aaf4146104ef578063e9314c7314610502578063f107089614610515578063f7c618c114610528578063fbf600281461054f57600080fd5b8063c24ab3bb14610498578063c70920bc146104b8578063cb6741ed146104c0578063dc01f60d146104c9578063e3056a34146104dc57600080fd5b806393396677116100ff578063933966771461043057806397a04d5a14610443578063994c711c1461044b578063b07b709b14610472578063b6b55f251461048557600080fd5b8063713f6d00146103e657806376c252cb146103f95780637c7a85531461040c578063817b1cd21461041f578063838e99581461042857600080fd5b80632e1a7d4d116101c95780634a62c9fb1161018d5780634a62c9fb1461039b5780634b0ee02a146103a45780634ba9699e146103b757806369998ceb146103ca57806370a08231146103d357600080fd5b80632e1a7d4d146103335780632f4f21e214610346578063372500ab14610359578063372b7cb01461036157806344bbdb551461037457600080fd5b80631575e6da116102105780631575e6da146102b957806316765391146102d15780631ac40e66146102fa578063238efcbc1461030457806329c32a301461030c57600080fd5b80630a9ea0b7146102425780630c340a241461026857806312edde5e14610293578063131796e1146102a6575b600080fd5b6102556102503660046123bf565b610576565b6040519081526020015b60405180910390f35b60005461027b906001600160a01b031681565b6040516001600160a01b03909116815260200161025f565b6102556102a13660046123bf565b6106fb565b6102556102b43660046123bf565b61071b565b6102c1610732565b604051901515815260200161025f565b6102556102df3660046123fd565b6001600160a01b031660009081526008602052604090205490565b610302610862565b005b6103026108d8565b6102557f000000000000000000000000000000000000000000000000000000000000000081565b6102556103413660046123bf565b610988565b61030261035436600461241a565b610c7a565b610255610d52565b6102c161036f36600461265b565b610deb565b61027b7f000000000000000000000000000000000000000000000000000000000000000081565b610255600a5481565b6102556103b23660046123fd565b610e79565b6103026103c53660046127e8565b610e90565b61025560125481565b6102556103e13660046123fd565b610ee6565b6102c16103f436600461265b565b610ef7565b6102556104073660046123fd565b611084565b61025561041a3660046123bf565b6110cd565b61025560025481565b6102c16110e4565b61025561043e3660046123fd565b611185565b6102556111d8565b6102557f000000000000000000000000000000000000000000000000000000000000000081565b6103026104803660046123fd565b6111f1565b6103026104933660046123bf565b6112fd565b6104ab6104a63660046123fd565b61130a565b60405161025f919061281d565b610255611452565b610255600e5481565b6102556104d73660046123fd565b6114dd565b60015461027b906001600160a01b031681565b6103026104fd3660046123fd565b6115d7565b6103026105103660046123bf565b6116ac565b6103026105233660046123fd565b611767565b61027b7f000000000000000000000000000000000000000000000000000000000000000081565b61027b7f000000000000000000000000000000000000000000000000000000000000000081565b600061058133611084565b8211156105ce5760405162461bcd60e51b81526020600482015260166024820152756e6f7420656e6f75676820746f20776974686472617760501b60448201526064015b60405180910390fd5b6105d83383611836565b50601180549060006105e9836128a0565b9091555060408051608081018252600d5481526020810184905260125460009282019061061690426128b9565b8152336020918201526000848152600f82526040808220845181558484015160018201558482015160028201556060850151600390910180546001600160a01b0319166001600160a01b039092169182179055825260109092522090915061067e90836118c8565b507f303e206423354d1b684563fe13a4dc15469665cebd160dcfee461b7af63fe21a8282606001518360400151866106c1600e54896118d490919063ffffffff16565b604080519586526001600160a01b039094166020860152928401919091526060830152608082015260a0015b60405180910390a150919050565b6000610715610250600e54846118f590919063ffffffff16565b92915050565b6000610715600e54836118f590919063ffffffff16565b60006107667f00000000000000000000000000000000000000000000000000000000000000006001600160a01b0316611968565b6001600160a01b031663c2c4c5c16040518163ffffffff1660e01b8152600401600060405180830381600087803b1580156107a057600080fd5b505af11580156107b4573d6000803e3d6000fd5b5050505060006107ec7f00000000000000000000000000000000000000000000000000000000000000006001600160a01b03166119b7565b6001600160a01b031663ef5bac256040518163ffffffff1660e01b8152600401600060405180830381865afa158015610829573d6000803e3d6000fd5b505050506040513d6000823e601f3d908101601f1916820160405261085191908101906129bf565b905061085c81611a06565b91505090565b6000600454426108729190612b39565b60025490915080156108d0576000826108896111d8565b6108939190612b4c565b905061089f81836118f5565b600360008282546108b091906128b9565b9250508190555080600560008282546108c991906128b9565b9091555050505b505042600455565b600154604080518082019091526002815261033360f41b6020820152906001600160a01b0316331461091d5760405162461bcd60e51b81526004016105c59190612b87565b5060008054600180546001600160a01b03198084166001600160a01b03808416919091179095551690556040805192909116808352336020840152917fde4b3f61490b74c0ed6237523974fe299126bbbf8a8a7482fd220104c59b0c8491015b60405180910390a150565b6000818152600f60209081526040808320815160808101835281548152600182015493810193909352600281015491830191909152600301546001600160a01b0316606082018190523314610a2a5760405162461bcd60e51b815260206004820152602260248201527f6d61746368696e67207769746864726177616c20646f6573206e6f74206578696044820152611cdd60f21b60648201526084016105c5565b4281604001511115610a755760405162461bcd60e51b81526020600482015260146024820152736e6f742079657420776974686472617761626c6560601b60448201526064016105c5565b600d5481511015610b37576000838152600f60209081526040808320838155600181018490556002810184905560030180546001600160a01b031916905560608401516001600160a01b0316835260109091529020610ad49084611b8e565b50606080820151604080518681526001600160a01b0390921660208301526000908201819052918101919091527fcd7211ce885c480c8874fe7e69383ad2d60ec453bdb417e7f45222bf44e472669060800160405180910390a150600092915050565b8060200151600b600083606001516001600160a01b03166001600160a01b031681526020019081526020016000206001016000828254610b779190612b39565b9091555050600e546020820151610b8d916118d4565b6060820151909250610bca906001600160a01b037f0000000000000000000000000000000000000000000000000000000000000000169084611b9a565b6000838152600f60209081526040808320838155600181018490556002810184905560030180546001600160a01b031916905560608401516001600160a01b0316835260109091529020610c1e9084611b8e565b50606081015160208201516040517fcd7211ce885c480c8874fe7e69383ad2d60ec453bdb417e7f45222bf44e47266926106ed92879287909384526001600160a01b039290921660208401526040830152606082015260800190565b610caf6001600160a01b037f000000000000000000000000000000000000000000000000000000000000000016333084611bfd565b6000610cc6600e54836118f590919063ffffffff16565b9050610cd28382611c3b565b6001600160a01b0383166000908152600b602052604081206001018054839290610cfd9084906128b9565b9091555050604080516001600160a01b0385168152602081018390529081018390527f90890809c654f11d6e72a28fa60149770a0d11ec6c92319d6ceb2bb0a4ea1a15906060015b60405180910390a1505050565b6000610d5d336111f1565b3360009081526007602052604081205490819003610d7d57600091505090565b3360008181526007602052604080822091909155517f47cee97cb7acd717b3c0aa1435d004cd5b3c8c57d70dbceb4e4458bbd60e39d490610dc19084815260200190565b60405180910390a28060056000828254610ddb9190612b39565b9091555061085c90503382611cc3565b6000610e1f7f00000000000000000000000000000000000000000000000000000000000000006001600160a01b0316611cff565b6001600160a01b0316336001600160a01b031614610e705760405162461bcd60e51b815260206004820152600e60248201526d1b9bdd08185d5d1a1bdc9a5e995960921b60448201526064016105c5565b61071582611a06565b6000610715600e54610e8a84611185565b906118d4565b600054604080518082019091526002815261033360f41b6020820152906001600160a01b03163314610ed55760405162461bcd60e51b81526004016105c59190612b87565b50610ee1838383611d44565b505050565b6000610715600e54610e8a84611084565b6000610f01611452565b600003610f1057506000919050565b6000610f9f7f00000000000000000000000000000000000000000000000000000000000000006001600160a01b03166318160ddd6040518163ffffffff1660e01b8152600401602060405180830381865afa158015610f73573d6000803e3d6000fd5b505050506040513d601f19601f82011682018060405250810190610f979190612bba565b8451906118f5565b60405163bd02d0f560e01b81527f4759445f5245434f564552595f545249474745525f435200000000000000000060048201529091506000906001600160a01b037f0000000000000000000000000000000000000000000000000000000000000000169063bd02d0f590602401602060405180830381865afa158015611029573d6000803e3d6000fd5b505050506040513d601f19601f8201168201806040525081019061104d9190612bba565b90507f00000000000000000000000000000000000000000000000000000000000000008082111561107c578091505b501192915050565b600d546001600160a01b0382166000908152600b60205260408120549091116110c5576001600160a01b038216600090815260086020526040902054610715565b600092915050565b6000610715600e54836118d490919063ffffffff16565b600061118061111b7f00000000000000000000000000000000000000000000000000000000000000006001600160a01b03166119b7565b6001600160a01b031663ef5bac256040518163ffffffff1660e01b8152600401600060405180830381865afa158015611158573d6000803e3d6000fd5b505050506040513d6000823e601f3d908101601f191682016040526103f491908101906129bf565b905090565b6001600160a01b0381166000908152600b602090815260408083208151808301909252805480835260019091015492820192909252600d549091106111ce5780602001516111d1565b60005b9392505050565b6000600a544211156111ea5750600090565b5060095490565b6111f9610862565b6001600160a01b0381166000908152600b60209081526040808320805460089093529083205490928281036112365750600354600d548455611280565b600d5483101561127b57506000828152600c602090815260408083205460018701849055600d5487556001600160a01b03881684526008909252822091909155611280565b506003545b6001600160a01b0385166000908152600660205260409020546112ae906112a79083612b39565b83906118d4565b6001600160a01b038616600090815260076020526040812080549091906112d69084906128b9565b90915550506001600160a01b03909416600090815260066020526040902093909355505050565b6113073382610c7a565b50565b6001600160a01b038116600090815260106020526040812060609161132e82611dd3565b67ffffffffffffffff81111561134657611346612446565b6040519080825280602002602001820160405280156113ab57816020015b611398604051806080016040528060008152602001600081526020016000815260200160006001600160a01b031681525090565b8152602001906001900390816113645790505b50905060005b6113ba83611dd3565b81101561144a57600f60006113cf8584611ddd565b81526020808201929092526040908101600020815160808101835281548152600182015493810193909352600281015491830191909152600301546001600160a01b03166060820152825183908390811061142c5761142c612bd3565b60200260200101819052508080611442906128a0565b9150506113b1565b509392505050565b6040516370a0823160e01b81523060048201526000907f00000000000000000000000000000000000000000000000000000000000000006001600160a01b0316906370a0823190602401602060405180830381865afa1580156114b9573d6000803e3d6000fd5b505050506040513d601f19601f820116820180604052508101906111809190612bba565b6001600160a01b0381166000908152600b60205260408120548181158015906115075750600d5482105b1561152157506000818152600c6020526040902054611566565b506003546002541561156657611559600254600454426115419190612b39565b6115496111d8565b6115539190612b4c565b906118f5565b61156390826128b9565b90505b6001600160a01b0384166000908152600660205260409020546115ac9061158d9083612b39565b6001600160a01b038616600090815260086020526040902054906118d4565b6001600160a01b0385166000908152600760205260409020546115cf91906128b9565b949350505050565b600054604080518082019091526002815261033360f41b6020820152906001600160a01b0316331461161c5760405162461bcd60e51b81526004016105c59190612b87565b50604080518082019091526002815261333160f01b60208201526001600160a01b03821661165d5760405162461bcd60e51b81526004016105c59190612b87565b50600180546001600160a01b0319166001600160a01b0383169081179091556040519081527f67235ba2e63c748a35b95c4f92a3bbc2a1389938170a5ce6c9add5d0b03a314a9060200161097d565b600054604080518082019091526002815261033360f41b6020820152906001600160a01b031633146116f15760405162461bcd60e51b81526004016105c59190612b87565b507f00000000000000000000000000000000000000000000000000000000000000008111156117625760405162461bcd60e51b815260206004820181905260248201527f696e76616c6964207769746864726177616c2077616974206475726174696f6e60448201526064016105c5565b601255565b600054604080518082019091526002815261033360f41b6020820152906001600160a01b031633146117ac5760405162461bcd60e51b81526004016105c59190612b87565b5061130781611de9565b6040516321f8a72160e01b8152704759445f544f4b454e5f4144445245535360781b60048201526000906001600160a01b038316906321f8a721906024015b602060405180830381865afa158015611812573d6000803e3d6000fd5b505050506040513d601f19601f820116820180604052508101906107159190612be9565b61183f826111f1565b6001600160a01b03821660009081526008602052604081208054839290611867908490612b39565b9250508190555080600260008282546118809190612b39565b90915550506040518181526001600160a01b038316907f85082129d87b2fe11527cb1b3b7a520aeb5aa6913f88a3d8757fe40d1db02fdd906020015b60405180910390a25050565b60006111d18383611ef2565b6000806118e18385612b4c565b90506115cf670de0b6b3a764000082612c06565b604080518082019091526002815261323560f01b60208201526000908261192f5760405162461bcd60e51b81526004016105c59190612b87565b508260000361194057506000610715565b6000611954670de0b6b3a764000085612b4c565b90506119608382612c06565b915050610715565b6040516321f8a72160e01b81527f53544557415244534849505f494e435f4144445245535300000000000000000060048201526000906001600160a01b038316906321f8a721906024016117f5565b6040516321f8a72160e01b81527f524553455256455f4d414e414745525f4144445245535300000000000000000060048201526000906001600160a01b038316906321f8a721906024016117f5565b6000611a1182610ef7565b611a1d57506000919050565b60405163bd02d0f560e01b81527523aca22fa922a1a7ab22a92cafaa20a923a2aa2fa1a960511b60048201526000907f00000000000000000000000000000000000000000000000000000000000000006001600160a01b03169063bd02d0f590602401602060405180830381865afa158015611a9d573d6000803e3d6000fd5b505050506040513d601f19601f82011682018060405250810190611ac19190612bba565b8351909150600090611ad390836118f5565b905060007f00000000000000000000000000000000000000000000000000000000000000006001600160a01b03166318160ddd6040518163ffffffff1660e01b8152600401602060405180830381865afa158015611b35573d6000803e3d6000fd5b505050506040513d601f19601f82011682018060405250810190611b599190612bba565b9050808210611b6d57506000949350505050565b6000611b798383612b39565b9050611b8481611f41565b9695505050505050565b60006111d183836120c5565b6040516001600160a01b038316602482015260448101829052610ee190849063a9059cbb60e01b906064015b60408051601f198184030181529190526020810180516001600160e01b03166001600160e01b0319909316929092179091526121b8565b6040516001600160a01b0380851660248301528316604482015260648101829052611c359085906323b872dd60e01b90608401611bc6565b50505050565b611c44826111f1565b8060026000828254611c5691906128b9565b90915550506001600160a01b03821660009081526008602052604081208054839290611c839084906128b9565b90915550506040518181526001600160a01b038316907febedb8b3c678666e7f36970bc8f57abf6d8fa2e828c0da91ea5b75bf68ed101a906020016118bc565b6000611cf96001600160a01b037f0000000000000000000000000000000000000000000000000000000000000000168484611b9a565b50919050565b6040516321f8a72160e01b8152724d4f54484552424f4152445f4144445245535360681b60048201526000906001600160a01b038316906321f8a721906024016117f5565b611d4c610862565b611d816001600160a01b037f000000000000000000000000000000000000000000000000000000000000000016843085611bfd565b611d8b4282612b39565b611d959083612c06565b600955600a81905560408051838152602081018390527f76554fac4477e8876b3de3af392cf374cf4e9de02ae78fbade2373107381fe509101610d45565b6000610715825490565b60006111d1838361228a565b611df1610862565b6005546040516370a0823160e01b8152306004820152600091906001600160a01b037f000000000000000000000000000000000000000000000000000000000000000016906370a0823190602401602060405180830381865afa158015611e5c573d6000803e3d6000fd5b505050506040513d601f19601f82011682018060405250810190611e809190612bba565b611e8a9190612b39565b9050611ec06001600160a01b037f0000000000000000000000000000000000000000000000000000000000000000168383611b9a565b6000600a8190556040517fe5a0e15e63edb96a15ed99a9c2a3674e2e0bd1b10b65d0223cce19a6b54e7fb19190a15050565b6000818152600183016020526040812054611f3957508154600181810184556000848152602080822090930184905584548482528286019093526040902091909155610715565b506000610715565b6000611f4b610862565b6000611f55611452565b90506000611f756112a7662386f26fc10000670de0b6b3a7640000612b39565b841080159150611fc757819350600354600c6000600d54815260200190815260200160002081905550600d60008154611fad906128a0565b90915550670de0b6b3a7640000600e556000600255611ffc565b6000611fe383611553611fda8883612b39565b600e54906118d4565b905080600003611ff857506000949350505050565b600e555b604051630852cd8d60e31b8152600481018590527f00000000000000000000000000000000000000000000000000000000000000006001600160a01b0316906342966c6890602401600060405180830381600087803b15801561205e57600080fd5b505af1158015612072573d6000803e3d6000fd5b5050600e5460408051888152851515602082015280820192909252517f37ed7585c7f773823577de180502d8778adef528b0d258e481b6e2ddd28b725c9350908190036060019150a15060019392505050565b600081815260018301602052604081205480156121ae5760006120e9600183612b39565b85549091506000906120fd90600190612b39565b905081811461216257600086600001828154811061211d5761211d612bd3565b906000526020600020015490508087600001848154811061214057612140612bd3565b6000918252602080832090910192909255918252600188019052604090208390555b855486908061217357612173612c28565b600190038181906000526020600020016000905590558560010160008681526020019081526020016000206000905560019350505050610715565b6000915050610715565b600061220d826040518060400160405280602081526020017f5361666545524332303a206c6f772d6c6576656c2063616c6c206661696c6564815250856001600160a01b03166122b49092919063ffffffff16565b805190915015610ee1578080602001905181019061222b9190612c3e565b610ee15760405162461bcd60e51b815260206004820152602a60248201527f5361666545524332303a204552433230206f7065726174696f6e20646964206e6044820152691bdd081cdd58d8d9595960b21b60648201526084016105c5565b60008260000182815481106122a1576122a1612bd3565b9060005260206000200154905092915050565b60606115cf848460008585843b61230d5760405162461bcd60e51b815260206004820152601d60248201527f416464726573733a2063616c6c20746f206e6f6e2d636f6e747261637400000060448201526064016105c5565b600080866001600160a01b031685876040516123299190612c5b565b60006040518083038185875af1925050503d8060008114612366576040519150601f19603f3d011682016040523d82523d6000602084013e61236b565b606091505b509150915061237b828286612386565b979650505050505050565b606083156123955750816111d1565b8251156123a55782518084602001fd5b8160405162461bcd60e51b81526004016105c59190612b87565b6000602082840312156123d157600080fd5b5035919050565b6001600160a01b038116811461130757600080fd5b80356123f8816123d8565b919050565b60006020828403121561240f57600080fd5b81356111d1816123d8565b6000806040838503121561242d57600080fd5b8235612438816123d8565b946020939093013593505050565b634e487b7160e01b600052604160045260246000fd5b6040516080810167ffffffffffffffff8111828210171561247f5761247f612446565b60405290565b6040516060810167ffffffffffffffff8111828210171561247f5761247f612446565b6040805190810167ffffffffffffffff8111828210171561247f5761247f612446565b604051610120810167ffffffffffffffff8111828210171561247f5761247f612446565b604051601f8201601f1916810167ffffffffffffffff8111828210171561251857612518612446565b604052919050565b600067ffffffffffffffff82111561253a5761253a612446565b5060051b60200190565b60ff8116811461130757600080fd5b80356123f881612544565b60006080828403121561257057600080fd5b61257861245c565b90508135815260208201356020820152604082013560408201526060820135606082015292915050565b801515811461130757600080fd5b600082601f8301126125c157600080fd5b813560206125d66125d183612520565b6124ef565b828152606092830285018201928282019190878511156125f557600080fd5b8387015b8581101561264e5781818a0312156126115760008081fd5b612619612485565b8135612624816123d8565b815281860135612633816125a2565b818701526040828101359082015284529284019281016125f9565b5090979650505050505050565b6000602080838503121561266e57600080fd5b823567ffffffffffffffff8082111561268657600080fd5b908401906040828703121561269a57600080fd5b6126a26124a8565b8235815283830135828111156126b757600080fd5b80840193505086601f8401126126cc57600080fd5b82356126da6125d182612520565b81815260059190911b840185019085810190898311156126f957600080fd5b8686015b838110156127d55780358681111561271457600080fd5b8701610180818d03601f190181131561272c57600080fd5b6127346124cb565b61273f8b84016123ed565b815261274d60408401612553565b8b82015261275d606084016123ed565b60408201526080830135606082015260a061277a8f82860161255e565b60808301526101208401359082015261014083013560c082015261016083013560e08201529082013590888211156127b25760008081fd5b6127c08e8c848601016125b0565b610100820152855250509187019187016126fd565b5095830195909552509695505050505050565b6000806000606084860312156127fd57600080fd5b8335612808816123d8565b95602085013595506040909401359392505050565b602080825282518282018190526000919060409081850190868401855b8281101561287d57815180518552868101518786015285810151868601526060908101516001600160a01b0316908501526080909301929085019060010161283a565b5091979650505050505050565b634e487b7160e01b600052601160045260246000fd5b6000600182016128b2576128b261288a565b5060010190565b808201808211156107155761071561288a565b80516123f8816123d8565b80516123f881612544565b6000608082840312156128f457600080fd5b6128fc61245c565b90508151815260208201516020820152604082015160408201526060820151606082015292915050565b600082601f83011261293757600080fd5b815160206129476125d183612520565b8281526060928302850182019282820191908785111561296657600080fd5b8387015b8581101561264e5781818a0312156129825760008081fd5b61298a612485565b8151612995816123d8565b8152818601516129a4816125a2565b8187015260408281015190820152845292840192810161296a565b600060208083850312156129d257600080fd5b825167ffffffffffffffff808211156129ea57600080fd5b90840190604082870312156129fe57600080fd5b612a066124a8565b825181528383015182811115612a1b57600080fd5b80840193505086601f840112612a3057600080fd5b8251612a3e6125d182612520565b81815260059190911b84018501908581019089831115612a5d57600080fd5b8686015b838110156127d557805186811115612a7857600080fd5b8701610180818d03601f1901811315612a9057600080fd5b612a986124cb565b612aa38b84016128cc565b8152612ab1604084016128d7565b8b820152612ac1606084016128cc565b60408201526080830151606082015260a0612ade8f8286016128e2565b60808301526101208401519082015261014083015160c082015261016083015160e0820152908201519088821115612b165760008081fd5b612b248e8c84860101612926565b61010082015285525050918701918701612a61565b818103818111156107155761071561288a565b80820281158282048414176107155761071561288a565b60005b83811015612b7e578181015183820152602001612b66565b50506000910152565b6020815260008251806020840152612ba6816040850160208701612b63565b601f01601f19169190910160400192915050565b600060208284031215612bcc57600080fd5b5051919050565b634e487b7160e01b600052603260045260246000fd5b600060208284031215612bfb57600080fd5b81516111d1816123d8565b600082612c2357634e487b7160e01b600052601260045260246000fd5b500490565b634e487b7160e01b600052603160045260246000fd5b600060208284031215612c5057600080fd5b81516111d1816125a2565b60008251612c6d818460208701612b63565b919091019291505056fea2646970667358221220c8a7107952e63b663730a0d7e58186e0d4e8246e02136cb62f8dc5089cc0435164736f6c63430008110033","bytecodeSha1":"b32001fdb7ca2dc84fda03603484c824f5856d17","compiler":{"evm_version":"london","optimizer":{"enabled":true,"runs":200},"version":"0.8.17+commit.8df45f5f"},"contractName":"GydRecovery","language":"Solidity","natspec":{"kind":"dev","methods":{"acceptGovernance()":{"notice":"Called by the pending governor to approve the change"},"balanceAdjustedOf(address)":{"notice":"Like balanceOf() but in adjusted amounts."},"balanceOf(address)":{"notice":"Balance of given account that is available for withdrawal."},"changeGovernor(address)":{"notice":"Changes the governor can only be called by the current governor"},"checkAndRun((uint256,(address,uint8,address,uint256,(uint256,uint256,uint256,uint256),uint256,uint256,uint256,(address,bool,uint256)[])[]))":{"notice":"Variant of checkAndRun() where the reserve state is passed in; only callable by Motherboard."},"checkAndRun()":{"notice":"Checks whether the reserve experiences a shortfall and the safety module should run and then runs it if so. This is called internally but can also be called by anyone.","returns":{"_0":"Whether the safety module ran."}},"claimRewards()":{"notice":"claims rewards for caller"},"claimableRewards(address)":{"notice":"returns the amount of claimable rewards by `beneficiary`"},"globalCheckpoint()":{"details":"these functions will be called internally but can typically be called by anyone to update the internal tracking state of the contract"},"governor()":{"notice":"Returns the current governor"},"initiateWithdrawalAdjusted(uint256)":{"notice":"Like initiateWithdrawal() but operates on adjusted amounts. Convenient to withdraw all funds via `initiateWithdrawalAdjusted(balanceAdjustedOf(account))` without worrying about rounding issues."},"pendingGovernor()":{"notice":"Returns the pending governor"},"rewardsEmissionEndTime()":{"notice":"time when rewards emission ends"},"rewardsEmissionRate()":{"notice":"returns the number of rewards token that will be given per second for the contract This emission will be given to all stakers in the contract proportionally to their stake"},"shouldRun((uint256,(address,uint8,address,uint256,(uint256,uint256,uint256,uint256),uint256,uint256,uint256,(address,bool,uint256)[])[]))":{"details":"Whether or not the recovery module should run and would run next time it's called."},"shouldRun()":{"notice":"Whether the reserve should run under current conditions, i.e., whether it would run if `checkAndRun()` was called."},"stakedBalanceOf(address)":{"notice":"the amount of tokens staked by `account`"},"startMining(address,uint256,uint256)":{"notice":"Deposit `amount` of the reward token from `rewardsFrom` and enable rewards until `endTime`. Typically governanceOnly. `amount` is spread evenly over the time period."},"stopMining(address)":{"notice":"Stop liquidity mining early and reimburse leftover rewards to `reimbursementTo`. This may also be needed after the mining period has ended when we had `totalStaked() == 0` for a while, where no rewards accrue."},"totalBalanceAdjustedOf(address)":{"notice":"Like `totalBalanceOf()` but in adjusted amounts."},"totalBalanceOf(address)":{"notice":"Total amount contributed of a given account, consisting of the amount available for withdrawal and the amount that has already been marked for withdrawal."},"totalStaked()":{"notice":"the total amount of tokens staked in the contract"},"totalUnderlying()":{"details":"Total amount available for burning. Includes amounts marked for withdrawal but not yet withdrawn."},"userCheckpoint(address)":{"details":"Update rewards accounting for user (see LiquidityMining.userCheckpoint()) and also update their position data in case of a full burn. It may look a bit ugly that these two things are mixed here but it's important to update them at the same time."}},"stateVariables":{"MAX_PARTIAL_BURN_FACTOR":{"details":"Max burn factor. If less than this share would be left over after burning, we do a full burn instead. This is to avoid numerical instability in the adjustment factor."}},"version":1},"opcodes":"PUSH1 0x80 PUSH1 0x40 MSTORE CALLVALUE DUP1 ISZERO PUSH2 0x10 JUMPI PUSH1 0x0 DUP1 REVERT JUMPDEST POP PUSH1 0x4 CALLDATASIZE LT PUSH2 0x23D JUMPI PUSH1 0x0 CALLDATALOAD PUSH1 0xE0 SHR DUP1 PUSH4 0x713F6D00 GT PUSH2 0x13B JUMPI DUP1 PUSH4 0xC24AB3BB GT PUSH2 0xB8 JUMPI DUP1 PUSH4 0xE4C0AAF4 GT PUSH2 0x7C JUMPI DUP1 PUSH4 0xE4C0AAF4 EQ PUSH2 0x4EF JUMPI DUP1 PUSH4 0xE9314C73 EQ PUSH2 0x502 JUMPI DUP1 PUSH4 0xF1070896 EQ PUSH2 0x515 JUMPI DUP1 PUSH4 0xF7C618C1 EQ PUSH2 0x528 JUMPI DUP1 PUSH4 0xFBF60028 EQ PUSH2 0x54F JUMPI PUSH1 0x0 DUP1 REVERT JUMPDEST DUP1 PUSH4 0xC24AB3BB EQ PUSH2 0x498 JUMPI DUP1 PUSH4 0xC70920BC EQ PUSH2 0x4B8 JUMPI DUP1 PUSH4 0xCB6741ED EQ PUSH2 0x4C0 JUMPI DUP1 PUSH4 0xDC01F60D EQ PUSH2 0x4C9 JUMPI DUP1 PUSH4 0xE3056A34 EQ PUSH2 0x4DC JUMPI PUSH1 0x0 DUP1 REVERT JUMPDEST DUP1 PUSH4 0x93396677 GT PUSH2 0xFF JUMPI DUP1 PUSH4 0x93396677 EQ PUSH2 0x430 JUMPI DUP1 PUSH4 0x97A04D5A EQ PUSH2 0x443 JUMPI DUP1 PUSH4 0x994C711C EQ PUSH2 0x44B JUMPI DUP1 PUSH4 0xB07B709B EQ PUSH2 0x472 JUMPI DUP1 PUSH4 0xB6B55F25 EQ PUSH2 0x485 JUMPI PUSH1 0x0 DUP1 REVERT JUMPDEST DUP1 PUSH4 0x713F6D00 EQ PUSH2 0x3E6 JUMPI DUP1 PUSH4 0x76C252CB EQ PUSH2 0x3F9 JUMPI DUP1 PUSH4 0x7C7A8553 EQ PUSH2 0x40C JUMPI DUP1 PUSH4 0x817B1CD2 EQ PUSH2 0x41F JUMPI DUP1 PUSH4 0x838E9958 EQ PUSH2 0x428 JUMPI PUSH1 0x0 DUP1 REVERT JUMPDEST DUP1 PUSH4 0x2E1A7D4D GT PUSH2 0x1C9 JUMPI DUP1 PUSH4 0x4A62C9FB GT PUSH2 0x18D JUMPI DUP1 PUSH4 0x4A62C9FB EQ PUSH2 0x39B JUMPI DUP1 PUSH4 0x4B0EE02A EQ PUSH2 0x3A4 JUMPI DUP1 PUSH4 0x4BA9699E EQ PUSH2 0x3B7 JUMPI DUP1 PUSH4 0x69998CEB EQ PUSH2 0x3CA JUMPI DUP1 PUSH4 0x70A08231 EQ PUSH2 0x3D3 JUMPI PUSH1 0x0 DUP1 REVERT JUMPDEST DUP1 PUSH4 0x2E1A7D4D EQ PUSH2 0x333 JUMPI DUP1 PUSH4 0x2F4F21E2 EQ PUSH2 0x346 JUMPI DUP1 PUSH4 0x372500AB EQ PUSH2 0x359 JUMPI DUP1 PUSH4 0x372B7CB0 EQ PUSH2 0x361 JUMPI DUP1 PUSH4 0x44BBDB55 EQ PUSH2 0x374 JUMPI PUSH1 0x0 DUP1 REVERT JUMPDEST DUP1 PUSH4 0x1575E6DA GT PUSH2 0x210 JUMPI DUP1 PUSH4 0x1575E6DA EQ PUSH2 0x2B9 JUMPI DUP1 PUSH4 0x16765391 EQ PUSH2 0x2D1 JUMPI DUP1 PUSH4 0x1AC40E66 EQ PUSH2 0x2FA JUMPI DUP1 PUSH4 0x238EFCBC EQ PUSH2 0x304 JUMPI DUP1 PUSH4 0x29C32A30 EQ PUSH2 0x30C JUMPI PUSH1 0x0 DUP1 REVERT JUMPDEST DUP1 PUSH4 0xA9EA0B7 EQ PUSH2 0x242 JUMPI DUP1 PUSH4 0xC340A24 EQ PUSH2 0x268 JUMPI DUP1 PUSH4 0x12EDDE5E EQ PUSH2 0x293 JUMPI DUP1 PUSH4 0x131796E1 EQ PUSH2 0x2A6 JUMPI JUMPDEST PUSH1 0x0 DUP1 REVERT JUMPDEST PUSH2 0x255 PUSH2 0x250 CALLDATASIZE PUSH1 0x4 PUSH2 0x23BF JUMP JUMPDEST PUSH2 0x576 JUMP JUMPDEST PUSH1 0x40 MLOAD SWAP1 DUP2 MSTORE PUSH1 0x20 ADD JUMPDEST PUSH1 0x40 MLOAD DUP1 SWAP2 SUB SWAP1 RETURN JUMPDEST PUSH1 0x0 SLOAD PUSH2 0x27B SWAP1 PUSH1 0x1 PUSH1 0x1 PUSH1 0xA0 SHL SUB AND DUP2 JUMP JUMPDEST PUSH1 0x40 MLOAD PUSH1 0x1 PUSH1 0x1 PUSH1 0xA0 SHL SUB SWAP1 SWAP2 AND DUP2 MSTORE PUSH1 0x20 ADD PUSH2 0x25F JUMP JUMPDEST PUSH2 0x255 PUSH2 0x2A1 CALLDATASIZE PUSH1 0x4 PUSH2 0x23BF JUMP JUMPDEST PUSH2 0x6FB JUMP JUMPDEST PUSH2 0x255 PUSH2 0x2B4 CALLDATASIZE PUSH1 0x4 PUSH2 0x23BF JUMP JUMPDEST PUSH2 0x71B JUMP JUMPDEST PUSH2 0x2C1 PUSH2 0x732 JUMP JUMPDEST PUSH1 0x40 MLOAD SWAP1 ISZERO ISZERO DUP2 MSTORE PUSH1 0x20 ADD PUSH2 0x25F JUMP JUMPDEST PUSH2 0x255 PUSH2 0x2DF CALLDATASIZE PUSH1 0x4 PUSH2 0x23FD JUMP JUMPDEST PUSH1 0x1 PUSH1 0x1 PUSH1 0xA0 SHL SUB AND PUSH1 0x0 SWAP1 DUP2 MSTORE PUSH1 0x8 PUSH1 0x20 MSTORE PUSH1 0x40 SWAP1 KECCAK256 SLOAD SWAP1 JUMP JUMPDEST PUSH2 0x302 PUSH2 0x862 JUMP JUMPDEST STOP JUMPDEST PUSH2 0x302 PUSH2 0x8D8 JUMP JUMPDEST PUSH2 0x255 PUSH32 0x0 DUP2 JUMP JUMPDEST PUSH2 0x255 PUSH2 0x341 CALLDATASIZE PUSH1 0x4 PUSH2 0x23BF JUMP JUMPDEST PUSH2 0x988 JUMP JUMPDEST PUSH2 0x302 PUSH2 0x354 CALLDATASIZE PUSH1 0x4 PUSH2 0x241A JUMP JUMPDEST PUSH2 0xC7A JUMP JUMPDEST PUSH2 0x255 PUSH2 0xD52 JUMP JUMPDEST PUSH2 0x2C1 PUSH2 0x36F CALLDATASIZE PUSH1 0x4 PUSH2 0x265B JUMP JUMPDEST PUSH2 0xDEB JUMP JUMPDEST PUSH2 0x27B PUSH32 0x0 DUP2 JUMP JUMPDEST PUSH2 0x255 PUSH1 0xA SLOAD DUP2 JUMP JUMPDEST PUSH2 0x255 PUSH2 0x3B2 CALLDATASIZE PUSH1 0x4 PUSH2 0x23FD JUMP JUMPDEST PUSH2 0xE79 JUMP JUMPDEST PUSH2 0x302 PUSH2 0x3C5 CALLDATASIZE PUSH1 0x4 PUSH2 0x27E8 JUMP JUMPDEST PUSH2 0xE90 JUMP JUMPDEST PUSH2 0x255 PUSH1 0x12 SLOAD DUP2 JUMP JUMPDEST PUSH2 0x255 PUSH2 0x3E1 CALLDATASIZE PUSH1 0x4 PUSH2 0x23FD JUMP JUMPDEST PUSH2 0xEE6 JUMP JUMPDEST PUSH2 0x2C1 PUSH2 0x3F4 CALLDATASIZE PUSH1 0x4 PUSH2 0x265B JUMP JUMPDEST PUSH2 0xEF7 JUMP JUMPDEST PUSH2 0x255 PUSH2 0x407 CALLDATASIZE PUSH1 0x4 PUSH2 0x23FD JUMP JUMPDEST PUSH2 0x1084 JUMP JUMPDEST PUSH2 0x255 PUSH2 0x41A CALLDATASIZE PUSH1 0x4 PUSH2 0x23BF JUMP JUMPDEST PUSH2 0x10CD JUMP JUMPDEST PUSH2 0x255 PUSH1 0x2 SLOAD DUP2 JUMP JUMPDEST PUSH2 0x2C1 PUSH2 0x10E4 JUMP JUMPDEST PUSH2 0x255 PUSH2 0x43E CALLDATASIZE PUSH1 0x4 PUSH2 0x23FD JUMP JUMPDEST PUSH2 0x1185 JUMP JUMPDEST PUSH2 0x255 PUSH2 0x11D8 JUMP JUMPDEST PUSH2 0x255 PUSH32 0x0 DUP2 JUMP JUMPDEST PUSH2 0x302 PUSH2 0x480 CALLDATASIZE PUSH1 0x4 PUSH2 0x23FD JUMP JUMPDEST PUSH2 0x11F1 JUMP JUMPDEST PUSH2 0x302 PUSH2 0x493 CALLDATASIZE PUSH1 0x4 PUSH2 0x23BF JUMP JUMPDEST PUSH2 0x12FD JUMP JUMPDEST PUSH2 0x4AB PUSH2 0x4A6 CALLDATASIZE PUSH1 0x4 PUSH2 0x23FD JUMP JUMPDEST PUSH2 0x130A JUMP JUMPDEST PUSH1 0x40 MLOAD PUSH2 0x25F SWAP2 SWAP1 PUSH2 0x281D JUMP JUMPDEST PUSH2 0x255 PUSH2 0x1452 JUMP JUMPDEST PUSH2 0x255 PUSH1 0xE SLOAD DUP2 JUMP JUMPDEST PUSH2 0x255 PUSH2 0x4D7 CALLDATASIZE PUSH1 0x4 PUSH2 0x23FD JUMP JUMPDEST PUSH2 0x14DD JUMP JUMPDEST PUSH1 0x1 SLOAD PUSH2 0x27B SWAP1 PUSH1 0x1 PUSH1 0x1 PUSH1 0xA0 SHL SUB AND DUP2 JUMP JUMPDEST PUSH2 0x302 PUSH2 0x4FD CALLDATASIZE PUSH1 0x4 PUSH2 0x23FD JUMP JUMPDEST PUSH2 0x15D7 JUMP JUMPDEST PUSH2 0x302 PUSH2 0x510 CALLDATASIZE PUSH1 0x4 PUSH2 0x23BF JUMP JUMPDEST PUSH2 0x16AC JUMP JUMPDEST PUSH2 0x302 PUSH2 0x523 CALLDATASIZE PUSH1 0x4 PUSH2 0x23FD JUMP JUMPDEST PUSH2 0x1767 JUMP JUMPDEST PUSH2 0x27B PUSH32 0x0 DUP2 JUMP JUMPDEST PUSH2 0x27B PUSH32 0x0 DUP2 JUMP JUMPDEST PUSH1 0x0 PUSH2 0x581 CALLER PUSH2 0x1084 JUMP JUMPDEST DUP3 GT ISZERO PUSH2 0x5CE JUMPI PUSH1 0x40 MLOAD PUSH3 0x461BCD PUSH1 0xE5 SHL DUP2 MSTORE PUSH1 0x20 PUSH1 0x4 DUP3 ADD MSTORE PUSH1 0x16 PUSH1 0x24 DUP3 ADD MSTORE PUSH22 0x6E6F7420656E6F75676820746F207769746864726177 PUSH1 0x50 SHL PUSH1 0x44 DUP3 ADD MSTORE PUSH1 0x64 ADD JUMPDEST PUSH1 0x40 MLOAD DUP1 SWAP2 SUB SWAP1 REVERT JUMPDEST PUSH2 0x5D8 CALLER DUP4 PUSH2 0x1836 JUMP JUMPDEST POP PUSH1 0x11 DUP1 SLOAD SWAP1 PUSH1 0x0 PUSH2 0x5E9 DUP4 PUSH2 0x28A0 JUMP JUMPDEST SWAP1 SWAP2 SSTORE POP PUSH1 0x40 DUP1 MLOAD PUSH1 0x80 DUP2 ADD DUP3 MSTORE PUSH1 0xD SLOAD DUP2 MSTORE PUSH1 0x20 DUP2 ADD DUP5 SWAP1 MSTORE PUSH1 0x12 SLOAD PUSH1 0x0 SWAP3 DUP3 ADD SWAP1 PUSH2 0x616 SWAP1 TIMESTAMP PUSH2 0x28B9 JUMP JUMPDEST DUP2 MSTORE CALLER PUSH1 0x20 SWAP2 DUP3 ADD MSTORE PUSH1 0x0 DUP5 DUP2 MSTORE PUSH1 0xF DUP3 MSTORE PUSH1 0x40 DUP1 DUP3 KECCAK256 DUP5 MLOAD DUP2 SSTORE DUP5 DUP5 ADD MLOAD PUSH1 0x1 DUP3 ADD SSTORE DUP5 DUP3 ADD MLOAD PUSH1 0x2 DUP3 ADD SSTORE PUSH1 0x60 DUP6 ADD MLOAD PUSH1 0x3 SWAP1 SWAP2 ADD DUP1 SLOAD PUSH1 0x1 PUSH1 0x1 PUSH1 0xA0 SHL SUB NOT AND PUSH1 0x1 PUSH1 0x1 PUSH1 0xA0 SHL SUB SWAP1 SWAP3 AND SWAP2 DUP3 OR SWAP1 SSTORE DUP3 MSTORE PUSH1 0x10 SWAP1 SWAP3 MSTORE KECCAK256 SWAP1 SWAP2 POP PUSH2 0x67E SWAP1 DUP4 PUSH2 0x18C8 JUMP JUMPDEST POP PUSH32 0x303E206423354D1B684563FE13A4DC15469665CEBD160DCFEE461B7AF63FE21A DUP3 DUP3 PUSH1 0x60 ADD MLOAD DUP4 PUSH1 0x40 ADD MLOAD DUP7 PUSH2 0x6C1 PUSH1 0xE SLOAD DUP10 PUSH2 0x18D4 SWAP1 SWAP2 SWAP1 PUSH4 0xFFFFFFFF AND JUMP JUMPDEST PUSH1 0x40 DUP1 MLOAD SWAP6 DUP7 MSTORE PUSH1 0x1 PUSH1 0x1 PUSH1 0xA0 SHL SUB SWAP1 SWAP5 AND PUSH1 0x20 DUP7 ADD MSTORE SWAP3 DUP5 ADD SWAP2 SWAP1 SWAP2 MSTORE PUSH1 0x60 DUP4 ADD MSTORE PUSH1 0x80 DUP3 ADD MSTORE PUSH1 0xA0 ADD JUMPDEST PUSH1 0x40 MLOAD DUP1 SWAP2 SUB SWAP1 LOG1 POP SWAP2 SWAP1 POP JUMP JUMPDEST PUSH1 0x0 PUSH2 0x715 PUSH2 0x250 PUSH1 0xE SLOAD DUP5 PUSH2 0x18F5 SWAP1 SWAP2 SWAP1 PUSH4 0xFFFFFFFF AND JUMP JUMPDEST SWAP3 SWAP2 POP POP JUMP JUMPDEST PUSH1 0x0 PUSH2 0x715 PUSH1 0xE SLOAD DUP4 PUSH2 0x18F5 SWAP1 SWAP2 SWAP1 PUSH4 0xFFFFFFFF AND JUMP JUMPDEST PUSH1 0x0 PUSH2 0x766 PUSH32 0x0 PUSH1 0x1 PUSH1 0x1 PUSH1 0xA0 SHL SUB AND PUSH2 0x1968 JUMP JUMPDEST PUSH1 0x1 PUSH1 0x1 PUSH1 0xA0 SHL SUB AND PUSH4 0xC2C4C5C1 PUSH1 0x40 MLOAD DUP2 PUSH4 0xFFFFFFFF AND PUSH1 0xE0 SHL DUP2 MSTORE PUSH1 0x4 ADD PUSH1 0x0 PUSH1 0x40 MLOAD DUP1 DUP4 SUB DUP2 PUSH1 0x0 DUP8 DUP1 EXTCODESIZE ISZERO DUP1 ISZERO PUSH2 0x7A0 JUMPI PUSH1 0x0 DUP1 REVERT JUMPDEST POP GAS CALL ISZERO DUP1 ISZERO PUSH2 0x7B4 JUMPI RETURNDATASIZE PUSH1 0x0 DUP1 RETURNDATACOPY RETURNDATASIZE PUSH1 0x0 REVERT JUMPDEST POP POP POP POP PUSH1 0x0 PUSH2 0x7EC PUSH32 0x0 PUSH1 0x1 PUSH1 0x1 PUSH1 0xA0 SHL SUB AND PUSH2 0x19B7 JUMP JUMPDEST PUSH1 0x1 PUSH1 0x1 PUSH1 0xA0 SHL SUB AND PUSH4 0xEF5BAC25 PUSH1 0x40 MLOAD DUP2 PUSH4 0xFFFFFFFF AND PUSH1 0xE0 SHL DUP2 MSTORE PUSH1 0x4 ADD PUSH1 0x0 PUSH1 0x40 MLOAD DUP1 DUP4 SUB DUP2 DUP7 GAS STATICCALL ISZERO DUP1 ISZERO PUSH2 0x829 JUMPI RETURNDATASIZE PUSH1 0x0 DUP1 RETURNDATACOPY RETURNDATASIZE PUSH1 0x0 REVERT JUMPDEST POP POP POP POP PUSH1 0x40 MLOAD RETURNDATASIZE PUSH1 0x0 DUP3 RETURNDATACOPY PUSH1 0x1F RETURNDATASIZE SWAP1 DUP2 ADD PUSH1 0x1F NOT AND DUP3 ADD PUSH1 0x40 MSTORE PUSH2 0x851 SWAP2 SWAP1 DUP2 ADD SWAP1 PUSH2 0x29BF JUMP JUMPDEST SWAP1 POP PUSH2 0x85C DUP2 PUSH2 0x1A06 JUMP JUMPDEST SWAP2 POP POP SWAP1 JUMP JUMPDEST PUSH1 0x0 PUSH1 0x4 SLOAD TIMESTAMP PUSH2 0x872 SWAP2 SWAP1 PUSH2 0x2B39 JUMP JUMPDEST PUSH1 0x2 SLOAD SWAP1 SWAP2 POP DUP1 ISZERO PUSH2 0x8D0 JUMPI PUSH1 0x0 DUP3 PUSH2 0x889 PUSH2 0x11D8 JUMP JUMPDEST PUSH2 0x893 SWAP2 SWAP1 PUSH2 0x2B4C JUMP JUMPDEST SWAP1 POP PUSH2 0x89F DUP2 DUP4 PUSH2 0x18F5 JUMP JUMPDEST PUSH1 0x3 PUSH1 0x0 DUP3 DUP3 SLOAD PUSH2 0x8B0 SWAP2 SWAP1 PUSH2 0x28B9 JUMP JUMPDEST SWAP3 POP POP DUP2 SWAP1 SSTORE POP DUP1 PUSH1 0x5 PUSH1 0x0 DUP3 DUP3 SLOAD PUSH2 0x8C9 SWAP2 SWAP1 PUSH2 0x28B9 JUMP JUMPDEST SWAP1 SWAP2 SSTORE POP POP POP JUMPDEST POP POP TIMESTAMP PUSH1 0x4 SSTORE JUMP JUMPDEST PUSH1 0x1 SLOAD PUSH1 0x40 DUP1 MLOAD DUP1 DUP3 ADD SWAP1 SWAP2 MSTORE PUSH1 0x2 DUP2 MSTORE PUSH2 0x333 PUSH1 0xF4 SHL PUSH1 0x20 DUP3 ADD MSTORE SWAP1 PUSH1 0x1 PUSH1 0x1 PUSH1 0xA0 SHL SUB AND CALLER EQ PUSH2 0x91D JUMPI PUSH1 0x40 MLOAD PUSH3 0x461BCD PUSH1 0xE5 SHL DUP2 MSTORE PUSH1 0x4 ADD PUSH2 0x5C5 SWAP2 SWAP1 PUSH2 0x2B87 JUMP JUMPDEST POP PUSH1 0x0 DUP1 SLOAD PUSH1 0x1 DUP1 SLOAD PUSH1 0x1 PUSH1 0x1 PUSH1 0xA0 SHL SUB NOT DUP1 DUP5 AND PUSH1 0x1 PUSH1 0x1 PUSH1 0xA0 SHL SUB DUP1 DUP5 AND SWAP2 SWAP1 SWAP2 OR SWAP1 SWAP6 SSTORE AND SWAP1 SSTORE PUSH1 0x40 DUP1 MLOAD SWAP3 SWAP1 SWAP2 AND DUP1 DUP4 MSTORE CALLER PUSH1 0x20 DUP5 ADD MSTORE SWAP2 PUSH32 0xDE4B3F61490B74C0ED6237523974FE299126BBBF8A8A7482FD220104C59B0C84 SWAP2 ADD JUMPDEST PUSH1 0x40 MLOAD DUP1 SWAP2 SUB SWAP1 LOG1 POP JUMP JUMPDEST PUSH1 0x0 DUP2 DUP2 MSTORE PUSH1 0xF PUSH1 0x20 SWAP1 DUP2 MSTORE PUSH1 0x40 DUP1 DUP4 KECCAK256 DUP2 MLOAD PUSH1 0x80 DUP2 ADD DUP4 MSTORE DUP2 SLOAD DUP2 MSTORE PUSH1 0x1 DUP3 ADD SLOAD SWAP4 DUP2 ADD SWAP4 SWAP1 SWAP4 MSTORE PUSH1 0x2 DUP2 ADD SLOAD SWAP2 DUP4 ADD SWAP2 SWAP1 SWAP2 MSTORE PUSH1 0x3 ADD SLOAD PUSH1 0x1 PUSH1 0x1 PUSH1 0xA0 SHL SUB AND PUSH1 0x60 DUP3 ADD DUP2 SWAP1 MSTORE CALLER EQ PUSH2 0xA2A JUMPI PUSH1 0x40 MLOAD PUSH3 0x461BCD PUSH1 0xE5 SHL DUP2 MSTORE PUSH1 0x20 PUSH1 0x4 DUP3 ADD MSTORE PUSH1 0x22 PUSH1 0x24 DUP3 ADD MSTORE PUSH32 0x6D61746368696E67207769746864726177616C20646F6573206E6F7420657869 PUSH1 0x44 DUP3 ADD MSTORE PUSH2 0x1CDD PUSH1 0xF2 SHL PUSH1 0x64 DUP3 ADD MSTORE PUSH1 0x84 ADD PUSH2 0x5C5 JUMP JUMPDEST TIMESTAMP DUP2 PUSH1 0x40 ADD MLOAD GT ISZERO PUSH2 0xA75 JUMPI PUSH1 0x40 MLOAD PUSH3 0x461BCD PUSH1 0xE5 SHL DUP2 MSTORE PUSH1 0x20 PUSH1 0x4 DUP3 ADD MSTORE PUSH1 0x14 PUSH1 0x24 DUP3 ADD MSTORE PUSH20 0x6E6F742079657420776974686472617761626C65 PUSH1 0x60 SHL PUSH1 0x44 DUP3 ADD MSTORE PUSH1 0x64 ADD PUSH2 0x5C5 JUMP JUMPDEST PUSH1 0xD SLOAD DUP2 MLOAD LT ISZERO PUSH2 0xB37 JUMPI PUSH1 0x0 DUP4 DUP2 MSTORE PUSH1 0xF PUSH1 0x20 SWAP1 DUP2 MSTORE PUSH1 0x40 DUP1 DUP4 KECCAK256 DUP4 DUP2 SSTORE PUSH1 0x1 DUP2 ADD DUP5 SWAP1 SSTORE PUSH1 0x2 DUP2 ADD DUP5 SWAP1 SSTORE PUSH1 0x3 ADD DUP1 SLOAD PUSH1 0x1 PUSH1 0x1 PUSH1 0xA0 SHL SUB NOT AND SWAP1 SSTORE PUSH1 0x60 DUP5 ADD MLOAD PUSH1 0x1 PUSH1 0x1 PUSH1 0xA0 SHL SUB AND DUP4 MSTORE PUSH1 0x10 SWAP1 SWAP2 MSTORE SWAP1 KECCAK256 PUSH2 0xAD4 SWAP1 DUP5 PUSH2 0x1B8E JUMP JUMPDEST POP PUSH1 0x60 DUP1 DUP3 ADD MLOAD PUSH1 0x40 DUP1 MLOAD DUP7 DUP2 MSTORE PUSH1 0x1 PUSH1 0x1 PUSH1 0xA0 SHL SUB SWAP1 SWAP3 AND PUSH1 0x20 DUP4 ADD MSTORE PUSH1 0x0 SWAP1 DUP3 ADD DUP2 SWAP1 MSTORE SWAP2 DUP2 ADD SWAP2 SWAP1 SWAP2 MSTORE PUSH32 0xCD7211CE885C480C8874FE7E69383AD2D60EC453BDB417E7F45222BF44E47266 SWAP1 PUSH1 0x80 ADD PUSH1 0x40 MLOAD DUP1 SWAP2 SUB SWAP1 LOG1 POP PUSH1 0x0 SWAP3 SWAP2 POP POP JUMP JUMPDEST DUP1 PUSH1 0x20 ADD MLOAD PUSH1 0xB PUSH1 0x0 DUP4 PUSH1 0x60 ADD MLOAD PUSH1 0x1 PUSH1 0x1 PUSH1 0xA0 SHL SUB AND PUSH1 0x1 PUSH1 0x1 PUSH1 0xA0 SHL SUB AND DUP2 MSTORE PUSH1 0x20 ADD SWAP1 DUP2 MSTORE PUSH1 0x20 ADD PUSH1 0x0 KECCAK256 PUSH1 0x1 ADD PUSH1 0x0 DUP3 DUP3 SLOAD PUSH2 0xB77 SWAP2 SWAP1 PUSH2 0x2B39 JUMP JUMPDEST SWAP1 SWAP2 SSTORE POP POP PUSH1 0xE SLOAD PUSH1 0x20 DUP3 ADD MLOAD PUSH2 0xB8D SWAP2 PUSH2 0x18D4 JUMP JUMPDEST PUSH1 0x60 DUP3 ADD MLOAD SWAP1 SWAP3 POP PUSH2 0xBCA SWAP1 PUSH1 0x1 PUSH1 0x1 PUSH1 0xA0 SHL SUB PUSH32 0x0 AND SWAP1 DUP5 PUSH2 0x1B9A JUMP JUMPDEST PUSH1 0x0 DUP4 DUP2 MSTORE PUSH1 0xF PUSH1 0x20 SWAP1 DUP2 MSTORE PUSH1 0x40 DUP1 DUP4 KECCAK256 DUP4 DUP2 SSTORE PUSH1 0x1 DUP2 ADD DUP5 SWAP1 SSTORE PUSH1 0x2 DUP2 ADD DUP5 SWAP1 SSTORE PUSH1 0x3 ADD DUP1 SLOAD PUSH1 0x1 PUSH1 0x1 PUSH1 0xA0 SHL SUB NOT AND SWAP1 SSTORE PUSH1 0x60 DUP5 ADD MLOAD PUSH1 0x1 PUSH1 0x1 PUSH1 0xA0 SHL SUB AND DUP4 MSTORE PUSH1 0x10 SWAP1 SWAP2 MSTORE SWAP1 KECCAK256 PUSH2 0xC1E SWAP1 DUP5 PUSH2 0x1B8E JUMP JUMPDEST POP PUSH1 0x60 DUP2 ADD MLOAD PUSH1 0x20 DUP3 ADD MLOAD PUSH1 0x40 MLOAD PUSH32 0xCD7211CE885C480C8874FE7E69383AD2D60EC453BDB417E7F45222BF44E47266 SWAP3 PUSH2 0x6ED SWAP3 DUP8 SWAP3 DUP8 SWAP1 SWAP4 DUP5 MSTORE PUSH1 0x1 PUSH1 0x1 PUSH1 0xA0 SHL SUB SWAP3 SWAP1 SWAP3 AND PUSH1 0x20 DUP5 ADD MSTORE PUSH1 0x40 DUP4 ADD MSTORE PUSH1 0x60 DUP3 ADD MSTORE PUSH1 0x80 ADD SWAP1 JUMP JUMPDEST PUSH2 0xCAF PUSH1 0x1 PUSH1 0x1 PUSH1 0xA0 SHL SUB PUSH32 0x0 AND CALLER ADDRESS DUP5 PUSH2 0x1BFD JUMP JUMPDEST PUSH1 0x0 PUSH2 0xCC6 PUSH1 0xE SLOAD DUP4 PUSH2 0x18F5 SWAP1 SWAP2 SWAP1 PUSH4 0xFFFFFFFF AND JUMP JUMPDEST SWAP1 POP PUSH2 0xCD2 DUP4 DUP3 PUSH2 0x1C3B JUMP JUMPDEST PUSH1 0x1 PUSH1 0x1 PUSH1 0xA0 SHL SUB DUP4 AND PUSH1 0x0 SWAP1 DUP2 MSTORE PUSH1 0xB PUSH1 0x20 MSTORE PUSH1 0x40 DUP2 KECCAK256 PUSH1 0x1 ADD DUP1 SLOAD DUP4 SWAP3 SWAP1 PUSH2 0xCFD SWAP1 DUP5 SWAP1 PUSH2 0x28B9 JUMP JUMPDEST SWAP1 SWAP2 SSTORE POP POP PUSH1 0x40 DUP1 MLOAD PUSH1 0x1 PUSH1 0x1 PUSH1 0xA0 SHL SUB DUP6 AND DUP2 MSTORE PUSH1 0x20 DUP2 ADD DUP4 SWAP1 MSTORE SWAP1 DUP2 ADD DUP4 SWAP1 MSTORE PUSH32 0x90890809C654F11D6E72A28FA60149770A0D11EC6C92319D6CEB2BB0A4EA1A15 SWAP1 PUSH1 0x60 ADD JUMPDEST PUSH1 0x40 MLOAD DUP1 SWAP2 SUB SWAP1 LOG1 POP POP POP JUMP JUMPDEST PUSH1 0x0 PUSH2 0xD5D CALLER PUSH2 0x11F1 JUMP JUMPDEST CALLER PUSH1 0x0 SWAP1 DUP2 MSTORE PUSH1 0x7 PUSH1 0x20 MSTORE PUSH1 0x40 DUP2 KECCAK256 SLOAD SWAP1 DUP2 SWAP1 SUB PUSH2 0xD7D JUMPI PUSH1 0x0 SWAP2 POP POP SWAP1 JUMP JUMPDEST CALLER PUSH1 0x0 DUP2 DUP2 MSTORE PUSH1 0x7 PUSH1 0x20 MSTORE PUSH1 0x40 DUP1 DUP3 KECCAK256 SWAP2 SWAP1 SWAP2 SSTORE MLOAD PUSH32 0x47CEE97CB7ACD717B3C0AA1435D004CD5B3C8C57D70DBCEB4E4458BBD60E39D4 SWAP1 PUSH2 0xDC1 SWAP1 DUP5 DUP2 MSTORE PUSH1 0x20 ADD SWAP1 JUMP JUMPDEST PUSH1 0x40 MLOAD DUP1 SWAP2 SUB SWAP1 LOG2 DUP1 PUSH1 0x5 PUSH1 0x0 DUP3 DUP3 SLOAD PUSH2 0xDDB SWAP2 SWAP1 PUSH2 0x2B39 JUMP JUMPDEST SWAP1 SWAP2 SSTORE POP PUSH2 0x85C SWAP1 POP CALLER DUP3 PUSH2 0x1CC3 JUMP JUMPDEST PUSH1 0x0 PUSH2 0xE1F PUSH32 0x0 PUSH1 0x1 PUSH1 0x1 PUSH1 0xA0 SHL SUB AND PUSH2 0x1CFF JUMP JUMPDEST PUSH1 0x1 PUSH1 0x1 PUSH1 0xA0 SHL SUB AND CALLER PUSH1 0x1 PUSH1 0x1 PUSH1 0xA0 SHL SUB AND EQ PUSH2 0xE70 JUMPI PUSH1 0x40 MLOAD PUSH3 0x461BCD PUSH1 0xE5 SHL DUP2 MSTORE PUSH1 0x20 PUSH1 0x4 DUP3 ADD MSTORE PUSH1 0xE PUSH1 0x24 DUP3 ADD MSTORE PUSH14 0x1B9BDD08185D5D1A1BDC9A5E9959 PUSH1 0x92 SHL PUSH1 0x44 DUP3 ADD MSTORE PUSH1 0x64 ADD PUSH2 0x5C5 JUMP JUMPDEST PUSH2 0x715 DUP3 PUSH2 0x1A06 JUMP JUMPDEST PUSH1 0x0 PUSH2 0x715 PUSH1 0xE SLOAD PUSH2 0xE8A DUP5 PUSH2 0x1185 JUMP JUMPDEST SWAP1 PUSH2 0x18D4 JUMP JUMPDEST PUSH1 0x0 SLOAD PUSH1 0x40 DUP1 MLOAD DUP1 DUP3 ADD SWAP1 SWAP2 MSTORE PUSH1 0x2 DUP2 MSTORE PUSH2 0x333 PUSH1 0xF4 SHL PUSH1 0x20 DUP3 ADD MSTORE SWAP1 PUSH1 0x1 PUSH1 0x1 PUSH1 0xA0 SHL SUB AND CALLER EQ PUSH2 0xED5 JUMPI PUSH1 0x40 MLOAD PUSH3 0x461BCD PUSH1 0xE5 SHL DUP2 MSTORE PUSH1 0x4 ADD PUSH2 0x5C5 SWAP2 SWAP1 PUSH2 0x2B87 JUMP JUMPDEST POP PUSH2 0xEE1 DUP4 DUP4 DUP4 PUSH2 0x1D44 JUMP JUMPDEST POP POP POP JUMP JUMPDEST PUSH1 0x0 PUSH2 0x715 PUSH1 0xE SLOAD PUSH2 0xE8A DUP5 PUSH2 0x1084 JUMP JUMPDEST PUSH1 0x0 PUSH2 0xF01 PUSH2 0x1452 JUMP JUMPDEST PUSH1 0x0 SUB PUSH2 0xF10 JUMPI POP PUSH1 0x0 SWAP2 SWAP1 POP JUMP JUMPDEST PUSH1 0x0 PUSH2 0xF9F PUSH32 0x0 PUSH1 0x1 PUSH1 0x1 PUSH1 0xA0 SHL SUB AND PUSH4 0x18160DDD PUSH1 0x40 MLOAD DUP2 PUSH4 0xFFFFFFFF AND PUSH1 0xE0 SHL DUP2 MSTORE PUSH1 0x4 ADD PUSH1 0x20 PUSH1 0x40 MLOAD DUP1 DUP4 SUB DUP2 DUP7 GAS STATICCALL ISZERO DUP1 ISZERO PUSH2 0xF73 JUMPI RETURNDATASIZE PUSH1 0x0 DUP1 RETURNDATACOPY RETURNDATASIZE PUSH1 0x0 REVERT JUMPDEST POP POP POP POP PUSH1 0x40 MLOAD RETURNDATASIZE PUSH1 0x1F NOT PUSH1 0x1F DUP3 ADD AND DUP3 ADD DUP1 PUSH1 0x40 MSTORE POP DUP2 ADD SWAP1 PUSH2 0xF97 SWAP2 SWAP1 PUSH2 0x2BBA JUMP JUMPDEST DUP5 MLOAD SWAP1 PUSH2 0x18F5 JUMP JUMPDEST PUSH1 0x40 MLOAD PUSH4 0xBD02D0F5 PUSH1 0xE0 SHL DUP2 MSTORE PUSH32 0x4759445F5245434F564552595F545249474745525F4352000000000000000000 PUSH1 0x4 DUP3 ADD MSTORE SWAP1 SWAP2 POP PUSH1 0x0 SWAP1 PUSH1 0x1 PUSH1 0x1 PUSH1 0xA0 SHL SUB PUSH32 0x0 AND SWAP1 PUSH4 0xBD02D0F5 SWAP1 PUSH1 0x24 ADD PUSH1 0x20 PUSH1 0x40 MLOAD DUP1 DUP4 SUB DUP2 DUP7 GAS STATICCALL ISZERO DUP1 ISZERO PUSH2 0x1029 JUMPI RETURNDATASIZE PUSH1 0x0 DUP1 RETURNDATACOPY RETURNDATASIZE PUSH1 0x0 REVERT JUMPDEST POP POP POP POP PUSH1 0x40 MLOAD RETURNDATASIZE PUSH1 0x1F NOT PUSH1 0x1F DUP3 ADD AND DUP3 ADD DUP1 PUSH1 0x40 MSTORE POP DUP2 ADD SWAP1 PUSH2 0x104D SWAP2 SWAP1 PUSH2 0x2BBA JUMP JUMPDEST SWAP1 POP PUSH32 0x0 DUP1 DUP3 GT ISZERO PUSH2 0x107C JUMPI DUP1 SWAP2 POP JUMPDEST POP GT SWAP3 SWAP2 POP POP JUMP JUMPDEST PUSH1 0xD SLOAD PUSH1 0x1 PUSH1 0x1 PUSH1 0xA0 SHL SUB DUP3 AND PUSH1 0x0 SWAP1 DUP2 MSTORE PUSH1 0xB PUSH1 0x20 MSTORE PUSH1 0x40 DUP2 KECCAK256 SLOAD SWAP1 SWAP2 GT PUSH2 0x10C5 JUMPI PUSH1 0x1 PUSH1 0x1 PUSH1 0xA0 SHL SUB DUP3 AND PUSH1 0x0 SWAP1 DUP2 MSTORE PUSH1 0x8 PUSH1 0x20 MSTORE PUSH1 0x40 SWAP1 KECCAK256 SLOAD PUSH2 0x715 JUMP JUMPDEST PUSH1 0x0 SWAP3 SWAP2 POP POP JUMP JUMPDEST PUSH1 0x0 PUSH2 0x715 PUSH1 0xE SLOAD DUP4 PUSH2 0x18D4 SWAP1 SWAP2 SWAP1 PUSH4 0xFFFFFFFF AND JUMP JUMPDEST PUSH1 0x0 PUSH2 0x1180 PUSH2 0x111B PUSH32 0x0 PUSH1 0x1 PUSH1 0x1 PUSH1 0xA0 SHL SUB AND PUSH2 0x19B7 JUMP JUMPDEST PUSH1 0x1 PUSH1 0x1 PUSH1 0xA0 SHL SUB AND PUSH4 0xEF5BAC25 PUSH1 0x40 MLOAD DUP2 PUSH4 0xFFFFFFFF AND PUSH1 0xE0 SHL DUP2 MSTORE PUSH1 0x4 ADD PUSH1 0x0 PUSH1 0x40 MLOAD DUP1 DUP4 SUB DUP2 DUP7 GAS STATICCALL ISZERO DUP1 ISZERO PUSH2 0x1158 JUMPI RETURNDATASIZE PUSH1 0x0 DUP1 RETURNDATACOPY RETURNDATASIZE PUSH1 0x0 REVERT JUMPDEST POP POP POP POP PUSH1 0x40 MLOAD RETURNDATASIZE PUSH1 0x0 DUP3 RETURNDATACOPY PUSH1 0x1F RETURNDATASIZE SWAP1 DUP2 ADD PUSH1 0x1F NOT AND DUP3 ADD PUSH1 0x40 MSTORE PUSH2 0x3F4 SWAP2 SWAP1 DUP2 ADD SWAP1 PUSH2 0x29BF JUMP JUMPDEST SWAP1 POP SWAP1 JUMP JUMPDEST PUSH1 0x1 PUSH1 0x1 PUSH1 0xA0 SHL SUB DUP2 AND PUSH1 0x0 SWAP1 DUP2 MSTORE PUSH1 0xB PUSH1 0x20 SWAP1 DUP2 MSTORE PUSH1 0x40 DUP1 DUP4 KECCAK256 DUP2 MLOAD DUP1 DUP4 ADD SWAP1 SWAP3 MSTORE DUP1 SLOAD DUP1 DUP4 MSTORE PUSH1 0x1 SWAP1 SWAP2 ADD SLOAD SWAP3 DUP3 ADD SWAP3 SWAP1 SWAP3 MSTORE PUSH1 0xD SLOAD SWAP1 SWAP2 LT PUSH2 0x11CE JUMPI DUP1 PUSH1 0x20 ADD MLOAD PUSH2 0x11D1 JUMP JUMPDEST PUSH1 0x0 JUMPDEST SWAP4 SWAP3 POP POP POP JUMP JUMPDEST PUSH1 0x0 PUSH1 0xA SLOAD TIMESTAMP GT ISZERO PUSH2 0x11EA JUMPI POP PUSH1 0x0 SWAP1 JUMP JUMPDEST POP PUSH1 0x9 SLOAD SWAP1 JUMP JUMPDEST PUSH2 0x11F9 PUSH2 0x862 JUMP JUMPDEST PUSH1 0x1 PUSH1 0x1 PUSH1 0xA0 SHL SUB DUP2 AND PUSH1 0x0 SWAP1 DUP2 MSTORE PUSH1 0xB PUSH1 0x20 SWAP1 DUP2 MSTORE PUSH1 0x40 DUP1 DUP4 KECCAK256 DUP1 SLOAD PUSH1 0x8 SWAP1 SWAP4 MSTORE SWAP1 DUP4 KECCAK256 SLOAD SWAP1 SWAP3 DUP3 DUP2 SUB PUSH2 0x1236 JUMPI POP PUSH1 0x3 SLOAD PUSH1 0xD SLOAD DUP5 SSTORE PUSH2 0x1280 JUMP JUMPDEST PUSH1 0xD SLOAD DUP4 LT ISZERO PUSH2 0x127B JUMPI POP PUSH1 0x0 DUP3 DUP2 MSTORE PUSH1 0xC PUSH1 0x20 SWAP1 DUP2 MSTORE PUSH1 0x40 DUP1 DUP4 KECCAK256 SLOAD PUSH1 0x1 DUP8 ADD DUP5 SWAP1 SSTORE PUSH1 0xD SLOAD DUP8 SSTORE PUSH1 0x1 PUSH1 0x1 PUSH1 0xA0 SHL SUB DUP9 AND DUP5 MSTORE PUSH1 0x8 SWAP1 SWAP3 MSTORE DUP3 KECCAK256 SWAP2 SWAP1 SWAP2 SSTORE PUSH2 0x1280 JUMP JUMPDEST POP PUSH1 0x3 SLOAD JUMPDEST PUSH1 0x1 PUSH1 0x1 PUSH1 0xA0 SHL SUB DUP6 AND PUSH1 0x0 SWAP1 DUP2 MSTORE PUSH1 0x6 PUSH1 0x20 MSTORE PUSH1 0x40 SWAP1 KECCAK256 SLOAD PUSH2 0x12AE SWAP1 PUSH2 0x12A7 SWAP1 DUP4 PUSH2 0x2B39 JUMP JUMPDEST DUP4 SWAP1 PUSH2 0x18D4 JUMP JUMPDEST PUSH1 0x1 PUSH1 0x1 PUSH1 0xA0 SHL SUB DUP7 AND PUSH1 0x0 SWAP1 DUP2 MSTORE PUSH1 0x7 PUSH1 0x20 MSTORE PUSH1 0x40 DUP2 KECCAK256 DUP1 SLOAD SWAP1 SWAP2 SWAP1 PUSH2 0x12D6 SWAP1 DUP5 SWAP1 PUSH2 0x28B9 JUMP JUMPDEST SWAP1 SWAP2 SSTORE POP POP PUSH1 0x1 PUSH1 0x1 PUSH1 0xA0 SHL SUB SWAP1 SWAP5 AND PUSH1 0x0 SWAP1 DUP2 MSTORE PUSH1 0x6 PUSH1 0x20 MSTORE PUSH1 0x40 SWAP1 KECCAK256 SWAP4 SWAP1 SWAP4 SSTORE POP POP POP JUMP JUMPDEST PUSH2 0x1307 CALLER DUP3 PUSH2 0xC7A JUMP JUMPDEST POP JUMP JUMPDEST PUSH1 0x1 PUSH1 0x1 PUSH1 0xA0 SHL SUB DUP2 AND PUSH1 0x0 SWAP1 DUP2 MSTORE PUSH1 0x10 PUSH1 0x20 MSTORE PUSH1 0x40 DUP2 KECCAK256 PUSH1 0x60 SWAP2 PUSH2 0x132E DUP3 PUSH2 0x1DD3 JUMP JUMPDEST PUSH8 0xFFFFFFFFFFFFFFFF DUP2 GT ISZERO PUSH2 0x1346 JUMPI PUSH2 0x1346 PUSH2 0x2446 JUMP JUMPDEST PUSH1 0x40 MLOAD SWAP1 DUP1 DUP3 MSTORE DUP1 PUSH1 0x20 MUL PUSH1 0x20 ADD DUP3 ADD PUSH1 0x40 MSTORE DUP1 ISZERO PUSH2 0x13AB JUMPI DUP2 PUSH1 0x20 ADD JUMPDEST PUSH2 0x1398 PUSH1 0x40 MLOAD DUP1 PUSH1 0x80 ADD PUSH1 0x40 MSTORE DUP1 PUSH1 0x0 DUP2 MSTORE PUSH1 0x20 ADD PUSH1 0x0 DUP2 MSTORE PUSH1 0x20 ADD PUSH1 0x0 DUP2 MSTORE PUSH1 0x20 ADD PUSH1 0x0 PUSH1 0x1 PUSH1 0x1 PUSH1 0xA0 SHL SUB AND DUP2 MSTORE POP SWAP1 JUMP JUMPDEST DUP2 MSTORE PUSH1 0x20 ADD SWAP1 PUSH1 0x1 SWAP1 SUB SWAP1 DUP2 PUSH2 0x1364 JUMPI SWAP1 POP JUMPDEST POP SWAP1 POP PUSH1 0x0 JUMPDEST PUSH2 0x13BA DUP4 PUSH2 0x1DD3 JUMP JUMPDEST DUP2 LT ISZERO PUSH2 0x144A JUMPI PUSH1 0xF PUSH1 0x0 PUSH2 0x13CF DUP6 DUP5 PUSH2 0x1DDD JUMP JUMPDEST DUP2 MSTORE PUSH1 0x20 DUP1 DUP3 ADD SWAP3 SWAP1 SWAP3 MSTORE PUSH1 0x40 SWAP1 DUP2 ADD PUSH1 0x0 KECCAK256 DUP2 MLOAD PUSH1 0x80 DUP2 ADD DUP4 MSTORE DUP2 SLOAD DUP2 MSTORE PUSH1 0x1 DUP3 ADD SLOAD SWAP4 DUP2 ADD SWAP4 SWAP1 SWAP4 MSTORE PUSH1 0x2 DUP2 ADD SLOAD SWAP2 DUP4 ADD SWAP2 SWAP1 SWAP2 MSTORE PUSH1 0x3 ADD SLOAD PUSH1 0x1 PUSH1 0x1 PUSH1 0xA0 SHL SUB AND PUSH1 0x60 DUP3 ADD MSTORE DUP3 MLOAD DUP4 SWAP1 DUP4 SWAP1 DUP2 LT PUSH2 0x142C JUMPI PUSH2 0x142C PUSH2 0x2BD3 JUMP JUMPDEST PUSH1 0x20 MUL PUSH1 0x20 ADD ADD DUP2 SWAP1 MSTORE POP DUP1 DUP1 PUSH2 0x1442 SWAP1 PUSH2 0x28A0 JUMP JUMPDEST SWAP2 POP POP PUSH2 0x13B1 JUMP JUMPDEST POP SWAP4 SWAP3 POP POP POP JUMP JUMPDEST PUSH1 0x40 MLOAD PUSH4 0x70A08231 PUSH1 0xE0 SHL DUP2 MSTORE ADDRESS PUSH1 0x4 DUP3 ADD MSTORE PUSH1 0x0 SWAP1 PUSH32 0x0 PUSH1 0x1 PUSH1 0x1 PUSH1 0xA0 SHL SUB AND SWAP1 PUSH4 0x70A08231 SWAP1 PUSH1 0x24 ADD PUSH1 0x20 PUSH1 0x40 MLOAD DUP1 DUP4 SUB DUP2 DUP7 GAS STATICCALL ISZERO DUP1 ISZERO PUSH2 0x14B9 JUMPI RETURNDATASIZE PUSH1 0x0 DUP1 RETURNDATACOPY RETURNDATASIZE PUSH1 0x0 REVERT JUMPDEST POP POP POP POP PUSH1 0x40 MLOAD RETURNDATASIZE PUSH1 0x1F NOT PUSH1 0x1F DUP3 ADD AND DUP3 ADD DUP1 PUSH1 0x40 MSTORE POP DUP2 ADD SWAP1 PUSH2 0x1180 SWAP2 SWAP1 PUSH2 0x2BBA JUMP JUMPDEST PUSH1 0x1 PUSH1 0x1 PUSH1 0xA0 SHL SUB DUP2 AND PUSH1 0x0 SWAP1 DUP2 MSTORE PUSH1 0xB PUSH1 0x20 MSTORE PUSH1 0x40 DUP2 KECCAK256 SLOAD DUP2 DUP2 ISZERO DUP1 ISZERO SWAP1 PUSH2 0x1507 JUMPI POP PUSH1 0xD SLOAD DUP3 LT JUMPDEST ISZERO PUSH2 0x1521 JUMPI POP PUSH1 0x0 DUP2 DUP2 MSTORE PUSH1 0xC PUSH1 0x20 MSTORE PUSH1 0x40 SWAP1 KECCAK256 SLOAD PUSH2 0x1566 JUMP JUMPDEST POP PUSH1 0x3 SLOAD PUSH1 0x2 SLOAD ISZERO PUSH2 0x1566 JUMPI PUSH2 0x1559 PUSH1 0x2 SLOAD PUSH1 0x4 SLOAD TIMESTAMP PUSH2 0x1541 SWAP2 SWAP1 PUSH2 0x2B39 JUMP JUMPDEST PUSH2 0x1549 PUSH2 0x11D8 JUMP JUMPDEST PUSH2 0x1553 SWAP2 SWAP1 PUSH2 0x2B4C JUMP JUMPDEST SWAP1 PUSH2 0x18F5 JUMP JUMPDEST PUSH2 0x1563 SWAP1 DUP3 PUSH2 0x28B9 JUMP JUMPDEST SWAP1 POP JUMPDEST PUSH1 0x1 PUSH1 0x1 PUSH1 0xA0 SHL SUB DUP5 AND PUSH1 0x0 SWAP1 DUP2 MSTORE PUSH1 0x6 PUSH1 0x20 MSTORE PUSH1 0x40 SWAP1 KECCAK256 SLOAD PUSH2 0x15AC SWAP1 PUSH2 0x158D SWAP1 DUP4 PUSH2 0x2B39 JUMP JUMPDEST PUSH1 0x1 PUSH1 0x1 PUSH1 0xA0 SHL SUB DUP7 AND PUSH1 0x0 SWAP1 DUP2 MSTORE PUSH1 0x8 PUSH1 0x20 MSTORE PUSH1 0x40 SWAP1 KECCAK256 SLOAD SWAP1 PUSH2 0x18D4 JUMP JUMPDEST PUSH1 0x1 PUSH1 0x1 PUSH1 0xA0 SHL SUB DUP6 AND PUSH1 0x0 SWAP1 DUP2 MSTORE PUSH1 0x7 PUSH1 0x20 MSTORE PUSH1 0x40 SWAP1 KECCAK256 SLOAD PUSH2 0x15CF SWAP2 SWAP1 PUSH2 0x28B9 JUMP JUMPDEST SWAP5 SWAP4 POP POP POP POP JUMP JUMPDEST PUSH1 0x0 SLOAD PUSH1 0x40 DUP1 MLOAD DUP1 DUP3 ADD SWAP1 SWAP2 MSTORE PUSH1 0x2 DUP2 MSTORE PUSH2 0x333 PUSH1 0xF4 SHL PUSH1 0x20 DUP3 ADD MSTORE SWAP1 PUSH1 0x1 PUSH1 0x1 PUSH1 0xA0 SHL SUB AND CALLER EQ PUSH2 0x161C JUMPI PUSH1 0x40 MLOAD PUSH3 0x461BCD PUSH1 0xE5 SHL DUP2 MSTORE PUSH1 0x4 ADD PUSH2 0x5C5 SWAP2 SWAP1 PUSH2 0x2B87 JUMP JUMPDEST POP PUSH1 0x40 DUP1 MLOAD DUP1 DUP3 ADD SWAP1 SWAP2 MSTORE PUSH1 0x2 DUP2 MSTORE PUSH2 0x3331 PUSH1 0xF0 SHL PUSH1 0x20 DUP3 ADD MSTORE PUSH1 0x1 PUSH1 0x1 PUSH1 0xA0 SHL SUB DUP3 AND PUSH2 0x165D JUMPI PUSH1 0x40 MLOAD PUSH3 0x461BCD PUSH1 0xE5 SHL DUP2 MSTORE PUSH1 0x4 ADD PUSH2 0x5C5 SWAP2 SWAP1 PUSH2 0x2B87 JUMP JUMPDEST POP PUSH1 0x1 DUP1 SLOAD PUSH1 0x1 PUSH1 0x1 PUSH1 0xA0 SHL SUB NOT AND PUSH1 0x1 PUSH1 0x1 PUSH1 0xA0 SHL SUB DUP4 AND SWAP1 DUP2 OR SWAP1 SWAP2 SSTORE PUSH1 0x40 MLOAD SWAP1 DUP2 MSTORE PUSH32 0x67235BA2E63C748A35B95C4F92A3BBC2A1389938170A5CE6C9ADD5D0B03A314A SWAP1 PUSH1 0x20 ADD PUSH2 0x97D JUMP JUMPDEST PUSH1 0x0 SLOAD PUSH1 0x40 DUP1 MLOAD DUP1 DUP3 ADD SWAP1 SWAP2 MSTORE PUSH1 0x2 DUP2 MSTORE PUSH2 0x333 PUSH1 0xF4 SHL PUSH1 0x20 DUP3 ADD MSTORE SWAP1 PUSH1 0x1 PUSH1 0x1 PUSH1 0xA0 SHL SUB AND CALLER EQ PUSH2 0x16F1 JUMPI PUSH1 0x40 MLOAD PUSH3 0x461BCD PUSH1 0xE5 SHL DUP2 MSTORE PUSH1 0x4 ADD PUSH2 0x5C5 SWAP2 SWAP1 PUSH2 0x2B87 JUMP JUMPDEST POP PUSH32 0x0 DUP2 GT ISZERO PUSH2 0x1762 JUMPI PUSH1 0x40 MLOAD PUSH3 0x461BCD PUSH1 0xE5 SHL DUP2 MSTORE PUSH1 0x20 PUSH1 0x4 DUP3 ADD DUP2 SWAP1 MSTORE PUSH1 0x24 DUP3 ADD MSTORE PUSH32 0x696E76616C6964207769746864726177616C2077616974206475726174696F6E PUSH1 0x44 DUP3 ADD MSTORE PUSH1 0x64 ADD PUSH2 0x5C5 JUMP JUMPDEST PUSH1 0x12 SSTORE JUMP JUMPDEST PUSH1 0x0 SLOAD PUSH1 0x40 DUP1 MLOAD DUP1 DUP3 ADD SWAP1 SWAP2 MSTORE PUSH1 0x2 DUP2 MSTORE PUSH2 0x333 PUSH1 0xF4 SHL PUSH1 0x20 DUP3 ADD MSTORE SWAP1 PUSH1 0x1 PUSH1 0x1 PUSH1 0xA0 SHL SUB AND CALLER EQ PUSH2 0x17AC JUMPI PUSH1 0x40 MLOAD PUSH3 0x461BCD PUSH1 0xE5 SHL DUP2 MSTORE PUSH1 0x4 ADD PUSH2 0x5C5 SWAP2 SWAP1 PUSH2 0x2B87 JUMP JUMPDEST POP PUSH2 0x1307 DUP2 PUSH2 0x1DE9 JUMP JUMPDEST PUSH1 0x40 MLOAD PUSH4 0x21F8A721 PUSH1 0xE0 SHL DUP2 MSTORE PUSH17 0x4759445F544F4B454E5F41444452455353 PUSH1 0x78 SHL PUSH1 0x4 DUP3 ADD MSTORE PUSH1 0x0 SWAP1 PUSH1 0x1 PUSH1 0x1 PUSH1 0xA0 SHL SUB DUP4 AND SWAP1 PUSH4 0x21F8A721 SWAP1 PUSH1 0x24 ADD JUMPDEST PUSH1 0x20 PUSH1 0x40 MLOAD DUP1 DUP4 SUB DUP2 DUP7 GAS STATICCALL ISZERO DUP1 ISZERO PUSH2 0x1812 JUMPI RETURNDATASIZE PUSH1 0x0 DUP1 RETURNDATACOPY RETURNDATASIZE PUSH1 0x0 REVERT JUMPDEST POP POP POP POP PUSH1 0x40 MLOAD RETURNDATASIZE PUSH1 0x1F NOT PUSH1 0x1F DUP3 ADD AND DUP3 ADD DUP1 PUSH1 0x40 MSTORE POP DUP2 ADD SWAP1 PUSH2 0x715 SWAP2 SWAP1 PUSH2 0x2BE9 JUMP JUMPDEST PUSH2 0x183F DUP3 PUSH2 0x11F1 JUMP JUMPDEST PUSH1 0x1 PUSH1 0x1 PUSH1 0xA0 SHL SUB DUP3 AND PUSH1 0x0 SWAP1 DUP2 MSTORE PUSH1 0x8 PUSH1 0x20 MSTORE PUSH1 0x40 DUP2 KECCAK256 DUP1 SLOAD DUP4 SWAP3 SWAP1 PUSH2 0x1867 SWAP1 DUP5 SWAP1 PUSH2 0x2B39 JUMP JUMPDEST SWAP3 POP POP DUP2 SWAP1 SSTORE POP DUP1 PUSH1 0x2 PUSH1 0x0 DUP3 DUP3 SLOAD PUSH2 0x1880 SWAP2 SWAP1 PUSH2 0x2B39 JUMP JUMPDEST SWAP1 SWAP2 SSTORE POP POP PUSH1 0x40 MLOAD DUP2 DUP2 MSTORE PUSH1 0x1 PUSH1 0x1 PUSH1 0xA0 SHL SUB DUP4 AND SWAP1 PUSH32 0x85082129D87B2FE11527CB1B3B7A520AEB5AA6913F88A3D8757FE40D1DB02FDD SWAP1 PUSH1 0x20 ADD JUMPDEST PUSH1 0x40 MLOAD DUP1 SWAP2 SUB SWAP1 LOG2 POP POP JUMP JUMPDEST PUSH1 0x0 PUSH2 0x11D1 DUP4 DUP4 PUSH2 0x1EF2 JUMP JUMPDEST PUSH1 0x0 DUP1 PUSH2 0x18E1 DUP4 DUP6 PUSH2 0x2B4C JUMP JUMPDEST SWAP1 POP PUSH2 0x15CF PUSH8 0xDE0B6B3A7640000 DUP3 PUSH2 0x2C06 JUMP JUMPDEST PUSH1 0x40 DUP1 MLOAD DUP1 DUP3 ADD SWAP1 SWAP2 MSTORE PUSH1 0x2 DUP2 MSTORE PUSH2 0x3235 PUSH1 0xF0 SHL PUSH1 0x20 DUP3 ADD MSTORE PUSH1 0x0 SWAP1 DUP3 PUSH2 0x192F JUMPI PUSH1 0x40 MLOAD PUSH3 0x461BCD PUSH1 0xE5 SHL DUP2 MSTORE PUSH1 0x4 ADD PUSH2 0x5C5 SWAP2 SWAP1 PUSH2 0x2B87 JUMP JUMPDEST POP DUP3 PUSH1 0x0 SUB PUSH2 0x1940 JUMPI POP PUSH1 0x0 PUSH2 0x715 JUMP JUMPDEST PUSH1 0x0 PUSH2 0x1954 PUSH8 0xDE0B6B3A7640000 DUP6 PUSH2 0x2B4C JUMP JUMPDEST SWAP1 POP PUSH2 0x1960 DUP4 DUP3 PUSH2 0x2C06 JUMP JUMPDEST SWAP2 POP POP PUSH2 0x715 JUMP JUMPDEST PUSH1 0x40 MLOAD PUSH4 0x21F8A721 PUSH1 0xE0 SHL DUP2 MSTORE PUSH32 0x53544557415244534849505F494E435F41444452455353000000000000000000 PUSH1 0x4 DUP3 ADD MSTORE PUSH1 0x0 SWAP1 PUSH1 0x1 PUSH1 0x1 PUSH1 0xA0 SHL SUB DUP4 AND SWAP1 PUSH4 0x21F8A721 SWAP1 PUSH1 0x24 ADD PUSH2 0x17F5 JUMP JUMPDEST PUSH1 0x40 MLOAD PUSH4 0x21F8A721 PUSH1 0xE0 SHL DUP2 MSTORE PUSH32 0x524553455256455F4D414E414745525F41444452455353000000000000000000 PUSH1 0x4 DUP3 ADD MSTORE PUSH1 0x0 SWAP1 PUSH1 0x1 PUSH1 0x1 PUSH1 0xA0 SHL SUB DUP4 AND SWAP1 PUSH4 0x21F8A721 SWAP1 PUSH1 0x24 ADD PUSH2 0x17F5 JUMP JUMPDEST PUSH1 0x0 PUSH2 0x1A11 DUP3 PUSH2 0xEF7 JUMP JUMPDEST PUSH2 0x1A1D JUMPI POP PUSH1 0x0 SWAP2 SWAP1 POP JUMP JUMPDEST PUSH1 0x40 MLOAD PUSH4 0xBD02D0F5 PUSH1 0xE0 SHL DUP2 MSTORE PUSH22 0x23ACA22FA922A1A7AB22A92CAFAA20A923A2AA2FA1A9 PUSH1 0x51 SHL PUSH1 0x4 DUP3 ADD MSTORE PUSH1 0x0 SWAP1 PUSH32 0x0 PUSH1 0x1 PUSH1 0x1 PUSH1 0xA0 SHL SUB AND SWAP1 PUSH4 0xBD02D0F5 SWAP1 PUSH1 0x24 ADD PUSH1 0x20 PUSH1 0x40 MLOAD DUP1 DUP4 SUB DUP2 DUP7 GAS STATICCALL ISZERO DUP1 ISZERO PUSH2 0x1A9D JUMPI RETURNDATASIZE PUSH1 0x0 DUP1 RETURNDATACOPY RETURNDATASIZE PUSH1 0x0 REVERT JUMPDEST POP POP POP POP PUSH1 0x40 MLOAD RETURNDATASIZE PUSH1 0x1F NOT PUSH1 0x1F DUP3 ADD AND DUP3 ADD DUP1 PUSH1 0x40 MSTORE POP DUP2 ADD SWAP1 PUSH2 0x1AC1 SWAP2 SWAP1 PUSH2 0x2BBA JUMP JUMPDEST DUP4 MLOAD SWAP1 SWAP2 POP PUSH1 0x0 SWAP1 PUSH2 0x1AD3 SWAP1 DUP4 PUSH2 0x18F5 JUMP JUMPDEST SWAP1 POP PUSH1 0x0 PUSH32 0x0 PUSH1 0x1 PUSH1 0x1 PUSH1 0xA0 SHL SUB AND PUSH4 0x18160DDD PUSH1 0x40 MLOAD DUP2 PUSH4 0xFFFFFFFF AND PUSH1 0xE0 SHL DUP2 MSTORE PUSH1 0x4 ADD PUSH1 0x20 PUSH1 0x40 MLOAD DUP1 DUP4 SUB DUP2 DUP7 GAS STATICCALL ISZERO DUP1 ISZERO PUSH2 0x1B35 JUMPI RETURNDATASIZE PUSH1 0x0 DUP1 RETURNDATACOPY RETURNDATASIZE PUSH1 0x0 REVERT JUMPDEST POP POP POP POP PUSH1 0x40 MLOAD RETURNDATASIZE PUSH1 0x1F NOT PUSH1 0x1F DUP3 ADD AND DUP3 ADD DUP1 PUSH1 0x40 MSTORE POP DUP2 ADD SWAP1 PUSH2 0x1B59 SWAP2 SWAP1 PUSH2 0x2BBA JUMP JUMPDEST SWAP1 POP DUP1 DUP3 LT PUSH2 0x1B6D JUMPI POP PUSH1 0x0 SWAP5 SWAP4 POP POP POP POP JUMP JUMPDEST PUSH1 0x0 PUSH2 0x1B79 DUP4 DUP4 PUSH2 0x2B39 JUMP JUMPDEST SWAP1 POP PUSH2 0x1B84 DUP2 PUSH2 0x1F41 JUMP JUMPDEST SWAP7 SWAP6 POP POP POP POP POP POP JUMP JUMPDEST PUSH1 0x0 PUSH2 0x11D1 DUP4 DUP4 PUSH2 0x20C5 JUMP JUMPDEST PUSH1 0x40 MLOAD PUSH1 0x1 PUSH1 0x1 PUSH1 0xA0 SHL SUB DUP4 AND PUSH1 0x24 DUP3 ADD MSTORE PUSH1 0x44 DUP2 ADD DUP3 SWAP1 MSTORE PUSH2 0xEE1 SWAP1 DUP5 SWAP1 PUSH4 0xA9059CBB PUSH1 0xE0 SHL SWAP1 PUSH1 0x64 ADD JUMPDEST PUSH1 0x40 DUP1 MLOAD PUSH1 0x1F NOT DUP2 DUP5 SUB ADD DUP2 MSTORE SWAP2 SWAP1 MSTORE PUSH1 0x20 DUP2 ADD DUP1 MLOAD PUSH1 0x1 PUSH1 0x1 PUSH1 0xE0 SHL SUB AND PUSH1 0x1 PUSH1 0x1 PUSH1 0xE0 SHL SUB NOT SWAP1 SWAP4 AND SWAP3 SWAP1 SWAP3 OR SWAP1 SWAP2 MSTORE PUSH2 0x21B8 JUMP JUMPDEST PUSH1 0x40 MLOAD PUSH1 0x1 PUSH1 0x1 PUSH1 0xA0 SHL SUB DUP1 DUP6 AND PUSH1 0x24 DUP4 ADD MSTORE DUP4 AND PUSH1 0x44 DUP3 ADD MSTORE PUSH1 0x64 DUP2 ADD DUP3 SWAP1 MSTORE PUSH2 0x1C35 SWAP1 DUP6 SWAP1 PUSH4 0x23B872DD PUSH1 0xE0 SHL SWAP1 PUSH1 0x84 ADD PUSH2 0x1BC6 JUMP JUMPDEST POP POP POP POP JUMP JUMPDEST PUSH2 0x1C44 DUP3 PUSH2 0x11F1 JUMP JUMPDEST DUP1 PUSH1 0x2 PUSH1 0x0 DUP3 DUP3 SLOAD PUSH2 0x1C56 SWAP2 SWAP1 PUSH2 0x28B9 JUMP JUMPDEST SWAP1 SWAP2 SSTORE POP POP PUSH1 0x1 PUSH1 0x1 PUSH1 0xA0 SHL SUB DUP3 AND PUSH1 0x0 SWAP1 DUP2 MSTORE PUSH1 0x8 PUSH1 0x20 MSTORE PUSH1 0x40 DUP2 KECCAK256 DUP1 SLOAD DUP4 SWAP3 SWAP1 PUSH2 0x1C83 SWAP1 DUP5 SWAP1 PUSH2 0x28B9 JUMP JUMPDEST SWAP1 SWAP2 SSTORE POP POP PUSH1 0x40 MLOAD DUP2 DUP2 MSTORE PUSH1 0x1 PUSH1 0x1 PUSH1 0xA0 SHL SUB DUP4 AND SWAP1 PUSH32 0xEBEDB8B3C678666E7F36970BC8F57ABF6D8FA2E828C0DA91EA5B75BF68ED101A SWAP1 PUSH1 0x20 ADD PUSH2 0x18BC JUMP JUMPDEST PUSH1 0x0 PUSH2 0x1CF9 PUSH1 0x1 PUSH1 0x1 PUSH1 0xA0 SHL SUB PUSH32 0x0 AND DUP5 DUP5 PUSH2 0x1B9A JUMP JUMPDEST POP SWAP2 SWAP1 POP JUMP JUMPDEST PUSH1 0x40 MLOAD PUSH4 0x21F8A721 PUSH1 0xE0 SHL DUP2 MSTORE PUSH19 0x4D4F54484552424F4152445F41444452455353 PUSH1 0x68 SHL PUSH1 0x4 DUP3 ADD MSTORE PUSH1 0x0 SWAP1 PUSH1 0x1 PUSH1 0x1 PUSH1 0xA0 SHL SUB DUP4 AND SWAP1 PUSH4 0x21F8A721 SWAP1 PUSH1 0x24 ADD PUSH2 0x17F5 JUMP JUMPDEST PUSH2 0x1D4C PUSH2 0x862 JUMP JUMPDEST PUSH2 0x1D81 PUSH1 0x1 PUSH1 0x1 PUSH1 0xA0 SHL SUB PUSH32 0x0 AND DUP5 ADDRESS DUP6 PUSH2 0x1BFD JUMP JUMPDEST PUSH2 0x1D8B TIMESTAMP DUP3 PUSH2 0x2B39 JUMP JUMPDEST PUSH2 0x1D95 SWAP1 DUP4 PUSH2 0x2C06 JUMP JUMPDEST PUSH1 0x9 SSTORE PUSH1 0xA DUP2 SWAP1 SSTORE PUSH1 0x40 DUP1 MLOAD DUP4 DUP2 MSTORE PUSH1 0x20 DUP2 ADD DUP4 SWAP1 MSTORE PUSH32 0x76554FAC4477E8876B3DE3AF392CF374CF4E9DE02AE78FBADE2373107381FE50 SWAP2 ADD PUSH2 0xD45 JUMP JUMPDEST PUSH1 0x0 PUSH2 0x715 DUP3 SLOAD SWAP1 JUMP JUMPDEST PUSH1 0x0 PUSH2 0x11D1 DUP4 DUP4 PUSH2 0x228A JUMP JUMPDEST PUSH2 0x1DF1 PUSH2 0x862 JUMP JUMPDEST PUSH1 0x5 SLOAD PUSH1 0x40 MLOAD PUSH4 0x70A08231 PUSH1 0xE0 SHL DUP2 MSTORE ADDRESS PUSH1 0x4 DUP3 ADD MSTORE PUSH1 0x0 SWAP2 SWAP1 PUSH1 0x1 PUSH1 0x1 PUSH1 0xA0 SHL SUB PUSH32 0x0 AND SWAP1 PUSH4 0x70A08231 SWAP1 PUSH1 0x24 ADD PUSH1 0x20 PUSH1 0x40 MLOAD DUP1 DUP4 SUB DUP2 DUP7 GAS STATICCALL ISZERO DUP1 ISZERO PUSH2 0x1E5C JUMPI RETURNDATASIZE PUSH1 0x0 DUP1 RETURNDATACOPY RETURNDATASIZE PUSH1 0x0 REVERT JUMPDEST POP POP POP POP PUSH1 0x40 MLOAD RETURNDATASIZE PUSH1 0x1F NOT PUSH1 0x1F DUP3 ADD AND DUP3 ADD DUP1 PUSH1 0x40 MSTORE POP DUP2 ADD SWAP1 PUSH2 0x1E80 SWAP2 SWAP1 PUSH2 0x2BBA JUMP JUMPDEST PUSH2 0x1E8A SWAP2 SWAP1 PUSH2 0x2B39 JUMP JUMPDEST SWAP1 POP PUSH2 0x1EC0 PUSH1 0x1 PUSH1 0x1 PUSH1 0xA0 SHL SUB PUSH32 0x0 AND DUP4 DUP4 PUSH2 0x1B9A JUMP JUMPDEST PUSH1 0x0 PUSH1 0xA DUP2 SWAP1 SSTORE PUSH1 0x40 MLOAD PUSH32 0xE5A0E15E63EDB96A15ED99A9C2A3674E2E0BD1B10B65D0223CCE19A6B54E7FB1 SWAP2 SWAP1 LOG1 POP POP JUMP JUMPDEST PUSH1 0x0 DUP2 DUP2 MSTORE PUSH1 0x1 DUP4 ADD PUSH1 0x20 MSTORE PUSH1 0x40 DUP2 KECCAK256 SLOAD PUSH2 0x1F39 JUMPI POP DUP2 SLOAD PUSH1 0x1 DUP2 DUP2 ADD DUP5 SSTORE PUSH1 0x0 DUP5 DUP2 MSTORE PUSH1 0x20 DUP1 DUP3 KECCAK256 SWAP1 SWAP4 ADD DUP5 SWAP1 SSTORE DUP5 SLOAD DUP5 DUP3 MSTORE DUP3 DUP7 ADD SWAP1 SWAP4 MSTORE PUSH1 0x40 SWAP1 KECCAK256 SWAP2 SWAP1 SWAP2 SSTORE PUSH2 0x715 JUMP JUMPDEST POP PUSH1 0x0 PUSH2 0x715 JUMP JUMPDEST PUSH1 0x0 PUSH2 0x1F4B PUSH2 0x862 JUMP JUMPDEST PUSH1 0x0 PUSH2 0x1F55 PUSH2 0x1452 JUMP JUMPDEST SWAP1 POP PUSH1 0x0 PUSH2 0x1F75 PUSH2 0x12A7 PUSH7 0x2386F26FC10000 PUSH8 0xDE0B6B3A7640000 PUSH2 0x2B39 JUMP JUMPDEST DUP5 LT DUP1 ISZERO SWAP2 POP PUSH2 0x1FC7 JUMPI DUP2 SWAP4 POP PUSH1 0x3 SLOAD PUSH1 0xC PUSH1 0x0 PUSH1 0xD SLOAD DUP2 MSTORE PUSH1 0x20 ADD SWAP1 DUP2 MSTORE PUSH1 0x20 ADD PUSH1 0x0 KECCAK256 DUP2 SWAP1 SSTORE POP PUSH1 0xD PUSH1 0x0 DUP2 SLOAD PUSH2 0x1FAD SWAP1 PUSH2 0x28A0 JUMP JUMPDEST SWAP1 SWAP2 SSTORE POP PUSH8 0xDE0B6B3A7640000 PUSH1 0xE SSTORE PUSH1 0x0 PUSH1 0x2 SSTORE PUSH2 0x1FFC JUMP JUMPDEST PUSH1 0x0 PUSH2 0x1FE3 DUP4 PUSH2 0x1553 PUSH2 0x1FDA DUP9 DUP4 PUSH2 0x2B39 JUMP JUMPDEST PUSH1 0xE SLOAD SWAP1 PUSH2 0x18D4 JUMP JUMPDEST SWAP1 POP DUP1 PUSH1 0x0 SUB PUSH2 0x1FF8 JUMPI POP PUSH1 0x0 SWAP5 SWAP4 POP POP POP POP JUMP JUMPDEST PUSH1 0xE SSTORE JUMPDEST PUSH1 0x40 MLOAD PUSH4 0x852CD8D PUSH1 0xE3 SHL DUP2 MSTORE PUSH1 0x4 DUP2 ADD DUP6 SWAP1 MSTORE PUSH32 0x0 PUSH1 0x1 PUSH1 0x1 PUSH1 0xA0 SHL SUB AND SWAP1 PUSH4 0x42966C68 SWAP1 PUSH1 0x24 ADD PUSH1 0x0 PUSH1 0x40 MLOAD DUP1 DUP4 SUB DUP2 PUSH1 0x0 DUP8 DUP1 EXTCODESIZE ISZERO DUP1 ISZERO PUSH2 0x205E JUMPI PUSH1 0x0 DUP1 REVERT JUMPDEST POP GAS CALL ISZERO DUP1 ISZERO PUSH2 0x2072 JUMPI RETURNDATASIZE PUSH1 0x0 DUP1 RETURNDATACOPY RETURNDATASIZE PUSH1 0x0 REVERT JUMPDEST POP POP PUSH1 0xE SLOAD PUSH1 0x40 DUP1 MLOAD DUP9 DUP2 MSTORE DUP6 ISZERO ISZERO PUSH1 0x20 DUP3 ADD MSTORE DUP1 DUP3 ADD SWAP3 SWAP1 SWAP3 MSTORE MLOAD PUSH32 0x37ED7585C7F773823577DE180502D8778ADEF528B0D258E481B6E2DDD28B725C SWAP4 POP SWAP1 DUP2 SWAP1 SUB PUSH1 0x60 ADD SWAP2 POP LOG1 POP PUSH1 0x1 SWAP4 SWAP3 POP POP POP JUMP JUMPDEST PUSH1 0x0 DUP2 DUP2 MSTORE PUSH1 0x1 DUP4 ADD PUSH1 0x20 MSTORE PUSH1 0x40 DUP2 KECCAK256 SLOAD DUP1 ISZERO PUSH2 0x21AE JUMPI PUSH1 0x0 PUSH2 0x20E9 PUSH1 0x1 DUP4 PUSH2 0x2B39 JUMP JUMPDEST DUP6 SLOAD SWAP1 SWAP2 POP PUSH1 0x0 SWAP1 PUSH2 0x20FD SWAP1 PUSH1 0x1 SWAP1 PUSH2 0x2B39 JUMP JUMPDEST SWAP1 POP DUP2 DUP2 EQ PUSH2 0x2162 JUMPI PUSH1 0x0 DUP7 PUSH1 0x0 ADD DUP3 DUP2 SLOAD DUP2 LT PUSH2 0x211D JUMPI PUSH2 0x211D PUSH2 0x2BD3 JUMP JUMPDEST SWAP1 PUSH1 0x0 MSTORE PUSH1 0x20 PUSH1 0x0 KECCAK256 ADD SLOAD SWAP1 POP DUP1 DUP8 PUSH1 0x0 ADD DUP5 DUP2 SLOAD DUP2 LT PUSH2 0x2140 JUMPI PUSH2 0x2140 PUSH2 0x2BD3 JUMP JUMPDEST PUSH1 0x0 SWAP2 DUP3 MSTORE PUSH1 0x20 DUP1 DUP4 KECCAK256 SWAP1 SWAP2 ADD SWAP3 SWAP1 SWAP3 SSTORE SWAP2 DUP3 MSTORE PUSH1 0x1 DUP9 ADD SWAP1 MSTORE PUSH1 0x40 SWAP1 KECCAK256 DUP4 SWAP1 SSTORE JUMPDEST DUP6 SLOAD DUP7 SWAP1 DUP1 PUSH2 0x2173 JUMPI PUSH2 0x2173 PUSH2 0x2C28 JUMP JUMPDEST PUSH1 0x1 SWAP1 SUB DUP2 DUP2 SWAP1 PUSH1 0x0 MSTORE PUSH1 0x20 PUSH1 0x0 KECCAK256 ADD PUSH1 0x0 SWAP1 SSTORE SWAP1 SSTORE DUP6 PUSH1 0x1 ADD PUSH1 0x0 DUP7 DUP2 MSTORE PUSH1 0x20 ADD SWAP1 DUP2 MSTORE PUSH1 0x20 ADD PUSH1 0x0 KECCAK256 PUSH1 0x0 SWAP1 SSTORE PUSH1 0x1 SWAP4 POP POP POP POP PUSH2 0x715 JUMP JUMPDEST PUSH1 0x0 SWAP2 POP POP PUSH2 0x715 JUMP JUMPDEST PUSH1 0x0 PUSH2 0x220D DUP3 PUSH1 0x40 MLOAD DUP1 PUSH1 0x40 ADD PUSH1 0x40 MSTORE DUP1 PUSH1 0x20 DUP2 MSTORE PUSH1 0x20 ADD PUSH32 0x5361666545524332303A206C6F772D6C6576656C2063616C6C206661696C6564 DUP2 MSTORE POP DUP6 PUSH1 0x1 PUSH1 0x1 PUSH1 0xA0 SHL SUB AND PUSH2 0x22B4 SWAP1 SWAP3 SWAP2 SWAP1 PUSH4 0xFFFFFFFF AND JUMP JUMPDEST DUP1 MLOAD SWAP1 SWAP2 POP ISZERO PUSH2 0xEE1 JUMPI DUP1 DUP1 PUSH1 0x20 ADD SWAP1 MLOAD DUP2 ADD SWAP1 PUSH2 0x222B SWAP2 SWAP1 PUSH2 0x2C3E JUMP JUMPDEST PUSH2 0xEE1 JUMPI PUSH1 0x40 MLOAD PUSH3 0x461BCD PUSH1 0xE5 SHL DUP2 MSTORE PUSH1 0x20 PUSH1 0x4 DUP3 ADD MSTORE PUSH1 0x2A PUSH1 0x24 DUP3 ADD MSTORE PUSH32 0x5361666545524332303A204552433230206F7065726174696F6E20646964206E PUSH1 0x44 DUP3 ADD MSTORE PUSH10 0x1BDD081CDD58D8D95959 PUSH1 0xB2 SHL PUSH1 0x64 DUP3 ADD MSTORE PUSH1 0x84 ADD PUSH2 0x5C5 JUMP JUMPDEST PUSH1 0x0 DUP3 PUSH1 0x0 ADD DUP3 DUP2 SLOAD DUP2 LT PUSH2 0x22A1 JUMPI PUSH2 0x22A1 PUSH2 0x2BD3 JUMP JUMPDEST SWAP1 PUSH1 0x0 MSTORE PUSH1 0x20 PUSH1 0x0 KECCAK256 ADD SLOAD SWAP1 POP SWAP3 SWAP2 POP POP JUMP JUMPDEST PUSH1 0x60 PUSH2 0x15CF DUP5 DUP5 PUSH1 0x0 DUP6 DUP6 DUP5 EXTCODESIZE PUSH2 0x230D JUMPI PUSH1 0x40 MLOAD PUSH3 0x461BCD PUSH1 0xE5 SHL DUP2 MSTORE PUSH1 0x20 PUSH1 0x4 DUP3 ADD MSTORE PUSH1 0x1D PUSH1 0x24 DUP3 ADD MSTORE PUSH32 0x416464726573733A2063616C6C20746F206E6F6E2D636F6E7472616374000000 PUSH1 0x44 DUP3 ADD MSTORE PUSH1 0x64 ADD PUSH2 0x5C5 JUMP JUMPDEST PUSH1 0x0 DUP1 DUP7 PUSH1 0x1 PUSH1 0x1 PUSH1 0xA0 SHL SUB AND DUP6 DUP8 PUSH1 0x40 MLOAD PUSH2 0x2329 SWAP2 SWAP1 PUSH2 0x2C5B JUMP JUMPDEST PUSH1 0x0 PUSH1 0x40 MLOAD DUP1 DUP4 SUB DUP2 DUP6 DUP8 GAS CALL SWAP3 POP POP POP RETURNDATASIZE DUP1 PUSH1 0x0 DUP2 EQ PUSH2 0x2366 JUMPI PUSH1 0x40 MLOAD SWAP2 POP PUSH1 0x1F NOT PUSH1 0x3F RETURNDATASIZE ADD AND DUP3 ADD PUSH1 0x40 MSTORE RETURNDATASIZE DUP3 MSTORE RETURNDATASIZE PUSH1 0x0 PUSH1 0x20 DUP5 ADD RETURNDATACOPY PUSH2 0x236B JUMP JUMPDEST PUSH1 0x60 SWAP2 POP JUMPDEST POP SWAP2 POP SWAP2 POP PUSH2 0x237B DUP3 DUP3 DUP7 PUSH2 0x2386 JUMP JUMPDEST SWAP8 SWAP7 POP POP POP POP POP POP POP JUMP JUMPDEST PUSH1 0x60 DUP4 ISZERO PUSH2 0x2395 JUMPI POP DUP2 PUSH2 0x11D1 JUMP JUMPDEST DUP3 MLOAD ISZERO PUSH2 0x23A5 JUMPI DUP3 MLOAD DUP1 DUP5 PUSH1 0x20 ADD REVERT JUMPDEST DUP2 PUSH1 0x40 MLOAD PUSH3 0x461BCD PUSH1 0xE5 SHL DUP2 MSTORE PUSH1 0x4 ADD PUSH2 0x5C5 SWAP2 SWAP1 PUSH2 0x2B87 JUMP JUMPDEST PUSH1 0x0 PUSH1 0x20 DUP3 DUP5 SUB SLT ISZERO PUSH2 0x23D1 JUMPI PUSH1 0x0 DUP1 REVERT JUMPDEST POP CALLDATALOAD SWAP2 SWAP1 POP JUMP JUMPDEST PUSH1 0x1 PUSH1 0x1 PUSH1 0xA0 SHL SUB DUP2 AND DUP2 EQ PUSH2 0x1307 JUMPI PUSH1 0x0 DUP1 REVERT JUMPDEST DUP1 CALLDATALOAD PUSH2 0x23F8 DUP2 PUSH2 0x23D8 JUMP JUMPDEST SWAP2 SWAP1 POP JUMP JUMPDEST PUSH1 0x0 PUSH1 0x20 DUP3 DUP5 SUB SLT ISZERO PUSH2 0x240F JUMPI PUSH1 0x0 DUP1 REVERT JUMPDEST DUP2 CALLDATALOAD PUSH2 0x11D1 DUP2 PUSH2 0x23D8 JUMP JUMPDEST PUSH1 0x0 DUP1 PUSH1 0x40 DUP4 DUP6 SUB SLT ISZERO PUSH2 0x242D JUMPI PUSH1 0x0 DUP1 REVERT JUMPDEST DUP3 CALLDATALOAD PUSH2 0x2438 DUP2 PUSH2 0x23D8 JUMP JUMPDEST SWAP5 PUSH1 0x20 SWAP4 SWAP1 SWAP4 ADD CALLDATALOAD SWAP4 POP POP POP JUMP JUMPDEST PUSH4 0x4E487B71 PUSH1 0xE0 SHL PUSH1 0x0 MSTORE PUSH1 0x41 PUSH1 0x4 MSTORE PUSH1 0x24 PUSH1 0x0 REVERT JUMPDEST PUSH1 0x40 MLOAD PUSH1 0x80 DUP2 ADD PUSH8 0xFFFFFFFFFFFFFFFF DUP2 GT DUP3 DUP3 LT OR ISZERO PUSH2 0x247F JUMPI PUSH2 0x247F PUSH2 0x2446 JUMP JUMPDEST PUSH1 0x40 MSTORE SWAP1 JUMP JUMPDEST PUSH1 0x40 MLOAD PUSH1 0x60 DUP2 ADD PUSH8 0xFFFFFFFFFFFFFFFF DUP2 GT DUP3 DUP3 LT OR ISZERO PUSH2 0x247F JUMPI PUSH2 0x247F PUSH2 0x2446 JUMP JUMPDEST PUSH1 0x40 DUP1 MLOAD SWAP1 DUP2 ADD PUSH8 0xFFFFFFFFFFFFFFFF DUP2 GT DUP3 DUP3 LT OR ISZERO PUSH2 0x247F JUMPI PUSH2 0x247F PUSH2 0x2446 JUMP JUMPDEST PUSH1 0x40 MLOAD PUSH2 0x120 DUP2 ADD PUSH8 0xFFFFFFFFFFFFFFFF DUP2 GT DUP3 DUP3 LT OR ISZERO PUSH2 0x247F JUMPI PUSH2 0x247F PUSH2 0x2446 JUMP JUMPDEST PUSH1 0x40 MLOAD PUSH1 0x1F DUP3 ADD PUSH1 0x1F NOT AND DUP2 ADD PUSH8 0xFFFFFFFFFFFFFFFF DUP2 GT DUP3 DUP3 LT OR ISZERO PUSH2 0x2518 JUMPI PUSH2 0x2518 PUSH2 0x2446 JUMP JUMPDEST PUSH1 0x40 MSTORE SWAP2 SWAP1 POP JUMP JUMPDEST PUSH1 0x0 PUSH8 0xFFFFFFFFFFFFFFFF DUP3 GT ISZERO PUSH2 0x253A JUMPI PUSH2 0x253A PUSH2 0x2446 JUMP JUMPDEST POP PUSH1 0x5 SHL PUSH1 0x20 ADD SWAP1 JUMP JUMPDEST PUSH1 0xFF DUP2 AND DUP2 EQ PUSH2 0x1307 JUMPI PUSH1 0x0 DUP1 REVERT JUMPDEST DUP1 CALLDATALOAD PUSH2 0x23F8 DUP2 PUSH2 0x2544 JUMP JUMPDEST PUSH1 0x0 PUSH1 0x80 DUP3 DUP5 SUB SLT ISZERO PUSH2 0x2570 JUMPI PUSH1 0x0 DUP1 REVERT JUMPDEST PUSH2 0x2578 PUSH2 0x245C JUMP JUMPDEST SWAP1 POP DUP2 CALLDATALOAD DUP2 MSTORE PUSH1 0x20 DUP3 ADD CALLDATALOAD PUSH1 0x20 DUP3 ADD MSTORE PUSH1 0x40 DUP3 ADD CALLDATALOAD PUSH1 0x40 DUP3 ADD MSTORE PUSH1 0x60 DUP3 ADD CALLDATALOAD PUSH1 0x60 DUP3 ADD MSTORE SWAP3 SWAP2 POP POP JUMP JUMPDEST DUP1 ISZERO ISZERO DUP2 EQ PUSH2 0x1307 JUMPI PUSH1 0x0 DUP1 REVERT JUMPDEST PUSH1 0x0 DUP3 PUSH1 0x1F DUP4 ADD SLT PUSH2 0x25C1 JUMPI PUSH1 0x0 DUP1 REVERT JUMPDEST DUP2 CALLDATALOAD PUSH1 0x20 PUSH2 0x25D6 PUSH2 0x25D1 DUP4 PUSH2 0x2520 JUMP JUMPDEST PUSH2 0x24EF JUMP JUMPDEST DUP3 DUP2 MSTORE PUSH1 0x60 SWAP3 DUP4 MUL DUP6 ADD DUP3 ADD SWAP3 DUP3 DUP3 ADD SWAP2 SWAP1 DUP8 DUP6 GT ISZERO PUSH2 0x25F5 JUMPI PUSH1 0x0 DUP1 REVERT JUMPDEST DUP4 DUP8 ADD JUMPDEST DUP6 DUP2 LT ISZERO PUSH2 0x264E JUMPI DUP2 DUP2 DUP11 SUB SLT ISZERO PUSH2 0x2611 JUMPI PUSH1 0x0 DUP1 DUP2 REVERT JUMPDEST PUSH2 0x2619 PUSH2 0x2485 JUMP JUMPDEST DUP2 CALLDATALOAD PUSH2 0x2624 DUP2 PUSH2 0x23D8 JUMP JUMPDEST DUP2 MSTORE DUP2 DUP7 ADD CALLDATALOAD PUSH2 0x2633 DUP2 PUSH2 0x25A2 JUMP JUMPDEST DUP2 DUP8 ADD MSTORE PUSH1 0x40 DUP3 DUP2 ADD CALLDATALOAD SWAP1 DUP3 ADD MSTORE DUP5 MSTORE SWAP3 DUP5 ADD SWAP3 DUP2 ADD PUSH2 0x25F9 JUMP JUMPDEST POP SWAP1 SWAP8 SWAP7 POP POP POP POP POP POP POP JUMP JUMPDEST PUSH1 0x0 PUSH1 0x20 DUP1 DUP4 DUP6 SUB SLT ISZERO PUSH2 0x266E JUMPI PUSH1 0x0 DUP1 REVERT JUMPDEST DUP3 CALLDATALOAD PUSH8 0xFFFFFFFFFFFFFFFF DUP1 DUP3 GT ISZERO PUSH2 0x2686 JUMPI PUSH1 0x0 DUP1 REVERT JUMPDEST SWAP1 DUP5 ADD SWAP1 PUSH1 0x40 DUP3 DUP8 SUB SLT ISZERO PUSH2 0x269A JUMPI PUSH1 0x0 DUP1 REVERT JUMPDEST PUSH2 0x26A2 PUSH2 0x24A8 JUMP JUMPDEST DUP3 CALLDATALOAD DUP2 MSTORE DUP4 DUP4 ADD CALLDATALOAD DUP3 DUP2 GT ISZERO PUSH2 0x26B7 JUMPI PUSH1 0x0 DUP1 REVERT JUMPDEST DUP1 DUP5 ADD SWAP4 POP POP DUP7 PUSH1 0x1F DUP5 ADD SLT PUSH2 0x26CC JUMPI PUSH1 0x0 DUP1 REVERT JUMPDEST DUP3 CALLDATALOAD PUSH2 0x26DA PUSH2 0x25D1 DUP3 PUSH2 0x2520 JUMP JUMPDEST DUP2 DUP2 MSTORE PUSH1 0x5 SWAP2 SWAP1 SWAP2 SHL DUP5 ADD DUP6 ADD SWAP1 DUP6 DUP2 ADD SWAP1 DUP10 DUP4 GT ISZERO PUSH2 0x26F9 JUMPI PUSH1 0x0 DUP1 REVERT JUMPDEST DUP7 DUP7 ADD JUMPDEST DUP4 DUP2 LT ISZERO PUSH2 0x27D5 JUMPI DUP1 CALLDATALOAD DUP7 DUP2 GT ISZERO PUSH2 0x2714 JUMPI PUSH1 0x0 DUP1 REVERT JUMPDEST DUP8 ADD PUSH2 0x180 DUP2 DUP14 SUB PUSH1 0x1F NOT ADD DUP2 SGT ISZERO PUSH2 0x272C JUMPI PUSH1 0x0 DUP1 REVERT JUMPDEST PUSH2 0x2734 PUSH2 0x24CB JUMP JUMPDEST PUSH2 0x273F DUP12 DUP5 ADD PUSH2 0x23ED JUMP JUMPDEST DUP2 MSTORE PUSH2 0x274D PUSH1 0x40 DUP5 ADD PUSH2 0x2553 JUMP JUMPDEST DUP12 DUP3 ADD MSTORE PUSH2 0x275D PUSH1 0x60 DUP5 ADD PUSH2 0x23ED JUMP JUMPDEST PUSH1 0x40 DUP3 ADD MSTORE PUSH1 0x80 DUP4 ADD CALLDATALOAD PUSH1 0x60 DUP3 ADD MSTORE PUSH1 0xA0 PUSH2 0x277A DUP16 DUP3 DUP7 ADD PUSH2 0x255E JUMP JUMPDEST PUSH1 0x80 DUP4 ADD MSTORE PUSH2 0x120 DUP5 ADD CALLDATALOAD SWAP1 DUP3 ADD MSTORE PUSH2 0x140 DUP4 ADD CALLDATALOAD PUSH1 0xC0 DUP3 ADD MSTORE PUSH2 0x160 DUP4 ADD CALLDATALOAD PUSH1 0xE0 DUP3 ADD MSTORE SWAP1 DUP3 ADD CALLDATALOAD SWAP1 DUP9 DUP3 GT ISZERO PUSH2 0x27B2 JUMPI PUSH1 0x0 DUP1 DUP2 REVERT JUMPDEST PUSH2 0x27C0 DUP15 DUP13 DUP5 DUP7 ADD ADD PUSH2 0x25B0 JUMP JUMPDEST PUSH2 0x100 DUP3 ADD MSTORE DUP6 MSTORE POP POP SWAP2 DUP8 ADD SWAP2 DUP8 ADD PUSH2 0x26FD JUMP JUMPDEST POP SWAP6 DUP4 ADD SWAP6 SWAP1 SWAP6 MSTORE POP SWAP7 SWAP6 POP POP POP POP POP POP JUMP JUMPDEST PUSH1 0x0 DUP1 PUSH1 0x0 PUSH1 0x60 DUP5 DUP7 SUB SLT ISZERO PUSH2 0x27FD JUMPI PUSH1 0x0 DUP1 REVERT JUMPDEST DUP4 CALLDATALOAD PUSH2 0x2808 DUP2 PUSH2 0x23D8 JUMP JUMPDEST SWAP6 PUSH1 0x20 DUP6 ADD CALLDATALOAD SWAP6 POP PUSH1 0x40 SWAP1 SWAP5 ADD CALLDATALOAD SWAP4 SWAP3 POP POP POP JUMP JUMPDEST PUSH1 0x20 DUP1 DUP3 MSTORE DUP3 MLOAD DUP3 DUP3 ADD DUP2 SWAP1 MSTORE PUSH1 0x0 SWAP2 SWAP1 PUSH1 0x40 SWAP1 DUP2 DUP6 ADD SWAP1 DUP7 DUP5 ADD DUP6 JUMPDEST DUP3 DUP2 LT ISZERO PUSH2 0x287D JUMPI DUP2 MLOAD DUP1 MLOAD DUP6 MSTORE DUP7 DUP2 ADD MLOAD DUP8 DUP7 ADD MSTORE DUP6 DUP2 ADD MLOAD DUP7 DUP7 ADD MSTORE PUSH1 0x60 SWAP1 DUP2 ADD MLOAD PUSH1 0x1 PUSH1 0x1 PUSH1 0xA0 SHL SUB AND SWAP1 DUP6 ADD MSTORE PUSH1 0x80 SWAP1 SWAP4 ADD SWAP3 SWAP1 DUP6 ADD SWAP1 PUSH1 0x1 ADD PUSH2 0x283A JUMP JUMPDEST POP SWAP2 SWAP8 SWAP7 POP POP POP POP POP POP POP JUMP JUMPDEST PUSH4 0x4E487B71 PUSH1 0xE0 SHL PUSH1 0x0 MSTORE PUSH1 0x11 PUSH1 0x4 MSTORE PUSH1 0x24 PUSH1 0x0 REVERT JUMPDEST PUSH1 0x0 PUSH1 0x1 DUP3 ADD PUSH2 0x28B2 JUMPI PUSH2 0x28B2 PUSH2 0x288A JUMP JUMPDEST POP PUSH1 0x1 ADD SWAP1 JUMP JUMPDEST DUP1 DUP3 ADD DUP1 DUP3 GT ISZERO PUSH2 0x715 JUMPI PUSH2 0x715 PUSH2 0x288A JUMP JUMPDEST DUP1 MLOAD PUSH2 0x23F8 DUP2 PUSH2 0x23D8 JUMP JUMPDEST DUP1 MLOAD PUSH2 0x23F8 DUP2 PUSH2 0x2544 JUMP JUMPDEST PUSH1 0x0 PUSH1 0x80 DUP3 DUP5 SUB SLT ISZERO PUSH2 0x28F4 JUMPI PUSH1 0x0 DUP1 REVERT JUMPDEST PUSH2 0x28FC PUSH2 0x245C JUMP JUMPDEST SWAP1 POP DUP2 MLOAD DUP2 MSTORE PUSH1 0x20 DUP3 ADD MLOAD PUSH1 0x20 DUP3 ADD MSTORE PUSH1 0x40 DUP3 ADD MLOAD PUSH1 0x40 DUP3 ADD MSTORE PUSH1 0x60 DUP3 ADD MLOAD PUSH1 0x60 DUP3 ADD MSTORE SWAP3 SWAP2 POP POP JUMP JUMPDEST PUSH1 0x0 DUP3 PUSH1 0x1F DUP4 ADD SLT PUSH2 0x2937 JUMPI PUSH1 0x0 DUP1 REVERT JUMPDEST DUP2 MLOAD PUSH1 0x20 PUSH2 0x2947 PUSH2 0x25D1 DUP4 PUSH2 0x2520 JUMP JUMPDEST DUP3 DUP2 MSTORE PUSH1 0x60 SWAP3 DUP4 MUL DUP6 ADD DUP3 ADD SWAP3 DUP3 DUP3 ADD SWAP2 SWAP1 DUP8 DUP6 GT ISZERO PUSH2 0x2966 JUMPI PUSH1 0x0 DUP1 REVERT JUMPDEST DUP4 DUP8 ADD JUMPDEST DUP6 DUP2 LT ISZERO PUSH2 0x264E JUMPI DUP2 DUP2 DUP11 SUB SLT ISZERO PUSH2 0x2982 JUMPI PUSH1 0x0 DUP1 DUP2 REVERT JUMPDEST PUSH2 0x298A PUSH2 0x2485 JUMP JUMPDEST DUP2 MLOAD PUSH2 0x2995 DUP2 PUSH2 0x23D8 JUMP JUMPDEST DUP2 MSTORE DUP2 DUP7 ADD MLOAD PUSH2 0x29A4 DUP2 PUSH2 0x25A2 JUMP JUMPDEST DUP2 DUP8 ADD MSTORE PUSH1 0x40 DUP3 DUP2 ADD MLOAD SWAP1 DUP3 ADD MSTORE DUP5 MSTORE SWAP3 DUP5 ADD SWAP3 DUP2 ADD PUSH2 0x296A JUMP JUMPDEST PUSH1 0x0 PUSH1 0x20 DUP1 DUP4 DUP6 SUB SLT ISZERO PUSH2 0x29D2 JUMPI PUSH1 0x0 DUP1 REVERT JUMPDEST DUP3 MLOAD PUSH8 0xFFFFFFFFFFFFFFFF DUP1 DUP3 GT ISZERO PUSH2 0x29EA JUMPI PUSH1 0x0 DUP1 REVERT JUMPDEST SWAP1 DUP5 ADD SWAP1 PUSH1 0x40 DUP3 DUP8 SUB SLT ISZERO PUSH2 0x29FE JUMPI PUSH1 0x0 DUP1 REVERT JUMPDEST PUSH2 0x2A06 PUSH2 0x24A8 JUMP JUMPDEST DUP3 MLOAD DUP2 MSTORE DUP4 DUP4 ADD MLOAD DUP3 DUP2 GT ISZERO PUSH2 0x2A1B JUMPI PUSH1 0x0 DUP1 REVERT JUMPDEST DUP1 DUP5 ADD SWAP4 POP POP DUP7 PUSH1 0x1F DUP5 ADD SLT PUSH2 0x2A30 JUMPI PUSH1 0x0 DUP1 REVERT JUMPDEST DUP3 MLOAD PUSH2 0x2A3E PUSH2 0x25D1 DUP3 PUSH2 0x2520 JUMP JUMPDEST DUP2 DUP2 MSTORE PUSH1 0x5 SWAP2 SWAP1 SWAP2 SHL DUP5 ADD DUP6 ADD SWAP1 DUP6 DUP2 ADD SWAP1 DUP10 DUP4 GT ISZERO PUSH2 0x2A5D JUMPI PUSH1 0x0 DUP1 REVERT JUMPDEST DUP7 DUP7 ADD JUMPDEST DUP4 DUP2 LT ISZERO PUSH2 0x27D5 JUMPI DUP1 MLOAD DUP7 DUP2 GT ISZERO PUSH2 0x2A78 JUMPI PUSH1 0x0 DUP1 REVERT JUMPDEST DUP8 ADD PUSH2 0x180 DUP2 DUP14 SUB PUSH1 0x1F NOT ADD DUP2 SGT ISZERO PUSH2 0x2A90 JUMPI PUSH1 0x0 DUP1 REVERT JUMPDEST PUSH2 0x2A98 PUSH2 0x24CB JUMP JUMPDEST PUSH2 0x2AA3 DUP12 DUP5 ADD PUSH2 0x28CC JUMP JUMPDEST DUP2 MSTORE PUSH2 0x2AB1 PUSH1 0x40 DUP5 ADD PUSH2 0x28D7 JUMP JUMPDEST DUP12 DUP3 ADD MSTORE PUSH2 0x2AC1 PUSH1 0x60 DUP5 ADD PUSH2 0x28CC JUMP JUMPDEST PUSH1 0x40 DUP3 ADD MSTORE PUSH1 0x80 DUP4 ADD MLOAD PUSH1 0x60 DUP3 ADD MSTORE PUSH1 0xA0 PUSH2 0x2ADE DUP16 DUP3 DUP7 ADD PUSH2 0x28E2 JUMP JUMPDEST PUSH1 0x80 DUP4 ADD MSTORE PUSH2 0x120 DUP5 ADD MLOAD SWAP1 DUP3 ADD MSTORE PUSH2 0x140 DUP4 ADD MLOAD PUSH1 0xC0 DUP3 ADD MSTORE PUSH2 0x160 DUP4 ADD MLOAD PUSH1 0xE0 DUP3 ADD MSTORE SWAP1 DUP3 ADD MLOAD SWAP1 DUP9 DUP3 GT ISZERO PUSH2 0x2B16 JUMPI PUSH1 0x0 DUP1 DUP2 REVERT JUMPDEST PUSH2 0x2B24 DUP15 DUP13 DUP5 DUP7 ADD ADD PUSH2 0x2926 JUMP JUMPDEST PUSH2 0x100 DUP3 ADD MSTORE DUP6 MSTORE POP POP SWAP2 DUP8 ADD SWAP2 DUP8 ADD PUSH2 0x2A61 JUMP JUMPDEST DUP2 DUP2 SUB DUP2 DUP2 GT ISZERO PUSH2 0x715 JUMPI PUSH2 0x715 PUSH2 0x288A JUMP JUMPDEST DUP1 DUP3 MUL DUP2 ISZERO DUP3 DUP3 DIV DUP5 EQ OR PUSH2 0x715 JUMPI PUSH2 0x715 PUSH2 0x288A JUMP JUMPDEST PUSH1 0x0 JUMPDEST DUP4 DUP2 LT ISZERO PUSH2 0x2B7E JUMPI DUP2 DUP2 ADD MLOAD DUP4 DUP3 ADD MSTORE PUSH1 0x20 ADD PUSH2 0x2B66 JUMP JUMPDEST POP POP PUSH1 0x0 SWAP2 ADD MSTORE JUMP JUMPDEST PUSH1 0x20 DUP2 MSTORE PUSH1 0x0 DUP3 MLOAD DUP1 PUSH1 0x20 DUP5 ADD MSTORE PUSH2 0x2BA6 DUP2 PUSH1 0x40 DUP6 ADD PUSH1 0x20 DUP8 ADD PUSH2 0x2B63 JUMP JUMPDEST PUSH1 0x1F ADD PUSH1 0x1F NOT AND SWAP2 SWAP1 SWAP2 ADD PUSH1 0x40 ADD SWAP3 SWAP2 POP POP JUMP JUMPDEST PUSH1 0x0 PUSH1 0x20 DUP3 DUP5 SUB SLT ISZERO PUSH2 0x2BCC JUMPI PUSH1 0x0 DUP1 REVERT JUMPDEST POP MLOAD SWAP2 SWAP1 POP JUMP JUMPDEST PUSH4 0x4E487B71 PUSH1 0xE0 SHL PUSH1 0x0 MSTORE PUSH1 0x32 PUSH1 0x4 MSTORE PUSH1 0x24 PUSH1 0x0 REVERT JUMPDEST PUSH1 0x0 PUSH1 0x20 DUP3 DUP5 SUB SLT ISZERO PUSH2 0x2BFB JUMPI PUSH1 0x0 DUP1 REVERT JUMPDEST DUP2 MLOAD PUSH2 0x11D1 DUP2 PUSH2 0x23D8 JUMP JUMPDEST PUSH1 0x0 DUP3 PUSH2 0x2C23 JUMPI PUSH4 0x4E487B71 PUSH1 0xE0 SHL PUSH1 0x0 MSTORE PUSH1 0x12 PUSH1 0x4 MSTORE PUSH1 0x24 PUSH1 0x0 REVERT JUMPDEST POP DIV SWAP1 JUMP JUMPDEST PUSH4 0x4E487B71 PUSH1 0xE0 SHL PUSH1 0x0 MSTORE PUSH1 0x31 PUSH1 0x4 MSTORE PUSH1 0x24 PUSH1 0x0 REVERT JUMPDEST PUSH1 0x0 PUSH1 0x20 DUP3 DUP5 SUB SLT ISZERO PUSH2 0x2C50 JUMPI PUSH1 0x0 DUP1 REVERT JUMPDEST DUP2 MLOAD PUSH2 0x11D1 DUP2 PUSH2 0x25A2 JUMP JUMPDEST PUSH1 0x0 DUP3 MLOAD PUSH2 0x2C6D DUP2 DUP5 PUSH1 0x20 DUP8 ADD PUSH2 0x2B63 JUMP JUMPDEST SWAP2 SWAP1 SWAP2 ADD SWAP3 SWAP2 POP POP JUMP INVALID LOG2 PUSH5 0x6970667358 0x22 SLT KECCAK256 0xC8 0xA7 LT PUSH26 0x52E63B663730A0D7E58186E0D4E8246E02136CB62F8DC5089CC0 NUMBER MLOAD PUSH5 0x736F6C6343 STOP ADDMOD GT STOP CALLER ","sha1":"2098a50eda8b0fc538e11c2fe207cf84861e12dd","source":"pragma solidity ^0.8.0;\n\nimport \"./auth/Governable.sol\";\nimport \"../interfaces/IGYDToken.sol\";\nimport \"../libraries/DataTypes.sol\";\nimport \"../libraries/FixedPoint.sol\";\nimport \"../interfaces/IGyroConfig.sol\";\nimport \"../libraries/ConfigKeys.sol\";\nimport \"../libraries/ConfigHelpers.sol\";\n\nimport \"@openzeppelin/contracts/utils/structs/EnumerableSet.sol\";\nimport \"@openzeppelin/contracts/token/ERC20/utils/SafeERC20.sol\";\nimport \"@openzeppelin/contracts-upgradeable/token/ERC20/IERC20Upgradeable.sol\";\nimport \"@openzeppelin/contracts-upgradeable/token/ERC20/utils/SafeERC20Upgradeable.sol\";\nimport \"./LiquidityMining.sol\";\n\nimport \"../interfaces/IGydRecovery.sol\";\n\ncontract GydRecovery is IGydRecovery, Governable, LiquidityMining {\n    using FixedPoint for uint256;\n    using ConfigHelpers for IGyroConfig;\n    using SafeERC20 for IERC20;\n    using SafeERC20Upgradeable for IGYDToken;\n    using EnumerableSet for EnumerableSet.UintSet;\n\n    /* We account for burn actions (= when the mechanism is triggered) in two ways:\n    - For partial burns, where less than the whole underlying supply is burnt, we store the percentage that has been burned in a cumulative adjustment factor. We can convert from and to \"adjusted\" amounts by multiplying/dividing by the adjustment factor. The \"staked amounts\" for liquidity mining are in units of *adjusted amounts*.\n    - For full burns, where the whole supply is burnt, the conversion is not 1:1. Instead, we store a counter to distinguish whether a full burn has happened since the last update, and we also store some history.\n    Adjusted amounts are only meaningful when the last full-burn-id is stored as well. All this is important to correctly perform accounting for withdrawals and for rewards.\n    */\n\n    /// @dev Max burn factor. If less than this share would be left over after burning, we do a full burn instead. This is to avoid numerical instability in the adjustment factor.\n    uint256 internal constant MAX_PARTIAL_BURN_FACTOR = 0.01e18;\n\n    /** @dev Full (marked for withdrawal and not) amount for a given address. We store the adjusted amount *not* marked for\n     * withdrawal in _perUserStaked from LiquidityMining. We account for the fact that _perUserStaked can become outdated\n     * in userCheckpoint() and in the related view methods.\n     */\n    struct Position {\n        // SOMEDAY maybe we can save some bits, pack this to save a slot.\n        uint256 lastUpdatedFullBurnId;\n        uint256 adjustedAmount;\n    }\n    // owner -> Position\n    mapping(address => Position) internal positions;\n\n    // Full burn ID -> totalStakedIntegral at that point in time\n    mapping(uint256 => uint256) internal fullBurnHistory;\n    uint256 internal nextFullBurnId = 1; // 0 is invalid; we use this to detect unset data.\n\n    uint256 public adjustmentFactor = 1e18;\n\n    struct PendingWithdrawal {\n        // SOMEDAY maybe we can save some bits, pack this to save a slot.\n        uint256 createdFullBurnId;\n        uint256 adjustedAmount;\n        uint256 withdrawableAt; // timestamp\n        address to;\n    }\n    mapping(uint256 => PendingWithdrawal) internal pendingWithdrawals;\n    // address -> pending withdrawal ids. Mostly a convenience feature.\n    mapping(address => EnumerableSet.UintSet) internal userPendingWithdrawalIds;\n    uint256 internal nextWithdrawalId;\n    uint256 public withdrawalWaitDuration;\n\n    // We bound two variables by immutables to provide some certainty for fund providers vs governance actions.\n    uint256 public immutable maxWithdrawalWaitDuration;\n    uint256 public immutable maxTriggerCR;\n\n    IGyroConfig public immutable gyroConfig;\n    IGYDToken public immutable gydToken;\n\n    event Deposit(address beneficiary, uint256 adjustedAmount, uint256 amount);\n    event WithdrawalQueued(\n        uint256 id,\n        address to,\n        uint256 withdrawalAt,\n        uint256 adjustedAmount,\n        uint256 amount\n    );\n    event WithdrawalCompleted(uint256 id, address to, uint256 adjustedAmount, uint256 amount);\n    event RecoveryExecuted(uint256 tokensBurned, bool isFullBurn, uint256 newAdjustmentFactor);\n\n    constructor(\n        address _governor,\n        address _gyroConfig,\n        address _rewardToken,\n        uint256 _withdrawalWaitDuration,\n        uint256 _maxWithdrawalWaitDuration,\n        uint256 _maxTriggerCR\n    ) Governable(_governor) LiquidityMining(_rewardToken) {\n        gyroConfig = IGyroConfig(_gyroConfig);\n        gydToken = gyroConfig.getGYDToken();\n        require(\n            _withdrawalWaitDuration <= _maxWithdrawalWaitDuration,\n            \"invalid withdrawal wait duration\"\n        );\n        withdrawalWaitDuration = _withdrawalWaitDuration;\n        maxWithdrawalWaitDuration = _maxWithdrawalWaitDuration;\n        maxTriggerCR = _maxTriggerCR;\n    }\n\n    function startMining(\n        address rewardsFrom,\n        uint256 amount,\n        uint256 endTime\n    ) external override governanceOnly {\n        _startMining(rewardsFrom, amount, endTime);\n    }\n\n    function stopMining(address reimbursementTo) external override governanceOnly {\n        _stopMining(reimbursementTo);\n    }\n\n    function setWithdrawalWaitDuration(uint256 _duration) external governanceOnly {\n        require(_duration <= maxWithdrawalWaitDuration, \"invalid withdrawal wait duration\");\n        withdrawalWaitDuration = _duration;\n    }\n\n    /// @dev Total amount available for burning. Includes amounts marked for withdrawal but not yet withdrawn.\n    function totalUnderlying() public view returns (uint256) {\n        return gydToken.balanceOf(address(this));\n    }\n\n    /// @notice Balance of given account that is available for withdrawal.\n    function balanceOf(address account) public view returns (uint256) {\n        return balanceAdjustedOf(account).mulDown(adjustmentFactor);\n    }\n\n    /// @notice Like balanceOf() but in adjusted amounts.\n    function balanceAdjustedOf(address account) public view returns (uint256 adjustedAmount) {\n        adjustedAmount = positions[account].lastUpdatedFullBurnId < nextFullBurnId\n            ? 0\n            : _perUserStaked[account];\n    }\n\n    /// @notice Total amount contributed of a given account, consisting of the amount available for withdrawal and the\n    /// amount that has already been marked for withdrawal.\n    function totalBalanceOf(address account) public view returns (uint256 amount) {\n        // SOMEDAY Perhaps remove this actually; it's not clear people want to see it. If so, we can completely remove\n        // Position.adjustedAmount. We don't use that anywhere else.\n        return totalBalanceAdjustedOf(account).mulDown(adjustmentFactor);\n    }\n\n    /// @notice Like `totalBalanceOf()` but in adjusted amounts.\n    function totalBalanceAdjustedOf(address account) public view returns (uint256 adjustedAmount) {\n        Position memory position = positions[account];\n        adjustedAmount = position.lastUpdatedFullBurnId < nextFullBurnId\n            ? 0\n            : position.adjustedAmount;\n    }\n\n    function adjustedAmountToAmount(uint256 adjustedAmount) external view returns (uint256 amount) {\n        return adjustedAmount.mulDown(adjustmentFactor);\n    }\n\n    function amountToAdjustedAmount(uint256 amount) external view returns (uint256 adjustedAmount) {\n        return amount.divDown(adjustmentFactor);\n    }\n\n    function deposit(uint256 amount) external {\n        return depositFor(msg.sender, amount);\n    }\n\n    function depositFor(address beneficiary, uint256 amount) public {\n        gydToken.safeTransferFrom(msg.sender, address(this), amount);\n\n        uint256 adjustedAmount = amount.divDown(adjustmentFactor);\n        _stake(beneficiary, adjustedAmount); // This also handles full burns and initializes new positions, which is important.\n        positions[beneficiary].adjustedAmount += adjustedAmount;\n\n        emit Deposit(beneficiary, adjustedAmount, amount);\n    }\n\n    function initiateWithdrawal(uint256 amount) external returns (uint256 withdrawalId) {\n        return initiateWithdrawalAdjusted(amount.divDown(adjustmentFactor));\n    }\n\n    /// @notice Like initiateWithdrawal() but operates on adjusted amounts. Convenient to withdraw all funds\n    /// via `initiateWithdrawalAdjusted(balanceAdjustedOf(account))` without worrying about rounding issues.\n    function initiateWithdrawalAdjusted(uint256 adjustedAmount)\n        public\n        returns (uint256 withdrawalId)\n    {\n        // redundant with _unstake() but we want a better error message.\n        require(adjustedAmount <= balanceAdjustedOf(msg.sender), \"not enough to withdraw\");\n\n        _unstake(msg.sender, adjustedAmount); // This also handles full burns, which is important below.\n\n        withdrawalId = nextWithdrawalId;\n        ++nextWithdrawalId;\n        PendingWithdrawal memory withdrawal = PendingWithdrawal({\n            createdFullBurnId: nextFullBurnId,\n            adjustedAmount: adjustedAmount,\n            withdrawableAt: block.timestamp + withdrawalWaitDuration,\n            to: msg.sender\n        });\n        pendingWithdrawals[withdrawalId] = withdrawal;\n        userPendingWithdrawalIds[withdrawal.to].add(withdrawalId);\n\n        emit WithdrawalQueued(\n            withdrawalId,\n            withdrawal.to,\n            withdrawal.withdrawableAt,\n            adjustedAmount,\n            adjustedAmount.mulDown(adjustmentFactor)\n        );\n    }\n\n    function withdraw(uint256 withdrawalId) external returns (uint256 amount) {\n        PendingWithdrawal memory pending = pendingWithdrawals[withdrawalId];\n        require(pending.to == msg.sender, \"matching withdrawal does not exist\");\n        require(pending.withdrawableAt <= block.timestamp, \"not yet withdrawable\");\n\n        if (pending.createdFullBurnId < nextFullBurnId) {\n            delete pendingWithdrawals[withdrawalId];\n            userPendingWithdrawalIds[pending.to].remove(withdrawalId);\n            emit WithdrawalCompleted(withdrawalId, pending.to, 0, 0);\n            return 0;\n        }\n\n        positions[pending.to].adjustedAmount -= pending.adjustedAmount;\n\n        amount = pending.adjustedAmount.mulDown(adjustmentFactor);\n        gydToken.safeTransfer(pending.to, amount);\n\n        delete pendingWithdrawals[withdrawalId];\n        userPendingWithdrawalIds[pending.to].remove(withdrawalId);\n\n        emit WithdrawalCompleted(withdrawalId, pending.to, pending.adjustedAmount, amount);\n    }\n\n    function listPendingWithdrawals(address _user)\n        external\n        view\n        returns (PendingWithdrawal[] memory)\n    {\n        EnumerableSet.UintSet storage ids = userPendingWithdrawalIds[_user];\n        PendingWithdrawal[] memory pending = new PendingWithdrawal[](ids.length());\n        for (uint256 i = 0; i < ids.length(); i++) {\n            pending[i] = pendingWithdrawals[ids.at(i)];\n        }\n        return pending;\n    }\n\n    /// @dev Update rewards accounting for user (see LiquidityMining.userCheckpoint()) and also update their\n    /// position data in case of a full burn. It may look a bit ugly that these two things are mixed here but it's\n    /// important to update them at the same time.\n    function userCheckpoint(address account) public override {\n        globalCheckpoint();\n\n        Position storage position = positions[account];\n        uint256 lastUpdatedFullBurnId = position.lastUpdatedFullBurnId;\n\n        uint256 perUserStaked = _perUserStaked[account];\n        uint256 totalStakedIntegral;\n        if (lastUpdatedFullBurnId == 0) {\n            // Empty / new position. Initialize.\n            totalStakedIntegral = _totalStakedIntegral;\n            position.lastUpdatedFullBurnId = nextFullBurnId;\n        } else if (lastUpdatedFullBurnId < nextFullBurnId) {\n            // The user receives rewards for their staked (= not withdrawal-initiated) amount until the first burn after\n            // the last userCheckpoint() and we update their position going forward.\n            totalStakedIntegral = fullBurnHistory[lastUpdatedFullBurnId];\n\n            position.adjustedAmount = 0;\n            position.lastUpdatedFullBurnId = nextFullBurnId;\n            delete _perUserStaked[account];\n        } else {\n            // No full burn since last userCheckpoint(). The user receives rewards until now.\n            totalStakedIntegral = _totalStakedIntegral;\n        }\n\n        _perUserShare[account] += perUserStaked.mulDown(\n            totalStakedIntegral - _perUserStakedIntegral[account]\n        );\n        _perUserStakedIntegral[account] = totalStakedIntegral;\n    }\n\n    function claimableRewards(address beneficiary) external view override returns (uint256) {\n        uint256 lastUpdatedFullBurnId = positions[beneficiary].lastUpdatedFullBurnId;\n\n        uint256 totalStakedIntegral;\n        if (lastUpdatedFullBurnId > 0 && lastUpdatedFullBurnId < nextFullBurnId) {\n            totalStakedIntegral = fullBurnHistory[lastUpdatedFullBurnId];\n        } else {\n            totalStakedIntegral = _totalStakedIntegral;\n            if (totalStaked > 0) {\n                totalStakedIntegral += (rewardsEmissionRate() *\n                    (block.timestamp - _lastCheckpointTime)).divDown(totalStaked);\n            }\n        }\n\n        return\n            _perUserShare[beneficiary] +\n            _perUserStaked[beneficiary].mulDown(\n                totalStakedIntegral - _perUserStakedIntegral[beneficiary]\n            );\n    }\n\n    function shouldRun() external view returns (bool) {\n        return shouldRun(gyroConfig.getReserveManager().getReserveState());\n    }\n\n    /// @dev Whether or not the recovery module should run and would run next time it's called.\n    function shouldRun(DataTypes.ReserveState memory reserveState) public view returns (bool) {\n        if (totalUnderlying() == 0) {\n            // *Not* a corner case! This happens after a full burn!\n            return false;\n        }\n        uint256 currentCR = reserveState.totalUSDValue.divDown(gydToken.totalSupply());\n        uint256 triggerCR = gyroConfig.getUint(ConfigKeys.GYD_RECOVERY_TRIGGER_CR);\n        uint256 maxTriggerCR_ = maxTriggerCR;\n        if (triggerCR > maxTriggerCR_) triggerCR = maxTriggerCR_;\n        return currentCR < triggerCR;\n    }\n\n    function _checkAndRun(DataTypes.ReserveState memory reserveState) internal returns (bool) {\n        if (!shouldRun(reserveState)) return false;\n\n        // Compute amount to burn to reach target CR.\n        uint256 targetCR = gyroConfig.getUint(ConfigKeys.GYD_RECOVERY_TARGET_CR);\n        uint256 targetGYDSupply = reserveState.totalUSDValue.divDown(targetCR);\n        uint256 currentGYDSupply = gydToken.totalSupply();\n\n        if (targetGYDSupply >= currentGYDSupply) {\n            // Sanity check. This can only happen if GYD_RECOVERY_TARGET_CR < GYD_RECOVERY_TRIGGER_CR, which is probably a buggy config.\n            return false;\n        }\n        uint256 amountToBurn = currentGYDSupply - targetGYDSupply;\n\n        return executeBurn(amountToBurn);\n    }\n\n    function checkAndRun(DataTypes.ReserveState memory reserveState) external returns (bool) {\n        require(msg.sender == address(gyroConfig.getMotherboard()), \"not authorized\");\n        return _checkAndRun(reserveState);\n    }\n\n    function checkAndRun() external returns (bool) {\n        // Since _checkAndRun() may change the GYD supply, we need to call checkpoint() to correctly account for the GYD\n        // supply until now (and also the reserve ratio). Motherboard does this itself before it calls\n        // checkAndRun(ReserveState).\n        // SOMEDAY gas optimization: Share reserveState between this function and checkpoint(); it's computed twice rn.\n        gyroConfig.getReserveStewardshipIncentives().checkpoint();\n\n        DataTypes.ReserveState memory reserveState = gyroConfig\n            .getReserveManager()\n            .getReserveState();\n        return _checkAndRun(reserveState);\n    }\n\n    /// @dev Burn `amountToBurn` or the whole pool, whichever is smaller. Do proper accounting.\n    function executeBurn(uint256 amountToBurn) internal returns (bool) {\n        globalCheckpoint();\n\n        uint256 _totalUnderlying = totalUnderlying();\n        bool isFullBurn = amountToBurn >=\n            _totalUnderlying.mulDown(FixedPoint.ONE - MAX_PARTIAL_BURN_FACTOR);\n\n        if (isFullBurn) {\n            amountToBurn = _totalUnderlying;\n            fullBurnHistory[nextFullBurnId] = _totalStakedIntegral;\n            ++nextFullBurnId;\n            adjustmentFactor = FixedPoint.ONE;\n\n            // The following makes totalStaked inconsistent with _perUserStaked but this is accounted for in userCheckpoint(), balanceAdjustedOf(), etc.\n            totalStaked = 0;\n        } else {\n            uint256 nextAdjustmentFactor = adjustmentFactor\n                .mulDown(_totalUnderlying - amountToBurn)\n                .divDown(_totalUnderlying);\n            if (nextAdjustmentFactor == 0) {\n                // Handle a potential numerical error when many large partial burns occurred over time. We then prevent\n                // the burn from running to make sure withdrawals don't lock up. This code should never run. Instead,\n                // governance should monitor adjustmentFactor to notice this condition ahead of time, then ask\n                // contributors to withdraw funds, and deploy a new instance of the contract.\n                return false;\n            }\n            adjustmentFactor = nextAdjustmentFactor;\n        }\n\n        gydToken.burn(amountToBurn);\n        emit RecoveryExecuted(amountToBurn, isFullBurn, adjustmentFactor);\n        return true;\n    }\n}\n","sourcePath":"contracts/GydRecovery.sol","type":"contract","deployment":{"address":"0x40511d481ed427A4DbfBbE3B77988c9A8ca3a7BD","chainid":"137","blockHeight":43404148}}