{"abi":[{"anonymous":false,"inputs":[{"indexed":false,"internalType":"bytes32","name":"key","type":"bytes32"},{"indexed":false,"internalType":"uint256","name":"previousValue","type":"uint256"},{"indexed":false,"internalType":"uint256","name":"newValue","type":"uint256"}],"name":"ConfigChanged","type":"event"},{"anonymous":false,"inputs":[{"indexed":false,"internalType":"bytes32","name":"key","type":"bytes32"},{"indexed":false,"internalType":"address","name":"previousValue","type":"address"},{"indexed":false,"internalType":"address","name":"newValue","type":"address"}],"name":"ConfigChanged","type":"event"},{"anonymous":false,"inputs":[{"indexed":false,"internalType":"bytes32","name":"key","type":"bytes32"}],"name":"ConfigFrozen","type":"event"},{"anonymous":false,"inputs":[{"indexed":false,"internalType":"bytes32","name":"key","type":"bytes32"}],"name":"ConfigUnset","type":"event"},{"anonymous":false,"inputs":[{"indexed":false,"internalType":"address","name":"oldGovernor","type":"address"},{"indexed":false,"internalType":"address","name":"newGovernor","type":"address"}],"name":"GovernorChanged","type":"event"},{"inputs":[{"internalType":"address","name":"newGovernor","type":"address"}],"name":"changeGovernor","outputs":[],"stateMutability":"nonpayable","type":"function"},{"inputs":[{"internalType":"bytes32","name":"key","type":"bytes32"}],"name":"freeze","outputs":[],"stateMutability":"nonpayable","type":"function"},{"inputs":[{"internalType":"bytes32","name":"key","type":"bytes32"}],"name":"getAddress","outputs":[{"internalType":"address","name":"","type":"address"}],"stateMutability":"view","type":"function"},{"inputs":[{"internalType":"bytes32","name":"key","type":"bytes32"}],"name":"getConfigMeta","outputs":[{"internalType":"uint8","name":"","type":"uint8"},{"internalType":"bool","name":"","type":"bool"}],"stateMutability":"view","type":"function"},{"inputs":[{"internalType":"bytes32","name":"key","type":"bytes32"}],"name":"getUint","outputs":[{"internalType":"uint256","name":"","type":"uint256"}],"stateMutability":"view","type":"function"},{"inputs":[],"name":"governor","outputs":[{"internalType":"address","name":"","type":"address"}],"stateMutability":"view","type":"function"},{"inputs":[{"internalType":"bytes32","name":"key","type":"bytes32"}],"name":"hasKey","outputs":[{"internalType":"bool","name":"","type":"bool"}],"stateMutability":"view","type":"function"},{"inputs":[],"name":"listKeys","outputs":[{"internalType":"bytes32[]","name":"","type":"bytes32[]"}],"stateMutability":"view","type":"function"},{"inputs":[{"internalType":"bytes32","name":"key","type":"bytes32"},{"internalType":"address","name":"newValue","type":"address"}],"name":"setAddress","outputs":[],"stateMutability":"nonpayable","type":"function"},{"inputs":[{"internalType":"bytes32","name":"key","type":"bytes32"},{"internalType":"uint256","name":"newValue","type":"uint256"}],"name":"setUint","outputs":[],"stateMutability":"nonpayable","type":"function"},{"inputs":[{"internalType":"bytes32","name":"key","type":"bytes32"}],"name":"unset","outputs":[],"stateMutability":"nonpayable","type":"function"}],"bytecode":"608060405234801561001057600080fd5b50600080546001600160a01b0319163390811782556040805192835260208301919091527fde4b3f61490b74c0ed6237523974fe299126bbbf8a8a7482fd220104c59b0c84910160405180910390a1610d968061006e6000396000f3fe608060405234801561001057600080fd5b50600436106100a95760003560e01c8063ca446dd911610071578063ca446dd91461014a578063cd014f0c1461015d578063e2a4853a14610189578063e4c0aaf41461019c578063ec13cc7b146101af578063fd322c14146101c257600080fd5b80630c340a24146100ae57806321f8a721146100de578063696eb375146100f15780639141d6f914610114578063bd02d0f514610129575b600080fd5b6000546100c1906001600160a01b031681565b6040516001600160a01b0390911681526020015b60405180910390f35b6100c16100ec366004610b9f565b6101d7565b6101046100ff366004610b9f565b6101ea565b60405190151581526020016100d5565b610127610122366004610b9f565b6101f7565b005b61013c610137366004610b9f565b61031f565b6040519081526020016100d5565b610127610158366004610bd4565b61032c565b61017061016b366004610b9f565b6103d6565b6040805160ff90931683529015156020830152016100d5565b610127610197366004610c00565b610433565b6101276101aa366004610c22565b6104c8565b6101276101bd366004610b9f565b61056f565b6101ca610682565b6040516100d59190610c3d565b60006101e4826001610726565b92915050565b60006101e460028361079b565b600054604080518082019091526002815261033360f41b6020820152906001600160a01b031633146102455760405162461bcd60e51b815260040161023c9190610c81565b60405180910390fd5b50600080610252836107ae565b92505091508160405180604001604052806002815260200161199960f11b815250906102915760405162461bcd60e51b815260040161023c9190610c81565b50604080518082019091526002815261333360f01b602082015281156102ca5760405162461bcd60e51b815260040161023c9190610c81565b506000838152600160205260408120556102e56002846107e2565b506040518381527f90e6f6dc5a05702effb7cb4f1eb2d30a76a0a0c4cb7accd3c069c2b8149d3594906020015b60405180910390a1505050565b60006101e4826002610726565b600054604080518082019091526002815261033360f41b6020820152906001600160a01b031633146103715760405162461bcd60e51b815260040161023c9190610c81565b50600061038983836001600160a01b031660016107ee565b604080518581526001600160a01b0380841660208301528516918101919091529091507f86709719730335e655237ec19f947f910603bbf35b01de8f98e5eb05922edb4390606001610312565b60008060008060006103e7866107ae565b9250925092508260405180604001604052806002815260200161199960f11b815250906104275760405162461bcd60e51b815260040161023c9190610c81565b50909590945092505050565b600054604080518082019091526002815261033360f41b6020820152906001600160a01b031633146104785760405162461bcd60e51b815260040161023c9190610c81565b506000610487838360026107ee565b60408051858152602081018390529081018490529091507fda2476af668c5f7eb48f492f9bbd5a7e9d4293d64144b3b7be75a156803fb8be90606001610312565b600054604080518082019091526002815261033360f41b6020820152906001600160a01b0316331461050d5760405162461bcd60e51b815260040161023c9190610c81565b50600080546001600160a01b038381166001600160a01b031983168117909355604080519190921680825260208201939093527fde4b3f61490b74c0ed6237523974fe299126bbbf8a8a7482fd220104c59b0c84910160405180910390a15050565b600054604080518082019091526002815261033360f41b6020820152906001600160a01b031633146105b45760405162461bcd60e51b815260040161023c9190610c81565b5060008060006105c3846107ae565b9250925092508260405180604001604052806002815260200161199960f11b815250906106035760405162461bcd60e51b815260040161023c9190610c81565b50604080518082019091526002815261333360f01b6020820152811561063c5760405162461bcd60e51b815260040161023c9190610c81565b50610649848360016108b5565b6040518481527f540251d20c832db9ca5e1ad5faa4320509054d7067fc1d7fa5856f4ccb69cf5c9060200160405180910390a150505050565b6060600061069060026108ea565b905060008167ffffffffffffffff8111156106ad576106ad610cd6565b6040519080825280602002602001820160405280156106d6578160200160208202803683370190505b50905060005b8281101561071f576106ef6002826108f5565b5082828151811061070257610702610cec565b60209081029190910101528061071781610d18565b9150506106dc565b5092915050565b6000806000610734856107ae565b509150915081801561074b57508360ff168160ff16145b60405180604001604052806002815260200161199960f11b815250906107845760405162461bcd60e51b815260040161023c9190610c81565b505050600092835250506001602052604090205490565b60006107a78383610913565b9392505050565b60008080806107be60028661091f565b909450905083156107da57806001166001149150600881901c92505b509193909250565b60006107a7838361092e565b6000806000806107fd876107ae565b92509250925082158061081557508460ff168260ff16145b60405180604001604052806002815260200161333160f01b8152509061084e5760405162461bcd60e51b815260040161023c9190610c81565b50604080518082019091526002815261333360f01b602082015281156108875760405162461bcd60e51b815260040161023c9190610c81565b506000878152600160205260408120805490889055906108aa90899088906108b5565b979650505050505050565b6000816108c35760006108c6565b60015b60ff16905061ff00600884901b1681176108e26002868361094b565b505050505050565b60006101e482610960565b6000808080610904868661096b565b909450925050505b9250929050565b60006107a78383610996565b600080808061090486866109ae565b600081815260028301602052604081208190556107a783836109e8565b60006109588484846109f4565b949350505050565b60006101e482610a11565b600080806109798585610a1b565b600081815260029690960160205260409095205494959350505050565b600081815260018301602052604081205415156107a7565b60008181526002830160205260408120548190806109dd576109d08585610913565b92506000915061090c9050565b60019250905061090c565b60006107a78383610a27565b600082815260028401602052604081208290556109588484610b1a565b60006101e4825490565b60006107a78383610b26565b60008181526001830160205260408120548015610b10576000610a4b600183610d33565b8554909150600090610a5f90600190610d33565b9050818114610ac4576000866000018281548110610a7f57610a7f610cec565b9060005260206000200154905080876000018481548110610aa257610aa2610cec565b6000918252602080832090910192909255918252600188019052604090208390555b8554869080610ad557610ad5610d4a565b6001900381819060005260206000200160009055905585600101600086815260200190815260200160002060009055600193505050506101e4565b60009150506101e4565b60006107a78383610b50565b6000826000018281548110610b3d57610b3d610cec565b9060005260206000200154905092915050565b6000818152600183016020526040812054610b97575081546001818101845560008481526020808220909301849055845484825282860190935260409020919091556101e4565b5060006101e4565b600060208284031215610bb157600080fd5b5035919050565b80356001600160a01b0381168114610bcf57600080fd5b919050565b60008060408385031215610be757600080fd5b82359150610bf760208401610bb8565b90509250929050565b60008060408385031215610c1357600080fd5b50508035926020909101359150565b600060208284031215610c3457600080fd5b6107a782610bb8565b6020808252825182820181905260009190848201906040850190845b81811015610c7557835183529284019291840191600101610c59565b50909695505050505050565b600060208083528351808285015260005b81811015610cae57858101830151858201604001528201610c92565b81811115610cc0576000604083870101525b50601f01601f1916929092016040019392505050565b634e487b7160e01b600052604160045260246000fd5b634e487b7160e01b600052603260045260246000fd5b634e487b7160e01b600052601160045260246000fd5b6000600019821415610d2c57610d2c610d02565b5060010190565b600082821015610d4557610d45610d02565b500390565b634e487b7160e01b600052603160045260246000fdfea2646970667358221220cb1f38cb8d1c2fc77a47dde9889c95f45e9cb6861de8c8f69f03ee6d7a44977d64736f6c634300080a0033","bytecodeSha1":"f4274c23ae5db369c90419edd6ae7ea7093ea7a0","compiler":{"evm_version":"istanbul","optimizer":{"enabled":true,"runs":200},"version":"0.8.10+commit.fc410830"},"contractName":"GyroConfig","language":"Solidity","natspec":{"kind":"dev","methods":{"changeGovernor(address)":{"notice":"Changes the governor can only be called by the current governor"},"freeze(bytes32)":{"notice":"Freezes a key, making it impossible to update or unset"},"getAddress(bytes32)":{"notice":"Returns an address value from the config"},"getConfigMeta(bytes32)":{"notice":"Returns the metadata associated with a particular config key"},"getUint(bytes32)":{"notice":"Returns a uint256 value from the config"},"governor()":{"notice":"Returns the current governor"},"hasKey(bytes32)":{"notice":"Returns true if the configuration has the given key"},"listKeys()":{"notice":"Returns a set of known configuration keys"},"setAddress(bytes32,address)":{"notice":"Set an address config"},"setUint(bytes32,uint256)":{"notice":"Set a uint256 config NOTE: We avoid overloading to avoid complications with some clients"},"unset(bytes32)":{"notice":"Unset a key in the config"}},"version":1},"opcodes":"PUSH1 0x80 PUSH1 0x40 MSTORE CALLVALUE DUP1 ISZERO PUSH2 0x10 JUMPI PUSH1 0x0 DUP1 REVERT JUMPDEST POP PUSH1 0x4 CALLDATASIZE LT PUSH2 0xA9 JUMPI PUSH1 0x0 CALLDATALOAD PUSH1 0xE0 SHR DUP1 PUSH4 0xCA446DD9 GT PUSH2 0x71 JUMPI DUP1 PUSH4 0xCA446DD9 EQ PUSH2 0x14A JUMPI DUP1 PUSH4 0xCD014F0C EQ PUSH2 0x15D JUMPI DUP1 PUSH4 0xE2A4853A EQ PUSH2 0x189 JUMPI DUP1 PUSH4 0xE4C0AAF4 EQ PUSH2 0x19C JUMPI DUP1 PUSH4 0xEC13CC7B EQ PUSH2 0x1AF JUMPI DUP1 PUSH4 0xFD322C14 EQ PUSH2 0x1C2 JUMPI PUSH1 0x0 DUP1 REVERT JUMPDEST DUP1 PUSH4 0xC340A24 EQ PUSH2 0xAE JUMPI DUP1 PUSH4 0x21F8A721 EQ PUSH2 0xDE JUMPI DUP1 PUSH4 0x696EB375 EQ PUSH2 0xF1 JUMPI DUP1 PUSH4 0x9141D6F9 EQ PUSH2 0x114 JUMPI DUP1 PUSH4 0xBD02D0F5 EQ PUSH2 0x129 JUMPI JUMPDEST PUSH1 0x0 DUP1 REVERT JUMPDEST PUSH1 0x0 SLOAD PUSH2 0xC1 SWAP1 PUSH1 0x1 PUSH1 0x1 PUSH1 0xA0 SHL SUB AND DUP2 JUMP JUMPDEST PUSH1 0x40 MLOAD PUSH1 0x1 PUSH1 0x1 PUSH1 0xA0 SHL SUB SWAP1 SWAP2 AND DUP2 MSTORE PUSH1 0x20 ADD JUMPDEST PUSH1 0x40 MLOAD DUP1 SWAP2 SUB SWAP1 RETURN JUMPDEST PUSH2 0xC1 PUSH2 0xEC CALLDATASIZE PUSH1 0x4 PUSH2 0xB9F JUMP JUMPDEST PUSH2 0x1D7 JUMP JUMPDEST PUSH2 0x104 PUSH2 0xFF CALLDATASIZE PUSH1 0x4 PUSH2 0xB9F JUMP JUMPDEST PUSH2 0x1EA JUMP JUMPDEST PUSH1 0x40 MLOAD SWAP1 ISZERO ISZERO DUP2 MSTORE PUSH1 0x20 ADD PUSH2 0xD5 JUMP JUMPDEST PUSH2 0x127 PUSH2 0x122 CALLDATASIZE PUSH1 0x4 PUSH2 0xB9F JUMP JUMPDEST PUSH2 0x1F7 JUMP JUMPDEST STOP JUMPDEST PUSH2 0x13C PUSH2 0x137 CALLDATASIZE PUSH1 0x4 PUSH2 0xB9F JUMP JUMPDEST PUSH2 0x31F JUMP JUMPDEST PUSH1 0x40 MLOAD SWAP1 DUP2 MSTORE PUSH1 0x20 ADD PUSH2 0xD5 JUMP JUMPDEST PUSH2 0x127 PUSH2 0x158 CALLDATASIZE PUSH1 0x4 PUSH2 0xBD4 JUMP JUMPDEST PUSH2 0x32C JUMP JUMPDEST PUSH2 0x170 PUSH2 0x16B CALLDATASIZE PUSH1 0x4 PUSH2 0xB9F JUMP JUMPDEST PUSH2 0x3D6 JUMP JUMPDEST PUSH1 0x40 DUP1 MLOAD PUSH1 0xFF SWAP1 SWAP4 AND DUP4 MSTORE SWAP1 ISZERO ISZERO PUSH1 0x20 DUP4 ADD MSTORE ADD PUSH2 0xD5 JUMP JUMPDEST PUSH2 0x127 PUSH2 0x197 CALLDATASIZE PUSH1 0x4 PUSH2 0xC00 JUMP JUMPDEST PUSH2 0x433 JUMP JUMPDEST PUSH2 0x127 PUSH2 0x1AA CALLDATASIZE PUSH1 0x4 PUSH2 0xC22 JUMP JUMPDEST PUSH2 0x4C8 JUMP JUMPDEST PUSH2 0x127 PUSH2 0x1BD CALLDATASIZE PUSH1 0x4 PUSH2 0xB9F JUMP JUMPDEST PUSH2 0x56F JUMP JUMPDEST PUSH2 0x1CA PUSH2 0x682 JUMP JUMPDEST PUSH1 0x40 MLOAD PUSH2 0xD5 SWAP2 SWAP1 PUSH2 0xC3D JUMP JUMPDEST PUSH1 0x0 PUSH2 0x1E4 DUP3 PUSH1 0x1 PUSH2 0x726 JUMP JUMPDEST SWAP3 SWAP2 POP POP JUMP JUMPDEST PUSH1 0x0 PUSH2 0x1E4 PUSH1 0x2 DUP4 PUSH2 0x79B JUMP JUMPDEST PUSH1 0x0 SLOAD PUSH1 0x40 DUP1 MLOAD DUP1 DUP3 ADD SWAP1 SWAP2 MSTORE PUSH1 0x2 DUP2 MSTORE PUSH2 0x333 PUSH1 0xF4 SHL PUSH1 0x20 DUP3 ADD MSTORE SWAP1 PUSH1 0x1 PUSH1 0x1 PUSH1 0xA0 SHL SUB AND CALLER EQ PUSH2 0x245 JUMPI PUSH1 0x40 MLOAD PUSH3 0x461BCD PUSH1 0xE5 SHL DUP2 MSTORE PUSH1 0x4 ADD PUSH2 0x23C SWAP2 SWAP1 PUSH2 0xC81 JUMP JUMPDEST PUSH1 0x40 MLOAD DUP1 SWAP2 SUB SWAP1 REVERT JUMPDEST POP PUSH1 0x0 DUP1 PUSH2 0x252 DUP4 PUSH2 0x7AE JUMP JUMPDEST SWAP3 POP POP SWAP2 POP DUP2 PUSH1 0x40 MLOAD DUP1 PUSH1 0x40 ADD PUSH1 0x40 MSTORE DUP1 PUSH1 0x2 DUP2 MSTORE PUSH1 0x20 ADD PUSH2 0x1999 PUSH1 0xF1 SHL DUP2 MSTORE POP SWAP1 PUSH2 0x291 JUMPI PUSH1 0x40 MLOAD PUSH3 0x461BCD PUSH1 0xE5 SHL DUP2 MSTORE PUSH1 0x4 ADD PUSH2 0x23C SWAP2 SWAP1 PUSH2 0xC81 JUMP JUMPDEST POP PUSH1 0x40 DUP1 MLOAD DUP1 DUP3 ADD SWAP1 SWAP2 MSTORE PUSH1 0x2 DUP2 MSTORE PUSH2 0x3333 PUSH1 0xF0 SHL PUSH1 0x20 DUP3 ADD MSTORE DUP2 ISZERO PUSH2 0x2CA JUMPI PUSH1 0x40 MLOAD PUSH3 0x461BCD PUSH1 0xE5 SHL DUP2 MSTORE PUSH1 0x4 ADD PUSH2 0x23C SWAP2 SWAP1 PUSH2 0xC81 JUMP JUMPDEST POP PUSH1 0x0 DUP4 DUP2 MSTORE PUSH1 0x1 PUSH1 0x20 MSTORE PUSH1 0x40 DUP2 KECCAK256 SSTORE PUSH2 0x2E5 PUSH1 0x2 DUP5 PUSH2 0x7E2 JUMP JUMPDEST POP PUSH1 0x40 MLOAD DUP4 DUP2 MSTORE PUSH32 0x90E6F6DC5A05702EFFB7CB4F1EB2D30A76A0A0C4CB7ACCD3C069C2B8149D3594 SWAP1 PUSH1 0x20 ADD JUMPDEST PUSH1 0x40 MLOAD DUP1 SWAP2 SUB SWAP1 LOG1 POP POP POP JUMP JUMPDEST PUSH1 0x0 PUSH2 0x1E4 DUP3 PUSH1 0x2 PUSH2 0x726 JUMP JUMPDEST PUSH1 0x0 SLOAD PUSH1 0x40 DUP1 MLOAD DUP1 DUP3 ADD SWAP1 SWAP2 MSTORE PUSH1 0x2 DUP2 MSTORE PUSH2 0x333 PUSH1 0xF4 SHL PUSH1 0x20 DUP3 ADD MSTORE SWAP1 PUSH1 0x1 PUSH1 0x1 PUSH1 0xA0 SHL SUB AND CALLER EQ PUSH2 0x371 JUMPI PUSH1 0x40 MLOAD PUSH3 0x461BCD PUSH1 0xE5 SHL DUP2 MSTORE PUSH1 0x4 ADD PUSH2 0x23C SWAP2 SWAP1 PUSH2 0xC81 JUMP JUMPDEST POP PUSH1 0x0 PUSH2 0x389 DUP4 DUP4 PUSH1 0x1 PUSH1 0x1 PUSH1 0xA0 SHL SUB AND PUSH1 0x1 PUSH2 0x7EE JUMP JUMPDEST PUSH1 0x40 DUP1 MLOAD DUP6 DUP2 MSTORE PUSH1 0x1 PUSH1 0x1 PUSH1 0xA0 SHL SUB DUP1 DUP5 AND PUSH1 0x20 DUP4 ADD MSTORE DUP6 AND SWAP2 DUP2 ADD SWAP2 SWAP1 SWAP2 MSTORE SWAP1 SWAP2 POP PUSH32 0x86709719730335E655237EC19F947F910603BBF35B01DE8F98E5EB05922EDB43 SWAP1 PUSH1 0x60 ADD PUSH2 0x312 JUMP JUMPDEST PUSH1 0x0 DUP1 PUSH1 0x0 DUP1 PUSH1 0x0 PUSH2 0x3E7 DUP7 PUSH2 0x7AE JUMP JUMPDEST SWAP3 POP SWAP3 POP SWAP3 POP DUP3 PUSH1 0x40 MLOAD DUP1 PUSH1 0x40 ADD PUSH1 0x40 MSTORE DUP1 PUSH1 0x2 DUP2 MSTORE PUSH1 0x20 ADD PUSH2 0x1999 PUSH1 0xF1 SHL DUP2 MSTORE POP SWAP1 PUSH2 0x427 JUMPI PUSH1 0x40 MLOAD PUSH3 0x461BCD PUSH1 0xE5 SHL DUP2 MSTORE PUSH1 0x4 ADD PUSH2 0x23C SWAP2 SWAP1 PUSH2 0xC81 JUMP JUMPDEST POP SWAP1 SWAP6 SWAP1 SWAP5 POP SWAP3 POP POP POP JUMP JUMPDEST PUSH1 0x0 SLOAD PUSH1 0x40 DUP1 MLOAD DUP1 DUP3 ADD SWAP1 SWAP2 MSTORE PUSH1 0x2 DUP2 MSTORE PUSH2 0x333 PUSH1 0xF4 SHL PUSH1 0x20 DUP3 ADD MSTORE SWAP1 PUSH1 0x1 PUSH1 0x1 PUSH1 0xA0 SHL SUB AND CALLER EQ PUSH2 0x478 JUMPI PUSH1 0x40 MLOAD PUSH3 0x461BCD PUSH1 0xE5 SHL DUP2 MSTORE PUSH1 0x4 ADD PUSH2 0x23C SWAP2 SWAP1 PUSH2 0xC81 JUMP JUMPDEST POP PUSH1 0x0 PUSH2 0x487 DUP4 DUP4 PUSH1 0x2 PUSH2 0x7EE JUMP JUMPDEST PUSH1 0x40 DUP1 MLOAD DUP6 DUP2 MSTORE PUSH1 0x20 DUP2 ADD DUP4 SWAP1 MSTORE SWAP1 DUP2 ADD DUP5 SWAP1 MSTORE SWAP1 SWAP2 POP PUSH32 0xDA2476AF668C5F7EB48F492F9BBD5A7E9D4293D64144B3B7BE75A156803FB8BE SWAP1 PUSH1 0x60 ADD PUSH2 0x312 JUMP JUMPDEST PUSH1 0x0 SLOAD PUSH1 0x40 DUP1 MLOAD DUP1 DUP3 ADD SWAP1 SWAP2 MSTORE PUSH1 0x2 DUP2 MSTORE PUSH2 0x333 PUSH1 0xF4 SHL PUSH1 0x20 DUP3 ADD MSTORE SWAP1 PUSH1 0x1 PUSH1 0x1 PUSH1 0xA0 SHL SUB AND CALLER EQ PUSH2 0x50D JUMPI PUSH1 0x40 MLOAD PUSH3 0x461BCD PUSH1 0xE5 SHL DUP2 MSTORE PUSH1 0x4 ADD PUSH2 0x23C SWAP2 SWAP1 PUSH2 0xC81 JUMP JUMPDEST POP PUSH1 0x0 DUP1 SLOAD PUSH1 0x1 PUSH1 0x1 PUSH1 0xA0 SHL SUB DUP4 DUP2 AND PUSH1 0x1 PUSH1 0x1 PUSH1 0xA0 SHL SUB NOT DUP4 AND DUP2 OR SWAP1 SWAP4 SSTORE PUSH1 0x40 DUP1 MLOAD SWAP2 SWAP1 SWAP3 AND DUP1 DUP3 MSTORE PUSH1 0x20 DUP3 ADD SWAP4 SWAP1 SWAP4 MSTORE PUSH32 0xDE4B3F61490B74C0ED6237523974FE299126BBBF8A8A7482FD220104C59B0C84 SWAP2 ADD PUSH1 0x40 MLOAD DUP1 SWAP2 SUB SWAP1 LOG1 POP POP JUMP JUMPDEST PUSH1 0x0 SLOAD PUSH1 0x40 DUP1 MLOAD DUP1 DUP3 ADD SWAP1 SWAP2 MSTORE PUSH1 0x2 DUP2 MSTORE PUSH2 0x333 PUSH1 0xF4 SHL PUSH1 0x20 DUP3 ADD MSTORE SWAP1 PUSH1 0x1 PUSH1 0x1 PUSH1 0xA0 SHL SUB AND CALLER EQ PUSH2 0x5B4 JUMPI PUSH1 0x40 MLOAD PUSH3 0x461BCD PUSH1 0xE5 SHL DUP2 MSTORE PUSH1 0x4 ADD PUSH2 0x23C SWAP2 SWAP1 PUSH2 0xC81 JUMP JUMPDEST POP PUSH1 0x0 DUP1 PUSH1 0x0 PUSH2 0x5C3 DUP5 PUSH2 0x7AE JUMP JUMPDEST SWAP3 POP SWAP3 POP SWAP3 POP DUP3 PUSH1 0x40 MLOAD DUP1 PUSH1 0x40 ADD PUSH1 0x40 MSTORE DUP1 PUSH1 0x2 DUP2 MSTORE PUSH1 0x20 ADD PUSH2 0x1999 PUSH1 0xF1 SHL DUP2 MSTORE POP SWAP1 PUSH2 0x603 JUMPI PUSH1 0x40 MLOAD PUSH3 0x461BCD PUSH1 0xE5 SHL DUP2 MSTORE PUSH1 0x4 ADD PUSH2 0x23C SWAP2 SWAP1 PUSH2 0xC81 JUMP JUMPDEST POP PUSH1 0x40 DUP1 MLOAD DUP1 DUP3 ADD SWAP1 SWAP2 MSTORE PUSH1 0x2 DUP2 MSTORE PUSH2 0x3333 PUSH1 0xF0 SHL PUSH1 0x20 DUP3 ADD MSTORE DUP2 ISZERO PUSH2 0x63C JUMPI PUSH1 0x40 MLOAD PUSH3 0x461BCD PUSH1 0xE5 SHL DUP2 MSTORE PUSH1 0x4 ADD PUSH2 0x23C SWAP2 SWAP1 PUSH2 0xC81 JUMP JUMPDEST POP PUSH2 0x649 DUP5 DUP4 PUSH1 0x1 PUSH2 0x8B5 JUMP JUMPDEST PUSH1 0x40 MLOAD DUP5 DUP2 MSTORE PUSH32 0x540251D20C832DB9CA5E1AD5FAA4320509054D7067FC1D7FA5856F4CCB69CF5C SWAP1 PUSH1 0x20 ADD PUSH1 0x40 MLOAD DUP1 SWAP2 SUB SWAP1 LOG1 POP POP POP POP JUMP JUMPDEST PUSH1 0x60 PUSH1 0x0 PUSH2 0x690 PUSH1 0x2 PUSH2 0x8EA JUMP JUMPDEST SWAP1 POP PUSH1 0x0 DUP2 PUSH8 0xFFFFFFFFFFFFFFFF DUP2 GT ISZERO PUSH2 0x6AD JUMPI PUSH2 0x6AD PUSH2 0xCD6 JUMP JUMPDEST PUSH1 0x40 MLOAD SWAP1 DUP1 DUP3 MSTORE DUP1 PUSH1 0x20 MUL PUSH1 0x20 ADD DUP3 ADD PUSH1 0x40 MSTORE DUP1 ISZERO PUSH2 0x6D6 JUMPI DUP2 PUSH1 0x20 ADD PUSH1 0x20 DUP3 MUL DUP1 CALLDATASIZE DUP4 CALLDATACOPY ADD SWAP1 POP JUMPDEST POP SWAP1 POP PUSH1 0x0 JUMPDEST DUP3 DUP2 LT ISZERO PUSH2 0x71F JUMPI PUSH2 0x6EF PUSH1 0x2 DUP3 PUSH2 0x8F5 JUMP JUMPDEST POP DUP3 DUP3 DUP2 MLOAD DUP2 LT PUSH2 0x702 JUMPI PUSH2 0x702 PUSH2 0xCEC JUMP JUMPDEST PUSH1 0x20 SWAP1 DUP2 MUL SWAP2 SWAP1 SWAP2 ADD ADD MSTORE DUP1 PUSH2 0x717 DUP2 PUSH2 0xD18 JUMP JUMPDEST SWAP2 POP POP PUSH2 0x6DC JUMP JUMPDEST POP SWAP3 SWAP2 POP POP JUMP JUMPDEST PUSH1 0x0 DUP1 PUSH1 0x0 PUSH2 0x734 DUP6 PUSH2 0x7AE JUMP JUMPDEST POP SWAP2 POP SWAP2 POP DUP2 DUP1 ISZERO PUSH2 0x74B JUMPI POP DUP4 PUSH1 0xFF AND DUP2 PUSH1 0xFF AND EQ JUMPDEST PUSH1 0x40 MLOAD DUP1 PUSH1 0x40 ADD PUSH1 0x40 MSTORE DUP1 PUSH1 0x2 DUP2 MSTORE PUSH1 0x20 ADD PUSH2 0x1999 PUSH1 0xF1 SHL DUP2 MSTORE POP SWAP1 PUSH2 0x784 JUMPI PUSH1 0x40 MLOAD PUSH3 0x461BCD PUSH1 0xE5 SHL DUP2 MSTORE PUSH1 0x4 ADD PUSH2 0x23C SWAP2 SWAP1 PUSH2 0xC81 JUMP JUMPDEST POP POP POP PUSH1 0x0 SWAP3 DUP4 MSTORE POP POP PUSH1 0x1 PUSH1 0x20 MSTORE PUSH1 0x40 SWAP1 KECCAK256 SLOAD SWAP1 JUMP JUMPDEST PUSH1 0x0 PUSH2 0x7A7 DUP4 DUP4 PUSH2 0x913 JUMP JUMPDEST SWAP4 SWAP3 POP POP POP JUMP JUMPDEST PUSH1 0x0 DUP1 DUP1 DUP1 PUSH2 0x7BE PUSH1 0x2 DUP7 PUSH2 0x91F JUMP JUMPDEST SWAP1 SWAP5 POP SWAP1 POP DUP4 ISZERO PUSH2 0x7DA JUMPI DUP1 PUSH1 0x1 AND PUSH1 0x1 EQ SWAP2 POP PUSH1 0x8 DUP2 SWAP1 SHR SWAP3 POP JUMPDEST POP SWAP2 SWAP4 SWAP1 SWAP3 POP JUMP JUMPDEST PUSH1 0x0 PUSH2 0x7A7 DUP4 DUP4 PUSH2 0x92E JUMP JUMPDEST PUSH1 0x0 DUP1 PUSH1 0x0 DUP1 PUSH2 0x7FD DUP8 PUSH2 0x7AE JUMP JUMPDEST SWAP3 POP SWAP3 POP SWAP3 POP DUP3 ISZERO DUP1 PUSH2 0x815 JUMPI POP DUP5 PUSH1 0xFF AND DUP3 PUSH1 0xFF AND EQ JUMPDEST PUSH1 0x40 MLOAD DUP1 PUSH1 0x40 ADD PUSH1 0x40 MSTORE DUP1 PUSH1 0x2 DUP2 MSTORE PUSH1 0x20 ADD PUSH2 0x3331 PUSH1 0xF0 SHL DUP2 MSTORE POP SWAP1 PUSH2 0x84E JUMPI PUSH1 0x40 MLOAD PUSH3 0x461BCD PUSH1 0xE5 SHL DUP2 MSTORE PUSH1 0x4 ADD PUSH2 0x23C SWAP2 SWAP1 PUSH2 0xC81 JUMP JUMPDEST POP PUSH1 0x40 DUP1 MLOAD DUP1 DUP3 ADD SWAP1 SWAP2 MSTORE PUSH1 0x2 DUP2 MSTORE PUSH2 0x3333 PUSH1 0xF0 SHL PUSH1 0x20 DUP3 ADD MSTORE DUP2 ISZERO PUSH2 0x887 JUMPI PUSH1 0x40 MLOAD PUSH3 0x461BCD PUSH1 0xE5 SHL DUP2 MSTORE PUSH1 0x4 ADD PUSH2 0x23C SWAP2 SWAP1 PUSH2 0xC81 JUMP JUMPDEST POP PUSH1 0x0 DUP8 DUP2 MSTORE PUSH1 0x1 PUSH1 0x20 MSTORE PUSH1 0x40 DUP2 KECCAK256 DUP1 SLOAD SWAP1 DUP9 SWAP1 SSTORE SWAP1 PUSH2 0x8AA SWAP1 DUP10 SWAP1 DUP9 SWAP1 PUSH2 0x8B5 JUMP JUMPDEST SWAP8 SWAP7 POP POP POP POP POP POP POP JUMP JUMPDEST PUSH1 0x0 DUP2 PUSH2 0x8C3 JUMPI PUSH1 0x0 PUSH2 0x8C6 JUMP JUMPDEST PUSH1 0x1 JUMPDEST PUSH1 0xFF AND SWAP1 POP PUSH2 0xFF00 PUSH1 0x8 DUP5 SWAP1 SHL AND DUP2 OR PUSH2 0x8E2 PUSH1 0x2 DUP7 DUP4 PUSH2 0x94B JUMP JUMPDEST POP POP POP POP POP POP JUMP JUMPDEST PUSH1 0x0 PUSH2 0x1E4 DUP3 PUSH2 0x960 JUMP JUMPDEST PUSH1 0x0 DUP1 DUP1 DUP1 PUSH2 0x904 DUP7 DUP7 PUSH2 0x96B JUMP JUMPDEST SWAP1 SWAP5 POP SWAP3 POP POP POP JUMPDEST SWAP3 POP SWAP3 SWAP1 POP JUMP JUMPDEST PUSH1 0x0 PUSH2 0x7A7 DUP4 DUP4 PUSH2 0x996 JUMP JUMPDEST PUSH1 0x0 DUP1 DUP1 DUP1 PUSH2 0x904 DUP7 DUP7 PUSH2 0x9AE JUMP JUMPDEST PUSH1 0x0 DUP2 DUP2 MSTORE PUSH1 0x2 DUP4 ADD PUSH1 0x20 MSTORE PUSH1 0x40 DUP2 KECCAK256 DUP2 SWAP1 SSTORE PUSH2 0x7A7 DUP4 DUP4 PUSH2 0x9E8 JUMP JUMPDEST PUSH1 0x0 PUSH2 0x958 DUP5 DUP5 DUP5 PUSH2 0x9F4 JUMP JUMPDEST SWAP5 SWAP4 POP POP POP POP JUMP JUMPDEST PUSH1 0x0 PUSH2 0x1E4 DUP3 PUSH2 0xA11 JUMP JUMPDEST PUSH1 0x0 DUP1 DUP1 PUSH2 0x979 DUP6 DUP6 PUSH2 0xA1B JUMP JUMPDEST PUSH1 0x0 DUP2 DUP2 MSTORE PUSH1 0x2 SWAP7 SWAP1 SWAP7 ADD PUSH1 0x20 MSTORE PUSH1 0x40 SWAP1 SWAP6 KECCAK256 SLOAD SWAP5 SWAP6 SWAP4 POP POP POP POP JUMP JUMPDEST PUSH1 0x0 DUP2 DUP2 MSTORE PUSH1 0x1 DUP4 ADD PUSH1 0x20 MSTORE PUSH1 0x40 DUP2 KECCAK256 SLOAD ISZERO ISZERO PUSH2 0x7A7 JUMP JUMPDEST PUSH1 0x0 DUP2 DUP2 MSTORE PUSH1 0x2 DUP4 ADD PUSH1 0x20 MSTORE PUSH1 0x40 DUP2 KECCAK256 SLOAD DUP2 SWAP1 DUP1 PUSH2 0x9DD JUMPI PUSH2 0x9D0 DUP6 DUP6 PUSH2 0x913 JUMP JUMPDEST SWAP3 POP PUSH1 0x0 SWAP2 POP PUSH2 0x90C SWAP1 POP JUMP JUMPDEST PUSH1 0x1 SWAP3 POP SWAP1 POP PUSH2 0x90C JUMP JUMPDEST PUSH1 0x0 PUSH2 0x7A7 DUP4 DUP4 PUSH2 0xA27 JUMP JUMPDEST PUSH1 0x0 DUP3 DUP2 MSTORE PUSH1 0x2 DUP5 ADD PUSH1 0x20 MSTORE PUSH1 0x40 DUP2 KECCAK256 DUP3 SWAP1 SSTORE PUSH2 0x958 DUP5 DUP5 PUSH2 0xB1A JUMP JUMPDEST PUSH1 0x0 PUSH2 0x1E4 DUP3 SLOAD SWAP1 JUMP JUMPDEST PUSH1 0x0 PUSH2 0x7A7 DUP4 DUP4 PUSH2 0xB26 JUMP JUMPDEST PUSH1 0x0 DUP2 DUP2 MSTORE PUSH1 0x1 DUP4 ADD PUSH1 0x20 MSTORE PUSH1 0x40 DUP2 KECCAK256 SLOAD DUP1 ISZERO PUSH2 0xB10 JUMPI PUSH1 0x0 PUSH2 0xA4B PUSH1 0x1 DUP4 PUSH2 0xD33 JUMP JUMPDEST DUP6 SLOAD SWAP1 SWAP2 POP PUSH1 0x0 SWAP1 PUSH2 0xA5F SWAP1 PUSH1 0x1 SWAP1 PUSH2 0xD33 JUMP JUMPDEST SWAP1 POP DUP2 DUP2 EQ PUSH2 0xAC4 JUMPI PUSH1 0x0 DUP7 PUSH1 0x0 ADD DUP3 DUP2 SLOAD DUP2 LT PUSH2 0xA7F JUMPI PUSH2 0xA7F PUSH2 0xCEC JUMP JUMPDEST SWAP1 PUSH1 0x0 MSTORE PUSH1 0x20 PUSH1 0x0 KECCAK256 ADD SLOAD SWAP1 POP DUP1 DUP8 PUSH1 0x0 ADD DUP5 DUP2 SLOAD DUP2 LT PUSH2 0xAA2 JUMPI PUSH2 0xAA2 PUSH2 0xCEC JUMP JUMPDEST PUSH1 0x0 SWAP2 DUP3 MSTORE PUSH1 0x20 DUP1 DUP4 KECCAK256 SWAP1 SWAP2 ADD SWAP3 SWAP1 SWAP3 SSTORE SWAP2 DUP3 MSTORE PUSH1 0x1 DUP9 ADD SWAP1 MSTORE PUSH1 0x40 SWAP1 KECCAK256 DUP4 SWAP1 SSTORE JUMPDEST DUP6 SLOAD DUP7 SWAP1 DUP1 PUSH2 0xAD5 JUMPI PUSH2 0xAD5 PUSH2 0xD4A JUMP JUMPDEST PUSH1 0x1 SWAP1 SUB DUP2 DUP2 SWAP1 PUSH1 0x0 MSTORE PUSH1 0x20 PUSH1 0x0 KECCAK256 ADD PUSH1 0x0 SWAP1 SSTORE SWAP1 SSTORE DUP6 PUSH1 0x1 ADD PUSH1 0x0 DUP7 DUP2 MSTORE PUSH1 0x20 ADD SWAP1 DUP2 MSTORE PUSH1 0x20 ADD PUSH1 0x0 KECCAK256 PUSH1 0x0 SWAP1 SSTORE PUSH1 0x1 SWAP4 POP POP POP POP PUSH2 0x1E4 JUMP JUMPDEST PUSH1 0x0 SWAP2 POP POP PUSH2 0x1E4 JUMP JUMPDEST PUSH1 0x0 PUSH2 0x7A7 DUP4 DUP4 PUSH2 0xB50 JUMP JUMPDEST PUSH1 0x0 DUP3 PUSH1 0x0 ADD DUP3 DUP2 SLOAD DUP2 LT PUSH2 0xB3D JUMPI PUSH2 0xB3D PUSH2 0xCEC JUMP JUMPDEST SWAP1 PUSH1 0x0 MSTORE PUSH1 0x20 PUSH1 0x0 KECCAK256 ADD SLOAD SWAP1 POP SWAP3 SWAP2 POP POP JUMP JUMPDEST PUSH1 0x0 DUP2 DUP2 MSTORE PUSH1 0x1 DUP4 ADD PUSH1 0x20 MSTORE PUSH1 0x40 DUP2 KECCAK256 SLOAD PUSH2 0xB97 JUMPI POP DUP2 SLOAD PUSH1 0x1 DUP2 DUP2 ADD DUP5 SSTORE PUSH1 0x0 DUP5 DUP2 MSTORE PUSH1 0x20 DUP1 DUP3 KECCAK256 SWAP1 SWAP4 ADD DUP5 SWAP1 SSTORE DUP5 SLOAD DUP5 DUP3 MSTORE DUP3 DUP7 ADD SWAP1 SWAP4 MSTORE PUSH1 0x40 SWAP1 KECCAK256 SWAP2 SWAP1 SWAP2 SSTORE PUSH2 0x1E4 JUMP JUMPDEST POP PUSH1 0x0 PUSH2 0x1E4 JUMP JUMPDEST PUSH1 0x0 PUSH1 0x20 DUP3 DUP5 SUB SLT ISZERO PUSH2 0xBB1 JUMPI PUSH1 0x0 DUP1 REVERT JUMPDEST POP CALLDATALOAD SWAP2 SWAP1 POP JUMP JUMPDEST DUP1 CALLDATALOAD PUSH1 0x1 PUSH1 0x1 PUSH1 0xA0 SHL SUB DUP2 AND DUP2 EQ PUSH2 0xBCF JUMPI PUSH1 0x0 DUP1 REVERT JUMPDEST SWAP2 SWAP1 POP JUMP JUMPDEST PUSH1 0x0 DUP1 PUSH1 0x40 DUP4 DUP6 SUB SLT ISZERO PUSH2 0xBE7 JUMPI PUSH1 0x0 DUP1 REVERT JUMPDEST DUP3 CALLDATALOAD SWAP2 POP PUSH2 0xBF7 PUSH1 0x20 DUP5 ADD PUSH2 0xBB8 JUMP JUMPDEST SWAP1 POP SWAP3 POP SWAP3 SWAP1 POP JUMP JUMPDEST PUSH1 0x0 DUP1 PUSH1 0x40 DUP4 DUP6 SUB SLT ISZERO PUSH2 0xC13 JUMPI PUSH1 0x0 DUP1 REVERT JUMPDEST POP POP DUP1 CALLDATALOAD SWAP3 PUSH1 0x20 SWAP1 SWAP2 ADD CALLDATALOAD SWAP2 POP JUMP JUMPDEST PUSH1 0x0 PUSH1 0x20 DUP3 DUP5 SUB SLT ISZERO PUSH2 0xC34 JUMPI PUSH1 0x0 DUP1 REVERT JUMPDEST PUSH2 0x7A7 DUP3 PUSH2 0xBB8 JUMP JUMPDEST PUSH1 0x20 DUP1 DUP3 MSTORE DUP3 MLOAD DUP3 DUP3 ADD DUP2 SWAP1 MSTORE PUSH1 0x0 SWAP2 SWAP1 DUP5 DUP3 ADD SWAP1 PUSH1 0x40 DUP6 ADD SWAP1 DUP5 JUMPDEST DUP2 DUP2 LT ISZERO PUSH2 0xC75 JUMPI DUP4 MLOAD DUP4 MSTORE SWAP3 DUP5 ADD SWAP3 SWAP2 DUP5 ADD SWAP2 PUSH1 0x1 ADD PUSH2 0xC59 JUMP JUMPDEST POP SWAP1 SWAP7 SWAP6 POP POP POP POP POP POP JUMP JUMPDEST PUSH1 0x0 PUSH1 0x20 DUP1 DUP4 MSTORE DUP4 MLOAD DUP1 DUP3 DUP6 ADD MSTORE PUSH1 0x0 JUMPDEST DUP2 DUP2 LT ISZERO PUSH2 0xCAE JUMPI DUP6 DUP2 ADD DUP4 ADD MLOAD DUP6 DUP3 ADD PUSH1 0x40 ADD MSTORE DUP3 ADD PUSH2 0xC92 JUMP JUMPDEST DUP2 DUP2 GT ISZERO PUSH2 0xCC0 JUMPI PUSH1 0x0 PUSH1 0x40 DUP4 DUP8 ADD ADD MSTORE JUMPDEST POP PUSH1 0x1F ADD PUSH1 0x1F NOT AND SWAP3 SWAP1 SWAP3 ADD PUSH1 0x40 ADD SWAP4 SWAP3 POP POP POP JUMP JUMPDEST PUSH4 0x4E487B71 PUSH1 0xE0 SHL PUSH1 0x0 MSTORE PUSH1 0x41 PUSH1 0x4 MSTORE PUSH1 0x24 PUSH1 0x0 REVERT JUMPDEST PUSH4 0x4E487B71 PUSH1 0xE0 SHL PUSH1 0x0 MSTORE PUSH1 0x32 PUSH1 0x4 MSTORE PUSH1 0x24 PUSH1 0x0 REVERT JUMPDEST PUSH4 0x4E487B71 PUSH1 0xE0 SHL PUSH1 0x0 MSTORE PUSH1 0x11 PUSH1 0x4 MSTORE PUSH1 0x24 PUSH1 0x0 REVERT JUMPDEST PUSH1 0x0 PUSH1 0x0 NOT DUP3 EQ ISZERO PUSH2 0xD2C JUMPI PUSH2 0xD2C PUSH2 0xD02 JUMP JUMPDEST POP PUSH1 0x1 ADD SWAP1 JUMP JUMPDEST PUSH1 0x0 DUP3 DUP3 LT ISZERO PUSH2 0xD45 JUMPI PUSH2 0xD45 PUSH2 0xD02 JUMP JUMPDEST POP SUB SWAP1 JUMP JUMPDEST PUSH4 0x4E487B71 PUSH1 0xE0 SHL PUSH1 0x0 MSTORE PUSH1 0x31 PUSH1 0x4 MSTORE PUSH1 0x24 PUSH1 0x0 REVERT INVALID LOG2 PUSH5 0x6970667358 0x22 SLT KECCAK256 0xCB 0x1F CODESIZE 0xCB DUP14 SHR 0x2F 0xC7 PUSH27 0x47DDE9889C95F45E9CB6861DE8C8F69F03EE6D7A44977D64736F6C PUSH4 0x4300080A STOP CALLER ","sha1":"c8723ce2de294f128df1618adac5eb6b9e7793c2","source":"// SPDX-License-Identifier: UNLICENSED\npragma solidity ^0.8.4;\n\nimport \"../interfaces/IGyroConfig.sol\";\nimport \"./auth/Governable.sol\";\nimport \"../libraries/EnumerableMapping.sol\";\n\ncontract GyroConfig is IGyroConfig, Governable {\n    using EnumerableMapping for EnumerableMapping.Bytes32ToUIntMap;\n\n    uint8 internal constant ADDRESS_TYPE = 1;\n    uint8 internal constant UINT_TYPE = 2;\n\n    mapping(bytes32 => uint256) internal _config;\n\n    EnumerableMapping.Bytes32ToUIntMap internal _configMeta;\n\n    /// @inheritdoc IGyroConfig\n    function listKeys() external view override returns (bytes32[] memory) {\n        uint256 length = _configMeta.length();\n        bytes32[] memory keys = new bytes32[](length);\n        for (uint256 i = 0; i < length; i++) {\n            (keys[i], ) = _configMeta.at(i);\n        }\n        return keys;\n    }\n\n    /// @inheritdoc IGyroConfig\n    function hasKey(bytes32 key) external view override returns (bool) {\n        return _configMeta.contains(key);\n    }\n\n    /// @inheritdoc IGyroConfig\n    function getConfigMeta(bytes32 key) external view override returns (uint8, bool) {\n        (bool exists, uint8 configType, bool frozen) = _getConfigMeta(key);\n        require(exists, Errors.KEY_NOT_FOUND);\n        return (configType, frozen);\n    }\n\n    /// @inheritdoc IGyroConfig\n    function getUint(bytes32 key) external view override returns (uint256) {\n        return _get(key, UINT_TYPE);\n    }\n\n    /// @inheritdoc IGyroConfig\n    function getAddress(bytes32 key) external view override returns (address) {\n        return address(uint160(_get(key, ADDRESS_TYPE)));\n    }\n\n    /// @inheritdoc IGyroConfig\n    function setUint(bytes32 key, uint256 newValue) external override governanceOnly {\n        uint256 oldValue = _set(key, newValue, UINT_TYPE);\n        emit ConfigChanged(key, oldValue, newValue);\n    }\n\n    /// @inheritdoc IGyroConfig\n    function setAddress(bytes32 key, address newValue) external override governanceOnly {\n        uint256 oldValue = _set(key, uint256(uint160(newValue)), ADDRESS_TYPE);\n        emit ConfigChanged(key, address(uint160(oldValue)), newValue);\n    }\n\n    /// @inheritdoc IGyroConfig\n    function unset(bytes32 key) external override governanceOnly {\n        (bool exists, , bool frozen) = _getConfigMeta(key);\n        require(exists, Errors.KEY_NOT_FOUND);\n        require(!frozen, Errors.KEY_FROZEN);\n        delete _config[key];\n        _configMeta.remove(key);\n        emit ConfigUnset(key);\n    }\n\n    /// @inheritdoc IGyroConfig\n    function freeze(bytes32 key) external governanceOnly {\n        (bool exists, uint8 configType, bool frozen) = _getConfigMeta(key);\n        require(exists, Errors.KEY_NOT_FOUND);\n        require(!frozen, Errors.KEY_FROZEN);\n        _setConfigMeta(key, configType, true);\n\n        emit ConfigFrozen(key);\n    }\n\n    function _get(bytes32 key, uint8 expectedType) internal view returns (uint256) {\n        (bool exists, uint8 configType, ) = _getConfigMeta(key);\n        require(exists && configType == expectedType, Errors.KEY_NOT_FOUND);\n        return _config[key];\n    }\n\n    function _set(\n        bytes32 key,\n        uint256 newValue,\n        uint8 expectedType\n    ) internal returns (uint256) {\n        (bool exists, uint8 configType, bool frozen) = _getConfigMeta(key);\n        require(!exists || configType == expectedType, Errors.INVALID_ARGUMENT);\n        require(!frozen, Errors.KEY_FROZEN);\n        uint256 oldValue = _config[key];\n        _config[key] = newValue;\n        _setConfigMeta(key, expectedType, false);\n        return oldValue;\n    }\n\n    function _setConfigMeta(\n        bytes32 key,\n        uint8 configType,\n        bool frozen\n    ) internal {\n        uint256 frozenB = frozen ? 1 : 0;\n        uint256 value = (uint256(configType) << 8) | frozenB;\n        _configMeta.set(key, value);\n    }\n\n    function _getConfigMeta(bytes32 key)\n        internal\n        view\n        returns (\n            bool exists,\n            uint8 configType,\n            bool frozen\n        )\n    {\n        uint256 meta;\n        (exists, meta) = _configMeta.tryGet(key);\n        if (exists) {\n            frozen = meta & 0x1 == 1;\n            configType = uint8(meta >> 8);\n        }\n    }\n}\n","sourcePath":"contracts/GyroConfig.sol","type":"contract","deployment":{"address":"0x429d5e3dcD3b0E643C4ceD35ee4b9334f9Bf81D7","chainid":"137","blockHeight":26855699}}