{"abi":[{"inputs":[{"internalType":"address","name":"_governor","type":"address"},{"internalType":"address","name":"_gyroConfig","type":"address"},{"components":[{"internalType":"uint64","name":"alphaBar","type":"uint64"},{"internalType":"uint64","name":"xuBar","type":"uint64"},{"internalType":"uint64","name":"thetaBar","type":"uint64"},{"internalType":"uint64","name":"outflowMemory","type":"uint64"}],"internalType":"struct IPAMM.Params","name":"params","type":"tuple"}],"stateMutability":"nonpayable","type":"constructor","name":"constructor"},{"anonymous":false,"inputs":[{"indexed":false,"internalType":"address","name":"newGovernor","type":"address"}],"name":"GovernorChangeRequested","type":"event"},{"anonymous":false,"inputs":[{"indexed":false,"internalType":"address","name":"oldGovernor","type":"address"},{"indexed":false,"internalType":"address","name":"newGovernor","type":"address"}],"name":"GovernorChanged","type":"event"},{"anonymous":false,"inputs":[{"indexed":false,"internalType":"uint64","name":"alphaBar","type":"uint64"},{"indexed":false,"internalType":"uint64","name":"xuBar","type":"uint64"},{"indexed":false,"internalType":"uint64","name":"thetaBar","type":"uint64"},{"indexed":false,"internalType":"uint64","name":"outflowMemory","type":"uint64"}],"name":"SystemParamsUpdated","type":"event"},{"inputs":[],"name":"acceptGovernance","outputs":[],"stateMutability":"nonpayable","type":"function"},{"inputs":[{"internalType":"address","name":"newGovernor","type":"address"}],"name":"changeGovernor","outputs":[],"stateMutability":"nonpayable","type":"function"},{"inputs":[{"internalType":"uint256","name":"usdAmount","type":"uint256"},{"internalType":"uint256","name":"","type":"uint256"}],"name":"computeMintAmount","outputs":[{"internalType":"uint256","name":"","type":"uint256"}],"stateMutability":"pure","type":"function"},{"inputs":[{"internalType":"uint256","name":"gydAmount","type":"uint256"},{"internalType":"uint256","name":"reserveUSDValue","type":"uint256"}],"name":"computeRedeemAmount","outputs":[{"internalType":"uint256","name":"","type":"uint256"}],"stateMutability":"view","type":"function"},{"inputs":[],"name":"governor","outputs":[{"internalType":"address","name":"","type":"address"}],"stateMutability":"view","type":"function"},{"inputs":[],"name":"gyroConfig","outputs":[{"internalType":"contract IGyroConfig","name":"","type":"address"}],"stateMutability":"view","type":"function"},{"inputs":[],"name":"lastRedemptionBlock","outputs":[{"internalType":"uint256","name":"","type":"uint256"}],"stateMutability":"view","type":"function"},{"inputs":[{"internalType":"uint256","name":"usdAmount","type":"uint256"},{"internalType":"uint256","name":"","type":"uint256"}],"name":"mint","outputs":[{"internalType":"uint256","name":"","type":"uint256"}],"stateMutability":"view","type":"function"},{"inputs":[],"name":"pendingGovernor","outputs":[{"internalType":"address","name":"","type":"address"}],"stateMutability":"view","type":"function"},{"inputs":[{"internalType":"uint256","name":"gydAmount","type":"uint256"},{"internalType":"uint256","name":"reserveUSDValue","type":"uint256"}],"name":"redeem","outputs":[{"internalType":"uint256","name":"","type":"uint256"}],"stateMutability":"nonpayable","type":"function"},{"inputs":[],"name":"redemptionLevel","outputs":[{"internalType":"uint256","name":"","type":"uint256"}],"stateMutability":"view","type":"function"},{"inputs":[{"components":[{"internalType":"uint64","name":"alphaBar","type":"uint64"},{"internalType":"uint64","name":"xuBar","type":"uint64"},{"internalType":"uint64","name":"thetaBar","type":"uint64"},{"internalType":"uint64","name":"outflowMemory","type":"uint64"}],"internalType":"struct IPAMM.Params","name":"params","type":"tuple"}],"name":"setSystemParams","outputs":[],"stateMutability":"nonpayable","type":"function"},{"inputs":[],"name":"systemParams","outputs":[{"internalType":"uint64","name":"alphaBar","type":"uint64"},{"internalType":"uint64","name":"xuBar","type":"uint64"},{"internalType":"uint64","name":"thetaBar","type":"uint64"},{"internalType":"uint64","name":"outflowMemory","type":"uint64"}],"stateMutability":"view","type":"function"}],"bytecode":"60a06040523480156200001157600080fd5b5060405162002cd238038062002cd2833981016040819052620000349162000197565b600080546001600160a01b0319166001600160a01b038516908117825560408051928352602083019190915284917fde4b3f61490b74c0ed6237523974fe299126bbbf8a8a7482fd220104c59b0c84910160405180910390a150604080518082019091526002815261333160f01b60208201526001600160a01b038316620000da5760405162461bcd60e51b8152600401620000d1919062000269565b60405180910390fd5b506001600160a01b03909116608052805160028054602084015160408501516060909501516001600160401b03908116600160c01b026001600160c01b03968216600160801b02969096166001600160801b0392821668010000000000000000026001600160801b0319909416919095161791909117169190911791909117905550620002c1565b80516001600160a01b03811681146200017a57600080fd5b919050565b80516001600160401b03811681146200017a57600080fd5b600080600083850360c0811215620001ae57600080fd5b620001b98562000162565b9350620001c96020860162000162565b92506080603f1982011215620001de57600080fd5b50604051608081016001600160401b03811182821017156200021057634e487b7160e01b600052604160045260246000fd5b806040525062000223604086016200017f565b815262000233606086016200017f565b602082015262000246608086016200017f565b60408201526200025960a086016200017f565b6060820152809150509250925092565b600060208083528351808285015260005b8181101562000298578581018301518582016040015282016200027a565b81811115620002ab576000604083870101525b50601f01601f1916929092016040019392505050565b6080516129e0620002f26000396000818161013d0152818161024501528181610411015261102201526129e06000f3fe608060405234801561001057600080fd5b50600436106100cf5760003560e01c80635baaeaab1161008c5780637cbc2373116100665780637cbc2373146101f25780639e59085414610205578063e3056a3414610218578063e4c0aaf41461022b57600080fd5b80635baaeaab146101c4578063616a1ed9146101cd57806371db63ec146101df57600080fd5b80630c340a24146100d45780631b2ef1ca14610104578063238efcbc14610125578063362141441461012f57806344bbdb5514610138578063458e8e6b1461015f575b600080fd5b6000546100e7906001600160a01b031681565b6040516001600160a01b0390911681526020015b60405180910390f35b610117610112366004612648565b61023e565b6040519081526020016100fb565b61012d6102d3565b005b61011760045481565b6100e77f000000000000000000000000000000000000000000000000000000000000000081565b600254610191906001600160401b0380821691600160401b8104821691600160801b8204811691600160c01b90041684565b604080516001600160401b03958616815293851660208501529184169183019190915290911660608201526080016100fb565b61011760035481565b6101176101db366004612648565b5090565b6101176101ed366004612648565b610383565b610117610200366004612648565b61040a565b61012d610213366004612686565b61052a565b6001546100e7906001600160a01b031681565b61012d610239366004612728565b610663565b60006102727f00000000000000000000000000000000000000000000000000000000000000006001600160a01b0316610738565b6001600160a01b0316336001600160a01b03161460405180604001604052806002815260200161033360f41b815250906102c85760405162461bcd60e51b81526004016102bf9190612745565b60405180910390fd5b508290505b92915050565b600154604080518082019091526002815261033360f41b6020820152906001600160a01b031633146103185760405162461bcd60e51b81526004016102bf9190612745565b5060008054600180546001600160a01b03198084166001600160a01b03808416919091179095551690556040805192909116808352336020840152917fde4b3f61490b74c0ed6237523974fe299126bbbf8a8a7482fd220104c59b0c8491015b60405180910390a150565b600082610392575060006102cd565b604080516080810182526002546001600160401b038082168352600160401b820481166020840152600160801b8204811693830193909352600160c01b9004909116606082015260006103e4826107ba565b905060006103f285846109af565b905061040081848489610a17565b9695505050505050565b600061043e7f00000000000000000000000000000000000000000000000000000000000000006001600160a01b0316610738565b6001600160a01b0316336001600160a01b03161460405180604001604052806002815260200161033360f41b8152509061048b5760405162461bcd60e51b81526004016102bf9190612745565b5082610499575060006102cd565b604080516080810182526002546001600160401b038082168352600160401b820481166020840152600160801b8204811693830193909352600160c01b9004909116606082015260006104ec84836109af565b905060006104f9836107ba565b905060006105098385848a610a17565b83519091506105199088906127b0565b600355436004559695505050505050565b600054604080518082019091526002815261033360f41b6020820152906001600160a01b0316331461056f5760405162461bcd60e51b81526004016102bf9190612745565b508051600280546020840151604085015160608601516001600160401b03908116600160c01b026001600160c01b03928216600160801b02929092166fffffffffffffffffffffffffffffffff938216600160401b026fffffffffffffffffffffffffffffffff1990951691909616179290921716929092179190911790556105f7816107ba565b507f4c76fdbdf1d037612da5c0dce3f84fb05d29652b0dbc2d66501d683d3df4df88816000015182602001518360400151846060015160405161037894939291906001600160401b03948516815292841660208401529083166040830152909116606082015260800190565b600054604080518082019091526002815261033360f41b6020820152906001600160a01b031633146106a85760405162461bcd60e51b81526004016102bf9190612745565b50604080518082019091526002815261333160f01b60208201526001600160a01b0382166106e95760405162461bcd60e51b81526004016102bf9190612745565b50600180546001600160a01b0319166001600160a01b0383169081179091556040519081527f67235ba2e63c748a35b95c4f92a3bbc2a1389938170a5ce6c9add5d0b03a314a90602001610378565b6040516321f8a72160e01b8152724d4f54484552424f4152445f4144445245535360681b60048201526000906001600160a01b038316906321f8a721906024015b602060405180830381865afa158015610796573d6000803e3d6000fd5b505050506040513d601f19601f820116820180604052508101906102cd91906127c8565b6107c26125b5565b6107ca6125b5565b6107e183602001516001600160401b031684610b5e565b81526107ee600084610b5e565b81602001818152505061082b8160000151670de0b6b3a764000085600001516001600160401b031686602001516001600160401b03166001610cb5565b6040820152602081015183516108589190670de0b6b3a7640000906001600160401b031660006001610cb5565b60608201526040830151600090610880906001600160401b0316670de0b6b3a76400006127e5565b84519091506108909060026127fc565b6001600160401b03166108a460028361290f565b6108ae9190612934565b6108c090670de0b6b3a76400006127e5565b60808301819052845160208601516108f09291670de0b6b3a7640000916001600160401b03918216911685610dc2565b60c083018190526080830151855161091d92670de0b6b3a7640000916001600160401b0316906001610cb5565b60e08301526040840151600290610945906001600160401b0316670de0b6b3a76400006127b0565b61094f9190612934565b60a083018190526040850151855161097e9291670de0b6b3a7640000916001600160401b039182169116610ec1565b610100830181905260a08301516109a291670de0b6b3a76400009060006001610cb5565b6101208301525092915050565b6109d360405180606001604052806000815260200160008152602001600081525090565b60405180606001604052806109fb6003544360045487606001516001600160401b0316610fa3565b8152602001848152602001610a0e61101b565b90529392505050565b6000610a3d60405180606001604052806000815260200160008152602001600081525090565b85516040870151600091610a50916127b0565b8751909150610a5f90826110b5565b82526020870151610a7090826110b5565b60208301526040870151610a8490826110b5565b604083018190526020830151600091610a9d91906110b5565b9050670de0b6b3a76400008110610ab957849350505050610b56565b86604001516001600160401b03168111610b01576000610aea89604001518a602001516110b590919063ffffffff16565b9050610af68187611125565b945050505050610b56565b6000610b0e848989611146565b90506000610b1c8285611125565b90506000610b3b888c60000151610b3391906127b0565b83878d611610565b9050808b60200151610b4d91906127e5565b96505050505050505b949350505050565b600082670de0b6b3a76400001015610bb85760405162461bcd60e51b815260206004820152601a60248201527f7961206d7573742062652067726561746572207468616e20787500000000000060448201526064016102bf565b81516001600160401b03166000610bd785670de0b6b3a76400006127e5565b60408501519091506001600160401b0316610bf28383611125565b610c0490670de0b6b3a76400006127e5565b10610c4a57671bc16d674ec80000610c1b82611699565b610c259084612948565b610c2f9190612934565b610c4190670de0b6b3a76400006127e5565b925050506102cd565b600084604001516001600160401b0316670de0b6b3a7640000610c6d91906127e5565b9050610c7a836002612948565b610c8560028361290f565b610c8f9190612934565b610c998284611125565b610cab90670de0b6b3a76400006127e5565b61040091906127b0565b600084861060405180604001604052806002815260200161333160f01b81525090610cf35760405162461bcd60e51b81526004016102bf9190612745565b506000610d08610d0385886127e5565b6116a5565b9050600085610d1789896127e5565b610d2990671bc16d674ec80000612948565b610d339190612934565b9050808210610d6157610d4e610d4982846127e5565b6116b1565b610d5890886127e5565b92505050610db9565b8380610d79575080610d76620f4240846127b0565b10155b60405180604001604052806002815260200161323760f01b81525090610db25760405162461bcd60e51b81526004016102bf9190612745565b5086925050505b95945050505050565b600080610dcf87876127e5565b90506000610ddd8588611125565b90506000671bc16d674ec80000610df560028761290f565b610dff9190612934565b610e098885611125565b11610e5f57600087610e2385671bc16d674ec80000612948565b610e2d9190612934565b90506000610e3a826116b1565b905089811015610e5357610e4e818b6127e5565b610e56565b60005b92505050610eaa565b6000610e76610e6f896002612948565b87906110b5565b610e8085886110b5565b610e8a91906127b0565b905088811015610ea357610e9e818a6127e5565b610ea6565b60005b9150505b610eb481836116cf565b9998505050505050505050565b600080610ece86866110b5565b90506000610edc84876110b5565b905060006002610ef487670de0b6b3a76400006127b0565b610efe9190612934565b8310610f3957610f3287610f2c610f1d86670de0b6b3a76400006127e5565b671bc16d674ec8000090611125565b906110b5565b9050610f8d565b60006002610f4f88670de0b6b3a76400006127e5565b610f59919061290f565b90506000610f67888a611125565b610f71908b6127e5565b9050610f7e816002612948565b610f889083612934565b925050505b610f9781836116e5565b98975050505050505050565b600083831015610fdc576000610fb984866127e5565b90506000610fc784836116f4565b9050610fd38782611125565b92505050610b56565b83831415610feb575083610b56565b6040805180820182526002815261333160f01b6020820152905162461bcd60e51b81526102bf9190600401612745565b600061104f7f00000000000000000000000000000000000000000000000000000000000000006001600160a01b0316611744565b6001600160a01b03166318160ddd6040518163ffffffff1660e01b8152600401602060405180830381865afa15801561108c573d6000803e3d6000fd5b505050506040513d601f19601f820116820180604052508101906110b09190612967565b905090565b604080518082019091526002815261323560f01b6020820152600090826110ef5760405162461bcd60e51b81526004016102bf9190612745565b50826110fd575060006102cd565b6000611111670de0b6b3a764000085612948565b905061111d8382612934565b9150506102cd565b6000806111328385612948565b9050610b56670de0b6b3a764000082612934565b6000611150612608565b600061115d868686611787565b670de0b6b3a764000083526040870151602088015191925061117f91906110b5565b6020830181905261119890670de0b6b3a76400006127e5565b606083015260408501516111bd906001600160401b0316670de0b6b3a76400006127e5565b608083015260008160068111156111d6576111d6612980565b14156111f657855160208701516111ed91906127b0565b92505050611609565b600181600681111561120a5761120a612980565b141561128757600085602001516001600160401b0316876000015161122f91906127e5565b9050671bc16d674ec8000061124382611699565b875161125891906001600160401b0316612948565b6112629190612934565b8751602089015161127391906127b0565b61127d91906127e5565b9350505050611609565b600281600681111561129b5761129b612980565b14156113135784516112ae9060026127fc565b6001600160401b0316600283606001516112c8919061290f565b6112d29190612934565b6112fd836060015187602001516001600160401b031685600001516112f791906127e5565b90611125565b835161130991906127e5565b6111ed91906127b0565b600381600681111561132757611327612980565b14156113a3576000671bc16d674ec800006113746002896040015161134c9190612934565b88516060870151611365916001600160401b03166110b5565b61136f91906127b0565b611699565b875161138991906001600160401b0316612948565b6113939190612934565b835190915061127d9082906127e5565b60048160068111156113b7576113b7612980565b141561149f57600061140487604001516113ef886000015160026113db91906127fc565b6080870151906001600160401b03166110b5565b6113f991906127b0565b608085015190611125565b9050600061146761142f88604001516001600160401b03168a6040015161112590919063ffffffff16565b896020015161143e91906127e5565b88600001516001600160401b03166002876080015161145d919061290f565b6112f79190612934565b611472906002612948565b90508161147e826116b1565b855161148a91906127b0565b61149491906127e5565b945050505050611609565b60058160068111156114b3576114b3612980565b14156114f15760006113936114cb8860000151611699565b6114dd90670de0b6b3a76400006127e5565b88602001518960400151610f2c91906127e5565b600681600681111561150557611505612980565b14156115d0576000600283608001518860200151896040015161152891906127e5565b61153291906127b0565b61153c9190612934565b90506000600461155f6115528a60000151611699565b6112f78760800151611699565b6115699190612934565b61158585608001518a602001518b604001516112f791906127e5565b61158f91906127b0565b905060006115aa826115a085611699565b610d4991906127e5565b6115b490846127e5565b85519091506115c49082906127e5565b95505050505050611609565b60405162461bcd60e51b815260206004820152600e60248201526d3ab735b737bbb7103932b3b4b7b760911b60448201526064016102bf565b9392505050565b600080611639858585604001516001600160401b031686600001516001600160401b0316610ec1565b9050600061167786868487602001516001600160401b031688604001516001600160401b0316670de0b6b3a764000061167291906127e5565b610dc2565b90506000611689878785856000610cb5565b9050610f97888888868686611995565b60006102cd8283611125565b60006102cd8283611a32565b60006102cd826116ca6002670de0b6b3a7640000612934565b611a79565b60008183106116de5781611609565b5090919050565b60008183116116de5781611609565b6000670de0b6b3a76400005b821561160957611711600284612996565b60011415611726576117238185611125565b90505b611731600284612934565b925061173d8485611125565b9350611700565b6040516321f8a72160e01b8152704759445f544f4b454e5f4144445245535360781b60048201526000906001600160a01b038316906321f8a72190602401610779565b6000611794848484611c05565b1561183c5782602001516001600160401b03168460000151116117b957506000611609565b60006117d6856040015186602001516110b590919063ffffffff16565b9050600061180b85602001516001600160401b031687600001516117fa91906127e5565b86516001600160401b031690611125565b61181d90670de0b6b3a76400006127e5565b905080821161183157600192505050611609565b600292505050611609565b6118548484600001516001600160401b031684611c53565b15611974576118718484600001516001600160401b031684611c78565b156118d757671bc16d674ec8000083600001516001600160401b031661189a8660400151611699565b6118a49190612948565b6118ae9190612934565b846020015185604001516118c291906127e5565b116118cf57506000611609565b506003611609565b600083604001516001600160401b0316670de0b6b3a76400006118fa91906127e5565b845190915061190a9060026127fc565b6001600160401b031661191e60028361290f565b6119289190612934565b61194c866040015186604001516001600160401b031661112590919063ffffffff16565b866020015161195b91906127e5565b1061196a576000915050611609565b6004915050611609565b61197e8483611ca0565b1561198b57506005611609565b5060069392505050565b60008287116119af576119a887876127e5565b9050610400565b8187116119f457671bc16d674ec800006119cc61136f858a6127e5565b6119d69086612948565b6119e09190612934565b6119ea88886127e5565b6119a891906127b0565b6000611a0a611a0385856127e5565b8690611125565b611a1c90670de0b6b3a76400006127e5565b9050610f97611a2b89886127e5565b8290611125565b600080611a3f8385612948565b905080611a505760009150506102cd565b670de0b6b3a7640000611a646001836127e5565b611a6e9190612934565b61111d9060016127b0565b600081611a8f5750670de0b6b3a76400006102cd565b82611a9c575060006102cd565b604080518082019091526002815261032360f41b6020820152600160ff1b8410611ad95760405162461bcd60e51b81526004016102bf9190612745565b50604080518082019091526002815261323160f01b60208201528390770bce5086492111aea88f4bb1ca6bcf584181ea8059f765328410611b2d5760405162461bcd60e51b81526004016102bf9190612745565b50826000670c7d713b49da000083138015611b4f5750670f43fc2c04ee000083125b15611b86576000611b5f84611cda565b9050670de0b6b3a764000080820784020583670de0b6b3a764000083050201915050611b94565b81611b9084611df9565b0290505b670de0b6b3a76400009005680238fd42c5cf03ffff198112801590611bc2575068070c1cc73b00c800008113155b60405180604001604052806002815260200161191960f11b81525090611bfb5760405162461bcd60e51b81526004016102bf9190612745565b50610400816121a3565b6000611c4384600001518360000151670de0b6b3a764000086600001516001600160401b031687602001516001600160401b03168760400151611995565b8460200151101590509392505050565b6000611c4384600001518360200151670de0b6b3a76400008660008760600151611995565b6000611c4384600001518360800151670de0b6b3a7640000868660c001518760e00151611995565b6000611ccb83600001518360a00151670de0b6b3a76400008561010001516000876101200151611995565b83602001511015905092915050565b670de0b6b3a7640000026000806a0c097ce7bc90715b34b9f160241b808401906ec097ce7bc90715b34b9f0fffffffff1985010281611d1b57611d1b61291e565b05905060006a0c097ce7bc90715b34b9f160241b82800205905081806a0c097ce7bc90715b34b9f160241b81840205915060038205016a0c097ce7bc90715b34b9f160241b82840205915060058205016a0c097ce7bc90715b34b9f160241b82840205915060078205016a0c097ce7bc90715b34b9f160241b82840205915060098205016a0c097ce7bc90715b34b9f160241b828402059150600b8205016a0c097ce7bc90715b34b9f160241b828402059150600d8205016a0c097ce7bc90715b34b9f160241b828402059150600f82050160020295945050505050565b6000670de0b6b3a7640000821215611e3a57611e31826a0c097ce7bc90715b34b9f160241b81611e2b57611e2b61291e565b05611df9565b60000392915050565b60007e1600ef3172e58d2e933ec884fde10064c63b5372d805e203c00000000000008312611e8b57770195e54c5dd42177f53a27172fa9ec630262827000000000830592506806f05b59d3b2000000015b73011798004d755d3c8bc8e03204cf44619e0000008312611ec3576b1425982cf597cd205cef7380830592506803782dace9d9000000015b606492830292026e01855144814a7ff805980ff00840008312611f0b576e01855144814a7ff805980ff008400068056bc75e2d63100000840205925068ad78ebc5ac62000000015b6b02df0ab5a80a22c61ab5a7008312611f46576b02df0ab5a80a22c61ab5a70068056bc75e2d6310000084020592506856bc75e2d631000000015b693f1fce3da636ea5cf8508312611f7d57693f1fce3da636ea5cf85068056bc75e2d631000008402059250682b5e3af16b18800000015b690127fa27722cc06cc5e28312611fb457690127fa27722cc06cc5e268056bc75e2d6310000084020592506815af1d78b58c400000015b68280e60114edb805d038312611fe95768280e60114edb805d0368056bc75e2d631000008402059250680ad78ebc5ac6200000015b680ebc5fb41746121110831261201457680ebc5fb4174612111068056bc75e2d631000009384020592015b6808f00f760a4b2db55d8312612049576808f00f760a4b2db55d68056bc75e2d6310000084020592506802b5e3af16b1880000015b6806f5f1775788937937831261207e576806f5f177578893793768056bc75e2d63100000840205925068015af1d78b58c40000015b6806248f33704b28660383126120b2576806248f33704b28660368056bc75e2d63100000840205925067ad78ebc5ac620000015b6805c548670b9510e7ac83126120e6576805c548670b9510e7ac68056bc75e2d6310000084020592506756bc75e2d6310000015b600068056bc75e2d63100000840168056bc75e2d63100000808603028161210f5761210f61291e565b059050600068056bc75e2d63100000828002059050818068056bc75e2d63100000818402059150600382050168056bc75e2d63100000828402059150600582050168056bc75e2d63100000828402059150600782050168056bc75e2d63100000828402059150600982050168056bc75e2d63100000828402059150600b820501600202606485820105979650505050505050565b6000680238fd42c5cf03ffff1982121580156121c8575068070c1cc73b00c800008213155b60405180604001604052806002815260200161323360f01b815250906122015760405162461bcd60e51b81526004016102bf9190612745565b50600082121561223a57612217826000036121a3565b6a0c097ce7bc90715b34b9f160241b816122335761223361291e565b0592915050565b60006806f05b59d3b2000000831261227a57506806f05b59d3b1ffffff1990910190770195e54c5dd42177f53a27172fa9ec6302628270000000006122b0565b6803782dace9d900000083126122ac57506803782dace9d8ffffff19909101906b1425982cf597cd205cef73806122b0565b5060015b6064929092029168056bc75e2d6310000068ad78ebc5ac6200000084126123005768ad78ebc5ac61ffffff199093019268056bc75e2d631000006e01855144814a7ff805980ff008400082020590505b6856bc75e2d631000000841261233c576856bc75e2d630ffffff199093019268056bc75e2d631000006b02df0ab5a80a22c61ab5a70082020590505b682b5e3af16b18800000841261237657682b5e3af16b187fffff199093019268056bc75e2d63100000693f1fce3da636ea5cf85082020590505b6815af1d78b58c40000084126123b0576815af1d78b58c3fffff199093019268056bc75e2d63100000690127fa27722cc06cc5e282020590505b680ad78ebc5ac620000084126123e957680ad78ebc5ac61fffff199093019268056bc75e2d6310000068280e60114edb805d0382020590505b68056bc75e2d6310000084126124225768056bc75e2d630fffff199093019268056bc75e2d63100000680ebc5fb4174612111082020590505b6802b5e3af16b1880000841261245b576802b5e3af16b187ffff199093019268056bc75e2d631000006808f00f760a4b2db55d82020590505b68015af1d78b58c4000084126124945768015af1d78b58c3ffff199093019268056bc75e2d631000006806f5f177578893793782020590505b68056bc75e2d631000008481019085906002908280020505918201919050600368056bc75e2d631000008783020505918201919050600468056bc75e2d631000008783020505918201919050600568056bc75e2d631000008783020505918201919050600668056bc75e2d631000008783020505918201919050600768056bc75e2d631000008783020505918201919050600868056bc75e2d631000008783020505918201919050600968056bc75e2d631000008783020505918201919050600a68056bc75e2d631000008783020505918201919050600b68056bc75e2d631000008783020505918201919050600c68056bc75e2d631000008783020505918201919050606468056bc75e2d63100000848402058502059695505050505050565b604051806101400160405280600081526020016000815260200160008152602001600081526020016000815260200160008152602001600081526020016000815260200160008152602001600081525090565b6040518060a0016040528060008152602001600081526020016000600681111561263457612634612980565b815260200160008152602001600081525090565b6000806040838503121561265b57600080fd5b50508035926020909101359150565b80356001600160401b038116811461268157600080fd5b919050565b60006080828403121561269857600080fd5b604051608081018181106001600160401b03821117156126c857634e487b7160e01b600052604160045260246000fd5b6040526126d48361266a565b81526126e26020840161266a565b60208201526126f36040840161266a565b60408201526127046060840161266a565b60608201529392505050565b6001600160a01b038116811461272557600080fd5b50565b60006020828403121561273a57600080fd5b813561160981612710565b600060208083528351808285015260005b8181101561277257858101830151858201604001528201612756565b81811115612784576000604083870101525b50601f01601f1916929092016040019392505050565b634e487b7160e01b600052601160045260246000fd5b600082198211156127c3576127c361279a565b500190565b6000602082840312156127da57600080fd5b815161160981612710565b6000828210156127f7576127f761279a565b500390565b60006001600160401b03808316818516818304811182151516156128225761282261279a565b02949350505050565b600181815b8085111561286657816000190482111561284c5761284c61279a565b8085161561285957918102915b93841c9390800290612830565b509250929050565b60008261287d575060016102cd565b8161288a575060006102cd565b81600181146128a057600281146128aa576128c6565b60019150506102cd565b60ff8411156128bb576128bb61279a565b50506001821b6102cd565b5060208310610133831016604e8410600b84101617156128e9575081810a6102cd565b6128f3838361282b565b80600019048211156129075761290761279a565b029392505050565b600061160960ff84168361286e565b634e487b7160e01b600052601260045260246000fd5b6000826129435761294361291e565b500490565b60008160001904831182151516156129625761296261279a565b500290565b60006020828403121561297957600080fd5b5051919050565b634e487b7160e01b600052602160045260246000fd5b6000826129a5576129a561291e565b50069056fea264697066735822122043e5d168650a14d91dd7b19c178b5d7f871a801d11ca3afda60893e3ba5eeb3464736f6c634300080a0033","bytecodeSha1":"07a57b951c786327ef27b30a02f91c893abe6092","compiler":{"evm_version":"london","optimizer":{"enabled":true,"runs":200},"version":"0.8.10+commit.fc410830"},"contractName":"PrimaryAMMV1","language":"Solidity","natspec":{"kind":"dev","methods":{"acceptGovernance()":{"notice":"Called by the pending governor to approve the change"},"changeGovernor(address)":{"notice":"Changes the governor can only be called by the current governor"},"computeMintAmount(uint256,uint256)":{"notice":"Returns the USD value to mint given an ammount of Gyro dollars"},"computeRedeemAmount(uint256,uint256)":{"notice":"Computes the USD value to redeem given an ammount of Gyro dollars"},"constructor":{"notice":"Initializes the PAMM with the given system parameters"},"governor()":{"notice":"Returns the current governor"},"lastRedemptionBlock()":{"notice":"the last block at which a redemption occured"},"mint(uint256,uint256)":{"notice":"Records and returns the USD value to mint given an ammount of Gyro dollars"},"pendingGovernor()":{"notice":"Returns the pending governor"},"redeem(uint256,uint256)":{"notice":"Computes and records the USD value to redeem given an ammount of Gyro dollars"},"redemptionLevel()":{"notice":"current redemption level of the primary AMM"},"setSystemParams((uint64,uint64,uint64,uint64))":{"notice":"Allows for the system parameters to be updated"},"systemParams()":{"notice":"parameters of the primary AMM"}},"notice":"Implements the primary AMM pricing mechanism","stateVariables":{"_UNDERFLOW_EPSILON":{"details":"we tolerate underflows due to numerical issues up to 1e6, so 1e-12 given our 1e18 scale"}},"version":1},"opcodes":"PUSH1 0x80 PUSH1 0x40 MSTORE CALLVALUE DUP1 ISZERO PUSH2 0x10 JUMPI PUSH1 0x0 DUP1 REVERT JUMPDEST POP PUSH1 0x4 CALLDATASIZE LT PUSH2 0xCF JUMPI PUSH1 0x0 CALLDATALOAD PUSH1 0xE0 SHR DUP1 PUSH4 0x5BAAEAAB GT PUSH2 0x8C JUMPI DUP1 PUSH4 0x7CBC2373 GT PUSH2 0x66 JUMPI DUP1 PUSH4 0x7CBC2373 EQ PUSH2 0x1F2 JUMPI DUP1 PUSH4 0x9E590854 EQ PUSH2 0x205 JUMPI DUP1 PUSH4 0xE3056A34 EQ PUSH2 0x218 JUMPI DUP1 PUSH4 0xE4C0AAF4 EQ PUSH2 0x22B JUMPI PUSH1 0x0 DUP1 REVERT JUMPDEST DUP1 PUSH4 0x5BAAEAAB EQ PUSH2 0x1C4 JUMPI DUP1 PUSH4 0x616A1ED9 EQ PUSH2 0x1CD JUMPI DUP1 PUSH4 0x71DB63EC EQ PUSH2 0x1DF JUMPI PUSH1 0x0 DUP1 REVERT JUMPDEST DUP1 PUSH4 0xC340A24 EQ PUSH2 0xD4 JUMPI DUP1 PUSH4 0x1B2EF1CA EQ PUSH2 0x104 JUMPI DUP1 PUSH4 0x238EFCBC EQ PUSH2 0x125 JUMPI DUP1 PUSH4 0x36214144 EQ PUSH2 0x12F JUMPI DUP1 PUSH4 0x44BBDB55 EQ PUSH2 0x138 JUMPI DUP1 PUSH4 0x458E8E6B EQ PUSH2 0x15F JUMPI JUMPDEST PUSH1 0x0 DUP1 REVERT JUMPDEST PUSH1 0x0 SLOAD PUSH2 0xE7 SWAP1 PUSH1 0x1 PUSH1 0x1 PUSH1 0xA0 SHL SUB AND DUP2 JUMP JUMPDEST PUSH1 0x40 MLOAD PUSH1 0x1 PUSH1 0x1 PUSH1 0xA0 SHL SUB SWAP1 SWAP2 AND DUP2 MSTORE PUSH1 0x20 ADD JUMPDEST PUSH1 0x40 MLOAD DUP1 SWAP2 SUB SWAP1 RETURN JUMPDEST PUSH2 0x117 PUSH2 0x112 CALLDATASIZE PUSH1 0x4 PUSH2 0x2648 JUMP JUMPDEST PUSH2 0x23E JUMP JUMPDEST PUSH1 0x40 MLOAD SWAP1 DUP2 MSTORE PUSH1 0x20 ADD PUSH2 0xFB JUMP JUMPDEST PUSH2 0x12D PUSH2 0x2D3 JUMP JUMPDEST STOP JUMPDEST PUSH2 0x117 PUSH1 0x4 SLOAD DUP2 JUMP JUMPDEST PUSH2 0xE7 PUSH32 0x0 DUP2 JUMP JUMPDEST PUSH1 0x2 SLOAD PUSH2 0x191 SWAP1 PUSH1 0x1 PUSH1 0x1 PUSH1 0x40 SHL SUB DUP1 DUP3 AND SWAP2 PUSH1 0x1 PUSH1 0x40 SHL DUP2 DIV DUP3 AND SWAP2 PUSH1 0x1 PUSH1 0x80 SHL DUP3 DIV DUP2 AND SWAP2 PUSH1 0x1 PUSH1 0xC0 SHL SWAP1 DIV AND DUP5 JUMP JUMPDEST PUSH1 0x40 DUP1 MLOAD PUSH1 0x1 PUSH1 0x1 PUSH1 0x40 SHL SUB SWAP6 DUP7 AND DUP2 MSTORE SWAP4 DUP6 AND PUSH1 0x20 DUP6 ADD MSTORE SWAP2 DUP5 AND SWAP2 DUP4 ADD SWAP2 SWAP1 SWAP2 MSTORE SWAP1 SWAP2 AND PUSH1 0x60 DUP3 ADD MSTORE PUSH1 0x80 ADD PUSH2 0xFB JUMP JUMPDEST PUSH2 0x117 PUSH1 0x3 SLOAD DUP2 JUMP JUMPDEST PUSH2 0x117 PUSH2 0x1DB CALLDATASIZE PUSH1 0x4 PUSH2 0x2648 JUMP JUMPDEST POP SWAP1 JUMP JUMPDEST PUSH2 0x117 PUSH2 0x1ED CALLDATASIZE PUSH1 0x4 PUSH2 0x2648 JUMP JUMPDEST PUSH2 0x383 JUMP JUMPDEST PUSH2 0x117 PUSH2 0x200 CALLDATASIZE PUSH1 0x4 PUSH2 0x2648 JUMP JUMPDEST PUSH2 0x40A JUMP JUMPDEST PUSH2 0x12D PUSH2 0x213 CALLDATASIZE PUSH1 0x4 PUSH2 0x2686 JUMP JUMPDEST PUSH2 0x52A JUMP JUMPDEST PUSH1 0x1 SLOAD PUSH2 0xE7 SWAP1 PUSH1 0x1 PUSH1 0x1 PUSH1 0xA0 SHL SUB AND DUP2 JUMP JUMPDEST PUSH2 0x12D PUSH2 0x239 CALLDATASIZE PUSH1 0x4 PUSH2 0x2728 JUMP JUMPDEST PUSH2 0x663 JUMP JUMPDEST PUSH1 0x0 PUSH2 0x272 PUSH32 0x0 PUSH1 0x1 PUSH1 0x1 PUSH1 0xA0 SHL SUB AND PUSH2 0x738 JUMP JUMPDEST PUSH1 0x1 PUSH1 0x1 PUSH1 0xA0 SHL SUB AND CALLER PUSH1 0x1 PUSH1 0x1 PUSH1 0xA0 SHL SUB AND EQ PUSH1 0x40 MLOAD DUP1 PUSH1 0x40 ADD PUSH1 0x40 MSTORE DUP1 PUSH1 0x2 DUP2 MSTORE PUSH1 0x20 ADD PUSH2 0x333 PUSH1 0xF4 SHL DUP2 MSTORE POP SWAP1 PUSH2 0x2C8 JUMPI PUSH1 0x40 MLOAD PUSH3 0x461BCD PUSH1 0xE5 SHL DUP2 MSTORE PUSH1 0x4 ADD PUSH2 0x2BF SWAP2 SWAP1 PUSH2 0x2745 JUMP JUMPDEST PUSH1 0x40 MLOAD DUP1 SWAP2 SUB SWAP1 REVERT JUMPDEST POP DUP3 SWAP1 POP JUMPDEST SWAP3 SWAP2 POP POP JUMP JUMPDEST PUSH1 0x1 SLOAD PUSH1 0x40 DUP1 MLOAD DUP1 DUP3 ADD SWAP1 SWAP2 MSTORE PUSH1 0x2 DUP2 MSTORE PUSH2 0x333 PUSH1 0xF4 SHL PUSH1 0x20 DUP3 ADD MSTORE SWAP1 PUSH1 0x1 PUSH1 0x1 PUSH1 0xA0 SHL SUB AND CALLER EQ PUSH2 0x318 JUMPI PUSH1 0x40 MLOAD PUSH3 0x461BCD PUSH1 0xE5 SHL DUP2 MSTORE PUSH1 0x4 ADD PUSH2 0x2BF SWAP2 SWAP1 PUSH2 0x2745 JUMP JUMPDEST POP PUSH1 0x0 DUP1 SLOAD PUSH1 0x1 DUP1 SLOAD PUSH1 0x1 PUSH1 0x1 PUSH1 0xA0 SHL SUB NOT DUP1 DUP5 AND PUSH1 0x1 PUSH1 0x1 PUSH1 0xA0 SHL SUB DUP1 DUP5 AND SWAP2 SWAP1 SWAP2 OR SWAP1 SWAP6 SSTORE AND SWAP1 SSTORE PUSH1 0x40 DUP1 MLOAD SWAP3 SWAP1 SWAP2 AND DUP1 DUP4 MSTORE CALLER PUSH1 0x20 DUP5 ADD MSTORE SWAP2 PUSH32 0xDE4B3F61490B74C0ED6237523974FE299126BBBF8A8A7482FD220104C59B0C84 SWAP2 ADD JUMPDEST PUSH1 0x40 MLOAD DUP1 SWAP2 SUB SWAP1 LOG1 POP JUMP JUMPDEST PUSH1 0x0 DUP3 PUSH2 0x392 JUMPI POP PUSH1 0x0 PUSH2 0x2CD JUMP JUMPDEST PUSH1 0x40 DUP1 MLOAD PUSH1 0x80 DUP2 ADD DUP3 MSTORE PUSH1 0x2 SLOAD PUSH1 0x1 PUSH1 0x1 PUSH1 0x40 SHL SUB DUP1 DUP3 AND DUP4 MSTORE PUSH1 0x1 PUSH1 0x40 SHL DUP3 DIV DUP2 AND PUSH1 0x20 DUP5 ADD MSTORE PUSH1 0x1 PUSH1 0x80 SHL DUP3 DIV DUP2 AND SWAP4 DUP4 ADD SWAP4 SWAP1 SWAP4 MSTORE PUSH1 0x1 PUSH1 0xC0 SHL SWAP1 DIV SWAP1 SWAP2 AND PUSH1 0x60 DUP3 ADD MSTORE PUSH1 0x0 PUSH2 0x3E4 DUP3 PUSH2 0x7BA JUMP JUMPDEST SWAP1 POP PUSH1 0x0 PUSH2 0x3F2 DUP6 DUP5 PUSH2 0x9AF JUMP JUMPDEST SWAP1 POP PUSH2 0x400 DUP2 DUP5 DUP5 DUP10 PUSH2 0xA17 JUMP JUMPDEST SWAP7 SWAP6 POP POP POP POP POP POP JUMP JUMPDEST PUSH1 0x0 PUSH2 0x43E PUSH32 0x0 PUSH1 0x1 PUSH1 0x1 PUSH1 0xA0 SHL SUB AND PUSH2 0x738 JUMP JUMPDEST PUSH1 0x1 PUSH1 0x1 PUSH1 0xA0 SHL SUB AND CALLER PUSH1 0x1 PUSH1 0x1 PUSH1 0xA0 SHL SUB AND EQ PUSH1 0x40 MLOAD DUP1 PUSH1 0x40 ADD PUSH1 0x40 MSTORE DUP1 PUSH1 0x2 DUP2 MSTORE PUSH1 0x20 ADD PUSH2 0x333 PUSH1 0xF4 SHL DUP2 MSTORE POP SWAP1 PUSH2 0x48B JUMPI PUSH1 0x40 MLOAD PUSH3 0x461BCD PUSH1 0xE5 SHL DUP2 MSTORE PUSH1 0x4 ADD PUSH2 0x2BF SWAP2 SWAP1 PUSH2 0x2745 JUMP JUMPDEST POP DUP3 PUSH2 0x499 JUMPI POP PUSH1 0x0 PUSH2 0x2CD JUMP JUMPDEST PUSH1 0x40 DUP1 MLOAD PUSH1 0x80 DUP2 ADD DUP3 MSTORE PUSH1 0x2 SLOAD PUSH1 0x1 PUSH1 0x1 PUSH1 0x40 SHL SUB DUP1 DUP3 AND DUP4 MSTORE PUSH1 0x1 PUSH1 0x40 SHL DUP3 DIV DUP2 AND PUSH1 0x20 DUP5 ADD MSTORE PUSH1 0x1 PUSH1 0x80 SHL DUP3 DIV DUP2 AND SWAP4 DUP4 ADD SWAP4 SWAP1 SWAP4 MSTORE PUSH1 0x1 PUSH1 0xC0 SHL SWAP1 DIV SWAP1 SWAP2 AND PUSH1 0x60 DUP3 ADD MSTORE PUSH1 0x0 PUSH2 0x4EC DUP5 DUP4 PUSH2 0x9AF JUMP JUMPDEST SWAP1 POP PUSH1 0x0 PUSH2 0x4F9 DUP4 PUSH2 0x7BA JUMP JUMPDEST SWAP1 POP PUSH1 0x0 PUSH2 0x509 DUP4 DUP6 DUP5 DUP11 PUSH2 0xA17 JUMP JUMPDEST DUP4 MLOAD SWAP1 SWAP2 POP PUSH2 0x519 SWAP1 DUP9 SWAP1 PUSH2 0x27B0 JUMP JUMPDEST PUSH1 0x3 SSTORE NUMBER PUSH1 0x4 SSTORE SWAP7 SWAP6 POP POP POP POP POP POP JUMP JUMPDEST PUSH1 0x0 SLOAD PUSH1 0x40 DUP1 MLOAD DUP1 DUP3 ADD SWAP1 SWAP2 MSTORE PUSH1 0x2 DUP2 MSTORE PUSH2 0x333 PUSH1 0xF4 SHL PUSH1 0x20 DUP3 ADD MSTORE SWAP1 PUSH1 0x1 PUSH1 0x1 PUSH1 0xA0 SHL SUB AND CALLER EQ PUSH2 0x56F JUMPI PUSH1 0x40 MLOAD PUSH3 0x461BCD PUSH1 0xE5 SHL DUP2 MSTORE PUSH1 0x4 ADD PUSH2 0x2BF SWAP2 SWAP1 PUSH2 0x2745 JUMP JUMPDEST POP DUP1 MLOAD PUSH1 0x2 DUP1 SLOAD PUSH1 0x20 DUP5 ADD MLOAD PUSH1 0x40 DUP6 ADD MLOAD PUSH1 0x60 DUP7 ADD MLOAD PUSH1 0x1 PUSH1 0x1 PUSH1 0x40 SHL SUB SWAP1 DUP2 AND PUSH1 0x1 PUSH1 0xC0 SHL MUL PUSH1 0x1 PUSH1 0x1 PUSH1 0xC0 SHL SUB SWAP3 DUP3 AND PUSH1 0x1 PUSH1 0x80 SHL MUL SWAP3 SWAP1 SWAP3 AND PUSH16 0xFFFFFFFFFFFFFFFFFFFFFFFFFFFFFFFF SWAP4 DUP3 AND PUSH1 0x1 PUSH1 0x40 SHL MUL PUSH16 0xFFFFFFFFFFFFFFFFFFFFFFFFFFFFFFFF NOT SWAP1 SWAP6 AND SWAP2 SWAP1 SWAP7 AND OR SWAP3 SWAP1 SWAP3 OR AND SWAP3 SWAP1 SWAP3 OR SWAP2 SWAP1 SWAP2 OR SWAP1 SSTORE PUSH2 0x5F7 DUP2 PUSH2 0x7BA JUMP JUMPDEST POP PUSH32 0x4C76FDBDF1D037612DA5C0DCE3F84FB05D29652B0DBC2D66501D683D3DF4DF88 DUP2 PUSH1 0x0 ADD MLOAD DUP3 PUSH1 0x20 ADD MLOAD DUP4 PUSH1 0x40 ADD MLOAD DUP5 PUSH1 0x60 ADD MLOAD PUSH1 0x40 MLOAD PUSH2 0x378 SWAP5 SWAP4 SWAP3 SWAP2 SWAP1 PUSH1 0x1 PUSH1 0x1 PUSH1 0x40 SHL SUB SWAP5 DUP6 AND DUP2 MSTORE SWAP3 DUP5 AND PUSH1 0x20 DUP5 ADD MSTORE SWAP1 DUP4 AND PUSH1 0x40 DUP4 ADD MSTORE SWAP1 SWAP2 AND PUSH1 0x60 DUP3 ADD MSTORE PUSH1 0x80 ADD SWAP1 JUMP JUMPDEST PUSH1 0x0 SLOAD PUSH1 0x40 DUP1 MLOAD DUP1 DUP3 ADD SWAP1 SWAP2 MSTORE PUSH1 0x2 DUP2 MSTORE PUSH2 0x333 PUSH1 0xF4 SHL PUSH1 0x20 DUP3 ADD MSTORE SWAP1 PUSH1 0x1 PUSH1 0x1 PUSH1 0xA0 SHL SUB AND CALLER EQ PUSH2 0x6A8 JUMPI PUSH1 0x40 MLOAD PUSH3 0x461BCD PUSH1 0xE5 SHL DUP2 MSTORE PUSH1 0x4 ADD PUSH2 0x2BF SWAP2 SWAP1 PUSH2 0x2745 JUMP JUMPDEST POP PUSH1 0x40 DUP1 MLOAD DUP1 DUP3 ADD SWAP1 SWAP2 MSTORE PUSH1 0x2 DUP2 MSTORE PUSH2 0x3331 PUSH1 0xF0 SHL PUSH1 0x20 DUP3 ADD MSTORE PUSH1 0x1 PUSH1 0x1 PUSH1 0xA0 SHL SUB DUP3 AND PUSH2 0x6E9 JUMPI PUSH1 0x40 MLOAD PUSH3 0x461BCD PUSH1 0xE5 SHL DUP2 MSTORE PUSH1 0x4 ADD PUSH2 0x2BF SWAP2 SWAP1 PUSH2 0x2745 JUMP JUMPDEST POP PUSH1 0x1 DUP1 SLOAD PUSH1 0x1 PUSH1 0x1 PUSH1 0xA0 SHL SUB NOT AND PUSH1 0x1 PUSH1 0x1 PUSH1 0xA0 SHL SUB DUP4 AND SWAP1 DUP2 OR SWAP1 SWAP2 SSTORE PUSH1 0x40 MLOAD SWAP1 DUP2 MSTORE PUSH32 0x67235BA2E63C748A35B95C4F92A3BBC2A1389938170A5CE6C9ADD5D0B03A314A SWAP1 PUSH1 0x20 ADD PUSH2 0x378 JUMP JUMPDEST PUSH1 0x40 MLOAD PUSH4 0x21F8A721 PUSH1 0xE0 SHL DUP2 MSTORE PUSH19 0x4D4F54484552424F4152445F41444452455353 PUSH1 0x68 SHL PUSH1 0x4 DUP3 ADD MSTORE PUSH1 0x0 SWAP1 PUSH1 0x1 PUSH1 0x1 PUSH1 0xA0 SHL SUB DUP4 AND SWAP1 PUSH4 0x21F8A721 SWAP1 PUSH1 0x24 ADD JUMPDEST PUSH1 0x20 PUSH1 0x40 MLOAD DUP1 DUP4 SUB DUP2 DUP7 GAS STATICCALL ISZERO DUP1 ISZERO PUSH2 0x796 JUMPI RETURNDATASIZE PUSH1 0x0 DUP1 RETURNDATACOPY RETURNDATASIZE PUSH1 0x0 REVERT JUMPDEST POP POP POP POP PUSH1 0x40 MLOAD RETURNDATASIZE PUSH1 0x1F NOT PUSH1 0x1F DUP3 ADD AND DUP3 ADD DUP1 PUSH1 0x40 MSTORE POP DUP2 ADD SWAP1 PUSH2 0x2CD SWAP2 SWAP1 PUSH2 0x27C8 JUMP JUMPDEST PUSH2 0x7C2 PUSH2 0x25B5 JUMP JUMPDEST PUSH2 0x7CA PUSH2 0x25B5 JUMP JUMPDEST PUSH2 0x7E1 DUP4 PUSH1 0x20 ADD MLOAD PUSH1 0x1 PUSH1 0x1 PUSH1 0x40 SHL SUB AND DUP5 PUSH2 0xB5E JUMP JUMPDEST DUP2 MSTORE PUSH2 0x7EE PUSH1 0x0 DUP5 PUSH2 0xB5E JUMP JUMPDEST DUP2 PUSH1 0x20 ADD DUP2 DUP2 MSTORE POP POP PUSH2 0x82B DUP2 PUSH1 0x0 ADD MLOAD PUSH8 0xDE0B6B3A7640000 DUP6 PUSH1 0x0 ADD MLOAD PUSH1 0x1 PUSH1 0x1 PUSH1 0x40 SHL SUB AND DUP7 PUSH1 0x20 ADD MLOAD PUSH1 0x1 PUSH1 0x1 PUSH1 0x40 SHL SUB AND PUSH1 0x1 PUSH2 0xCB5 JUMP JUMPDEST PUSH1 0x40 DUP3 ADD MSTORE PUSH1 0x20 DUP2 ADD MLOAD DUP4 MLOAD PUSH2 0x858 SWAP2 SWAP1 PUSH8 0xDE0B6B3A7640000 SWAP1 PUSH1 0x1 PUSH1 0x1 PUSH1 0x40 SHL SUB AND PUSH1 0x0 PUSH1 0x1 PUSH2 0xCB5 JUMP JUMPDEST PUSH1 0x60 DUP3 ADD MSTORE PUSH1 0x40 DUP4 ADD MLOAD PUSH1 0x0 SWAP1 PUSH2 0x880 SWAP1 PUSH1 0x1 PUSH1 0x1 PUSH1 0x40 SHL SUB AND PUSH8 0xDE0B6B3A7640000 PUSH2 0x27E5 JUMP JUMPDEST DUP5 MLOAD SWAP1 SWAP2 POP PUSH2 0x890 SWAP1 PUSH1 0x2 PUSH2 0x27FC JUMP JUMPDEST PUSH1 0x1 PUSH1 0x1 PUSH1 0x40 SHL SUB AND PUSH2 0x8A4 PUSH1 0x2 DUP4 PUSH2 0x290F JUMP JUMPDEST PUSH2 0x8AE SWAP2 SWAP1 PUSH2 0x2934 JUMP JUMPDEST PUSH2 0x8C0 SWAP1 PUSH8 0xDE0B6B3A7640000 PUSH2 0x27E5 JUMP JUMPDEST PUSH1 0x80 DUP4 ADD DUP2 SWAP1 MSTORE DUP5 MLOAD PUSH1 0x20 DUP7 ADD MLOAD PUSH2 0x8F0 SWAP3 SWAP2 PUSH8 0xDE0B6B3A7640000 SWAP2 PUSH1 0x1 PUSH1 0x1 PUSH1 0x40 SHL SUB SWAP2 DUP3 AND SWAP2 AND DUP6 PUSH2 0xDC2 JUMP JUMPDEST PUSH1 0xC0 DUP4 ADD DUP2 SWAP1 MSTORE PUSH1 0x80 DUP4 ADD MLOAD DUP6 MLOAD PUSH2 0x91D SWAP3 PUSH8 0xDE0B6B3A7640000 SWAP2 PUSH1 0x1 PUSH1 0x1 PUSH1 0x40 SHL SUB AND SWAP1 PUSH1 0x1 PUSH2 0xCB5 JUMP JUMPDEST PUSH1 0xE0 DUP4 ADD MSTORE PUSH1 0x40 DUP5 ADD MLOAD PUSH1 0x2 SWAP1 PUSH2 0x945 SWAP1 PUSH1 0x1 PUSH1 0x1 PUSH1 0x40 SHL SUB AND PUSH8 0xDE0B6B3A7640000 PUSH2 0x27B0 JUMP JUMPDEST PUSH2 0x94F SWAP2 SWAP1 PUSH2 0x2934 JUMP JUMPDEST PUSH1 0xA0 DUP4 ADD DUP2 SWAP1 MSTORE PUSH1 0x40 DUP6 ADD MLOAD DUP6 MLOAD PUSH2 0x97E SWAP3 SWAP2 PUSH8 0xDE0B6B3A7640000 SWAP2 PUSH1 0x1 PUSH1 0x1 PUSH1 0x40 SHL SUB SWAP2 DUP3 AND SWAP2 AND PUSH2 0xEC1 JUMP JUMPDEST PUSH2 0x100 DUP4 ADD DUP2 SWAP1 MSTORE PUSH1 0xA0 DUP4 ADD MLOAD PUSH2 0x9A2 SWAP2 PUSH8 0xDE0B6B3A7640000 SWAP1 PUSH1 0x0 PUSH1 0x1 PUSH2 0xCB5 JUMP JUMPDEST PUSH2 0x120 DUP4 ADD MSTORE POP SWAP3 SWAP2 POP POP JUMP JUMPDEST PUSH2 0x9D3 PUSH1 0x40 MLOAD DUP1 PUSH1 0x60 ADD PUSH1 0x40 MSTORE DUP1 PUSH1 0x0 DUP2 MSTORE PUSH1 0x20 ADD PUSH1 0x0 DUP2 MSTORE PUSH1 0x20 ADD PUSH1 0x0 DUP2 MSTORE POP SWAP1 JUMP JUMPDEST PUSH1 0x40 MLOAD DUP1 PUSH1 0x60 ADD PUSH1 0x40 MSTORE DUP1 PUSH2 0x9FB PUSH1 0x3 SLOAD NUMBER PUSH1 0x4 SLOAD DUP8 PUSH1 0x60 ADD MLOAD PUSH1 0x1 PUSH1 0x1 PUSH1 0x40 SHL SUB AND PUSH2 0xFA3 JUMP JUMPDEST DUP2 MSTORE PUSH1 0x20 ADD DUP5 DUP2 MSTORE PUSH1 0x20 ADD PUSH2 0xA0E PUSH2 0x101B JUMP JUMPDEST SWAP1 MSTORE SWAP4 SWAP3 POP POP POP JUMP JUMPDEST PUSH1 0x0 PUSH2 0xA3D PUSH1 0x40 MLOAD DUP1 PUSH1 0x60 ADD PUSH1 0x40 MSTORE DUP1 PUSH1 0x0 DUP2 MSTORE PUSH1 0x20 ADD PUSH1 0x0 DUP2 MSTORE PUSH1 0x20 ADD PUSH1 0x0 DUP2 MSTORE POP SWAP1 JUMP JUMPDEST DUP6 MLOAD PUSH1 0x40 DUP8 ADD MLOAD PUSH1 0x0 SWAP2 PUSH2 0xA50 SWAP2 PUSH2 0x27B0 JUMP JUMPDEST DUP8 MLOAD SWAP1 SWAP2 POP PUSH2 0xA5F SWAP1 DUP3 PUSH2 0x10B5 JUMP JUMPDEST DUP3 MSTORE PUSH1 0x20 DUP8 ADD MLOAD PUSH2 0xA70 SWAP1 DUP3 PUSH2 0x10B5 JUMP JUMPDEST PUSH1 0x20 DUP4 ADD MSTORE PUSH1 0x40 DUP8 ADD MLOAD PUSH2 0xA84 SWAP1 DUP3 PUSH2 0x10B5 JUMP JUMPDEST PUSH1 0x40 DUP4 ADD DUP2 SWAP1 MSTORE PUSH1 0x20 DUP4 ADD MLOAD PUSH1 0x0 SWAP2 PUSH2 0xA9D SWAP2 SWAP1 PUSH2 0x10B5 JUMP JUMPDEST SWAP1 POP PUSH8 0xDE0B6B3A7640000 DUP2 LT PUSH2 0xAB9 JUMPI DUP5 SWAP4 POP POP POP POP PUSH2 0xB56 JUMP JUMPDEST DUP7 PUSH1 0x40 ADD MLOAD PUSH1 0x1 PUSH1 0x1 PUSH1 0x40 SHL SUB AND DUP2 GT PUSH2 0xB01 JUMPI PUSH1 0x0 PUSH2 0xAEA DUP10 PUSH1 0x40 ADD MLOAD DUP11 PUSH1 0x20 ADD MLOAD PUSH2 0x10B5 SWAP1 SWAP2 SWAP1 PUSH4 0xFFFFFFFF AND JUMP JUMPDEST SWAP1 POP PUSH2 0xAF6 DUP2 DUP8 PUSH2 0x1125 JUMP JUMPDEST SWAP5 POP POP POP POP POP PUSH2 0xB56 JUMP JUMPDEST PUSH1 0x0 PUSH2 0xB0E DUP5 DUP10 DUP10 PUSH2 0x1146 JUMP JUMPDEST SWAP1 POP PUSH1 0x0 PUSH2 0xB1C DUP3 DUP6 PUSH2 0x1125 JUMP JUMPDEST SWAP1 POP PUSH1 0x0 PUSH2 0xB3B DUP9 DUP13 PUSH1 0x0 ADD MLOAD PUSH2 0xB33 SWAP2 SWAP1 PUSH2 0x27B0 JUMP JUMPDEST DUP4 DUP8 DUP14 PUSH2 0x1610 JUMP JUMPDEST SWAP1 POP DUP1 DUP12 PUSH1 0x20 ADD MLOAD PUSH2 0xB4D SWAP2 SWAP1 PUSH2 0x27E5 JUMP JUMPDEST SWAP7 POP POP POP POP POP POP POP JUMPDEST SWAP5 SWAP4 POP POP POP POP JUMP JUMPDEST PUSH1 0x0 DUP3 PUSH8 0xDE0B6B3A7640000 LT ISZERO PUSH2 0xBB8 JUMPI PUSH1 0x40 MLOAD PUSH3 0x461BCD PUSH1 0xE5 SHL DUP2 MSTORE PUSH1 0x20 PUSH1 0x4 DUP3 ADD MSTORE PUSH1 0x1A PUSH1 0x24 DUP3 ADD MSTORE PUSH32 0x7961206D7573742062652067726561746572207468616E207875000000000000 PUSH1 0x44 DUP3 ADD MSTORE PUSH1 0x64 ADD PUSH2 0x2BF JUMP JUMPDEST DUP2 MLOAD PUSH1 0x1 PUSH1 0x1 PUSH1 0x40 SHL SUB AND PUSH1 0x0 PUSH2 0xBD7 DUP6 PUSH8 0xDE0B6B3A7640000 PUSH2 0x27E5 JUMP JUMPDEST PUSH1 0x40 DUP6 ADD MLOAD SWAP1 SWAP2 POP PUSH1 0x1 PUSH1 0x1 PUSH1 0x40 SHL SUB AND PUSH2 0xBF2 DUP4 DUP4 PUSH2 0x1125 JUMP JUMPDEST PUSH2 0xC04 SWAP1 PUSH8 0xDE0B6B3A7640000 PUSH2 0x27E5 JUMP JUMPDEST LT PUSH2 0xC4A JUMPI PUSH8 0x1BC16D674EC80000 PUSH2 0xC1B DUP3 PUSH2 0x1699 JUMP JUMPDEST PUSH2 0xC25 SWAP1 DUP5 PUSH2 0x2948 JUMP JUMPDEST PUSH2 0xC2F SWAP2 SWAP1 PUSH2 0x2934 JUMP JUMPDEST PUSH2 0xC41 SWAP1 PUSH8 0xDE0B6B3A7640000 PUSH2 0x27E5 JUMP JUMPDEST SWAP3 POP POP POP PUSH2 0x2CD JUMP JUMPDEST PUSH1 0x0 DUP5 PUSH1 0x40 ADD MLOAD PUSH1 0x1 PUSH1 0x1 PUSH1 0x40 SHL SUB AND PUSH8 0xDE0B6B3A7640000 PUSH2 0xC6D SWAP2 SWAP1 PUSH2 0x27E5 JUMP JUMPDEST SWAP1 POP PUSH2 0xC7A DUP4 PUSH1 0x2 PUSH2 0x2948 JUMP JUMPDEST PUSH2 0xC85 PUSH1 0x2 DUP4 PUSH2 0x290F JUMP JUMPDEST PUSH2 0xC8F SWAP2 SWAP1 PUSH2 0x2934 JUMP JUMPDEST PUSH2 0xC99 DUP3 DUP5 PUSH2 0x1125 JUMP JUMPDEST PUSH2 0xCAB SWAP1 PUSH8 0xDE0B6B3A7640000 PUSH2 0x27E5 JUMP JUMPDEST PUSH2 0x400 SWAP2 SWAP1 PUSH2 0x27B0 JUMP JUMPDEST PUSH1 0x0 DUP5 DUP7 LT PUSH1 0x40 MLOAD DUP1 PUSH1 0x40 ADD PUSH1 0x40 MSTORE DUP1 PUSH1 0x2 DUP2 MSTORE PUSH1 0x20 ADD PUSH2 0x3331 PUSH1 0xF0 SHL DUP2 MSTORE POP SWAP1 PUSH2 0xCF3 JUMPI PUSH1 0x40 MLOAD PUSH3 0x461BCD PUSH1 0xE5 SHL DUP2 MSTORE PUSH1 0x4 ADD PUSH2 0x2BF SWAP2 SWAP1 PUSH2 0x2745 JUMP JUMPDEST POP PUSH1 0x0 PUSH2 0xD08 PUSH2 0xD03 DUP6 DUP9 PUSH2 0x27E5 JUMP JUMPDEST PUSH2 0x16A5 JUMP JUMPDEST SWAP1 POP PUSH1 0x0 DUP6 PUSH2 0xD17 DUP10 DUP10 PUSH2 0x27E5 JUMP JUMPDEST PUSH2 0xD29 SWAP1 PUSH8 0x1BC16D674EC80000 PUSH2 0x2948 JUMP JUMPDEST PUSH2 0xD33 SWAP2 SWAP1 PUSH2 0x2934 JUMP JUMPDEST SWAP1 POP DUP1 DUP3 LT PUSH2 0xD61 JUMPI PUSH2 0xD4E PUSH2 0xD49 DUP3 DUP5 PUSH2 0x27E5 JUMP JUMPDEST PUSH2 0x16B1 JUMP JUMPDEST PUSH2 0xD58 SWAP1 DUP9 PUSH2 0x27E5 JUMP JUMPDEST SWAP3 POP POP POP PUSH2 0xDB9 JUMP JUMPDEST DUP4 DUP1 PUSH2 0xD79 JUMPI POP DUP1 PUSH2 0xD76 PUSH3 0xF4240 DUP5 PUSH2 0x27B0 JUMP JUMPDEST LT ISZERO JUMPDEST PUSH1 0x40 MLOAD DUP1 PUSH1 0x40 ADD PUSH1 0x40 MSTORE DUP1 PUSH1 0x2 DUP2 MSTORE PUSH1 0x20 ADD PUSH2 0x3237 PUSH1 0xF0 SHL DUP2 MSTORE POP SWAP1 PUSH2 0xDB2 JUMPI PUSH1 0x40 MLOAD PUSH3 0x461BCD PUSH1 0xE5 SHL DUP2 MSTORE PUSH1 0x4 ADD PUSH2 0x2BF SWAP2 SWAP1 PUSH2 0x2745 JUMP JUMPDEST POP DUP7 SWAP3 POP POP POP JUMPDEST SWAP6 SWAP5 POP POP POP POP POP JUMP JUMPDEST PUSH1 0x0 DUP1 PUSH2 0xDCF DUP8 DUP8 PUSH2 0x27E5 JUMP JUMPDEST SWAP1 POP PUSH1 0x0 PUSH2 0xDDD DUP6 DUP9 PUSH2 0x1125 JUMP JUMPDEST SWAP1 POP PUSH1 0x0 PUSH8 0x1BC16D674EC80000 PUSH2 0xDF5 PUSH1 0x2 DUP8 PUSH2 0x290F JUMP JUMPDEST PUSH2 0xDFF SWAP2 SWAP1 PUSH2 0x2934 JUMP JUMPDEST PUSH2 0xE09 DUP9 DUP6 PUSH2 0x1125 JUMP JUMPDEST GT PUSH2 0xE5F JUMPI PUSH1 0x0 DUP8 PUSH2 0xE23 DUP6 PUSH8 0x1BC16D674EC80000 PUSH2 0x2948 JUMP JUMPDEST PUSH2 0xE2D SWAP2 SWAP1 PUSH2 0x2934 JUMP JUMPDEST SWAP1 POP PUSH1 0x0 PUSH2 0xE3A DUP3 PUSH2 0x16B1 JUMP JUMPDEST SWAP1 POP DUP10 DUP2 LT ISZERO PUSH2 0xE53 JUMPI PUSH2 0xE4E DUP2 DUP12 PUSH2 0x27E5 JUMP JUMPDEST PUSH2 0xE56 JUMP JUMPDEST PUSH1 0x0 JUMPDEST SWAP3 POP POP POP PUSH2 0xEAA JUMP JUMPDEST PUSH1 0x0 PUSH2 0xE76 PUSH2 0xE6F DUP10 PUSH1 0x2 PUSH2 0x2948 JUMP JUMPDEST DUP8 SWAP1 PUSH2 0x10B5 JUMP JUMPDEST PUSH2 0xE80 DUP6 DUP9 PUSH2 0x10B5 JUMP JUMPDEST PUSH2 0xE8A SWAP2 SWAP1 PUSH2 0x27B0 JUMP JUMPDEST SWAP1 POP DUP9 DUP2 LT ISZERO PUSH2 0xEA3 JUMPI PUSH2 0xE9E DUP2 DUP11 PUSH2 0x27E5 JUMP JUMPDEST PUSH2 0xEA6 JUMP JUMPDEST PUSH1 0x0 JUMPDEST SWAP2 POP POP JUMPDEST PUSH2 0xEB4 DUP2 DUP4 PUSH2 0x16CF JUMP JUMPDEST SWAP10 SWAP9 POP POP POP POP POP POP POP POP POP JUMP JUMPDEST PUSH1 0x0 DUP1 PUSH2 0xECE DUP7 DUP7 PUSH2 0x10B5 JUMP JUMPDEST SWAP1 POP PUSH1 0x0 PUSH2 0xEDC DUP5 DUP8 PUSH2 0x10B5 JUMP JUMPDEST SWAP1 POP PUSH1 0x0 PUSH1 0x2 PUSH2 0xEF4 DUP8 PUSH8 0xDE0B6B3A7640000 PUSH2 0x27B0 JUMP JUMPDEST PUSH2 0xEFE SWAP2 SWAP1 PUSH2 0x2934 JUMP JUMPDEST DUP4 LT PUSH2 0xF39 JUMPI PUSH2 0xF32 DUP8 PUSH2 0xF2C PUSH2 0xF1D DUP7 PUSH8 0xDE0B6B3A7640000 PUSH2 0x27E5 JUMP JUMPDEST PUSH8 0x1BC16D674EC80000 SWAP1 PUSH2 0x1125 JUMP JUMPDEST SWAP1 PUSH2 0x10B5 JUMP JUMPDEST SWAP1 POP PUSH2 0xF8D JUMP JUMPDEST PUSH1 0x0 PUSH1 0x2 PUSH2 0xF4F DUP9 PUSH8 0xDE0B6B3A7640000 PUSH2 0x27E5 JUMP JUMPDEST PUSH2 0xF59 SWAP2 SWAP1 PUSH2 0x290F JUMP JUMPDEST SWAP1 POP PUSH1 0x0 PUSH2 0xF67 DUP9 DUP11 PUSH2 0x1125 JUMP JUMPDEST PUSH2 0xF71 SWAP1 DUP12 PUSH2 0x27E5 JUMP JUMPDEST SWAP1 POP PUSH2 0xF7E DUP2 PUSH1 0x2 PUSH2 0x2948 JUMP JUMPDEST PUSH2 0xF88 SWAP1 DUP4 PUSH2 0x2934 JUMP JUMPDEST SWAP3 POP POP POP JUMPDEST PUSH2 0xF97 DUP2 DUP4 PUSH2 0x16E5 JUMP JUMPDEST SWAP9 SWAP8 POP POP POP POP POP POP POP POP JUMP JUMPDEST PUSH1 0x0 DUP4 DUP4 LT ISZERO PUSH2 0xFDC JUMPI PUSH1 0x0 PUSH2 0xFB9 DUP5 DUP7 PUSH2 0x27E5 JUMP JUMPDEST SWAP1 POP PUSH1 0x0 PUSH2 0xFC7 DUP5 DUP4 PUSH2 0x16F4 JUMP JUMPDEST SWAP1 POP PUSH2 0xFD3 DUP8 DUP3 PUSH2 0x1125 JUMP JUMPDEST SWAP3 POP POP POP PUSH2 0xB56 JUMP JUMPDEST DUP4 DUP4 EQ ISZERO PUSH2 0xFEB JUMPI POP DUP4 PUSH2 0xB56 JUMP JUMPDEST PUSH1 0x40 DUP1 MLOAD DUP1 DUP3 ADD DUP3 MSTORE PUSH1 0x2 DUP2 MSTORE PUSH2 0x3331 PUSH1 0xF0 SHL PUSH1 0x20 DUP3 ADD MSTORE SWAP1 MLOAD PUSH3 0x461BCD PUSH1 0xE5 SHL DUP2 MSTORE PUSH2 0x2BF SWAP2 SWAP1 PUSH1 0x4 ADD PUSH2 0x2745 JUMP JUMPDEST PUSH1 0x0 PUSH2 0x104F PUSH32 0x0 PUSH1 0x1 PUSH1 0x1 PUSH1 0xA0 SHL SUB AND PUSH2 0x1744 JUMP JUMPDEST PUSH1 0x1 PUSH1 0x1 PUSH1 0xA0 SHL SUB AND PUSH4 0x18160DDD PUSH1 0x40 MLOAD DUP2 PUSH4 0xFFFFFFFF AND PUSH1 0xE0 SHL DUP2 MSTORE PUSH1 0x4 ADD PUSH1 0x20 PUSH1 0x40 MLOAD DUP1 DUP4 SUB DUP2 DUP7 GAS STATICCALL ISZERO DUP1 ISZERO PUSH2 0x108C JUMPI RETURNDATASIZE PUSH1 0x0 DUP1 RETURNDATACOPY RETURNDATASIZE PUSH1 0x0 REVERT JUMPDEST POP POP POP POP PUSH1 0x40 MLOAD RETURNDATASIZE PUSH1 0x1F NOT PUSH1 0x1F DUP3 ADD AND DUP3 ADD DUP1 PUSH1 0x40 MSTORE POP DUP2 ADD SWAP1 PUSH2 0x10B0 SWAP2 SWAP1 PUSH2 0x2967 JUMP JUMPDEST SWAP1 POP SWAP1 JUMP JUMPDEST PUSH1 0x40 DUP1 MLOAD DUP1 DUP3 ADD SWAP1 SWAP2 MSTORE PUSH1 0x2 DUP2 MSTORE PUSH2 0x3235 PUSH1 0xF0 SHL PUSH1 0x20 DUP3 ADD MSTORE PUSH1 0x0 SWAP1 DUP3 PUSH2 0x10EF JUMPI PUSH1 0x40 MLOAD PUSH3 0x461BCD PUSH1 0xE5 SHL DUP2 MSTORE PUSH1 0x4 ADD PUSH2 0x2BF SWAP2 SWAP1 PUSH2 0x2745 JUMP JUMPDEST POP DUP3 PUSH2 0x10FD JUMPI POP PUSH1 0x0 PUSH2 0x2CD JUMP JUMPDEST PUSH1 0x0 PUSH2 0x1111 PUSH8 0xDE0B6B3A7640000 DUP6 PUSH2 0x2948 JUMP JUMPDEST SWAP1 POP PUSH2 0x111D DUP4 DUP3 PUSH2 0x2934 JUMP JUMPDEST SWAP2 POP POP PUSH2 0x2CD JUMP JUMPDEST PUSH1 0x0 DUP1 PUSH2 0x1132 DUP4 DUP6 PUSH2 0x2948 JUMP JUMPDEST SWAP1 POP PUSH2 0xB56 PUSH8 0xDE0B6B3A7640000 DUP3 PUSH2 0x2934 JUMP JUMPDEST PUSH1 0x0 PUSH2 0x1150 PUSH2 0x2608 JUMP JUMPDEST PUSH1 0x0 PUSH2 0x115D DUP7 DUP7 DUP7 PUSH2 0x1787 JUMP JUMPDEST PUSH8 0xDE0B6B3A7640000 DUP4 MSTORE PUSH1 0x40 DUP8 ADD MLOAD PUSH1 0x20 DUP9 ADD MLOAD SWAP2 SWAP3 POP PUSH2 0x117F SWAP2 SWAP1 PUSH2 0x10B5 JUMP JUMPDEST PUSH1 0x20 DUP4 ADD DUP2 SWAP1 MSTORE PUSH2 0x1198 SWAP1 PUSH8 0xDE0B6B3A7640000 PUSH2 0x27E5 JUMP JUMPDEST PUSH1 0x60 DUP4 ADD MSTORE PUSH1 0x40 DUP6 ADD MLOAD PUSH2 0x11BD SWAP1 PUSH1 0x1 PUSH1 0x1 PUSH1 0x40 SHL SUB AND PUSH8 0xDE0B6B3A7640000 PUSH2 0x27E5 JUMP JUMPDEST PUSH1 0x80 DUP4 ADD MSTORE PUSH1 0x0 DUP2 PUSH1 0x6 DUP2 GT ISZERO PUSH2 0x11D6 JUMPI PUSH2 0x11D6 PUSH2 0x2980 JUMP JUMPDEST EQ ISZERO PUSH2 0x11F6 JUMPI DUP6 MLOAD PUSH1 0x20 DUP8 ADD MLOAD PUSH2 0x11ED SWAP2 SWAP1 PUSH2 0x27B0 JUMP JUMPDEST SWAP3 POP POP POP PUSH2 0x1609 JUMP JUMPDEST PUSH1 0x1 DUP2 PUSH1 0x6 DUP2 GT ISZERO PUSH2 0x120A JUMPI PUSH2 0x120A PUSH2 0x2980 JUMP JUMPDEST EQ ISZERO PUSH2 0x1287 JUMPI PUSH1 0x0 DUP6 PUSH1 0x20 ADD MLOAD PUSH1 0x1 PUSH1 0x1 PUSH1 0x40 SHL SUB AND DUP8 PUSH1 0x0 ADD MLOAD PUSH2 0x122F SWAP2 SWAP1 PUSH2 0x27E5 JUMP JUMPDEST SWAP1 POP PUSH8 0x1BC16D674EC80000 PUSH2 0x1243 DUP3 PUSH2 0x1699 JUMP JUMPDEST DUP8 MLOAD PUSH2 0x1258 SWAP2 SWAP1 PUSH1 0x1 PUSH1 0x1 PUSH1 0x40 SHL SUB AND PUSH2 0x2948 JUMP JUMPDEST PUSH2 0x1262 SWAP2 SWAP1 PUSH2 0x2934 JUMP JUMPDEST DUP8 MLOAD PUSH1 0x20 DUP10 ADD MLOAD PUSH2 0x1273 SWAP2 SWAP1 PUSH2 0x27B0 JUMP JUMPDEST PUSH2 0x127D SWAP2 SWAP1 PUSH2 0x27E5 JUMP JUMPDEST SWAP4 POP POP POP POP PUSH2 0x1609 JUMP JUMPDEST PUSH1 0x2 DUP2 PUSH1 0x6 DUP2 GT ISZERO PUSH2 0x129B JUMPI PUSH2 0x129B PUSH2 0x2980 JUMP JUMPDEST EQ ISZERO PUSH2 0x1313 JUMPI DUP5 MLOAD PUSH2 0x12AE SWAP1 PUSH1 0x2 PUSH2 0x27FC JUMP JUMPDEST PUSH1 0x1 PUSH1 0x1 PUSH1 0x40 SHL SUB AND PUSH1 0x2 DUP4 PUSH1 0x60 ADD MLOAD PUSH2 0x12C8 SWAP2 SWAP1 PUSH2 0x290F JUMP JUMPDEST PUSH2 0x12D2 SWAP2 SWAP1 PUSH2 0x2934 JUMP JUMPDEST PUSH2 0x12FD DUP4 PUSH1 0x60 ADD MLOAD DUP8 PUSH1 0x20 ADD MLOAD PUSH1 0x1 PUSH1 0x1 PUSH1 0x40 SHL SUB AND DUP6 PUSH1 0x0 ADD MLOAD PUSH2 0x12F7 SWAP2 SWAP1 PUSH2 0x27E5 JUMP JUMPDEST SWAP1 PUSH2 0x1125 JUMP JUMPDEST DUP4 MLOAD PUSH2 0x1309 SWAP2 SWAP1 PUSH2 0x27E5 JUMP JUMPDEST PUSH2 0x11ED SWAP2 SWAP1 PUSH2 0x27B0 JUMP JUMPDEST PUSH1 0x3 DUP2 PUSH1 0x6 DUP2 GT ISZERO PUSH2 0x1327 JUMPI PUSH2 0x1327 PUSH2 0x2980 JUMP JUMPDEST EQ ISZERO PUSH2 0x13A3 JUMPI PUSH1 0x0 PUSH8 0x1BC16D674EC80000 PUSH2 0x1374 PUSH1 0x2 DUP10 PUSH1 0x40 ADD MLOAD PUSH2 0x134C SWAP2 SWAP1 PUSH2 0x2934 JUMP JUMPDEST DUP9 MLOAD PUSH1 0x60 DUP8 ADD MLOAD PUSH2 0x1365 SWAP2 PUSH1 0x1 PUSH1 0x1 PUSH1 0x40 SHL SUB AND PUSH2 0x10B5 JUMP JUMPDEST PUSH2 0x136F SWAP2 SWAP1 PUSH2 0x27B0 JUMP JUMPDEST PUSH2 0x1699 JUMP JUMPDEST DUP8 MLOAD PUSH2 0x1389 SWAP2 SWAP1 PUSH1 0x1 PUSH1 0x1 PUSH1 0x40 SHL SUB AND PUSH2 0x2948 JUMP JUMPDEST PUSH2 0x1393 SWAP2 SWAP1 PUSH2 0x2934 JUMP JUMPDEST DUP4 MLOAD SWAP1 SWAP2 POP PUSH2 0x127D SWAP1 DUP3 SWAP1 PUSH2 0x27E5 JUMP JUMPDEST PUSH1 0x4 DUP2 PUSH1 0x6 DUP2 GT ISZERO PUSH2 0x13B7 JUMPI PUSH2 0x13B7 PUSH2 0x2980 JUMP JUMPDEST EQ ISZERO PUSH2 0x149F JUMPI PUSH1 0x0 PUSH2 0x1404 DUP8 PUSH1 0x40 ADD MLOAD PUSH2 0x13EF DUP9 PUSH1 0x0 ADD MLOAD PUSH1 0x2 PUSH2 0x13DB SWAP2 SWAP1 PUSH2 0x27FC JUMP JUMPDEST PUSH1 0x80 DUP8 ADD MLOAD SWAP1 PUSH1 0x1 PUSH1 0x1 PUSH1 0x40 SHL SUB AND PUSH2 0x10B5 JUMP JUMPDEST PUSH2 0x13F9 SWAP2 SWAP1 PUSH2 0x27B0 JUMP JUMPDEST PUSH1 0x80 DUP6 ADD MLOAD SWAP1 PUSH2 0x1125 JUMP JUMPDEST SWAP1 POP PUSH1 0x0 PUSH2 0x1467 PUSH2 0x142F DUP9 PUSH1 0x40 ADD MLOAD PUSH1 0x1 PUSH1 0x1 PUSH1 0x40 SHL SUB AND DUP11 PUSH1 0x40 ADD MLOAD PUSH2 0x1125 SWAP1 SWAP2 SWAP1 PUSH4 0xFFFFFFFF AND JUMP JUMPDEST DUP10 PUSH1 0x20 ADD MLOAD PUSH2 0x143E SWAP2 SWAP1 PUSH2 0x27E5 JUMP JUMPDEST DUP9 PUSH1 0x0 ADD MLOAD PUSH1 0x1 PUSH1 0x1 PUSH1 0x40 SHL SUB AND PUSH1 0x2 DUP8 PUSH1 0x80 ADD MLOAD PUSH2 0x145D SWAP2 SWAP1 PUSH2 0x290F JUMP JUMPDEST PUSH2 0x12F7 SWAP2 SWAP1 PUSH2 0x2934 JUMP JUMPDEST PUSH2 0x1472 SWAP1 PUSH1 0x2 PUSH2 0x2948 JUMP JUMPDEST SWAP1 POP DUP2 PUSH2 0x147E DUP3 PUSH2 0x16B1 JUMP JUMPDEST DUP6 MLOAD PUSH2 0x148A SWAP2 SWAP1 PUSH2 0x27B0 JUMP JUMPDEST PUSH2 0x1494 SWAP2 SWAP1 PUSH2 0x27E5 JUMP JUMPDEST SWAP5 POP POP POP POP POP PUSH2 0x1609 JUMP JUMPDEST PUSH1 0x5 DUP2 PUSH1 0x6 DUP2 GT ISZERO PUSH2 0x14B3 JUMPI PUSH2 0x14B3 PUSH2 0x2980 JUMP JUMPDEST EQ ISZERO PUSH2 0x14F1 JUMPI PUSH1 0x0 PUSH2 0x1393 PUSH2 0x14CB DUP9 PUSH1 0x0 ADD MLOAD PUSH2 0x1699 JUMP JUMPDEST PUSH2 0x14DD SWAP1 PUSH8 0xDE0B6B3A7640000 PUSH2 0x27E5 JUMP JUMPDEST DUP9 PUSH1 0x20 ADD MLOAD DUP10 PUSH1 0x40 ADD MLOAD PUSH2 0xF2C SWAP2 SWAP1 PUSH2 0x27E5 JUMP JUMPDEST PUSH1 0x6 DUP2 PUSH1 0x6 DUP2 GT ISZERO PUSH2 0x1505 JUMPI PUSH2 0x1505 PUSH2 0x2980 JUMP JUMPDEST EQ ISZERO PUSH2 0x15D0 JUMPI PUSH1 0x0 PUSH1 0x2 DUP4 PUSH1 0x80 ADD MLOAD DUP9 PUSH1 0x20 ADD MLOAD DUP10 PUSH1 0x40 ADD MLOAD PUSH2 0x1528 SWAP2 SWAP1 PUSH2 0x27E5 JUMP JUMPDEST PUSH2 0x1532 SWAP2 SWAP1 PUSH2 0x27B0 JUMP JUMPDEST PUSH2 0x153C SWAP2 SWAP1 PUSH2 0x2934 JUMP JUMPDEST SWAP1 POP PUSH1 0x0 PUSH1 0x4 PUSH2 0x155F PUSH2 0x1552 DUP11 PUSH1 0x0 ADD MLOAD PUSH2 0x1699 JUMP JUMPDEST PUSH2 0x12F7 DUP8 PUSH1 0x80 ADD MLOAD PUSH2 0x1699 JUMP JUMPDEST PUSH2 0x1569 SWAP2 SWAP1 PUSH2 0x2934 JUMP JUMPDEST PUSH2 0x1585 DUP6 PUSH1 0x80 ADD MLOAD DUP11 PUSH1 0x20 ADD MLOAD DUP12 PUSH1 0x40 ADD MLOAD PUSH2 0x12F7 SWAP2 SWAP1 PUSH2 0x27E5 JUMP JUMPDEST PUSH2 0x158F SWAP2 SWAP1 PUSH2 0x27B0 JUMP JUMPDEST SWAP1 POP PUSH1 0x0 PUSH2 0x15AA DUP3 PUSH2 0x15A0 DUP6 PUSH2 0x1699 JUMP JUMPDEST PUSH2 0xD49 SWAP2 SWAP1 PUSH2 0x27E5 JUMP JUMPDEST PUSH2 0x15B4 SWAP1 DUP5 PUSH2 0x27E5 JUMP JUMPDEST DUP6 MLOAD SWAP1 SWAP2 POP PUSH2 0x15C4 SWAP1 DUP3 SWAP1 PUSH2 0x27E5 JUMP JUMPDEST SWAP6 POP POP POP POP POP POP PUSH2 0x1609 JUMP JUMPDEST PUSH1 0x40 MLOAD PUSH3 0x461BCD PUSH1 0xE5 SHL DUP2 MSTORE PUSH1 0x20 PUSH1 0x4 DUP3 ADD MSTORE PUSH1 0xE PUSH1 0x24 DUP3 ADD MSTORE PUSH14 0x3AB735B737BBB7103932B3B4B7B7 PUSH1 0x91 SHL PUSH1 0x44 DUP3 ADD MSTORE PUSH1 0x64 ADD PUSH2 0x2BF JUMP JUMPDEST SWAP4 SWAP3 POP POP POP JUMP JUMPDEST PUSH1 0x0 DUP1 PUSH2 0x1639 DUP6 DUP6 DUP6 PUSH1 0x40 ADD MLOAD PUSH1 0x1 PUSH1 0x1 PUSH1 0x40 SHL SUB AND DUP7 PUSH1 0x0 ADD MLOAD PUSH1 0x1 PUSH1 0x1 PUSH1 0x40 SHL SUB AND PUSH2 0xEC1 JUMP JUMPDEST SWAP1 POP PUSH1 0x0 PUSH2 0x1677 DUP7 DUP7 DUP5 DUP8 PUSH1 0x20 ADD MLOAD PUSH1 0x1 PUSH1 0x1 PUSH1 0x40 SHL SUB AND DUP9 PUSH1 0x40 ADD MLOAD PUSH1 0x1 PUSH1 0x1 PUSH1 0x40 SHL SUB AND PUSH8 0xDE0B6B3A7640000 PUSH2 0x1672 SWAP2 SWAP1 PUSH2 0x27E5 JUMP JUMPDEST PUSH2 0xDC2 JUMP JUMPDEST SWAP1 POP PUSH1 0x0 PUSH2 0x1689 DUP8 DUP8 DUP6 DUP6 PUSH1 0x0 PUSH2 0xCB5 JUMP JUMPDEST SWAP1 POP PUSH2 0xF97 DUP9 DUP9 DUP9 DUP7 DUP7 DUP7 PUSH2 0x1995 JUMP JUMPDEST PUSH1 0x0 PUSH2 0x2CD DUP3 DUP4 PUSH2 0x1125 JUMP JUMPDEST PUSH1 0x0 PUSH2 0x2CD DUP3 DUP4 PUSH2 0x1A32 JUMP JUMPDEST PUSH1 0x0 PUSH2 0x2CD DUP3 PUSH2 0x16CA PUSH1 0x2 PUSH8 0xDE0B6B3A7640000 PUSH2 0x2934 JUMP JUMPDEST PUSH2 0x1A79 JUMP JUMPDEST PUSH1 0x0 DUP2 DUP4 LT PUSH2 0x16DE JUMPI DUP2 PUSH2 0x1609 JUMP JUMPDEST POP SWAP1 SWAP2 SWAP1 POP JUMP JUMPDEST PUSH1 0x0 DUP2 DUP4 GT PUSH2 0x16DE JUMPI DUP2 PUSH2 0x1609 JUMP JUMPDEST PUSH1 0x0 PUSH8 0xDE0B6B3A7640000 JUMPDEST DUP3 ISZERO PUSH2 0x1609 JUMPI PUSH2 0x1711 PUSH1 0x2 DUP5 PUSH2 0x2996 JUMP JUMPDEST PUSH1 0x1 EQ ISZERO PUSH2 0x1726 JUMPI PUSH2 0x1723 DUP2 DUP6 PUSH2 0x1125 JUMP JUMPDEST SWAP1 POP JUMPDEST PUSH2 0x1731 PUSH1 0x2 DUP5 PUSH2 0x2934 JUMP JUMPDEST SWAP3 POP PUSH2 0x173D DUP5 DUP6 PUSH2 0x1125 JUMP JUMPDEST SWAP4 POP PUSH2 0x1700 JUMP JUMPDEST PUSH1 0x40 MLOAD PUSH4 0x21F8A721 PUSH1 0xE0 SHL DUP2 MSTORE PUSH17 0x4759445F544F4B454E5F41444452455353 PUSH1 0x78 SHL PUSH1 0x4 DUP3 ADD MSTORE PUSH1 0x0 SWAP1 PUSH1 0x1 PUSH1 0x1 PUSH1 0xA0 SHL SUB DUP4 AND SWAP1 PUSH4 0x21F8A721 SWAP1 PUSH1 0x24 ADD PUSH2 0x779 JUMP JUMPDEST PUSH1 0x0 PUSH2 0x1794 DUP5 DUP5 DUP5 PUSH2 0x1C05 JUMP JUMPDEST ISZERO PUSH2 0x183C JUMPI DUP3 PUSH1 0x20 ADD MLOAD PUSH1 0x1 PUSH1 0x1 PUSH1 0x40 SHL SUB AND DUP5 PUSH1 0x0 ADD MLOAD GT PUSH2 0x17B9 JUMPI POP PUSH1 0x0 PUSH2 0x1609 JUMP JUMPDEST PUSH1 0x0 PUSH2 0x17D6 DUP6 PUSH1 0x40 ADD MLOAD DUP7 PUSH1 0x20 ADD MLOAD PUSH2 0x10B5 SWAP1 SWAP2 SWAP1 PUSH4 0xFFFFFFFF AND JUMP JUMPDEST SWAP1 POP PUSH1 0x0 PUSH2 0x180B DUP6 PUSH1 0x20 ADD MLOAD PUSH1 0x1 PUSH1 0x1 PUSH1 0x40 SHL SUB AND DUP8 PUSH1 0x0 ADD MLOAD PUSH2 0x17FA SWAP2 SWAP1 PUSH2 0x27E5 JUMP JUMPDEST DUP7 MLOAD PUSH1 0x1 PUSH1 0x1 PUSH1 0x40 SHL SUB AND SWAP1 PUSH2 0x1125 JUMP JUMPDEST PUSH2 0x181D SWAP1 PUSH8 0xDE0B6B3A7640000 PUSH2 0x27E5 JUMP JUMPDEST SWAP1 POP DUP1 DUP3 GT PUSH2 0x1831 JUMPI PUSH1 0x1 SWAP3 POP POP POP PUSH2 0x1609 JUMP JUMPDEST PUSH1 0x2 SWAP3 POP POP POP PUSH2 0x1609 JUMP JUMPDEST PUSH2 0x1854 DUP5 DUP5 PUSH1 0x0 ADD MLOAD PUSH1 0x1 PUSH1 0x1 PUSH1 0x40 SHL SUB AND DUP5 PUSH2 0x1C53 JUMP JUMPDEST ISZERO PUSH2 0x1974 JUMPI PUSH2 0x1871 DUP5 DUP5 PUSH1 0x0 ADD MLOAD PUSH1 0x1 PUSH1 0x1 PUSH1 0x40 SHL SUB AND DUP5 PUSH2 0x1C78 JUMP JUMPDEST ISZERO PUSH2 0x18D7 JUMPI PUSH8 0x1BC16D674EC80000 DUP4 PUSH1 0x0 ADD MLOAD PUSH1 0x1 PUSH1 0x1 PUSH1 0x40 SHL SUB AND PUSH2 0x189A DUP7 PUSH1 0x40 ADD MLOAD PUSH2 0x1699 JUMP JUMPDEST PUSH2 0x18A4 SWAP2 SWAP1 PUSH2 0x2948 JUMP JUMPDEST PUSH2 0x18AE SWAP2 SWAP1 PUSH2 0x2934 JUMP JUMPDEST DUP5 PUSH1 0x20 ADD MLOAD DUP6 PUSH1 0x40 ADD MLOAD PUSH2 0x18C2 SWAP2 SWAP1 PUSH2 0x27E5 JUMP JUMPDEST GT PUSH2 0x18CF JUMPI POP PUSH1 0x0 PUSH2 0x1609 JUMP JUMPDEST POP PUSH1 0x3 PUSH2 0x1609 JUMP JUMPDEST PUSH1 0x0 DUP4 PUSH1 0x40 ADD MLOAD PUSH1 0x1 PUSH1 0x1 PUSH1 0x40 SHL SUB AND PUSH8 0xDE0B6B3A7640000 PUSH2 0x18FA SWAP2 SWAP1 PUSH2 0x27E5 JUMP JUMPDEST DUP5 MLOAD SWAP1 SWAP2 POP PUSH2 0x190A SWAP1 PUSH1 0x2 PUSH2 0x27FC JUMP JUMPDEST PUSH1 0x1 PUSH1 0x1 PUSH1 0x40 SHL SUB AND PUSH2 0x191E PUSH1 0x2 DUP4 PUSH2 0x290F JUMP JUMPDEST PUSH2 0x1928 SWAP2 SWAP1 PUSH2 0x2934 JUMP JUMPDEST PUSH2 0x194C DUP7 PUSH1 0x40 ADD MLOAD DUP7 PUSH1 0x40 ADD MLOAD PUSH1 0x1 PUSH1 0x1 PUSH1 0x40 SHL SUB AND PUSH2 0x1125 SWAP1 SWAP2 SWAP1 PUSH4 0xFFFFFFFF AND JUMP JUMPDEST DUP7 PUSH1 0x20 ADD MLOAD PUSH2 0x195B SWAP2 SWAP1 PUSH2 0x27E5 JUMP JUMPDEST LT PUSH2 0x196A JUMPI PUSH1 0x0 SWAP2 POP POP PUSH2 0x1609 JUMP JUMPDEST PUSH1 0x4 SWAP2 POP POP PUSH2 0x1609 JUMP JUMPDEST PUSH2 0x197E DUP5 DUP4 PUSH2 0x1CA0 JUMP JUMPDEST ISZERO PUSH2 0x198B JUMPI POP PUSH1 0x5 PUSH2 0x1609 JUMP JUMPDEST POP PUSH1 0x6 SWAP4 SWAP3 POP POP POP JUMP JUMPDEST PUSH1 0x0 DUP3 DUP8 GT PUSH2 0x19AF JUMPI PUSH2 0x19A8 DUP8 DUP8 PUSH2 0x27E5 JUMP JUMPDEST SWAP1 POP PUSH2 0x400 JUMP JUMPDEST DUP2 DUP8 GT PUSH2 0x19F4 JUMPI PUSH8 0x1BC16D674EC80000 PUSH2 0x19CC PUSH2 0x136F DUP6 DUP11 PUSH2 0x27E5 JUMP JUMPDEST PUSH2 0x19D6 SWAP1 DUP7 PUSH2 0x2948 JUMP JUMPDEST PUSH2 0x19E0 SWAP2 SWAP1 PUSH2 0x2934 JUMP JUMPDEST PUSH2 0x19EA DUP9 DUP9 PUSH2 0x27E5 JUMP JUMPDEST PUSH2 0x19A8 SWAP2 SWAP1 PUSH2 0x27B0 JUMP JUMPDEST PUSH1 0x0 PUSH2 0x1A0A PUSH2 0x1A03 DUP6 DUP6 PUSH2 0x27E5 JUMP JUMPDEST DUP7 SWAP1 PUSH2 0x1125 JUMP JUMPDEST PUSH2 0x1A1C SWAP1 PUSH8 0xDE0B6B3A7640000 PUSH2 0x27E5 JUMP JUMPDEST SWAP1 POP PUSH2 0xF97 PUSH2 0x1A2B DUP10 DUP9 PUSH2 0x27E5 JUMP JUMPDEST DUP3 SWAP1 PUSH2 0x1125 JUMP JUMPDEST PUSH1 0x0 DUP1 PUSH2 0x1A3F DUP4 DUP6 PUSH2 0x2948 JUMP JUMPDEST SWAP1 POP DUP1 PUSH2 0x1A50 JUMPI PUSH1 0x0 SWAP2 POP POP PUSH2 0x2CD JUMP JUMPDEST PUSH8 0xDE0B6B3A7640000 PUSH2 0x1A64 PUSH1 0x1 DUP4 PUSH2 0x27E5 JUMP JUMPDEST PUSH2 0x1A6E SWAP2 SWAP1 PUSH2 0x2934 JUMP JUMPDEST PUSH2 0x111D SWAP1 PUSH1 0x1 PUSH2 0x27B0 JUMP JUMPDEST PUSH1 0x0 DUP2 PUSH2 0x1A8F JUMPI POP PUSH8 0xDE0B6B3A7640000 PUSH2 0x2CD JUMP JUMPDEST DUP3 PUSH2 0x1A9C JUMPI POP PUSH1 0x0 PUSH2 0x2CD JUMP JUMPDEST PUSH1 0x40 DUP1 MLOAD DUP1 DUP3 ADD SWAP1 SWAP2 MSTORE PUSH1 0x2 DUP2 MSTORE PUSH2 0x323 PUSH1 0xF4 SHL PUSH1 0x20 DUP3 ADD MSTORE PUSH1 0x1 PUSH1 0xFF SHL DUP5 LT PUSH2 0x1AD9 JUMPI PUSH1 0x40 MLOAD PUSH3 0x461BCD PUSH1 0xE5 SHL DUP2 MSTORE PUSH1 0x4 ADD PUSH2 0x2BF SWAP2 SWAP1 PUSH2 0x2745 JUMP JUMPDEST POP PUSH1 0x40 DUP1 MLOAD DUP1 DUP3 ADD SWAP1 SWAP2 MSTORE PUSH1 0x2 DUP2 MSTORE PUSH2 0x3231 PUSH1 0xF0 SHL PUSH1 0x20 DUP3 ADD MSTORE DUP4 SWAP1 PUSH24 0xBCE5086492111AEA88F4BB1CA6BCF584181EA8059F76532 DUP5 LT PUSH2 0x1B2D JUMPI PUSH1 0x40 MLOAD PUSH3 0x461BCD PUSH1 0xE5 SHL DUP2 MSTORE PUSH1 0x4 ADD PUSH2 0x2BF SWAP2 SWAP1 PUSH2 0x2745 JUMP JUMPDEST POP DUP3 PUSH1 0x0 PUSH8 0xC7D713B49DA0000 DUP4 SGT DUP1 ISZERO PUSH2 0x1B4F JUMPI POP PUSH8 0xF43FC2C04EE0000 DUP4 SLT JUMPDEST ISZERO PUSH2 0x1B86 JUMPI PUSH1 0x0 PUSH2 0x1B5F DUP5 PUSH2 0x1CDA JUMP JUMPDEST SWAP1 POP PUSH8 0xDE0B6B3A7640000 DUP1 DUP3 SMOD DUP5 MUL SDIV DUP4 PUSH8 0xDE0B6B3A7640000 DUP4 SDIV MUL ADD SWAP2 POP POP PUSH2 0x1B94 JUMP JUMPDEST DUP2 PUSH2 0x1B90 DUP5 PUSH2 0x1DF9 JUMP JUMPDEST MUL SWAP1 POP JUMPDEST PUSH8 0xDE0B6B3A7640000 SWAP1 SDIV PUSH9 0x238FD42C5CF03FFFF NOT DUP2 SLT DUP1 ISZERO SWAP1 PUSH2 0x1BC2 JUMPI POP PUSH9 0x70C1CC73B00C80000 DUP2 SGT ISZERO JUMPDEST PUSH1 0x40 MLOAD DUP1 PUSH1 0x40 ADD PUSH1 0x40 MSTORE DUP1 PUSH1 0x2 DUP2 MSTORE PUSH1 0x20 ADD PUSH2 0x1919 PUSH1 0xF1 SHL DUP2 MSTORE POP SWAP1 PUSH2 0x1BFB JUMPI PUSH1 0x40 MLOAD PUSH3 0x461BCD PUSH1 0xE5 SHL DUP2 MSTORE PUSH1 0x4 ADD PUSH2 0x2BF SWAP2 SWAP1 PUSH2 0x2745 JUMP JUMPDEST POP PUSH2 0x400 DUP2 PUSH2 0x21A3 JUMP JUMPDEST PUSH1 0x0 PUSH2 0x1C43 DUP5 PUSH1 0x0 ADD MLOAD DUP4 PUSH1 0x0 ADD MLOAD PUSH8 0xDE0B6B3A7640000 DUP7 PUSH1 0x0 ADD MLOAD PUSH1 0x1 PUSH1 0x1 PUSH1 0x40 SHL SUB AND DUP8 PUSH1 0x20 ADD MLOAD PUSH1 0x1 PUSH1 0x1 PUSH1 0x40 SHL SUB AND DUP8 PUSH1 0x40 ADD MLOAD PUSH2 0x1995 JUMP JUMPDEST DUP5 PUSH1 0x20 ADD MLOAD LT ISZERO SWAP1 POP SWAP4 SWAP3 POP POP POP JUMP JUMPDEST PUSH1 0x0 PUSH2 0x1C43 DUP5 PUSH1 0x0 ADD MLOAD DUP4 PUSH1 0x20 ADD MLOAD PUSH8 0xDE0B6B3A7640000 DUP7 PUSH1 0x0 DUP8 PUSH1 0x60 ADD MLOAD PUSH2 0x1995 JUMP JUMPDEST PUSH1 0x0 PUSH2 0x1C43 DUP5 PUSH1 0x0 ADD MLOAD DUP4 PUSH1 0x80 ADD MLOAD PUSH8 0xDE0B6B3A7640000 DUP7 DUP7 PUSH1 0xC0 ADD MLOAD DUP8 PUSH1 0xE0 ADD MLOAD PUSH2 0x1995 JUMP JUMPDEST PUSH1 0x0 PUSH2 0x1CCB DUP4 PUSH1 0x0 ADD MLOAD DUP4 PUSH1 0xA0 ADD MLOAD PUSH8 0xDE0B6B3A7640000 DUP6 PUSH2 0x100 ADD MLOAD PUSH1 0x0 DUP8 PUSH2 0x120 ADD MLOAD PUSH2 0x1995 JUMP JUMPDEST DUP4 PUSH1 0x20 ADD MLOAD LT ISZERO SWAP1 POP SWAP3 SWAP2 POP POP JUMP JUMPDEST PUSH8 0xDE0B6B3A7640000 MUL PUSH1 0x0 DUP1 PUSH11 0xC097CE7BC90715B34B9F1 PUSH1 0x24 SHL DUP1 DUP5 ADD SWAP1 PUSH15 0xC097CE7BC90715B34B9F0FFFFFFFFF NOT DUP6 ADD MUL DUP2 PUSH2 0x1D1B JUMPI PUSH2 0x1D1B PUSH2 0x291E JUMP JUMPDEST SDIV SWAP1 POP PUSH1 0x0 PUSH11 0xC097CE7BC90715B34B9F1 PUSH1 0x24 SHL DUP3 DUP1 MUL SDIV SWAP1 POP DUP2 DUP1 PUSH11 0xC097CE7BC90715B34B9F1 PUSH1 0x24 SHL DUP2 DUP5 MUL SDIV SWAP2 POP PUSH1 0x3 DUP3 SDIV ADD PUSH11 0xC097CE7BC90715B34B9F1 PUSH1 0x24 SHL DUP3 DUP5 MUL SDIV SWAP2 POP PUSH1 0x5 DUP3 SDIV ADD PUSH11 0xC097CE7BC90715B34B9F1 PUSH1 0x24 SHL DUP3 DUP5 MUL SDIV SWAP2 POP PUSH1 0x7 DUP3 SDIV ADD PUSH11 0xC097CE7BC90715B34B9F1 PUSH1 0x24 SHL DUP3 DUP5 MUL SDIV SWAP2 POP PUSH1 0x9 DUP3 SDIV ADD PUSH11 0xC097CE7BC90715B34B9F1 PUSH1 0x24 SHL DUP3 DUP5 MUL SDIV SWAP2 POP PUSH1 0xB DUP3 SDIV ADD PUSH11 0xC097CE7BC90715B34B9F1 PUSH1 0x24 SHL DUP3 DUP5 MUL SDIV SWAP2 POP PUSH1 0xD DUP3 SDIV ADD PUSH11 0xC097CE7BC90715B34B9F1 PUSH1 0x24 SHL DUP3 DUP5 MUL SDIV SWAP2 POP PUSH1 0xF DUP3 SDIV ADD PUSH1 0x2 MUL SWAP6 SWAP5 POP POP POP POP POP JUMP JUMPDEST PUSH1 0x0 PUSH8 0xDE0B6B3A7640000 DUP3 SLT ISZERO PUSH2 0x1E3A JUMPI PUSH2 0x1E31 DUP3 PUSH11 0xC097CE7BC90715B34B9F1 PUSH1 0x24 SHL DUP2 PUSH2 0x1E2B JUMPI PUSH2 0x1E2B PUSH2 0x291E JUMP JUMPDEST SDIV PUSH2 0x1DF9 JUMP JUMPDEST PUSH1 0x0 SUB SWAP3 SWAP2 POP POP JUMP JUMPDEST PUSH1 0x0 PUSH31 0x1600EF3172E58D2E933EC884FDE10064C63B5372D805E203C0000000000000 DUP4 SLT PUSH2 0x1E8B JUMPI PUSH24 0x195E54C5DD42177F53A27172FA9EC630262827000000000 DUP4 SDIV SWAP3 POP PUSH9 0x6F05B59D3B2000000 ADD JUMPDEST PUSH20 0x11798004D755D3C8BC8E03204CF44619E000000 DUP4 SLT PUSH2 0x1EC3 JUMPI PUSH12 0x1425982CF597CD205CEF7380 DUP4 SDIV SWAP3 POP PUSH9 0x3782DACE9D9000000 ADD JUMPDEST PUSH1 0x64 SWAP3 DUP4 MUL SWAP3 MUL PUSH15 0x1855144814A7FF805980FF0084000 DUP4 SLT PUSH2 0x1F0B JUMPI PUSH15 0x1855144814A7FF805980FF0084000 PUSH9 0x56BC75E2D63100000 DUP5 MUL SDIV SWAP3 POP PUSH9 0xAD78EBC5AC62000000 ADD JUMPDEST PUSH12 0x2DF0AB5A80A22C61AB5A700 DUP4 SLT PUSH2 0x1F46 JUMPI PUSH12 0x2DF0AB5A80A22C61AB5A700 PUSH9 0x56BC75E2D63100000 DUP5 MUL SDIV SWAP3 POP PUSH9 0x56BC75E2D631000000 ADD JUMPDEST PUSH10 0x3F1FCE3DA636EA5CF850 DUP4 SLT PUSH2 0x1F7D JUMPI PUSH10 0x3F1FCE3DA636EA5CF850 PUSH9 0x56BC75E2D63100000 DUP5 MUL SDIV SWAP3 POP PUSH9 0x2B5E3AF16B18800000 ADD JUMPDEST PUSH10 0x127FA27722CC06CC5E2 DUP4 SLT PUSH2 0x1FB4 JUMPI PUSH10 0x127FA27722CC06CC5E2 PUSH9 0x56BC75E2D63100000 DUP5 MUL SDIV SWAP3 POP PUSH9 0x15AF1D78B58C400000 ADD JUMPDEST PUSH9 0x280E60114EDB805D03 DUP4 SLT PUSH2 0x1FE9 JUMPI PUSH9 0x280E60114EDB805D03 PUSH9 0x56BC75E2D63100000 DUP5 MUL SDIV SWAP3 POP PUSH9 0xAD78EBC5AC6200000 ADD JUMPDEST PUSH9 0xEBC5FB41746121110 DUP4 SLT PUSH2 0x2014 JUMPI PUSH9 0xEBC5FB41746121110 PUSH9 0x56BC75E2D63100000 SWAP4 DUP5 MUL SDIV SWAP3 ADD JUMPDEST PUSH9 0x8F00F760A4B2DB55D DUP4 SLT PUSH2 0x2049 JUMPI PUSH9 0x8F00F760A4B2DB55D PUSH9 0x56BC75E2D63100000 DUP5 MUL SDIV SWAP3 POP PUSH9 0x2B5E3AF16B1880000 ADD JUMPDEST PUSH9 0x6F5F1775788937937 DUP4 SLT PUSH2 0x207E JUMPI PUSH9 0x6F5F1775788937937 PUSH9 0x56BC75E2D63100000 DUP5 MUL SDIV SWAP3 POP PUSH9 0x15AF1D78B58C40000 ADD JUMPDEST PUSH9 0x6248F33704B286603 DUP4 SLT PUSH2 0x20B2 JUMPI PUSH9 0x6248F33704B286603 PUSH9 0x56BC75E2D63100000 DUP5 MUL SDIV SWAP3 POP PUSH8 0xAD78EBC5AC620000 ADD JUMPDEST PUSH9 0x5C548670B9510E7AC DUP4 SLT PUSH2 0x20E6 JUMPI PUSH9 0x5C548670B9510E7AC PUSH9 0x56BC75E2D63100000 DUP5 MUL SDIV SWAP3 POP PUSH8 0x56BC75E2D6310000 ADD JUMPDEST PUSH1 0x0 PUSH9 0x56BC75E2D63100000 DUP5 ADD PUSH9 0x56BC75E2D63100000 DUP1 DUP7 SUB MUL DUP2 PUSH2 0x210F JUMPI PUSH2 0x210F PUSH2 0x291E JUMP JUMPDEST SDIV SWAP1 POP PUSH1 0x0 PUSH9 0x56BC75E2D63100000 DUP3 DUP1 MUL SDIV SWAP1 POP DUP2 DUP1 PUSH9 0x56BC75E2D63100000 DUP2 DUP5 MUL SDIV SWAP2 POP PUSH1 0x3 DUP3 SDIV ADD PUSH9 0x56BC75E2D63100000 DUP3 DUP5 MUL SDIV SWAP2 POP PUSH1 0x5 DUP3 SDIV ADD PUSH9 0x56BC75E2D63100000 DUP3 DUP5 MUL SDIV SWAP2 POP PUSH1 0x7 DUP3 SDIV ADD PUSH9 0x56BC75E2D63100000 DUP3 DUP5 MUL SDIV SWAP2 POP PUSH1 0x9 DUP3 SDIV ADD PUSH9 0x56BC75E2D63100000 DUP3 DUP5 MUL SDIV SWAP2 POP PUSH1 0xB DUP3 SDIV ADD PUSH1 0x2 MUL PUSH1 0x64 DUP6 DUP3 ADD SDIV SWAP8 SWAP7 POP POP POP POP POP POP POP JUMP JUMPDEST PUSH1 0x0 PUSH9 0x238FD42C5CF03FFFF NOT DUP3 SLT ISZERO DUP1 ISZERO PUSH2 0x21C8 JUMPI POP PUSH9 0x70C1CC73B00C80000 DUP3 SGT ISZERO JUMPDEST PUSH1 0x40 MLOAD DUP1 PUSH1 0x40 ADD PUSH1 0x40 MSTORE DUP1 PUSH1 0x2 DUP2 MSTORE PUSH1 0x20 ADD PUSH2 0x3233 PUSH1 0xF0 SHL DUP2 MSTORE POP SWAP1 PUSH2 0x2201 JUMPI PUSH1 0x40 MLOAD PUSH3 0x461BCD PUSH1 0xE5 SHL DUP2 MSTORE PUSH1 0x4 ADD PUSH2 0x2BF SWAP2 SWAP1 PUSH2 0x2745 JUMP JUMPDEST POP PUSH1 0x0 DUP3 SLT ISZERO PUSH2 0x223A JUMPI PUSH2 0x2217 DUP3 PUSH1 0x0 SUB PUSH2 0x21A3 JUMP JUMPDEST PUSH11 0xC097CE7BC90715B34B9F1 PUSH1 0x24 SHL DUP2 PUSH2 0x2233 JUMPI PUSH2 0x2233 PUSH2 0x291E JUMP JUMPDEST SDIV SWAP3 SWAP2 POP POP JUMP JUMPDEST PUSH1 0x0 PUSH9 0x6F05B59D3B2000000 DUP4 SLT PUSH2 0x227A JUMPI POP PUSH9 0x6F05B59D3B1FFFFFF NOT SWAP1 SWAP2 ADD SWAP1 PUSH24 0x195E54C5DD42177F53A27172FA9EC630262827000000000 PUSH2 0x22B0 JUMP JUMPDEST PUSH9 0x3782DACE9D9000000 DUP4 SLT PUSH2 0x22AC JUMPI POP PUSH9 0x3782DACE9D8FFFFFF NOT SWAP1 SWAP2 ADD SWAP1 PUSH12 0x1425982CF597CD205CEF7380 PUSH2 0x22B0 JUMP JUMPDEST POP PUSH1 0x1 JUMPDEST PUSH1 0x64 SWAP3 SWAP1 SWAP3 MUL SWAP2 PUSH9 0x56BC75E2D63100000 PUSH9 0xAD78EBC5AC62000000 DUP5 SLT PUSH2 0x2300 JUMPI PUSH9 0xAD78EBC5AC61FFFFFF NOT SWAP1 SWAP4 ADD SWAP3 PUSH9 0x56BC75E2D63100000 PUSH15 0x1855144814A7FF805980FF0084000 DUP3 MUL SDIV SWAP1 POP JUMPDEST PUSH9 0x56BC75E2D631000000 DUP5 SLT PUSH2 0x233C JUMPI PUSH9 0x56BC75E2D630FFFFFF NOT SWAP1 SWAP4 ADD SWAP3 PUSH9 0x56BC75E2D63100000 PUSH12 0x2DF0AB5A80A22C61AB5A700 DUP3 MUL SDIV SWAP1 POP JUMPDEST PUSH9 0x2B5E3AF16B18800000 DUP5 SLT PUSH2 0x2376 JUMPI PUSH9 0x2B5E3AF16B187FFFFF NOT SWAP1 SWAP4 ADD SWAP3 PUSH9 0x56BC75E2D63100000 PUSH10 0x3F1FCE3DA636EA5CF850 DUP3 MUL SDIV SWAP1 POP JUMPDEST PUSH9 0x15AF1D78B58C400000 DUP5 SLT PUSH2 0x23B0 JUMPI PUSH9 0x15AF1D78B58C3FFFFF NOT SWAP1 SWAP4 ADD SWAP3 PUSH9 0x56BC75E2D63100000 PUSH10 0x127FA27722CC06CC5E2 DUP3 MUL SDIV SWAP1 POP JUMPDEST PUSH9 0xAD78EBC5AC6200000 DUP5 SLT PUSH2 0x23E9 JUMPI PUSH9 0xAD78EBC5AC61FFFFF NOT SWAP1 SWAP4 ADD SWAP3 PUSH9 0x56BC75E2D63100000 PUSH9 0x280E60114EDB805D03 DUP3 MUL SDIV SWAP1 POP JUMPDEST PUSH9 0x56BC75E2D63100000 DUP5 SLT PUSH2 0x2422 JUMPI PUSH9 0x56BC75E2D630FFFFF NOT SWAP1 SWAP4 ADD SWAP3 PUSH9 0x56BC75E2D63100000 PUSH9 0xEBC5FB41746121110 DUP3 MUL SDIV SWAP1 POP JUMPDEST PUSH9 0x2B5E3AF16B1880000 DUP5 SLT PUSH2 0x245B JUMPI PUSH9 0x2B5E3AF16B187FFFF NOT SWAP1 SWAP4 ADD SWAP3 PUSH9 0x56BC75E2D63100000 PUSH9 0x8F00F760A4B2DB55D DUP3 MUL SDIV SWAP1 POP JUMPDEST PUSH9 0x15AF1D78B58C40000 DUP5 SLT PUSH2 0x2494 JUMPI PUSH9 0x15AF1D78B58C3FFFF NOT SWAP1 SWAP4 ADD SWAP3 PUSH9 0x56BC75E2D63100000 PUSH9 0x6F5F1775788937937 DUP3 MUL SDIV SWAP1 POP JUMPDEST PUSH9 0x56BC75E2D63100000 DUP5 DUP2 ADD SWAP1 DUP6 SWAP1 PUSH1 0x2 SWAP1 DUP3 DUP1 MUL SDIV SDIV SWAP2 DUP3 ADD SWAP2 SWAP1 POP PUSH1 0x3 PUSH9 0x56BC75E2D63100000 DUP8 DUP4 MUL SDIV SDIV SWAP2 DUP3 ADD SWAP2 SWAP1 POP PUSH1 0x4 PUSH9 0x56BC75E2D63100000 DUP8 DUP4 MUL SDIV SDIV SWAP2 DUP3 ADD SWAP2 SWAP1 POP PUSH1 0x5 PUSH9 0x56BC75E2D63100000 DUP8 DUP4 MUL SDIV SDIV SWAP2 DUP3 ADD SWAP2 SWAP1 POP PUSH1 0x6 PUSH9 0x56BC75E2D63100000 DUP8 DUP4 MUL SDIV SDIV SWAP2 DUP3 ADD SWAP2 SWAP1 POP PUSH1 0x7 PUSH9 0x56BC75E2D63100000 DUP8 DUP4 MUL SDIV SDIV SWAP2 DUP3 ADD SWAP2 SWAP1 POP PUSH1 0x8 PUSH9 0x56BC75E2D63100000 DUP8 DUP4 MUL SDIV SDIV SWAP2 DUP3 ADD SWAP2 SWAP1 POP PUSH1 0x9 PUSH9 0x56BC75E2D63100000 DUP8 DUP4 MUL SDIV SDIV SWAP2 DUP3 ADD SWAP2 SWAP1 POP PUSH1 0xA PUSH9 0x56BC75E2D63100000 DUP8 DUP4 MUL SDIV SDIV SWAP2 DUP3 ADD SWAP2 SWAP1 POP PUSH1 0xB PUSH9 0x56BC75E2D63100000 DUP8 DUP4 MUL SDIV SDIV SWAP2 DUP3 ADD SWAP2 SWAP1 POP PUSH1 0xC PUSH9 0x56BC75E2D63100000 DUP8 DUP4 MUL SDIV SDIV SWAP2 DUP3 ADD SWAP2 SWAP1 POP PUSH1 0x64 PUSH9 0x56BC75E2D63100000 DUP5 DUP5 MUL SDIV DUP6 MUL SDIV SWAP7 SWAP6 POP POP POP POP POP POP JUMP JUMPDEST PUSH1 0x40 MLOAD DUP1 PUSH2 0x140 ADD PUSH1 0x40 MSTORE DUP1 PUSH1 0x0 DUP2 MSTORE PUSH1 0x20 ADD PUSH1 0x0 DUP2 MSTORE PUSH1 0x20 ADD PUSH1 0x0 DUP2 MSTORE PUSH1 0x20 ADD PUSH1 0x0 DUP2 MSTORE PUSH1 0x20 ADD PUSH1 0x0 DUP2 MSTORE PUSH1 0x20 ADD PUSH1 0x0 DUP2 MSTORE PUSH1 0x20 ADD PUSH1 0x0 DUP2 MSTORE PUSH1 0x20 ADD PUSH1 0x0 DUP2 MSTORE PUSH1 0x20 ADD PUSH1 0x0 DUP2 MSTORE PUSH1 0x20 ADD PUSH1 0x0 DUP2 MSTORE POP SWAP1 JUMP JUMPDEST PUSH1 0x40 MLOAD DUP1 PUSH1 0xA0 ADD PUSH1 0x40 MSTORE DUP1 PUSH1 0x0 DUP2 MSTORE PUSH1 0x20 ADD PUSH1 0x0 DUP2 MSTORE PUSH1 0x20 ADD PUSH1 0x0 PUSH1 0x6 DUP2 GT ISZERO PUSH2 0x2634 JUMPI PUSH2 0x2634 PUSH2 0x2980 JUMP JUMPDEST DUP2 MSTORE PUSH1 0x20 ADD PUSH1 0x0 DUP2 MSTORE PUSH1 0x20 ADD PUSH1 0x0 DUP2 MSTORE POP SWAP1 JUMP JUMPDEST PUSH1 0x0 DUP1 PUSH1 0x40 DUP4 DUP6 SUB SLT ISZERO PUSH2 0x265B JUMPI PUSH1 0x0 DUP1 REVERT JUMPDEST POP POP DUP1 CALLDATALOAD SWAP3 PUSH1 0x20 SWAP1 SWAP2 ADD CALLDATALOAD SWAP2 POP JUMP JUMPDEST DUP1 CALLDATALOAD PUSH1 0x1 PUSH1 0x1 PUSH1 0x40 SHL SUB DUP2 AND DUP2 EQ PUSH2 0x2681 JUMPI PUSH1 0x0 DUP1 REVERT JUMPDEST SWAP2 SWAP1 POP JUMP JUMPDEST PUSH1 0x0 PUSH1 0x80 DUP3 DUP5 SUB SLT ISZERO PUSH2 0x2698 JUMPI PUSH1 0x0 DUP1 REVERT JUMPDEST PUSH1 0x40 MLOAD PUSH1 0x80 DUP2 ADD DUP2 DUP2 LT PUSH1 0x1 PUSH1 0x1 PUSH1 0x40 SHL SUB DUP3 GT OR ISZERO PUSH2 0x26C8 JUMPI PUSH4 0x4E487B71 PUSH1 0xE0 SHL PUSH1 0x0 MSTORE PUSH1 0x41 PUSH1 0x4 MSTORE PUSH1 0x24 PUSH1 0x0 REVERT JUMPDEST PUSH1 0x40 MSTORE PUSH2 0x26D4 DUP4 PUSH2 0x266A JUMP JUMPDEST DUP2 MSTORE PUSH2 0x26E2 PUSH1 0x20 DUP5 ADD PUSH2 0x266A JUMP JUMPDEST PUSH1 0x20 DUP3 ADD MSTORE PUSH2 0x26F3 PUSH1 0x40 DUP5 ADD PUSH2 0x266A JUMP JUMPDEST PUSH1 0x40 DUP3 ADD MSTORE PUSH2 0x2704 PUSH1 0x60 DUP5 ADD PUSH2 0x266A JUMP JUMPDEST PUSH1 0x60 DUP3 ADD MSTORE SWAP4 SWAP3 POP POP POP JUMP JUMPDEST PUSH1 0x1 PUSH1 0x1 PUSH1 0xA0 SHL SUB DUP2 AND DUP2 EQ PUSH2 0x2725 JUMPI PUSH1 0x0 DUP1 REVERT JUMPDEST POP JUMP JUMPDEST PUSH1 0x0 PUSH1 0x20 DUP3 DUP5 SUB SLT ISZERO PUSH2 0x273A JUMPI PUSH1 0x0 DUP1 REVERT JUMPDEST DUP2 CALLDATALOAD PUSH2 0x1609 DUP2 PUSH2 0x2710 JUMP JUMPDEST PUSH1 0x0 PUSH1 0x20 DUP1 DUP4 MSTORE DUP4 MLOAD DUP1 DUP3 DUP6 ADD MSTORE PUSH1 0x0 JUMPDEST DUP2 DUP2 LT ISZERO PUSH2 0x2772 JUMPI DUP6 DUP2 ADD DUP4 ADD MLOAD DUP6 DUP3 ADD PUSH1 0x40 ADD MSTORE DUP3 ADD PUSH2 0x2756 JUMP JUMPDEST DUP2 DUP2 GT ISZERO PUSH2 0x2784 JUMPI PUSH1 0x0 PUSH1 0x40 DUP4 DUP8 ADD ADD MSTORE JUMPDEST POP PUSH1 0x1F ADD PUSH1 0x1F NOT AND SWAP3 SWAP1 SWAP3 ADD PUSH1 0x40 ADD SWAP4 SWAP3 POP POP POP JUMP JUMPDEST PUSH4 0x4E487B71 PUSH1 0xE0 SHL PUSH1 0x0 MSTORE PUSH1 0x11 PUSH1 0x4 MSTORE PUSH1 0x24 PUSH1 0x0 REVERT JUMPDEST PUSH1 0x0 DUP3 NOT DUP3 GT ISZERO PUSH2 0x27C3 JUMPI PUSH2 0x27C3 PUSH2 0x279A JUMP JUMPDEST POP ADD SWAP1 JUMP JUMPDEST PUSH1 0x0 PUSH1 0x20 DUP3 DUP5 SUB SLT ISZERO PUSH2 0x27DA JUMPI PUSH1 0x0 DUP1 REVERT JUMPDEST DUP2 MLOAD PUSH2 0x1609 DUP2 PUSH2 0x2710 JUMP JUMPDEST PUSH1 0x0 DUP3 DUP3 LT ISZERO PUSH2 0x27F7 JUMPI PUSH2 0x27F7 PUSH2 0x279A JUMP JUMPDEST POP SUB SWAP1 JUMP JUMPDEST PUSH1 0x0 PUSH1 0x1 PUSH1 0x1 PUSH1 0x40 SHL SUB DUP1 DUP4 AND DUP2 DUP6 AND DUP2 DUP4 DIV DUP2 GT DUP3 ISZERO ISZERO AND ISZERO PUSH2 0x2822 JUMPI PUSH2 0x2822 PUSH2 0x279A JUMP JUMPDEST MUL SWAP5 SWAP4 POP POP POP POP JUMP JUMPDEST PUSH1 0x1 DUP2 DUP2 JUMPDEST DUP1 DUP6 GT ISZERO PUSH2 0x2866 JUMPI DUP2 PUSH1 0x0 NOT DIV DUP3 GT ISZERO PUSH2 0x284C JUMPI PUSH2 0x284C PUSH2 0x279A JUMP JUMPDEST DUP1 DUP6 AND ISZERO PUSH2 0x2859 JUMPI SWAP2 DUP2 MUL SWAP2 JUMPDEST SWAP4 DUP5 SHR SWAP4 SWAP1 DUP1 MUL SWAP1 PUSH2 0x2830 JUMP JUMPDEST POP SWAP3 POP SWAP3 SWAP1 POP JUMP JUMPDEST PUSH1 0x0 DUP3 PUSH2 0x287D JUMPI POP PUSH1 0x1 PUSH2 0x2CD JUMP JUMPDEST DUP2 PUSH2 0x288A JUMPI POP PUSH1 0x0 PUSH2 0x2CD JUMP JUMPDEST DUP2 PUSH1 0x1 DUP2 EQ PUSH2 0x28A0 JUMPI PUSH1 0x2 DUP2 EQ PUSH2 0x28AA JUMPI PUSH2 0x28C6 JUMP JUMPDEST PUSH1 0x1 SWAP2 POP POP PUSH2 0x2CD JUMP JUMPDEST PUSH1 0xFF DUP5 GT ISZERO PUSH2 0x28BB JUMPI PUSH2 0x28BB PUSH2 0x279A JUMP JUMPDEST POP POP PUSH1 0x1 DUP3 SHL PUSH2 0x2CD JUMP JUMPDEST POP PUSH1 0x20 DUP4 LT PUSH2 0x133 DUP4 LT AND PUSH1 0x4E DUP5 LT PUSH1 0xB DUP5 LT AND OR ISZERO PUSH2 0x28E9 JUMPI POP DUP2 DUP2 EXP PUSH2 0x2CD JUMP JUMPDEST PUSH2 0x28F3 DUP4 DUP4 PUSH2 0x282B JUMP JUMPDEST DUP1 PUSH1 0x0 NOT DIV DUP3 GT ISZERO PUSH2 0x2907 JUMPI PUSH2 0x2907 PUSH2 0x279A JUMP JUMPDEST MUL SWAP4 SWAP3 POP POP POP JUMP JUMPDEST PUSH1 0x0 PUSH2 0x1609 PUSH1 0xFF DUP5 AND DUP4 PUSH2 0x286E JUMP JUMPDEST PUSH4 0x4E487B71 PUSH1 0xE0 SHL PUSH1 0x0 MSTORE PUSH1 0x12 PUSH1 0x4 MSTORE PUSH1 0x24 PUSH1 0x0 REVERT JUMPDEST PUSH1 0x0 DUP3 PUSH2 0x2943 JUMPI PUSH2 0x2943 PUSH2 0x291E JUMP JUMPDEST POP DIV SWAP1 JUMP JUMPDEST PUSH1 0x0 DUP2 PUSH1 0x0 NOT DIV DUP4 GT DUP3 ISZERO ISZERO AND ISZERO PUSH2 0x2962 JUMPI PUSH2 0x2962 PUSH2 0x279A JUMP JUMPDEST POP MUL SWAP1 JUMP JUMPDEST PUSH1 0x0 PUSH1 0x20 DUP3 DUP5 SUB SLT ISZERO PUSH2 0x2979 JUMPI PUSH1 0x0 DUP1 REVERT JUMPDEST POP MLOAD SWAP2 SWAP1 POP JUMP JUMPDEST PUSH4 0x4E487B71 PUSH1 0xE0 SHL PUSH1 0x0 MSTORE PUSH1 0x21 PUSH1 0x4 MSTORE PUSH1 0x24 PUSH1 0x0 REVERT JUMPDEST PUSH1 0x0 DUP3 PUSH2 0x29A5 JUMPI PUSH2 0x29A5 PUSH2 0x291E JUMP JUMPDEST POP MOD SWAP1 JUMP INVALID LOG2 PUSH5 0x6970667358 0x22 SLT KECCAK256 NUMBER 0xE5 0xD1 PUSH9 0x650A14D91DD7B19C17 DUP12 0x5D PUSH32 0x871A801D11CA3AFDA60893E3BA5EEB3464736F6C634300080A00330000000000 ","sha1":"7c9f8191efd2d6d9eb96e5b992bd5d4776b7276c","source":"// SPDX-License-Identifier: LicenseRef-Gyro-1.0\n// for information on licensing please see the README in the GitHub repository <https://github.com/gyrostable/core-protocol>.\npragma solidity ^0.8.4;\n\nimport \"@openzeppelin/contracts/access/Ownable.sol\";\n\nimport \"../interfaces/IPAMM.sol\";\nimport \"../interfaces/IGyroConfig.sol\";\n\nimport \"../libraries/LogExpMath.sol\";\nimport \"../libraries/FixedPoint.sol\";\nimport \"../libraries/Flow.sol\";\nimport \"../libraries/ConfigHelpers.sol\";\n\nimport \"./auth/Governable.sol\";\n\n/// @notice Implements the primary AMM pricing mechanism\ncontract PrimaryAMMV1 is IPAMM, Governable {\n    using LogExpMath for uint256;\n    using FixedPoint for uint256;\n    using ConfigHelpers for IGyroConfig;\n\n    IGyroConfig public immutable gyroConfig;\n\n    /// @dev we tolerate underflows due to numerical issues up to 1e6, so 1e-12\n    /// given our 1e18 scale\n    uint256 internal constant _UNDERFLOW_EPSILON = 1e6;\n\n    uint256 internal constant ONE = 1e18;\n    uint256 internal constant TWO = 2e18;\n    uint256 internal constant ANCHOR = ONE;\n\n    modifier onlyMotherboard() {\n        require(msg.sender == address(gyroConfig.getMotherboard()), Errors.NOT_AUTHORIZED);\n        _;\n    }\n\n    enum Region {\n        CASE_i,\n        CASE_I_ii,\n        CASE_I_iii,\n        CASE_II_H,\n        CASE_II_L,\n        CASE_III_H,\n        CASE_III_L\n    }\n\n    struct State {\n        uint256 redemptionLevel; // x\n        uint256 reserveValue; // b\n        uint256 totalGyroSupply; // y\n    }\n\n    struct DerivedParams {\n        uint256 baThresholdRegionI; // b_a^{I/II}\n        uint256 baThresholdRegionII; // b_a^{II/III}\n        uint256 xlThresholdAtThresholdI; // x_L^{I/II}\n        uint256 xlThresholdAtThresholdII; // x_L^{II/III}\n        uint256 baThresholdIIHL; // ba^{h/l}\n        uint256 baThresholdIIIHL; // ba^{H/L}\n        uint256 xuThresholdIIHL; // x_U^{h/l}\n        uint256 xlThresholdIIHL; // x_L^{h/l}\n        uint256 alphaThresholdIIIHL; // α^{H/L}\n        uint256 xlThresholdIIIHL; // x_L^{H/L}\n    }\n\n    /// @notice parameters of the primary AMM\n    Params public systemParams;\n\n    /// @notice current redemption level of the primary AMM\n    uint256 public redemptionLevel;\n\n    /// @notice the last block at which a redemption occured\n    uint256 public lastRedemptionBlock;\n\n    /// @notice Initializes the PAMM with the given system parameters\n    constructor(\n        address _governor,\n        address _gyroConfig,\n        Params memory params\n    ) Governable(_governor) {\n        require(_gyroConfig != address(0), Errors.INVALID_ARGUMENT);\n        gyroConfig = IGyroConfig(_gyroConfig);\n        systemParams = params;\n    }\n\n    /// @inheritdoc IPAMM\n    function setSystemParams(Params memory params) external governanceOnly {\n        systemParams = params;\n\n        // NOTE: this is not strictly needed but ensures that the given\n        // parameters allow to compute the derived parameters without underflowing\n        createDerivedParams(params);\n\n        emit SystemParamsUpdated(\n            params.alphaBar,\n            params.xuBar,\n            params.thetaBar,\n            params.outflowMemory\n        );\n    }\n\n    /// Helpers to compute various parameters\n\n    /// @dev Proposition 3 (section 3) of the paper\n    function computeAlpha(\n        uint256 ba,\n        uint256 ya,\n        uint256 thetaBar,\n        uint256 alphaBar\n    ) internal pure returns (uint256) {\n        uint256 ra = ba.divDown(ya);\n        uint256 alphaMin = alphaBar.divDown(ya);\n        uint256 alphaHat;\n        if (ra >= (ONE + thetaBar) / 2) {\n            alphaHat = TWO.mulDown(ONE - ra).divDown(ya);\n        } else {\n            uint256 numerator = (ONE - thetaBar)**2;\n            uint256 denominator = ba - thetaBar.mulDown(ya);\n            alphaHat = numerator / (denominator * 2);\n        }\n        return alphaHat.max(alphaMin);\n    }\n\n    /// @dev Proposition 1 (section 3) of the paper\n    function computeReserveFixedParams(\n        uint256 x,\n        uint256 ba,\n        uint256 ya,\n        uint256 alpha,\n        uint256 xu,\n        uint256 xl\n    ) internal pure returns (uint256) {\n        if (x <= xu) {\n            return ba - x;\n        }\n        if (x <= xl) {\n            return ba - x + (alpha * (x - xu).squareDown()) / TWO;\n        }\n        // x > xl:\n        uint256 rl = ONE - alpha.mulDown(xl - xu);\n        return rl.mulDown(ya - x);\n    }\n\n    /// @dev Proposition 2 (section 3) of the paper\n    function computeXl(\n        uint256 ba,\n        uint256 ya,\n        uint256 alpha,\n        uint256 xu,\n        bool ignoreUnderflow\n    ) internal pure returns (uint256) {\n        require(ba < ya, Errors.INVALID_ARGUMENT);\n        uint256 left = (ya - xu).squareUp();\n        uint256 right = (TWO * (ya - ba)) / alpha;\n        if (left >= right) {\n            return ya - (left - right).sqrt();\n        } else {\n            require(ignoreUnderflow || left + _UNDERFLOW_EPSILON >= right, Errors.SUB_OVERFLOW);\n            return ya;\n        }\n    }\n\n    /// @dev Proposition 4 (section 3) of the paper\n    function computeXu(\n        uint256 ba,\n        uint256 ya,\n        uint256 alpha,\n        uint256 xuBar,\n        uint256 theta\n    ) internal pure returns (uint256) {\n        uint256 delta = ya - ba;\n        uint256 xuMax = xuBar.mulDown(ya);\n        uint256 xu;\n        if (alpha.mulDown(delta) <= theta**2 / TWO) {\n            uint256 rh = ((TWO * delta) / alpha);\n            uint256 rhSqrt = rh.sqrt();\n            xu = rhSqrt >= ya ? 0 : ya - rhSqrt;\n        } else {\n            uint256 subtracted = delta.divDown(theta) + theta.divDown(2 * alpha);\n            xu = subtracted >= ya ? 0 : ya - subtracted;\n        }\n\n        return xu.min(xuMax);\n    }\n\n    /// @dev Lemma 4 (seection 7) of the paper\n    function computeBa(uint256 xu, Params memory params) internal pure returns (uint256) {\n        require(ONE >= xu, \"ya must be greater than xu\");\n        uint256 alpha = params.alphaBar;\n\n        uint256 yz = ANCHOR - xu;\n        if (ONE - alpha.mulDown(yz) >= params.thetaBar)\n            return ANCHOR - (alpha * yz.squareDown()) / TWO;\n        uint256 theta = ONE - params.thetaBar;\n        return ANCHOR - theta.mulDown(yz) + theta**2 / (2 * alpha);\n    }\n\n    /// @dev Algorithm 1 (section 7) of the paper\n    function createDerivedParams(Params memory params)\n        internal\n        pure\n        returns (DerivedParams memory)\n    {\n        DerivedParams memory derived;\n\n        derived.baThresholdRegionI = computeBa(params.xuBar, params);\n        derived.baThresholdRegionII = computeBa(0, params);\n\n        derived.xlThresholdAtThresholdI = computeXl(\n            derived.baThresholdRegionI,\n            ONE,\n            params.alphaBar,\n            params.xuBar,\n            true\n        );\n        derived.xlThresholdAtThresholdII = computeXl(\n            derived.baThresholdRegionII,\n            ONE,\n            params.alphaBar,\n            0,\n            true\n        );\n\n        uint256 theta = ONE - params.thetaBar;\n        derived.baThresholdIIHL = ONE - (theta**2) / (2 * params.alphaBar);\n\n        derived.xuThresholdIIHL = computeXu(\n            derived.baThresholdIIHL,\n            ONE,\n            params.alphaBar,\n            params.xuBar,\n            theta\n        );\n        derived.xlThresholdIIHL = computeXl(\n            derived.baThresholdIIHL,\n            ONE,\n            params.alphaBar,\n            derived.xuThresholdIIHL,\n            true\n        );\n\n        derived.baThresholdIIIHL = (ONE + params.thetaBar) / 2;\n        derived.alphaThresholdIIIHL = computeAlpha(\n            derived.baThresholdIIIHL,\n            ONE,\n            params.thetaBar,\n            params.alphaBar\n        );\n\n        derived.xlThresholdIIIHL = computeXl(\n            derived.baThresholdIIIHL,\n            ONE,\n            derived.alphaThresholdIIIHL,\n            0,\n            true\n        );\n\n        return derived;\n    }\n\n    function computeReserve(\n        uint256 x,\n        uint256 ba,\n        uint256 ya,\n        Params memory params\n    ) internal pure returns (uint256) {\n        uint256 alpha = computeAlpha(ba, ya, params.thetaBar, params.alphaBar);\n        uint256 xu = computeXu(ba, ya, alpha, params.xuBar, ONE - params.thetaBar);\n        uint256 xl = computeXl(ba, ya, alpha, xu, false);\n        return computeReserveFixedParams(x, ba, ya, alpha, xu, xl);\n    }\n\n    function isInFirstRegion(\n        State memory normalizedState,\n        Params memory params,\n        DerivedParams memory derived\n    ) internal pure returns (bool) {\n        return\n            normalizedState.reserveValue >=\n            computeReserveFixedParams(\n                normalizedState.redemptionLevel,\n                derived.baThresholdRegionI,\n                ONE,\n                params.alphaBar,\n                params.xuBar,\n                derived.xlThresholdAtThresholdI\n            );\n    }\n\n    function isInSecondRegion(\n        State memory normalizedState,\n        uint256 alphaBar,\n        DerivedParams memory derived\n    ) internal pure returns (bool) {\n        return\n            normalizedState.reserveValue >=\n            computeReserveFixedParams(\n                normalizedState.redemptionLevel,\n                derived.baThresholdRegionII,\n                ONE,\n                alphaBar,\n                0,\n                derived.xlThresholdAtThresholdII\n            );\n    }\n\n    function isInSecondRegionHigh(\n        State memory normalizedState,\n        uint256 alphaBar,\n        DerivedParams memory derived\n    ) internal pure returns (bool) {\n        return\n            normalizedState.reserveValue >=\n            computeReserveFixedParams(\n                normalizedState.redemptionLevel,\n                derived.baThresholdIIHL,\n                ONE,\n                alphaBar,\n                derived.xuThresholdIIHL,\n                derived.xlThresholdIIHL\n            );\n    }\n\n    function isInThirdRegionHigh(State memory normalizedState, DerivedParams memory derived)\n        internal\n        pure\n        returns (bool)\n    {\n        return\n            normalizedState.reserveValue >=\n            computeReserveFixedParams(\n                normalizedState.redemptionLevel,\n                derived.baThresholdIIIHL,\n                ONE,\n                derived.alphaThresholdIIIHL,\n                0,\n                derived.xlThresholdIIIHL\n            );\n    }\n\n    function computeReserveValueRegion(\n        State memory normalizedState,\n        Params memory params,\n        DerivedParams memory derived\n    ) internal pure returns (Region) {\n        if (isInFirstRegion(normalizedState, params, derived)) {\n            // case I\n            if (normalizedState.redemptionLevel <= params.xuBar) return Region.CASE_i;\n\n            uint256 lhs = normalizedState.reserveValue.divDown(normalizedState.totalGyroSupply);\n            uint256 rhs = ONE -\n                uint256(params.alphaBar).mulDown(normalizedState.redemptionLevel - params.xuBar);\n            if (lhs <= rhs) return Region.CASE_I_ii;\n            return Region.CASE_I_iii;\n        }\n\n        if (isInSecondRegion(normalizedState, params.alphaBar, derived)) {\n            // case II\n            if (isInSecondRegionHigh(normalizedState, params.alphaBar, derived)) {\n                // case II_h\n                if (\n                    normalizedState.totalGyroSupply - normalizedState.reserveValue <=\n                    (normalizedState.totalGyroSupply.squareDown() * params.alphaBar) / TWO\n                ) return Region.CASE_i;\n                return Region.CASE_II_H;\n            }\n\n            uint256 theta = ONE - params.thetaBar;\n            if (\n                normalizedState.reserveValue -\n                    uint256(params.thetaBar).mulDown(normalizedState.totalGyroSupply) >=\n                theta**2 / (2 * params.alphaBar)\n            ) return Region.CASE_i;\n            return Region.CASE_II_L;\n        }\n\n        if (isInThirdRegionHigh(normalizedState, derived)) {\n            return Region.CASE_III_H;\n        }\n\n        return Region.CASE_III_L;\n    }\n\n    struct NextReserveValueVars {\n        uint256 ya;\n        uint256 r;\n        Region region;\n        uint256 u;\n        uint256 theta;\n    }\n\n    function computeAnchoredReserveValue(\n        State memory normalizedState,\n        Params memory params,\n        DerivedParams memory derived\n    ) internal pure returns (uint256) {\n        NextReserveValueVars memory vars;\n\n        Region region = computeReserveValueRegion(normalizedState, params, derived);\n\n        vars.ya = ONE;\n        vars.r = normalizedState.reserveValue.divDown(normalizedState.totalGyroSupply);\n        vars.u = ONE - vars.r;\n        vars.theta = ONE - params.thetaBar;\n\n        if (region == Region.CASE_i) {\n            return normalizedState.reserveValue + normalizedState.redemptionLevel;\n        }\n\n        if (region == Region.CASE_I_ii) {\n            uint256 xDiff = normalizedState.redemptionLevel - params.xuBar;\n            return (normalizedState.reserveValue +\n                normalizedState.redemptionLevel -\n                (params.alphaBar * xDiff.squareDown()) /\n                TWO);\n        }\n\n        if (region == Region.CASE_I_iii)\n            return\n                vars.ya -\n                (vars.ya - params.xuBar).mulDown(vars.u) +\n                (vars.u**2 / (2 * params.alphaBar));\n\n        if (region == Region.CASE_II_H) {\n            uint256 delta = (params.alphaBar *\n                (vars.u.divDown(params.alphaBar) + (normalizedState.totalGyroSupply / 2))\n                    .squareDown()) / TWO;\n            return vars.ya - delta;\n        }\n\n        if (region == Region.CASE_II_L) {\n            uint256 p = vars.theta.mulDown(\n                vars.theta.divDown(2 * params.alphaBar) + normalizedState.totalGyroSupply\n            );\n            uint256 d = 2 *\n                (vars.theta**2 / params.alphaBar).mulDown(\n                    normalizedState.reserveValue -\n                        normalizedState.totalGyroSupply.mulDown(params.thetaBar)\n                );\n            return vars.ya + d.sqrt() - p;\n        }\n\n        if (region == Region.CASE_III_H) {\n            uint256 delta = (normalizedState.totalGyroSupply - normalizedState.reserveValue)\n                .divDown((ONE - normalizedState.redemptionLevel.squareDown()));\n            return vars.ya - delta;\n        }\n\n        if (region == Region.CASE_III_L) {\n            uint256 p = (normalizedState.totalGyroSupply -\n                normalizedState.reserveValue +\n                vars.theta) / 2;\n            uint256 q = (normalizedState.totalGyroSupply - normalizedState.reserveValue).mulDown(\n                vars.theta\n            ) + vars.theta.squareDown().mulDown(normalizedState.redemptionLevel.squareDown()) / 4;\n            uint256 delta = p - (p.squareDown() - q).sqrt();\n            return vars.ya - delta;\n        }\n\n        revert(\"unknown region\");\n    }\n\n    function computeRedeemAmount(\n        State memory state,\n        Params memory params,\n        DerivedParams memory derived,\n        uint256 amount\n    ) internal pure returns (uint256) {\n        State memory normalizedState;\n        uint256 ya = state.totalGyroSupply + state.redemptionLevel;\n\n        normalizedState.redemptionLevel = state.redemptionLevel.divDown(ya);\n        normalizedState.reserveValue = state.reserveValue.divDown(ya);\n        normalizedState.totalGyroSupply = state.totalGyroSupply.divDown(ya);\n\n        uint256 normalizedNav = normalizedState.reserveValue.divDown(\n            normalizedState.totalGyroSupply\n        );\n\n        if (normalizedNav >= ONE) {\n            return amount;\n        }\n\n        if (normalizedNav <= params.thetaBar) {\n            uint256 nav = state.reserveValue.divDown(state.totalGyroSupply);\n            return nav.mulDown(amount);\n        }\n\n        uint256 normalizedAnchoredReserveValue = computeAnchoredReserveValue(\n            normalizedState,\n            params,\n            derived\n        );\n        uint256 anchoredReserveValue = normalizedAnchoredReserveValue.mulDown(ya);\n\n        uint256 nextReserveValue = computeReserve(\n            state.redemptionLevel + amount,\n            anchoredReserveValue,\n            ya,\n            params\n        );\n        // we are redeeming so the next reserve value must be smaller than the current one\n        return state.reserveValue - nextReserveValue;\n    }\n\n    /// @notice Returns the USD value to mint given an ammount of Gyro dollars\n    function computeMintAmount(uint256 usdAmount, uint256) external pure returns (uint256) {\n        return usdAmount;\n    }\n\n    /// @notice Records and returns the USD value to mint given an ammount of Gyro dollars\n    function mint(uint256 usdAmount, uint256) external view onlyMotherboard returns (uint256) {\n        return usdAmount;\n    }\n\n    /// @notice Computes the USD value to redeem given an ammount of Gyro dollars\n    function computeRedeemAmount(uint256 gydAmount, uint256 reserveUSDValue)\n        external\n        view\n        returns (uint256)\n    {\n        if (gydAmount == 0) return 0;\n        Params memory params = systemParams;\n        DerivedParams memory derived = createDerivedParams(params);\n        State memory currentState = computeStartingRedeemState(reserveUSDValue, params);\n        return computeRedeemAmount(currentState, params, derived, gydAmount);\n    }\n\n    function computeStartingRedeemState(uint256 reserveUSDValue, Params memory params)\n        internal\n        view\n        returns (State memory currentState)\n    {\n        return\n            State({\n                reserveValue: reserveUSDValue,\n                redemptionLevel: Flow.updateFlow(\n                    redemptionLevel,\n                    block.number,\n                    lastRedemptionBlock,\n                    params.outflowMemory\n                ),\n                totalGyroSupply: _getGyroSupply()\n            });\n    }\n\n    /// @notice Computes and records the USD value to redeem given an ammount of Gyro dollars\n    // NB reserveValue does not need to be stored as part of state - could be passed around\n    function redeem(uint256 gydAmount, uint256 reserveUSDValue)\n        public\n        onlyMotherboard\n        returns (uint256)\n    {\n        if (gydAmount == 0) return 0;\n        Params memory params = systemParams;\n        State memory currentState = computeStartingRedeemState(reserveUSDValue, params);\n        DerivedParams memory derived = createDerivedParams(params);\n        uint256 redeemAmount = computeRedeemAmount(currentState, params, derived, gydAmount);\n\n        redemptionLevel = currentState.redemptionLevel + gydAmount;\n        lastRedemptionBlock = block.number;\n\n        return redeemAmount;\n    }\n\n    function _getGyroSupply() internal view virtual returns (uint256) {\n        return gyroConfig.getGYDToken().totalSupply();\n    }\n}\n","sourcePath":"contracts/PrimaryAMMV1.sol","type":"contract","deployment":{"address":"0x5365d8A5B849801f4a7aAAf09F9bB46221400Ba3","chainid":"137","blockHeight":36343742}}