{"abi":[{"inputs":[{"internalType":"uint256","name":"_maxAllowedVaultDeviation","type":"uint256"},{"internalType":"uint256","name":"_stablecoinMaxDeviation","type":"uint256"},{"internalType":"uint256","name":"_minTokenPrice","type":"uint256"},{"internalType":"contract IAssetRegistry","name":"_assetRegistry","type":"address"}],"stateMutability":"nonpayable","type":"constructor","name":"constructor"},{"anonymous":false,"inputs":[{"indexed":false,"internalType":"address","name":"oldGovernor","type":"address"},{"indexed":false,"internalType":"address","name":"newGovernor","type":"address"}],"name":"GovernorChanged","type":"event"},{"inputs":[],"name":"STABLECOIN_IDEAL_PRICE","outputs":[{"internalType":"uint256","name":"","type":"uint256"}],"stateMutability":"view","type":"function"},{"inputs":[{"internalType":"address","name":"newGovernor","type":"address"}],"name":"changeGovernor","outputs":[],"stateMutability":"nonpayable","type":"function"},{"inputs":[{"components":[{"components":[{"components":[{"internalType":"address","name":"vault","type":"address"},{"internalType":"uint8","name":"decimals","type":"uint8"},{"internalType":"uint256","name":"price","type":"uint256"},{"components":[{"internalType":"uint256","name":"initialPrice","type":"uint256"},{"internalType":"uint256","name":"initialWeight","type":"uint256"},{"internalType":"uint256","name":"shortFlowMemory","type":"uint256"},{"internalType":"uint256","name":"shortFlowThreshold","type":"uint256"}],"internalType":"struct DataTypes.PersistedVaultMetadata","name":"persistedMetadata","type":"tuple"},{"internalType":"uint256","name":"reserveBalance","type":"uint256"},{"internalType":"uint256","name":"currentWeight","type":"uint256"},{"internalType":"uint256","name":"idealWeight","type":"uint256"},{"components":[{"internalType":"address","name":"tokenAddress","type":"address"},{"internalType":"uint256","name":"price","type":"uint256"}],"internalType":"struct DataTypes.PricedToken[]","name":"pricedTokens","type":"tuple[]"}],"internalType":"struct DataTypes.VaultInfo","name":"vaultInfo","type":"tuple"},{"internalType":"uint256","name":"amount","type":"uint256"}],"internalType":"struct DataTypes.VaultWithAmount[]","name":"vaultsWithAmount","type":"tuple[]"},{"internalType":"bool","name":"mint","type":"bool"}],"internalType":"struct DataTypes.Order","name":"order","type":"tuple"}],"name":"checkAndPersistMint","outputs":[{"internalType":"string","name":"","type":"string"}],"stateMutability":"view","type":"function"},{"inputs":[{"components":[{"components":[{"components":[{"internalType":"address","name":"vault","type":"address"},{"internalType":"uint8","name":"decimals","type":"uint8"},{"internalType":"uint256","name":"price","type":"uint256"},{"components":[{"internalType":"uint256","name":"initialPrice","type":"uint256"},{"internalType":"uint256","name":"initialWeight","type":"uint256"},{"internalType":"uint256","name":"shortFlowMemory","type":"uint256"},{"internalType":"uint256","name":"shortFlowThreshold","type":"uint256"}],"internalType":"struct DataTypes.PersistedVaultMetadata","name":"persistedMetadata","type":"tuple"},{"internalType":"uint256","name":"reserveBalance","type":"uint256"},{"internalType":"uint256","name":"currentWeight","type":"uint256"},{"internalType":"uint256","name":"idealWeight","type":"uint256"},{"components":[{"internalType":"address","name":"tokenAddress","type":"address"},{"internalType":"uint256","name":"price","type":"uint256"}],"internalType":"struct DataTypes.PricedToken[]","name":"pricedTokens","type":"tuple[]"}],"internalType":"struct DataTypes.VaultInfo","name":"vaultInfo","type":"tuple"},{"internalType":"uint256","name":"amount","type":"uint256"}],"internalType":"struct DataTypes.VaultWithAmount[]","name":"vaultsWithAmount","type":"tuple[]"},{"internalType":"bool","name":"mint","type":"bool"}],"internalType":"struct DataTypes.Order","name":"order","type":"tuple"}],"name":"checkAndPersistRedeem","outputs":[{"internalType":"string","name":"","type":"string"}],"stateMutability":"view","type":"function"},{"inputs":[],"name":"governor","outputs":[{"internalType":"address","name":"","type":"address"}],"stateMutability":"view","type":"function"},{"inputs":[{"components":[{"components":[{"components":[{"internalType":"address","name":"vault","type":"address"},{"internalType":"uint8","name":"decimals","type":"uint8"},{"internalType":"uint256","name":"price","type":"uint256"},{"components":[{"internalType":"uint256","name":"initialPrice","type":"uint256"},{"internalType":"uint256","name":"initialWeight","type":"uint256"},{"internalType":"uint256","name":"shortFlowMemory","type":"uint256"},{"internalType":"uint256","name":"shortFlowThreshold","type":"uint256"}],"internalType":"struct DataTypes.PersistedVaultMetadata","name":"persistedMetadata","type":"tuple"},{"internalType":"uint256","name":"reserveBalance","type":"uint256"},{"internalType":"uint256","name":"currentWeight","type":"uint256"},{"internalType":"uint256","name":"idealWeight","type":"uint256"},{"components":[{"internalType":"address","name":"tokenAddress","type":"address"},{"internalType":"uint256","name":"price","type":"uint256"}],"internalType":"struct DataTypes.PricedToken[]","name":"pricedTokens","type":"tuple[]"}],"internalType":"struct DataTypes.VaultInfo","name":"vaultInfo","type":"tuple"},{"internalType":"uint256","name":"amount","type":"uint256"}],"internalType":"struct DataTypes.VaultWithAmount[]","name":"vaultsWithAmount","type":"tuple[]"},{"internalType":"bool","name":"mint","type":"bool"}],"internalType":"struct DataTypes.Order","name":"order","type":"tuple"}],"name":"isMintSafe","outputs":[{"internalType":"string","name":"","type":"string"}],"stateMutability":"view","type":"function"},{"inputs":[{"components":[{"components":[{"components":[{"internalType":"address","name":"vault","type":"address"},{"internalType":"uint8","name":"decimals","type":"uint8"},{"internalType":"uint256","name":"price","type":"uint256"},{"components":[{"internalType":"uint256","name":"initialPrice","type":"uint256"},{"internalType":"uint256","name":"initialWeight","type":"uint256"},{"internalType":"uint256","name":"shortFlowMemory","type":"uint256"},{"internalType":"uint256","name":"shortFlowThreshold","type":"uint256"}],"internalType":"struct DataTypes.PersistedVaultMetadata","name":"persistedMetadata","type":"tuple"},{"internalType":"uint256","name":"reserveBalance","type":"uint256"},{"internalType":"uint256","name":"currentWeight","type":"uint256"},{"internalType":"uint256","name":"idealWeight","type":"uint256"},{"components":[{"internalType":"address","name":"tokenAddress","type":"address"},{"internalType":"uint256","name":"price","type":"uint256"}],"internalType":"struct DataTypes.PricedToken[]","name":"pricedTokens","type":"tuple[]"}],"internalType":"struct DataTypes.VaultInfo","name":"vaultInfo","type":"tuple"},{"internalType":"uint256","name":"amount","type":"uint256"}],"internalType":"struct DataTypes.VaultWithAmount[]","name":"vaultsWithAmount","type":"tuple[]"},{"internalType":"bool","name":"mint","type":"bool"}],"internalType":"struct DataTypes.Order","name":"order","type":"tuple"}],"name":"isRedeemSafe","outputs":[{"internalType":"string","name":"","type":"string"}],"stateMutability":"view","type":"function"},{"inputs":[],"name":"maxAllowedVaultDeviation","outputs":[{"internalType":"uint256","name":"","type":"uint256"}],"stateMutability":"view","type":"function"},{"inputs":[],"name":"minTokenPrice","outputs":[{"internalType":"uint256","name":"","type":"uint256"}],"stateMutability":"view","type":"function"},{"inputs":[{"internalType":"uint256","name":"_minTokenPrice","type":"uint256"}],"name":"setMinTokenPrice","outputs":[],"stateMutability":"nonpayable","type":"function"},{"inputs":[{"internalType":"uint256","name":"_stablecoinMaxDeviation","type":"uint256"}],"name":"setStablecoinMaxDeviation","outputs":[],"stateMutability":"nonpayable","type":"function"},{"inputs":[{"internalType":"uint256","name":"_maxAllowedVaultDeviation","type":"uint256"}],"name":"setVaultMaxDeviation","outputs":[],"stateMutability":"nonpayable","type":"function"},{"inputs":[],"name":"stablecoinMaxDeviation","outputs":[{"internalType":"uint256","name":"","type":"uint256"}],"stateMutability":"view","type":"function"}],"bytecode":"608060405234801561001057600080fd5b5060405161168d38038061168d83398101604081905261002f916100b0565b600080546001600160a01b0319163390811782556040805192835260208301919091527fde4b3f61490b74c0ed6237523974fe299126bbbf8a8a7482fd220104c59b0c84910160405180910390a1600193909355600291909155600355600480546001600160a01b0319166001600160a01b039092169190911790556100ff565b600080600080608085870312156100c657600080fd5b845160208601516040870151606088015192965090945092506001600160a01b03811681146100f457600080fd5b939692955090935050565b61157f8061010e6000396000f3fe608060405234801561001057600080fd5b50600436106100cf5760003560e01c80638d404e981161008c578063c203c83111610066578063c203c831146101a5578063c4ea1209146101ae578063d0261544146101c1578063e4c0aaf4146101d457600080fd5b80638d404e981461016a578063bcbef6501461017d578063bd162bdd1461019257600080fd5b8063071231cf146100d45780630c340a24146100fd57806314df3dd81461012857806329c977711461013f5780635dabb20e14610152578063888ad1121461015b575b600080fd5b6100e76100e2366004611212565b6101e7565b6040516100f491906113ec565b60405180910390f35b600054610110906001600160a01b031681565b6040516001600160a01b0390911681526020016100f4565b61013160025481565b6040519081526020016100f4565b6100e761014d366004611212565b6102aa565b61013160035481565b610131670de0b6b3a764000081565b6100e7610178366004611212565b61036e565b61019061018b366004611441565b61037f565b005b6101906101a0366004611441565b6103d3565b61013160015481565b6100e76101bc366004611212565b61041e565b6101906101cf366004611441565b610429565b6101906101e236600461145a565b610474565b606060006101f48361051b565b90506101ff816109b4565b61020881610a33565b8060600151610231575050604080518082019091526002815261353560f01b6020820152919050565b6000816040015180610247575061024782610af6565b9050600082602001518061025f575061025f83610b6b565b905081801561026b5750805b156102885750506040805160208101909152600081529392505050565b50506040805180820190915260028152611a9960f11b60208201529392505050565b60606102b582610c12565b6102d75750506040805180820190915260028152611a9b60f11b602082015290565b60006102e28361051b565b90506102ed816109b4565b6102f681610a33565b806060015161031f575050604080518082019091526002815261353560f01b6020820152919050565b806020015180610333575061033381610b6b565b1561034e575050604080516020810190915260008152919050565b5050604080518082019091526002815261353360f01b6020820152919050565b6060610379826101e7565b92915050565b600054604080518082019091526002815261033360f41b6020820152906001600160a01b031633146103cd5760405162461bcd60e51b81526004016103c491906113ec565b60405180910390fd5b50600355565b600054604080518082019091526002815261033360f41b6020820152906001600160a01b031633146104185760405162461bcd60e51b81526004016103c491906113ec565b50600155565b6060610379826102aa565b600054604080518082019091526002815261033360f41b6020820152906001600160a01b0316331461046e5760405162461bcd60e51b81526004016103c491906113ec565b50600255565b600054604080518082019091526002815261033360f41b6020820152906001600160a01b031633146104b95760405162461bcd60e51b81526004016103c491906113ec565b50600080546001600160a01b038381166001600160a01b031983168117909355604080519190921680825260208201939093527fde4b3f61490b74c0ed6237523974fe299126bbbf8a8a7482fd220104c59b0c84910160405180910390a15050565b6040805160a081018252606080825260006020830181905292820183905281018290526080810191909152815160208301511515608083015282515167ffffffffffffffff81111561056f5761056f611015565b6040519080825280602002602001820160405280156105fe57816020015b6105eb60405180610120016040528060006001600160a01b0316815260200160008152602001600081526020016000815260200160008152602001600015158152602001600015158152602001600015158152602001606081525090565b81526020019060019003908161058d5790505b508252805160009067ffffffffffffffff81111561061e5761061e611015565b604051908082528060200260200182016040528015610647578160200160208202803683370190505b5090506000825167ffffffffffffffff81111561066657610666611015565b60405190808252806020026020018201604052801561068f578160200160208202803683370190505b50905060005b835181101561093c57856020015115610715578381815181106106ba576106ba611475565b6020026020010151602001518482815181106106d8576106d8611475565b602002602001015160000151608001516106f291906114a1565b83828151811061070457610704611475565b60200260200101818152505061077e565b83818151811061072757610727611475565b60200260200101516020015184828151811061074557610745611475565b6020026020010151600001516080015161075f91906114b9565b83828151811061077157610771611475565b6020026020010181815250505b83818151811061079057610790611475565b6020908102919091010151515185518051839081106107b1576107b1611475565b60209081029190910101516001600160a01b03909116905283518490829081106107dd576107dd611475565b60200260200101516000015160c001518560000151828151811061080357610803611475565b6020026020010151602001818152505083818151811061082557610825611475565b60200260200101516000015160a001518560000151828151811061084b5761084b611475565b6020026020010151604001818152505083818151811061086d5761086d611475565b602002602001015160000151604001518560000151828151811061089357610893611475565b602002602001015160800181815250508381815181106108b5576108b5611475565b60200260200101516000015160e00151856000015182815181106108db576108db611475565b602002602001015161010001819052508381815181106108fd576108fd611475565b6020026020010151600001516040015182828151811061091f5761091f611475565b602090810291909101015280610934816114d0565b915050610695565b5060006109498383610c87565b50905060005b8651518110156109aa5781818151811061096b5761096b611475565b60200260200101518660000151828151811061098957610989611475565b602090810291909101015160600152806109a2816114d0565b91505061094f565b5050505050919050565b600160408201819052606082015260005b815151811015610a2f576000826000015182815181106109e7576109e7611475565b602002602001015190506109fa81610dda565b8060a00151610a0b57600060408401525b8060c00151610a1c57600060608401525b5080610a27816114d0565b9150506109c5565b5050565b6001602082015260005b815151811015610a2f57600082600001518281518110610a5f57610a5f611475565b602002602001015190506000610a846001548360200151610f1390919063ffffffff16565b9050600081610aa484606001518560200151610f6290919063ffffffff16565b111590508085600001518581518110610abf57610abf611475565b602090810291909101015190151560e09091015280610ae057600060208601525b5050508080610aee906114d0565b915050610a3d565b6000805b825151811015610b6257600083600001518281518110610b1c57610b1c611475565b602002602001015190508060a00151158015610b4057508060400151816060015110155b15610b4f575060009392505050565b5080610b5a816114d0565b915050610afa565b50600192915050565b6000805b825151811015610b6257600083600001518281518110610b9157610b91611475565b602002602001015190508060e0015115610bab5750610c00565b6000610bc882602001518360600151610f6290919063ffffffff16565b90506000610be783602001518460400151610f6290919063ffffffff16565b9050808210610bfc5750600095945050505050565b5050505b80610c0a816114d0565b915050610b6f565b6000805b825151811015610b62578251805182908110610c3457610c34611475565b60200260200101516020015183600001518281518110610c5657610c56611475565b602002602001015160000151608001511015610c755750600092915050565b80610c7f816114d0565b915050610c16565b6060600080835167ffffffffffffffff811115610ca657610ca6611015565b604051908082528060200260200182016040528015610ccf578160200160208202803683370190505b5090506000805b8651811015610d48576000610d26878381518110610cf657610cf6611475565b6020026020010151898481518110610d1057610d10611475565b6020026020010151610f8c90919063ffffffff16565b9050610d3281846114a1565b9250508080610d40906114d0565b915050610cd6565b5080610d58579092509050610dd3565b60005b8651811015610dcc57610d9d82610d97888481518110610d7d57610d7d611475565b60200260200101518a8581518110610d1057610d10611475565b90610fad565b838281518110610daf57610daf611475565b602090810291909101015280610dc4816114d0565b915050610d5b565b5090925090505b9250929050565b600160a0820152600060c082018190525b81610100015151811015610a2f5760008261010001518281518110610e1257610e12611475565b602002602001015160000151905060008361010001518381518110610e3957610e39611475565b60209081029190910181015101516004805460405163092ed8b160e31b81526001600160a01b03868116938201939093529293501690634976c58890602401602060405180830381865afa158015610e95573d6000803e3d6000fd5b505050506040513d601f19601f82011682018060405250810190610eb991906114eb565b15610eed57600160c0850152600254610eda82670de0b6b3a7640000610f62565b1115610ee857600060a08501525b610efe565b6003548110610efe57600160c08501525b50508080610f0b906114d0565b915050610deb565b600080610f208385611508565b905080610f31576000915050610379565b670de0b6b3a7640000610f456001836114b9565b610f4f9190611527565b610f5a9060016114a1565b949350505050565b600081831015610f7b57610f7683836114b9565b610f85565b610f8582846114b9565b9392505050565b600080610f998385611508565b9050610f5a670de0b6b3a764000082611527565b604080518082019091526002815261323560f01b602082015260009082610fe75760405162461bcd60e51b81526004016103c491906113ec565b5082610ff557506000610379565b6000611009670de0b6b3a764000085611508565b9050610f5a8382611527565b634e487b7160e01b600052604160045260246000fd5b6040805190810167ffffffffffffffff8111828210171561104e5761104e611015565b60405290565b604051610100810167ffffffffffffffff8111828210171561104e5761104e611015565b604051601f8201601f1916810167ffffffffffffffff811182821017156110a1576110a1611015565b604052919050565b600067ffffffffffffffff8211156110c3576110c3611015565b5060051b60200190565b80356001600160a01b03811681146110e457600080fd5b919050565b803560ff811681146110e457600080fd5b60006080828403121561110c57600080fd5b6040516080810181811067ffffffffffffffff8211171561112f5761112f611015565b8060405250809150823581526020830135602082015260408301356040820152606083013560608201525092915050565b600082601f83011261117157600080fd5b81356020611186611181836110a9565b611078565b82815260069290921b840181019181810190868411156111a557600080fd5b8286015b848110156111eb57604081890312156111c25760008081fd5b6111ca61102b565b6111d3826110cd565b815281850135858201528352918301916040016111a9565b509695505050505050565b801515811461120457600080fd5b50565b80356110e4816111f6565b60006020828403121561122457600080fd5b67ffffffffffffffff808335111561123b57600080fd5b6040833584018503121561124e57600080fd5b61125661102b565b818435850135111561126757600080fd5b83358401803501601f8101861361127d57600080fd5b61128a61118182356110a9565b81358082526020808301929160051b8401018810156112a857600080fd5b602083015b6020843560051b8501018110156113ca5785813511156112cc57600080fd5b80358401601f196040828c03820112156112e557600080fd5b6112ed61102b565b88602084013511156112fe57600080fd5b6020830135830161016083828f0301121561131857600080fd5b611320611054565b925061132e602082016110cd565b835261133c604082016110e9565b6020840152606081013560408401526113588d608083016110fa565b6060840152610100810135608084015261012081013560a084015261014081013560c084015289610160820135111561139057600080fd5b6113a48d6020610160840135840101611160565b60e0840152509081526040919091013560208083019190915290845292830192016112ad565b508352506113df905084358501602001611207565b6020820152949350505050565b600060208083528351808285015260005b81811015611419578581018301518582016040015282016113fd565b8181111561142b576000604083870101525b50601f01601f1916929092016040019392505050565b60006020828403121561145357600080fd5b5035919050565b60006020828403121561146c57600080fd5b610f85826110cd565b634e487b7160e01b600052603260045260246000fd5b634e487b7160e01b600052601160045260246000fd5b600082198211156114b4576114b461148b565b500190565b6000828210156114cb576114cb61148b565b500390565b60006000198214156114e4576114e461148b565b5060010190565b6000602082840312156114fd57600080fd5b8151610f85816111f6565b60008160001904831182151516156115225761152261148b565b500290565b60008261154457634e487b7160e01b600052601260045260246000fd5b50049056fea26469706673582212206ba3b87b2653ac385317a92f41ad40db053c9b169d59c17f0e104e85d0e7c76664736f6c634300080a0033","bytecodeSha1":"8e331b22645dba1ddf7173c61838f93d9ca36605","compiler":{"evm_version":"istanbul","optimizer":{"enabled":true,"runs":200},"version":"0.8.10+commit.fc410830"},"contractName":"ReserveSafetyManager","language":"Solidity","natspec":{"kind":"dev","methods":{"STABLECOIN_IDEAL_PRICE()":{"notice":"a stablecoin should be equal to 1 USD"},"changeGovernor(address)":{"notice":"Changes the governor can only be called by the current governor"},"checkAndPersistMint((((address,uint8,uint256,(uint256,uint256,uint256,uint256),uint256,uint256,uint256,(address,uint256)[]),uint256)[],bool))":{"notice":"Checks whether a mint operation is safe This is only called when an actual mint is performed The implementation should store any relevant information for the mint","returns":{"_0":"empty string if it is safe, otherwise the reason why it is not safe"}},"checkAndPersistRedeem((((address,uint8,uint256,(uint256,uint256,uint256,uint256),uint256,uint256,uint256,(address,uint256)[]),uint256)[],bool))":{"notice":"Checks whether a redeem operation is safe This is only called when an actual redeem is performed The implementation should store any relevant information for the redeem","returns":{"_0":"empty string if it is safe, otherwise the reason why it is not safe"}},"governor()":{"notice":"Returns the current governor"},"isMintSafe((((address,uint8,uint256,(uint256,uint256,uint256,uint256),uint256,uint256,uint256,(address,uint256)[]),uint256)[],bool))":{"notice":"Checks whether a mint operation is safe","returns":{"_0":"empty string if it is safe, otherwise the reason why it is not safe"}},"isRedeemSafe((((address,uint8,uint256,(uint256,uint256,uint256,uint256),uint256,uint256,uint256,(address,uint256)[]),uint256)[],bool))":{"notice":"Checks whether a redeem operation is safe","returns":{"_0":"empty string if it is safe, otherwise the reason why it is not safe"}}},"version":1},"opcodes":"PUSH1 0x80 PUSH1 0x40 MSTORE CALLVALUE DUP1 ISZERO PUSH2 0x10 JUMPI PUSH1 0x0 DUP1 REVERT JUMPDEST POP PUSH1 0x4 CALLDATASIZE LT PUSH2 0xCF JUMPI PUSH1 0x0 CALLDATALOAD PUSH1 0xE0 SHR DUP1 PUSH4 0x8D404E98 GT PUSH2 0x8C JUMPI DUP1 PUSH4 0xC203C831 GT PUSH2 0x66 JUMPI DUP1 PUSH4 0xC203C831 EQ PUSH2 0x1A5 JUMPI DUP1 PUSH4 0xC4EA1209 EQ PUSH2 0x1AE JUMPI DUP1 PUSH4 0xD0261544 EQ PUSH2 0x1C1 JUMPI DUP1 PUSH4 0xE4C0AAF4 EQ PUSH2 0x1D4 JUMPI PUSH1 0x0 DUP1 REVERT JUMPDEST DUP1 PUSH4 0x8D404E98 EQ PUSH2 0x16A JUMPI DUP1 PUSH4 0xBCBEF650 EQ PUSH2 0x17D JUMPI DUP1 PUSH4 0xBD162BDD EQ PUSH2 0x192 JUMPI PUSH1 0x0 DUP1 REVERT JUMPDEST DUP1 PUSH4 0x71231CF EQ PUSH2 0xD4 JUMPI DUP1 PUSH4 0xC340A24 EQ PUSH2 0xFD JUMPI DUP1 PUSH4 0x14DF3DD8 EQ PUSH2 0x128 JUMPI DUP1 PUSH4 0x29C97771 EQ PUSH2 0x13F JUMPI DUP1 PUSH4 0x5DABB20E EQ PUSH2 0x152 JUMPI DUP1 PUSH4 0x888AD112 EQ PUSH2 0x15B JUMPI JUMPDEST PUSH1 0x0 DUP1 REVERT JUMPDEST PUSH2 0xE7 PUSH2 0xE2 CALLDATASIZE PUSH1 0x4 PUSH2 0x1212 JUMP JUMPDEST PUSH2 0x1E7 JUMP JUMPDEST PUSH1 0x40 MLOAD PUSH2 0xF4 SWAP2 SWAP1 PUSH2 0x13EC JUMP JUMPDEST PUSH1 0x40 MLOAD DUP1 SWAP2 SUB SWAP1 RETURN JUMPDEST PUSH1 0x0 SLOAD PUSH2 0x110 SWAP1 PUSH1 0x1 PUSH1 0x1 PUSH1 0xA0 SHL SUB AND DUP2 JUMP JUMPDEST PUSH1 0x40 MLOAD PUSH1 0x1 PUSH1 0x1 PUSH1 0xA0 SHL SUB SWAP1 SWAP2 AND DUP2 MSTORE PUSH1 0x20 ADD PUSH2 0xF4 JUMP JUMPDEST PUSH2 0x131 PUSH1 0x2 SLOAD DUP2 JUMP JUMPDEST PUSH1 0x40 MLOAD SWAP1 DUP2 MSTORE PUSH1 0x20 ADD PUSH2 0xF4 JUMP JUMPDEST PUSH2 0xE7 PUSH2 0x14D CALLDATASIZE PUSH1 0x4 PUSH2 0x1212 JUMP JUMPDEST PUSH2 0x2AA JUMP JUMPDEST PUSH2 0x131 PUSH1 0x3 SLOAD DUP2 JUMP JUMPDEST PUSH2 0x131 PUSH8 0xDE0B6B3A7640000 DUP2 JUMP JUMPDEST PUSH2 0xE7 PUSH2 0x178 CALLDATASIZE PUSH1 0x4 PUSH2 0x1212 JUMP JUMPDEST PUSH2 0x36E JUMP JUMPDEST PUSH2 0x190 PUSH2 0x18B CALLDATASIZE PUSH1 0x4 PUSH2 0x1441 JUMP JUMPDEST PUSH2 0x37F JUMP JUMPDEST STOP JUMPDEST PUSH2 0x190 PUSH2 0x1A0 CALLDATASIZE PUSH1 0x4 PUSH2 0x1441 JUMP JUMPDEST PUSH2 0x3D3 JUMP JUMPDEST PUSH2 0x131 PUSH1 0x1 SLOAD DUP2 JUMP JUMPDEST PUSH2 0xE7 PUSH2 0x1BC CALLDATASIZE PUSH1 0x4 PUSH2 0x1212 JUMP JUMPDEST PUSH2 0x41E JUMP JUMPDEST PUSH2 0x190 PUSH2 0x1CF CALLDATASIZE PUSH1 0x4 PUSH2 0x1441 JUMP JUMPDEST PUSH2 0x429 JUMP JUMPDEST PUSH2 0x190 PUSH2 0x1E2 CALLDATASIZE PUSH1 0x4 PUSH2 0x145A JUMP JUMPDEST PUSH2 0x474 JUMP JUMPDEST PUSH1 0x60 PUSH1 0x0 PUSH2 0x1F4 DUP4 PUSH2 0x51B JUMP JUMPDEST SWAP1 POP PUSH2 0x1FF DUP2 PUSH2 0x9B4 JUMP JUMPDEST PUSH2 0x208 DUP2 PUSH2 0xA33 JUMP JUMPDEST DUP1 PUSH1 0x60 ADD MLOAD PUSH2 0x231 JUMPI POP POP PUSH1 0x40 DUP1 MLOAD DUP1 DUP3 ADD SWAP1 SWAP2 MSTORE PUSH1 0x2 DUP2 MSTORE PUSH2 0x3535 PUSH1 0xF0 SHL PUSH1 0x20 DUP3 ADD MSTORE SWAP2 SWAP1 POP JUMP JUMPDEST PUSH1 0x0 DUP2 PUSH1 0x40 ADD MLOAD DUP1 PUSH2 0x247 JUMPI POP PUSH2 0x247 DUP3 PUSH2 0xAF6 JUMP JUMPDEST SWAP1 POP PUSH1 0x0 DUP3 PUSH1 0x20 ADD MLOAD DUP1 PUSH2 0x25F JUMPI POP PUSH2 0x25F DUP4 PUSH2 0xB6B JUMP JUMPDEST SWAP1 POP DUP2 DUP1 ISZERO PUSH2 0x26B JUMPI POP DUP1 JUMPDEST ISZERO PUSH2 0x288 JUMPI POP POP PUSH1 0x40 DUP1 MLOAD PUSH1 0x20 DUP2 ADD SWAP1 SWAP2 MSTORE PUSH1 0x0 DUP2 MSTORE SWAP4 SWAP3 POP POP POP JUMP JUMPDEST POP POP PUSH1 0x40 DUP1 MLOAD DUP1 DUP3 ADD SWAP1 SWAP2 MSTORE PUSH1 0x2 DUP2 MSTORE PUSH2 0x1A99 PUSH1 0xF1 SHL PUSH1 0x20 DUP3 ADD MSTORE SWAP4 SWAP3 POP POP POP JUMP JUMPDEST PUSH1 0x60 PUSH2 0x2B5 DUP3 PUSH2 0xC12 JUMP JUMPDEST PUSH2 0x2D7 JUMPI POP POP PUSH1 0x40 DUP1 MLOAD DUP1 DUP3 ADD SWAP1 SWAP2 MSTORE PUSH1 0x2 DUP2 MSTORE PUSH2 0x1A9B PUSH1 0xF1 SHL PUSH1 0x20 DUP3 ADD MSTORE SWAP1 JUMP JUMPDEST PUSH1 0x0 PUSH2 0x2E2 DUP4 PUSH2 0x51B JUMP JUMPDEST SWAP1 POP PUSH2 0x2ED DUP2 PUSH2 0x9B4 JUMP JUMPDEST PUSH2 0x2F6 DUP2 PUSH2 0xA33 JUMP JUMPDEST DUP1 PUSH1 0x60 ADD MLOAD PUSH2 0x31F JUMPI POP POP PUSH1 0x40 DUP1 MLOAD DUP1 DUP3 ADD SWAP1 SWAP2 MSTORE PUSH1 0x2 DUP2 MSTORE PUSH2 0x3535 PUSH1 0xF0 SHL PUSH1 0x20 DUP3 ADD MSTORE SWAP2 SWAP1 POP JUMP JUMPDEST DUP1 PUSH1 0x20 ADD MLOAD DUP1 PUSH2 0x333 JUMPI POP PUSH2 0x333 DUP2 PUSH2 0xB6B JUMP JUMPDEST ISZERO PUSH2 0x34E JUMPI POP POP PUSH1 0x40 DUP1 MLOAD PUSH1 0x20 DUP2 ADD SWAP1 SWAP2 MSTORE PUSH1 0x0 DUP2 MSTORE SWAP2 SWAP1 POP JUMP JUMPDEST POP POP PUSH1 0x40 DUP1 MLOAD DUP1 DUP3 ADD SWAP1 SWAP2 MSTORE PUSH1 0x2 DUP2 MSTORE PUSH2 0x3533 PUSH1 0xF0 SHL PUSH1 0x20 DUP3 ADD MSTORE SWAP2 SWAP1 POP JUMP JUMPDEST PUSH1 0x60 PUSH2 0x379 DUP3 PUSH2 0x1E7 JUMP JUMPDEST SWAP3 SWAP2 POP POP JUMP JUMPDEST PUSH1 0x0 SLOAD PUSH1 0x40 DUP1 MLOAD DUP1 DUP3 ADD SWAP1 SWAP2 MSTORE PUSH1 0x2 DUP2 MSTORE PUSH2 0x333 PUSH1 0xF4 SHL PUSH1 0x20 DUP3 ADD MSTORE SWAP1 PUSH1 0x1 PUSH1 0x1 PUSH1 0xA0 SHL SUB AND CALLER EQ PUSH2 0x3CD JUMPI PUSH1 0x40 MLOAD PUSH3 0x461BCD PUSH1 0xE5 SHL DUP2 MSTORE PUSH1 0x4 ADD PUSH2 0x3C4 SWAP2 SWAP1 PUSH2 0x13EC JUMP JUMPDEST PUSH1 0x40 MLOAD DUP1 SWAP2 SUB SWAP1 REVERT JUMPDEST POP PUSH1 0x3 SSTORE JUMP JUMPDEST PUSH1 0x0 SLOAD PUSH1 0x40 DUP1 MLOAD DUP1 DUP3 ADD SWAP1 SWAP2 MSTORE PUSH1 0x2 DUP2 MSTORE PUSH2 0x333 PUSH1 0xF4 SHL PUSH1 0x20 DUP3 ADD MSTORE SWAP1 PUSH1 0x1 PUSH1 0x1 PUSH1 0xA0 SHL SUB AND CALLER EQ PUSH2 0x418 JUMPI PUSH1 0x40 MLOAD PUSH3 0x461BCD PUSH1 0xE5 SHL DUP2 MSTORE PUSH1 0x4 ADD PUSH2 0x3C4 SWAP2 SWAP1 PUSH2 0x13EC JUMP JUMPDEST POP PUSH1 0x1 SSTORE JUMP JUMPDEST PUSH1 0x60 PUSH2 0x379 DUP3 PUSH2 0x2AA JUMP JUMPDEST PUSH1 0x0 SLOAD PUSH1 0x40 DUP1 MLOAD DUP1 DUP3 ADD SWAP1 SWAP2 MSTORE PUSH1 0x2 DUP2 MSTORE PUSH2 0x333 PUSH1 0xF4 SHL PUSH1 0x20 DUP3 ADD MSTORE SWAP1 PUSH1 0x1 PUSH1 0x1 PUSH1 0xA0 SHL SUB AND CALLER EQ PUSH2 0x46E JUMPI PUSH1 0x40 MLOAD PUSH3 0x461BCD PUSH1 0xE5 SHL DUP2 MSTORE PUSH1 0x4 ADD PUSH2 0x3C4 SWAP2 SWAP1 PUSH2 0x13EC JUMP JUMPDEST POP PUSH1 0x2 SSTORE JUMP JUMPDEST PUSH1 0x0 SLOAD PUSH1 0x40 DUP1 MLOAD DUP1 DUP3 ADD SWAP1 SWAP2 MSTORE PUSH1 0x2 DUP2 MSTORE PUSH2 0x333 PUSH1 0xF4 SHL PUSH1 0x20 DUP3 ADD MSTORE SWAP1 PUSH1 0x1 PUSH1 0x1 PUSH1 0xA0 SHL SUB AND CALLER EQ PUSH2 0x4B9 JUMPI PUSH1 0x40 MLOAD PUSH3 0x461BCD PUSH1 0xE5 SHL DUP2 MSTORE PUSH1 0x4 ADD PUSH2 0x3C4 SWAP2 SWAP1 PUSH2 0x13EC JUMP JUMPDEST POP PUSH1 0x0 DUP1 SLOAD PUSH1 0x1 PUSH1 0x1 PUSH1 0xA0 SHL SUB DUP4 DUP2 AND PUSH1 0x1 PUSH1 0x1 PUSH1 0xA0 SHL SUB NOT DUP4 AND DUP2 OR SWAP1 SWAP4 SSTORE PUSH1 0x40 DUP1 MLOAD SWAP2 SWAP1 SWAP3 AND DUP1 DUP3 MSTORE PUSH1 0x20 DUP3 ADD SWAP4 SWAP1 SWAP4 MSTORE PUSH32 0xDE4B3F61490B74C0ED6237523974FE299126BBBF8A8A7482FD220104C59B0C84 SWAP2 ADD PUSH1 0x40 MLOAD DUP1 SWAP2 SUB SWAP1 LOG1 POP POP JUMP JUMPDEST PUSH1 0x40 DUP1 MLOAD PUSH1 0xA0 DUP2 ADD DUP3 MSTORE PUSH1 0x60 DUP1 DUP3 MSTORE PUSH1 0x0 PUSH1 0x20 DUP4 ADD DUP2 SWAP1 MSTORE SWAP3 DUP3 ADD DUP4 SWAP1 MSTORE DUP2 ADD DUP3 SWAP1 MSTORE PUSH1 0x80 DUP2 ADD SWAP2 SWAP1 SWAP2 MSTORE DUP2 MLOAD PUSH1 0x20 DUP4 ADD MLOAD ISZERO ISZERO PUSH1 0x80 DUP4 ADD MSTORE DUP3 MLOAD MLOAD PUSH8 0xFFFFFFFFFFFFFFFF DUP2 GT ISZERO PUSH2 0x56F JUMPI PUSH2 0x56F PUSH2 0x1015 JUMP JUMPDEST PUSH1 0x40 MLOAD SWAP1 DUP1 DUP3 MSTORE DUP1 PUSH1 0x20 MUL PUSH1 0x20 ADD DUP3 ADD PUSH1 0x40 MSTORE DUP1 ISZERO PUSH2 0x5FE JUMPI DUP2 PUSH1 0x20 ADD JUMPDEST PUSH2 0x5EB PUSH1 0x40 MLOAD DUP1 PUSH2 0x120 ADD PUSH1 0x40 MSTORE DUP1 PUSH1 0x0 PUSH1 0x1 PUSH1 0x1 PUSH1 0xA0 SHL SUB AND DUP2 MSTORE PUSH1 0x20 ADD PUSH1 0x0 DUP2 MSTORE PUSH1 0x20 ADD PUSH1 0x0 DUP2 MSTORE PUSH1 0x20 ADD PUSH1 0x0 DUP2 MSTORE PUSH1 0x20 ADD PUSH1 0x0 DUP2 MSTORE PUSH1 0x20 ADD PUSH1 0x0 ISZERO ISZERO DUP2 MSTORE PUSH1 0x20 ADD PUSH1 0x0 ISZERO ISZERO DUP2 MSTORE PUSH1 0x20 ADD PUSH1 0x0 ISZERO ISZERO DUP2 MSTORE PUSH1 0x20 ADD PUSH1 0x60 DUP2 MSTORE POP SWAP1 JUMP JUMPDEST DUP2 MSTORE PUSH1 0x20 ADD SWAP1 PUSH1 0x1 SWAP1 SUB SWAP1 DUP2 PUSH2 0x58D JUMPI SWAP1 POP JUMPDEST POP DUP3 MSTORE DUP1 MLOAD PUSH1 0x0 SWAP1 PUSH8 0xFFFFFFFFFFFFFFFF DUP2 GT ISZERO PUSH2 0x61E JUMPI PUSH2 0x61E PUSH2 0x1015 JUMP JUMPDEST PUSH1 0x40 MLOAD SWAP1 DUP1 DUP3 MSTORE DUP1 PUSH1 0x20 MUL PUSH1 0x20 ADD DUP3 ADD PUSH1 0x40 MSTORE DUP1 ISZERO PUSH2 0x647 JUMPI DUP2 PUSH1 0x20 ADD PUSH1 0x20 DUP3 MUL DUP1 CALLDATASIZE DUP4 CALLDATACOPY ADD SWAP1 POP JUMPDEST POP SWAP1 POP PUSH1 0x0 DUP3 MLOAD PUSH8 0xFFFFFFFFFFFFFFFF DUP2 GT ISZERO PUSH2 0x666 JUMPI PUSH2 0x666 PUSH2 0x1015 JUMP JUMPDEST PUSH1 0x40 MLOAD SWAP1 DUP1 DUP3 MSTORE DUP1 PUSH1 0x20 MUL PUSH1 0x20 ADD DUP3 ADD PUSH1 0x40 MSTORE DUP1 ISZERO PUSH2 0x68F JUMPI DUP2 PUSH1 0x20 ADD PUSH1 0x20 DUP3 MUL DUP1 CALLDATASIZE DUP4 CALLDATACOPY ADD SWAP1 POP JUMPDEST POP SWAP1 POP PUSH1 0x0 JUMPDEST DUP4 MLOAD DUP2 LT ISZERO PUSH2 0x93C JUMPI DUP6 PUSH1 0x20 ADD MLOAD ISZERO PUSH2 0x715 JUMPI DUP4 DUP2 DUP2 MLOAD DUP2 LT PUSH2 0x6BA JUMPI PUSH2 0x6BA PUSH2 0x1475 JUMP JUMPDEST PUSH1 0x20 MUL PUSH1 0x20 ADD ADD MLOAD PUSH1 0x20 ADD MLOAD DUP5 DUP3 DUP2 MLOAD DUP2 LT PUSH2 0x6D8 JUMPI PUSH2 0x6D8 PUSH2 0x1475 JUMP JUMPDEST PUSH1 0x20 MUL PUSH1 0x20 ADD ADD MLOAD PUSH1 0x0 ADD MLOAD PUSH1 0x80 ADD MLOAD PUSH2 0x6F2 SWAP2 SWAP1 PUSH2 0x14A1 JUMP JUMPDEST DUP4 DUP3 DUP2 MLOAD DUP2 LT PUSH2 0x704 JUMPI PUSH2 0x704 PUSH2 0x1475 JUMP JUMPDEST PUSH1 0x20 MUL PUSH1 0x20 ADD ADD DUP2 DUP2 MSTORE POP POP PUSH2 0x77E JUMP JUMPDEST DUP4 DUP2 DUP2 MLOAD DUP2 LT PUSH2 0x727 JUMPI PUSH2 0x727 PUSH2 0x1475 JUMP JUMPDEST PUSH1 0x20 MUL PUSH1 0x20 ADD ADD MLOAD PUSH1 0x20 ADD MLOAD DUP5 DUP3 DUP2 MLOAD DUP2 LT PUSH2 0x745 JUMPI PUSH2 0x745 PUSH2 0x1475 JUMP JUMPDEST PUSH1 0x20 MUL PUSH1 0x20 ADD ADD MLOAD PUSH1 0x0 ADD MLOAD PUSH1 0x80 ADD MLOAD PUSH2 0x75F SWAP2 SWAP1 PUSH2 0x14B9 JUMP JUMPDEST DUP4 DUP3 DUP2 MLOAD DUP2 LT PUSH2 0x771 JUMPI PUSH2 0x771 PUSH2 0x1475 JUMP JUMPDEST PUSH1 0x20 MUL PUSH1 0x20 ADD ADD DUP2 DUP2 MSTORE POP POP JUMPDEST DUP4 DUP2 DUP2 MLOAD DUP2 LT PUSH2 0x790 JUMPI PUSH2 0x790 PUSH2 0x1475 JUMP JUMPDEST PUSH1 0x20 SWAP1 DUP2 MUL SWAP2 SWAP1 SWAP2 ADD ADD MLOAD MLOAD MLOAD DUP6 MLOAD DUP1 MLOAD DUP4 SWAP1 DUP2 LT PUSH2 0x7B1 JUMPI PUSH2 0x7B1 PUSH2 0x1475 JUMP JUMPDEST PUSH1 0x20 SWAP1 DUP2 MUL SWAP2 SWAP1 SWAP2 ADD ADD MLOAD PUSH1 0x1 PUSH1 0x1 PUSH1 0xA0 SHL SUB SWAP1 SWAP2 AND SWAP1 MSTORE DUP4 MLOAD DUP5 SWAP1 DUP3 SWAP1 DUP2 LT PUSH2 0x7DD JUMPI PUSH2 0x7DD PUSH2 0x1475 JUMP JUMPDEST PUSH1 0x20 MUL PUSH1 0x20 ADD ADD MLOAD PUSH1 0x0 ADD MLOAD PUSH1 0xC0 ADD MLOAD DUP6 PUSH1 0x0 ADD MLOAD DUP3 DUP2 MLOAD DUP2 LT PUSH2 0x803 JUMPI PUSH2 0x803 PUSH2 0x1475 JUMP JUMPDEST PUSH1 0x20 MUL PUSH1 0x20 ADD ADD MLOAD PUSH1 0x20 ADD DUP2 DUP2 MSTORE POP POP DUP4 DUP2 DUP2 MLOAD DUP2 LT PUSH2 0x825 JUMPI PUSH2 0x825 PUSH2 0x1475 JUMP JUMPDEST PUSH1 0x20 MUL PUSH1 0x20 ADD ADD MLOAD PUSH1 0x0 ADD MLOAD PUSH1 0xA0 ADD MLOAD DUP6 PUSH1 0x0 ADD MLOAD DUP3 DUP2 MLOAD DUP2 LT PUSH2 0x84B JUMPI PUSH2 0x84B PUSH2 0x1475 JUMP JUMPDEST PUSH1 0x20 MUL PUSH1 0x20 ADD ADD MLOAD PUSH1 0x40 ADD DUP2 DUP2 MSTORE POP POP DUP4 DUP2 DUP2 MLOAD DUP2 LT PUSH2 0x86D JUMPI PUSH2 0x86D PUSH2 0x1475 JUMP JUMPDEST PUSH1 0x20 MUL PUSH1 0x20 ADD ADD MLOAD PUSH1 0x0 ADD MLOAD PUSH1 0x40 ADD MLOAD DUP6 PUSH1 0x0 ADD MLOAD DUP3 DUP2 MLOAD DUP2 LT PUSH2 0x893 JUMPI PUSH2 0x893 PUSH2 0x1475 JUMP JUMPDEST PUSH1 0x20 MUL PUSH1 0x20 ADD ADD MLOAD PUSH1 0x80 ADD DUP2 DUP2 MSTORE POP POP DUP4 DUP2 DUP2 MLOAD DUP2 LT PUSH2 0x8B5 JUMPI PUSH2 0x8B5 PUSH2 0x1475 JUMP JUMPDEST PUSH1 0x20 MUL PUSH1 0x20 ADD ADD MLOAD PUSH1 0x0 ADD MLOAD PUSH1 0xE0 ADD MLOAD DUP6 PUSH1 0x0 ADD MLOAD DUP3 DUP2 MLOAD DUP2 LT PUSH2 0x8DB JUMPI PUSH2 0x8DB PUSH2 0x1475 JUMP JUMPDEST PUSH1 0x20 MUL PUSH1 0x20 ADD ADD MLOAD PUSH2 0x100 ADD DUP2 SWAP1 MSTORE POP DUP4 DUP2 DUP2 MLOAD DUP2 LT PUSH2 0x8FD JUMPI PUSH2 0x8FD PUSH2 0x1475 JUMP JUMPDEST PUSH1 0x20 MUL PUSH1 0x20 ADD ADD MLOAD PUSH1 0x0 ADD MLOAD PUSH1 0x40 ADD MLOAD DUP3 DUP3 DUP2 MLOAD DUP2 LT PUSH2 0x91F JUMPI PUSH2 0x91F PUSH2 0x1475 JUMP JUMPDEST PUSH1 0x20 SWAP1 DUP2 MUL SWAP2 SWAP1 SWAP2 ADD ADD MSTORE DUP1 PUSH2 0x934 DUP2 PUSH2 0x14D0 JUMP JUMPDEST SWAP2 POP POP PUSH2 0x695 JUMP JUMPDEST POP PUSH1 0x0 PUSH2 0x949 DUP4 DUP4 PUSH2 0xC87 JUMP JUMPDEST POP SWAP1 POP PUSH1 0x0 JUMPDEST DUP7 MLOAD MLOAD DUP2 LT ISZERO PUSH2 0x9AA JUMPI DUP2 DUP2 DUP2 MLOAD DUP2 LT PUSH2 0x96B JUMPI PUSH2 0x96B PUSH2 0x1475 JUMP JUMPDEST PUSH1 0x20 MUL PUSH1 0x20 ADD ADD MLOAD DUP7 PUSH1 0x0 ADD MLOAD DUP3 DUP2 MLOAD DUP2 LT PUSH2 0x989 JUMPI PUSH2 0x989 PUSH2 0x1475 JUMP JUMPDEST PUSH1 0x20 SWAP1 DUP2 MUL SWAP2 SWAP1 SWAP2 ADD ADD MLOAD PUSH1 0x60 ADD MSTORE DUP1 PUSH2 0x9A2 DUP2 PUSH2 0x14D0 JUMP JUMPDEST SWAP2 POP POP PUSH2 0x94F JUMP JUMPDEST POP POP POP POP POP SWAP2 SWAP1 POP JUMP JUMPDEST PUSH1 0x1 PUSH1 0x40 DUP3 ADD DUP2 SWAP1 MSTORE PUSH1 0x60 DUP3 ADD MSTORE PUSH1 0x0 JUMPDEST DUP2 MLOAD MLOAD DUP2 LT ISZERO PUSH2 0xA2F JUMPI PUSH1 0x0 DUP3 PUSH1 0x0 ADD MLOAD DUP3 DUP2 MLOAD DUP2 LT PUSH2 0x9E7 JUMPI PUSH2 0x9E7 PUSH2 0x1475 JUMP JUMPDEST PUSH1 0x20 MUL PUSH1 0x20 ADD ADD MLOAD SWAP1 POP PUSH2 0x9FA DUP2 PUSH2 0xDDA JUMP JUMPDEST DUP1 PUSH1 0xA0 ADD MLOAD PUSH2 0xA0B JUMPI PUSH1 0x0 PUSH1 0x40 DUP5 ADD MSTORE JUMPDEST DUP1 PUSH1 0xC0 ADD MLOAD PUSH2 0xA1C JUMPI PUSH1 0x0 PUSH1 0x60 DUP5 ADD MSTORE JUMPDEST POP DUP1 PUSH2 0xA27 DUP2 PUSH2 0x14D0 JUMP JUMPDEST SWAP2 POP POP PUSH2 0x9C5 JUMP JUMPDEST POP POP JUMP JUMPDEST PUSH1 0x1 PUSH1 0x20 DUP3 ADD MSTORE PUSH1 0x0 JUMPDEST DUP2 MLOAD MLOAD DUP2 LT ISZERO PUSH2 0xA2F JUMPI PUSH1 0x0 DUP3 PUSH1 0x0 ADD MLOAD DUP3 DUP2 MLOAD DUP2 LT PUSH2 0xA5F JUMPI PUSH2 0xA5F PUSH2 0x1475 JUMP JUMPDEST PUSH1 0x20 MUL PUSH1 0x20 ADD ADD MLOAD SWAP1 POP PUSH1 0x0 PUSH2 0xA84 PUSH1 0x1 SLOAD DUP4 PUSH1 0x20 ADD MLOAD PUSH2 0xF13 SWAP1 SWAP2 SWAP1 PUSH4 0xFFFFFFFF AND JUMP JUMPDEST SWAP1 POP PUSH1 0x0 DUP2 PUSH2 0xAA4 DUP5 PUSH1 0x60 ADD MLOAD DUP6 PUSH1 0x20 ADD MLOAD PUSH2 0xF62 SWAP1 SWAP2 SWAP1 PUSH4 0xFFFFFFFF AND JUMP JUMPDEST GT ISZERO SWAP1 POP DUP1 DUP6 PUSH1 0x0 ADD MLOAD DUP6 DUP2 MLOAD DUP2 LT PUSH2 0xABF JUMPI PUSH2 0xABF PUSH2 0x1475 JUMP JUMPDEST PUSH1 0x20 SWAP1 DUP2 MUL SWAP2 SWAP1 SWAP2 ADD ADD MLOAD SWAP1 ISZERO ISZERO PUSH1 0xE0 SWAP1 SWAP2 ADD MSTORE DUP1 PUSH2 0xAE0 JUMPI PUSH1 0x0 PUSH1 0x20 DUP7 ADD MSTORE JUMPDEST POP POP POP DUP1 DUP1 PUSH2 0xAEE SWAP1 PUSH2 0x14D0 JUMP JUMPDEST SWAP2 POP POP PUSH2 0xA3D JUMP JUMPDEST PUSH1 0x0 DUP1 JUMPDEST DUP3 MLOAD MLOAD DUP2 LT ISZERO PUSH2 0xB62 JUMPI PUSH1 0x0 DUP4 PUSH1 0x0 ADD MLOAD DUP3 DUP2 MLOAD DUP2 LT PUSH2 0xB1C JUMPI PUSH2 0xB1C PUSH2 0x1475 JUMP JUMPDEST PUSH1 0x20 MUL PUSH1 0x20 ADD ADD MLOAD SWAP1 POP DUP1 PUSH1 0xA0 ADD MLOAD ISZERO DUP1 ISZERO PUSH2 0xB40 JUMPI POP DUP1 PUSH1 0x40 ADD MLOAD DUP2 PUSH1 0x60 ADD MLOAD LT ISZERO JUMPDEST ISZERO PUSH2 0xB4F JUMPI POP PUSH1 0x0 SWAP4 SWAP3 POP POP POP JUMP JUMPDEST POP DUP1 PUSH2 0xB5A DUP2 PUSH2 0x14D0 JUMP JUMPDEST SWAP2 POP POP PUSH2 0xAFA JUMP JUMPDEST POP PUSH1 0x1 SWAP3 SWAP2 POP POP JUMP JUMPDEST PUSH1 0x0 DUP1 JUMPDEST DUP3 MLOAD MLOAD DUP2 LT ISZERO PUSH2 0xB62 JUMPI PUSH1 0x0 DUP4 PUSH1 0x0 ADD MLOAD DUP3 DUP2 MLOAD DUP2 LT PUSH2 0xB91 JUMPI PUSH2 0xB91 PUSH2 0x1475 JUMP JUMPDEST PUSH1 0x20 MUL PUSH1 0x20 ADD ADD MLOAD SWAP1 POP DUP1 PUSH1 0xE0 ADD MLOAD ISZERO PUSH2 0xBAB JUMPI POP PUSH2 0xC00 JUMP JUMPDEST PUSH1 0x0 PUSH2 0xBC8 DUP3 PUSH1 0x20 ADD MLOAD DUP4 PUSH1 0x60 ADD MLOAD PUSH2 0xF62 SWAP1 SWAP2 SWAP1 PUSH4 0xFFFFFFFF AND JUMP JUMPDEST SWAP1 POP PUSH1 0x0 PUSH2 0xBE7 DUP4 PUSH1 0x20 ADD MLOAD DUP5 PUSH1 0x40 ADD MLOAD PUSH2 0xF62 SWAP1 SWAP2 SWAP1 PUSH4 0xFFFFFFFF AND JUMP JUMPDEST SWAP1 POP DUP1 DUP3 LT PUSH2 0xBFC JUMPI POP PUSH1 0x0 SWAP6 SWAP5 POP POP POP POP POP JUMP JUMPDEST POP POP POP JUMPDEST DUP1 PUSH2 0xC0A DUP2 PUSH2 0x14D0 JUMP JUMPDEST SWAP2 POP POP PUSH2 0xB6F JUMP JUMPDEST PUSH1 0x0 DUP1 JUMPDEST DUP3 MLOAD MLOAD DUP2 LT ISZERO PUSH2 0xB62 JUMPI DUP3 MLOAD DUP1 MLOAD DUP3 SWAP1 DUP2 LT PUSH2 0xC34 JUMPI PUSH2 0xC34 PUSH2 0x1475 JUMP JUMPDEST PUSH1 0x20 MUL PUSH1 0x20 ADD ADD MLOAD PUSH1 0x20 ADD MLOAD DUP4 PUSH1 0x0 ADD MLOAD DUP3 DUP2 MLOAD DUP2 LT PUSH2 0xC56 JUMPI PUSH2 0xC56 PUSH2 0x1475 JUMP JUMPDEST PUSH1 0x20 MUL PUSH1 0x20 ADD ADD MLOAD PUSH1 0x0 ADD MLOAD PUSH1 0x80 ADD MLOAD LT ISZERO PUSH2 0xC75 JUMPI POP PUSH1 0x0 SWAP3 SWAP2 POP POP JUMP JUMPDEST DUP1 PUSH2 0xC7F DUP2 PUSH2 0x14D0 JUMP JUMPDEST SWAP2 POP POP PUSH2 0xC16 JUMP JUMPDEST PUSH1 0x60 PUSH1 0x0 DUP1 DUP4 MLOAD PUSH8 0xFFFFFFFFFFFFFFFF DUP2 GT ISZERO PUSH2 0xCA6 JUMPI PUSH2 0xCA6 PUSH2 0x1015 JUMP JUMPDEST PUSH1 0x40 MLOAD SWAP1 DUP1 DUP3 MSTORE DUP1 PUSH1 0x20 MUL PUSH1 0x20 ADD DUP3 ADD PUSH1 0x40 MSTORE DUP1 ISZERO PUSH2 0xCCF JUMPI DUP2 PUSH1 0x20 ADD PUSH1 0x20 DUP3 MUL DUP1 CALLDATASIZE DUP4 CALLDATACOPY ADD SWAP1 POP JUMPDEST POP SWAP1 POP PUSH1 0x0 DUP1 JUMPDEST DUP7 MLOAD DUP2 LT ISZERO PUSH2 0xD48 JUMPI PUSH1 0x0 PUSH2 0xD26 DUP8 DUP4 DUP2 MLOAD DUP2 LT PUSH2 0xCF6 JUMPI PUSH2 0xCF6 PUSH2 0x1475 JUMP JUMPDEST PUSH1 0x20 MUL PUSH1 0x20 ADD ADD MLOAD DUP10 DUP5 DUP2 MLOAD DUP2 LT PUSH2 0xD10 JUMPI PUSH2 0xD10 PUSH2 0x1475 JUMP JUMPDEST PUSH1 0x20 MUL PUSH1 0x20 ADD ADD MLOAD PUSH2 0xF8C SWAP1 SWAP2 SWAP1 PUSH4 0xFFFFFFFF AND JUMP JUMPDEST SWAP1 POP PUSH2 0xD32 DUP2 DUP5 PUSH2 0x14A1 JUMP JUMPDEST SWAP3 POP POP DUP1 DUP1 PUSH2 0xD40 SWAP1 PUSH2 0x14D0 JUMP JUMPDEST SWAP2 POP POP PUSH2 0xCD6 JUMP JUMPDEST POP DUP1 PUSH2 0xD58 JUMPI SWAP1 SWAP3 POP SWAP1 POP PUSH2 0xDD3 JUMP JUMPDEST PUSH1 0x0 JUMPDEST DUP7 MLOAD DUP2 LT ISZERO PUSH2 0xDCC JUMPI PUSH2 0xD9D DUP3 PUSH2 0xD97 DUP9 DUP5 DUP2 MLOAD DUP2 LT PUSH2 0xD7D JUMPI PUSH2 0xD7D PUSH2 0x1475 JUMP JUMPDEST PUSH1 0x20 MUL PUSH1 0x20 ADD ADD MLOAD DUP11 DUP6 DUP2 MLOAD DUP2 LT PUSH2 0xD10 JUMPI PUSH2 0xD10 PUSH2 0x1475 JUMP JUMPDEST SWAP1 PUSH2 0xFAD JUMP JUMPDEST DUP4 DUP3 DUP2 MLOAD DUP2 LT PUSH2 0xDAF JUMPI PUSH2 0xDAF PUSH2 0x1475 JUMP JUMPDEST PUSH1 0x20 SWAP1 DUP2 MUL SWAP2 SWAP1 SWAP2 ADD ADD MSTORE DUP1 PUSH2 0xDC4 DUP2 PUSH2 0x14D0 JUMP JUMPDEST SWAP2 POP POP PUSH2 0xD5B JUMP JUMPDEST POP SWAP1 SWAP3 POP SWAP1 POP JUMPDEST SWAP3 POP SWAP3 SWAP1 POP JUMP JUMPDEST PUSH1 0x1 PUSH1 0xA0 DUP3 ADD MSTORE PUSH1 0x0 PUSH1 0xC0 DUP3 ADD DUP2 SWAP1 MSTORE JUMPDEST DUP2 PUSH2 0x100 ADD MLOAD MLOAD DUP2 LT ISZERO PUSH2 0xA2F JUMPI PUSH1 0x0 DUP3 PUSH2 0x100 ADD MLOAD DUP3 DUP2 MLOAD DUP2 LT PUSH2 0xE12 JUMPI PUSH2 0xE12 PUSH2 0x1475 JUMP JUMPDEST PUSH1 0x20 MUL PUSH1 0x20 ADD ADD MLOAD PUSH1 0x0 ADD MLOAD SWAP1 POP PUSH1 0x0 DUP4 PUSH2 0x100 ADD MLOAD DUP4 DUP2 MLOAD DUP2 LT PUSH2 0xE39 JUMPI PUSH2 0xE39 PUSH2 0x1475 JUMP JUMPDEST PUSH1 0x20 SWAP1 DUP2 MUL SWAP2 SWAP1 SWAP2 ADD DUP2 ADD MLOAD ADD MLOAD PUSH1 0x4 DUP1 SLOAD PUSH1 0x40 MLOAD PUSH4 0x92ED8B1 PUSH1 0xE3 SHL DUP2 MSTORE PUSH1 0x1 PUSH1 0x1 PUSH1 0xA0 SHL SUB DUP7 DUP2 AND SWAP4 DUP3 ADD SWAP4 SWAP1 SWAP4 MSTORE SWAP3 SWAP4 POP AND SWAP1 PUSH4 0x4976C588 SWAP1 PUSH1 0x24 ADD PUSH1 0x20 PUSH1 0x40 MLOAD DUP1 DUP4 SUB DUP2 DUP7 GAS STATICCALL ISZERO DUP1 ISZERO PUSH2 0xE95 JUMPI RETURNDATASIZE PUSH1 0x0 DUP1 RETURNDATACOPY RETURNDATASIZE PUSH1 0x0 REVERT JUMPDEST POP POP POP POP PUSH1 0x40 MLOAD RETURNDATASIZE PUSH1 0x1F NOT PUSH1 0x1F DUP3 ADD AND DUP3 ADD DUP1 PUSH1 0x40 MSTORE POP DUP2 ADD SWAP1 PUSH2 0xEB9 SWAP2 SWAP1 PUSH2 0x14EB JUMP JUMPDEST ISZERO PUSH2 0xEED JUMPI PUSH1 0x1 PUSH1 0xC0 DUP6 ADD MSTORE PUSH1 0x2 SLOAD PUSH2 0xEDA DUP3 PUSH8 0xDE0B6B3A7640000 PUSH2 0xF62 JUMP JUMPDEST GT ISZERO PUSH2 0xEE8 JUMPI PUSH1 0x0 PUSH1 0xA0 DUP6 ADD MSTORE JUMPDEST PUSH2 0xEFE JUMP JUMPDEST PUSH1 0x3 SLOAD DUP2 LT PUSH2 0xEFE JUMPI PUSH1 0x1 PUSH1 0xC0 DUP6 ADD MSTORE JUMPDEST POP POP DUP1 DUP1 PUSH2 0xF0B SWAP1 PUSH2 0x14D0 JUMP JUMPDEST SWAP2 POP POP PUSH2 0xDEB JUMP JUMPDEST PUSH1 0x0 DUP1 PUSH2 0xF20 DUP4 DUP6 PUSH2 0x1508 JUMP JUMPDEST SWAP1 POP DUP1 PUSH2 0xF31 JUMPI PUSH1 0x0 SWAP2 POP POP PUSH2 0x379 JUMP JUMPDEST PUSH8 0xDE0B6B3A7640000 PUSH2 0xF45 PUSH1 0x1 DUP4 PUSH2 0x14B9 JUMP JUMPDEST PUSH2 0xF4F SWAP2 SWAP1 PUSH2 0x1527 JUMP JUMPDEST PUSH2 0xF5A SWAP1 PUSH1 0x1 PUSH2 0x14A1 JUMP JUMPDEST SWAP5 SWAP4 POP POP POP POP JUMP JUMPDEST PUSH1 0x0 DUP2 DUP4 LT ISZERO PUSH2 0xF7B JUMPI PUSH2 0xF76 DUP4 DUP4 PUSH2 0x14B9 JUMP JUMPDEST PUSH2 0xF85 JUMP JUMPDEST PUSH2 0xF85 DUP3 DUP5 PUSH2 0x14B9 JUMP JUMPDEST SWAP4 SWAP3 POP POP POP JUMP JUMPDEST PUSH1 0x0 DUP1 PUSH2 0xF99 DUP4 DUP6 PUSH2 0x1508 JUMP JUMPDEST SWAP1 POP PUSH2 0xF5A PUSH8 0xDE0B6B3A7640000 DUP3 PUSH2 0x1527 JUMP JUMPDEST PUSH1 0x40 DUP1 MLOAD DUP1 DUP3 ADD SWAP1 SWAP2 MSTORE PUSH1 0x2 DUP2 MSTORE PUSH2 0x3235 PUSH1 0xF0 SHL PUSH1 0x20 DUP3 ADD MSTORE PUSH1 0x0 SWAP1 DUP3 PUSH2 0xFE7 JUMPI PUSH1 0x40 MLOAD PUSH3 0x461BCD PUSH1 0xE5 SHL DUP2 MSTORE PUSH1 0x4 ADD PUSH2 0x3C4 SWAP2 SWAP1 PUSH2 0x13EC JUMP JUMPDEST POP DUP3 PUSH2 0xFF5 JUMPI POP PUSH1 0x0 PUSH2 0x379 JUMP JUMPDEST PUSH1 0x0 PUSH2 0x1009 PUSH8 0xDE0B6B3A7640000 DUP6 PUSH2 0x1508 JUMP JUMPDEST SWAP1 POP PUSH2 0xF5A DUP4 DUP3 PUSH2 0x1527 JUMP JUMPDEST PUSH4 0x4E487B71 PUSH1 0xE0 SHL PUSH1 0x0 MSTORE PUSH1 0x41 PUSH1 0x4 MSTORE PUSH1 0x24 PUSH1 0x0 REVERT JUMPDEST PUSH1 0x40 DUP1 MLOAD SWAP1 DUP2 ADD PUSH8 0xFFFFFFFFFFFFFFFF DUP2 GT DUP3 DUP3 LT OR ISZERO PUSH2 0x104E JUMPI PUSH2 0x104E PUSH2 0x1015 JUMP JUMPDEST PUSH1 0x40 MSTORE SWAP1 JUMP JUMPDEST PUSH1 0x40 MLOAD PUSH2 0x100 DUP2 ADD PUSH8 0xFFFFFFFFFFFFFFFF DUP2 GT DUP3 DUP3 LT OR ISZERO PUSH2 0x104E JUMPI PUSH2 0x104E PUSH2 0x1015 JUMP JUMPDEST PUSH1 0x40 MLOAD PUSH1 0x1F DUP3 ADD PUSH1 0x1F NOT AND DUP2 ADD PUSH8 0xFFFFFFFFFFFFFFFF DUP2 GT DUP3 DUP3 LT OR ISZERO PUSH2 0x10A1 JUMPI PUSH2 0x10A1 PUSH2 0x1015 JUMP JUMPDEST PUSH1 0x40 MSTORE SWAP2 SWAP1 POP JUMP JUMPDEST PUSH1 0x0 PUSH8 0xFFFFFFFFFFFFFFFF DUP3 GT ISZERO PUSH2 0x10C3 JUMPI PUSH2 0x10C3 PUSH2 0x1015 JUMP JUMPDEST POP PUSH1 0x5 SHL PUSH1 0x20 ADD SWAP1 JUMP JUMPDEST DUP1 CALLDATALOAD PUSH1 0x1 PUSH1 0x1 PUSH1 0xA0 SHL SUB DUP2 AND DUP2 EQ PUSH2 0x10E4 JUMPI PUSH1 0x0 DUP1 REVERT JUMPDEST SWAP2 SWAP1 POP JUMP JUMPDEST DUP1 CALLDATALOAD PUSH1 0xFF DUP2 AND DUP2 EQ PUSH2 0x10E4 JUMPI PUSH1 0x0 DUP1 REVERT JUMPDEST PUSH1 0x0 PUSH1 0x80 DUP3 DUP5 SUB SLT ISZERO PUSH2 0x110C JUMPI PUSH1 0x0 DUP1 REVERT JUMPDEST PUSH1 0x40 MLOAD PUSH1 0x80 DUP2 ADD DUP2 DUP2 LT PUSH8 0xFFFFFFFFFFFFFFFF DUP3 GT OR ISZERO PUSH2 0x112F JUMPI PUSH2 0x112F PUSH2 0x1015 JUMP JUMPDEST DUP1 PUSH1 0x40 MSTORE POP DUP1 SWAP2 POP DUP3 CALLDATALOAD DUP2 MSTORE PUSH1 0x20 DUP4 ADD CALLDATALOAD PUSH1 0x20 DUP3 ADD MSTORE PUSH1 0x40 DUP4 ADD CALLDATALOAD PUSH1 0x40 DUP3 ADD MSTORE PUSH1 0x60 DUP4 ADD CALLDATALOAD PUSH1 0x60 DUP3 ADD MSTORE POP SWAP3 SWAP2 POP POP JUMP JUMPDEST PUSH1 0x0 DUP3 PUSH1 0x1F DUP4 ADD SLT PUSH2 0x1171 JUMPI PUSH1 0x0 DUP1 REVERT JUMPDEST DUP2 CALLDATALOAD PUSH1 0x20 PUSH2 0x1186 PUSH2 0x1181 DUP4 PUSH2 0x10A9 JUMP JUMPDEST PUSH2 0x1078 JUMP JUMPDEST DUP3 DUP2 MSTORE PUSH1 0x6 SWAP3 SWAP1 SWAP3 SHL DUP5 ADD DUP2 ADD SWAP2 DUP2 DUP2 ADD SWAP1 DUP7 DUP5 GT ISZERO PUSH2 0x11A5 JUMPI PUSH1 0x0 DUP1 REVERT JUMPDEST DUP3 DUP7 ADD JUMPDEST DUP5 DUP2 LT ISZERO PUSH2 0x11EB JUMPI PUSH1 0x40 DUP2 DUP10 SUB SLT ISZERO PUSH2 0x11C2 JUMPI PUSH1 0x0 DUP1 DUP2 REVERT JUMPDEST PUSH2 0x11CA PUSH2 0x102B JUMP JUMPDEST PUSH2 0x11D3 DUP3 PUSH2 0x10CD JUMP JUMPDEST DUP2 MSTORE DUP2 DUP6 ADD CALLDATALOAD DUP6 DUP3 ADD MSTORE DUP4 MSTORE SWAP2 DUP4 ADD SWAP2 PUSH1 0x40 ADD PUSH2 0x11A9 JUMP JUMPDEST POP SWAP7 SWAP6 POP POP POP POP POP POP JUMP JUMPDEST DUP1 ISZERO ISZERO DUP2 EQ PUSH2 0x1204 JUMPI PUSH1 0x0 DUP1 REVERT JUMPDEST POP JUMP JUMPDEST DUP1 CALLDATALOAD PUSH2 0x10E4 DUP2 PUSH2 0x11F6 JUMP JUMPDEST PUSH1 0x0 PUSH1 0x20 DUP3 DUP5 SUB SLT ISZERO PUSH2 0x1224 JUMPI PUSH1 0x0 DUP1 REVERT JUMPDEST PUSH8 0xFFFFFFFFFFFFFFFF DUP1 DUP4 CALLDATALOAD GT ISZERO PUSH2 0x123B JUMPI PUSH1 0x0 DUP1 REVERT JUMPDEST PUSH1 0x40 DUP4 CALLDATALOAD DUP5 ADD DUP6 SUB SLT ISZERO PUSH2 0x124E JUMPI PUSH1 0x0 DUP1 REVERT JUMPDEST PUSH2 0x1256 PUSH2 0x102B JUMP JUMPDEST DUP2 DUP5 CALLDATALOAD DUP6 ADD CALLDATALOAD GT ISZERO PUSH2 0x1267 JUMPI PUSH1 0x0 DUP1 REVERT JUMPDEST DUP4 CALLDATALOAD DUP5 ADD DUP1 CALLDATALOAD ADD PUSH1 0x1F DUP2 ADD DUP7 SGT PUSH2 0x127D JUMPI PUSH1 0x0 DUP1 REVERT JUMPDEST PUSH2 0x128A PUSH2 0x1181 DUP3 CALLDATALOAD PUSH2 0x10A9 JUMP JUMPDEST DUP2 CALLDATALOAD DUP1 DUP3 MSTORE PUSH1 0x20 DUP1 DUP4 ADD SWAP3 SWAP2 PUSH1 0x5 SHL DUP5 ADD ADD DUP9 LT ISZERO PUSH2 0x12A8 JUMPI PUSH1 0x0 DUP1 REVERT JUMPDEST PUSH1 0x20 DUP4 ADD JUMPDEST PUSH1 0x20 DUP5 CALLDATALOAD PUSH1 0x5 SHL DUP6 ADD ADD DUP2 LT ISZERO PUSH2 0x13CA JUMPI DUP6 DUP2 CALLDATALOAD GT ISZERO PUSH2 0x12CC JUMPI PUSH1 0x0 DUP1 REVERT JUMPDEST DUP1 CALLDATALOAD DUP5 ADD PUSH1 0x1F NOT PUSH1 0x40 DUP3 DUP13 SUB DUP3 ADD SLT ISZERO PUSH2 0x12E5 JUMPI PUSH1 0x0 DUP1 REVERT JUMPDEST PUSH2 0x12ED PUSH2 0x102B JUMP JUMPDEST DUP9 PUSH1 0x20 DUP5 ADD CALLDATALOAD GT ISZERO PUSH2 0x12FE JUMPI PUSH1 0x0 DUP1 REVERT JUMPDEST PUSH1 0x20 DUP4 ADD CALLDATALOAD DUP4 ADD PUSH2 0x160 DUP4 DUP3 DUP16 SUB ADD SLT ISZERO PUSH2 0x1318 JUMPI PUSH1 0x0 DUP1 REVERT JUMPDEST PUSH2 0x1320 PUSH2 0x1054 JUMP JUMPDEST SWAP3 POP PUSH2 0x132E PUSH1 0x20 DUP3 ADD PUSH2 0x10CD JUMP JUMPDEST DUP4 MSTORE PUSH2 0x133C PUSH1 0x40 DUP3 ADD PUSH2 0x10E9 JUMP JUMPDEST PUSH1 0x20 DUP5 ADD MSTORE PUSH1 0x60 DUP2 ADD CALLDATALOAD PUSH1 0x40 DUP5 ADD MSTORE PUSH2 0x1358 DUP14 PUSH1 0x80 DUP4 ADD PUSH2 0x10FA JUMP JUMPDEST PUSH1 0x60 DUP5 ADD MSTORE PUSH2 0x100 DUP2 ADD CALLDATALOAD PUSH1 0x80 DUP5 ADD MSTORE PUSH2 0x120 DUP2 ADD CALLDATALOAD PUSH1 0xA0 DUP5 ADD MSTORE PUSH2 0x140 DUP2 ADD CALLDATALOAD PUSH1 0xC0 DUP5 ADD MSTORE DUP10 PUSH2 0x160 DUP3 ADD CALLDATALOAD GT ISZERO PUSH2 0x1390 JUMPI PUSH1 0x0 DUP1 REVERT JUMPDEST PUSH2 0x13A4 DUP14 PUSH1 0x20 PUSH2 0x160 DUP5 ADD CALLDATALOAD DUP5 ADD ADD PUSH2 0x1160 JUMP JUMPDEST PUSH1 0xE0 DUP5 ADD MSTORE POP SWAP1 DUP2 MSTORE PUSH1 0x40 SWAP2 SWAP1 SWAP2 ADD CALLDATALOAD PUSH1 0x20 DUP1 DUP4 ADD SWAP2 SWAP1 SWAP2 MSTORE SWAP1 DUP5 MSTORE SWAP3 DUP4 ADD SWAP3 ADD PUSH2 0x12AD JUMP JUMPDEST POP DUP4 MSTORE POP PUSH2 0x13DF SWAP1 POP DUP5 CALLDATALOAD DUP6 ADD PUSH1 0x20 ADD PUSH2 0x1207 JUMP JUMPDEST PUSH1 0x20 DUP3 ADD MSTORE SWAP5 SWAP4 POP POP POP POP JUMP JUMPDEST PUSH1 0x0 PUSH1 0x20 DUP1 DUP4 MSTORE DUP4 MLOAD DUP1 DUP3 DUP6 ADD MSTORE PUSH1 0x0 JUMPDEST DUP2 DUP2 LT ISZERO PUSH2 0x1419 JUMPI DUP6 DUP2 ADD DUP4 ADD MLOAD DUP6 DUP3 ADD PUSH1 0x40 ADD MSTORE DUP3 ADD PUSH2 0x13FD JUMP JUMPDEST DUP2 DUP2 GT ISZERO PUSH2 0x142B JUMPI PUSH1 0x0 PUSH1 0x40 DUP4 DUP8 ADD ADD MSTORE JUMPDEST POP PUSH1 0x1F ADD PUSH1 0x1F NOT AND SWAP3 SWAP1 SWAP3 ADD PUSH1 0x40 ADD SWAP4 SWAP3 POP POP POP JUMP JUMPDEST PUSH1 0x0 PUSH1 0x20 DUP3 DUP5 SUB SLT ISZERO PUSH2 0x1453 JUMPI PUSH1 0x0 DUP1 REVERT JUMPDEST POP CALLDATALOAD SWAP2 SWAP1 POP JUMP JUMPDEST PUSH1 0x0 PUSH1 0x20 DUP3 DUP5 SUB SLT ISZERO PUSH2 0x146C JUMPI PUSH1 0x0 DUP1 REVERT JUMPDEST PUSH2 0xF85 DUP3 PUSH2 0x10CD JUMP JUMPDEST PUSH4 0x4E487B71 PUSH1 0xE0 SHL PUSH1 0x0 MSTORE PUSH1 0x32 PUSH1 0x4 MSTORE PUSH1 0x24 PUSH1 0x0 REVERT JUMPDEST PUSH4 0x4E487B71 PUSH1 0xE0 SHL PUSH1 0x0 MSTORE PUSH1 0x11 PUSH1 0x4 MSTORE PUSH1 0x24 PUSH1 0x0 REVERT JUMPDEST PUSH1 0x0 DUP3 NOT DUP3 GT ISZERO PUSH2 0x14B4 JUMPI PUSH2 0x14B4 PUSH2 0x148B JUMP JUMPDEST POP ADD SWAP1 JUMP JUMPDEST PUSH1 0x0 DUP3 DUP3 LT ISZERO PUSH2 0x14CB JUMPI PUSH2 0x14CB PUSH2 0x148B JUMP JUMPDEST POP SUB SWAP1 JUMP JUMPDEST PUSH1 0x0 PUSH1 0x0 NOT DUP3 EQ ISZERO PUSH2 0x14E4 JUMPI PUSH2 0x14E4 PUSH2 0x148B JUMP JUMPDEST POP PUSH1 0x1 ADD SWAP1 JUMP JUMPDEST PUSH1 0x0 PUSH1 0x20 DUP3 DUP5 SUB SLT ISZERO PUSH2 0x14FD JUMPI PUSH1 0x0 DUP1 REVERT JUMPDEST DUP2 MLOAD PUSH2 0xF85 DUP2 PUSH2 0x11F6 JUMP JUMPDEST PUSH1 0x0 DUP2 PUSH1 0x0 NOT DIV DUP4 GT DUP3 ISZERO ISZERO AND ISZERO PUSH2 0x1522 JUMPI PUSH2 0x1522 PUSH2 0x148B JUMP JUMPDEST POP MUL SWAP1 JUMP JUMPDEST PUSH1 0x0 DUP3 PUSH2 0x1544 JUMPI PUSH4 0x4E487B71 PUSH1 0xE0 SHL PUSH1 0x0 MSTORE PUSH1 0x12 PUSH1 0x4 MSTORE PUSH1 0x24 PUSH1 0x0 REVERT JUMPDEST POP DIV SWAP1 JUMP INVALID LOG2 PUSH5 0x6970667358 0x22 SLT KECCAK256 PUSH12 0xA3B87B2653AC385317A92F41 0xAD BLOCKHASH 0xDB SDIV EXTCODECOPY SWAP12 AND SWAP14 MSIZE 0xC1 PUSH32 0xE104E85D0E7C76664736F6C634300080A003300000000000000000000000000 ","sha1":"c0a72ed7457013d3ee749a376e94069e768721ea","source":"// SPDX-License-Identifier: UNLICENSED\npragma solidity ^0.8.10;\n\nimport \"@openzeppelin/contracts/token/ERC20/utils/SafeERC20.sol\";\nimport \"@openzeppelin/contracts/token/ERC20/ERC20.sol\";\n\nimport \"./../auth/Governable.sol\";\nimport \"../../libraries/DataTypes.sol\";\nimport \"../../libraries/FixedPoint.sol\";\nimport \"../../interfaces/IReserveManager.sol\";\nimport \"../../interfaces/IAssetRegistry.sol\";\nimport \"../../interfaces/IGyroVault.sol\";\nimport \"../../interfaces/balancer/IVault.sol\";\nimport \"../../libraries/Errors.sol\";\nimport \"../../interfaces/ISafetyCheck.sol\";\n\ncontract ReserveSafetyManager is Governable, ISafetyCheck {\n    using FixedPoint for uint256;\n\n    uint256 public maxAllowedVaultDeviation;\n    uint256 public stablecoinMaxDeviation;\n    uint256 public minTokenPrice;\n\n    IAssetRegistry internal assetRegistry;\n\n    /// @notice a stablecoin should be equal to 1 USD\n    uint256 public constant STABLECOIN_IDEAL_PRICE = 1e18;\n\n    constructor(\n        uint256 _maxAllowedVaultDeviation,\n        uint256 _stablecoinMaxDeviation,\n        uint256 _minTokenPrice,\n        IAssetRegistry _assetRegistry\n    ) {\n        maxAllowedVaultDeviation = _maxAllowedVaultDeviation;\n        stablecoinMaxDeviation = _stablecoinMaxDeviation;\n        minTokenPrice = _minTokenPrice;\n        assetRegistry = _assetRegistry;\n    }\n\n    function setVaultMaxDeviation(uint256 _maxAllowedVaultDeviation) external governanceOnly {\n        maxAllowedVaultDeviation = _maxAllowedVaultDeviation;\n    }\n\n    function setMinTokenPrice(uint256 _minTokenPrice) external governanceOnly {\n        minTokenPrice = _minTokenPrice;\n    }\n\n    function setStablecoinMaxDeviation(uint256 _stablecoinMaxDeviation) external governanceOnly {\n        stablecoinMaxDeviation = _stablecoinMaxDeviation;\n    }\n\n    /// @notice For given token amounts and token prices, calculates the weight of each token with\n    /// respect to the quote price as well as the total value of the basket in terms of the quote price\n    /// @param amounts an array of token amounts\n    /// @param prices an array of prices\n    /// @return (weights, total) where the weights is an array and the total a uint\n    function _calculateWeightsAndTotal(uint256[] memory amounts, uint256[] memory prices)\n        internal\n        pure\n        returns (uint256[] memory, uint256)\n    {\n        uint256[] memory weights = new uint256[](prices.length);\n\n        uint256 total = 0;\n        for (uint256 i = 0; i < amounts.length; i++) {\n            uint256 amountInUSD = amounts[i].mulDown(prices[i]);\n            total += amountInUSD;\n        }\n\n        if (total == 0) {\n            return (weights, total);\n        }\n\n        for (uint256 i = 0; i < amounts.length; i++) {\n            weights[i] = amounts[i].mulDown(prices[i]).divDown(total);\n        }\n\n        return (weights, total);\n    }\n\n    /// @notice checks for all vaults whether if a particular vault contains a stablecoin that is off its peg,\n    /// whether the proposed change to the vault would be reducing the weight of the vault with the failed asset (as desired).\n    /// @param metaData an metadata struct containing all the vault information. Must be fully updated with the price\n    /// safety and epsilon data.\n    /// @return bool of whether all vaults exhibit this weight decreasing behavior\n    function _vaultWeightWithOffPegFalls(DataTypes.Metadata memory metaData)\n        internal\n        pure\n        returns (bool)\n    {\n        for (uint256 i; i < metaData.vaultMetadata.length; i++) {\n            DataTypes.VaultMetadata memory vaultData = metaData.vaultMetadata[i];\n\n            if (\n                !vaultData.allStablecoinsOnPeg &&\n                vaultData.resultingWeight >= vaultData.currentWeight\n            ) {\n                return false;\n            }\n        }\n\n        return true;\n    }\n\n    function isRedeemFeasible(DataTypes.Order memory order) internal pure returns (bool) {\n        for (uint256 i = 0; i < order.vaultsWithAmount.length; i++) {\n            if (\n                order.vaultsWithAmount[i].vaultInfo.reserveBalance <\n                order.vaultsWithAmount[i].amount\n            ) {\n                return false;\n            }\n        }\n\n        return true;\n    }\n\n    /// @notice this function takes an order struct and builds the metadata struct, for use in this contract.\n    /// @param order an order struct received by the Reserve Safety Manager contract\n    /// @return metaData object\n    function _buildMetaData(DataTypes.Order memory order)\n        internal\n        pure\n        returns (DataTypes.Metadata memory metaData)\n    {\n        DataTypes.VaultWithAmount[] memory vaultsWithAmount = order.vaultsWithAmount;\n\n        metaData.mint = order.mint;\n        metaData.vaultMetadata = new DataTypes.VaultMetadata[](order.vaultsWithAmount.length);\n\n        uint256[] memory resultingAmounts = new uint256[](vaultsWithAmount.length);\n        uint256[] memory prices = new uint256[](vaultsWithAmount.length);\n\n        for (uint256 i = 0; i < vaultsWithAmount.length; i++) {\n            if (order.mint) {\n                resultingAmounts[i] =\n                    vaultsWithAmount[i].vaultInfo.reserveBalance +\n                    vaultsWithAmount[i].amount;\n            } else {\n                resultingAmounts[i] =\n                    vaultsWithAmount[i].vaultInfo.reserveBalance -\n                    vaultsWithAmount[i].amount;\n            }\n\n            metaData.vaultMetadata[i].vault = vaultsWithAmount[i].vaultInfo.vault;\n            metaData.vaultMetadata[i].idealWeight = vaultsWithAmount[i].vaultInfo.idealWeight;\n            metaData.vaultMetadata[i].currentWeight = vaultsWithAmount[i].vaultInfo.currentWeight;\n            metaData.vaultMetadata[i].price = vaultsWithAmount[i].vaultInfo.price;\n            metaData.vaultMetadata[i].pricedTokens = vaultsWithAmount[i].vaultInfo.pricedTokens;\n            prices[i] = vaultsWithAmount[i].vaultInfo.price;\n        }\n\n        (uint256[] memory resultingWeights, ) = _calculateWeightsAndTotal(resultingAmounts, prices);\n\n        for (uint256 i = 0; i < order.vaultsWithAmount.length; i++) {\n            metaData.vaultMetadata[i].resultingWeight = resultingWeights[i];\n        }\n    }\n\n    /// @notice given input metadata, updates it with the information about whether the vault would remain within\n    /// an acceptable band (+/- epsilon) around the ideal weight for the vault.\n    /// @param metaData a metadata struct containing all the vault information.\n    function _updateMetaDataWithEpsilonStatus(DataTypes.Metadata memory metaData) internal view {\n        metaData.allVaultsWithinEpsilon = true;\n\n        for (uint256 i = 0; i < metaData.vaultMetadata.length; i++) {\n            DataTypes.VaultMetadata memory vaultData = metaData.vaultMetadata[i];\n            uint256 scaledEpsilon = vaultData.idealWeight.mulUp(maxAllowedVaultDeviation);\n            bool withinEpsilon = vaultData.idealWeight.absSub(vaultData.resultingWeight) <=\n                scaledEpsilon;\n\n            metaData.vaultMetadata[i].vaultWithinEpsilon = withinEpsilon;\n\n            if (!withinEpsilon) {\n                metaData.allVaultsWithinEpsilon = false;\n            }\n        }\n    }\n\n    /// @notice given input vaultMetadata, updates it with the information about whether the vault contains assets\n    /// with safe prices. For a stablecoin, safe means the asset is sufficiently close to the peg. For a\n    /// vault consisting of entirely non-stablecoin assets, this means that all of the prices are not 'dust',\n    /// to avoid numerical error.\n    /// @param vaultMetadata a VaultMetadata struct containing information for a particular vault.\n    function _updateVaultWithPriceSafety(DataTypes.VaultMetadata memory vaultMetadata)\n        internal\n        view\n    {\n        vaultMetadata.allStablecoinsOnPeg = true;\n        vaultMetadata.allTokenPricesLargeEnough = false;\n        for (uint256 i = 0; i < vaultMetadata.pricedTokens.length; i++) {\n            address tokenAddress = vaultMetadata.pricedTokens[i].tokenAddress;\n            uint256 tokenPrice = vaultMetadata.pricedTokens[i].price;\n\n            if (assetRegistry.isAssetStable(tokenAddress)) {\n                vaultMetadata.allTokenPricesLargeEnough = true;\n                if (tokenPrice.absSub(STABLECOIN_IDEAL_PRICE) > stablecoinMaxDeviation) {\n                    vaultMetadata.allStablecoinsOnPeg = false;\n                }\n            } else if (tokenPrice >= minTokenPrice) {\n                vaultMetadata.allTokenPricesLargeEnough = true;\n            }\n        }\n    }\n\n    /// @notice given input metadata, updates it with the information about whether all vaults contains assets with\n    /// safe prices as determined by the _updateVaultWithPriceSafety function.\n    /// @param metaData a metadata struct containing all the vault information.\n    function _updateMetadataWithPriceSafety(DataTypes.Metadata memory metaData) internal view {\n        metaData.allStablecoinsAllVaultsOnPeg = true;\n        metaData.allVaultsUsingLargeEnoughPrices = true;\n        for (uint256 i = 0; i < metaData.vaultMetadata.length; i++) {\n            DataTypes.VaultMetadata memory vaultData = metaData.vaultMetadata[i];\n            _updateVaultWithPriceSafety(vaultData);\n            if (!vaultData.allStablecoinsOnPeg) {\n                metaData.allStablecoinsAllVaultsOnPeg = false;\n            }\n            if (!vaultData.allTokenPricesLargeEnough) {\n                metaData.allVaultsUsingLargeEnoughPrices = false;\n            }\n        }\n    }\n\n    /// @notice given input metadata,\n    /// @param metaData a metadata struct containing all the vault information, updated with price safety and the\n    /// status of the vault regarding whether it is within epsilon.\n    /// @return bool equal to true if for any pool that is outside of epsilon, the weight after the mint/redeem will\n    /// be closer to the ideal weight than the current weight is, i.e., the operation promotes rebalancing.\n    function _safeToExecuteOutsideEpsilon(DataTypes.Metadata memory metaData)\n        internal\n        pure\n        returns (bool)\n    {\n        //Check that amount above maxAllowedVaultDeviation is decreasing\n        //Check that unhealthy pools have input weight below ideal weight\n        //If both true, then mint\n        //note: should always be able to mint at the ideal weights!\n\n        for (uint256 i; i < metaData.vaultMetadata.length; i++) {\n            DataTypes.VaultMetadata memory vaultMetadata = metaData.vaultMetadata[i];\n\n            if (vaultMetadata.vaultWithinEpsilon) {\n                continue;\n            }\n\n            uint256 distanceResultingToIdeal = vaultMetadata.resultingWeight.absSub(\n                vaultMetadata.idealWeight\n            );\n            uint256 distanceCurrentToIdeal = vaultMetadata.currentWeight.absSub(\n                vaultMetadata.idealWeight\n            );\n\n            if (distanceResultingToIdeal >= distanceCurrentToIdeal) {\n                return false;\n            }\n        }\n\n        return true;\n    }\n\n    /// @inheritdoc ISafetyCheck\n    function isMintSafe(DataTypes.Order memory order) public view returns (string memory) {\n        DataTypes.Metadata memory metaData = _buildMetaData(order);\n\n        _updateMetadataWithPriceSafety(metaData);\n        _updateMetaDataWithEpsilonStatus(metaData);\n\n        if (!metaData.allVaultsUsingLargeEnoughPrices) {\n            return Errors.TOKEN_PRICES_TOO_SMALL;\n        }\n\n        bool stableCoinsSafe = metaData.allStablecoinsAllVaultsOnPeg ||\n            _vaultWeightWithOffPegFalls(metaData);\n        bool epsilonSafe = metaData.allVaultsWithinEpsilon ||\n            _safeToExecuteOutsideEpsilon(metaData);\n\n        if (stableCoinsSafe && epsilonSafe) {\n            return \"\";\n        }\n\n        return Errors.NOT_SAFE_TO_MINT;\n    }\n\n    /// @inheritdoc ISafetyCheck\n    function isRedeemSafe(DataTypes.Order memory order) public view returns (string memory) {\n        if (!isRedeemFeasible(order)) {\n            return Errors.TRYING_TO_REDEEM_MORE_THAN_VAULT_CONTAINS;\n        }\n\n        DataTypes.Metadata memory metaData = _buildMetaData(order);\n\n        _updateMetadataWithPriceSafety(metaData);\n        _updateMetaDataWithEpsilonStatus(metaData);\n\n        if (!metaData.allVaultsUsingLargeEnoughPrices) {\n            return Errors.TOKEN_PRICES_TOO_SMALL;\n        }\n\n        if (metaData.allVaultsWithinEpsilon || _safeToExecuteOutsideEpsilon(metaData)) {\n            return \"\";\n        }\n\n        return Errors.NOT_SAFE_TO_REDEEM;\n    }\n\n    /// @inheritdoc ISafetyCheck\n    function checkAndPersistMint(DataTypes.Order memory order)\n        external\n        view\n        returns (string memory)\n    {\n        return isMintSafe(order);\n    }\n\n    /// @inheritdoc ISafetyCheck\n    function checkAndPersistRedeem(DataTypes.Order memory order)\n        external\n        view\n        returns (string memory)\n    {\n        return isRedeemSafe(order);\n    }\n}\n","sourcePath":"contracts/safety/ReserveSafetyManager.sol","type":"contract","deployment":{"address":"0x59020b88560756ea8BA7F47D39049Ea4e24ECcB6","chainid":"137","blockHeight":26856445}}