{"abi":[{"inputs":[{"internalType":"contract IGyroConfig","name":"_gyroConfig","type":"address"}],"stateMutability":"nonpayable","type":"constructor","name":"constructor"},{"anonymous":false,"inputs":[{"indexed":true,"internalType":"address","name":"check","type":"address"}],"name":"CheckAdded","type":"event"},{"anonymous":false,"inputs":[{"indexed":true,"internalType":"address","name":"check","type":"address"}],"name":"CheckRemoved","type":"event"},{"anonymous":false,"inputs":[{"indexed":false,"internalType":"address","name":"oldGovernor","type":"address"},{"indexed":false,"internalType":"address","name":"newGovernor","type":"address"}],"name":"GovernorChanged","type":"event"},{"inputs":[{"internalType":"address","name":"check","type":"address"}],"name":"addCheck","outputs":[],"stateMutability":"nonpayable","type":"function"},{"inputs":[{"internalType":"address","name":"newGovernor","type":"address"}],"name":"changeGovernor","outputs":[],"stateMutability":"nonpayable","type":"function"},{"inputs":[{"components":[{"components":[{"components":[{"internalType":"address","name":"vault","type":"address"},{"internalType":"uint8","name":"decimals","type":"uint8"},{"internalType":"uint256","name":"price","type":"uint256"},{"components":[{"internalType":"uint256","name":"initialPrice","type":"uint256"},{"internalType":"uint256","name":"initialWeight","type":"uint256"},{"internalType":"uint256","name":"shortFlowMemory","type":"uint256"},{"internalType":"uint256","name":"shortFlowThreshold","type":"uint256"}],"internalType":"struct DataTypes.PersistedVaultMetadata","name":"persistedMetadata","type":"tuple"},{"internalType":"uint256","name":"reserveBalance","type":"uint256"},{"internalType":"uint256","name":"currentWeight","type":"uint256"},{"internalType":"uint256","name":"idealWeight","type":"uint256"},{"components":[{"internalType":"address","name":"tokenAddress","type":"address"},{"internalType":"uint256","name":"price","type":"uint256"}],"internalType":"struct DataTypes.PricedToken[]","name":"pricedTokens","type":"tuple[]"}],"internalType":"struct DataTypes.VaultInfo","name":"vaultInfo","type":"tuple"},{"internalType":"uint256","name":"amount","type":"uint256"}],"internalType":"struct DataTypes.VaultWithAmount[]","name":"vaultsWithAmount","type":"tuple[]"},{"internalType":"bool","name":"mint","type":"bool"}],"internalType":"struct DataTypes.Order","name":"order","type":"tuple"}],"name":"checkAndPersistMint","outputs":[{"internalType":"string","name":"err","type":"string"}],"stateMutability":"nonpayable","type":"function"},{"inputs":[{"components":[{"components":[{"components":[{"internalType":"address","name":"vault","type":"address"},{"internalType":"uint8","name":"decimals","type":"uint8"},{"internalType":"uint256","name":"price","type":"uint256"},{"components":[{"internalType":"uint256","name":"initialPrice","type":"uint256"},{"internalType":"uint256","name":"initialWeight","type":"uint256"},{"internalType":"uint256","name":"shortFlowMemory","type":"uint256"},{"internalType":"uint256","name":"shortFlowThreshold","type":"uint256"}],"internalType":"struct DataTypes.PersistedVaultMetadata","name":"persistedMetadata","type":"tuple"},{"internalType":"uint256","name":"reserveBalance","type":"uint256"},{"internalType":"uint256","name":"currentWeight","type":"uint256"},{"internalType":"uint256","name":"idealWeight","type":"uint256"},{"components":[{"internalType":"address","name":"tokenAddress","type":"address"},{"internalType":"uint256","name":"price","type":"uint256"}],"internalType":"struct DataTypes.PricedToken[]","name":"pricedTokens","type":"tuple[]"}],"internalType":"struct DataTypes.VaultInfo","name":"vaultInfo","type":"tuple"},{"internalType":"uint256","name":"amount","type":"uint256"}],"internalType":"struct DataTypes.VaultWithAmount[]","name":"vaultsWithAmount","type":"tuple[]"},{"internalType":"bool","name":"mint","type":"bool"}],"internalType":"struct DataTypes.Order","name":"order","type":"tuple"}],"name":"checkAndPersistRedeem","outputs":[{"internalType":"string","name":"err","type":"string"}],"stateMutability":"nonpayable","type":"function"},{"inputs":[],"name":"getChecks","outputs":[{"internalType":"address[]","name":"","type":"address[]"}],"stateMutability":"view","type":"function"},{"inputs":[],"name":"governor","outputs":[{"internalType":"address","name":"","type":"address"}],"stateMutability":"view","type":"function"},{"inputs":[],"name":"gyroConfig","outputs":[{"internalType":"contract IGyroConfig","name":"","type":"address"}],"stateMutability":"view","type":"function"},{"inputs":[{"components":[{"components":[{"components":[{"internalType":"address","name":"vault","type":"address"},{"internalType":"uint8","name":"decimals","type":"uint8"},{"internalType":"uint256","name":"price","type":"uint256"},{"components":[{"internalType":"uint256","name":"initialPrice","type":"uint256"},{"internalType":"uint256","name":"initialWeight","type":"uint256"},{"internalType":"uint256","name":"shortFlowMemory","type":"uint256"},{"internalType":"uint256","name":"shortFlowThreshold","type":"uint256"}],"internalType":"struct DataTypes.PersistedVaultMetadata","name":"persistedMetadata","type":"tuple"},{"internalType":"uint256","name":"reserveBalance","type":"uint256"},{"internalType":"uint256","name":"currentWeight","type":"uint256"},{"internalType":"uint256","name":"idealWeight","type":"uint256"},{"components":[{"internalType":"address","name":"tokenAddress","type":"address"},{"internalType":"uint256","name":"price","type":"uint256"}],"internalType":"struct DataTypes.PricedToken[]","name":"pricedTokens","type":"tuple[]"}],"internalType":"struct DataTypes.VaultInfo","name":"vaultInfo","type":"tuple"},{"internalType":"uint256","name":"amount","type":"uint256"}],"internalType":"struct DataTypes.VaultWithAmount[]","name":"vaultsWithAmount","type":"tuple[]"},{"internalType":"bool","name":"mint","type":"bool"}],"internalType":"struct DataTypes.Order","name":"order","type":"tuple"}],"name":"isMintSafe","outputs":[{"internalType":"string","name":"err","type":"string"}],"stateMutability":"view","type":"function"},{"inputs":[{"components":[{"components":[{"components":[{"internalType":"address","name":"vault","type":"address"},{"internalType":"uint8","name":"decimals","type":"uint8"},{"internalType":"uint256","name":"price","type":"uint256"},{"components":[{"internalType":"uint256","name":"initialPrice","type":"uint256"},{"internalType":"uint256","name":"initialWeight","type":"uint256"},{"internalType":"uint256","name":"shortFlowMemory","type":"uint256"},{"internalType":"uint256","name":"shortFlowThreshold","type":"uint256"}],"internalType":"struct DataTypes.PersistedVaultMetadata","name":"persistedMetadata","type":"tuple"},{"internalType":"uint256","name":"reserveBalance","type":"uint256"},{"internalType":"uint256","name":"currentWeight","type":"uint256"},{"internalType":"uint256","name":"idealWeight","type":"uint256"},{"components":[{"internalType":"address","name":"tokenAddress","type":"address"},{"internalType":"uint256","name":"price","type":"uint256"}],"internalType":"struct DataTypes.PricedToken[]","name":"pricedTokens","type":"tuple[]"}],"internalType":"struct DataTypes.VaultInfo","name":"vaultInfo","type":"tuple"},{"internalType":"uint256","name":"amount","type":"uint256"}],"internalType":"struct DataTypes.VaultWithAmount[]","name":"vaultsWithAmount","type":"tuple[]"},{"internalType":"bool","name":"mint","type":"bool"}],"internalType":"struct DataTypes.Order","name":"order","type":"tuple"}],"name":"isRedeemSafe","outputs":[{"internalType":"string","name":"err","type":"string"}],"stateMutability":"view","type":"function"},{"inputs":[{"internalType":"address","name":"check","type":"address"}],"name":"removeCheck","outputs":[],"stateMutability":"nonpayable","type":"function"}],"bytecode":"60a060405234801561001057600080fd5b5060405161130938038061130983398101604081905261002f9161008e565b600080546001600160a01b0319163390811782556040805192835260208301919091527fde4b3f61490b74c0ed6237523974fe299126bbbf8a8a7482fd220104c59b0c84910160405180910390a16001600160a01b03166080526100be565b6000602082840312156100a057600080fd5b81516001600160a01b03811681146100b757600080fd5b9392505050565b6080516112226100e760003960008181610124015281816104c101526105fa01526112226000f3fe608060405234801561001057600080fd5b506004361061009e5760003560e01c80634d9a12c4116100665780634d9a12c41461014657806368b23e521461015b5780638d404e981461016e578063c4ea120914610181578063e4c0aaf41461019457600080fd5b8063071231cf146100a35780630c340a24146100cc57806329c97771146100f75780633d4d10e21461010a57806344bbdb551461011f575b600080fd5b6100b66100b1366004610cbb565b6101a7565b6040516100c39190610ec5565b60405180910390f35b6000546100df906001600160a01b031681565b6040516001600160a01b0390911681526020016100c3565b6100b6610105366004610cbb565b610265565b61011d610118366004610ef8565b61031c565b005b6100df7f000000000000000000000000000000000000000000000000000000000000000081565b61014e6103e7565b6040516100c39190610f15565b61011d610169366004610ef8565b6103f8565b6100b661017c366004610cbb565b6104ba565b6100b661018f366004610cbb565b6105f3565b61011d6101a2366004610ef8565b61072c565b606060006101b560016107d3565b905060005b8181101561025e576101cd6001826107e3565b6001600160a01b031663071231cf856040518263ffffffff1660e01b81526004016101f89190610fb1565b600060405180830381865afa158015610215573d6000803e3d6000fd5b505050506040513d6000823e601f3d908101601f1916820160405261023d91908101906110c7565b80519093501561024c5761025e565b8061025681611171565b9150506101ba565b5050919050565b6060600061027360016107d3565b905060005b8181101561025e5761028b6001826107e3565b6001600160a01b03166329c97771856040518263ffffffff1660e01b81526004016102b69190610fb1565b600060405180830381865afa1580156102d3573d6000803e3d6000fd5b505050506040513d6000823e601f3d908101601f191682016040526102fb91908101906110c7565b80519093501561030a5761025e565b8061031481611171565b915050610278565b600054604080518082019091526002815261033360f41b6020820152906001600160a01b0316331461036a5760405162461bcd60e51b81526004016103619190610ec5565b60405180910390fd5b506103766001826107f6565b60405180604001604052806002815260200161333160f01b815250906103af5760405162461bcd60e51b81526004016103619190610ec5565b506040516001600160a01b038216907f75ec3ef6c1afb45dd0a2bbb3a4f14cac03241c33fc24c352e25ea690e22a923290600090a250565b60606103f3600161080b565b905090565b600054604080518082019091526002815261033360f41b6020820152906001600160a01b0316331461043d5760405162461bcd60e51b81526004016103619190610ec5565b506104496001826108ba565b60405180604001604052806002815260200161333160f01b815250906104825760405162461bcd60e51b81526004016103619190610ec5565b506040516001600160a01b038216907fd37223475c04a60e97eb30bc3a38b4aef6a37def09d1ed6b88c881847362426d90600090a250565b60606104ee7f00000000000000000000000000000000000000000000000000000000000000006001600160a01b03166108cf565b6001600160a01b0316336001600160a01b03161460405180604001604052806002815260200161033360f41b8152509061053b5760405162461bcd60e51b81526004016103619190610ec5565b50600061054860016107d3565b905060005b8181101561025e576105606001826107e3565b6001600160a01b0316638d404e98856040518263ffffffff1660e01b815260040161058b9190610fb1565b6000604051808303816000875af11580156105aa573d6000803e3d6000fd5b505050506040513d6000823e601f3d908101601f191682016040526105d291908101906110c7565b8051909350156105e15761025e565b806105eb81611171565b91505061054d565b60606106277f00000000000000000000000000000000000000000000000000000000000000006001600160a01b03166108cf565b6001600160a01b0316336001600160a01b03161460405180604001604052806002815260200161033360f41b815250906106745760405162461bcd60e51b81526004016103619190610ec5565b50600061068160016107d3565b905060005b8181101561025e576106996001826107e3565b6001600160a01b031663c4ea1209856040518263ffffffff1660e01b81526004016106c49190610fb1565b6000604051808303816000875af11580156106e3573d6000803e3d6000fd5b505050506040513d6000823e601f3d908101601f1916820160405261070b91908101906110c7565b80519093501561071a5761025e565b8061072481611171565b915050610686565b600054604080518082019091526002815261033360f41b6020820152906001600160a01b031633146107715760405162461bcd60e51b81526004016103619190610ec5565b50600080546001600160a01b038381166001600160a01b031983168117909355604080519190921680825260208201939093527fde4b3f61490b74c0ed6237523974fe299126bbbf8a8a7482fd220104c59b0c84910160405180910390a15050565b60006107dd825490565b92915050565b60006107ef8383610950565b9392505050565b60006107ef836001600160a01b03841661097a565b60606000610818836107d3565b905060008167ffffffffffffffff81111561083557610835610abc565b60405190808252806020026020018201604052801561085e578160200160208202803683370190505b50905060005b828110156108b25761087685826107e3565b8282815181106108885761088861118c565b6001600160a01b0390921660209283029190910190910152806108aa81611171565b915050610864565b509392505050565b60006107ef836001600160a01b0384166109c9565b6040516321f8a72160e01b8152724d4f54484552424f4152445f4144445245535360681b60048201526000906001600160a01b038316906321f8a72190602401602060405180830381865afa15801561092c573d6000803e3d6000fd5b505050506040513d601f19601f820116820180604052508101906107dd91906111a2565b60008260000182815481106109675761096761118c565b9060005260206000200154905092915050565b60008181526001830160205260408120546109c1575081546001818101845560008481526020808220909301849055845484825282860190935260409020919091556107dd565b5060006107dd565b60008181526001830160205260408120548015610ab25760006109ed6001836111bf565b8554909150600090610a01906001906111bf565b9050818114610a66576000866000018281548110610a2157610a2161118c565b9060005260206000200154905080876000018481548110610a4457610a4461118c565b6000918252602080832090910192909255918252600188019052604090208390555b8554869080610a7757610a776111d6565b6001900381819060005260206000200160009055905585600101600086815260200190815260200160002060009055600193505050506107dd565b60009150506107dd565b634e487b7160e01b600052604160045260246000fd5b6040805190810167ffffffffffffffff81118282101715610af557610af5610abc565b60405290565b604051610100810167ffffffffffffffff81118282101715610af557610af5610abc565b604051601f8201601f1916810167ffffffffffffffff81118282101715610b4857610b48610abc565b604052919050565b600067ffffffffffffffff821115610b6a57610b6a610abc565b5060051b60200190565b6001600160a01b0381168114610b8957600080fd5b50565b8035610b9781610b74565b919050565b803560ff81168114610b9757600080fd5b600060808284031215610bbf57600080fd5b6040516080810181811067ffffffffffffffff82111715610be257610be2610abc565b8060405250809150823581526020830135602082015260408301356040820152606083013560608201525092915050565b600082601f830112610c2457600080fd5b81356020610c39610c3483610b50565b610b1f565b82815260069290921b84018101918181019086841115610c5857600080fd5b8286015b84811015610ca05760408189031215610c755760008081fd5b610c7d610ad2565b8135610c8881610b74565b81528185013585820152835291830191604001610c5c565b509695505050505050565b80358015158114610b9757600080fd5b600060208284031215610ccd57600080fd5b67ffffffffffffffff8083351115610ce457600080fd5b60408335840185031215610cf757600080fd5b610cff610ad2565b8184358501351115610d1057600080fd5b83358401803501601f81018613610d2657600080fd5b610d33610c348235610b50565b81358082526020808301929160051b840101881015610d5157600080fd5b602083015b6020843560051b850101811015610e73578581351115610d7557600080fd5b80358401601f196040828c0382011215610d8e57600080fd5b610d96610ad2565b8860208401351115610da757600080fd5b6020830135830161016083828f03011215610dc157600080fd5b610dc9610afb565b9250610dd760208201610b8c565b8352610de560408201610b9c565b602084015260608101356040840152610e018d60808301610bad565b6060840152610100810135608084015261012081013560a084015261014081013560c0840152896101608201351115610e3957600080fd5b610e4d8d6020610160840135840101610c13565b60e084015250908152604091909101356020808301919091529084529283019201610d56565b50835250610e88905084358501602001610cab565b6020820152949350505050565b60005b83811015610eb0578181015183820152602001610e98565b83811115610ebf576000848401525b50505050565b6020815260008251806020840152610ee4816040850160208701610e95565b601f01601f19169190910160400192915050565b600060208284031215610f0a57600080fd5b81356107ef81610b74565b6020808252825182820181905260009190848201906040850190845b81811015610f565783516001600160a01b031683529284019291840191600101610f31565b50909695505050505050565b600081518084526020808501945080840160005b83811015610fa657815180516001600160a01b031688528301518388015260409096019590820190600101610f76565b509495945050505050565b600060208083526060808401855160408085880152828251808552608094508489019150848160051b8a0101878501945060005b828110156110ac57607f198b83030184528551805186845280516001600160a01b0316878501528a81015160ff81168b8601525080870151848a015289810151805160a080870191909152602082015160c0870152604082015160e08701526060820151610100870152828b01516101208701528201516101408601525060c08101516101608086019190915260e09091015161018085019190915261108f6101a0850182610f62565b918b0151938b019390935295890195938901939150600101610fe5565b50968a0151801515848b0152969a9950505050505050505050565b6000602082840312156110d957600080fd5b815167ffffffffffffffff808211156110f157600080fd5b818401915084601f83011261110557600080fd5b81518181111561111757611117610abc565b61112a601f8201601f1916602001610b1f565b915080825285602082850101111561114157600080fd5b611152816020840160208601610e95565b50949350505050565b634e487b7160e01b600052601160045260246000fd5b60006000198214156111855761118561115b565b5060010190565b634e487b7160e01b600052603260045260246000fd5b6000602082840312156111b457600080fd5b81516107ef81610b74565b6000828210156111d1576111d161115b565b500390565b634e487b7160e01b600052603160045260246000fdfea2646970667358221220c0cc9123280ef218a690a42a4ecf5461fe34e860436491d1cc467e63faa7a23964736f6c634300080a0033","bytecodeSha1":"8ec0df02d62691a779312cd34fe6d1b03b647b1e","compiler":{"evm_version":"istanbul","optimizer":{"enabled":true,"runs":200},"version":"0.8.10+commit.fc410830"},"contractName":"RootSafetyCheck","language":"Solidity","natspec":{"kind":"dev","methods":{"addCheck(address)":{"notice":"adds a check to be performed"},"changeGovernor(address)":{"notice":"Changes the governor can only be called by the current governor"},"checkAndPersistMint((((address,uint8,uint256,(uint256,uint256,uint256,uint256),uint256,uint256,uint256,(address,uint256)[]),uint256)[],bool))":{"notice":"Checks whether a mint operation is safe This is only called when an actual mint is performed The implementation should store any relevant information for the mint","returns":{"err":"empty string if it is safe, otherwise the reason why it is not safe"}},"checkAndPersistRedeem((((address,uint8,uint256,(uint256,uint256,uint256,uint256),uint256,uint256,uint256,(address,uint256)[]),uint256)[],bool))":{"notice":"Checks whether a redeem operation is safe This is only called when an actual redeem is performed The implementation should store any relevant information for the redeem","returns":{"err":"empty string if it is safe, otherwise the reason why it is not safe"}},"getChecks()":{"returns":{"_0":"all the checks registered"}},"governor()":{"notice":"Returns the current governor"},"isMintSafe((((address,uint8,uint256,(uint256,uint256,uint256,uint256),uint256,uint256,uint256,(address,uint256)[]),uint256)[],bool))":{"notice":"Checks whether a mint operation is safe","returns":{"err":"empty string if it is safe, otherwise the reason why it is not safe"}},"isRedeemSafe((((address,uint8,uint256,(uint256,uint256,uint256,uint256),uint256,uint256,uint256,(address,uint256)[]),uint256)[],bool))":{"notice":"Checks whether a redeem operation is safe","returns":{"err":"empty string if it is safe, otherwise the reason why it is not safe"}},"removeCheck(address)":{"notice":"removes a check to be performed"}},"version":1},"opcodes":"PUSH1 0x80 PUSH1 0x40 MSTORE CALLVALUE DUP1 ISZERO PUSH2 0x10 JUMPI PUSH1 0x0 DUP1 REVERT JUMPDEST POP PUSH1 0x4 CALLDATASIZE LT PUSH2 0x9E JUMPI PUSH1 0x0 CALLDATALOAD PUSH1 0xE0 SHR DUP1 PUSH4 0x4D9A12C4 GT PUSH2 0x66 JUMPI DUP1 PUSH4 0x4D9A12C4 EQ PUSH2 0x146 JUMPI DUP1 PUSH4 0x68B23E52 EQ PUSH2 0x15B JUMPI DUP1 PUSH4 0x8D404E98 EQ PUSH2 0x16E JUMPI DUP1 PUSH4 0xC4EA1209 EQ PUSH2 0x181 JUMPI DUP1 PUSH4 0xE4C0AAF4 EQ PUSH2 0x194 JUMPI PUSH1 0x0 DUP1 REVERT JUMPDEST DUP1 PUSH4 0x71231CF EQ PUSH2 0xA3 JUMPI DUP1 PUSH4 0xC340A24 EQ PUSH2 0xCC JUMPI DUP1 PUSH4 0x29C97771 EQ PUSH2 0xF7 JUMPI DUP1 PUSH4 0x3D4D10E2 EQ PUSH2 0x10A JUMPI DUP1 PUSH4 0x44BBDB55 EQ PUSH2 0x11F JUMPI JUMPDEST PUSH1 0x0 DUP1 REVERT JUMPDEST PUSH2 0xB6 PUSH2 0xB1 CALLDATASIZE PUSH1 0x4 PUSH2 0xCBB JUMP JUMPDEST PUSH2 0x1A7 JUMP JUMPDEST PUSH1 0x40 MLOAD PUSH2 0xC3 SWAP2 SWAP1 PUSH2 0xEC5 JUMP JUMPDEST PUSH1 0x40 MLOAD DUP1 SWAP2 SUB SWAP1 RETURN JUMPDEST PUSH1 0x0 SLOAD PUSH2 0xDF SWAP1 PUSH1 0x1 PUSH1 0x1 PUSH1 0xA0 SHL SUB AND DUP2 JUMP JUMPDEST PUSH1 0x40 MLOAD PUSH1 0x1 PUSH1 0x1 PUSH1 0xA0 SHL SUB SWAP1 SWAP2 AND DUP2 MSTORE PUSH1 0x20 ADD PUSH2 0xC3 JUMP JUMPDEST PUSH2 0xB6 PUSH2 0x105 CALLDATASIZE PUSH1 0x4 PUSH2 0xCBB JUMP JUMPDEST PUSH2 0x265 JUMP JUMPDEST PUSH2 0x11D PUSH2 0x118 CALLDATASIZE PUSH1 0x4 PUSH2 0xEF8 JUMP JUMPDEST PUSH2 0x31C JUMP JUMPDEST STOP JUMPDEST PUSH2 0xDF PUSH32 0x0 DUP2 JUMP JUMPDEST PUSH2 0x14E PUSH2 0x3E7 JUMP JUMPDEST PUSH1 0x40 MLOAD PUSH2 0xC3 SWAP2 SWAP1 PUSH2 0xF15 JUMP JUMPDEST PUSH2 0x11D PUSH2 0x169 CALLDATASIZE PUSH1 0x4 PUSH2 0xEF8 JUMP JUMPDEST PUSH2 0x3F8 JUMP JUMPDEST PUSH2 0xB6 PUSH2 0x17C CALLDATASIZE PUSH1 0x4 PUSH2 0xCBB JUMP JUMPDEST PUSH2 0x4BA JUMP JUMPDEST PUSH2 0xB6 PUSH2 0x18F CALLDATASIZE PUSH1 0x4 PUSH2 0xCBB JUMP JUMPDEST PUSH2 0x5F3 JUMP JUMPDEST PUSH2 0x11D PUSH2 0x1A2 CALLDATASIZE PUSH1 0x4 PUSH2 0xEF8 JUMP JUMPDEST PUSH2 0x72C JUMP JUMPDEST PUSH1 0x60 PUSH1 0x0 PUSH2 0x1B5 PUSH1 0x1 PUSH2 0x7D3 JUMP JUMPDEST SWAP1 POP PUSH1 0x0 JUMPDEST DUP2 DUP2 LT ISZERO PUSH2 0x25E JUMPI PUSH2 0x1CD PUSH1 0x1 DUP3 PUSH2 0x7E3 JUMP JUMPDEST PUSH1 0x1 PUSH1 0x1 PUSH1 0xA0 SHL SUB AND PUSH4 0x71231CF DUP6 PUSH1 0x40 MLOAD DUP3 PUSH4 0xFFFFFFFF AND PUSH1 0xE0 SHL DUP2 MSTORE PUSH1 0x4 ADD PUSH2 0x1F8 SWAP2 SWAP1 PUSH2 0xFB1 JUMP JUMPDEST PUSH1 0x0 PUSH1 0x40 MLOAD DUP1 DUP4 SUB DUP2 DUP7 GAS STATICCALL ISZERO DUP1 ISZERO PUSH2 0x215 JUMPI RETURNDATASIZE PUSH1 0x0 DUP1 RETURNDATACOPY RETURNDATASIZE PUSH1 0x0 REVERT JUMPDEST POP POP POP POP PUSH1 0x40 MLOAD RETURNDATASIZE PUSH1 0x0 DUP3 RETURNDATACOPY PUSH1 0x1F RETURNDATASIZE SWAP1 DUP2 ADD PUSH1 0x1F NOT AND DUP3 ADD PUSH1 0x40 MSTORE PUSH2 0x23D SWAP2 SWAP1 DUP2 ADD SWAP1 PUSH2 0x10C7 JUMP JUMPDEST DUP1 MLOAD SWAP1 SWAP4 POP ISZERO PUSH2 0x24C JUMPI PUSH2 0x25E JUMP JUMPDEST DUP1 PUSH2 0x256 DUP2 PUSH2 0x1171 JUMP JUMPDEST SWAP2 POP POP PUSH2 0x1BA JUMP JUMPDEST POP POP SWAP2 SWAP1 POP JUMP JUMPDEST PUSH1 0x60 PUSH1 0x0 PUSH2 0x273 PUSH1 0x1 PUSH2 0x7D3 JUMP JUMPDEST SWAP1 POP PUSH1 0x0 JUMPDEST DUP2 DUP2 LT ISZERO PUSH2 0x25E JUMPI PUSH2 0x28B PUSH1 0x1 DUP3 PUSH2 0x7E3 JUMP JUMPDEST PUSH1 0x1 PUSH1 0x1 PUSH1 0xA0 SHL SUB AND PUSH4 0x29C97771 DUP6 PUSH1 0x40 MLOAD DUP3 PUSH4 0xFFFFFFFF AND PUSH1 0xE0 SHL DUP2 MSTORE PUSH1 0x4 ADD PUSH2 0x2B6 SWAP2 SWAP1 PUSH2 0xFB1 JUMP JUMPDEST PUSH1 0x0 PUSH1 0x40 MLOAD DUP1 DUP4 SUB DUP2 DUP7 GAS STATICCALL ISZERO DUP1 ISZERO PUSH2 0x2D3 JUMPI RETURNDATASIZE PUSH1 0x0 DUP1 RETURNDATACOPY RETURNDATASIZE PUSH1 0x0 REVERT JUMPDEST POP POP POP POP PUSH1 0x40 MLOAD RETURNDATASIZE PUSH1 0x0 DUP3 RETURNDATACOPY PUSH1 0x1F RETURNDATASIZE SWAP1 DUP2 ADD PUSH1 0x1F NOT AND DUP3 ADD PUSH1 0x40 MSTORE PUSH2 0x2FB SWAP2 SWAP1 DUP2 ADD SWAP1 PUSH2 0x10C7 JUMP JUMPDEST DUP1 MLOAD SWAP1 SWAP4 POP ISZERO PUSH2 0x30A JUMPI PUSH2 0x25E JUMP JUMPDEST DUP1 PUSH2 0x314 DUP2 PUSH2 0x1171 JUMP JUMPDEST SWAP2 POP POP PUSH2 0x278 JUMP JUMPDEST PUSH1 0x0 SLOAD PUSH1 0x40 DUP1 MLOAD DUP1 DUP3 ADD SWAP1 SWAP2 MSTORE PUSH1 0x2 DUP2 MSTORE PUSH2 0x333 PUSH1 0xF4 SHL PUSH1 0x20 DUP3 ADD MSTORE SWAP1 PUSH1 0x1 PUSH1 0x1 PUSH1 0xA0 SHL SUB AND CALLER EQ PUSH2 0x36A JUMPI PUSH1 0x40 MLOAD PUSH3 0x461BCD PUSH1 0xE5 SHL DUP2 MSTORE PUSH1 0x4 ADD PUSH2 0x361 SWAP2 SWAP1 PUSH2 0xEC5 JUMP JUMPDEST PUSH1 0x40 MLOAD DUP1 SWAP2 SUB SWAP1 REVERT JUMPDEST POP PUSH2 0x376 PUSH1 0x1 DUP3 PUSH2 0x7F6 JUMP JUMPDEST PUSH1 0x40 MLOAD DUP1 PUSH1 0x40 ADD PUSH1 0x40 MSTORE DUP1 PUSH1 0x2 DUP2 MSTORE PUSH1 0x20 ADD PUSH2 0x3331 PUSH1 0xF0 SHL DUP2 MSTORE POP SWAP1 PUSH2 0x3AF JUMPI PUSH1 0x40 MLOAD PUSH3 0x461BCD PUSH1 0xE5 SHL DUP2 MSTORE PUSH1 0x4 ADD PUSH2 0x361 SWAP2 SWAP1 PUSH2 0xEC5 JUMP JUMPDEST POP PUSH1 0x40 MLOAD PUSH1 0x1 PUSH1 0x1 PUSH1 0xA0 SHL SUB DUP3 AND SWAP1 PUSH32 0x75EC3EF6C1AFB45DD0A2BBB3A4F14CAC03241C33FC24C352E25EA690E22A9232 SWAP1 PUSH1 0x0 SWAP1 LOG2 POP JUMP JUMPDEST PUSH1 0x60 PUSH2 0x3F3 PUSH1 0x1 PUSH2 0x80B JUMP JUMPDEST SWAP1 POP SWAP1 JUMP JUMPDEST PUSH1 0x0 SLOAD PUSH1 0x40 DUP1 MLOAD DUP1 DUP3 ADD SWAP1 SWAP2 MSTORE PUSH1 0x2 DUP2 MSTORE PUSH2 0x333 PUSH1 0xF4 SHL PUSH1 0x20 DUP3 ADD MSTORE SWAP1 PUSH1 0x1 PUSH1 0x1 PUSH1 0xA0 SHL SUB AND CALLER EQ PUSH2 0x43D JUMPI PUSH1 0x40 MLOAD PUSH3 0x461BCD PUSH1 0xE5 SHL DUP2 MSTORE PUSH1 0x4 ADD PUSH2 0x361 SWAP2 SWAP1 PUSH2 0xEC5 JUMP JUMPDEST POP PUSH2 0x449 PUSH1 0x1 DUP3 PUSH2 0x8BA JUMP JUMPDEST PUSH1 0x40 MLOAD DUP1 PUSH1 0x40 ADD PUSH1 0x40 MSTORE DUP1 PUSH1 0x2 DUP2 MSTORE PUSH1 0x20 ADD PUSH2 0x3331 PUSH1 0xF0 SHL DUP2 MSTORE POP SWAP1 PUSH2 0x482 JUMPI PUSH1 0x40 MLOAD PUSH3 0x461BCD PUSH1 0xE5 SHL DUP2 MSTORE PUSH1 0x4 ADD PUSH2 0x361 SWAP2 SWAP1 PUSH2 0xEC5 JUMP JUMPDEST POP PUSH1 0x40 MLOAD PUSH1 0x1 PUSH1 0x1 PUSH1 0xA0 SHL SUB DUP3 AND SWAP1 PUSH32 0xD37223475C04A60E97EB30BC3A38B4AEF6A37DEF09D1ED6B88C881847362426D SWAP1 PUSH1 0x0 SWAP1 LOG2 POP JUMP JUMPDEST PUSH1 0x60 PUSH2 0x4EE PUSH32 0x0 PUSH1 0x1 PUSH1 0x1 PUSH1 0xA0 SHL SUB AND PUSH2 0x8CF JUMP JUMPDEST PUSH1 0x1 PUSH1 0x1 PUSH1 0xA0 SHL SUB AND CALLER PUSH1 0x1 PUSH1 0x1 PUSH1 0xA0 SHL SUB AND EQ PUSH1 0x40 MLOAD DUP1 PUSH1 0x40 ADD PUSH1 0x40 MSTORE DUP1 PUSH1 0x2 DUP2 MSTORE PUSH1 0x20 ADD PUSH2 0x333 PUSH1 0xF4 SHL DUP2 MSTORE POP SWAP1 PUSH2 0x53B JUMPI PUSH1 0x40 MLOAD PUSH3 0x461BCD PUSH1 0xE5 SHL DUP2 MSTORE PUSH1 0x4 ADD PUSH2 0x361 SWAP2 SWAP1 PUSH2 0xEC5 JUMP JUMPDEST POP PUSH1 0x0 PUSH2 0x548 PUSH1 0x1 PUSH2 0x7D3 JUMP JUMPDEST SWAP1 POP PUSH1 0x0 JUMPDEST DUP2 DUP2 LT ISZERO PUSH2 0x25E JUMPI PUSH2 0x560 PUSH1 0x1 DUP3 PUSH2 0x7E3 JUMP JUMPDEST PUSH1 0x1 PUSH1 0x1 PUSH1 0xA0 SHL SUB AND PUSH4 0x8D404E98 DUP6 PUSH1 0x40 MLOAD DUP3 PUSH4 0xFFFFFFFF AND PUSH1 0xE0 SHL DUP2 MSTORE PUSH1 0x4 ADD PUSH2 0x58B SWAP2 SWAP1 PUSH2 0xFB1 JUMP JUMPDEST PUSH1 0x0 PUSH1 0x40 MLOAD DUP1 DUP4 SUB DUP2 PUSH1 0x0 DUP8 GAS CALL ISZERO DUP1 ISZERO PUSH2 0x5AA JUMPI RETURNDATASIZE PUSH1 0x0 DUP1 RETURNDATACOPY RETURNDATASIZE PUSH1 0x0 REVERT JUMPDEST POP POP POP POP PUSH1 0x40 MLOAD RETURNDATASIZE PUSH1 0x0 DUP3 RETURNDATACOPY PUSH1 0x1F RETURNDATASIZE SWAP1 DUP2 ADD PUSH1 0x1F NOT AND DUP3 ADD PUSH1 0x40 MSTORE PUSH2 0x5D2 SWAP2 SWAP1 DUP2 ADD SWAP1 PUSH2 0x10C7 JUMP JUMPDEST DUP1 MLOAD SWAP1 SWAP4 POP ISZERO PUSH2 0x5E1 JUMPI PUSH2 0x25E JUMP JUMPDEST DUP1 PUSH2 0x5EB DUP2 PUSH2 0x1171 JUMP JUMPDEST SWAP2 POP POP PUSH2 0x54D JUMP JUMPDEST PUSH1 0x60 PUSH2 0x627 PUSH32 0x0 PUSH1 0x1 PUSH1 0x1 PUSH1 0xA0 SHL SUB AND PUSH2 0x8CF JUMP JUMPDEST PUSH1 0x1 PUSH1 0x1 PUSH1 0xA0 SHL SUB AND CALLER PUSH1 0x1 PUSH1 0x1 PUSH1 0xA0 SHL SUB AND EQ PUSH1 0x40 MLOAD DUP1 PUSH1 0x40 ADD PUSH1 0x40 MSTORE DUP1 PUSH1 0x2 DUP2 MSTORE PUSH1 0x20 ADD PUSH2 0x333 PUSH1 0xF4 SHL DUP2 MSTORE POP SWAP1 PUSH2 0x674 JUMPI PUSH1 0x40 MLOAD PUSH3 0x461BCD PUSH1 0xE5 SHL DUP2 MSTORE PUSH1 0x4 ADD PUSH2 0x361 SWAP2 SWAP1 PUSH2 0xEC5 JUMP JUMPDEST POP PUSH1 0x0 PUSH2 0x681 PUSH1 0x1 PUSH2 0x7D3 JUMP JUMPDEST SWAP1 POP PUSH1 0x0 JUMPDEST DUP2 DUP2 LT ISZERO PUSH2 0x25E JUMPI PUSH2 0x699 PUSH1 0x1 DUP3 PUSH2 0x7E3 JUMP JUMPDEST PUSH1 0x1 PUSH1 0x1 PUSH1 0xA0 SHL SUB AND PUSH4 0xC4EA1209 DUP6 PUSH1 0x40 MLOAD DUP3 PUSH4 0xFFFFFFFF AND PUSH1 0xE0 SHL DUP2 MSTORE PUSH1 0x4 ADD PUSH2 0x6C4 SWAP2 SWAP1 PUSH2 0xFB1 JUMP JUMPDEST PUSH1 0x0 PUSH1 0x40 MLOAD DUP1 DUP4 SUB DUP2 PUSH1 0x0 DUP8 GAS CALL ISZERO DUP1 ISZERO PUSH2 0x6E3 JUMPI RETURNDATASIZE PUSH1 0x0 DUP1 RETURNDATACOPY RETURNDATASIZE PUSH1 0x0 REVERT JUMPDEST POP POP POP POP PUSH1 0x40 MLOAD RETURNDATASIZE PUSH1 0x0 DUP3 RETURNDATACOPY PUSH1 0x1F RETURNDATASIZE SWAP1 DUP2 ADD PUSH1 0x1F NOT AND DUP3 ADD PUSH1 0x40 MSTORE PUSH2 0x70B SWAP2 SWAP1 DUP2 ADD SWAP1 PUSH2 0x10C7 JUMP JUMPDEST DUP1 MLOAD SWAP1 SWAP4 POP ISZERO PUSH2 0x71A JUMPI PUSH2 0x25E JUMP JUMPDEST DUP1 PUSH2 0x724 DUP2 PUSH2 0x1171 JUMP JUMPDEST SWAP2 POP POP PUSH2 0x686 JUMP JUMPDEST PUSH1 0x0 SLOAD PUSH1 0x40 DUP1 MLOAD DUP1 DUP3 ADD SWAP1 SWAP2 MSTORE PUSH1 0x2 DUP2 MSTORE PUSH2 0x333 PUSH1 0xF4 SHL PUSH1 0x20 DUP3 ADD MSTORE SWAP1 PUSH1 0x1 PUSH1 0x1 PUSH1 0xA0 SHL SUB AND CALLER EQ PUSH2 0x771 JUMPI PUSH1 0x40 MLOAD PUSH3 0x461BCD PUSH1 0xE5 SHL DUP2 MSTORE PUSH1 0x4 ADD PUSH2 0x361 SWAP2 SWAP1 PUSH2 0xEC5 JUMP JUMPDEST POP PUSH1 0x0 DUP1 SLOAD PUSH1 0x1 PUSH1 0x1 PUSH1 0xA0 SHL SUB DUP4 DUP2 AND PUSH1 0x1 PUSH1 0x1 PUSH1 0xA0 SHL SUB NOT DUP4 AND DUP2 OR SWAP1 SWAP4 SSTORE PUSH1 0x40 DUP1 MLOAD SWAP2 SWAP1 SWAP3 AND DUP1 DUP3 MSTORE PUSH1 0x20 DUP3 ADD SWAP4 SWAP1 SWAP4 MSTORE PUSH32 0xDE4B3F61490B74C0ED6237523974FE299126BBBF8A8A7482FD220104C59B0C84 SWAP2 ADD PUSH1 0x40 MLOAD DUP1 SWAP2 SUB SWAP1 LOG1 POP POP JUMP JUMPDEST PUSH1 0x0 PUSH2 0x7DD DUP3 SLOAD SWAP1 JUMP JUMPDEST SWAP3 SWAP2 POP POP JUMP JUMPDEST PUSH1 0x0 PUSH2 0x7EF DUP4 DUP4 PUSH2 0x950 JUMP JUMPDEST SWAP4 SWAP3 POP POP POP JUMP JUMPDEST PUSH1 0x0 PUSH2 0x7EF DUP4 PUSH1 0x1 PUSH1 0x1 PUSH1 0xA0 SHL SUB DUP5 AND PUSH2 0x97A JUMP JUMPDEST PUSH1 0x60 PUSH1 0x0 PUSH2 0x818 DUP4 PUSH2 0x7D3 JUMP JUMPDEST SWAP1 POP PUSH1 0x0 DUP2 PUSH8 0xFFFFFFFFFFFFFFFF DUP2 GT ISZERO PUSH2 0x835 JUMPI PUSH2 0x835 PUSH2 0xABC JUMP JUMPDEST PUSH1 0x40 MLOAD SWAP1 DUP1 DUP3 MSTORE DUP1 PUSH1 0x20 MUL PUSH1 0x20 ADD DUP3 ADD PUSH1 0x40 MSTORE DUP1 ISZERO PUSH2 0x85E JUMPI DUP2 PUSH1 0x20 ADD PUSH1 0x20 DUP3 MUL DUP1 CALLDATASIZE DUP4 CALLDATACOPY ADD SWAP1 POP JUMPDEST POP SWAP1 POP PUSH1 0x0 JUMPDEST DUP3 DUP2 LT ISZERO PUSH2 0x8B2 JUMPI PUSH2 0x876 DUP6 DUP3 PUSH2 0x7E3 JUMP JUMPDEST DUP3 DUP3 DUP2 MLOAD DUP2 LT PUSH2 0x888 JUMPI PUSH2 0x888 PUSH2 0x118C JUMP JUMPDEST PUSH1 0x1 PUSH1 0x1 PUSH1 0xA0 SHL SUB SWAP1 SWAP3 AND PUSH1 0x20 SWAP3 DUP4 MUL SWAP2 SWAP1 SWAP2 ADD SWAP1 SWAP2 ADD MSTORE DUP1 PUSH2 0x8AA DUP2 PUSH2 0x1171 JUMP JUMPDEST SWAP2 POP POP PUSH2 0x864 JUMP JUMPDEST POP SWAP4 SWAP3 POP POP POP JUMP JUMPDEST PUSH1 0x0 PUSH2 0x7EF DUP4 PUSH1 0x1 PUSH1 0x1 PUSH1 0xA0 SHL SUB DUP5 AND PUSH2 0x9C9 JUMP JUMPDEST PUSH1 0x40 MLOAD PUSH4 0x21F8A721 PUSH1 0xE0 SHL DUP2 MSTORE PUSH19 0x4D4F54484552424F4152445F41444452455353 PUSH1 0x68 SHL PUSH1 0x4 DUP3 ADD MSTORE PUSH1 0x0 SWAP1 PUSH1 0x1 PUSH1 0x1 PUSH1 0xA0 SHL SUB DUP4 AND SWAP1 PUSH4 0x21F8A721 SWAP1 PUSH1 0x24 ADD PUSH1 0x20 PUSH1 0x40 MLOAD DUP1 DUP4 SUB DUP2 DUP7 GAS STATICCALL ISZERO DUP1 ISZERO PUSH2 0x92C JUMPI RETURNDATASIZE PUSH1 0x0 DUP1 RETURNDATACOPY RETURNDATASIZE PUSH1 0x0 REVERT JUMPDEST POP POP POP POP PUSH1 0x40 MLOAD RETURNDATASIZE PUSH1 0x1F NOT PUSH1 0x1F DUP3 ADD AND DUP3 ADD DUP1 PUSH1 0x40 MSTORE POP DUP2 ADD SWAP1 PUSH2 0x7DD SWAP2 SWAP1 PUSH2 0x11A2 JUMP JUMPDEST PUSH1 0x0 DUP3 PUSH1 0x0 ADD DUP3 DUP2 SLOAD DUP2 LT PUSH2 0x967 JUMPI PUSH2 0x967 PUSH2 0x118C JUMP JUMPDEST SWAP1 PUSH1 0x0 MSTORE PUSH1 0x20 PUSH1 0x0 KECCAK256 ADD SLOAD SWAP1 POP SWAP3 SWAP2 POP POP JUMP JUMPDEST PUSH1 0x0 DUP2 DUP2 MSTORE PUSH1 0x1 DUP4 ADD PUSH1 0x20 MSTORE PUSH1 0x40 DUP2 KECCAK256 SLOAD PUSH2 0x9C1 JUMPI POP DUP2 SLOAD PUSH1 0x1 DUP2 DUP2 ADD DUP5 SSTORE PUSH1 0x0 DUP5 DUP2 MSTORE PUSH1 0x20 DUP1 DUP3 KECCAK256 SWAP1 SWAP4 ADD DUP5 SWAP1 SSTORE DUP5 SLOAD DUP5 DUP3 MSTORE DUP3 DUP7 ADD SWAP1 SWAP4 MSTORE PUSH1 0x40 SWAP1 KECCAK256 SWAP2 SWAP1 SWAP2 SSTORE PUSH2 0x7DD JUMP JUMPDEST POP PUSH1 0x0 PUSH2 0x7DD JUMP JUMPDEST PUSH1 0x0 DUP2 DUP2 MSTORE PUSH1 0x1 DUP4 ADD PUSH1 0x20 MSTORE PUSH1 0x40 DUP2 KECCAK256 SLOAD DUP1 ISZERO PUSH2 0xAB2 JUMPI PUSH1 0x0 PUSH2 0x9ED PUSH1 0x1 DUP4 PUSH2 0x11BF JUMP JUMPDEST DUP6 SLOAD SWAP1 SWAP2 POP PUSH1 0x0 SWAP1 PUSH2 0xA01 SWAP1 PUSH1 0x1 SWAP1 PUSH2 0x11BF JUMP JUMPDEST SWAP1 POP DUP2 DUP2 EQ PUSH2 0xA66 JUMPI PUSH1 0x0 DUP7 PUSH1 0x0 ADD DUP3 DUP2 SLOAD DUP2 LT PUSH2 0xA21 JUMPI PUSH2 0xA21 PUSH2 0x118C JUMP JUMPDEST SWAP1 PUSH1 0x0 MSTORE PUSH1 0x20 PUSH1 0x0 KECCAK256 ADD SLOAD SWAP1 POP DUP1 DUP8 PUSH1 0x0 ADD DUP5 DUP2 SLOAD DUP2 LT PUSH2 0xA44 JUMPI PUSH2 0xA44 PUSH2 0x118C JUMP JUMPDEST PUSH1 0x0 SWAP2 DUP3 MSTORE PUSH1 0x20 DUP1 DUP4 KECCAK256 SWAP1 SWAP2 ADD SWAP3 SWAP1 SWAP3 SSTORE SWAP2 DUP3 MSTORE PUSH1 0x1 DUP9 ADD SWAP1 MSTORE PUSH1 0x40 SWAP1 KECCAK256 DUP4 SWAP1 SSTORE JUMPDEST DUP6 SLOAD DUP7 SWAP1 DUP1 PUSH2 0xA77 JUMPI PUSH2 0xA77 PUSH2 0x11D6 JUMP JUMPDEST PUSH1 0x1 SWAP1 SUB DUP2 DUP2 SWAP1 PUSH1 0x0 MSTORE PUSH1 0x20 PUSH1 0x0 KECCAK256 ADD PUSH1 0x0 SWAP1 SSTORE SWAP1 SSTORE DUP6 PUSH1 0x1 ADD PUSH1 0x0 DUP7 DUP2 MSTORE PUSH1 0x20 ADD SWAP1 DUP2 MSTORE PUSH1 0x20 ADD PUSH1 0x0 KECCAK256 PUSH1 0x0 SWAP1 SSTORE PUSH1 0x1 SWAP4 POP POP POP POP PUSH2 0x7DD JUMP JUMPDEST PUSH1 0x0 SWAP2 POP POP PUSH2 0x7DD JUMP JUMPDEST PUSH4 0x4E487B71 PUSH1 0xE0 SHL PUSH1 0x0 MSTORE PUSH1 0x41 PUSH1 0x4 MSTORE PUSH1 0x24 PUSH1 0x0 REVERT JUMPDEST PUSH1 0x40 DUP1 MLOAD SWAP1 DUP2 ADD PUSH8 0xFFFFFFFFFFFFFFFF DUP2 GT DUP3 DUP3 LT OR ISZERO PUSH2 0xAF5 JUMPI PUSH2 0xAF5 PUSH2 0xABC JUMP JUMPDEST PUSH1 0x40 MSTORE SWAP1 JUMP JUMPDEST PUSH1 0x40 MLOAD PUSH2 0x100 DUP2 ADD PUSH8 0xFFFFFFFFFFFFFFFF DUP2 GT DUP3 DUP3 LT OR ISZERO PUSH2 0xAF5 JUMPI PUSH2 0xAF5 PUSH2 0xABC JUMP JUMPDEST PUSH1 0x40 MLOAD PUSH1 0x1F DUP3 ADD PUSH1 0x1F NOT AND DUP2 ADD PUSH8 0xFFFFFFFFFFFFFFFF DUP2 GT DUP3 DUP3 LT OR ISZERO PUSH2 0xB48 JUMPI PUSH2 0xB48 PUSH2 0xABC JUMP JUMPDEST PUSH1 0x40 MSTORE SWAP2 SWAP1 POP JUMP JUMPDEST PUSH1 0x0 PUSH8 0xFFFFFFFFFFFFFFFF DUP3 GT ISZERO PUSH2 0xB6A JUMPI PUSH2 0xB6A PUSH2 0xABC JUMP JUMPDEST POP PUSH1 0x5 SHL PUSH1 0x20 ADD SWAP1 JUMP JUMPDEST PUSH1 0x1 PUSH1 0x1 PUSH1 0xA0 SHL SUB DUP2 AND DUP2 EQ PUSH2 0xB89 JUMPI PUSH1 0x0 DUP1 REVERT JUMPDEST POP JUMP JUMPDEST DUP1 CALLDATALOAD PUSH2 0xB97 DUP2 PUSH2 0xB74 JUMP JUMPDEST SWAP2 SWAP1 POP JUMP JUMPDEST DUP1 CALLDATALOAD PUSH1 0xFF DUP2 AND DUP2 EQ PUSH2 0xB97 JUMPI PUSH1 0x0 DUP1 REVERT JUMPDEST PUSH1 0x0 PUSH1 0x80 DUP3 DUP5 SUB SLT ISZERO PUSH2 0xBBF JUMPI PUSH1 0x0 DUP1 REVERT JUMPDEST PUSH1 0x40 MLOAD PUSH1 0x80 DUP2 ADD DUP2 DUP2 LT PUSH8 0xFFFFFFFFFFFFFFFF DUP3 GT OR ISZERO PUSH2 0xBE2 JUMPI PUSH2 0xBE2 PUSH2 0xABC JUMP JUMPDEST DUP1 PUSH1 0x40 MSTORE POP DUP1 SWAP2 POP DUP3 CALLDATALOAD DUP2 MSTORE PUSH1 0x20 DUP4 ADD CALLDATALOAD PUSH1 0x20 DUP3 ADD MSTORE PUSH1 0x40 DUP4 ADD CALLDATALOAD PUSH1 0x40 DUP3 ADD MSTORE PUSH1 0x60 DUP4 ADD CALLDATALOAD PUSH1 0x60 DUP3 ADD MSTORE POP SWAP3 SWAP2 POP POP JUMP JUMPDEST PUSH1 0x0 DUP3 PUSH1 0x1F DUP4 ADD SLT PUSH2 0xC24 JUMPI PUSH1 0x0 DUP1 REVERT JUMPDEST DUP2 CALLDATALOAD PUSH1 0x20 PUSH2 0xC39 PUSH2 0xC34 DUP4 PUSH2 0xB50 JUMP JUMPDEST PUSH2 0xB1F JUMP JUMPDEST DUP3 DUP2 MSTORE PUSH1 0x6 SWAP3 SWAP1 SWAP3 SHL DUP5 ADD DUP2 ADD SWAP2 DUP2 DUP2 ADD SWAP1 DUP7 DUP5 GT ISZERO PUSH2 0xC58 JUMPI PUSH1 0x0 DUP1 REVERT JUMPDEST DUP3 DUP7 ADD JUMPDEST DUP5 DUP2 LT ISZERO PUSH2 0xCA0 JUMPI PUSH1 0x40 DUP2 DUP10 SUB SLT ISZERO PUSH2 0xC75 JUMPI PUSH1 0x0 DUP1 DUP2 REVERT JUMPDEST PUSH2 0xC7D PUSH2 0xAD2 JUMP JUMPDEST DUP2 CALLDATALOAD PUSH2 0xC88 DUP2 PUSH2 0xB74 JUMP JUMPDEST DUP2 MSTORE DUP2 DUP6 ADD CALLDATALOAD DUP6 DUP3 ADD MSTORE DUP4 MSTORE SWAP2 DUP4 ADD SWAP2 PUSH1 0x40 ADD PUSH2 0xC5C JUMP JUMPDEST POP SWAP7 SWAP6 POP POP POP POP POP POP JUMP JUMPDEST DUP1 CALLDATALOAD DUP1 ISZERO ISZERO DUP2 EQ PUSH2 0xB97 JUMPI PUSH1 0x0 DUP1 REVERT JUMPDEST PUSH1 0x0 PUSH1 0x20 DUP3 DUP5 SUB SLT ISZERO PUSH2 0xCCD JUMPI PUSH1 0x0 DUP1 REVERT JUMPDEST PUSH8 0xFFFFFFFFFFFFFFFF DUP1 DUP4 CALLDATALOAD GT ISZERO PUSH2 0xCE4 JUMPI PUSH1 0x0 DUP1 REVERT JUMPDEST PUSH1 0x40 DUP4 CALLDATALOAD DUP5 ADD DUP6 SUB SLT ISZERO PUSH2 0xCF7 JUMPI PUSH1 0x0 DUP1 REVERT JUMPDEST PUSH2 0xCFF PUSH2 0xAD2 JUMP JUMPDEST DUP2 DUP5 CALLDATALOAD DUP6 ADD CALLDATALOAD GT ISZERO PUSH2 0xD10 JUMPI PUSH1 0x0 DUP1 REVERT JUMPDEST DUP4 CALLDATALOAD DUP5 ADD DUP1 CALLDATALOAD ADD PUSH1 0x1F DUP2 ADD DUP7 SGT PUSH2 0xD26 JUMPI PUSH1 0x0 DUP1 REVERT JUMPDEST PUSH2 0xD33 PUSH2 0xC34 DUP3 CALLDATALOAD PUSH2 0xB50 JUMP JUMPDEST DUP2 CALLDATALOAD DUP1 DUP3 MSTORE PUSH1 0x20 DUP1 DUP4 ADD SWAP3 SWAP2 PUSH1 0x5 SHL DUP5 ADD ADD DUP9 LT ISZERO PUSH2 0xD51 JUMPI PUSH1 0x0 DUP1 REVERT JUMPDEST PUSH1 0x20 DUP4 ADD JUMPDEST PUSH1 0x20 DUP5 CALLDATALOAD PUSH1 0x5 SHL DUP6 ADD ADD DUP2 LT ISZERO PUSH2 0xE73 JUMPI DUP6 DUP2 CALLDATALOAD GT ISZERO PUSH2 0xD75 JUMPI PUSH1 0x0 DUP1 REVERT JUMPDEST DUP1 CALLDATALOAD DUP5 ADD PUSH1 0x1F NOT PUSH1 0x40 DUP3 DUP13 SUB DUP3 ADD SLT ISZERO PUSH2 0xD8E JUMPI PUSH1 0x0 DUP1 REVERT JUMPDEST PUSH2 0xD96 PUSH2 0xAD2 JUMP JUMPDEST DUP9 PUSH1 0x20 DUP5 ADD CALLDATALOAD GT ISZERO PUSH2 0xDA7 JUMPI PUSH1 0x0 DUP1 REVERT JUMPDEST PUSH1 0x20 DUP4 ADD CALLDATALOAD DUP4 ADD PUSH2 0x160 DUP4 DUP3 DUP16 SUB ADD SLT ISZERO PUSH2 0xDC1 JUMPI PUSH1 0x0 DUP1 REVERT JUMPDEST PUSH2 0xDC9 PUSH2 0xAFB JUMP JUMPDEST SWAP3 POP PUSH2 0xDD7 PUSH1 0x20 DUP3 ADD PUSH2 0xB8C JUMP JUMPDEST DUP4 MSTORE PUSH2 0xDE5 PUSH1 0x40 DUP3 ADD PUSH2 0xB9C JUMP JUMPDEST PUSH1 0x20 DUP5 ADD MSTORE PUSH1 0x60 DUP2 ADD CALLDATALOAD PUSH1 0x40 DUP5 ADD MSTORE PUSH2 0xE01 DUP14 PUSH1 0x80 DUP4 ADD PUSH2 0xBAD JUMP JUMPDEST PUSH1 0x60 DUP5 ADD MSTORE PUSH2 0x100 DUP2 ADD CALLDATALOAD PUSH1 0x80 DUP5 ADD MSTORE PUSH2 0x120 DUP2 ADD CALLDATALOAD PUSH1 0xA0 DUP5 ADD MSTORE PUSH2 0x140 DUP2 ADD CALLDATALOAD PUSH1 0xC0 DUP5 ADD MSTORE DUP10 PUSH2 0x160 DUP3 ADD CALLDATALOAD GT ISZERO PUSH2 0xE39 JUMPI PUSH1 0x0 DUP1 REVERT JUMPDEST PUSH2 0xE4D DUP14 PUSH1 0x20 PUSH2 0x160 DUP5 ADD CALLDATALOAD DUP5 ADD ADD PUSH2 0xC13 JUMP JUMPDEST PUSH1 0xE0 DUP5 ADD MSTORE POP SWAP1 DUP2 MSTORE PUSH1 0x40 SWAP2 SWAP1 SWAP2 ADD CALLDATALOAD PUSH1 0x20 DUP1 DUP4 ADD SWAP2 SWAP1 SWAP2 MSTORE SWAP1 DUP5 MSTORE SWAP3 DUP4 ADD SWAP3 ADD PUSH2 0xD56 JUMP JUMPDEST POP DUP4 MSTORE POP PUSH2 0xE88 SWAP1 POP DUP5 CALLDATALOAD DUP6 ADD PUSH1 0x20 ADD PUSH2 0xCAB JUMP JUMPDEST PUSH1 0x20 DUP3 ADD MSTORE SWAP5 SWAP4 POP POP POP POP JUMP JUMPDEST PUSH1 0x0 JUMPDEST DUP4 DUP2 LT ISZERO PUSH2 0xEB0 JUMPI DUP2 DUP2 ADD MLOAD DUP4 DUP3 ADD MSTORE PUSH1 0x20 ADD PUSH2 0xE98 JUMP JUMPDEST DUP4 DUP2 GT ISZERO PUSH2 0xEBF JUMPI PUSH1 0x0 DUP5 DUP5 ADD MSTORE JUMPDEST POP POP POP POP JUMP JUMPDEST PUSH1 0x20 DUP2 MSTORE PUSH1 0x0 DUP3 MLOAD DUP1 PUSH1 0x20 DUP5 ADD MSTORE PUSH2 0xEE4 DUP2 PUSH1 0x40 DUP6 ADD PUSH1 0x20 DUP8 ADD PUSH2 0xE95 JUMP JUMPDEST PUSH1 0x1F ADD PUSH1 0x1F NOT AND SWAP2 SWAP1 SWAP2 ADD PUSH1 0x40 ADD SWAP3 SWAP2 POP POP JUMP JUMPDEST PUSH1 0x0 PUSH1 0x20 DUP3 DUP5 SUB SLT ISZERO PUSH2 0xF0A JUMPI PUSH1 0x0 DUP1 REVERT JUMPDEST DUP2 CALLDATALOAD PUSH2 0x7EF DUP2 PUSH2 0xB74 JUMP JUMPDEST PUSH1 0x20 DUP1 DUP3 MSTORE DUP3 MLOAD DUP3 DUP3 ADD DUP2 SWAP1 MSTORE PUSH1 0x0 SWAP2 SWAP1 DUP5 DUP3 ADD SWAP1 PUSH1 0x40 DUP6 ADD SWAP1 DUP5 JUMPDEST DUP2 DUP2 LT ISZERO PUSH2 0xF56 JUMPI DUP4 MLOAD PUSH1 0x1 PUSH1 0x1 PUSH1 0xA0 SHL SUB AND DUP4 MSTORE SWAP3 DUP5 ADD SWAP3 SWAP2 DUP5 ADD SWAP2 PUSH1 0x1 ADD PUSH2 0xF31 JUMP JUMPDEST POP SWAP1 SWAP7 SWAP6 POP POP POP POP POP POP JUMP JUMPDEST PUSH1 0x0 DUP2 MLOAD DUP1 DUP5 MSTORE PUSH1 0x20 DUP1 DUP6 ADD SWAP5 POP DUP1 DUP5 ADD PUSH1 0x0 JUMPDEST DUP4 DUP2 LT ISZERO PUSH2 0xFA6 JUMPI DUP2 MLOAD DUP1 MLOAD PUSH1 0x1 PUSH1 0x1 PUSH1 0xA0 SHL SUB AND DUP9 MSTORE DUP4 ADD MLOAD DUP4 DUP9 ADD MSTORE PUSH1 0x40 SWAP1 SWAP7 ADD SWAP6 SWAP1 DUP3 ADD SWAP1 PUSH1 0x1 ADD PUSH2 0xF76 JUMP JUMPDEST POP SWAP5 SWAP6 SWAP5 POP POP POP POP POP JUMP JUMPDEST PUSH1 0x0 PUSH1 0x20 DUP1 DUP4 MSTORE PUSH1 0x60 DUP1 DUP5 ADD DUP6 MLOAD PUSH1 0x40 DUP1 DUP6 DUP9 ADD MSTORE DUP3 DUP3 MLOAD DUP1 DUP6 MSTORE PUSH1 0x80 SWAP5 POP DUP5 DUP10 ADD SWAP2 POP DUP5 DUP2 PUSH1 0x5 SHL DUP11 ADD ADD DUP8 DUP6 ADD SWAP5 POP PUSH1 0x0 JUMPDEST DUP3 DUP2 LT ISZERO PUSH2 0x10AC JUMPI PUSH1 0x7F NOT DUP12 DUP4 SUB ADD DUP5 MSTORE DUP6 MLOAD DUP1 MLOAD DUP7 DUP5 MSTORE DUP1 MLOAD PUSH1 0x1 PUSH1 0x1 PUSH1 0xA0 SHL SUB AND DUP8 DUP6 ADD MSTORE DUP11 DUP2 ADD MLOAD PUSH1 0xFF DUP2 AND DUP12 DUP7 ADD MSTORE POP DUP1 DUP8 ADD MLOAD DUP5 DUP11 ADD MSTORE DUP10 DUP2 ADD MLOAD DUP1 MLOAD PUSH1 0xA0 DUP1 DUP8 ADD SWAP2 SWAP1 SWAP2 MSTORE PUSH1 0x20 DUP3 ADD MLOAD PUSH1 0xC0 DUP8 ADD MSTORE PUSH1 0x40 DUP3 ADD MLOAD PUSH1 0xE0 DUP8 ADD MSTORE PUSH1 0x60 DUP3 ADD MLOAD PUSH2 0x100 DUP8 ADD MSTORE DUP3 DUP12 ADD MLOAD PUSH2 0x120 DUP8 ADD MSTORE DUP3 ADD MLOAD PUSH2 0x140 DUP7 ADD MSTORE POP PUSH1 0xC0 DUP2 ADD MLOAD PUSH2 0x160 DUP1 DUP7 ADD SWAP2 SWAP1 SWAP2 MSTORE PUSH1 0xE0 SWAP1 SWAP2 ADD MLOAD PUSH2 0x180 DUP6 ADD SWAP2 SWAP1 SWAP2 MSTORE PUSH2 0x108F PUSH2 0x1A0 DUP6 ADD DUP3 PUSH2 0xF62 JUMP JUMPDEST SWAP2 DUP12 ADD MLOAD SWAP4 DUP12 ADD SWAP4 SWAP1 SWAP4 MSTORE SWAP6 DUP10 ADD SWAP6 SWAP4 DUP10 ADD SWAP4 SWAP2 POP PUSH1 0x1 ADD PUSH2 0xFE5 JUMP JUMPDEST POP SWAP7 DUP11 ADD MLOAD DUP1 ISZERO ISZERO DUP5 DUP12 ADD MSTORE SWAP7 SWAP11 SWAP10 POP POP POP POP POP POP POP POP POP POP JUMP JUMPDEST PUSH1 0x0 PUSH1 0x20 DUP3 DUP5 SUB SLT ISZERO PUSH2 0x10D9 JUMPI PUSH1 0x0 DUP1 REVERT JUMPDEST DUP2 MLOAD PUSH8 0xFFFFFFFFFFFFFFFF DUP1 DUP3 GT ISZERO PUSH2 0x10F1 JUMPI PUSH1 0x0 DUP1 REVERT JUMPDEST DUP2 DUP5 ADD SWAP2 POP DUP5 PUSH1 0x1F DUP4 ADD SLT PUSH2 0x1105 JUMPI PUSH1 0x0 DUP1 REVERT JUMPDEST DUP2 MLOAD DUP2 DUP2 GT ISZERO PUSH2 0x1117 JUMPI PUSH2 0x1117 PUSH2 0xABC JUMP JUMPDEST PUSH2 0x112A PUSH1 0x1F DUP3 ADD PUSH1 0x1F NOT AND PUSH1 0x20 ADD PUSH2 0xB1F JUMP JUMPDEST SWAP2 POP DUP1 DUP3 MSTORE DUP6 PUSH1 0x20 DUP3 DUP6 ADD ADD GT ISZERO PUSH2 0x1141 JUMPI PUSH1 0x0 DUP1 REVERT JUMPDEST PUSH2 0x1152 DUP2 PUSH1 0x20 DUP5 ADD PUSH1 0x20 DUP7 ADD PUSH2 0xE95 JUMP JUMPDEST POP SWAP5 SWAP4 POP POP POP POP JUMP JUMPDEST PUSH4 0x4E487B71 PUSH1 0xE0 SHL PUSH1 0x0 MSTORE PUSH1 0x11 PUSH1 0x4 MSTORE PUSH1 0x24 PUSH1 0x0 REVERT JUMPDEST PUSH1 0x0 PUSH1 0x0 NOT DUP3 EQ ISZERO PUSH2 0x1185 JUMPI PUSH2 0x1185 PUSH2 0x115B JUMP JUMPDEST POP PUSH1 0x1 ADD SWAP1 JUMP JUMPDEST PUSH4 0x4E487B71 PUSH1 0xE0 SHL PUSH1 0x0 MSTORE PUSH1 0x32 PUSH1 0x4 MSTORE PUSH1 0x24 PUSH1 0x0 REVERT JUMPDEST PUSH1 0x0 PUSH1 0x20 DUP3 DUP5 SUB SLT ISZERO PUSH2 0x11B4 JUMPI PUSH1 0x0 DUP1 REVERT JUMPDEST DUP2 MLOAD PUSH2 0x7EF DUP2 PUSH2 0xB74 JUMP JUMPDEST PUSH1 0x0 DUP3 DUP3 LT ISZERO PUSH2 0x11D1 JUMPI PUSH2 0x11D1 PUSH2 0x115B JUMP JUMPDEST POP SUB SWAP1 JUMP JUMPDEST PUSH4 0x4E487B71 PUSH1 0xE0 SHL PUSH1 0x0 MSTORE PUSH1 0x31 PUSH1 0x4 MSTORE PUSH1 0x24 PUSH1 0x0 REVERT INVALID LOG2 PUSH5 0x6970667358 0x22 SLT KECCAK256 0xC0 0xCC SWAP2 0x23 0x28 0xE CALLCODE XOR 0xA6 SWAP1 LOG4 0x2A 0x4E 0xCF SLOAD PUSH2 0xFE34 0xE8 PUSH1 0x43 PUSH5 0x91D1CC467E PUSH4 0xFAA7A239 PUSH5 0x736F6C6343 STOP ADDMOD EXP STOP CALLER ","sha1":"69dab68f6070d6c653fb56e6773a39af0eeae3c6","source":"// SPDX-License-Identifier: UNLICENSED\npragma solidity ^0.8.4;\n\nimport \"@openzeppelin/contracts/utils/structs/EnumerableSet.sol\";\n\nimport \"../../interfaces/ISafetyCheck.sol\";\nimport \"../../interfaces/IGyroConfig.sol\";\n\nimport \"../../libraries/EnumerableExtensions.sol\";\nimport \"../../libraries/Errors.sol\";\nimport \"../../libraries/ConfigHelpers.sol\";\n\nimport \"../auth/Governable.sol\";\n\ncontract RootSafetyCheck is ISafetyCheck, Governable {\n    using EnumerableSet for EnumerableSet.AddressSet;\n    using EnumerableExtensions for EnumerableSet.AddressSet;\n    using ConfigHelpers for IGyroConfig;\n\n    event CheckAdded(address indexed check);\n    event CheckRemoved(address indexed check);\n\n    EnumerableSet.AddressSet internal _checks;\n\n    IGyroConfig public immutable gyroConfig;\n\n    modifier motherboardOnly() {\n        require(msg.sender == address(gyroConfig.getMotherboard()), Errors.NOT_AUTHORIZED);\n        _;\n    }\n\n    constructor(IGyroConfig _gyroConfig) {\n        gyroConfig = _gyroConfig;\n    }\n\n    /// @return all the checks registered\n    function getChecks() public view returns (address[] memory) {\n        return _checks.toArray();\n    }\n\n    /// @notice adds a check to be performed\n    function addCheck(address check) external governanceOnly {\n        require(_checks.add(check), Errors.INVALID_ARGUMENT);\n        emit CheckAdded(check);\n    }\n\n    /// @notice removes a check to be performed\n    function removeCheck(address check) external governanceOnly {\n        require(_checks.remove(check), Errors.INVALID_ARGUMENT);\n        emit CheckRemoved(check);\n    }\n\n    /// @inheritdoc ISafetyCheck\n    function checkAndPersistMint(DataTypes.Order memory order)\n        external\n        override\n        motherboardOnly\n        returns (string memory err)\n    {\n        uint256 length = _checks.length();\n        for (uint256 i = 0; i < length; i++) {\n            err = ISafetyCheck(_checks.at(i)).checkAndPersistMint(order);\n            if (bytes(err).length > 0) {\n                break;\n            }\n        }\n    }\n\n    /// @inheritdoc ISafetyCheck\n    function isMintSafe(DataTypes.Order memory order)\n        external\n        view\n        override\n        returns (string memory err)\n    {\n        uint256 length = _checks.length();\n        for (uint256 i = 0; i < length; i++) {\n            err = ISafetyCheck(_checks.at(i)).isMintSafe(order);\n            if (bytes(err).length > 0) {\n                break;\n            }\n        }\n    }\n\n    /// @inheritdoc ISafetyCheck\n    function isRedeemSafe(DataTypes.Order memory order)\n        external\n        view\n        override\n        returns (string memory err)\n    {\n        uint256 length = _checks.length();\n        for (uint256 i = 0; i < length; i++) {\n            err = ISafetyCheck(_checks.at(i)).isRedeemSafe(order);\n            if (bytes(err).length > 0) {\n                break;\n            }\n        }\n    }\n\n    /// @inheritdoc ISafetyCheck\n    function checkAndPersistRedeem(DataTypes.Order memory order)\n        external\n        override\n        motherboardOnly\n        returns (string memory err)\n    {\n        uint256 length = _checks.length();\n        for (uint256 i = 0; i < length; i++) {\n            err = ISafetyCheck(_checks.at(i)).checkAndPersistRedeem(order);\n            if (bytes(err).length > 0) {\n                break;\n            }\n        }\n    }\n}\n","sourcePath":"contracts/safety/RootSafetyCheck.sol","type":"contract","deployment":{"address":"0x5aB71Dc14F5A3E49E42c9A50d6BE596829c6eAcc","chainid":"137","blockHeight":26856405}}