{"abi":[{"inputs":[{"internalType":"address","name":"_assetRegistry","type":"address"},{"internalType":"address","name":"_priceSigner","type":"address"}],"stateMutability":"nonpayable","type":"constructor","name":"constructor"},{"anonymous":false,"inputs":[{"indexed":true,"internalType":"address","name":"asset","type":"address"},{"indexed":false,"internalType":"uint256","name":"price","type":"uint256"},{"indexed":false,"internalType":"uint256","name":"timestamp","type":"uint256"}],"name":"PriceUpdated","type":"event"},{"inputs":[],"name":"MAX_LAG","outputs":[{"internalType":"uint256","name":"","type":"uint256"}],"stateMutability":"view","type":"function"},{"inputs":[],"name":"PRICE_DECIMALS","outputs":[{"internalType":"uint8","name":"","type":"uint8"}],"stateMutability":"view","type":"function"},{"inputs":[],"name":"assetRegistry","outputs":[{"internalType":"contract IAssetRegistry","name":"","type":"address"}],"stateMutability":"view","type":"function"},{"inputs":[{"internalType":"address","name":"asset","type":"address"}],"name":"getLastUpdate","outputs":[{"internalType":"uint256","name":"","type":"uint256"}],"stateMutability":"view","type":"function"},{"inputs":[{"internalType":"address","name":"baseAsset","type":"address"}],"name":"getPriceUSD","outputs":[{"internalType":"uint256","name":"","type":"uint256"}],"stateMutability":"view","type":"function"},{"inputs":[{"internalType":"bytes","name":"message","type":"bytes"},{"internalType":"bytes","name":"signature","type":"bytes"}],"name":"postPrice","outputs":[],"stateMutability":"nonpayable","type":"function"},{"inputs":[{"components":[{"internalType":"bytes","name":"message","type":"bytes"},{"internalType":"bytes","name":"signature","type":"bytes"}],"internalType":"struct TrustedSignerPriceOracle.SignedPrice[]","name":"signedPrices","type":"tuple[]"}],"name":"postPrices","outputs":[],"stateMutability":"nonpayable","type":"function"},{"inputs":[],"name":"trustedPriceSigner","outputs":[{"internalType":"address","name":"","type":"address"}],"stateMutability":"view","type":"function"}],"bytecode":"60c060405234801561001057600080fd5b50604051610dc0380380610dc083398101604081905261002f91610062565b6001600160a01b0391821660a05216608052610095565b80516001600160a01b038116811461005d57600080fd5b919050565b6000806040838503121561007557600080fd5b61007e83610046565b915061008c60208401610046565b90509250929050565b60805160a051610cf96100c76000396000818161013301526103fd01526000818160f401526103780152610cf96000f3fe608060405234801561001057600080fd5b50600436106100885760003560e01c8063979d7e861161005b578063979d7e861461012e578063b4ca064714610155578063c536917c1461016a578063f1a640f81461017d57600080fd5b806314c1d37f1461008d5780635708447d146100a95780635a7e1989146100bc5780637571fd2c146100ef575b600080fd5b610096610e1081565b6040519081526020015b60405180910390f35b6100966100b736600461076c565b610197565b6100966100ca36600461076c565b6001600160a01b031660009081526020819052604090205467ffffffffffffffff1690565b6101167f000000000000000000000000000000000000000000000000000000000000000081565b6040516001600160a01b0390911681526020016100a0565b6101167f000000000000000000000000000000000000000000000000000000000000000081565b610168610163366004610790565b610287565b005b6101686101783660046108ca565b61035a565b610185600681565b60405160ff90911681526020016100a0565b6001600160a01b03811660009081526020818152604080832081518083018352905467ffffffffffffffff8116808352600160401b9091046001600160801b03168285015282518084019093526002835261034360f41b938301939093529161021c5760405162461bcd60e51b8152600401610213919061095e565b60405180910390fd5b508051429061023890610e109067ffffffffffffffff166109a7565b101560405180604001604052806002815260200161343160f01b815250906102735760405162461bcd60e51b8152600401610213919061095e565b50602001516001600160801b031692915050565b60005b8181101561035557368383838181106102a5576102a56109bf565b90506020028101906102b791906109d5565b90506103426102c682806109f5565b8080601f0160208091040260200160405190810160405280939291908181526020018383808284376000920191909152506103089250505060208401846109f5565b8080601f01602080910402602001604051908101604052809392919081815260200183838082843760009201919091525061036892505050565b508061034d81610a43565b91505061028a565b505050565b6103648282610368565b5050565b600061037483836105a5565b90507f00000000000000000000000000000000000000000000000000000000000000006001600160a01b0316816001600160a01b03161460405180604001604052806002815260200161343360f01b815250906103e45760405162461bcd60e51b8152600401610213919061095e565b5060008060006103f38661068a565b92509250925060007f00000000000000000000000000000000000000000000000000000000000000006001600160a01b0316637307ae55846040518263ffffffff1660e01b8152600401610447919061095e565b602060405180830381865afa158015610464573d6000803e3d6000fd5b505050506040513d601f19601f820116820180604052508101906104889190610a5e565b6001600160a01b038116600090815260208190526040902080549192509067ffffffffffffffff16851180156104c95750426104c6610e10876109a7565b10155b60405180604001604052806002815260200161343160f01b815250906105025760405162461bcd60e51b8152600401610213919061095e565b50600061051160066012610a7b565b61051c90600a610b82565b6105269085610b91565b825467ffffffffffffffff88166001600160c01b031990911617600160401b6001600160801b0383160217835560408051828152602081018990529192506001600160a01b038516917fb556fac599c3c70efb9ab1fa725ecace6c81cc48d1455f886607def065f3e0c0910160405180910390a2505050505050505050565b600080600080848060200190518101906105bf9190610bb0565b9250925092506000868051906020012060405160200161060b91907f19457468657265756d205369676e6564204d6573736167653a0a3332000000008152601c810191909152603c0190565b60408051601f1981840301815282825280516020918201206000845290830180835281905260ff8516918301919091526060820186905260808201859052915060019060a0016020604051602081039080840390855afa158015610673573d6000803e3d6000fd5b505050602060405103519450505050505b92915050565b600060606000806000806000878060200190518101906106aa9190610c3c565b93509350935093506040516020016106ce906570726963657360d01b815260060190565b60405160208183030381529060405280519060200120846040516020016106f59190610cb1565b604051602081830303815290604052805190602001201460405180604001604052806002815260200161343360f01b815250906107455760405162461bcd60e51b8152600401610213919061095e565b50919790965090945092505050565b6001600160a01b038116811461076957600080fd5b50565b60006020828403121561077e57600080fd5b813561078981610754565b9392505050565b600080602083850312156107a357600080fd5b823567ffffffffffffffff808211156107bb57600080fd5b818501915085601f8301126107cf57600080fd5b8135818111156107de57600080fd5b8660208260051b85010111156107f357600080fd5b60209290920196919550909350505050565b634e487b7160e01b600052604160045260246000fd5b604051601f8201601f1916810167ffffffffffffffff8111828210171561084457610844610805565b604052919050565b600067ffffffffffffffff82111561086657610866610805565b50601f01601f191660200190565b600082601f83011261088557600080fd5b81356108986108938261084c565b61081b565b8181528460208386010111156108ad57600080fd5b816020850160208301376000918101602001919091529392505050565b600080604083850312156108dd57600080fd5b823567ffffffffffffffff808211156108f557600080fd5b61090186838701610874565b9350602085013591508082111561091757600080fd5b5061092485828601610874565b9150509250929050565b60005b83811015610949578181015183820152602001610931565b83811115610958576000848401525b50505050565b602081526000825180602084015261097d81604085016020870161092e565b601f01601f19169190910160400192915050565b634e487b7160e01b600052601160045260246000fd5b600082198211156109ba576109ba610991565b500190565b634e487b7160e01b600052603260045260246000fd5b60008235603e198336030181126109eb57600080fd5b9190910192915050565b6000808335601e19843603018112610a0c57600080fd5b83018035915067ffffffffffffffff821115610a2757600080fd5b602001915036819003821315610a3c57600080fd5b9250929050565b6000600019821415610a5757610a57610991565b5060010190565b600060208284031215610a7057600080fd5b815161078981610754565b600060ff821660ff841680821015610a9557610a95610991565b90039392505050565b600181815b80851115610ad9578160001904821115610abf57610abf610991565b80851615610acc57918102915b93841c9390800290610aa3565b509250929050565b600082610af057506001610684565b81610afd57506000610684565b8160018114610b135760028114610b1d57610b39565b6001915050610684565b60ff841115610b2e57610b2e610991565b50506001821b610684565b5060208310610133831016604e8410600b8410161715610b5c575081810a610684565b610b668383610a9e565b8060001904821115610b7a57610b7a610991565b029392505050565b600061078960ff841683610ae1565b6000816000190483118215151615610bab57610bab610991565b500290565b600080600060608486031215610bc557600080fd5b8351925060208401519150604084015160ff81168114610be457600080fd5b809150509250925092565b600082601f830112610c0057600080fd5b8151610c0e6108938261084c565b818152846020838601011115610c2357600080fd5b610c3482602083016020870161092e565b949350505050565b60008060008060808587031215610c5257600080fd5b845167ffffffffffffffff80821115610c6a57600080fd5b610c7688838901610bef565b9550602087015194506040870151915080821115610c9357600080fd5b50610ca087828801610bef565b606096909601519497939650505050565b600082516109eb81846020870161092e56fea264697066735822122068f76ed19cc81e1c025976ef7b660aacaec14aa766dedc2470fce11bd4fafc0e64736f6c634300080a0033","bytecodeSha1":"ab1a0c44264c0e4b31715b3e8f9d629ff4509df4","compiler":{"evm_version":"istanbul","optimizer":{"enabled":true,"runs":200},"version":"0.8.10+commit.fc410830"},"contractName":"TrustedSignerPriceOracle","language":"Solidity","natspec":{"kind":"dev","methods":{"MAX_LAG()":{"notice":"we throw an error if the price is older than `MAX_LAG` seconds"},"PRICE_DECIMALS()":{"notice":"prices posted should be scaled using `PRICE_DECIMALS` decimals"},"assetRegistry()":{"notice":"the asset registry used to find the mapping between a token address and its address"},"getLastUpdate(address)":{"notice":"returns the last update of `asset` or 0 if `asset` has never been updated"},"getPriceUSD(address)":{"notice":"Quotes the USD price of `tokenAddress` The quoted price is always scaled with 18 decimals regardless of the source used for the oracle.","params":{"tokenAddress":"the asset of which the price is to be quoted"},"returns":{"_0":"the USD price of the asset"}},"postPrice(bytes,bytes)":{"notice":"Upates the price with a message containing the price information and its signature The message should have the following ABI-encoded format: (string kind, uint256 timestamp, string key, uint256 price)"},"postPrices((bytes,bytes)[])":{"notice":"Updates prices using a list of signed prices received from a trusted signer (e.g. Coinbase)"},"trustedPriceSigner()":{"notice":"address of the trusted price signer This should be the Coinbase signing address in production deployments i.e. 0xfCEAdAFab14d46e20144F48824d0C09B1a03F2BC"}},"stateVariables":{"prices":{"details":"asset to prices storage"}},"version":1},"opcodes":"PUSH1 0x80 PUSH1 0x40 MSTORE CALLVALUE DUP1 ISZERO PUSH2 0x10 JUMPI PUSH1 0x0 DUP1 REVERT JUMPDEST POP PUSH1 0x4 CALLDATASIZE LT PUSH2 0x88 JUMPI PUSH1 0x0 CALLDATALOAD PUSH1 0xE0 SHR DUP1 PUSH4 0x979D7E86 GT PUSH2 0x5B JUMPI DUP1 PUSH4 0x979D7E86 EQ PUSH2 0x12E JUMPI DUP1 PUSH4 0xB4CA0647 EQ PUSH2 0x155 JUMPI DUP1 PUSH4 0xC536917C EQ PUSH2 0x16A JUMPI DUP1 PUSH4 0xF1A640F8 EQ PUSH2 0x17D JUMPI PUSH1 0x0 DUP1 REVERT JUMPDEST DUP1 PUSH4 0x14C1D37F EQ PUSH2 0x8D JUMPI DUP1 PUSH4 0x5708447D EQ PUSH2 0xA9 JUMPI DUP1 PUSH4 0x5A7E1989 EQ PUSH2 0xBC JUMPI DUP1 PUSH4 0x7571FD2C EQ PUSH2 0xEF JUMPI JUMPDEST PUSH1 0x0 DUP1 REVERT JUMPDEST PUSH2 0x96 PUSH2 0xE10 DUP2 JUMP JUMPDEST PUSH1 0x40 MLOAD SWAP1 DUP2 MSTORE PUSH1 0x20 ADD JUMPDEST PUSH1 0x40 MLOAD DUP1 SWAP2 SUB SWAP1 RETURN JUMPDEST PUSH2 0x96 PUSH2 0xB7 CALLDATASIZE PUSH1 0x4 PUSH2 0x76C JUMP JUMPDEST PUSH2 0x197 JUMP JUMPDEST PUSH2 0x96 PUSH2 0xCA CALLDATASIZE PUSH1 0x4 PUSH2 0x76C JUMP JUMPDEST PUSH1 0x1 PUSH1 0x1 PUSH1 0xA0 SHL SUB AND PUSH1 0x0 SWAP1 DUP2 MSTORE PUSH1 0x20 DUP2 SWAP1 MSTORE PUSH1 0x40 SWAP1 KECCAK256 SLOAD PUSH8 0xFFFFFFFFFFFFFFFF AND SWAP1 JUMP JUMPDEST PUSH2 0x116 PUSH32 0x0 DUP2 JUMP JUMPDEST PUSH1 0x40 MLOAD PUSH1 0x1 PUSH1 0x1 PUSH1 0xA0 SHL SUB SWAP1 SWAP2 AND DUP2 MSTORE PUSH1 0x20 ADD PUSH2 0xA0 JUMP JUMPDEST PUSH2 0x116 PUSH32 0x0 DUP2 JUMP JUMPDEST PUSH2 0x168 PUSH2 0x163 CALLDATASIZE PUSH1 0x4 PUSH2 0x790 JUMP JUMPDEST PUSH2 0x287 JUMP JUMPDEST STOP JUMPDEST PUSH2 0x168 PUSH2 0x178 CALLDATASIZE PUSH1 0x4 PUSH2 0x8CA JUMP JUMPDEST PUSH2 0x35A JUMP JUMPDEST PUSH2 0x185 PUSH1 0x6 DUP2 JUMP JUMPDEST PUSH1 0x40 MLOAD PUSH1 0xFF SWAP1 SWAP2 AND DUP2 MSTORE PUSH1 0x20 ADD PUSH2 0xA0 JUMP JUMPDEST PUSH1 0x1 PUSH1 0x1 PUSH1 0xA0 SHL SUB DUP2 AND PUSH1 0x0 SWAP1 DUP2 MSTORE PUSH1 0x20 DUP2 DUP2 MSTORE PUSH1 0x40 DUP1 DUP4 KECCAK256 DUP2 MLOAD DUP1 DUP4 ADD DUP4 MSTORE SWAP1 SLOAD PUSH8 0xFFFFFFFFFFFFFFFF DUP2 AND DUP1 DUP4 MSTORE PUSH1 0x1 PUSH1 0x40 SHL SWAP1 SWAP2 DIV PUSH1 0x1 PUSH1 0x1 PUSH1 0x80 SHL SUB AND DUP3 DUP6 ADD MSTORE DUP3 MLOAD DUP1 DUP5 ADD SWAP1 SWAP4 MSTORE PUSH1 0x2 DUP4 MSTORE PUSH2 0x343 PUSH1 0xF4 SHL SWAP4 DUP4 ADD SWAP4 SWAP1 SWAP4 MSTORE SWAP2 PUSH2 0x21C JUMPI PUSH1 0x40 MLOAD PUSH3 0x461BCD PUSH1 0xE5 SHL DUP2 MSTORE PUSH1 0x4 ADD PUSH2 0x213 SWAP2 SWAP1 PUSH2 0x95E JUMP JUMPDEST PUSH1 0x40 MLOAD DUP1 SWAP2 SUB SWAP1 REVERT JUMPDEST POP DUP1 MLOAD TIMESTAMP SWAP1 PUSH2 0x238 SWAP1 PUSH2 0xE10 SWAP1 PUSH8 0xFFFFFFFFFFFFFFFF AND PUSH2 0x9A7 JUMP JUMPDEST LT ISZERO PUSH1 0x40 MLOAD DUP1 PUSH1 0x40 ADD PUSH1 0x40 MSTORE DUP1 PUSH1 0x2 DUP2 MSTORE PUSH1 0x20 ADD PUSH2 0x3431 PUSH1 0xF0 SHL DUP2 MSTORE POP SWAP1 PUSH2 0x273 JUMPI PUSH1 0x40 MLOAD PUSH3 0x461BCD PUSH1 0xE5 SHL DUP2 MSTORE PUSH1 0x4 ADD PUSH2 0x213 SWAP2 SWAP1 PUSH2 0x95E JUMP JUMPDEST POP PUSH1 0x20 ADD MLOAD PUSH1 0x1 PUSH1 0x1 PUSH1 0x80 SHL SUB AND SWAP3 SWAP2 POP POP JUMP JUMPDEST PUSH1 0x0 JUMPDEST DUP2 DUP2 LT ISZERO PUSH2 0x355 JUMPI CALLDATASIZE DUP4 DUP4 DUP4 DUP2 DUP2 LT PUSH2 0x2A5 JUMPI PUSH2 0x2A5 PUSH2 0x9BF JUMP JUMPDEST SWAP1 POP PUSH1 0x20 MUL DUP2 ADD SWAP1 PUSH2 0x2B7 SWAP2 SWAP1 PUSH2 0x9D5 JUMP JUMPDEST SWAP1 POP PUSH2 0x342 PUSH2 0x2C6 DUP3 DUP1 PUSH2 0x9F5 JUMP JUMPDEST DUP1 DUP1 PUSH1 0x1F ADD PUSH1 0x20 DUP1 SWAP2 DIV MUL PUSH1 0x20 ADD PUSH1 0x40 MLOAD SWAP1 DUP2 ADD PUSH1 0x40 MSTORE DUP1 SWAP4 SWAP3 SWAP2 SWAP1 DUP2 DUP2 MSTORE PUSH1 0x20 ADD DUP4 DUP4 DUP1 DUP3 DUP5 CALLDATACOPY PUSH1 0x0 SWAP3 ADD SWAP2 SWAP1 SWAP2 MSTORE POP PUSH2 0x308 SWAP3 POP POP POP PUSH1 0x20 DUP5 ADD DUP5 PUSH2 0x9F5 JUMP JUMPDEST DUP1 DUP1 PUSH1 0x1F ADD PUSH1 0x20 DUP1 SWAP2 DIV MUL PUSH1 0x20 ADD PUSH1 0x40 MLOAD SWAP1 DUP2 ADD PUSH1 0x40 MSTORE DUP1 SWAP4 SWAP3 SWAP2 SWAP1 DUP2 DUP2 MSTORE PUSH1 0x20 ADD DUP4 DUP4 DUP1 DUP3 DUP5 CALLDATACOPY PUSH1 0x0 SWAP3 ADD SWAP2 SWAP1 SWAP2 MSTORE POP PUSH2 0x368 SWAP3 POP POP POP JUMP JUMPDEST POP DUP1 PUSH2 0x34D DUP2 PUSH2 0xA43 JUMP JUMPDEST SWAP2 POP POP PUSH2 0x28A JUMP JUMPDEST POP POP POP JUMP JUMPDEST PUSH2 0x364 DUP3 DUP3 PUSH2 0x368 JUMP JUMPDEST POP POP JUMP JUMPDEST PUSH1 0x0 PUSH2 0x374 DUP4 DUP4 PUSH2 0x5A5 JUMP JUMPDEST SWAP1 POP PUSH32 0x0 PUSH1 0x1 PUSH1 0x1 PUSH1 0xA0 SHL SUB AND DUP2 PUSH1 0x1 PUSH1 0x1 PUSH1 0xA0 SHL SUB AND EQ PUSH1 0x40 MLOAD DUP1 PUSH1 0x40 ADD PUSH1 0x40 MSTORE DUP1 PUSH1 0x2 DUP2 MSTORE PUSH1 0x20 ADD PUSH2 0x3433 PUSH1 0xF0 SHL DUP2 MSTORE POP SWAP1 PUSH2 0x3E4 JUMPI PUSH1 0x40 MLOAD PUSH3 0x461BCD PUSH1 0xE5 SHL DUP2 MSTORE PUSH1 0x4 ADD PUSH2 0x213 SWAP2 SWAP1 PUSH2 0x95E JUMP JUMPDEST POP PUSH1 0x0 DUP1 PUSH1 0x0 PUSH2 0x3F3 DUP7 PUSH2 0x68A JUMP JUMPDEST SWAP3 POP SWAP3 POP SWAP3 POP PUSH1 0x0 PUSH32 0x0 PUSH1 0x1 PUSH1 0x1 PUSH1 0xA0 SHL SUB AND PUSH4 0x7307AE55 DUP5 PUSH1 0x40 MLOAD DUP3 PUSH4 0xFFFFFFFF AND PUSH1 0xE0 SHL DUP2 MSTORE PUSH1 0x4 ADD PUSH2 0x447 SWAP2 SWAP1 PUSH2 0x95E JUMP JUMPDEST PUSH1 0x20 PUSH1 0x40 MLOAD DUP1 DUP4 SUB DUP2 DUP7 GAS STATICCALL ISZERO DUP1 ISZERO PUSH2 0x464 JUMPI RETURNDATASIZE PUSH1 0x0 DUP1 RETURNDATACOPY RETURNDATASIZE PUSH1 0x0 REVERT JUMPDEST POP POP POP POP PUSH1 0x40 MLOAD RETURNDATASIZE PUSH1 0x1F NOT PUSH1 0x1F DUP3 ADD AND DUP3 ADD DUP1 PUSH1 0x40 MSTORE POP DUP2 ADD SWAP1 PUSH2 0x488 SWAP2 SWAP1 PUSH2 0xA5E JUMP JUMPDEST PUSH1 0x1 PUSH1 0x1 PUSH1 0xA0 SHL SUB DUP2 AND PUSH1 0x0 SWAP1 DUP2 MSTORE PUSH1 0x20 DUP2 SWAP1 MSTORE PUSH1 0x40 SWAP1 KECCAK256 DUP1 SLOAD SWAP2 SWAP3 POP SWAP1 PUSH8 0xFFFFFFFFFFFFFFFF AND DUP6 GT DUP1 ISZERO PUSH2 0x4C9 JUMPI POP TIMESTAMP PUSH2 0x4C6 PUSH2 0xE10 DUP8 PUSH2 0x9A7 JUMP JUMPDEST LT ISZERO JUMPDEST PUSH1 0x40 MLOAD DUP1 PUSH1 0x40 ADD PUSH1 0x40 MSTORE DUP1 PUSH1 0x2 DUP2 MSTORE PUSH1 0x20 ADD PUSH2 0x3431 PUSH1 0xF0 SHL DUP2 MSTORE POP SWAP1 PUSH2 0x502 JUMPI PUSH1 0x40 MLOAD PUSH3 0x461BCD PUSH1 0xE5 SHL DUP2 MSTORE PUSH1 0x4 ADD PUSH2 0x213 SWAP2 SWAP1 PUSH2 0x95E JUMP JUMPDEST POP PUSH1 0x0 PUSH2 0x511 PUSH1 0x6 PUSH1 0x12 PUSH2 0xA7B JUMP JUMPDEST PUSH2 0x51C SWAP1 PUSH1 0xA PUSH2 0xB82 JUMP JUMPDEST PUSH2 0x526 SWAP1 DUP6 PUSH2 0xB91 JUMP JUMPDEST DUP3 SLOAD PUSH8 0xFFFFFFFFFFFFFFFF DUP9 AND PUSH1 0x1 PUSH1 0x1 PUSH1 0xC0 SHL SUB NOT SWAP1 SWAP2 AND OR PUSH1 0x1 PUSH1 0x40 SHL PUSH1 0x1 PUSH1 0x1 PUSH1 0x80 SHL SUB DUP4 AND MUL OR DUP4 SSTORE PUSH1 0x40 DUP1 MLOAD DUP3 DUP2 MSTORE PUSH1 0x20 DUP2 ADD DUP10 SWAP1 MSTORE SWAP2 SWAP3 POP PUSH1 0x1 PUSH1 0x1 PUSH1 0xA0 SHL SUB DUP6 AND SWAP2 PUSH32 0xB556FAC599C3C70EFB9AB1FA725ECACE6C81CC48D1455F886607DEF065F3E0C0 SWAP2 ADD PUSH1 0x40 MLOAD DUP1 SWAP2 SUB SWAP1 LOG2 POP POP POP POP POP POP POP POP POP JUMP JUMPDEST PUSH1 0x0 DUP1 PUSH1 0x0 DUP1 DUP5 DUP1 PUSH1 0x20 ADD SWAP1 MLOAD DUP2 ADD SWAP1 PUSH2 0x5BF SWAP2 SWAP1 PUSH2 0xBB0 JUMP JUMPDEST SWAP3 POP SWAP3 POP SWAP3 POP PUSH1 0x0 DUP7 DUP1 MLOAD SWAP1 PUSH1 0x20 ADD KECCAK256 PUSH1 0x40 MLOAD PUSH1 0x20 ADD PUSH2 0x60B SWAP2 SWAP1 PUSH32 0x19457468657265756D205369676E6564204D6573736167653A0A333200000000 DUP2 MSTORE PUSH1 0x1C DUP2 ADD SWAP2 SWAP1 SWAP2 MSTORE PUSH1 0x3C ADD SWAP1 JUMP JUMPDEST PUSH1 0x40 DUP1 MLOAD PUSH1 0x1F NOT DUP2 DUP5 SUB ADD DUP2 MSTORE DUP3 DUP3 MSTORE DUP1 MLOAD PUSH1 0x20 SWAP2 DUP3 ADD KECCAK256 PUSH1 0x0 DUP5 MSTORE SWAP1 DUP4 ADD DUP1 DUP4 MSTORE DUP2 SWAP1 MSTORE PUSH1 0xFF DUP6 AND SWAP2 DUP4 ADD SWAP2 SWAP1 SWAP2 MSTORE PUSH1 0x60 DUP3 ADD DUP7 SWAP1 MSTORE PUSH1 0x80 DUP3 ADD DUP6 SWAP1 MSTORE SWAP2 POP PUSH1 0x1 SWAP1 PUSH1 0xA0 ADD PUSH1 0x20 PUSH1 0x40 MLOAD PUSH1 0x20 DUP2 SUB SWAP1 DUP1 DUP5 SUB SWAP1 DUP6 GAS STATICCALL ISZERO DUP1 ISZERO PUSH2 0x673 JUMPI RETURNDATASIZE PUSH1 0x0 DUP1 RETURNDATACOPY RETURNDATASIZE PUSH1 0x0 REVERT JUMPDEST POP POP POP PUSH1 0x20 PUSH1 0x40 MLOAD SUB MLOAD SWAP5 POP POP POP POP POP JUMPDEST SWAP3 SWAP2 POP POP JUMP JUMPDEST PUSH1 0x0 PUSH1 0x60 PUSH1 0x0 DUP1 PUSH1 0x0 DUP1 PUSH1 0x0 DUP8 DUP1 PUSH1 0x20 ADD SWAP1 MLOAD DUP2 ADD SWAP1 PUSH2 0x6AA SWAP2 SWAP1 PUSH2 0xC3C JUMP JUMPDEST SWAP4 POP SWAP4 POP SWAP4 POP SWAP4 POP PUSH1 0x40 MLOAD PUSH1 0x20 ADD PUSH2 0x6CE SWAP1 PUSH6 0x707269636573 PUSH1 0xD0 SHL DUP2 MSTORE PUSH1 0x6 ADD SWAP1 JUMP JUMPDEST PUSH1 0x40 MLOAD PUSH1 0x20 DUP2 DUP4 SUB SUB DUP2 MSTORE SWAP1 PUSH1 0x40 MSTORE DUP1 MLOAD SWAP1 PUSH1 0x20 ADD KECCAK256 DUP5 PUSH1 0x40 MLOAD PUSH1 0x20 ADD PUSH2 0x6F5 SWAP2 SWAP1 PUSH2 0xCB1 JUMP JUMPDEST PUSH1 0x40 MLOAD PUSH1 0x20 DUP2 DUP4 SUB SUB DUP2 MSTORE SWAP1 PUSH1 0x40 MSTORE DUP1 MLOAD SWAP1 PUSH1 0x20 ADD KECCAK256 EQ PUSH1 0x40 MLOAD DUP1 PUSH1 0x40 ADD PUSH1 0x40 MSTORE DUP1 PUSH1 0x2 DUP2 MSTORE PUSH1 0x20 ADD PUSH2 0x3433 PUSH1 0xF0 SHL DUP2 MSTORE POP SWAP1 PUSH2 0x745 JUMPI PUSH1 0x40 MLOAD PUSH3 0x461BCD PUSH1 0xE5 SHL DUP2 MSTORE PUSH1 0x4 ADD PUSH2 0x213 SWAP2 SWAP1 PUSH2 0x95E JUMP JUMPDEST POP SWAP2 SWAP8 SWAP1 SWAP7 POP SWAP1 SWAP5 POP SWAP3 POP POP POP JUMP JUMPDEST PUSH1 0x1 PUSH1 0x1 PUSH1 0xA0 SHL SUB DUP2 AND DUP2 EQ PUSH2 0x769 JUMPI PUSH1 0x0 DUP1 REVERT JUMPDEST POP JUMP JUMPDEST PUSH1 0x0 PUSH1 0x20 DUP3 DUP5 SUB SLT ISZERO PUSH2 0x77E JUMPI PUSH1 0x0 DUP1 REVERT JUMPDEST DUP2 CALLDATALOAD PUSH2 0x789 DUP2 PUSH2 0x754 JUMP JUMPDEST SWAP4 SWAP3 POP POP POP JUMP JUMPDEST PUSH1 0x0 DUP1 PUSH1 0x20 DUP4 DUP6 SUB SLT ISZERO PUSH2 0x7A3 JUMPI PUSH1 0x0 DUP1 REVERT JUMPDEST DUP3 CALLDATALOAD PUSH8 0xFFFFFFFFFFFFFFFF DUP1 DUP3 GT ISZERO PUSH2 0x7BB JUMPI PUSH1 0x0 DUP1 REVERT JUMPDEST DUP2 DUP6 ADD SWAP2 POP DUP6 PUSH1 0x1F DUP4 ADD SLT PUSH2 0x7CF JUMPI PUSH1 0x0 DUP1 REVERT JUMPDEST DUP2 CALLDATALOAD DUP2 DUP2 GT ISZERO PUSH2 0x7DE JUMPI PUSH1 0x0 DUP1 REVERT JUMPDEST DUP7 PUSH1 0x20 DUP3 PUSH1 0x5 SHL DUP6 ADD ADD GT ISZERO PUSH2 0x7F3 JUMPI PUSH1 0x0 DUP1 REVERT JUMPDEST PUSH1 0x20 SWAP3 SWAP1 SWAP3 ADD SWAP7 SWAP2 SWAP6 POP SWAP1 SWAP4 POP POP POP POP JUMP JUMPDEST PUSH4 0x4E487B71 PUSH1 0xE0 SHL PUSH1 0x0 MSTORE PUSH1 0x41 PUSH1 0x4 MSTORE PUSH1 0x24 PUSH1 0x0 REVERT JUMPDEST PUSH1 0x40 MLOAD PUSH1 0x1F DUP3 ADD PUSH1 0x1F NOT AND DUP2 ADD PUSH8 0xFFFFFFFFFFFFFFFF DUP2 GT DUP3 DUP3 LT OR ISZERO PUSH2 0x844 JUMPI PUSH2 0x844 PUSH2 0x805 JUMP JUMPDEST PUSH1 0x40 MSTORE SWAP2 SWAP1 POP JUMP JUMPDEST PUSH1 0x0 PUSH8 0xFFFFFFFFFFFFFFFF DUP3 GT ISZERO PUSH2 0x866 JUMPI PUSH2 0x866 PUSH2 0x805 JUMP JUMPDEST POP PUSH1 0x1F ADD PUSH1 0x1F NOT AND PUSH1 0x20 ADD SWAP1 JUMP JUMPDEST PUSH1 0x0 DUP3 PUSH1 0x1F DUP4 ADD SLT PUSH2 0x885 JUMPI PUSH1 0x0 DUP1 REVERT JUMPDEST DUP2 CALLDATALOAD PUSH2 0x898 PUSH2 0x893 DUP3 PUSH2 0x84C JUMP JUMPDEST PUSH2 0x81B JUMP JUMPDEST DUP2 DUP2 MSTORE DUP5 PUSH1 0x20 DUP4 DUP7 ADD ADD GT ISZERO PUSH2 0x8AD JUMPI PUSH1 0x0 DUP1 REVERT JUMPDEST DUP2 PUSH1 0x20 DUP6 ADD PUSH1 0x20 DUP4 ADD CALLDATACOPY PUSH1 0x0 SWAP2 DUP2 ADD PUSH1 0x20 ADD SWAP2 SWAP1 SWAP2 MSTORE SWAP4 SWAP3 POP POP POP JUMP JUMPDEST PUSH1 0x0 DUP1 PUSH1 0x40 DUP4 DUP6 SUB SLT ISZERO PUSH2 0x8DD JUMPI PUSH1 0x0 DUP1 REVERT JUMPDEST DUP3 CALLDATALOAD PUSH8 0xFFFFFFFFFFFFFFFF DUP1 DUP3 GT ISZERO PUSH2 0x8F5 JUMPI PUSH1 0x0 DUP1 REVERT JUMPDEST PUSH2 0x901 DUP7 DUP4 DUP8 ADD PUSH2 0x874 JUMP JUMPDEST SWAP4 POP PUSH1 0x20 DUP6 ADD CALLDATALOAD SWAP2 POP DUP1 DUP3 GT ISZERO PUSH2 0x917 JUMPI PUSH1 0x0 DUP1 REVERT JUMPDEST POP PUSH2 0x924 DUP6 DUP3 DUP7 ADD PUSH2 0x874 JUMP JUMPDEST SWAP2 POP POP SWAP3 POP SWAP3 SWAP1 POP JUMP JUMPDEST PUSH1 0x0 JUMPDEST DUP4 DUP2 LT ISZERO PUSH2 0x949 JUMPI DUP2 DUP2 ADD MLOAD DUP4 DUP3 ADD MSTORE PUSH1 0x20 ADD PUSH2 0x931 JUMP JUMPDEST DUP4 DUP2 GT ISZERO PUSH2 0x958 JUMPI PUSH1 0x0 DUP5 DUP5 ADD MSTORE JUMPDEST POP POP POP POP JUMP JUMPDEST PUSH1 0x20 DUP2 MSTORE PUSH1 0x0 DUP3 MLOAD DUP1 PUSH1 0x20 DUP5 ADD MSTORE PUSH2 0x97D DUP2 PUSH1 0x40 DUP6 ADD PUSH1 0x20 DUP8 ADD PUSH2 0x92E JUMP JUMPDEST PUSH1 0x1F ADD PUSH1 0x1F NOT AND SWAP2 SWAP1 SWAP2 ADD PUSH1 0x40 ADD SWAP3 SWAP2 POP POP JUMP JUMPDEST PUSH4 0x4E487B71 PUSH1 0xE0 SHL PUSH1 0x0 MSTORE PUSH1 0x11 PUSH1 0x4 MSTORE PUSH1 0x24 PUSH1 0x0 REVERT JUMPDEST PUSH1 0x0 DUP3 NOT DUP3 GT ISZERO PUSH2 0x9BA JUMPI PUSH2 0x9BA PUSH2 0x991 JUMP JUMPDEST POP ADD SWAP1 JUMP JUMPDEST PUSH4 0x4E487B71 PUSH1 0xE0 SHL PUSH1 0x0 MSTORE PUSH1 0x32 PUSH1 0x4 MSTORE PUSH1 0x24 PUSH1 0x0 REVERT JUMPDEST PUSH1 0x0 DUP3 CALLDATALOAD PUSH1 0x3E NOT DUP4 CALLDATASIZE SUB ADD DUP2 SLT PUSH2 0x9EB JUMPI PUSH1 0x0 DUP1 REVERT JUMPDEST SWAP2 SWAP1 SWAP2 ADD SWAP3 SWAP2 POP POP JUMP JUMPDEST PUSH1 0x0 DUP1 DUP4 CALLDATALOAD PUSH1 0x1E NOT DUP5 CALLDATASIZE SUB ADD DUP2 SLT PUSH2 0xA0C JUMPI PUSH1 0x0 DUP1 REVERT JUMPDEST DUP4 ADD DUP1 CALLDATALOAD SWAP2 POP PUSH8 0xFFFFFFFFFFFFFFFF DUP3 GT ISZERO PUSH2 0xA27 JUMPI PUSH1 0x0 DUP1 REVERT JUMPDEST PUSH1 0x20 ADD SWAP2 POP CALLDATASIZE DUP2 SWAP1 SUB DUP3 SGT ISZERO PUSH2 0xA3C JUMPI PUSH1 0x0 DUP1 REVERT JUMPDEST SWAP3 POP SWAP3 SWAP1 POP JUMP JUMPDEST PUSH1 0x0 PUSH1 0x0 NOT DUP3 EQ ISZERO PUSH2 0xA57 JUMPI PUSH2 0xA57 PUSH2 0x991 JUMP JUMPDEST POP PUSH1 0x1 ADD SWAP1 JUMP JUMPDEST PUSH1 0x0 PUSH1 0x20 DUP3 DUP5 SUB SLT ISZERO PUSH2 0xA70 JUMPI PUSH1 0x0 DUP1 REVERT JUMPDEST DUP2 MLOAD PUSH2 0x789 DUP2 PUSH2 0x754 JUMP JUMPDEST PUSH1 0x0 PUSH1 0xFF DUP3 AND PUSH1 0xFF DUP5 AND DUP1 DUP3 LT ISZERO PUSH2 0xA95 JUMPI PUSH2 0xA95 PUSH2 0x991 JUMP JUMPDEST SWAP1 SUB SWAP4 SWAP3 POP POP POP JUMP JUMPDEST PUSH1 0x1 DUP2 DUP2 JUMPDEST DUP1 DUP6 GT ISZERO PUSH2 0xAD9 JUMPI DUP2 PUSH1 0x0 NOT DIV DUP3 GT ISZERO PUSH2 0xABF JUMPI PUSH2 0xABF PUSH2 0x991 JUMP JUMPDEST DUP1 DUP6 AND ISZERO PUSH2 0xACC JUMPI SWAP2 DUP2 MUL SWAP2 JUMPDEST SWAP4 DUP5 SHR SWAP4 SWAP1 DUP1 MUL SWAP1 PUSH2 0xAA3 JUMP JUMPDEST POP SWAP3 POP SWAP3 SWAP1 POP JUMP JUMPDEST PUSH1 0x0 DUP3 PUSH2 0xAF0 JUMPI POP PUSH1 0x1 PUSH2 0x684 JUMP JUMPDEST DUP2 PUSH2 0xAFD JUMPI POP PUSH1 0x0 PUSH2 0x684 JUMP JUMPDEST DUP2 PUSH1 0x1 DUP2 EQ PUSH2 0xB13 JUMPI PUSH1 0x2 DUP2 EQ PUSH2 0xB1D JUMPI PUSH2 0xB39 JUMP JUMPDEST PUSH1 0x1 SWAP2 POP POP PUSH2 0x684 JUMP JUMPDEST PUSH1 0xFF DUP5 GT ISZERO PUSH2 0xB2E JUMPI PUSH2 0xB2E PUSH2 0x991 JUMP JUMPDEST POP POP PUSH1 0x1 DUP3 SHL PUSH2 0x684 JUMP JUMPDEST POP PUSH1 0x20 DUP4 LT PUSH2 0x133 DUP4 LT AND PUSH1 0x4E DUP5 LT PUSH1 0xB DUP5 LT AND OR ISZERO PUSH2 0xB5C JUMPI POP DUP2 DUP2 EXP PUSH2 0x684 JUMP JUMPDEST PUSH2 0xB66 DUP4 DUP4 PUSH2 0xA9E JUMP JUMPDEST DUP1 PUSH1 0x0 NOT DIV DUP3 GT ISZERO PUSH2 0xB7A JUMPI PUSH2 0xB7A PUSH2 0x991 JUMP JUMPDEST MUL SWAP4 SWAP3 POP POP POP JUMP JUMPDEST PUSH1 0x0 PUSH2 0x789 PUSH1 0xFF DUP5 AND DUP4 PUSH2 0xAE1 JUMP JUMPDEST PUSH1 0x0 DUP2 PUSH1 0x0 NOT DIV DUP4 GT DUP3 ISZERO ISZERO AND ISZERO PUSH2 0xBAB JUMPI PUSH2 0xBAB PUSH2 0x991 JUMP JUMPDEST POP MUL SWAP1 JUMP JUMPDEST PUSH1 0x0 DUP1 PUSH1 0x0 PUSH1 0x60 DUP5 DUP7 SUB SLT ISZERO PUSH2 0xBC5 JUMPI PUSH1 0x0 DUP1 REVERT JUMPDEST DUP4 MLOAD SWAP3 POP PUSH1 0x20 DUP5 ADD MLOAD SWAP2 POP PUSH1 0x40 DUP5 ADD MLOAD PUSH1 0xFF DUP2 AND DUP2 EQ PUSH2 0xBE4 JUMPI PUSH1 0x0 DUP1 REVERT JUMPDEST DUP1 SWAP2 POP POP SWAP3 POP SWAP3 POP SWAP3 JUMP JUMPDEST PUSH1 0x0 DUP3 PUSH1 0x1F DUP4 ADD SLT PUSH2 0xC00 JUMPI PUSH1 0x0 DUP1 REVERT JUMPDEST DUP2 MLOAD PUSH2 0xC0E PUSH2 0x893 DUP3 PUSH2 0x84C JUMP JUMPDEST DUP2 DUP2 MSTORE DUP5 PUSH1 0x20 DUP4 DUP7 ADD ADD GT ISZERO PUSH2 0xC23 JUMPI PUSH1 0x0 DUP1 REVERT JUMPDEST PUSH2 0xC34 DUP3 PUSH1 0x20 DUP4 ADD PUSH1 0x20 DUP8 ADD PUSH2 0x92E JUMP JUMPDEST SWAP5 SWAP4 POP POP POP POP JUMP JUMPDEST PUSH1 0x0 DUP1 PUSH1 0x0 DUP1 PUSH1 0x80 DUP6 DUP8 SUB SLT ISZERO PUSH2 0xC52 JUMPI PUSH1 0x0 DUP1 REVERT JUMPDEST DUP5 MLOAD PUSH8 0xFFFFFFFFFFFFFFFF DUP1 DUP3 GT ISZERO PUSH2 0xC6A JUMPI PUSH1 0x0 DUP1 REVERT JUMPDEST PUSH2 0xC76 DUP9 DUP4 DUP10 ADD PUSH2 0xBEF JUMP JUMPDEST SWAP6 POP PUSH1 0x20 DUP8 ADD MLOAD SWAP5 POP PUSH1 0x40 DUP8 ADD MLOAD SWAP2 POP DUP1 DUP3 GT ISZERO PUSH2 0xC93 JUMPI PUSH1 0x0 DUP1 REVERT JUMPDEST POP PUSH2 0xCA0 DUP8 DUP3 DUP9 ADD PUSH2 0xBEF JUMP JUMPDEST PUSH1 0x60 SWAP7 SWAP1 SWAP7 ADD MLOAD SWAP5 SWAP8 SWAP4 SWAP7 POP POP POP POP JUMP JUMPDEST PUSH1 0x0 DUP3 MLOAD PUSH2 0x9EB DUP2 DUP5 PUSH1 0x20 DUP8 ADD PUSH2 0x92E JUMP INVALID LOG2 PUSH5 0x6970667358 0x22 SLT KECCAK256 PUSH9 0xF76ED19CC81E1C0259 PUSH23 0xEF7B660AACAEC14AA766DEDC2470FCE11BD4FAFC0E6473 PUSH16 0x6C634300080A00330000000000000000 ","sha1":"ec0c67253d7066d428123588050aa7b4867df016","source":"// SPDX-License-Identifier: UNLICENSED\npragma solidity ^0.8.4;\n\nimport \"../../libraries/Errors.sol\";\nimport \"../../interfaces/IAssetRegistry.sol\";\nimport \"../../interfaces/oracles/IUSDPriceOracle.sol\";\n\ncontract TrustedSignerPriceOracle is IUSDPriceOracle {\n    /// @notice prices posted should be scaled using `PRICE_DECIMALS` decimals\n    uint8 public constant PRICE_DECIMALS = 6;\n\n    /// @notice we throw an error if the price is older than `MAX_LAG` seconds\n    uint256 public constant MAX_LAG = 3600;\n\n    /// @notice this event is emitted when the price of `asset` is updated\n    event PriceUpdated(address indexed asset, uint256 price, uint256 timestamp);\n\n    struct SignedPrice {\n        bytes message;\n        bytes signature;\n    }\n\n    struct PriceData {\n        uint64 timestamp;\n        uint128 price;\n    }\n\n    /// @notice address of the trusted price signer\n    /// This should be the Coinbase signing address in production deployments\n    /// i.e. 0xfCEAdAFab14d46e20144F48824d0C09B1a03F2BC\n    address public immutable trustedPriceSigner;\n\n    /// @notice the asset registry used to find the mapping between\n    /// a token address and its address\n    IAssetRegistry public immutable assetRegistry;\n\n    /// @dev asset to prices storage\n    mapping(address => PriceData) internal prices;\n\n    constructor(address _assetRegistry, address _priceSigner) {\n        assetRegistry = IAssetRegistry(_assetRegistry);\n        trustedPriceSigner = _priceSigner;\n    }\n\n    /// @inheritdoc IUSDPriceOracle\n    function getPriceUSD(address baseAsset) external view returns (uint256) {\n        PriceData memory signedPrice = prices[baseAsset];\n        require(signedPrice.timestamp > 0, Errors.ASSET_NOT_SUPPORTED);\n        require(signedPrice.timestamp + MAX_LAG >= block.timestamp, Errors.STALE_PRICE);\n        return signedPrice.price;\n    }\n\n    /// @notice returns the last update of `asset` or 0 if `asset` has never been updated\n    function getLastUpdate(address asset) external view returns (uint256) {\n        return prices[asset].timestamp;\n    }\n\n    /// @notice Updates prices using a list of signed prices received from a trusted signer (e.g. Coinbase)\n    function postPrices(SignedPrice[] calldata signedPrices) external {\n        for (uint256 i = 0; i < signedPrices.length; i++) {\n            SignedPrice calldata signedPrice = signedPrices[i];\n            _postPrice(signedPrice.message, signedPrice.signature);\n        }\n    }\n\n    /// @notice Upates the price with a message containing the price information and its signature\n    /// The message should have the following ABI-encoded format: (string kind, uint256 timestamp, string key, uint256 price)\n    function postPrice(bytes memory message, bytes memory signature) external {\n        _postPrice(message, signature);\n    }\n\n    function _postPrice(bytes memory message, bytes memory signature) internal {\n        address signingAddress = verifyMessage(message, signature);\n        require(signingAddress == trustedPriceSigner, Errors.INVALID_MESSAGE);\n\n        (uint256 timestamp, string memory assetName, uint256 price) = decodeMessage(message);\n        address assetAddress = assetRegistry.getAssetAddress(assetName);\n        PriceData storage priceData = prices[assetAddress];\n        require(\n            timestamp > priceData.timestamp && timestamp + MAX_LAG >= block.timestamp,\n            Errors.STALE_PRICE\n        );\n\n        uint256 scaledPrice = price * 10**(18 - PRICE_DECIMALS);\n\n        priceData.timestamp = uint64(timestamp);\n        priceData.price = uint128(scaledPrice);\n\n        emit PriceUpdated(assetAddress, scaledPrice, timestamp);\n    }\n\n    function decodeMessage(bytes memory message)\n        internal\n        pure\n        returns (\n            uint256,\n            string memory,\n            uint256\n        )\n    {\n        (string memory kind, uint256 timestamp, string memory key, uint256 value) = abi.decode(\n            message,\n            (string, uint256, string, uint256)\n        );\n        require(\n            keccak256(abi.encodePacked(kind)) == keccak256(abi.encodePacked(\"prices\")),\n            Errors.INVALID_MESSAGE\n        );\n        return (timestamp, key, value);\n    }\n\n    function verifyMessage(bytes memory message, bytes memory signature)\n        internal\n        pure\n        returns (address)\n    {\n        (bytes32 r, bytes32 s, uint8 v) = abi.decode(signature, (bytes32, bytes32, uint8));\n        bytes32 signedHash = keccak256(\n            abi.encodePacked(\"\\x19Ethereum Signed Message:\\n32\", keccak256(message))\n        );\n        return ecrecover(signedHash, v, r, s);\n    }\n}\n","sourcePath":"contracts/oracles/TrustedSignerPriceOracle.sol","type":"contract","deployment":{"address":"0x60Ed2b6dCA1BAed74B53c767d5dC49bd68e7896c","chainid":"137","blockHeight":26856261}}