{"abi":[{"anonymous":false,"inputs":[{"indexed":false,"internalType":"address","name":"oldGovernor","type":"address"},{"indexed":false,"internalType":"address","name":"newGovernor","type":"address"}],"name":"GovernorChanged","type":"event"},{"inputs":[],"name":"MAX_FEE","outputs":[{"internalType":"uint64","name":"","type":"uint64"}],"stateMutability":"view","type":"function"},{"inputs":[{"components":[{"components":[{"components":[{"internalType":"address","name":"vault","type":"address"},{"internalType":"uint8","name":"decimals","type":"uint8"},{"internalType":"uint256","name":"price","type":"uint256"},{"components":[{"internalType":"uint256","name":"initialPrice","type":"uint256"},{"internalType":"uint256","name":"initialWeight","type":"uint256"},{"internalType":"uint256","name":"shortFlowMemory","type":"uint256"},{"internalType":"uint256","name":"shortFlowThreshold","type":"uint256"}],"internalType":"struct DataTypes.PersistedVaultMetadata","name":"persistedMetadata","type":"tuple"},{"internalType":"uint256","name":"reserveBalance","type":"uint256"},{"internalType":"uint256","name":"currentWeight","type":"uint256"},{"internalType":"uint256","name":"idealWeight","type":"uint256"},{"components":[{"internalType":"address","name":"tokenAddress","type":"address"},{"internalType":"uint256","name":"price","type":"uint256"}],"internalType":"struct DataTypes.PricedToken[]","name":"pricedTokens","type":"tuple[]"}],"internalType":"struct DataTypes.VaultInfo","name":"vaultInfo","type":"tuple"},{"internalType":"uint256","name":"amount","type":"uint256"}],"internalType":"struct DataTypes.VaultWithAmount[]","name":"vaultsWithAmount","type":"tuple[]"},{"internalType":"bool","name":"mint","type":"bool"}],"internalType":"struct DataTypes.Order","name":"order","type":"tuple"}],"name":"applyFees","outputs":[{"components":[{"components":[{"components":[{"internalType":"address","name":"vault","type":"address"},{"internalType":"uint8","name":"decimals","type":"uint8"},{"internalType":"uint256","name":"price","type":"uint256"},{"components":[{"internalType":"uint256","name":"initialPrice","type":"uint256"},{"internalType":"uint256","name":"initialWeight","type":"uint256"},{"internalType":"uint256","name":"shortFlowMemory","type":"uint256"},{"internalType":"uint256","name":"shortFlowThreshold","type":"uint256"}],"internalType":"struct DataTypes.PersistedVaultMetadata","name":"persistedMetadata","type":"tuple"},{"internalType":"uint256","name":"reserveBalance","type":"uint256"},{"internalType":"uint256","name":"currentWeight","type":"uint256"},{"internalType":"uint256","name":"idealWeight","type":"uint256"},{"components":[{"internalType":"address","name":"tokenAddress","type":"address"},{"internalType":"uint256","name":"price","type":"uint256"}],"internalType":"struct DataTypes.PricedToken[]","name":"pricedTokens","type":"tuple[]"}],"internalType":"struct DataTypes.VaultInfo","name":"vaultInfo","type":"tuple"},{"internalType":"uint256","name":"amount","type":"uint256"}],"internalType":"struct DataTypes.VaultWithAmount[]","name":"vaultsWithAmount","type":"tuple[]"},{"internalType":"bool","name":"mint","type":"bool"}],"internalType":"struct DataTypes.Order","name":"","type":"tuple"}],"stateMutability":"view","type":"function"},{"inputs":[{"internalType":"address","name":"newGovernor","type":"address"}],"name":"changeGovernor","outputs":[],"stateMutability":"nonpayable","type":"function"},{"inputs":[],"name":"governor","outputs":[{"internalType":"address","name":"","type":"address"}],"stateMutability":"view","type":"function"},{"inputs":[{"internalType":"address","name":"vault","type":"address"},{"internalType":"uint64","name":"mintFee","type":"uint64"},{"internalType":"uint64","name":"redeemFee","type":"uint64"}],"name":"setVaultFees","outputs":[],"stateMutability":"nonpayable","type":"function"},{"inputs":[{"internalType":"address","name":"","type":"address"}],"name":"vaultFees","outputs":[{"internalType":"bool","name":"exists","type":"bool"},{"internalType":"uint64","name":"mint","type":"uint64"},{"internalType":"uint64","name":"redeem","type":"uint64"}],"stateMutability":"view","type":"function"}],"bytecode":"608060405234801561001057600080fd5b50600080546001600160a01b0319163390811782556040805192835260208301919091527fde4b3f61490b74c0ed6237523974fe299126bbbf8a8a7482fd220104c59b0c84910160405180910390a1610d648061006e6000396000f3fe608060405234801561001057600080fd5b50600436106100625760003560e01c80630a01286f146100675780630c340a24146100d0578063a90f236d146100fb578063bc063e1a14610110578063ded9d02b14610137578063e4c0aaf414610157575b600080fd5b6100a46100753660046106b0565b60016020526000908152604090205460ff8116906001600160401b036101008204811691600160481b90041683565b6040805193151584526001600160401b0392831660208501529116908201526060015b60405180910390f35b6000546100e3906001600160a01b031681565b6040516001600160a01b0390911681526020016100c7565b61010e6101093660046106e9565b61016a565b005b61011f6702c68af0bb14000081565b6040516001600160401b0390911681526020016100c7565b61014a6101453660046108fc565b610301565b6040516100c79190610b24565b61010e6101653660046106b0565b61052a565b600054604080518082019091526002815261033360f41b6020820152906001600160a01b031633146101b85760405162461bcd60e51b81526004016101af9190610c3a565b60405180910390fd5b50604080518082019091526002815261333160f01b60208201526001600160a01b0384166101f95760405162461bcd60e51b81526004016101af9190610c3a565b506702c68af0bb1400006001600160401b0383161180159061022c57506702c68af0bb1400006001600160401b03821611155b60405180604001604052806002815260200161333160f01b815250906102655760405162461bcd60e51b81526004016101af9190610c3a565b506040805160608101825260018082526001600160401b0394851660208084019182529486168385019081526001600160a01b039790971660009081529190945291909120905181549251945168ffffffffffffffffff1990931690151568ffffffffffffffff00191617610100948416949094029390931770ffffffffffffffff0000000000000000001916600160481b9190921602179055565b6040805180820190915260608152600060208201528151516000906001600160401b038111156103335761033361072c565b60405190808252806020026020018201604052801561036c57816020015b6103596105fa565b8152602001906001900390816103515790505b50905060005b8351518110156105065760008460000151828151811061039457610394610c8f565b60209081029190910181015151516001600160a01b0381166000908152600183526040908190208151606081018352905460ff811615158083526001600160401b036101008304811684880152600160481b9092049091168284015282518084019093526002835261333160f01b94830194909452919350909161042b5760405162461bcd60e51b81526004016101af9190610c3a565b5060008660200151610441578160400151610447565b81602001515b610462906001600160401b0316670de0b6b3a7640000610cbb565b9050600061049a828960000151878151811061048057610480610c8f565b6020026020010151602001516105d190919063ffffffff16565b90506040518060400160405280896000015187815181106104bd576104bd610c8f565b6020026020010151600001518152602001828152508686815181106104e4576104e4610c8f565b60200260200101819052505050505080806104fe90610cd2565b915050610372565b50604051806040016040528082815260200184602001511515815250915050919050565b600054604080518082019091526002815261033360f41b6020820152906001600160a01b0316331461056f5760405162461bcd60e51b81526004016101af9190610c3a565b50600080546001600160a01b038381166001600160a01b031983168117909355604080519190921680825260208201939093527fde4b3f61490b74c0ed6237523974fe299126bbbf8a8a7482fd220104c59b0c84910160405180910390a15050565b6000806105de8385610ced565b90506105f2670de0b6b3a764000082610d0c565b949350505050565b604051806040016040528061060d61061a565b8152602001600081525090565b60405180610100016040528060006001600160a01b03168152602001600060ff168152602001600081526020016106726040518060800160405280600081526020016000815260200160008152602001600081525090565b8152602001600081526020016000815260200160008152602001606081525090565b80356001600160a01b03811681146106ab57600080fd5b919050565b6000602082840312156106c257600080fd5b6106cb82610694565b9392505050565b80356001600160401b03811681146106ab57600080fd5b6000806000606084860312156106fe57600080fd5b61070784610694565b9250610715602085016106d2565b9150610723604085016106d2565b90509250925092565b634e487b7160e01b600052604160045260246000fd5b604080519081016001600160401b03811182821017156107645761076461072c565b60405290565b60405161010081016001600160401b03811182821017156107645761076461072c565b604051601f8201601f191681016001600160401b03811182821017156107b5576107b561072c565b604052919050565b60006001600160401b038211156107d6576107d661072c565b5060051b60200190565b803560ff811681146106ab57600080fd5b60006080828403121561080357600080fd5b604051608081018181106001600160401b03821117156108255761082561072c565b8060405250809150823581526020830135602082015260408301356040820152606083013560608201525092915050565b600082601f83011261086757600080fd5b8135602061087c610877836107bd565b61078d565b82815260069290921b8401810191818101908684111561089b57600080fd5b8286015b848110156108e157604081890312156108b85760008081fd5b6108c0610742565b6108c982610694565b8152818501358582015283529183019160400161089f565b509695505050505050565b803580151581146106ab57600080fd5b60006020828403121561090e57600080fd5b6001600160401b03808335111561092457600080fd5b6040833584018503121561093757600080fd5b61093f610742565b818435850135111561095057600080fd5b83358401803501601f8101861361096657600080fd5b61097361087782356107bd565b81358082526020808301929160051b84010188101561099157600080fd5b602083015b6020843560051b850101811015610ab35785813511156109b557600080fd5b80358401601f196040828c03820112156109ce57600080fd5b6109d6610742565b88602084013511156109e757600080fd5b6020830135830161016083828f03011215610a0157600080fd5b610a0961076a565b9250610a1760208201610694565b8352610a25604082016107e0565b602084015260608101356040840152610a418d608083016107f1565b6060840152610100810135608084015261012081013560a084015261014081013560c0840152896101608201351115610a7957600080fd5b610a8d8d6020610160840135840101610856565b60e084015250908152604091909101356020808301919091529084529283019201610996565b50835250610ac89050843585016020016108ec565b6020820152949350505050565b600081518084526020808501945080840160005b83811015610b1957815180516001600160a01b031688528301518388015260409096019590820190600101610ae9565b509495945050505050565b600060208083526060808401855160408085880152828251808552608094508489019150848160051b8a0101878501945060005b82811015610c1f57607f198b83030184528551805186845280516001600160a01b0316878501528a81015160ff81168b8601525080870151848a015289810151805160a080870191909152602082015160c0870152604082015160e08701526060820151610100870152828b01516101208701528201516101408601525060c08101516101608086019190915260e090910151610180850191909152610c026101a0850182610ad5565b918b0151938b019390935295890195938901939150600101610b58565b50968a0151801515848b0152969a9950505050505050505050565b600060208083528351808285015260005b81811015610c6757858101830151858201604001528201610c4b565b81811115610c79576000604083870101525b50601f01601f1916929092016040019392505050565b634e487b7160e01b600052603260045260246000fd5b634e487b7160e01b600052601160045260246000fd5b600082821015610ccd57610ccd610ca5565b500390565b6000600019821415610ce657610ce6610ca5565b5060010190565b6000816000190483118215151615610d0757610d07610ca5565b500290565b600082610d2957634e487b7160e01b600052601260045260246000fd5b50049056fea2646970667358221220339d6909ca87e98d32fc3ed2a4c9a69e5312caaa442b97facc6d610bf9db75f564736f6c634300080a0033","bytecodeSha1":"49fff53a2ab99425ccabe03f61eb16da12c22b7a","compiler":{"evm_version":"istanbul","optimizer":{"enabled":true,"runs":200},"version":"0.8.10+commit.fc410830"},"contractName":"StaticPercentageFeeHandler","language":"Solidity","natspec":{"kind":"dev","methods":{"MAX_FEE()":{"notice":"Mint and redeem fees cannot be above 20%"},"applyFees((((address,uint8,uint256,(uint256,uint256,uint256,uint256),uint256,uint256,uint256,(address,uint256)[]),uint256)[],bool))":{"returns":{"_0":"an order with the fees applied"}},"changeGovernor(address)":{"notice":"Changes the governor can only be called by the current governor"},"governor()":{"notice":"Returns the current governor"},"setVaultFees(address,uint64,uint64)":{"notice":"set the fees for a vault"},"vaultFees(address)":{"notice":"mapping from vault to fees"}},"version":1},"opcodes":"PUSH1 0x80 PUSH1 0x40 MSTORE CALLVALUE DUP1 ISZERO PUSH2 0x10 JUMPI PUSH1 0x0 DUP1 REVERT JUMPDEST POP PUSH1 0x4 CALLDATASIZE LT PUSH2 0x62 JUMPI PUSH1 0x0 CALLDATALOAD PUSH1 0xE0 SHR DUP1 PUSH4 0xA01286F EQ PUSH2 0x67 JUMPI DUP1 PUSH4 0xC340A24 EQ PUSH2 0xD0 JUMPI DUP1 PUSH4 0xA90F236D EQ PUSH2 0xFB JUMPI DUP1 PUSH4 0xBC063E1A EQ PUSH2 0x110 JUMPI DUP1 PUSH4 0xDED9D02B EQ PUSH2 0x137 JUMPI DUP1 PUSH4 0xE4C0AAF4 EQ PUSH2 0x157 JUMPI JUMPDEST PUSH1 0x0 DUP1 REVERT JUMPDEST PUSH2 0xA4 PUSH2 0x75 CALLDATASIZE PUSH1 0x4 PUSH2 0x6B0 JUMP JUMPDEST PUSH1 0x1 PUSH1 0x20 MSTORE PUSH1 0x0 SWAP1 DUP2 MSTORE PUSH1 0x40 SWAP1 KECCAK256 SLOAD PUSH1 0xFF DUP2 AND SWAP1 PUSH1 0x1 PUSH1 0x1 PUSH1 0x40 SHL SUB PUSH2 0x100 DUP3 DIV DUP2 AND SWAP2 PUSH1 0x1 PUSH1 0x48 SHL SWAP1 DIV AND DUP4 JUMP JUMPDEST PUSH1 0x40 DUP1 MLOAD SWAP4 ISZERO ISZERO DUP5 MSTORE PUSH1 0x1 PUSH1 0x1 PUSH1 0x40 SHL SUB SWAP3 DUP4 AND PUSH1 0x20 DUP6 ADD MSTORE SWAP2 AND SWAP1 DUP3 ADD MSTORE PUSH1 0x60 ADD JUMPDEST PUSH1 0x40 MLOAD DUP1 SWAP2 SUB SWAP1 RETURN JUMPDEST PUSH1 0x0 SLOAD PUSH2 0xE3 SWAP1 PUSH1 0x1 PUSH1 0x1 PUSH1 0xA0 SHL SUB AND DUP2 JUMP JUMPDEST PUSH1 0x40 MLOAD PUSH1 0x1 PUSH1 0x1 PUSH1 0xA0 SHL SUB SWAP1 SWAP2 AND DUP2 MSTORE PUSH1 0x20 ADD PUSH2 0xC7 JUMP JUMPDEST PUSH2 0x10E PUSH2 0x109 CALLDATASIZE PUSH1 0x4 PUSH2 0x6E9 JUMP JUMPDEST PUSH2 0x16A JUMP JUMPDEST STOP JUMPDEST PUSH2 0x11F PUSH8 0x2C68AF0BB140000 DUP2 JUMP JUMPDEST PUSH1 0x40 MLOAD PUSH1 0x1 PUSH1 0x1 PUSH1 0x40 SHL SUB SWAP1 SWAP2 AND DUP2 MSTORE PUSH1 0x20 ADD PUSH2 0xC7 JUMP JUMPDEST PUSH2 0x14A PUSH2 0x145 CALLDATASIZE PUSH1 0x4 PUSH2 0x8FC JUMP JUMPDEST PUSH2 0x301 JUMP JUMPDEST PUSH1 0x40 MLOAD PUSH2 0xC7 SWAP2 SWAP1 PUSH2 0xB24 JUMP JUMPDEST PUSH2 0x10E PUSH2 0x165 CALLDATASIZE PUSH1 0x4 PUSH2 0x6B0 JUMP JUMPDEST PUSH2 0x52A JUMP JUMPDEST PUSH1 0x0 SLOAD PUSH1 0x40 DUP1 MLOAD DUP1 DUP3 ADD SWAP1 SWAP2 MSTORE PUSH1 0x2 DUP2 MSTORE PUSH2 0x333 PUSH1 0xF4 SHL PUSH1 0x20 DUP3 ADD MSTORE SWAP1 PUSH1 0x1 PUSH1 0x1 PUSH1 0xA0 SHL SUB AND CALLER EQ PUSH2 0x1B8 JUMPI PUSH1 0x40 MLOAD PUSH3 0x461BCD PUSH1 0xE5 SHL DUP2 MSTORE PUSH1 0x4 ADD PUSH2 0x1AF SWAP2 SWAP1 PUSH2 0xC3A JUMP JUMPDEST PUSH1 0x40 MLOAD DUP1 SWAP2 SUB SWAP1 REVERT JUMPDEST POP PUSH1 0x40 DUP1 MLOAD DUP1 DUP3 ADD SWAP1 SWAP2 MSTORE PUSH1 0x2 DUP2 MSTORE PUSH2 0x3331 PUSH1 0xF0 SHL PUSH1 0x20 DUP3 ADD MSTORE PUSH1 0x1 PUSH1 0x1 PUSH1 0xA0 SHL SUB DUP5 AND PUSH2 0x1F9 JUMPI PUSH1 0x40 MLOAD PUSH3 0x461BCD PUSH1 0xE5 SHL DUP2 MSTORE PUSH1 0x4 ADD PUSH2 0x1AF SWAP2 SWAP1 PUSH2 0xC3A JUMP JUMPDEST POP PUSH8 0x2C68AF0BB140000 PUSH1 0x1 PUSH1 0x1 PUSH1 0x40 SHL SUB DUP4 AND GT DUP1 ISZERO SWAP1 PUSH2 0x22C JUMPI POP PUSH8 0x2C68AF0BB140000 PUSH1 0x1 PUSH1 0x1 PUSH1 0x40 SHL SUB DUP3 AND GT ISZERO JUMPDEST PUSH1 0x40 MLOAD DUP1 PUSH1 0x40 ADD PUSH1 0x40 MSTORE DUP1 PUSH1 0x2 DUP2 MSTORE PUSH1 0x20 ADD PUSH2 0x3331 PUSH1 0xF0 SHL DUP2 MSTORE POP SWAP1 PUSH2 0x265 JUMPI PUSH1 0x40 MLOAD PUSH3 0x461BCD PUSH1 0xE5 SHL DUP2 MSTORE PUSH1 0x4 ADD PUSH2 0x1AF SWAP2 SWAP1 PUSH2 0xC3A JUMP JUMPDEST POP PUSH1 0x40 DUP1 MLOAD PUSH1 0x60 DUP2 ADD DUP3 MSTORE PUSH1 0x1 DUP1 DUP3 MSTORE PUSH1 0x1 PUSH1 0x1 PUSH1 0x40 SHL SUB SWAP5 DUP6 AND PUSH1 0x20 DUP1 DUP5 ADD SWAP2 DUP3 MSTORE SWAP5 DUP7 AND DUP4 DUP6 ADD SWAP1 DUP2 MSTORE PUSH1 0x1 PUSH1 0x1 PUSH1 0xA0 SHL SUB SWAP8 SWAP1 SWAP8 AND PUSH1 0x0 SWAP1 DUP2 MSTORE SWAP2 SWAP1 SWAP5 MSTORE SWAP2 SWAP1 SWAP2 KECCAK256 SWAP1 MLOAD DUP2 SLOAD SWAP3 MLOAD SWAP5 MLOAD PUSH9 0xFFFFFFFFFFFFFFFFFF NOT SWAP1 SWAP4 AND SWAP1 ISZERO ISZERO PUSH9 0xFFFFFFFFFFFFFFFF00 NOT AND OR PUSH2 0x100 SWAP5 DUP5 AND SWAP5 SWAP1 SWAP5 MUL SWAP4 SWAP1 SWAP4 OR PUSH17 0xFFFFFFFFFFFFFFFF000000000000000000 NOT AND PUSH1 0x1 PUSH1 0x48 SHL SWAP2 SWAP1 SWAP3 AND MUL OR SWAP1 SSTORE JUMP JUMPDEST PUSH1 0x40 DUP1 MLOAD DUP1 DUP3 ADD SWAP1 SWAP2 MSTORE PUSH1 0x60 DUP2 MSTORE PUSH1 0x0 PUSH1 0x20 DUP3 ADD MSTORE DUP2 MLOAD MLOAD PUSH1 0x0 SWAP1 PUSH1 0x1 PUSH1 0x1 PUSH1 0x40 SHL SUB DUP2 GT ISZERO PUSH2 0x333 JUMPI PUSH2 0x333 PUSH2 0x72C JUMP JUMPDEST PUSH1 0x40 MLOAD SWAP1 DUP1 DUP3 MSTORE DUP1 PUSH1 0x20 MUL PUSH1 0x20 ADD DUP3 ADD PUSH1 0x40 MSTORE DUP1 ISZERO PUSH2 0x36C JUMPI DUP2 PUSH1 0x20 ADD JUMPDEST PUSH2 0x359 PUSH2 0x5FA JUMP JUMPDEST DUP2 MSTORE PUSH1 0x20 ADD SWAP1 PUSH1 0x1 SWAP1 SUB SWAP1 DUP2 PUSH2 0x351 JUMPI SWAP1 POP JUMPDEST POP SWAP1 POP PUSH1 0x0 JUMPDEST DUP4 MLOAD MLOAD DUP2 LT ISZERO PUSH2 0x506 JUMPI PUSH1 0x0 DUP5 PUSH1 0x0 ADD MLOAD DUP3 DUP2 MLOAD DUP2 LT PUSH2 0x394 JUMPI PUSH2 0x394 PUSH2 0xC8F JUMP JUMPDEST PUSH1 0x20 SWAP1 DUP2 MUL SWAP2 SWAP1 SWAP2 ADD DUP2 ADD MLOAD MLOAD MLOAD PUSH1 0x1 PUSH1 0x1 PUSH1 0xA0 SHL SUB DUP2 AND PUSH1 0x0 SWAP1 DUP2 MSTORE PUSH1 0x1 DUP4 MSTORE PUSH1 0x40 SWAP1 DUP2 SWAP1 KECCAK256 DUP2 MLOAD PUSH1 0x60 DUP2 ADD DUP4 MSTORE SWAP1 SLOAD PUSH1 0xFF DUP2 AND ISZERO ISZERO DUP1 DUP4 MSTORE PUSH1 0x1 PUSH1 0x1 PUSH1 0x40 SHL SUB PUSH2 0x100 DUP4 DIV DUP2 AND DUP5 DUP9 ADD MSTORE PUSH1 0x1 PUSH1 0x48 SHL SWAP1 SWAP3 DIV SWAP1 SWAP2 AND DUP3 DUP5 ADD MSTORE DUP3 MLOAD DUP1 DUP5 ADD SWAP1 SWAP4 MSTORE PUSH1 0x2 DUP4 MSTORE PUSH2 0x3331 PUSH1 0xF0 SHL SWAP5 DUP4 ADD SWAP5 SWAP1 SWAP5 MSTORE SWAP2 SWAP4 POP SWAP1 SWAP2 PUSH2 0x42B JUMPI PUSH1 0x40 MLOAD PUSH3 0x461BCD PUSH1 0xE5 SHL DUP2 MSTORE PUSH1 0x4 ADD PUSH2 0x1AF SWAP2 SWAP1 PUSH2 0xC3A JUMP JUMPDEST POP PUSH1 0x0 DUP7 PUSH1 0x20 ADD MLOAD PUSH2 0x441 JUMPI DUP2 PUSH1 0x40 ADD MLOAD PUSH2 0x447 JUMP JUMPDEST DUP2 PUSH1 0x20 ADD MLOAD JUMPDEST PUSH2 0x462 SWAP1 PUSH1 0x1 PUSH1 0x1 PUSH1 0x40 SHL SUB AND PUSH8 0xDE0B6B3A7640000 PUSH2 0xCBB JUMP JUMPDEST SWAP1 POP PUSH1 0x0 PUSH2 0x49A DUP3 DUP10 PUSH1 0x0 ADD MLOAD DUP8 DUP2 MLOAD DUP2 LT PUSH2 0x480 JUMPI PUSH2 0x480 PUSH2 0xC8F JUMP JUMPDEST PUSH1 0x20 MUL PUSH1 0x20 ADD ADD MLOAD PUSH1 0x20 ADD MLOAD PUSH2 0x5D1 SWAP1 SWAP2 SWAP1 PUSH4 0xFFFFFFFF AND JUMP JUMPDEST SWAP1 POP PUSH1 0x40 MLOAD DUP1 PUSH1 0x40 ADD PUSH1 0x40 MSTORE DUP1 DUP10 PUSH1 0x0 ADD MLOAD DUP8 DUP2 MLOAD DUP2 LT PUSH2 0x4BD JUMPI PUSH2 0x4BD PUSH2 0xC8F JUMP JUMPDEST PUSH1 0x20 MUL PUSH1 0x20 ADD ADD MLOAD PUSH1 0x0 ADD MLOAD DUP2 MSTORE PUSH1 0x20 ADD DUP3 DUP2 MSTORE POP DUP7 DUP7 DUP2 MLOAD DUP2 LT PUSH2 0x4E4 JUMPI PUSH2 0x4E4 PUSH2 0xC8F JUMP JUMPDEST PUSH1 0x20 MUL PUSH1 0x20 ADD ADD DUP2 SWAP1 MSTORE POP POP POP POP POP DUP1 DUP1 PUSH2 0x4FE SWAP1 PUSH2 0xCD2 JUMP JUMPDEST SWAP2 POP POP PUSH2 0x372 JUMP JUMPDEST POP PUSH1 0x40 MLOAD DUP1 PUSH1 0x40 ADD PUSH1 0x40 MSTORE DUP1 DUP3 DUP2 MSTORE PUSH1 0x20 ADD DUP5 PUSH1 0x20 ADD MLOAD ISZERO ISZERO DUP2 MSTORE POP SWAP2 POP POP SWAP2 SWAP1 POP JUMP JUMPDEST PUSH1 0x0 SLOAD PUSH1 0x40 DUP1 MLOAD DUP1 DUP3 ADD SWAP1 SWAP2 MSTORE PUSH1 0x2 DUP2 MSTORE PUSH2 0x333 PUSH1 0xF4 SHL PUSH1 0x20 DUP3 ADD MSTORE SWAP1 PUSH1 0x1 PUSH1 0x1 PUSH1 0xA0 SHL SUB AND CALLER EQ PUSH2 0x56F JUMPI PUSH1 0x40 MLOAD PUSH3 0x461BCD PUSH1 0xE5 SHL DUP2 MSTORE PUSH1 0x4 ADD PUSH2 0x1AF SWAP2 SWAP1 PUSH2 0xC3A JUMP JUMPDEST POP PUSH1 0x0 DUP1 SLOAD PUSH1 0x1 PUSH1 0x1 PUSH1 0xA0 SHL SUB DUP4 DUP2 AND PUSH1 0x1 PUSH1 0x1 PUSH1 0xA0 SHL SUB NOT DUP4 AND DUP2 OR SWAP1 SWAP4 SSTORE PUSH1 0x40 DUP1 MLOAD SWAP2 SWAP1 SWAP3 AND DUP1 DUP3 MSTORE PUSH1 0x20 DUP3 ADD SWAP4 SWAP1 SWAP4 MSTORE PUSH32 0xDE4B3F61490B74C0ED6237523974FE299126BBBF8A8A7482FD220104C59B0C84 SWAP2 ADD PUSH1 0x40 MLOAD DUP1 SWAP2 SUB SWAP1 LOG1 POP POP JUMP JUMPDEST PUSH1 0x0 DUP1 PUSH2 0x5DE DUP4 DUP6 PUSH2 0xCED JUMP JUMPDEST SWAP1 POP PUSH2 0x5F2 PUSH8 0xDE0B6B3A7640000 DUP3 PUSH2 0xD0C JUMP JUMPDEST SWAP5 SWAP4 POP POP POP POP JUMP JUMPDEST PUSH1 0x40 MLOAD DUP1 PUSH1 0x40 ADD PUSH1 0x40 MSTORE DUP1 PUSH2 0x60D PUSH2 0x61A JUMP JUMPDEST DUP2 MSTORE PUSH1 0x20 ADD PUSH1 0x0 DUP2 MSTORE POP SWAP1 JUMP JUMPDEST PUSH1 0x40 MLOAD DUP1 PUSH2 0x100 ADD PUSH1 0x40 MSTORE DUP1 PUSH1 0x0 PUSH1 0x1 PUSH1 0x1 PUSH1 0xA0 SHL SUB AND DUP2 MSTORE PUSH1 0x20 ADD PUSH1 0x0 PUSH1 0xFF AND DUP2 MSTORE PUSH1 0x20 ADD PUSH1 0x0 DUP2 MSTORE PUSH1 0x20 ADD PUSH2 0x672 PUSH1 0x40 MLOAD DUP1 PUSH1 0x80 ADD PUSH1 0x40 MSTORE DUP1 PUSH1 0x0 DUP2 MSTORE PUSH1 0x20 ADD PUSH1 0x0 DUP2 MSTORE PUSH1 0x20 ADD PUSH1 0x0 DUP2 MSTORE PUSH1 0x20 ADD PUSH1 0x0 DUP2 MSTORE POP SWAP1 JUMP JUMPDEST DUP2 MSTORE PUSH1 0x20 ADD PUSH1 0x0 DUP2 MSTORE PUSH1 0x20 ADD PUSH1 0x0 DUP2 MSTORE PUSH1 0x20 ADD PUSH1 0x0 DUP2 MSTORE PUSH1 0x20 ADD PUSH1 0x60 DUP2 MSTORE POP SWAP1 JUMP JUMPDEST DUP1 CALLDATALOAD PUSH1 0x1 PUSH1 0x1 PUSH1 0xA0 SHL SUB DUP2 AND DUP2 EQ PUSH2 0x6AB JUMPI PUSH1 0x0 DUP1 REVERT JUMPDEST SWAP2 SWAP1 POP JUMP JUMPDEST PUSH1 0x0 PUSH1 0x20 DUP3 DUP5 SUB SLT ISZERO PUSH2 0x6C2 JUMPI PUSH1 0x0 DUP1 REVERT JUMPDEST PUSH2 0x6CB DUP3 PUSH2 0x694 JUMP JUMPDEST SWAP4 SWAP3 POP POP POP JUMP JUMPDEST DUP1 CALLDATALOAD PUSH1 0x1 PUSH1 0x1 PUSH1 0x40 SHL SUB DUP2 AND DUP2 EQ PUSH2 0x6AB JUMPI PUSH1 0x0 DUP1 REVERT JUMPDEST PUSH1 0x0 DUP1 PUSH1 0x0 PUSH1 0x60 DUP5 DUP7 SUB SLT ISZERO PUSH2 0x6FE JUMPI PUSH1 0x0 DUP1 REVERT JUMPDEST PUSH2 0x707 DUP5 PUSH2 0x694 JUMP JUMPDEST SWAP3 POP PUSH2 0x715 PUSH1 0x20 DUP6 ADD PUSH2 0x6D2 JUMP JUMPDEST SWAP2 POP PUSH2 0x723 PUSH1 0x40 DUP6 ADD PUSH2 0x6D2 JUMP JUMPDEST SWAP1 POP SWAP3 POP SWAP3 POP SWAP3 JUMP JUMPDEST PUSH4 0x4E487B71 PUSH1 0xE0 SHL PUSH1 0x0 MSTORE PUSH1 0x41 PUSH1 0x4 MSTORE PUSH1 0x24 PUSH1 0x0 REVERT JUMPDEST PUSH1 0x40 DUP1 MLOAD SWAP1 DUP2 ADD PUSH1 0x1 PUSH1 0x1 PUSH1 0x40 SHL SUB DUP2 GT DUP3 DUP3 LT OR ISZERO PUSH2 0x764 JUMPI PUSH2 0x764 PUSH2 0x72C JUMP JUMPDEST PUSH1 0x40 MSTORE SWAP1 JUMP JUMPDEST PUSH1 0x40 MLOAD PUSH2 0x100 DUP2 ADD PUSH1 0x1 PUSH1 0x1 PUSH1 0x40 SHL SUB DUP2 GT DUP3 DUP3 LT OR ISZERO PUSH2 0x764 JUMPI PUSH2 0x764 PUSH2 0x72C JUMP JUMPDEST PUSH1 0x40 MLOAD PUSH1 0x1F DUP3 ADD PUSH1 0x1F NOT AND DUP2 ADD PUSH1 0x1 PUSH1 0x1 PUSH1 0x40 SHL SUB DUP2 GT DUP3 DUP3 LT OR ISZERO PUSH2 0x7B5 JUMPI PUSH2 0x7B5 PUSH2 0x72C JUMP JUMPDEST PUSH1 0x40 MSTORE SWAP2 SWAP1 POP JUMP JUMPDEST PUSH1 0x0 PUSH1 0x1 PUSH1 0x1 PUSH1 0x40 SHL SUB DUP3 GT ISZERO PUSH2 0x7D6 JUMPI PUSH2 0x7D6 PUSH2 0x72C JUMP JUMPDEST POP PUSH1 0x5 SHL PUSH1 0x20 ADD SWAP1 JUMP JUMPDEST DUP1 CALLDATALOAD PUSH1 0xFF DUP2 AND DUP2 EQ PUSH2 0x6AB JUMPI PUSH1 0x0 DUP1 REVERT JUMPDEST PUSH1 0x0 PUSH1 0x80 DUP3 DUP5 SUB SLT ISZERO PUSH2 0x803 JUMPI PUSH1 0x0 DUP1 REVERT JUMPDEST PUSH1 0x40 MLOAD PUSH1 0x80 DUP2 ADD DUP2 DUP2 LT PUSH1 0x1 PUSH1 0x1 PUSH1 0x40 SHL SUB DUP3 GT OR ISZERO PUSH2 0x825 JUMPI PUSH2 0x825 PUSH2 0x72C JUMP JUMPDEST DUP1 PUSH1 0x40 MSTORE POP DUP1 SWAP2 POP DUP3 CALLDATALOAD DUP2 MSTORE PUSH1 0x20 DUP4 ADD CALLDATALOAD PUSH1 0x20 DUP3 ADD MSTORE PUSH1 0x40 DUP4 ADD CALLDATALOAD PUSH1 0x40 DUP3 ADD MSTORE PUSH1 0x60 DUP4 ADD CALLDATALOAD PUSH1 0x60 DUP3 ADD MSTORE POP SWAP3 SWAP2 POP POP JUMP JUMPDEST PUSH1 0x0 DUP3 PUSH1 0x1F DUP4 ADD SLT PUSH2 0x867 JUMPI PUSH1 0x0 DUP1 REVERT JUMPDEST DUP2 CALLDATALOAD PUSH1 0x20 PUSH2 0x87C PUSH2 0x877 DUP4 PUSH2 0x7BD JUMP JUMPDEST PUSH2 0x78D JUMP JUMPDEST DUP3 DUP2 MSTORE PUSH1 0x6 SWAP3 SWAP1 SWAP3 SHL DUP5 ADD DUP2 ADD SWAP2 DUP2 DUP2 ADD SWAP1 DUP7 DUP5 GT ISZERO PUSH2 0x89B JUMPI PUSH1 0x0 DUP1 REVERT JUMPDEST DUP3 DUP7 ADD JUMPDEST DUP5 DUP2 LT ISZERO PUSH2 0x8E1 JUMPI PUSH1 0x40 DUP2 DUP10 SUB SLT ISZERO PUSH2 0x8B8 JUMPI PUSH1 0x0 DUP1 DUP2 REVERT JUMPDEST PUSH2 0x8C0 PUSH2 0x742 JUMP JUMPDEST PUSH2 0x8C9 DUP3 PUSH2 0x694 JUMP JUMPDEST DUP2 MSTORE DUP2 DUP6 ADD CALLDATALOAD DUP6 DUP3 ADD MSTORE DUP4 MSTORE SWAP2 DUP4 ADD SWAP2 PUSH1 0x40 ADD PUSH2 0x89F JUMP JUMPDEST POP SWAP7 SWAP6 POP POP POP POP POP POP JUMP JUMPDEST DUP1 CALLDATALOAD DUP1 ISZERO ISZERO DUP2 EQ PUSH2 0x6AB JUMPI PUSH1 0x0 DUP1 REVERT JUMPDEST PUSH1 0x0 PUSH1 0x20 DUP3 DUP5 SUB SLT ISZERO PUSH2 0x90E JUMPI PUSH1 0x0 DUP1 REVERT JUMPDEST PUSH1 0x1 PUSH1 0x1 PUSH1 0x40 SHL SUB DUP1 DUP4 CALLDATALOAD GT ISZERO PUSH2 0x924 JUMPI PUSH1 0x0 DUP1 REVERT JUMPDEST PUSH1 0x40 DUP4 CALLDATALOAD DUP5 ADD DUP6 SUB SLT ISZERO PUSH2 0x937 JUMPI PUSH1 0x0 DUP1 REVERT JUMPDEST PUSH2 0x93F PUSH2 0x742 JUMP JUMPDEST DUP2 DUP5 CALLDATALOAD DUP6 ADD CALLDATALOAD GT ISZERO PUSH2 0x950 JUMPI PUSH1 0x0 DUP1 REVERT JUMPDEST DUP4 CALLDATALOAD DUP5 ADD DUP1 CALLDATALOAD ADD PUSH1 0x1F DUP2 ADD DUP7 SGT PUSH2 0x966 JUMPI PUSH1 0x0 DUP1 REVERT JUMPDEST PUSH2 0x973 PUSH2 0x877 DUP3 CALLDATALOAD PUSH2 0x7BD JUMP JUMPDEST DUP2 CALLDATALOAD DUP1 DUP3 MSTORE PUSH1 0x20 DUP1 DUP4 ADD SWAP3 SWAP2 PUSH1 0x5 SHL DUP5 ADD ADD DUP9 LT ISZERO PUSH2 0x991 JUMPI PUSH1 0x0 DUP1 REVERT JUMPDEST PUSH1 0x20 DUP4 ADD JUMPDEST PUSH1 0x20 DUP5 CALLDATALOAD PUSH1 0x5 SHL DUP6 ADD ADD DUP2 LT ISZERO PUSH2 0xAB3 JUMPI DUP6 DUP2 CALLDATALOAD GT ISZERO PUSH2 0x9B5 JUMPI PUSH1 0x0 DUP1 REVERT JUMPDEST DUP1 CALLDATALOAD DUP5 ADD PUSH1 0x1F NOT PUSH1 0x40 DUP3 DUP13 SUB DUP3 ADD SLT ISZERO PUSH2 0x9CE JUMPI PUSH1 0x0 DUP1 REVERT JUMPDEST PUSH2 0x9D6 PUSH2 0x742 JUMP JUMPDEST DUP9 PUSH1 0x20 DUP5 ADD CALLDATALOAD GT ISZERO PUSH2 0x9E7 JUMPI PUSH1 0x0 DUP1 REVERT JUMPDEST PUSH1 0x20 DUP4 ADD CALLDATALOAD DUP4 ADD PUSH2 0x160 DUP4 DUP3 DUP16 SUB ADD SLT ISZERO PUSH2 0xA01 JUMPI PUSH1 0x0 DUP1 REVERT JUMPDEST PUSH2 0xA09 PUSH2 0x76A JUMP JUMPDEST SWAP3 POP PUSH2 0xA17 PUSH1 0x20 DUP3 ADD PUSH2 0x694 JUMP JUMPDEST DUP4 MSTORE PUSH2 0xA25 PUSH1 0x40 DUP3 ADD PUSH2 0x7E0 JUMP JUMPDEST PUSH1 0x20 DUP5 ADD MSTORE PUSH1 0x60 DUP2 ADD CALLDATALOAD PUSH1 0x40 DUP5 ADD MSTORE PUSH2 0xA41 DUP14 PUSH1 0x80 DUP4 ADD PUSH2 0x7F1 JUMP JUMPDEST PUSH1 0x60 DUP5 ADD MSTORE PUSH2 0x100 DUP2 ADD CALLDATALOAD PUSH1 0x80 DUP5 ADD MSTORE PUSH2 0x120 DUP2 ADD CALLDATALOAD PUSH1 0xA0 DUP5 ADD MSTORE PUSH2 0x140 DUP2 ADD CALLDATALOAD PUSH1 0xC0 DUP5 ADD MSTORE DUP10 PUSH2 0x160 DUP3 ADD CALLDATALOAD GT ISZERO PUSH2 0xA79 JUMPI PUSH1 0x0 DUP1 REVERT JUMPDEST PUSH2 0xA8D DUP14 PUSH1 0x20 PUSH2 0x160 DUP5 ADD CALLDATALOAD DUP5 ADD ADD PUSH2 0x856 JUMP JUMPDEST PUSH1 0xE0 DUP5 ADD MSTORE POP SWAP1 DUP2 MSTORE PUSH1 0x40 SWAP2 SWAP1 SWAP2 ADD CALLDATALOAD PUSH1 0x20 DUP1 DUP4 ADD SWAP2 SWAP1 SWAP2 MSTORE SWAP1 DUP5 MSTORE SWAP3 DUP4 ADD SWAP3 ADD PUSH2 0x996 JUMP JUMPDEST POP DUP4 MSTORE POP PUSH2 0xAC8 SWAP1 POP DUP5 CALLDATALOAD DUP6 ADD PUSH1 0x20 ADD PUSH2 0x8EC JUMP JUMPDEST PUSH1 0x20 DUP3 ADD MSTORE SWAP5 SWAP4 POP POP POP POP JUMP JUMPDEST PUSH1 0x0 DUP2 MLOAD DUP1 DUP5 MSTORE PUSH1 0x20 DUP1 DUP6 ADD SWAP5 POP DUP1 DUP5 ADD PUSH1 0x0 JUMPDEST DUP4 DUP2 LT ISZERO PUSH2 0xB19 JUMPI DUP2 MLOAD DUP1 MLOAD PUSH1 0x1 PUSH1 0x1 PUSH1 0xA0 SHL SUB AND DUP9 MSTORE DUP4 ADD MLOAD DUP4 DUP9 ADD MSTORE PUSH1 0x40 SWAP1 SWAP7 ADD SWAP6 SWAP1 DUP3 ADD SWAP1 PUSH1 0x1 ADD PUSH2 0xAE9 JUMP JUMPDEST POP SWAP5 SWAP6 SWAP5 POP POP POP POP POP JUMP JUMPDEST PUSH1 0x0 PUSH1 0x20 DUP1 DUP4 MSTORE PUSH1 0x60 DUP1 DUP5 ADD DUP6 MLOAD PUSH1 0x40 DUP1 DUP6 DUP9 ADD MSTORE DUP3 DUP3 MLOAD DUP1 DUP6 MSTORE PUSH1 0x80 SWAP5 POP DUP5 DUP10 ADD SWAP2 POP DUP5 DUP2 PUSH1 0x5 SHL DUP11 ADD ADD DUP8 DUP6 ADD SWAP5 POP PUSH1 0x0 JUMPDEST DUP3 DUP2 LT ISZERO PUSH2 0xC1F JUMPI PUSH1 0x7F NOT DUP12 DUP4 SUB ADD DUP5 MSTORE DUP6 MLOAD DUP1 MLOAD DUP7 DUP5 MSTORE DUP1 MLOAD PUSH1 0x1 PUSH1 0x1 PUSH1 0xA0 SHL SUB AND DUP8 DUP6 ADD MSTORE DUP11 DUP2 ADD MLOAD PUSH1 0xFF DUP2 AND DUP12 DUP7 ADD MSTORE POP DUP1 DUP8 ADD MLOAD DUP5 DUP11 ADD MSTORE DUP10 DUP2 ADD MLOAD DUP1 MLOAD PUSH1 0xA0 DUP1 DUP8 ADD SWAP2 SWAP1 SWAP2 MSTORE PUSH1 0x20 DUP3 ADD MLOAD PUSH1 0xC0 DUP8 ADD MSTORE PUSH1 0x40 DUP3 ADD MLOAD PUSH1 0xE0 DUP8 ADD MSTORE PUSH1 0x60 DUP3 ADD MLOAD PUSH2 0x100 DUP8 ADD MSTORE DUP3 DUP12 ADD MLOAD PUSH2 0x120 DUP8 ADD MSTORE DUP3 ADD MLOAD PUSH2 0x140 DUP7 ADD MSTORE POP PUSH1 0xC0 DUP2 ADD MLOAD PUSH2 0x160 DUP1 DUP7 ADD SWAP2 SWAP1 SWAP2 MSTORE PUSH1 0xE0 SWAP1 SWAP2 ADD MLOAD PUSH2 0x180 DUP6 ADD SWAP2 SWAP1 SWAP2 MSTORE PUSH2 0xC02 PUSH2 0x1A0 DUP6 ADD DUP3 PUSH2 0xAD5 JUMP JUMPDEST SWAP2 DUP12 ADD MLOAD SWAP4 DUP12 ADD SWAP4 SWAP1 SWAP4 MSTORE SWAP6 DUP10 ADD SWAP6 SWAP4 DUP10 ADD SWAP4 SWAP2 POP PUSH1 0x1 ADD PUSH2 0xB58 JUMP JUMPDEST POP SWAP7 DUP11 ADD MLOAD DUP1 ISZERO ISZERO DUP5 DUP12 ADD MSTORE SWAP7 SWAP11 SWAP10 POP POP POP POP POP POP POP POP POP POP JUMP JUMPDEST PUSH1 0x0 PUSH1 0x20 DUP1 DUP4 MSTORE DUP4 MLOAD DUP1 DUP3 DUP6 ADD MSTORE PUSH1 0x0 JUMPDEST DUP2 DUP2 LT ISZERO PUSH2 0xC67 JUMPI DUP6 DUP2 ADD DUP4 ADD MLOAD DUP6 DUP3 ADD PUSH1 0x40 ADD MSTORE DUP3 ADD PUSH2 0xC4B JUMP JUMPDEST DUP2 DUP2 GT ISZERO PUSH2 0xC79 JUMPI PUSH1 0x0 PUSH1 0x40 DUP4 DUP8 ADD ADD MSTORE JUMPDEST POP PUSH1 0x1F ADD PUSH1 0x1F NOT AND SWAP3 SWAP1 SWAP3 ADD PUSH1 0x40 ADD SWAP4 SWAP3 POP POP POP JUMP JUMPDEST PUSH4 0x4E487B71 PUSH1 0xE0 SHL PUSH1 0x0 MSTORE PUSH1 0x32 PUSH1 0x4 MSTORE PUSH1 0x24 PUSH1 0x0 REVERT JUMPDEST PUSH4 0x4E487B71 PUSH1 0xE0 SHL PUSH1 0x0 MSTORE PUSH1 0x11 PUSH1 0x4 MSTORE PUSH1 0x24 PUSH1 0x0 REVERT JUMPDEST PUSH1 0x0 DUP3 DUP3 LT ISZERO PUSH2 0xCCD JUMPI PUSH2 0xCCD PUSH2 0xCA5 JUMP JUMPDEST POP SUB SWAP1 JUMP JUMPDEST PUSH1 0x0 PUSH1 0x0 NOT DUP3 EQ ISZERO PUSH2 0xCE6 JUMPI PUSH2 0xCE6 PUSH2 0xCA5 JUMP JUMPDEST POP PUSH1 0x1 ADD SWAP1 JUMP JUMPDEST PUSH1 0x0 DUP2 PUSH1 0x0 NOT DIV DUP4 GT DUP3 ISZERO ISZERO AND ISZERO PUSH2 0xD07 JUMPI PUSH2 0xD07 PUSH2 0xCA5 JUMP JUMPDEST POP MUL SWAP1 JUMP JUMPDEST PUSH1 0x0 DUP3 PUSH2 0xD29 JUMPI PUSH4 0x4E487B71 PUSH1 0xE0 SHL PUSH1 0x0 MSTORE PUSH1 0x12 PUSH1 0x4 MSTORE PUSH1 0x24 PUSH1 0x0 REVERT JUMPDEST POP DIV SWAP1 JUMP INVALID LOG2 PUSH5 0x6970667358 0x22 SLT KECCAK256 CALLER SWAP14 PUSH10 0x9CA87E98D32FC3ED2A4 0xC9 0xA6 SWAP15 MSTORE8 SLT 0xCA 0xAA DIFFICULTY 0x2B SWAP8 STATICCALL 0xCC PUSH14 0x610BF9DB75F564736F6C63430008 EXP STOP CALLER ","sha1":"64f1178eb54b03cfbf260f385cd56461ac25fa99","source":"// SPDX-License-Identifier: UNLICENSED\npragma solidity ^0.8.4;\n\nimport \"../../interfaces/IFeeHandler.sol\";\n\nimport \"../../libraries/Errors.sol\";\nimport \"../../libraries/FixedPoint.sol\";\n\nimport \"../auth/Governable.sol\";\n\ncontract StaticPercentageFeeHandler is IFeeHandler, Governable {\n    using FixedPoint for uint256;\n\n    /// @notice Mint and redeem fees cannot be above 20%\n    uint64 public constant MAX_FEE = 0.2e18;\n\n    /// @notice holds the mint and redeem fees for a single vault\n    struct Fees {\n        bool exists;\n        uint64 mint;\n        uint64 redeem;\n    }\n\n    /// @notice mapping from vault to fees\n    mapping(address => Fees) public vaultFees;\n\n    /// @notice set the fees for a vault\n    function setVaultFees(\n        address vault,\n        uint64 mintFee,\n        uint64 redeemFee\n    ) external governanceOnly {\n        require(vault != address(0), Errors.INVALID_ARGUMENT);\n        require(mintFee <= MAX_FEE && redeemFee <= MAX_FEE, Errors.INVALID_ARGUMENT);\n        vaultFees[vault] = Fees({exists: true, mint: mintFee, redeem: redeemFee});\n    }\n\n    /// @inheritdoc IFeeHandler\n    function applyFees(DataTypes.Order memory order)\n        external\n        view\n        returns (DataTypes.Order memory)\n    {\n        DataTypes.VaultWithAmount[] memory vaultsWithAmount = new DataTypes.VaultWithAmount[](\n            order.vaultsWithAmount.length\n        );\n        for (uint256 i = 0; i < order.vaultsWithAmount.length; i++) {\n            address vaultAddress = order.vaultsWithAmount[i].vaultInfo.vault;\n            Fees memory fees = vaultFees[vaultAddress];\n            require(fees.exists, Errors.INVALID_ARGUMENT);\n            uint256 feeMultiplier = FixedPoint.ONE - (order.mint ? fees.mint : fees.redeem);\n            uint256 amountAfterFees = order.vaultsWithAmount[i].amount.mulDown(feeMultiplier);\n            vaultsWithAmount[i] = DataTypes.VaultWithAmount({\n                vaultInfo: order.vaultsWithAmount[i].vaultInfo,\n                amount: amountAfterFees\n            });\n        }\n\n        return DataTypes.Order(vaultsWithAmount, order.mint);\n    }\n}\n","sourcePath":"contracts/fee_handlers/StaticPercentageFeeHandler.sol","type":"contract","deployment":{"address":"0x61a4A78Bf86FE202495CFc64c6A76b83911F6009","chainid":"137","blockHeight":26856503}}