{"abi":[{"inputs":[{"internalType":"address","name":"governor","type":"address"},{"internalType":"uint256","name":"_safetyBlocksAutomatic","type":"uint256"},{"internalType":"uint256","name":"_safetyBlocksGuardian","type":"uint256"},{"internalType":"address","name":"_gyroConfig","type":"address"}],"stateMutability":"nonpayable","type":"constructor","name":"constructor"},{"anonymous":false,"inputs":[{"indexed":true,"internalType":"address","name":"account","type":"address"}],"name":"AddedToWhitelist","type":"event"},{"anonymous":false,"inputs":[{"indexed":false,"internalType":"address","name":"newGovernor","type":"address"}],"name":"GovernorChangeRequested","type":"event"},{"anonymous":false,"inputs":[{"indexed":false,"internalType":"address","name":"oldGovernor","type":"address"},{"indexed":false,"internalType":"address","name":"newGovernor","type":"address"}],"name":"GovernorChanged","type":"event"},{"anonymous":false,"inputs":[{"indexed":false,"internalType":"address","name":"vaultAddress","type":"address"},{"indexed":false,"internalType":"uint256","name":"durationOfProtectionInBlocks","type":"uint256"},{"indexed":false,"internalType":"bool","name":"inFlows","type":"bool"}],"name":"OracleGuardianActivated","type":"event"},{"anonymous":false,"inputs":[{"indexed":true,"internalType":"address","name":"account","type":"address"}],"name":"RemovedFromWhitelist","type":"event"},{"anonymous":false,"inputs":[{"indexed":false,"internalType":"string","name":"err","type":"string"}],"name":"SafetyStatus","type":"event"},{"inputs":[],"name":"THRESHOLD_BUFFER","outputs":[{"internalType":"uint256","name":"","type":"uint256"}],"stateMutability":"view","type":"function"},{"inputs":[],"name":"acceptGovernance","outputs":[],"stateMutability":"nonpayable","type":"function"},{"inputs":[{"components":[{"internalType":"address","name":"vaultAddress","type":"address"},{"internalType":"enum DataTypes.Direction","name":"direction","type":"uint8"}],"internalType":"struct DataTypes.GuardedVaults","name":"vaultToProtect","type":"tuple"},{"internalType":"uint256","name":"blocks","type":"uint256"}],"name":"activateOracleGuardian","outputs":[],"stateMutability":"nonpayable","type":"function"},{"inputs":[{"internalType":"address","name":"_addressToAdd","type":"address"}],"name":"addAddressToWhitelist","outputs":[],"stateMutability":"nonpayable","type":"function"},{"inputs":[{"internalType":"address","name":"newGovernor","type":"address"}],"name":"changeGovernor","outputs":[],"stateMutability":"nonpayable","type":"function"},{"inputs":[{"components":[{"components":[{"components":[{"internalType":"address","name":"vault","type":"address"},{"internalType":"uint8","name":"decimals","type":"uint8"},{"internalType":"address","name":"underlying","type":"address"},{"internalType":"uint256","name":"price","type":"uint256"},{"components":[{"internalType":"uint256","name":"initialPrice","type":"uint256"},{"internalType":"uint256","name":"initialWeight","type":"uint256"},{"internalType":"uint256","name":"shortFlowMemory","type":"uint256"},{"internalType":"uint256","name":"shortFlowThreshold","type":"uint256"}],"internalType":"struct DataTypes.PersistedVaultMetadata","name":"persistedMetadata","type":"tuple"},{"internalType":"uint256","name":"reserveBalance","type":"uint256"},{"internalType":"uint256","name":"currentWeight","type":"uint256"},{"internalType":"uint256","name":"idealWeight","type":"uint256"},{"components":[{"internalType":"address","name":"tokenAddress","type":"address"},{"internalType":"bool","name":"isStable","type":"bool"},{"internalType":"uint256","name":"price","type":"uint256"}],"internalType":"struct DataTypes.PricedToken[]","name":"pricedTokens","type":"tuple[]"}],"internalType":"struct DataTypes.VaultInfo","name":"vaultInfo","type":"tuple"},{"internalType":"uint256","name":"amount","type":"uint256"}],"internalType":"struct DataTypes.VaultWithAmount[]","name":"vaultsWithAmount","type":"tuple[]"},{"internalType":"bool","name":"mint","type":"bool"}],"internalType":"struct DataTypes.Order","name":"order","type":"tuple"}],"name":"checkAndPersistMint","outputs":[],"stateMutability":"nonpayable","type":"function"},{"inputs":[{"components":[{"components":[{"components":[{"internalType":"address","name":"vault","type":"address"},{"internalType":"uint8","name":"decimals","type":"uint8"},{"internalType":"address","name":"underlying","type":"address"},{"internalType":"uint256","name":"price","type":"uint256"},{"components":[{"internalType":"uint256","name":"initialPrice","type":"uint256"},{"internalType":"uint256","name":"initialWeight","type":"uint256"},{"internalType":"uint256","name":"shortFlowMemory","type":"uint256"},{"internalType":"uint256","name":"shortFlowThreshold","type":"uint256"}],"internalType":"struct DataTypes.PersistedVaultMetadata","name":"persistedMetadata","type":"tuple"},{"internalType":"uint256","name":"reserveBalance","type":"uint256"},{"internalType":"uint256","name":"currentWeight","type":"uint256"},{"internalType":"uint256","name":"idealWeight","type":"uint256"},{"components":[{"internalType":"address","name":"tokenAddress","type":"address"},{"internalType":"bool","name":"isStable","type":"bool"},{"internalType":"uint256","name":"price","type":"uint256"}],"internalType":"struct DataTypes.PricedToken[]","name":"pricedTokens","type":"tuple[]"}],"internalType":"struct DataTypes.VaultInfo","name":"vaultInfo","type":"tuple"},{"internalType":"uint256","name":"amount","type":"uint256"}],"internalType":"struct DataTypes.VaultWithAmount[]","name":"vaultsWithAmount","type":"tuple[]"},{"internalType":"bool","name":"mint","type":"bool"}],"internalType":"struct DataTypes.Order","name":"order","type":"tuple"}],"name":"checkAndPersistRedeem","outputs":[],"stateMutability":"nonpayable","type":"function"},{"inputs":[],"name":"getWhitelist","outputs":[{"internalType":"address[]","name":"","type":"address[]"}],"stateMutability":"view","type":"function"},{"inputs":[],"name":"governor","outputs":[{"internalType":"address","name":"","type":"address"}],"stateMutability":"view","type":"function"},{"inputs":[],"name":"gyroConfig","outputs":[{"internalType":"contract IGyroConfig","name":"","type":"address"}],"stateMutability":"view","type":"function"},{"inputs":[{"components":[{"components":[{"components":[{"internalType":"address","name":"vault","type":"address"},{"internalType":"uint8","name":"decimals","type":"uint8"},{"internalType":"address","name":"underlying","type":"address"},{"internalType":"uint256","name":"price","type":"uint256"},{"components":[{"internalType":"uint256","name":"initialPrice","type":"uint256"},{"internalType":"uint256","name":"initialWeight","type":"uint256"},{"internalType":"uint256","name":"shortFlowMemory","type":"uint256"},{"internalType":"uint256","name":"shortFlowThreshold","type":"uint256"}],"internalType":"struct DataTypes.PersistedVaultMetadata","name":"persistedMetadata","type":"tuple"},{"internalType":"uint256","name":"reserveBalance","type":"uint256"},{"internalType":"uint256","name":"currentWeight","type":"uint256"},{"internalType":"uint256","name":"idealWeight","type":"uint256"},{"components":[{"internalType":"address","name":"tokenAddress","type":"address"},{"internalType":"bool","name":"isStable","type":"bool"},{"internalType":"uint256","name":"price","type":"uint256"}],"internalType":"struct DataTypes.PricedToken[]","name":"pricedTokens","type":"tuple[]"}],"internalType":"struct DataTypes.VaultInfo","name":"vaultInfo","type":"tuple"},{"internalType":"uint256","name":"amount","type":"uint256"}],"internalType":"struct DataTypes.VaultWithAmount[]","name":"vaultsWithAmount","type":"tuple[]"},{"internalType":"bool","name":"mint","type":"bool"}],"internalType":"struct DataTypes.Order","name":"order","type":"tuple"}],"name":"isMintSafe","outputs":[{"internalType":"string","name":"err","type":"string"}],"stateMutability":"view","type":"function"},{"inputs":[{"components":[{"components":[{"components":[{"internalType":"address","name":"vault","type":"address"},{"internalType":"uint8","name":"decimals","type":"uint8"},{"internalType":"address","name":"underlying","type":"address"},{"internalType":"uint256","name":"price","type":"uint256"},{"components":[{"internalType":"uint256","name":"initialPrice","type":"uint256"},{"internalType":"uint256","name":"initialWeight","type":"uint256"},{"internalType":"uint256","name":"shortFlowMemory","type":"uint256"},{"internalType":"uint256","name":"shortFlowThreshold","type":"uint256"}],"internalType":"struct DataTypes.PersistedVaultMetadata","name":"persistedMetadata","type":"tuple"},{"internalType":"uint256","name":"reserveBalance","type":"uint256"},{"internalType":"uint256","name":"currentWeight","type":"uint256"},{"internalType":"uint256","name":"idealWeight","type":"uint256"},{"components":[{"internalType":"address","name":"tokenAddress","type":"address"},{"internalType":"bool","name":"isStable","type":"bool"},{"internalType":"uint256","name":"price","type":"uint256"}],"internalType":"struct DataTypes.PricedToken[]","name":"pricedTokens","type":"tuple[]"}],"internalType":"struct DataTypes.VaultInfo","name":"vaultInfo","type":"tuple"},{"internalType":"uint256","name":"amount","type":"uint256"}],"internalType":"struct DataTypes.VaultWithAmount[]","name":"vaultsWithAmount","type":"tuple[]"},{"internalType":"bool","name":"mint","type":"bool"}],"internalType":"struct DataTypes.Order","name":"order","type":"tuple"}],"name":"isRedeemSafe","outputs":[{"internalType":"string","name":"err","type":"string"}],"stateMutability":"view","type":"function"},{"inputs":[{"internalType":"bool","name":"depositsOnly","type":"bool"}],"name":"pauseProtocol","outputs":[],"stateMutability":"nonpayable","type":"function"},{"inputs":[],"name":"pendingGovernor","outputs":[{"internalType":"address","name":"","type":"address"}],"stateMutability":"view","type":"function"},{"inputs":[{"internalType":"address","name":"","type":"address"}],"name":"persistedFlowData","outputs":[{"components":[{"internalType":"uint128","name":"shortFlow","type":"uint128"},{"internalType":"uint64","name":"lastSafetyBlock","type":"uint64"},{"internalType":"uint64","name":"lastSeenBlock","type":"uint64"}],"internalType":"struct DataTypes.DirectionalFlowData","name":"inFlow","type":"tuple"},{"components":[{"internalType":"uint128","name":"shortFlow","type":"uint128"},{"internalType":"uint64","name":"lastSafetyBlock","type":"uint64"},{"internalType":"uint64","name":"lastSeenBlock","type":"uint64"}],"internalType":"struct DataTypes.DirectionalFlowData","name":"outFlow","type":"tuple"}],"stateMutability":"view","type":"function"},{"inputs":[{"internalType":"address","name":"_addressToRemove","type":"address"}],"name":"removeAddressFromWhitelist","outputs":[],"stateMutability":"nonpayable","type":"function"},{"inputs":[],"name":"safetyBlocksAutomatic","outputs":[{"internalType":"uint256","name":"","type":"uint256"}],"stateMutability":"view","type":"function"},{"inputs":[],"name":"safetyBlocksGuardian","outputs":[{"internalType":"uint256","name":"","type":"uint256"}],"stateMutability":"view","type":"function"}],"bytecode":"60e06040523480156200001157600080fd5b5060405162001d7238038062001d728339810160408190526200003491620000c7565b600080546001600160a01b0319166001600160a01b038616908117825560408051928352602083019190915285917fde4b3f61490b74c0ed6237523974fe299126bbbf8a8a7482fd220104c59b0c84910160405180910390a15060a09290925260c0526001600160a01b03166080525062000112565b80516001600160a01b0381168114620000c257600080fd5b919050565b60008060008060808587031215620000de57600080fd5b620000e985620000aa565b935060208501519250604085015191506200010760608601620000aa565b905092959194509250565b60805160a05160c051611c066200016c6000396000818161027d015281816109800152610ff60152600081816102b70152610efa0152600081816102230152818161056b015281816106e201526108d20152611c066000f3fe608060405234801561001057600080fd5b50600436106101165760003560e01c8063a0763820116100a2578063e2cc867911610071578063e2cc867914610301578063e3056a3414610314578063e4c0aaf414610327578063ef2933ec1461033a578063fc283b861461034d57600080fd5b8063a07638201461029f578063c9e959bf146102b2578063d01f63f5146102d9578063d625436c146102ee57600080fd5b8063286dd3f5116100e9578063286dd3f51461020b57806344bbdb551461021e5780636382b296146102455780637b9417c814610265578063a036c2841461027857600080fd5b80630bdf8d221461011b5780630c340a241461013d578063238efcbc1461016857806325aeb09214610172575b600080fd5b61012a670b1a2bc2ec50000081565b6040519081526020015b60405180910390f35b600054610150906001600160a01b031681565b6040516001600160a01b039091168152602001610134565b610170610360565b005b6101fd610180366004611485565b60046020908152600091825260409182902082516060808201855282546001600160801b0380821684526001600160401b03600160801b808404821686890152600160c01b938490048216868a01528851948501895260019096015491821684529481048516958301959095529093049091169282019290925282565b6040516101349291906114a2565b610170610219366004611485565b610419565b6101507f000000000000000000000000000000000000000000000000000000000000000081565b610258610253366004611716565b6104a2565b6040516101349190611901565b610170610273366004611485565b6104dd565b61012a7f000000000000000000000000000000000000000000000000000000000000000081565b6101706102ad366004611716565b610566565b61012a7f000000000000000000000000000000000000000000000000000000000000000081565b6102e16106cc565b6040516101349190611956565b6101706102fc366004611716565b6106dd565b61025861030f366004611716565b61079b565b600154610150906001600160a01b031681565b610170610335366004611485565b6107b0565b6101706103483660046119a3565b610885565b61017061035b3660046119be565b610a1c565b600154604080518082019091526002815261033360f41b6020820152906001600160a01b031633146103ae5760405162461bcd60e51b81526004016103a59190611901565b60405180910390fd5b5060008054600180546001600160a01b03198084166001600160a01b03808416919091179095551690556040805192909116808352336020840152917fde4b3f61490b74c0ed6237523974fe299126bbbf8a8a7482fd220104c59b0c8491015b60405180910390a150565b600054604080518082019091526002815261033360f41b6020820152906001600160a01b0316331461045e5760405162461bcd60e51b81526004016103a59190611901565b5061046a600282610a6c565b506040516001600160a01b038216907fcdd2e9b91a56913d370075169cefa1602ba36be5301664f752192bb1709df75790600090a250565b606081602001516104bd576104b682610a8a565b5092915050565b50604080518082019091526002815261333160f01b60208201525b919050565b600054604080518082019091526002815261033360f41b6020820152906001600160a01b031633146105225760405162461bcd60e51b81526004016103a59190611901565b5061052e600282610d40565b506040516001600160a01b038216907fa850ae9193f515cbae8d35e8925bd2be26627fc91bce650b8652ed254e9cab0390600090a250565b6105987f00000000000000000000000000000000000000000000000000000000000000006001600160a01b0316610d55565b6001600160a01b0316336001600160a01b03161460405180604001604052806002815260200161033360f41b815250906105e55760405162461bcd60e51b81526004016103a59190611901565b5080602001511560405180604001604052806002815260200161333160f01b815250906106255760405162461bcd60e51b81526004016103a59190611901565b5060008061063283610a8a565b81519193509150156106bd57604080518082019091526002815261363160f01b6020820152610662908390610de1565b156106a3577f135e6dd29efa875112189add0769ed7f19cd6db71eefe10bf040c499f5aab344826040516106969190611901565b60405180910390a16106bd565b8160405162461bcd60e51b81526004016103a59190611901565b6106c78382610e0b565b505050565b60606106d86002610f5d565b905090565b61070f7f00000000000000000000000000000000000000000000000000000000000000006001600160a01b0316610d55565b6001600160a01b0316336001600160a01b03161460405180604001604052806002815260200161033360f41b8152509061075c5760405162461bcd60e51b81526004016103a59190611901565b50806020015160405180604001604052806002815260200161333160f01b815250906106255760405162461bcd60e51b81526004016103a59190611901565b60608160200151156104bd576104b682610a8a565b600054604080518082019091526002815261033360f41b6020820152906001600160a01b031633146107f55760405162461bcd60e51b81526004016103a59190611901565b50604080518082019091526002815261333160f01b60208201526001600160a01b0382166108365760405162461bcd60e51b81526004016103a59190611901565b50600180546001600160a01b0319166001600160a01b0383169081179091556040519081527f67235ba2e63c748a35b95c4f92a3bbc2a1389938170a5ce6c9add5d0b03a314a9060200161040e565b33610891600282610f71565b60405180604001604052806002815260200161033360f41b815250906108ca5760405162461bcd60e51b81526004016103a59190611901565b5060006108ff7f00000000000000000000000000000000000000000000000000000000000000006001600160a01b0316610f93565b90506000816001600160a01b03166350cc258e6040518163ffffffff1660e01b8152600401600060405180830381865afa158015610941573d6000803e3d6000fd5b505050506040513d6000823e601f3d908101601f191682016040526109699190810190611a1b565b905060008461097957600261097c565b60005b90507f000000000000000000000000000000000000000000000000000000000000000060005b8351811015610a1357600060405180604001604052808684815181106109ca576109ca611ab4565b60200260200101516001600160a01b031681526020018560028111156109f2576109f2611aca565b90529050610a008184610fdb565b5080610a0b81611af6565b9150506109a2565b50505050505050565b33610a28600282610f71565b60405180604001604052806002815260200161033360f41b81525090610a615760405162461bcd60e51b81526004016103a59190611901565b506106c78383610fdb565b6000610a81836001600160a01b0384166111ca565b90505b92915050565b6060808260000151516001600160401b03811115610aaa57610aaa611511565b604051908082528060200260200182016040528015610aef57816020015b6040805180820190915260008082526020820152815260200190600190039081610ac85790505b50905060005b835151811015610d3a57600084600001518281518110610b1757610b17611ab4565b6020026020010151602001519050600085600001518381518110610b3d57610b3d611ab4565b6020908102919091018101515180516001600160a01b03166000908152600483526040808220815160608101835283815294850183905290840191909152909250908760200151610b915781600101610b93565b815b6040805160608101825291546001600160801b03811683526001600160401b03600160801b820481166020850152600160c01b909104169082015290508315801590610bec575080602001516001600160401b03164311155b15610c175760405180604001604052806002815260200161363560f01b815250965050505050610d3a565b600083608001516060015190506000610c5483600001516001600160801b03164385604001516001600160401b03168860800151604001516112bd565b8a51805189908110610c6857610c68611ab4565b602002602001015160200151610c7e9190611b11565b905081811115610cb05760405180604001604052806002815260200161036360f41b8152509850505050505050610d3a565b6000610cc4670b1a2bc2ec50000084611346565b821190508015610cec5760405180604001604052806002815260200161363160f01b81525099505b6040518060400160405280838152602001821515815250898981518110610d1557610d15611ab4565b6020026020010181905250505050505050508080610d3290611af6565b915050610af5565b50915091565b6000610a81836001600160a01b038416611367565b6040516321f8a72160e01b81527f524f4f545f5341464554595f434845434b5f414444524553530000000000000060048201526000906001600160a01b038316906321f8a721906024015b602060405180830381865afa158015610dbd573d6000803e3d6000fd5b505050506040513d601f19601f82011682018060405250810190610a849190611b29565b60008151835114610df457506000610a84565b508051602091820120825192909101919091201490565b60005b8251518110156106c757600083600001518281518110610e3057610e30611ab4565b6020908102919091018101515180516001600160a01b031660009081526004835260408120928701519193509015610e69575080610e6f565b50600181015b80546001600160c01b0316600160c01b436001600160401b0316021781558451859085908110610ea157610ea1611ab4565b60209081029190910101515181546fffffffffffffffffffffffffffffffff19166001600160801b039091161781558451859085908110610ee457610ee4611ab4565b60200260200101516020015115610f4757610f1f7f000000000000000000000000000000000000000000000000000000000000000043611b11565b81546001600160401b0391909116600160801b0267ffffffffffffffff60801b199091161781555b5050508080610f5590611af6565b915050610e0e565b60606000610f6a836113b6565b9392505050565b6001600160a01b03811660009081526001830160205260408120541515610a81565b6040516321f8a72160e01b8152755641554c545f52454749535452595f4144445245535360501b60048201526000906001600160a01b038316906321f8a72190602401610da0565b6040805180820190915260028152611b1960f11b60208201527f00000000000000000000000000000000000000000000000000000000000000008211156110355760405162461bcd60e51b81526004016103a59190611901565b5060006110428243611b11565b905060008360200151600281111561105c5761105c611aca565b148061107d575060028360200151600281111561107b5761107b611aca565b145b156111055782516001600160a01b03908116600090815260046020908152604091829020805467ffffffffffffffff60801b1916600160801b6001600160401b03871602179055855182519316835282018490526001908201527fd3a9973922556aa8a1d3200840e7b0adc7851cb170484c2c7001999ae794abc49060600160405180910390a15b60018360200151600281111561111d5761111d611aca565b148061113e575060028360200151600281111561113c5761113c611aca565b145b156106c75782516001600160a01b039081166000908152600460209081526040808320600101805467ffffffffffffffff60801b1916600160801b6001600160401b0388160217905586518151941684529083018590528201527fd3a9973922556aa8a1d3200840e7b0adc7851cb170484c2c7001999ae794abc49060600160405180910390a1505050565b600081815260018301602052604081205480156112b35760006111ee600183611b46565b855490915060009061120290600190611b46565b905081811461126757600086600001828154811061122257611222611ab4565b906000526020600020015490508087600001848154811061124557611245611ab4565b6000918252602080832090910192909255918252600188019052604090208390555b855486908061127857611278611b5d565b600190038181906000526020600020016000905590558560010160008681526020019081526020016000206000905560019350505050610a84565b6000915050610a84565b6000838314806112cb575084155b156112d757508361133e565b8383101561130e5760006112eb8486611b46565b905060006112f98483611412565b90506113058782611346565b9250505061133e565b6040805180820182526002815261333160f01b6020820152905162461bcd60e51b81526103a59190600401611901565b949350505050565b6000806113538385611b73565b905061133e670de0b6b3a764000082611ba8565b60008181526001830160205260408120546113ae57508154600181810184556000848152602080822090930184905584548482528286019093526040902091909155610a84565b506000610a84565b60608160000180548060200260200160405190810160405280929190818152602001828054801561140657602002820191906000526020600020905b8154815260200190600101908083116113f2575b50505050509050919050565b6000670de0b6b3a76400005b8215610a815761142f600284611bbc565b60011415611444576114418185611346565b90505b61144f600284611ba8565b925061145b8485611346565b935061141e565b6001600160a01b038116811461147757600080fd5b50565b80356104d881611462565b60006020828403121561149757600080fd5b8135610a8181611462565b60c081016114dc828580516001600160801b031682526020808201516001600160401b039081169184019190915260409182015116910152565b82516001600160801b0316606083015260208301516001600160401b03908116608084015260408401511660a0830152610f6a565b634e487b7160e01b600052604160045260246000fd5b604051606081016001600160401b038111828210171561154957611549611511565b60405290565b604080519081016001600160401b038111828210171561154957611549611511565b60405161012081016001600160401b038111828210171561154957611549611511565b604051601f8201601f191681016001600160401b03811182821017156115bc576115bc611511565b604052919050565b60006001600160401b038211156115dd576115dd611511565b5060051b60200190565b803560ff811681146104d857600080fd5b60006080828403121561160a57600080fd5b604051608081018181106001600160401b038211171561162c5761162c611511565b8060405250809150823581526020830135602082015260408301356040820152606083013560608201525092915050565b803580151581146104d857600080fd5b600082601f83011261167e57600080fd5b8135602061169361168e836115c4565b611594565b828152606092830285018201928282019190878511156116b257600080fd5b8387015b858110156117095781818a0312156116ce5760008081fd5b6116d6611527565b81356116e181611462565b81526116ee82870161165d565b818701526040828101359082015284529284019281016116b6565b5090979650505050505050565b60006020828403121561172857600080fd5b6001600160401b03808335111561173e57600080fd5b6040833584018503121561175157600080fd5b61175961154f565b818435850135111561176a57600080fd5b83358401803501601f8101861361178057600080fd5b61178d61168e82356115c4565b81358082526020808301929160051b8401018810156117ab57600080fd5b602083015b6020843560051b8501018110156118df5785813511156117cf57600080fd5b80358401601f196040828c03820112156117e857600080fd5b6117f061154f565b886020840135111561180157600080fd5b6020830135830161018083828f0301121561181b57600080fd5b611823611571565b92506118316020820161147a565b835261183f604082016115e7565b60208401526118506060820161147a565b60408401526080810135606084015261186c8d60a083016115f8565b608084015261012081013560a084015261014081013560c084015261016081013560e08401528961018082013511156118a457600080fd5b6118b88d602061018084013584010161166d565b610100840152509081526040919091013560208083019190915290845292830192016117b0565b508352506118f490508435850160200161165d565b6020820152949350505050565b600060208083528351808285015260005b8181101561192e57858101830151858201604001528201611912565b81811115611940576000604083870101525b50601f01601f1916929092016040019392505050565b6020808252825182820181905260009190848201906040850190845b818110156119975783516001600160a01b031683529284019291840191600101611972565b50909695505050505050565b6000602082840312156119b557600080fd5b610a818261165d565b60008082840360608112156119d257600080fd5b60408112156119e057600080fd5b506119e961154f565b83356119f481611462565b8152602084013560038110611a0857600080fd5b6020820152946040939093013593505050565b60006020808385031215611a2e57600080fd5b82516001600160401b03811115611a4457600080fd5b8301601f81018513611a5557600080fd5b8051611a6361168e826115c4565b81815260059190911b82018301908381019087831115611a8257600080fd5b928401925b82841015611aa9578351611a9a81611462565b82529284019290840190611a87565b979650505050505050565b634e487b7160e01b600052603260045260246000fd5b634e487b7160e01b600052602160045260246000fd5b634e487b7160e01b600052601160045260246000fd5b6000600019821415611b0a57611b0a611ae0565b5060010190565b60008219821115611b2457611b24611ae0565b500190565b600060208284031215611b3b57600080fd5b8151610a8181611462565b600082821015611b5857611b58611ae0565b500390565b634e487b7160e01b600052603160045260246000fd5b6000816000190483118215151615611b8d57611b8d611ae0565b500290565b634e487b7160e01b600052601260045260246000fd5b600082611bb757611bb7611b92565b500490565b600082611bcb57611bcb611b92565b50069056fea26469706673582212204ce2683ba14b9220317d40d844c6ffd99e0b873e994d6852a77dd82b2e1ef8a964736f6c634300080a0033","bytecodeSha1":"ec2d23ac0f900e95a7ae67f45e4257c721ce560a","compiler":{"evm_version":"london","optimizer":{"enabled":true,"runs":200},"version":"0.8.10+commit.fc410830"},"contractName":"VaultSafetyMode","language":"Solidity","natspec":{"kind":"dev","methods":{"acceptGovernance()":{"notice":"Called by the pending governor to approve the change"},"changeGovernor(address)":{"notice":"Changes the governor can only be called by the current governor"},"checkAndPersistMint((((address,uint8,address,uint256,(uint256,uint256,uint256,uint256),uint256,uint256,uint256,(address,bool,uint256)[]),uint256)[],bool))":{"notice":"Checks whether a mint operation is safe and reverts otherwise This is only called when an actual mint is performed The implementation should store any relevant information for the mint"},"checkAndPersistRedeem((((address,uint8,address,uint256,(uint256,uint256,uint256,uint256),uint256,uint256,uint256,(address,bool,uint256)[]),uint256)[],bool))":{"notice":"Checks whether a redeem operation is safe This is only called when an actual redeem is performed The implementation should store any relevant information for the redeem"},"governor()":{"notice":"Returns the current governor"},"isMintSafe((((address,uint8,address,uint256,(uint256,uint256,uint256,uint256),uint256,uint256,uint256,(address,bool,uint256)[]),uint256)[],bool))":{"notice":"Checks whether a mint operation is safe","returns":{"err":"empty string if it is safe, otherwise the reason why it is not safe"}},"isRedeemSafe((((address,uint8,address,uint256,(uint256,uint256,uint256,uint256),uint256,uint256,uint256,(address,bool,uint256)[]),uint256)[],bool))":{"notice":"Checks whether a redeem operation is safe","returns":{"err":"empty string if it is safe, otherwise the reason why it is not safe"}},"pendingGovernor()":{"notice":"Returns the pending governor"}},"version":1},"opcodes":"PUSH1 0x80 PUSH1 0x40 MSTORE CALLVALUE DUP1 ISZERO PUSH2 0x10 JUMPI PUSH1 0x0 DUP1 REVERT JUMPDEST POP PUSH1 0x4 CALLDATASIZE LT PUSH2 0x116 JUMPI PUSH1 0x0 CALLDATALOAD PUSH1 0xE0 SHR DUP1 PUSH4 0xA0763820 GT PUSH2 0xA2 JUMPI DUP1 PUSH4 0xE2CC8679 GT PUSH2 0x71 JUMPI DUP1 PUSH4 0xE2CC8679 EQ PUSH2 0x301 JUMPI DUP1 PUSH4 0xE3056A34 EQ PUSH2 0x314 JUMPI DUP1 PUSH4 0xE4C0AAF4 EQ PUSH2 0x327 JUMPI DUP1 PUSH4 0xEF2933EC EQ PUSH2 0x33A JUMPI DUP1 PUSH4 0xFC283B86 EQ PUSH2 0x34D JUMPI PUSH1 0x0 DUP1 REVERT JUMPDEST DUP1 PUSH4 0xA0763820 EQ PUSH2 0x29F JUMPI DUP1 PUSH4 0xC9E959BF EQ PUSH2 0x2B2 JUMPI DUP1 PUSH4 0xD01F63F5 EQ PUSH2 0x2D9 JUMPI DUP1 PUSH4 0xD625436C EQ PUSH2 0x2EE JUMPI PUSH1 0x0 DUP1 REVERT JUMPDEST DUP1 PUSH4 0x286DD3F5 GT PUSH2 0xE9 JUMPI DUP1 PUSH4 0x286DD3F5 EQ PUSH2 0x20B JUMPI DUP1 PUSH4 0x44BBDB55 EQ PUSH2 0x21E JUMPI DUP1 PUSH4 0x6382B296 EQ PUSH2 0x245 JUMPI DUP1 PUSH4 0x7B9417C8 EQ PUSH2 0x265 JUMPI DUP1 PUSH4 0xA036C284 EQ PUSH2 0x278 JUMPI PUSH1 0x0 DUP1 REVERT JUMPDEST DUP1 PUSH4 0xBDF8D22 EQ PUSH2 0x11B JUMPI DUP1 PUSH4 0xC340A24 EQ PUSH2 0x13D JUMPI DUP1 PUSH4 0x238EFCBC EQ PUSH2 0x168 JUMPI DUP1 PUSH4 0x25AEB092 EQ PUSH2 0x172 JUMPI JUMPDEST PUSH1 0x0 DUP1 REVERT JUMPDEST PUSH2 0x12A PUSH8 0xB1A2BC2EC500000 DUP2 JUMP JUMPDEST PUSH1 0x40 MLOAD SWAP1 DUP2 MSTORE PUSH1 0x20 ADD JUMPDEST PUSH1 0x40 MLOAD DUP1 SWAP2 SUB SWAP1 RETURN JUMPDEST PUSH1 0x0 SLOAD PUSH2 0x150 SWAP1 PUSH1 0x1 PUSH1 0x1 PUSH1 0xA0 SHL SUB AND DUP2 JUMP JUMPDEST PUSH1 0x40 MLOAD PUSH1 0x1 PUSH1 0x1 PUSH1 0xA0 SHL SUB SWAP1 SWAP2 AND DUP2 MSTORE PUSH1 0x20 ADD PUSH2 0x134 JUMP JUMPDEST PUSH2 0x170 PUSH2 0x360 JUMP JUMPDEST STOP JUMPDEST PUSH2 0x1FD PUSH2 0x180 CALLDATASIZE PUSH1 0x4 PUSH2 0x1485 JUMP JUMPDEST PUSH1 0x4 PUSH1 0x20 SWAP1 DUP2 MSTORE PUSH1 0x0 SWAP2 DUP3 MSTORE PUSH1 0x40 SWAP2 DUP3 SWAP1 KECCAK256 DUP3 MLOAD PUSH1 0x60 DUP1 DUP3 ADD DUP6 MSTORE DUP3 SLOAD PUSH1 0x1 PUSH1 0x1 PUSH1 0x80 SHL SUB DUP1 DUP3 AND DUP5 MSTORE PUSH1 0x1 PUSH1 0x1 PUSH1 0x40 SHL SUB PUSH1 0x1 PUSH1 0x80 SHL DUP1 DUP5 DIV DUP3 AND DUP7 DUP10 ADD MSTORE PUSH1 0x1 PUSH1 0xC0 SHL SWAP4 DUP5 SWAP1 DIV DUP3 AND DUP7 DUP11 ADD MSTORE DUP9 MLOAD SWAP5 DUP6 ADD DUP10 MSTORE PUSH1 0x1 SWAP1 SWAP7 ADD SLOAD SWAP2 DUP3 AND DUP5 MSTORE SWAP5 DUP2 DIV DUP6 AND SWAP6 DUP4 ADD SWAP6 SWAP1 SWAP6 MSTORE SWAP1 SWAP4 DIV SWAP1 SWAP2 AND SWAP3 DUP3 ADD SWAP3 SWAP1 SWAP3 MSTORE DUP3 JUMP JUMPDEST PUSH1 0x40 MLOAD PUSH2 0x134 SWAP3 SWAP2 SWAP1 PUSH2 0x14A2 JUMP JUMPDEST PUSH2 0x170 PUSH2 0x219 CALLDATASIZE PUSH1 0x4 PUSH2 0x1485 JUMP JUMPDEST PUSH2 0x419 JUMP JUMPDEST PUSH2 0x150 PUSH32 0x0 DUP2 JUMP JUMPDEST PUSH2 0x258 PUSH2 0x253 CALLDATASIZE PUSH1 0x4 PUSH2 0x1716 JUMP JUMPDEST PUSH2 0x4A2 JUMP JUMPDEST PUSH1 0x40 MLOAD PUSH2 0x134 SWAP2 SWAP1 PUSH2 0x1901 JUMP JUMPDEST PUSH2 0x170 PUSH2 0x273 CALLDATASIZE PUSH1 0x4 PUSH2 0x1485 JUMP JUMPDEST PUSH2 0x4DD JUMP JUMPDEST PUSH2 0x12A PUSH32 0x0 DUP2 JUMP JUMPDEST PUSH2 0x170 PUSH2 0x2AD CALLDATASIZE PUSH1 0x4 PUSH2 0x1716 JUMP JUMPDEST PUSH2 0x566 JUMP JUMPDEST PUSH2 0x12A PUSH32 0x0 DUP2 JUMP JUMPDEST PUSH2 0x2E1 PUSH2 0x6CC JUMP JUMPDEST PUSH1 0x40 MLOAD PUSH2 0x134 SWAP2 SWAP1 PUSH2 0x1956 JUMP JUMPDEST PUSH2 0x170 PUSH2 0x2FC CALLDATASIZE PUSH1 0x4 PUSH2 0x1716 JUMP JUMPDEST PUSH2 0x6DD JUMP JUMPDEST PUSH2 0x258 PUSH2 0x30F CALLDATASIZE PUSH1 0x4 PUSH2 0x1716 JUMP JUMPDEST PUSH2 0x79B JUMP JUMPDEST PUSH1 0x1 SLOAD PUSH2 0x150 SWAP1 PUSH1 0x1 PUSH1 0x1 PUSH1 0xA0 SHL SUB AND DUP2 JUMP JUMPDEST PUSH2 0x170 PUSH2 0x335 CALLDATASIZE PUSH1 0x4 PUSH2 0x1485 JUMP JUMPDEST PUSH2 0x7B0 JUMP JUMPDEST PUSH2 0x170 PUSH2 0x348 CALLDATASIZE PUSH1 0x4 PUSH2 0x19A3 JUMP JUMPDEST PUSH2 0x885 JUMP JUMPDEST PUSH2 0x170 PUSH2 0x35B CALLDATASIZE PUSH1 0x4 PUSH2 0x19BE JUMP JUMPDEST PUSH2 0xA1C JUMP JUMPDEST PUSH1 0x1 SLOAD PUSH1 0x40 DUP1 MLOAD DUP1 DUP3 ADD SWAP1 SWAP2 MSTORE PUSH1 0x2 DUP2 MSTORE PUSH2 0x333 PUSH1 0xF4 SHL PUSH1 0x20 DUP3 ADD MSTORE SWAP1 PUSH1 0x1 PUSH1 0x1 PUSH1 0xA0 SHL SUB AND CALLER EQ PUSH2 0x3AE JUMPI PUSH1 0x40 MLOAD PUSH3 0x461BCD PUSH1 0xE5 SHL DUP2 MSTORE PUSH1 0x4 ADD PUSH2 0x3A5 SWAP2 SWAP1 PUSH2 0x1901 JUMP JUMPDEST PUSH1 0x40 MLOAD DUP1 SWAP2 SUB SWAP1 REVERT JUMPDEST POP PUSH1 0x0 DUP1 SLOAD PUSH1 0x1 DUP1 SLOAD PUSH1 0x1 PUSH1 0x1 PUSH1 0xA0 SHL SUB NOT DUP1 DUP5 AND PUSH1 0x1 PUSH1 0x1 PUSH1 0xA0 SHL SUB DUP1 DUP5 AND SWAP2 SWAP1 SWAP2 OR SWAP1 SWAP6 SSTORE AND SWAP1 SSTORE PUSH1 0x40 DUP1 MLOAD SWAP3 SWAP1 SWAP2 AND DUP1 DUP4 MSTORE CALLER PUSH1 0x20 DUP5 ADD MSTORE SWAP2 PUSH32 0xDE4B3F61490B74C0ED6237523974FE299126BBBF8A8A7482FD220104C59B0C84 SWAP2 ADD JUMPDEST PUSH1 0x40 MLOAD DUP1 SWAP2 SUB SWAP1 LOG1 POP JUMP JUMPDEST PUSH1 0x0 SLOAD PUSH1 0x40 DUP1 MLOAD DUP1 DUP3 ADD SWAP1 SWAP2 MSTORE PUSH1 0x2 DUP2 MSTORE PUSH2 0x333 PUSH1 0xF4 SHL PUSH1 0x20 DUP3 ADD MSTORE SWAP1 PUSH1 0x1 PUSH1 0x1 PUSH1 0xA0 SHL SUB AND CALLER EQ PUSH2 0x45E JUMPI PUSH1 0x40 MLOAD PUSH3 0x461BCD PUSH1 0xE5 SHL DUP2 MSTORE PUSH1 0x4 ADD PUSH2 0x3A5 SWAP2 SWAP1 PUSH2 0x1901 JUMP JUMPDEST POP PUSH2 0x46A PUSH1 0x2 DUP3 PUSH2 0xA6C JUMP JUMPDEST POP PUSH1 0x40 MLOAD PUSH1 0x1 PUSH1 0x1 PUSH1 0xA0 SHL SUB DUP3 AND SWAP1 PUSH32 0xCDD2E9B91A56913D370075169CEFA1602BA36BE5301664F752192BB1709DF757 SWAP1 PUSH1 0x0 SWAP1 LOG2 POP JUMP JUMPDEST PUSH1 0x60 DUP2 PUSH1 0x20 ADD MLOAD PUSH2 0x4BD JUMPI PUSH2 0x4B6 DUP3 PUSH2 0xA8A JUMP JUMPDEST POP SWAP3 SWAP2 POP POP JUMP JUMPDEST POP PUSH1 0x40 DUP1 MLOAD DUP1 DUP3 ADD SWAP1 SWAP2 MSTORE PUSH1 0x2 DUP2 MSTORE PUSH2 0x3331 PUSH1 0xF0 SHL PUSH1 0x20 DUP3 ADD MSTORE JUMPDEST SWAP2 SWAP1 POP JUMP JUMPDEST PUSH1 0x0 SLOAD PUSH1 0x40 DUP1 MLOAD DUP1 DUP3 ADD SWAP1 SWAP2 MSTORE PUSH1 0x2 DUP2 MSTORE PUSH2 0x333 PUSH1 0xF4 SHL PUSH1 0x20 DUP3 ADD MSTORE SWAP1 PUSH1 0x1 PUSH1 0x1 PUSH1 0xA0 SHL SUB AND CALLER EQ PUSH2 0x522 JUMPI PUSH1 0x40 MLOAD PUSH3 0x461BCD PUSH1 0xE5 SHL DUP2 MSTORE PUSH1 0x4 ADD PUSH2 0x3A5 SWAP2 SWAP1 PUSH2 0x1901 JUMP JUMPDEST POP PUSH2 0x52E PUSH1 0x2 DUP3 PUSH2 0xD40 JUMP JUMPDEST POP PUSH1 0x40 MLOAD PUSH1 0x1 PUSH1 0x1 PUSH1 0xA0 SHL SUB DUP3 AND SWAP1 PUSH32 0xA850AE9193F515CBAE8D35E8925BD2BE26627FC91BCE650B8652ED254E9CAB03 SWAP1 PUSH1 0x0 SWAP1 LOG2 POP JUMP JUMPDEST PUSH2 0x598 PUSH32 0x0 PUSH1 0x1 PUSH1 0x1 PUSH1 0xA0 SHL SUB AND PUSH2 0xD55 JUMP JUMPDEST PUSH1 0x1 PUSH1 0x1 PUSH1 0xA0 SHL SUB AND CALLER PUSH1 0x1 PUSH1 0x1 PUSH1 0xA0 SHL SUB AND EQ PUSH1 0x40 MLOAD DUP1 PUSH1 0x40 ADD PUSH1 0x40 MSTORE DUP1 PUSH1 0x2 DUP2 MSTORE PUSH1 0x20 ADD PUSH2 0x333 PUSH1 0xF4 SHL DUP2 MSTORE POP SWAP1 PUSH2 0x5E5 JUMPI PUSH1 0x40 MLOAD PUSH3 0x461BCD PUSH1 0xE5 SHL DUP2 MSTORE PUSH1 0x4 ADD PUSH2 0x3A5 SWAP2 SWAP1 PUSH2 0x1901 JUMP JUMPDEST POP DUP1 PUSH1 0x20 ADD MLOAD ISZERO PUSH1 0x40 MLOAD DUP1 PUSH1 0x40 ADD PUSH1 0x40 MSTORE DUP1 PUSH1 0x2 DUP2 MSTORE PUSH1 0x20 ADD PUSH2 0x3331 PUSH1 0xF0 SHL DUP2 MSTORE POP SWAP1 PUSH2 0x625 JUMPI PUSH1 0x40 MLOAD PUSH3 0x461BCD PUSH1 0xE5 SHL DUP2 MSTORE PUSH1 0x4 ADD PUSH2 0x3A5 SWAP2 SWAP1 PUSH2 0x1901 JUMP JUMPDEST POP PUSH1 0x0 DUP1 PUSH2 0x632 DUP4 PUSH2 0xA8A JUMP JUMPDEST DUP2 MLOAD SWAP2 SWAP4 POP SWAP2 POP ISZERO PUSH2 0x6BD JUMPI PUSH1 0x40 DUP1 MLOAD DUP1 DUP3 ADD SWAP1 SWAP2 MSTORE PUSH1 0x2 DUP2 MSTORE PUSH2 0x3631 PUSH1 0xF0 SHL PUSH1 0x20 DUP3 ADD MSTORE PUSH2 0x662 SWAP1 DUP4 SWAP1 PUSH2 0xDE1 JUMP JUMPDEST ISZERO PUSH2 0x6A3 JUMPI PUSH32 0x135E6DD29EFA875112189ADD0769ED7F19CD6DB71EEFE10BF040C499F5AAB344 DUP3 PUSH1 0x40 MLOAD PUSH2 0x696 SWAP2 SWAP1 PUSH2 0x1901 JUMP JUMPDEST PUSH1 0x40 MLOAD DUP1 SWAP2 SUB SWAP1 LOG1 PUSH2 0x6BD JUMP JUMPDEST DUP2 PUSH1 0x40 MLOAD PUSH3 0x461BCD PUSH1 0xE5 SHL DUP2 MSTORE PUSH1 0x4 ADD PUSH2 0x3A5 SWAP2 SWAP1 PUSH2 0x1901 JUMP JUMPDEST PUSH2 0x6C7 DUP4 DUP3 PUSH2 0xE0B JUMP JUMPDEST POP POP POP JUMP JUMPDEST PUSH1 0x60 PUSH2 0x6D8 PUSH1 0x2 PUSH2 0xF5D JUMP JUMPDEST SWAP1 POP SWAP1 JUMP JUMPDEST PUSH2 0x70F PUSH32 0x0 PUSH1 0x1 PUSH1 0x1 PUSH1 0xA0 SHL SUB AND PUSH2 0xD55 JUMP JUMPDEST PUSH1 0x1 PUSH1 0x1 PUSH1 0xA0 SHL SUB AND CALLER PUSH1 0x1 PUSH1 0x1 PUSH1 0xA0 SHL SUB AND EQ PUSH1 0x40 MLOAD DUP1 PUSH1 0x40 ADD PUSH1 0x40 MSTORE DUP1 PUSH1 0x2 DUP2 MSTORE PUSH1 0x20 ADD PUSH2 0x333 PUSH1 0xF4 SHL DUP2 MSTORE POP SWAP1 PUSH2 0x75C JUMPI PUSH1 0x40 MLOAD PUSH3 0x461BCD PUSH1 0xE5 SHL DUP2 MSTORE PUSH1 0x4 ADD PUSH2 0x3A5 SWAP2 SWAP1 PUSH2 0x1901 JUMP JUMPDEST POP DUP1 PUSH1 0x20 ADD MLOAD PUSH1 0x40 MLOAD DUP1 PUSH1 0x40 ADD PUSH1 0x40 MSTORE DUP1 PUSH1 0x2 DUP2 MSTORE PUSH1 0x20 ADD PUSH2 0x3331 PUSH1 0xF0 SHL DUP2 MSTORE POP SWAP1 PUSH2 0x625 JUMPI PUSH1 0x40 MLOAD PUSH3 0x461BCD PUSH1 0xE5 SHL DUP2 MSTORE PUSH1 0x4 ADD PUSH2 0x3A5 SWAP2 SWAP1 PUSH2 0x1901 JUMP JUMPDEST PUSH1 0x60 DUP2 PUSH1 0x20 ADD MLOAD ISZERO PUSH2 0x4BD JUMPI PUSH2 0x4B6 DUP3 PUSH2 0xA8A JUMP JUMPDEST PUSH1 0x0 SLOAD PUSH1 0x40 DUP1 MLOAD DUP1 DUP3 ADD SWAP1 SWAP2 MSTORE PUSH1 0x2 DUP2 MSTORE PUSH2 0x333 PUSH1 0xF4 SHL PUSH1 0x20 DUP3 ADD MSTORE SWAP1 PUSH1 0x1 PUSH1 0x1 PUSH1 0xA0 SHL SUB AND CALLER EQ PUSH2 0x7F5 JUMPI PUSH1 0x40 MLOAD PUSH3 0x461BCD PUSH1 0xE5 SHL DUP2 MSTORE PUSH1 0x4 ADD PUSH2 0x3A5 SWAP2 SWAP1 PUSH2 0x1901 JUMP JUMPDEST POP PUSH1 0x40 DUP1 MLOAD DUP1 DUP3 ADD SWAP1 SWAP2 MSTORE PUSH1 0x2 DUP2 MSTORE PUSH2 0x3331 PUSH1 0xF0 SHL PUSH1 0x20 DUP3 ADD MSTORE PUSH1 0x1 PUSH1 0x1 PUSH1 0xA0 SHL SUB DUP3 AND PUSH2 0x836 JUMPI PUSH1 0x40 MLOAD PUSH3 0x461BCD PUSH1 0xE5 SHL DUP2 MSTORE PUSH1 0x4 ADD PUSH2 0x3A5 SWAP2 SWAP1 PUSH2 0x1901 JUMP JUMPDEST POP PUSH1 0x1 DUP1 SLOAD PUSH1 0x1 PUSH1 0x1 PUSH1 0xA0 SHL SUB NOT AND PUSH1 0x1 PUSH1 0x1 PUSH1 0xA0 SHL SUB DUP4 AND SWAP1 DUP2 OR SWAP1 SWAP2 SSTORE PUSH1 0x40 MLOAD SWAP1 DUP2 MSTORE PUSH32 0x67235BA2E63C748A35B95C4F92A3BBC2A1389938170A5CE6C9ADD5D0B03A314A SWAP1 PUSH1 0x20 ADD PUSH2 0x40E JUMP JUMPDEST CALLER PUSH2 0x891 PUSH1 0x2 DUP3 PUSH2 0xF71 JUMP JUMPDEST PUSH1 0x40 MLOAD DUP1 PUSH1 0x40 ADD PUSH1 0x40 MSTORE DUP1 PUSH1 0x2 DUP2 MSTORE PUSH1 0x20 ADD PUSH2 0x333 PUSH1 0xF4 SHL DUP2 MSTORE POP SWAP1 PUSH2 0x8CA JUMPI PUSH1 0x40 MLOAD PUSH3 0x461BCD PUSH1 0xE5 SHL DUP2 MSTORE PUSH1 0x4 ADD PUSH2 0x3A5 SWAP2 SWAP1 PUSH2 0x1901 JUMP JUMPDEST POP PUSH1 0x0 PUSH2 0x8FF PUSH32 0x0 PUSH1 0x1 PUSH1 0x1 PUSH1 0xA0 SHL SUB AND PUSH2 0xF93 JUMP JUMPDEST SWAP1 POP PUSH1 0x0 DUP2 PUSH1 0x1 PUSH1 0x1 PUSH1 0xA0 SHL SUB AND PUSH4 0x50CC258E PUSH1 0x40 MLOAD DUP2 PUSH4 0xFFFFFFFF AND PUSH1 0xE0 SHL DUP2 MSTORE PUSH1 0x4 ADD PUSH1 0x0 PUSH1 0x40 MLOAD DUP1 DUP4 SUB DUP2 DUP7 GAS STATICCALL ISZERO DUP1 ISZERO PUSH2 0x941 JUMPI RETURNDATASIZE PUSH1 0x0 DUP1 RETURNDATACOPY RETURNDATASIZE PUSH1 0x0 REVERT JUMPDEST POP POP POP POP PUSH1 0x40 MLOAD RETURNDATASIZE PUSH1 0x0 DUP3 RETURNDATACOPY PUSH1 0x1F RETURNDATASIZE SWAP1 DUP2 ADD PUSH1 0x1F NOT AND DUP3 ADD PUSH1 0x40 MSTORE PUSH2 0x969 SWAP2 SWAP1 DUP2 ADD SWAP1 PUSH2 0x1A1B JUMP JUMPDEST SWAP1 POP PUSH1 0x0 DUP5 PUSH2 0x979 JUMPI PUSH1 0x2 PUSH2 0x97C JUMP JUMPDEST PUSH1 0x0 JUMPDEST SWAP1 POP PUSH32 0x0 PUSH1 0x0 JUMPDEST DUP4 MLOAD DUP2 LT ISZERO PUSH2 0xA13 JUMPI PUSH1 0x0 PUSH1 0x40 MLOAD DUP1 PUSH1 0x40 ADD PUSH1 0x40 MSTORE DUP1 DUP7 DUP5 DUP2 MLOAD DUP2 LT PUSH2 0x9CA JUMPI PUSH2 0x9CA PUSH2 0x1AB4 JUMP JUMPDEST PUSH1 0x20 MUL PUSH1 0x20 ADD ADD MLOAD PUSH1 0x1 PUSH1 0x1 PUSH1 0xA0 SHL SUB AND DUP2 MSTORE PUSH1 0x20 ADD DUP6 PUSH1 0x2 DUP2 GT ISZERO PUSH2 0x9F2 JUMPI PUSH2 0x9F2 PUSH2 0x1ACA JUMP JUMPDEST SWAP1 MSTORE SWAP1 POP PUSH2 0xA00 DUP2 DUP5 PUSH2 0xFDB JUMP JUMPDEST POP DUP1 PUSH2 0xA0B DUP2 PUSH2 0x1AF6 JUMP JUMPDEST SWAP2 POP POP PUSH2 0x9A2 JUMP JUMPDEST POP POP POP POP POP POP POP JUMP JUMPDEST CALLER PUSH2 0xA28 PUSH1 0x2 DUP3 PUSH2 0xF71 JUMP JUMPDEST PUSH1 0x40 MLOAD DUP1 PUSH1 0x40 ADD PUSH1 0x40 MSTORE DUP1 PUSH1 0x2 DUP2 MSTORE PUSH1 0x20 ADD PUSH2 0x333 PUSH1 0xF4 SHL DUP2 MSTORE POP SWAP1 PUSH2 0xA61 JUMPI PUSH1 0x40 MLOAD PUSH3 0x461BCD PUSH1 0xE5 SHL DUP2 MSTORE PUSH1 0x4 ADD PUSH2 0x3A5 SWAP2 SWAP1 PUSH2 0x1901 JUMP JUMPDEST POP PUSH2 0x6C7 DUP4 DUP4 PUSH2 0xFDB JUMP JUMPDEST PUSH1 0x0 PUSH2 0xA81 DUP4 PUSH1 0x1 PUSH1 0x1 PUSH1 0xA0 SHL SUB DUP5 AND PUSH2 0x11CA JUMP JUMPDEST SWAP1 POP JUMPDEST SWAP3 SWAP2 POP POP JUMP JUMPDEST PUSH1 0x60 DUP1 DUP3 PUSH1 0x0 ADD MLOAD MLOAD PUSH1 0x1 PUSH1 0x1 PUSH1 0x40 SHL SUB DUP2 GT ISZERO PUSH2 0xAAA JUMPI PUSH2 0xAAA PUSH2 0x1511 JUMP JUMPDEST PUSH1 0x40 MLOAD SWAP1 DUP1 DUP3 MSTORE DUP1 PUSH1 0x20 MUL PUSH1 0x20 ADD DUP3 ADD PUSH1 0x40 MSTORE DUP1 ISZERO PUSH2 0xAEF JUMPI DUP2 PUSH1 0x20 ADD JUMPDEST PUSH1 0x40 DUP1 MLOAD DUP1 DUP3 ADD SWAP1 SWAP2 MSTORE PUSH1 0x0 DUP1 DUP3 MSTORE PUSH1 0x20 DUP3 ADD MSTORE DUP2 MSTORE PUSH1 0x20 ADD SWAP1 PUSH1 0x1 SWAP1 SUB SWAP1 DUP2 PUSH2 0xAC8 JUMPI SWAP1 POP JUMPDEST POP SWAP1 POP PUSH1 0x0 JUMPDEST DUP4 MLOAD MLOAD DUP2 LT ISZERO PUSH2 0xD3A JUMPI PUSH1 0x0 DUP5 PUSH1 0x0 ADD MLOAD DUP3 DUP2 MLOAD DUP2 LT PUSH2 0xB17 JUMPI PUSH2 0xB17 PUSH2 0x1AB4 JUMP JUMPDEST PUSH1 0x20 MUL PUSH1 0x20 ADD ADD MLOAD PUSH1 0x20 ADD MLOAD SWAP1 POP PUSH1 0x0 DUP6 PUSH1 0x0 ADD MLOAD DUP4 DUP2 MLOAD DUP2 LT PUSH2 0xB3D JUMPI PUSH2 0xB3D PUSH2 0x1AB4 JUMP JUMPDEST PUSH1 0x20 SWAP1 DUP2 MUL SWAP2 SWAP1 SWAP2 ADD DUP2 ADD MLOAD MLOAD DUP1 MLOAD PUSH1 0x1 PUSH1 0x1 PUSH1 0xA0 SHL SUB AND PUSH1 0x0 SWAP1 DUP2 MSTORE PUSH1 0x4 DUP4 MSTORE PUSH1 0x40 DUP1 DUP3 KECCAK256 DUP2 MLOAD PUSH1 0x60 DUP2 ADD DUP4 MSTORE DUP4 DUP2 MSTORE SWAP5 DUP6 ADD DUP4 SWAP1 MSTORE SWAP1 DUP5 ADD SWAP2 SWAP1 SWAP2 MSTORE SWAP1 SWAP3 POP SWAP1 DUP8 PUSH1 0x20 ADD MLOAD PUSH2 0xB91 JUMPI DUP2 PUSH1 0x1 ADD PUSH2 0xB93 JUMP JUMPDEST DUP2 JUMPDEST PUSH1 0x40 DUP1 MLOAD PUSH1 0x60 DUP2 ADD DUP3 MSTORE SWAP2 SLOAD PUSH1 0x1 PUSH1 0x1 PUSH1 0x80 SHL SUB DUP2 AND DUP4 MSTORE PUSH1 0x1 PUSH1 0x1 PUSH1 0x40 SHL SUB PUSH1 0x1 PUSH1 0x80 SHL DUP3 DIV DUP2 AND PUSH1 0x20 DUP6 ADD MSTORE PUSH1 0x1 PUSH1 0xC0 SHL SWAP1 SWAP2 DIV AND SWAP1 DUP3 ADD MSTORE SWAP1 POP DUP4 ISZERO DUP1 ISZERO SWAP1 PUSH2 0xBEC JUMPI POP DUP1 PUSH1 0x20 ADD MLOAD PUSH1 0x1 PUSH1 0x1 PUSH1 0x40 SHL SUB AND NUMBER GT ISZERO JUMPDEST ISZERO PUSH2 0xC17 JUMPI PUSH1 0x40 MLOAD DUP1 PUSH1 0x40 ADD PUSH1 0x40 MSTORE DUP1 PUSH1 0x2 DUP2 MSTORE PUSH1 0x20 ADD PUSH2 0x3635 PUSH1 0xF0 SHL DUP2 MSTORE POP SWAP7 POP POP POP POP POP PUSH2 0xD3A JUMP JUMPDEST PUSH1 0x0 DUP4 PUSH1 0x80 ADD MLOAD PUSH1 0x60 ADD MLOAD SWAP1 POP PUSH1 0x0 PUSH2 0xC54 DUP4 PUSH1 0x0 ADD MLOAD PUSH1 0x1 PUSH1 0x1 PUSH1 0x80 SHL SUB AND NUMBER DUP6 PUSH1 0x40 ADD MLOAD PUSH1 0x1 PUSH1 0x1 PUSH1 0x40 SHL SUB AND DUP9 PUSH1 0x80 ADD MLOAD PUSH1 0x40 ADD MLOAD PUSH2 0x12BD JUMP JUMPDEST DUP11 MLOAD DUP1 MLOAD DUP10 SWAP1 DUP2 LT PUSH2 0xC68 JUMPI PUSH2 0xC68 PUSH2 0x1AB4 JUMP JUMPDEST PUSH1 0x20 MUL PUSH1 0x20 ADD ADD MLOAD PUSH1 0x20 ADD MLOAD PUSH2 0xC7E SWAP2 SWAP1 PUSH2 0x1B11 JUMP JUMPDEST SWAP1 POP DUP2 DUP2 GT ISZERO PUSH2 0xCB0 JUMPI PUSH1 0x40 MLOAD DUP1 PUSH1 0x40 ADD PUSH1 0x40 MSTORE DUP1 PUSH1 0x2 DUP2 MSTORE PUSH1 0x20 ADD PUSH2 0x363 PUSH1 0xF4 SHL DUP2 MSTORE POP SWAP9 POP POP POP POP POP POP POP PUSH2 0xD3A JUMP JUMPDEST PUSH1 0x0 PUSH2 0xCC4 PUSH8 0xB1A2BC2EC500000 DUP5 PUSH2 0x1346 JUMP JUMPDEST DUP3 GT SWAP1 POP DUP1 ISZERO PUSH2 0xCEC JUMPI PUSH1 0x40 MLOAD DUP1 PUSH1 0x40 ADD PUSH1 0x40 MSTORE DUP1 PUSH1 0x2 DUP2 MSTORE PUSH1 0x20 ADD PUSH2 0x3631 PUSH1 0xF0 SHL DUP2 MSTORE POP SWAP10 POP JUMPDEST PUSH1 0x40 MLOAD DUP1 PUSH1 0x40 ADD PUSH1 0x40 MSTORE DUP1 DUP4 DUP2 MSTORE PUSH1 0x20 ADD DUP3 ISZERO ISZERO DUP2 MSTORE POP DUP10 DUP10 DUP2 MLOAD DUP2 LT PUSH2 0xD15 JUMPI PUSH2 0xD15 PUSH2 0x1AB4 JUMP JUMPDEST PUSH1 0x20 MUL PUSH1 0x20 ADD ADD DUP2 SWAP1 MSTORE POP POP POP POP POP POP POP POP DUP1 DUP1 PUSH2 0xD32 SWAP1 PUSH2 0x1AF6 JUMP JUMPDEST SWAP2 POP POP PUSH2 0xAF5 JUMP JUMPDEST POP SWAP2 POP SWAP2 JUMP JUMPDEST PUSH1 0x0 PUSH2 0xA81 DUP4 PUSH1 0x1 PUSH1 0x1 PUSH1 0xA0 SHL SUB DUP5 AND PUSH2 0x1367 JUMP JUMPDEST PUSH1 0x40 MLOAD PUSH4 0x21F8A721 PUSH1 0xE0 SHL DUP2 MSTORE PUSH32 0x524F4F545F5341464554595F434845434B5F4144445245535300000000000000 PUSH1 0x4 DUP3 ADD MSTORE PUSH1 0x0 SWAP1 PUSH1 0x1 PUSH1 0x1 PUSH1 0xA0 SHL SUB DUP4 AND SWAP1 PUSH4 0x21F8A721 SWAP1 PUSH1 0x24 ADD JUMPDEST PUSH1 0x20 PUSH1 0x40 MLOAD DUP1 DUP4 SUB DUP2 DUP7 GAS STATICCALL ISZERO DUP1 ISZERO PUSH2 0xDBD JUMPI RETURNDATASIZE PUSH1 0x0 DUP1 RETURNDATACOPY RETURNDATASIZE PUSH1 0x0 REVERT JUMPDEST POP POP POP POP PUSH1 0x40 MLOAD RETURNDATASIZE PUSH1 0x1F NOT PUSH1 0x1F DUP3 ADD AND DUP3 ADD DUP1 PUSH1 0x40 MSTORE POP DUP2 ADD SWAP1 PUSH2 0xA84 SWAP2 SWAP1 PUSH2 0x1B29 JUMP JUMPDEST PUSH1 0x0 DUP2 MLOAD DUP4 MLOAD EQ PUSH2 0xDF4 JUMPI POP PUSH1 0x0 PUSH2 0xA84 JUMP JUMPDEST POP DUP1 MLOAD PUSH1 0x20 SWAP2 DUP3 ADD KECCAK256 DUP3 MLOAD SWAP3 SWAP1 SWAP2 ADD SWAP2 SWAP1 SWAP2 KECCAK256 EQ SWAP1 JUMP JUMPDEST PUSH1 0x0 JUMPDEST DUP3 MLOAD MLOAD DUP2 LT ISZERO PUSH2 0x6C7 JUMPI PUSH1 0x0 DUP4 PUSH1 0x0 ADD MLOAD DUP3 DUP2 MLOAD DUP2 LT PUSH2 0xE30 JUMPI PUSH2 0xE30 PUSH2 0x1AB4 JUMP JUMPDEST PUSH1 0x20 SWAP1 DUP2 MUL SWAP2 SWAP1 SWAP2 ADD DUP2 ADD MLOAD MLOAD DUP1 MLOAD PUSH1 0x1 PUSH1 0x1 PUSH1 0xA0 SHL SUB AND PUSH1 0x0 SWAP1 DUP2 MSTORE PUSH1 0x4 DUP4 MSTORE PUSH1 0x40 DUP2 KECCAK256 SWAP3 DUP8 ADD MLOAD SWAP2 SWAP4 POP SWAP1 ISZERO PUSH2 0xE69 JUMPI POP DUP1 PUSH2 0xE6F JUMP JUMPDEST POP PUSH1 0x1 DUP2 ADD JUMPDEST DUP1 SLOAD PUSH1 0x1 PUSH1 0x1 PUSH1 0xC0 SHL SUB AND PUSH1 0x1 PUSH1 0xC0 SHL NUMBER PUSH1 0x1 PUSH1 0x1 PUSH1 0x40 SHL SUB AND MUL OR DUP2 SSTORE DUP5 MLOAD DUP6 SWAP1 DUP6 SWAP1 DUP2 LT PUSH2 0xEA1 JUMPI PUSH2 0xEA1 PUSH2 0x1AB4 JUMP JUMPDEST PUSH1 0x20 SWAP1 DUP2 MUL SWAP2 SWAP1 SWAP2 ADD ADD MLOAD MLOAD DUP2 SLOAD PUSH16 0xFFFFFFFFFFFFFFFFFFFFFFFFFFFFFFFF NOT AND PUSH1 0x1 PUSH1 0x1 PUSH1 0x80 SHL SUB SWAP1 SWAP2 AND OR DUP2 SSTORE DUP5 MLOAD DUP6 SWAP1 DUP6 SWAP1 DUP2 LT PUSH2 0xEE4 JUMPI PUSH2 0xEE4 PUSH2 0x1AB4 JUMP JUMPDEST PUSH1 0x20 MUL PUSH1 0x20 ADD ADD MLOAD PUSH1 0x20 ADD MLOAD ISZERO PUSH2 0xF47 JUMPI PUSH2 0xF1F PUSH32 0x0 NUMBER PUSH2 0x1B11 JUMP JUMPDEST DUP2 SLOAD PUSH1 0x1 PUSH1 0x1 PUSH1 0x40 SHL SUB SWAP2 SWAP1 SWAP2 AND PUSH1 0x1 PUSH1 0x80 SHL MUL PUSH8 0xFFFFFFFFFFFFFFFF PUSH1 0x80 SHL NOT SWAP1 SWAP2 AND OR DUP2 SSTORE JUMPDEST POP POP POP DUP1 DUP1 PUSH2 0xF55 SWAP1 PUSH2 0x1AF6 JUMP JUMPDEST SWAP2 POP POP PUSH2 0xE0E JUMP JUMPDEST PUSH1 0x60 PUSH1 0x0 PUSH2 0xF6A DUP4 PUSH2 0x13B6 JUMP JUMPDEST SWAP4 SWAP3 POP POP POP JUMP JUMPDEST PUSH1 0x1 PUSH1 0x1 PUSH1 0xA0 SHL SUB DUP2 AND PUSH1 0x0 SWAP1 DUP2 MSTORE PUSH1 0x1 DUP4 ADD PUSH1 0x20 MSTORE PUSH1 0x40 DUP2 KECCAK256 SLOAD ISZERO ISZERO PUSH2 0xA81 JUMP JUMPDEST PUSH1 0x40 MLOAD PUSH4 0x21F8A721 PUSH1 0xE0 SHL DUP2 MSTORE PUSH22 0x5641554C545F52454749535452595F41444452455353 PUSH1 0x50 SHL PUSH1 0x4 DUP3 ADD MSTORE PUSH1 0x0 SWAP1 PUSH1 0x1 PUSH1 0x1 PUSH1 0xA0 SHL SUB DUP4 AND SWAP1 PUSH4 0x21F8A721 SWAP1 PUSH1 0x24 ADD PUSH2 0xDA0 JUMP JUMPDEST PUSH1 0x40 DUP1 MLOAD DUP1 DUP3 ADD SWAP1 SWAP2 MSTORE PUSH1 0x2 DUP2 MSTORE PUSH2 0x1B19 PUSH1 0xF1 SHL PUSH1 0x20 DUP3 ADD MSTORE PUSH32 0x0 DUP3 GT ISZERO PUSH2 0x1035 JUMPI PUSH1 0x40 MLOAD PUSH3 0x461BCD PUSH1 0xE5 SHL DUP2 MSTORE PUSH1 0x4 ADD PUSH2 0x3A5 SWAP2 SWAP1 PUSH2 0x1901 JUMP JUMPDEST POP PUSH1 0x0 PUSH2 0x1042 DUP3 NUMBER PUSH2 0x1B11 JUMP JUMPDEST SWAP1 POP PUSH1 0x0 DUP4 PUSH1 0x20 ADD MLOAD PUSH1 0x2 DUP2 GT ISZERO PUSH2 0x105C JUMPI PUSH2 0x105C PUSH2 0x1ACA JUMP JUMPDEST EQ DUP1 PUSH2 0x107D JUMPI POP PUSH1 0x2 DUP4 PUSH1 0x20 ADD MLOAD PUSH1 0x2 DUP2 GT ISZERO PUSH2 0x107B JUMPI PUSH2 0x107B PUSH2 0x1ACA JUMP JUMPDEST EQ JUMPDEST ISZERO PUSH2 0x1105 JUMPI DUP3 MLOAD PUSH1 0x1 PUSH1 0x1 PUSH1 0xA0 SHL SUB SWAP1 DUP2 AND PUSH1 0x0 SWAP1 DUP2 MSTORE PUSH1 0x4 PUSH1 0x20 SWAP1 DUP2 MSTORE PUSH1 0x40 SWAP2 DUP3 SWAP1 KECCAK256 DUP1 SLOAD PUSH8 0xFFFFFFFFFFFFFFFF PUSH1 0x80 SHL NOT AND PUSH1 0x1 PUSH1 0x80 SHL PUSH1 0x1 PUSH1 0x1 PUSH1 0x40 SHL SUB DUP8 AND MUL OR SWAP1 SSTORE DUP6 MLOAD DUP3 MLOAD SWAP4 AND DUP4 MSTORE DUP3 ADD DUP5 SWAP1 MSTORE PUSH1 0x1 SWAP1 DUP3 ADD MSTORE PUSH32 0xD3A9973922556AA8A1D3200840E7B0ADC7851CB170484C2C7001999AE794ABC4 SWAP1 PUSH1 0x60 ADD PUSH1 0x40 MLOAD DUP1 SWAP2 SUB SWAP1 LOG1 JUMPDEST PUSH1 0x1 DUP4 PUSH1 0x20 ADD MLOAD PUSH1 0x2 DUP2 GT ISZERO PUSH2 0x111D JUMPI PUSH2 0x111D PUSH2 0x1ACA JUMP JUMPDEST EQ DUP1 PUSH2 0x113E JUMPI POP PUSH1 0x2 DUP4 PUSH1 0x20 ADD MLOAD PUSH1 0x2 DUP2 GT ISZERO PUSH2 0x113C JUMPI PUSH2 0x113C PUSH2 0x1ACA JUMP JUMPDEST EQ JUMPDEST ISZERO PUSH2 0x6C7 JUMPI DUP3 MLOAD PUSH1 0x1 PUSH1 0x1 PUSH1 0xA0 SHL SUB SWAP1 DUP2 AND PUSH1 0x0 SWAP1 DUP2 MSTORE PUSH1 0x4 PUSH1 0x20 SWAP1 DUP2 MSTORE PUSH1 0x40 DUP1 DUP4 KECCAK256 PUSH1 0x1 ADD DUP1 SLOAD PUSH8 0xFFFFFFFFFFFFFFFF PUSH1 0x80 SHL NOT AND PUSH1 0x1 PUSH1 0x80 SHL PUSH1 0x1 PUSH1 0x1 PUSH1 0x40 SHL SUB DUP9 AND MUL OR SWAP1 SSTORE DUP7 MLOAD DUP2 MLOAD SWAP5 AND DUP5 MSTORE SWAP1 DUP4 ADD DUP6 SWAP1 MSTORE DUP3 ADD MSTORE PUSH32 0xD3A9973922556AA8A1D3200840E7B0ADC7851CB170484C2C7001999AE794ABC4 SWAP1 PUSH1 0x60 ADD PUSH1 0x40 MLOAD DUP1 SWAP2 SUB SWAP1 LOG1 POP POP POP JUMP JUMPDEST PUSH1 0x0 DUP2 DUP2 MSTORE PUSH1 0x1 DUP4 ADD PUSH1 0x20 MSTORE PUSH1 0x40 DUP2 KECCAK256 SLOAD DUP1 ISZERO PUSH2 0x12B3 JUMPI PUSH1 0x0 PUSH2 0x11EE PUSH1 0x1 DUP4 PUSH2 0x1B46 JUMP JUMPDEST DUP6 SLOAD SWAP1 SWAP2 POP PUSH1 0x0 SWAP1 PUSH2 0x1202 SWAP1 PUSH1 0x1 SWAP1 PUSH2 0x1B46 JUMP JUMPDEST SWAP1 POP DUP2 DUP2 EQ PUSH2 0x1267 JUMPI PUSH1 0x0 DUP7 PUSH1 0x0 ADD DUP3 DUP2 SLOAD DUP2 LT PUSH2 0x1222 JUMPI PUSH2 0x1222 PUSH2 0x1AB4 JUMP JUMPDEST SWAP1 PUSH1 0x0 MSTORE PUSH1 0x20 PUSH1 0x0 KECCAK256 ADD SLOAD SWAP1 POP DUP1 DUP8 PUSH1 0x0 ADD DUP5 DUP2 SLOAD DUP2 LT PUSH2 0x1245 JUMPI PUSH2 0x1245 PUSH2 0x1AB4 JUMP JUMPDEST PUSH1 0x0 SWAP2 DUP3 MSTORE PUSH1 0x20 DUP1 DUP4 KECCAK256 SWAP1 SWAP2 ADD SWAP3 SWAP1 SWAP3 SSTORE SWAP2 DUP3 MSTORE PUSH1 0x1 DUP9 ADD SWAP1 MSTORE PUSH1 0x40 SWAP1 KECCAK256 DUP4 SWAP1 SSTORE JUMPDEST DUP6 SLOAD DUP7 SWAP1 DUP1 PUSH2 0x1278 JUMPI PUSH2 0x1278 PUSH2 0x1B5D JUMP JUMPDEST PUSH1 0x1 SWAP1 SUB DUP2 DUP2 SWAP1 PUSH1 0x0 MSTORE PUSH1 0x20 PUSH1 0x0 KECCAK256 ADD PUSH1 0x0 SWAP1 SSTORE SWAP1 SSTORE DUP6 PUSH1 0x1 ADD PUSH1 0x0 DUP7 DUP2 MSTORE PUSH1 0x20 ADD SWAP1 DUP2 MSTORE PUSH1 0x20 ADD PUSH1 0x0 KECCAK256 PUSH1 0x0 SWAP1 SSTORE PUSH1 0x1 SWAP4 POP POP POP POP PUSH2 0xA84 JUMP JUMPDEST PUSH1 0x0 SWAP2 POP POP PUSH2 0xA84 JUMP JUMPDEST PUSH1 0x0 DUP4 DUP4 EQ DUP1 PUSH2 0x12CB JUMPI POP DUP5 ISZERO JUMPDEST ISZERO PUSH2 0x12D7 JUMPI POP DUP4 PUSH2 0x133E JUMP JUMPDEST DUP4 DUP4 LT ISZERO PUSH2 0x130E JUMPI PUSH1 0x0 PUSH2 0x12EB DUP5 DUP7 PUSH2 0x1B46 JUMP JUMPDEST SWAP1 POP PUSH1 0x0 PUSH2 0x12F9 DUP5 DUP4 PUSH2 0x1412 JUMP JUMPDEST SWAP1 POP PUSH2 0x1305 DUP8 DUP3 PUSH2 0x1346 JUMP JUMPDEST SWAP3 POP POP POP PUSH2 0x133E JUMP JUMPDEST PUSH1 0x40 DUP1 MLOAD DUP1 DUP3 ADD DUP3 MSTORE PUSH1 0x2 DUP2 MSTORE PUSH2 0x3331 PUSH1 0xF0 SHL PUSH1 0x20 DUP3 ADD MSTORE SWAP1 MLOAD PUSH3 0x461BCD PUSH1 0xE5 SHL DUP2 MSTORE PUSH2 0x3A5 SWAP2 SWAP1 PUSH1 0x4 ADD PUSH2 0x1901 JUMP JUMPDEST SWAP5 SWAP4 POP POP POP POP JUMP JUMPDEST PUSH1 0x0 DUP1 PUSH2 0x1353 DUP4 DUP6 PUSH2 0x1B73 JUMP JUMPDEST SWAP1 POP PUSH2 0x133E PUSH8 0xDE0B6B3A7640000 DUP3 PUSH2 0x1BA8 JUMP JUMPDEST PUSH1 0x0 DUP2 DUP2 MSTORE PUSH1 0x1 DUP4 ADD PUSH1 0x20 MSTORE PUSH1 0x40 DUP2 KECCAK256 SLOAD PUSH2 0x13AE JUMPI POP DUP2 SLOAD PUSH1 0x1 DUP2 DUP2 ADD DUP5 SSTORE PUSH1 0x0 DUP5 DUP2 MSTORE PUSH1 0x20 DUP1 DUP3 KECCAK256 SWAP1 SWAP4 ADD DUP5 SWAP1 SSTORE DUP5 SLOAD DUP5 DUP3 MSTORE DUP3 DUP7 ADD SWAP1 SWAP4 MSTORE PUSH1 0x40 SWAP1 KECCAK256 SWAP2 SWAP1 SWAP2 SSTORE PUSH2 0xA84 JUMP JUMPDEST POP PUSH1 0x0 PUSH2 0xA84 JUMP JUMPDEST PUSH1 0x60 DUP2 PUSH1 0x0 ADD DUP1 SLOAD DUP1 PUSH1 0x20 MUL PUSH1 0x20 ADD PUSH1 0x40 MLOAD SWAP1 DUP2 ADD PUSH1 0x40 MSTORE DUP1 SWAP3 SWAP2 SWAP1 DUP2 DUP2 MSTORE PUSH1 0x20 ADD DUP3 DUP1 SLOAD DUP1 ISZERO PUSH2 0x1406 JUMPI PUSH1 0x20 MUL DUP3 ADD SWAP2 SWAP1 PUSH1 0x0 MSTORE PUSH1 0x20 PUSH1 0x0 KECCAK256 SWAP1 JUMPDEST DUP2 SLOAD DUP2 MSTORE PUSH1 0x20 ADD SWAP1 PUSH1 0x1 ADD SWAP1 DUP1 DUP4 GT PUSH2 0x13F2 JUMPI JUMPDEST POP POP POP POP POP SWAP1 POP SWAP2 SWAP1 POP JUMP JUMPDEST PUSH1 0x0 PUSH8 0xDE0B6B3A7640000 JUMPDEST DUP3 ISZERO PUSH2 0xA81 JUMPI PUSH2 0x142F PUSH1 0x2 DUP5 PUSH2 0x1BBC JUMP JUMPDEST PUSH1 0x1 EQ ISZERO PUSH2 0x1444 JUMPI PUSH2 0x1441 DUP2 DUP6 PUSH2 0x1346 JUMP JUMPDEST SWAP1 POP JUMPDEST PUSH2 0x144F PUSH1 0x2 DUP5 PUSH2 0x1BA8 JUMP JUMPDEST SWAP3 POP PUSH2 0x145B DUP5 DUP6 PUSH2 0x1346 JUMP JUMPDEST SWAP4 POP PUSH2 0x141E JUMP JUMPDEST PUSH1 0x1 PUSH1 0x1 PUSH1 0xA0 SHL SUB DUP2 AND DUP2 EQ PUSH2 0x1477 JUMPI PUSH1 0x0 DUP1 REVERT JUMPDEST POP JUMP JUMPDEST DUP1 CALLDATALOAD PUSH2 0x4D8 DUP2 PUSH2 0x1462 JUMP JUMPDEST PUSH1 0x0 PUSH1 0x20 DUP3 DUP5 SUB SLT ISZERO PUSH2 0x1497 JUMPI PUSH1 0x0 DUP1 REVERT JUMPDEST DUP2 CALLDATALOAD PUSH2 0xA81 DUP2 PUSH2 0x1462 JUMP JUMPDEST PUSH1 0xC0 DUP2 ADD PUSH2 0x14DC DUP3 DUP6 DUP1 MLOAD PUSH1 0x1 PUSH1 0x1 PUSH1 0x80 SHL SUB AND DUP3 MSTORE PUSH1 0x20 DUP1 DUP3 ADD MLOAD PUSH1 0x1 PUSH1 0x1 PUSH1 0x40 SHL SUB SWAP1 DUP2 AND SWAP2 DUP5 ADD SWAP2 SWAP1 SWAP2 MSTORE PUSH1 0x40 SWAP2 DUP3 ADD MLOAD AND SWAP2 ADD MSTORE JUMP JUMPDEST DUP3 MLOAD PUSH1 0x1 PUSH1 0x1 PUSH1 0x80 SHL SUB AND PUSH1 0x60 DUP4 ADD MSTORE PUSH1 0x20 DUP4 ADD MLOAD PUSH1 0x1 PUSH1 0x1 PUSH1 0x40 SHL SUB SWAP1 DUP2 AND PUSH1 0x80 DUP5 ADD MSTORE PUSH1 0x40 DUP5 ADD MLOAD AND PUSH1 0xA0 DUP4 ADD MSTORE PUSH2 0xF6A JUMP JUMPDEST PUSH4 0x4E487B71 PUSH1 0xE0 SHL PUSH1 0x0 MSTORE PUSH1 0x41 PUSH1 0x4 MSTORE PUSH1 0x24 PUSH1 0x0 REVERT JUMPDEST PUSH1 0x40 MLOAD PUSH1 0x60 DUP2 ADD PUSH1 0x1 PUSH1 0x1 PUSH1 0x40 SHL SUB DUP2 GT DUP3 DUP3 LT OR ISZERO PUSH2 0x1549 JUMPI PUSH2 0x1549 PUSH2 0x1511 JUMP JUMPDEST PUSH1 0x40 MSTORE SWAP1 JUMP JUMPDEST PUSH1 0x40 DUP1 MLOAD SWAP1 DUP2 ADD PUSH1 0x1 PUSH1 0x1 PUSH1 0x40 SHL SUB DUP2 GT DUP3 DUP3 LT OR ISZERO PUSH2 0x1549 JUMPI PUSH2 0x1549 PUSH2 0x1511 JUMP JUMPDEST PUSH1 0x40 MLOAD PUSH2 0x120 DUP2 ADD PUSH1 0x1 PUSH1 0x1 PUSH1 0x40 SHL SUB DUP2 GT DUP3 DUP3 LT OR ISZERO PUSH2 0x1549 JUMPI PUSH2 0x1549 PUSH2 0x1511 JUMP JUMPDEST PUSH1 0x40 MLOAD PUSH1 0x1F DUP3 ADD PUSH1 0x1F NOT AND DUP2 ADD PUSH1 0x1 PUSH1 0x1 PUSH1 0x40 SHL SUB DUP2 GT DUP3 DUP3 LT OR ISZERO PUSH2 0x15BC JUMPI PUSH2 0x15BC PUSH2 0x1511 JUMP JUMPDEST PUSH1 0x40 MSTORE SWAP2 SWAP1 POP JUMP JUMPDEST PUSH1 0x0 PUSH1 0x1 PUSH1 0x1 PUSH1 0x40 SHL SUB DUP3 GT ISZERO PUSH2 0x15DD JUMPI PUSH2 0x15DD PUSH2 0x1511 JUMP JUMPDEST POP PUSH1 0x5 SHL PUSH1 0x20 ADD SWAP1 JUMP JUMPDEST DUP1 CALLDATALOAD PUSH1 0xFF DUP2 AND DUP2 EQ PUSH2 0x4D8 JUMPI PUSH1 0x0 DUP1 REVERT JUMPDEST PUSH1 0x0 PUSH1 0x80 DUP3 DUP5 SUB SLT ISZERO PUSH2 0x160A JUMPI PUSH1 0x0 DUP1 REVERT JUMPDEST PUSH1 0x40 MLOAD PUSH1 0x80 DUP2 ADD DUP2 DUP2 LT PUSH1 0x1 PUSH1 0x1 PUSH1 0x40 SHL SUB DUP3 GT OR ISZERO PUSH2 0x162C JUMPI PUSH2 0x162C PUSH2 0x1511 JUMP JUMPDEST DUP1 PUSH1 0x40 MSTORE POP DUP1 SWAP2 POP DUP3 CALLDATALOAD DUP2 MSTORE PUSH1 0x20 DUP4 ADD CALLDATALOAD PUSH1 0x20 DUP3 ADD MSTORE PUSH1 0x40 DUP4 ADD CALLDATALOAD PUSH1 0x40 DUP3 ADD MSTORE PUSH1 0x60 DUP4 ADD CALLDATALOAD PUSH1 0x60 DUP3 ADD MSTORE POP SWAP3 SWAP2 POP POP JUMP JUMPDEST DUP1 CALLDATALOAD DUP1 ISZERO ISZERO DUP2 EQ PUSH2 0x4D8 JUMPI PUSH1 0x0 DUP1 REVERT JUMPDEST PUSH1 0x0 DUP3 PUSH1 0x1F DUP4 ADD SLT PUSH2 0x167E JUMPI PUSH1 0x0 DUP1 REVERT JUMPDEST DUP2 CALLDATALOAD PUSH1 0x20 PUSH2 0x1693 PUSH2 0x168E DUP4 PUSH2 0x15C4 JUMP JUMPDEST PUSH2 0x1594 JUMP JUMPDEST DUP3 DUP2 MSTORE PUSH1 0x60 SWAP3 DUP4 MUL DUP6 ADD DUP3 ADD SWAP3 DUP3 DUP3 ADD SWAP2 SWAP1 DUP8 DUP6 GT ISZERO PUSH2 0x16B2 JUMPI PUSH1 0x0 DUP1 REVERT JUMPDEST DUP4 DUP8 ADD JUMPDEST DUP6 DUP2 LT ISZERO PUSH2 0x1709 JUMPI DUP2 DUP2 DUP11 SUB SLT ISZERO PUSH2 0x16CE JUMPI PUSH1 0x0 DUP1 DUP2 REVERT JUMPDEST PUSH2 0x16D6 PUSH2 0x1527 JUMP JUMPDEST DUP2 CALLDATALOAD PUSH2 0x16E1 DUP2 PUSH2 0x1462 JUMP JUMPDEST DUP2 MSTORE PUSH2 0x16EE DUP3 DUP8 ADD PUSH2 0x165D JUMP JUMPDEST DUP2 DUP8 ADD MSTORE PUSH1 0x40 DUP3 DUP2 ADD CALLDATALOAD SWAP1 DUP3 ADD MSTORE DUP5 MSTORE SWAP3 DUP5 ADD SWAP3 DUP2 ADD PUSH2 0x16B6 JUMP JUMPDEST POP SWAP1 SWAP8 SWAP7 POP POP POP POP POP POP POP JUMP JUMPDEST PUSH1 0x0 PUSH1 0x20 DUP3 DUP5 SUB SLT ISZERO PUSH2 0x1728 JUMPI PUSH1 0x0 DUP1 REVERT JUMPDEST PUSH1 0x1 PUSH1 0x1 PUSH1 0x40 SHL SUB DUP1 DUP4 CALLDATALOAD GT ISZERO PUSH2 0x173E JUMPI PUSH1 0x0 DUP1 REVERT JUMPDEST PUSH1 0x40 DUP4 CALLDATALOAD DUP5 ADD DUP6 SUB SLT ISZERO PUSH2 0x1751 JUMPI PUSH1 0x0 DUP1 REVERT JUMPDEST PUSH2 0x1759 PUSH2 0x154F JUMP JUMPDEST DUP2 DUP5 CALLDATALOAD DUP6 ADD CALLDATALOAD GT ISZERO PUSH2 0x176A JUMPI PUSH1 0x0 DUP1 REVERT JUMPDEST DUP4 CALLDATALOAD DUP5 ADD DUP1 CALLDATALOAD ADD PUSH1 0x1F DUP2 ADD DUP7 SGT PUSH2 0x1780 JUMPI PUSH1 0x0 DUP1 REVERT JUMPDEST PUSH2 0x178D PUSH2 0x168E DUP3 CALLDATALOAD PUSH2 0x15C4 JUMP JUMPDEST DUP2 CALLDATALOAD DUP1 DUP3 MSTORE PUSH1 0x20 DUP1 DUP4 ADD SWAP3 SWAP2 PUSH1 0x5 SHL DUP5 ADD ADD DUP9 LT ISZERO PUSH2 0x17AB JUMPI PUSH1 0x0 DUP1 REVERT JUMPDEST PUSH1 0x20 DUP4 ADD JUMPDEST PUSH1 0x20 DUP5 CALLDATALOAD PUSH1 0x5 SHL DUP6 ADD ADD DUP2 LT ISZERO PUSH2 0x18DF JUMPI DUP6 DUP2 CALLDATALOAD GT ISZERO PUSH2 0x17CF JUMPI PUSH1 0x0 DUP1 REVERT JUMPDEST DUP1 CALLDATALOAD DUP5 ADD PUSH1 0x1F NOT PUSH1 0x40 DUP3 DUP13 SUB DUP3 ADD SLT ISZERO PUSH2 0x17E8 JUMPI PUSH1 0x0 DUP1 REVERT JUMPDEST PUSH2 0x17F0 PUSH2 0x154F JUMP JUMPDEST DUP9 PUSH1 0x20 DUP5 ADD CALLDATALOAD GT ISZERO PUSH2 0x1801 JUMPI PUSH1 0x0 DUP1 REVERT JUMPDEST PUSH1 0x20 DUP4 ADD CALLDATALOAD DUP4 ADD PUSH2 0x180 DUP4 DUP3 DUP16 SUB ADD SLT ISZERO PUSH2 0x181B JUMPI PUSH1 0x0 DUP1 REVERT JUMPDEST PUSH2 0x1823 PUSH2 0x1571 JUMP JUMPDEST SWAP3 POP PUSH2 0x1831 PUSH1 0x20 DUP3 ADD PUSH2 0x147A JUMP JUMPDEST DUP4 MSTORE PUSH2 0x183F PUSH1 0x40 DUP3 ADD PUSH2 0x15E7 JUMP JUMPDEST PUSH1 0x20 DUP5 ADD MSTORE PUSH2 0x1850 PUSH1 0x60 DUP3 ADD PUSH2 0x147A JUMP JUMPDEST PUSH1 0x40 DUP5 ADD MSTORE PUSH1 0x80 DUP2 ADD CALLDATALOAD PUSH1 0x60 DUP5 ADD MSTORE PUSH2 0x186C DUP14 PUSH1 0xA0 DUP4 ADD PUSH2 0x15F8 JUMP JUMPDEST PUSH1 0x80 DUP5 ADD MSTORE PUSH2 0x120 DUP2 ADD CALLDATALOAD PUSH1 0xA0 DUP5 ADD MSTORE PUSH2 0x140 DUP2 ADD CALLDATALOAD PUSH1 0xC0 DUP5 ADD MSTORE PUSH2 0x160 DUP2 ADD CALLDATALOAD PUSH1 0xE0 DUP5 ADD MSTORE DUP10 PUSH2 0x180 DUP3 ADD CALLDATALOAD GT ISZERO PUSH2 0x18A4 JUMPI PUSH1 0x0 DUP1 REVERT JUMPDEST PUSH2 0x18B8 DUP14 PUSH1 0x20 PUSH2 0x180 DUP5 ADD CALLDATALOAD DUP5 ADD ADD PUSH2 0x166D JUMP JUMPDEST PUSH2 0x100 DUP5 ADD MSTORE POP SWAP1 DUP2 MSTORE PUSH1 0x40 SWAP2 SWAP1 SWAP2 ADD CALLDATALOAD PUSH1 0x20 DUP1 DUP4 ADD SWAP2 SWAP1 SWAP2 MSTORE SWAP1 DUP5 MSTORE SWAP3 DUP4 ADD SWAP3 ADD PUSH2 0x17B0 JUMP JUMPDEST POP DUP4 MSTORE POP PUSH2 0x18F4 SWAP1 POP DUP5 CALLDATALOAD DUP6 ADD PUSH1 0x20 ADD PUSH2 0x165D JUMP JUMPDEST PUSH1 0x20 DUP3 ADD MSTORE SWAP5 SWAP4 POP POP POP POP JUMP JUMPDEST PUSH1 0x0 PUSH1 0x20 DUP1 DUP4 MSTORE DUP4 MLOAD DUP1 DUP3 DUP6 ADD MSTORE PUSH1 0x0 JUMPDEST DUP2 DUP2 LT ISZERO PUSH2 0x192E JUMPI DUP6 DUP2 ADD DUP4 ADD MLOAD DUP6 DUP3 ADD PUSH1 0x40 ADD MSTORE DUP3 ADD PUSH2 0x1912 JUMP JUMPDEST DUP2 DUP2 GT ISZERO PUSH2 0x1940 JUMPI PUSH1 0x0 PUSH1 0x40 DUP4 DUP8 ADD ADD MSTORE JUMPDEST POP PUSH1 0x1F ADD PUSH1 0x1F NOT AND SWAP3 SWAP1 SWAP3 ADD PUSH1 0x40 ADD SWAP4 SWAP3 POP POP POP JUMP JUMPDEST PUSH1 0x20 DUP1 DUP3 MSTORE DUP3 MLOAD DUP3 DUP3 ADD DUP2 SWAP1 MSTORE PUSH1 0x0 SWAP2 SWAP1 DUP5 DUP3 ADD SWAP1 PUSH1 0x40 DUP6 ADD SWAP1 DUP5 JUMPDEST DUP2 DUP2 LT ISZERO PUSH2 0x1997 JUMPI DUP4 MLOAD PUSH1 0x1 PUSH1 0x1 PUSH1 0xA0 SHL SUB AND DUP4 MSTORE SWAP3 DUP5 ADD SWAP3 SWAP2 DUP5 ADD SWAP2 PUSH1 0x1 ADD PUSH2 0x1972 JUMP JUMPDEST POP SWAP1 SWAP7 SWAP6 POP POP POP POP POP POP JUMP JUMPDEST PUSH1 0x0 PUSH1 0x20 DUP3 DUP5 SUB SLT ISZERO PUSH2 0x19B5 JUMPI PUSH1 0x0 DUP1 REVERT JUMPDEST PUSH2 0xA81 DUP3 PUSH2 0x165D JUMP JUMPDEST PUSH1 0x0 DUP1 DUP3 DUP5 SUB PUSH1 0x60 DUP2 SLT ISZERO PUSH2 0x19D2 JUMPI PUSH1 0x0 DUP1 REVERT JUMPDEST PUSH1 0x40 DUP2 SLT ISZERO PUSH2 0x19E0 JUMPI PUSH1 0x0 DUP1 REVERT JUMPDEST POP PUSH2 0x19E9 PUSH2 0x154F JUMP JUMPDEST DUP4 CALLDATALOAD PUSH2 0x19F4 DUP2 PUSH2 0x1462 JUMP JUMPDEST DUP2 MSTORE PUSH1 0x20 DUP5 ADD CALLDATALOAD PUSH1 0x3 DUP2 LT PUSH2 0x1A08 JUMPI PUSH1 0x0 DUP1 REVERT JUMPDEST PUSH1 0x20 DUP3 ADD MSTORE SWAP5 PUSH1 0x40 SWAP4 SWAP1 SWAP4 ADD CALLDATALOAD SWAP4 POP POP POP JUMP JUMPDEST PUSH1 0x0 PUSH1 0x20 DUP1 DUP4 DUP6 SUB SLT ISZERO PUSH2 0x1A2E JUMPI PUSH1 0x0 DUP1 REVERT JUMPDEST DUP3 MLOAD PUSH1 0x1 PUSH1 0x1 PUSH1 0x40 SHL SUB DUP2 GT ISZERO PUSH2 0x1A44 JUMPI PUSH1 0x0 DUP1 REVERT JUMPDEST DUP4 ADD PUSH1 0x1F DUP2 ADD DUP6 SGT PUSH2 0x1A55 JUMPI PUSH1 0x0 DUP1 REVERT JUMPDEST DUP1 MLOAD PUSH2 0x1A63 PUSH2 0x168E DUP3 PUSH2 0x15C4 JUMP JUMPDEST DUP2 DUP2 MSTORE PUSH1 0x5 SWAP2 SWAP1 SWAP2 SHL DUP3 ADD DUP4 ADD SWAP1 DUP4 DUP2 ADD SWAP1 DUP8 DUP4 GT ISZERO PUSH2 0x1A82 JUMPI PUSH1 0x0 DUP1 REVERT JUMPDEST SWAP3 DUP5 ADD SWAP3 JUMPDEST DUP3 DUP5 LT ISZERO PUSH2 0x1AA9 JUMPI DUP4 MLOAD PUSH2 0x1A9A DUP2 PUSH2 0x1462 JUMP JUMPDEST DUP3 MSTORE SWAP3 DUP5 ADD SWAP3 SWAP1 DUP5 ADD SWAP1 PUSH2 0x1A87 JUMP JUMPDEST SWAP8 SWAP7 POP POP POP POP POP POP POP JUMP JUMPDEST PUSH4 0x4E487B71 PUSH1 0xE0 SHL PUSH1 0x0 MSTORE PUSH1 0x32 PUSH1 0x4 MSTORE PUSH1 0x24 PUSH1 0x0 REVERT JUMPDEST PUSH4 0x4E487B71 PUSH1 0xE0 SHL PUSH1 0x0 MSTORE PUSH1 0x21 PUSH1 0x4 MSTORE PUSH1 0x24 PUSH1 0x0 REVERT JUMPDEST PUSH4 0x4E487B71 PUSH1 0xE0 SHL PUSH1 0x0 MSTORE PUSH1 0x11 PUSH1 0x4 MSTORE PUSH1 0x24 PUSH1 0x0 REVERT JUMPDEST PUSH1 0x0 PUSH1 0x0 NOT DUP3 EQ ISZERO PUSH2 0x1B0A JUMPI PUSH2 0x1B0A PUSH2 0x1AE0 JUMP JUMPDEST POP PUSH1 0x1 ADD SWAP1 JUMP JUMPDEST PUSH1 0x0 DUP3 NOT DUP3 GT ISZERO PUSH2 0x1B24 JUMPI PUSH2 0x1B24 PUSH2 0x1AE0 JUMP JUMPDEST POP ADD SWAP1 JUMP JUMPDEST PUSH1 0x0 PUSH1 0x20 DUP3 DUP5 SUB SLT ISZERO PUSH2 0x1B3B JUMPI PUSH1 0x0 DUP1 REVERT JUMPDEST DUP2 MLOAD PUSH2 0xA81 DUP2 PUSH2 0x1462 JUMP JUMPDEST PUSH1 0x0 DUP3 DUP3 LT ISZERO PUSH2 0x1B58 JUMPI PUSH2 0x1B58 PUSH2 0x1AE0 JUMP JUMPDEST POP SUB SWAP1 JUMP JUMPDEST PUSH4 0x4E487B71 PUSH1 0xE0 SHL PUSH1 0x0 MSTORE PUSH1 0x31 PUSH1 0x4 MSTORE PUSH1 0x24 PUSH1 0x0 REVERT JUMPDEST PUSH1 0x0 DUP2 PUSH1 0x0 NOT DIV DUP4 GT DUP3 ISZERO ISZERO AND ISZERO PUSH2 0x1B8D JUMPI PUSH2 0x1B8D PUSH2 0x1AE0 JUMP JUMPDEST POP MUL SWAP1 JUMP JUMPDEST PUSH4 0x4E487B71 PUSH1 0xE0 SHL PUSH1 0x0 MSTORE PUSH1 0x12 PUSH1 0x4 MSTORE PUSH1 0x24 PUSH1 0x0 REVERT JUMPDEST PUSH1 0x0 DUP3 PUSH2 0x1BB7 JUMPI PUSH2 0x1BB7 PUSH2 0x1B92 JUMP JUMPDEST POP DIV SWAP1 JUMP JUMPDEST PUSH1 0x0 DUP3 PUSH2 0x1BCB JUMPI PUSH2 0x1BCB PUSH2 0x1B92 JUMP JUMPDEST POP MOD SWAP1 JUMP INVALID LOG2 PUSH5 0x6970667358 0x22 SLT KECCAK256 0x4C 0xE2 PUSH9 0x3BA14B9220317D40D8 DIFFICULTY 0xC6 SELFDESTRUCT 0xD9 SWAP15 SIGNEXTEND DUP8 RETURNDATACOPY SWAP10 0x4D PUSH9 0x52A77DD82B2E1EF8A9 PUSH5 0x736F6C6343 STOP ADDMOD EXP STOP CALLER ","sha1":"78a2c27edbd1cef4cda1af263bf001361249c582","source":"// SPDX-License-Identifier: LicenseRef-Gyro-1.0\n// for information on licensing please see the README in the GitHub repository <https://github.com/gyrostable/core-protocol>.\npragma solidity ^0.8.4;\n\nimport \"@openzeppelin/contracts/token/ERC20/utils/SafeERC20.sol\";\nimport \"@openzeppelin/contracts/token/ERC20/ERC20.sol\";\nimport \"@openzeppelin/contracts/utils/structs/EnumerableSet.sol\";\n\nimport \"./../auth/Governable.sol\";\nimport \"../../libraries/DataTypes.sol\";\nimport \"../../interfaces/IGyroConfig.sol\";\nimport \"../../interfaces/IAssetRegistry.sol\";\nimport \"../../interfaces/IGyroVault.sol\";\nimport \"../../interfaces/balancer/IVault.sol\";\nimport \"../../libraries/Errors.sol\";\nimport \"../../interfaces/ISafetyCheck.sol\";\nimport \"../../interfaces/IVaultRegistry.sol\";\nimport \"../../libraries/FixedPoint.sol\";\nimport \"../../libraries/Flow.sol\";\nimport \"../../libraries/Errors.sol\";\nimport \"../../libraries/StringExtensions.sol\";\nimport \"../../libraries/ConfigHelpers.sol\";\n\ncontract VaultSafetyMode is ISafetyCheck, Governable {\n    using FixedPoint for uint256;\n    using StringExtensions for string;\n    using EnumerableSet for EnumerableSet.AddressSet;\n    using ConfigHelpers for IGyroConfig;\n\n    EnumerableSet.AddressSet internal whitelist;\n\n    /// @notice Emitted when entering safety mode\n    event SafetyStatus(string err);\n\n    /// @notice Emitted when a whitelisted address protects a vault\n    event OracleGuardianActivated(\n        address vaultAddress,\n        uint256 durationOfProtectionInBlocks,\n        bool inFlows\n    );\n\n    event AddedToWhitelist(address indexed account);\n    event RemovedFromWhitelist(address indexed account);\n\n    struct FlowResult {\n        uint256 newFlow;\n        bool safetyModeActivated;\n    }\n\n    mapping(address => DataTypes.FlowData) public persistedFlowData;\n\n    IGyroConfig public immutable gyroConfig;\n\n    uint256 public immutable safetyBlocksAutomatic;\n    uint256 public immutable safetyBlocksGuardian;\n\n    uint256 public constant THRESHOLD_BUFFER = 8e17;\n\n    constructor(\n        address governor,\n        uint256 _safetyBlocksAutomatic,\n        uint256 _safetyBlocksGuardian,\n        address _gyroConfig\n    ) Governable(governor) {\n        safetyBlocksAutomatic = _safetyBlocksAutomatic;\n        safetyBlocksGuardian = _safetyBlocksGuardian;\n        gyroConfig = IGyroConfig(_gyroConfig);\n    }\n\n    modifier rootSafetyCheckOnly() {\n        require(msg.sender == address(gyroConfig.getRootSafetyCheck()), Errors.NOT_AUTHORIZED);\n        _;\n    }\n\n    /// @notice Checks whether a mint operation is safe\n    /// @return err empty string if it is safe, otherwise the reason why it is not safe\n    function isMintSafe(DataTypes.Order memory order) external view returns (string memory err) {\n        if (order.mint) {\n            (err, ) = _checkFlows(order);\n        } else {\n            err = Errors.INVALID_ARGUMENT;\n        }\n    }\n\n    /// @inheritdoc ISafetyCheck\n    function checkAndPersistMint(DataTypes.Order memory order) external rootSafetyCheckOnly {\n        require(order.mint, Errors.INVALID_ARGUMENT);\n        (string memory err, FlowResult[] memory result) = _checkFlows(order);\n\n        if (bytes(err).length > 0) {\n            if (err.compareStrings(Errors.OPERATION_SUCCEEDS_BUT_SAFETY_MODE_ACTIVATED)) {\n                emit SafetyStatus(err);\n            } else {\n                revert(err);\n            }\n        }\n\n        _updateFlows(order, result);\n    }\n\n    /// @notice Checks whether a redeem operation is safe\n    /// @return err empty string if it is safe, otherwise the reason why it is not safe\n    function isRedeemSafe(DataTypes.Order memory order) external view returns (string memory err) {\n        if (!order.mint) {\n            (err, ) = _checkFlows(order);\n        } else {\n            err = Errors.INVALID_ARGUMENT;\n        }\n    }\n\n    /// @notice Checks whether a redeem operation is safe\n    /// This is only called when an actual redeem is performed\n    /// The implementation should store any relevant information for the redeem\n    function checkAndPersistRedeem(DataTypes.Order memory order) external rootSafetyCheckOnly {\n        require(!order.mint, Errors.INVALID_ARGUMENT);\n        (string memory err, FlowResult[] memory result) = _checkFlows(order);\n\n        if (bytes(err).length > 0) {\n            if (err.compareStrings(Errors.OPERATION_SUCCEEDS_BUT_SAFETY_MODE_ACTIVATED)) {\n                emit SafetyStatus(err);\n            } else {\n                revert(err);\n            }\n        }\n\n        _updateFlows(order, result);\n    }\n\n    function getWhitelist() external view returns (address[] memory) {\n        return whitelist.values();\n    }\n\n    function addAddressToWhitelist(address _addressToAdd) external governanceOnly {\n        whitelist.add(_addressToAdd);\n        emit AddedToWhitelist(_addressToAdd);\n    }\n\n    function removeAddressFromWhitelist(address _addressToRemove) external governanceOnly {\n        whitelist.remove(_addressToRemove);\n        emit RemovedFromWhitelist(_addressToRemove);\n    }\n\n    modifier isWhitelisted(address _address) {\n        require(whitelist.contains(_address), Errors.NOT_AUTHORIZED);\n        _;\n    }\n\n    function activateOracleGuardian(DataTypes.GuardedVaults memory vaultToProtect, uint256 blocks)\n        external\n        isWhitelisted(msg.sender)\n    {\n        _activateOracleGuardian(vaultToProtect, blocks);\n    }\n\n    function pauseProtocol(bool depositsOnly) external isWhitelisted(msg.sender) {\n        IVaultRegistry vaultRegistry = gyroConfig.getVaultRegistry();\n        address[] memory vaults = vaultRegistry.listVaults();\n        DataTypes.Direction direction = depositsOnly\n            ? DataTypes.Direction.In\n            : DataTypes.Direction.Both;\n        uint256 blocksToActivate = safetyBlocksGuardian;\n        for (uint256 i = 0; i < vaults.length; i++) {\n            DataTypes.GuardedVaults memory vaultToProtect = DataTypes.GuardedVaults(\n                vaults[i],\n                direction\n            );\n            _activateOracleGuardian(vaultToProtect, blocksToActivate);\n        }\n    }\n\n    function _checkFlows(DataTypes.Order memory order)\n        internal\n        view\n        returns (string memory err, FlowResult[] memory result)\n    {\n        result = new FlowResult[](order.vaultsWithAmount.length);\n\n        for (uint256 i; i < order.vaultsWithAmount.length; i++) {\n            uint256 amount = order.vaultsWithAmount[i].amount;\n            DataTypes.VaultInfo memory vault = order.vaultsWithAmount[i].vaultInfo;\n            DataTypes.FlowData storage flowData = persistedFlowData[vault.vault];\n            DataTypes.DirectionalFlowData memory directionalData;\n            directionalData = order.mint ? flowData.inFlow : flowData.outFlow;\n\n            if (amount > 0 && block.number <= directionalData.lastSafetyBlock) {\n                err = Errors.SAFETY_MODE_ACTIVATED;\n                break;\n            }\n\n            uint256 shortFlowThreshold = vault.persistedMetadata.shortFlowThreshold;\n            uint256 newFlow = order.vaultsWithAmount[i].amount +\n                Flow.updateFlow(\n                    directionalData.shortFlow,\n                    block.number,\n                    directionalData.lastSeenBlock,\n                    vault.persistedMetadata.shortFlowMemory\n                );\n\n            if (newFlow > shortFlowThreshold) {\n                err = Errors.VAULT_FLOW_TOO_HIGH;\n                break;\n            }\n\n            bool activateSafetyMode = newFlow > THRESHOLD_BUFFER.mulDown(shortFlowThreshold);\n            if (activateSafetyMode) {\n                err = Errors.OPERATION_SUCCEEDS_BUT_SAFETY_MODE_ACTIVATED;\n            }\n\n            result[i] = FlowResult(newFlow, activateSafetyMode);\n        }\n    }\n\n    function _updateFlows(DataTypes.Order memory order, FlowResult[] memory result) internal {\n        for (uint256 i; i < order.vaultsWithAmount.length; i++) {\n            DataTypes.VaultInfo memory vault = order.vaultsWithAmount[i].vaultInfo;\n            DataTypes.FlowData storage flowData = persistedFlowData[vault.vault];\n            DataTypes.DirectionalFlowData storage directionalData;\n            if (order.mint) {\n                directionalData = flowData.inFlow;\n            } else {\n                directionalData = flowData.outFlow;\n            }\n            directionalData.lastSeenBlock = uint64(block.number);\n            directionalData.shortFlow = uint128(result[i].newFlow);\n            if (result[i].safetyModeActivated) {\n                directionalData.lastSafetyBlock = uint64(block.number + safetyBlocksAutomatic);\n            }\n        }\n    }\n\n    function _activateOracleGuardian(DataTypes.GuardedVaults memory vaultToProtect, uint256 blocks)\n        internal\n    {\n        require(blocks <= safetyBlocksGuardian, Errors.ORACLE_GUARDIAN_TIME_LIMIT);\n\n        uint64 targetBlock = uint64(block.number + blocks);\n        if (\n            vaultToProtect.direction == DataTypes.Direction.In ||\n            vaultToProtect.direction == DataTypes.Direction.Both\n        ) {\n            persistedFlowData[vaultToProtect.vaultAddress].inFlow.lastSafetyBlock = targetBlock;\n            emit OracleGuardianActivated(vaultToProtect.vaultAddress, blocks, true);\n        }\n        if (\n            vaultToProtect.direction == DataTypes.Direction.Out ||\n            vaultToProtect.direction == DataTypes.Direction.Both\n        ) {\n            persistedFlowData[vaultToProtect.vaultAddress].outFlow.lastSafetyBlock = targetBlock;\n            emit OracleGuardianActivated(vaultToProtect.vaultAddress, blocks, false);\n        }\n    }\n}\n","sourcePath":"contracts/safety/VaultSafetyMode.sol","type":"contract","deployment":{"address":"0x67b93A9D98C8dd6109B85DC90369945Ea4ca2fA5","chainid":"137","blockHeight":38003347}}