{"abi":[{"inputs":[{"internalType":"contract IGyroConfig","name":"_gyroConfig","type":"address"}],"stateMutability":"nonpayable","type":"constructor","name":"constructor"},{"anonymous":false,"inputs":[{"indexed":false,"internalType":"address","name":"newGovernor","type":"address"}],"name":"GovernorChangeRequested","type":"event"},{"anonymous":false,"inputs":[{"indexed":false,"internalType":"address","name":"oldGovernor","type":"address"},{"indexed":false,"internalType":"address","name":"newGovernor","type":"address"}],"name":"GovernorChanged","type":"event"},{"inputs":[],"name":"acceptGovernance","outputs":[],"stateMutability":"nonpayable","type":"function"},{"inputs":[{"internalType":"address","name":"newGovernor","type":"address"}],"name":"changeGovernor","outputs":[],"stateMutability":"nonpayable","type":"function"},{"inputs":[{"components":[{"internalType":"address","name":"inputToken","type":"address"},{"internalType":"uint256","name":"inputAmount","type":"uint256"},{"internalType":"address","name":"destinationVault","type":"address"}],"internalType":"struct DataTypes.MintAsset[]","name":"assets","type":"tuple[]"},{"internalType":"uint256","name":"minReceivedAmount","type":"uint256"},{"internalType":"address","name":"account","type":"address"}],"name":"dryMint","outputs":[{"internalType":"uint256","name":"mintedGYDAmount","type":"uint256"},{"internalType":"string","name":"err","type":"string"}],"stateMutability":"view","type":"function"},{"inputs":[{"internalType":"uint256","name":"gydToRedeem","type":"uint256"},{"components":[{"internalType":"address","name":"outputToken","type":"address"},{"internalType":"uint256","name":"minOutputAmount","type":"uint256"},{"internalType":"uint256","name":"valueRatio","type":"uint256"},{"internalType":"address","name":"originVault","type":"address"}],"internalType":"struct DataTypes.RedeemAsset[]","name":"assets","type":"tuple[]"}],"name":"dryRedeem","outputs":[{"internalType":"uint256[]","name":"outputAmounts","type":"uint256[]"},{"internalType":"string","name":"err","type":"string"}],"stateMutability":"view","type":"function"},{"inputs":[],"name":"governor","outputs":[{"internalType":"address","name":"","type":"address"}],"stateMutability":"view","type":"function"},{"inputs":[],"name":"gydToken","outputs":[{"internalType":"contract IGYDToken","name":"","type":"address"}],"stateMutability":"view","type":"function"},{"inputs":[],"name":"gyroConfig","outputs":[{"internalType":"contract IGyroConfig","name":"","type":"address"}],"stateMutability":"view","type":"function"},{"inputs":[{"internalType":"address","name":"_governor","type":"address"}],"name":"initialize","outputs":[],"stateMutability":"nonpayable","type":"function"},{"inputs":[{"components":[{"internalType":"address","name":"inputToken","type":"address"},{"internalType":"uint256","name":"inputAmount","type":"uint256"},{"internalType":"address","name":"destinationVault","type":"address"}],"internalType":"struct DataTypes.MintAsset[]","name":"assets","type":"tuple[]"},{"internalType":"uint256","name":"minReceivedAmount","type":"uint256"}],"name":"mint","outputs":[{"internalType":"uint256","name":"mintedGYDAmount","type":"uint256"}],"stateMutability":"nonpayable","type":"function"},{"inputs":[],"name":"pamm","outputs":[{"internalType":"contract IPAMM","name":"","type":"address"}],"stateMutability":"view","type":"function"},{"inputs":[],"name":"pendingGovernor","outputs":[{"internalType":"address","name":"","type":"address"}],"stateMutability":"view","type":"function"},{"inputs":[{"internalType":"uint256","name":"gydToRedeem","type":"uint256"},{"components":[{"internalType":"address","name":"outputToken","type":"address"},{"internalType":"uint256","name":"minOutputAmount","type":"uint256"},{"internalType":"uint256","name":"valueRatio","type":"uint256"},{"internalType":"address","name":"originVault","type":"address"}],"internalType":"struct DataTypes.RedeemAsset[]","name":"assets","type":"tuple[]"}],"name":"redeem","outputs":[{"internalType":"uint256[]","name":"","type":"uint256[]"}],"stateMutability":"nonpayable","type":"function"},{"inputs":[],"name":"reserve","outputs":[{"internalType":"contract IReserve","name":"","type":"address"}],"stateMutability":"view","type":"function"}],"bytecode":"60e06040523480156200001157600080fd5b5060405162004522380380620045228339810160408190526200003491620005dd565b6001600160a01b03811660c08190526200005a90620000f9602090811b6200127317901c565b6001600160a01b03166080816001600160a01b03168152505062000092816001600160a01b03166200018260201b620012f91760201c565b6001600160a01b031660a0816001600160a01b031681525050620000f2620000ce826001600160a01b0316620001c460201b6200133a1760201c565b6000196080516001600160a01b03166200020760201b6200137c179092919060201c565b50620006c1565b6040516321f8a72160e01b8152704759445f544f4b454e5f4144445245535360781b60048201526000906001600160a01b038316906321f8a721906024015b602060405180830381865afa15801562000156573d6000803e3d6000fd5b505050506040513d601f19601f820116820180604052508101906200017c9190620005dd565b92915050565b6040516321f8a72160e01b81526e524553455256455f4144445245535360881b60048201526000906001600160a01b038316906321f8a7219060240162000138565b6040516321f8a72160e01b81526f4645455f42414e4b5f4144445245535360801b60048201526000906001600160a01b038316906321f8a7219060240162000138565b801580620002855750604051636eb1769f60e11b81523060048201526001600160a01b03838116602483015284169063dd62ed3e90604401602060405180830381865afa1580156200025d573d6000803e3d6000fd5b505050506040513d601f19601f82011682018060405250810190620002839190620005fd565b155b620002fd5760405162461bcd60e51b815260206004820152603660248201527f5361666545524332303a20617070726f76652066726f6d206e6f6e2d7a65726f60448201527f20746f206e6f6e2d7a65726f20616c6c6f77616e63650000000000000000000060648201526084015b60405180910390fd5b604080516001600160a01b038416602482015260448082018490528251808303909101815260649091019091526020810180516001600160e01b0390811663095ea7b360e01b17909152620003559185916200035a16565b505050565b6000620003b6826040518060400160405280602081526020017f5361666545524332303a206c6f772d6c6576656c2063616c6c206661696c6564815250856001600160a01b03166200043860201b620014c9179092919060201c565b805190915015620003555780806020019051810190620003d7919062000617565b620003555760405162461bcd60e51b815260206004820152602a60248201527f5361666545524332303a204552433230206f7065726174696f6e20646964206e6044820152691bdd081cdd58d8d9595960b21b6064820152608401620002f4565b606062000449848460008562000453565b90505b9392505050565b606082471015620004b65760405162461bcd60e51b815260206004820152602660248201527f416464726573733a20696e73756666696369656e742062616c616e636520666f6044820152651c8818d85b1b60d21b6064820152608401620002f4565b843b620005065760405162461bcd60e51b815260206004820152601d60248201527f416464726573733a2063616c6c20746f206e6f6e2d636f6e74726163740000006044820152606401620002f4565b600080866001600160a01b031685876040516200052491906200066e565b60006040518083038185875af1925050503d806000811462000563576040519150601f19603f3d011682016040523d82523d6000602084013e62000568565b606091505b5090925090506200057b82828662000586565b979650505050505050565b60608315620005975750816200044c565b825115620005a85782518084602001fd5b8160405162461bcd60e51b8152600401620002f491906200068c565b6001600160a01b0381168114620005da57600080fd5b50565b600060208284031215620005f057600080fd5b81516200044c81620005c4565b6000602082840312156200061057600080fd5b5051919050565b6000602082840312156200062a57600080fd5b815180151581146200044c57600080fd5b60005b83811015620006585781810151838201526020016200063e565b8381111562000668576000848401525b50505050565b60008251620006828184602087016200063b565b9190910192915050565b6020815260008251806020840152620006ad8160408501602087016200063b565b601f01601f19169190910160400192915050565b60805160a05160c051613d90620007926000396000818161013401528181610316015281816103c1015281816104d60152818161075f0152818161088d0152818161094301528181610a8801528181610bb801528181610c4901528181610d2e01528181610dd901528181610e9301528181611056015281816118810152818161195d01526119940152600081816101d80152818161047a015281816129e20152612b3b015260008181610225015281816106a101528181610a1d015281816118b401526119e00152613d906000f3fe608060405234801561001057600080fd5b50600436106100cf5760003560e01c8063565294031161008c578063cd3293de11610066578063cd3293de146101d3578063e3056a34146101fa578063e4c0aaf41461020d578063fbf600281461022057600080fd5b8063565294031461019757806385b0c781146101b8578063c4d66de8146101c057600080fd5b80630c340a24146100d4578063238efcbc146101045780632799c6cf1461010e57806344bbdb551461012f5780634d8ca4c5146101565780634e4d822a14610177575b600080fd5b6000546100e7906001600160a01b031681565b6040516001600160a01b0390911681526020015b60405180910390f35b61010c610247565b005b61012161011c366004613137565b610300565b6040519081526020016100fb565b6100e77f000000000000000000000000000000000000000000000000000000000000000081565b610169610164366004613182565b610711565b6040516100fb929190613293565b61018a610185366004613182565b6109fe565b6040516100fb91906132c1565b6101aa6101a53660046132ec565b610d01565b6040516100fb92919061334a565b6100e761102f565b61010c6101ce366004613363565b6110ce565b6100e77f000000000000000000000000000000000000000000000000000000000000000081565b6001546100e7906001600160a01b031681565b61010c61021b366004613363565b61119e565b6100e77f000000000000000000000000000000000000000000000000000000000000000081565b600154604080518082019091526002815261033360f41b6020820152906001600160a01b031633146102955760405162461bcd60e51b815260040161028c9190613380565b60405180910390fd5b5060008054600180546001600160a01b03198084166001600160a01b03808416919091179095551690556040805192909116808352336020840152917fde4b3f61490b74c0ed6237523974fe299126bbbf8a8a7482fd220104c59b0c8491015b60405180910390a150565b60008061030d85856114e0565b905060006103437f00000000000000000000000000000000000000000000000000000000000000006001600160a01b03166115db565b6001600160a01b031663ef5bac256040518163ffffffff1660e01b8152600401600060405180830381865afa158015610380573d6000803e3d6000fd5b505050506040513d6000823e601f3d908101601f191682016040526103a89190810190613662565b905060006103ba83836020015161162a565b90506103ee7f00000000000000000000000000000000000000000000000000000000000000006001600160a01b0316611729565b6001600160a01b031663d625436c826040518263ffffffff1660e01b8152600401610419919061379b565b600060405180830381600087803b15801561043357600080fd5b505af1158015610447573d6000803e3d6000fd5b5050505060005b83518110156104ce57600084828151811061046b5761046b6138c2565b602002602001015190506104bb7f0000000000000000000000000000000000000000000000000000000000000000826020015183600001516001600160a01b03166117789092919063ffffffff16565b50806104c6816138ee565b91505061044e565b5060006105037f00000000000000000000000000000000000000000000000000000000000000006001600160a01b03166117a8565b6001600160a01b031663aa52e2b4836040518263ffffffff1660e01b815260040161052e919061379b565b600060405180830381865afa15801561054b573d6000803e3d6000fd5b505050506040513d6000823e601f3d908101601f191682016040526105739190810190613909565b90506000610580826117ed565b905061058a61102f565b8451604051630d9778e560e11b81526004810184905260248101919091526001600160a01b039190911690631b2ef1ca906044016020604051808303816000875af11580156105dd573d6000803e3d6000fd5b505050506040513d601f19601f820116820180604052508101906106019190613a35565b955086861015604051806040016040528060018152602001601960f91b8152509061063f5760405162461bcd60e51b815260040161028c9190613380565b5061064a3387611879565b15604051806040016040528060028152602001610d8d60f21b815250906106845760405162461bcd60e51b815260040161028c9190613380565b506040516340c10f1960e01b8152336004820152602481018790527f00000000000000000000000000000000000000000000000000000000000000006001600160a01b0316906340c10f1990604401600060405180830381600087803b1580156106ed57600080fd5b505af1158015610701573d6000803e3d6000fd5b5050505050505050509392505050565b606080826001600160401b0381111561072c5761072c613393565b604051908082528060200260200182016040528015610755578160200160208202803683370190505b509150600061078c7f00000000000000000000000000000000000000000000000000000000000000006001600160a01b03166115db565b6001600160a01b031663ef5bac256040518163ffffffff1660e01b8152600401600060405180830381865afa1580156107c9573d6000803e3d6000fd5b505050506040513d6000823e601f3d908101601f191682016040526107f19190810190613662565b905060006107fd61102f565b8251604051631c76d8fb60e21b8152600481018a905260248101919091526001600160a01b0391909116906371db63ec90604401602060405180830381865afa15801561084e573d6000803e3d6000fd5b505050506040513d601f19601f820116820180604052508101906108729190613a35565b905060006108868288888660200151611a62565b90506108ba7f00000000000000000000000000000000000000000000000000000000000000006001600160a01b0316611729565b6001600160a01b0316636382b296826040518263ffffffff1660e01b81526004016108e5919061379b565b600060405180830381865afa158015610902573d6000803e3d6000fd5b505050506040513d6000823e601f3d908101601f1916820160405261092a9190810190613ab1565b80519094501561093c575050506109f6565b60006109707f00000000000000000000000000000000000000000000000000000000000000006001600160a01b03166117a8565b6001600160a01b031663aa52e2b4836040518263ffffffff1660e01b815260040161099b919061379b565b600060405180830381865afa1580156109b8573d6000803e3d6000fd5b505050506040513d6000823e601f3d908101601f191682016040526109e09190810190613909565b90506109ed888883611bcb565b95509550505050505b935093915050565b60405163079cc67960e41b8152336004820152602481018490526060907f00000000000000000000000000000000000000000000000000000000000000006001600160a01b0316906379cc679090604401600060405180830381600087803b158015610a6957600080fd5b505af1158015610a7d573d6000803e3d6000fd5b505050506000610ab57f00000000000000000000000000000000000000000000000000000000000000006001600160a01b03166115db565b6001600160a01b031663ef5bac256040518163ffffffff1660e01b8152600401600060405180830381865afa158015610af2573d6000803e3d6000fd5b505050506040513d6000823e601f3d908101601f19168201604052610b1a9190810190613662565b90506000610b2661102f565b8251604051637cbc237360e01b81526004810189905260248101919091526001600160a01b039190911690637cbc2373906044016020604051808303816000875af1158015610b79573d6000803e3d6000fd5b505050506040513d601f19601f82011682018060405250810190610b9d9190613a35565b90506000610bb18287878660200151611a62565b9050610be57f00000000000000000000000000000000000000000000000000000000000000006001600160a01b0316611729565b6001600160a01b031663a0763820826040518263ffffffff1660e01b8152600401610c10919061379b565b600060405180830381600087803b158015610c2a57600080fd5b505af1158015610c3e573d6000803e3d6000fd5b505050506000610c767f00000000000000000000000000000000000000000000000000000000000000006001600160a01b03166117a8565b6001600160a01b031663aa52e2b4836040518263ffffffff1660e01b8152600401610ca1919061379b565b600060405180830381865afa158015610cbe573d6000803e3d6000fd5b505050506040513d6000823e601f3d908101601f19168201604052610ce69190810190613909565b9050610cf3878783611cec565b9450505050505b9392505050565b6000606080610d108787611e18565b805190935090915015610d27576000925050611026565b6000610d5b7f00000000000000000000000000000000000000000000000000000000000000006001600160a01b03166115db565b6001600160a01b031663ef5bac256040518163ffffffff1660e01b8152600401600060405180830381865afa158015610d98573d6000803e3d6000fd5b505050506040513d6000823e601f3d908101601f19168201604052610dc09190810190613662565b90506000610dd283836020015161162a565b9050610e067f00000000000000000000000000000000000000000000000000000000000000006001600160a01b0316611729565b6001600160a01b031663e2cc8679826040518263ffffffff1660e01b8152600401610e31919061379b565b600060405180830381865afa158015610e4e573d6000803e3d6000fd5b505050506040513d6000823e601f3d908101601f19168201604052610e769190810190613ab1565b805190945015610e8c5760009450505050611026565b6000610ec07f00000000000000000000000000000000000000000000000000000000000000006001600160a01b03166117a8565b6001600160a01b031663aa52e2b4836040518263ffffffff1660e01b8152600401610eeb919061379b565b600060405180830381865afa158015610f08573d6000803e3d6000fd5b505050506040513d6000823e601f3d908101601f19168201604052610f309190810190613909565b90506000610f3d826117ed565b9050610f4761102f565b845160405163616a1ed960e01b81526004810184905260248101919091526001600160a01b03919091169063616a1ed990604401602060405180830381865afa158015610f98573d6000803e3d6000fd5b505050506040513d601f19601f82011682018060405250810190610fbc9190613a35565b965088871015610feb5750506040805180820190915260018152601960f91b6020820152935061102692505050565b610ff58888611879565b156110205750506040805180820190915260028152610d8d60f21b6020820152935061102692505050565b50505050505b94509492505050565b6040516321f8a72160e01b81526b50414d4d5f4144445245535360a01b60048201526000907f00000000000000000000000000000000000000000000000000000000000000006001600160a01b0316906321f8a72190602401602060405180830381865afa1580156110a5573d6000803e3d6000fd5b505050506040513d601f19601f820116820180604052508101906110c99190613ae5565b905090565b600154600160a81b900460ff16806110f05750600154600160a01b900460ff16155b6111535760405162461bcd60e51b815260206004820152602e60248201527f496e697469616c697a61626c653a20636f6e747261637420697320616c72656160448201526d191e481a5b9a5d1a585b1a5e995960921b606482015260840161028c565b600154600160a81b900460ff1615801561117d576001805461ffff60a01b191661010160a01b1790555b61118682611f2c565b801561119a576001805460ff60a81b191690555b5050565b600054604080518082019091526002815261033360f41b6020820152906001600160a01b031633146111e35760405162461bcd60e51b815260040161028c9190613380565b50604080518082019091526002815261333160f01b60208201526001600160a01b0382166112245760405162461bcd60e51b815260040161028c9190613380565b50600180546001600160a01b0319166001600160a01b0383169081179091556040519081527f67235ba2e63c748a35b95c4f92a3bbc2a1389938170a5ce6c9add5d0b03a314a906020016102f5565b6040516321f8a72160e01b8152704759445f544f4b454e5f4144445245535360781b60048201526000906001600160a01b038316906321f8a721906024015b602060405180830381865afa1580156112cf573d6000803e3d6000fd5b505050506040513d601f19601f820116820180604052508101906112f39190613ae5565b92915050565b6040516321f8a72160e01b81526e524553455256455f4144445245535360881b60048201526000906001600160a01b038316906321f8a721906024016112b2565b6040516321f8a72160e01b81526f4645455f42414e4b5f4144445245535360801b60048201526000906001600160a01b038316906321f8a721906024016112b2565b8015806113f65750604051636eb1769f60e11b81523060048201526001600160a01b03838116602483015284169063dd62ed3e90604401602060405180830381865afa1580156113d0573d6000803e3d6000fd5b505050506040513d601f19601f820116820180604052508101906113f49190613a35565b155b6114615760405162461bcd60e51b815260206004820152603660248201527f5361666545524332303a20617070726f76652066726f6d206e6f6e2d7a65726f60448201527520746f206e6f6e2d7a65726f20616c6c6f77616e636560501b606482015260840161028c565b6040516001600160a01b0383166024820152604481018290526114c490849063095ea7b360e01b906064015b60408051601f198184030181529190526020810180516001600160e01b03166001600160e01b031990931692909217909152611f80565b505050565b60606114d88484600085612052565b949350505050565b60606000826001600160401b038111156114fc576114fc613393565b60405190808252806020026020018201604052801561154157816020015b604080518082019091526000808252602082015281526020019060019003908161151a5790505b50905060005b838110156115d35736858583818110611562576115626138c2565b905060600201905060405180604001604052808260400160208101906115889190613363565b6001600160a01b0316815260200161159f8361217a565b8152508383815181106115b4576115b46138c2565b60200260200101819052505080806115cb906138ee565b915050611547565b509392505050565b6040516321f8a72160e01b81527f524553455256455f4d414e414745525f4144445245535300000000000000000060048201526000906001600160a01b038316906321f8a721906024016112b2565b6040805180820190915260608152600060208201526000604051806040016040528084516001600160401b0381111561166557611665613393565b60405190808252806020026020018201604052801561169e57816020015b61168b613049565b8152602001906001900390816116835790505b5081526001602090910152905060005b83518110156115d35760008482815181106116cb576116cb6138c2565b6020026020010151905060405180604001604052808281526020016116f4836000015189612333565b9052835180518490811061170a5761170a6138c2565b6020026020010181905250508080611721906138ee565b9150506116ae565b6040516321f8a72160e01b81527f524f4f545f5341464554595f434845434b5f414444524553530000000000000060048201526000906001600160a01b038316906321f8a721906024016112b2565b6040516001600160a01b0383166024820152604481018290526114c490849063a9059cbb60e01b9060640161148d565b6040516321f8a72160e01b8152724645455f48414e444c45525f4144445245535360681b60048201526000906001600160a01b038316906321f8a721906024016112b2565b6000805b82515181101561187357600083600001518281518110611813576118136138c2565b60200260200101519050600061183e82600001516020015183602001516123a290919063ffffffff16565b82516060015190915061185290829061240a565b61185c9085613b02565b93505050808061186b906138ee565b9150506117f1565b50919050565b6000806118ae7f00000000000000000000000000000000000000000000000000000000000000006001600160a01b031661242b565b905080837f00000000000000000000000000000000000000000000000000000000000000006001600160a01b03166318160ddd6040518163ffffffff1660e01b8152600401602060405180830381865afa158015611910573d6000803e3d6000fd5b505050506040513d601f19601f820116820180604052508101906119349190613a35565b61193e9190613b02565b111561194e5760019150506112f3565b60006119836001600160a01b037f000000000000000000000000000000000000000000000000000000000000000016866124b6565b905060006119ba6001600160a01b037f00000000000000000000000000000000000000000000000000000000000000001683612641565b6040516370a0823160e01b81526001600160a01b038881166004830152919250829187917f0000000000000000000000000000000000000000000000000000000000000000909116906370a0823190602401602060405180830381865afa158015611a29573d6000803e3d6000fd5b505050506040513d601f19601f82011682018060405250810190611a4d9190613a35565b611a579190613b02565b119695505050505050565b60408051808201909152606081526000602082015260006040518060400160405280868690506001600160401b03811115611a9f57611a9f613393565b604051908082528060200260200182016040528015611ad857816020015b611ac5613049565b815260200190600190039081611abd5790505b5081526020016000151581525090506000805b85811015611b7d5736878783818110611b0657611b066138c2565b9050608002019050600080611b1c838c8a612758565b9092509050611b2f604084013586613b02565b945060405180604001604052808281526020018381525086600001518581518110611b5c57611b5c6138c2565b60200260200101819052505050508080611b75906138ee565b915050611aeb565b50604080518082019091526002815261333160f01b6020820152670de0b6b3a76400008214611bbf5760405162461bcd60e51b815260040161028c9190613380565b50909695505050505050565b606080836001600160401b03811115611be657611be6613393565b604051908082528060200260200182016040528015611c0f578160200160208202803683370190505b50915060005b84811015611ce35736868683818110611c3057611c306138c2565b90506080020190506000611c5a8660000151836060016020810190611c559190613363565b612855565b90506000611c6883836128cc565b805190965090915015611c7e57505050506109f6565b8260200135811015611cae5750506040805180820190915260018152601960f91b602082015292506109f6915050565b80868581518110611cc157611cc16138c2565b6020026020010181815250505050508080611cdb906138ee565b915050611c15565b50935093915050565b6060826001600160401b03811115611d0657611d06613393565b604051908082528060200260200182016040528015611d2f578160200160208202803683370190505b50905060005b838110156115d3576000858583818110611d5157611d516138c2565b905060800201803603810190611d679190613b1a565b90506000611d7d85600001518360600151612855565b90506000611d8b8383612b0c565b90508260200151811015604051806040016040528060018152602001601960f91b81525090611dcd5760405162461bcd60e51b815260040161028c9190613380565b5080858581518110611de157611de16138c2565b60209081029190910101528251611e02906001600160a01b03163383611778565b5050508080611e10906138ee565b915050611d35565b606080826001600160401b03811115611e3357611e33613393565b604051908082528060200260200182016040528015611e7857816020015b6040805180820190915260008082526020820152815260200190600190039081611e515790505b50915060005b83811015611f235736858583818110611e9957611e996138c2565b90506060020190506000611eac82612cee565b805190955090915015611ec157505050611f25565b6040518060400160405280836040016020810190611edf9190613363565b6001600160a01b0316815260200182815250858481518110611f0357611f036138c2565b602002602001018190525050508080611f1b906138ee565b915050611e7e565b505b9250929050565b600080546001600160a01b0319166001600160a01b03831690811782556040805192835260208301919091527fde4b3f61490b74c0ed6237523974fe299126bbbf8a8a7482fd220104c59b0c8491016102f5565b6000611fd5826040518060400160405280602081526020017f5361666545524332303a206c6f772d6c6576656c2063616c6c206661696c6564815250856001600160a01b03166114c99092919063ffffffff16565b8051909150156114c45780806020019051810190611ff39190613b8e565b6114c45760405162461bcd60e51b815260206004820152602a60248201527f5361666545524332303a204552433230206f7065726174696f6e20646964206e6044820152691bdd081cdd58d8d9595960b21b606482015260840161028c565b6060824710156120b35760405162461bcd60e51b815260206004820152602660248201527f416464726573733a20696e73756666696369656e742062616c616e636520666f6044820152651c8818d85b1b60d21b606482015260840161028c565b843b6121015760405162461bcd60e51b815260206004820152601d60248201527f416464726573733a2063616c6c20746f206e6f6e2d636f6e7472616374000000604482015260640161028c565b600080866001600160a01b0316858760405161211d9190613ba9565b60006040518083038185875af1925050503d806000811461215a576040519150601f19603f3d011682016040523d82523d6000602084013e61215f565b606091505b509150915061216f828286612e81565b979650505050505050565b60008061218d6060840160408501613363565b90506121b63330602086018035906121a59088613363565b6001600160a01b0316929190612eba565b6001600160a01b0381166121cd6020850185613363565b6001600160a01b031614156121e55750506020013590565b6000816001600160a01b0316636f307dc36040518163ffffffff1660e01b8152600401602060405180830381865afa158015612225573d6000803e3d6000fd5b505050506040513d601f19601f820116820180604052508101906122499190613ae5565b90506001600160a01b0381166122626020860186613363565b6001600160a01b03161460405180604001604052806002815260200161333560f01b815250906122a55760405162461bcd60e51b815260040161028c9190613380565b506122be6001600160a01b038216836020870135612ef8565b604051631c57762b60e31b815260208501356004820152600060248201526001600160a01b0383169063e2bbb158906044016020604051808303816000875af115801561230f573d6000803e3d6000fd5b505050506040513d601f19601f820116820180604052508101906114d89190613a35565b600080805b83518110156115d3576000848281518110612355576123556138c2565b60200260200101519050856001600160a01b031681600001516001600160a01b0316141561238f57602081015161238c9084613b02565b92505b508061239a816138ee565b915050612338565b600060ff8216601214156123b75750816112f3565b601260ff831611156123ea576123ce601283613bc5565b6123d990600a613cc4565b6123e39084613cd3565b90506112f3565b6123f5826012613bc5565b61240090600a613cc4565b6123e39084613cf5565b6000806124178385613cf5565b90506114d8670de0b6b3a764000082613cd3565b60405163e964da1560e01b81527404759445f474c4f42414c5f535550504c595f43415605c1b600482015260001960248201526000906001600160a01b0383169063e964da1590604401602060405180830381865afa158015612492573d6000803e3d6000fd5b505050506040513d601f19601f820116820180604052508101906112f39190613a35565b60405163696eb37560e01b81527f4341505f41555448454e5449434154494f4e5f4144445245535300000000000060048201526000906001600160a01b0384169063696eb37590602401602060405180830381865afa15801561251d573d6000803e3d6000fd5b505050506040513d601f19601f820116820180604052508101906125419190613b8e565b61254d575060006112f3565b6040516321f8a72160e01b81527f4341505f41555448454e5449434154494f4e5f4144445245535300000000000060048201526001600160a01b038416906321f8a72190602401602060405180830381865afa1580156125b1573d6000803e3d6000fd5b505050506040513d601f19601f820116820180604052508101906125d59190613ae5565b604051630d15d41560e41b81526001600160a01b038481166004830152919091169063d15d415090602401602060405180830381865afa15801561261d573d6000803e3d6000fd5b505050506040513d601f19601f82011682018060405250810190610cfa9190613b8e565b600081156126d95760405163e964da1560e01b81527f4759445f41555448454e544943415445445f555345525f434150000000000000600482015260001960248201526001600160a01b0384169063e964da1590604401602060405180830381865afa1580156126b5573d6000803e3d6000fd5b505050506040513d601f19601f820116820180604052508101906123e39190613a35565b60405163e964da1560e01b81526b04759445f555345525f4341560a41b600482015260001960248201526001600160a01b0384169063e964da1590604401602060405180830381865afa158015612734573d6000803e3d6000fd5b505050506040513d601f19601f82011682018060405250810190610cfa9190613a35565b6000612762613069565b60005b8351811015612824576000848281518110612782576127826138c2565b6020026020010151905080600001516001600160a01b03168760600160208101906127ad9190613363565b6001600160a01b031614156128115760006127cc8760408a013561240a565b905060006127e7836060015183612faa90919063ffffffff16565b9050600061280284602001518361301290919063ffffffff16565b96509294506109f69350505050565b508061281c816138ee565b915050612765565b506040805180820182526002815261333160f01b6020820152905162461bcd60e51b815261028c9190600401613380565b6000805b83518110156128c2576000848281518110612876576128766138c2565b60200260200101519050836001600160a01b03168160000151600001516001600160a01b031614156128af576020015191506112f39050565b50806128ba816138ee565b915050612859565b5060009392505050565b60006060816128e060808601868401613363565b90506001600160a01b0381166128f96020870187613363565b6001600160a01b03161415612921575050604080516020810190915260008152829150611f25565b806001600160a01b0316636f307dc36040518163ffffffff1660e01b8152600401602060405180830381865afa15801561295f573d6000803e3d6000fd5b505050506040513d601f19601f820116820180604052508101906129839190613ae5565b6001600160a01b03166129996020870187613363565b6001600160a01b0316146129cb575050604080518082019091526002815261333560f01b602082015260009150611f25565b6040516370a0823160e01b81526001600160a01b037f000000000000000000000000000000000000000000000000000000000000000081166004830152600091908316906370a0823190602401602060405180830381865afa158015612a35573d6000803e3d6000fd5b505050506040513d601f19601f82011682018060405250810190612a599190613a35565b905084811015612a8b576000604051806040016040528060028152602001610ccd60f21b815250935093505050611f25565b60405163cc04feff60e01b815260048101869052600060248201526001600160a01b0383169063cc04feff90604401600060405180830381865afa158015612ad7573d6000803e3d6000fd5b505050506040513d6000823e601f3d908101601f19168201604052612aff9190810190613d14565b9350935050509250929050565b60608201516040516313c5035360e31b81526001600160a01b03808316600483015260248201849052600092917f000000000000000000000000000000000000000000000000000000000000000090911690639e281a9890604401600060405180830381600087803b158015612b8157600080fd5b505af1158015612b95573d6000803e3d6000fd5b50505050806001600160a01b031684600001516001600160a01b03161415612bc057829150506112f3565b806001600160a01b0316636f307dc36040518163ffffffff1660e01b8152600401602060405180830381865afa158015612bfe573d6000803e3d6000fd5b505050506040513d601f19601f82011682018060405250810190612c229190613ae5565b6001600160a01b031684600001516001600160a01b03161460405180604001604052806002815260200161333560f01b81525090612c735760405162461bcd60e51b815260040161028c9190613380565b50604051630441a3e760e41b815260048101849052600060248201526001600160a01b0382169063441a3e70906044016020604051808303816000875af1158015612cc2573d6000803e3d6000fd5b505050506040513d601f19601f82011682018060405250810190612ce69190613a35565b9150506112f3565b60006060612d0183820160408501613363565b6001600160a01b0316612d176020850185613363565b6001600160a01b03161415612d3e5750506040805160208181019092526000815291013591565b6000612d506060850160408601613363565b9050806001600160a01b0316636f307dc36040518163ffffffff1660e01b8152600401602060405180830381865afa158015612d90573d6000803e3d6000fd5b505050506040513d601f19601f82011682018060405250810190612db49190613ae5565b6001600160a01b0316612dca6020860186613363565b6001600160a01b03161415612e5a57604051632a8695b160e11b815260208501356004820152600060248201526001600160a01b0382169063550d2b6290604401600060405180830381865afa158015612e28573d6000803e3d6000fd5b505050506040513d6000823e601f3d908101601f19168201604052612e509190810190613d14565b9250925050915091565b600060405180604001604052806002815260200161333560f01b8152509250925050915091565b60608315612e90575081610cfa565b825115612ea05782518084602001fd5b8160405162461bcd60e51b815260040161028c9190613380565b6040516001600160a01b0380851660248301528316604482015260648101829052612ef29085906323b872dd60e01b9060840161148d565b50505050565b604051636eb1769f60e11b81523060048201526001600160a01b038381166024830152600091839186169063dd62ed3e90604401602060405180830381865afa158015612f49573d6000803e3d6000fd5b505050506040513d601f19601f82011682018060405250810190612f6d9190613a35565b612f779190613b02565b6040516001600160a01b038516602482015260448101829052909150612ef290859063095ea7b360e01b9060640161148d565b604080518082019091526002815261323560f01b602082015260009082612fe45760405162461bcd60e51b815260040161028c9190613380565b5082612ff2575060006112f3565b6000613006670de0b6b3a764000085613cf5565b9050612ce68382613cd3565b600060ff8216601214156130275750816112f3565b601260ff8316111561303e576123f5601283613bc5565b6123ce826012613bc5565b604051806040016040528061305c613069565b8152602001600081525090565b60405180610120016040528060006001600160a01b03168152602001600060ff16815260200160006001600160a01b03168152602001600081526020016130d16040518060800160405280600081526020016000815260200160008152602001600081525090565b8152602001600081526020016000815260200160008152602001606081525090565b60008083601f84011261310557600080fd5b5081356001600160401b0381111561311c57600080fd5b602083019150836020606083028501011115611f2557600080fd5b60008060006040848603121561314c57600080fd5b83356001600160401b0381111561316257600080fd5b61316e868287016130f3565b909790965060209590950135949350505050565b60008060006040848603121561319757600080fd5b8335925060208401356001600160401b03808211156131b557600080fd5b818601915086601f8301126131c957600080fd5b8135818111156131d857600080fd5b8760208260071b85010111156131ed57600080fd5b6020830194508093505050509250925092565b600081518084526020808501945080840160005b8381101561323057815187529582019590820190600101613214565b509495945050505050565b60005b8381101561325657818101518382015260200161323e565b83811115612ef25750506000910152565b6000815180845261327f81602086016020860161323b565b601f01601f19169290920160200192915050565b6040815260006132a66040830185613200565b82810360208401526132b88185613267565b95945050505050565b602081526000610cfa6020830184613200565b6001600160a01b03811681146132e957600080fd5b50565b6000806000806060858703121561330257600080fd5b84356001600160401b0381111561331857600080fd5b613324878288016130f3565b90955093505060208501359150604085013561333f816132d4565b939692955090935050565b8281526040602082015260006114d86040830184613267565b60006020828403121561337557600080fd5b8135610cfa816132d4565b602081526000610cfa6020830184613267565b634e487b7160e01b600052604160045260246000fd5b604051606081016001600160401b03811182821017156133cb576133cb613393565b60405290565b60405161012081016001600160401b03811182821017156133cb576133cb613393565b604080519081016001600160401b03811182821017156133cb576133cb613393565b604051601f8201601f191681016001600160401b038111828210171561343e5761343e613393565b604052919050565b60006001600160401b0382111561345f5761345f613393565b5060051b60200190565b8051613474816132d4565b919050565b805160ff8116811461347457600080fd5b60006080828403121561349c57600080fd5b604051608081018181106001600160401b03821117156134be576134be613393565b8060405250809150825181526020830151602082015260408301516040820152606083015160608201525092915050565b8051801515811461347457600080fd5b600082601f83011261351057600080fd5b8151602061352561352083613446565b613416565b8281526060928302850182019282820191908785111561354457600080fd5b8387015b8581101561359b5781818a0312156135605760008081fd5b6135686133a9565b8151613573816132d4565b81526135808287016134ef565b81870152604082810151908201528452928401928101613548565b5090979650505050505050565b600061018082840312156135bb57600080fd5b6135c36133d1565b90506135ce82613469565b81526135dc60208301613479565b60208201526135ed60408301613469565b604082015260608201516060820152613609836080840161348a565b60808201526101008083015160a083015261012083015160c083015261014083015160e08301526101608301516001600160401b0381111561364a57600080fd5b613656858286016134ff565b82840152505092915050565b6000602080838503121561367557600080fd5b82516001600160401b038082111561368c57600080fd5b90840190604082870312156136a057600080fd5b6136a86133f4565b8251815283830151828111156136bd57600080fd5b80840193505086601f8401126136d257600080fd5b82516136e061352082613446565b81815260059190911b840185019085810190898311156136ff57600080fd5b8686015b838110156137375780518681111561371b5760008081fd5b6137298c8a838b01016135a8565b845250918701918701613703565b5095830195909552509695505050505050565b600081518084526020808501945080840160005b8381101561323057815180516001600160a01b0316885283810151151584890152604090810151908801526060909601959082019060010161375e565b600060208083526060808401855160408085880152828251808552608094508489019150848160051b8a0101878501945060005b828110156138a757607f198b83030184528551805186845280516001600160a01b03908116888601528b82015160ff168b8601528782015116898501528981015160a08086019190915289820151805160c080880191909152602082015160e08801526040820151610100880152606082015161012088015290918301516101408701528201516101608601525060e081015161018080860191909152610100909101516101a085019190915261388a6101c085018261374a565b918b0151938b0193909352958901959389019391506001016137cf565b50968a0151801515848b0152969a9950505050505050505050565b634e487b7160e01b600052603260045260246000fd5b634e487b7160e01b600052601160045260246000fd5b6000600019821415613902576139026138d8565b5060010190565b6000602080838503121561391c57600080fd5b82516001600160401b038082111561393357600080fd5b908401906040828703121561394757600080fd5b61394f6133f4565b82518281111561395e57600080fd5b8301601f8101881361396f57600080fd5b805161397d61352082613446565b81815260059190911b8201860190868101908a83111561399c57600080fd5b8784015b83811015613a12578051878111156139b85760008081fd5b85016040818e03601f190112156139cf5760008081fd5b6139d76133f4565b8a820151898111156139e95760008081fd5b6139f78f8d838601016135a8565b825250604091909101518a82015283529188019188016139a0565b50845250613a249150508385016134ef565b848201528094505050505092915050565b600060208284031215613a4757600080fd5b5051919050565b600082601f830112613a5f57600080fd5b81516001600160401b03811115613a7857613a78613393565b613a8b601f8201601f1916602001613416565b818152846020838601011115613aa057600080fd5b6114d882602083016020870161323b565b600060208284031215613ac357600080fd5b81516001600160401b03811115613ad957600080fd5b6114d884828501613a4e565b600060208284031215613af757600080fd5b8151610cfa816132d4565b60008219821115613b1557613b156138d8565b500190565b600060808284031215613b2c57600080fd5b604051608081018181106001600160401b0382111715613b4e57613b4e613393565b6040528235613b5c816132d4565b8082525060208301356020820152604083013560408201526060830135613b82816132d4565b60608201529392505050565b600060208284031215613ba057600080fd5b610cfa826134ef565b60008251613bbb81846020870161323b565b9190910192915050565b600060ff821660ff841680821015613bdf57613bdf6138d8565b90039392505050565b600181815b80851115611f23578160001904821115613c0957613c096138d8565b80851615613c1657918102915b93841c9390800290613bed565b600082613c32575060016112f3565b81613c3f575060006112f3565b8160018114613c555760028114613c5f57613c7b565b60019150506112f3565b60ff841115613c7057613c706138d8565b50506001821b6112f3565b5060208310610133831016604e8410600b8410161715613c9e575081810a6112f3565b613ca88383613be8565b8060001904821115613cbc57613cbc6138d8565b029392505050565b6000610cfa60ff841683613c23565b600082613cf057634e487b7160e01b600052601260045260246000fd5b500490565b6000816000190483118215151615613d0f57613d0f6138d8565b500290565b60008060408385031215613d2757600080fd5b8251915060208301516001600160401b03811115613d4457600080fd5b613d5085828601613a4e565b915050925092905056fea26469706673582212201de31ac4216766aec370b48ee5b06083390d79b5006253ded6fd5e5216315d1f64736f6c634300080a0033","bytecodeSha1":"e345cbbc72deb03a7e05a49b53988c99dd89241a","compiler":{"evm_version":"london","optimizer":{"enabled":true,"runs":200},"version":"0.8.10+commit.fc410830"},"contractName":"Motherboard","language":"Solidity","natspec":{"kind":"dev","methods":{"acceptGovernance()":{"notice":"Called by the pending governor to approve the change"},"changeGovernor(address)":{"notice":"Changes the governor can only be called by the current governor"},"dryMint((address,uint256,address)[],uint256,address)":{"notice":"Simulates a mint to know whether it would succeed and how much would be minted The parameters are the same as the `mint` function","params":{"account":"the account that wants to mint","assets":"the assets and associated amounts used to mint GYD","minReceivedAmount":"the minimum amount of GYD to be minted"},"returns":{"err":"a non-empty error message in case an error would happen when minting","mintedGYDAmount":"the amount that would be minted, or 0 if it an error would occur"}},"dryRedeem(uint256,(address,uint256,uint256,address)[])":{"notice":"Dry version of the `redeem` function exact outputs as specified by `tokens` and `amounts`","params":{"assets":"the output tokens and associated amounts to return against GYD","gydToRedeem":"the maximum amount of GYD to redeem"},"returns":{"err":"a non-empty error message in case an error would happen when redeeming","outputAmounts":"the amounts receivd against the redeemed GYD"}},"governor()":{"notice":"Returns the current governor"},"gyroConfig()":{"notice":"Returns the address of the global configuration"},"mint((address,uint256,address)[],uint256)":{"notice":"Main minting function to be called by a depositor This mints using the exact input amount and mints at least `minMintedAmount` All the `inputTokens` should be approved for the motherboard to spend at least `inputAmounts` on behalf of the sender","params":{"assets":"the assets and associated amounts used to mint GYD","minReceivedAmount":"the minimum amount of GYD to be minted"},"returns":{"mintedGYDAmount":"GYD token minted amount"}},"pamm()":{"notice":"Returns the address for the PAMM","returns":{"_0":"the PAMM address"}},"pendingGovernor()":{"notice":"Returns the pending governor"},"redeem(uint256,(address,uint256,uint256,address)[])":{"notice":"Main redemption function to be called by a withdrawer This redeems using at most `maxRedeemedAmount` of GYD and returns the exact outputs as specified by `tokens` and `amounts`","params":{"assets":"the output tokens and associated amounts to return against GYD","gydToRedeem":"the maximum amount of GYD to redeem"},"returns":{"_0":"the amounts receivd against the redeemed GYD"}},"reserve()":{"notice":"Returns the address for the reserve"}},"stateVariables":{"gydToken":{"details":"The GYD token is not upgradable so this will always return the same value","return":"the address of the GYD token","returns":{"_0":"the address of the GYD token"}},"gyroConfig":{"return":"the global configuration address","returns":{"_0":"the global configuration address"}},"reserve":{"return":"the address of the reserve","returns":{"_0":"the address of the reserve"}}},"title":"MotherBoard is the central contract connecting the different pieces of the Gyro protocol","version":1},"opcodes":"PUSH1 0x80 PUSH1 0x40 MSTORE CALLVALUE DUP1 ISZERO PUSH2 0x10 JUMPI PUSH1 0x0 DUP1 REVERT JUMPDEST POP PUSH1 0x4 CALLDATASIZE LT PUSH2 0xCF JUMPI PUSH1 0x0 CALLDATALOAD PUSH1 0xE0 SHR DUP1 PUSH4 0x56529403 GT PUSH2 0x8C JUMPI DUP1 PUSH4 0xCD3293DE GT PUSH2 0x66 JUMPI DUP1 PUSH4 0xCD3293DE EQ PUSH2 0x1D3 JUMPI DUP1 PUSH4 0xE3056A34 EQ PUSH2 0x1FA JUMPI DUP1 PUSH4 0xE4C0AAF4 EQ PUSH2 0x20D JUMPI DUP1 PUSH4 0xFBF60028 EQ PUSH2 0x220 JUMPI PUSH1 0x0 DUP1 REVERT JUMPDEST DUP1 PUSH4 0x56529403 EQ PUSH2 0x197 JUMPI DUP1 PUSH4 0x85B0C781 EQ PUSH2 0x1B8 JUMPI DUP1 PUSH4 0xC4D66DE8 EQ PUSH2 0x1C0 JUMPI PUSH1 0x0 DUP1 REVERT JUMPDEST DUP1 PUSH4 0xC340A24 EQ PUSH2 0xD4 JUMPI DUP1 PUSH4 0x238EFCBC EQ PUSH2 0x104 JUMPI DUP1 PUSH4 0x2799C6CF EQ PUSH2 0x10E JUMPI DUP1 PUSH4 0x44BBDB55 EQ PUSH2 0x12F JUMPI DUP1 PUSH4 0x4D8CA4C5 EQ PUSH2 0x156 JUMPI DUP1 PUSH4 0x4E4D822A EQ PUSH2 0x177 JUMPI JUMPDEST PUSH1 0x0 DUP1 REVERT JUMPDEST PUSH1 0x0 SLOAD PUSH2 0xE7 SWAP1 PUSH1 0x1 PUSH1 0x1 PUSH1 0xA0 SHL SUB AND DUP2 JUMP JUMPDEST PUSH1 0x40 MLOAD PUSH1 0x1 PUSH1 0x1 PUSH1 0xA0 SHL SUB SWAP1 SWAP2 AND DUP2 MSTORE PUSH1 0x20 ADD JUMPDEST PUSH1 0x40 MLOAD DUP1 SWAP2 SUB SWAP1 RETURN JUMPDEST PUSH2 0x10C PUSH2 0x247 JUMP JUMPDEST STOP JUMPDEST PUSH2 0x121 PUSH2 0x11C CALLDATASIZE PUSH1 0x4 PUSH2 0x3137 JUMP JUMPDEST PUSH2 0x300 JUMP JUMPDEST PUSH1 0x40 MLOAD SWAP1 DUP2 MSTORE PUSH1 0x20 ADD PUSH2 0xFB JUMP JUMPDEST PUSH2 0xE7 PUSH32 0x0 DUP2 JUMP JUMPDEST PUSH2 0x169 PUSH2 0x164 CALLDATASIZE PUSH1 0x4 PUSH2 0x3182 JUMP JUMPDEST PUSH2 0x711 JUMP JUMPDEST PUSH1 0x40 MLOAD PUSH2 0xFB SWAP3 SWAP2 SWAP1 PUSH2 0x3293 JUMP JUMPDEST PUSH2 0x18A PUSH2 0x185 CALLDATASIZE PUSH1 0x4 PUSH2 0x3182 JUMP JUMPDEST PUSH2 0x9FE JUMP JUMPDEST PUSH1 0x40 MLOAD PUSH2 0xFB SWAP2 SWAP1 PUSH2 0x32C1 JUMP JUMPDEST PUSH2 0x1AA PUSH2 0x1A5 CALLDATASIZE PUSH1 0x4 PUSH2 0x32EC JUMP JUMPDEST PUSH2 0xD01 JUMP JUMPDEST PUSH1 0x40 MLOAD PUSH2 0xFB SWAP3 SWAP2 SWAP1 PUSH2 0x334A JUMP JUMPDEST PUSH2 0xE7 PUSH2 0x102F JUMP JUMPDEST PUSH2 0x10C PUSH2 0x1CE CALLDATASIZE PUSH1 0x4 PUSH2 0x3363 JUMP JUMPDEST PUSH2 0x10CE JUMP JUMPDEST PUSH2 0xE7 PUSH32 0x0 DUP2 JUMP JUMPDEST PUSH1 0x1 SLOAD PUSH2 0xE7 SWAP1 PUSH1 0x1 PUSH1 0x1 PUSH1 0xA0 SHL SUB AND DUP2 JUMP JUMPDEST PUSH2 0x10C PUSH2 0x21B CALLDATASIZE PUSH1 0x4 PUSH2 0x3363 JUMP JUMPDEST PUSH2 0x119E JUMP JUMPDEST PUSH2 0xE7 PUSH32 0x0 DUP2 JUMP JUMPDEST PUSH1 0x1 SLOAD PUSH1 0x40 DUP1 MLOAD DUP1 DUP3 ADD SWAP1 SWAP2 MSTORE PUSH1 0x2 DUP2 MSTORE PUSH2 0x333 PUSH1 0xF4 SHL PUSH1 0x20 DUP3 ADD MSTORE SWAP1 PUSH1 0x1 PUSH1 0x1 PUSH1 0xA0 SHL SUB AND CALLER EQ PUSH2 0x295 JUMPI PUSH1 0x40 MLOAD PUSH3 0x461BCD PUSH1 0xE5 SHL DUP2 MSTORE PUSH1 0x4 ADD PUSH2 0x28C SWAP2 SWAP1 PUSH2 0x3380 JUMP JUMPDEST PUSH1 0x40 MLOAD DUP1 SWAP2 SUB SWAP1 REVERT JUMPDEST POP PUSH1 0x0 DUP1 SLOAD PUSH1 0x1 DUP1 SLOAD PUSH1 0x1 PUSH1 0x1 PUSH1 0xA0 SHL SUB NOT DUP1 DUP5 AND PUSH1 0x1 PUSH1 0x1 PUSH1 0xA0 SHL SUB DUP1 DUP5 AND SWAP2 SWAP1 SWAP2 OR SWAP1 SWAP6 SSTORE AND SWAP1 SSTORE PUSH1 0x40 DUP1 MLOAD SWAP3 SWAP1 SWAP2 AND DUP1 DUP4 MSTORE CALLER PUSH1 0x20 DUP5 ADD MSTORE SWAP2 PUSH32 0xDE4B3F61490B74C0ED6237523974FE299126BBBF8A8A7482FD220104C59B0C84 SWAP2 ADD JUMPDEST PUSH1 0x40 MLOAD DUP1 SWAP2 SUB SWAP1 LOG1 POP JUMP JUMPDEST PUSH1 0x0 DUP1 PUSH2 0x30D DUP6 DUP6 PUSH2 0x14E0 JUMP JUMPDEST SWAP1 POP PUSH1 0x0 PUSH2 0x343 PUSH32 0x0 PUSH1 0x1 PUSH1 0x1 PUSH1 0xA0 SHL SUB AND PUSH2 0x15DB JUMP JUMPDEST PUSH1 0x1 PUSH1 0x1 PUSH1 0xA0 SHL SUB AND PUSH4 0xEF5BAC25 PUSH1 0x40 MLOAD DUP2 PUSH4 0xFFFFFFFF AND PUSH1 0xE0 SHL DUP2 MSTORE PUSH1 0x4 ADD PUSH1 0x0 PUSH1 0x40 MLOAD DUP1 DUP4 SUB DUP2 DUP7 GAS STATICCALL ISZERO DUP1 ISZERO PUSH2 0x380 JUMPI RETURNDATASIZE PUSH1 0x0 DUP1 RETURNDATACOPY RETURNDATASIZE PUSH1 0x0 REVERT JUMPDEST POP POP POP POP PUSH1 0x40 MLOAD RETURNDATASIZE PUSH1 0x0 DUP3 RETURNDATACOPY PUSH1 0x1F RETURNDATASIZE SWAP1 DUP2 ADD PUSH1 0x1F NOT AND DUP3 ADD PUSH1 0x40 MSTORE PUSH2 0x3A8 SWAP2 SWAP1 DUP2 ADD SWAP1 PUSH2 0x3662 JUMP JUMPDEST SWAP1 POP PUSH1 0x0 PUSH2 0x3BA DUP4 DUP4 PUSH1 0x20 ADD MLOAD PUSH2 0x162A JUMP JUMPDEST SWAP1 POP PUSH2 0x3EE PUSH32 0x0 PUSH1 0x1 PUSH1 0x1 PUSH1 0xA0 SHL SUB AND PUSH2 0x1729 JUMP JUMPDEST PUSH1 0x1 PUSH1 0x1 PUSH1 0xA0 SHL SUB AND PUSH4 0xD625436C DUP3 PUSH1 0x40 MLOAD DUP3 PUSH4 0xFFFFFFFF AND PUSH1 0xE0 SHL DUP2 MSTORE PUSH1 0x4 ADD PUSH2 0x419 SWAP2 SWAP1 PUSH2 0x379B JUMP JUMPDEST PUSH1 0x0 PUSH1 0x40 MLOAD DUP1 DUP4 SUB DUP2 PUSH1 0x0 DUP8 DUP1 EXTCODESIZE ISZERO DUP1 ISZERO PUSH2 0x433 JUMPI PUSH1 0x0 DUP1 REVERT JUMPDEST POP GAS CALL ISZERO DUP1 ISZERO PUSH2 0x447 JUMPI RETURNDATASIZE PUSH1 0x0 DUP1 RETURNDATACOPY RETURNDATASIZE PUSH1 0x0 REVERT JUMPDEST POP POP POP POP PUSH1 0x0 JUMPDEST DUP4 MLOAD DUP2 LT ISZERO PUSH2 0x4CE JUMPI PUSH1 0x0 DUP5 DUP3 DUP2 MLOAD DUP2 LT PUSH2 0x46B JUMPI PUSH2 0x46B PUSH2 0x38C2 JUMP JUMPDEST PUSH1 0x20 MUL PUSH1 0x20 ADD ADD MLOAD SWAP1 POP PUSH2 0x4BB PUSH32 0x0 DUP3 PUSH1 0x20 ADD MLOAD DUP4 PUSH1 0x0 ADD MLOAD PUSH1 0x1 PUSH1 0x1 PUSH1 0xA0 SHL SUB AND PUSH2 0x1778 SWAP1 SWAP3 SWAP2 SWAP1 PUSH4 0xFFFFFFFF AND JUMP JUMPDEST POP DUP1 PUSH2 0x4C6 DUP2 PUSH2 0x38EE JUMP JUMPDEST SWAP2 POP POP PUSH2 0x44E JUMP JUMPDEST POP PUSH1 0x0 PUSH2 0x503 PUSH32 0x0 PUSH1 0x1 PUSH1 0x1 PUSH1 0xA0 SHL SUB AND PUSH2 0x17A8 JUMP JUMPDEST PUSH1 0x1 PUSH1 0x1 PUSH1 0xA0 SHL SUB AND PUSH4 0xAA52E2B4 DUP4 PUSH1 0x40 MLOAD DUP3 PUSH4 0xFFFFFFFF AND PUSH1 0xE0 SHL DUP2 MSTORE PUSH1 0x4 ADD PUSH2 0x52E SWAP2 SWAP1 PUSH2 0x379B JUMP JUMPDEST PUSH1 0x0 PUSH1 0x40 MLOAD DUP1 DUP4 SUB DUP2 DUP7 GAS STATICCALL ISZERO DUP1 ISZERO PUSH2 0x54B JUMPI RETURNDATASIZE PUSH1 0x0 DUP1 RETURNDATACOPY RETURNDATASIZE PUSH1 0x0 REVERT JUMPDEST POP POP POP POP PUSH1 0x40 MLOAD RETURNDATASIZE PUSH1 0x0 DUP3 RETURNDATACOPY PUSH1 0x1F RETURNDATASIZE SWAP1 DUP2 ADD PUSH1 0x1F NOT AND DUP3 ADD PUSH1 0x40 MSTORE PUSH2 0x573 SWAP2 SWAP1 DUP2 ADD SWAP1 PUSH2 0x3909 JUMP JUMPDEST SWAP1 POP PUSH1 0x0 PUSH2 0x580 DUP3 PUSH2 0x17ED JUMP JUMPDEST SWAP1 POP PUSH2 0x58A PUSH2 0x102F JUMP JUMPDEST DUP5 MLOAD PUSH1 0x40 MLOAD PUSH4 0xD9778E5 PUSH1 0xE1 SHL DUP2 MSTORE PUSH1 0x4 DUP2 ADD DUP5 SWAP1 MSTORE PUSH1 0x24 DUP2 ADD SWAP2 SWAP1 SWAP2 MSTORE PUSH1 0x1 PUSH1 0x1 PUSH1 0xA0 SHL SUB SWAP2 SWAP1 SWAP2 AND SWAP1 PUSH4 0x1B2EF1CA SWAP1 PUSH1 0x44 ADD PUSH1 0x20 PUSH1 0x40 MLOAD DUP1 DUP4 SUB DUP2 PUSH1 0x0 DUP8 GAS CALL ISZERO DUP1 ISZERO PUSH2 0x5DD JUMPI RETURNDATASIZE PUSH1 0x0 DUP1 RETURNDATACOPY RETURNDATASIZE PUSH1 0x0 REVERT JUMPDEST POP POP POP POP PUSH1 0x40 MLOAD RETURNDATASIZE PUSH1 0x1F NOT PUSH1 0x1F DUP3 ADD AND DUP3 ADD DUP1 PUSH1 0x40 MSTORE POP DUP2 ADD SWAP1 PUSH2 0x601 SWAP2 SWAP1 PUSH2 0x3A35 JUMP JUMPDEST SWAP6 POP DUP7 DUP7 LT ISZERO PUSH1 0x40 MLOAD DUP1 PUSH1 0x40 ADD PUSH1 0x40 MSTORE DUP1 PUSH1 0x1 DUP2 MSTORE PUSH1 0x20 ADD PUSH1 0x19 PUSH1 0xF9 SHL DUP2 MSTORE POP SWAP1 PUSH2 0x63F JUMPI PUSH1 0x40 MLOAD PUSH3 0x461BCD PUSH1 0xE5 SHL DUP2 MSTORE PUSH1 0x4 ADD PUSH2 0x28C SWAP2 SWAP1 PUSH2 0x3380 JUMP JUMPDEST POP PUSH2 0x64A CALLER DUP8 PUSH2 0x1879 JUMP JUMPDEST ISZERO PUSH1 0x40 MLOAD DUP1 PUSH1 0x40 ADD PUSH1 0x40 MSTORE DUP1 PUSH1 0x2 DUP2 MSTORE PUSH1 0x20 ADD PUSH2 0xD8D PUSH1 0xF2 SHL DUP2 MSTORE POP SWAP1 PUSH2 0x684 JUMPI PUSH1 0x40 MLOAD PUSH3 0x461BCD PUSH1 0xE5 SHL DUP2 MSTORE PUSH1 0x4 ADD PUSH2 0x28C SWAP2 SWAP1 PUSH2 0x3380 JUMP JUMPDEST POP PUSH1 0x40 MLOAD PUSH4 0x40C10F19 PUSH1 0xE0 SHL DUP2 MSTORE CALLER PUSH1 0x4 DUP3 ADD MSTORE PUSH1 0x24 DUP2 ADD DUP8 SWAP1 MSTORE PUSH32 0x0 PUSH1 0x1 PUSH1 0x1 PUSH1 0xA0 SHL SUB AND SWAP1 PUSH4 0x40C10F19 SWAP1 PUSH1 0x44 ADD PUSH1 0x0 PUSH1 0x40 MLOAD DUP1 DUP4 SUB DUP2 PUSH1 0x0 DUP8 DUP1 EXTCODESIZE ISZERO DUP1 ISZERO PUSH2 0x6ED JUMPI PUSH1 0x0 DUP1 REVERT JUMPDEST POP GAS CALL ISZERO DUP1 ISZERO PUSH2 0x701 JUMPI RETURNDATASIZE PUSH1 0x0 DUP1 RETURNDATACOPY RETURNDATASIZE PUSH1 0x0 REVERT JUMPDEST POP POP POP POP POP POP POP POP POP SWAP4 SWAP3 POP POP POP JUMP JUMPDEST PUSH1 0x60 DUP1 DUP3 PUSH1 0x1 PUSH1 0x1 PUSH1 0x40 SHL SUB DUP2 GT ISZERO PUSH2 0x72C JUMPI PUSH2 0x72C PUSH2 0x3393 JUMP JUMPDEST PUSH1 0x40 MLOAD SWAP1 DUP1 DUP3 MSTORE DUP1 PUSH1 0x20 MUL PUSH1 0x20 ADD DUP3 ADD PUSH1 0x40 MSTORE DUP1 ISZERO PUSH2 0x755 JUMPI DUP2 PUSH1 0x20 ADD PUSH1 0x20 DUP3 MUL DUP1 CALLDATASIZE DUP4 CALLDATACOPY ADD SWAP1 POP JUMPDEST POP SWAP2 POP PUSH1 0x0 PUSH2 0x78C PUSH32 0x0 PUSH1 0x1 PUSH1 0x1 PUSH1 0xA0 SHL SUB AND PUSH2 0x15DB JUMP JUMPDEST PUSH1 0x1 PUSH1 0x1 PUSH1 0xA0 SHL SUB AND PUSH4 0xEF5BAC25 PUSH1 0x40 MLOAD DUP2 PUSH4 0xFFFFFFFF AND PUSH1 0xE0 SHL DUP2 MSTORE PUSH1 0x4 ADD PUSH1 0x0 PUSH1 0x40 MLOAD DUP1 DUP4 SUB DUP2 DUP7 GAS STATICCALL ISZERO DUP1 ISZERO PUSH2 0x7C9 JUMPI RETURNDATASIZE PUSH1 0x0 DUP1 RETURNDATACOPY RETURNDATASIZE PUSH1 0x0 REVERT JUMPDEST POP POP POP POP PUSH1 0x40 MLOAD RETURNDATASIZE PUSH1 0x0 DUP3 RETURNDATACOPY PUSH1 0x1F RETURNDATASIZE SWAP1 DUP2 ADD PUSH1 0x1F NOT AND DUP3 ADD PUSH1 0x40 MSTORE PUSH2 0x7F1 SWAP2 SWAP1 DUP2 ADD SWAP1 PUSH2 0x3662 JUMP JUMPDEST SWAP1 POP PUSH1 0x0 PUSH2 0x7FD PUSH2 0x102F JUMP JUMPDEST DUP3 MLOAD PUSH1 0x40 MLOAD PUSH4 0x1C76D8FB PUSH1 0xE2 SHL DUP2 MSTORE PUSH1 0x4 DUP2 ADD DUP11 SWAP1 MSTORE PUSH1 0x24 DUP2 ADD SWAP2 SWAP1 SWAP2 MSTORE PUSH1 0x1 PUSH1 0x1 PUSH1 0xA0 SHL SUB SWAP2 SWAP1 SWAP2 AND SWAP1 PUSH4 0x71DB63EC SWAP1 PUSH1 0x44 ADD PUSH1 0x20 PUSH1 0x40 MLOAD DUP1 DUP4 SUB DUP2 DUP7 GAS STATICCALL ISZERO DUP1 ISZERO PUSH2 0x84E JUMPI RETURNDATASIZE PUSH1 0x0 DUP1 RETURNDATACOPY RETURNDATASIZE PUSH1 0x0 REVERT JUMPDEST POP POP POP POP PUSH1 0x40 MLOAD RETURNDATASIZE PUSH1 0x1F NOT PUSH1 0x1F DUP3 ADD AND DUP3 ADD DUP1 PUSH1 0x40 MSTORE POP DUP2 ADD SWAP1 PUSH2 0x872 SWAP2 SWAP1 PUSH2 0x3A35 JUMP JUMPDEST SWAP1 POP PUSH1 0x0 PUSH2 0x886 DUP3 DUP9 DUP9 DUP7 PUSH1 0x20 ADD MLOAD PUSH2 0x1A62 JUMP JUMPDEST SWAP1 POP PUSH2 0x8BA PUSH32 0x0 PUSH1 0x1 PUSH1 0x1 PUSH1 0xA0 SHL SUB AND PUSH2 0x1729 JUMP JUMPDEST PUSH1 0x1 PUSH1 0x1 PUSH1 0xA0 SHL SUB AND PUSH4 0x6382B296 DUP3 PUSH1 0x40 MLOAD DUP3 PUSH4 0xFFFFFFFF AND PUSH1 0xE0 SHL DUP2 MSTORE PUSH1 0x4 ADD PUSH2 0x8E5 SWAP2 SWAP1 PUSH2 0x379B JUMP JUMPDEST PUSH1 0x0 PUSH1 0x40 MLOAD DUP1 DUP4 SUB DUP2 DUP7 GAS STATICCALL ISZERO DUP1 ISZERO PUSH2 0x902 JUMPI RETURNDATASIZE PUSH1 0x0 DUP1 RETURNDATACOPY RETURNDATASIZE PUSH1 0x0 REVERT JUMPDEST POP POP POP POP PUSH1 0x40 MLOAD RETURNDATASIZE PUSH1 0x0 DUP3 RETURNDATACOPY PUSH1 0x1F RETURNDATASIZE SWAP1 DUP2 ADD PUSH1 0x1F NOT AND DUP3 ADD PUSH1 0x40 MSTORE PUSH2 0x92A SWAP2 SWAP1 DUP2 ADD SWAP1 PUSH2 0x3AB1 JUMP JUMPDEST DUP1 MLOAD SWAP1 SWAP5 POP ISZERO PUSH2 0x93C JUMPI POP POP POP PUSH2 0x9F6 JUMP JUMPDEST PUSH1 0x0 PUSH2 0x970 PUSH32 0x0 PUSH1 0x1 PUSH1 0x1 PUSH1 0xA0 SHL SUB AND PUSH2 0x17A8 JUMP JUMPDEST PUSH1 0x1 PUSH1 0x1 PUSH1 0xA0 SHL SUB AND PUSH4 0xAA52E2B4 DUP4 PUSH1 0x40 MLOAD DUP3 PUSH4 0xFFFFFFFF AND PUSH1 0xE0 SHL DUP2 MSTORE PUSH1 0x4 ADD PUSH2 0x99B SWAP2 SWAP1 PUSH2 0x379B JUMP JUMPDEST PUSH1 0x0 PUSH1 0x40 MLOAD DUP1 DUP4 SUB DUP2 DUP7 GAS STATICCALL ISZERO DUP1 ISZERO PUSH2 0x9B8 JUMPI RETURNDATASIZE PUSH1 0x0 DUP1 RETURNDATACOPY RETURNDATASIZE PUSH1 0x0 REVERT JUMPDEST POP POP POP POP PUSH1 0x40 MLOAD RETURNDATASIZE PUSH1 0x0 DUP3 RETURNDATACOPY PUSH1 0x1F RETURNDATASIZE SWAP1 DUP2 ADD PUSH1 0x1F NOT AND DUP3 ADD PUSH1 0x40 MSTORE PUSH2 0x9E0 SWAP2 SWAP1 DUP2 ADD SWAP1 PUSH2 0x3909 JUMP JUMPDEST SWAP1 POP PUSH2 0x9ED DUP9 DUP9 DUP4 PUSH2 0x1BCB JUMP JUMPDEST SWAP6 POP SWAP6 POP POP POP POP POP JUMPDEST SWAP4 POP SWAP4 SWAP2 POP POP JUMP JUMPDEST PUSH1 0x40 MLOAD PUSH4 0x79CC679 PUSH1 0xE4 SHL DUP2 MSTORE CALLER PUSH1 0x4 DUP3 ADD MSTORE PUSH1 0x24 DUP2 ADD DUP5 SWAP1 MSTORE PUSH1 0x60 SWAP1 PUSH32 0x0 PUSH1 0x1 PUSH1 0x1 PUSH1 0xA0 SHL SUB AND SWAP1 PUSH4 0x79CC6790 SWAP1 PUSH1 0x44 ADD PUSH1 0x0 PUSH1 0x40 MLOAD DUP1 DUP4 SUB DUP2 PUSH1 0x0 DUP8 DUP1 EXTCODESIZE ISZERO DUP1 ISZERO PUSH2 0xA69 JUMPI PUSH1 0x0 DUP1 REVERT JUMPDEST POP GAS CALL ISZERO DUP1 ISZERO PUSH2 0xA7D JUMPI RETURNDATASIZE PUSH1 0x0 DUP1 RETURNDATACOPY RETURNDATASIZE PUSH1 0x0 REVERT JUMPDEST POP POP POP POP PUSH1 0x0 PUSH2 0xAB5 PUSH32 0x0 PUSH1 0x1 PUSH1 0x1 PUSH1 0xA0 SHL SUB AND PUSH2 0x15DB JUMP JUMPDEST PUSH1 0x1 PUSH1 0x1 PUSH1 0xA0 SHL SUB AND PUSH4 0xEF5BAC25 PUSH1 0x40 MLOAD DUP2 PUSH4 0xFFFFFFFF AND PUSH1 0xE0 SHL DUP2 MSTORE PUSH1 0x4 ADD PUSH1 0x0 PUSH1 0x40 MLOAD DUP1 DUP4 SUB DUP2 DUP7 GAS STATICCALL ISZERO DUP1 ISZERO PUSH2 0xAF2 JUMPI RETURNDATASIZE PUSH1 0x0 DUP1 RETURNDATACOPY RETURNDATASIZE PUSH1 0x0 REVERT JUMPDEST POP POP POP POP PUSH1 0x40 MLOAD RETURNDATASIZE PUSH1 0x0 DUP3 RETURNDATACOPY PUSH1 0x1F RETURNDATASIZE SWAP1 DUP2 ADD PUSH1 0x1F NOT AND DUP3 ADD PUSH1 0x40 MSTORE PUSH2 0xB1A SWAP2 SWAP1 DUP2 ADD SWAP1 PUSH2 0x3662 JUMP JUMPDEST SWAP1 POP PUSH1 0x0 PUSH2 0xB26 PUSH2 0x102F JUMP JUMPDEST DUP3 MLOAD PUSH1 0x40 MLOAD PUSH4 0x7CBC2373 PUSH1 0xE0 SHL DUP2 MSTORE PUSH1 0x4 DUP2 ADD DUP10 SWAP1 MSTORE PUSH1 0x24 DUP2 ADD SWAP2 SWAP1 SWAP2 MSTORE PUSH1 0x1 PUSH1 0x1 PUSH1 0xA0 SHL SUB SWAP2 SWAP1 SWAP2 AND SWAP1 PUSH4 0x7CBC2373 SWAP1 PUSH1 0x44 ADD PUSH1 0x20 PUSH1 0x40 MLOAD DUP1 DUP4 SUB DUP2 PUSH1 0x0 DUP8 GAS CALL ISZERO DUP1 ISZERO PUSH2 0xB79 JUMPI RETURNDATASIZE PUSH1 0x0 DUP1 RETURNDATACOPY RETURNDATASIZE PUSH1 0x0 REVERT JUMPDEST POP POP POP POP PUSH1 0x40 MLOAD RETURNDATASIZE PUSH1 0x1F NOT PUSH1 0x1F DUP3 ADD AND DUP3 ADD DUP1 PUSH1 0x40 MSTORE POP DUP2 ADD SWAP1 PUSH2 0xB9D SWAP2 SWAP1 PUSH2 0x3A35 JUMP JUMPDEST SWAP1 POP PUSH1 0x0 PUSH2 0xBB1 DUP3 DUP8 DUP8 DUP7 PUSH1 0x20 ADD MLOAD PUSH2 0x1A62 JUMP JUMPDEST SWAP1 POP PUSH2 0xBE5 PUSH32 0x0 PUSH1 0x1 PUSH1 0x1 PUSH1 0xA0 SHL SUB AND PUSH2 0x1729 JUMP JUMPDEST PUSH1 0x1 PUSH1 0x1 PUSH1 0xA0 SHL SUB AND PUSH4 0xA0763820 DUP3 PUSH1 0x40 MLOAD DUP3 PUSH4 0xFFFFFFFF AND PUSH1 0xE0 SHL DUP2 MSTORE PUSH1 0x4 ADD PUSH2 0xC10 SWAP2 SWAP1 PUSH2 0x379B JUMP JUMPDEST PUSH1 0x0 PUSH1 0x40 MLOAD DUP1 DUP4 SUB DUP2 PUSH1 0x0 DUP8 DUP1 EXTCODESIZE ISZERO DUP1 ISZERO PUSH2 0xC2A JUMPI PUSH1 0x0 DUP1 REVERT JUMPDEST POP GAS CALL ISZERO DUP1 ISZERO PUSH2 0xC3E JUMPI RETURNDATASIZE PUSH1 0x0 DUP1 RETURNDATACOPY RETURNDATASIZE PUSH1 0x0 REVERT JUMPDEST POP POP POP POP PUSH1 0x0 PUSH2 0xC76 PUSH32 0x0 PUSH1 0x1 PUSH1 0x1 PUSH1 0xA0 SHL SUB AND PUSH2 0x17A8 JUMP JUMPDEST PUSH1 0x1 PUSH1 0x1 PUSH1 0xA0 SHL SUB AND PUSH4 0xAA52E2B4 DUP4 PUSH1 0x40 MLOAD DUP3 PUSH4 0xFFFFFFFF AND PUSH1 0xE0 SHL DUP2 MSTORE PUSH1 0x4 ADD PUSH2 0xCA1 SWAP2 SWAP1 PUSH2 0x379B JUMP JUMPDEST PUSH1 0x0 PUSH1 0x40 MLOAD DUP1 DUP4 SUB DUP2 DUP7 GAS STATICCALL ISZERO DUP1 ISZERO PUSH2 0xCBE JUMPI RETURNDATASIZE PUSH1 0x0 DUP1 RETURNDATACOPY RETURNDATASIZE PUSH1 0x0 REVERT JUMPDEST POP POP POP POP PUSH1 0x40 MLOAD RETURNDATASIZE PUSH1 0x0 DUP3 RETURNDATACOPY PUSH1 0x1F RETURNDATASIZE SWAP1 DUP2 ADD PUSH1 0x1F NOT AND DUP3 ADD PUSH1 0x40 MSTORE PUSH2 0xCE6 SWAP2 SWAP1 DUP2 ADD SWAP1 PUSH2 0x3909 JUMP JUMPDEST SWAP1 POP PUSH2 0xCF3 DUP8 DUP8 DUP4 PUSH2 0x1CEC JUMP JUMPDEST SWAP5 POP POP POP POP POP JUMPDEST SWAP4 SWAP3 POP POP POP JUMP JUMPDEST PUSH1 0x0 PUSH1 0x60 DUP1 PUSH2 0xD10 DUP8 DUP8 PUSH2 0x1E18 JUMP JUMPDEST DUP1 MLOAD SWAP1 SWAP4 POP SWAP1 SWAP2 POP ISZERO PUSH2 0xD27 JUMPI PUSH1 0x0 SWAP3 POP POP PUSH2 0x1026 JUMP JUMPDEST PUSH1 0x0 PUSH2 0xD5B PUSH32 0x0 PUSH1 0x1 PUSH1 0x1 PUSH1 0xA0 SHL SUB AND PUSH2 0x15DB JUMP JUMPDEST PUSH1 0x1 PUSH1 0x1 PUSH1 0xA0 SHL SUB AND PUSH4 0xEF5BAC25 PUSH1 0x40 MLOAD DUP2 PUSH4 0xFFFFFFFF AND PUSH1 0xE0 SHL DUP2 MSTORE PUSH1 0x4 ADD PUSH1 0x0 PUSH1 0x40 MLOAD DUP1 DUP4 SUB DUP2 DUP7 GAS STATICCALL ISZERO DUP1 ISZERO PUSH2 0xD98 JUMPI RETURNDATASIZE PUSH1 0x0 DUP1 RETURNDATACOPY RETURNDATASIZE PUSH1 0x0 REVERT JUMPDEST POP POP POP POP PUSH1 0x40 MLOAD RETURNDATASIZE PUSH1 0x0 DUP3 RETURNDATACOPY PUSH1 0x1F RETURNDATASIZE SWAP1 DUP2 ADD PUSH1 0x1F NOT AND DUP3 ADD PUSH1 0x40 MSTORE PUSH2 0xDC0 SWAP2 SWAP1 DUP2 ADD SWAP1 PUSH2 0x3662 JUMP JUMPDEST SWAP1 POP PUSH1 0x0 PUSH2 0xDD2 DUP4 DUP4 PUSH1 0x20 ADD MLOAD PUSH2 0x162A JUMP JUMPDEST SWAP1 POP PUSH2 0xE06 PUSH32 0x0 PUSH1 0x1 PUSH1 0x1 PUSH1 0xA0 SHL SUB AND PUSH2 0x1729 JUMP JUMPDEST PUSH1 0x1 PUSH1 0x1 PUSH1 0xA0 SHL SUB AND PUSH4 0xE2CC8679 DUP3 PUSH1 0x40 MLOAD DUP3 PUSH4 0xFFFFFFFF AND PUSH1 0xE0 SHL DUP2 MSTORE PUSH1 0x4 ADD PUSH2 0xE31 SWAP2 SWAP1 PUSH2 0x379B JUMP JUMPDEST PUSH1 0x0 PUSH1 0x40 MLOAD DUP1 DUP4 SUB DUP2 DUP7 GAS STATICCALL ISZERO DUP1 ISZERO PUSH2 0xE4E JUMPI RETURNDATASIZE PUSH1 0x0 DUP1 RETURNDATACOPY RETURNDATASIZE PUSH1 0x0 REVERT JUMPDEST POP POP POP POP PUSH1 0x40 MLOAD RETURNDATASIZE PUSH1 0x0 DUP3 RETURNDATACOPY PUSH1 0x1F RETURNDATASIZE SWAP1 DUP2 ADD PUSH1 0x1F NOT AND DUP3 ADD PUSH1 0x40 MSTORE PUSH2 0xE76 SWAP2 SWAP1 DUP2 ADD SWAP1 PUSH2 0x3AB1 JUMP JUMPDEST DUP1 MLOAD SWAP1 SWAP5 POP ISZERO PUSH2 0xE8C JUMPI PUSH1 0x0 SWAP5 POP POP POP POP PUSH2 0x1026 JUMP JUMPDEST PUSH1 0x0 PUSH2 0xEC0 PUSH32 0x0 PUSH1 0x1 PUSH1 0x1 PUSH1 0xA0 SHL SUB AND PUSH2 0x17A8 JUMP JUMPDEST PUSH1 0x1 PUSH1 0x1 PUSH1 0xA0 SHL SUB AND PUSH4 0xAA52E2B4 DUP4 PUSH1 0x40 MLOAD DUP3 PUSH4 0xFFFFFFFF AND PUSH1 0xE0 SHL DUP2 MSTORE PUSH1 0x4 ADD PUSH2 0xEEB SWAP2 SWAP1 PUSH2 0x379B JUMP JUMPDEST PUSH1 0x0 PUSH1 0x40 MLOAD DUP1 DUP4 SUB DUP2 DUP7 GAS STATICCALL ISZERO DUP1 ISZERO PUSH2 0xF08 JUMPI RETURNDATASIZE PUSH1 0x0 DUP1 RETURNDATACOPY RETURNDATASIZE PUSH1 0x0 REVERT JUMPDEST POP POP POP POP PUSH1 0x40 MLOAD RETURNDATASIZE PUSH1 0x0 DUP3 RETURNDATACOPY PUSH1 0x1F RETURNDATASIZE SWAP1 DUP2 ADD PUSH1 0x1F NOT AND DUP3 ADD PUSH1 0x40 MSTORE PUSH2 0xF30 SWAP2 SWAP1 DUP2 ADD SWAP1 PUSH2 0x3909 JUMP JUMPDEST SWAP1 POP PUSH1 0x0 PUSH2 0xF3D DUP3 PUSH2 0x17ED JUMP JUMPDEST SWAP1 POP PUSH2 0xF47 PUSH2 0x102F JUMP JUMPDEST DUP5 MLOAD PUSH1 0x40 MLOAD PUSH4 0x616A1ED9 PUSH1 0xE0 SHL DUP2 MSTORE PUSH1 0x4 DUP2 ADD DUP5 SWAP1 MSTORE PUSH1 0x24 DUP2 ADD SWAP2 SWAP1 SWAP2 MSTORE PUSH1 0x1 PUSH1 0x1 PUSH1 0xA0 SHL SUB SWAP2 SWAP1 SWAP2 AND SWAP1 PUSH4 0x616A1ED9 SWAP1 PUSH1 0x44 ADD PUSH1 0x20 PUSH1 0x40 MLOAD DUP1 DUP4 SUB DUP2 DUP7 GAS STATICCALL ISZERO DUP1 ISZERO PUSH2 0xF98 JUMPI RETURNDATASIZE PUSH1 0x0 DUP1 RETURNDATACOPY RETURNDATASIZE PUSH1 0x0 REVERT JUMPDEST POP POP POP POP PUSH1 0x40 MLOAD RETURNDATASIZE PUSH1 0x1F NOT PUSH1 0x1F DUP3 ADD AND DUP3 ADD DUP1 PUSH1 0x40 MSTORE POP DUP2 ADD SWAP1 PUSH2 0xFBC SWAP2 SWAP1 PUSH2 0x3A35 JUMP JUMPDEST SWAP7 POP DUP9 DUP8 LT ISZERO PUSH2 0xFEB JUMPI POP POP PUSH1 0x40 DUP1 MLOAD DUP1 DUP3 ADD SWAP1 SWAP2 MSTORE PUSH1 0x1 DUP2 MSTORE PUSH1 0x19 PUSH1 0xF9 SHL PUSH1 0x20 DUP3 ADD MSTORE SWAP4 POP PUSH2 0x1026 SWAP3 POP POP POP JUMP JUMPDEST PUSH2 0xFF5 DUP9 DUP9 PUSH2 0x1879 JUMP JUMPDEST ISZERO PUSH2 0x1020 JUMPI POP POP PUSH1 0x40 DUP1 MLOAD DUP1 DUP3 ADD SWAP1 SWAP2 MSTORE PUSH1 0x2 DUP2 MSTORE PUSH2 0xD8D PUSH1 0xF2 SHL PUSH1 0x20 DUP3 ADD MSTORE SWAP4 POP PUSH2 0x1026 SWAP3 POP POP POP JUMP JUMPDEST POP POP POP POP POP JUMPDEST SWAP5 POP SWAP5 SWAP3 POP POP POP JUMP JUMPDEST PUSH1 0x40 MLOAD PUSH4 0x21F8A721 PUSH1 0xE0 SHL DUP2 MSTORE PUSH12 0x50414D4D5F41444452455353 PUSH1 0xA0 SHL PUSH1 0x4 DUP3 ADD MSTORE PUSH1 0x0 SWAP1 PUSH32 0x0 PUSH1 0x1 PUSH1 0x1 PUSH1 0xA0 SHL SUB AND SWAP1 PUSH4 0x21F8A721 SWAP1 PUSH1 0x24 ADD PUSH1 0x20 PUSH1 0x40 MLOAD DUP1 DUP4 SUB DUP2 DUP7 GAS STATICCALL ISZERO DUP1 ISZERO PUSH2 0x10A5 JUMPI RETURNDATASIZE PUSH1 0x0 DUP1 RETURNDATACOPY RETURNDATASIZE PUSH1 0x0 REVERT JUMPDEST POP POP POP POP PUSH1 0x40 MLOAD RETURNDATASIZE PUSH1 0x1F NOT PUSH1 0x1F DUP3 ADD AND DUP3 ADD DUP1 PUSH1 0x40 MSTORE POP DUP2 ADD SWAP1 PUSH2 0x10C9 SWAP2 SWAP1 PUSH2 0x3AE5 JUMP JUMPDEST SWAP1 POP SWAP1 JUMP JUMPDEST PUSH1 0x1 SLOAD PUSH1 0x1 PUSH1 0xA8 SHL SWAP1 DIV PUSH1 0xFF AND DUP1 PUSH2 0x10F0 JUMPI POP PUSH1 0x1 SLOAD PUSH1 0x1 PUSH1 0xA0 SHL SWAP1 DIV PUSH1 0xFF AND ISZERO JUMPDEST PUSH2 0x1153 JUMPI PUSH1 0x40 MLOAD PUSH3 0x461BCD PUSH1 0xE5 SHL DUP2 MSTORE PUSH1 0x20 PUSH1 0x4 DUP3 ADD MSTORE PUSH1 0x2E PUSH1 0x24 DUP3 ADD MSTORE PUSH32 0x496E697469616C697A61626C653A20636F6E747261637420697320616C726561 PUSH1 0x44 DUP3 ADD MSTORE PUSH14 0x191E481A5B9A5D1A585B1A5E9959 PUSH1 0x92 SHL PUSH1 0x64 DUP3 ADD MSTORE PUSH1 0x84 ADD PUSH2 0x28C JUMP JUMPDEST PUSH1 0x1 SLOAD PUSH1 0x1 PUSH1 0xA8 SHL SWAP1 DIV PUSH1 0xFF AND ISZERO DUP1 ISZERO PUSH2 0x117D JUMPI PUSH1 0x1 DUP1 SLOAD PUSH2 0xFFFF PUSH1 0xA0 SHL NOT AND PUSH2 0x101 PUSH1 0xA0 SHL OR SWAP1 SSTORE JUMPDEST PUSH2 0x1186 DUP3 PUSH2 0x1F2C JUMP JUMPDEST DUP1 ISZERO PUSH2 0x119A JUMPI PUSH1 0x1 DUP1 SLOAD PUSH1 0xFF PUSH1 0xA8 SHL NOT AND SWAP1 SSTORE JUMPDEST POP POP JUMP JUMPDEST PUSH1 0x0 SLOAD PUSH1 0x40 DUP1 MLOAD DUP1 DUP3 ADD SWAP1 SWAP2 MSTORE PUSH1 0x2 DUP2 MSTORE PUSH2 0x333 PUSH1 0xF4 SHL PUSH1 0x20 DUP3 ADD MSTORE SWAP1 PUSH1 0x1 PUSH1 0x1 PUSH1 0xA0 SHL SUB AND CALLER EQ PUSH2 0x11E3 JUMPI PUSH1 0x40 MLOAD PUSH3 0x461BCD PUSH1 0xE5 SHL DUP2 MSTORE PUSH1 0x4 ADD PUSH2 0x28C SWAP2 SWAP1 PUSH2 0x3380 JUMP JUMPDEST POP PUSH1 0x40 DUP1 MLOAD DUP1 DUP3 ADD SWAP1 SWAP2 MSTORE PUSH1 0x2 DUP2 MSTORE PUSH2 0x3331 PUSH1 0xF0 SHL PUSH1 0x20 DUP3 ADD MSTORE PUSH1 0x1 PUSH1 0x1 PUSH1 0xA0 SHL SUB DUP3 AND PUSH2 0x1224 JUMPI PUSH1 0x40 MLOAD PUSH3 0x461BCD PUSH1 0xE5 SHL DUP2 MSTORE PUSH1 0x4 ADD PUSH2 0x28C SWAP2 SWAP1 PUSH2 0x3380 JUMP JUMPDEST POP PUSH1 0x1 DUP1 SLOAD PUSH1 0x1 PUSH1 0x1 PUSH1 0xA0 SHL SUB NOT AND PUSH1 0x1 PUSH1 0x1 PUSH1 0xA0 SHL SUB DUP4 AND SWAP1 DUP2 OR SWAP1 SWAP2 SSTORE PUSH1 0x40 MLOAD SWAP1 DUP2 MSTORE PUSH32 0x67235BA2E63C748A35B95C4F92A3BBC2A1389938170A5CE6C9ADD5D0B03A314A SWAP1 PUSH1 0x20 ADD PUSH2 0x2F5 JUMP JUMPDEST PUSH1 0x40 MLOAD PUSH4 0x21F8A721 PUSH1 0xE0 SHL DUP2 MSTORE PUSH17 0x4759445F544F4B454E5F41444452455353 PUSH1 0x78 SHL PUSH1 0x4 DUP3 ADD MSTORE PUSH1 0x0 SWAP1 PUSH1 0x1 PUSH1 0x1 PUSH1 0xA0 SHL SUB DUP4 AND SWAP1 PUSH4 0x21F8A721 SWAP1 PUSH1 0x24 ADD JUMPDEST PUSH1 0x20 PUSH1 0x40 MLOAD DUP1 DUP4 SUB DUP2 DUP7 GAS STATICCALL ISZERO DUP1 ISZERO PUSH2 0x12CF JUMPI RETURNDATASIZE PUSH1 0x0 DUP1 RETURNDATACOPY RETURNDATASIZE PUSH1 0x0 REVERT JUMPDEST POP POP POP POP PUSH1 0x40 MLOAD RETURNDATASIZE PUSH1 0x1F NOT PUSH1 0x1F DUP3 ADD AND DUP3 ADD DUP1 PUSH1 0x40 MSTORE POP DUP2 ADD SWAP1 PUSH2 0x12F3 SWAP2 SWAP1 PUSH2 0x3AE5 JUMP JUMPDEST SWAP3 SWAP2 POP POP JUMP JUMPDEST PUSH1 0x40 MLOAD PUSH4 0x21F8A721 PUSH1 0xE0 SHL DUP2 MSTORE PUSH15 0x524553455256455F41444452455353 PUSH1 0x88 SHL PUSH1 0x4 DUP3 ADD MSTORE PUSH1 0x0 SWAP1 PUSH1 0x1 PUSH1 0x1 PUSH1 0xA0 SHL SUB DUP4 AND SWAP1 PUSH4 0x21F8A721 SWAP1 PUSH1 0x24 ADD PUSH2 0x12B2 JUMP JUMPDEST PUSH1 0x40 MLOAD PUSH4 0x21F8A721 PUSH1 0xE0 SHL DUP2 MSTORE PUSH16 0x4645455F42414E4B5F41444452455353 PUSH1 0x80 SHL PUSH1 0x4 DUP3 ADD MSTORE PUSH1 0x0 SWAP1 PUSH1 0x1 PUSH1 0x1 PUSH1 0xA0 SHL SUB DUP4 AND SWAP1 PUSH4 0x21F8A721 SWAP1 PUSH1 0x24 ADD PUSH2 0x12B2 JUMP JUMPDEST DUP1 ISZERO DUP1 PUSH2 0x13F6 JUMPI POP PUSH1 0x40 MLOAD PUSH4 0x6EB1769F PUSH1 0xE1 SHL DUP2 MSTORE ADDRESS PUSH1 0x4 DUP3 ADD MSTORE PUSH1 0x1 PUSH1 0x1 PUSH1 0xA0 SHL SUB DUP4 DUP2 AND PUSH1 0x24 DUP4 ADD MSTORE DUP5 AND SWAP1 PUSH4 0xDD62ED3E SWAP1 PUSH1 0x44 ADD PUSH1 0x20 PUSH1 0x40 MLOAD DUP1 DUP4 SUB DUP2 DUP7 GAS STATICCALL ISZERO DUP1 ISZERO PUSH2 0x13D0 JUMPI RETURNDATASIZE PUSH1 0x0 DUP1 RETURNDATACOPY RETURNDATASIZE PUSH1 0x0 REVERT JUMPDEST POP POP POP POP PUSH1 0x40 MLOAD RETURNDATASIZE PUSH1 0x1F NOT PUSH1 0x1F DUP3 ADD AND DUP3 ADD DUP1 PUSH1 0x40 MSTORE POP DUP2 ADD SWAP1 PUSH2 0x13F4 SWAP2 SWAP1 PUSH2 0x3A35 JUMP JUMPDEST ISZERO JUMPDEST PUSH2 0x1461 JUMPI PUSH1 0x40 MLOAD PUSH3 0x461BCD PUSH1 0xE5 SHL DUP2 MSTORE PUSH1 0x20 PUSH1 0x4 DUP3 ADD MSTORE PUSH1 0x36 PUSH1 0x24 DUP3 ADD MSTORE PUSH32 0x5361666545524332303A20617070726F76652066726F6D206E6F6E2D7A65726F PUSH1 0x44 DUP3 ADD MSTORE PUSH22 0x20746F206E6F6E2D7A65726F20616C6C6F77616E6365 PUSH1 0x50 SHL PUSH1 0x64 DUP3 ADD MSTORE PUSH1 0x84 ADD PUSH2 0x28C JUMP JUMPDEST PUSH1 0x40 MLOAD PUSH1 0x1 PUSH1 0x1 PUSH1 0xA0 SHL SUB DUP4 AND PUSH1 0x24 DUP3 ADD MSTORE PUSH1 0x44 DUP2 ADD DUP3 SWAP1 MSTORE PUSH2 0x14C4 SWAP1 DUP5 SWAP1 PUSH4 0x95EA7B3 PUSH1 0xE0 SHL SWAP1 PUSH1 0x64 ADD JUMPDEST PUSH1 0x40 DUP1 MLOAD PUSH1 0x1F NOT DUP2 DUP5 SUB ADD DUP2 MSTORE SWAP2 SWAP1 MSTORE PUSH1 0x20 DUP2 ADD DUP1 MLOAD PUSH1 0x1 PUSH1 0x1 PUSH1 0xE0 SHL SUB AND PUSH1 0x1 PUSH1 0x1 PUSH1 0xE0 SHL SUB NOT SWAP1 SWAP4 AND SWAP3 SWAP1 SWAP3 OR SWAP1 SWAP2 MSTORE PUSH2 0x1F80 JUMP JUMPDEST POP POP POP JUMP JUMPDEST PUSH1 0x60 PUSH2 0x14D8 DUP5 DUP5 PUSH1 0x0 DUP6 PUSH2 0x2052 JUMP JUMPDEST SWAP5 SWAP4 POP POP POP POP JUMP JUMPDEST PUSH1 0x60 PUSH1 0x0 DUP3 PUSH1 0x1 PUSH1 0x1 PUSH1 0x40 SHL SUB DUP2 GT ISZERO PUSH2 0x14FC JUMPI PUSH2 0x14FC PUSH2 0x3393 JUMP JUMPDEST PUSH1 0x40 MLOAD SWAP1 DUP1 DUP3 MSTORE DUP1 PUSH1 0x20 MUL PUSH1 0x20 ADD DUP3 ADD PUSH1 0x40 MSTORE DUP1 ISZERO PUSH2 0x1541 JUMPI DUP2 PUSH1 0x20 ADD JUMPDEST PUSH1 0x40 DUP1 MLOAD DUP1 DUP3 ADD SWAP1 SWAP2 MSTORE PUSH1 0x0 DUP1 DUP3 MSTORE PUSH1 0x20 DUP3 ADD MSTORE DUP2 MSTORE PUSH1 0x20 ADD SWAP1 PUSH1 0x1 SWAP1 SUB SWAP1 DUP2 PUSH2 0x151A JUMPI SWAP1 POP JUMPDEST POP SWAP1 POP PUSH1 0x0 JUMPDEST DUP4 DUP2 LT ISZERO PUSH2 0x15D3 JUMPI CALLDATASIZE DUP6 DUP6 DUP4 DUP2 DUP2 LT PUSH2 0x1562 JUMPI PUSH2 0x1562 PUSH2 0x38C2 JUMP JUMPDEST SWAP1 POP PUSH1 0x60 MUL ADD SWAP1 POP PUSH1 0x40 MLOAD DUP1 PUSH1 0x40 ADD PUSH1 0x40 MSTORE DUP1 DUP3 PUSH1 0x40 ADD PUSH1 0x20 DUP2 ADD SWAP1 PUSH2 0x1588 SWAP2 SWAP1 PUSH2 0x3363 JUMP JUMPDEST PUSH1 0x1 PUSH1 0x1 PUSH1 0xA0 SHL SUB AND DUP2 MSTORE PUSH1 0x20 ADD PUSH2 0x159F DUP4 PUSH2 0x217A JUMP JUMPDEST DUP2 MSTORE POP DUP4 DUP4 DUP2 MLOAD DUP2 LT PUSH2 0x15B4 JUMPI PUSH2 0x15B4 PUSH2 0x38C2 JUMP JUMPDEST PUSH1 0x20 MUL PUSH1 0x20 ADD ADD DUP2 SWAP1 MSTORE POP POP DUP1 DUP1 PUSH2 0x15CB SWAP1 PUSH2 0x38EE JUMP JUMPDEST SWAP2 POP POP PUSH2 0x1547 JUMP JUMPDEST POP SWAP4 SWAP3 POP POP POP JUMP JUMPDEST PUSH1 0x40 MLOAD PUSH4 0x21F8A721 PUSH1 0xE0 SHL DUP2 MSTORE PUSH32 0x524553455256455F4D414E414745525F41444452455353000000000000000000 PUSH1 0x4 DUP3 ADD MSTORE PUSH1 0x0 SWAP1 PUSH1 0x1 PUSH1 0x1 PUSH1 0xA0 SHL SUB DUP4 AND SWAP1 PUSH4 0x21F8A721 SWAP1 PUSH1 0x24 ADD PUSH2 0x12B2 JUMP JUMPDEST PUSH1 0x40 DUP1 MLOAD DUP1 DUP3 ADD SWAP1 SWAP2 MSTORE PUSH1 0x60 DUP2 MSTORE PUSH1 0x0 PUSH1 0x20 DUP3 ADD MSTORE PUSH1 0x0 PUSH1 0x40 MLOAD DUP1 PUSH1 0x40 ADD PUSH1 0x40 MSTORE DUP1 DUP5 MLOAD PUSH1 0x1 PUSH1 0x1 PUSH1 0x40 SHL SUB DUP2 GT ISZERO PUSH2 0x1665 JUMPI PUSH2 0x1665 PUSH2 0x3393 JUMP JUMPDEST PUSH1 0x40 MLOAD SWAP1 DUP1 DUP3 MSTORE DUP1 PUSH1 0x20 MUL PUSH1 0x20 ADD DUP3 ADD PUSH1 0x40 MSTORE DUP1 ISZERO PUSH2 0x169E JUMPI DUP2 PUSH1 0x20 ADD JUMPDEST PUSH2 0x168B PUSH2 0x3049 JUMP JUMPDEST DUP2 MSTORE PUSH1 0x20 ADD SWAP1 PUSH1 0x1 SWAP1 SUB SWAP1 DUP2 PUSH2 0x1683 JUMPI SWAP1 POP JUMPDEST POP DUP2 MSTORE PUSH1 0x1 PUSH1 0x20 SWAP1 SWAP2 ADD MSTORE SWAP1 POP PUSH1 0x0 JUMPDEST DUP4 MLOAD DUP2 LT ISZERO PUSH2 0x15D3 JUMPI PUSH1 0x0 DUP5 DUP3 DUP2 MLOAD DUP2 LT PUSH2 0x16CB JUMPI PUSH2 0x16CB PUSH2 0x38C2 JUMP JUMPDEST PUSH1 0x20 MUL PUSH1 0x20 ADD ADD MLOAD SWAP1 POP PUSH1 0x40 MLOAD DUP1 PUSH1 0x40 ADD PUSH1 0x40 MSTORE DUP1 DUP3 DUP2 MSTORE PUSH1 0x20 ADD PUSH2 0x16F4 DUP4 PUSH1 0x0 ADD MLOAD DUP10 PUSH2 0x2333 JUMP JUMPDEST SWAP1 MSTORE DUP4 MLOAD DUP1 MLOAD DUP5 SWAP1 DUP2 LT PUSH2 0x170A JUMPI PUSH2 0x170A PUSH2 0x38C2 JUMP JUMPDEST PUSH1 0x20 MUL PUSH1 0x20 ADD ADD DUP2 SWAP1 MSTORE POP POP DUP1 DUP1 PUSH2 0x1721 SWAP1 PUSH2 0x38EE JUMP JUMPDEST SWAP2 POP POP PUSH2 0x16AE JUMP JUMPDEST PUSH1 0x40 MLOAD PUSH4 0x21F8A721 PUSH1 0xE0 SHL DUP2 MSTORE PUSH32 0x524F4F545F5341464554595F434845434B5F4144445245535300000000000000 PUSH1 0x4 DUP3 ADD MSTORE PUSH1 0x0 SWAP1 PUSH1 0x1 PUSH1 0x1 PUSH1 0xA0 SHL SUB DUP4 AND SWAP1 PUSH4 0x21F8A721 SWAP1 PUSH1 0x24 ADD PUSH2 0x12B2 JUMP JUMPDEST PUSH1 0x40 MLOAD PUSH1 0x1 PUSH1 0x1 PUSH1 0xA0 SHL SUB DUP4 AND PUSH1 0x24 DUP3 ADD MSTORE PUSH1 0x44 DUP2 ADD DUP3 SWAP1 MSTORE PUSH2 0x14C4 SWAP1 DUP5 SWAP1 PUSH4 0xA9059CBB PUSH1 0xE0 SHL SWAP1 PUSH1 0x64 ADD PUSH2 0x148D JUMP JUMPDEST PUSH1 0x40 MLOAD PUSH4 0x21F8A721 PUSH1 0xE0 SHL DUP2 MSTORE PUSH19 0x4645455F48414E444C45525F41444452455353 PUSH1 0x68 SHL PUSH1 0x4 DUP3 ADD MSTORE PUSH1 0x0 SWAP1 PUSH1 0x1 PUSH1 0x1 PUSH1 0xA0 SHL SUB DUP4 AND SWAP1 PUSH4 0x21F8A721 SWAP1 PUSH1 0x24 ADD PUSH2 0x12B2 JUMP JUMPDEST PUSH1 0x0 DUP1 JUMPDEST DUP3 MLOAD MLOAD DUP2 LT ISZERO PUSH2 0x1873 JUMPI PUSH1 0x0 DUP4 PUSH1 0x0 ADD MLOAD DUP3 DUP2 MLOAD DUP2 LT PUSH2 0x1813 JUMPI PUSH2 0x1813 PUSH2 0x38C2 JUMP JUMPDEST PUSH1 0x20 MUL PUSH1 0x20 ADD ADD MLOAD SWAP1 POP PUSH1 0x0 PUSH2 0x183E DUP3 PUSH1 0x0 ADD MLOAD PUSH1 0x20 ADD MLOAD DUP4 PUSH1 0x20 ADD MLOAD PUSH2 0x23A2 SWAP1 SWAP2 SWAP1 PUSH4 0xFFFFFFFF AND JUMP JUMPDEST DUP3 MLOAD PUSH1 0x60 ADD MLOAD SWAP1 SWAP2 POP PUSH2 0x1852 SWAP1 DUP3 SWAP1 PUSH2 0x240A JUMP JUMPDEST PUSH2 0x185C SWAP1 DUP6 PUSH2 0x3B02 JUMP JUMPDEST SWAP4 POP POP POP DUP1 DUP1 PUSH2 0x186B SWAP1 PUSH2 0x38EE JUMP JUMPDEST SWAP2 POP POP PUSH2 0x17F1 JUMP JUMPDEST POP SWAP2 SWAP1 POP JUMP JUMPDEST PUSH1 0x0 DUP1 PUSH2 0x18AE PUSH32 0x0 PUSH1 0x1 PUSH1 0x1 PUSH1 0xA0 SHL SUB AND PUSH2 0x242B JUMP JUMPDEST SWAP1 POP DUP1 DUP4 PUSH32 0x0 PUSH1 0x1 PUSH1 0x1 PUSH1 0xA0 SHL SUB AND PUSH4 0x18160DDD PUSH1 0x40 MLOAD DUP2 PUSH4 0xFFFFFFFF AND PUSH1 0xE0 SHL DUP2 MSTORE PUSH1 0x4 ADD PUSH1 0x20 PUSH1 0x40 MLOAD DUP1 DUP4 SUB DUP2 DUP7 GAS STATICCALL ISZERO DUP1 ISZERO PUSH2 0x1910 JUMPI RETURNDATASIZE PUSH1 0x0 DUP1 RETURNDATACOPY RETURNDATASIZE PUSH1 0x0 REVERT JUMPDEST POP POP POP POP PUSH1 0x40 MLOAD RETURNDATASIZE PUSH1 0x1F NOT PUSH1 0x1F DUP3 ADD AND DUP3 ADD DUP1 PUSH1 0x40 MSTORE POP DUP2 ADD SWAP1 PUSH2 0x1934 SWAP2 SWAP1 PUSH2 0x3A35 JUMP JUMPDEST PUSH2 0x193E SWAP2 SWAP1 PUSH2 0x3B02 JUMP JUMPDEST GT ISZERO PUSH2 0x194E JUMPI PUSH1 0x1 SWAP2 POP POP PUSH2 0x12F3 JUMP JUMPDEST PUSH1 0x0 PUSH2 0x1983 PUSH1 0x1 PUSH1 0x1 PUSH1 0xA0 SHL SUB PUSH32 0x0 AND DUP7 PUSH2 0x24B6 JUMP JUMPDEST SWAP1 POP PUSH1 0x0 PUSH2 0x19BA PUSH1 0x1 PUSH1 0x1 PUSH1 0xA0 SHL SUB PUSH32 0x0 AND DUP4 PUSH2 0x2641 JUMP JUMPDEST PUSH1 0x40 MLOAD PUSH4 0x70A08231 PUSH1 0xE0 SHL DUP2 MSTORE PUSH1 0x1 PUSH1 0x1 PUSH1 0xA0 SHL SUB DUP9 DUP2 AND PUSH1 0x4 DUP4 ADD MSTORE SWAP2 SWAP3 POP DUP3 SWAP2 DUP8 SWAP2 PUSH32 0x0 SWAP1 SWAP2 AND SWAP1 PUSH4 0x70A08231 SWAP1 PUSH1 0x24 ADD PUSH1 0x20 PUSH1 0x40 MLOAD DUP1 DUP4 SUB DUP2 DUP7 GAS STATICCALL ISZERO DUP1 ISZERO PUSH2 0x1A29 JUMPI RETURNDATASIZE PUSH1 0x0 DUP1 RETURNDATACOPY RETURNDATASIZE PUSH1 0x0 REVERT JUMPDEST POP POP POP POP PUSH1 0x40 MLOAD RETURNDATASIZE PUSH1 0x1F NOT PUSH1 0x1F DUP3 ADD AND DUP3 ADD DUP1 PUSH1 0x40 MSTORE POP DUP2 ADD SWAP1 PUSH2 0x1A4D SWAP2 SWAP1 PUSH2 0x3A35 JUMP JUMPDEST PUSH2 0x1A57 SWAP2 SWAP1 PUSH2 0x3B02 JUMP JUMPDEST GT SWAP7 SWAP6 POP POP POP POP POP POP JUMP JUMPDEST PUSH1 0x40 DUP1 MLOAD DUP1 DUP3 ADD SWAP1 SWAP2 MSTORE PUSH1 0x60 DUP2 MSTORE PUSH1 0x0 PUSH1 0x20 DUP3 ADD MSTORE PUSH1 0x0 PUSH1 0x40 MLOAD DUP1 PUSH1 0x40 ADD PUSH1 0x40 MSTORE DUP1 DUP7 DUP7 SWAP1 POP PUSH1 0x1 PUSH1 0x1 PUSH1 0x40 SHL SUB DUP2 GT ISZERO PUSH2 0x1A9F JUMPI PUSH2 0x1A9F PUSH2 0x3393 JUMP JUMPDEST PUSH1 0x40 MLOAD SWAP1 DUP1 DUP3 MSTORE DUP1 PUSH1 0x20 MUL PUSH1 0x20 ADD DUP3 ADD PUSH1 0x40 MSTORE DUP1 ISZERO PUSH2 0x1AD8 JUMPI DUP2 PUSH1 0x20 ADD JUMPDEST PUSH2 0x1AC5 PUSH2 0x3049 JUMP JUMPDEST DUP2 MSTORE PUSH1 0x20 ADD SWAP1 PUSH1 0x1 SWAP1 SUB SWAP1 DUP2 PUSH2 0x1ABD JUMPI SWAP1 POP JUMPDEST POP DUP2 MSTORE PUSH1 0x20 ADD PUSH1 0x0 ISZERO ISZERO DUP2 MSTORE POP SWAP1 POP PUSH1 0x0 DUP1 JUMPDEST DUP6 DUP2 LT ISZERO PUSH2 0x1B7D JUMPI CALLDATASIZE DUP8 DUP8 DUP4 DUP2 DUP2 LT PUSH2 0x1B06 JUMPI PUSH2 0x1B06 PUSH2 0x38C2 JUMP JUMPDEST SWAP1 POP PUSH1 0x80 MUL ADD SWAP1 POP PUSH1 0x0 DUP1 PUSH2 0x1B1C DUP4 DUP13 DUP11 PUSH2 0x2758 JUMP JUMPDEST SWAP1 SWAP3 POP SWAP1 POP PUSH2 0x1B2F PUSH1 0x40 DUP5 ADD CALLDATALOAD DUP7 PUSH2 0x3B02 JUMP JUMPDEST SWAP5 POP PUSH1 0x40 MLOAD DUP1 PUSH1 0x40 ADD PUSH1 0x40 MSTORE DUP1 DUP3 DUP2 MSTORE PUSH1 0x20 ADD DUP4 DUP2 MSTORE POP DUP7 PUSH1 0x0 ADD MLOAD DUP6 DUP2 MLOAD DUP2 LT PUSH2 0x1B5C JUMPI PUSH2 0x1B5C PUSH2 0x38C2 JUMP JUMPDEST PUSH1 0x20 MUL PUSH1 0x20 ADD ADD DUP2 SWAP1 MSTORE POP POP POP POP DUP1 DUP1 PUSH2 0x1B75 SWAP1 PUSH2 0x38EE JUMP JUMPDEST SWAP2 POP POP PUSH2 0x1AEB JUMP JUMPDEST POP PUSH1 0x40 DUP1 MLOAD DUP1 DUP3 ADD SWAP1 SWAP2 MSTORE PUSH1 0x2 DUP2 MSTORE PUSH2 0x3331 PUSH1 0xF0 SHL PUSH1 0x20 DUP3 ADD MSTORE PUSH8 0xDE0B6B3A7640000 DUP3 EQ PUSH2 0x1BBF JUMPI PUSH1 0x40 MLOAD PUSH3 0x461BCD PUSH1 0xE5 SHL DUP2 MSTORE PUSH1 0x4 ADD PUSH2 0x28C SWAP2 SWAP1 PUSH2 0x3380 JUMP JUMPDEST POP SWAP1 SWAP7 SWAP6 POP POP POP POP POP POP JUMP JUMPDEST PUSH1 0x60 DUP1 DUP4 PUSH1 0x1 PUSH1 0x1 PUSH1 0x40 SHL SUB DUP2 GT ISZERO PUSH2 0x1BE6 JUMPI PUSH2 0x1BE6 PUSH2 0x3393 JUMP JUMPDEST PUSH1 0x40 MLOAD SWAP1 DUP1 DUP3 MSTORE DUP1 PUSH1 0x20 MUL PUSH1 0x20 ADD DUP3 ADD PUSH1 0x40 MSTORE DUP1 ISZERO PUSH2 0x1C0F JUMPI DUP2 PUSH1 0x20 ADD PUSH1 0x20 DUP3 MUL DUP1 CALLDATASIZE DUP4 CALLDATACOPY ADD SWAP1 POP JUMPDEST POP SWAP2 POP PUSH1 0x0 JUMPDEST DUP5 DUP2 LT ISZERO PUSH2 0x1CE3 JUMPI CALLDATASIZE DUP7 DUP7 DUP4 DUP2 DUP2 LT PUSH2 0x1C30 JUMPI PUSH2 0x1C30 PUSH2 0x38C2 JUMP JUMPDEST SWAP1 POP PUSH1 0x80 MUL ADD SWAP1 POP PUSH1 0x0 PUSH2 0x1C5A DUP7 PUSH1 0x0 ADD MLOAD DUP4 PUSH1 0x60 ADD PUSH1 0x20 DUP2 ADD SWAP1 PUSH2 0x1C55 SWAP2 SWAP1 PUSH2 0x3363 JUMP JUMPDEST PUSH2 0x2855 JUMP JUMPDEST SWAP1 POP PUSH1 0x0 PUSH2 0x1C68 DUP4 DUP4 PUSH2 0x28CC JUMP JUMPDEST DUP1 MLOAD SWAP1 SWAP7 POP SWAP1 SWAP2 POP ISZERO PUSH2 0x1C7E JUMPI POP POP POP POP PUSH2 0x9F6 JUMP JUMPDEST DUP3 PUSH1 0x20 ADD CALLDATALOAD DUP2 LT ISZERO PUSH2 0x1CAE JUMPI POP POP PUSH1 0x40 DUP1 MLOAD DUP1 DUP3 ADD SWAP1 SWAP2 MSTORE PUSH1 0x1 DUP2 MSTORE PUSH1 0x19 PUSH1 0xF9 SHL PUSH1 0x20 DUP3 ADD MSTORE SWAP3 POP PUSH2 0x9F6 SWAP2 POP POP JUMP JUMPDEST DUP1 DUP7 DUP6 DUP2 MLOAD DUP2 LT PUSH2 0x1CC1 JUMPI PUSH2 0x1CC1 PUSH2 0x38C2 JUMP JUMPDEST PUSH1 0x20 MUL PUSH1 0x20 ADD ADD DUP2 DUP2 MSTORE POP POP POP POP POP DUP1 DUP1 PUSH2 0x1CDB SWAP1 PUSH2 0x38EE JUMP JUMPDEST SWAP2 POP POP PUSH2 0x1C15 JUMP JUMPDEST POP SWAP4 POP SWAP4 SWAP2 POP POP JUMP JUMPDEST PUSH1 0x60 DUP3 PUSH1 0x1 PUSH1 0x1 PUSH1 0x40 SHL SUB DUP2 GT ISZERO PUSH2 0x1D06 JUMPI PUSH2 0x1D06 PUSH2 0x3393 JUMP JUMPDEST PUSH1 0x40 MLOAD SWAP1 DUP1 DUP3 MSTORE DUP1 PUSH1 0x20 MUL PUSH1 0x20 ADD DUP3 ADD PUSH1 0x40 MSTORE DUP1 ISZERO PUSH2 0x1D2F JUMPI DUP2 PUSH1 0x20 ADD PUSH1 0x20 DUP3 MUL DUP1 CALLDATASIZE DUP4 CALLDATACOPY ADD SWAP1 POP JUMPDEST POP SWAP1 POP PUSH1 0x0 JUMPDEST DUP4 DUP2 LT ISZERO PUSH2 0x15D3 JUMPI PUSH1 0x0 DUP6 DUP6 DUP4 DUP2 DUP2 LT PUSH2 0x1D51 JUMPI PUSH2 0x1D51 PUSH2 0x38C2 JUMP JUMPDEST SWAP1 POP PUSH1 0x80 MUL ADD DUP1 CALLDATASIZE SUB DUP2 ADD SWAP1 PUSH2 0x1D67 SWAP2 SWAP1 PUSH2 0x3B1A JUMP JUMPDEST SWAP1 POP PUSH1 0x0 PUSH2 0x1D7D DUP6 PUSH1 0x0 ADD MLOAD DUP4 PUSH1 0x60 ADD MLOAD PUSH2 0x2855 JUMP JUMPDEST SWAP1 POP PUSH1 0x0 PUSH2 0x1D8B DUP4 DUP4 PUSH2 0x2B0C JUMP JUMPDEST SWAP1 POP DUP3 PUSH1 0x20 ADD MLOAD DUP2 LT ISZERO PUSH1 0x40 MLOAD DUP1 PUSH1 0x40 ADD PUSH1 0x40 MSTORE DUP1 PUSH1 0x1 DUP2 MSTORE PUSH1 0x20 ADD PUSH1 0x19 PUSH1 0xF9 SHL DUP2 MSTORE POP SWAP1 PUSH2 0x1DCD JUMPI PUSH1 0x40 MLOAD PUSH3 0x461BCD PUSH1 0xE5 SHL DUP2 MSTORE PUSH1 0x4 ADD PUSH2 0x28C SWAP2 SWAP1 PUSH2 0x3380 JUMP JUMPDEST POP DUP1 DUP6 DUP6 DUP2 MLOAD DUP2 LT PUSH2 0x1DE1 JUMPI PUSH2 0x1DE1 PUSH2 0x38C2 JUMP JUMPDEST PUSH1 0x20 SWAP1 DUP2 MUL SWAP2 SWAP1 SWAP2 ADD ADD MSTORE DUP3 MLOAD PUSH2 0x1E02 SWAP1 PUSH1 0x1 PUSH1 0x1 PUSH1 0xA0 SHL SUB AND CALLER DUP4 PUSH2 0x1778 JUMP JUMPDEST POP POP POP DUP1 DUP1 PUSH2 0x1E10 SWAP1 PUSH2 0x38EE JUMP JUMPDEST SWAP2 POP POP PUSH2 0x1D35 JUMP JUMPDEST PUSH1 0x60 DUP1 DUP3 PUSH1 0x1 PUSH1 0x1 PUSH1 0x40 SHL SUB DUP2 GT ISZERO PUSH2 0x1E33 JUMPI PUSH2 0x1E33 PUSH2 0x3393 JUMP JUMPDEST PUSH1 0x40 MLOAD SWAP1 DUP1 DUP3 MSTORE DUP1 PUSH1 0x20 MUL PUSH1 0x20 ADD DUP3 ADD PUSH1 0x40 MSTORE DUP1 ISZERO PUSH2 0x1E78 JUMPI DUP2 PUSH1 0x20 ADD JUMPDEST PUSH1 0x40 DUP1 MLOAD DUP1 DUP3 ADD SWAP1 SWAP2 MSTORE PUSH1 0x0 DUP1 DUP3 MSTORE PUSH1 0x20 DUP3 ADD MSTORE DUP2 MSTORE PUSH1 0x20 ADD SWAP1 PUSH1 0x1 SWAP1 SUB SWAP1 DUP2 PUSH2 0x1E51 JUMPI SWAP1 POP JUMPDEST POP SWAP2 POP PUSH1 0x0 JUMPDEST DUP4 DUP2 LT ISZERO PUSH2 0x1F23 JUMPI CALLDATASIZE DUP6 DUP6 DUP4 DUP2 DUP2 LT PUSH2 0x1E99 JUMPI PUSH2 0x1E99 PUSH2 0x38C2 JUMP JUMPDEST SWAP1 POP PUSH1 0x60 MUL ADD SWAP1 POP PUSH1 0x0 PUSH2 0x1EAC DUP3 PUSH2 0x2CEE JUMP JUMPDEST DUP1 MLOAD SWAP1 SWAP6 POP SWAP1 SWAP2 POP ISZERO PUSH2 0x1EC1 JUMPI POP POP POP PUSH2 0x1F25 JUMP JUMPDEST PUSH1 0x40 MLOAD DUP1 PUSH1 0x40 ADD PUSH1 0x40 MSTORE DUP1 DUP4 PUSH1 0x40 ADD PUSH1 0x20 DUP2 ADD SWAP1 PUSH2 0x1EDF SWAP2 SWAP1 PUSH2 0x3363 JUMP JUMPDEST PUSH1 0x1 PUSH1 0x1 PUSH1 0xA0 SHL SUB AND DUP2 MSTORE PUSH1 0x20 ADD DUP3 DUP2 MSTORE POP DUP6 DUP5 DUP2 MLOAD DUP2 LT PUSH2 0x1F03 JUMPI PUSH2 0x1F03 PUSH2 0x38C2 JUMP JUMPDEST PUSH1 0x20 MUL PUSH1 0x20 ADD ADD DUP2 SWAP1 MSTORE POP POP POP DUP1 DUP1 PUSH2 0x1F1B SWAP1 PUSH2 0x38EE JUMP JUMPDEST SWAP2 POP POP PUSH2 0x1E7E JUMP JUMPDEST POP JUMPDEST SWAP3 POP SWAP3 SWAP1 POP JUMP JUMPDEST PUSH1 0x0 DUP1 SLOAD PUSH1 0x1 PUSH1 0x1 PUSH1 0xA0 SHL SUB NOT AND PUSH1 0x1 PUSH1 0x1 PUSH1 0xA0 SHL SUB DUP4 AND SWAP1 DUP2 OR DUP3 SSTORE PUSH1 0x40 DUP1 MLOAD SWAP3 DUP4 MSTORE PUSH1 0x20 DUP4 ADD SWAP2 SWAP1 SWAP2 MSTORE PUSH32 0xDE4B3F61490B74C0ED6237523974FE299126BBBF8A8A7482FD220104C59B0C84 SWAP2 ADD PUSH2 0x2F5 JUMP JUMPDEST PUSH1 0x0 PUSH2 0x1FD5 DUP3 PUSH1 0x40 MLOAD DUP1 PUSH1 0x40 ADD PUSH1 0x40 MSTORE DUP1 PUSH1 0x20 DUP2 MSTORE PUSH1 0x20 ADD PUSH32 0x5361666545524332303A206C6F772D6C6576656C2063616C6C206661696C6564 DUP2 MSTORE POP DUP6 PUSH1 0x1 PUSH1 0x1 PUSH1 0xA0 SHL SUB AND PUSH2 0x14C9 SWAP1 SWAP3 SWAP2 SWAP1 PUSH4 0xFFFFFFFF AND JUMP JUMPDEST DUP1 MLOAD SWAP1 SWAP2 POP ISZERO PUSH2 0x14C4 JUMPI DUP1 DUP1 PUSH1 0x20 ADD SWAP1 MLOAD DUP2 ADD SWAP1 PUSH2 0x1FF3 SWAP2 SWAP1 PUSH2 0x3B8E JUMP JUMPDEST PUSH2 0x14C4 JUMPI PUSH1 0x40 MLOAD PUSH3 0x461BCD PUSH1 0xE5 SHL DUP2 MSTORE PUSH1 0x20 PUSH1 0x4 DUP3 ADD MSTORE PUSH1 0x2A PUSH1 0x24 DUP3 ADD MSTORE PUSH32 0x5361666545524332303A204552433230206F7065726174696F6E20646964206E PUSH1 0x44 DUP3 ADD MSTORE PUSH10 0x1BDD081CDD58D8D95959 PUSH1 0xB2 SHL PUSH1 0x64 DUP3 ADD MSTORE PUSH1 0x84 ADD PUSH2 0x28C JUMP JUMPDEST PUSH1 0x60 DUP3 SELFBALANCE LT ISZERO PUSH2 0x20B3 JUMPI PUSH1 0x40 MLOAD PUSH3 0x461BCD PUSH1 0xE5 SHL DUP2 MSTORE PUSH1 0x20 PUSH1 0x4 DUP3 ADD MSTORE PUSH1 0x26 PUSH1 0x24 DUP3 ADD MSTORE PUSH32 0x416464726573733A20696E73756666696369656E742062616C616E636520666F PUSH1 0x44 DUP3 ADD MSTORE PUSH6 0x1C8818D85B1B PUSH1 0xD2 SHL PUSH1 0x64 DUP3 ADD MSTORE PUSH1 0x84 ADD PUSH2 0x28C JUMP JUMPDEST DUP5 EXTCODESIZE PUSH2 0x2101 JUMPI PUSH1 0x40 MLOAD PUSH3 0x461BCD PUSH1 0xE5 SHL DUP2 MSTORE PUSH1 0x20 PUSH1 0x4 DUP3 ADD MSTORE PUSH1 0x1D PUSH1 0x24 DUP3 ADD MSTORE PUSH32 0x416464726573733A2063616C6C20746F206E6F6E2D636F6E7472616374000000 PUSH1 0x44 DUP3 ADD MSTORE PUSH1 0x64 ADD PUSH2 0x28C JUMP JUMPDEST PUSH1 0x0 DUP1 DUP7 PUSH1 0x1 PUSH1 0x1 PUSH1 0xA0 SHL SUB AND DUP6 DUP8 PUSH1 0x40 MLOAD PUSH2 0x211D SWAP2 SWAP1 PUSH2 0x3BA9 JUMP JUMPDEST PUSH1 0x0 PUSH1 0x40 MLOAD DUP1 DUP4 SUB DUP2 DUP6 DUP8 GAS CALL SWAP3 POP POP POP RETURNDATASIZE DUP1 PUSH1 0x0 DUP2 EQ PUSH2 0x215A JUMPI PUSH1 0x40 MLOAD SWAP2 POP PUSH1 0x1F NOT PUSH1 0x3F RETURNDATASIZE ADD AND DUP3 ADD PUSH1 0x40 MSTORE RETURNDATASIZE DUP3 MSTORE RETURNDATASIZE PUSH1 0x0 PUSH1 0x20 DUP5 ADD RETURNDATACOPY PUSH2 0x215F JUMP JUMPDEST PUSH1 0x60 SWAP2 POP JUMPDEST POP SWAP2 POP SWAP2 POP PUSH2 0x216F DUP3 DUP3 DUP7 PUSH2 0x2E81 JUMP JUMPDEST SWAP8 SWAP7 POP POP POP POP POP POP POP JUMP JUMPDEST PUSH1 0x0 DUP1 PUSH2 0x218D PUSH1 0x60 DUP5 ADD PUSH1 0x40 DUP6 ADD PUSH2 0x3363 JUMP JUMPDEST SWAP1 POP PUSH2 0x21B6 CALLER ADDRESS PUSH1 0x20 DUP7 ADD DUP1 CALLDATALOAD SWAP1 PUSH2 0x21A5 SWAP1 DUP9 PUSH2 0x3363 JUMP JUMPDEST PUSH1 0x1 PUSH1 0x1 PUSH1 0xA0 SHL SUB AND SWAP3 SWAP2 SWAP1 PUSH2 0x2EBA JUMP JUMPDEST PUSH1 0x1 PUSH1 0x1 PUSH1 0xA0 SHL SUB DUP2 AND PUSH2 0x21CD PUSH1 0x20 DUP6 ADD DUP6 PUSH2 0x3363 JUMP JUMPDEST PUSH1 0x1 PUSH1 0x1 PUSH1 0xA0 SHL SUB AND EQ ISZERO PUSH2 0x21E5 JUMPI POP POP PUSH1 0x20 ADD CALLDATALOAD SWAP1 JUMP JUMPDEST PUSH1 0x0 DUP2 PUSH1 0x1 PUSH1 0x1 PUSH1 0xA0 SHL SUB AND PUSH4 0x6F307DC3 PUSH1 0x40 MLOAD DUP2 PUSH4 0xFFFFFFFF AND PUSH1 0xE0 SHL DUP2 MSTORE PUSH1 0x4 ADD PUSH1 0x20 PUSH1 0x40 MLOAD DUP1 DUP4 SUB DUP2 DUP7 GAS STATICCALL ISZERO DUP1 ISZERO PUSH2 0x2225 JUMPI RETURNDATASIZE PUSH1 0x0 DUP1 RETURNDATACOPY RETURNDATASIZE PUSH1 0x0 REVERT JUMPDEST POP POP POP POP PUSH1 0x40 MLOAD RETURNDATASIZE PUSH1 0x1F NOT PUSH1 0x1F DUP3 ADD AND DUP3 ADD DUP1 PUSH1 0x40 MSTORE POP DUP2 ADD SWAP1 PUSH2 0x2249 SWAP2 SWAP1 PUSH2 0x3AE5 JUMP JUMPDEST SWAP1 POP PUSH1 0x1 PUSH1 0x1 PUSH1 0xA0 SHL SUB DUP2 AND PUSH2 0x2262 PUSH1 0x20 DUP7 ADD DUP7 PUSH2 0x3363 JUMP JUMPDEST PUSH1 0x1 PUSH1 0x1 PUSH1 0xA0 SHL SUB AND EQ PUSH1 0x40 MLOAD DUP1 PUSH1 0x40 ADD PUSH1 0x40 MSTORE DUP1 PUSH1 0x2 DUP2 MSTORE PUSH1 0x20 ADD PUSH2 0x3335 PUSH1 0xF0 SHL DUP2 MSTORE POP SWAP1 PUSH2 0x22A5 JUMPI PUSH1 0x40 MLOAD PUSH3 0x461BCD PUSH1 0xE5 SHL DUP2 MSTORE PUSH1 0x4 ADD PUSH2 0x28C SWAP2 SWAP1 PUSH2 0x3380 JUMP JUMPDEST POP PUSH2 0x22BE PUSH1 0x1 PUSH1 0x1 PUSH1 0xA0 SHL SUB DUP3 AND DUP4 PUSH1 0x20 DUP8 ADD CALLDATALOAD PUSH2 0x2EF8 JUMP JUMPDEST PUSH1 0x40 MLOAD PUSH4 0x1C57762B PUSH1 0xE3 SHL DUP2 MSTORE PUSH1 0x20 DUP6 ADD CALLDATALOAD PUSH1 0x4 DUP3 ADD MSTORE PUSH1 0x0 PUSH1 0x24 DUP3 ADD MSTORE PUSH1 0x1 PUSH1 0x1 PUSH1 0xA0 SHL SUB DUP4 AND SWAP1 PUSH4 0xE2BBB158 SWAP1 PUSH1 0x44 ADD PUSH1 0x20 PUSH1 0x40 MLOAD DUP1 DUP4 SUB DUP2 PUSH1 0x0 DUP8 GAS CALL ISZERO DUP1 ISZERO PUSH2 0x230F JUMPI RETURNDATASIZE PUSH1 0x0 DUP1 RETURNDATACOPY RETURNDATASIZE PUSH1 0x0 REVERT JUMPDEST POP POP POP POP PUSH1 0x40 MLOAD RETURNDATASIZE PUSH1 0x1F NOT PUSH1 0x1F DUP3 ADD AND DUP3 ADD DUP1 PUSH1 0x40 MSTORE POP DUP2 ADD SWAP1 PUSH2 0x14D8 SWAP2 SWAP1 PUSH2 0x3A35 JUMP JUMPDEST PUSH1 0x0 DUP1 DUP1 JUMPDEST DUP4 MLOAD DUP2 LT ISZERO PUSH2 0x15D3 JUMPI PUSH1 0x0 DUP5 DUP3 DUP2 MLOAD DUP2 LT PUSH2 0x2355 JUMPI PUSH2 0x2355 PUSH2 0x38C2 JUMP JUMPDEST PUSH1 0x20 MUL PUSH1 0x20 ADD ADD MLOAD SWAP1 POP DUP6 PUSH1 0x1 PUSH1 0x1 PUSH1 0xA0 SHL SUB AND DUP2 PUSH1 0x0 ADD MLOAD PUSH1 0x1 PUSH1 0x1 PUSH1 0xA0 SHL SUB AND EQ ISZERO PUSH2 0x238F JUMPI PUSH1 0x20 DUP2 ADD MLOAD PUSH2 0x238C SWAP1 DUP5 PUSH2 0x3B02 JUMP JUMPDEST SWAP3 POP JUMPDEST POP DUP1 PUSH2 0x239A DUP2 PUSH2 0x38EE JUMP JUMPDEST SWAP2 POP POP PUSH2 0x2338 JUMP JUMPDEST PUSH1 0x0 PUSH1 0xFF DUP3 AND PUSH1 0x12 EQ ISZERO PUSH2 0x23B7 JUMPI POP DUP2 PUSH2 0x12F3 JUMP JUMPDEST PUSH1 0x12 PUSH1 0xFF DUP4 AND GT ISZERO PUSH2 0x23EA JUMPI PUSH2 0x23CE PUSH1 0x12 DUP4 PUSH2 0x3BC5 JUMP JUMPDEST PUSH2 0x23D9 SWAP1 PUSH1 0xA PUSH2 0x3CC4 JUMP JUMPDEST PUSH2 0x23E3 SWAP1 DUP5 PUSH2 0x3CD3 JUMP JUMPDEST SWAP1 POP PUSH2 0x12F3 JUMP JUMPDEST PUSH2 0x23F5 DUP3 PUSH1 0x12 PUSH2 0x3BC5 JUMP JUMPDEST PUSH2 0x2400 SWAP1 PUSH1 0xA PUSH2 0x3CC4 JUMP JUMPDEST PUSH2 0x23E3 SWAP1 DUP5 PUSH2 0x3CF5 JUMP JUMPDEST PUSH1 0x0 DUP1 PUSH2 0x2417 DUP4 DUP6 PUSH2 0x3CF5 JUMP JUMPDEST SWAP1 POP PUSH2 0x14D8 PUSH8 0xDE0B6B3A7640000 DUP3 PUSH2 0x3CD3 JUMP JUMPDEST PUSH1 0x40 MLOAD PUSH4 0xE964DA15 PUSH1 0xE0 SHL DUP2 MSTORE PUSH21 0x4759445F474C4F42414C5F535550504C595F43415 PUSH1 0x5C SHL PUSH1 0x4 DUP3 ADD MSTORE PUSH1 0x0 NOT PUSH1 0x24 DUP3 ADD MSTORE PUSH1 0x0 SWAP1 PUSH1 0x1 PUSH1 0x1 PUSH1 0xA0 SHL SUB DUP4 AND SWAP1 PUSH4 0xE964DA15 SWAP1 PUSH1 0x44 ADD PUSH1 0x20 PUSH1 0x40 MLOAD DUP1 DUP4 SUB DUP2 DUP7 GAS STATICCALL ISZERO DUP1 ISZERO PUSH2 0x2492 JUMPI RETURNDATASIZE PUSH1 0x0 DUP1 RETURNDATACOPY RETURNDATASIZE PUSH1 0x0 REVERT JUMPDEST POP POP POP POP PUSH1 0x40 MLOAD RETURNDATASIZE PUSH1 0x1F NOT PUSH1 0x1F DUP3 ADD AND DUP3 ADD DUP1 PUSH1 0x40 MSTORE POP DUP2 ADD SWAP1 PUSH2 0x12F3 SWAP2 SWAP1 PUSH2 0x3A35 JUMP JUMPDEST PUSH1 0x40 MLOAD PUSH4 0x696EB375 PUSH1 0xE0 SHL DUP2 MSTORE PUSH32 0x4341505F41555448454E5449434154494F4E5F41444452455353000000000000 PUSH1 0x4 DUP3 ADD MSTORE PUSH1 0x0 SWAP1 PUSH1 0x1 PUSH1 0x1 PUSH1 0xA0 SHL SUB DUP5 AND SWAP1 PUSH4 0x696EB375 SWAP1 PUSH1 0x24 ADD PUSH1 0x20 PUSH1 0x40 MLOAD DUP1 DUP4 SUB DUP2 DUP7 GAS STATICCALL ISZERO DUP1 ISZERO PUSH2 0x251D JUMPI RETURNDATASIZE PUSH1 0x0 DUP1 RETURNDATACOPY RETURNDATASIZE PUSH1 0x0 REVERT JUMPDEST POP POP POP POP PUSH1 0x40 MLOAD RETURNDATASIZE PUSH1 0x1F NOT PUSH1 0x1F DUP3 ADD AND DUP3 ADD DUP1 PUSH1 0x40 MSTORE POP DUP2 ADD SWAP1 PUSH2 0x2541 SWAP2 SWAP1 PUSH2 0x3B8E JUMP JUMPDEST PUSH2 0x254D JUMPI POP PUSH1 0x0 PUSH2 0x12F3 JUMP JUMPDEST PUSH1 0x40 MLOAD PUSH4 0x21F8A721 PUSH1 0xE0 SHL DUP2 MSTORE PUSH32 0x4341505F41555448454E5449434154494F4E5F41444452455353000000000000 PUSH1 0x4 DUP3 ADD MSTORE PUSH1 0x1 PUSH1 0x1 PUSH1 0xA0 SHL SUB DUP5 AND SWAP1 PUSH4 0x21F8A721 SWAP1 PUSH1 0x24 ADD PUSH1 0x20 PUSH1 0x40 MLOAD DUP1 DUP4 SUB DUP2 DUP7 GAS STATICCALL ISZERO DUP1 ISZERO PUSH2 0x25B1 JUMPI RETURNDATASIZE PUSH1 0x0 DUP1 RETURNDATACOPY RETURNDATASIZE PUSH1 0x0 REVERT JUMPDEST POP POP POP POP PUSH1 0x40 MLOAD RETURNDATASIZE PUSH1 0x1F NOT PUSH1 0x1F DUP3 ADD AND DUP3 ADD DUP1 PUSH1 0x40 MSTORE POP DUP2 ADD SWAP1 PUSH2 0x25D5 SWAP2 SWAP1 PUSH2 0x3AE5 JUMP JUMPDEST PUSH1 0x40 MLOAD PUSH4 0xD15D415 PUSH1 0xE4 SHL DUP2 MSTORE PUSH1 0x1 PUSH1 0x1 PUSH1 0xA0 SHL SUB DUP5 DUP2 AND PUSH1 0x4 DUP4 ADD MSTORE SWAP2 SWAP1 SWAP2 AND SWAP1 PUSH4 0xD15D4150 SWAP1 PUSH1 0x24 ADD PUSH1 0x20 PUSH1 0x40 MLOAD DUP1 DUP4 SUB DUP2 DUP7 GAS STATICCALL ISZERO DUP1 ISZERO PUSH2 0x261D JUMPI RETURNDATASIZE PUSH1 0x0 DUP1 RETURNDATACOPY RETURNDATASIZE PUSH1 0x0 REVERT JUMPDEST POP POP POP POP PUSH1 0x40 MLOAD RETURNDATASIZE PUSH1 0x1F NOT PUSH1 0x1F DUP3 ADD AND DUP3 ADD DUP1 PUSH1 0x40 MSTORE POP DUP2 ADD SWAP1 PUSH2 0xCFA SWAP2 SWAP1 PUSH2 0x3B8E JUMP JUMPDEST PUSH1 0x0 DUP2 ISZERO PUSH2 0x26D9 JUMPI PUSH1 0x40 MLOAD PUSH4 0xE964DA15 PUSH1 0xE0 SHL DUP2 MSTORE PUSH32 0x4759445F41555448454E544943415445445F555345525F434150000000000000 PUSH1 0x4 DUP3 ADD MSTORE PUSH1 0x0 NOT PUSH1 0x24 DUP3 ADD MSTORE PUSH1 0x1 PUSH1 0x1 PUSH1 0xA0 SHL SUB DUP5 AND SWAP1 PUSH4 0xE964DA15 SWAP1 PUSH1 0x44 ADD PUSH1 0x20 PUSH1 0x40 MLOAD DUP1 DUP4 SUB DUP2 DUP7 GAS STATICCALL ISZERO DUP1 ISZERO PUSH2 0x26B5 JUMPI RETURNDATASIZE PUSH1 0x0 DUP1 RETURNDATACOPY RETURNDATASIZE PUSH1 0x0 REVERT JUMPDEST POP POP POP POP PUSH1 0x40 MLOAD RETURNDATASIZE PUSH1 0x1F NOT PUSH1 0x1F DUP3 ADD AND DUP3 ADD DUP1 PUSH1 0x40 MSTORE POP DUP2 ADD SWAP1 PUSH2 0x23E3 SWAP2 SWAP1 PUSH2 0x3A35 JUMP JUMPDEST PUSH1 0x40 MLOAD PUSH4 0xE964DA15 PUSH1 0xE0 SHL DUP2 MSTORE PUSH12 0x4759445F555345525F43415 PUSH1 0xA4 SHL PUSH1 0x4 DUP3 ADD MSTORE PUSH1 0x0 NOT PUSH1 0x24 DUP3 ADD MSTORE PUSH1 0x1 PUSH1 0x1 PUSH1 0xA0 SHL SUB DUP5 AND SWAP1 PUSH4 0xE964DA15 SWAP1 PUSH1 0x44 ADD PUSH1 0x20 PUSH1 0x40 MLOAD DUP1 DUP4 SUB DUP2 DUP7 GAS STATICCALL ISZERO DUP1 ISZERO PUSH2 0x2734 JUMPI RETURNDATASIZE PUSH1 0x0 DUP1 RETURNDATACOPY RETURNDATASIZE PUSH1 0x0 REVERT JUMPDEST POP POP POP POP PUSH1 0x40 MLOAD RETURNDATASIZE PUSH1 0x1F NOT PUSH1 0x1F DUP3 ADD AND DUP3 ADD DUP1 PUSH1 0x40 MSTORE POP DUP2 ADD SWAP1 PUSH2 0xCFA SWAP2 SWAP1 PUSH2 0x3A35 JUMP JUMPDEST PUSH1 0x0 PUSH2 0x2762 PUSH2 0x3069 JUMP JUMPDEST PUSH1 0x0 JUMPDEST DUP4 MLOAD DUP2 LT ISZERO PUSH2 0x2824 JUMPI PUSH1 0x0 DUP5 DUP3 DUP2 MLOAD DUP2 LT PUSH2 0x2782 JUMPI PUSH2 0x2782 PUSH2 0x38C2 JUMP JUMPDEST PUSH1 0x20 MUL PUSH1 0x20 ADD ADD MLOAD SWAP1 POP DUP1 PUSH1 0x0 ADD MLOAD PUSH1 0x1 PUSH1 0x1 PUSH1 0xA0 SHL SUB AND DUP8 PUSH1 0x60 ADD PUSH1 0x20 DUP2 ADD SWAP1 PUSH2 0x27AD SWAP2 SWAP1 PUSH2 0x3363 JUMP JUMPDEST PUSH1 0x1 PUSH1 0x1 PUSH1 0xA0 SHL SUB AND EQ ISZERO PUSH2 0x2811 JUMPI PUSH1 0x0 PUSH2 0x27CC DUP8 PUSH1 0x40 DUP11 ADD CALLDATALOAD PUSH2 0x240A JUMP JUMPDEST SWAP1 POP PUSH1 0x0 PUSH2 0x27E7 DUP4 PUSH1 0x60 ADD MLOAD DUP4 PUSH2 0x2FAA SWAP1 SWAP2 SWAP1 PUSH4 0xFFFFFFFF AND JUMP JUMPDEST SWAP1 POP PUSH1 0x0 PUSH2 0x2802 DUP5 PUSH1 0x20 ADD MLOAD DUP4 PUSH2 0x3012 SWAP1 SWAP2 SWAP1 PUSH4 0xFFFFFFFF AND JUMP JUMPDEST SWAP7 POP SWAP3 SWAP5 POP PUSH2 0x9F6 SWAP4 POP POP POP POP JUMP JUMPDEST POP DUP1 PUSH2 0x281C DUP2 PUSH2 0x38EE JUMP JUMPDEST SWAP2 POP POP PUSH2 0x2765 JUMP JUMPDEST POP PUSH1 0x40 DUP1 MLOAD DUP1 DUP3 ADD DUP3 MSTORE PUSH1 0x2 DUP2 MSTORE PUSH2 0x3331 PUSH1 0xF0 SHL PUSH1 0x20 DUP3 ADD MSTORE SWAP1 MLOAD PUSH3 0x461BCD PUSH1 0xE5 SHL DUP2 MSTORE PUSH2 0x28C SWAP2 SWAP1 PUSH1 0x4 ADD PUSH2 0x3380 JUMP JUMPDEST PUSH1 0x0 DUP1 JUMPDEST DUP4 MLOAD DUP2 LT ISZERO PUSH2 0x28C2 JUMPI PUSH1 0x0 DUP5 DUP3 DUP2 MLOAD DUP2 LT PUSH2 0x2876 JUMPI PUSH2 0x2876 PUSH2 0x38C2 JUMP JUMPDEST PUSH1 0x20 MUL PUSH1 0x20 ADD ADD MLOAD SWAP1 POP DUP4 PUSH1 0x1 PUSH1 0x1 PUSH1 0xA0 SHL SUB AND DUP2 PUSH1 0x0 ADD MLOAD PUSH1 0x0 ADD MLOAD PUSH1 0x1 PUSH1 0x1 PUSH1 0xA0 SHL SUB AND EQ ISZERO PUSH2 0x28AF JUMPI PUSH1 0x20 ADD MLOAD SWAP2 POP PUSH2 0x12F3 SWAP1 POP JUMP JUMPDEST POP DUP1 PUSH2 0x28BA DUP2 PUSH2 0x38EE JUMP JUMPDEST SWAP2 POP POP PUSH2 0x2859 JUMP JUMPDEST POP PUSH1 0x0 SWAP4 SWAP3 POP POP POP JUMP JUMPDEST PUSH1 0x0 PUSH1 0x60 DUP2 PUSH2 0x28E0 PUSH1 0x80 DUP7 ADD DUP7 DUP5 ADD PUSH2 0x3363 JUMP JUMPDEST SWAP1 POP PUSH1 0x1 PUSH1 0x1 PUSH1 0xA0 SHL SUB DUP2 AND PUSH2 0x28F9 PUSH1 0x20 DUP8 ADD DUP8 PUSH2 0x3363 JUMP JUMPDEST PUSH1 0x1 PUSH1 0x1 PUSH1 0xA0 SHL SUB AND EQ ISZERO PUSH2 0x2921 JUMPI POP POP PUSH1 0x40 DUP1 MLOAD PUSH1 0x20 DUP2 ADD SWAP1 SWAP2 MSTORE PUSH1 0x0 DUP2 MSTORE DUP3 SWAP2 POP PUSH2 0x1F25 JUMP JUMPDEST DUP1 PUSH1 0x1 PUSH1 0x1 PUSH1 0xA0 SHL SUB AND PUSH4 0x6F307DC3 PUSH1 0x40 MLOAD DUP2 PUSH4 0xFFFFFFFF AND PUSH1 0xE0 SHL DUP2 MSTORE PUSH1 0x4 ADD PUSH1 0x20 PUSH1 0x40 MLOAD DUP1 DUP4 SUB DUP2 DUP7 GAS STATICCALL ISZERO DUP1 ISZERO PUSH2 0x295F JUMPI RETURNDATASIZE PUSH1 0x0 DUP1 RETURNDATACOPY RETURNDATASIZE PUSH1 0x0 REVERT JUMPDEST POP POP POP POP PUSH1 0x40 MLOAD RETURNDATASIZE PUSH1 0x1F NOT PUSH1 0x1F DUP3 ADD AND DUP3 ADD DUP1 PUSH1 0x40 MSTORE POP DUP2 ADD SWAP1 PUSH2 0x2983 SWAP2 SWAP1 PUSH2 0x3AE5 JUMP JUMPDEST PUSH1 0x1 PUSH1 0x1 PUSH1 0xA0 SHL SUB AND PUSH2 0x2999 PUSH1 0x20 DUP8 ADD DUP8 PUSH2 0x3363 JUMP JUMPDEST PUSH1 0x1 PUSH1 0x1 PUSH1 0xA0 SHL SUB AND EQ PUSH2 0x29CB JUMPI POP POP PUSH1 0x40 DUP1 MLOAD DUP1 DUP3 ADD SWAP1 SWAP2 MSTORE PUSH1 0x2 DUP2 MSTORE PUSH2 0x3335 PUSH1 0xF0 SHL PUSH1 0x20 DUP3 ADD MSTORE PUSH1 0x0 SWAP2 POP PUSH2 0x1F25 JUMP JUMPDEST PUSH1 0x40 MLOAD PUSH4 0x70A08231 PUSH1 0xE0 SHL DUP2 MSTORE PUSH1 0x1 PUSH1 0x1 PUSH1 0xA0 SHL SUB PUSH32 0x0 DUP2 AND PUSH1 0x4 DUP4 ADD MSTORE PUSH1 0x0 SWAP2 SWAP1 DUP4 AND SWAP1 PUSH4 0x70A08231 SWAP1 PUSH1 0x24 ADD PUSH1 0x20 PUSH1 0x40 MLOAD DUP1 DUP4 SUB DUP2 DUP7 GAS STATICCALL ISZERO DUP1 ISZERO PUSH2 0x2A35 JUMPI RETURNDATASIZE PUSH1 0x0 DUP1 RETURNDATACOPY RETURNDATASIZE PUSH1 0x0 REVERT JUMPDEST POP POP POP POP PUSH1 0x40 MLOAD RETURNDATASIZE PUSH1 0x1F NOT PUSH1 0x1F DUP3 ADD AND DUP3 ADD DUP1 PUSH1 0x40 MSTORE POP DUP2 ADD SWAP1 PUSH2 0x2A59 SWAP2 SWAP1 PUSH2 0x3A35 JUMP JUMPDEST SWAP1 POP DUP5 DUP2 LT ISZERO PUSH2 0x2A8B JUMPI PUSH1 0x0 PUSH1 0x40 MLOAD DUP1 PUSH1 0x40 ADD PUSH1 0x40 MSTORE DUP1 PUSH1 0x2 DUP2 MSTORE PUSH1 0x20 ADD PUSH2 0xCCD PUSH1 0xF2 SHL DUP2 MSTORE POP SWAP4 POP SWAP4 POP POP POP PUSH2 0x1F25 JUMP JUMPDEST PUSH1 0x40 MLOAD PUSH4 0xCC04FEFF PUSH1 0xE0 SHL DUP2 MSTORE PUSH1 0x4 DUP2 ADD DUP7 SWAP1 MSTORE PUSH1 0x0 PUSH1 0x24 DUP3 ADD MSTORE PUSH1 0x1 PUSH1 0x1 PUSH1 0xA0 SHL SUB DUP4 AND SWAP1 PUSH4 0xCC04FEFF SWAP1 PUSH1 0x44 ADD PUSH1 0x0 PUSH1 0x40 MLOAD DUP1 DUP4 SUB DUP2 DUP7 GAS STATICCALL ISZERO DUP1 ISZERO PUSH2 0x2AD7 JUMPI RETURNDATASIZE PUSH1 0x0 DUP1 RETURNDATACOPY RETURNDATASIZE PUSH1 0x0 REVERT JUMPDEST POP POP POP POP PUSH1 0x40 MLOAD RETURNDATASIZE PUSH1 0x0 DUP3 RETURNDATACOPY PUSH1 0x1F RETURNDATASIZE SWAP1 DUP2 ADD PUSH1 0x1F NOT AND DUP3 ADD PUSH1 0x40 MSTORE PUSH2 0x2AFF SWAP2 SWAP1 DUP2 ADD SWAP1 PUSH2 0x3D14 JUMP JUMPDEST SWAP4 POP SWAP4 POP POP POP SWAP3 POP SWAP3 SWAP1 POP JUMP JUMPDEST PUSH1 0x60 DUP3 ADD MLOAD PUSH1 0x40 MLOAD PUSH4 0x13C50353 PUSH1 0xE3 SHL DUP2 MSTORE PUSH1 0x1 PUSH1 0x1 PUSH1 0xA0 SHL SUB DUP1 DUP4 AND PUSH1 0x4 DUP4 ADD MSTORE PUSH1 0x24 DUP3 ADD DUP5 SWAP1 MSTORE PUSH1 0x0 SWAP3 SWAP2 PUSH32 0x0 SWAP1 SWAP2 AND SWAP1 PUSH4 0x9E281A98 SWAP1 PUSH1 0x44 ADD PUSH1 0x0 PUSH1 0x40 MLOAD DUP1 DUP4 SUB DUP2 PUSH1 0x0 DUP8 DUP1 EXTCODESIZE ISZERO DUP1 ISZERO PUSH2 0x2B81 JUMPI PUSH1 0x0 DUP1 REVERT JUMPDEST POP GAS CALL ISZERO DUP1 ISZERO PUSH2 0x2B95 JUMPI RETURNDATASIZE PUSH1 0x0 DUP1 RETURNDATACOPY RETURNDATASIZE PUSH1 0x0 REVERT JUMPDEST POP POP POP POP DUP1 PUSH1 0x1 PUSH1 0x1 PUSH1 0xA0 SHL SUB AND DUP5 PUSH1 0x0 ADD MLOAD PUSH1 0x1 PUSH1 0x1 PUSH1 0xA0 SHL SUB AND EQ ISZERO PUSH2 0x2BC0 JUMPI DUP3 SWAP2 POP POP PUSH2 0x12F3 JUMP JUMPDEST DUP1 PUSH1 0x1 PUSH1 0x1 PUSH1 0xA0 SHL SUB AND PUSH4 0x6F307DC3 PUSH1 0x40 MLOAD DUP2 PUSH4 0xFFFFFFFF AND PUSH1 0xE0 SHL DUP2 MSTORE PUSH1 0x4 ADD PUSH1 0x20 PUSH1 0x40 MLOAD DUP1 DUP4 SUB DUP2 DUP7 GAS STATICCALL ISZERO DUP1 ISZERO PUSH2 0x2BFE JUMPI RETURNDATASIZE PUSH1 0x0 DUP1 RETURNDATACOPY RETURNDATASIZE PUSH1 0x0 REVERT JUMPDEST POP POP POP POP PUSH1 0x40 MLOAD RETURNDATASIZE PUSH1 0x1F NOT PUSH1 0x1F DUP3 ADD AND DUP3 ADD DUP1 PUSH1 0x40 MSTORE POP DUP2 ADD SWAP1 PUSH2 0x2C22 SWAP2 SWAP1 PUSH2 0x3AE5 JUMP JUMPDEST PUSH1 0x1 PUSH1 0x1 PUSH1 0xA0 SHL SUB AND DUP5 PUSH1 0x0 ADD MLOAD PUSH1 0x1 PUSH1 0x1 PUSH1 0xA0 SHL SUB AND EQ PUSH1 0x40 MLOAD DUP1 PUSH1 0x40 ADD PUSH1 0x40 MSTORE DUP1 PUSH1 0x2 DUP2 MSTORE PUSH1 0x20 ADD PUSH2 0x3335 PUSH1 0xF0 SHL DUP2 MSTORE POP SWAP1 PUSH2 0x2C73 JUMPI PUSH1 0x40 MLOAD PUSH3 0x461BCD PUSH1 0xE5 SHL DUP2 MSTORE PUSH1 0x4 ADD PUSH2 0x28C SWAP2 SWAP1 PUSH2 0x3380 JUMP JUMPDEST POP PUSH1 0x40 MLOAD PUSH4 0x441A3E7 PUSH1 0xE4 SHL DUP2 MSTORE PUSH1 0x4 DUP2 ADD DUP5 SWAP1 MSTORE PUSH1 0x0 PUSH1 0x24 DUP3 ADD MSTORE PUSH1 0x1 PUSH1 0x1 PUSH1 0xA0 SHL SUB DUP3 AND SWAP1 PUSH4 0x441A3E70 SWAP1 PUSH1 0x44 ADD PUSH1 0x20 PUSH1 0x40 MLOAD DUP1 DUP4 SUB DUP2 PUSH1 0x0 DUP8 GAS CALL ISZERO DUP1 ISZERO PUSH2 0x2CC2 JUMPI RETURNDATASIZE PUSH1 0x0 DUP1 RETURNDATACOPY RETURNDATASIZE PUSH1 0x0 REVERT JUMPDEST POP POP POP POP PUSH1 0x40 MLOAD RETURNDATASIZE PUSH1 0x1F NOT PUSH1 0x1F DUP3 ADD AND DUP3 ADD DUP1 PUSH1 0x40 MSTORE POP DUP2 ADD SWAP1 PUSH2 0x2CE6 SWAP2 SWAP1 PUSH2 0x3A35 JUMP JUMPDEST SWAP2 POP POP PUSH2 0x12F3 JUMP JUMPDEST PUSH1 0x0 PUSH1 0x60 PUSH2 0x2D01 DUP4 DUP3 ADD PUSH1 0x40 DUP6 ADD PUSH2 0x3363 JUMP JUMPDEST PUSH1 0x1 PUSH1 0x1 PUSH1 0xA0 SHL SUB AND PUSH2 0x2D17 PUSH1 0x20 DUP6 ADD DUP6 PUSH2 0x3363 JUMP JUMPDEST PUSH1 0x1 PUSH1 0x1 PUSH1 0xA0 SHL SUB AND EQ ISZERO PUSH2 0x2D3E JUMPI POP POP PUSH1 0x40 DUP1 MLOAD PUSH1 0x20 DUP2 DUP2 ADD SWAP1 SWAP3 MSTORE PUSH1 0x0 DUP2 MSTORE SWAP2 ADD CALLDATALOAD SWAP2 JUMP JUMPDEST PUSH1 0x0 PUSH2 0x2D50 PUSH1 0x60 DUP6 ADD PUSH1 0x40 DUP7 ADD PUSH2 0x3363 JUMP JUMPDEST SWAP1 POP DUP1 PUSH1 0x1 PUSH1 0x1 PUSH1 0xA0 SHL SUB AND PUSH4 0x6F307DC3 PUSH1 0x40 MLOAD DUP2 PUSH4 0xFFFFFFFF AND PUSH1 0xE0 SHL DUP2 MSTORE PUSH1 0x4 ADD PUSH1 0x20 PUSH1 0x40 MLOAD DUP1 DUP4 SUB DUP2 DUP7 GAS STATICCALL ISZERO DUP1 ISZERO PUSH2 0x2D90 JUMPI RETURNDATASIZE PUSH1 0x0 DUP1 RETURNDATACOPY RETURNDATASIZE PUSH1 0x0 REVERT JUMPDEST POP POP POP POP PUSH1 0x40 MLOAD RETURNDATASIZE PUSH1 0x1F NOT PUSH1 0x1F DUP3 ADD AND DUP3 ADD DUP1 PUSH1 0x40 MSTORE POP DUP2 ADD SWAP1 PUSH2 0x2DB4 SWAP2 SWAP1 PUSH2 0x3AE5 JUMP JUMPDEST PUSH1 0x1 PUSH1 0x1 PUSH1 0xA0 SHL SUB AND PUSH2 0x2DCA PUSH1 0x20 DUP7 ADD DUP7 PUSH2 0x3363 JUMP JUMPDEST PUSH1 0x1 PUSH1 0x1 PUSH1 0xA0 SHL SUB AND EQ ISZERO PUSH2 0x2E5A JUMPI PUSH1 0x40 MLOAD PUSH4 0x2A8695B1 PUSH1 0xE1 SHL DUP2 MSTORE PUSH1 0x20 DUP6 ADD CALLDATALOAD PUSH1 0x4 DUP3 ADD MSTORE PUSH1 0x0 PUSH1 0x24 DUP3 ADD MSTORE PUSH1 0x1 PUSH1 0x1 PUSH1 0xA0 SHL SUB DUP3 AND SWAP1 PUSH4 0x550D2B62 SWAP1 PUSH1 0x44 ADD PUSH1 0x0 PUSH1 0x40 MLOAD DUP1 DUP4 SUB DUP2 DUP7 GAS STATICCALL ISZERO DUP1 ISZERO PUSH2 0x2E28 JUMPI RETURNDATASIZE PUSH1 0x0 DUP1 RETURNDATACOPY RETURNDATASIZE PUSH1 0x0 REVERT JUMPDEST POP POP POP POP PUSH1 0x40 MLOAD RETURNDATASIZE PUSH1 0x0 DUP3 RETURNDATACOPY PUSH1 0x1F RETURNDATASIZE SWAP1 DUP2 ADD PUSH1 0x1F NOT AND DUP3 ADD PUSH1 0x40 MSTORE PUSH2 0x2E50 SWAP2 SWAP1 DUP2 ADD SWAP1 PUSH2 0x3D14 JUMP JUMPDEST SWAP3 POP SWAP3 POP POP SWAP2 POP SWAP2 JUMP JUMPDEST PUSH1 0x0 PUSH1 0x40 MLOAD DUP1 PUSH1 0x40 ADD PUSH1 0x40 MSTORE DUP1 PUSH1 0x2 DUP2 MSTORE PUSH1 0x20 ADD PUSH2 0x3335 PUSH1 0xF0 SHL DUP2 MSTORE POP SWAP3 POP SWAP3 POP POP SWAP2 POP SWAP2 JUMP JUMPDEST PUSH1 0x60 DUP4 ISZERO PUSH2 0x2E90 JUMPI POP DUP2 PUSH2 0xCFA JUMP JUMPDEST DUP3 MLOAD ISZERO PUSH2 0x2EA0 JUMPI DUP3 MLOAD DUP1 DUP5 PUSH1 0x20 ADD REVERT JUMPDEST DUP2 PUSH1 0x40 MLOAD PUSH3 0x461BCD PUSH1 0xE5 SHL DUP2 MSTORE PUSH1 0x4 ADD PUSH2 0x28C SWAP2 SWAP1 PUSH2 0x3380 JUMP JUMPDEST PUSH1 0x40 MLOAD PUSH1 0x1 PUSH1 0x1 PUSH1 0xA0 SHL SUB DUP1 DUP6 AND PUSH1 0x24 DUP4 ADD MSTORE DUP4 AND PUSH1 0x44 DUP3 ADD MSTORE PUSH1 0x64 DUP2 ADD DUP3 SWAP1 MSTORE PUSH2 0x2EF2 SWAP1 DUP6 SWAP1 PUSH4 0x23B872DD PUSH1 0xE0 SHL SWAP1 PUSH1 0x84 ADD PUSH2 0x148D JUMP JUMPDEST POP POP POP POP JUMP JUMPDEST PUSH1 0x40 MLOAD PUSH4 0x6EB1769F PUSH1 0xE1 SHL DUP2 MSTORE ADDRESS PUSH1 0x4 DUP3 ADD MSTORE PUSH1 0x1 PUSH1 0x1 PUSH1 0xA0 SHL SUB DUP4 DUP2 AND PUSH1 0x24 DUP4 ADD MSTORE PUSH1 0x0 SWAP2 DUP4 SWAP2 DUP7 AND SWAP1 PUSH4 0xDD62ED3E SWAP1 PUSH1 0x44 ADD PUSH1 0x20 PUSH1 0x40 MLOAD DUP1 DUP4 SUB DUP2 DUP7 GAS STATICCALL ISZERO DUP1 ISZERO PUSH2 0x2F49 JUMPI RETURNDATASIZE PUSH1 0x0 DUP1 RETURNDATACOPY RETURNDATASIZE PUSH1 0x0 REVERT JUMPDEST POP POP POP POP PUSH1 0x40 MLOAD RETURNDATASIZE PUSH1 0x1F NOT PUSH1 0x1F DUP3 ADD AND DUP3 ADD DUP1 PUSH1 0x40 MSTORE POP DUP2 ADD SWAP1 PUSH2 0x2F6D SWAP2 SWAP1 PUSH2 0x3A35 JUMP JUMPDEST PUSH2 0x2F77 SWAP2 SWAP1 PUSH2 0x3B02 JUMP JUMPDEST PUSH1 0x40 MLOAD PUSH1 0x1 PUSH1 0x1 PUSH1 0xA0 SHL SUB DUP6 AND PUSH1 0x24 DUP3 ADD MSTORE PUSH1 0x44 DUP2 ADD DUP3 SWAP1 MSTORE SWAP1 SWAP2 POP PUSH2 0x2EF2 SWAP1 DUP6 SWAP1 PUSH4 0x95EA7B3 PUSH1 0xE0 SHL SWAP1 PUSH1 0x64 ADD PUSH2 0x148D JUMP JUMPDEST PUSH1 0x40 DUP1 MLOAD DUP1 DUP3 ADD SWAP1 SWAP2 MSTORE PUSH1 0x2 DUP2 MSTORE PUSH2 0x3235 PUSH1 0xF0 SHL PUSH1 0x20 DUP3 ADD MSTORE PUSH1 0x0 SWAP1 DUP3 PUSH2 0x2FE4 JUMPI PUSH1 0x40 MLOAD PUSH3 0x461BCD PUSH1 0xE5 SHL DUP2 MSTORE PUSH1 0x4 ADD PUSH2 0x28C SWAP2 SWAP1 PUSH2 0x3380 JUMP JUMPDEST POP DUP3 PUSH2 0x2FF2 JUMPI POP PUSH1 0x0 PUSH2 0x12F3 JUMP JUMPDEST PUSH1 0x0 PUSH2 0x3006 PUSH8 0xDE0B6B3A7640000 DUP6 PUSH2 0x3CF5 JUMP JUMPDEST SWAP1 POP PUSH2 0x2CE6 DUP4 DUP3 PUSH2 0x3CD3 JUMP JUMPDEST PUSH1 0x0 PUSH1 0xFF DUP3 AND PUSH1 0x12 EQ ISZERO PUSH2 0x3027 JUMPI POP DUP2 PUSH2 0x12F3 JUMP JUMPDEST PUSH1 0x12 PUSH1 0xFF DUP4 AND GT ISZERO PUSH2 0x303E JUMPI PUSH2 0x23F5 PUSH1 0x12 DUP4 PUSH2 0x3BC5 JUMP JUMPDEST PUSH2 0x23CE DUP3 PUSH1 0x12 PUSH2 0x3BC5 JUMP JUMPDEST PUSH1 0x40 MLOAD DUP1 PUSH1 0x40 ADD PUSH1 0x40 MSTORE DUP1 PUSH2 0x305C PUSH2 0x3069 JUMP JUMPDEST DUP2 MSTORE PUSH1 0x20 ADD PUSH1 0x0 DUP2 MSTORE POP SWAP1 JUMP JUMPDEST PUSH1 0x40 MLOAD DUP1 PUSH2 0x120 ADD PUSH1 0x40 MSTORE DUP1 PUSH1 0x0 PUSH1 0x1 PUSH1 0x1 PUSH1 0xA0 SHL SUB AND DUP2 MSTORE PUSH1 0x20 ADD PUSH1 0x0 PUSH1 0xFF AND DUP2 MSTORE PUSH1 0x20 ADD PUSH1 0x0 PUSH1 0x1 PUSH1 0x1 PUSH1 0xA0 SHL SUB AND DUP2 MSTORE PUSH1 0x20 ADD PUSH1 0x0 DUP2 MSTORE PUSH1 0x20 ADD PUSH2 0x30D1 PUSH1 0x40 MLOAD DUP1 PUSH1 0x80 ADD PUSH1 0x40 MSTORE DUP1 PUSH1 0x0 DUP2 MSTORE PUSH1 0x20 ADD PUSH1 0x0 DUP2 MSTORE PUSH1 0x20 ADD PUSH1 0x0 DUP2 MSTORE PUSH1 0x20 ADD PUSH1 0x0 DUP2 MSTORE POP SWAP1 JUMP JUMPDEST DUP2 MSTORE PUSH1 0x20 ADD PUSH1 0x0 DUP2 MSTORE PUSH1 0x20 ADD PUSH1 0x0 DUP2 MSTORE PUSH1 0x20 ADD PUSH1 0x0 DUP2 MSTORE PUSH1 0x20 ADD PUSH1 0x60 DUP2 MSTORE POP SWAP1 JUMP JUMPDEST PUSH1 0x0 DUP1 DUP4 PUSH1 0x1F DUP5 ADD SLT PUSH2 0x3105 JUMPI PUSH1 0x0 DUP1 REVERT JUMPDEST POP DUP2 CALLDATALOAD PUSH1 0x1 PUSH1 0x1 PUSH1 0x40 SHL SUB DUP2 GT ISZERO PUSH2 0x311C JUMPI PUSH1 0x0 DUP1 REVERT JUMPDEST PUSH1 0x20 DUP4 ADD SWAP2 POP DUP4 PUSH1 0x20 PUSH1 0x60 DUP4 MUL DUP6 ADD ADD GT ISZERO PUSH2 0x1F25 JUMPI PUSH1 0x0 DUP1 REVERT JUMPDEST PUSH1 0x0 DUP1 PUSH1 0x0 PUSH1 0x40 DUP5 DUP7 SUB SLT ISZERO PUSH2 0x314C JUMPI PUSH1 0x0 DUP1 REVERT JUMPDEST DUP4 CALLDATALOAD PUSH1 0x1 PUSH1 0x1 PUSH1 0x40 SHL SUB DUP2 GT ISZERO PUSH2 0x3162 JUMPI PUSH1 0x0 DUP1 REVERT JUMPDEST PUSH2 0x316E DUP7 DUP3 DUP8 ADD PUSH2 0x30F3 JUMP JUMPDEST SWAP1 SWAP8 SWAP1 SWAP7 POP PUSH1 0x20 SWAP6 SWAP1 SWAP6 ADD CALLDATALOAD SWAP5 SWAP4 POP POP POP POP JUMP JUMPDEST PUSH1 0x0 DUP1 PUSH1 0x0 PUSH1 0x40 DUP5 DUP7 SUB SLT ISZERO PUSH2 0x3197 JUMPI PUSH1 0x0 DUP1 REVERT JUMPDEST DUP4 CALLDATALOAD SWAP3 POP PUSH1 0x20 DUP5 ADD CALLDATALOAD PUSH1 0x1 PUSH1 0x1 PUSH1 0x40 SHL SUB DUP1 DUP3 GT ISZERO PUSH2 0x31B5 JUMPI PUSH1 0x0 DUP1 REVERT JUMPDEST DUP2 DUP7 ADD SWAP2 POP DUP7 PUSH1 0x1F DUP4 ADD SLT PUSH2 0x31C9 JUMPI PUSH1 0x0 DUP1 REVERT JUMPDEST DUP2 CALLDATALOAD DUP2 DUP2 GT ISZERO PUSH2 0x31D8 JUMPI PUSH1 0x0 DUP1 REVERT JUMPDEST DUP8 PUSH1 0x20 DUP3 PUSH1 0x7 SHL DUP6 ADD ADD GT ISZERO PUSH2 0x31ED JUMPI PUSH1 0x0 DUP1 REVERT JUMPDEST PUSH1 0x20 DUP4 ADD SWAP5 POP DUP1 SWAP4 POP POP POP POP SWAP3 POP SWAP3 POP SWAP3 JUMP JUMPDEST PUSH1 0x0 DUP2 MLOAD DUP1 DUP5 MSTORE PUSH1 0x20 DUP1 DUP6 ADD SWAP5 POP DUP1 DUP5 ADD PUSH1 0x0 JUMPDEST DUP4 DUP2 LT ISZERO PUSH2 0x3230 JUMPI DUP2 MLOAD DUP8 MSTORE SWAP6 DUP3 ADD SWAP6 SWAP1 DUP3 ADD SWAP1 PUSH1 0x1 ADD PUSH2 0x3214 JUMP JUMPDEST POP SWAP5 SWAP6 SWAP5 POP POP POP POP POP JUMP JUMPDEST PUSH1 0x0 JUMPDEST DUP4 DUP2 LT ISZERO PUSH2 0x3256 JUMPI DUP2 DUP2 ADD MLOAD DUP4 DUP3 ADD MSTORE PUSH1 0x20 ADD PUSH2 0x323E JUMP JUMPDEST DUP4 DUP2 GT ISZERO PUSH2 0x2EF2 JUMPI POP POP PUSH1 0x0 SWAP2 ADD MSTORE JUMP JUMPDEST PUSH1 0x0 DUP2 MLOAD DUP1 DUP5 MSTORE PUSH2 0x327F DUP2 PUSH1 0x20 DUP7 ADD PUSH1 0x20 DUP7 ADD PUSH2 0x323B JUMP JUMPDEST PUSH1 0x1F ADD PUSH1 0x1F NOT AND SWAP3 SWAP1 SWAP3 ADD PUSH1 0x20 ADD SWAP3 SWAP2 POP POP JUMP JUMPDEST PUSH1 0x40 DUP2 MSTORE PUSH1 0x0 PUSH2 0x32A6 PUSH1 0x40 DUP4 ADD DUP6 PUSH2 0x3200 JUMP JUMPDEST DUP3 DUP2 SUB PUSH1 0x20 DUP5 ADD MSTORE PUSH2 0x32B8 DUP2 DUP6 PUSH2 0x3267 JUMP JUMPDEST SWAP6 SWAP5 POP POP POP POP POP JUMP JUMPDEST PUSH1 0x20 DUP2 MSTORE PUSH1 0x0 PUSH2 0xCFA PUSH1 0x20 DUP4 ADD DUP5 PUSH2 0x3200 JUMP JUMPDEST PUSH1 0x1 PUSH1 0x1 PUSH1 0xA0 SHL SUB DUP2 AND DUP2 EQ PUSH2 0x32E9 JUMPI PUSH1 0x0 DUP1 REVERT JUMPDEST POP JUMP JUMPDEST PUSH1 0x0 DUP1 PUSH1 0x0 DUP1 PUSH1 0x60 DUP6 DUP8 SUB SLT ISZERO PUSH2 0x3302 JUMPI PUSH1 0x0 DUP1 REVERT JUMPDEST DUP5 CALLDATALOAD PUSH1 0x1 PUSH1 0x1 PUSH1 0x40 SHL SUB DUP2 GT ISZERO PUSH2 0x3318 JUMPI PUSH1 0x0 DUP1 REVERT JUMPDEST PUSH2 0x3324 DUP8 DUP3 DUP9 ADD PUSH2 0x30F3 JUMP JUMPDEST SWAP1 SWAP6 POP SWAP4 POP POP PUSH1 0x20 DUP6 ADD CALLDATALOAD SWAP2 POP PUSH1 0x40 DUP6 ADD CALLDATALOAD PUSH2 0x333F DUP2 PUSH2 0x32D4 JUMP JUMPDEST SWAP4 SWAP7 SWAP3 SWAP6 POP SWAP1 SWAP4 POP POP JUMP JUMPDEST DUP3 DUP2 MSTORE PUSH1 0x40 PUSH1 0x20 DUP3 ADD MSTORE PUSH1 0x0 PUSH2 0x14D8 PUSH1 0x40 DUP4 ADD DUP5 PUSH2 0x3267 JUMP JUMPDEST PUSH1 0x0 PUSH1 0x20 DUP3 DUP5 SUB SLT ISZERO PUSH2 0x3375 JUMPI PUSH1 0x0 DUP1 REVERT JUMPDEST DUP2 CALLDATALOAD PUSH2 0xCFA DUP2 PUSH2 0x32D4 JUMP JUMPDEST PUSH1 0x20 DUP2 MSTORE PUSH1 0x0 PUSH2 0xCFA PUSH1 0x20 DUP4 ADD DUP5 PUSH2 0x3267 JUMP JUMPDEST PUSH4 0x4E487B71 PUSH1 0xE0 SHL PUSH1 0x0 MSTORE PUSH1 0x41 PUSH1 0x4 MSTORE PUSH1 0x24 PUSH1 0x0 REVERT JUMPDEST PUSH1 0x40 MLOAD PUSH1 0x60 DUP2 ADD PUSH1 0x1 PUSH1 0x1 PUSH1 0x40 SHL SUB DUP2 GT DUP3 DUP3 LT OR ISZERO PUSH2 0x33CB JUMPI PUSH2 0x33CB PUSH2 0x3393 JUMP JUMPDEST PUSH1 0x40 MSTORE SWAP1 JUMP JUMPDEST PUSH1 0x40 MLOAD PUSH2 0x120 DUP2 ADD PUSH1 0x1 PUSH1 0x1 PUSH1 0x40 SHL SUB DUP2 GT DUP3 DUP3 LT OR ISZERO PUSH2 0x33CB JUMPI PUSH2 0x33CB PUSH2 0x3393 JUMP JUMPDEST PUSH1 0x40 DUP1 MLOAD SWAP1 DUP2 ADD PUSH1 0x1 PUSH1 0x1 PUSH1 0x40 SHL SUB DUP2 GT DUP3 DUP3 LT OR ISZERO PUSH2 0x33CB JUMPI PUSH2 0x33CB PUSH2 0x3393 JUMP JUMPDEST PUSH1 0x40 MLOAD PUSH1 0x1F DUP3 ADD PUSH1 0x1F NOT AND DUP2 ADD PUSH1 0x1 PUSH1 0x1 PUSH1 0x40 SHL SUB DUP2 GT DUP3 DUP3 LT OR ISZERO PUSH2 0x343E JUMPI PUSH2 0x343E PUSH2 0x3393 JUMP JUMPDEST PUSH1 0x40 MSTORE SWAP2 SWAP1 POP JUMP JUMPDEST PUSH1 0x0 PUSH1 0x1 PUSH1 0x1 PUSH1 0x40 SHL SUB DUP3 GT ISZERO PUSH2 0x345F JUMPI PUSH2 0x345F PUSH2 0x3393 JUMP JUMPDEST POP PUSH1 0x5 SHL PUSH1 0x20 ADD SWAP1 JUMP JUMPDEST DUP1 MLOAD PUSH2 0x3474 DUP2 PUSH2 0x32D4 JUMP JUMPDEST SWAP2 SWAP1 POP JUMP JUMPDEST DUP1 MLOAD PUSH1 0xFF DUP2 AND DUP2 EQ PUSH2 0x3474 JUMPI PUSH1 0x0 DUP1 REVERT JUMPDEST PUSH1 0x0 PUSH1 0x80 DUP3 DUP5 SUB SLT ISZERO PUSH2 0x349C JUMPI PUSH1 0x0 DUP1 REVERT JUMPDEST PUSH1 0x40 MLOAD PUSH1 0x80 DUP2 ADD DUP2 DUP2 LT PUSH1 0x1 PUSH1 0x1 PUSH1 0x40 SHL SUB DUP3 GT OR ISZERO PUSH2 0x34BE JUMPI PUSH2 0x34BE PUSH2 0x3393 JUMP JUMPDEST DUP1 PUSH1 0x40 MSTORE POP DUP1 SWAP2 POP DUP3 MLOAD DUP2 MSTORE PUSH1 0x20 DUP4 ADD MLOAD PUSH1 0x20 DUP3 ADD MSTORE PUSH1 0x40 DUP4 ADD MLOAD PUSH1 0x40 DUP3 ADD MSTORE PUSH1 0x60 DUP4 ADD MLOAD PUSH1 0x60 DUP3 ADD MSTORE POP SWAP3 SWAP2 POP POP JUMP JUMPDEST DUP1 MLOAD DUP1 ISZERO ISZERO DUP2 EQ PUSH2 0x3474 JUMPI PUSH1 0x0 DUP1 REVERT JUMPDEST PUSH1 0x0 DUP3 PUSH1 0x1F DUP4 ADD SLT PUSH2 0x3510 JUMPI PUSH1 0x0 DUP1 REVERT JUMPDEST DUP2 MLOAD PUSH1 0x20 PUSH2 0x3525 PUSH2 0x3520 DUP4 PUSH2 0x3446 JUMP JUMPDEST PUSH2 0x3416 JUMP JUMPDEST DUP3 DUP2 MSTORE PUSH1 0x60 SWAP3 DUP4 MUL DUP6 ADD DUP3 ADD SWAP3 DUP3 DUP3 ADD SWAP2 SWAP1 DUP8 DUP6 GT ISZERO PUSH2 0x3544 JUMPI PUSH1 0x0 DUP1 REVERT JUMPDEST DUP4 DUP8 ADD JUMPDEST DUP6 DUP2 LT ISZERO PUSH2 0x359B JUMPI DUP2 DUP2 DUP11 SUB SLT ISZERO PUSH2 0x3560 JUMPI PUSH1 0x0 DUP1 DUP2 REVERT JUMPDEST PUSH2 0x3568 PUSH2 0x33A9 JUMP JUMPDEST DUP2 MLOAD PUSH2 0x3573 DUP2 PUSH2 0x32D4 JUMP JUMPDEST DUP2 MSTORE PUSH2 0x3580 DUP3 DUP8 ADD PUSH2 0x34EF JUMP JUMPDEST DUP2 DUP8 ADD MSTORE PUSH1 0x40 DUP3 DUP2 ADD MLOAD SWAP1 DUP3 ADD MSTORE DUP5 MSTORE SWAP3 DUP5 ADD SWAP3 DUP2 ADD PUSH2 0x3548 JUMP JUMPDEST POP SWAP1 SWAP8 SWAP7 POP POP POP POP POP POP POP JUMP JUMPDEST PUSH1 0x0 PUSH2 0x180 DUP3 DUP5 SUB SLT ISZERO PUSH2 0x35BB JUMPI PUSH1 0x0 DUP1 REVERT JUMPDEST PUSH2 0x35C3 PUSH2 0x33D1 JUMP JUMPDEST SWAP1 POP PUSH2 0x35CE DUP3 PUSH2 0x3469 JUMP JUMPDEST DUP2 MSTORE PUSH2 0x35DC PUSH1 0x20 DUP4 ADD PUSH2 0x3479 JUMP JUMPDEST PUSH1 0x20 DUP3 ADD MSTORE PUSH2 0x35ED PUSH1 0x40 DUP4 ADD PUSH2 0x3469 JUMP JUMPDEST PUSH1 0x40 DUP3 ADD MSTORE PUSH1 0x60 DUP3 ADD MLOAD PUSH1 0x60 DUP3 ADD MSTORE PUSH2 0x3609 DUP4 PUSH1 0x80 DUP5 ADD PUSH2 0x348A JUMP JUMPDEST PUSH1 0x80 DUP3 ADD MSTORE PUSH2 0x100 DUP1 DUP4 ADD MLOAD PUSH1 0xA0 DUP4 ADD MSTORE PUSH2 0x120 DUP4 ADD MLOAD PUSH1 0xC0 DUP4 ADD MSTORE PUSH2 0x140 DUP4 ADD MLOAD PUSH1 0xE0 DUP4 ADD MSTORE PUSH2 0x160 DUP4 ADD MLOAD PUSH1 0x1 PUSH1 0x1 PUSH1 0x40 SHL SUB DUP2 GT ISZERO PUSH2 0x364A JUMPI PUSH1 0x0 DUP1 REVERT JUMPDEST PUSH2 0x3656 DUP6 DUP3 DUP7 ADD PUSH2 0x34FF JUMP JUMPDEST DUP3 DUP5 ADD MSTORE POP POP SWAP3 SWAP2 POP POP JUMP JUMPDEST PUSH1 0x0 PUSH1 0x20 DUP1 DUP4 DUP6 SUB SLT ISZERO PUSH2 0x3675 JUMPI PUSH1 0x0 DUP1 REVERT JUMPDEST DUP3 MLOAD PUSH1 0x1 PUSH1 0x1 PUSH1 0x40 SHL SUB DUP1 DUP3 GT ISZERO PUSH2 0x368C JUMPI PUSH1 0x0 DUP1 REVERT JUMPDEST SWAP1 DUP5 ADD SWAP1 PUSH1 0x40 DUP3 DUP8 SUB SLT ISZERO PUSH2 0x36A0 JUMPI PUSH1 0x0 DUP1 REVERT JUMPDEST PUSH2 0x36A8 PUSH2 0x33F4 JUMP JUMPDEST DUP3 MLOAD DUP2 MSTORE DUP4 DUP4 ADD MLOAD DUP3 DUP2 GT ISZERO PUSH2 0x36BD JUMPI PUSH1 0x0 DUP1 REVERT JUMPDEST DUP1 DUP5 ADD SWAP4 POP POP DUP7 PUSH1 0x1F DUP5 ADD SLT PUSH2 0x36D2 JUMPI PUSH1 0x0 DUP1 REVERT JUMPDEST DUP3 MLOAD PUSH2 0x36E0 PUSH2 0x3520 DUP3 PUSH2 0x3446 JUMP JUMPDEST DUP2 DUP2 MSTORE PUSH1 0x5 SWAP2 SWAP1 SWAP2 SHL DUP5 ADD DUP6 ADD SWAP1 DUP6 DUP2 ADD SWAP1 DUP10 DUP4 GT ISZERO PUSH2 0x36FF JUMPI PUSH1 0x0 DUP1 REVERT JUMPDEST DUP7 DUP7 ADD JUMPDEST DUP4 DUP2 LT ISZERO PUSH2 0x3737 JUMPI DUP1 MLOAD DUP7 DUP2 GT ISZERO PUSH2 0x371B JUMPI PUSH1 0x0 DUP1 DUP2 REVERT JUMPDEST PUSH2 0x3729 DUP13 DUP11 DUP4 DUP12 ADD ADD PUSH2 0x35A8 JUMP JUMPDEST DUP5 MSTORE POP SWAP2 DUP8 ADD SWAP2 DUP8 ADD PUSH2 0x3703 JUMP JUMPDEST POP SWAP6 DUP4 ADD SWAP6 SWAP1 SWAP6 MSTORE POP SWAP7 SWAP6 POP POP POP POP POP POP JUMP JUMPDEST PUSH1 0x0 DUP2 MLOAD DUP1 DUP5 MSTORE PUSH1 0x20 DUP1 DUP6 ADD SWAP5 POP DUP1 DUP5 ADD PUSH1 0x0 JUMPDEST DUP4 DUP2 LT ISZERO PUSH2 0x3230 JUMPI DUP2 MLOAD DUP1 MLOAD PUSH1 0x1 PUSH1 0x1 PUSH1 0xA0 SHL SUB AND DUP9 MSTORE DUP4 DUP2 ADD MLOAD ISZERO ISZERO DUP5 DUP10 ADD MSTORE PUSH1 0x40 SWAP1 DUP2 ADD MLOAD SWAP1 DUP9 ADD MSTORE PUSH1 0x60 SWAP1 SWAP7 ADD SWAP6 SWAP1 DUP3 ADD SWAP1 PUSH1 0x1 ADD PUSH2 0x375E JUMP JUMPDEST PUSH1 0x0 PUSH1 0x20 DUP1 DUP4 MSTORE PUSH1 0x60 DUP1 DUP5 ADD DUP6 MLOAD PUSH1 0x40 DUP1 DUP6 DUP9 ADD MSTORE DUP3 DUP3 MLOAD DUP1 DUP6 MSTORE PUSH1 0x80 SWAP5 POP DUP5 DUP10 ADD SWAP2 POP DUP5 DUP2 PUSH1 0x5 SHL DUP11 ADD ADD DUP8 DUP6 ADD SWAP5 POP PUSH1 0x0 JUMPDEST DUP3 DUP2 LT ISZERO PUSH2 0x38A7 JUMPI PUSH1 0x7F NOT DUP12 DUP4 SUB ADD DUP5 MSTORE DUP6 MLOAD DUP1 MLOAD DUP7 DUP5 MSTORE DUP1 MLOAD PUSH1 0x1 PUSH1 0x1 PUSH1 0xA0 SHL SUB SWAP1 DUP2 AND DUP9 DUP7 ADD MSTORE DUP12 DUP3 ADD MLOAD PUSH1 0xFF AND DUP12 DUP7 ADD MSTORE DUP8 DUP3 ADD MLOAD AND DUP10 DUP6 ADD MSTORE DUP10 DUP2 ADD MLOAD PUSH1 0xA0 DUP1 DUP7 ADD SWAP2 SWAP1 SWAP2 MSTORE DUP10 DUP3 ADD MLOAD DUP1 MLOAD PUSH1 0xC0 DUP1 DUP9 ADD SWAP2 SWAP1 SWAP2 MSTORE PUSH1 0x20 DUP3 ADD MLOAD PUSH1 0xE0 DUP9 ADD MSTORE PUSH1 0x40 DUP3 ADD MLOAD PUSH2 0x100 DUP9 ADD MSTORE PUSH1 0x60 DUP3 ADD MLOAD PUSH2 0x120 DUP9 ADD MSTORE SWAP1 SWAP2 DUP4 ADD MLOAD PUSH2 0x140 DUP8 ADD MSTORE DUP3 ADD MLOAD PUSH2 0x160 DUP7 ADD MSTORE POP PUSH1 0xE0 DUP2 ADD MLOAD PUSH2 0x180 DUP1 DUP7 ADD SWAP2 SWAP1 SWAP2 MSTORE PUSH2 0x100 SWAP1 SWAP2 ADD MLOAD PUSH2 0x1A0 DUP6 ADD SWAP2 SWAP1 SWAP2 MSTORE PUSH2 0x388A PUSH2 0x1C0 DUP6 ADD DUP3 PUSH2 0x374A JUMP JUMPDEST SWAP2 DUP12 ADD MLOAD SWAP4 DUP12 ADD SWAP4 SWAP1 SWAP4 MSTORE SWAP6 DUP10 ADD SWAP6 SWAP4 DUP10 ADD SWAP4 SWAP2 POP PUSH1 0x1 ADD PUSH2 0x37CF JUMP JUMPDEST POP SWAP7 DUP11 ADD MLOAD DUP1 ISZERO ISZERO DUP5 DUP12 ADD MSTORE SWAP7 SWAP11 SWAP10 POP POP POP POP POP POP POP POP POP POP JUMP JUMPDEST PUSH4 0x4E487B71 PUSH1 0xE0 SHL PUSH1 0x0 MSTORE PUSH1 0x32 PUSH1 0x4 MSTORE PUSH1 0x24 PUSH1 0x0 REVERT JUMPDEST PUSH4 0x4E487B71 PUSH1 0xE0 SHL PUSH1 0x0 MSTORE PUSH1 0x11 PUSH1 0x4 MSTORE PUSH1 0x24 PUSH1 0x0 REVERT JUMPDEST PUSH1 0x0 PUSH1 0x0 NOT DUP3 EQ ISZERO PUSH2 0x3902 JUMPI PUSH2 0x3902 PUSH2 0x38D8 JUMP JUMPDEST POP PUSH1 0x1 ADD SWAP1 JUMP JUMPDEST PUSH1 0x0 PUSH1 0x20 DUP1 DUP4 DUP6 SUB SLT ISZERO PUSH2 0x391C JUMPI PUSH1 0x0 DUP1 REVERT JUMPDEST DUP3 MLOAD PUSH1 0x1 PUSH1 0x1 PUSH1 0x40 SHL SUB DUP1 DUP3 GT ISZERO PUSH2 0x3933 JUMPI PUSH1 0x0 DUP1 REVERT JUMPDEST SWAP1 DUP5 ADD SWAP1 PUSH1 0x40 DUP3 DUP8 SUB SLT ISZERO PUSH2 0x3947 JUMPI PUSH1 0x0 DUP1 REVERT JUMPDEST PUSH2 0x394F PUSH2 0x33F4 JUMP JUMPDEST DUP3 MLOAD DUP3 DUP2 GT ISZERO PUSH2 0x395E JUMPI PUSH1 0x0 DUP1 REVERT JUMPDEST DUP4 ADD PUSH1 0x1F DUP2 ADD DUP9 SGT PUSH2 0x396F JUMPI PUSH1 0x0 DUP1 REVERT JUMPDEST DUP1 MLOAD PUSH2 0x397D PUSH2 0x3520 DUP3 PUSH2 0x3446 JUMP JUMPDEST DUP2 DUP2 MSTORE PUSH1 0x5 SWAP2 SWAP1 SWAP2 SHL DUP3 ADD DUP7 ADD SWAP1 DUP7 DUP2 ADD SWAP1 DUP11 DUP4 GT ISZERO PUSH2 0x399C JUMPI PUSH1 0x0 DUP1 REVERT JUMPDEST DUP8 DUP5 ADD JUMPDEST DUP4 DUP2 LT ISZERO PUSH2 0x3A12 JUMPI DUP1 MLOAD DUP8 DUP2 GT ISZERO PUSH2 0x39B8 JUMPI PUSH1 0x0 DUP1 DUP2 REVERT JUMPDEST DUP6 ADD PUSH1 0x40 DUP2 DUP15 SUB PUSH1 0x1F NOT ADD SLT ISZERO PUSH2 0x39CF JUMPI PUSH1 0x0 DUP1 DUP2 REVERT JUMPDEST PUSH2 0x39D7 PUSH2 0x33F4 JUMP JUMPDEST DUP11 DUP3 ADD MLOAD DUP10 DUP2 GT ISZERO PUSH2 0x39E9 JUMPI PUSH1 0x0 DUP1 DUP2 REVERT JUMPDEST PUSH2 0x39F7 DUP16 DUP14 DUP4 DUP7 ADD ADD PUSH2 0x35A8 JUMP JUMPDEST DUP3 MSTORE POP PUSH1 0x40 SWAP2 SWAP1 SWAP2 ADD MLOAD DUP11 DUP3 ADD MSTORE DUP4 MSTORE SWAP2 DUP9 ADD SWAP2 DUP9 ADD PUSH2 0x39A0 JUMP JUMPDEST POP DUP5 MSTORE POP PUSH2 0x3A24 SWAP2 POP POP DUP4 DUP6 ADD PUSH2 0x34EF JUMP JUMPDEST DUP5 DUP3 ADD MSTORE DUP1 SWAP5 POP POP POP POP POP SWAP3 SWAP2 POP POP JUMP JUMPDEST PUSH1 0x0 PUSH1 0x20 DUP3 DUP5 SUB SLT ISZERO PUSH2 0x3A47 JUMPI PUSH1 0x0 DUP1 REVERT JUMPDEST POP MLOAD SWAP2 SWAP1 POP JUMP JUMPDEST PUSH1 0x0 DUP3 PUSH1 0x1F DUP4 ADD SLT PUSH2 0x3A5F JUMPI PUSH1 0x0 DUP1 REVERT JUMPDEST DUP2 MLOAD PUSH1 0x1 PUSH1 0x1 PUSH1 0x40 SHL SUB DUP2 GT ISZERO PUSH2 0x3A78 JUMPI PUSH2 0x3A78 PUSH2 0x3393 JUMP JUMPDEST PUSH2 0x3A8B PUSH1 0x1F DUP3 ADD PUSH1 0x1F NOT AND PUSH1 0x20 ADD PUSH2 0x3416 JUMP JUMPDEST DUP2 DUP2 MSTORE DUP5 PUSH1 0x20 DUP4 DUP7 ADD ADD GT ISZERO PUSH2 0x3AA0 JUMPI PUSH1 0x0 DUP1 REVERT JUMPDEST PUSH2 0x14D8 DUP3 PUSH1 0x20 DUP4 ADD PUSH1 0x20 DUP8 ADD PUSH2 0x323B JUMP JUMPDEST PUSH1 0x0 PUSH1 0x20 DUP3 DUP5 SUB SLT ISZERO PUSH2 0x3AC3 JUMPI PUSH1 0x0 DUP1 REVERT JUMPDEST DUP2 MLOAD PUSH1 0x1 PUSH1 0x1 PUSH1 0x40 SHL SUB DUP2 GT ISZERO PUSH2 0x3AD9 JUMPI PUSH1 0x0 DUP1 REVERT JUMPDEST PUSH2 0x14D8 DUP5 DUP3 DUP6 ADD PUSH2 0x3A4E JUMP JUMPDEST PUSH1 0x0 PUSH1 0x20 DUP3 DUP5 SUB SLT ISZERO PUSH2 0x3AF7 JUMPI PUSH1 0x0 DUP1 REVERT JUMPDEST DUP2 MLOAD PUSH2 0xCFA DUP2 PUSH2 0x32D4 JUMP JUMPDEST PUSH1 0x0 DUP3 NOT DUP3 GT ISZERO PUSH2 0x3B15 JUMPI PUSH2 0x3B15 PUSH2 0x38D8 JUMP JUMPDEST POP ADD SWAP1 JUMP JUMPDEST PUSH1 0x0 PUSH1 0x80 DUP3 DUP5 SUB SLT ISZERO PUSH2 0x3B2C JUMPI PUSH1 0x0 DUP1 REVERT JUMPDEST PUSH1 0x40 MLOAD PUSH1 0x80 DUP2 ADD DUP2 DUP2 LT PUSH1 0x1 PUSH1 0x1 PUSH1 0x40 SHL SUB DUP3 GT OR ISZERO PUSH2 0x3B4E JUMPI PUSH2 0x3B4E PUSH2 0x3393 JUMP JUMPDEST PUSH1 0x40 MSTORE DUP3 CALLDATALOAD PUSH2 0x3B5C DUP2 PUSH2 0x32D4 JUMP JUMPDEST DUP1 DUP3 MSTORE POP PUSH1 0x20 DUP4 ADD CALLDATALOAD PUSH1 0x20 DUP3 ADD MSTORE PUSH1 0x40 DUP4 ADD CALLDATALOAD PUSH1 0x40 DUP3 ADD MSTORE PUSH1 0x60 DUP4 ADD CALLDATALOAD PUSH2 0x3B82 DUP2 PUSH2 0x32D4 JUMP JUMPDEST PUSH1 0x60 DUP3 ADD MSTORE SWAP4 SWAP3 POP POP POP JUMP JUMPDEST PUSH1 0x0 PUSH1 0x20 DUP3 DUP5 SUB SLT ISZERO PUSH2 0x3BA0 JUMPI PUSH1 0x0 DUP1 REVERT JUMPDEST PUSH2 0xCFA DUP3 PUSH2 0x34EF JUMP JUMPDEST PUSH1 0x0 DUP3 MLOAD PUSH2 0x3BBB DUP2 DUP5 PUSH1 0x20 DUP8 ADD PUSH2 0x323B JUMP JUMPDEST SWAP2 SWAP1 SWAP2 ADD SWAP3 SWAP2 POP POP JUMP JUMPDEST PUSH1 0x0 PUSH1 0xFF DUP3 AND PUSH1 0xFF DUP5 AND DUP1 DUP3 LT ISZERO PUSH2 0x3BDF JUMPI PUSH2 0x3BDF PUSH2 0x38D8 JUMP JUMPDEST SWAP1 SUB SWAP4 SWAP3 POP POP POP JUMP JUMPDEST PUSH1 0x1 DUP2 DUP2 JUMPDEST DUP1 DUP6 GT ISZERO PUSH2 0x1F23 JUMPI DUP2 PUSH1 0x0 NOT DIV DUP3 GT ISZERO PUSH2 0x3C09 JUMPI PUSH2 0x3C09 PUSH2 0x38D8 JUMP JUMPDEST DUP1 DUP6 AND ISZERO PUSH2 0x3C16 JUMPI SWAP2 DUP2 MUL SWAP2 JUMPDEST SWAP4 DUP5 SHR SWAP4 SWAP1 DUP1 MUL SWAP1 PUSH2 0x3BED JUMP JUMPDEST PUSH1 0x0 DUP3 PUSH2 0x3C32 JUMPI POP PUSH1 0x1 PUSH2 0x12F3 JUMP JUMPDEST DUP2 PUSH2 0x3C3F JUMPI POP PUSH1 0x0 PUSH2 0x12F3 JUMP JUMPDEST DUP2 PUSH1 0x1 DUP2 EQ PUSH2 0x3C55 JUMPI PUSH1 0x2 DUP2 EQ PUSH2 0x3C5F JUMPI PUSH2 0x3C7B JUMP JUMPDEST PUSH1 0x1 SWAP2 POP POP PUSH2 0x12F3 JUMP JUMPDEST PUSH1 0xFF DUP5 GT ISZERO PUSH2 0x3C70 JUMPI PUSH2 0x3C70 PUSH2 0x38D8 JUMP JUMPDEST POP POP PUSH1 0x1 DUP3 SHL PUSH2 0x12F3 JUMP JUMPDEST POP PUSH1 0x20 DUP4 LT PUSH2 0x133 DUP4 LT AND PUSH1 0x4E DUP5 LT PUSH1 0xB DUP5 LT AND OR ISZERO PUSH2 0x3C9E JUMPI POP DUP2 DUP2 EXP PUSH2 0x12F3 JUMP JUMPDEST PUSH2 0x3CA8 DUP4 DUP4 PUSH2 0x3BE8 JUMP JUMPDEST DUP1 PUSH1 0x0 NOT DIV DUP3 GT ISZERO PUSH2 0x3CBC JUMPI PUSH2 0x3CBC PUSH2 0x38D8 JUMP JUMPDEST MUL SWAP4 SWAP3 POP POP POP JUMP JUMPDEST PUSH1 0x0 PUSH2 0xCFA PUSH1 0xFF DUP5 AND DUP4 PUSH2 0x3C23 JUMP JUMPDEST PUSH1 0x0 DUP3 PUSH2 0x3CF0 JUMPI PUSH4 0x4E487B71 PUSH1 0xE0 SHL PUSH1 0x0 MSTORE PUSH1 0x12 PUSH1 0x4 MSTORE PUSH1 0x24 PUSH1 0x0 REVERT JUMPDEST POP DIV SWAP1 JUMP JUMPDEST PUSH1 0x0 DUP2 PUSH1 0x0 NOT DIV DUP4 GT DUP3 ISZERO ISZERO AND ISZERO PUSH2 0x3D0F JUMPI PUSH2 0x3D0F PUSH2 0x38D8 JUMP JUMPDEST POP MUL SWAP1 JUMP JUMPDEST PUSH1 0x0 DUP1 PUSH1 0x40 DUP4 DUP6 SUB SLT ISZERO PUSH2 0x3D27 JUMPI PUSH1 0x0 DUP1 REVERT JUMPDEST DUP3 MLOAD SWAP2 POP PUSH1 0x20 DUP4 ADD MLOAD PUSH1 0x1 PUSH1 0x1 PUSH1 0x40 SHL SUB DUP2 GT ISZERO PUSH2 0x3D44 JUMPI PUSH1 0x0 DUP1 REVERT JUMPDEST PUSH2 0x3D50 DUP6 DUP3 DUP7 ADD PUSH2 0x3A4E JUMP JUMPDEST SWAP2 POP POP SWAP3 POP SWAP3 SWAP1 POP JUMP INVALID LOG2 PUSH5 0x6970667358 0x22 SLT KECCAK256 SAR 0xE3 BYTE 0xC4 0x21 PUSH8 0x66AEC370B48EE5B0 PUSH1 0x83 CODECOPY 0xD PUSH26 0xB5006253DED6FD5E5216315D1F64736F6C634300080A00330000 ","sha1":"f161d07a79d4ea35e8b7c789079ca134614aa156","source":"// SPDX-License-Identifier: LicenseRef-Gyro-1.0\n// for information on licensing please see the README in the GitHub repository <https://github.com/gyrostable/core-protocol>.\npragma solidity ^0.8.4;\n\nimport \"@openzeppelin/contracts/token/ERC20/utils/SafeERC20.sol\";\nimport \"@openzeppelin/contracts/token/ERC20/IERC20.sol\";\n\nimport \"../interfaces/IFeeHandler.sol\";\nimport \"../interfaces/IMotherboard.sol\";\nimport \"../interfaces/IGyroVault.sol\";\nimport \"../interfaces/ILPTokenExchanger.sol\";\nimport \"../interfaces/IPAMM.sol\";\nimport \"../interfaces/IGyroConfig.sol\";\nimport \"../interfaces/IGYDToken.sol\";\nimport \"../interfaces/IFeeBank.sol\";\n\nimport \"../libraries/DataTypes.sol\";\nimport \"../libraries/ConfigKeys.sol\";\nimport \"../libraries/ConfigHelpers.sol\";\nimport \"../libraries/Errors.sol\";\nimport \"../libraries/FixedPoint.sol\";\nimport \"../libraries/DecimalScale.sol\";\n\nimport \"./auth/GovernableUpgradeable.sol\";\n\n/// @title MotherBoard is the central contract connecting the different pieces\n/// of the Gyro protocol\ncontract Motherboard is IMotherboard, GovernableUpgradeable {\n    using FixedPoint for uint256;\n    using DecimalScale for uint256;\n    using SafeERC20 for IERC20;\n    using SafeERC20 for IGYDToken;\n    using ConfigHelpers for IGyroConfig;\n\n    /// @inheritdoc IMotherboard\n    IGYDToken public immutable override gydToken;\n\n    /// @inheritdoc IMotherboard\n    IReserve public immutable override reserve;\n\n    /// @inheritdoc IMotherboard\n    IGyroConfig public immutable override gyroConfig;\n\n    constructor(IGyroConfig _gyroConfig) {\n        gyroConfig = _gyroConfig;\n        gydToken = _gyroConfig.getGYDToken();\n        reserve = _gyroConfig.getReserve();\n        gydToken.safeApprove(address(_gyroConfig.getFeeBank()), type(uint256).max);\n    }\n\n    /// @inheritdoc IMotherboard\n    function mint(DataTypes.MintAsset[] calldata assets, uint256 minReceivedAmount)\n        external\n        override\n        returns (uint256 mintedGYDAmount)\n    {\n        DataTypes.MonetaryAmount[] memory vaultAmounts = _convertMintInputAssetsToVaultTokens(\n            assets\n        );\n        DataTypes.ReserveState memory reserveState = gyroConfig\n            .getReserveManager()\n            .getReserveState();\n\n        DataTypes.Order memory order = _monetaryAmountsToMintOrder(\n            vaultAmounts,\n            reserveState.vaults\n        );\n\n        gyroConfig.getRootSafetyCheck().checkAndPersistMint(order);\n\n        for (uint256 i = 0; i < vaultAmounts.length; i++) {\n            DataTypes.MonetaryAmount memory vaultAmount = vaultAmounts[i];\n            IERC20(vaultAmount.tokenAddress).safeTransfer(address(reserve), vaultAmount.amount);\n        }\n\n        DataTypes.Order memory orderAfterFees = gyroConfig.getFeeHandler().applyFees(order);\n\n        uint256 usdValue = _getBasketUSDValue(orderAfterFees);\n        mintedGYDAmount = pamm().mint(usdValue, reserveState.totalUSDValue);\n\n        require(mintedGYDAmount >= minReceivedAmount, Errors.TOO_MUCH_SLIPPAGE);\n\n        require(!_isOverCap(msg.sender, mintedGYDAmount), Errors.SUPPLY_CAP_EXCEEDED);\n\n        gydToken.mint(msg.sender, mintedGYDAmount);\n    }\n\n    /// @inheritdoc IMotherboard\n    function redeem(uint256 gydToRedeem, DataTypes.RedeemAsset[] calldata assets)\n        external\n        override\n        returns (uint256[] memory)\n    {\n        gydToken.burnFrom(msg.sender, gydToRedeem);\n        DataTypes.ReserveState memory reserveState = gyroConfig\n            .getReserveManager()\n            .getReserveState();\n\n        uint256 usdValueToRedeem = pamm().redeem(gydToRedeem, reserveState.totalUSDValue);\n        DataTypes.Order memory order = _createRedeemOrder(\n            usdValueToRedeem,\n            assets,\n            reserveState.vaults\n        );\n        gyroConfig.getRootSafetyCheck().checkAndPersistRedeem(order);\n\n        DataTypes.Order memory orderAfterFees = gyroConfig.getFeeHandler().applyFees(order);\n        return _convertAndSendRedeemOutputAssets(assets, orderAfterFees);\n    }\n\n    /// @inheritdoc IMotherboard\n    function dryMint(\n        DataTypes.MintAsset[] calldata assets,\n        uint256 minReceivedAmount,\n        address account\n    ) external view override returns (uint256 mintedGYDAmount, string memory err) {\n        DataTypes.MonetaryAmount[] memory vaultAmounts;\n        (vaultAmounts, err) = _dryConvertMintInputAssetsToVaultTokens(assets);\n        if (bytes(err).length > 0) {\n            return (0, err);\n        }\n\n        DataTypes.ReserveState memory reserveState = gyroConfig\n            .getReserveManager()\n            .getReserveState();\n\n        DataTypes.Order memory order = _monetaryAmountsToMintOrder(\n            vaultAmounts,\n            reserveState.vaults\n        );\n\n        err = gyroConfig.getRootSafetyCheck().isMintSafe(order);\n        if (bytes(err).length > 0) {\n            return (0, err);\n        }\n\n        DataTypes.Order memory orderAfterFees = gyroConfig.getFeeHandler().applyFees(order);\n        uint256 usdValue = _getBasketUSDValue(orderAfterFees);\n        mintedGYDAmount = pamm().computeMintAmount(usdValue, reserveState.totalUSDValue);\n\n        if (mintedGYDAmount < minReceivedAmount) {\n            return (mintedGYDAmount, Errors.TOO_MUCH_SLIPPAGE);\n        }\n\n        if (_isOverCap(account, mintedGYDAmount)) {\n            return (mintedGYDAmount, Errors.SUPPLY_CAP_EXCEEDED);\n        }\n    }\n\n    /// @inheritdoc IMotherboard\n    function dryRedeem(uint256 gydToRedeem, DataTypes.RedeemAsset[] calldata assets)\n        external\n        view\n        override\n        returns (uint256[] memory outputAmounts, string memory err)\n    {\n        outputAmounts = new uint256[](assets.length);\n        DataTypes.ReserveState memory reserveState = gyroConfig\n            .getReserveManager()\n            .getReserveState();\n        uint256 usdValueToRedeem = pamm().computeRedeemAmount(\n            gydToRedeem,\n            reserveState.totalUSDValue\n        );\n        DataTypes.Order memory order = _createRedeemOrder(\n            usdValueToRedeem,\n            assets,\n            reserveState.vaults\n        );\n        err = gyroConfig.getRootSafetyCheck().isRedeemSafe(order);\n        if (bytes(err).length > 0) {\n            return (outputAmounts, err);\n        }\n        DataTypes.Order memory orderAfterFees = gyroConfig.getFeeHandler().applyFees(order);\n        return _computeRedeemOutputAmounts(assets, orderAfterFees);\n    }\n\n    /// @inheritdoc IMotherboard\n    function pamm() public view override returns (IPAMM) {\n        return IPAMM(gyroConfig.getAddress(ConfigKeys.PAMM_ADDRESS));\n    }\n\n    function _dryConvertMintInputAssetsToVaultTokens(DataTypes.MintAsset[] calldata assets)\n        internal\n        view\n        returns (DataTypes.MonetaryAmount[] memory vaultAmounts, string memory err)\n    {\n        vaultAmounts = new DataTypes.MonetaryAmount[](assets.length);\n        for (uint256 i = 0; i < assets.length; i++) {\n            DataTypes.MintAsset calldata asset = assets[i];\n            uint256 vaultTokenAmount;\n            (vaultTokenAmount, err) = _computeVaultTokensForAsset(asset);\n            if (bytes(err).length > 0) {\n                return (vaultAmounts, err);\n            }\n            vaultAmounts[i] = DataTypes.MonetaryAmount({\n                tokenAddress: asset.destinationVault,\n                amount: vaultTokenAmount\n            });\n        }\n    }\n\n    function _computeVaultTokensForAsset(DataTypes.MintAsset calldata asset)\n        internal\n        view\n        returns (uint256, string memory err)\n    {\n        if (asset.inputToken == asset.destinationVault) {\n            return (asset.inputAmount, \"\");\n        } else {\n            IGyroVault vault = IGyroVault(asset.destinationVault);\n            if (asset.inputToken == vault.underlying()) {\n                return vault.dryDeposit(asset.inputAmount, 0);\n            } else {\n                return (0, Errors.INVALID_ASSET);\n            }\n        }\n    }\n\n    function _convertMintInputAssetsToVaultTokens(DataTypes.MintAsset[] calldata assets)\n        internal\n        returns (DataTypes.MonetaryAmount[] memory)\n    {\n        DataTypes.MonetaryAmount[] memory vaultAmounts = new DataTypes.MonetaryAmount[](\n            assets.length\n        );\n\n        for (uint256 i = 0; i < assets.length; i++) {\n            DataTypes.MintAsset calldata asset = assets[i];\n            vaultAmounts[i] = DataTypes.MonetaryAmount({\n                tokenAddress: asset.destinationVault,\n                amount: _convertMintInputAssetToVaultToken(asset)\n            });\n        }\n        return vaultAmounts;\n    }\n\n    function _convertMintInputAssetToVaultToken(DataTypes.MintAsset calldata asset)\n        internal\n        returns (uint256)\n    {\n        IGyroVault vault = IGyroVault(asset.destinationVault);\n\n        IERC20(asset.inputToken).safeTransferFrom(msg.sender, address(this), asset.inputAmount);\n\n        if (asset.inputToken == address(vault)) {\n            return asset.inputAmount;\n        }\n\n        address lpTokenAddress = vault.underlying();\n        require(asset.inputToken == lpTokenAddress, Errors.INVALID_ASSET);\n\n        IERC20(lpTokenAddress).safeIncreaseAllowance(address(vault), asset.inputAmount);\n        return vault.deposit(asset.inputAmount, 0);\n    }\n\n    function _getAssetAmountMint(address vault, DataTypes.MonetaryAmount[] memory amounts)\n        internal\n        pure\n        returns (uint256)\n    {\n        uint256 total = 0;\n        for (uint256 i = 0; i < amounts.length; i++) {\n            DataTypes.MonetaryAmount memory vaultAmount = amounts[i];\n            if (vaultAmount.tokenAddress == vault) total += vaultAmount.amount;\n        }\n        return total;\n    }\n\n    function _monetaryAmountsToMintOrder(\n        DataTypes.MonetaryAmount[] memory amounts,\n        DataTypes.VaultInfo[] memory vaultsInfo\n    ) internal pure returns (DataTypes.Order memory) {\n        DataTypes.Order memory order = DataTypes.Order({\n            mint: true,\n            vaultsWithAmount: new DataTypes.VaultWithAmount[](vaultsInfo.length)\n        });\n\n        for (uint256 i = 0; i < vaultsInfo.length; i++) {\n            DataTypes.VaultInfo memory vaultInfo = vaultsInfo[i];\n            order.vaultsWithAmount[i] = DataTypes.VaultWithAmount({\n                amount: _getAssetAmountMint(vaultInfo.vault, amounts),\n                vaultInfo: vaultInfo\n            });\n        }\n\n        return order;\n    }\n\n    function _getAssetVaultAndRedeemAmount(\n        DataTypes.RedeemAsset calldata asset,\n        uint256 usdValueToRedeem,\n        DataTypes.VaultInfo[] memory vaultsInfo\n    ) internal pure returns (uint256, DataTypes.VaultInfo memory) {\n        for (uint256 i = 0; i < vaultsInfo.length; i++) {\n            DataTypes.VaultInfo memory vaultInfo = vaultsInfo[i];\n            if (asset.originVault == vaultInfo.vault) {\n                uint256 vaultUsdValueToWithdraw = usdValueToRedeem.mulDown(asset.valueRatio);\n                uint256 vaultTokenAmount = vaultUsdValueToWithdraw.divDown(vaultInfo.price);\n                uint256 scaledVaultTokenAmount = vaultTokenAmount.scaleTo(vaultInfo.decimals);\n\n                return (scaledVaultTokenAmount, vaultInfo);\n            }\n        }\n        revert(Errors.INVALID_ARGUMENT);\n    }\n\n    function _createRedeemOrder(\n        uint256 usdValueToRedeem,\n        DataTypes.RedeemAsset[] calldata assets,\n        DataTypes.VaultInfo[] memory vaultsInfo\n    ) internal pure returns (DataTypes.Order memory) {\n        DataTypes.Order memory order = DataTypes.Order({\n            mint: false,\n            vaultsWithAmount: new DataTypes.VaultWithAmount[](assets.length)\n        });\n\n        uint256 totalValueRatio = 0;\n\n        for (uint256 i = 0; i < assets.length; i++) {\n            DataTypes.RedeemAsset calldata redeemAsset = assets[i];\n            (uint256 amount, DataTypes.VaultInfo memory vaultInfo) = _getAssetVaultAndRedeemAmount(\n                redeemAsset,\n                usdValueToRedeem,\n                vaultsInfo\n            );\n            totalValueRatio += redeemAsset.valueRatio;\n\n            order.vaultsWithAmount[i] = DataTypes.VaultWithAmount({\n                amount: amount,\n                vaultInfo: vaultInfo\n            });\n        }\n\n        require(totalValueRatio == FixedPoint.ONE, Errors.INVALID_ARGUMENT);\n\n        return order;\n    }\n\n    function _convertAndSendRedeemOutputAssets(\n        DataTypes.RedeemAsset[] calldata assets,\n        DataTypes.Order memory order\n    ) internal returns (uint256[] memory outputAmounts) {\n        outputAmounts = new uint256[](assets.length);\n        for (uint256 i = 0; i < assets.length; i++) {\n            DataTypes.RedeemAsset memory asset = assets[i];\n            uint256 vaultTokenAmount = _getRedeemAmount(order.vaultsWithAmount, asset.originVault);\n            uint256 outputAmount = _convertRedeemOutputAsset(asset, vaultTokenAmount);\n            // ensure we received enough tokens and transfer them to the user\n            require(outputAmount >= asset.minOutputAmount, Errors.TOO_MUCH_SLIPPAGE);\n            outputAmounts[i] = outputAmount;\n\n            IERC20(asset.outputToken).safeTransfer(msg.sender, outputAmount);\n        }\n    }\n\n    function _getRedeemAmount(DataTypes.VaultWithAmount[] memory vaultsWithAmount, address vault)\n        internal\n        pure\n        returns (uint256)\n    {\n        for (uint256 i = 0; i < vaultsWithAmount.length; i++) {\n            DataTypes.VaultWithAmount memory vaultWithAmount = vaultsWithAmount[i];\n            if (vaultWithAmount.vaultInfo.vault == vault) {\n                return vaultWithAmount.amount;\n            }\n        }\n        return 0;\n    }\n\n    function _convertRedeemOutputAsset(DataTypes.RedeemAsset memory asset, uint256 vaultTokenAmount)\n        internal\n        returns (uint256)\n    {\n        IGyroVault vault = IGyroVault(asset.originVault);\n        // withdraw the amount of vault tokens from the reserve\n        reserve.withdrawToken(address(vault), vaultTokenAmount);\n\n        // nothing to do if the user wants the vault token\n        if (asset.outputToken == address(vault)) {\n            return vaultTokenAmount;\n        } else {\n            // otherwise, convert the vault token into its underlying LP token\n            require(asset.outputToken == vault.underlying(), Errors.INVALID_ASSET);\n            return vault.withdraw(vaultTokenAmount, 0);\n        }\n    }\n\n    function _computeRedeemOutputAmounts(\n        DataTypes.RedeemAsset[] calldata assets,\n        DataTypes.Order memory order\n    ) internal view returns (uint256[] memory outputAmounts, string memory err) {\n        outputAmounts = new uint256[](assets.length);\n        for (uint256 i = 0; i < assets.length; i++) {\n            DataTypes.RedeemAsset calldata asset = assets[i];\n            uint256 vaultTokenAmount = _getRedeemAmount(order.vaultsWithAmount, asset.originVault);\n            uint256 outputAmount;\n            (outputAmount, err) = _computeRedeemOutputAmount(asset, vaultTokenAmount);\n            if (bytes(err).length > 0) {\n                return (outputAmounts, err);\n            }\n            // ensure we received enough tokens and transfer them to the user\n            if (outputAmount < asset.minOutputAmount) {\n                return (outputAmounts, Errors.TOO_MUCH_SLIPPAGE);\n            }\n            outputAmounts[i] = outputAmount;\n        }\n    }\n\n    function _computeRedeemOutputAmount(\n        DataTypes.RedeemAsset calldata asset,\n        uint256 vaultTokenAmount\n    ) internal view returns (uint256 outputAmount, string memory err) {\n        IGyroVault vault = IGyroVault(asset.originVault);\n\n        // nothing to do if the user wants the vault token\n        if (asset.outputToken == address(vault)) {\n            return (vaultTokenAmount, \"\");\n        }\n\n        // otherwise, we need the outputToken to be the underlying LP token\n        // and to convert the vault token into the underlying LP token\n        if (asset.outputToken != vault.underlying()) {\n            return (0, Errors.INVALID_ASSET);\n        }\n\n        uint256 vaultTokenBalance = vault.balanceOf(address(reserve));\n        if (vaultTokenBalance < vaultTokenAmount) {\n            return (0, Errors.INSUFFICIENT_BALANCE);\n        }\n\n        return vault.dryWithdraw(vaultTokenAmount, 0);\n    }\n\n    function _getBasketUSDValue(DataTypes.Order memory order)\n        internal\n        pure\n        returns (uint256 result)\n    {\n        for (uint256 i = 0; i < order.vaultsWithAmount.length; i++) {\n            DataTypes.VaultWithAmount memory vaultWithAmount = order.vaultsWithAmount[i];\n            uint256 scaledAmount = vaultWithAmount.amount.scaleFrom(\n                vaultWithAmount.vaultInfo.decimals\n            );\n            result += scaledAmount.mulDown(vaultWithAmount.vaultInfo.price);\n        }\n    }\n\n    function _isOverCap(address account, uint256 mintedGYDAmount) internal view returns (bool) {\n        uint256 globalSupplyCap = gyroConfig.getGlobalSupplyCap();\n        if (gydToken.totalSupply() + mintedGYDAmount > globalSupplyCap) {\n            return true;\n        }\n        bool isAuthenticated = gyroConfig.isAuthenticated(account);\n        uint256 perUserSupplyCap = gyroConfig.getPerUserSupplyCap(isAuthenticated);\n        return gydToken.balanceOf(account) + mintedGYDAmount > perUserSupplyCap;\n    }\n}\n","sourcePath":"contracts/Motherboard.sol","type":"contract","deployment":{"address":"0x68BDeE1bF95AD730F379A05eB8c51fb5dFA07748","chainid":"137","blockHeight":36354543}}