{"abi":[{"inputs":[{"internalType":"address","name":"_usdOracle","type":"address"},{"internalType":"address","name":"_relativeOracle","type":"address"}],"stateMutability":"nonpayable","type":"constructor","name":"constructor"},{"anonymous":false,"inputs":[{"indexed":false,"internalType":"address","name":"_addressToAdd","type":"address"}],"name":"AssetForRelativePriceCheckAdded","type":"event"},{"anonymous":false,"inputs":[{"indexed":false,"internalType":"address","name":"_addressToRemove","type":"address"}],"name":"AssetForRelativePriceCheckRemoved","type":"event"},{"anonymous":false,"inputs":[{"indexed":false,"internalType":"address","name":"newGovernor","type":"address"}],"name":"GovernorChangeRequested","type":"event"},{"anonymous":false,"inputs":[{"indexed":false,"internalType":"address","name":"oldGovernor","type":"address"},{"indexed":false,"internalType":"address","name":"newGovernor","type":"address"}],"name":"GovernorChanged","type":"event"},{"anonymous":false,"inputs":[{"indexed":false,"internalType":"address","name":"_addressToAdd","type":"address"}],"name":"PriceLevelTWAPQuoteAssetAdded","type":"event"},{"anonymous":false,"inputs":[{"indexed":false,"internalType":"address","name":"_addressToRemove","type":"address"}],"name":"PriceLevelTWAPQuoteAssetRemoved","type":"event"},{"anonymous":false,"inputs":[{"indexed":false,"internalType":"address","name":"_addressToAdd","type":"address"}],"name":"TrustedSignerOracleAdded","type":"event"},{"anonymous":false,"inputs":[{"indexed":false,"internalType":"address","name":"_addressToRemove","type":"address"}],"name":"TrustedSignerOracleRemoved","type":"event"},{"inputs":[],"name":"INITIAL_RELATIVE_EPSILON","outputs":[{"internalType":"uint256","name":"","type":"uint256"}],"stateMutability":"view","type":"function"},{"inputs":[],"name":"MAX_ABSOLUTE_WETH_DEVIATION","outputs":[{"internalType":"uint256","name":"","type":"uint256"}],"stateMutability":"view","type":"function"},{"inputs":[],"name":"MAX_RELATIVE_EPSILON","outputs":[{"internalType":"uint256","name":"","type":"uint256"}],"stateMutability":"view","type":"function"},{"inputs":[],"name":"WETH_ADDRESS","outputs":[{"internalType":"address","name":"","type":"address"}],"stateMutability":"view","type":"function"},{"inputs":[],"name":"acceptGovernance","outputs":[],"stateMutability":"nonpayable","type":"function"},{"inputs":[{"internalType":"address","name":"assetToAdd","type":"address"}],"name":"addAssetForRelativePriceCheck","outputs":[],"stateMutability":"nonpayable","type":"function"},{"inputs":[{"internalType":"address","name":"_quoteAssetToAdd","type":"address"}],"name":"addQuoteAssetsForPriceLevelTwap","outputs":[],"stateMutability":"nonpayable","type":"function"},{"inputs":[{"internalType":"address","name":"_signedAssetToAdd","type":"address"}],"name":"addSignedPriceSource","outputs":[],"stateMutability":"nonpayable","type":"function"},{"inputs":[{"internalType":"address","name":"newGovernor","type":"address"}],"name":"changeGovernor","outputs":[],"stateMutability":"nonpayable","type":"function"},{"inputs":[{"internalType":"address[]","name":"tokenAddresses","type":"address[]"}],"name":"getPricesUSD","outputs":[{"internalType":"uint256[]","name":"","type":"uint256[]"}],"stateMutability":"view","type":"function"},{"inputs":[{"internalType":"uint256[]","name":"signedPrices","type":"uint256[]"},{"internalType":"uint256[]","name":"twapPrices","type":"uint256[]"}],"name":"getRobustWETHPrice","outputs":[{"internalType":"uint256","name":"","type":"uint256"}],"stateMutability":"view","type":"function"},{"inputs":[],"name":"governor","outputs":[{"internalType":"address","name":"","type":"address"}],"stateMutability":"view","type":"function"},{"inputs":[],"name":"listAssetForRelativePriceCheck","outputs":[{"internalType":"address[]","name":"","type":"address[]"}],"stateMutability":"view","type":"function"},{"inputs":[],"name":"listQuoteAssetsForPriceLevelTwap","outputs":[{"internalType":"address[]","name":"","type":"address[]"}],"stateMutability":"view","type":"function"},{"inputs":[],"name":"pendingGovernor","outputs":[{"internalType":"address","name":"","type":"address"}],"stateMutability":"view","type":"function"},{"inputs":[],"name":"relativeEpsilon","outputs":[{"internalType":"uint256","name":"","type":"uint256"}],"stateMutability":"view","type":"function"},{"inputs":[],"name":"relativeOracle","outputs":[{"internalType":"contract IRelativePriceOracle","name":"","type":"address"}],"stateMutability":"view","type":"function"},{"inputs":[{"internalType":"address","name":"assetToRemove","type":"address"}],"name":"removeAssetForRelativePriceCheck","outputs":[],"stateMutability":"nonpayable","type":"function"},{"inputs":[{"internalType":"address","name":"_quoteAssetToRemove","type":"address"}],"name":"removeQuoteAssetsForPriceLevelTwap","outputs":[],"stateMutability":"nonpayable","type":"function"},{"inputs":[{"internalType":"address","name":"_signedAssetToRemove","type":"address"}],"name":"removeSignedPriceSource","outputs":[],"stateMutability":"nonpayable","type":"function"},{"inputs":[{"internalType":"uint256","name":"_relativeEpsilon","type":"uint256"}],"name":"setRelativeMaxEpsilon","outputs":[],"stateMutability":"nonpayable","type":"function"},{"inputs":[],"name":"usdOracle","outputs":[{"internalType":"contract IUSDPriceOracle","name":"","type":"address"}],"stateMutability":"view","type":"function"}],"bytecode":"60806040523480156200001157600080fd5b50604051620020543803806200205483398101604081905262000034916200016d565b600080546001600160a01b0319163390811782556040805192835260208301919091527fde4b3f61490b74c0ed6237523974fe299126bbbf8a8a7482fd220104c59b0c84910160405180910390a1604080518082019091526002815261333160f01b60208201526001600160a01b038316620000ce5760405162461bcd60e51b8152600401620000c59190620001a5565b60405180910390fd5b50604080518082019091526002815261333160f01b60208201526001600160a01b038216620001125760405162461bcd60e51b8152600401620000c59190620001a5565b50600280546001600160a01b039384166001600160a01b0319918216179091556003805492909316911617905566470de4df820000600455620001fd565b80516001600160a01b03811681146200016857600080fd5b919050565b600080604083850312156200018157600080fd5b6200018c8362000150565b91506200019c6020840162000150565b90509250929050565b600060208083528351808285015260005b81811015620001d457858101830151858201604001528201620001b6565b81811115620001e7576000604083870101525b50601f01601f1916929092016040019392505050565b611e47806200020d6000396000f3fe608060405234801561001057600080fd5b50600436106101425760003560e01c8063a7ed2a79116100b8578063e18189601161007c578063e18189601461029d578063e3056a34146102a6578063e3a07621146102b9578063e4c0aaf4146102cc578063e4dd02c3146102df578063e72a49d0146102f257600080fd5b8063a7ed2a7914610251578063b55b3f1b14610261578063c8a4271f1461026f578063d8f4a0aa14610282578063e0dcd3c31461029557600080fd5b80632e191ed71161010a5780632e191ed7146101cf578063442aae79146101f057806357ae33891461020357806375ceebd014610216578063765aff1e146102295780637cd8c1d01461023e57600080fd5b80630317ca7c14610147578063040141e51461015c5780630c340a2414610194578063238efcbc146101a75780632af31283146101af575b600080fd5b61015a610155366004611928565b610301565b005b61017773c02aaa39b223fe8d0a0e5c4f27ead9083c756cc281565b6040516001600160a01b0390911681526020015b60405180910390f35b600054610177906001600160a01b031681565b61015a61039c565b6101c26101bd3660046119ae565b610445565b60405161018b9190611a4b565b6101e26101dd366004611af5565b61074e565b60405190815260200161018b565b600354610177906001600160a01b031681565b61015a610211366004611b59565b61086d565b61015a610224366004611928565b610932565b6102316109bd565b60405161018b9190611b72565b61015a61024c366004611928565b6109ce565b6101e26802b5e3af16b188000081565b6101e266470de4df82000081565b600254610177906001600160a01b031681565b61015a610290366004611928565b610a59565b610231610ae4565b6101e260045481565b600154610177906001600160a01b031681565b61015a6102c7366004611928565b610af0565b61015a6102da366004611928565b610b7b565b61015a6102ed366004611928565b610c50565b6101e267016345785d8a000081565b600054604080518082019091526002815261033360f41b6020820152906001600160a01b0316331461034f5760405162461bcd60e51b81526004016103469190611bb3565b60405180910390fd5b5061035b600982610cdb565b506040516001600160a01b03821681527f150f6605e7fc997b9ef5bed4e904eef6e3f887a080d2f7010632435b47f67adc906020015b60405180910390a150565b600154604080518082019091526002815261033360f41b6020820152906001600160a01b031633146103e15760405162461bcd60e51b81526004016103469190611bb3565b5060008054600180546001600160a01b03198084166001600160a01b03808416919091179095551690556040805192909116808352336020840152917fde4b3f61490b74c0ed6237523974fe299126bbbf8a8a7482fd220104c59b0c849101610391565b6060600182511160405180604001604052806002815260200161333160f01b815250906104855760405162461bcd60e51b81526004016103469190611bb3565b506000825167ffffffffffffffff8111156104a2576104a2611943565b6040519080825280602002602001820160405280156104cb578160200160208202803683370190505b5090506000805b845181101561060c5760025485516001600160a01b0390911690635708447d9087908490811061050457610504611c08565b60200260200101516040518263ffffffff1660e01b815260040161053791906001600160a01b0391909116815260200190565b602060405180830381865afa158015610554573d6000803e3d6000fd5b505050506040513d601f19601f820116820180604052508101906105789190611c1e565b83828151811061058a5761058a611c08565b60200260200101818152505073c02aaa39b223fe8d0a0e5c4f27ead9083c756cc26001600160a01b03168582815181106105c6576105c6611c08565b60200260200101516001600160a01b031614156105fa578281815181106105ef576105ef611c08565b602002602001015191505b8061060481611c4d565b9150506104d2565b5060006106198584610cf7565b905060006106276005611177565b905060008167ffffffffffffffff81111561064457610644611943565b60405190808252806020026020018201604052801561066d578160200160208202803683370190505b50905060005b82811015610737576000610688600583611181565b604051635708447d60e01b815273c02aaa39b223fe8d0a0e5c4f27ead9083c756cc260048201529091506001600160a01b03821690635708447d90602401602060405180830381865afa1580156106e3573d6000803e3d6000fd5b505050506040513d601f19601f820116820180604052508101906107079190611c1e565b83838151811061071957610719611c08565b6020908102919091010152508061072f81611c4d565b915050610673565b5061074384828561118d565b509295945050505050565b60008082516000141561076c57610764846111f7565b915050610867565b610775836112a4565b90506000845160016107879190611c68565b67ffffffffffffffff81111561079f5761079f611943565b6040519080825280602002602001820160405280156107c8578160200160208202803683370190505b5090508181600183516107db9190611c80565b815181106107eb576107eb611c08565b60200260200101818152505060005b600182516108089190611c80565b8110156108585785818151811061082157610821611c08565b602002602001015182828151811061083b5761083b611c08565b60209081029190910101528061085081611c4d565b9150506107fa565b50610862816111f7565b925050505b92915050565b600054604080518082019091526002815261033360f41b6020820152906001600160a01b031633146108b25760405162461bcd60e51b81526004016103469190611bb3565b50604080518082019091526002815261333160f01b6020820152816108ea5760405162461bcd60e51b81526004016103469190611bb3565b50604080518082019091526002815261333160f01b602082015267016345785d8a0000821061092c5760405162461bcd60e51b81526004016103469190611bb3565b50600455565b600054604080518082019091526002815261033360f41b6020820152906001600160a01b031633146109775760405162461bcd60e51b81526004016103469190611bb3565b50610983600582610cdb565b506040516001600160a01b03821681527fb7f10b8974f181778e2544b4188359b499da116029e96c6a05bed5cdecee106490602001610391565b60606109c960096113ab565b905090565b600054604080518082019091526002815261033360f41b6020820152906001600160a01b03163314610a135760405162461bcd60e51b81526004016103469190611bb3565b50610a1f6009826113b8565b506040516001600160a01b03821681527fa67cac4de4567bfe36d7fa182b8455fd3e7d1b80c45191dd2b6dd5310a35306690602001610391565b600054604080518082019091526002815261033360f41b6020820152906001600160a01b03163314610a9e5760405162461bcd60e51b81526004016103469190611bb3565b50610aaa6007826113b8565b506040516001600160a01b03821681527f612ac93ad02ac7669d13be8835bb33d5c6d42bb4c46f0cdb717681ebd2b6455790602001610391565b60606109c960076113ab565b600054604080518082019091526002815261033360f41b6020820152906001600160a01b03163314610b355760405162461bcd60e51b81526004016103469190611bb3565b50610b416005826113b8565b506040516001600160a01b03821681527f8696120fb7656955ec406c2959998de0aa9798518606d5afb5f36789f522dfea90602001610391565b600054604080518082019091526002815261033360f41b6020820152906001600160a01b03163314610bc05760405162461bcd60e51b81526004016103469190611bb3565b50604080518082019091526002815261333160f01b60208201526001600160a01b038216610c015760405162461bcd60e51b81526004016103469190611bb3565b50600180546001600160a01b0319166001600160a01b0383169081179091556040519081527f67235ba2e63c748a35b95c4f92a3bbc2a1389938170a5ce6c9add5d0b03a314a90602001610391565b600054604080518082019091526002815261033360f41b6020820152906001600160a01b03163314610c955760405162461bcd60e51b81526004016103469190611bb3565b50610ca1600782610cdb565b506040516001600160a01b03821681527ffab625e04bc6eeef38aaf5c2e48b1f1953cf5183297f4115f0da9e906d4bf3ac90602001610391565b6000610cf0836001600160a01b0384166113cd565b9392505050565b60606000610d056007611177565b67ffffffffffffffff811115610d1d57610d1d611943565b604051908082528060200260200182016040528015610d46578160200160208202803683370190505b5090506000805b60018651610d5b9190611c80565b8110156110d1576000805b610d706009611177565b811015611084576000610d84600983611181565b9050806001600160a01b0316898581518110610da257610da2611c08565b60200260200101516001600160a01b03161480610e61575060035489516001600160a01b0390911690639446994a908b9087908110610de357610de3611c08565b6020026020010151836040518363ffffffff1660e01b8152600401610e1e9291906001600160a01b0392831681529116602082015260400190565b602060405180830381865afa158015610e3b573d6000803e3d6000fd5b505050506040513d601f19601f82011682018060405250810190610e5f9190611c97565b155b15610e6c5750611072565b60035489516000916001600160a01b031690639b56e6a7908c9088908110610e9657610e96611c08565b6020026020010151846040518363ffffffff1660e01b8152600401610ed19291906001600160a01b0392831681529116602082015260400190565b602060405180830381865afa158015610eee573d6000803e3d6000fd5b505050506040513d601f19601f82011682018060405250810190610f129190611c1e565b905073c02aaa39b223fe8d0a0e5c4f27ead9083c756cc26001600160a01b03168a8681518110610f4457610f44611c08565b60200260200101516001600160a01b0316148015610f685750610f6860078361141c565b15610f9d5780878781518110610f8057610f80611c08565b602090810291909101015285610f9581611c4d565b965050611033565b6001600160a01b03821673c02aaa39b223fe8d0a0e5c4f27ead9083c756cc2148015610ff15750610ff18a8681518110610fd957610fd9611c08565b6020026020010151600761141c90919063ffffffff16565b1561103357611008670de0b6b3a76400008261143e565b87878151811061101a5761101a611c08565b60209081029190910101528561102f81611c4d565b9650505b6000611040838c8c6114a6565b90506110668a878151811061105757611057611c08565b6020026020010151828461154b565b60019450505050611084565b8061107c81611c4d565b915050610d66565b50604080518082019091526002815261034360f41b6020820152816110bc5760405162461bcd60e51b81526004016103469190611bb3565b505080806110c990611c4d565b915050610d4d565b5060008167ffffffffffffffff8111156110ed576110ed611943565b604051908082528060200260200182016040528015611116578160200160208202803683370190505b50905060005b8281101561116d5783818151811061113657611136611c08565b602002602001015182828151811061115057611150611c08565b60209081029190910101528061116581611c4d565b91505061111c565b5095945050505050565b6000610867825490565b6000610cf083836115bd565b6000611199838361074e565b905060006111a785836115e7565b90506802b5e3af16b188000081111560405180604001604052806002815260200161343560f01b815250906111ef5760405162461bcd60e51b81526004016103469190611bb3565b505050505050565b60006112028261160a565b50600282516112119190611ccf565b156112425781600283516112259190611ce3565b8151811061123557611235611c08565b6020026020010151610867565b610867826001600285516112569190611ce3565b6112609190611c80565b8151811061127057611270611c08565b602002602001015183600285516112879190611ce3565b8151811061129757611297611c08565b6020026020010151611629565b600080826000815181106112ba576112ba611c08565b6020908102919091010151905060001960015b845181101561136b57828582815181106112e9576112e9611c08565b6020026020010151101561131b5782915084818151811061130c5761130c611c08565b60200260200101519250611359565b8185828151811061132e5761132e611c08565b602002602001015110156113595784818151811061134e5761134e611c08565b602002602001015191505b8061136381611c4d565b9150506112cd565b5083516001141561139a578360008151811061138957611389611c08565b602002602001015192505050919050565b835160021415610cf0575092915050565b60606000610cf083611644565b6000610cf0836001600160a01b0384166116a0565b600081815260018301602052604081205461141457508154600181810184556000848152602080822090930184905584548482528286019093526040902091909155610867565b506000610867565b6001600160a01b03811660009081526001830160205260408120541515610cf0565b604080518082019091526002815261323560f01b6020820152600090826114785760405162461bcd60e51b81526004016103469190611bb3565b508261148657506000610867565b600061149a670de0b6b3a764000085611cf7565b90506107648382611ce3565b6000805b835181101561151a57846001600160a01b03168482815181106114cf576114cf611c08565b60200260200101516001600160a01b03161415611508578281815181106114f8576114f8611c08565b6020026020010151915050610cf0565b8061151281611c4d565b9150506114aa565b506040805180820182526002815261034360f41b6020820152905162461bcd60e51b81526103469190600401611bb3565b6000611557848461143e565b9050600061156583836115e7565b90506000611573828561143e565b905060045481111560405180604001604052806002815260200161343160f01b815250906115b45760405162461bcd60e51b81526004016103469190611bb3565b50505050505050565b60008260000182815481106115d4576115d4611c08565b9060005260206000200154905092915050565b600081831015611600576115fb8383611c80565b610cf0565b610cf08284611c80565b6060611625826000600185516116209190611c80565b611793565b5090565b60006116386002848418611ce3565b610cf090848416611c68565b60608160000180548060200260200160405190810160405280929190818152602001828054801561169457602002820191906000526020600020905b815481526020019060010190808311611680575b50505050509050919050565b600081815260018301602052604081205480156117895760006116c4600183611c80565b85549091506000906116d890600190611c80565b905081811461173d5760008660000182815481106116f8576116f8611c08565b906000526020600020015490508087600001848154811061171b5761171b611c08565b6000918252602080832090910192909255918252600188019052604090208390555b855486908061174e5761174e611d16565b600190038181906000526020600020016000905590558560010160008681526020019081526020016000206000905560019350505050610867565b6000915050610867565b8181808214156117a4575050505050565b60008560026117b38787611d2c565b6117bd9190611d6b565b6117c79087611d99565b815181106117d7576117d7611c08565b602002602001015190505b8183136118e6575b808684815181106117fd576117fd611c08565b6020026020010151101561181d578261181581611dda565b9350506117ea565b85828151811061182f5761182f611c08565b6020026020010151811015611850578161184881611df3565b92505061181d565b8183136118e15785828151811061186957611869611c08565b602002602001015186848151811061188357611883611c08565b602002602001015187858151811061189d5761189d611c08565b602002602001018885815181106118b6576118b6611c08565b602090810291909101019190915252826118cf81611dda565b93505081806118dd90611df3565b9250505b6117e2565b818512156118f9576118f9868684611793565b838312156111ef576111ef868486611793565b80356001600160a01b038116811461192357600080fd5b919050565b60006020828403121561193a57600080fd5b610cf08261190c565b634e487b7160e01b600052604160045260246000fd5b604051601f8201601f1916810167ffffffffffffffff8111828210171561198257611982611943565b604052919050565b600067ffffffffffffffff8211156119a4576119a4611943565b5060051b60200190565b600060208083850312156119c157600080fd5b823567ffffffffffffffff8111156119d857600080fd5b8301601f810185136119e957600080fd5b80356119fc6119f78261198a565b611959565b81815260059190911b82018301908381019087831115611a1b57600080fd5b928401925b82841015611a4057611a318461190c565b82529284019290840190611a20565b979650505050505050565b6020808252825182820181905260009190848201906040850190845b81811015611a8357835183529284019291840191600101611a67565b50909695505050505050565b600082601f830112611aa057600080fd5b81356020611ab06119f78361198a565b82815260059290921b84018101918181019086841115611acf57600080fd5b8286015b84811015611aea5780358352918301918301611ad3565b509695505050505050565b60008060408385031215611b0857600080fd5b823567ffffffffffffffff80821115611b2057600080fd5b611b2c86838701611a8f565b93506020850135915080821115611b4257600080fd5b50611b4f85828601611a8f565b9150509250929050565b600060208284031215611b6b57600080fd5b5035919050565b6020808252825182820181905260009190848201906040850190845b81811015611a835783516001600160a01b031683529284019291840191600101611b8e565b600060208083528351808285015260005b81811015611be057858101830151858201604001528201611bc4565b81811115611bf2576000604083870101525b50601f01601f1916929092016040019392505050565b634e487b7160e01b600052603260045260246000fd5b600060208284031215611c3057600080fd5b5051919050565b634e487b7160e01b600052601160045260246000fd5b6000600019821415611c6157611c61611c37565b5060010190565b60008219821115611c7b57611c7b611c37565b500190565b600082821015611c9257611c92611c37565b500390565b600060208284031215611ca957600080fd5b81518015158114610cf057600080fd5b634e487b7160e01b600052601260045260246000fd5b600082611cde57611cde611cb9565b500690565b600082611cf257611cf2611cb9565b500490565b6000816000190483118215151615611d1157611d11611c37565b500290565b634e487b7160e01b600052603160045260246000fd5b60008083128015600160ff1b850184121615611d4a57611d4a611c37565b6001600160ff1b0384018313811615611d6557611d65611c37565b50500390565b600082611d7a57611d7a611cb9565b600160ff1b821460001984141615611d9457611d94611c37565b500590565b600080821280156001600160ff1b0384900385131615611dbb57611dbb611c37565b600160ff1b8390038412811615611dd457611dd4611c37565b50500190565b60006001600160ff1b03821415611c6157611c61611c37565b6000600160ff1b821415611e0957611e09611c37565b50600019019056fea2646970667358221220123440e55b4d56ed8016636c411144b8802a7b7db5b8a1f0737956d71884875664736f6c634300080a0033","bytecodeSha1":"4f2bfcfc652770ae94f1c1be95aa3efa2388d29b","compiler":{"evm_version":"istanbul","optimizer":{"enabled":true,"runs":200},"version":"0.8.10+commit.fc410830"},"contractName":"CheckedPriceOracle","language":"Solidity","natspec":{"kind":"dev","methods":{"acceptGovernance()":{"notice":"Called by the pending governor to approve the change"},"changeGovernor(address)":{"notice":"Changes the governor can only be called by the current governor"},"constructor":{"notice":"_usdOracle is for Chainlink"},"getPricesUSD(address[])":{"notice":"Quotes the USD price of `baseAssets` The quoted prices is always scaled with 18 decimals regardless of the source used for the oracle.","params":{"baseAssets":"the assets of which the price is to be quoted"},"returns":{"_0":"the USD prices of the asset"}},"getRobustWETHPrice(uint256[],uint256[])":{"notice":"this function provides an estimate of the true WETH price. 1. Find the minimum TWAP price (or second minumum if >2 TWAP prices) from a given array. 2. Add this to an array of signed prices 3. Compute the median of this array","params":{"signedPrices":"an array of prices from trusted providers (e.g. Chainlink, Coinbase, OKEx ETH/USD price)","twapPrices":"an array of Time Weighted Moving Average ETH/stablecoin prices"}},"governor()":{"notice":"Returns the current governor"},"pendingGovernor()":{"notice":"Returns the pending governor"}},"stateVariables":{"assetsForRelativePriceCheck":{"details":"This list is used to check if the relative price of the tokens are consistent"}},"version":1},"opcodes":"PUSH1 0x80 PUSH1 0x40 MSTORE CALLVALUE DUP1 ISZERO PUSH2 0x10 JUMPI PUSH1 0x0 DUP1 REVERT JUMPDEST POP PUSH1 0x4 CALLDATASIZE LT PUSH2 0x142 JUMPI PUSH1 0x0 CALLDATALOAD PUSH1 0xE0 SHR DUP1 PUSH4 0xA7ED2A79 GT PUSH2 0xB8 JUMPI DUP1 PUSH4 0xE1818960 GT PUSH2 0x7C JUMPI DUP1 PUSH4 0xE1818960 EQ PUSH2 0x29D JUMPI DUP1 PUSH4 0xE3056A34 EQ PUSH2 0x2A6 JUMPI DUP1 PUSH4 0xE3A07621 EQ PUSH2 0x2B9 JUMPI DUP1 PUSH4 0xE4C0AAF4 EQ PUSH2 0x2CC JUMPI DUP1 PUSH4 0xE4DD02C3 EQ PUSH2 0x2DF JUMPI DUP1 PUSH4 0xE72A49D0 EQ PUSH2 0x2F2 JUMPI PUSH1 0x0 DUP1 REVERT JUMPDEST DUP1 PUSH4 0xA7ED2A79 EQ PUSH2 0x251 JUMPI DUP1 PUSH4 0xB55B3F1B EQ PUSH2 0x261 JUMPI DUP1 PUSH4 0xC8A4271F EQ PUSH2 0x26F JUMPI DUP1 PUSH4 0xD8F4A0AA EQ PUSH2 0x282 JUMPI DUP1 PUSH4 0xE0DCD3C3 EQ PUSH2 0x295 JUMPI PUSH1 0x0 DUP1 REVERT JUMPDEST DUP1 PUSH4 0x2E191ED7 GT PUSH2 0x10A JUMPI DUP1 PUSH4 0x2E191ED7 EQ PUSH2 0x1CF JUMPI DUP1 PUSH4 0x442AAE79 EQ PUSH2 0x1F0 JUMPI DUP1 PUSH4 0x57AE3389 EQ PUSH2 0x203 JUMPI DUP1 PUSH4 0x75CEEBD0 EQ PUSH2 0x216 JUMPI DUP1 PUSH4 0x765AFF1E EQ PUSH2 0x229 JUMPI DUP1 PUSH4 0x7CD8C1D0 EQ PUSH2 0x23E JUMPI PUSH1 0x0 DUP1 REVERT JUMPDEST DUP1 PUSH4 0x317CA7C EQ PUSH2 0x147 JUMPI DUP1 PUSH4 0x40141E5 EQ PUSH2 0x15C JUMPI DUP1 PUSH4 0xC340A24 EQ PUSH2 0x194 JUMPI DUP1 PUSH4 0x238EFCBC EQ PUSH2 0x1A7 JUMPI DUP1 PUSH4 0x2AF31283 EQ PUSH2 0x1AF JUMPI JUMPDEST PUSH1 0x0 DUP1 REVERT JUMPDEST PUSH2 0x15A PUSH2 0x155 CALLDATASIZE PUSH1 0x4 PUSH2 0x1928 JUMP JUMPDEST PUSH2 0x301 JUMP JUMPDEST STOP JUMPDEST PUSH2 0x177 PUSH20 0xC02AAA39B223FE8D0A0E5C4F27EAD9083C756CC2 DUP2 JUMP JUMPDEST PUSH1 0x40 MLOAD PUSH1 0x1 PUSH1 0x1 PUSH1 0xA0 SHL SUB SWAP1 SWAP2 AND DUP2 MSTORE PUSH1 0x20 ADD JUMPDEST PUSH1 0x40 MLOAD DUP1 SWAP2 SUB SWAP1 RETURN JUMPDEST PUSH1 0x0 SLOAD PUSH2 0x177 SWAP1 PUSH1 0x1 PUSH1 0x1 PUSH1 0xA0 SHL SUB AND DUP2 JUMP JUMPDEST PUSH2 0x15A PUSH2 0x39C JUMP JUMPDEST PUSH2 0x1C2 PUSH2 0x1BD CALLDATASIZE PUSH1 0x4 PUSH2 0x19AE JUMP JUMPDEST PUSH2 0x445 JUMP JUMPDEST PUSH1 0x40 MLOAD PUSH2 0x18B SWAP2 SWAP1 PUSH2 0x1A4B JUMP JUMPDEST PUSH2 0x1E2 PUSH2 0x1DD CALLDATASIZE PUSH1 0x4 PUSH2 0x1AF5 JUMP JUMPDEST PUSH2 0x74E JUMP JUMPDEST PUSH1 0x40 MLOAD SWAP1 DUP2 MSTORE PUSH1 0x20 ADD PUSH2 0x18B JUMP JUMPDEST PUSH1 0x3 SLOAD PUSH2 0x177 SWAP1 PUSH1 0x1 PUSH1 0x1 PUSH1 0xA0 SHL SUB AND DUP2 JUMP JUMPDEST PUSH2 0x15A PUSH2 0x211 CALLDATASIZE PUSH1 0x4 PUSH2 0x1B59 JUMP JUMPDEST PUSH2 0x86D JUMP JUMPDEST PUSH2 0x15A PUSH2 0x224 CALLDATASIZE PUSH1 0x4 PUSH2 0x1928 JUMP JUMPDEST PUSH2 0x932 JUMP JUMPDEST PUSH2 0x231 PUSH2 0x9BD JUMP JUMPDEST PUSH1 0x40 MLOAD PUSH2 0x18B SWAP2 SWAP1 PUSH2 0x1B72 JUMP JUMPDEST PUSH2 0x15A PUSH2 0x24C CALLDATASIZE PUSH1 0x4 PUSH2 0x1928 JUMP JUMPDEST PUSH2 0x9CE JUMP JUMPDEST PUSH2 0x1E2 PUSH9 0x2B5E3AF16B1880000 DUP2 JUMP JUMPDEST PUSH2 0x1E2 PUSH7 0x470DE4DF820000 DUP2 JUMP JUMPDEST PUSH1 0x2 SLOAD PUSH2 0x177 SWAP1 PUSH1 0x1 PUSH1 0x1 PUSH1 0xA0 SHL SUB AND DUP2 JUMP JUMPDEST PUSH2 0x15A PUSH2 0x290 CALLDATASIZE PUSH1 0x4 PUSH2 0x1928 JUMP JUMPDEST PUSH2 0xA59 JUMP JUMPDEST PUSH2 0x231 PUSH2 0xAE4 JUMP JUMPDEST PUSH2 0x1E2 PUSH1 0x4 SLOAD DUP2 JUMP JUMPDEST PUSH1 0x1 SLOAD PUSH2 0x177 SWAP1 PUSH1 0x1 PUSH1 0x1 PUSH1 0xA0 SHL SUB AND DUP2 JUMP JUMPDEST PUSH2 0x15A PUSH2 0x2C7 CALLDATASIZE PUSH1 0x4 PUSH2 0x1928 JUMP JUMPDEST PUSH2 0xAF0 JUMP JUMPDEST PUSH2 0x15A PUSH2 0x2DA CALLDATASIZE PUSH1 0x4 PUSH2 0x1928 JUMP JUMPDEST PUSH2 0xB7B JUMP JUMPDEST PUSH2 0x15A PUSH2 0x2ED CALLDATASIZE PUSH1 0x4 PUSH2 0x1928 JUMP JUMPDEST PUSH2 0xC50 JUMP JUMPDEST PUSH2 0x1E2 PUSH8 0x16345785D8A0000 DUP2 JUMP JUMPDEST PUSH1 0x0 SLOAD PUSH1 0x40 DUP1 MLOAD DUP1 DUP3 ADD SWAP1 SWAP2 MSTORE PUSH1 0x2 DUP2 MSTORE PUSH2 0x333 PUSH1 0xF4 SHL PUSH1 0x20 DUP3 ADD MSTORE SWAP1 PUSH1 0x1 PUSH1 0x1 PUSH1 0xA0 SHL SUB AND CALLER EQ PUSH2 0x34F JUMPI PUSH1 0x40 MLOAD PUSH3 0x461BCD PUSH1 0xE5 SHL DUP2 MSTORE PUSH1 0x4 ADD PUSH2 0x346 SWAP2 SWAP1 PUSH2 0x1BB3 JUMP JUMPDEST PUSH1 0x40 MLOAD DUP1 SWAP2 SUB SWAP1 REVERT JUMPDEST POP PUSH2 0x35B PUSH1 0x9 DUP3 PUSH2 0xCDB JUMP JUMPDEST POP PUSH1 0x40 MLOAD PUSH1 0x1 PUSH1 0x1 PUSH1 0xA0 SHL SUB DUP3 AND DUP2 MSTORE PUSH32 0x150F6605E7FC997B9EF5BED4E904EEF6E3F887A080D2F7010632435B47F67ADC SWAP1 PUSH1 0x20 ADD JUMPDEST PUSH1 0x40 MLOAD DUP1 SWAP2 SUB SWAP1 LOG1 POP JUMP JUMPDEST PUSH1 0x1 SLOAD PUSH1 0x40 DUP1 MLOAD DUP1 DUP3 ADD SWAP1 SWAP2 MSTORE PUSH1 0x2 DUP2 MSTORE PUSH2 0x333 PUSH1 0xF4 SHL PUSH1 0x20 DUP3 ADD MSTORE SWAP1 PUSH1 0x1 PUSH1 0x1 PUSH1 0xA0 SHL SUB AND CALLER EQ PUSH2 0x3E1 JUMPI PUSH1 0x40 MLOAD PUSH3 0x461BCD PUSH1 0xE5 SHL DUP2 MSTORE PUSH1 0x4 ADD PUSH2 0x346 SWAP2 SWAP1 PUSH2 0x1BB3 JUMP JUMPDEST POP PUSH1 0x0 DUP1 SLOAD PUSH1 0x1 DUP1 SLOAD PUSH1 0x1 PUSH1 0x1 PUSH1 0xA0 SHL SUB NOT DUP1 DUP5 AND PUSH1 0x1 PUSH1 0x1 PUSH1 0xA0 SHL SUB DUP1 DUP5 AND SWAP2 SWAP1 SWAP2 OR SWAP1 SWAP6 SSTORE AND SWAP1 SSTORE PUSH1 0x40 DUP1 MLOAD SWAP3 SWAP1 SWAP2 AND DUP1 DUP4 MSTORE CALLER PUSH1 0x20 DUP5 ADD MSTORE SWAP2 PUSH32 0xDE4B3F61490B74C0ED6237523974FE299126BBBF8A8A7482FD220104C59B0C84 SWAP2 ADD PUSH2 0x391 JUMP JUMPDEST PUSH1 0x60 PUSH1 0x1 DUP3 MLOAD GT PUSH1 0x40 MLOAD DUP1 PUSH1 0x40 ADD PUSH1 0x40 MSTORE DUP1 PUSH1 0x2 DUP2 MSTORE PUSH1 0x20 ADD PUSH2 0x3331 PUSH1 0xF0 SHL DUP2 MSTORE POP SWAP1 PUSH2 0x485 JUMPI PUSH1 0x40 MLOAD PUSH3 0x461BCD PUSH1 0xE5 SHL DUP2 MSTORE PUSH1 0x4 ADD PUSH2 0x346 SWAP2 SWAP1 PUSH2 0x1BB3 JUMP JUMPDEST POP PUSH1 0x0 DUP3 MLOAD PUSH8 0xFFFFFFFFFFFFFFFF DUP2 GT ISZERO PUSH2 0x4A2 JUMPI PUSH2 0x4A2 PUSH2 0x1943 JUMP JUMPDEST PUSH1 0x40 MLOAD SWAP1 DUP1 DUP3 MSTORE DUP1 PUSH1 0x20 MUL PUSH1 0x20 ADD DUP3 ADD PUSH1 0x40 MSTORE DUP1 ISZERO PUSH2 0x4CB JUMPI DUP2 PUSH1 0x20 ADD PUSH1 0x20 DUP3 MUL DUP1 CALLDATASIZE DUP4 CALLDATACOPY ADD SWAP1 POP JUMPDEST POP SWAP1 POP PUSH1 0x0 DUP1 JUMPDEST DUP5 MLOAD DUP2 LT ISZERO PUSH2 0x60C JUMPI PUSH1 0x2 SLOAD DUP6 MLOAD PUSH1 0x1 PUSH1 0x1 PUSH1 0xA0 SHL SUB SWAP1 SWAP2 AND SWAP1 PUSH4 0x5708447D SWAP1 DUP8 SWAP1 DUP5 SWAP1 DUP2 LT PUSH2 0x504 JUMPI PUSH2 0x504 PUSH2 0x1C08 JUMP JUMPDEST PUSH1 0x20 MUL PUSH1 0x20 ADD ADD MLOAD PUSH1 0x40 MLOAD DUP3 PUSH4 0xFFFFFFFF AND PUSH1 0xE0 SHL DUP2 MSTORE PUSH1 0x4 ADD PUSH2 0x537 SWAP2 SWAP1 PUSH1 0x1 PUSH1 0x1 PUSH1 0xA0 SHL SUB SWAP2 SWAP1 SWAP2 AND DUP2 MSTORE PUSH1 0x20 ADD SWAP1 JUMP JUMPDEST PUSH1 0x20 PUSH1 0x40 MLOAD DUP1 DUP4 SUB DUP2 DUP7 GAS STATICCALL ISZERO DUP1 ISZERO PUSH2 0x554 JUMPI RETURNDATASIZE PUSH1 0x0 DUP1 RETURNDATACOPY RETURNDATASIZE PUSH1 0x0 REVERT JUMPDEST POP POP POP POP PUSH1 0x40 MLOAD RETURNDATASIZE PUSH1 0x1F NOT PUSH1 0x1F DUP3 ADD AND DUP3 ADD DUP1 PUSH1 0x40 MSTORE POP DUP2 ADD SWAP1 PUSH2 0x578 SWAP2 SWAP1 PUSH2 0x1C1E JUMP JUMPDEST DUP4 DUP3 DUP2 MLOAD DUP2 LT PUSH2 0x58A JUMPI PUSH2 0x58A PUSH2 0x1C08 JUMP JUMPDEST PUSH1 0x20 MUL PUSH1 0x20 ADD ADD DUP2 DUP2 MSTORE POP POP PUSH20 0xC02AAA39B223FE8D0A0E5C4F27EAD9083C756CC2 PUSH1 0x1 PUSH1 0x1 PUSH1 0xA0 SHL SUB AND DUP6 DUP3 DUP2 MLOAD DUP2 LT PUSH2 0x5C6 JUMPI PUSH2 0x5C6 PUSH2 0x1C08 JUMP JUMPDEST PUSH1 0x20 MUL PUSH1 0x20 ADD ADD MLOAD PUSH1 0x1 PUSH1 0x1 PUSH1 0xA0 SHL SUB AND EQ ISZERO PUSH2 0x5FA JUMPI DUP3 DUP2 DUP2 MLOAD DUP2 LT PUSH2 0x5EF JUMPI PUSH2 0x5EF PUSH2 0x1C08 JUMP JUMPDEST PUSH1 0x20 MUL PUSH1 0x20 ADD ADD MLOAD SWAP2 POP JUMPDEST DUP1 PUSH2 0x604 DUP2 PUSH2 0x1C4D JUMP JUMPDEST SWAP2 POP POP PUSH2 0x4D2 JUMP JUMPDEST POP PUSH1 0x0 PUSH2 0x619 DUP6 DUP5 PUSH2 0xCF7 JUMP JUMPDEST SWAP1 POP PUSH1 0x0 PUSH2 0x627 PUSH1 0x5 PUSH2 0x1177 JUMP JUMPDEST SWAP1 POP PUSH1 0x0 DUP2 PUSH8 0xFFFFFFFFFFFFFFFF DUP2 GT ISZERO PUSH2 0x644 JUMPI PUSH2 0x644 PUSH2 0x1943 JUMP JUMPDEST PUSH1 0x40 MLOAD SWAP1 DUP1 DUP3 MSTORE DUP1 PUSH1 0x20 MUL PUSH1 0x20 ADD DUP3 ADD PUSH1 0x40 MSTORE DUP1 ISZERO PUSH2 0x66D JUMPI DUP2 PUSH1 0x20 ADD PUSH1 0x20 DUP3 MUL DUP1 CALLDATASIZE DUP4 CALLDATACOPY ADD SWAP1 POP JUMPDEST POP SWAP1 POP PUSH1 0x0 JUMPDEST DUP3 DUP2 LT ISZERO PUSH2 0x737 JUMPI PUSH1 0x0 PUSH2 0x688 PUSH1 0x5 DUP4 PUSH2 0x1181 JUMP JUMPDEST PUSH1 0x40 MLOAD PUSH4 0x5708447D PUSH1 0xE0 SHL DUP2 MSTORE PUSH20 0xC02AAA39B223FE8D0A0E5C4F27EAD9083C756CC2 PUSH1 0x4 DUP3 ADD MSTORE SWAP1 SWAP2 POP PUSH1 0x1 PUSH1 0x1 PUSH1 0xA0 SHL SUB DUP3 AND SWAP1 PUSH4 0x5708447D SWAP1 PUSH1 0x24 ADD PUSH1 0x20 PUSH1 0x40 MLOAD DUP1 DUP4 SUB DUP2 DUP7 GAS STATICCALL ISZERO DUP1 ISZERO PUSH2 0x6E3 JUMPI RETURNDATASIZE PUSH1 0x0 DUP1 RETURNDATACOPY RETURNDATASIZE PUSH1 0x0 REVERT JUMPDEST POP POP POP POP PUSH1 0x40 MLOAD RETURNDATASIZE PUSH1 0x1F NOT PUSH1 0x1F DUP3 ADD AND DUP3 ADD DUP1 PUSH1 0x40 MSTORE POP DUP2 ADD SWAP1 PUSH2 0x707 SWAP2 SWAP1 PUSH2 0x1C1E JUMP JUMPDEST DUP4 DUP4 DUP2 MLOAD DUP2 LT PUSH2 0x719 JUMPI PUSH2 0x719 PUSH2 0x1C08 JUMP JUMPDEST PUSH1 0x20 SWAP1 DUP2 MUL SWAP2 SWAP1 SWAP2 ADD ADD MSTORE POP DUP1 PUSH2 0x72F DUP2 PUSH2 0x1C4D JUMP JUMPDEST SWAP2 POP POP PUSH2 0x673 JUMP JUMPDEST POP PUSH2 0x743 DUP5 DUP3 DUP6 PUSH2 0x118D JUMP JUMPDEST POP SWAP3 SWAP6 SWAP5 POP POP POP POP POP JUMP JUMPDEST PUSH1 0x0 DUP1 DUP3 MLOAD PUSH1 0x0 EQ ISZERO PUSH2 0x76C JUMPI PUSH2 0x764 DUP5 PUSH2 0x11F7 JUMP JUMPDEST SWAP2 POP POP PUSH2 0x867 JUMP JUMPDEST PUSH2 0x775 DUP4 PUSH2 0x12A4 JUMP JUMPDEST SWAP1 POP PUSH1 0x0 DUP5 MLOAD PUSH1 0x1 PUSH2 0x787 SWAP2 SWAP1 PUSH2 0x1C68 JUMP JUMPDEST PUSH8 0xFFFFFFFFFFFFFFFF DUP2 GT ISZERO PUSH2 0x79F JUMPI PUSH2 0x79F PUSH2 0x1943 JUMP JUMPDEST PUSH1 0x40 MLOAD SWAP1 DUP1 DUP3 MSTORE DUP1 PUSH1 0x20 MUL PUSH1 0x20 ADD DUP3 ADD PUSH1 0x40 MSTORE DUP1 ISZERO PUSH2 0x7C8 JUMPI DUP2 PUSH1 0x20 ADD PUSH1 0x20 DUP3 MUL DUP1 CALLDATASIZE DUP4 CALLDATACOPY ADD SWAP1 POP JUMPDEST POP SWAP1 POP DUP2 DUP2 PUSH1 0x1 DUP4 MLOAD PUSH2 0x7DB SWAP2 SWAP1 PUSH2 0x1C80 JUMP JUMPDEST DUP2 MLOAD DUP2 LT PUSH2 0x7EB JUMPI PUSH2 0x7EB PUSH2 0x1C08 JUMP JUMPDEST PUSH1 0x20 MUL PUSH1 0x20 ADD ADD DUP2 DUP2 MSTORE POP POP PUSH1 0x0 JUMPDEST PUSH1 0x1 DUP3 MLOAD PUSH2 0x808 SWAP2 SWAP1 PUSH2 0x1C80 JUMP JUMPDEST DUP2 LT ISZERO PUSH2 0x858 JUMPI DUP6 DUP2 DUP2 MLOAD DUP2 LT PUSH2 0x821 JUMPI PUSH2 0x821 PUSH2 0x1C08 JUMP JUMPDEST PUSH1 0x20 MUL PUSH1 0x20 ADD ADD MLOAD DUP3 DUP3 DUP2 MLOAD DUP2 LT PUSH2 0x83B JUMPI PUSH2 0x83B PUSH2 0x1C08 JUMP JUMPDEST PUSH1 0x20 SWAP1 DUP2 MUL SWAP2 SWAP1 SWAP2 ADD ADD MSTORE DUP1 PUSH2 0x850 DUP2 PUSH2 0x1C4D JUMP JUMPDEST SWAP2 POP POP PUSH2 0x7FA JUMP JUMPDEST POP PUSH2 0x862 DUP2 PUSH2 0x11F7 JUMP JUMPDEST SWAP3 POP POP POP JUMPDEST SWAP3 SWAP2 POP POP JUMP JUMPDEST PUSH1 0x0 SLOAD PUSH1 0x40 DUP1 MLOAD DUP1 DUP3 ADD SWAP1 SWAP2 MSTORE PUSH1 0x2 DUP2 MSTORE PUSH2 0x333 PUSH1 0xF4 SHL PUSH1 0x20 DUP3 ADD MSTORE SWAP1 PUSH1 0x1 PUSH1 0x1 PUSH1 0xA0 SHL SUB AND CALLER EQ PUSH2 0x8B2 JUMPI PUSH1 0x40 MLOAD PUSH3 0x461BCD PUSH1 0xE5 SHL DUP2 MSTORE PUSH1 0x4 ADD PUSH2 0x346 SWAP2 SWAP1 PUSH2 0x1BB3 JUMP JUMPDEST POP PUSH1 0x40 DUP1 MLOAD DUP1 DUP3 ADD SWAP1 SWAP2 MSTORE PUSH1 0x2 DUP2 MSTORE PUSH2 0x3331 PUSH1 0xF0 SHL PUSH1 0x20 DUP3 ADD MSTORE DUP2 PUSH2 0x8EA JUMPI PUSH1 0x40 MLOAD PUSH3 0x461BCD PUSH1 0xE5 SHL DUP2 MSTORE PUSH1 0x4 ADD PUSH2 0x346 SWAP2 SWAP1 PUSH2 0x1BB3 JUMP JUMPDEST POP PUSH1 0x40 DUP1 MLOAD DUP1 DUP3 ADD SWAP1 SWAP2 MSTORE PUSH1 0x2 DUP2 MSTORE PUSH2 0x3331 PUSH1 0xF0 SHL PUSH1 0x20 DUP3 ADD MSTORE PUSH8 0x16345785D8A0000 DUP3 LT PUSH2 0x92C JUMPI PUSH1 0x40 MLOAD PUSH3 0x461BCD PUSH1 0xE5 SHL DUP2 MSTORE PUSH1 0x4 ADD PUSH2 0x346 SWAP2 SWAP1 PUSH2 0x1BB3 JUMP JUMPDEST POP PUSH1 0x4 SSTORE JUMP JUMPDEST PUSH1 0x0 SLOAD PUSH1 0x40 DUP1 MLOAD DUP1 DUP3 ADD SWAP1 SWAP2 MSTORE PUSH1 0x2 DUP2 MSTORE PUSH2 0x333 PUSH1 0xF4 SHL PUSH1 0x20 DUP3 ADD MSTORE SWAP1 PUSH1 0x1 PUSH1 0x1 PUSH1 0xA0 SHL SUB AND CALLER EQ PUSH2 0x977 JUMPI PUSH1 0x40 MLOAD PUSH3 0x461BCD PUSH1 0xE5 SHL DUP2 MSTORE PUSH1 0x4 ADD PUSH2 0x346 SWAP2 SWAP1 PUSH2 0x1BB3 JUMP JUMPDEST POP PUSH2 0x983 PUSH1 0x5 DUP3 PUSH2 0xCDB JUMP JUMPDEST POP PUSH1 0x40 MLOAD PUSH1 0x1 PUSH1 0x1 PUSH1 0xA0 SHL SUB DUP3 AND DUP2 MSTORE PUSH32 0xB7F10B8974F181778E2544B4188359B499DA116029E96C6A05BED5CDECEE1064 SWAP1 PUSH1 0x20 ADD PUSH2 0x391 JUMP JUMPDEST PUSH1 0x60 PUSH2 0x9C9 PUSH1 0x9 PUSH2 0x13AB JUMP JUMPDEST SWAP1 POP SWAP1 JUMP JUMPDEST PUSH1 0x0 SLOAD PUSH1 0x40 DUP1 MLOAD DUP1 DUP3 ADD SWAP1 SWAP2 MSTORE PUSH1 0x2 DUP2 MSTORE PUSH2 0x333 PUSH1 0xF4 SHL PUSH1 0x20 DUP3 ADD MSTORE SWAP1 PUSH1 0x1 PUSH1 0x1 PUSH1 0xA0 SHL SUB AND CALLER EQ PUSH2 0xA13 JUMPI PUSH1 0x40 MLOAD PUSH3 0x461BCD PUSH1 0xE5 SHL DUP2 MSTORE PUSH1 0x4 ADD PUSH2 0x346 SWAP2 SWAP1 PUSH2 0x1BB3 JUMP JUMPDEST POP PUSH2 0xA1F PUSH1 0x9 DUP3 PUSH2 0x13B8 JUMP JUMPDEST POP PUSH1 0x40 MLOAD PUSH1 0x1 PUSH1 0x1 PUSH1 0xA0 SHL SUB DUP3 AND DUP2 MSTORE PUSH32 0xA67CAC4DE4567BFE36D7FA182B8455FD3E7D1B80C45191DD2B6DD5310A353066 SWAP1 PUSH1 0x20 ADD PUSH2 0x391 JUMP JUMPDEST PUSH1 0x0 SLOAD PUSH1 0x40 DUP1 MLOAD DUP1 DUP3 ADD SWAP1 SWAP2 MSTORE PUSH1 0x2 DUP2 MSTORE PUSH2 0x333 PUSH1 0xF4 SHL PUSH1 0x20 DUP3 ADD MSTORE SWAP1 PUSH1 0x1 PUSH1 0x1 PUSH1 0xA0 SHL SUB AND CALLER EQ PUSH2 0xA9E JUMPI PUSH1 0x40 MLOAD PUSH3 0x461BCD PUSH1 0xE5 SHL DUP2 MSTORE PUSH1 0x4 ADD PUSH2 0x346 SWAP2 SWAP1 PUSH2 0x1BB3 JUMP JUMPDEST POP PUSH2 0xAAA PUSH1 0x7 DUP3 PUSH2 0x13B8 JUMP JUMPDEST POP PUSH1 0x40 MLOAD PUSH1 0x1 PUSH1 0x1 PUSH1 0xA0 SHL SUB DUP3 AND DUP2 MSTORE PUSH32 0x612AC93AD02AC7669D13BE8835BB33D5C6D42BB4C46F0CDB717681EBD2B64557 SWAP1 PUSH1 0x20 ADD PUSH2 0x391 JUMP JUMPDEST PUSH1 0x60 PUSH2 0x9C9 PUSH1 0x7 PUSH2 0x13AB JUMP JUMPDEST PUSH1 0x0 SLOAD PUSH1 0x40 DUP1 MLOAD DUP1 DUP3 ADD SWAP1 SWAP2 MSTORE PUSH1 0x2 DUP2 MSTORE PUSH2 0x333 PUSH1 0xF4 SHL PUSH1 0x20 DUP3 ADD MSTORE SWAP1 PUSH1 0x1 PUSH1 0x1 PUSH1 0xA0 SHL SUB AND CALLER EQ PUSH2 0xB35 JUMPI PUSH1 0x40 MLOAD PUSH3 0x461BCD PUSH1 0xE5 SHL DUP2 MSTORE PUSH1 0x4 ADD PUSH2 0x346 SWAP2 SWAP1 PUSH2 0x1BB3 JUMP JUMPDEST POP PUSH2 0xB41 PUSH1 0x5 DUP3 PUSH2 0x13B8 JUMP JUMPDEST POP PUSH1 0x40 MLOAD PUSH1 0x1 PUSH1 0x1 PUSH1 0xA0 SHL SUB DUP3 AND DUP2 MSTORE PUSH32 0x8696120FB7656955EC406C2959998DE0AA9798518606D5AFB5F36789F522DFEA SWAP1 PUSH1 0x20 ADD PUSH2 0x391 JUMP JUMPDEST PUSH1 0x0 SLOAD PUSH1 0x40 DUP1 MLOAD DUP1 DUP3 ADD SWAP1 SWAP2 MSTORE PUSH1 0x2 DUP2 MSTORE PUSH2 0x333 PUSH1 0xF4 SHL PUSH1 0x20 DUP3 ADD MSTORE SWAP1 PUSH1 0x1 PUSH1 0x1 PUSH1 0xA0 SHL SUB AND CALLER EQ PUSH2 0xBC0 JUMPI PUSH1 0x40 MLOAD PUSH3 0x461BCD PUSH1 0xE5 SHL DUP2 MSTORE PUSH1 0x4 ADD PUSH2 0x346 SWAP2 SWAP1 PUSH2 0x1BB3 JUMP JUMPDEST POP PUSH1 0x40 DUP1 MLOAD DUP1 DUP3 ADD SWAP1 SWAP2 MSTORE PUSH1 0x2 DUP2 MSTORE PUSH2 0x3331 PUSH1 0xF0 SHL PUSH1 0x20 DUP3 ADD MSTORE PUSH1 0x1 PUSH1 0x1 PUSH1 0xA0 SHL SUB DUP3 AND PUSH2 0xC01 JUMPI PUSH1 0x40 MLOAD PUSH3 0x461BCD PUSH1 0xE5 SHL DUP2 MSTORE PUSH1 0x4 ADD PUSH2 0x346 SWAP2 SWAP1 PUSH2 0x1BB3 JUMP JUMPDEST POP PUSH1 0x1 DUP1 SLOAD PUSH1 0x1 PUSH1 0x1 PUSH1 0xA0 SHL SUB NOT AND PUSH1 0x1 PUSH1 0x1 PUSH1 0xA0 SHL SUB DUP4 AND SWAP1 DUP2 OR SWAP1 SWAP2 SSTORE PUSH1 0x40 MLOAD SWAP1 DUP2 MSTORE PUSH32 0x67235BA2E63C748A35B95C4F92A3BBC2A1389938170A5CE6C9ADD5D0B03A314A SWAP1 PUSH1 0x20 ADD PUSH2 0x391 JUMP JUMPDEST PUSH1 0x0 SLOAD PUSH1 0x40 DUP1 MLOAD DUP1 DUP3 ADD SWAP1 SWAP2 MSTORE PUSH1 0x2 DUP2 MSTORE PUSH2 0x333 PUSH1 0xF4 SHL PUSH1 0x20 DUP3 ADD MSTORE SWAP1 PUSH1 0x1 PUSH1 0x1 PUSH1 0xA0 SHL SUB AND CALLER EQ PUSH2 0xC95 JUMPI PUSH1 0x40 MLOAD PUSH3 0x461BCD PUSH1 0xE5 SHL DUP2 MSTORE PUSH1 0x4 ADD PUSH2 0x346 SWAP2 SWAP1 PUSH2 0x1BB3 JUMP JUMPDEST POP PUSH2 0xCA1 PUSH1 0x7 DUP3 PUSH2 0xCDB JUMP JUMPDEST POP PUSH1 0x40 MLOAD PUSH1 0x1 PUSH1 0x1 PUSH1 0xA0 SHL SUB DUP3 AND DUP2 MSTORE PUSH32 0xFAB625E04BC6EEEF38AAF5C2E48B1F1953CF5183297F4115F0DA9E906D4BF3AC SWAP1 PUSH1 0x20 ADD PUSH2 0x391 JUMP JUMPDEST PUSH1 0x0 PUSH2 0xCF0 DUP4 PUSH1 0x1 PUSH1 0x1 PUSH1 0xA0 SHL SUB DUP5 AND PUSH2 0x13CD JUMP JUMPDEST SWAP4 SWAP3 POP POP POP JUMP JUMPDEST PUSH1 0x60 PUSH1 0x0 PUSH2 0xD05 PUSH1 0x7 PUSH2 0x1177 JUMP JUMPDEST PUSH8 0xFFFFFFFFFFFFFFFF DUP2 GT ISZERO PUSH2 0xD1D JUMPI PUSH2 0xD1D PUSH2 0x1943 JUMP JUMPDEST PUSH1 0x40 MLOAD SWAP1 DUP1 DUP3 MSTORE DUP1 PUSH1 0x20 MUL PUSH1 0x20 ADD DUP3 ADD PUSH1 0x40 MSTORE DUP1 ISZERO PUSH2 0xD46 JUMPI DUP2 PUSH1 0x20 ADD PUSH1 0x20 DUP3 MUL DUP1 CALLDATASIZE DUP4 CALLDATACOPY ADD SWAP1 POP JUMPDEST POP SWAP1 POP PUSH1 0x0 DUP1 JUMPDEST PUSH1 0x1 DUP7 MLOAD PUSH2 0xD5B SWAP2 SWAP1 PUSH2 0x1C80 JUMP JUMPDEST DUP2 LT ISZERO PUSH2 0x10D1 JUMPI PUSH1 0x0 DUP1 JUMPDEST PUSH2 0xD70 PUSH1 0x9 PUSH2 0x1177 JUMP JUMPDEST DUP2 LT ISZERO PUSH2 0x1084 JUMPI PUSH1 0x0 PUSH2 0xD84 PUSH1 0x9 DUP4 PUSH2 0x1181 JUMP JUMPDEST SWAP1 POP DUP1 PUSH1 0x1 PUSH1 0x1 PUSH1 0xA0 SHL SUB AND DUP10 DUP6 DUP2 MLOAD DUP2 LT PUSH2 0xDA2 JUMPI PUSH2 0xDA2 PUSH2 0x1C08 JUMP JUMPDEST PUSH1 0x20 MUL PUSH1 0x20 ADD ADD MLOAD PUSH1 0x1 PUSH1 0x1 PUSH1 0xA0 SHL SUB AND EQ DUP1 PUSH2 0xE61 JUMPI POP PUSH1 0x3 SLOAD DUP10 MLOAD PUSH1 0x1 PUSH1 0x1 PUSH1 0xA0 SHL SUB SWAP1 SWAP2 AND SWAP1 PUSH4 0x9446994A SWAP1 DUP12 SWAP1 DUP8 SWAP1 DUP2 LT PUSH2 0xDE3 JUMPI PUSH2 0xDE3 PUSH2 0x1C08 JUMP JUMPDEST PUSH1 0x20 MUL PUSH1 0x20 ADD ADD MLOAD DUP4 PUSH1 0x40 MLOAD DUP4 PUSH4 0xFFFFFFFF AND PUSH1 0xE0 SHL DUP2 MSTORE PUSH1 0x4 ADD PUSH2 0xE1E SWAP3 SWAP2 SWAP1 PUSH1 0x1 PUSH1 0x1 PUSH1 0xA0 SHL SUB SWAP3 DUP4 AND DUP2 MSTORE SWAP2 AND PUSH1 0x20 DUP3 ADD MSTORE PUSH1 0x40 ADD SWAP1 JUMP JUMPDEST PUSH1 0x20 PUSH1 0x40 MLOAD DUP1 DUP4 SUB DUP2 DUP7 GAS STATICCALL ISZERO DUP1 ISZERO PUSH2 0xE3B JUMPI RETURNDATASIZE PUSH1 0x0 DUP1 RETURNDATACOPY RETURNDATASIZE PUSH1 0x0 REVERT JUMPDEST POP POP POP POP PUSH1 0x40 MLOAD RETURNDATASIZE PUSH1 0x1F NOT PUSH1 0x1F DUP3 ADD AND DUP3 ADD DUP1 PUSH1 0x40 MSTORE POP DUP2 ADD SWAP1 PUSH2 0xE5F SWAP2 SWAP1 PUSH2 0x1C97 JUMP JUMPDEST ISZERO JUMPDEST ISZERO PUSH2 0xE6C JUMPI POP PUSH2 0x1072 JUMP JUMPDEST PUSH1 0x3 SLOAD DUP10 MLOAD PUSH1 0x0 SWAP2 PUSH1 0x1 PUSH1 0x1 PUSH1 0xA0 SHL SUB AND SWAP1 PUSH4 0x9B56E6A7 SWAP1 DUP13 SWAP1 DUP9 SWAP1 DUP2 LT PUSH2 0xE96 JUMPI PUSH2 0xE96 PUSH2 0x1C08 JUMP JUMPDEST PUSH1 0x20 MUL PUSH1 0x20 ADD ADD MLOAD DUP5 PUSH1 0x40 MLOAD DUP4 PUSH4 0xFFFFFFFF AND PUSH1 0xE0 SHL DUP2 MSTORE PUSH1 0x4 ADD PUSH2 0xED1 SWAP3 SWAP2 SWAP1 PUSH1 0x1 PUSH1 0x1 PUSH1 0xA0 SHL SUB SWAP3 DUP4 AND DUP2 MSTORE SWAP2 AND PUSH1 0x20 DUP3 ADD MSTORE PUSH1 0x40 ADD SWAP1 JUMP JUMPDEST PUSH1 0x20 PUSH1 0x40 MLOAD DUP1 DUP4 SUB DUP2 DUP7 GAS STATICCALL ISZERO DUP1 ISZERO PUSH2 0xEEE JUMPI RETURNDATASIZE PUSH1 0x0 DUP1 RETURNDATACOPY RETURNDATASIZE PUSH1 0x0 REVERT JUMPDEST POP POP POP POP PUSH1 0x40 MLOAD RETURNDATASIZE PUSH1 0x1F NOT PUSH1 0x1F DUP3 ADD AND DUP3 ADD DUP1 PUSH1 0x40 MSTORE POP DUP2 ADD SWAP1 PUSH2 0xF12 SWAP2 SWAP1 PUSH2 0x1C1E JUMP JUMPDEST SWAP1 POP PUSH20 0xC02AAA39B223FE8D0A0E5C4F27EAD9083C756CC2 PUSH1 0x1 PUSH1 0x1 PUSH1 0xA0 SHL SUB AND DUP11 DUP7 DUP2 MLOAD DUP2 LT PUSH2 0xF44 JUMPI PUSH2 0xF44 PUSH2 0x1C08 JUMP JUMPDEST PUSH1 0x20 MUL PUSH1 0x20 ADD ADD MLOAD PUSH1 0x1 PUSH1 0x1 PUSH1 0xA0 SHL SUB AND EQ DUP1 ISZERO PUSH2 0xF68 JUMPI POP PUSH2 0xF68 PUSH1 0x7 DUP4 PUSH2 0x141C JUMP JUMPDEST ISZERO PUSH2 0xF9D JUMPI DUP1 DUP8 DUP8 DUP2 MLOAD DUP2 LT PUSH2 0xF80 JUMPI PUSH2 0xF80 PUSH2 0x1C08 JUMP JUMPDEST PUSH1 0x20 SWAP1 DUP2 MUL SWAP2 SWAP1 SWAP2 ADD ADD MSTORE DUP6 PUSH2 0xF95 DUP2 PUSH2 0x1C4D JUMP JUMPDEST SWAP7 POP POP PUSH2 0x1033 JUMP JUMPDEST PUSH1 0x1 PUSH1 0x1 PUSH1 0xA0 SHL SUB DUP3 AND PUSH20 0xC02AAA39B223FE8D0A0E5C4F27EAD9083C756CC2 EQ DUP1 ISZERO PUSH2 0xFF1 JUMPI POP PUSH2 0xFF1 DUP11 DUP7 DUP2 MLOAD DUP2 LT PUSH2 0xFD9 JUMPI PUSH2 0xFD9 PUSH2 0x1C08 JUMP JUMPDEST PUSH1 0x20 MUL PUSH1 0x20 ADD ADD MLOAD PUSH1 0x7 PUSH2 0x141C SWAP1 SWAP2 SWAP1 PUSH4 0xFFFFFFFF AND JUMP JUMPDEST ISZERO PUSH2 0x1033 JUMPI PUSH2 0x1008 PUSH8 0xDE0B6B3A7640000 DUP3 PUSH2 0x143E JUMP JUMPDEST DUP8 DUP8 DUP2 MLOAD DUP2 LT PUSH2 0x101A JUMPI PUSH2 0x101A PUSH2 0x1C08 JUMP JUMPDEST PUSH1 0x20 SWAP1 DUP2 MUL SWAP2 SWAP1 SWAP2 ADD ADD MSTORE DUP6 PUSH2 0x102F DUP2 PUSH2 0x1C4D JUMP JUMPDEST SWAP7 POP POP JUMPDEST PUSH1 0x0 PUSH2 0x1040 DUP4 DUP13 DUP13 PUSH2 0x14A6 JUMP JUMPDEST SWAP1 POP PUSH2 0x1066 DUP11 DUP8 DUP2 MLOAD DUP2 LT PUSH2 0x1057 JUMPI PUSH2 0x1057 PUSH2 0x1C08 JUMP JUMPDEST PUSH1 0x20 MUL PUSH1 0x20 ADD ADD MLOAD DUP3 DUP5 PUSH2 0x154B JUMP JUMPDEST PUSH1 0x1 SWAP5 POP POP POP POP PUSH2 0x1084 JUMP JUMPDEST DUP1 PUSH2 0x107C DUP2 PUSH2 0x1C4D JUMP JUMPDEST SWAP2 POP POP PUSH2 0xD66 JUMP JUMPDEST POP PUSH1 0x40 DUP1 MLOAD DUP1 DUP3 ADD SWAP1 SWAP2 MSTORE PUSH1 0x2 DUP2 MSTORE PUSH2 0x343 PUSH1 0xF4 SHL PUSH1 0x20 DUP3 ADD MSTORE DUP2 PUSH2 0x10BC JUMPI PUSH1 0x40 MLOAD PUSH3 0x461BCD PUSH1 0xE5 SHL DUP2 MSTORE PUSH1 0x4 ADD PUSH2 0x346 SWAP2 SWAP1 PUSH2 0x1BB3 JUMP JUMPDEST POP POP DUP1 DUP1 PUSH2 0x10C9 SWAP1 PUSH2 0x1C4D JUMP JUMPDEST SWAP2 POP POP PUSH2 0xD4D JUMP JUMPDEST POP PUSH1 0x0 DUP2 PUSH8 0xFFFFFFFFFFFFFFFF DUP2 GT ISZERO PUSH2 0x10ED JUMPI PUSH2 0x10ED PUSH2 0x1943 JUMP JUMPDEST PUSH1 0x40 MLOAD SWAP1 DUP1 DUP3 MSTORE DUP1 PUSH1 0x20 MUL PUSH1 0x20 ADD DUP3 ADD PUSH1 0x40 MSTORE DUP1 ISZERO PUSH2 0x1116 JUMPI DUP2 PUSH1 0x20 ADD PUSH1 0x20 DUP3 MUL DUP1 CALLDATASIZE DUP4 CALLDATACOPY ADD SWAP1 POP JUMPDEST POP SWAP1 POP PUSH1 0x0 JUMPDEST DUP3 DUP2 LT ISZERO PUSH2 0x116D JUMPI DUP4 DUP2 DUP2 MLOAD DUP2 LT PUSH2 0x1136 JUMPI PUSH2 0x1136 PUSH2 0x1C08 JUMP JUMPDEST PUSH1 0x20 MUL PUSH1 0x20 ADD ADD MLOAD DUP3 DUP3 DUP2 MLOAD DUP2 LT PUSH2 0x1150 JUMPI PUSH2 0x1150 PUSH2 0x1C08 JUMP JUMPDEST PUSH1 0x20 SWAP1 DUP2 MUL SWAP2 SWAP1 SWAP2 ADD ADD MSTORE DUP1 PUSH2 0x1165 DUP2 PUSH2 0x1C4D JUMP JUMPDEST SWAP2 POP POP PUSH2 0x111C JUMP JUMPDEST POP SWAP6 SWAP5 POP POP POP POP POP JUMP JUMPDEST PUSH1 0x0 PUSH2 0x867 DUP3 SLOAD SWAP1 JUMP JUMPDEST PUSH1 0x0 PUSH2 0xCF0 DUP4 DUP4 PUSH2 0x15BD JUMP JUMPDEST PUSH1 0x0 PUSH2 0x1199 DUP4 DUP4 PUSH2 0x74E JUMP JUMPDEST SWAP1 POP PUSH1 0x0 PUSH2 0x11A7 DUP6 DUP4 PUSH2 0x15E7 JUMP JUMPDEST SWAP1 POP PUSH9 0x2B5E3AF16B1880000 DUP2 GT ISZERO PUSH1 0x40 MLOAD DUP1 PUSH1 0x40 ADD PUSH1 0x40 MSTORE DUP1 PUSH1 0x2 DUP2 MSTORE PUSH1 0x20 ADD PUSH2 0x3435 PUSH1 0xF0 SHL DUP2 MSTORE POP SWAP1 PUSH2 0x11EF JUMPI PUSH1 0x40 MLOAD PUSH3 0x461BCD PUSH1 0xE5 SHL DUP2 MSTORE PUSH1 0x4 ADD PUSH2 0x346 SWAP2 SWAP1 PUSH2 0x1BB3 JUMP JUMPDEST POP POP POP POP POP POP JUMP JUMPDEST PUSH1 0x0 PUSH2 0x1202 DUP3 PUSH2 0x160A JUMP JUMPDEST POP PUSH1 0x2 DUP3 MLOAD PUSH2 0x1211 SWAP2 SWAP1 PUSH2 0x1CCF JUMP JUMPDEST ISZERO PUSH2 0x1242 JUMPI DUP2 PUSH1 0x2 DUP4 MLOAD PUSH2 0x1225 SWAP2 SWAP1 PUSH2 0x1CE3 JUMP JUMPDEST DUP2 MLOAD DUP2 LT PUSH2 0x1235 JUMPI PUSH2 0x1235 PUSH2 0x1C08 JUMP JUMPDEST PUSH1 0x20 MUL PUSH1 0x20 ADD ADD MLOAD PUSH2 0x867 JUMP JUMPDEST PUSH2 0x867 DUP3 PUSH1 0x1 PUSH1 0x2 DUP6 MLOAD PUSH2 0x1256 SWAP2 SWAP1 PUSH2 0x1CE3 JUMP JUMPDEST PUSH2 0x1260 SWAP2 SWAP1 PUSH2 0x1C80 JUMP JUMPDEST DUP2 MLOAD DUP2 LT PUSH2 0x1270 JUMPI PUSH2 0x1270 PUSH2 0x1C08 JUMP JUMPDEST PUSH1 0x20 MUL PUSH1 0x20 ADD ADD MLOAD DUP4 PUSH1 0x2 DUP6 MLOAD PUSH2 0x1287 SWAP2 SWAP1 PUSH2 0x1CE3 JUMP JUMPDEST DUP2 MLOAD DUP2 LT PUSH2 0x1297 JUMPI PUSH2 0x1297 PUSH2 0x1C08 JUMP JUMPDEST PUSH1 0x20 MUL PUSH1 0x20 ADD ADD MLOAD PUSH2 0x1629 JUMP JUMPDEST PUSH1 0x0 DUP1 DUP3 PUSH1 0x0 DUP2 MLOAD DUP2 LT PUSH2 0x12BA JUMPI PUSH2 0x12BA PUSH2 0x1C08 JUMP JUMPDEST PUSH1 0x20 SWAP1 DUP2 MUL SWAP2 SWAP1 SWAP2 ADD ADD MLOAD SWAP1 POP PUSH1 0x0 NOT PUSH1 0x1 JUMPDEST DUP5 MLOAD DUP2 LT ISZERO PUSH2 0x136B JUMPI DUP3 DUP6 DUP3 DUP2 MLOAD DUP2 LT PUSH2 0x12E9 JUMPI PUSH2 0x12E9 PUSH2 0x1C08 JUMP JUMPDEST PUSH1 0x20 MUL PUSH1 0x20 ADD ADD MLOAD LT ISZERO PUSH2 0x131B JUMPI DUP3 SWAP2 POP DUP5 DUP2 DUP2 MLOAD DUP2 LT PUSH2 0x130C JUMPI PUSH2 0x130C PUSH2 0x1C08 JUMP JUMPDEST PUSH1 0x20 MUL PUSH1 0x20 ADD ADD MLOAD SWAP3 POP PUSH2 0x1359 JUMP JUMPDEST DUP2 DUP6 DUP3 DUP2 MLOAD DUP2 LT PUSH2 0x132E JUMPI PUSH2 0x132E PUSH2 0x1C08 JUMP JUMPDEST PUSH1 0x20 MUL PUSH1 0x20 ADD ADD MLOAD LT ISZERO PUSH2 0x1359 JUMPI DUP5 DUP2 DUP2 MLOAD DUP2 LT PUSH2 0x134E JUMPI PUSH2 0x134E PUSH2 0x1C08 JUMP JUMPDEST PUSH1 0x20 MUL PUSH1 0x20 ADD ADD MLOAD SWAP2 POP JUMPDEST DUP1 PUSH2 0x1363 DUP2 PUSH2 0x1C4D JUMP JUMPDEST SWAP2 POP POP PUSH2 0x12CD JUMP JUMPDEST POP DUP4 MLOAD PUSH1 0x1 EQ ISZERO PUSH2 0x139A JUMPI DUP4 PUSH1 0x0 DUP2 MLOAD DUP2 LT PUSH2 0x1389 JUMPI PUSH2 0x1389 PUSH2 0x1C08 JUMP JUMPDEST PUSH1 0x20 MUL PUSH1 0x20 ADD ADD MLOAD SWAP3 POP POP POP SWAP2 SWAP1 POP JUMP JUMPDEST DUP4 MLOAD PUSH1 0x2 EQ ISZERO PUSH2 0xCF0 JUMPI POP SWAP3 SWAP2 POP POP JUMP JUMPDEST PUSH1 0x60 PUSH1 0x0 PUSH2 0xCF0 DUP4 PUSH2 0x1644 JUMP JUMPDEST PUSH1 0x0 PUSH2 0xCF0 DUP4 PUSH1 0x1 PUSH1 0x1 PUSH1 0xA0 SHL SUB DUP5 AND PUSH2 0x16A0 JUMP JUMPDEST PUSH1 0x0 DUP2 DUP2 MSTORE PUSH1 0x1 DUP4 ADD PUSH1 0x20 MSTORE PUSH1 0x40 DUP2 KECCAK256 SLOAD PUSH2 0x1414 JUMPI POP DUP2 SLOAD PUSH1 0x1 DUP2 DUP2 ADD DUP5 SSTORE PUSH1 0x0 DUP5 DUP2 MSTORE PUSH1 0x20 DUP1 DUP3 KECCAK256 SWAP1 SWAP4 ADD DUP5 SWAP1 SSTORE DUP5 SLOAD DUP5 DUP3 MSTORE DUP3 DUP7 ADD SWAP1 SWAP4 MSTORE PUSH1 0x40 SWAP1 KECCAK256 SWAP2 SWAP1 SWAP2 SSTORE PUSH2 0x867 JUMP JUMPDEST POP PUSH1 0x0 PUSH2 0x867 JUMP JUMPDEST PUSH1 0x1 PUSH1 0x1 PUSH1 0xA0 SHL SUB DUP2 AND PUSH1 0x0 SWAP1 DUP2 MSTORE PUSH1 0x1 DUP4 ADD PUSH1 0x20 MSTORE PUSH1 0x40 DUP2 KECCAK256 SLOAD ISZERO ISZERO PUSH2 0xCF0 JUMP JUMPDEST PUSH1 0x40 DUP1 MLOAD DUP1 DUP3 ADD SWAP1 SWAP2 MSTORE PUSH1 0x2 DUP2 MSTORE PUSH2 0x3235 PUSH1 0xF0 SHL PUSH1 0x20 DUP3 ADD MSTORE PUSH1 0x0 SWAP1 DUP3 PUSH2 0x1478 JUMPI PUSH1 0x40 MLOAD PUSH3 0x461BCD PUSH1 0xE5 SHL DUP2 MSTORE PUSH1 0x4 ADD PUSH2 0x346 SWAP2 SWAP1 PUSH2 0x1BB3 JUMP JUMPDEST POP DUP3 PUSH2 0x1486 JUMPI POP PUSH1 0x0 PUSH2 0x867 JUMP JUMPDEST PUSH1 0x0 PUSH2 0x149A PUSH8 0xDE0B6B3A7640000 DUP6 PUSH2 0x1CF7 JUMP JUMPDEST SWAP1 POP PUSH2 0x764 DUP4 DUP3 PUSH2 0x1CE3 JUMP JUMPDEST PUSH1 0x0 DUP1 JUMPDEST DUP4 MLOAD DUP2 LT ISZERO PUSH2 0x151A JUMPI DUP5 PUSH1 0x1 PUSH1 0x1 PUSH1 0xA0 SHL SUB AND DUP5 DUP3 DUP2 MLOAD DUP2 LT PUSH2 0x14CF JUMPI PUSH2 0x14CF PUSH2 0x1C08 JUMP JUMPDEST PUSH1 0x20 MUL PUSH1 0x20 ADD ADD MLOAD PUSH1 0x1 PUSH1 0x1 PUSH1 0xA0 SHL SUB AND EQ ISZERO PUSH2 0x1508 JUMPI DUP3 DUP2 DUP2 MLOAD DUP2 LT PUSH2 0x14F8 JUMPI PUSH2 0x14F8 PUSH2 0x1C08 JUMP JUMPDEST PUSH1 0x20 MUL PUSH1 0x20 ADD ADD MLOAD SWAP2 POP POP PUSH2 0xCF0 JUMP JUMPDEST DUP1 PUSH2 0x1512 DUP2 PUSH2 0x1C4D JUMP JUMPDEST SWAP2 POP POP PUSH2 0x14AA JUMP JUMPDEST POP PUSH1 0x40 DUP1 MLOAD DUP1 DUP3 ADD DUP3 MSTORE PUSH1 0x2 DUP2 MSTORE PUSH2 0x343 PUSH1 0xF4 SHL PUSH1 0x20 DUP3 ADD MSTORE SWAP1 MLOAD PUSH3 0x461BCD PUSH1 0xE5 SHL DUP2 MSTORE PUSH2 0x346 SWAP2 SWAP1 PUSH1 0x4 ADD PUSH2 0x1BB3 JUMP JUMPDEST PUSH1 0x0 PUSH2 0x1557 DUP5 DUP5 PUSH2 0x143E JUMP JUMPDEST SWAP1 POP PUSH1 0x0 PUSH2 0x1565 DUP4 DUP4 PUSH2 0x15E7 JUMP JUMPDEST SWAP1 POP PUSH1 0x0 PUSH2 0x1573 DUP3 DUP6 PUSH2 0x143E JUMP JUMPDEST SWAP1 POP PUSH1 0x4 SLOAD DUP2 GT ISZERO PUSH1 0x40 MLOAD DUP1 PUSH1 0x40 ADD PUSH1 0x40 MSTORE DUP1 PUSH1 0x2 DUP2 MSTORE PUSH1 0x20 ADD PUSH2 0x3431 PUSH1 0xF0 SHL DUP2 MSTORE POP SWAP1 PUSH2 0x15B4 JUMPI PUSH1 0x40 MLOAD PUSH3 0x461BCD PUSH1 0xE5 SHL DUP2 MSTORE PUSH1 0x4 ADD PUSH2 0x346 SWAP2 SWAP1 PUSH2 0x1BB3 JUMP JUMPDEST POP POP POP POP POP POP POP JUMP JUMPDEST PUSH1 0x0 DUP3 PUSH1 0x0 ADD DUP3 DUP2 SLOAD DUP2 LT PUSH2 0x15D4 JUMPI PUSH2 0x15D4 PUSH2 0x1C08 JUMP JUMPDEST SWAP1 PUSH1 0x0 MSTORE PUSH1 0x20 PUSH1 0x0 KECCAK256 ADD SLOAD SWAP1 POP SWAP3 SWAP2 POP POP JUMP JUMPDEST PUSH1 0x0 DUP2 DUP4 LT ISZERO PUSH2 0x1600 JUMPI PUSH2 0x15FB DUP4 DUP4 PUSH2 0x1C80 JUMP JUMPDEST PUSH2 0xCF0 JUMP JUMPDEST PUSH2 0xCF0 DUP3 DUP5 PUSH2 0x1C80 JUMP JUMPDEST PUSH1 0x60 PUSH2 0x1625 DUP3 PUSH1 0x0 PUSH1 0x1 DUP6 MLOAD PUSH2 0x1620 SWAP2 SWAP1 PUSH2 0x1C80 JUMP JUMPDEST PUSH2 0x1793 JUMP JUMPDEST POP SWAP1 JUMP JUMPDEST PUSH1 0x0 PUSH2 0x1638 PUSH1 0x2 DUP5 DUP5 XOR PUSH2 0x1CE3 JUMP JUMPDEST PUSH2 0xCF0 SWAP1 DUP5 DUP5 AND PUSH2 0x1C68 JUMP JUMPDEST PUSH1 0x60 DUP2 PUSH1 0x0 ADD DUP1 SLOAD DUP1 PUSH1 0x20 MUL PUSH1 0x20 ADD PUSH1 0x40 MLOAD SWAP1 DUP2 ADD PUSH1 0x40 MSTORE DUP1 SWAP3 SWAP2 SWAP1 DUP2 DUP2 MSTORE PUSH1 0x20 ADD DUP3 DUP1 SLOAD DUP1 ISZERO PUSH2 0x1694 JUMPI PUSH1 0x20 MUL DUP3 ADD SWAP2 SWAP1 PUSH1 0x0 MSTORE PUSH1 0x20 PUSH1 0x0 KECCAK256 SWAP1 JUMPDEST DUP2 SLOAD DUP2 MSTORE PUSH1 0x20 ADD SWAP1 PUSH1 0x1 ADD SWAP1 DUP1 DUP4 GT PUSH2 0x1680 JUMPI JUMPDEST POP POP POP POP POP SWAP1 POP SWAP2 SWAP1 POP JUMP JUMPDEST PUSH1 0x0 DUP2 DUP2 MSTORE PUSH1 0x1 DUP4 ADD PUSH1 0x20 MSTORE PUSH1 0x40 DUP2 KECCAK256 SLOAD DUP1 ISZERO PUSH2 0x1789 JUMPI PUSH1 0x0 PUSH2 0x16C4 PUSH1 0x1 DUP4 PUSH2 0x1C80 JUMP JUMPDEST DUP6 SLOAD SWAP1 SWAP2 POP PUSH1 0x0 SWAP1 PUSH2 0x16D8 SWAP1 PUSH1 0x1 SWAP1 PUSH2 0x1C80 JUMP JUMPDEST SWAP1 POP DUP2 DUP2 EQ PUSH2 0x173D JUMPI PUSH1 0x0 DUP7 PUSH1 0x0 ADD DUP3 DUP2 SLOAD DUP2 LT PUSH2 0x16F8 JUMPI PUSH2 0x16F8 PUSH2 0x1C08 JUMP JUMPDEST SWAP1 PUSH1 0x0 MSTORE PUSH1 0x20 PUSH1 0x0 KECCAK256 ADD SLOAD SWAP1 POP DUP1 DUP8 PUSH1 0x0 ADD DUP5 DUP2 SLOAD DUP2 LT PUSH2 0x171B JUMPI PUSH2 0x171B PUSH2 0x1C08 JUMP JUMPDEST PUSH1 0x0 SWAP2 DUP3 MSTORE PUSH1 0x20 DUP1 DUP4 KECCAK256 SWAP1 SWAP2 ADD SWAP3 SWAP1 SWAP3 SSTORE SWAP2 DUP3 MSTORE PUSH1 0x1 DUP9 ADD SWAP1 MSTORE PUSH1 0x40 SWAP1 KECCAK256 DUP4 SWAP1 SSTORE JUMPDEST DUP6 SLOAD DUP7 SWAP1 DUP1 PUSH2 0x174E JUMPI PUSH2 0x174E PUSH2 0x1D16 JUMP JUMPDEST PUSH1 0x1 SWAP1 SUB DUP2 DUP2 SWAP1 PUSH1 0x0 MSTORE PUSH1 0x20 PUSH1 0x0 KECCAK256 ADD PUSH1 0x0 SWAP1 SSTORE SWAP1 SSTORE DUP6 PUSH1 0x1 ADD PUSH1 0x0 DUP7 DUP2 MSTORE PUSH1 0x20 ADD SWAP1 DUP2 MSTORE PUSH1 0x20 ADD PUSH1 0x0 KECCAK256 PUSH1 0x0 SWAP1 SSTORE PUSH1 0x1 SWAP4 POP POP POP POP PUSH2 0x867 JUMP JUMPDEST PUSH1 0x0 SWAP2 POP POP PUSH2 0x867 JUMP JUMPDEST DUP2 DUP2 DUP1 DUP3 EQ ISZERO PUSH2 0x17A4 JUMPI POP POP POP POP POP JUMP JUMPDEST PUSH1 0x0 DUP6 PUSH1 0x2 PUSH2 0x17B3 DUP8 DUP8 PUSH2 0x1D2C JUMP JUMPDEST PUSH2 0x17BD SWAP2 SWAP1 PUSH2 0x1D6B JUMP JUMPDEST PUSH2 0x17C7 SWAP1 DUP8 PUSH2 0x1D99 JUMP JUMPDEST DUP2 MLOAD DUP2 LT PUSH2 0x17D7 JUMPI PUSH2 0x17D7 PUSH2 0x1C08 JUMP JUMPDEST PUSH1 0x20 MUL PUSH1 0x20 ADD ADD MLOAD SWAP1 POP JUMPDEST DUP2 DUP4 SGT PUSH2 0x18E6 JUMPI JUMPDEST DUP1 DUP7 DUP5 DUP2 MLOAD DUP2 LT PUSH2 0x17FD JUMPI PUSH2 0x17FD PUSH2 0x1C08 JUMP JUMPDEST PUSH1 0x20 MUL PUSH1 0x20 ADD ADD MLOAD LT ISZERO PUSH2 0x181D JUMPI DUP3 PUSH2 0x1815 DUP2 PUSH2 0x1DDA JUMP JUMPDEST SWAP4 POP POP PUSH2 0x17EA JUMP JUMPDEST DUP6 DUP3 DUP2 MLOAD DUP2 LT PUSH2 0x182F JUMPI PUSH2 0x182F PUSH2 0x1C08 JUMP JUMPDEST PUSH1 0x20 MUL PUSH1 0x20 ADD ADD MLOAD DUP2 LT ISZERO PUSH2 0x1850 JUMPI DUP2 PUSH2 0x1848 DUP2 PUSH2 0x1DF3 JUMP JUMPDEST SWAP3 POP POP PUSH2 0x181D JUMP JUMPDEST DUP2 DUP4 SGT PUSH2 0x18E1 JUMPI DUP6 DUP3 DUP2 MLOAD DUP2 LT PUSH2 0x1869 JUMPI PUSH2 0x1869 PUSH2 0x1C08 JUMP JUMPDEST PUSH1 0x20 MUL PUSH1 0x20 ADD ADD MLOAD DUP7 DUP5 DUP2 MLOAD DUP2 LT PUSH2 0x1883 JUMPI PUSH2 0x1883 PUSH2 0x1C08 JUMP JUMPDEST PUSH1 0x20 MUL PUSH1 0x20 ADD ADD MLOAD DUP8 DUP6 DUP2 MLOAD DUP2 LT PUSH2 0x189D JUMPI PUSH2 0x189D PUSH2 0x1C08 JUMP JUMPDEST PUSH1 0x20 MUL PUSH1 0x20 ADD ADD DUP9 DUP6 DUP2 MLOAD DUP2 LT PUSH2 0x18B6 JUMPI PUSH2 0x18B6 PUSH2 0x1C08 JUMP JUMPDEST PUSH1 0x20 SWAP1 DUP2 MUL SWAP2 SWAP1 SWAP2 ADD ADD SWAP2 SWAP1 SWAP2 MSTORE MSTORE DUP3 PUSH2 0x18CF DUP2 PUSH2 0x1DDA JUMP JUMPDEST SWAP4 POP POP DUP2 DUP1 PUSH2 0x18DD SWAP1 PUSH2 0x1DF3 JUMP JUMPDEST SWAP3 POP POP JUMPDEST PUSH2 0x17E2 JUMP JUMPDEST DUP2 DUP6 SLT ISZERO PUSH2 0x18F9 JUMPI PUSH2 0x18F9 DUP7 DUP7 DUP5 PUSH2 0x1793 JUMP JUMPDEST DUP4 DUP4 SLT ISZERO PUSH2 0x11EF JUMPI PUSH2 0x11EF DUP7 DUP5 DUP7 PUSH2 0x1793 JUMP JUMPDEST DUP1 CALLDATALOAD PUSH1 0x1 PUSH1 0x1 PUSH1 0xA0 SHL SUB DUP2 AND DUP2 EQ PUSH2 0x1923 JUMPI PUSH1 0x0 DUP1 REVERT JUMPDEST SWAP2 SWAP1 POP JUMP JUMPDEST PUSH1 0x0 PUSH1 0x20 DUP3 DUP5 SUB SLT ISZERO PUSH2 0x193A JUMPI PUSH1 0x0 DUP1 REVERT JUMPDEST PUSH2 0xCF0 DUP3 PUSH2 0x190C JUMP JUMPDEST PUSH4 0x4E487B71 PUSH1 0xE0 SHL PUSH1 0x0 MSTORE PUSH1 0x41 PUSH1 0x4 MSTORE PUSH1 0x24 PUSH1 0x0 REVERT JUMPDEST PUSH1 0x40 MLOAD PUSH1 0x1F DUP3 ADD PUSH1 0x1F NOT AND DUP2 ADD PUSH8 0xFFFFFFFFFFFFFFFF DUP2 GT DUP3 DUP3 LT OR ISZERO PUSH2 0x1982 JUMPI PUSH2 0x1982 PUSH2 0x1943 JUMP JUMPDEST PUSH1 0x40 MSTORE SWAP2 SWAP1 POP JUMP JUMPDEST PUSH1 0x0 PUSH8 0xFFFFFFFFFFFFFFFF DUP3 GT ISZERO PUSH2 0x19A4 JUMPI PUSH2 0x19A4 PUSH2 0x1943 JUMP JUMPDEST POP PUSH1 0x5 SHL PUSH1 0x20 ADD SWAP1 JUMP JUMPDEST PUSH1 0x0 PUSH1 0x20 DUP1 DUP4 DUP6 SUB SLT ISZERO PUSH2 0x19C1 JUMPI PUSH1 0x0 DUP1 REVERT JUMPDEST DUP3 CALLDATALOAD PUSH8 0xFFFFFFFFFFFFFFFF DUP2 GT ISZERO PUSH2 0x19D8 JUMPI PUSH1 0x0 DUP1 REVERT JUMPDEST DUP4 ADD PUSH1 0x1F DUP2 ADD DUP6 SGT PUSH2 0x19E9 JUMPI PUSH1 0x0 DUP1 REVERT JUMPDEST DUP1 CALLDATALOAD PUSH2 0x19FC PUSH2 0x19F7 DUP3 PUSH2 0x198A JUMP JUMPDEST PUSH2 0x1959 JUMP JUMPDEST DUP2 DUP2 MSTORE PUSH1 0x5 SWAP2 SWAP1 SWAP2 SHL DUP3 ADD DUP4 ADD SWAP1 DUP4 DUP2 ADD SWAP1 DUP8 DUP4 GT ISZERO PUSH2 0x1A1B JUMPI PUSH1 0x0 DUP1 REVERT JUMPDEST SWAP3 DUP5 ADD SWAP3 JUMPDEST DUP3 DUP5 LT ISZERO PUSH2 0x1A40 JUMPI PUSH2 0x1A31 DUP5 PUSH2 0x190C JUMP JUMPDEST DUP3 MSTORE SWAP3 DUP5 ADD SWAP3 SWAP1 DUP5 ADD SWAP1 PUSH2 0x1A20 JUMP JUMPDEST SWAP8 SWAP7 POP POP POP POP POP POP POP JUMP JUMPDEST PUSH1 0x20 DUP1 DUP3 MSTORE DUP3 MLOAD DUP3 DUP3 ADD DUP2 SWAP1 MSTORE PUSH1 0x0 SWAP2 SWAP1 DUP5 DUP3 ADD SWAP1 PUSH1 0x40 DUP6 ADD SWAP1 DUP5 JUMPDEST DUP2 DUP2 LT ISZERO PUSH2 0x1A83 JUMPI DUP4 MLOAD DUP4 MSTORE SWAP3 DUP5 ADD SWAP3 SWAP2 DUP5 ADD SWAP2 PUSH1 0x1 ADD PUSH2 0x1A67 JUMP JUMPDEST POP SWAP1 SWAP7 SWAP6 POP POP POP POP POP POP JUMP JUMPDEST PUSH1 0x0 DUP3 PUSH1 0x1F DUP4 ADD SLT PUSH2 0x1AA0 JUMPI PUSH1 0x0 DUP1 REVERT JUMPDEST DUP2 CALLDATALOAD PUSH1 0x20 PUSH2 0x1AB0 PUSH2 0x19F7 DUP4 PUSH2 0x198A JUMP JUMPDEST DUP3 DUP2 MSTORE PUSH1 0x5 SWAP3 SWAP1 SWAP3 SHL DUP5 ADD DUP2 ADD SWAP2 DUP2 DUP2 ADD SWAP1 DUP7 DUP5 GT ISZERO PUSH2 0x1ACF JUMPI PUSH1 0x0 DUP1 REVERT JUMPDEST DUP3 DUP7 ADD JUMPDEST DUP5 DUP2 LT ISZERO PUSH2 0x1AEA JUMPI DUP1 CALLDATALOAD DUP4 MSTORE SWAP2 DUP4 ADD SWAP2 DUP4 ADD PUSH2 0x1AD3 JUMP JUMPDEST POP SWAP7 SWAP6 POP POP POP POP POP POP JUMP JUMPDEST PUSH1 0x0 DUP1 PUSH1 0x40 DUP4 DUP6 SUB SLT ISZERO PUSH2 0x1B08 JUMPI PUSH1 0x0 DUP1 REVERT JUMPDEST DUP3 CALLDATALOAD PUSH8 0xFFFFFFFFFFFFFFFF DUP1 DUP3 GT ISZERO PUSH2 0x1B20 JUMPI PUSH1 0x0 DUP1 REVERT JUMPDEST PUSH2 0x1B2C DUP7 DUP4 DUP8 ADD PUSH2 0x1A8F JUMP JUMPDEST SWAP4 POP PUSH1 0x20 DUP6 ADD CALLDATALOAD SWAP2 POP DUP1 DUP3 GT ISZERO PUSH2 0x1B42 JUMPI PUSH1 0x0 DUP1 REVERT JUMPDEST POP PUSH2 0x1B4F DUP6 DUP3 DUP7 ADD PUSH2 0x1A8F JUMP JUMPDEST SWAP2 POP POP SWAP3 POP SWAP3 SWAP1 POP JUMP JUMPDEST PUSH1 0x0 PUSH1 0x20 DUP3 DUP5 SUB SLT ISZERO PUSH2 0x1B6B JUMPI PUSH1 0x0 DUP1 REVERT JUMPDEST POP CALLDATALOAD SWAP2 SWAP1 POP JUMP JUMPDEST PUSH1 0x20 DUP1 DUP3 MSTORE DUP3 MLOAD DUP3 DUP3 ADD DUP2 SWAP1 MSTORE PUSH1 0x0 SWAP2 SWAP1 DUP5 DUP3 ADD SWAP1 PUSH1 0x40 DUP6 ADD SWAP1 DUP5 JUMPDEST DUP2 DUP2 LT ISZERO PUSH2 0x1A83 JUMPI DUP4 MLOAD PUSH1 0x1 PUSH1 0x1 PUSH1 0xA0 SHL SUB AND DUP4 MSTORE SWAP3 DUP5 ADD SWAP3 SWAP2 DUP5 ADD SWAP2 PUSH1 0x1 ADD PUSH2 0x1B8E JUMP JUMPDEST PUSH1 0x0 PUSH1 0x20 DUP1 DUP4 MSTORE DUP4 MLOAD DUP1 DUP3 DUP6 ADD MSTORE PUSH1 0x0 JUMPDEST DUP2 DUP2 LT ISZERO PUSH2 0x1BE0 JUMPI DUP6 DUP2 ADD DUP4 ADD MLOAD DUP6 DUP3 ADD PUSH1 0x40 ADD MSTORE DUP3 ADD PUSH2 0x1BC4 JUMP JUMPDEST DUP2 DUP2 GT ISZERO PUSH2 0x1BF2 JUMPI PUSH1 0x0 PUSH1 0x40 DUP4 DUP8 ADD ADD MSTORE JUMPDEST POP PUSH1 0x1F ADD PUSH1 0x1F NOT AND SWAP3 SWAP1 SWAP3 ADD PUSH1 0x40 ADD SWAP4 SWAP3 POP POP POP JUMP JUMPDEST PUSH4 0x4E487B71 PUSH1 0xE0 SHL PUSH1 0x0 MSTORE PUSH1 0x32 PUSH1 0x4 MSTORE PUSH1 0x24 PUSH1 0x0 REVERT JUMPDEST PUSH1 0x0 PUSH1 0x20 DUP3 DUP5 SUB SLT ISZERO PUSH2 0x1C30 JUMPI PUSH1 0x0 DUP1 REVERT JUMPDEST POP MLOAD SWAP2 SWAP1 POP JUMP JUMPDEST PUSH4 0x4E487B71 PUSH1 0xE0 SHL PUSH1 0x0 MSTORE PUSH1 0x11 PUSH1 0x4 MSTORE PUSH1 0x24 PUSH1 0x0 REVERT JUMPDEST PUSH1 0x0 PUSH1 0x0 NOT DUP3 EQ ISZERO PUSH2 0x1C61 JUMPI PUSH2 0x1C61 PUSH2 0x1C37 JUMP JUMPDEST POP PUSH1 0x1 ADD SWAP1 JUMP JUMPDEST PUSH1 0x0 DUP3 NOT DUP3 GT ISZERO PUSH2 0x1C7B JUMPI PUSH2 0x1C7B PUSH2 0x1C37 JUMP JUMPDEST POP ADD SWAP1 JUMP JUMPDEST PUSH1 0x0 DUP3 DUP3 LT ISZERO PUSH2 0x1C92 JUMPI PUSH2 0x1C92 PUSH2 0x1C37 JUMP JUMPDEST POP SUB SWAP1 JUMP JUMPDEST PUSH1 0x0 PUSH1 0x20 DUP3 DUP5 SUB SLT ISZERO PUSH2 0x1CA9 JUMPI PUSH1 0x0 DUP1 REVERT JUMPDEST DUP2 MLOAD DUP1 ISZERO ISZERO DUP2 EQ PUSH2 0xCF0 JUMPI PUSH1 0x0 DUP1 REVERT JUMPDEST PUSH4 0x4E487B71 PUSH1 0xE0 SHL PUSH1 0x0 MSTORE PUSH1 0x12 PUSH1 0x4 MSTORE PUSH1 0x24 PUSH1 0x0 REVERT JUMPDEST PUSH1 0x0 DUP3 PUSH2 0x1CDE JUMPI PUSH2 0x1CDE PUSH2 0x1CB9 JUMP JUMPDEST POP MOD SWAP1 JUMP JUMPDEST PUSH1 0x0 DUP3 PUSH2 0x1CF2 JUMPI PUSH2 0x1CF2 PUSH2 0x1CB9 JUMP JUMPDEST POP DIV SWAP1 JUMP JUMPDEST PUSH1 0x0 DUP2 PUSH1 0x0 NOT DIV DUP4 GT DUP3 ISZERO ISZERO AND ISZERO PUSH2 0x1D11 JUMPI PUSH2 0x1D11 PUSH2 0x1C37 JUMP JUMPDEST POP MUL SWAP1 JUMP JUMPDEST PUSH4 0x4E487B71 PUSH1 0xE0 SHL PUSH1 0x0 MSTORE PUSH1 0x31 PUSH1 0x4 MSTORE PUSH1 0x24 PUSH1 0x0 REVERT JUMPDEST PUSH1 0x0 DUP1 DUP4 SLT DUP1 ISZERO PUSH1 0x1 PUSH1 0xFF SHL DUP6 ADD DUP5 SLT AND ISZERO PUSH2 0x1D4A JUMPI PUSH2 0x1D4A PUSH2 0x1C37 JUMP JUMPDEST PUSH1 0x1 PUSH1 0x1 PUSH1 0xFF SHL SUB DUP5 ADD DUP4 SGT DUP2 AND ISZERO PUSH2 0x1D65 JUMPI PUSH2 0x1D65 PUSH2 0x1C37 JUMP JUMPDEST POP POP SUB SWAP1 JUMP JUMPDEST PUSH1 0x0 DUP3 PUSH2 0x1D7A JUMPI PUSH2 0x1D7A PUSH2 0x1CB9 JUMP JUMPDEST PUSH1 0x1 PUSH1 0xFF SHL DUP3 EQ PUSH1 0x0 NOT DUP5 EQ AND ISZERO PUSH2 0x1D94 JUMPI PUSH2 0x1D94 PUSH2 0x1C37 JUMP JUMPDEST POP SDIV SWAP1 JUMP JUMPDEST PUSH1 0x0 DUP1 DUP3 SLT DUP1 ISZERO PUSH1 0x1 PUSH1 0x1 PUSH1 0xFF SHL SUB DUP5 SWAP1 SUB DUP6 SGT AND ISZERO PUSH2 0x1DBB JUMPI PUSH2 0x1DBB PUSH2 0x1C37 JUMP JUMPDEST PUSH1 0x1 PUSH1 0xFF SHL DUP4 SWAP1 SUB DUP5 SLT DUP2 AND ISZERO PUSH2 0x1DD4 JUMPI PUSH2 0x1DD4 PUSH2 0x1C37 JUMP JUMPDEST POP POP ADD SWAP1 JUMP JUMPDEST PUSH1 0x0 PUSH1 0x1 PUSH1 0x1 PUSH1 0xFF SHL SUB DUP3 EQ ISZERO PUSH2 0x1C61 JUMPI PUSH2 0x1C61 PUSH2 0x1C37 JUMP JUMPDEST PUSH1 0x0 PUSH1 0x1 PUSH1 0xFF SHL DUP3 EQ ISZERO PUSH2 0x1E09 JUMPI PUSH2 0x1E09 PUSH2 0x1C37 JUMP JUMPDEST POP PUSH1 0x0 NOT ADD SWAP1 JUMP INVALID LOG2 PUSH5 0x6970667358 0x22 SLT KECCAK256 SLT CALLVALUE BLOCKHASH 0xE5 JUMPDEST 0x4D JUMP 0xED DUP1 AND PUSH4 0x6C411144 0xB8 DUP1 0x2A PUSH28 0x7DB5B8A1F0737956D71884875664736F6C634300080A003300000000 ","sha1":"2db693aff7f9f599abc97068f865a1b3e35a4bc3","source":"// SPDX-License-Identifier: UNLICENSED\npragma solidity ^0.8.4;\n\nimport \"@openzeppelin/contracts/utils/math/Math.sol\";\nimport \"@openzeppelin/contracts/utils/math/SafeCast.sol\";\nimport \"@openzeppelin/contracts/utils/structs/EnumerableSet.sol\";\n\nimport \"../../interfaces/oracles/IUSDPriceOracle.sol\";\nimport \"../../interfaces/oracles/IRelativePriceOracle.sol\";\nimport \"../../interfaces/oracles/IUSDBatchPriceOracle.sol\";\nimport \"../../libraries/EnumerableExtensions.sol\";\n\nimport \"../auth/Governable.sol\";\n\nimport \"../../libraries/Errors.sol\";\nimport \"../../libraries/FixedPoint.sol\";\n\ncontract CheckedPriceOracle is IUSDBatchPriceOracle, Governable {\n    using EnumerableSet for EnumerableSet.AddressSet;\n\n    using FixedPoint for uint256;\n    using SafeCast for uint256;\n    using SafeCast for int256;\n\n    uint256 public constant MAX_ABSOLUTE_WETH_DEVIATION = 50e18;\n    uint256 public constant INITIAL_RELATIVE_EPSILON = 0.02e18;\n    uint256 public constant MAX_RELATIVE_EPSILON = 0.1e18;\n\n    address public constant WETH_ADDRESS = address(0xC02aaA39b223FE8D0A0e5C4F27eAD9083C756Cc2);\n\n    IUSDPriceOracle public usdOracle;\n    IRelativePriceOracle public relativeOracle;\n\n    uint256 public relativeEpsilon;\n\n    EnumerableSet.AddressSet internal trustedSignerPriceOracles;\n\n    /// This list is going to be used for the twaps to be input into the price level checks.\n    /// These are the addresses of the assets to be paired with ETH e.g. USDC or USDT\n    EnumerableSet.AddressSet internal quoteAssetsForPriceLevelTWAPS;\n\n    /// @dev This list is used to check if the relative price of the tokens are consistent\n    EnumerableSet.AddressSet internal assetsForRelativePriceCheck;\n\n    event PriceLevelTWAPQuoteAssetAdded(address _addressToAdd);\n    event PriceLevelTWAPQuoteAssetRemoved(address _addressToRemove);\n\n    event AssetForRelativePriceCheckAdded(address _addressToAdd);\n    event AssetForRelativePriceCheckRemoved(address _addressToRemove);\n\n    event TrustedSignerOracleAdded(address _addressToAdd);\n    event TrustedSignerOracleRemoved(address _addressToRemove);\n\n    /// _usdOracle is for Chainlink\n    constructor(address _usdOracle, address _relativeOracle) {\n        require(_usdOracle != address(0), Errors.INVALID_ARGUMENT);\n        require(_relativeOracle != address(0), Errors.INVALID_ARGUMENT);\n        usdOracle = IUSDPriceOracle(_usdOracle);\n        relativeOracle = IRelativePriceOracle(_relativeOracle);\n        relativeEpsilon = INITIAL_RELATIVE_EPSILON;\n    }\n\n    function addSignedPriceSource(address _signedAssetToAdd) external governanceOnly {\n        trustedSignerPriceOracles.add(_signedAssetToAdd);\n        emit TrustedSignerOracleAdded(_signedAssetToAdd);\n    }\n\n    function removeSignedPriceSource(address _signedAssetToRemove) external governanceOnly {\n        trustedSignerPriceOracles.remove(_signedAssetToRemove);\n        emit TrustedSignerOracleRemoved(_signedAssetToRemove);\n    }\n\n    function addQuoteAssetsForPriceLevelTwap(address _quoteAssetToAdd) external governanceOnly {\n        quoteAssetsForPriceLevelTWAPS.add(_quoteAssetToAdd);\n        emit PriceLevelTWAPQuoteAssetAdded(_quoteAssetToAdd);\n    }\n\n    function listQuoteAssetsForPriceLevelTwap() external view returns (address[] memory) {\n        return quoteAssetsForPriceLevelTWAPS.values();\n    }\n\n    function removeQuoteAssetsForPriceLevelTwap(address _quoteAssetToRemove)\n        external\n        governanceOnly\n    {\n        quoteAssetsForPriceLevelTWAPS.remove(_quoteAssetToRemove);\n        emit PriceLevelTWAPQuoteAssetRemoved(_quoteAssetToRemove);\n    }\n\n    function addAssetForRelativePriceCheck(address assetToAdd) external governanceOnly {\n        assetsForRelativePriceCheck.add(assetToAdd);\n        emit AssetForRelativePriceCheckAdded(assetToAdd);\n    }\n\n    function listAssetForRelativePriceCheck() external view returns (address[] memory) {\n        return assetsForRelativePriceCheck.values();\n    }\n\n    function removeAssetForRelativePriceCheck(address assetToRemove) external governanceOnly {\n        assetsForRelativePriceCheck.remove(assetToRemove);\n        emit AssetForRelativePriceCheckRemoved(assetToRemove);\n    }\n\n    function batchRelativePriceCheck(address[] memory tokenAddresses, uint256[] memory prices)\n        internal\n        view\n        returns (uint256[] memory)\n    {\n        uint256[] memory priceLevelTwaps = new uint256[](quoteAssetsForPriceLevelTWAPS.length());\n\n        uint256 k;\n        for (uint256 i = 0; i < tokenAddresses.length - 1; i++) {\n            bool couldCheck = false;\n\n            for (uint256 j = 0; j < assetsForRelativePriceCheck.length(); j++) {\n                address assetForCheck = assetsForRelativePriceCheck.at(j);\n                if (\n                    tokenAddresses[i] == assetForCheck ||\n                    !relativeOracle.isPairSupported(tokenAddresses[i], assetForCheck)\n                ) {\n                    continue;\n                }\n\n                uint256 relativePrice = relativeOracle.getRelativePrice(\n                    tokenAddresses[i],\n                    assetForCheck\n                );\n\n                if (\n                    tokenAddresses[i] == WETH_ADDRESS &&\n                    quoteAssetsForPriceLevelTWAPS.contains(assetForCheck)\n                ) {\n                    priceLevelTwaps[k] = relativePrice;\n                    k++;\n                } else if (\n                    assetForCheck == WETH_ADDRESS &&\n                    quoteAssetsForPriceLevelTWAPS.contains(tokenAddresses[i])\n                ) {\n                    priceLevelTwaps[k] = FixedPoint.ONE.divDown(relativePrice);\n                    k++;\n                }\n\n                uint256 assetForCheckPrice = _findPrice(assetForCheck, tokenAddresses, prices);\n                _ensureRelativePriceConsistency(prices[i], assetForCheckPrice, relativePrice);\n\n                couldCheck = true;\n                break;\n            }\n\n            require(couldCheck, Errors.ASSET_NOT_SUPPORTED);\n        }\n\n        uint256[] memory foundTwaps = new uint256[](k);\n        for (uint256 i = 0; i < k; i++) {\n            foundTwaps[i] = priceLevelTwaps[i];\n        }\n\n        return foundTwaps;\n    }\n\n    //NB this is expected to be queried for ALL asset prices in the reserve\n    /// @inheritdoc IUSDBatchPriceOracle\n    function getPricesUSD(address[] memory tokenAddresses)\n        public\n        view\n        override\n        returns (uint256[] memory)\n    {\n        require(tokenAddresses.length > 1, Errors.INVALID_ARGUMENT);\n\n        uint256[] memory prices = new uint256[](tokenAddresses.length);\n\n        /// Will start with this being the WETH/USD price, this can be modified later if desired.\n        uint256 priceLevel;\n\n        for (uint256 i = 0; i < tokenAddresses.length; i++) {\n            prices[i] = usdOracle.getPriceUSD(tokenAddresses[i]);\n            if (tokenAddresses[i] == WETH_ADDRESS) {\n                priceLevel = prices[i];\n            }\n        }\n\n        uint256[] memory priceLevelTwaps = batchRelativePriceCheck(tokenAddresses, prices);\n\n        uint256 numberOfTrustedSignerOracles = trustedSignerPriceOracles.length();\n        uint256[] memory signedPrices = new uint256[](numberOfTrustedSignerOracles);\n\n        for (uint256 i = 0; i < numberOfTrustedSignerOracles; i++) {\n            IUSDPriceOracle oracle = IUSDPriceOracle(trustedSignerPriceOracles.at(i));\n            signedPrices[i] = oracle.getPriceUSD(WETH_ADDRESS);\n        }\n\n        _checkPriceLevel(priceLevel, signedPrices, priceLevelTwaps);\n\n        return prices;\n    }\n\n    function setRelativeMaxEpsilon(uint256 _relativeEpsilon) external governanceOnly {\n        require(_relativeEpsilon > 0, Errors.INVALID_ARGUMENT);\n        require(_relativeEpsilon < MAX_RELATIVE_EPSILON, Errors.INVALID_ARGUMENT);\n\n        relativeEpsilon = _relativeEpsilon;\n    }\n\n    function _checkPriceLevel(\n        uint256 priceLevel,\n        uint256[] memory signedPrices,\n        uint256[] memory priceLevelTwaps\n    ) internal view {\n        uint256 trueWETH = getRobustWETHPrice(signedPrices, priceLevelTwaps);\n        uint256 absolutePriceDifference = priceLevel.absSub(trueWETH);\n        require(\n            absolutePriceDifference <= MAX_ABSOLUTE_WETH_DEVIATION,\n            Errors.ROOT_PRICE_NOT_GROUNDED\n        );\n    }\n\n    function _ensureRelativePriceConsistency(\n        uint256 aUSDPrice,\n        uint256 bUSDPrice,\n        uint256 abPrice\n    ) internal view {\n        uint256 abPriceFromUSD = aUSDPrice.divDown(bUSDPrice);\n        uint256 priceDifference = abPrice.absSub(abPriceFromUSD);\n        uint256 relativePriceDifference = priceDifference.divDown(abPrice);\n\n        require(relativePriceDifference <= relativeEpsilon, Errors.STALE_PRICE);\n    }\n\n    function _computeMinOrSecondMin(uint256[] memory twapPrices) internal pure returns (uint256) {\n        // min if there are two, or the 2nd min if more than two\n        uint256 min = twapPrices[0];\n        uint256 secondMin = 2**256 - 1;\n        for (uint256 i = 1; i < twapPrices.length; i++) {\n            if (twapPrices[i] < min) {\n                secondMin = min;\n                min = twapPrices[i];\n            } else if ((twapPrices[i] < secondMin)) {\n                secondMin = twapPrices[i];\n            }\n        }\n        if (twapPrices.length == 1) {\n            return twapPrices[0];\n        } else if (twapPrices.length == 2) {\n            return min;\n        } else {\n            return secondMin;\n        }\n    }\n\n    function _findPrice(\n        address target,\n        address[] memory tokenAddresses,\n        uint256[] memory prices\n    ) internal pure returns (uint256) {\n        for (uint256 i = 0; i < tokenAddresses.length; i++) {\n            if (tokenAddresses[i] == target) {\n                return prices[i];\n            }\n        }\n        revert(Errors.ASSET_NOT_SUPPORTED);\n    }\n\n    function _sort(uint256[] memory data) internal view returns (uint256[] memory) {\n        _quickSort(data, int256(0), int256(data.length - 1));\n        return data;\n    }\n\n    function _quickSort(\n        uint256[] memory arr,\n        int256 left,\n        int256 right\n    ) internal view {\n        int256 i = left;\n        int256 j = right;\n        if (i == j) return;\n        uint256 pivot = arr[uint256(left + (right - left) / 2)];\n        while (i <= j) {\n            while (arr[uint256(i)] < pivot) i++;\n            while (pivot < arr[uint256(j)]) j--;\n            if (i <= j) {\n                (arr[uint256(i)], arr[uint256(j)]) = (arr[uint256(j)], arr[uint256(i)]);\n                i++;\n                j--;\n            }\n        }\n        if (left < j) _quickSort(arr, left, j);\n        if (i < right) _quickSort(arr, i, right);\n    }\n\n    function _median(uint256[] memory array) internal view returns (uint256) {\n        _sort(array);\n        return\n            array.length % 2 == 0\n                ? Math.average(array[array.length / 2 - 1], array[array.length / 2])\n                : array[array.length / 2];\n    }\n\n    /// @notice this function provides an estimate of the true WETH price.\n    /// 1. Find the minimum TWAP price (or second minumum if >2 TWAP prices) from a given array.\n    /// 2. Add this to an array of signed prices\n    /// 3. Compute the median of this array\n    /// @param signedPrices an array of prices from trusted providers (e.g. Chainlink, Coinbase, OKEx ETH/USD price)\n    /// @param twapPrices an array of Time Weighted Moving Average ETH/stablecoin prices\n    function getRobustWETHPrice(uint256[] memory signedPrices, uint256[] memory twapPrices)\n        public\n        view\n        returns (uint256)\n    {\n        uint256 minTWAP;\n        if (twapPrices.length == 0) {\n            return _median(signedPrices);\n        } else {\n            minTWAP = _computeMinOrSecondMin(twapPrices);\n            uint256[] memory prices = new uint256[](signedPrices.length + 1);\n            prices[prices.length - 1] = minTWAP;\n            for (uint256 i = 0; i < prices.length - 1; i++) {\n                prices[i] = signedPrices[i];\n            }\n            return _median(prices);\n        }\n    }\n}\n","sourcePath":"contracts/oracles/CheckedPriceOracle.sol","type":"contract","deployment":{"address":"0x70772f847eD577A7ed8D764Ea602A96CDD20fcAB","chainid":"137","blockHeight":31962066}}