{"abi":[{"anonymous":false,"inputs":[{"indexed":true,"internalType":"address","name":"asset","type":"address"},{"indexed":true,"internalType":"address","name":"previousFeed","type":"address"},{"indexed":true,"internalType":"address","name":"newFeed","type":"address"},{"components":[{"internalType":"uint64","name":"minDiffTime","type":"uint64"},{"internalType":"uint64","name":"maxDeviation","type":"uint64"}],"indexed":false,"internalType":"struct CrashProtectedChainlinkPriceOracle.FeedMeta","name":"meta","type":"tuple"}],"name":"FeedUpdated","type":"event"},{"anonymous":false,"inputs":[{"indexed":false,"internalType":"address","name":"newGovernor","type":"address"}],"name":"GovernorChangeRequested","type":"event"},{"anonymous":false,"inputs":[{"indexed":false,"internalType":"address","name":"oldGovernor","type":"address"},{"indexed":false,"internalType":"address","name":"newGovernor","type":"address"}],"name":"GovernorChanged","type":"event"},{"inputs":[],"name":"MAX_LAG","outputs":[{"internalType":"uint256","name":"","type":"uint256"}],"stateMutability":"view","type":"function"},{"inputs":[],"name":"acceptGovernance","outputs":[],"stateMutability":"nonpayable","type":"function"},{"inputs":[{"internalType":"address","name":"newGovernor","type":"address"}],"name":"changeGovernor","outputs":[],"stateMutability":"nonpayable","type":"function"},{"inputs":[{"internalType":"address","name":"","type":"address"}],"name":"feedMetas","outputs":[{"internalType":"uint64","name":"minDiffTime","type":"uint64"},{"internalType":"uint64","name":"maxDeviation","type":"uint64"}],"stateMutability":"view","type":"function"},{"inputs":[{"internalType":"address","name":"","type":"address"}],"name":"feeds","outputs":[{"internalType":"address","name":"","type":"address"}],"stateMutability":"view","type":"function"},{"inputs":[{"internalType":"address","name":"asset","type":"address"}],"name":"getPriceUSD","outputs":[{"internalType":"uint256","name":"","type":"uint256"}],"stateMutability":"view","type":"function"},{"inputs":[],"name":"governor","outputs":[{"internalType":"address","name":"","type":"address"}],"stateMutability":"view","type":"function"},{"inputs":[],"name":"listSupportedAssets","outputs":[{"internalType":"address[]","name":"","type":"address[]"}],"stateMutability":"view","type":"function"},{"inputs":[],"name":"pendingGovernor","outputs":[{"internalType":"address","name":"","type":"address"}],"stateMutability":"view","type":"function"},{"inputs":[{"internalType":"address","name":"asset","type":"address"},{"internalType":"address","name":"feed","type":"address"},{"components":[{"internalType":"uint64","name":"minDiffTime","type":"uint64"},{"internalType":"uint64","name":"maxDeviation","type":"uint64"}],"internalType":"struct CrashProtectedChainlinkPriceOracle.FeedMeta","name":"feedMeta","type":"tuple"}],"name":"setFeed","outputs":[],"stateMutability":"nonpayable","type":"function"}],"bytecode":"608060405234801561001057600080fd5b50600080546001600160a01b0319163390811782556040805192835260208301919091527fde4b3f61490b74c0ed6237523974fe299126bbbf8a8a7482fd220104c59b0c84910160405180910390a1610ec08061006e6000396000f3fe608060405234801561001057600080fd5b506004361061009e5760003560e01c80635436ae9a116100665780635436ae9a146101745780635462001e146101895780635708447d1461019c578063e3056a34146101af578063e4c0aaf4146101c257600080fd5b80630c340a24146100a357806314c1d37f146100d3578063238efcbc146100eb5780632fba4aa9146100f55780634cbacc841461011e575b600080fd5b6000546100b6906001600160a01b031681565b6040516001600160a01b0390911681526020015b60405180910390f35b6100dd6201518081565b6040519081526020016100ca565b6100f36101d5565b005b6100b6610103366004610abf565b6004602052600090815260409020546001600160a01b031681565b61015361012c366004610abf565b60056020526000908152604090205467ffffffffffffffff80821691600160401b90041682565b6040805167ffffffffffffffff9384168152929091166020830152016100ca565b61017c61028e565b6040516100ca9190610ada565b6100f3610197366004610b3f565b61029f565b6100dd6101aa366004610abf565b61047f565b6001546100b6906001600160a01b031681565b6100f36101d0366004610abf565b6106f3565b600154604080518082019091526002815261033360f41b6020820152906001600160a01b031633146102235760405162461bcd60e51b815260040161021a9190610be1565b60405180910390fd5b5060008054600180546001600160a01b03198084166001600160a01b03808416919091179095551690556040805192909116808352336020840152917fde4b3f61490b74c0ed6237523974fe299126bbbf8a8a7482fd220104c59b0c8491015b60405180910390a150565b606061029a60026107c8565b905090565b600054604080518082019091526002815261033360f41b6020820152906001600160a01b031633146102e45760405162461bcd60e51b815260040161021a9190610be1565b506001600160a01b038084166000908152600460209081526040918290205482518084019093526002835261333160f01b9183019190915282169184168214156103415760405162461bcd60e51b815260040161021a9190610be1565b508151604080518082019091526002815261333160f01b60208201529067ffffffffffffffff166103855760405162461bcd60e51b815260040161021a9190610be1565b506001600160a01b03808516600090815260046020908152604080832080549488166001600160a01b03199095168517905592825260058152919020835181549285015167ffffffffffffffff908116600160401b026fffffffffffffffffffffffffffffffff199094169116179190911790556104046002856107dc565b50826001600160a01b0316816001600160a01b0316856001600160a01b03167fdc65aceb37af772a52834bdb6f74f79c209765225d01455d6a9b273a776547bb856040516104719190815167ffffffffffffffff9081168252602092830151169181019190915260400190565b60405180910390a450505050565b6001600160a01b0380821660009081526004602090815260408083205481518083019092526002825261034360f41b9282019290925291921690816104d75760405162461bcd60e51b815260040161021a9190610be1565b5060008060006104e6846107fa565b6001600160a01b038716600090815260056020908152604080832081518083019092525467ffffffffffffffff8082168352600160401b90910416918101919091529396509194509250805b61053d600187610c4c565b604051639a6fc8f560e01b815269ffffffffffffffffffff821660048201529096506001600160a01b03881690639a6fc8f59060240160a060405180830381865afa158015610590573d6000803e3d6000fd5b505050506040513d601f19601f820116820180604052508101906105b49190610c91565b50865192955093505067ffffffffffffffff1690506105d38286610ce1565b10610532576040805180820190915260028152611a1960f11b602082015260008312156106135760405162461bcd60e51b815260040161021a9190610be1565b5081600061062b8761062584826108fd565b90610920565b9050846020015167ffffffffffffffff168110604051806040016040528060028152602001610d0d60f21b815250906106775760405162461bcd60e51b815260040161021a9190610be1565b506106e4896001600160a01b031663313ce5676040518163ffffffff1660e01b8152600401602060405180830381865afa1580156106b9573d6000803e3d6000fd5b505050506040513d601f19601f820116820180604052508101906106dd9190610cf8565b8890610990565b9b9a5050505050505050505050565b600054604080518082019091526002815261033360f41b6020820152906001600160a01b031633146107385760405162461bcd60e51b815260040161021a9190610be1565b50604080518082019091526002815261333160f01b60208201526001600160a01b0382166107795760405162461bcd60e51b815260040161021a9190610be1565b50600180546001600160a01b0319166001600160a01b0383169081179091556040519081527f67235ba2e63c748a35b95c4f92a3bbc2a1389938170a5ce6c9add5d0b03a314a90602001610283565b606060006107d5836109f8565b9392505050565b60006107f1836001600160a01b038416610a54565b90505b92915050565b600080600080846001600160a01b031663feaf968c6040518163ffffffff1660e01b815260040160a060405180830381865afa15801561083e573d6000803e3d6000fd5b505050506040513d601f19601f820116820180604052508101906108629190610c91565b50929650919350915061087a90506201518083610d1b565b42111560405180604001604052806002815260200161343160f01b815250906108b65760405162461bcd60e51b815260040161021a9190610be1565b506040805180820190915260028152611a1960f11b602082015260008212156108f25760405162461bcd60e51b815260040161021a9190610be1565b509294929350919050565b600081831015610916576109118383610ce1565b6107f1565b6107f18284610ce1565b604080518082019091526002815261323560f01b60208201526000908261095a5760405162461bcd60e51b815260040161021a9190610be1565b5082610968575060006107f4565b600061097c670de0b6b3a764000085610d33565b90506109888382610d52565b9150506107f4565b600060ff8216601214156109a55750816107f4565b601260ff831611156109d8576109bc601283610d74565b6109c790600a610e7b565b6109d19084610d52565b90506107f4565b6109e3826012610d74565b6109ee90600a610e7b565b6109d19084610d33565b606081600001805480602002602001604051908101604052809291908181526020018280548015610a4857602002820191906000526020600020905b815481526020019060010190808311610a34575b50505050509050919050565b6000818152600183016020526040812054610a9b575081546001818101845560008481526020808220909301849055845484825282860190935260409020919091556107f4565b5060006107f4565b80356001600160a01b0381168114610aba57600080fd5b919050565b600060208284031215610ad157600080fd5b6107f182610aa3565b6020808252825182820181905260009190848201906040850190845b81811015610b1b5783516001600160a01b031683529284019291840191600101610af6565b50909695505050505050565b803567ffffffffffffffff81168114610aba57600080fd5b60008060008385036080811215610b5557600080fd5b610b5e85610aa3565b9350610b6c60208601610aa3565b92506040603f1982011215610b8057600080fd5b506040516040810181811067ffffffffffffffff82111715610bb257634e487b7160e01b600052604160045260246000fd5b8060405250610bc360408601610b27565b8152610bd160608601610b27565b6020820152809150509250925092565b600060208083528351808285015260005b81811015610c0e57858101830151858201604001528201610bf2565b81811115610c20576000604083870101525b50601f01601f1916929092016040019392505050565b634e487b7160e01b600052601160045260246000fd5b600069ffffffffffffffffffff83811690831681811015610c6f57610c6f610c36565b039392505050565b805169ffffffffffffffffffff81168114610aba57600080fd5b600080600080600060a08688031215610ca957600080fd5b610cb286610c77565b9450602086015193506040860151925060608601519150610cd560808701610c77565b90509295509295909350565b600082821015610cf357610cf3610c36565b500390565b600060208284031215610d0a57600080fd5b815160ff811681146107d557600080fd5b60008219821115610d2e57610d2e610c36565b500190565b6000816000190483118215151615610d4d57610d4d610c36565b500290565b600082610d6f57634e487b7160e01b600052601260045260246000fd5b500490565b600060ff821660ff841680821015610d8e57610d8e610c36565b90039392505050565b600181815b80851115610dd2578160001904821115610db857610db8610c36565b80851615610dc557918102915b93841c9390800290610d9c565b509250929050565b600082610de9575060016107f4565b81610df6575060006107f4565b8160018114610e0c5760028114610e1657610e32565b60019150506107f4565b60ff841115610e2757610e27610c36565b50506001821b6107f4565b5060208310610133831016604e8410600b8410161715610e55575081810a6107f4565b610e5f8383610d97565b8060001904821115610e7357610e73610c36565b029392505050565b60006107f160ff841683610dda56fea26469706673582212203c53d9632fda250618899e66f4c1e4daa7b8f54f3384a341886bd356f422ea0564736f6c634300080a0033","bytecodeSha1":"fdbc043b198777692fd2cb66cd2a2f5552c6b83d","compiler":{"evm_version":"istanbul","optimizer":{"enabled":true,"runs":200},"version":"0.8.10+commit.fc410830"},"contractName":"CrashProtectedChainlinkPriceOracle","language":"Solidity","natspec":{"kind":"dev","methods":{"acceptGovernance()":{"notice":"Called by the pending governor to approve the change"},"changeGovernor(address)":{"notice":"Changes the governor can only be called by the current governor"},"getPriceUSD(address)":{"notice":"Quotes the USD price of `tokenAddress` The quoted price is always scaled with 18 decimals regardless of the source used for the oracle.","params":{"tokenAddress":"the asset of which the price is to be quoted"},"returns":{"_0":"the USD price of the asset"}},"governor()":{"notice":"Returns the current governor"},"pendingGovernor()":{"notice":"Returns the pending governor"},"setFeed(address,address,(uint64,uint64))":{"notice":"Allows to set Chainlink feeds with the metadata"}},"version":1},"opcodes":"PUSH1 0x80 PUSH1 0x40 MSTORE CALLVALUE DUP1 ISZERO PUSH2 0x10 JUMPI PUSH1 0x0 DUP1 REVERT JUMPDEST POP PUSH1 0x4 CALLDATASIZE LT PUSH2 0x9E JUMPI PUSH1 0x0 CALLDATALOAD PUSH1 0xE0 SHR DUP1 PUSH4 0x5436AE9A GT PUSH2 0x66 JUMPI DUP1 PUSH4 0x5436AE9A EQ PUSH2 0x174 JUMPI DUP1 PUSH4 0x5462001E EQ PUSH2 0x189 JUMPI DUP1 PUSH4 0x5708447D EQ PUSH2 0x19C JUMPI DUP1 PUSH4 0xE3056A34 EQ PUSH2 0x1AF JUMPI DUP1 PUSH4 0xE4C0AAF4 EQ PUSH2 0x1C2 JUMPI PUSH1 0x0 DUP1 REVERT JUMPDEST DUP1 PUSH4 0xC340A24 EQ PUSH2 0xA3 JUMPI DUP1 PUSH4 0x14C1D37F EQ PUSH2 0xD3 JUMPI DUP1 PUSH4 0x238EFCBC EQ PUSH2 0xEB JUMPI DUP1 PUSH4 0x2FBA4AA9 EQ PUSH2 0xF5 JUMPI DUP1 PUSH4 0x4CBACC84 EQ PUSH2 0x11E JUMPI JUMPDEST PUSH1 0x0 DUP1 REVERT JUMPDEST PUSH1 0x0 SLOAD PUSH2 0xB6 SWAP1 PUSH1 0x1 PUSH1 0x1 PUSH1 0xA0 SHL SUB AND DUP2 JUMP JUMPDEST PUSH1 0x40 MLOAD PUSH1 0x1 PUSH1 0x1 PUSH1 0xA0 SHL SUB SWAP1 SWAP2 AND DUP2 MSTORE PUSH1 0x20 ADD JUMPDEST PUSH1 0x40 MLOAD DUP1 SWAP2 SUB SWAP1 RETURN JUMPDEST PUSH2 0xDD PUSH3 0x15180 DUP2 JUMP JUMPDEST PUSH1 0x40 MLOAD SWAP1 DUP2 MSTORE PUSH1 0x20 ADD PUSH2 0xCA JUMP JUMPDEST PUSH2 0xF3 PUSH2 0x1D5 JUMP JUMPDEST STOP JUMPDEST PUSH2 0xB6 PUSH2 0x103 CALLDATASIZE PUSH1 0x4 PUSH2 0xABF JUMP JUMPDEST PUSH1 0x4 PUSH1 0x20 MSTORE PUSH1 0x0 SWAP1 DUP2 MSTORE PUSH1 0x40 SWAP1 KECCAK256 SLOAD PUSH1 0x1 PUSH1 0x1 PUSH1 0xA0 SHL SUB AND DUP2 JUMP JUMPDEST PUSH2 0x153 PUSH2 0x12C CALLDATASIZE PUSH1 0x4 PUSH2 0xABF JUMP JUMPDEST PUSH1 0x5 PUSH1 0x20 MSTORE PUSH1 0x0 SWAP1 DUP2 MSTORE PUSH1 0x40 SWAP1 KECCAK256 SLOAD PUSH8 0xFFFFFFFFFFFFFFFF DUP1 DUP3 AND SWAP2 PUSH1 0x1 PUSH1 0x40 SHL SWAP1 DIV AND DUP3 JUMP JUMPDEST PUSH1 0x40 DUP1 MLOAD PUSH8 0xFFFFFFFFFFFFFFFF SWAP4 DUP5 AND DUP2 MSTORE SWAP3 SWAP1 SWAP2 AND PUSH1 0x20 DUP4 ADD MSTORE ADD PUSH2 0xCA JUMP JUMPDEST PUSH2 0x17C PUSH2 0x28E JUMP JUMPDEST PUSH1 0x40 MLOAD PUSH2 0xCA SWAP2 SWAP1 PUSH2 0xADA JUMP JUMPDEST PUSH2 0xF3 PUSH2 0x197 CALLDATASIZE PUSH1 0x4 PUSH2 0xB3F JUMP JUMPDEST PUSH2 0x29F JUMP JUMPDEST PUSH2 0xDD PUSH2 0x1AA CALLDATASIZE PUSH1 0x4 PUSH2 0xABF JUMP JUMPDEST PUSH2 0x47F JUMP JUMPDEST PUSH1 0x1 SLOAD PUSH2 0xB6 SWAP1 PUSH1 0x1 PUSH1 0x1 PUSH1 0xA0 SHL SUB AND DUP2 JUMP JUMPDEST PUSH2 0xF3 PUSH2 0x1D0 CALLDATASIZE PUSH1 0x4 PUSH2 0xABF JUMP JUMPDEST PUSH2 0x6F3 JUMP JUMPDEST PUSH1 0x1 SLOAD PUSH1 0x40 DUP1 MLOAD DUP1 DUP3 ADD SWAP1 SWAP2 MSTORE PUSH1 0x2 DUP2 MSTORE PUSH2 0x333 PUSH1 0xF4 SHL PUSH1 0x20 DUP3 ADD MSTORE SWAP1 PUSH1 0x1 PUSH1 0x1 PUSH1 0xA0 SHL SUB AND CALLER EQ PUSH2 0x223 JUMPI PUSH1 0x40 MLOAD PUSH3 0x461BCD PUSH1 0xE5 SHL DUP2 MSTORE PUSH1 0x4 ADD PUSH2 0x21A SWAP2 SWAP1 PUSH2 0xBE1 JUMP JUMPDEST PUSH1 0x40 MLOAD DUP1 SWAP2 SUB SWAP1 REVERT JUMPDEST POP PUSH1 0x0 DUP1 SLOAD PUSH1 0x1 DUP1 SLOAD PUSH1 0x1 PUSH1 0x1 PUSH1 0xA0 SHL SUB NOT DUP1 DUP5 AND PUSH1 0x1 PUSH1 0x1 PUSH1 0xA0 SHL SUB DUP1 DUP5 AND SWAP2 SWAP1 SWAP2 OR SWAP1 SWAP6 SSTORE AND SWAP1 SSTORE PUSH1 0x40 DUP1 MLOAD SWAP3 SWAP1 SWAP2 AND DUP1 DUP4 MSTORE CALLER PUSH1 0x20 DUP5 ADD MSTORE SWAP2 PUSH32 0xDE4B3F61490B74C0ED6237523974FE299126BBBF8A8A7482FD220104C59B0C84 SWAP2 ADD JUMPDEST PUSH1 0x40 MLOAD DUP1 SWAP2 SUB SWAP1 LOG1 POP JUMP JUMPDEST PUSH1 0x60 PUSH2 0x29A PUSH1 0x2 PUSH2 0x7C8 JUMP JUMPDEST SWAP1 POP SWAP1 JUMP JUMPDEST PUSH1 0x0 SLOAD PUSH1 0x40 DUP1 MLOAD DUP1 DUP3 ADD SWAP1 SWAP2 MSTORE PUSH1 0x2 DUP2 MSTORE PUSH2 0x333 PUSH1 0xF4 SHL PUSH1 0x20 DUP3 ADD MSTORE SWAP1 PUSH1 0x1 PUSH1 0x1 PUSH1 0xA0 SHL SUB AND CALLER EQ PUSH2 0x2E4 JUMPI PUSH1 0x40 MLOAD PUSH3 0x461BCD PUSH1 0xE5 SHL DUP2 MSTORE PUSH1 0x4 ADD PUSH2 0x21A SWAP2 SWAP1 PUSH2 0xBE1 JUMP JUMPDEST POP PUSH1 0x1 PUSH1 0x1 PUSH1 0xA0 SHL SUB DUP1 DUP5 AND PUSH1 0x0 SWAP1 DUP2 MSTORE PUSH1 0x4 PUSH1 0x20 SWAP1 DUP2 MSTORE PUSH1 0x40 SWAP2 DUP3 SWAP1 KECCAK256 SLOAD DUP3 MLOAD DUP1 DUP5 ADD SWAP1 SWAP4 MSTORE PUSH1 0x2 DUP4 MSTORE PUSH2 0x3331 PUSH1 0xF0 SHL SWAP2 DUP4 ADD SWAP2 SWAP1 SWAP2 MSTORE DUP3 AND SWAP2 DUP5 AND DUP3 EQ ISZERO PUSH2 0x341 JUMPI PUSH1 0x40 MLOAD PUSH3 0x461BCD PUSH1 0xE5 SHL DUP2 MSTORE PUSH1 0x4 ADD PUSH2 0x21A SWAP2 SWAP1 PUSH2 0xBE1 JUMP JUMPDEST POP DUP2 MLOAD PUSH1 0x40 DUP1 MLOAD DUP1 DUP3 ADD SWAP1 SWAP2 MSTORE PUSH1 0x2 DUP2 MSTORE PUSH2 0x3331 PUSH1 0xF0 SHL PUSH1 0x20 DUP3 ADD MSTORE SWAP1 PUSH8 0xFFFFFFFFFFFFFFFF AND PUSH2 0x385 JUMPI PUSH1 0x40 MLOAD PUSH3 0x461BCD PUSH1 0xE5 SHL DUP2 MSTORE PUSH1 0x4 ADD PUSH2 0x21A SWAP2 SWAP1 PUSH2 0xBE1 JUMP JUMPDEST POP PUSH1 0x1 PUSH1 0x1 PUSH1 0xA0 SHL SUB DUP1 DUP6 AND PUSH1 0x0 SWAP1 DUP2 MSTORE PUSH1 0x4 PUSH1 0x20 SWAP1 DUP2 MSTORE PUSH1 0x40 DUP1 DUP4 KECCAK256 DUP1 SLOAD SWAP5 DUP9 AND PUSH1 0x1 PUSH1 0x1 PUSH1 0xA0 SHL SUB NOT SWAP1 SWAP6 AND DUP6 OR SWAP1 SSTORE SWAP3 DUP3 MSTORE PUSH1 0x5 DUP2 MSTORE SWAP2 SWAP1 KECCAK256 DUP4 MLOAD DUP2 SLOAD SWAP3 DUP6 ADD MLOAD PUSH8 0xFFFFFFFFFFFFFFFF SWAP1 DUP2 AND PUSH1 0x1 PUSH1 0x40 SHL MUL PUSH16 0xFFFFFFFFFFFFFFFFFFFFFFFFFFFFFFFF NOT SWAP1 SWAP5 AND SWAP2 AND OR SWAP2 SWAP1 SWAP2 OR SWAP1 SSTORE PUSH2 0x404 PUSH1 0x2 DUP6 PUSH2 0x7DC JUMP JUMPDEST POP DUP3 PUSH1 0x1 PUSH1 0x1 PUSH1 0xA0 SHL SUB AND DUP2 PUSH1 0x1 PUSH1 0x1 PUSH1 0xA0 SHL SUB AND DUP6 PUSH1 0x1 PUSH1 0x1 PUSH1 0xA0 SHL SUB AND PUSH32 0xDC65ACEB37AF772A52834BDB6F74F79C209765225D01455D6A9B273A776547BB DUP6 PUSH1 0x40 MLOAD PUSH2 0x471 SWAP2 SWAP1 DUP2 MLOAD PUSH8 0xFFFFFFFFFFFFFFFF SWAP1 DUP2 AND DUP3 MSTORE PUSH1 0x20 SWAP3 DUP4 ADD MLOAD AND SWAP2 DUP2 ADD SWAP2 SWAP1 SWAP2 MSTORE PUSH1 0x40 ADD SWAP1 JUMP JUMPDEST PUSH1 0x40 MLOAD DUP1 SWAP2 SUB SWAP1 LOG4 POP POP POP POP JUMP JUMPDEST PUSH1 0x1 PUSH1 0x1 PUSH1 0xA0 SHL SUB DUP1 DUP3 AND PUSH1 0x0 SWAP1 DUP2 MSTORE PUSH1 0x4 PUSH1 0x20 SWAP1 DUP2 MSTORE PUSH1 0x40 DUP1 DUP4 KECCAK256 SLOAD DUP2 MLOAD DUP1 DUP4 ADD SWAP1 SWAP3 MSTORE PUSH1 0x2 DUP3 MSTORE PUSH2 0x343 PUSH1 0xF4 SHL SWAP3 DUP3 ADD SWAP3 SWAP1 SWAP3 MSTORE SWAP2 SWAP3 AND SWAP1 DUP2 PUSH2 0x4D7 JUMPI PUSH1 0x40 MLOAD PUSH3 0x461BCD PUSH1 0xE5 SHL DUP2 MSTORE PUSH1 0x4 ADD PUSH2 0x21A SWAP2 SWAP1 PUSH2 0xBE1 JUMP JUMPDEST POP PUSH1 0x0 DUP1 PUSH1 0x0 PUSH2 0x4E6 DUP5 PUSH2 0x7FA JUMP JUMPDEST PUSH1 0x1 PUSH1 0x1 PUSH1 0xA0 SHL SUB DUP8 AND PUSH1 0x0 SWAP1 DUP2 MSTORE PUSH1 0x5 PUSH1 0x20 SWAP1 DUP2 MSTORE PUSH1 0x40 DUP1 DUP4 KECCAK256 DUP2 MLOAD DUP1 DUP4 ADD SWAP1 SWAP3 MSTORE SLOAD PUSH8 0xFFFFFFFFFFFFFFFF DUP1 DUP3 AND DUP4 MSTORE PUSH1 0x1 PUSH1 0x40 SHL SWAP1 SWAP2 DIV AND SWAP2 DUP2 ADD SWAP2 SWAP1 SWAP2 MSTORE SWAP4 SWAP7 POP SWAP2 SWAP5 POP SWAP3 POP DUP1 JUMPDEST PUSH2 0x53D PUSH1 0x1 DUP8 PUSH2 0xC4C JUMP JUMPDEST PUSH1 0x40 MLOAD PUSH4 0x9A6FC8F5 PUSH1 0xE0 SHL DUP2 MSTORE PUSH10 0xFFFFFFFFFFFFFFFFFFFF DUP3 AND PUSH1 0x4 DUP3 ADD MSTORE SWAP1 SWAP7 POP PUSH1 0x1 PUSH1 0x1 PUSH1 0xA0 SHL SUB DUP9 AND SWAP1 PUSH4 0x9A6FC8F5 SWAP1 PUSH1 0x24 ADD PUSH1 0xA0 PUSH1 0x40 MLOAD DUP1 DUP4 SUB DUP2 DUP7 GAS STATICCALL ISZERO DUP1 ISZERO PUSH2 0x590 JUMPI RETURNDATASIZE PUSH1 0x0 DUP1 RETURNDATACOPY RETURNDATASIZE PUSH1 0x0 REVERT JUMPDEST POP POP POP POP PUSH1 0x40 MLOAD RETURNDATASIZE PUSH1 0x1F NOT PUSH1 0x1F DUP3 ADD AND DUP3 ADD DUP1 PUSH1 0x40 MSTORE POP DUP2 ADD SWAP1 PUSH2 0x5B4 SWAP2 SWAP1 PUSH2 0xC91 JUMP JUMPDEST POP DUP7 MLOAD SWAP3 SWAP6 POP SWAP4 POP POP PUSH8 0xFFFFFFFFFFFFFFFF AND SWAP1 POP PUSH2 0x5D3 DUP3 DUP7 PUSH2 0xCE1 JUMP JUMPDEST LT PUSH2 0x532 JUMPI PUSH1 0x40 DUP1 MLOAD DUP1 DUP3 ADD SWAP1 SWAP2 MSTORE PUSH1 0x2 DUP2 MSTORE PUSH2 0x1A19 PUSH1 0xF1 SHL PUSH1 0x20 DUP3 ADD MSTORE PUSH1 0x0 DUP4 SLT ISZERO PUSH2 0x613 JUMPI PUSH1 0x40 MLOAD PUSH3 0x461BCD PUSH1 0xE5 SHL DUP2 MSTORE PUSH1 0x4 ADD PUSH2 0x21A SWAP2 SWAP1 PUSH2 0xBE1 JUMP JUMPDEST POP DUP2 PUSH1 0x0 PUSH2 0x62B DUP8 PUSH2 0x625 DUP5 DUP3 PUSH2 0x8FD JUMP JUMPDEST SWAP1 PUSH2 0x920 JUMP JUMPDEST SWAP1 POP DUP5 PUSH1 0x20 ADD MLOAD PUSH8 0xFFFFFFFFFFFFFFFF AND DUP2 LT PUSH1 0x40 MLOAD DUP1 PUSH1 0x40 ADD PUSH1 0x40 MSTORE DUP1 PUSH1 0x2 DUP2 MSTORE PUSH1 0x20 ADD PUSH2 0xD0D PUSH1 0xF2 SHL DUP2 MSTORE POP SWAP1 PUSH2 0x677 JUMPI PUSH1 0x40 MLOAD PUSH3 0x461BCD PUSH1 0xE5 SHL DUP2 MSTORE PUSH1 0x4 ADD PUSH2 0x21A SWAP2 SWAP1 PUSH2 0xBE1 JUMP JUMPDEST POP PUSH2 0x6E4 DUP10 PUSH1 0x1 PUSH1 0x1 PUSH1 0xA0 SHL SUB AND PUSH4 0x313CE567 PUSH1 0x40 MLOAD DUP2 PUSH4 0xFFFFFFFF AND PUSH1 0xE0 SHL DUP2 MSTORE PUSH1 0x4 ADD PUSH1 0x20 PUSH1 0x40 MLOAD DUP1 DUP4 SUB DUP2 DUP7 GAS STATICCALL ISZERO DUP1 ISZERO PUSH2 0x6B9 JUMPI RETURNDATASIZE PUSH1 0x0 DUP1 RETURNDATACOPY RETURNDATASIZE PUSH1 0x0 REVERT JUMPDEST POP POP POP POP PUSH1 0x40 MLOAD RETURNDATASIZE PUSH1 0x1F NOT PUSH1 0x1F DUP3 ADD AND DUP3 ADD DUP1 PUSH1 0x40 MSTORE POP DUP2 ADD SWAP1 PUSH2 0x6DD SWAP2 SWAP1 PUSH2 0xCF8 JUMP JUMPDEST DUP9 SWAP1 PUSH2 0x990 JUMP JUMPDEST SWAP12 SWAP11 POP POP POP POP POP POP POP POP POP POP POP JUMP JUMPDEST PUSH1 0x0 SLOAD PUSH1 0x40 DUP1 MLOAD DUP1 DUP3 ADD SWAP1 SWAP2 MSTORE PUSH1 0x2 DUP2 MSTORE PUSH2 0x333 PUSH1 0xF4 SHL PUSH1 0x20 DUP3 ADD MSTORE SWAP1 PUSH1 0x1 PUSH1 0x1 PUSH1 0xA0 SHL SUB AND CALLER EQ PUSH2 0x738 JUMPI PUSH1 0x40 MLOAD PUSH3 0x461BCD PUSH1 0xE5 SHL DUP2 MSTORE PUSH1 0x4 ADD PUSH2 0x21A SWAP2 SWAP1 PUSH2 0xBE1 JUMP JUMPDEST POP PUSH1 0x40 DUP1 MLOAD DUP1 DUP3 ADD SWAP1 SWAP2 MSTORE PUSH1 0x2 DUP2 MSTORE PUSH2 0x3331 PUSH1 0xF0 SHL PUSH1 0x20 DUP3 ADD MSTORE PUSH1 0x1 PUSH1 0x1 PUSH1 0xA0 SHL SUB DUP3 AND PUSH2 0x779 JUMPI PUSH1 0x40 MLOAD PUSH3 0x461BCD PUSH1 0xE5 SHL DUP2 MSTORE PUSH1 0x4 ADD PUSH2 0x21A SWAP2 SWAP1 PUSH2 0xBE1 JUMP JUMPDEST POP PUSH1 0x1 DUP1 SLOAD PUSH1 0x1 PUSH1 0x1 PUSH1 0xA0 SHL SUB NOT AND PUSH1 0x1 PUSH1 0x1 PUSH1 0xA0 SHL SUB DUP4 AND SWAP1 DUP2 OR SWAP1 SWAP2 SSTORE PUSH1 0x40 MLOAD SWAP1 DUP2 MSTORE PUSH32 0x67235BA2E63C748A35B95C4F92A3BBC2A1389938170A5CE6C9ADD5D0B03A314A SWAP1 PUSH1 0x20 ADD PUSH2 0x283 JUMP JUMPDEST PUSH1 0x60 PUSH1 0x0 PUSH2 0x7D5 DUP4 PUSH2 0x9F8 JUMP JUMPDEST SWAP4 SWAP3 POP POP POP JUMP JUMPDEST PUSH1 0x0 PUSH2 0x7F1 DUP4 PUSH1 0x1 PUSH1 0x1 PUSH1 0xA0 SHL SUB DUP5 AND PUSH2 0xA54 JUMP JUMPDEST SWAP1 POP JUMPDEST SWAP3 SWAP2 POP POP JUMP JUMPDEST PUSH1 0x0 DUP1 PUSH1 0x0 DUP1 DUP5 PUSH1 0x1 PUSH1 0x1 PUSH1 0xA0 SHL SUB AND PUSH4 0xFEAF968C PUSH1 0x40 MLOAD DUP2 PUSH4 0xFFFFFFFF AND PUSH1 0xE0 SHL DUP2 MSTORE PUSH1 0x4 ADD PUSH1 0xA0 PUSH1 0x40 MLOAD DUP1 DUP4 SUB DUP2 DUP7 GAS STATICCALL ISZERO DUP1 ISZERO PUSH2 0x83E JUMPI RETURNDATASIZE PUSH1 0x0 DUP1 RETURNDATACOPY RETURNDATASIZE PUSH1 0x0 REVERT JUMPDEST POP POP POP POP PUSH1 0x40 MLOAD RETURNDATASIZE PUSH1 0x1F NOT PUSH1 0x1F DUP3 ADD AND DUP3 ADD DUP1 PUSH1 0x40 MSTORE POP DUP2 ADD SWAP1 PUSH2 0x862 SWAP2 SWAP1 PUSH2 0xC91 JUMP JUMPDEST POP SWAP3 SWAP7 POP SWAP2 SWAP4 POP SWAP2 POP PUSH2 0x87A SWAP1 POP PUSH3 0x15180 DUP4 PUSH2 0xD1B JUMP JUMPDEST TIMESTAMP GT ISZERO PUSH1 0x40 MLOAD DUP1 PUSH1 0x40 ADD PUSH1 0x40 MSTORE DUP1 PUSH1 0x2 DUP2 MSTORE PUSH1 0x20 ADD PUSH2 0x3431 PUSH1 0xF0 SHL DUP2 MSTORE POP SWAP1 PUSH2 0x8B6 JUMPI PUSH1 0x40 MLOAD PUSH3 0x461BCD PUSH1 0xE5 SHL DUP2 MSTORE PUSH1 0x4 ADD PUSH2 0x21A SWAP2 SWAP1 PUSH2 0xBE1 JUMP JUMPDEST POP PUSH1 0x40 DUP1 MLOAD DUP1 DUP3 ADD SWAP1 SWAP2 MSTORE PUSH1 0x2 DUP2 MSTORE PUSH2 0x1A19 PUSH1 0xF1 SHL PUSH1 0x20 DUP3 ADD MSTORE PUSH1 0x0 DUP3 SLT ISZERO PUSH2 0x8F2 JUMPI PUSH1 0x40 MLOAD PUSH3 0x461BCD PUSH1 0xE5 SHL DUP2 MSTORE PUSH1 0x4 ADD PUSH2 0x21A SWAP2 SWAP1 PUSH2 0xBE1 JUMP JUMPDEST POP SWAP3 SWAP5 SWAP3 SWAP4 POP SWAP2 SWAP1 POP JUMP JUMPDEST PUSH1 0x0 DUP2 DUP4 LT ISZERO PUSH2 0x916 JUMPI PUSH2 0x911 DUP4 DUP4 PUSH2 0xCE1 JUMP JUMPDEST PUSH2 0x7F1 JUMP JUMPDEST PUSH2 0x7F1 DUP3 DUP5 PUSH2 0xCE1 JUMP JUMPDEST PUSH1 0x40 DUP1 MLOAD DUP1 DUP3 ADD SWAP1 SWAP2 MSTORE PUSH1 0x2 DUP2 MSTORE PUSH2 0x3235 PUSH1 0xF0 SHL PUSH1 0x20 DUP3 ADD MSTORE PUSH1 0x0 SWAP1 DUP3 PUSH2 0x95A JUMPI PUSH1 0x40 MLOAD PUSH3 0x461BCD PUSH1 0xE5 SHL DUP2 MSTORE PUSH1 0x4 ADD PUSH2 0x21A SWAP2 SWAP1 PUSH2 0xBE1 JUMP JUMPDEST POP DUP3 PUSH2 0x968 JUMPI POP PUSH1 0x0 PUSH2 0x7F4 JUMP JUMPDEST PUSH1 0x0 PUSH2 0x97C PUSH8 0xDE0B6B3A7640000 DUP6 PUSH2 0xD33 JUMP JUMPDEST SWAP1 POP PUSH2 0x988 DUP4 DUP3 PUSH2 0xD52 JUMP JUMPDEST SWAP2 POP POP PUSH2 0x7F4 JUMP JUMPDEST PUSH1 0x0 PUSH1 0xFF DUP3 AND PUSH1 0x12 EQ ISZERO PUSH2 0x9A5 JUMPI POP DUP2 PUSH2 0x7F4 JUMP JUMPDEST PUSH1 0x12 PUSH1 0xFF DUP4 AND GT ISZERO PUSH2 0x9D8 JUMPI PUSH2 0x9BC PUSH1 0x12 DUP4 PUSH2 0xD74 JUMP JUMPDEST PUSH2 0x9C7 SWAP1 PUSH1 0xA PUSH2 0xE7B JUMP JUMPDEST PUSH2 0x9D1 SWAP1 DUP5 PUSH2 0xD52 JUMP JUMPDEST SWAP1 POP PUSH2 0x7F4 JUMP JUMPDEST PUSH2 0x9E3 DUP3 PUSH1 0x12 PUSH2 0xD74 JUMP JUMPDEST PUSH2 0x9EE SWAP1 PUSH1 0xA PUSH2 0xE7B JUMP JUMPDEST PUSH2 0x9D1 SWAP1 DUP5 PUSH2 0xD33 JUMP JUMPDEST PUSH1 0x60 DUP2 PUSH1 0x0 ADD DUP1 SLOAD DUP1 PUSH1 0x20 MUL PUSH1 0x20 ADD PUSH1 0x40 MLOAD SWAP1 DUP2 ADD PUSH1 0x40 MSTORE DUP1 SWAP3 SWAP2 SWAP1 DUP2 DUP2 MSTORE PUSH1 0x20 ADD DUP3 DUP1 SLOAD DUP1 ISZERO PUSH2 0xA48 JUMPI PUSH1 0x20 MUL DUP3 ADD SWAP2 SWAP1 PUSH1 0x0 MSTORE PUSH1 0x20 PUSH1 0x0 KECCAK256 SWAP1 JUMPDEST DUP2 SLOAD DUP2 MSTORE PUSH1 0x20 ADD SWAP1 PUSH1 0x1 ADD SWAP1 DUP1 DUP4 GT PUSH2 0xA34 JUMPI JUMPDEST POP POP POP POP POP SWAP1 POP SWAP2 SWAP1 POP JUMP JUMPDEST PUSH1 0x0 DUP2 DUP2 MSTORE PUSH1 0x1 DUP4 ADD PUSH1 0x20 MSTORE PUSH1 0x40 DUP2 KECCAK256 SLOAD PUSH2 0xA9B JUMPI POP DUP2 SLOAD PUSH1 0x1 DUP2 DUP2 ADD DUP5 SSTORE PUSH1 0x0 DUP5 DUP2 MSTORE PUSH1 0x20 DUP1 DUP3 KECCAK256 SWAP1 SWAP4 ADD DUP5 SWAP1 SSTORE DUP5 SLOAD DUP5 DUP3 MSTORE DUP3 DUP7 ADD SWAP1 SWAP4 MSTORE PUSH1 0x40 SWAP1 KECCAK256 SWAP2 SWAP1 SWAP2 SSTORE PUSH2 0x7F4 JUMP JUMPDEST POP PUSH1 0x0 PUSH2 0x7F4 JUMP JUMPDEST DUP1 CALLDATALOAD PUSH1 0x1 PUSH1 0x1 PUSH1 0xA0 SHL SUB DUP2 AND DUP2 EQ PUSH2 0xABA JUMPI PUSH1 0x0 DUP1 REVERT JUMPDEST SWAP2 SWAP1 POP JUMP JUMPDEST PUSH1 0x0 PUSH1 0x20 DUP3 DUP5 SUB SLT ISZERO PUSH2 0xAD1 JUMPI PUSH1 0x0 DUP1 REVERT JUMPDEST PUSH2 0x7F1 DUP3 PUSH2 0xAA3 JUMP JUMPDEST PUSH1 0x20 DUP1 DUP3 MSTORE DUP3 MLOAD DUP3 DUP3 ADD DUP2 SWAP1 MSTORE PUSH1 0x0 SWAP2 SWAP1 DUP5 DUP3 ADD SWAP1 PUSH1 0x40 DUP6 ADD SWAP1 DUP5 JUMPDEST DUP2 DUP2 LT ISZERO PUSH2 0xB1B JUMPI DUP4 MLOAD PUSH1 0x1 PUSH1 0x1 PUSH1 0xA0 SHL SUB AND DUP4 MSTORE SWAP3 DUP5 ADD SWAP3 SWAP2 DUP5 ADD SWAP2 PUSH1 0x1 ADD PUSH2 0xAF6 JUMP JUMPDEST POP SWAP1 SWAP7 SWAP6 POP POP POP POP POP POP JUMP JUMPDEST DUP1 CALLDATALOAD PUSH8 0xFFFFFFFFFFFFFFFF DUP2 AND DUP2 EQ PUSH2 0xABA JUMPI PUSH1 0x0 DUP1 REVERT JUMPDEST PUSH1 0x0 DUP1 PUSH1 0x0 DUP4 DUP6 SUB PUSH1 0x80 DUP2 SLT ISZERO PUSH2 0xB55 JUMPI PUSH1 0x0 DUP1 REVERT JUMPDEST PUSH2 0xB5E DUP6 PUSH2 0xAA3 JUMP JUMPDEST SWAP4 POP PUSH2 0xB6C PUSH1 0x20 DUP7 ADD PUSH2 0xAA3 JUMP JUMPDEST SWAP3 POP PUSH1 0x40 PUSH1 0x3F NOT DUP3 ADD SLT ISZERO PUSH2 0xB80 JUMPI PUSH1 0x0 DUP1 REVERT JUMPDEST POP PUSH1 0x40 MLOAD PUSH1 0x40 DUP2 ADD DUP2 DUP2 LT PUSH8 0xFFFFFFFFFFFFFFFF DUP3 GT OR ISZERO PUSH2 0xBB2 JUMPI PUSH4 0x4E487B71 PUSH1 0xE0 SHL PUSH1 0x0 MSTORE PUSH1 0x41 PUSH1 0x4 MSTORE PUSH1 0x24 PUSH1 0x0 REVERT JUMPDEST DUP1 PUSH1 0x40 MSTORE POP PUSH2 0xBC3 PUSH1 0x40 DUP7 ADD PUSH2 0xB27 JUMP JUMPDEST DUP2 MSTORE PUSH2 0xBD1 PUSH1 0x60 DUP7 ADD PUSH2 0xB27 JUMP JUMPDEST PUSH1 0x20 DUP3 ADD MSTORE DUP1 SWAP2 POP POP SWAP3 POP SWAP3 POP SWAP3 JUMP JUMPDEST PUSH1 0x0 PUSH1 0x20 DUP1 DUP4 MSTORE DUP4 MLOAD DUP1 DUP3 DUP6 ADD MSTORE PUSH1 0x0 JUMPDEST DUP2 DUP2 LT ISZERO PUSH2 0xC0E JUMPI DUP6 DUP2 ADD DUP4 ADD MLOAD DUP6 DUP3 ADD PUSH1 0x40 ADD MSTORE DUP3 ADD PUSH2 0xBF2 JUMP JUMPDEST DUP2 DUP2 GT ISZERO PUSH2 0xC20 JUMPI PUSH1 0x0 PUSH1 0x40 DUP4 DUP8 ADD ADD MSTORE JUMPDEST POP PUSH1 0x1F ADD PUSH1 0x1F NOT AND SWAP3 SWAP1 SWAP3 ADD PUSH1 0x40 ADD SWAP4 SWAP3 POP POP POP JUMP JUMPDEST PUSH4 0x4E487B71 PUSH1 0xE0 SHL PUSH1 0x0 MSTORE PUSH1 0x11 PUSH1 0x4 MSTORE PUSH1 0x24 PUSH1 0x0 REVERT JUMPDEST PUSH1 0x0 PUSH10 0xFFFFFFFFFFFFFFFFFFFF DUP4 DUP2 AND SWAP1 DUP4 AND DUP2 DUP2 LT ISZERO PUSH2 0xC6F JUMPI PUSH2 0xC6F PUSH2 0xC36 JUMP JUMPDEST SUB SWAP4 SWAP3 POP POP POP JUMP JUMPDEST DUP1 MLOAD PUSH10 0xFFFFFFFFFFFFFFFFFFFF DUP2 AND DUP2 EQ PUSH2 0xABA JUMPI PUSH1 0x0 DUP1 REVERT JUMPDEST PUSH1 0x0 DUP1 PUSH1 0x0 DUP1 PUSH1 0x0 PUSH1 0xA0 DUP7 DUP9 SUB SLT ISZERO PUSH2 0xCA9 JUMPI PUSH1 0x0 DUP1 REVERT JUMPDEST PUSH2 0xCB2 DUP7 PUSH2 0xC77 JUMP JUMPDEST SWAP5 POP PUSH1 0x20 DUP7 ADD MLOAD SWAP4 POP PUSH1 0x40 DUP7 ADD MLOAD SWAP3 POP PUSH1 0x60 DUP7 ADD MLOAD SWAP2 POP PUSH2 0xCD5 PUSH1 0x80 DUP8 ADD PUSH2 0xC77 JUMP JUMPDEST SWAP1 POP SWAP3 SWAP6 POP SWAP3 SWAP6 SWAP1 SWAP4 POP JUMP JUMPDEST PUSH1 0x0 DUP3 DUP3 LT ISZERO PUSH2 0xCF3 JUMPI PUSH2 0xCF3 PUSH2 0xC36 JUMP JUMPDEST POP SUB SWAP1 JUMP JUMPDEST PUSH1 0x0 PUSH1 0x20 DUP3 DUP5 SUB SLT ISZERO PUSH2 0xD0A JUMPI PUSH1 0x0 DUP1 REVERT JUMPDEST DUP2 MLOAD PUSH1 0xFF DUP2 AND DUP2 EQ PUSH2 0x7D5 JUMPI PUSH1 0x0 DUP1 REVERT JUMPDEST PUSH1 0x0 DUP3 NOT DUP3 GT ISZERO PUSH2 0xD2E JUMPI PUSH2 0xD2E PUSH2 0xC36 JUMP JUMPDEST POP ADD SWAP1 JUMP JUMPDEST PUSH1 0x0 DUP2 PUSH1 0x0 NOT DIV DUP4 GT DUP3 ISZERO ISZERO AND ISZERO PUSH2 0xD4D JUMPI PUSH2 0xD4D PUSH2 0xC36 JUMP JUMPDEST POP MUL SWAP1 JUMP JUMPDEST PUSH1 0x0 DUP3 PUSH2 0xD6F JUMPI PUSH4 0x4E487B71 PUSH1 0xE0 SHL PUSH1 0x0 MSTORE PUSH1 0x12 PUSH1 0x4 MSTORE PUSH1 0x24 PUSH1 0x0 REVERT JUMPDEST POP DIV SWAP1 JUMP JUMPDEST PUSH1 0x0 PUSH1 0xFF DUP3 AND PUSH1 0xFF DUP5 AND DUP1 DUP3 LT ISZERO PUSH2 0xD8E JUMPI PUSH2 0xD8E PUSH2 0xC36 JUMP JUMPDEST SWAP1 SUB SWAP4 SWAP3 POP POP POP JUMP JUMPDEST PUSH1 0x1 DUP2 DUP2 JUMPDEST DUP1 DUP6 GT ISZERO PUSH2 0xDD2 JUMPI DUP2 PUSH1 0x0 NOT DIV DUP3 GT ISZERO PUSH2 0xDB8 JUMPI PUSH2 0xDB8 PUSH2 0xC36 JUMP JUMPDEST DUP1 DUP6 AND ISZERO PUSH2 0xDC5 JUMPI SWAP2 DUP2 MUL SWAP2 JUMPDEST SWAP4 DUP5 SHR SWAP4 SWAP1 DUP1 MUL SWAP1 PUSH2 0xD9C JUMP JUMPDEST POP SWAP3 POP SWAP3 SWAP1 POP JUMP JUMPDEST PUSH1 0x0 DUP3 PUSH2 0xDE9 JUMPI POP PUSH1 0x1 PUSH2 0x7F4 JUMP JUMPDEST DUP2 PUSH2 0xDF6 JUMPI POP PUSH1 0x0 PUSH2 0x7F4 JUMP JUMPDEST DUP2 PUSH1 0x1 DUP2 EQ PUSH2 0xE0C JUMPI PUSH1 0x2 DUP2 EQ PUSH2 0xE16 JUMPI PUSH2 0xE32 JUMP JUMPDEST PUSH1 0x1 SWAP2 POP POP PUSH2 0x7F4 JUMP JUMPDEST PUSH1 0xFF DUP5 GT ISZERO PUSH2 0xE27 JUMPI PUSH2 0xE27 PUSH2 0xC36 JUMP JUMPDEST POP POP PUSH1 0x1 DUP3 SHL PUSH2 0x7F4 JUMP JUMPDEST POP PUSH1 0x20 DUP4 LT PUSH2 0x133 DUP4 LT AND PUSH1 0x4E DUP5 LT PUSH1 0xB DUP5 LT AND OR ISZERO PUSH2 0xE55 JUMPI POP DUP2 DUP2 EXP PUSH2 0x7F4 JUMP JUMPDEST PUSH2 0xE5F DUP4 DUP4 PUSH2 0xD97 JUMP JUMPDEST DUP1 PUSH1 0x0 NOT DIV DUP3 GT ISZERO PUSH2 0xE73 JUMPI PUSH2 0xE73 PUSH2 0xC36 JUMP JUMPDEST MUL SWAP4 SWAP3 POP POP POP JUMP JUMPDEST PUSH1 0x0 PUSH2 0x7F1 PUSH1 0xFF DUP5 AND DUP4 PUSH2 0xDDA JUMP INVALID LOG2 PUSH5 0x6970667358 0x22 SLT KECCAK256 EXTCODECOPY MSTORE8 0xD9 PUSH4 0x2FDA2506 XOR DUP10 SWAP15 PUSH7 0xF4C1E4DAA7B8F5 0x4F CALLER DUP5 LOG3 COINBASE DUP9 PUSH12 0xD356F422EA0564736F6C6343 STOP ADDMOD EXP STOP CALLER ","sha1":"9ed59043c70262b2348ac8308f1bdbdea56072aa","source":"// SPDX-License-Identifier: UNLICENSED\npragma solidity ^0.8.4;\n\nimport \"./BaseChainLinkOracle.sol\";\n\nimport \"../../libraries/FixedPoint.sol\";\n\ncontract CrashProtectedChainlinkPriceOracle is BaseChainlinkPriceOracle {\n    using DecimalScale for uint256;\n    using FixedPoint for uint256;\n    using EnumerableSet for EnumerableSet.AddressSet;\n\n    event FeedUpdated(\n        address indexed asset,\n        address indexed previousFeed,\n        address indexed newFeed,\n        FeedMeta meta\n    );\n\n    struct FeedMeta {\n        uint64 minDiffTime;\n        uint64 maxDeviation;\n    }\n\n    mapping(address => FeedMeta) public feedMetas;\n\n    /// @inheritdoc IUSDPriceOracle\n    function getPriceUSD(address asset) external view override returns (uint256) {\n        address feed = feeds[asset];\n        require(feed != address(0), Errors.ASSET_NOT_SUPPORTED);\n        (uint80 roundId, uint256 price, uint256 lastUpdate) = _getLatestRoundData(feed);\n\n        FeedMeta memory meta = feedMetas[feed];\n\n        // we look for the first update that happened at least `minDiffTime` ago\n        int256 previousAnswer;\n        uint256 previousUpdate;\n        do {\n            roundId -= 1;\n            (, previousAnswer, , previousUpdate, ) = AggregatorV2V3Interface(feed).getRoundData(\n                roundId\n            );\n        } while (lastUpdate - previousUpdate < meta.minDiffTime);\n\n        require(previousAnswer >= 0, Errors.NEGATIVE_PRICE);\n        uint256 previousPrice = uint256(previousAnswer);\n        uint256 deviation = previousPrice.absSub(price).divDown(price);\n        require(deviation < meta.maxDeviation, Errors.TOO_MUCH_VOLATILITY);\n\n        return price.scaleFrom(AggregatorV2V3Interface(feed).decimals());\n    }\n\n    /// @notice Allows to set Chainlink feeds with the metadata\n    function setFeed(\n        address asset,\n        address feed,\n        FeedMeta memory feedMeta\n    ) public governanceOnly {\n        address previousFeed = feeds[asset];\n        require(feed != previousFeed, Errors.INVALID_ARGUMENT);\n        require(feedMeta.minDiffTime > 0, Errors.INVALID_ARGUMENT);\n        feeds[asset] = feed;\n        feedMetas[feed] = feedMeta;\n        _supportedAssets.add(asset);\n        emit FeedUpdated(asset, previousFeed, feed, feedMeta);\n    }\n}\n","sourcePath":"contracts/oracles/CrashProtectedChainLinkPriceOracle.sol","type":"contract","deployment":{"address":"0x71242644944a33B7e92EbcBd144D292030365f7f","chainid":"137","blockHeight":32800504}}