{"abi":[{"inputs":[{"internalType":"address","name":"_governor","type":"address"},{"internalType":"contract IUSDBatchPriceOracle","name":"_batchPriceOracle","type":"address"}],"stateMutability":"nonpayable","type":"constructor","name":"constructor"},{"anonymous":false,"inputs":[{"indexed":true,"internalType":"address","name":"priceOracle","type":"address"}],"name":"BatchPriceOracleChanged","type":"event"},{"anonymous":false,"inputs":[{"indexed":false,"internalType":"address","name":"newGovernor","type":"address"}],"name":"GovernorChangeRequested","type":"event"},{"anonymous":false,"inputs":[{"indexed":false,"internalType":"address","name":"oldGovernor","type":"address"},{"indexed":false,"internalType":"address","name":"newGovernor","type":"address"}],"name":"GovernorChanged","type":"event"},{"anonymous":false,"inputs":[{"indexed":true,"internalType":"enum Vaults.Type","name":"vaultType","type":"uint8"},{"indexed":true,"internalType":"address","name":"priceOracle","type":"address"}],"name":"VaultPriceOracleChanged","type":"event"},{"inputs":[],"name":"acceptGovernance","outputs":[],"stateMutability":"nonpayable","type":"function"},{"inputs":[],"name":"batchPriceOracle","outputs":[{"internalType":"contract IUSDBatchPriceOracle","name":"","type":"address"}],"stateMutability":"view","type":"function"},{"inputs":[{"internalType":"address","name":"newGovernor","type":"address"}],"name":"changeGovernor","outputs":[],"stateMutability":"nonpayable","type":"function"},{"inputs":[{"components":[{"internalType":"address","name":"vault","type":"address"},{"internalType":"uint8","name":"decimals","type":"uint8"},{"internalType":"address","name":"underlying","type":"address"},{"internalType":"uint256","name":"price","type":"uint256"},{"components":[{"internalType":"uint256","name":"initialPrice","type":"uint256"},{"internalType":"uint256","name":"initialWeight","type":"uint256"},{"internalType":"uint256","name":"shortFlowMemory","type":"uint256"},{"internalType":"uint256","name":"shortFlowThreshold","type":"uint256"}],"internalType":"struct DataTypes.PersistedVaultMetadata","name":"persistedMetadata","type":"tuple"},{"internalType":"uint256","name":"reserveBalance","type":"uint256"},{"internalType":"uint256","name":"currentWeight","type":"uint256"},{"internalType":"uint256","name":"idealWeight","type":"uint256"},{"components":[{"internalType":"address","name":"tokenAddress","type":"address"},{"internalType":"bool","name":"isStable","type":"bool"},{"internalType":"uint256","name":"price","type":"uint256"}],"internalType":"struct DataTypes.PricedToken[]","name":"pricedTokens","type":"tuple[]"}],"internalType":"struct DataTypes.VaultInfo[]","name":"vaultsInfo","type":"tuple[]"}],"name":"fetchPricesUSD","outputs":[{"components":[{"internalType":"address","name":"vault","type":"address"},{"internalType":"uint8","name":"decimals","type":"uint8"},{"internalType":"address","name":"underlying","type":"address"},{"internalType":"uint256","name":"price","type":"uint256"},{"components":[{"internalType":"uint256","name":"initialPrice","type":"uint256"},{"internalType":"uint256","name":"initialWeight","type":"uint256"},{"internalType":"uint256","name":"shortFlowMemory","type":"uint256"},{"internalType":"uint256","name":"shortFlowThreshold","type":"uint256"}],"internalType":"struct DataTypes.PersistedVaultMetadata","name":"persistedMetadata","type":"tuple"},{"internalType":"uint256","name":"reserveBalance","type":"uint256"},{"internalType":"uint256","name":"currentWeight","type":"uint256"},{"internalType":"uint256","name":"idealWeight","type":"uint256"},{"components":[{"internalType":"address","name":"tokenAddress","type":"address"},{"internalType":"bool","name":"isStable","type":"bool"},{"internalType":"uint256","name":"price","type":"uint256"}],"internalType":"struct DataTypes.PricedToken[]","name":"pricedTokens","type":"tuple[]"}],"internalType":"struct DataTypes.VaultInfo[]","name":"","type":"tuple[]"}],"stateMutability":"view","type":"function"},{"inputs":[],"name":"governor","outputs":[{"internalType":"address","name":"","type":"address"}],"stateMutability":"view","type":"function"},{"inputs":[],"name":"pendingGovernor","outputs":[{"internalType":"address","name":"","type":"address"}],"stateMutability":"view","type":"function"},{"inputs":[{"internalType":"enum Vaults.Type","name":"vaultType","type":"uint8"},{"internalType":"contract IVaultPriceOracle","name":"priceOracle","type":"address"}],"name":"registerVaultPriceOracle","outputs":[],"stateMutability":"nonpayable","type":"function"},{"inputs":[{"internalType":"contract IUSDBatchPriceOracle","name":"priceOracle","type":"address"}],"name":"setBatchPriceOracle","outputs":[],"stateMutability":"nonpayable","type":"function"},{"inputs":[{"internalType":"enum Vaults.Type","name":"","type":"uint8"}],"name":"vaultPriceOracles","outputs":[{"internalType":"contract IVaultPriceOracle","name":"","type":"address"}],"stateMutability":"view","type":"function"}],"bytecode":"60806040523480156200001157600080fd5b50604051620017763803806200177683398101604081905262000034916200011b565b600080546001600160a01b0319166001600160a01b038416908117825560408051928352602083019190915283917fde4b3f61490b74c0ed6237523974fe299126bbbf8a8a7482fd220104c59b0c84910160405180910390a150604080518082019091526002815261333160f01b60208201526001600160a01b038216620000da5760405162461bcd60e51b8152600401620000d191906200015a565b60405180910390fd5b50600280546001600160a01b0319166001600160a01b039290921691909117905550620001b2565b6001600160a01b03811681146200011857600080fd5b50565b600080604083850312156200012f57600080fd5b82516200013c8162000102565b60208401519092506200014f8162000102565b809150509250929050565b600060208083528351808285015260005b8181101562000189578581018301518582016040015282016200016b565b818111156200019c576000604083870101525b50601f01601f1916929092016040019392505050565b6115b480620001c26000396000f3fe608060405234801561001057600080fd5b50600436106100935760003560e01c8063cc8ce65211610066578063cc8ce652146100f8578063ccda1ef71461010b578063d089a0e71461012b578063e3056a3414610154578063e4c0aaf41461016757600080fd5b80630c340a2414610098578063238efcbc146100c85780639ca12cda146100d2578063ad3390c0146100e5575b600080fd5b6000546100ab906001600160a01b031681565b6040516001600160a01b0390911681526020015b60405180910390f35b6100d061017a565b005b6100d06100e0366004610d05565b610233565b6002546100ab906001600160a01b031681565b6100d0610106366004610d3e565b61030c565b61011e610119366004610f52565b61039c565b6040516100bf919061110d565b6100ab61013936600461120d565b6003602052600090815260409020546001600160a01b031681565b6001546100ab906001600160a01b031681565b6100d0610175366004610d3e565b6104b4565b600154604080518082019091526002815261033360f41b6020820152906001600160a01b031633146101c85760405162461bcd60e51b81526004016101bf919061122a565b60405180910390fd5b5060008054600180546001600160a01b03198084166001600160a01b03808416919091179095551690556040805192909116808352336020840152917fde4b3f61490b74c0ed6237523974fe299126bbbf8a8a7482fd220104c59b0c8491015b60405180910390a150565b600054604080518082019091526002815261033360f41b6020820152906001600160a01b031633146102785760405162461bcd60e51b81526004016101bf919061122a565b5080600360008460048111156102905761029061127f565b60048111156102a1576102a161127f565b8152602081019190915260400160002080546001600160a01b0319166001600160a01b0392831617905581168260048111156102df576102df61127f565b6040517fd992eaec24a9c32398c97bf68d6b13420cfa61ab8a600800cdd1c760d1fc786190600090a35050565b600054604080518082019091526002815261033360f41b6020820152906001600160a01b031633146103515760405162461bcd60e51b81526004016101bf919061122a565b50600280546001600160a01b0319166001600160a01b0383169081179091556040517f6a307a24f425432e870b96f8281754586de703b1ea0ed2d883134333b3a3bdf190600090a250565b606060006103a983610589565b600254604051632af3128360e01b81529192506000916001600160a01b0390911690632af31283906103df908590600401611295565b600060405180830381865afa1580156103fc573d6000803e3d6000fd5b505050506040513d6000823e601f3d908101601f1916820160405261042491908101906112e2565b905060005b84518110156104ab5761045685828151811061044757610447611373565b60200260200101518484610709565b61047885828151811061046b5761046b611373565b60200260200101516107db565b85828151811061048a5761048a611373565b602090810291909101015160600152806104a38161139f565b915050610429565b50929392505050565b600054604080518082019091526002815261033360f41b6020820152906001600160a01b031633146104f95760405162461bcd60e51b81526004016101bf919061122a565b50604080518082019091526002815261333160f01b60208201526001600160a01b03821661053a5760405162461bcd60e51b81526004016101bf919061122a565b50600180546001600160a01b0319166001600160a01b0383169081179091556040519081527f67235ba2e63c748a35b95c4f92a3bbc2a1389938170a5ce6c9add5d0b03a314a90602001610228565b60606000805b83518110156105d7578381815181106105aa576105aa611373565b6020026020010151610100015151826105c391906113ba565b9150806105cf8161139f565b91505061058f565b5060008167ffffffffffffffff8111156105f3576105f3610d62565b60405190808252806020026020018201604052801561061c578160200160208202803683370190505b5090506000805b85518210156106ee5760005b86838151811061064157610641611373565b60200260200101516101000151518110156106db5786838151811061066857610668611373565b60200260200101516101000151818151811061068657610686611373565b6020026020010151600001518483815181106106a4576106a4611373565b6001600160a01b0390921660209283029190910190910152806106c68161139f565b9150826106d28161139f565b9350505061062f565b50816106e68161139f565b925050610623565b50506107016106fc8261093b565b61095a565b949350505050565b6000805b846101000151518210156107d4575b846101000151828151811061073357610733611373565b6020026020010151600001516001600160a01b031684828151811061075a5761075a611373565b60200260200101516001600160a01b031614610782578061077a8161139f565b91505061071c565b82818151811061079457610794611373565b602002602001015185610100015183815181106107b3576107b3611373565b602090810291909101015160400152816107cc8161139f565b92505061070d565b5050505050565b60008082600001519050600060036000836001600160a01b0316634ac032be6040518163ffffffff1660e01b8152600401602060405180830381865afa158015610829573d6000803e3d6000fd5b505050506040513d601f19601f8201168201806040525081019061084d91906113d2565b600481111561085e5761085e61127f565b600481111561086f5761086f61127f565b815260208082019290925260409081016000205481518083019092526002825261034360f41b928201929092526001600160a01b039091169150816108c75760405162461bcd60e51b81526004016101bf919061122a565b506101008401516040516305bdd97f60e51b81526001600160a01b0383169163b7bb2fe0916108fa9186916004016113ef565b602060405180830381865afa158015610917573d6000803e3d6000fd5b505050506040513d601f19601f82011682018060405250810190610701919061145b565b6060610956826000600185516109519190611474565b610b30565b5090565b6060600060015b83518110156109e25783818151811061097c5761097c611373565b60200260200101516001600160a01b03168460018361099b9190611474565b815181106109ab576109ab611373565b60200260200101516001600160a01b031614156109d057816109cc8161139f565b9250505b806109da8161139f565b915050610961565b50806109ef575090919050565b60008184516109fe9190611474565b67ffffffffffffffff811115610a1657610a16610d62565b604051908082528060200260200182016040528015610a3f578160200160208202803683370190505b5090506000805b8551821015610b265760018651610a5d9190611474565b82108015610ab8575085610a728360016113ba565b81518110610a8257610a82611373565b60200260200101516001600160a01b0316868381518110610aa557610aa5611373565b60200260200101516001600160a01b0316145b15610ac257610b14565b858281518110610ad457610ad4611373565b6020026020010151838281518110610aee57610aee611373565b6001600160a01b039092166020928302919091019091015280610b108161139f565b9150505b81610b1e8161139f565b925050610a46565b5090949350505050565b818180821415610b41575050505050565b6000856002610b50878761148b565b610b5a91906114ca565b610b649087611506565b81518110610b7457610b74611373565b602002602001015190505b818313610cb2575b806001600160a01b0316868481518110610ba357610ba3611373565b60200260200101516001600160a01b03161015610bcc5782610bc481611547565b935050610b87565b858281518110610bde57610bde611373565b60200260200101516001600160a01b0316816001600160a01b03161015610c115781610c0981611560565b925050610bcc565b818313610cad57858281518110610c2a57610c2a611373565b6020026020010151868481518110610c4457610c44611373565b6020026020010151878581518110610c5e57610c5e611373565b60200260200101888581518110610c7757610c77611373565b6001600160a01b0393841660209182029290920101529116905282610c9b81611547565b9350508180610ca990611560565b9250505b610b7f565b81851215610cc557610cc5868684610b30565b83831215610cd857610cd8868486610b30565b505050505050565b60058110610ced57600080fd5b50565b6001600160a01b0381168114610ced57600080fd5b60008060408385031215610d1857600080fd5b8235610d2381610ce0565b91506020830135610d3381610cf0565b809150509250929050565b600060208284031215610d5057600080fd5b8135610d5b81610cf0565b9392505050565b634e487b7160e01b600052604160045260246000fd5b6040516060810167ffffffffffffffff81118282101715610d9b57610d9b610d62565b60405290565b604051610120810167ffffffffffffffff81118282101715610d9b57610d9b610d62565b604051601f8201601f1916810167ffffffffffffffff81118282101715610dee57610dee610d62565b604052919050565b600067ffffffffffffffff821115610e1057610e10610d62565b5060051b60200190565b8035610e2581610cf0565b919050565b803560ff81168114610e2557600080fd5b600060808284031215610e4d57600080fd5b6040516080810181811067ffffffffffffffff82111715610e7057610e70610d62565b8060405250809150823581526020830135602082015260408301356040820152606083013560608201525092915050565b600082601f830112610eb257600080fd5b81356020610ec7610ec283610df6565b610dc5565b82815260609283028501820192828201919087851115610ee657600080fd5b8387015b85811015610f455781818a031215610f025760008081fd5b610f0a610d78565b8135610f1581610cf0565b8152818601358015158114610f2a5760008081fd5b81870152604082810135908201528452928401928101610eea565b5090979650505050505050565b60006020808385031215610f6557600080fd5b823567ffffffffffffffff80821115610f7d57600080fd5b818501915085601f830112610f9157600080fd5b8135610f9f610ec282610df6565b81815260059190911b83018401908481019088831115610fbe57600080fd5b8585015b838110156110a257803585811115610fda5760008081fd5b8601610180818c03601f1901811315610ff35760008081fd5b610ffb610da1565b6110068a8401610e1a565b81526040611015818501610e2a565b8b8301526060611026818601610e1a565b828401526080915081850135818401525060a06110458f828701610e3b565b8284015261012085013581840152505061014083013560c082015261016083013560e08201528183013591508782111561107f5760008081fd5b61108d8d8b84860101610ea1565b61010082015285525050918601918601610fc2565b5098975050505050505050565b600081518084526020808501945080840160005b8381101561110257815180516001600160a01b0316885260208082015115159089015260409081015190880152606087019650908201906001016110c3565b509495945050505050565b60006020808301818452808551808352604092508286019150828160051b87010184880160005b838110156111ff57888303603f19018552815180516001600160a01b031684526101808189015160ff8116868b015250818801516001600160a01b038116868a01525060608281015186820152608080840151805182890152602081015160a0890152604081015160c08901529182015160e088015290505060a0820151610100818188015260c084015161012088015260e08401516101408801528084015193505050806101608601526111eb818601836110af565b968901969450505090860190600101611134565b509098975050505050505050565b60006020828403121561121f57600080fd5b8135610d5b81610ce0565b600060208083528351808285015260005b818110156112575785810183015185820160400152820161123b565b81811115611269576000604083870101525b50601f01601f1916929092016040019392505050565b634e487b7160e01b600052602160045260246000fd5b6020808252825182820181905260009190848201906040850190845b818110156112d65783516001600160a01b0316835292840192918401916001016112b1565b50909695505050505050565b600060208083850312156112f557600080fd5b825167ffffffffffffffff81111561130c57600080fd5b8301601f8101851361131d57600080fd5b805161132b610ec282610df6565b81815260059190911b8201830190838101908783111561134a57600080fd5b928401925b828410156113685783518252928401929084019061134f565b979650505050505050565b634e487b7160e01b600052603260045260246000fd5b634e487b7160e01b600052601160045260246000fd5b60006000198214156113b3576113b3611389565b5060010190565b600082198211156113cd576113cd611389565b500190565b6000602082840312156113e457600080fd5b8151610d5b81610ce0565b6001600160a01b038316815260406020808301829052835191830182905260009184820191906060850190845b81811015610f4557845180516001600160a01b03168452602080820151151590850152604090810151908401526060830194840194925060010161141c565b60006020828403121561146d57600080fd5b5051919050565b60008282101561148657611486611389565b500390565b60008083128015600160ff1b8501841216156114a9576114a9611389565b6001600160ff1b03840183138116156114c4576114c4611389565b50500390565b6000826114e757634e487b7160e01b600052601260045260246000fd5b600160ff1b82146000198414161561150157611501611389565b500590565b600080821280156001600160ff1b038490038513161561152857611528611389565b600160ff1b839003841281161561154157611541611389565b50500190565b60006001600160ff1b038214156113b3576113b3611389565b6000600160ff1b82141561157657611576611389565b50600019019056fea2646970667358221220e3bb43e3853ffd28484e8ef7d1fe570501e362322b7eda29f0b39bef8347b28664736f6c634300080a0033","bytecodeSha1":"1567b76a273a2a2ded2e6d3a53191f6757abc08d","compiler":{"evm_version":"london","optimizer":{"enabled":true,"runs":200},"version":"0.8.10+commit.fc410830"},"contractName":"BatchVaultPriceOracle","language":"Solidity","natspec":{"kind":"dev","methods":{"acceptGovernance()":{"notice":"Called by the pending governor to approve the change"},"changeGovernor(address)":{"notice":"Changes the governor can only be called by the current governor"},"fetchPricesUSD((address,uint8,address,uint256,(uint256,uint256,uint256,uint256),uint256,uint256,uint256,(address,bool,uint256)[])[])":{"notice":"Fetches the price of the vault token as well as the underlying tokens","returns":{"_0":"the same vaults info with the price data populated"}},"governor()":{"notice":"Returns the current governor"},"pendingGovernor()":{"notice":"Returns the pending governor"}},"version":1},"opcodes":"PUSH1 0x80 PUSH1 0x40 MSTORE CALLVALUE DUP1 ISZERO PUSH2 0x10 JUMPI PUSH1 0x0 DUP1 REVERT JUMPDEST POP PUSH1 0x4 CALLDATASIZE LT PUSH2 0x93 JUMPI PUSH1 0x0 CALLDATALOAD PUSH1 0xE0 SHR DUP1 PUSH4 0xCC8CE652 GT PUSH2 0x66 JUMPI DUP1 PUSH4 0xCC8CE652 EQ PUSH2 0xF8 JUMPI DUP1 PUSH4 0xCCDA1EF7 EQ PUSH2 0x10B JUMPI DUP1 PUSH4 0xD089A0E7 EQ PUSH2 0x12B JUMPI DUP1 PUSH4 0xE3056A34 EQ PUSH2 0x154 JUMPI DUP1 PUSH4 0xE4C0AAF4 EQ PUSH2 0x167 JUMPI PUSH1 0x0 DUP1 REVERT JUMPDEST DUP1 PUSH4 0xC340A24 EQ PUSH2 0x98 JUMPI DUP1 PUSH4 0x238EFCBC EQ PUSH2 0xC8 JUMPI DUP1 PUSH4 0x9CA12CDA EQ PUSH2 0xD2 JUMPI DUP1 PUSH4 0xAD3390C0 EQ PUSH2 0xE5 JUMPI JUMPDEST PUSH1 0x0 DUP1 REVERT JUMPDEST PUSH1 0x0 SLOAD PUSH2 0xAB SWAP1 PUSH1 0x1 PUSH1 0x1 PUSH1 0xA0 SHL SUB AND DUP2 JUMP JUMPDEST PUSH1 0x40 MLOAD PUSH1 0x1 PUSH1 0x1 PUSH1 0xA0 SHL SUB SWAP1 SWAP2 AND DUP2 MSTORE PUSH1 0x20 ADD JUMPDEST PUSH1 0x40 MLOAD DUP1 SWAP2 SUB SWAP1 RETURN JUMPDEST PUSH2 0xD0 PUSH2 0x17A JUMP JUMPDEST STOP JUMPDEST PUSH2 0xD0 PUSH2 0xE0 CALLDATASIZE PUSH1 0x4 PUSH2 0xD05 JUMP JUMPDEST PUSH2 0x233 JUMP JUMPDEST PUSH1 0x2 SLOAD PUSH2 0xAB SWAP1 PUSH1 0x1 PUSH1 0x1 PUSH1 0xA0 SHL SUB AND DUP2 JUMP JUMPDEST PUSH2 0xD0 PUSH2 0x106 CALLDATASIZE PUSH1 0x4 PUSH2 0xD3E JUMP JUMPDEST PUSH2 0x30C JUMP JUMPDEST PUSH2 0x11E PUSH2 0x119 CALLDATASIZE PUSH1 0x4 PUSH2 0xF52 JUMP JUMPDEST PUSH2 0x39C JUMP JUMPDEST PUSH1 0x40 MLOAD PUSH2 0xBF SWAP2 SWAP1 PUSH2 0x110D JUMP JUMPDEST PUSH2 0xAB PUSH2 0x139 CALLDATASIZE PUSH1 0x4 PUSH2 0x120D JUMP JUMPDEST PUSH1 0x3 PUSH1 0x20 MSTORE PUSH1 0x0 SWAP1 DUP2 MSTORE PUSH1 0x40 SWAP1 KECCAK256 SLOAD PUSH1 0x1 PUSH1 0x1 PUSH1 0xA0 SHL SUB AND DUP2 JUMP JUMPDEST PUSH1 0x1 SLOAD PUSH2 0xAB SWAP1 PUSH1 0x1 PUSH1 0x1 PUSH1 0xA0 SHL SUB AND DUP2 JUMP JUMPDEST PUSH2 0xD0 PUSH2 0x175 CALLDATASIZE PUSH1 0x4 PUSH2 0xD3E JUMP JUMPDEST PUSH2 0x4B4 JUMP JUMPDEST PUSH1 0x1 SLOAD PUSH1 0x40 DUP1 MLOAD DUP1 DUP3 ADD SWAP1 SWAP2 MSTORE PUSH1 0x2 DUP2 MSTORE PUSH2 0x333 PUSH1 0xF4 SHL PUSH1 0x20 DUP3 ADD MSTORE SWAP1 PUSH1 0x1 PUSH1 0x1 PUSH1 0xA0 SHL SUB AND CALLER EQ PUSH2 0x1C8 JUMPI PUSH1 0x40 MLOAD PUSH3 0x461BCD PUSH1 0xE5 SHL DUP2 MSTORE PUSH1 0x4 ADD PUSH2 0x1BF SWAP2 SWAP1 PUSH2 0x122A JUMP JUMPDEST PUSH1 0x40 MLOAD DUP1 SWAP2 SUB SWAP1 REVERT JUMPDEST POP PUSH1 0x0 DUP1 SLOAD PUSH1 0x1 DUP1 SLOAD PUSH1 0x1 PUSH1 0x1 PUSH1 0xA0 SHL SUB NOT DUP1 DUP5 AND PUSH1 0x1 PUSH1 0x1 PUSH1 0xA0 SHL SUB DUP1 DUP5 AND SWAP2 SWAP1 SWAP2 OR SWAP1 SWAP6 SSTORE AND SWAP1 SSTORE PUSH1 0x40 DUP1 MLOAD SWAP3 SWAP1 SWAP2 AND DUP1 DUP4 MSTORE CALLER PUSH1 0x20 DUP5 ADD MSTORE SWAP2 PUSH32 0xDE4B3F61490B74C0ED6237523974FE299126BBBF8A8A7482FD220104C59B0C84 SWAP2 ADD JUMPDEST PUSH1 0x40 MLOAD DUP1 SWAP2 SUB SWAP1 LOG1 POP JUMP JUMPDEST PUSH1 0x0 SLOAD PUSH1 0x40 DUP1 MLOAD DUP1 DUP3 ADD SWAP1 SWAP2 MSTORE PUSH1 0x2 DUP2 MSTORE PUSH2 0x333 PUSH1 0xF4 SHL PUSH1 0x20 DUP3 ADD MSTORE SWAP1 PUSH1 0x1 PUSH1 0x1 PUSH1 0xA0 SHL SUB AND CALLER EQ PUSH2 0x278 JUMPI PUSH1 0x40 MLOAD PUSH3 0x461BCD PUSH1 0xE5 SHL DUP2 MSTORE PUSH1 0x4 ADD PUSH2 0x1BF SWAP2 SWAP1 PUSH2 0x122A JUMP JUMPDEST POP DUP1 PUSH1 0x3 PUSH1 0x0 DUP5 PUSH1 0x4 DUP2 GT ISZERO PUSH2 0x290 JUMPI PUSH2 0x290 PUSH2 0x127F JUMP JUMPDEST PUSH1 0x4 DUP2 GT ISZERO PUSH2 0x2A1 JUMPI PUSH2 0x2A1 PUSH2 0x127F JUMP JUMPDEST DUP2 MSTORE PUSH1 0x20 DUP2 ADD SWAP2 SWAP1 SWAP2 MSTORE PUSH1 0x40 ADD PUSH1 0x0 KECCAK256 DUP1 SLOAD PUSH1 0x1 PUSH1 0x1 PUSH1 0xA0 SHL SUB NOT AND PUSH1 0x1 PUSH1 0x1 PUSH1 0xA0 SHL SUB SWAP3 DUP4 AND OR SWAP1 SSTORE DUP2 AND DUP3 PUSH1 0x4 DUP2 GT ISZERO PUSH2 0x2DF JUMPI PUSH2 0x2DF PUSH2 0x127F JUMP JUMPDEST PUSH1 0x40 MLOAD PUSH32 0xD992EAEC24A9C32398C97BF68D6B13420CFA61AB8A600800CDD1C760D1FC7861 SWAP1 PUSH1 0x0 SWAP1 LOG3 POP POP JUMP JUMPDEST PUSH1 0x0 SLOAD PUSH1 0x40 DUP1 MLOAD DUP1 DUP3 ADD SWAP1 SWAP2 MSTORE PUSH1 0x2 DUP2 MSTORE PUSH2 0x333 PUSH1 0xF4 SHL PUSH1 0x20 DUP3 ADD MSTORE SWAP1 PUSH1 0x1 PUSH1 0x1 PUSH1 0xA0 SHL SUB AND CALLER EQ PUSH2 0x351 JUMPI PUSH1 0x40 MLOAD PUSH3 0x461BCD PUSH1 0xE5 SHL DUP2 MSTORE PUSH1 0x4 ADD PUSH2 0x1BF SWAP2 SWAP1 PUSH2 0x122A JUMP JUMPDEST POP PUSH1 0x2 DUP1 SLOAD PUSH1 0x1 PUSH1 0x1 PUSH1 0xA0 SHL SUB NOT AND PUSH1 0x1 PUSH1 0x1 PUSH1 0xA0 SHL SUB DUP4 AND SWAP1 DUP2 OR SWAP1 SWAP2 SSTORE PUSH1 0x40 MLOAD PUSH32 0x6A307A24F425432E870B96F8281754586DE703B1EA0ED2D883134333B3A3BDF1 SWAP1 PUSH1 0x0 SWAP1 LOG2 POP JUMP JUMPDEST PUSH1 0x60 PUSH1 0x0 PUSH2 0x3A9 DUP4 PUSH2 0x589 JUMP JUMPDEST PUSH1 0x2 SLOAD PUSH1 0x40 MLOAD PUSH4 0x2AF31283 PUSH1 0xE0 SHL DUP2 MSTORE SWAP2 SWAP3 POP PUSH1 0x0 SWAP2 PUSH1 0x1 PUSH1 0x1 PUSH1 0xA0 SHL SUB SWAP1 SWAP2 AND SWAP1 PUSH4 0x2AF31283 SWAP1 PUSH2 0x3DF SWAP1 DUP6 SWAP1 PUSH1 0x4 ADD PUSH2 0x1295 JUMP JUMPDEST PUSH1 0x0 PUSH1 0x40 MLOAD DUP1 DUP4 SUB DUP2 DUP7 GAS STATICCALL ISZERO DUP1 ISZERO PUSH2 0x3FC JUMPI RETURNDATASIZE PUSH1 0x0 DUP1 RETURNDATACOPY RETURNDATASIZE PUSH1 0x0 REVERT JUMPDEST POP POP POP POP PUSH1 0x40 MLOAD RETURNDATASIZE PUSH1 0x0 DUP3 RETURNDATACOPY PUSH1 0x1F RETURNDATASIZE SWAP1 DUP2 ADD PUSH1 0x1F NOT AND DUP3 ADD PUSH1 0x40 MSTORE PUSH2 0x424 SWAP2 SWAP1 DUP2 ADD SWAP1 PUSH2 0x12E2 JUMP JUMPDEST SWAP1 POP PUSH1 0x0 JUMPDEST DUP5 MLOAD DUP2 LT ISZERO PUSH2 0x4AB JUMPI PUSH2 0x456 DUP6 DUP3 DUP2 MLOAD DUP2 LT PUSH2 0x447 JUMPI PUSH2 0x447 PUSH2 0x1373 JUMP JUMPDEST PUSH1 0x20 MUL PUSH1 0x20 ADD ADD MLOAD DUP5 DUP5 PUSH2 0x709 JUMP JUMPDEST PUSH2 0x478 DUP6 DUP3 DUP2 MLOAD DUP2 LT PUSH2 0x46B JUMPI PUSH2 0x46B PUSH2 0x1373 JUMP JUMPDEST PUSH1 0x20 MUL PUSH1 0x20 ADD ADD MLOAD PUSH2 0x7DB JUMP JUMPDEST DUP6 DUP3 DUP2 MLOAD DUP2 LT PUSH2 0x48A JUMPI PUSH2 0x48A PUSH2 0x1373 JUMP JUMPDEST PUSH1 0x20 SWAP1 DUP2 MUL SWAP2 SWAP1 SWAP2 ADD ADD MLOAD PUSH1 0x60 ADD MSTORE DUP1 PUSH2 0x4A3 DUP2 PUSH2 0x139F JUMP JUMPDEST SWAP2 POP POP PUSH2 0x429 JUMP JUMPDEST POP SWAP3 SWAP4 SWAP3 POP POP POP JUMP JUMPDEST PUSH1 0x0 SLOAD PUSH1 0x40 DUP1 MLOAD DUP1 DUP3 ADD SWAP1 SWAP2 MSTORE PUSH1 0x2 DUP2 MSTORE PUSH2 0x333 PUSH1 0xF4 SHL PUSH1 0x20 DUP3 ADD MSTORE SWAP1 PUSH1 0x1 PUSH1 0x1 PUSH1 0xA0 SHL SUB AND CALLER EQ PUSH2 0x4F9 JUMPI PUSH1 0x40 MLOAD PUSH3 0x461BCD PUSH1 0xE5 SHL DUP2 MSTORE PUSH1 0x4 ADD PUSH2 0x1BF SWAP2 SWAP1 PUSH2 0x122A JUMP JUMPDEST POP PUSH1 0x40 DUP1 MLOAD DUP1 DUP3 ADD SWAP1 SWAP2 MSTORE PUSH1 0x2 DUP2 MSTORE PUSH2 0x3331 PUSH1 0xF0 SHL PUSH1 0x20 DUP3 ADD MSTORE PUSH1 0x1 PUSH1 0x1 PUSH1 0xA0 SHL SUB DUP3 AND PUSH2 0x53A JUMPI PUSH1 0x40 MLOAD PUSH3 0x461BCD PUSH1 0xE5 SHL DUP2 MSTORE PUSH1 0x4 ADD PUSH2 0x1BF SWAP2 SWAP1 PUSH2 0x122A JUMP JUMPDEST POP PUSH1 0x1 DUP1 SLOAD PUSH1 0x1 PUSH1 0x1 PUSH1 0xA0 SHL SUB NOT AND PUSH1 0x1 PUSH1 0x1 PUSH1 0xA0 SHL SUB DUP4 AND SWAP1 DUP2 OR SWAP1 SWAP2 SSTORE PUSH1 0x40 MLOAD SWAP1 DUP2 MSTORE PUSH32 0x67235BA2E63C748A35B95C4F92A3BBC2A1389938170A5CE6C9ADD5D0B03A314A SWAP1 PUSH1 0x20 ADD PUSH2 0x228 JUMP JUMPDEST PUSH1 0x60 PUSH1 0x0 DUP1 JUMPDEST DUP4 MLOAD DUP2 LT ISZERO PUSH2 0x5D7 JUMPI DUP4 DUP2 DUP2 MLOAD DUP2 LT PUSH2 0x5AA JUMPI PUSH2 0x5AA PUSH2 0x1373 JUMP JUMPDEST PUSH1 0x20 MUL PUSH1 0x20 ADD ADD MLOAD PUSH2 0x100 ADD MLOAD MLOAD DUP3 PUSH2 0x5C3 SWAP2 SWAP1 PUSH2 0x13BA JUMP JUMPDEST SWAP2 POP DUP1 PUSH2 0x5CF DUP2 PUSH2 0x139F JUMP JUMPDEST SWAP2 POP POP PUSH2 0x58F JUMP JUMPDEST POP PUSH1 0x0 DUP2 PUSH8 0xFFFFFFFFFFFFFFFF DUP2 GT ISZERO PUSH2 0x5F3 JUMPI PUSH2 0x5F3 PUSH2 0xD62 JUMP JUMPDEST PUSH1 0x40 MLOAD SWAP1 DUP1 DUP3 MSTORE DUP1 PUSH1 0x20 MUL PUSH1 0x20 ADD DUP3 ADD PUSH1 0x40 MSTORE DUP1 ISZERO PUSH2 0x61C JUMPI DUP2 PUSH1 0x20 ADD PUSH1 0x20 DUP3 MUL DUP1 CALLDATASIZE DUP4 CALLDATACOPY ADD SWAP1 POP JUMPDEST POP SWAP1 POP PUSH1 0x0 DUP1 JUMPDEST DUP6 MLOAD DUP3 LT ISZERO PUSH2 0x6EE JUMPI PUSH1 0x0 JUMPDEST DUP7 DUP4 DUP2 MLOAD DUP2 LT PUSH2 0x641 JUMPI PUSH2 0x641 PUSH2 0x1373 JUMP JUMPDEST PUSH1 0x20 MUL PUSH1 0x20 ADD ADD MLOAD PUSH2 0x100 ADD MLOAD MLOAD DUP2 LT ISZERO PUSH2 0x6DB JUMPI DUP7 DUP4 DUP2 MLOAD DUP2 LT PUSH2 0x668 JUMPI PUSH2 0x668 PUSH2 0x1373 JUMP JUMPDEST PUSH1 0x20 MUL PUSH1 0x20 ADD ADD MLOAD PUSH2 0x100 ADD MLOAD DUP2 DUP2 MLOAD DUP2 LT PUSH2 0x686 JUMPI PUSH2 0x686 PUSH2 0x1373 JUMP JUMPDEST PUSH1 0x20 MUL PUSH1 0x20 ADD ADD MLOAD PUSH1 0x0 ADD MLOAD DUP5 DUP4 DUP2 MLOAD DUP2 LT PUSH2 0x6A4 JUMPI PUSH2 0x6A4 PUSH2 0x1373 JUMP JUMPDEST PUSH1 0x1 PUSH1 0x1 PUSH1 0xA0 SHL SUB SWAP1 SWAP3 AND PUSH1 0x20 SWAP3 DUP4 MUL SWAP2 SWAP1 SWAP2 ADD SWAP1 SWAP2 ADD MSTORE DUP1 PUSH2 0x6C6 DUP2 PUSH2 0x139F JUMP JUMPDEST SWAP2 POP DUP3 PUSH2 0x6D2 DUP2 PUSH2 0x139F JUMP JUMPDEST SWAP4 POP POP POP PUSH2 0x62F JUMP JUMPDEST POP DUP2 PUSH2 0x6E6 DUP2 PUSH2 0x139F JUMP JUMPDEST SWAP3 POP POP PUSH2 0x623 JUMP JUMPDEST POP POP PUSH2 0x701 PUSH2 0x6FC DUP3 PUSH2 0x93B JUMP JUMPDEST PUSH2 0x95A JUMP JUMPDEST SWAP5 SWAP4 POP POP POP POP JUMP JUMPDEST PUSH1 0x0 DUP1 JUMPDEST DUP5 PUSH2 0x100 ADD MLOAD MLOAD DUP3 LT ISZERO PUSH2 0x7D4 JUMPI JUMPDEST DUP5 PUSH2 0x100 ADD MLOAD DUP3 DUP2 MLOAD DUP2 LT PUSH2 0x733 JUMPI PUSH2 0x733 PUSH2 0x1373 JUMP JUMPDEST PUSH1 0x20 MUL PUSH1 0x20 ADD ADD MLOAD PUSH1 0x0 ADD MLOAD PUSH1 0x1 PUSH1 0x1 PUSH1 0xA0 SHL SUB AND DUP5 DUP3 DUP2 MLOAD DUP2 LT PUSH2 0x75A JUMPI PUSH2 0x75A PUSH2 0x1373 JUMP JUMPDEST PUSH1 0x20 MUL PUSH1 0x20 ADD ADD MLOAD PUSH1 0x1 PUSH1 0x1 PUSH1 0xA0 SHL SUB AND EQ PUSH2 0x782 JUMPI DUP1 PUSH2 0x77A DUP2 PUSH2 0x139F JUMP JUMPDEST SWAP2 POP POP PUSH2 0x71C JUMP JUMPDEST DUP3 DUP2 DUP2 MLOAD DUP2 LT PUSH2 0x794 JUMPI PUSH2 0x794 PUSH2 0x1373 JUMP JUMPDEST PUSH1 0x20 MUL PUSH1 0x20 ADD ADD MLOAD DUP6 PUSH2 0x100 ADD MLOAD DUP4 DUP2 MLOAD DUP2 LT PUSH2 0x7B3 JUMPI PUSH2 0x7B3 PUSH2 0x1373 JUMP JUMPDEST PUSH1 0x20 SWAP1 DUP2 MUL SWAP2 SWAP1 SWAP2 ADD ADD MLOAD PUSH1 0x40 ADD MSTORE DUP2 PUSH2 0x7CC DUP2 PUSH2 0x139F JUMP JUMPDEST SWAP3 POP POP PUSH2 0x70D JUMP JUMPDEST POP POP POP POP POP JUMP JUMPDEST PUSH1 0x0 DUP1 DUP3 PUSH1 0x0 ADD MLOAD SWAP1 POP PUSH1 0x0 PUSH1 0x3 PUSH1 0x0 DUP4 PUSH1 0x1 PUSH1 0x1 PUSH1 0xA0 SHL SUB AND PUSH4 0x4AC032BE PUSH1 0x40 MLOAD DUP2 PUSH4 0xFFFFFFFF AND PUSH1 0xE0 SHL DUP2 MSTORE PUSH1 0x4 ADD PUSH1 0x20 PUSH1 0x40 MLOAD DUP1 DUP4 SUB DUP2 DUP7 GAS STATICCALL ISZERO DUP1 ISZERO PUSH2 0x829 JUMPI RETURNDATASIZE PUSH1 0x0 DUP1 RETURNDATACOPY RETURNDATASIZE PUSH1 0x0 REVERT JUMPDEST POP POP POP POP PUSH1 0x40 MLOAD RETURNDATASIZE PUSH1 0x1F NOT PUSH1 0x1F DUP3 ADD AND DUP3 ADD DUP1 PUSH1 0x40 MSTORE POP DUP2 ADD SWAP1 PUSH2 0x84D SWAP2 SWAP1 PUSH2 0x13D2 JUMP JUMPDEST PUSH1 0x4 DUP2 GT ISZERO PUSH2 0x85E JUMPI PUSH2 0x85E PUSH2 0x127F JUMP JUMPDEST PUSH1 0x4 DUP2 GT ISZERO PUSH2 0x86F JUMPI PUSH2 0x86F PUSH2 0x127F JUMP JUMPDEST DUP2 MSTORE PUSH1 0x20 DUP1 DUP3 ADD SWAP3 SWAP1 SWAP3 MSTORE PUSH1 0x40 SWAP1 DUP2 ADD PUSH1 0x0 KECCAK256 SLOAD DUP2 MLOAD DUP1 DUP4 ADD SWAP1 SWAP3 MSTORE PUSH1 0x2 DUP3 MSTORE PUSH2 0x343 PUSH1 0xF4 SHL SWAP3 DUP3 ADD SWAP3 SWAP1 SWAP3 MSTORE PUSH1 0x1 PUSH1 0x1 PUSH1 0xA0 SHL SUB SWAP1 SWAP2 AND SWAP2 POP DUP2 PUSH2 0x8C7 JUMPI PUSH1 0x40 MLOAD PUSH3 0x461BCD PUSH1 0xE5 SHL DUP2 MSTORE PUSH1 0x4 ADD PUSH2 0x1BF SWAP2 SWAP1 PUSH2 0x122A JUMP JUMPDEST POP PUSH2 0x100 DUP5 ADD MLOAD PUSH1 0x40 MLOAD PUSH4 0x5BDD97F PUSH1 0xE5 SHL DUP2 MSTORE PUSH1 0x1 PUSH1 0x1 PUSH1 0xA0 SHL SUB DUP4 AND SWAP2 PUSH4 0xB7BB2FE0 SWAP2 PUSH2 0x8FA SWAP2 DUP7 SWAP2 PUSH1 0x4 ADD PUSH2 0x13EF JUMP JUMPDEST PUSH1 0x20 PUSH1 0x40 MLOAD DUP1 DUP4 SUB DUP2 DUP7 GAS STATICCALL ISZERO DUP1 ISZERO PUSH2 0x917 JUMPI RETURNDATASIZE PUSH1 0x0 DUP1 RETURNDATACOPY RETURNDATASIZE PUSH1 0x0 REVERT JUMPDEST POP POP POP POP PUSH1 0x40 MLOAD RETURNDATASIZE PUSH1 0x1F NOT PUSH1 0x1F DUP3 ADD AND DUP3 ADD DUP1 PUSH1 0x40 MSTORE POP DUP2 ADD SWAP1 PUSH2 0x701 SWAP2 SWAP1 PUSH2 0x145B JUMP JUMPDEST PUSH1 0x60 PUSH2 0x956 DUP3 PUSH1 0x0 PUSH1 0x1 DUP6 MLOAD PUSH2 0x951 SWAP2 SWAP1 PUSH2 0x1474 JUMP JUMPDEST PUSH2 0xB30 JUMP JUMPDEST POP SWAP1 JUMP JUMPDEST PUSH1 0x60 PUSH1 0x0 PUSH1 0x1 JUMPDEST DUP4 MLOAD DUP2 LT ISZERO PUSH2 0x9E2 JUMPI DUP4 DUP2 DUP2 MLOAD DUP2 LT PUSH2 0x97C JUMPI PUSH2 0x97C PUSH2 0x1373 JUMP JUMPDEST PUSH1 0x20 MUL PUSH1 0x20 ADD ADD MLOAD PUSH1 0x1 PUSH1 0x1 PUSH1 0xA0 SHL SUB AND DUP5 PUSH1 0x1 DUP4 PUSH2 0x99B SWAP2 SWAP1 PUSH2 0x1474 JUMP JUMPDEST DUP2 MLOAD DUP2 LT PUSH2 0x9AB JUMPI PUSH2 0x9AB PUSH2 0x1373 JUMP JUMPDEST PUSH1 0x20 MUL PUSH1 0x20 ADD ADD MLOAD PUSH1 0x1 PUSH1 0x1 PUSH1 0xA0 SHL SUB AND EQ ISZERO PUSH2 0x9D0 JUMPI DUP2 PUSH2 0x9CC DUP2 PUSH2 0x139F JUMP JUMPDEST SWAP3 POP POP JUMPDEST DUP1 PUSH2 0x9DA DUP2 PUSH2 0x139F JUMP JUMPDEST SWAP2 POP POP PUSH2 0x961 JUMP JUMPDEST POP DUP1 PUSH2 0x9EF JUMPI POP SWAP1 SWAP2 SWAP1 POP JUMP JUMPDEST PUSH1 0x0 DUP2 DUP5 MLOAD PUSH2 0x9FE SWAP2 SWAP1 PUSH2 0x1474 JUMP JUMPDEST PUSH8 0xFFFFFFFFFFFFFFFF DUP2 GT ISZERO PUSH2 0xA16 JUMPI PUSH2 0xA16 PUSH2 0xD62 JUMP JUMPDEST PUSH1 0x40 MLOAD SWAP1 DUP1 DUP3 MSTORE DUP1 PUSH1 0x20 MUL PUSH1 0x20 ADD DUP3 ADD PUSH1 0x40 MSTORE DUP1 ISZERO PUSH2 0xA3F JUMPI DUP2 PUSH1 0x20 ADD PUSH1 0x20 DUP3 MUL DUP1 CALLDATASIZE DUP4 CALLDATACOPY ADD SWAP1 POP JUMPDEST POP SWAP1 POP PUSH1 0x0 DUP1 JUMPDEST DUP6 MLOAD DUP3 LT ISZERO PUSH2 0xB26 JUMPI PUSH1 0x1 DUP7 MLOAD PUSH2 0xA5D SWAP2 SWAP1 PUSH2 0x1474 JUMP JUMPDEST DUP3 LT DUP1 ISZERO PUSH2 0xAB8 JUMPI POP DUP6 PUSH2 0xA72 DUP4 PUSH1 0x1 PUSH2 0x13BA JUMP JUMPDEST DUP2 MLOAD DUP2 LT PUSH2 0xA82 JUMPI PUSH2 0xA82 PUSH2 0x1373 JUMP JUMPDEST PUSH1 0x20 MUL PUSH1 0x20 ADD ADD MLOAD PUSH1 0x1 PUSH1 0x1 PUSH1 0xA0 SHL SUB AND DUP7 DUP4 DUP2 MLOAD DUP2 LT PUSH2 0xAA5 JUMPI PUSH2 0xAA5 PUSH2 0x1373 JUMP JUMPDEST PUSH1 0x20 MUL PUSH1 0x20 ADD ADD MLOAD PUSH1 0x1 PUSH1 0x1 PUSH1 0xA0 SHL SUB AND EQ JUMPDEST ISZERO PUSH2 0xAC2 JUMPI PUSH2 0xB14 JUMP JUMPDEST DUP6 DUP3 DUP2 MLOAD DUP2 LT PUSH2 0xAD4 JUMPI PUSH2 0xAD4 PUSH2 0x1373 JUMP JUMPDEST PUSH1 0x20 MUL PUSH1 0x20 ADD ADD MLOAD DUP4 DUP3 DUP2 MLOAD DUP2 LT PUSH2 0xAEE JUMPI PUSH2 0xAEE PUSH2 0x1373 JUMP JUMPDEST PUSH1 0x1 PUSH1 0x1 PUSH1 0xA0 SHL SUB SWAP1 SWAP3 AND PUSH1 0x20 SWAP3 DUP4 MUL SWAP2 SWAP1 SWAP2 ADD SWAP1 SWAP2 ADD MSTORE DUP1 PUSH2 0xB10 DUP2 PUSH2 0x139F JUMP JUMPDEST SWAP2 POP POP JUMPDEST DUP2 PUSH2 0xB1E DUP2 PUSH2 0x139F JUMP JUMPDEST SWAP3 POP POP PUSH2 0xA46 JUMP JUMPDEST POP SWAP1 SWAP5 SWAP4 POP POP POP POP JUMP JUMPDEST DUP2 DUP2 DUP1 DUP3 EQ ISZERO PUSH2 0xB41 JUMPI POP POP POP POP POP JUMP JUMPDEST PUSH1 0x0 DUP6 PUSH1 0x2 PUSH2 0xB50 DUP8 DUP8 PUSH2 0x148B JUMP JUMPDEST PUSH2 0xB5A SWAP2 SWAP1 PUSH2 0x14CA JUMP JUMPDEST PUSH2 0xB64 SWAP1 DUP8 PUSH2 0x1506 JUMP JUMPDEST DUP2 MLOAD DUP2 LT PUSH2 0xB74 JUMPI PUSH2 0xB74 PUSH2 0x1373 JUMP JUMPDEST PUSH1 0x20 MUL PUSH1 0x20 ADD ADD MLOAD SWAP1 POP JUMPDEST DUP2 DUP4 SGT PUSH2 0xCB2 JUMPI JUMPDEST DUP1 PUSH1 0x1 PUSH1 0x1 PUSH1 0xA0 SHL SUB AND DUP7 DUP5 DUP2 MLOAD DUP2 LT PUSH2 0xBA3 JUMPI PUSH2 0xBA3 PUSH2 0x1373 JUMP JUMPDEST PUSH1 0x20 MUL PUSH1 0x20 ADD ADD MLOAD PUSH1 0x1 PUSH1 0x1 PUSH1 0xA0 SHL SUB AND LT ISZERO PUSH2 0xBCC JUMPI DUP3 PUSH2 0xBC4 DUP2 PUSH2 0x1547 JUMP JUMPDEST SWAP4 POP POP PUSH2 0xB87 JUMP JUMPDEST DUP6 DUP3 DUP2 MLOAD DUP2 LT PUSH2 0xBDE JUMPI PUSH2 0xBDE PUSH2 0x1373 JUMP JUMPDEST PUSH1 0x20 MUL PUSH1 0x20 ADD ADD MLOAD PUSH1 0x1 PUSH1 0x1 PUSH1 0xA0 SHL SUB AND DUP2 PUSH1 0x1 PUSH1 0x1 PUSH1 0xA0 SHL SUB AND LT ISZERO PUSH2 0xC11 JUMPI DUP2 PUSH2 0xC09 DUP2 PUSH2 0x1560 JUMP JUMPDEST SWAP3 POP POP PUSH2 0xBCC JUMP JUMPDEST DUP2 DUP4 SGT PUSH2 0xCAD JUMPI DUP6 DUP3 DUP2 MLOAD DUP2 LT PUSH2 0xC2A JUMPI PUSH2 0xC2A PUSH2 0x1373 JUMP JUMPDEST PUSH1 0x20 MUL PUSH1 0x20 ADD ADD MLOAD DUP7 DUP5 DUP2 MLOAD DUP2 LT PUSH2 0xC44 JUMPI PUSH2 0xC44 PUSH2 0x1373 JUMP JUMPDEST PUSH1 0x20 MUL PUSH1 0x20 ADD ADD MLOAD DUP8 DUP6 DUP2 MLOAD DUP2 LT PUSH2 0xC5E JUMPI PUSH2 0xC5E PUSH2 0x1373 JUMP JUMPDEST PUSH1 0x20 MUL PUSH1 0x20 ADD ADD DUP9 DUP6 DUP2 MLOAD DUP2 LT PUSH2 0xC77 JUMPI PUSH2 0xC77 PUSH2 0x1373 JUMP JUMPDEST PUSH1 0x1 PUSH1 0x1 PUSH1 0xA0 SHL SUB SWAP4 DUP5 AND PUSH1 0x20 SWAP2 DUP3 MUL SWAP3 SWAP1 SWAP3 ADD ADD MSTORE SWAP2 AND SWAP1 MSTORE DUP3 PUSH2 0xC9B DUP2 PUSH2 0x1547 JUMP JUMPDEST SWAP4 POP POP DUP2 DUP1 PUSH2 0xCA9 SWAP1 PUSH2 0x1560 JUMP JUMPDEST SWAP3 POP POP JUMPDEST PUSH2 0xB7F JUMP JUMPDEST DUP2 DUP6 SLT ISZERO PUSH2 0xCC5 JUMPI PUSH2 0xCC5 DUP7 DUP7 DUP5 PUSH2 0xB30 JUMP JUMPDEST DUP4 DUP4 SLT ISZERO PUSH2 0xCD8 JUMPI PUSH2 0xCD8 DUP7 DUP5 DUP7 PUSH2 0xB30 JUMP JUMPDEST POP POP POP POP POP POP JUMP JUMPDEST PUSH1 0x5 DUP2 LT PUSH2 0xCED JUMPI PUSH1 0x0 DUP1 REVERT JUMPDEST POP JUMP JUMPDEST PUSH1 0x1 PUSH1 0x1 PUSH1 0xA0 SHL SUB DUP2 AND DUP2 EQ PUSH2 0xCED JUMPI PUSH1 0x0 DUP1 REVERT JUMPDEST PUSH1 0x0 DUP1 PUSH1 0x40 DUP4 DUP6 SUB SLT ISZERO PUSH2 0xD18 JUMPI PUSH1 0x0 DUP1 REVERT JUMPDEST DUP3 CALLDATALOAD PUSH2 0xD23 DUP2 PUSH2 0xCE0 JUMP JUMPDEST SWAP2 POP PUSH1 0x20 DUP4 ADD CALLDATALOAD PUSH2 0xD33 DUP2 PUSH2 0xCF0 JUMP JUMPDEST DUP1 SWAP2 POP POP SWAP3 POP SWAP3 SWAP1 POP JUMP JUMPDEST PUSH1 0x0 PUSH1 0x20 DUP3 DUP5 SUB SLT ISZERO PUSH2 0xD50 JUMPI PUSH1 0x0 DUP1 REVERT JUMPDEST DUP2 CALLDATALOAD PUSH2 0xD5B DUP2 PUSH2 0xCF0 JUMP JUMPDEST SWAP4 SWAP3 POP POP POP JUMP JUMPDEST PUSH4 0x4E487B71 PUSH1 0xE0 SHL PUSH1 0x0 MSTORE PUSH1 0x41 PUSH1 0x4 MSTORE PUSH1 0x24 PUSH1 0x0 REVERT JUMPDEST PUSH1 0x40 MLOAD PUSH1 0x60 DUP2 ADD PUSH8 0xFFFFFFFFFFFFFFFF DUP2 GT DUP3 DUP3 LT OR ISZERO PUSH2 0xD9B JUMPI PUSH2 0xD9B PUSH2 0xD62 JUMP JUMPDEST PUSH1 0x40 MSTORE SWAP1 JUMP JUMPDEST PUSH1 0x40 MLOAD PUSH2 0x120 DUP2 ADD PUSH8 0xFFFFFFFFFFFFFFFF DUP2 GT DUP3 DUP3 LT OR ISZERO PUSH2 0xD9B JUMPI PUSH2 0xD9B PUSH2 0xD62 JUMP JUMPDEST PUSH1 0x40 MLOAD PUSH1 0x1F DUP3 ADD PUSH1 0x1F NOT AND DUP2 ADD PUSH8 0xFFFFFFFFFFFFFFFF DUP2 GT DUP3 DUP3 LT OR ISZERO PUSH2 0xDEE JUMPI PUSH2 0xDEE PUSH2 0xD62 JUMP JUMPDEST PUSH1 0x40 MSTORE SWAP2 SWAP1 POP JUMP JUMPDEST PUSH1 0x0 PUSH8 0xFFFFFFFFFFFFFFFF DUP3 GT ISZERO PUSH2 0xE10 JUMPI PUSH2 0xE10 PUSH2 0xD62 JUMP JUMPDEST POP PUSH1 0x5 SHL PUSH1 0x20 ADD SWAP1 JUMP JUMPDEST DUP1 CALLDATALOAD PUSH2 0xE25 DUP2 PUSH2 0xCF0 JUMP JUMPDEST SWAP2 SWAP1 POP JUMP JUMPDEST DUP1 CALLDATALOAD PUSH1 0xFF DUP2 AND DUP2 EQ PUSH2 0xE25 JUMPI PUSH1 0x0 DUP1 REVERT JUMPDEST PUSH1 0x0 PUSH1 0x80 DUP3 DUP5 SUB SLT ISZERO PUSH2 0xE4D JUMPI PUSH1 0x0 DUP1 REVERT JUMPDEST PUSH1 0x40 MLOAD PUSH1 0x80 DUP2 ADD DUP2 DUP2 LT PUSH8 0xFFFFFFFFFFFFFFFF DUP3 GT OR ISZERO PUSH2 0xE70 JUMPI PUSH2 0xE70 PUSH2 0xD62 JUMP JUMPDEST DUP1 PUSH1 0x40 MSTORE POP DUP1 SWAP2 POP DUP3 CALLDATALOAD DUP2 MSTORE PUSH1 0x20 DUP4 ADD CALLDATALOAD PUSH1 0x20 DUP3 ADD MSTORE PUSH1 0x40 DUP4 ADD CALLDATALOAD PUSH1 0x40 DUP3 ADD MSTORE PUSH1 0x60 DUP4 ADD CALLDATALOAD PUSH1 0x60 DUP3 ADD MSTORE POP SWAP3 SWAP2 POP POP JUMP JUMPDEST PUSH1 0x0 DUP3 PUSH1 0x1F DUP4 ADD SLT PUSH2 0xEB2 JUMPI PUSH1 0x0 DUP1 REVERT JUMPDEST DUP2 CALLDATALOAD PUSH1 0x20 PUSH2 0xEC7 PUSH2 0xEC2 DUP4 PUSH2 0xDF6 JUMP JUMPDEST PUSH2 0xDC5 JUMP JUMPDEST DUP3 DUP2 MSTORE PUSH1 0x60 SWAP3 DUP4 MUL DUP6 ADD DUP3 ADD SWAP3 DUP3 DUP3 ADD SWAP2 SWAP1 DUP8 DUP6 GT ISZERO PUSH2 0xEE6 JUMPI PUSH1 0x0 DUP1 REVERT JUMPDEST DUP4 DUP8 ADD JUMPDEST DUP6 DUP2 LT ISZERO PUSH2 0xF45 JUMPI DUP2 DUP2 DUP11 SUB SLT ISZERO PUSH2 0xF02 JUMPI PUSH1 0x0 DUP1 DUP2 REVERT JUMPDEST PUSH2 0xF0A PUSH2 0xD78 JUMP JUMPDEST DUP2 CALLDATALOAD PUSH2 0xF15 DUP2 PUSH2 0xCF0 JUMP JUMPDEST DUP2 MSTORE DUP2 DUP7 ADD CALLDATALOAD DUP1 ISZERO ISZERO DUP2 EQ PUSH2 0xF2A JUMPI PUSH1 0x0 DUP1 DUP2 REVERT JUMPDEST DUP2 DUP8 ADD MSTORE PUSH1 0x40 DUP3 DUP2 ADD CALLDATALOAD SWAP1 DUP3 ADD MSTORE DUP5 MSTORE SWAP3 DUP5 ADD SWAP3 DUP2 ADD PUSH2 0xEEA JUMP JUMPDEST POP SWAP1 SWAP8 SWAP7 POP POP POP POP POP POP POP JUMP JUMPDEST PUSH1 0x0 PUSH1 0x20 DUP1 DUP4 DUP6 SUB SLT ISZERO PUSH2 0xF65 JUMPI PUSH1 0x0 DUP1 REVERT JUMPDEST DUP3 CALLDATALOAD PUSH8 0xFFFFFFFFFFFFFFFF DUP1 DUP3 GT ISZERO PUSH2 0xF7D JUMPI PUSH1 0x0 DUP1 REVERT JUMPDEST DUP2 DUP6 ADD SWAP2 POP DUP6 PUSH1 0x1F DUP4 ADD SLT PUSH2 0xF91 JUMPI PUSH1 0x0 DUP1 REVERT JUMPDEST DUP2 CALLDATALOAD PUSH2 0xF9F PUSH2 0xEC2 DUP3 PUSH2 0xDF6 JUMP JUMPDEST DUP2 DUP2 MSTORE PUSH1 0x5 SWAP2 SWAP1 SWAP2 SHL DUP4 ADD DUP5 ADD SWAP1 DUP5 DUP2 ADD SWAP1 DUP9 DUP4 GT ISZERO PUSH2 0xFBE JUMPI PUSH1 0x0 DUP1 REVERT JUMPDEST DUP6 DUP6 ADD JUMPDEST DUP4 DUP2 LT ISZERO PUSH2 0x10A2 JUMPI DUP1 CALLDATALOAD DUP6 DUP2 GT ISZERO PUSH2 0xFDA JUMPI PUSH1 0x0 DUP1 DUP2 REVERT JUMPDEST DUP7 ADD PUSH2 0x180 DUP2 DUP13 SUB PUSH1 0x1F NOT ADD DUP2 SGT ISZERO PUSH2 0xFF3 JUMPI PUSH1 0x0 DUP1 DUP2 REVERT JUMPDEST PUSH2 0xFFB PUSH2 0xDA1 JUMP JUMPDEST PUSH2 0x1006 DUP11 DUP5 ADD PUSH2 0xE1A JUMP JUMPDEST DUP2 MSTORE PUSH1 0x40 PUSH2 0x1015 DUP2 DUP6 ADD PUSH2 0xE2A JUMP JUMPDEST DUP12 DUP4 ADD MSTORE PUSH1 0x60 PUSH2 0x1026 DUP2 DUP7 ADD PUSH2 0xE1A JUMP JUMPDEST DUP3 DUP5 ADD MSTORE PUSH1 0x80 SWAP2 POP DUP2 DUP6 ADD CALLDATALOAD DUP2 DUP5 ADD MSTORE POP PUSH1 0xA0 PUSH2 0x1045 DUP16 DUP3 DUP8 ADD PUSH2 0xE3B JUMP JUMPDEST DUP3 DUP5 ADD MSTORE PUSH2 0x120 DUP6 ADD CALLDATALOAD DUP2 DUP5 ADD MSTORE POP POP PUSH2 0x140 DUP4 ADD CALLDATALOAD PUSH1 0xC0 DUP3 ADD MSTORE PUSH2 0x160 DUP4 ADD CALLDATALOAD PUSH1 0xE0 DUP3 ADD MSTORE DUP2 DUP4 ADD CALLDATALOAD SWAP2 POP DUP8 DUP3 GT ISZERO PUSH2 0x107F JUMPI PUSH1 0x0 DUP1 DUP2 REVERT JUMPDEST PUSH2 0x108D DUP14 DUP12 DUP5 DUP7 ADD ADD PUSH2 0xEA1 JUMP JUMPDEST PUSH2 0x100 DUP3 ADD MSTORE DUP6 MSTORE POP POP SWAP2 DUP7 ADD SWAP2 DUP7 ADD PUSH2 0xFC2 JUMP JUMPDEST POP SWAP9 SWAP8 POP POP POP POP POP POP POP POP JUMP JUMPDEST PUSH1 0x0 DUP2 MLOAD DUP1 DUP5 MSTORE PUSH1 0x20 DUP1 DUP6 ADD SWAP5 POP DUP1 DUP5 ADD PUSH1 0x0 JUMPDEST DUP4 DUP2 LT ISZERO PUSH2 0x1102 JUMPI DUP2 MLOAD DUP1 MLOAD PUSH1 0x1 PUSH1 0x1 PUSH1 0xA0 SHL SUB AND DUP9 MSTORE PUSH1 0x20 DUP1 DUP3 ADD MLOAD ISZERO ISZERO SWAP1 DUP10 ADD MSTORE PUSH1 0x40 SWAP1 DUP2 ADD MLOAD SWAP1 DUP9 ADD MSTORE PUSH1 0x60 DUP8 ADD SWAP7 POP SWAP1 DUP3 ADD SWAP1 PUSH1 0x1 ADD PUSH2 0x10C3 JUMP JUMPDEST POP SWAP5 SWAP6 SWAP5 POP POP POP POP POP JUMP JUMPDEST PUSH1 0x0 PUSH1 0x20 DUP1 DUP4 ADD DUP2 DUP5 MSTORE DUP1 DUP6 MLOAD DUP1 DUP4 MSTORE PUSH1 0x40 SWAP3 POP DUP3 DUP7 ADD SWAP2 POP DUP3 DUP2 PUSH1 0x5 SHL DUP8 ADD ADD DUP5 DUP9 ADD PUSH1 0x0 JUMPDEST DUP4 DUP2 LT ISZERO PUSH2 0x11FF JUMPI DUP9 DUP4 SUB PUSH1 0x3F NOT ADD DUP6 MSTORE DUP2 MLOAD DUP1 MLOAD PUSH1 0x1 PUSH1 0x1 PUSH1 0xA0 SHL SUB AND DUP5 MSTORE PUSH2 0x180 DUP2 DUP10 ADD MLOAD PUSH1 0xFF DUP2 AND DUP7 DUP12 ADD MSTORE POP DUP2 DUP9 ADD MLOAD PUSH1 0x1 PUSH1 0x1 PUSH1 0xA0 SHL SUB DUP2 AND DUP7 DUP11 ADD MSTORE POP PUSH1 0x60 DUP3 DUP2 ADD MLOAD DUP7 DUP3 ADD MSTORE PUSH1 0x80 DUP1 DUP5 ADD MLOAD DUP1 MLOAD DUP3 DUP10 ADD MSTORE PUSH1 0x20 DUP2 ADD MLOAD PUSH1 0xA0 DUP10 ADD MSTORE PUSH1 0x40 DUP2 ADD MLOAD PUSH1 0xC0 DUP10 ADD MSTORE SWAP2 DUP3 ADD MLOAD PUSH1 0xE0 DUP9 ADD MSTORE SWAP1 POP POP PUSH1 0xA0 DUP3 ADD MLOAD PUSH2 0x100 DUP2 DUP2 DUP9 ADD MSTORE PUSH1 0xC0 DUP5 ADD MLOAD PUSH2 0x120 DUP9 ADD MSTORE PUSH1 0xE0 DUP5 ADD MLOAD PUSH2 0x140 DUP9 ADD MSTORE DUP1 DUP5 ADD MLOAD SWAP4 POP POP POP DUP1 PUSH2 0x160 DUP7 ADD MSTORE PUSH2 0x11EB DUP2 DUP7 ADD DUP4 PUSH2 0x10AF JUMP JUMPDEST SWAP7 DUP10 ADD SWAP7 SWAP5 POP POP POP SWAP1 DUP7 ADD SWAP1 PUSH1 0x1 ADD PUSH2 0x1134 JUMP JUMPDEST POP SWAP1 SWAP9 SWAP8 POP POP POP POP POP POP POP POP JUMP JUMPDEST PUSH1 0x0 PUSH1 0x20 DUP3 DUP5 SUB SLT ISZERO PUSH2 0x121F JUMPI PUSH1 0x0 DUP1 REVERT JUMPDEST DUP2 CALLDATALOAD PUSH2 0xD5B DUP2 PUSH2 0xCE0 JUMP JUMPDEST PUSH1 0x0 PUSH1 0x20 DUP1 DUP4 MSTORE DUP4 MLOAD DUP1 DUP3 DUP6 ADD MSTORE PUSH1 0x0 JUMPDEST DUP2 DUP2 LT ISZERO PUSH2 0x1257 JUMPI DUP6 DUP2 ADD DUP4 ADD MLOAD DUP6 DUP3 ADD PUSH1 0x40 ADD MSTORE DUP3 ADD PUSH2 0x123B JUMP JUMPDEST DUP2 DUP2 GT ISZERO PUSH2 0x1269 JUMPI PUSH1 0x0 PUSH1 0x40 DUP4 DUP8 ADD ADD MSTORE JUMPDEST POP PUSH1 0x1F ADD PUSH1 0x1F NOT AND SWAP3 SWAP1 SWAP3 ADD PUSH1 0x40 ADD SWAP4 SWAP3 POP POP POP JUMP JUMPDEST PUSH4 0x4E487B71 PUSH1 0xE0 SHL PUSH1 0x0 MSTORE PUSH1 0x21 PUSH1 0x4 MSTORE PUSH1 0x24 PUSH1 0x0 REVERT JUMPDEST PUSH1 0x20 DUP1 DUP3 MSTORE DUP3 MLOAD DUP3 DUP3 ADD DUP2 SWAP1 MSTORE PUSH1 0x0 SWAP2 SWAP1 DUP5 DUP3 ADD SWAP1 PUSH1 0x40 DUP6 ADD SWAP1 DUP5 JUMPDEST DUP2 DUP2 LT ISZERO PUSH2 0x12D6 JUMPI DUP4 MLOAD PUSH1 0x1 PUSH1 0x1 PUSH1 0xA0 SHL SUB AND DUP4 MSTORE SWAP3 DUP5 ADD SWAP3 SWAP2 DUP5 ADD SWAP2 PUSH1 0x1 ADD PUSH2 0x12B1 JUMP JUMPDEST POP SWAP1 SWAP7 SWAP6 POP POP POP POP POP POP JUMP JUMPDEST PUSH1 0x0 PUSH1 0x20 DUP1 DUP4 DUP6 SUB SLT ISZERO PUSH2 0x12F5 JUMPI PUSH1 0x0 DUP1 REVERT JUMPDEST DUP3 MLOAD PUSH8 0xFFFFFFFFFFFFFFFF DUP2 GT ISZERO PUSH2 0x130C JUMPI PUSH1 0x0 DUP1 REVERT JUMPDEST DUP4 ADD PUSH1 0x1F DUP2 ADD DUP6 SGT PUSH2 0x131D JUMPI PUSH1 0x0 DUP1 REVERT JUMPDEST DUP1 MLOAD PUSH2 0x132B PUSH2 0xEC2 DUP3 PUSH2 0xDF6 JUMP JUMPDEST DUP2 DUP2 MSTORE PUSH1 0x5 SWAP2 SWAP1 SWAP2 SHL DUP3 ADD DUP4 ADD SWAP1 DUP4 DUP2 ADD SWAP1 DUP8 DUP4 GT ISZERO PUSH2 0x134A JUMPI PUSH1 0x0 DUP1 REVERT JUMPDEST SWAP3 DUP5 ADD SWAP3 JUMPDEST DUP3 DUP5 LT ISZERO PUSH2 0x1368 JUMPI DUP4 MLOAD DUP3 MSTORE SWAP3 DUP5 ADD SWAP3 SWAP1 DUP5 ADD SWAP1 PUSH2 0x134F JUMP JUMPDEST SWAP8 SWAP7 POP POP POP POP POP POP POP JUMP JUMPDEST PUSH4 0x4E487B71 PUSH1 0xE0 SHL PUSH1 0x0 MSTORE PUSH1 0x32 PUSH1 0x4 MSTORE PUSH1 0x24 PUSH1 0x0 REVERT JUMPDEST PUSH4 0x4E487B71 PUSH1 0xE0 SHL PUSH1 0x0 MSTORE PUSH1 0x11 PUSH1 0x4 MSTORE PUSH1 0x24 PUSH1 0x0 REVERT JUMPDEST PUSH1 0x0 PUSH1 0x0 NOT DUP3 EQ ISZERO PUSH2 0x13B3 JUMPI PUSH2 0x13B3 PUSH2 0x1389 JUMP JUMPDEST POP PUSH1 0x1 ADD SWAP1 JUMP JUMPDEST PUSH1 0x0 DUP3 NOT DUP3 GT ISZERO PUSH2 0x13CD JUMPI PUSH2 0x13CD PUSH2 0x1389 JUMP JUMPDEST POP ADD SWAP1 JUMP JUMPDEST PUSH1 0x0 PUSH1 0x20 DUP3 DUP5 SUB SLT ISZERO PUSH2 0x13E4 JUMPI PUSH1 0x0 DUP1 REVERT JUMPDEST DUP2 MLOAD PUSH2 0xD5B DUP2 PUSH2 0xCE0 JUMP JUMPDEST PUSH1 0x1 PUSH1 0x1 PUSH1 0xA0 SHL SUB DUP4 AND DUP2 MSTORE PUSH1 0x40 PUSH1 0x20 DUP1 DUP4 ADD DUP3 SWAP1 MSTORE DUP4 MLOAD SWAP2 DUP4 ADD DUP3 SWAP1 MSTORE PUSH1 0x0 SWAP2 DUP5 DUP3 ADD SWAP2 SWAP1 PUSH1 0x60 DUP6 ADD SWAP1 DUP5 JUMPDEST DUP2 DUP2 LT ISZERO PUSH2 0xF45 JUMPI DUP5 MLOAD DUP1 MLOAD PUSH1 0x1 PUSH1 0x1 PUSH1 0xA0 SHL SUB AND DUP5 MSTORE PUSH1 0x20 DUP1 DUP3 ADD MLOAD ISZERO ISZERO SWAP1 DUP6 ADD MSTORE PUSH1 0x40 SWAP1 DUP2 ADD MLOAD SWAP1 DUP5 ADD MSTORE PUSH1 0x60 DUP4 ADD SWAP5 DUP5 ADD SWAP5 SWAP3 POP PUSH1 0x1 ADD PUSH2 0x141C JUMP JUMPDEST PUSH1 0x0 PUSH1 0x20 DUP3 DUP5 SUB SLT ISZERO PUSH2 0x146D JUMPI PUSH1 0x0 DUP1 REVERT JUMPDEST POP MLOAD SWAP2 SWAP1 POP JUMP JUMPDEST PUSH1 0x0 DUP3 DUP3 LT ISZERO PUSH2 0x1486 JUMPI PUSH2 0x1486 PUSH2 0x1389 JUMP JUMPDEST POP SUB SWAP1 JUMP JUMPDEST PUSH1 0x0 DUP1 DUP4 SLT DUP1 ISZERO PUSH1 0x1 PUSH1 0xFF SHL DUP6 ADD DUP5 SLT AND ISZERO PUSH2 0x14A9 JUMPI PUSH2 0x14A9 PUSH2 0x1389 JUMP JUMPDEST PUSH1 0x1 PUSH1 0x1 PUSH1 0xFF SHL SUB DUP5 ADD DUP4 SGT DUP2 AND ISZERO PUSH2 0x14C4 JUMPI PUSH2 0x14C4 PUSH2 0x1389 JUMP JUMPDEST POP POP SUB SWAP1 JUMP JUMPDEST PUSH1 0x0 DUP3 PUSH2 0x14E7 JUMPI PUSH4 0x4E487B71 PUSH1 0xE0 SHL PUSH1 0x0 MSTORE PUSH1 0x12 PUSH1 0x4 MSTORE PUSH1 0x24 PUSH1 0x0 REVERT JUMPDEST PUSH1 0x1 PUSH1 0xFF SHL DUP3 EQ PUSH1 0x0 NOT DUP5 EQ AND ISZERO PUSH2 0x1501 JUMPI PUSH2 0x1501 PUSH2 0x1389 JUMP JUMPDEST POP SDIV SWAP1 JUMP JUMPDEST PUSH1 0x0 DUP1 DUP3 SLT DUP1 ISZERO PUSH1 0x1 PUSH1 0x1 PUSH1 0xFF SHL SUB DUP5 SWAP1 SUB DUP6 SGT AND ISZERO PUSH2 0x1528 JUMPI PUSH2 0x1528 PUSH2 0x1389 JUMP JUMPDEST PUSH1 0x1 PUSH1 0xFF SHL DUP4 SWAP1 SUB DUP5 SLT DUP2 AND ISZERO PUSH2 0x1541 JUMPI PUSH2 0x1541 PUSH2 0x1389 JUMP JUMPDEST POP POP ADD SWAP1 JUMP JUMPDEST PUSH1 0x0 PUSH1 0x1 PUSH1 0x1 PUSH1 0xFF SHL SUB DUP3 EQ ISZERO PUSH2 0x13B3 JUMPI PUSH2 0x13B3 PUSH2 0x1389 JUMP JUMPDEST PUSH1 0x0 PUSH1 0x1 PUSH1 0xFF SHL DUP3 EQ ISZERO PUSH2 0x1576 JUMPI PUSH2 0x1576 PUSH2 0x1389 JUMP JUMPDEST POP PUSH1 0x0 NOT ADD SWAP1 JUMP INVALID LOG2 PUSH5 0x6970667358 0x22 SLT KECCAK256 0xE3 0xBB NUMBER 0xE3 DUP6 EXTCODEHASH REVERT 0x28 BASEFEE 0x4E DUP15 0xF7 0xD1 INVALID JUMPI SDIV ADD 0xE3 PUSH3 0x322B7E 0xDA 0x29 CREATE 0xB3 SWAP12 0xEF DUP4 SELFBALANCE 0xB2 DUP7 PUSH5 0x736F6C6343 STOP ADDMOD EXP STOP CALLER ","sha1":"283564c38800ca0d8b492d868aa8ca7244a39176","source":"// SPDX-License-Identifier: LicenseRef-Gyro-1.0\n// for information on licensing please see the README in the GitHub repository <https://github.com/gyrostable/core-protocol>.\npragma solidity ^0.8.4;\n\nimport \"../auth/Governable.sol\";\n\nimport \"../../libraries/DataTypes.sol\";\nimport \"../../libraries/Arrays.sol\";\nimport \"../../libraries/Vaults.sol\";\n\nimport \"../../interfaces/oracles/IUSDBatchPriceOracle.sol\";\nimport \"../../interfaces/oracles/IVaultPriceOracle.sol\";\nimport \"../../interfaces/oracles/IBatchVaultPriceOracle.sol\";\n\ncontract BatchVaultPriceOracle is IBatchVaultPriceOracle, Governable {\n    using Arrays for address[];\n\n    IUSDBatchPriceOracle public batchPriceOracle;\n\n    mapping(Vaults.Type => IVaultPriceOracle) public vaultPriceOracles;\n\n    constructor(address _governor, IUSDBatchPriceOracle _batchPriceOracle) Governable(_governor) {\n        require(address(_batchPriceOracle) != address(0), Errors.INVALID_ARGUMENT);\n        batchPriceOracle = _batchPriceOracle;\n    }\n\n    function setBatchPriceOracle(IUSDBatchPriceOracle priceOracle) external governanceOnly {\n        batchPriceOracle = priceOracle;\n        emit BatchPriceOracleChanged(address(priceOracle));\n    }\n\n    function registerVaultPriceOracle(Vaults.Type vaultType, IVaultPriceOracle priceOracle)\n        external\n        governanceOnly\n    {\n        vaultPriceOracles[vaultType] = priceOracle;\n        emit VaultPriceOracleChanged(vaultType, address(priceOracle));\n    }\n\n    function fetchPricesUSD(DataTypes.VaultInfo[] memory vaultsInfo)\n        external\n        view\n        returns (DataTypes.VaultInfo[] memory)\n    {\n        address[] memory tokens = _constructTokensArray(vaultsInfo);\n        uint256[] memory underlyingPrices = batchPriceOracle.getPricesUSD(tokens);\n\n        for (uint256 i = 0; i < vaultsInfo.length; i++) {\n            _assignUnderlyingTokenPrices(vaultsInfo[i], tokens, underlyingPrices);\n            vaultsInfo[i].price = _getVaultPrice(vaultsInfo[i]);\n        }\n\n        return vaultsInfo;\n    }\n\n    function _getVaultPrice(DataTypes.VaultInfo memory vaultInfo) internal view returns (uint256) {\n        IGyroVault vault = IGyroVault(vaultInfo.vault);\n        IVaultPriceOracle vaultPriceOracle = vaultPriceOracles[vault.vaultType()];\n        require(address(vaultPriceOracle) != address(0), Errors.ASSET_NOT_SUPPORTED);\n        return vaultPriceOracle.getPriceUSD(vault, vaultInfo.pricedTokens);\n    }\n\n    function _assignUnderlyingTokenPrices(\n        DataTypes.VaultInfo memory vaultInfo,\n        address[] memory tokens,\n        uint256[] memory underlyingPrices\n    ) internal pure {\n        for ((uint256 i, uint256 j) = (0, 0); i < vaultInfo.pricedTokens.length; i++) {\n            while (tokens[j] != vaultInfo.pricedTokens[i].tokenAddress) j++;\n            vaultInfo.pricedTokens[i].price = underlyingPrices[j];\n        }\n    }\n\n    function _constructTokensArray(DataTypes.VaultInfo[] memory vaultsInfo)\n        internal\n        view\n        returns (address[] memory)\n    {\n        uint256 tokensCount = 0;\n        for (uint256 i = 0; i < vaultsInfo.length; i++) {\n            tokensCount += vaultsInfo[i].pricedTokens.length;\n        }\n        address[] memory tokens = new address[](tokensCount);\n        for ((uint256 i, uint256 k) = (0, 0); i < vaultsInfo.length; i++) {\n            for (uint256 j = 0; j < vaultsInfo[i].pricedTokens.length; (j++, k++)) {\n                tokens[k] = vaultsInfo[i].pricedTokens[j].tokenAddress;\n            }\n        }\n        return tokens.sort().dedup();\n    }\n}\n","sourcePath":"contracts/oracles/BatchVaultPriceOracle.sol","type":"contract","deployment":{"address":"0x747D79d4697AB8D07fcE7d145b8c5A4881094978","chainid":"137","blockHeight":36345052}}