{"abi":[{"inputs":[{"internalType":"address","name":"_governor","type":"address"},{"internalType":"uint256","name":"_maxAllowedVaultDeviation","type":"uint256"},{"internalType":"uint256","name":"_stablecoinMaxDeviation","type":"uint256"},{"internalType":"uint256","name":"_minTokenPrice","type":"uint256"}],"stateMutability":"nonpayable","type":"constructor","name":"constructor"},{"anonymous":false,"inputs":[{"indexed":false,"internalType":"address","name":"newGovernor","type":"address"}],"name":"GovernorChangeRequested","type":"event"},{"anonymous":false,"inputs":[{"indexed":false,"internalType":"address","name":"oldGovernor","type":"address"},{"indexed":false,"internalType":"address","name":"newGovernor","type":"address"}],"name":"GovernorChanged","type":"event"},{"inputs":[],"name":"STABLECOIN_IDEAL_PRICE","outputs":[{"internalType":"uint256","name":"","type":"uint256"}],"stateMutability":"view","type":"function"},{"inputs":[],"name":"acceptGovernance","outputs":[],"stateMutability":"nonpayable","type":"function"},{"inputs":[{"internalType":"address","name":"newGovernor","type":"address"}],"name":"changeGovernor","outputs":[],"stateMutability":"nonpayable","type":"function"},{"inputs":[{"components":[{"components":[{"components":[{"internalType":"address","name":"vault","type":"address"},{"internalType":"uint8","name":"decimals","type":"uint8"},{"internalType":"address","name":"underlying","type":"address"},{"internalType":"uint256","name":"price","type":"uint256"},{"components":[{"internalType":"uint256","name":"initialPrice","type":"uint256"},{"internalType":"uint256","name":"initialWeight","type":"uint256"},{"internalType":"uint256","name":"shortFlowMemory","type":"uint256"},{"internalType":"uint256","name":"shortFlowThreshold","type":"uint256"}],"internalType":"struct DataTypes.PersistedVaultMetadata","name":"persistedMetadata","type":"tuple"},{"internalType":"uint256","name":"reserveBalance","type":"uint256"},{"internalType":"uint256","name":"currentWeight","type":"uint256"},{"internalType":"uint256","name":"idealWeight","type":"uint256"},{"components":[{"internalType":"address","name":"tokenAddress","type":"address"},{"internalType":"bool","name":"isStable","type":"bool"},{"internalType":"uint256","name":"price","type":"uint256"}],"internalType":"struct DataTypes.PricedToken[]","name":"pricedTokens","type":"tuple[]"}],"internalType":"struct DataTypes.VaultInfo","name":"vaultInfo","type":"tuple"},{"internalType":"uint256","name":"amount","type":"uint256"}],"internalType":"struct DataTypes.VaultWithAmount[]","name":"vaultsWithAmount","type":"tuple[]"},{"internalType":"bool","name":"mint","type":"bool"}],"internalType":"struct DataTypes.Order","name":"order","type":"tuple"}],"name":"checkAndPersistMint","outputs":[],"stateMutability":"view","type":"function"},{"inputs":[{"components":[{"components":[{"components":[{"internalType":"address","name":"vault","type":"address"},{"internalType":"uint8","name":"decimals","type":"uint8"},{"internalType":"address","name":"underlying","type":"address"},{"internalType":"uint256","name":"price","type":"uint256"},{"components":[{"internalType":"uint256","name":"initialPrice","type":"uint256"},{"internalType":"uint256","name":"initialWeight","type":"uint256"},{"internalType":"uint256","name":"shortFlowMemory","type":"uint256"},{"internalType":"uint256","name":"shortFlowThreshold","type":"uint256"}],"internalType":"struct DataTypes.PersistedVaultMetadata","name":"persistedMetadata","type":"tuple"},{"internalType":"uint256","name":"reserveBalance","type":"uint256"},{"internalType":"uint256","name":"currentWeight","type":"uint256"},{"internalType":"uint256","name":"idealWeight","type":"uint256"},{"components":[{"internalType":"address","name":"tokenAddress","type":"address"},{"internalType":"bool","name":"isStable","type":"bool"},{"internalType":"uint256","name":"price","type":"uint256"}],"internalType":"struct DataTypes.PricedToken[]","name":"pricedTokens","type":"tuple[]"}],"internalType":"struct DataTypes.VaultInfo","name":"vaultInfo","type":"tuple"},{"internalType":"uint256","name":"amount","type":"uint256"}],"internalType":"struct DataTypes.VaultWithAmount[]","name":"vaultsWithAmount","type":"tuple[]"},{"internalType":"bool","name":"mint","type":"bool"}],"internalType":"struct DataTypes.Order","name":"order","type":"tuple"}],"name":"checkAndPersistRedeem","outputs":[],"stateMutability":"view","type":"function"},{"inputs":[],"name":"governor","outputs":[{"internalType":"address","name":"","type":"address"}],"stateMutability":"view","type":"function"},{"inputs":[{"components":[{"components":[{"components":[{"internalType":"address","name":"vault","type":"address"},{"internalType":"uint8","name":"decimals","type":"uint8"},{"internalType":"address","name":"underlying","type":"address"},{"internalType":"uint256","name":"price","type":"uint256"},{"components":[{"internalType":"uint256","name":"initialPrice","type":"uint256"},{"internalType":"uint256","name":"initialWeight","type":"uint256"},{"internalType":"uint256","name":"shortFlowMemory","type":"uint256"},{"internalType":"uint256","name":"shortFlowThreshold","type":"uint256"}],"internalType":"struct DataTypes.PersistedVaultMetadata","name":"persistedMetadata","type":"tuple"},{"internalType":"uint256","name":"reserveBalance","type":"uint256"},{"internalType":"uint256","name":"currentWeight","type":"uint256"},{"internalType":"uint256","name":"idealWeight","type":"uint256"},{"components":[{"internalType":"address","name":"tokenAddress","type":"address"},{"internalType":"bool","name":"isStable","type":"bool"},{"internalType":"uint256","name":"price","type":"uint256"}],"internalType":"struct DataTypes.PricedToken[]","name":"pricedTokens","type":"tuple[]"}],"internalType":"struct DataTypes.VaultInfo","name":"vaultInfo","type":"tuple"},{"internalType":"uint256","name":"amount","type":"uint256"}],"internalType":"struct DataTypes.VaultWithAmount[]","name":"vaultsWithAmount","type":"tuple[]"},{"internalType":"bool","name":"mint","type":"bool"}],"internalType":"struct DataTypes.Order","name":"order","type":"tuple"}],"name":"isMintSafe","outputs":[{"internalType":"string","name":"","type":"string"}],"stateMutability":"view","type":"function"},{"inputs":[{"components":[{"components":[{"components":[{"internalType":"address","name":"vault","type":"address"},{"internalType":"uint8","name":"decimals","type":"uint8"},{"internalType":"address","name":"underlying","type":"address"},{"internalType":"uint256","name":"price","type":"uint256"},{"components":[{"internalType":"uint256","name":"initialPrice","type":"uint256"},{"internalType":"uint256","name":"initialWeight","type":"uint256"},{"internalType":"uint256","name":"shortFlowMemory","type":"uint256"},{"internalType":"uint256","name":"shortFlowThreshold","type":"uint256"}],"internalType":"struct DataTypes.PersistedVaultMetadata","name":"persistedMetadata","type":"tuple"},{"internalType":"uint256","name":"reserveBalance","type":"uint256"},{"internalType":"uint256","name":"currentWeight","type":"uint256"},{"internalType":"uint256","name":"idealWeight","type":"uint256"},{"components":[{"internalType":"address","name":"tokenAddress","type":"address"},{"internalType":"bool","name":"isStable","type":"bool"},{"internalType":"uint256","name":"price","type":"uint256"}],"internalType":"struct DataTypes.PricedToken[]","name":"pricedTokens","type":"tuple[]"}],"internalType":"struct DataTypes.VaultInfo","name":"vaultInfo","type":"tuple"},{"internalType":"uint256","name":"amount","type":"uint256"}],"internalType":"struct DataTypes.VaultWithAmount[]","name":"vaultsWithAmount","type":"tuple[]"},{"internalType":"bool","name":"mint","type":"bool"}],"internalType":"struct DataTypes.Order","name":"order","type":"tuple"}],"name":"isRedeemSafe","outputs":[{"internalType":"string","name":"","type":"string"}],"stateMutability":"view","type":"function"},{"inputs":[],"name":"maxAllowedVaultDeviation","outputs":[{"internalType":"uint256","name":"","type":"uint256"}],"stateMutability":"view","type":"function"},{"inputs":[],"name":"minTokenPrice","outputs":[{"internalType":"uint256","name":"","type":"uint256"}],"stateMutability":"view","type":"function"},{"inputs":[],"name":"pendingGovernor","outputs":[{"internalType":"address","name":"","type":"address"}],"stateMutability":"view","type":"function"},{"inputs":[{"internalType":"uint256","name":"_minTokenPrice","type":"uint256"}],"name":"setMinTokenPrice","outputs":[],"stateMutability":"nonpayable","type":"function"},{"inputs":[{"internalType":"uint256","name":"_stablecoinMaxDeviation","type":"uint256"}],"name":"setStablecoinMaxDeviation","outputs":[],"stateMutability":"nonpayable","type":"function"},{"inputs":[{"internalType":"uint256","name":"_maxAllowedVaultDeviation","type":"uint256"}],"name":"setVaultMaxDeviation","outputs":[],"stateMutability":"nonpayable","type":"function"},{"inputs":[],"name":"stablecoinMaxDeviation","outputs":[{"internalType":"uint256","name":"","type":"uint256"}],"stateMutability":"view","type":"function"}],"bytecode":"608060405234801561001057600080fd5b5060405161195438038061195483398101604081905261002f9161009b565b600080546001600160a01b0319166001600160a01b038616908117825560408051928352602083019190915285917fde4b3f61490b74c0ed6237523974fe299126bbbf8a8a7482fd220104c59b0c84910160405180910390a150600292909255600355600455506100e6565b600080600080608085870312156100b157600080fd5b84516001600160a01b03811681146100c857600080fd5b60208601516040870151606090970151919890975090945092505050565b61185f806100f56000396000f3fe608060405234801561001057600080fd5b50600436106100f55760003560e01c8063bcbef65011610097578063d625436c11610066578063d625436c146101d8578063e2cc8679146101eb578063e3056a34146101fe578063e4c0aaf41461021157600080fd5b8063bcbef65014610196578063bd162bdd146101a9578063c203c831146101bc578063d0261544146101c557600080fd5b80635dabb20e116100d35780635dabb20e1461014b5780636382b29614610154578063888ad11214610174578063a07638201461018357600080fd5b80630c340a24146100fa57806314df3dd81461012a578063238efcbc14610141575b600080fd5b60005461010d906001600160a01b031681565b6040516001600160a01b0390911681526020015b60405180910390f35b61013360035481565b604051908152602001610121565b610149610224565b005b61013360045481565b6101676101623660046113e7565b6102dd565b60405161012191906115d3565b610133670de0b6b3a764000081565b6101496101913660046113e7565b6103a1565b6101496101a4366004611628565b6103d7565b6101496101b7366004611628565b610422565b61013360025481565b6101496101d3366004611628565b61046d565b6101496101e63660046113e7565b6104b8565b6101676101f93660046113e7565b6104bf565b60015461010d906001600160a01b031681565b61014961021f366004611641565b610582565b600154604080518082019091526002815261033360f41b6020820152906001600160a01b031633146102725760405162461bcd60e51b815260040161026991906115d3565b60405180910390fd5b5060008054600180546001600160a01b03198084166001600160a01b03808416919091179095551690556040805192909116808352336020840152917fde4b3f61490b74c0ed6237523974fe299126bbbf8a8a7482fd220104c59b0c8491015b60405180910390a150565b60606102e882610657565b61030a5750506040805180820190915260028152611a9b60f11b602082015290565b6000610315836106d5565b905061032081610bda565b61032981610c59565b8060600151610352575050604080518082019091526002815261353560f01b6020820152919050565b806020015180610366575061036681610d1c565b15610381575050604080516020810190915260008152919050565b5050604080518082019091526002815261353360f01b6020820152919050565b60006103ac826102dd565b9050805160001481906103d25760405162461bcd60e51b815260040161026991906115d3565b505050565b600054604080518082019091526002815261033360f41b6020820152906001600160a01b0316331461041c5760405162461bcd60e51b815260040161026991906115d3565b50600455565b600054604080518082019091526002815261033360f41b6020820152906001600160a01b031633146104675760405162461bcd60e51b815260040161026991906115d3565b50600255565b600054604080518082019091526002815261033360f41b6020820152906001600160a01b031633146104b25760405162461bcd60e51b815260040161026991906115d3565b50600355565b60006103ac825b606060006104cc836106d5565b90506104d781610bda565b6104e081610c59565b8060600151610509575050604080518082019091526002815261353560f01b6020820152919050565b600081604001518061051f575061051f82610dc3565b90506000826020015180610537575061053783610d1c565b90508180156105435750805b156105605750506040805160208101909152600081529392505050565b50506040805180820190915260028152611a9960f11b60208201529392505050565b600054604080518082019091526002815261033360f41b6020820152906001600160a01b031633146105c75760405162461bcd60e51b815260040161026991906115d3565b50604080518082019091526002815261333160f01b60208201526001600160a01b0382166106085760405162461bcd60e51b815260040161026991906115d3565b50600180546001600160a01b0319166001600160a01b0383169081179091556040519081527f67235ba2e63c748a35b95c4f92a3bbc2a1389938170a5ce6c9add5d0b03a314a906020016102d2565b6000805b8251518110156106cc5782518051829081106106795761067961165c565b6020026020010151602001518360000151828151811061069b5761069b61165c565b60200260200101516000015160a0015110156106ba5750600092915050565b806106c481611688565b91505061065b565b50600192915050565b6040805160a081018252606080825260006020830181905292820183905281018290526080810191909152815160208301511515608083015282515167ffffffffffffffff811115610729576107296111c2565b6040519080825280602002602001820160405280156107b857816020015b6107a560405180610120016040528060006001600160a01b0316815260200160008152602001600081526020016000815260200160008152602001600015158152602001600015158152602001600015158152602001606081525090565b8152602001906001900390816107475790505b508252805160009067ffffffffffffffff8111156107d8576107d86111c2565b604051908082528060200260200182016040528015610801578160200160208202803683370190505b5090506000825167ffffffffffffffff811115610820576108206111c2565b604051908082528060200260200182016040528015610849578160200160208202803683370190505b50905060005b8351811015610b62578560200151156108cf578381815181106108745761087461165c565b6020026020010151602001518482815181106108925761089261165c565b60200260200101516000015160a001516108ac91906116a3565b8382815181106108be576108be61165c565b602002602001018181525050610938565b8381815181106108e1576108e161165c565b6020026020010151602001518482815181106108ff576108ff61165c565b60200260200101516000015160a0015161091991906116bb565b83828151811061092b5761092b61165c565b6020026020010181815250505b61098584828151811061094d5761094d61165c565b6020026020010151600001516020015184838151811061096f5761096f61165c565b6020026020010151610e2f90919063ffffffff16565b8382815181106109975761099761165c565b6020026020010181815250508381815181106109b5576109b561165c565b6020908102919091010151515185518051839081106109d6576109d661165c565b60209081029190910101516001600160a01b0390911690528351849082908110610a0257610a0261165c565b60200260200101516000015160e0015185600001518281518110610a2857610a2861165c565b60200260200101516020018181525050838181518110610a4a57610a4a61165c565b60200260200101516000015160c0015185600001518281518110610a7057610a7061165c565b60200260200101516040018181525050838181518110610a9257610a9261165c565b6020026020010151600001516060015185600001518281518110610ab857610ab861165c565b60200260200101516080018181525050838181518110610ada57610ada61165c565b602002602001015160000151610100015185600001518281518110610b0157610b0161165c565b60200260200101516101000181905250838181518110610b2357610b2361165c565b60200260200101516000015160600151828281518110610b4557610b4561165c565b602090810291909101015280610b5a81611688565b91505061084f565b506000610b6f8383610e9d565b50905060005b865151811015610bd057818181518110610b9157610b9161165c565b602002602001015186600001518281518110610baf57610baf61165c565b60209081029190910101516060015280610bc881611688565b915050610b75565b5050505050919050565b600160408201819052606082015260005b815151811015610c5557600082600001518281518110610c0d57610c0d61165c565b60200260200101519050610c2081610ff0565b8060a00151610c3157600060408401525b8060c00151610c4257600060608401525b5080610c4d81611688565b915050610beb565b5050565b6001602082015260005b815151811015610c5557600082600001518281518110610c8557610c8561165c565b602002602001015190506000610caa60025483602001516110b890919063ffffffff16565b9050600081610cca8460600151856020015161110790919063ffffffff16565b111590508085600001518581518110610ce557610ce561165c565b602090810291909101015190151560e09091015280610d0657600060208601525b5050508080610d1490611688565b915050610c63565b6000805b8251518110156106cc57600083600001518281518110610d4257610d4261165c565b602002602001015190508060e0015115610d5c5750610db1565b6000610d798260200151836060015161110790919063ffffffff16565b90506000610d988360200151846040015161110790919063ffffffff16565b9050808210610dad5750600095945050505050565b5050505b80610dbb81611688565b915050610d20565b6000805b8251518110156106cc57600083600001518281518110610de957610de961165c565b602002602001015190508060a00151158015610e0d57508060400151816060015110155b15610e1c575060009392505050565b5080610e2781611688565b915050610dc7565b600060ff821660121415610e44575081610e97565b601260ff83161115610e7757610e5b6012836116d2565b610e6690600a6117d9565b610e7090846117e8565b9050610e97565b610e828260126116d2565b610e8d90600a6117d9565b610e70908461180a565b92915050565b6060600080835167ffffffffffffffff811115610ebc57610ebc6111c2565b604051908082528060200260200182016040528015610ee5578160200160208202803683370190505b5090506000805b8651811015610f5e576000610f3c878381518110610f0c57610f0c61165c565b6020026020010151898481518110610f2657610f2661165c565b602002602001015161113190919063ffffffff16565b9050610f4881846116a3565b9250508080610f5690611688565b915050610eec565b5080610f6e579092509050610fe9565b60005b8651811015610fe257610fb382610fad888481518110610f9357610f9361165c565b60200260200101518a8581518110610f2657610f2661165c565b9061115a565b838281518110610fc557610fc561165c565b602090810291909101015280610fda81611688565b915050610f71565b5090925090505b9250929050565b600160a0820152600060c082018190525b81610100015151811015610c5557600082610100015182815181106110285761102861165c565b60200260200101516040015190506000836101000151838151811061104f5761104f61165c565b6020026020010151602001519050801561109257600160c085015260035461107f83670de0b6b3a7640000611107565b111561108d57600060a08501525b6110a3565b60045482106110a357600160c08501525b505080806110b090611688565b915050611001565b6000806110c5838561180a565b9050806110d6576000915050610e97565b670de0b6b3a76400006110ea6001836116bb565b6110f491906117e8565b6110ff9060016116a3565b915050610e97565b6000818310156111205761111b83836116bb565b61112a565b61112a82846116bb565b9392505050565b60008061113e838561180a565b9050611152670de0b6b3a7640000826117e8565b949350505050565b604080518082019091526002815261323560f01b6020820152600090826111945760405162461bcd60e51b815260040161026991906115d3565b50826111a257506000610e97565b60006111b6670de0b6b3a76400008561180a565b90506110ff83826117e8565b634e487b7160e01b600052604160045260246000fd5b6040516060810167ffffffffffffffff811182821017156111fb576111fb6111c2565b60405290565b6040805190810167ffffffffffffffff811182821017156111fb576111fb6111c2565b604051610120810167ffffffffffffffff811182821017156111fb576111fb6111c2565b604051601f8201601f1916810167ffffffffffffffff81118282101715611271576112716111c2565b604052919050565b600067ffffffffffffffff821115611293576112936111c2565b5060051b60200190565b80356001600160a01b03811681146112b457600080fd5b919050565b803560ff811681146112b457600080fd5b6000608082840312156112dc57600080fd5b6040516080810181811067ffffffffffffffff821117156112ff576112ff6111c2565b8060405250809150823581526020830135602082015260408301356040820152606083013560608201525092915050565b803580151581146112b457600080fd5b600082601f83011261135157600080fd5b8135602061136661136183611279565b611248565b8281526060928302850182019282820191908785111561138557600080fd5b8387015b858110156113da5781818a0312156113a15760008081fd5b6113a96111d8565b6113b28261129d565b81526113bf868301611330565b81870152604082810135908201528452928401928101611389565b5090979650505050505050565b6000602082840312156113f957600080fd5b67ffffffffffffffff808335111561141057600080fd5b6040833584018503121561142357600080fd5b61142b611201565b818435850135111561143c57600080fd5b83358401803501601f8101861361145257600080fd5b61145f6113618235611279565b81358082526020808301929160051b84010188101561147d57600080fd5b602083015b6020843560051b8501018110156115b15785813511156114a157600080fd5b80358401601f196040828c03820112156114ba57600080fd5b6114c2611201565b88602084013511156114d357600080fd5b6020830135830161018083828f030112156114ed57600080fd5b6114f5611224565b92506115036020820161129d565b8352611511604082016112b9565b60208401526115226060820161129d565b60408401526080810135606084015261153e8d60a083016112ca565b608084015261012081013560a084015261014081013560c084015261016081013560e084015289610180820135111561157657600080fd5b61158a8d6020610180840135840101611340565b61010084015250908152604091909101356020808301919091529084529283019201611482565b508352506115c6905084358501602001611330565b6020820152949350505050565b600060208083528351808285015260005b81811015611600578581018301518582016040015282016115e4565b81811115611612576000604083870101525b50601f01601f1916929092016040019392505050565b60006020828403121561163a57600080fd5b5035919050565b60006020828403121561165357600080fd5b61112a8261129d565b634e487b7160e01b600052603260045260246000fd5b634e487b7160e01b600052601160045260246000fd5b600060001982141561169c5761169c611672565b5060010190565b600082198211156116b6576116b6611672565b500190565b6000828210156116cd576116cd611672565b500390565b600060ff821660ff8416808210156116ec576116ec611672565b90039392505050565b600181815b8085111561173057816000190482111561171657611716611672565b8085161561172357918102915b93841c93908002906116fa565b509250929050565b60008261174757506001610e97565b8161175457506000610e97565b816001811461176a576002811461177457611790565b6001915050610e97565b60ff84111561178557611785611672565b50506001821b610e97565b5060208310610133831016604e8410600b84101617156117b3575081810a610e97565b6117bd83836116f5565b80600019048211156117d1576117d1611672565b029392505050565b600061112a60ff841683611738565b60008261180557634e487b7160e01b600052601260045260246000fd5b500490565b600081600019048311821515161561182457611824611672565b50029056fea2646970667358221220819b860bcb98e16f887e377dccfd7a06b2b5372e0871f09bada7bbc0d2ba8b4a64736f6c634300080a0033","bytecodeSha1":"ae557250ae7f2881fbb4b18fccc1bcc94d4cb2f0","compiler":{"evm_version":"london","optimizer":{"enabled":true,"runs":200},"version":"0.8.10+commit.fc410830"},"contractName":"ReserveSafetyManager","language":"Solidity","natspec":{"kind":"dev","methods":{"STABLECOIN_IDEAL_PRICE()":{"notice":"a stablecoin should be equal to 1 USD"},"acceptGovernance()":{"notice":"Called by the pending governor to approve the change"},"changeGovernor(address)":{"notice":"Changes the governor can only be called by the current governor"},"checkAndPersistMint((((address,uint8,address,uint256,(uint256,uint256,uint256,uint256),uint256,uint256,uint256,(address,bool,uint256)[]),uint256)[],bool))":{"notice":"Checks whether a mint operation is safe and reverts otherwise This is only called when an actual mint is performed The implementation should store any relevant information for the mint"},"checkAndPersistRedeem((((address,uint8,address,uint256,(uint256,uint256,uint256,uint256),uint256,uint256,uint256,(address,bool,uint256)[]),uint256)[],bool))":{"notice":"Checks whether a redeem operation is safe and reverts otherwise This is only called when an actual redeem is performed The implementation should store any relevant information for the redeem"},"governor()":{"notice":"Returns the current governor"},"isMintSafe((((address,uint8,address,uint256,(uint256,uint256,uint256,uint256),uint256,uint256,uint256,(address,bool,uint256)[]),uint256)[],bool))":{"notice":"Checks whether a mint operation is safe","returns":{"_0":"empty string if it is safe, otherwise the reason why it is not safe"}},"isRedeemSafe((((address,uint8,address,uint256,(uint256,uint256,uint256,uint256),uint256,uint256,uint256,(address,bool,uint256)[]),uint256)[],bool))":{"notice":"Checks whether a redeem operation is safe","returns":{"_0":"empty string if it is safe, otherwise the reason why it is not safe"}},"pendingGovernor()":{"notice":"Returns the pending governor"}},"version":1},"opcodes":"PUSH1 0x80 PUSH1 0x40 MSTORE CALLVALUE DUP1 ISZERO PUSH2 0x10 JUMPI PUSH1 0x0 DUP1 REVERT JUMPDEST POP PUSH1 0x4 CALLDATASIZE LT PUSH2 0xF5 JUMPI PUSH1 0x0 CALLDATALOAD PUSH1 0xE0 SHR DUP1 PUSH4 0xBCBEF650 GT PUSH2 0x97 JUMPI DUP1 PUSH4 0xD625436C GT PUSH2 0x66 JUMPI DUP1 PUSH4 0xD625436C EQ PUSH2 0x1D8 JUMPI DUP1 PUSH4 0xE2CC8679 EQ PUSH2 0x1EB JUMPI DUP1 PUSH4 0xE3056A34 EQ PUSH2 0x1FE JUMPI DUP1 PUSH4 0xE4C0AAF4 EQ PUSH2 0x211 JUMPI PUSH1 0x0 DUP1 REVERT JUMPDEST DUP1 PUSH4 0xBCBEF650 EQ PUSH2 0x196 JUMPI DUP1 PUSH4 0xBD162BDD EQ PUSH2 0x1A9 JUMPI DUP1 PUSH4 0xC203C831 EQ PUSH2 0x1BC JUMPI DUP1 PUSH4 0xD0261544 EQ PUSH2 0x1C5 JUMPI PUSH1 0x0 DUP1 REVERT JUMPDEST DUP1 PUSH4 0x5DABB20E GT PUSH2 0xD3 JUMPI DUP1 PUSH4 0x5DABB20E EQ PUSH2 0x14B JUMPI DUP1 PUSH4 0x6382B296 EQ PUSH2 0x154 JUMPI DUP1 PUSH4 0x888AD112 EQ PUSH2 0x174 JUMPI DUP1 PUSH4 0xA0763820 EQ PUSH2 0x183 JUMPI PUSH1 0x0 DUP1 REVERT JUMPDEST DUP1 PUSH4 0xC340A24 EQ PUSH2 0xFA JUMPI DUP1 PUSH4 0x14DF3DD8 EQ PUSH2 0x12A JUMPI DUP1 PUSH4 0x238EFCBC EQ PUSH2 0x141 JUMPI JUMPDEST PUSH1 0x0 DUP1 REVERT JUMPDEST PUSH1 0x0 SLOAD PUSH2 0x10D SWAP1 PUSH1 0x1 PUSH1 0x1 PUSH1 0xA0 SHL SUB AND DUP2 JUMP JUMPDEST PUSH1 0x40 MLOAD PUSH1 0x1 PUSH1 0x1 PUSH1 0xA0 SHL SUB SWAP1 SWAP2 AND DUP2 MSTORE PUSH1 0x20 ADD JUMPDEST PUSH1 0x40 MLOAD DUP1 SWAP2 SUB SWAP1 RETURN JUMPDEST PUSH2 0x133 PUSH1 0x3 SLOAD DUP2 JUMP JUMPDEST PUSH1 0x40 MLOAD SWAP1 DUP2 MSTORE PUSH1 0x20 ADD PUSH2 0x121 JUMP JUMPDEST PUSH2 0x149 PUSH2 0x224 JUMP JUMPDEST STOP JUMPDEST PUSH2 0x133 PUSH1 0x4 SLOAD DUP2 JUMP JUMPDEST PUSH2 0x167 PUSH2 0x162 CALLDATASIZE PUSH1 0x4 PUSH2 0x13E7 JUMP JUMPDEST PUSH2 0x2DD JUMP JUMPDEST PUSH1 0x40 MLOAD PUSH2 0x121 SWAP2 SWAP1 PUSH2 0x15D3 JUMP JUMPDEST PUSH2 0x133 PUSH8 0xDE0B6B3A7640000 DUP2 JUMP JUMPDEST PUSH2 0x149 PUSH2 0x191 CALLDATASIZE PUSH1 0x4 PUSH2 0x13E7 JUMP JUMPDEST PUSH2 0x3A1 JUMP JUMPDEST PUSH2 0x149 PUSH2 0x1A4 CALLDATASIZE PUSH1 0x4 PUSH2 0x1628 JUMP JUMPDEST PUSH2 0x3D7 JUMP JUMPDEST PUSH2 0x149 PUSH2 0x1B7 CALLDATASIZE PUSH1 0x4 PUSH2 0x1628 JUMP JUMPDEST PUSH2 0x422 JUMP JUMPDEST PUSH2 0x133 PUSH1 0x2 SLOAD DUP2 JUMP JUMPDEST PUSH2 0x149 PUSH2 0x1D3 CALLDATASIZE PUSH1 0x4 PUSH2 0x1628 JUMP JUMPDEST PUSH2 0x46D JUMP JUMPDEST PUSH2 0x149 PUSH2 0x1E6 CALLDATASIZE PUSH1 0x4 PUSH2 0x13E7 JUMP JUMPDEST PUSH2 0x4B8 JUMP JUMPDEST PUSH2 0x167 PUSH2 0x1F9 CALLDATASIZE PUSH1 0x4 PUSH2 0x13E7 JUMP JUMPDEST PUSH2 0x4BF JUMP JUMPDEST PUSH1 0x1 SLOAD PUSH2 0x10D SWAP1 PUSH1 0x1 PUSH1 0x1 PUSH1 0xA0 SHL SUB AND DUP2 JUMP JUMPDEST PUSH2 0x149 PUSH2 0x21F CALLDATASIZE PUSH1 0x4 PUSH2 0x1641 JUMP JUMPDEST PUSH2 0x582 JUMP JUMPDEST PUSH1 0x1 SLOAD PUSH1 0x40 DUP1 MLOAD DUP1 DUP3 ADD SWAP1 SWAP2 MSTORE PUSH1 0x2 DUP2 MSTORE PUSH2 0x333 PUSH1 0xF4 SHL PUSH1 0x20 DUP3 ADD MSTORE SWAP1 PUSH1 0x1 PUSH1 0x1 PUSH1 0xA0 SHL SUB AND CALLER EQ PUSH2 0x272 JUMPI PUSH1 0x40 MLOAD PUSH3 0x461BCD PUSH1 0xE5 SHL DUP2 MSTORE PUSH1 0x4 ADD PUSH2 0x269 SWAP2 SWAP1 PUSH2 0x15D3 JUMP JUMPDEST PUSH1 0x40 MLOAD DUP1 SWAP2 SUB SWAP1 REVERT JUMPDEST POP PUSH1 0x0 DUP1 SLOAD PUSH1 0x1 DUP1 SLOAD PUSH1 0x1 PUSH1 0x1 PUSH1 0xA0 SHL SUB NOT DUP1 DUP5 AND PUSH1 0x1 PUSH1 0x1 PUSH1 0xA0 SHL SUB DUP1 DUP5 AND SWAP2 SWAP1 SWAP2 OR SWAP1 SWAP6 SSTORE AND SWAP1 SSTORE PUSH1 0x40 DUP1 MLOAD SWAP3 SWAP1 SWAP2 AND DUP1 DUP4 MSTORE CALLER PUSH1 0x20 DUP5 ADD MSTORE SWAP2 PUSH32 0xDE4B3F61490B74C0ED6237523974FE299126BBBF8A8A7482FD220104C59B0C84 SWAP2 ADD JUMPDEST PUSH1 0x40 MLOAD DUP1 SWAP2 SUB SWAP1 LOG1 POP JUMP JUMPDEST PUSH1 0x60 PUSH2 0x2E8 DUP3 PUSH2 0x657 JUMP JUMPDEST PUSH2 0x30A JUMPI POP POP PUSH1 0x40 DUP1 MLOAD DUP1 DUP3 ADD SWAP1 SWAP2 MSTORE PUSH1 0x2 DUP2 MSTORE PUSH2 0x1A9B PUSH1 0xF1 SHL PUSH1 0x20 DUP3 ADD MSTORE SWAP1 JUMP JUMPDEST PUSH1 0x0 PUSH2 0x315 DUP4 PUSH2 0x6D5 JUMP JUMPDEST SWAP1 POP PUSH2 0x320 DUP2 PUSH2 0xBDA JUMP JUMPDEST PUSH2 0x329 DUP2 PUSH2 0xC59 JUMP JUMPDEST DUP1 PUSH1 0x60 ADD MLOAD PUSH2 0x352 JUMPI POP POP PUSH1 0x40 DUP1 MLOAD DUP1 DUP3 ADD SWAP1 SWAP2 MSTORE PUSH1 0x2 DUP2 MSTORE PUSH2 0x3535 PUSH1 0xF0 SHL PUSH1 0x20 DUP3 ADD MSTORE SWAP2 SWAP1 POP JUMP JUMPDEST DUP1 PUSH1 0x20 ADD MLOAD DUP1 PUSH2 0x366 JUMPI POP PUSH2 0x366 DUP2 PUSH2 0xD1C JUMP JUMPDEST ISZERO PUSH2 0x381 JUMPI POP POP PUSH1 0x40 DUP1 MLOAD PUSH1 0x20 DUP2 ADD SWAP1 SWAP2 MSTORE PUSH1 0x0 DUP2 MSTORE SWAP2 SWAP1 POP JUMP JUMPDEST POP POP PUSH1 0x40 DUP1 MLOAD DUP1 DUP3 ADD SWAP1 SWAP2 MSTORE PUSH1 0x2 DUP2 MSTORE PUSH2 0x3533 PUSH1 0xF0 SHL PUSH1 0x20 DUP3 ADD MSTORE SWAP2 SWAP1 POP JUMP JUMPDEST PUSH1 0x0 PUSH2 0x3AC DUP3 PUSH2 0x2DD JUMP JUMPDEST SWAP1 POP DUP1 MLOAD PUSH1 0x0 EQ DUP2 SWAP1 PUSH2 0x3D2 JUMPI PUSH1 0x40 MLOAD PUSH3 0x461BCD PUSH1 0xE5 SHL DUP2 MSTORE PUSH1 0x4 ADD PUSH2 0x269 SWAP2 SWAP1 PUSH2 0x15D3 JUMP JUMPDEST POP POP POP JUMP JUMPDEST PUSH1 0x0 SLOAD PUSH1 0x40 DUP1 MLOAD DUP1 DUP3 ADD SWAP1 SWAP2 MSTORE PUSH1 0x2 DUP2 MSTORE PUSH2 0x333 PUSH1 0xF4 SHL PUSH1 0x20 DUP3 ADD MSTORE SWAP1 PUSH1 0x1 PUSH1 0x1 PUSH1 0xA0 SHL SUB AND CALLER EQ PUSH2 0x41C JUMPI PUSH1 0x40 MLOAD PUSH3 0x461BCD PUSH1 0xE5 SHL DUP2 MSTORE PUSH1 0x4 ADD PUSH2 0x269 SWAP2 SWAP1 PUSH2 0x15D3 JUMP JUMPDEST POP PUSH1 0x4 SSTORE JUMP JUMPDEST PUSH1 0x0 SLOAD PUSH1 0x40 DUP1 MLOAD DUP1 DUP3 ADD SWAP1 SWAP2 MSTORE PUSH1 0x2 DUP2 MSTORE PUSH2 0x333 PUSH1 0xF4 SHL PUSH1 0x20 DUP3 ADD MSTORE SWAP1 PUSH1 0x1 PUSH1 0x1 PUSH1 0xA0 SHL SUB AND CALLER EQ PUSH2 0x467 JUMPI PUSH1 0x40 MLOAD PUSH3 0x461BCD PUSH1 0xE5 SHL DUP2 MSTORE PUSH1 0x4 ADD PUSH2 0x269 SWAP2 SWAP1 PUSH2 0x15D3 JUMP JUMPDEST POP PUSH1 0x2 SSTORE JUMP JUMPDEST PUSH1 0x0 SLOAD PUSH1 0x40 DUP1 MLOAD DUP1 DUP3 ADD SWAP1 SWAP2 MSTORE PUSH1 0x2 DUP2 MSTORE PUSH2 0x333 PUSH1 0xF4 SHL PUSH1 0x20 DUP3 ADD MSTORE SWAP1 PUSH1 0x1 PUSH1 0x1 PUSH1 0xA0 SHL SUB AND CALLER EQ PUSH2 0x4B2 JUMPI PUSH1 0x40 MLOAD PUSH3 0x461BCD PUSH1 0xE5 SHL DUP2 MSTORE PUSH1 0x4 ADD PUSH2 0x269 SWAP2 SWAP1 PUSH2 0x15D3 JUMP JUMPDEST POP PUSH1 0x3 SSTORE JUMP JUMPDEST PUSH1 0x0 PUSH2 0x3AC DUP3 JUMPDEST PUSH1 0x60 PUSH1 0x0 PUSH2 0x4CC DUP4 PUSH2 0x6D5 JUMP JUMPDEST SWAP1 POP PUSH2 0x4D7 DUP2 PUSH2 0xBDA JUMP JUMPDEST PUSH2 0x4E0 DUP2 PUSH2 0xC59 JUMP JUMPDEST DUP1 PUSH1 0x60 ADD MLOAD PUSH2 0x509 JUMPI POP POP PUSH1 0x40 DUP1 MLOAD DUP1 DUP3 ADD SWAP1 SWAP2 MSTORE PUSH1 0x2 DUP2 MSTORE PUSH2 0x3535 PUSH1 0xF0 SHL PUSH1 0x20 DUP3 ADD MSTORE SWAP2 SWAP1 POP JUMP JUMPDEST PUSH1 0x0 DUP2 PUSH1 0x40 ADD MLOAD DUP1 PUSH2 0x51F JUMPI POP PUSH2 0x51F DUP3 PUSH2 0xDC3 JUMP JUMPDEST SWAP1 POP PUSH1 0x0 DUP3 PUSH1 0x20 ADD MLOAD DUP1 PUSH2 0x537 JUMPI POP PUSH2 0x537 DUP4 PUSH2 0xD1C JUMP JUMPDEST SWAP1 POP DUP2 DUP1 ISZERO PUSH2 0x543 JUMPI POP DUP1 JUMPDEST ISZERO PUSH2 0x560 JUMPI POP POP PUSH1 0x40 DUP1 MLOAD PUSH1 0x20 DUP2 ADD SWAP1 SWAP2 MSTORE PUSH1 0x0 DUP2 MSTORE SWAP4 SWAP3 POP POP POP JUMP JUMPDEST POP POP PUSH1 0x40 DUP1 MLOAD DUP1 DUP3 ADD SWAP1 SWAP2 MSTORE PUSH1 0x2 DUP2 MSTORE PUSH2 0x1A99 PUSH1 0xF1 SHL PUSH1 0x20 DUP3 ADD MSTORE SWAP4 SWAP3 POP POP POP JUMP JUMPDEST PUSH1 0x0 SLOAD PUSH1 0x40 DUP1 MLOAD DUP1 DUP3 ADD SWAP1 SWAP2 MSTORE PUSH1 0x2 DUP2 MSTORE PUSH2 0x333 PUSH1 0xF4 SHL PUSH1 0x20 DUP3 ADD MSTORE SWAP1 PUSH1 0x1 PUSH1 0x1 PUSH1 0xA0 SHL SUB AND CALLER EQ PUSH2 0x5C7 JUMPI PUSH1 0x40 MLOAD PUSH3 0x461BCD PUSH1 0xE5 SHL DUP2 MSTORE PUSH1 0x4 ADD PUSH2 0x269 SWAP2 SWAP1 PUSH2 0x15D3 JUMP JUMPDEST POP PUSH1 0x40 DUP1 MLOAD DUP1 DUP3 ADD SWAP1 SWAP2 MSTORE PUSH1 0x2 DUP2 MSTORE PUSH2 0x3331 PUSH1 0xF0 SHL PUSH1 0x20 DUP3 ADD MSTORE PUSH1 0x1 PUSH1 0x1 PUSH1 0xA0 SHL SUB DUP3 AND PUSH2 0x608 JUMPI PUSH1 0x40 MLOAD PUSH3 0x461BCD PUSH1 0xE5 SHL DUP2 MSTORE PUSH1 0x4 ADD PUSH2 0x269 SWAP2 SWAP1 PUSH2 0x15D3 JUMP JUMPDEST POP PUSH1 0x1 DUP1 SLOAD PUSH1 0x1 PUSH1 0x1 PUSH1 0xA0 SHL SUB NOT AND PUSH1 0x1 PUSH1 0x1 PUSH1 0xA0 SHL SUB DUP4 AND SWAP1 DUP2 OR SWAP1 SWAP2 SSTORE PUSH1 0x40 MLOAD SWAP1 DUP2 MSTORE PUSH32 0x67235BA2E63C748A35B95C4F92A3BBC2A1389938170A5CE6C9ADD5D0B03A314A SWAP1 PUSH1 0x20 ADD PUSH2 0x2D2 JUMP JUMPDEST PUSH1 0x0 DUP1 JUMPDEST DUP3 MLOAD MLOAD DUP2 LT ISZERO PUSH2 0x6CC JUMPI DUP3 MLOAD DUP1 MLOAD DUP3 SWAP1 DUP2 LT PUSH2 0x679 JUMPI PUSH2 0x679 PUSH2 0x165C JUMP JUMPDEST PUSH1 0x20 MUL PUSH1 0x20 ADD ADD MLOAD PUSH1 0x20 ADD MLOAD DUP4 PUSH1 0x0 ADD MLOAD DUP3 DUP2 MLOAD DUP2 LT PUSH2 0x69B JUMPI PUSH2 0x69B PUSH2 0x165C JUMP JUMPDEST PUSH1 0x20 MUL PUSH1 0x20 ADD ADD MLOAD PUSH1 0x0 ADD MLOAD PUSH1 0xA0 ADD MLOAD LT ISZERO PUSH2 0x6BA JUMPI POP PUSH1 0x0 SWAP3 SWAP2 POP POP JUMP JUMPDEST DUP1 PUSH2 0x6C4 DUP2 PUSH2 0x1688 JUMP JUMPDEST SWAP2 POP POP PUSH2 0x65B JUMP JUMPDEST POP PUSH1 0x1 SWAP3 SWAP2 POP POP JUMP JUMPDEST PUSH1 0x40 DUP1 MLOAD PUSH1 0xA0 DUP2 ADD DUP3 MSTORE PUSH1 0x60 DUP1 DUP3 MSTORE PUSH1 0x0 PUSH1 0x20 DUP4 ADD DUP2 SWAP1 MSTORE SWAP3 DUP3 ADD DUP4 SWAP1 MSTORE DUP2 ADD DUP3 SWAP1 MSTORE PUSH1 0x80 DUP2 ADD SWAP2 SWAP1 SWAP2 MSTORE DUP2 MLOAD PUSH1 0x20 DUP4 ADD MLOAD ISZERO ISZERO PUSH1 0x80 DUP4 ADD MSTORE DUP3 MLOAD MLOAD PUSH8 0xFFFFFFFFFFFFFFFF DUP2 GT ISZERO PUSH2 0x729 JUMPI PUSH2 0x729 PUSH2 0x11C2 JUMP JUMPDEST PUSH1 0x40 MLOAD SWAP1 DUP1 DUP3 MSTORE DUP1 PUSH1 0x20 MUL PUSH1 0x20 ADD DUP3 ADD PUSH1 0x40 MSTORE DUP1 ISZERO PUSH2 0x7B8 JUMPI DUP2 PUSH1 0x20 ADD JUMPDEST PUSH2 0x7A5 PUSH1 0x40 MLOAD DUP1 PUSH2 0x120 ADD PUSH1 0x40 MSTORE DUP1 PUSH1 0x0 PUSH1 0x1 PUSH1 0x1 PUSH1 0xA0 SHL SUB AND DUP2 MSTORE PUSH1 0x20 ADD PUSH1 0x0 DUP2 MSTORE PUSH1 0x20 ADD PUSH1 0x0 DUP2 MSTORE PUSH1 0x20 ADD PUSH1 0x0 DUP2 MSTORE PUSH1 0x20 ADD PUSH1 0x0 DUP2 MSTORE PUSH1 0x20 ADD PUSH1 0x0 ISZERO ISZERO DUP2 MSTORE PUSH1 0x20 ADD PUSH1 0x0 ISZERO ISZERO DUP2 MSTORE PUSH1 0x20 ADD PUSH1 0x0 ISZERO ISZERO DUP2 MSTORE PUSH1 0x20 ADD PUSH1 0x60 DUP2 MSTORE POP SWAP1 JUMP JUMPDEST DUP2 MSTORE PUSH1 0x20 ADD SWAP1 PUSH1 0x1 SWAP1 SUB SWAP1 DUP2 PUSH2 0x747 JUMPI SWAP1 POP JUMPDEST POP DUP3 MSTORE DUP1 MLOAD PUSH1 0x0 SWAP1 PUSH8 0xFFFFFFFFFFFFFFFF DUP2 GT ISZERO PUSH2 0x7D8 JUMPI PUSH2 0x7D8 PUSH2 0x11C2 JUMP JUMPDEST PUSH1 0x40 MLOAD SWAP1 DUP1 DUP3 MSTORE DUP1 PUSH1 0x20 MUL PUSH1 0x20 ADD DUP3 ADD PUSH1 0x40 MSTORE DUP1 ISZERO PUSH2 0x801 JUMPI DUP2 PUSH1 0x20 ADD PUSH1 0x20 DUP3 MUL DUP1 CALLDATASIZE DUP4 CALLDATACOPY ADD SWAP1 POP JUMPDEST POP SWAP1 POP PUSH1 0x0 DUP3 MLOAD PUSH8 0xFFFFFFFFFFFFFFFF DUP2 GT ISZERO PUSH2 0x820 JUMPI PUSH2 0x820 PUSH2 0x11C2 JUMP JUMPDEST PUSH1 0x40 MLOAD SWAP1 DUP1 DUP3 MSTORE DUP1 PUSH1 0x20 MUL PUSH1 0x20 ADD DUP3 ADD PUSH1 0x40 MSTORE DUP1 ISZERO PUSH2 0x849 JUMPI DUP2 PUSH1 0x20 ADD PUSH1 0x20 DUP3 MUL DUP1 CALLDATASIZE DUP4 CALLDATACOPY ADD SWAP1 POP JUMPDEST POP SWAP1 POP PUSH1 0x0 JUMPDEST DUP4 MLOAD DUP2 LT ISZERO PUSH2 0xB62 JUMPI DUP6 PUSH1 0x20 ADD MLOAD ISZERO PUSH2 0x8CF JUMPI DUP4 DUP2 DUP2 MLOAD DUP2 LT PUSH2 0x874 JUMPI PUSH2 0x874 PUSH2 0x165C JUMP JUMPDEST PUSH1 0x20 MUL PUSH1 0x20 ADD ADD MLOAD PUSH1 0x20 ADD MLOAD DUP5 DUP3 DUP2 MLOAD DUP2 LT PUSH2 0x892 JUMPI PUSH2 0x892 PUSH2 0x165C JUMP JUMPDEST PUSH1 0x20 MUL PUSH1 0x20 ADD ADD MLOAD PUSH1 0x0 ADD MLOAD PUSH1 0xA0 ADD MLOAD PUSH2 0x8AC SWAP2 SWAP1 PUSH2 0x16A3 JUMP JUMPDEST DUP4 DUP3 DUP2 MLOAD DUP2 LT PUSH2 0x8BE JUMPI PUSH2 0x8BE PUSH2 0x165C JUMP JUMPDEST PUSH1 0x20 MUL PUSH1 0x20 ADD ADD DUP2 DUP2 MSTORE POP POP PUSH2 0x938 JUMP JUMPDEST DUP4 DUP2 DUP2 MLOAD DUP2 LT PUSH2 0x8E1 JUMPI PUSH2 0x8E1 PUSH2 0x165C JUMP JUMPDEST PUSH1 0x20 MUL PUSH1 0x20 ADD ADD MLOAD PUSH1 0x20 ADD MLOAD DUP5 DUP3 DUP2 MLOAD DUP2 LT PUSH2 0x8FF JUMPI PUSH2 0x8FF PUSH2 0x165C JUMP JUMPDEST PUSH1 0x20 MUL PUSH1 0x20 ADD ADD MLOAD PUSH1 0x0 ADD MLOAD PUSH1 0xA0 ADD MLOAD PUSH2 0x919 SWAP2 SWAP1 PUSH2 0x16BB JUMP JUMPDEST DUP4 DUP3 DUP2 MLOAD DUP2 LT PUSH2 0x92B JUMPI PUSH2 0x92B PUSH2 0x165C JUMP JUMPDEST PUSH1 0x20 MUL PUSH1 0x20 ADD ADD DUP2 DUP2 MSTORE POP POP JUMPDEST PUSH2 0x985 DUP5 DUP3 DUP2 MLOAD DUP2 LT PUSH2 0x94D JUMPI PUSH2 0x94D PUSH2 0x165C JUMP JUMPDEST PUSH1 0x20 MUL PUSH1 0x20 ADD ADD MLOAD PUSH1 0x0 ADD MLOAD PUSH1 0x20 ADD MLOAD DUP5 DUP4 DUP2 MLOAD DUP2 LT PUSH2 0x96F JUMPI PUSH2 0x96F PUSH2 0x165C JUMP JUMPDEST PUSH1 0x20 MUL PUSH1 0x20 ADD ADD MLOAD PUSH2 0xE2F SWAP1 SWAP2 SWAP1 PUSH4 0xFFFFFFFF AND JUMP JUMPDEST DUP4 DUP3 DUP2 MLOAD DUP2 LT PUSH2 0x997 JUMPI PUSH2 0x997 PUSH2 0x165C JUMP JUMPDEST PUSH1 0x20 MUL PUSH1 0x20 ADD ADD DUP2 DUP2 MSTORE POP POP DUP4 DUP2 DUP2 MLOAD DUP2 LT PUSH2 0x9B5 JUMPI PUSH2 0x9B5 PUSH2 0x165C JUMP JUMPDEST PUSH1 0x20 SWAP1 DUP2 MUL SWAP2 SWAP1 SWAP2 ADD ADD MLOAD MLOAD MLOAD DUP6 MLOAD DUP1 MLOAD DUP4 SWAP1 DUP2 LT PUSH2 0x9D6 JUMPI PUSH2 0x9D6 PUSH2 0x165C JUMP JUMPDEST PUSH1 0x20 SWAP1 DUP2 MUL SWAP2 SWAP1 SWAP2 ADD ADD MLOAD PUSH1 0x1 PUSH1 0x1 PUSH1 0xA0 SHL SUB SWAP1 SWAP2 AND SWAP1 MSTORE DUP4 MLOAD DUP5 SWAP1 DUP3 SWAP1 DUP2 LT PUSH2 0xA02 JUMPI PUSH2 0xA02 PUSH2 0x165C JUMP JUMPDEST PUSH1 0x20 MUL PUSH1 0x20 ADD ADD MLOAD PUSH1 0x0 ADD MLOAD PUSH1 0xE0 ADD MLOAD DUP6 PUSH1 0x0 ADD MLOAD DUP3 DUP2 MLOAD DUP2 LT PUSH2 0xA28 JUMPI PUSH2 0xA28 PUSH2 0x165C JUMP JUMPDEST PUSH1 0x20 MUL PUSH1 0x20 ADD ADD MLOAD PUSH1 0x20 ADD DUP2 DUP2 MSTORE POP POP DUP4 DUP2 DUP2 MLOAD DUP2 LT PUSH2 0xA4A JUMPI PUSH2 0xA4A PUSH2 0x165C JUMP JUMPDEST PUSH1 0x20 MUL PUSH1 0x20 ADD ADD MLOAD PUSH1 0x0 ADD MLOAD PUSH1 0xC0 ADD MLOAD DUP6 PUSH1 0x0 ADD MLOAD DUP3 DUP2 MLOAD DUP2 LT PUSH2 0xA70 JUMPI PUSH2 0xA70 PUSH2 0x165C JUMP JUMPDEST PUSH1 0x20 MUL PUSH1 0x20 ADD ADD MLOAD PUSH1 0x40 ADD DUP2 DUP2 MSTORE POP POP DUP4 DUP2 DUP2 MLOAD DUP2 LT PUSH2 0xA92 JUMPI PUSH2 0xA92 PUSH2 0x165C JUMP JUMPDEST PUSH1 0x20 MUL PUSH1 0x20 ADD ADD MLOAD PUSH1 0x0 ADD MLOAD PUSH1 0x60 ADD MLOAD DUP6 PUSH1 0x0 ADD MLOAD DUP3 DUP2 MLOAD DUP2 LT PUSH2 0xAB8 JUMPI PUSH2 0xAB8 PUSH2 0x165C JUMP JUMPDEST PUSH1 0x20 MUL PUSH1 0x20 ADD ADD MLOAD PUSH1 0x80 ADD DUP2 DUP2 MSTORE POP POP DUP4 DUP2 DUP2 MLOAD DUP2 LT PUSH2 0xADA JUMPI PUSH2 0xADA PUSH2 0x165C JUMP JUMPDEST PUSH1 0x20 MUL PUSH1 0x20 ADD ADD MLOAD PUSH1 0x0 ADD MLOAD PUSH2 0x100 ADD MLOAD DUP6 PUSH1 0x0 ADD MLOAD DUP3 DUP2 MLOAD DUP2 LT PUSH2 0xB01 JUMPI PUSH2 0xB01 PUSH2 0x165C JUMP JUMPDEST PUSH1 0x20 MUL PUSH1 0x20 ADD ADD MLOAD PUSH2 0x100 ADD DUP2 SWAP1 MSTORE POP DUP4 DUP2 DUP2 MLOAD DUP2 LT PUSH2 0xB23 JUMPI PUSH2 0xB23 PUSH2 0x165C JUMP JUMPDEST PUSH1 0x20 MUL PUSH1 0x20 ADD ADD MLOAD PUSH1 0x0 ADD MLOAD PUSH1 0x60 ADD MLOAD DUP3 DUP3 DUP2 MLOAD DUP2 LT PUSH2 0xB45 JUMPI PUSH2 0xB45 PUSH2 0x165C JUMP JUMPDEST PUSH1 0x20 SWAP1 DUP2 MUL SWAP2 SWAP1 SWAP2 ADD ADD MSTORE DUP1 PUSH2 0xB5A DUP2 PUSH2 0x1688 JUMP JUMPDEST SWAP2 POP POP PUSH2 0x84F JUMP JUMPDEST POP PUSH1 0x0 PUSH2 0xB6F DUP4 DUP4 PUSH2 0xE9D JUMP JUMPDEST POP SWAP1 POP PUSH1 0x0 JUMPDEST DUP7 MLOAD MLOAD DUP2 LT ISZERO PUSH2 0xBD0 JUMPI DUP2 DUP2 DUP2 MLOAD DUP2 LT PUSH2 0xB91 JUMPI PUSH2 0xB91 PUSH2 0x165C JUMP JUMPDEST PUSH1 0x20 MUL PUSH1 0x20 ADD ADD MLOAD DUP7 PUSH1 0x0 ADD MLOAD DUP3 DUP2 MLOAD DUP2 LT PUSH2 0xBAF JUMPI PUSH2 0xBAF PUSH2 0x165C JUMP JUMPDEST PUSH1 0x20 SWAP1 DUP2 MUL SWAP2 SWAP1 SWAP2 ADD ADD MLOAD PUSH1 0x60 ADD MSTORE DUP1 PUSH2 0xBC8 DUP2 PUSH2 0x1688 JUMP JUMPDEST SWAP2 POP POP PUSH2 0xB75 JUMP JUMPDEST POP POP POP POP POP SWAP2 SWAP1 POP JUMP JUMPDEST PUSH1 0x1 PUSH1 0x40 DUP3 ADD DUP2 SWAP1 MSTORE PUSH1 0x60 DUP3 ADD MSTORE PUSH1 0x0 JUMPDEST DUP2 MLOAD MLOAD DUP2 LT ISZERO PUSH2 0xC55 JUMPI PUSH1 0x0 DUP3 PUSH1 0x0 ADD MLOAD DUP3 DUP2 MLOAD DUP2 LT PUSH2 0xC0D JUMPI PUSH2 0xC0D PUSH2 0x165C JUMP JUMPDEST PUSH1 0x20 MUL PUSH1 0x20 ADD ADD MLOAD SWAP1 POP PUSH2 0xC20 DUP2 PUSH2 0xFF0 JUMP JUMPDEST DUP1 PUSH1 0xA0 ADD MLOAD PUSH2 0xC31 JUMPI PUSH1 0x0 PUSH1 0x40 DUP5 ADD MSTORE JUMPDEST DUP1 PUSH1 0xC0 ADD MLOAD PUSH2 0xC42 JUMPI PUSH1 0x0 PUSH1 0x60 DUP5 ADD MSTORE JUMPDEST POP DUP1 PUSH2 0xC4D DUP2 PUSH2 0x1688 JUMP JUMPDEST SWAP2 POP POP PUSH2 0xBEB JUMP JUMPDEST POP POP JUMP JUMPDEST PUSH1 0x1 PUSH1 0x20 DUP3 ADD MSTORE PUSH1 0x0 JUMPDEST DUP2 MLOAD MLOAD DUP2 LT ISZERO PUSH2 0xC55 JUMPI PUSH1 0x0 DUP3 PUSH1 0x0 ADD MLOAD DUP3 DUP2 MLOAD DUP2 LT PUSH2 0xC85 JUMPI PUSH2 0xC85 PUSH2 0x165C JUMP JUMPDEST PUSH1 0x20 MUL PUSH1 0x20 ADD ADD MLOAD SWAP1 POP PUSH1 0x0 PUSH2 0xCAA PUSH1 0x2 SLOAD DUP4 PUSH1 0x20 ADD MLOAD PUSH2 0x10B8 SWAP1 SWAP2 SWAP1 PUSH4 0xFFFFFFFF AND JUMP JUMPDEST SWAP1 POP PUSH1 0x0 DUP2 PUSH2 0xCCA DUP5 PUSH1 0x60 ADD MLOAD DUP6 PUSH1 0x20 ADD MLOAD PUSH2 0x1107 SWAP1 SWAP2 SWAP1 PUSH4 0xFFFFFFFF AND JUMP JUMPDEST GT ISZERO SWAP1 POP DUP1 DUP6 PUSH1 0x0 ADD MLOAD DUP6 DUP2 MLOAD DUP2 LT PUSH2 0xCE5 JUMPI PUSH2 0xCE5 PUSH2 0x165C JUMP JUMPDEST PUSH1 0x20 SWAP1 DUP2 MUL SWAP2 SWAP1 SWAP2 ADD ADD MLOAD SWAP1 ISZERO ISZERO PUSH1 0xE0 SWAP1 SWAP2 ADD MSTORE DUP1 PUSH2 0xD06 JUMPI PUSH1 0x0 PUSH1 0x20 DUP7 ADD MSTORE JUMPDEST POP POP POP DUP1 DUP1 PUSH2 0xD14 SWAP1 PUSH2 0x1688 JUMP JUMPDEST SWAP2 POP POP PUSH2 0xC63 JUMP JUMPDEST PUSH1 0x0 DUP1 JUMPDEST DUP3 MLOAD MLOAD DUP2 LT ISZERO PUSH2 0x6CC JUMPI PUSH1 0x0 DUP4 PUSH1 0x0 ADD MLOAD DUP3 DUP2 MLOAD DUP2 LT PUSH2 0xD42 JUMPI PUSH2 0xD42 PUSH2 0x165C JUMP JUMPDEST PUSH1 0x20 MUL PUSH1 0x20 ADD ADD MLOAD SWAP1 POP DUP1 PUSH1 0xE0 ADD MLOAD ISZERO PUSH2 0xD5C JUMPI POP PUSH2 0xDB1 JUMP JUMPDEST PUSH1 0x0 PUSH2 0xD79 DUP3 PUSH1 0x20 ADD MLOAD DUP4 PUSH1 0x60 ADD MLOAD PUSH2 0x1107 SWAP1 SWAP2 SWAP1 PUSH4 0xFFFFFFFF AND JUMP JUMPDEST SWAP1 POP PUSH1 0x0 PUSH2 0xD98 DUP4 PUSH1 0x20 ADD MLOAD DUP5 PUSH1 0x40 ADD MLOAD PUSH2 0x1107 SWAP1 SWAP2 SWAP1 PUSH4 0xFFFFFFFF AND JUMP JUMPDEST SWAP1 POP DUP1 DUP3 LT PUSH2 0xDAD JUMPI POP PUSH1 0x0 SWAP6 SWAP5 POP POP POP POP POP JUMP JUMPDEST POP POP POP JUMPDEST DUP1 PUSH2 0xDBB DUP2 PUSH2 0x1688 JUMP JUMPDEST SWAP2 POP POP PUSH2 0xD20 JUMP JUMPDEST PUSH1 0x0 DUP1 JUMPDEST DUP3 MLOAD MLOAD DUP2 LT ISZERO PUSH2 0x6CC JUMPI PUSH1 0x0 DUP4 PUSH1 0x0 ADD MLOAD DUP3 DUP2 MLOAD DUP2 LT PUSH2 0xDE9 JUMPI PUSH2 0xDE9 PUSH2 0x165C JUMP JUMPDEST PUSH1 0x20 MUL PUSH1 0x20 ADD ADD MLOAD SWAP1 POP DUP1 PUSH1 0xA0 ADD MLOAD ISZERO DUP1 ISZERO PUSH2 0xE0D JUMPI POP DUP1 PUSH1 0x40 ADD MLOAD DUP2 PUSH1 0x60 ADD MLOAD LT ISZERO JUMPDEST ISZERO PUSH2 0xE1C JUMPI POP PUSH1 0x0 SWAP4 SWAP3 POP POP POP JUMP JUMPDEST POP DUP1 PUSH2 0xE27 DUP2 PUSH2 0x1688 JUMP JUMPDEST SWAP2 POP POP PUSH2 0xDC7 JUMP JUMPDEST PUSH1 0x0 PUSH1 0xFF DUP3 AND PUSH1 0x12 EQ ISZERO PUSH2 0xE44 JUMPI POP DUP2 PUSH2 0xE97 JUMP JUMPDEST PUSH1 0x12 PUSH1 0xFF DUP4 AND GT ISZERO PUSH2 0xE77 JUMPI PUSH2 0xE5B PUSH1 0x12 DUP4 PUSH2 0x16D2 JUMP JUMPDEST PUSH2 0xE66 SWAP1 PUSH1 0xA PUSH2 0x17D9 JUMP JUMPDEST PUSH2 0xE70 SWAP1 DUP5 PUSH2 0x17E8 JUMP JUMPDEST SWAP1 POP PUSH2 0xE97 JUMP JUMPDEST PUSH2 0xE82 DUP3 PUSH1 0x12 PUSH2 0x16D2 JUMP JUMPDEST PUSH2 0xE8D SWAP1 PUSH1 0xA PUSH2 0x17D9 JUMP JUMPDEST PUSH2 0xE70 SWAP1 DUP5 PUSH2 0x180A JUMP JUMPDEST SWAP3 SWAP2 POP POP JUMP JUMPDEST PUSH1 0x60 PUSH1 0x0 DUP1 DUP4 MLOAD PUSH8 0xFFFFFFFFFFFFFFFF DUP2 GT ISZERO PUSH2 0xEBC JUMPI PUSH2 0xEBC PUSH2 0x11C2 JUMP JUMPDEST PUSH1 0x40 MLOAD SWAP1 DUP1 DUP3 MSTORE DUP1 PUSH1 0x20 MUL PUSH1 0x20 ADD DUP3 ADD PUSH1 0x40 MSTORE DUP1 ISZERO PUSH2 0xEE5 JUMPI DUP2 PUSH1 0x20 ADD PUSH1 0x20 DUP3 MUL DUP1 CALLDATASIZE DUP4 CALLDATACOPY ADD SWAP1 POP JUMPDEST POP SWAP1 POP PUSH1 0x0 DUP1 JUMPDEST DUP7 MLOAD DUP2 LT ISZERO PUSH2 0xF5E JUMPI PUSH1 0x0 PUSH2 0xF3C DUP8 DUP4 DUP2 MLOAD DUP2 LT PUSH2 0xF0C JUMPI PUSH2 0xF0C PUSH2 0x165C JUMP JUMPDEST PUSH1 0x20 MUL PUSH1 0x20 ADD ADD MLOAD DUP10 DUP5 DUP2 MLOAD DUP2 LT PUSH2 0xF26 JUMPI PUSH2 0xF26 PUSH2 0x165C JUMP JUMPDEST PUSH1 0x20 MUL PUSH1 0x20 ADD ADD MLOAD PUSH2 0x1131 SWAP1 SWAP2 SWAP1 PUSH4 0xFFFFFFFF AND JUMP JUMPDEST SWAP1 POP PUSH2 0xF48 DUP2 DUP5 PUSH2 0x16A3 JUMP JUMPDEST SWAP3 POP POP DUP1 DUP1 PUSH2 0xF56 SWAP1 PUSH2 0x1688 JUMP JUMPDEST SWAP2 POP POP PUSH2 0xEEC JUMP JUMPDEST POP DUP1 PUSH2 0xF6E JUMPI SWAP1 SWAP3 POP SWAP1 POP PUSH2 0xFE9 JUMP JUMPDEST PUSH1 0x0 JUMPDEST DUP7 MLOAD DUP2 LT ISZERO PUSH2 0xFE2 JUMPI PUSH2 0xFB3 DUP3 PUSH2 0xFAD DUP9 DUP5 DUP2 MLOAD DUP2 LT PUSH2 0xF93 JUMPI PUSH2 0xF93 PUSH2 0x165C JUMP JUMPDEST PUSH1 0x20 MUL PUSH1 0x20 ADD ADD MLOAD DUP11 DUP6 DUP2 MLOAD DUP2 LT PUSH2 0xF26 JUMPI PUSH2 0xF26 PUSH2 0x165C JUMP JUMPDEST SWAP1 PUSH2 0x115A JUMP JUMPDEST DUP4 DUP3 DUP2 MLOAD DUP2 LT PUSH2 0xFC5 JUMPI PUSH2 0xFC5 PUSH2 0x165C JUMP JUMPDEST PUSH1 0x20 SWAP1 DUP2 MUL SWAP2 SWAP1 SWAP2 ADD ADD MSTORE DUP1 PUSH2 0xFDA DUP2 PUSH2 0x1688 JUMP JUMPDEST SWAP2 POP POP PUSH2 0xF71 JUMP JUMPDEST POP SWAP1 SWAP3 POP SWAP1 POP JUMPDEST SWAP3 POP SWAP3 SWAP1 POP JUMP JUMPDEST PUSH1 0x1 PUSH1 0xA0 DUP3 ADD MSTORE PUSH1 0x0 PUSH1 0xC0 DUP3 ADD DUP2 SWAP1 MSTORE JUMPDEST DUP2 PUSH2 0x100 ADD MLOAD MLOAD DUP2 LT ISZERO PUSH2 0xC55 JUMPI PUSH1 0x0 DUP3 PUSH2 0x100 ADD MLOAD DUP3 DUP2 MLOAD DUP2 LT PUSH2 0x1028 JUMPI PUSH2 0x1028 PUSH2 0x165C JUMP JUMPDEST PUSH1 0x20 MUL PUSH1 0x20 ADD ADD MLOAD PUSH1 0x40 ADD MLOAD SWAP1 POP PUSH1 0x0 DUP4 PUSH2 0x100 ADD MLOAD DUP4 DUP2 MLOAD DUP2 LT PUSH2 0x104F JUMPI PUSH2 0x104F PUSH2 0x165C JUMP JUMPDEST PUSH1 0x20 MUL PUSH1 0x20 ADD ADD MLOAD PUSH1 0x20 ADD MLOAD SWAP1 POP DUP1 ISZERO PUSH2 0x1092 JUMPI PUSH1 0x1 PUSH1 0xC0 DUP6 ADD MSTORE PUSH1 0x3 SLOAD PUSH2 0x107F DUP4 PUSH8 0xDE0B6B3A7640000 PUSH2 0x1107 JUMP JUMPDEST GT ISZERO PUSH2 0x108D JUMPI PUSH1 0x0 PUSH1 0xA0 DUP6 ADD MSTORE JUMPDEST PUSH2 0x10A3 JUMP JUMPDEST PUSH1 0x4 SLOAD DUP3 LT PUSH2 0x10A3 JUMPI PUSH1 0x1 PUSH1 0xC0 DUP6 ADD MSTORE JUMPDEST POP POP DUP1 DUP1 PUSH2 0x10B0 SWAP1 PUSH2 0x1688 JUMP JUMPDEST SWAP2 POP POP PUSH2 0x1001 JUMP JUMPDEST PUSH1 0x0 DUP1 PUSH2 0x10C5 DUP4 DUP6 PUSH2 0x180A JUMP JUMPDEST SWAP1 POP DUP1 PUSH2 0x10D6 JUMPI PUSH1 0x0 SWAP2 POP POP PUSH2 0xE97 JUMP JUMPDEST PUSH8 0xDE0B6B3A7640000 PUSH2 0x10EA PUSH1 0x1 DUP4 PUSH2 0x16BB JUMP JUMPDEST PUSH2 0x10F4 SWAP2 SWAP1 PUSH2 0x17E8 JUMP JUMPDEST PUSH2 0x10FF SWAP1 PUSH1 0x1 PUSH2 0x16A3 JUMP JUMPDEST SWAP2 POP POP PUSH2 0xE97 JUMP JUMPDEST PUSH1 0x0 DUP2 DUP4 LT ISZERO PUSH2 0x1120 JUMPI PUSH2 0x111B DUP4 DUP4 PUSH2 0x16BB JUMP JUMPDEST PUSH2 0x112A JUMP JUMPDEST PUSH2 0x112A DUP3 DUP5 PUSH2 0x16BB JUMP JUMPDEST SWAP4 SWAP3 POP POP POP JUMP JUMPDEST PUSH1 0x0 DUP1 PUSH2 0x113E DUP4 DUP6 PUSH2 0x180A JUMP JUMPDEST SWAP1 POP PUSH2 0x1152 PUSH8 0xDE0B6B3A7640000 DUP3 PUSH2 0x17E8 JUMP JUMPDEST SWAP5 SWAP4 POP POP POP POP JUMP JUMPDEST PUSH1 0x40 DUP1 MLOAD DUP1 DUP3 ADD SWAP1 SWAP2 MSTORE PUSH1 0x2 DUP2 MSTORE PUSH2 0x3235 PUSH1 0xF0 SHL PUSH1 0x20 DUP3 ADD MSTORE PUSH1 0x0 SWAP1 DUP3 PUSH2 0x1194 JUMPI PUSH1 0x40 MLOAD PUSH3 0x461BCD PUSH1 0xE5 SHL DUP2 MSTORE PUSH1 0x4 ADD PUSH2 0x269 SWAP2 SWAP1 PUSH2 0x15D3 JUMP JUMPDEST POP DUP3 PUSH2 0x11A2 JUMPI POP PUSH1 0x0 PUSH2 0xE97 JUMP JUMPDEST PUSH1 0x0 PUSH2 0x11B6 PUSH8 0xDE0B6B3A7640000 DUP6 PUSH2 0x180A JUMP JUMPDEST SWAP1 POP PUSH2 0x10FF DUP4 DUP3 PUSH2 0x17E8 JUMP JUMPDEST PUSH4 0x4E487B71 PUSH1 0xE0 SHL PUSH1 0x0 MSTORE PUSH1 0x41 PUSH1 0x4 MSTORE PUSH1 0x24 PUSH1 0x0 REVERT JUMPDEST PUSH1 0x40 MLOAD PUSH1 0x60 DUP2 ADD PUSH8 0xFFFFFFFFFFFFFFFF DUP2 GT DUP3 DUP3 LT OR ISZERO PUSH2 0x11FB JUMPI PUSH2 0x11FB PUSH2 0x11C2 JUMP JUMPDEST PUSH1 0x40 MSTORE SWAP1 JUMP JUMPDEST PUSH1 0x40 DUP1 MLOAD SWAP1 DUP2 ADD PUSH8 0xFFFFFFFFFFFFFFFF DUP2 GT DUP3 DUP3 LT OR ISZERO PUSH2 0x11FB JUMPI PUSH2 0x11FB PUSH2 0x11C2 JUMP JUMPDEST PUSH1 0x40 MLOAD PUSH2 0x120 DUP2 ADD PUSH8 0xFFFFFFFFFFFFFFFF DUP2 GT DUP3 DUP3 LT OR ISZERO PUSH2 0x11FB JUMPI PUSH2 0x11FB PUSH2 0x11C2 JUMP JUMPDEST PUSH1 0x40 MLOAD PUSH1 0x1F DUP3 ADD PUSH1 0x1F NOT AND DUP2 ADD PUSH8 0xFFFFFFFFFFFFFFFF DUP2 GT DUP3 DUP3 LT OR ISZERO PUSH2 0x1271 JUMPI PUSH2 0x1271 PUSH2 0x11C2 JUMP JUMPDEST PUSH1 0x40 MSTORE SWAP2 SWAP1 POP JUMP JUMPDEST PUSH1 0x0 PUSH8 0xFFFFFFFFFFFFFFFF DUP3 GT ISZERO PUSH2 0x1293 JUMPI PUSH2 0x1293 PUSH2 0x11C2 JUMP JUMPDEST POP PUSH1 0x5 SHL PUSH1 0x20 ADD SWAP1 JUMP JUMPDEST DUP1 CALLDATALOAD PUSH1 0x1 PUSH1 0x1 PUSH1 0xA0 SHL SUB DUP2 AND DUP2 EQ PUSH2 0x12B4 JUMPI PUSH1 0x0 DUP1 REVERT JUMPDEST SWAP2 SWAP1 POP JUMP JUMPDEST DUP1 CALLDATALOAD PUSH1 0xFF DUP2 AND DUP2 EQ PUSH2 0x12B4 JUMPI PUSH1 0x0 DUP1 REVERT JUMPDEST PUSH1 0x0 PUSH1 0x80 DUP3 DUP5 SUB SLT ISZERO PUSH2 0x12DC JUMPI PUSH1 0x0 DUP1 REVERT JUMPDEST PUSH1 0x40 MLOAD PUSH1 0x80 DUP2 ADD DUP2 DUP2 LT PUSH8 0xFFFFFFFFFFFFFFFF DUP3 GT OR ISZERO PUSH2 0x12FF JUMPI PUSH2 0x12FF PUSH2 0x11C2 JUMP JUMPDEST DUP1 PUSH1 0x40 MSTORE POP DUP1 SWAP2 POP DUP3 CALLDATALOAD DUP2 MSTORE PUSH1 0x20 DUP4 ADD CALLDATALOAD PUSH1 0x20 DUP3 ADD MSTORE PUSH1 0x40 DUP4 ADD CALLDATALOAD PUSH1 0x40 DUP3 ADD MSTORE PUSH1 0x60 DUP4 ADD CALLDATALOAD PUSH1 0x60 DUP3 ADD MSTORE POP SWAP3 SWAP2 POP POP JUMP JUMPDEST DUP1 CALLDATALOAD DUP1 ISZERO ISZERO DUP2 EQ PUSH2 0x12B4 JUMPI PUSH1 0x0 DUP1 REVERT JUMPDEST PUSH1 0x0 DUP3 PUSH1 0x1F DUP4 ADD SLT PUSH2 0x1351 JUMPI PUSH1 0x0 DUP1 REVERT JUMPDEST DUP2 CALLDATALOAD PUSH1 0x20 PUSH2 0x1366 PUSH2 0x1361 DUP4 PUSH2 0x1279 JUMP JUMPDEST PUSH2 0x1248 JUMP JUMPDEST DUP3 DUP2 MSTORE PUSH1 0x60 SWAP3 DUP4 MUL DUP6 ADD DUP3 ADD SWAP3 DUP3 DUP3 ADD SWAP2 SWAP1 DUP8 DUP6 GT ISZERO PUSH2 0x1385 JUMPI PUSH1 0x0 DUP1 REVERT JUMPDEST DUP4 DUP8 ADD JUMPDEST DUP6 DUP2 LT ISZERO PUSH2 0x13DA JUMPI DUP2 DUP2 DUP11 SUB SLT ISZERO PUSH2 0x13A1 JUMPI PUSH1 0x0 DUP1 DUP2 REVERT JUMPDEST PUSH2 0x13A9 PUSH2 0x11D8 JUMP JUMPDEST PUSH2 0x13B2 DUP3 PUSH2 0x129D JUMP JUMPDEST DUP2 MSTORE PUSH2 0x13BF DUP7 DUP4 ADD PUSH2 0x1330 JUMP JUMPDEST DUP2 DUP8 ADD MSTORE PUSH1 0x40 DUP3 DUP2 ADD CALLDATALOAD SWAP1 DUP3 ADD MSTORE DUP5 MSTORE SWAP3 DUP5 ADD SWAP3 DUP2 ADD PUSH2 0x1389 JUMP JUMPDEST POP SWAP1 SWAP8 SWAP7 POP POP POP POP POP POP POP JUMP JUMPDEST PUSH1 0x0 PUSH1 0x20 DUP3 DUP5 SUB SLT ISZERO PUSH2 0x13F9 JUMPI PUSH1 0x0 DUP1 REVERT JUMPDEST PUSH8 0xFFFFFFFFFFFFFFFF DUP1 DUP4 CALLDATALOAD GT ISZERO PUSH2 0x1410 JUMPI PUSH1 0x0 DUP1 REVERT JUMPDEST PUSH1 0x40 DUP4 CALLDATALOAD DUP5 ADD DUP6 SUB SLT ISZERO PUSH2 0x1423 JUMPI PUSH1 0x0 DUP1 REVERT JUMPDEST PUSH2 0x142B PUSH2 0x1201 JUMP JUMPDEST DUP2 DUP5 CALLDATALOAD DUP6 ADD CALLDATALOAD GT ISZERO PUSH2 0x143C JUMPI PUSH1 0x0 DUP1 REVERT JUMPDEST DUP4 CALLDATALOAD DUP5 ADD DUP1 CALLDATALOAD ADD PUSH1 0x1F DUP2 ADD DUP7 SGT PUSH2 0x1452 JUMPI PUSH1 0x0 DUP1 REVERT JUMPDEST PUSH2 0x145F PUSH2 0x1361 DUP3 CALLDATALOAD PUSH2 0x1279 JUMP JUMPDEST DUP2 CALLDATALOAD DUP1 DUP3 MSTORE PUSH1 0x20 DUP1 DUP4 ADD SWAP3 SWAP2 PUSH1 0x5 SHL DUP5 ADD ADD DUP9 LT ISZERO PUSH2 0x147D JUMPI PUSH1 0x0 DUP1 REVERT JUMPDEST PUSH1 0x20 DUP4 ADD JUMPDEST PUSH1 0x20 DUP5 CALLDATALOAD PUSH1 0x5 SHL DUP6 ADD ADD DUP2 LT ISZERO PUSH2 0x15B1 JUMPI DUP6 DUP2 CALLDATALOAD GT ISZERO PUSH2 0x14A1 JUMPI PUSH1 0x0 DUP1 REVERT JUMPDEST DUP1 CALLDATALOAD DUP5 ADD PUSH1 0x1F NOT PUSH1 0x40 DUP3 DUP13 SUB DUP3 ADD SLT ISZERO PUSH2 0x14BA JUMPI PUSH1 0x0 DUP1 REVERT JUMPDEST PUSH2 0x14C2 PUSH2 0x1201 JUMP JUMPDEST DUP9 PUSH1 0x20 DUP5 ADD CALLDATALOAD GT ISZERO PUSH2 0x14D3 JUMPI PUSH1 0x0 DUP1 REVERT JUMPDEST PUSH1 0x20 DUP4 ADD CALLDATALOAD DUP4 ADD PUSH2 0x180 DUP4 DUP3 DUP16 SUB ADD SLT ISZERO PUSH2 0x14ED JUMPI PUSH1 0x0 DUP1 REVERT JUMPDEST PUSH2 0x14F5 PUSH2 0x1224 JUMP JUMPDEST SWAP3 POP PUSH2 0x1503 PUSH1 0x20 DUP3 ADD PUSH2 0x129D JUMP JUMPDEST DUP4 MSTORE PUSH2 0x1511 PUSH1 0x40 DUP3 ADD PUSH2 0x12B9 JUMP JUMPDEST PUSH1 0x20 DUP5 ADD MSTORE PUSH2 0x1522 PUSH1 0x60 DUP3 ADD PUSH2 0x129D JUMP JUMPDEST PUSH1 0x40 DUP5 ADD MSTORE PUSH1 0x80 DUP2 ADD CALLDATALOAD PUSH1 0x60 DUP5 ADD MSTORE PUSH2 0x153E DUP14 PUSH1 0xA0 DUP4 ADD PUSH2 0x12CA JUMP JUMPDEST PUSH1 0x80 DUP5 ADD MSTORE PUSH2 0x120 DUP2 ADD CALLDATALOAD PUSH1 0xA0 DUP5 ADD MSTORE PUSH2 0x140 DUP2 ADD CALLDATALOAD PUSH1 0xC0 DUP5 ADD MSTORE PUSH2 0x160 DUP2 ADD CALLDATALOAD PUSH1 0xE0 DUP5 ADD MSTORE DUP10 PUSH2 0x180 DUP3 ADD CALLDATALOAD GT ISZERO PUSH2 0x1576 JUMPI PUSH1 0x0 DUP1 REVERT JUMPDEST PUSH2 0x158A DUP14 PUSH1 0x20 PUSH2 0x180 DUP5 ADD CALLDATALOAD DUP5 ADD ADD PUSH2 0x1340 JUMP JUMPDEST PUSH2 0x100 DUP5 ADD MSTORE POP SWAP1 DUP2 MSTORE PUSH1 0x40 SWAP2 SWAP1 SWAP2 ADD CALLDATALOAD PUSH1 0x20 DUP1 DUP4 ADD SWAP2 SWAP1 SWAP2 MSTORE SWAP1 DUP5 MSTORE SWAP3 DUP4 ADD SWAP3 ADD PUSH2 0x1482 JUMP JUMPDEST POP DUP4 MSTORE POP PUSH2 0x15C6 SWAP1 POP DUP5 CALLDATALOAD DUP6 ADD PUSH1 0x20 ADD PUSH2 0x1330 JUMP JUMPDEST PUSH1 0x20 DUP3 ADD MSTORE SWAP5 SWAP4 POP POP POP POP JUMP JUMPDEST PUSH1 0x0 PUSH1 0x20 DUP1 DUP4 MSTORE DUP4 MLOAD DUP1 DUP3 DUP6 ADD MSTORE PUSH1 0x0 JUMPDEST DUP2 DUP2 LT ISZERO PUSH2 0x1600 JUMPI DUP6 DUP2 ADD DUP4 ADD MLOAD DUP6 DUP3 ADD PUSH1 0x40 ADD MSTORE DUP3 ADD PUSH2 0x15E4 JUMP JUMPDEST DUP2 DUP2 GT ISZERO PUSH2 0x1612 JUMPI PUSH1 0x0 PUSH1 0x40 DUP4 DUP8 ADD ADD MSTORE JUMPDEST POP PUSH1 0x1F ADD PUSH1 0x1F NOT AND SWAP3 SWAP1 SWAP3 ADD PUSH1 0x40 ADD SWAP4 SWAP3 POP POP POP JUMP JUMPDEST PUSH1 0x0 PUSH1 0x20 DUP3 DUP5 SUB SLT ISZERO PUSH2 0x163A JUMPI PUSH1 0x0 DUP1 REVERT JUMPDEST POP CALLDATALOAD SWAP2 SWAP1 POP JUMP JUMPDEST PUSH1 0x0 PUSH1 0x20 DUP3 DUP5 SUB SLT ISZERO PUSH2 0x1653 JUMPI PUSH1 0x0 DUP1 REVERT JUMPDEST PUSH2 0x112A DUP3 PUSH2 0x129D JUMP JUMPDEST PUSH4 0x4E487B71 PUSH1 0xE0 SHL PUSH1 0x0 MSTORE PUSH1 0x32 PUSH1 0x4 MSTORE PUSH1 0x24 PUSH1 0x0 REVERT JUMPDEST PUSH4 0x4E487B71 PUSH1 0xE0 SHL PUSH1 0x0 MSTORE PUSH1 0x11 PUSH1 0x4 MSTORE PUSH1 0x24 PUSH1 0x0 REVERT JUMPDEST PUSH1 0x0 PUSH1 0x0 NOT DUP3 EQ ISZERO PUSH2 0x169C JUMPI PUSH2 0x169C PUSH2 0x1672 JUMP JUMPDEST POP PUSH1 0x1 ADD SWAP1 JUMP JUMPDEST PUSH1 0x0 DUP3 NOT DUP3 GT ISZERO PUSH2 0x16B6 JUMPI PUSH2 0x16B6 PUSH2 0x1672 JUMP JUMPDEST POP ADD SWAP1 JUMP JUMPDEST PUSH1 0x0 DUP3 DUP3 LT ISZERO PUSH2 0x16CD JUMPI PUSH2 0x16CD PUSH2 0x1672 JUMP JUMPDEST POP SUB SWAP1 JUMP JUMPDEST PUSH1 0x0 PUSH1 0xFF DUP3 AND PUSH1 0xFF DUP5 AND DUP1 DUP3 LT ISZERO PUSH2 0x16EC JUMPI PUSH2 0x16EC PUSH2 0x1672 JUMP JUMPDEST SWAP1 SUB SWAP4 SWAP3 POP POP POP JUMP JUMPDEST PUSH1 0x1 DUP2 DUP2 JUMPDEST DUP1 DUP6 GT ISZERO PUSH2 0x1730 JUMPI DUP2 PUSH1 0x0 NOT DIV DUP3 GT ISZERO PUSH2 0x1716 JUMPI PUSH2 0x1716 PUSH2 0x1672 JUMP JUMPDEST DUP1 DUP6 AND ISZERO PUSH2 0x1723 JUMPI SWAP2 DUP2 MUL SWAP2 JUMPDEST SWAP4 DUP5 SHR SWAP4 SWAP1 DUP1 MUL SWAP1 PUSH2 0x16FA JUMP JUMPDEST POP SWAP3 POP SWAP3 SWAP1 POP JUMP JUMPDEST PUSH1 0x0 DUP3 PUSH2 0x1747 JUMPI POP PUSH1 0x1 PUSH2 0xE97 JUMP JUMPDEST DUP2 PUSH2 0x1754 JUMPI POP PUSH1 0x0 PUSH2 0xE97 JUMP JUMPDEST DUP2 PUSH1 0x1 DUP2 EQ PUSH2 0x176A JUMPI PUSH1 0x2 DUP2 EQ PUSH2 0x1774 JUMPI PUSH2 0x1790 JUMP JUMPDEST PUSH1 0x1 SWAP2 POP POP PUSH2 0xE97 JUMP JUMPDEST PUSH1 0xFF DUP5 GT ISZERO PUSH2 0x1785 JUMPI PUSH2 0x1785 PUSH2 0x1672 JUMP JUMPDEST POP POP PUSH1 0x1 DUP3 SHL PUSH2 0xE97 JUMP JUMPDEST POP PUSH1 0x20 DUP4 LT PUSH2 0x133 DUP4 LT AND PUSH1 0x4E DUP5 LT PUSH1 0xB DUP5 LT AND OR ISZERO PUSH2 0x17B3 JUMPI POP DUP2 DUP2 EXP PUSH2 0xE97 JUMP JUMPDEST PUSH2 0x17BD DUP4 DUP4 PUSH2 0x16F5 JUMP JUMPDEST DUP1 PUSH1 0x0 NOT DIV DUP3 GT ISZERO PUSH2 0x17D1 JUMPI PUSH2 0x17D1 PUSH2 0x1672 JUMP JUMPDEST MUL SWAP4 SWAP3 POP POP POP JUMP JUMPDEST PUSH1 0x0 PUSH2 0x112A PUSH1 0xFF DUP5 AND DUP4 PUSH2 0x1738 JUMP JUMPDEST PUSH1 0x0 DUP3 PUSH2 0x1805 JUMPI PUSH4 0x4E487B71 PUSH1 0xE0 SHL PUSH1 0x0 MSTORE PUSH1 0x12 PUSH1 0x4 MSTORE PUSH1 0x24 PUSH1 0x0 REVERT JUMPDEST POP DIV SWAP1 JUMP JUMPDEST PUSH1 0x0 DUP2 PUSH1 0x0 NOT DIV DUP4 GT DUP3 ISZERO ISZERO AND ISZERO PUSH2 0x1824 JUMPI PUSH2 0x1824 PUSH2 0x1672 JUMP JUMPDEST POP MUL SWAP1 JUMP INVALID LOG2 PUSH5 0x6970667358 0x22 SLT KECCAK256 DUP2 SWAP12 DUP7 SIGNEXTEND 0xCB SWAP9 0xE1 PUSH16 0x887E377DCCFD7A06B2B5372E0871F09B 0xAD 0xA7 0xBB 0xC0 0xD2 0xBA DUP12 0x4A PUSH5 0x736F6C6343 STOP ADDMOD EXP STOP CALLER ","sha1":"ee1ce478a1ffbc0b28a30ca8920d6868d6f4dcff","source":"// SPDX-License-Identifier: LicenseRef-Gyro-1.0\n// for information on licensing please see the README in the GitHub repository <https://github.com/gyrostable/core-protocol>.\npragma solidity ^0.8.10;\n\nimport \"@openzeppelin/contracts/token/ERC20/utils/SafeERC20.sol\";\nimport \"@openzeppelin/contracts/token/ERC20/ERC20.sol\";\n\nimport \"./../auth/Governable.sol\";\nimport \"../../libraries/DataTypes.sol\";\nimport \"../../libraries/DecimalScale.sol\";\nimport \"../../libraries/FixedPoint.sol\";\nimport \"../../interfaces/IGyroVault.sol\";\nimport \"../../interfaces/balancer/IVault.sol\";\nimport \"../../libraries/Errors.sol\";\nimport \"../../interfaces/ISafetyCheck.sol\";\n\ncontract ReserveSafetyManager is Governable, ISafetyCheck {\n    using FixedPoint for uint256;\n    using DecimalScale for uint256;\n\n    uint256 public maxAllowedVaultDeviation;\n    uint256 public stablecoinMaxDeviation;\n    uint256 public minTokenPrice;\n\n    /// @notice a stablecoin should be equal to 1 USD\n    uint256 public constant STABLECOIN_IDEAL_PRICE = 1e18;\n\n    constructor(\n        address _governor,\n        uint256 _maxAllowedVaultDeviation,\n        uint256 _stablecoinMaxDeviation,\n        uint256 _minTokenPrice\n    ) Governable(_governor) {\n        maxAllowedVaultDeviation = _maxAllowedVaultDeviation;\n        stablecoinMaxDeviation = _stablecoinMaxDeviation;\n        minTokenPrice = _minTokenPrice;\n    }\n\n    function setVaultMaxDeviation(uint256 _maxAllowedVaultDeviation) external governanceOnly {\n        maxAllowedVaultDeviation = _maxAllowedVaultDeviation;\n    }\n\n    function setMinTokenPrice(uint256 _minTokenPrice) external governanceOnly {\n        minTokenPrice = _minTokenPrice;\n    }\n\n    function setStablecoinMaxDeviation(uint256 _stablecoinMaxDeviation) external governanceOnly {\n        stablecoinMaxDeviation = _stablecoinMaxDeviation;\n    }\n\n    /// @notice For given token amounts and token prices, calculates the weight of each token with\n    /// respect to the quote price as well as the total value of the basket in terms of the quote price\n    /// @param amounts an array of token amounts\n    /// @param prices an array of prices\n    /// @return (weights, total) where the weights is an array and the total a uint\n    function _calculateWeightsAndTotal(uint256[] memory amounts, uint256[] memory prices)\n        internal\n        pure\n        returns (uint256[] memory, uint256)\n    {\n        uint256[] memory weights = new uint256[](prices.length);\n\n        uint256 total = 0;\n        for (uint256 i = 0; i < amounts.length; i++) {\n            uint256 amountInUSD = amounts[i].mulDown(prices[i]);\n            total += amountInUSD;\n        }\n\n        if (total == 0) {\n            return (weights, total);\n        }\n\n        for (uint256 i = 0; i < amounts.length; i++) {\n            weights[i] = amounts[i].mulDown(prices[i]).divDown(total);\n        }\n\n        return (weights, total);\n    }\n\n    /// @notice checks for all vaults whether if a particular vault contains a stablecoin that is off its peg,\n    /// whether the proposed change to the vault would be reducing the weight of the vault with the failed asset (as desired).\n    /// @param metaData an metadata struct containing all the vault information. Must be fully updated with the price\n    /// safety and epsilon data.\n    /// @return bool of whether all vaults exhibit this weight decreasing behavior\n    function _vaultWeightWithOffPegFalls(DataTypes.Metadata memory metaData)\n        internal\n        pure\n        returns (bool)\n    {\n        for (uint256 i; i < metaData.vaultMetadata.length; i++) {\n            DataTypes.VaultMetadata memory vaultData = metaData.vaultMetadata[i];\n\n            if (\n                !vaultData.allStablecoinsOnPeg &&\n                vaultData.resultingWeight >= vaultData.currentWeight\n            ) {\n                return false;\n            }\n        }\n\n        return true;\n    }\n\n    function isRedeemFeasible(DataTypes.Order memory order) internal pure returns (bool) {\n        for (uint256 i = 0; i < order.vaultsWithAmount.length; i++) {\n            if (\n                order.vaultsWithAmount[i].vaultInfo.reserveBalance <\n                order.vaultsWithAmount[i].amount\n            ) {\n                return false;\n            }\n        }\n\n        return true;\n    }\n\n    /// @notice this function takes an order struct and builds the metadata struct, for use in this contract.\n    /// @param order an order struct received by the Reserve Safety Manager contract\n    /// @return metaData object\n    function _buildMetaData(DataTypes.Order memory order)\n        internal\n        pure\n        returns (DataTypes.Metadata memory metaData)\n    {\n        DataTypes.VaultWithAmount[] memory vaultsWithAmount = order.vaultsWithAmount;\n\n        metaData.mint = order.mint;\n        metaData.vaultMetadata = new DataTypes.VaultMetadata[](order.vaultsWithAmount.length);\n\n        uint256[] memory resultingAmounts = new uint256[](vaultsWithAmount.length);\n        uint256[] memory prices = new uint256[](vaultsWithAmount.length);\n\n        for (uint256 i = 0; i < vaultsWithAmount.length; i++) {\n            if (order.mint) {\n                resultingAmounts[i] =\n                    vaultsWithAmount[i].vaultInfo.reserveBalance +\n                    vaultsWithAmount[i].amount;\n            } else {\n                resultingAmounts[i] =\n                    vaultsWithAmount[i].vaultInfo.reserveBalance -\n                    vaultsWithAmount[i].amount;\n            }\n            resultingAmounts[i] = resultingAmounts[i].scaleFrom(\n                vaultsWithAmount[i].vaultInfo.decimals\n            );\n\n            metaData.vaultMetadata[i].vault = vaultsWithAmount[i].vaultInfo.vault;\n            metaData.vaultMetadata[i].idealWeight = vaultsWithAmount[i].vaultInfo.idealWeight;\n            metaData.vaultMetadata[i].currentWeight = vaultsWithAmount[i].vaultInfo.currentWeight;\n            metaData.vaultMetadata[i].price = vaultsWithAmount[i].vaultInfo.price;\n            metaData.vaultMetadata[i].pricedTokens = vaultsWithAmount[i].vaultInfo.pricedTokens;\n            prices[i] = vaultsWithAmount[i].vaultInfo.price;\n        }\n\n        (uint256[] memory resultingWeights, ) = _calculateWeightsAndTotal(resultingAmounts, prices);\n\n        for (uint256 i = 0; i < order.vaultsWithAmount.length; i++) {\n            metaData.vaultMetadata[i].resultingWeight = resultingWeights[i];\n        }\n    }\n\n    /// @notice given input metadata, updates it with the information about whether the vault would remain within\n    /// an acceptable band (+/- epsilon) around the ideal weight for the vault.\n    /// @param metaData a metadata struct containing all the vault information.\n    function _updateMetaDataWithEpsilonStatus(DataTypes.Metadata memory metaData) internal view {\n        metaData.allVaultsWithinEpsilon = true;\n\n        for (uint256 i = 0; i < metaData.vaultMetadata.length; i++) {\n            DataTypes.VaultMetadata memory vaultData = metaData.vaultMetadata[i];\n            uint256 scaledEpsilon = vaultData.idealWeight.mulUp(maxAllowedVaultDeviation);\n            bool withinEpsilon = vaultData.idealWeight.absSub(vaultData.resultingWeight) <=\n                scaledEpsilon;\n\n            metaData.vaultMetadata[i].vaultWithinEpsilon = withinEpsilon;\n\n            if (!withinEpsilon) {\n                metaData.allVaultsWithinEpsilon = false;\n            }\n        }\n    }\n\n    /// @notice given input vaultMetadata, updates it with the information about whether the vault contains assets\n    /// with safe prices. For a stablecoin, safe means the asset is sufficiently close to the peg. For a\n    /// vault consisting of entirely non-stablecoin assets, this means that at least one of the prices is not 'dust',\n    /// to avoid numerical error.\n    /// @param vaultMetadata a VaultMetadata struct containing information for a particular vault.\n    function _updateVaultWithPriceSafety(DataTypes.VaultMetadata memory vaultMetadata)\n        internal\n        view\n    {\n        vaultMetadata.allStablecoinsOnPeg = true;\n        vaultMetadata.atLeastOnePriceLargeEnough = false;\n        for (uint256 i = 0; i < vaultMetadata.pricedTokens.length; i++) {\n            uint256 tokenPrice = vaultMetadata.pricedTokens[i].price;\n            bool isStable = vaultMetadata.pricedTokens[i].isStable;\n\n            if (isStable) {\n                vaultMetadata.atLeastOnePriceLargeEnough = true;\n                if (tokenPrice.absSub(STABLECOIN_IDEAL_PRICE) > stablecoinMaxDeviation) {\n                    vaultMetadata.allStablecoinsOnPeg = false;\n                }\n            } else if (tokenPrice >= minTokenPrice) {\n                vaultMetadata.atLeastOnePriceLargeEnough = true;\n            }\n        }\n    }\n\n    /// @notice given input metadata, updates it with the information about whether all vaults contains assets with\n    /// safe prices as determined by the _updateVaultWithPriceSafety function.\n    /// @param metaData a metadata struct containing all the vault information.\n    function _updateMetadataWithPriceSafety(DataTypes.Metadata memory metaData) internal view {\n        metaData.allStablecoinsAllVaultsOnPeg = true;\n        metaData.allVaultsUsingLargeEnoughPrices = true;\n        for (uint256 i = 0; i < metaData.vaultMetadata.length; i++) {\n            DataTypes.VaultMetadata memory vaultData = metaData.vaultMetadata[i];\n            _updateVaultWithPriceSafety(vaultData);\n            if (!vaultData.allStablecoinsOnPeg) {\n                metaData.allStablecoinsAllVaultsOnPeg = false;\n            }\n            if (!vaultData.atLeastOnePriceLargeEnough) {\n                metaData.allVaultsUsingLargeEnoughPrices = false;\n            }\n        }\n    }\n\n    /// @notice given input metadata,\n    /// @param metaData a metadata struct containing all the vault information, updated with price safety and the\n    /// status of the vault regarding whether it is within epsilon.\n    /// @return bool equal to true if for any pool that is outside of epsilon, the weight after the mint/redeem will\n    /// be closer to the ideal weight than the current weight is, i.e., the operation promotes rebalancing.\n    function _safeToExecuteOutsideEpsilon(DataTypes.Metadata memory metaData)\n        internal\n        pure\n        returns (bool)\n    {\n        //Check that amount above maxAllowedVaultDeviation is decreasing\n        //Check that unhealthy pools have input weight below ideal weight\n        //If both true, then mint\n        //note: should always be able to mint at the ideal weights!\n\n        for (uint256 i; i < metaData.vaultMetadata.length; i++) {\n            DataTypes.VaultMetadata memory vaultMetadata = metaData.vaultMetadata[i];\n\n            if (vaultMetadata.vaultWithinEpsilon) {\n                continue;\n            }\n\n            uint256 distanceResultingToIdeal = vaultMetadata.resultingWeight.absSub(\n                vaultMetadata.idealWeight\n            );\n            uint256 distanceCurrentToIdeal = vaultMetadata.currentWeight.absSub(\n                vaultMetadata.idealWeight\n            );\n\n            if (distanceResultingToIdeal >= distanceCurrentToIdeal) {\n                return false;\n            }\n        }\n\n        return true;\n    }\n\n    /// @inheritdoc ISafetyCheck\n    function isMintSafe(DataTypes.Order memory order) public view returns (string memory) {\n        DataTypes.Metadata memory metaData = _buildMetaData(order);\n\n        _updateMetadataWithPriceSafety(metaData);\n        _updateMetaDataWithEpsilonStatus(metaData);\n\n        if (!metaData.allVaultsUsingLargeEnoughPrices) {\n            return Errors.TOKEN_PRICES_TOO_SMALL;\n        }\n\n        bool stableCoinsSafe = metaData.allStablecoinsAllVaultsOnPeg ||\n            _vaultWeightWithOffPegFalls(metaData);\n        bool epsilonSafe = metaData.allVaultsWithinEpsilon ||\n            _safeToExecuteOutsideEpsilon(metaData);\n\n        if (stableCoinsSafe && epsilonSafe) {\n            return \"\";\n        }\n\n        return Errors.NOT_SAFE_TO_MINT;\n    }\n\n    /// @inheritdoc ISafetyCheck\n    function isRedeemSafe(DataTypes.Order memory order) public view returns (string memory) {\n        if (!isRedeemFeasible(order)) {\n            return Errors.TRYING_TO_REDEEM_MORE_THAN_VAULT_CONTAINS;\n        }\n\n        DataTypes.Metadata memory metaData = _buildMetaData(order);\n\n        _updateMetadataWithPriceSafety(metaData);\n        _updateMetaDataWithEpsilonStatus(metaData);\n\n        if (!metaData.allVaultsUsingLargeEnoughPrices) {\n            return Errors.TOKEN_PRICES_TOO_SMALL;\n        }\n\n        if (metaData.allVaultsWithinEpsilon || _safeToExecuteOutsideEpsilon(metaData)) {\n            return \"\";\n        }\n\n        return Errors.NOT_SAFE_TO_REDEEM;\n    }\n\n    /// @inheritdoc ISafetyCheck\n    function checkAndPersistMint(DataTypes.Order memory order) external view {\n        string memory err = isMintSafe(order);\n        require(bytes(err).length == 0, err);\n    }\n\n    /// @inheritdoc ISafetyCheck\n    function checkAndPersistRedeem(DataTypes.Order memory order) external view {\n        string memory err = isRedeemSafe(order);\n        require(bytes(err).length == 0, err);\n    }\n}\n","sourcePath":"contracts/safety/ReserveSafetyManager.sol","type":"contract","deployment":{"address":"0x747FA9A07EBc03B06900864aE534d7268f7B04CF","chainid":"137","blockHeight":36345152}}