{"abi":[{"inputs":[{"internalType":"contract IGyroVault","name":"vault","type":"address"},{"components":[{"internalType":"address","name":"tokenAddress","type":"address"},{"internalType":"bool","name":"isStable","type":"bool"},{"internalType":"uint256","name":"price","type":"uint256"}],"internalType":"struct DataTypes.PricedToken[]","name":"underlyingPricedTokens","type":"tuple[]"}],"name":"getPoolTokenPriceUSD","outputs":[{"internalType":"uint256","name":"","type":"uint256"}],"stateMutability":"view","type":"function"},{"inputs":[{"internalType":"contract IGyroVault","name":"vault","type":"address"},{"components":[{"internalType":"address","name":"tokenAddress","type":"address"},{"internalType":"bool","name":"isStable","type":"bool"},{"internalType":"uint256","name":"price","type":"uint256"}],"internalType":"struct DataTypes.PricedToken[]","name":"underlyingPricedTokens","type":"tuple[]"}],"name":"getPriceUSD","outputs":[{"internalType":"uint256","name":"","type":"uint256"}],"stateMutability":"view","type":"function"}],"bytecode":"608060405234801561001057600080fd5b506115ef806100206000396000f3fe608060405234801561001057600080fd5b50600436106100365760003560e01c8063b141266e1461003b578063b7bb2fe014610060575b600080fd5b61004e610049366004611359565b610073565b60405190815260200160405180910390f35b61004e61006e366004611359565b610160565b600080836001600160a01b0316636f307dc36040518163ffffffff1660e01b8152600401602060405180830381865afa1580156100b4573d6000803e3d6000fd5b505050506040513d601f19601f820116820180604052508101906100d8919061145a565b9050610156816001600160a01b031663d60ca6036040518163ffffffff1660e01b8152600401602060405180830381865afa15801561011b573d6000803e3d6000fd5b505050506040513d601f19601f8201168201806040525081019061013f919061147e565b610148836101db565b610151866102ba565b610364565b9150505b92915050565b60008061016d8484610073565b9050610156846001600160a01b0316633ba0b9a96040518163ffffffff1660e01b8152600401602060405180830381865afa1580156101b0573d6000803e3d6000fd5b505050506040513d601f19601f820116820180604052508101906101d4919061147e565b829061058f565b600080826001600160a01b031663c0ff1a156040518163ffffffff1660e01b8152600401602060405180830381865afa15801561021c573d6000803e3d6000fd5b505050506040513d601f19601f82011682018060405250810190610240919061147e565b90506000836001600160a01b03166318160ddd6040518163ffffffff1660e01b8152600401602060405180830381865afa158015610282573d6000803e3d6000fd5b505050506040513d601f19601f820116820180604052508101906102a6919061147e565b90506102b282826105b0565b949350505050565b60606000825167ffffffffffffffff8111156102d8576102d86112e9565b604051908082528060200260200182016040528015610301578160200160208202803683370190505b50905060005b835181101561035d5783818151811061032257610322611497565b60200260200101516040015182828151811061034057610340611497565b602090810291909101015280610355816114c3565b915050610307565b5092915050565b6000815160031460405180604001604052806002815260200161333160f01b815250906103ad5760405162461bcd60e51b81526004016103a491906114de565b60405180910390fd5b50600080806103c6876103c0818061058f565b9061058f565b90506000610411866002815181106103e0576103e0611497565b6020026020010151876000815181106103fb576103fb611497565b60200260200101516105b090919063ffffffff16565b905060006104468760028151811061042b5761042b611497565b6020026020010151886001815181106103fb576103fb611497565b9050610453838383610620565b90955093506000925061046a91508490508361058f565b9050610488816104836003670de0b6b3a7640000611549565b6107c9565b905060006104a384876000815181106103fb576103fb611497565b90506104bc83876001815181106103fb576103fb611497565b6104c6908261156b565b9050856002815181106104db576104db611497565b6020026020010151816104ee919061156b565b90506104fa828261058f565b945061056b888760028151811061051357610513611497565b60200260200101518860018151811061052e5761052e611497565b60200260200101518960008151811061054957610549611497565b602002602001015161055b919061156b565b610565919061156b565b90610819565b90506105778186611583565b9450610583858861058f565b98975050505050505050565b60008061059c838561159a565b9050610156670de0b6b3a764000082611549565b604080518082019091526002815261323560f01b6020820152600090826105ea5760405162461bcd60e51b81526004016103a491906114de565b50826105f85750600061015a565b600061060c670de0b6b3a76400008561159a565b90506106188382611549565b91505061015a565b60008080610636670de0b6b3a7640000876105b0565b9050610646856103c0888261058f565b8410156106a6578584101561066957670de0b6b3a76400008692509250506107c1565b8084111561067b5791508190506107c1565b60006106996706f05b59d3b20000610693848861058f565b906107c9565b93508492506107c1915050565b6106b4846103c0888261058f565b85101561070e57858510156106d75785670de0b6b3a764000092509250506107c1565b808511156106e95791508190506107c1565b60006107016706f05b59d3b20000610693848961058f565b86945092506107c1915050565b85610719868661058f565b10156107b957610729868561058f565b8510156107445785670de0b6b3a764000092509250506107c1565b61074e818561058f565b85111561076957670de0b6b3a76400008692509250506107c1565b600061077d876706f05b59d3b200006107c9565b905060006107976706f05b59d3b2000061069389896105b0565b90506107a3828261058f565b6107ad83836105b0565b945094505050506107c1565b848492509250505b935093915050565b6000806107d68484610860565b905060006107e682612710610819565b6107f190600161156b565b9050808210156108065760009250505061015a565b6108108183611583565b9250505061015a565b600080610826838561159a565b90508061083757600091505061015a565b670de0b6b3a764000061084b600183611583565b6108559190611549565b61061890600161156b565b6000816108765750670de0b6b3a764000061015a565b826108835750600061015a565b604080518082019091526002815261032360f41b6020820152600160ff1b84106108c05760405162461bcd60e51b81526004016103a491906114de565b50604080518082019091526002815261323160f01b60208201528390770bce5086492111aea88f4bb1ca6bcf584181ea8059f7653284106109145760405162461bcd60e51b81526004016103a491906114de565b50826000670c7d713b49da0000831380156109365750670f43fc2c04ee000083125b1561096d576000610946846109f6565b9050670de0b6b3a764000080820784020583670de0b6b3a76400008305020191505061097b565b8161097784610b15565b0290505b670de0b6b3a76400009005680238fd42c5cf03ffff1981128015906109a9575068070c1cc73b00c800008113155b60405180604001604052806002815260200161191960f11b815250906109e25760405162461bcd60e51b81526004016103a491906114de565b506109ec81610ebf565b9695505050505050565b670de0b6b3a7640000026000806a0c097ce7bc90715b34b9f160241b808401906ec097ce7bc90715b34b9f0fffffffff1985010281610a3757610a37611533565b05905060006a0c097ce7bc90715b34b9f160241b82800205905081806a0c097ce7bc90715b34b9f160241b81840205915060038205016a0c097ce7bc90715b34b9f160241b82840205915060058205016a0c097ce7bc90715b34b9f160241b82840205915060078205016a0c097ce7bc90715b34b9f160241b82840205915060098205016a0c097ce7bc90715b34b9f160241b828402059150600b8205016a0c097ce7bc90715b34b9f160241b828402059150600d8205016a0c097ce7bc90715b34b9f160241b828402059150600f82050160020295945050505050565b6000670de0b6b3a7640000821215610b5657610b4d826a0c097ce7bc90715b34b9f160241b81610b4757610b47611533565b05610b15565b60000392915050565b60007e1600ef3172e58d2e933ec884fde10064c63b5372d805e203c00000000000008312610ba757770195e54c5dd42177f53a27172fa9ec630262827000000000830592506806f05b59d3b2000000015b73011798004d755d3c8bc8e03204cf44619e0000008312610bdf576b1425982cf597cd205cef7380830592506803782dace9d9000000015b606492830292026e01855144814a7ff805980ff00840008312610c27576e01855144814a7ff805980ff008400068056bc75e2d63100000840205925068ad78ebc5ac62000000015b6b02df0ab5a80a22c61ab5a7008312610c62576b02df0ab5a80a22c61ab5a70068056bc75e2d6310000084020592506856bc75e2d631000000015b693f1fce3da636ea5cf8508312610c9957693f1fce3da636ea5cf85068056bc75e2d631000008402059250682b5e3af16b18800000015b690127fa27722cc06cc5e28312610cd057690127fa27722cc06cc5e268056bc75e2d6310000084020592506815af1d78b58c400000015b68280e60114edb805d038312610d055768280e60114edb805d0368056bc75e2d631000008402059250680ad78ebc5ac6200000015b680ebc5fb417461211108312610d3057680ebc5fb4174612111068056bc75e2d631000009384020592015b6808f00f760a4b2db55d8312610d65576808f00f760a4b2db55d68056bc75e2d6310000084020592506802b5e3af16b1880000015b6806f5f17757889379378312610d9a576806f5f177578893793768056bc75e2d63100000840205925068015af1d78b58c40000015b6806248f33704b2866038312610dce576806248f33704b28660368056bc75e2d63100000840205925067ad78ebc5ac620000015b6805c548670b9510e7ac8312610e02576805c548670b9510e7ac68056bc75e2d6310000084020592506756bc75e2d6310000015b600068056bc75e2d63100000840168056bc75e2d631000008086030281610e2b57610e2b611533565b059050600068056bc75e2d63100000828002059050818068056bc75e2d63100000818402059150600382050168056bc75e2d63100000828402059150600582050168056bc75e2d63100000828402059150600782050168056bc75e2d63100000828402059150600982050168056bc75e2d63100000828402059150600b820501600202606485820105979650505050505050565b6000680238fd42c5cf03ffff198212158015610ee4575068070c1cc73b00c800008213155b60405180604001604052806002815260200161323360f01b81525090610f1d5760405162461bcd60e51b81526004016103a491906114de565b506000821215610f5657610f3382600003610ebf565b6a0c097ce7bc90715b34b9f160241b81610f4f57610f4f611533565b0592915050565b60006806f05b59d3b20000008312610f9657506806f05b59d3b1ffffff1990910190770195e54c5dd42177f53a27172fa9ec630262827000000000610fcc565b6803782dace9d90000008312610fc857506803782dace9d8ffffff19909101906b1425982cf597cd205cef7380610fcc565b5060015b6064929092029168056bc75e2d6310000068ad78ebc5ac62000000841261101c5768ad78ebc5ac61ffffff199093019268056bc75e2d631000006e01855144814a7ff805980ff008400082020590505b6856bc75e2d6310000008412611058576856bc75e2d630ffffff199093019268056bc75e2d631000006b02df0ab5a80a22c61ab5a70082020590505b682b5e3af16b18800000841261109257682b5e3af16b187fffff199093019268056bc75e2d63100000693f1fce3da636ea5cf85082020590505b6815af1d78b58c40000084126110cc576815af1d78b58c3fffff199093019268056bc75e2d63100000690127fa27722cc06cc5e282020590505b680ad78ebc5ac6200000841261110557680ad78ebc5ac61fffff199093019268056bc75e2d6310000068280e60114edb805d0382020590505b68056bc75e2d63100000841261113e5768056bc75e2d630fffff199093019268056bc75e2d63100000680ebc5fb4174612111082020590505b6802b5e3af16b18800008412611177576802b5e3af16b187ffff199093019268056bc75e2d631000006808f00f760a4b2db55d82020590505b68015af1d78b58c4000084126111b05768015af1d78b58c3ffff199093019268056bc75e2d631000006806f5f177578893793782020590505b68056bc75e2d631000008481019085906002908280020505918201919050600368056bc75e2d631000008783020505918201919050600468056bc75e2d631000008783020505918201919050600568056bc75e2d631000008783020505918201919050600668056bc75e2d631000008783020505918201919050600768056bc75e2d631000008783020505918201919050600868056bc75e2d631000008783020505918201919050600968056bc75e2d631000008783020505918201919050600a68056bc75e2d631000008783020505918201919050600b68056bc75e2d631000008783020505918201919050600c68056bc75e2d631000008783020505918201919050606468056bc75e2d63100000848402058502059695505050505050565b6001600160a01b03811681146112e657600080fd5b50565b634e487b7160e01b600052604160045260246000fd5b6040516060810167ffffffffffffffff81118282101715611322576113226112e9565b60405290565b604051601f8201601f1916810167ffffffffffffffff81118282101715611351576113516112e9565b604052919050565b600080604080848603121561136d57600080fd5b8335611378816112d1565b925060208481013567ffffffffffffffff8082111561139657600080fd5b818701915087601f8301126113aa57600080fd5b8135818111156113bc576113bc6112e9565b6113ca848260051b01611328565b8181528481019250606091820284018501918a8311156113e957600080fd5b938501935b828510156114495780858c0312156114065760008081fd5b61140e6112ff565b8535611419816112d1565b815285870135801515811461142e5760008081fd5b818801528588013588820152845293840193928501926113ee565b508096505050505050509250929050565b60006020828403121561146c57600080fd5b8151611477816112d1565b9392505050565b60006020828403121561149057600080fd5b5051919050565b634e487b7160e01b600052603260045260246000fd5b634e487b7160e01b600052601160045260246000fd5b60006000198214156114d7576114d76114ad565b5060010190565b600060208083528351808285015260005b8181101561150b578581018301518582016040015282016114ef565b8181111561151d576000604083870101525b50601f01601f1916929092016040019392505050565b634e487b7160e01b600052601260045260246000fd5b60008261156657634e487b7160e01b600052601260045260246000fd5b500490565b6000821982111561157e5761157e6114ad565b500190565b600082821015611595576115956114ad565b500390565b60008160001904831182151516156115b4576115b46114ad565b50029056fea2646970667358221220860b5cfe9edf87bf5d9ba951b12c91de0493ee1a0ecf8a16044181303519b84864736f6c634300080a0033","bytecodeSha1":"fa9a7a09e921365563584f3cab99beade9af9746","compiler":{"evm_version":"london","optimizer":{"enabled":true,"runs":200},"version":"0.8.10+commit.fc410830"},"contractName":"Balancer3CLPPriceOracle","language":"Solidity","natspec":{"kind":"dev","methods":{"getPoolTokenPriceUSD(address,(address,bool,uint256)[])":{"notice":"returns the price of the underlying pool token (e.g. BPT token) rather than the price of the vault token itself"},"getPriceUSD(address,(address,bool,uint256)[])":{"notice":"Quotes the USD price of `vault` tokens The quoted price is always scaled with 18 decimals regardless of the source used for the oracle.","params":{"vault":"the vault of which the price is to be quoted"},"returns":{"_0":"the USD price of the vault token"}}},"version":1},"opcodes":"PUSH1 0x80 PUSH1 0x40 MSTORE CALLVALUE DUP1 ISZERO PUSH2 0x10 JUMPI PUSH1 0x0 DUP1 REVERT JUMPDEST POP PUSH1 0x4 CALLDATASIZE LT PUSH2 0x36 JUMPI PUSH1 0x0 CALLDATALOAD PUSH1 0xE0 SHR DUP1 PUSH4 0xB141266E EQ PUSH2 0x3B JUMPI DUP1 PUSH4 0xB7BB2FE0 EQ PUSH2 0x60 JUMPI JUMPDEST PUSH1 0x0 DUP1 REVERT JUMPDEST PUSH2 0x4E PUSH2 0x49 CALLDATASIZE PUSH1 0x4 PUSH2 0x1359 JUMP JUMPDEST PUSH2 0x73 JUMP JUMPDEST PUSH1 0x40 MLOAD SWAP1 DUP2 MSTORE PUSH1 0x20 ADD PUSH1 0x40 MLOAD DUP1 SWAP2 SUB SWAP1 RETURN JUMPDEST PUSH2 0x4E PUSH2 0x6E CALLDATASIZE PUSH1 0x4 PUSH2 0x1359 JUMP JUMPDEST PUSH2 0x160 JUMP JUMPDEST PUSH1 0x0 DUP1 DUP4 PUSH1 0x1 PUSH1 0x1 PUSH1 0xA0 SHL SUB AND PUSH4 0x6F307DC3 PUSH1 0x40 MLOAD DUP2 PUSH4 0xFFFFFFFF AND PUSH1 0xE0 SHL DUP2 MSTORE PUSH1 0x4 ADD PUSH1 0x20 PUSH1 0x40 MLOAD DUP1 DUP4 SUB DUP2 DUP7 GAS STATICCALL ISZERO DUP1 ISZERO PUSH2 0xB4 JUMPI RETURNDATASIZE PUSH1 0x0 DUP1 RETURNDATACOPY RETURNDATASIZE PUSH1 0x0 REVERT JUMPDEST POP POP POP POP PUSH1 0x40 MLOAD RETURNDATASIZE PUSH1 0x1F NOT PUSH1 0x1F DUP3 ADD AND DUP3 ADD DUP1 PUSH1 0x40 MSTORE POP DUP2 ADD SWAP1 PUSH2 0xD8 SWAP2 SWAP1 PUSH2 0x145A JUMP JUMPDEST SWAP1 POP PUSH2 0x156 DUP2 PUSH1 0x1 PUSH1 0x1 PUSH1 0xA0 SHL SUB AND PUSH4 0xD60CA603 PUSH1 0x40 MLOAD DUP2 PUSH4 0xFFFFFFFF AND PUSH1 0xE0 SHL DUP2 MSTORE PUSH1 0x4 ADD PUSH1 0x20 PUSH1 0x40 MLOAD DUP1 DUP4 SUB DUP2 DUP7 GAS STATICCALL ISZERO DUP1 ISZERO PUSH2 0x11B JUMPI RETURNDATASIZE PUSH1 0x0 DUP1 RETURNDATACOPY RETURNDATASIZE PUSH1 0x0 REVERT JUMPDEST POP POP POP POP PUSH1 0x40 MLOAD RETURNDATASIZE PUSH1 0x1F NOT PUSH1 0x1F DUP3 ADD AND DUP3 ADD DUP1 PUSH1 0x40 MSTORE POP DUP2 ADD SWAP1 PUSH2 0x13F SWAP2 SWAP1 PUSH2 0x147E JUMP JUMPDEST PUSH2 0x148 DUP4 PUSH2 0x1DB JUMP JUMPDEST PUSH2 0x151 DUP7 PUSH2 0x2BA JUMP JUMPDEST PUSH2 0x364 JUMP JUMPDEST SWAP2 POP POP JUMPDEST SWAP3 SWAP2 POP POP JUMP JUMPDEST PUSH1 0x0 DUP1 PUSH2 0x16D DUP5 DUP5 PUSH2 0x73 JUMP JUMPDEST SWAP1 POP PUSH2 0x156 DUP5 PUSH1 0x1 PUSH1 0x1 PUSH1 0xA0 SHL SUB AND PUSH4 0x3BA0B9A9 PUSH1 0x40 MLOAD DUP2 PUSH4 0xFFFFFFFF AND PUSH1 0xE0 SHL DUP2 MSTORE PUSH1 0x4 ADD PUSH1 0x20 PUSH1 0x40 MLOAD DUP1 DUP4 SUB DUP2 DUP7 GAS STATICCALL ISZERO DUP1 ISZERO PUSH2 0x1B0 JUMPI RETURNDATASIZE PUSH1 0x0 DUP1 RETURNDATACOPY RETURNDATASIZE PUSH1 0x0 REVERT JUMPDEST POP POP POP POP PUSH1 0x40 MLOAD RETURNDATASIZE PUSH1 0x1F NOT PUSH1 0x1F DUP3 ADD AND DUP3 ADD DUP1 PUSH1 0x40 MSTORE POP DUP2 ADD SWAP1 PUSH2 0x1D4 SWAP2 SWAP1 PUSH2 0x147E JUMP JUMPDEST DUP3 SWAP1 PUSH2 0x58F JUMP JUMPDEST PUSH1 0x0 DUP1 DUP3 PUSH1 0x1 PUSH1 0x1 PUSH1 0xA0 SHL SUB AND PUSH4 0xC0FF1A15 PUSH1 0x40 MLOAD DUP2 PUSH4 0xFFFFFFFF AND PUSH1 0xE0 SHL DUP2 MSTORE PUSH1 0x4 ADD PUSH1 0x20 PUSH1 0x40 MLOAD DUP1 DUP4 SUB DUP2 DUP7 GAS STATICCALL ISZERO DUP1 ISZERO PUSH2 0x21C JUMPI RETURNDATASIZE PUSH1 0x0 DUP1 RETURNDATACOPY RETURNDATASIZE PUSH1 0x0 REVERT JUMPDEST POP POP POP POP PUSH1 0x40 MLOAD RETURNDATASIZE PUSH1 0x1F NOT PUSH1 0x1F DUP3 ADD AND DUP3 ADD DUP1 PUSH1 0x40 MSTORE POP DUP2 ADD SWAP1 PUSH2 0x240 SWAP2 SWAP1 PUSH2 0x147E JUMP JUMPDEST SWAP1 POP PUSH1 0x0 DUP4 PUSH1 0x1 PUSH1 0x1 PUSH1 0xA0 SHL SUB AND PUSH4 0x18160DDD PUSH1 0x40 MLOAD DUP2 PUSH4 0xFFFFFFFF AND PUSH1 0xE0 SHL DUP2 MSTORE PUSH1 0x4 ADD PUSH1 0x20 PUSH1 0x40 MLOAD DUP1 DUP4 SUB DUP2 DUP7 GAS STATICCALL ISZERO DUP1 ISZERO PUSH2 0x282 JUMPI RETURNDATASIZE PUSH1 0x0 DUP1 RETURNDATACOPY RETURNDATASIZE PUSH1 0x0 REVERT JUMPDEST POP POP POP POP PUSH1 0x40 MLOAD RETURNDATASIZE PUSH1 0x1F NOT PUSH1 0x1F DUP3 ADD AND DUP3 ADD DUP1 PUSH1 0x40 MSTORE POP DUP2 ADD SWAP1 PUSH2 0x2A6 SWAP2 SWAP1 PUSH2 0x147E JUMP JUMPDEST SWAP1 POP PUSH2 0x2B2 DUP3 DUP3 PUSH2 0x5B0 JUMP JUMPDEST SWAP5 SWAP4 POP POP POP POP JUMP JUMPDEST PUSH1 0x60 PUSH1 0x0 DUP3 MLOAD PUSH8 0xFFFFFFFFFFFFFFFF DUP2 GT ISZERO PUSH2 0x2D8 JUMPI PUSH2 0x2D8 PUSH2 0x12E9 JUMP JUMPDEST PUSH1 0x40 MLOAD SWAP1 DUP1 DUP3 MSTORE DUP1 PUSH1 0x20 MUL PUSH1 0x20 ADD DUP3 ADD PUSH1 0x40 MSTORE DUP1 ISZERO PUSH2 0x301 JUMPI DUP2 PUSH1 0x20 ADD PUSH1 0x20 DUP3 MUL DUP1 CALLDATASIZE DUP4 CALLDATACOPY ADD SWAP1 POP JUMPDEST POP SWAP1 POP PUSH1 0x0 JUMPDEST DUP4 MLOAD DUP2 LT ISZERO PUSH2 0x35D JUMPI DUP4 DUP2 DUP2 MLOAD DUP2 LT PUSH2 0x322 JUMPI PUSH2 0x322 PUSH2 0x1497 JUMP JUMPDEST PUSH1 0x20 MUL PUSH1 0x20 ADD ADD MLOAD PUSH1 0x40 ADD MLOAD DUP3 DUP3 DUP2 MLOAD DUP2 LT PUSH2 0x340 JUMPI PUSH2 0x340 PUSH2 0x1497 JUMP JUMPDEST PUSH1 0x20 SWAP1 DUP2 MUL SWAP2 SWAP1 SWAP2 ADD ADD MSTORE DUP1 PUSH2 0x355 DUP2 PUSH2 0x14C3 JUMP JUMPDEST SWAP2 POP POP PUSH2 0x307 JUMP JUMPDEST POP SWAP3 SWAP2 POP POP JUMP JUMPDEST PUSH1 0x0 DUP2 MLOAD PUSH1 0x3 EQ PUSH1 0x40 MLOAD DUP1 PUSH1 0x40 ADD PUSH1 0x40 MSTORE DUP1 PUSH1 0x2 DUP2 MSTORE PUSH1 0x20 ADD PUSH2 0x3331 PUSH1 0xF0 SHL DUP2 MSTORE POP SWAP1 PUSH2 0x3AD JUMPI PUSH1 0x40 MLOAD PUSH3 0x461BCD PUSH1 0xE5 SHL DUP2 MSTORE PUSH1 0x4 ADD PUSH2 0x3A4 SWAP2 SWAP1 PUSH2 0x14DE JUMP JUMPDEST PUSH1 0x40 MLOAD DUP1 SWAP2 SUB SWAP1 REVERT JUMPDEST POP PUSH1 0x0 DUP1 DUP1 PUSH2 0x3C6 DUP8 PUSH2 0x3C0 DUP2 DUP1 PUSH2 0x58F JUMP JUMPDEST SWAP1 PUSH2 0x58F JUMP JUMPDEST SWAP1 POP PUSH1 0x0 PUSH2 0x411 DUP7 PUSH1 0x2 DUP2 MLOAD DUP2 LT PUSH2 0x3E0 JUMPI PUSH2 0x3E0 PUSH2 0x1497 JUMP JUMPDEST PUSH1 0x20 MUL PUSH1 0x20 ADD ADD MLOAD DUP8 PUSH1 0x0 DUP2 MLOAD DUP2 LT PUSH2 0x3FB JUMPI PUSH2 0x3FB PUSH2 0x1497 JUMP JUMPDEST PUSH1 0x20 MUL PUSH1 0x20 ADD ADD MLOAD PUSH2 0x5B0 SWAP1 SWAP2 SWAP1 PUSH4 0xFFFFFFFF AND JUMP JUMPDEST SWAP1 POP PUSH1 0x0 PUSH2 0x446 DUP8 PUSH1 0x2 DUP2 MLOAD DUP2 LT PUSH2 0x42B JUMPI PUSH2 0x42B PUSH2 0x1497 JUMP JUMPDEST PUSH1 0x20 MUL PUSH1 0x20 ADD ADD MLOAD DUP9 PUSH1 0x1 DUP2 MLOAD DUP2 LT PUSH2 0x3FB JUMPI PUSH2 0x3FB PUSH2 0x1497 JUMP JUMPDEST SWAP1 POP PUSH2 0x453 DUP4 DUP4 DUP4 PUSH2 0x620 JUMP JUMPDEST SWAP1 SWAP6 POP SWAP4 POP PUSH1 0x0 SWAP3 POP PUSH2 0x46A SWAP2 POP DUP5 SWAP1 POP DUP4 PUSH2 0x58F JUMP JUMPDEST SWAP1 POP PUSH2 0x488 DUP2 PUSH2 0x483 PUSH1 0x3 PUSH8 0xDE0B6B3A7640000 PUSH2 0x1549 JUMP JUMPDEST PUSH2 0x7C9 JUMP JUMPDEST SWAP1 POP PUSH1 0x0 PUSH2 0x4A3 DUP5 DUP8 PUSH1 0x0 DUP2 MLOAD DUP2 LT PUSH2 0x3FB JUMPI PUSH2 0x3FB PUSH2 0x1497 JUMP JUMPDEST SWAP1 POP PUSH2 0x4BC DUP4 DUP8 PUSH1 0x1 DUP2 MLOAD DUP2 LT PUSH2 0x3FB JUMPI PUSH2 0x3FB PUSH2 0x1497 JUMP JUMPDEST PUSH2 0x4C6 SWAP1 DUP3 PUSH2 0x156B JUMP JUMPDEST SWAP1 POP DUP6 PUSH1 0x2 DUP2 MLOAD DUP2 LT PUSH2 0x4DB JUMPI PUSH2 0x4DB PUSH2 0x1497 JUMP JUMPDEST PUSH1 0x20 MUL PUSH1 0x20 ADD ADD MLOAD DUP2 PUSH2 0x4EE SWAP2 SWAP1 PUSH2 0x156B JUMP JUMPDEST SWAP1 POP PUSH2 0x4FA DUP3 DUP3 PUSH2 0x58F JUMP JUMPDEST SWAP5 POP PUSH2 0x56B DUP9 DUP8 PUSH1 0x2 DUP2 MLOAD DUP2 LT PUSH2 0x513 JUMPI PUSH2 0x513 PUSH2 0x1497 JUMP JUMPDEST PUSH1 0x20 MUL PUSH1 0x20 ADD ADD MLOAD DUP9 PUSH1 0x1 DUP2 MLOAD DUP2 LT PUSH2 0x52E JUMPI PUSH2 0x52E PUSH2 0x1497 JUMP JUMPDEST PUSH1 0x20 MUL PUSH1 0x20 ADD ADD MLOAD DUP10 PUSH1 0x0 DUP2 MLOAD DUP2 LT PUSH2 0x549 JUMPI PUSH2 0x549 PUSH2 0x1497 JUMP JUMPDEST PUSH1 0x20 MUL PUSH1 0x20 ADD ADD MLOAD PUSH2 0x55B SWAP2 SWAP1 PUSH2 0x156B JUMP JUMPDEST PUSH2 0x565 SWAP2 SWAP1 PUSH2 0x156B JUMP JUMPDEST SWAP1 PUSH2 0x819 JUMP JUMPDEST SWAP1 POP PUSH2 0x577 DUP2 DUP7 PUSH2 0x1583 JUMP JUMPDEST SWAP5 POP PUSH2 0x583 DUP6 DUP9 PUSH2 0x58F JUMP JUMPDEST SWAP9 SWAP8 POP POP POP POP POP POP POP POP JUMP JUMPDEST PUSH1 0x0 DUP1 PUSH2 0x59C DUP4 DUP6 PUSH2 0x159A JUMP JUMPDEST SWAP1 POP PUSH2 0x156 PUSH8 0xDE0B6B3A7640000 DUP3 PUSH2 0x1549 JUMP JUMPDEST PUSH1 0x40 DUP1 MLOAD DUP1 DUP3 ADD SWAP1 SWAP2 MSTORE PUSH1 0x2 DUP2 MSTORE PUSH2 0x3235 PUSH1 0xF0 SHL PUSH1 0x20 DUP3 ADD MSTORE PUSH1 0x0 SWAP1 DUP3 PUSH2 0x5EA JUMPI PUSH1 0x40 MLOAD PUSH3 0x461BCD PUSH1 0xE5 SHL DUP2 MSTORE PUSH1 0x4 ADD PUSH2 0x3A4 SWAP2 SWAP1 PUSH2 0x14DE JUMP JUMPDEST POP DUP3 PUSH2 0x5F8 JUMPI POP PUSH1 0x0 PUSH2 0x15A JUMP JUMPDEST PUSH1 0x0 PUSH2 0x60C PUSH8 0xDE0B6B3A7640000 DUP6 PUSH2 0x159A JUMP JUMPDEST SWAP1 POP PUSH2 0x618 DUP4 DUP3 PUSH2 0x1549 JUMP JUMPDEST SWAP2 POP POP PUSH2 0x15A JUMP JUMPDEST PUSH1 0x0 DUP1 DUP1 PUSH2 0x636 PUSH8 0xDE0B6B3A7640000 DUP8 PUSH2 0x5B0 JUMP JUMPDEST SWAP1 POP PUSH2 0x646 DUP6 PUSH2 0x3C0 DUP9 DUP3 PUSH2 0x58F JUMP JUMPDEST DUP5 LT ISZERO PUSH2 0x6A6 JUMPI DUP6 DUP5 LT ISZERO PUSH2 0x669 JUMPI PUSH8 0xDE0B6B3A7640000 DUP7 SWAP3 POP SWAP3 POP POP PUSH2 0x7C1 JUMP JUMPDEST DUP1 DUP5 GT ISZERO PUSH2 0x67B JUMPI SWAP2 POP DUP2 SWAP1 POP PUSH2 0x7C1 JUMP JUMPDEST PUSH1 0x0 PUSH2 0x699 PUSH8 0x6F05B59D3B20000 PUSH2 0x693 DUP5 DUP9 PUSH2 0x58F JUMP JUMPDEST SWAP1 PUSH2 0x7C9 JUMP JUMPDEST SWAP4 POP DUP5 SWAP3 POP PUSH2 0x7C1 SWAP2 POP POP JUMP JUMPDEST PUSH2 0x6B4 DUP5 PUSH2 0x3C0 DUP9 DUP3 PUSH2 0x58F JUMP JUMPDEST DUP6 LT ISZERO PUSH2 0x70E JUMPI DUP6 DUP6 LT ISZERO PUSH2 0x6D7 JUMPI DUP6 PUSH8 0xDE0B6B3A7640000 SWAP3 POP SWAP3 POP POP PUSH2 0x7C1 JUMP JUMPDEST DUP1 DUP6 GT ISZERO PUSH2 0x6E9 JUMPI SWAP2 POP DUP2 SWAP1 POP PUSH2 0x7C1 JUMP JUMPDEST PUSH1 0x0 PUSH2 0x701 PUSH8 0x6F05B59D3B20000 PUSH2 0x693 DUP5 DUP10 PUSH2 0x58F JUMP JUMPDEST DUP7 SWAP5 POP SWAP3 POP PUSH2 0x7C1 SWAP2 POP POP JUMP JUMPDEST DUP6 PUSH2 0x719 DUP7 DUP7 PUSH2 0x58F JUMP JUMPDEST LT ISZERO PUSH2 0x7B9 JUMPI PUSH2 0x729 DUP7 DUP6 PUSH2 0x58F JUMP JUMPDEST DUP6 LT ISZERO PUSH2 0x744 JUMPI DUP6 PUSH8 0xDE0B6B3A7640000 SWAP3 POP SWAP3 POP POP PUSH2 0x7C1 JUMP JUMPDEST PUSH2 0x74E DUP2 DUP6 PUSH2 0x58F JUMP JUMPDEST DUP6 GT ISZERO PUSH2 0x769 JUMPI PUSH8 0xDE0B6B3A7640000 DUP7 SWAP3 POP SWAP3 POP POP PUSH2 0x7C1 JUMP JUMPDEST PUSH1 0x0 PUSH2 0x77D DUP8 PUSH8 0x6F05B59D3B20000 PUSH2 0x7C9 JUMP JUMPDEST SWAP1 POP PUSH1 0x0 PUSH2 0x797 PUSH8 0x6F05B59D3B20000 PUSH2 0x693 DUP10 DUP10 PUSH2 0x5B0 JUMP JUMPDEST SWAP1 POP PUSH2 0x7A3 DUP3 DUP3 PUSH2 0x58F JUMP JUMPDEST PUSH2 0x7AD DUP4 DUP4 PUSH2 0x5B0 JUMP JUMPDEST SWAP5 POP SWAP5 POP POP POP POP PUSH2 0x7C1 JUMP JUMPDEST DUP5 DUP5 SWAP3 POP SWAP3 POP POP JUMPDEST SWAP4 POP SWAP4 SWAP2 POP POP JUMP JUMPDEST PUSH1 0x0 DUP1 PUSH2 0x7D6 DUP5 DUP5 PUSH2 0x860 JUMP JUMPDEST SWAP1 POP PUSH1 0x0 PUSH2 0x7E6 DUP3 PUSH2 0x2710 PUSH2 0x819 JUMP JUMPDEST PUSH2 0x7F1 SWAP1 PUSH1 0x1 PUSH2 0x156B JUMP JUMPDEST SWAP1 POP DUP1 DUP3 LT ISZERO PUSH2 0x806 JUMPI PUSH1 0x0 SWAP3 POP POP POP PUSH2 0x15A JUMP JUMPDEST PUSH2 0x810 DUP2 DUP4 PUSH2 0x1583 JUMP JUMPDEST SWAP3 POP POP POP PUSH2 0x15A JUMP JUMPDEST PUSH1 0x0 DUP1 PUSH2 0x826 DUP4 DUP6 PUSH2 0x159A JUMP JUMPDEST SWAP1 POP DUP1 PUSH2 0x837 JUMPI PUSH1 0x0 SWAP2 POP POP PUSH2 0x15A JUMP JUMPDEST PUSH8 0xDE0B6B3A7640000 PUSH2 0x84B PUSH1 0x1 DUP4 PUSH2 0x1583 JUMP JUMPDEST PUSH2 0x855 SWAP2 SWAP1 PUSH2 0x1549 JUMP JUMPDEST PUSH2 0x618 SWAP1 PUSH1 0x1 PUSH2 0x156B JUMP JUMPDEST PUSH1 0x0 DUP2 PUSH2 0x876 JUMPI POP PUSH8 0xDE0B6B3A7640000 PUSH2 0x15A JUMP JUMPDEST DUP3 PUSH2 0x883 JUMPI POP PUSH1 0x0 PUSH2 0x15A JUMP JUMPDEST PUSH1 0x40 DUP1 MLOAD DUP1 DUP3 ADD SWAP1 SWAP2 MSTORE PUSH1 0x2 DUP2 MSTORE PUSH2 0x323 PUSH1 0xF4 SHL PUSH1 0x20 DUP3 ADD MSTORE PUSH1 0x1 PUSH1 0xFF SHL DUP5 LT PUSH2 0x8C0 JUMPI PUSH1 0x40 MLOAD PUSH3 0x461BCD PUSH1 0xE5 SHL DUP2 MSTORE PUSH1 0x4 ADD PUSH2 0x3A4 SWAP2 SWAP1 PUSH2 0x14DE JUMP JUMPDEST POP PUSH1 0x40 DUP1 MLOAD DUP1 DUP3 ADD SWAP1 SWAP2 MSTORE PUSH1 0x2 DUP2 MSTORE PUSH2 0x3231 PUSH1 0xF0 SHL PUSH1 0x20 DUP3 ADD MSTORE DUP4 SWAP1 PUSH24 0xBCE5086492111AEA88F4BB1CA6BCF584181EA8059F76532 DUP5 LT PUSH2 0x914 JUMPI PUSH1 0x40 MLOAD PUSH3 0x461BCD PUSH1 0xE5 SHL DUP2 MSTORE PUSH1 0x4 ADD PUSH2 0x3A4 SWAP2 SWAP1 PUSH2 0x14DE JUMP JUMPDEST POP DUP3 PUSH1 0x0 PUSH8 0xC7D713B49DA0000 DUP4 SGT DUP1 ISZERO PUSH2 0x936 JUMPI POP PUSH8 0xF43FC2C04EE0000 DUP4 SLT JUMPDEST ISZERO PUSH2 0x96D JUMPI PUSH1 0x0 PUSH2 0x946 DUP5 PUSH2 0x9F6 JUMP JUMPDEST SWAP1 POP PUSH8 0xDE0B6B3A7640000 DUP1 DUP3 SMOD DUP5 MUL SDIV DUP4 PUSH8 0xDE0B6B3A7640000 DUP4 SDIV MUL ADD SWAP2 POP POP PUSH2 0x97B JUMP JUMPDEST DUP2 PUSH2 0x977 DUP5 PUSH2 0xB15 JUMP JUMPDEST MUL SWAP1 POP JUMPDEST PUSH8 0xDE0B6B3A7640000 SWAP1 SDIV PUSH9 0x238FD42C5CF03FFFF NOT DUP2 SLT DUP1 ISZERO SWAP1 PUSH2 0x9A9 JUMPI POP PUSH9 0x70C1CC73B00C80000 DUP2 SGT ISZERO JUMPDEST PUSH1 0x40 MLOAD DUP1 PUSH1 0x40 ADD PUSH1 0x40 MSTORE DUP1 PUSH1 0x2 DUP2 MSTORE PUSH1 0x20 ADD PUSH2 0x1919 PUSH1 0xF1 SHL DUP2 MSTORE POP SWAP1 PUSH2 0x9E2 JUMPI PUSH1 0x40 MLOAD PUSH3 0x461BCD PUSH1 0xE5 SHL DUP2 MSTORE PUSH1 0x4 ADD PUSH2 0x3A4 SWAP2 SWAP1 PUSH2 0x14DE JUMP JUMPDEST POP PUSH2 0x9EC DUP2 PUSH2 0xEBF JUMP JUMPDEST SWAP7 SWAP6 POP POP POP POP POP POP JUMP JUMPDEST PUSH8 0xDE0B6B3A7640000 MUL PUSH1 0x0 DUP1 PUSH11 0xC097CE7BC90715B34B9F1 PUSH1 0x24 SHL DUP1 DUP5 ADD SWAP1 PUSH15 0xC097CE7BC90715B34B9F0FFFFFFFFF NOT DUP6 ADD MUL DUP2 PUSH2 0xA37 JUMPI PUSH2 0xA37 PUSH2 0x1533 JUMP JUMPDEST SDIV SWAP1 POP PUSH1 0x0 PUSH11 0xC097CE7BC90715B34B9F1 PUSH1 0x24 SHL DUP3 DUP1 MUL SDIV SWAP1 POP DUP2 DUP1 PUSH11 0xC097CE7BC90715B34B9F1 PUSH1 0x24 SHL DUP2 DUP5 MUL SDIV SWAP2 POP PUSH1 0x3 DUP3 SDIV ADD PUSH11 0xC097CE7BC90715B34B9F1 PUSH1 0x24 SHL DUP3 DUP5 MUL SDIV SWAP2 POP PUSH1 0x5 DUP3 SDIV ADD PUSH11 0xC097CE7BC90715B34B9F1 PUSH1 0x24 SHL DUP3 DUP5 MUL SDIV SWAP2 POP PUSH1 0x7 DUP3 SDIV ADD PUSH11 0xC097CE7BC90715B34B9F1 PUSH1 0x24 SHL DUP3 DUP5 MUL SDIV SWAP2 POP PUSH1 0x9 DUP3 SDIV ADD PUSH11 0xC097CE7BC90715B34B9F1 PUSH1 0x24 SHL DUP3 DUP5 MUL SDIV SWAP2 POP PUSH1 0xB DUP3 SDIV ADD PUSH11 0xC097CE7BC90715B34B9F1 PUSH1 0x24 SHL DUP3 DUP5 MUL SDIV SWAP2 POP PUSH1 0xD DUP3 SDIV ADD PUSH11 0xC097CE7BC90715B34B9F1 PUSH1 0x24 SHL DUP3 DUP5 MUL SDIV SWAP2 POP PUSH1 0xF DUP3 SDIV ADD PUSH1 0x2 MUL SWAP6 SWAP5 POP POP POP POP POP JUMP JUMPDEST PUSH1 0x0 PUSH8 0xDE0B6B3A7640000 DUP3 SLT ISZERO PUSH2 0xB56 JUMPI PUSH2 0xB4D DUP3 PUSH11 0xC097CE7BC90715B34B9F1 PUSH1 0x24 SHL DUP2 PUSH2 0xB47 JUMPI PUSH2 0xB47 PUSH2 0x1533 JUMP JUMPDEST SDIV PUSH2 0xB15 JUMP JUMPDEST PUSH1 0x0 SUB SWAP3 SWAP2 POP POP JUMP JUMPDEST PUSH1 0x0 PUSH31 0x1600EF3172E58D2E933EC884FDE10064C63B5372D805E203C0000000000000 DUP4 SLT PUSH2 0xBA7 JUMPI PUSH24 0x195E54C5DD42177F53A27172FA9EC630262827000000000 DUP4 SDIV SWAP3 POP PUSH9 0x6F05B59D3B2000000 ADD JUMPDEST PUSH20 0x11798004D755D3C8BC8E03204CF44619E000000 DUP4 SLT PUSH2 0xBDF JUMPI PUSH12 0x1425982CF597CD205CEF7380 DUP4 SDIV SWAP3 POP PUSH9 0x3782DACE9D9000000 ADD JUMPDEST PUSH1 0x64 SWAP3 DUP4 MUL SWAP3 MUL PUSH15 0x1855144814A7FF805980FF0084000 DUP4 SLT PUSH2 0xC27 JUMPI PUSH15 0x1855144814A7FF805980FF0084000 PUSH9 0x56BC75E2D63100000 DUP5 MUL SDIV SWAP3 POP PUSH9 0xAD78EBC5AC62000000 ADD JUMPDEST PUSH12 0x2DF0AB5A80A22C61AB5A700 DUP4 SLT PUSH2 0xC62 JUMPI PUSH12 0x2DF0AB5A80A22C61AB5A700 PUSH9 0x56BC75E2D63100000 DUP5 MUL SDIV SWAP3 POP PUSH9 0x56BC75E2D631000000 ADD JUMPDEST PUSH10 0x3F1FCE3DA636EA5CF850 DUP4 SLT PUSH2 0xC99 JUMPI PUSH10 0x3F1FCE3DA636EA5CF850 PUSH9 0x56BC75E2D63100000 DUP5 MUL SDIV SWAP3 POP PUSH9 0x2B5E3AF16B18800000 ADD JUMPDEST PUSH10 0x127FA27722CC06CC5E2 DUP4 SLT PUSH2 0xCD0 JUMPI PUSH10 0x127FA27722CC06CC5E2 PUSH9 0x56BC75E2D63100000 DUP5 MUL SDIV SWAP3 POP PUSH9 0x15AF1D78B58C400000 ADD JUMPDEST PUSH9 0x280E60114EDB805D03 DUP4 SLT PUSH2 0xD05 JUMPI PUSH9 0x280E60114EDB805D03 PUSH9 0x56BC75E2D63100000 DUP5 MUL SDIV SWAP3 POP PUSH9 0xAD78EBC5AC6200000 ADD JUMPDEST PUSH9 0xEBC5FB41746121110 DUP4 SLT PUSH2 0xD30 JUMPI PUSH9 0xEBC5FB41746121110 PUSH9 0x56BC75E2D63100000 SWAP4 DUP5 MUL SDIV SWAP3 ADD JUMPDEST PUSH9 0x8F00F760A4B2DB55D DUP4 SLT PUSH2 0xD65 JUMPI PUSH9 0x8F00F760A4B2DB55D PUSH9 0x56BC75E2D63100000 DUP5 MUL SDIV SWAP3 POP PUSH9 0x2B5E3AF16B1880000 ADD JUMPDEST PUSH9 0x6F5F1775788937937 DUP4 SLT PUSH2 0xD9A JUMPI PUSH9 0x6F5F1775788937937 PUSH9 0x56BC75E2D63100000 DUP5 MUL SDIV SWAP3 POP PUSH9 0x15AF1D78B58C40000 ADD JUMPDEST PUSH9 0x6248F33704B286603 DUP4 SLT PUSH2 0xDCE JUMPI PUSH9 0x6248F33704B286603 PUSH9 0x56BC75E2D63100000 DUP5 MUL SDIV SWAP3 POP PUSH8 0xAD78EBC5AC620000 ADD JUMPDEST PUSH9 0x5C548670B9510E7AC DUP4 SLT PUSH2 0xE02 JUMPI PUSH9 0x5C548670B9510E7AC PUSH9 0x56BC75E2D63100000 DUP5 MUL SDIV SWAP3 POP PUSH8 0x56BC75E2D6310000 ADD JUMPDEST PUSH1 0x0 PUSH9 0x56BC75E2D63100000 DUP5 ADD PUSH9 0x56BC75E2D63100000 DUP1 DUP7 SUB MUL DUP2 PUSH2 0xE2B JUMPI PUSH2 0xE2B PUSH2 0x1533 JUMP JUMPDEST SDIV SWAP1 POP PUSH1 0x0 PUSH9 0x56BC75E2D63100000 DUP3 DUP1 MUL SDIV SWAP1 POP DUP2 DUP1 PUSH9 0x56BC75E2D63100000 DUP2 DUP5 MUL SDIV SWAP2 POP PUSH1 0x3 DUP3 SDIV ADD PUSH9 0x56BC75E2D63100000 DUP3 DUP5 MUL SDIV SWAP2 POP PUSH1 0x5 DUP3 SDIV ADD PUSH9 0x56BC75E2D63100000 DUP3 DUP5 MUL SDIV SWAP2 POP PUSH1 0x7 DUP3 SDIV ADD PUSH9 0x56BC75E2D63100000 DUP3 DUP5 MUL SDIV SWAP2 POP PUSH1 0x9 DUP3 SDIV ADD PUSH9 0x56BC75E2D63100000 DUP3 DUP5 MUL SDIV SWAP2 POP PUSH1 0xB DUP3 SDIV ADD PUSH1 0x2 MUL PUSH1 0x64 DUP6 DUP3 ADD SDIV SWAP8 SWAP7 POP POP POP POP POP POP POP JUMP JUMPDEST PUSH1 0x0 PUSH9 0x238FD42C5CF03FFFF NOT DUP3 SLT ISZERO DUP1 ISZERO PUSH2 0xEE4 JUMPI POP PUSH9 0x70C1CC73B00C80000 DUP3 SGT ISZERO JUMPDEST PUSH1 0x40 MLOAD DUP1 PUSH1 0x40 ADD PUSH1 0x40 MSTORE DUP1 PUSH1 0x2 DUP2 MSTORE PUSH1 0x20 ADD PUSH2 0x3233 PUSH1 0xF0 SHL DUP2 MSTORE POP SWAP1 PUSH2 0xF1D JUMPI PUSH1 0x40 MLOAD PUSH3 0x461BCD PUSH1 0xE5 SHL DUP2 MSTORE PUSH1 0x4 ADD PUSH2 0x3A4 SWAP2 SWAP1 PUSH2 0x14DE JUMP JUMPDEST POP PUSH1 0x0 DUP3 SLT ISZERO PUSH2 0xF56 JUMPI PUSH2 0xF33 DUP3 PUSH1 0x0 SUB PUSH2 0xEBF JUMP JUMPDEST PUSH11 0xC097CE7BC90715B34B9F1 PUSH1 0x24 SHL DUP2 PUSH2 0xF4F JUMPI PUSH2 0xF4F PUSH2 0x1533 JUMP JUMPDEST SDIV SWAP3 SWAP2 POP POP JUMP JUMPDEST PUSH1 0x0 PUSH9 0x6F05B59D3B2000000 DUP4 SLT PUSH2 0xF96 JUMPI POP PUSH9 0x6F05B59D3B1FFFFFF NOT SWAP1 SWAP2 ADD SWAP1 PUSH24 0x195E54C5DD42177F53A27172FA9EC630262827000000000 PUSH2 0xFCC JUMP JUMPDEST PUSH9 0x3782DACE9D9000000 DUP4 SLT PUSH2 0xFC8 JUMPI POP PUSH9 0x3782DACE9D8FFFFFF NOT SWAP1 SWAP2 ADD SWAP1 PUSH12 0x1425982CF597CD205CEF7380 PUSH2 0xFCC JUMP JUMPDEST POP PUSH1 0x1 JUMPDEST PUSH1 0x64 SWAP3 SWAP1 SWAP3 MUL SWAP2 PUSH9 0x56BC75E2D63100000 PUSH9 0xAD78EBC5AC62000000 DUP5 SLT PUSH2 0x101C JUMPI PUSH9 0xAD78EBC5AC61FFFFFF NOT SWAP1 SWAP4 ADD SWAP3 PUSH9 0x56BC75E2D63100000 PUSH15 0x1855144814A7FF805980FF0084000 DUP3 MUL SDIV SWAP1 POP JUMPDEST PUSH9 0x56BC75E2D631000000 DUP5 SLT PUSH2 0x1058 JUMPI PUSH9 0x56BC75E2D630FFFFFF NOT SWAP1 SWAP4 ADD SWAP3 PUSH9 0x56BC75E2D63100000 PUSH12 0x2DF0AB5A80A22C61AB5A700 DUP3 MUL SDIV SWAP1 POP JUMPDEST PUSH9 0x2B5E3AF16B18800000 DUP5 SLT PUSH2 0x1092 JUMPI PUSH9 0x2B5E3AF16B187FFFFF NOT SWAP1 SWAP4 ADD SWAP3 PUSH9 0x56BC75E2D63100000 PUSH10 0x3F1FCE3DA636EA5CF850 DUP3 MUL SDIV SWAP1 POP JUMPDEST PUSH9 0x15AF1D78B58C400000 DUP5 SLT PUSH2 0x10CC JUMPI PUSH9 0x15AF1D78B58C3FFFFF NOT SWAP1 SWAP4 ADD SWAP3 PUSH9 0x56BC75E2D63100000 PUSH10 0x127FA27722CC06CC5E2 DUP3 MUL SDIV SWAP1 POP JUMPDEST PUSH9 0xAD78EBC5AC6200000 DUP5 SLT PUSH2 0x1105 JUMPI PUSH9 0xAD78EBC5AC61FFFFF NOT SWAP1 SWAP4 ADD SWAP3 PUSH9 0x56BC75E2D63100000 PUSH9 0x280E60114EDB805D03 DUP3 MUL SDIV SWAP1 POP JUMPDEST PUSH9 0x56BC75E2D63100000 DUP5 SLT PUSH2 0x113E JUMPI PUSH9 0x56BC75E2D630FFFFF NOT SWAP1 SWAP4 ADD SWAP3 PUSH9 0x56BC75E2D63100000 PUSH9 0xEBC5FB41746121110 DUP3 MUL SDIV SWAP1 POP JUMPDEST PUSH9 0x2B5E3AF16B1880000 DUP5 SLT PUSH2 0x1177 JUMPI PUSH9 0x2B5E3AF16B187FFFF NOT SWAP1 SWAP4 ADD SWAP3 PUSH9 0x56BC75E2D63100000 PUSH9 0x8F00F760A4B2DB55D DUP3 MUL SDIV SWAP1 POP JUMPDEST PUSH9 0x15AF1D78B58C40000 DUP5 SLT PUSH2 0x11B0 JUMPI PUSH9 0x15AF1D78B58C3FFFF NOT SWAP1 SWAP4 ADD SWAP3 PUSH9 0x56BC75E2D63100000 PUSH9 0x6F5F1775788937937 DUP3 MUL SDIV SWAP1 POP JUMPDEST PUSH9 0x56BC75E2D63100000 DUP5 DUP2 ADD SWAP1 DUP6 SWAP1 PUSH1 0x2 SWAP1 DUP3 DUP1 MUL SDIV SDIV SWAP2 DUP3 ADD SWAP2 SWAP1 POP PUSH1 0x3 PUSH9 0x56BC75E2D63100000 DUP8 DUP4 MUL SDIV SDIV SWAP2 DUP3 ADD SWAP2 SWAP1 POP PUSH1 0x4 PUSH9 0x56BC75E2D63100000 DUP8 DUP4 MUL SDIV SDIV SWAP2 DUP3 ADD SWAP2 SWAP1 POP PUSH1 0x5 PUSH9 0x56BC75E2D63100000 DUP8 DUP4 MUL SDIV SDIV SWAP2 DUP3 ADD SWAP2 SWAP1 POP PUSH1 0x6 PUSH9 0x56BC75E2D63100000 DUP8 DUP4 MUL SDIV SDIV SWAP2 DUP3 ADD SWAP2 SWAP1 POP PUSH1 0x7 PUSH9 0x56BC75E2D63100000 DUP8 DUP4 MUL SDIV SDIV SWAP2 DUP3 ADD SWAP2 SWAP1 POP PUSH1 0x8 PUSH9 0x56BC75E2D63100000 DUP8 DUP4 MUL SDIV SDIV SWAP2 DUP3 ADD SWAP2 SWAP1 POP PUSH1 0x9 PUSH9 0x56BC75E2D63100000 DUP8 DUP4 MUL SDIV SDIV SWAP2 DUP3 ADD SWAP2 SWAP1 POP PUSH1 0xA PUSH9 0x56BC75E2D63100000 DUP8 DUP4 MUL SDIV SDIV SWAP2 DUP3 ADD SWAP2 SWAP1 POP PUSH1 0xB PUSH9 0x56BC75E2D63100000 DUP8 DUP4 MUL SDIV SDIV SWAP2 DUP3 ADD SWAP2 SWAP1 POP PUSH1 0xC PUSH9 0x56BC75E2D63100000 DUP8 DUP4 MUL SDIV SDIV SWAP2 DUP3 ADD SWAP2 SWAP1 POP PUSH1 0x64 PUSH9 0x56BC75E2D63100000 DUP5 DUP5 MUL SDIV DUP6 MUL SDIV SWAP7 SWAP6 POP POP POP POP POP POP JUMP JUMPDEST PUSH1 0x1 PUSH1 0x1 PUSH1 0xA0 SHL SUB DUP2 AND DUP2 EQ PUSH2 0x12E6 JUMPI PUSH1 0x0 DUP1 REVERT JUMPDEST POP JUMP JUMPDEST PUSH4 0x4E487B71 PUSH1 0xE0 SHL PUSH1 0x0 MSTORE PUSH1 0x41 PUSH1 0x4 MSTORE PUSH1 0x24 PUSH1 0x0 REVERT JUMPDEST PUSH1 0x40 MLOAD PUSH1 0x60 DUP2 ADD PUSH8 0xFFFFFFFFFFFFFFFF DUP2 GT DUP3 DUP3 LT OR ISZERO PUSH2 0x1322 JUMPI PUSH2 0x1322 PUSH2 0x12E9 JUMP JUMPDEST PUSH1 0x40 MSTORE SWAP1 JUMP JUMPDEST PUSH1 0x40 MLOAD PUSH1 0x1F DUP3 ADD PUSH1 0x1F NOT AND DUP2 ADD PUSH8 0xFFFFFFFFFFFFFFFF DUP2 GT DUP3 DUP3 LT OR ISZERO PUSH2 0x1351 JUMPI PUSH2 0x1351 PUSH2 0x12E9 JUMP JUMPDEST PUSH1 0x40 MSTORE SWAP2 SWAP1 POP JUMP JUMPDEST PUSH1 0x0 DUP1 PUSH1 0x40 DUP1 DUP5 DUP7 SUB SLT ISZERO PUSH2 0x136D JUMPI PUSH1 0x0 DUP1 REVERT JUMPDEST DUP4 CALLDATALOAD PUSH2 0x1378 DUP2 PUSH2 0x12D1 JUMP JUMPDEST SWAP3 POP PUSH1 0x20 DUP5 DUP2 ADD CALLDATALOAD PUSH8 0xFFFFFFFFFFFFFFFF DUP1 DUP3 GT ISZERO PUSH2 0x1396 JUMPI PUSH1 0x0 DUP1 REVERT JUMPDEST DUP2 DUP8 ADD SWAP2 POP DUP8 PUSH1 0x1F DUP4 ADD SLT PUSH2 0x13AA JUMPI PUSH1 0x0 DUP1 REVERT JUMPDEST DUP2 CALLDATALOAD DUP2 DUP2 GT ISZERO PUSH2 0x13BC JUMPI PUSH2 0x13BC PUSH2 0x12E9 JUMP JUMPDEST PUSH2 0x13CA DUP5 DUP3 PUSH1 0x5 SHL ADD PUSH2 0x1328 JUMP JUMPDEST DUP2 DUP2 MSTORE DUP5 DUP2 ADD SWAP3 POP PUSH1 0x60 SWAP2 DUP3 MUL DUP5 ADD DUP6 ADD SWAP2 DUP11 DUP4 GT ISZERO PUSH2 0x13E9 JUMPI PUSH1 0x0 DUP1 REVERT JUMPDEST SWAP4 DUP6 ADD SWAP4 JUMPDEST DUP3 DUP6 LT ISZERO PUSH2 0x1449 JUMPI DUP1 DUP6 DUP13 SUB SLT ISZERO PUSH2 0x1406 JUMPI PUSH1 0x0 DUP1 DUP2 REVERT JUMPDEST PUSH2 0x140E PUSH2 0x12FF JUMP JUMPDEST DUP6 CALLDATALOAD PUSH2 0x1419 DUP2 PUSH2 0x12D1 JUMP JUMPDEST DUP2 MSTORE DUP6 DUP8 ADD CALLDATALOAD DUP1 ISZERO ISZERO DUP2 EQ PUSH2 0x142E JUMPI PUSH1 0x0 DUP1 DUP2 REVERT JUMPDEST DUP2 DUP9 ADD MSTORE DUP6 DUP9 ADD CALLDATALOAD DUP9 DUP3 ADD MSTORE DUP5 MSTORE SWAP4 DUP5 ADD SWAP4 SWAP3 DUP6 ADD SWAP3 PUSH2 0x13EE JUMP JUMPDEST POP DUP1 SWAP7 POP POP POP POP POP POP POP SWAP3 POP SWAP3 SWAP1 POP JUMP JUMPDEST PUSH1 0x0 PUSH1 0x20 DUP3 DUP5 SUB SLT ISZERO PUSH2 0x146C JUMPI PUSH1 0x0 DUP1 REVERT JUMPDEST DUP2 MLOAD PUSH2 0x1477 DUP2 PUSH2 0x12D1 JUMP JUMPDEST SWAP4 SWAP3 POP POP POP JUMP JUMPDEST PUSH1 0x0 PUSH1 0x20 DUP3 DUP5 SUB SLT ISZERO PUSH2 0x1490 JUMPI PUSH1 0x0 DUP1 REVERT JUMPDEST POP MLOAD SWAP2 SWAP1 POP JUMP JUMPDEST PUSH4 0x4E487B71 PUSH1 0xE0 SHL PUSH1 0x0 MSTORE PUSH1 0x32 PUSH1 0x4 MSTORE PUSH1 0x24 PUSH1 0x0 REVERT JUMPDEST PUSH4 0x4E487B71 PUSH1 0xE0 SHL PUSH1 0x0 MSTORE PUSH1 0x11 PUSH1 0x4 MSTORE PUSH1 0x24 PUSH1 0x0 REVERT JUMPDEST PUSH1 0x0 PUSH1 0x0 NOT DUP3 EQ ISZERO PUSH2 0x14D7 JUMPI PUSH2 0x14D7 PUSH2 0x14AD JUMP JUMPDEST POP PUSH1 0x1 ADD SWAP1 JUMP JUMPDEST PUSH1 0x0 PUSH1 0x20 DUP1 DUP4 MSTORE DUP4 MLOAD DUP1 DUP3 DUP6 ADD MSTORE PUSH1 0x0 JUMPDEST DUP2 DUP2 LT ISZERO PUSH2 0x150B JUMPI DUP6 DUP2 ADD DUP4 ADD MLOAD DUP6 DUP3 ADD PUSH1 0x40 ADD MSTORE DUP3 ADD PUSH2 0x14EF JUMP JUMPDEST DUP2 DUP2 GT ISZERO PUSH2 0x151D JUMPI PUSH1 0x0 PUSH1 0x40 DUP4 DUP8 ADD ADD MSTORE JUMPDEST POP PUSH1 0x1F ADD PUSH1 0x1F NOT AND SWAP3 SWAP1 SWAP3 ADD PUSH1 0x40 ADD SWAP4 SWAP3 POP POP POP JUMP JUMPDEST PUSH4 0x4E487B71 PUSH1 0xE0 SHL PUSH1 0x0 MSTORE PUSH1 0x12 PUSH1 0x4 MSTORE PUSH1 0x24 PUSH1 0x0 REVERT JUMPDEST PUSH1 0x0 DUP3 PUSH2 0x1566 JUMPI PUSH4 0x4E487B71 PUSH1 0xE0 SHL PUSH1 0x0 MSTORE PUSH1 0x12 PUSH1 0x4 MSTORE PUSH1 0x24 PUSH1 0x0 REVERT JUMPDEST POP DIV SWAP1 JUMP JUMPDEST PUSH1 0x0 DUP3 NOT DUP3 GT ISZERO PUSH2 0x157E JUMPI PUSH2 0x157E PUSH2 0x14AD JUMP JUMPDEST POP ADD SWAP1 JUMP JUMPDEST PUSH1 0x0 DUP3 DUP3 LT ISZERO PUSH2 0x1595 JUMPI PUSH2 0x1595 PUSH2 0x14AD JUMP JUMPDEST POP SUB SWAP1 JUMP JUMPDEST PUSH1 0x0 DUP2 PUSH1 0x0 NOT DIV DUP4 GT DUP3 ISZERO ISZERO AND ISZERO PUSH2 0x15B4 JUMPI PUSH2 0x15B4 PUSH2 0x14AD JUMP JUMPDEST POP MUL SWAP1 JUMP INVALID LOG2 PUSH5 0x6970667358 0x22 SLT KECCAK256 DUP7 SIGNEXTEND 0x5C INVALID SWAP15 0xDF DUP8 0xBF 0x5D SWAP12 0xA9 MLOAD 0xB1 0x2C SWAP2 0xDE DIV SWAP4 0xEE BYTE 0xE 0xCF DUP11 AND DIV COINBASE DUP2 ADDRESS CALLDATALOAD NOT 0xB8 BASEFEE PUSH5 0x736F6C6343 STOP ADDMOD EXP STOP CALLER ","sha1":"6bbe835584658be6275ccd87eae7ae0a5bfeca34","source":"// SPDX-License-Identifier: LicenseRef-Gyro-1.0\n// for information on licensing please see the README in the GitHub repository <https://github.com/gyrostable/core-protocol>.\npragma solidity ^0.8.4;\n\nimport \"./BalancerLPSharePricing.sol\";\nimport \"./BaseBalancerPriceOracle.sol\";\n\nimport \"../../../libraries/TypeConversion.sol\";\n\nimport \"../../../interfaces/balancer/I3CLP.sol\";\n\ncontract Balancer3CLPPriceOracle is BaseBalancerPriceOracle {\n    using TypeConversion for DataTypes.PricedToken[];\n    using FixedPoint for uint256;\n\n    /// @inheritdoc BaseVaultPriceOracle\n    function getPoolTokenPriceUSD(\n        IGyroVault vault,\n        DataTypes.PricedToken[] memory underlyingPricedTokens\n    ) public view override returns (uint256) {\n        I3CLP pool = I3CLP(vault.underlying());\n        return\n            BalancerLPSharePricing.priceBpt3CLP(\n                pool.getRoot3Alpha(),\n                getInvariantDivSupply(pool),\n                underlyingPricedTokens.pluckPrices()\n            );\n    }\n}\n","sourcePath":"contracts/oracles/balancer/BalancerCPMMV3PriceOracle.sol","type":"contract","deployment":{"address":"0x7EDfa795f07F701bC8BB0bDBE8FDbdcAC94bf531","chainid":"137","blockHeight":36351936}}