{"abi":[{"anonymous":false,"inputs":[{"indexed":true,"internalType":"address","name":"asset","type":"address"},{"indexed":true,"internalType":"address","name":"previousFeed","type":"address"},{"indexed":true,"internalType":"address","name":"newFeed","type":"address"},{"components":[{"internalType":"uint64","name":"minDiffTime","type":"uint64"},{"internalType":"uint64","name":"maxDeviation","type":"uint64"}],"indexed":false,"internalType":"struct CrashProtectedChainlinkPriceOracle.FeedMeta","name":"meta","type":"tuple"}],"name":"FeedUpdated","type":"event"},{"anonymous":false,"inputs":[{"indexed":false,"internalType":"address","name":"oldGovernor","type":"address"},{"indexed":false,"internalType":"address","name":"newGovernor","type":"address"}],"name":"GovernorChanged","type":"event"},{"inputs":[],"name":"MAX_LAG","outputs":[{"internalType":"uint256","name":"","type":"uint256"}],"stateMutability":"view","type":"function"},{"inputs":[{"internalType":"address","name":"newGovernor","type":"address"}],"name":"changeGovernor","outputs":[],"stateMutability":"nonpayable","type":"function"},{"inputs":[{"internalType":"address","name":"","type":"address"}],"name":"feedMetas","outputs":[{"internalType":"uint64","name":"minDiffTime","type":"uint64"},{"internalType":"uint64","name":"maxDeviation","type":"uint64"}],"stateMutability":"view","type":"function"},{"inputs":[{"internalType":"address","name":"","type":"address"}],"name":"feeds","outputs":[{"internalType":"address","name":"","type":"address"}],"stateMutability":"view","type":"function"},{"inputs":[{"internalType":"address","name":"asset","type":"address"}],"name":"getPriceUSD","outputs":[{"internalType":"uint256","name":"","type":"uint256"}],"stateMutability":"view","type":"function"},{"inputs":[],"name":"governor","outputs":[{"internalType":"address","name":"","type":"address"}],"stateMutability":"view","type":"function"},{"inputs":[{"internalType":"address","name":"asset","type":"address"},{"internalType":"address","name":"feed","type":"address"},{"components":[{"internalType":"uint64","name":"minDiffTime","type":"uint64"},{"internalType":"uint64","name":"maxDeviation","type":"uint64"}],"internalType":"struct CrashProtectedChainlinkPriceOracle.FeedMeta","name":"feedMeta","type":"tuple"}],"name":"setFeed","outputs":[],"stateMutability":"nonpayable","type":"function"}],"bytecode":"608060405234801561001057600080fd5b50600080546001600160a01b0319163390811782556040805192835260208301919091527fde4b3f61490b74c0ed6237523974fe299126bbbf8a8a7482fd220104c59b0c84910160405180910390a1610c2b8061006e6000396000f3fe608060405234801561001057600080fd5b506004361061007d5760003560e01c80634cbacc841161005b5780634cbacc84146100f35780635462001e146101495780635708447d1461015e578063e4c0aaf41461017157600080fd5b80630c340a241461008257806314c1d37f146100b25780632fba4aa9146100ca575b600080fd5b600054610095906001600160a01b031681565b6040516001600160a01b0390911681526020015b60405180910390f35b6100bc6201518081565b6040519081526020016100a9565b6100956100d8366004610870565b6001602052600090815260409020546001600160a01b031681565b610128610101366004610870565b60026020526000908152604090205467ffffffffffffffff80821691600160401b90041682565b6040805167ffffffffffffffff9384168152929091166020830152016100a9565b61015c6101573660046108a3565b610184565b005b6100bc61016c366004610870565b610332565b61015c61017f366004610870565b6105a6565b600054604080518082019091526002815261033360f41b6020820152906001600160a01b031633146101d25760405162461bcd60e51b81526004016101c99190610945565b60405180910390fd5b506001600160a01b038084166000908152600160209081526040918290205482518084019093526002835261333160f01b91830191909152821691841682141561022f5760405162461bcd60e51b81526004016101c99190610945565b508151604080518082019091526002815261333160f01b60208201529067ffffffffffffffff166102735760405162461bcd60e51b81526004016101c99190610945565b506001600160a01b03848116600081815260016020908152604080832080546001600160a01b031916898716908117909155808452600283529281902087518154898501805167ffffffffffffffff9384166fffffffffffffffffffffffffffffffff199093168317600160401b91851691909102179093558351908152915116928101929092529193851692917fdc65aceb37af772a52834bdb6f74f79c209765225d01455d6a9b273a776547bb910160405180910390a450505050565b6001600160a01b0380821660009081526001602090815260408083205481518083019092526002825261034360f41b92820192909252919216908161038a5760405162461bcd60e51b81526004016101c99190610945565b5060008060006103998461064d565b6001600160a01b038716600090815260026020908152604080832081518083019092525467ffffffffffffffff8082168352600160401b90910416918101919091529396509194509250805b6103f06001876109b0565b604051639a6fc8f560e01b815269ffffffffffffffffffff821660048201529096506001600160a01b03881690639a6fc8f59060240160a060405180830381865afa158015610443573d6000803e3d6000fd5b505050506040513d601f19601f8201168201806040525081019061046791906109f5565b50865192955093505067ffffffffffffffff1690506104868286610a45565b106103e5576040805180820190915260028152611a1960f11b602082015260008312156104c65760405162461bcd60e51b81526004016101c99190610945565b508160006104de876104d88482610750565b9061077c565b9050846020015167ffffffffffffffff168110604051806040016040528060028152602001610d0d60f21b8152509061052a5760405162461bcd60e51b81526004016101c99190610945565b50610597896001600160a01b031663313ce5676040518163ffffffff1660e01b8152600401602060405180830381865afa15801561056c573d6000803e3d6000fd5b505050506040513d601f19601f820116820180604052508101906105909190610a5c565b88906107ec565b9b9a5050505050505050505050565b600054604080518082019091526002815261033360f41b6020820152906001600160a01b031633146105eb5760405162461bcd60e51b81526004016101c99190610945565b50600080546001600160a01b038381166001600160a01b031983168117909355604080519190921680825260208201939093527fde4b3f61490b74c0ed6237523974fe299126bbbf8a8a7482fd220104c59b0c84910160405180910390a15050565b600080600080846001600160a01b031663feaf968c6040518163ffffffff1660e01b815260040160a060405180830381865afa158015610691573d6000803e3d6000fd5b505050506040513d601f19601f820116820180604052508101906106b591906109f5565b5092965091935091506106cd90506201518083610a86565b42111560405180604001604052806002815260200161343160f01b815250906107095760405162461bcd60e51b81526004016101c99190610945565b506040805180820190915260028152611a1960f11b602082015260008212156107455760405162461bcd60e51b81526004016101c99190610945565b509294929350919050565b600081831015610769576107648383610a45565b610773565b6107738284610a45565b90505b92915050565b604080518082019091526002815261323560f01b6020820152600090826107b65760405162461bcd60e51b81526004016101c99190610945565b50826107c457506000610776565b60006107d8670de0b6b3a764000085610a9e565b90506107e48382610abd565b915050610776565b600060ff821660121415610801575081610776565b601260ff8316111561083457610818601283610adf565b61082390600a610be6565b61082d9084610abd565b9050610776565b61083f826012610adf565b61084a90600a610be6565b61082d9084610a9e565b80356001600160a01b038116811461086b57600080fd5b919050565b60006020828403121561088257600080fd5b61077382610854565b803567ffffffffffffffff8116811461086b57600080fd5b600080600083850360808112156108b957600080fd5b6108c285610854565b93506108d060208601610854565b92506040603f19820112156108e457600080fd5b506040516040810181811067ffffffffffffffff8211171561091657634e487b7160e01b600052604160045260246000fd5b80604052506109276040860161088b565b81526109356060860161088b565b6020820152809150509250925092565b600060208083528351808285015260005b8181101561097257858101830151858201604001528201610956565b81811115610984576000604083870101525b50601f01601f1916929092016040019392505050565b634e487b7160e01b600052601160045260246000fd5b600069ffffffffffffffffffff838116908316818110156109d3576109d361099a565b039392505050565b805169ffffffffffffffffffff8116811461086b57600080fd5b600080600080600060a08688031215610a0d57600080fd5b610a16866109db565b9450602086015193506040860151925060608601519150610a39608087016109db565b90509295509295909350565b600082821015610a5757610a5761099a565b500390565b600060208284031215610a6e57600080fd5b815160ff81168114610a7f57600080fd5b9392505050565b60008219821115610a9957610a9961099a565b500190565b6000816000190483118215151615610ab857610ab861099a565b500290565b600082610ada57634e487b7160e01b600052601260045260246000fd5b500490565b600060ff821660ff841680821015610af957610af961099a565b90039392505050565b600181815b80851115610b3d578160001904821115610b2357610b2361099a565b80851615610b3057918102915b93841c9390800290610b07565b509250929050565b600082610b5457506001610776565b81610b6157506000610776565b8160018114610b775760028114610b8157610b9d565b6001915050610776565b60ff841115610b9257610b9261099a565b50506001821b610776565b5060208310610133831016604e8410600b8410161715610bc0575081810a610776565b610bca8383610b02565b8060001904821115610bde57610bde61099a565b029392505050565b600061077360ff841683610b4556fea26469706673582212208a1e861f907ad03032bf0ff7a6befdd94d73dbb0eca69322ec3a359065aea19864736f6c634300080a0033","bytecodeSha1":"78c95de9807d0fc0a1b379f7682f84523abcdd9a","compiler":{"evm_version":"istanbul","optimizer":{"enabled":true,"runs":200},"version":"0.8.10+commit.fc410830"},"contractName":"CrashProtectedChainlinkPriceOracle","language":"Solidity","natspec":{"kind":"dev","methods":{"changeGovernor(address)":{"notice":"Changes the governor can only be called by the current governor"},"getPriceUSD(address)":{"notice":"Quotes the USD price of `tokenAddress` The quoted price is always scaled with 18 decimals regardless of the source used for the oracle.","params":{"tokenAddress":"the asset of which the price is to be quoted"},"returns":{"_0":"the USD price of the asset"}},"governor()":{"notice":"Returns the current governor"},"setFeed(address,address,(uint64,uint64))":{"notice":"Allows to set Chainlink feeds with the metadata"}},"version":1},"opcodes":"PUSH1 0x80 PUSH1 0x40 MSTORE CALLVALUE DUP1 ISZERO PUSH2 0x10 JUMPI PUSH1 0x0 DUP1 REVERT JUMPDEST POP PUSH1 0x4 CALLDATASIZE LT PUSH2 0x7D JUMPI PUSH1 0x0 CALLDATALOAD PUSH1 0xE0 SHR DUP1 PUSH4 0x4CBACC84 GT PUSH2 0x5B JUMPI DUP1 PUSH4 0x4CBACC84 EQ PUSH2 0xF3 JUMPI DUP1 PUSH4 0x5462001E EQ PUSH2 0x149 JUMPI DUP1 PUSH4 0x5708447D EQ PUSH2 0x15E JUMPI DUP1 PUSH4 0xE4C0AAF4 EQ PUSH2 0x171 JUMPI PUSH1 0x0 DUP1 REVERT JUMPDEST DUP1 PUSH4 0xC340A24 EQ PUSH2 0x82 JUMPI DUP1 PUSH4 0x14C1D37F EQ PUSH2 0xB2 JUMPI DUP1 PUSH4 0x2FBA4AA9 EQ PUSH2 0xCA JUMPI JUMPDEST PUSH1 0x0 DUP1 REVERT JUMPDEST PUSH1 0x0 SLOAD PUSH2 0x95 SWAP1 PUSH1 0x1 PUSH1 0x1 PUSH1 0xA0 SHL SUB AND DUP2 JUMP JUMPDEST PUSH1 0x40 MLOAD PUSH1 0x1 PUSH1 0x1 PUSH1 0xA0 SHL SUB SWAP1 SWAP2 AND DUP2 MSTORE PUSH1 0x20 ADD JUMPDEST PUSH1 0x40 MLOAD DUP1 SWAP2 SUB SWAP1 RETURN JUMPDEST PUSH2 0xBC PUSH3 0x15180 DUP2 JUMP JUMPDEST PUSH1 0x40 MLOAD SWAP1 DUP2 MSTORE PUSH1 0x20 ADD PUSH2 0xA9 JUMP JUMPDEST PUSH2 0x95 PUSH2 0xD8 CALLDATASIZE PUSH1 0x4 PUSH2 0x870 JUMP JUMPDEST PUSH1 0x1 PUSH1 0x20 MSTORE PUSH1 0x0 SWAP1 DUP2 MSTORE PUSH1 0x40 SWAP1 KECCAK256 SLOAD PUSH1 0x1 PUSH1 0x1 PUSH1 0xA0 SHL SUB AND DUP2 JUMP JUMPDEST PUSH2 0x128 PUSH2 0x101 CALLDATASIZE PUSH1 0x4 PUSH2 0x870 JUMP JUMPDEST PUSH1 0x2 PUSH1 0x20 MSTORE PUSH1 0x0 SWAP1 DUP2 MSTORE PUSH1 0x40 SWAP1 KECCAK256 SLOAD PUSH8 0xFFFFFFFFFFFFFFFF DUP1 DUP3 AND SWAP2 PUSH1 0x1 PUSH1 0x40 SHL SWAP1 DIV AND DUP3 JUMP JUMPDEST PUSH1 0x40 DUP1 MLOAD PUSH8 0xFFFFFFFFFFFFFFFF SWAP4 DUP5 AND DUP2 MSTORE SWAP3 SWAP1 SWAP2 AND PUSH1 0x20 DUP4 ADD MSTORE ADD PUSH2 0xA9 JUMP JUMPDEST PUSH2 0x15C PUSH2 0x157 CALLDATASIZE PUSH1 0x4 PUSH2 0x8A3 JUMP JUMPDEST PUSH2 0x184 JUMP JUMPDEST STOP JUMPDEST PUSH2 0xBC PUSH2 0x16C CALLDATASIZE PUSH1 0x4 PUSH2 0x870 JUMP JUMPDEST PUSH2 0x332 JUMP JUMPDEST PUSH2 0x15C PUSH2 0x17F CALLDATASIZE PUSH1 0x4 PUSH2 0x870 JUMP JUMPDEST PUSH2 0x5A6 JUMP JUMPDEST PUSH1 0x0 SLOAD PUSH1 0x40 DUP1 MLOAD DUP1 DUP3 ADD SWAP1 SWAP2 MSTORE PUSH1 0x2 DUP2 MSTORE PUSH2 0x333 PUSH1 0xF4 SHL PUSH1 0x20 DUP3 ADD MSTORE SWAP1 PUSH1 0x1 PUSH1 0x1 PUSH1 0xA0 SHL SUB AND CALLER EQ PUSH2 0x1D2 JUMPI PUSH1 0x40 MLOAD PUSH3 0x461BCD PUSH1 0xE5 SHL DUP2 MSTORE PUSH1 0x4 ADD PUSH2 0x1C9 SWAP2 SWAP1 PUSH2 0x945 JUMP JUMPDEST PUSH1 0x40 MLOAD DUP1 SWAP2 SUB SWAP1 REVERT JUMPDEST POP PUSH1 0x1 PUSH1 0x1 PUSH1 0xA0 SHL SUB DUP1 DUP5 AND PUSH1 0x0 SWAP1 DUP2 MSTORE PUSH1 0x1 PUSH1 0x20 SWAP1 DUP2 MSTORE PUSH1 0x40 SWAP2 DUP3 SWAP1 KECCAK256 SLOAD DUP3 MLOAD DUP1 DUP5 ADD SWAP1 SWAP4 MSTORE PUSH1 0x2 DUP4 MSTORE PUSH2 0x3331 PUSH1 0xF0 SHL SWAP2 DUP4 ADD SWAP2 SWAP1 SWAP2 MSTORE DUP3 AND SWAP2 DUP5 AND DUP3 EQ ISZERO PUSH2 0x22F JUMPI PUSH1 0x40 MLOAD PUSH3 0x461BCD PUSH1 0xE5 SHL DUP2 MSTORE PUSH1 0x4 ADD PUSH2 0x1C9 SWAP2 SWAP1 PUSH2 0x945 JUMP JUMPDEST POP DUP2 MLOAD PUSH1 0x40 DUP1 MLOAD DUP1 DUP3 ADD SWAP1 SWAP2 MSTORE PUSH1 0x2 DUP2 MSTORE PUSH2 0x3331 PUSH1 0xF0 SHL PUSH1 0x20 DUP3 ADD MSTORE SWAP1 PUSH8 0xFFFFFFFFFFFFFFFF AND PUSH2 0x273 JUMPI PUSH1 0x40 MLOAD PUSH3 0x461BCD PUSH1 0xE5 SHL DUP2 MSTORE PUSH1 0x4 ADD PUSH2 0x1C9 SWAP2 SWAP1 PUSH2 0x945 JUMP JUMPDEST POP PUSH1 0x1 PUSH1 0x1 PUSH1 0xA0 SHL SUB DUP5 DUP2 AND PUSH1 0x0 DUP2 DUP2 MSTORE PUSH1 0x1 PUSH1 0x20 SWAP1 DUP2 MSTORE PUSH1 0x40 DUP1 DUP4 KECCAK256 DUP1 SLOAD PUSH1 0x1 PUSH1 0x1 PUSH1 0xA0 SHL SUB NOT AND DUP10 DUP8 AND SWAP1 DUP2 OR SWAP1 SWAP2 SSTORE DUP1 DUP5 MSTORE PUSH1 0x2 DUP4 MSTORE SWAP3 DUP2 SWAP1 KECCAK256 DUP8 MLOAD DUP2 SLOAD DUP10 DUP6 ADD DUP1 MLOAD PUSH8 0xFFFFFFFFFFFFFFFF SWAP4 DUP5 AND PUSH16 0xFFFFFFFFFFFFFFFFFFFFFFFFFFFFFFFF NOT SWAP1 SWAP4 AND DUP4 OR PUSH1 0x1 PUSH1 0x40 SHL SWAP2 DUP6 AND SWAP2 SWAP1 SWAP2 MUL OR SWAP1 SWAP4 SSTORE DUP4 MLOAD SWAP1 DUP2 MSTORE SWAP2 MLOAD AND SWAP3 DUP2 ADD SWAP3 SWAP1 SWAP3 MSTORE SWAP2 SWAP4 DUP6 AND SWAP3 SWAP2 PUSH32 0xDC65ACEB37AF772A52834BDB6F74F79C209765225D01455D6A9B273A776547BB SWAP2 ADD PUSH1 0x40 MLOAD DUP1 SWAP2 SUB SWAP1 LOG4 POP POP POP POP JUMP JUMPDEST PUSH1 0x1 PUSH1 0x1 PUSH1 0xA0 SHL SUB DUP1 DUP3 AND PUSH1 0x0 SWAP1 DUP2 MSTORE PUSH1 0x1 PUSH1 0x20 SWAP1 DUP2 MSTORE PUSH1 0x40 DUP1 DUP4 KECCAK256 SLOAD DUP2 MLOAD DUP1 DUP4 ADD SWAP1 SWAP3 MSTORE PUSH1 0x2 DUP3 MSTORE PUSH2 0x343 PUSH1 0xF4 SHL SWAP3 DUP3 ADD SWAP3 SWAP1 SWAP3 MSTORE SWAP2 SWAP3 AND SWAP1 DUP2 PUSH2 0x38A JUMPI PUSH1 0x40 MLOAD PUSH3 0x461BCD PUSH1 0xE5 SHL DUP2 MSTORE PUSH1 0x4 ADD PUSH2 0x1C9 SWAP2 SWAP1 PUSH2 0x945 JUMP JUMPDEST POP PUSH1 0x0 DUP1 PUSH1 0x0 PUSH2 0x399 DUP5 PUSH2 0x64D JUMP JUMPDEST PUSH1 0x1 PUSH1 0x1 PUSH1 0xA0 SHL SUB DUP8 AND PUSH1 0x0 SWAP1 DUP2 MSTORE PUSH1 0x2 PUSH1 0x20 SWAP1 DUP2 MSTORE PUSH1 0x40 DUP1 DUP4 KECCAK256 DUP2 MLOAD DUP1 DUP4 ADD SWAP1 SWAP3 MSTORE SLOAD PUSH8 0xFFFFFFFFFFFFFFFF DUP1 DUP3 AND DUP4 MSTORE PUSH1 0x1 PUSH1 0x40 SHL SWAP1 SWAP2 DIV AND SWAP2 DUP2 ADD SWAP2 SWAP1 SWAP2 MSTORE SWAP4 SWAP7 POP SWAP2 SWAP5 POP SWAP3 POP DUP1 JUMPDEST PUSH2 0x3F0 PUSH1 0x1 DUP8 PUSH2 0x9B0 JUMP JUMPDEST PUSH1 0x40 MLOAD PUSH4 0x9A6FC8F5 PUSH1 0xE0 SHL DUP2 MSTORE PUSH10 0xFFFFFFFFFFFFFFFFFFFF DUP3 AND PUSH1 0x4 DUP3 ADD MSTORE SWAP1 SWAP7 POP PUSH1 0x1 PUSH1 0x1 PUSH1 0xA0 SHL SUB DUP9 AND SWAP1 PUSH4 0x9A6FC8F5 SWAP1 PUSH1 0x24 ADD PUSH1 0xA0 PUSH1 0x40 MLOAD DUP1 DUP4 SUB DUP2 DUP7 GAS STATICCALL ISZERO DUP1 ISZERO PUSH2 0x443 JUMPI RETURNDATASIZE PUSH1 0x0 DUP1 RETURNDATACOPY RETURNDATASIZE PUSH1 0x0 REVERT JUMPDEST POP POP POP POP PUSH1 0x40 MLOAD RETURNDATASIZE PUSH1 0x1F NOT PUSH1 0x1F DUP3 ADD AND DUP3 ADD DUP1 PUSH1 0x40 MSTORE POP DUP2 ADD SWAP1 PUSH2 0x467 SWAP2 SWAP1 PUSH2 0x9F5 JUMP JUMPDEST POP DUP7 MLOAD SWAP3 SWAP6 POP SWAP4 POP POP PUSH8 0xFFFFFFFFFFFFFFFF AND SWAP1 POP PUSH2 0x486 DUP3 DUP7 PUSH2 0xA45 JUMP JUMPDEST LT PUSH2 0x3E5 JUMPI PUSH1 0x40 DUP1 MLOAD DUP1 DUP3 ADD SWAP1 SWAP2 MSTORE PUSH1 0x2 DUP2 MSTORE PUSH2 0x1A19 PUSH1 0xF1 SHL PUSH1 0x20 DUP3 ADD MSTORE PUSH1 0x0 DUP4 SLT ISZERO PUSH2 0x4C6 JUMPI PUSH1 0x40 MLOAD PUSH3 0x461BCD PUSH1 0xE5 SHL DUP2 MSTORE PUSH1 0x4 ADD PUSH2 0x1C9 SWAP2 SWAP1 PUSH2 0x945 JUMP JUMPDEST POP DUP2 PUSH1 0x0 PUSH2 0x4DE DUP8 PUSH2 0x4D8 DUP5 DUP3 PUSH2 0x750 JUMP JUMPDEST SWAP1 PUSH2 0x77C JUMP JUMPDEST SWAP1 POP DUP5 PUSH1 0x20 ADD MLOAD PUSH8 0xFFFFFFFFFFFFFFFF AND DUP2 LT PUSH1 0x40 MLOAD DUP1 PUSH1 0x40 ADD PUSH1 0x40 MSTORE DUP1 PUSH1 0x2 DUP2 MSTORE PUSH1 0x20 ADD PUSH2 0xD0D PUSH1 0xF2 SHL DUP2 MSTORE POP SWAP1 PUSH2 0x52A JUMPI PUSH1 0x40 MLOAD PUSH3 0x461BCD PUSH1 0xE5 SHL DUP2 MSTORE PUSH1 0x4 ADD PUSH2 0x1C9 SWAP2 SWAP1 PUSH2 0x945 JUMP JUMPDEST POP PUSH2 0x597 DUP10 PUSH1 0x1 PUSH1 0x1 PUSH1 0xA0 SHL SUB AND PUSH4 0x313CE567 PUSH1 0x40 MLOAD DUP2 PUSH4 0xFFFFFFFF AND PUSH1 0xE0 SHL DUP2 MSTORE PUSH1 0x4 ADD PUSH1 0x20 PUSH1 0x40 MLOAD DUP1 DUP4 SUB DUP2 DUP7 GAS STATICCALL ISZERO DUP1 ISZERO PUSH2 0x56C JUMPI RETURNDATASIZE PUSH1 0x0 DUP1 RETURNDATACOPY RETURNDATASIZE PUSH1 0x0 REVERT JUMPDEST POP POP POP POP PUSH1 0x40 MLOAD RETURNDATASIZE PUSH1 0x1F NOT PUSH1 0x1F DUP3 ADD AND DUP3 ADD DUP1 PUSH1 0x40 MSTORE POP DUP2 ADD SWAP1 PUSH2 0x590 SWAP2 SWAP1 PUSH2 0xA5C JUMP JUMPDEST DUP9 SWAP1 PUSH2 0x7EC JUMP JUMPDEST SWAP12 SWAP11 POP POP POP POP POP POP POP POP POP POP POP JUMP JUMPDEST PUSH1 0x0 SLOAD PUSH1 0x40 DUP1 MLOAD DUP1 DUP3 ADD SWAP1 SWAP2 MSTORE PUSH1 0x2 DUP2 MSTORE PUSH2 0x333 PUSH1 0xF4 SHL PUSH1 0x20 DUP3 ADD MSTORE SWAP1 PUSH1 0x1 PUSH1 0x1 PUSH1 0xA0 SHL SUB AND CALLER EQ PUSH2 0x5EB JUMPI PUSH1 0x40 MLOAD PUSH3 0x461BCD PUSH1 0xE5 SHL DUP2 MSTORE PUSH1 0x4 ADD PUSH2 0x1C9 SWAP2 SWAP1 PUSH2 0x945 JUMP JUMPDEST POP PUSH1 0x0 DUP1 SLOAD PUSH1 0x1 PUSH1 0x1 PUSH1 0xA0 SHL SUB DUP4 DUP2 AND PUSH1 0x1 PUSH1 0x1 PUSH1 0xA0 SHL SUB NOT DUP4 AND DUP2 OR SWAP1 SWAP4 SSTORE PUSH1 0x40 DUP1 MLOAD SWAP2 SWAP1 SWAP3 AND DUP1 DUP3 MSTORE PUSH1 0x20 DUP3 ADD SWAP4 SWAP1 SWAP4 MSTORE PUSH32 0xDE4B3F61490B74C0ED6237523974FE299126BBBF8A8A7482FD220104C59B0C84 SWAP2 ADD PUSH1 0x40 MLOAD DUP1 SWAP2 SUB SWAP1 LOG1 POP POP JUMP JUMPDEST PUSH1 0x0 DUP1 PUSH1 0x0 DUP1 DUP5 PUSH1 0x1 PUSH1 0x1 PUSH1 0xA0 SHL SUB AND PUSH4 0xFEAF968C PUSH1 0x40 MLOAD DUP2 PUSH4 0xFFFFFFFF AND PUSH1 0xE0 SHL DUP2 MSTORE PUSH1 0x4 ADD PUSH1 0xA0 PUSH1 0x40 MLOAD DUP1 DUP4 SUB DUP2 DUP7 GAS STATICCALL ISZERO DUP1 ISZERO PUSH2 0x691 JUMPI RETURNDATASIZE PUSH1 0x0 DUP1 RETURNDATACOPY RETURNDATASIZE PUSH1 0x0 REVERT JUMPDEST POP POP POP POP PUSH1 0x40 MLOAD RETURNDATASIZE PUSH1 0x1F NOT PUSH1 0x1F DUP3 ADD AND DUP3 ADD DUP1 PUSH1 0x40 MSTORE POP DUP2 ADD SWAP1 PUSH2 0x6B5 SWAP2 SWAP1 PUSH2 0x9F5 JUMP JUMPDEST POP SWAP3 SWAP7 POP SWAP2 SWAP4 POP SWAP2 POP PUSH2 0x6CD SWAP1 POP PUSH3 0x15180 DUP4 PUSH2 0xA86 JUMP JUMPDEST TIMESTAMP GT ISZERO PUSH1 0x40 MLOAD DUP1 PUSH1 0x40 ADD PUSH1 0x40 MSTORE DUP1 PUSH1 0x2 DUP2 MSTORE PUSH1 0x20 ADD PUSH2 0x3431 PUSH1 0xF0 SHL DUP2 MSTORE POP SWAP1 PUSH2 0x709 JUMPI PUSH1 0x40 MLOAD PUSH3 0x461BCD PUSH1 0xE5 SHL DUP2 MSTORE PUSH1 0x4 ADD PUSH2 0x1C9 SWAP2 SWAP1 PUSH2 0x945 JUMP JUMPDEST POP PUSH1 0x40 DUP1 MLOAD DUP1 DUP3 ADD SWAP1 SWAP2 MSTORE PUSH1 0x2 DUP2 MSTORE PUSH2 0x1A19 PUSH1 0xF1 SHL PUSH1 0x20 DUP3 ADD MSTORE PUSH1 0x0 DUP3 SLT ISZERO PUSH2 0x745 JUMPI PUSH1 0x40 MLOAD PUSH3 0x461BCD PUSH1 0xE5 SHL DUP2 MSTORE PUSH1 0x4 ADD PUSH2 0x1C9 SWAP2 SWAP1 PUSH2 0x945 JUMP JUMPDEST POP SWAP3 SWAP5 SWAP3 SWAP4 POP SWAP2 SWAP1 POP JUMP JUMPDEST PUSH1 0x0 DUP2 DUP4 LT ISZERO PUSH2 0x769 JUMPI PUSH2 0x764 DUP4 DUP4 PUSH2 0xA45 JUMP JUMPDEST PUSH2 0x773 JUMP JUMPDEST PUSH2 0x773 DUP3 DUP5 PUSH2 0xA45 JUMP JUMPDEST SWAP1 POP JUMPDEST SWAP3 SWAP2 POP POP JUMP JUMPDEST PUSH1 0x40 DUP1 MLOAD DUP1 DUP3 ADD SWAP1 SWAP2 MSTORE PUSH1 0x2 DUP2 MSTORE PUSH2 0x3235 PUSH1 0xF0 SHL PUSH1 0x20 DUP3 ADD MSTORE PUSH1 0x0 SWAP1 DUP3 PUSH2 0x7B6 JUMPI PUSH1 0x40 MLOAD PUSH3 0x461BCD PUSH1 0xE5 SHL DUP2 MSTORE PUSH1 0x4 ADD PUSH2 0x1C9 SWAP2 SWAP1 PUSH2 0x945 JUMP JUMPDEST POP DUP3 PUSH2 0x7C4 JUMPI POP PUSH1 0x0 PUSH2 0x776 JUMP JUMPDEST PUSH1 0x0 PUSH2 0x7D8 PUSH8 0xDE0B6B3A7640000 DUP6 PUSH2 0xA9E JUMP JUMPDEST SWAP1 POP PUSH2 0x7E4 DUP4 DUP3 PUSH2 0xABD JUMP JUMPDEST SWAP2 POP POP PUSH2 0x776 JUMP JUMPDEST PUSH1 0x0 PUSH1 0xFF DUP3 AND PUSH1 0x12 EQ ISZERO PUSH2 0x801 JUMPI POP DUP2 PUSH2 0x776 JUMP JUMPDEST PUSH1 0x12 PUSH1 0xFF DUP4 AND GT ISZERO PUSH2 0x834 JUMPI PUSH2 0x818 PUSH1 0x12 DUP4 PUSH2 0xADF JUMP JUMPDEST PUSH2 0x823 SWAP1 PUSH1 0xA PUSH2 0xBE6 JUMP JUMPDEST PUSH2 0x82D SWAP1 DUP5 PUSH2 0xABD JUMP JUMPDEST SWAP1 POP PUSH2 0x776 JUMP JUMPDEST PUSH2 0x83F DUP3 PUSH1 0x12 PUSH2 0xADF JUMP JUMPDEST PUSH2 0x84A SWAP1 PUSH1 0xA PUSH2 0xBE6 JUMP JUMPDEST PUSH2 0x82D SWAP1 DUP5 PUSH2 0xA9E JUMP JUMPDEST DUP1 CALLDATALOAD PUSH1 0x1 PUSH1 0x1 PUSH1 0xA0 SHL SUB DUP2 AND DUP2 EQ PUSH2 0x86B JUMPI PUSH1 0x0 DUP1 REVERT JUMPDEST SWAP2 SWAP1 POP JUMP JUMPDEST PUSH1 0x0 PUSH1 0x20 DUP3 DUP5 SUB SLT ISZERO PUSH2 0x882 JUMPI PUSH1 0x0 DUP1 REVERT JUMPDEST PUSH2 0x773 DUP3 PUSH2 0x854 JUMP JUMPDEST DUP1 CALLDATALOAD PUSH8 0xFFFFFFFFFFFFFFFF DUP2 AND DUP2 EQ PUSH2 0x86B JUMPI PUSH1 0x0 DUP1 REVERT JUMPDEST PUSH1 0x0 DUP1 PUSH1 0x0 DUP4 DUP6 SUB PUSH1 0x80 DUP2 SLT ISZERO PUSH2 0x8B9 JUMPI PUSH1 0x0 DUP1 REVERT JUMPDEST PUSH2 0x8C2 DUP6 PUSH2 0x854 JUMP JUMPDEST SWAP4 POP PUSH2 0x8D0 PUSH1 0x20 DUP7 ADD PUSH2 0x854 JUMP JUMPDEST SWAP3 POP PUSH1 0x40 PUSH1 0x3F NOT DUP3 ADD SLT ISZERO PUSH2 0x8E4 JUMPI PUSH1 0x0 DUP1 REVERT JUMPDEST POP PUSH1 0x40 MLOAD PUSH1 0x40 DUP2 ADD DUP2 DUP2 LT PUSH8 0xFFFFFFFFFFFFFFFF DUP3 GT OR ISZERO PUSH2 0x916 JUMPI PUSH4 0x4E487B71 PUSH1 0xE0 SHL PUSH1 0x0 MSTORE PUSH1 0x41 PUSH1 0x4 MSTORE PUSH1 0x24 PUSH1 0x0 REVERT JUMPDEST DUP1 PUSH1 0x40 MSTORE POP PUSH2 0x927 PUSH1 0x40 DUP7 ADD PUSH2 0x88B JUMP JUMPDEST DUP2 MSTORE PUSH2 0x935 PUSH1 0x60 DUP7 ADD PUSH2 0x88B JUMP JUMPDEST PUSH1 0x20 DUP3 ADD MSTORE DUP1 SWAP2 POP POP SWAP3 POP SWAP3 POP SWAP3 JUMP JUMPDEST PUSH1 0x0 PUSH1 0x20 DUP1 DUP4 MSTORE DUP4 MLOAD DUP1 DUP3 DUP6 ADD MSTORE PUSH1 0x0 JUMPDEST DUP2 DUP2 LT ISZERO PUSH2 0x972 JUMPI DUP6 DUP2 ADD DUP4 ADD MLOAD DUP6 DUP3 ADD PUSH1 0x40 ADD MSTORE DUP3 ADD PUSH2 0x956 JUMP JUMPDEST DUP2 DUP2 GT ISZERO PUSH2 0x984 JUMPI PUSH1 0x0 PUSH1 0x40 DUP4 DUP8 ADD ADD MSTORE JUMPDEST POP PUSH1 0x1F ADD PUSH1 0x1F NOT AND SWAP3 SWAP1 SWAP3 ADD PUSH1 0x40 ADD SWAP4 SWAP3 POP POP POP JUMP JUMPDEST PUSH4 0x4E487B71 PUSH1 0xE0 SHL PUSH1 0x0 MSTORE PUSH1 0x11 PUSH1 0x4 MSTORE PUSH1 0x24 PUSH1 0x0 REVERT JUMPDEST PUSH1 0x0 PUSH10 0xFFFFFFFFFFFFFFFFFFFF DUP4 DUP2 AND SWAP1 DUP4 AND DUP2 DUP2 LT ISZERO PUSH2 0x9D3 JUMPI PUSH2 0x9D3 PUSH2 0x99A JUMP JUMPDEST SUB SWAP4 SWAP3 POP POP POP JUMP JUMPDEST DUP1 MLOAD PUSH10 0xFFFFFFFFFFFFFFFFFFFF DUP2 AND DUP2 EQ PUSH2 0x86B JUMPI PUSH1 0x0 DUP1 REVERT JUMPDEST PUSH1 0x0 DUP1 PUSH1 0x0 DUP1 PUSH1 0x0 PUSH1 0xA0 DUP7 DUP9 SUB SLT ISZERO PUSH2 0xA0D JUMPI PUSH1 0x0 DUP1 REVERT JUMPDEST PUSH2 0xA16 DUP7 PUSH2 0x9DB JUMP JUMPDEST SWAP5 POP PUSH1 0x20 DUP7 ADD MLOAD SWAP4 POP PUSH1 0x40 DUP7 ADD MLOAD SWAP3 POP PUSH1 0x60 DUP7 ADD MLOAD SWAP2 POP PUSH2 0xA39 PUSH1 0x80 DUP8 ADD PUSH2 0x9DB JUMP JUMPDEST SWAP1 POP SWAP3 SWAP6 POP SWAP3 SWAP6 SWAP1 SWAP4 POP JUMP JUMPDEST PUSH1 0x0 DUP3 DUP3 LT ISZERO PUSH2 0xA57 JUMPI PUSH2 0xA57 PUSH2 0x99A JUMP JUMPDEST POP SUB SWAP1 JUMP JUMPDEST PUSH1 0x0 PUSH1 0x20 DUP3 DUP5 SUB SLT ISZERO PUSH2 0xA6E JUMPI PUSH1 0x0 DUP1 REVERT JUMPDEST DUP2 MLOAD PUSH1 0xFF DUP2 AND DUP2 EQ PUSH2 0xA7F JUMPI PUSH1 0x0 DUP1 REVERT JUMPDEST SWAP4 SWAP3 POP POP POP JUMP JUMPDEST PUSH1 0x0 DUP3 NOT DUP3 GT ISZERO PUSH2 0xA99 JUMPI PUSH2 0xA99 PUSH2 0x99A JUMP JUMPDEST POP ADD SWAP1 JUMP JUMPDEST PUSH1 0x0 DUP2 PUSH1 0x0 NOT DIV DUP4 GT DUP3 ISZERO ISZERO AND ISZERO PUSH2 0xAB8 JUMPI PUSH2 0xAB8 PUSH2 0x99A JUMP JUMPDEST POP MUL SWAP1 JUMP JUMPDEST PUSH1 0x0 DUP3 PUSH2 0xADA JUMPI PUSH4 0x4E487B71 PUSH1 0xE0 SHL PUSH1 0x0 MSTORE PUSH1 0x12 PUSH1 0x4 MSTORE PUSH1 0x24 PUSH1 0x0 REVERT JUMPDEST POP DIV SWAP1 JUMP JUMPDEST PUSH1 0x0 PUSH1 0xFF DUP3 AND PUSH1 0xFF DUP5 AND DUP1 DUP3 LT ISZERO PUSH2 0xAF9 JUMPI PUSH2 0xAF9 PUSH2 0x99A JUMP JUMPDEST SWAP1 SUB SWAP4 SWAP3 POP POP POP JUMP JUMPDEST PUSH1 0x1 DUP2 DUP2 JUMPDEST DUP1 DUP6 GT ISZERO PUSH2 0xB3D JUMPI DUP2 PUSH1 0x0 NOT DIV DUP3 GT ISZERO PUSH2 0xB23 JUMPI PUSH2 0xB23 PUSH2 0x99A JUMP JUMPDEST DUP1 DUP6 AND ISZERO PUSH2 0xB30 JUMPI SWAP2 DUP2 MUL SWAP2 JUMPDEST SWAP4 DUP5 SHR SWAP4 SWAP1 DUP1 MUL SWAP1 PUSH2 0xB07 JUMP JUMPDEST POP SWAP3 POP SWAP3 SWAP1 POP JUMP JUMPDEST PUSH1 0x0 DUP3 PUSH2 0xB54 JUMPI POP PUSH1 0x1 PUSH2 0x776 JUMP JUMPDEST DUP2 PUSH2 0xB61 JUMPI POP PUSH1 0x0 PUSH2 0x776 JUMP JUMPDEST DUP2 PUSH1 0x1 DUP2 EQ PUSH2 0xB77 JUMPI PUSH1 0x2 DUP2 EQ PUSH2 0xB81 JUMPI PUSH2 0xB9D JUMP JUMPDEST PUSH1 0x1 SWAP2 POP POP PUSH2 0x776 JUMP JUMPDEST PUSH1 0xFF DUP5 GT ISZERO PUSH2 0xB92 JUMPI PUSH2 0xB92 PUSH2 0x99A JUMP JUMPDEST POP POP PUSH1 0x1 DUP3 SHL PUSH2 0x776 JUMP JUMPDEST POP PUSH1 0x20 DUP4 LT PUSH2 0x133 DUP4 LT AND PUSH1 0x4E DUP5 LT PUSH1 0xB DUP5 LT AND OR ISZERO PUSH2 0xBC0 JUMPI POP DUP2 DUP2 EXP PUSH2 0x776 JUMP JUMPDEST PUSH2 0xBCA DUP4 DUP4 PUSH2 0xB02 JUMP JUMPDEST DUP1 PUSH1 0x0 NOT DIV DUP3 GT ISZERO PUSH2 0xBDE JUMPI PUSH2 0xBDE PUSH2 0x99A JUMP JUMPDEST MUL SWAP4 SWAP3 POP POP POP JUMP JUMPDEST PUSH1 0x0 PUSH2 0x773 PUSH1 0xFF DUP5 AND DUP4 PUSH2 0xB45 JUMP INVALID LOG2 PUSH5 0x6970667358 0x22 SLT KECCAK256 DUP11 0x1E DUP7 0x1F SWAP1 PUSH27 0xD03032BF0FF7A6BEFDD94D73DBB0ECA69322EC3A359065AEA19864 PUSH20 0x6F6C634300080A00330000000000000000000000 ","sha1":"b40cdc22ea2bd0329fd996a20a69e79f113dee61","source":"// SPDX-License-Identifier: UNLICENSED\npragma solidity ^0.8.4;\n\nimport \"./BaseChainLinkOracle.sol\";\n\nimport \"../../libraries/FixedPoint.sol\";\n\ncontract CrashProtectedChainlinkPriceOracle is BaseChainlinkPriceOracle {\n    using DecimalScale for uint256;\n    using FixedPoint for uint256;\n\n    event FeedUpdated(\n        address indexed asset,\n        address indexed previousFeed,\n        address indexed newFeed,\n        FeedMeta meta\n    );\n\n    struct FeedMeta {\n        uint64 minDiffTime;\n        uint64 maxDeviation;\n    }\n\n    mapping(address => FeedMeta) public feedMetas;\n\n    /// @inheritdoc IUSDPriceOracle\n    function getPriceUSD(address asset) external view override returns (uint256) {\n        address feed = feeds[asset];\n        require(feed != address(0), Errors.ASSET_NOT_SUPPORTED);\n        (uint80 roundId, uint256 price, uint256 lastUpdate) = _getLatestRoundData(feed);\n\n        FeedMeta memory meta = feedMetas[feed];\n\n        // we look for the first update that happened at least `minDiffTime` ago\n        int256 previousAnswer;\n        uint256 previousUpdate;\n        do {\n            roundId -= 1;\n            (, previousAnswer, , previousUpdate, ) = AggregatorV2V3Interface(feed).getRoundData(\n                roundId\n            );\n        } while (lastUpdate - previousUpdate < meta.minDiffTime);\n\n        require(previousAnswer >= 0, Errors.NEGATIVE_PRICE);\n        uint256 previousPrice = uint256(previousAnswer);\n        uint256 deviation = previousPrice.absSub(price).divDown(price);\n        require(deviation < meta.maxDeviation, Errors.TOO_MUCH_VOLATILITY);\n\n        return price.scaleFrom(AggregatorV2V3Interface(feed).decimals());\n    }\n\n    /// @notice Allows to set Chainlink feeds with the metadata\n    function setFeed(\n        address asset,\n        address feed,\n        FeedMeta memory feedMeta\n    ) public governanceOnly {\n        address previousFeed = feeds[asset];\n        require(feed != previousFeed, Errors.INVALID_ARGUMENT);\n        require(feedMeta.minDiffTime > 0, Errors.INVALID_ARGUMENT);\n        feeds[asset] = feed;\n        feedMetas[feed] = feedMeta;\n        emit FeedUpdated(asset, previousFeed, feed, feedMeta);\n    }\n}\n","sourcePath":"contracts/oracles/CrashProtectedChainLinkPriceOracle.sol","type":"contract","deployment":{"address":"0x82607A8cA2fe48388F14662c338E453e5214ed06","chainid":"137","blockHeight":26855954}}