{"abi":[{"inputs":[],"stateMutability":"nonpayable","type":"constructor","name":"constructor"},{"anonymous":false,"inputs":[{"indexed":false,"internalType":"address","name":"oldGovernor","type":"address"},{"indexed":false,"internalType":"address","name":"newGovernor","type":"address"}],"name":"GovernorChanged","type":"event"},{"anonymous":false,"inputs":[{"indexed":true,"internalType":"address","name":"assetA","type":"address"},{"indexed":true,"internalType":"address","name":"assetB","type":"address"},{"indexed":true,"internalType":"address","name":"pool","type":"address"}],"name":"PoolDeregistered","type":"event"},{"anonymous":false,"inputs":[{"indexed":true,"internalType":"address","name":"assetA","type":"address"},{"indexed":true,"internalType":"address","name":"assetB","type":"address"},{"indexed":true,"internalType":"address","name":"pool","type":"address"}],"name":"PoolRegistered","type":"event"},{"inputs":[],"name":"DEFAULT_TIME_WINDOW_LENGTH_SECONDS_AGO","outputs":[{"internalType":"uint32","name":"","type":"uint32"}],"stateMutability":"view","type":"function"},{"inputs":[{"internalType":"address","name":"newGovernor","type":"address"}],"name":"changeGovernor","outputs":[],"stateMutability":"nonpayable","type":"function"},{"inputs":[{"internalType":"address","name":"pool","type":"address"}],"name":"deregisterPool","outputs":[],"stateMutability":"nonpayable","type":"function"},{"inputs":[{"internalType":"address","name":"assetA","type":"address"},{"internalType":"address","name":"assetB","type":"address"}],"name":"getPool","outputs":[{"internalType":"address","name":"","type":"address"}],"stateMutability":"view","type":"function"},{"inputs":[],"name":"getPools","outputs":[{"internalType":"address[]","name":"","type":"address[]"}],"stateMutability":"view","type":"function"},{"inputs":[{"internalType":"address","name":"baseAsset","type":"address"},{"internalType":"address","name":"quoteAsset","type":"address"},{"internalType":"uint32","name":"windowLengthSeconds","type":"uint32"}],"name":"getRelativePrice","outputs":[{"internalType":"uint256","name":"","type":"uint256"}],"stateMutability":"view","type":"function"},{"inputs":[{"internalType":"address","name":"baseAsset","type":"address"},{"internalType":"address","name":"quoteAsset","type":"address"}],"name":"getRelativePrice","outputs":[{"internalType":"uint256","name":"","type":"uint256"}],"stateMutability":"view","type":"function"},{"inputs":[],"name":"governor","outputs":[{"internalType":"address","name":"","type":"address"}],"stateMutability":"view","type":"function"},{"inputs":[{"internalType":"address","name":"baseAsset","type":"address"},{"internalType":"address","name":"quoteAsset","type":"address"}],"name":"isPairSupported","outputs":[{"internalType":"bool","name":"","type":"bool"}],"stateMutability":"view","type":"function"},{"inputs":[{"internalType":"address","name":"pool","type":"address"}],"name":"registerPool","outputs":[],"stateMutability":"nonpayable","type":"function"},{"inputs":[{"internalType":"uint32","name":"_timeWindowLengthSeconds","type":"uint32"}],"name":"setTimeWindowLengthSeconds","outputs":[],"stateMutability":"nonpayable","type":"function"},{"inputs":[],"name":"timeWindowLengthSeconds","outputs":[{"internalType":"uint32","name":"","type":"uint32"}],"stateMutability":"view","type":"function"}],"bytecode":"608060405234801561001057600080fd5b50600080546001600160a01b0319163390811782556040805192835260208301919091527fde4b3f61490b74c0ed6237523974fe299126bbbf8a8a7482fd220104c59b0c84910160405180910390a16004805463ffffffff1916610e10179055611a018061007f6000396000f3fe608060405234801561001057600080fd5b50600436106100b45760003560e01c80639446994a116100715780639446994a146101655780639b56e6a714610188578063abd908461461019b578063d41cbf70146101ae578063e4c0aaf4146101be578063ef5fe6e3146101d157600080fd5b80630c340a24146100b95780630efad47e146100e9578063531aa03e14610107578063673a2a1f1461011a578063788e1fe71461012f5780637e72c7d714610150575b600080fd5b6000546100cc906001600160a01b031681565b6040516001600160a01b0390911681526020015b60405180910390f35b6100f2610e1081565b60405163ffffffff90911681526020016100e0565b6100cc610115366004611429565b6101e4565b610122610208565b6040516100e09190611462565b61014261013d3660046114c8565b610219565b6040519081526020016100e0565b61016361015e36600461150f565b6103ad565b005b610178610173366004611429565b61056b565b60405190151581526020016100e0565b610142610196366004611429565b610582565b6101636101a936600461150f565b61059b565b6004546100f29063ffffffff1681565b6101636101cc36600461150f565b610751565b6101636101df36600461152c565b6107f8565b6000806101f1848461085a565b90506101fe6001826108c2565b9150505b92915050565b606061021460016108ce565b905090565b60008061022685856101e4565b90506000610234828561097d565b5090506000866001600160a01b031663313ce5676040518163ffffffff1660e01b8152600401602060405180830381865afa158015610277573d6000803e3d6000fd5b505050506040513d601f19601f8201168201806040525081019061029b9190611547565b90506000866001600160a01b031663313ce5676040518163ffffffff1660e01b8152600401602060405180830381865afa1580156102dd573d6000803e3d6000fd5b505050506040513d601f19601f820116820180604052508101906103019190611547565b9050866001600160a01b0316886001600160a01b0316101561035f5760008161032b846012611580565b61033591906115a5565b9050600061034482600a6116ac565b905061035285828c8c610bbc565b96505050505050506103a6565b60008261036d836012611580565b61037791906115a5565b9050600061038682600a6116ac565b905061035261039786838c8e610bbc565b670de0b6b3a764000090610cb3565b9392505050565b600054604080518082019091526002815261033360f41b6020820152906001600160a01b031633146103fb5760405162461bcd60e51b81526004016103f291906116bb565b60405180910390fd5b506000816001600160a01b0316630dfe16816040518163ffffffff1660e01b8152600401602060405180830381865afa15801561043c573d6000803e3d6000fd5b505050506040513d601f19601f820116820180604052508101906104609190611710565b90506000826001600160a01b031663d21220a76040518163ffffffff1660e01b8152600401602060405180830381865afa1580156104a2573d6000803e3d6000fd5b505050506040513d601f19601f820116820180604052508101906104c69190611710565b905060006104d4838361085a565b90506104e1600182610d23565b60405180604001604052806002815260200161333160f01b8152509061051a5760405162461bcd60e51b81526004016103f291906116bb565b50836001600160a01b0316826001600160a01b0316846001600160a01b03167f95f85ca19ca718e16e83d968b056f6cb7afade4e84aaff658602527a63d497e360405160405180910390a450505050565b60006103a661057a848461085a565b600190610d2f565b6004546000906103a6908490849063ffffffff16610219565b600054604080518082019091526002815261033360f41b6020820152906001600160a01b031633146105e05760405162461bcd60e51b81526004016103f291906116bb565b506000816001600160a01b0316630dfe16816040518163ffffffff1660e01b8152600401602060405180830381865afa158015610621573d6000803e3d6000fd5b505050506040513d601f19601f820116820180604052508101906106459190611710565b90506000826001600160a01b031663d21220a76040518163ffffffff1660e01b8152600401602060405180830381865afa158015610687573d6000803e3d6000fd5b505050506040513d601f19601f820116820180604052508101906106ab9190611710565b905060006106b9838361085a565b90506106c760018286610d3b565b60405180604001604052806002815260200161333160f01b815250906107005760405162461bcd60e51b81526004016103f291906116bb565b50836001600160a01b0316826001600160a01b0316846001600160a01b03167f61afef2e121f71511fab2583c5ac49a5dc1d7a8ad8ad91c44c8465f073a73ac460405160405180910390a450505050565b600054604080518082019091526002815261033360f41b6020820152906001600160a01b031633146107965760405162461bcd60e51b81526004016103f291906116bb565b50600080546001600160a01b038381166001600160a01b031983168117909355604080519190921680825260208201939093527fde4b3f61490b74c0ed6237523974fe299126bbbf8a8a7482fd220104c59b0c84910160405180910390a15050565b600054604080518082019091526002815261033360f41b6020820152906001600160a01b0316331461083d5760405162461bcd60e51b81526004016103f291906116bb565b506004805463ffffffff191663ffffffff92909216919091179055565b6000826001600160a01b0316826001600160a01b0316101561087a579091905b6040516bffffffffffffffffffffffff19606085811b8216602084015284901b16603482015260480160408051601f1981840301815291905280516020909101209392505050565b60006103a68383610d59565b606060006108db83610dc9565b905060008167ffffffffffffffff8111156108f8576108f861172d565b604051908082528060200260200182016040528015610921578160200160208202803683370190505b50905060005b82811015610975576109398582610dd4565b82828151811061094b5761094b611743565b6001600160a01b03909216602092830291909101909101528061096d81611759565b915050610927565b509392505050565b60008063ffffffff83166109b85760405162461bcd60e51b8152602060048201526002602482015261042560f41b60448201526064016103f2565b60408051600280825260608201835260009260208301908036833701905050905083816000815181106109ed576109ed611743565b602002602001019063ffffffff16908163ffffffff1681525050600081600181518110610a1c57610a1c611743565b602002602001019063ffffffff16908163ffffffff1681525050600080866001600160a01b031663883bdbfd846040518263ffffffff1660e01b8152600401610a659190611774565b600060405180830381865afa158015610a82573d6000803e3d6000fd5b505050506040513d6000823e601f3d908101601f19168201604052610aaa919081019061187b565b91509150600082600081518110610ac357610ac3611743565b602002602001015183600181518110610ade57610ade611743565b6020026020010151039050600082600081518110610afe57610afe611743565b602002602001015183600181518110610b1957610b19611743565b60200260200101510390508760030b8260060b81610b3957610b39611947565b05965060008260060b128015610b6657508760030b8260060b81610b5f57610b5f611947565b0760060b15155b15610b7357600019909601955b63ffffffff88166001600160a01b0302640100000000600160c01b03602083901b166001600160c01b03821681610bac57610bac611947565b0496505050505050509250929050565b600080610bc886610dea565b90506001600160801b036001600160a01b03821611610c37576001600160a01b0380821680029084811690861610610c1757610c12600160c01b876001600160801b03168361111d565b610c2f565b610c2f81876001600160801b0316600160c01b61111d565b925050610caa565b6000610c566001600160a01b038316806801000000000000000061111d565b9050836001600160a01b0316856001600160a01b031610610c8e57610c89600160801b876001600160801b03168361111d565b610ca6565b610ca681876001600160801b0316600160801b61111d565b9250505b50949350505050565b604080518082019091526002815261323560f01b602082015260009082610ced5760405162461bcd60e51b81526004016103f291906116bb565b5082610cfb57506000610202565b6000610d0f670de0b6b3a76400008561195d565b9050610d1b838261197c565b915050610202565b60006103a683836111cc565b60006103a683836111e9565b6000610d5184846001600160a01b0385166111f5565b949350505050565b600081815260028301602052604081205480151580610d7d5750610d7d84846111e9565b6103a65760405162461bcd60e51b815260206004820152601e60248201527f456e756d657261626c654d61703a206e6f6e6578697374656e74206b6579000060448201526064016103f2565b600061020282611212565b600080610de1848461121d565b95945050505050565b60008060008360020b12610e01578260020b610e09565b8260020b6000035b9050620d89e8811115610e425760405162461bcd60e51b81526020600482015260016024820152601560fa1b60448201526064016103f2565b600060018216610e5657600160801b610e68565b6ffffcb933bd6fad37aa2d162d1a5940015b70ffffffffffffffffffffffffffffffffff1690506002821615610e9c576ffff97272373d413259a46990580e213a0260801c5b6004821615610ebb576ffff2e50f5f656932ef12357cf3c7fdcc0260801c5b6008821615610eda576fffe5caca7e10e4e61c3624eaa0941cd00260801c5b6010821615610ef9576fffcb9843d60f6159c9db58835c9266440260801c5b6020821615610f18576fff973b41fa98c081472e6896dfb254c00260801c5b6040821615610f37576fff2ea16466c96a3843ec78b326b528610260801c5b6080821615610f56576ffe5dee046a99a2a811c461f1969c30530260801c5b610100821615610f76576ffcbe86c7900a88aedcffc83b479aa3a40260801c5b610200821615610f96576ff987a7253ac413176f2b074cf7815e540260801c5b610400821615610fb6576ff3392b0822b70005940c7a398e4b70f30260801c5b610800821615610fd6576fe7159475a2c29b7443b29c7fa6e889d90260801c5b611000821615610ff6576fd097f3bdfd2022b8845ad8f792aa58250260801c5b612000821615611016576fa9f746462d870fdf8a65dc1f90e061e50260801c5b614000821615611036576f70d869a156d2a1b890bb3df62baf32f70260801c5b618000821615611056576f31be135f97d08fd981231505542fcfa60260801c5b62010000821615611077576f09aa508b5b7a84e1c677de54f3e99bc90260801c5b62020000821615611097576e5d6af8dedb81196699c329225ee6040260801c5b620400008216156110b6576d2216e584f5fa1ea926041bedfe980260801c5b620800008216156110d3576b048a170391f7dc42444e8fa20260801c5b60008460020b13156110f45780600019816110f0576110f0611947565b0490505b64010000000081061561110857600161110b565b60005b60ff16602082901c0192505050919050565b600080806000198587098587029250828110838203039150508060001415611157576000841161114c57600080fd5b5082900490506103a6565b80841161116357600080fd5b60008486880960026001871981018816978890046003810283188082028403028082028403028082028403028082028403028082028403029081029092039091026000889003889004909101858311909403939093029303949094049190911702949350505050565b600081815260028301602052604081208190556103a68383611239565b60006103a68383611245565b60008281526002840160205260408120829055610d51848461125d565b600061020282611269565b600080808061122c8686611273565b9097909650945050505050565b60006103a6838361129e565b600081815260018301602052604081205415156103a6565b60006103a68383611391565b6000610202825490565b6000808061128185856113e0565b600081815260029690960160205260409095205494959350505050565b600081815260018301602052604081205480156113875760006112c260018361199e565b85549091506000906112d69060019061199e565b905081811461133b5760008660000182815481106112f6576112f6611743565b906000526020600020015490508087600001848154811061131957611319611743565b6000918252602080832090910192909255918252600188019052604090208390555b855486908061134c5761134c6119b5565b600190038181906000526020600020016000905590558560010160008681526020019081526020016000206000905560019350505050610202565b6000915050610202565b60008181526001830160205260408120546113d857508154600181810184556000848152602080822090930184905584548482528286019093526040902091909155610202565b506000610202565b60006103a6838360008260000182815481106113fe576113fe611743565b9060005260206000200154905092915050565b6001600160a01b038116811461142657600080fd5b50565b6000806040838503121561143c57600080fd5b823561144781611411565b9150602083013561145781611411565b809150509250929050565b6020808252825182820181905260009190848201906040850190845b818110156114a35783516001600160a01b03168352928401929184019160010161147e565b50909695505050505050565b803563ffffffff811681146114c357600080fd5b919050565b6000806000606084860312156114dd57600080fd5b83356114e881611411565b925060208401356114f881611411565b9150611506604085016114af565b90509250925092565b60006020828403121561152157600080fd5b81356103a681611411565b60006020828403121561153e57600080fd5b6103a6826114af565b60006020828403121561155957600080fd5b815160ff811681146103a657600080fd5b634e487b7160e01b600052601160045260246000fd5b600060ff821660ff84168060ff0382111561159d5761159d61156a565b019392505050565b600060ff821660ff8416808210156115bf576115bf61156a565b90039392505050565b600181815b808511156116035781600019048211156115e9576115e961156a565b808516156115f657918102915b93841c93908002906115cd565b509250929050565b60008261161a57506001610202565b8161162757506000610202565b816001811461163d576002811461164757611663565b6001915050610202565b60ff8411156116585761165861156a565b50506001821b610202565b5060208310610133831016604e8410600b8410161715611686575081810a610202565b61169083836115c8565b80600019048211156116a4576116a461156a565b029392505050565b60006103a660ff84168361160b565b600060208083528351808285015260005b818110156116e8578581018301518582016040015282016116cc565b818111156116fa576000604083870101525b50601f01601f1916929092016040019392505050565b60006020828403121561172257600080fd5b81516103a681611411565b634e487b7160e01b600052604160045260246000fd5b634e487b7160e01b600052603260045260246000fd5b600060001982141561176d5761176d61156a565b5060010190565b6020808252825182820181905260009190848201906040850190845b818110156114a357835163ffffffff1683529284019291840191600101611790565b604051601f8201601f1916810167ffffffffffffffff811182821017156117db576117db61172d565b604052919050565b600067ffffffffffffffff8211156117fd576117fd61172d565b5060051b60200190565b600082601f83011261181857600080fd5b8151602061182d611828836117e3565b6117b2565b82815260059290921b8401810191818101908684111561184c57600080fd5b8286015b8481101561187057805161186381611411565b8352918301918301611850565b509695505050505050565b6000806040838503121561188e57600080fd5b825167ffffffffffffffff808211156118a657600080fd5b818501915085601f8301126118ba57600080fd5b815160206118ca611828836117e3565b82815260059290921b840181019181810190898411156118e957600080fd5b948201945b838610156119175785518060060b81146119085760008081fd5b825294820194908201906118ee565b9188015191965090935050508082111561193057600080fd5b5061193d85828601611807565b9150509250929050565b634e487b7160e01b600052601260045260246000fd5b60008160001904831182151516156119775761197761156a565b500290565b60008261199957634e487b7160e01b600052601260045260246000fd5b500490565b6000828210156119b0576119b061156a565b500390565b634e487b7160e01b600052603160045260246000fdfea264697066735822122091f11aa3d03684073b8c52f2ac46d258a8cbb55bf4674b9ff705bcf845c8dd3364736f6c634300080a0033","bytecodeSha1":"35a5507fbab580fadbfd51ce852ee60e8b49cc31","compiler":{"evm_version":"istanbul","optimizer":{"enabled":true,"runs":200},"version":"0.8.10+commit.fc410830"},"contractName":"UniswapV3TwapOracle","language":"Solidity","natspec":{"kind":"dev","methods":{"changeGovernor(address)":{"notice":"Changes the governor can only be called by the current governor"},"deregisterPool(address)":{"notice":"Deregisters a Uniswap pool"},"getPool(address,address)":{"notice":"Returns the Uniswap pool used to compute the TWAP between `assetA` and `assetB`"},"getPools()":{"notice":"Returns all the currently registered pools"},"getRelativePrice(address,address)":{"notice":"Quotes the price of `baseToken` relative to `quoteToken` The quoted price is always scaled with 18 decimals regardless of the source used for the oracle.","params":{"baseToken":"the token of which the price is to be quoted","quoteToken":"the token used to denominate the price"},"returns":{"_0":"the number of units of quote token per base token"}},"getRelativePrice(address,address,uint32)":{"notice":"Same as `getRelativePrice(address,address)` but allows to specify the time in seconds to use to compute the TWAP"},"governor()":{"notice":"Returns the current governor"},"registerPool(address)":{"notice":"Registers a Uniswap pool to be used as oracle We can only register a single pool per asset pair"},"setTimeWindowLengthSeconds(uint32)":{"notice":"Set number of seconds used for the time window of the UniV3 price oracle"}},"version":1},"opcodes":"PUSH1 0x80 PUSH1 0x40 MSTORE CALLVALUE DUP1 ISZERO PUSH2 0x10 JUMPI PUSH1 0x0 DUP1 REVERT JUMPDEST POP PUSH1 0x4 CALLDATASIZE LT PUSH2 0xB4 JUMPI PUSH1 0x0 CALLDATALOAD PUSH1 0xE0 SHR DUP1 PUSH4 0x9446994A GT PUSH2 0x71 JUMPI DUP1 PUSH4 0x9446994A EQ PUSH2 0x165 JUMPI DUP1 PUSH4 0x9B56E6A7 EQ PUSH2 0x188 JUMPI DUP1 PUSH4 0xABD90846 EQ PUSH2 0x19B JUMPI DUP1 PUSH4 0xD41CBF70 EQ PUSH2 0x1AE JUMPI DUP1 PUSH4 0xE4C0AAF4 EQ PUSH2 0x1BE JUMPI DUP1 PUSH4 0xEF5FE6E3 EQ PUSH2 0x1D1 JUMPI PUSH1 0x0 DUP1 REVERT JUMPDEST DUP1 PUSH4 0xC340A24 EQ PUSH2 0xB9 JUMPI DUP1 PUSH4 0xEFAD47E EQ PUSH2 0xE9 JUMPI DUP1 PUSH4 0x531AA03E EQ PUSH2 0x107 JUMPI DUP1 PUSH4 0x673A2A1F EQ PUSH2 0x11A JUMPI DUP1 PUSH4 0x788E1FE7 EQ PUSH2 0x12F JUMPI DUP1 PUSH4 0x7E72C7D7 EQ PUSH2 0x150 JUMPI JUMPDEST PUSH1 0x0 DUP1 REVERT JUMPDEST PUSH1 0x0 SLOAD PUSH2 0xCC SWAP1 PUSH1 0x1 PUSH1 0x1 PUSH1 0xA0 SHL SUB AND DUP2 JUMP JUMPDEST PUSH1 0x40 MLOAD PUSH1 0x1 PUSH1 0x1 PUSH1 0xA0 SHL SUB SWAP1 SWAP2 AND DUP2 MSTORE PUSH1 0x20 ADD JUMPDEST PUSH1 0x40 MLOAD DUP1 SWAP2 SUB SWAP1 RETURN JUMPDEST PUSH2 0xF2 PUSH2 0xE10 DUP2 JUMP JUMPDEST PUSH1 0x40 MLOAD PUSH4 0xFFFFFFFF SWAP1 SWAP2 AND DUP2 MSTORE PUSH1 0x20 ADD PUSH2 0xE0 JUMP JUMPDEST PUSH2 0xCC PUSH2 0x115 CALLDATASIZE PUSH1 0x4 PUSH2 0x1429 JUMP JUMPDEST PUSH2 0x1E4 JUMP JUMPDEST PUSH2 0x122 PUSH2 0x208 JUMP JUMPDEST PUSH1 0x40 MLOAD PUSH2 0xE0 SWAP2 SWAP1 PUSH2 0x1462 JUMP JUMPDEST PUSH2 0x142 PUSH2 0x13D CALLDATASIZE PUSH1 0x4 PUSH2 0x14C8 JUMP JUMPDEST PUSH2 0x219 JUMP JUMPDEST PUSH1 0x40 MLOAD SWAP1 DUP2 MSTORE PUSH1 0x20 ADD PUSH2 0xE0 JUMP JUMPDEST PUSH2 0x163 PUSH2 0x15E CALLDATASIZE PUSH1 0x4 PUSH2 0x150F JUMP JUMPDEST PUSH2 0x3AD JUMP JUMPDEST STOP JUMPDEST PUSH2 0x178 PUSH2 0x173 CALLDATASIZE PUSH1 0x4 PUSH2 0x1429 JUMP JUMPDEST PUSH2 0x56B JUMP JUMPDEST PUSH1 0x40 MLOAD SWAP1 ISZERO ISZERO DUP2 MSTORE PUSH1 0x20 ADD PUSH2 0xE0 JUMP JUMPDEST PUSH2 0x142 PUSH2 0x196 CALLDATASIZE PUSH1 0x4 PUSH2 0x1429 JUMP JUMPDEST PUSH2 0x582 JUMP JUMPDEST PUSH2 0x163 PUSH2 0x1A9 CALLDATASIZE PUSH1 0x4 PUSH2 0x150F JUMP JUMPDEST PUSH2 0x59B JUMP JUMPDEST PUSH1 0x4 SLOAD PUSH2 0xF2 SWAP1 PUSH4 0xFFFFFFFF AND DUP2 JUMP JUMPDEST PUSH2 0x163 PUSH2 0x1CC CALLDATASIZE PUSH1 0x4 PUSH2 0x150F JUMP JUMPDEST PUSH2 0x751 JUMP JUMPDEST PUSH2 0x163 PUSH2 0x1DF CALLDATASIZE PUSH1 0x4 PUSH2 0x152C JUMP JUMPDEST PUSH2 0x7F8 JUMP JUMPDEST PUSH1 0x0 DUP1 PUSH2 0x1F1 DUP5 DUP5 PUSH2 0x85A JUMP JUMPDEST SWAP1 POP PUSH2 0x1FE PUSH1 0x1 DUP3 PUSH2 0x8C2 JUMP JUMPDEST SWAP2 POP POP JUMPDEST SWAP3 SWAP2 POP POP JUMP JUMPDEST PUSH1 0x60 PUSH2 0x214 PUSH1 0x1 PUSH2 0x8CE JUMP JUMPDEST SWAP1 POP SWAP1 JUMP JUMPDEST PUSH1 0x0 DUP1 PUSH2 0x226 DUP6 DUP6 PUSH2 0x1E4 JUMP JUMPDEST SWAP1 POP PUSH1 0x0 PUSH2 0x234 DUP3 DUP6 PUSH2 0x97D JUMP JUMPDEST POP SWAP1 POP PUSH1 0x0 DUP7 PUSH1 0x1 PUSH1 0x1 PUSH1 0xA0 SHL SUB AND PUSH4 0x313CE567 PUSH1 0x40 MLOAD DUP2 PUSH4 0xFFFFFFFF AND PUSH1 0xE0 SHL DUP2 MSTORE PUSH1 0x4 ADD PUSH1 0x20 PUSH1 0x40 MLOAD DUP1 DUP4 SUB DUP2 DUP7 GAS STATICCALL ISZERO DUP1 ISZERO PUSH2 0x277 JUMPI RETURNDATASIZE PUSH1 0x0 DUP1 RETURNDATACOPY RETURNDATASIZE PUSH1 0x0 REVERT JUMPDEST POP POP POP POP PUSH1 0x40 MLOAD RETURNDATASIZE PUSH1 0x1F NOT PUSH1 0x1F DUP3 ADD AND DUP3 ADD DUP1 PUSH1 0x40 MSTORE POP DUP2 ADD SWAP1 PUSH2 0x29B SWAP2 SWAP1 PUSH2 0x1547 JUMP JUMPDEST SWAP1 POP PUSH1 0x0 DUP7 PUSH1 0x1 PUSH1 0x1 PUSH1 0xA0 SHL SUB AND PUSH4 0x313CE567 PUSH1 0x40 MLOAD DUP2 PUSH4 0xFFFFFFFF AND PUSH1 0xE0 SHL DUP2 MSTORE PUSH1 0x4 ADD PUSH1 0x20 PUSH1 0x40 MLOAD DUP1 DUP4 SUB DUP2 DUP7 GAS STATICCALL ISZERO DUP1 ISZERO PUSH2 0x2DD JUMPI RETURNDATASIZE PUSH1 0x0 DUP1 RETURNDATACOPY RETURNDATASIZE PUSH1 0x0 REVERT JUMPDEST POP POP POP POP PUSH1 0x40 MLOAD RETURNDATASIZE PUSH1 0x1F NOT PUSH1 0x1F DUP3 ADD AND DUP3 ADD DUP1 PUSH1 0x40 MSTORE POP DUP2 ADD SWAP1 PUSH2 0x301 SWAP2 SWAP1 PUSH2 0x1547 JUMP JUMPDEST SWAP1 POP DUP7 PUSH1 0x1 PUSH1 0x1 PUSH1 0xA0 SHL SUB AND DUP9 PUSH1 0x1 PUSH1 0x1 PUSH1 0xA0 SHL SUB AND LT ISZERO PUSH2 0x35F JUMPI PUSH1 0x0 DUP2 PUSH2 0x32B DUP5 PUSH1 0x12 PUSH2 0x1580 JUMP JUMPDEST PUSH2 0x335 SWAP2 SWAP1 PUSH2 0x15A5 JUMP JUMPDEST SWAP1 POP PUSH1 0x0 PUSH2 0x344 DUP3 PUSH1 0xA PUSH2 0x16AC JUMP JUMPDEST SWAP1 POP PUSH2 0x352 DUP6 DUP3 DUP13 DUP13 PUSH2 0xBBC JUMP JUMPDEST SWAP7 POP POP POP POP POP POP POP PUSH2 0x3A6 JUMP JUMPDEST PUSH1 0x0 DUP3 PUSH2 0x36D DUP4 PUSH1 0x12 PUSH2 0x1580 JUMP JUMPDEST PUSH2 0x377 SWAP2 SWAP1 PUSH2 0x15A5 JUMP JUMPDEST SWAP1 POP PUSH1 0x0 PUSH2 0x386 DUP3 PUSH1 0xA PUSH2 0x16AC JUMP JUMPDEST SWAP1 POP PUSH2 0x352 PUSH2 0x397 DUP7 DUP4 DUP13 DUP15 PUSH2 0xBBC JUMP JUMPDEST PUSH8 0xDE0B6B3A7640000 SWAP1 PUSH2 0xCB3 JUMP JUMPDEST SWAP4 SWAP3 POP POP POP JUMP JUMPDEST PUSH1 0x0 SLOAD PUSH1 0x40 DUP1 MLOAD DUP1 DUP3 ADD SWAP1 SWAP2 MSTORE PUSH1 0x2 DUP2 MSTORE PUSH2 0x333 PUSH1 0xF4 SHL PUSH1 0x20 DUP3 ADD MSTORE SWAP1 PUSH1 0x1 PUSH1 0x1 PUSH1 0xA0 SHL SUB AND CALLER EQ PUSH2 0x3FB JUMPI PUSH1 0x40 MLOAD PUSH3 0x461BCD PUSH1 0xE5 SHL DUP2 MSTORE PUSH1 0x4 ADD PUSH2 0x3F2 SWAP2 SWAP1 PUSH2 0x16BB JUMP JUMPDEST PUSH1 0x40 MLOAD DUP1 SWAP2 SUB SWAP1 REVERT JUMPDEST POP PUSH1 0x0 DUP2 PUSH1 0x1 PUSH1 0x1 PUSH1 0xA0 SHL SUB AND PUSH4 0xDFE1681 PUSH1 0x40 MLOAD DUP2 PUSH4 0xFFFFFFFF AND PUSH1 0xE0 SHL DUP2 MSTORE PUSH1 0x4 ADD PUSH1 0x20 PUSH1 0x40 MLOAD DUP1 DUP4 SUB DUP2 DUP7 GAS STATICCALL ISZERO DUP1 ISZERO PUSH2 0x43C JUMPI RETURNDATASIZE PUSH1 0x0 DUP1 RETURNDATACOPY RETURNDATASIZE PUSH1 0x0 REVERT JUMPDEST POP POP POP POP PUSH1 0x40 MLOAD RETURNDATASIZE PUSH1 0x1F NOT PUSH1 0x1F DUP3 ADD AND DUP3 ADD DUP1 PUSH1 0x40 MSTORE POP DUP2 ADD SWAP1 PUSH2 0x460 SWAP2 SWAP1 PUSH2 0x1710 JUMP JUMPDEST SWAP1 POP PUSH1 0x0 DUP3 PUSH1 0x1 PUSH1 0x1 PUSH1 0xA0 SHL SUB AND PUSH4 0xD21220A7 PUSH1 0x40 MLOAD DUP2 PUSH4 0xFFFFFFFF AND PUSH1 0xE0 SHL DUP2 MSTORE PUSH1 0x4 ADD PUSH1 0x20 PUSH1 0x40 MLOAD DUP1 DUP4 SUB DUP2 DUP7 GAS STATICCALL ISZERO DUP1 ISZERO PUSH2 0x4A2 JUMPI RETURNDATASIZE PUSH1 0x0 DUP1 RETURNDATACOPY RETURNDATASIZE PUSH1 0x0 REVERT JUMPDEST POP POP POP POP PUSH1 0x40 MLOAD RETURNDATASIZE PUSH1 0x1F NOT PUSH1 0x1F DUP3 ADD AND DUP3 ADD DUP1 PUSH1 0x40 MSTORE POP DUP2 ADD SWAP1 PUSH2 0x4C6 SWAP2 SWAP1 PUSH2 0x1710 JUMP JUMPDEST SWAP1 POP PUSH1 0x0 PUSH2 0x4D4 DUP4 DUP4 PUSH2 0x85A JUMP JUMPDEST SWAP1 POP PUSH2 0x4E1 PUSH1 0x1 DUP3 PUSH2 0xD23 JUMP JUMPDEST PUSH1 0x40 MLOAD DUP1 PUSH1 0x40 ADD PUSH1 0x40 MSTORE DUP1 PUSH1 0x2 DUP2 MSTORE PUSH1 0x20 ADD PUSH2 0x3331 PUSH1 0xF0 SHL DUP2 MSTORE POP SWAP1 PUSH2 0x51A JUMPI PUSH1 0x40 MLOAD PUSH3 0x461BCD PUSH1 0xE5 SHL DUP2 MSTORE PUSH1 0x4 ADD PUSH2 0x3F2 SWAP2 SWAP1 PUSH2 0x16BB JUMP JUMPDEST POP DUP4 PUSH1 0x1 PUSH1 0x1 PUSH1 0xA0 SHL SUB AND DUP3 PUSH1 0x1 PUSH1 0x1 PUSH1 0xA0 SHL SUB AND DUP5 PUSH1 0x1 PUSH1 0x1 PUSH1 0xA0 SHL SUB AND PUSH32 0x95F85CA19CA718E16E83D968B056F6CB7AFADE4E84AAFF658602527A63D497E3 PUSH1 0x40 MLOAD PUSH1 0x40 MLOAD DUP1 SWAP2 SUB SWAP1 LOG4 POP POP POP POP JUMP JUMPDEST PUSH1 0x0 PUSH2 0x3A6 PUSH2 0x57A DUP5 DUP5 PUSH2 0x85A JUMP JUMPDEST PUSH1 0x1 SWAP1 PUSH2 0xD2F JUMP JUMPDEST PUSH1 0x4 SLOAD PUSH1 0x0 SWAP1 PUSH2 0x3A6 SWAP1 DUP5 SWAP1 DUP5 SWAP1 PUSH4 0xFFFFFFFF AND PUSH2 0x219 JUMP JUMPDEST PUSH1 0x0 SLOAD PUSH1 0x40 DUP1 MLOAD DUP1 DUP3 ADD SWAP1 SWAP2 MSTORE PUSH1 0x2 DUP2 MSTORE PUSH2 0x333 PUSH1 0xF4 SHL PUSH1 0x20 DUP3 ADD MSTORE SWAP1 PUSH1 0x1 PUSH1 0x1 PUSH1 0xA0 SHL SUB AND CALLER EQ PUSH2 0x5E0 JUMPI PUSH1 0x40 MLOAD PUSH3 0x461BCD PUSH1 0xE5 SHL DUP2 MSTORE PUSH1 0x4 ADD PUSH2 0x3F2 SWAP2 SWAP1 PUSH2 0x16BB JUMP JUMPDEST POP PUSH1 0x0 DUP2 PUSH1 0x1 PUSH1 0x1 PUSH1 0xA0 SHL SUB AND PUSH4 0xDFE1681 PUSH1 0x40 MLOAD DUP2 PUSH4 0xFFFFFFFF AND PUSH1 0xE0 SHL DUP2 MSTORE PUSH1 0x4 ADD PUSH1 0x20 PUSH1 0x40 MLOAD DUP1 DUP4 SUB DUP2 DUP7 GAS STATICCALL ISZERO DUP1 ISZERO PUSH2 0x621 JUMPI RETURNDATASIZE PUSH1 0x0 DUP1 RETURNDATACOPY RETURNDATASIZE PUSH1 0x0 REVERT JUMPDEST POP POP POP POP PUSH1 0x40 MLOAD RETURNDATASIZE PUSH1 0x1F NOT PUSH1 0x1F DUP3 ADD AND DUP3 ADD DUP1 PUSH1 0x40 MSTORE POP DUP2 ADD SWAP1 PUSH2 0x645 SWAP2 SWAP1 PUSH2 0x1710 JUMP JUMPDEST SWAP1 POP PUSH1 0x0 DUP3 PUSH1 0x1 PUSH1 0x1 PUSH1 0xA0 SHL SUB AND PUSH4 0xD21220A7 PUSH1 0x40 MLOAD DUP2 PUSH4 0xFFFFFFFF AND PUSH1 0xE0 SHL DUP2 MSTORE PUSH1 0x4 ADD PUSH1 0x20 PUSH1 0x40 MLOAD DUP1 DUP4 SUB DUP2 DUP7 GAS STATICCALL ISZERO DUP1 ISZERO PUSH2 0x687 JUMPI RETURNDATASIZE PUSH1 0x0 DUP1 RETURNDATACOPY RETURNDATASIZE PUSH1 0x0 REVERT JUMPDEST POP POP POP POP PUSH1 0x40 MLOAD RETURNDATASIZE PUSH1 0x1F NOT PUSH1 0x1F DUP3 ADD AND DUP3 ADD DUP1 PUSH1 0x40 MSTORE POP DUP2 ADD SWAP1 PUSH2 0x6AB SWAP2 SWAP1 PUSH2 0x1710 JUMP JUMPDEST SWAP1 POP PUSH1 0x0 PUSH2 0x6B9 DUP4 DUP4 PUSH2 0x85A JUMP JUMPDEST SWAP1 POP PUSH2 0x6C7 PUSH1 0x1 DUP3 DUP7 PUSH2 0xD3B JUMP JUMPDEST PUSH1 0x40 MLOAD DUP1 PUSH1 0x40 ADD PUSH1 0x40 MSTORE DUP1 PUSH1 0x2 DUP2 MSTORE PUSH1 0x20 ADD PUSH2 0x3331 PUSH1 0xF0 SHL DUP2 MSTORE POP SWAP1 PUSH2 0x700 JUMPI PUSH1 0x40 MLOAD PUSH3 0x461BCD PUSH1 0xE5 SHL DUP2 MSTORE PUSH1 0x4 ADD PUSH2 0x3F2 SWAP2 SWAP1 PUSH2 0x16BB JUMP JUMPDEST POP DUP4 PUSH1 0x1 PUSH1 0x1 PUSH1 0xA0 SHL SUB AND DUP3 PUSH1 0x1 PUSH1 0x1 PUSH1 0xA0 SHL SUB AND DUP5 PUSH1 0x1 PUSH1 0x1 PUSH1 0xA0 SHL SUB AND PUSH32 0x61AFEF2E121F71511FAB2583C5AC49A5DC1D7A8AD8AD91C44C8465F073A73AC4 PUSH1 0x40 MLOAD PUSH1 0x40 MLOAD DUP1 SWAP2 SUB SWAP1 LOG4 POP POP POP POP JUMP JUMPDEST PUSH1 0x0 SLOAD PUSH1 0x40 DUP1 MLOAD DUP1 DUP3 ADD SWAP1 SWAP2 MSTORE PUSH1 0x2 DUP2 MSTORE PUSH2 0x333 PUSH1 0xF4 SHL PUSH1 0x20 DUP3 ADD MSTORE SWAP1 PUSH1 0x1 PUSH1 0x1 PUSH1 0xA0 SHL SUB AND CALLER EQ PUSH2 0x796 JUMPI PUSH1 0x40 MLOAD PUSH3 0x461BCD PUSH1 0xE5 SHL DUP2 MSTORE PUSH1 0x4 ADD PUSH2 0x3F2 SWAP2 SWAP1 PUSH2 0x16BB JUMP JUMPDEST POP PUSH1 0x0 DUP1 SLOAD PUSH1 0x1 PUSH1 0x1 PUSH1 0xA0 SHL SUB DUP4 DUP2 AND PUSH1 0x1 PUSH1 0x1 PUSH1 0xA0 SHL SUB NOT DUP4 AND DUP2 OR SWAP1 SWAP4 SSTORE PUSH1 0x40 DUP1 MLOAD SWAP2 SWAP1 SWAP3 AND DUP1 DUP3 MSTORE PUSH1 0x20 DUP3 ADD SWAP4 SWAP1 SWAP4 MSTORE PUSH32 0xDE4B3F61490B74C0ED6237523974FE299126BBBF8A8A7482FD220104C59B0C84 SWAP2 ADD PUSH1 0x40 MLOAD DUP1 SWAP2 SUB SWAP1 LOG1 POP POP JUMP JUMPDEST PUSH1 0x0 SLOAD PUSH1 0x40 DUP1 MLOAD DUP1 DUP3 ADD SWAP1 SWAP2 MSTORE PUSH1 0x2 DUP2 MSTORE PUSH2 0x333 PUSH1 0xF4 SHL PUSH1 0x20 DUP3 ADD MSTORE SWAP1 PUSH1 0x1 PUSH1 0x1 PUSH1 0xA0 SHL SUB AND CALLER EQ PUSH2 0x83D JUMPI PUSH1 0x40 MLOAD PUSH3 0x461BCD PUSH1 0xE5 SHL DUP2 MSTORE PUSH1 0x4 ADD PUSH2 0x3F2 SWAP2 SWAP1 PUSH2 0x16BB JUMP JUMPDEST POP PUSH1 0x4 DUP1 SLOAD PUSH4 0xFFFFFFFF NOT AND PUSH4 0xFFFFFFFF SWAP3 SWAP1 SWAP3 AND SWAP2 SWAP1 SWAP2 OR SWAP1 SSTORE JUMP JUMPDEST PUSH1 0x0 DUP3 PUSH1 0x1 PUSH1 0x1 PUSH1 0xA0 SHL SUB AND DUP3 PUSH1 0x1 PUSH1 0x1 PUSH1 0xA0 SHL SUB AND LT ISZERO PUSH2 0x87A JUMPI SWAP1 SWAP2 SWAP1 JUMPDEST PUSH1 0x40 MLOAD PUSH12 0xFFFFFFFFFFFFFFFFFFFFFFFF NOT PUSH1 0x60 DUP6 DUP2 SHL DUP3 AND PUSH1 0x20 DUP5 ADD MSTORE DUP5 SWAP1 SHL AND PUSH1 0x34 DUP3 ADD MSTORE PUSH1 0x48 ADD PUSH1 0x40 DUP1 MLOAD PUSH1 0x1F NOT DUP2 DUP5 SUB ADD DUP2 MSTORE SWAP2 SWAP1 MSTORE DUP1 MLOAD PUSH1 0x20 SWAP1 SWAP2 ADD KECCAK256 SWAP4 SWAP3 POP POP POP JUMP JUMPDEST PUSH1 0x0 PUSH2 0x3A6 DUP4 DUP4 PUSH2 0xD59 JUMP JUMPDEST PUSH1 0x60 PUSH1 0x0 PUSH2 0x8DB DUP4 PUSH2 0xDC9 JUMP JUMPDEST SWAP1 POP PUSH1 0x0 DUP2 PUSH8 0xFFFFFFFFFFFFFFFF DUP2 GT ISZERO PUSH2 0x8F8 JUMPI PUSH2 0x8F8 PUSH2 0x172D JUMP JUMPDEST PUSH1 0x40 MLOAD SWAP1 DUP1 DUP3 MSTORE DUP1 PUSH1 0x20 MUL PUSH1 0x20 ADD DUP3 ADD PUSH1 0x40 MSTORE DUP1 ISZERO PUSH2 0x921 JUMPI DUP2 PUSH1 0x20 ADD PUSH1 0x20 DUP3 MUL DUP1 CALLDATASIZE DUP4 CALLDATACOPY ADD SWAP1 POP JUMPDEST POP SWAP1 POP PUSH1 0x0 JUMPDEST DUP3 DUP2 LT ISZERO PUSH2 0x975 JUMPI PUSH2 0x939 DUP6 DUP3 PUSH2 0xDD4 JUMP JUMPDEST DUP3 DUP3 DUP2 MLOAD DUP2 LT PUSH2 0x94B JUMPI PUSH2 0x94B PUSH2 0x1743 JUMP JUMPDEST PUSH1 0x1 PUSH1 0x1 PUSH1 0xA0 SHL SUB SWAP1 SWAP3 AND PUSH1 0x20 SWAP3 DUP4 MUL SWAP2 SWAP1 SWAP2 ADD SWAP1 SWAP2 ADD MSTORE DUP1 PUSH2 0x96D DUP2 PUSH2 0x1759 JUMP JUMPDEST SWAP2 POP POP PUSH2 0x927 JUMP JUMPDEST POP SWAP4 SWAP3 POP POP POP JUMP JUMPDEST PUSH1 0x0 DUP1 PUSH4 0xFFFFFFFF DUP4 AND PUSH2 0x9B8 JUMPI PUSH1 0x40 MLOAD PUSH3 0x461BCD PUSH1 0xE5 SHL DUP2 MSTORE PUSH1 0x20 PUSH1 0x4 DUP3 ADD MSTORE PUSH1 0x2 PUSH1 0x24 DUP3 ADD MSTORE PUSH2 0x425 PUSH1 0xF4 SHL PUSH1 0x44 DUP3 ADD MSTORE PUSH1 0x64 ADD PUSH2 0x3F2 JUMP JUMPDEST PUSH1 0x40 DUP1 MLOAD PUSH1 0x2 DUP1 DUP3 MSTORE PUSH1 0x60 DUP3 ADD DUP4 MSTORE PUSH1 0x0 SWAP3 PUSH1 0x20 DUP4 ADD SWAP1 DUP1 CALLDATASIZE DUP4 CALLDATACOPY ADD SWAP1 POP POP SWAP1 POP DUP4 DUP2 PUSH1 0x0 DUP2 MLOAD DUP2 LT PUSH2 0x9ED JUMPI PUSH2 0x9ED PUSH2 0x1743 JUMP JUMPDEST PUSH1 0x20 MUL PUSH1 0x20 ADD ADD SWAP1 PUSH4 0xFFFFFFFF AND SWAP1 DUP2 PUSH4 0xFFFFFFFF AND DUP2 MSTORE POP POP PUSH1 0x0 DUP2 PUSH1 0x1 DUP2 MLOAD DUP2 LT PUSH2 0xA1C JUMPI PUSH2 0xA1C PUSH2 0x1743 JUMP JUMPDEST PUSH1 0x20 MUL PUSH1 0x20 ADD ADD SWAP1 PUSH4 0xFFFFFFFF AND SWAP1 DUP2 PUSH4 0xFFFFFFFF AND DUP2 MSTORE POP POP PUSH1 0x0 DUP1 DUP7 PUSH1 0x1 PUSH1 0x1 PUSH1 0xA0 SHL SUB AND PUSH4 0x883BDBFD DUP5 PUSH1 0x40 MLOAD DUP3 PUSH4 0xFFFFFFFF AND PUSH1 0xE0 SHL DUP2 MSTORE PUSH1 0x4 ADD PUSH2 0xA65 SWAP2 SWAP1 PUSH2 0x1774 JUMP JUMPDEST PUSH1 0x0 PUSH1 0x40 MLOAD DUP1 DUP4 SUB DUP2 DUP7 GAS STATICCALL ISZERO DUP1 ISZERO PUSH2 0xA82 JUMPI RETURNDATASIZE PUSH1 0x0 DUP1 RETURNDATACOPY RETURNDATASIZE PUSH1 0x0 REVERT JUMPDEST POP POP POP POP PUSH1 0x40 MLOAD RETURNDATASIZE PUSH1 0x0 DUP3 RETURNDATACOPY PUSH1 0x1F RETURNDATASIZE SWAP1 DUP2 ADD PUSH1 0x1F NOT AND DUP3 ADD PUSH1 0x40 MSTORE PUSH2 0xAAA SWAP2 SWAP1 DUP2 ADD SWAP1 PUSH2 0x187B JUMP JUMPDEST SWAP2 POP SWAP2 POP PUSH1 0x0 DUP3 PUSH1 0x0 DUP2 MLOAD DUP2 LT PUSH2 0xAC3 JUMPI PUSH2 0xAC3 PUSH2 0x1743 JUMP JUMPDEST PUSH1 0x20 MUL PUSH1 0x20 ADD ADD MLOAD DUP4 PUSH1 0x1 DUP2 MLOAD DUP2 LT PUSH2 0xADE JUMPI PUSH2 0xADE PUSH2 0x1743 JUMP JUMPDEST PUSH1 0x20 MUL PUSH1 0x20 ADD ADD MLOAD SUB SWAP1 POP PUSH1 0x0 DUP3 PUSH1 0x0 DUP2 MLOAD DUP2 LT PUSH2 0xAFE JUMPI PUSH2 0xAFE PUSH2 0x1743 JUMP JUMPDEST PUSH1 0x20 MUL PUSH1 0x20 ADD ADD MLOAD DUP4 PUSH1 0x1 DUP2 MLOAD DUP2 LT PUSH2 0xB19 JUMPI PUSH2 0xB19 PUSH2 0x1743 JUMP JUMPDEST PUSH1 0x20 MUL PUSH1 0x20 ADD ADD MLOAD SUB SWAP1 POP DUP8 PUSH1 0x3 SIGNEXTEND DUP3 PUSH1 0x6 SIGNEXTEND DUP2 PUSH2 0xB39 JUMPI PUSH2 0xB39 PUSH2 0x1947 JUMP JUMPDEST SDIV SWAP7 POP PUSH1 0x0 DUP3 PUSH1 0x6 SIGNEXTEND SLT DUP1 ISZERO PUSH2 0xB66 JUMPI POP DUP8 PUSH1 0x3 SIGNEXTEND DUP3 PUSH1 0x6 SIGNEXTEND DUP2 PUSH2 0xB5F JUMPI PUSH2 0xB5F PUSH2 0x1947 JUMP JUMPDEST SMOD PUSH1 0x6 SIGNEXTEND ISZERO ISZERO JUMPDEST ISZERO PUSH2 0xB73 JUMPI PUSH1 0x0 NOT SWAP1 SWAP7 ADD SWAP6 JUMPDEST PUSH4 0xFFFFFFFF DUP9 AND PUSH1 0x1 PUSH1 0x1 PUSH1 0xA0 SHL SUB MUL PUSH5 0x100000000 PUSH1 0x1 PUSH1 0xC0 SHL SUB PUSH1 0x20 DUP4 SWAP1 SHL AND PUSH1 0x1 PUSH1 0x1 PUSH1 0xC0 SHL SUB DUP3 AND DUP2 PUSH2 0xBAC JUMPI PUSH2 0xBAC PUSH2 0x1947 JUMP JUMPDEST DIV SWAP7 POP POP POP POP POP POP POP SWAP3 POP SWAP3 SWAP1 POP JUMP JUMPDEST PUSH1 0x0 DUP1 PUSH2 0xBC8 DUP7 PUSH2 0xDEA JUMP JUMPDEST SWAP1 POP PUSH1 0x1 PUSH1 0x1 PUSH1 0x80 SHL SUB PUSH1 0x1 PUSH1 0x1 PUSH1 0xA0 SHL SUB DUP3 AND GT PUSH2 0xC37 JUMPI PUSH1 0x1 PUSH1 0x1 PUSH1 0xA0 SHL SUB DUP1 DUP3 AND DUP1 MUL SWAP1 DUP5 DUP2 AND SWAP1 DUP7 AND LT PUSH2 0xC17 JUMPI PUSH2 0xC12 PUSH1 0x1 PUSH1 0xC0 SHL DUP8 PUSH1 0x1 PUSH1 0x1 PUSH1 0x80 SHL SUB AND DUP4 PUSH2 0x111D JUMP JUMPDEST PUSH2 0xC2F JUMP JUMPDEST PUSH2 0xC2F DUP2 DUP8 PUSH1 0x1 PUSH1 0x1 PUSH1 0x80 SHL SUB AND PUSH1 0x1 PUSH1 0xC0 SHL PUSH2 0x111D JUMP JUMPDEST SWAP3 POP POP PUSH2 0xCAA JUMP JUMPDEST PUSH1 0x0 PUSH2 0xC56 PUSH1 0x1 PUSH1 0x1 PUSH1 0xA0 SHL SUB DUP4 AND DUP1 PUSH9 0x10000000000000000 PUSH2 0x111D JUMP JUMPDEST SWAP1 POP DUP4 PUSH1 0x1 PUSH1 0x1 PUSH1 0xA0 SHL SUB AND DUP6 PUSH1 0x1 PUSH1 0x1 PUSH1 0xA0 SHL SUB AND LT PUSH2 0xC8E JUMPI PUSH2 0xC89 PUSH1 0x1 PUSH1 0x80 SHL DUP8 PUSH1 0x1 PUSH1 0x1 PUSH1 0x80 SHL SUB AND DUP4 PUSH2 0x111D JUMP JUMPDEST PUSH2 0xCA6 JUMP JUMPDEST PUSH2 0xCA6 DUP2 DUP8 PUSH1 0x1 PUSH1 0x1 PUSH1 0x80 SHL SUB AND PUSH1 0x1 PUSH1 0x80 SHL PUSH2 0x111D JUMP JUMPDEST SWAP3 POP POP JUMPDEST POP SWAP5 SWAP4 POP POP POP POP JUMP JUMPDEST PUSH1 0x40 DUP1 MLOAD DUP1 DUP3 ADD SWAP1 SWAP2 MSTORE PUSH1 0x2 DUP2 MSTORE PUSH2 0x3235 PUSH1 0xF0 SHL PUSH1 0x20 DUP3 ADD MSTORE PUSH1 0x0 SWAP1 DUP3 PUSH2 0xCED JUMPI PUSH1 0x40 MLOAD PUSH3 0x461BCD PUSH1 0xE5 SHL DUP2 MSTORE PUSH1 0x4 ADD PUSH2 0x3F2 SWAP2 SWAP1 PUSH2 0x16BB JUMP JUMPDEST POP DUP3 PUSH2 0xCFB JUMPI POP PUSH1 0x0 PUSH2 0x202 JUMP JUMPDEST PUSH1 0x0 PUSH2 0xD0F PUSH8 0xDE0B6B3A7640000 DUP6 PUSH2 0x195D JUMP JUMPDEST SWAP1 POP PUSH2 0xD1B DUP4 DUP3 PUSH2 0x197C JUMP JUMPDEST SWAP2 POP POP PUSH2 0x202 JUMP JUMPDEST PUSH1 0x0 PUSH2 0x3A6 DUP4 DUP4 PUSH2 0x11CC JUMP JUMPDEST PUSH1 0x0 PUSH2 0x3A6 DUP4 DUP4 PUSH2 0x11E9 JUMP JUMPDEST PUSH1 0x0 PUSH2 0xD51 DUP5 DUP5 PUSH1 0x1 PUSH1 0x1 PUSH1 0xA0 SHL SUB DUP6 AND PUSH2 0x11F5 JUMP JUMPDEST SWAP5 SWAP4 POP POP POP POP JUMP JUMPDEST PUSH1 0x0 DUP2 DUP2 MSTORE PUSH1 0x2 DUP4 ADD PUSH1 0x20 MSTORE PUSH1 0x40 DUP2 KECCAK256 SLOAD DUP1 ISZERO ISZERO DUP1 PUSH2 0xD7D JUMPI POP PUSH2 0xD7D DUP5 DUP5 PUSH2 0x11E9 JUMP JUMPDEST PUSH2 0x3A6 JUMPI PUSH1 0x40 MLOAD PUSH3 0x461BCD PUSH1 0xE5 SHL DUP2 MSTORE PUSH1 0x20 PUSH1 0x4 DUP3 ADD MSTORE PUSH1 0x1E PUSH1 0x24 DUP3 ADD MSTORE PUSH32 0x456E756D657261626C654D61703A206E6F6E6578697374656E74206B65790000 PUSH1 0x44 DUP3 ADD MSTORE PUSH1 0x64 ADD PUSH2 0x3F2 JUMP JUMPDEST PUSH1 0x0 PUSH2 0x202 DUP3 PUSH2 0x1212 JUMP JUMPDEST PUSH1 0x0 DUP1 PUSH2 0xDE1 DUP5 DUP5 PUSH2 0x121D JUMP JUMPDEST SWAP6 SWAP5 POP POP POP POP POP JUMP JUMPDEST PUSH1 0x0 DUP1 PUSH1 0x0 DUP4 PUSH1 0x2 SIGNEXTEND SLT PUSH2 0xE01 JUMPI DUP3 PUSH1 0x2 SIGNEXTEND PUSH2 0xE09 JUMP JUMPDEST DUP3 PUSH1 0x2 SIGNEXTEND PUSH1 0x0 SUB JUMPDEST SWAP1 POP PUSH3 0xD89E8 DUP2 GT ISZERO PUSH2 0xE42 JUMPI PUSH1 0x40 MLOAD PUSH3 0x461BCD PUSH1 0xE5 SHL DUP2 MSTORE PUSH1 0x20 PUSH1 0x4 DUP3 ADD MSTORE PUSH1 0x1 PUSH1 0x24 DUP3 ADD MSTORE PUSH1 0x15 PUSH1 0xFA SHL PUSH1 0x44 DUP3 ADD MSTORE PUSH1 0x64 ADD PUSH2 0x3F2 JUMP JUMPDEST PUSH1 0x0 PUSH1 0x1 DUP3 AND PUSH2 0xE56 JUMPI PUSH1 0x1 PUSH1 0x80 SHL PUSH2 0xE68 JUMP JUMPDEST PUSH16 0xFFFCB933BD6FAD37AA2D162D1A594001 JUMPDEST PUSH17 0xFFFFFFFFFFFFFFFFFFFFFFFFFFFFFFFFFF AND SWAP1 POP PUSH1 0x2 DUP3 AND ISZERO PUSH2 0xE9C JUMPI PUSH16 0xFFF97272373D413259A46990580E213A MUL PUSH1 0x80 SHR JUMPDEST PUSH1 0x4 DUP3 AND ISZERO PUSH2 0xEBB JUMPI PUSH16 0xFFF2E50F5F656932EF12357CF3C7FDCC MUL PUSH1 0x80 SHR JUMPDEST PUSH1 0x8 DUP3 AND ISZERO PUSH2 0xEDA JUMPI PUSH16 0xFFE5CACA7E10E4E61C3624EAA0941CD0 MUL PUSH1 0x80 SHR JUMPDEST PUSH1 0x10 DUP3 AND ISZERO PUSH2 0xEF9 JUMPI PUSH16 0xFFCB9843D60F6159C9DB58835C926644 MUL PUSH1 0x80 SHR JUMPDEST PUSH1 0x20 DUP3 AND ISZERO PUSH2 0xF18 JUMPI PUSH16 0xFF973B41FA98C081472E6896DFB254C0 MUL PUSH1 0x80 SHR JUMPDEST PUSH1 0x40 DUP3 AND ISZERO PUSH2 0xF37 JUMPI PUSH16 0xFF2EA16466C96A3843EC78B326B52861 MUL PUSH1 0x80 SHR JUMPDEST PUSH1 0x80 DUP3 AND ISZERO PUSH2 0xF56 JUMPI PUSH16 0xFE5DEE046A99A2A811C461F1969C3053 MUL PUSH1 0x80 SHR JUMPDEST PUSH2 0x100 DUP3 AND ISZERO PUSH2 0xF76 JUMPI PUSH16 0xFCBE86C7900A88AEDCFFC83B479AA3A4 MUL PUSH1 0x80 SHR JUMPDEST PUSH2 0x200 DUP3 AND ISZERO PUSH2 0xF96 JUMPI PUSH16 0xF987A7253AC413176F2B074CF7815E54 MUL PUSH1 0x80 SHR JUMPDEST PUSH2 0x400 DUP3 AND ISZERO PUSH2 0xFB6 JUMPI PUSH16 0xF3392B0822B70005940C7A398E4B70F3 MUL PUSH1 0x80 SHR JUMPDEST PUSH2 0x800 DUP3 AND ISZERO PUSH2 0xFD6 JUMPI PUSH16 0xE7159475A2C29B7443B29C7FA6E889D9 MUL PUSH1 0x80 SHR JUMPDEST PUSH2 0x1000 DUP3 AND ISZERO PUSH2 0xFF6 JUMPI PUSH16 0xD097F3BDFD2022B8845AD8F792AA5825 MUL PUSH1 0x80 SHR JUMPDEST PUSH2 0x2000 DUP3 AND ISZERO PUSH2 0x1016 JUMPI PUSH16 0xA9F746462D870FDF8A65DC1F90E061E5 MUL PUSH1 0x80 SHR JUMPDEST PUSH2 0x4000 DUP3 AND ISZERO PUSH2 0x1036 JUMPI PUSH16 0x70D869A156D2A1B890BB3DF62BAF32F7 MUL PUSH1 0x80 SHR JUMPDEST PUSH2 0x8000 DUP3 AND ISZERO PUSH2 0x1056 JUMPI PUSH16 0x31BE135F97D08FD981231505542FCFA6 MUL PUSH1 0x80 SHR JUMPDEST PUSH3 0x10000 DUP3 AND ISZERO PUSH2 0x1077 JUMPI PUSH16 0x9AA508B5B7A84E1C677DE54F3E99BC9 MUL PUSH1 0x80 SHR JUMPDEST PUSH3 0x20000 DUP3 AND ISZERO PUSH2 0x1097 JUMPI PUSH15 0x5D6AF8DEDB81196699C329225EE604 MUL PUSH1 0x80 SHR JUMPDEST PUSH3 0x40000 DUP3 AND ISZERO PUSH2 0x10B6 JUMPI PUSH14 0x2216E584F5FA1EA926041BEDFE98 MUL PUSH1 0x80 SHR JUMPDEST PUSH3 0x80000 DUP3 AND ISZERO PUSH2 0x10D3 JUMPI PUSH12 0x48A170391F7DC42444E8FA2 MUL PUSH1 0x80 SHR JUMPDEST PUSH1 0x0 DUP5 PUSH1 0x2 SIGNEXTEND SGT ISZERO PUSH2 0x10F4 JUMPI DUP1 PUSH1 0x0 NOT DUP2 PUSH2 0x10F0 JUMPI PUSH2 0x10F0 PUSH2 0x1947 JUMP JUMPDEST DIV SWAP1 POP JUMPDEST PUSH5 0x100000000 DUP2 MOD ISZERO PUSH2 0x1108 JUMPI PUSH1 0x1 PUSH2 0x110B JUMP JUMPDEST PUSH1 0x0 JUMPDEST PUSH1 0xFF AND PUSH1 0x20 DUP3 SWAP1 SHR ADD SWAP3 POP POP POP SWAP2 SWAP1 POP JUMP JUMPDEST PUSH1 0x0 DUP1 DUP1 PUSH1 0x0 NOT DUP6 DUP8 MULMOD DUP6 DUP8 MUL SWAP3 POP DUP3 DUP2 LT DUP4 DUP3 SUB SUB SWAP2 POP POP DUP1 PUSH1 0x0 EQ ISZERO PUSH2 0x1157 JUMPI PUSH1 0x0 DUP5 GT PUSH2 0x114C JUMPI PUSH1 0x0 DUP1 REVERT JUMPDEST POP DUP3 SWAP1 DIV SWAP1 POP PUSH2 0x3A6 JUMP JUMPDEST DUP1 DUP5 GT PUSH2 0x1163 JUMPI PUSH1 0x0 DUP1 REVERT JUMPDEST PUSH1 0x0 DUP5 DUP7 DUP9 MULMOD PUSH1 0x2 PUSH1 0x1 DUP8 NOT DUP2 ADD DUP9 AND SWAP8 DUP9 SWAP1 DIV PUSH1 0x3 DUP2 MUL DUP4 XOR DUP1 DUP3 MUL DUP5 SUB MUL DUP1 DUP3 MUL DUP5 SUB MUL DUP1 DUP3 MUL DUP5 SUB MUL DUP1 DUP3 MUL DUP5 SUB MUL DUP1 DUP3 MUL DUP5 SUB MUL SWAP1 DUP2 MUL SWAP1 SWAP3 SUB SWAP1 SWAP2 MUL PUSH1 0x0 DUP9 SWAP1 SUB DUP9 SWAP1 DIV SWAP1 SWAP2 ADD DUP6 DUP4 GT SWAP1 SWAP5 SUB SWAP4 SWAP1 SWAP4 MUL SWAP4 SUB SWAP5 SWAP1 SWAP5 DIV SWAP2 SWAP1 SWAP2 OR MUL SWAP5 SWAP4 POP POP POP POP JUMP JUMPDEST PUSH1 0x0 DUP2 DUP2 MSTORE PUSH1 0x2 DUP4 ADD PUSH1 0x20 MSTORE PUSH1 0x40 DUP2 KECCAK256 DUP2 SWAP1 SSTORE PUSH2 0x3A6 DUP4 DUP4 PUSH2 0x1239 JUMP JUMPDEST PUSH1 0x0 PUSH2 0x3A6 DUP4 DUP4 PUSH2 0x1245 JUMP JUMPDEST PUSH1 0x0 DUP3 DUP2 MSTORE PUSH1 0x2 DUP5 ADD PUSH1 0x20 MSTORE PUSH1 0x40 DUP2 KECCAK256 DUP3 SWAP1 SSTORE PUSH2 0xD51 DUP5 DUP5 PUSH2 0x125D JUMP JUMPDEST PUSH1 0x0 PUSH2 0x202 DUP3 PUSH2 0x1269 JUMP JUMPDEST PUSH1 0x0 DUP1 DUP1 DUP1 PUSH2 0x122C DUP7 DUP7 PUSH2 0x1273 JUMP JUMPDEST SWAP1 SWAP8 SWAP1 SWAP7 POP SWAP5 POP POP POP POP POP JUMP JUMPDEST PUSH1 0x0 PUSH2 0x3A6 DUP4 DUP4 PUSH2 0x129E JUMP JUMPDEST PUSH1 0x0 DUP2 DUP2 MSTORE PUSH1 0x1 DUP4 ADD PUSH1 0x20 MSTORE PUSH1 0x40 DUP2 KECCAK256 SLOAD ISZERO ISZERO PUSH2 0x3A6 JUMP JUMPDEST PUSH1 0x0 PUSH2 0x3A6 DUP4 DUP4 PUSH2 0x1391 JUMP JUMPDEST PUSH1 0x0 PUSH2 0x202 DUP3 SLOAD SWAP1 JUMP JUMPDEST PUSH1 0x0 DUP1 DUP1 PUSH2 0x1281 DUP6 DUP6 PUSH2 0x13E0 JUMP JUMPDEST PUSH1 0x0 DUP2 DUP2 MSTORE PUSH1 0x2 SWAP7 SWAP1 SWAP7 ADD PUSH1 0x20 MSTORE PUSH1 0x40 SWAP1 SWAP6 KECCAK256 SLOAD SWAP5 SWAP6 SWAP4 POP POP POP POP JUMP JUMPDEST PUSH1 0x0 DUP2 DUP2 MSTORE PUSH1 0x1 DUP4 ADD PUSH1 0x20 MSTORE PUSH1 0x40 DUP2 KECCAK256 SLOAD DUP1 ISZERO PUSH2 0x1387 JUMPI PUSH1 0x0 PUSH2 0x12C2 PUSH1 0x1 DUP4 PUSH2 0x199E JUMP JUMPDEST DUP6 SLOAD SWAP1 SWAP2 POP PUSH1 0x0 SWAP1 PUSH2 0x12D6 SWAP1 PUSH1 0x1 SWAP1 PUSH2 0x199E JUMP JUMPDEST SWAP1 POP DUP2 DUP2 EQ PUSH2 0x133B JUMPI PUSH1 0x0 DUP7 PUSH1 0x0 ADD DUP3 DUP2 SLOAD DUP2 LT PUSH2 0x12F6 JUMPI PUSH2 0x12F6 PUSH2 0x1743 JUMP JUMPDEST SWAP1 PUSH1 0x0 MSTORE PUSH1 0x20 PUSH1 0x0 KECCAK256 ADD SLOAD SWAP1 POP DUP1 DUP8 PUSH1 0x0 ADD DUP5 DUP2 SLOAD DUP2 LT PUSH2 0x1319 JUMPI PUSH2 0x1319 PUSH2 0x1743 JUMP JUMPDEST PUSH1 0x0 SWAP2 DUP3 MSTORE PUSH1 0x20 DUP1 DUP4 KECCAK256 SWAP1 SWAP2 ADD SWAP3 SWAP1 SWAP3 SSTORE SWAP2 DUP3 MSTORE PUSH1 0x1 DUP9 ADD SWAP1 MSTORE PUSH1 0x40 SWAP1 KECCAK256 DUP4 SWAP1 SSTORE JUMPDEST DUP6 SLOAD DUP7 SWAP1 DUP1 PUSH2 0x134C JUMPI PUSH2 0x134C PUSH2 0x19B5 JUMP JUMPDEST PUSH1 0x1 SWAP1 SUB DUP2 DUP2 SWAP1 PUSH1 0x0 MSTORE PUSH1 0x20 PUSH1 0x0 KECCAK256 ADD PUSH1 0x0 SWAP1 SSTORE SWAP1 SSTORE DUP6 PUSH1 0x1 ADD PUSH1 0x0 DUP7 DUP2 MSTORE PUSH1 0x20 ADD SWAP1 DUP2 MSTORE PUSH1 0x20 ADD PUSH1 0x0 KECCAK256 PUSH1 0x0 SWAP1 SSTORE PUSH1 0x1 SWAP4 POP POP POP POP PUSH2 0x202 JUMP JUMPDEST PUSH1 0x0 SWAP2 POP POP PUSH2 0x202 JUMP JUMPDEST PUSH1 0x0 DUP2 DUP2 MSTORE PUSH1 0x1 DUP4 ADD PUSH1 0x20 MSTORE PUSH1 0x40 DUP2 KECCAK256 SLOAD PUSH2 0x13D8 JUMPI POP DUP2 SLOAD PUSH1 0x1 DUP2 DUP2 ADD DUP5 SSTORE PUSH1 0x0 DUP5 DUP2 MSTORE PUSH1 0x20 DUP1 DUP3 KECCAK256 SWAP1 SWAP4 ADD DUP5 SWAP1 SSTORE DUP5 SLOAD DUP5 DUP3 MSTORE DUP3 DUP7 ADD SWAP1 SWAP4 MSTORE PUSH1 0x40 SWAP1 KECCAK256 SWAP2 SWAP1 SWAP2 SSTORE PUSH2 0x202 JUMP JUMPDEST POP PUSH1 0x0 PUSH2 0x202 JUMP JUMPDEST PUSH1 0x0 PUSH2 0x3A6 DUP4 DUP4 PUSH1 0x0 DUP3 PUSH1 0x0 ADD DUP3 DUP2 SLOAD DUP2 LT PUSH2 0x13FE JUMPI PUSH2 0x13FE PUSH2 0x1743 JUMP JUMPDEST SWAP1 PUSH1 0x0 MSTORE PUSH1 0x20 PUSH1 0x0 KECCAK256 ADD SLOAD SWAP1 POP SWAP3 SWAP2 POP POP JUMP JUMPDEST PUSH1 0x1 PUSH1 0x1 PUSH1 0xA0 SHL SUB DUP2 AND DUP2 EQ PUSH2 0x1426 JUMPI PUSH1 0x0 DUP1 REVERT JUMPDEST POP JUMP JUMPDEST PUSH1 0x0 DUP1 PUSH1 0x40 DUP4 DUP6 SUB SLT ISZERO PUSH2 0x143C JUMPI PUSH1 0x0 DUP1 REVERT JUMPDEST DUP3 CALLDATALOAD PUSH2 0x1447 DUP2 PUSH2 0x1411 JUMP JUMPDEST SWAP2 POP PUSH1 0x20 DUP4 ADD CALLDATALOAD PUSH2 0x1457 DUP2 PUSH2 0x1411 JUMP JUMPDEST DUP1 SWAP2 POP POP SWAP3 POP SWAP3 SWAP1 POP JUMP JUMPDEST PUSH1 0x20 DUP1 DUP3 MSTORE DUP3 MLOAD DUP3 DUP3 ADD DUP2 SWAP1 MSTORE PUSH1 0x0 SWAP2 SWAP1 DUP5 DUP3 ADD SWAP1 PUSH1 0x40 DUP6 ADD SWAP1 DUP5 JUMPDEST DUP2 DUP2 LT ISZERO PUSH2 0x14A3 JUMPI DUP4 MLOAD PUSH1 0x1 PUSH1 0x1 PUSH1 0xA0 SHL SUB AND DUP4 MSTORE SWAP3 DUP5 ADD SWAP3 SWAP2 DUP5 ADD SWAP2 PUSH1 0x1 ADD PUSH2 0x147E JUMP JUMPDEST POP SWAP1 SWAP7 SWAP6 POP POP POP POP POP POP JUMP JUMPDEST DUP1 CALLDATALOAD PUSH4 0xFFFFFFFF DUP2 AND DUP2 EQ PUSH2 0x14C3 JUMPI PUSH1 0x0 DUP1 REVERT JUMPDEST SWAP2 SWAP1 POP JUMP JUMPDEST PUSH1 0x0 DUP1 PUSH1 0x0 PUSH1 0x60 DUP5 DUP7 SUB SLT ISZERO PUSH2 0x14DD JUMPI PUSH1 0x0 DUP1 REVERT JUMPDEST DUP4 CALLDATALOAD PUSH2 0x14E8 DUP2 PUSH2 0x1411 JUMP JUMPDEST SWAP3 POP PUSH1 0x20 DUP5 ADD CALLDATALOAD PUSH2 0x14F8 DUP2 PUSH2 0x1411 JUMP JUMPDEST SWAP2 POP PUSH2 0x1506 PUSH1 0x40 DUP6 ADD PUSH2 0x14AF JUMP JUMPDEST SWAP1 POP SWAP3 POP SWAP3 POP SWAP3 JUMP JUMPDEST PUSH1 0x0 PUSH1 0x20 DUP3 DUP5 SUB SLT ISZERO PUSH2 0x1521 JUMPI PUSH1 0x0 DUP1 REVERT JUMPDEST DUP2 CALLDATALOAD PUSH2 0x3A6 DUP2 PUSH2 0x1411 JUMP JUMPDEST PUSH1 0x0 PUSH1 0x20 DUP3 DUP5 SUB SLT ISZERO PUSH2 0x153E JUMPI PUSH1 0x0 DUP1 REVERT JUMPDEST PUSH2 0x3A6 DUP3 PUSH2 0x14AF JUMP JUMPDEST PUSH1 0x0 PUSH1 0x20 DUP3 DUP5 SUB SLT ISZERO PUSH2 0x1559 JUMPI PUSH1 0x0 DUP1 REVERT JUMPDEST DUP2 MLOAD PUSH1 0xFF DUP2 AND DUP2 EQ PUSH2 0x3A6 JUMPI PUSH1 0x0 DUP1 REVERT JUMPDEST PUSH4 0x4E487B71 PUSH1 0xE0 SHL PUSH1 0x0 MSTORE PUSH1 0x11 PUSH1 0x4 MSTORE PUSH1 0x24 PUSH1 0x0 REVERT JUMPDEST PUSH1 0x0 PUSH1 0xFF DUP3 AND PUSH1 0xFF DUP5 AND DUP1 PUSH1 0xFF SUB DUP3 GT ISZERO PUSH2 0x159D JUMPI PUSH2 0x159D PUSH2 0x156A JUMP JUMPDEST ADD SWAP4 SWAP3 POP POP POP JUMP JUMPDEST PUSH1 0x0 PUSH1 0xFF DUP3 AND PUSH1 0xFF DUP5 AND DUP1 DUP3 LT ISZERO PUSH2 0x15BF JUMPI PUSH2 0x15BF PUSH2 0x156A JUMP JUMPDEST SWAP1 SUB SWAP4 SWAP3 POP POP POP JUMP JUMPDEST PUSH1 0x1 DUP2 DUP2 JUMPDEST DUP1 DUP6 GT ISZERO PUSH2 0x1603 JUMPI DUP2 PUSH1 0x0 NOT DIV DUP3 GT ISZERO PUSH2 0x15E9 JUMPI PUSH2 0x15E9 PUSH2 0x156A JUMP JUMPDEST DUP1 DUP6 AND ISZERO PUSH2 0x15F6 JUMPI SWAP2 DUP2 MUL SWAP2 JUMPDEST SWAP4 DUP5 SHR SWAP4 SWAP1 DUP1 MUL SWAP1 PUSH2 0x15CD JUMP JUMPDEST POP SWAP3 POP SWAP3 SWAP1 POP JUMP JUMPDEST PUSH1 0x0 DUP3 PUSH2 0x161A JUMPI POP PUSH1 0x1 PUSH2 0x202 JUMP JUMPDEST DUP2 PUSH2 0x1627 JUMPI POP PUSH1 0x0 PUSH2 0x202 JUMP JUMPDEST DUP2 PUSH1 0x1 DUP2 EQ PUSH2 0x163D JUMPI PUSH1 0x2 DUP2 EQ PUSH2 0x1647 JUMPI PUSH2 0x1663 JUMP JUMPDEST PUSH1 0x1 SWAP2 POP POP PUSH2 0x202 JUMP JUMPDEST PUSH1 0xFF DUP5 GT ISZERO PUSH2 0x1658 JUMPI PUSH2 0x1658 PUSH2 0x156A JUMP JUMPDEST POP POP PUSH1 0x1 DUP3 SHL PUSH2 0x202 JUMP JUMPDEST POP PUSH1 0x20 DUP4 LT PUSH2 0x133 DUP4 LT AND PUSH1 0x4E DUP5 LT PUSH1 0xB DUP5 LT AND OR ISZERO PUSH2 0x1686 JUMPI POP DUP2 DUP2 EXP PUSH2 0x202 JUMP JUMPDEST PUSH2 0x1690 DUP4 DUP4 PUSH2 0x15C8 JUMP JUMPDEST DUP1 PUSH1 0x0 NOT DIV DUP3 GT ISZERO PUSH2 0x16A4 JUMPI PUSH2 0x16A4 PUSH2 0x156A JUMP JUMPDEST MUL SWAP4 SWAP3 POP POP POP JUMP JUMPDEST PUSH1 0x0 PUSH2 0x3A6 PUSH1 0xFF DUP5 AND DUP4 PUSH2 0x160B JUMP JUMPDEST PUSH1 0x0 PUSH1 0x20 DUP1 DUP4 MSTORE DUP4 MLOAD DUP1 DUP3 DUP6 ADD MSTORE PUSH1 0x0 JUMPDEST DUP2 DUP2 LT ISZERO PUSH2 0x16E8 JUMPI DUP6 DUP2 ADD DUP4 ADD MLOAD DUP6 DUP3 ADD PUSH1 0x40 ADD MSTORE DUP3 ADD PUSH2 0x16CC JUMP JUMPDEST DUP2 DUP2 GT ISZERO PUSH2 0x16FA JUMPI PUSH1 0x0 PUSH1 0x40 DUP4 DUP8 ADD ADD MSTORE JUMPDEST POP PUSH1 0x1F ADD PUSH1 0x1F NOT AND SWAP3 SWAP1 SWAP3 ADD PUSH1 0x40 ADD SWAP4 SWAP3 POP POP POP JUMP JUMPDEST PUSH1 0x0 PUSH1 0x20 DUP3 DUP5 SUB SLT ISZERO PUSH2 0x1722 JUMPI PUSH1 0x0 DUP1 REVERT JUMPDEST DUP2 MLOAD PUSH2 0x3A6 DUP2 PUSH2 0x1411 JUMP JUMPDEST PUSH4 0x4E487B71 PUSH1 0xE0 SHL PUSH1 0x0 MSTORE PUSH1 0x41 PUSH1 0x4 MSTORE PUSH1 0x24 PUSH1 0x0 REVERT JUMPDEST PUSH4 0x4E487B71 PUSH1 0xE0 SHL PUSH1 0x0 MSTORE PUSH1 0x32 PUSH1 0x4 MSTORE PUSH1 0x24 PUSH1 0x0 REVERT JUMPDEST PUSH1 0x0 PUSH1 0x0 NOT DUP3 EQ ISZERO PUSH2 0x176D JUMPI PUSH2 0x176D PUSH2 0x156A JUMP JUMPDEST POP PUSH1 0x1 ADD SWAP1 JUMP JUMPDEST PUSH1 0x20 DUP1 DUP3 MSTORE DUP3 MLOAD DUP3 DUP3 ADD DUP2 SWAP1 MSTORE PUSH1 0x0 SWAP2 SWAP1 DUP5 DUP3 ADD SWAP1 PUSH1 0x40 DUP6 ADD SWAP1 DUP5 JUMPDEST DUP2 DUP2 LT ISZERO PUSH2 0x14A3 JUMPI DUP4 MLOAD PUSH4 0xFFFFFFFF AND DUP4 MSTORE SWAP3 DUP5 ADD SWAP3 SWAP2 DUP5 ADD SWAP2 PUSH1 0x1 ADD PUSH2 0x1790 JUMP JUMPDEST PUSH1 0x40 MLOAD PUSH1 0x1F DUP3 ADD PUSH1 0x1F NOT AND DUP2 ADD PUSH8 0xFFFFFFFFFFFFFFFF DUP2 GT DUP3 DUP3 LT OR ISZERO PUSH2 0x17DB JUMPI PUSH2 0x17DB PUSH2 0x172D JUMP JUMPDEST PUSH1 0x40 MSTORE SWAP2 SWAP1 POP JUMP JUMPDEST PUSH1 0x0 PUSH8 0xFFFFFFFFFFFFFFFF DUP3 GT ISZERO PUSH2 0x17FD JUMPI PUSH2 0x17FD PUSH2 0x172D JUMP JUMPDEST POP PUSH1 0x5 SHL PUSH1 0x20 ADD SWAP1 JUMP JUMPDEST PUSH1 0x0 DUP3 PUSH1 0x1F DUP4 ADD SLT PUSH2 0x1818 JUMPI PUSH1 0x0 DUP1 REVERT JUMPDEST DUP2 MLOAD PUSH1 0x20 PUSH2 0x182D PUSH2 0x1828 DUP4 PUSH2 0x17E3 JUMP JUMPDEST PUSH2 0x17B2 JUMP JUMPDEST DUP3 DUP2 MSTORE PUSH1 0x5 SWAP3 SWAP1 SWAP3 SHL DUP5 ADD DUP2 ADD SWAP2 DUP2 DUP2 ADD SWAP1 DUP7 DUP5 GT ISZERO PUSH2 0x184C JUMPI PUSH1 0x0 DUP1 REVERT JUMPDEST DUP3 DUP7 ADD JUMPDEST DUP5 DUP2 LT ISZERO PUSH2 0x1870 JUMPI DUP1 MLOAD PUSH2 0x1863 DUP2 PUSH2 0x1411 JUMP JUMPDEST DUP4 MSTORE SWAP2 DUP4 ADD SWAP2 DUP4 ADD PUSH2 0x1850 JUMP JUMPDEST POP SWAP7 SWAP6 POP POP POP POP POP POP JUMP JUMPDEST PUSH1 0x0 DUP1 PUSH1 0x40 DUP4 DUP6 SUB SLT ISZERO PUSH2 0x188E JUMPI PUSH1 0x0 DUP1 REVERT JUMPDEST DUP3 MLOAD PUSH8 0xFFFFFFFFFFFFFFFF DUP1 DUP3 GT ISZERO PUSH2 0x18A6 JUMPI PUSH1 0x0 DUP1 REVERT JUMPDEST DUP2 DUP6 ADD SWAP2 POP DUP6 PUSH1 0x1F DUP4 ADD SLT PUSH2 0x18BA JUMPI PUSH1 0x0 DUP1 REVERT JUMPDEST DUP2 MLOAD PUSH1 0x20 PUSH2 0x18CA PUSH2 0x1828 DUP4 PUSH2 0x17E3 JUMP JUMPDEST DUP3 DUP2 MSTORE PUSH1 0x5 SWAP3 SWAP1 SWAP3 SHL DUP5 ADD DUP2 ADD SWAP2 DUP2 DUP2 ADD SWAP1 DUP10 DUP5 GT ISZERO PUSH2 0x18E9 JUMPI PUSH1 0x0 DUP1 REVERT JUMPDEST SWAP5 DUP3 ADD SWAP5 JUMPDEST DUP4 DUP7 LT ISZERO PUSH2 0x1917 JUMPI DUP6 MLOAD DUP1 PUSH1 0x6 SIGNEXTEND DUP2 EQ PUSH2 0x1908 JUMPI PUSH1 0x0 DUP1 DUP2 REVERT JUMPDEST DUP3 MSTORE SWAP5 DUP3 ADD SWAP5 SWAP1 DUP3 ADD SWAP1 PUSH2 0x18EE JUMP JUMPDEST SWAP2 DUP9 ADD MLOAD SWAP2 SWAP7 POP SWAP1 SWAP4 POP POP POP DUP1 DUP3 GT ISZERO PUSH2 0x1930 JUMPI PUSH1 0x0 DUP1 REVERT JUMPDEST POP PUSH2 0x193D DUP6 DUP3 DUP7 ADD PUSH2 0x1807 JUMP JUMPDEST SWAP2 POP POP SWAP3 POP SWAP3 SWAP1 POP JUMP JUMPDEST PUSH4 0x4E487B71 PUSH1 0xE0 SHL PUSH1 0x0 MSTORE PUSH1 0x12 PUSH1 0x4 MSTORE PUSH1 0x24 PUSH1 0x0 REVERT JUMPDEST PUSH1 0x0 DUP2 PUSH1 0x0 NOT DIV DUP4 GT DUP3 ISZERO ISZERO AND ISZERO PUSH2 0x1977 JUMPI PUSH2 0x1977 PUSH2 0x156A JUMP JUMPDEST POP MUL SWAP1 JUMP JUMPDEST PUSH1 0x0 DUP3 PUSH2 0x1999 JUMPI PUSH4 0x4E487B71 PUSH1 0xE0 SHL PUSH1 0x0 MSTORE PUSH1 0x12 PUSH1 0x4 MSTORE PUSH1 0x24 PUSH1 0x0 REVERT JUMPDEST POP DIV SWAP1 JUMP JUMPDEST PUSH1 0x0 DUP3 DUP3 LT ISZERO PUSH2 0x19B0 JUMPI PUSH2 0x19B0 PUSH2 0x156A JUMP JUMPDEST POP SUB SWAP1 JUMP JUMPDEST PUSH4 0x4E487B71 PUSH1 0xE0 SHL PUSH1 0x0 MSTORE PUSH1 0x31 PUSH1 0x4 MSTORE PUSH1 0x24 PUSH1 0x0 REVERT INVALID LOG2 PUSH5 0x6970667358 0x22 SLT KECCAK256 SWAP2 CALL BYTE LOG3 0xD0 CALLDATASIZE DUP5 SMOD EXTCODESIZE DUP13 MSTORE CALLCODE 0xAC CHAINID 0xD2 PC 0xA8 0xCB 0xB5 JUMPDEST DELEGATECALL PUSH8 0x4B9FF705BCF845C8 0xDD CALLER PUSH5 0x736F6C6343 STOP ADDMOD EXP STOP CALLER ","sha1":"ad645117a1cea9b0c2bf0347c9cd809f962e569f","source":"// SPDX-License-Identifier: UNLICENSED\npragma solidity ^0.8.4;\n\nimport \"@openzeppelin/contracts/token/ERC20/extensions/IERC20Metadata.sol\";\nimport \"@openzeppelin/contracts/utils/structs/EnumerableMap.sol\";\n\nimport \"../auth/Governable.sol\";\n\nimport \"../../interfaces/oracles/IRelativePriceOracle.sol\";\nimport \"../../interfaces/vendor/uniswap/IUniswapV3Pool.sol\";\n\nimport \"../../libraries/vendor/OracleLibrary.sol\";\nimport \"../../libraries/Errors.sol\";\nimport \"../../libraries/FixedPoint.sol\";\nimport \"../../libraries/EnumerableExtensions.sol\";\n\ncontract UniswapV3TwapOracle is IRelativePriceOracle, Governable {\n    using FixedPoint for uint256;\n    using EnumerableMap for EnumerableMap.UintToAddressMap;\n    using EnumerableExtensions for EnumerableMap.UintToAddressMap;\n\n    event PoolRegistered(address indexed assetA, address indexed assetB, address indexed pool);\n    event PoolDeregistered(address indexed assetA, address indexed assetB, address indexed pool);\n\n    EnumerableMap.UintToAddressMap internal pools;\n\n    uint32 public constant DEFAULT_TIME_WINDOW_LENGTH_SECONDS_AGO = 3_600;\n\n    uint32 public timeWindowLengthSeconds;\n\n    constructor() {\n        timeWindowLengthSeconds = DEFAULT_TIME_WINDOW_LENGTH_SECONDS_AGO;\n    }\n\n    /// @notice Registers a Uniswap pool to be used as oracle\n    /// We can only register a single pool per asset pair\n    function registerPool(address pool) external governanceOnly {\n        address assetA = IUniswapV3Pool(pool).token0();\n        address assetB = IUniswapV3Pool(pool).token1();\n        uint256 poolKey = getAssetsPairKey(assetA, assetB);\n\n        require(pools.set(poolKey, pool), Errors.INVALID_ARGUMENT);\n        emit PoolRegistered(assetA, assetB, pool);\n    }\n\n    /// @notice Deregisters a Uniswap pool\n    function deregisterPool(address pool) external governanceOnly {\n        address assetA = IUniswapV3Pool(pool).token0();\n        address assetB = IUniswapV3Pool(pool).token1();\n        uint256 poolKey = getAssetsPairKey(assetA, assetB);\n        require(pools.remove(poolKey), Errors.INVALID_ARGUMENT);\n        emit PoolDeregistered(assetA, assetB, pool);\n    }\n\n    /// @notice Set number of seconds used for the time window of the UniV3 price oracle\n    function setTimeWindowLengthSeconds(uint32 _timeWindowLengthSeconds) external governanceOnly {\n        timeWindowLengthSeconds = _timeWindowLengthSeconds;\n    }\n\n    /// @inheritdoc IRelativePriceOracle\n    function getRelativePrice(address baseAsset, address quoteAsset)\n        external\n        view\n        override\n        returns (uint256)\n    {\n        return getRelativePrice(baseAsset, quoteAsset, timeWindowLengthSeconds);\n    }\n\n    /// @notice Same as `getRelativePrice(address,address)` but allows to specify\n    /// the time in seconds to use to compute the TWAP\n    function getRelativePrice(\n        address baseAsset,\n        address quoteAsset,\n        uint32 windowLengthSeconds\n    ) public view returns (uint256) {\n        address pool = getPool(baseAsset, quoteAsset);\n        (int24 tick, ) = OracleLibrary.consult(pool, windowLengthSeconds);\n\n        uint8 baseDecimals = IERC20Metadata(baseAsset).decimals();\n        uint8 quoteDecimals = IERC20Metadata(quoteAsset).decimals();\n\n        if (baseAsset < quoteAsset) {\n            uint8 decimals = baseDecimals + 18 - quoteDecimals;\n            uint128 baseAmount = uint128(10**decimals);\n            return OracleLibrary.getQuoteAtTick(tick, baseAmount, baseAsset, quoteAsset);\n        } else {\n            uint8 decimals = quoteDecimals + 18 - baseDecimals;\n            uint128 baseAmount = uint128(10**decimals);\n            return\n                FixedPoint.ONE.divDown(\n                    OracleLibrary.getQuoteAtTick(tick, baseAmount, quoteAsset, baseAsset)\n                );\n        }\n    }\n\n    function isPairSupported(address baseAsset, address quoteAsset)\n        external\n        view\n        override\n        returns (bool)\n    {\n        return pools.contains(getAssetsPairKey(baseAsset, quoteAsset));\n    }\n\n    /// @notice Returns all the currently registered pools\n    function getPools() external view returns (address[] memory) {\n        return pools.valuesArray();\n    }\n\n    /// @notice Returns the Uniswap pool used to compute the TWAP between `assetA` and `assetB`\n    function getPool(address assetA, address assetB) public view returns (address) {\n        uint256 poolKey = getAssetsPairKey(assetA, assetB);\n        return pools.get(poolKey);\n    }\n\n    function getAssetsPairKey(address assetA, address assetB) internal pure returns (uint256) {\n        if (assetB < assetA) {\n            (assetA, assetB) = (assetB, assetA);\n        }\n        return uint256(keccak256(abi.encodePacked(assetA, assetB)));\n    }\n}\n","sourcePath":"contracts/oracles/UniswapV3TwapPriceOracle.sol","type":"contract","deployment":{"address":"0x84b41a458ADaF00E94efa1Fd98312991b82Ac9eB","chainid":"137","blockHeight":26856188}}