{"abi":[{"inputs":[{"internalType":"address","name":"_usdOracle","type":"address"},{"internalType":"address","name":"_relativeOracle","type":"address"}],"stateMutability":"nonpayable","type":"constructor","name":"constructor"},{"anonymous":false,"inputs":[{"indexed":false,"internalType":"address","name":"oldGovernor","type":"address"},{"indexed":false,"internalType":"address","name":"newGovernor","type":"address"}],"name":"GovernorChanged","type":"event"},{"anonymous":false,"inputs":[{"indexed":false,"internalType":"address","name":"_addressToAdd","type":"address"}],"name":"PriceLevelTWAPQuoteAssetAdded","type":"event"},{"anonymous":false,"inputs":[{"indexed":false,"internalType":"address","name":"_addressToRemove","type":"address"}],"name":"PriceLevelTWAPQuoteAssetRemoved","type":"event"},{"anonymous":false,"inputs":[{"indexed":false,"internalType":"address","name":"_addressToAdd","type":"address"}],"name":"TrustedSignerOracleAdded","type":"event"},{"anonymous":false,"inputs":[{"indexed":false,"internalType":"address","name":"_addressToRemove","type":"address"}],"name":"TrustedSignerOracleRemoved","type":"event"},{"inputs":[],"name":"INITIAL_RELATIVE_EPSILON","outputs":[{"internalType":"uint256","name":"","type":"uint256"}],"stateMutability":"view","type":"function"},{"inputs":[],"name":"MAX_ABSOLUTE_WETH_DEVIATION","outputs":[{"internalType":"uint256","name":"","type":"uint256"}],"stateMutability":"view","type":"function"},{"inputs":[],"name":"MAX_RELATIVE_EPSILON","outputs":[{"internalType":"uint256","name":"","type":"uint256"}],"stateMutability":"view","type":"function"},{"inputs":[],"name":"WETH_ADDRESS","outputs":[{"internalType":"address","name":"","type":"address"}],"stateMutability":"view","type":"function"},{"inputs":[{"internalType":"address","name":"_quoteAssetToAdd","type":"address"}],"name":"addQuoteAssetsForPriceLevelTwap","outputs":[],"stateMutability":"nonpayable","type":"function"},{"inputs":[{"internalType":"address","name":"_signedAssetToAdd","type":"address"}],"name":"addSignedPriceSource","outputs":[],"stateMutability":"nonpayable","type":"function"},{"inputs":[{"internalType":"address","name":"newGovernor","type":"address"}],"name":"changeGovernor","outputs":[],"stateMutability":"nonpayable","type":"function"},{"inputs":[{"internalType":"address[]","name":"tokenAddresses","type":"address[]"}],"name":"getPricesUSD","outputs":[{"internalType":"uint256[]","name":"","type":"uint256[]"}],"stateMutability":"view","type":"function"},{"inputs":[{"internalType":"uint256[]","name":"signedPrices","type":"uint256[]"},{"internalType":"uint256[]","name":"twapPrices","type":"uint256[]"}],"name":"getRobustWETHPrice","outputs":[{"internalType":"uint256","name":"","type":"uint256"}],"stateMutability":"view","type":"function"},{"inputs":[],"name":"governor","outputs":[{"internalType":"address","name":"","type":"address"}],"stateMutability":"view","type":"function"},{"inputs":[],"name":"listQuoteAssetsForPriceLevelTwap","outputs":[{"internalType":"address[]","name":"","type":"address[]"}],"stateMutability":"view","type":"function"},{"inputs":[],"name":"relativeEpsilon","outputs":[{"internalType":"uint256","name":"","type":"uint256"}],"stateMutability":"view","type":"function"},{"inputs":[],"name":"relativeOracle","outputs":[{"internalType":"contract IRelativePriceOracle","name":"","type":"address"}],"stateMutability":"view","type":"function"},{"inputs":[{"internalType":"address","name":"_quoteAssetToRemove","type":"address"}],"name":"removeQuoteAssetsForPriceLevelTwap","outputs":[],"stateMutability":"nonpayable","type":"function"},{"inputs":[{"internalType":"address","name":"_signedAssetToRemove","type":"address"}],"name":"removeSignedPriceSource","outputs":[],"stateMutability":"nonpayable","type":"function"},{"inputs":[{"internalType":"uint256","name":"_relativeEpsilon","type":"uint256"}],"name":"setRelativeMaxEpsilon","outputs":[],"stateMutability":"nonpayable","type":"function"},{"inputs":[],"name":"usdOracle","outputs":[{"internalType":"contract IUSDPriceOracle","name":"","type":"address"}],"stateMutability":"view","type":"function"}],"bytecode":"60806040523480156200001157600080fd5b5060405162001d6b38038062001d6b8339810160408190526200003491620000dc565b600080546001600160a01b0319163390811782556040805192835260208301919091527fde4b3f61490b74c0ed6237523974fe299126bbbf8a8a7482fd220104c59b0c84910160405180910390a1600180546001600160a01b039384166001600160a01b0319918216179091556002805492909316911617905566470de4df82000060035562000114565b80516001600160a01b0381168114620000d757600080fd5b919050565b60008060408385031215620000f057600080fd5b620000fb83620000bf565b91506200010b60208401620000bf565b90509250929050565b611c4780620001246000396000f3fe608060405234801561001057600080fd5b506004361061010b5760003560e01c8063b55b3f1b116100a2578063e181896011610071578063e181896014610230578063e3a0762114610239578063e4c0aaf41461024c578063e4dd02c31461025f578063e72a49d01461027257600080fd5b8063b55b3f1b146101e7578063c8a4271f146101f5578063d8f4a0aa14610208578063e0dcd3c31461021b57600080fd5b8063442aae79116100de578063442aae791461019c57806357ae3389146101af57806375ceebd0146101c4578063a7ed2a79146101d757600080fd5b8063040141e5146101105780630c340a24146101485780632af312831461015b5780632e191ed71461017b575b600080fd5b61012b73c02aaa39b223fe8d0a0e5c4f27ead9083c756cc281565b6040516001600160a01b0390911681526020015b60405180910390f35b60005461012b906001600160a01b031681565b61016e610169366004611793565b610281565b60405161013f9190611830565b61018e6101893660046118da565b610593565b60405190815260200161013f565b60025461012b906001600160a01b031681565b6101c26101bd36600461193e565b6106b2565b005b6101c26101d2366004611957565b610777565b61018e6802b5e3af16b188000081565b61018e66470de4df82000081565b60015461012b906001600160a01b031681565b6101c2610216366004611957565b610809565b610223610894565b60405161013f9190611972565b61018e60035481565b6101c2610247366004611957565b6108a5565b6101c261025a366004611957565b610930565b6101c261026d366004611957565b6109d7565b61018e67016345785d8a000081565b8051604080518082019091526002815261333160f01b602082015260609190600182116102ca5760405162461bcd60e51b81526004016102c191906119b3565b60405180910390fd5b5060008167ffffffffffffffff8111156102e6576102e661170c565b60405190808252806020026020018201604052801561030f578160200160208202803683370190505b5090506000805b8381101561044f5760015486516001600160a01b0390911690635708447d9088908490811061034757610347611a08565b60200260200101516040518263ffffffff1660e01b815260040161037a91906001600160a01b0391909116815260200190565b602060405180830381865afa158015610397573d6000803e3d6000fd5b505050506040513d601f19601f820116820180604052508101906103bb9190611a1e565b8382815181106103cd576103cd611a08565b60200260200101818152505073c02aaa39b223fe8d0a0e5c4f27ead9083c756cc26001600160a01b031686828151811061040957610409611a08565b60200260200101516001600160a01b0316141561043d5782818151811061043257610432611a08565b602002602001015191505b8061044781611a4d565b915050610316565b50600061045d868585610a62565b9050600061046b6004610fba565b905060008167ffffffffffffffff8111156104885761048861170c565b6040519080825280602002602001820160405280156104b1578160200160208202803683370190505b50905060005b8281101561057b5760006104cc600483610fc4565b604051635708447d60e01b815273c02aaa39b223fe8d0a0e5c4f27ead9083c756cc260048201529091506001600160a01b03821690635708447d90602401602060405180830381865afa158015610527573d6000803e3d6000fd5b505050506040513d601f19601f8201168201806040525081019061054b9190611a1e565b83838151811061055d5761055d611a08565b6020908102919091010152508061057381611a4d565b9150506104b7565b50610587848285610fd7565b50929695505050505050565b6000808251600014156105b1576105a984611041565b9150506106ac565b6105ba836110ee565b90506000845160016105cc9190611a68565b67ffffffffffffffff8111156105e4576105e461170c565b60405190808252806020026020018201604052801561060d578160200160208202803683370190505b5090508181600183516106209190611a80565b8151811061063057610630611a08565b60200260200101818152505060005b6001825161064d9190611a80565b81101561069d5785818151811061066657610666611a08565b602002602001015182828151811061068057610680611a08565b60209081029190910101528061069581611a4d565b91505061063f565b506106a781611041565b925050505b92915050565b600054604080518082019091526002815261033360f41b6020820152906001600160a01b031633146106f75760405162461bcd60e51b81526004016102c191906119b3565b50604080518082019091526002815261333160f01b60208201528161072f5760405162461bcd60e51b81526004016102c191906119b3565b50604080518082019091526002815261333160f01b602082015267016345785d8a000082106107715760405162461bcd60e51b81526004016102c191906119b3565b50600355565b600054604080518082019091526002815261033360f41b6020820152906001600160a01b031633146107bc5760405162461bcd60e51b81526004016102c191906119b3565b506107c86004826111f5565b506040516001600160a01b03821681527fb7f10b8974f181778e2544b4188359b499da116029e96c6a05bed5cdecee1064906020015b60405180910390a150565b600054604080518082019091526002815261033360f41b6020820152906001600160a01b0316331461084e5760405162461bcd60e51b81526004016102c191906119b3565b5061085a60068261120a565b506040516001600160a01b03821681527f612ac93ad02ac7669d13be8835bb33d5c6d42bb4c46f0cdb717681ebd2b64557906020016107fe565b60606108a0600661121f565b905090565b600054604080518082019091526002815261033360f41b6020820152906001600160a01b031633146108ea5760405162461bcd60e51b81526004016102c191906119b3565b506108f660048261120a565b506040516001600160a01b03821681527f8696120fb7656955ec406c2959998de0aa9798518606d5afb5f36789f522dfea906020016107fe565b600054604080518082019091526002815261033360f41b6020820152906001600160a01b031633146109755760405162461bcd60e51b81526004016102c191906119b3565b50600080546001600160a01b038381166001600160a01b031983168117909355604080519190921680825260208201939093527fde4b3f61490b74c0ed6237523974fe299126bbbf8a8a7482fd220104c59b0c84910160405180910390a15050565b600054604080518082019091526002815261033360f41b6020820152906001600160a01b03163314610a1c5760405162461bcd60e51b81526004016102c191906119b3565b50610a286006826111f5565b506040516001600160a01b03821681527ffab625e04bc6eeef38aaf5c2e48b1f1953cf5183297f4115f0da9e906d4bf3ac906020016107fe565b606060008367ffffffffffffffff811115610a7f57610a7f61170c565b604051908082528060200260200182016040528015610aa8578160200160208202803683370190505b5090506000610ab76006610fba565b67ffffffffffffffff811115610acf57610acf61170c565b604051908082528060200260200182016040528015610af8578160200160208202803683370190505b5090506000805b60018851610b0d9190611a80565b811015610f1257838181518110610b2657610b26611a08565b602002602001015115610b3857610f00565b6000805b8951811015610ea15780831480610c0e57506002548a516001600160a01b0390911690639446994a908c9086908110610b7757610b77611a08565b60200260200101518c8481518110610b9157610b91611a08565b60200260200101516040518363ffffffff1660e01b8152600401610bcb9291906001600160a01b0392831681529116602082015260400190565b602060405180830381865afa158015610be8573d6000803e3d6000fd5b505050506040513d601f19601f82011682018060405250810190610c0c9190611a97565b155b15610c1857610e8f565b6002548a516000916001600160a01b031690639b56e6a7908d9087908110610c4257610c42611a08565b60200260200101518d8581518110610c5c57610c5c611a08565b60200260200101516040518363ffffffff1660e01b8152600401610c969291906001600160a01b0392831681529116602082015260400190565b602060405180830381865afa158015610cb3573d6000803e3d6000fd5b505050506040513d601f19601f82011682018060405250810190610cd79190611a1e565b905073c02aaa39b223fe8d0a0e5c4f27ead9083c756cc26001600160a01b03168b8581518110610d0957610d09611a08565b60200260200101516001600160a01b0316148015610d4f5750610d4f8b8381518110610d3757610d37611a08565b602002602001015160066112ce90919063ffffffff16565b15610d845780868681518110610d6757610d67611a08565b602090810291909101015284610d7c81611a4d565b955050610e24565b73c02aaa39b223fe8d0a0e5c4f27ead9083c756cc26001600160a01b03168b8381518110610db457610db4611a08565b60200260200101516001600160a01b0316148015610de25750610de28b8581518110610d3757610d37611a08565b15610e2457610df9670de0b6b3a7640000826112f0565b868681518110610e0b57610e0b611a08565b602090810291909101015284610e2081611a4d565b9550505b610e61898581518110610e3957610e39611a08565b60200260200101518a8481518110610e5357610e53611a08565b602002602001015183611358565b6001878381518110610e7557610e75611a08565b911515602092830291909101909101525060019150610ea1565b80610e9981611a4d565b915050610b3c565b50604080518082019091526002815261034360f41b602082015281610ed95760405162461bcd60e51b81526004016102c191906119b3565b506001858381518110610eee57610eee611a08565b91151560209283029190910190910152505b80610f0a81611a4d565b915050610aff565b5060008167ffffffffffffffff811115610f2e57610f2e61170c565b604051908082528060200260200182016040528015610f57578160200160208202803683370190505b50905060005b82811015610fae57838181518110610f7757610f77611a08565b6020026020010151828281518110610f9157610f91611a08565b602090810291909101015280610fa681611a4d565b915050610f5d565b50979650505050505050565b60006106ac825490565b6000610fd083836113ca565b9392505050565b6000610fe38383610593565b90506000610ff185836113f4565b90506802b5e3af16b188000081111560405180604001604052806002815260200161343560f01b815250906110395760405162461bcd60e51b81526004016102c191906119b3565b505050505050565b600061104c82611417565b506002825161105b9190611acf565b1561108c57816002835161106f9190611ae3565b8151811061107f5761107f611a08565b60200260200101516106ac565b6106ac826001600285516110a09190611ae3565b6110aa9190611a80565b815181106110ba576110ba611a08565b602002602001015183600285516110d19190611ae3565b815181106110e1576110e1611a08565b6020026020010151611436565b6000808260008151811061110457611104611a08565b6020908102919091010151905060001960015b84518110156111b5578285828151811061113357611133611a08565b602002602001015110156111655782915084818151811061115657611156611a08565b602002602001015192506111a3565b8185828151811061117857611178611a08565b602002602001015110156111a35784818151811061119857611198611a08565b602002602001015191505b806111ad81611a4d565b915050611117565b508351600114156111e457836000815181106111d3576111d3611a08565b602002602001015192505050919050565b835160021415610fd0575092915050565b6000610fd0836001600160a01b038416611451565b6000610fd0836001600160a01b0384166114a0565b6060600061122c83610fba565b905060008167ffffffffffffffff8111156112495761124961170c565b604051908082528060200260200182016040528015611272578160200160208202803683370190505b50905060005b828110156112c65761128a8582610fc4565b82828151811061129c5761129c611a08565b6001600160a01b0390921660209283029190910190910152806112be81611a4d565b915050611278565b509392505050565b6001600160a01b03811660009081526001830160205260408120541515610fd0565b604080518082019091526002815261323560f01b60208201526000908261132a5760405162461bcd60e51b81526004016102c191906119b3565b5082611338575060006106ac565b600061134c670de0b6b3a764000085611af7565b90506105a98382611ae3565b600061136484846112f0565b9050600061137283836113f4565b9050600061138082856112f0565b905060035481111560405180604001604052806002815260200161343160f01b815250906113c15760405162461bcd60e51b81526004016102c191906119b3565b50505050505050565b60008260000182815481106113e1576113e1611a08565b9060005260206000200154905092915050565b60008183101561140d576114088383611a80565b610fd0565b610fd08284611a80565b60606114328260006001855161142d9190611a80565b611593565b5090565b60006114456002848418611ae3565b610fd090848416611a68565b6000818152600183016020526040812054611498575081546001818101845560008481526020808220909301849055845484825282860190935260409020919091556106ac565b5060006106ac565b600081815260018301602052604081205480156115895760006114c4600183611a80565b85549091506000906114d890600190611a80565b905081811461153d5760008660000182815481106114f8576114f8611a08565b906000526020600020015490508087600001848154811061151b5761151b611a08565b6000918252602080832090910192909255918252600188019052604090208390555b855486908061154e5761154e611b16565b6001900381819060005260206000200160009055905585600101600086815260200190815260200160002060009055600193505050506106ac565b60009150506106ac565b8181808214156115a4575050505050565b60008560026115b38787611b2c565b6115bd9190611b6b565b6115c79087611b99565b815181106115d7576115d7611a08565b602002602001015190505b8183136116e6575b808684815181106115fd576115fd611a08565b6020026020010151101561161d578261161581611bda565b9350506115ea565b85828151811061162f5761162f611a08565b6020026020010151811015611650578161164881611bf3565b92505061161d565b8183136116e15785828151811061166957611669611a08565b602002602001015186848151811061168357611683611a08565b602002602001015187858151811061169d5761169d611a08565b602002602001018885815181106116b6576116b6611a08565b602090810291909101019190915252826116cf81611bda565b93505081806116dd90611bf3565b9250505b6115e2565b818512156116f9576116f9868684611593565b8383121561103957611039868486611593565b634e487b7160e01b600052604160045260246000fd5b604051601f8201601f1916810167ffffffffffffffff8111828210171561174b5761174b61170c565b604052919050565b600067ffffffffffffffff82111561176d5761176d61170c565b5060051b60200190565b80356001600160a01b038116811461178e57600080fd5b919050565b600060208083850312156117a657600080fd5b823567ffffffffffffffff8111156117bd57600080fd5b8301601f810185136117ce57600080fd5b80356117e16117dc82611753565b611722565b81815260059190911b8201830190838101908783111561180057600080fd5b928401925b828410156118255761181684611777565b82529284019290840190611805565b979650505050505050565b6020808252825182820181905260009190848201906040850190845b818110156118685783518352928401929184019160010161184c565b50909695505050505050565b600082601f83011261188557600080fd5b813560206118956117dc83611753565b82815260059290921b840181019181810190868411156118b457600080fd5b8286015b848110156118cf57803583529183019183016118b8565b509695505050505050565b600080604083850312156118ed57600080fd5b823567ffffffffffffffff8082111561190557600080fd5b61191186838701611874565b9350602085013591508082111561192757600080fd5b5061193485828601611874565b9150509250929050565b60006020828403121561195057600080fd5b5035919050565b60006020828403121561196957600080fd5b610fd082611777565b6020808252825182820181905260009190848201906040850190845b818110156118685783516001600160a01b03168352928401929184019160010161198e565b600060208083528351808285015260005b818110156119e0578581018301518582016040015282016119c4565b818111156119f2576000604083870101525b50601f01601f1916929092016040019392505050565b634e487b7160e01b600052603260045260246000fd5b600060208284031215611a3057600080fd5b5051919050565b634e487b7160e01b600052601160045260246000fd5b6000600019821415611a6157611a61611a37565b5060010190565b60008219821115611a7b57611a7b611a37565b500190565b600082821015611a9257611a92611a37565b500390565b600060208284031215611aa957600080fd5b81518015158114610fd057600080fd5b634e487b7160e01b600052601260045260246000fd5b600082611ade57611ade611ab9565b500690565b600082611af257611af2611ab9565b500490565b6000816000190483118215151615611b1157611b11611a37565b500290565b634e487b7160e01b600052603160045260246000fd5b60008083128015600160ff1b850184121615611b4a57611b4a611a37565b6001600160ff1b0384018313811615611b6557611b65611a37565b50500390565b600082611b7a57611b7a611ab9565b600160ff1b821460001984141615611b9457611b94611a37565b500590565b600080821280156001600160ff1b0384900385131615611bbb57611bbb611a37565b600160ff1b8390038412811615611bd457611bd4611a37565b50500190565b60006001600160ff1b03821415611a6157611a61611a37565b6000600160ff1b821415611c0957611c09611a37565b50600019019056fea2646970667358221220626b41d2869b97ce340e3f7b88ab26adeb5cf6902697c1050a750916169dd63764736f6c634300080a0033","bytecodeSha1":"6d29bdddbda61e28e599bd447f1798f9135e9b61","compiler":{"evm_version":"istanbul","optimizer":{"enabled":true,"runs":200},"version":"0.8.10+commit.fc410830"},"contractName":"CheckedPriceOracle","language":"Solidity","natspec":{"kind":"dev","methods":{"changeGovernor(address)":{"notice":"Changes the governor can only be called by the current governor"},"constructor":{"notice":"_usdOracle is for Chainlink"},"getPricesUSD(address[])":{"notice":"Quotes the USD price of `baseAssets` The quoted prices is always scaled with 18 decimals regardless of the source used for the oracle.","params":{"baseAssets":"the assets of which the price is to be quoted"},"returns":{"_0":"the USD prices of the asset"}},"getRobustWETHPrice(uint256[],uint256[])":{"notice":"this function provides an estimate of the true WETH price. 1. Find the minimum TWAP price (or second minumum if >2 TWAP prices) from a given array. 2. Add this to an array of signed prices 3. Compute the median of this array","params":{"signedPrices":"an array of prices from trusted providers (e.g. Chainlink, Coinbase, OKEx ETH/USD price)","twapPrices":"an array of Time Weighted Moving Average ETH/stablecoin prices"}},"governor()":{"notice":"Returns the current governor"}},"version":1},"opcodes":"PUSH1 0x80 PUSH1 0x40 MSTORE CALLVALUE DUP1 ISZERO PUSH2 0x10 JUMPI PUSH1 0x0 DUP1 REVERT JUMPDEST POP PUSH1 0x4 CALLDATASIZE LT PUSH2 0x10B JUMPI PUSH1 0x0 CALLDATALOAD PUSH1 0xE0 SHR DUP1 PUSH4 0xB55B3F1B GT PUSH2 0xA2 JUMPI DUP1 PUSH4 0xE1818960 GT PUSH2 0x71 JUMPI DUP1 PUSH4 0xE1818960 EQ PUSH2 0x230 JUMPI DUP1 PUSH4 0xE3A07621 EQ PUSH2 0x239 JUMPI DUP1 PUSH4 0xE4C0AAF4 EQ PUSH2 0x24C JUMPI DUP1 PUSH4 0xE4DD02C3 EQ PUSH2 0x25F JUMPI DUP1 PUSH4 0xE72A49D0 EQ PUSH2 0x272 JUMPI PUSH1 0x0 DUP1 REVERT JUMPDEST DUP1 PUSH4 0xB55B3F1B EQ PUSH2 0x1E7 JUMPI DUP1 PUSH4 0xC8A4271F EQ PUSH2 0x1F5 JUMPI DUP1 PUSH4 0xD8F4A0AA EQ PUSH2 0x208 JUMPI DUP1 PUSH4 0xE0DCD3C3 EQ PUSH2 0x21B JUMPI PUSH1 0x0 DUP1 REVERT JUMPDEST DUP1 PUSH4 0x442AAE79 GT PUSH2 0xDE JUMPI DUP1 PUSH4 0x442AAE79 EQ PUSH2 0x19C JUMPI DUP1 PUSH4 0x57AE3389 EQ PUSH2 0x1AF JUMPI DUP1 PUSH4 0x75CEEBD0 EQ PUSH2 0x1C4 JUMPI DUP1 PUSH4 0xA7ED2A79 EQ PUSH2 0x1D7 JUMPI PUSH1 0x0 DUP1 REVERT JUMPDEST DUP1 PUSH4 0x40141E5 EQ PUSH2 0x110 JUMPI DUP1 PUSH4 0xC340A24 EQ PUSH2 0x148 JUMPI DUP1 PUSH4 0x2AF31283 EQ PUSH2 0x15B JUMPI DUP1 PUSH4 0x2E191ED7 EQ PUSH2 0x17B JUMPI JUMPDEST PUSH1 0x0 DUP1 REVERT JUMPDEST PUSH2 0x12B PUSH20 0xC02AAA39B223FE8D0A0E5C4F27EAD9083C756CC2 DUP2 JUMP JUMPDEST PUSH1 0x40 MLOAD PUSH1 0x1 PUSH1 0x1 PUSH1 0xA0 SHL SUB SWAP1 SWAP2 AND DUP2 MSTORE PUSH1 0x20 ADD JUMPDEST PUSH1 0x40 MLOAD DUP1 SWAP2 SUB SWAP1 RETURN JUMPDEST PUSH1 0x0 SLOAD PUSH2 0x12B SWAP1 PUSH1 0x1 PUSH1 0x1 PUSH1 0xA0 SHL SUB AND DUP2 JUMP JUMPDEST PUSH2 0x16E PUSH2 0x169 CALLDATASIZE PUSH1 0x4 PUSH2 0x1793 JUMP JUMPDEST PUSH2 0x281 JUMP JUMPDEST PUSH1 0x40 MLOAD PUSH2 0x13F SWAP2 SWAP1 PUSH2 0x1830 JUMP JUMPDEST PUSH2 0x18E PUSH2 0x189 CALLDATASIZE PUSH1 0x4 PUSH2 0x18DA JUMP JUMPDEST PUSH2 0x593 JUMP JUMPDEST PUSH1 0x40 MLOAD SWAP1 DUP2 MSTORE PUSH1 0x20 ADD PUSH2 0x13F JUMP JUMPDEST PUSH1 0x2 SLOAD PUSH2 0x12B SWAP1 PUSH1 0x1 PUSH1 0x1 PUSH1 0xA0 SHL SUB AND DUP2 JUMP JUMPDEST PUSH2 0x1C2 PUSH2 0x1BD CALLDATASIZE PUSH1 0x4 PUSH2 0x193E JUMP JUMPDEST PUSH2 0x6B2 JUMP JUMPDEST STOP JUMPDEST PUSH2 0x1C2 PUSH2 0x1D2 CALLDATASIZE PUSH1 0x4 PUSH2 0x1957 JUMP JUMPDEST PUSH2 0x777 JUMP JUMPDEST PUSH2 0x18E PUSH9 0x2B5E3AF16B1880000 DUP2 JUMP JUMPDEST PUSH2 0x18E PUSH7 0x470DE4DF820000 DUP2 JUMP JUMPDEST PUSH1 0x1 SLOAD PUSH2 0x12B SWAP1 PUSH1 0x1 PUSH1 0x1 PUSH1 0xA0 SHL SUB AND DUP2 JUMP JUMPDEST PUSH2 0x1C2 PUSH2 0x216 CALLDATASIZE PUSH1 0x4 PUSH2 0x1957 JUMP JUMPDEST PUSH2 0x809 JUMP JUMPDEST PUSH2 0x223 PUSH2 0x894 JUMP JUMPDEST PUSH1 0x40 MLOAD PUSH2 0x13F SWAP2 SWAP1 PUSH2 0x1972 JUMP JUMPDEST PUSH2 0x18E PUSH1 0x3 SLOAD DUP2 JUMP JUMPDEST PUSH2 0x1C2 PUSH2 0x247 CALLDATASIZE PUSH1 0x4 PUSH2 0x1957 JUMP JUMPDEST PUSH2 0x8A5 JUMP JUMPDEST PUSH2 0x1C2 PUSH2 0x25A CALLDATASIZE PUSH1 0x4 PUSH2 0x1957 JUMP JUMPDEST PUSH2 0x930 JUMP JUMPDEST PUSH2 0x1C2 PUSH2 0x26D CALLDATASIZE PUSH1 0x4 PUSH2 0x1957 JUMP JUMPDEST PUSH2 0x9D7 JUMP JUMPDEST PUSH2 0x18E PUSH8 0x16345785D8A0000 DUP2 JUMP JUMPDEST DUP1 MLOAD PUSH1 0x40 DUP1 MLOAD DUP1 DUP3 ADD SWAP1 SWAP2 MSTORE PUSH1 0x2 DUP2 MSTORE PUSH2 0x3331 PUSH1 0xF0 SHL PUSH1 0x20 DUP3 ADD MSTORE PUSH1 0x60 SWAP2 SWAP1 PUSH1 0x1 DUP3 GT PUSH2 0x2CA JUMPI PUSH1 0x40 MLOAD PUSH3 0x461BCD PUSH1 0xE5 SHL DUP2 MSTORE PUSH1 0x4 ADD PUSH2 0x2C1 SWAP2 SWAP1 PUSH2 0x19B3 JUMP JUMPDEST PUSH1 0x40 MLOAD DUP1 SWAP2 SUB SWAP1 REVERT JUMPDEST POP PUSH1 0x0 DUP2 PUSH8 0xFFFFFFFFFFFFFFFF DUP2 GT ISZERO PUSH2 0x2E6 JUMPI PUSH2 0x2E6 PUSH2 0x170C JUMP JUMPDEST PUSH1 0x40 MLOAD SWAP1 DUP1 DUP3 MSTORE DUP1 PUSH1 0x20 MUL PUSH1 0x20 ADD DUP3 ADD PUSH1 0x40 MSTORE DUP1 ISZERO PUSH2 0x30F JUMPI DUP2 PUSH1 0x20 ADD PUSH1 0x20 DUP3 MUL DUP1 CALLDATASIZE DUP4 CALLDATACOPY ADD SWAP1 POP JUMPDEST POP SWAP1 POP PUSH1 0x0 DUP1 JUMPDEST DUP4 DUP2 LT ISZERO PUSH2 0x44F JUMPI PUSH1 0x1 SLOAD DUP7 MLOAD PUSH1 0x1 PUSH1 0x1 PUSH1 0xA0 SHL SUB SWAP1 SWAP2 AND SWAP1 PUSH4 0x5708447D SWAP1 DUP9 SWAP1 DUP5 SWAP1 DUP2 LT PUSH2 0x347 JUMPI PUSH2 0x347 PUSH2 0x1A08 JUMP JUMPDEST PUSH1 0x20 MUL PUSH1 0x20 ADD ADD MLOAD PUSH1 0x40 MLOAD DUP3 PUSH4 0xFFFFFFFF AND PUSH1 0xE0 SHL DUP2 MSTORE PUSH1 0x4 ADD PUSH2 0x37A SWAP2 SWAP1 PUSH1 0x1 PUSH1 0x1 PUSH1 0xA0 SHL SUB SWAP2 SWAP1 SWAP2 AND DUP2 MSTORE PUSH1 0x20 ADD SWAP1 JUMP JUMPDEST PUSH1 0x20 PUSH1 0x40 MLOAD DUP1 DUP4 SUB DUP2 DUP7 GAS STATICCALL ISZERO DUP1 ISZERO PUSH2 0x397 JUMPI RETURNDATASIZE PUSH1 0x0 DUP1 RETURNDATACOPY RETURNDATASIZE PUSH1 0x0 REVERT JUMPDEST POP POP POP POP PUSH1 0x40 MLOAD RETURNDATASIZE PUSH1 0x1F NOT PUSH1 0x1F DUP3 ADD AND DUP3 ADD DUP1 PUSH1 0x40 MSTORE POP DUP2 ADD SWAP1 PUSH2 0x3BB SWAP2 SWAP1 PUSH2 0x1A1E JUMP JUMPDEST DUP4 DUP3 DUP2 MLOAD DUP2 LT PUSH2 0x3CD JUMPI PUSH2 0x3CD PUSH2 0x1A08 JUMP JUMPDEST PUSH1 0x20 MUL PUSH1 0x20 ADD ADD DUP2 DUP2 MSTORE POP POP PUSH20 0xC02AAA39B223FE8D0A0E5C4F27EAD9083C756CC2 PUSH1 0x1 PUSH1 0x1 PUSH1 0xA0 SHL SUB AND DUP7 DUP3 DUP2 MLOAD DUP2 LT PUSH2 0x409 JUMPI PUSH2 0x409 PUSH2 0x1A08 JUMP JUMPDEST PUSH1 0x20 MUL PUSH1 0x20 ADD ADD MLOAD PUSH1 0x1 PUSH1 0x1 PUSH1 0xA0 SHL SUB AND EQ ISZERO PUSH2 0x43D JUMPI DUP3 DUP2 DUP2 MLOAD DUP2 LT PUSH2 0x432 JUMPI PUSH2 0x432 PUSH2 0x1A08 JUMP JUMPDEST PUSH1 0x20 MUL PUSH1 0x20 ADD ADD MLOAD SWAP2 POP JUMPDEST DUP1 PUSH2 0x447 DUP2 PUSH2 0x1A4D JUMP JUMPDEST SWAP2 POP POP PUSH2 0x316 JUMP JUMPDEST POP PUSH1 0x0 PUSH2 0x45D DUP7 DUP6 DUP6 PUSH2 0xA62 JUMP JUMPDEST SWAP1 POP PUSH1 0x0 PUSH2 0x46B PUSH1 0x4 PUSH2 0xFBA JUMP JUMPDEST SWAP1 POP PUSH1 0x0 DUP2 PUSH8 0xFFFFFFFFFFFFFFFF DUP2 GT ISZERO PUSH2 0x488 JUMPI PUSH2 0x488 PUSH2 0x170C JUMP JUMPDEST PUSH1 0x40 MLOAD SWAP1 DUP1 DUP3 MSTORE DUP1 PUSH1 0x20 MUL PUSH1 0x20 ADD DUP3 ADD PUSH1 0x40 MSTORE DUP1 ISZERO PUSH2 0x4B1 JUMPI DUP2 PUSH1 0x20 ADD PUSH1 0x20 DUP3 MUL DUP1 CALLDATASIZE DUP4 CALLDATACOPY ADD SWAP1 POP JUMPDEST POP SWAP1 POP PUSH1 0x0 JUMPDEST DUP3 DUP2 LT ISZERO PUSH2 0x57B JUMPI PUSH1 0x0 PUSH2 0x4CC PUSH1 0x4 DUP4 PUSH2 0xFC4 JUMP JUMPDEST PUSH1 0x40 MLOAD PUSH4 0x5708447D PUSH1 0xE0 SHL DUP2 MSTORE PUSH20 0xC02AAA39B223FE8D0A0E5C4F27EAD9083C756CC2 PUSH1 0x4 DUP3 ADD MSTORE SWAP1 SWAP2 POP PUSH1 0x1 PUSH1 0x1 PUSH1 0xA0 SHL SUB DUP3 AND SWAP1 PUSH4 0x5708447D SWAP1 PUSH1 0x24 ADD PUSH1 0x20 PUSH1 0x40 MLOAD DUP1 DUP4 SUB DUP2 DUP7 GAS STATICCALL ISZERO DUP1 ISZERO PUSH2 0x527 JUMPI RETURNDATASIZE PUSH1 0x0 DUP1 RETURNDATACOPY RETURNDATASIZE PUSH1 0x0 REVERT JUMPDEST POP POP POP POP PUSH1 0x40 MLOAD RETURNDATASIZE PUSH1 0x1F NOT PUSH1 0x1F DUP3 ADD AND DUP3 ADD DUP1 PUSH1 0x40 MSTORE POP DUP2 ADD SWAP1 PUSH2 0x54B SWAP2 SWAP1 PUSH2 0x1A1E JUMP JUMPDEST DUP4 DUP4 DUP2 MLOAD DUP2 LT PUSH2 0x55D JUMPI PUSH2 0x55D PUSH2 0x1A08 JUMP JUMPDEST PUSH1 0x20 SWAP1 DUP2 MUL SWAP2 SWAP1 SWAP2 ADD ADD MSTORE POP DUP1 PUSH2 0x573 DUP2 PUSH2 0x1A4D JUMP JUMPDEST SWAP2 POP POP PUSH2 0x4B7 JUMP JUMPDEST POP PUSH2 0x587 DUP5 DUP3 DUP6 PUSH2 0xFD7 JUMP JUMPDEST POP SWAP3 SWAP7 SWAP6 POP POP POP POP POP POP JUMP JUMPDEST PUSH1 0x0 DUP1 DUP3 MLOAD PUSH1 0x0 EQ ISZERO PUSH2 0x5B1 JUMPI PUSH2 0x5A9 DUP5 PUSH2 0x1041 JUMP JUMPDEST SWAP2 POP POP PUSH2 0x6AC JUMP JUMPDEST PUSH2 0x5BA DUP4 PUSH2 0x10EE JUMP JUMPDEST SWAP1 POP PUSH1 0x0 DUP5 MLOAD PUSH1 0x1 PUSH2 0x5CC SWAP2 SWAP1 PUSH2 0x1A68 JUMP JUMPDEST PUSH8 0xFFFFFFFFFFFFFFFF DUP2 GT ISZERO PUSH2 0x5E4 JUMPI PUSH2 0x5E4 PUSH2 0x170C JUMP JUMPDEST PUSH1 0x40 MLOAD SWAP1 DUP1 DUP3 MSTORE DUP1 PUSH1 0x20 MUL PUSH1 0x20 ADD DUP3 ADD PUSH1 0x40 MSTORE DUP1 ISZERO PUSH2 0x60D JUMPI DUP2 PUSH1 0x20 ADD PUSH1 0x20 DUP3 MUL DUP1 CALLDATASIZE DUP4 CALLDATACOPY ADD SWAP1 POP JUMPDEST POP SWAP1 POP DUP2 DUP2 PUSH1 0x1 DUP4 MLOAD PUSH2 0x620 SWAP2 SWAP1 PUSH2 0x1A80 JUMP JUMPDEST DUP2 MLOAD DUP2 LT PUSH2 0x630 JUMPI PUSH2 0x630 PUSH2 0x1A08 JUMP JUMPDEST PUSH1 0x20 MUL PUSH1 0x20 ADD ADD DUP2 DUP2 MSTORE POP POP PUSH1 0x0 JUMPDEST PUSH1 0x1 DUP3 MLOAD PUSH2 0x64D SWAP2 SWAP1 PUSH2 0x1A80 JUMP JUMPDEST DUP2 LT ISZERO PUSH2 0x69D JUMPI DUP6 DUP2 DUP2 MLOAD DUP2 LT PUSH2 0x666 JUMPI PUSH2 0x666 PUSH2 0x1A08 JUMP JUMPDEST PUSH1 0x20 MUL PUSH1 0x20 ADD ADD MLOAD DUP3 DUP3 DUP2 MLOAD DUP2 LT PUSH2 0x680 JUMPI PUSH2 0x680 PUSH2 0x1A08 JUMP JUMPDEST PUSH1 0x20 SWAP1 DUP2 MUL SWAP2 SWAP1 SWAP2 ADD ADD MSTORE DUP1 PUSH2 0x695 DUP2 PUSH2 0x1A4D JUMP JUMPDEST SWAP2 POP POP PUSH2 0x63F JUMP JUMPDEST POP PUSH2 0x6A7 DUP2 PUSH2 0x1041 JUMP JUMPDEST SWAP3 POP POP POP JUMPDEST SWAP3 SWAP2 POP POP JUMP JUMPDEST PUSH1 0x0 SLOAD PUSH1 0x40 DUP1 MLOAD DUP1 DUP3 ADD SWAP1 SWAP2 MSTORE PUSH1 0x2 DUP2 MSTORE PUSH2 0x333 PUSH1 0xF4 SHL PUSH1 0x20 DUP3 ADD MSTORE SWAP1 PUSH1 0x1 PUSH1 0x1 PUSH1 0xA0 SHL SUB AND CALLER EQ PUSH2 0x6F7 JUMPI PUSH1 0x40 MLOAD PUSH3 0x461BCD PUSH1 0xE5 SHL DUP2 MSTORE PUSH1 0x4 ADD PUSH2 0x2C1 SWAP2 SWAP1 PUSH2 0x19B3 JUMP JUMPDEST POP PUSH1 0x40 DUP1 MLOAD DUP1 DUP3 ADD SWAP1 SWAP2 MSTORE PUSH1 0x2 DUP2 MSTORE PUSH2 0x3331 PUSH1 0xF0 SHL PUSH1 0x20 DUP3 ADD MSTORE DUP2 PUSH2 0x72F JUMPI PUSH1 0x40 MLOAD PUSH3 0x461BCD PUSH1 0xE5 SHL DUP2 MSTORE PUSH1 0x4 ADD PUSH2 0x2C1 SWAP2 SWAP1 PUSH2 0x19B3 JUMP JUMPDEST POP PUSH1 0x40 DUP1 MLOAD DUP1 DUP3 ADD SWAP1 SWAP2 MSTORE PUSH1 0x2 DUP2 MSTORE PUSH2 0x3331 PUSH1 0xF0 SHL PUSH1 0x20 DUP3 ADD MSTORE PUSH8 0x16345785D8A0000 DUP3 LT PUSH2 0x771 JUMPI PUSH1 0x40 MLOAD PUSH3 0x461BCD PUSH1 0xE5 SHL DUP2 MSTORE PUSH1 0x4 ADD PUSH2 0x2C1 SWAP2 SWAP1 PUSH2 0x19B3 JUMP JUMPDEST POP PUSH1 0x3 SSTORE JUMP JUMPDEST PUSH1 0x0 SLOAD PUSH1 0x40 DUP1 MLOAD DUP1 DUP3 ADD SWAP1 SWAP2 MSTORE PUSH1 0x2 DUP2 MSTORE PUSH2 0x333 PUSH1 0xF4 SHL PUSH1 0x20 DUP3 ADD MSTORE SWAP1 PUSH1 0x1 PUSH1 0x1 PUSH1 0xA0 SHL SUB AND CALLER EQ PUSH2 0x7BC JUMPI PUSH1 0x40 MLOAD PUSH3 0x461BCD PUSH1 0xE5 SHL DUP2 MSTORE PUSH1 0x4 ADD PUSH2 0x2C1 SWAP2 SWAP1 PUSH2 0x19B3 JUMP JUMPDEST POP PUSH2 0x7C8 PUSH1 0x4 DUP3 PUSH2 0x11F5 JUMP JUMPDEST POP PUSH1 0x40 MLOAD PUSH1 0x1 PUSH1 0x1 PUSH1 0xA0 SHL SUB DUP3 AND DUP2 MSTORE PUSH32 0xB7F10B8974F181778E2544B4188359B499DA116029E96C6A05BED5CDECEE1064 SWAP1 PUSH1 0x20 ADD JUMPDEST PUSH1 0x40 MLOAD DUP1 SWAP2 SUB SWAP1 LOG1 POP JUMP JUMPDEST PUSH1 0x0 SLOAD PUSH1 0x40 DUP1 MLOAD DUP1 DUP3 ADD SWAP1 SWAP2 MSTORE PUSH1 0x2 DUP2 MSTORE PUSH2 0x333 PUSH1 0xF4 SHL PUSH1 0x20 DUP3 ADD MSTORE SWAP1 PUSH1 0x1 PUSH1 0x1 PUSH1 0xA0 SHL SUB AND CALLER EQ PUSH2 0x84E JUMPI PUSH1 0x40 MLOAD PUSH3 0x461BCD PUSH1 0xE5 SHL DUP2 MSTORE PUSH1 0x4 ADD PUSH2 0x2C1 SWAP2 SWAP1 PUSH2 0x19B3 JUMP JUMPDEST POP PUSH2 0x85A PUSH1 0x6 DUP3 PUSH2 0x120A JUMP JUMPDEST POP PUSH1 0x40 MLOAD PUSH1 0x1 PUSH1 0x1 PUSH1 0xA0 SHL SUB DUP3 AND DUP2 MSTORE PUSH32 0x612AC93AD02AC7669D13BE8835BB33D5C6D42BB4C46F0CDB717681EBD2B64557 SWAP1 PUSH1 0x20 ADD PUSH2 0x7FE JUMP JUMPDEST PUSH1 0x60 PUSH2 0x8A0 PUSH1 0x6 PUSH2 0x121F JUMP JUMPDEST SWAP1 POP SWAP1 JUMP JUMPDEST PUSH1 0x0 SLOAD PUSH1 0x40 DUP1 MLOAD DUP1 DUP3 ADD SWAP1 SWAP2 MSTORE PUSH1 0x2 DUP2 MSTORE PUSH2 0x333 PUSH1 0xF4 SHL PUSH1 0x20 DUP3 ADD MSTORE SWAP1 PUSH1 0x1 PUSH1 0x1 PUSH1 0xA0 SHL SUB AND CALLER EQ PUSH2 0x8EA JUMPI PUSH1 0x40 MLOAD PUSH3 0x461BCD PUSH1 0xE5 SHL DUP2 MSTORE PUSH1 0x4 ADD PUSH2 0x2C1 SWAP2 SWAP1 PUSH2 0x19B3 JUMP JUMPDEST POP PUSH2 0x8F6 PUSH1 0x4 DUP3 PUSH2 0x120A JUMP JUMPDEST POP PUSH1 0x40 MLOAD PUSH1 0x1 PUSH1 0x1 PUSH1 0xA0 SHL SUB DUP3 AND DUP2 MSTORE PUSH32 0x8696120FB7656955EC406C2959998DE0AA9798518606D5AFB5F36789F522DFEA SWAP1 PUSH1 0x20 ADD PUSH2 0x7FE JUMP JUMPDEST PUSH1 0x0 SLOAD PUSH1 0x40 DUP1 MLOAD DUP1 DUP3 ADD SWAP1 SWAP2 MSTORE PUSH1 0x2 DUP2 MSTORE PUSH2 0x333 PUSH1 0xF4 SHL PUSH1 0x20 DUP3 ADD MSTORE SWAP1 PUSH1 0x1 PUSH1 0x1 PUSH1 0xA0 SHL SUB AND CALLER EQ PUSH2 0x975 JUMPI PUSH1 0x40 MLOAD PUSH3 0x461BCD PUSH1 0xE5 SHL DUP2 MSTORE PUSH1 0x4 ADD PUSH2 0x2C1 SWAP2 SWAP1 PUSH2 0x19B3 JUMP JUMPDEST POP PUSH1 0x0 DUP1 SLOAD PUSH1 0x1 PUSH1 0x1 PUSH1 0xA0 SHL SUB DUP4 DUP2 AND PUSH1 0x1 PUSH1 0x1 PUSH1 0xA0 SHL SUB NOT DUP4 AND DUP2 OR SWAP1 SWAP4 SSTORE PUSH1 0x40 DUP1 MLOAD SWAP2 SWAP1 SWAP3 AND DUP1 DUP3 MSTORE PUSH1 0x20 DUP3 ADD SWAP4 SWAP1 SWAP4 MSTORE PUSH32 0xDE4B3F61490B74C0ED6237523974FE299126BBBF8A8A7482FD220104C59B0C84 SWAP2 ADD PUSH1 0x40 MLOAD DUP1 SWAP2 SUB SWAP1 LOG1 POP POP JUMP JUMPDEST PUSH1 0x0 SLOAD PUSH1 0x40 DUP1 MLOAD DUP1 DUP3 ADD SWAP1 SWAP2 MSTORE PUSH1 0x2 DUP2 MSTORE PUSH2 0x333 PUSH1 0xF4 SHL PUSH1 0x20 DUP3 ADD MSTORE SWAP1 PUSH1 0x1 PUSH1 0x1 PUSH1 0xA0 SHL SUB AND CALLER EQ PUSH2 0xA1C JUMPI PUSH1 0x40 MLOAD PUSH3 0x461BCD PUSH1 0xE5 SHL DUP2 MSTORE PUSH1 0x4 ADD PUSH2 0x2C1 SWAP2 SWAP1 PUSH2 0x19B3 JUMP JUMPDEST POP PUSH2 0xA28 PUSH1 0x6 DUP3 PUSH2 0x11F5 JUMP JUMPDEST POP PUSH1 0x40 MLOAD PUSH1 0x1 PUSH1 0x1 PUSH1 0xA0 SHL SUB DUP3 AND DUP2 MSTORE PUSH32 0xFAB625E04BC6EEEF38AAF5C2E48B1F1953CF5183297F4115F0DA9E906D4BF3AC SWAP1 PUSH1 0x20 ADD PUSH2 0x7FE JUMP JUMPDEST PUSH1 0x60 PUSH1 0x0 DUP4 PUSH8 0xFFFFFFFFFFFFFFFF DUP2 GT ISZERO PUSH2 0xA7F JUMPI PUSH2 0xA7F PUSH2 0x170C JUMP JUMPDEST PUSH1 0x40 MLOAD SWAP1 DUP1 DUP3 MSTORE DUP1 PUSH1 0x20 MUL PUSH1 0x20 ADD DUP3 ADD PUSH1 0x40 MSTORE DUP1 ISZERO PUSH2 0xAA8 JUMPI DUP2 PUSH1 0x20 ADD PUSH1 0x20 DUP3 MUL DUP1 CALLDATASIZE DUP4 CALLDATACOPY ADD SWAP1 POP JUMPDEST POP SWAP1 POP PUSH1 0x0 PUSH2 0xAB7 PUSH1 0x6 PUSH2 0xFBA JUMP JUMPDEST PUSH8 0xFFFFFFFFFFFFFFFF DUP2 GT ISZERO PUSH2 0xACF JUMPI PUSH2 0xACF PUSH2 0x170C JUMP JUMPDEST PUSH1 0x40 MLOAD SWAP1 DUP1 DUP3 MSTORE DUP1 PUSH1 0x20 MUL PUSH1 0x20 ADD DUP3 ADD PUSH1 0x40 MSTORE DUP1 ISZERO PUSH2 0xAF8 JUMPI DUP2 PUSH1 0x20 ADD PUSH1 0x20 DUP3 MUL DUP1 CALLDATASIZE DUP4 CALLDATACOPY ADD SWAP1 POP JUMPDEST POP SWAP1 POP PUSH1 0x0 DUP1 JUMPDEST PUSH1 0x1 DUP9 MLOAD PUSH2 0xB0D SWAP2 SWAP1 PUSH2 0x1A80 JUMP JUMPDEST DUP2 LT ISZERO PUSH2 0xF12 JUMPI DUP4 DUP2 DUP2 MLOAD DUP2 LT PUSH2 0xB26 JUMPI PUSH2 0xB26 PUSH2 0x1A08 JUMP JUMPDEST PUSH1 0x20 MUL PUSH1 0x20 ADD ADD MLOAD ISZERO PUSH2 0xB38 JUMPI PUSH2 0xF00 JUMP JUMPDEST PUSH1 0x0 DUP1 JUMPDEST DUP10 MLOAD DUP2 LT ISZERO PUSH2 0xEA1 JUMPI DUP1 DUP4 EQ DUP1 PUSH2 0xC0E JUMPI POP PUSH1 0x2 SLOAD DUP11 MLOAD PUSH1 0x1 PUSH1 0x1 PUSH1 0xA0 SHL SUB SWAP1 SWAP2 AND SWAP1 PUSH4 0x9446994A SWAP1 DUP13 SWAP1 DUP7 SWAP1 DUP2 LT PUSH2 0xB77 JUMPI PUSH2 0xB77 PUSH2 0x1A08 JUMP JUMPDEST PUSH1 0x20 MUL PUSH1 0x20 ADD ADD MLOAD DUP13 DUP5 DUP2 MLOAD DUP2 LT PUSH2 0xB91 JUMPI PUSH2 0xB91 PUSH2 0x1A08 JUMP JUMPDEST PUSH1 0x20 MUL PUSH1 0x20 ADD ADD MLOAD PUSH1 0x40 MLOAD DUP4 PUSH4 0xFFFFFFFF AND PUSH1 0xE0 SHL DUP2 MSTORE PUSH1 0x4 ADD PUSH2 0xBCB SWAP3 SWAP2 SWAP1 PUSH1 0x1 PUSH1 0x1 PUSH1 0xA0 SHL SUB SWAP3 DUP4 AND DUP2 MSTORE SWAP2 AND PUSH1 0x20 DUP3 ADD MSTORE PUSH1 0x40 ADD SWAP1 JUMP JUMPDEST PUSH1 0x20 PUSH1 0x40 MLOAD DUP1 DUP4 SUB DUP2 DUP7 GAS STATICCALL ISZERO DUP1 ISZERO PUSH2 0xBE8 JUMPI RETURNDATASIZE PUSH1 0x0 DUP1 RETURNDATACOPY RETURNDATASIZE PUSH1 0x0 REVERT JUMPDEST POP POP POP POP PUSH1 0x40 MLOAD RETURNDATASIZE PUSH1 0x1F NOT PUSH1 0x1F DUP3 ADD AND DUP3 ADD DUP1 PUSH1 0x40 MSTORE POP DUP2 ADD SWAP1 PUSH2 0xC0C SWAP2 SWAP1 PUSH2 0x1A97 JUMP JUMPDEST ISZERO JUMPDEST ISZERO PUSH2 0xC18 JUMPI PUSH2 0xE8F JUMP JUMPDEST PUSH1 0x2 SLOAD DUP11 MLOAD PUSH1 0x0 SWAP2 PUSH1 0x1 PUSH1 0x1 PUSH1 0xA0 SHL SUB AND SWAP1 PUSH4 0x9B56E6A7 SWAP1 DUP14 SWAP1 DUP8 SWAP1 DUP2 LT PUSH2 0xC42 JUMPI PUSH2 0xC42 PUSH2 0x1A08 JUMP JUMPDEST PUSH1 0x20 MUL PUSH1 0x20 ADD ADD MLOAD DUP14 DUP6 DUP2 MLOAD DUP2 LT PUSH2 0xC5C JUMPI PUSH2 0xC5C PUSH2 0x1A08 JUMP JUMPDEST PUSH1 0x20 MUL PUSH1 0x20 ADD ADD MLOAD PUSH1 0x40 MLOAD DUP4 PUSH4 0xFFFFFFFF AND PUSH1 0xE0 SHL DUP2 MSTORE PUSH1 0x4 ADD PUSH2 0xC96 SWAP3 SWAP2 SWAP1 PUSH1 0x1 PUSH1 0x1 PUSH1 0xA0 SHL SUB SWAP3 DUP4 AND DUP2 MSTORE SWAP2 AND PUSH1 0x20 DUP3 ADD MSTORE PUSH1 0x40 ADD SWAP1 JUMP JUMPDEST PUSH1 0x20 PUSH1 0x40 MLOAD DUP1 DUP4 SUB DUP2 DUP7 GAS STATICCALL ISZERO DUP1 ISZERO PUSH2 0xCB3 JUMPI RETURNDATASIZE PUSH1 0x0 DUP1 RETURNDATACOPY RETURNDATASIZE PUSH1 0x0 REVERT JUMPDEST POP POP POP POP PUSH1 0x40 MLOAD RETURNDATASIZE PUSH1 0x1F NOT PUSH1 0x1F DUP3 ADD AND DUP3 ADD DUP1 PUSH1 0x40 MSTORE POP DUP2 ADD SWAP1 PUSH2 0xCD7 SWAP2 SWAP1 PUSH2 0x1A1E JUMP JUMPDEST SWAP1 POP PUSH20 0xC02AAA39B223FE8D0A0E5C4F27EAD9083C756CC2 PUSH1 0x1 PUSH1 0x1 PUSH1 0xA0 SHL SUB AND DUP12 DUP6 DUP2 MLOAD DUP2 LT PUSH2 0xD09 JUMPI PUSH2 0xD09 PUSH2 0x1A08 JUMP JUMPDEST PUSH1 0x20 MUL PUSH1 0x20 ADD ADD MLOAD PUSH1 0x1 PUSH1 0x1 PUSH1 0xA0 SHL SUB AND EQ DUP1 ISZERO PUSH2 0xD4F JUMPI POP PUSH2 0xD4F DUP12 DUP4 DUP2 MLOAD DUP2 LT PUSH2 0xD37 JUMPI PUSH2 0xD37 PUSH2 0x1A08 JUMP JUMPDEST PUSH1 0x20 MUL PUSH1 0x20 ADD ADD MLOAD PUSH1 0x6 PUSH2 0x12CE SWAP1 SWAP2 SWAP1 PUSH4 0xFFFFFFFF AND JUMP JUMPDEST ISZERO PUSH2 0xD84 JUMPI DUP1 DUP7 DUP7 DUP2 MLOAD DUP2 LT PUSH2 0xD67 JUMPI PUSH2 0xD67 PUSH2 0x1A08 JUMP JUMPDEST PUSH1 0x20 SWAP1 DUP2 MUL SWAP2 SWAP1 SWAP2 ADD ADD MSTORE DUP5 PUSH2 0xD7C DUP2 PUSH2 0x1A4D JUMP JUMPDEST SWAP6 POP POP PUSH2 0xE24 JUMP JUMPDEST PUSH20 0xC02AAA39B223FE8D0A0E5C4F27EAD9083C756CC2 PUSH1 0x1 PUSH1 0x1 PUSH1 0xA0 SHL SUB AND DUP12 DUP4 DUP2 MLOAD DUP2 LT PUSH2 0xDB4 JUMPI PUSH2 0xDB4 PUSH2 0x1A08 JUMP JUMPDEST PUSH1 0x20 MUL PUSH1 0x20 ADD ADD MLOAD PUSH1 0x1 PUSH1 0x1 PUSH1 0xA0 SHL SUB AND EQ DUP1 ISZERO PUSH2 0xDE2 JUMPI POP PUSH2 0xDE2 DUP12 DUP6 DUP2 MLOAD DUP2 LT PUSH2 0xD37 JUMPI PUSH2 0xD37 PUSH2 0x1A08 JUMP JUMPDEST ISZERO PUSH2 0xE24 JUMPI PUSH2 0xDF9 PUSH8 0xDE0B6B3A7640000 DUP3 PUSH2 0x12F0 JUMP JUMPDEST DUP7 DUP7 DUP2 MLOAD DUP2 LT PUSH2 0xE0B JUMPI PUSH2 0xE0B PUSH2 0x1A08 JUMP JUMPDEST PUSH1 0x20 SWAP1 DUP2 MUL SWAP2 SWAP1 SWAP2 ADD ADD MSTORE DUP5 PUSH2 0xE20 DUP2 PUSH2 0x1A4D JUMP JUMPDEST SWAP6 POP POP JUMPDEST PUSH2 0xE61 DUP10 DUP6 DUP2 MLOAD DUP2 LT PUSH2 0xE39 JUMPI PUSH2 0xE39 PUSH2 0x1A08 JUMP JUMPDEST PUSH1 0x20 MUL PUSH1 0x20 ADD ADD MLOAD DUP11 DUP5 DUP2 MLOAD DUP2 LT PUSH2 0xE53 JUMPI PUSH2 0xE53 PUSH2 0x1A08 JUMP JUMPDEST PUSH1 0x20 MUL PUSH1 0x20 ADD ADD MLOAD DUP4 PUSH2 0x1358 JUMP JUMPDEST PUSH1 0x1 DUP8 DUP4 DUP2 MLOAD DUP2 LT PUSH2 0xE75 JUMPI PUSH2 0xE75 PUSH2 0x1A08 JUMP JUMPDEST SWAP2 ISZERO ISZERO PUSH1 0x20 SWAP3 DUP4 MUL SWAP2 SWAP1 SWAP2 ADD SWAP1 SWAP2 ADD MSTORE POP PUSH1 0x1 SWAP2 POP PUSH2 0xEA1 JUMP JUMPDEST DUP1 PUSH2 0xE99 DUP2 PUSH2 0x1A4D JUMP JUMPDEST SWAP2 POP POP PUSH2 0xB3C JUMP JUMPDEST POP PUSH1 0x40 DUP1 MLOAD DUP1 DUP3 ADD SWAP1 SWAP2 MSTORE PUSH1 0x2 DUP2 MSTORE PUSH2 0x343 PUSH1 0xF4 SHL PUSH1 0x20 DUP3 ADD MSTORE DUP2 PUSH2 0xED9 JUMPI PUSH1 0x40 MLOAD PUSH3 0x461BCD PUSH1 0xE5 SHL DUP2 MSTORE PUSH1 0x4 ADD PUSH2 0x2C1 SWAP2 SWAP1 PUSH2 0x19B3 JUMP JUMPDEST POP PUSH1 0x1 DUP6 DUP4 DUP2 MLOAD DUP2 LT PUSH2 0xEEE JUMPI PUSH2 0xEEE PUSH2 0x1A08 JUMP JUMPDEST SWAP2 ISZERO ISZERO PUSH1 0x20 SWAP3 DUP4 MUL SWAP2 SWAP1 SWAP2 ADD SWAP1 SWAP2 ADD MSTORE POP JUMPDEST DUP1 PUSH2 0xF0A DUP2 PUSH2 0x1A4D JUMP JUMPDEST SWAP2 POP POP PUSH2 0xAFF JUMP JUMPDEST POP PUSH1 0x0 DUP2 PUSH8 0xFFFFFFFFFFFFFFFF DUP2 GT ISZERO PUSH2 0xF2E JUMPI PUSH2 0xF2E PUSH2 0x170C JUMP JUMPDEST PUSH1 0x40 MLOAD SWAP1 DUP1 DUP3 MSTORE DUP1 PUSH1 0x20 MUL PUSH1 0x20 ADD DUP3 ADD PUSH1 0x40 MSTORE DUP1 ISZERO PUSH2 0xF57 JUMPI DUP2 PUSH1 0x20 ADD PUSH1 0x20 DUP3 MUL DUP1 CALLDATASIZE DUP4 CALLDATACOPY ADD SWAP1 POP JUMPDEST POP SWAP1 POP PUSH1 0x0 JUMPDEST DUP3 DUP2 LT ISZERO PUSH2 0xFAE JUMPI DUP4 DUP2 DUP2 MLOAD DUP2 LT PUSH2 0xF77 JUMPI PUSH2 0xF77 PUSH2 0x1A08 JUMP JUMPDEST PUSH1 0x20 MUL PUSH1 0x20 ADD ADD MLOAD DUP3 DUP3 DUP2 MLOAD DUP2 LT PUSH2 0xF91 JUMPI PUSH2 0xF91 PUSH2 0x1A08 JUMP JUMPDEST PUSH1 0x20 SWAP1 DUP2 MUL SWAP2 SWAP1 SWAP2 ADD ADD MSTORE DUP1 PUSH2 0xFA6 DUP2 PUSH2 0x1A4D JUMP JUMPDEST SWAP2 POP POP PUSH2 0xF5D JUMP JUMPDEST POP SWAP8 SWAP7 POP POP POP POP POP POP POP JUMP JUMPDEST PUSH1 0x0 PUSH2 0x6AC DUP3 SLOAD SWAP1 JUMP JUMPDEST PUSH1 0x0 PUSH2 0xFD0 DUP4 DUP4 PUSH2 0x13CA JUMP JUMPDEST SWAP4 SWAP3 POP POP POP JUMP JUMPDEST PUSH1 0x0 PUSH2 0xFE3 DUP4 DUP4 PUSH2 0x593 JUMP JUMPDEST SWAP1 POP PUSH1 0x0 PUSH2 0xFF1 DUP6 DUP4 PUSH2 0x13F4 JUMP JUMPDEST SWAP1 POP PUSH9 0x2B5E3AF16B1880000 DUP2 GT ISZERO PUSH1 0x40 MLOAD DUP1 PUSH1 0x40 ADD PUSH1 0x40 MSTORE DUP1 PUSH1 0x2 DUP2 MSTORE PUSH1 0x20 ADD PUSH2 0x3435 PUSH1 0xF0 SHL DUP2 MSTORE POP SWAP1 PUSH2 0x1039 JUMPI PUSH1 0x40 MLOAD PUSH3 0x461BCD PUSH1 0xE5 SHL DUP2 MSTORE PUSH1 0x4 ADD PUSH2 0x2C1 SWAP2 SWAP1 PUSH2 0x19B3 JUMP JUMPDEST POP POP POP POP POP POP JUMP JUMPDEST PUSH1 0x0 PUSH2 0x104C DUP3 PUSH2 0x1417 JUMP JUMPDEST POP PUSH1 0x2 DUP3 MLOAD PUSH2 0x105B SWAP2 SWAP1 PUSH2 0x1ACF JUMP JUMPDEST ISZERO PUSH2 0x108C JUMPI DUP2 PUSH1 0x2 DUP4 MLOAD PUSH2 0x106F SWAP2 SWAP1 PUSH2 0x1AE3 JUMP JUMPDEST DUP2 MLOAD DUP2 LT PUSH2 0x107F JUMPI PUSH2 0x107F PUSH2 0x1A08 JUMP JUMPDEST PUSH1 0x20 MUL PUSH1 0x20 ADD ADD MLOAD PUSH2 0x6AC JUMP JUMPDEST PUSH2 0x6AC DUP3 PUSH1 0x1 PUSH1 0x2 DUP6 MLOAD PUSH2 0x10A0 SWAP2 SWAP1 PUSH2 0x1AE3 JUMP JUMPDEST PUSH2 0x10AA SWAP2 SWAP1 PUSH2 0x1A80 JUMP JUMPDEST DUP2 MLOAD DUP2 LT PUSH2 0x10BA JUMPI PUSH2 0x10BA PUSH2 0x1A08 JUMP JUMPDEST PUSH1 0x20 MUL PUSH1 0x20 ADD ADD MLOAD DUP4 PUSH1 0x2 DUP6 MLOAD PUSH2 0x10D1 SWAP2 SWAP1 PUSH2 0x1AE3 JUMP JUMPDEST DUP2 MLOAD DUP2 LT PUSH2 0x10E1 JUMPI PUSH2 0x10E1 PUSH2 0x1A08 JUMP JUMPDEST PUSH1 0x20 MUL PUSH1 0x20 ADD ADD MLOAD PUSH2 0x1436 JUMP JUMPDEST PUSH1 0x0 DUP1 DUP3 PUSH1 0x0 DUP2 MLOAD DUP2 LT PUSH2 0x1104 JUMPI PUSH2 0x1104 PUSH2 0x1A08 JUMP JUMPDEST PUSH1 0x20 SWAP1 DUP2 MUL SWAP2 SWAP1 SWAP2 ADD ADD MLOAD SWAP1 POP PUSH1 0x0 NOT PUSH1 0x1 JUMPDEST DUP5 MLOAD DUP2 LT ISZERO PUSH2 0x11B5 JUMPI DUP3 DUP6 DUP3 DUP2 MLOAD DUP2 LT PUSH2 0x1133 JUMPI PUSH2 0x1133 PUSH2 0x1A08 JUMP JUMPDEST PUSH1 0x20 MUL PUSH1 0x20 ADD ADD MLOAD LT ISZERO PUSH2 0x1165 JUMPI DUP3 SWAP2 POP DUP5 DUP2 DUP2 MLOAD DUP2 LT PUSH2 0x1156 JUMPI PUSH2 0x1156 PUSH2 0x1A08 JUMP JUMPDEST PUSH1 0x20 MUL PUSH1 0x20 ADD ADD MLOAD SWAP3 POP PUSH2 0x11A3 JUMP JUMPDEST DUP2 DUP6 DUP3 DUP2 MLOAD DUP2 LT PUSH2 0x1178 JUMPI PUSH2 0x1178 PUSH2 0x1A08 JUMP JUMPDEST PUSH1 0x20 MUL PUSH1 0x20 ADD ADD MLOAD LT ISZERO PUSH2 0x11A3 JUMPI DUP5 DUP2 DUP2 MLOAD DUP2 LT PUSH2 0x1198 JUMPI PUSH2 0x1198 PUSH2 0x1A08 JUMP JUMPDEST PUSH1 0x20 MUL PUSH1 0x20 ADD ADD MLOAD SWAP2 POP JUMPDEST DUP1 PUSH2 0x11AD DUP2 PUSH2 0x1A4D JUMP JUMPDEST SWAP2 POP POP PUSH2 0x1117 JUMP JUMPDEST POP DUP4 MLOAD PUSH1 0x1 EQ ISZERO PUSH2 0x11E4 JUMPI DUP4 PUSH1 0x0 DUP2 MLOAD DUP2 LT PUSH2 0x11D3 JUMPI PUSH2 0x11D3 PUSH2 0x1A08 JUMP JUMPDEST PUSH1 0x20 MUL PUSH1 0x20 ADD ADD MLOAD SWAP3 POP POP POP SWAP2 SWAP1 POP JUMP JUMPDEST DUP4 MLOAD PUSH1 0x2 EQ ISZERO PUSH2 0xFD0 JUMPI POP SWAP3 SWAP2 POP POP JUMP JUMPDEST PUSH1 0x0 PUSH2 0xFD0 DUP4 PUSH1 0x1 PUSH1 0x1 PUSH1 0xA0 SHL SUB DUP5 AND PUSH2 0x1451 JUMP JUMPDEST PUSH1 0x0 PUSH2 0xFD0 DUP4 PUSH1 0x1 PUSH1 0x1 PUSH1 0xA0 SHL SUB DUP5 AND PUSH2 0x14A0 JUMP JUMPDEST PUSH1 0x60 PUSH1 0x0 PUSH2 0x122C DUP4 PUSH2 0xFBA JUMP JUMPDEST SWAP1 POP PUSH1 0x0 DUP2 PUSH8 0xFFFFFFFFFFFFFFFF DUP2 GT ISZERO PUSH2 0x1249 JUMPI PUSH2 0x1249 PUSH2 0x170C JUMP JUMPDEST PUSH1 0x40 MLOAD SWAP1 DUP1 DUP3 MSTORE DUP1 PUSH1 0x20 MUL PUSH1 0x20 ADD DUP3 ADD PUSH1 0x40 MSTORE DUP1 ISZERO PUSH2 0x1272 JUMPI DUP2 PUSH1 0x20 ADD PUSH1 0x20 DUP3 MUL DUP1 CALLDATASIZE DUP4 CALLDATACOPY ADD SWAP1 POP JUMPDEST POP SWAP1 POP PUSH1 0x0 JUMPDEST DUP3 DUP2 LT ISZERO PUSH2 0x12C6 JUMPI PUSH2 0x128A DUP6 DUP3 PUSH2 0xFC4 JUMP JUMPDEST DUP3 DUP3 DUP2 MLOAD DUP2 LT PUSH2 0x129C JUMPI PUSH2 0x129C PUSH2 0x1A08 JUMP JUMPDEST PUSH1 0x1 PUSH1 0x1 PUSH1 0xA0 SHL SUB SWAP1 SWAP3 AND PUSH1 0x20 SWAP3 DUP4 MUL SWAP2 SWAP1 SWAP2 ADD SWAP1 SWAP2 ADD MSTORE DUP1 PUSH2 0x12BE DUP2 PUSH2 0x1A4D JUMP JUMPDEST SWAP2 POP POP PUSH2 0x1278 JUMP JUMPDEST POP SWAP4 SWAP3 POP POP POP JUMP JUMPDEST PUSH1 0x1 PUSH1 0x1 PUSH1 0xA0 SHL SUB DUP2 AND PUSH1 0x0 SWAP1 DUP2 MSTORE PUSH1 0x1 DUP4 ADD PUSH1 0x20 MSTORE PUSH1 0x40 DUP2 KECCAK256 SLOAD ISZERO ISZERO PUSH2 0xFD0 JUMP JUMPDEST PUSH1 0x40 DUP1 MLOAD DUP1 DUP3 ADD SWAP1 SWAP2 MSTORE PUSH1 0x2 DUP2 MSTORE PUSH2 0x3235 PUSH1 0xF0 SHL PUSH1 0x20 DUP3 ADD MSTORE PUSH1 0x0 SWAP1 DUP3 PUSH2 0x132A JUMPI PUSH1 0x40 MLOAD PUSH3 0x461BCD PUSH1 0xE5 SHL DUP2 MSTORE PUSH1 0x4 ADD PUSH2 0x2C1 SWAP2 SWAP1 PUSH2 0x19B3 JUMP JUMPDEST POP DUP3 PUSH2 0x1338 JUMPI POP PUSH1 0x0 PUSH2 0x6AC JUMP JUMPDEST PUSH1 0x0 PUSH2 0x134C PUSH8 0xDE0B6B3A7640000 DUP6 PUSH2 0x1AF7 JUMP JUMPDEST SWAP1 POP PUSH2 0x5A9 DUP4 DUP3 PUSH2 0x1AE3 JUMP JUMPDEST PUSH1 0x0 PUSH2 0x1364 DUP5 DUP5 PUSH2 0x12F0 JUMP JUMPDEST SWAP1 POP PUSH1 0x0 PUSH2 0x1372 DUP4 DUP4 PUSH2 0x13F4 JUMP JUMPDEST SWAP1 POP PUSH1 0x0 PUSH2 0x1380 DUP3 DUP6 PUSH2 0x12F0 JUMP JUMPDEST SWAP1 POP PUSH1 0x3 SLOAD DUP2 GT ISZERO PUSH1 0x40 MLOAD DUP1 PUSH1 0x40 ADD PUSH1 0x40 MSTORE DUP1 PUSH1 0x2 DUP2 MSTORE PUSH1 0x20 ADD PUSH2 0x3431 PUSH1 0xF0 SHL DUP2 MSTORE POP SWAP1 PUSH2 0x13C1 JUMPI PUSH1 0x40 MLOAD PUSH3 0x461BCD PUSH1 0xE5 SHL DUP2 MSTORE PUSH1 0x4 ADD PUSH2 0x2C1 SWAP2 SWAP1 PUSH2 0x19B3 JUMP JUMPDEST POP POP POP POP POP POP POP JUMP JUMPDEST PUSH1 0x0 DUP3 PUSH1 0x0 ADD DUP3 DUP2 SLOAD DUP2 LT PUSH2 0x13E1 JUMPI PUSH2 0x13E1 PUSH2 0x1A08 JUMP JUMPDEST SWAP1 PUSH1 0x0 MSTORE PUSH1 0x20 PUSH1 0x0 KECCAK256 ADD SLOAD SWAP1 POP SWAP3 SWAP2 POP POP JUMP JUMPDEST PUSH1 0x0 DUP2 DUP4 LT ISZERO PUSH2 0x140D JUMPI PUSH2 0x1408 DUP4 DUP4 PUSH2 0x1A80 JUMP JUMPDEST PUSH2 0xFD0 JUMP JUMPDEST PUSH2 0xFD0 DUP3 DUP5 PUSH2 0x1A80 JUMP JUMPDEST PUSH1 0x60 PUSH2 0x1432 DUP3 PUSH1 0x0 PUSH1 0x1 DUP6 MLOAD PUSH2 0x142D SWAP2 SWAP1 PUSH2 0x1A80 JUMP JUMPDEST PUSH2 0x1593 JUMP JUMPDEST POP SWAP1 JUMP JUMPDEST PUSH1 0x0 PUSH2 0x1445 PUSH1 0x2 DUP5 DUP5 XOR PUSH2 0x1AE3 JUMP JUMPDEST PUSH2 0xFD0 SWAP1 DUP5 DUP5 AND PUSH2 0x1A68 JUMP JUMPDEST PUSH1 0x0 DUP2 DUP2 MSTORE PUSH1 0x1 DUP4 ADD PUSH1 0x20 MSTORE PUSH1 0x40 DUP2 KECCAK256 SLOAD PUSH2 0x1498 JUMPI POP DUP2 SLOAD PUSH1 0x1 DUP2 DUP2 ADD DUP5 SSTORE PUSH1 0x0 DUP5 DUP2 MSTORE PUSH1 0x20 DUP1 DUP3 KECCAK256 SWAP1 SWAP4 ADD DUP5 SWAP1 SSTORE DUP5 SLOAD DUP5 DUP3 MSTORE DUP3 DUP7 ADD SWAP1 SWAP4 MSTORE PUSH1 0x40 SWAP1 KECCAK256 SWAP2 SWAP1 SWAP2 SSTORE PUSH2 0x6AC JUMP JUMPDEST POP PUSH1 0x0 PUSH2 0x6AC JUMP JUMPDEST PUSH1 0x0 DUP2 DUP2 MSTORE PUSH1 0x1 DUP4 ADD PUSH1 0x20 MSTORE PUSH1 0x40 DUP2 KECCAK256 SLOAD DUP1 ISZERO PUSH2 0x1589 JUMPI PUSH1 0x0 PUSH2 0x14C4 PUSH1 0x1 DUP4 PUSH2 0x1A80 JUMP JUMPDEST DUP6 SLOAD SWAP1 SWAP2 POP PUSH1 0x0 SWAP1 PUSH2 0x14D8 SWAP1 PUSH1 0x1 SWAP1 PUSH2 0x1A80 JUMP JUMPDEST SWAP1 POP DUP2 DUP2 EQ PUSH2 0x153D JUMPI PUSH1 0x0 DUP7 PUSH1 0x0 ADD DUP3 DUP2 SLOAD DUP2 LT PUSH2 0x14F8 JUMPI PUSH2 0x14F8 PUSH2 0x1A08 JUMP JUMPDEST SWAP1 PUSH1 0x0 MSTORE PUSH1 0x20 PUSH1 0x0 KECCAK256 ADD SLOAD SWAP1 POP DUP1 DUP8 PUSH1 0x0 ADD DUP5 DUP2 SLOAD DUP2 LT PUSH2 0x151B JUMPI PUSH2 0x151B PUSH2 0x1A08 JUMP JUMPDEST PUSH1 0x0 SWAP2 DUP3 MSTORE PUSH1 0x20 DUP1 DUP4 KECCAK256 SWAP1 SWAP2 ADD SWAP3 SWAP1 SWAP3 SSTORE SWAP2 DUP3 MSTORE PUSH1 0x1 DUP9 ADD SWAP1 MSTORE PUSH1 0x40 SWAP1 KECCAK256 DUP4 SWAP1 SSTORE JUMPDEST DUP6 SLOAD DUP7 SWAP1 DUP1 PUSH2 0x154E JUMPI PUSH2 0x154E PUSH2 0x1B16 JUMP JUMPDEST PUSH1 0x1 SWAP1 SUB DUP2 DUP2 SWAP1 PUSH1 0x0 MSTORE PUSH1 0x20 PUSH1 0x0 KECCAK256 ADD PUSH1 0x0 SWAP1 SSTORE SWAP1 SSTORE DUP6 PUSH1 0x1 ADD PUSH1 0x0 DUP7 DUP2 MSTORE PUSH1 0x20 ADD SWAP1 DUP2 MSTORE PUSH1 0x20 ADD PUSH1 0x0 KECCAK256 PUSH1 0x0 SWAP1 SSTORE PUSH1 0x1 SWAP4 POP POP POP POP PUSH2 0x6AC JUMP JUMPDEST PUSH1 0x0 SWAP2 POP POP PUSH2 0x6AC JUMP JUMPDEST DUP2 DUP2 DUP1 DUP3 EQ ISZERO PUSH2 0x15A4 JUMPI POP POP POP POP POP JUMP JUMPDEST PUSH1 0x0 DUP6 PUSH1 0x2 PUSH2 0x15B3 DUP8 DUP8 PUSH2 0x1B2C JUMP JUMPDEST PUSH2 0x15BD SWAP2 SWAP1 PUSH2 0x1B6B JUMP JUMPDEST PUSH2 0x15C7 SWAP1 DUP8 PUSH2 0x1B99 JUMP JUMPDEST DUP2 MLOAD DUP2 LT PUSH2 0x15D7 JUMPI PUSH2 0x15D7 PUSH2 0x1A08 JUMP JUMPDEST PUSH1 0x20 MUL PUSH1 0x20 ADD ADD MLOAD SWAP1 POP JUMPDEST DUP2 DUP4 SGT PUSH2 0x16E6 JUMPI JUMPDEST DUP1 DUP7 DUP5 DUP2 MLOAD DUP2 LT PUSH2 0x15FD JUMPI PUSH2 0x15FD PUSH2 0x1A08 JUMP JUMPDEST PUSH1 0x20 MUL PUSH1 0x20 ADD ADD MLOAD LT ISZERO PUSH2 0x161D JUMPI DUP3 PUSH2 0x1615 DUP2 PUSH2 0x1BDA JUMP JUMPDEST SWAP4 POP POP PUSH2 0x15EA JUMP JUMPDEST DUP6 DUP3 DUP2 MLOAD DUP2 LT PUSH2 0x162F JUMPI PUSH2 0x162F PUSH2 0x1A08 JUMP JUMPDEST PUSH1 0x20 MUL PUSH1 0x20 ADD ADD MLOAD DUP2 LT ISZERO PUSH2 0x1650 JUMPI DUP2 PUSH2 0x1648 DUP2 PUSH2 0x1BF3 JUMP JUMPDEST SWAP3 POP POP PUSH2 0x161D JUMP JUMPDEST DUP2 DUP4 SGT PUSH2 0x16E1 JUMPI DUP6 DUP3 DUP2 MLOAD DUP2 LT PUSH2 0x1669 JUMPI PUSH2 0x1669 PUSH2 0x1A08 JUMP JUMPDEST PUSH1 0x20 MUL PUSH1 0x20 ADD ADD MLOAD DUP7 DUP5 DUP2 MLOAD DUP2 LT PUSH2 0x1683 JUMPI PUSH2 0x1683 PUSH2 0x1A08 JUMP JUMPDEST PUSH1 0x20 MUL PUSH1 0x20 ADD ADD MLOAD DUP8 DUP6 DUP2 MLOAD DUP2 LT PUSH2 0x169D JUMPI PUSH2 0x169D PUSH2 0x1A08 JUMP JUMPDEST PUSH1 0x20 MUL PUSH1 0x20 ADD ADD DUP9 DUP6 DUP2 MLOAD DUP2 LT PUSH2 0x16B6 JUMPI PUSH2 0x16B6 PUSH2 0x1A08 JUMP JUMPDEST PUSH1 0x20 SWAP1 DUP2 MUL SWAP2 SWAP1 SWAP2 ADD ADD SWAP2 SWAP1 SWAP2 MSTORE MSTORE DUP3 PUSH2 0x16CF DUP2 PUSH2 0x1BDA JUMP JUMPDEST SWAP4 POP POP DUP2 DUP1 PUSH2 0x16DD SWAP1 PUSH2 0x1BF3 JUMP JUMPDEST SWAP3 POP POP JUMPDEST PUSH2 0x15E2 JUMP JUMPDEST DUP2 DUP6 SLT ISZERO PUSH2 0x16F9 JUMPI PUSH2 0x16F9 DUP7 DUP7 DUP5 PUSH2 0x1593 JUMP JUMPDEST DUP4 DUP4 SLT ISZERO PUSH2 0x1039 JUMPI PUSH2 0x1039 DUP7 DUP5 DUP7 PUSH2 0x1593 JUMP JUMPDEST PUSH4 0x4E487B71 PUSH1 0xE0 SHL PUSH1 0x0 MSTORE PUSH1 0x41 PUSH1 0x4 MSTORE PUSH1 0x24 PUSH1 0x0 REVERT JUMPDEST PUSH1 0x40 MLOAD PUSH1 0x1F DUP3 ADD PUSH1 0x1F NOT AND DUP2 ADD PUSH8 0xFFFFFFFFFFFFFFFF DUP2 GT DUP3 DUP3 LT OR ISZERO PUSH2 0x174B JUMPI PUSH2 0x174B PUSH2 0x170C JUMP JUMPDEST PUSH1 0x40 MSTORE SWAP2 SWAP1 POP JUMP JUMPDEST PUSH1 0x0 PUSH8 0xFFFFFFFFFFFFFFFF DUP3 GT ISZERO PUSH2 0x176D JUMPI PUSH2 0x176D PUSH2 0x170C JUMP JUMPDEST POP PUSH1 0x5 SHL PUSH1 0x20 ADD SWAP1 JUMP JUMPDEST DUP1 CALLDATALOAD PUSH1 0x1 PUSH1 0x1 PUSH1 0xA0 SHL SUB DUP2 AND DUP2 EQ PUSH2 0x178E JUMPI PUSH1 0x0 DUP1 REVERT JUMPDEST SWAP2 SWAP1 POP JUMP JUMPDEST PUSH1 0x0 PUSH1 0x20 DUP1 DUP4 DUP6 SUB SLT ISZERO PUSH2 0x17A6 JUMPI PUSH1 0x0 DUP1 REVERT JUMPDEST DUP3 CALLDATALOAD PUSH8 0xFFFFFFFFFFFFFFFF DUP2 GT ISZERO PUSH2 0x17BD JUMPI PUSH1 0x0 DUP1 REVERT JUMPDEST DUP4 ADD PUSH1 0x1F DUP2 ADD DUP6 SGT PUSH2 0x17CE JUMPI PUSH1 0x0 DUP1 REVERT JUMPDEST DUP1 CALLDATALOAD PUSH2 0x17E1 PUSH2 0x17DC DUP3 PUSH2 0x1753 JUMP JUMPDEST PUSH2 0x1722 JUMP JUMPDEST DUP2 DUP2 MSTORE PUSH1 0x5 SWAP2 SWAP1 SWAP2 SHL DUP3 ADD DUP4 ADD SWAP1 DUP4 DUP2 ADD SWAP1 DUP8 DUP4 GT ISZERO PUSH2 0x1800 JUMPI PUSH1 0x0 DUP1 REVERT JUMPDEST SWAP3 DUP5 ADD SWAP3 JUMPDEST DUP3 DUP5 LT ISZERO PUSH2 0x1825 JUMPI PUSH2 0x1816 DUP5 PUSH2 0x1777 JUMP JUMPDEST DUP3 MSTORE SWAP3 DUP5 ADD SWAP3 SWAP1 DUP5 ADD SWAP1 PUSH2 0x1805 JUMP JUMPDEST SWAP8 SWAP7 POP POP POP POP POP POP POP JUMP JUMPDEST PUSH1 0x20 DUP1 DUP3 MSTORE DUP3 MLOAD DUP3 DUP3 ADD DUP2 SWAP1 MSTORE PUSH1 0x0 SWAP2 SWAP1 DUP5 DUP3 ADD SWAP1 PUSH1 0x40 DUP6 ADD SWAP1 DUP5 JUMPDEST DUP2 DUP2 LT ISZERO PUSH2 0x1868 JUMPI DUP4 MLOAD DUP4 MSTORE SWAP3 DUP5 ADD SWAP3 SWAP2 DUP5 ADD SWAP2 PUSH1 0x1 ADD PUSH2 0x184C JUMP JUMPDEST POP SWAP1 SWAP7 SWAP6 POP POP POP POP POP POP JUMP JUMPDEST PUSH1 0x0 DUP3 PUSH1 0x1F DUP4 ADD SLT PUSH2 0x1885 JUMPI PUSH1 0x0 DUP1 REVERT JUMPDEST DUP2 CALLDATALOAD PUSH1 0x20 PUSH2 0x1895 PUSH2 0x17DC DUP4 PUSH2 0x1753 JUMP JUMPDEST DUP3 DUP2 MSTORE PUSH1 0x5 SWAP3 SWAP1 SWAP3 SHL DUP5 ADD DUP2 ADD SWAP2 DUP2 DUP2 ADD SWAP1 DUP7 DUP5 GT ISZERO PUSH2 0x18B4 JUMPI PUSH1 0x0 DUP1 REVERT JUMPDEST DUP3 DUP7 ADD JUMPDEST DUP5 DUP2 LT ISZERO PUSH2 0x18CF JUMPI DUP1 CALLDATALOAD DUP4 MSTORE SWAP2 DUP4 ADD SWAP2 DUP4 ADD PUSH2 0x18B8 JUMP JUMPDEST POP SWAP7 SWAP6 POP POP POP POP POP POP JUMP JUMPDEST PUSH1 0x0 DUP1 PUSH1 0x40 DUP4 DUP6 SUB SLT ISZERO PUSH2 0x18ED JUMPI PUSH1 0x0 DUP1 REVERT JUMPDEST DUP3 CALLDATALOAD PUSH8 0xFFFFFFFFFFFFFFFF DUP1 DUP3 GT ISZERO PUSH2 0x1905 JUMPI PUSH1 0x0 DUP1 REVERT JUMPDEST PUSH2 0x1911 DUP7 DUP4 DUP8 ADD PUSH2 0x1874 JUMP JUMPDEST SWAP4 POP PUSH1 0x20 DUP6 ADD CALLDATALOAD SWAP2 POP DUP1 DUP3 GT ISZERO PUSH2 0x1927 JUMPI PUSH1 0x0 DUP1 REVERT JUMPDEST POP PUSH2 0x1934 DUP6 DUP3 DUP7 ADD PUSH2 0x1874 JUMP JUMPDEST SWAP2 POP POP SWAP3 POP SWAP3 SWAP1 POP JUMP JUMPDEST PUSH1 0x0 PUSH1 0x20 DUP3 DUP5 SUB SLT ISZERO PUSH2 0x1950 JUMPI PUSH1 0x0 DUP1 REVERT JUMPDEST POP CALLDATALOAD SWAP2 SWAP1 POP JUMP JUMPDEST PUSH1 0x0 PUSH1 0x20 DUP3 DUP5 SUB SLT ISZERO PUSH2 0x1969 JUMPI PUSH1 0x0 DUP1 REVERT JUMPDEST PUSH2 0xFD0 DUP3 PUSH2 0x1777 JUMP JUMPDEST PUSH1 0x20 DUP1 DUP3 MSTORE DUP3 MLOAD DUP3 DUP3 ADD DUP2 SWAP1 MSTORE PUSH1 0x0 SWAP2 SWAP1 DUP5 DUP3 ADD SWAP1 PUSH1 0x40 DUP6 ADD SWAP1 DUP5 JUMPDEST DUP2 DUP2 LT ISZERO PUSH2 0x1868 JUMPI DUP4 MLOAD PUSH1 0x1 PUSH1 0x1 PUSH1 0xA0 SHL SUB AND DUP4 MSTORE SWAP3 DUP5 ADD SWAP3 SWAP2 DUP5 ADD SWAP2 PUSH1 0x1 ADD PUSH2 0x198E JUMP JUMPDEST PUSH1 0x0 PUSH1 0x20 DUP1 DUP4 MSTORE DUP4 MLOAD DUP1 DUP3 DUP6 ADD MSTORE PUSH1 0x0 JUMPDEST DUP2 DUP2 LT ISZERO PUSH2 0x19E0 JUMPI DUP6 DUP2 ADD DUP4 ADD MLOAD DUP6 DUP3 ADD PUSH1 0x40 ADD MSTORE DUP3 ADD PUSH2 0x19C4 JUMP JUMPDEST DUP2 DUP2 GT ISZERO PUSH2 0x19F2 JUMPI PUSH1 0x0 PUSH1 0x40 DUP4 DUP8 ADD ADD MSTORE JUMPDEST POP PUSH1 0x1F ADD PUSH1 0x1F NOT AND SWAP3 SWAP1 SWAP3 ADD PUSH1 0x40 ADD SWAP4 SWAP3 POP POP POP JUMP JUMPDEST PUSH4 0x4E487B71 PUSH1 0xE0 SHL PUSH1 0x0 MSTORE PUSH1 0x32 PUSH1 0x4 MSTORE PUSH1 0x24 PUSH1 0x0 REVERT JUMPDEST PUSH1 0x0 PUSH1 0x20 DUP3 DUP5 SUB SLT ISZERO PUSH2 0x1A30 JUMPI PUSH1 0x0 DUP1 REVERT JUMPDEST POP MLOAD SWAP2 SWAP1 POP JUMP JUMPDEST PUSH4 0x4E487B71 PUSH1 0xE0 SHL PUSH1 0x0 MSTORE PUSH1 0x11 PUSH1 0x4 MSTORE PUSH1 0x24 PUSH1 0x0 REVERT JUMPDEST PUSH1 0x0 PUSH1 0x0 NOT DUP3 EQ ISZERO PUSH2 0x1A61 JUMPI PUSH2 0x1A61 PUSH2 0x1A37 JUMP JUMPDEST POP PUSH1 0x1 ADD SWAP1 JUMP JUMPDEST PUSH1 0x0 DUP3 NOT DUP3 GT ISZERO PUSH2 0x1A7B JUMPI PUSH2 0x1A7B PUSH2 0x1A37 JUMP JUMPDEST POP ADD SWAP1 JUMP JUMPDEST PUSH1 0x0 DUP3 DUP3 LT ISZERO PUSH2 0x1A92 JUMPI PUSH2 0x1A92 PUSH2 0x1A37 JUMP JUMPDEST POP SUB SWAP1 JUMP JUMPDEST PUSH1 0x0 PUSH1 0x20 DUP3 DUP5 SUB SLT ISZERO PUSH2 0x1AA9 JUMPI PUSH1 0x0 DUP1 REVERT JUMPDEST DUP2 MLOAD DUP1 ISZERO ISZERO DUP2 EQ PUSH2 0xFD0 JUMPI PUSH1 0x0 DUP1 REVERT JUMPDEST PUSH4 0x4E487B71 PUSH1 0xE0 SHL PUSH1 0x0 MSTORE PUSH1 0x12 PUSH1 0x4 MSTORE PUSH1 0x24 PUSH1 0x0 REVERT JUMPDEST PUSH1 0x0 DUP3 PUSH2 0x1ADE JUMPI PUSH2 0x1ADE PUSH2 0x1AB9 JUMP JUMPDEST POP MOD SWAP1 JUMP JUMPDEST PUSH1 0x0 DUP3 PUSH2 0x1AF2 JUMPI PUSH2 0x1AF2 PUSH2 0x1AB9 JUMP JUMPDEST POP DIV SWAP1 JUMP JUMPDEST PUSH1 0x0 DUP2 PUSH1 0x0 NOT DIV DUP4 GT DUP3 ISZERO ISZERO AND ISZERO PUSH2 0x1B11 JUMPI PUSH2 0x1B11 PUSH2 0x1A37 JUMP JUMPDEST POP MUL SWAP1 JUMP JUMPDEST PUSH4 0x4E487B71 PUSH1 0xE0 SHL PUSH1 0x0 MSTORE PUSH1 0x31 PUSH1 0x4 MSTORE PUSH1 0x24 PUSH1 0x0 REVERT JUMPDEST PUSH1 0x0 DUP1 DUP4 SLT DUP1 ISZERO PUSH1 0x1 PUSH1 0xFF SHL DUP6 ADD DUP5 SLT AND ISZERO PUSH2 0x1B4A JUMPI PUSH2 0x1B4A PUSH2 0x1A37 JUMP JUMPDEST PUSH1 0x1 PUSH1 0x1 PUSH1 0xFF SHL SUB DUP5 ADD DUP4 SGT DUP2 AND ISZERO PUSH2 0x1B65 JUMPI PUSH2 0x1B65 PUSH2 0x1A37 JUMP JUMPDEST POP POP SUB SWAP1 JUMP JUMPDEST PUSH1 0x0 DUP3 PUSH2 0x1B7A JUMPI PUSH2 0x1B7A PUSH2 0x1AB9 JUMP JUMPDEST PUSH1 0x1 PUSH1 0xFF SHL DUP3 EQ PUSH1 0x0 NOT DUP5 EQ AND ISZERO PUSH2 0x1B94 JUMPI PUSH2 0x1B94 PUSH2 0x1A37 JUMP JUMPDEST POP SDIV SWAP1 JUMP JUMPDEST PUSH1 0x0 DUP1 DUP3 SLT DUP1 ISZERO PUSH1 0x1 PUSH1 0x1 PUSH1 0xFF SHL SUB DUP5 SWAP1 SUB DUP6 SGT AND ISZERO PUSH2 0x1BBB JUMPI PUSH2 0x1BBB PUSH2 0x1A37 JUMP JUMPDEST PUSH1 0x1 PUSH1 0xFF SHL DUP4 SWAP1 SUB DUP5 SLT DUP2 AND ISZERO PUSH2 0x1BD4 JUMPI PUSH2 0x1BD4 PUSH2 0x1A37 JUMP JUMPDEST POP POP ADD SWAP1 JUMP JUMPDEST PUSH1 0x0 PUSH1 0x1 PUSH1 0x1 PUSH1 0xFF SHL SUB DUP3 EQ ISZERO PUSH2 0x1A61 JUMPI PUSH2 0x1A61 PUSH2 0x1A37 JUMP JUMPDEST PUSH1 0x0 PUSH1 0x1 PUSH1 0xFF SHL DUP3 EQ ISZERO PUSH2 0x1C09 JUMPI PUSH2 0x1C09 PUSH2 0x1A37 JUMP JUMPDEST POP PUSH1 0x0 NOT ADD SWAP1 JUMP INVALID LOG2 PUSH5 0x6970667358 0x22 SLT KECCAK256 PUSH3 0x6B41D2 DUP7 SWAP12 SWAP8 0xCE CALLVALUE 0xE EXTCODEHASH PUSH28 0x88AB26ADEB5CF6902697C1050A750916169DD63764736F6C63430008 EXP STOP CALLER ","sha1":"e71e5c8806fa41391a30481f30ce6a6acb719eeb","source":"// SPDX-License-Identifier: UNLICENSED\npragma solidity ^0.8.4;\n\nimport \"@openzeppelin/contracts/utils/math/Math.sol\";\nimport \"@openzeppelin/contracts/utils/math/SafeCast.sol\";\nimport \"@openzeppelin/contracts/utils/structs/EnumerableSet.sol\";\n\nimport \"../../interfaces/oracles/IUSDPriceOracle.sol\";\nimport \"../../interfaces/oracles/IRelativePriceOracle.sol\";\nimport \"../../interfaces/oracles/IUSDBatchPriceOracle.sol\";\nimport \"../../libraries/EnumerableExtensions.sol\";\n\nimport \"../auth/Governable.sol\";\n\nimport \"../../libraries/Errors.sol\";\nimport \"../../libraries/FixedPoint.sol\";\n\ncontract CheckedPriceOracle is IUSDBatchPriceOracle, Governable {\n    using EnumerableSet for EnumerableSet.AddressSet;\n    using EnumerableExtensions for EnumerableSet.AddressSet;\n\n    using FixedPoint for uint256;\n    using SafeCast for uint256;\n    using SafeCast for int256;\n\n    uint256 public constant MAX_ABSOLUTE_WETH_DEVIATION = 50e18;\n    uint256 public constant INITIAL_RELATIVE_EPSILON = 0.02e18;\n    uint256 public constant MAX_RELATIVE_EPSILON = 0.1e18;\n\n    address public constant WETH_ADDRESS = address(0xC02aaA39b223FE8D0A0e5C4F27eAD9083C756Cc2);\n\n    IUSDPriceOracle public usdOracle;\n    IRelativePriceOracle public relativeOracle;\n\n    uint256 public relativeEpsilon;\n\n    EnumerableSet.AddressSet internal trustedSignerPriceOracles;\n\n    /// This list is going to be used for the twaps to be input into the price level checks.\n    /// These are the addresses of the assets to be paired with ETH e.g. USDC or USDT\n    EnumerableSet.AddressSet internal quoteAssetsForPriceLevelTWAPS;\n\n    event PriceLevelTWAPQuoteAssetAdded(address _addressToAdd);\n    event PriceLevelTWAPQuoteAssetRemoved(address _addressToRemove);\n\n    event TrustedSignerOracleAdded(address _addressToAdd);\n    event TrustedSignerOracleRemoved(address _addressToRemove);\n\n    /// _usdOracle is for Chainlink\n    constructor(address _usdOracle, address _relativeOracle) {\n        usdOracle = IUSDPriceOracle(_usdOracle);\n        relativeOracle = IRelativePriceOracle(_relativeOracle);\n        relativeEpsilon = INITIAL_RELATIVE_EPSILON;\n    }\n\n    function addSignedPriceSource(address _signedAssetToAdd) external governanceOnly {\n        trustedSignerPriceOracles.add(_signedAssetToAdd);\n        emit TrustedSignerOracleAdded(_signedAssetToAdd);\n    }\n\n    function removeSignedPriceSource(address _signedAssetToRemove) external governanceOnly {\n        trustedSignerPriceOracles.remove(_signedAssetToRemove);\n        emit TrustedSignerOracleRemoved(_signedAssetToRemove);\n    }\n\n    function addQuoteAssetsForPriceLevelTwap(address _quoteAssetToAdd) external governanceOnly {\n        quoteAssetsForPriceLevelTWAPS.add(_quoteAssetToAdd);\n        emit PriceLevelTWAPQuoteAssetAdded(_quoteAssetToAdd);\n    }\n\n    function listQuoteAssetsForPriceLevelTwap() external view returns (address[] memory) {\n        return quoteAssetsForPriceLevelTWAPS.toArray();\n    }\n\n    function removeQuoteAssetsForPriceLevelTwap(address _quoteAssetToRemove)\n        external\n        governanceOnly\n    {\n        quoteAssetsForPriceLevelTWAPS.remove(_quoteAssetToRemove);\n        emit PriceLevelTWAPQuoteAssetRemoved(_quoteAssetToRemove);\n    }\n\n    function batchRelativePriceCheck(\n        address[] memory tokenAddresses,\n        uint256 length,\n        uint256[] memory prices\n    ) internal view returns (uint256[] memory) {\n        bool[] memory checked = new bool[](length);\n\n        uint256[] memory priceLevelTwaps = new uint256[](quoteAssetsForPriceLevelTWAPS.length());\n\n        uint256 k;\n        for (uint256 i = 0; i < tokenAddresses.length - 1; i++) {\n            if (checked[i]) {\n                continue;\n            }\n\n            bool couldCheck = false;\n\n            for (uint256 j = 0; j < tokenAddresses.length; j++) {\n                if (\n                    i == j || !relativeOracle.isPairSupported(tokenAddresses[i], tokenAddresses[j])\n                ) {\n                    continue;\n                }\n\n                uint256 relativePrice = relativeOracle.getRelativePrice(\n                    tokenAddresses[i],\n                    tokenAddresses[j]\n                );\n\n                if (\n                    tokenAddresses[i] == WETH_ADDRESS &&\n                    quoteAssetsForPriceLevelTWAPS.contains(tokenAddresses[j])\n                ) {\n                    priceLevelTwaps[k] = relativePrice;\n                    k++;\n                } else if (\n                    tokenAddresses[j] == WETH_ADDRESS &&\n                    quoteAssetsForPriceLevelTWAPS.contains(tokenAddresses[i])\n                ) {\n                    priceLevelTwaps[k] = FixedPoint.ONE.divDown(relativePrice);\n                    k++;\n                }\n\n                _ensureRelativePriceConsistency(prices[i], prices[j], relativePrice);\n\n                checked[j] = true;\n                couldCheck = true;\n                break;\n            }\n\n            require(couldCheck, Errors.ASSET_NOT_SUPPORTED);\n\n            checked[i] = true;\n        }\n\n        uint256[] memory foundTwaps = new uint256[](k);\n        for (uint256 i = 0; i < k; i++) {\n            foundTwaps[i] = priceLevelTwaps[i];\n        }\n\n        return foundTwaps;\n    }\n\n    //NB this is expected to be queried for ALL asset prices in the reserve\n    /// @inheritdoc IUSDBatchPriceOracle\n    function getPricesUSD(address[] memory tokenAddresses)\n        public\n        view\n        override\n        returns (uint256[] memory)\n    {\n        uint256 length = tokenAddresses.length;\n        require(length > 1, Errors.INVALID_ARGUMENT);\n\n        uint256[] memory prices = new uint256[](length);\n\n        /// Will start with this being the WETH/USD price, this can be modified later if desired.\n        uint256 priceLevel;\n\n        for (uint256 i = 0; i < length; i++) {\n            prices[i] = usdOracle.getPriceUSD(tokenAddresses[i]);\n            if (tokenAddresses[i] == WETH_ADDRESS) {\n                priceLevel = prices[i];\n            }\n        }\n\n        uint256[] memory priceLevelTwaps = batchRelativePriceCheck(tokenAddresses, length, prices);\n\n        uint256 numberOfTrustedSignerOracles = trustedSignerPriceOracles.length();\n        uint256[] memory signedPrices = new uint256[](numberOfTrustedSignerOracles);\n\n        for (uint256 i = 0; i < numberOfTrustedSignerOracles; i++) {\n            IUSDPriceOracle oracle = IUSDPriceOracle(trustedSignerPriceOracles.at(i));\n            signedPrices[i] = oracle.getPriceUSD(WETH_ADDRESS);\n        }\n\n        _checkPriceLevel(priceLevel, signedPrices, priceLevelTwaps);\n\n        return prices;\n    }\n\n    function setRelativeMaxEpsilon(uint256 _relativeEpsilon) external governanceOnly {\n        require(_relativeEpsilon > 0, Errors.INVALID_ARGUMENT);\n        require(_relativeEpsilon < MAX_RELATIVE_EPSILON, Errors.INVALID_ARGUMENT);\n\n        relativeEpsilon = _relativeEpsilon;\n    }\n\n    function _checkPriceLevel(\n        uint256 priceLevel,\n        uint256[] memory signedPrices,\n        uint256[] memory priceLevelTwaps\n    ) internal view {\n        uint256 trueWETH = getRobustWETHPrice(signedPrices, priceLevelTwaps);\n        uint256 absolutePriceDifference = priceLevel.absSub(trueWETH);\n        require(\n            absolutePriceDifference <= MAX_ABSOLUTE_WETH_DEVIATION,\n            Errors.ROOT_PRICE_NOT_GROUNDED\n        );\n    }\n\n    function _ensureRelativePriceConsistency(\n        uint256 aUSDPrice,\n        uint256 bUSDPrice,\n        uint256 abPrice\n    ) internal view {\n        uint256 abPriceFromUSD = aUSDPrice.divDown(bUSDPrice);\n        uint256 priceDifference = abPrice.absSub(abPriceFromUSD);\n        uint256 relativePriceDifference = priceDifference.divDown(abPrice);\n\n        require(relativePriceDifference <= relativeEpsilon, Errors.STALE_PRICE);\n    }\n\n    function _computeMinOrSecondMin(uint256[] memory twapPrices) internal pure returns (uint256) {\n        // min if there are two, or the 2nd min if more than two\n        uint256 min = twapPrices[0];\n        uint256 secondMin = 2**256 - 1;\n        for (uint256 i = 1; i < twapPrices.length; i++) {\n            if (twapPrices[i] < min) {\n                secondMin = min;\n                min = twapPrices[i];\n            } else if ((twapPrices[i] < secondMin)) {\n                secondMin = twapPrices[i];\n            }\n        }\n        if (twapPrices.length == 1) {\n            return twapPrices[0];\n        } else if (twapPrices.length == 2) {\n            return min;\n        } else {\n            return secondMin;\n        }\n    }\n\n    function _sort(uint256[] memory data) internal view returns (uint256[] memory) {\n        _quickSort(data, int256(0), int256(data.length - 1));\n        return data;\n    }\n\n    function _quickSort(\n        uint256[] memory arr,\n        int256 left,\n        int256 right\n    ) internal view {\n        int256 i = left;\n        int256 j = right;\n        if (i == j) return;\n        uint256 pivot = arr[uint256(left + (right - left) / 2)];\n        while (i <= j) {\n            while (arr[uint256(i)] < pivot) i++;\n            while (pivot < arr[uint256(j)]) j--;\n            if (i <= j) {\n                (arr[uint256(i)], arr[uint256(j)]) = (arr[uint256(j)], arr[uint256(i)]);\n                i++;\n                j--;\n            }\n        }\n        if (left < j) _quickSort(arr, left, j);\n        if (i < right) _quickSort(arr, i, right);\n    }\n\n    function _median(uint256[] memory array) internal view returns (uint256) {\n        _sort(array);\n        return\n            array.length % 2 == 0\n                ? Math.average(array[array.length / 2 - 1], array[array.length / 2])\n                : array[array.length / 2];\n    }\n\n    /// @notice this function provides an estimate of the true WETH price.\n    /// 1. Find the minimum TWAP price (or second minumum if >2 TWAP prices) from a given array.\n    /// 2. Add this to an array of signed prices\n    /// 3. Compute the median of this array\n    /// @param signedPrices an array of prices from trusted providers (e.g. Chainlink, Coinbase, OKEx ETH/USD price)\n    /// @param twapPrices an array of Time Weighted Moving Average ETH/stablecoin prices\n    function getRobustWETHPrice(uint256[] memory signedPrices, uint256[] memory twapPrices)\n        public\n        view\n        returns (uint256)\n    {\n        uint256 minTWAP;\n        if (twapPrices.length == 0) {\n            return _median(signedPrices);\n        } else {\n            minTWAP = _computeMinOrSecondMin(twapPrices);\n            uint256[] memory prices = new uint256[](signedPrices.length + 1);\n            prices[prices.length - 1] = minTWAP;\n            for (uint256 i = 0; i < prices.length - 1; i++) {\n                prices[i] = signedPrices[i];\n            }\n            return _median(prices);\n        }\n    }\n}\n","sourcePath":"contracts/oracles/CheckedPriceOracle.sol","type":"contract","deployment":{"address":"0x8b7d8D9abE955F79670d06119bd9183d8C4ef0F4","chainid":"137","blockHeight":26856277}}