{"abi":[{"inputs":[{"internalType":"contract IGyroConfig","name":"_gyroConfig","type":"address"}],"stateMutability":"nonpayable","type":"constructor","name":"constructor"},{"anonymous":false,"inputs":[{"indexed":false,"internalType":"address","name":"newGovernor","type":"address"}],"name":"GovernorChangeRequested","type":"event"},{"anonymous":false,"inputs":[{"indexed":false,"internalType":"address","name":"oldGovernor","type":"address"},{"indexed":false,"internalType":"address","name":"newGovernor","type":"address"}],"name":"GovernorChanged","type":"event"},{"anonymous":false,"inputs":[{"indexed":true,"internalType":"address","name":"minter","type":"address"},{"indexed":false,"internalType":"uint256","name":"mintedGYDAmount","type":"uint256"},{"indexed":false,"internalType":"uint256","name":"usdValue","type":"uint256"},{"components":[{"components":[{"components":[{"internalType":"address","name":"vault","type":"address"},{"internalType":"uint8","name":"decimals","type":"uint8"},{"internalType":"address","name":"underlying","type":"address"},{"internalType":"uint256","name":"price","type":"uint256"},{"components":[{"internalType":"uint256","name":"initialPrice","type":"uint256"},{"internalType":"uint256","name":"initialWeight","type":"uint256"},{"internalType":"uint256","name":"shortFlowMemory","type":"uint256"},{"internalType":"uint256","name":"shortFlowThreshold","type":"uint256"}],"internalType":"struct DataTypes.PersistedVaultMetadata","name":"persistedMetadata","type":"tuple"},{"internalType":"uint256","name":"reserveBalance","type":"uint256"},{"internalType":"uint256","name":"currentWeight","type":"uint256"},{"internalType":"uint256","name":"idealWeight","type":"uint256"},{"components":[{"internalType":"address","name":"tokenAddress","type":"address"},{"internalType":"bool","name":"isStable","type":"bool"},{"internalType":"uint256","name":"price","type":"uint256"}],"internalType":"struct DataTypes.PricedToken[]","name":"pricedTokens","type":"tuple[]"}],"internalType":"struct DataTypes.VaultInfo","name":"vaultInfo","type":"tuple"},{"internalType":"uint256","name":"amount","type":"uint256"}],"internalType":"struct DataTypes.VaultWithAmount[]","name":"vaultsWithAmount","type":"tuple[]"},{"internalType":"bool","name":"mint","type":"bool"}],"indexed":false,"internalType":"struct DataTypes.Order","name":"orderBeforeFees","type":"tuple"},{"components":[{"components":[{"components":[{"internalType":"address","name":"vault","type":"address"},{"internalType":"uint8","name":"decimals","type":"uint8"},{"internalType":"address","name":"underlying","type":"address"},{"internalType":"uint256","name":"price","type":"uint256"},{"components":[{"internalType":"uint256","name":"initialPrice","type":"uint256"},{"internalType":"uint256","name":"initialWeight","type":"uint256"},{"internalType":"uint256","name":"shortFlowMemory","type":"uint256"},{"internalType":"uint256","name":"shortFlowThreshold","type":"uint256"}],"internalType":"struct DataTypes.PersistedVaultMetadata","name":"persistedMetadata","type":"tuple"},{"internalType":"uint256","name":"reserveBalance","type":"uint256"},{"internalType":"uint256","name":"currentWeight","type":"uint256"},{"internalType":"uint256","name":"idealWeight","type":"uint256"},{"components":[{"internalType":"address","name":"tokenAddress","type":"address"},{"internalType":"bool","name":"isStable","type":"bool"},{"internalType":"uint256","name":"price","type":"uint256"}],"internalType":"struct DataTypes.PricedToken[]","name":"pricedTokens","type":"tuple[]"}],"internalType":"struct DataTypes.VaultInfo","name":"vaultInfo","type":"tuple"},{"internalType":"uint256","name":"amount","type":"uint256"}],"internalType":"struct DataTypes.VaultWithAmount[]","name":"vaultsWithAmount","type":"tuple[]"},{"internalType":"bool","name":"mint","type":"bool"}],"indexed":false,"internalType":"struct DataTypes.Order","name":"orderAfterFees","type":"tuple"}],"name":"Mint","type":"event"},{"anonymous":false,"inputs":[{"indexed":true,"internalType":"address","name":"redeemer","type":"address"},{"indexed":false,"internalType":"uint256","name":"gydToRedeem","type":"uint256"},{"indexed":false,"internalType":"uint256","name":"usdValueToRedeem","type":"uint256"},{"components":[{"components":[{"components":[{"internalType":"address","name":"vault","type":"address"},{"internalType":"uint8","name":"decimals","type":"uint8"},{"internalType":"address","name":"underlying","type":"address"},{"internalType":"uint256","name":"price","type":"uint256"},{"components":[{"internalType":"uint256","name":"initialPrice","type":"uint256"},{"internalType":"uint256","name":"initialWeight","type":"uint256"},{"internalType":"uint256","name":"shortFlowMemory","type":"uint256"},{"internalType":"uint256","name":"shortFlowThreshold","type":"uint256"}],"internalType":"struct DataTypes.PersistedVaultMetadata","name":"persistedMetadata","type":"tuple"},{"internalType":"uint256","name":"reserveBalance","type":"uint256"},{"internalType":"uint256","name":"currentWeight","type":"uint256"},{"internalType":"uint256","name":"idealWeight","type":"uint256"},{"components":[{"internalType":"address","name":"tokenAddress","type":"address"},{"internalType":"bool","name":"isStable","type":"bool"},{"internalType":"uint256","name":"price","type":"uint256"}],"internalType":"struct DataTypes.PricedToken[]","name":"pricedTokens","type":"tuple[]"}],"internalType":"struct DataTypes.VaultInfo","name":"vaultInfo","type":"tuple"},{"internalType":"uint256","name":"amount","type":"uint256"}],"internalType":"struct DataTypes.VaultWithAmount[]","name":"vaultsWithAmount","type":"tuple[]"},{"internalType":"bool","name":"mint","type":"bool"}],"indexed":false,"internalType":"struct DataTypes.Order","name":"orderBeforeFees","type":"tuple"},{"components":[{"components":[{"components":[{"internalType":"address","name":"vault","type":"address"},{"internalType":"uint8","name":"decimals","type":"uint8"},{"internalType":"address","name":"underlying","type":"address"},{"internalType":"uint256","name":"price","type":"uint256"},{"components":[{"internalType":"uint256","name":"initialPrice","type":"uint256"},{"internalType":"uint256","name":"initialWeight","type":"uint256"},{"internalType":"uint256","name":"shortFlowMemory","type":"uint256"},{"internalType":"uint256","name":"shortFlowThreshold","type":"uint256"}],"internalType":"struct DataTypes.PersistedVaultMetadata","name":"persistedMetadata","type":"tuple"},{"internalType":"uint256","name":"reserveBalance","type":"uint256"},{"internalType":"uint256","name":"currentWeight","type":"uint256"},{"internalType":"uint256","name":"idealWeight","type":"uint256"},{"components":[{"internalType":"address","name":"tokenAddress","type":"address"},{"internalType":"bool","name":"isStable","type":"bool"},{"internalType":"uint256","name":"price","type":"uint256"}],"internalType":"struct DataTypes.PricedToken[]","name":"pricedTokens","type":"tuple[]"}],"internalType":"struct DataTypes.VaultInfo","name":"vaultInfo","type":"tuple"},{"internalType":"uint256","name":"amount","type":"uint256"}],"internalType":"struct DataTypes.VaultWithAmount[]","name":"vaultsWithAmount","type":"tuple[]"},{"internalType":"bool","name":"mint","type":"bool"}],"indexed":false,"internalType":"struct DataTypes.Order","name":"orderAfterFees","type":"tuple"}],"name":"Redeem","type":"event"},{"inputs":[],"name":"acceptGovernance","outputs":[],"stateMutability":"nonpayable","type":"function"},{"inputs":[{"internalType":"address","name":"whitelistedAddress","type":"address"}],"name":"addToExternalCallWhitelist","outputs":[{"internalType":"bool","name":"","type":"bool"}],"stateMutability":"nonpayable","type":"function"},{"inputs":[{"internalType":"address","name":"newGovernor","type":"address"}],"name":"changeGovernor","outputs":[],"stateMutability":"nonpayable","type":"function"},{"inputs":[{"components":[{"internalType":"address","name":"inputToken","type":"address"},{"internalType":"uint256","name":"inputAmount","type":"uint256"},{"internalType":"address","name":"destinationVault","type":"address"}],"internalType":"struct DataTypes.MintAsset[]","name":"assets","type":"tuple[]"},{"internalType":"uint256","name":"minReceivedAmount","type":"uint256"},{"internalType":"address","name":"account","type":"address"}],"name":"dryMint","outputs":[{"internalType":"uint256","name":"mintedGYDAmount","type":"uint256"},{"internalType":"string","name":"err","type":"string"}],"stateMutability":"view","type":"function"},{"inputs":[{"internalType":"uint256","name":"gydToRedeem","type":"uint256"},{"components":[{"internalType":"address","name":"outputToken","type":"address"},{"internalType":"uint256","name":"minOutputAmount","type":"uint256"},{"internalType":"uint256","name":"valueRatio","type":"uint256"},{"internalType":"address","name":"originVault","type":"address"}],"internalType":"struct DataTypes.RedeemAsset[]","name":"assets","type":"tuple[]"}],"name":"dryRedeem","outputs":[{"internalType":"uint256[]","name":"outputAmounts","type":"uint256[]"},{"internalType":"string","name":"err","type":"string"}],"stateMutability":"view","type":"function"},{"inputs":[],"name":"governor","outputs":[{"internalType":"address","name":"","type":"address"}],"stateMutability":"view","type":"function"},{"inputs":[],"name":"gydToken","outputs":[{"internalType":"contract IGYDToken","name":"","type":"address"}],"stateMutability":"view","type":"function"},{"inputs":[],"name":"gyroConfig","outputs":[{"internalType":"contract IGyroConfig","name":"","type":"address"}],"stateMutability":"view","type":"function"},{"inputs":[{"internalType":"address","name":"_governor","type":"address"}],"name":"initialize","outputs":[],"stateMutability":"nonpayable","type":"function"},{"inputs":[],"name":"listExternalCallWhitelist","outputs":[{"internalType":"address[]","name":"","type":"address[]"}],"stateMutability":"view","type":"function"},{"inputs":[{"components":[{"internalType":"address","name":"inputToken","type":"address"},{"internalType":"uint256","name":"inputAmount","type":"uint256"},{"internalType":"address","name":"destinationVault","type":"address"}],"internalType":"struct DataTypes.MintAsset[]","name":"assets","type":"tuple[]"},{"internalType":"uint256","name":"minReceivedAmount","type":"uint256"}],"name":"mint","outputs":[{"internalType":"uint256","name":"mintedGYDAmount","type":"uint256"}],"stateMutability":"nonpayable","type":"function"},{"inputs":[{"components":[{"internalType":"address","name":"inputToken","type":"address"},{"internalType":"uint256","name":"inputAmount","type":"uint256"},{"internalType":"address","name":"destinationVault","type":"address"}],"internalType":"struct DataTypes.MintAsset[]","name":"assets","type":"tuple[]"},{"internalType":"uint256","name":"minReceivedAmount","type":"uint256"},{"components":[{"internalType":"address","name":"target","type":"address"},{"internalType":"bytes","name":"data","type":"bytes"}],"internalType":"struct Motherboard.ExternalAction[]","name":"actions","type":"tuple[]"}],"name":"mint","outputs":[{"internalType":"uint256","name":"mintedGYDAmount","type":"uint256"}],"stateMutability":"nonpayable","type":"function"},{"inputs":[{"internalType":"uint256","name":"amount","type":"uint256"}],"name":"mintStewardshipIncRewards","outputs":[],"stateMutability":"nonpayable","type":"function"},{"inputs":[],"name":"pamm","outputs":[{"internalType":"contract IPAMM","name":"","type":"address"}],"stateMutability":"view","type":"function"},{"inputs":[],"name":"pendingGovernor","outputs":[{"internalType":"address","name":"","type":"address"}],"stateMutability":"view","type":"function"},{"inputs":[{"internalType":"uint256","name":"gydToRedeem","type":"uint256"},{"components":[{"internalType":"address","name":"outputToken","type":"address"},{"internalType":"uint256","name":"minOutputAmount","type":"uint256"},{"internalType":"uint256","name":"valueRatio","type":"uint256"},{"internalType":"address","name":"originVault","type":"address"}],"internalType":"struct DataTypes.RedeemAsset[]","name":"assets","type":"tuple[]"},{"components":[{"internalType":"address","name":"target","type":"address"},{"internalType":"bytes","name":"data","type":"bytes"}],"internalType":"struct Motherboard.ExternalAction[]","name":"actions","type":"tuple[]"}],"name":"redeem","outputs":[{"internalType":"uint256[]","name":"outputAmounts","type":"uint256[]"}],"stateMutability":"nonpayable","type":"function"},{"inputs":[{"internalType":"uint256","name":"gydToRedeem","type":"uint256"},{"components":[{"internalType":"address","name":"outputToken","type":"address"},{"internalType":"uint256","name":"minOutputAmount","type":"uint256"},{"internalType":"uint256","name":"valueRatio","type":"uint256"},{"internalType":"address","name":"originVault","type":"address"}],"internalType":"struct DataTypes.RedeemAsset[]","name":"assets","type":"tuple[]"}],"name":"redeem","outputs":[{"internalType":"uint256[]","name":"outputAmounts","type":"uint256[]"}],"stateMutability":"nonpayable","type":"function"},{"inputs":[{"internalType":"address","name":"removedAddress","type":"address"}],"name":"removeFromExternalCallWhitelist","outputs":[{"internalType":"bool","name":"","type":"bool"}],"stateMutability":"nonpayable","type":"function"},{"inputs":[],"name":"reserve","outputs":[{"internalType":"contract IReserve","name":"","type":"address"}],"stateMutability":"view","type":"function"}],"bytecode":"6101006040523480156200001257600080fd5b506040516200504a3803806200504a833981016040819052620000359162000212565b6001600160a01b03811660c08190526200005b90620000de602090811b62001aa017901c565b6001600160a01b03166080816001600160a01b03168152505062000093816001600160a01b03166200016760201b62001b201760201c565b6001600160a01b031660a0816001600160a01b031681525050620000cb816001600160a01b0316620001a960201b62001b611760201c565b6001600160a01b031660e0525062000239565b6040516321f8a72160e01b8152704759445f544f4b454e5f4144445245535360781b60048201526000906001600160a01b038316906321f8a721906024015b602060405180830381865afa1580156200013b573d6000803e3d6000fd5b505050506040513d601f19601f8201168201806040525081019062000161919062000212565b92915050565b6040516321f8a72160e01b81526e524553455256455f4144445245535360881b60048201526000906001600160a01b038316906321f8a721906024016200011d565b6040516321f8a72160e01b81527f42414c414e4345525f5641554c545f414444524553530000000000000000000060048201526000906001600160a01b038316906321f8a721906024016200011d565b6001600160a01b03811681146200020f57600080fd5b50565b6000602082840312156200022557600080fd5b81516200023281620001f9565b9392505050565b60805160a05160c05160e051614d05620003456000396000611c85015260008181610186015281816103f50152818161048e0152818161051d015281816105d0015281816106e501528181610b2901528181610c5701528181610d0d01528181610dd901528181610e7201528181610f0101528181611119015281816111aa015281816112e6015281816113910152818161144b01528181611668015281816116e001528181611762015281816121610152818161223d01526122740152600081816102ae015281816106890152818161345201526135ab0152600081816102fb015281816108b00152818161109c015281816117b80152818161219401526122c00152614d056000f3fe608060405234801561001057600080fd5b50600436106101215760003560e01c80636e4b7bf6116100ad578063c4d66de811610071578063c4d66de814610296578063cd3293de146102a9578063e3056a34146102d0578063e4c0aaf4146102e3578063fbf60028146102f657600080fd5b80636e4b7bf61461023257806385b0c78114610255578063900a043f1461025d578063a75963ea14610270578063c1da51371461028357600080fd5b8063466342cf116100f4578063466342cf146101a85780634d8ca4c5146101c85780634e4d822a146101e957806352e45422146101fc578063565294031461021157600080fd5b80630c340a2414610126578063238efcbc146101565780632799c6cf1461016057806344bbdb5514610181575b600080fd5b600054610139906001600160a01b031681565b6040516001600160a01b0390911681526020015b60405180910390f35b61015e61031d565b005b61017361016e366004613d45565b6103d6565b60405190815260200161014d565b6101397f000000000000000000000000000000000000000000000000000000000000000081565b6101bb6101b6366004613e18565b610967565b60405161014d9190613ecc565b6101db6101d6366004613edf565b610adb565b60405161014d929190613f7a565b6101bb6101f7366004613edf565b610dc8565b6102046112a8565b60405161014d9190613fa8565b61022461021f366004614001565b6112b9565b60405161014d92919061405f565b610245610240366004614078565b6115e7565b604051901515815260200161014d565b610139611641565b61015e61026b366004614095565b6116db565b61017361027e3660046140ae565b61181a565b610245610291366004614078565b6118a9565b61015e6102a4366004614078565b6118fb565b6101397f000000000000000000000000000000000000000000000000000000000000000081565b600154610139906001600160a01b031681565b61015e6102f1366004614078565b6119cb565b6101397f000000000000000000000000000000000000000000000000000000000000000081565b600154604080518082019091526002815261033360f41b6020820152906001600160a01b0316331461036b5760405162461bcd60e51b81526004016103629190614109565b60405180910390fd5b5060008054600180546001600160a01b03198084166001600160a01b03808416919091179095551690556040805192909116808352336020840152917fde4b3f61490b74c0ed6237523974fe299126bbbf8a8a7482fd220104c59b0c8491015b60405180910390a150565b60006103e0611ba9565b60006103ec8585611cf1565b905060006104227f00000000000000000000000000000000000000000000000000000000000000006001600160a01b0316611dee565b6001600160a01b031663ef5bac256040518163ffffffff1660e01b8152600401600060405180830381865afa15801561045f573d6000803e3d6000fd5b505050506040513d6000823e601f3d908101601f1916820160405261048791908101906143e6565b90506104bb7f00000000000000000000000000000000000000000000000000000000000000006001600160a01b0316611e3d565b6001600160a01b031663c2913c2d826040518263ffffffff1660e01b81526004016104e691906145db565b600060405180830381600087803b15801561050057600080fd5b505af1158015610514573d6000803e3d6000fd5b5050505061054a7f00000000000000000000000000000000000000000000000000000000000000006001600160a01b0316611e8c565b6001600160a01b031663372b7cb0826040518263ffffffff1660e01b815260040161057591906145db565b6020604051808303816000875af1158015610594573d6000803e3d6000fd5b505050506040513d601f19601f820116820180604052508101906105b89190614650565b5060006105c9838360200151611ed2565b90506105fd7f00000000000000000000000000000000000000000000000000000000000000006001600160a01b0316611fd1565b6001600160a01b031663d625436c826040518263ffffffff1660e01b815260040161062891906146f1565b600060405180830381600087803b15801561064257600080fd5b505af1158015610656573d6000803e3d6000fd5b5050505060005b83518110156106dd57600084828151811061067a5761067a614704565b602002602001015190506106ca7f0000000000000000000000000000000000000000000000000000000000000000826020015183600001516001600160a01b03166120209092919063ffffffff16565b50806106d581614730565b91505061065d565b5060006107127f00000000000000000000000000000000000000000000000000000000000000006001600160a01b0316612088565b6001600160a01b031663aa52e2b4836040518263ffffffff1660e01b815260040161073d91906146f1565b600060405180830381865afa15801561075a573d6000803e3d6000fd5b505050506040513d6000823e601f3d908101601f191682016040526107829190810190614749565b9050600061078f826120cd565b9050610799611641565b8451604051630d9778e560e11b81526004810184905260248101919091526001600160a01b039190911690631b2ef1ca906044016020604051808303816000875af11580156107ec573d6000803e3d6000fd5b505050506040513d601f19601f820116820180604052508101906108109190614875565b955086861015604051806040016040528060018152602001601960f91b8152509061084e5760405162461bcd60e51b81526004016103629190614109565b506108593387612159565b15604051806040016040528060028152602001610d8d60f21b815250906108935760405162461bcd60e51b81526004016103629190614109565b506040516340c10f1960e01b8152336004820152602481018790527f00000000000000000000000000000000000000000000000000000000000000006001600160a01b0316906340c10f1990604401600060405180830381600087803b1580156108fc57600080fd5b505af1158015610910573d6000803e3d6000fd5b50505050336001600160a01b03167f5fcb10796ed65fd4c9835ca009354cf2bfb5caa9b49a3acfce1243b81ad3627187838686604051610953949392919061488e565b60405180910390a250505050509392505050565b606060005b82811015610ac5576109b184848381811061098957610989614704565b905060200281019061099b91906148bf565b6109a9906020810190614078565b600290612342565b60405180604001604052806002815260200161333560f01b815250906109ea5760405162461bcd60e51b81526004016103629190614109565b50610ab2848483818110610a0057610a00614704565b9050602002810190610a1291906148bf565b610a209060208101906148df565b8080601f0160208091040260200160405190810160405280939291908181526020018383808284376000920191909152505060408051808201909152600381526231303160e81b602082015291508790508685818110610a8257610a82614704565b9050602002810190610a9491906148bf565b610aa2906020810190614078565b6001600160a01b03169190612367565b5080610abd81614730565b91505061096c565b50610ad1868686610dc8565b9695505050505050565b606080826001600160401b03811115610af657610af661411c565b604051908082528060200260200182016040528015610b1f578160200160208202803683370190505b5091506000610b567f00000000000000000000000000000000000000000000000000000000000000006001600160a01b0316611dee565b6001600160a01b031663ef5bac256040518163ffffffff1660e01b8152600401600060405180830381865afa158015610b93573d6000803e3d6000fd5b505050506040513d6000823e601f3d908101601f19168201604052610bbb91908101906143e6565b90506000610bc7611641565b8251604051631c76d8fb60e21b8152600481018a905260248101919091526001600160a01b0391909116906371db63ec90604401602060405180830381865afa158015610c18573d6000803e3d6000fd5b505050506040513d601f19601f82011682018060405250810190610c3c9190614875565b90506000610c50828888866020015161237e565b9050610c847f00000000000000000000000000000000000000000000000000000000000000006001600160a01b0316611fd1565b6001600160a01b0316636382b296826040518263ffffffff1660e01b8152600401610caf91906146f1565b600060405180830381865afa158015610ccc573d6000803e3d6000fd5b505050506040513d6000823e601f3d908101601f19168201604052610cf49190810190614988565b805190945015610d0657505050610dc0565b6000610d3a7f00000000000000000000000000000000000000000000000000000000000000006001600160a01b0316612088565b6001600160a01b031663aa52e2b4836040518263ffffffff1660e01b8152600401610d6591906146f1565b600060405180830381865afa158015610d82573d6000803e3d6000fd5b505050506040513d6000823e601f3d908101601f19168201604052610daa9190810190614749565b9050610db78888836124f0565b95509550505050505b935093915050565b6060610dd2611ba9565b6000610e067f00000000000000000000000000000000000000000000000000000000000000006001600160a01b0316611dee565b6001600160a01b031663ef5bac256040518163ffffffff1660e01b8152600401600060405180830381865afa158015610e43573d6000803e3d6000fd5b505050506040513d6000823e601f3d908101601f19168201604052610e6b91908101906143e6565b9050610e9f7f00000000000000000000000000000000000000000000000000000000000000006001600160a01b0316611e3d565b6001600160a01b031663c2913c2d826040518263ffffffff1660e01b8152600401610eca91906145db565b600060405180830381600087803b158015610ee457600080fd5b505af1158015610ef8573d6000803e3d6000fd5b50505050610f2e7f00000000000000000000000000000000000000000000000000000000000000006001600160a01b0316611e8c565b6001600160a01b031663372b7cb0826040518263ffffffff1660e01b8152600401610f5991906145db565b6020604051808303816000875af1158015610f78573d6000803e3d6000fd5b505050506040513d601f19601f82011682018060405250810190610f9c9190614650565b506000610fa7611641565b8251604051637cbc237360e01b81526004810189905260248101919091526001600160a01b039190911690637cbc2373906044016020604051808303816000875af1158015610ffa573d6000803e3d6000fd5b505050506040513d601f19601f8201168201806040525081019061101e9190614875565b905061104261103b6509184e72a000670de0b6b3a76400006149bc565b8790612611565b8111156040518060400160405280600381526020016203130360ec1b8152509061107f5760405162461bcd60e51b81526004016103629190614109565b5060405163079cc67960e41b8152336004820152602481018790527f00000000000000000000000000000000000000000000000000000000000000006001600160a01b0316906379cc679090604401600060405180830381600087803b1580156110e857600080fd5b505af11580156110fc573d6000803e3d6000fd5b505050506000611112828787866020015161237e565b90506111467f00000000000000000000000000000000000000000000000000000000000000006001600160a01b0316611fd1565b6001600160a01b031663a0763820826040518263ffffffff1660e01b815260040161117191906146f1565b600060405180830381600087803b15801561118b57600080fd5b505af115801561119f573d6000803e3d6000fd5b5050505060006111d77f00000000000000000000000000000000000000000000000000000000000000006001600160a01b0316612088565b6001600160a01b031663aa52e2b4836040518263ffffffff1660e01b815260040161120291906146f1565b600060405180830381865afa15801561121f573d6000803e3d6000fd5b505050506040513d6000823e601f3d908101601f191682016040526112479190810190614749565b9050611254878783612632565b9450336001600160a01b03167f6d3229cb4666d4d00dedddfe6e3e5fed2aae523479a1efd9d8b97a63a88ee3bf89858585604051611295949392919061488e565b60405180910390a2505050509392505050565b60606112b46002612766565b905090565b60006060806112c88787612773565b8051909350909150156112df5760009250506115de565b60006113137f00000000000000000000000000000000000000000000000000000000000000006001600160a01b0316611dee565b6001600160a01b031663ef5bac256040518163ffffffff1660e01b8152600401600060405180830381865afa158015611350573d6000803e3d6000fd5b505050506040513d6000823e601f3d908101601f1916820160405261137891908101906143e6565b9050600061138a838360200151611ed2565b90506113be7f00000000000000000000000000000000000000000000000000000000000000006001600160a01b0316611fd1565b6001600160a01b031663e2cc8679826040518263ffffffff1660e01b81526004016113e991906146f1565b600060405180830381865afa158015611406573d6000803e3d6000fd5b505050506040513d6000823e601f3d908101601f1916820160405261142e9190810190614988565b80519094501561144457600094505050506115de565b60006114787f00000000000000000000000000000000000000000000000000000000000000006001600160a01b0316612088565b6001600160a01b031663aa52e2b4836040518263ffffffff1660e01b81526004016114a391906146f1565b600060405180830381865afa1580156114c0573d6000803e3d6000fd5b505050506040513d6000823e601f3d908101601f191682016040526114e89190810190614749565b905060006114f5826120cd565b90506114ff611641565b845160405163616a1ed960e01b81526004810184905260248101919091526001600160a01b03919091169063616a1ed990604401602060405180830381865afa158015611550573d6000803e3d6000fd5b505050506040513d601f19601f820116820180604052508101906115749190614875565b9650888710156115a35750506040805180820190915260018152601960f91b602082015293506115de92505050565b6115ad8888612159565b156115d85750506040805180820190915260028152610d8d60f21b602082015293506115de92505050565b50505050505b94509492505050565b60008054604080518082019091526002815261033360f41b6020820152906001600160a01b0316331461162d5760405162461bcd60e51b81526004016103629190614109565b50611639600283612887565b90505b919050565b6040516321f8a72160e01b81526b50414d4d5f4144445245535360a01b60048201526000907f00000000000000000000000000000000000000000000000000000000000000006001600160a01b0316906321f8a72190602401602060405180830381865afa1580156116b7573d6000803e3d6000fd5b505050506040513d601f19601f820116820180604052508101906112b491906149cf565b61170d7f00000000000000000000000000000000000000000000000000000000000000006001600160a01b0316611e3d565b6001600160a01b0316336001600160a01b03161460405180604001604052806002815260200161033360f41b8152509061175a5760405162461bcd60e51b81526004016103629190614109565b50600061178f7f00000000000000000000000000000000000000000000000000000000000000006001600160a01b031661289c565b6040516340c10f1960e01b81526001600160a01b038083166004830152602482018590529192507f0000000000000000000000000000000000000000000000000000000000000000909116906340c10f1990604401600060405180830381600087803b1580156117fe57600080fd5b505af1158015611812573d6000803e3d6000fd5b505050505050565b6000805b8281101561189d5761183b84848381811061098957610989614704565b60405180604001604052806002815260200161333560f01b815250906118745760405162461bcd60e51b81526004016103629190614109565b5061188a848483818110610a0057610a00614704565b508061189581614730565b91505061181e565b50610ad18686866103d6565b60008054604080518082019091526002815261033360f41b6020820152906001600160a01b031633146118ef5760405162461bcd60e51b81526004016103629190614109565b506116396002836128e2565b600154600160a81b900460ff168061191d5750600154600160a01b900460ff16155b6119805760405162461bcd60e51b815260206004820152602e60248201527f496e697469616c697a61626c653a20636f6e747261637420697320616c72656160448201526d191e481a5b9a5d1a585b1a5e995960921b6064820152608401610362565b600154600160a81b900460ff161580156119aa576001805461ffff60a01b191661010160a01b1790555b6119b3826128f7565b80156119c7576001805460ff60a81b191690555b5050565b600054604080518082019091526002815261033360f41b6020820152906001600160a01b03163314611a105760405162461bcd60e51b81526004016103629190614109565b50604080518082019091526002815261333160f01b60208201526001600160a01b038216611a515760405162461bcd60e51b81526004016103629190614109565b50600180546001600160a01b0319166001600160a01b0383169081179091556040519081527f67235ba2e63c748a35b95c4f92a3bbc2a1389938170a5ce6c9add5d0b03a314a906020016103cb565b6040516321f8a72160e01b8152704759445f544f4b454e5f4144445245535360781b60048201526000906001600160a01b038316906321f8a721906024015b602060405180830381865afa158015611afc573d6000803e3d6000fd5b505050506040513d601f19601f8201168201806040525081019061163991906149cf565b6040516321f8a72160e01b81526e524553455256455f4144445245535360881b60048201526000906001600160a01b038316906321f8a72190602401611adf565b6040516321f8a72160e01b81527542414c414e4345525f5641554c545f4144445245535360501b60048201526000906001600160a01b038316906321f8a72190602401611adf565b604080516001808252818301909252600091816020015b6040805160a081018252600080825260208083018290529282018190526060820181905260808201528252600019909201910181611bc0579050509050600181600081518110611c1257611c12614704565b6020026020010151600001906003811115611c2f57611c2f6149ec565b90816003811115611c4257611c426149ec565b815250503081600081518110611c5a57611c5a614704565b60209081029190910101516001600160a01b039182166060909101526040516303a38fa160e21b81527f000000000000000000000000000000000000000000000000000000000000000090911690630e8e3e8490611cbc908490600401614a02565b600060405180830381600087803b158015611cd657600080fd5b505af1158015611cea573d6000803e3d6000fd5b5050505050565b60606000826001600160401b03811115611d0d57611d0d61411c565b604051908082528060200260200182016040528015611d5257816020015b6040805180820190915260008082526020820152815260200190600190039081611d2b5790505b50905060005b83811015611de45736858583818110611d7357611d73614704565b90506060020190506040518060400160405280826040016020810190611d999190614078565b6001600160a01b03168152602001611db08361294b565b815250838381518110611dc557611dc5614704565b6020026020010181905250508080611ddc90614730565b915050611d58565b5090505b92915050565b6040516321f8a72160e01b81527f524553455256455f4d414e414745525f4144445245535300000000000000000060048201526000906001600160a01b038316906321f8a72190602401611adf565b6040516321f8a72160e01b81527f53544557415244534849505f494e435f4144445245535300000000000000000060048201526000906001600160a01b038316906321f8a72190602401611adf565b6040516321f8a72160e01b8152734759445f5245434f564552595f4144445245535360601b60048201526000906001600160a01b038316906321f8a72190602401611adf565b6040805180820190915260608152600060208201526000604051806040016040528084516001600160401b03811115611f0d57611f0d61411c565b604051908082528060200260200182016040528015611f4657816020015b611f33613c57565b815260200190600190039081611f2b5790505b5081526001602090910152905060005b8351811015611de4576000848281518110611f7357611f73614704565b602002602001015190506040518060400160405280828152602001611f9c836000015189612b03565b90528351805184908110611fb257611fb2614704565b6020026020010181905250508080611fc990614730565b915050611f56565b6040516321f8a72160e01b81527f524f4f545f5341464554595f434845434b5f414444524553530000000000000060048201526000906001600160a01b038316906321f8a72190602401611adf565b6040516001600160a01b03831660248201526044810182905261208390849063a9059cbb60e01b906064015b60408051601f198184030181529190526020810180516001600160e01b03166001600160e01b031990931692909217909152612b71565b505050565b6040516321f8a72160e01b8152724645455f48414e444c45525f4144445245535360681b60048201526000906001600160a01b038316906321f8a72190602401611adf565b6000805b825151811015612153576000836000015182815181106120f3576120f3614704565b60200260200101519050600061211e8260000151602001518360200151612c4390919063ffffffff16565b825160600151909150612132908290612611565b61213c90856149bc565b93505050808061214b90614730565b9150506120d1565b50919050565b60008061218e7f00000000000000000000000000000000000000000000000000000000000000006001600160a01b0316612cab565b905080837f00000000000000000000000000000000000000000000000000000000000000006001600160a01b03166318160ddd6040518163ffffffff1660e01b8152600401602060405180830381865afa1580156121f0573d6000803e3d6000fd5b505050506040513d601f19601f820116820180604052508101906122149190614875565b61221e91906149bc565b111561222e576001915050611de8565b60006122636001600160a01b037f00000000000000000000000000000000000000000000000000000000000000001686612d36565b9050600061229a6001600160a01b037f00000000000000000000000000000000000000000000000000000000000000001683612ec1565b6040516370a0823160e01b81526001600160a01b038881166004830152919250829187917f0000000000000000000000000000000000000000000000000000000000000000909116906370a0823190602401602060405180830381865afa158015612309573d6000803e3d6000fd5b505050506040513d601f19601f8201168201806040525081019061232d9190614875565b61233791906149bc565b119695505050505050565b6001600160a01b038116600090815260018301602052604081205415155b9392505050565b60606123768484600085612fd8565b949350505050565b60408051808201909152606081526000602082015261239d8484613100565b6000604051806040016040528084516001600160401b038111156123c3576123c361411c565b6040519080825280602002602001820160405280156123fc57816020015b6123e9613c57565b8152602001906001900390816123e15790505b5081526020016000151581525090506000805b84518110156124a257600085828151811061242c5761242c614704565b60200260200101519050600080612445838c8c8c6131f5565b909250905061245481866149bc565b94506040518060400160405280848152602001838152508660000151858151811061248157612481614704565b6020026020010181905250505050808061249a90614730565b91505061240f565b50604080518082019091526002815261333160f01b6020820152670de0b6b3a764000082146124e45760405162461bcd60e51b81526004016103629190614109565b50909695505050505050565b606080836001600160401b0381111561250b5761250b61411c565b604051908082528060200260200182016040528015612534578160200160208202803683370190505b50915060005b84811015612608573686868381811061255557612555614704565b9050608002019050600061257f866000015183606001602081019061257a9190614078565b6132c7565b9050600061258d838361333d565b8051909650909150156125a35750505050610dc0565b82602001358110156125d35750506040805180820190915260018152601960f91b60208201529250610dc0915050565b808685815181106125e6576125e6614704565b602002602001018181525050505050808061260090614730565b91505061253a565b50935093915050565b60008061261e8385614a9d565b9050612376670de0b6b3a764000082614ab4565b6060826001600160401b0381111561264c5761264c61411c565b604051908082528060200260200182016040528015612675578160200160208202803683370190505b50905060005b8381101561275e57600085858381811061269757612697614704565b9050608002018036038101906126ad9190614ad6565b905060006126c3856000015183606001516132c7565b905060006126d1838361357c565b90508260200151811015604051806040016040528060018152602001601960f91b815250906127135760405162461bcd60e51b81526004016103629190614109565b508085858151811061272757612727614704565b60209081029190910101528251612748906001600160a01b03163383612020565b505050808061275690614730565b91505061267b565b509392505050565b606060006123608361375d565b606080826001600160401b0381111561278e5761278e61411c565b6040519080825280602002602001820160405280156127d357816020015b60408051808201909152600080825260208201528152602001906001900390816127ac5790505b50915060005b8381101561287e57368585838181106127f4576127f4614704565b90506060020190506000612807826137b9565b80519095509091501561281c57505050612880565b604051806040016040528083604001602081019061283a9190614078565b6001600160a01b031681526020018281525085848151811061285e5761285e614704565b60200260200101819052505050808061287690614730565b9150506127d9565b505b9250929050565b6000612360836001600160a01b03841661394a565b6040516321f8a72160e01b815273474f565f54524541535552595f4144445245535360601b60048201526000906001600160a01b038316906321f8a72190602401611adf565b6000612360836001600160a01b038416613a3d565b600080546001600160a01b0319166001600160a01b03831690811782556040805192835260208301919091527fde4b3f61490b74c0ed6237523974fe299126bbbf8a8a7482fd220104c59b0c8491016103cb565b60008061295e6060840160408501614078565b90506129873330602086018035906129769088614078565b6001600160a01b0316929190613a8c565b6001600160a01b03811661299e6020850185614078565b6001600160a01b0316036129b55750506020013590565b6000816001600160a01b0316636f307dc36040518163ffffffff1660e01b8152600401602060405180830381865afa1580156129f5573d6000803e3d6000fd5b505050506040513d601f19601f82011682018060405250810190612a1991906149cf565b90506001600160a01b038116612a326020860186614078565b6001600160a01b03161460405180604001604052806002815260200161333560f01b81525090612a755760405162461bcd60e51b81526004016103629190614109565b50612a8e6001600160a01b038216836020870135613aca565b604051631c57762b60e31b815260208501356004820152600060248201526001600160a01b0383169063e2bbb158906044016020604051808303816000875af1158015612adf573d6000803e3d6000fd5b505050506040513d601f19601f820116820180604052508101906123769190614875565b600080805b8351811015611de4576000848281518110612b2557612b25614704565b60200260200101519050856001600160a01b031681600001516001600160a01b031603612b5e576020810151612b5b90846149bc565b92505b5080612b6981614730565b915050612b08565b6000612bc6826040518060400160405280602081526020017f5361666545524332303a206c6f772d6c6576656c2063616c6c206661696c6564815250856001600160a01b03166123679092919063ffffffff16565b8051909150156120835780806020019051810190612be49190614650565b6120835760405162461bcd60e51b815260206004820152602a60248201527f5361666545524332303a204552433230206f7065726174696f6e20646964206e6044820152691bdd081cdd58d8d9595960b21b6064820152608401610362565b600060111960ff831601612c58575081611de8565b601260ff83161115612c8b57612c6f601283614b4a565b612c7a90600a614c3f565b612c849084614ab4565b9050611de8565b612c96826012614b4a565b612ca190600a614c3f565b612c849084614a9d565b60405163e964da1560e01b81527404759445f474c4f42414c5f535550504c595f43415605c1b600482015260001960248201526000906001600160a01b0383169063e964da1590604401602060405180830381865afa158015612d12573d6000803e3d6000fd5b505050506040513d601f19601f820116820180604052508101906116399190614875565b60405163696eb37560e01b81527f4341505f41555448454e5449434154494f4e5f4144445245535300000000000060048201526000906001600160a01b0384169063696eb37590602401602060405180830381865afa158015612d9d573d6000803e3d6000fd5b505050506040513d601f19601f82011682018060405250810190612dc19190614650565b612dcd57506000611de8565b6040516321f8a72160e01b81527f4341505f41555448454e5449434154494f4e5f4144445245535300000000000060048201526001600160a01b038416906321f8a72190602401602060405180830381865afa158015612e31573d6000803e3d6000fd5b505050506040513d601f19601f82011682018060405250810190612e5591906149cf565b604051630d15d41560e41b81526001600160a01b038481166004830152919091169063d15d415090602401602060405180830381865afa158015612e9d573d6000803e3d6000fd5b505050506040513d601f19601f820116820180604052508101906123609190614650565b60008115612f595760405163e964da1560e01b81527f4759445f41555448454e544943415445445f555345525f434150000000000000600482015260001960248201526001600160a01b0384169063e964da1590604401602060405180830381865afa158015612f35573d6000803e3d6000fd5b505050506040513d601f19601f82011682018060405250810190612c849190614875565b60405163e964da1560e01b81526b04759445f555345525f4341560a41b600482015260001960248201526001600160a01b0384169063e964da1590604401602060405180830381865afa158015612fb4573d6000803e3d6000fd5b505050506040513d601f19601f820116820180604052508101906123609190614875565b6060824710156130395760405162461bcd60e51b815260206004820152602660248201527f416464726573733a20696e73756666696369656e742062616c616e636520666f6044820152651c8818d85b1b60d21b6064820152608401610362565b843b6130875760405162461bcd60e51b815260206004820152601d60248201527f416464726573733a2063616c6c20746f206e6f6e2d636f6e74726163740000006044820152606401610362565b600080866001600160a01b031685876040516130a39190614c4e565b60006040518083038185875af1925050503d80600081146130e0576040519150601f19603f3d011682016040523d82523d6000602084013e6130e5565b606091505b50915091506130f5828286613b7c565b979650505050505050565b60005b81811015612083573683838381811061311e5761311e614704565b9050608002019050600082600161313591906149bc565b90505b838110156131e0573685858381811061315357613153614704565b905060800201905080606001602081019061316e9190614078565b6001600160a01b03166131876080850160608601614078565b6001600160a01b0316141560405180604001604052806002815260200161333160f01b815250906131cb5760405162461bcd60e51b81526004016103629190614109565b505080806131d890614730565b915050613138565b505080806131ed90614730565b915050613103565b60008060005b838110156132b8573685858381811061321657613216614704565b905060800201905087600001516001600160a01b031681606001602081019061323f9190614078565b6001600160a01b0316036132a557600061325d886040840135612611565b905060006132788a6060015183613bb590919063ffffffff16565b905060006132938b6020015183613c2090919063ffffffff16565b96505050506040013591506115de9050565b50806132b081614730565b9150506131fb565b50600096879650945050505050565b6000805b83518110156133335760008482815181106132e8576132e8614704565b60200260200101519050836001600160a01b03168160000151600001516001600160a01b03160361332057602001519150611de89050565b508061332b81614730565b9150506132cb565b5060009392505050565b600060608161335160808601868401614078565b90506001600160a01b03811661336a6020870187614078565b6001600160a01b031603613391575050604080516020810190915260008152829150612880565b806001600160a01b0316636f307dc36040518163ffffffff1660e01b8152600401602060405180830381865afa1580156133cf573d6000803e3d6000fd5b505050506040513d601f19601f820116820180604052508101906133f391906149cf565b6001600160a01b03166134096020870187614078565b6001600160a01b03161461343b575050604080518082019091526002815261333560f01b602082015260009150612880565b6040516370a0823160e01b81526001600160a01b037f000000000000000000000000000000000000000000000000000000000000000081166004830152600091908316906370a0823190602401602060405180830381865afa1580156134a5573d6000803e3d6000fd5b505050506040513d601f19601f820116820180604052508101906134c99190614875565b9050848110156134fb576000604051806040016040528060028152602001610ccd60f21b815250935093505050612880565b60405163cc04feff60e01b815260048101869052600060248201526001600160a01b0383169063cc04feff90604401600060405180830381865afa158015613547573d6000803e3d6000fd5b505050506040513d6000823e601f3d908101601f1916820160405261356f9190810190614c60565b9350935050509250929050565b60608201516040516313c5035360e31b81526001600160a01b03808316600483015260248201849052600092917f000000000000000000000000000000000000000000000000000000000000000090911690639e281a9890604401600060405180830381600087803b1580156135f157600080fd5b505af1158015613605573d6000803e3d6000fd5b50505050806001600160a01b031684600001516001600160a01b03160361362f5782915050611de8565b806001600160a01b0316636f307dc36040518163ffffffff1660e01b8152600401602060405180830381865afa15801561366d573d6000803e3d6000fd5b505050506040513d601f19601f8201168201806040525081019061369191906149cf565b6001600160a01b031684600001516001600160a01b03161460405180604001604052806002815260200161333560f01b815250906136e25760405162461bcd60e51b81526004016103629190614109565b50604051630441a3e760e41b815260048101849052600060248201526001600160a01b0382169063441a3e70906044016020604051808303816000875af1158015613731573d6000803e3d6000fd5b505050506040513d601f19601f820116820180604052508101906137559190614875565b915050611de8565b6060816000018054806020026020016040519081016040528092919081815260200182805480156137ad57602002820191906000526020600020905b815481526020019060010190808311613799575b50505050509050919050565b600060606137cc83820160408501614078565b6001600160a01b03166137e26020850185614078565b6001600160a01b0316036138085750506040805160208181019092526000815291013591565b600061381a6060850160408601614078565b9050806001600160a01b0316636f307dc36040518163ffffffff1660e01b8152600401602060405180830381865afa15801561385a573d6000803e3d6000fd5b505050506040513d601f19601f8201168201806040525081019061387e91906149cf565b6001600160a01b03166138946020860186614078565b6001600160a01b03160361392357604051632a8695b160e11b815260208501356004820152600060248201526001600160a01b0382169063550d2b6290604401600060405180830381865afa1580156138f1573d6000803e3d6000fd5b505050506040513d6000823e601f3d908101601f191682016040526139199190810190614c60565b9250925050915091565b600060405180604001604052806002815260200161333560f01b8152509250925050915091565b60008181526001830160205260408120548015613a3357600061396e600183614ca6565b855490915060009061398290600190614ca6565b90508181146139e75760008660000182815481106139a2576139a2614704565b90600052602060002001549050808760000184815481106139c5576139c5614704565b6000918252602080832090910192909255918252600188019052604090208390555b85548690806139f8576139f8614cb9565b600190038181906000526020600020016000905590558560010160008681526020019081526020016000206000905560019350505050611de8565b6000915050611de8565b6000818152600183016020526040812054613a8457508154600181810184556000848152602080822090930184905584548482528286019093526040902091909155611de8565b506000611de8565b6040516001600160a01b0380851660248301528316604482015260648101829052613ac49085906323b872dd60e01b9060840161204c565b50505050565b604051636eb1769f60e11b81523060048201526001600160a01b038381166024830152600091839186169063dd62ed3e90604401602060405180830381865afa158015613b1b573d6000803e3d6000fd5b505050506040513d601f19601f82011682018060405250810190613b3f9190614875565b613b4991906149bc565b6040516001600160a01b038516602482015260448101829052909150613ac490859063095ea7b360e01b9060640161204c565b60608315613b8b575081612360565b825115613b9b5782518084602001fd5b8160405162461bcd60e51b81526004016103629190614109565b604080518082019091526002815261323560f01b602082015260009082613bef5760405162461bcd60e51b81526004016103629190614109565b5082600003613c0057506000611de8565b6000613c14670de0b6b3a764000085614a9d565b90506137558382614ab4565b600060111960ff831601613c35575081611de8565b601260ff83161115613c4c57612c96601283614b4a565b612c6f826012614b4a565b6040518060400160405280613c6a613c77565b8152602001600081525090565b60405180610120016040528060006001600160a01b03168152602001600060ff16815260200160006001600160a01b0316815260200160008152602001613cdf6040518060800160405280600081526020016000815260200160008152602001600081525090565b8152602001600081526020016000815260200160008152602001606081525090565b60008083601f840112613d1357600080fd5b5081356001600160401b03811115613d2a57600080fd5b60208301915083602060608302850101111561288057600080fd5b600080600060408486031215613d5a57600080fd5b83356001600160401b03811115613d7057600080fd5b613d7c86828701613d01565b909790965060209590950135949350505050565b60008083601f840112613da257600080fd5b5081356001600160401b03811115613db957600080fd5b6020830191508360208260071b850101111561288057600080fd5b60008083601f840112613de657600080fd5b5081356001600160401b03811115613dfd57600080fd5b6020830191508360208260051b850101111561288057600080fd5b600080600080600060608688031215613e3057600080fd5b8535945060208601356001600160401b0380821115613e4e57600080fd5b613e5a89838a01613d90565b90965094506040880135915080821115613e7357600080fd5b50613e8088828901613dd4565b969995985093965092949392505050565b600081518084526020808501945080840160005b83811015613ec157815187529582019590820190600101613ea5565b509495945050505050565b6020815260006123606020830184613e91565b600080600060408486031215613ef457600080fd5b8335925060208401356001600160401b03811115613f1157600080fd5b613f1d86828701613d90565b9497909650939450505050565b60005b83811015613f45578181015183820152602001613f2d565b50506000910152565b60008151808452613f66816020860160208601613f2a565b601f01601f19169290920160200192915050565b604081526000613f8d6040830185613e91565b8281036020840152613f9f8185613f4e565b95945050505050565b6020808252825182820181905260009190848201906040850190845b818110156124e45783516001600160a01b031683529284019291840191600101613fc4565b6001600160a01b0381168114613ffe57600080fd5b50565b6000806000806060858703121561401757600080fd5b84356001600160401b0381111561402d57600080fd5b61403987828801613d01565b90955093505060208501359150604085013561405481613fe9565b939692955090935050565b8281526040602082015260006123766040830184613f4e565b60006020828403121561408a57600080fd5b813561236081613fe9565b6000602082840312156140a757600080fd5b5035919050565b6000806000806000606086880312156140c657600080fd5b85356001600160401b03808211156140dd57600080fd5b6140e989838a01613d01565b9097509550602088013594506040880135915080821115613e7357600080fd5b6020815260006123606020830184613f4e565b634e487b7160e01b600052604160045260246000fd5b604051606081016001600160401b03811182821017156141545761415461411c565b60405290565b60405161012081016001600160401b03811182821017156141545761415461411c565b604080519081016001600160401b03811182821017156141545761415461411c565b604051601f8201601f191681016001600160401b03811182821017156141c7576141c761411c565b604052919050565b60006001600160401b038211156141e8576141e861411c565b5060051b60200190565b805161163c81613fe9565b805160ff8116811461163c57600080fd5b60006080828403121561422057600080fd5b604051608081018181106001600160401b03821117156142425761424261411c565b8060405250809150825181526020830151602082015260408301516040820152606083015160608201525092915050565b8051801515811461163c57600080fd5b600082601f83011261429457600080fd5b815160206142a96142a4836141cf565b61419f565b828152606092830285018201928282019190878511156142c857600080fd5b8387015b8581101561431f5781818a0312156142e45760008081fd5b6142ec614132565b81516142f781613fe9565b8152614304828701614273565b818701526040828101519082015284529284019281016142cc565b5090979650505050505050565b6000610180828403121561433f57600080fd5b61434761415a565b9050614352826141f2565b8152614360602083016141fd565b6020820152614371604083016141f2565b60408201526060820151606082015261438d836080840161420e565b60808201526101008083015160a083015261012083015160c083015261014083015160e08301526101608301516001600160401b038111156143ce57600080fd5b6143da85828601614283565b82840152505092915050565b600060208083850312156143f957600080fd5b82516001600160401b038082111561441057600080fd5b908401906040828703121561442457600080fd5b61442c61417d565b82518152838301518281111561444157600080fd5b80840193505086601f84011261445657600080fd5b82516144646142a4826141cf565b81815260059190911b8401850190858101908983111561448357600080fd5b8686015b838110156144bb5780518681111561449f5760008081fd5b6144ad8c8a838b010161432c565b845250918701918701614487565b5095830195909552509695505050505050565b600081518084526020808501945080840160005b83811015613ec157815180516001600160a01b031688528381015115158489015260409081015190880152606090960195908201906001016144e2565b80516001600160a01b0316825260006101806020830151614545602086018260ff169052565b50604083015161456060408601826001600160a01b03169052565b5060608301516060850152608083015161459e6080860182805182526020810151602083015260408101516040830152606081015160608301525050565b5060a08301516101008581019190915260c084015161012086015260e08401516101408601528301516101608501829052613f9f828601826144ce565b60006020808352606083018451828501528185015160408086015281815180845260808701915060808160051b8801019350848301925060005b8181101561464357607f1988860301835261463185855161451f565b94509285019291850191600101614615565b5092979650505050505050565b60006020828403121561466257600080fd5b61236082614273565b60006040808401835182865281815180845260608801915060608160051b89010193506020808401935060005b828110156146d957898603605f19018452845180518888526146bc8989018261451f565b918401519784019790975295509381019392810192600101614698565b50968701511515979096019690965250949350505050565b602081526000612360602083018461466b565b634e487b7160e01b600052603260045260246000fd5b634e487b7160e01b600052601160045260246000fd5b6000600182016147425761474261471a565b5060010190565b6000602080838503121561475c57600080fd5b82516001600160401b038082111561477357600080fd5b908401906040828703121561478757600080fd5b61478f61417d565b82518281111561479e57600080fd5b8301601f810188136147af57600080fd5b80516147bd6142a4826141cf565b81815260059190911b8201860190868101908a8311156147dc57600080fd5b8784015b83811015614852578051878111156147f85760008081fd5b85016040818e03601f1901121561480f5760008081fd5b61481761417d565b8a820151898111156148295760008081fd5b6148378f8d8386010161432c565b825250604091909101518a82015283529188019188016147e0565b50845250614864915050838501614273565b848201528094505050505092915050565b60006020828403121561488757600080fd5b5051919050565b8481528360208201526080604082015260006148ad608083018561466b565b82810360608401526130f5818561466b565b60008235603e198336030181126148d557600080fd5b9190910192915050565b6000808335601e198436030181126148f657600080fd5b8301803591506001600160401b0382111561491057600080fd5b60200191503681900382131561288057600080fd5b600082601f83011261493657600080fd5b81516001600160401b0381111561494f5761494f61411c565b614962601f8201601f191660200161419f565b81815284602083860101111561497757600080fd5b612376826020830160208701613f2a565b60006020828403121561499a57600080fd5b81516001600160401b038111156149b057600080fd5b61237684828501614925565b80820180821115611de857611de861471a565b6000602082840312156149e157600080fd5b815161236081613fe9565b634e487b7160e01b600052602160045260246000fd5b60208082528251828201819052600091906040908185019086840185805b83811015614a8f57825180516004808210614a4857634e487b7160e01b855260218152602485fd5b508652808801516001600160a01b03908116898801528782015188880152606080830151821690880152608091820151169086015260a09094019391860191600101614a20565b509298975050505050505050565b8082028115828204841417611de857611de861471a565b600082614ad157634e487b7160e01b600052601260045260246000fd5b500490565b600060808284031215614ae857600080fd5b604051608081018181106001600160401b0382111715614b0a57614b0a61411c565b6040528235614b1881613fe9565b8082525060208301356020820152604083013560408201526060830135614b3e81613fe9565b60608201529392505050565b60ff8281168282160390811115611de857611de861471a565b600181815b8085111561287e578160001904821115614b8457614b8461471a565b80851615614b9157918102915b93841c9390800290614b68565b600082614bad57506001611de8565b81614bba57506000611de8565b8160018114614bd05760028114614bda57614bf6565b6001915050611de8565b60ff841115614beb57614beb61471a565b50506001821b611de8565b5060208310610133831016604e8410600b8410161715614c19575081810a611de8565b614c238383614b63565b8060001904821115614c3757614c3761471a565b029392505050565b600061236060ff841683614b9e565b600082516148d5818460208701613f2a565b60008060408385031215614c7357600080fd5b8251915060208301516001600160401b03811115614c9057600080fd5b614c9c85828601614925565b9150509250929050565b81810381811115611de857611de861471a565b634e487b7160e01b600052603160045260246000fdfea264697066735822122011246d38721549d664e890571efd70b05dbf40b40618c203b63fd7fcda541a2064736f6c63430008110033","bytecodeSha1":"479b88fea172e63849df7d42e7adf2a94fd1a6e9","compiler":{"evm_version":"london","optimizer":{"enabled":true,"runs":200},"version":"0.8.17+commit.8df45f5f"},"contractName":"Motherboard","language":"Solidity","natspec":{"kind":"dev","methods":{"acceptGovernance()":{"notice":"Called by the pending governor to approve the change"},"changeGovernor(address)":{"notice":"Changes the governor can only be called by the current governor"},"dryMint((address,uint256,address)[],uint256,address)":{"notice":"Simulates a mint to know whether it would succeed and how much would be minted The parameters are the same as the `mint` function Note: This does *not* include the action of the recovery module, if any!","params":{"account":"the account that wants to mint","assets":"the assets and associated amounts used to mint GYD","minReceivedAmount":"the minimum amount of GYD to be minted"},"returns":{"err":"a non-empty error message in case an error would happen when minting","mintedGYDAmount":"the amount that would be minted, or 0 if it an error would occur"}},"dryRedeem(uint256,(address,uint256,uint256,address)[])":{"notice":"Dry version of the `redeem` function exact outputs as specified by `tokens` and `amounts` Note: This does *not* include the action of the recovery module, if any!","params":{"assets":"the output tokens and associated amounts to return against GYD","gydToRedeem":"the maximum amount of GYD to redeem"},"returns":{"err":"a non-empty error message in case an error would happen when redeeming","outputAmounts":"the amounts receivd against the redeemed GYD"}},"governor()":{"notice":"Returns the current governor"},"gyroConfig()":{"notice":"Returns the address of the global configuration"},"mint((address,uint256,address)[],uint256)":{"notice":"Main minting function to be called by a depositor This mints using the exact input amount and mints at least `minMintedAmount` All the `inputTokens` should be approved for the motherboard to spend at least `inputAmounts` on behalf of the sender","params":{"assets":"the assets and associated amounts used to mint GYD","minReceivedAmount":"the minimum amount of GYD to be minted"},"returns":{"mintedGYDAmount":"GYD token minted amount"}},"mintStewardshipIncRewards(uint256)":{"notice":"Only callable from the reserve stewardship incentives module. Mints new GYD to the governance treasury."},"pamm()":{"notice":"Returns the address for the PAMM","returns":{"_0":"the PAMM address"}},"pendingGovernor()":{"notice":"Returns the pending governor"},"redeem(uint256,(address,uint256,uint256,address)[])":{"notice":"Main redemption function to be called by a withdrawer This redeems using at most `maxRedeemedAmount` of GYD and returns the exact outputs as specified by `tokens` and `amounts`","params":{"assets":"the output tokens and associated amounts to return against GYD","gydToRedeem":"the maximum amount of GYD to redeem"},"returns":{"outputAmounts":"the amounts receivd against the redeemed GYD"}},"reserve()":{"notice":"Returns the address for the reserve"}},"stateVariables":{"gydToken":{"details":"The GYD token is not upgradable so this will always return the same value","return":"the address of the GYD token","returns":{"_0":"the address of the GYD token"}},"gyroConfig":{"return":"the global configuration address","returns":{"_0":"the global configuration address"}},"reserve":{"return":"the address of the reserve","returns":{"_0":"the address of the reserve"}}},"title":"MotherBoard is the central contract connecting the different pieces of the Gyro protocol","version":1},"opcodes":"PUSH1 0x80 PUSH1 0x40 MSTORE CALLVALUE DUP1 ISZERO PUSH2 0x10 JUMPI PUSH1 0x0 DUP1 REVERT JUMPDEST POP PUSH1 0x4 CALLDATASIZE LT PUSH2 0x121 JUMPI PUSH1 0x0 CALLDATALOAD PUSH1 0xE0 SHR DUP1 PUSH4 0x6E4B7BF6 GT PUSH2 0xAD JUMPI DUP1 PUSH4 0xC4D66DE8 GT PUSH2 0x71 JUMPI DUP1 PUSH4 0xC4D66DE8 EQ PUSH2 0x296 JUMPI DUP1 PUSH4 0xCD3293DE EQ PUSH2 0x2A9 JUMPI DUP1 PUSH4 0xE3056A34 EQ PUSH2 0x2D0 JUMPI DUP1 PUSH4 0xE4C0AAF4 EQ PUSH2 0x2E3 JUMPI DUP1 PUSH4 0xFBF60028 EQ PUSH2 0x2F6 JUMPI PUSH1 0x0 DUP1 REVERT JUMPDEST DUP1 PUSH4 0x6E4B7BF6 EQ PUSH2 0x232 JUMPI DUP1 PUSH4 0x85B0C781 EQ PUSH2 0x255 JUMPI DUP1 PUSH4 0x900A043F EQ PUSH2 0x25D JUMPI DUP1 PUSH4 0xA75963EA EQ PUSH2 0x270 JUMPI DUP1 PUSH4 0xC1DA5137 EQ PUSH2 0x283 JUMPI PUSH1 0x0 DUP1 REVERT JUMPDEST DUP1 PUSH4 0x466342CF GT PUSH2 0xF4 JUMPI DUP1 PUSH4 0x466342CF EQ PUSH2 0x1A8 JUMPI DUP1 PUSH4 0x4D8CA4C5 EQ PUSH2 0x1C8 JUMPI DUP1 PUSH4 0x4E4D822A EQ PUSH2 0x1E9 JUMPI DUP1 PUSH4 0x52E45422 EQ PUSH2 0x1FC JUMPI DUP1 PUSH4 0x56529403 EQ PUSH2 0x211 JUMPI PUSH1 0x0 DUP1 REVERT JUMPDEST DUP1 PUSH4 0xC340A24 EQ PUSH2 0x126 JUMPI DUP1 PUSH4 0x238EFCBC EQ PUSH2 0x156 JUMPI DUP1 PUSH4 0x2799C6CF EQ PUSH2 0x160 JUMPI DUP1 PUSH4 0x44BBDB55 EQ PUSH2 0x181 JUMPI JUMPDEST PUSH1 0x0 DUP1 REVERT JUMPDEST PUSH1 0x0 SLOAD PUSH2 0x139 SWAP1 PUSH1 0x1 PUSH1 0x1 PUSH1 0xA0 SHL SUB AND DUP2 JUMP JUMPDEST PUSH1 0x40 MLOAD PUSH1 0x1 PUSH1 0x1 PUSH1 0xA0 SHL SUB SWAP1 SWAP2 AND DUP2 MSTORE PUSH1 0x20 ADD JUMPDEST PUSH1 0x40 MLOAD DUP1 SWAP2 SUB SWAP1 RETURN JUMPDEST PUSH2 0x15E PUSH2 0x31D JUMP JUMPDEST STOP JUMPDEST PUSH2 0x173 PUSH2 0x16E CALLDATASIZE PUSH1 0x4 PUSH2 0x3D45 JUMP JUMPDEST PUSH2 0x3D6 JUMP JUMPDEST PUSH1 0x40 MLOAD SWAP1 DUP2 MSTORE PUSH1 0x20 ADD PUSH2 0x14D JUMP JUMPDEST PUSH2 0x139 PUSH32 0x0 DUP2 JUMP JUMPDEST PUSH2 0x1BB PUSH2 0x1B6 CALLDATASIZE PUSH1 0x4 PUSH2 0x3E18 JUMP JUMPDEST PUSH2 0x967 JUMP JUMPDEST PUSH1 0x40 MLOAD PUSH2 0x14D SWAP2 SWAP1 PUSH2 0x3ECC JUMP JUMPDEST PUSH2 0x1DB PUSH2 0x1D6 CALLDATASIZE PUSH1 0x4 PUSH2 0x3EDF JUMP JUMPDEST PUSH2 0xADB JUMP JUMPDEST PUSH1 0x40 MLOAD PUSH2 0x14D SWAP3 SWAP2 SWAP1 PUSH2 0x3F7A JUMP JUMPDEST PUSH2 0x1BB PUSH2 0x1F7 CALLDATASIZE PUSH1 0x4 PUSH2 0x3EDF JUMP JUMPDEST PUSH2 0xDC8 JUMP JUMPDEST PUSH2 0x204 PUSH2 0x12A8 JUMP JUMPDEST PUSH1 0x40 MLOAD PUSH2 0x14D SWAP2 SWAP1 PUSH2 0x3FA8 JUMP JUMPDEST PUSH2 0x224 PUSH2 0x21F CALLDATASIZE PUSH1 0x4 PUSH2 0x4001 JUMP JUMPDEST PUSH2 0x12B9 JUMP JUMPDEST PUSH1 0x40 MLOAD PUSH2 0x14D SWAP3 SWAP2 SWAP1 PUSH2 0x405F JUMP JUMPDEST PUSH2 0x245 PUSH2 0x240 CALLDATASIZE PUSH1 0x4 PUSH2 0x4078 JUMP JUMPDEST PUSH2 0x15E7 JUMP JUMPDEST PUSH1 0x40 MLOAD SWAP1 ISZERO ISZERO DUP2 MSTORE PUSH1 0x20 ADD PUSH2 0x14D JUMP JUMPDEST PUSH2 0x139 PUSH2 0x1641 JUMP JUMPDEST PUSH2 0x15E PUSH2 0x26B CALLDATASIZE PUSH1 0x4 PUSH2 0x4095 JUMP JUMPDEST PUSH2 0x16DB JUMP JUMPDEST PUSH2 0x173 PUSH2 0x27E CALLDATASIZE PUSH1 0x4 PUSH2 0x40AE JUMP JUMPDEST PUSH2 0x181A JUMP JUMPDEST PUSH2 0x245 PUSH2 0x291 CALLDATASIZE PUSH1 0x4 PUSH2 0x4078 JUMP JUMPDEST PUSH2 0x18A9 JUMP JUMPDEST PUSH2 0x15E PUSH2 0x2A4 CALLDATASIZE PUSH1 0x4 PUSH2 0x4078 JUMP JUMPDEST PUSH2 0x18FB JUMP JUMPDEST PUSH2 0x139 PUSH32 0x0 DUP2 JUMP JUMPDEST PUSH1 0x1 SLOAD PUSH2 0x139 SWAP1 PUSH1 0x1 PUSH1 0x1 PUSH1 0xA0 SHL SUB AND DUP2 JUMP JUMPDEST PUSH2 0x15E PUSH2 0x2F1 CALLDATASIZE PUSH1 0x4 PUSH2 0x4078 JUMP JUMPDEST PUSH2 0x19CB JUMP JUMPDEST PUSH2 0x139 PUSH32 0x0 DUP2 JUMP JUMPDEST PUSH1 0x1 SLOAD PUSH1 0x40 DUP1 MLOAD DUP1 DUP3 ADD SWAP1 SWAP2 MSTORE PUSH1 0x2 DUP2 MSTORE PUSH2 0x333 PUSH1 0xF4 SHL PUSH1 0x20 DUP3 ADD MSTORE SWAP1 PUSH1 0x1 PUSH1 0x1 PUSH1 0xA0 SHL SUB AND CALLER EQ PUSH2 0x36B JUMPI PUSH1 0x40 MLOAD PUSH3 0x461BCD PUSH1 0xE5 SHL DUP2 MSTORE PUSH1 0x4 ADD PUSH2 0x362 SWAP2 SWAP1 PUSH2 0x4109 JUMP JUMPDEST PUSH1 0x40 MLOAD DUP1 SWAP2 SUB SWAP1 REVERT JUMPDEST POP PUSH1 0x0 DUP1 SLOAD PUSH1 0x1 DUP1 SLOAD PUSH1 0x1 PUSH1 0x1 PUSH1 0xA0 SHL SUB NOT DUP1 DUP5 AND PUSH1 0x1 PUSH1 0x1 PUSH1 0xA0 SHL SUB DUP1 DUP5 AND SWAP2 SWAP1 SWAP2 OR SWAP1 SWAP6 SSTORE AND SWAP1 SSTORE PUSH1 0x40 DUP1 MLOAD SWAP3 SWAP1 SWAP2 AND DUP1 DUP4 MSTORE CALLER PUSH1 0x20 DUP5 ADD MSTORE SWAP2 PUSH32 0xDE4B3F61490B74C0ED6237523974FE299126BBBF8A8A7482FD220104C59B0C84 SWAP2 ADD JUMPDEST PUSH1 0x40 MLOAD DUP1 SWAP2 SUB SWAP1 LOG1 POP JUMP JUMPDEST PUSH1 0x0 PUSH2 0x3E0 PUSH2 0x1BA9 JUMP JUMPDEST PUSH1 0x0 PUSH2 0x3EC DUP6 DUP6 PUSH2 0x1CF1 JUMP JUMPDEST SWAP1 POP PUSH1 0x0 PUSH2 0x422 PUSH32 0x0 PUSH1 0x1 PUSH1 0x1 PUSH1 0xA0 SHL SUB AND PUSH2 0x1DEE JUMP JUMPDEST PUSH1 0x1 PUSH1 0x1 PUSH1 0xA0 SHL SUB AND PUSH4 0xEF5BAC25 PUSH1 0x40 MLOAD DUP2 PUSH4 0xFFFFFFFF AND PUSH1 0xE0 SHL DUP2 MSTORE PUSH1 0x4 ADD PUSH1 0x0 PUSH1 0x40 MLOAD DUP1 DUP4 SUB DUP2 DUP7 GAS STATICCALL ISZERO DUP1 ISZERO PUSH2 0x45F JUMPI RETURNDATASIZE PUSH1 0x0 DUP1 RETURNDATACOPY RETURNDATASIZE PUSH1 0x0 REVERT JUMPDEST POP POP POP POP PUSH1 0x40 MLOAD RETURNDATASIZE PUSH1 0x0 DUP3 RETURNDATACOPY PUSH1 0x1F RETURNDATASIZE SWAP1 DUP2 ADD PUSH1 0x1F NOT AND DUP3 ADD PUSH1 0x40 MSTORE PUSH2 0x487 SWAP2 SWAP1 DUP2 ADD SWAP1 PUSH2 0x43E6 JUMP JUMPDEST SWAP1 POP PUSH2 0x4BB PUSH32 0x0 PUSH1 0x1 PUSH1 0x1 PUSH1 0xA0 SHL SUB AND PUSH2 0x1E3D JUMP JUMPDEST PUSH1 0x1 PUSH1 0x1 PUSH1 0xA0 SHL SUB AND PUSH4 0xC2913C2D DUP3 PUSH1 0x40 MLOAD DUP3 PUSH4 0xFFFFFFFF AND PUSH1 0xE0 SHL DUP2 MSTORE PUSH1 0x4 ADD PUSH2 0x4E6 SWAP2 SWAP1 PUSH2 0x45DB JUMP JUMPDEST PUSH1 0x0 PUSH1 0x40 MLOAD DUP1 DUP4 SUB DUP2 PUSH1 0x0 DUP8 DUP1 EXTCODESIZE ISZERO DUP1 ISZERO PUSH2 0x500 JUMPI PUSH1 0x0 DUP1 REVERT JUMPDEST POP GAS CALL ISZERO DUP1 ISZERO PUSH2 0x514 JUMPI RETURNDATASIZE PUSH1 0x0 DUP1 RETURNDATACOPY RETURNDATASIZE PUSH1 0x0 REVERT JUMPDEST POP POP POP POP PUSH2 0x54A PUSH32 0x0 PUSH1 0x1 PUSH1 0x1 PUSH1 0xA0 SHL SUB AND PUSH2 0x1E8C JUMP JUMPDEST PUSH1 0x1 PUSH1 0x1 PUSH1 0xA0 SHL SUB AND PUSH4 0x372B7CB0 DUP3 PUSH1 0x40 MLOAD DUP3 PUSH4 0xFFFFFFFF AND PUSH1 0xE0 SHL DUP2 MSTORE PUSH1 0x4 ADD PUSH2 0x575 SWAP2 SWAP1 PUSH2 0x45DB JUMP JUMPDEST PUSH1 0x20 PUSH1 0x40 MLOAD DUP1 DUP4 SUB DUP2 PUSH1 0x0 DUP8 GAS CALL ISZERO DUP1 ISZERO PUSH2 0x594 JUMPI RETURNDATASIZE PUSH1 0x0 DUP1 RETURNDATACOPY RETURNDATASIZE PUSH1 0x0 REVERT JUMPDEST POP POP POP POP PUSH1 0x40 MLOAD RETURNDATASIZE PUSH1 0x1F NOT PUSH1 0x1F DUP3 ADD AND DUP3 ADD DUP1 PUSH1 0x40 MSTORE POP DUP2 ADD SWAP1 PUSH2 0x5B8 SWAP2 SWAP1 PUSH2 0x4650 JUMP JUMPDEST POP PUSH1 0x0 PUSH2 0x5C9 DUP4 DUP4 PUSH1 0x20 ADD MLOAD PUSH2 0x1ED2 JUMP JUMPDEST SWAP1 POP PUSH2 0x5FD PUSH32 0x0 PUSH1 0x1 PUSH1 0x1 PUSH1 0xA0 SHL SUB AND PUSH2 0x1FD1 JUMP JUMPDEST PUSH1 0x1 PUSH1 0x1 PUSH1 0xA0 SHL SUB AND PUSH4 0xD625436C DUP3 PUSH1 0x40 MLOAD DUP3 PUSH4 0xFFFFFFFF AND PUSH1 0xE0 SHL DUP2 MSTORE PUSH1 0x4 ADD PUSH2 0x628 SWAP2 SWAP1 PUSH2 0x46F1 JUMP JUMPDEST PUSH1 0x0 PUSH1 0x40 MLOAD DUP1 DUP4 SUB DUP2 PUSH1 0x0 DUP8 DUP1 EXTCODESIZE ISZERO DUP1 ISZERO PUSH2 0x642 JUMPI PUSH1 0x0 DUP1 REVERT JUMPDEST POP GAS CALL ISZERO DUP1 ISZERO PUSH2 0x656 JUMPI RETURNDATASIZE PUSH1 0x0 DUP1 RETURNDATACOPY RETURNDATASIZE PUSH1 0x0 REVERT JUMPDEST POP POP POP POP PUSH1 0x0 JUMPDEST DUP4 MLOAD DUP2 LT ISZERO PUSH2 0x6DD JUMPI PUSH1 0x0 DUP5 DUP3 DUP2 MLOAD DUP2 LT PUSH2 0x67A JUMPI PUSH2 0x67A PUSH2 0x4704 JUMP JUMPDEST PUSH1 0x20 MUL PUSH1 0x20 ADD ADD MLOAD SWAP1 POP PUSH2 0x6CA PUSH32 0x0 DUP3 PUSH1 0x20 ADD MLOAD DUP4 PUSH1 0x0 ADD MLOAD PUSH1 0x1 PUSH1 0x1 PUSH1 0xA0 SHL SUB AND PUSH2 0x2020 SWAP1 SWAP3 SWAP2 SWAP1 PUSH4 0xFFFFFFFF AND JUMP JUMPDEST POP DUP1 PUSH2 0x6D5 DUP2 PUSH2 0x4730 JUMP JUMPDEST SWAP2 POP POP PUSH2 0x65D JUMP JUMPDEST POP PUSH1 0x0 PUSH2 0x712 PUSH32 0x0 PUSH1 0x1 PUSH1 0x1 PUSH1 0xA0 SHL SUB AND PUSH2 0x2088 JUMP JUMPDEST PUSH1 0x1 PUSH1 0x1 PUSH1 0xA0 SHL SUB AND PUSH4 0xAA52E2B4 DUP4 PUSH1 0x40 MLOAD DUP3 PUSH4 0xFFFFFFFF AND PUSH1 0xE0 SHL DUP2 MSTORE PUSH1 0x4 ADD PUSH2 0x73D SWAP2 SWAP1 PUSH2 0x46F1 JUMP JUMPDEST PUSH1 0x0 PUSH1 0x40 MLOAD DUP1 DUP4 SUB DUP2 DUP7 GAS STATICCALL ISZERO DUP1 ISZERO PUSH2 0x75A JUMPI RETURNDATASIZE PUSH1 0x0 DUP1 RETURNDATACOPY RETURNDATASIZE PUSH1 0x0 REVERT JUMPDEST POP POP POP POP PUSH1 0x40 MLOAD RETURNDATASIZE PUSH1 0x0 DUP3 RETURNDATACOPY PUSH1 0x1F RETURNDATASIZE SWAP1 DUP2 ADD PUSH1 0x1F NOT AND DUP3 ADD PUSH1 0x40 MSTORE PUSH2 0x782 SWAP2 SWAP1 DUP2 ADD SWAP1 PUSH2 0x4749 JUMP JUMPDEST SWAP1 POP PUSH1 0x0 PUSH2 0x78F DUP3 PUSH2 0x20CD JUMP JUMPDEST SWAP1 POP PUSH2 0x799 PUSH2 0x1641 JUMP JUMPDEST DUP5 MLOAD PUSH1 0x40 MLOAD PUSH4 0xD9778E5 PUSH1 0xE1 SHL DUP2 MSTORE PUSH1 0x4 DUP2 ADD DUP5 SWAP1 MSTORE PUSH1 0x24 DUP2 ADD SWAP2 SWAP1 SWAP2 MSTORE PUSH1 0x1 PUSH1 0x1 PUSH1 0xA0 SHL SUB SWAP2 SWAP1 SWAP2 AND SWAP1 PUSH4 0x1B2EF1CA SWAP1 PUSH1 0x44 ADD PUSH1 0x20 PUSH1 0x40 MLOAD DUP1 DUP4 SUB DUP2 PUSH1 0x0 DUP8 GAS CALL ISZERO DUP1 ISZERO PUSH2 0x7EC JUMPI RETURNDATASIZE PUSH1 0x0 DUP1 RETURNDATACOPY RETURNDATASIZE PUSH1 0x0 REVERT JUMPDEST POP POP POP POP PUSH1 0x40 MLOAD RETURNDATASIZE PUSH1 0x1F NOT PUSH1 0x1F DUP3 ADD AND DUP3 ADD DUP1 PUSH1 0x40 MSTORE POP DUP2 ADD SWAP1 PUSH2 0x810 SWAP2 SWAP1 PUSH2 0x4875 JUMP JUMPDEST SWAP6 POP DUP7 DUP7 LT ISZERO PUSH1 0x40 MLOAD DUP1 PUSH1 0x40 ADD PUSH1 0x40 MSTORE DUP1 PUSH1 0x1 DUP2 MSTORE PUSH1 0x20 ADD PUSH1 0x19 PUSH1 0xF9 SHL DUP2 MSTORE POP SWAP1 PUSH2 0x84E JUMPI PUSH1 0x40 MLOAD PUSH3 0x461BCD PUSH1 0xE5 SHL DUP2 MSTORE PUSH1 0x4 ADD PUSH2 0x362 SWAP2 SWAP1 PUSH2 0x4109 JUMP JUMPDEST POP PUSH2 0x859 CALLER DUP8 PUSH2 0x2159 JUMP JUMPDEST ISZERO PUSH1 0x40 MLOAD DUP1 PUSH1 0x40 ADD PUSH1 0x40 MSTORE DUP1 PUSH1 0x2 DUP2 MSTORE PUSH1 0x20 ADD PUSH2 0xD8D PUSH1 0xF2 SHL DUP2 MSTORE POP SWAP1 PUSH2 0x893 JUMPI PUSH1 0x40 MLOAD PUSH3 0x461BCD PUSH1 0xE5 SHL DUP2 MSTORE PUSH1 0x4 ADD PUSH2 0x362 SWAP2 SWAP1 PUSH2 0x4109 JUMP JUMPDEST POP PUSH1 0x40 MLOAD PUSH4 0x40C10F19 PUSH1 0xE0 SHL DUP2 MSTORE CALLER PUSH1 0x4 DUP3 ADD MSTORE PUSH1 0x24 DUP2 ADD DUP8 SWAP1 MSTORE PUSH32 0x0 PUSH1 0x1 PUSH1 0x1 PUSH1 0xA0 SHL SUB AND SWAP1 PUSH4 0x40C10F19 SWAP1 PUSH1 0x44 ADD PUSH1 0x0 PUSH1 0x40 MLOAD DUP1 DUP4 SUB DUP2 PUSH1 0x0 DUP8 DUP1 EXTCODESIZE ISZERO DUP1 ISZERO PUSH2 0x8FC JUMPI PUSH1 0x0 DUP1 REVERT JUMPDEST POP GAS CALL ISZERO DUP1 ISZERO PUSH2 0x910 JUMPI RETURNDATASIZE PUSH1 0x0 DUP1 RETURNDATACOPY RETURNDATASIZE PUSH1 0x0 REVERT JUMPDEST POP POP POP POP CALLER PUSH1 0x1 PUSH1 0x1 PUSH1 0xA0 SHL SUB AND PUSH32 0x5FCB10796ED65FD4C9835CA009354CF2BFB5CAA9B49A3ACFCE1243B81AD36271 DUP8 DUP4 DUP7 DUP7 PUSH1 0x40 MLOAD PUSH2 0x953 SWAP5 SWAP4 SWAP3 SWAP2 SWAP1 PUSH2 0x488E JUMP JUMPDEST PUSH1 0x40 MLOAD DUP1 SWAP2 SUB SWAP1 LOG2 POP POP POP POP POP SWAP4 SWAP3 POP POP POP JUMP JUMPDEST PUSH1 0x60 PUSH1 0x0 JUMPDEST DUP3 DUP2 LT ISZERO PUSH2 0xAC5 JUMPI PUSH2 0x9B1 DUP5 DUP5 DUP4 DUP2 DUP2 LT PUSH2 0x989 JUMPI PUSH2 0x989 PUSH2 0x4704 JUMP JUMPDEST SWAP1 POP PUSH1 0x20 MUL DUP2 ADD SWAP1 PUSH2 0x99B SWAP2 SWAP1 PUSH2 0x48BF JUMP JUMPDEST PUSH2 0x9A9 SWAP1 PUSH1 0x20 DUP2 ADD SWAP1 PUSH2 0x4078 JUMP JUMPDEST PUSH1 0x2 SWAP1 PUSH2 0x2342 JUMP JUMPDEST PUSH1 0x40 MLOAD DUP1 PUSH1 0x40 ADD PUSH1 0x40 MSTORE DUP1 PUSH1 0x2 DUP2 MSTORE PUSH1 0x20 ADD PUSH2 0x3335 PUSH1 0xF0 SHL DUP2 MSTORE POP SWAP1 PUSH2 0x9EA JUMPI PUSH1 0x40 MLOAD PUSH3 0x461BCD PUSH1 0xE5 SHL DUP2 MSTORE PUSH1 0x4 ADD PUSH2 0x362 SWAP2 SWAP1 PUSH2 0x4109 JUMP JUMPDEST POP PUSH2 0xAB2 DUP5 DUP5 DUP4 DUP2 DUP2 LT PUSH2 0xA00 JUMPI PUSH2 0xA00 PUSH2 0x4704 JUMP JUMPDEST SWAP1 POP PUSH1 0x20 MUL DUP2 ADD SWAP1 PUSH2 0xA12 SWAP2 SWAP1 PUSH2 0x48BF JUMP JUMPDEST PUSH2 0xA20 SWAP1 PUSH1 0x20 DUP2 ADD SWAP1 PUSH2 0x48DF JUMP JUMPDEST DUP1 DUP1 PUSH1 0x1F ADD PUSH1 0x20 DUP1 SWAP2 DIV MUL PUSH1 0x20 ADD PUSH1 0x40 MLOAD SWAP1 DUP2 ADD PUSH1 0x40 MSTORE DUP1 SWAP4 SWAP3 SWAP2 SWAP1 DUP2 DUP2 MSTORE PUSH1 0x20 ADD DUP4 DUP4 DUP1 DUP3 DUP5 CALLDATACOPY PUSH1 0x0 SWAP3 ADD SWAP2 SWAP1 SWAP2 MSTORE POP POP PUSH1 0x40 DUP1 MLOAD DUP1 DUP3 ADD SWAP1 SWAP2 MSTORE PUSH1 0x3 DUP2 MSTORE PUSH3 0x313031 PUSH1 0xE8 SHL PUSH1 0x20 DUP3 ADD MSTORE SWAP2 POP DUP8 SWAP1 POP DUP7 DUP6 DUP2 DUP2 LT PUSH2 0xA82 JUMPI PUSH2 0xA82 PUSH2 0x4704 JUMP JUMPDEST SWAP1 POP PUSH1 0x20 MUL DUP2 ADD SWAP1 PUSH2 0xA94 SWAP2 SWAP1 PUSH2 0x48BF JUMP JUMPDEST PUSH2 0xAA2 SWAP1 PUSH1 0x20 DUP2 ADD SWAP1 PUSH2 0x4078 JUMP JUMPDEST PUSH1 0x1 PUSH1 0x1 PUSH1 0xA0 SHL SUB AND SWAP2 SWAP1 PUSH2 0x2367 JUMP JUMPDEST POP DUP1 PUSH2 0xABD DUP2 PUSH2 0x4730 JUMP JUMPDEST SWAP2 POP POP PUSH2 0x96C JUMP JUMPDEST POP PUSH2 0xAD1 DUP7 DUP7 DUP7 PUSH2 0xDC8 JUMP JUMPDEST SWAP7 SWAP6 POP POP POP POP POP POP JUMP JUMPDEST PUSH1 0x60 DUP1 DUP3 PUSH1 0x1 PUSH1 0x1 PUSH1 0x40 SHL SUB DUP2 GT ISZERO PUSH2 0xAF6 JUMPI PUSH2 0xAF6 PUSH2 0x411C JUMP JUMPDEST PUSH1 0x40 MLOAD SWAP1 DUP1 DUP3 MSTORE DUP1 PUSH1 0x20 MUL PUSH1 0x20 ADD DUP3 ADD PUSH1 0x40 MSTORE DUP1 ISZERO PUSH2 0xB1F JUMPI DUP2 PUSH1 0x20 ADD PUSH1 0x20 DUP3 MUL DUP1 CALLDATASIZE DUP4 CALLDATACOPY ADD SWAP1 POP JUMPDEST POP SWAP2 POP PUSH1 0x0 PUSH2 0xB56 PUSH32 0x0 PUSH1 0x1 PUSH1 0x1 PUSH1 0xA0 SHL SUB AND PUSH2 0x1DEE JUMP JUMPDEST PUSH1 0x1 PUSH1 0x1 PUSH1 0xA0 SHL SUB AND PUSH4 0xEF5BAC25 PUSH1 0x40 MLOAD DUP2 PUSH4 0xFFFFFFFF AND PUSH1 0xE0 SHL DUP2 MSTORE PUSH1 0x4 ADD PUSH1 0x0 PUSH1 0x40 MLOAD DUP1 DUP4 SUB DUP2 DUP7 GAS STATICCALL ISZERO DUP1 ISZERO PUSH2 0xB93 JUMPI RETURNDATASIZE PUSH1 0x0 DUP1 RETURNDATACOPY RETURNDATASIZE PUSH1 0x0 REVERT JUMPDEST POP POP POP POP PUSH1 0x40 MLOAD RETURNDATASIZE PUSH1 0x0 DUP3 RETURNDATACOPY PUSH1 0x1F RETURNDATASIZE SWAP1 DUP2 ADD PUSH1 0x1F NOT AND DUP3 ADD PUSH1 0x40 MSTORE PUSH2 0xBBB SWAP2 SWAP1 DUP2 ADD SWAP1 PUSH2 0x43E6 JUMP JUMPDEST SWAP1 POP PUSH1 0x0 PUSH2 0xBC7 PUSH2 0x1641 JUMP JUMPDEST DUP3 MLOAD PUSH1 0x40 MLOAD PUSH4 0x1C76D8FB PUSH1 0xE2 SHL DUP2 MSTORE PUSH1 0x4 DUP2 ADD DUP11 SWAP1 MSTORE PUSH1 0x24 DUP2 ADD SWAP2 SWAP1 SWAP2 MSTORE PUSH1 0x1 PUSH1 0x1 PUSH1 0xA0 SHL SUB SWAP2 SWAP1 SWAP2 AND SWAP1 PUSH4 0x71DB63EC SWAP1 PUSH1 0x44 ADD PUSH1 0x20 PUSH1 0x40 MLOAD DUP1 DUP4 SUB DUP2 DUP7 GAS STATICCALL ISZERO DUP1 ISZERO PUSH2 0xC18 JUMPI RETURNDATASIZE PUSH1 0x0 DUP1 RETURNDATACOPY RETURNDATASIZE PUSH1 0x0 REVERT JUMPDEST POP POP POP POP PUSH1 0x40 MLOAD RETURNDATASIZE PUSH1 0x1F NOT PUSH1 0x1F DUP3 ADD AND DUP3 ADD DUP1 PUSH1 0x40 MSTORE POP DUP2 ADD SWAP1 PUSH2 0xC3C SWAP2 SWAP1 PUSH2 0x4875 JUMP JUMPDEST SWAP1 POP PUSH1 0x0 PUSH2 0xC50 DUP3 DUP9 DUP9 DUP7 PUSH1 0x20 ADD MLOAD PUSH2 0x237E JUMP JUMPDEST SWAP1 POP PUSH2 0xC84 PUSH32 0x0 PUSH1 0x1 PUSH1 0x1 PUSH1 0xA0 SHL SUB AND PUSH2 0x1FD1 JUMP JUMPDEST PUSH1 0x1 PUSH1 0x1 PUSH1 0xA0 SHL SUB AND PUSH4 0x6382B296 DUP3 PUSH1 0x40 MLOAD DUP3 PUSH4 0xFFFFFFFF AND PUSH1 0xE0 SHL DUP2 MSTORE PUSH1 0x4 ADD PUSH2 0xCAF SWAP2 SWAP1 PUSH2 0x46F1 JUMP JUMPDEST PUSH1 0x0 PUSH1 0x40 MLOAD DUP1 DUP4 SUB DUP2 DUP7 GAS STATICCALL ISZERO DUP1 ISZERO PUSH2 0xCCC JUMPI RETURNDATASIZE PUSH1 0x0 DUP1 RETURNDATACOPY RETURNDATASIZE PUSH1 0x0 REVERT JUMPDEST POP POP POP POP PUSH1 0x40 MLOAD RETURNDATASIZE PUSH1 0x0 DUP3 RETURNDATACOPY PUSH1 0x1F RETURNDATASIZE SWAP1 DUP2 ADD PUSH1 0x1F NOT AND DUP3 ADD PUSH1 0x40 MSTORE PUSH2 0xCF4 SWAP2 SWAP1 DUP2 ADD SWAP1 PUSH2 0x4988 JUMP JUMPDEST DUP1 MLOAD SWAP1 SWAP5 POP ISZERO PUSH2 0xD06 JUMPI POP POP POP PUSH2 0xDC0 JUMP JUMPDEST PUSH1 0x0 PUSH2 0xD3A PUSH32 0x0 PUSH1 0x1 PUSH1 0x1 PUSH1 0xA0 SHL SUB AND PUSH2 0x2088 JUMP JUMPDEST PUSH1 0x1 PUSH1 0x1 PUSH1 0xA0 SHL SUB AND PUSH4 0xAA52E2B4 DUP4 PUSH1 0x40 MLOAD DUP3 PUSH4 0xFFFFFFFF AND PUSH1 0xE0 SHL DUP2 MSTORE PUSH1 0x4 ADD PUSH2 0xD65 SWAP2 SWAP1 PUSH2 0x46F1 JUMP JUMPDEST PUSH1 0x0 PUSH1 0x40 MLOAD DUP1 DUP4 SUB DUP2 DUP7 GAS STATICCALL ISZERO DUP1 ISZERO PUSH2 0xD82 JUMPI RETURNDATASIZE PUSH1 0x0 DUP1 RETURNDATACOPY RETURNDATASIZE PUSH1 0x0 REVERT JUMPDEST POP POP POP POP PUSH1 0x40 MLOAD RETURNDATASIZE PUSH1 0x0 DUP3 RETURNDATACOPY PUSH1 0x1F RETURNDATASIZE SWAP1 DUP2 ADD PUSH1 0x1F NOT AND DUP3 ADD PUSH1 0x40 MSTORE PUSH2 0xDAA SWAP2 SWAP1 DUP2 ADD SWAP1 PUSH2 0x4749 JUMP JUMPDEST SWAP1 POP PUSH2 0xDB7 DUP9 DUP9 DUP4 PUSH2 0x24F0 JUMP JUMPDEST SWAP6 POP SWAP6 POP POP POP POP POP JUMPDEST SWAP4 POP SWAP4 SWAP2 POP POP JUMP JUMPDEST PUSH1 0x60 PUSH2 0xDD2 PUSH2 0x1BA9 JUMP JUMPDEST PUSH1 0x0 PUSH2 0xE06 PUSH32 0x0 PUSH1 0x1 PUSH1 0x1 PUSH1 0xA0 SHL SUB AND PUSH2 0x1DEE JUMP JUMPDEST PUSH1 0x1 PUSH1 0x1 PUSH1 0xA0 SHL SUB AND PUSH4 0xEF5BAC25 PUSH1 0x40 MLOAD DUP2 PUSH4 0xFFFFFFFF AND PUSH1 0xE0 SHL DUP2 MSTORE PUSH1 0x4 ADD PUSH1 0x0 PUSH1 0x40 MLOAD DUP1 DUP4 SUB DUP2 DUP7 GAS STATICCALL ISZERO DUP1 ISZERO PUSH2 0xE43 JUMPI RETURNDATASIZE PUSH1 0x0 DUP1 RETURNDATACOPY RETURNDATASIZE PUSH1 0x0 REVERT JUMPDEST POP POP POP POP PUSH1 0x40 MLOAD RETURNDATASIZE PUSH1 0x0 DUP3 RETURNDATACOPY PUSH1 0x1F RETURNDATASIZE SWAP1 DUP2 ADD PUSH1 0x1F NOT AND DUP3 ADD PUSH1 0x40 MSTORE PUSH2 0xE6B SWAP2 SWAP1 DUP2 ADD SWAP1 PUSH2 0x43E6 JUMP JUMPDEST SWAP1 POP PUSH2 0xE9F PUSH32 0x0 PUSH1 0x1 PUSH1 0x1 PUSH1 0xA0 SHL SUB AND PUSH2 0x1E3D JUMP JUMPDEST PUSH1 0x1 PUSH1 0x1 PUSH1 0xA0 SHL SUB AND PUSH4 0xC2913C2D DUP3 PUSH1 0x40 MLOAD DUP3 PUSH4 0xFFFFFFFF AND PUSH1 0xE0 SHL DUP2 MSTORE PUSH1 0x4 ADD PUSH2 0xECA SWAP2 SWAP1 PUSH2 0x45DB JUMP JUMPDEST PUSH1 0x0 PUSH1 0x40 MLOAD DUP1 DUP4 SUB DUP2 PUSH1 0x0 DUP8 DUP1 EXTCODESIZE ISZERO DUP1 ISZERO PUSH2 0xEE4 JUMPI PUSH1 0x0 DUP1 REVERT JUMPDEST POP GAS CALL ISZERO DUP1 ISZERO PUSH2 0xEF8 JUMPI RETURNDATASIZE PUSH1 0x0 DUP1 RETURNDATACOPY RETURNDATASIZE PUSH1 0x0 REVERT JUMPDEST POP POP POP POP PUSH2 0xF2E PUSH32 0x0 PUSH1 0x1 PUSH1 0x1 PUSH1 0xA0 SHL SUB AND PUSH2 0x1E8C JUMP JUMPDEST PUSH1 0x1 PUSH1 0x1 PUSH1 0xA0 SHL SUB AND PUSH4 0x372B7CB0 DUP3 PUSH1 0x40 MLOAD DUP3 PUSH4 0xFFFFFFFF AND PUSH1 0xE0 SHL DUP2 MSTORE PUSH1 0x4 ADD PUSH2 0xF59 SWAP2 SWAP1 PUSH2 0x45DB JUMP JUMPDEST PUSH1 0x20 PUSH1 0x40 MLOAD DUP1 DUP4 SUB DUP2 PUSH1 0x0 DUP8 GAS CALL ISZERO DUP1 ISZERO PUSH2 0xF78 JUMPI RETURNDATASIZE PUSH1 0x0 DUP1 RETURNDATACOPY RETURNDATASIZE PUSH1 0x0 REVERT JUMPDEST POP POP POP POP PUSH1 0x40 MLOAD RETURNDATASIZE PUSH1 0x1F NOT PUSH1 0x1F DUP3 ADD AND DUP3 ADD DUP1 PUSH1 0x40 MSTORE POP DUP2 ADD SWAP1 PUSH2 0xF9C SWAP2 SWAP1 PUSH2 0x4650 JUMP JUMPDEST POP PUSH1 0x0 PUSH2 0xFA7 PUSH2 0x1641 JUMP JUMPDEST DUP3 MLOAD PUSH1 0x40 MLOAD PUSH4 0x7CBC2373 PUSH1 0xE0 SHL DUP2 MSTORE PUSH1 0x4 DUP2 ADD DUP10 SWAP1 MSTORE PUSH1 0x24 DUP2 ADD SWAP2 SWAP1 SWAP2 MSTORE PUSH1 0x1 PUSH1 0x1 PUSH1 0xA0 SHL SUB SWAP2 SWAP1 SWAP2 AND SWAP1 PUSH4 0x7CBC2373 SWAP1 PUSH1 0x44 ADD PUSH1 0x20 PUSH1 0x40 MLOAD DUP1 DUP4 SUB DUP2 PUSH1 0x0 DUP8 GAS CALL ISZERO DUP1 ISZERO PUSH2 0xFFA JUMPI RETURNDATASIZE PUSH1 0x0 DUP1 RETURNDATACOPY RETURNDATASIZE PUSH1 0x0 REVERT JUMPDEST POP POP POP POP PUSH1 0x40 MLOAD RETURNDATASIZE PUSH1 0x1F NOT PUSH1 0x1F DUP3 ADD AND DUP3 ADD DUP1 PUSH1 0x40 MSTORE POP DUP2 ADD SWAP1 PUSH2 0x101E SWAP2 SWAP1 PUSH2 0x4875 JUMP JUMPDEST SWAP1 POP PUSH2 0x1042 PUSH2 0x103B PUSH6 0x9184E72A000 PUSH8 0xDE0B6B3A7640000 PUSH2 0x49BC JUMP JUMPDEST DUP8 SWAP1 PUSH2 0x2611 JUMP JUMPDEST DUP2 GT ISZERO PUSH1 0x40 MLOAD DUP1 PUSH1 0x40 ADD PUSH1 0x40 MSTORE DUP1 PUSH1 0x3 DUP2 MSTORE PUSH1 0x20 ADD PUSH3 0x31303 PUSH1 0xEC SHL DUP2 MSTORE POP SWAP1 PUSH2 0x107F JUMPI PUSH1 0x40 MLOAD PUSH3 0x461BCD PUSH1 0xE5 SHL DUP2 MSTORE PUSH1 0x4 ADD PUSH2 0x362 SWAP2 SWAP1 PUSH2 0x4109 JUMP JUMPDEST POP PUSH1 0x40 MLOAD PUSH4 0x79CC679 PUSH1 0xE4 SHL DUP2 MSTORE CALLER PUSH1 0x4 DUP3 ADD MSTORE PUSH1 0x24 DUP2 ADD DUP8 SWAP1 MSTORE PUSH32 0x0 PUSH1 0x1 PUSH1 0x1 PUSH1 0xA0 SHL SUB AND SWAP1 PUSH4 0x79CC6790 SWAP1 PUSH1 0x44 ADD PUSH1 0x0 PUSH1 0x40 MLOAD DUP1 DUP4 SUB DUP2 PUSH1 0x0 DUP8 DUP1 EXTCODESIZE ISZERO DUP1 ISZERO PUSH2 0x10E8 JUMPI PUSH1 0x0 DUP1 REVERT JUMPDEST POP GAS CALL ISZERO DUP1 ISZERO PUSH2 0x10FC JUMPI RETURNDATASIZE PUSH1 0x0 DUP1 RETURNDATACOPY RETURNDATASIZE PUSH1 0x0 REVERT JUMPDEST POP POP POP POP PUSH1 0x0 PUSH2 0x1112 DUP3 DUP8 DUP8 DUP7 PUSH1 0x20 ADD MLOAD PUSH2 0x237E JUMP JUMPDEST SWAP1 POP PUSH2 0x1146 PUSH32 0x0 PUSH1 0x1 PUSH1 0x1 PUSH1 0xA0 SHL SUB AND PUSH2 0x1FD1 JUMP JUMPDEST PUSH1 0x1 PUSH1 0x1 PUSH1 0xA0 SHL SUB AND PUSH4 0xA0763820 DUP3 PUSH1 0x40 MLOAD DUP3 PUSH4 0xFFFFFFFF AND PUSH1 0xE0 SHL DUP2 MSTORE PUSH1 0x4 ADD PUSH2 0x1171 SWAP2 SWAP1 PUSH2 0x46F1 JUMP JUMPDEST PUSH1 0x0 PUSH1 0x40 MLOAD DUP1 DUP4 SUB DUP2 PUSH1 0x0 DUP8 DUP1 EXTCODESIZE ISZERO DUP1 ISZERO PUSH2 0x118B JUMPI PUSH1 0x0 DUP1 REVERT JUMPDEST POP GAS CALL ISZERO DUP1 ISZERO PUSH2 0x119F JUMPI RETURNDATASIZE PUSH1 0x0 DUP1 RETURNDATACOPY RETURNDATASIZE PUSH1 0x0 REVERT JUMPDEST POP POP POP POP PUSH1 0x0 PUSH2 0x11D7 PUSH32 0x0 PUSH1 0x1 PUSH1 0x1 PUSH1 0xA0 SHL SUB AND PUSH2 0x2088 JUMP JUMPDEST PUSH1 0x1 PUSH1 0x1 PUSH1 0xA0 SHL SUB AND PUSH4 0xAA52E2B4 DUP4 PUSH1 0x40 MLOAD DUP3 PUSH4 0xFFFFFFFF AND PUSH1 0xE0 SHL DUP2 MSTORE PUSH1 0x4 ADD PUSH2 0x1202 SWAP2 SWAP1 PUSH2 0x46F1 JUMP JUMPDEST PUSH1 0x0 PUSH1 0x40 MLOAD DUP1 DUP4 SUB DUP2 DUP7 GAS STATICCALL ISZERO DUP1 ISZERO PUSH2 0x121F JUMPI RETURNDATASIZE PUSH1 0x0 DUP1 RETURNDATACOPY RETURNDATASIZE PUSH1 0x0 REVERT JUMPDEST POP POP POP POP PUSH1 0x40 MLOAD RETURNDATASIZE PUSH1 0x0 DUP3 RETURNDATACOPY PUSH1 0x1F RETURNDATASIZE SWAP1 DUP2 ADD PUSH1 0x1F NOT AND DUP3 ADD PUSH1 0x40 MSTORE PUSH2 0x1247 SWAP2 SWAP1 DUP2 ADD SWAP1 PUSH2 0x4749 JUMP JUMPDEST SWAP1 POP PUSH2 0x1254 DUP8 DUP8 DUP4 PUSH2 0x2632 JUMP JUMPDEST SWAP5 POP CALLER PUSH1 0x1 PUSH1 0x1 PUSH1 0xA0 SHL SUB AND PUSH32 0x6D3229CB4666D4D00DEDDDFE6E3E5FED2AAE523479A1EFD9D8B97A63A88EE3BF DUP10 DUP6 DUP6 DUP6 PUSH1 0x40 MLOAD PUSH2 0x1295 SWAP5 SWAP4 SWAP3 SWAP2 SWAP1 PUSH2 0x488E JUMP JUMPDEST PUSH1 0x40 MLOAD DUP1 SWAP2 SUB SWAP1 LOG2 POP POP POP POP SWAP4 SWAP3 POP POP POP JUMP JUMPDEST PUSH1 0x60 PUSH2 0x12B4 PUSH1 0x2 PUSH2 0x2766 JUMP JUMPDEST SWAP1 POP SWAP1 JUMP JUMPDEST PUSH1 0x0 PUSH1 0x60 DUP1 PUSH2 0x12C8 DUP8 DUP8 PUSH2 0x2773 JUMP JUMPDEST DUP1 MLOAD SWAP1 SWAP4 POP SWAP1 SWAP2 POP ISZERO PUSH2 0x12DF JUMPI PUSH1 0x0 SWAP3 POP POP PUSH2 0x15DE JUMP JUMPDEST PUSH1 0x0 PUSH2 0x1313 PUSH32 0x0 PUSH1 0x1 PUSH1 0x1 PUSH1 0xA0 SHL SUB AND PUSH2 0x1DEE JUMP JUMPDEST PUSH1 0x1 PUSH1 0x1 PUSH1 0xA0 SHL SUB AND PUSH4 0xEF5BAC25 PUSH1 0x40 MLOAD DUP2 PUSH4 0xFFFFFFFF AND PUSH1 0xE0 SHL DUP2 MSTORE PUSH1 0x4 ADD PUSH1 0x0 PUSH1 0x40 MLOAD DUP1 DUP4 SUB DUP2 DUP7 GAS STATICCALL ISZERO DUP1 ISZERO PUSH2 0x1350 JUMPI RETURNDATASIZE PUSH1 0x0 DUP1 RETURNDATACOPY RETURNDATASIZE PUSH1 0x0 REVERT JUMPDEST POP POP POP POP PUSH1 0x40 MLOAD RETURNDATASIZE PUSH1 0x0 DUP3 RETURNDATACOPY PUSH1 0x1F RETURNDATASIZE SWAP1 DUP2 ADD PUSH1 0x1F NOT AND DUP3 ADD PUSH1 0x40 MSTORE PUSH2 0x1378 SWAP2 SWAP1 DUP2 ADD SWAP1 PUSH2 0x43E6 JUMP JUMPDEST SWAP1 POP PUSH1 0x0 PUSH2 0x138A DUP4 DUP4 PUSH1 0x20 ADD MLOAD PUSH2 0x1ED2 JUMP JUMPDEST SWAP1 POP PUSH2 0x13BE PUSH32 0x0 PUSH1 0x1 PUSH1 0x1 PUSH1 0xA0 SHL SUB AND PUSH2 0x1FD1 JUMP JUMPDEST PUSH1 0x1 PUSH1 0x1 PUSH1 0xA0 SHL SUB AND PUSH4 0xE2CC8679 DUP3 PUSH1 0x40 MLOAD DUP3 PUSH4 0xFFFFFFFF AND PUSH1 0xE0 SHL DUP2 MSTORE PUSH1 0x4 ADD PUSH2 0x13E9 SWAP2 SWAP1 PUSH2 0x46F1 JUMP JUMPDEST PUSH1 0x0 PUSH1 0x40 MLOAD DUP1 DUP4 SUB DUP2 DUP7 GAS STATICCALL ISZERO DUP1 ISZERO PUSH2 0x1406 JUMPI RETURNDATASIZE PUSH1 0x0 DUP1 RETURNDATACOPY RETURNDATASIZE PUSH1 0x0 REVERT JUMPDEST POP POP POP POP PUSH1 0x40 MLOAD RETURNDATASIZE PUSH1 0x0 DUP3 RETURNDATACOPY PUSH1 0x1F RETURNDATASIZE SWAP1 DUP2 ADD PUSH1 0x1F NOT AND DUP3 ADD PUSH1 0x40 MSTORE PUSH2 0x142E SWAP2 SWAP1 DUP2 ADD SWAP1 PUSH2 0x4988 JUMP JUMPDEST DUP1 MLOAD SWAP1 SWAP5 POP ISZERO PUSH2 0x1444 JUMPI PUSH1 0x0 SWAP5 POP POP POP POP PUSH2 0x15DE JUMP JUMPDEST PUSH1 0x0 PUSH2 0x1478 PUSH32 0x0 PUSH1 0x1 PUSH1 0x1 PUSH1 0xA0 SHL SUB AND PUSH2 0x2088 JUMP JUMPDEST PUSH1 0x1 PUSH1 0x1 PUSH1 0xA0 SHL SUB AND PUSH4 0xAA52E2B4 DUP4 PUSH1 0x40 MLOAD DUP3 PUSH4 0xFFFFFFFF AND PUSH1 0xE0 SHL DUP2 MSTORE PUSH1 0x4 ADD PUSH2 0x14A3 SWAP2 SWAP1 PUSH2 0x46F1 JUMP JUMPDEST PUSH1 0x0 PUSH1 0x40 MLOAD DUP1 DUP4 SUB DUP2 DUP7 GAS STATICCALL ISZERO DUP1 ISZERO PUSH2 0x14C0 JUMPI RETURNDATASIZE PUSH1 0x0 DUP1 RETURNDATACOPY RETURNDATASIZE PUSH1 0x0 REVERT JUMPDEST POP POP POP POP PUSH1 0x40 MLOAD RETURNDATASIZE PUSH1 0x0 DUP3 RETURNDATACOPY PUSH1 0x1F RETURNDATASIZE SWAP1 DUP2 ADD PUSH1 0x1F NOT AND DUP3 ADD PUSH1 0x40 MSTORE PUSH2 0x14E8 SWAP2 SWAP1 DUP2 ADD SWAP1 PUSH2 0x4749 JUMP JUMPDEST SWAP1 POP PUSH1 0x0 PUSH2 0x14F5 DUP3 PUSH2 0x20CD JUMP JUMPDEST SWAP1 POP PUSH2 0x14FF PUSH2 0x1641 JUMP JUMPDEST DUP5 MLOAD PUSH1 0x40 MLOAD PUSH4 0x616A1ED9 PUSH1 0xE0 SHL DUP2 MSTORE PUSH1 0x4 DUP2 ADD DUP5 SWAP1 MSTORE PUSH1 0x24 DUP2 ADD SWAP2 SWAP1 SWAP2 MSTORE PUSH1 0x1 PUSH1 0x1 PUSH1 0xA0 SHL SUB SWAP2 SWAP1 SWAP2 AND SWAP1 PUSH4 0x616A1ED9 SWAP1 PUSH1 0x44 ADD PUSH1 0x20 PUSH1 0x40 MLOAD DUP1 DUP4 SUB DUP2 DUP7 GAS STATICCALL ISZERO DUP1 ISZERO PUSH2 0x1550 JUMPI RETURNDATASIZE PUSH1 0x0 DUP1 RETURNDATACOPY RETURNDATASIZE PUSH1 0x0 REVERT JUMPDEST POP POP POP POP PUSH1 0x40 MLOAD RETURNDATASIZE PUSH1 0x1F NOT PUSH1 0x1F DUP3 ADD AND DUP3 ADD DUP1 PUSH1 0x40 MSTORE POP DUP2 ADD SWAP1 PUSH2 0x1574 SWAP2 SWAP1 PUSH2 0x4875 JUMP JUMPDEST SWAP7 POP DUP9 DUP8 LT ISZERO PUSH2 0x15A3 JUMPI POP POP PUSH1 0x40 DUP1 MLOAD DUP1 DUP3 ADD SWAP1 SWAP2 MSTORE PUSH1 0x1 DUP2 MSTORE PUSH1 0x19 PUSH1 0xF9 SHL PUSH1 0x20 DUP3 ADD MSTORE SWAP4 POP PUSH2 0x15DE SWAP3 POP POP POP JUMP JUMPDEST PUSH2 0x15AD DUP9 DUP9 PUSH2 0x2159 JUMP JUMPDEST ISZERO PUSH2 0x15D8 JUMPI POP POP PUSH1 0x40 DUP1 MLOAD DUP1 DUP3 ADD SWAP1 SWAP2 MSTORE PUSH1 0x2 DUP2 MSTORE PUSH2 0xD8D PUSH1 0xF2 SHL PUSH1 0x20 DUP3 ADD MSTORE SWAP4 POP PUSH2 0x15DE SWAP3 POP POP POP JUMP JUMPDEST POP POP POP POP POP JUMPDEST SWAP5 POP SWAP5 SWAP3 POP POP POP JUMP JUMPDEST PUSH1 0x0 DUP1 SLOAD PUSH1 0x40 DUP1 MLOAD DUP1 DUP3 ADD SWAP1 SWAP2 MSTORE PUSH1 0x2 DUP2 MSTORE PUSH2 0x333 PUSH1 0xF4 SHL PUSH1 0x20 DUP3 ADD MSTORE SWAP1 PUSH1 0x1 PUSH1 0x1 PUSH1 0xA0 SHL SUB AND CALLER EQ PUSH2 0x162D JUMPI PUSH1 0x40 MLOAD PUSH3 0x461BCD PUSH1 0xE5 SHL DUP2 MSTORE PUSH1 0x4 ADD PUSH2 0x362 SWAP2 SWAP1 PUSH2 0x4109 JUMP JUMPDEST POP PUSH2 0x1639 PUSH1 0x2 DUP4 PUSH2 0x2887 JUMP JUMPDEST SWAP1 POP JUMPDEST SWAP2 SWAP1 POP JUMP JUMPDEST PUSH1 0x40 MLOAD PUSH4 0x21F8A721 PUSH1 0xE0 SHL DUP2 MSTORE PUSH12 0x50414D4D5F41444452455353 PUSH1 0xA0 SHL PUSH1 0x4 DUP3 ADD MSTORE PUSH1 0x0 SWAP1 PUSH32 0x0 PUSH1 0x1 PUSH1 0x1 PUSH1 0xA0 SHL SUB AND SWAP1 PUSH4 0x21F8A721 SWAP1 PUSH1 0x24 ADD PUSH1 0x20 PUSH1 0x40 MLOAD DUP1 DUP4 SUB DUP2 DUP7 GAS STATICCALL ISZERO DUP1 ISZERO PUSH2 0x16B7 JUMPI RETURNDATASIZE PUSH1 0x0 DUP1 RETURNDATACOPY RETURNDATASIZE PUSH1 0x0 REVERT JUMPDEST POP POP POP POP PUSH1 0x40 MLOAD RETURNDATASIZE PUSH1 0x1F NOT PUSH1 0x1F DUP3 ADD AND DUP3 ADD DUP1 PUSH1 0x40 MSTORE POP DUP2 ADD SWAP1 PUSH2 0x12B4 SWAP2 SWAP1 PUSH2 0x49CF JUMP JUMPDEST PUSH2 0x170D PUSH32 0x0 PUSH1 0x1 PUSH1 0x1 PUSH1 0xA0 SHL SUB AND PUSH2 0x1E3D JUMP JUMPDEST PUSH1 0x1 PUSH1 0x1 PUSH1 0xA0 SHL SUB AND CALLER PUSH1 0x1 PUSH1 0x1 PUSH1 0xA0 SHL SUB AND EQ PUSH1 0x40 MLOAD DUP1 PUSH1 0x40 ADD PUSH1 0x40 MSTORE DUP1 PUSH1 0x2 DUP2 MSTORE PUSH1 0x20 ADD PUSH2 0x333 PUSH1 0xF4 SHL DUP2 MSTORE POP SWAP1 PUSH2 0x175A JUMPI PUSH1 0x40 MLOAD PUSH3 0x461BCD PUSH1 0xE5 SHL DUP2 MSTORE PUSH1 0x4 ADD PUSH2 0x362 SWAP2 SWAP1 PUSH2 0x4109 JUMP JUMPDEST POP PUSH1 0x0 PUSH2 0x178F PUSH32 0x0 PUSH1 0x1 PUSH1 0x1 PUSH1 0xA0 SHL SUB AND PUSH2 0x289C JUMP JUMPDEST PUSH1 0x40 MLOAD PUSH4 0x40C10F19 PUSH1 0xE0 SHL DUP2 MSTORE PUSH1 0x1 PUSH1 0x1 PUSH1 0xA0 SHL SUB DUP1 DUP4 AND PUSH1 0x4 DUP4 ADD MSTORE PUSH1 0x24 DUP3 ADD DUP6 SWAP1 MSTORE SWAP2 SWAP3 POP PUSH32 0x0 SWAP1 SWAP2 AND SWAP1 PUSH4 0x40C10F19 SWAP1 PUSH1 0x44 ADD PUSH1 0x0 PUSH1 0x40 MLOAD DUP1 DUP4 SUB DUP2 PUSH1 0x0 DUP8 DUP1 EXTCODESIZE ISZERO DUP1 ISZERO PUSH2 0x17FE JUMPI PUSH1 0x0 DUP1 REVERT JUMPDEST POP GAS CALL ISZERO DUP1 ISZERO PUSH2 0x1812 JUMPI RETURNDATASIZE PUSH1 0x0 DUP1 RETURNDATACOPY RETURNDATASIZE PUSH1 0x0 REVERT JUMPDEST POP POP POP POP POP POP JUMP JUMPDEST PUSH1 0x0 DUP1 JUMPDEST DUP3 DUP2 LT ISZERO PUSH2 0x189D JUMPI PUSH2 0x183B DUP5 DUP5 DUP4 DUP2 DUP2 LT PUSH2 0x989 JUMPI PUSH2 0x989 PUSH2 0x4704 JUMP JUMPDEST PUSH1 0x40 MLOAD DUP1 PUSH1 0x40 ADD PUSH1 0x40 MSTORE DUP1 PUSH1 0x2 DUP2 MSTORE PUSH1 0x20 ADD PUSH2 0x3335 PUSH1 0xF0 SHL DUP2 MSTORE POP SWAP1 PUSH2 0x1874 JUMPI PUSH1 0x40 MLOAD PUSH3 0x461BCD PUSH1 0xE5 SHL DUP2 MSTORE PUSH1 0x4 ADD PUSH2 0x362 SWAP2 SWAP1 PUSH2 0x4109 JUMP JUMPDEST POP PUSH2 0x188A DUP5 DUP5 DUP4 DUP2 DUP2 LT PUSH2 0xA00 JUMPI PUSH2 0xA00 PUSH2 0x4704 JUMP JUMPDEST POP DUP1 PUSH2 0x1895 DUP2 PUSH2 0x4730 JUMP JUMPDEST SWAP2 POP POP PUSH2 0x181E JUMP JUMPDEST POP PUSH2 0xAD1 DUP7 DUP7 DUP7 PUSH2 0x3D6 JUMP JUMPDEST PUSH1 0x0 DUP1 SLOAD PUSH1 0x40 DUP1 MLOAD DUP1 DUP3 ADD SWAP1 SWAP2 MSTORE PUSH1 0x2 DUP2 MSTORE PUSH2 0x333 PUSH1 0xF4 SHL PUSH1 0x20 DUP3 ADD MSTORE SWAP1 PUSH1 0x1 PUSH1 0x1 PUSH1 0xA0 SHL SUB AND CALLER EQ PUSH2 0x18EF JUMPI PUSH1 0x40 MLOAD PUSH3 0x461BCD PUSH1 0xE5 SHL DUP2 MSTORE PUSH1 0x4 ADD PUSH2 0x362 SWAP2 SWAP1 PUSH2 0x4109 JUMP JUMPDEST POP PUSH2 0x1639 PUSH1 0x2 DUP4 PUSH2 0x28E2 JUMP JUMPDEST PUSH1 0x1 SLOAD PUSH1 0x1 PUSH1 0xA8 SHL SWAP1 DIV PUSH1 0xFF AND DUP1 PUSH2 0x191D JUMPI POP PUSH1 0x1 SLOAD PUSH1 0x1 PUSH1 0xA0 SHL SWAP1 DIV PUSH1 0xFF AND ISZERO JUMPDEST PUSH2 0x1980 JUMPI PUSH1 0x40 MLOAD PUSH3 0x461BCD PUSH1 0xE5 SHL DUP2 MSTORE PUSH1 0x20 PUSH1 0x4 DUP3 ADD MSTORE PUSH1 0x2E PUSH1 0x24 DUP3 ADD MSTORE PUSH32 0x496E697469616C697A61626C653A20636F6E747261637420697320616C726561 PUSH1 0x44 DUP3 ADD MSTORE PUSH14 0x191E481A5B9A5D1A585B1A5E9959 PUSH1 0x92 SHL PUSH1 0x64 DUP3 ADD MSTORE PUSH1 0x84 ADD PUSH2 0x362 JUMP JUMPDEST PUSH1 0x1 SLOAD PUSH1 0x1 PUSH1 0xA8 SHL SWAP1 DIV PUSH1 0xFF AND ISZERO DUP1 ISZERO PUSH2 0x19AA JUMPI PUSH1 0x1 DUP1 SLOAD PUSH2 0xFFFF PUSH1 0xA0 SHL NOT AND PUSH2 0x101 PUSH1 0xA0 SHL OR SWAP1 SSTORE JUMPDEST PUSH2 0x19B3 DUP3 PUSH2 0x28F7 JUMP JUMPDEST DUP1 ISZERO PUSH2 0x19C7 JUMPI PUSH1 0x1 DUP1 SLOAD PUSH1 0xFF PUSH1 0xA8 SHL NOT AND SWAP1 SSTORE JUMPDEST POP POP JUMP JUMPDEST PUSH1 0x0 SLOAD PUSH1 0x40 DUP1 MLOAD DUP1 DUP3 ADD SWAP1 SWAP2 MSTORE PUSH1 0x2 DUP2 MSTORE PUSH2 0x333 PUSH1 0xF4 SHL PUSH1 0x20 DUP3 ADD MSTORE SWAP1 PUSH1 0x1 PUSH1 0x1 PUSH1 0xA0 SHL SUB AND CALLER EQ PUSH2 0x1A10 JUMPI PUSH1 0x40 MLOAD PUSH3 0x461BCD PUSH1 0xE5 SHL DUP2 MSTORE PUSH1 0x4 ADD PUSH2 0x362 SWAP2 SWAP1 PUSH2 0x4109 JUMP JUMPDEST POP PUSH1 0x40 DUP1 MLOAD DUP1 DUP3 ADD SWAP1 SWAP2 MSTORE PUSH1 0x2 DUP2 MSTORE PUSH2 0x3331 PUSH1 0xF0 SHL PUSH1 0x20 DUP3 ADD MSTORE PUSH1 0x1 PUSH1 0x1 PUSH1 0xA0 SHL SUB DUP3 AND PUSH2 0x1A51 JUMPI PUSH1 0x40 MLOAD PUSH3 0x461BCD PUSH1 0xE5 SHL DUP2 MSTORE PUSH1 0x4 ADD PUSH2 0x362 SWAP2 SWAP1 PUSH2 0x4109 JUMP JUMPDEST POP PUSH1 0x1 DUP1 SLOAD PUSH1 0x1 PUSH1 0x1 PUSH1 0xA0 SHL SUB NOT AND PUSH1 0x1 PUSH1 0x1 PUSH1 0xA0 SHL SUB DUP4 AND SWAP1 DUP2 OR SWAP1 SWAP2 SSTORE PUSH1 0x40 MLOAD SWAP1 DUP2 MSTORE PUSH32 0x67235BA2E63C748A35B95C4F92A3BBC2A1389938170A5CE6C9ADD5D0B03A314A SWAP1 PUSH1 0x20 ADD PUSH2 0x3CB JUMP JUMPDEST PUSH1 0x40 MLOAD PUSH4 0x21F8A721 PUSH1 0xE0 SHL DUP2 MSTORE PUSH17 0x4759445F544F4B454E5F41444452455353 PUSH1 0x78 SHL PUSH1 0x4 DUP3 ADD MSTORE PUSH1 0x0 SWAP1 PUSH1 0x1 PUSH1 0x1 PUSH1 0xA0 SHL SUB DUP4 AND SWAP1 PUSH4 0x21F8A721 SWAP1 PUSH1 0x24 ADD JUMPDEST PUSH1 0x20 PUSH1 0x40 MLOAD DUP1 DUP4 SUB DUP2 DUP7 GAS STATICCALL ISZERO DUP1 ISZERO PUSH2 0x1AFC JUMPI RETURNDATASIZE PUSH1 0x0 DUP1 RETURNDATACOPY RETURNDATASIZE PUSH1 0x0 REVERT JUMPDEST POP POP POP POP PUSH1 0x40 MLOAD RETURNDATASIZE PUSH1 0x1F NOT PUSH1 0x1F DUP3 ADD AND DUP3 ADD DUP1 PUSH1 0x40 MSTORE POP DUP2 ADD SWAP1 PUSH2 0x1639 SWAP2 SWAP1 PUSH2 0x49CF JUMP JUMPDEST PUSH1 0x40 MLOAD PUSH4 0x21F8A721 PUSH1 0xE0 SHL DUP2 MSTORE PUSH15 0x524553455256455F41444452455353 PUSH1 0x88 SHL PUSH1 0x4 DUP3 ADD MSTORE PUSH1 0x0 SWAP1 PUSH1 0x1 PUSH1 0x1 PUSH1 0xA0 SHL SUB DUP4 AND SWAP1 PUSH4 0x21F8A721 SWAP1 PUSH1 0x24 ADD PUSH2 0x1ADF JUMP JUMPDEST PUSH1 0x40 MLOAD PUSH4 0x21F8A721 PUSH1 0xE0 SHL DUP2 MSTORE PUSH22 0x42414C414E4345525F5641554C545F41444452455353 PUSH1 0x50 SHL PUSH1 0x4 DUP3 ADD MSTORE PUSH1 0x0 SWAP1 PUSH1 0x1 PUSH1 0x1 PUSH1 0xA0 SHL SUB DUP4 AND SWAP1 PUSH4 0x21F8A721 SWAP1 PUSH1 0x24 ADD PUSH2 0x1ADF JUMP JUMPDEST PUSH1 0x40 DUP1 MLOAD PUSH1 0x1 DUP1 DUP3 MSTORE DUP2 DUP4 ADD SWAP1 SWAP3 MSTORE PUSH1 0x0 SWAP2 DUP2 PUSH1 0x20 ADD JUMPDEST PUSH1 0x40 DUP1 MLOAD PUSH1 0xA0 DUP2 ADD DUP3 MSTORE PUSH1 0x0 DUP1 DUP3 MSTORE PUSH1 0x20 DUP1 DUP4 ADD DUP3 SWAP1 MSTORE SWAP3 DUP3 ADD DUP2 SWAP1 MSTORE PUSH1 0x60 DUP3 ADD DUP2 SWAP1 MSTORE PUSH1 0x80 DUP3 ADD MSTORE DUP3 MSTORE PUSH1 0x0 NOT SWAP1 SWAP3 ADD SWAP2 ADD DUP2 PUSH2 0x1BC0 JUMPI SWAP1 POP POP SWAP1 POP PUSH1 0x1 DUP2 PUSH1 0x0 DUP2 MLOAD DUP2 LT PUSH2 0x1C12 JUMPI PUSH2 0x1C12 PUSH2 0x4704 JUMP JUMPDEST PUSH1 0x20 MUL PUSH1 0x20 ADD ADD MLOAD PUSH1 0x0 ADD SWAP1 PUSH1 0x3 DUP2 GT ISZERO PUSH2 0x1C2F JUMPI PUSH2 0x1C2F PUSH2 0x49EC JUMP JUMPDEST SWAP1 DUP2 PUSH1 0x3 DUP2 GT ISZERO PUSH2 0x1C42 JUMPI PUSH2 0x1C42 PUSH2 0x49EC JUMP JUMPDEST DUP2 MSTORE POP POP ADDRESS DUP2 PUSH1 0x0 DUP2 MLOAD DUP2 LT PUSH2 0x1C5A JUMPI PUSH2 0x1C5A PUSH2 0x4704 JUMP JUMPDEST PUSH1 0x20 SWAP1 DUP2 MUL SWAP2 SWAP1 SWAP2 ADD ADD MLOAD PUSH1 0x1 PUSH1 0x1 PUSH1 0xA0 SHL SUB SWAP2 DUP3 AND PUSH1 0x60 SWAP1 SWAP2 ADD MSTORE PUSH1 0x40 MLOAD PUSH4 0x3A38FA1 PUSH1 0xE2 SHL DUP2 MSTORE PUSH32 0x0 SWAP1 SWAP2 AND SWAP1 PUSH4 0xE8E3E84 SWAP1 PUSH2 0x1CBC SWAP1 DUP5 SWAP1 PUSH1 0x4 ADD PUSH2 0x4A02 JUMP JUMPDEST PUSH1 0x0 PUSH1 0x40 MLOAD DUP1 DUP4 SUB DUP2 PUSH1 0x0 DUP8 DUP1 EXTCODESIZE ISZERO DUP1 ISZERO PUSH2 0x1CD6 JUMPI PUSH1 0x0 DUP1 REVERT JUMPDEST POP GAS CALL ISZERO DUP1 ISZERO PUSH2 0x1CEA JUMPI RETURNDATASIZE PUSH1 0x0 DUP1 RETURNDATACOPY RETURNDATASIZE PUSH1 0x0 REVERT JUMPDEST POP POP POP POP POP JUMP JUMPDEST PUSH1 0x60 PUSH1 0x0 DUP3 PUSH1 0x1 PUSH1 0x1 PUSH1 0x40 SHL SUB DUP2 GT ISZERO PUSH2 0x1D0D JUMPI PUSH2 0x1D0D PUSH2 0x411C JUMP JUMPDEST PUSH1 0x40 MLOAD SWAP1 DUP1 DUP3 MSTORE DUP1 PUSH1 0x20 MUL PUSH1 0x20 ADD DUP3 ADD PUSH1 0x40 MSTORE DUP1 ISZERO PUSH2 0x1D52 JUMPI DUP2 PUSH1 0x20 ADD JUMPDEST PUSH1 0x40 DUP1 MLOAD DUP1 DUP3 ADD SWAP1 SWAP2 MSTORE PUSH1 0x0 DUP1 DUP3 MSTORE PUSH1 0x20 DUP3 ADD MSTORE DUP2 MSTORE PUSH1 0x20 ADD SWAP1 PUSH1 0x1 SWAP1 SUB SWAP1 DUP2 PUSH2 0x1D2B JUMPI SWAP1 POP JUMPDEST POP SWAP1 POP PUSH1 0x0 JUMPDEST DUP4 DUP2 LT ISZERO PUSH2 0x1DE4 JUMPI CALLDATASIZE DUP6 DUP6 DUP4 DUP2 DUP2 LT PUSH2 0x1D73 JUMPI PUSH2 0x1D73 PUSH2 0x4704 JUMP JUMPDEST SWAP1 POP PUSH1 0x60 MUL ADD SWAP1 POP PUSH1 0x40 MLOAD DUP1 PUSH1 0x40 ADD PUSH1 0x40 MSTORE DUP1 DUP3 PUSH1 0x40 ADD PUSH1 0x20 DUP2 ADD SWAP1 PUSH2 0x1D99 SWAP2 SWAP1 PUSH2 0x4078 JUMP JUMPDEST PUSH1 0x1 PUSH1 0x1 PUSH1 0xA0 SHL SUB AND DUP2 MSTORE PUSH1 0x20 ADD PUSH2 0x1DB0 DUP4 PUSH2 0x294B JUMP JUMPDEST DUP2 MSTORE POP DUP4 DUP4 DUP2 MLOAD DUP2 LT PUSH2 0x1DC5 JUMPI PUSH2 0x1DC5 PUSH2 0x4704 JUMP JUMPDEST PUSH1 0x20 MUL PUSH1 0x20 ADD ADD DUP2 SWAP1 MSTORE POP POP DUP1 DUP1 PUSH2 0x1DDC SWAP1 PUSH2 0x4730 JUMP JUMPDEST SWAP2 POP POP PUSH2 0x1D58 JUMP JUMPDEST POP SWAP1 POP JUMPDEST SWAP3 SWAP2 POP POP JUMP JUMPDEST PUSH1 0x40 MLOAD PUSH4 0x21F8A721 PUSH1 0xE0 SHL DUP2 MSTORE PUSH32 0x524553455256455F4D414E414745525F41444452455353000000000000000000 PUSH1 0x4 DUP3 ADD MSTORE PUSH1 0x0 SWAP1 PUSH1 0x1 PUSH1 0x1 PUSH1 0xA0 SHL SUB DUP4 AND SWAP1 PUSH4 0x21F8A721 SWAP1 PUSH1 0x24 ADD PUSH2 0x1ADF JUMP JUMPDEST PUSH1 0x40 MLOAD PUSH4 0x21F8A721 PUSH1 0xE0 SHL DUP2 MSTORE PUSH32 0x53544557415244534849505F494E435F41444452455353000000000000000000 PUSH1 0x4 DUP3 ADD MSTORE PUSH1 0x0 SWAP1 PUSH1 0x1 PUSH1 0x1 PUSH1 0xA0 SHL SUB DUP4 AND SWAP1 PUSH4 0x21F8A721 SWAP1 PUSH1 0x24 ADD PUSH2 0x1ADF JUMP JUMPDEST PUSH1 0x40 MLOAD PUSH4 0x21F8A721 PUSH1 0xE0 SHL DUP2 MSTORE PUSH20 0x4759445F5245434F564552595F41444452455353 PUSH1 0x60 SHL PUSH1 0x4 DUP3 ADD MSTORE PUSH1 0x0 SWAP1 PUSH1 0x1 PUSH1 0x1 PUSH1 0xA0 SHL SUB DUP4 AND SWAP1 PUSH4 0x21F8A721 SWAP1 PUSH1 0x24 ADD PUSH2 0x1ADF JUMP JUMPDEST PUSH1 0x40 DUP1 MLOAD DUP1 DUP3 ADD SWAP1 SWAP2 MSTORE PUSH1 0x60 DUP2 MSTORE PUSH1 0x0 PUSH1 0x20 DUP3 ADD MSTORE PUSH1 0x0 PUSH1 0x40 MLOAD DUP1 PUSH1 0x40 ADD PUSH1 0x40 MSTORE DUP1 DUP5 MLOAD PUSH1 0x1 PUSH1 0x1 PUSH1 0x40 SHL SUB DUP2 GT ISZERO PUSH2 0x1F0D JUMPI PUSH2 0x1F0D PUSH2 0x411C JUMP JUMPDEST PUSH1 0x40 MLOAD SWAP1 DUP1 DUP3 MSTORE DUP1 PUSH1 0x20 MUL PUSH1 0x20 ADD DUP3 ADD PUSH1 0x40 MSTORE DUP1 ISZERO PUSH2 0x1F46 JUMPI DUP2 PUSH1 0x20 ADD JUMPDEST PUSH2 0x1F33 PUSH2 0x3C57 JUMP JUMPDEST DUP2 MSTORE PUSH1 0x20 ADD SWAP1 PUSH1 0x1 SWAP1 SUB SWAP1 DUP2 PUSH2 0x1F2B JUMPI SWAP1 POP JUMPDEST POP DUP2 MSTORE PUSH1 0x1 PUSH1 0x20 SWAP1 SWAP2 ADD MSTORE SWAP1 POP PUSH1 0x0 JUMPDEST DUP4 MLOAD DUP2 LT ISZERO PUSH2 0x1DE4 JUMPI PUSH1 0x0 DUP5 DUP3 DUP2 MLOAD DUP2 LT PUSH2 0x1F73 JUMPI PUSH2 0x1F73 PUSH2 0x4704 JUMP JUMPDEST PUSH1 0x20 MUL PUSH1 0x20 ADD ADD MLOAD SWAP1 POP PUSH1 0x40 MLOAD DUP1 PUSH1 0x40 ADD PUSH1 0x40 MSTORE DUP1 DUP3 DUP2 MSTORE PUSH1 0x20 ADD PUSH2 0x1F9C DUP4 PUSH1 0x0 ADD MLOAD DUP10 PUSH2 0x2B03 JUMP JUMPDEST SWAP1 MSTORE DUP4 MLOAD DUP1 MLOAD DUP5 SWAP1 DUP2 LT PUSH2 0x1FB2 JUMPI PUSH2 0x1FB2 PUSH2 0x4704 JUMP JUMPDEST PUSH1 0x20 MUL PUSH1 0x20 ADD ADD DUP2 SWAP1 MSTORE POP POP DUP1 DUP1 PUSH2 0x1FC9 SWAP1 PUSH2 0x4730 JUMP JUMPDEST SWAP2 POP POP PUSH2 0x1F56 JUMP JUMPDEST PUSH1 0x40 MLOAD PUSH4 0x21F8A721 PUSH1 0xE0 SHL DUP2 MSTORE PUSH32 0x524F4F545F5341464554595F434845434B5F4144445245535300000000000000 PUSH1 0x4 DUP3 ADD MSTORE PUSH1 0x0 SWAP1 PUSH1 0x1 PUSH1 0x1 PUSH1 0xA0 SHL SUB DUP4 AND SWAP1 PUSH4 0x21F8A721 SWAP1 PUSH1 0x24 ADD PUSH2 0x1ADF JUMP JUMPDEST PUSH1 0x40 MLOAD PUSH1 0x1 PUSH1 0x1 PUSH1 0xA0 SHL SUB DUP4 AND PUSH1 0x24 DUP3 ADD MSTORE PUSH1 0x44 DUP2 ADD DUP3 SWAP1 MSTORE PUSH2 0x2083 SWAP1 DUP5 SWAP1 PUSH4 0xA9059CBB PUSH1 0xE0 SHL SWAP1 PUSH1 0x64 ADD JUMPDEST PUSH1 0x40 DUP1 MLOAD PUSH1 0x1F NOT DUP2 DUP5 SUB ADD DUP2 MSTORE SWAP2 SWAP1 MSTORE PUSH1 0x20 DUP2 ADD DUP1 MLOAD PUSH1 0x1 PUSH1 0x1 PUSH1 0xE0 SHL SUB AND PUSH1 0x1 PUSH1 0x1 PUSH1 0xE0 SHL SUB NOT SWAP1 SWAP4 AND SWAP3 SWAP1 SWAP3 OR SWAP1 SWAP2 MSTORE PUSH2 0x2B71 JUMP JUMPDEST POP POP POP JUMP JUMPDEST PUSH1 0x40 MLOAD PUSH4 0x21F8A721 PUSH1 0xE0 SHL DUP2 MSTORE PUSH19 0x4645455F48414E444C45525F41444452455353 PUSH1 0x68 SHL PUSH1 0x4 DUP3 ADD MSTORE PUSH1 0x0 SWAP1 PUSH1 0x1 PUSH1 0x1 PUSH1 0xA0 SHL SUB DUP4 AND SWAP1 PUSH4 0x21F8A721 SWAP1 PUSH1 0x24 ADD PUSH2 0x1ADF JUMP JUMPDEST PUSH1 0x0 DUP1 JUMPDEST DUP3 MLOAD MLOAD DUP2 LT ISZERO PUSH2 0x2153 JUMPI PUSH1 0x0 DUP4 PUSH1 0x0 ADD MLOAD DUP3 DUP2 MLOAD DUP2 LT PUSH2 0x20F3 JUMPI PUSH2 0x20F3 PUSH2 0x4704 JUMP JUMPDEST PUSH1 0x20 MUL PUSH1 0x20 ADD ADD MLOAD SWAP1 POP PUSH1 0x0 PUSH2 0x211E DUP3 PUSH1 0x0 ADD MLOAD PUSH1 0x20 ADD MLOAD DUP4 PUSH1 0x20 ADD MLOAD PUSH2 0x2C43 SWAP1 SWAP2 SWAP1 PUSH4 0xFFFFFFFF AND JUMP JUMPDEST DUP3 MLOAD PUSH1 0x60 ADD MLOAD SWAP1 SWAP2 POP PUSH2 0x2132 SWAP1 DUP3 SWAP1 PUSH2 0x2611 JUMP JUMPDEST PUSH2 0x213C SWAP1 DUP6 PUSH2 0x49BC JUMP JUMPDEST SWAP4 POP POP POP DUP1 DUP1 PUSH2 0x214B SWAP1 PUSH2 0x4730 JUMP JUMPDEST SWAP2 POP POP PUSH2 0x20D1 JUMP JUMPDEST POP SWAP2 SWAP1 POP JUMP JUMPDEST PUSH1 0x0 DUP1 PUSH2 0x218E PUSH32 0x0 PUSH1 0x1 PUSH1 0x1 PUSH1 0xA0 SHL SUB AND PUSH2 0x2CAB JUMP JUMPDEST SWAP1 POP DUP1 DUP4 PUSH32 0x0 PUSH1 0x1 PUSH1 0x1 PUSH1 0xA0 SHL SUB AND PUSH4 0x18160DDD PUSH1 0x40 MLOAD DUP2 PUSH4 0xFFFFFFFF AND PUSH1 0xE0 SHL DUP2 MSTORE PUSH1 0x4 ADD PUSH1 0x20 PUSH1 0x40 MLOAD DUP1 DUP4 SUB DUP2 DUP7 GAS STATICCALL ISZERO DUP1 ISZERO PUSH2 0x21F0 JUMPI RETURNDATASIZE PUSH1 0x0 DUP1 RETURNDATACOPY RETURNDATASIZE PUSH1 0x0 REVERT JUMPDEST POP POP POP POP PUSH1 0x40 MLOAD RETURNDATASIZE PUSH1 0x1F NOT PUSH1 0x1F DUP3 ADD AND DUP3 ADD DUP1 PUSH1 0x40 MSTORE POP DUP2 ADD SWAP1 PUSH2 0x2214 SWAP2 SWAP1 PUSH2 0x4875 JUMP JUMPDEST PUSH2 0x221E SWAP2 SWAP1 PUSH2 0x49BC JUMP JUMPDEST GT ISZERO PUSH2 0x222E JUMPI PUSH1 0x1 SWAP2 POP POP PUSH2 0x1DE8 JUMP JUMPDEST PUSH1 0x0 PUSH2 0x2263 PUSH1 0x1 PUSH1 0x1 PUSH1 0xA0 SHL SUB PUSH32 0x0 AND DUP7 PUSH2 0x2D36 JUMP JUMPDEST SWAP1 POP PUSH1 0x0 PUSH2 0x229A PUSH1 0x1 PUSH1 0x1 PUSH1 0xA0 SHL SUB PUSH32 0x0 AND DUP4 PUSH2 0x2EC1 JUMP JUMPDEST PUSH1 0x40 MLOAD PUSH4 0x70A08231 PUSH1 0xE0 SHL DUP2 MSTORE PUSH1 0x1 PUSH1 0x1 PUSH1 0xA0 SHL SUB DUP9 DUP2 AND PUSH1 0x4 DUP4 ADD MSTORE SWAP2 SWAP3 POP DUP3 SWAP2 DUP8 SWAP2 PUSH32 0x0 SWAP1 SWAP2 AND SWAP1 PUSH4 0x70A08231 SWAP1 PUSH1 0x24 ADD PUSH1 0x20 PUSH1 0x40 MLOAD DUP1 DUP4 SUB DUP2 DUP7 GAS STATICCALL ISZERO DUP1 ISZERO PUSH2 0x2309 JUMPI RETURNDATASIZE PUSH1 0x0 DUP1 RETURNDATACOPY RETURNDATASIZE PUSH1 0x0 REVERT JUMPDEST POP POP POP POP PUSH1 0x40 MLOAD RETURNDATASIZE PUSH1 0x1F NOT PUSH1 0x1F DUP3 ADD AND DUP3 ADD DUP1 PUSH1 0x40 MSTORE POP DUP2 ADD SWAP1 PUSH2 0x232D SWAP2 SWAP1 PUSH2 0x4875 JUMP JUMPDEST PUSH2 0x2337 SWAP2 SWAP1 PUSH2 0x49BC JUMP JUMPDEST GT SWAP7 SWAP6 POP POP POP POP POP POP JUMP JUMPDEST PUSH1 0x1 PUSH1 0x1 PUSH1 0xA0 SHL SUB DUP2 AND PUSH1 0x0 SWAP1 DUP2 MSTORE PUSH1 0x1 DUP4 ADD PUSH1 0x20 MSTORE PUSH1 0x40 DUP2 KECCAK256 SLOAD ISZERO ISZERO JUMPDEST SWAP4 SWAP3 POP POP POP JUMP JUMPDEST PUSH1 0x60 PUSH2 0x2376 DUP5 DUP5 PUSH1 0x0 DUP6 PUSH2 0x2FD8 JUMP JUMPDEST SWAP5 SWAP4 POP POP POP POP JUMP JUMPDEST PUSH1 0x40 DUP1 MLOAD DUP1 DUP3 ADD SWAP1 SWAP2 MSTORE PUSH1 0x60 DUP2 MSTORE PUSH1 0x0 PUSH1 0x20 DUP3 ADD MSTORE PUSH2 0x239D DUP5 DUP5 PUSH2 0x3100 JUMP JUMPDEST PUSH1 0x0 PUSH1 0x40 MLOAD DUP1 PUSH1 0x40 ADD PUSH1 0x40 MSTORE DUP1 DUP5 MLOAD PUSH1 0x1 PUSH1 0x1 PUSH1 0x40 SHL SUB DUP2 GT ISZERO PUSH2 0x23C3 JUMPI PUSH2 0x23C3 PUSH2 0x411C JUMP JUMPDEST PUSH1 0x40 MLOAD SWAP1 DUP1 DUP3 MSTORE DUP1 PUSH1 0x20 MUL PUSH1 0x20 ADD DUP3 ADD PUSH1 0x40 MSTORE DUP1 ISZERO PUSH2 0x23FC JUMPI DUP2 PUSH1 0x20 ADD JUMPDEST PUSH2 0x23E9 PUSH2 0x3C57 JUMP JUMPDEST DUP2 MSTORE PUSH1 0x20 ADD SWAP1 PUSH1 0x1 SWAP1 SUB SWAP1 DUP2 PUSH2 0x23E1 JUMPI SWAP1 POP JUMPDEST POP DUP2 MSTORE PUSH1 0x20 ADD PUSH1 0x0 ISZERO ISZERO DUP2 MSTORE POP SWAP1 POP PUSH1 0x0 DUP1 JUMPDEST DUP5 MLOAD DUP2 LT ISZERO PUSH2 0x24A2 JUMPI PUSH1 0x0 DUP6 DUP3 DUP2 MLOAD DUP2 LT PUSH2 0x242C JUMPI PUSH2 0x242C PUSH2 0x4704 JUMP JUMPDEST PUSH1 0x20 MUL PUSH1 0x20 ADD ADD MLOAD SWAP1 POP PUSH1 0x0 DUP1 PUSH2 0x2445 DUP4 DUP13 DUP13 DUP13 PUSH2 0x31F5 JUMP JUMPDEST SWAP1 SWAP3 POP SWAP1 POP PUSH2 0x2454 DUP2 DUP7 PUSH2 0x49BC JUMP JUMPDEST SWAP5 POP PUSH1 0x40 MLOAD DUP1 PUSH1 0x40 ADD PUSH1 0x40 MSTORE DUP1 DUP5 DUP2 MSTORE PUSH1 0x20 ADD DUP4 DUP2 MSTORE POP DUP7 PUSH1 0x0 ADD MLOAD DUP6 DUP2 MLOAD DUP2 LT PUSH2 0x2481 JUMPI PUSH2 0x2481 PUSH2 0x4704 JUMP JUMPDEST PUSH1 0x20 MUL PUSH1 0x20 ADD ADD DUP2 SWAP1 MSTORE POP POP POP POP DUP1 DUP1 PUSH2 0x249A SWAP1 PUSH2 0x4730 JUMP JUMPDEST SWAP2 POP POP PUSH2 0x240F JUMP JUMPDEST POP PUSH1 0x40 DUP1 MLOAD DUP1 DUP3 ADD SWAP1 SWAP2 MSTORE PUSH1 0x2 DUP2 MSTORE PUSH2 0x3331 PUSH1 0xF0 SHL PUSH1 0x20 DUP3 ADD MSTORE PUSH8 0xDE0B6B3A7640000 DUP3 EQ PUSH2 0x24E4 JUMPI PUSH1 0x40 MLOAD PUSH3 0x461BCD PUSH1 0xE5 SHL DUP2 MSTORE PUSH1 0x4 ADD PUSH2 0x362 SWAP2 SWAP1 PUSH2 0x4109 JUMP JUMPDEST POP SWAP1 SWAP7 SWAP6 POP POP POP POP POP POP JUMP JUMPDEST PUSH1 0x60 DUP1 DUP4 PUSH1 0x1 PUSH1 0x1 PUSH1 0x40 SHL SUB DUP2 GT ISZERO PUSH2 0x250B JUMPI PUSH2 0x250B PUSH2 0x411C JUMP JUMPDEST PUSH1 0x40 MLOAD SWAP1 DUP1 DUP3 MSTORE DUP1 PUSH1 0x20 MUL PUSH1 0x20 ADD DUP3 ADD PUSH1 0x40 MSTORE DUP1 ISZERO PUSH2 0x2534 JUMPI DUP2 PUSH1 0x20 ADD PUSH1 0x20 DUP3 MUL DUP1 CALLDATASIZE DUP4 CALLDATACOPY ADD SWAP1 POP JUMPDEST POP SWAP2 POP PUSH1 0x0 JUMPDEST DUP5 DUP2 LT ISZERO PUSH2 0x2608 JUMPI CALLDATASIZE DUP7 DUP7 DUP4 DUP2 DUP2 LT PUSH2 0x2555 JUMPI PUSH2 0x2555 PUSH2 0x4704 JUMP JUMPDEST SWAP1 POP PUSH1 0x80 MUL ADD SWAP1 POP PUSH1 0x0 PUSH2 0x257F DUP7 PUSH1 0x0 ADD MLOAD DUP4 PUSH1 0x60 ADD PUSH1 0x20 DUP2 ADD SWAP1 PUSH2 0x257A SWAP2 SWAP1 PUSH2 0x4078 JUMP JUMPDEST PUSH2 0x32C7 JUMP JUMPDEST SWAP1 POP PUSH1 0x0 PUSH2 0x258D DUP4 DUP4 PUSH2 0x333D JUMP JUMPDEST DUP1 MLOAD SWAP1 SWAP7 POP SWAP1 SWAP2 POP ISZERO PUSH2 0x25A3 JUMPI POP POP POP POP PUSH2 0xDC0 JUMP JUMPDEST DUP3 PUSH1 0x20 ADD CALLDATALOAD DUP2 LT ISZERO PUSH2 0x25D3 JUMPI POP POP PUSH1 0x40 DUP1 MLOAD DUP1 DUP3 ADD SWAP1 SWAP2 MSTORE PUSH1 0x1 DUP2 MSTORE PUSH1 0x19 PUSH1 0xF9 SHL PUSH1 0x20 DUP3 ADD MSTORE SWAP3 POP PUSH2 0xDC0 SWAP2 POP POP JUMP JUMPDEST DUP1 DUP7 DUP6 DUP2 MLOAD DUP2 LT PUSH2 0x25E6 JUMPI PUSH2 0x25E6 PUSH2 0x4704 JUMP JUMPDEST PUSH1 0x20 MUL PUSH1 0x20 ADD ADD DUP2 DUP2 MSTORE POP POP POP POP POP DUP1 DUP1 PUSH2 0x2600 SWAP1 PUSH2 0x4730 JUMP JUMPDEST SWAP2 POP POP PUSH2 0x253A JUMP JUMPDEST POP SWAP4 POP SWAP4 SWAP2 POP POP JUMP JUMPDEST PUSH1 0x0 DUP1 PUSH2 0x261E DUP4 DUP6 PUSH2 0x4A9D JUMP JUMPDEST SWAP1 POP PUSH2 0x2376 PUSH8 0xDE0B6B3A7640000 DUP3 PUSH2 0x4AB4 JUMP JUMPDEST PUSH1 0x60 DUP3 PUSH1 0x1 PUSH1 0x1 PUSH1 0x40 SHL SUB DUP2 GT ISZERO PUSH2 0x264C JUMPI PUSH2 0x264C PUSH2 0x411C JUMP JUMPDEST PUSH1 0x40 MLOAD SWAP1 DUP1 DUP3 MSTORE DUP1 PUSH1 0x20 MUL PUSH1 0x20 ADD DUP3 ADD PUSH1 0x40 MSTORE DUP1 ISZERO PUSH2 0x2675 JUMPI DUP2 PUSH1 0x20 ADD PUSH1 0x20 DUP3 MUL DUP1 CALLDATASIZE DUP4 CALLDATACOPY ADD SWAP1 POP JUMPDEST POP SWAP1 POP PUSH1 0x0 JUMPDEST DUP4 DUP2 LT ISZERO PUSH2 0x275E JUMPI PUSH1 0x0 DUP6 DUP6 DUP4 DUP2 DUP2 LT PUSH2 0x2697 JUMPI PUSH2 0x2697 PUSH2 0x4704 JUMP JUMPDEST SWAP1 POP PUSH1 0x80 MUL ADD DUP1 CALLDATASIZE SUB DUP2 ADD SWAP1 PUSH2 0x26AD SWAP2 SWAP1 PUSH2 0x4AD6 JUMP JUMPDEST SWAP1 POP PUSH1 0x0 PUSH2 0x26C3 DUP6 PUSH1 0x0 ADD MLOAD DUP4 PUSH1 0x60 ADD MLOAD PUSH2 0x32C7 JUMP JUMPDEST SWAP1 POP PUSH1 0x0 PUSH2 0x26D1 DUP4 DUP4 PUSH2 0x357C JUMP JUMPDEST SWAP1 POP DUP3 PUSH1 0x20 ADD MLOAD DUP2 LT ISZERO PUSH1 0x40 MLOAD DUP1 PUSH1 0x40 ADD PUSH1 0x40 MSTORE DUP1 PUSH1 0x1 DUP2 MSTORE PUSH1 0x20 ADD PUSH1 0x19 PUSH1 0xF9 SHL DUP2 MSTORE POP SWAP1 PUSH2 0x2713 JUMPI PUSH1 0x40 MLOAD PUSH3 0x461BCD PUSH1 0xE5 SHL DUP2 MSTORE PUSH1 0x4 ADD PUSH2 0x362 SWAP2 SWAP1 PUSH2 0x4109 JUMP JUMPDEST POP DUP1 DUP6 DUP6 DUP2 MLOAD DUP2 LT PUSH2 0x2727 JUMPI PUSH2 0x2727 PUSH2 0x4704 JUMP JUMPDEST PUSH1 0x20 SWAP1 DUP2 MUL SWAP2 SWAP1 SWAP2 ADD ADD MSTORE DUP3 MLOAD PUSH2 0x2748 SWAP1 PUSH1 0x1 PUSH1 0x1 PUSH1 0xA0 SHL SUB AND CALLER DUP4 PUSH2 0x2020 JUMP JUMPDEST POP POP POP DUP1 DUP1 PUSH2 0x2756 SWAP1 PUSH2 0x4730 JUMP JUMPDEST SWAP2 POP POP PUSH2 0x267B JUMP JUMPDEST POP SWAP4 SWAP3 POP POP POP JUMP JUMPDEST PUSH1 0x60 PUSH1 0x0 PUSH2 0x2360 DUP4 PUSH2 0x375D JUMP JUMPDEST PUSH1 0x60 DUP1 DUP3 PUSH1 0x1 PUSH1 0x1 PUSH1 0x40 SHL SUB DUP2 GT ISZERO PUSH2 0x278E JUMPI PUSH2 0x278E PUSH2 0x411C JUMP JUMPDEST PUSH1 0x40 MLOAD SWAP1 DUP1 DUP3 MSTORE DUP1 PUSH1 0x20 MUL PUSH1 0x20 ADD DUP3 ADD PUSH1 0x40 MSTORE DUP1 ISZERO PUSH2 0x27D3 JUMPI DUP2 PUSH1 0x20 ADD JUMPDEST PUSH1 0x40 DUP1 MLOAD DUP1 DUP3 ADD SWAP1 SWAP2 MSTORE PUSH1 0x0 DUP1 DUP3 MSTORE PUSH1 0x20 DUP3 ADD MSTORE DUP2 MSTORE PUSH1 0x20 ADD SWAP1 PUSH1 0x1 SWAP1 SUB SWAP1 DUP2 PUSH2 0x27AC JUMPI SWAP1 POP JUMPDEST POP SWAP2 POP PUSH1 0x0 JUMPDEST DUP4 DUP2 LT ISZERO PUSH2 0x287E JUMPI CALLDATASIZE DUP6 DUP6 DUP4 DUP2 DUP2 LT PUSH2 0x27F4 JUMPI PUSH2 0x27F4 PUSH2 0x4704 JUMP JUMPDEST SWAP1 POP PUSH1 0x60 MUL ADD SWAP1 POP PUSH1 0x0 PUSH2 0x2807 DUP3 PUSH2 0x37B9 JUMP JUMPDEST DUP1 MLOAD SWAP1 SWAP6 POP SWAP1 SWAP2 POP ISZERO PUSH2 0x281C JUMPI POP POP POP PUSH2 0x2880 JUMP JUMPDEST PUSH1 0x40 MLOAD DUP1 PUSH1 0x40 ADD PUSH1 0x40 MSTORE DUP1 DUP4 PUSH1 0x40 ADD PUSH1 0x20 DUP2 ADD SWAP1 PUSH2 0x283A SWAP2 SWAP1 PUSH2 0x4078 JUMP JUMPDEST PUSH1 0x1 PUSH1 0x1 PUSH1 0xA0 SHL SUB AND DUP2 MSTORE PUSH1 0x20 ADD DUP3 DUP2 MSTORE POP DUP6 DUP5 DUP2 MLOAD DUP2 LT PUSH2 0x285E JUMPI PUSH2 0x285E PUSH2 0x4704 JUMP JUMPDEST PUSH1 0x20 MUL PUSH1 0x20 ADD ADD DUP2 SWAP1 MSTORE POP POP POP DUP1 DUP1 PUSH2 0x2876 SWAP1 PUSH2 0x4730 JUMP JUMPDEST SWAP2 POP POP PUSH2 0x27D9 JUMP JUMPDEST POP JUMPDEST SWAP3 POP SWAP3 SWAP1 POP JUMP JUMPDEST PUSH1 0x0 PUSH2 0x2360 DUP4 PUSH1 0x1 PUSH1 0x1 PUSH1 0xA0 SHL SUB DUP5 AND PUSH2 0x394A JUMP JUMPDEST PUSH1 0x40 MLOAD PUSH4 0x21F8A721 PUSH1 0xE0 SHL DUP2 MSTORE PUSH20 0x474F565F54524541535552595F41444452455353 PUSH1 0x60 SHL PUSH1 0x4 DUP3 ADD MSTORE PUSH1 0x0 SWAP1 PUSH1 0x1 PUSH1 0x1 PUSH1 0xA0 SHL SUB DUP4 AND SWAP1 PUSH4 0x21F8A721 SWAP1 PUSH1 0x24 ADD PUSH2 0x1ADF JUMP JUMPDEST PUSH1 0x0 PUSH2 0x2360 DUP4 PUSH1 0x1 PUSH1 0x1 PUSH1 0xA0 SHL SUB DUP5 AND PUSH2 0x3A3D JUMP JUMPDEST PUSH1 0x0 DUP1 SLOAD PUSH1 0x1 PUSH1 0x1 PUSH1 0xA0 SHL SUB NOT AND PUSH1 0x1 PUSH1 0x1 PUSH1 0xA0 SHL SUB DUP4 AND SWAP1 DUP2 OR DUP3 SSTORE PUSH1 0x40 DUP1 MLOAD SWAP3 DUP4 MSTORE PUSH1 0x20 DUP4 ADD SWAP2 SWAP1 SWAP2 MSTORE PUSH32 0xDE4B3F61490B74C0ED6237523974FE299126BBBF8A8A7482FD220104C59B0C84 SWAP2 ADD PUSH2 0x3CB JUMP JUMPDEST PUSH1 0x0 DUP1 PUSH2 0x295E PUSH1 0x60 DUP5 ADD PUSH1 0x40 DUP6 ADD PUSH2 0x4078 JUMP JUMPDEST SWAP1 POP PUSH2 0x2987 CALLER ADDRESS PUSH1 0x20 DUP7 ADD DUP1 CALLDATALOAD SWAP1 PUSH2 0x2976 SWAP1 DUP9 PUSH2 0x4078 JUMP JUMPDEST PUSH1 0x1 PUSH1 0x1 PUSH1 0xA0 SHL SUB AND SWAP3 SWAP2 SWAP1 PUSH2 0x3A8C JUMP JUMPDEST PUSH1 0x1 PUSH1 0x1 PUSH1 0xA0 SHL SUB DUP2 AND PUSH2 0x299E PUSH1 0x20 DUP6 ADD DUP6 PUSH2 0x4078 JUMP JUMPDEST PUSH1 0x1 PUSH1 0x1 PUSH1 0xA0 SHL SUB AND SUB PUSH2 0x29B5 JUMPI POP POP PUSH1 0x20 ADD CALLDATALOAD SWAP1 JUMP JUMPDEST PUSH1 0x0 DUP2 PUSH1 0x1 PUSH1 0x1 PUSH1 0xA0 SHL SUB AND PUSH4 0x6F307DC3 PUSH1 0x40 MLOAD DUP2 PUSH4 0xFFFFFFFF AND PUSH1 0xE0 SHL DUP2 MSTORE PUSH1 0x4 ADD PUSH1 0x20 PUSH1 0x40 MLOAD DUP1 DUP4 SUB DUP2 DUP7 GAS STATICCALL ISZERO DUP1 ISZERO PUSH2 0x29F5 JUMPI RETURNDATASIZE PUSH1 0x0 DUP1 RETURNDATACOPY RETURNDATASIZE PUSH1 0x0 REVERT JUMPDEST POP POP POP POP PUSH1 0x40 MLOAD RETURNDATASIZE PUSH1 0x1F NOT PUSH1 0x1F DUP3 ADD AND DUP3 ADD DUP1 PUSH1 0x40 MSTORE POP DUP2 ADD SWAP1 PUSH2 0x2A19 SWAP2 SWAP1 PUSH2 0x49CF JUMP JUMPDEST SWAP1 POP PUSH1 0x1 PUSH1 0x1 PUSH1 0xA0 SHL SUB DUP2 AND PUSH2 0x2A32 PUSH1 0x20 DUP7 ADD DUP7 PUSH2 0x4078 JUMP JUMPDEST PUSH1 0x1 PUSH1 0x1 PUSH1 0xA0 SHL SUB AND EQ PUSH1 0x40 MLOAD DUP1 PUSH1 0x40 ADD PUSH1 0x40 MSTORE DUP1 PUSH1 0x2 DUP2 MSTORE PUSH1 0x20 ADD PUSH2 0x3335 PUSH1 0xF0 SHL DUP2 MSTORE POP SWAP1 PUSH2 0x2A75 JUMPI PUSH1 0x40 MLOAD PUSH3 0x461BCD PUSH1 0xE5 SHL DUP2 MSTORE PUSH1 0x4 ADD PUSH2 0x362 SWAP2 SWAP1 PUSH2 0x4109 JUMP JUMPDEST POP PUSH2 0x2A8E PUSH1 0x1 PUSH1 0x1 PUSH1 0xA0 SHL SUB DUP3 AND DUP4 PUSH1 0x20 DUP8 ADD CALLDATALOAD PUSH2 0x3ACA JUMP JUMPDEST PUSH1 0x40 MLOAD PUSH4 0x1C57762B PUSH1 0xE3 SHL DUP2 MSTORE PUSH1 0x20 DUP6 ADD CALLDATALOAD PUSH1 0x4 DUP3 ADD MSTORE PUSH1 0x0 PUSH1 0x24 DUP3 ADD MSTORE PUSH1 0x1 PUSH1 0x1 PUSH1 0xA0 SHL SUB DUP4 AND SWAP1 PUSH4 0xE2BBB158 SWAP1 PUSH1 0x44 ADD PUSH1 0x20 PUSH1 0x40 MLOAD DUP1 DUP4 SUB DUP2 PUSH1 0x0 DUP8 GAS CALL ISZERO DUP1 ISZERO PUSH2 0x2ADF JUMPI RETURNDATASIZE PUSH1 0x0 DUP1 RETURNDATACOPY RETURNDATASIZE PUSH1 0x0 REVERT JUMPDEST POP POP POP POP PUSH1 0x40 MLOAD RETURNDATASIZE PUSH1 0x1F NOT PUSH1 0x1F DUP3 ADD AND DUP3 ADD DUP1 PUSH1 0x40 MSTORE POP DUP2 ADD SWAP1 PUSH2 0x2376 SWAP2 SWAP1 PUSH2 0x4875 JUMP JUMPDEST PUSH1 0x0 DUP1 DUP1 JUMPDEST DUP4 MLOAD DUP2 LT ISZERO PUSH2 0x1DE4 JUMPI PUSH1 0x0 DUP5 DUP3 DUP2 MLOAD DUP2 LT PUSH2 0x2B25 JUMPI PUSH2 0x2B25 PUSH2 0x4704 JUMP JUMPDEST PUSH1 0x20 MUL PUSH1 0x20 ADD ADD MLOAD SWAP1 POP DUP6 PUSH1 0x1 PUSH1 0x1 PUSH1 0xA0 SHL SUB AND DUP2 PUSH1 0x0 ADD MLOAD PUSH1 0x1 PUSH1 0x1 PUSH1 0xA0 SHL SUB AND SUB PUSH2 0x2B5E JUMPI PUSH1 0x20 DUP2 ADD MLOAD PUSH2 0x2B5B SWAP1 DUP5 PUSH2 0x49BC JUMP JUMPDEST SWAP3 POP JUMPDEST POP DUP1 PUSH2 0x2B69 DUP2 PUSH2 0x4730 JUMP JUMPDEST SWAP2 POP POP PUSH2 0x2B08 JUMP JUMPDEST PUSH1 0x0 PUSH2 0x2BC6 DUP3 PUSH1 0x40 MLOAD DUP1 PUSH1 0x40 ADD PUSH1 0x40 MSTORE DUP1 PUSH1 0x20 DUP2 MSTORE PUSH1 0x20 ADD PUSH32 0x5361666545524332303A206C6F772D6C6576656C2063616C6C206661696C6564 DUP2 MSTORE POP DUP6 PUSH1 0x1 PUSH1 0x1 PUSH1 0xA0 SHL SUB AND PUSH2 0x2367 SWAP1 SWAP3 SWAP2 SWAP1 PUSH4 0xFFFFFFFF AND JUMP JUMPDEST DUP1 MLOAD SWAP1 SWAP2 POP ISZERO PUSH2 0x2083 JUMPI DUP1 DUP1 PUSH1 0x20 ADD SWAP1 MLOAD DUP2 ADD SWAP1 PUSH2 0x2BE4 SWAP2 SWAP1 PUSH2 0x4650 JUMP JUMPDEST PUSH2 0x2083 JUMPI PUSH1 0x40 MLOAD PUSH3 0x461BCD PUSH1 0xE5 SHL DUP2 MSTORE PUSH1 0x20 PUSH1 0x4 DUP3 ADD MSTORE PUSH1 0x2A PUSH1 0x24 DUP3 ADD MSTORE PUSH32 0x5361666545524332303A204552433230206F7065726174696F6E20646964206E PUSH1 0x44 DUP3 ADD MSTORE PUSH10 0x1BDD081CDD58D8D95959 PUSH1 0xB2 SHL PUSH1 0x64 DUP3 ADD MSTORE PUSH1 0x84 ADD PUSH2 0x362 JUMP JUMPDEST PUSH1 0x0 PUSH1 0x11 NOT PUSH1 0xFF DUP4 AND ADD PUSH2 0x2C58 JUMPI POP DUP2 PUSH2 0x1DE8 JUMP JUMPDEST PUSH1 0x12 PUSH1 0xFF DUP4 AND GT ISZERO PUSH2 0x2C8B JUMPI PUSH2 0x2C6F PUSH1 0x12 DUP4 PUSH2 0x4B4A JUMP JUMPDEST PUSH2 0x2C7A SWAP1 PUSH1 0xA PUSH2 0x4C3F JUMP JUMPDEST PUSH2 0x2C84 SWAP1 DUP5 PUSH2 0x4AB4 JUMP JUMPDEST SWAP1 POP PUSH2 0x1DE8 JUMP JUMPDEST PUSH2 0x2C96 DUP3 PUSH1 0x12 PUSH2 0x4B4A JUMP JUMPDEST PUSH2 0x2CA1 SWAP1 PUSH1 0xA PUSH2 0x4C3F JUMP JUMPDEST PUSH2 0x2C84 SWAP1 DUP5 PUSH2 0x4A9D JUMP JUMPDEST PUSH1 0x40 MLOAD PUSH4 0xE964DA15 PUSH1 0xE0 SHL DUP2 MSTORE PUSH21 0x4759445F474C4F42414C5F535550504C595F43415 PUSH1 0x5C SHL PUSH1 0x4 DUP3 ADD MSTORE PUSH1 0x0 NOT PUSH1 0x24 DUP3 ADD MSTORE PUSH1 0x0 SWAP1 PUSH1 0x1 PUSH1 0x1 PUSH1 0xA0 SHL SUB DUP4 AND SWAP1 PUSH4 0xE964DA15 SWAP1 PUSH1 0x44 ADD PUSH1 0x20 PUSH1 0x40 MLOAD DUP1 DUP4 SUB DUP2 DUP7 GAS STATICCALL ISZERO DUP1 ISZERO PUSH2 0x2D12 JUMPI RETURNDATASIZE PUSH1 0x0 DUP1 RETURNDATACOPY RETURNDATASIZE PUSH1 0x0 REVERT JUMPDEST POP POP POP POP PUSH1 0x40 MLOAD RETURNDATASIZE PUSH1 0x1F NOT PUSH1 0x1F DUP3 ADD AND DUP3 ADD DUP1 PUSH1 0x40 MSTORE POP DUP2 ADD SWAP1 PUSH2 0x1639 SWAP2 SWAP1 PUSH2 0x4875 JUMP JUMPDEST PUSH1 0x40 MLOAD PUSH4 0x696EB375 PUSH1 0xE0 SHL DUP2 MSTORE PUSH32 0x4341505F41555448454E5449434154494F4E5F41444452455353000000000000 PUSH1 0x4 DUP3 ADD MSTORE PUSH1 0x0 SWAP1 PUSH1 0x1 PUSH1 0x1 PUSH1 0xA0 SHL SUB DUP5 AND SWAP1 PUSH4 0x696EB375 SWAP1 PUSH1 0x24 ADD PUSH1 0x20 PUSH1 0x40 MLOAD DUP1 DUP4 SUB DUP2 DUP7 GAS STATICCALL ISZERO DUP1 ISZERO PUSH2 0x2D9D JUMPI RETURNDATASIZE PUSH1 0x0 DUP1 RETURNDATACOPY RETURNDATASIZE PUSH1 0x0 REVERT JUMPDEST POP POP POP POP PUSH1 0x40 MLOAD RETURNDATASIZE PUSH1 0x1F NOT PUSH1 0x1F DUP3 ADD AND DUP3 ADD DUP1 PUSH1 0x40 MSTORE POP DUP2 ADD SWAP1 PUSH2 0x2DC1 SWAP2 SWAP1 PUSH2 0x4650 JUMP JUMPDEST PUSH2 0x2DCD JUMPI POP PUSH1 0x0 PUSH2 0x1DE8 JUMP JUMPDEST PUSH1 0x40 MLOAD PUSH4 0x21F8A721 PUSH1 0xE0 SHL DUP2 MSTORE PUSH32 0x4341505F41555448454E5449434154494F4E5F41444452455353000000000000 PUSH1 0x4 DUP3 ADD MSTORE PUSH1 0x1 PUSH1 0x1 PUSH1 0xA0 SHL SUB DUP5 AND SWAP1 PUSH4 0x21F8A721 SWAP1 PUSH1 0x24 ADD PUSH1 0x20 PUSH1 0x40 MLOAD DUP1 DUP4 SUB DUP2 DUP7 GAS STATICCALL ISZERO DUP1 ISZERO PUSH2 0x2E31 JUMPI RETURNDATASIZE PUSH1 0x0 DUP1 RETURNDATACOPY RETURNDATASIZE PUSH1 0x0 REVERT JUMPDEST POP POP POP POP PUSH1 0x40 MLOAD RETURNDATASIZE PUSH1 0x1F NOT PUSH1 0x1F DUP3 ADD AND DUP3 ADD DUP1 PUSH1 0x40 MSTORE POP DUP2 ADD SWAP1 PUSH2 0x2E55 SWAP2 SWAP1 PUSH2 0x49CF JUMP JUMPDEST PUSH1 0x40 MLOAD PUSH4 0xD15D415 PUSH1 0xE4 SHL DUP2 MSTORE PUSH1 0x1 PUSH1 0x1 PUSH1 0xA0 SHL SUB DUP5 DUP2 AND PUSH1 0x4 DUP4 ADD MSTORE SWAP2 SWAP1 SWAP2 AND SWAP1 PUSH4 0xD15D4150 SWAP1 PUSH1 0x24 ADD PUSH1 0x20 PUSH1 0x40 MLOAD DUP1 DUP4 SUB DUP2 DUP7 GAS STATICCALL ISZERO DUP1 ISZERO PUSH2 0x2E9D JUMPI RETURNDATASIZE PUSH1 0x0 DUP1 RETURNDATACOPY RETURNDATASIZE PUSH1 0x0 REVERT JUMPDEST POP POP POP POP PUSH1 0x40 MLOAD RETURNDATASIZE PUSH1 0x1F NOT PUSH1 0x1F DUP3 ADD AND DUP3 ADD DUP1 PUSH1 0x40 MSTORE POP DUP2 ADD SWAP1 PUSH2 0x2360 SWAP2 SWAP1 PUSH2 0x4650 JUMP JUMPDEST PUSH1 0x0 DUP2 ISZERO PUSH2 0x2F59 JUMPI PUSH1 0x40 MLOAD PUSH4 0xE964DA15 PUSH1 0xE0 SHL DUP2 MSTORE PUSH32 0x4759445F41555448454E544943415445445F555345525F434150000000000000 PUSH1 0x4 DUP3 ADD MSTORE PUSH1 0x0 NOT PUSH1 0x24 DUP3 ADD MSTORE PUSH1 0x1 PUSH1 0x1 PUSH1 0xA0 SHL SUB DUP5 AND SWAP1 PUSH4 0xE964DA15 SWAP1 PUSH1 0x44 ADD PUSH1 0x20 PUSH1 0x40 MLOAD DUP1 DUP4 SUB DUP2 DUP7 GAS STATICCALL ISZERO DUP1 ISZERO PUSH2 0x2F35 JUMPI RETURNDATASIZE PUSH1 0x0 DUP1 RETURNDATACOPY RETURNDATASIZE PUSH1 0x0 REVERT JUMPDEST POP POP POP POP PUSH1 0x40 MLOAD RETURNDATASIZE PUSH1 0x1F NOT PUSH1 0x1F DUP3 ADD AND DUP3 ADD DUP1 PUSH1 0x40 MSTORE POP DUP2 ADD SWAP1 PUSH2 0x2C84 SWAP2 SWAP1 PUSH2 0x4875 JUMP JUMPDEST PUSH1 0x40 MLOAD PUSH4 0xE964DA15 PUSH1 0xE0 SHL DUP2 MSTORE PUSH12 0x4759445F555345525F43415 PUSH1 0xA4 SHL PUSH1 0x4 DUP3 ADD MSTORE PUSH1 0x0 NOT PUSH1 0x24 DUP3 ADD MSTORE PUSH1 0x1 PUSH1 0x1 PUSH1 0xA0 SHL SUB DUP5 AND SWAP1 PUSH4 0xE964DA15 SWAP1 PUSH1 0x44 ADD PUSH1 0x20 PUSH1 0x40 MLOAD DUP1 DUP4 SUB DUP2 DUP7 GAS STATICCALL ISZERO DUP1 ISZERO PUSH2 0x2FB4 JUMPI RETURNDATASIZE PUSH1 0x0 DUP1 RETURNDATACOPY RETURNDATASIZE PUSH1 0x0 REVERT JUMPDEST POP POP POP POP PUSH1 0x40 MLOAD RETURNDATASIZE PUSH1 0x1F NOT PUSH1 0x1F DUP3 ADD AND DUP3 ADD DUP1 PUSH1 0x40 MSTORE POP DUP2 ADD SWAP1 PUSH2 0x2360 SWAP2 SWAP1 PUSH2 0x4875 JUMP JUMPDEST PUSH1 0x60 DUP3 SELFBALANCE LT ISZERO PUSH2 0x3039 JUMPI PUSH1 0x40 MLOAD PUSH3 0x461BCD PUSH1 0xE5 SHL DUP2 MSTORE PUSH1 0x20 PUSH1 0x4 DUP3 ADD MSTORE PUSH1 0x26 PUSH1 0x24 DUP3 ADD MSTORE PUSH32 0x416464726573733A20696E73756666696369656E742062616C616E636520666F PUSH1 0x44 DUP3 ADD MSTORE PUSH6 0x1C8818D85B1B PUSH1 0xD2 SHL PUSH1 0x64 DUP3 ADD MSTORE PUSH1 0x84 ADD PUSH2 0x362 JUMP JUMPDEST DUP5 EXTCODESIZE PUSH2 0x3087 JUMPI PUSH1 0x40 MLOAD PUSH3 0x461BCD PUSH1 0xE5 SHL DUP2 MSTORE PUSH1 0x20 PUSH1 0x4 DUP3 ADD MSTORE PUSH1 0x1D PUSH1 0x24 DUP3 ADD MSTORE PUSH32 0x416464726573733A2063616C6C20746F206E6F6E2D636F6E7472616374000000 PUSH1 0x44 DUP3 ADD MSTORE PUSH1 0x64 ADD PUSH2 0x362 JUMP JUMPDEST PUSH1 0x0 DUP1 DUP7 PUSH1 0x1 PUSH1 0x1 PUSH1 0xA0 SHL SUB AND DUP6 DUP8 PUSH1 0x40 MLOAD PUSH2 0x30A3 SWAP2 SWAP1 PUSH2 0x4C4E JUMP JUMPDEST PUSH1 0x0 PUSH1 0x40 MLOAD DUP1 DUP4 SUB DUP2 DUP6 DUP8 GAS CALL SWAP3 POP POP POP RETURNDATASIZE DUP1 PUSH1 0x0 DUP2 EQ PUSH2 0x30E0 JUMPI PUSH1 0x40 MLOAD SWAP2 POP PUSH1 0x1F NOT PUSH1 0x3F RETURNDATASIZE ADD AND DUP3 ADD PUSH1 0x40 MSTORE RETURNDATASIZE DUP3 MSTORE RETURNDATASIZE PUSH1 0x0 PUSH1 0x20 DUP5 ADD RETURNDATACOPY PUSH2 0x30E5 JUMP JUMPDEST PUSH1 0x60 SWAP2 POP JUMPDEST POP SWAP2 POP SWAP2 POP PUSH2 0x30F5 DUP3 DUP3 DUP7 PUSH2 0x3B7C JUMP JUMPDEST SWAP8 SWAP7 POP POP POP POP POP POP POP JUMP JUMPDEST PUSH1 0x0 JUMPDEST DUP2 DUP2 LT ISZERO PUSH2 0x2083 JUMPI CALLDATASIZE DUP4 DUP4 DUP4 DUP2 DUP2 LT PUSH2 0x311E JUMPI PUSH2 0x311E PUSH2 0x4704 JUMP JUMPDEST SWAP1 POP PUSH1 0x80 MUL ADD SWAP1 POP PUSH1 0x0 DUP3 PUSH1 0x1 PUSH2 0x3135 SWAP2 SWAP1 PUSH2 0x49BC JUMP JUMPDEST SWAP1 POP JUMPDEST DUP4 DUP2 LT ISZERO PUSH2 0x31E0 JUMPI CALLDATASIZE DUP6 DUP6 DUP4 DUP2 DUP2 LT PUSH2 0x3153 JUMPI PUSH2 0x3153 PUSH2 0x4704 JUMP JUMPDEST SWAP1 POP PUSH1 0x80 MUL ADD SWAP1 POP DUP1 PUSH1 0x60 ADD PUSH1 0x20 DUP2 ADD SWAP1 PUSH2 0x316E SWAP2 SWAP1 PUSH2 0x4078 JUMP JUMPDEST PUSH1 0x1 PUSH1 0x1 PUSH1 0xA0 SHL SUB AND PUSH2 0x3187 PUSH1 0x80 DUP6 ADD PUSH1 0x60 DUP7 ADD PUSH2 0x4078 JUMP JUMPDEST PUSH1 0x1 PUSH1 0x1 PUSH1 0xA0 SHL SUB AND EQ ISZERO PUSH1 0x40 MLOAD DUP1 PUSH1 0x40 ADD PUSH1 0x40 MSTORE DUP1 PUSH1 0x2 DUP2 MSTORE PUSH1 0x20 ADD PUSH2 0x3331 PUSH1 0xF0 SHL DUP2 MSTORE POP SWAP1 PUSH2 0x31CB JUMPI PUSH1 0x40 MLOAD PUSH3 0x461BCD PUSH1 0xE5 SHL DUP2 MSTORE PUSH1 0x4 ADD PUSH2 0x362 SWAP2 SWAP1 PUSH2 0x4109 JUMP JUMPDEST POP POP DUP1 DUP1 PUSH2 0x31D8 SWAP1 PUSH2 0x4730 JUMP JUMPDEST SWAP2 POP POP PUSH2 0x3138 JUMP JUMPDEST POP POP DUP1 DUP1 PUSH2 0x31ED SWAP1 PUSH2 0x4730 JUMP JUMPDEST SWAP2 POP POP PUSH2 0x3103 JUMP JUMPDEST PUSH1 0x0 DUP1 PUSH1 0x0 JUMPDEST DUP4 DUP2 LT ISZERO PUSH2 0x32B8 JUMPI CALLDATASIZE DUP6 DUP6 DUP4 DUP2 DUP2 LT PUSH2 0x3216 JUMPI PUSH2 0x3216 PUSH2 0x4704 JUMP JUMPDEST SWAP1 POP PUSH1 0x80 MUL ADD SWAP1 POP DUP8 PUSH1 0x0 ADD MLOAD PUSH1 0x1 PUSH1 0x1 PUSH1 0xA0 SHL SUB AND DUP2 PUSH1 0x60 ADD PUSH1 0x20 DUP2 ADD SWAP1 PUSH2 0x323F SWAP2 SWAP1 PUSH2 0x4078 JUMP JUMPDEST PUSH1 0x1 PUSH1 0x1 PUSH1 0xA0 SHL SUB AND SUB PUSH2 0x32A5 JUMPI PUSH1 0x0 PUSH2 0x325D DUP9 PUSH1 0x40 DUP5 ADD CALLDATALOAD PUSH2 0x2611 JUMP JUMPDEST SWAP1 POP PUSH1 0x0 PUSH2 0x3278 DUP11 PUSH1 0x60 ADD MLOAD DUP4 PUSH2 0x3BB5 SWAP1 SWAP2 SWAP1 PUSH4 0xFFFFFFFF AND JUMP JUMPDEST SWAP1 POP PUSH1 0x0 PUSH2 0x3293 DUP12 PUSH1 0x20 ADD MLOAD DUP4 PUSH2 0x3C20 SWAP1 SWAP2 SWAP1 PUSH4 0xFFFFFFFF AND JUMP JUMPDEST SWAP7 POP POP POP POP PUSH1 0x40 ADD CALLDATALOAD SWAP2 POP PUSH2 0x15DE SWAP1 POP JUMP JUMPDEST POP DUP1 PUSH2 0x32B0 DUP2 PUSH2 0x4730 JUMP JUMPDEST SWAP2 POP POP PUSH2 0x31FB JUMP JUMPDEST POP PUSH1 0x0 SWAP7 DUP8 SWAP7 POP SWAP5 POP POP POP POP POP JUMP JUMPDEST PUSH1 0x0 DUP1 JUMPDEST DUP4 MLOAD DUP2 LT ISZERO PUSH2 0x3333 JUMPI PUSH1 0x0 DUP5 DUP3 DUP2 MLOAD DUP2 LT PUSH2 0x32E8 JUMPI PUSH2 0x32E8 PUSH2 0x4704 JUMP JUMPDEST PUSH1 0x20 MUL PUSH1 0x20 ADD ADD MLOAD SWAP1 POP DUP4 PUSH1 0x1 PUSH1 0x1 PUSH1 0xA0 SHL SUB AND DUP2 PUSH1 0x0 ADD MLOAD PUSH1 0x0 ADD MLOAD PUSH1 0x1 PUSH1 0x1 PUSH1 0xA0 SHL SUB AND SUB PUSH2 0x3320 JUMPI PUSH1 0x20 ADD MLOAD SWAP2 POP PUSH2 0x1DE8 SWAP1 POP JUMP JUMPDEST POP DUP1 PUSH2 0x332B DUP2 PUSH2 0x4730 JUMP JUMPDEST SWAP2 POP POP PUSH2 0x32CB JUMP JUMPDEST POP PUSH1 0x0 SWAP4 SWAP3 POP POP POP JUMP JUMPDEST PUSH1 0x0 PUSH1 0x60 DUP2 PUSH2 0x3351 PUSH1 0x80 DUP7 ADD DUP7 DUP5 ADD PUSH2 0x4078 JUMP JUMPDEST SWAP1 POP PUSH1 0x1 PUSH1 0x1 PUSH1 0xA0 SHL SUB DUP2 AND PUSH2 0x336A PUSH1 0x20 DUP8 ADD DUP8 PUSH2 0x4078 JUMP JUMPDEST PUSH1 0x1 PUSH1 0x1 PUSH1 0xA0 SHL SUB AND SUB PUSH2 0x3391 JUMPI POP POP PUSH1 0x40 DUP1 MLOAD PUSH1 0x20 DUP2 ADD SWAP1 SWAP2 MSTORE PUSH1 0x0 DUP2 MSTORE DUP3 SWAP2 POP PUSH2 0x2880 JUMP JUMPDEST DUP1 PUSH1 0x1 PUSH1 0x1 PUSH1 0xA0 SHL SUB AND PUSH4 0x6F307DC3 PUSH1 0x40 MLOAD DUP2 PUSH4 0xFFFFFFFF AND PUSH1 0xE0 SHL DUP2 MSTORE PUSH1 0x4 ADD PUSH1 0x20 PUSH1 0x40 MLOAD DUP1 DUP4 SUB DUP2 DUP7 GAS STATICCALL ISZERO DUP1 ISZERO PUSH2 0x33CF JUMPI RETURNDATASIZE PUSH1 0x0 DUP1 RETURNDATACOPY RETURNDATASIZE PUSH1 0x0 REVERT JUMPDEST POP POP POP POP PUSH1 0x40 MLOAD RETURNDATASIZE PUSH1 0x1F NOT PUSH1 0x1F DUP3 ADD AND DUP3 ADD DUP1 PUSH1 0x40 MSTORE POP DUP2 ADD SWAP1 PUSH2 0x33F3 SWAP2 SWAP1 PUSH2 0x49CF JUMP JUMPDEST PUSH1 0x1 PUSH1 0x1 PUSH1 0xA0 SHL SUB AND PUSH2 0x3409 PUSH1 0x20 DUP8 ADD DUP8 PUSH2 0x4078 JUMP JUMPDEST PUSH1 0x1 PUSH1 0x1 PUSH1 0xA0 SHL SUB AND EQ PUSH2 0x343B JUMPI POP POP PUSH1 0x40 DUP1 MLOAD DUP1 DUP3 ADD SWAP1 SWAP2 MSTORE PUSH1 0x2 DUP2 MSTORE PUSH2 0x3335 PUSH1 0xF0 SHL PUSH1 0x20 DUP3 ADD MSTORE PUSH1 0x0 SWAP2 POP PUSH2 0x2880 JUMP JUMPDEST PUSH1 0x40 MLOAD PUSH4 0x70A08231 PUSH1 0xE0 SHL DUP2 MSTORE PUSH1 0x1 PUSH1 0x1 PUSH1 0xA0 SHL SUB PUSH32 0x0 DUP2 AND PUSH1 0x4 DUP4 ADD MSTORE PUSH1 0x0 SWAP2 SWAP1 DUP4 AND SWAP1 PUSH4 0x70A08231 SWAP1 PUSH1 0x24 ADD PUSH1 0x20 PUSH1 0x40 MLOAD DUP1 DUP4 SUB DUP2 DUP7 GAS STATICCALL ISZERO DUP1 ISZERO PUSH2 0x34A5 JUMPI RETURNDATASIZE PUSH1 0x0 DUP1 RETURNDATACOPY RETURNDATASIZE PUSH1 0x0 REVERT JUMPDEST POP POP POP POP PUSH1 0x40 MLOAD RETURNDATASIZE PUSH1 0x1F NOT PUSH1 0x1F DUP3 ADD AND DUP3 ADD DUP1 PUSH1 0x40 MSTORE POP DUP2 ADD SWAP1 PUSH2 0x34C9 SWAP2 SWAP1 PUSH2 0x4875 JUMP JUMPDEST SWAP1 POP DUP5 DUP2 LT ISZERO PUSH2 0x34FB JUMPI PUSH1 0x0 PUSH1 0x40 MLOAD DUP1 PUSH1 0x40 ADD PUSH1 0x40 MSTORE DUP1 PUSH1 0x2 DUP2 MSTORE PUSH1 0x20 ADD PUSH2 0xCCD PUSH1 0xF2 SHL DUP2 MSTORE POP SWAP4 POP SWAP4 POP POP POP PUSH2 0x2880 JUMP JUMPDEST PUSH1 0x40 MLOAD PUSH4 0xCC04FEFF PUSH1 0xE0 SHL DUP2 MSTORE PUSH1 0x4 DUP2 ADD DUP7 SWAP1 MSTORE PUSH1 0x0 PUSH1 0x24 DUP3 ADD MSTORE PUSH1 0x1 PUSH1 0x1 PUSH1 0xA0 SHL SUB DUP4 AND SWAP1 PUSH4 0xCC04FEFF SWAP1 PUSH1 0x44 ADD PUSH1 0x0 PUSH1 0x40 MLOAD DUP1 DUP4 SUB DUP2 DUP7 GAS STATICCALL ISZERO DUP1 ISZERO PUSH2 0x3547 JUMPI RETURNDATASIZE PUSH1 0x0 DUP1 RETURNDATACOPY RETURNDATASIZE PUSH1 0x0 REVERT JUMPDEST POP POP POP POP PUSH1 0x40 MLOAD RETURNDATASIZE PUSH1 0x0 DUP3 RETURNDATACOPY PUSH1 0x1F RETURNDATASIZE SWAP1 DUP2 ADD PUSH1 0x1F NOT AND DUP3 ADD PUSH1 0x40 MSTORE PUSH2 0x356F SWAP2 SWAP1 DUP2 ADD SWAP1 PUSH2 0x4C60 JUMP JUMPDEST SWAP4 POP SWAP4 POP POP POP SWAP3 POP SWAP3 SWAP1 POP JUMP JUMPDEST PUSH1 0x60 DUP3 ADD MLOAD PUSH1 0x40 MLOAD PUSH4 0x13C50353 PUSH1 0xE3 SHL DUP2 MSTORE PUSH1 0x1 PUSH1 0x1 PUSH1 0xA0 SHL SUB DUP1 DUP4 AND PUSH1 0x4 DUP4 ADD MSTORE PUSH1 0x24 DUP3 ADD DUP5 SWAP1 MSTORE PUSH1 0x0 SWAP3 SWAP2 PUSH32 0x0 SWAP1 SWAP2 AND SWAP1 PUSH4 0x9E281A98 SWAP1 PUSH1 0x44 ADD PUSH1 0x0 PUSH1 0x40 MLOAD DUP1 DUP4 SUB DUP2 PUSH1 0x0 DUP8 DUP1 EXTCODESIZE ISZERO DUP1 ISZERO PUSH2 0x35F1 JUMPI PUSH1 0x0 DUP1 REVERT JUMPDEST POP GAS CALL ISZERO DUP1 ISZERO PUSH2 0x3605 JUMPI RETURNDATASIZE PUSH1 0x0 DUP1 RETURNDATACOPY RETURNDATASIZE PUSH1 0x0 REVERT JUMPDEST POP POP POP POP DUP1 PUSH1 0x1 PUSH1 0x1 PUSH1 0xA0 SHL SUB AND DUP5 PUSH1 0x0 ADD MLOAD PUSH1 0x1 PUSH1 0x1 PUSH1 0xA0 SHL SUB AND SUB PUSH2 0x362F JUMPI DUP3 SWAP2 POP POP PUSH2 0x1DE8 JUMP JUMPDEST DUP1 PUSH1 0x1 PUSH1 0x1 PUSH1 0xA0 SHL SUB AND PUSH4 0x6F307DC3 PUSH1 0x40 MLOAD DUP2 PUSH4 0xFFFFFFFF AND PUSH1 0xE0 SHL DUP2 MSTORE PUSH1 0x4 ADD PUSH1 0x20 PUSH1 0x40 MLOAD DUP1 DUP4 SUB DUP2 DUP7 GAS STATICCALL ISZERO DUP1 ISZERO PUSH2 0x366D JUMPI RETURNDATASIZE PUSH1 0x0 DUP1 RETURNDATACOPY RETURNDATASIZE PUSH1 0x0 REVERT JUMPDEST POP POP POP POP PUSH1 0x40 MLOAD RETURNDATASIZE PUSH1 0x1F NOT PUSH1 0x1F DUP3 ADD AND DUP3 ADD DUP1 PUSH1 0x40 MSTORE POP DUP2 ADD SWAP1 PUSH2 0x3691 SWAP2 SWAP1 PUSH2 0x49CF JUMP JUMPDEST PUSH1 0x1 PUSH1 0x1 PUSH1 0xA0 SHL SUB AND DUP5 PUSH1 0x0 ADD MLOAD PUSH1 0x1 PUSH1 0x1 PUSH1 0xA0 SHL SUB AND EQ PUSH1 0x40 MLOAD DUP1 PUSH1 0x40 ADD PUSH1 0x40 MSTORE DUP1 PUSH1 0x2 DUP2 MSTORE PUSH1 0x20 ADD PUSH2 0x3335 PUSH1 0xF0 SHL DUP2 MSTORE POP SWAP1 PUSH2 0x36E2 JUMPI PUSH1 0x40 MLOAD PUSH3 0x461BCD PUSH1 0xE5 SHL DUP2 MSTORE PUSH1 0x4 ADD PUSH2 0x362 SWAP2 SWAP1 PUSH2 0x4109 JUMP JUMPDEST POP PUSH1 0x40 MLOAD PUSH4 0x441A3E7 PUSH1 0xE4 SHL DUP2 MSTORE PUSH1 0x4 DUP2 ADD DUP5 SWAP1 MSTORE PUSH1 0x0 PUSH1 0x24 DUP3 ADD MSTORE PUSH1 0x1 PUSH1 0x1 PUSH1 0xA0 SHL SUB DUP3 AND SWAP1 PUSH4 0x441A3E70 SWAP1 PUSH1 0x44 ADD PUSH1 0x20 PUSH1 0x40 MLOAD DUP1 DUP4 SUB DUP2 PUSH1 0x0 DUP8 GAS CALL ISZERO DUP1 ISZERO PUSH2 0x3731 JUMPI RETURNDATASIZE PUSH1 0x0 DUP1 RETURNDATACOPY RETURNDATASIZE PUSH1 0x0 REVERT JUMPDEST POP POP POP POP PUSH1 0x40 MLOAD RETURNDATASIZE PUSH1 0x1F NOT PUSH1 0x1F DUP3 ADD AND DUP3 ADD DUP1 PUSH1 0x40 MSTORE POP DUP2 ADD SWAP1 PUSH2 0x3755 SWAP2 SWAP1 PUSH2 0x4875 JUMP JUMPDEST SWAP2 POP POP PUSH2 0x1DE8 JUMP JUMPDEST PUSH1 0x60 DUP2 PUSH1 0x0 ADD DUP1 SLOAD DUP1 PUSH1 0x20 MUL PUSH1 0x20 ADD PUSH1 0x40 MLOAD SWAP1 DUP2 ADD PUSH1 0x40 MSTORE DUP1 SWAP3 SWAP2 SWAP1 DUP2 DUP2 MSTORE PUSH1 0x20 ADD DUP3 DUP1 SLOAD DUP1 ISZERO PUSH2 0x37AD JUMPI PUSH1 0x20 MUL DUP3 ADD SWAP2 SWAP1 PUSH1 0x0 MSTORE PUSH1 0x20 PUSH1 0x0 KECCAK256 SWAP1 JUMPDEST DUP2 SLOAD DUP2 MSTORE PUSH1 0x20 ADD SWAP1 PUSH1 0x1 ADD SWAP1 DUP1 DUP4 GT PUSH2 0x3799 JUMPI JUMPDEST POP POP POP POP POP SWAP1 POP SWAP2 SWAP1 POP JUMP JUMPDEST PUSH1 0x0 PUSH1 0x60 PUSH2 0x37CC DUP4 DUP3 ADD PUSH1 0x40 DUP6 ADD PUSH2 0x4078 JUMP JUMPDEST PUSH1 0x1 PUSH1 0x1 PUSH1 0xA0 SHL SUB AND PUSH2 0x37E2 PUSH1 0x20 DUP6 ADD DUP6 PUSH2 0x4078 JUMP JUMPDEST PUSH1 0x1 PUSH1 0x1 PUSH1 0xA0 SHL SUB AND SUB PUSH2 0x3808 JUMPI POP POP PUSH1 0x40 DUP1 MLOAD PUSH1 0x20 DUP2 DUP2 ADD SWAP1 SWAP3 MSTORE PUSH1 0x0 DUP2 MSTORE SWAP2 ADD CALLDATALOAD SWAP2 JUMP JUMPDEST PUSH1 0x0 PUSH2 0x381A PUSH1 0x60 DUP6 ADD PUSH1 0x40 DUP7 ADD PUSH2 0x4078 JUMP JUMPDEST SWAP1 POP DUP1 PUSH1 0x1 PUSH1 0x1 PUSH1 0xA0 SHL SUB AND PUSH4 0x6F307DC3 PUSH1 0x40 MLOAD DUP2 PUSH4 0xFFFFFFFF AND PUSH1 0xE0 SHL DUP2 MSTORE PUSH1 0x4 ADD PUSH1 0x20 PUSH1 0x40 MLOAD DUP1 DUP4 SUB DUP2 DUP7 GAS STATICCALL ISZERO DUP1 ISZERO PUSH2 0x385A JUMPI RETURNDATASIZE PUSH1 0x0 DUP1 RETURNDATACOPY RETURNDATASIZE PUSH1 0x0 REVERT JUMPDEST POP POP POP POP PUSH1 0x40 MLOAD RETURNDATASIZE PUSH1 0x1F NOT PUSH1 0x1F DUP3 ADD AND DUP3 ADD DUP1 PUSH1 0x40 MSTORE POP DUP2 ADD SWAP1 PUSH2 0x387E SWAP2 SWAP1 PUSH2 0x49CF JUMP JUMPDEST PUSH1 0x1 PUSH1 0x1 PUSH1 0xA0 SHL SUB AND PUSH2 0x3894 PUSH1 0x20 DUP7 ADD DUP7 PUSH2 0x4078 JUMP JUMPDEST PUSH1 0x1 PUSH1 0x1 PUSH1 0xA0 SHL SUB AND SUB PUSH2 0x3923 JUMPI PUSH1 0x40 MLOAD PUSH4 0x2A8695B1 PUSH1 0xE1 SHL DUP2 MSTORE PUSH1 0x20 DUP6 ADD CALLDATALOAD PUSH1 0x4 DUP3 ADD MSTORE PUSH1 0x0 PUSH1 0x24 DUP3 ADD MSTORE PUSH1 0x1 PUSH1 0x1 PUSH1 0xA0 SHL SUB DUP3 AND SWAP1 PUSH4 0x550D2B62 SWAP1 PUSH1 0x44 ADD PUSH1 0x0 PUSH1 0x40 MLOAD DUP1 DUP4 SUB DUP2 DUP7 GAS STATICCALL ISZERO DUP1 ISZERO PUSH2 0x38F1 JUMPI RETURNDATASIZE PUSH1 0x0 DUP1 RETURNDATACOPY RETURNDATASIZE PUSH1 0x0 REVERT JUMPDEST POP POP POP POP PUSH1 0x40 MLOAD RETURNDATASIZE PUSH1 0x0 DUP3 RETURNDATACOPY PUSH1 0x1F RETURNDATASIZE SWAP1 DUP2 ADD PUSH1 0x1F NOT AND DUP3 ADD PUSH1 0x40 MSTORE PUSH2 0x3919 SWAP2 SWAP1 DUP2 ADD SWAP1 PUSH2 0x4C60 JUMP JUMPDEST SWAP3 POP SWAP3 POP POP SWAP2 POP SWAP2 JUMP JUMPDEST PUSH1 0x0 PUSH1 0x40 MLOAD DUP1 PUSH1 0x40 ADD PUSH1 0x40 MSTORE DUP1 PUSH1 0x2 DUP2 MSTORE PUSH1 0x20 ADD PUSH2 0x3335 PUSH1 0xF0 SHL DUP2 MSTORE POP SWAP3 POP SWAP3 POP POP SWAP2 POP SWAP2 JUMP JUMPDEST PUSH1 0x0 DUP2 DUP2 MSTORE PUSH1 0x1 DUP4 ADD PUSH1 0x20 MSTORE PUSH1 0x40 DUP2 KECCAK256 SLOAD DUP1 ISZERO PUSH2 0x3A33 JUMPI PUSH1 0x0 PUSH2 0x396E PUSH1 0x1 DUP4 PUSH2 0x4CA6 JUMP JUMPDEST DUP6 SLOAD SWAP1 SWAP2 POP PUSH1 0x0 SWAP1 PUSH2 0x3982 SWAP1 PUSH1 0x1 SWAP1 PUSH2 0x4CA6 JUMP JUMPDEST SWAP1 POP DUP2 DUP2 EQ PUSH2 0x39E7 JUMPI PUSH1 0x0 DUP7 PUSH1 0x0 ADD DUP3 DUP2 SLOAD DUP2 LT PUSH2 0x39A2 JUMPI PUSH2 0x39A2 PUSH2 0x4704 JUMP JUMPDEST SWAP1 PUSH1 0x0 MSTORE PUSH1 0x20 PUSH1 0x0 KECCAK256 ADD SLOAD SWAP1 POP DUP1 DUP8 PUSH1 0x0 ADD DUP5 DUP2 SLOAD DUP2 LT PUSH2 0x39C5 JUMPI PUSH2 0x39C5 PUSH2 0x4704 JUMP JUMPDEST PUSH1 0x0 SWAP2 DUP3 MSTORE PUSH1 0x20 DUP1 DUP4 KECCAK256 SWAP1 SWAP2 ADD SWAP3 SWAP1 SWAP3 SSTORE SWAP2 DUP3 MSTORE PUSH1 0x1 DUP9 ADD SWAP1 MSTORE PUSH1 0x40 SWAP1 KECCAK256 DUP4 SWAP1 SSTORE JUMPDEST DUP6 SLOAD DUP7 SWAP1 DUP1 PUSH2 0x39F8 JUMPI PUSH2 0x39F8 PUSH2 0x4CB9 JUMP JUMPDEST PUSH1 0x1 SWAP1 SUB DUP2 DUP2 SWAP1 PUSH1 0x0 MSTORE PUSH1 0x20 PUSH1 0x0 KECCAK256 ADD PUSH1 0x0 SWAP1 SSTORE SWAP1 SSTORE DUP6 PUSH1 0x1 ADD PUSH1 0x0 DUP7 DUP2 MSTORE PUSH1 0x20 ADD SWAP1 DUP2 MSTORE PUSH1 0x20 ADD PUSH1 0x0 KECCAK256 PUSH1 0x0 SWAP1 SSTORE PUSH1 0x1 SWAP4 POP POP POP POP PUSH2 0x1DE8 JUMP JUMPDEST PUSH1 0x0 SWAP2 POP POP PUSH2 0x1DE8 JUMP JUMPDEST PUSH1 0x0 DUP2 DUP2 MSTORE PUSH1 0x1 DUP4 ADD PUSH1 0x20 MSTORE PUSH1 0x40 DUP2 KECCAK256 SLOAD PUSH2 0x3A84 JUMPI POP DUP2 SLOAD PUSH1 0x1 DUP2 DUP2 ADD DUP5 SSTORE PUSH1 0x0 DUP5 DUP2 MSTORE PUSH1 0x20 DUP1 DUP3 KECCAK256 SWAP1 SWAP4 ADD DUP5 SWAP1 SSTORE DUP5 SLOAD DUP5 DUP3 MSTORE DUP3 DUP7 ADD SWAP1 SWAP4 MSTORE PUSH1 0x40 SWAP1 KECCAK256 SWAP2 SWAP1 SWAP2 SSTORE PUSH2 0x1DE8 JUMP JUMPDEST POP PUSH1 0x0 PUSH2 0x1DE8 JUMP JUMPDEST PUSH1 0x40 MLOAD PUSH1 0x1 PUSH1 0x1 PUSH1 0xA0 SHL SUB DUP1 DUP6 AND PUSH1 0x24 DUP4 ADD MSTORE DUP4 AND PUSH1 0x44 DUP3 ADD MSTORE PUSH1 0x64 DUP2 ADD DUP3 SWAP1 MSTORE PUSH2 0x3AC4 SWAP1 DUP6 SWAP1 PUSH4 0x23B872DD PUSH1 0xE0 SHL SWAP1 PUSH1 0x84 ADD PUSH2 0x204C JUMP JUMPDEST POP POP POP POP JUMP JUMPDEST PUSH1 0x40 MLOAD PUSH4 0x6EB1769F PUSH1 0xE1 SHL DUP2 MSTORE ADDRESS PUSH1 0x4 DUP3 ADD MSTORE PUSH1 0x1 PUSH1 0x1 PUSH1 0xA0 SHL SUB DUP4 DUP2 AND PUSH1 0x24 DUP4 ADD MSTORE PUSH1 0x0 SWAP2 DUP4 SWAP2 DUP7 AND SWAP1 PUSH4 0xDD62ED3E SWAP1 PUSH1 0x44 ADD PUSH1 0x20 PUSH1 0x40 MLOAD DUP1 DUP4 SUB DUP2 DUP7 GAS STATICCALL ISZERO DUP1 ISZERO PUSH2 0x3B1B JUMPI RETURNDATASIZE PUSH1 0x0 DUP1 RETURNDATACOPY RETURNDATASIZE PUSH1 0x0 REVERT JUMPDEST POP POP POP POP PUSH1 0x40 MLOAD RETURNDATASIZE PUSH1 0x1F NOT PUSH1 0x1F DUP3 ADD AND DUP3 ADD DUP1 PUSH1 0x40 MSTORE POP DUP2 ADD SWAP1 PUSH2 0x3B3F SWAP2 SWAP1 PUSH2 0x4875 JUMP JUMPDEST PUSH2 0x3B49 SWAP2 SWAP1 PUSH2 0x49BC JUMP JUMPDEST PUSH1 0x40 MLOAD PUSH1 0x1 PUSH1 0x1 PUSH1 0xA0 SHL SUB DUP6 AND PUSH1 0x24 DUP3 ADD MSTORE PUSH1 0x44 DUP2 ADD DUP3 SWAP1 MSTORE SWAP1 SWAP2 POP PUSH2 0x3AC4 SWAP1 DUP6 SWAP1 PUSH4 0x95EA7B3 PUSH1 0xE0 SHL SWAP1 PUSH1 0x64 ADD PUSH2 0x204C JUMP JUMPDEST PUSH1 0x60 DUP4 ISZERO PUSH2 0x3B8B JUMPI POP DUP2 PUSH2 0x2360 JUMP JUMPDEST DUP3 MLOAD ISZERO PUSH2 0x3B9B JUMPI DUP3 MLOAD DUP1 DUP5 PUSH1 0x20 ADD REVERT JUMPDEST DUP2 PUSH1 0x40 MLOAD PUSH3 0x461BCD PUSH1 0xE5 SHL DUP2 MSTORE PUSH1 0x4 ADD PUSH2 0x362 SWAP2 SWAP1 PUSH2 0x4109 JUMP JUMPDEST PUSH1 0x40 DUP1 MLOAD DUP1 DUP3 ADD SWAP1 SWAP2 MSTORE PUSH1 0x2 DUP2 MSTORE PUSH2 0x3235 PUSH1 0xF0 SHL PUSH1 0x20 DUP3 ADD MSTORE PUSH1 0x0 SWAP1 DUP3 PUSH2 0x3BEF JUMPI PUSH1 0x40 MLOAD PUSH3 0x461BCD PUSH1 0xE5 SHL DUP2 MSTORE PUSH1 0x4 ADD PUSH2 0x362 SWAP2 SWAP1 PUSH2 0x4109 JUMP JUMPDEST POP DUP3 PUSH1 0x0 SUB PUSH2 0x3C00 JUMPI POP PUSH1 0x0 PUSH2 0x1DE8 JUMP JUMPDEST PUSH1 0x0 PUSH2 0x3C14 PUSH8 0xDE0B6B3A7640000 DUP6 PUSH2 0x4A9D JUMP JUMPDEST SWAP1 POP PUSH2 0x3755 DUP4 DUP3 PUSH2 0x4AB4 JUMP JUMPDEST PUSH1 0x0 PUSH1 0x11 NOT PUSH1 0xFF DUP4 AND ADD PUSH2 0x3C35 JUMPI POP DUP2 PUSH2 0x1DE8 JUMP JUMPDEST PUSH1 0x12 PUSH1 0xFF DUP4 AND GT ISZERO PUSH2 0x3C4C JUMPI PUSH2 0x2C96 PUSH1 0x12 DUP4 PUSH2 0x4B4A JUMP JUMPDEST PUSH2 0x2C6F DUP3 PUSH1 0x12 PUSH2 0x4B4A JUMP JUMPDEST PUSH1 0x40 MLOAD DUP1 PUSH1 0x40 ADD PUSH1 0x40 MSTORE DUP1 PUSH2 0x3C6A PUSH2 0x3C77 JUMP JUMPDEST DUP2 MSTORE PUSH1 0x20 ADD PUSH1 0x0 DUP2 MSTORE POP SWAP1 JUMP JUMPDEST PUSH1 0x40 MLOAD DUP1 PUSH2 0x120 ADD PUSH1 0x40 MSTORE DUP1 PUSH1 0x0 PUSH1 0x1 PUSH1 0x1 PUSH1 0xA0 SHL SUB AND DUP2 MSTORE PUSH1 0x20 ADD PUSH1 0x0 PUSH1 0xFF AND DUP2 MSTORE PUSH1 0x20 ADD PUSH1 0x0 PUSH1 0x1 PUSH1 0x1 PUSH1 0xA0 SHL SUB AND DUP2 MSTORE PUSH1 0x20 ADD PUSH1 0x0 DUP2 MSTORE PUSH1 0x20 ADD PUSH2 0x3CDF PUSH1 0x40 MLOAD DUP1 PUSH1 0x80 ADD PUSH1 0x40 MSTORE DUP1 PUSH1 0x0 DUP2 MSTORE PUSH1 0x20 ADD PUSH1 0x0 DUP2 MSTORE PUSH1 0x20 ADD PUSH1 0x0 DUP2 MSTORE PUSH1 0x20 ADD PUSH1 0x0 DUP2 MSTORE POP SWAP1 JUMP JUMPDEST DUP2 MSTORE PUSH1 0x20 ADD PUSH1 0x0 DUP2 MSTORE PUSH1 0x20 ADD PUSH1 0x0 DUP2 MSTORE PUSH1 0x20 ADD PUSH1 0x0 DUP2 MSTORE PUSH1 0x20 ADD PUSH1 0x60 DUP2 MSTORE POP SWAP1 JUMP JUMPDEST PUSH1 0x0 DUP1 DUP4 PUSH1 0x1F DUP5 ADD SLT PUSH2 0x3D13 JUMPI PUSH1 0x0 DUP1 REVERT JUMPDEST POP DUP2 CALLDATALOAD PUSH1 0x1 PUSH1 0x1 PUSH1 0x40 SHL SUB DUP2 GT ISZERO PUSH2 0x3D2A JUMPI PUSH1 0x0 DUP1 REVERT JUMPDEST PUSH1 0x20 DUP4 ADD SWAP2 POP DUP4 PUSH1 0x20 PUSH1 0x60 DUP4 MUL DUP6 ADD ADD GT ISZERO PUSH2 0x2880 JUMPI PUSH1 0x0 DUP1 REVERT JUMPDEST PUSH1 0x0 DUP1 PUSH1 0x0 PUSH1 0x40 DUP5 DUP7 SUB SLT ISZERO PUSH2 0x3D5A JUMPI PUSH1 0x0 DUP1 REVERT JUMPDEST DUP4 CALLDATALOAD PUSH1 0x1 PUSH1 0x1 PUSH1 0x40 SHL SUB DUP2 GT ISZERO PUSH2 0x3D70 JUMPI PUSH1 0x0 DUP1 REVERT JUMPDEST PUSH2 0x3D7C DUP7 DUP3 DUP8 ADD PUSH2 0x3D01 JUMP JUMPDEST SWAP1 SWAP8 SWAP1 SWAP7 POP PUSH1 0x20 SWAP6 SWAP1 SWAP6 ADD CALLDATALOAD SWAP5 SWAP4 POP POP POP POP JUMP JUMPDEST PUSH1 0x0 DUP1 DUP4 PUSH1 0x1F DUP5 ADD SLT PUSH2 0x3DA2 JUMPI PUSH1 0x0 DUP1 REVERT JUMPDEST POP DUP2 CALLDATALOAD PUSH1 0x1 PUSH1 0x1 PUSH1 0x40 SHL SUB DUP2 GT ISZERO PUSH2 0x3DB9 JUMPI PUSH1 0x0 DUP1 REVERT JUMPDEST PUSH1 0x20 DUP4 ADD SWAP2 POP DUP4 PUSH1 0x20 DUP3 PUSH1 0x7 SHL DUP6 ADD ADD GT ISZERO PUSH2 0x2880 JUMPI PUSH1 0x0 DUP1 REVERT JUMPDEST PUSH1 0x0 DUP1 DUP4 PUSH1 0x1F DUP5 ADD SLT PUSH2 0x3DE6 JUMPI PUSH1 0x0 DUP1 REVERT JUMPDEST POP DUP2 CALLDATALOAD PUSH1 0x1 PUSH1 0x1 PUSH1 0x40 SHL SUB DUP2 GT ISZERO PUSH2 0x3DFD JUMPI PUSH1 0x0 DUP1 REVERT JUMPDEST PUSH1 0x20 DUP4 ADD SWAP2 POP DUP4 PUSH1 0x20 DUP3 PUSH1 0x5 SHL DUP6 ADD ADD GT ISZERO PUSH2 0x2880 JUMPI PUSH1 0x0 DUP1 REVERT JUMPDEST PUSH1 0x0 DUP1 PUSH1 0x0 DUP1 PUSH1 0x0 PUSH1 0x60 DUP7 DUP9 SUB SLT ISZERO PUSH2 0x3E30 JUMPI PUSH1 0x0 DUP1 REVERT JUMPDEST DUP6 CALLDATALOAD SWAP5 POP PUSH1 0x20 DUP7 ADD CALLDATALOAD PUSH1 0x1 PUSH1 0x1 PUSH1 0x40 SHL SUB DUP1 DUP3 GT ISZERO PUSH2 0x3E4E JUMPI PUSH1 0x0 DUP1 REVERT JUMPDEST PUSH2 0x3E5A DUP10 DUP4 DUP11 ADD PUSH2 0x3D90 JUMP JUMPDEST SWAP1 SWAP7 POP SWAP5 POP PUSH1 0x40 DUP9 ADD CALLDATALOAD SWAP2 POP DUP1 DUP3 GT ISZERO PUSH2 0x3E73 JUMPI PUSH1 0x0 DUP1 REVERT JUMPDEST POP PUSH2 0x3E80 DUP9 DUP3 DUP10 ADD PUSH2 0x3DD4 JUMP JUMPDEST SWAP7 SWAP10 SWAP6 SWAP9 POP SWAP4 SWAP7 POP SWAP3 SWAP5 SWAP4 SWAP3 POP POP POP JUMP JUMPDEST PUSH1 0x0 DUP2 MLOAD DUP1 DUP5 MSTORE PUSH1 0x20 DUP1 DUP6 ADD SWAP5 POP DUP1 DUP5 ADD PUSH1 0x0 JUMPDEST DUP4 DUP2 LT ISZERO PUSH2 0x3EC1 JUMPI DUP2 MLOAD DUP8 MSTORE SWAP6 DUP3 ADD SWAP6 SWAP1 DUP3 ADD SWAP1 PUSH1 0x1 ADD PUSH2 0x3EA5 JUMP JUMPDEST POP SWAP5 SWAP6 SWAP5 POP POP POP POP POP JUMP JUMPDEST PUSH1 0x20 DUP2 MSTORE PUSH1 0x0 PUSH2 0x2360 PUSH1 0x20 DUP4 ADD DUP5 PUSH2 0x3E91 JUMP JUMPDEST PUSH1 0x0 DUP1 PUSH1 0x0 PUSH1 0x40 DUP5 DUP7 SUB SLT ISZERO PUSH2 0x3EF4 JUMPI PUSH1 0x0 DUP1 REVERT JUMPDEST DUP4 CALLDATALOAD SWAP3 POP PUSH1 0x20 DUP5 ADD CALLDATALOAD PUSH1 0x1 PUSH1 0x1 PUSH1 0x40 SHL SUB DUP2 GT ISZERO PUSH2 0x3F11 JUMPI PUSH1 0x0 DUP1 REVERT JUMPDEST PUSH2 0x3F1D DUP7 DUP3 DUP8 ADD PUSH2 0x3D90 JUMP JUMPDEST SWAP5 SWAP8 SWAP1 SWAP7 POP SWAP4 SWAP5 POP POP POP POP JUMP JUMPDEST PUSH1 0x0 JUMPDEST DUP4 DUP2 LT ISZERO PUSH2 0x3F45 JUMPI DUP2 DUP2 ADD MLOAD DUP4 DUP3 ADD MSTORE PUSH1 0x20 ADD PUSH2 0x3F2D JUMP JUMPDEST POP POP PUSH1 0x0 SWAP2 ADD MSTORE JUMP JUMPDEST PUSH1 0x0 DUP2 MLOAD DUP1 DUP5 MSTORE PUSH2 0x3F66 DUP2 PUSH1 0x20 DUP7 ADD PUSH1 0x20 DUP7 ADD PUSH2 0x3F2A JUMP JUMPDEST PUSH1 0x1F ADD PUSH1 0x1F NOT AND SWAP3 SWAP1 SWAP3 ADD PUSH1 0x20 ADD SWAP3 SWAP2 POP POP JUMP JUMPDEST PUSH1 0x40 DUP2 MSTORE PUSH1 0x0 PUSH2 0x3F8D PUSH1 0x40 DUP4 ADD DUP6 PUSH2 0x3E91 JUMP JUMPDEST DUP3 DUP2 SUB PUSH1 0x20 DUP5 ADD MSTORE PUSH2 0x3F9F DUP2 DUP6 PUSH2 0x3F4E JUMP JUMPDEST SWAP6 SWAP5 POP POP POP POP POP JUMP JUMPDEST PUSH1 0x20 DUP1 DUP3 MSTORE DUP3 MLOAD DUP3 DUP3 ADD DUP2 SWAP1 MSTORE PUSH1 0x0 SWAP2 SWAP1 DUP5 DUP3 ADD SWAP1 PUSH1 0x40 DUP6 ADD SWAP1 DUP5 JUMPDEST DUP2 DUP2 LT ISZERO PUSH2 0x24E4 JUMPI DUP4 MLOAD PUSH1 0x1 PUSH1 0x1 PUSH1 0xA0 SHL SUB AND DUP4 MSTORE SWAP3 DUP5 ADD SWAP3 SWAP2 DUP5 ADD SWAP2 PUSH1 0x1 ADD PUSH2 0x3FC4 JUMP JUMPDEST PUSH1 0x1 PUSH1 0x1 PUSH1 0xA0 SHL SUB DUP2 AND DUP2 EQ PUSH2 0x3FFE JUMPI PUSH1 0x0 DUP1 REVERT JUMPDEST POP JUMP JUMPDEST PUSH1 0x0 DUP1 PUSH1 0x0 DUP1 PUSH1 0x60 DUP6 DUP8 SUB SLT ISZERO PUSH2 0x4017 JUMPI PUSH1 0x0 DUP1 REVERT JUMPDEST DUP5 CALLDATALOAD PUSH1 0x1 PUSH1 0x1 PUSH1 0x40 SHL SUB DUP2 GT ISZERO PUSH2 0x402D JUMPI PUSH1 0x0 DUP1 REVERT JUMPDEST PUSH2 0x4039 DUP8 DUP3 DUP9 ADD PUSH2 0x3D01 JUMP JUMPDEST SWAP1 SWAP6 POP SWAP4 POP POP PUSH1 0x20 DUP6 ADD CALLDATALOAD SWAP2 POP PUSH1 0x40 DUP6 ADD CALLDATALOAD PUSH2 0x4054 DUP2 PUSH2 0x3FE9 JUMP JUMPDEST SWAP4 SWAP7 SWAP3 SWAP6 POP SWAP1 SWAP4 POP POP JUMP JUMPDEST DUP3 DUP2 MSTORE PUSH1 0x40 PUSH1 0x20 DUP3 ADD MSTORE PUSH1 0x0 PUSH2 0x2376 PUSH1 0x40 DUP4 ADD DUP5 PUSH2 0x3F4E JUMP JUMPDEST PUSH1 0x0 PUSH1 0x20 DUP3 DUP5 SUB SLT ISZERO PUSH2 0x408A JUMPI PUSH1 0x0 DUP1 REVERT JUMPDEST DUP2 CALLDATALOAD PUSH2 0x2360 DUP2 PUSH2 0x3FE9 JUMP JUMPDEST PUSH1 0x0 PUSH1 0x20 DUP3 DUP5 SUB SLT ISZERO PUSH2 0x40A7 JUMPI PUSH1 0x0 DUP1 REVERT JUMPDEST POP CALLDATALOAD SWAP2 SWAP1 POP JUMP JUMPDEST PUSH1 0x0 DUP1 PUSH1 0x0 DUP1 PUSH1 0x0 PUSH1 0x60 DUP7 DUP9 SUB SLT ISZERO PUSH2 0x40C6 JUMPI PUSH1 0x0 DUP1 REVERT JUMPDEST DUP6 CALLDATALOAD PUSH1 0x1 PUSH1 0x1 PUSH1 0x40 SHL SUB DUP1 DUP3 GT ISZERO PUSH2 0x40DD JUMPI PUSH1 0x0 DUP1 REVERT JUMPDEST PUSH2 0x40E9 DUP10 DUP4 DUP11 ADD PUSH2 0x3D01 JUMP JUMPDEST SWAP1 SWAP8 POP SWAP6 POP PUSH1 0x20 DUP9 ADD CALLDATALOAD SWAP5 POP PUSH1 0x40 DUP9 ADD CALLDATALOAD SWAP2 POP DUP1 DUP3 GT ISZERO PUSH2 0x3E73 JUMPI PUSH1 0x0 DUP1 REVERT JUMPDEST PUSH1 0x20 DUP2 MSTORE PUSH1 0x0 PUSH2 0x2360 PUSH1 0x20 DUP4 ADD DUP5 PUSH2 0x3F4E JUMP JUMPDEST PUSH4 0x4E487B71 PUSH1 0xE0 SHL PUSH1 0x0 MSTORE PUSH1 0x41 PUSH1 0x4 MSTORE PUSH1 0x24 PUSH1 0x0 REVERT JUMPDEST PUSH1 0x40 MLOAD PUSH1 0x60 DUP2 ADD PUSH1 0x1 PUSH1 0x1 PUSH1 0x40 SHL SUB DUP2 GT DUP3 DUP3 LT OR ISZERO PUSH2 0x4154 JUMPI PUSH2 0x4154 PUSH2 0x411C JUMP JUMPDEST PUSH1 0x40 MSTORE SWAP1 JUMP JUMPDEST PUSH1 0x40 MLOAD PUSH2 0x120 DUP2 ADD PUSH1 0x1 PUSH1 0x1 PUSH1 0x40 SHL SUB DUP2 GT DUP3 DUP3 LT OR ISZERO PUSH2 0x4154 JUMPI PUSH2 0x4154 PUSH2 0x411C JUMP JUMPDEST PUSH1 0x40 DUP1 MLOAD SWAP1 DUP2 ADD PUSH1 0x1 PUSH1 0x1 PUSH1 0x40 SHL SUB DUP2 GT DUP3 DUP3 LT OR ISZERO PUSH2 0x4154 JUMPI PUSH2 0x4154 PUSH2 0x411C JUMP JUMPDEST PUSH1 0x40 MLOAD PUSH1 0x1F DUP3 ADD PUSH1 0x1F NOT AND DUP2 ADD PUSH1 0x1 PUSH1 0x1 PUSH1 0x40 SHL SUB DUP2 GT DUP3 DUP3 LT OR ISZERO PUSH2 0x41C7 JUMPI PUSH2 0x41C7 PUSH2 0x411C JUMP JUMPDEST PUSH1 0x40 MSTORE SWAP2 SWAP1 POP JUMP JUMPDEST PUSH1 0x0 PUSH1 0x1 PUSH1 0x1 PUSH1 0x40 SHL SUB DUP3 GT ISZERO PUSH2 0x41E8 JUMPI PUSH2 0x41E8 PUSH2 0x411C JUMP JUMPDEST POP PUSH1 0x5 SHL PUSH1 0x20 ADD SWAP1 JUMP JUMPDEST DUP1 MLOAD PUSH2 0x163C DUP2 PUSH2 0x3FE9 JUMP JUMPDEST DUP1 MLOAD PUSH1 0xFF DUP2 AND DUP2 EQ PUSH2 0x163C JUMPI PUSH1 0x0 DUP1 REVERT JUMPDEST PUSH1 0x0 PUSH1 0x80 DUP3 DUP5 SUB SLT ISZERO PUSH2 0x4220 JUMPI PUSH1 0x0 DUP1 REVERT JUMPDEST PUSH1 0x40 MLOAD PUSH1 0x80 DUP2 ADD DUP2 DUP2 LT PUSH1 0x1 PUSH1 0x1 PUSH1 0x40 SHL SUB DUP3 GT OR ISZERO PUSH2 0x4242 JUMPI PUSH2 0x4242 PUSH2 0x411C JUMP JUMPDEST DUP1 PUSH1 0x40 MSTORE POP DUP1 SWAP2 POP DUP3 MLOAD DUP2 MSTORE PUSH1 0x20 DUP4 ADD MLOAD PUSH1 0x20 DUP3 ADD MSTORE PUSH1 0x40 DUP4 ADD MLOAD PUSH1 0x40 DUP3 ADD MSTORE PUSH1 0x60 DUP4 ADD MLOAD PUSH1 0x60 DUP3 ADD MSTORE POP SWAP3 SWAP2 POP POP JUMP JUMPDEST DUP1 MLOAD DUP1 ISZERO ISZERO DUP2 EQ PUSH2 0x163C JUMPI PUSH1 0x0 DUP1 REVERT JUMPDEST PUSH1 0x0 DUP3 PUSH1 0x1F DUP4 ADD SLT PUSH2 0x4294 JUMPI PUSH1 0x0 DUP1 REVERT JUMPDEST DUP2 MLOAD PUSH1 0x20 PUSH2 0x42A9 PUSH2 0x42A4 DUP4 PUSH2 0x41CF JUMP JUMPDEST PUSH2 0x419F JUMP JUMPDEST DUP3 DUP2 MSTORE PUSH1 0x60 SWAP3 DUP4 MUL DUP6 ADD DUP3 ADD SWAP3 DUP3 DUP3 ADD SWAP2 SWAP1 DUP8 DUP6 GT ISZERO PUSH2 0x42C8 JUMPI PUSH1 0x0 DUP1 REVERT JUMPDEST DUP4 DUP8 ADD JUMPDEST DUP6 DUP2 LT ISZERO PUSH2 0x431F JUMPI DUP2 DUP2 DUP11 SUB SLT ISZERO PUSH2 0x42E4 JUMPI PUSH1 0x0 DUP1 DUP2 REVERT JUMPDEST PUSH2 0x42EC PUSH2 0x4132 JUMP JUMPDEST DUP2 MLOAD PUSH2 0x42F7 DUP2 PUSH2 0x3FE9 JUMP JUMPDEST DUP2 MSTORE PUSH2 0x4304 DUP3 DUP8 ADD PUSH2 0x4273 JUMP JUMPDEST DUP2 DUP8 ADD MSTORE PUSH1 0x40 DUP3 DUP2 ADD MLOAD SWAP1 DUP3 ADD MSTORE DUP5 MSTORE SWAP3 DUP5 ADD SWAP3 DUP2 ADD PUSH2 0x42CC JUMP JUMPDEST POP SWAP1 SWAP8 SWAP7 POP POP POP POP POP POP POP JUMP JUMPDEST PUSH1 0x0 PUSH2 0x180 DUP3 DUP5 SUB SLT ISZERO PUSH2 0x433F JUMPI PUSH1 0x0 DUP1 REVERT JUMPDEST PUSH2 0x4347 PUSH2 0x415A JUMP JUMPDEST SWAP1 POP PUSH2 0x4352 DUP3 PUSH2 0x41F2 JUMP JUMPDEST DUP2 MSTORE PUSH2 0x4360 PUSH1 0x20 DUP4 ADD PUSH2 0x41FD JUMP JUMPDEST PUSH1 0x20 DUP3 ADD MSTORE PUSH2 0x4371 PUSH1 0x40 DUP4 ADD PUSH2 0x41F2 JUMP JUMPDEST PUSH1 0x40 DUP3 ADD MSTORE PUSH1 0x60 DUP3 ADD MLOAD PUSH1 0x60 DUP3 ADD MSTORE PUSH2 0x438D DUP4 PUSH1 0x80 DUP5 ADD PUSH2 0x420E JUMP JUMPDEST PUSH1 0x80 DUP3 ADD MSTORE PUSH2 0x100 DUP1 DUP4 ADD MLOAD PUSH1 0xA0 DUP4 ADD MSTORE PUSH2 0x120 DUP4 ADD MLOAD PUSH1 0xC0 DUP4 ADD MSTORE PUSH2 0x140 DUP4 ADD MLOAD PUSH1 0xE0 DUP4 ADD MSTORE PUSH2 0x160 DUP4 ADD MLOAD PUSH1 0x1 PUSH1 0x1 PUSH1 0x40 SHL SUB DUP2 GT ISZERO PUSH2 0x43CE JUMPI PUSH1 0x0 DUP1 REVERT JUMPDEST PUSH2 0x43DA DUP6 DUP3 DUP7 ADD PUSH2 0x4283 JUMP JUMPDEST DUP3 DUP5 ADD MSTORE POP POP SWAP3 SWAP2 POP POP JUMP JUMPDEST PUSH1 0x0 PUSH1 0x20 DUP1 DUP4 DUP6 SUB SLT ISZERO PUSH2 0x43F9 JUMPI PUSH1 0x0 DUP1 REVERT JUMPDEST DUP3 MLOAD PUSH1 0x1 PUSH1 0x1 PUSH1 0x40 SHL SUB DUP1 DUP3 GT ISZERO PUSH2 0x4410 JUMPI PUSH1 0x0 DUP1 REVERT JUMPDEST SWAP1 DUP5 ADD SWAP1 PUSH1 0x40 DUP3 DUP8 SUB SLT ISZERO PUSH2 0x4424 JUMPI PUSH1 0x0 DUP1 REVERT JUMPDEST PUSH2 0x442C PUSH2 0x417D JUMP JUMPDEST DUP3 MLOAD DUP2 MSTORE DUP4 DUP4 ADD MLOAD DUP3 DUP2 GT ISZERO PUSH2 0x4441 JUMPI PUSH1 0x0 DUP1 REVERT JUMPDEST DUP1 DUP5 ADD SWAP4 POP POP DUP7 PUSH1 0x1F DUP5 ADD SLT PUSH2 0x4456 JUMPI PUSH1 0x0 DUP1 REVERT JUMPDEST DUP3 MLOAD PUSH2 0x4464 PUSH2 0x42A4 DUP3 PUSH2 0x41CF JUMP JUMPDEST DUP2 DUP2 MSTORE PUSH1 0x5 SWAP2 SWAP1 SWAP2 SHL DUP5 ADD DUP6 ADD SWAP1 DUP6 DUP2 ADD SWAP1 DUP10 DUP4 GT ISZERO PUSH2 0x4483 JUMPI PUSH1 0x0 DUP1 REVERT JUMPDEST DUP7 DUP7 ADD JUMPDEST DUP4 DUP2 LT ISZERO PUSH2 0x44BB JUMPI DUP1 MLOAD DUP7 DUP2 GT ISZERO PUSH2 0x449F JUMPI PUSH1 0x0 DUP1 DUP2 REVERT JUMPDEST PUSH2 0x44AD DUP13 DUP11 DUP4 DUP12 ADD ADD PUSH2 0x432C JUMP JUMPDEST DUP5 MSTORE POP SWAP2 DUP8 ADD SWAP2 DUP8 ADD PUSH2 0x4487 JUMP JUMPDEST POP SWAP6 DUP4 ADD SWAP6 SWAP1 SWAP6 MSTORE POP SWAP7 SWAP6 POP POP POP POP POP POP JUMP JUMPDEST PUSH1 0x0 DUP2 MLOAD DUP1 DUP5 MSTORE PUSH1 0x20 DUP1 DUP6 ADD SWAP5 POP DUP1 DUP5 ADD PUSH1 0x0 JUMPDEST DUP4 DUP2 LT ISZERO PUSH2 0x3EC1 JUMPI DUP2 MLOAD DUP1 MLOAD PUSH1 0x1 PUSH1 0x1 PUSH1 0xA0 SHL SUB AND DUP9 MSTORE DUP4 DUP2 ADD MLOAD ISZERO ISZERO DUP5 DUP10 ADD MSTORE PUSH1 0x40 SWAP1 DUP2 ADD MLOAD SWAP1 DUP9 ADD MSTORE PUSH1 0x60 SWAP1 SWAP7 ADD SWAP6 SWAP1 DUP3 ADD SWAP1 PUSH1 0x1 ADD PUSH2 0x44E2 JUMP JUMPDEST DUP1 MLOAD PUSH1 0x1 PUSH1 0x1 PUSH1 0xA0 SHL SUB AND DUP3 MSTORE PUSH1 0x0 PUSH2 0x180 PUSH1 0x20 DUP4 ADD MLOAD PUSH2 0x4545 PUSH1 0x20 DUP7 ADD DUP3 PUSH1 0xFF AND SWAP1 MSTORE JUMP JUMPDEST POP PUSH1 0x40 DUP4 ADD MLOAD PUSH2 0x4560 PUSH1 0x40 DUP7 ADD DUP3 PUSH1 0x1 PUSH1 0x1 PUSH1 0xA0 SHL SUB AND SWAP1 MSTORE JUMP JUMPDEST POP PUSH1 0x60 DUP4 ADD MLOAD PUSH1 0x60 DUP6 ADD MSTORE PUSH1 0x80 DUP4 ADD MLOAD PUSH2 0x459E PUSH1 0x80 DUP7 ADD DUP3 DUP1 MLOAD DUP3 MSTORE PUSH1 0x20 DUP2 ADD MLOAD PUSH1 0x20 DUP4 ADD MSTORE PUSH1 0x40 DUP2 ADD MLOAD PUSH1 0x40 DUP4 ADD MSTORE PUSH1 0x60 DUP2 ADD MLOAD PUSH1 0x60 DUP4 ADD MSTORE POP POP JUMP JUMPDEST POP PUSH1 0xA0 DUP4 ADD MLOAD PUSH2 0x100 DUP6 DUP2 ADD SWAP2 SWAP1 SWAP2 MSTORE PUSH1 0xC0 DUP5 ADD MLOAD PUSH2 0x120 DUP7 ADD MSTORE PUSH1 0xE0 DUP5 ADD MLOAD PUSH2 0x140 DUP7 ADD MSTORE DUP4 ADD MLOAD PUSH2 0x160 DUP6 ADD DUP3 SWAP1 MSTORE PUSH2 0x3F9F DUP3 DUP7 ADD DUP3 PUSH2 0x44CE JUMP JUMPDEST PUSH1 0x0 PUSH1 0x20 DUP1 DUP4 MSTORE PUSH1 0x60 DUP4 ADD DUP5 MLOAD DUP3 DUP6 ADD MSTORE DUP2 DUP6 ADD MLOAD PUSH1 0x40 DUP1 DUP7 ADD MSTORE DUP2 DUP2 MLOAD DUP1 DUP5 MSTORE PUSH1 0x80 DUP8 ADD SWAP2 POP PUSH1 0x80 DUP2 PUSH1 0x5 SHL DUP9 ADD ADD SWAP4 POP DUP5 DUP4 ADD SWAP3 POP PUSH1 0x0 JUMPDEST DUP2 DUP2 LT ISZERO PUSH2 0x4643 JUMPI PUSH1 0x7F NOT DUP9 DUP7 SUB ADD DUP4 MSTORE PUSH2 0x4631 DUP6 DUP6 MLOAD PUSH2 0x451F JUMP JUMPDEST SWAP5 POP SWAP3 DUP6 ADD SWAP3 SWAP2 DUP6 ADD SWAP2 PUSH1 0x1 ADD PUSH2 0x4615 JUMP JUMPDEST POP SWAP3 SWAP8 SWAP7 POP POP POP POP POP POP POP JUMP JUMPDEST PUSH1 0x0 PUSH1 0x20 DUP3 DUP5 SUB SLT ISZERO PUSH2 0x4662 JUMPI PUSH1 0x0 DUP1 REVERT JUMPDEST PUSH2 0x2360 DUP3 PUSH2 0x4273 JUMP JUMPDEST PUSH1 0x0 PUSH1 0x40 DUP1 DUP5 ADD DUP4 MLOAD DUP3 DUP7 MSTORE DUP2 DUP2 MLOAD DUP1 DUP5 MSTORE PUSH1 0x60 DUP9 ADD SWAP2 POP PUSH1 0x60 DUP2 PUSH1 0x5 SHL DUP10 ADD ADD SWAP4 POP PUSH1 0x20 DUP1 DUP5 ADD SWAP4 POP PUSH1 0x0 JUMPDEST DUP3 DUP2 LT ISZERO PUSH2 0x46D9 JUMPI DUP10 DUP7 SUB PUSH1 0x5F NOT ADD DUP5 MSTORE DUP5 MLOAD DUP1 MLOAD DUP9 DUP9 MSTORE PUSH2 0x46BC DUP10 DUP10 ADD DUP3 PUSH2 0x451F JUMP JUMPDEST SWAP2 DUP5 ADD MLOAD SWAP8 DUP5 ADD SWAP8 SWAP1 SWAP8 MSTORE SWAP6 POP SWAP4 DUP2 ADD SWAP4 SWAP3 DUP2 ADD SWAP3 PUSH1 0x1 ADD PUSH2 0x4698 JUMP JUMPDEST POP SWAP7 DUP8 ADD MLOAD ISZERO ISZERO SWAP8 SWAP1 SWAP7 ADD SWAP7 SWAP1 SWAP7 MSTORE POP SWAP5 SWAP4 POP POP POP POP JUMP JUMPDEST PUSH1 0x20 DUP2 MSTORE PUSH1 0x0 PUSH2 0x2360 PUSH1 0x20 DUP4 ADD DUP5 PUSH2 0x466B JUMP JUMPDEST PUSH4 0x4E487B71 PUSH1 0xE0 SHL PUSH1 0x0 MSTORE PUSH1 0x32 PUSH1 0x4 MSTORE PUSH1 0x24 PUSH1 0x0 REVERT JUMPDEST PUSH4 0x4E487B71 PUSH1 0xE0 SHL PUSH1 0x0 MSTORE PUSH1 0x11 PUSH1 0x4 MSTORE PUSH1 0x24 PUSH1 0x0 REVERT JUMPDEST PUSH1 0x0 PUSH1 0x1 DUP3 ADD PUSH2 0x4742 JUMPI PUSH2 0x4742 PUSH2 0x471A JUMP JUMPDEST POP PUSH1 0x1 ADD SWAP1 JUMP JUMPDEST PUSH1 0x0 PUSH1 0x20 DUP1 DUP4 DUP6 SUB SLT ISZERO PUSH2 0x475C JUMPI PUSH1 0x0 DUP1 REVERT JUMPDEST DUP3 MLOAD PUSH1 0x1 PUSH1 0x1 PUSH1 0x40 SHL SUB DUP1 DUP3 GT ISZERO PUSH2 0x4773 JUMPI PUSH1 0x0 DUP1 REVERT JUMPDEST SWAP1 DUP5 ADD SWAP1 PUSH1 0x40 DUP3 DUP8 SUB SLT ISZERO PUSH2 0x4787 JUMPI PUSH1 0x0 DUP1 REVERT JUMPDEST PUSH2 0x478F PUSH2 0x417D JUMP JUMPDEST DUP3 MLOAD DUP3 DUP2 GT ISZERO PUSH2 0x479E JUMPI PUSH1 0x0 DUP1 REVERT JUMPDEST DUP4 ADD PUSH1 0x1F DUP2 ADD DUP9 SGT PUSH2 0x47AF JUMPI PUSH1 0x0 DUP1 REVERT JUMPDEST DUP1 MLOAD PUSH2 0x47BD PUSH2 0x42A4 DUP3 PUSH2 0x41CF JUMP JUMPDEST DUP2 DUP2 MSTORE PUSH1 0x5 SWAP2 SWAP1 SWAP2 SHL DUP3 ADD DUP7 ADD SWAP1 DUP7 DUP2 ADD SWAP1 DUP11 DUP4 GT ISZERO PUSH2 0x47DC JUMPI PUSH1 0x0 DUP1 REVERT JUMPDEST DUP8 DUP5 ADD JUMPDEST DUP4 DUP2 LT ISZERO PUSH2 0x4852 JUMPI DUP1 MLOAD DUP8 DUP2 GT ISZERO PUSH2 0x47F8 JUMPI PUSH1 0x0 DUP1 DUP2 REVERT JUMPDEST DUP6 ADD PUSH1 0x40 DUP2 DUP15 SUB PUSH1 0x1F NOT ADD SLT ISZERO PUSH2 0x480F JUMPI PUSH1 0x0 DUP1 DUP2 REVERT JUMPDEST PUSH2 0x4817 PUSH2 0x417D JUMP JUMPDEST DUP11 DUP3 ADD MLOAD DUP10 DUP2 GT ISZERO PUSH2 0x4829 JUMPI PUSH1 0x0 DUP1 DUP2 REVERT JUMPDEST PUSH2 0x4837 DUP16 DUP14 DUP4 DUP7 ADD ADD PUSH2 0x432C JUMP JUMPDEST DUP3 MSTORE POP PUSH1 0x40 SWAP2 SWAP1 SWAP2 ADD MLOAD DUP11 DUP3 ADD MSTORE DUP4 MSTORE SWAP2 DUP9 ADD SWAP2 DUP9 ADD PUSH2 0x47E0 JUMP JUMPDEST POP DUP5 MSTORE POP PUSH2 0x4864 SWAP2 POP POP DUP4 DUP6 ADD PUSH2 0x4273 JUMP JUMPDEST DUP5 DUP3 ADD MSTORE DUP1 SWAP5 POP POP POP POP POP SWAP3 SWAP2 POP POP JUMP JUMPDEST PUSH1 0x0 PUSH1 0x20 DUP3 DUP5 SUB SLT ISZERO PUSH2 0x4887 JUMPI PUSH1 0x0 DUP1 REVERT JUMPDEST POP MLOAD SWAP2 SWAP1 POP JUMP JUMPDEST DUP5 DUP2 MSTORE DUP4 PUSH1 0x20 DUP3 ADD MSTORE PUSH1 0x80 PUSH1 0x40 DUP3 ADD MSTORE PUSH1 0x0 PUSH2 0x48AD PUSH1 0x80 DUP4 ADD DUP6 PUSH2 0x466B JUMP JUMPDEST DUP3 DUP2 SUB PUSH1 0x60 DUP5 ADD MSTORE PUSH2 0x30F5 DUP2 DUP6 PUSH2 0x466B JUMP JUMPDEST PUSH1 0x0 DUP3 CALLDATALOAD PUSH1 0x3E NOT DUP4 CALLDATASIZE SUB ADD DUP2 SLT PUSH2 0x48D5 JUMPI PUSH1 0x0 DUP1 REVERT JUMPDEST SWAP2 SWAP1 SWAP2 ADD SWAP3 SWAP2 POP POP JUMP JUMPDEST PUSH1 0x0 DUP1 DUP4 CALLDATALOAD PUSH1 0x1E NOT DUP5 CALLDATASIZE SUB ADD DUP2 SLT PUSH2 0x48F6 JUMPI PUSH1 0x0 DUP1 REVERT JUMPDEST DUP4 ADD DUP1 CALLDATALOAD SWAP2 POP PUSH1 0x1 PUSH1 0x1 PUSH1 0x40 SHL SUB DUP3 GT ISZERO PUSH2 0x4910 JUMPI PUSH1 0x0 DUP1 REVERT JUMPDEST PUSH1 0x20 ADD SWAP2 POP CALLDATASIZE DUP2 SWAP1 SUB DUP3 SGT ISZERO PUSH2 0x2880 JUMPI PUSH1 0x0 DUP1 REVERT JUMPDEST PUSH1 0x0 DUP3 PUSH1 0x1F DUP4 ADD SLT PUSH2 0x4936 JUMPI PUSH1 0x0 DUP1 REVERT JUMPDEST DUP2 MLOAD PUSH1 0x1 PUSH1 0x1 PUSH1 0x40 SHL SUB DUP2 GT ISZERO PUSH2 0x494F JUMPI PUSH2 0x494F PUSH2 0x411C JUMP JUMPDEST PUSH2 0x4962 PUSH1 0x1F DUP3 ADD PUSH1 0x1F NOT AND PUSH1 0x20 ADD PUSH2 0x419F JUMP JUMPDEST DUP2 DUP2 MSTORE DUP5 PUSH1 0x20 DUP4 DUP7 ADD ADD GT ISZERO PUSH2 0x4977 JUMPI PUSH1 0x0 DUP1 REVERT JUMPDEST PUSH2 0x2376 DUP3 PUSH1 0x20 DUP4 ADD PUSH1 0x20 DUP8 ADD PUSH2 0x3F2A JUMP JUMPDEST PUSH1 0x0 PUSH1 0x20 DUP3 DUP5 SUB SLT ISZERO PUSH2 0x499A JUMPI PUSH1 0x0 DUP1 REVERT JUMPDEST DUP2 MLOAD PUSH1 0x1 PUSH1 0x1 PUSH1 0x40 SHL SUB DUP2 GT ISZERO PUSH2 0x49B0 JUMPI PUSH1 0x0 DUP1 REVERT JUMPDEST PUSH2 0x2376 DUP5 DUP3 DUP6 ADD PUSH2 0x4925 JUMP JUMPDEST DUP1 DUP3 ADD DUP1 DUP3 GT ISZERO PUSH2 0x1DE8 JUMPI PUSH2 0x1DE8 PUSH2 0x471A JUMP JUMPDEST PUSH1 0x0 PUSH1 0x20 DUP3 DUP5 SUB SLT ISZERO PUSH2 0x49E1 JUMPI PUSH1 0x0 DUP1 REVERT JUMPDEST DUP2 MLOAD PUSH2 0x2360 DUP2 PUSH2 0x3FE9 JUMP JUMPDEST PUSH4 0x4E487B71 PUSH1 0xE0 SHL PUSH1 0x0 MSTORE PUSH1 0x21 PUSH1 0x4 MSTORE PUSH1 0x24 PUSH1 0x0 REVERT JUMPDEST PUSH1 0x20 DUP1 DUP3 MSTORE DUP3 MLOAD DUP3 DUP3 ADD DUP2 SWAP1 MSTORE PUSH1 0x0 SWAP2 SWAP1 PUSH1 0x40 SWAP1 DUP2 DUP6 ADD SWAP1 DUP7 DUP5 ADD DUP6 DUP1 JUMPDEST DUP4 DUP2 LT ISZERO PUSH2 0x4A8F JUMPI DUP3 MLOAD DUP1 MLOAD PUSH1 0x4 DUP1 DUP3 LT PUSH2 0x4A48 JUMPI PUSH4 0x4E487B71 PUSH1 0xE0 SHL DUP6 MSTORE PUSH1 0x21 DUP2 MSTORE PUSH1 0x24 DUP6 REVERT JUMPDEST POP DUP7 MSTORE DUP1 DUP9 ADD MLOAD PUSH1 0x1 PUSH1 0x1 PUSH1 0xA0 SHL SUB SWAP1 DUP2 AND DUP10 DUP9 ADD MSTORE DUP8 DUP3 ADD MLOAD DUP9 DUP9 ADD MSTORE PUSH1 0x60 DUP1 DUP4 ADD MLOAD DUP3 AND SWAP1 DUP9 ADD MSTORE PUSH1 0x80 SWAP2 DUP3 ADD MLOAD AND SWAP1 DUP7 ADD MSTORE PUSH1 0xA0 SWAP1 SWAP5 ADD SWAP4 SWAP2 DUP7 ADD SWAP2 PUSH1 0x1 ADD PUSH2 0x4A20 JUMP JUMPDEST POP SWAP3 SWAP9 SWAP8 POP POP POP POP POP POP POP POP JUMP JUMPDEST DUP1 DUP3 MUL DUP2 ISZERO DUP3 DUP3 DIV DUP5 EQ OR PUSH2 0x1DE8 JUMPI PUSH2 0x1DE8 PUSH2 0x471A JUMP JUMPDEST PUSH1 0x0 DUP3 PUSH2 0x4AD1 JUMPI PUSH4 0x4E487B71 PUSH1 0xE0 SHL PUSH1 0x0 MSTORE PUSH1 0x12 PUSH1 0x4 MSTORE PUSH1 0x24 PUSH1 0x0 REVERT JUMPDEST POP DIV SWAP1 JUMP JUMPDEST PUSH1 0x0 PUSH1 0x80 DUP3 DUP5 SUB SLT ISZERO PUSH2 0x4AE8 JUMPI PUSH1 0x0 DUP1 REVERT JUMPDEST PUSH1 0x40 MLOAD PUSH1 0x80 DUP2 ADD DUP2 DUP2 LT PUSH1 0x1 PUSH1 0x1 PUSH1 0x40 SHL SUB DUP3 GT OR ISZERO PUSH2 0x4B0A JUMPI PUSH2 0x4B0A PUSH2 0x411C JUMP JUMPDEST PUSH1 0x40 MSTORE DUP3 CALLDATALOAD PUSH2 0x4B18 DUP2 PUSH2 0x3FE9 JUMP JUMPDEST DUP1 DUP3 MSTORE POP PUSH1 0x20 DUP4 ADD CALLDATALOAD PUSH1 0x20 DUP3 ADD MSTORE PUSH1 0x40 DUP4 ADD CALLDATALOAD PUSH1 0x40 DUP3 ADD MSTORE PUSH1 0x60 DUP4 ADD CALLDATALOAD PUSH2 0x4B3E DUP2 PUSH2 0x3FE9 JUMP JUMPDEST PUSH1 0x60 DUP3 ADD MSTORE SWAP4 SWAP3 POP POP POP JUMP JUMPDEST PUSH1 0xFF DUP3 DUP2 AND DUP3 DUP3 AND SUB SWAP1 DUP2 GT ISZERO PUSH2 0x1DE8 JUMPI PUSH2 0x1DE8 PUSH2 0x471A JUMP JUMPDEST PUSH1 0x1 DUP2 DUP2 JUMPDEST DUP1 DUP6 GT ISZERO PUSH2 0x287E JUMPI DUP2 PUSH1 0x0 NOT DIV DUP3 GT ISZERO PUSH2 0x4B84 JUMPI PUSH2 0x4B84 PUSH2 0x471A JUMP JUMPDEST DUP1 DUP6 AND ISZERO PUSH2 0x4B91 JUMPI SWAP2 DUP2 MUL SWAP2 JUMPDEST SWAP4 DUP5 SHR SWAP4 SWAP1 DUP1 MUL SWAP1 PUSH2 0x4B68 JUMP JUMPDEST PUSH1 0x0 DUP3 PUSH2 0x4BAD JUMPI POP PUSH1 0x1 PUSH2 0x1DE8 JUMP JUMPDEST DUP2 PUSH2 0x4BBA JUMPI POP PUSH1 0x0 PUSH2 0x1DE8 JUMP JUMPDEST DUP2 PUSH1 0x1 DUP2 EQ PUSH2 0x4BD0 JUMPI PUSH1 0x2 DUP2 EQ PUSH2 0x4BDA JUMPI PUSH2 0x4BF6 JUMP JUMPDEST PUSH1 0x1 SWAP2 POP POP PUSH2 0x1DE8 JUMP JUMPDEST PUSH1 0xFF DUP5 GT ISZERO PUSH2 0x4BEB JUMPI PUSH2 0x4BEB PUSH2 0x471A JUMP JUMPDEST POP POP PUSH1 0x1 DUP3 SHL PUSH2 0x1DE8 JUMP JUMPDEST POP PUSH1 0x20 DUP4 LT PUSH2 0x133 DUP4 LT AND PUSH1 0x4E DUP5 LT PUSH1 0xB DUP5 LT AND OR ISZERO PUSH2 0x4C19 JUMPI POP DUP2 DUP2 EXP PUSH2 0x1DE8 JUMP JUMPDEST PUSH2 0x4C23 DUP4 DUP4 PUSH2 0x4B63 JUMP JUMPDEST DUP1 PUSH1 0x0 NOT DIV DUP3 GT ISZERO PUSH2 0x4C37 JUMPI PUSH2 0x4C37 PUSH2 0x471A JUMP JUMPDEST MUL SWAP4 SWAP3 POP POP POP JUMP JUMPDEST PUSH1 0x0 PUSH2 0x2360 PUSH1 0xFF DUP5 AND DUP4 PUSH2 0x4B9E JUMP JUMPDEST PUSH1 0x0 DUP3 MLOAD PUSH2 0x48D5 DUP2 DUP5 PUSH1 0x20 DUP8 ADD PUSH2 0x3F2A JUMP JUMPDEST PUSH1 0x0 DUP1 PUSH1 0x40 DUP4 DUP6 SUB SLT ISZERO PUSH2 0x4C73 JUMPI PUSH1 0x0 DUP1 REVERT JUMPDEST DUP3 MLOAD SWAP2 POP PUSH1 0x20 DUP4 ADD MLOAD PUSH1 0x1 PUSH1 0x1 PUSH1 0x40 SHL SUB DUP2 GT ISZERO PUSH2 0x4C90 JUMPI PUSH1 0x0 DUP1 REVERT JUMPDEST PUSH2 0x4C9C DUP6 DUP3 DUP7 ADD PUSH2 0x4925 JUMP JUMPDEST SWAP2 POP POP SWAP3 POP SWAP3 SWAP1 POP JUMP JUMPDEST DUP2 DUP2 SUB DUP2 DUP2 GT ISZERO PUSH2 0x1DE8 JUMPI PUSH2 0x1DE8 PUSH2 0x471A JUMP JUMPDEST PUSH4 0x4E487B71 PUSH1 0xE0 SHL PUSH1 0x0 MSTORE PUSH1 0x31 PUSH1 0x4 MSTORE PUSH1 0x24 PUSH1 0x0 REVERT INVALID LOG2 PUSH5 0x6970667358 0x22 SLT KECCAK256 GT 0x24 PUSH14 0x38721549D664E890571EFD70B05D 0xBF BLOCKHASH 0xB4 MOD XOR 0xC2 SUB 0xB6 EXTCODEHASH 0xD7 0xFC 0xDA SLOAD BYTE KECCAK256 PUSH5 0x736F6C6343 STOP ADDMOD GT STOP CALLER ","sha1":"afd53c77703f3a84ff943b79670509d19a745be1","source":"// SPDX-License-Identifier: LicenseRef-Gyro-1.0\n// for information on licensing please see the README in the GitHub repository <https://github.com/gyrostable/core-protocol>.\npragma solidity ^0.8.4;\n\nimport \"@openzeppelin/contracts/token/ERC20/utils/SafeERC20.sol\";\nimport \"@openzeppelin/contracts/token/ERC20/IERC20.sol\";\nimport \"@openzeppelin/contracts/utils/structs/EnumerableSet.sol\";\nimport \"@openzeppelin/contracts/utils/Address.sol\";\nimport \"@openzeppelin/contracts-upgradeable/token/ERC20/IERC20Upgradeable.sol\";\nimport \"@openzeppelin/contracts-upgradeable/token/ERC20/utils/SafeERC20Upgradeable.sol\";\n\nimport \"../interfaces/IFeeHandler.sol\";\nimport \"../interfaces/IMotherboard.sol\";\nimport \"../interfaces/IGyroVault.sol\";\nimport \"../interfaces/ILPTokenExchanger.sol\";\nimport \"../interfaces/IPAMM.sol\";\nimport \"../interfaces/IGyroConfig.sol\";\nimport \"../interfaces/IGYDToken.sol\";\nimport \"../interfaces/balancer/IVault.sol\";\n\nimport \"../libraries/DataTypes.sol\";\nimport \"../libraries/ConfigKeys.sol\";\nimport \"../libraries/ConfigHelpers.sol\";\nimport \"../libraries/Errors.sol\";\nimport \"../libraries/FixedPoint.sol\";\nimport \"../libraries/DecimalScale.sol\";\n\nimport \"./auth/GovernableUpgradeable.sol\";\n\n/// @title MotherBoard is the central contract connecting the different pieces\n/// of the Gyro protocol\ncontract Motherboard is IMotherboard, GovernableUpgradeable {\n    using FixedPoint for uint256;\n    using DecimalScale for uint256;\n    using SafeERC20 for IERC20;\n    using SafeERC20Upgradeable for IGYDToken;\n    using ConfigHelpers for IGyroConfig;\n    using EnumerableSet for EnumerableSet.AddressSet;\n    using Address for address;\n\n    uint256 internal constant _REDEEM_DEVIATION_EPSILON = 1e13; // 0.001 %\n\n    /// @inheritdoc IMotherboard\n    IGYDToken public immutable override gydToken;\n\n    /// @inheritdoc IMotherboard\n    IReserve public immutable override reserve;\n\n    /// @inheritdoc IMotherboard\n    IGyroConfig public immutable override gyroConfig;\n\n    // Balancer vault used for re-entrancy check.\n    IVault internal immutable balancerVault;\n\n    EnumerableSet.AddressSet internal externalCallWhitelist;\n\n    // Events\n    event Mint(\n        address indexed minter,\n        uint256 mintedGYDAmount,\n        uint256 usdValue,\n        DataTypes.Order orderBeforeFees,\n        DataTypes.Order orderAfterFees\n    );\n\n    event Redeem(\n        address indexed redeemer,\n        uint256 gydToRedeem,\n        uint256 usdValueToRedeem,\n        DataTypes.Order orderBeforeFees,\n        DataTypes.Order orderAfterFees\n    );\n\n    struct ExternalAction {\n        address target;\n        bytes data;\n    }\n\n    constructor(IGyroConfig _gyroConfig) {\n        gyroConfig = _gyroConfig;\n        gydToken = _gyroConfig.getGYDToken();\n        reserve = _gyroConfig.getReserve();\n        balancerVault = _gyroConfig.getBalancerVault();\n    }\n\n    /// @inheritdoc IMotherboard\n    function mint(DataTypes.MintAsset[] calldata assets, uint256 minReceivedAmount)\n        public\n        override\n        returns (uint256 mintedGYDAmount)\n    {\n        _ensureBalancerVaultNotReentrant();\n\n        DataTypes.MonetaryAmount[] memory vaultAmounts = _convertMintInputAssetsToVaultTokens(\n            assets\n        );\n        DataTypes.ReserveState memory reserveState = gyroConfig\n            .getReserveManager()\n            .getReserveState();\n\n        // order matters!\n        gyroConfig.getReserveStewardshipIncentives().checkpoint(reserveState);\n        gyroConfig.getGydRecovery().checkAndRun(reserveState);\n\n        DataTypes.Order memory order = _monetaryAmountsToMintOrder(\n            vaultAmounts,\n            reserveState.vaults\n        );\n\n        gyroConfig.getRootSafetyCheck().checkAndPersistMint(order);\n\n        for (uint256 i = 0; i < vaultAmounts.length; i++) {\n            DataTypes.MonetaryAmount memory vaultAmount = vaultAmounts[i];\n            IERC20(vaultAmount.tokenAddress).safeTransfer(address(reserve), vaultAmount.amount);\n        }\n\n        DataTypes.Order memory orderAfterFees = gyroConfig.getFeeHandler().applyFees(order);\n\n        uint256 usdValue = _getBasketUSDValue(orderAfterFees);\n        mintedGYDAmount = pamm().mint(usdValue, reserveState.totalUSDValue);\n\n        require(mintedGYDAmount >= minReceivedAmount, Errors.TOO_MUCH_SLIPPAGE);\n\n        require(!_isOverCap(msg.sender, mintedGYDAmount), Errors.SUPPLY_CAP_EXCEEDED);\n\n        gydToken.mint(msg.sender, mintedGYDAmount);\n\n        emit Mint(msg.sender, mintedGYDAmount, usdValue, order, orderAfterFees);\n    }\n\n    function mint(\n        DataTypes.MintAsset[] calldata assets,\n        uint256 minReceivedAmount,\n        ExternalAction[] calldata actions\n    ) external returns (uint256 mintedGYDAmount) {\n        for (uint256 i = 0; i < actions.length; i++) {\n            require(\n                externalCallWhitelist.contains(actions[i].target),\n                Errors.FORBIDDEN_EXTERNAL_ACTION\n            );\n            actions[i].target.functionCall(actions[i].data, Errors.EXTERNAL_ACTION_FAILED);\n        }\n\n        return mint(assets, minReceivedAmount);\n    }\n\n    /// @inheritdoc IMotherboard\n    function redeem(uint256 gydToRedeem, DataTypes.RedeemAsset[] calldata assets)\n        public\n        override\n        returns (uint256[] memory outputAmounts)\n    {\n        _ensureBalancerVaultNotReentrant();\n\n        DataTypes.ReserveState memory reserveState = gyroConfig\n            .getReserveManager()\n            .getReserveState();\n\n        // order matters!\n        gyroConfig.getReserveStewardshipIncentives().checkpoint(reserveState);\n        gyroConfig.getGydRecovery().checkAndRun(reserveState);\n\n        uint256 usdValueToRedeem = pamm().redeem(gydToRedeem, reserveState.totalUSDValue);\n        require(\n            usdValueToRedeem <= gydToRedeem.mulDown(FixedPoint.ONE + _REDEEM_DEVIATION_EPSILON),\n            Errors.REDEEM_AMOUNT_BUG\n        );\n\n        gydToken.burnFrom(msg.sender, gydToRedeem);\n\n        DataTypes.Order memory order = _createRedeemOrder(\n            usdValueToRedeem,\n            assets,\n            reserveState.vaults\n        );\n        gyroConfig.getRootSafetyCheck().checkAndPersistRedeem(order);\n\n        DataTypes.Order memory orderAfterFees = gyroConfig.getFeeHandler().applyFees(order);\n        outputAmounts = _convertAndSendRedeemOutputAssets(assets, orderAfterFees);\n\n        emit Redeem(msg.sender, gydToRedeem, usdValueToRedeem, order, orderAfterFees);\n    }\n\n    function redeem(\n        uint256 gydToRedeem,\n        DataTypes.RedeemAsset[] calldata assets,\n        ExternalAction[] calldata actions\n    ) external returns (uint256[] memory outputAmounts) {\n        for (uint256 i = 0; i < actions.length; i++) {\n            require(\n                externalCallWhitelist.contains(actions[i].target),\n                Errors.FORBIDDEN_EXTERNAL_ACTION\n            );\n            actions[i].target.functionCall(actions[i].data, Errors.EXTERNAL_ACTION_FAILED);\n        }\n\n        return redeem(gydToRedeem, assets);\n    }\n\n    /// @inheritdoc IMotherboard\n    function dryMint(\n        DataTypes.MintAsset[] calldata assets,\n        uint256 minReceivedAmount,\n        address account\n    ) external view override returns (uint256 mintedGYDAmount, string memory err) {\n        DataTypes.MonetaryAmount[] memory vaultAmounts;\n        (vaultAmounts, err) = _dryConvertMintInputAssetsToVaultTokens(assets);\n        if (bytes(err).length > 0) {\n            return (0, err);\n        }\n\n        DataTypes.ReserveState memory reserveState = gyroConfig\n            .getReserveManager()\n            .getReserveState();\n\n        DataTypes.Order memory order = _monetaryAmountsToMintOrder(\n            vaultAmounts,\n            reserveState.vaults\n        );\n\n        err = gyroConfig.getRootSafetyCheck().isMintSafe(order);\n        if (bytes(err).length > 0) {\n            return (0, err);\n        }\n\n        DataTypes.Order memory orderAfterFees = gyroConfig.getFeeHandler().applyFees(order);\n        uint256 usdValue = _getBasketUSDValue(orderAfterFees);\n        mintedGYDAmount = pamm().computeMintAmount(usdValue, reserveState.totalUSDValue);\n\n        if (mintedGYDAmount < minReceivedAmount) {\n            return (mintedGYDAmount, Errors.TOO_MUCH_SLIPPAGE);\n        }\n\n        if (_isOverCap(account, mintedGYDAmount)) {\n            return (mintedGYDAmount, Errors.SUPPLY_CAP_EXCEEDED);\n        }\n    }\n\n    /// @inheritdoc IMotherboard\n    function dryRedeem(uint256 gydToRedeem, DataTypes.RedeemAsset[] calldata assets)\n        external\n        view\n        override\n        returns (uint256[] memory outputAmounts, string memory err)\n    {\n        outputAmounts = new uint256[](assets.length);\n        DataTypes.ReserveState memory reserveState = gyroConfig\n            .getReserveManager()\n            .getReserveState();\n        uint256 usdValueToRedeem = pamm().computeRedeemAmount(\n            gydToRedeem,\n            reserveState.totalUSDValue\n        );\n        DataTypes.Order memory order = _createRedeemOrder(\n            usdValueToRedeem,\n            assets,\n            reserveState.vaults\n        );\n        err = gyroConfig.getRootSafetyCheck().isRedeemSafe(order);\n        if (bytes(err).length > 0) {\n            return (outputAmounts, err);\n        }\n        DataTypes.Order memory orderAfterFees = gyroConfig.getFeeHandler().applyFees(order);\n        return _computeRedeemOutputAmounts(assets, orderAfterFees);\n    }\n\n    /// @inheritdoc IMotherboard\n    function pamm() public view override returns (IPAMM) {\n        return IPAMM(gyroConfig.getAddress(ConfigKeys.PAMM_ADDRESS));\n    }\n\n    function addToExternalCallWhitelist(address whitelistedAddress)\n        external\n        governanceOnly\n        returns (bool)\n    {\n        return externalCallWhitelist.add(whitelistedAddress);\n    }\n\n    function removeFromExternalCallWhitelist(address removedAddress)\n        external\n        governanceOnly\n        returns (bool)\n    {\n        return externalCallWhitelist.remove(removedAddress);\n    }\n\n    function mintStewardshipIncRewards(uint256 amount) external override {\n        require(\n            msg.sender == address(gyroConfig.getReserveStewardshipIncentives()),\n            Errors.NOT_AUTHORIZED\n        );\n        address treasury = gyroConfig.getGovTreasuryAddress();\n        gydToken.mint(treasury, amount);\n    }\n\n    function listExternalCallWhitelist() external view returns (address[] memory) {\n        return externalCallWhitelist.values();\n    }\n\n    function _dryConvertMintInputAssetsToVaultTokens(DataTypes.MintAsset[] calldata assets)\n        internal\n        view\n        returns (DataTypes.MonetaryAmount[] memory vaultAmounts, string memory err)\n    {\n        vaultAmounts = new DataTypes.MonetaryAmount[](assets.length);\n        for (uint256 i = 0; i < assets.length; i++) {\n            DataTypes.MintAsset calldata asset = assets[i];\n            uint256 vaultTokenAmount;\n            (vaultTokenAmount, err) = _computeVaultTokensForAsset(asset);\n            if (bytes(err).length > 0) {\n                return (vaultAmounts, err);\n            }\n            vaultAmounts[i] = DataTypes.MonetaryAmount({\n                tokenAddress: asset.destinationVault,\n                amount: vaultTokenAmount\n            });\n        }\n    }\n\n    function _computeVaultTokensForAsset(DataTypes.MintAsset calldata asset)\n        internal\n        view\n        returns (uint256, string memory err)\n    {\n        if (asset.inputToken == asset.destinationVault) {\n            return (asset.inputAmount, \"\");\n        } else {\n            IGyroVault vault = IGyroVault(asset.destinationVault);\n            if (asset.inputToken == vault.underlying()) {\n                return vault.dryDeposit(asset.inputAmount, 0);\n            } else {\n                return (0, Errors.INVALID_ASSET);\n            }\n        }\n    }\n\n    function _convertMintInputAssetsToVaultTokens(DataTypes.MintAsset[] calldata assets)\n        internal\n        returns (DataTypes.MonetaryAmount[] memory)\n    {\n        DataTypes.MonetaryAmount[] memory vaultAmounts = new DataTypes.MonetaryAmount[](\n            assets.length\n        );\n\n        for (uint256 i = 0; i < assets.length; i++) {\n            DataTypes.MintAsset calldata asset = assets[i];\n            vaultAmounts[i] = DataTypes.MonetaryAmount({\n                tokenAddress: asset.destinationVault,\n                amount: _convertMintInputAssetToVaultToken(asset)\n            });\n        }\n        return vaultAmounts;\n    }\n\n    function _convertMintInputAssetToVaultToken(DataTypes.MintAsset calldata asset)\n        internal\n        returns (uint256)\n    {\n        IGyroVault vault = IGyroVault(asset.destinationVault);\n\n        IERC20(asset.inputToken).safeTransferFrom(msg.sender, address(this), asset.inputAmount);\n\n        if (asset.inputToken == address(vault)) {\n            return asset.inputAmount;\n        }\n\n        address lpTokenAddress = vault.underlying();\n        require(asset.inputToken == lpTokenAddress, Errors.INVALID_ASSET);\n\n        IERC20(lpTokenAddress).safeIncreaseAllowance(address(vault), asset.inputAmount);\n        return vault.deposit(asset.inputAmount, 0);\n    }\n\n    function _getAssetAmountMint(address vault, DataTypes.MonetaryAmount[] memory amounts)\n        internal\n        pure\n        returns (uint256)\n    {\n        uint256 total = 0;\n        for (uint256 i = 0; i < amounts.length; i++) {\n            DataTypes.MonetaryAmount memory vaultAmount = amounts[i];\n            if (vaultAmount.tokenAddress == vault) total += vaultAmount.amount;\n        }\n        return total;\n    }\n\n    function _monetaryAmountsToMintOrder(\n        DataTypes.MonetaryAmount[] memory amounts,\n        DataTypes.VaultInfo[] memory vaultsInfo\n    ) internal pure returns (DataTypes.Order memory) {\n        DataTypes.Order memory order = DataTypes.Order({\n            mint: true,\n            vaultsWithAmount: new DataTypes.VaultWithAmount[](vaultsInfo.length)\n        });\n\n        for (uint256 i = 0; i < vaultsInfo.length; i++) {\n            DataTypes.VaultInfo memory vaultInfo = vaultsInfo[i];\n            order.vaultsWithAmount[i] = DataTypes.VaultWithAmount({\n                amount: _getAssetAmountMint(vaultInfo.vault, amounts),\n                vaultInfo: vaultInfo\n            });\n        }\n\n        return order;\n    }\n\n    function _getRedeemAssetAmountAndRatio(\n        DataTypes.VaultInfo memory vaultInfo,\n        uint256 usdValueToRedeem,\n        DataTypes.RedeemAsset[] calldata redeemAssets\n    ) internal pure returns (uint256, uint256) {\n        for (uint256 i = 0; i < redeemAssets.length; i++) {\n            DataTypes.RedeemAsset calldata asset = redeemAssets[i];\n            if (asset.originVault == vaultInfo.vault) {\n                uint256 vaultUsdValueToWithdraw = usdValueToRedeem.mulDown(asset.valueRatio);\n                uint256 vaultTokenAmount = vaultUsdValueToWithdraw.divDown(vaultInfo.price);\n                uint256 scaledVaultTokenAmount = vaultTokenAmount.scaleTo(vaultInfo.decimals);\n\n                return (scaledVaultTokenAmount, asset.valueRatio);\n            }\n        }\n        return (0, 0);\n    }\n\n    function _createRedeemOrder(\n        uint256 usdValueToRedeem,\n        DataTypes.RedeemAsset[] calldata assets,\n        DataTypes.VaultInfo[] memory vaultsInfo\n    ) internal pure returns (DataTypes.Order memory) {\n        _ensureNoDuplicates(assets);\n\n        DataTypes.Order memory order = DataTypes.Order({\n            mint: false,\n            vaultsWithAmount: new DataTypes.VaultWithAmount[](vaultsInfo.length)\n        });\n\n        uint256 totalValueRatio = 0;\n\n        for (uint256 i = 0; i < vaultsInfo.length; i++) {\n            DataTypes.VaultInfo memory vaultInfo = vaultsInfo[i];\n            (uint256 amount, uint256 valueRatio) = _getRedeemAssetAmountAndRatio(\n                vaultInfo,\n                usdValueToRedeem,\n                assets\n            );\n            totalValueRatio += valueRatio;\n\n            order.vaultsWithAmount[i] = DataTypes.VaultWithAmount({\n                amount: amount,\n                vaultInfo: vaultInfo\n            });\n        }\n\n        require(totalValueRatio == FixedPoint.ONE, Errors.INVALID_ARGUMENT);\n\n        return order;\n    }\n\n    function _convertAndSendRedeemOutputAssets(\n        DataTypes.RedeemAsset[] calldata assets,\n        DataTypes.Order memory order\n    ) internal returns (uint256[] memory outputAmounts) {\n        outputAmounts = new uint256[](assets.length);\n        for (uint256 i = 0; i < assets.length; i++) {\n            DataTypes.RedeemAsset memory asset = assets[i];\n            uint256 vaultTokenAmount = _getRedeemAmount(order.vaultsWithAmount, asset.originVault);\n            uint256 outputAmount = _convertRedeemOutputAsset(asset, vaultTokenAmount);\n            // ensure we received enough tokens and transfer them to the user\n            require(outputAmount >= asset.minOutputAmount, Errors.TOO_MUCH_SLIPPAGE);\n            outputAmounts[i] = outputAmount;\n\n            IERC20(asset.outputToken).safeTransfer(msg.sender, outputAmount);\n        }\n    }\n\n    function _getRedeemAmount(DataTypes.VaultWithAmount[] memory vaultsWithAmount, address vault)\n        internal\n        pure\n        returns (uint256)\n    {\n        for (uint256 i = 0; i < vaultsWithAmount.length; i++) {\n            DataTypes.VaultWithAmount memory vaultWithAmount = vaultsWithAmount[i];\n            if (vaultWithAmount.vaultInfo.vault == vault) {\n                return vaultWithAmount.amount;\n            }\n        }\n        return 0;\n    }\n\n    function _convertRedeemOutputAsset(DataTypes.RedeemAsset memory asset, uint256 vaultTokenAmount)\n        internal\n        returns (uint256)\n    {\n        IGyroVault vault = IGyroVault(asset.originVault);\n        // withdraw the amount of vault tokens from the reserve\n        reserve.withdrawToken(address(vault), vaultTokenAmount);\n\n        // nothing to do if the user wants the vault token\n        if (asset.outputToken == address(vault)) {\n            return vaultTokenAmount;\n        } else {\n            // otherwise, convert the vault token into its underlying LP token\n            require(asset.outputToken == vault.underlying(), Errors.INVALID_ASSET);\n            return vault.withdraw(vaultTokenAmount, 0);\n        }\n    }\n\n    function _computeRedeemOutputAmounts(\n        DataTypes.RedeemAsset[] calldata assets,\n        DataTypes.Order memory order\n    ) internal view returns (uint256[] memory outputAmounts, string memory err) {\n        outputAmounts = new uint256[](assets.length);\n        for (uint256 i = 0; i < assets.length; i++) {\n            DataTypes.RedeemAsset calldata asset = assets[i];\n            uint256 vaultTokenAmount = _getRedeemAmount(order.vaultsWithAmount, asset.originVault);\n            uint256 outputAmount;\n            (outputAmount, err) = _computeRedeemOutputAmount(asset, vaultTokenAmount);\n            if (bytes(err).length > 0) {\n                return (outputAmounts, err);\n            }\n            // ensure we received enough tokens and transfer them to the user\n            if (outputAmount < asset.minOutputAmount) {\n                return (outputAmounts, Errors.TOO_MUCH_SLIPPAGE);\n            }\n            outputAmounts[i] = outputAmount;\n        }\n    }\n\n    function _computeRedeemOutputAmount(\n        DataTypes.RedeemAsset calldata asset,\n        uint256 vaultTokenAmount\n    ) internal view returns (uint256 outputAmount, string memory err) {\n        IGyroVault vault = IGyroVault(asset.originVault);\n\n        // nothing to do if the user wants the vault token\n        if (asset.outputToken == address(vault)) {\n            return (vaultTokenAmount, \"\");\n        }\n\n        // otherwise, we need the outputToken to be the underlying LP token\n        // and to convert the vault token into the underlying LP token\n        if (asset.outputToken != vault.underlying()) {\n            return (0, Errors.INVALID_ASSET);\n        }\n\n        uint256 vaultTokenBalance = vault.balanceOf(address(reserve));\n        if (vaultTokenBalance < vaultTokenAmount) {\n            return (0, Errors.INSUFFICIENT_BALANCE);\n        }\n\n        return vault.dryWithdraw(vaultTokenAmount, 0);\n    }\n\n    function _getBasketUSDValue(DataTypes.Order memory order)\n        internal\n        pure\n        returns (uint256 result)\n    {\n        for (uint256 i = 0; i < order.vaultsWithAmount.length; i++) {\n            DataTypes.VaultWithAmount memory vaultWithAmount = order.vaultsWithAmount[i];\n            uint256 scaledAmount = vaultWithAmount.amount.scaleFrom(\n                vaultWithAmount.vaultInfo.decimals\n            );\n            result += scaledAmount.mulDown(vaultWithAmount.vaultInfo.price);\n        }\n    }\n\n    function _isOverCap(address account, uint256 mintedGYDAmount) internal view returns (bool) {\n        uint256 globalSupplyCap = gyroConfig.getGlobalSupplyCap();\n        if (gydToken.totalSupply() + mintedGYDAmount > globalSupplyCap) {\n            return true;\n        }\n        bool isAuthenticated = gyroConfig.isAuthenticated(account);\n        uint256 perUserSupplyCap = gyroConfig.getPerUserSupplyCap(isAuthenticated);\n        return gydToken.balanceOf(account) + mintedGYDAmount > perUserSupplyCap;\n    }\n\n    function _ensureNoDuplicates(DataTypes.RedeemAsset[] calldata redeemAssets) internal pure {\n        for (uint256 i = 0; i < redeemAssets.length; i++) {\n            DataTypes.RedeemAsset calldata asset = redeemAssets[i];\n            for (uint256 j = i + 1; j < redeemAssets.length; j++) {\n                DataTypes.RedeemAsset calldata otherAsset = redeemAssets[j];\n                require(asset.originVault != otherAsset.originVault, Errors.INVALID_ARGUMENT);\n            }\n        }\n    }\n\n    /// @dev Ensures that this is not called from inside a Balancer vault operation. This avoids a reentrancy condition.\n    function _ensureBalancerVaultNotReentrant() internal {\n        // A simple no-op that would trip the Vault's reentrancy check. The code \"withdraws\" an amount of 0 of token\n        // address(0) from the Vault’s internal balance for the calling contract and sends it to address(0).\n        IVault.UserBalanceOp[] memory ops = new IVault.UserBalanceOp[](1);\n        ops[0].kind = IVault.UserBalanceOpKind.WITHDRAW_INTERNAL;\n        ops[0].sender = address(this);\n        balancerVault.manageUserBalance(ops);\n    }\n}\n","sourcePath":"contracts/Motherboard.sol","type":"contract","deployment":{"address":"0x8cB8b6130E40D52F2B2756031484CBc927E5e52e","chainid":"137","blockHeight":43404251}}