{"abi":[{"inputs":[{"internalType":"address","name":"owner","type":"address"}],"name":"addOwner","outputs":[],"stateMutability":"nonpayable","type":"function"},{"inputs":[{"internalType":"address","name":"account","type":"address"}],"name":"authenticate","outputs":[],"stateMutability":"nonpayable","type":"function"},{"inputs":[{"internalType":"address","name":"account","type":"address"}],"name":"deauthenticate","outputs":[],"stateMutability":"nonpayable","type":"function"},{"inputs":[{"internalType":"address","name":"owner","type":"address"}],"name":"initialize","outputs":[],"stateMutability":"nonpayable","type":"function"},{"inputs":[{"internalType":"address","name":"account","type":"address"}],"name":"isAuthenticated","outputs":[{"internalType":"bool","name":"","type":"bool"}],"stateMutability":"view","type":"function"},{"inputs":[],"name":"listAuthenticatedAccounts","outputs":[{"internalType":"address[]","name":"","type":"address[]"}],"stateMutability":"view","type":"function"},{"inputs":[],"name":"owners","outputs":[{"internalType":"address[]","name":"","type":"address[]"}],"stateMutability":"view","type":"function"},{"inputs":[{"internalType":"address","name":"owner","type":"address"}],"name":"removeOwner","outputs":[],"stateMutability":"nonpayable","type":"function"}],"bytecode":"608060405234801561001057600080fd5b506107a2806100206000396000f3fe608060405234801561001057600080fd5b50600436106100885760003560e01c8063affe39c11161005b578063affe39c1146100db578063c4d66de8146100f9578063d15d41501461010c578063e7818c6f1461012f57600080fd5b806308e0d29d1461008d578063173825d9146100a25780637065cb48146100b557806383495bf8146100c8575b600080fd5b6100a061009b366004610650565b610137565b005b6100a06100b0366004610650565b610194565b6100a06100c3366004610650565b61026d565b6100a06100d6366004610650565b610303565b6100e3610353565b6040516100f09190610679565b60405180910390f35b6100a0610107366004610650565b610364565b61011f61011a366004610650565b61042c565b60405190151581526020016100f0565b6100e361043f565b61014260013361044b565b60405180604001604052806002815260200161033360f41b815250906101845760405162461bcd60e51b815260040161017b91906106c6565b60405180910390fd5b50610190600382610470565b5050565b61019f60013361044b565b60405180604001604052806002815260200161033360f41b815250906101d85760405162461bcd60e51b815260040161017b91906106c6565b50604080518082019091526002815261033360f41b60208201526001600160a01b03821633141561021c5760405162461bcd60e51b815260040161017b91906106c6565b5061022860018261044b565b60405180604001604052806002815260200161333160f01b815250906102615760405162461bcd60e51b815260040161017b91906106c6565b50610190600182610485565b61027860013361044b565b60405180604001604052806002815260200161033360f41b815250906102b15760405162461bcd60e51b815260040161017b91906106c6565b506102bd60018261044b565b1560405180604001604052806002815260200161333160f01b815250906102f75760405162461bcd60e51b815260040161017b91906106c6565b50610190600182610470565b61030e60013361044b565b60405180604001604052806002815260200161033360f41b815250906103475760405162461bcd60e51b815260040161017b91906106c6565b50610190600382610485565b606061035f600161049a565b905090565b600054610100900460ff168061037d575060005460ff16155b6103e05760405162461bcd60e51b815260206004820152602e60248201527f496e697469616c697a61626c653a20636f6e747261637420697320616c72656160448201526d191e481a5b9a5d1a585b1a5e995960921b606482015260840161017b565b600054610100900460ff16158015610402576000805461ffff19166101011790555b61040b826104a7565b610416600383610470565b508015610190576000805461ff00191690555050565b600061043960038361044b565b92915050565b606061035f600361049a565b6001600160a01b038116600090815260018301602052604081205415155b9392505050565b6000610469836001600160a01b0384166104b2565b6000610469836001600160a01b038416610501565b60606000610469836105f4565b610190600182610470565b60008181526001830160205260408120546104f957508154600181810184556000848152602080822090930184905584548482528286019093526040902091909155610439565b506000610439565b600081815260018301602052604081205480156105ea57600061052560018361071b565b85549091506000906105399060019061071b565b905081811461059e57600086600001828154811061055957610559610740565b906000526020600020015490508087600001848154811061057c5761057c610740565b6000918252602080832090910192909255918252600188019052604090208390555b85548690806105af576105af610756565b600190038181906000526020600020016000905590558560010160008681526020019081526020016000206000905560019350505050610439565b6000915050610439565b60608160000180548060200260200160405190810160405280929190818152602001828054801561064457602002820191906000526020600020905b815481526020019060010190808311610630575b50505050509050919050565b60006020828403121561066257600080fd5b81356001600160a01b038116811461046957600080fd5b6020808252825182820181905260009190848201906040850190845b818110156106ba5783516001600160a01b031683529284019291840191600101610695565b50909695505050505050565b600060208083528351808285015260005b818110156106f3578581018301518582016040015282016106d7565b81811115610705576000604083870101525b50601f01601f1916929092016040019392505050565b60008282101561073b57634e487b7160e01b600052601160045260246000fd5b500390565b634e487b7160e01b600052603260045260246000fd5b634e487b7160e01b600052603160045260246000fdfea2646970667358221220341f2be111fc4666fc66de65c6df6bccc767499c0445a0bad769db7eadb834f564736f6c634300080a0033","bytecodeSha1":"6c78968ae7f2efebed5f35f7a6a603d8ee01d1c6","compiler":{"evm_version":"london","optimizer":{"enabled":true,"runs":200},"version":"0.8.10+commit.fc410830"},"contractName":"CapAuthentication","language":"Solidity","natspec":{"kind":"dev","methods":{},"version":1},"opcodes":"PUSH1 0x80 PUSH1 0x40 MSTORE CALLVALUE DUP1 ISZERO PUSH2 0x10 JUMPI PUSH1 0x0 DUP1 REVERT JUMPDEST POP PUSH1 0x4 CALLDATASIZE LT PUSH2 0x88 JUMPI PUSH1 0x0 CALLDATALOAD PUSH1 0xE0 SHR DUP1 PUSH4 0xAFFE39C1 GT PUSH2 0x5B JUMPI DUP1 PUSH4 0xAFFE39C1 EQ PUSH2 0xDB JUMPI DUP1 PUSH4 0xC4D66DE8 EQ PUSH2 0xF9 JUMPI DUP1 PUSH4 0xD15D4150 EQ PUSH2 0x10C JUMPI DUP1 PUSH4 0xE7818C6F EQ PUSH2 0x12F JUMPI PUSH1 0x0 DUP1 REVERT JUMPDEST DUP1 PUSH4 0x8E0D29D EQ PUSH2 0x8D JUMPI DUP1 PUSH4 0x173825D9 EQ PUSH2 0xA2 JUMPI DUP1 PUSH4 0x7065CB48 EQ PUSH2 0xB5 JUMPI DUP1 PUSH4 0x83495BF8 EQ PUSH2 0xC8 JUMPI JUMPDEST PUSH1 0x0 DUP1 REVERT JUMPDEST PUSH2 0xA0 PUSH2 0x9B CALLDATASIZE PUSH1 0x4 PUSH2 0x650 JUMP JUMPDEST PUSH2 0x137 JUMP JUMPDEST STOP JUMPDEST PUSH2 0xA0 PUSH2 0xB0 CALLDATASIZE PUSH1 0x4 PUSH2 0x650 JUMP JUMPDEST PUSH2 0x194 JUMP JUMPDEST PUSH2 0xA0 PUSH2 0xC3 CALLDATASIZE PUSH1 0x4 PUSH2 0x650 JUMP JUMPDEST PUSH2 0x26D JUMP JUMPDEST PUSH2 0xA0 PUSH2 0xD6 CALLDATASIZE PUSH1 0x4 PUSH2 0x650 JUMP JUMPDEST PUSH2 0x303 JUMP JUMPDEST PUSH2 0xE3 PUSH2 0x353 JUMP JUMPDEST PUSH1 0x40 MLOAD PUSH2 0xF0 SWAP2 SWAP1 PUSH2 0x679 JUMP JUMPDEST PUSH1 0x40 MLOAD DUP1 SWAP2 SUB SWAP1 RETURN JUMPDEST PUSH2 0xA0 PUSH2 0x107 CALLDATASIZE PUSH1 0x4 PUSH2 0x650 JUMP JUMPDEST PUSH2 0x364 JUMP JUMPDEST PUSH2 0x11F PUSH2 0x11A CALLDATASIZE PUSH1 0x4 PUSH2 0x650 JUMP JUMPDEST PUSH2 0x42C JUMP JUMPDEST PUSH1 0x40 MLOAD SWAP1 ISZERO ISZERO DUP2 MSTORE PUSH1 0x20 ADD PUSH2 0xF0 JUMP JUMPDEST PUSH2 0xE3 PUSH2 0x43F JUMP JUMPDEST PUSH2 0x142 PUSH1 0x1 CALLER PUSH2 0x44B JUMP JUMPDEST PUSH1 0x40 MLOAD DUP1 PUSH1 0x40 ADD PUSH1 0x40 MSTORE DUP1 PUSH1 0x2 DUP2 MSTORE PUSH1 0x20 ADD PUSH2 0x333 PUSH1 0xF4 SHL DUP2 MSTORE POP SWAP1 PUSH2 0x184 JUMPI PUSH1 0x40 MLOAD PUSH3 0x461BCD PUSH1 0xE5 SHL DUP2 MSTORE PUSH1 0x4 ADD PUSH2 0x17B SWAP2 SWAP1 PUSH2 0x6C6 JUMP JUMPDEST PUSH1 0x40 MLOAD DUP1 SWAP2 SUB SWAP1 REVERT JUMPDEST POP PUSH2 0x190 PUSH1 0x3 DUP3 PUSH2 0x470 JUMP JUMPDEST POP POP JUMP JUMPDEST PUSH2 0x19F PUSH1 0x1 CALLER PUSH2 0x44B JUMP JUMPDEST PUSH1 0x40 MLOAD DUP1 PUSH1 0x40 ADD PUSH1 0x40 MSTORE DUP1 PUSH1 0x2 DUP2 MSTORE PUSH1 0x20 ADD PUSH2 0x333 PUSH1 0xF4 SHL DUP2 MSTORE POP SWAP1 PUSH2 0x1D8 JUMPI PUSH1 0x40 MLOAD PUSH3 0x461BCD PUSH1 0xE5 SHL DUP2 MSTORE PUSH1 0x4 ADD PUSH2 0x17B SWAP2 SWAP1 PUSH2 0x6C6 JUMP JUMPDEST POP PUSH1 0x40 DUP1 MLOAD DUP1 DUP3 ADD SWAP1 SWAP2 MSTORE PUSH1 0x2 DUP2 MSTORE PUSH2 0x333 PUSH1 0xF4 SHL PUSH1 0x20 DUP3 ADD MSTORE PUSH1 0x1 PUSH1 0x1 PUSH1 0xA0 SHL SUB DUP3 AND CALLER EQ ISZERO PUSH2 0x21C JUMPI PUSH1 0x40 MLOAD PUSH3 0x461BCD PUSH1 0xE5 SHL DUP2 MSTORE PUSH1 0x4 ADD PUSH2 0x17B SWAP2 SWAP1 PUSH2 0x6C6 JUMP JUMPDEST POP PUSH2 0x228 PUSH1 0x1 DUP3 PUSH2 0x44B JUMP JUMPDEST PUSH1 0x40 MLOAD DUP1 PUSH1 0x40 ADD PUSH1 0x40 MSTORE DUP1 PUSH1 0x2 DUP2 MSTORE PUSH1 0x20 ADD PUSH2 0x3331 PUSH1 0xF0 SHL DUP2 MSTORE POP SWAP1 PUSH2 0x261 JUMPI PUSH1 0x40 MLOAD PUSH3 0x461BCD PUSH1 0xE5 SHL DUP2 MSTORE PUSH1 0x4 ADD PUSH2 0x17B SWAP2 SWAP1 PUSH2 0x6C6 JUMP JUMPDEST POP PUSH2 0x190 PUSH1 0x1 DUP3 PUSH2 0x485 JUMP JUMPDEST PUSH2 0x278 PUSH1 0x1 CALLER PUSH2 0x44B JUMP JUMPDEST PUSH1 0x40 MLOAD DUP1 PUSH1 0x40 ADD PUSH1 0x40 MSTORE DUP1 PUSH1 0x2 DUP2 MSTORE PUSH1 0x20 ADD PUSH2 0x333 PUSH1 0xF4 SHL DUP2 MSTORE POP SWAP1 PUSH2 0x2B1 JUMPI PUSH1 0x40 MLOAD PUSH3 0x461BCD PUSH1 0xE5 SHL DUP2 MSTORE PUSH1 0x4 ADD PUSH2 0x17B SWAP2 SWAP1 PUSH2 0x6C6 JUMP JUMPDEST POP PUSH2 0x2BD PUSH1 0x1 DUP3 PUSH2 0x44B JUMP JUMPDEST ISZERO PUSH1 0x40 MLOAD DUP1 PUSH1 0x40 ADD PUSH1 0x40 MSTORE DUP1 PUSH1 0x2 DUP2 MSTORE PUSH1 0x20 ADD PUSH2 0x3331 PUSH1 0xF0 SHL DUP2 MSTORE POP SWAP1 PUSH2 0x2F7 JUMPI PUSH1 0x40 MLOAD PUSH3 0x461BCD PUSH1 0xE5 SHL DUP2 MSTORE PUSH1 0x4 ADD PUSH2 0x17B SWAP2 SWAP1 PUSH2 0x6C6 JUMP JUMPDEST POP PUSH2 0x190 PUSH1 0x1 DUP3 PUSH2 0x470 JUMP JUMPDEST PUSH2 0x30E PUSH1 0x1 CALLER PUSH2 0x44B JUMP JUMPDEST PUSH1 0x40 MLOAD DUP1 PUSH1 0x40 ADD PUSH1 0x40 MSTORE DUP1 PUSH1 0x2 DUP2 MSTORE PUSH1 0x20 ADD PUSH2 0x333 PUSH1 0xF4 SHL DUP2 MSTORE POP SWAP1 PUSH2 0x347 JUMPI PUSH1 0x40 MLOAD PUSH3 0x461BCD PUSH1 0xE5 SHL DUP2 MSTORE PUSH1 0x4 ADD PUSH2 0x17B SWAP2 SWAP1 PUSH2 0x6C6 JUMP JUMPDEST POP PUSH2 0x190 PUSH1 0x3 DUP3 PUSH2 0x485 JUMP JUMPDEST PUSH1 0x60 PUSH2 0x35F PUSH1 0x1 PUSH2 0x49A JUMP JUMPDEST SWAP1 POP SWAP1 JUMP JUMPDEST PUSH1 0x0 SLOAD PUSH2 0x100 SWAP1 DIV PUSH1 0xFF AND DUP1 PUSH2 0x37D JUMPI POP PUSH1 0x0 SLOAD PUSH1 0xFF AND ISZERO JUMPDEST PUSH2 0x3E0 JUMPI PUSH1 0x40 MLOAD PUSH3 0x461BCD PUSH1 0xE5 SHL DUP2 MSTORE PUSH1 0x20 PUSH1 0x4 DUP3 ADD MSTORE PUSH1 0x2E PUSH1 0x24 DUP3 ADD MSTORE PUSH32 0x496E697469616C697A61626C653A20636F6E747261637420697320616C726561 PUSH1 0x44 DUP3 ADD MSTORE PUSH14 0x191E481A5B9A5D1A585B1A5E9959 PUSH1 0x92 SHL PUSH1 0x64 DUP3 ADD MSTORE PUSH1 0x84 ADD PUSH2 0x17B JUMP JUMPDEST PUSH1 0x0 SLOAD PUSH2 0x100 SWAP1 DIV PUSH1 0xFF AND ISZERO DUP1 ISZERO PUSH2 0x402 JUMPI PUSH1 0x0 DUP1 SLOAD PUSH2 0xFFFF NOT AND PUSH2 0x101 OR SWAP1 SSTORE JUMPDEST PUSH2 0x40B DUP3 PUSH2 0x4A7 JUMP JUMPDEST PUSH2 0x416 PUSH1 0x3 DUP4 PUSH2 0x470 JUMP JUMPDEST POP DUP1 ISZERO PUSH2 0x190 JUMPI PUSH1 0x0 DUP1 SLOAD PUSH2 0xFF00 NOT AND SWAP1 SSTORE POP POP JUMP JUMPDEST PUSH1 0x0 PUSH2 0x439 PUSH1 0x3 DUP4 PUSH2 0x44B JUMP JUMPDEST SWAP3 SWAP2 POP POP JUMP JUMPDEST PUSH1 0x60 PUSH2 0x35F PUSH1 0x3 PUSH2 0x49A JUMP JUMPDEST PUSH1 0x1 PUSH1 0x1 PUSH1 0xA0 SHL SUB DUP2 AND PUSH1 0x0 SWAP1 DUP2 MSTORE PUSH1 0x1 DUP4 ADD PUSH1 0x20 MSTORE PUSH1 0x40 DUP2 KECCAK256 SLOAD ISZERO ISZERO JUMPDEST SWAP4 SWAP3 POP POP POP JUMP JUMPDEST PUSH1 0x0 PUSH2 0x469 DUP4 PUSH1 0x1 PUSH1 0x1 PUSH1 0xA0 SHL SUB DUP5 AND PUSH2 0x4B2 JUMP JUMPDEST PUSH1 0x0 PUSH2 0x469 DUP4 PUSH1 0x1 PUSH1 0x1 PUSH1 0xA0 SHL SUB DUP5 AND PUSH2 0x501 JUMP JUMPDEST PUSH1 0x60 PUSH1 0x0 PUSH2 0x469 DUP4 PUSH2 0x5F4 JUMP JUMPDEST PUSH2 0x190 PUSH1 0x1 DUP3 PUSH2 0x470 JUMP JUMPDEST PUSH1 0x0 DUP2 DUP2 MSTORE PUSH1 0x1 DUP4 ADD PUSH1 0x20 MSTORE PUSH1 0x40 DUP2 KECCAK256 SLOAD PUSH2 0x4F9 JUMPI POP DUP2 SLOAD PUSH1 0x1 DUP2 DUP2 ADD DUP5 SSTORE PUSH1 0x0 DUP5 DUP2 MSTORE PUSH1 0x20 DUP1 DUP3 KECCAK256 SWAP1 SWAP4 ADD DUP5 SWAP1 SSTORE DUP5 SLOAD DUP5 DUP3 MSTORE DUP3 DUP7 ADD SWAP1 SWAP4 MSTORE PUSH1 0x40 SWAP1 KECCAK256 SWAP2 SWAP1 SWAP2 SSTORE PUSH2 0x439 JUMP JUMPDEST POP PUSH1 0x0 PUSH2 0x439 JUMP JUMPDEST PUSH1 0x0 DUP2 DUP2 MSTORE PUSH1 0x1 DUP4 ADD PUSH1 0x20 MSTORE PUSH1 0x40 DUP2 KECCAK256 SLOAD DUP1 ISZERO PUSH2 0x5EA JUMPI PUSH1 0x0 PUSH2 0x525 PUSH1 0x1 DUP4 PUSH2 0x71B JUMP JUMPDEST DUP6 SLOAD SWAP1 SWAP2 POP PUSH1 0x0 SWAP1 PUSH2 0x539 SWAP1 PUSH1 0x1 SWAP1 PUSH2 0x71B JUMP JUMPDEST SWAP1 POP DUP2 DUP2 EQ PUSH2 0x59E JUMPI PUSH1 0x0 DUP7 PUSH1 0x0 ADD DUP3 DUP2 SLOAD DUP2 LT PUSH2 0x559 JUMPI PUSH2 0x559 PUSH2 0x740 JUMP JUMPDEST SWAP1 PUSH1 0x0 MSTORE PUSH1 0x20 PUSH1 0x0 KECCAK256 ADD SLOAD SWAP1 POP DUP1 DUP8 PUSH1 0x0 ADD DUP5 DUP2 SLOAD DUP2 LT PUSH2 0x57C JUMPI PUSH2 0x57C PUSH2 0x740 JUMP JUMPDEST PUSH1 0x0 SWAP2 DUP3 MSTORE PUSH1 0x20 DUP1 DUP4 KECCAK256 SWAP1 SWAP2 ADD SWAP3 SWAP1 SWAP3 SSTORE SWAP2 DUP3 MSTORE PUSH1 0x1 DUP9 ADD SWAP1 MSTORE PUSH1 0x40 SWAP1 KECCAK256 DUP4 SWAP1 SSTORE JUMPDEST DUP6 SLOAD DUP7 SWAP1 DUP1 PUSH2 0x5AF JUMPI PUSH2 0x5AF PUSH2 0x756 JUMP JUMPDEST PUSH1 0x1 SWAP1 SUB DUP2 DUP2 SWAP1 PUSH1 0x0 MSTORE PUSH1 0x20 PUSH1 0x0 KECCAK256 ADD PUSH1 0x0 SWAP1 SSTORE SWAP1 SSTORE DUP6 PUSH1 0x1 ADD PUSH1 0x0 DUP7 DUP2 MSTORE PUSH1 0x20 ADD SWAP1 DUP2 MSTORE PUSH1 0x20 ADD PUSH1 0x0 KECCAK256 PUSH1 0x0 SWAP1 SSTORE PUSH1 0x1 SWAP4 POP POP POP POP PUSH2 0x439 JUMP JUMPDEST PUSH1 0x0 SWAP2 POP POP PUSH2 0x439 JUMP JUMPDEST PUSH1 0x60 DUP2 PUSH1 0x0 ADD DUP1 SLOAD DUP1 PUSH1 0x20 MUL PUSH1 0x20 ADD PUSH1 0x40 MLOAD SWAP1 DUP2 ADD PUSH1 0x40 MSTORE DUP1 SWAP3 SWAP2 SWAP1 DUP2 DUP2 MSTORE PUSH1 0x20 ADD DUP3 DUP1 SLOAD DUP1 ISZERO PUSH2 0x644 JUMPI PUSH1 0x20 MUL DUP3 ADD SWAP2 SWAP1 PUSH1 0x0 MSTORE PUSH1 0x20 PUSH1 0x0 KECCAK256 SWAP1 JUMPDEST DUP2 SLOAD DUP2 MSTORE PUSH1 0x20 ADD SWAP1 PUSH1 0x1 ADD SWAP1 DUP1 DUP4 GT PUSH2 0x630 JUMPI JUMPDEST POP POP POP POP POP SWAP1 POP SWAP2 SWAP1 POP JUMP JUMPDEST PUSH1 0x0 PUSH1 0x20 DUP3 DUP5 SUB SLT ISZERO PUSH2 0x662 JUMPI PUSH1 0x0 DUP1 REVERT JUMPDEST DUP2 CALLDATALOAD PUSH1 0x1 PUSH1 0x1 PUSH1 0xA0 SHL SUB DUP2 AND DUP2 EQ PUSH2 0x469 JUMPI PUSH1 0x0 DUP1 REVERT JUMPDEST PUSH1 0x20 DUP1 DUP3 MSTORE DUP3 MLOAD DUP3 DUP3 ADD DUP2 SWAP1 MSTORE PUSH1 0x0 SWAP2 SWAP1 DUP5 DUP3 ADD SWAP1 PUSH1 0x40 DUP6 ADD SWAP1 DUP5 JUMPDEST DUP2 DUP2 LT ISZERO PUSH2 0x6BA JUMPI DUP4 MLOAD PUSH1 0x1 PUSH1 0x1 PUSH1 0xA0 SHL SUB AND DUP4 MSTORE SWAP3 DUP5 ADD SWAP3 SWAP2 DUP5 ADD SWAP2 PUSH1 0x1 ADD PUSH2 0x695 JUMP JUMPDEST POP SWAP1 SWAP7 SWAP6 POP POP POP POP POP POP JUMP JUMPDEST PUSH1 0x0 PUSH1 0x20 DUP1 DUP4 MSTORE DUP4 MLOAD DUP1 DUP3 DUP6 ADD MSTORE PUSH1 0x0 JUMPDEST DUP2 DUP2 LT ISZERO PUSH2 0x6F3 JUMPI DUP6 DUP2 ADD DUP4 ADD MLOAD DUP6 DUP3 ADD PUSH1 0x40 ADD MSTORE DUP3 ADD PUSH2 0x6D7 JUMP JUMPDEST DUP2 DUP2 GT ISZERO PUSH2 0x705 JUMPI PUSH1 0x0 PUSH1 0x40 DUP4 DUP8 ADD ADD MSTORE JUMPDEST POP PUSH1 0x1F ADD PUSH1 0x1F NOT AND SWAP3 SWAP1 SWAP3 ADD PUSH1 0x40 ADD SWAP4 SWAP3 POP POP POP JUMP JUMPDEST PUSH1 0x0 DUP3 DUP3 LT ISZERO PUSH2 0x73B JUMPI PUSH4 0x4E487B71 PUSH1 0xE0 SHL PUSH1 0x0 MSTORE PUSH1 0x11 PUSH1 0x4 MSTORE PUSH1 0x24 PUSH1 0x0 REVERT JUMPDEST POP SUB SWAP1 JUMP JUMPDEST PUSH4 0x4E487B71 PUSH1 0xE0 SHL PUSH1 0x0 MSTORE PUSH1 0x32 PUSH1 0x4 MSTORE PUSH1 0x24 PUSH1 0x0 REVERT JUMPDEST PUSH4 0x4E487B71 PUSH1 0xE0 SHL PUSH1 0x0 MSTORE PUSH1 0x31 PUSH1 0x4 MSTORE PUSH1 0x24 PUSH1 0x0 REVERT INVALID LOG2 PUSH5 0x6970667358 0x22 SLT KECCAK256 CALLVALUE 0x1F 0x2B 0xE1 GT 0xFC CHAINID PUSH7 0xFC66DE65C6DF6B 0xCC 0xC7 PUSH8 0x499C0445A0BAD769 0xDB PUSH31 0xADB834F564736F6C634300080A003300000000000000000000000000000000 ","sha1":"e6d9208384c5b73995fa93ca3904edbbc486beb5","source":"// SPDX-License-Identifier: UNLICENSED\npragma solidity ^0.8.4;\n\nimport \"@openzeppelin/contracts/utils/structs/EnumerableSet.sol\";\nimport \"./MultiOwnable.sol\";\nimport \"../../interfaces/ICapAuthentication.sol\";\n\ncontract CapAuthentication is MultiOwnable {\n    using EnumerableSet for EnumerableSet.AddressSet;\n\n    EnumerableSet.AddressSet internal _authenticatedAccounts;\n\n    function initialize(address owner) external initializer {\n        __MultiOwnable_initialize(owner);\n        _authenticatedAccounts.add(owner);\n    }\n\n    function authenticate(address account) external onlyOwner {\n        _authenticatedAccounts.add(account);\n    }\n\n    function deauthenticate(address account) external onlyOwner {\n        _authenticatedAccounts.remove(account);\n    }\n\n    function isAuthenticated(address account) external view returns (bool) {\n        return _authenticatedAccounts.contains(account);\n    }\n\n    function listAuthenticatedAccounts() external view returns (address[] memory) {\n        return _authenticatedAccounts.values();\n    }\n}\n","sourcePath":"contracts/auth/CapAuthentication.sol","type":"contract","deployment":{"address":"0x8d84f2255E2970BcBEdc6348fB08d65f76d8cc67","chainid":"137","blockHeight":36343432}}