{"abi":[{"anonymous":false,"inputs":[{"indexed":false,"internalType":"address","name":"oldGovernor","type":"address"},{"indexed":false,"internalType":"address","name":"newGovernor","type":"address"}],"name":"GovernorChanged","type":"event"},{"inputs":[{"internalType":"address","name":"newGovernor","type":"address"}],"name":"changeGovernor","outputs":[],"stateMutability":"nonpayable","type":"function"},{"inputs":[{"internalType":"address","name":"lpToken","type":"address"}],"name":"deregisterTokenExchanger","outputs":[],"stateMutability":"nonpayable","type":"function"},{"inputs":[{"internalType":"address","name":"lpToken","type":"address"}],"name":"getTokenExchanger","outputs":[{"internalType":"contract ILPTokenExchanger","name":"","type":"address"}],"stateMutability":"view","type":"function"},{"inputs":[],"name":"governor","outputs":[{"internalType":"address","name":"","type":"address"}],"stateMutability":"view","type":"function"},{"inputs":[{"internalType":"address","name":"lpToken","type":"address"},{"internalType":"address","name":"lpTokenExchanger","type":"address"}],"name":"registerTokenExchanger","outputs":[],"stateMutability":"nonpayable","type":"function"}],"bytecode":"608060405234801561001057600080fd5b50600080546001600160a01b0319163390811782556040805192835260208301919091527fde4b3f61490b74c0ed6237523974fe299126bbbf8a8a7482fd220104c59b0c84910160405180910390a16103c38061006e6000396000f3fe608060405234801561001057600080fd5b50600436106100575760003560e01c80630c340a241461005c578063100c03291461008b578063150f4f51146100a0578063df1768f1146100b3578063e4c0aaf4146100c6575b600080fd5b60005461006f906001600160a01b031681565b6040516001600160a01b03909116815260200160405180910390f35b61009e6100993660046102e3565b6100d9565b005b61006f6100ae3660046102e3565b61014f565b61009e6100c1366004610305565b6101ac565b61009e6100d43660046102e3565b610220565b600054604080518082019091526002815261033360f41b6020820152906001600160a01b031633146101275760405162461bcd60e51b815260040161011e9190610338565b60405180910390fd5b506001600160a01b0316600090815260016020526040902080546001600160a01b0319169055565b6001600160a01b038082166000908152600160208181526040808420548151808301909252928152603360f81b9181019190915291921690816101a55760405162461bcd60e51b815260040161011e9190610338565b5092915050565b600054604080518082019091526002815261033360f41b6020820152906001600160a01b031633146101f15760405162461bcd60e51b815260040161011e9190610338565b506001600160a01b03918216600090815260016020526040902080546001600160a01b03191691909216179055565b600054604080518082019091526002815261033360f41b6020820152906001600160a01b031633146102655760405162461bcd60e51b815260040161011e9190610338565b50600080546001600160a01b038381166001600160a01b031983168117909355604080519190921680825260208201939093527fde4b3f61490b74c0ed6237523974fe299126bbbf8a8a7482fd220104c59b0c84910160405180910390a15050565b80356001600160a01b03811681146102de57600080fd5b919050565b6000602082840312156102f557600080fd5b6102fe826102c7565b9392505050565b6000806040838503121561031857600080fd5b610321836102c7565b915061032f602084016102c7565b90509250929050565b600060208083528351808285015260005b8181101561036557858101830151858201604001528201610349565b81811115610377576000604083870101525b50601f01601f191692909201604001939250505056fea2646970667358221220ba5d0f6e27b94013fa03e8b699a7155c215ab23e7dd7b809547f5776ce2ead8664736f6c634300080a0033","bytecodeSha1":"c26691042d06bd99d9497483415b2c552d3d7cbf","compiler":{"evm_version":"istanbul","optimizer":{"enabled":true,"runs":200},"version":"0.8.10+commit.fc410830"},"contractName":"LPTokenExchangerRegistry","language":"Solidity","natspec":{"kind":"dev","methods":{"changeGovernor(address)":{"notice":"Changes the governor can only be called by the current governor"},"deregisterTokenExchanger(address)":{"notice":"Deregisters the LP token exchanger to transform underlying tokens to/from lp tokens supported by a Gyroscope vault This will be called by governance when we want to remove support for vaults","params":{"lpToken":"The LP token used by the Gyroscope Vault to deregister"}},"getTokenExchanger(address)":{"notice":"Finds the LP token exchanger to transform an underlying token in an LP token that is supported by the given `vault`","params":{"lpToken":"the lpToken that will be deposited/withdrawn in/to the Gyroscope vault"},"returns":{"_0":"the address of the LP token exchanger to exchanger underlying tokens to/from the lp token supported by the vault"}},"governor()":{"notice":"Returns the current governor"},"registerTokenExchanger(address,address)":{"notice":"Registers a new LP token exchanger to transform underlying tokens to/from lp tokens supported by a Gyroscope vault This will be called by governance when we want to support new vaults or new ways to deposit into them","params":{"lpToken":"The LP token used by the Gyroscope Vault to register","lpTokenExchanger":"address of the LP Token Exchanger contract that must follow the `ILPTokenExchanger` interface"}}},"version":1},"opcodes":"PUSH1 0x80 PUSH1 0x40 MSTORE CALLVALUE DUP1 ISZERO PUSH2 0x10 JUMPI PUSH1 0x0 DUP1 REVERT JUMPDEST POP PUSH1 0x4 CALLDATASIZE LT PUSH2 0x57 JUMPI PUSH1 0x0 CALLDATALOAD PUSH1 0xE0 SHR DUP1 PUSH4 0xC340A24 EQ PUSH2 0x5C JUMPI DUP1 PUSH4 0x100C0329 EQ PUSH2 0x8B JUMPI DUP1 PUSH4 0x150F4F51 EQ PUSH2 0xA0 JUMPI DUP1 PUSH4 0xDF1768F1 EQ PUSH2 0xB3 JUMPI DUP1 PUSH4 0xE4C0AAF4 EQ PUSH2 0xC6 JUMPI JUMPDEST PUSH1 0x0 DUP1 REVERT JUMPDEST PUSH1 0x0 SLOAD PUSH2 0x6F SWAP1 PUSH1 0x1 PUSH1 0x1 PUSH1 0xA0 SHL SUB AND DUP2 JUMP JUMPDEST PUSH1 0x40 MLOAD PUSH1 0x1 PUSH1 0x1 PUSH1 0xA0 SHL SUB SWAP1 SWAP2 AND DUP2 MSTORE PUSH1 0x20 ADD PUSH1 0x40 MLOAD DUP1 SWAP2 SUB SWAP1 RETURN JUMPDEST PUSH2 0x9E PUSH2 0x99 CALLDATASIZE PUSH1 0x4 PUSH2 0x2E3 JUMP JUMPDEST PUSH2 0xD9 JUMP JUMPDEST STOP JUMPDEST PUSH2 0x6F PUSH2 0xAE CALLDATASIZE PUSH1 0x4 PUSH2 0x2E3 JUMP JUMPDEST PUSH2 0x14F JUMP JUMPDEST PUSH2 0x9E PUSH2 0xC1 CALLDATASIZE PUSH1 0x4 PUSH2 0x305 JUMP JUMPDEST PUSH2 0x1AC JUMP JUMPDEST PUSH2 0x9E PUSH2 0xD4 CALLDATASIZE PUSH1 0x4 PUSH2 0x2E3 JUMP JUMPDEST PUSH2 0x220 JUMP JUMPDEST PUSH1 0x0 SLOAD PUSH1 0x40 DUP1 MLOAD DUP1 DUP3 ADD SWAP1 SWAP2 MSTORE PUSH1 0x2 DUP2 MSTORE PUSH2 0x333 PUSH1 0xF4 SHL PUSH1 0x20 DUP3 ADD MSTORE SWAP1 PUSH1 0x1 PUSH1 0x1 PUSH1 0xA0 SHL SUB AND CALLER EQ PUSH2 0x127 JUMPI PUSH1 0x40 MLOAD PUSH3 0x461BCD PUSH1 0xE5 SHL DUP2 MSTORE PUSH1 0x4 ADD PUSH2 0x11E SWAP2 SWAP1 PUSH2 0x338 JUMP JUMPDEST PUSH1 0x40 MLOAD DUP1 SWAP2 SUB SWAP1 REVERT JUMPDEST POP PUSH1 0x1 PUSH1 0x1 PUSH1 0xA0 SHL SUB AND PUSH1 0x0 SWAP1 DUP2 MSTORE PUSH1 0x1 PUSH1 0x20 MSTORE PUSH1 0x40 SWAP1 KECCAK256 DUP1 SLOAD PUSH1 0x1 PUSH1 0x1 PUSH1 0xA0 SHL SUB NOT AND SWAP1 SSTORE JUMP JUMPDEST PUSH1 0x1 PUSH1 0x1 PUSH1 0xA0 SHL SUB DUP1 DUP3 AND PUSH1 0x0 SWAP1 DUP2 MSTORE PUSH1 0x1 PUSH1 0x20 DUP2 DUP2 MSTORE PUSH1 0x40 DUP1 DUP5 KECCAK256 SLOAD DUP2 MLOAD DUP1 DUP4 ADD SWAP1 SWAP3 MSTORE SWAP3 DUP2 MSTORE PUSH1 0x33 PUSH1 0xF8 SHL SWAP2 DUP2 ADD SWAP2 SWAP1 SWAP2 MSTORE SWAP2 SWAP3 AND SWAP1 DUP2 PUSH2 0x1A5 JUMPI PUSH1 0x40 MLOAD PUSH3 0x461BCD PUSH1 0xE5 SHL DUP2 MSTORE PUSH1 0x4 ADD PUSH2 0x11E SWAP2 SWAP1 PUSH2 0x338 JUMP JUMPDEST POP SWAP3 SWAP2 POP POP JUMP JUMPDEST PUSH1 0x0 SLOAD PUSH1 0x40 DUP1 MLOAD DUP1 DUP3 ADD SWAP1 SWAP2 MSTORE PUSH1 0x2 DUP2 MSTORE PUSH2 0x333 PUSH1 0xF4 SHL PUSH1 0x20 DUP3 ADD MSTORE SWAP1 PUSH1 0x1 PUSH1 0x1 PUSH1 0xA0 SHL SUB AND CALLER EQ PUSH2 0x1F1 JUMPI PUSH1 0x40 MLOAD PUSH3 0x461BCD PUSH1 0xE5 SHL DUP2 MSTORE PUSH1 0x4 ADD PUSH2 0x11E SWAP2 SWAP1 PUSH2 0x338 JUMP JUMPDEST POP PUSH1 0x1 PUSH1 0x1 PUSH1 0xA0 SHL SUB SWAP2 DUP3 AND PUSH1 0x0 SWAP1 DUP2 MSTORE PUSH1 0x1 PUSH1 0x20 MSTORE PUSH1 0x40 SWAP1 KECCAK256 DUP1 SLOAD PUSH1 0x1 PUSH1 0x1 PUSH1 0xA0 SHL SUB NOT AND SWAP2 SWAP1 SWAP3 AND OR SWAP1 SSTORE JUMP JUMPDEST PUSH1 0x0 SLOAD PUSH1 0x40 DUP1 MLOAD DUP1 DUP3 ADD SWAP1 SWAP2 MSTORE PUSH1 0x2 DUP2 MSTORE PUSH2 0x333 PUSH1 0xF4 SHL PUSH1 0x20 DUP3 ADD MSTORE SWAP1 PUSH1 0x1 PUSH1 0x1 PUSH1 0xA0 SHL SUB AND CALLER EQ PUSH2 0x265 JUMPI PUSH1 0x40 MLOAD PUSH3 0x461BCD PUSH1 0xE5 SHL DUP2 MSTORE PUSH1 0x4 ADD PUSH2 0x11E SWAP2 SWAP1 PUSH2 0x338 JUMP JUMPDEST POP PUSH1 0x0 DUP1 SLOAD PUSH1 0x1 PUSH1 0x1 PUSH1 0xA0 SHL SUB DUP4 DUP2 AND PUSH1 0x1 PUSH1 0x1 PUSH1 0xA0 SHL SUB NOT DUP4 AND DUP2 OR SWAP1 SWAP4 SSTORE PUSH1 0x40 DUP1 MLOAD SWAP2 SWAP1 SWAP3 AND DUP1 DUP3 MSTORE PUSH1 0x20 DUP3 ADD SWAP4 SWAP1 SWAP4 MSTORE PUSH32 0xDE4B3F61490B74C0ED6237523974FE299126BBBF8A8A7482FD220104C59B0C84 SWAP2 ADD PUSH1 0x40 MLOAD DUP1 SWAP2 SUB SWAP1 LOG1 POP POP JUMP JUMPDEST DUP1 CALLDATALOAD PUSH1 0x1 PUSH1 0x1 PUSH1 0xA0 SHL SUB DUP2 AND DUP2 EQ PUSH2 0x2DE JUMPI PUSH1 0x0 DUP1 REVERT JUMPDEST SWAP2 SWAP1 POP JUMP JUMPDEST PUSH1 0x0 PUSH1 0x20 DUP3 DUP5 SUB SLT ISZERO PUSH2 0x2F5 JUMPI PUSH1 0x0 DUP1 REVERT JUMPDEST PUSH2 0x2FE DUP3 PUSH2 0x2C7 JUMP JUMPDEST SWAP4 SWAP3 POP POP POP JUMP JUMPDEST PUSH1 0x0 DUP1 PUSH1 0x40 DUP4 DUP6 SUB SLT ISZERO PUSH2 0x318 JUMPI PUSH1 0x0 DUP1 REVERT JUMPDEST PUSH2 0x321 DUP4 PUSH2 0x2C7 JUMP JUMPDEST SWAP2 POP PUSH2 0x32F PUSH1 0x20 DUP5 ADD PUSH2 0x2C7 JUMP JUMPDEST SWAP1 POP SWAP3 POP SWAP3 SWAP1 POP JUMP JUMPDEST PUSH1 0x0 PUSH1 0x20 DUP1 DUP4 MSTORE DUP4 MLOAD DUP1 DUP3 DUP6 ADD MSTORE PUSH1 0x0 JUMPDEST DUP2 DUP2 LT ISZERO PUSH2 0x365 JUMPI DUP6 DUP2 ADD DUP4 ADD MLOAD DUP6 DUP3 ADD PUSH1 0x40 ADD MSTORE DUP3 ADD PUSH2 0x349 JUMP JUMPDEST DUP2 DUP2 GT ISZERO PUSH2 0x377 JUMPI PUSH1 0x0 PUSH1 0x40 DUP4 DUP8 ADD ADD MSTORE JUMPDEST POP PUSH1 0x1F ADD PUSH1 0x1F NOT AND SWAP3 SWAP1 SWAP3 ADD PUSH1 0x40 ADD SWAP4 SWAP3 POP POP POP JUMP INVALID LOG2 PUSH5 0x6970667358 0x22 SLT KECCAK256 0xBA 0x5D 0xF PUSH15 0x27B94013FA03E8B699A7155C215AB2 RETURNDATACOPY PUSH30 0xD7B809547F5776CE2EAD8664736F6C634300080A00330000000000000000 ","sha1":"4d3272ebc1fd0382e4577bad125a3465463964b6","source":"// SPDX-License-Identifier: UNLICENSED\npragma solidity ^0.8.4;\n\nimport \"../interfaces/ILPTokenExchangerRegistry.sol\";\nimport \"./auth/Governable.sol\";\nimport \"../libraries/Errors.sol\";\n\ncontract LPTokenExchangerRegistry is ILPTokenExchangerRegistry, Governable {\n    mapping(address => address) internal tokenExchangers;\n\n    /// @inheritdoc ILPTokenExchangerRegistry\n    function getTokenExchanger(address lpToken) external view override returns (ILPTokenExchanger) {\n        address tokenExchangerAddress = tokenExchangers[lpToken];\n        require(tokenExchangerAddress != address(0), Errors.EXCHANGER_NOT_FOUND);\n        return ILPTokenExchanger(tokenExchangerAddress);\n    }\n\n    /// @inheritdoc ILPTokenExchangerRegistry\n    function registerTokenExchanger(address lpToken, address lpTokenExchanger)\n        external\n        override\n        governanceOnly\n    {\n        tokenExchangers[lpToken] = lpTokenExchanger;\n    }\n\n    /// @inheritdoc ILPTokenExchangerRegistry\n    function deregisterTokenExchanger(address lpToken) external override governanceOnly {\n        delete tokenExchangers[lpToken];\n    }\n}\n","sourcePath":"contracts/LPTokenExchangerRegistry.sol","type":"contract","deployment":{"address":"0xab9E249742c11420116860977eE0a41F45c8c1E2","chainid":"137","blockHeight":26855941}}