{"abi":[{"inputs":[{"internalType":"contract IUSDBatchPriceOracle","name":"_batchPriceOracle","type":"address"}],"stateMutability":"nonpayable","type":"constructor","name":"constructor"},{"anonymous":false,"inputs":[{"indexed":false,"internalType":"address","name":"oldGovernor","type":"address"},{"indexed":false,"internalType":"address","name":"newGovernor","type":"address"}],"name":"GovernorChanged","type":"event"},{"anonymous":false,"inputs":[{"indexed":true,"internalType":"enum Vaults.Type","name":"vaultType","type":"uint8"},{"indexed":true,"internalType":"address","name":"priceOracle","type":"address"}],"name":"VaultPriceOracleChanged","type":"event"},{"inputs":[],"name":"batchPriceOracle","outputs":[{"internalType":"contract IUSDBatchPriceOracle","name":"","type":"address"}],"stateMutability":"view","type":"function"},{"inputs":[{"internalType":"address","name":"newGovernor","type":"address"}],"name":"changeGovernor","outputs":[],"stateMutability":"nonpayable","type":"function"},{"inputs":[{"components":[{"internalType":"address","name":"vault","type":"address"},{"internalType":"uint8","name":"decimals","type":"uint8"},{"internalType":"uint256","name":"price","type":"uint256"},{"components":[{"internalType":"uint256","name":"initialPrice","type":"uint256"},{"internalType":"uint256","name":"initialWeight","type":"uint256"},{"internalType":"uint256","name":"shortFlowMemory","type":"uint256"},{"internalType":"uint256","name":"shortFlowThreshold","type":"uint256"}],"internalType":"struct DataTypes.PersistedVaultMetadata","name":"persistedMetadata","type":"tuple"},{"internalType":"uint256","name":"reserveBalance","type":"uint256"},{"internalType":"uint256","name":"currentWeight","type":"uint256"},{"internalType":"uint256","name":"idealWeight","type":"uint256"},{"components":[{"internalType":"address","name":"tokenAddress","type":"address"},{"internalType":"uint256","name":"price","type":"uint256"}],"internalType":"struct DataTypes.PricedToken[]","name":"pricedTokens","type":"tuple[]"}],"internalType":"struct DataTypes.VaultInfo[]","name":"vaultsInfo","type":"tuple[]"}],"name":"fetchPricesUSD","outputs":[{"components":[{"internalType":"address","name":"vault","type":"address"},{"internalType":"uint8","name":"decimals","type":"uint8"},{"internalType":"uint256","name":"price","type":"uint256"},{"components":[{"internalType":"uint256","name":"initialPrice","type":"uint256"},{"internalType":"uint256","name":"initialWeight","type":"uint256"},{"internalType":"uint256","name":"shortFlowMemory","type":"uint256"},{"internalType":"uint256","name":"shortFlowThreshold","type":"uint256"}],"internalType":"struct DataTypes.PersistedVaultMetadata","name":"persistedMetadata","type":"tuple"},{"internalType":"uint256","name":"reserveBalance","type":"uint256"},{"internalType":"uint256","name":"currentWeight","type":"uint256"},{"internalType":"uint256","name":"idealWeight","type":"uint256"},{"components":[{"internalType":"address","name":"tokenAddress","type":"address"},{"internalType":"uint256","name":"price","type":"uint256"}],"internalType":"struct DataTypes.PricedToken[]","name":"pricedTokens","type":"tuple[]"}],"internalType":"struct DataTypes.VaultInfo[]","name":"","type":"tuple[]"}],"stateMutability":"view","type":"function"},{"inputs":[],"name":"governor","outputs":[{"internalType":"address","name":"","type":"address"}],"stateMutability":"view","type":"function"},{"inputs":[{"internalType":"enum Vaults.Type","name":"vaultType","type":"uint8"},{"internalType":"contract IVaultPriceOracle","name":"priceOracle","type":"address"}],"name":"registerVaultPriceOracle","outputs":[],"stateMutability":"nonpayable","type":"function"},{"inputs":[{"internalType":"enum Vaults.Type","name":"","type":"uint8"}],"name":"vaultPriceOracles","outputs":[{"internalType":"contract IVaultPriceOracle","name":"","type":"address"}],"stateMutability":"view","type":"function"}],"bytecode":"608060405234801561001057600080fd5b5060405161147038038061147083398101604081905261002f916100a2565b600080546001600160a01b0319163390811782556040805192835260208301919091527fde4b3f61490b74c0ed6237523974fe299126bbbf8a8a7482fd220104c59b0c84910160405180910390a1600180546001600160a01b0319166001600160a01b03929092169190911790556100d2565b6000602082840312156100b457600080fd5b81516001600160a01b03811681146100cb57600080fd5b9392505050565b61138f806100e16000396000f3fe608060405234801561001057600080fd5b50600436106100625760003560e01c80630c340a24146100675780635975d4fd146100975780639ca12cda146100b7578063ad3390c0146100cc578063d089a0e7146100df578063e4c0aaf414610108575b600080fd5b60005461007a906001600160a01b031681565b6040516001600160a01b0390911681526020015b60405180910390f35b6100aa6100a5366004610cfa565b61011b565b60405161008e9190610e93565b6100ca6100c5366004610f8a565b610233565b005b60015461007a906001600160a01b031681565b61007a6100ed366004610fc3565b6002602052600090815260409020546001600160a01b031681565b6100ca610116366004610fe7565b610315565b60606000610128836103bc565b600154604051632af3128360e01b81529192506000916001600160a01b0390911690632af312839061015e908590600401611004565b600060405180830381865afa15801561017b573d6000803e3d6000fd5b505050506040513d6000823e601f3d908101601f191682016040526101a39190810190611051565b905060005b845181101561022a576101d58582815181106101c6576101c66110e2565b60200260200101518484610539565b6101f78582815181106101ea576101ea6110e2565b6020026020010151610607565b858281518110610209576102096110e2565b602090810291909101015160400152806102228161110e565b9150506101a8565b50929392505050565b600054604080518082019091526002815261033360f41b6020820152906001600160a01b031633146102815760405162461bcd60e51b81526004016102789190611129565b60405180910390fd5b5080600260008460048111156102995761029961117e565b60048111156102aa576102aa61117e565b8152602081019190915260400160002080546001600160a01b0319166001600160a01b0392831617905581168260048111156102e8576102e861117e565b6040517fd992eaec24a9c32398c97bf68d6b13420cfa61ab8a600800cdd1c760d1fc786190600090a35050565b600054604080518082019091526002815261033360f41b6020820152906001600160a01b0316331461035a5760405162461bcd60e51b81526004016102789190611129565b50600080546001600160a01b038381166001600160a01b031983168117909355604080519190921680825260208201939093527fde4b3f61490b74c0ed6237523974fe299126bbbf8a8a7482fd220104c59b0c84910160405180910390a15050565b60606000805b8351811015610409578381815181106103dd576103dd6110e2565b602002602001015160e0015151826103f59190611194565b9150806104018161110e565b9150506103c2565b5060008167ffffffffffffffff81111561042557610425610b0b565b60405190808252806020026020018201604052801561044e578160200160208202803683370190505b5090506000805b855182101561051e5760005b868381518110610473576104736110e2565b602002602001015160e001515181101561050b57868381518110610499576104996110e2565b602002602001015160e0015181815181106104b6576104b66110e2565b6020026020010151600001518483815181106104d4576104d46110e2565b6001600160a01b0390921660209283029190910190910152806104f68161110e565b9150826105028161110e565b93505050610461565b50816105168161110e565b925050610455565b505061053161052c82610766565b610785565b949350505050565b6000805b8460e0015151821015610600575b8460e001518281518110610561576105616110e2565b6020026020010151600001516001600160a01b0316848281518110610588576105886110e2565b60200260200101516001600160a01b0316146105b057806105a88161110e565b91505061054b565b8281815181106105c2576105c26110e2565b60200260200101518560e0015183815181106105e0576105e06110e2565b6020908102919091018101510152816105f88161110e565b92505061053d565b5050505050565b60008082600001519050600060026000836001600160a01b0316634ac032be6040518163ffffffff1660e01b8152600401602060405180830381865afa158015610655573d6000803e3d6000fd5b505050506040513d601f19601f8201168201806040525081019061067991906111ac565b600481111561068a5761068a61117e565b600481111561069b5761069b61117e565b815260208082019290925260409081016000205481518083019092526002825261034360f41b928201929092526001600160a01b039091169150816106f35760405162461bcd60e51b81526004016102789190611129565b5060e0840151604051633f1114f960e21b81526001600160a01b0383169163fc4453e4916107259186916004016111c9565b602060405180830381865afa158015610742573d6000803e3d6000fd5b505050506040513d601f19601f820116820180604052508101906105319190611236565b60606107818260006001855161077c919061124f565b61095b565b5090565b6060600060015b835181101561080d578381815181106107a7576107a76110e2565b60200260200101516001600160a01b0316846001836107c6919061124f565b815181106107d6576107d66110e2565b60200260200101516001600160a01b031614156107fb57816107f78161110e565b9250505b806108058161110e565b91505061078c565b508061081a575090919050565b6000818451610829919061124f565b67ffffffffffffffff81111561084157610841610b0b565b60405190808252806020026020018201604052801561086a578160200160208202803683370190505b5090506000805b85518210156109515760018651610888919061124f565b821080156108e357508561089d836001611194565b815181106108ad576108ad6110e2565b60200260200101516001600160a01b03168683815181106108d0576108d06110e2565b60200260200101516001600160a01b0316145b156108ed5761093f565b8582815181106108ff576108ff6110e2565b6020026020010151838281518110610919576109196110e2565b6001600160a01b03909216602092830291909101909101528061093b8161110e565b9150505b816109498161110e565b925050610871565b5090949350505050565b81818082141561096c575050505050565b600085600261097b8787611266565b61098591906112a5565b61098f90876112e1565b8151811061099f5761099f6110e2565b602002602001015190505b818313610add575b806001600160a01b03168684815181106109ce576109ce6110e2565b60200260200101516001600160a01b031610156109f757826109ef81611322565b9350506109b2565b858281518110610a0957610a096110e2565b60200260200101516001600160a01b0316816001600160a01b03161015610a3c5781610a348161133b565b9250506109f7565b818313610ad857858281518110610a5557610a556110e2565b6020026020010151868481518110610a6f57610a6f6110e2565b6020026020010151878581518110610a8957610a896110e2565b60200260200101888581518110610aa257610aa26110e2565b6001600160a01b0393841660209182029290920101529116905282610ac681611322565b9350508180610ad49061133b565b9250505b6109aa565b81851215610af057610af086868461095b565b83831215610b0357610b0386848661095b565b505050505050565b634e487b7160e01b600052604160045260246000fd5b6040805190810167ffffffffffffffff81118282101715610b4457610b44610b0b565b60405290565b604051610100810167ffffffffffffffff81118282101715610b4457610b44610b0b565b604051601f8201601f1916810167ffffffffffffffff81118282101715610b9757610b97610b0b565b604052919050565b600067ffffffffffffffff821115610bb957610bb9610b0b565b5060051b60200190565b6001600160a01b0381168114610bd857600080fd5b50565b8035610be681610bc3565b919050565b803560ff81168114610be657600080fd5b600060808284031215610c0e57600080fd5b6040516080810181811067ffffffffffffffff82111715610c3157610c31610b0b565b8060405250809150823581526020830135602082015260408301356040820152606083013560608201525092915050565b600082601f830112610c7357600080fd5b81356020610c88610c8383610b9f565b610b6e565b82815260069290921b84018101918181019086841115610ca757600080fd5b8286015b84811015610cef5760408189031215610cc45760008081fd5b610ccc610b21565b8135610cd781610bc3565b81528185013585820152835291830191604001610cab565b509695505050505050565b60006020808385031215610d0d57600080fd5b823567ffffffffffffffff80821115610d2557600080fd5b818501915085601f830112610d3957600080fd5b8135610d47610c8382610b9f565b81815260059190911b83018401908481019088831115610d6657600080fd5b8585015b83811015610e3457803585811115610d825760008081fd5b8601610160818c03601f1901811315610d9b5760008081fd5b610da3610b4a565b610dae8a8401610bdb565b81526040610dbd818501610beb565b8b8301526060808501358284015260809150610ddb8f838701610bfc565b908301526101008401359082015261012083013560a082015261014083013560c0820152908201359087821115610e125760008081fd5b610e208d8b84860101610c62565b60e082015285525050918601918601610d6a565b5098975050505050505050565b600081518084526020808501945080840160005b83811015610e8857815180516001600160a01b031688526020908101519088015260408701965090820190600101610e55565b509495945050505050565b60006020808301818452808551808352604092508286019150828160051b87010184880160005b83811015610f6f57603f19898403018552815180516001600160a01b031684528781015160ff8116898601526101609050818801518589015260608083015180518288015260208101516080880152604081015160a08801528082015160c08801525050608082015160e0818188015260a084015161010088015260c0840151610120880152808401519350505080610140860152610f5b81860183610e41565b968901969450505090860190600101610eba565b509098975050505050505050565b60058110610bd857600080fd5b60008060408385031215610f9d57600080fd5b8235610fa881610f7d565b91506020830135610fb881610bc3565b809150509250929050565b600060208284031215610fd557600080fd5b8135610fe081610f7d565b9392505050565b600060208284031215610ff957600080fd5b8135610fe081610bc3565b6020808252825182820181905260009190848201906040850190845b818110156110455783516001600160a01b031683529284019291840191600101611020565b50909695505050505050565b6000602080838503121561106457600080fd5b825167ffffffffffffffff81111561107b57600080fd5b8301601f8101851361108c57600080fd5b805161109a610c8382610b9f565b81815260059190911b820183019083810190878311156110b957600080fd5b928401925b828410156110d7578351825292840192908401906110be565b979650505050505050565b634e487b7160e01b600052603260045260246000fd5b634e487b7160e01b600052601160045260246000fd5b6000600019821415611122576111226110f8565b5060010190565b600060208083528351808285015260005b818110156111565785810183015185820160400152820161113a565b81811115611168576000604083870101525b50601f01601f1916929092016040019392505050565b634e487b7160e01b600052602160045260246000fd5b600082198211156111a7576111a76110f8565b500190565b6000602082840312156111be57600080fd5b8151610fe081610f7d565b6001600160a01b038316815260406020808301829052835191830182905260009184820191906060850190845b8181101561122957845180516001600160a01b0316845260209081015190840152604083019484019492506001016111f6565b5090979650505050505050565b60006020828403121561124857600080fd5b5051919050565b600082821015611261576112616110f8565b500390565b60008083128015600160ff1b850184121615611284576112846110f8565b6001600160ff1b038401831381161561129f5761129f6110f8565b50500390565b6000826112c257634e487b7160e01b600052601260045260246000fd5b600160ff1b8214600019841416156112dc576112dc6110f8565b500590565b600080821280156001600160ff1b0384900385131615611303576113036110f8565b600160ff1b839003841281161561131c5761131c6110f8565b50500190565b60006001600160ff1b03821415611122576111226110f8565b6000600160ff1b821415611351576113516110f8565b50600019019056fea26469706673582212207cf1a0232b1d0f9e0e311b4fa5a616298b3ecb66b6f0ab096fa7fa010550953264736f6c634300080a0033","bytecodeSha1":"b87b959de23f8ac5afae364cb89d89f0200c5961","compiler":{"evm_version":"istanbul","optimizer":{"enabled":true,"runs":200},"version":"0.8.10+commit.fc410830"},"contractName":"BatchVaultPriceOracle","language":"Solidity","natspec":{"kind":"dev","methods":{"changeGovernor(address)":{"notice":"Changes the governor can only be called by the current governor"},"fetchPricesUSD((address,uint8,uint256,(uint256,uint256,uint256,uint256),uint256,uint256,uint256,(address,uint256)[])[])":{"notice":"Fetches the price of the vault token as well as the underlying tokens","returns":{"_0":"the same vaults info with the price data populated"}},"governor()":{"notice":"Returns the current governor"}},"version":1},"opcodes":"PUSH1 0x80 PUSH1 0x40 MSTORE CALLVALUE DUP1 ISZERO PUSH2 0x10 JUMPI PUSH1 0x0 DUP1 REVERT JUMPDEST POP PUSH1 0x4 CALLDATASIZE LT PUSH2 0x62 JUMPI PUSH1 0x0 CALLDATALOAD PUSH1 0xE0 SHR DUP1 PUSH4 0xC340A24 EQ PUSH2 0x67 JUMPI DUP1 PUSH4 0x5975D4FD EQ PUSH2 0x97 JUMPI DUP1 PUSH4 0x9CA12CDA EQ PUSH2 0xB7 JUMPI DUP1 PUSH4 0xAD3390C0 EQ PUSH2 0xCC JUMPI DUP1 PUSH4 0xD089A0E7 EQ PUSH2 0xDF JUMPI DUP1 PUSH4 0xE4C0AAF4 EQ PUSH2 0x108 JUMPI JUMPDEST PUSH1 0x0 DUP1 REVERT JUMPDEST PUSH1 0x0 SLOAD PUSH2 0x7A SWAP1 PUSH1 0x1 PUSH1 0x1 PUSH1 0xA0 SHL SUB AND DUP2 JUMP JUMPDEST PUSH1 0x40 MLOAD PUSH1 0x1 PUSH1 0x1 PUSH1 0xA0 SHL SUB SWAP1 SWAP2 AND DUP2 MSTORE PUSH1 0x20 ADD JUMPDEST PUSH1 0x40 MLOAD DUP1 SWAP2 SUB SWAP1 RETURN JUMPDEST PUSH2 0xAA PUSH2 0xA5 CALLDATASIZE PUSH1 0x4 PUSH2 0xCFA JUMP JUMPDEST PUSH2 0x11B JUMP JUMPDEST PUSH1 0x40 MLOAD PUSH2 0x8E SWAP2 SWAP1 PUSH2 0xE93 JUMP JUMPDEST PUSH2 0xCA PUSH2 0xC5 CALLDATASIZE PUSH1 0x4 PUSH2 0xF8A JUMP JUMPDEST PUSH2 0x233 JUMP JUMPDEST STOP JUMPDEST PUSH1 0x1 SLOAD PUSH2 0x7A SWAP1 PUSH1 0x1 PUSH1 0x1 PUSH1 0xA0 SHL SUB AND DUP2 JUMP JUMPDEST PUSH2 0x7A PUSH2 0xED CALLDATASIZE PUSH1 0x4 PUSH2 0xFC3 JUMP JUMPDEST PUSH1 0x2 PUSH1 0x20 MSTORE PUSH1 0x0 SWAP1 DUP2 MSTORE PUSH1 0x40 SWAP1 KECCAK256 SLOAD PUSH1 0x1 PUSH1 0x1 PUSH1 0xA0 SHL SUB AND DUP2 JUMP JUMPDEST PUSH2 0xCA PUSH2 0x116 CALLDATASIZE PUSH1 0x4 PUSH2 0xFE7 JUMP JUMPDEST PUSH2 0x315 JUMP JUMPDEST PUSH1 0x60 PUSH1 0x0 PUSH2 0x128 DUP4 PUSH2 0x3BC JUMP JUMPDEST PUSH1 0x1 SLOAD PUSH1 0x40 MLOAD PUSH4 0x2AF31283 PUSH1 0xE0 SHL DUP2 MSTORE SWAP2 SWAP3 POP PUSH1 0x0 SWAP2 PUSH1 0x1 PUSH1 0x1 PUSH1 0xA0 SHL SUB SWAP1 SWAP2 AND SWAP1 PUSH4 0x2AF31283 SWAP1 PUSH2 0x15E SWAP1 DUP6 SWAP1 PUSH1 0x4 ADD PUSH2 0x1004 JUMP JUMPDEST PUSH1 0x0 PUSH1 0x40 MLOAD DUP1 DUP4 SUB DUP2 DUP7 GAS STATICCALL ISZERO DUP1 ISZERO PUSH2 0x17B JUMPI RETURNDATASIZE PUSH1 0x0 DUP1 RETURNDATACOPY RETURNDATASIZE PUSH1 0x0 REVERT JUMPDEST POP POP POP POP PUSH1 0x40 MLOAD RETURNDATASIZE PUSH1 0x0 DUP3 RETURNDATACOPY PUSH1 0x1F RETURNDATASIZE SWAP1 DUP2 ADD PUSH1 0x1F NOT AND DUP3 ADD PUSH1 0x40 MSTORE PUSH2 0x1A3 SWAP2 SWAP1 DUP2 ADD SWAP1 PUSH2 0x1051 JUMP JUMPDEST SWAP1 POP PUSH1 0x0 JUMPDEST DUP5 MLOAD DUP2 LT ISZERO PUSH2 0x22A JUMPI PUSH2 0x1D5 DUP6 DUP3 DUP2 MLOAD DUP2 LT PUSH2 0x1C6 JUMPI PUSH2 0x1C6 PUSH2 0x10E2 JUMP JUMPDEST PUSH1 0x20 MUL PUSH1 0x20 ADD ADD MLOAD DUP5 DUP5 PUSH2 0x539 JUMP JUMPDEST PUSH2 0x1F7 DUP6 DUP3 DUP2 MLOAD DUP2 LT PUSH2 0x1EA JUMPI PUSH2 0x1EA PUSH2 0x10E2 JUMP JUMPDEST PUSH1 0x20 MUL PUSH1 0x20 ADD ADD MLOAD PUSH2 0x607 JUMP JUMPDEST DUP6 DUP3 DUP2 MLOAD DUP2 LT PUSH2 0x209 JUMPI PUSH2 0x209 PUSH2 0x10E2 JUMP JUMPDEST PUSH1 0x20 SWAP1 DUP2 MUL SWAP2 SWAP1 SWAP2 ADD ADD MLOAD PUSH1 0x40 ADD MSTORE DUP1 PUSH2 0x222 DUP2 PUSH2 0x110E JUMP JUMPDEST SWAP2 POP POP PUSH2 0x1A8 JUMP JUMPDEST POP SWAP3 SWAP4 SWAP3 POP POP POP JUMP JUMPDEST PUSH1 0x0 SLOAD PUSH1 0x40 DUP1 MLOAD DUP1 DUP3 ADD SWAP1 SWAP2 MSTORE PUSH1 0x2 DUP2 MSTORE PUSH2 0x333 PUSH1 0xF4 SHL PUSH1 0x20 DUP3 ADD MSTORE SWAP1 PUSH1 0x1 PUSH1 0x1 PUSH1 0xA0 SHL SUB AND CALLER EQ PUSH2 0x281 JUMPI PUSH1 0x40 MLOAD PUSH3 0x461BCD PUSH1 0xE5 SHL DUP2 MSTORE PUSH1 0x4 ADD PUSH2 0x278 SWAP2 SWAP1 PUSH2 0x1129 JUMP JUMPDEST PUSH1 0x40 MLOAD DUP1 SWAP2 SUB SWAP1 REVERT JUMPDEST POP DUP1 PUSH1 0x2 PUSH1 0x0 DUP5 PUSH1 0x4 DUP2 GT ISZERO PUSH2 0x299 JUMPI PUSH2 0x299 PUSH2 0x117E JUMP JUMPDEST PUSH1 0x4 DUP2 GT ISZERO PUSH2 0x2AA JUMPI PUSH2 0x2AA PUSH2 0x117E JUMP JUMPDEST DUP2 MSTORE PUSH1 0x20 DUP2 ADD SWAP2 SWAP1 SWAP2 MSTORE PUSH1 0x40 ADD PUSH1 0x0 KECCAK256 DUP1 SLOAD PUSH1 0x1 PUSH1 0x1 PUSH1 0xA0 SHL SUB NOT AND PUSH1 0x1 PUSH1 0x1 PUSH1 0xA0 SHL SUB SWAP3 DUP4 AND OR SWAP1 SSTORE DUP2 AND DUP3 PUSH1 0x4 DUP2 GT ISZERO PUSH2 0x2E8 JUMPI PUSH2 0x2E8 PUSH2 0x117E JUMP JUMPDEST PUSH1 0x40 MLOAD PUSH32 0xD992EAEC24A9C32398C97BF68D6B13420CFA61AB8A600800CDD1C760D1FC7861 SWAP1 PUSH1 0x0 SWAP1 LOG3 POP POP JUMP JUMPDEST PUSH1 0x0 SLOAD PUSH1 0x40 DUP1 MLOAD DUP1 DUP3 ADD SWAP1 SWAP2 MSTORE PUSH1 0x2 DUP2 MSTORE PUSH2 0x333 PUSH1 0xF4 SHL PUSH1 0x20 DUP3 ADD MSTORE SWAP1 PUSH1 0x1 PUSH1 0x1 PUSH1 0xA0 SHL SUB AND CALLER EQ PUSH2 0x35A JUMPI PUSH1 0x40 MLOAD PUSH3 0x461BCD PUSH1 0xE5 SHL DUP2 MSTORE PUSH1 0x4 ADD PUSH2 0x278 SWAP2 SWAP1 PUSH2 0x1129 JUMP JUMPDEST POP PUSH1 0x0 DUP1 SLOAD PUSH1 0x1 PUSH1 0x1 PUSH1 0xA0 SHL SUB DUP4 DUP2 AND PUSH1 0x1 PUSH1 0x1 PUSH1 0xA0 SHL SUB NOT DUP4 AND DUP2 OR SWAP1 SWAP4 SSTORE PUSH1 0x40 DUP1 MLOAD SWAP2 SWAP1 SWAP3 AND DUP1 DUP3 MSTORE PUSH1 0x20 DUP3 ADD SWAP4 SWAP1 SWAP4 MSTORE PUSH32 0xDE4B3F61490B74C0ED6237523974FE299126BBBF8A8A7482FD220104C59B0C84 SWAP2 ADD PUSH1 0x40 MLOAD DUP1 SWAP2 SUB SWAP1 LOG1 POP POP JUMP JUMPDEST PUSH1 0x60 PUSH1 0x0 DUP1 JUMPDEST DUP4 MLOAD DUP2 LT ISZERO PUSH2 0x409 JUMPI DUP4 DUP2 DUP2 MLOAD DUP2 LT PUSH2 0x3DD JUMPI PUSH2 0x3DD PUSH2 0x10E2 JUMP JUMPDEST PUSH1 0x20 MUL PUSH1 0x20 ADD ADD MLOAD PUSH1 0xE0 ADD MLOAD MLOAD DUP3 PUSH2 0x3F5 SWAP2 SWAP1 PUSH2 0x1194 JUMP JUMPDEST SWAP2 POP DUP1 PUSH2 0x401 DUP2 PUSH2 0x110E JUMP JUMPDEST SWAP2 POP POP PUSH2 0x3C2 JUMP JUMPDEST POP PUSH1 0x0 DUP2 PUSH8 0xFFFFFFFFFFFFFFFF DUP2 GT ISZERO PUSH2 0x425 JUMPI PUSH2 0x425 PUSH2 0xB0B JUMP JUMPDEST PUSH1 0x40 MLOAD SWAP1 DUP1 DUP3 MSTORE DUP1 PUSH1 0x20 MUL PUSH1 0x20 ADD DUP3 ADD PUSH1 0x40 MSTORE DUP1 ISZERO PUSH2 0x44E JUMPI DUP2 PUSH1 0x20 ADD PUSH1 0x20 DUP3 MUL DUP1 CALLDATASIZE DUP4 CALLDATACOPY ADD SWAP1 POP JUMPDEST POP SWAP1 POP PUSH1 0x0 DUP1 JUMPDEST DUP6 MLOAD DUP3 LT ISZERO PUSH2 0x51E JUMPI PUSH1 0x0 JUMPDEST DUP7 DUP4 DUP2 MLOAD DUP2 LT PUSH2 0x473 JUMPI PUSH2 0x473 PUSH2 0x10E2 JUMP JUMPDEST PUSH1 0x20 MUL PUSH1 0x20 ADD ADD MLOAD PUSH1 0xE0 ADD MLOAD MLOAD DUP2 LT ISZERO PUSH2 0x50B JUMPI DUP7 DUP4 DUP2 MLOAD DUP2 LT PUSH2 0x499 JUMPI PUSH2 0x499 PUSH2 0x10E2 JUMP JUMPDEST PUSH1 0x20 MUL PUSH1 0x20 ADD ADD MLOAD PUSH1 0xE0 ADD MLOAD DUP2 DUP2 MLOAD DUP2 LT PUSH2 0x4B6 JUMPI PUSH2 0x4B6 PUSH2 0x10E2 JUMP JUMPDEST PUSH1 0x20 MUL PUSH1 0x20 ADD ADD MLOAD PUSH1 0x0 ADD MLOAD DUP5 DUP4 DUP2 MLOAD DUP2 LT PUSH2 0x4D4 JUMPI PUSH2 0x4D4 PUSH2 0x10E2 JUMP JUMPDEST PUSH1 0x1 PUSH1 0x1 PUSH1 0xA0 SHL SUB SWAP1 SWAP3 AND PUSH1 0x20 SWAP3 DUP4 MUL SWAP2 SWAP1 SWAP2 ADD SWAP1 SWAP2 ADD MSTORE DUP1 PUSH2 0x4F6 DUP2 PUSH2 0x110E JUMP JUMPDEST SWAP2 POP DUP3 PUSH2 0x502 DUP2 PUSH2 0x110E JUMP JUMPDEST SWAP4 POP POP POP PUSH2 0x461 JUMP JUMPDEST POP DUP2 PUSH2 0x516 DUP2 PUSH2 0x110E JUMP JUMPDEST SWAP3 POP POP PUSH2 0x455 JUMP JUMPDEST POP POP PUSH2 0x531 PUSH2 0x52C DUP3 PUSH2 0x766 JUMP JUMPDEST PUSH2 0x785 JUMP JUMPDEST SWAP5 SWAP4 POP POP POP POP JUMP JUMPDEST PUSH1 0x0 DUP1 JUMPDEST DUP5 PUSH1 0xE0 ADD MLOAD MLOAD DUP3 LT ISZERO PUSH2 0x600 JUMPI JUMPDEST DUP5 PUSH1 0xE0 ADD MLOAD DUP3 DUP2 MLOAD DUP2 LT PUSH2 0x561 JUMPI PUSH2 0x561 PUSH2 0x10E2 JUMP JUMPDEST PUSH1 0x20 MUL PUSH1 0x20 ADD ADD MLOAD PUSH1 0x0 ADD MLOAD PUSH1 0x1 PUSH1 0x1 PUSH1 0xA0 SHL SUB AND DUP5 DUP3 DUP2 MLOAD DUP2 LT PUSH2 0x588 JUMPI PUSH2 0x588 PUSH2 0x10E2 JUMP JUMPDEST PUSH1 0x20 MUL PUSH1 0x20 ADD ADD MLOAD PUSH1 0x1 PUSH1 0x1 PUSH1 0xA0 SHL SUB AND EQ PUSH2 0x5B0 JUMPI DUP1 PUSH2 0x5A8 DUP2 PUSH2 0x110E JUMP JUMPDEST SWAP2 POP POP PUSH2 0x54B JUMP JUMPDEST DUP3 DUP2 DUP2 MLOAD DUP2 LT PUSH2 0x5C2 JUMPI PUSH2 0x5C2 PUSH2 0x10E2 JUMP JUMPDEST PUSH1 0x20 MUL PUSH1 0x20 ADD ADD MLOAD DUP6 PUSH1 0xE0 ADD MLOAD DUP4 DUP2 MLOAD DUP2 LT PUSH2 0x5E0 JUMPI PUSH2 0x5E0 PUSH2 0x10E2 JUMP JUMPDEST PUSH1 0x20 SWAP1 DUP2 MUL SWAP2 SWAP1 SWAP2 ADD DUP2 ADD MLOAD ADD MSTORE DUP2 PUSH2 0x5F8 DUP2 PUSH2 0x110E JUMP JUMPDEST SWAP3 POP POP PUSH2 0x53D JUMP JUMPDEST POP POP POP POP POP JUMP JUMPDEST PUSH1 0x0 DUP1 DUP3 PUSH1 0x0 ADD MLOAD SWAP1 POP PUSH1 0x0 PUSH1 0x2 PUSH1 0x0 DUP4 PUSH1 0x1 PUSH1 0x1 PUSH1 0xA0 SHL SUB AND PUSH4 0x4AC032BE PUSH1 0x40 MLOAD DUP2 PUSH4 0xFFFFFFFF AND PUSH1 0xE0 SHL DUP2 MSTORE PUSH1 0x4 ADD PUSH1 0x20 PUSH1 0x40 MLOAD DUP1 DUP4 SUB DUP2 DUP7 GAS STATICCALL ISZERO DUP1 ISZERO PUSH2 0x655 JUMPI RETURNDATASIZE PUSH1 0x0 DUP1 RETURNDATACOPY RETURNDATASIZE PUSH1 0x0 REVERT JUMPDEST POP POP POP POP PUSH1 0x40 MLOAD RETURNDATASIZE PUSH1 0x1F NOT PUSH1 0x1F DUP3 ADD AND DUP3 ADD DUP1 PUSH1 0x40 MSTORE POP DUP2 ADD SWAP1 PUSH2 0x679 SWAP2 SWAP1 PUSH2 0x11AC JUMP JUMPDEST PUSH1 0x4 DUP2 GT ISZERO PUSH2 0x68A JUMPI PUSH2 0x68A PUSH2 0x117E JUMP JUMPDEST PUSH1 0x4 DUP2 GT ISZERO PUSH2 0x69B JUMPI PUSH2 0x69B PUSH2 0x117E JUMP JUMPDEST DUP2 MSTORE PUSH1 0x20 DUP1 DUP3 ADD SWAP3 SWAP1 SWAP3 MSTORE PUSH1 0x40 SWAP1 DUP2 ADD PUSH1 0x0 KECCAK256 SLOAD DUP2 MLOAD DUP1 DUP4 ADD SWAP1 SWAP3 MSTORE PUSH1 0x2 DUP3 MSTORE PUSH2 0x343 PUSH1 0xF4 SHL SWAP3 DUP3 ADD SWAP3 SWAP1 SWAP3 MSTORE PUSH1 0x1 PUSH1 0x1 PUSH1 0xA0 SHL SUB SWAP1 SWAP2 AND SWAP2 POP DUP2 PUSH2 0x6F3 JUMPI PUSH1 0x40 MLOAD PUSH3 0x461BCD PUSH1 0xE5 SHL DUP2 MSTORE PUSH1 0x4 ADD PUSH2 0x278 SWAP2 SWAP1 PUSH2 0x1129 JUMP JUMPDEST POP PUSH1 0xE0 DUP5 ADD MLOAD PUSH1 0x40 MLOAD PUSH4 0x3F1114F9 PUSH1 0xE2 SHL DUP2 MSTORE PUSH1 0x1 PUSH1 0x1 PUSH1 0xA0 SHL SUB DUP4 AND SWAP2 PUSH4 0xFC4453E4 SWAP2 PUSH2 0x725 SWAP2 DUP7 SWAP2 PUSH1 0x4 ADD PUSH2 0x11C9 JUMP JUMPDEST PUSH1 0x20 PUSH1 0x40 MLOAD DUP1 DUP4 SUB DUP2 DUP7 GAS STATICCALL ISZERO DUP1 ISZERO PUSH2 0x742 JUMPI RETURNDATASIZE PUSH1 0x0 DUP1 RETURNDATACOPY RETURNDATASIZE PUSH1 0x0 REVERT JUMPDEST POP POP POP POP PUSH1 0x40 MLOAD RETURNDATASIZE PUSH1 0x1F NOT PUSH1 0x1F DUP3 ADD AND DUP3 ADD DUP1 PUSH1 0x40 MSTORE POP DUP2 ADD SWAP1 PUSH2 0x531 SWAP2 SWAP1 PUSH2 0x1236 JUMP JUMPDEST PUSH1 0x60 PUSH2 0x781 DUP3 PUSH1 0x0 PUSH1 0x1 DUP6 MLOAD PUSH2 0x77C SWAP2 SWAP1 PUSH2 0x124F JUMP JUMPDEST PUSH2 0x95B JUMP JUMPDEST POP SWAP1 JUMP JUMPDEST PUSH1 0x60 PUSH1 0x0 PUSH1 0x1 JUMPDEST DUP4 MLOAD DUP2 LT ISZERO PUSH2 0x80D JUMPI DUP4 DUP2 DUP2 MLOAD DUP2 LT PUSH2 0x7A7 JUMPI PUSH2 0x7A7 PUSH2 0x10E2 JUMP JUMPDEST PUSH1 0x20 MUL PUSH1 0x20 ADD ADD MLOAD PUSH1 0x1 PUSH1 0x1 PUSH1 0xA0 SHL SUB AND DUP5 PUSH1 0x1 DUP4 PUSH2 0x7C6 SWAP2 SWAP1 PUSH2 0x124F JUMP JUMPDEST DUP2 MLOAD DUP2 LT PUSH2 0x7D6 JUMPI PUSH2 0x7D6 PUSH2 0x10E2 JUMP JUMPDEST PUSH1 0x20 MUL PUSH1 0x20 ADD ADD MLOAD PUSH1 0x1 PUSH1 0x1 PUSH1 0xA0 SHL SUB AND EQ ISZERO PUSH2 0x7FB JUMPI DUP2 PUSH2 0x7F7 DUP2 PUSH2 0x110E JUMP JUMPDEST SWAP3 POP POP JUMPDEST DUP1 PUSH2 0x805 DUP2 PUSH2 0x110E JUMP JUMPDEST SWAP2 POP POP PUSH2 0x78C JUMP JUMPDEST POP DUP1 PUSH2 0x81A JUMPI POP SWAP1 SWAP2 SWAP1 POP JUMP JUMPDEST PUSH1 0x0 DUP2 DUP5 MLOAD PUSH2 0x829 SWAP2 SWAP1 PUSH2 0x124F JUMP JUMPDEST PUSH8 0xFFFFFFFFFFFFFFFF DUP2 GT ISZERO PUSH2 0x841 JUMPI PUSH2 0x841 PUSH2 0xB0B JUMP JUMPDEST PUSH1 0x40 MLOAD SWAP1 DUP1 DUP3 MSTORE DUP1 PUSH1 0x20 MUL PUSH1 0x20 ADD DUP3 ADD PUSH1 0x40 MSTORE DUP1 ISZERO PUSH2 0x86A JUMPI DUP2 PUSH1 0x20 ADD PUSH1 0x20 DUP3 MUL DUP1 CALLDATASIZE DUP4 CALLDATACOPY ADD SWAP1 POP JUMPDEST POP SWAP1 POP PUSH1 0x0 DUP1 JUMPDEST DUP6 MLOAD DUP3 LT ISZERO PUSH2 0x951 JUMPI PUSH1 0x1 DUP7 MLOAD PUSH2 0x888 SWAP2 SWAP1 PUSH2 0x124F JUMP JUMPDEST DUP3 LT DUP1 ISZERO PUSH2 0x8E3 JUMPI POP DUP6 PUSH2 0x89D DUP4 PUSH1 0x1 PUSH2 0x1194 JUMP JUMPDEST DUP2 MLOAD DUP2 LT PUSH2 0x8AD JUMPI PUSH2 0x8AD PUSH2 0x10E2 JUMP JUMPDEST PUSH1 0x20 MUL PUSH1 0x20 ADD ADD MLOAD PUSH1 0x1 PUSH1 0x1 PUSH1 0xA0 SHL SUB AND DUP7 DUP4 DUP2 MLOAD DUP2 LT PUSH2 0x8D0 JUMPI PUSH2 0x8D0 PUSH2 0x10E2 JUMP JUMPDEST PUSH1 0x20 MUL PUSH1 0x20 ADD ADD MLOAD PUSH1 0x1 PUSH1 0x1 PUSH1 0xA0 SHL SUB AND EQ JUMPDEST ISZERO PUSH2 0x8ED JUMPI PUSH2 0x93F JUMP JUMPDEST DUP6 DUP3 DUP2 MLOAD DUP2 LT PUSH2 0x8FF JUMPI PUSH2 0x8FF PUSH2 0x10E2 JUMP JUMPDEST PUSH1 0x20 MUL PUSH1 0x20 ADD ADD MLOAD DUP4 DUP3 DUP2 MLOAD DUP2 LT PUSH2 0x919 JUMPI PUSH2 0x919 PUSH2 0x10E2 JUMP JUMPDEST PUSH1 0x1 PUSH1 0x1 PUSH1 0xA0 SHL SUB SWAP1 SWAP3 AND PUSH1 0x20 SWAP3 DUP4 MUL SWAP2 SWAP1 SWAP2 ADD SWAP1 SWAP2 ADD MSTORE DUP1 PUSH2 0x93B DUP2 PUSH2 0x110E JUMP JUMPDEST SWAP2 POP POP JUMPDEST DUP2 PUSH2 0x949 DUP2 PUSH2 0x110E JUMP JUMPDEST SWAP3 POP POP PUSH2 0x871 JUMP JUMPDEST POP SWAP1 SWAP5 SWAP4 POP POP POP POP JUMP JUMPDEST DUP2 DUP2 DUP1 DUP3 EQ ISZERO PUSH2 0x96C JUMPI POP POP POP POP POP JUMP JUMPDEST PUSH1 0x0 DUP6 PUSH1 0x2 PUSH2 0x97B DUP8 DUP8 PUSH2 0x1266 JUMP JUMPDEST PUSH2 0x985 SWAP2 SWAP1 PUSH2 0x12A5 JUMP JUMPDEST PUSH2 0x98F SWAP1 DUP8 PUSH2 0x12E1 JUMP JUMPDEST DUP2 MLOAD DUP2 LT PUSH2 0x99F JUMPI PUSH2 0x99F PUSH2 0x10E2 JUMP JUMPDEST PUSH1 0x20 MUL PUSH1 0x20 ADD ADD MLOAD SWAP1 POP JUMPDEST DUP2 DUP4 SGT PUSH2 0xADD JUMPI JUMPDEST DUP1 PUSH1 0x1 PUSH1 0x1 PUSH1 0xA0 SHL SUB AND DUP7 DUP5 DUP2 MLOAD DUP2 LT PUSH2 0x9CE JUMPI PUSH2 0x9CE PUSH2 0x10E2 JUMP JUMPDEST PUSH1 0x20 MUL PUSH1 0x20 ADD ADD MLOAD PUSH1 0x1 PUSH1 0x1 PUSH1 0xA0 SHL SUB AND LT ISZERO PUSH2 0x9F7 JUMPI DUP3 PUSH2 0x9EF DUP2 PUSH2 0x1322 JUMP JUMPDEST SWAP4 POP POP PUSH2 0x9B2 JUMP JUMPDEST DUP6 DUP3 DUP2 MLOAD DUP2 LT PUSH2 0xA09 JUMPI PUSH2 0xA09 PUSH2 0x10E2 JUMP JUMPDEST PUSH1 0x20 MUL PUSH1 0x20 ADD ADD MLOAD PUSH1 0x1 PUSH1 0x1 PUSH1 0xA0 SHL SUB AND DUP2 PUSH1 0x1 PUSH1 0x1 PUSH1 0xA0 SHL SUB AND LT ISZERO PUSH2 0xA3C JUMPI DUP2 PUSH2 0xA34 DUP2 PUSH2 0x133B JUMP JUMPDEST SWAP3 POP POP PUSH2 0x9F7 JUMP JUMPDEST DUP2 DUP4 SGT PUSH2 0xAD8 JUMPI DUP6 DUP3 DUP2 MLOAD DUP2 LT PUSH2 0xA55 JUMPI PUSH2 0xA55 PUSH2 0x10E2 JUMP JUMPDEST PUSH1 0x20 MUL PUSH1 0x20 ADD ADD MLOAD DUP7 DUP5 DUP2 MLOAD DUP2 LT PUSH2 0xA6F JUMPI PUSH2 0xA6F PUSH2 0x10E2 JUMP JUMPDEST PUSH1 0x20 MUL PUSH1 0x20 ADD ADD MLOAD DUP8 DUP6 DUP2 MLOAD DUP2 LT PUSH2 0xA89 JUMPI PUSH2 0xA89 PUSH2 0x10E2 JUMP JUMPDEST PUSH1 0x20 MUL PUSH1 0x20 ADD ADD DUP9 DUP6 DUP2 MLOAD DUP2 LT PUSH2 0xAA2 JUMPI PUSH2 0xAA2 PUSH2 0x10E2 JUMP JUMPDEST PUSH1 0x1 PUSH1 0x1 PUSH1 0xA0 SHL SUB SWAP4 DUP5 AND PUSH1 0x20 SWAP2 DUP3 MUL SWAP3 SWAP1 SWAP3 ADD ADD MSTORE SWAP2 AND SWAP1 MSTORE DUP3 PUSH2 0xAC6 DUP2 PUSH2 0x1322 JUMP JUMPDEST SWAP4 POP POP DUP2 DUP1 PUSH2 0xAD4 SWAP1 PUSH2 0x133B JUMP JUMPDEST SWAP3 POP POP JUMPDEST PUSH2 0x9AA JUMP JUMPDEST DUP2 DUP6 SLT ISZERO PUSH2 0xAF0 JUMPI PUSH2 0xAF0 DUP7 DUP7 DUP5 PUSH2 0x95B JUMP JUMPDEST DUP4 DUP4 SLT ISZERO PUSH2 0xB03 JUMPI PUSH2 0xB03 DUP7 DUP5 DUP7 PUSH2 0x95B JUMP JUMPDEST POP POP POP POP POP POP JUMP JUMPDEST PUSH4 0x4E487B71 PUSH1 0xE0 SHL PUSH1 0x0 MSTORE PUSH1 0x41 PUSH1 0x4 MSTORE PUSH1 0x24 PUSH1 0x0 REVERT JUMPDEST PUSH1 0x40 DUP1 MLOAD SWAP1 DUP2 ADD PUSH8 0xFFFFFFFFFFFFFFFF DUP2 GT DUP3 DUP3 LT OR ISZERO PUSH2 0xB44 JUMPI PUSH2 0xB44 PUSH2 0xB0B JUMP JUMPDEST PUSH1 0x40 MSTORE SWAP1 JUMP JUMPDEST PUSH1 0x40 MLOAD PUSH2 0x100 DUP2 ADD PUSH8 0xFFFFFFFFFFFFFFFF DUP2 GT DUP3 DUP3 LT OR ISZERO PUSH2 0xB44 JUMPI PUSH2 0xB44 PUSH2 0xB0B JUMP JUMPDEST PUSH1 0x40 MLOAD PUSH1 0x1F DUP3 ADD PUSH1 0x1F NOT AND DUP2 ADD PUSH8 0xFFFFFFFFFFFFFFFF DUP2 GT DUP3 DUP3 LT OR ISZERO PUSH2 0xB97 JUMPI PUSH2 0xB97 PUSH2 0xB0B JUMP JUMPDEST PUSH1 0x40 MSTORE SWAP2 SWAP1 POP JUMP JUMPDEST PUSH1 0x0 PUSH8 0xFFFFFFFFFFFFFFFF DUP3 GT ISZERO PUSH2 0xBB9 JUMPI PUSH2 0xBB9 PUSH2 0xB0B JUMP JUMPDEST POP PUSH1 0x5 SHL PUSH1 0x20 ADD SWAP1 JUMP JUMPDEST PUSH1 0x1 PUSH1 0x1 PUSH1 0xA0 SHL SUB DUP2 AND DUP2 EQ PUSH2 0xBD8 JUMPI PUSH1 0x0 DUP1 REVERT JUMPDEST POP JUMP JUMPDEST DUP1 CALLDATALOAD PUSH2 0xBE6 DUP2 PUSH2 0xBC3 JUMP JUMPDEST SWAP2 SWAP1 POP JUMP JUMPDEST DUP1 CALLDATALOAD PUSH1 0xFF DUP2 AND DUP2 EQ PUSH2 0xBE6 JUMPI PUSH1 0x0 DUP1 REVERT JUMPDEST PUSH1 0x0 PUSH1 0x80 DUP3 DUP5 SUB SLT ISZERO PUSH2 0xC0E JUMPI PUSH1 0x0 DUP1 REVERT JUMPDEST PUSH1 0x40 MLOAD PUSH1 0x80 DUP2 ADD DUP2 DUP2 LT PUSH8 0xFFFFFFFFFFFFFFFF DUP3 GT OR ISZERO PUSH2 0xC31 JUMPI PUSH2 0xC31 PUSH2 0xB0B JUMP JUMPDEST DUP1 PUSH1 0x40 MSTORE POP DUP1 SWAP2 POP DUP3 CALLDATALOAD DUP2 MSTORE PUSH1 0x20 DUP4 ADD CALLDATALOAD PUSH1 0x20 DUP3 ADD MSTORE PUSH1 0x40 DUP4 ADD CALLDATALOAD PUSH1 0x40 DUP3 ADD MSTORE PUSH1 0x60 DUP4 ADD CALLDATALOAD PUSH1 0x60 DUP3 ADD MSTORE POP SWAP3 SWAP2 POP POP JUMP JUMPDEST PUSH1 0x0 DUP3 PUSH1 0x1F DUP4 ADD SLT PUSH2 0xC73 JUMPI PUSH1 0x0 DUP1 REVERT JUMPDEST DUP2 CALLDATALOAD PUSH1 0x20 PUSH2 0xC88 PUSH2 0xC83 DUP4 PUSH2 0xB9F JUMP JUMPDEST PUSH2 0xB6E JUMP JUMPDEST DUP3 DUP2 MSTORE PUSH1 0x6 SWAP3 SWAP1 SWAP3 SHL DUP5 ADD DUP2 ADD SWAP2 DUP2 DUP2 ADD SWAP1 DUP7 DUP5 GT ISZERO PUSH2 0xCA7 JUMPI PUSH1 0x0 DUP1 REVERT JUMPDEST DUP3 DUP7 ADD JUMPDEST DUP5 DUP2 LT ISZERO PUSH2 0xCEF JUMPI PUSH1 0x40 DUP2 DUP10 SUB SLT ISZERO PUSH2 0xCC4 JUMPI PUSH1 0x0 DUP1 DUP2 REVERT JUMPDEST PUSH2 0xCCC PUSH2 0xB21 JUMP JUMPDEST DUP2 CALLDATALOAD PUSH2 0xCD7 DUP2 PUSH2 0xBC3 JUMP JUMPDEST DUP2 MSTORE DUP2 DUP6 ADD CALLDATALOAD DUP6 DUP3 ADD MSTORE DUP4 MSTORE SWAP2 DUP4 ADD SWAP2 PUSH1 0x40 ADD PUSH2 0xCAB JUMP JUMPDEST POP SWAP7 SWAP6 POP POP POP POP POP POP JUMP JUMPDEST PUSH1 0x0 PUSH1 0x20 DUP1 DUP4 DUP6 SUB SLT ISZERO PUSH2 0xD0D JUMPI PUSH1 0x0 DUP1 REVERT JUMPDEST DUP3 CALLDATALOAD PUSH8 0xFFFFFFFFFFFFFFFF DUP1 DUP3 GT ISZERO PUSH2 0xD25 JUMPI PUSH1 0x0 DUP1 REVERT JUMPDEST DUP2 DUP6 ADD SWAP2 POP DUP6 PUSH1 0x1F DUP4 ADD SLT PUSH2 0xD39 JUMPI PUSH1 0x0 DUP1 REVERT JUMPDEST DUP2 CALLDATALOAD PUSH2 0xD47 PUSH2 0xC83 DUP3 PUSH2 0xB9F JUMP JUMPDEST DUP2 DUP2 MSTORE PUSH1 0x5 SWAP2 SWAP1 SWAP2 SHL DUP4 ADD DUP5 ADD SWAP1 DUP5 DUP2 ADD SWAP1 DUP9 DUP4 GT ISZERO PUSH2 0xD66 JUMPI PUSH1 0x0 DUP1 REVERT JUMPDEST DUP6 DUP6 ADD JUMPDEST DUP4 DUP2 LT ISZERO PUSH2 0xE34 JUMPI DUP1 CALLDATALOAD DUP6 DUP2 GT ISZERO PUSH2 0xD82 JUMPI PUSH1 0x0 DUP1 DUP2 REVERT JUMPDEST DUP7 ADD PUSH2 0x160 DUP2 DUP13 SUB PUSH1 0x1F NOT ADD DUP2 SGT ISZERO PUSH2 0xD9B JUMPI PUSH1 0x0 DUP1 DUP2 REVERT JUMPDEST PUSH2 0xDA3 PUSH2 0xB4A JUMP JUMPDEST PUSH2 0xDAE DUP11 DUP5 ADD PUSH2 0xBDB JUMP JUMPDEST DUP2 MSTORE PUSH1 0x40 PUSH2 0xDBD DUP2 DUP6 ADD PUSH2 0xBEB JUMP JUMPDEST DUP12 DUP4 ADD MSTORE PUSH1 0x60 DUP1 DUP6 ADD CALLDATALOAD DUP3 DUP5 ADD MSTORE PUSH1 0x80 SWAP2 POP PUSH2 0xDDB DUP16 DUP4 DUP8 ADD PUSH2 0xBFC JUMP JUMPDEST SWAP1 DUP4 ADD MSTORE PUSH2 0x100 DUP5 ADD CALLDATALOAD SWAP1 DUP3 ADD MSTORE PUSH2 0x120 DUP4 ADD CALLDATALOAD PUSH1 0xA0 DUP3 ADD MSTORE PUSH2 0x140 DUP4 ADD CALLDATALOAD PUSH1 0xC0 DUP3 ADD MSTORE SWAP1 DUP3 ADD CALLDATALOAD SWAP1 DUP8 DUP3 GT ISZERO PUSH2 0xE12 JUMPI PUSH1 0x0 DUP1 DUP2 REVERT JUMPDEST PUSH2 0xE20 DUP14 DUP12 DUP5 DUP7 ADD ADD PUSH2 0xC62 JUMP JUMPDEST PUSH1 0xE0 DUP3 ADD MSTORE DUP6 MSTORE POP POP SWAP2 DUP7 ADD SWAP2 DUP7 ADD PUSH2 0xD6A JUMP JUMPDEST POP SWAP9 SWAP8 POP POP POP POP POP POP POP POP JUMP JUMPDEST PUSH1 0x0 DUP2 MLOAD DUP1 DUP5 MSTORE PUSH1 0x20 DUP1 DUP6 ADD SWAP5 POP DUP1 DUP5 ADD PUSH1 0x0 JUMPDEST DUP4 DUP2 LT ISZERO PUSH2 0xE88 JUMPI DUP2 MLOAD DUP1 MLOAD PUSH1 0x1 PUSH1 0x1 PUSH1 0xA0 SHL SUB AND DUP9 MSTORE PUSH1 0x20 SWAP1 DUP2 ADD MLOAD SWAP1 DUP9 ADD MSTORE PUSH1 0x40 DUP8 ADD SWAP7 POP SWAP1 DUP3 ADD SWAP1 PUSH1 0x1 ADD PUSH2 0xE55 JUMP JUMPDEST POP SWAP5 SWAP6 SWAP5 POP POP POP POP POP JUMP JUMPDEST PUSH1 0x0 PUSH1 0x20 DUP1 DUP4 ADD DUP2 DUP5 MSTORE DUP1 DUP6 MLOAD DUP1 DUP4 MSTORE PUSH1 0x40 SWAP3 POP DUP3 DUP7 ADD SWAP2 POP DUP3 DUP2 PUSH1 0x5 SHL DUP8 ADD ADD DUP5 DUP9 ADD PUSH1 0x0 JUMPDEST DUP4 DUP2 LT ISZERO PUSH2 0xF6F JUMPI PUSH1 0x3F NOT DUP10 DUP5 SUB ADD DUP6 MSTORE DUP2 MLOAD DUP1 MLOAD PUSH1 0x1 PUSH1 0x1 PUSH1 0xA0 SHL SUB AND DUP5 MSTORE DUP8 DUP2 ADD MLOAD PUSH1 0xFF DUP2 AND DUP10 DUP7 ADD MSTORE PUSH2 0x160 SWAP1 POP DUP2 DUP9 ADD MLOAD DUP6 DUP10 ADD MSTORE PUSH1 0x60 DUP1 DUP4 ADD MLOAD DUP1 MLOAD DUP3 DUP9 ADD MSTORE PUSH1 0x20 DUP2 ADD MLOAD PUSH1 0x80 DUP9 ADD MSTORE PUSH1 0x40 DUP2 ADD MLOAD PUSH1 0xA0 DUP9 ADD MSTORE DUP1 DUP3 ADD MLOAD PUSH1 0xC0 DUP9 ADD MSTORE POP POP PUSH1 0x80 DUP3 ADD MLOAD PUSH1 0xE0 DUP2 DUP2 DUP9 ADD MSTORE PUSH1 0xA0 DUP5 ADD MLOAD PUSH2 0x100 DUP9 ADD MSTORE PUSH1 0xC0 DUP5 ADD MLOAD PUSH2 0x120 DUP9 ADD MSTORE DUP1 DUP5 ADD MLOAD SWAP4 POP POP POP DUP1 PUSH2 0x140 DUP7 ADD MSTORE PUSH2 0xF5B DUP2 DUP7 ADD DUP4 PUSH2 0xE41 JUMP JUMPDEST SWAP7 DUP10 ADD SWAP7 SWAP5 POP POP POP SWAP1 DUP7 ADD SWAP1 PUSH1 0x1 ADD PUSH2 0xEBA JUMP JUMPDEST POP SWAP1 SWAP9 SWAP8 POP POP POP POP POP POP POP POP JUMP JUMPDEST PUSH1 0x5 DUP2 LT PUSH2 0xBD8 JUMPI PUSH1 0x0 DUP1 REVERT JUMPDEST PUSH1 0x0 DUP1 PUSH1 0x40 DUP4 DUP6 SUB SLT ISZERO PUSH2 0xF9D JUMPI PUSH1 0x0 DUP1 REVERT JUMPDEST DUP3 CALLDATALOAD PUSH2 0xFA8 DUP2 PUSH2 0xF7D JUMP JUMPDEST SWAP2 POP PUSH1 0x20 DUP4 ADD CALLDATALOAD PUSH2 0xFB8 DUP2 PUSH2 0xBC3 JUMP JUMPDEST DUP1 SWAP2 POP POP SWAP3 POP SWAP3 SWAP1 POP JUMP JUMPDEST PUSH1 0x0 PUSH1 0x20 DUP3 DUP5 SUB SLT ISZERO PUSH2 0xFD5 JUMPI PUSH1 0x0 DUP1 REVERT JUMPDEST DUP2 CALLDATALOAD PUSH2 0xFE0 DUP2 PUSH2 0xF7D JUMP JUMPDEST SWAP4 SWAP3 POP POP POP JUMP JUMPDEST PUSH1 0x0 PUSH1 0x20 DUP3 DUP5 SUB SLT ISZERO PUSH2 0xFF9 JUMPI PUSH1 0x0 DUP1 REVERT JUMPDEST DUP2 CALLDATALOAD PUSH2 0xFE0 DUP2 PUSH2 0xBC3 JUMP JUMPDEST PUSH1 0x20 DUP1 DUP3 MSTORE DUP3 MLOAD DUP3 DUP3 ADD DUP2 SWAP1 MSTORE PUSH1 0x0 SWAP2 SWAP1 DUP5 DUP3 ADD SWAP1 PUSH1 0x40 DUP6 ADD SWAP1 DUP5 JUMPDEST DUP2 DUP2 LT ISZERO PUSH2 0x1045 JUMPI DUP4 MLOAD PUSH1 0x1 PUSH1 0x1 PUSH1 0xA0 SHL SUB AND DUP4 MSTORE SWAP3 DUP5 ADD SWAP3 SWAP2 DUP5 ADD SWAP2 PUSH1 0x1 ADD PUSH2 0x1020 JUMP JUMPDEST POP SWAP1 SWAP7 SWAP6 POP POP POP POP POP POP JUMP JUMPDEST PUSH1 0x0 PUSH1 0x20 DUP1 DUP4 DUP6 SUB SLT ISZERO PUSH2 0x1064 JUMPI PUSH1 0x0 DUP1 REVERT JUMPDEST DUP3 MLOAD PUSH8 0xFFFFFFFFFFFFFFFF DUP2 GT ISZERO PUSH2 0x107B JUMPI PUSH1 0x0 DUP1 REVERT JUMPDEST DUP4 ADD PUSH1 0x1F DUP2 ADD DUP6 SGT PUSH2 0x108C JUMPI PUSH1 0x0 DUP1 REVERT JUMPDEST DUP1 MLOAD PUSH2 0x109A PUSH2 0xC83 DUP3 PUSH2 0xB9F JUMP JUMPDEST DUP2 DUP2 MSTORE PUSH1 0x5 SWAP2 SWAP1 SWAP2 SHL DUP3 ADD DUP4 ADD SWAP1 DUP4 DUP2 ADD SWAP1 DUP8 DUP4 GT ISZERO PUSH2 0x10B9 JUMPI PUSH1 0x0 DUP1 REVERT JUMPDEST SWAP3 DUP5 ADD SWAP3 JUMPDEST DUP3 DUP5 LT ISZERO PUSH2 0x10D7 JUMPI DUP4 MLOAD DUP3 MSTORE SWAP3 DUP5 ADD SWAP3 SWAP1 DUP5 ADD SWAP1 PUSH2 0x10BE JUMP JUMPDEST SWAP8 SWAP7 POP POP POP POP POP POP POP JUMP JUMPDEST PUSH4 0x4E487B71 PUSH1 0xE0 SHL PUSH1 0x0 MSTORE PUSH1 0x32 PUSH1 0x4 MSTORE PUSH1 0x24 PUSH1 0x0 REVERT JUMPDEST PUSH4 0x4E487B71 PUSH1 0xE0 SHL PUSH1 0x0 MSTORE PUSH1 0x11 PUSH1 0x4 MSTORE PUSH1 0x24 PUSH1 0x0 REVERT JUMPDEST PUSH1 0x0 PUSH1 0x0 NOT DUP3 EQ ISZERO PUSH2 0x1122 JUMPI PUSH2 0x1122 PUSH2 0x10F8 JUMP JUMPDEST POP PUSH1 0x1 ADD SWAP1 JUMP JUMPDEST PUSH1 0x0 PUSH1 0x20 DUP1 DUP4 MSTORE DUP4 MLOAD DUP1 DUP3 DUP6 ADD MSTORE PUSH1 0x0 JUMPDEST DUP2 DUP2 LT ISZERO PUSH2 0x1156 JUMPI DUP6 DUP2 ADD DUP4 ADD MLOAD DUP6 DUP3 ADD PUSH1 0x40 ADD MSTORE DUP3 ADD PUSH2 0x113A JUMP JUMPDEST DUP2 DUP2 GT ISZERO PUSH2 0x1168 JUMPI PUSH1 0x0 PUSH1 0x40 DUP4 DUP8 ADD ADD MSTORE JUMPDEST POP PUSH1 0x1F ADD PUSH1 0x1F NOT AND SWAP3 SWAP1 SWAP3 ADD PUSH1 0x40 ADD SWAP4 SWAP3 POP POP POP JUMP JUMPDEST PUSH4 0x4E487B71 PUSH1 0xE0 SHL PUSH1 0x0 MSTORE PUSH1 0x21 PUSH1 0x4 MSTORE PUSH1 0x24 PUSH1 0x0 REVERT JUMPDEST PUSH1 0x0 DUP3 NOT DUP3 GT ISZERO PUSH2 0x11A7 JUMPI PUSH2 0x11A7 PUSH2 0x10F8 JUMP JUMPDEST POP ADD SWAP1 JUMP JUMPDEST PUSH1 0x0 PUSH1 0x20 DUP3 DUP5 SUB SLT ISZERO PUSH2 0x11BE JUMPI PUSH1 0x0 DUP1 REVERT JUMPDEST DUP2 MLOAD PUSH2 0xFE0 DUP2 PUSH2 0xF7D JUMP JUMPDEST PUSH1 0x1 PUSH1 0x1 PUSH1 0xA0 SHL SUB DUP4 AND DUP2 MSTORE PUSH1 0x40 PUSH1 0x20 DUP1 DUP4 ADD DUP3 SWAP1 MSTORE DUP4 MLOAD SWAP2 DUP4 ADD DUP3 SWAP1 MSTORE PUSH1 0x0 SWAP2 DUP5 DUP3 ADD SWAP2 SWAP1 PUSH1 0x60 DUP6 ADD SWAP1 DUP5 JUMPDEST DUP2 DUP2 LT ISZERO PUSH2 0x1229 JUMPI DUP5 MLOAD DUP1 MLOAD PUSH1 0x1 PUSH1 0x1 PUSH1 0xA0 SHL SUB AND DUP5 MSTORE PUSH1 0x20 SWAP1 DUP2 ADD MLOAD SWAP1 DUP5 ADD MSTORE PUSH1 0x40 DUP4 ADD SWAP5 DUP5 ADD SWAP5 SWAP3 POP PUSH1 0x1 ADD PUSH2 0x11F6 JUMP JUMPDEST POP SWAP1 SWAP8 SWAP7 POP POP POP POP POP POP POP JUMP JUMPDEST PUSH1 0x0 PUSH1 0x20 DUP3 DUP5 SUB SLT ISZERO PUSH2 0x1248 JUMPI PUSH1 0x0 DUP1 REVERT JUMPDEST POP MLOAD SWAP2 SWAP1 POP JUMP JUMPDEST PUSH1 0x0 DUP3 DUP3 LT ISZERO PUSH2 0x1261 JUMPI PUSH2 0x1261 PUSH2 0x10F8 JUMP JUMPDEST POP SUB SWAP1 JUMP JUMPDEST PUSH1 0x0 DUP1 DUP4 SLT DUP1 ISZERO PUSH1 0x1 PUSH1 0xFF SHL DUP6 ADD DUP5 SLT AND ISZERO PUSH2 0x1284 JUMPI PUSH2 0x1284 PUSH2 0x10F8 JUMP JUMPDEST PUSH1 0x1 PUSH1 0x1 PUSH1 0xFF SHL SUB DUP5 ADD DUP4 SGT DUP2 AND ISZERO PUSH2 0x129F JUMPI PUSH2 0x129F PUSH2 0x10F8 JUMP JUMPDEST POP POP SUB SWAP1 JUMP JUMPDEST PUSH1 0x0 DUP3 PUSH2 0x12C2 JUMPI PUSH4 0x4E487B71 PUSH1 0xE0 SHL PUSH1 0x0 MSTORE PUSH1 0x12 PUSH1 0x4 MSTORE PUSH1 0x24 PUSH1 0x0 REVERT JUMPDEST PUSH1 0x1 PUSH1 0xFF SHL DUP3 EQ PUSH1 0x0 NOT DUP5 EQ AND ISZERO PUSH2 0x12DC JUMPI PUSH2 0x12DC PUSH2 0x10F8 JUMP JUMPDEST POP SDIV SWAP1 JUMP JUMPDEST PUSH1 0x0 DUP1 DUP3 SLT DUP1 ISZERO PUSH1 0x1 PUSH1 0x1 PUSH1 0xFF SHL SUB DUP5 SWAP1 SUB DUP6 SGT AND ISZERO PUSH2 0x1303 JUMPI PUSH2 0x1303 PUSH2 0x10F8 JUMP JUMPDEST PUSH1 0x1 PUSH1 0xFF SHL DUP4 SWAP1 SUB DUP5 SLT DUP2 AND ISZERO PUSH2 0x131C JUMPI PUSH2 0x131C PUSH2 0x10F8 JUMP JUMPDEST POP POP ADD SWAP1 JUMP JUMPDEST PUSH1 0x0 PUSH1 0x1 PUSH1 0x1 PUSH1 0xFF SHL SUB DUP3 EQ ISZERO PUSH2 0x1122 JUMPI PUSH2 0x1122 PUSH2 0x10F8 JUMP JUMPDEST PUSH1 0x0 PUSH1 0x1 PUSH1 0xFF SHL DUP3 EQ ISZERO PUSH2 0x1351 JUMPI PUSH2 0x1351 PUSH2 0x10F8 JUMP JUMPDEST POP PUSH1 0x0 NOT ADD SWAP1 JUMP INVALID LOG2 PUSH5 0x6970667358 0x22 SLT KECCAK256 PUSH29 0xF1A0232B1D0F9E0E311B4FA5A616298B3ECB66B6F0AB096FA7FA010550 SWAP6 ORIGIN PUSH5 0x736F6C6343 STOP ADDMOD EXP STOP CALLER ","sha1":"f84fcf98e569820c717f2dcf930bbeddff04dddd","source":"// SPDX-License-Identifier: UNLICENSED\npragma solidity ^0.8.4;\n\nimport \"../auth/Governable.sol\";\n\nimport \"../../libraries/DataTypes.sol\";\nimport \"../../libraries/Arrays.sol\";\nimport \"../../libraries/Vaults.sol\";\n\nimport \"../../interfaces/oracles/IUSDBatchPriceOracle.sol\";\nimport \"../../interfaces/oracles/IVaultPriceOracle.sol\";\nimport \"../../interfaces/oracles/IBatchVaultPriceOracle.sol\";\n\ncontract BatchVaultPriceOracle is IBatchVaultPriceOracle, Governable {\n    using Arrays for address[];\n\n    IUSDBatchPriceOracle public batchPriceOracle;\n\n    mapping(Vaults.Type => IVaultPriceOracle) public vaultPriceOracles;\n\n    constructor(IUSDBatchPriceOracle _batchPriceOracle) {\n        batchPriceOracle = _batchPriceOracle;\n    }\n\n    function registerVaultPriceOracle(Vaults.Type vaultType, IVaultPriceOracle priceOracle)\n        external\n        governanceOnly\n    {\n        vaultPriceOracles[vaultType] = priceOracle;\n        emit VaultPriceOracleChanged(vaultType, address(priceOracle));\n    }\n\n    function fetchPricesUSD(DataTypes.VaultInfo[] memory vaultsInfo)\n        external\n        view\n        returns (DataTypes.VaultInfo[] memory)\n    {\n        address[] memory tokens = _constructTokensArray(vaultsInfo);\n        uint256[] memory underlyingPrices = batchPriceOracle.getPricesUSD(tokens);\n\n        for (uint256 i = 0; i < vaultsInfo.length; i++) {\n            _assignUnderlyingTokenPrices(vaultsInfo[i], tokens, underlyingPrices);\n            vaultsInfo[i].price = _getVaultPrice(vaultsInfo[i]);\n        }\n\n        return vaultsInfo;\n    }\n\n    function _getVaultPrice(DataTypes.VaultInfo memory vaultInfo) internal view returns (uint256) {\n        IGyroVault vault = IGyroVault(vaultInfo.vault);\n        IVaultPriceOracle vaultPriceOracle = vaultPriceOracles[vault.vaultType()];\n        require(address(vaultPriceOracle) != address(0), Errors.ASSET_NOT_SUPPORTED);\n        return vaultPriceOracle.getPriceUSD(vault, vaultInfo.pricedTokens);\n    }\n\n    function _assignUnderlyingTokenPrices(\n        DataTypes.VaultInfo memory vaultInfo,\n        address[] memory tokens,\n        uint256[] memory underlyingPrices\n    ) internal pure {\n        for ((uint256 i, uint256 j) = (0, 0); i < vaultInfo.pricedTokens.length; i++) {\n            while (tokens[j] != vaultInfo.pricedTokens[i].tokenAddress) j++;\n            vaultInfo.pricedTokens[i].price = underlyingPrices[j];\n        }\n    }\n\n    function _constructTokensArray(DataTypes.VaultInfo[] memory vaultsInfo)\n        internal\n        view\n        returns (address[] memory)\n    {\n        uint256 tokensCount = 0;\n        for (uint256 i = 0; i < vaultsInfo.length; i++) {\n            tokensCount += vaultsInfo[i].pricedTokens.length;\n        }\n        address[] memory tokens = new address[](tokensCount);\n        for ((uint256 i, uint256 k) = (0, 0); i < vaultsInfo.length; i++) {\n            for (uint256 j = 0; j < vaultsInfo[i].pricedTokens.length; (j++, k++)) {\n                tokens[k] = vaultsInfo[i].pricedTokens[j].tokenAddress;\n            }\n        }\n        return tokens.sort().dedup();\n    }\n}\n","sourcePath":"contracts/oracles/BatchVaultPriceOracle.sol","type":"contract","deployment":{"address":"0xaC1CFF584dC11Abbf4444E789f0f78cdCF5559D7","chainid":"137","blockHeight":26856372}}