{"abi":[{"inputs":[{"internalType":"address","name":"_governor","type":"address"},{"internalType":"address","name":"_gyroConfig","type":"address"}],"stateMutability":"nonpayable","type":"constructor","name":"constructor"},{"anonymous":false,"inputs":[{"indexed":false,"internalType":"address","name":"newGovernor","type":"address"}],"name":"GovernorChangeRequested","type":"event"},{"anonymous":false,"inputs":[{"indexed":false,"internalType":"address","name":"oldGovernor","type":"address"},{"indexed":false,"internalType":"address","name":"newGovernor","type":"address"}],"name":"GovernorChanged","type":"event"},{"anonymous":false,"inputs":[],"name":"InitiativeCanceled","type":"event"},{"anonymous":false,"inputs":[{"indexed":false,"internalType":"uint256","name":"startTime","type":"uint256"},{"indexed":false,"internalType":"uint256","name":"rewardGYDAmount","type":"uint256"}],"name":"InitiativeCompleted","type":"event"},{"anonymous":false,"inputs":[{"indexed":false,"internalType":"uint256","name":"endTime","type":"uint256"},{"indexed":false,"internalType":"uint256","name":"minCollateralRatio","type":"uint256"},{"indexed":false,"internalType":"uint256","name":"rewardPercentage","type":"uint256"}],"name":"InitiativeStarted","type":"event"},{"inputs":[],"name":"acceptGovernance","outputs":[],"stateMutability":"nonpayable","type":"function"},{"inputs":[],"name":"activeInitiative","outputs":[{"internalType":"uint256","name":"startTime","type":"uint256"},{"internalType":"uint256","name":"endTime","type":"uint256"},{"internalType":"uint256","name":"minCollateralRatio","type":"uint256"},{"internalType":"uint256","name":"maxHealthViolations","type":"uint256"},{"internalType":"uint256","name":"rewardPercentage","type":"uint256"}],"stateMutability":"view","type":"function"},{"inputs":[],"name":"aggSupply","outputs":[{"internalType":"uint256","name":"lastUpdatedTime","type":"uint256"},{"internalType":"uint256","name":"aggSupply","type":"uint256"}],"stateMutability":"view","type":"function"},{"inputs":[],"name":"cancelInitiative","outputs":[],"stateMutability":"nonpayable","type":"function"},{"inputs":[{"internalType":"address","name":"newGovernor","type":"address"}],"name":"changeGovernor","outputs":[],"stateMutability":"nonpayable","type":"function"},{"inputs":[{"components":[{"internalType":"uint256","name":"totalUSDValue","type":"uint256"},{"components":[{"internalType":"address","name":"vault","type":"address"},{"internalType":"uint8","name":"decimals","type":"uint8"},{"internalType":"address","name":"underlying","type":"address"},{"internalType":"uint256","name":"price","type":"uint256"},{"components":[{"internalType":"uint256","name":"initialPrice","type":"uint256"},{"internalType":"uint256","name":"initialWeight","type":"uint256"},{"internalType":"uint256","name":"shortFlowMemory","type":"uint256"},{"internalType":"uint256","name":"shortFlowThreshold","type":"uint256"}],"internalType":"struct DataTypes.PersistedVaultMetadata","name":"persistedMetadata","type":"tuple"},{"internalType":"uint256","name":"reserveBalance","type":"uint256"},{"internalType":"uint256","name":"currentWeight","type":"uint256"},{"internalType":"uint256","name":"idealWeight","type":"uint256"},{"components":[{"internalType":"address","name":"tokenAddress","type":"address"},{"internalType":"bool","name":"isStable","type":"bool"},{"internalType":"uint256","name":"price","type":"uint256"}],"internalType":"struct DataTypes.PricedToken[]","name":"pricedTokens","type":"tuple[]"}],"internalType":"struct DataTypes.VaultInfo[]","name":"vaults","type":"tuple[]"}],"internalType":"struct DataTypes.ReserveState","name":"reserveState","type":"tuple"}],"name":"checkpoint","outputs":[],"stateMutability":"nonpayable","type":"function"},{"inputs":[],"name":"checkpoint","outputs":[],"stateMutability":"nonpayable","type":"function"},{"inputs":[],"name":"completeInitiative","outputs":[],"stateMutability":"nonpayable","type":"function"},{"inputs":[],"name":"governor","outputs":[{"internalType":"address","name":"","type":"address"}],"stateMutability":"view","type":"function"},{"inputs":[],"name":"gydToken","outputs":[{"internalType":"contract IGYDToken","name":"","type":"address"}],"stateMutability":"view","type":"function"},{"inputs":[],"name":"gyroConfig","outputs":[{"internalType":"contract IGyroConfig","name":"","type":"address"}],"stateMutability":"view","type":"function"},{"inputs":[],"name":"hasActiveInitiative","outputs":[{"internalType":"bool","name":"","type":"bool"}],"stateMutability":"view","type":"function"},{"inputs":[],"name":"hasFailed","outputs":[{"internalType":"bool","name":"","type":"bool"}],"stateMutability":"view","type":"function"},{"inputs":[],"name":"pendingGovernor","outputs":[{"internalType":"address","name":"","type":"address"}],"stateMutability":"view","type":"function"},{"inputs":[],"name":"reserveHealthViolations","outputs":[{"internalType":"uint256","name":"lastViolatedDate","type":"uint256"},{"internalType":"uint256","name":"nViolations","type":"uint256"}],"stateMutability":"view","type":"function"},{"inputs":[{"internalType":"uint256","name":"rewardPercentage","type":"uint256"}],"name":"startInitiative","outputs":[],"stateMutability":"nonpayable","type":"function"},{"inputs":[],"name":"tentativeRewards","outputs":[{"internalType":"uint256","name":"gydAmount","type":"uint256"}],"stateMutability":"view","type":"function"}],"bytecode":"60c06040523480156200001157600080fd5b5060405162001e9d38038062001e9d83398101604081905262000034916200016e565b600080546001600160a01b0319166001600160a01b038416908117825560408051928352602083019190915283917fde4b3f61490b74c0ed6237523974fe299126bbbf8a8a7482fd220104c59b0c84910160405180910390a1506001600160a01b0381166080819052620000b490620000c9602090811b62000efd17901c565b6001600160a01b031660a05250620001cb9050565b6040516321f8a72160e01b8152704759445f544f4b454e5f4144445245535360781b60048201526000906001600160a01b038316906321f8a72190602401602060405180830381865afa15801562000125573d6000803e3d6000fd5b505050506040513d601f19601f820116820180604052508101906200014b9190620001a6565b92915050565b80516001600160a01b03811681146200016957600080fd5b919050565b600080604083850312156200018257600080fd5b6200018d8362000151565b91506200019d6020840162000151565b90509250929050565b600060208284031215620001b957600080fd5b620001c48262000151565b9392505050565b60805160a051611c5862000245600039600081816102850152818161099e01528181610ffb0152611123015260008181610199015281816102ae015281816104e5015281816107670152818161079d015281816107d30152818161090601528181610ba701528181610cfa0152610d8b0152611c586000f3fe608060405234801561001057600080fd5b506004361061010b5760003560e01c8063708b1fed116100a2578063c2913c2d11610071578063c2913c2d1461023f578063c2c4c5c114610252578063e3056a341461025a578063e4c0aaf41461026d578063fbf600281461028057600080fd5b8063708b1fed146101ff57806390d0c7e614610217578063b44410c714610221578063c1fd43191461023757600080fd5b806344bbdb55116100de57806344bbdb55146101945780636c1a3364146101bb5780636c78ec1d146101de5780636e521181146101ec57600080fd5b806302358fb9146101105780630c340a241461011a5780632131662a1461014a578063238efcbc1461018c575b600080fd5b6101186102a7565b005b60005461012d906001600160a01b031681565b6040516001600160a01b0390911681526020015b60405180910390f35b600254600354600454600554600654610164949392919085565b604080519586526020860194909452928401919091526060830152608082015260a001610141565b6101186105b8565b61012d7f000000000000000000000000000000000000000000000000000000000000000081565b6007546008546101c9919082565b60408051928352602083019190915201610141565b600954600a546101c9919082565b6101186101fa36600461149f565b610668565b610207610b5f565b6040519015158152602001610141565b6003541515610207565b610229610b7b565b604051908152602001610141565b610118610c7f565b61011861024d3660046116f2565b610cf5565b610118610d84565b60015461012d906001600160a01b031681565b61011861027b36600461187f565b610e28565b61012d7f000000000000000000000000000000000000000000000000000000000000000081565b60006102db7f00000000000000000000000000000000000000000000000000000000000000006001600160a01b0316610f83565b6001600160a01b031663ef5bac256040518163ffffffff1660e01b8152600401600060405180830381865afa158015610318573d6000803e3d6000fd5b505050506040513d6000823e601f3d908101601f191682016040526103409190810190611996565b905061034b81610fd2565b6040805160a0810182526002548152600354602082018190526004549282019290925260055460608201526006546080820152906103c75760405162461bcd60e51b81526020600482015260146024820152736e6f2061637469766520696e697469617469766560601b60448201526064015b60405180910390fd5b428160200151111561041b5760405162461bcd60e51b815260206004820152601b60248201527f696e6974696174697665206e6f742079657420636f6d706c657465000000000060448201526064016103be565b606081015160085411156104875760405162461bcd60e51b815260206004820152602d60248201527f696e6974696174697665206661696c65643a20746f6f206d616e79206865616c60448201526c74682076696f6c6174696f6e7360981b60648201526084016103be565b600080610494848461111c565b91509150806104e05760405162461bcd60e51b8152602060048201526018602482015277636f6c6c61746572616c20726174696f20746f6f206c6f7760401b60448201526064016103be565b6105127f00000000000000000000000000000000000000000000000000000000000000006001600160a01b0316611294565b6001600160a01b031663900a043f836040518263ffffffff1660e01b815260040161053f91815260200190565b600060405180830381600087803b15801561055957600080fd5b505af115801561056d573d6000803e3d6000fd5b5050845160408051918252602082018690527f19f559240f66a084e92b410bb0ab37df63ac26eff3437796b6c9b2237a897b83935001905060405180910390a1505060006003555050565b600154604080518082019091526002815261033360f41b6020820152906001600160a01b031633146105fd5760405162461bcd60e51b81526004016103be9190611b10565b5060008054600180546001600160a01b03198084166001600160a01b03808416919091179095551690556040805192909116808352336020840152917fde4b3f61490b74c0ed6237523974fe299126bbbf8a8a7482fd220104c59b0c8491015b60405180910390a150565b600054604080518082019091526002815261033360f41b6020820152906001600160a01b031633146106ad5760405162461bcd60e51b81526004016103be9190611b10565b506706f05b59d3b200008111156107065760405162461bcd60e51b815260206004820152601a60248201527f7265776172642070657263656e7461676520746f6f206869676800000000000060448201526064016103be565b600354156107605760405162461bcd60e51b815260206004820152602160248201527f61637469766520696e697469617469766520616c72656164792070726573656e6044820152601d60fa1b60648201526084016103be565b60006107947f00000000000000000000000000000000000000000000000000000000000000006001600160a01b03166112d9565b905060006107ca7f00000000000000000000000000000000000000000000000000000000000000006001600160a01b031661135e565b905060006108007f00000000000000000000000000000000000000000000000000000000000000006001600160a01b03166113ad565b9050670de0b6b3a764000083101561085a5760405162461bcd60e51b815260206004820152601c60248201527f6d696e20636f6c6c61746572616c20726174696f20746f6f206c6f770000000060448201526064016103be565b600a8211156108ab5760405162461bcd60e51b815260206004820152601e60248201527f6d6178206865616c74682076696f6c6174696f6e7320746f6f2068696768000060448201526064016103be565b6301e133808110156108ff5760405162461bcd60e51b815260206004820152601c60248201527f696e63656e74697665206475726174696f6e20746f6f2073686f72740000000060448201526064016103be565b60006109337f00000000000000000000000000000000000000000000000000000000000000006001600160a01b0316610f83565b6001600160a01b031663ef5bac256040518163ffffffff1660e01b8152600401600060405180830381865afa158015610970573d6000803e3d6000fd5b505050506040513d6000823e601f3d908101601f191682016040526109989190810190611996565b905060007f00000000000000000000000000000000000000000000000000000000000000006001600160a01b03166318160ddd6040518163ffffffff1660e01b8152600401602060405180830381865afa1580156109fa573d6000803e3d6000fd5b505050506040513d601f19601f82011682018060405250810190610a1e9190611b5e565b8251909150600090610a3090836113fc565b905085811015610a7d5760405162461bcd60e51b8152602060048201526018602482015277636f6c6c61746572616c20726174696f20746f6f206c6f7760401b60448201526064016103be565b604080518082018252600080825260209182018190526007819055600881905582518084018452428082529083018290526009819055600a829055835160a08101909452808452909291820190610ad5908890611b8d565b815260208082018a905260408083018a905260609283018c905283516002558382015160038190558482015160048190558585015160055560808601516006819055835192835293820152908101919091529192507f5194ee1c849a5656c562ddb20a538f9f87cc2b99a28c40068c33622c2f5bfc09910160405180910390a15050505050505050565b60035460009015801590610b765750600554600854115b905090565b6003546000908103610b8d5750600090565b610b95610b5f565b15610ba05750600090565b6000610bd47f00000000000000000000000000000000000000000000000000000000000000006001600160a01b0316610f83565b6001600160a01b031663ef5bac256040518163ffffffff1660e01b8152600401600060405180830381865afa158015610c11573d6000803e3d6000fd5b505050506040513d6000823e601f3d908101601f19168201604052610c399190810190611996565b6040805160a081018252600254815260035460208201526004549181019190915260055460608201526006546080820152909150610c7890829061111c565b5092915050565b600054604080518082019091526002815261033360f41b6020820152906001600160a01b03163314610cc45760405162461bcd60e51b81526004016103be9190611b10565b50600060038190556040517f6341b91be4593568b9cc34eb0394f7a6dbf75728938805e9deadc2c63f966fc89190a1565b610d277f00000000000000000000000000000000000000000000000000000000000000006001600160a01b0316611294565b6001600160a01b0316336001600160a01b031614610d785760405162461bcd60e51b815260206004820152600e60248201526d1b9bdd08185d5d1a1bdc9a5e995960921b60448201526064016103be565b610d8181610fd2565b50565b6000610db87f00000000000000000000000000000000000000000000000000000000000000006001600160a01b0316610f83565b6001600160a01b031663ef5bac256040518163ffffffff1660e01b8152600401600060405180830381865afa158015610df5573d6000803e3d6000fd5b505050506040513d6000823e601f3d908101601f19168201604052610e1d9190810190611996565b9050610d8181610fd2565b600054604080518082019091526002815261033360f41b6020820152906001600160a01b03163314610e6d5760405162461bcd60e51b81526004016103be9190611b10565b50604080518082019091526002815261333160f01b60208201526001600160a01b038216610eae5760405162461bcd60e51b81526004016103be9190611b10565b50600180546001600160a01b0319166001600160a01b0383169081179091556040519081527f67235ba2e63c748a35b95c4f92a3bbc2a1389938170a5ce6c9add5d0b03a314a9060200161065d565b6040516321f8a72160e01b8152704759445f544f4b454e5f4144445245535360781b60048201526000906001600160a01b038316906321f8a721906024015b602060405180830381865afa158015610f59573d6000803e3d6000fd5b505050506040513d601f19601f82011682018060405250810190610f7d9190611ba0565b92915050565b6040516321f8a72160e01b81527f524553455256455f4d414e414745525f4144445245535300000000000000000060048201526000906001600160a01b038316906321f8a72190602401610f3c565b6003546000819003610fe2575050565b42600082821115610ff35782610ff5565b815b905060007f00000000000000000000000000000000000000000000000000000000000000006001600160a01b03166318160ddd6040518163ffffffff1660e01b8152600401602060405180830381865afa158015611057573d6000803e3d6000fd5b505050506040513d601f19601f8201168201806040525081019061107b9190611b5e565b600954909150819061108d9084611bbd565b6110979190611bd0565b600a80546000906110a9908490611b8d565b90915550506009829055838311156110c2575050505050565b84516000906110d190836113fc565b6004549091508110156111145760006110e94261146f565b9050806007600001541015611112576008805460009061110890611be7565b9091555060078190555b505b505050505050565b60008060007f00000000000000000000000000000000000000000000000000000000000000006001600160a01b03166318160ddd6040518163ffffffff1660e01b8152600401602060405180830381865afa15801561117f573d6000803e3d6000fd5b505050506040513d601f19601f820116820180604052508101906111a39190611b5e565b90506000846000015185602001516111bb9190611bbd565b90506000816009600101546111d09190611c00565b905060006111eb82886080015161147e90919063ffffffff16565b60408801518951919250600091611201916113fc565b90508085111561121c5760008096509650505050505061128d565b60006112288683611bbd565b905082975080881115611282576000611264611244838b611bbd565b61125e67016345785d8a0000670de0b6b3a7640000611b8d565b9061147e565b905088811061127457600061127e565b61127e818a611bbd565b9850505b506001955050505050505b9250929050565b6040516321f8a72160e01b8152724d4f54484552424f4152445f4144445245535360681b60048201526000906001600160a01b038316906321f8a72190602401610f3c565b60405163bd02d0f560e01b81527529aa22aba0a92229a424a82fa4a721afa6a4a72fa1a960511b60048201526000906001600160a01b0383169063bd02d0f5906024015b602060405180830381865afa15801561133a573d6000803e3d6000fd5b505050506040513d601f19601f82011682018060405250810190610f7d9190611b5e565b60405163bd02d0f560e01b81527f53544557415244534849505f494e435f4d41585f56494f4c4154494f4e53000060048201526000906001600160a01b0383169063bd02d0f59060240161131d565b60405163bd02d0f560e01b81527f53544557415244534849505f494e435f4455524154494f4e000000000000000060048201526000906001600160a01b0383169063bd02d0f59060240161131d565b604080518082019091526002815261323560f01b6020820152600090826114365760405162461bcd60e51b81526004016103be9190611b10565b508260000361144757506000610f7d565b600061145b670de0b6b3a764000085611bd0565b90506114678382611c00565b949350505050565b6000610f7d6201518083611c00565b60008061148b8385611bd0565b9050611467670de0b6b3a764000082611c00565b6000602082840312156114b157600080fd5b5035919050565b634e487b7160e01b600052604160045260246000fd5b6040516080810167ffffffffffffffff811182821017156114f1576114f16114b8565b60405290565b6040516060810167ffffffffffffffff811182821017156114f1576114f16114b8565b6040805190810167ffffffffffffffff811182821017156114f1576114f16114b8565b604051610120810167ffffffffffffffff811182821017156114f1576114f16114b8565b604051601f8201601f1916810167ffffffffffffffff8111828210171561158a5761158a6114b8565b604052919050565b600067ffffffffffffffff8211156115ac576115ac6114b8565b5060051b60200190565b6001600160a01b0381168114610d8157600080fd5b80356115d6816115b6565b919050565b60ff81168114610d8157600080fd5b80356115d6816115db565b60006080828403121561160757600080fd5b61160f6114ce565b90508135815260208201356020820152604082013560408201526060820135606082015292915050565b8015158114610d8157600080fd5b600082601f83011261165857600080fd5b8135602061166d61166883611592565b611561565b8281526060928302850182019282820191908785111561168c57600080fd5b8387015b858110156116e55781818a0312156116a85760008081fd5b6116b06114f7565b81356116bb816115b6565b8152818601356116ca81611639565b81870152604082810135908201528452928401928101611690565b5090979650505050505050565b6000602080838503121561170557600080fd5b823567ffffffffffffffff8082111561171d57600080fd5b908401906040828703121561173157600080fd5b61173961151a565b82358152838301358281111561174e57600080fd5b80840193505086601f84011261176357600080fd5b823561177161166882611592565b81815260059190911b8401850190858101908983111561179057600080fd5b8686015b8381101561186c578035868111156117ab57600080fd5b8701610180818d03601f19018113156117c357600080fd5b6117cb61153d565b6117d68b84016115cb565b81526117e4604084016115ea565b8b8201526117f4606084016115cb565b60408201526080830135606082015260a06118118f8286016115f5565b60808301526101208401359082015261014083013560c082015261016083013560e08201529082013590888211156118495760008081fd5b6118578e8c84860101611647565b61010082015285525050918701918701611794565b5095830195909552509695505050505050565b60006020828403121561189157600080fd5b813561189c816115b6565b9392505050565b80516115d6816115b6565b80516115d6816115db565b6000608082840312156118cb57600080fd5b6118d36114ce565b90508151815260208201516020820152604082015160408201526060820151606082015292915050565b600082601f83011261190e57600080fd5b8151602061191e61166883611592565b8281526060928302850182019282820191908785111561193d57600080fd5b8387015b858110156116e55781818a0312156119595760008081fd5b6119616114f7565b815161196c816115b6565b81528186015161197b81611639565b81870152604082810151908201528452928401928101611941565b600060208083850312156119a957600080fd5b825167ffffffffffffffff808211156119c157600080fd5b90840190604082870312156119d557600080fd5b6119dd61151a565b8251815283830151828111156119f257600080fd5b80840193505086601f840112611a0757600080fd5b8251611a1561166882611592565b81815260059190911b84018501908581019089831115611a3457600080fd5b8686015b8381101561186c57805186811115611a4f57600080fd5b8701610180818d03601f1901811315611a6757600080fd5b611a6f61153d565b611a7a8b84016118a3565b8152611a88604084016118ae565b8b820152611a98606084016118a3565b60408201526080830151606082015260a0611ab58f8286016118b9565b60808301526101208401519082015261014083015160c082015261016083015160e0820152908201519088821115611aed5760008081fd5b611afb8e8c848601016118fd565b61010082015285525050918701918701611a38565b600060208083528351808285015260005b81811015611b3d57858101830151858201604001528201611b21565b506000604082860101526040601f19601f8301168501019250505092915050565b600060208284031215611b7057600080fd5b5051919050565b634e487b7160e01b600052601160045260246000fd5b80820180821115610f7d57610f7d611b77565b600060208284031215611bb257600080fd5b815161189c816115b6565b81810381811115610f7d57610f7d611b77565b8082028115828204841417610f7d57610f7d611b77565b600060018201611bf957611bf9611b77565b5060010190565b600082611c1d57634e487b7160e01b600052601260045260246000fd5b50049056fea2646970667358221220f8eff98034ad582911f76aa60c96f527564db5d30670ef0e4c763a685d82d7f964736f6c63430008110033","bytecodeSha1":"f76116e776fcec002bd2addb6c1fe2dae58469c0","compiler":{"evm_version":"london","optimizer":{"enabled":true,"runs":200},"version":"0.8.17+commit.8df45f5f"},"contractName":"ReserveStewardshipIncentives","language":"Solidity","natspec":{"kind":"dev","methods":{"acceptGovernance()":{"notice":"Called by the pending governor to approve the change"},"cancelInitiative()":{"notice":"Cancel the active initiative without claming rewards"},"changeGovernor(address)":{"notice":"Changes the governor can only be called by the current governor"},"checkpoint((uint256,(address,uint8,address,uint256,(uint256,uint256,uint256,uint256),uint256,uint256,uint256,(address,bool,uint256)[])[]))":{"notice":"Variant of `checkpoint()` where the reserve state is passed in; only callable by Motherboard."},"checkpoint()":{"notice":"Update the internally tracked variables. Called internally but can also be called by anyone."},"completeInitiative()":{"notice":"Complete the active initiative and claim rewards. Rewards are sent to the governance treasury address. The initiative period must have passed while the reserve health conditions have held, and they must currently still hold. Callable by anyone."},"governor()":{"notice":"Returns the current governor"},"hasActiveInitiative()":{"notice":"Whether there is an active initiative."},"hasFailed()":{"notice":"Whether the initiative has already failed. This does *not* include any information based on the current state that would be included when `checkpoint()` is called. `false` if there is no active initiative."},"pendingGovernor()":{"notice":"Returns the pending governor"},"startInitiative(uint256)":{"notice":"Create new incentive initiative.","params":{"rewardPercentage":"Share of the average GYD supply over time that should be paid as a reward. How much *will* actually be paid will also depend on the system state when the incentive is completed."}},"tentativeRewards()":{"notice":"Rewards (in GYD) that the governance treasury would receive if the initiative had ended and `completeInitiative()` was called now."}},"version":1},"opcodes":"PUSH1 0x80 PUSH1 0x40 MSTORE CALLVALUE DUP1 ISZERO PUSH2 0x10 JUMPI PUSH1 0x0 DUP1 REVERT JUMPDEST POP PUSH1 0x4 CALLDATASIZE LT PUSH2 0x10B JUMPI PUSH1 0x0 CALLDATALOAD PUSH1 0xE0 SHR DUP1 PUSH4 0x708B1FED GT PUSH2 0xA2 JUMPI DUP1 PUSH4 0xC2913C2D GT PUSH2 0x71 JUMPI DUP1 PUSH4 0xC2913C2D EQ PUSH2 0x23F JUMPI DUP1 PUSH4 0xC2C4C5C1 EQ PUSH2 0x252 JUMPI DUP1 PUSH4 0xE3056A34 EQ PUSH2 0x25A JUMPI DUP1 PUSH4 0xE4C0AAF4 EQ PUSH2 0x26D JUMPI DUP1 PUSH4 0xFBF60028 EQ PUSH2 0x280 JUMPI PUSH1 0x0 DUP1 REVERT JUMPDEST DUP1 PUSH4 0x708B1FED EQ PUSH2 0x1FF JUMPI DUP1 PUSH4 0x90D0C7E6 EQ PUSH2 0x217 JUMPI DUP1 PUSH4 0xB44410C7 EQ PUSH2 0x221 JUMPI DUP1 PUSH4 0xC1FD4319 EQ PUSH2 0x237 JUMPI PUSH1 0x0 DUP1 REVERT JUMPDEST DUP1 PUSH4 0x44BBDB55 GT PUSH2 0xDE JUMPI DUP1 PUSH4 0x44BBDB55 EQ PUSH2 0x194 JUMPI DUP1 PUSH4 0x6C1A3364 EQ PUSH2 0x1BB JUMPI DUP1 PUSH4 0x6C78EC1D EQ PUSH2 0x1DE JUMPI DUP1 PUSH4 0x6E521181 EQ PUSH2 0x1EC JUMPI PUSH1 0x0 DUP1 REVERT JUMPDEST DUP1 PUSH4 0x2358FB9 EQ PUSH2 0x110 JUMPI DUP1 PUSH4 0xC340A24 EQ PUSH2 0x11A JUMPI DUP1 PUSH4 0x2131662A EQ PUSH2 0x14A JUMPI DUP1 PUSH4 0x238EFCBC EQ PUSH2 0x18C JUMPI JUMPDEST PUSH1 0x0 DUP1 REVERT JUMPDEST PUSH2 0x118 PUSH2 0x2A7 JUMP JUMPDEST STOP JUMPDEST PUSH1 0x0 SLOAD PUSH2 0x12D SWAP1 PUSH1 0x1 PUSH1 0x1 PUSH1 0xA0 SHL SUB AND DUP2 JUMP JUMPDEST PUSH1 0x40 MLOAD PUSH1 0x1 PUSH1 0x1 PUSH1 0xA0 SHL SUB SWAP1 SWAP2 AND DUP2 MSTORE PUSH1 0x20 ADD JUMPDEST PUSH1 0x40 MLOAD DUP1 SWAP2 SUB SWAP1 RETURN JUMPDEST PUSH1 0x2 SLOAD PUSH1 0x3 SLOAD PUSH1 0x4 SLOAD PUSH1 0x5 SLOAD PUSH1 0x6 SLOAD PUSH2 0x164 SWAP5 SWAP4 SWAP3 SWAP2 SWAP1 DUP6 JUMP JUMPDEST PUSH1 0x40 DUP1 MLOAD SWAP6 DUP7 MSTORE PUSH1 0x20 DUP7 ADD SWAP5 SWAP1 SWAP5 MSTORE SWAP3 DUP5 ADD SWAP2 SWAP1 SWAP2 MSTORE PUSH1 0x60 DUP4 ADD MSTORE PUSH1 0x80 DUP3 ADD MSTORE PUSH1 0xA0 ADD PUSH2 0x141 JUMP JUMPDEST PUSH2 0x118 PUSH2 0x5B8 JUMP JUMPDEST PUSH2 0x12D PUSH32 0x0 DUP2 JUMP JUMPDEST PUSH1 0x7 SLOAD PUSH1 0x8 SLOAD PUSH2 0x1C9 SWAP2 SWAP1 DUP3 JUMP JUMPDEST PUSH1 0x40 DUP1 MLOAD SWAP3 DUP4 MSTORE PUSH1 0x20 DUP4 ADD SWAP2 SWAP1 SWAP2 MSTORE ADD PUSH2 0x141 JUMP JUMPDEST PUSH1 0x9 SLOAD PUSH1 0xA SLOAD PUSH2 0x1C9 SWAP2 SWAP1 DUP3 JUMP JUMPDEST PUSH2 0x118 PUSH2 0x1FA CALLDATASIZE PUSH1 0x4 PUSH2 0x149F JUMP JUMPDEST PUSH2 0x668 JUMP JUMPDEST PUSH2 0x207 PUSH2 0xB5F JUMP JUMPDEST PUSH1 0x40 MLOAD SWAP1 ISZERO ISZERO DUP2 MSTORE PUSH1 0x20 ADD PUSH2 0x141 JUMP JUMPDEST PUSH1 0x3 SLOAD ISZERO ISZERO PUSH2 0x207 JUMP JUMPDEST PUSH2 0x229 PUSH2 0xB7B JUMP JUMPDEST PUSH1 0x40 MLOAD SWAP1 DUP2 MSTORE PUSH1 0x20 ADD PUSH2 0x141 JUMP JUMPDEST PUSH2 0x118 PUSH2 0xC7F JUMP JUMPDEST PUSH2 0x118 PUSH2 0x24D CALLDATASIZE PUSH1 0x4 PUSH2 0x16F2 JUMP JUMPDEST PUSH2 0xCF5 JUMP JUMPDEST PUSH2 0x118 PUSH2 0xD84 JUMP JUMPDEST PUSH1 0x1 SLOAD PUSH2 0x12D SWAP1 PUSH1 0x1 PUSH1 0x1 PUSH1 0xA0 SHL SUB AND DUP2 JUMP JUMPDEST PUSH2 0x118 PUSH2 0x27B CALLDATASIZE PUSH1 0x4 PUSH2 0x187F JUMP JUMPDEST PUSH2 0xE28 JUMP JUMPDEST PUSH2 0x12D PUSH32 0x0 DUP2 JUMP JUMPDEST PUSH1 0x0 PUSH2 0x2DB PUSH32 0x0 PUSH1 0x1 PUSH1 0x1 PUSH1 0xA0 SHL SUB AND PUSH2 0xF83 JUMP JUMPDEST PUSH1 0x1 PUSH1 0x1 PUSH1 0xA0 SHL SUB AND PUSH4 0xEF5BAC25 PUSH1 0x40 MLOAD DUP2 PUSH4 0xFFFFFFFF AND PUSH1 0xE0 SHL DUP2 MSTORE PUSH1 0x4 ADD PUSH1 0x0 PUSH1 0x40 MLOAD DUP1 DUP4 SUB DUP2 DUP7 GAS STATICCALL ISZERO DUP1 ISZERO PUSH2 0x318 JUMPI RETURNDATASIZE PUSH1 0x0 DUP1 RETURNDATACOPY RETURNDATASIZE PUSH1 0x0 REVERT JUMPDEST POP POP POP POP PUSH1 0x40 MLOAD RETURNDATASIZE PUSH1 0x0 DUP3 RETURNDATACOPY PUSH1 0x1F RETURNDATASIZE SWAP1 DUP2 ADD PUSH1 0x1F NOT AND DUP3 ADD PUSH1 0x40 MSTORE PUSH2 0x340 SWAP2 SWAP1 DUP2 ADD SWAP1 PUSH2 0x1996 JUMP JUMPDEST SWAP1 POP PUSH2 0x34B DUP2 PUSH2 0xFD2 JUMP JUMPDEST PUSH1 0x40 DUP1 MLOAD PUSH1 0xA0 DUP2 ADD DUP3 MSTORE PUSH1 0x2 SLOAD DUP2 MSTORE PUSH1 0x3 SLOAD PUSH1 0x20 DUP3 ADD DUP2 SWAP1 MSTORE PUSH1 0x4 SLOAD SWAP3 DUP3 ADD SWAP3 SWAP1 SWAP3 MSTORE PUSH1 0x5 SLOAD PUSH1 0x60 DUP3 ADD MSTORE PUSH1 0x6 SLOAD PUSH1 0x80 DUP3 ADD MSTORE SWAP1 PUSH2 0x3C7 JUMPI PUSH1 0x40 MLOAD PUSH3 0x461BCD PUSH1 0xE5 SHL DUP2 MSTORE PUSH1 0x20 PUSH1 0x4 DUP3 ADD MSTORE PUSH1 0x14 PUSH1 0x24 DUP3 ADD MSTORE PUSH20 0x6E6F2061637469766520696E6974696174697665 PUSH1 0x60 SHL PUSH1 0x44 DUP3 ADD MSTORE PUSH1 0x64 ADD JUMPDEST PUSH1 0x40 MLOAD DUP1 SWAP2 SUB SWAP1 REVERT JUMPDEST TIMESTAMP DUP2 PUSH1 0x20 ADD MLOAD GT ISZERO PUSH2 0x41B JUMPI PUSH1 0x40 MLOAD PUSH3 0x461BCD PUSH1 0xE5 SHL DUP2 MSTORE PUSH1 0x20 PUSH1 0x4 DUP3 ADD MSTORE PUSH1 0x1B PUSH1 0x24 DUP3 ADD MSTORE PUSH32 0x696E6974696174697665206E6F742079657420636F6D706C6574650000000000 PUSH1 0x44 DUP3 ADD MSTORE PUSH1 0x64 ADD PUSH2 0x3BE JUMP JUMPDEST PUSH1 0x60 DUP2 ADD MLOAD PUSH1 0x8 SLOAD GT ISZERO PUSH2 0x487 JUMPI PUSH1 0x40 MLOAD PUSH3 0x461BCD PUSH1 0xE5 SHL DUP2 MSTORE PUSH1 0x20 PUSH1 0x4 DUP3 ADD MSTORE PUSH1 0x2D PUSH1 0x24 DUP3 ADD MSTORE PUSH32 0x696E6974696174697665206661696C65643A20746F6F206D616E79206865616C PUSH1 0x44 DUP3 ADD MSTORE PUSH13 0x74682076696F6C6174696F6E73 PUSH1 0x98 SHL PUSH1 0x64 DUP3 ADD MSTORE PUSH1 0x84 ADD PUSH2 0x3BE JUMP JUMPDEST PUSH1 0x0 DUP1 PUSH2 0x494 DUP5 DUP5 PUSH2 0x111C JUMP JUMPDEST SWAP2 POP SWAP2 POP DUP1 PUSH2 0x4E0 JUMPI PUSH1 0x40 MLOAD PUSH3 0x461BCD PUSH1 0xE5 SHL DUP2 MSTORE PUSH1 0x20 PUSH1 0x4 DUP3 ADD MSTORE PUSH1 0x18 PUSH1 0x24 DUP3 ADD MSTORE PUSH24 0x636F6C6C61746572616C20726174696F20746F6F206C6F77 PUSH1 0x40 SHL PUSH1 0x44 DUP3 ADD MSTORE PUSH1 0x64 ADD PUSH2 0x3BE JUMP JUMPDEST PUSH2 0x512 PUSH32 0x0 PUSH1 0x1 PUSH1 0x1 PUSH1 0xA0 SHL SUB AND PUSH2 0x1294 JUMP JUMPDEST PUSH1 0x1 PUSH1 0x1 PUSH1 0xA0 SHL SUB AND PUSH4 0x900A043F DUP4 PUSH1 0x40 MLOAD DUP3 PUSH4 0xFFFFFFFF AND PUSH1 0xE0 SHL DUP2 MSTORE PUSH1 0x4 ADD PUSH2 0x53F SWAP2 DUP2 MSTORE PUSH1 0x20 ADD SWAP1 JUMP JUMPDEST PUSH1 0x0 PUSH1 0x40 MLOAD DUP1 DUP4 SUB DUP2 PUSH1 0x0 DUP8 DUP1 EXTCODESIZE ISZERO DUP1 ISZERO PUSH2 0x559 JUMPI PUSH1 0x0 DUP1 REVERT JUMPDEST POP GAS CALL ISZERO DUP1 ISZERO PUSH2 0x56D JUMPI RETURNDATASIZE PUSH1 0x0 DUP1 RETURNDATACOPY RETURNDATASIZE PUSH1 0x0 REVERT JUMPDEST POP POP DUP5 MLOAD PUSH1 0x40 DUP1 MLOAD SWAP2 DUP3 MSTORE PUSH1 0x20 DUP3 ADD DUP7 SWAP1 MSTORE PUSH32 0x19F559240F66A084E92B410BB0AB37DF63AC26EFF3437796B6C9B2237A897B83 SWAP4 POP ADD SWAP1 POP PUSH1 0x40 MLOAD DUP1 SWAP2 SUB SWAP1 LOG1 POP POP PUSH1 0x0 PUSH1 0x3 SSTORE POP POP JUMP JUMPDEST PUSH1 0x1 SLOAD PUSH1 0x40 DUP1 MLOAD DUP1 DUP3 ADD SWAP1 SWAP2 MSTORE PUSH1 0x2 DUP2 MSTORE PUSH2 0x333 PUSH1 0xF4 SHL PUSH1 0x20 DUP3 ADD MSTORE SWAP1 PUSH1 0x1 PUSH1 0x1 PUSH1 0xA0 SHL SUB AND CALLER EQ PUSH2 0x5FD JUMPI PUSH1 0x40 MLOAD PUSH3 0x461BCD PUSH1 0xE5 SHL DUP2 MSTORE PUSH1 0x4 ADD PUSH2 0x3BE SWAP2 SWAP1 PUSH2 0x1B10 JUMP JUMPDEST POP PUSH1 0x0 DUP1 SLOAD PUSH1 0x1 DUP1 SLOAD PUSH1 0x1 PUSH1 0x1 PUSH1 0xA0 SHL SUB NOT DUP1 DUP5 AND PUSH1 0x1 PUSH1 0x1 PUSH1 0xA0 SHL SUB DUP1 DUP5 AND SWAP2 SWAP1 SWAP2 OR SWAP1 SWAP6 SSTORE AND SWAP1 SSTORE PUSH1 0x40 DUP1 MLOAD SWAP3 SWAP1 SWAP2 AND DUP1 DUP4 MSTORE CALLER PUSH1 0x20 DUP5 ADD MSTORE SWAP2 PUSH32 0xDE4B3F61490B74C0ED6237523974FE299126BBBF8A8A7482FD220104C59B0C84 SWAP2 ADD JUMPDEST PUSH1 0x40 MLOAD DUP1 SWAP2 SUB SWAP1 LOG1 POP JUMP JUMPDEST PUSH1 0x0 SLOAD PUSH1 0x40 DUP1 MLOAD DUP1 DUP3 ADD SWAP1 SWAP2 MSTORE PUSH1 0x2 DUP2 MSTORE PUSH2 0x333 PUSH1 0xF4 SHL PUSH1 0x20 DUP3 ADD MSTORE SWAP1 PUSH1 0x1 PUSH1 0x1 PUSH1 0xA0 SHL SUB AND CALLER EQ PUSH2 0x6AD JUMPI PUSH1 0x40 MLOAD PUSH3 0x461BCD PUSH1 0xE5 SHL DUP2 MSTORE PUSH1 0x4 ADD PUSH2 0x3BE SWAP2 SWAP1 PUSH2 0x1B10 JUMP JUMPDEST POP PUSH8 0x6F05B59D3B20000 DUP2 GT ISZERO PUSH2 0x706 JUMPI PUSH1 0x40 MLOAD PUSH3 0x461BCD PUSH1 0xE5 SHL DUP2 MSTORE PUSH1 0x20 PUSH1 0x4 DUP3 ADD MSTORE PUSH1 0x1A PUSH1 0x24 DUP3 ADD MSTORE PUSH32 0x7265776172642070657263656E7461676520746F6F2068696768000000000000 PUSH1 0x44 DUP3 ADD MSTORE PUSH1 0x64 ADD PUSH2 0x3BE JUMP JUMPDEST PUSH1 0x3 SLOAD ISZERO PUSH2 0x760 JUMPI PUSH1 0x40 MLOAD PUSH3 0x461BCD PUSH1 0xE5 SHL DUP2 MSTORE PUSH1 0x20 PUSH1 0x4 DUP3 ADD MSTORE PUSH1 0x21 PUSH1 0x24 DUP3 ADD MSTORE PUSH32 0x61637469766520696E697469617469766520616C72656164792070726573656E PUSH1 0x44 DUP3 ADD MSTORE PUSH1 0x1D PUSH1 0xFA SHL PUSH1 0x64 DUP3 ADD MSTORE PUSH1 0x84 ADD PUSH2 0x3BE JUMP JUMPDEST PUSH1 0x0 PUSH2 0x794 PUSH32 0x0 PUSH1 0x1 PUSH1 0x1 PUSH1 0xA0 SHL SUB AND PUSH2 0x12D9 JUMP JUMPDEST SWAP1 POP PUSH1 0x0 PUSH2 0x7CA PUSH32 0x0 PUSH1 0x1 PUSH1 0x1 PUSH1 0xA0 SHL SUB AND PUSH2 0x135E JUMP JUMPDEST SWAP1 POP PUSH1 0x0 PUSH2 0x800 PUSH32 0x0 PUSH1 0x1 PUSH1 0x1 PUSH1 0xA0 SHL SUB AND PUSH2 0x13AD JUMP JUMPDEST SWAP1 POP PUSH8 0xDE0B6B3A7640000 DUP4 LT ISZERO PUSH2 0x85A JUMPI PUSH1 0x40 MLOAD PUSH3 0x461BCD PUSH1 0xE5 SHL DUP2 MSTORE PUSH1 0x20 PUSH1 0x4 DUP3 ADD MSTORE PUSH1 0x1C PUSH1 0x24 DUP3 ADD MSTORE PUSH32 0x6D696E20636F6C6C61746572616C20726174696F20746F6F206C6F7700000000 PUSH1 0x44 DUP3 ADD MSTORE PUSH1 0x64 ADD PUSH2 0x3BE JUMP JUMPDEST PUSH1 0xA DUP3 GT ISZERO PUSH2 0x8AB JUMPI PUSH1 0x40 MLOAD PUSH3 0x461BCD PUSH1 0xE5 SHL DUP2 MSTORE PUSH1 0x20 PUSH1 0x4 DUP3 ADD MSTORE PUSH1 0x1E PUSH1 0x24 DUP3 ADD MSTORE PUSH32 0x6D6178206865616C74682076696F6C6174696F6E7320746F6F20686967680000 PUSH1 0x44 DUP3 ADD MSTORE PUSH1 0x64 ADD PUSH2 0x3BE JUMP JUMPDEST PUSH4 0x1E13380 DUP2 LT ISZERO PUSH2 0x8FF JUMPI PUSH1 0x40 MLOAD PUSH3 0x461BCD PUSH1 0xE5 SHL DUP2 MSTORE PUSH1 0x20 PUSH1 0x4 DUP3 ADD MSTORE PUSH1 0x1C PUSH1 0x24 DUP3 ADD MSTORE PUSH32 0x696E63656E74697665206475726174696F6E20746F6F2073686F727400000000 PUSH1 0x44 DUP3 ADD MSTORE PUSH1 0x64 ADD PUSH2 0x3BE JUMP JUMPDEST PUSH1 0x0 PUSH2 0x933 PUSH32 0x0 PUSH1 0x1 PUSH1 0x1 PUSH1 0xA0 SHL SUB AND PUSH2 0xF83 JUMP JUMPDEST PUSH1 0x1 PUSH1 0x1 PUSH1 0xA0 SHL SUB AND PUSH4 0xEF5BAC25 PUSH1 0x40 MLOAD DUP2 PUSH4 0xFFFFFFFF AND PUSH1 0xE0 SHL DUP2 MSTORE PUSH1 0x4 ADD PUSH1 0x0 PUSH1 0x40 MLOAD DUP1 DUP4 SUB DUP2 DUP7 GAS STATICCALL ISZERO DUP1 ISZERO PUSH2 0x970 JUMPI RETURNDATASIZE PUSH1 0x0 DUP1 RETURNDATACOPY RETURNDATASIZE PUSH1 0x0 REVERT JUMPDEST POP POP POP POP PUSH1 0x40 MLOAD RETURNDATASIZE PUSH1 0x0 DUP3 RETURNDATACOPY PUSH1 0x1F RETURNDATASIZE SWAP1 DUP2 ADD PUSH1 0x1F NOT AND DUP3 ADD PUSH1 0x40 MSTORE PUSH2 0x998 SWAP2 SWAP1 DUP2 ADD SWAP1 PUSH2 0x1996 JUMP JUMPDEST SWAP1 POP PUSH1 0x0 PUSH32 0x0 PUSH1 0x1 PUSH1 0x1 PUSH1 0xA0 SHL SUB AND PUSH4 0x18160DDD PUSH1 0x40 MLOAD DUP2 PUSH4 0xFFFFFFFF AND PUSH1 0xE0 SHL DUP2 MSTORE PUSH1 0x4 ADD PUSH1 0x20 PUSH1 0x40 MLOAD DUP1 DUP4 SUB DUP2 DUP7 GAS STATICCALL ISZERO DUP1 ISZERO PUSH2 0x9FA JUMPI RETURNDATASIZE PUSH1 0x0 DUP1 RETURNDATACOPY RETURNDATASIZE PUSH1 0x0 REVERT JUMPDEST POP POP POP POP PUSH1 0x40 MLOAD RETURNDATASIZE PUSH1 0x1F NOT PUSH1 0x1F DUP3 ADD AND DUP3 ADD DUP1 PUSH1 0x40 MSTORE POP DUP2 ADD SWAP1 PUSH2 0xA1E SWAP2 SWAP1 PUSH2 0x1B5E JUMP JUMPDEST DUP3 MLOAD SWAP1 SWAP2 POP PUSH1 0x0 SWAP1 PUSH2 0xA30 SWAP1 DUP4 PUSH2 0x13FC JUMP JUMPDEST SWAP1 POP DUP6 DUP2 LT ISZERO PUSH2 0xA7D JUMPI PUSH1 0x40 MLOAD PUSH3 0x461BCD PUSH1 0xE5 SHL DUP2 MSTORE PUSH1 0x20 PUSH1 0x4 DUP3 ADD MSTORE PUSH1 0x18 PUSH1 0x24 DUP3 ADD MSTORE PUSH24 0x636F6C6C61746572616C20726174696F20746F6F206C6F77 PUSH1 0x40 SHL PUSH1 0x44 DUP3 ADD MSTORE PUSH1 0x64 ADD PUSH2 0x3BE JUMP JUMPDEST PUSH1 0x40 DUP1 MLOAD DUP1 DUP3 ADD DUP3 MSTORE PUSH1 0x0 DUP1 DUP3 MSTORE PUSH1 0x20 SWAP2 DUP3 ADD DUP2 SWAP1 MSTORE PUSH1 0x7 DUP2 SWAP1 SSTORE PUSH1 0x8 DUP2 SWAP1 SSTORE DUP3 MLOAD DUP1 DUP5 ADD DUP5 MSTORE TIMESTAMP DUP1 DUP3 MSTORE SWAP1 DUP4 ADD DUP3 SWAP1 MSTORE PUSH1 0x9 DUP2 SWAP1 SSTORE PUSH1 0xA DUP3 SWAP1 SSTORE DUP4 MLOAD PUSH1 0xA0 DUP2 ADD SWAP1 SWAP5 MSTORE DUP1 DUP5 MSTORE SWAP1 SWAP3 SWAP2 DUP3 ADD SWAP1 PUSH2 0xAD5 SWAP1 DUP9 SWAP1 PUSH2 0x1B8D JUMP JUMPDEST DUP2 MSTORE PUSH1 0x20 DUP1 DUP3 ADD DUP11 SWAP1 MSTORE PUSH1 0x40 DUP1 DUP4 ADD DUP11 SWAP1 MSTORE PUSH1 0x60 SWAP3 DUP4 ADD DUP13 SWAP1 MSTORE DUP4 MLOAD PUSH1 0x2 SSTORE DUP4 DUP3 ADD MLOAD PUSH1 0x3 DUP2 SWAP1 SSTORE DUP5 DUP3 ADD MLOAD PUSH1 0x4 DUP2 SWAP1 SSTORE DUP6 DUP6 ADD MLOAD PUSH1 0x5 SSTORE PUSH1 0x80 DUP7 ADD MLOAD PUSH1 0x6 DUP2 SWAP1 SSTORE DUP4 MLOAD SWAP3 DUP4 MSTORE SWAP4 DUP3 ADD MSTORE SWAP1 DUP2 ADD SWAP2 SWAP1 SWAP2 MSTORE SWAP2 SWAP3 POP PUSH32 0x5194EE1C849A5656C562DDB20A538F9F87CC2B99A28C40068C33622C2F5BFC09 SWAP2 ADD PUSH1 0x40 MLOAD DUP1 SWAP2 SUB SWAP1 LOG1 POP POP POP POP POP POP POP POP JUMP JUMPDEST PUSH1 0x3 SLOAD PUSH1 0x0 SWAP1 ISZERO DUP1 ISZERO SWAP1 PUSH2 0xB76 JUMPI POP PUSH1 0x5 SLOAD PUSH1 0x8 SLOAD GT JUMPDEST SWAP1 POP SWAP1 JUMP JUMPDEST PUSH1 0x3 SLOAD PUSH1 0x0 SWAP1 DUP2 SUB PUSH2 0xB8D JUMPI POP PUSH1 0x0 SWAP1 JUMP JUMPDEST PUSH2 0xB95 PUSH2 0xB5F JUMP JUMPDEST ISZERO PUSH2 0xBA0 JUMPI POP PUSH1 0x0 SWAP1 JUMP JUMPDEST PUSH1 0x0 PUSH2 0xBD4 PUSH32 0x0 PUSH1 0x1 PUSH1 0x1 PUSH1 0xA0 SHL SUB AND PUSH2 0xF83 JUMP JUMPDEST PUSH1 0x1 PUSH1 0x1 PUSH1 0xA0 SHL SUB AND PUSH4 0xEF5BAC25 PUSH1 0x40 MLOAD DUP2 PUSH4 0xFFFFFFFF AND PUSH1 0xE0 SHL DUP2 MSTORE PUSH1 0x4 ADD PUSH1 0x0 PUSH1 0x40 MLOAD DUP1 DUP4 SUB DUP2 DUP7 GAS STATICCALL ISZERO DUP1 ISZERO PUSH2 0xC11 JUMPI RETURNDATASIZE PUSH1 0x0 DUP1 RETURNDATACOPY RETURNDATASIZE PUSH1 0x0 REVERT JUMPDEST POP POP POP POP PUSH1 0x40 MLOAD RETURNDATASIZE PUSH1 0x0 DUP3 RETURNDATACOPY PUSH1 0x1F RETURNDATASIZE SWAP1 DUP2 ADD PUSH1 0x1F NOT AND DUP3 ADD PUSH1 0x40 MSTORE PUSH2 0xC39 SWAP2 SWAP1 DUP2 ADD SWAP1 PUSH2 0x1996 JUMP JUMPDEST PUSH1 0x40 DUP1 MLOAD PUSH1 0xA0 DUP2 ADD DUP3 MSTORE PUSH1 0x2 SLOAD DUP2 MSTORE PUSH1 0x3 SLOAD PUSH1 0x20 DUP3 ADD MSTORE PUSH1 0x4 SLOAD SWAP2 DUP2 ADD SWAP2 SWAP1 SWAP2 MSTORE PUSH1 0x5 SLOAD PUSH1 0x60 DUP3 ADD MSTORE PUSH1 0x6 SLOAD PUSH1 0x80 DUP3 ADD MSTORE SWAP1 SWAP2 POP PUSH2 0xC78 SWAP1 DUP3 SWAP1 PUSH2 0x111C JUMP JUMPDEST POP SWAP3 SWAP2 POP POP JUMP JUMPDEST PUSH1 0x0 SLOAD PUSH1 0x40 DUP1 MLOAD DUP1 DUP3 ADD SWAP1 SWAP2 MSTORE PUSH1 0x2 DUP2 MSTORE PUSH2 0x333 PUSH1 0xF4 SHL PUSH1 0x20 DUP3 ADD MSTORE SWAP1 PUSH1 0x1 PUSH1 0x1 PUSH1 0xA0 SHL SUB AND CALLER EQ PUSH2 0xCC4 JUMPI PUSH1 0x40 MLOAD PUSH3 0x461BCD PUSH1 0xE5 SHL DUP2 MSTORE PUSH1 0x4 ADD PUSH2 0x3BE SWAP2 SWAP1 PUSH2 0x1B10 JUMP JUMPDEST POP PUSH1 0x0 PUSH1 0x3 DUP2 SWAP1 SSTORE PUSH1 0x40 MLOAD PUSH32 0x6341B91BE4593568B9CC34EB0394F7A6DBF75728938805E9DEADC2C63F966FC8 SWAP2 SWAP1 LOG1 JUMP JUMPDEST PUSH2 0xD27 PUSH32 0x0 PUSH1 0x1 PUSH1 0x1 PUSH1 0xA0 SHL SUB AND PUSH2 0x1294 JUMP JUMPDEST PUSH1 0x1 PUSH1 0x1 PUSH1 0xA0 SHL SUB AND CALLER PUSH1 0x1 PUSH1 0x1 PUSH1 0xA0 SHL SUB AND EQ PUSH2 0xD78 JUMPI PUSH1 0x40 MLOAD PUSH3 0x461BCD PUSH1 0xE5 SHL DUP2 MSTORE PUSH1 0x20 PUSH1 0x4 DUP3 ADD MSTORE PUSH1 0xE PUSH1 0x24 DUP3 ADD MSTORE PUSH14 0x1B9BDD08185D5D1A1BDC9A5E9959 PUSH1 0x92 SHL PUSH1 0x44 DUP3 ADD MSTORE PUSH1 0x64 ADD PUSH2 0x3BE JUMP JUMPDEST PUSH2 0xD81 DUP2 PUSH2 0xFD2 JUMP JUMPDEST POP JUMP JUMPDEST PUSH1 0x0 PUSH2 0xDB8 PUSH32 0x0 PUSH1 0x1 PUSH1 0x1 PUSH1 0xA0 SHL SUB AND PUSH2 0xF83 JUMP JUMPDEST PUSH1 0x1 PUSH1 0x1 PUSH1 0xA0 SHL SUB AND PUSH4 0xEF5BAC25 PUSH1 0x40 MLOAD DUP2 PUSH4 0xFFFFFFFF AND PUSH1 0xE0 SHL DUP2 MSTORE PUSH1 0x4 ADD PUSH1 0x0 PUSH1 0x40 MLOAD DUP1 DUP4 SUB DUP2 DUP7 GAS STATICCALL ISZERO DUP1 ISZERO PUSH2 0xDF5 JUMPI RETURNDATASIZE PUSH1 0x0 DUP1 RETURNDATACOPY RETURNDATASIZE PUSH1 0x0 REVERT JUMPDEST POP POP POP POP PUSH1 0x40 MLOAD RETURNDATASIZE PUSH1 0x0 DUP3 RETURNDATACOPY PUSH1 0x1F RETURNDATASIZE SWAP1 DUP2 ADD PUSH1 0x1F NOT AND DUP3 ADD PUSH1 0x40 MSTORE PUSH2 0xE1D SWAP2 SWAP1 DUP2 ADD SWAP1 PUSH2 0x1996 JUMP JUMPDEST SWAP1 POP PUSH2 0xD81 DUP2 PUSH2 0xFD2 JUMP JUMPDEST PUSH1 0x0 SLOAD PUSH1 0x40 DUP1 MLOAD DUP1 DUP3 ADD SWAP1 SWAP2 MSTORE PUSH1 0x2 DUP2 MSTORE PUSH2 0x333 PUSH1 0xF4 SHL PUSH1 0x20 DUP3 ADD MSTORE SWAP1 PUSH1 0x1 PUSH1 0x1 PUSH1 0xA0 SHL SUB AND CALLER EQ PUSH2 0xE6D JUMPI PUSH1 0x40 MLOAD PUSH3 0x461BCD PUSH1 0xE5 SHL DUP2 MSTORE PUSH1 0x4 ADD PUSH2 0x3BE SWAP2 SWAP1 PUSH2 0x1B10 JUMP JUMPDEST POP PUSH1 0x40 DUP1 MLOAD DUP1 DUP3 ADD SWAP1 SWAP2 MSTORE PUSH1 0x2 DUP2 MSTORE PUSH2 0x3331 PUSH1 0xF0 SHL PUSH1 0x20 DUP3 ADD MSTORE PUSH1 0x1 PUSH1 0x1 PUSH1 0xA0 SHL SUB DUP3 AND PUSH2 0xEAE JUMPI PUSH1 0x40 MLOAD PUSH3 0x461BCD PUSH1 0xE5 SHL DUP2 MSTORE PUSH1 0x4 ADD PUSH2 0x3BE SWAP2 SWAP1 PUSH2 0x1B10 JUMP JUMPDEST POP PUSH1 0x1 DUP1 SLOAD PUSH1 0x1 PUSH1 0x1 PUSH1 0xA0 SHL SUB NOT AND PUSH1 0x1 PUSH1 0x1 PUSH1 0xA0 SHL SUB DUP4 AND SWAP1 DUP2 OR SWAP1 SWAP2 SSTORE PUSH1 0x40 MLOAD SWAP1 DUP2 MSTORE PUSH32 0x67235BA2E63C748A35B95C4F92A3BBC2A1389938170A5CE6C9ADD5D0B03A314A SWAP1 PUSH1 0x20 ADD PUSH2 0x65D JUMP JUMPDEST PUSH1 0x40 MLOAD PUSH4 0x21F8A721 PUSH1 0xE0 SHL DUP2 MSTORE PUSH17 0x4759445F544F4B454E5F41444452455353 PUSH1 0x78 SHL PUSH1 0x4 DUP3 ADD MSTORE PUSH1 0x0 SWAP1 PUSH1 0x1 PUSH1 0x1 PUSH1 0xA0 SHL SUB DUP4 AND SWAP1 PUSH4 0x21F8A721 SWAP1 PUSH1 0x24 ADD JUMPDEST PUSH1 0x20 PUSH1 0x40 MLOAD DUP1 DUP4 SUB DUP2 DUP7 GAS STATICCALL ISZERO DUP1 ISZERO PUSH2 0xF59 JUMPI RETURNDATASIZE PUSH1 0x0 DUP1 RETURNDATACOPY RETURNDATASIZE PUSH1 0x0 REVERT JUMPDEST POP POP POP POP PUSH1 0x40 MLOAD RETURNDATASIZE PUSH1 0x1F NOT PUSH1 0x1F DUP3 ADD AND DUP3 ADD DUP1 PUSH1 0x40 MSTORE POP DUP2 ADD SWAP1 PUSH2 0xF7D SWAP2 SWAP1 PUSH2 0x1BA0 JUMP JUMPDEST SWAP3 SWAP2 POP POP JUMP JUMPDEST PUSH1 0x40 MLOAD PUSH4 0x21F8A721 PUSH1 0xE0 SHL DUP2 MSTORE PUSH32 0x524553455256455F4D414E414745525F41444452455353000000000000000000 PUSH1 0x4 DUP3 ADD MSTORE PUSH1 0x0 SWAP1 PUSH1 0x1 PUSH1 0x1 PUSH1 0xA0 SHL SUB DUP4 AND SWAP1 PUSH4 0x21F8A721 SWAP1 PUSH1 0x24 ADD PUSH2 0xF3C JUMP JUMPDEST PUSH1 0x3 SLOAD PUSH1 0x0 DUP2 SWAP1 SUB PUSH2 0xFE2 JUMPI POP POP JUMP JUMPDEST TIMESTAMP PUSH1 0x0 DUP3 DUP3 GT ISZERO PUSH2 0xFF3 JUMPI DUP3 PUSH2 0xFF5 JUMP JUMPDEST DUP2 JUMPDEST SWAP1 POP PUSH1 0x0 PUSH32 0x0 PUSH1 0x1 PUSH1 0x1 PUSH1 0xA0 SHL SUB AND PUSH4 0x18160DDD PUSH1 0x40 MLOAD DUP2 PUSH4 0xFFFFFFFF AND PUSH1 0xE0 SHL DUP2 MSTORE PUSH1 0x4 ADD PUSH1 0x20 PUSH1 0x40 MLOAD DUP1 DUP4 SUB DUP2 DUP7 GAS STATICCALL ISZERO DUP1 ISZERO PUSH2 0x1057 JUMPI RETURNDATASIZE PUSH1 0x0 DUP1 RETURNDATACOPY RETURNDATASIZE PUSH1 0x0 REVERT JUMPDEST POP POP POP POP PUSH1 0x40 MLOAD RETURNDATASIZE PUSH1 0x1F NOT PUSH1 0x1F DUP3 ADD AND DUP3 ADD DUP1 PUSH1 0x40 MSTORE POP DUP2 ADD SWAP1 PUSH2 0x107B SWAP2 SWAP1 PUSH2 0x1B5E JUMP JUMPDEST PUSH1 0x9 SLOAD SWAP1 SWAP2 POP DUP2 SWAP1 PUSH2 0x108D SWAP1 DUP5 PUSH2 0x1BBD JUMP JUMPDEST PUSH2 0x1097 SWAP2 SWAP1 PUSH2 0x1BD0 JUMP JUMPDEST PUSH1 0xA DUP1 SLOAD PUSH1 0x0 SWAP1 PUSH2 0x10A9 SWAP1 DUP5 SWAP1 PUSH2 0x1B8D JUMP JUMPDEST SWAP1 SWAP2 SSTORE POP POP PUSH1 0x9 DUP3 SWAP1 SSTORE DUP4 DUP4 GT ISZERO PUSH2 0x10C2 JUMPI POP POP POP POP POP JUMP JUMPDEST DUP5 MLOAD PUSH1 0x0 SWAP1 PUSH2 0x10D1 SWAP1 DUP4 PUSH2 0x13FC JUMP JUMPDEST PUSH1 0x4 SLOAD SWAP1 SWAP2 POP DUP2 LT ISZERO PUSH2 0x1114 JUMPI PUSH1 0x0 PUSH2 0x10E9 TIMESTAMP PUSH2 0x146F JUMP JUMPDEST SWAP1 POP DUP1 PUSH1 0x7 PUSH1 0x0 ADD SLOAD LT ISZERO PUSH2 0x1112 JUMPI PUSH1 0x8 DUP1 SLOAD PUSH1 0x0 SWAP1 PUSH2 0x1108 SWAP1 PUSH2 0x1BE7 JUMP JUMPDEST SWAP1 SWAP2 SSTORE POP PUSH1 0x7 DUP2 SWAP1 SSTORE JUMPDEST POP JUMPDEST POP POP POP POP POP POP JUMP JUMPDEST PUSH1 0x0 DUP1 PUSH1 0x0 PUSH32 0x0 PUSH1 0x1 PUSH1 0x1 PUSH1 0xA0 SHL SUB AND PUSH4 0x18160DDD PUSH1 0x40 MLOAD DUP2 PUSH4 0xFFFFFFFF AND PUSH1 0xE0 SHL DUP2 MSTORE PUSH1 0x4 ADD PUSH1 0x20 PUSH1 0x40 MLOAD DUP1 DUP4 SUB DUP2 DUP7 GAS STATICCALL ISZERO DUP1 ISZERO PUSH2 0x117F JUMPI RETURNDATASIZE PUSH1 0x0 DUP1 RETURNDATACOPY RETURNDATASIZE PUSH1 0x0 REVERT JUMPDEST POP POP POP POP PUSH1 0x40 MLOAD RETURNDATASIZE PUSH1 0x1F NOT PUSH1 0x1F DUP3 ADD AND DUP3 ADD DUP1 PUSH1 0x40 MSTORE POP DUP2 ADD SWAP1 PUSH2 0x11A3 SWAP2 SWAP1 PUSH2 0x1B5E JUMP JUMPDEST SWAP1 POP PUSH1 0x0 DUP5 PUSH1 0x0 ADD MLOAD DUP6 PUSH1 0x20 ADD MLOAD PUSH2 0x11BB SWAP2 SWAP1 PUSH2 0x1BBD JUMP JUMPDEST SWAP1 POP PUSH1 0x0 DUP2 PUSH1 0x9 PUSH1 0x1 ADD SLOAD PUSH2 0x11D0 SWAP2 SWAP1 PUSH2 0x1C00 JUMP JUMPDEST SWAP1 POP PUSH1 0x0 PUSH2 0x11EB DUP3 DUP9 PUSH1 0x80 ADD MLOAD PUSH2 0x147E SWAP1 SWAP2 SWAP1 PUSH4 0xFFFFFFFF AND JUMP JUMPDEST PUSH1 0x40 DUP9 ADD MLOAD DUP10 MLOAD SWAP2 SWAP3 POP PUSH1 0x0 SWAP2 PUSH2 0x1201 SWAP2 PUSH2 0x13FC JUMP JUMPDEST SWAP1 POP DUP1 DUP6 GT ISZERO PUSH2 0x121C JUMPI PUSH1 0x0 DUP1 SWAP7 POP SWAP7 POP POP POP POP POP POP PUSH2 0x128D JUMP JUMPDEST PUSH1 0x0 PUSH2 0x1228 DUP7 DUP4 PUSH2 0x1BBD JUMP JUMPDEST SWAP1 POP DUP3 SWAP8 POP DUP1 DUP9 GT ISZERO PUSH2 0x1282 JUMPI PUSH1 0x0 PUSH2 0x1264 PUSH2 0x1244 DUP4 DUP12 PUSH2 0x1BBD JUMP JUMPDEST PUSH2 0x125E PUSH8 0x16345785D8A0000 PUSH8 0xDE0B6B3A7640000 PUSH2 0x1B8D JUMP JUMPDEST SWAP1 PUSH2 0x147E JUMP JUMPDEST SWAP1 POP DUP9 DUP2 LT PUSH2 0x1274 JUMPI PUSH1 0x0 PUSH2 0x127E JUMP JUMPDEST PUSH2 0x127E DUP2 DUP11 PUSH2 0x1BBD JUMP JUMPDEST SWAP9 POP POP JUMPDEST POP PUSH1 0x1 SWAP6 POP POP POP POP POP POP JUMPDEST SWAP3 POP SWAP3 SWAP1 POP JUMP JUMPDEST PUSH1 0x40 MLOAD PUSH4 0x21F8A721 PUSH1 0xE0 SHL DUP2 MSTORE PUSH19 0x4D4F54484552424F4152445F41444452455353 PUSH1 0x68 SHL PUSH1 0x4 DUP3 ADD MSTORE PUSH1 0x0 SWAP1 PUSH1 0x1 PUSH1 0x1 PUSH1 0xA0 SHL SUB DUP4 AND SWAP1 PUSH4 0x21F8A721 SWAP1 PUSH1 0x24 ADD PUSH2 0xF3C JUMP JUMPDEST PUSH1 0x40 MLOAD PUSH4 0xBD02D0F5 PUSH1 0xE0 SHL DUP2 MSTORE PUSH22 0x29AA22ABA0A92229A424A82FA4A721AFA6A4A72FA1A9 PUSH1 0x51 SHL PUSH1 0x4 DUP3 ADD MSTORE PUSH1 0x0 SWAP1 PUSH1 0x1 PUSH1 0x1 PUSH1 0xA0 SHL SUB DUP4 AND SWAP1 PUSH4 0xBD02D0F5 SWAP1 PUSH1 0x24 ADD JUMPDEST PUSH1 0x20 PUSH1 0x40 MLOAD DUP1 DUP4 SUB DUP2 DUP7 GAS STATICCALL ISZERO DUP1 ISZERO PUSH2 0x133A JUMPI RETURNDATASIZE PUSH1 0x0 DUP1 RETURNDATACOPY RETURNDATASIZE PUSH1 0x0 REVERT JUMPDEST POP POP POP POP PUSH1 0x40 MLOAD RETURNDATASIZE PUSH1 0x1F NOT PUSH1 0x1F DUP3 ADD AND DUP3 ADD DUP1 PUSH1 0x40 MSTORE POP DUP2 ADD SWAP1 PUSH2 0xF7D SWAP2 SWAP1 PUSH2 0x1B5E JUMP JUMPDEST PUSH1 0x40 MLOAD PUSH4 0xBD02D0F5 PUSH1 0xE0 SHL DUP2 MSTORE PUSH32 0x53544557415244534849505F494E435F4D41585F56494F4C4154494F4E530000 PUSH1 0x4 DUP3 ADD MSTORE PUSH1 0x0 SWAP1 PUSH1 0x1 PUSH1 0x1 PUSH1 0xA0 SHL SUB DUP4 AND SWAP1 PUSH4 0xBD02D0F5 SWAP1 PUSH1 0x24 ADD PUSH2 0x131D JUMP JUMPDEST PUSH1 0x40 MLOAD PUSH4 0xBD02D0F5 PUSH1 0xE0 SHL DUP2 MSTORE PUSH32 0x53544557415244534849505F494E435F4455524154494F4E0000000000000000 PUSH1 0x4 DUP3 ADD MSTORE PUSH1 0x0 SWAP1 PUSH1 0x1 PUSH1 0x1 PUSH1 0xA0 SHL SUB DUP4 AND SWAP1 PUSH4 0xBD02D0F5 SWAP1 PUSH1 0x24 ADD PUSH2 0x131D JUMP JUMPDEST PUSH1 0x40 DUP1 MLOAD DUP1 DUP3 ADD SWAP1 SWAP2 MSTORE PUSH1 0x2 DUP2 MSTORE PUSH2 0x3235 PUSH1 0xF0 SHL PUSH1 0x20 DUP3 ADD MSTORE PUSH1 0x0 SWAP1 DUP3 PUSH2 0x1436 JUMPI PUSH1 0x40 MLOAD PUSH3 0x461BCD PUSH1 0xE5 SHL DUP2 MSTORE PUSH1 0x4 ADD PUSH2 0x3BE SWAP2 SWAP1 PUSH2 0x1B10 JUMP JUMPDEST POP DUP3 PUSH1 0x0 SUB PUSH2 0x1447 JUMPI POP PUSH1 0x0 PUSH2 0xF7D JUMP JUMPDEST PUSH1 0x0 PUSH2 0x145B PUSH8 0xDE0B6B3A7640000 DUP6 PUSH2 0x1BD0 JUMP JUMPDEST SWAP1 POP PUSH2 0x1467 DUP4 DUP3 PUSH2 0x1C00 JUMP JUMPDEST SWAP5 SWAP4 POP POP POP POP JUMP JUMPDEST PUSH1 0x0 PUSH2 0xF7D PUSH3 0x15180 DUP4 PUSH2 0x1C00 JUMP JUMPDEST PUSH1 0x0 DUP1 PUSH2 0x148B DUP4 DUP6 PUSH2 0x1BD0 JUMP JUMPDEST SWAP1 POP PUSH2 0x1467 PUSH8 0xDE0B6B3A7640000 DUP3 PUSH2 0x1C00 JUMP JUMPDEST PUSH1 0x0 PUSH1 0x20 DUP3 DUP5 SUB SLT ISZERO PUSH2 0x14B1 JUMPI PUSH1 0x0 DUP1 REVERT JUMPDEST POP CALLDATALOAD SWAP2 SWAP1 POP JUMP JUMPDEST PUSH4 0x4E487B71 PUSH1 0xE0 SHL PUSH1 0x0 MSTORE PUSH1 0x41 PUSH1 0x4 MSTORE PUSH1 0x24 PUSH1 0x0 REVERT JUMPDEST PUSH1 0x40 MLOAD PUSH1 0x80 DUP2 ADD PUSH8 0xFFFFFFFFFFFFFFFF DUP2 GT DUP3 DUP3 LT OR ISZERO PUSH2 0x14F1 JUMPI PUSH2 0x14F1 PUSH2 0x14B8 JUMP JUMPDEST PUSH1 0x40 MSTORE SWAP1 JUMP JUMPDEST PUSH1 0x40 MLOAD PUSH1 0x60 DUP2 ADD PUSH8 0xFFFFFFFFFFFFFFFF DUP2 GT DUP3 DUP3 LT OR ISZERO PUSH2 0x14F1 JUMPI PUSH2 0x14F1 PUSH2 0x14B8 JUMP JUMPDEST PUSH1 0x40 DUP1 MLOAD SWAP1 DUP2 ADD PUSH8 0xFFFFFFFFFFFFFFFF DUP2 GT DUP3 DUP3 LT OR ISZERO PUSH2 0x14F1 JUMPI PUSH2 0x14F1 PUSH2 0x14B8 JUMP JUMPDEST PUSH1 0x40 MLOAD PUSH2 0x120 DUP2 ADD PUSH8 0xFFFFFFFFFFFFFFFF DUP2 GT DUP3 DUP3 LT OR ISZERO PUSH2 0x14F1 JUMPI PUSH2 0x14F1 PUSH2 0x14B8 JUMP JUMPDEST PUSH1 0x40 MLOAD PUSH1 0x1F DUP3 ADD PUSH1 0x1F NOT AND DUP2 ADD PUSH8 0xFFFFFFFFFFFFFFFF DUP2 GT DUP3 DUP3 LT OR ISZERO PUSH2 0x158A JUMPI PUSH2 0x158A PUSH2 0x14B8 JUMP JUMPDEST PUSH1 0x40 MSTORE SWAP2 SWAP1 POP JUMP JUMPDEST PUSH1 0x0 PUSH8 0xFFFFFFFFFFFFFFFF DUP3 GT ISZERO PUSH2 0x15AC JUMPI PUSH2 0x15AC PUSH2 0x14B8 JUMP JUMPDEST POP PUSH1 0x5 SHL PUSH1 0x20 ADD SWAP1 JUMP JUMPDEST PUSH1 0x1 PUSH1 0x1 PUSH1 0xA0 SHL SUB DUP2 AND DUP2 EQ PUSH2 0xD81 JUMPI PUSH1 0x0 DUP1 REVERT JUMPDEST DUP1 CALLDATALOAD PUSH2 0x15D6 DUP2 PUSH2 0x15B6 JUMP JUMPDEST SWAP2 SWAP1 POP JUMP JUMPDEST PUSH1 0xFF DUP2 AND DUP2 EQ PUSH2 0xD81 JUMPI PUSH1 0x0 DUP1 REVERT JUMPDEST DUP1 CALLDATALOAD PUSH2 0x15D6 DUP2 PUSH2 0x15DB JUMP JUMPDEST PUSH1 0x0 PUSH1 0x80 DUP3 DUP5 SUB SLT ISZERO PUSH2 0x1607 JUMPI PUSH1 0x0 DUP1 REVERT JUMPDEST PUSH2 0x160F PUSH2 0x14CE JUMP JUMPDEST SWAP1 POP DUP2 CALLDATALOAD DUP2 MSTORE PUSH1 0x20 DUP3 ADD CALLDATALOAD PUSH1 0x20 DUP3 ADD MSTORE PUSH1 0x40 DUP3 ADD CALLDATALOAD PUSH1 0x40 DUP3 ADD MSTORE PUSH1 0x60 DUP3 ADD CALLDATALOAD PUSH1 0x60 DUP3 ADD MSTORE SWAP3 SWAP2 POP POP JUMP JUMPDEST DUP1 ISZERO ISZERO DUP2 EQ PUSH2 0xD81 JUMPI PUSH1 0x0 DUP1 REVERT JUMPDEST PUSH1 0x0 DUP3 PUSH1 0x1F DUP4 ADD SLT PUSH2 0x1658 JUMPI PUSH1 0x0 DUP1 REVERT JUMPDEST DUP2 CALLDATALOAD PUSH1 0x20 PUSH2 0x166D PUSH2 0x1668 DUP4 PUSH2 0x1592 JUMP JUMPDEST PUSH2 0x1561 JUMP JUMPDEST DUP3 DUP2 MSTORE PUSH1 0x60 SWAP3 DUP4 MUL DUP6 ADD DUP3 ADD SWAP3 DUP3 DUP3 ADD SWAP2 SWAP1 DUP8 DUP6 GT ISZERO PUSH2 0x168C JUMPI PUSH1 0x0 DUP1 REVERT JUMPDEST DUP4 DUP8 ADD JUMPDEST DUP6 DUP2 LT ISZERO PUSH2 0x16E5 JUMPI DUP2 DUP2 DUP11 SUB SLT ISZERO PUSH2 0x16A8 JUMPI PUSH1 0x0 DUP1 DUP2 REVERT JUMPDEST PUSH2 0x16B0 PUSH2 0x14F7 JUMP JUMPDEST DUP2 CALLDATALOAD PUSH2 0x16BB DUP2 PUSH2 0x15B6 JUMP JUMPDEST DUP2 MSTORE DUP2 DUP7 ADD CALLDATALOAD PUSH2 0x16CA DUP2 PUSH2 0x1639 JUMP JUMPDEST DUP2 DUP8 ADD MSTORE PUSH1 0x40 DUP3 DUP2 ADD CALLDATALOAD SWAP1 DUP3 ADD MSTORE DUP5 MSTORE SWAP3 DUP5 ADD SWAP3 DUP2 ADD PUSH2 0x1690 JUMP JUMPDEST POP SWAP1 SWAP8 SWAP7 POP POP POP POP POP POP POP JUMP JUMPDEST PUSH1 0x0 PUSH1 0x20 DUP1 DUP4 DUP6 SUB SLT ISZERO PUSH2 0x1705 JUMPI PUSH1 0x0 DUP1 REVERT JUMPDEST DUP3 CALLDATALOAD PUSH8 0xFFFFFFFFFFFFFFFF DUP1 DUP3 GT ISZERO PUSH2 0x171D JUMPI PUSH1 0x0 DUP1 REVERT JUMPDEST SWAP1 DUP5 ADD SWAP1 PUSH1 0x40 DUP3 DUP8 SUB SLT ISZERO PUSH2 0x1731 JUMPI PUSH1 0x0 DUP1 REVERT JUMPDEST PUSH2 0x1739 PUSH2 0x151A JUMP JUMPDEST DUP3 CALLDATALOAD DUP2 MSTORE DUP4 DUP4 ADD CALLDATALOAD DUP3 DUP2 GT ISZERO PUSH2 0x174E JUMPI PUSH1 0x0 DUP1 REVERT JUMPDEST DUP1 DUP5 ADD SWAP4 POP POP DUP7 PUSH1 0x1F DUP5 ADD SLT PUSH2 0x1763 JUMPI PUSH1 0x0 DUP1 REVERT JUMPDEST DUP3 CALLDATALOAD PUSH2 0x1771 PUSH2 0x1668 DUP3 PUSH2 0x1592 JUMP JUMPDEST DUP2 DUP2 MSTORE PUSH1 0x5 SWAP2 SWAP1 SWAP2 SHL DUP5 ADD DUP6 ADD SWAP1 DUP6 DUP2 ADD SWAP1 DUP10 DUP4 GT ISZERO PUSH2 0x1790 JUMPI PUSH1 0x0 DUP1 REVERT JUMPDEST DUP7 DUP7 ADD JUMPDEST DUP4 DUP2 LT ISZERO PUSH2 0x186C JUMPI DUP1 CALLDATALOAD DUP7 DUP2 GT ISZERO PUSH2 0x17AB JUMPI PUSH1 0x0 DUP1 REVERT JUMPDEST DUP8 ADD PUSH2 0x180 DUP2 DUP14 SUB PUSH1 0x1F NOT ADD DUP2 SGT ISZERO PUSH2 0x17C3 JUMPI PUSH1 0x0 DUP1 REVERT JUMPDEST PUSH2 0x17CB PUSH2 0x153D JUMP JUMPDEST PUSH2 0x17D6 DUP12 DUP5 ADD PUSH2 0x15CB JUMP JUMPDEST DUP2 MSTORE PUSH2 0x17E4 PUSH1 0x40 DUP5 ADD PUSH2 0x15EA JUMP JUMPDEST DUP12 DUP3 ADD MSTORE PUSH2 0x17F4 PUSH1 0x60 DUP5 ADD PUSH2 0x15CB JUMP JUMPDEST PUSH1 0x40 DUP3 ADD MSTORE PUSH1 0x80 DUP4 ADD CALLDATALOAD PUSH1 0x60 DUP3 ADD MSTORE PUSH1 0xA0 PUSH2 0x1811 DUP16 DUP3 DUP7 ADD PUSH2 0x15F5 JUMP JUMPDEST PUSH1 0x80 DUP4 ADD MSTORE PUSH2 0x120 DUP5 ADD CALLDATALOAD SWAP1 DUP3 ADD MSTORE PUSH2 0x140 DUP4 ADD CALLDATALOAD PUSH1 0xC0 DUP3 ADD MSTORE PUSH2 0x160 DUP4 ADD CALLDATALOAD PUSH1 0xE0 DUP3 ADD MSTORE SWAP1 DUP3 ADD CALLDATALOAD SWAP1 DUP9 DUP3 GT ISZERO PUSH2 0x1849 JUMPI PUSH1 0x0 DUP1 DUP2 REVERT JUMPDEST PUSH2 0x1857 DUP15 DUP13 DUP5 DUP7 ADD ADD PUSH2 0x1647 JUMP JUMPDEST PUSH2 0x100 DUP3 ADD MSTORE DUP6 MSTORE POP POP SWAP2 DUP8 ADD SWAP2 DUP8 ADD PUSH2 0x1794 JUMP JUMPDEST POP SWAP6 DUP4 ADD SWAP6 SWAP1 SWAP6 MSTORE POP SWAP7 SWAP6 POP POP POP POP POP POP JUMP JUMPDEST PUSH1 0x0 PUSH1 0x20 DUP3 DUP5 SUB SLT ISZERO PUSH2 0x1891 JUMPI PUSH1 0x0 DUP1 REVERT JUMPDEST DUP2 CALLDATALOAD PUSH2 0x189C DUP2 PUSH2 0x15B6 JUMP JUMPDEST SWAP4 SWAP3 POP POP POP JUMP JUMPDEST DUP1 MLOAD PUSH2 0x15D6 DUP2 PUSH2 0x15B6 JUMP JUMPDEST DUP1 MLOAD PUSH2 0x15D6 DUP2 PUSH2 0x15DB JUMP JUMPDEST PUSH1 0x0 PUSH1 0x80 DUP3 DUP5 SUB SLT ISZERO PUSH2 0x18CB JUMPI PUSH1 0x0 DUP1 REVERT JUMPDEST PUSH2 0x18D3 PUSH2 0x14CE JUMP JUMPDEST SWAP1 POP DUP2 MLOAD DUP2 MSTORE PUSH1 0x20 DUP3 ADD MLOAD PUSH1 0x20 DUP3 ADD MSTORE PUSH1 0x40 DUP3 ADD MLOAD PUSH1 0x40 DUP3 ADD MSTORE PUSH1 0x60 DUP3 ADD MLOAD PUSH1 0x60 DUP3 ADD MSTORE SWAP3 SWAP2 POP POP JUMP JUMPDEST PUSH1 0x0 DUP3 PUSH1 0x1F DUP4 ADD SLT PUSH2 0x190E JUMPI PUSH1 0x0 DUP1 REVERT JUMPDEST DUP2 MLOAD PUSH1 0x20 PUSH2 0x191E PUSH2 0x1668 DUP4 PUSH2 0x1592 JUMP JUMPDEST DUP3 DUP2 MSTORE PUSH1 0x60 SWAP3 DUP4 MUL DUP6 ADD DUP3 ADD SWAP3 DUP3 DUP3 ADD SWAP2 SWAP1 DUP8 DUP6 GT ISZERO PUSH2 0x193D JUMPI PUSH1 0x0 DUP1 REVERT JUMPDEST DUP4 DUP8 ADD JUMPDEST DUP6 DUP2 LT ISZERO PUSH2 0x16E5 JUMPI DUP2 DUP2 DUP11 SUB SLT ISZERO PUSH2 0x1959 JUMPI PUSH1 0x0 DUP1 DUP2 REVERT JUMPDEST PUSH2 0x1961 PUSH2 0x14F7 JUMP JUMPDEST DUP2 MLOAD PUSH2 0x196C DUP2 PUSH2 0x15B6 JUMP JUMPDEST DUP2 MSTORE DUP2 DUP7 ADD MLOAD PUSH2 0x197B DUP2 PUSH2 0x1639 JUMP JUMPDEST DUP2 DUP8 ADD MSTORE PUSH1 0x40 DUP3 DUP2 ADD MLOAD SWAP1 DUP3 ADD MSTORE DUP5 MSTORE SWAP3 DUP5 ADD SWAP3 DUP2 ADD PUSH2 0x1941 JUMP JUMPDEST PUSH1 0x0 PUSH1 0x20 DUP1 DUP4 DUP6 SUB SLT ISZERO PUSH2 0x19A9 JUMPI PUSH1 0x0 DUP1 REVERT JUMPDEST DUP3 MLOAD PUSH8 0xFFFFFFFFFFFFFFFF DUP1 DUP3 GT ISZERO PUSH2 0x19C1 JUMPI PUSH1 0x0 DUP1 REVERT JUMPDEST SWAP1 DUP5 ADD SWAP1 PUSH1 0x40 DUP3 DUP8 SUB SLT ISZERO PUSH2 0x19D5 JUMPI PUSH1 0x0 DUP1 REVERT JUMPDEST PUSH2 0x19DD PUSH2 0x151A JUMP JUMPDEST DUP3 MLOAD DUP2 MSTORE DUP4 DUP4 ADD MLOAD DUP3 DUP2 GT ISZERO PUSH2 0x19F2 JUMPI PUSH1 0x0 DUP1 REVERT JUMPDEST DUP1 DUP5 ADD SWAP4 POP POP DUP7 PUSH1 0x1F DUP5 ADD SLT PUSH2 0x1A07 JUMPI PUSH1 0x0 DUP1 REVERT JUMPDEST DUP3 MLOAD PUSH2 0x1A15 PUSH2 0x1668 DUP3 PUSH2 0x1592 JUMP JUMPDEST DUP2 DUP2 MSTORE PUSH1 0x5 SWAP2 SWAP1 SWAP2 SHL DUP5 ADD DUP6 ADD SWAP1 DUP6 DUP2 ADD SWAP1 DUP10 DUP4 GT ISZERO PUSH2 0x1A34 JUMPI PUSH1 0x0 DUP1 REVERT JUMPDEST DUP7 DUP7 ADD JUMPDEST DUP4 DUP2 LT ISZERO PUSH2 0x186C JUMPI DUP1 MLOAD DUP7 DUP2 GT ISZERO PUSH2 0x1A4F JUMPI PUSH1 0x0 DUP1 REVERT JUMPDEST DUP8 ADD PUSH2 0x180 DUP2 DUP14 SUB PUSH1 0x1F NOT ADD DUP2 SGT ISZERO PUSH2 0x1A67 JUMPI PUSH1 0x0 DUP1 REVERT JUMPDEST PUSH2 0x1A6F PUSH2 0x153D JUMP JUMPDEST PUSH2 0x1A7A DUP12 DUP5 ADD PUSH2 0x18A3 JUMP JUMPDEST DUP2 MSTORE PUSH2 0x1A88 PUSH1 0x40 DUP5 ADD PUSH2 0x18AE JUMP JUMPDEST DUP12 DUP3 ADD MSTORE PUSH2 0x1A98 PUSH1 0x60 DUP5 ADD PUSH2 0x18A3 JUMP JUMPDEST PUSH1 0x40 DUP3 ADD MSTORE PUSH1 0x80 DUP4 ADD MLOAD PUSH1 0x60 DUP3 ADD MSTORE PUSH1 0xA0 PUSH2 0x1AB5 DUP16 DUP3 DUP7 ADD PUSH2 0x18B9 JUMP JUMPDEST PUSH1 0x80 DUP4 ADD MSTORE PUSH2 0x120 DUP5 ADD MLOAD SWAP1 DUP3 ADD MSTORE PUSH2 0x140 DUP4 ADD MLOAD PUSH1 0xC0 DUP3 ADD MSTORE PUSH2 0x160 DUP4 ADD MLOAD PUSH1 0xE0 DUP3 ADD MSTORE SWAP1 DUP3 ADD MLOAD SWAP1 DUP9 DUP3 GT ISZERO PUSH2 0x1AED JUMPI PUSH1 0x0 DUP1 DUP2 REVERT JUMPDEST PUSH2 0x1AFB DUP15 DUP13 DUP5 DUP7 ADD ADD PUSH2 0x18FD JUMP JUMPDEST PUSH2 0x100 DUP3 ADD MSTORE DUP6 MSTORE POP POP SWAP2 DUP8 ADD SWAP2 DUP8 ADD PUSH2 0x1A38 JUMP JUMPDEST PUSH1 0x0 PUSH1 0x20 DUP1 DUP4 MSTORE DUP4 MLOAD DUP1 DUP3 DUP6 ADD MSTORE PUSH1 0x0 JUMPDEST DUP2 DUP2 LT ISZERO PUSH2 0x1B3D JUMPI DUP6 DUP2 ADD DUP4 ADD MLOAD DUP6 DUP3 ADD PUSH1 0x40 ADD MSTORE DUP3 ADD PUSH2 0x1B21 JUMP JUMPDEST POP PUSH1 0x0 PUSH1 0x40 DUP3 DUP7 ADD ADD MSTORE PUSH1 0x40 PUSH1 0x1F NOT PUSH1 0x1F DUP4 ADD AND DUP6 ADD ADD SWAP3 POP POP POP SWAP3 SWAP2 POP POP JUMP JUMPDEST PUSH1 0x0 PUSH1 0x20 DUP3 DUP5 SUB SLT ISZERO PUSH2 0x1B70 JUMPI PUSH1 0x0 DUP1 REVERT JUMPDEST POP MLOAD SWAP2 SWAP1 POP JUMP JUMPDEST PUSH4 0x4E487B71 PUSH1 0xE0 SHL PUSH1 0x0 MSTORE PUSH1 0x11 PUSH1 0x4 MSTORE PUSH1 0x24 PUSH1 0x0 REVERT JUMPDEST DUP1 DUP3 ADD DUP1 DUP3 GT ISZERO PUSH2 0xF7D JUMPI PUSH2 0xF7D PUSH2 0x1B77 JUMP JUMPDEST PUSH1 0x0 PUSH1 0x20 DUP3 DUP5 SUB SLT ISZERO PUSH2 0x1BB2 JUMPI PUSH1 0x0 DUP1 REVERT JUMPDEST DUP2 MLOAD PUSH2 0x189C DUP2 PUSH2 0x15B6 JUMP JUMPDEST DUP2 DUP2 SUB DUP2 DUP2 GT ISZERO PUSH2 0xF7D JUMPI PUSH2 0xF7D PUSH2 0x1B77 JUMP JUMPDEST DUP1 DUP3 MUL DUP2 ISZERO DUP3 DUP3 DIV DUP5 EQ OR PUSH2 0xF7D JUMPI PUSH2 0xF7D PUSH2 0x1B77 JUMP JUMPDEST PUSH1 0x0 PUSH1 0x1 DUP3 ADD PUSH2 0x1BF9 JUMPI PUSH2 0x1BF9 PUSH2 0x1B77 JUMP JUMPDEST POP PUSH1 0x1 ADD SWAP1 JUMP JUMPDEST PUSH1 0x0 DUP3 PUSH2 0x1C1D JUMPI PUSH4 0x4E487B71 PUSH1 0xE0 SHL PUSH1 0x0 MSTORE PUSH1 0x12 PUSH1 0x4 MSTORE PUSH1 0x24 PUSH1 0x0 REVERT JUMPDEST POP DIV SWAP1 JUMP INVALID LOG2 PUSH5 0x6970667358 0x22 SLT KECCAK256 0xF8 0xEF 0xF9 DUP1 CALLVALUE 0xAD PC 0x29 GT 0xF7 PUSH11 0xA60C96F527564DB5D30670 0xEF 0xE 0x4C PUSH23 0x3A685D82D7F964736F6C63430008110033000000000000 ","sha1":"b500ab9ea808fb40f4c6156b5449dd15f4bac57b","source":"// SPDX-License-Identifier: LicenseRef-Gyro-1.0\n// for information on licensing please see the README in the GitHub repository <https://github.com/gyrostable/core-protocol>.\npragma solidity ^0.8.0;\n\nimport \"./auth/Governable.sol\";\nimport \"../interfaces/IGyroConfig.sol\";\nimport \"../interfaces/IGYDToken.sol\";\nimport \"../interfaces/IReserveStewardshipIncentives.sol\";\nimport \"../libraries/ConfigHelpers.sol\";\nimport \"../libraries/FixedPoint.sol\";\n\ncontract ReserveStewardshipIncentives is IReserveStewardshipIncentives, Governable {\n    using ConfigHelpers for IGyroConfig;\n    using FixedPoint for uint256;\n\n    uint256 internal constant MAX_REWARD_PERCENTAGE = 0.5e18;\n    uint256 internal constant OVERESTIMATION_PENALTY_FACTOR = 0.1e18; // SOMEDAY maybe review\n    uint256 internal constant MAX_MAX_HEALTH_VIOLATIONS = 10;\n    uint256 internal constant MIN_MIN_COLLATERAL_RATIO = 1e18;\n    uint256 internal constant MIN_INITIATIVE_DURATION = 365 days;\n\n    /// @dev We call the collection of incentive start and end times and parameters an \"initiative\".\n    struct Initiative {\n        // SOMEDAY optimization: could be stored with fewer bits to save a slot\n        uint256 startTime; // timestamp\n        uint256 endTime; // timestamp\n        uint256 minCollateralRatio;\n        uint256 maxHealthViolations;\n        uint256 rewardPercentage;\n    }\n    Initiative public activeInitiative; // .endTime = 0 means none is there.\n\n    struct ReserveHealthViolations {\n        // SOMEDAY optimization: could be stored with fewer bits to save a slot\n        uint256 lastViolatedDate; // date\n        uint256 nViolations;\n    }\n    ReserveHealthViolations public reserveHealthViolations;\n\n    /// @dev We store the time integral of the GYD supply to compute the reward at the end based on avg supply.\n    struct AggSupply {\n        uint256 lastUpdatedTime;\n        uint256 aggSupply;\n    }\n    AggSupply public aggSupply;\n\n    IGyroConfig public immutable gyroConfig;\n    IGYDToken public immutable gydToken;\n\n    constructor(address _governor, address _gyroConfig) Governable(_governor) {\n        gyroConfig = IGyroConfig(_gyroConfig);\n        gydToken = gyroConfig.getGYDToken();\n    }\n\n    function startInitiative(uint256 rewardPercentage) external governanceOnly {\n        require(rewardPercentage <= MAX_REWARD_PERCENTAGE, \"reward percentage too high\");\n        require(activeInitiative.endTime == 0, \"active initiative already present\");\n\n        uint256 minCollateralRatio = gyroConfig.getStewardshipIncMinCollateralRatio();\n        uint256 maxHealthViolations = gyroConfig.getStewardshipIncMaxHealthViolations();\n        uint256 duration = gyroConfig.getStewardshipIncDuration();\n\n        require(minCollateralRatio >= MIN_MIN_COLLATERAL_RATIO, \"min collateral ratio too low\");\n        require(maxHealthViolations <= MAX_MAX_HEALTH_VIOLATIONS, \"max health violations too high\");\n        require(duration >= MIN_INITIATIVE_DURATION, \"incentive duration too short\");\n\n        DataTypes.ReserveState memory reserveState = gyroConfig\n            .getReserveManager()\n            .getReserveState();\n        uint256 gydSupply = gydToken.totalSupply();\n\n        uint256 collateralRatio = reserveState.totalUSDValue.divDown(gydSupply);\n        require(collateralRatio >= minCollateralRatio, \"collateral ratio too low\");\n\n        reserveHealthViolations = ReserveHealthViolations(0, 0);\n\n        aggSupply = AggSupply(block.timestamp, 0);\n\n        Initiative memory initiative = Initiative({\n            startTime: block.timestamp,\n            endTime: block.timestamp + duration,\n            minCollateralRatio: minCollateralRatio,\n            maxHealthViolations: maxHealthViolations,\n            rewardPercentage: rewardPercentage\n        });\n        activeInitiative = initiative;\n        emit InitiativeStarted(\n            initiative.endTime,\n            initiative.minCollateralRatio,\n            initiative.rewardPercentage\n        );\n    }\n\n    function cancelInitiative() external governanceOnly {\n        activeInitiative.endTime = 0;\n        emit InitiativeCanceled();\n    }\n\n    function completeInitiative() external {\n        DataTypes.ReserveState memory reserveState = gyroConfig\n            .getReserveManager()\n            .getReserveState();\n        _checkpoint(reserveState);\n\n        Initiative memory initiative = activeInitiative;\n\n        require(initiative.endTime > 0, \"no active initiative\");\n        require(initiative.endTime <= block.timestamp, \"initiative not yet complete\");\n\n        // Check incentive success\n        require(\n            reserveHealthViolations.nViolations <= initiative.maxHealthViolations,\n            \"initiative failed: too many health violations\"\n        );\n\n        (uint256 reward, bool success) = _initiativeRewards(reserveState, initiative);\n        require(success, \"collateral ratio too low\");\n\n        gyroConfig.getMotherboard().mintStewardshipIncRewards(reward);\n        emit InitiativeCompleted(initiative.startTime, reward);\n\n        activeInitiative.endTime = 0;\n    }\n\n    function _checkpoint(DataTypes.ReserveState memory reserveState) internal {\n        uint256 endTime = activeInitiative.endTime;\n        if (endTime == 0) return;\n\n        uint256 nowTime = block.timestamp;\n\n        // Update aggSupply. If the active initiative has ended, we complete the update wrt. endTime to catch all of the\n        // GYD supply during the period.\n        uint256 aggSupplyUpdateTime = nowTime <= endTime ? nowTime : endTime;\n        uint256 gydSupply = gydToken.totalSupply();\n        aggSupply.aggSupply += (aggSupplyUpdateTime - aggSupply.lastUpdatedTime) * gydSupply;\n        aggSupply.lastUpdatedTime = aggSupplyUpdateTime;\n\n        if (nowTime > endTime) return;\n\n        // Update reserveHealthViolations. (only if the active initiative is still running)\n        uint256 collateralRatio = reserveState.totalUSDValue.divDown(gydSupply);\n        if (collateralRatio < activeInitiative.minCollateralRatio) {\n            uint256 today = timestampToDatestamp(block.timestamp);\n            if (reserveHealthViolations.lastViolatedDate < today) {\n                ++reserveHealthViolations.nViolations;\n                reserveHealthViolations.lastViolatedDate = today;\n            }\n        }\n    }\n\n    function checkpoint(DataTypes.ReserveState memory reserveState) external {\n        require(msg.sender == address(gyroConfig.getMotherboard()), \"not authorized\");\n        return _checkpoint(reserveState);\n    }\n\n    function checkpoint() external {\n        DataTypes.ReserveState memory reserveState = gyroConfig\n            .getReserveManager()\n            .getReserveState();\n        _checkpoint(reserveState);\n    }\n\n    function hasActiveInitiative() public view returns (bool) {\n        return activeInitiative.endTime > 0;\n    }\n\n    function hasFailed() public view returns (bool) {\n        return\n            activeInitiative.endTime > 0 &&\n            reserveHealthViolations.nViolations > activeInitiative.maxHealthViolations;\n    }\n\n    /// @dev This does *not* do a full check whether the initiative was successful!\n    function _initiativeRewards(\n        DataTypes.ReserveState memory reserveState,\n        Initiative memory initiative\n    ) internal view returns (uint256 reward, bool success) {\n        // Compute target reward\n        uint256 gydSupply = gydToken.totalSupply();\n        uint256 initiativeLength = initiative.endTime - initiative.startTime;\n        uint256 avgGYDSupply = aggSupply.aggSupply / initiativeLength;\n        uint256 targetReward = initiative.rewardPercentage.mulDown(avgGYDSupply);\n\n        // Compute max available reward\n        uint256 maxAllowedGYDSupply = reserveState.totalUSDValue.divDown(\n            initiative.minCollateralRatio\n        );\n\n        // The following fails if the current collateral ratio is below the minimum set in the incentive. This is almost\n        // but not quite redundant with _checkpoint(): it might be that now is the first time we're below the\n        // minimum, but we wouldn't allow incentive completion in this situation.\n        if (gydSupply > maxAllowedGYDSupply) return (0, false);\n        uint256 maxReward = maxAllowedGYDSupply - gydSupply;\n\n        // Marry target reward with max available reward. We could take the minimum here but we use a slightly different\n        // function to incentivize governance towards moderation when choosing rewardPercentage. We introduce a linear\n        // penalty for over-estimation here.\n        reward = targetReward;\n        if (reward > maxReward) {\n            uint256 reduction = (FixedPoint.ONE + OVERESTIMATION_PENALTY_FACTOR).mulDown(\n                reward - maxReward\n            );\n            reward = reduction < reward ? reward - reduction : 0;\n        }\n        return (reward, true);\n    }\n\n    function tentativeRewards() external view returns (uint256 gydAmount) {\n        if (activeInitiative.endTime == 0) return 0;\n        if (hasFailed()) return 0;\n        DataTypes.ReserveState memory reserveState = gyroConfig\n            .getReserveManager()\n            .getReserveState();\n        (gydAmount, ) = _initiativeRewards(reserveState, activeInitiative);\n    }\n\n    /// @dev Approximately days since epoch. Not quite correct but good enough to distinguish different days, which is\n    /// all we need here.\n    function timestampToDatestamp(uint256 timestamp) internal pure returns (uint256) {\n        return timestamp / 1 days;\n    }\n}\n","sourcePath":"contracts/ReserveStewardshipIncentives.sol","type":"contract","deployment":{"address":"0xb7D64F44E85Fd20aC30d02850210A3b499d6Bbf5","chainid":"137","blockHeight":43404195}}