{"abi":[{"inputs":[{"internalType":"address","name":"_usdOracle","type":"address"},{"internalType":"address","name":"_relativeOracle","type":"address"},{"internalType":"address","name":"_wethAddress","type":"address"}],"stateMutability":"nonpayable","type":"constructor","name":"constructor"},{"anonymous":false,"inputs":[{"indexed":false,"internalType":"address","name":"_addressToAdd","type":"address"}],"name":"AssetForRelativePriceCheckAdded","type":"event"},{"anonymous":false,"inputs":[{"indexed":false,"internalType":"address","name":"_addressToRemove","type":"address"}],"name":"AssetForRelativePriceCheckRemoved","type":"event"},{"anonymous":false,"inputs":[{"indexed":false,"internalType":"address","name":"newGovernor","type":"address"}],"name":"GovernorChangeRequested","type":"event"},{"anonymous":false,"inputs":[{"indexed":false,"internalType":"address","name":"oldGovernor","type":"address"},{"indexed":false,"internalType":"address","name":"newGovernor","type":"address"}],"name":"GovernorChanged","type":"event"},{"anonymous":false,"inputs":[{"indexed":false,"internalType":"address","name":"_addressToAdd","type":"address"}],"name":"PriceLevelTWAPQuoteAssetAdded","type":"event"},{"anonymous":false,"inputs":[{"indexed":false,"internalType":"address","name":"_addressToRemove","type":"address"}],"name":"PriceLevelTWAPQuoteAssetRemoved","type":"event"},{"anonymous":false,"inputs":[{"indexed":true,"internalType":"address","name":"oracle","type":"address"}],"name":"RelativeOracleUpdated","type":"event"},{"anonymous":false,"inputs":[{"indexed":false,"internalType":"address","name":"_addressToAdd","type":"address"}],"name":"TrustedSignerOracleAdded","type":"event"},{"anonymous":false,"inputs":[{"indexed":false,"internalType":"address","name":"_addressToRemove","type":"address"}],"name":"TrustedSignerOracleRemoved","type":"event"},{"anonymous":false,"inputs":[{"indexed":true,"internalType":"address","name":"oracle","type":"address"}],"name":"USDOracleUpdated","type":"event"},{"inputs":[],"name":"INITIAL_RELATIVE_EPSILON","outputs":[{"internalType":"uint256","name":"","type":"uint256"}],"stateMutability":"view","type":"function"},{"inputs":[],"name":"MAX_ABSOLUTE_WETH_DEVIATION","outputs":[{"internalType":"uint256","name":"","type":"uint256"}],"stateMutability":"view","type":"function"},{"inputs":[],"name":"MAX_RELATIVE_EPSILON","outputs":[{"internalType":"uint256","name":"","type":"uint256"}],"stateMutability":"view","type":"function"},{"inputs":[],"name":"acceptGovernance","outputs":[],"stateMutability":"nonpayable","type":"function"},{"inputs":[{"internalType":"address","name":"assetToAdd","type":"address"}],"name":"addAssetForRelativePriceCheck","outputs":[],"stateMutability":"nonpayable","type":"function"},{"inputs":[{"internalType":"address","name":"_quoteAssetToAdd","type":"address"}],"name":"addQuoteAssetsForPriceLevelTwap","outputs":[],"stateMutability":"nonpayable","type":"function"},{"inputs":[{"internalType":"address","name":"_signedAssetToAdd","type":"address"}],"name":"addSignedPriceSource","outputs":[],"stateMutability":"nonpayable","type":"function"},{"inputs":[{"internalType":"address","name":"newGovernor","type":"address"}],"name":"changeGovernor","outputs":[],"stateMutability":"nonpayable","type":"function"},{"inputs":[{"internalType":"address","name":"tokenAddress","type":"address"}],"name":"getPriceUSD","outputs":[{"internalType":"uint256","name":"","type":"uint256"}],"stateMutability":"view","type":"function"},{"inputs":[{"internalType":"address[]","name":"tokenAddresses","type":"address[]"}],"name":"getPricesUSD","outputs":[{"internalType":"uint256[]","name":"","type":"uint256[]"}],"stateMutability":"view","type":"function"},{"inputs":[{"internalType":"address[]","name":"tokenAddresses","type":"address[]"}],"name":"getPricesUSDWithMetadata","outputs":[{"internalType":"uint256[]","name":"","type":"uint256[]"},{"internalType":"uint256","name":"","type":"uint256"},{"internalType":"uint256[]","name":"","type":"uint256[]"},{"internalType":"uint256[]","name":"","type":"uint256[]"}],"stateMutability":"view","type":"function"},{"inputs":[{"internalType":"uint256[]","name":"signedPrices","type":"uint256[]"},{"internalType":"uint256[]","name":"twapPrices","type":"uint256[]"}],"name":"getRobustWETHPrice","outputs":[{"internalType":"uint256","name":"","type":"uint256"}],"stateMutability":"view","type":"function"},{"inputs":[],"name":"governor","outputs":[{"internalType":"address","name":"","type":"address"}],"stateMutability":"view","type":"function"},{"inputs":[],"name":"listAssetForRelativePriceCheck","outputs":[{"internalType":"address[]","name":"","type":"address[]"}],"stateMutability":"view","type":"function"},{"inputs":[],"name":"listQuoteAssetsForPriceLevelTwap","outputs":[{"internalType":"address[]","name":"","type":"address[]"}],"stateMutability":"view","type":"function"},{"inputs":[],"name":"listSignedPriceSource","outputs":[{"internalType":"address[]","name":"","type":"address[]"}],"stateMutability":"view","type":"function"},{"inputs":[],"name":"pendingGovernor","outputs":[{"internalType":"address","name":"","type":"address"}],"stateMutability":"view","type":"function"},{"inputs":[],"name":"relativeEpsilon","outputs":[{"internalType":"uint256","name":"","type":"uint256"}],"stateMutability":"view","type":"function"},{"inputs":[],"name":"relativeOracle","outputs":[{"internalType":"contract IRelativePriceOracle","name":"","type":"address"}],"stateMutability":"view","type":"function"},{"inputs":[{"internalType":"address","name":"assetToRemove","type":"address"}],"name":"removeAssetForRelativePriceCheck","outputs":[],"stateMutability":"nonpayable","type":"function"},{"inputs":[{"internalType":"address","name":"_quoteAssetToRemove","type":"address"}],"name":"removeQuoteAssetsForPriceLevelTwap","outputs":[],"stateMutability":"nonpayable","type":"function"},{"inputs":[{"internalType":"address","name":"_signedAssetToRemove","type":"address"}],"name":"removeSignedPriceSource","outputs":[],"stateMutability":"nonpayable","type":"function"},{"inputs":[{"internalType":"uint256","name":"_relativeEpsilon","type":"uint256"}],"name":"setRelativeMaxEpsilon","outputs":[],"stateMutability":"nonpayable","type":"function"},{"inputs":[{"internalType":"address","name":"_relativeOracle","type":"address"}],"name":"setRelativeOracle","outputs":[],"stateMutability":"nonpayable","type":"function"},{"inputs":[{"internalType":"address","name":"_usdOracle","type":"address"}],"name":"setUSDOracle","outputs":[],"stateMutability":"nonpayable","type":"function"},{"inputs":[],"name":"usdOracle","outputs":[{"internalType":"contract IUSDPriceOracle","name":"","type":"address"}],"stateMutability":"view","type":"function"},{"inputs":[],"name":"wethAddress","outputs":[{"internalType":"address","name":"","type":"address"}],"stateMutability":"view","type":"function"}],"bytecode":"60a06040523480156200001157600080fd5b506040516200249c3803806200249c833981016040819052620000349162000175565b600080546001600160a01b0319163390811782556040805192835260208301919091527fde4b3f61490b74c0ed6237523974fe299126bbbf8a8a7482fd220104c59b0c84910160405180910390a1604080518082019091526002815261333160f01b60208201526001600160a01b038416620000ce5760405162461bcd60e51b8152600401620000c59190620001bf565b60405180910390fd5b50604080518082019091526002815261333160f01b60208201526001600160a01b038316620001125760405162461bcd60e51b8152600401620000c59190620001bf565b50600280546001600160a01b03199081166001600160a01b0395861617909155600380549091169284169290921790915566470de4df8200006004551660805262000217565b80516001600160a01b03811681146200017057600080fd5b919050565b6000806000606084860312156200018b57600080fd5b620001968462000158565b9250620001a66020850162000158565b9150620001b66040850162000158565b90509250925092565b600060208083528351808285015260005b81811015620001ee57858101830151858201604001528201620001d0565b8181111562000201576000604083870101525b50601f01601f1916929092016040019392505050565b6080516122466200025660003960008181610277015281816107ab0152818161084b015281816109540152818161140d01526114a201526122466000f3fe608060405234801561001057600080fd5b50600436106101a95760003560e01c80637cd8c1d0116100f9578063e181896011610097578063e4c0aaf411610071578063e4c0aaf414610390578063e4dd02c3146103a3578063e72a49d0146103b6578063e7f9e320146103c557600080fd5b8063e181896014610361578063e3056a341461036a578063e3a076211461037d57600080fd5b8063b55b3f1b116100d3578063b55b3f1b14610325578063c8a4271f14610333578063d8f4a0aa14610346578063e0dcd3c31461035957600080fd5b80637cd8c1d0146102ef578063a0b90f0014610302578063a7ed2a791461031557600080fd5b8063442aae791161016657806357ae33891161014057806357ae3389146102ac57806364b45090146102bf57806375ceebd0146102d4578063765aff1e146102e757600080fd5b8063442aae791461025f5780634f0e0ef3146102725780635708447d1461029957600080fd5b80630317ca7c146101ae5780630c340a24146101c3578063238efcbc146101f35780632af31283146101fb5780632e191ed71461021b5780633bb8c3bc1461023c575b600080fd5b6101c16101bc366004611cd2565b6103d8565b005b6000546101d6906001600160a01b031681565b6040516001600160a01b0390911681526020015b60405180910390f35b6101c1610473565b61020e610209366004611d58565b61051c565b6040516101ea9190611e30565b61022e610229366004611ea9565b610534565b6040519081526020016101ea565b61024f61024a366004611d58565b610653565b6040516101ea9493929190611f0d565b6003546101d6906001600160a01b031681565b6101d67f000000000000000000000000000000000000000000000000000000000000000081565b61022e6102a7366004611cd2565b610a17565b6101c16102ba366004611f4c565b610aa1565b6102c7610b66565b6040516101ea9190611f65565b6101c16102e2366004611cd2565b610b77565b6102c7610c02565b6101c16102fd366004611cd2565b610c0e565b6101c1610310366004611cd2565b610c99565b61022e6802b5e3af16b188000081565b61022e66470de4df82000081565b6002546101d6906001600160a01b031681565b6101c1610354366004611cd2565b610d29565b6102c7610db4565b61022e60045481565b6001546101d6906001600160a01b031681565b6101c161038b366004611cd2565b610dc0565b6101c161039e366004611cd2565b610e4b565b6101c16103b1366004611cd2565b610f20565b61022e67016345785d8a000081565b6101c16103d3366004611cd2565b610fab565b600054604080518082019091526002815261033360f41b6020820152906001600160a01b031633146104265760405162461bcd60e51b815260040161041d9190611fb2565b60405180910390fd5b5061043260098261103b565b506040516001600160a01b03821681527f150f6605e7fc997b9ef5bed4e904eef6e3f887a080d2f7010632435b47f67adc906020015b60405180910390a150565b600154604080518082019091526002815261033360f41b6020820152906001600160a01b031633146104b85760405162461bcd60e51b815260040161041d9190611fb2565b5060008054600180546001600160a01b03198084166001600160a01b03808416919091179095551690556040805192909116808352336020840152917fde4b3f61490b74c0ed6237523974fe299126bbbf8a8a7482fd220104c59b0c849101610468565b6060600061052983610653565b509195945050505050565b6000808251600014156105525761054a84611057565b91505061064d565b61055b83611104565b905060008451600161056d919061201d565b67ffffffffffffffff81111561058557610585611ced565b6040519080825280602002602001820160405280156105ae578160200160208202803683370190505b5090508181600183516105c19190612035565b815181106105d1576105d161204c565b60200260200101818152505060005b600182516105ee9190612035565b81101561063e578581815181106106075761060761204c565b60200260200101518282815181106106215761062161204c565b60209081029190910101528061063681612062565b9150506105e0565b5061064881611057565b925050505b92915050565b60606000606080600085511160405180604001604052806002815260200161333160f01b815250906106985760405162461bcd60e51b815260040161041d9190611fb2565b506000855167ffffffffffffffff8111156106b5576106b5611ced565b6040519080825280602002602001820160405280156106de578160200160208202803683370190505b5090506000805b875181101561082b5760025488516001600160a01b0390911690635708447d908a90849081106107175761071761204c565b60200260200101516040518263ffffffff1660e01b815260040161074a91906001600160a01b0391909116815260200190565b602060405180830381865afa158015610767573d6000803e3d6000fd5b505050506040513d601f19601f8201168201806040525081019061078b919061207d565b83828151811061079d5761079d61204c565b6020026020010181815250507f00000000000000000000000000000000000000000000000000000000000000006001600160a01b03168882815181106107e5576107e561204c565b60200260200101516001600160a01b031614156108195782818151811061080e5761080e61204c565b602002602001015191505b8061082381612062565b9150506106e5565b50806108c257600254604051635708447d60e01b81526001600160a01b037f00000000000000000000000000000000000000000000000000000000000000008116600483015290911690635708447d90602401602060405180830381865afa15801561089b573d6000803e3d6000fd5b505050506040513d601f19601f820116820180604052508101906108bf919061207d565b90505b60006108ce88846111fa565b905060006108dc600561168f565b905060008167ffffffffffffffff8111156108f9576108f9611ced565b604051908082528060200260200182016040528015610922578160200160208202803683370190505b50905060005b828110156109fb57600061093d600583611699565b604051635708447d60e01b81526001600160a01b037f00000000000000000000000000000000000000000000000000000000000000008116600483015291925090821690635708447d90602401602060405180830381865afa1580156109a7573d6000803e3d6000fd5b505050506040513d601f19601f820116820180604052508101906109cb919061207d565b8383815181106109dd576109dd61204c565b602090810291909101015250806109f381612062565b915050610928565b50610a078482856116a5565b9399929850929650945092505050565b604080516001808252818301909252600091829190602080830190803683370190505090508281600081518110610a5057610a5061204c565b60200260200101906001600160a01b031690816001600160a01b0316815250506000610a7b8261051c565b905080600081518110610a9057610a9061204c565b602002602001015192505050919050565b600054604080518082019091526002815261033360f41b6020820152906001600160a01b03163314610ae65760405162461bcd60e51b815260040161041d9190611fb2565b50604080518082019091526002815261333160f01b602082015281610b1e5760405162461bcd60e51b815260040161041d9190611fb2565b50604080518082019091526002815261333160f01b602082015267016345785d8a00008210610b605760405162461bcd60e51b815260040161041d9190611fb2565b50600455565b6060610b72600561170f565b905090565b600054604080518082019091526002815261033360f41b6020820152906001600160a01b03163314610bbc5760405162461bcd60e51b815260040161041d9190611fb2565b50610bc860058261103b565b506040516001600160a01b03821681527fb7f10b8974f181778e2544b4188359b499da116029e96c6a05bed5cdecee106490602001610468565b6060610b72600961170f565b600054604080518082019091526002815261033360f41b6020820152906001600160a01b03163314610c535760405162461bcd60e51b815260040161041d9190611fb2565b50610c5f60098261171c565b506040516001600160a01b03821681527fa67cac4de4567bfe36d7fa182b8455fd3e7d1b80c45191dd2b6dd5310a35306690602001610468565b600054604080518082019091526002815261033360f41b6020820152906001600160a01b03163314610cde5760405162461bcd60e51b815260040161041d9190611fb2565b50600280546001600160a01b0319166001600160a01b0383169081179091556040517f8bdf8e573e1e6b8aba457bd2a4fed210b28b0ed18344a7c4bb4bd1e87f6e1fb790600090a250565b600054604080518082019091526002815261033360f41b6020820152906001600160a01b03163314610d6e5760405162461bcd60e51b815260040161041d9190611fb2565b50610d7a60078261171c565b506040516001600160a01b03821681527f612ac93ad02ac7669d13be8835bb33d5c6d42bb4c46f0cdb717681ebd2b6455790602001610468565b6060610b72600761170f565b600054604080518082019091526002815261033360f41b6020820152906001600160a01b03163314610e055760405162461bcd60e51b815260040161041d9190611fb2565b50610e1160058261171c565b506040516001600160a01b03821681527f8696120fb7656955ec406c2959998de0aa9798518606d5afb5f36789f522dfea90602001610468565b600054604080518082019091526002815261033360f41b6020820152906001600160a01b03163314610e905760405162461bcd60e51b815260040161041d9190611fb2565b50604080518082019091526002815261333160f01b60208201526001600160a01b038216610ed15760405162461bcd60e51b815260040161041d9190611fb2565b50600180546001600160a01b0319166001600160a01b0383169081179091556040519081527f67235ba2e63c748a35b95c4f92a3bbc2a1389938170a5ce6c9add5d0b03a314a90602001610468565b600054604080518082019091526002815261033360f41b6020820152906001600160a01b03163314610f655760405162461bcd60e51b815260040161041d9190611fb2565b50610f7160078261103b565b506040516001600160a01b03821681527ffab625e04bc6eeef38aaf5c2e48b1f1953cf5183297f4115f0da9e906d4bf3ac90602001610468565b600054604080518082019091526002815261033360f41b6020820152906001600160a01b03163314610ff05760405162461bcd60e51b815260040161041d9190611fb2565b50600380546001600160a01b0319166001600160a01b0383169081179091556040517f99e4ac532391c2555b226b3d66f3d643e9256788b0c246834c1aaebfad90bd0190600090a250565b6000611050836001600160a01b038416611731565b9392505050565b600061106282611780565b506002825161107191906120ac565b156110a257816002835161108591906120c0565b815181106110955761109561204c565b602002602001015161064d565b61064d826001600285516110b691906120c0565b6110c09190612035565b815181106110d0576110d061204c565b602002602001015183600285516110e791906120c0565b815181106110f7576110f761204c565b602002602001015161179f565b6000808260008151811061111a5761111a61204c565b6020908102919091010151905060001960015b84518110156111cb57828582815181106111495761114961204c565b6020026020010151101561117b5782915084818151811061116c5761116c61204c565b602002602001015192506111b9565b8185828151811061118e5761118e61204c565b602002602001015110156111b9578481815181106111ae576111ae61204c565b602002602001015191505b806111c381612062565b91505061112d565b508351600114156111e95783600081518110610a9057610a9061204c565b835160021415611050575092915050565b60606000611208600761168f565b67ffffffffffffffff81111561122057611220611ced565b604051908082528060200260200182016040528015611249578160200160208202803683370190505b5090506000805b85518110156115e9576000805b611267600961168f565b81101561159c57600061127b600983611699565b9050806001600160a01b03168985815181106112995761129961204c565b60200260200101516001600160a01b03161480611358575060035489516001600160a01b0390911690639446994a908b90879081106112da576112da61204c565b6020026020010151836040518363ffffffff1660e01b81526004016113159291906001600160a01b0392831681529116602082015260400190565b602060405180830381865afa158015611332573d6000803e3d6000fd5b505050506040513d601f19601f8201168201806040525081019061135691906120d4565b155b15611363575061158a565b60035489516000916001600160a01b031690639b56e6a7908c908890811061138d5761138d61204c565b6020026020010151846040518363ffffffff1660e01b81526004016113c89291906001600160a01b0392831681529116602082015260400190565b602060405180830381865afa1580156113e5573d6000803e3d6000fd5b505050506040513d601f19601f82011682018060405250810190611409919061207d565b90507f00000000000000000000000000000000000000000000000000000000000000006001600160a01b03168a86815181106114475761144761204c565b60200260200101516001600160a01b031614801561146b575061146b6007836117ba565b156114a057808787815181106114835761148361204c565b60209081029190910101528561149881612062565b96505061154b565b7f00000000000000000000000000000000000000000000000000000000000000006001600160a01b0316826001600160a01b031614801561150957506115098a86815181106114f1576114f161204c565b602002602001015160076117ba90919063ffffffff16565b1561154b57611520670de0b6b3a7640000826117dc565b8787815181106115325761153261204c565b60209081029190910101528561154781612062565b9650505b6000611558838c8c611844565b905061157e8a878151811061156f5761156f61204c565b6020026020010151828461192f565b6001945050505061159c565b8061159481612062565b91505061125d565b50604080518082019091526002815261034360f41b6020820152816115d45760405162461bcd60e51b815260040161041d9190611fb2565b505080806115e190612062565b915050611250565b5060008167ffffffffffffffff81111561160557611605611ced565b60405190808252806020026020018201604052801561162e578160200160208202803683370190505b50905060005b828110156116855783818151811061164e5761164e61204c565b60200260200101518282815181106116685761166861204c565b60209081029190910101528061167d81612062565b915050611634565b5095945050505050565b600061064d825490565b600061105083836119a1565b60006116b18383610534565b905060006116bf85836119cb565b90506802b5e3af16b188000081111560405180604001604052806002815260200161343560f01b815250906117075760405162461bcd60e51b815260040161041d9190611fb2565b505050505050565b60606000611050836119ee565b6000611050836001600160a01b038416611a4a565b60008181526001830160205260408120546117785750815460018181018455600084815260208082209093018490558454848252828601909352604090209190915561064d565b50600061064d565b606061179b826000600185516117969190612035565b611b3d565b5090565b60006117ae60028484186120c0565b6110509084841661201d565b6001600160a01b03811660009081526001830160205260408120541515611050565b604080518082019091526002815261323560f01b6020820152600090826118165760405162461bcd60e51b815260040161041d9190611fb2565b50826118245750600061064d565b6000611838670de0b6b3a7640000856120f6565b905061054a83826120c0565b6000805b83518110156118b857846001600160a01b031684828151811061186d5761186d61204c565b60200260200101516001600160a01b031614156118a6578281815181106118965761189661204c565b6020026020010151915050611050565b806118b081612062565b915050611848565b50600254604051635708447d60e01b81526001600160a01b03868116600483015290911690635708447d90602401602060405180830381865afa158015611903573d6000803e3d6000fd5b505050506040513d601f19601f82011682018060405250810190611927919061207d565b949350505050565b600061193b84846117dc565b9050600061194983836119cb565b9050600061195782856117dc565b905060045481111560405180604001604052806002815260200161343160f01b815250906119985760405162461bcd60e51b815260040161041d9190611fb2565b50505050505050565b60008260000182815481106119b8576119b861204c565b9060005260206000200154905092915050565b6000818310156119e4576119df8383612035565b611050565b6110508284612035565b606081600001805480602002602001604051908101604052809291908181526020018280548015611a3e57602002820191906000526020600020905b815481526020019060010190808311611a2a575b50505050509050919050565b60008181526001830160205260408120548015611b33576000611a6e600183612035565b8554909150600090611a8290600190612035565b9050818114611ae7576000866000018281548110611aa257611aa261204c565b9060005260206000200154905080876000018481548110611ac557611ac561204c565b6000918252602080832090910192909255918252600188019052604090208390555b8554869080611af857611af8612115565b60019003818190600052602060002001600090559055856001016000868152602001908152602001600020600090556001935050505061064d565b600091505061064d565b818180821415611b4e575050505050565b6000856002611b5d878761212b565b611b67919061216a565b611b719087612198565b81518110611b8157611b8161204c565b602002602001015190505b818313611c90575b80868481518110611ba757611ba761204c565b60200260200101511015611bc75782611bbf816121d9565b935050611b94565b858281518110611bd957611bd961204c565b6020026020010151811015611bfa5781611bf2816121f2565b925050611bc7565b818313611c8b57858281518110611c1357611c1361204c565b6020026020010151868481518110611c2d57611c2d61204c565b6020026020010151878581518110611c4757611c4761204c565b60200260200101888581518110611c6057611c6061204c565b60209081029190910101919091525282611c79816121d9565b9350508180611c87906121f2565b9250505b611b8c565b81851215611ca357611ca3868684611b3d565b8383121561170757611707868486611b3d565b80356001600160a01b0381168114611ccd57600080fd5b919050565b600060208284031215611ce457600080fd5b61105082611cb6565b634e487b7160e01b600052604160045260246000fd5b604051601f8201601f1916810167ffffffffffffffff81118282101715611d2c57611d2c611ced565b604052919050565b600067ffffffffffffffff821115611d4e57611d4e611ced565b5060051b60200190565b60006020808385031215611d6b57600080fd5b823567ffffffffffffffff811115611d8257600080fd5b8301601f81018513611d9357600080fd5b8035611da6611da182611d34565b611d03565b81815260059190911b82018301908381019087831115611dc557600080fd5b928401925b82841015611dea57611ddb84611cb6565b82529284019290840190611dca565b979650505050505050565b600081518084526020808501945080840160005b83811015611e2557815187529582019590820190600101611e09565b509495945050505050565b6020815260006110506020830184611df5565b600082601f830112611e5457600080fd5b81356020611e64611da183611d34565b82815260059290921b84018101918181019086841115611e8357600080fd5b8286015b84811015611e9e5780358352918301918301611e87565b509695505050505050565b60008060408385031215611ebc57600080fd5b823567ffffffffffffffff80821115611ed457600080fd5b611ee086838701611e43565b93506020850135915080821115611ef657600080fd5b50611f0385828601611e43565b9150509250929050565b608081526000611f206080830187611df5565b8560208401528281036040840152611f388186611df5565b90508281036060840152611dea8185611df5565b600060208284031215611f5e57600080fd5b5035919050565b6020808252825182820181905260009190848201906040850190845b81811015611fa65783516001600160a01b031683529284019291840191600101611f81565b50909695505050505050565b600060208083528351808285015260005b81811015611fdf57858101830151858201604001528201611fc3565b81811115611ff1576000604083870101525b50601f01601f1916929092016040019392505050565b634e487b7160e01b600052601160045260246000fd5b6000821982111561203057612030612007565b500190565b60008282101561204757612047612007565b500390565b634e487b7160e01b600052603260045260246000fd5b600060001982141561207657612076612007565b5060010190565b60006020828403121561208f57600080fd5b5051919050565b634e487b7160e01b600052601260045260246000fd5b6000826120bb576120bb612096565b500690565b6000826120cf576120cf612096565b500490565b6000602082840312156120e657600080fd5b8151801515811461105057600080fd5b600081600019048311821515161561211057612110612007565b500290565b634e487b7160e01b600052603160045260246000fd5b60008083128015600160ff1b85018412161561214957612149612007565b6001600160ff1b038401831381161561216457612164612007565b50500390565b60008261217957612179612096565b600160ff1b82146000198414161561219357612193612007565b500590565b600080821280156001600160ff1b03849003851316156121ba576121ba612007565b600160ff1b83900384128116156121d3576121d3612007565b50500190565b60006001600160ff1b0382141561207657612076612007565b6000600160ff1b82141561220857612208612007565b50600019019056fea2646970667358221220b545888583e373e1c19cab07d8eb36aaae1c49cc099a5e94d53f9ba54e46800164736f6c634300080a0033","bytecodeSha1":"d51f50eb8a33f504b17f41e5be50a4c9b34d269b","compiler":{"evm_version":"istanbul","optimizer":{"enabled":true,"runs":200},"version":"0.8.10+commit.fc410830"},"contractName":"CheckedPriceOracle","language":"Solidity","natspec":{"kind":"dev","methods":{"acceptGovernance()":{"notice":"Called by the pending governor to approve the change"},"changeGovernor(address)":{"notice":"Changes the governor can only be called by the current governor"},"constructor":{"notice":"_usdOracle is for Chainlink"},"getPriceUSD(address)":{"notice":"Quotes the USD price of `tokenAddress` The quoted price is always scaled with 18 decimals regardless of the source used for the oracle.","params":{"tokenAddress":"the asset of which the price is to be quoted"},"returns":{"_0":"the USD price of the asset"}},"getPricesUSD(address[])":{"notice":"Quotes the USD price of `baseAssets` The quoted prices is always scaled with 18 decimals regardless of the source used for the oracle.","params":{"baseAssets":"the assets of which the price is to be quoted"},"returns":{"_0":"the USD prices of the asset"}},"getRobustWETHPrice(uint256[],uint256[])":{"notice":"this function provides an estimate of the true WETH price. 1. Find the minimum TWAP price (or second minumum if >2 TWAP prices) from a given array. 2. Add this to an array of signed prices 3. Compute the median of this array","params":{"signedPrices":"an array of prices from trusted providers (e.g. Chainlink, Coinbase, OKEx ETH/USD price)","twapPrices":"an array of Time Weighted Moving Average ETH/stablecoin prices"}},"governor()":{"notice":"Returns the current governor"},"pendingGovernor()":{"notice":"Returns the pending governor"}},"stateVariables":{"assetsForRelativePriceCheck":{"details":"This list is used to check if the relative price of the tokens are consistent"}},"version":1},"opcodes":"PUSH1 0x80 PUSH1 0x40 MSTORE CALLVALUE DUP1 ISZERO PUSH2 0x10 JUMPI PUSH1 0x0 DUP1 REVERT JUMPDEST POP PUSH1 0x4 CALLDATASIZE LT PUSH2 0x1A9 JUMPI PUSH1 0x0 CALLDATALOAD PUSH1 0xE0 SHR DUP1 PUSH4 0x7CD8C1D0 GT PUSH2 0xF9 JUMPI DUP1 PUSH4 0xE1818960 GT PUSH2 0x97 JUMPI DUP1 PUSH4 0xE4C0AAF4 GT PUSH2 0x71 JUMPI DUP1 PUSH4 0xE4C0AAF4 EQ PUSH2 0x390 JUMPI DUP1 PUSH4 0xE4DD02C3 EQ PUSH2 0x3A3 JUMPI DUP1 PUSH4 0xE72A49D0 EQ PUSH2 0x3B6 JUMPI DUP1 PUSH4 0xE7F9E320 EQ PUSH2 0x3C5 JUMPI PUSH1 0x0 DUP1 REVERT JUMPDEST DUP1 PUSH4 0xE1818960 EQ PUSH2 0x361 JUMPI DUP1 PUSH4 0xE3056A34 EQ PUSH2 0x36A JUMPI DUP1 PUSH4 0xE3A07621 EQ PUSH2 0x37D JUMPI PUSH1 0x0 DUP1 REVERT JUMPDEST DUP1 PUSH4 0xB55B3F1B GT PUSH2 0xD3 JUMPI DUP1 PUSH4 0xB55B3F1B EQ PUSH2 0x325 JUMPI DUP1 PUSH4 0xC8A4271F EQ PUSH2 0x333 JUMPI DUP1 PUSH4 0xD8F4A0AA EQ PUSH2 0x346 JUMPI DUP1 PUSH4 0xE0DCD3C3 EQ PUSH2 0x359 JUMPI PUSH1 0x0 DUP1 REVERT JUMPDEST DUP1 PUSH4 0x7CD8C1D0 EQ PUSH2 0x2EF JUMPI DUP1 PUSH4 0xA0B90F00 EQ PUSH2 0x302 JUMPI DUP1 PUSH4 0xA7ED2A79 EQ PUSH2 0x315 JUMPI PUSH1 0x0 DUP1 REVERT JUMPDEST DUP1 PUSH4 0x442AAE79 GT PUSH2 0x166 JUMPI DUP1 PUSH4 0x57AE3389 GT PUSH2 0x140 JUMPI DUP1 PUSH4 0x57AE3389 EQ PUSH2 0x2AC JUMPI DUP1 PUSH4 0x64B45090 EQ PUSH2 0x2BF JUMPI DUP1 PUSH4 0x75CEEBD0 EQ PUSH2 0x2D4 JUMPI DUP1 PUSH4 0x765AFF1E EQ PUSH2 0x2E7 JUMPI PUSH1 0x0 DUP1 REVERT JUMPDEST DUP1 PUSH4 0x442AAE79 EQ PUSH2 0x25F JUMPI DUP1 PUSH4 0x4F0E0EF3 EQ PUSH2 0x272 JUMPI DUP1 PUSH4 0x5708447D EQ PUSH2 0x299 JUMPI PUSH1 0x0 DUP1 REVERT JUMPDEST DUP1 PUSH4 0x317CA7C EQ PUSH2 0x1AE JUMPI DUP1 PUSH4 0xC340A24 EQ PUSH2 0x1C3 JUMPI DUP1 PUSH4 0x238EFCBC EQ PUSH2 0x1F3 JUMPI DUP1 PUSH4 0x2AF31283 EQ PUSH2 0x1FB JUMPI DUP1 PUSH4 0x2E191ED7 EQ PUSH2 0x21B JUMPI DUP1 PUSH4 0x3BB8C3BC EQ PUSH2 0x23C JUMPI JUMPDEST PUSH1 0x0 DUP1 REVERT JUMPDEST PUSH2 0x1C1 PUSH2 0x1BC CALLDATASIZE PUSH1 0x4 PUSH2 0x1CD2 JUMP JUMPDEST PUSH2 0x3D8 JUMP JUMPDEST STOP JUMPDEST PUSH1 0x0 SLOAD PUSH2 0x1D6 SWAP1 PUSH1 0x1 PUSH1 0x1 PUSH1 0xA0 SHL SUB AND DUP2 JUMP JUMPDEST PUSH1 0x40 MLOAD PUSH1 0x1 PUSH1 0x1 PUSH1 0xA0 SHL SUB SWAP1 SWAP2 AND DUP2 MSTORE PUSH1 0x20 ADD JUMPDEST PUSH1 0x40 MLOAD DUP1 SWAP2 SUB SWAP1 RETURN JUMPDEST PUSH2 0x1C1 PUSH2 0x473 JUMP JUMPDEST PUSH2 0x20E PUSH2 0x209 CALLDATASIZE PUSH1 0x4 PUSH2 0x1D58 JUMP JUMPDEST PUSH2 0x51C JUMP JUMPDEST PUSH1 0x40 MLOAD PUSH2 0x1EA SWAP2 SWAP1 PUSH2 0x1E30 JUMP JUMPDEST PUSH2 0x22E PUSH2 0x229 CALLDATASIZE PUSH1 0x4 PUSH2 0x1EA9 JUMP JUMPDEST PUSH2 0x534 JUMP JUMPDEST PUSH1 0x40 MLOAD SWAP1 DUP2 MSTORE PUSH1 0x20 ADD PUSH2 0x1EA JUMP JUMPDEST PUSH2 0x24F PUSH2 0x24A CALLDATASIZE PUSH1 0x4 PUSH2 0x1D58 JUMP JUMPDEST PUSH2 0x653 JUMP JUMPDEST PUSH1 0x40 MLOAD PUSH2 0x1EA SWAP5 SWAP4 SWAP3 SWAP2 SWAP1 PUSH2 0x1F0D JUMP JUMPDEST PUSH1 0x3 SLOAD PUSH2 0x1D6 SWAP1 PUSH1 0x1 PUSH1 0x1 PUSH1 0xA0 SHL SUB AND DUP2 JUMP JUMPDEST PUSH2 0x1D6 PUSH32 0x0 DUP2 JUMP JUMPDEST PUSH2 0x22E PUSH2 0x2A7 CALLDATASIZE PUSH1 0x4 PUSH2 0x1CD2 JUMP JUMPDEST PUSH2 0xA17 JUMP JUMPDEST PUSH2 0x1C1 PUSH2 0x2BA CALLDATASIZE PUSH1 0x4 PUSH2 0x1F4C JUMP JUMPDEST PUSH2 0xAA1 JUMP JUMPDEST PUSH2 0x2C7 PUSH2 0xB66 JUMP JUMPDEST PUSH1 0x40 MLOAD PUSH2 0x1EA SWAP2 SWAP1 PUSH2 0x1F65 JUMP JUMPDEST PUSH2 0x1C1 PUSH2 0x2E2 CALLDATASIZE PUSH1 0x4 PUSH2 0x1CD2 JUMP JUMPDEST PUSH2 0xB77 JUMP JUMPDEST PUSH2 0x2C7 PUSH2 0xC02 JUMP JUMPDEST PUSH2 0x1C1 PUSH2 0x2FD CALLDATASIZE PUSH1 0x4 PUSH2 0x1CD2 JUMP JUMPDEST PUSH2 0xC0E JUMP JUMPDEST PUSH2 0x1C1 PUSH2 0x310 CALLDATASIZE PUSH1 0x4 PUSH2 0x1CD2 JUMP JUMPDEST PUSH2 0xC99 JUMP JUMPDEST PUSH2 0x22E PUSH9 0x2B5E3AF16B1880000 DUP2 JUMP JUMPDEST PUSH2 0x22E PUSH7 0x470DE4DF820000 DUP2 JUMP JUMPDEST PUSH1 0x2 SLOAD PUSH2 0x1D6 SWAP1 PUSH1 0x1 PUSH1 0x1 PUSH1 0xA0 SHL SUB AND DUP2 JUMP JUMPDEST PUSH2 0x1C1 PUSH2 0x354 CALLDATASIZE PUSH1 0x4 PUSH2 0x1CD2 JUMP JUMPDEST PUSH2 0xD29 JUMP JUMPDEST PUSH2 0x2C7 PUSH2 0xDB4 JUMP JUMPDEST PUSH2 0x22E PUSH1 0x4 SLOAD DUP2 JUMP JUMPDEST PUSH1 0x1 SLOAD PUSH2 0x1D6 SWAP1 PUSH1 0x1 PUSH1 0x1 PUSH1 0xA0 SHL SUB AND DUP2 JUMP JUMPDEST PUSH2 0x1C1 PUSH2 0x38B CALLDATASIZE PUSH1 0x4 PUSH2 0x1CD2 JUMP JUMPDEST PUSH2 0xDC0 JUMP JUMPDEST PUSH2 0x1C1 PUSH2 0x39E CALLDATASIZE PUSH1 0x4 PUSH2 0x1CD2 JUMP JUMPDEST PUSH2 0xE4B JUMP JUMPDEST PUSH2 0x1C1 PUSH2 0x3B1 CALLDATASIZE PUSH1 0x4 PUSH2 0x1CD2 JUMP JUMPDEST PUSH2 0xF20 JUMP JUMPDEST PUSH2 0x22E PUSH8 0x16345785D8A0000 DUP2 JUMP JUMPDEST PUSH2 0x1C1 PUSH2 0x3D3 CALLDATASIZE PUSH1 0x4 PUSH2 0x1CD2 JUMP JUMPDEST PUSH2 0xFAB JUMP JUMPDEST PUSH1 0x0 SLOAD PUSH1 0x40 DUP1 MLOAD DUP1 DUP3 ADD SWAP1 SWAP2 MSTORE PUSH1 0x2 DUP2 MSTORE PUSH2 0x333 PUSH1 0xF4 SHL PUSH1 0x20 DUP3 ADD MSTORE SWAP1 PUSH1 0x1 PUSH1 0x1 PUSH1 0xA0 SHL SUB AND CALLER EQ PUSH2 0x426 JUMPI PUSH1 0x40 MLOAD PUSH3 0x461BCD PUSH1 0xE5 SHL DUP2 MSTORE PUSH1 0x4 ADD PUSH2 0x41D SWAP2 SWAP1 PUSH2 0x1FB2 JUMP JUMPDEST PUSH1 0x40 MLOAD DUP1 SWAP2 SUB SWAP1 REVERT JUMPDEST POP PUSH2 0x432 PUSH1 0x9 DUP3 PUSH2 0x103B JUMP JUMPDEST POP PUSH1 0x40 MLOAD PUSH1 0x1 PUSH1 0x1 PUSH1 0xA0 SHL SUB DUP3 AND DUP2 MSTORE PUSH32 0x150F6605E7FC997B9EF5BED4E904EEF6E3F887A080D2F7010632435B47F67ADC SWAP1 PUSH1 0x20 ADD JUMPDEST PUSH1 0x40 MLOAD DUP1 SWAP2 SUB SWAP1 LOG1 POP JUMP JUMPDEST PUSH1 0x1 SLOAD PUSH1 0x40 DUP1 MLOAD DUP1 DUP3 ADD SWAP1 SWAP2 MSTORE PUSH1 0x2 DUP2 MSTORE PUSH2 0x333 PUSH1 0xF4 SHL PUSH1 0x20 DUP3 ADD MSTORE SWAP1 PUSH1 0x1 PUSH1 0x1 PUSH1 0xA0 SHL SUB AND CALLER EQ PUSH2 0x4B8 JUMPI PUSH1 0x40 MLOAD PUSH3 0x461BCD PUSH1 0xE5 SHL DUP2 MSTORE PUSH1 0x4 ADD PUSH2 0x41D SWAP2 SWAP1 PUSH2 0x1FB2 JUMP JUMPDEST POP PUSH1 0x0 DUP1 SLOAD PUSH1 0x1 DUP1 SLOAD PUSH1 0x1 PUSH1 0x1 PUSH1 0xA0 SHL SUB NOT DUP1 DUP5 AND PUSH1 0x1 PUSH1 0x1 PUSH1 0xA0 SHL SUB DUP1 DUP5 AND SWAP2 SWAP1 SWAP2 OR SWAP1 SWAP6 SSTORE AND SWAP1 SSTORE PUSH1 0x40 DUP1 MLOAD SWAP3 SWAP1 SWAP2 AND DUP1 DUP4 MSTORE CALLER PUSH1 0x20 DUP5 ADD MSTORE SWAP2 PUSH32 0xDE4B3F61490B74C0ED6237523974FE299126BBBF8A8A7482FD220104C59B0C84 SWAP2 ADD PUSH2 0x468 JUMP JUMPDEST PUSH1 0x60 PUSH1 0x0 PUSH2 0x529 DUP4 PUSH2 0x653 JUMP JUMPDEST POP SWAP2 SWAP6 SWAP5 POP POP POP POP POP JUMP JUMPDEST PUSH1 0x0 DUP1 DUP3 MLOAD PUSH1 0x0 EQ ISZERO PUSH2 0x552 JUMPI PUSH2 0x54A DUP5 PUSH2 0x1057 JUMP JUMPDEST SWAP2 POP POP PUSH2 0x64D JUMP JUMPDEST PUSH2 0x55B DUP4 PUSH2 0x1104 JUMP JUMPDEST SWAP1 POP PUSH1 0x0 DUP5 MLOAD PUSH1 0x1 PUSH2 0x56D SWAP2 SWAP1 PUSH2 0x201D JUMP JUMPDEST PUSH8 0xFFFFFFFFFFFFFFFF DUP2 GT ISZERO PUSH2 0x585 JUMPI PUSH2 0x585 PUSH2 0x1CED JUMP JUMPDEST PUSH1 0x40 MLOAD SWAP1 DUP1 DUP3 MSTORE DUP1 PUSH1 0x20 MUL PUSH1 0x20 ADD DUP3 ADD PUSH1 0x40 MSTORE DUP1 ISZERO PUSH2 0x5AE JUMPI DUP2 PUSH1 0x20 ADD PUSH1 0x20 DUP3 MUL DUP1 CALLDATASIZE DUP4 CALLDATACOPY ADD SWAP1 POP JUMPDEST POP SWAP1 POP DUP2 DUP2 PUSH1 0x1 DUP4 MLOAD PUSH2 0x5C1 SWAP2 SWAP1 PUSH2 0x2035 JUMP JUMPDEST DUP2 MLOAD DUP2 LT PUSH2 0x5D1 JUMPI PUSH2 0x5D1 PUSH2 0x204C JUMP JUMPDEST PUSH1 0x20 MUL PUSH1 0x20 ADD ADD DUP2 DUP2 MSTORE POP POP PUSH1 0x0 JUMPDEST PUSH1 0x1 DUP3 MLOAD PUSH2 0x5EE SWAP2 SWAP1 PUSH2 0x2035 JUMP JUMPDEST DUP2 LT ISZERO PUSH2 0x63E JUMPI DUP6 DUP2 DUP2 MLOAD DUP2 LT PUSH2 0x607 JUMPI PUSH2 0x607 PUSH2 0x204C JUMP JUMPDEST PUSH1 0x20 MUL PUSH1 0x20 ADD ADD MLOAD DUP3 DUP3 DUP2 MLOAD DUP2 LT PUSH2 0x621 JUMPI PUSH2 0x621 PUSH2 0x204C JUMP JUMPDEST PUSH1 0x20 SWAP1 DUP2 MUL SWAP2 SWAP1 SWAP2 ADD ADD MSTORE DUP1 PUSH2 0x636 DUP2 PUSH2 0x2062 JUMP JUMPDEST SWAP2 POP POP PUSH2 0x5E0 JUMP JUMPDEST POP PUSH2 0x648 DUP2 PUSH2 0x1057 JUMP JUMPDEST SWAP3 POP POP POP JUMPDEST SWAP3 SWAP2 POP POP JUMP JUMPDEST PUSH1 0x60 PUSH1 0x0 PUSH1 0x60 DUP1 PUSH1 0x0 DUP6 MLOAD GT PUSH1 0x40 MLOAD DUP1 PUSH1 0x40 ADD PUSH1 0x40 MSTORE DUP1 PUSH1 0x2 DUP2 MSTORE PUSH1 0x20 ADD PUSH2 0x3331 PUSH1 0xF0 SHL DUP2 MSTORE POP SWAP1 PUSH2 0x698 JUMPI PUSH1 0x40 MLOAD PUSH3 0x461BCD PUSH1 0xE5 SHL DUP2 MSTORE PUSH1 0x4 ADD PUSH2 0x41D SWAP2 SWAP1 PUSH2 0x1FB2 JUMP JUMPDEST POP PUSH1 0x0 DUP6 MLOAD PUSH8 0xFFFFFFFFFFFFFFFF DUP2 GT ISZERO PUSH2 0x6B5 JUMPI PUSH2 0x6B5 PUSH2 0x1CED JUMP JUMPDEST PUSH1 0x40 MLOAD SWAP1 DUP1 DUP3 MSTORE DUP1 PUSH1 0x20 MUL PUSH1 0x20 ADD DUP3 ADD PUSH1 0x40 MSTORE DUP1 ISZERO PUSH2 0x6DE JUMPI DUP2 PUSH1 0x20 ADD PUSH1 0x20 DUP3 MUL DUP1 CALLDATASIZE DUP4 CALLDATACOPY ADD SWAP1 POP JUMPDEST POP SWAP1 POP PUSH1 0x0 DUP1 JUMPDEST DUP8 MLOAD DUP2 LT ISZERO PUSH2 0x82B JUMPI PUSH1 0x2 SLOAD DUP9 MLOAD PUSH1 0x1 PUSH1 0x1 PUSH1 0xA0 SHL SUB SWAP1 SWAP2 AND SWAP1 PUSH4 0x5708447D SWAP1 DUP11 SWAP1 DUP5 SWAP1 DUP2 LT PUSH2 0x717 JUMPI PUSH2 0x717 PUSH2 0x204C JUMP JUMPDEST PUSH1 0x20 MUL PUSH1 0x20 ADD ADD MLOAD PUSH1 0x40 MLOAD DUP3 PUSH4 0xFFFFFFFF AND PUSH1 0xE0 SHL DUP2 MSTORE PUSH1 0x4 ADD PUSH2 0x74A SWAP2 SWAP1 PUSH1 0x1 PUSH1 0x1 PUSH1 0xA0 SHL SUB SWAP2 SWAP1 SWAP2 AND DUP2 MSTORE PUSH1 0x20 ADD SWAP1 JUMP JUMPDEST PUSH1 0x20 PUSH1 0x40 MLOAD DUP1 DUP4 SUB DUP2 DUP7 GAS STATICCALL ISZERO DUP1 ISZERO PUSH2 0x767 JUMPI RETURNDATASIZE PUSH1 0x0 DUP1 RETURNDATACOPY RETURNDATASIZE PUSH1 0x0 REVERT JUMPDEST POP POP POP POP PUSH1 0x40 MLOAD RETURNDATASIZE PUSH1 0x1F NOT PUSH1 0x1F DUP3 ADD AND DUP3 ADD DUP1 PUSH1 0x40 MSTORE POP DUP2 ADD SWAP1 PUSH2 0x78B SWAP2 SWAP1 PUSH2 0x207D JUMP JUMPDEST DUP4 DUP3 DUP2 MLOAD DUP2 LT PUSH2 0x79D JUMPI PUSH2 0x79D PUSH2 0x204C JUMP JUMPDEST PUSH1 0x20 MUL PUSH1 0x20 ADD ADD DUP2 DUP2 MSTORE POP POP PUSH32 0x0 PUSH1 0x1 PUSH1 0x1 PUSH1 0xA0 SHL SUB AND DUP9 DUP3 DUP2 MLOAD DUP2 LT PUSH2 0x7E5 JUMPI PUSH2 0x7E5 PUSH2 0x204C JUMP JUMPDEST PUSH1 0x20 MUL PUSH1 0x20 ADD ADD MLOAD PUSH1 0x1 PUSH1 0x1 PUSH1 0xA0 SHL SUB AND EQ ISZERO PUSH2 0x819 JUMPI DUP3 DUP2 DUP2 MLOAD DUP2 LT PUSH2 0x80E JUMPI PUSH2 0x80E PUSH2 0x204C JUMP JUMPDEST PUSH1 0x20 MUL PUSH1 0x20 ADD ADD MLOAD SWAP2 POP JUMPDEST DUP1 PUSH2 0x823 DUP2 PUSH2 0x2062 JUMP JUMPDEST SWAP2 POP POP PUSH2 0x6E5 JUMP JUMPDEST POP DUP1 PUSH2 0x8C2 JUMPI PUSH1 0x2 SLOAD PUSH1 0x40 MLOAD PUSH4 0x5708447D PUSH1 0xE0 SHL DUP2 MSTORE PUSH1 0x1 PUSH1 0x1 PUSH1 0xA0 SHL SUB PUSH32 0x0 DUP2 AND PUSH1 0x4 DUP4 ADD MSTORE SWAP1 SWAP2 AND SWAP1 PUSH4 0x5708447D SWAP1 PUSH1 0x24 ADD PUSH1 0x20 PUSH1 0x40 MLOAD DUP1 DUP4 SUB DUP2 DUP7 GAS STATICCALL ISZERO DUP1 ISZERO PUSH2 0x89B JUMPI RETURNDATASIZE PUSH1 0x0 DUP1 RETURNDATACOPY RETURNDATASIZE PUSH1 0x0 REVERT JUMPDEST POP POP POP POP PUSH1 0x40 MLOAD RETURNDATASIZE PUSH1 0x1F NOT PUSH1 0x1F DUP3 ADD AND DUP3 ADD DUP1 PUSH1 0x40 MSTORE POP DUP2 ADD SWAP1 PUSH2 0x8BF SWAP2 SWAP1 PUSH2 0x207D JUMP JUMPDEST SWAP1 POP JUMPDEST PUSH1 0x0 PUSH2 0x8CE DUP9 DUP5 PUSH2 0x11FA JUMP JUMPDEST SWAP1 POP PUSH1 0x0 PUSH2 0x8DC PUSH1 0x5 PUSH2 0x168F JUMP JUMPDEST SWAP1 POP PUSH1 0x0 DUP2 PUSH8 0xFFFFFFFFFFFFFFFF DUP2 GT ISZERO PUSH2 0x8F9 JUMPI PUSH2 0x8F9 PUSH2 0x1CED JUMP JUMPDEST PUSH1 0x40 MLOAD SWAP1 DUP1 DUP3 MSTORE DUP1 PUSH1 0x20 MUL PUSH1 0x20 ADD DUP3 ADD PUSH1 0x40 MSTORE DUP1 ISZERO PUSH2 0x922 JUMPI DUP2 PUSH1 0x20 ADD PUSH1 0x20 DUP3 MUL DUP1 CALLDATASIZE DUP4 CALLDATACOPY ADD SWAP1 POP JUMPDEST POP SWAP1 POP PUSH1 0x0 JUMPDEST DUP3 DUP2 LT ISZERO PUSH2 0x9FB JUMPI PUSH1 0x0 PUSH2 0x93D PUSH1 0x5 DUP4 PUSH2 0x1699 JUMP JUMPDEST PUSH1 0x40 MLOAD PUSH4 0x5708447D PUSH1 0xE0 SHL DUP2 MSTORE PUSH1 0x1 PUSH1 0x1 PUSH1 0xA0 SHL SUB PUSH32 0x0 DUP2 AND PUSH1 0x4 DUP4 ADD MSTORE SWAP2 SWAP3 POP SWAP1 DUP3 AND SWAP1 PUSH4 0x5708447D SWAP1 PUSH1 0x24 ADD PUSH1 0x20 PUSH1 0x40 MLOAD DUP1 DUP4 SUB DUP2 DUP7 GAS STATICCALL ISZERO DUP1 ISZERO PUSH2 0x9A7 JUMPI RETURNDATASIZE PUSH1 0x0 DUP1 RETURNDATACOPY RETURNDATASIZE PUSH1 0x0 REVERT JUMPDEST POP POP POP POP PUSH1 0x40 MLOAD RETURNDATASIZE PUSH1 0x1F NOT PUSH1 0x1F DUP3 ADD AND DUP3 ADD DUP1 PUSH1 0x40 MSTORE POP DUP2 ADD SWAP1 PUSH2 0x9CB SWAP2 SWAP1 PUSH2 0x207D JUMP JUMPDEST DUP4 DUP4 DUP2 MLOAD DUP2 LT PUSH2 0x9DD JUMPI PUSH2 0x9DD PUSH2 0x204C JUMP JUMPDEST PUSH1 0x20 SWAP1 DUP2 MUL SWAP2 SWAP1 SWAP2 ADD ADD MSTORE POP DUP1 PUSH2 0x9F3 DUP2 PUSH2 0x2062 JUMP JUMPDEST SWAP2 POP POP PUSH2 0x928 JUMP JUMPDEST POP PUSH2 0xA07 DUP5 DUP3 DUP6 PUSH2 0x16A5 JUMP JUMPDEST SWAP4 SWAP10 SWAP3 SWAP9 POP SWAP3 SWAP7 POP SWAP5 POP SWAP3 POP POP POP JUMP JUMPDEST PUSH1 0x40 DUP1 MLOAD PUSH1 0x1 DUP1 DUP3 MSTORE DUP2 DUP4 ADD SWAP1 SWAP3 MSTORE PUSH1 0x0 SWAP2 DUP3 SWAP2 SWAP1 PUSH1 0x20 DUP1 DUP4 ADD SWAP1 DUP1 CALLDATASIZE DUP4 CALLDATACOPY ADD SWAP1 POP POP SWAP1 POP DUP3 DUP2 PUSH1 0x0 DUP2 MLOAD DUP2 LT PUSH2 0xA50 JUMPI PUSH2 0xA50 PUSH2 0x204C JUMP JUMPDEST PUSH1 0x20 MUL PUSH1 0x20 ADD ADD SWAP1 PUSH1 0x1 PUSH1 0x1 PUSH1 0xA0 SHL SUB AND SWAP1 DUP2 PUSH1 0x1 PUSH1 0x1 PUSH1 0xA0 SHL SUB AND DUP2 MSTORE POP POP PUSH1 0x0 PUSH2 0xA7B DUP3 PUSH2 0x51C JUMP JUMPDEST SWAP1 POP DUP1 PUSH1 0x0 DUP2 MLOAD DUP2 LT PUSH2 0xA90 JUMPI PUSH2 0xA90 PUSH2 0x204C JUMP JUMPDEST PUSH1 0x20 MUL PUSH1 0x20 ADD ADD MLOAD SWAP3 POP POP POP SWAP2 SWAP1 POP JUMP JUMPDEST PUSH1 0x0 SLOAD PUSH1 0x40 DUP1 MLOAD DUP1 DUP3 ADD SWAP1 SWAP2 MSTORE PUSH1 0x2 DUP2 MSTORE PUSH2 0x333 PUSH1 0xF4 SHL PUSH1 0x20 DUP3 ADD MSTORE SWAP1 PUSH1 0x1 PUSH1 0x1 PUSH1 0xA0 SHL SUB AND CALLER EQ PUSH2 0xAE6 JUMPI PUSH1 0x40 MLOAD PUSH3 0x461BCD PUSH1 0xE5 SHL DUP2 MSTORE PUSH1 0x4 ADD PUSH2 0x41D SWAP2 SWAP1 PUSH2 0x1FB2 JUMP JUMPDEST POP PUSH1 0x40 DUP1 MLOAD DUP1 DUP3 ADD SWAP1 SWAP2 MSTORE PUSH1 0x2 DUP2 MSTORE PUSH2 0x3331 PUSH1 0xF0 SHL PUSH1 0x20 DUP3 ADD MSTORE DUP2 PUSH2 0xB1E JUMPI PUSH1 0x40 MLOAD PUSH3 0x461BCD PUSH1 0xE5 SHL DUP2 MSTORE PUSH1 0x4 ADD PUSH2 0x41D SWAP2 SWAP1 PUSH2 0x1FB2 JUMP JUMPDEST POP PUSH1 0x40 DUP1 MLOAD DUP1 DUP3 ADD SWAP1 SWAP2 MSTORE PUSH1 0x2 DUP2 MSTORE PUSH2 0x3331 PUSH1 0xF0 SHL PUSH1 0x20 DUP3 ADD MSTORE PUSH8 0x16345785D8A0000 DUP3 LT PUSH2 0xB60 JUMPI PUSH1 0x40 MLOAD PUSH3 0x461BCD PUSH1 0xE5 SHL DUP2 MSTORE PUSH1 0x4 ADD PUSH2 0x41D SWAP2 SWAP1 PUSH2 0x1FB2 JUMP JUMPDEST POP PUSH1 0x4 SSTORE JUMP JUMPDEST PUSH1 0x60 PUSH2 0xB72 PUSH1 0x5 PUSH2 0x170F JUMP JUMPDEST SWAP1 POP SWAP1 JUMP JUMPDEST PUSH1 0x0 SLOAD PUSH1 0x40 DUP1 MLOAD DUP1 DUP3 ADD SWAP1 SWAP2 MSTORE PUSH1 0x2 DUP2 MSTORE PUSH2 0x333 PUSH1 0xF4 SHL PUSH1 0x20 DUP3 ADD MSTORE SWAP1 PUSH1 0x1 PUSH1 0x1 PUSH1 0xA0 SHL SUB AND CALLER EQ PUSH2 0xBBC JUMPI PUSH1 0x40 MLOAD PUSH3 0x461BCD PUSH1 0xE5 SHL DUP2 MSTORE PUSH1 0x4 ADD PUSH2 0x41D SWAP2 SWAP1 PUSH2 0x1FB2 JUMP JUMPDEST POP PUSH2 0xBC8 PUSH1 0x5 DUP3 PUSH2 0x103B JUMP JUMPDEST POP PUSH1 0x40 MLOAD PUSH1 0x1 PUSH1 0x1 PUSH1 0xA0 SHL SUB DUP3 AND DUP2 MSTORE PUSH32 0xB7F10B8974F181778E2544B4188359B499DA116029E96C6A05BED5CDECEE1064 SWAP1 PUSH1 0x20 ADD PUSH2 0x468 JUMP JUMPDEST PUSH1 0x60 PUSH2 0xB72 PUSH1 0x9 PUSH2 0x170F JUMP JUMPDEST PUSH1 0x0 SLOAD PUSH1 0x40 DUP1 MLOAD DUP1 DUP3 ADD SWAP1 SWAP2 MSTORE PUSH1 0x2 DUP2 MSTORE PUSH2 0x333 PUSH1 0xF4 SHL PUSH1 0x20 DUP3 ADD MSTORE SWAP1 PUSH1 0x1 PUSH1 0x1 PUSH1 0xA0 SHL SUB AND CALLER EQ PUSH2 0xC53 JUMPI PUSH1 0x40 MLOAD PUSH3 0x461BCD PUSH1 0xE5 SHL DUP2 MSTORE PUSH1 0x4 ADD PUSH2 0x41D SWAP2 SWAP1 PUSH2 0x1FB2 JUMP JUMPDEST POP PUSH2 0xC5F PUSH1 0x9 DUP3 PUSH2 0x171C JUMP JUMPDEST POP PUSH1 0x40 MLOAD PUSH1 0x1 PUSH1 0x1 PUSH1 0xA0 SHL SUB DUP3 AND DUP2 MSTORE PUSH32 0xA67CAC4DE4567BFE36D7FA182B8455FD3E7D1B80C45191DD2B6DD5310A353066 SWAP1 PUSH1 0x20 ADD PUSH2 0x468 JUMP JUMPDEST PUSH1 0x0 SLOAD PUSH1 0x40 DUP1 MLOAD DUP1 DUP3 ADD SWAP1 SWAP2 MSTORE PUSH1 0x2 DUP2 MSTORE PUSH2 0x333 PUSH1 0xF4 SHL PUSH1 0x20 DUP3 ADD MSTORE SWAP1 PUSH1 0x1 PUSH1 0x1 PUSH1 0xA0 SHL SUB AND CALLER EQ PUSH2 0xCDE JUMPI PUSH1 0x40 MLOAD PUSH3 0x461BCD PUSH1 0xE5 SHL DUP2 MSTORE PUSH1 0x4 ADD PUSH2 0x41D SWAP2 SWAP1 PUSH2 0x1FB2 JUMP JUMPDEST POP PUSH1 0x2 DUP1 SLOAD PUSH1 0x1 PUSH1 0x1 PUSH1 0xA0 SHL SUB NOT AND PUSH1 0x1 PUSH1 0x1 PUSH1 0xA0 SHL SUB DUP4 AND SWAP1 DUP2 OR SWAP1 SWAP2 SSTORE PUSH1 0x40 MLOAD PUSH32 0x8BDF8E573E1E6B8ABA457BD2A4FED210B28B0ED18344A7C4BB4BD1E87F6E1FB7 SWAP1 PUSH1 0x0 SWAP1 LOG2 POP JUMP JUMPDEST PUSH1 0x0 SLOAD PUSH1 0x40 DUP1 MLOAD DUP1 DUP3 ADD SWAP1 SWAP2 MSTORE PUSH1 0x2 DUP2 MSTORE PUSH2 0x333 PUSH1 0xF4 SHL PUSH1 0x20 DUP3 ADD MSTORE SWAP1 PUSH1 0x1 PUSH1 0x1 PUSH1 0xA0 SHL SUB AND CALLER EQ PUSH2 0xD6E JUMPI PUSH1 0x40 MLOAD PUSH3 0x461BCD PUSH1 0xE5 SHL DUP2 MSTORE PUSH1 0x4 ADD PUSH2 0x41D SWAP2 SWAP1 PUSH2 0x1FB2 JUMP JUMPDEST POP PUSH2 0xD7A PUSH1 0x7 DUP3 PUSH2 0x171C JUMP JUMPDEST POP PUSH1 0x40 MLOAD PUSH1 0x1 PUSH1 0x1 PUSH1 0xA0 SHL SUB DUP3 AND DUP2 MSTORE PUSH32 0x612AC93AD02AC7669D13BE8835BB33D5C6D42BB4C46F0CDB717681EBD2B64557 SWAP1 PUSH1 0x20 ADD PUSH2 0x468 JUMP JUMPDEST PUSH1 0x60 PUSH2 0xB72 PUSH1 0x7 PUSH2 0x170F JUMP JUMPDEST PUSH1 0x0 SLOAD PUSH1 0x40 DUP1 MLOAD DUP1 DUP3 ADD SWAP1 SWAP2 MSTORE PUSH1 0x2 DUP2 MSTORE PUSH2 0x333 PUSH1 0xF4 SHL PUSH1 0x20 DUP3 ADD MSTORE SWAP1 PUSH1 0x1 PUSH1 0x1 PUSH1 0xA0 SHL SUB AND CALLER EQ PUSH2 0xE05 JUMPI PUSH1 0x40 MLOAD PUSH3 0x461BCD PUSH1 0xE5 SHL DUP2 MSTORE PUSH1 0x4 ADD PUSH2 0x41D SWAP2 SWAP1 PUSH2 0x1FB2 JUMP JUMPDEST POP PUSH2 0xE11 PUSH1 0x5 DUP3 PUSH2 0x171C JUMP JUMPDEST POP PUSH1 0x40 MLOAD PUSH1 0x1 PUSH1 0x1 PUSH1 0xA0 SHL SUB DUP3 AND DUP2 MSTORE PUSH32 0x8696120FB7656955EC406C2959998DE0AA9798518606D5AFB5F36789F522DFEA SWAP1 PUSH1 0x20 ADD PUSH2 0x468 JUMP JUMPDEST PUSH1 0x0 SLOAD PUSH1 0x40 DUP1 MLOAD DUP1 DUP3 ADD SWAP1 SWAP2 MSTORE PUSH1 0x2 DUP2 MSTORE PUSH2 0x333 PUSH1 0xF4 SHL PUSH1 0x20 DUP3 ADD MSTORE SWAP1 PUSH1 0x1 PUSH1 0x1 PUSH1 0xA0 SHL SUB AND CALLER EQ PUSH2 0xE90 JUMPI PUSH1 0x40 MLOAD PUSH3 0x461BCD PUSH1 0xE5 SHL DUP2 MSTORE PUSH1 0x4 ADD PUSH2 0x41D SWAP2 SWAP1 PUSH2 0x1FB2 JUMP JUMPDEST POP PUSH1 0x40 DUP1 MLOAD DUP1 DUP3 ADD SWAP1 SWAP2 MSTORE PUSH1 0x2 DUP2 MSTORE PUSH2 0x3331 PUSH1 0xF0 SHL PUSH1 0x20 DUP3 ADD MSTORE PUSH1 0x1 PUSH1 0x1 PUSH1 0xA0 SHL SUB DUP3 AND PUSH2 0xED1 JUMPI PUSH1 0x40 MLOAD PUSH3 0x461BCD PUSH1 0xE5 SHL DUP2 MSTORE PUSH1 0x4 ADD PUSH2 0x41D SWAP2 SWAP1 PUSH2 0x1FB2 JUMP JUMPDEST POP PUSH1 0x1 DUP1 SLOAD PUSH1 0x1 PUSH1 0x1 PUSH1 0xA0 SHL SUB NOT AND PUSH1 0x1 PUSH1 0x1 PUSH1 0xA0 SHL SUB DUP4 AND SWAP1 DUP2 OR SWAP1 SWAP2 SSTORE PUSH1 0x40 MLOAD SWAP1 DUP2 MSTORE PUSH32 0x67235BA2E63C748A35B95C4F92A3BBC2A1389938170A5CE6C9ADD5D0B03A314A SWAP1 PUSH1 0x20 ADD PUSH2 0x468 JUMP JUMPDEST PUSH1 0x0 SLOAD PUSH1 0x40 DUP1 MLOAD DUP1 DUP3 ADD SWAP1 SWAP2 MSTORE PUSH1 0x2 DUP2 MSTORE PUSH2 0x333 PUSH1 0xF4 SHL PUSH1 0x20 DUP3 ADD MSTORE SWAP1 PUSH1 0x1 PUSH1 0x1 PUSH1 0xA0 SHL SUB AND CALLER EQ PUSH2 0xF65 JUMPI PUSH1 0x40 MLOAD PUSH3 0x461BCD PUSH1 0xE5 SHL DUP2 MSTORE PUSH1 0x4 ADD PUSH2 0x41D SWAP2 SWAP1 PUSH2 0x1FB2 JUMP JUMPDEST POP PUSH2 0xF71 PUSH1 0x7 DUP3 PUSH2 0x103B JUMP JUMPDEST POP PUSH1 0x40 MLOAD PUSH1 0x1 PUSH1 0x1 PUSH1 0xA0 SHL SUB DUP3 AND DUP2 MSTORE PUSH32 0xFAB625E04BC6EEEF38AAF5C2E48B1F1953CF5183297F4115F0DA9E906D4BF3AC SWAP1 PUSH1 0x20 ADD PUSH2 0x468 JUMP JUMPDEST PUSH1 0x0 SLOAD PUSH1 0x40 DUP1 MLOAD DUP1 DUP3 ADD SWAP1 SWAP2 MSTORE PUSH1 0x2 DUP2 MSTORE PUSH2 0x333 PUSH1 0xF4 SHL PUSH1 0x20 DUP3 ADD MSTORE SWAP1 PUSH1 0x1 PUSH1 0x1 PUSH1 0xA0 SHL SUB AND CALLER EQ PUSH2 0xFF0 JUMPI PUSH1 0x40 MLOAD PUSH3 0x461BCD PUSH1 0xE5 SHL DUP2 MSTORE PUSH1 0x4 ADD PUSH2 0x41D SWAP2 SWAP1 PUSH2 0x1FB2 JUMP JUMPDEST POP PUSH1 0x3 DUP1 SLOAD PUSH1 0x1 PUSH1 0x1 PUSH1 0xA0 SHL SUB NOT AND PUSH1 0x1 PUSH1 0x1 PUSH1 0xA0 SHL SUB DUP4 AND SWAP1 DUP2 OR SWAP1 SWAP2 SSTORE PUSH1 0x40 MLOAD PUSH32 0x99E4AC532391C2555B226B3D66F3D643E9256788B0C246834C1AAEBFAD90BD01 SWAP1 PUSH1 0x0 SWAP1 LOG2 POP JUMP JUMPDEST PUSH1 0x0 PUSH2 0x1050 DUP4 PUSH1 0x1 PUSH1 0x1 PUSH1 0xA0 SHL SUB DUP5 AND PUSH2 0x1731 JUMP JUMPDEST SWAP4 SWAP3 POP POP POP JUMP JUMPDEST PUSH1 0x0 PUSH2 0x1062 DUP3 PUSH2 0x1780 JUMP JUMPDEST POP PUSH1 0x2 DUP3 MLOAD PUSH2 0x1071 SWAP2 SWAP1 PUSH2 0x20AC JUMP JUMPDEST ISZERO PUSH2 0x10A2 JUMPI DUP2 PUSH1 0x2 DUP4 MLOAD PUSH2 0x1085 SWAP2 SWAP1 PUSH2 0x20C0 JUMP JUMPDEST DUP2 MLOAD DUP2 LT PUSH2 0x1095 JUMPI PUSH2 0x1095 PUSH2 0x204C JUMP JUMPDEST PUSH1 0x20 MUL PUSH1 0x20 ADD ADD MLOAD PUSH2 0x64D JUMP JUMPDEST PUSH2 0x64D DUP3 PUSH1 0x1 PUSH1 0x2 DUP6 MLOAD PUSH2 0x10B6 SWAP2 SWAP1 PUSH2 0x20C0 JUMP JUMPDEST PUSH2 0x10C0 SWAP2 SWAP1 PUSH2 0x2035 JUMP JUMPDEST DUP2 MLOAD DUP2 LT PUSH2 0x10D0 JUMPI PUSH2 0x10D0 PUSH2 0x204C JUMP JUMPDEST PUSH1 0x20 MUL PUSH1 0x20 ADD ADD MLOAD DUP4 PUSH1 0x2 DUP6 MLOAD PUSH2 0x10E7 SWAP2 SWAP1 PUSH2 0x20C0 JUMP JUMPDEST DUP2 MLOAD DUP2 LT PUSH2 0x10F7 JUMPI PUSH2 0x10F7 PUSH2 0x204C JUMP JUMPDEST PUSH1 0x20 MUL PUSH1 0x20 ADD ADD MLOAD PUSH2 0x179F JUMP JUMPDEST PUSH1 0x0 DUP1 DUP3 PUSH1 0x0 DUP2 MLOAD DUP2 LT PUSH2 0x111A JUMPI PUSH2 0x111A PUSH2 0x204C JUMP JUMPDEST PUSH1 0x20 SWAP1 DUP2 MUL SWAP2 SWAP1 SWAP2 ADD ADD MLOAD SWAP1 POP PUSH1 0x0 NOT PUSH1 0x1 JUMPDEST DUP5 MLOAD DUP2 LT ISZERO PUSH2 0x11CB JUMPI DUP3 DUP6 DUP3 DUP2 MLOAD DUP2 LT PUSH2 0x1149 JUMPI PUSH2 0x1149 PUSH2 0x204C JUMP JUMPDEST PUSH1 0x20 MUL PUSH1 0x20 ADD ADD MLOAD LT ISZERO PUSH2 0x117B JUMPI DUP3 SWAP2 POP DUP5 DUP2 DUP2 MLOAD DUP2 LT PUSH2 0x116C JUMPI PUSH2 0x116C PUSH2 0x204C JUMP JUMPDEST PUSH1 0x20 MUL PUSH1 0x20 ADD ADD MLOAD SWAP3 POP PUSH2 0x11B9 JUMP JUMPDEST DUP2 DUP6 DUP3 DUP2 MLOAD DUP2 LT PUSH2 0x118E JUMPI PUSH2 0x118E PUSH2 0x204C JUMP JUMPDEST PUSH1 0x20 MUL PUSH1 0x20 ADD ADD MLOAD LT ISZERO PUSH2 0x11B9 JUMPI DUP5 DUP2 DUP2 MLOAD DUP2 LT PUSH2 0x11AE JUMPI PUSH2 0x11AE PUSH2 0x204C JUMP JUMPDEST PUSH1 0x20 MUL PUSH1 0x20 ADD ADD MLOAD SWAP2 POP JUMPDEST DUP1 PUSH2 0x11C3 DUP2 PUSH2 0x2062 JUMP JUMPDEST SWAP2 POP POP PUSH2 0x112D JUMP JUMPDEST POP DUP4 MLOAD PUSH1 0x1 EQ ISZERO PUSH2 0x11E9 JUMPI DUP4 PUSH1 0x0 DUP2 MLOAD DUP2 LT PUSH2 0xA90 JUMPI PUSH2 0xA90 PUSH2 0x204C JUMP JUMPDEST DUP4 MLOAD PUSH1 0x2 EQ ISZERO PUSH2 0x1050 JUMPI POP SWAP3 SWAP2 POP POP JUMP JUMPDEST PUSH1 0x60 PUSH1 0x0 PUSH2 0x1208 PUSH1 0x7 PUSH2 0x168F JUMP JUMPDEST PUSH8 0xFFFFFFFFFFFFFFFF DUP2 GT ISZERO PUSH2 0x1220 JUMPI PUSH2 0x1220 PUSH2 0x1CED JUMP JUMPDEST PUSH1 0x40 MLOAD SWAP1 DUP1 DUP3 MSTORE DUP1 PUSH1 0x20 MUL PUSH1 0x20 ADD DUP3 ADD PUSH1 0x40 MSTORE DUP1 ISZERO PUSH2 0x1249 JUMPI DUP2 PUSH1 0x20 ADD PUSH1 0x20 DUP3 MUL DUP1 CALLDATASIZE DUP4 CALLDATACOPY ADD SWAP1 POP JUMPDEST POP SWAP1 POP PUSH1 0x0 DUP1 JUMPDEST DUP6 MLOAD DUP2 LT ISZERO PUSH2 0x15E9 JUMPI PUSH1 0x0 DUP1 JUMPDEST PUSH2 0x1267 PUSH1 0x9 PUSH2 0x168F JUMP JUMPDEST DUP2 LT ISZERO PUSH2 0x159C JUMPI PUSH1 0x0 PUSH2 0x127B PUSH1 0x9 DUP4 PUSH2 0x1699 JUMP JUMPDEST SWAP1 POP DUP1 PUSH1 0x1 PUSH1 0x1 PUSH1 0xA0 SHL SUB AND DUP10 DUP6 DUP2 MLOAD DUP2 LT PUSH2 0x1299 JUMPI PUSH2 0x1299 PUSH2 0x204C JUMP JUMPDEST PUSH1 0x20 MUL PUSH1 0x20 ADD ADD MLOAD PUSH1 0x1 PUSH1 0x1 PUSH1 0xA0 SHL SUB AND EQ DUP1 PUSH2 0x1358 JUMPI POP PUSH1 0x3 SLOAD DUP10 MLOAD PUSH1 0x1 PUSH1 0x1 PUSH1 0xA0 SHL SUB SWAP1 SWAP2 AND SWAP1 PUSH4 0x9446994A SWAP1 DUP12 SWAP1 DUP8 SWAP1 DUP2 LT PUSH2 0x12DA JUMPI PUSH2 0x12DA PUSH2 0x204C JUMP JUMPDEST PUSH1 0x20 MUL PUSH1 0x20 ADD ADD MLOAD DUP4 PUSH1 0x40 MLOAD DUP4 PUSH4 0xFFFFFFFF AND PUSH1 0xE0 SHL DUP2 MSTORE PUSH1 0x4 ADD PUSH2 0x1315 SWAP3 SWAP2 SWAP1 PUSH1 0x1 PUSH1 0x1 PUSH1 0xA0 SHL SUB SWAP3 DUP4 AND DUP2 MSTORE SWAP2 AND PUSH1 0x20 DUP3 ADD MSTORE PUSH1 0x40 ADD SWAP1 JUMP JUMPDEST PUSH1 0x20 PUSH1 0x40 MLOAD DUP1 DUP4 SUB DUP2 DUP7 GAS STATICCALL ISZERO DUP1 ISZERO PUSH2 0x1332 JUMPI RETURNDATASIZE PUSH1 0x0 DUP1 RETURNDATACOPY RETURNDATASIZE PUSH1 0x0 REVERT JUMPDEST POP POP POP POP PUSH1 0x40 MLOAD RETURNDATASIZE PUSH1 0x1F NOT PUSH1 0x1F DUP3 ADD AND DUP3 ADD DUP1 PUSH1 0x40 MSTORE POP DUP2 ADD SWAP1 PUSH2 0x1356 SWAP2 SWAP1 PUSH2 0x20D4 JUMP JUMPDEST ISZERO JUMPDEST ISZERO PUSH2 0x1363 JUMPI POP PUSH2 0x158A JUMP JUMPDEST PUSH1 0x3 SLOAD DUP10 MLOAD PUSH1 0x0 SWAP2 PUSH1 0x1 PUSH1 0x1 PUSH1 0xA0 SHL SUB AND SWAP1 PUSH4 0x9B56E6A7 SWAP1 DUP13 SWAP1 DUP9 SWAP1 DUP2 LT PUSH2 0x138D JUMPI PUSH2 0x138D PUSH2 0x204C JUMP JUMPDEST PUSH1 0x20 MUL PUSH1 0x20 ADD ADD MLOAD DUP5 PUSH1 0x40 MLOAD DUP4 PUSH4 0xFFFFFFFF AND PUSH1 0xE0 SHL DUP2 MSTORE PUSH1 0x4 ADD PUSH2 0x13C8 SWAP3 SWAP2 SWAP1 PUSH1 0x1 PUSH1 0x1 PUSH1 0xA0 SHL SUB SWAP3 DUP4 AND DUP2 MSTORE SWAP2 AND PUSH1 0x20 DUP3 ADD MSTORE PUSH1 0x40 ADD SWAP1 JUMP JUMPDEST PUSH1 0x20 PUSH1 0x40 MLOAD DUP1 DUP4 SUB DUP2 DUP7 GAS STATICCALL ISZERO DUP1 ISZERO PUSH2 0x13E5 JUMPI RETURNDATASIZE PUSH1 0x0 DUP1 RETURNDATACOPY RETURNDATASIZE PUSH1 0x0 REVERT JUMPDEST POP POP POP POP PUSH1 0x40 MLOAD RETURNDATASIZE PUSH1 0x1F NOT PUSH1 0x1F DUP3 ADD AND DUP3 ADD DUP1 PUSH1 0x40 MSTORE POP DUP2 ADD SWAP1 PUSH2 0x1409 SWAP2 SWAP1 PUSH2 0x207D JUMP JUMPDEST SWAP1 POP PUSH32 0x0 PUSH1 0x1 PUSH1 0x1 PUSH1 0xA0 SHL SUB AND DUP11 DUP7 DUP2 MLOAD DUP2 LT PUSH2 0x1447 JUMPI PUSH2 0x1447 PUSH2 0x204C JUMP JUMPDEST PUSH1 0x20 MUL PUSH1 0x20 ADD ADD MLOAD PUSH1 0x1 PUSH1 0x1 PUSH1 0xA0 SHL SUB AND EQ DUP1 ISZERO PUSH2 0x146B JUMPI POP PUSH2 0x146B PUSH1 0x7 DUP4 PUSH2 0x17BA JUMP JUMPDEST ISZERO PUSH2 0x14A0 JUMPI DUP1 DUP8 DUP8 DUP2 MLOAD DUP2 LT PUSH2 0x1483 JUMPI PUSH2 0x1483 PUSH2 0x204C JUMP JUMPDEST PUSH1 0x20 SWAP1 DUP2 MUL SWAP2 SWAP1 SWAP2 ADD ADD MSTORE DUP6 PUSH2 0x1498 DUP2 PUSH2 0x2062 JUMP JUMPDEST SWAP7 POP POP PUSH2 0x154B JUMP JUMPDEST PUSH32 0x0 PUSH1 0x1 PUSH1 0x1 PUSH1 0xA0 SHL SUB AND DUP3 PUSH1 0x1 PUSH1 0x1 PUSH1 0xA0 SHL SUB AND EQ DUP1 ISZERO PUSH2 0x1509 JUMPI POP PUSH2 0x1509 DUP11 DUP7 DUP2 MLOAD DUP2 LT PUSH2 0x14F1 JUMPI PUSH2 0x14F1 PUSH2 0x204C JUMP JUMPDEST PUSH1 0x20 MUL PUSH1 0x20 ADD ADD MLOAD PUSH1 0x7 PUSH2 0x17BA SWAP1 SWAP2 SWAP1 PUSH4 0xFFFFFFFF AND JUMP JUMPDEST ISZERO PUSH2 0x154B JUMPI PUSH2 0x1520 PUSH8 0xDE0B6B3A7640000 DUP3 PUSH2 0x17DC JUMP JUMPDEST DUP8 DUP8 DUP2 MLOAD DUP2 LT PUSH2 0x1532 JUMPI PUSH2 0x1532 PUSH2 0x204C JUMP JUMPDEST PUSH1 0x20 SWAP1 DUP2 MUL SWAP2 SWAP1 SWAP2 ADD ADD MSTORE DUP6 PUSH2 0x1547 DUP2 PUSH2 0x2062 JUMP JUMPDEST SWAP7 POP POP JUMPDEST PUSH1 0x0 PUSH2 0x1558 DUP4 DUP13 DUP13 PUSH2 0x1844 JUMP JUMPDEST SWAP1 POP PUSH2 0x157E DUP11 DUP8 DUP2 MLOAD DUP2 LT PUSH2 0x156F JUMPI PUSH2 0x156F PUSH2 0x204C JUMP JUMPDEST PUSH1 0x20 MUL PUSH1 0x20 ADD ADD MLOAD DUP3 DUP5 PUSH2 0x192F JUMP JUMPDEST PUSH1 0x1 SWAP5 POP POP POP POP PUSH2 0x159C JUMP JUMPDEST DUP1 PUSH2 0x1594 DUP2 PUSH2 0x2062 JUMP JUMPDEST SWAP2 POP POP PUSH2 0x125D JUMP JUMPDEST POP PUSH1 0x40 DUP1 MLOAD DUP1 DUP3 ADD SWAP1 SWAP2 MSTORE PUSH1 0x2 DUP2 MSTORE PUSH2 0x343 PUSH1 0xF4 SHL PUSH1 0x20 DUP3 ADD MSTORE DUP2 PUSH2 0x15D4 JUMPI PUSH1 0x40 MLOAD PUSH3 0x461BCD PUSH1 0xE5 SHL DUP2 MSTORE PUSH1 0x4 ADD PUSH2 0x41D SWAP2 SWAP1 PUSH2 0x1FB2 JUMP JUMPDEST POP POP DUP1 DUP1 PUSH2 0x15E1 SWAP1 PUSH2 0x2062 JUMP JUMPDEST SWAP2 POP POP PUSH2 0x1250 JUMP JUMPDEST POP PUSH1 0x0 DUP2 PUSH8 0xFFFFFFFFFFFFFFFF DUP2 GT ISZERO PUSH2 0x1605 JUMPI PUSH2 0x1605 PUSH2 0x1CED JUMP JUMPDEST PUSH1 0x40 MLOAD SWAP1 DUP1 DUP3 MSTORE DUP1 PUSH1 0x20 MUL PUSH1 0x20 ADD DUP3 ADD PUSH1 0x40 MSTORE DUP1 ISZERO PUSH2 0x162E JUMPI DUP2 PUSH1 0x20 ADD PUSH1 0x20 DUP3 MUL DUP1 CALLDATASIZE DUP4 CALLDATACOPY ADD SWAP1 POP JUMPDEST POP SWAP1 POP PUSH1 0x0 JUMPDEST DUP3 DUP2 LT ISZERO PUSH2 0x1685 JUMPI DUP4 DUP2 DUP2 MLOAD DUP2 LT PUSH2 0x164E JUMPI PUSH2 0x164E PUSH2 0x204C JUMP JUMPDEST PUSH1 0x20 MUL PUSH1 0x20 ADD ADD MLOAD DUP3 DUP3 DUP2 MLOAD DUP2 LT PUSH2 0x1668 JUMPI PUSH2 0x1668 PUSH2 0x204C JUMP JUMPDEST PUSH1 0x20 SWAP1 DUP2 MUL SWAP2 SWAP1 SWAP2 ADD ADD MSTORE DUP1 PUSH2 0x167D DUP2 PUSH2 0x2062 JUMP JUMPDEST SWAP2 POP POP PUSH2 0x1634 JUMP JUMPDEST POP SWAP6 SWAP5 POP POP POP POP POP JUMP JUMPDEST PUSH1 0x0 PUSH2 0x64D DUP3 SLOAD SWAP1 JUMP JUMPDEST PUSH1 0x0 PUSH2 0x1050 DUP4 DUP4 PUSH2 0x19A1 JUMP JUMPDEST PUSH1 0x0 PUSH2 0x16B1 DUP4 DUP4 PUSH2 0x534 JUMP JUMPDEST SWAP1 POP PUSH1 0x0 PUSH2 0x16BF DUP6 DUP4 PUSH2 0x19CB JUMP JUMPDEST SWAP1 POP PUSH9 0x2B5E3AF16B1880000 DUP2 GT ISZERO PUSH1 0x40 MLOAD DUP1 PUSH1 0x40 ADD PUSH1 0x40 MSTORE DUP1 PUSH1 0x2 DUP2 MSTORE PUSH1 0x20 ADD PUSH2 0x3435 PUSH1 0xF0 SHL DUP2 MSTORE POP SWAP1 PUSH2 0x1707 JUMPI PUSH1 0x40 MLOAD PUSH3 0x461BCD PUSH1 0xE5 SHL DUP2 MSTORE PUSH1 0x4 ADD PUSH2 0x41D SWAP2 SWAP1 PUSH2 0x1FB2 JUMP JUMPDEST POP POP POP POP POP POP JUMP JUMPDEST PUSH1 0x60 PUSH1 0x0 PUSH2 0x1050 DUP4 PUSH2 0x19EE JUMP JUMPDEST PUSH1 0x0 PUSH2 0x1050 DUP4 PUSH1 0x1 PUSH1 0x1 PUSH1 0xA0 SHL SUB DUP5 AND PUSH2 0x1A4A JUMP JUMPDEST PUSH1 0x0 DUP2 DUP2 MSTORE PUSH1 0x1 DUP4 ADD PUSH1 0x20 MSTORE PUSH1 0x40 DUP2 KECCAK256 SLOAD PUSH2 0x1778 JUMPI POP DUP2 SLOAD PUSH1 0x1 DUP2 DUP2 ADD DUP5 SSTORE PUSH1 0x0 DUP5 DUP2 MSTORE PUSH1 0x20 DUP1 DUP3 KECCAK256 SWAP1 SWAP4 ADD DUP5 SWAP1 SSTORE DUP5 SLOAD DUP5 DUP3 MSTORE DUP3 DUP7 ADD SWAP1 SWAP4 MSTORE PUSH1 0x40 SWAP1 KECCAK256 SWAP2 SWAP1 SWAP2 SSTORE PUSH2 0x64D JUMP JUMPDEST POP PUSH1 0x0 PUSH2 0x64D JUMP JUMPDEST PUSH1 0x60 PUSH2 0x179B DUP3 PUSH1 0x0 PUSH1 0x1 DUP6 MLOAD PUSH2 0x1796 SWAP2 SWAP1 PUSH2 0x2035 JUMP JUMPDEST PUSH2 0x1B3D JUMP JUMPDEST POP SWAP1 JUMP JUMPDEST PUSH1 0x0 PUSH2 0x17AE PUSH1 0x2 DUP5 DUP5 XOR PUSH2 0x20C0 JUMP JUMPDEST PUSH2 0x1050 SWAP1 DUP5 DUP5 AND PUSH2 0x201D JUMP JUMPDEST PUSH1 0x1 PUSH1 0x1 PUSH1 0xA0 SHL SUB DUP2 AND PUSH1 0x0 SWAP1 DUP2 MSTORE PUSH1 0x1 DUP4 ADD PUSH1 0x20 MSTORE PUSH1 0x40 DUP2 KECCAK256 SLOAD ISZERO ISZERO PUSH2 0x1050 JUMP JUMPDEST PUSH1 0x40 DUP1 MLOAD DUP1 DUP3 ADD SWAP1 SWAP2 MSTORE PUSH1 0x2 DUP2 MSTORE PUSH2 0x3235 PUSH1 0xF0 SHL PUSH1 0x20 DUP3 ADD MSTORE PUSH1 0x0 SWAP1 DUP3 PUSH2 0x1816 JUMPI PUSH1 0x40 MLOAD PUSH3 0x461BCD PUSH1 0xE5 SHL DUP2 MSTORE PUSH1 0x4 ADD PUSH2 0x41D SWAP2 SWAP1 PUSH2 0x1FB2 JUMP JUMPDEST POP DUP3 PUSH2 0x1824 JUMPI POP PUSH1 0x0 PUSH2 0x64D JUMP JUMPDEST PUSH1 0x0 PUSH2 0x1838 PUSH8 0xDE0B6B3A7640000 DUP6 PUSH2 0x20F6 JUMP JUMPDEST SWAP1 POP PUSH2 0x54A DUP4 DUP3 PUSH2 0x20C0 JUMP JUMPDEST PUSH1 0x0 DUP1 JUMPDEST DUP4 MLOAD DUP2 LT ISZERO PUSH2 0x18B8 JUMPI DUP5 PUSH1 0x1 PUSH1 0x1 PUSH1 0xA0 SHL SUB AND DUP5 DUP3 DUP2 MLOAD DUP2 LT PUSH2 0x186D JUMPI PUSH2 0x186D PUSH2 0x204C JUMP JUMPDEST PUSH1 0x20 MUL PUSH1 0x20 ADD ADD MLOAD PUSH1 0x1 PUSH1 0x1 PUSH1 0xA0 SHL SUB AND EQ ISZERO PUSH2 0x18A6 JUMPI DUP3 DUP2 DUP2 MLOAD DUP2 LT PUSH2 0x1896 JUMPI PUSH2 0x1896 PUSH2 0x204C JUMP JUMPDEST PUSH1 0x20 MUL PUSH1 0x20 ADD ADD MLOAD SWAP2 POP POP PUSH2 0x1050 JUMP JUMPDEST DUP1 PUSH2 0x18B0 DUP2 PUSH2 0x2062 JUMP JUMPDEST SWAP2 POP POP PUSH2 0x1848 JUMP JUMPDEST POP PUSH1 0x2 SLOAD PUSH1 0x40 MLOAD PUSH4 0x5708447D PUSH1 0xE0 SHL DUP2 MSTORE PUSH1 0x1 PUSH1 0x1 PUSH1 0xA0 SHL SUB DUP7 DUP2 AND PUSH1 0x4 DUP4 ADD MSTORE SWAP1 SWAP2 AND SWAP1 PUSH4 0x5708447D SWAP1 PUSH1 0x24 ADD PUSH1 0x20 PUSH1 0x40 MLOAD DUP1 DUP4 SUB DUP2 DUP7 GAS STATICCALL ISZERO DUP1 ISZERO PUSH2 0x1903 JUMPI RETURNDATASIZE PUSH1 0x0 DUP1 RETURNDATACOPY RETURNDATASIZE PUSH1 0x0 REVERT JUMPDEST POP POP POP POP PUSH1 0x40 MLOAD RETURNDATASIZE PUSH1 0x1F NOT PUSH1 0x1F DUP3 ADD AND DUP3 ADD DUP1 PUSH1 0x40 MSTORE POP DUP2 ADD SWAP1 PUSH2 0x1927 SWAP2 SWAP1 PUSH2 0x207D JUMP JUMPDEST SWAP5 SWAP4 POP POP POP POP JUMP JUMPDEST PUSH1 0x0 PUSH2 0x193B DUP5 DUP5 PUSH2 0x17DC JUMP JUMPDEST SWAP1 POP PUSH1 0x0 PUSH2 0x1949 DUP4 DUP4 PUSH2 0x19CB JUMP JUMPDEST SWAP1 POP PUSH1 0x0 PUSH2 0x1957 DUP3 DUP6 PUSH2 0x17DC JUMP JUMPDEST SWAP1 POP PUSH1 0x4 SLOAD DUP2 GT ISZERO PUSH1 0x40 MLOAD DUP1 PUSH1 0x40 ADD PUSH1 0x40 MSTORE DUP1 PUSH1 0x2 DUP2 MSTORE PUSH1 0x20 ADD PUSH2 0x3431 PUSH1 0xF0 SHL DUP2 MSTORE POP SWAP1 PUSH2 0x1998 JUMPI PUSH1 0x40 MLOAD PUSH3 0x461BCD PUSH1 0xE5 SHL DUP2 MSTORE PUSH1 0x4 ADD PUSH2 0x41D SWAP2 SWAP1 PUSH2 0x1FB2 JUMP JUMPDEST POP POP POP POP POP POP POP JUMP JUMPDEST PUSH1 0x0 DUP3 PUSH1 0x0 ADD DUP3 DUP2 SLOAD DUP2 LT PUSH2 0x19B8 JUMPI PUSH2 0x19B8 PUSH2 0x204C JUMP JUMPDEST SWAP1 PUSH1 0x0 MSTORE PUSH1 0x20 PUSH1 0x0 KECCAK256 ADD SLOAD SWAP1 POP SWAP3 SWAP2 POP POP JUMP JUMPDEST PUSH1 0x0 DUP2 DUP4 LT ISZERO PUSH2 0x19E4 JUMPI PUSH2 0x19DF DUP4 DUP4 PUSH2 0x2035 JUMP JUMPDEST PUSH2 0x1050 JUMP JUMPDEST PUSH2 0x1050 DUP3 DUP5 PUSH2 0x2035 JUMP JUMPDEST PUSH1 0x60 DUP2 PUSH1 0x0 ADD DUP1 SLOAD DUP1 PUSH1 0x20 MUL PUSH1 0x20 ADD PUSH1 0x40 MLOAD SWAP1 DUP2 ADD PUSH1 0x40 MSTORE DUP1 SWAP3 SWAP2 SWAP1 DUP2 DUP2 MSTORE PUSH1 0x20 ADD DUP3 DUP1 SLOAD DUP1 ISZERO PUSH2 0x1A3E JUMPI PUSH1 0x20 MUL DUP3 ADD SWAP2 SWAP1 PUSH1 0x0 MSTORE PUSH1 0x20 PUSH1 0x0 KECCAK256 SWAP1 JUMPDEST DUP2 SLOAD DUP2 MSTORE PUSH1 0x20 ADD SWAP1 PUSH1 0x1 ADD SWAP1 DUP1 DUP4 GT PUSH2 0x1A2A JUMPI JUMPDEST POP POP POP POP POP SWAP1 POP SWAP2 SWAP1 POP JUMP JUMPDEST PUSH1 0x0 DUP2 DUP2 MSTORE PUSH1 0x1 DUP4 ADD PUSH1 0x20 MSTORE PUSH1 0x40 DUP2 KECCAK256 SLOAD DUP1 ISZERO PUSH2 0x1B33 JUMPI PUSH1 0x0 PUSH2 0x1A6E PUSH1 0x1 DUP4 PUSH2 0x2035 JUMP JUMPDEST DUP6 SLOAD SWAP1 SWAP2 POP PUSH1 0x0 SWAP1 PUSH2 0x1A82 SWAP1 PUSH1 0x1 SWAP1 PUSH2 0x2035 JUMP JUMPDEST SWAP1 POP DUP2 DUP2 EQ PUSH2 0x1AE7 JUMPI PUSH1 0x0 DUP7 PUSH1 0x0 ADD DUP3 DUP2 SLOAD DUP2 LT PUSH2 0x1AA2 JUMPI PUSH2 0x1AA2 PUSH2 0x204C JUMP JUMPDEST SWAP1 PUSH1 0x0 MSTORE PUSH1 0x20 PUSH1 0x0 KECCAK256 ADD SLOAD SWAP1 POP DUP1 DUP8 PUSH1 0x0 ADD DUP5 DUP2 SLOAD DUP2 LT PUSH2 0x1AC5 JUMPI PUSH2 0x1AC5 PUSH2 0x204C JUMP JUMPDEST PUSH1 0x0 SWAP2 DUP3 MSTORE PUSH1 0x20 DUP1 DUP4 KECCAK256 SWAP1 SWAP2 ADD SWAP3 SWAP1 SWAP3 SSTORE SWAP2 DUP3 MSTORE PUSH1 0x1 DUP9 ADD SWAP1 MSTORE PUSH1 0x40 SWAP1 KECCAK256 DUP4 SWAP1 SSTORE JUMPDEST DUP6 SLOAD DUP7 SWAP1 DUP1 PUSH2 0x1AF8 JUMPI PUSH2 0x1AF8 PUSH2 0x2115 JUMP JUMPDEST PUSH1 0x1 SWAP1 SUB DUP2 DUP2 SWAP1 PUSH1 0x0 MSTORE PUSH1 0x20 PUSH1 0x0 KECCAK256 ADD PUSH1 0x0 SWAP1 SSTORE SWAP1 SSTORE DUP6 PUSH1 0x1 ADD PUSH1 0x0 DUP7 DUP2 MSTORE PUSH1 0x20 ADD SWAP1 DUP2 MSTORE PUSH1 0x20 ADD PUSH1 0x0 KECCAK256 PUSH1 0x0 SWAP1 SSTORE PUSH1 0x1 SWAP4 POP POP POP POP PUSH2 0x64D JUMP JUMPDEST PUSH1 0x0 SWAP2 POP POP PUSH2 0x64D JUMP JUMPDEST DUP2 DUP2 DUP1 DUP3 EQ ISZERO PUSH2 0x1B4E JUMPI POP POP POP POP POP JUMP JUMPDEST PUSH1 0x0 DUP6 PUSH1 0x2 PUSH2 0x1B5D DUP8 DUP8 PUSH2 0x212B JUMP JUMPDEST PUSH2 0x1B67 SWAP2 SWAP1 PUSH2 0x216A JUMP JUMPDEST PUSH2 0x1B71 SWAP1 DUP8 PUSH2 0x2198 JUMP JUMPDEST DUP2 MLOAD DUP2 LT PUSH2 0x1B81 JUMPI PUSH2 0x1B81 PUSH2 0x204C JUMP JUMPDEST PUSH1 0x20 MUL PUSH1 0x20 ADD ADD MLOAD SWAP1 POP JUMPDEST DUP2 DUP4 SGT PUSH2 0x1C90 JUMPI JUMPDEST DUP1 DUP7 DUP5 DUP2 MLOAD DUP2 LT PUSH2 0x1BA7 JUMPI PUSH2 0x1BA7 PUSH2 0x204C JUMP JUMPDEST PUSH1 0x20 MUL PUSH1 0x20 ADD ADD MLOAD LT ISZERO PUSH2 0x1BC7 JUMPI DUP3 PUSH2 0x1BBF DUP2 PUSH2 0x21D9 JUMP JUMPDEST SWAP4 POP POP PUSH2 0x1B94 JUMP JUMPDEST DUP6 DUP3 DUP2 MLOAD DUP2 LT PUSH2 0x1BD9 JUMPI PUSH2 0x1BD9 PUSH2 0x204C JUMP JUMPDEST PUSH1 0x20 MUL PUSH1 0x20 ADD ADD MLOAD DUP2 LT ISZERO PUSH2 0x1BFA JUMPI DUP2 PUSH2 0x1BF2 DUP2 PUSH2 0x21F2 JUMP JUMPDEST SWAP3 POP POP PUSH2 0x1BC7 JUMP JUMPDEST DUP2 DUP4 SGT PUSH2 0x1C8B JUMPI DUP6 DUP3 DUP2 MLOAD DUP2 LT PUSH2 0x1C13 JUMPI PUSH2 0x1C13 PUSH2 0x204C JUMP JUMPDEST PUSH1 0x20 MUL PUSH1 0x20 ADD ADD MLOAD DUP7 DUP5 DUP2 MLOAD DUP2 LT PUSH2 0x1C2D JUMPI PUSH2 0x1C2D PUSH2 0x204C JUMP JUMPDEST PUSH1 0x20 MUL PUSH1 0x20 ADD ADD MLOAD DUP8 DUP6 DUP2 MLOAD DUP2 LT PUSH2 0x1C47 JUMPI PUSH2 0x1C47 PUSH2 0x204C JUMP JUMPDEST PUSH1 0x20 MUL PUSH1 0x20 ADD ADD DUP9 DUP6 DUP2 MLOAD DUP2 LT PUSH2 0x1C60 JUMPI PUSH2 0x1C60 PUSH2 0x204C JUMP JUMPDEST PUSH1 0x20 SWAP1 DUP2 MUL SWAP2 SWAP1 SWAP2 ADD ADD SWAP2 SWAP1 SWAP2 MSTORE MSTORE DUP3 PUSH2 0x1C79 DUP2 PUSH2 0x21D9 JUMP JUMPDEST SWAP4 POP POP DUP2 DUP1 PUSH2 0x1C87 SWAP1 PUSH2 0x21F2 JUMP JUMPDEST SWAP3 POP POP JUMPDEST PUSH2 0x1B8C JUMP JUMPDEST DUP2 DUP6 SLT ISZERO PUSH2 0x1CA3 JUMPI PUSH2 0x1CA3 DUP7 DUP7 DUP5 PUSH2 0x1B3D JUMP JUMPDEST DUP4 DUP4 SLT ISZERO PUSH2 0x1707 JUMPI PUSH2 0x1707 DUP7 DUP5 DUP7 PUSH2 0x1B3D JUMP JUMPDEST DUP1 CALLDATALOAD PUSH1 0x1 PUSH1 0x1 PUSH1 0xA0 SHL SUB DUP2 AND DUP2 EQ PUSH2 0x1CCD JUMPI PUSH1 0x0 DUP1 REVERT JUMPDEST SWAP2 SWAP1 POP JUMP JUMPDEST PUSH1 0x0 PUSH1 0x20 DUP3 DUP5 SUB SLT ISZERO PUSH2 0x1CE4 JUMPI PUSH1 0x0 DUP1 REVERT JUMPDEST PUSH2 0x1050 DUP3 PUSH2 0x1CB6 JUMP JUMPDEST PUSH4 0x4E487B71 PUSH1 0xE0 SHL PUSH1 0x0 MSTORE PUSH1 0x41 PUSH1 0x4 MSTORE PUSH1 0x24 PUSH1 0x0 REVERT JUMPDEST PUSH1 0x40 MLOAD PUSH1 0x1F DUP3 ADD PUSH1 0x1F NOT AND DUP2 ADD PUSH8 0xFFFFFFFFFFFFFFFF DUP2 GT DUP3 DUP3 LT OR ISZERO PUSH2 0x1D2C JUMPI PUSH2 0x1D2C PUSH2 0x1CED JUMP JUMPDEST PUSH1 0x40 MSTORE SWAP2 SWAP1 POP JUMP JUMPDEST PUSH1 0x0 PUSH8 0xFFFFFFFFFFFFFFFF DUP3 GT ISZERO PUSH2 0x1D4E JUMPI PUSH2 0x1D4E PUSH2 0x1CED JUMP JUMPDEST POP PUSH1 0x5 SHL PUSH1 0x20 ADD SWAP1 JUMP JUMPDEST PUSH1 0x0 PUSH1 0x20 DUP1 DUP4 DUP6 SUB SLT ISZERO PUSH2 0x1D6B JUMPI PUSH1 0x0 DUP1 REVERT JUMPDEST DUP3 CALLDATALOAD PUSH8 0xFFFFFFFFFFFFFFFF DUP2 GT ISZERO PUSH2 0x1D82 JUMPI PUSH1 0x0 DUP1 REVERT JUMPDEST DUP4 ADD PUSH1 0x1F DUP2 ADD DUP6 SGT PUSH2 0x1D93 JUMPI PUSH1 0x0 DUP1 REVERT JUMPDEST DUP1 CALLDATALOAD PUSH2 0x1DA6 PUSH2 0x1DA1 DUP3 PUSH2 0x1D34 JUMP JUMPDEST PUSH2 0x1D03 JUMP JUMPDEST DUP2 DUP2 MSTORE PUSH1 0x5 SWAP2 SWAP1 SWAP2 SHL DUP3 ADD DUP4 ADD SWAP1 DUP4 DUP2 ADD SWAP1 DUP8 DUP4 GT ISZERO PUSH2 0x1DC5 JUMPI PUSH1 0x0 DUP1 REVERT JUMPDEST SWAP3 DUP5 ADD SWAP3 JUMPDEST DUP3 DUP5 LT ISZERO PUSH2 0x1DEA JUMPI PUSH2 0x1DDB DUP5 PUSH2 0x1CB6 JUMP JUMPDEST DUP3 MSTORE SWAP3 DUP5 ADD SWAP3 SWAP1 DUP5 ADD SWAP1 PUSH2 0x1DCA JUMP JUMPDEST SWAP8 SWAP7 POP POP POP POP POP POP POP JUMP JUMPDEST PUSH1 0x0 DUP2 MLOAD DUP1 DUP5 MSTORE PUSH1 0x20 DUP1 DUP6 ADD SWAP5 POP DUP1 DUP5 ADD PUSH1 0x0 JUMPDEST DUP4 DUP2 LT ISZERO PUSH2 0x1E25 JUMPI DUP2 MLOAD DUP8 MSTORE SWAP6 DUP3 ADD SWAP6 SWAP1 DUP3 ADD SWAP1 PUSH1 0x1 ADD PUSH2 0x1E09 JUMP JUMPDEST POP SWAP5 SWAP6 SWAP5 POP POP POP POP POP JUMP JUMPDEST PUSH1 0x20 DUP2 MSTORE PUSH1 0x0 PUSH2 0x1050 PUSH1 0x20 DUP4 ADD DUP5 PUSH2 0x1DF5 JUMP JUMPDEST PUSH1 0x0 DUP3 PUSH1 0x1F DUP4 ADD SLT PUSH2 0x1E54 JUMPI PUSH1 0x0 DUP1 REVERT JUMPDEST DUP2 CALLDATALOAD PUSH1 0x20 PUSH2 0x1E64 PUSH2 0x1DA1 DUP4 PUSH2 0x1D34 JUMP JUMPDEST DUP3 DUP2 MSTORE PUSH1 0x5 SWAP3 SWAP1 SWAP3 SHL DUP5 ADD DUP2 ADD SWAP2 DUP2 DUP2 ADD SWAP1 DUP7 DUP5 GT ISZERO PUSH2 0x1E83 JUMPI PUSH1 0x0 DUP1 REVERT JUMPDEST DUP3 DUP7 ADD JUMPDEST DUP5 DUP2 LT ISZERO PUSH2 0x1E9E JUMPI DUP1 CALLDATALOAD DUP4 MSTORE SWAP2 DUP4 ADD SWAP2 DUP4 ADD PUSH2 0x1E87 JUMP JUMPDEST POP SWAP7 SWAP6 POP POP POP POP POP POP JUMP JUMPDEST PUSH1 0x0 DUP1 PUSH1 0x40 DUP4 DUP6 SUB SLT ISZERO PUSH2 0x1EBC JUMPI PUSH1 0x0 DUP1 REVERT JUMPDEST DUP3 CALLDATALOAD PUSH8 0xFFFFFFFFFFFFFFFF DUP1 DUP3 GT ISZERO PUSH2 0x1ED4 JUMPI PUSH1 0x0 DUP1 REVERT JUMPDEST PUSH2 0x1EE0 DUP7 DUP4 DUP8 ADD PUSH2 0x1E43 JUMP JUMPDEST SWAP4 POP PUSH1 0x20 DUP6 ADD CALLDATALOAD SWAP2 POP DUP1 DUP3 GT ISZERO PUSH2 0x1EF6 JUMPI PUSH1 0x0 DUP1 REVERT JUMPDEST POP PUSH2 0x1F03 DUP6 DUP3 DUP7 ADD PUSH2 0x1E43 JUMP JUMPDEST SWAP2 POP POP SWAP3 POP SWAP3 SWAP1 POP JUMP JUMPDEST PUSH1 0x80 DUP2 MSTORE PUSH1 0x0 PUSH2 0x1F20 PUSH1 0x80 DUP4 ADD DUP8 PUSH2 0x1DF5 JUMP JUMPDEST DUP6 PUSH1 0x20 DUP5 ADD MSTORE DUP3 DUP2 SUB PUSH1 0x40 DUP5 ADD MSTORE PUSH2 0x1F38 DUP2 DUP7 PUSH2 0x1DF5 JUMP JUMPDEST SWAP1 POP DUP3 DUP2 SUB PUSH1 0x60 DUP5 ADD MSTORE PUSH2 0x1DEA DUP2 DUP6 PUSH2 0x1DF5 JUMP JUMPDEST PUSH1 0x0 PUSH1 0x20 DUP3 DUP5 SUB SLT ISZERO PUSH2 0x1F5E JUMPI PUSH1 0x0 DUP1 REVERT JUMPDEST POP CALLDATALOAD SWAP2 SWAP1 POP JUMP JUMPDEST PUSH1 0x20 DUP1 DUP3 MSTORE DUP3 MLOAD DUP3 DUP3 ADD DUP2 SWAP1 MSTORE PUSH1 0x0 SWAP2 SWAP1 DUP5 DUP3 ADD SWAP1 PUSH1 0x40 DUP6 ADD SWAP1 DUP5 JUMPDEST DUP2 DUP2 LT ISZERO PUSH2 0x1FA6 JUMPI DUP4 MLOAD PUSH1 0x1 PUSH1 0x1 PUSH1 0xA0 SHL SUB AND DUP4 MSTORE SWAP3 DUP5 ADD SWAP3 SWAP2 DUP5 ADD SWAP2 PUSH1 0x1 ADD PUSH2 0x1F81 JUMP JUMPDEST POP SWAP1 SWAP7 SWAP6 POP POP POP POP POP POP JUMP JUMPDEST PUSH1 0x0 PUSH1 0x20 DUP1 DUP4 MSTORE DUP4 MLOAD DUP1 DUP3 DUP6 ADD MSTORE PUSH1 0x0 JUMPDEST DUP2 DUP2 LT ISZERO PUSH2 0x1FDF JUMPI DUP6 DUP2 ADD DUP4 ADD MLOAD DUP6 DUP3 ADD PUSH1 0x40 ADD MSTORE DUP3 ADD PUSH2 0x1FC3 JUMP JUMPDEST DUP2 DUP2 GT ISZERO PUSH2 0x1FF1 JUMPI PUSH1 0x0 PUSH1 0x40 DUP4 DUP8 ADD ADD MSTORE JUMPDEST POP PUSH1 0x1F ADD PUSH1 0x1F NOT AND SWAP3 SWAP1 SWAP3 ADD PUSH1 0x40 ADD SWAP4 SWAP3 POP POP POP JUMP JUMPDEST PUSH4 0x4E487B71 PUSH1 0xE0 SHL PUSH1 0x0 MSTORE PUSH1 0x11 PUSH1 0x4 MSTORE PUSH1 0x24 PUSH1 0x0 REVERT JUMPDEST PUSH1 0x0 DUP3 NOT DUP3 GT ISZERO PUSH2 0x2030 JUMPI PUSH2 0x2030 PUSH2 0x2007 JUMP JUMPDEST POP ADD SWAP1 JUMP JUMPDEST PUSH1 0x0 DUP3 DUP3 LT ISZERO PUSH2 0x2047 JUMPI PUSH2 0x2047 PUSH2 0x2007 JUMP JUMPDEST POP SUB SWAP1 JUMP JUMPDEST PUSH4 0x4E487B71 PUSH1 0xE0 SHL PUSH1 0x0 MSTORE PUSH1 0x32 PUSH1 0x4 MSTORE PUSH1 0x24 PUSH1 0x0 REVERT JUMPDEST PUSH1 0x0 PUSH1 0x0 NOT DUP3 EQ ISZERO PUSH2 0x2076 JUMPI PUSH2 0x2076 PUSH2 0x2007 JUMP JUMPDEST POP PUSH1 0x1 ADD SWAP1 JUMP JUMPDEST PUSH1 0x0 PUSH1 0x20 DUP3 DUP5 SUB SLT ISZERO PUSH2 0x208F JUMPI PUSH1 0x0 DUP1 REVERT JUMPDEST POP MLOAD SWAP2 SWAP1 POP JUMP JUMPDEST PUSH4 0x4E487B71 PUSH1 0xE0 SHL PUSH1 0x0 MSTORE PUSH1 0x12 PUSH1 0x4 MSTORE PUSH1 0x24 PUSH1 0x0 REVERT JUMPDEST PUSH1 0x0 DUP3 PUSH2 0x20BB JUMPI PUSH2 0x20BB PUSH2 0x2096 JUMP JUMPDEST POP MOD SWAP1 JUMP JUMPDEST PUSH1 0x0 DUP3 PUSH2 0x20CF JUMPI PUSH2 0x20CF PUSH2 0x2096 JUMP JUMPDEST POP DIV SWAP1 JUMP JUMPDEST PUSH1 0x0 PUSH1 0x20 DUP3 DUP5 SUB SLT ISZERO PUSH2 0x20E6 JUMPI PUSH1 0x0 DUP1 REVERT JUMPDEST DUP2 MLOAD DUP1 ISZERO ISZERO DUP2 EQ PUSH2 0x1050 JUMPI PUSH1 0x0 DUP1 REVERT JUMPDEST PUSH1 0x0 DUP2 PUSH1 0x0 NOT DIV DUP4 GT DUP3 ISZERO ISZERO AND ISZERO PUSH2 0x2110 JUMPI PUSH2 0x2110 PUSH2 0x2007 JUMP JUMPDEST POP MUL SWAP1 JUMP JUMPDEST PUSH4 0x4E487B71 PUSH1 0xE0 SHL PUSH1 0x0 MSTORE PUSH1 0x31 PUSH1 0x4 MSTORE PUSH1 0x24 PUSH1 0x0 REVERT JUMPDEST PUSH1 0x0 DUP1 DUP4 SLT DUP1 ISZERO PUSH1 0x1 PUSH1 0xFF SHL DUP6 ADD DUP5 SLT AND ISZERO PUSH2 0x2149 JUMPI PUSH2 0x2149 PUSH2 0x2007 JUMP JUMPDEST PUSH1 0x1 PUSH1 0x1 PUSH1 0xFF SHL SUB DUP5 ADD DUP4 SGT DUP2 AND ISZERO PUSH2 0x2164 JUMPI PUSH2 0x2164 PUSH2 0x2007 JUMP JUMPDEST POP POP SUB SWAP1 JUMP JUMPDEST PUSH1 0x0 DUP3 PUSH2 0x2179 JUMPI PUSH2 0x2179 PUSH2 0x2096 JUMP JUMPDEST PUSH1 0x1 PUSH1 0xFF SHL DUP3 EQ PUSH1 0x0 NOT DUP5 EQ AND ISZERO PUSH2 0x2193 JUMPI PUSH2 0x2193 PUSH2 0x2007 JUMP JUMPDEST POP SDIV SWAP1 JUMP JUMPDEST PUSH1 0x0 DUP1 DUP3 SLT DUP1 ISZERO PUSH1 0x1 PUSH1 0x1 PUSH1 0xFF SHL SUB DUP5 SWAP1 SUB DUP6 SGT AND ISZERO PUSH2 0x21BA JUMPI PUSH2 0x21BA PUSH2 0x2007 JUMP JUMPDEST PUSH1 0x1 PUSH1 0xFF SHL DUP4 SWAP1 SUB DUP5 SLT DUP2 AND ISZERO PUSH2 0x21D3 JUMPI PUSH2 0x21D3 PUSH2 0x2007 JUMP JUMPDEST POP POP ADD SWAP1 JUMP JUMPDEST PUSH1 0x0 PUSH1 0x1 PUSH1 0x1 PUSH1 0xFF SHL SUB DUP3 EQ ISZERO PUSH2 0x2076 JUMPI PUSH2 0x2076 PUSH2 0x2007 JUMP JUMPDEST PUSH1 0x0 PUSH1 0x1 PUSH1 0xFF SHL DUP3 EQ ISZERO PUSH2 0x2208 JUMPI PUSH2 0x2208 PUSH2 0x2007 JUMP JUMPDEST POP PUSH1 0x0 NOT ADD SWAP1 JUMP INVALID LOG2 PUSH5 0x6970667358 0x22 SLT KECCAK256 0xB5 GASLIMIT DUP9 DUP6 DUP4 0xE3 PUSH20 0xE1C19CAB07D8EB36AAAE1C49CC099A5E94D53F9B 0xA5 0x4E CHAINID DUP1 ADD PUSH5 0x736F6C6343 STOP ADDMOD EXP STOP CALLER ","sha1":"39774faf2f98c550799083a5f26302269f217aa0","source":"// SPDX-License-Identifier: UNLICENSED\npragma solidity ^0.8.4;\n\nimport \"@openzeppelin/contracts/utils/math/Math.sol\";\nimport \"@openzeppelin/contracts/utils/math/SafeCast.sol\";\nimport \"@openzeppelin/contracts/utils/structs/EnumerableSet.sol\";\n\nimport \"../../interfaces/oracles/IUSDPriceOracle.sol\";\nimport \"../../interfaces/oracles/IRelativePriceOracle.sol\";\nimport \"../../interfaces/oracles/IUSDBatchPriceOracle.sol\";\nimport \"../../libraries/EnumerableExtensions.sol\";\n\nimport \"../auth/Governable.sol\";\n\nimport \"../../libraries/Errors.sol\";\nimport \"../../libraries/FixedPoint.sol\";\n\ncontract CheckedPriceOracle is IUSDPriceOracle, IUSDBatchPriceOracle, Governable {\n    using EnumerableSet for EnumerableSet.AddressSet;\n\n    using FixedPoint for uint256;\n    using SafeCast for uint256;\n    using SafeCast for int256;\n\n    uint256 public constant MAX_ABSOLUTE_WETH_DEVIATION = 50e18;\n    uint256 public constant INITIAL_RELATIVE_EPSILON = 0.02e18;\n    uint256 public constant MAX_RELATIVE_EPSILON = 0.1e18;\n\n    address public immutable wethAddress;\n\n    IUSDPriceOracle public usdOracle;\n    IRelativePriceOracle public relativeOracle;\n\n    uint256 public relativeEpsilon;\n\n    EnumerableSet.AddressSet internal trustedSignerPriceOracles;\n\n    /// This list is going to be used for the twaps to be input into the price level checks.\n    /// These are the addresses of the assets to be paired with ETH e.g. USDC or USDT\n    EnumerableSet.AddressSet internal quoteAssetsForPriceLevelTWAPS;\n\n    /// @dev This list is used to check if the relative price of the tokens are consistent\n    EnumerableSet.AddressSet internal assetsForRelativePriceCheck;\n\n    event USDOracleUpdated(address indexed oracle);\n    event RelativeOracleUpdated(address indexed oracle);\n\n    event PriceLevelTWAPQuoteAssetAdded(address _addressToAdd);\n    event PriceLevelTWAPQuoteAssetRemoved(address _addressToRemove);\n\n    event AssetForRelativePriceCheckAdded(address _addressToAdd);\n    event AssetForRelativePriceCheckRemoved(address _addressToRemove);\n\n    event TrustedSignerOracleAdded(address _addressToAdd);\n    event TrustedSignerOracleRemoved(address _addressToRemove);\n\n    /// _usdOracle is for Chainlink\n    constructor(\n        address _usdOracle,\n        address _relativeOracle,\n        address _wethAddress\n    ) {\n        require(_usdOracle != address(0), Errors.INVALID_ARGUMENT);\n        require(_relativeOracle != address(0), Errors.INVALID_ARGUMENT);\n        usdOracle = IUSDPriceOracle(_usdOracle);\n        relativeOracle = IRelativePriceOracle(_relativeOracle);\n        relativeEpsilon = INITIAL_RELATIVE_EPSILON;\n        wethAddress = _wethAddress;\n    }\n\n    function setUSDOracle(address _usdOracle) external governanceOnly {\n        usdOracle = IUSDPriceOracle(_usdOracle);\n        emit USDOracleUpdated(_usdOracle);\n    }\n\n    function setRelativeOracle(address _relativeOracle) external governanceOnly {\n        relativeOracle = IRelativePriceOracle(_relativeOracle);\n        emit RelativeOracleUpdated(_relativeOracle);\n    }\n\n    function addSignedPriceSource(address _signedAssetToAdd) external governanceOnly {\n        trustedSignerPriceOracles.add(_signedAssetToAdd);\n        emit TrustedSignerOracleAdded(_signedAssetToAdd);\n    }\n\n    function removeSignedPriceSource(address _signedAssetToRemove) external governanceOnly {\n        trustedSignerPriceOracles.remove(_signedAssetToRemove);\n        emit TrustedSignerOracleRemoved(_signedAssetToRemove);\n    }\n\n    function listSignedPriceSource() external view returns (address[] memory) {\n        return trustedSignerPriceOracles.values();\n    }\n\n    function addQuoteAssetsForPriceLevelTwap(address _quoteAssetToAdd) external governanceOnly {\n        quoteAssetsForPriceLevelTWAPS.add(_quoteAssetToAdd);\n        emit PriceLevelTWAPQuoteAssetAdded(_quoteAssetToAdd);\n    }\n\n    function listQuoteAssetsForPriceLevelTwap() external view returns (address[] memory) {\n        return quoteAssetsForPriceLevelTWAPS.values();\n    }\n\n    function removeQuoteAssetsForPriceLevelTwap(address _quoteAssetToRemove)\n        external\n        governanceOnly\n    {\n        quoteAssetsForPriceLevelTWAPS.remove(_quoteAssetToRemove);\n        emit PriceLevelTWAPQuoteAssetRemoved(_quoteAssetToRemove);\n    }\n\n    function addAssetForRelativePriceCheck(address assetToAdd) external governanceOnly {\n        assetsForRelativePriceCheck.add(assetToAdd);\n        emit AssetForRelativePriceCheckAdded(assetToAdd);\n    }\n\n    function listAssetForRelativePriceCheck() external view returns (address[] memory) {\n        return assetsForRelativePriceCheck.values();\n    }\n\n    function removeAssetForRelativePriceCheck(address assetToRemove) external governanceOnly {\n        assetsForRelativePriceCheck.remove(assetToRemove);\n        emit AssetForRelativePriceCheckRemoved(assetToRemove);\n    }\n\n    function batchRelativePriceCheck(address[] memory tokenAddresses, uint256[] memory prices)\n        internal\n        view\n        returns (uint256[] memory)\n    {\n        uint256[] memory priceLevelTwaps = new uint256[](quoteAssetsForPriceLevelTWAPS.length());\n\n        uint256 k;\n        for (uint256 i = 0; i < tokenAddresses.length; i++) {\n            bool couldCheck = false;\n\n            for (uint256 j = 0; j < assetsForRelativePriceCheck.length(); j++) {\n                address assetForCheck = assetsForRelativePriceCheck.at(j);\n                if (\n                    tokenAddresses[i] == assetForCheck ||\n                    !relativeOracle.isPairSupported(tokenAddresses[i], assetForCheck)\n                ) {\n                    continue;\n                }\n\n                uint256 relativePrice = relativeOracle.getRelativePrice(\n                    tokenAddresses[i],\n                    assetForCheck\n                );\n\n                if (\n                    tokenAddresses[i] == wethAddress &&\n                    quoteAssetsForPriceLevelTWAPS.contains(assetForCheck)\n                ) {\n                    priceLevelTwaps[k] = relativePrice;\n                    k++;\n                } else if (\n                    assetForCheck == wethAddress &&\n                    quoteAssetsForPriceLevelTWAPS.contains(tokenAddresses[i])\n                ) {\n                    priceLevelTwaps[k] = FixedPoint.ONE.divDown(relativePrice);\n                    k++;\n                }\n\n                uint256 assetForCheckPrice = _findPrice(assetForCheck, tokenAddresses, prices);\n                _ensureRelativePriceConsistency(prices[i], assetForCheckPrice, relativePrice);\n\n                couldCheck = true;\n                break;\n            }\n\n            require(couldCheck, Errors.ASSET_NOT_SUPPORTED);\n        }\n\n        uint256[] memory foundTwaps = new uint256[](k);\n        for (uint256 i = 0; i < k; i++) {\n            foundTwaps[i] = priceLevelTwaps[i];\n        }\n\n        return foundTwaps;\n    }\n\n    /// @inheritdoc IUSDPriceOracle\n    function getPriceUSD(address tokenAddress) public view override returns (uint256) {\n        address[] memory tokenAddresses = new address[](1);\n        tokenAddresses[0] = tokenAddress;\n        uint256[] memory prices = getPricesUSD(tokenAddresses);\n        return prices[0];\n    }\n\n    /// @inheritdoc IUSDBatchPriceOracle\n    function getPricesUSD(address[] memory tokenAddresses)\n        public\n        view\n        override\n        returns (uint256[] memory)\n    {\n        (uint256[] memory prices, , , ) = getPricesUSDWithMetadata(tokenAddresses);\n        return prices;\n    }\n\n    function getPricesUSDWithMetadata(address[] memory tokenAddresses)\n        public\n        view\n        returns (\n            uint256[] memory,\n            uint256,\n            uint256[] memory,\n            uint256[] memory\n        )\n    {\n        require(tokenAddresses.length > 0, Errors.INVALID_ARGUMENT);\n\n        uint256[] memory prices = new uint256[](tokenAddresses.length);\n\n        /// Will start with this being the WETH/USD price, this can be modified later if desired.\n        uint256 priceLevel;\n\n        for (uint256 i = 0; i < tokenAddresses.length; i++) {\n            prices[i] = usdOracle.getPriceUSD(tokenAddresses[i]);\n            if (tokenAddresses[i] == wethAddress) {\n                priceLevel = prices[i];\n            }\n        }\n\n        if (priceLevel == 0) {\n            priceLevel = usdOracle.getPriceUSD(wethAddress);\n        }\n\n        uint256[] memory priceLevelTwaps = batchRelativePriceCheck(tokenAddresses, prices);\n\n        uint256 numberOfTrustedSignerOracles = trustedSignerPriceOracles.length();\n        uint256[] memory signedPrices = new uint256[](numberOfTrustedSignerOracles);\n\n        for (uint256 i = 0; i < numberOfTrustedSignerOracles; i++) {\n            IUSDPriceOracle oracle = IUSDPriceOracle(trustedSignerPriceOracles.at(i));\n            signedPrices[i] = oracle.getPriceUSD(wethAddress);\n        }\n\n        _checkPriceLevel(priceLevel, signedPrices, priceLevelTwaps);\n\n        return (prices, priceLevel, signedPrices, priceLevelTwaps);\n    }\n\n    function setRelativeMaxEpsilon(uint256 _relativeEpsilon) external governanceOnly {\n        require(_relativeEpsilon > 0, Errors.INVALID_ARGUMENT);\n        require(_relativeEpsilon < MAX_RELATIVE_EPSILON, Errors.INVALID_ARGUMENT);\n\n        relativeEpsilon = _relativeEpsilon;\n    }\n\n    function _checkPriceLevel(\n        uint256 priceLevel,\n        uint256[] memory signedPrices,\n        uint256[] memory priceLevelTwaps\n    ) internal view {\n        uint256 trueWETH = getRobustWETHPrice(signedPrices, priceLevelTwaps);\n        uint256 absolutePriceDifference = priceLevel.absSub(trueWETH);\n        require(\n            absolutePriceDifference <= MAX_ABSOLUTE_WETH_DEVIATION,\n            Errors.ROOT_PRICE_NOT_GROUNDED\n        );\n    }\n\n    function _ensureRelativePriceConsistency(\n        uint256 aUSDPrice,\n        uint256 bUSDPrice,\n        uint256 abPrice\n    ) internal view {\n        uint256 abPriceFromUSD = aUSDPrice.divDown(bUSDPrice);\n        uint256 priceDifference = abPrice.absSub(abPriceFromUSD);\n        uint256 relativePriceDifference = priceDifference.divDown(abPrice);\n\n        require(relativePriceDifference <= relativeEpsilon, Errors.STALE_PRICE);\n    }\n\n    function _computeMinOrSecondMin(uint256[] memory twapPrices) internal pure returns (uint256) {\n        // min if there are two, or the 2nd min if more than two\n        uint256 min = twapPrices[0];\n        uint256 secondMin = 2**256 - 1;\n        for (uint256 i = 1; i < twapPrices.length; i++) {\n            if (twapPrices[i] < min) {\n                secondMin = min;\n                min = twapPrices[i];\n            } else if ((twapPrices[i] < secondMin)) {\n                secondMin = twapPrices[i];\n            }\n        }\n        if (twapPrices.length == 1) {\n            return twapPrices[0];\n        } else if (twapPrices.length == 2) {\n            return min;\n        } else {\n            return secondMin;\n        }\n    }\n\n    function _findPrice(\n        address target,\n        address[] memory tokenAddresses,\n        uint256[] memory prices\n    ) internal view returns (uint256) {\n        for (uint256 i = 0; i < tokenAddresses.length; i++) {\n            if (tokenAddresses[i] == target) {\n                return prices[i];\n            }\n        }\n        return usdOracle.getPriceUSD(target);\n    }\n\n    function _sort(uint256[] memory data) internal view returns (uint256[] memory) {\n        _quickSort(data, int256(0), int256(data.length - 1));\n        return data;\n    }\n\n    function _quickSort(\n        uint256[] memory arr,\n        int256 left,\n        int256 right\n    ) internal view {\n        int256 i = left;\n        int256 j = right;\n        if (i == j) return;\n        uint256 pivot = arr[uint256(left + (right - left) / 2)];\n        while (i <= j) {\n            while (arr[uint256(i)] < pivot) i++;\n            while (pivot < arr[uint256(j)]) j--;\n            if (i <= j) {\n                (arr[uint256(i)], arr[uint256(j)]) = (arr[uint256(j)], arr[uint256(i)]);\n                i++;\n                j--;\n            }\n        }\n        if (left < j) _quickSort(arr, left, j);\n        if (i < right) _quickSort(arr, i, right);\n    }\n\n    function _median(uint256[] memory array) internal view returns (uint256) {\n        _sort(array);\n        return\n            array.length % 2 == 0\n                ? Math.average(array[array.length / 2 - 1], array[array.length / 2])\n                : array[array.length / 2];\n    }\n\n    /// @notice this function provides an estimate of the true WETH price.\n    /// 1. Find the minimum TWAP price (or second minumum if >2 TWAP prices) from a given array.\n    /// 2. Add this to an array of signed prices\n    /// 3. Compute the median of this array\n    /// @param signedPrices an array of prices from trusted providers (e.g. Chainlink, Coinbase, OKEx ETH/USD price)\n    /// @param twapPrices an array of Time Weighted Moving Average ETH/stablecoin prices\n    function getRobustWETHPrice(uint256[] memory signedPrices, uint256[] memory twapPrices)\n        public\n        view\n        returns (uint256)\n    {\n        uint256 minTWAP;\n        if (twapPrices.length == 0) {\n            return _median(signedPrices);\n        } else {\n            minTWAP = _computeMinOrSecondMin(twapPrices);\n            uint256[] memory prices = new uint256[](signedPrices.length + 1);\n            prices[prices.length - 1] = minTWAP;\n            for (uint256 i = 0; i < prices.length - 1; i++) {\n                prices[i] = signedPrices[i];\n            }\n            return _median(prices);\n        }\n    }\n}\n","sourcePath":"contracts/oracles/CheckedPriceOracle.sol","type":"contract","deployment":{"address":"0xBa116c6f9e631413847747dF3cF6Dc5cDD1455C7","chainid":"137","blockHeight":32800349}}