{"bytecode":"60e06040523480156200001157600080fd5b5060405162001aaa38038062001aaa8339810160408190526200003491620000c7565b600080546001600160a01b0319166001600160a01b038616908117825560408051928352602083019190915285917fde4b3f61490b74c0ed6237523974fe299126bbbf8a8a7482fd220104c59b0c84910160405180910390a15060a09290925260c0526001600160a01b03166080525062000112565b80516001600160a01b0381168114620000c257600080fd5b919050565b60008060008060808587031215620000de57600080fd5b620000e985620000aa565b935060208501519250604085015191506200010760608601620000aa565b905092959194509250565b60805160a05160c05161194c6200015e6000396000818161027201526108c80152600081816102ac0152610f2b0152600081816102180152818161054d01526106c4015261194c6000f3fe608060405234801561001057600080fd5b506004361061010b5760003560e01c8063a036c284116100a2578063d625436c11610071578063d625436c146102e3578063e2cc8679146102f6578063e3056a3414610309578063e4c0aaf41461031c578063fc283b861461032f57600080fd5b8063a036c2841461026d578063a076382014610294578063c9e959bf146102a7578063d01f63f5146102ce57600080fd5b8063286dd3f5116100de578063286dd3f51461020057806344bbdb55146102135780636382b2961461023a5780637b9417c81461025a57600080fd5b80630bdf8d22146101105780630c340a2414610132578063238efcbc1461015d57806325aeb09214610167575b600080fd5b61011f670b1a2bc2ec50000081565b6040519081526020015b60405180910390f35b600054610145906001600160a01b031681565b6040516001600160a01b039091168152602001610129565b610165610342565b005b6101f261017536600461127f565b60046020908152600091825260409182902082516060808201855282546001600160801b0380821684526001600160401b03600160801b808404821686890152600160c01b938490048216868a01528851948501895260019096015491821684529481048516958301959095529093049091169282019290925282565b60405161012992919061129c565b61016561020e36600461127f565b6103fb565b6101457f000000000000000000000000000000000000000000000000000000000000000081565b61024d610248366004611510565b610484565b60405161012991906116fb565b61016561026836600461127f565b6104bf565b61011f7f000000000000000000000000000000000000000000000000000000000000000081565b6101656102a2366004611510565b610548565b61011f7f000000000000000000000000000000000000000000000000000000000000000081565b6102d66106ae565b6040516101299190611750565b6101656102f1366004611510565b6106bf565b61024d610304366004611510565b61077d565b600154610145906001600160a01b031681565b61016561032a36600461127f565b610792565b61016561033d36600461179d565b610867565b600154604080518082019091526002815261033360f41b6020820152906001600160a01b031633146103905760405162461bcd60e51b815260040161038791906116fb565b60405180910390fd5b5060008054600180546001600160a01b03198084166001600160a01b03808416919091179095551690556040805192909116808352336020840152917fde4b3f61490b74c0ed6237523974fe299126bbbf8a8a7482fd220104c59b0c8491015b60405180910390a150565b600054604080518082019091526002815261033360f41b6020820152906001600160a01b031633146104405760405162461bcd60e51b815260040161038791906116fb565b5061044c600282610a9e565b506040516001600160a01b038216907fcdd2e9b91a56913d370075169cefa1602ba36be5301664f752192bb1709df75790600090a250565b6060816020015161049f5761049882610abc565b5092915050565b50604080518082019091526002815261333160f01b60208201525b919050565b600054604080518082019091526002815261033360f41b6020820152906001600160a01b031633146105045760405162461bcd60e51b815260040161038791906116fb565b50610510600282610d72565b506040516001600160a01b038216907fa850ae9193f515cbae8d35e8925bd2be26627fc91bce650b8652ed254e9cab0390600090a250565b61057a7f00000000000000000000000000000000000000000000000000000000000000006001600160a01b0316610d87565b6001600160a01b0316336001600160a01b03161460405180604001604052806002815260200161033360f41b815250906105c75760405162461bcd60e51b815260040161038791906116fb565b5080602001511560405180604001604052806002815260200161333160f01b815250906106075760405162461bcd60e51b815260040161038791906116fb565b5060008061061483610abc565b815191935091501561069f57604080518082019091526002815261363160f01b6020820152610644908390610e12565b15610685577f135e6dd29efa875112189add0769ed7f19cd6db71eefe10bf040c499f5aab3448260405161067891906116fb565b60405180910390a161069f565b8160405162461bcd60e51b815260040161038791906116fb565b6106a98382610e3c565b505050565b60606106ba6002610f8e565b905090565b6106f17f00000000000000000000000000000000000000000000000000000000000000006001600160a01b0316610d87565b6001600160a01b0316336001600160a01b03161460405180604001604052806002815260200161033360f41b8152509061073e5760405162461bcd60e51b815260040161038791906116fb565b50806020015160405180604001604052806002815260200161333160f01b815250906106075760405162461bcd60e51b815260040161038791906116fb565b606081602001511561049f5761049882610abc565b600054604080518082019091526002815261033360f41b6020820152906001600160a01b031633146107d75760405162461bcd60e51b815260040161038791906116fb565b50604080518082019091526002815261333160f01b60208201526001600160a01b0382166108185760405162461bcd60e51b815260040161038791906116fb565b50600180546001600160a01b0319166001600160a01b0383169081179091556040519081527f67235ba2e63c748a35b95c4f92a3bbc2a1389938170a5ce6c9add5d0b03a314a906020016103f0565b33610873600282610fa2565b60405180604001604052806002815260200161033360f41b815250906108ac5760405162461bcd60e51b815260040161038791906116fb565b506040805180820190915260028152611b1960f11b60208201527f00000000000000000000000000000000000000000000000000000000000000008311156109075760405162461bcd60e51b815260040161038791906116fb565b5060006109148343611810565b905060008460200151600281111561092e5761092e611828565b148061094f575060028460200151600281111561094d5761094d611828565b145b156109d75783516001600160a01b03908116600090815260046020908152604091829020805467ffffffffffffffff60801b1916600160801b6001600160401b03871602179055865182519316835282018590526001908201527fd3a9973922556aa8a1d3200840e7b0adc7851cb170484c2c7001999ae794abc49060600160405180910390a15b6001846020015160028111156109ef576109ef611828565b1480610a105750600284602001516002811115610a0e57610a0e611828565b145b15610a985783516001600160a01b039081166000908152600460209081526040808320600101805467ffffffffffffffff60801b1916600160801b6001600160401b0388160217905587518151941684529083018690528201527fd3a9973922556aa8a1d3200840e7b0adc7851cb170484c2c7001999ae794abc49060600160405180910390a15b50505050565b6000610ab3836001600160a01b038416610fc4565b90505b92915050565b6060808260000151516001600160401b03811115610adc57610adc61130b565b604051908082528060200260200182016040528015610b2157816020015b6040805180820190915260008082526020820152815260200190600190039081610afa5790505b50905060005b835151811015610d6c57600084600001518281518110610b4957610b4961183e565b6020026020010151602001519050600085600001518381518110610b6f57610b6f61183e565b6020908102919091018101515180516001600160a01b03166000908152600483526040808220815160608101835283815294850183905290840191909152909250908760200151610bc35781600101610bc5565b815b6040805160608101825291546001600160801b03811683526001600160401b03600160801b820481166020850152600160c01b909104169082015290508315801590610c1e575080602001516001600160401b03164311155b15610c495760405180604001604052806002815260200161363560f01b815250965050505050610d6c565b600083608001516060015190506000610c8683600001516001600160801b03164385604001516001600160401b03168860800151604001516110b7565b8a51805189908110610c9a57610c9a61183e565b602002602001015160200151610cb09190611810565b905081811115610ce25760405180604001604052806002815260200161036360f41b8152509850505050505050610d6c565b6000610cf6670b1a2bc2ec50000084611140565b821190508015610d1e5760405180604001604052806002815260200161363160f01b81525099505b6040518060400160405280838152602001821515815250898981518110610d4757610d4761183e565b6020026020010181905250505050505050508080610d6490611854565b915050610b27565b50915091565b6000610ab3836001600160a01b038416611161565b6040516321f8a72160e01b81527f524f4f545f5341464554595f434845434b5f414444524553530000000000000060048201526000906001600160a01b038316906321f8a72190602401602060405180830381865afa158015610dee573d6000803e3d6000fd5b505050506040513d601f19601f82011682018060405250810190610ab6919061186f565b60008151835114610e2557506000610ab6565b508051602091820120825192909101919091201490565b60005b8251518110156106a957600083600001518281518110610e6157610e6161183e565b6020908102919091018101515180516001600160a01b031660009081526004835260408120928701519193509015610e9a575080610ea0565b50600181015b80546001600160c01b0316600160c01b436001600160401b0316021781558451859085908110610ed257610ed261183e565b60209081029190910101515181546fffffffffffffffffffffffffffffffff19166001600160801b039091161781558451859085908110610f1557610f1561183e565b60200260200101516020015115610f7857610f507f000000000000000000000000000000000000000000000000000000000000000043611810565b81546001600160401b0391909116600160801b0267ffffffffffffffff60801b199091161781555b5050508080610f8690611854565b915050610e3f565b60606000610f9b836111b0565b9392505050565b6001600160a01b03811660009081526001830160205260408120541515610ab3565b600081815260018301602052604081205480156110ad576000610fe860018361188c565b8554909150600090610ffc9060019061188c565b905081811461106157600086600001828154811061101c5761101c61183e565b906000526020600020015490508087600001848154811061103f5761103f61183e565b6000918252602080832090910192909255918252600188019052604090208390555b8554869080611072576110726118a3565b600190038181906000526020600020016000905590558560010160008681526020019081526020016000206000905560019350505050610ab6565b6000915050610ab6565b6000838314806110c5575084155b156110d1575083611138565b838310156111085760006110e5848661188c565b905060006110f3848361120c565b90506110ff8782611140565b92505050611138565b6040805180820182526002815261333160f01b6020820152905162461bcd60e51b815261038791906004016116fb565b949350505050565b60008061114d83856118b9565b9050611138670de0b6b3a7640000826118ee565b60008181526001830160205260408120546111a857508154600181810184556000848152602080822090930184905584548482528286019093526040902091909155610ab6565b506000610ab6565b60608160000180548060200260200160405190810160405280929190818152602001828054801561120057602002820191906000526020600020905b8154815260200190600101908083116111ec575b50505050509050919050565b6000670de0b6b3a76400005b8215610ab357611229600284611902565b6001141561123e5761123b8185611140565b90505b6112496002846118ee565b92506112558485611140565b9350611218565b6001600160a01b038116811461127157600080fd5b50565b80356104ba8161125c565b60006020828403121561129157600080fd5b8135610ab38161125c565b60c081016112d6828580516001600160801b031682526020808201516001600160401b039081169184019190915260409182015116910152565b82516001600160801b0316606083015260208301516001600160401b03908116608084015260408401511660a0830152610f9b565b634e487b7160e01b600052604160045260246000fd5b604051606081016001600160401b03811182821017156113435761134361130b565b60405290565b604080519081016001600160401b03811182821017156113435761134361130b565b60405161012081016001600160401b03811182821017156113435761134361130b565b604051601f8201601f191681016001600160401b03811182821017156113b6576113b661130b565b604052919050565b60006001600160401b038211156113d7576113d761130b565b5060051b60200190565b803560ff811681146104ba57600080fd5b60006080828403121561140457600080fd5b604051608081018181106001600160401b03821117156114265761142661130b565b8060405250809150823581526020830135602082015260408301356040820152606083013560608201525092915050565b803580151581146104ba57600080fd5b600082601f83011261147857600080fd5b8135602061148d611488836113be565b61138e565b828152606092830285018201928282019190878511156114ac57600080fd5b8387015b858110156115035781818a0312156114c85760008081fd5b6114d0611321565b81356114db8161125c565b81526114e8828701611457565b818701526040828101359082015284529284019281016114b0565b5090979650505050505050565b60006020828403121561152257600080fd5b6001600160401b03808335111561153857600080fd5b6040833584018503121561154b57600080fd5b611553611349565b818435850135111561156457600080fd5b83358401803501601f8101861361157a57600080fd5b61158761148882356113be565b81358082526020808301929160051b8401018810156115a557600080fd5b602083015b6020843560051b8501018110156116d95785813511156115c957600080fd5b80358401601f196040828c03820112156115e257600080fd5b6115ea611349565b88602084013511156115fb57600080fd5b6020830135830161018083828f0301121561161557600080fd5b61161d61136b565b925061162b60208201611274565b8352611639604082016113e1565b602084015261164a60608201611274565b6040840152608081013560608401526116668d60a083016113f2565b608084015261012081013560a084015261014081013560c084015261016081013560e084015289610180820135111561169e57600080fd5b6116b28d6020610180840135840101611467565b610100840152509081526040919091013560208083019190915290845292830192016115aa565b508352506116ee905084358501602001611457565b6020820152949350505050565b600060208083528351808285015260005b818110156117285785810183015185820160400152820161170c565b8181111561173a576000604083870101525b50601f01601f1916929092016040019392505050565b6020808252825182820181905260009190848201906040850190845b818110156117915783516001600160a01b03168352928401929184019160010161176c565b50909695505050505050565b60008082840360608112156117b157600080fd5b60408112156117bf57600080fd5b506117c8611349565b83356117d38161125c565b81526020840135600381106117e757600080fd5b6020820152946040939093013593505050565b634e487b7160e01b600052601160045260246000fd5b60008219821115611823576118236117fa565b500190565b634e487b7160e01b600052602160045260246000fd5b634e487b7160e01b600052603260045260246000fd5b6000600019821415611868576118686117fa565b5060010190565b60006020828403121561188157600080fd5b8151610ab38161125c565b60008282101561189e5761189e6117fa565b500390565b634e487b7160e01b600052603160045260246000fd5b60008160001904831182151516156118d3576118d36117fa565b500290565b634e487b7160e01b600052601260045260246000fd5b6000826118fd576118fd6118d8565b500490565b600082611911576119116118d8565b50069056fea2646970667358221220f30ba6282b8e445373e924bb502ccf7e7b8859209860e883ed2c457aa46f26e964736f6c634300080a0033","bytecodeSha1":"62b0bb07f4513be966d6bde5bbd82c58fac11103","type":"contract","abi":[{"inputs":[{"internalType":"address","name":"governor","type":"address"},{"internalType":"uint256","name":"_safetyBlocksAutomatic","type":"uint256"},{"internalType":"uint256","name":"_safetyBlocksGuardian","type":"uint256"},{"internalType":"address","name":"_gyroConfig","type":"address"}],"stateMutability":"nonpayable","type":"constructor","name":"constructor"},{"anonymous":false,"inputs":[{"indexed":true,"internalType":"address","name":"account","type":"address"}],"name":"AddedToWhitelist","type":"event"},{"anonymous":false,"inputs":[{"indexed":false,"internalType":"address","name":"newGovernor","type":"address"}],"name":"GovernorChangeRequested","type":"event"},{"anonymous":false,"inputs":[{"indexed":false,"internalType":"address","name":"oldGovernor","type":"address"},{"indexed":false,"internalType":"address","name":"newGovernor","type":"address"}],"name":"GovernorChanged","type":"event"},{"anonymous":false,"inputs":[{"indexed":false,"internalType":"address","name":"vaultAddress","type":"address"},{"indexed":false,"internalType":"uint256","name":"durationOfProtectionInBlocks","type":"uint256"},{"indexed":false,"internalType":"bool","name":"inFlows","type":"bool"}],"name":"OracleGuardianActivated","type":"event"},{"anonymous":false,"inputs":[{"indexed":true,"internalType":"address","name":"account","type":"address"}],"name":"RemovedFromWhitelist","type":"event"},{"anonymous":false,"inputs":[{"indexed":false,"internalType":"string","name":"err","type":"string"}],"name":"SafetyStatus","type":"event"},{"inputs":[],"name":"THRESHOLD_BUFFER","outputs":[{"internalType":"uint256","name":"","type":"uint256"}],"stateMutability":"view","type":"function"},{"inputs":[],"name":"acceptGovernance","outputs":[],"stateMutability":"nonpayable","type":"function"},{"inputs":[{"components":[{"internalType":"address","name":"vaultAddress","type":"address"},{"internalType":"enum DataTypes.Direction","name":"direction","type":"uint8"}],"internalType":"struct DataTypes.GuardedVaults","name":"vaultToProtect","type":"tuple"},{"internalType":"uint256","name":"blocks","type":"uint256"}],"name":"activateOracleGuardian","outputs":[],"stateMutability":"nonpayable","type":"function"},{"inputs":[{"internalType":"address","name":"_addressToAdd","type":"address"}],"name":"addAddressToWhitelist","outputs":[],"stateMutability":"nonpayable","type":"function"},{"inputs":[{"internalType":"address","name":"newGovernor","type":"address"}],"name":"changeGovernor","outputs":[],"stateMutability":"nonpayable","type":"function"},{"inputs":[{"components":[{"components":[{"components":[{"internalType":"address","name":"vault","type":"address"},{"internalType":"uint8","name":"decimals","type":"uint8"},{"internalType":"address","name":"underlying","type":"address"},{"internalType":"uint256","name":"price","type":"uint256"},{"components":[{"internalType":"uint256","name":"initialPrice","type":"uint256"},{"internalType":"uint256","name":"initialWeight","type":"uint256"},{"internalType":"uint256","name":"shortFlowMemory","type":"uint256"},{"internalType":"uint256","name":"shortFlowThreshold","type":"uint256"}],"internalType":"struct DataTypes.PersistedVaultMetadata","name":"persistedMetadata","type":"tuple"},{"internalType":"uint256","name":"reserveBalance","type":"uint256"},{"internalType":"uint256","name":"currentWeight","type":"uint256"},{"internalType":"uint256","name":"idealWeight","type":"uint256"},{"components":[{"internalType":"address","name":"tokenAddress","type":"address"},{"internalType":"bool","name":"isStable","type":"bool"},{"internalType":"uint256","name":"price","type":"uint256"}],"internalType":"struct DataTypes.PricedToken[]","name":"pricedTokens","type":"tuple[]"}],"internalType":"struct DataTypes.VaultInfo","name":"vaultInfo","type":"tuple"},{"internalType":"uint256","name":"amount","type":"uint256"}],"internalType":"struct DataTypes.VaultWithAmount[]","name":"vaultsWithAmount","type":"tuple[]"},{"internalType":"bool","name":"mint","type":"bool"}],"internalType":"struct DataTypes.Order","name":"order","type":"tuple"}],"name":"checkAndPersistMint","outputs":[],"stateMutability":"nonpayable","type":"function"},{"inputs":[{"components":[{"components":[{"components":[{"internalType":"address","name":"vault","type":"address"},{"internalType":"uint8","name":"decimals","type":"uint8"},{"internalType":"address","name":"underlying","type":"address"},{"internalType":"uint256","name":"price","type":"uint256"},{"components":[{"internalType":"uint256","name":"initialPrice","type":"uint256"},{"internalType":"uint256","name":"initialWeight","type":"uint256"},{"internalType":"uint256","name":"shortFlowMemory","type":"uint256"},{"internalType":"uint256","name":"shortFlowThreshold","type":"uint256"}],"internalType":"struct DataTypes.PersistedVaultMetadata","name":"persistedMetadata","type":"tuple"},{"internalType":"uint256","name":"reserveBalance","type":"uint256"},{"internalType":"uint256","name":"currentWeight","type":"uint256"},{"internalType":"uint256","name":"idealWeight","type":"uint256"},{"components":[{"internalType":"address","name":"tokenAddress","type":"address"},{"internalType":"bool","name":"isStable","type":"bool"},{"internalType":"uint256","name":"price","type":"uint256"}],"internalType":"struct DataTypes.PricedToken[]","name":"pricedTokens","type":"tuple[]"}],"internalType":"struct DataTypes.VaultInfo","name":"vaultInfo","type":"tuple"},{"internalType":"uint256","name":"amount","type":"uint256"}],"internalType":"struct DataTypes.VaultWithAmount[]","name":"vaultsWithAmount","type":"tuple[]"},{"internalType":"bool","name":"mint","type":"bool"}],"internalType":"struct DataTypes.Order","name":"order","type":"tuple"}],"name":"checkAndPersistRedeem","outputs":[],"stateMutability":"nonpayable","type":"function"},{"inputs":[],"name":"getWhitelist","outputs":[{"internalType":"address[]","name":"","type":"address[]"}],"stateMutability":"view","type":"function"},{"inputs":[],"name":"governor","outputs":[{"internalType":"address","name":"","type":"address"}],"stateMutability":"view","type":"function"},{"inputs":[],"name":"gyroConfig","outputs":[{"internalType":"contract IGyroConfig","name":"","type":"address"}],"stateMutability":"view","type":"function"},{"inputs":[{"components":[{"components":[{"components":[{"internalType":"address","name":"vault","type":"address"},{"internalType":"uint8","name":"decimals","type":"uint8"},{"internalType":"address","name":"underlying","type":"address"},{"internalType":"uint256","name":"price","type":"uint256"},{"components":[{"internalType":"uint256","name":"initialPrice","type":"uint256"},{"internalType":"uint256","name":"initialWeight","type":"uint256"},{"internalType":"uint256","name":"shortFlowMemory","type":"uint256"},{"internalType":"uint256","name":"shortFlowThreshold","type":"uint256"}],"internalType":"struct DataTypes.PersistedVaultMetadata","name":"persistedMetadata","type":"tuple"},{"internalType":"uint256","name":"reserveBalance","type":"uint256"},{"internalType":"uint256","name":"currentWeight","type":"uint256"},{"internalType":"uint256","name":"idealWeight","type":"uint256"},{"components":[{"internalType":"address","name":"tokenAddress","type":"address"},{"internalType":"bool","name":"isStable","type":"bool"},{"internalType":"uint256","name":"price","type":"uint256"}],"internalType":"struct DataTypes.PricedToken[]","name":"pricedTokens","type":"tuple[]"}],"internalType":"struct DataTypes.VaultInfo","name":"vaultInfo","type":"tuple"},{"internalType":"uint256","name":"amount","type":"uint256"}],"internalType":"struct DataTypes.VaultWithAmount[]","name":"vaultsWithAmount","type":"tuple[]"},{"internalType":"bool","name":"mint","type":"bool"}],"internalType":"struct DataTypes.Order","name":"order","type":"tuple"}],"name":"isMintSafe","outputs":[{"internalType":"string","name":"err","type":"string"}],"stateMutability":"view","type":"function"},{"inputs":[{"components":[{"components":[{"components":[{"internalType":"address","name":"vault","type":"address"},{"internalType":"uint8","name":"decimals","type":"uint8"},{"internalType":"address","name":"underlying","type":"address"},{"internalType":"uint256","name":"price","type":"uint256"},{"components":[{"internalType":"uint256","name":"initialPrice","type":"uint256"},{"internalType":"uint256","name":"initialWeight","type":"uint256"},{"internalType":"uint256","name":"shortFlowMemory","type":"uint256"},{"internalType":"uint256","name":"shortFlowThreshold","type":"uint256"}],"internalType":"struct DataTypes.PersistedVaultMetadata","name":"persistedMetadata","type":"tuple"},{"internalType":"uint256","name":"reserveBalance","type":"uint256"},{"internalType":"uint256","name":"currentWeight","type":"uint256"},{"internalType":"uint256","name":"idealWeight","type":"uint256"},{"components":[{"internalType":"address","name":"tokenAddress","type":"address"},{"internalType":"bool","name":"isStable","type":"bool"},{"internalType":"uint256","name":"price","type":"uint256"}],"internalType":"struct DataTypes.PricedToken[]","name":"pricedTokens","type":"tuple[]"}],"internalType":"struct DataTypes.VaultInfo","name":"vaultInfo","type":"tuple"},{"internalType":"uint256","name":"amount","type":"uint256"}],"internalType":"struct DataTypes.VaultWithAmount[]","name":"vaultsWithAmount","type":"tuple[]"},{"internalType":"bool","name":"mint","type":"bool"}],"internalType":"struct DataTypes.Order","name":"order","type":"tuple"}],"name":"isRedeemSafe","outputs":[{"internalType":"string","name":"err","type":"string"}],"stateMutability":"view","type":"function"},{"inputs":[],"name":"pendingGovernor","outputs":[{"internalType":"address","name":"","type":"address"}],"stateMutability":"view","type":"function"},{"inputs":[{"internalType":"address","name":"","type":"address"}],"name":"persistedFlowData","outputs":[{"components":[{"internalType":"uint128","name":"shortFlow","type":"uint128"},{"internalType":"uint64","name":"lastSafetyBlock","type":"uint64"},{"internalType":"uint64","name":"lastSeenBlock","type":"uint64"}],"internalType":"struct DataTypes.DirectionalFlowData","name":"inFlow","type":"tuple"},{"components":[{"internalType":"uint128","name":"shortFlow","type":"uint128"},{"internalType":"uint64","name":"lastSafetyBlock","type":"uint64"},{"internalType":"uint64","name":"lastSeenBlock","type":"uint64"}],"internalType":"struct DataTypes.DirectionalFlowData","name":"outFlow","type":"tuple"}],"stateMutability":"view","type":"function"},{"inputs":[{"internalType":"address","name":"_addressToRemove","type":"address"}],"name":"removeAddressFromWhitelist","outputs":[],"stateMutability":"nonpayable","type":"function"},{"inputs":[],"name":"safetyBlocksAutomatic","outputs":[{"internalType":"uint256","name":"","type":"uint256"}],"stateMutability":"view","type":"function"},{"inputs":[],"name":"safetyBlocksGuardian","outputs":[{"internalType":"uint256","name":"","type":"uint256"}],"stateMutability":"view","type":"function"}],"compiler":{"version":"0.8.10+commit.fc410830","evm_version":"london","optimizer":{"enabled":true,"runs":200}},"contractName":"VaultSafetyMode","language":"Solidity","natspec":{"methods":{"isMintSafe((((address,uint8,address,uint256,(uint256,uint256,uint256,uint256),uint256,uint256,uint256,(address,bool,uint256)[]),uint256)[],bool))":{"notice":"Checks whether a mint operation is safe","returns":{"err":"empty string if it is safe, otherwise the reason why it is not safe"}},"isRedeemSafe((((address,uint8,address,uint256,(uint256,uint256,uint256,uint256),uint256,uint256,uint256,(address,bool,uint256)[]),uint256)[],bool))":{"notice":"Checks whether a redeem operation is safe","returns":{"err":"empty string if it is safe, otherwise the reason why it is not safe"}},"checkAndPersistRedeem((((address,uint8,address,uint256,(uint256,uint256,uint256,uint256),uint256,uint256,uint256,(address,bool,uint256)[]),uint256)[],bool))":{"notice":"Checks whether a redeem operation is safe This is only called when an actual redeem is performed The implementation should store any relevant information for the redeem"},"pendingGovernor()":{"notice":"Returns the pending governor"},"governor()":{"notice":"Returns the current governor"},"acceptGovernance()":{"notice":"Called by the pending governor to approve the change"},"checkAndPersistMint((((address,uint8,address,uint256,(uint256,uint256,uint256,uint256),uint256,uint256,uint256,(address,bool,uint256)[]),uint256)[],bool))":{"notice":"Checks whether a mint operation is safe and reverts otherwise This is only called when an actual mint is performed The implementation should store any relevant information for the mint"},"changeGovernor(address)":{"notice":"Changes the governor can only be called by the current governor"}},"kind":"dev","version":1},"opcodes":"PUSH1 0x80 PUSH1 0x40 MSTORE CALLVALUE DUP1 ISZERO PUSH2 0x10 JUMPI PUSH1 0x0 DUP1 REVERT JUMPDEST POP PUSH1 0x4 CALLDATASIZE LT PUSH2 0x10B JUMPI PUSH1 0x0 CALLDATALOAD PUSH1 0xE0 SHR DUP1 PUSH4 0xA036C284 GT PUSH2 0xA2 JUMPI DUP1 PUSH4 0xD625436C GT PUSH2 0x71 JUMPI DUP1 PUSH4 0xD625436C EQ PUSH2 0x2E3 JUMPI DUP1 PUSH4 0xE2CC8679 EQ PUSH2 0x2F6 JUMPI DUP1 PUSH4 0xE3056A34 EQ PUSH2 0x309 JUMPI DUP1 PUSH4 0xE4C0AAF4 EQ PUSH2 0x31C JUMPI DUP1 PUSH4 0xFC283B86 EQ PUSH2 0x32F JUMPI PUSH1 0x0 DUP1 REVERT JUMPDEST DUP1 PUSH4 0xA036C284 EQ PUSH2 0x26D JUMPI DUP1 PUSH4 0xA0763820 EQ PUSH2 0x294 JUMPI DUP1 PUSH4 0xC9E959BF EQ PUSH2 0x2A7 JUMPI DUP1 PUSH4 0xD01F63F5 EQ PUSH2 0x2CE JUMPI PUSH1 0x0 DUP1 REVERT JUMPDEST DUP1 PUSH4 0x286DD3F5 GT PUSH2 0xDE JUMPI DUP1 PUSH4 0x286DD3F5 EQ PUSH2 0x200 JUMPI DUP1 PUSH4 0x44BBDB55 EQ PUSH2 0x213 JUMPI DUP1 PUSH4 0x6382B296 EQ PUSH2 0x23A JUMPI DUP1 PUSH4 0x7B9417C8 EQ PUSH2 0x25A JUMPI PUSH1 0x0 DUP1 REVERT JUMPDEST DUP1 PUSH4 0xBDF8D22 EQ PUSH2 0x110 JUMPI DUP1 PUSH4 0xC340A24 EQ PUSH2 0x132 JUMPI DUP1 PUSH4 0x238EFCBC EQ PUSH2 0x15D JUMPI DUP1 PUSH4 0x25AEB092 EQ PUSH2 0x167 JUMPI JUMPDEST PUSH1 0x0 DUP1 REVERT JUMPDEST PUSH2 0x11F PUSH8 0xB1A2BC2EC500000 DUP2 JUMP JUMPDEST PUSH1 0x40 MLOAD SWAP1 DUP2 MSTORE PUSH1 0x20 ADD JUMPDEST PUSH1 0x40 MLOAD DUP1 SWAP2 SUB SWAP1 RETURN JUMPDEST PUSH1 0x0 SLOAD PUSH2 0x145 SWAP1 PUSH1 0x1 PUSH1 0x1 PUSH1 0xA0 SHL SUB AND DUP2 JUMP JUMPDEST PUSH1 0x40 MLOAD PUSH1 0x1 PUSH1 0x1 PUSH1 0xA0 SHL SUB SWAP1 SWAP2 AND DUP2 MSTORE PUSH1 0x20 ADD PUSH2 0x129 JUMP JUMPDEST PUSH2 0x165 PUSH2 0x342 JUMP JUMPDEST STOP JUMPDEST PUSH2 0x1F2 PUSH2 0x175 CALLDATASIZE PUSH1 0x4 PUSH2 0x127F JUMP JUMPDEST PUSH1 0x4 PUSH1 0x20 SWAP1 DUP2 MSTORE PUSH1 0x0 SWAP2 DUP3 MSTORE PUSH1 0x40 SWAP2 DUP3 SWAP1 KECCAK256 DUP3 MLOAD PUSH1 0x60 DUP1 DUP3 ADD DUP6 MSTORE DUP3 SLOAD PUSH1 0x1 PUSH1 0x1 PUSH1 0x80 SHL SUB DUP1 DUP3 AND DUP5 MSTORE PUSH1 0x1 PUSH1 0x1 PUSH1 0x40 SHL SUB PUSH1 0x1 PUSH1 0x80 SHL DUP1 DUP5 DIV DUP3 AND DUP7 DUP10 ADD MSTORE PUSH1 0x1 PUSH1 0xC0 SHL SWAP4 DUP5 SWAP1 DIV DUP3 AND DUP7 DUP11 ADD MSTORE DUP9 MLOAD SWAP5 DUP6 ADD DUP10 MSTORE PUSH1 0x1 SWAP1 SWAP7 ADD SLOAD SWAP2 DUP3 AND DUP5 MSTORE SWAP5 DUP2 DIV DUP6 AND SWAP6 DUP4 ADD SWAP6 SWAP1 SWAP6 MSTORE SWAP1 SWAP4 DIV SWAP1 SWAP2 AND SWAP3 DUP3 ADD SWAP3 SWAP1 SWAP3 MSTORE DUP3 JUMP JUMPDEST PUSH1 0x40 MLOAD PUSH2 0x129 SWAP3 SWAP2 SWAP1 PUSH2 0x129C JUMP JUMPDEST PUSH2 0x165 PUSH2 0x20E CALLDATASIZE PUSH1 0x4 PUSH2 0x127F JUMP JUMPDEST PUSH2 0x3FB JUMP JUMPDEST PUSH2 0x145 PUSH32 0x0 DUP2 JUMP JUMPDEST PUSH2 0x24D PUSH2 0x248 CALLDATASIZE PUSH1 0x4 PUSH2 0x1510 JUMP JUMPDEST PUSH2 0x484 JUMP JUMPDEST PUSH1 0x40 MLOAD PUSH2 0x129 SWAP2 SWAP1 PUSH2 0x16FB JUMP JUMPDEST PUSH2 0x165 PUSH2 0x268 CALLDATASIZE PUSH1 0x4 PUSH2 0x127F JUMP JUMPDEST PUSH2 0x4BF JUMP JUMPDEST PUSH2 0x11F PUSH32 0x0 DUP2 JUMP JUMPDEST PUSH2 0x165 PUSH2 0x2A2 CALLDATASIZE PUSH1 0x4 PUSH2 0x1510 JUMP JUMPDEST PUSH2 0x548 JUMP JUMPDEST PUSH2 0x11F PUSH32 0x0 DUP2 JUMP JUMPDEST PUSH2 0x2D6 PUSH2 0x6AE JUMP JUMPDEST PUSH1 0x40 MLOAD PUSH2 0x129 SWAP2 SWAP1 PUSH2 0x1750 JUMP JUMPDEST PUSH2 0x165 PUSH2 0x2F1 CALLDATASIZE PUSH1 0x4 PUSH2 0x1510 JUMP JUMPDEST PUSH2 0x6BF JUMP JUMPDEST PUSH2 0x24D PUSH2 0x304 CALLDATASIZE PUSH1 0x4 PUSH2 0x1510 JUMP JUMPDEST PUSH2 0x77D JUMP JUMPDEST PUSH1 0x1 SLOAD PUSH2 0x145 SWAP1 PUSH1 0x1 PUSH1 0x1 PUSH1 0xA0 SHL SUB AND DUP2 JUMP JUMPDEST PUSH2 0x165 PUSH2 0x32A CALLDATASIZE PUSH1 0x4 PUSH2 0x127F JUMP JUMPDEST PUSH2 0x792 JUMP JUMPDEST PUSH2 0x165 PUSH2 0x33D CALLDATASIZE PUSH1 0x4 PUSH2 0x179D JUMP JUMPDEST PUSH2 0x867 JUMP JUMPDEST PUSH1 0x1 SLOAD PUSH1 0x40 DUP1 MLOAD DUP1 DUP3 ADD SWAP1 SWAP2 MSTORE PUSH1 0x2 DUP2 MSTORE PUSH2 0x333 PUSH1 0xF4 SHL PUSH1 0x20 DUP3 ADD MSTORE SWAP1 PUSH1 0x1 PUSH1 0x1 PUSH1 0xA0 SHL SUB AND CALLER EQ PUSH2 0x390 JUMPI PUSH1 0x40 MLOAD PUSH3 0x461BCD PUSH1 0xE5 SHL DUP2 MSTORE PUSH1 0x4 ADD PUSH2 0x387 SWAP2 SWAP1 PUSH2 0x16FB JUMP JUMPDEST PUSH1 0x40 MLOAD DUP1 SWAP2 SUB SWAP1 REVERT JUMPDEST POP PUSH1 0x0 DUP1 SLOAD PUSH1 0x1 DUP1 SLOAD PUSH1 0x1 PUSH1 0x1 PUSH1 0xA0 SHL SUB NOT DUP1 DUP5 AND PUSH1 0x1 PUSH1 0x1 PUSH1 0xA0 SHL SUB DUP1 DUP5 AND SWAP2 SWAP1 SWAP2 OR SWAP1 SWAP6 SSTORE AND SWAP1 SSTORE PUSH1 0x40 DUP1 MLOAD SWAP3 SWAP1 SWAP2 AND DUP1 DUP4 MSTORE CALLER PUSH1 0x20 DUP5 ADD MSTORE SWAP2 PUSH32 0xDE4B3F61490B74C0ED6237523974FE299126BBBF8A8A7482FD220104C59B0C84 SWAP2 ADD JUMPDEST PUSH1 0x40 MLOAD DUP1 SWAP2 SUB SWAP1 LOG1 POP JUMP JUMPDEST PUSH1 0x0 SLOAD PUSH1 0x40 DUP1 MLOAD DUP1 DUP3 ADD SWAP1 SWAP2 MSTORE PUSH1 0x2 DUP2 MSTORE PUSH2 0x333 PUSH1 0xF4 SHL PUSH1 0x20 DUP3 ADD MSTORE SWAP1 PUSH1 0x1 PUSH1 0x1 PUSH1 0xA0 SHL SUB AND CALLER EQ PUSH2 0x440 JUMPI PUSH1 0x40 MLOAD PUSH3 0x461BCD PUSH1 0xE5 SHL DUP2 MSTORE PUSH1 0x4 ADD PUSH2 0x387 SWAP2 SWAP1 PUSH2 0x16FB JUMP JUMPDEST POP PUSH2 0x44C PUSH1 0x2 DUP3 PUSH2 0xA9E JUMP JUMPDEST POP PUSH1 0x40 MLOAD PUSH1 0x1 PUSH1 0x1 PUSH1 0xA0 SHL SUB DUP3 AND SWAP1 PUSH32 0xCDD2E9B91A56913D370075169CEFA1602BA36BE5301664F752192BB1709DF757 SWAP1 PUSH1 0x0 SWAP1 LOG2 POP JUMP JUMPDEST PUSH1 0x60 DUP2 PUSH1 0x20 ADD MLOAD PUSH2 0x49F JUMPI PUSH2 0x498 DUP3 PUSH2 0xABC JUMP JUMPDEST POP SWAP3 SWAP2 POP POP JUMP JUMPDEST POP PUSH1 0x40 DUP1 MLOAD DUP1 DUP3 ADD SWAP1 SWAP2 MSTORE PUSH1 0x2 DUP2 MSTORE PUSH2 0x3331 PUSH1 0xF0 SHL PUSH1 0x20 DUP3 ADD MSTORE JUMPDEST SWAP2 SWAP1 POP JUMP JUMPDEST PUSH1 0x0 SLOAD PUSH1 0x40 DUP1 MLOAD DUP1 DUP3 ADD SWAP1 SWAP2 MSTORE PUSH1 0x2 DUP2 MSTORE PUSH2 0x333 PUSH1 0xF4 SHL PUSH1 0x20 DUP3 ADD MSTORE SWAP1 PUSH1 0x1 PUSH1 0x1 PUSH1 0xA0 SHL SUB AND CALLER EQ PUSH2 0x504 JUMPI PUSH1 0x40 MLOAD PUSH3 0x461BCD PUSH1 0xE5 SHL DUP2 MSTORE PUSH1 0x4 ADD PUSH2 0x387 SWAP2 SWAP1 PUSH2 0x16FB JUMP JUMPDEST POP PUSH2 0x510 PUSH1 0x2 DUP3 PUSH2 0xD72 JUMP JUMPDEST POP PUSH1 0x40 MLOAD PUSH1 0x1 PUSH1 0x1 PUSH1 0xA0 SHL SUB DUP3 AND SWAP1 PUSH32 0xA850AE9193F515CBAE8D35E8925BD2BE26627FC91BCE650B8652ED254E9CAB03 SWAP1 PUSH1 0x0 SWAP1 LOG2 POP JUMP JUMPDEST PUSH2 0x57A PUSH32 0x0 PUSH1 0x1 PUSH1 0x1 PUSH1 0xA0 SHL SUB AND PUSH2 0xD87 JUMP JUMPDEST PUSH1 0x1 PUSH1 0x1 PUSH1 0xA0 SHL SUB AND CALLER PUSH1 0x1 PUSH1 0x1 PUSH1 0xA0 SHL SUB AND EQ PUSH1 0x40 MLOAD DUP1 PUSH1 0x40 ADD PUSH1 0x40 MSTORE DUP1 PUSH1 0x2 DUP2 MSTORE PUSH1 0x20 ADD PUSH2 0x333 PUSH1 0xF4 SHL DUP2 MSTORE POP SWAP1 PUSH2 0x5C7 JUMPI PUSH1 0x40 MLOAD PUSH3 0x461BCD PUSH1 0xE5 SHL DUP2 MSTORE PUSH1 0x4 ADD PUSH2 0x387 SWAP2 SWAP1 PUSH2 0x16FB JUMP JUMPDEST POP DUP1 PUSH1 0x20 ADD MLOAD ISZERO PUSH1 0x40 MLOAD DUP1 PUSH1 0x40 ADD PUSH1 0x40 MSTORE DUP1 PUSH1 0x2 DUP2 MSTORE PUSH1 0x20 ADD PUSH2 0x3331 PUSH1 0xF0 SHL DUP2 MSTORE POP SWAP1 PUSH2 0x607 JUMPI PUSH1 0x40 MLOAD PUSH3 0x461BCD PUSH1 0xE5 SHL DUP2 MSTORE PUSH1 0x4 ADD PUSH2 0x387 SWAP2 SWAP1 PUSH2 0x16FB JUMP JUMPDEST POP PUSH1 0x0 DUP1 PUSH2 0x614 DUP4 PUSH2 0xABC JUMP JUMPDEST DUP2 MLOAD SWAP2 SWAP4 POP SWAP2 POP ISZERO PUSH2 0x69F JUMPI PUSH1 0x40 DUP1 MLOAD DUP1 DUP3 ADD SWAP1 SWAP2 MSTORE PUSH1 0x2 DUP2 MSTORE PUSH2 0x3631 PUSH1 0xF0 SHL PUSH1 0x20 DUP3 ADD MSTORE PUSH2 0x644 SWAP1 DUP4 SWAP1 PUSH2 0xE12 JUMP JUMPDEST ISZERO PUSH2 0x685 JUMPI PUSH32 0x135E6DD29EFA875112189ADD0769ED7F19CD6DB71EEFE10BF040C499F5AAB344 DUP3 PUSH1 0x40 MLOAD PUSH2 0x678 SWAP2 SWAP1 PUSH2 0x16FB JUMP JUMPDEST PUSH1 0x40 MLOAD DUP1 SWAP2 SUB SWAP1 LOG1 PUSH2 0x69F JUMP JUMPDEST DUP2 PUSH1 0x40 MLOAD PUSH3 0x461BCD PUSH1 0xE5 SHL DUP2 MSTORE PUSH1 0x4 ADD PUSH2 0x387 SWAP2 SWAP1 PUSH2 0x16FB JUMP JUMPDEST PUSH2 0x6A9 DUP4 DUP3 PUSH2 0xE3C JUMP JUMPDEST POP POP POP JUMP JUMPDEST PUSH1 0x60 PUSH2 0x6BA PUSH1 0x2 PUSH2 0xF8E JUMP JUMPDEST SWAP1 POP SWAP1 JUMP JUMPDEST PUSH2 0x6F1 PUSH32 0x0 PUSH1 0x1 PUSH1 0x1 PUSH1 0xA0 SHL SUB AND PUSH2 0xD87 JUMP JUMPDEST PUSH1 0x1 PUSH1 0x1 PUSH1 0xA0 SHL SUB AND CALLER PUSH1 0x1 PUSH1 0x1 PUSH1 0xA0 SHL SUB AND EQ PUSH1 0x40 MLOAD DUP1 PUSH1 0x40 ADD PUSH1 0x40 MSTORE DUP1 PUSH1 0x2 DUP2 MSTORE PUSH1 0x20 ADD PUSH2 0x333 PUSH1 0xF4 SHL DUP2 MSTORE POP SWAP1 PUSH2 0x73E JUMPI PUSH1 0x40 MLOAD PUSH3 0x461BCD PUSH1 0xE5 SHL DUP2 MSTORE PUSH1 0x4 ADD PUSH2 0x387 SWAP2 SWAP1 PUSH2 0x16FB JUMP JUMPDEST POP DUP1 PUSH1 0x20 ADD MLOAD PUSH1 0x40 MLOAD DUP1 PUSH1 0x40 ADD PUSH1 0x40 MSTORE DUP1 PUSH1 0x2 DUP2 MSTORE PUSH1 0x20 ADD PUSH2 0x3331 PUSH1 0xF0 SHL DUP2 MSTORE POP SWAP1 PUSH2 0x607 JUMPI PUSH1 0x40 MLOAD PUSH3 0x461BCD PUSH1 0xE5 SHL DUP2 MSTORE PUSH1 0x4 ADD PUSH2 0x387 SWAP2 SWAP1 PUSH2 0x16FB JUMP JUMPDEST PUSH1 0x60 DUP2 PUSH1 0x20 ADD MLOAD ISZERO PUSH2 0x49F JUMPI PUSH2 0x498 DUP3 PUSH2 0xABC JUMP JUMPDEST PUSH1 0x0 SLOAD PUSH1 0x40 DUP1 MLOAD DUP1 DUP3 ADD SWAP1 SWAP2 MSTORE PUSH1 0x2 DUP2 MSTORE PUSH2 0x333 PUSH1 0xF4 SHL PUSH1 0x20 DUP3 ADD MSTORE SWAP1 PUSH1 0x1 PUSH1 0x1 PUSH1 0xA0 SHL SUB AND CALLER EQ PUSH2 0x7D7 JUMPI PUSH1 0x40 MLOAD PUSH3 0x461BCD PUSH1 0xE5 SHL DUP2 MSTORE PUSH1 0x4 ADD PUSH2 0x387 SWAP2 SWAP1 PUSH2 0x16FB JUMP JUMPDEST POP PUSH1 0x40 DUP1 MLOAD DUP1 DUP3 ADD SWAP1 SWAP2 MSTORE PUSH1 0x2 DUP2 MSTORE PUSH2 0x3331 PUSH1 0xF0 SHL PUSH1 0x20 DUP3 ADD MSTORE PUSH1 0x1 PUSH1 0x1 PUSH1 0xA0 SHL SUB DUP3 AND PUSH2 0x818 JUMPI PUSH1 0x40 MLOAD PUSH3 0x461BCD PUSH1 0xE5 SHL DUP2 MSTORE PUSH1 0x4 ADD PUSH2 0x387 SWAP2 SWAP1 PUSH2 0x16FB JUMP JUMPDEST POP PUSH1 0x1 DUP1 SLOAD PUSH1 0x1 PUSH1 0x1 PUSH1 0xA0 SHL SUB NOT AND PUSH1 0x1 PUSH1 0x1 PUSH1 0xA0 SHL SUB DUP4 AND SWAP1 DUP2 OR SWAP1 SWAP2 SSTORE PUSH1 0x40 MLOAD SWAP1 DUP2 MSTORE PUSH32 0x67235BA2E63C748A35B95C4F92A3BBC2A1389938170A5CE6C9ADD5D0B03A314A SWAP1 PUSH1 0x20 ADD PUSH2 0x3F0 JUMP JUMPDEST CALLER PUSH2 0x873 PUSH1 0x2 DUP3 PUSH2 0xFA2 JUMP JUMPDEST PUSH1 0x40 MLOAD DUP1 PUSH1 0x40 ADD PUSH1 0x40 MSTORE DUP1 PUSH1 0x2 DUP2 MSTORE PUSH1 0x20 ADD PUSH2 0x333 PUSH1 0xF4 SHL DUP2 MSTORE POP SWAP1 PUSH2 0x8AC JUMPI PUSH1 0x40 MLOAD PUSH3 0x461BCD PUSH1 0xE5 SHL DUP2 MSTORE PUSH1 0x4 ADD PUSH2 0x387 SWAP2 SWAP1 PUSH2 0x16FB JUMP JUMPDEST POP PUSH1 0x40 DUP1 MLOAD DUP1 DUP3 ADD SWAP1 SWAP2 MSTORE PUSH1 0x2 DUP2 MSTORE PUSH2 0x1B19 PUSH1 0xF1 SHL PUSH1 0x20 DUP3 ADD MSTORE PUSH32 0x0 DUP4 GT ISZERO PUSH2 0x907 JUMPI PUSH1 0x40 MLOAD PUSH3 0x461BCD PUSH1 0xE5 SHL DUP2 MSTORE PUSH1 0x4 ADD PUSH2 0x387 SWAP2 SWAP1 PUSH2 0x16FB JUMP JUMPDEST POP PUSH1 0x0 PUSH2 0x914 DUP4 NUMBER PUSH2 0x1810 JUMP JUMPDEST SWAP1 POP PUSH1 0x0 DUP5 PUSH1 0x20 ADD MLOAD PUSH1 0x2 DUP2 GT ISZERO PUSH2 0x92E JUMPI PUSH2 0x92E PUSH2 0x1828 JUMP JUMPDEST EQ DUP1 PUSH2 0x94F JUMPI POP PUSH1 0x2 DUP5 PUSH1 0x20 ADD MLOAD PUSH1 0x2 DUP2 GT ISZERO PUSH2 0x94D JUMPI PUSH2 0x94D PUSH2 0x1828 JUMP JUMPDEST EQ JUMPDEST ISZERO PUSH2 0x9D7 JUMPI DUP4 MLOAD PUSH1 0x1 PUSH1 0x1 PUSH1 0xA0 SHL SUB SWAP1 DUP2 AND PUSH1 0x0 SWAP1 DUP2 MSTORE PUSH1 0x4 PUSH1 0x20 SWAP1 DUP2 MSTORE PUSH1 0x40 SWAP2 DUP3 SWAP1 KECCAK256 DUP1 SLOAD PUSH8 0xFFFFFFFFFFFFFFFF PUSH1 0x80 SHL NOT AND PUSH1 0x1 PUSH1 0x80 SHL PUSH1 0x1 PUSH1 0x1 PUSH1 0x40 SHL SUB DUP8 AND MUL OR SWAP1 SSTORE DUP7 MLOAD DUP3 MLOAD SWAP4 AND DUP4 MSTORE DUP3 ADD DUP6 SWAP1 MSTORE PUSH1 0x1 SWAP1 DUP3 ADD MSTORE PUSH32 0xD3A9973922556AA8A1D3200840E7B0ADC7851CB170484C2C7001999AE794ABC4 SWAP1 PUSH1 0x60 ADD PUSH1 0x40 MLOAD DUP1 SWAP2 SUB SWAP1 LOG1 JUMPDEST PUSH1 0x1 DUP5 PUSH1 0x20 ADD MLOAD PUSH1 0x2 DUP2 GT ISZERO PUSH2 0x9EF JUMPI PUSH2 0x9EF PUSH2 0x1828 JUMP JUMPDEST EQ DUP1 PUSH2 0xA10 JUMPI POP PUSH1 0x2 DUP5 PUSH1 0x20 ADD MLOAD PUSH1 0x2 DUP2 GT ISZERO PUSH2 0xA0E JUMPI PUSH2 0xA0E PUSH2 0x1828 JUMP JUMPDEST EQ JUMPDEST ISZERO PUSH2 0xA98 JUMPI DUP4 MLOAD PUSH1 0x1 PUSH1 0x1 PUSH1 0xA0 SHL SUB SWAP1 DUP2 AND PUSH1 0x0 SWAP1 DUP2 MSTORE PUSH1 0x4 PUSH1 0x20 SWAP1 DUP2 MSTORE PUSH1 0x40 DUP1 DUP4 KECCAK256 PUSH1 0x1 ADD DUP1 SLOAD PUSH8 0xFFFFFFFFFFFFFFFF PUSH1 0x80 SHL NOT AND PUSH1 0x1 PUSH1 0x80 SHL PUSH1 0x1 PUSH1 0x1 PUSH1 0x40 SHL SUB DUP9 AND MUL OR SWAP1 SSTORE DUP8 MLOAD DUP2 MLOAD SWAP5 AND DUP5 MSTORE SWAP1 DUP4 ADD DUP7 SWAP1 MSTORE DUP3 ADD MSTORE PUSH32 0xD3A9973922556AA8A1D3200840E7B0ADC7851CB170484C2C7001999AE794ABC4 SWAP1 PUSH1 0x60 ADD PUSH1 0x40 MLOAD DUP1 SWAP2 SUB SWAP1 LOG1 JUMPDEST POP POP POP POP JUMP JUMPDEST PUSH1 0x0 PUSH2 0xAB3 DUP4 PUSH1 0x1 PUSH1 0x1 PUSH1 0xA0 SHL SUB DUP5 AND PUSH2 0xFC4 JUMP JUMPDEST SWAP1 POP JUMPDEST SWAP3 SWAP2 POP POP JUMP JUMPDEST PUSH1 0x60 DUP1 DUP3 PUSH1 0x0 ADD MLOAD MLOAD PUSH1 0x1 PUSH1 0x1 PUSH1 0x40 SHL SUB DUP2 GT ISZERO PUSH2 0xADC JUMPI PUSH2 0xADC PUSH2 0x130B JUMP JUMPDEST PUSH1 0x40 MLOAD SWAP1 DUP1 DUP3 MSTORE DUP1 PUSH1 0x20 MUL PUSH1 0x20 ADD DUP3 ADD PUSH1 0x40 MSTORE DUP1 ISZERO PUSH2 0xB21 JUMPI DUP2 PUSH1 0x20 ADD JUMPDEST PUSH1 0x40 DUP1 MLOAD DUP1 DUP3 ADD SWAP1 SWAP2 MSTORE PUSH1 0x0 DUP1 DUP3 MSTORE PUSH1 0x20 DUP3 ADD MSTORE DUP2 MSTORE PUSH1 0x20 ADD SWAP1 PUSH1 0x1 SWAP1 SUB SWAP1 DUP2 PUSH2 0xAFA JUMPI SWAP1 POP JUMPDEST POP SWAP1 POP PUSH1 0x0 JUMPDEST DUP4 MLOAD MLOAD DUP2 LT ISZERO PUSH2 0xD6C JUMPI PUSH1 0x0 DUP5 PUSH1 0x0 ADD MLOAD DUP3 DUP2 MLOAD DUP2 LT PUSH2 0xB49 JUMPI PUSH2 0xB49 PUSH2 0x183E JUMP JUMPDEST PUSH1 0x20 MUL PUSH1 0x20 ADD ADD MLOAD PUSH1 0x20 ADD MLOAD SWAP1 POP PUSH1 0x0 DUP6 PUSH1 0x0 ADD MLOAD DUP4 DUP2 MLOAD DUP2 LT PUSH2 0xB6F JUMPI PUSH2 0xB6F PUSH2 0x183E JUMP JUMPDEST PUSH1 0x20 SWAP1 DUP2 MUL SWAP2 SWAP1 SWAP2 ADD DUP2 ADD MLOAD MLOAD DUP1 MLOAD PUSH1 0x1 PUSH1 0x1 PUSH1 0xA0 SHL SUB AND PUSH1 0x0 SWAP1 DUP2 MSTORE PUSH1 0x4 DUP4 MSTORE PUSH1 0x40 DUP1 DUP3 KECCAK256 DUP2 MLOAD PUSH1 0x60 DUP2 ADD DUP4 MSTORE DUP4 DUP2 MSTORE SWAP5 DUP6 ADD DUP4 SWAP1 MSTORE SWAP1 DUP5 ADD SWAP2 SWAP1 SWAP2 MSTORE SWAP1 SWAP3 POP SWAP1 DUP8 PUSH1 0x20 ADD MLOAD PUSH2 0xBC3 JUMPI DUP2 PUSH1 0x1 ADD PUSH2 0xBC5 JUMP JUMPDEST DUP2 JUMPDEST PUSH1 0x40 DUP1 MLOAD PUSH1 0x60 DUP2 ADD DUP3 MSTORE SWAP2 SLOAD PUSH1 0x1 PUSH1 0x1 PUSH1 0x80 SHL SUB DUP2 AND DUP4 MSTORE PUSH1 0x1 PUSH1 0x1 PUSH1 0x40 SHL SUB PUSH1 0x1 PUSH1 0x80 SHL DUP3 DIV DUP2 AND PUSH1 0x20 DUP6 ADD MSTORE PUSH1 0x1 PUSH1 0xC0 SHL SWAP1 SWAP2 DIV AND SWAP1 DUP3 ADD MSTORE SWAP1 POP DUP4 ISZERO DUP1 ISZERO SWAP1 PUSH2 0xC1E JUMPI POP DUP1 PUSH1 0x20 ADD MLOAD PUSH1 0x1 PUSH1 0x1 PUSH1 0x40 SHL SUB AND NUMBER GT ISZERO JUMPDEST ISZERO PUSH2 0xC49 JUMPI PUSH1 0x40 MLOAD DUP1 PUSH1 0x40 ADD PUSH1 0x40 MSTORE DUP1 PUSH1 0x2 DUP2 MSTORE PUSH1 0x20 ADD PUSH2 0x3635 PUSH1 0xF0 SHL DUP2 MSTORE POP SWAP7 POP POP POP POP POP PUSH2 0xD6C JUMP JUMPDEST PUSH1 0x0 DUP4 PUSH1 0x80 ADD MLOAD PUSH1 0x60 ADD MLOAD SWAP1 POP PUSH1 0x0 PUSH2 0xC86 DUP4 PUSH1 0x0 ADD MLOAD PUSH1 0x1 PUSH1 0x1 PUSH1 0x80 SHL SUB AND NUMBER DUP6 PUSH1 0x40 ADD MLOAD PUSH1 0x1 PUSH1 0x1 PUSH1 0x40 SHL SUB AND DUP9 PUSH1 0x80 ADD MLOAD PUSH1 0x40 ADD MLOAD PUSH2 0x10B7 JUMP JUMPDEST DUP11 MLOAD DUP1 MLOAD DUP10 SWAP1 DUP2 LT PUSH2 0xC9A JUMPI PUSH2 0xC9A PUSH2 0x183E JUMP JUMPDEST PUSH1 0x20 MUL PUSH1 0x20 ADD ADD MLOAD PUSH1 0x20 ADD MLOAD PUSH2 0xCB0 SWAP2 SWAP1 PUSH2 0x1810 JUMP JUMPDEST SWAP1 POP DUP2 DUP2 GT ISZERO PUSH2 0xCE2 JUMPI PUSH1 0x40 MLOAD DUP1 PUSH1 0x40 ADD PUSH1 0x40 MSTORE DUP1 PUSH1 0x2 DUP2 MSTORE PUSH1 0x20 ADD PUSH2 0x363 PUSH1 0xF4 SHL DUP2 MSTORE POP SWAP9 POP POP POP POP POP POP POP PUSH2 0xD6C JUMP JUMPDEST PUSH1 0x0 PUSH2 0xCF6 PUSH8 0xB1A2BC2EC500000 DUP5 PUSH2 0x1140 JUMP JUMPDEST DUP3 GT SWAP1 POP DUP1 ISZERO PUSH2 0xD1E JUMPI PUSH1 0x40 MLOAD DUP1 PUSH1 0x40 ADD PUSH1 0x40 MSTORE DUP1 PUSH1 0x2 DUP2 MSTORE PUSH1 0x20 ADD PUSH2 0x3631 PUSH1 0xF0 SHL DUP2 MSTORE POP SWAP10 POP JUMPDEST PUSH1 0x40 MLOAD DUP1 PUSH1 0x40 ADD PUSH1 0x40 MSTORE DUP1 DUP4 DUP2 MSTORE PUSH1 0x20 ADD DUP3 ISZERO ISZERO DUP2 MSTORE POP DUP10 DUP10 DUP2 MLOAD DUP2 LT PUSH2 0xD47 JUMPI PUSH2 0xD47 PUSH2 0x183E JUMP JUMPDEST PUSH1 0x20 MUL PUSH1 0x20 ADD ADD DUP2 SWAP1 MSTORE POP POP POP POP POP POP POP POP DUP1 DUP1 PUSH2 0xD64 SWAP1 PUSH2 0x1854 JUMP JUMPDEST SWAP2 POP POP PUSH2 0xB27 JUMP JUMPDEST POP SWAP2 POP SWAP2 JUMP JUMPDEST PUSH1 0x0 PUSH2 0xAB3 DUP4 PUSH1 0x1 PUSH1 0x1 PUSH1 0xA0 SHL SUB DUP5 AND PUSH2 0x1161 JUMP JUMPDEST PUSH1 0x40 MLOAD PUSH4 0x21F8A721 PUSH1 0xE0 SHL DUP2 MSTORE PUSH32 0x524F4F545F5341464554595F434845434B5F4144445245535300000000000000 PUSH1 0x4 DUP3 ADD MSTORE PUSH1 0x0 SWAP1 PUSH1 0x1 PUSH1 0x1 PUSH1 0xA0 SHL SUB DUP4 AND SWAP1 PUSH4 0x21F8A721 SWAP1 PUSH1 0x24 ADD PUSH1 0x20 PUSH1 0x40 MLOAD DUP1 DUP4 SUB DUP2 DUP7 GAS STATICCALL ISZERO DUP1 ISZERO PUSH2 0xDEE JUMPI RETURNDATASIZE PUSH1 0x0 DUP1 RETURNDATACOPY RETURNDATASIZE PUSH1 0x0 REVERT JUMPDEST POP POP POP POP PUSH1 0x40 MLOAD RETURNDATASIZE PUSH1 0x1F NOT PUSH1 0x1F DUP3 ADD AND DUP3 ADD DUP1 PUSH1 0x40 MSTORE POP DUP2 ADD SWAP1 PUSH2 0xAB6 SWAP2 SWAP1 PUSH2 0x186F JUMP JUMPDEST PUSH1 0x0 DUP2 MLOAD DUP4 MLOAD EQ PUSH2 0xE25 JUMPI POP PUSH1 0x0 PUSH2 0xAB6 JUMP JUMPDEST POP DUP1 MLOAD PUSH1 0x20 SWAP2 DUP3 ADD KECCAK256 DUP3 MLOAD SWAP3 SWAP1 SWAP2 ADD SWAP2 SWAP1 SWAP2 KECCAK256 EQ SWAP1 JUMP JUMPDEST PUSH1 0x0 JUMPDEST DUP3 MLOAD MLOAD DUP2 LT ISZERO PUSH2 0x6A9 JUMPI PUSH1 0x0 DUP4 PUSH1 0x0 ADD MLOAD DUP3 DUP2 MLOAD DUP2 LT PUSH2 0xE61 JUMPI PUSH2 0xE61 PUSH2 0x183E JUMP JUMPDEST PUSH1 0x20 SWAP1 DUP2 MUL SWAP2 SWAP1 SWAP2 ADD DUP2 ADD MLOAD MLOAD DUP1 MLOAD PUSH1 0x1 PUSH1 0x1 PUSH1 0xA0 SHL SUB AND PUSH1 0x0 SWAP1 DUP2 MSTORE PUSH1 0x4 DUP4 MSTORE PUSH1 0x40 DUP2 KECCAK256 SWAP3 DUP8 ADD MLOAD SWAP2 SWAP4 POP SWAP1 ISZERO PUSH2 0xE9A JUMPI POP DUP1 PUSH2 0xEA0 JUMP JUMPDEST POP PUSH1 0x1 DUP2 ADD JUMPDEST DUP1 SLOAD PUSH1 0x1 PUSH1 0x1 PUSH1 0xC0 SHL SUB AND PUSH1 0x1 PUSH1 0xC0 SHL NUMBER PUSH1 0x1 PUSH1 0x1 PUSH1 0x40 SHL SUB AND MUL OR DUP2 SSTORE DUP5 MLOAD DUP6 SWAP1 DUP6 SWAP1 DUP2 LT PUSH2 0xED2 JUMPI PUSH2 0xED2 PUSH2 0x183E JUMP JUMPDEST PUSH1 0x20 SWAP1 DUP2 MUL SWAP2 SWAP1 SWAP2 ADD ADD MLOAD MLOAD DUP2 SLOAD PUSH16 0xFFFFFFFFFFFFFFFFFFFFFFFFFFFFFFFF NOT AND PUSH1 0x1 PUSH1 0x1 PUSH1 0x80 SHL SUB SWAP1 SWAP2 AND OR DUP2 SSTORE DUP5 MLOAD DUP6 SWAP1 DUP6 SWAP1 DUP2 LT PUSH2 0xF15 JUMPI PUSH2 0xF15 PUSH2 0x183E JUMP JUMPDEST PUSH1 0x20 MUL PUSH1 0x20 ADD ADD MLOAD PUSH1 0x20 ADD MLOAD ISZERO PUSH2 0xF78 JUMPI PUSH2 0xF50 PUSH32 0x0 NUMBER PUSH2 0x1810 JUMP JUMPDEST DUP2 SLOAD PUSH1 0x1 PUSH1 0x1 PUSH1 0x40 SHL SUB SWAP2 SWAP1 SWAP2 AND PUSH1 0x1 PUSH1 0x80 SHL MUL PUSH8 0xFFFFFFFFFFFFFFFF PUSH1 0x80 SHL NOT SWAP1 SWAP2 AND OR DUP2 SSTORE JUMPDEST POP POP POP DUP1 DUP1 PUSH2 0xF86 SWAP1 PUSH2 0x1854 JUMP JUMPDEST SWAP2 POP POP PUSH2 0xE3F JUMP JUMPDEST PUSH1 0x60 PUSH1 0x0 PUSH2 0xF9B DUP4 PUSH2 0x11B0 JUMP JUMPDEST SWAP4 SWAP3 POP POP POP JUMP JUMPDEST PUSH1 0x1 PUSH1 0x1 PUSH1 0xA0 SHL SUB DUP2 AND PUSH1 0x0 SWAP1 DUP2 MSTORE PUSH1 0x1 DUP4 ADD PUSH1 0x20 MSTORE PUSH1 0x40 DUP2 KECCAK256 SLOAD ISZERO ISZERO PUSH2 0xAB3 JUMP JUMPDEST PUSH1 0x0 DUP2 DUP2 MSTORE PUSH1 0x1 DUP4 ADD PUSH1 0x20 MSTORE PUSH1 0x40 DUP2 KECCAK256 SLOAD DUP1 ISZERO PUSH2 0x10AD JUMPI PUSH1 0x0 PUSH2 0xFE8 PUSH1 0x1 DUP4 PUSH2 0x188C JUMP JUMPDEST DUP6 SLOAD SWAP1 SWAP2 POP PUSH1 0x0 SWAP1 PUSH2 0xFFC SWAP1 PUSH1 0x1 SWAP1 PUSH2 0x188C JUMP JUMPDEST SWAP1 POP DUP2 DUP2 EQ PUSH2 0x1061 JUMPI PUSH1 0x0 DUP7 PUSH1 0x0 ADD DUP3 DUP2 SLOAD DUP2 LT PUSH2 0x101C JUMPI PUSH2 0x101C PUSH2 0x183E JUMP JUMPDEST SWAP1 PUSH1 0x0 MSTORE PUSH1 0x20 PUSH1 0x0 KECCAK256 ADD SLOAD SWAP1 POP DUP1 DUP8 PUSH1 0x0 ADD DUP5 DUP2 SLOAD DUP2 LT PUSH2 0x103F JUMPI PUSH2 0x103F PUSH2 0x183E JUMP JUMPDEST PUSH1 0x0 SWAP2 DUP3 MSTORE PUSH1 0x20 DUP1 DUP4 KECCAK256 SWAP1 SWAP2 ADD SWAP3 SWAP1 SWAP3 SSTORE SWAP2 DUP3 MSTORE PUSH1 0x1 DUP9 ADD SWAP1 MSTORE PUSH1 0x40 SWAP1 KECCAK256 DUP4 SWAP1 SSTORE JUMPDEST DUP6 SLOAD DUP7 SWAP1 DUP1 PUSH2 0x1072 JUMPI PUSH2 0x1072 PUSH2 0x18A3 JUMP JUMPDEST PUSH1 0x1 SWAP1 SUB DUP2 DUP2 SWAP1 PUSH1 0x0 MSTORE PUSH1 0x20 PUSH1 0x0 KECCAK256 ADD PUSH1 0x0 SWAP1 SSTORE SWAP1 SSTORE DUP6 PUSH1 0x1 ADD PUSH1 0x0 DUP7 DUP2 MSTORE PUSH1 0x20 ADD SWAP1 DUP2 MSTORE PUSH1 0x20 ADD PUSH1 0x0 KECCAK256 PUSH1 0x0 SWAP1 SSTORE PUSH1 0x1 SWAP4 POP POP POP POP PUSH2 0xAB6 JUMP JUMPDEST PUSH1 0x0 SWAP2 POP POP PUSH2 0xAB6 JUMP JUMPDEST PUSH1 0x0 DUP4 DUP4 EQ DUP1 PUSH2 0x10C5 JUMPI POP DUP5 ISZERO JUMPDEST ISZERO PUSH2 0x10D1 JUMPI POP DUP4 PUSH2 0x1138 JUMP JUMPDEST DUP4 DUP4 LT ISZERO PUSH2 0x1108 JUMPI PUSH1 0x0 PUSH2 0x10E5 DUP5 DUP7 PUSH2 0x188C JUMP JUMPDEST SWAP1 POP PUSH1 0x0 PUSH2 0x10F3 DUP5 DUP4 PUSH2 0x120C JUMP JUMPDEST SWAP1 POP PUSH2 0x10FF DUP8 DUP3 PUSH2 0x1140 JUMP JUMPDEST SWAP3 POP POP POP PUSH2 0x1138 JUMP JUMPDEST PUSH1 0x40 DUP1 MLOAD DUP1 DUP3 ADD DUP3 MSTORE PUSH1 0x2 DUP2 MSTORE PUSH2 0x3331 PUSH1 0xF0 SHL PUSH1 0x20 DUP3 ADD MSTORE SWAP1 MLOAD PUSH3 0x461BCD PUSH1 0xE5 SHL DUP2 MSTORE PUSH2 0x387 SWAP2 SWAP1 PUSH1 0x4 ADD PUSH2 0x16FB JUMP JUMPDEST SWAP5 SWAP4 POP POP POP POP JUMP JUMPDEST PUSH1 0x0 DUP1 PUSH2 0x114D DUP4 DUP6 PUSH2 0x18B9 JUMP JUMPDEST SWAP1 POP PUSH2 0x1138 PUSH8 0xDE0B6B3A7640000 DUP3 PUSH2 0x18EE JUMP JUMPDEST PUSH1 0x0 DUP2 DUP2 MSTORE PUSH1 0x1 DUP4 ADD PUSH1 0x20 MSTORE PUSH1 0x40 DUP2 KECCAK256 SLOAD PUSH2 0x11A8 JUMPI POP DUP2 SLOAD PUSH1 0x1 DUP2 DUP2 ADD DUP5 SSTORE PUSH1 0x0 DUP5 DUP2 MSTORE PUSH1 0x20 DUP1 DUP3 KECCAK256 SWAP1 SWAP4 ADD DUP5 SWAP1 SSTORE DUP5 SLOAD DUP5 DUP3 MSTORE DUP3 DUP7 ADD SWAP1 SWAP4 MSTORE PUSH1 0x40 SWAP1 KECCAK256 SWAP2 SWAP1 SWAP2 SSTORE PUSH2 0xAB6 JUMP JUMPDEST POP PUSH1 0x0 PUSH2 0xAB6 JUMP JUMPDEST PUSH1 0x60 DUP2 PUSH1 0x0 ADD DUP1 SLOAD DUP1 PUSH1 0x20 MUL PUSH1 0x20 ADD PUSH1 0x40 MLOAD SWAP1 DUP2 ADD PUSH1 0x40 MSTORE DUP1 SWAP3 SWAP2 SWAP1 DUP2 DUP2 MSTORE PUSH1 0x20 ADD DUP3 DUP1 SLOAD DUP1 ISZERO PUSH2 0x1200 JUMPI PUSH1 0x20 MUL DUP3 ADD SWAP2 SWAP1 PUSH1 0x0 MSTORE PUSH1 0x20 PUSH1 0x0 KECCAK256 SWAP1 JUMPDEST DUP2 SLOAD DUP2 MSTORE PUSH1 0x20 ADD SWAP1 PUSH1 0x1 ADD SWAP1 DUP1 DUP4 GT PUSH2 0x11EC JUMPI JUMPDEST POP POP POP POP POP SWAP1 POP SWAP2 SWAP1 POP JUMP JUMPDEST PUSH1 0x0 PUSH8 0xDE0B6B3A7640000 JUMPDEST DUP3 ISZERO PUSH2 0xAB3 JUMPI PUSH2 0x1229 PUSH1 0x2 DUP5 PUSH2 0x1902 JUMP JUMPDEST PUSH1 0x1 EQ ISZERO PUSH2 0x123E JUMPI PUSH2 0x123B DUP2 DUP6 PUSH2 0x1140 JUMP JUMPDEST SWAP1 POP JUMPDEST PUSH2 0x1249 PUSH1 0x2 DUP5 PUSH2 0x18EE JUMP JUMPDEST SWAP3 POP PUSH2 0x1255 DUP5 DUP6 PUSH2 0x1140 JUMP JUMPDEST SWAP4 POP PUSH2 0x1218 JUMP JUMPDEST PUSH1 0x1 PUSH1 0x1 PUSH1 0xA0 SHL SUB DUP2 AND DUP2 EQ PUSH2 0x1271 JUMPI PUSH1 0x0 DUP1 REVERT JUMPDEST POP JUMP JUMPDEST DUP1 CALLDATALOAD PUSH2 0x4BA DUP2 PUSH2 0x125C JUMP JUMPDEST PUSH1 0x0 PUSH1 0x20 DUP3 DUP5 SUB SLT ISZERO PUSH2 0x1291 JUMPI PUSH1 0x0 DUP1 REVERT JUMPDEST DUP2 CALLDATALOAD PUSH2 0xAB3 DUP2 PUSH2 0x125C JUMP JUMPDEST PUSH1 0xC0 DUP2 ADD PUSH2 0x12D6 DUP3 DUP6 DUP1 MLOAD PUSH1 0x1 PUSH1 0x1 PUSH1 0x80 SHL SUB AND DUP3 MSTORE PUSH1 0x20 DUP1 DUP3 ADD MLOAD PUSH1 0x1 PUSH1 0x1 PUSH1 0x40 SHL SUB SWAP1 DUP2 AND SWAP2 DUP5 ADD SWAP2 SWAP1 SWAP2 MSTORE PUSH1 0x40 SWAP2 DUP3 ADD MLOAD AND SWAP2 ADD MSTORE JUMP JUMPDEST DUP3 MLOAD PUSH1 0x1 PUSH1 0x1 PUSH1 0x80 SHL SUB AND PUSH1 0x60 DUP4 ADD MSTORE PUSH1 0x20 DUP4 ADD MLOAD PUSH1 0x1 PUSH1 0x1 PUSH1 0x40 SHL SUB SWAP1 DUP2 AND PUSH1 0x80 DUP5 ADD MSTORE PUSH1 0x40 DUP5 ADD MLOAD AND PUSH1 0xA0 DUP4 ADD MSTORE PUSH2 0xF9B JUMP JUMPDEST PUSH4 0x4E487B71 PUSH1 0xE0 SHL PUSH1 0x0 MSTORE PUSH1 0x41 PUSH1 0x4 MSTORE PUSH1 0x24 PUSH1 0x0 REVERT JUMPDEST PUSH1 0x40 MLOAD PUSH1 0x60 DUP2 ADD PUSH1 0x1 PUSH1 0x1 PUSH1 0x40 SHL SUB DUP2 GT DUP3 DUP3 LT OR ISZERO PUSH2 0x1343 JUMPI PUSH2 0x1343 PUSH2 0x130B JUMP JUMPDEST PUSH1 0x40 MSTORE SWAP1 JUMP JUMPDEST PUSH1 0x40 DUP1 MLOAD SWAP1 DUP2 ADD PUSH1 0x1 PUSH1 0x1 PUSH1 0x40 SHL SUB DUP2 GT DUP3 DUP3 LT OR ISZERO PUSH2 0x1343 JUMPI PUSH2 0x1343 PUSH2 0x130B JUMP JUMPDEST PUSH1 0x40 MLOAD PUSH2 0x120 DUP2 ADD PUSH1 0x1 PUSH1 0x1 PUSH1 0x40 SHL SUB DUP2 GT DUP3 DUP3 LT OR ISZERO PUSH2 0x1343 JUMPI PUSH2 0x1343 PUSH2 0x130B JUMP JUMPDEST PUSH1 0x40 MLOAD PUSH1 0x1F DUP3 ADD PUSH1 0x1F NOT AND DUP2 ADD PUSH1 0x1 PUSH1 0x1 PUSH1 0x40 SHL SUB DUP2 GT DUP3 DUP3 LT OR ISZERO PUSH2 0x13B6 JUMPI PUSH2 0x13B6 PUSH2 0x130B JUMP JUMPDEST PUSH1 0x40 MSTORE SWAP2 SWAP1 POP JUMP JUMPDEST PUSH1 0x0 PUSH1 0x1 PUSH1 0x1 PUSH1 0x40 SHL SUB DUP3 GT ISZERO PUSH2 0x13D7 JUMPI PUSH2 0x13D7 PUSH2 0x130B JUMP JUMPDEST POP PUSH1 0x5 SHL PUSH1 0x20 ADD SWAP1 JUMP JUMPDEST DUP1 CALLDATALOAD PUSH1 0xFF DUP2 AND DUP2 EQ PUSH2 0x4BA JUMPI PUSH1 0x0 DUP1 REVERT JUMPDEST PUSH1 0x0 PUSH1 0x80 DUP3 DUP5 SUB SLT ISZERO PUSH2 0x1404 JUMPI PUSH1 0x0 DUP1 REVERT JUMPDEST PUSH1 0x40 MLOAD PUSH1 0x80 DUP2 ADD DUP2 DUP2 LT PUSH1 0x1 PUSH1 0x1 PUSH1 0x40 SHL SUB DUP3 GT OR ISZERO PUSH2 0x1426 JUMPI PUSH2 0x1426 PUSH2 0x130B JUMP JUMPDEST DUP1 PUSH1 0x40 MSTORE POP DUP1 SWAP2 POP DUP3 CALLDATALOAD DUP2 MSTORE PUSH1 0x20 DUP4 ADD CALLDATALOAD PUSH1 0x20 DUP3 ADD MSTORE PUSH1 0x40 DUP4 ADD CALLDATALOAD PUSH1 0x40 DUP3 ADD MSTORE PUSH1 0x60 DUP4 ADD CALLDATALOAD PUSH1 0x60 DUP3 ADD MSTORE POP SWAP3 SWAP2 POP POP JUMP JUMPDEST DUP1 CALLDATALOAD DUP1 ISZERO ISZERO DUP2 EQ PUSH2 0x4BA JUMPI PUSH1 0x0 DUP1 REVERT JUMPDEST PUSH1 0x0 DUP3 PUSH1 0x1F DUP4 ADD SLT PUSH2 0x1478 JUMPI PUSH1 0x0 DUP1 REVERT JUMPDEST DUP2 CALLDATALOAD PUSH1 0x20 PUSH2 0x148D PUSH2 0x1488 DUP4 PUSH2 0x13BE JUMP JUMPDEST PUSH2 0x138E JUMP JUMPDEST DUP3 DUP2 MSTORE PUSH1 0x60 SWAP3 DUP4 MUL DUP6 ADD DUP3 ADD SWAP3 DUP3 DUP3 ADD SWAP2 SWAP1 DUP8 DUP6 GT ISZERO PUSH2 0x14AC JUMPI PUSH1 0x0 DUP1 REVERT JUMPDEST DUP4 DUP8 ADD JUMPDEST DUP6 DUP2 LT ISZERO PUSH2 0x1503 JUMPI DUP2 DUP2 DUP11 SUB SLT ISZERO PUSH2 0x14C8 JUMPI PUSH1 0x0 DUP1 DUP2 REVERT JUMPDEST PUSH2 0x14D0 PUSH2 0x1321 JUMP JUMPDEST DUP2 CALLDATALOAD PUSH2 0x14DB DUP2 PUSH2 0x125C JUMP JUMPDEST DUP2 MSTORE PUSH2 0x14E8 DUP3 DUP8 ADD PUSH2 0x1457 JUMP JUMPDEST DUP2 DUP8 ADD MSTORE PUSH1 0x40 DUP3 DUP2 ADD CALLDATALOAD SWAP1 DUP3 ADD MSTORE DUP5 MSTORE SWAP3 DUP5 ADD SWAP3 DUP2 ADD PUSH2 0x14B0 JUMP JUMPDEST POP SWAP1 SWAP8 SWAP7 POP POP POP POP POP POP POP JUMP JUMPDEST PUSH1 0x0 PUSH1 0x20 DUP3 DUP5 SUB SLT ISZERO PUSH2 0x1522 JUMPI PUSH1 0x0 DUP1 REVERT JUMPDEST PUSH1 0x1 PUSH1 0x1 PUSH1 0x40 SHL SUB DUP1 DUP4 CALLDATALOAD GT ISZERO PUSH2 0x1538 JUMPI PUSH1 0x0 DUP1 REVERT JUMPDEST PUSH1 0x40 DUP4 CALLDATALOAD DUP5 ADD DUP6 SUB SLT ISZERO PUSH2 0x154B JUMPI PUSH1 0x0 DUP1 REVERT JUMPDEST PUSH2 0x1553 PUSH2 0x1349 JUMP JUMPDEST DUP2 DUP5 CALLDATALOAD DUP6 ADD CALLDATALOAD GT ISZERO PUSH2 0x1564 JUMPI PUSH1 0x0 DUP1 REVERT JUMPDEST DUP4 CALLDATALOAD DUP5 ADD DUP1 CALLDATALOAD ADD PUSH1 0x1F DUP2 ADD DUP7 SGT PUSH2 0x157A JUMPI PUSH1 0x0 DUP1 REVERT JUMPDEST PUSH2 0x1587 PUSH2 0x1488 DUP3 CALLDATALOAD PUSH2 0x13BE JUMP JUMPDEST DUP2 CALLDATALOAD DUP1 DUP3 MSTORE PUSH1 0x20 DUP1 DUP4 ADD SWAP3 SWAP2 PUSH1 0x5 SHL DUP5 ADD ADD DUP9 LT ISZERO PUSH2 0x15A5 JUMPI PUSH1 0x0 DUP1 REVERT JUMPDEST PUSH1 0x20 DUP4 ADD JUMPDEST PUSH1 0x20 DUP5 CALLDATALOAD PUSH1 0x5 SHL DUP6 ADD ADD DUP2 LT ISZERO PUSH2 0x16D9 JUMPI DUP6 DUP2 CALLDATALOAD GT ISZERO PUSH2 0x15C9 JUMPI PUSH1 0x0 DUP1 REVERT JUMPDEST DUP1 CALLDATALOAD DUP5 ADD PUSH1 0x1F NOT PUSH1 0x40 DUP3 DUP13 SUB DUP3 ADD SLT ISZERO PUSH2 0x15E2 JUMPI PUSH1 0x0 DUP1 REVERT JUMPDEST PUSH2 0x15EA PUSH2 0x1349 JUMP JUMPDEST DUP9 PUSH1 0x20 DUP5 ADD CALLDATALOAD GT ISZERO PUSH2 0x15FB JUMPI PUSH1 0x0 DUP1 REVERT JUMPDEST PUSH1 0x20 DUP4 ADD CALLDATALOAD DUP4 ADD PUSH2 0x180 DUP4 DUP3 DUP16 SUB ADD SLT ISZERO PUSH2 0x1615 JUMPI PUSH1 0x0 DUP1 REVERT JUMPDEST PUSH2 0x161D PUSH2 0x136B JUMP JUMPDEST SWAP3 POP PUSH2 0x162B PUSH1 0x20 DUP3 ADD PUSH2 0x1274 JUMP JUMPDEST DUP4 MSTORE PUSH2 0x1639 PUSH1 0x40 DUP3 ADD PUSH2 0x13E1 JUMP JUMPDEST PUSH1 0x20 DUP5 ADD MSTORE PUSH2 0x164A PUSH1 0x60 DUP3 ADD PUSH2 0x1274 JUMP JUMPDEST PUSH1 0x40 DUP5 ADD MSTORE PUSH1 0x80 DUP2 ADD CALLDATALOAD PUSH1 0x60 DUP5 ADD MSTORE PUSH2 0x1666 DUP14 PUSH1 0xA0 DUP4 ADD PUSH2 0x13F2 JUMP JUMPDEST PUSH1 0x80 DUP5 ADD MSTORE PUSH2 0x120 DUP2 ADD CALLDATALOAD PUSH1 0xA0 DUP5 ADD MSTORE PUSH2 0x140 DUP2 ADD CALLDATALOAD PUSH1 0xC0 DUP5 ADD MSTORE PUSH2 0x160 DUP2 ADD CALLDATALOAD PUSH1 0xE0 DUP5 ADD MSTORE DUP10 PUSH2 0x180 DUP3 ADD CALLDATALOAD GT ISZERO PUSH2 0x169E JUMPI PUSH1 0x0 DUP1 REVERT JUMPDEST PUSH2 0x16B2 DUP14 PUSH1 0x20 PUSH2 0x180 DUP5 ADD CALLDATALOAD DUP5 ADD ADD PUSH2 0x1467 JUMP JUMPDEST PUSH2 0x100 DUP5 ADD MSTORE POP SWAP1 DUP2 MSTORE PUSH1 0x40 SWAP2 SWAP1 SWAP2 ADD CALLDATALOAD PUSH1 0x20 DUP1 DUP4 ADD SWAP2 SWAP1 SWAP2 MSTORE SWAP1 DUP5 MSTORE SWAP3 DUP4 ADD SWAP3 ADD PUSH2 0x15AA JUMP JUMPDEST POP DUP4 MSTORE POP PUSH2 0x16EE SWAP1 POP DUP5 CALLDATALOAD DUP6 ADD PUSH1 0x20 ADD PUSH2 0x1457 JUMP JUMPDEST PUSH1 0x20 DUP3 ADD MSTORE SWAP5 SWAP4 POP POP POP POP JUMP JUMPDEST PUSH1 0x0 PUSH1 0x20 DUP1 DUP4 MSTORE DUP4 MLOAD DUP1 DUP3 DUP6 ADD MSTORE PUSH1 0x0 JUMPDEST DUP2 DUP2 LT ISZERO PUSH2 0x1728 JUMPI DUP6 DUP2 ADD DUP4 ADD MLOAD DUP6 DUP3 ADD PUSH1 0x40 ADD MSTORE DUP3 ADD PUSH2 0x170C JUMP JUMPDEST DUP2 DUP2 GT ISZERO PUSH2 0x173A JUMPI PUSH1 0x0 PUSH1 0x40 DUP4 DUP8 ADD ADD MSTORE JUMPDEST POP PUSH1 0x1F ADD PUSH1 0x1F NOT AND SWAP3 SWAP1 SWAP3 ADD PUSH1 0x40 ADD SWAP4 SWAP3 POP POP POP JUMP JUMPDEST PUSH1 0x20 DUP1 DUP3 MSTORE DUP3 MLOAD DUP3 DUP3 ADD DUP2 SWAP1 MSTORE PUSH1 0x0 SWAP2 SWAP1 DUP5 DUP3 ADD SWAP1 PUSH1 0x40 DUP6 ADD SWAP1 DUP5 JUMPDEST DUP2 DUP2 LT ISZERO PUSH2 0x1791 JUMPI DUP4 MLOAD PUSH1 0x1 PUSH1 0x1 PUSH1 0xA0 SHL SUB AND DUP4 MSTORE SWAP3 DUP5 ADD SWAP3 SWAP2 DUP5 ADD SWAP2 PUSH1 0x1 ADD PUSH2 0x176C JUMP JUMPDEST POP SWAP1 SWAP7 SWAP6 POP POP POP POP POP POP JUMP JUMPDEST PUSH1 0x0 DUP1 DUP3 DUP5 SUB PUSH1 0x60 DUP2 SLT ISZERO PUSH2 0x17B1 JUMPI PUSH1 0x0 DUP1 REVERT JUMPDEST PUSH1 0x40 DUP2 SLT ISZERO PUSH2 0x17BF JUMPI PUSH1 0x0 DUP1 REVERT JUMPDEST POP PUSH2 0x17C8 PUSH2 0x1349 JUMP JUMPDEST DUP4 CALLDATALOAD PUSH2 0x17D3 DUP2 PUSH2 0x125C JUMP JUMPDEST DUP2 MSTORE PUSH1 0x20 DUP5 ADD CALLDATALOAD PUSH1 0x3 DUP2 LT PUSH2 0x17E7 JUMPI PUSH1 0x0 DUP1 REVERT JUMPDEST PUSH1 0x20 DUP3 ADD MSTORE SWAP5 PUSH1 0x40 SWAP4 SWAP1 SWAP4 ADD CALLDATALOAD SWAP4 POP POP POP JUMP JUMPDEST PUSH4 0x4E487B71 PUSH1 0xE0 SHL PUSH1 0x0 MSTORE PUSH1 0x11 PUSH1 0x4 MSTORE PUSH1 0x24 PUSH1 0x0 REVERT JUMPDEST PUSH1 0x0 DUP3 NOT DUP3 GT ISZERO PUSH2 0x1823 JUMPI PUSH2 0x1823 PUSH2 0x17FA JUMP JUMPDEST POP ADD SWAP1 JUMP JUMPDEST PUSH4 0x4E487B71 PUSH1 0xE0 SHL PUSH1 0x0 MSTORE PUSH1 0x21 PUSH1 0x4 MSTORE PUSH1 0x24 PUSH1 0x0 REVERT JUMPDEST PUSH4 0x4E487B71 PUSH1 0xE0 SHL PUSH1 0x0 MSTORE PUSH1 0x32 PUSH1 0x4 MSTORE PUSH1 0x24 PUSH1 0x0 REVERT JUMPDEST PUSH1 0x0 PUSH1 0x0 NOT DUP3 EQ ISZERO PUSH2 0x1868 JUMPI PUSH2 0x1868 PUSH2 0x17FA JUMP JUMPDEST POP PUSH1 0x1 ADD SWAP1 JUMP JUMPDEST PUSH1 0x0 PUSH1 0x20 DUP3 DUP5 SUB SLT ISZERO PUSH2 0x1881 JUMPI PUSH1 0x0 DUP1 REVERT JUMPDEST DUP2 MLOAD PUSH2 0xAB3 DUP2 PUSH2 0x125C JUMP JUMPDEST PUSH1 0x0 DUP3 DUP3 LT ISZERO PUSH2 0x189E JUMPI PUSH2 0x189E PUSH2 0x17FA JUMP JUMPDEST POP SUB SWAP1 JUMP JUMPDEST PUSH4 0x4E487B71 PUSH1 0xE0 SHL PUSH1 0x0 MSTORE PUSH1 0x31 PUSH1 0x4 MSTORE PUSH1 0x24 PUSH1 0x0 REVERT JUMPDEST PUSH1 0x0 DUP2 PUSH1 0x0 NOT DIV DUP4 GT DUP3 ISZERO ISZERO AND ISZERO PUSH2 0x18D3 JUMPI PUSH2 0x18D3 PUSH2 0x17FA JUMP JUMPDEST POP MUL SWAP1 JUMP JUMPDEST PUSH4 0x4E487B71 PUSH1 0xE0 SHL PUSH1 0x0 MSTORE PUSH1 0x12 PUSH1 0x4 MSTORE PUSH1 0x24 PUSH1 0x0 REVERT JUMPDEST PUSH1 0x0 DUP3 PUSH2 0x18FD JUMPI PUSH2 0x18FD PUSH2 0x18D8 JUMP JUMPDEST POP DIV SWAP1 JUMP JUMPDEST PUSH1 0x0 DUP3 PUSH2 0x1911 JUMPI PUSH2 0x1911 PUSH2 0x18D8 JUMP JUMPDEST POP MOD SWAP1 JUMP INVALID LOG2 PUSH5 0x6970667358 0x22 SLT KECCAK256 RETURN SIGNEXTEND 0xA6 0x28 0x2B DUP15 DIFFICULTY MSTORE8 PUSH20 0xE924BB502CCF7E7B8859209860E883ED2C457AA4 PUSH16 0x26E964736F6C634300080A0033000000 ","sha1":"c5eedead158305071080957cfaf14680154235ef","source":"// SPDX-License-Identifier: LicenseRef-Gyro-1.0\n// for information on licensing please see the README in the GitHub repository <https://github.com/gyrostable/core-protocol>.\npragma solidity ^0.8.4;\n\nimport \"@openzeppelin/contracts/token/ERC20/utils/SafeERC20.sol\";\nimport \"@openzeppelin/contracts/token/ERC20/ERC20.sol\";\nimport \"@openzeppelin/contracts/utils/structs/EnumerableSet.sol\";\n\nimport \"./../auth/Governable.sol\";\nimport \"../../libraries/DataTypes.sol\";\nimport \"../../interfaces/IGyroConfig.sol\";\nimport \"../../interfaces/IAssetRegistry.sol\";\nimport \"../../interfaces/IGyroVault.sol\";\nimport \"../../interfaces/balancer/IVault.sol\";\nimport \"../../libraries/Errors.sol\";\nimport \"../../interfaces/ISafetyCheck.sol\";\nimport \"../../interfaces/IVaultRegistry.sol\";\nimport \"../../libraries/FixedPoint.sol\";\nimport \"../../libraries/Flow.sol\";\nimport \"../../libraries/Errors.sol\";\nimport \"../../libraries/StringExtensions.sol\";\nimport \"../../libraries/ConfigHelpers.sol\";\n\ncontract VaultSafetyMode is ISafetyCheck, Governable {\n    using FixedPoint for uint256;\n    using StringExtensions for string;\n    using EnumerableSet for EnumerableSet.AddressSet;\n    using ConfigHelpers for IGyroConfig;\n\n    EnumerableSet.AddressSet internal whitelist;\n\n    /// @notice Emitted when entering safety mode\n    event SafetyStatus(string err);\n\n    /// @notice Emitted when a whitelisted address protects a vault\n    event OracleGuardianActivated(\n        address vaultAddress,\n        uint256 durationOfProtectionInBlocks,\n        bool inFlows\n    );\n\n    event AddedToWhitelist(address indexed account);\n    event RemovedFromWhitelist(address indexed account);\n\n    struct FlowResult {\n        uint256 newFlow;\n        bool safetyModeActivated;\n    }\n\n    mapping(address => DataTypes.FlowData) public persistedFlowData;\n\n    IGyroConfig public immutable gyroConfig;\n\n    uint256 public immutable safetyBlocksAutomatic;\n    uint256 public immutable safetyBlocksGuardian;\n\n    uint256 public constant THRESHOLD_BUFFER = 8e17;\n\n    constructor(\n        address governor,\n        uint256 _safetyBlocksAutomatic,\n        uint256 _safetyBlocksGuardian,\n        address _gyroConfig\n    ) Governable(governor) {\n        safetyBlocksAutomatic = _safetyBlocksAutomatic;\n        safetyBlocksGuardian = _safetyBlocksGuardian;\n        gyroConfig = IGyroConfig(_gyroConfig);\n    }\n\n    modifier rootSafetyCheckOnly() {\n        require(msg.sender == address(gyroConfig.getRootSafetyCheck()), Errors.NOT_AUTHORIZED);\n        _;\n    }\n\n    /// @notice Checks whether a mint operation is safe\n    /// @return err empty string if it is safe, otherwise the reason why it is not safe\n    function isMintSafe(DataTypes.Order memory order) external view returns (string memory err) {\n        if (order.mint) {\n            (err, ) = _checkFlows(order);\n        } else {\n            err = Errors.INVALID_ARGUMENT;\n        }\n    }\n\n    /// @inheritdoc ISafetyCheck\n    function checkAndPersistMint(DataTypes.Order memory order) external rootSafetyCheckOnly {\n        require(order.mint, Errors.INVALID_ARGUMENT);\n        (string memory err, FlowResult[] memory result) = _checkFlows(order);\n\n        if (bytes(err).length > 0) {\n            if (err.compareStrings(Errors.OPERATION_SUCCEEDS_BUT_SAFETY_MODE_ACTIVATED)) {\n                emit SafetyStatus(err);\n            } else {\n                revert(err);\n            }\n        }\n\n        _updateFlows(order, result);\n    }\n\n    /// @notice Checks whether a redeem operation is safe\n    /// @return err empty string if it is safe, otherwise the reason why it is not safe\n    function isRedeemSafe(DataTypes.Order memory order) external view returns (string memory err) {\n        if (!order.mint) {\n            (err, ) = _checkFlows(order);\n        } else {\n            err = Errors.INVALID_ARGUMENT;\n        }\n    }\n\n    /// @notice Checks whether a redeem operation is safe\n    /// This is only called when an actual redeem is performed\n    /// The implementation should store any relevant information for the redeem\n    function checkAndPersistRedeem(DataTypes.Order memory order) external rootSafetyCheckOnly {\n        require(!order.mint, Errors.INVALID_ARGUMENT);\n        (string memory err, FlowResult[] memory result) = _checkFlows(order);\n\n        if (bytes(err).length > 0) {\n            if (err.compareStrings(Errors.OPERATION_SUCCEEDS_BUT_SAFETY_MODE_ACTIVATED)) {\n                emit SafetyStatus(err);\n            } else {\n                revert(err);\n            }\n        }\n\n        _updateFlows(order, result);\n    }\n\n    function getWhitelist() external view returns (address[] memory) {\n        return whitelist.values();\n    }\n\n    function addAddressToWhitelist(address _addressToAdd) external governanceOnly {\n        whitelist.add(_addressToAdd);\n        emit AddedToWhitelist(_addressToAdd);\n    }\n\n    function removeAddressFromWhitelist(address _addressToRemove) external governanceOnly {\n        whitelist.remove(_addressToRemove);\n        emit RemovedFromWhitelist(_addressToRemove);\n    }\n\n    modifier isWhitelisted(address _address) {\n        require(whitelist.contains(_address), Errors.NOT_AUTHORIZED);\n        _;\n    }\n\n    function activateOracleGuardian(DataTypes.GuardedVaults memory vaultToProtect, uint256 blocks)\n        external\n        isWhitelisted(msg.sender)\n    {\n        require(blocks <= safetyBlocksGuardian, Errors.ORACLE_GUARDIAN_TIME_LIMIT);\n\n        uint64 targetBlock = uint64(block.number + blocks);\n        if (\n            vaultToProtect.direction == DataTypes.Direction.In ||\n            vaultToProtect.direction == DataTypes.Direction.Both\n        ) {\n            persistedFlowData[vaultToProtect.vaultAddress].inFlow.lastSafetyBlock = targetBlock;\n            emit OracleGuardianActivated(vaultToProtect.vaultAddress, blocks, true);\n        }\n        if (\n            vaultToProtect.direction == DataTypes.Direction.Out ||\n            vaultToProtect.direction == DataTypes.Direction.Both\n        ) {\n            persistedFlowData[vaultToProtect.vaultAddress].outFlow.lastSafetyBlock = targetBlock;\n            emit OracleGuardianActivated(vaultToProtect.vaultAddress, blocks, false);\n        }\n    }\n\n    function _checkFlows(DataTypes.Order memory order)\n        internal\n        view\n        returns (string memory err, FlowResult[] memory result)\n    {\n        result = new FlowResult[](order.vaultsWithAmount.length);\n\n        for (uint256 i; i < order.vaultsWithAmount.length; i++) {\n            uint256 amount = order.vaultsWithAmount[i].amount;\n            DataTypes.VaultInfo memory vault = order.vaultsWithAmount[i].vaultInfo;\n            DataTypes.FlowData storage flowData = persistedFlowData[vault.vault];\n            DataTypes.DirectionalFlowData memory directionalData;\n            directionalData = order.mint ? flowData.inFlow : flowData.outFlow;\n\n            if (amount > 0 && block.number <= directionalData.lastSafetyBlock) {\n                err = Errors.SAFETY_MODE_ACTIVATED;\n                break;\n            }\n\n            uint256 shortFlowThreshold = vault.persistedMetadata.shortFlowThreshold;\n            uint256 newFlow = order.vaultsWithAmount[i].amount +\n                Flow.updateFlow(\n                    directionalData.shortFlow,\n                    block.number,\n                    directionalData.lastSeenBlock,\n                    vault.persistedMetadata.shortFlowMemory\n                );\n\n            if (newFlow > shortFlowThreshold) {\n                err = Errors.VAULT_FLOW_TOO_HIGH;\n                break;\n            }\n\n            bool activateSafetyMode = newFlow > THRESHOLD_BUFFER.mulDown(shortFlowThreshold);\n            if (activateSafetyMode) {\n                err = Errors.OPERATION_SUCCEEDS_BUT_SAFETY_MODE_ACTIVATED;\n            }\n\n            result[i] = FlowResult(newFlow, activateSafetyMode);\n        }\n    }\n\n    function _updateFlows(DataTypes.Order memory order, FlowResult[] memory result) internal {\n        for (uint256 i; i < order.vaultsWithAmount.length; i++) {\n            DataTypes.VaultInfo memory vault = order.vaultsWithAmount[i].vaultInfo;\n            DataTypes.FlowData storage flowData = persistedFlowData[vault.vault];\n            DataTypes.DirectionalFlowData storage directionalData;\n            if (order.mint) {\n                directionalData = flowData.inFlow;\n            } else {\n                directionalData = flowData.outFlow;\n            }\n            directionalData.lastSeenBlock = uint64(block.number);\n            directionalData.shortFlow = uint128(result[i].newFlow);\n            if (result[i].safetyModeActivated) {\n                directionalData.lastSafetyBlock = uint64(block.number + safetyBlocksAutomatic);\n            }\n        }\n    }\n}\n","sourcePath":"contracts/safety/VaultSafetyMode.sol","deployment":{"address":"0xcc8B1710C8a01aD5CBDe800e75Ac7523f9B2D6B8","chainid":"137","blockHeight":37996206}}