{"abi":[{"anonymous":false,"inputs":[{"indexed":true,"internalType":"address","name":"asset","type":"address"},{"indexed":true,"internalType":"address","name":"previousFeed","type":"address"},{"indexed":true,"internalType":"address","name":"newFeed","type":"address"},{"components":[{"internalType":"uint64","name":"minDiffTime","type":"uint64"},{"internalType":"uint64","name":"maxDeviation","type":"uint64"}],"indexed":false,"internalType":"struct CrashProtectedChainlinkPriceOracle.FeedMeta","name":"meta","type":"tuple"}],"name":"FeedUpdated","type":"event"},{"anonymous":false,"inputs":[{"indexed":false,"internalType":"address","name":"newGovernor","type":"address"}],"name":"GovernorChangeRequested","type":"event"},{"anonymous":false,"inputs":[{"indexed":false,"internalType":"address","name":"oldGovernor","type":"address"},{"indexed":false,"internalType":"address","name":"newGovernor","type":"address"}],"name":"GovernorChanged","type":"event"},{"inputs":[],"name":"MAX_LAG","outputs":[{"internalType":"uint256","name":"","type":"uint256"}],"stateMutability":"view","type":"function"},{"inputs":[],"name":"acceptGovernance","outputs":[],"stateMutability":"nonpayable","type":"function"},{"inputs":[{"internalType":"address","name":"newGovernor","type":"address"}],"name":"changeGovernor","outputs":[],"stateMutability":"nonpayable","type":"function"},{"inputs":[{"internalType":"address","name":"","type":"address"}],"name":"feedMetas","outputs":[{"internalType":"uint64","name":"minDiffTime","type":"uint64"},{"internalType":"uint64","name":"maxDeviation","type":"uint64"}],"stateMutability":"view","type":"function"},{"inputs":[{"internalType":"address","name":"","type":"address"}],"name":"feeds","outputs":[{"internalType":"address","name":"","type":"address"}],"stateMutability":"view","type":"function"},{"inputs":[{"internalType":"address","name":"asset","type":"address"}],"name":"getPriceUSD","outputs":[{"internalType":"uint256","name":"","type":"uint256"}],"stateMutability":"view","type":"function"},{"inputs":[],"name":"governor","outputs":[{"internalType":"address","name":"","type":"address"}],"stateMutability":"view","type":"function"},{"inputs":[],"name":"pendingGovernor","outputs":[{"internalType":"address","name":"","type":"address"}],"stateMutability":"view","type":"function"},{"inputs":[{"internalType":"address","name":"asset","type":"address"},{"internalType":"address","name":"feed","type":"address"},{"components":[{"internalType":"uint64","name":"minDiffTime","type":"uint64"},{"internalType":"uint64","name":"maxDeviation","type":"uint64"}],"internalType":"struct CrashProtectedChainlinkPriceOracle.FeedMeta","name":"feedMeta","type":"tuple"}],"name":"setFeed","outputs":[],"stateMutability":"nonpayable","type":"function"}],"bytecode":"608060405234801561001057600080fd5b50600080546001600160a01b0319163390811782556040805192835260208301919091527fde4b3f61490b74c0ed6237523974fe299126bbbf8a8a7482fd220104c59b0c84910160405180910390a1610d358061006e6000396000f3fe608060405234801561001057600080fd5b50600436106100935760003560e01c80634cbacc84116100665780634cbacc84146101135780635462001e146101695780635708447d1461017c578063e3056a341461018f578063e4c0aaf4146101a257600080fd5b80630c340a241461009857806314c1d37f146100c8578063238efcbc146100e05780632fba4aa9146100ea575b600080fd5b6000546100ab906001600160a01b031681565b6040516001600160a01b0390911681526020015b60405180910390f35b6100d26201518081565b6040519081526020016100bf565b6100e86101b5565b005b6100ab6100f836600461097a565b6002602052600090815260409020546001600160a01b031681565b61014861012136600461097a565b60036020526000908152604090205467ffffffffffffffff80821691600160401b90041682565b6040805167ffffffffffffffff9384168152929091166020830152016100bf565b6100e86101773660046109ad565b61026e565b6100d261018a36600461097a565b61040f565b6001546100ab906001600160a01b031681565b6100e86101b036600461097a565b610682565b600154604080518082019091526002815261033360f41b6020820152906001600160a01b031633146102035760405162461bcd60e51b81526004016101fa9190610a4f565b60405180910390fd5b5060008054600180546001600160a01b03198084166001600160a01b03808416919091179095551690556040805192909116808352336020840152917fde4b3f61490b74c0ed6237523974fe299126bbbf8a8a7482fd220104c59b0c8491015b60405180910390a150565b600054604080518082019091526002815261033360f41b6020820152906001600160a01b031633146102b35760405162461bcd60e51b81526004016101fa9190610a4f565b506001600160a01b0380841660009081526002602081815260409283902054835180850190945291835261333160f01b90830152821691841682141561030c5760405162461bcd60e51b81526004016101fa9190610a4f565b508151604080518082019091526002815261333160f01b60208201529067ffffffffffffffff166103505760405162461bcd60e51b81526004016101fa9190610a4f565b506001600160a01b03848116600081815260026020908152604080832080546001600160a01b031916898716908117909155808452600383529281902087518154898501805167ffffffffffffffff9384166fffffffffffffffffffffffffffffffff199093168317600160401b91851691909102179093558351908152915116928101929092529193851692917fdc65aceb37af772a52834bdb6f74f79c209765225d01455d6a9b273a776547bb910160405180910390a450505050565b6001600160a01b03808216600090815260026020818152604080842054815180830190925292815261034360f41b9181019190915291921690816104665760405162461bcd60e51b81526004016101fa9190610a4f565b50600080600061047584610757565b6001600160a01b038716600090815260036020908152604080832081518083019092525467ffffffffffffffff8082168352600160401b90910416918101919091529396509194509250805b6104cc600187610aba565b604051639a6fc8f560e01b815269ffffffffffffffffffff821660048201529096506001600160a01b03881690639a6fc8f59060240160a060405180830381865afa15801561051f573d6000803e3d6000fd5b505050506040513d601f19601f820116820180604052508101906105439190610aff565b50865192955093505067ffffffffffffffff1690506105628286610b4f565b106104c1576040805180820190915260028152611a1960f11b602082015260008312156105a25760405162461bcd60e51b81526004016101fa9190610a4f565b508160006105ba876105b4848261085a565b90610886565b9050846020015167ffffffffffffffff168110604051806040016040528060028152602001610d0d60f21b815250906106065760405162461bcd60e51b81526004016101fa9190610a4f565b50610673896001600160a01b031663313ce5676040518163ffffffff1660e01b8152600401602060405180830381865afa158015610648573d6000803e3d6000fd5b505050506040513d601f19601f8201168201806040525081019061066c9190610b66565b88906108f6565b9b9a5050505050505050505050565b600054604080518082019091526002815261033360f41b6020820152906001600160a01b031633146106c75760405162461bcd60e51b81526004016101fa9190610a4f565b50604080518082019091526002815261333160f01b60208201526001600160a01b0382166107085760405162461bcd60e51b81526004016101fa9190610a4f565b50600180546001600160a01b0319166001600160a01b0383169081179091556040519081527f67235ba2e63c748a35b95c4f92a3bbc2a1389938170a5ce6c9add5d0b03a314a90602001610263565b600080600080846001600160a01b031663feaf968c6040518163ffffffff1660e01b815260040160a060405180830381865afa15801561079b573d6000803e3d6000fd5b505050506040513d601f19601f820116820180604052508101906107bf9190610aff565b5092965091935091506107d790506201518083610b90565b42111560405180604001604052806002815260200161343160f01b815250906108135760405162461bcd60e51b81526004016101fa9190610a4f565b506040805180820190915260028152611a1960f11b6020820152600082121561084f5760405162461bcd60e51b81526004016101fa9190610a4f565b509294929350919050565b6000818310156108735761086e8383610b4f565b61087d565b61087d8284610b4f565b90505b92915050565b604080518082019091526002815261323560f01b6020820152600090826108c05760405162461bcd60e51b81526004016101fa9190610a4f565b50826108ce57506000610880565b60006108e2670de0b6b3a764000085610ba8565b90506108ee8382610bc7565b915050610880565b600060ff82166012141561090b575081610880565b601260ff8316111561093e57610922601283610be9565b61092d90600a610cf0565b6109379084610bc7565b9050610880565b610949826012610be9565b61095490600a610cf0565b6109379084610ba8565b80356001600160a01b038116811461097557600080fd5b919050565b60006020828403121561098c57600080fd5b61087d8261095e565b803567ffffffffffffffff8116811461097557600080fd5b600080600083850360808112156109c357600080fd5b6109cc8561095e565b93506109da6020860161095e565b92506040603f19820112156109ee57600080fd5b506040516040810181811067ffffffffffffffff82111715610a2057634e487b7160e01b600052604160045260246000fd5b8060405250610a3160408601610995565b8152610a3f60608601610995565b6020820152809150509250925092565b600060208083528351808285015260005b81811015610a7c57858101830151858201604001528201610a60565b81811115610a8e576000604083870101525b50601f01601f1916929092016040019392505050565b634e487b7160e01b600052601160045260246000fd5b600069ffffffffffffffffffff83811690831681811015610add57610add610aa4565b039392505050565b805169ffffffffffffffffffff8116811461097557600080fd5b600080600080600060a08688031215610b1757600080fd5b610b2086610ae5565b9450602086015193506040860151925060608601519150610b4360808701610ae5565b90509295509295909350565b600082821015610b6157610b61610aa4565b500390565b600060208284031215610b7857600080fd5b815160ff81168114610b8957600080fd5b9392505050565b60008219821115610ba357610ba3610aa4565b500190565b6000816000190483118215151615610bc257610bc2610aa4565b500290565b600082610be457634e487b7160e01b600052601260045260246000fd5b500490565b600060ff821660ff841680821015610c0357610c03610aa4565b90039392505050565b600181815b80851115610c47578160001904821115610c2d57610c2d610aa4565b80851615610c3a57918102915b93841c9390800290610c11565b509250929050565b600082610c5e57506001610880565b81610c6b57506000610880565b8160018114610c815760028114610c8b57610ca7565b6001915050610880565b60ff841115610c9c57610c9c610aa4565b50506001821b610880565b5060208310610133831016604e8410600b8410161715610cca575081810a610880565b610cd48383610c0c565b8060001904821115610ce857610ce8610aa4565b029392505050565b600061087d60ff841683610c4f56fea264697066735822122058798d848dd7cb113de8ca025ea478ba953cac9e5b0c8f7396c37ecc77e349a764736f6c634300080a0033","bytecodeSha1":"3eafabdb16b34fcbcd0be643571e551c3510a960","compiler":{"evm_version":"istanbul","optimizer":{"enabled":true,"runs":200},"version":"0.8.10+commit.fc410830"},"contractName":"CrashProtectedChainlinkPriceOracle","language":"Solidity","natspec":{"kind":"dev","methods":{"acceptGovernance()":{"notice":"Called by the pending governor to approve the change"},"changeGovernor(address)":{"notice":"Changes the governor can only be called by the current governor"},"getPriceUSD(address)":{"notice":"Quotes the USD price of `tokenAddress` The quoted price is always scaled with 18 decimals regardless of the source used for the oracle.","params":{"tokenAddress":"the asset of which the price is to be quoted"},"returns":{"_0":"the USD price of the asset"}},"governor()":{"notice":"Returns the current governor"},"pendingGovernor()":{"notice":"Returns the pending governor"},"setFeed(address,address,(uint64,uint64))":{"notice":"Allows to set Chainlink feeds with the metadata"}},"version":1},"opcodes":"PUSH1 0x80 PUSH1 0x40 MSTORE CALLVALUE DUP1 ISZERO PUSH2 0x10 JUMPI PUSH1 0x0 DUP1 REVERT JUMPDEST POP PUSH1 0x4 CALLDATASIZE LT PUSH2 0x93 JUMPI PUSH1 0x0 CALLDATALOAD PUSH1 0xE0 SHR DUP1 PUSH4 0x4CBACC84 GT PUSH2 0x66 JUMPI DUP1 PUSH4 0x4CBACC84 EQ PUSH2 0x113 JUMPI DUP1 PUSH4 0x5462001E EQ PUSH2 0x169 JUMPI DUP1 PUSH4 0x5708447D EQ PUSH2 0x17C JUMPI DUP1 PUSH4 0xE3056A34 EQ PUSH2 0x18F JUMPI DUP1 PUSH4 0xE4C0AAF4 EQ PUSH2 0x1A2 JUMPI PUSH1 0x0 DUP1 REVERT JUMPDEST DUP1 PUSH4 0xC340A24 EQ PUSH2 0x98 JUMPI DUP1 PUSH4 0x14C1D37F EQ PUSH2 0xC8 JUMPI DUP1 PUSH4 0x238EFCBC EQ PUSH2 0xE0 JUMPI DUP1 PUSH4 0x2FBA4AA9 EQ PUSH2 0xEA JUMPI JUMPDEST PUSH1 0x0 DUP1 REVERT JUMPDEST PUSH1 0x0 SLOAD PUSH2 0xAB SWAP1 PUSH1 0x1 PUSH1 0x1 PUSH1 0xA0 SHL SUB AND DUP2 JUMP JUMPDEST PUSH1 0x40 MLOAD PUSH1 0x1 PUSH1 0x1 PUSH1 0xA0 SHL SUB SWAP1 SWAP2 AND DUP2 MSTORE PUSH1 0x20 ADD JUMPDEST PUSH1 0x40 MLOAD DUP1 SWAP2 SUB SWAP1 RETURN JUMPDEST PUSH2 0xD2 PUSH3 0x15180 DUP2 JUMP JUMPDEST PUSH1 0x40 MLOAD SWAP1 DUP2 MSTORE PUSH1 0x20 ADD PUSH2 0xBF JUMP JUMPDEST PUSH2 0xE8 PUSH2 0x1B5 JUMP JUMPDEST STOP JUMPDEST PUSH2 0xAB PUSH2 0xF8 CALLDATASIZE PUSH1 0x4 PUSH2 0x97A JUMP JUMPDEST PUSH1 0x2 PUSH1 0x20 MSTORE PUSH1 0x0 SWAP1 DUP2 MSTORE PUSH1 0x40 SWAP1 KECCAK256 SLOAD PUSH1 0x1 PUSH1 0x1 PUSH1 0xA0 SHL SUB AND DUP2 JUMP JUMPDEST PUSH2 0x148 PUSH2 0x121 CALLDATASIZE PUSH1 0x4 PUSH2 0x97A JUMP JUMPDEST PUSH1 0x3 PUSH1 0x20 MSTORE PUSH1 0x0 SWAP1 DUP2 MSTORE PUSH1 0x40 SWAP1 KECCAK256 SLOAD PUSH8 0xFFFFFFFFFFFFFFFF DUP1 DUP3 AND SWAP2 PUSH1 0x1 PUSH1 0x40 SHL SWAP1 DIV AND DUP3 JUMP JUMPDEST PUSH1 0x40 DUP1 MLOAD PUSH8 0xFFFFFFFFFFFFFFFF SWAP4 DUP5 AND DUP2 MSTORE SWAP3 SWAP1 SWAP2 AND PUSH1 0x20 DUP4 ADD MSTORE ADD PUSH2 0xBF JUMP JUMPDEST PUSH2 0xE8 PUSH2 0x177 CALLDATASIZE PUSH1 0x4 PUSH2 0x9AD JUMP JUMPDEST PUSH2 0x26E JUMP JUMPDEST PUSH2 0xD2 PUSH2 0x18A CALLDATASIZE PUSH1 0x4 PUSH2 0x97A JUMP JUMPDEST PUSH2 0x40F JUMP JUMPDEST PUSH1 0x1 SLOAD PUSH2 0xAB SWAP1 PUSH1 0x1 PUSH1 0x1 PUSH1 0xA0 SHL SUB AND DUP2 JUMP JUMPDEST PUSH2 0xE8 PUSH2 0x1B0 CALLDATASIZE PUSH1 0x4 PUSH2 0x97A JUMP JUMPDEST PUSH2 0x682 JUMP JUMPDEST PUSH1 0x1 SLOAD PUSH1 0x40 DUP1 MLOAD DUP1 DUP3 ADD SWAP1 SWAP2 MSTORE PUSH1 0x2 DUP2 MSTORE PUSH2 0x333 PUSH1 0xF4 SHL PUSH1 0x20 DUP3 ADD MSTORE SWAP1 PUSH1 0x1 PUSH1 0x1 PUSH1 0xA0 SHL SUB AND CALLER EQ PUSH2 0x203 JUMPI PUSH1 0x40 MLOAD PUSH3 0x461BCD PUSH1 0xE5 SHL DUP2 MSTORE PUSH1 0x4 ADD PUSH2 0x1FA SWAP2 SWAP1 PUSH2 0xA4F JUMP JUMPDEST PUSH1 0x40 MLOAD DUP1 SWAP2 SUB SWAP1 REVERT JUMPDEST POP PUSH1 0x0 DUP1 SLOAD PUSH1 0x1 DUP1 SLOAD PUSH1 0x1 PUSH1 0x1 PUSH1 0xA0 SHL SUB NOT DUP1 DUP5 AND PUSH1 0x1 PUSH1 0x1 PUSH1 0xA0 SHL SUB DUP1 DUP5 AND SWAP2 SWAP1 SWAP2 OR SWAP1 SWAP6 SSTORE AND SWAP1 SSTORE PUSH1 0x40 DUP1 MLOAD SWAP3 SWAP1 SWAP2 AND DUP1 DUP4 MSTORE CALLER PUSH1 0x20 DUP5 ADD MSTORE SWAP2 PUSH32 0xDE4B3F61490B74C0ED6237523974FE299126BBBF8A8A7482FD220104C59B0C84 SWAP2 ADD JUMPDEST PUSH1 0x40 MLOAD DUP1 SWAP2 SUB SWAP1 LOG1 POP JUMP JUMPDEST PUSH1 0x0 SLOAD PUSH1 0x40 DUP1 MLOAD DUP1 DUP3 ADD SWAP1 SWAP2 MSTORE PUSH1 0x2 DUP2 MSTORE PUSH2 0x333 PUSH1 0xF4 SHL PUSH1 0x20 DUP3 ADD MSTORE SWAP1 PUSH1 0x1 PUSH1 0x1 PUSH1 0xA0 SHL SUB AND CALLER EQ PUSH2 0x2B3 JUMPI PUSH1 0x40 MLOAD PUSH3 0x461BCD PUSH1 0xE5 SHL DUP2 MSTORE PUSH1 0x4 ADD PUSH2 0x1FA SWAP2 SWAP1 PUSH2 0xA4F JUMP JUMPDEST POP PUSH1 0x1 PUSH1 0x1 PUSH1 0xA0 SHL SUB DUP1 DUP5 AND PUSH1 0x0 SWAP1 DUP2 MSTORE PUSH1 0x2 PUSH1 0x20 DUP2 DUP2 MSTORE PUSH1 0x40 SWAP3 DUP4 SWAP1 KECCAK256 SLOAD DUP4 MLOAD DUP1 DUP6 ADD SWAP1 SWAP5 MSTORE SWAP2 DUP4 MSTORE PUSH2 0x3331 PUSH1 0xF0 SHL SWAP1 DUP4 ADD MSTORE DUP3 AND SWAP2 DUP5 AND DUP3 EQ ISZERO PUSH2 0x30C JUMPI PUSH1 0x40 MLOAD PUSH3 0x461BCD PUSH1 0xE5 SHL DUP2 MSTORE PUSH1 0x4 ADD PUSH2 0x1FA SWAP2 SWAP1 PUSH2 0xA4F JUMP JUMPDEST POP DUP2 MLOAD PUSH1 0x40 DUP1 MLOAD DUP1 DUP3 ADD SWAP1 SWAP2 MSTORE PUSH1 0x2 DUP2 MSTORE PUSH2 0x3331 PUSH1 0xF0 SHL PUSH1 0x20 DUP3 ADD MSTORE SWAP1 PUSH8 0xFFFFFFFFFFFFFFFF AND PUSH2 0x350 JUMPI PUSH1 0x40 MLOAD PUSH3 0x461BCD PUSH1 0xE5 SHL DUP2 MSTORE PUSH1 0x4 ADD PUSH2 0x1FA SWAP2 SWAP1 PUSH2 0xA4F JUMP JUMPDEST POP PUSH1 0x1 PUSH1 0x1 PUSH1 0xA0 SHL SUB DUP5 DUP2 AND PUSH1 0x0 DUP2 DUP2 MSTORE PUSH1 0x2 PUSH1 0x20 SWAP1 DUP2 MSTORE PUSH1 0x40 DUP1 DUP4 KECCAK256 DUP1 SLOAD PUSH1 0x1 PUSH1 0x1 PUSH1 0xA0 SHL SUB NOT AND DUP10 DUP8 AND SWAP1 DUP2 OR SWAP1 SWAP2 SSTORE DUP1 DUP5 MSTORE PUSH1 0x3 DUP4 MSTORE SWAP3 DUP2 SWAP1 KECCAK256 DUP8 MLOAD DUP2 SLOAD DUP10 DUP6 ADD DUP1 MLOAD PUSH8 0xFFFFFFFFFFFFFFFF SWAP4 DUP5 AND PUSH16 0xFFFFFFFFFFFFFFFFFFFFFFFFFFFFFFFF NOT SWAP1 SWAP4 AND DUP4 OR PUSH1 0x1 PUSH1 0x40 SHL SWAP2 DUP6 AND SWAP2 SWAP1 SWAP2 MUL OR SWAP1 SWAP4 SSTORE DUP4 MLOAD SWAP1 DUP2 MSTORE SWAP2 MLOAD AND SWAP3 DUP2 ADD SWAP3 SWAP1 SWAP3 MSTORE SWAP2 SWAP4 DUP6 AND SWAP3 SWAP2 PUSH32 0xDC65ACEB37AF772A52834BDB6F74F79C209765225D01455D6A9B273A776547BB SWAP2 ADD PUSH1 0x40 MLOAD DUP1 SWAP2 SUB SWAP1 LOG4 POP POP POP POP JUMP JUMPDEST PUSH1 0x1 PUSH1 0x1 PUSH1 0xA0 SHL SUB DUP1 DUP3 AND PUSH1 0x0 SWAP1 DUP2 MSTORE PUSH1 0x2 PUSH1 0x20 DUP2 DUP2 MSTORE PUSH1 0x40 DUP1 DUP5 KECCAK256 SLOAD DUP2 MLOAD DUP1 DUP4 ADD SWAP1 SWAP3 MSTORE SWAP3 DUP2 MSTORE PUSH2 0x343 PUSH1 0xF4 SHL SWAP2 DUP2 ADD SWAP2 SWAP1 SWAP2 MSTORE SWAP2 SWAP3 AND SWAP1 DUP2 PUSH2 0x466 JUMPI PUSH1 0x40 MLOAD PUSH3 0x461BCD PUSH1 0xE5 SHL DUP2 MSTORE PUSH1 0x4 ADD PUSH2 0x1FA SWAP2 SWAP1 PUSH2 0xA4F JUMP JUMPDEST POP PUSH1 0x0 DUP1 PUSH1 0x0 PUSH2 0x475 DUP5 PUSH2 0x757 JUMP JUMPDEST PUSH1 0x1 PUSH1 0x1 PUSH1 0xA0 SHL SUB DUP8 AND PUSH1 0x0 SWAP1 DUP2 MSTORE PUSH1 0x3 PUSH1 0x20 SWAP1 DUP2 MSTORE PUSH1 0x40 DUP1 DUP4 KECCAK256 DUP2 MLOAD DUP1 DUP4 ADD SWAP1 SWAP3 MSTORE SLOAD PUSH8 0xFFFFFFFFFFFFFFFF DUP1 DUP3 AND DUP4 MSTORE PUSH1 0x1 PUSH1 0x40 SHL SWAP1 SWAP2 DIV AND SWAP2 DUP2 ADD SWAP2 SWAP1 SWAP2 MSTORE SWAP4 SWAP7 POP SWAP2 SWAP5 POP SWAP3 POP DUP1 JUMPDEST PUSH2 0x4CC PUSH1 0x1 DUP8 PUSH2 0xABA JUMP JUMPDEST PUSH1 0x40 MLOAD PUSH4 0x9A6FC8F5 PUSH1 0xE0 SHL DUP2 MSTORE PUSH10 0xFFFFFFFFFFFFFFFFFFFF DUP3 AND PUSH1 0x4 DUP3 ADD MSTORE SWAP1 SWAP7 POP PUSH1 0x1 PUSH1 0x1 PUSH1 0xA0 SHL SUB DUP9 AND SWAP1 PUSH4 0x9A6FC8F5 SWAP1 PUSH1 0x24 ADD PUSH1 0xA0 PUSH1 0x40 MLOAD DUP1 DUP4 SUB DUP2 DUP7 GAS STATICCALL ISZERO DUP1 ISZERO PUSH2 0x51F JUMPI RETURNDATASIZE PUSH1 0x0 DUP1 RETURNDATACOPY RETURNDATASIZE PUSH1 0x0 REVERT JUMPDEST POP POP POP POP PUSH1 0x40 MLOAD RETURNDATASIZE PUSH1 0x1F NOT PUSH1 0x1F DUP3 ADD AND DUP3 ADD DUP1 PUSH1 0x40 MSTORE POP DUP2 ADD SWAP1 PUSH2 0x543 SWAP2 SWAP1 PUSH2 0xAFF JUMP JUMPDEST POP DUP7 MLOAD SWAP3 SWAP6 POP SWAP4 POP POP PUSH8 0xFFFFFFFFFFFFFFFF AND SWAP1 POP PUSH2 0x562 DUP3 DUP7 PUSH2 0xB4F JUMP JUMPDEST LT PUSH2 0x4C1 JUMPI PUSH1 0x40 DUP1 MLOAD DUP1 DUP3 ADD SWAP1 SWAP2 MSTORE PUSH1 0x2 DUP2 MSTORE PUSH2 0x1A19 PUSH1 0xF1 SHL PUSH1 0x20 DUP3 ADD MSTORE PUSH1 0x0 DUP4 SLT ISZERO PUSH2 0x5A2 JUMPI PUSH1 0x40 MLOAD PUSH3 0x461BCD PUSH1 0xE5 SHL DUP2 MSTORE PUSH1 0x4 ADD PUSH2 0x1FA SWAP2 SWAP1 PUSH2 0xA4F JUMP JUMPDEST POP DUP2 PUSH1 0x0 PUSH2 0x5BA DUP8 PUSH2 0x5B4 DUP5 DUP3 PUSH2 0x85A JUMP JUMPDEST SWAP1 PUSH2 0x886 JUMP JUMPDEST SWAP1 POP DUP5 PUSH1 0x20 ADD MLOAD PUSH8 0xFFFFFFFFFFFFFFFF AND DUP2 LT PUSH1 0x40 MLOAD DUP1 PUSH1 0x40 ADD PUSH1 0x40 MSTORE DUP1 PUSH1 0x2 DUP2 MSTORE PUSH1 0x20 ADD PUSH2 0xD0D PUSH1 0xF2 SHL DUP2 MSTORE POP SWAP1 PUSH2 0x606 JUMPI PUSH1 0x40 MLOAD PUSH3 0x461BCD PUSH1 0xE5 SHL DUP2 MSTORE PUSH1 0x4 ADD PUSH2 0x1FA SWAP2 SWAP1 PUSH2 0xA4F JUMP JUMPDEST POP PUSH2 0x673 DUP10 PUSH1 0x1 PUSH1 0x1 PUSH1 0xA0 SHL SUB AND PUSH4 0x313CE567 PUSH1 0x40 MLOAD DUP2 PUSH4 0xFFFFFFFF AND PUSH1 0xE0 SHL DUP2 MSTORE PUSH1 0x4 ADD PUSH1 0x20 PUSH1 0x40 MLOAD DUP1 DUP4 SUB DUP2 DUP7 GAS STATICCALL ISZERO DUP1 ISZERO PUSH2 0x648 JUMPI RETURNDATASIZE PUSH1 0x0 DUP1 RETURNDATACOPY RETURNDATASIZE PUSH1 0x0 REVERT JUMPDEST POP POP POP POP PUSH1 0x40 MLOAD RETURNDATASIZE PUSH1 0x1F NOT PUSH1 0x1F DUP3 ADD AND DUP3 ADD DUP1 PUSH1 0x40 MSTORE POP DUP2 ADD SWAP1 PUSH2 0x66C SWAP2 SWAP1 PUSH2 0xB66 JUMP JUMPDEST DUP9 SWAP1 PUSH2 0x8F6 JUMP JUMPDEST SWAP12 SWAP11 POP POP POP POP POP POP POP POP POP POP POP JUMP JUMPDEST PUSH1 0x0 SLOAD PUSH1 0x40 DUP1 MLOAD DUP1 DUP3 ADD SWAP1 SWAP2 MSTORE PUSH1 0x2 DUP2 MSTORE PUSH2 0x333 PUSH1 0xF4 SHL PUSH1 0x20 DUP3 ADD MSTORE SWAP1 PUSH1 0x1 PUSH1 0x1 PUSH1 0xA0 SHL SUB AND CALLER EQ PUSH2 0x6C7 JUMPI PUSH1 0x40 MLOAD PUSH3 0x461BCD PUSH1 0xE5 SHL DUP2 MSTORE PUSH1 0x4 ADD PUSH2 0x1FA SWAP2 SWAP1 PUSH2 0xA4F JUMP JUMPDEST POP PUSH1 0x40 DUP1 MLOAD DUP1 DUP3 ADD SWAP1 SWAP2 MSTORE PUSH1 0x2 DUP2 MSTORE PUSH2 0x3331 PUSH1 0xF0 SHL PUSH1 0x20 DUP3 ADD MSTORE PUSH1 0x1 PUSH1 0x1 PUSH1 0xA0 SHL SUB DUP3 AND PUSH2 0x708 JUMPI PUSH1 0x40 MLOAD PUSH3 0x461BCD PUSH1 0xE5 SHL DUP2 MSTORE PUSH1 0x4 ADD PUSH2 0x1FA SWAP2 SWAP1 PUSH2 0xA4F JUMP JUMPDEST POP PUSH1 0x1 DUP1 SLOAD PUSH1 0x1 PUSH1 0x1 PUSH1 0xA0 SHL SUB NOT AND PUSH1 0x1 PUSH1 0x1 PUSH1 0xA0 SHL SUB DUP4 AND SWAP1 DUP2 OR SWAP1 SWAP2 SSTORE PUSH1 0x40 MLOAD SWAP1 DUP2 MSTORE PUSH32 0x67235BA2E63C748A35B95C4F92A3BBC2A1389938170A5CE6C9ADD5D0B03A314A SWAP1 PUSH1 0x20 ADD PUSH2 0x263 JUMP JUMPDEST PUSH1 0x0 DUP1 PUSH1 0x0 DUP1 DUP5 PUSH1 0x1 PUSH1 0x1 PUSH1 0xA0 SHL SUB AND PUSH4 0xFEAF968C PUSH1 0x40 MLOAD DUP2 PUSH4 0xFFFFFFFF AND PUSH1 0xE0 SHL DUP2 MSTORE PUSH1 0x4 ADD PUSH1 0xA0 PUSH1 0x40 MLOAD DUP1 DUP4 SUB DUP2 DUP7 GAS STATICCALL ISZERO DUP1 ISZERO PUSH2 0x79B JUMPI RETURNDATASIZE PUSH1 0x0 DUP1 RETURNDATACOPY RETURNDATASIZE PUSH1 0x0 REVERT JUMPDEST POP POP POP POP PUSH1 0x40 MLOAD RETURNDATASIZE PUSH1 0x1F NOT PUSH1 0x1F DUP3 ADD AND DUP3 ADD DUP1 PUSH1 0x40 MSTORE POP DUP2 ADD SWAP1 PUSH2 0x7BF SWAP2 SWAP1 PUSH2 0xAFF JUMP JUMPDEST POP SWAP3 SWAP7 POP SWAP2 SWAP4 POP SWAP2 POP PUSH2 0x7D7 SWAP1 POP PUSH3 0x15180 DUP4 PUSH2 0xB90 JUMP JUMPDEST TIMESTAMP GT ISZERO PUSH1 0x40 MLOAD DUP1 PUSH1 0x40 ADD PUSH1 0x40 MSTORE DUP1 PUSH1 0x2 DUP2 MSTORE PUSH1 0x20 ADD PUSH2 0x3431 PUSH1 0xF0 SHL DUP2 MSTORE POP SWAP1 PUSH2 0x813 JUMPI PUSH1 0x40 MLOAD PUSH3 0x461BCD PUSH1 0xE5 SHL DUP2 MSTORE PUSH1 0x4 ADD PUSH2 0x1FA SWAP2 SWAP1 PUSH2 0xA4F JUMP JUMPDEST POP PUSH1 0x40 DUP1 MLOAD DUP1 DUP3 ADD SWAP1 SWAP2 MSTORE PUSH1 0x2 DUP2 MSTORE PUSH2 0x1A19 PUSH1 0xF1 SHL PUSH1 0x20 DUP3 ADD MSTORE PUSH1 0x0 DUP3 SLT ISZERO PUSH2 0x84F JUMPI PUSH1 0x40 MLOAD PUSH3 0x461BCD PUSH1 0xE5 SHL DUP2 MSTORE PUSH1 0x4 ADD PUSH2 0x1FA SWAP2 SWAP1 PUSH2 0xA4F JUMP JUMPDEST POP SWAP3 SWAP5 SWAP3 SWAP4 POP SWAP2 SWAP1 POP JUMP JUMPDEST PUSH1 0x0 DUP2 DUP4 LT ISZERO PUSH2 0x873 JUMPI PUSH2 0x86E DUP4 DUP4 PUSH2 0xB4F JUMP JUMPDEST PUSH2 0x87D JUMP JUMPDEST PUSH2 0x87D DUP3 DUP5 PUSH2 0xB4F JUMP JUMPDEST SWAP1 POP JUMPDEST SWAP3 SWAP2 POP POP JUMP JUMPDEST PUSH1 0x40 DUP1 MLOAD DUP1 DUP3 ADD SWAP1 SWAP2 MSTORE PUSH1 0x2 DUP2 MSTORE PUSH2 0x3235 PUSH1 0xF0 SHL PUSH1 0x20 DUP3 ADD MSTORE PUSH1 0x0 SWAP1 DUP3 PUSH2 0x8C0 JUMPI PUSH1 0x40 MLOAD PUSH3 0x461BCD PUSH1 0xE5 SHL DUP2 MSTORE PUSH1 0x4 ADD PUSH2 0x1FA SWAP2 SWAP1 PUSH2 0xA4F JUMP JUMPDEST POP DUP3 PUSH2 0x8CE JUMPI POP PUSH1 0x0 PUSH2 0x880 JUMP JUMPDEST PUSH1 0x0 PUSH2 0x8E2 PUSH8 0xDE0B6B3A7640000 DUP6 PUSH2 0xBA8 JUMP JUMPDEST SWAP1 POP PUSH2 0x8EE DUP4 DUP3 PUSH2 0xBC7 JUMP JUMPDEST SWAP2 POP POP PUSH2 0x880 JUMP JUMPDEST PUSH1 0x0 PUSH1 0xFF DUP3 AND PUSH1 0x12 EQ ISZERO PUSH2 0x90B JUMPI POP DUP2 PUSH2 0x880 JUMP JUMPDEST PUSH1 0x12 PUSH1 0xFF DUP4 AND GT ISZERO PUSH2 0x93E JUMPI PUSH2 0x922 PUSH1 0x12 DUP4 PUSH2 0xBE9 JUMP JUMPDEST PUSH2 0x92D SWAP1 PUSH1 0xA PUSH2 0xCF0 JUMP JUMPDEST PUSH2 0x937 SWAP1 DUP5 PUSH2 0xBC7 JUMP JUMPDEST SWAP1 POP PUSH2 0x880 JUMP JUMPDEST PUSH2 0x949 DUP3 PUSH1 0x12 PUSH2 0xBE9 JUMP JUMPDEST PUSH2 0x954 SWAP1 PUSH1 0xA PUSH2 0xCF0 JUMP JUMPDEST PUSH2 0x937 SWAP1 DUP5 PUSH2 0xBA8 JUMP JUMPDEST DUP1 CALLDATALOAD PUSH1 0x1 PUSH1 0x1 PUSH1 0xA0 SHL SUB DUP2 AND DUP2 EQ PUSH2 0x975 JUMPI PUSH1 0x0 DUP1 REVERT JUMPDEST SWAP2 SWAP1 POP JUMP JUMPDEST PUSH1 0x0 PUSH1 0x20 DUP3 DUP5 SUB SLT ISZERO PUSH2 0x98C JUMPI PUSH1 0x0 DUP1 REVERT JUMPDEST PUSH2 0x87D DUP3 PUSH2 0x95E JUMP JUMPDEST DUP1 CALLDATALOAD PUSH8 0xFFFFFFFFFFFFFFFF DUP2 AND DUP2 EQ PUSH2 0x975 JUMPI PUSH1 0x0 DUP1 REVERT JUMPDEST PUSH1 0x0 DUP1 PUSH1 0x0 DUP4 DUP6 SUB PUSH1 0x80 DUP2 SLT ISZERO PUSH2 0x9C3 JUMPI PUSH1 0x0 DUP1 REVERT JUMPDEST PUSH2 0x9CC DUP6 PUSH2 0x95E JUMP JUMPDEST SWAP4 POP PUSH2 0x9DA PUSH1 0x20 DUP7 ADD PUSH2 0x95E JUMP JUMPDEST SWAP3 POP PUSH1 0x40 PUSH1 0x3F NOT DUP3 ADD SLT ISZERO PUSH2 0x9EE JUMPI PUSH1 0x0 DUP1 REVERT JUMPDEST POP PUSH1 0x40 MLOAD PUSH1 0x40 DUP2 ADD DUP2 DUP2 LT PUSH8 0xFFFFFFFFFFFFFFFF DUP3 GT OR ISZERO PUSH2 0xA20 JUMPI PUSH4 0x4E487B71 PUSH1 0xE0 SHL PUSH1 0x0 MSTORE PUSH1 0x41 PUSH1 0x4 MSTORE PUSH1 0x24 PUSH1 0x0 REVERT JUMPDEST DUP1 PUSH1 0x40 MSTORE POP PUSH2 0xA31 PUSH1 0x40 DUP7 ADD PUSH2 0x995 JUMP JUMPDEST DUP2 MSTORE PUSH2 0xA3F PUSH1 0x60 DUP7 ADD PUSH2 0x995 JUMP JUMPDEST PUSH1 0x20 DUP3 ADD MSTORE DUP1 SWAP2 POP POP SWAP3 POP SWAP3 POP SWAP3 JUMP JUMPDEST PUSH1 0x0 PUSH1 0x20 DUP1 DUP4 MSTORE DUP4 MLOAD DUP1 DUP3 DUP6 ADD MSTORE PUSH1 0x0 JUMPDEST DUP2 DUP2 LT ISZERO PUSH2 0xA7C JUMPI DUP6 DUP2 ADD DUP4 ADD MLOAD DUP6 DUP3 ADD PUSH1 0x40 ADD MSTORE DUP3 ADD PUSH2 0xA60 JUMP JUMPDEST DUP2 DUP2 GT ISZERO PUSH2 0xA8E JUMPI PUSH1 0x0 PUSH1 0x40 DUP4 DUP8 ADD ADD MSTORE JUMPDEST POP PUSH1 0x1F ADD PUSH1 0x1F NOT AND SWAP3 SWAP1 SWAP3 ADD PUSH1 0x40 ADD SWAP4 SWAP3 POP POP POP JUMP JUMPDEST PUSH4 0x4E487B71 PUSH1 0xE0 SHL PUSH1 0x0 MSTORE PUSH1 0x11 PUSH1 0x4 MSTORE PUSH1 0x24 PUSH1 0x0 REVERT JUMPDEST PUSH1 0x0 PUSH10 0xFFFFFFFFFFFFFFFFFFFF DUP4 DUP2 AND SWAP1 DUP4 AND DUP2 DUP2 LT ISZERO PUSH2 0xADD JUMPI PUSH2 0xADD PUSH2 0xAA4 JUMP JUMPDEST SUB SWAP4 SWAP3 POP POP POP JUMP JUMPDEST DUP1 MLOAD PUSH10 0xFFFFFFFFFFFFFFFFFFFF DUP2 AND DUP2 EQ PUSH2 0x975 JUMPI PUSH1 0x0 DUP1 REVERT JUMPDEST PUSH1 0x0 DUP1 PUSH1 0x0 DUP1 PUSH1 0x0 PUSH1 0xA0 DUP7 DUP9 SUB SLT ISZERO PUSH2 0xB17 JUMPI PUSH1 0x0 DUP1 REVERT JUMPDEST PUSH2 0xB20 DUP7 PUSH2 0xAE5 JUMP JUMPDEST SWAP5 POP PUSH1 0x20 DUP7 ADD MLOAD SWAP4 POP PUSH1 0x40 DUP7 ADD MLOAD SWAP3 POP PUSH1 0x60 DUP7 ADD MLOAD SWAP2 POP PUSH2 0xB43 PUSH1 0x80 DUP8 ADD PUSH2 0xAE5 JUMP JUMPDEST SWAP1 POP SWAP3 SWAP6 POP SWAP3 SWAP6 SWAP1 SWAP4 POP JUMP JUMPDEST PUSH1 0x0 DUP3 DUP3 LT ISZERO PUSH2 0xB61 JUMPI PUSH2 0xB61 PUSH2 0xAA4 JUMP JUMPDEST POP SUB SWAP1 JUMP JUMPDEST PUSH1 0x0 PUSH1 0x20 DUP3 DUP5 SUB SLT ISZERO PUSH2 0xB78 JUMPI PUSH1 0x0 DUP1 REVERT JUMPDEST DUP2 MLOAD PUSH1 0xFF DUP2 AND DUP2 EQ PUSH2 0xB89 JUMPI PUSH1 0x0 DUP1 REVERT JUMPDEST SWAP4 SWAP3 POP POP POP JUMP JUMPDEST PUSH1 0x0 DUP3 NOT DUP3 GT ISZERO PUSH2 0xBA3 JUMPI PUSH2 0xBA3 PUSH2 0xAA4 JUMP JUMPDEST POP ADD SWAP1 JUMP JUMPDEST PUSH1 0x0 DUP2 PUSH1 0x0 NOT DIV DUP4 GT DUP3 ISZERO ISZERO AND ISZERO PUSH2 0xBC2 JUMPI PUSH2 0xBC2 PUSH2 0xAA4 JUMP JUMPDEST POP MUL SWAP1 JUMP JUMPDEST PUSH1 0x0 DUP3 PUSH2 0xBE4 JUMPI PUSH4 0x4E487B71 PUSH1 0xE0 SHL PUSH1 0x0 MSTORE PUSH1 0x12 PUSH1 0x4 MSTORE PUSH1 0x24 PUSH1 0x0 REVERT JUMPDEST POP DIV SWAP1 JUMP JUMPDEST PUSH1 0x0 PUSH1 0xFF DUP3 AND PUSH1 0xFF DUP5 AND DUP1 DUP3 LT ISZERO PUSH2 0xC03 JUMPI PUSH2 0xC03 PUSH2 0xAA4 JUMP JUMPDEST SWAP1 SUB SWAP4 SWAP3 POP POP POP JUMP JUMPDEST PUSH1 0x1 DUP2 DUP2 JUMPDEST DUP1 DUP6 GT ISZERO PUSH2 0xC47 JUMPI DUP2 PUSH1 0x0 NOT DIV DUP3 GT ISZERO PUSH2 0xC2D JUMPI PUSH2 0xC2D PUSH2 0xAA4 JUMP JUMPDEST DUP1 DUP6 AND ISZERO PUSH2 0xC3A JUMPI SWAP2 DUP2 MUL SWAP2 JUMPDEST SWAP4 DUP5 SHR SWAP4 SWAP1 DUP1 MUL SWAP1 PUSH2 0xC11 JUMP JUMPDEST POP SWAP3 POP SWAP3 SWAP1 POP JUMP JUMPDEST PUSH1 0x0 DUP3 PUSH2 0xC5E JUMPI POP PUSH1 0x1 PUSH2 0x880 JUMP JUMPDEST DUP2 PUSH2 0xC6B JUMPI POP PUSH1 0x0 PUSH2 0x880 JUMP JUMPDEST DUP2 PUSH1 0x1 DUP2 EQ PUSH2 0xC81 JUMPI PUSH1 0x2 DUP2 EQ PUSH2 0xC8B JUMPI PUSH2 0xCA7 JUMP JUMPDEST PUSH1 0x1 SWAP2 POP POP PUSH2 0x880 JUMP JUMPDEST PUSH1 0xFF DUP5 GT ISZERO PUSH2 0xC9C JUMPI PUSH2 0xC9C PUSH2 0xAA4 JUMP JUMPDEST POP POP PUSH1 0x1 DUP3 SHL PUSH2 0x880 JUMP JUMPDEST POP PUSH1 0x20 DUP4 LT PUSH2 0x133 DUP4 LT AND PUSH1 0x4E DUP5 LT PUSH1 0xB DUP5 LT AND OR ISZERO PUSH2 0xCCA JUMPI POP DUP2 DUP2 EXP PUSH2 0x880 JUMP JUMPDEST PUSH2 0xCD4 DUP4 DUP4 PUSH2 0xC0C JUMP JUMPDEST DUP1 PUSH1 0x0 NOT DIV DUP3 GT ISZERO PUSH2 0xCE8 JUMPI PUSH2 0xCE8 PUSH2 0xAA4 JUMP JUMPDEST MUL SWAP4 SWAP3 POP POP POP JUMP JUMPDEST PUSH1 0x0 PUSH2 0x87D PUSH1 0xFF DUP5 AND DUP4 PUSH2 0xC4F JUMP INVALID LOG2 PUSH5 0x6970667358 0x22 SLT KECCAK256 PC PUSH26 0x8D848DD7CB113DE8CA025EA478BA953CAC9E5B0C8F7396C37ECC PUSH24 0xE349A764736F6C634300080A003300000000000000000000 ","sha1":"b40cdc22ea2bd0329fd996a20a69e79f113dee61","source":"// SPDX-License-Identifier: UNLICENSED\npragma solidity ^0.8.4;\n\nimport \"./BaseChainLinkOracle.sol\";\n\nimport \"../../libraries/FixedPoint.sol\";\n\ncontract CrashProtectedChainlinkPriceOracle is BaseChainlinkPriceOracle {\n    using DecimalScale for uint256;\n    using FixedPoint for uint256;\n\n    event FeedUpdated(\n        address indexed asset,\n        address indexed previousFeed,\n        address indexed newFeed,\n        FeedMeta meta\n    );\n\n    struct FeedMeta {\n        uint64 minDiffTime;\n        uint64 maxDeviation;\n    }\n\n    mapping(address => FeedMeta) public feedMetas;\n\n    /// @inheritdoc IUSDPriceOracle\n    function getPriceUSD(address asset) external view override returns (uint256) {\n        address feed = feeds[asset];\n        require(feed != address(0), Errors.ASSET_NOT_SUPPORTED);\n        (uint80 roundId, uint256 price, uint256 lastUpdate) = _getLatestRoundData(feed);\n\n        FeedMeta memory meta = feedMetas[feed];\n\n        // we look for the first update that happened at least `minDiffTime` ago\n        int256 previousAnswer;\n        uint256 previousUpdate;\n        do {\n            roundId -= 1;\n            (, previousAnswer, , previousUpdate, ) = AggregatorV2V3Interface(feed).getRoundData(\n                roundId\n            );\n        } while (lastUpdate - previousUpdate < meta.minDiffTime);\n\n        require(previousAnswer >= 0, Errors.NEGATIVE_PRICE);\n        uint256 previousPrice = uint256(previousAnswer);\n        uint256 deviation = previousPrice.absSub(price).divDown(price);\n        require(deviation < meta.maxDeviation, Errors.TOO_MUCH_VOLATILITY);\n\n        return price.scaleFrom(AggregatorV2V3Interface(feed).decimals());\n    }\n\n    /// @notice Allows to set Chainlink feeds with the metadata\n    function setFeed(\n        address asset,\n        address feed,\n        FeedMeta memory feedMeta\n    ) public governanceOnly {\n        address previousFeed = feeds[asset];\n        require(feed != previousFeed, Errors.INVALID_ARGUMENT);\n        require(feedMeta.minDiffTime > 0, Errors.INVALID_ARGUMENT);\n        feeds[asset] = feed;\n        feedMetas[feed] = feedMeta;\n        emit FeedUpdated(asset, previousFeed, feed, feedMeta);\n    }\n}\n","sourcePath":"contracts/oracles/CrashProtectedChainLinkPriceOracle.sol","type":"contract","deployment":{"address":"0xD24747cd886bdbdE6E773f78E6498A1a44272BB7","chainid":"137","blockHeight":31960494}}