{"abi":[{"anonymous":false,"inputs":[{"indexed":true,"internalType":"string","name":"assetName","type":"string"},{"indexed":true,"internalType":"address","name":"previousAddress","type":"address"},{"indexed":true,"internalType":"address","name":"newAddress","type":"address"}],"name":"AssetAddressUpdated","type":"event"},{"anonymous":false,"inputs":[{"indexed":false,"internalType":"address","name":"newGovernor","type":"address"}],"name":"GovernorChangeRequested","type":"event"},{"anonymous":false,"inputs":[{"indexed":false,"internalType":"address","name":"oldGovernor","type":"address"},{"indexed":false,"internalType":"address","name":"newGovernor","type":"address"}],"name":"GovernorChanged","type":"event"},{"anonymous":false,"inputs":[{"indexed":true,"internalType":"address","name":"asset","type":"address"}],"name":"StableAssetAdded","type":"event"},{"anonymous":false,"inputs":[{"indexed":true,"internalType":"address","name":"asset","type":"address"}],"name":"StableAssetRemoved","type":"event"},{"inputs":[],"name":"acceptGovernance","outputs":[],"stateMutability":"nonpayable","type":"function"},{"inputs":[{"internalType":"address","name":"asset","type":"address"}],"name":"addStableAsset","outputs":[],"stateMutability":"nonpayable","type":"function"},{"inputs":[{"internalType":"address","name":"newGovernor","type":"address"}],"name":"changeGovernor","outputs":[],"stateMutability":"nonpayable","type":"function"},{"inputs":[{"internalType":"string","name":"assetName","type":"string"}],"name":"getAssetAddress","outputs":[{"internalType":"address","name":"","type":"address"}],"stateMutability":"view","type":"function"},{"inputs":[],"name":"getRegisteredAssetAddresses","outputs":[{"internalType":"address[]","name":"","type":"address[]"}],"stateMutability":"view","type":"function"},{"inputs":[],"name":"getRegisteredAssetNames","outputs":[{"internalType":"bytes32[]","name":"","type":"bytes32[]"}],"stateMutability":"view","type":"function"},{"inputs":[],"name":"getStableAssets","outputs":[{"internalType":"address[]","name":"","type":"address[]"}],"stateMutability":"view","type":"function"},{"inputs":[],"name":"governor","outputs":[{"internalType":"address","name":"","type":"address"}],"stateMutability":"view","type":"function"},{"inputs":[{"internalType":"address","name":"assetAddress","type":"address"}],"name":"isAssetAddressRegistered","outputs":[{"internalType":"bool","name":"","type":"bool"}],"stateMutability":"view","type":"function"},{"inputs":[{"internalType":"string","name":"assetName","type":"string"}],"name":"isAssetNameRegistered","outputs":[{"internalType":"bool","name":"","type":"bool"}],"stateMutability":"view","type":"function"},{"inputs":[{"internalType":"address","name":"assetAddress","type":"address"}],"name":"isAssetStable","outputs":[{"internalType":"bool","name":"","type":"bool"}],"stateMutability":"view","type":"function"},{"inputs":[],"name":"pendingGovernor","outputs":[{"internalType":"address","name":"","type":"address"}],"stateMutability":"view","type":"function"},{"inputs":[{"internalType":"string","name":"assetName","type":"string"}],"name":"removeAsset","outputs":[],"stateMutability":"nonpayable","type":"function"},{"inputs":[{"internalType":"address","name":"asset","type":"address"}],"name":"removeStableAsset","outputs":[],"stateMutability":"nonpayable","type":"function"},{"inputs":[{"internalType":"string","name":"assetName","type":"string"},{"internalType":"address","name":"assetAddress","type":"address"}],"name":"setAssetAddress","outputs":[],"stateMutability":"nonpayable","type":"function"}],"bytecode":"608060405234801561001057600080fd5b50600080546001600160a01b0319163390811782556040805192835260208301919091527fde4b3f61490b74c0ed6237523974fe299126bbbf8a8a7482fd220104c59b0c84910160405180910390a16110318061006e6000396000f3fe608060405234801561001057600080fd5b50600436106100f55760003560e01c8063759af9ec11610097578063e3056a3411610066578063e3056a34146101e6578063e4c0aaf4146101f9578063f41092de1461020c578063f804c0c81461021f57600080fd5b8063759af9ec1461019a5780638b46c4fd146101ad578063a5c7b384146101c0578063c6a052b6146101d357600080fd5b806336daa731116100d357806336daa731146101475780634976c5881461015c5780636df5d2d31461017f5780637307ae551461018757600080fd5b80630c340a24146100fa57806310ec08781461012a578063238efcbc1461013f575b600080fd5b60005461010d906001600160a01b031681565b6040516001600160a01b0390911681526020015b60405180910390f35b61013d610138366004610c91565b610234565b005b61013d61030b565b61014f6103bb565b6040516101219190610cac565b61016f61016a366004610c91565b6103cc565b6040519015158152602001610121565b61014f6103df565b61010d610195366004610cf9565b6103eb565b61013d6101a8366004610e0e565b610458565b61016f6101bb366004610c91565b61055f565b61013d6101ce366004610e4b565b61056c565b61013d6101e1366004610c91565b610753565b60015461010d906001600160a01b031681565b61013d610207366004610c91565b610821565b61016f61021a366004610cf9565b6108f6565b610227610937565b6040516101219190610e99565b600054604080518082019091526002815261033360f41b6020820152906001600160a01b031633146102825760405162461bcd60e51b81526004016102799190610f01565b60405180910390fd5b5061028e600582610943565b60405180604001604052806002815260200161034360f41b815250906102c75760405162461bcd60e51b81526004016102799190610f01565b506102d3600782610968565b506040516001600160a01b038216907f93266109223f3ffe4999eeedd7026e74a3ba153a9b782165be501bcfbdccd3a990600090a250565b600154604080518082019091526002815261033360f41b6020820152906001600160a01b031633146103505760405162461bcd60e51b81526004016102799190610f01565b5060008054600180546001600160a01b03198084166001600160a01b03808416919091179095551690556040805192909116808352336020840152917fde4b3f61490b74c0ed6237523974fe299126bbbf8a8a7482fd220104c59b0c8491015b60405180910390a150565b60606103c7600561097d565b905090565b60006103d9600783610943565b92915050565b60606103c7600761097d565b60008060028484604051610400929190610f34565b908152604080519182900360209081018320548383019092526002835261034360f41b908301526001600160a01b03169150816104505760405162461bcd60e51b81526004016102799190610f01565b509392505050565b600054604080518082019091526002815261033360f41b6020820152906001600160a01b0316331461049d5760405162461bcd60e51b81526004016102799190610f01565b5060006002826040516104b09190610f44565b908152604080519182900360209081018320548383019092526002835261034360f41b908301526001600160a01b03169150816105005760405162461bcd60e51b81526004016102799190610f01565b506002826040516105119190610f44565b90815260405190819003602001902080546001600160a01b031916905561054261053a83610f60565b600390610a24565b5061054e600582610a30565b5061055a600782610a30565b505050565b60006103d9600583610943565b600054604080518082019091526002815261033360f41b6020820152906001600160a01b031633146105b15760405162461bcd60e51b81526004016102799190610f01565b50602082511060405180604001604052806002815260200161333160f01b815250906105f05760405162461bcd60e51b81526004016102799190610f01565b50604080518082019091526002815261333160f01b60208201526001600160a01b0382166106315760405162461bcd60e51b81526004016102799190610f01565b5060006002836040516106449190610f44565b908152604080519182900360209081018320548383019092526002835261333160f01b908301526001600160a01b039081169250831682141561069a5760405162461bcd60e51b81526004016102799190610f01565b50816002846040516106ac9190610f44565b90815260405190819003602001902080546001600160a01b03929092166001600160a01b03199092169190911790556106ef6106e784610f60565b600390610a45565b506106fb600583610968565b50816001600160a01b0316816001600160a01b03168460405161071e9190610f44565b604051908190038120907fbae65703f0aeb3db2f7b7f07b34b9cf2f9dde13c561a9e3423915de548dd20e390600090a4505050565b600054604080518082019091526002815261033360f41b6020820152906001600160a01b031633146107985760405162461bcd60e51b81526004016102799190610f01565b506107a4600782610943565b60405180604001604052806002815260200161034360f41b815250906107dd5760405162461bcd60e51b81526004016102799190610f01565b506107e9600782610a30565b506040516001600160a01b038216907f02d765d86e62553c49c4853f47990fbb8cf7713f511ac332855aaa6b02bebd3690600090a250565b600054604080518082019091526002815261033360f41b6020820152906001600160a01b031633146108665760405162461bcd60e51b81526004016102799190610f01565b50604080518082019091526002815261333160f01b60208201526001600160a01b0382166108a75760405162461bcd60e51b81526004016102799190610f01565b50600180546001600160a01b0319166001600160a01b0383169081179091556040519081527f67235ba2e63c748a35b95c4f92a3bbc2a1389938170a5ce6c9add5d0b03a314a906020016103b0565b6000806001600160a01b031660028484604051610914929190610f34565b908152604051908190036020019020546001600160a01b03161415905092915050565b60606103c76003610a51565b6001600160a01b038116600090815260018301602052604081205415155b9392505050565b6000610961836001600160a01b038416610aeb565b6060600061098a83610b3a565b905060008167ffffffffffffffff8111156109a7576109a7610d6b565b6040519080825280602002602001820160405280156109d0578160200160208202803683370190505b50905060005b82811015610450576109e88582610b44565b8282815181106109fa576109fa610f87565b6001600160a01b039092166020928302919091019091015280610a1c81610fb3565b9150506109d6565b60006109618383610b50565b6000610961836001600160a01b038416610b50565b60006109618383610aeb565b60606000610a5e83610b3a565b905060008167ffffffffffffffff811115610a7b57610a7b610d6b565b604051908082528060200260200182016040528015610aa4578160200160208202803683370190505b50905060005b8281101561045057610abc8582610c43565b828281518110610ace57610ace610f87565b602090810291909101015280610ae381610fb3565b915050610aaa565b6000818152600183016020526040812054610b32575081546001818101845560008481526020808220909301849055845484825282860190935260409020919091556103d9565b5060006103d9565b60006103d9825490565b60006109618383610c4b565b60008181526001830160205260408120548015610c39576000610b74600183610fce565b8554909150600090610b8890600190610fce565b9050818114610bed576000866000018281548110610ba857610ba8610f87565b9060005260206000200154905080876000018481548110610bcb57610bcb610f87565b6000918252602080832090910192909255918252600188019052604090208390555b8554869080610bfe57610bfe610fe5565b6001900381819060005260206000200160009055905585600101600086815260200190815260200160002060009055600193505050506103d9565b60009150506103d9565b600061096183835b6000826000018281548110610c6257610c62610f87565b9060005260206000200154905092915050565b80356001600160a01b0381168114610c8c57600080fd5b919050565b600060208284031215610ca357600080fd5b61096182610c75565b6020808252825182820181905260009190848201906040850190845b81811015610ced5783516001600160a01b031683529284019291840191600101610cc8565b50909695505050505050565b60008060208385031215610d0c57600080fd5b823567ffffffffffffffff80821115610d2457600080fd5b818501915085601f830112610d3857600080fd5b813581811115610d4757600080fd5b866020828501011115610d5957600080fd5b60209290920196919550909350505050565b634e487b7160e01b600052604160045260246000fd5b600082601f830112610d9257600080fd5b813567ffffffffffffffff80821115610dad57610dad610d6b565b604051601f8301601f19908116603f01168101908282118183101715610dd557610dd5610d6b565b81604052838152866020858801011115610dee57600080fd5b836020870160208301376000602085830101528094505050505092915050565b600060208284031215610e2057600080fd5b813567ffffffffffffffff811115610e3757600080fd5b610e4384828501610d81565b949350505050565b60008060408385031215610e5e57600080fd5b823567ffffffffffffffff811115610e7557600080fd5b610e8185828601610d81565b925050610e9060208401610c75565b90509250929050565b6020808252825182820181905260009190848201906040850190845b81811015610ced57835183529284019291840191600101610eb5565b60005b83811015610eec578181015183820152602001610ed4565b83811115610efb576000848401525b50505050565b6020815260008251806020840152610f20816040850160208701610ed1565b601f01601f19169190910160400192915050565b8183823760009101908152919050565b60008251610f56818460208701610ed1565b9190910192915050565b80516020808301519190811015610f81576000198160200360031b1b821691505b50919050565b634e487b7160e01b600052603260045260246000fd5b634e487b7160e01b600052601160045260246000fd5b6000600019821415610fc757610fc7610f9d565b5060010190565b600082821015610fe057610fe0610f9d565b500390565b634e487b7160e01b600052603160045260246000fdfea264697066735822122079e9d26ebbce330e24a2d666a3348e50fd6b6bc5bf1e49156eeb9b062e06d3a864736f6c634300080a0033","bytecodeSha1":"05fa635f5bcecde0117ab25572e25b715113e17d","compiler":{"evm_version":"istanbul","optimizer":{"enabled":true,"runs":200},"version":"0.8.10+commit.fc410830"},"contractName":"AssetRegistry","language":"Solidity","natspec":{"kind":"dev","methods":{"acceptGovernance()":{"notice":"Called by the pending governor to approve the change"},"addStableAsset(address)":{"notice":"Adds a stable asset to the registry The asset must already be registered in the registry"},"changeGovernor(address)":{"notice":"Changes the governor can only be called by the current governor"},"getAssetAddress(string)":{"notice":"Returns the address associated with the given asset name e.g. \"DAI\" -> 0x6B175474E89094C44Da98b954EedeAC495271d0F"},"getRegisteredAssetAddresses()":{"notice":"Returns a list of addresses for the registered assets"},"getRegisteredAssetNames()":{"notice":"Returns a list of names for the registered assets The asset are encoded as bytes32 (big endian) rather than string"},"getStableAssets()":{"notice":"Returns a list of addresses contaning the stable assets"},"governor()":{"notice":"Returns the current governor"},"isAssetAddressRegistered(address)":{"returns":{"_0":"true if the asset address is registered"}},"isAssetNameRegistered(string)":{"returns":{"_0":"true if the asset name is registered"}},"isAssetStable(address)":{"returns":{"_0":"true if the asset name is stable"}},"pendingGovernor()":{"notice":"Returns the pending governor"},"removeAsset(string)":{"notice":"Removes `assetName` from the registry"},"removeStableAsset(address)":{"notice":"Removes a stable asset to the registry The asset must already be a stable asset"},"setAssetAddress(string,address)":{"notice":"Set the `assetName` to the given `assetAddress`"}},"version":1},"opcodes":"PUSH1 0x80 PUSH1 0x40 MSTORE CALLVALUE DUP1 ISZERO PUSH2 0x10 JUMPI PUSH1 0x0 DUP1 REVERT JUMPDEST POP PUSH1 0x4 CALLDATASIZE LT PUSH2 0xF5 JUMPI PUSH1 0x0 CALLDATALOAD PUSH1 0xE0 SHR DUP1 PUSH4 0x759AF9EC GT PUSH2 0x97 JUMPI DUP1 PUSH4 0xE3056A34 GT PUSH2 0x66 JUMPI DUP1 PUSH4 0xE3056A34 EQ PUSH2 0x1E6 JUMPI DUP1 PUSH4 0xE4C0AAF4 EQ PUSH2 0x1F9 JUMPI DUP1 PUSH4 0xF41092DE EQ PUSH2 0x20C JUMPI DUP1 PUSH4 0xF804C0C8 EQ PUSH2 0x21F JUMPI PUSH1 0x0 DUP1 REVERT JUMPDEST DUP1 PUSH4 0x759AF9EC EQ PUSH2 0x19A JUMPI DUP1 PUSH4 0x8B46C4FD EQ PUSH2 0x1AD JUMPI DUP1 PUSH4 0xA5C7B384 EQ PUSH2 0x1C0 JUMPI DUP1 PUSH4 0xC6A052B6 EQ PUSH2 0x1D3 JUMPI PUSH1 0x0 DUP1 REVERT JUMPDEST DUP1 PUSH4 0x36DAA731 GT PUSH2 0xD3 JUMPI DUP1 PUSH4 0x36DAA731 EQ PUSH2 0x147 JUMPI DUP1 PUSH4 0x4976C588 EQ PUSH2 0x15C JUMPI DUP1 PUSH4 0x6DF5D2D3 EQ PUSH2 0x17F JUMPI DUP1 PUSH4 0x7307AE55 EQ PUSH2 0x187 JUMPI PUSH1 0x0 DUP1 REVERT JUMPDEST DUP1 PUSH4 0xC340A24 EQ PUSH2 0xFA JUMPI DUP1 PUSH4 0x10EC0878 EQ PUSH2 0x12A JUMPI DUP1 PUSH4 0x238EFCBC EQ PUSH2 0x13F JUMPI JUMPDEST PUSH1 0x0 DUP1 REVERT JUMPDEST PUSH1 0x0 SLOAD PUSH2 0x10D SWAP1 PUSH1 0x1 PUSH1 0x1 PUSH1 0xA0 SHL SUB AND DUP2 JUMP JUMPDEST PUSH1 0x40 MLOAD PUSH1 0x1 PUSH1 0x1 PUSH1 0xA0 SHL SUB SWAP1 SWAP2 AND DUP2 MSTORE PUSH1 0x20 ADD JUMPDEST PUSH1 0x40 MLOAD DUP1 SWAP2 SUB SWAP1 RETURN JUMPDEST PUSH2 0x13D PUSH2 0x138 CALLDATASIZE PUSH1 0x4 PUSH2 0xC91 JUMP JUMPDEST PUSH2 0x234 JUMP JUMPDEST STOP JUMPDEST PUSH2 0x13D PUSH2 0x30B JUMP JUMPDEST PUSH2 0x14F PUSH2 0x3BB JUMP JUMPDEST PUSH1 0x40 MLOAD PUSH2 0x121 SWAP2 SWAP1 PUSH2 0xCAC JUMP JUMPDEST PUSH2 0x16F PUSH2 0x16A CALLDATASIZE PUSH1 0x4 PUSH2 0xC91 JUMP JUMPDEST PUSH2 0x3CC JUMP JUMPDEST PUSH1 0x40 MLOAD SWAP1 ISZERO ISZERO DUP2 MSTORE PUSH1 0x20 ADD PUSH2 0x121 JUMP JUMPDEST PUSH2 0x14F PUSH2 0x3DF JUMP JUMPDEST PUSH2 0x10D PUSH2 0x195 CALLDATASIZE PUSH1 0x4 PUSH2 0xCF9 JUMP JUMPDEST PUSH2 0x3EB JUMP JUMPDEST PUSH2 0x13D PUSH2 0x1A8 CALLDATASIZE PUSH1 0x4 PUSH2 0xE0E JUMP JUMPDEST PUSH2 0x458 JUMP JUMPDEST PUSH2 0x16F PUSH2 0x1BB CALLDATASIZE PUSH1 0x4 PUSH2 0xC91 JUMP JUMPDEST PUSH2 0x55F JUMP JUMPDEST PUSH2 0x13D PUSH2 0x1CE CALLDATASIZE PUSH1 0x4 PUSH2 0xE4B JUMP JUMPDEST PUSH2 0x56C JUMP JUMPDEST PUSH2 0x13D PUSH2 0x1E1 CALLDATASIZE PUSH1 0x4 PUSH2 0xC91 JUMP JUMPDEST PUSH2 0x753 JUMP JUMPDEST PUSH1 0x1 SLOAD PUSH2 0x10D SWAP1 PUSH1 0x1 PUSH1 0x1 PUSH1 0xA0 SHL SUB AND DUP2 JUMP JUMPDEST PUSH2 0x13D PUSH2 0x207 CALLDATASIZE PUSH1 0x4 PUSH2 0xC91 JUMP JUMPDEST PUSH2 0x821 JUMP JUMPDEST PUSH2 0x16F PUSH2 0x21A CALLDATASIZE PUSH1 0x4 PUSH2 0xCF9 JUMP JUMPDEST PUSH2 0x8F6 JUMP JUMPDEST PUSH2 0x227 PUSH2 0x937 JUMP JUMPDEST PUSH1 0x40 MLOAD PUSH2 0x121 SWAP2 SWAP1 PUSH2 0xE99 JUMP JUMPDEST PUSH1 0x0 SLOAD PUSH1 0x40 DUP1 MLOAD DUP1 DUP3 ADD SWAP1 SWAP2 MSTORE PUSH1 0x2 DUP2 MSTORE PUSH2 0x333 PUSH1 0xF4 SHL PUSH1 0x20 DUP3 ADD MSTORE SWAP1 PUSH1 0x1 PUSH1 0x1 PUSH1 0xA0 SHL SUB AND CALLER EQ PUSH2 0x282 JUMPI PUSH1 0x40 MLOAD PUSH3 0x461BCD PUSH1 0xE5 SHL DUP2 MSTORE PUSH1 0x4 ADD PUSH2 0x279 SWAP2 SWAP1 PUSH2 0xF01 JUMP JUMPDEST PUSH1 0x40 MLOAD DUP1 SWAP2 SUB SWAP1 REVERT JUMPDEST POP PUSH2 0x28E PUSH1 0x5 DUP3 PUSH2 0x943 JUMP JUMPDEST PUSH1 0x40 MLOAD DUP1 PUSH1 0x40 ADD PUSH1 0x40 MSTORE DUP1 PUSH1 0x2 DUP2 MSTORE PUSH1 0x20 ADD PUSH2 0x343 PUSH1 0xF4 SHL DUP2 MSTORE POP SWAP1 PUSH2 0x2C7 JUMPI PUSH1 0x40 MLOAD PUSH3 0x461BCD PUSH1 0xE5 SHL DUP2 MSTORE PUSH1 0x4 ADD PUSH2 0x279 SWAP2 SWAP1 PUSH2 0xF01 JUMP JUMPDEST POP PUSH2 0x2D3 PUSH1 0x7 DUP3 PUSH2 0x968 JUMP JUMPDEST POP PUSH1 0x40 MLOAD PUSH1 0x1 PUSH1 0x1 PUSH1 0xA0 SHL SUB DUP3 AND SWAP1 PUSH32 0x93266109223F3FFE4999EEEDD7026E74A3BA153A9B782165BE501BCFBDCCD3A9 SWAP1 PUSH1 0x0 SWAP1 LOG2 POP JUMP JUMPDEST PUSH1 0x1 SLOAD PUSH1 0x40 DUP1 MLOAD DUP1 DUP3 ADD SWAP1 SWAP2 MSTORE PUSH1 0x2 DUP2 MSTORE PUSH2 0x333 PUSH1 0xF4 SHL PUSH1 0x20 DUP3 ADD MSTORE SWAP1 PUSH1 0x1 PUSH1 0x1 PUSH1 0xA0 SHL SUB AND CALLER EQ PUSH2 0x350 JUMPI PUSH1 0x40 MLOAD PUSH3 0x461BCD PUSH1 0xE5 SHL DUP2 MSTORE PUSH1 0x4 ADD PUSH2 0x279 SWAP2 SWAP1 PUSH2 0xF01 JUMP JUMPDEST POP PUSH1 0x0 DUP1 SLOAD PUSH1 0x1 DUP1 SLOAD PUSH1 0x1 PUSH1 0x1 PUSH1 0xA0 SHL SUB NOT DUP1 DUP5 AND PUSH1 0x1 PUSH1 0x1 PUSH1 0xA0 SHL SUB DUP1 DUP5 AND SWAP2 SWAP1 SWAP2 OR SWAP1 SWAP6 SSTORE AND SWAP1 SSTORE PUSH1 0x40 DUP1 MLOAD SWAP3 SWAP1 SWAP2 AND DUP1 DUP4 MSTORE CALLER PUSH1 0x20 DUP5 ADD MSTORE SWAP2 PUSH32 0xDE4B3F61490B74C0ED6237523974FE299126BBBF8A8A7482FD220104C59B0C84 SWAP2 ADD JUMPDEST PUSH1 0x40 MLOAD DUP1 SWAP2 SUB SWAP1 LOG1 POP JUMP JUMPDEST PUSH1 0x60 PUSH2 0x3C7 PUSH1 0x5 PUSH2 0x97D JUMP JUMPDEST SWAP1 POP SWAP1 JUMP JUMPDEST PUSH1 0x0 PUSH2 0x3D9 PUSH1 0x7 DUP4 PUSH2 0x943 JUMP JUMPDEST SWAP3 SWAP2 POP POP JUMP JUMPDEST PUSH1 0x60 PUSH2 0x3C7 PUSH1 0x7 PUSH2 0x97D JUMP JUMPDEST PUSH1 0x0 DUP1 PUSH1 0x2 DUP5 DUP5 PUSH1 0x40 MLOAD PUSH2 0x400 SWAP3 SWAP2 SWAP1 PUSH2 0xF34 JUMP JUMPDEST SWAP1 DUP2 MSTORE PUSH1 0x40 DUP1 MLOAD SWAP2 DUP3 SWAP1 SUB PUSH1 0x20 SWAP1 DUP2 ADD DUP4 KECCAK256 SLOAD DUP4 DUP4 ADD SWAP1 SWAP3 MSTORE PUSH1 0x2 DUP4 MSTORE PUSH2 0x343 PUSH1 0xF4 SHL SWAP1 DUP4 ADD MSTORE PUSH1 0x1 PUSH1 0x1 PUSH1 0xA0 SHL SUB AND SWAP2 POP DUP2 PUSH2 0x450 JUMPI PUSH1 0x40 MLOAD PUSH3 0x461BCD PUSH1 0xE5 SHL DUP2 MSTORE PUSH1 0x4 ADD PUSH2 0x279 SWAP2 SWAP1 PUSH2 0xF01 JUMP JUMPDEST POP SWAP4 SWAP3 POP POP POP JUMP JUMPDEST PUSH1 0x0 SLOAD PUSH1 0x40 DUP1 MLOAD DUP1 DUP3 ADD SWAP1 SWAP2 MSTORE PUSH1 0x2 DUP2 MSTORE PUSH2 0x333 PUSH1 0xF4 SHL PUSH1 0x20 DUP3 ADD MSTORE SWAP1 PUSH1 0x1 PUSH1 0x1 PUSH1 0xA0 SHL SUB AND CALLER EQ PUSH2 0x49D JUMPI PUSH1 0x40 MLOAD PUSH3 0x461BCD PUSH1 0xE5 SHL DUP2 MSTORE PUSH1 0x4 ADD PUSH2 0x279 SWAP2 SWAP1 PUSH2 0xF01 JUMP JUMPDEST POP PUSH1 0x0 PUSH1 0x2 DUP3 PUSH1 0x40 MLOAD PUSH2 0x4B0 SWAP2 SWAP1 PUSH2 0xF44 JUMP JUMPDEST SWAP1 DUP2 MSTORE PUSH1 0x40 DUP1 MLOAD SWAP2 DUP3 SWAP1 SUB PUSH1 0x20 SWAP1 DUP2 ADD DUP4 KECCAK256 SLOAD DUP4 DUP4 ADD SWAP1 SWAP3 MSTORE PUSH1 0x2 DUP4 MSTORE PUSH2 0x343 PUSH1 0xF4 SHL SWAP1 DUP4 ADD MSTORE PUSH1 0x1 PUSH1 0x1 PUSH1 0xA0 SHL SUB AND SWAP2 POP DUP2 PUSH2 0x500 JUMPI PUSH1 0x40 MLOAD PUSH3 0x461BCD PUSH1 0xE5 SHL DUP2 MSTORE PUSH1 0x4 ADD PUSH2 0x279 SWAP2 SWAP1 PUSH2 0xF01 JUMP JUMPDEST POP PUSH1 0x2 DUP3 PUSH1 0x40 MLOAD PUSH2 0x511 SWAP2 SWAP1 PUSH2 0xF44 JUMP JUMPDEST SWAP1 DUP2 MSTORE PUSH1 0x40 MLOAD SWAP1 DUP2 SWAP1 SUB PUSH1 0x20 ADD SWAP1 KECCAK256 DUP1 SLOAD PUSH1 0x1 PUSH1 0x1 PUSH1 0xA0 SHL SUB NOT AND SWAP1 SSTORE PUSH2 0x542 PUSH2 0x53A DUP4 PUSH2 0xF60 JUMP JUMPDEST PUSH1 0x3 SWAP1 PUSH2 0xA24 JUMP JUMPDEST POP PUSH2 0x54E PUSH1 0x5 DUP3 PUSH2 0xA30 JUMP JUMPDEST POP PUSH2 0x55A PUSH1 0x7 DUP3 PUSH2 0xA30 JUMP JUMPDEST POP POP POP JUMP JUMPDEST PUSH1 0x0 PUSH2 0x3D9 PUSH1 0x5 DUP4 PUSH2 0x943 JUMP JUMPDEST PUSH1 0x0 SLOAD PUSH1 0x40 DUP1 MLOAD DUP1 DUP3 ADD SWAP1 SWAP2 MSTORE PUSH1 0x2 DUP2 MSTORE PUSH2 0x333 PUSH1 0xF4 SHL PUSH1 0x20 DUP3 ADD MSTORE SWAP1 PUSH1 0x1 PUSH1 0x1 PUSH1 0xA0 SHL SUB AND CALLER EQ PUSH2 0x5B1 JUMPI PUSH1 0x40 MLOAD PUSH3 0x461BCD PUSH1 0xE5 SHL DUP2 MSTORE PUSH1 0x4 ADD PUSH2 0x279 SWAP2 SWAP1 PUSH2 0xF01 JUMP JUMPDEST POP PUSH1 0x20 DUP3 MLOAD LT PUSH1 0x40 MLOAD DUP1 PUSH1 0x40 ADD PUSH1 0x40 MSTORE DUP1 PUSH1 0x2 DUP2 MSTORE PUSH1 0x20 ADD PUSH2 0x3331 PUSH1 0xF0 SHL DUP2 MSTORE POP SWAP1 PUSH2 0x5F0 JUMPI PUSH1 0x40 MLOAD PUSH3 0x461BCD PUSH1 0xE5 SHL DUP2 MSTORE PUSH1 0x4 ADD PUSH2 0x279 SWAP2 SWAP1 PUSH2 0xF01 JUMP JUMPDEST POP PUSH1 0x40 DUP1 MLOAD DUP1 DUP3 ADD SWAP1 SWAP2 MSTORE PUSH1 0x2 DUP2 MSTORE PUSH2 0x3331 PUSH1 0xF0 SHL PUSH1 0x20 DUP3 ADD MSTORE PUSH1 0x1 PUSH1 0x1 PUSH1 0xA0 SHL SUB DUP3 AND PUSH2 0x631 JUMPI PUSH1 0x40 MLOAD PUSH3 0x461BCD PUSH1 0xE5 SHL DUP2 MSTORE PUSH1 0x4 ADD PUSH2 0x279 SWAP2 SWAP1 PUSH2 0xF01 JUMP JUMPDEST POP PUSH1 0x0 PUSH1 0x2 DUP4 PUSH1 0x40 MLOAD PUSH2 0x644 SWAP2 SWAP1 PUSH2 0xF44 JUMP JUMPDEST SWAP1 DUP2 MSTORE PUSH1 0x40 DUP1 MLOAD SWAP2 DUP3 SWAP1 SUB PUSH1 0x20 SWAP1 DUP2 ADD DUP4 KECCAK256 SLOAD DUP4 DUP4 ADD SWAP1 SWAP3 MSTORE PUSH1 0x2 DUP4 MSTORE PUSH2 0x3331 PUSH1 0xF0 SHL SWAP1 DUP4 ADD MSTORE PUSH1 0x1 PUSH1 0x1 PUSH1 0xA0 SHL SUB SWAP1 DUP2 AND SWAP3 POP DUP4 AND DUP3 EQ ISZERO PUSH2 0x69A JUMPI PUSH1 0x40 MLOAD PUSH3 0x461BCD PUSH1 0xE5 SHL DUP2 MSTORE PUSH1 0x4 ADD PUSH2 0x279 SWAP2 SWAP1 PUSH2 0xF01 JUMP JUMPDEST POP DUP2 PUSH1 0x2 DUP5 PUSH1 0x40 MLOAD PUSH2 0x6AC SWAP2 SWAP1 PUSH2 0xF44 JUMP JUMPDEST SWAP1 DUP2 MSTORE PUSH1 0x40 MLOAD SWAP1 DUP2 SWAP1 SUB PUSH1 0x20 ADD SWAP1 KECCAK256 DUP1 SLOAD PUSH1 0x1 PUSH1 0x1 PUSH1 0xA0 SHL SUB SWAP3 SWAP1 SWAP3 AND PUSH1 0x1 PUSH1 0x1 PUSH1 0xA0 SHL SUB NOT SWAP1 SWAP3 AND SWAP2 SWAP1 SWAP2 OR SWAP1 SSTORE PUSH2 0x6EF PUSH2 0x6E7 DUP5 PUSH2 0xF60 JUMP JUMPDEST PUSH1 0x3 SWAP1 PUSH2 0xA45 JUMP JUMPDEST POP PUSH2 0x6FB PUSH1 0x5 DUP4 PUSH2 0x968 JUMP JUMPDEST POP DUP2 PUSH1 0x1 PUSH1 0x1 PUSH1 0xA0 SHL SUB AND DUP2 PUSH1 0x1 PUSH1 0x1 PUSH1 0xA0 SHL SUB AND DUP5 PUSH1 0x40 MLOAD PUSH2 0x71E SWAP2 SWAP1 PUSH2 0xF44 JUMP JUMPDEST PUSH1 0x40 MLOAD SWAP1 DUP2 SWAP1 SUB DUP2 KECCAK256 SWAP1 PUSH32 0xBAE65703F0AEB3DB2F7B7F07B34B9CF2F9DDE13C561A9E3423915DE548DD20E3 SWAP1 PUSH1 0x0 SWAP1 LOG4 POP POP POP JUMP JUMPDEST PUSH1 0x0 SLOAD PUSH1 0x40 DUP1 MLOAD DUP1 DUP3 ADD SWAP1 SWAP2 MSTORE PUSH1 0x2 DUP2 MSTORE PUSH2 0x333 PUSH1 0xF4 SHL PUSH1 0x20 DUP3 ADD MSTORE SWAP1 PUSH1 0x1 PUSH1 0x1 PUSH1 0xA0 SHL SUB AND CALLER EQ PUSH2 0x798 JUMPI PUSH1 0x40 MLOAD PUSH3 0x461BCD PUSH1 0xE5 SHL DUP2 MSTORE PUSH1 0x4 ADD PUSH2 0x279 SWAP2 SWAP1 PUSH2 0xF01 JUMP JUMPDEST POP PUSH2 0x7A4 PUSH1 0x7 DUP3 PUSH2 0x943 JUMP JUMPDEST PUSH1 0x40 MLOAD DUP1 PUSH1 0x40 ADD PUSH1 0x40 MSTORE DUP1 PUSH1 0x2 DUP2 MSTORE PUSH1 0x20 ADD PUSH2 0x343 PUSH1 0xF4 SHL DUP2 MSTORE POP SWAP1 PUSH2 0x7DD JUMPI PUSH1 0x40 MLOAD PUSH3 0x461BCD PUSH1 0xE5 SHL DUP2 MSTORE PUSH1 0x4 ADD PUSH2 0x279 SWAP2 SWAP1 PUSH2 0xF01 JUMP JUMPDEST POP PUSH2 0x7E9 PUSH1 0x7 DUP3 PUSH2 0xA30 JUMP JUMPDEST POP PUSH1 0x40 MLOAD PUSH1 0x1 PUSH1 0x1 PUSH1 0xA0 SHL SUB DUP3 AND SWAP1 PUSH32 0x2D765D86E62553C49C4853F47990FBB8CF7713F511AC332855AAA6B02BEBD36 SWAP1 PUSH1 0x0 SWAP1 LOG2 POP JUMP JUMPDEST PUSH1 0x0 SLOAD PUSH1 0x40 DUP1 MLOAD DUP1 DUP3 ADD SWAP1 SWAP2 MSTORE PUSH1 0x2 DUP2 MSTORE PUSH2 0x333 PUSH1 0xF4 SHL PUSH1 0x20 DUP3 ADD MSTORE SWAP1 PUSH1 0x1 PUSH1 0x1 PUSH1 0xA0 SHL SUB AND CALLER EQ PUSH2 0x866 JUMPI PUSH1 0x40 MLOAD PUSH3 0x461BCD PUSH1 0xE5 SHL DUP2 MSTORE PUSH1 0x4 ADD PUSH2 0x279 SWAP2 SWAP1 PUSH2 0xF01 JUMP JUMPDEST POP PUSH1 0x40 DUP1 MLOAD DUP1 DUP3 ADD SWAP1 SWAP2 MSTORE PUSH1 0x2 DUP2 MSTORE PUSH2 0x3331 PUSH1 0xF0 SHL PUSH1 0x20 DUP3 ADD MSTORE PUSH1 0x1 PUSH1 0x1 PUSH1 0xA0 SHL SUB DUP3 AND PUSH2 0x8A7 JUMPI PUSH1 0x40 MLOAD PUSH3 0x461BCD PUSH1 0xE5 SHL DUP2 MSTORE PUSH1 0x4 ADD PUSH2 0x279 SWAP2 SWAP1 PUSH2 0xF01 JUMP JUMPDEST POP PUSH1 0x1 DUP1 SLOAD PUSH1 0x1 PUSH1 0x1 PUSH1 0xA0 SHL SUB NOT AND PUSH1 0x1 PUSH1 0x1 PUSH1 0xA0 SHL SUB DUP4 AND SWAP1 DUP2 OR SWAP1 SWAP2 SSTORE PUSH1 0x40 MLOAD SWAP1 DUP2 MSTORE PUSH32 0x67235BA2E63C748A35B95C4F92A3BBC2A1389938170A5CE6C9ADD5D0B03A314A SWAP1 PUSH1 0x20 ADD PUSH2 0x3B0 JUMP JUMPDEST PUSH1 0x0 DUP1 PUSH1 0x1 PUSH1 0x1 PUSH1 0xA0 SHL SUB AND PUSH1 0x2 DUP5 DUP5 PUSH1 0x40 MLOAD PUSH2 0x914 SWAP3 SWAP2 SWAP1 PUSH2 0xF34 JUMP JUMPDEST SWAP1 DUP2 MSTORE PUSH1 0x40 MLOAD SWAP1 DUP2 SWAP1 SUB PUSH1 0x20 ADD SWAP1 KECCAK256 SLOAD PUSH1 0x1 PUSH1 0x1 PUSH1 0xA0 SHL SUB AND EQ ISZERO SWAP1 POP SWAP3 SWAP2 POP POP JUMP JUMPDEST PUSH1 0x60 PUSH2 0x3C7 PUSH1 0x3 PUSH2 0xA51 JUMP JUMPDEST PUSH1 0x1 PUSH1 0x1 PUSH1 0xA0 SHL SUB DUP2 AND PUSH1 0x0 SWAP1 DUP2 MSTORE PUSH1 0x1 DUP4 ADD PUSH1 0x20 MSTORE PUSH1 0x40 DUP2 KECCAK256 SLOAD ISZERO ISZERO JUMPDEST SWAP4 SWAP3 POP POP POP JUMP JUMPDEST PUSH1 0x0 PUSH2 0x961 DUP4 PUSH1 0x1 PUSH1 0x1 PUSH1 0xA0 SHL SUB DUP5 AND PUSH2 0xAEB JUMP JUMPDEST PUSH1 0x60 PUSH1 0x0 PUSH2 0x98A DUP4 PUSH2 0xB3A JUMP JUMPDEST SWAP1 POP PUSH1 0x0 DUP2 PUSH8 0xFFFFFFFFFFFFFFFF DUP2 GT ISZERO PUSH2 0x9A7 JUMPI PUSH2 0x9A7 PUSH2 0xD6B JUMP JUMPDEST PUSH1 0x40 MLOAD SWAP1 DUP1 DUP3 MSTORE DUP1 PUSH1 0x20 MUL PUSH1 0x20 ADD DUP3 ADD PUSH1 0x40 MSTORE DUP1 ISZERO PUSH2 0x9D0 JUMPI DUP2 PUSH1 0x20 ADD PUSH1 0x20 DUP3 MUL DUP1 CALLDATASIZE DUP4 CALLDATACOPY ADD SWAP1 POP JUMPDEST POP SWAP1 POP PUSH1 0x0 JUMPDEST DUP3 DUP2 LT ISZERO PUSH2 0x450 JUMPI PUSH2 0x9E8 DUP6 DUP3 PUSH2 0xB44 JUMP JUMPDEST DUP3 DUP3 DUP2 MLOAD DUP2 LT PUSH2 0x9FA JUMPI PUSH2 0x9FA PUSH2 0xF87 JUMP JUMPDEST PUSH1 0x1 PUSH1 0x1 PUSH1 0xA0 SHL SUB SWAP1 SWAP3 AND PUSH1 0x20 SWAP3 DUP4 MUL SWAP2 SWAP1 SWAP2 ADD SWAP1 SWAP2 ADD MSTORE DUP1 PUSH2 0xA1C DUP2 PUSH2 0xFB3 JUMP JUMPDEST SWAP2 POP POP PUSH2 0x9D6 JUMP JUMPDEST PUSH1 0x0 PUSH2 0x961 DUP4 DUP4 PUSH2 0xB50 JUMP JUMPDEST PUSH1 0x0 PUSH2 0x961 DUP4 PUSH1 0x1 PUSH1 0x1 PUSH1 0xA0 SHL SUB DUP5 AND PUSH2 0xB50 JUMP JUMPDEST PUSH1 0x0 PUSH2 0x961 DUP4 DUP4 PUSH2 0xAEB JUMP JUMPDEST PUSH1 0x60 PUSH1 0x0 PUSH2 0xA5E DUP4 PUSH2 0xB3A JUMP JUMPDEST SWAP1 POP PUSH1 0x0 DUP2 PUSH8 0xFFFFFFFFFFFFFFFF DUP2 GT ISZERO PUSH2 0xA7B JUMPI PUSH2 0xA7B PUSH2 0xD6B JUMP JUMPDEST PUSH1 0x40 MLOAD SWAP1 DUP1 DUP3 MSTORE DUP1 PUSH1 0x20 MUL PUSH1 0x20 ADD DUP3 ADD PUSH1 0x40 MSTORE DUP1 ISZERO PUSH2 0xAA4 JUMPI DUP2 PUSH1 0x20 ADD PUSH1 0x20 DUP3 MUL DUP1 CALLDATASIZE DUP4 CALLDATACOPY ADD SWAP1 POP JUMPDEST POP SWAP1 POP PUSH1 0x0 JUMPDEST DUP3 DUP2 LT ISZERO PUSH2 0x450 JUMPI PUSH2 0xABC DUP6 DUP3 PUSH2 0xC43 JUMP JUMPDEST DUP3 DUP3 DUP2 MLOAD DUP2 LT PUSH2 0xACE JUMPI PUSH2 0xACE PUSH2 0xF87 JUMP JUMPDEST PUSH1 0x20 SWAP1 DUP2 MUL SWAP2 SWAP1 SWAP2 ADD ADD MSTORE DUP1 PUSH2 0xAE3 DUP2 PUSH2 0xFB3 JUMP JUMPDEST SWAP2 POP POP PUSH2 0xAAA JUMP JUMPDEST PUSH1 0x0 DUP2 DUP2 MSTORE PUSH1 0x1 DUP4 ADD PUSH1 0x20 MSTORE PUSH1 0x40 DUP2 KECCAK256 SLOAD PUSH2 0xB32 JUMPI POP DUP2 SLOAD PUSH1 0x1 DUP2 DUP2 ADD DUP5 SSTORE PUSH1 0x0 DUP5 DUP2 MSTORE PUSH1 0x20 DUP1 DUP3 KECCAK256 SWAP1 SWAP4 ADD DUP5 SWAP1 SSTORE DUP5 SLOAD DUP5 DUP3 MSTORE DUP3 DUP7 ADD SWAP1 SWAP4 MSTORE PUSH1 0x40 SWAP1 KECCAK256 SWAP2 SWAP1 SWAP2 SSTORE PUSH2 0x3D9 JUMP JUMPDEST POP PUSH1 0x0 PUSH2 0x3D9 JUMP JUMPDEST PUSH1 0x0 PUSH2 0x3D9 DUP3 SLOAD SWAP1 JUMP JUMPDEST PUSH1 0x0 PUSH2 0x961 DUP4 DUP4 PUSH2 0xC4B JUMP JUMPDEST PUSH1 0x0 DUP2 DUP2 MSTORE PUSH1 0x1 DUP4 ADD PUSH1 0x20 MSTORE PUSH1 0x40 DUP2 KECCAK256 SLOAD DUP1 ISZERO PUSH2 0xC39 JUMPI PUSH1 0x0 PUSH2 0xB74 PUSH1 0x1 DUP4 PUSH2 0xFCE JUMP JUMPDEST DUP6 SLOAD SWAP1 SWAP2 POP PUSH1 0x0 SWAP1 PUSH2 0xB88 SWAP1 PUSH1 0x1 SWAP1 PUSH2 0xFCE JUMP JUMPDEST SWAP1 POP DUP2 DUP2 EQ PUSH2 0xBED JUMPI PUSH1 0x0 DUP7 PUSH1 0x0 ADD DUP3 DUP2 SLOAD DUP2 LT PUSH2 0xBA8 JUMPI PUSH2 0xBA8 PUSH2 0xF87 JUMP JUMPDEST SWAP1 PUSH1 0x0 MSTORE PUSH1 0x20 PUSH1 0x0 KECCAK256 ADD SLOAD SWAP1 POP DUP1 DUP8 PUSH1 0x0 ADD DUP5 DUP2 SLOAD DUP2 LT PUSH2 0xBCB JUMPI PUSH2 0xBCB PUSH2 0xF87 JUMP JUMPDEST PUSH1 0x0 SWAP2 DUP3 MSTORE PUSH1 0x20 DUP1 DUP4 KECCAK256 SWAP1 SWAP2 ADD SWAP3 SWAP1 SWAP3 SSTORE SWAP2 DUP3 MSTORE PUSH1 0x1 DUP9 ADD SWAP1 MSTORE PUSH1 0x40 SWAP1 KECCAK256 DUP4 SWAP1 SSTORE JUMPDEST DUP6 SLOAD DUP7 SWAP1 DUP1 PUSH2 0xBFE JUMPI PUSH2 0xBFE PUSH2 0xFE5 JUMP JUMPDEST PUSH1 0x1 SWAP1 SUB DUP2 DUP2 SWAP1 PUSH1 0x0 MSTORE PUSH1 0x20 PUSH1 0x0 KECCAK256 ADD PUSH1 0x0 SWAP1 SSTORE SWAP1 SSTORE DUP6 PUSH1 0x1 ADD PUSH1 0x0 DUP7 DUP2 MSTORE PUSH1 0x20 ADD SWAP1 DUP2 MSTORE PUSH1 0x20 ADD PUSH1 0x0 KECCAK256 PUSH1 0x0 SWAP1 SSTORE PUSH1 0x1 SWAP4 POP POP POP POP PUSH2 0x3D9 JUMP JUMPDEST PUSH1 0x0 SWAP2 POP POP PUSH2 0x3D9 JUMP JUMPDEST PUSH1 0x0 PUSH2 0x961 DUP4 DUP4 JUMPDEST PUSH1 0x0 DUP3 PUSH1 0x0 ADD DUP3 DUP2 SLOAD DUP2 LT PUSH2 0xC62 JUMPI PUSH2 0xC62 PUSH2 0xF87 JUMP JUMPDEST SWAP1 PUSH1 0x0 MSTORE PUSH1 0x20 PUSH1 0x0 KECCAK256 ADD SLOAD SWAP1 POP SWAP3 SWAP2 POP POP JUMP JUMPDEST DUP1 CALLDATALOAD PUSH1 0x1 PUSH1 0x1 PUSH1 0xA0 SHL SUB DUP2 AND DUP2 EQ PUSH2 0xC8C JUMPI PUSH1 0x0 DUP1 REVERT JUMPDEST SWAP2 SWAP1 POP JUMP JUMPDEST PUSH1 0x0 PUSH1 0x20 DUP3 DUP5 SUB SLT ISZERO PUSH2 0xCA3 JUMPI PUSH1 0x0 DUP1 REVERT JUMPDEST PUSH2 0x961 DUP3 PUSH2 0xC75 JUMP JUMPDEST PUSH1 0x20 DUP1 DUP3 MSTORE DUP3 MLOAD DUP3 DUP3 ADD DUP2 SWAP1 MSTORE PUSH1 0x0 SWAP2 SWAP1 DUP5 DUP3 ADD SWAP1 PUSH1 0x40 DUP6 ADD SWAP1 DUP5 JUMPDEST DUP2 DUP2 LT ISZERO PUSH2 0xCED JUMPI DUP4 MLOAD PUSH1 0x1 PUSH1 0x1 PUSH1 0xA0 SHL SUB AND DUP4 MSTORE SWAP3 DUP5 ADD SWAP3 SWAP2 DUP5 ADD SWAP2 PUSH1 0x1 ADD PUSH2 0xCC8 JUMP JUMPDEST POP SWAP1 SWAP7 SWAP6 POP POP POP POP POP POP JUMP JUMPDEST PUSH1 0x0 DUP1 PUSH1 0x20 DUP4 DUP6 SUB SLT ISZERO PUSH2 0xD0C JUMPI PUSH1 0x0 DUP1 REVERT JUMPDEST DUP3 CALLDATALOAD PUSH8 0xFFFFFFFFFFFFFFFF DUP1 DUP3 GT ISZERO PUSH2 0xD24 JUMPI PUSH1 0x0 DUP1 REVERT JUMPDEST DUP2 DUP6 ADD SWAP2 POP DUP6 PUSH1 0x1F DUP4 ADD SLT PUSH2 0xD38 JUMPI PUSH1 0x0 DUP1 REVERT JUMPDEST DUP2 CALLDATALOAD DUP2 DUP2 GT ISZERO PUSH2 0xD47 JUMPI PUSH1 0x0 DUP1 REVERT JUMPDEST DUP7 PUSH1 0x20 DUP3 DUP6 ADD ADD GT ISZERO PUSH2 0xD59 JUMPI PUSH1 0x0 DUP1 REVERT JUMPDEST PUSH1 0x20 SWAP3 SWAP1 SWAP3 ADD SWAP7 SWAP2 SWAP6 POP SWAP1 SWAP4 POP POP POP POP JUMP JUMPDEST PUSH4 0x4E487B71 PUSH1 0xE0 SHL PUSH1 0x0 MSTORE PUSH1 0x41 PUSH1 0x4 MSTORE PUSH1 0x24 PUSH1 0x0 REVERT JUMPDEST PUSH1 0x0 DUP3 PUSH1 0x1F DUP4 ADD SLT PUSH2 0xD92 JUMPI PUSH1 0x0 DUP1 REVERT JUMPDEST DUP2 CALLDATALOAD PUSH8 0xFFFFFFFFFFFFFFFF DUP1 DUP3 GT ISZERO PUSH2 0xDAD JUMPI PUSH2 0xDAD PUSH2 0xD6B JUMP JUMPDEST PUSH1 0x40 MLOAD PUSH1 0x1F DUP4 ADD PUSH1 0x1F NOT SWAP1 DUP2 AND PUSH1 0x3F ADD AND DUP2 ADD SWAP1 DUP3 DUP3 GT DUP2 DUP4 LT OR ISZERO PUSH2 0xDD5 JUMPI PUSH2 0xDD5 PUSH2 0xD6B JUMP JUMPDEST DUP2 PUSH1 0x40 MSTORE DUP4 DUP2 MSTORE DUP7 PUSH1 0x20 DUP6 DUP9 ADD ADD GT ISZERO PUSH2 0xDEE JUMPI PUSH1 0x0 DUP1 REVERT JUMPDEST DUP4 PUSH1 0x20 DUP8 ADD PUSH1 0x20 DUP4 ADD CALLDATACOPY PUSH1 0x0 PUSH1 0x20 DUP6 DUP4 ADD ADD MSTORE DUP1 SWAP5 POP POP POP POP POP SWAP3 SWAP2 POP POP JUMP JUMPDEST PUSH1 0x0 PUSH1 0x20 DUP3 DUP5 SUB SLT ISZERO PUSH2 0xE20 JUMPI PUSH1 0x0 DUP1 REVERT JUMPDEST DUP2 CALLDATALOAD PUSH8 0xFFFFFFFFFFFFFFFF DUP2 GT ISZERO PUSH2 0xE37 JUMPI PUSH1 0x0 DUP1 REVERT JUMPDEST PUSH2 0xE43 DUP5 DUP3 DUP6 ADD PUSH2 0xD81 JUMP JUMPDEST SWAP5 SWAP4 POP POP POP POP JUMP JUMPDEST PUSH1 0x0 DUP1 PUSH1 0x40 DUP4 DUP6 SUB SLT ISZERO PUSH2 0xE5E JUMPI PUSH1 0x0 DUP1 REVERT JUMPDEST DUP3 CALLDATALOAD PUSH8 0xFFFFFFFFFFFFFFFF DUP2 GT ISZERO PUSH2 0xE75 JUMPI PUSH1 0x0 DUP1 REVERT JUMPDEST PUSH2 0xE81 DUP6 DUP3 DUP7 ADD PUSH2 0xD81 JUMP JUMPDEST SWAP3 POP POP PUSH2 0xE90 PUSH1 0x20 DUP5 ADD PUSH2 0xC75 JUMP JUMPDEST SWAP1 POP SWAP3 POP SWAP3 SWAP1 POP JUMP JUMPDEST PUSH1 0x20 DUP1 DUP3 MSTORE DUP3 MLOAD DUP3 DUP3 ADD DUP2 SWAP1 MSTORE PUSH1 0x0 SWAP2 SWAP1 DUP5 DUP3 ADD SWAP1 PUSH1 0x40 DUP6 ADD SWAP1 DUP5 JUMPDEST DUP2 DUP2 LT ISZERO PUSH2 0xCED JUMPI DUP4 MLOAD DUP4 MSTORE SWAP3 DUP5 ADD SWAP3 SWAP2 DUP5 ADD SWAP2 PUSH1 0x1 ADD PUSH2 0xEB5 JUMP JUMPDEST PUSH1 0x0 JUMPDEST DUP4 DUP2 LT ISZERO PUSH2 0xEEC JUMPI DUP2 DUP2 ADD MLOAD DUP4 DUP3 ADD MSTORE PUSH1 0x20 ADD PUSH2 0xED4 JUMP JUMPDEST DUP4 DUP2 GT ISZERO PUSH2 0xEFB JUMPI PUSH1 0x0 DUP5 DUP5 ADD MSTORE JUMPDEST POP POP POP POP JUMP JUMPDEST PUSH1 0x20 DUP2 MSTORE PUSH1 0x0 DUP3 MLOAD DUP1 PUSH1 0x20 DUP5 ADD MSTORE PUSH2 0xF20 DUP2 PUSH1 0x40 DUP6 ADD PUSH1 0x20 DUP8 ADD PUSH2 0xED1 JUMP JUMPDEST PUSH1 0x1F ADD PUSH1 0x1F NOT AND SWAP2 SWAP1 SWAP2 ADD PUSH1 0x40 ADD SWAP3 SWAP2 POP POP JUMP JUMPDEST DUP2 DUP4 DUP3 CALLDATACOPY PUSH1 0x0 SWAP2 ADD SWAP1 DUP2 MSTORE SWAP2 SWAP1 POP JUMP JUMPDEST PUSH1 0x0 DUP3 MLOAD PUSH2 0xF56 DUP2 DUP5 PUSH1 0x20 DUP8 ADD PUSH2 0xED1 JUMP JUMPDEST SWAP2 SWAP1 SWAP2 ADD SWAP3 SWAP2 POP POP JUMP JUMPDEST DUP1 MLOAD PUSH1 0x20 DUP1 DUP4 ADD MLOAD SWAP2 SWAP1 DUP2 LT ISZERO PUSH2 0xF81 JUMPI PUSH1 0x0 NOT DUP2 PUSH1 0x20 SUB PUSH1 0x3 SHL SHL DUP3 AND SWAP2 POP JUMPDEST POP SWAP2 SWAP1 POP JUMP JUMPDEST PUSH4 0x4E487B71 PUSH1 0xE0 SHL PUSH1 0x0 MSTORE PUSH1 0x32 PUSH1 0x4 MSTORE PUSH1 0x24 PUSH1 0x0 REVERT JUMPDEST PUSH4 0x4E487B71 PUSH1 0xE0 SHL PUSH1 0x0 MSTORE PUSH1 0x11 PUSH1 0x4 MSTORE PUSH1 0x24 PUSH1 0x0 REVERT JUMPDEST PUSH1 0x0 PUSH1 0x0 NOT DUP3 EQ ISZERO PUSH2 0xFC7 JUMPI PUSH2 0xFC7 PUSH2 0xF9D JUMP JUMPDEST POP PUSH1 0x1 ADD SWAP1 JUMP JUMPDEST PUSH1 0x0 DUP3 DUP3 LT ISZERO PUSH2 0xFE0 JUMPI PUSH2 0xFE0 PUSH2 0xF9D JUMP JUMPDEST POP SUB SWAP1 JUMP JUMPDEST PUSH4 0x4E487B71 PUSH1 0xE0 SHL PUSH1 0x0 MSTORE PUSH1 0x31 PUSH1 0x4 MSTORE PUSH1 0x24 PUSH1 0x0 REVERT INVALID LOG2 PUSH5 0x6970667358 0x22 SLT KECCAK256 PUSH26 0xE9D26EBBCE330E24A2D666A3348E50FD6B6BC5BF1E49156EEB9B MOD 0x2E MOD 0xD3 0xA8 PUSH5 0x736F6C6343 STOP ADDMOD EXP STOP CALLER ","sha1":"73ec8013c09c21f84e52600ea60294d318933039","source":"// SPDX-License-Identifier: UNLICENSED\npragma solidity ^0.8.4;\n\nimport \"@openzeppelin/contracts/utils/structs/EnumerableSet.sol\";\n\nimport \"../../interfaces/IAssetRegistry.sol\";\n\nimport \"../../libraries/Errors.sol\";\nimport \"../../libraries/EnumerableExtensions.sol\";\n\nimport \"../auth/Governable.sol\";\n\ncontract AssetRegistry is IAssetRegistry, Governable {\n    using EnumerableSet for EnumerableSet.AddressSet;\n    using EnumerableSet for EnumerableSet.Bytes32Set;\n    using EnumerableExtensions for EnumerableSet.Bytes32Set;\n    using EnumerableExtensions for EnumerableSet.AddressSet;\n\n    mapping(string => address) internal assets;\n\n    EnumerableSet.Bytes32Set internal assetNames;\n    EnumerableSet.AddressSet internal assetAddresses;\n    EnumerableSet.AddressSet internal stableAssetAddresses;\n\n    /// @inheritdoc IAssetRegistry\n    function isAssetNameRegistered(string calldata assetName)\n        external\n        view\n        override\n        returns (bool)\n    {\n        return assets[assetName] != address(0);\n    }\n\n    /// @inheritdoc IAssetRegistry\n    function isAssetAddressRegistered(address assetAddress) external view override returns (bool) {\n        return assetAddresses.contains(assetAddress);\n    }\n\n    /// @inheritdoc IAssetRegistry\n    function isAssetStable(address assetAddress) external view returns (bool) {\n        return stableAssetAddresses.contains(assetAddress);\n    }\n\n    /// @inheritdoc IAssetRegistry\n    function getRegisteredAssetNames() external view returns (bytes32[] memory) {\n        return assetNames.toArray();\n    }\n\n    /// @inheritdoc IAssetRegistry\n    function getRegisteredAssetAddresses() external view returns (address[] memory) {\n        return assetAddresses.toArray();\n    }\n\n    /// @inheritdoc IAssetRegistry\n    function getStableAssets() external view returns (address[] memory) {\n        return stableAssetAddresses.toArray();\n    }\n\n    /// @inheritdoc IAssetRegistry\n    function getAssetAddress(string calldata assetName) external view returns (address) {\n        address assetAddress = assets[assetName];\n        require(assetAddress != address(0), Errors.ASSET_NOT_SUPPORTED);\n        return assetAddress;\n    }\n\n    /// @inheritdoc IAssetRegistry\n    function setAssetAddress(string memory assetName, address assetAddress)\n        external\n        governanceOnly\n    {\n        require(bytes(assetName).length < 32, Errors.INVALID_ARGUMENT);\n        require(assetAddress != address(0), Errors.INVALID_ARGUMENT);\n\n        address previousAddress = assets[assetName];\n        require(previousAddress != assetAddress, Errors.INVALID_ARGUMENT);\n        assets[assetName] = assetAddress;\n\n        assetNames.add(bytes32(bytes(assetName)));\n        assetAddresses.add(assetAddress);\n\n        emit AssetAddressUpdated(assetName, previousAddress, assetAddress);\n    }\n\n    /// @inheritdoc IAssetRegistry\n    function addStableAsset(address asset) external governanceOnly {\n        require(assetAddresses.contains(asset), Errors.ASSET_NOT_SUPPORTED);\n        stableAssetAddresses.add(asset);\n        emit StableAssetAdded(asset);\n    }\n\n    /// @inheritdoc IAssetRegistry\n    function removeStableAsset(address asset) external governanceOnly {\n        require(stableAssetAddresses.contains(asset), Errors.ASSET_NOT_SUPPORTED);\n        stableAssetAddresses.remove(asset);\n        emit StableAssetRemoved(asset);\n    }\n\n    /// @inheritdoc IAssetRegistry\n    function removeAsset(string memory assetName) external governanceOnly {\n        address assetAddress = assets[assetName];\n        require(assetAddress != address(0), Errors.ASSET_NOT_SUPPORTED);\n        delete assets[assetName];\n        assetNames.remove(bytes32(bytes(assetName)));\n        assetAddresses.remove(assetAddress);\n        stableAssetAddresses.remove(assetAddress);\n    }\n}\n","sourcePath":"contracts/oracles/AssetRegistry.sol","type":"contract","deployment":{"address":"0xd8902590F55AB9AA9AFa3EEEB12c4A0b9b96Eb87","chainid":"137","blockHeight":31961338}}