{"abi":[{"anonymous":false,"inputs":[{"indexed":false,"internalType":"bytes32","name":"key","type":"bytes32"},{"indexed":false,"internalType":"uint256","name":"previousValue","type":"uint256"},{"indexed":false,"internalType":"uint256","name":"newValue","type":"uint256"}],"name":"ConfigChanged","type":"event"},{"anonymous":false,"inputs":[{"indexed":false,"internalType":"bytes32","name":"key","type":"bytes32"},{"indexed":false,"internalType":"address","name":"previousValue","type":"address"},{"indexed":false,"internalType":"address","name":"newValue","type":"address"}],"name":"ConfigChanged","type":"event"},{"anonymous":false,"inputs":[{"indexed":false,"internalType":"bytes32","name":"key","type":"bytes32"}],"name":"ConfigFrozen","type":"event"},{"anonymous":false,"inputs":[{"indexed":false,"internalType":"bytes32","name":"key","type":"bytes32"}],"name":"ConfigUnset","type":"event"},{"anonymous":false,"inputs":[{"indexed":false,"internalType":"address","name":"newGovernor","type":"address"}],"name":"GovernorChangeRequested","type":"event"},{"anonymous":false,"inputs":[{"indexed":false,"internalType":"address","name":"oldGovernor","type":"address"},{"indexed":false,"internalType":"address","name":"newGovernor","type":"address"}],"name":"GovernorChanged","type":"event"},{"inputs":[],"name":"acceptGovernance","outputs":[],"stateMutability":"nonpayable","type":"function"},{"inputs":[{"internalType":"address","name":"newGovernor","type":"address"}],"name":"changeGovernor","outputs":[],"stateMutability":"nonpayable","type":"function"},{"inputs":[{"internalType":"bytes32","name":"key","type":"bytes32"}],"name":"freeze","outputs":[],"stateMutability":"nonpayable","type":"function"},{"inputs":[{"internalType":"bytes32","name":"key","type":"bytes32"}],"name":"getAddress","outputs":[{"internalType":"address","name":"","type":"address"}],"stateMutability":"view","type":"function"},{"inputs":[{"internalType":"bytes32","name":"key","type":"bytes32"}],"name":"getConfigMeta","outputs":[{"internalType":"uint8","name":"","type":"uint8"},{"internalType":"bool","name":"","type":"bool"}],"stateMutability":"view","type":"function"},{"inputs":[{"internalType":"bytes32","name":"key","type":"bytes32"}],"name":"getUint","outputs":[{"internalType":"uint256","name":"","type":"uint256"}],"stateMutability":"view","type":"function"},{"inputs":[],"name":"governor","outputs":[{"internalType":"address","name":"","type":"address"}],"stateMutability":"view","type":"function"},{"inputs":[{"internalType":"bytes32","name":"key","type":"bytes32"}],"name":"hasKey","outputs":[{"internalType":"bool","name":"","type":"bool"}],"stateMutability":"view","type":"function"},{"inputs":[{"internalType":"address","name":"_governor","type":"address"}],"name":"initialize","outputs":[],"stateMutability":"nonpayable","type":"function"},{"inputs":[],"name":"listKeys","outputs":[{"internalType":"bytes32[]","name":"","type":"bytes32[]"}],"stateMutability":"view","type":"function"},{"inputs":[],"name":"pendingGovernor","outputs":[{"internalType":"address","name":"","type":"address"}],"stateMutability":"view","type":"function"},{"inputs":[{"internalType":"bytes32","name":"key","type":"bytes32"},{"internalType":"address","name":"newValue","type":"address"}],"name":"setAddress","outputs":[],"stateMutability":"nonpayable","type":"function"},{"inputs":[{"internalType":"bytes32","name":"key","type":"bytes32"},{"internalType":"uint256","name":"newValue","type":"uint256"}],"name":"setUint","outputs":[],"stateMutability":"nonpayable","type":"function"},{"inputs":[{"internalType":"bytes32","name":"key","type":"bytes32"}],"name":"unset","outputs":[],"stateMutability":"nonpayable","type":"function"}],"bytecode":"608060405234801561001057600080fd5b50611001806100206000396000f3fe608060405234801561001057600080fd5b50600436106100ea5760003560e01c8063ca446dd91161008c578063e3056a3411610066578063e3056a34146101f8578063e4c0aaf41461020b578063ec13cc7b1461021e578063fd322c141461023157600080fd5b8063ca446dd9146101a6578063cd014f0c146101b9578063e2a4853a146101e557600080fd5b8063696eb375116100c8578063696eb3751461013c5780639141d6f91461015f578063bd02d0f514610172578063c4d66de81461019357600080fd5b80630c340a24146100ef57806321f8a7211461011f578063238efcbc14610132575b600080fd5b600054610102906001600160a01b031681565b6040516001600160a01b0390911681526020015b60405180910390f35b61010261012d366004610e0a565b610246565b61013a610259565b005b61014f61014a366004610e0a565b610312565b6040519015158152602001610116565b61013a61016d366004610e0a565b61031f565b610185610180366004610e0a565b61043e565b604051908152602001610116565b61013a6101a1366004610e3f565b61044b565b61013a6101b4366004610e5a565b610569565b6101cc6101c7366004610e0a565b610613565b6040805160ff9093168352901515602083015201610116565b61013a6101f3366004610e86565b610670565b600154610102906001600160a01b031681565b61013a610219366004610e3f565b610705565b61013a61022c366004610e0a565b6107da565b6102396108ed565b6040516101169190610ea8565b6000610253826001610991565b92915050565b600154604080518082019091526002815261033360f41b6020820152906001600160a01b031633146102a75760405162461bcd60e51b815260040161029e9190610eec565b60405180910390fd5b5060008054600180546001600160a01b03198084166001600160a01b03808416919091179095551690556040805192909116808352336020840152917fde4b3f61490b74c0ed6237523974fe299126bbbf8a8a7482fd220104c59b0c8491015b60405180910390a150565b6000610253600383610a06565b600054604080518082019091526002815261033360f41b6020820152906001600160a01b031633146103645760405162461bcd60e51b815260040161029e9190610eec565b5060008061037183610a19565b92505091508160405180604001604052806002815260200161199960f11b815250906103b05760405162461bcd60e51b815260040161029e9190610eec565b50604080518082019091526002815261333360f01b602082015281156103e95760405162461bcd60e51b815260040161029e9190610eec565b50600083815260026020526040812055610404600384610a4d565b506040518381527f90e6f6dc5a05702effb7cb4f1eb2d30a76a0a0c4cb7accd3c069c2b8149d3594906020015b60405180910390a1505050565b6000610253826002610991565b600154600160a81b900460ff168061046d5750600154600160a01b900460ff16155b6104d05760405162461bcd60e51b815260206004820152602e60248201527f496e697469616c697a61626c653a20636f6e747261637420697320616c72656160448201526d191e481a5b9a5d1a585b1a5e995960921b606482015260840161029e565b600154600160a81b900460ff161580156104fa576001805461ffff60a01b191661010160a01b1790555b600080546001600160a01b0319166001600160a01b03841690811782556040805192835260208301919091527fde4b3f61490b74c0ed6237523974fe299126bbbf8a8a7482fd220104c59b0c84910160405180910390a18015610565576001805460ff60a81b191690555b5050565b600054604080518082019091526002815261033360f41b6020820152906001600160a01b031633146105ae5760405162461bcd60e51b815260040161029e9190610eec565b5060006105c683836001600160a01b03166001610a59565b604080518581526001600160a01b0380841660208301528516918101919091529091507f86709719730335e655237ec19f947f910603bbf35b01de8f98e5eb05922edb4390606001610431565b600080600080600061062486610a19565b9250925092508260405180604001604052806002815260200161199960f11b815250906106645760405162461bcd60e51b815260040161029e9190610eec565b50909590945092505050565b600054604080518082019091526002815261033360f41b6020820152906001600160a01b031633146106b55760405162461bcd60e51b815260040161029e9190610eec565b5060006106c483836002610a59565b60408051858152602081018390529081018490529091507fda2476af668c5f7eb48f492f9bbd5a7e9d4293d64144b3b7be75a156803fb8be90606001610431565b600054604080518082019091526002815261033360f41b6020820152906001600160a01b0316331461074a5760405162461bcd60e51b815260040161029e9190610eec565b50604080518082019091526002815261333160f01b60208201526001600160a01b03821661078b5760405162461bcd60e51b815260040161029e9190610eec565b50600180546001600160a01b0319166001600160a01b0383169081179091556040519081527f67235ba2e63c748a35b95c4f92a3bbc2a1389938170a5ce6c9add5d0b03a314a90602001610307565b600054604080518082019091526002815261033360f41b6020820152906001600160a01b0316331461081f5760405162461bcd60e51b815260040161029e9190610eec565b50600080600061082e84610a19565b9250925092508260405180604001604052806002815260200161199960f11b8152509061086e5760405162461bcd60e51b815260040161029e9190610eec565b50604080518082019091526002815261333360f01b602082015281156108a75760405162461bcd60e51b815260040161029e9190610eec565b506108b484836001610b20565b6040518481527f540251d20c832db9ca5e1ad5faa4320509054d7067fc1d7fa5856f4ccb69cf5c9060200160405180910390a150505050565b606060006108fb6003610b55565b905060008167ffffffffffffffff81111561091857610918610f41565b604051908082528060200260200182016040528015610941578160200160208202803683370190505b50905060005b8281101561098a5761095a600382610b60565b5082828151811061096d5761096d610f57565b60209081029190910101528061098281610f83565b915050610947565b5092915050565b600080600061099f85610a19565b50915091508180156109b657508360ff168160ff16145b60405180604001604052806002815260200161199960f11b815250906109ef5760405162461bcd60e51b815260040161029e9190610eec565b505050600092835250506002602052604090205490565b6000610a128383610b7e565b9392505050565b6000808080610a29600386610b8a565b90945090508315610a4557806001166001149150600881901c92505b509193909250565b6000610a128383610b99565b600080600080610a6887610a19565b925092509250821580610a8057508460ff168260ff16145b60405180604001604052806002815260200161333160f01b81525090610ab95760405162461bcd60e51b815260040161029e9190610eec565b50604080518082019091526002815261333360f01b60208201528115610af25760405162461bcd60e51b815260040161029e9190610eec565b50600087815260026020526040812080549088905590610b159089908890610b20565b979650505050505050565b600081610b2e576000610b31565b60015b60ff16905061ff00600884901b168117610b4d60038683610bb6565b505050505050565b600061025382610bcb565b6000808080610b6f8686610bd6565b909450925050505b9250929050565b6000610a128383610c01565b6000808080610b6f8686610c19565b60008181526002830160205260408120819055610a128383610c53565b6000610bc3848484610c5f565b949350505050565b600061025382610c7c565b60008080610be48585610c86565b600081815260029690960160205260409095205494959350505050565b60008181526001830160205260408120541515610a12565b6000818152600283016020526040812054819080610c4857610c3b8585610b7e565b925060009150610b779050565b600192509050610b77565b6000610a128383610c92565b60008281526002840160205260408120829055610bc38484610d85565b6000610253825490565b6000610a128383610d91565b60008181526001830160205260408120548015610d7b576000610cb6600183610f9e565b8554909150600090610cca90600190610f9e565b9050818114610d2f576000866000018281548110610cea57610cea610f57565b9060005260206000200154905080876000018481548110610d0d57610d0d610f57565b6000918252602080832090910192909255918252600188019052604090208390555b8554869080610d4057610d40610fb5565b600190038181906000526020600020016000905590558560010160008681526020019081526020016000206000905560019350505050610253565b6000915050610253565b6000610a128383610dbb565b6000826000018281548110610da857610da8610f57565b9060005260206000200154905092915050565b6000818152600183016020526040812054610e0257508154600181810184556000848152602080822090930184905584548482528286019093526040902091909155610253565b506000610253565b600060208284031215610e1c57600080fd5b5035919050565b80356001600160a01b0381168114610e3a57600080fd5b919050565b600060208284031215610e5157600080fd5b610a1282610e23565b60008060408385031215610e6d57600080fd5b82359150610e7d60208401610e23565b90509250929050565b60008060408385031215610e9957600080fd5b50508035926020909101359150565b6020808252825182820181905260009190848201906040850190845b81811015610ee057835183529284019291840191600101610ec4565b50909695505050505050565b600060208083528351808285015260005b81811015610f1957858101830151858201604001528201610efd565b81811115610f2b576000604083870101525b50601f01601f1916929092016040019392505050565b634e487b7160e01b600052604160045260246000fd5b634e487b7160e01b600052603260045260246000fd5b634e487b7160e01b600052601160045260246000fd5b6000600019821415610f9757610f97610f6d565b5060010190565b600082821015610fb057610fb0610f6d565b500390565b634e487b7160e01b600052603160045260246000fdfea264697066735822122028018829e376e0f4554dca7a79f09ebdb5f03a5d51a840a53780457ea19a037064736f6c634300080a0033","bytecodeSha1":"ab927579fe94243578419a674a0327908e8b2ecb","compiler":{"evm_version":"istanbul","optimizer":{"enabled":true,"runs":200},"version":"0.8.10+commit.fc410830"},"contractName":"GyroConfig","language":"Solidity","natspec":{"kind":"dev","methods":{"acceptGovernance()":{"notice":"Called by the pending governor to approve the change"},"changeGovernor(address)":{"notice":"Changes the governor can only be called by the current governor"},"freeze(bytes32)":{"notice":"Freezes a key, making it impossible to update or unset"},"getAddress(bytes32)":{"notice":"Returns an address value from the config"},"getConfigMeta(bytes32)":{"notice":"Returns the metadata associated with a particular config key"},"getUint(bytes32)":{"notice":"Returns a uint256 value from the config"},"governor()":{"notice":"Returns the current governor"},"hasKey(bytes32)":{"notice":"Returns true if the configuration has the given key"},"listKeys()":{"notice":"Returns a set of known configuration keys"},"pendingGovernor()":{"notice":"Returns the pending governor"},"setAddress(bytes32,address)":{"notice":"Set an address config"},"setUint(bytes32,uint256)":{"notice":"Set a uint256 config NOTE: We avoid overloading to avoid complications with some clients"},"unset(bytes32)":{"notice":"Unset a key in the config"}},"version":1},"opcodes":"PUSH1 0x80 PUSH1 0x40 MSTORE CALLVALUE DUP1 ISZERO PUSH2 0x10 JUMPI PUSH1 0x0 DUP1 REVERT JUMPDEST POP PUSH1 0x4 CALLDATASIZE LT PUSH2 0xEA JUMPI PUSH1 0x0 CALLDATALOAD PUSH1 0xE0 SHR DUP1 PUSH4 0xCA446DD9 GT PUSH2 0x8C JUMPI DUP1 PUSH4 0xE3056A34 GT PUSH2 0x66 JUMPI DUP1 PUSH4 0xE3056A34 EQ PUSH2 0x1F8 JUMPI DUP1 PUSH4 0xE4C0AAF4 EQ PUSH2 0x20B JUMPI DUP1 PUSH4 0xEC13CC7B EQ PUSH2 0x21E JUMPI DUP1 PUSH4 0xFD322C14 EQ PUSH2 0x231 JUMPI PUSH1 0x0 DUP1 REVERT JUMPDEST DUP1 PUSH4 0xCA446DD9 EQ PUSH2 0x1A6 JUMPI DUP1 PUSH4 0xCD014F0C EQ PUSH2 0x1B9 JUMPI DUP1 PUSH4 0xE2A4853A EQ PUSH2 0x1E5 JUMPI PUSH1 0x0 DUP1 REVERT JUMPDEST DUP1 PUSH4 0x696EB375 GT PUSH2 0xC8 JUMPI DUP1 PUSH4 0x696EB375 EQ PUSH2 0x13C JUMPI DUP1 PUSH4 0x9141D6F9 EQ PUSH2 0x15F JUMPI DUP1 PUSH4 0xBD02D0F5 EQ PUSH2 0x172 JUMPI DUP1 PUSH4 0xC4D66DE8 EQ PUSH2 0x193 JUMPI PUSH1 0x0 DUP1 REVERT JUMPDEST DUP1 PUSH4 0xC340A24 EQ PUSH2 0xEF JUMPI DUP1 PUSH4 0x21F8A721 EQ PUSH2 0x11F JUMPI DUP1 PUSH4 0x238EFCBC EQ PUSH2 0x132 JUMPI JUMPDEST PUSH1 0x0 DUP1 REVERT JUMPDEST PUSH1 0x0 SLOAD PUSH2 0x102 SWAP1 PUSH1 0x1 PUSH1 0x1 PUSH1 0xA0 SHL SUB AND DUP2 JUMP JUMPDEST PUSH1 0x40 MLOAD PUSH1 0x1 PUSH1 0x1 PUSH1 0xA0 SHL SUB SWAP1 SWAP2 AND DUP2 MSTORE PUSH1 0x20 ADD JUMPDEST PUSH1 0x40 MLOAD DUP1 SWAP2 SUB SWAP1 RETURN JUMPDEST PUSH2 0x102 PUSH2 0x12D CALLDATASIZE PUSH1 0x4 PUSH2 0xE0A JUMP JUMPDEST PUSH2 0x246 JUMP JUMPDEST PUSH2 0x13A PUSH2 0x259 JUMP JUMPDEST STOP JUMPDEST PUSH2 0x14F PUSH2 0x14A CALLDATASIZE PUSH1 0x4 PUSH2 0xE0A JUMP JUMPDEST PUSH2 0x312 JUMP JUMPDEST PUSH1 0x40 MLOAD SWAP1 ISZERO ISZERO DUP2 MSTORE PUSH1 0x20 ADD PUSH2 0x116 JUMP JUMPDEST PUSH2 0x13A PUSH2 0x16D CALLDATASIZE PUSH1 0x4 PUSH2 0xE0A JUMP JUMPDEST PUSH2 0x31F JUMP JUMPDEST PUSH2 0x185 PUSH2 0x180 CALLDATASIZE PUSH1 0x4 PUSH2 0xE0A JUMP JUMPDEST PUSH2 0x43E JUMP JUMPDEST PUSH1 0x40 MLOAD SWAP1 DUP2 MSTORE PUSH1 0x20 ADD PUSH2 0x116 JUMP JUMPDEST PUSH2 0x13A PUSH2 0x1A1 CALLDATASIZE PUSH1 0x4 PUSH2 0xE3F JUMP JUMPDEST PUSH2 0x44B JUMP JUMPDEST PUSH2 0x13A PUSH2 0x1B4 CALLDATASIZE PUSH1 0x4 PUSH2 0xE5A JUMP JUMPDEST PUSH2 0x569 JUMP JUMPDEST PUSH2 0x1CC PUSH2 0x1C7 CALLDATASIZE PUSH1 0x4 PUSH2 0xE0A JUMP JUMPDEST PUSH2 0x613 JUMP JUMPDEST PUSH1 0x40 DUP1 MLOAD PUSH1 0xFF SWAP1 SWAP4 AND DUP4 MSTORE SWAP1 ISZERO ISZERO PUSH1 0x20 DUP4 ADD MSTORE ADD PUSH2 0x116 JUMP JUMPDEST PUSH2 0x13A PUSH2 0x1F3 CALLDATASIZE PUSH1 0x4 PUSH2 0xE86 JUMP JUMPDEST PUSH2 0x670 JUMP JUMPDEST PUSH1 0x1 SLOAD PUSH2 0x102 SWAP1 PUSH1 0x1 PUSH1 0x1 PUSH1 0xA0 SHL SUB AND DUP2 JUMP JUMPDEST PUSH2 0x13A PUSH2 0x219 CALLDATASIZE PUSH1 0x4 PUSH2 0xE3F JUMP JUMPDEST PUSH2 0x705 JUMP JUMPDEST PUSH2 0x13A PUSH2 0x22C CALLDATASIZE PUSH1 0x4 PUSH2 0xE0A JUMP JUMPDEST PUSH2 0x7DA JUMP JUMPDEST PUSH2 0x239 PUSH2 0x8ED JUMP JUMPDEST PUSH1 0x40 MLOAD PUSH2 0x116 SWAP2 SWAP1 PUSH2 0xEA8 JUMP JUMPDEST PUSH1 0x0 PUSH2 0x253 DUP3 PUSH1 0x1 PUSH2 0x991 JUMP JUMPDEST SWAP3 SWAP2 POP POP JUMP JUMPDEST PUSH1 0x1 SLOAD PUSH1 0x40 DUP1 MLOAD DUP1 DUP3 ADD SWAP1 SWAP2 MSTORE PUSH1 0x2 DUP2 MSTORE PUSH2 0x333 PUSH1 0xF4 SHL PUSH1 0x20 DUP3 ADD MSTORE SWAP1 PUSH1 0x1 PUSH1 0x1 PUSH1 0xA0 SHL SUB AND CALLER EQ PUSH2 0x2A7 JUMPI PUSH1 0x40 MLOAD PUSH3 0x461BCD PUSH1 0xE5 SHL DUP2 MSTORE PUSH1 0x4 ADD PUSH2 0x29E SWAP2 SWAP1 PUSH2 0xEEC JUMP JUMPDEST PUSH1 0x40 MLOAD DUP1 SWAP2 SUB SWAP1 REVERT JUMPDEST POP PUSH1 0x0 DUP1 SLOAD PUSH1 0x1 DUP1 SLOAD PUSH1 0x1 PUSH1 0x1 PUSH1 0xA0 SHL SUB NOT DUP1 DUP5 AND PUSH1 0x1 PUSH1 0x1 PUSH1 0xA0 SHL SUB DUP1 DUP5 AND SWAP2 SWAP1 SWAP2 OR SWAP1 SWAP6 SSTORE AND SWAP1 SSTORE PUSH1 0x40 DUP1 MLOAD SWAP3 SWAP1 SWAP2 AND DUP1 DUP4 MSTORE CALLER PUSH1 0x20 DUP5 ADD MSTORE SWAP2 PUSH32 0xDE4B3F61490B74C0ED6237523974FE299126BBBF8A8A7482FD220104C59B0C84 SWAP2 ADD JUMPDEST PUSH1 0x40 MLOAD DUP1 SWAP2 SUB SWAP1 LOG1 POP JUMP JUMPDEST PUSH1 0x0 PUSH2 0x253 PUSH1 0x3 DUP4 PUSH2 0xA06 JUMP JUMPDEST PUSH1 0x0 SLOAD PUSH1 0x40 DUP1 MLOAD DUP1 DUP3 ADD SWAP1 SWAP2 MSTORE PUSH1 0x2 DUP2 MSTORE PUSH2 0x333 PUSH1 0xF4 SHL PUSH1 0x20 DUP3 ADD MSTORE SWAP1 PUSH1 0x1 PUSH1 0x1 PUSH1 0xA0 SHL SUB AND CALLER EQ PUSH2 0x364 JUMPI PUSH1 0x40 MLOAD PUSH3 0x461BCD PUSH1 0xE5 SHL DUP2 MSTORE PUSH1 0x4 ADD PUSH2 0x29E SWAP2 SWAP1 PUSH2 0xEEC JUMP JUMPDEST POP PUSH1 0x0 DUP1 PUSH2 0x371 DUP4 PUSH2 0xA19 JUMP JUMPDEST SWAP3 POP POP SWAP2 POP DUP2 PUSH1 0x40 MLOAD DUP1 PUSH1 0x40 ADD PUSH1 0x40 MSTORE DUP1 PUSH1 0x2 DUP2 MSTORE PUSH1 0x20 ADD PUSH2 0x1999 PUSH1 0xF1 SHL DUP2 MSTORE POP SWAP1 PUSH2 0x3B0 JUMPI PUSH1 0x40 MLOAD PUSH3 0x461BCD PUSH1 0xE5 SHL DUP2 MSTORE PUSH1 0x4 ADD PUSH2 0x29E SWAP2 SWAP1 PUSH2 0xEEC JUMP JUMPDEST POP PUSH1 0x40 DUP1 MLOAD DUP1 DUP3 ADD SWAP1 SWAP2 MSTORE PUSH1 0x2 DUP2 MSTORE PUSH2 0x3333 PUSH1 0xF0 SHL PUSH1 0x20 DUP3 ADD MSTORE DUP2 ISZERO PUSH2 0x3E9 JUMPI PUSH1 0x40 MLOAD PUSH3 0x461BCD PUSH1 0xE5 SHL DUP2 MSTORE PUSH1 0x4 ADD PUSH2 0x29E SWAP2 SWAP1 PUSH2 0xEEC JUMP JUMPDEST POP PUSH1 0x0 DUP4 DUP2 MSTORE PUSH1 0x2 PUSH1 0x20 MSTORE PUSH1 0x40 DUP2 KECCAK256 SSTORE PUSH2 0x404 PUSH1 0x3 DUP5 PUSH2 0xA4D JUMP JUMPDEST POP PUSH1 0x40 MLOAD DUP4 DUP2 MSTORE PUSH32 0x90E6F6DC5A05702EFFB7CB4F1EB2D30A76A0A0C4CB7ACCD3C069C2B8149D3594 SWAP1 PUSH1 0x20 ADD JUMPDEST PUSH1 0x40 MLOAD DUP1 SWAP2 SUB SWAP1 LOG1 POP POP POP JUMP JUMPDEST PUSH1 0x0 PUSH2 0x253 DUP3 PUSH1 0x2 PUSH2 0x991 JUMP JUMPDEST PUSH1 0x1 SLOAD PUSH1 0x1 PUSH1 0xA8 SHL SWAP1 DIV PUSH1 0xFF AND DUP1 PUSH2 0x46D JUMPI POP PUSH1 0x1 SLOAD PUSH1 0x1 PUSH1 0xA0 SHL SWAP1 DIV PUSH1 0xFF AND ISZERO JUMPDEST PUSH2 0x4D0 JUMPI PUSH1 0x40 MLOAD PUSH3 0x461BCD PUSH1 0xE5 SHL DUP2 MSTORE PUSH1 0x20 PUSH1 0x4 DUP3 ADD MSTORE PUSH1 0x2E PUSH1 0x24 DUP3 ADD MSTORE PUSH32 0x496E697469616C697A61626C653A20636F6E747261637420697320616C726561 PUSH1 0x44 DUP3 ADD MSTORE PUSH14 0x191E481A5B9A5D1A585B1A5E9959 PUSH1 0x92 SHL PUSH1 0x64 DUP3 ADD MSTORE PUSH1 0x84 ADD PUSH2 0x29E JUMP JUMPDEST PUSH1 0x1 SLOAD PUSH1 0x1 PUSH1 0xA8 SHL SWAP1 DIV PUSH1 0xFF AND ISZERO DUP1 ISZERO PUSH2 0x4FA JUMPI PUSH1 0x1 DUP1 SLOAD PUSH2 0xFFFF PUSH1 0xA0 SHL NOT AND PUSH2 0x101 PUSH1 0xA0 SHL OR SWAP1 SSTORE JUMPDEST PUSH1 0x0 DUP1 SLOAD PUSH1 0x1 PUSH1 0x1 PUSH1 0xA0 SHL SUB NOT AND PUSH1 0x1 PUSH1 0x1 PUSH1 0xA0 SHL SUB DUP5 AND SWAP1 DUP2 OR DUP3 SSTORE PUSH1 0x40 DUP1 MLOAD SWAP3 DUP4 MSTORE PUSH1 0x20 DUP4 ADD SWAP2 SWAP1 SWAP2 MSTORE PUSH32 0xDE4B3F61490B74C0ED6237523974FE299126BBBF8A8A7482FD220104C59B0C84 SWAP2 ADD PUSH1 0x40 MLOAD DUP1 SWAP2 SUB SWAP1 LOG1 DUP1 ISZERO PUSH2 0x565 JUMPI PUSH1 0x1 DUP1 SLOAD PUSH1 0xFF PUSH1 0xA8 SHL NOT AND SWAP1 SSTORE JUMPDEST POP POP JUMP JUMPDEST PUSH1 0x0 SLOAD PUSH1 0x40 DUP1 MLOAD DUP1 DUP3 ADD SWAP1 SWAP2 MSTORE PUSH1 0x2 DUP2 MSTORE PUSH2 0x333 PUSH1 0xF4 SHL PUSH1 0x20 DUP3 ADD MSTORE SWAP1 PUSH1 0x1 PUSH1 0x1 PUSH1 0xA0 SHL SUB AND CALLER EQ PUSH2 0x5AE JUMPI PUSH1 0x40 MLOAD PUSH3 0x461BCD PUSH1 0xE5 SHL DUP2 MSTORE PUSH1 0x4 ADD PUSH2 0x29E SWAP2 SWAP1 PUSH2 0xEEC JUMP JUMPDEST POP PUSH1 0x0 PUSH2 0x5C6 DUP4 DUP4 PUSH1 0x1 PUSH1 0x1 PUSH1 0xA0 SHL SUB AND PUSH1 0x1 PUSH2 0xA59 JUMP JUMPDEST PUSH1 0x40 DUP1 MLOAD DUP6 DUP2 MSTORE PUSH1 0x1 PUSH1 0x1 PUSH1 0xA0 SHL SUB DUP1 DUP5 AND PUSH1 0x20 DUP4 ADD MSTORE DUP6 AND SWAP2 DUP2 ADD SWAP2 SWAP1 SWAP2 MSTORE SWAP1 SWAP2 POP PUSH32 0x86709719730335E655237EC19F947F910603BBF35B01DE8F98E5EB05922EDB43 SWAP1 PUSH1 0x60 ADD PUSH2 0x431 JUMP JUMPDEST PUSH1 0x0 DUP1 PUSH1 0x0 DUP1 PUSH1 0x0 PUSH2 0x624 DUP7 PUSH2 0xA19 JUMP JUMPDEST SWAP3 POP SWAP3 POP SWAP3 POP DUP3 PUSH1 0x40 MLOAD DUP1 PUSH1 0x40 ADD PUSH1 0x40 MSTORE DUP1 PUSH1 0x2 DUP2 MSTORE PUSH1 0x20 ADD PUSH2 0x1999 PUSH1 0xF1 SHL DUP2 MSTORE POP SWAP1 PUSH2 0x664 JUMPI PUSH1 0x40 MLOAD PUSH3 0x461BCD PUSH1 0xE5 SHL DUP2 MSTORE PUSH1 0x4 ADD PUSH2 0x29E SWAP2 SWAP1 PUSH2 0xEEC JUMP JUMPDEST POP SWAP1 SWAP6 SWAP1 SWAP5 POP SWAP3 POP POP POP JUMP JUMPDEST PUSH1 0x0 SLOAD PUSH1 0x40 DUP1 MLOAD DUP1 DUP3 ADD SWAP1 SWAP2 MSTORE PUSH1 0x2 DUP2 MSTORE PUSH2 0x333 PUSH1 0xF4 SHL PUSH1 0x20 DUP3 ADD MSTORE SWAP1 PUSH1 0x1 PUSH1 0x1 PUSH1 0xA0 SHL SUB AND CALLER EQ PUSH2 0x6B5 JUMPI PUSH1 0x40 MLOAD PUSH3 0x461BCD PUSH1 0xE5 SHL DUP2 MSTORE PUSH1 0x4 ADD PUSH2 0x29E SWAP2 SWAP1 PUSH2 0xEEC JUMP JUMPDEST POP PUSH1 0x0 PUSH2 0x6C4 DUP4 DUP4 PUSH1 0x2 PUSH2 0xA59 JUMP JUMPDEST PUSH1 0x40 DUP1 MLOAD DUP6 DUP2 MSTORE PUSH1 0x20 DUP2 ADD DUP4 SWAP1 MSTORE SWAP1 DUP2 ADD DUP5 SWAP1 MSTORE SWAP1 SWAP2 POP PUSH32 0xDA2476AF668C5F7EB48F492F9BBD5A7E9D4293D64144B3B7BE75A156803FB8BE SWAP1 PUSH1 0x60 ADD PUSH2 0x431 JUMP JUMPDEST PUSH1 0x0 SLOAD PUSH1 0x40 DUP1 MLOAD DUP1 DUP3 ADD SWAP1 SWAP2 MSTORE PUSH1 0x2 DUP2 MSTORE PUSH2 0x333 PUSH1 0xF4 SHL PUSH1 0x20 DUP3 ADD MSTORE SWAP1 PUSH1 0x1 PUSH1 0x1 PUSH1 0xA0 SHL SUB AND CALLER EQ PUSH2 0x74A JUMPI PUSH1 0x40 MLOAD PUSH3 0x461BCD PUSH1 0xE5 SHL DUP2 MSTORE PUSH1 0x4 ADD PUSH2 0x29E SWAP2 SWAP1 PUSH2 0xEEC JUMP JUMPDEST POP PUSH1 0x40 DUP1 MLOAD DUP1 DUP3 ADD SWAP1 SWAP2 MSTORE PUSH1 0x2 DUP2 MSTORE PUSH2 0x3331 PUSH1 0xF0 SHL PUSH1 0x20 DUP3 ADD MSTORE PUSH1 0x1 PUSH1 0x1 PUSH1 0xA0 SHL SUB DUP3 AND PUSH2 0x78B JUMPI PUSH1 0x40 MLOAD PUSH3 0x461BCD PUSH1 0xE5 SHL DUP2 MSTORE PUSH1 0x4 ADD PUSH2 0x29E SWAP2 SWAP1 PUSH2 0xEEC JUMP JUMPDEST POP PUSH1 0x1 DUP1 SLOAD PUSH1 0x1 PUSH1 0x1 PUSH1 0xA0 SHL SUB NOT AND PUSH1 0x1 PUSH1 0x1 PUSH1 0xA0 SHL SUB DUP4 AND SWAP1 DUP2 OR SWAP1 SWAP2 SSTORE PUSH1 0x40 MLOAD SWAP1 DUP2 MSTORE PUSH32 0x67235BA2E63C748A35B95C4F92A3BBC2A1389938170A5CE6C9ADD5D0B03A314A SWAP1 PUSH1 0x20 ADD PUSH2 0x307 JUMP JUMPDEST PUSH1 0x0 SLOAD PUSH1 0x40 DUP1 MLOAD DUP1 DUP3 ADD SWAP1 SWAP2 MSTORE PUSH1 0x2 DUP2 MSTORE PUSH2 0x333 PUSH1 0xF4 SHL PUSH1 0x20 DUP3 ADD MSTORE SWAP1 PUSH1 0x1 PUSH1 0x1 PUSH1 0xA0 SHL SUB AND CALLER EQ PUSH2 0x81F JUMPI PUSH1 0x40 MLOAD PUSH3 0x461BCD PUSH1 0xE5 SHL DUP2 MSTORE PUSH1 0x4 ADD PUSH2 0x29E SWAP2 SWAP1 PUSH2 0xEEC JUMP JUMPDEST POP PUSH1 0x0 DUP1 PUSH1 0x0 PUSH2 0x82E DUP5 PUSH2 0xA19 JUMP JUMPDEST SWAP3 POP SWAP3 POP SWAP3 POP DUP3 PUSH1 0x40 MLOAD DUP1 PUSH1 0x40 ADD PUSH1 0x40 MSTORE DUP1 PUSH1 0x2 DUP2 MSTORE PUSH1 0x20 ADD PUSH2 0x1999 PUSH1 0xF1 SHL DUP2 MSTORE POP SWAP1 PUSH2 0x86E JUMPI PUSH1 0x40 MLOAD PUSH3 0x461BCD PUSH1 0xE5 SHL DUP2 MSTORE PUSH1 0x4 ADD PUSH2 0x29E SWAP2 SWAP1 PUSH2 0xEEC JUMP JUMPDEST POP PUSH1 0x40 DUP1 MLOAD DUP1 DUP3 ADD SWAP1 SWAP2 MSTORE PUSH1 0x2 DUP2 MSTORE PUSH2 0x3333 PUSH1 0xF0 SHL PUSH1 0x20 DUP3 ADD MSTORE DUP2 ISZERO PUSH2 0x8A7 JUMPI PUSH1 0x40 MLOAD PUSH3 0x461BCD PUSH1 0xE5 SHL DUP2 MSTORE PUSH1 0x4 ADD PUSH2 0x29E SWAP2 SWAP1 PUSH2 0xEEC JUMP JUMPDEST POP PUSH2 0x8B4 DUP5 DUP4 PUSH1 0x1 PUSH2 0xB20 JUMP JUMPDEST PUSH1 0x40 MLOAD DUP5 DUP2 MSTORE PUSH32 0x540251D20C832DB9CA5E1AD5FAA4320509054D7067FC1D7FA5856F4CCB69CF5C SWAP1 PUSH1 0x20 ADD PUSH1 0x40 MLOAD DUP1 SWAP2 SUB SWAP1 LOG1 POP POP POP POP JUMP JUMPDEST PUSH1 0x60 PUSH1 0x0 PUSH2 0x8FB PUSH1 0x3 PUSH2 0xB55 JUMP JUMPDEST SWAP1 POP PUSH1 0x0 DUP2 PUSH8 0xFFFFFFFFFFFFFFFF DUP2 GT ISZERO PUSH2 0x918 JUMPI PUSH2 0x918 PUSH2 0xF41 JUMP JUMPDEST PUSH1 0x40 MLOAD SWAP1 DUP1 DUP3 MSTORE DUP1 PUSH1 0x20 MUL PUSH1 0x20 ADD DUP3 ADD PUSH1 0x40 MSTORE DUP1 ISZERO PUSH2 0x941 JUMPI DUP2 PUSH1 0x20 ADD PUSH1 0x20 DUP3 MUL DUP1 CALLDATASIZE DUP4 CALLDATACOPY ADD SWAP1 POP JUMPDEST POP SWAP1 POP PUSH1 0x0 JUMPDEST DUP3 DUP2 LT ISZERO PUSH2 0x98A JUMPI PUSH2 0x95A PUSH1 0x3 DUP3 PUSH2 0xB60 JUMP JUMPDEST POP DUP3 DUP3 DUP2 MLOAD DUP2 LT PUSH2 0x96D JUMPI PUSH2 0x96D PUSH2 0xF57 JUMP JUMPDEST PUSH1 0x20 SWAP1 DUP2 MUL SWAP2 SWAP1 SWAP2 ADD ADD MSTORE DUP1 PUSH2 0x982 DUP2 PUSH2 0xF83 JUMP JUMPDEST SWAP2 POP POP PUSH2 0x947 JUMP JUMPDEST POP SWAP3 SWAP2 POP POP JUMP JUMPDEST PUSH1 0x0 DUP1 PUSH1 0x0 PUSH2 0x99F DUP6 PUSH2 0xA19 JUMP JUMPDEST POP SWAP2 POP SWAP2 POP DUP2 DUP1 ISZERO PUSH2 0x9B6 JUMPI POP DUP4 PUSH1 0xFF AND DUP2 PUSH1 0xFF AND EQ JUMPDEST PUSH1 0x40 MLOAD DUP1 PUSH1 0x40 ADD PUSH1 0x40 MSTORE DUP1 PUSH1 0x2 DUP2 MSTORE PUSH1 0x20 ADD PUSH2 0x1999 PUSH1 0xF1 SHL DUP2 MSTORE POP SWAP1 PUSH2 0x9EF JUMPI PUSH1 0x40 MLOAD PUSH3 0x461BCD PUSH1 0xE5 SHL DUP2 MSTORE PUSH1 0x4 ADD PUSH2 0x29E SWAP2 SWAP1 PUSH2 0xEEC JUMP JUMPDEST POP POP POP PUSH1 0x0 SWAP3 DUP4 MSTORE POP POP PUSH1 0x2 PUSH1 0x20 MSTORE PUSH1 0x40 SWAP1 KECCAK256 SLOAD SWAP1 JUMP JUMPDEST PUSH1 0x0 PUSH2 0xA12 DUP4 DUP4 PUSH2 0xB7E JUMP JUMPDEST SWAP4 SWAP3 POP POP POP JUMP JUMPDEST PUSH1 0x0 DUP1 DUP1 DUP1 PUSH2 0xA29 PUSH1 0x3 DUP7 PUSH2 0xB8A JUMP JUMPDEST SWAP1 SWAP5 POP SWAP1 POP DUP4 ISZERO PUSH2 0xA45 JUMPI DUP1 PUSH1 0x1 AND PUSH1 0x1 EQ SWAP2 POP PUSH1 0x8 DUP2 SWAP1 SHR SWAP3 POP JUMPDEST POP SWAP2 SWAP4 SWAP1 SWAP3 POP JUMP JUMPDEST PUSH1 0x0 PUSH2 0xA12 DUP4 DUP4 PUSH2 0xB99 JUMP JUMPDEST PUSH1 0x0 DUP1 PUSH1 0x0 DUP1 PUSH2 0xA68 DUP8 PUSH2 0xA19 JUMP JUMPDEST SWAP3 POP SWAP3 POP SWAP3 POP DUP3 ISZERO DUP1 PUSH2 0xA80 JUMPI POP DUP5 PUSH1 0xFF AND DUP3 PUSH1 0xFF AND EQ JUMPDEST PUSH1 0x40 MLOAD DUP1 PUSH1 0x40 ADD PUSH1 0x40 MSTORE DUP1 PUSH1 0x2 DUP2 MSTORE PUSH1 0x20 ADD PUSH2 0x3331 PUSH1 0xF0 SHL DUP2 MSTORE POP SWAP1 PUSH2 0xAB9 JUMPI PUSH1 0x40 MLOAD PUSH3 0x461BCD PUSH1 0xE5 SHL DUP2 MSTORE PUSH1 0x4 ADD PUSH2 0x29E SWAP2 SWAP1 PUSH2 0xEEC JUMP JUMPDEST POP PUSH1 0x40 DUP1 MLOAD DUP1 DUP3 ADD SWAP1 SWAP2 MSTORE PUSH1 0x2 DUP2 MSTORE PUSH2 0x3333 PUSH1 0xF0 SHL PUSH1 0x20 DUP3 ADD MSTORE DUP2 ISZERO PUSH2 0xAF2 JUMPI PUSH1 0x40 MLOAD PUSH3 0x461BCD PUSH1 0xE5 SHL DUP2 MSTORE PUSH1 0x4 ADD PUSH2 0x29E SWAP2 SWAP1 PUSH2 0xEEC JUMP JUMPDEST POP PUSH1 0x0 DUP8 DUP2 MSTORE PUSH1 0x2 PUSH1 0x20 MSTORE PUSH1 0x40 DUP2 KECCAK256 DUP1 SLOAD SWAP1 DUP9 SWAP1 SSTORE SWAP1 PUSH2 0xB15 SWAP1 DUP10 SWAP1 DUP9 SWAP1 PUSH2 0xB20 JUMP JUMPDEST SWAP8 SWAP7 POP POP POP POP POP POP POP JUMP JUMPDEST PUSH1 0x0 DUP2 PUSH2 0xB2E JUMPI PUSH1 0x0 PUSH2 0xB31 JUMP JUMPDEST PUSH1 0x1 JUMPDEST PUSH1 0xFF AND SWAP1 POP PUSH2 0xFF00 PUSH1 0x8 DUP5 SWAP1 SHL AND DUP2 OR PUSH2 0xB4D PUSH1 0x3 DUP7 DUP4 PUSH2 0xBB6 JUMP JUMPDEST POP POP POP POP POP POP JUMP JUMPDEST PUSH1 0x0 PUSH2 0x253 DUP3 PUSH2 0xBCB JUMP JUMPDEST PUSH1 0x0 DUP1 DUP1 DUP1 PUSH2 0xB6F DUP7 DUP7 PUSH2 0xBD6 JUMP JUMPDEST SWAP1 SWAP5 POP SWAP3 POP POP POP JUMPDEST SWAP3 POP SWAP3 SWAP1 POP JUMP JUMPDEST PUSH1 0x0 PUSH2 0xA12 DUP4 DUP4 PUSH2 0xC01 JUMP JUMPDEST PUSH1 0x0 DUP1 DUP1 DUP1 PUSH2 0xB6F DUP7 DUP7 PUSH2 0xC19 JUMP JUMPDEST PUSH1 0x0 DUP2 DUP2 MSTORE PUSH1 0x2 DUP4 ADD PUSH1 0x20 MSTORE PUSH1 0x40 DUP2 KECCAK256 DUP2 SWAP1 SSTORE PUSH2 0xA12 DUP4 DUP4 PUSH2 0xC53 JUMP JUMPDEST PUSH1 0x0 PUSH2 0xBC3 DUP5 DUP5 DUP5 PUSH2 0xC5F JUMP JUMPDEST SWAP5 SWAP4 POP POP POP POP JUMP JUMPDEST PUSH1 0x0 PUSH2 0x253 DUP3 PUSH2 0xC7C JUMP JUMPDEST PUSH1 0x0 DUP1 DUP1 PUSH2 0xBE4 DUP6 DUP6 PUSH2 0xC86 JUMP JUMPDEST PUSH1 0x0 DUP2 DUP2 MSTORE PUSH1 0x2 SWAP7 SWAP1 SWAP7 ADD PUSH1 0x20 MSTORE PUSH1 0x40 SWAP1 SWAP6 KECCAK256 SLOAD SWAP5 SWAP6 SWAP4 POP POP POP POP JUMP JUMPDEST PUSH1 0x0 DUP2 DUP2 MSTORE PUSH1 0x1 DUP4 ADD PUSH1 0x20 MSTORE PUSH1 0x40 DUP2 KECCAK256 SLOAD ISZERO ISZERO PUSH2 0xA12 JUMP JUMPDEST PUSH1 0x0 DUP2 DUP2 MSTORE PUSH1 0x2 DUP4 ADD PUSH1 0x20 MSTORE PUSH1 0x40 DUP2 KECCAK256 SLOAD DUP2 SWAP1 DUP1 PUSH2 0xC48 JUMPI PUSH2 0xC3B DUP6 DUP6 PUSH2 0xB7E JUMP JUMPDEST SWAP3 POP PUSH1 0x0 SWAP2 POP PUSH2 0xB77 SWAP1 POP JUMP JUMPDEST PUSH1 0x1 SWAP3 POP SWAP1 POP PUSH2 0xB77 JUMP JUMPDEST PUSH1 0x0 PUSH2 0xA12 DUP4 DUP4 PUSH2 0xC92 JUMP JUMPDEST PUSH1 0x0 DUP3 DUP2 MSTORE PUSH1 0x2 DUP5 ADD PUSH1 0x20 MSTORE PUSH1 0x40 DUP2 KECCAK256 DUP3 SWAP1 SSTORE PUSH2 0xBC3 DUP5 DUP5 PUSH2 0xD85 JUMP JUMPDEST PUSH1 0x0 PUSH2 0x253 DUP3 SLOAD SWAP1 JUMP JUMPDEST PUSH1 0x0 PUSH2 0xA12 DUP4 DUP4 PUSH2 0xD91 JUMP JUMPDEST PUSH1 0x0 DUP2 DUP2 MSTORE PUSH1 0x1 DUP4 ADD PUSH1 0x20 MSTORE PUSH1 0x40 DUP2 KECCAK256 SLOAD DUP1 ISZERO PUSH2 0xD7B JUMPI PUSH1 0x0 PUSH2 0xCB6 PUSH1 0x1 DUP4 PUSH2 0xF9E JUMP JUMPDEST DUP6 SLOAD SWAP1 SWAP2 POP PUSH1 0x0 SWAP1 PUSH2 0xCCA SWAP1 PUSH1 0x1 SWAP1 PUSH2 0xF9E JUMP JUMPDEST SWAP1 POP DUP2 DUP2 EQ PUSH2 0xD2F JUMPI PUSH1 0x0 DUP7 PUSH1 0x0 ADD DUP3 DUP2 SLOAD DUP2 LT PUSH2 0xCEA JUMPI PUSH2 0xCEA PUSH2 0xF57 JUMP JUMPDEST SWAP1 PUSH1 0x0 MSTORE PUSH1 0x20 PUSH1 0x0 KECCAK256 ADD SLOAD SWAP1 POP DUP1 DUP8 PUSH1 0x0 ADD DUP5 DUP2 SLOAD DUP2 LT PUSH2 0xD0D JUMPI PUSH2 0xD0D PUSH2 0xF57 JUMP JUMPDEST PUSH1 0x0 SWAP2 DUP3 MSTORE PUSH1 0x20 DUP1 DUP4 KECCAK256 SWAP1 SWAP2 ADD SWAP3 SWAP1 SWAP3 SSTORE SWAP2 DUP3 MSTORE PUSH1 0x1 DUP9 ADD SWAP1 MSTORE PUSH1 0x40 SWAP1 KECCAK256 DUP4 SWAP1 SSTORE JUMPDEST DUP6 SLOAD DUP7 SWAP1 DUP1 PUSH2 0xD40 JUMPI PUSH2 0xD40 PUSH2 0xFB5 JUMP JUMPDEST PUSH1 0x1 SWAP1 SUB DUP2 DUP2 SWAP1 PUSH1 0x0 MSTORE PUSH1 0x20 PUSH1 0x0 KECCAK256 ADD PUSH1 0x0 SWAP1 SSTORE SWAP1 SSTORE DUP6 PUSH1 0x1 ADD PUSH1 0x0 DUP7 DUP2 MSTORE PUSH1 0x20 ADD SWAP1 DUP2 MSTORE PUSH1 0x20 ADD PUSH1 0x0 KECCAK256 PUSH1 0x0 SWAP1 SSTORE PUSH1 0x1 SWAP4 POP POP POP POP PUSH2 0x253 JUMP JUMPDEST PUSH1 0x0 SWAP2 POP POP PUSH2 0x253 JUMP JUMPDEST PUSH1 0x0 PUSH2 0xA12 DUP4 DUP4 PUSH2 0xDBB JUMP JUMPDEST PUSH1 0x0 DUP3 PUSH1 0x0 ADD DUP3 DUP2 SLOAD DUP2 LT PUSH2 0xDA8 JUMPI PUSH2 0xDA8 PUSH2 0xF57 JUMP JUMPDEST SWAP1 PUSH1 0x0 MSTORE PUSH1 0x20 PUSH1 0x0 KECCAK256 ADD SLOAD SWAP1 POP SWAP3 SWAP2 POP POP JUMP JUMPDEST PUSH1 0x0 DUP2 DUP2 MSTORE PUSH1 0x1 DUP4 ADD PUSH1 0x20 MSTORE PUSH1 0x40 DUP2 KECCAK256 SLOAD PUSH2 0xE02 JUMPI POP DUP2 SLOAD PUSH1 0x1 DUP2 DUP2 ADD DUP5 SSTORE PUSH1 0x0 DUP5 DUP2 MSTORE PUSH1 0x20 DUP1 DUP3 KECCAK256 SWAP1 SWAP4 ADD DUP5 SWAP1 SSTORE DUP5 SLOAD DUP5 DUP3 MSTORE DUP3 DUP7 ADD SWAP1 SWAP4 MSTORE PUSH1 0x40 SWAP1 KECCAK256 SWAP2 SWAP1 SWAP2 SSTORE PUSH2 0x253 JUMP JUMPDEST POP PUSH1 0x0 PUSH2 0x253 JUMP JUMPDEST PUSH1 0x0 PUSH1 0x20 DUP3 DUP5 SUB SLT ISZERO PUSH2 0xE1C JUMPI PUSH1 0x0 DUP1 REVERT JUMPDEST POP CALLDATALOAD SWAP2 SWAP1 POP JUMP JUMPDEST DUP1 CALLDATALOAD PUSH1 0x1 PUSH1 0x1 PUSH1 0xA0 SHL SUB DUP2 AND DUP2 EQ PUSH2 0xE3A JUMPI PUSH1 0x0 DUP1 REVERT JUMPDEST SWAP2 SWAP1 POP JUMP JUMPDEST PUSH1 0x0 PUSH1 0x20 DUP3 DUP5 SUB SLT ISZERO PUSH2 0xE51 JUMPI PUSH1 0x0 DUP1 REVERT JUMPDEST PUSH2 0xA12 DUP3 PUSH2 0xE23 JUMP JUMPDEST PUSH1 0x0 DUP1 PUSH1 0x40 DUP4 DUP6 SUB SLT ISZERO PUSH2 0xE6D JUMPI PUSH1 0x0 DUP1 REVERT JUMPDEST DUP3 CALLDATALOAD SWAP2 POP PUSH2 0xE7D PUSH1 0x20 DUP5 ADD PUSH2 0xE23 JUMP JUMPDEST SWAP1 POP SWAP3 POP SWAP3 SWAP1 POP JUMP JUMPDEST PUSH1 0x0 DUP1 PUSH1 0x40 DUP4 DUP6 SUB SLT ISZERO PUSH2 0xE99 JUMPI PUSH1 0x0 DUP1 REVERT JUMPDEST POP POP DUP1 CALLDATALOAD SWAP3 PUSH1 0x20 SWAP1 SWAP2 ADD CALLDATALOAD SWAP2 POP JUMP JUMPDEST PUSH1 0x20 DUP1 DUP3 MSTORE DUP3 MLOAD DUP3 DUP3 ADD DUP2 SWAP1 MSTORE PUSH1 0x0 SWAP2 SWAP1 DUP5 DUP3 ADD SWAP1 PUSH1 0x40 DUP6 ADD SWAP1 DUP5 JUMPDEST DUP2 DUP2 LT ISZERO PUSH2 0xEE0 JUMPI DUP4 MLOAD DUP4 MSTORE SWAP3 DUP5 ADD SWAP3 SWAP2 DUP5 ADD SWAP2 PUSH1 0x1 ADD PUSH2 0xEC4 JUMP JUMPDEST POP SWAP1 SWAP7 SWAP6 POP POP POP POP POP POP JUMP JUMPDEST PUSH1 0x0 PUSH1 0x20 DUP1 DUP4 MSTORE DUP4 MLOAD DUP1 DUP3 DUP6 ADD MSTORE PUSH1 0x0 JUMPDEST DUP2 DUP2 LT ISZERO PUSH2 0xF19 JUMPI DUP6 DUP2 ADD DUP4 ADD MLOAD DUP6 DUP3 ADD PUSH1 0x40 ADD MSTORE DUP3 ADD PUSH2 0xEFD JUMP JUMPDEST DUP2 DUP2 GT ISZERO PUSH2 0xF2B JUMPI PUSH1 0x0 PUSH1 0x40 DUP4 DUP8 ADD ADD MSTORE JUMPDEST POP PUSH1 0x1F ADD PUSH1 0x1F NOT AND SWAP3 SWAP1 SWAP3 ADD PUSH1 0x40 ADD SWAP4 SWAP3 POP POP POP JUMP JUMPDEST PUSH4 0x4E487B71 PUSH1 0xE0 SHL PUSH1 0x0 MSTORE PUSH1 0x41 PUSH1 0x4 MSTORE PUSH1 0x24 PUSH1 0x0 REVERT JUMPDEST PUSH4 0x4E487B71 PUSH1 0xE0 SHL PUSH1 0x0 MSTORE PUSH1 0x32 PUSH1 0x4 MSTORE PUSH1 0x24 PUSH1 0x0 REVERT JUMPDEST PUSH4 0x4E487B71 PUSH1 0xE0 SHL PUSH1 0x0 MSTORE PUSH1 0x11 PUSH1 0x4 MSTORE PUSH1 0x24 PUSH1 0x0 REVERT JUMPDEST PUSH1 0x0 PUSH1 0x0 NOT DUP3 EQ ISZERO PUSH2 0xF97 JUMPI PUSH2 0xF97 PUSH2 0xF6D JUMP JUMPDEST POP PUSH1 0x1 ADD SWAP1 JUMP JUMPDEST PUSH1 0x0 DUP3 DUP3 LT ISZERO PUSH2 0xFB0 JUMPI PUSH2 0xFB0 PUSH2 0xF6D JUMP JUMPDEST POP SUB SWAP1 JUMP JUMPDEST PUSH4 0x4E487B71 PUSH1 0xE0 SHL PUSH1 0x0 MSTORE PUSH1 0x31 PUSH1 0x4 MSTORE PUSH1 0x24 PUSH1 0x0 REVERT INVALID LOG2 PUSH5 0x6970667358 0x22 SLT KECCAK256 0x28 ADD DUP9 0x29 0xE3 PUSH23 0xE0F4554DCA7A79F09EBDB5F03A5D51A840A53780457EA1 SWAP11 SUB PUSH17 0x64736F6C634300080A0033000000000000 ","sha1":"dc8d9e66281352a163ece543bd52411fa6704206","source":"// SPDX-License-Identifier: UNLICENSED\npragma solidity ^0.8.4;\n\nimport \"../interfaces/IGyroConfig.sol\";\nimport \"./auth/GovernableUpgradeable.sol\";\nimport \"../libraries/EnumerableMapping.sol\";\n\ncontract GyroConfig is IGyroConfig, GovernableUpgradeable {\n    using EnumerableMapping for EnumerableMapping.Bytes32ToUIntMap;\n\n    uint8 internal constant ADDRESS_TYPE = 1;\n    uint8 internal constant UINT_TYPE = 2;\n\n    mapping(bytes32 => uint256) internal _config;\n\n    EnumerableMapping.Bytes32ToUIntMap internal _configMeta;\n\n    /// @inheritdoc IGyroConfig\n    function listKeys() external view override returns (bytes32[] memory) {\n        uint256 length = _configMeta.length();\n        bytes32[] memory keys = new bytes32[](length);\n        for (uint256 i = 0; i < length; i++) {\n            (keys[i], ) = _configMeta.at(i);\n        }\n        return keys;\n    }\n\n    /// @inheritdoc IGyroConfig\n    function hasKey(bytes32 key) external view override returns (bool) {\n        return _configMeta.contains(key);\n    }\n\n    /// @inheritdoc IGyroConfig\n    function getConfigMeta(bytes32 key) external view override returns (uint8, bool) {\n        (bool exists, uint8 configType, bool frozen) = _getConfigMeta(key);\n        require(exists, Errors.KEY_NOT_FOUND);\n        return (configType, frozen);\n    }\n\n    /// @inheritdoc IGyroConfig\n    function getUint(bytes32 key) external view override returns (uint256) {\n        return _get(key, UINT_TYPE);\n    }\n\n    /// @inheritdoc IGyroConfig\n    function getAddress(bytes32 key) external view override returns (address) {\n        return address(uint160(_get(key, ADDRESS_TYPE)));\n    }\n\n    /// @inheritdoc IGyroConfig\n    function setUint(bytes32 key, uint256 newValue) external override governanceOnly {\n        uint256 oldValue = _set(key, newValue, UINT_TYPE);\n        emit ConfigChanged(key, oldValue, newValue);\n    }\n\n    /// @inheritdoc IGyroConfig\n    function setAddress(bytes32 key, address newValue) external override governanceOnly {\n        uint256 oldValue = _set(key, uint256(uint160(newValue)), ADDRESS_TYPE);\n        emit ConfigChanged(key, address(uint160(oldValue)), newValue);\n    }\n\n    /// @inheritdoc IGyroConfig\n    function unset(bytes32 key) external override governanceOnly {\n        (bool exists, , bool frozen) = _getConfigMeta(key);\n        require(exists, Errors.KEY_NOT_FOUND);\n        require(!frozen, Errors.KEY_FROZEN);\n        delete _config[key];\n        _configMeta.remove(key);\n        emit ConfigUnset(key);\n    }\n\n    /// @inheritdoc IGyroConfig\n    function freeze(bytes32 key) external governanceOnly {\n        (bool exists, uint8 configType, bool frozen) = _getConfigMeta(key);\n        require(exists, Errors.KEY_NOT_FOUND);\n        require(!frozen, Errors.KEY_FROZEN);\n        _setConfigMeta(key, configType, true);\n\n        emit ConfigFrozen(key);\n    }\n\n    function _get(bytes32 key, uint8 expectedType) internal view returns (uint256) {\n        (bool exists, uint8 configType, ) = _getConfigMeta(key);\n        require(exists && configType == expectedType, Errors.KEY_NOT_FOUND);\n        return _config[key];\n    }\n\n    function _set(\n        bytes32 key,\n        uint256 newValue,\n        uint8 expectedType\n    ) internal returns (uint256) {\n        (bool exists, uint8 configType, bool frozen) = _getConfigMeta(key);\n        require(!exists || configType == expectedType, Errors.INVALID_ARGUMENT);\n        require(!frozen, Errors.KEY_FROZEN);\n        uint256 oldValue = _config[key];\n        _config[key] = newValue;\n        _setConfigMeta(key, expectedType, false);\n        return oldValue;\n    }\n\n    function _setConfigMeta(\n        bytes32 key,\n        uint8 configType,\n        bool frozen\n    ) internal {\n        uint256 frozenB = frozen ? 1 : 0;\n        uint256 value = (uint256(configType) << 8) | frozenB;\n        _configMeta.set(key, value);\n    }\n\n    function _getConfigMeta(bytes32 key)\n        internal\n        view\n        returns (\n            bool exists,\n            uint8 configType,\n            bool frozen\n        )\n    {\n        uint256 meta;\n        (exists, meta) = _configMeta.tryGet(key);\n        if (exists) {\n            frozen = meta & 0x1 == 1;\n            configType = uint8(meta >> 8);\n        }\n    }\n}\n","sourcePath":"contracts/GyroConfig.sol","type":"contract","deployment":{"address":"0xF5d5441384283e1acCC58c9f4d5e058d2845F18C","chainid":"137","blockHeight":31555617}}