{"abi":[{"inputs":[{"internalType":"address","name":"_governor","type":"address"},{"internalType":"address","name":"_usdOracle","type":"address"},{"internalType":"address","name":"_relativeOracle","type":"address"},{"internalType":"address","name":"_wethAddress","type":"address"}],"stateMutability":"nonpayable","type":"constructor","name":"constructor"},{"anonymous":false,"inputs":[{"indexed":false,"internalType":"address","name":"_addressToAdd","type":"address"}],"name":"AssetForRelativePriceCheckAdded","type":"event"},{"anonymous":false,"inputs":[{"indexed":false,"internalType":"address","name":"_addressToRemove","type":"address"}],"name":"AssetForRelativePriceCheckRemoved","type":"event"},{"anonymous":false,"inputs":[{"indexed":false,"internalType":"address","name":"newGovernor","type":"address"}],"name":"GovernorChangeRequested","type":"event"},{"anonymous":false,"inputs":[{"indexed":false,"internalType":"address","name":"oldGovernor","type":"address"},{"indexed":false,"internalType":"address","name":"newGovernor","type":"address"}],"name":"GovernorChanged","type":"event"},{"anonymous":false,"inputs":[{"indexed":false,"internalType":"address","name":"_addressToAdd","type":"address"}],"name":"PriceLevelTWAPQuoteAssetAdded","type":"event"},{"anonymous":false,"inputs":[{"indexed":false,"internalType":"address","name":"_addressToRemove","type":"address"}],"name":"PriceLevelTWAPQuoteAssetRemoved","type":"event"},{"anonymous":false,"inputs":[{"indexed":true,"internalType":"address","name":"oracle","type":"address"}],"name":"RelativeOracleUpdated","type":"event"},{"anonymous":false,"inputs":[{"indexed":false,"internalType":"address","name":"_addressToAdd","type":"address"}],"name":"TrustedSignerOracleAdded","type":"event"},{"anonymous":false,"inputs":[{"indexed":false,"internalType":"address","name":"_addressToRemove","type":"address"}],"name":"TrustedSignerOracleRemoved","type":"event"},{"anonymous":false,"inputs":[{"indexed":true,"internalType":"address","name":"oracle","type":"address"}],"name":"USDOracleUpdated","type":"event"},{"inputs":[],"name":"INITIAL_RELATIVE_EPSILON","outputs":[{"internalType":"uint256","name":"","type":"uint256"}],"stateMutability":"view","type":"function"},{"inputs":[],"name":"MAX_ABSOLUTE_WETH_DEVIATION","outputs":[{"internalType":"uint256","name":"","type":"uint256"}],"stateMutability":"view","type":"function"},{"inputs":[],"name":"MAX_RELATIVE_EPSILON","outputs":[{"internalType":"uint256","name":"","type":"uint256"}],"stateMutability":"view","type":"function"},{"inputs":[],"name":"acceptGovernance","outputs":[],"stateMutability":"nonpayable","type":"function"},{"inputs":[{"internalType":"address","name":"assetToAdd","type":"address"}],"name":"addAssetForRelativePriceCheck","outputs":[],"stateMutability":"nonpayable","type":"function"},{"inputs":[{"internalType":"address","name":"_quoteAssetToAdd","type":"address"}],"name":"addQuoteAssetsForPriceLevelTwap","outputs":[],"stateMutability":"nonpayable","type":"function"},{"inputs":[{"internalType":"address","name":"_signedAssetToAdd","type":"address"}],"name":"addSignedPriceSource","outputs":[],"stateMutability":"nonpayable","type":"function"},{"inputs":[{"internalType":"address","name":"newGovernor","type":"address"}],"name":"changeGovernor","outputs":[],"stateMutability":"nonpayable","type":"function"},{"inputs":[{"internalType":"address","name":"tokenAddress","type":"address"}],"name":"getPriceUSD","outputs":[{"internalType":"uint256","name":"","type":"uint256"}],"stateMutability":"view","type":"function"},{"inputs":[{"internalType":"address[]","name":"tokenAddresses","type":"address[]"}],"name":"getPricesUSD","outputs":[{"internalType":"uint256[]","name":"","type":"uint256[]"}],"stateMutability":"view","type":"function"},{"inputs":[{"internalType":"address[]","name":"tokenAddresses","type":"address[]"}],"name":"getPricesUSDWithMetadata","outputs":[{"internalType":"uint256[]","name":"","type":"uint256[]"},{"internalType":"uint256","name":"","type":"uint256"},{"internalType":"uint256[]","name":"","type":"uint256[]"},{"internalType":"uint256[]","name":"","type":"uint256[]"}],"stateMutability":"view","type":"function"},{"inputs":[{"internalType":"uint256[]","name":"signedPrices","type":"uint256[]"},{"internalType":"uint256[]","name":"twapPrices","type":"uint256[]"}],"name":"getRobustWETHPrice","outputs":[{"internalType":"uint256","name":"","type":"uint256"}],"stateMutability":"view","type":"function"},{"inputs":[],"name":"governor","outputs":[{"internalType":"address","name":"","type":"address"}],"stateMutability":"view","type":"function"},{"inputs":[],"name":"listAssetForRelativePriceCheck","outputs":[{"internalType":"address[]","name":"","type":"address[]"}],"stateMutability":"view","type":"function"},{"inputs":[],"name":"listQuoteAssetsForPriceLevelTwap","outputs":[{"internalType":"address[]","name":"","type":"address[]"}],"stateMutability":"view","type":"function"},{"inputs":[],"name":"listSignedPriceSource","outputs":[{"internalType":"address[]","name":"","type":"address[]"}],"stateMutability":"view","type":"function"},{"inputs":[],"name":"pendingGovernor","outputs":[{"internalType":"address","name":"","type":"address"}],"stateMutability":"view","type":"function"},{"inputs":[],"name":"relativeEpsilon","outputs":[{"internalType":"uint256","name":"","type":"uint256"}],"stateMutability":"view","type":"function"},{"inputs":[],"name":"relativeOracle","outputs":[{"internalType":"contract IRelativePriceOracle","name":"","type":"address"}],"stateMutability":"view","type":"function"},{"inputs":[{"internalType":"address","name":"assetToRemove","type":"address"}],"name":"removeAssetForRelativePriceCheck","outputs":[],"stateMutability":"nonpayable","type":"function"},{"inputs":[{"internalType":"address","name":"_quoteAssetToRemove","type":"address"}],"name":"removeQuoteAssetsForPriceLevelTwap","outputs":[],"stateMutability":"nonpayable","type":"function"},{"inputs":[{"internalType":"address","name":"_signedAssetToRemove","type":"address"}],"name":"removeSignedPriceSource","outputs":[],"stateMutability":"nonpayable","type":"function"},{"inputs":[{"internalType":"uint256","name":"_relativeEpsilon","type":"uint256"}],"name":"setRelativeMaxEpsilon","outputs":[],"stateMutability":"nonpayable","type":"function"},{"inputs":[{"internalType":"address","name":"_relativeOracle","type":"address"}],"name":"setRelativeOracle","outputs":[],"stateMutability":"nonpayable","type":"function"},{"inputs":[{"internalType":"address","name":"_usdOracle","type":"address"}],"name":"setUSDOracle","outputs":[],"stateMutability":"nonpayable","type":"function"},{"inputs":[],"name":"usdOracle","outputs":[{"internalType":"contract IUSDPriceOracle","name":"","type":"address"}],"stateMutability":"view","type":"function"},{"inputs":[],"name":"wethAddress","outputs":[{"internalType":"address","name":"","type":"address"}],"stateMutability":"view","type":"function"}],"bytecode":"60a06040523480156200001157600080fd5b50604051620024c8380380620024c8833981016040819052620000349162000182565b600080546001600160a01b0319166001600160a01b038616908117825560408051928352602083019190915285917fde4b3f61490b74c0ed6237523974fe299126bbbf8a8a7482fd220104c59b0c84910160405180910390a150604080518082019091526002815261333160f01b60208201526001600160a01b038416620000da5760405162461bcd60e51b8152600401620000d19190620001df565b60405180910390fd5b50604080518082019091526002815261333160f01b60208201526001600160a01b0383166200011e5760405162461bcd60e51b8152600401620000d19190620001df565b50600280546001600160a01b03199081166001600160a01b0395861617909155600380549091169284169290921790915566470de4df820000600455166080525062000237565b80516001600160a01b03811681146200017d57600080fd5b919050565b600080600080608085870312156200019957600080fd5b620001a48562000165565b9350620001b46020860162000165565b9250620001c46040860162000165565b9150620001d46060860162000165565b905092959194509250565b600060208083528351808285015260005b818110156200020e57858101830151858201604001528201620001f0565b8181111562000221576000604083870101525b50601f01601f1916929092016040019392505050565b6080516122526200027660003960008181610277015281816107ab0152818161084b015281816109540152818161141901526114ae01526122526000f3fe608060405234801561001057600080fd5b50600436106101a95760003560e01c80637cd8c1d0116100f9578063e181896011610097578063e4c0aaf411610071578063e4c0aaf414610390578063e4dd02c3146103a3578063e72a49d0146103b6578063e7f9e320146103c557600080fd5b8063e181896014610361578063e3056a341461036a578063e3a076211461037d57600080fd5b8063b55b3f1b116100d3578063b55b3f1b14610325578063c8a4271f14610333578063d8f4a0aa14610346578063e0dcd3c31461035957600080fd5b80637cd8c1d0146102ef578063a0b90f0014610302578063a7ed2a791461031557600080fd5b8063442aae791161016657806357ae33891161014057806357ae3389146102ac57806364b45090146102bf57806375ceebd0146102d4578063765aff1e146102e757600080fd5b8063442aae791461025f5780634f0e0ef3146102725780635708447d1461029957600080fd5b80630317ca7c146101ae5780630c340a24146101c3578063238efcbc146101f35780632af31283146101fb5780632e191ed71461021b5780633bb8c3bc1461023c575b600080fd5b6101c16101bc366004611cde565b6103d8565b005b6000546101d6906001600160a01b031681565b6040516001600160a01b0390911681526020015b60405180910390f35b6101c1610473565b61020e610209366004611d64565b61051c565b6040516101ea9190611e3c565b61022e610229366004611eb5565b610534565b6040519081526020016101ea565b61024f61024a366004611d64565b610653565b6040516101ea9493929190611f19565b6003546101d6906001600160a01b031681565b6101d67f000000000000000000000000000000000000000000000000000000000000000081565b61022e6102a7366004611cde565b610a17565b6101c16102ba366004611f58565b610aa1565b6102c7610b66565b6040516101ea9190611f71565b6101c16102e2366004611cde565b610b77565b6102c7610c02565b6101c16102fd366004611cde565b610c0e565b6101c1610310366004611cde565b610c99565b61022e6802b5e3af16b188000081565b61022e66470de4df82000081565b6002546101d6906001600160a01b031681565b6101c1610354366004611cde565b610d29565b6102c7610db4565b61022e60045481565b6001546101d6906001600160a01b031681565b6101c161038b366004611cde565b610dc0565b6101c161039e366004611cde565b610e4b565b6101c16103b1366004611cde565b610f20565b61022e67016345785d8a000081565b6101c16103d3366004611cde565b610fab565b600054604080518082019091526002815261033360f41b6020820152906001600160a01b031633146104265760405162461bcd60e51b815260040161041d9190611fbe565b60405180910390fd5b5061043260098261103b565b506040516001600160a01b03821681527f150f6605e7fc997b9ef5bed4e904eef6e3f887a080d2f7010632435b47f67adc906020015b60405180910390a150565b600154604080518082019091526002815261033360f41b6020820152906001600160a01b031633146104b85760405162461bcd60e51b815260040161041d9190611fbe565b5060008054600180546001600160a01b03198084166001600160a01b03808416919091179095551690556040805192909116808352336020840152917fde4b3f61490b74c0ed6237523974fe299126bbbf8a8a7482fd220104c59b0c849101610468565b6060600061052983610653565b509195945050505050565b6000808251600014156105525761054a84611057565b91505061064d565b61055b83611104565b905060008451600161056d9190612029565b67ffffffffffffffff81111561058557610585611cf9565b6040519080825280602002602001820160405280156105ae578160200160208202803683370190505b5090508181600183516105c19190612041565b815181106105d1576105d1612058565b60200260200101818152505060005b600182516105ee9190612041565b81101561063e5785818151811061060757610607612058565b602002602001015182828151811061062157610621612058565b6020908102919091010152806106368161206e565b9150506105e0565b5061064881611057565b925050505b92915050565b60606000606080600085511160405180604001604052806002815260200161333160f01b815250906106985760405162461bcd60e51b815260040161041d9190611fbe565b506000855167ffffffffffffffff8111156106b5576106b5611cf9565b6040519080825280602002602001820160405280156106de578160200160208202803683370190505b5090506000805b875181101561082b5760025488516001600160a01b0390911690635708447d908a908490811061071757610717612058565b60200260200101516040518263ffffffff1660e01b815260040161074a91906001600160a01b0391909116815260200190565b602060405180830381865afa158015610767573d6000803e3d6000fd5b505050506040513d601f19601f8201168201806040525081019061078b9190612089565b83828151811061079d5761079d612058565b6020026020010181815250507f00000000000000000000000000000000000000000000000000000000000000006001600160a01b03168882815181106107e5576107e5612058565b60200260200101516001600160a01b031614156108195782818151811061080e5761080e612058565b602002602001015191505b806108238161206e565b9150506106e5565b50806108c257600254604051635708447d60e01b81526001600160a01b037f00000000000000000000000000000000000000000000000000000000000000008116600483015290911690635708447d90602401602060405180830381865afa15801561089b573d6000803e3d6000fd5b505050506040513d601f19601f820116820180604052508101906108bf9190612089565b90505b60006108ce88846111fa565b905060006108dc600561169b565b905060008167ffffffffffffffff8111156108f9576108f9611cf9565b604051908082528060200260200182016040528015610922578160200160208202803683370190505b50905060005b828110156109fb57600061093d6005836116a5565b604051635708447d60e01b81526001600160a01b037f00000000000000000000000000000000000000000000000000000000000000008116600483015291925090821690635708447d90602401602060405180830381865afa1580156109a7573d6000803e3d6000fd5b505050506040513d601f19601f820116820180604052508101906109cb9190612089565b8383815181106109dd576109dd612058565b602090810291909101015250806109f38161206e565b915050610928565b50610a078482856116b1565b9399929850929650945092505050565b604080516001808252818301909252600091829190602080830190803683370190505090508281600081518110610a5057610a50612058565b60200260200101906001600160a01b031690816001600160a01b0316815250506000610a7b8261051c565b905080600081518110610a9057610a90612058565b602002602001015192505050919050565b600054604080518082019091526002815261033360f41b6020820152906001600160a01b03163314610ae65760405162461bcd60e51b815260040161041d9190611fbe565b50604080518082019091526002815261333160f01b602082015281610b1e5760405162461bcd60e51b815260040161041d9190611fbe565b50604080518082019091526002815261333160f01b602082015267016345785d8a00008210610b605760405162461bcd60e51b815260040161041d9190611fbe565b50600455565b6060610b72600561171b565b905090565b600054604080518082019091526002815261033360f41b6020820152906001600160a01b03163314610bbc5760405162461bcd60e51b815260040161041d9190611fbe565b50610bc860058261103b565b506040516001600160a01b03821681527fb7f10b8974f181778e2544b4188359b499da116029e96c6a05bed5cdecee106490602001610468565b6060610b72600961171b565b600054604080518082019091526002815261033360f41b6020820152906001600160a01b03163314610c535760405162461bcd60e51b815260040161041d9190611fbe565b50610c5f600982611728565b506040516001600160a01b03821681527fa67cac4de4567bfe36d7fa182b8455fd3e7d1b80c45191dd2b6dd5310a35306690602001610468565b600054604080518082019091526002815261033360f41b6020820152906001600160a01b03163314610cde5760405162461bcd60e51b815260040161041d9190611fbe565b50600280546001600160a01b0319166001600160a01b0383169081179091556040517f8bdf8e573e1e6b8aba457bd2a4fed210b28b0ed18344a7c4bb4bd1e87f6e1fb790600090a250565b600054604080518082019091526002815261033360f41b6020820152906001600160a01b03163314610d6e5760405162461bcd60e51b815260040161041d9190611fbe565b50610d7a600782611728565b506040516001600160a01b03821681527f612ac93ad02ac7669d13be8835bb33d5c6d42bb4c46f0cdb717681ebd2b6455790602001610468565b6060610b72600761171b565b600054604080518082019091526002815261033360f41b6020820152906001600160a01b03163314610e055760405162461bcd60e51b815260040161041d9190611fbe565b50610e11600582611728565b506040516001600160a01b03821681527f8696120fb7656955ec406c2959998de0aa9798518606d5afb5f36789f522dfea90602001610468565b600054604080518082019091526002815261033360f41b6020820152906001600160a01b03163314610e905760405162461bcd60e51b815260040161041d9190611fbe565b50604080518082019091526002815261333160f01b60208201526001600160a01b038216610ed15760405162461bcd60e51b815260040161041d9190611fbe565b50600180546001600160a01b0319166001600160a01b0383169081179091556040519081527f67235ba2e63c748a35b95c4f92a3bbc2a1389938170a5ce6c9add5d0b03a314a90602001610468565b600054604080518082019091526002815261033360f41b6020820152906001600160a01b03163314610f655760405162461bcd60e51b815260040161041d9190611fbe565b50610f7160078261103b565b506040516001600160a01b03821681527ffab625e04bc6eeef38aaf5c2e48b1f1953cf5183297f4115f0da9e906d4bf3ac90602001610468565b600054604080518082019091526002815261033360f41b6020820152906001600160a01b03163314610ff05760405162461bcd60e51b815260040161041d9190611fbe565b50600380546001600160a01b0319166001600160a01b0383169081179091556040517f99e4ac532391c2555b226b3d66f3d643e9256788b0c246834c1aaebfad90bd0190600090a250565b6000611050836001600160a01b03841661173d565b9392505050565b60006110628261178c565b506002825161107191906120b8565b156110a257816002835161108591906120cc565b8151811061109557611095612058565b602002602001015161064d565b61064d826001600285516110b691906120cc565b6110c09190612041565b815181106110d0576110d0612058565b602002602001015183600285516110e791906120cc565b815181106110f7576110f7612058565b60200260200101516117ab565b6000808260008151811061111a5761111a612058565b6020908102919091010151905060001960015b84518110156111cb578285828151811061114957611149612058565b6020026020010151101561117b5782915084818151811061116c5761116c612058565b602002602001015192506111b9565b8185828151811061118e5761118e612058565b602002602001015110156111b9578481815181106111ae576111ae612058565b602002602001015191505b806111c38161206e565b91505061112d565b508351600114156111e95783600081518110610a9057610a90612058565b835160021415611050575092915050565b60606000611208600761169b565b845161121491906120e0565b67ffffffffffffffff81111561122c5761122c611cf9565b604051908082528060200260200182016040528015611255578160200160208202803683370190505b5090506000805b85518110156115f5576000805b611273600961169b565b8110156115a85760006112876009836116a5565b9050806001600160a01b03168985815181106112a5576112a5612058565b60200260200101516001600160a01b03161480611364575060035489516001600160a01b0390911690639446994a908b90879081106112e6576112e6612058565b6020026020010151836040518363ffffffff1660e01b81526004016113219291906001600160a01b0392831681529116602082015260400190565b602060405180830381865afa15801561133e573d6000803e3d6000fd5b505050506040513d601f19601f8201168201806040525081019061136291906120ff565b155b1561136f5750611596565b60035489516000916001600160a01b031690639b56e6a7908c908890811061139957611399612058565b6020026020010151846040518363ffffffff1660e01b81526004016113d49291906001600160a01b0392831681529116602082015260400190565b602060405180830381865afa1580156113f1573d6000803e3d6000fd5b505050506040513d601f19601f820116820180604052508101906114159190612089565b90507f00000000000000000000000000000000000000000000000000000000000000006001600160a01b03168a868151811061145357611453612058565b60200260200101516001600160a01b031614801561147757506114776007836117c6565b156114ac578087878151811061148f5761148f612058565b6020908102919091010152856114a48161206e565b965050611557565b7f00000000000000000000000000000000000000000000000000000000000000006001600160a01b0316826001600160a01b031614801561151557506115158a86815181106114fd576114fd612058565b602002602001015160076117c690919063ffffffff16565b156115575761152c670de0b6b3a7640000826117e8565b87878151811061153e5761153e612058565b6020908102919091010152856115538161206e565b9650505b6000611564838c8c611850565b905061158a8a878151811061157b5761157b612058565b6020026020010151828461193b565b600194505050506115a8565b806115a08161206e565b915050611269565b50604080518082019091526002815261034360f41b6020820152816115e05760405162461bcd60e51b815260040161041d9190611fbe565b505080806115ed9061206e565b91505061125c565b5060008167ffffffffffffffff81111561161157611611611cf9565b60405190808252806020026020018201604052801561163a578160200160208202803683370190505b50905060005b828110156116915783818151811061165a5761165a612058565b602002602001015182828151811061167457611674612058565b6020908102919091010152806116898161206e565b915050611640565b5095945050505050565b600061064d825490565b600061105083836119ad565b60006116bd8383610534565b905060006116cb85836119d7565b90506802b5e3af16b188000081111560405180604001604052806002815260200161343560f01b815250906117135760405162461bcd60e51b815260040161041d9190611fbe565b505050505050565b60606000611050836119fa565b6000611050836001600160a01b038416611a56565b60008181526001830160205260408120546117845750815460018181018455600084815260208082209093018490558454848252828601909352604090209190915561064d565b50600061064d565b60606117a7826000600185516117a29190612041565b611b49565b5090565b60006117ba60028484186120cc565b61105090848416612029565b6001600160a01b03811660009081526001830160205260408120541515611050565b604080518082019091526002815261323560f01b6020820152600090826118225760405162461bcd60e51b815260040161041d9190611fbe565b50826118305750600061064d565b6000611844670de0b6b3a7640000856120e0565b905061054a83826120cc565b6000805b83518110156118c457846001600160a01b031684828151811061187957611879612058565b60200260200101516001600160a01b031614156118b2578281815181106118a2576118a2612058565b6020026020010151915050611050565b806118bc8161206e565b915050611854565b50600254604051635708447d60e01b81526001600160a01b03868116600483015290911690635708447d90602401602060405180830381865afa15801561190f573d6000803e3d6000fd5b505050506040513d601f19601f820116820180604052508101906119339190612089565b949350505050565b600061194784846117e8565b9050600061195583836119d7565b9050600061196382856117e8565b905060045481111560405180604001604052806002815260200161343160f01b815250906119a45760405162461bcd60e51b815260040161041d9190611fbe565b50505050505050565b60008260000182815481106119c4576119c4612058565b9060005260206000200154905092915050565b6000818310156119f0576119eb8383612041565b611050565b6110508284612041565b606081600001805480602002602001604051908101604052809291908181526020018280548015611a4a57602002820191906000526020600020905b815481526020019060010190808311611a36575b50505050509050919050565b60008181526001830160205260408120548015611b3f576000611a7a600183612041565b8554909150600090611a8e90600190612041565b9050818114611af3576000866000018281548110611aae57611aae612058565b9060005260206000200154905080876000018481548110611ad157611ad1612058565b6000918252602080832090910192909255918252600188019052604090208390555b8554869080611b0457611b04612121565b60019003818190600052602060002001600090559055856001016000868152602001908152602001600020600090556001935050505061064d565b600091505061064d565b818180821415611b5a575050505050565b6000856002611b698787612137565b611b739190612176565b611b7d90876121a4565b81518110611b8d57611b8d612058565b602002602001015190505b818313611c9c575b80868481518110611bb357611bb3612058565b60200260200101511015611bd35782611bcb816121e5565b935050611ba0565b858281518110611be557611be5612058565b6020026020010151811015611c065781611bfe816121fe565b925050611bd3565b818313611c9757858281518110611c1f57611c1f612058565b6020026020010151868481518110611c3957611c39612058565b6020026020010151878581518110611c5357611c53612058565b60200260200101888581518110611c6c57611c6c612058565b60209081029190910101919091525282611c85816121e5565b9350508180611c93906121fe565b9250505b611b98565b81851215611caf57611caf868684611b49565b8383121561171357611713868486611b49565b80356001600160a01b0381168114611cd957600080fd5b919050565b600060208284031215611cf057600080fd5b61105082611cc2565b634e487b7160e01b600052604160045260246000fd5b604051601f8201601f1916810167ffffffffffffffff81118282101715611d3857611d38611cf9565b604052919050565b600067ffffffffffffffff821115611d5a57611d5a611cf9565b5060051b60200190565b60006020808385031215611d7757600080fd5b823567ffffffffffffffff811115611d8e57600080fd5b8301601f81018513611d9f57600080fd5b8035611db2611dad82611d40565b611d0f565b81815260059190911b82018301908381019087831115611dd157600080fd5b928401925b82841015611df657611de784611cc2565b82529284019290840190611dd6565b979650505050505050565b600081518084526020808501945080840160005b83811015611e3157815187529582019590820190600101611e15565b509495945050505050565b6020815260006110506020830184611e01565b600082601f830112611e6057600080fd5b81356020611e70611dad83611d40565b82815260059290921b84018101918181019086841115611e8f57600080fd5b8286015b84811015611eaa5780358352918301918301611e93565b509695505050505050565b60008060408385031215611ec857600080fd5b823567ffffffffffffffff80821115611ee057600080fd5b611eec86838701611e4f565b93506020850135915080821115611f0257600080fd5b50611f0f85828601611e4f565b9150509250929050565b608081526000611f2c6080830187611e01565b8560208401528281036040840152611f448186611e01565b90508281036060840152611df68185611e01565b600060208284031215611f6a57600080fd5b5035919050565b6020808252825182820181905260009190848201906040850190845b81811015611fb25783516001600160a01b031683529284019291840191600101611f8d565b50909695505050505050565b600060208083528351808285015260005b81811015611feb57858101830151858201604001528201611fcf565b81811115611ffd576000604083870101525b50601f01601f1916929092016040019392505050565b634e487b7160e01b600052601160045260246000fd5b6000821982111561203c5761203c612013565b500190565b60008282101561205357612053612013565b500390565b634e487b7160e01b600052603260045260246000fd5b600060001982141561208257612082612013565b5060010190565b60006020828403121561209b57600080fd5b5051919050565b634e487b7160e01b600052601260045260246000fd5b6000826120c7576120c76120a2565b500690565b6000826120db576120db6120a2565b500490565b60008160001904831182151516156120fa576120fa612013565b500290565b60006020828403121561211157600080fd5b8151801515811461105057600080fd5b634e487b7160e01b600052603160045260246000fd5b60008083128015600160ff1b85018412161561215557612155612013565b6001600160ff1b038401831381161561217057612170612013565b50500390565b600082612185576121856120a2565b600160ff1b82146000198414161561219f5761219f612013565b500590565b600080821280156001600160ff1b03849003851316156121c6576121c6612013565b600160ff1b83900384128116156121df576121df612013565b50500190565b60006001600160ff1b0382141561208257612082612013565b6000600160ff1b82141561221457612214612013565b50600019019056fea2646970667358221220472b5bb4b89ad52b6ce1d075d649b054d3b0f1fd2f8c5c36b74ff555f89409aa64736f6c634300080a0033","bytecodeSha1":"94101f378ed54426610738c9e217588b730ae99e","compiler":{"evm_version":"london","optimizer":{"enabled":true,"runs":200},"version":"0.8.10+commit.fc410830"},"contractName":"CheckedPriceOracle","language":"Solidity","natspec":{"kind":"dev","methods":{"acceptGovernance()":{"notice":"Called by the pending governor to approve the change"},"changeGovernor(address)":{"notice":"Changes the governor can only be called by the current governor"},"constructor":{"notice":"_usdOracle is for Chainlink"},"getPriceUSD(address)":{"notice":"Quotes the USD price of `tokenAddress` The quoted price is always scaled with 18 decimals regardless of the source used for the oracle.","params":{"tokenAddress":"the asset of which the price is to be quoted"},"returns":{"_0":"the USD price of the asset"}},"getPricesUSD(address[])":{"notice":"Quotes the USD price of `baseAssets` The quoted prices is always scaled with 18 decimals regardless of the source used for the oracle.","params":{"baseAssets":"the assets of which the price is to be quoted"},"returns":{"_0":"the USD prices of the asset"}},"getRobustWETHPrice(uint256[],uint256[])":{"notice":"this function provides an estimate of the true WETH price. 1. Find the minimum TWAP price (or second minumum if >2 TWAP prices) from a given array. 2. Add this to an array of signed prices 3. Compute the median of this array","params":{"signedPrices":"an array of prices from trusted providers (e.g. Chainlink, Coinbase, OKEx ETH/USD price)","twapPrices":"an array of Time Weighted Moving Average ETH/stablecoin prices"}},"governor()":{"notice":"Returns the current governor"},"pendingGovernor()":{"notice":"Returns the pending governor"}},"stateVariables":{"assetsForRelativePriceCheck":{"details":"This list is used to check if the relative price of the tokens are consistent"}},"version":1},"opcodes":"PUSH1 0x80 PUSH1 0x40 MSTORE CALLVALUE DUP1 ISZERO PUSH2 0x10 JUMPI PUSH1 0x0 DUP1 REVERT JUMPDEST POP PUSH1 0x4 CALLDATASIZE LT PUSH2 0x1A9 JUMPI PUSH1 0x0 CALLDATALOAD PUSH1 0xE0 SHR DUP1 PUSH4 0x7CD8C1D0 GT PUSH2 0xF9 JUMPI DUP1 PUSH4 0xE1818960 GT PUSH2 0x97 JUMPI DUP1 PUSH4 0xE4C0AAF4 GT PUSH2 0x71 JUMPI DUP1 PUSH4 0xE4C0AAF4 EQ PUSH2 0x390 JUMPI DUP1 PUSH4 0xE4DD02C3 EQ PUSH2 0x3A3 JUMPI DUP1 PUSH4 0xE72A49D0 EQ PUSH2 0x3B6 JUMPI DUP1 PUSH4 0xE7F9E320 EQ PUSH2 0x3C5 JUMPI PUSH1 0x0 DUP1 REVERT JUMPDEST DUP1 PUSH4 0xE1818960 EQ PUSH2 0x361 JUMPI DUP1 PUSH4 0xE3056A34 EQ PUSH2 0x36A JUMPI DUP1 PUSH4 0xE3A07621 EQ PUSH2 0x37D JUMPI PUSH1 0x0 DUP1 REVERT JUMPDEST DUP1 PUSH4 0xB55B3F1B GT PUSH2 0xD3 JUMPI DUP1 PUSH4 0xB55B3F1B EQ PUSH2 0x325 JUMPI DUP1 PUSH4 0xC8A4271F EQ PUSH2 0x333 JUMPI DUP1 PUSH4 0xD8F4A0AA EQ PUSH2 0x346 JUMPI DUP1 PUSH4 0xE0DCD3C3 EQ PUSH2 0x359 JUMPI PUSH1 0x0 DUP1 REVERT JUMPDEST DUP1 PUSH4 0x7CD8C1D0 EQ PUSH2 0x2EF JUMPI DUP1 PUSH4 0xA0B90F00 EQ PUSH2 0x302 JUMPI DUP1 PUSH4 0xA7ED2A79 EQ PUSH2 0x315 JUMPI PUSH1 0x0 DUP1 REVERT JUMPDEST DUP1 PUSH4 0x442AAE79 GT PUSH2 0x166 JUMPI DUP1 PUSH4 0x57AE3389 GT PUSH2 0x140 JUMPI DUP1 PUSH4 0x57AE3389 EQ PUSH2 0x2AC JUMPI DUP1 PUSH4 0x64B45090 EQ PUSH2 0x2BF JUMPI DUP1 PUSH4 0x75CEEBD0 EQ PUSH2 0x2D4 JUMPI DUP1 PUSH4 0x765AFF1E EQ PUSH2 0x2E7 JUMPI PUSH1 0x0 DUP1 REVERT JUMPDEST DUP1 PUSH4 0x442AAE79 EQ PUSH2 0x25F JUMPI DUP1 PUSH4 0x4F0E0EF3 EQ PUSH2 0x272 JUMPI DUP1 PUSH4 0x5708447D EQ PUSH2 0x299 JUMPI PUSH1 0x0 DUP1 REVERT JUMPDEST DUP1 PUSH4 0x317CA7C EQ PUSH2 0x1AE JUMPI DUP1 PUSH4 0xC340A24 EQ PUSH2 0x1C3 JUMPI DUP1 PUSH4 0x238EFCBC EQ PUSH2 0x1F3 JUMPI DUP1 PUSH4 0x2AF31283 EQ PUSH2 0x1FB JUMPI DUP1 PUSH4 0x2E191ED7 EQ PUSH2 0x21B JUMPI DUP1 PUSH4 0x3BB8C3BC EQ PUSH2 0x23C JUMPI JUMPDEST PUSH1 0x0 DUP1 REVERT JUMPDEST PUSH2 0x1C1 PUSH2 0x1BC CALLDATASIZE PUSH1 0x4 PUSH2 0x1CDE JUMP JUMPDEST PUSH2 0x3D8 JUMP JUMPDEST STOP JUMPDEST PUSH1 0x0 SLOAD PUSH2 0x1D6 SWAP1 PUSH1 0x1 PUSH1 0x1 PUSH1 0xA0 SHL SUB AND DUP2 JUMP JUMPDEST PUSH1 0x40 MLOAD PUSH1 0x1 PUSH1 0x1 PUSH1 0xA0 SHL SUB SWAP1 SWAP2 AND DUP2 MSTORE PUSH1 0x20 ADD JUMPDEST PUSH1 0x40 MLOAD DUP1 SWAP2 SUB SWAP1 RETURN JUMPDEST PUSH2 0x1C1 PUSH2 0x473 JUMP JUMPDEST PUSH2 0x20E PUSH2 0x209 CALLDATASIZE PUSH1 0x4 PUSH2 0x1D64 JUMP JUMPDEST PUSH2 0x51C JUMP JUMPDEST PUSH1 0x40 MLOAD PUSH2 0x1EA SWAP2 SWAP1 PUSH2 0x1E3C JUMP JUMPDEST PUSH2 0x22E PUSH2 0x229 CALLDATASIZE PUSH1 0x4 PUSH2 0x1EB5 JUMP JUMPDEST PUSH2 0x534 JUMP JUMPDEST PUSH1 0x40 MLOAD SWAP1 DUP2 MSTORE PUSH1 0x20 ADD PUSH2 0x1EA JUMP JUMPDEST PUSH2 0x24F PUSH2 0x24A CALLDATASIZE PUSH1 0x4 PUSH2 0x1D64 JUMP JUMPDEST PUSH2 0x653 JUMP JUMPDEST PUSH1 0x40 MLOAD PUSH2 0x1EA SWAP5 SWAP4 SWAP3 SWAP2 SWAP1 PUSH2 0x1F19 JUMP JUMPDEST PUSH1 0x3 SLOAD PUSH2 0x1D6 SWAP1 PUSH1 0x1 PUSH1 0x1 PUSH1 0xA0 SHL SUB AND DUP2 JUMP JUMPDEST PUSH2 0x1D6 PUSH32 0x0 DUP2 JUMP JUMPDEST PUSH2 0x22E PUSH2 0x2A7 CALLDATASIZE PUSH1 0x4 PUSH2 0x1CDE JUMP JUMPDEST PUSH2 0xA17 JUMP JUMPDEST PUSH2 0x1C1 PUSH2 0x2BA CALLDATASIZE PUSH1 0x4 PUSH2 0x1F58 JUMP JUMPDEST PUSH2 0xAA1 JUMP JUMPDEST PUSH2 0x2C7 PUSH2 0xB66 JUMP JUMPDEST PUSH1 0x40 MLOAD PUSH2 0x1EA SWAP2 SWAP1 PUSH2 0x1F71 JUMP JUMPDEST PUSH2 0x1C1 PUSH2 0x2E2 CALLDATASIZE PUSH1 0x4 PUSH2 0x1CDE JUMP JUMPDEST PUSH2 0xB77 JUMP JUMPDEST PUSH2 0x2C7 PUSH2 0xC02 JUMP JUMPDEST PUSH2 0x1C1 PUSH2 0x2FD CALLDATASIZE PUSH1 0x4 PUSH2 0x1CDE JUMP JUMPDEST PUSH2 0xC0E JUMP JUMPDEST PUSH2 0x1C1 PUSH2 0x310 CALLDATASIZE PUSH1 0x4 PUSH2 0x1CDE JUMP JUMPDEST PUSH2 0xC99 JUMP JUMPDEST PUSH2 0x22E PUSH9 0x2B5E3AF16B1880000 DUP2 JUMP JUMPDEST PUSH2 0x22E PUSH7 0x470DE4DF820000 DUP2 JUMP JUMPDEST PUSH1 0x2 SLOAD PUSH2 0x1D6 SWAP1 PUSH1 0x1 PUSH1 0x1 PUSH1 0xA0 SHL SUB AND DUP2 JUMP JUMPDEST PUSH2 0x1C1 PUSH2 0x354 CALLDATASIZE PUSH1 0x4 PUSH2 0x1CDE JUMP JUMPDEST PUSH2 0xD29 JUMP JUMPDEST PUSH2 0x2C7 PUSH2 0xDB4 JUMP JUMPDEST PUSH2 0x22E PUSH1 0x4 SLOAD DUP2 JUMP JUMPDEST PUSH1 0x1 SLOAD PUSH2 0x1D6 SWAP1 PUSH1 0x1 PUSH1 0x1 PUSH1 0xA0 SHL SUB AND DUP2 JUMP JUMPDEST PUSH2 0x1C1 PUSH2 0x38B CALLDATASIZE PUSH1 0x4 PUSH2 0x1CDE JUMP JUMPDEST PUSH2 0xDC0 JUMP JUMPDEST PUSH2 0x1C1 PUSH2 0x39E CALLDATASIZE PUSH1 0x4 PUSH2 0x1CDE JUMP JUMPDEST PUSH2 0xE4B JUMP JUMPDEST PUSH2 0x1C1 PUSH2 0x3B1 CALLDATASIZE PUSH1 0x4 PUSH2 0x1CDE JUMP JUMPDEST PUSH2 0xF20 JUMP JUMPDEST PUSH2 0x22E PUSH8 0x16345785D8A0000 DUP2 JUMP JUMPDEST PUSH2 0x1C1 PUSH2 0x3D3 CALLDATASIZE PUSH1 0x4 PUSH2 0x1CDE JUMP JUMPDEST PUSH2 0xFAB JUMP JUMPDEST PUSH1 0x0 SLOAD PUSH1 0x40 DUP1 MLOAD DUP1 DUP3 ADD SWAP1 SWAP2 MSTORE PUSH1 0x2 DUP2 MSTORE PUSH2 0x333 PUSH1 0xF4 SHL PUSH1 0x20 DUP3 ADD MSTORE SWAP1 PUSH1 0x1 PUSH1 0x1 PUSH1 0xA0 SHL SUB AND CALLER EQ PUSH2 0x426 JUMPI PUSH1 0x40 MLOAD PUSH3 0x461BCD PUSH1 0xE5 SHL DUP2 MSTORE PUSH1 0x4 ADD PUSH2 0x41D SWAP2 SWAP1 PUSH2 0x1FBE JUMP JUMPDEST PUSH1 0x40 MLOAD DUP1 SWAP2 SUB SWAP1 REVERT JUMPDEST POP PUSH2 0x432 PUSH1 0x9 DUP3 PUSH2 0x103B JUMP JUMPDEST POP PUSH1 0x40 MLOAD PUSH1 0x1 PUSH1 0x1 PUSH1 0xA0 SHL SUB DUP3 AND DUP2 MSTORE PUSH32 0x150F6605E7FC997B9EF5BED4E904EEF6E3F887A080D2F7010632435B47F67ADC SWAP1 PUSH1 0x20 ADD JUMPDEST PUSH1 0x40 MLOAD DUP1 SWAP2 SUB SWAP1 LOG1 POP JUMP JUMPDEST PUSH1 0x1 SLOAD PUSH1 0x40 DUP1 MLOAD DUP1 DUP3 ADD SWAP1 SWAP2 MSTORE PUSH1 0x2 DUP2 MSTORE PUSH2 0x333 PUSH1 0xF4 SHL PUSH1 0x20 DUP3 ADD MSTORE SWAP1 PUSH1 0x1 PUSH1 0x1 PUSH1 0xA0 SHL SUB AND CALLER EQ PUSH2 0x4B8 JUMPI PUSH1 0x40 MLOAD PUSH3 0x461BCD PUSH1 0xE5 SHL DUP2 MSTORE PUSH1 0x4 ADD PUSH2 0x41D SWAP2 SWAP1 PUSH2 0x1FBE JUMP JUMPDEST POP PUSH1 0x0 DUP1 SLOAD PUSH1 0x1 DUP1 SLOAD PUSH1 0x1 PUSH1 0x1 PUSH1 0xA0 SHL SUB NOT DUP1 DUP5 AND PUSH1 0x1 PUSH1 0x1 PUSH1 0xA0 SHL SUB DUP1 DUP5 AND SWAP2 SWAP1 SWAP2 OR SWAP1 SWAP6 SSTORE AND SWAP1 SSTORE PUSH1 0x40 DUP1 MLOAD SWAP3 SWAP1 SWAP2 AND DUP1 DUP4 MSTORE CALLER PUSH1 0x20 DUP5 ADD MSTORE SWAP2 PUSH32 0xDE4B3F61490B74C0ED6237523974FE299126BBBF8A8A7482FD220104C59B0C84 SWAP2 ADD PUSH2 0x468 JUMP JUMPDEST PUSH1 0x60 PUSH1 0x0 PUSH2 0x529 DUP4 PUSH2 0x653 JUMP JUMPDEST POP SWAP2 SWAP6 SWAP5 POP POP POP POP POP JUMP JUMPDEST PUSH1 0x0 DUP1 DUP3 MLOAD PUSH1 0x0 EQ ISZERO PUSH2 0x552 JUMPI PUSH2 0x54A DUP5 PUSH2 0x1057 JUMP JUMPDEST SWAP2 POP POP PUSH2 0x64D JUMP JUMPDEST PUSH2 0x55B DUP4 PUSH2 0x1104 JUMP JUMPDEST SWAP1 POP PUSH1 0x0 DUP5 MLOAD PUSH1 0x1 PUSH2 0x56D SWAP2 SWAP1 PUSH2 0x2029 JUMP JUMPDEST PUSH8 0xFFFFFFFFFFFFFFFF DUP2 GT ISZERO PUSH2 0x585 JUMPI PUSH2 0x585 PUSH2 0x1CF9 JUMP JUMPDEST PUSH1 0x40 MLOAD SWAP1 DUP1 DUP3 MSTORE DUP1 PUSH1 0x20 MUL PUSH1 0x20 ADD DUP3 ADD PUSH1 0x40 MSTORE DUP1 ISZERO PUSH2 0x5AE JUMPI DUP2 PUSH1 0x20 ADD PUSH1 0x20 DUP3 MUL DUP1 CALLDATASIZE DUP4 CALLDATACOPY ADD SWAP1 POP JUMPDEST POP SWAP1 POP DUP2 DUP2 PUSH1 0x1 DUP4 MLOAD PUSH2 0x5C1 SWAP2 SWAP1 PUSH2 0x2041 JUMP JUMPDEST DUP2 MLOAD DUP2 LT PUSH2 0x5D1 JUMPI PUSH2 0x5D1 PUSH2 0x2058 JUMP JUMPDEST PUSH1 0x20 MUL PUSH1 0x20 ADD ADD DUP2 DUP2 MSTORE POP POP PUSH1 0x0 JUMPDEST PUSH1 0x1 DUP3 MLOAD PUSH2 0x5EE SWAP2 SWAP1 PUSH2 0x2041 JUMP JUMPDEST DUP2 LT ISZERO PUSH2 0x63E JUMPI DUP6 DUP2 DUP2 MLOAD DUP2 LT PUSH2 0x607 JUMPI PUSH2 0x607 PUSH2 0x2058 JUMP JUMPDEST PUSH1 0x20 MUL PUSH1 0x20 ADD ADD MLOAD DUP3 DUP3 DUP2 MLOAD DUP2 LT PUSH2 0x621 JUMPI PUSH2 0x621 PUSH2 0x2058 JUMP JUMPDEST PUSH1 0x20 SWAP1 DUP2 MUL SWAP2 SWAP1 SWAP2 ADD ADD MSTORE DUP1 PUSH2 0x636 DUP2 PUSH2 0x206E JUMP JUMPDEST SWAP2 POP POP PUSH2 0x5E0 JUMP JUMPDEST POP PUSH2 0x648 DUP2 PUSH2 0x1057 JUMP JUMPDEST SWAP3 POP POP POP JUMPDEST SWAP3 SWAP2 POP POP JUMP JUMPDEST PUSH1 0x60 PUSH1 0x0 PUSH1 0x60 DUP1 PUSH1 0x0 DUP6 MLOAD GT PUSH1 0x40 MLOAD DUP1 PUSH1 0x40 ADD PUSH1 0x40 MSTORE DUP1 PUSH1 0x2 DUP2 MSTORE PUSH1 0x20 ADD PUSH2 0x3331 PUSH1 0xF0 SHL DUP2 MSTORE POP SWAP1 PUSH2 0x698 JUMPI PUSH1 0x40 MLOAD PUSH3 0x461BCD PUSH1 0xE5 SHL DUP2 MSTORE PUSH1 0x4 ADD PUSH2 0x41D SWAP2 SWAP1 PUSH2 0x1FBE JUMP JUMPDEST POP PUSH1 0x0 DUP6 MLOAD PUSH8 0xFFFFFFFFFFFFFFFF DUP2 GT ISZERO PUSH2 0x6B5 JUMPI PUSH2 0x6B5 PUSH2 0x1CF9 JUMP JUMPDEST PUSH1 0x40 MLOAD SWAP1 DUP1 DUP3 MSTORE DUP1 PUSH1 0x20 MUL PUSH1 0x20 ADD DUP3 ADD PUSH1 0x40 MSTORE DUP1 ISZERO PUSH2 0x6DE JUMPI DUP2 PUSH1 0x20 ADD PUSH1 0x20 DUP3 MUL DUP1 CALLDATASIZE DUP4 CALLDATACOPY ADD SWAP1 POP JUMPDEST POP SWAP1 POP PUSH1 0x0 DUP1 JUMPDEST DUP8 MLOAD DUP2 LT ISZERO PUSH2 0x82B JUMPI PUSH1 0x2 SLOAD DUP9 MLOAD PUSH1 0x1 PUSH1 0x1 PUSH1 0xA0 SHL SUB SWAP1 SWAP2 AND SWAP1 PUSH4 0x5708447D SWAP1 DUP11 SWAP1 DUP5 SWAP1 DUP2 LT PUSH2 0x717 JUMPI PUSH2 0x717 PUSH2 0x2058 JUMP JUMPDEST PUSH1 0x20 MUL PUSH1 0x20 ADD ADD MLOAD PUSH1 0x40 MLOAD DUP3 PUSH4 0xFFFFFFFF AND PUSH1 0xE0 SHL DUP2 MSTORE PUSH1 0x4 ADD PUSH2 0x74A SWAP2 SWAP1 PUSH1 0x1 PUSH1 0x1 PUSH1 0xA0 SHL SUB SWAP2 SWAP1 SWAP2 AND DUP2 MSTORE PUSH1 0x20 ADD SWAP1 JUMP JUMPDEST PUSH1 0x20 PUSH1 0x40 MLOAD DUP1 DUP4 SUB DUP2 DUP7 GAS STATICCALL ISZERO DUP1 ISZERO PUSH2 0x767 JUMPI RETURNDATASIZE PUSH1 0x0 DUP1 RETURNDATACOPY RETURNDATASIZE PUSH1 0x0 REVERT JUMPDEST POP POP POP POP PUSH1 0x40 MLOAD RETURNDATASIZE PUSH1 0x1F NOT PUSH1 0x1F DUP3 ADD AND DUP3 ADD DUP1 PUSH1 0x40 MSTORE POP DUP2 ADD SWAP1 PUSH2 0x78B SWAP2 SWAP1 PUSH2 0x2089 JUMP JUMPDEST DUP4 DUP3 DUP2 MLOAD DUP2 LT PUSH2 0x79D JUMPI PUSH2 0x79D PUSH2 0x2058 JUMP JUMPDEST PUSH1 0x20 MUL PUSH1 0x20 ADD ADD DUP2 DUP2 MSTORE POP POP PUSH32 0x0 PUSH1 0x1 PUSH1 0x1 PUSH1 0xA0 SHL SUB AND DUP9 DUP3 DUP2 MLOAD DUP2 LT PUSH2 0x7E5 JUMPI PUSH2 0x7E5 PUSH2 0x2058 JUMP JUMPDEST PUSH1 0x20 MUL PUSH1 0x20 ADD ADD MLOAD PUSH1 0x1 PUSH1 0x1 PUSH1 0xA0 SHL SUB AND EQ ISZERO PUSH2 0x819 JUMPI DUP3 DUP2 DUP2 MLOAD DUP2 LT PUSH2 0x80E JUMPI PUSH2 0x80E PUSH2 0x2058 JUMP JUMPDEST PUSH1 0x20 MUL PUSH1 0x20 ADD ADD MLOAD SWAP2 POP JUMPDEST DUP1 PUSH2 0x823 DUP2 PUSH2 0x206E JUMP JUMPDEST SWAP2 POP POP PUSH2 0x6E5 JUMP JUMPDEST POP DUP1 PUSH2 0x8C2 JUMPI PUSH1 0x2 SLOAD PUSH1 0x40 MLOAD PUSH4 0x5708447D PUSH1 0xE0 SHL DUP2 MSTORE PUSH1 0x1 PUSH1 0x1 PUSH1 0xA0 SHL SUB PUSH32 0x0 DUP2 AND PUSH1 0x4 DUP4 ADD MSTORE SWAP1 SWAP2 AND SWAP1 PUSH4 0x5708447D SWAP1 PUSH1 0x24 ADD PUSH1 0x20 PUSH1 0x40 MLOAD DUP1 DUP4 SUB DUP2 DUP7 GAS STATICCALL ISZERO DUP1 ISZERO PUSH2 0x89B JUMPI RETURNDATASIZE PUSH1 0x0 DUP1 RETURNDATACOPY RETURNDATASIZE PUSH1 0x0 REVERT JUMPDEST POP POP POP POP PUSH1 0x40 MLOAD RETURNDATASIZE PUSH1 0x1F NOT PUSH1 0x1F DUP3 ADD AND DUP3 ADD DUP1 PUSH1 0x40 MSTORE POP DUP2 ADD SWAP1 PUSH2 0x8BF SWAP2 SWAP1 PUSH2 0x2089 JUMP JUMPDEST SWAP1 POP JUMPDEST PUSH1 0x0 PUSH2 0x8CE DUP9 DUP5 PUSH2 0x11FA JUMP JUMPDEST SWAP1 POP PUSH1 0x0 PUSH2 0x8DC PUSH1 0x5 PUSH2 0x169B JUMP JUMPDEST SWAP1 POP PUSH1 0x0 DUP2 PUSH8 0xFFFFFFFFFFFFFFFF DUP2 GT ISZERO PUSH2 0x8F9 JUMPI PUSH2 0x8F9 PUSH2 0x1CF9 JUMP JUMPDEST PUSH1 0x40 MLOAD SWAP1 DUP1 DUP3 MSTORE DUP1 PUSH1 0x20 MUL PUSH1 0x20 ADD DUP3 ADD PUSH1 0x40 MSTORE DUP1 ISZERO PUSH2 0x922 JUMPI DUP2 PUSH1 0x20 ADD PUSH1 0x20 DUP3 MUL DUP1 CALLDATASIZE DUP4 CALLDATACOPY ADD SWAP1 POP JUMPDEST POP SWAP1 POP PUSH1 0x0 JUMPDEST DUP3 DUP2 LT ISZERO PUSH2 0x9FB JUMPI PUSH1 0x0 PUSH2 0x93D PUSH1 0x5 DUP4 PUSH2 0x16A5 JUMP JUMPDEST PUSH1 0x40 MLOAD PUSH4 0x5708447D PUSH1 0xE0 SHL DUP2 MSTORE PUSH1 0x1 PUSH1 0x1 PUSH1 0xA0 SHL SUB PUSH32 0x0 DUP2 AND PUSH1 0x4 DUP4 ADD MSTORE SWAP2 SWAP3 POP SWAP1 DUP3 AND SWAP1 PUSH4 0x5708447D SWAP1 PUSH1 0x24 ADD PUSH1 0x20 PUSH1 0x40 MLOAD DUP1 DUP4 SUB DUP2 DUP7 GAS STATICCALL ISZERO DUP1 ISZERO PUSH2 0x9A7 JUMPI RETURNDATASIZE PUSH1 0x0 DUP1 RETURNDATACOPY RETURNDATASIZE PUSH1 0x0 REVERT JUMPDEST POP POP POP POP PUSH1 0x40 MLOAD RETURNDATASIZE PUSH1 0x1F NOT PUSH1 0x1F DUP3 ADD AND DUP3 ADD DUP1 PUSH1 0x40 MSTORE POP DUP2 ADD SWAP1 PUSH2 0x9CB SWAP2 SWAP1 PUSH2 0x2089 JUMP JUMPDEST DUP4 DUP4 DUP2 MLOAD DUP2 LT PUSH2 0x9DD JUMPI PUSH2 0x9DD PUSH2 0x2058 JUMP JUMPDEST PUSH1 0x20 SWAP1 DUP2 MUL SWAP2 SWAP1 SWAP2 ADD ADD MSTORE POP DUP1 PUSH2 0x9F3 DUP2 PUSH2 0x206E JUMP JUMPDEST SWAP2 POP POP PUSH2 0x928 JUMP JUMPDEST POP PUSH2 0xA07 DUP5 DUP3 DUP6 PUSH2 0x16B1 JUMP JUMPDEST SWAP4 SWAP10 SWAP3 SWAP9 POP SWAP3 SWAP7 POP SWAP5 POP SWAP3 POP POP POP JUMP JUMPDEST PUSH1 0x40 DUP1 MLOAD PUSH1 0x1 DUP1 DUP3 MSTORE DUP2 DUP4 ADD SWAP1 SWAP3 MSTORE PUSH1 0x0 SWAP2 DUP3 SWAP2 SWAP1 PUSH1 0x20 DUP1 DUP4 ADD SWAP1 DUP1 CALLDATASIZE DUP4 CALLDATACOPY ADD SWAP1 POP POP SWAP1 POP DUP3 DUP2 PUSH1 0x0 DUP2 MLOAD DUP2 LT PUSH2 0xA50 JUMPI PUSH2 0xA50 PUSH2 0x2058 JUMP JUMPDEST PUSH1 0x20 MUL PUSH1 0x20 ADD ADD SWAP1 PUSH1 0x1 PUSH1 0x1 PUSH1 0xA0 SHL SUB AND SWAP1 DUP2 PUSH1 0x1 PUSH1 0x1 PUSH1 0xA0 SHL SUB AND DUP2 MSTORE POP POP PUSH1 0x0 PUSH2 0xA7B DUP3 PUSH2 0x51C JUMP JUMPDEST SWAP1 POP DUP1 PUSH1 0x0 DUP2 MLOAD DUP2 LT PUSH2 0xA90 JUMPI PUSH2 0xA90 PUSH2 0x2058 JUMP JUMPDEST PUSH1 0x20 MUL PUSH1 0x20 ADD ADD MLOAD SWAP3 POP POP POP SWAP2 SWAP1 POP JUMP JUMPDEST PUSH1 0x0 SLOAD PUSH1 0x40 DUP1 MLOAD DUP1 DUP3 ADD SWAP1 SWAP2 MSTORE PUSH1 0x2 DUP2 MSTORE PUSH2 0x333 PUSH1 0xF4 SHL PUSH1 0x20 DUP3 ADD MSTORE SWAP1 PUSH1 0x1 PUSH1 0x1 PUSH1 0xA0 SHL SUB AND CALLER EQ PUSH2 0xAE6 JUMPI PUSH1 0x40 MLOAD PUSH3 0x461BCD PUSH1 0xE5 SHL DUP2 MSTORE PUSH1 0x4 ADD PUSH2 0x41D SWAP2 SWAP1 PUSH2 0x1FBE JUMP JUMPDEST POP PUSH1 0x40 DUP1 MLOAD DUP1 DUP3 ADD SWAP1 SWAP2 MSTORE PUSH1 0x2 DUP2 MSTORE PUSH2 0x3331 PUSH1 0xF0 SHL PUSH1 0x20 DUP3 ADD MSTORE DUP2 PUSH2 0xB1E JUMPI PUSH1 0x40 MLOAD PUSH3 0x461BCD PUSH1 0xE5 SHL DUP2 MSTORE PUSH1 0x4 ADD PUSH2 0x41D SWAP2 SWAP1 PUSH2 0x1FBE JUMP JUMPDEST POP PUSH1 0x40 DUP1 MLOAD DUP1 DUP3 ADD SWAP1 SWAP2 MSTORE PUSH1 0x2 DUP2 MSTORE PUSH2 0x3331 PUSH1 0xF0 SHL PUSH1 0x20 DUP3 ADD MSTORE PUSH8 0x16345785D8A0000 DUP3 LT PUSH2 0xB60 JUMPI PUSH1 0x40 MLOAD PUSH3 0x461BCD PUSH1 0xE5 SHL DUP2 MSTORE PUSH1 0x4 ADD PUSH2 0x41D SWAP2 SWAP1 PUSH2 0x1FBE JUMP JUMPDEST POP PUSH1 0x4 SSTORE JUMP JUMPDEST PUSH1 0x60 PUSH2 0xB72 PUSH1 0x5 PUSH2 0x171B JUMP JUMPDEST SWAP1 POP SWAP1 JUMP JUMPDEST PUSH1 0x0 SLOAD PUSH1 0x40 DUP1 MLOAD DUP1 DUP3 ADD SWAP1 SWAP2 MSTORE PUSH1 0x2 DUP2 MSTORE PUSH2 0x333 PUSH1 0xF4 SHL PUSH1 0x20 DUP3 ADD MSTORE SWAP1 PUSH1 0x1 PUSH1 0x1 PUSH1 0xA0 SHL SUB AND CALLER EQ PUSH2 0xBBC JUMPI PUSH1 0x40 MLOAD PUSH3 0x461BCD PUSH1 0xE5 SHL DUP2 MSTORE PUSH1 0x4 ADD PUSH2 0x41D SWAP2 SWAP1 PUSH2 0x1FBE JUMP JUMPDEST POP PUSH2 0xBC8 PUSH1 0x5 DUP3 PUSH2 0x103B JUMP JUMPDEST POP PUSH1 0x40 MLOAD PUSH1 0x1 PUSH1 0x1 PUSH1 0xA0 SHL SUB DUP3 AND DUP2 MSTORE PUSH32 0xB7F10B8974F181778E2544B4188359B499DA116029E96C6A05BED5CDECEE1064 SWAP1 PUSH1 0x20 ADD PUSH2 0x468 JUMP JUMPDEST PUSH1 0x60 PUSH2 0xB72 PUSH1 0x9 PUSH2 0x171B JUMP JUMPDEST PUSH1 0x0 SLOAD PUSH1 0x40 DUP1 MLOAD DUP1 DUP3 ADD SWAP1 SWAP2 MSTORE PUSH1 0x2 DUP2 MSTORE PUSH2 0x333 PUSH1 0xF4 SHL PUSH1 0x20 DUP3 ADD MSTORE SWAP1 PUSH1 0x1 PUSH1 0x1 PUSH1 0xA0 SHL SUB AND CALLER EQ PUSH2 0xC53 JUMPI PUSH1 0x40 MLOAD PUSH3 0x461BCD PUSH1 0xE5 SHL DUP2 MSTORE PUSH1 0x4 ADD PUSH2 0x41D SWAP2 SWAP1 PUSH2 0x1FBE JUMP JUMPDEST POP PUSH2 0xC5F PUSH1 0x9 DUP3 PUSH2 0x1728 JUMP JUMPDEST POP PUSH1 0x40 MLOAD PUSH1 0x1 PUSH1 0x1 PUSH1 0xA0 SHL SUB DUP3 AND DUP2 MSTORE PUSH32 0xA67CAC4DE4567BFE36D7FA182B8455FD3E7D1B80C45191DD2B6DD5310A353066 SWAP1 PUSH1 0x20 ADD PUSH2 0x468 JUMP JUMPDEST PUSH1 0x0 SLOAD PUSH1 0x40 DUP1 MLOAD DUP1 DUP3 ADD SWAP1 SWAP2 MSTORE PUSH1 0x2 DUP2 MSTORE PUSH2 0x333 PUSH1 0xF4 SHL PUSH1 0x20 DUP3 ADD MSTORE SWAP1 PUSH1 0x1 PUSH1 0x1 PUSH1 0xA0 SHL SUB AND CALLER EQ PUSH2 0xCDE JUMPI PUSH1 0x40 MLOAD PUSH3 0x461BCD PUSH1 0xE5 SHL DUP2 MSTORE PUSH1 0x4 ADD PUSH2 0x41D SWAP2 SWAP1 PUSH2 0x1FBE JUMP JUMPDEST POP PUSH1 0x2 DUP1 SLOAD PUSH1 0x1 PUSH1 0x1 PUSH1 0xA0 SHL SUB NOT AND PUSH1 0x1 PUSH1 0x1 PUSH1 0xA0 SHL SUB DUP4 AND SWAP1 DUP2 OR SWAP1 SWAP2 SSTORE PUSH1 0x40 MLOAD PUSH32 0x8BDF8E573E1E6B8ABA457BD2A4FED210B28B0ED18344A7C4BB4BD1E87F6E1FB7 SWAP1 PUSH1 0x0 SWAP1 LOG2 POP JUMP JUMPDEST PUSH1 0x0 SLOAD PUSH1 0x40 DUP1 MLOAD DUP1 DUP3 ADD SWAP1 SWAP2 MSTORE PUSH1 0x2 DUP2 MSTORE PUSH2 0x333 PUSH1 0xF4 SHL PUSH1 0x20 DUP3 ADD MSTORE SWAP1 PUSH1 0x1 PUSH1 0x1 PUSH1 0xA0 SHL SUB AND CALLER EQ PUSH2 0xD6E JUMPI PUSH1 0x40 MLOAD PUSH3 0x461BCD PUSH1 0xE5 SHL DUP2 MSTORE PUSH1 0x4 ADD PUSH2 0x41D SWAP2 SWAP1 PUSH2 0x1FBE JUMP JUMPDEST POP PUSH2 0xD7A PUSH1 0x7 DUP3 PUSH2 0x1728 JUMP JUMPDEST POP PUSH1 0x40 MLOAD PUSH1 0x1 PUSH1 0x1 PUSH1 0xA0 SHL SUB DUP3 AND DUP2 MSTORE PUSH32 0x612AC93AD02AC7669D13BE8835BB33D5C6D42BB4C46F0CDB717681EBD2B64557 SWAP1 PUSH1 0x20 ADD PUSH2 0x468 JUMP JUMPDEST PUSH1 0x60 PUSH2 0xB72 PUSH1 0x7 PUSH2 0x171B JUMP JUMPDEST PUSH1 0x0 SLOAD PUSH1 0x40 DUP1 MLOAD DUP1 DUP3 ADD SWAP1 SWAP2 MSTORE PUSH1 0x2 DUP2 MSTORE PUSH2 0x333 PUSH1 0xF4 SHL PUSH1 0x20 DUP3 ADD MSTORE SWAP1 PUSH1 0x1 PUSH1 0x1 PUSH1 0xA0 SHL SUB AND CALLER EQ PUSH2 0xE05 JUMPI PUSH1 0x40 MLOAD PUSH3 0x461BCD PUSH1 0xE5 SHL DUP2 MSTORE PUSH1 0x4 ADD PUSH2 0x41D SWAP2 SWAP1 PUSH2 0x1FBE JUMP JUMPDEST POP PUSH2 0xE11 PUSH1 0x5 DUP3 PUSH2 0x1728 JUMP JUMPDEST POP PUSH1 0x40 MLOAD PUSH1 0x1 PUSH1 0x1 PUSH1 0xA0 SHL SUB DUP3 AND DUP2 MSTORE PUSH32 0x8696120FB7656955EC406C2959998DE0AA9798518606D5AFB5F36789F522DFEA SWAP1 PUSH1 0x20 ADD PUSH2 0x468 JUMP JUMPDEST PUSH1 0x0 SLOAD PUSH1 0x40 DUP1 MLOAD DUP1 DUP3 ADD SWAP1 SWAP2 MSTORE PUSH1 0x2 DUP2 MSTORE PUSH2 0x333 PUSH1 0xF4 SHL PUSH1 0x20 DUP3 ADD MSTORE SWAP1 PUSH1 0x1 PUSH1 0x1 PUSH1 0xA0 SHL SUB AND CALLER EQ PUSH2 0xE90 JUMPI PUSH1 0x40 MLOAD PUSH3 0x461BCD PUSH1 0xE5 SHL DUP2 MSTORE PUSH1 0x4 ADD PUSH2 0x41D SWAP2 SWAP1 PUSH2 0x1FBE JUMP JUMPDEST POP PUSH1 0x40 DUP1 MLOAD DUP1 DUP3 ADD SWAP1 SWAP2 MSTORE PUSH1 0x2 DUP2 MSTORE PUSH2 0x3331 PUSH1 0xF0 SHL PUSH1 0x20 DUP3 ADD MSTORE PUSH1 0x1 PUSH1 0x1 PUSH1 0xA0 SHL SUB DUP3 AND PUSH2 0xED1 JUMPI PUSH1 0x40 MLOAD PUSH3 0x461BCD PUSH1 0xE5 SHL DUP2 MSTORE PUSH1 0x4 ADD PUSH2 0x41D SWAP2 SWAP1 PUSH2 0x1FBE JUMP JUMPDEST POP PUSH1 0x1 DUP1 SLOAD PUSH1 0x1 PUSH1 0x1 PUSH1 0xA0 SHL SUB NOT AND PUSH1 0x1 PUSH1 0x1 PUSH1 0xA0 SHL SUB DUP4 AND SWAP1 DUP2 OR SWAP1 SWAP2 SSTORE PUSH1 0x40 MLOAD SWAP1 DUP2 MSTORE PUSH32 0x67235BA2E63C748A35B95C4F92A3BBC2A1389938170A5CE6C9ADD5D0B03A314A SWAP1 PUSH1 0x20 ADD PUSH2 0x468 JUMP JUMPDEST PUSH1 0x0 SLOAD PUSH1 0x40 DUP1 MLOAD DUP1 DUP3 ADD SWAP1 SWAP2 MSTORE PUSH1 0x2 DUP2 MSTORE PUSH2 0x333 PUSH1 0xF4 SHL PUSH1 0x20 DUP3 ADD MSTORE SWAP1 PUSH1 0x1 PUSH1 0x1 PUSH1 0xA0 SHL SUB AND CALLER EQ PUSH2 0xF65 JUMPI PUSH1 0x40 MLOAD PUSH3 0x461BCD PUSH1 0xE5 SHL DUP2 MSTORE PUSH1 0x4 ADD PUSH2 0x41D SWAP2 SWAP1 PUSH2 0x1FBE JUMP JUMPDEST POP PUSH2 0xF71 PUSH1 0x7 DUP3 PUSH2 0x103B JUMP JUMPDEST POP PUSH1 0x40 MLOAD PUSH1 0x1 PUSH1 0x1 PUSH1 0xA0 SHL SUB DUP3 AND DUP2 MSTORE PUSH32 0xFAB625E04BC6EEEF38AAF5C2E48B1F1953CF5183297F4115F0DA9E906D4BF3AC SWAP1 PUSH1 0x20 ADD PUSH2 0x468 JUMP JUMPDEST PUSH1 0x0 SLOAD PUSH1 0x40 DUP1 MLOAD DUP1 DUP3 ADD SWAP1 SWAP2 MSTORE PUSH1 0x2 DUP2 MSTORE PUSH2 0x333 PUSH1 0xF4 SHL PUSH1 0x20 DUP3 ADD MSTORE SWAP1 PUSH1 0x1 PUSH1 0x1 PUSH1 0xA0 SHL SUB AND CALLER EQ PUSH2 0xFF0 JUMPI PUSH1 0x40 MLOAD PUSH3 0x461BCD PUSH1 0xE5 SHL DUP2 MSTORE PUSH1 0x4 ADD PUSH2 0x41D SWAP2 SWAP1 PUSH2 0x1FBE JUMP JUMPDEST POP PUSH1 0x3 DUP1 SLOAD PUSH1 0x1 PUSH1 0x1 PUSH1 0xA0 SHL SUB NOT AND PUSH1 0x1 PUSH1 0x1 PUSH1 0xA0 SHL SUB DUP4 AND SWAP1 DUP2 OR SWAP1 SWAP2 SSTORE PUSH1 0x40 MLOAD PUSH32 0x99E4AC532391C2555B226B3D66F3D643E9256788B0C246834C1AAEBFAD90BD01 SWAP1 PUSH1 0x0 SWAP1 LOG2 POP JUMP JUMPDEST PUSH1 0x0 PUSH2 0x1050 DUP4 PUSH1 0x1 PUSH1 0x1 PUSH1 0xA0 SHL SUB DUP5 AND PUSH2 0x173D JUMP JUMPDEST SWAP4 SWAP3 POP POP POP JUMP JUMPDEST PUSH1 0x0 PUSH2 0x1062 DUP3 PUSH2 0x178C JUMP JUMPDEST POP PUSH1 0x2 DUP3 MLOAD PUSH2 0x1071 SWAP2 SWAP1 PUSH2 0x20B8 JUMP JUMPDEST ISZERO PUSH2 0x10A2 JUMPI DUP2 PUSH1 0x2 DUP4 MLOAD PUSH2 0x1085 SWAP2 SWAP1 PUSH2 0x20CC JUMP JUMPDEST DUP2 MLOAD DUP2 LT PUSH2 0x1095 JUMPI PUSH2 0x1095 PUSH2 0x2058 JUMP JUMPDEST PUSH1 0x20 MUL PUSH1 0x20 ADD ADD MLOAD PUSH2 0x64D JUMP JUMPDEST PUSH2 0x64D DUP3 PUSH1 0x1 PUSH1 0x2 DUP6 MLOAD PUSH2 0x10B6 SWAP2 SWAP1 PUSH2 0x20CC JUMP JUMPDEST PUSH2 0x10C0 SWAP2 SWAP1 PUSH2 0x2041 JUMP JUMPDEST DUP2 MLOAD DUP2 LT PUSH2 0x10D0 JUMPI PUSH2 0x10D0 PUSH2 0x2058 JUMP JUMPDEST PUSH1 0x20 MUL PUSH1 0x20 ADD ADD MLOAD DUP4 PUSH1 0x2 DUP6 MLOAD PUSH2 0x10E7 SWAP2 SWAP1 PUSH2 0x20CC JUMP JUMPDEST DUP2 MLOAD DUP2 LT PUSH2 0x10F7 JUMPI PUSH2 0x10F7 PUSH2 0x2058 JUMP JUMPDEST PUSH1 0x20 MUL PUSH1 0x20 ADD ADD MLOAD PUSH2 0x17AB JUMP JUMPDEST PUSH1 0x0 DUP1 DUP3 PUSH1 0x0 DUP2 MLOAD DUP2 LT PUSH2 0x111A JUMPI PUSH2 0x111A PUSH2 0x2058 JUMP JUMPDEST PUSH1 0x20 SWAP1 DUP2 MUL SWAP2 SWAP1 SWAP2 ADD ADD MLOAD SWAP1 POP PUSH1 0x0 NOT PUSH1 0x1 JUMPDEST DUP5 MLOAD DUP2 LT ISZERO PUSH2 0x11CB JUMPI DUP3 DUP6 DUP3 DUP2 MLOAD DUP2 LT PUSH2 0x1149 JUMPI PUSH2 0x1149 PUSH2 0x2058 JUMP JUMPDEST PUSH1 0x20 MUL PUSH1 0x20 ADD ADD MLOAD LT ISZERO PUSH2 0x117B JUMPI DUP3 SWAP2 POP DUP5 DUP2 DUP2 MLOAD DUP2 LT PUSH2 0x116C JUMPI PUSH2 0x116C PUSH2 0x2058 JUMP JUMPDEST PUSH1 0x20 MUL PUSH1 0x20 ADD ADD MLOAD SWAP3 POP PUSH2 0x11B9 JUMP JUMPDEST DUP2 DUP6 DUP3 DUP2 MLOAD DUP2 LT PUSH2 0x118E JUMPI PUSH2 0x118E PUSH2 0x2058 JUMP JUMPDEST PUSH1 0x20 MUL PUSH1 0x20 ADD ADD MLOAD LT ISZERO PUSH2 0x11B9 JUMPI DUP5 DUP2 DUP2 MLOAD DUP2 LT PUSH2 0x11AE JUMPI PUSH2 0x11AE PUSH2 0x2058 JUMP JUMPDEST PUSH1 0x20 MUL PUSH1 0x20 ADD ADD MLOAD SWAP2 POP JUMPDEST DUP1 PUSH2 0x11C3 DUP2 PUSH2 0x206E JUMP JUMPDEST SWAP2 POP POP PUSH2 0x112D JUMP JUMPDEST POP DUP4 MLOAD PUSH1 0x1 EQ ISZERO PUSH2 0x11E9 JUMPI DUP4 PUSH1 0x0 DUP2 MLOAD DUP2 LT PUSH2 0xA90 JUMPI PUSH2 0xA90 PUSH2 0x2058 JUMP JUMPDEST DUP4 MLOAD PUSH1 0x2 EQ ISZERO PUSH2 0x1050 JUMPI POP SWAP3 SWAP2 POP POP JUMP JUMPDEST PUSH1 0x60 PUSH1 0x0 PUSH2 0x1208 PUSH1 0x7 PUSH2 0x169B JUMP JUMPDEST DUP5 MLOAD PUSH2 0x1214 SWAP2 SWAP1 PUSH2 0x20E0 JUMP JUMPDEST PUSH8 0xFFFFFFFFFFFFFFFF DUP2 GT ISZERO PUSH2 0x122C JUMPI PUSH2 0x122C PUSH2 0x1CF9 JUMP JUMPDEST PUSH1 0x40 MLOAD SWAP1 DUP1 DUP3 MSTORE DUP1 PUSH1 0x20 MUL PUSH1 0x20 ADD DUP3 ADD PUSH1 0x40 MSTORE DUP1 ISZERO PUSH2 0x1255 JUMPI DUP2 PUSH1 0x20 ADD PUSH1 0x20 DUP3 MUL DUP1 CALLDATASIZE DUP4 CALLDATACOPY ADD SWAP1 POP JUMPDEST POP SWAP1 POP PUSH1 0x0 DUP1 JUMPDEST DUP6 MLOAD DUP2 LT ISZERO PUSH2 0x15F5 JUMPI PUSH1 0x0 DUP1 JUMPDEST PUSH2 0x1273 PUSH1 0x9 PUSH2 0x169B JUMP JUMPDEST DUP2 LT ISZERO PUSH2 0x15A8 JUMPI PUSH1 0x0 PUSH2 0x1287 PUSH1 0x9 DUP4 PUSH2 0x16A5 JUMP JUMPDEST SWAP1 POP DUP1 PUSH1 0x1 PUSH1 0x1 PUSH1 0xA0 SHL SUB AND DUP10 DUP6 DUP2 MLOAD DUP2 LT PUSH2 0x12A5 JUMPI PUSH2 0x12A5 PUSH2 0x2058 JUMP JUMPDEST PUSH1 0x20 MUL PUSH1 0x20 ADD ADD MLOAD PUSH1 0x1 PUSH1 0x1 PUSH1 0xA0 SHL SUB AND EQ DUP1 PUSH2 0x1364 JUMPI POP PUSH1 0x3 SLOAD DUP10 MLOAD PUSH1 0x1 PUSH1 0x1 PUSH1 0xA0 SHL SUB SWAP1 SWAP2 AND SWAP1 PUSH4 0x9446994A SWAP1 DUP12 SWAP1 DUP8 SWAP1 DUP2 LT PUSH2 0x12E6 JUMPI PUSH2 0x12E6 PUSH2 0x2058 JUMP JUMPDEST PUSH1 0x20 MUL PUSH1 0x20 ADD ADD MLOAD DUP4 PUSH1 0x40 MLOAD DUP4 PUSH4 0xFFFFFFFF AND PUSH1 0xE0 SHL DUP2 MSTORE PUSH1 0x4 ADD PUSH2 0x1321 SWAP3 SWAP2 SWAP1 PUSH1 0x1 PUSH1 0x1 PUSH1 0xA0 SHL SUB SWAP3 DUP4 AND DUP2 MSTORE SWAP2 AND PUSH1 0x20 DUP3 ADD MSTORE PUSH1 0x40 ADD SWAP1 JUMP JUMPDEST PUSH1 0x20 PUSH1 0x40 MLOAD DUP1 DUP4 SUB DUP2 DUP7 GAS STATICCALL ISZERO DUP1 ISZERO PUSH2 0x133E JUMPI RETURNDATASIZE PUSH1 0x0 DUP1 RETURNDATACOPY RETURNDATASIZE PUSH1 0x0 REVERT JUMPDEST POP POP POP POP PUSH1 0x40 MLOAD RETURNDATASIZE PUSH1 0x1F NOT PUSH1 0x1F DUP3 ADD AND DUP3 ADD DUP1 PUSH1 0x40 MSTORE POP DUP2 ADD SWAP1 PUSH2 0x1362 SWAP2 SWAP1 PUSH2 0x20FF JUMP JUMPDEST ISZERO JUMPDEST ISZERO PUSH2 0x136F JUMPI POP PUSH2 0x1596 JUMP JUMPDEST PUSH1 0x3 SLOAD DUP10 MLOAD PUSH1 0x0 SWAP2 PUSH1 0x1 PUSH1 0x1 PUSH1 0xA0 SHL SUB AND SWAP1 PUSH4 0x9B56E6A7 SWAP1 DUP13 SWAP1 DUP9 SWAP1 DUP2 LT PUSH2 0x1399 JUMPI PUSH2 0x1399 PUSH2 0x2058 JUMP JUMPDEST PUSH1 0x20 MUL PUSH1 0x20 ADD ADD MLOAD DUP5 PUSH1 0x40 MLOAD DUP4 PUSH4 0xFFFFFFFF AND PUSH1 0xE0 SHL DUP2 MSTORE PUSH1 0x4 ADD PUSH2 0x13D4 SWAP3 SWAP2 SWAP1 PUSH1 0x1 PUSH1 0x1 PUSH1 0xA0 SHL SUB SWAP3 DUP4 AND DUP2 MSTORE SWAP2 AND PUSH1 0x20 DUP3 ADD MSTORE PUSH1 0x40 ADD SWAP1 JUMP JUMPDEST PUSH1 0x20 PUSH1 0x40 MLOAD DUP1 DUP4 SUB DUP2 DUP7 GAS STATICCALL ISZERO DUP1 ISZERO PUSH2 0x13F1 JUMPI RETURNDATASIZE PUSH1 0x0 DUP1 RETURNDATACOPY RETURNDATASIZE PUSH1 0x0 REVERT JUMPDEST POP POP POP POP PUSH1 0x40 MLOAD RETURNDATASIZE PUSH1 0x1F NOT PUSH1 0x1F DUP3 ADD AND DUP3 ADD DUP1 PUSH1 0x40 MSTORE POP DUP2 ADD SWAP1 PUSH2 0x1415 SWAP2 SWAP1 PUSH2 0x2089 JUMP JUMPDEST SWAP1 POP PUSH32 0x0 PUSH1 0x1 PUSH1 0x1 PUSH1 0xA0 SHL SUB AND DUP11 DUP7 DUP2 MLOAD DUP2 LT PUSH2 0x1453 JUMPI PUSH2 0x1453 PUSH2 0x2058 JUMP JUMPDEST PUSH1 0x20 MUL PUSH1 0x20 ADD ADD MLOAD PUSH1 0x1 PUSH1 0x1 PUSH1 0xA0 SHL SUB AND EQ DUP1 ISZERO PUSH2 0x1477 JUMPI POP PUSH2 0x1477 PUSH1 0x7 DUP4 PUSH2 0x17C6 JUMP JUMPDEST ISZERO PUSH2 0x14AC JUMPI DUP1 DUP8 DUP8 DUP2 MLOAD DUP2 LT PUSH2 0x148F JUMPI PUSH2 0x148F PUSH2 0x2058 JUMP JUMPDEST PUSH1 0x20 SWAP1 DUP2 MUL SWAP2 SWAP1 SWAP2 ADD ADD MSTORE DUP6 PUSH2 0x14A4 DUP2 PUSH2 0x206E JUMP JUMPDEST SWAP7 POP POP PUSH2 0x1557 JUMP JUMPDEST PUSH32 0x0 PUSH1 0x1 PUSH1 0x1 PUSH1 0xA0 SHL SUB AND DUP3 PUSH1 0x1 PUSH1 0x1 PUSH1 0xA0 SHL SUB AND EQ DUP1 ISZERO PUSH2 0x1515 JUMPI POP PUSH2 0x1515 DUP11 DUP7 DUP2 MLOAD DUP2 LT PUSH2 0x14FD JUMPI PUSH2 0x14FD PUSH2 0x2058 JUMP JUMPDEST PUSH1 0x20 MUL PUSH1 0x20 ADD ADD MLOAD PUSH1 0x7 PUSH2 0x17C6 SWAP1 SWAP2 SWAP1 PUSH4 0xFFFFFFFF AND JUMP JUMPDEST ISZERO PUSH2 0x1557 JUMPI PUSH2 0x152C PUSH8 0xDE0B6B3A7640000 DUP3 PUSH2 0x17E8 JUMP JUMPDEST DUP8 DUP8 DUP2 MLOAD DUP2 LT PUSH2 0x153E JUMPI PUSH2 0x153E PUSH2 0x2058 JUMP JUMPDEST PUSH1 0x20 SWAP1 DUP2 MUL SWAP2 SWAP1 SWAP2 ADD ADD MSTORE DUP6 PUSH2 0x1553 DUP2 PUSH2 0x206E JUMP JUMPDEST SWAP7 POP POP JUMPDEST PUSH1 0x0 PUSH2 0x1564 DUP4 DUP13 DUP13 PUSH2 0x1850 JUMP JUMPDEST SWAP1 POP PUSH2 0x158A DUP11 DUP8 DUP2 MLOAD DUP2 LT PUSH2 0x157B JUMPI PUSH2 0x157B PUSH2 0x2058 JUMP JUMPDEST PUSH1 0x20 MUL PUSH1 0x20 ADD ADD MLOAD DUP3 DUP5 PUSH2 0x193B JUMP JUMPDEST PUSH1 0x1 SWAP5 POP POP POP POP PUSH2 0x15A8 JUMP JUMPDEST DUP1 PUSH2 0x15A0 DUP2 PUSH2 0x206E JUMP JUMPDEST SWAP2 POP POP PUSH2 0x1269 JUMP JUMPDEST POP PUSH1 0x40 DUP1 MLOAD DUP1 DUP3 ADD SWAP1 SWAP2 MSTORE PUSH1 0x2 DUP2 MSTORE PUSH2 0x343 PUSH1 0xF4 SHL PUSH1 0x20 DUP3 ADD MSTORE DUP2 PUSH2 0x15E0 JUMPI PUSH1 0x40 MLOAD PUSH3 0x461BCD PUSH1 0xE5 SHL DUP2 MSTORE PUSH1 0x4 ADD PUSH2 0x41D SWAP2 SWAP1 PUSH2 0x1FBE JUMP JUMPDEST POP POP DUP1 DUP1 PUSH2 0x15ED SWAP1 PUSH2 0x206E JUMP JUMPDEST SWAP2 POP POP PUSH2 0x125C JUMP JUMPDEST POP PUSH1 0x0 DUP2 PUSH8 0xFFFFFFFFFFFFFFFF DUP2 GT ISZERO PUSH2 0x1611 JUMPI PUSH2 0x1611 PUSH2 0x1CF9 JUMP JUMPDEST PUSH1 0x40 MLOAD SWAP1 DUP1 DUP3 MSTORE DUP1 PUSH1 0x20 MUL PUSH1 0x20 ADD DUP3 ADD PUSH1 0x40 MSTORE DUP1 ISZERO PUSH2 0x163A JUMPI DUP2 PUSH1 0x20 ADD PUSH1 0x20 DUP3 MUL DUP1 CALLDATASIZE DUP4 CALLDATACOPY ADD SWAP1 POP JUMPDEST POP SWAP1 POP PUSH1 0x0 JUMPDEST DUP3 DUP2 LT ISZERO PUSH2 0x1691 JUMPI DUP4 DUP2 DUP2 MLOAD DUP2 LT PUSH2 0x165A JUMPI PUSH2 0x165A PUSH2 0x2058 JUMP JUMPDEST PUSH1 0x20 MUL PUSH1 0x20 ADD ADD MLOAD DUP3 DUP3 DUP2 MLOAD DUP2 LT PUSH2 0x1674 JUMPI PUSH2 0x1674 PUSH2 0x2058 JUMP JUMPDEST PUSH1 0x20 SWAP1 DUP2 MUL SWAP2 SWAP1 SWAP2 ADD ADD MSTORE DUP1 PUSH2 0x1689 DUP2 PUSH2 0x206E JUMP JUMPDEST SWAP2 POP POP PUSH2 0x1640 JUMP JUMPDEST POP SWAP6 SWAP5 POP POP POP POP POP JUMP JUMPDEST PUSH1 0x0 PUSH2 0x64D DUP3 SLOAD SWAP1 JUMP JUMPDEST PUSH1 0x0 PUSH2 0x1050 DUP4 DUP4 PUSH2 0x19AD JUMP JUMPDEST PUSH1 0x0 PUSH2 0x16BD DUP4 DUP4 PUSH2 0x534 JUMP JUMPDEST SWAP1 POP PUSH1 0x0 PUSH2 0x16CB DUP6 DUP4 PUSH2 0x19D7 JUMP JUMPDEST SWAP1 POP PUSH9 0x2B5E3AF16B1880000 DUP2 GT ISZERO PUSH1 0x40 MLOAD DUP1 PUSH1 0x40 ADD PUSH1 0x40 MSTORE DUP1 PUSH1 0x2 DUP2 MSTORE PUSH1 0x20 ADD PUSH2 0x3435 PUSH1 0xF0 SHL DUP2 MSTORE POP SWAP1 PUSH2 0x1713 JUMPI PUSH1 0x40 MLOAD PUSH3 0x461BCD PUSH1 0xE5 SHL DUP2 MSTORE PUSH1 0x4 ADD PUSH2 0x41D SWAP2 SWAP1 PUSH2 0x1FBE JUMP JUMPDEST POP POP POP POP POP POP JUMP JUMPDEST PUSH1 0x60 PUSH1 0x0 PUSH2 0x1050 DUP4 PUSH2 0x19FA JUMP JUMPDEST PUSH1 0x0 PUSH2 0x1050 DUP4 PUSH1 0x1 PUSH1 0x1 PUSH1 0xA0 SHL SUB DUP5 AND PUSH2 0x1A56 JUMP JUMPDEST PUSH1 0x0 DUP2 DUP2 MSTORE PUSH1 0x1 DUP4 ADD PUSH1 0x20 MSTORE PUSH1 0x40 DUP2 KECCAK256 SLOAD PUSH2 0x1784 JUMPI POP DUP2 SLOAD PUSH1 0x1 DUP2 DUP2 ADD DUP5 SSTORE PUSH1 0x0 DUP5 DUP2 MSTORE PUSH1 0x20 DUP1 DUP3 KECCAK256 SWAP1 SWAP4 ADD DUP5 SWAP1 SSTORE DUP5 SLOAD DUP5 DUP3 MSTORE DUP3 DUP7 ADD SWAP1 SWAP4 MSTORE PUSH1 0x40 SWAP1 KECCAK256 SWAP2 SWAP1 SWAP2 SSTORE PUSH2 0x64D JUMP JUMPDEST POP PUSH1 0x0 PUSH2 0x64D JUMP JUMPDEST PUSH1 0x60 PUSH2 0x17A7 DUP3 PUSH1 0x0 PUSH1 0x1 DUP6 MLOAD PUSH2 0x17A2 SWAP2 SWAP1 PUSH2 0x2041 JUMP JUMPDEST PUSH2 0x1B49 JUMP JUMPDEST POP SWAP1 JUMP JUMPDEST PUSH1 0x0 PUSH2 0x17BA PUSH1 0x2 DUP5 DUP5 XOR PUSH2 0x20CC JUMP JUMPDEST PUSH2 0x1050 SWAP1 DUP5 DUP5 AND PUSH2 0x2029 JUMP JUMPDEST PUSH1 0x1 PUSH1 0x1 PUSH1 0xA0 SHL SUB DUP2 AND PUSH1 0x0 SWAP1 DUP2 MSTORE PUSH1 0x1 DUP4 ADD PUSH1 0x20 MSTORE PUSH1 0x40 DUP2 KECCAK256 SLOAD ISZERO ISZERO PUSH2 0x1050 JUMP JUMPDEST PUSH1 0x40 DUP1 MLOAD DUP1 DUP3 ADD SWAP1 SWAP2 MSTORE PUSH1 0x2 DUP2 MSTORE PUSH2 0x3235 PUSH1 0xF0 SHL PUSH1 0x20 DUP3 ADD MSTORE PUSH1 0x0 SWAP1 DUP3 PUSH2 0x1822 JUMPI PUSH1 0x40 MLOAD PUSH3 0x461BCD PUSH1 0xE5 SHL DUP2 MSTORE PUSH1 0x4 ADD PUSH2 0x41D SWAP2 SWAP1 PUSH2 0x1FBE JUMP JUMPDEST POP DUP3 PUSH2 0x1830 JUMPI POP PUSH1 0x0 PUSH2 0x64D JUMP JUMPDEST PUSH1 0x0 PUSH2 0x1844 PUSH8 0xDE0B6B3A7640000 DUP6 PUSH2 0x20E0 JUMP JUMPDEST SWAP1 POP PUSH2 0x54A DUP4 DUP3 PUSH2 0x20CC JUMP JUMPDEST PUSH1 0x0 DUP1 JUMPDEST DUP4 MLOAD DUP2 LT ISZERO PUSH2 0x18C4 JUMPI DUP5 PUSH1 0x1 PUSH1 0x1 PUSH1 0xA0 SHL SUB AND DUP5 DUP3 DUP2 MLOAD DUP2 LT PUSH2 0x1879 JUMPI PUSH2 0x1879 PUSH2 0x2058 JUMP JUMPDEST PUSH1 0x20 MUL PUSH1 0x20 ADD ADD MLOAD PUSH1 0x1 PUSH1 0x1 PUSH1 0xA0 SHL SUB AND EQ ISZERO PUSH2 0x18B2 JUMPI DUP3 DUP2 DUP2 MLOAD DUP2 LT PUSH2 0x18A2 JUMPI PUSH2 0x18A2 PUSH2 0x2058 JUMP JUMPDEST PUSH1 0x20 MUL PUSH1 0x20 ADD ADD MLOAD SWAP2 POP POP PUSH2 0x1050 JUMP JUMPDEST DUP1 PUSH2 0x18BC DUP2 PUSH2 0x206E JUMP JUMPDEST SWAP2 POP POP PUSH2 0x1854 JUMP JUMPDEST POP PUSH1 0x2 SLOAD PUSH1 0x40 MLOAD PUSH4 0x5708447D PUSH1 0xE0 SHL DUP2 MSTORE PUSH1 0x1 PUSH1 0x1 PUSH1 0xA0 SHL SUB DUP7 DUP2 AND PUSH1 0x4 DUP4 ADD MSTORE SWAP1 SWAP2 AND SWAP1 PUSH4 0x5708447D SWAP1 PUSH1 0x24 ADD PUSH1 0x20 PUSH1 0x40 MLOAD DUP1 DUP4 SUB DUP2 DUP7 GAS STATICCALL ISZERO DUP1 ISZERO PUSH2 0x190F JUMPI RETURNDATASIZE PUSH1 0x0 DUP1 RETURNDATACOPY RETURNDATASIZE PUSH1 0x0 REVERT JUMPDEST POP POP POP POP PUSH1 0x40 MLOAD RETURNDATASIZE PUSH1 0x1F NOT PUSH1 0x1F DUP3 ADD AND DUP3 ADD DUP1 PUSH1 0x40 MSTORE POP DUP2 ADD SWAP1 PUSH2 0x1933 SWAP2 SWAP1 PUSH2 0x2089 JUMP JUMPDEST SWAP5 SWAP4 POP POP POP POP JUMP JUMPDEST PUSH1 0x0 PUSH2 0x1947 DUP5 DUP5 PUSH2 0x17E8 JUMP JUMPDEST SWAP1 POP PUSH1 0x0 PUSH2 0x1955 DUP4 DUP4 PUSH2 0x19D7 JUMP JUMPDEST SWAP1 POP PUSH1 0x0 PUSH2 0x1963 DUP3 DUP6 PUSH2 0x17E8 JUMP JUMPDEST SWAP1 POP PUSH1 0x4 SLOAD DUP2 GT ISZERO PUSH1 0x40 MLOAD DUP1 PUSH1 0x40 ADD PUSH1 0x40 MSTORE DUP1 PUSH1 0x2 DUP2 MSTORE PUSH1 0x20 ADD PUSH2 0x3431 PUSH1 0xF0 SHL DUP2 MSTORE POP SWAP1 PUSH2 0x19A4 JUMPI PUSH1 0x40 MLOAD PUSH3 0x461BCD PUSH1 0xE5 SHL DUP2 MSTORE PUSH1 0x4 ADD PUSH2 0x41D SWAP2 SWAP1 PUSH2 0x1FBE JUMP JUMPDEST POP POP POP POP POP POP POP JUMP JUMPDEST PUSH1 0x0 DUP3 PUSH1 0x0 ADD DUP3 DUP2 SLOAD DUP2 LT PUSH2 0x19C4 JUMPI PUSH2 0x19C4 PUSH2 0x2058 JUMP JUMPDEST SWAP1 PUSH1 0x0 MSTORE PUSH1 0x20 PUSH1 0x0 KECCAK256 ADD SLOAD SWAP1 POP SWAP3 SWAP2 POP POP JUMP JUMPDEST PUSH1 0x0 DUP2 DUP4 LT ISZERO PUSH2 0x19F0 JUMPI PUSH2 0x19EB DUP4 DUP4 PUSH2 0x2041 JUMP JUMPDEST PUSH2 0x1050 JUMP JUMPDEST PUSH2 0x1050 DUP3 DUP5 PUSH2 0x2041 JUMP JUMPDEST PUSH1 0x60 DUP2 PUSH1 0x0 ADD DUP1 SLOAD DUP1 PUSH1 0x20 MUL PUSH1 0x20 ADD PUSH1 0x40 MLOAD SWAP1 DUP2 ADD PUSH1 0x40 MSTORE DUP1 SWAP3 SWAP2 SWAP1 DUP2 DUP2 MSTORE PUSH1 0x20 ADD DUP3 DUP1 SLOAD DUP1 ISZERO PUSH2 0x1A4A JUMPI PUSH1 0x20 MUL DUP3 ADD SWAP2 SWAP1 PUSH1 0x0 MSTORE PUSH1 0x20 PUSH1 0x0 KECCAK256 SWAP1 JUMPDEST DUP2 SLOAD DUP2 MSTORE PUSH1 0x20 ADD SWAP1 PUSH1 0x1 ADD SWAP1 DUP1 DUP4 GT PUSH2 0x1A36 JUMPI JUMPDEST POP POP POP POP POP SWAP1 POP SWAP2 SWAP1 POP JUMP JUMPDEST PUSH1 0x0 DUP2 DUP2 MSTORE PUSH1 0x1 DUP4 ADD PUSH1 0x20 MSTORE PUSH1 0x40 DUP2 KECCAK256 SLOAD DUP1 ISZERO PUSH2 0x1B3F JUMPI PUSH1 0x0 PUSH2 0x1A7A PUSH1 0x1 DUP4 PUSH2 0x2041 JUMP JUMPDEST DUP6 SLOAD SWAP1 SWAP2 POP PUSH1 0x0 SWAP1 PUSH2 0x1A8E SWAP1 PUSH1 0x1 SWAP1 PUSH2 0x2041 JUMP JUMPDEST SWAP1 POP DUP2 DUP2 EQ PUSH2 0x1AF3 JUMPI PUSH1 0x0 DUP7 PUSH1 0x0 ADD DUP3 DUP2 SLOAD DUP2 LT PUSH2 0x1AAE JUMPI PUSH2 0x1AAE PUSH2 0x2058 JUMP JUMPDEST SWAP1 PUSH1 0x0 MSTORE PUSH1 0x20 PUSH1 0x0 KECCAK256 ADD SLOAD SWAP1 POP DUP1 DUP8 PUSH1 0x0 ADD DUP5 DUP2 SLOAD DUP2 LT PUSH2 0x1AD1 JUMPI PUSH2 0x1AD1 PUSH2 0x2058 JUMP JUMPDEST PUSH1 0x0 SWAP2 DUP3 MSTORE PUSH1 0x20 DUP1 DUP4 KECCAK256 SWAP1 SWAP2 ADD SWAP3 SWAP1 SWAP3 SSTORE SWAP2 DUP3 MSTORE PUSH1 0x1 DUP9 ADD SWAP1 MSTORE PUSH1 0x40 SWAP1 KECCAK256 DUP4 SWAP1 SSTORE JUMPDEST DUP6 SLOAD DUP7 SWAP1 DUP1 PUSH2 0x1B04 JUMPI PUSH2 0x1B04 PUSH2 0x2121 JUMP JUMPDEST PUSH1 0x1 SWAP1 SUB DUP2 DUP2 SWAP1 PUSH1 0x0 MSTORE PUSH1 0x20 PUSH1 0x0 KECCAK256 ADD PUSH1 0x0 SWAP1 SSTORE SWAP1 SSTORE DUP6 PUSH1 0x1 ADD PUSH1 0x0 DUP7 DUP2 MSTORE PUSH1 0x20 ADD SWAP1 DUP2 MSTORE PUSH1 0x20 ADD PUSH1 0x0 KECCAK256 PUSH1 0x0 SWAP1 SSTORE PUSH1 0x1 SWAP4 POP POP POP POP PUSH2 0x64D JUMP JUMPDEST PUSH1 0x0 SWAP2 POP POP PUSH2 0x64D JUMP JUMPDEST DUP2 DUP2 DUP1 DUP3 EQ ISZERO PUSH2 0x1B5A JUMPI POP POP POP POP POP JUMP JUMPDEST PUSH1 0x0 DUP6 PUSH1 0x2 PUSH2 0x1B69 DUP8 DUP8 PUSH2 0x2137 JUMP JUMPDEST PUSH2 0x1B73 SWAP2 SWAP1 PUSH2 0x2176 JUMP JUMPDEST PUSH2 0x1B7D SWAP1 DUP8 PUSH2 0x21A4 JUMP JUMPDEST DUP2 MLOAD DUP2 LT PUSH2 0x1B8D JUMPI PUSH2 0x1B8D PUSH2 0x2058 JUMP JUMPDEST PUSH1 0x20 MUL PUSH1 0x20 ADD ADD MLOAD SWAP1 POP JUMPDEST DUP2 DUP4 SGT PUSH2 0x1C9C JUMPI JUMPDEST DUP1 DUP7 DUP5 DUP2 MLOAD DUP2 LT PUSH2 0x1BB3 JUMPI PUSH2 0x1BB3 PUSH2 0x2058 JUMP JUMPDEST PUSH1 0x20 MUL PUSH1 0x20 ADD ADD MLOAD LT ISZERO PUSH2 0x1BD3 JUMPI DUP3 PUSH2 0x1BCB DUP2 PUSH2 0x21E5 JUMP JUMPDEST SWAP4 POP POP PUSH2 0x1BA0 JUMP JUMPDEST DUP6 DUP3 DUP2 MLOAD DUP2 LT PUSH2 0x1BE5 JUMPI PUSH2 0x1BE5 PUSH2 0x2058 JUMP JUMPDEST PUSH1 0x20 MUL PUSH1 0x20 ADD ADD MLOAD DUP2 LT ISZERO PUSH2 0x1C06 JUMPI DUP2 PUSH2 0x1BFE DUP2 PUSH2 0x21FE JUMP JUMPDEST SWAP3 POP POP PUSH2 0x1BD3 JUMP JUMPDEST DUP2 DUP4 SGT PUSH2 0x1C97 JUMPI DUP6 DUP3 DUP2 MLOAD DUP2 LT PUSH2 0x1C1F JUMPI PUSH2 0x1C1F PUSH2 0x2058 JUMP JUMPDEST PUSH1 0x20 MUL PUSH1 0x20 ADD ADD MLOAD DUP7 DUP5 DUP2 MLOAD DUP2 LT PUSH2 0x1C39 JUMPI PUSH2 0x1C39 PUSH2 0x2058 JUMP JUMPDEST PUSH1 0x20 MUL PUSH1 0x20 ADD ADD MLOAD DUP8 DUP6 DUP2 MLOAD DUP2 LT PUSH2 0x1C53 JUMPI PUSH2 0x1C53 PUSH2 0x2058 JUMP JUMPDEST PUSH1 0x20 MUL PUSH1 0x20 ADD ADD DUP9 DUP6 DUP2 MLOAD DUP2 LT PUSH2 0x1C6C JUMPI PUSH2 0x1C6C PUSH2 0x2058 JUMP JUMPDEST PUSH1 0x20 SWAP1 DUP2 MUL SWAP2 SWAP1 SWAP2 ADD ADD SWAP2 SWAP1 SWAP2 MSTORE MSTORE DUP3 PUSH2 0x1C85 DUP2 PUSH2 0x21E5 JUMP JUMPDEST SWAP4 POP POP DUP2 DUP1 PUSH2 0x1C93 SWAP1 PUSH2 0x21FE JUMP JUMPDEST SWAP3 POP POP JUMPDEST PUSH2 0x1B98 JUMP JUMPDEST DUP2 DUP6 SLT ISZERO PUSH2 0x1CAF JUMPI PUSH2 0x1CAF DUP7 DUP7 DUP5 PUSH2 0x1B49 JUMP JUMPDEST DUP4 DUP4 SLT ISZERO PUSH2 0x1713 JUMPI PUSH2 0x1713 DUP7 DUP5 DUP7 PUSH2 0x1B49 JUMP JUMPDEST DUP1 CALLDATALOAD PUSH1 0x1 PUSH1 0x1 PUSH1 0xA0 SHL SUB DUP2 AND DUP2 EQ PUSH2 0x1CD9 JUMPI PUSH1 0x0 DUP1 REVERT JUMPDEST SWAP2 SWAP1 POP JUMP JUMPDEST PUSH1 0x0 PUSH1 0x20 DUP3 DUP5 SUB SLT ISZERO PUSH2 0x1CF0 JUMPI PUSH1 0x0 DUP1 REVERT JUMPDEST PUSH2 0x1050 DUP3 PUSH2 0x1CC2 JUMP JUMPDEST PUSH4 0x4E487B71 PUSH1 0xE0 SHL PUSH1 0x0 MSTORE PUSH1 0x41 PUSH1 0x4 MSTORE PUSH1 0x24 PUSH1 0x0 REVERT JUMPDEST PUSH1 0x40 MLOAD PUSH1 0x1F DUP3 ADD PUSH1 0x1F NOT AND DUP2 ADD PUSH8 0xFFFFFFFFFFFFFFFF DUP2 GT DUP3 DUP3 LT OR ISZERO PUSH2 0x1D38 JUMPI PUSH2 0x1D38 PUSH2 0x1CF9 JUMP JUMPDEST PUSH1 0x40 MSTORE SWAP2 SWAP1 POP JUMP JUMPDEST PUSH1 0x0 PUSH8 0xFFFFFFFFFFFFFFFF DUP3 GT ISZERO PUSH2 0x1D5A JUMPI PUSH2 0x1D5A PUSH2 0x1CF9 JUMP JUMPDEST POP PUSH1 0x5 SHL PUSH1 0x20 ADD SWAP1 JUMP JUMPDEST PUSH1 0x0 PUSH1 0x20 DUP1 DUP4 DUP6 SUB SLT ISZERO PUSH2 0x1D77 JUMPI PUSH1 0x0 DUP1 REVERT JUMPDEST DUP3 CALLDATALOAD PUSH8 0xFFFFFFFFFFFFFFFF DUP2 GT ISZERO PUSH2 0x1D8E JUMPI PUSH1 0x0 DUP1 REVERT JUMPDEST DUP4 ADD PUSH1 0x1F DUP2 ADD DUP6 SGT PUSH2 0x1D9F JUMPI PUSH1 0x0 DUP1 REVERT JUMPDEST DUP1 CALLDATALOAD PUSH2 0x1DB2 PUSH2 0x1DAD DUP3 PUSH2 0x1D40 JUMP JUMPDEST PUSH2 0x1D0F JUMP JUMPDEST DUP2 DUP2 MSTORE PUSH1 0x5 SWAP2 SWAP1 SWAP2 SHL DUP3 ADD DUP4 ADD SWAP1 DUP4 DUP2 ADD SWAP1 DUP8 DUP4 GT ISZERO PUSH2 0x1DD1 JUMPI PUSH1 0x0 DUP1 REVERT JUMPDEST SWAP3 DUP5 ADD SWAP3 JUMPDEST DUP3 DUP5 LT ISZERO PUSH2 0x1DF6 JUMPI PUSH2 0x1DE7 DUP5 PUSH2 0x1CC2 JUMP JUMPDEST DUP3 MSTORE SWAP3 DUP5 ADD SWAP3 SWAP1 DUP5 ADD SWAP1 PUSH2 0x1DD6 JUMP JUMPDEST SWAP8 SWAP7 POP POP POP POP POP POP POP JUMP JUMPDEST PUSH1 0x0 DUP2 MLOAD DUP1 DUP5 MSTORE PUSH1 0x20 DUP1 DUP6 ADD SWAP5 POP DUP1 DUP5 ADD PUSH1 0x0 JUMPDEST DUP4 DUP2 LT ISZERO PUSH2 0x1E31 JUMPI DUP2 MLOAD DUP8 MSTORE SWAP6 DUP3 ADD SWAP6 SWAP1 DUP3 ADD SWAP1 PUSH1 0x1 ADD PUSH2 0x1E15 JUMP JUMPDEST POP SWAP5 SWAP6 SWAP5 POP POP POP POP POP JUMP JUMPDEST PUSH1 0x20 DUP2 MSTORE PUSH1 0x0 PUSH2 0x1050 PUSH1 0x20 DUP4 ADD DUP5 PUSH2 0x1E01 JUMP JUMPDEST PUSH1 0x0 DUP3 PUSH1 0x1F DUP4 ADD SLT PUSH2 0x1E60 JUMPI PUSH1 0x0 DUP1 REVERT JUMPDEST DUP2 CALLDATALOAD PUSH1 0x20 PUSH2 0x1E70 PUSH2 0x1DAD DUP4 PUSH2 0x1D40 JUMP JUMPDEST DUP3 DUP2 MSTORE PUSH1 0x5 SWAP3 SWAP1 SWAP3 SHL DUP5 ADD DUP2 ADD SWAP2 DUP2 DUP2 ADD SWAP1 DUP7 DUP5 GT ISZERO PUSH2 0x1E8F JUMPI PUSH1 0x0 DUP1 REVERT JUMPDEST DUP3 DUP7 ADD JUMPDEST DUP5 DUP2 LT ISZERO PUSH2 0x1EAA JUMPI DUP1 CALLDATALOAD DUP4 MSTORE SWAP2 DUP4 ADD SWAP2 DUP4 ADD PUSH2 0x1E93 JUMP JUMPDEST POP SWAP7 SWAP6 POP POP POP POP POP POP JUMP JUMPDEST PUSH1 0x0 DUP1 PUSH1 0x40 DUP4 DUP6 SUB SLT ISZERO PUSH2 0x1EC8 JUMPI PUSH1 0x0 DUP1 REVERT JUMPDEST DUP3 CALLDATALOAD PUSH8 0xFFFFFFFFFFFFFFFF DUP1 DUP3 GT ISZERO PUSH2 0x1EE0 JUMPI PUSH1 0x0 DUP1 REVERT JUMPDEST PUSH2 0x1EEC DUP7 DUP4 DUP8 ADD PUSH2 0x1E4F JUMP JUMPDEST SWAP4 POP PUSH1 0x20 DUP6 ADD CALLDATALOAD SWAP2 POP DUP1 DUP3 GT ISZERO PUSH2 0x1F02 JUMPI PUSH1 0x0 DUP1 REVERT JUMPDEST POP PUSH2 0x1F0F DUP6 DUP3 DUP7 ADD PUSH2 0x1E4F JUMP JUMPDEST SWAP2 POP POP SWAP3 POP SWAP3 SWAP1 POP JUMP JUMPDEST PUSH1 0x80 DUP2 MSTORE PUSH1 0x0 PUSH2 0x1F2C PUSH1 0x80 DUP4 ADD DUP8 PUSH2 0x1E01 JUMP JUMPDEST DUP6 PUSH1 0x20 DUP5 ADD MSTORE DUP3 DUP2 SUB PUSH1 0x40 DUP5 ADD MSTORE PUSH2 0x1F44 DUP2 DUP7 PUSH2 0x1E01 JUMP JUMPDEST SWAP1 POP DUP3 DUP2 SUB PUSH1 0x60 DUP5 ADD MSTORE PUSH2 0x1DF6 DUP2 DUP6 PUSH2 0x1E01 JUMP JUMPDEST PUSH1 0x0 PUSH1 0x20 DUP3 DUP5 SUB SLT ISZERO PUSH2 0x1F6A JUMPI PUSH1 0x0 DUP1 REVERT JUMPDEST POP CALLDATALOAD SWAP2 SWAP1 POP JUMP JUMPDEST PUSH1 0x20 DUP1 DUP3 MSTORE DUP3 MLOAD DUP3 DUP3 ADD DUP2 SWAP1 MSTORE PUSH1 0x0 SWAP2 SWAP1 DUP5 DUP3 ADD SWAP1 PUSH1 0x40 DUP6 ADD SWAP1 DUP5 JUMPDEST DUP2 DUP2 LT ISZERO PUSH2 0x1FB2 JUMPI DUP4 MLOAD PUSH1 0x1 PUSH1 0x1 PUSH1 0xA0 SHL SUB AND DUP4 MSTORE SWAP3 DUP5 ADD SWAP3 SWAP2 DUP5 ADD SWAP2 PUSH1 0x1 ADD PUSH2 0x1F8D JUMP JUMPDEST POP SWAP1 SWAP7 SWAP6 POP POP POP POP POP POP JUMP JUMPDEST PUSH1 0x0 PUSH1 0x20 DUP1 DUP4 MSTORE DUP4 MLOAD DUP1 DUP3 DUP6 ADD MSTORE PUSH1 0x0 JUMPDEST DUP2 DUP2 LT ISZERO PUSH2 0x1FEB JUMPI DUP6 DUP2 ADD DUP4 ADD MLOAD DUP6 DUP3 ADD PUSH1 0x40 ADD MSTORE DUP3 ADD PUSH2 0x1FCF JUMP JUMPDEST DUP2 DUP2 GT ISZERO PUSH2 0x1FFD JUMPI PUSH1 0x0 PUSH1 0x40 DUP4 DUP8 ADD ADD MSTORE JUMPDEST POP PUSH1 0x1F ADD PUSH1 0x1F NOT AND SWAP3 SWAP1 SWAP3 ADD PUSH1 0x40 ADD SWAP4 SWAP3 POP POP POP JUMP JUMPDEST PUSH4 0x4E487B71 PUSH1 0xE0 SHL PUSH1 0x0 MSTORE PUSH1 0x11 PUSH1 0x4 MSTORE PUSH1 0x24 PUSH1 0x0 REVERT JUMPDEST PUSH1 0x0 DUP3 NOT DUP3 GT ISZERO PUSH2 0x203C JUMPI PUSH2 0x203C PUSH2 0x2013 JUMP JUMPDEST POP ADD SWAP1 JUMP JUMPDEST PUSH1 0x0 DUP3 DUP3 LT ISZERO PUSH2 0x2053 JUMPI PUSH2 0x2053 PUSH2 0x2013 JUMP JUMPDEST POP SUB SWAP1 JUMP JUMPDEST PUSH4 0x4E487B71 PUSH1 0xE0 SHL PUSH1 0x0 MSTORE PUSH1 0x32 PUSH1 0x4 MSTORE PUSH1 0x24 PUSH1 0x0 REVERT JUMPDEST PUSH1 0x0 PUSH1 0x0 NOT DUP3 EQ ISZERO PUSH2 0x2082 JUMPI PUSH2 0x2082 PUSH2 0x2013 JUMP JUMPDEST POP PUSH1 0x1 ADD SWAP1 JUMP JUMPDEST PUSH1 0x0 PUSH1 0x20 DUP3 DUP5 SUB SLT ISZERO PUSH2 0x209B JUMPI PUSH1 0x0 DUP1 REVERT JUMPDEST POP MLOAD SWAP2 SWAP1 POP JUMP JUMPDEST PUSH4 0x4E487B71 PUSH1 0xE0 SHL PUSH1 0x0 MSTORE PUSH1 0x12 PUSH1 0x4 MSTORE PUSH1 0x24 PUSH1 0x0 REVERT JUMPDEST PUSH1 0x0 DUP3 PUSH2 0x20C7 JUMPI PUSH2 0x20C7 PUSH2 0x20A2 JUMP JUMPDEST POP MOD SWAP1 JUMP JUMPDEST PUSH1 0x0 DUP3 PUSH2 0x20DB JUMPI PUSH2 0x20DB PUSH2 0x20A2 JUMP JUMPDEST POP DIV SWAP1 JUMP JUMPDEST PUSH1 0x0 DUP2 PUSH1 0x0 NOT DIV DUP4 GT DUP3 ISZERO ISZERO AND ISZERO PUSH2 0x20FA JUMPI PUSH2 0x20FA PUSH2 0x2013 JUMP JUMPDEST POP MUL SWAP1 JUMP JUMPDEST PUSH1 0x0 PUSH1 0x20 DUP3 DUP5 SUB SLT ISZERO PUSH2 0x2111 JUMPI PUSH1 0x0 DUP1 REVERT JUMPDEST DUP2 MLOAD DUP1 ISZERO ISZERO DUP2 EQ PUSH2 0x1050 JUMPI PUSH1 0x0 DUP1 REVERT JUMPDEST PUSH4 0x4E487B71 PUSH1 0xE0 SHL PUSH1 0x0 MSTORE PUSH1 0x31 PUSH1 0x4 MSTORE PUSH1 0x24 PUSH1 0x0 REVERT JUMPDEST PUSH1 0x0 DUP1 DUP4 SLT DUP1 ISZERO PUSH1 0x1 PUSH1 0xFF SHL DUP6 ADD DUP5 SLT AND ISZERO PUSH2 0x2155 JUMPI PUSH2 0x2155 PUSH2 0x2013 JUMP JUMPDEST PUSH1 0x1 PUSH1 0x1 PUSH1 0xFF SHL SUB DUP5 ADD DUP4 SGT DUP2 AND ISZERO PUSH2 0x2170 JUMPI PUSH2 0x2170 PUSH2 0x2013 JUMP JUMPDEST POP POP SUB SWAP1 JUMP JUMPDEST PUSH1 0x0 DUP3 PUSH2 0x2185 JUMPI PUSH2 0x2185 PUSH2 0x20A2 JUMP JUMPDEST PUSH1 0x1 PUSH1 0xFF SHL DUP3 EQ PUSH1 0x0 NOT DUP5 EQ AND ISZERO PUSH2 0x219F JUMPI PUSH2 0x219F PUSH2 0x2013 JUMP JUMPDEST POP SDIV SWAP1 JUMP JUMPDEST PUSH1 0x0 DUP1 DUP3 SLT DUP1 ISZERO PUSH1 0x1 PUSH1 0x1 PUSH1 0xFF SHL SUB DUP5 SWAP1 SUB DUP6 SGT AND ISZERO PUSH2 0x21C6 JUMPI PUSH2 0x21C6 PUSH2 0x2013 JUMP JUMPDEST PUSH1 0x1 PUSH1 0xFF SHL DUP4 SWAP1 SUB DUP5 SLT DUP2 AND ISZERO PUSH2 0x21DF JUMPI PUSH2 0x21DF PUSH2 0x2013 JUMP JUMPDEST POP POP ADD SWAP1 JUMP JUMPDEST PUSH1 0x0 PUSH1 0x1 PUSH1 0x1 PUSH1 0xFF SHL SUB DUP3 EQ ISZERO PUSH2 0x2082 JUMPI PUSH2 0x2082 PUSH2 0x2013 JUMP JUMPDEST PUSH1 0x0 PUSH1 0x1 PUSH1 0xFF SHL DUP3 EQ ISZERO PUSH2 0x2214 JUMPI PUSH2 0x2214 PUSH2 0x2013 JUMP JUMPDEST POP PUSH1 0x0 NOT ADD SWAP1 JUMP INVALID LOG2 PUSH5 0x6970667358 0x22 SLT KECCAK256 SELFBALANCE 0x2B JUMPDEST 0xB4 0xB8 SWAP11 0xD5 0x2B PUSH13 0xE1D075D649B054D3B0F1FD2F8C 0x5C CALLDATASIZE 0xB7 0x4F CREATE2 SSTORE 0xF8 SWAP5 MULMOD 0xAA PUSH5 0x736F6C6343 STOP ADDMOD EXP STOP CALLER ","sha1":"e9b48009d356c4d7d11421b03a145d2caaa5469e","source":"// SPDX-License-Identifier: LicenseRef-Gyro-1.0\n// for information on licensing please see the README in the GitHub repository <https://github.com/gyrostable/core-protocol>.\npragma solidity ^0.8.4;\n\nimport \"@openzeppelin/contracts/utils/math/Math.sol\";\nimport \"@openzeppelin/contracts/utils/math/SafeCast.sol\";\nimport \"@openzeppelin/contracts/utils/structs/EnumerableSet.sol\";\n\nimport \"../../interfaces/oracles/IUSDPriceOracle.sol\";\nimport \"../../interfaces/oracles/IRelativePriceOracle.sol\";\nimport \"../../interfaces/oracles/IUSDBatchPriceOracle.sol\";\nimport \"../../libraries/EnumerableExtensions.sol\";\n\nimport \"../auth/Governable.sol\";\n\nimport \"../../libraries/Errors.sol\";\nimport \"../../libraries/FixedPoint.sol\";\n\ncontract CheckedPriceOracle is IUSDPriceOracle, IUSDBatchPriceOracle, Governable {\n    using EnumerableSet for EnumerableSet.AddressSet;\n\n    using FixedPoint for uint256;\n    using SafeCast for uint256;\n    using SafeCast for int256;\n\n    uint256 public constant MAX_ABSOLUTE_WETH_DEVIATION = 50e18;\n    uint256 public constant INITIAL_RELATIVE_EPSILON = 0.02e18;\n    uint256 public constant MAX_RELATIVE_EPSILON = 0.1e18;\n\n    address public immutable wethAddress;\n\n    IUSDPriceOracle public usdOracle;\n    IRelativePriceOracle public relativeOracle;\n\n    uint256 public relativeEpsilon;\n\n    EnumerableSet.AddressSet internal trustedSignerPriceOracles;\n\n    /// This list is going to be used for the twaps to be input into the price level checks.\n    /// These are the addresses of the assets to be paired with ETH e.g. USDC or USDT\n    EnumerableSet.AddressSet internal quoteAssetsForPriceLevelTWAPS;\n\n    /// @dev This list is used to check if the relative price of the tokens are consistent\n    EnumerableSet.AddressSet internal assetsForRelativePriceCheck;\n\n    event USDOracleUpdated(address indexed oracle);\n    event RelativeOracleUpdated(address indexed oracle);\n\n    event PriceLevelTWAPQuoteAssetAdded(address _addressToAdd);\n    event PriceLevelTWAPQuoteAssetRemoved(address _addressToRemove);\n\n    event AssetForRelativePriceCheckAdded(address _addressToAdd);\n    event AssetForRelativePriceCheckRemoved(address _addressToRemove);\n\n    event TrustedSignerOracleAdded(address _addressToAdd);\n    event TrustedSignerOracleRemoved(address _addressToRemove);\n\n    /// _usdOracle is for Chainlink\n    constructor(\n        address _governor,\n        address _usdOracle,\n        address _relativeOracle,\n        address _wethAddress\n    ) Governable(_governor) {\n        require(_usdOracle != address(0), Errors.INVALID_ARGUMENT);\n        require(_relativeOracle != address(0), Errors.INVALID_ARGUMENT);\n        usdOracle = IUSDPriceOracle(_usdOracle);\n        relativeOracle = IRelativePriceOracle(_relativeOracle);\n        relativeEpsilon = INITIAL_RELATIVE_EPSILON;\n        wethAddress = _wethAddress;\n    }\n\n    function setUSDOracle(address _usdOracle) external governanceOnly {\n        usdOracle = IUSDPriceOracle(_usdOracle);\n        emit USDOracleUpdated(_usdOracle);\n    }\n\n    function setRelativeOracle(address _relativeOracle) external governanceOnly {\n        relativeOracle = IRelativePriceOracle(_relativeOracle);\n        emit RelativeOracleUpdated(_relativeOracle);\n    }\n\n    function addSignedPriceSource(address _signedAssetToAdd) external governanceOnly {\n        trustedSignerPriceOracles.add(_signedAssetToAdd);\n        emit TrustedSignerOracleAdded(_signedAssetToAdd);\n    }\n\n    function removeSignedPriceSource(address _signedAssetToRemove) external governanceOnly {\n        trustedSignerPriceOracles.remove(_signedAssetToRemove);\n        emit TrustedSignerOracleRemoved(_signedAssetToRemove);\n    }\n\n    function listSignedPriceSource() external view returns (address[] memory) {\n        return trustedSignerPriceOracles.values();\n    }\n\n    function addQuoteAssetsForPriceLevelTwap(address _quoteAssetToAdd) external governanceOnly {\n        quoteAssetsForPriceLevelTWAPS.add(_quoteAssetToAdd);\n        emit PriceLevelTWAPQuoteAssetAdded(_quoteAssetToAdd);\n    }\n\n    function listQuoteAssetsForPriceLevelTwap() external view returns (address[] memory) {\n        return quoteAssetsForPriceLevelTWAPS.values();\n    }\n\n    function removeQuoteAssetsForPriceLevelTwap(address _quoteAssetToRemove)\n        external\n        governanceOnly\n    {\n        quoteAssetsForPriceLevelTWAPS.remove(_quoteAssetToRemove);\n        emit PriceLevelTWAPQuoteAssetRemoved(_quoteAssetToRemove);\n    }\n\n    function addAssetForRelativePriceCheck(address assetToAdd) external governanceOnly {\n        assetsForRelativePriceCheck.add(assetToAdd);\n        emit AssetForRelativePriceCheckAdded(assetToAdd);\n    }\n\n    function listAssetForRelativePriceCheck() external view returns (address[] memory) {\n        return assetsForRelativePriceCheck.values();\n    }\n\n    function removeAssetForRelativePriceCheck(address assetToRemove) external governanceOnly {\n        assetsForRelativePriceCheck.remove(assetToRemove);\n        emit AssetForRelativePriceCheckRemoved(assetToRemove);\n    }\n\n    function batchRelativePriceCheck(address[] memory tokenAddresses, uint256[] memory prices)\n        internal\n        view\n        returns (uint256[] memory)\n    {\n        uint256[] memory priceLevelTwaps = new uint256[](\n            tokenAddresses.length * quoteAssetsForPriceLevelTWAPS.length()\n        );\n\n        uint256 k;\n        for (uint256 i = 0; i < tokenAddresses.length; i++) {\n            bool couldCheck = false;\n\n            for (uint256 j = 0; j < assetsForRelativePriceCheck.length(); j++) {\n                address assetForCheck = assetsForRelativePriceCheck.at(j);\n                if (\n                    tokenAddresses[i] == assetForCheck ||\n                    !relativeOracle.isPairSupported(tokenAddresses[i], assetForCheck)\n                ) {\n                    continue;\n                }\n\n                uint256 relativePrice = relativeOracle.getRelativePrice(\n                    tokenAddresses[i],\n                    assetForCheck\n                );\n\n                if (\n                    tokenAddresses[i] == wethAddress &&\n                    quoteAssetsForPriceLevelTWAPS.contains(assetForCheck)\n                ) {\n                    priceLevelTwaps[k] = relativePrice;\n                    k++;\n                } else if (\n                    assetForCheck == wethAddress &&\n                    quoteAssetsForPriceLevelTWAPS.contains(tokenAddresses[i])\n                ) {\n                    priceLevelTwaps[k] = FixedPoint.ONE.divDown(relativePrice);\n                    k++;\n                }\n\n                uint256 assetForCheckPrice = _findPrice(assetForCheck, tokenAddresses, prices);\n                _ensureRelativePriceConsistency(prices[i], assetForCheckPrice, relativePrice);\n\n                couldCheck = true;\n                break;\n            }\n\n            require(couldCheck, Errors.ASSET_NOT_SUPPORTED);\n        }\n\n        uint256[] memory foundTwaps = new uint256[](k);\n        for (uint256 i = 0; i < k; i++) {\n            foundTwaps[i] = priceLevelTwaps[i];\n        }\n\n        return foundTwaps;\n    }\n\n    /// @inheritdoc IUSDPriceOracle\n    function getPriceUSD(address tokenAddress) public view override returns (uint256) {\n        address[] memory tokenAddresses = new address[](1);\n        tokenAddresses[0] = tokenAddress;\n        uint256[] memory prices = getPricesUSD(tokenAddresses);\n        return prices[0];\n    }\n\n    /// @inheritdoc IUSDBatchPriceOracle\n    function getPricesUSD(address[] memory tokenAddresses)\n        public\n        view\n        override\n        returns (uint256[] memory)\n    {\n        (uint256[] memory prices, , , ) = getPricesUSDWithMetadata(tokenAddresses);\n        return prices;\n    }\n\n    function getPricesUSDWithMetadata(address[] memory tokenAddresses)\n        public\n        view\n        returns (\n            uint256[] memory,\n            uint256,\n            uint256[] memory,\n            uint256[] memory\n        )\n    {\n        require(tokenAddresses.length > 0, Errors.INVALID_ARGUMENT);\n\n        uint256[] memory prices = new uint256[](tokenAddresses.length);\n\n        /// Will start with this being the WETH/USD price, this can be modified later if desired.\n        uint256 priceLevel;\n\n        for (uint256 i = 0; i < tokenAddresses.length; i++) {\n            prices[i] = usdOracle.getPriceUSD(tokenAddresses[i]);\n            if (tokenAddresses[i] == wethAddress) {\n                priceLevel = prices[i];\n            }\n        }\n\n        if (priceLevel == 0) {\n            priceLevel = usdOracle.getPriceUSD(wethAddress);\n        }\n\n        uint256[] memory priceLevelTwaps = batchRelativePriceCheck(tokenAddresses, prices);\n\n        uint256 numberOfTrustedSignerOracles = trustedSignerPriceOracles.length();\n        uint256[] memory signedPrices = new uint256[](numberOfTrustedSignerOracles);\n\n        for (uint256 i = 0; i < numberOfTrustedSignerOracles; i++) {\n            IUSDPriceOracle oracle = IUSDPriceOracle(trustedSignerPriceOracles.at(i));\n            signedPrices[i] = oracle.getPriceUSD(wethAddress);\n        }\n\n        _checkPriceLevel(priceLevel, signedPrices, priceLevelTwaps);\n\n        return (prices, priceLevel, signedPrices, priceLevelTwaps);\n    }\n\n    function setRelativeMaxEpsilon(uint256 _relativeEpsilon) external governanceOnly {\n        require(_relativeEpsilon > 0, Errors.INVALID_ARGUMENT);\n        require(_relativeEpsilon < MAX_RELATIVE_EPSILON, Errors.INVALID_ARGUMENT);\n\n        relativeEpsilon = _relativeEpsilon;\n    }\n\n    function _checkPriceLevel(\n        uint256 priceLevel,\n        uint256[] memory signedPrices,\n        uint256[] memory priceLevelTwaps\n    ) internal view {\n        uint256 trueWETH = getRobustWETHPrice(signedPrices, priceLevelTwaps);\n        uint256 absolutePriceDifference = priceLevel.absSub(trueWETH);\n        require(\n            absolutePriceDifference <= MAX_ABSOLUTE_WETH_DEVIATION,\n            Errors.ROOT_PRICE_NOT_GROUNDED\n        );\n    }\n\n    function _ensureRelativePriceConsistency(\n        uint256 aUSDPrice,\n        uint256 bUSDPrice,\n        uint256 abPrice\n    ) internal view {\n        uint256 abPriceFromUSD = aUSDPrice.divDown(bUSDPrice);\n        uint256 priceDifference = abPrice.absSub(abPriceFromUSD);\n        uint256 relativePriceDifference = priceDifference.divDown(abPrice);\n\n        require(relativePriceDifference <= relativeEpsilon, Errors.STALE_PRICE);\n    }\n\n    function _computeMinOrSecondMin(uint256[] memory twapPrices) internal pure returns (uint256) {\n        // min if there are two, or the 2nd min if more than two\n        uint256 min = twapPrices[0];\n        uint256 secondMin = 2**256 - 1;\n        for (uint256 i = 1; i < twapPrices.length; i++) {\n            if (twapPrices[i] < min) {\n                secondMin = min;\n                min = twapPrices[i];\n            } else if ((twapPrices[i] < secondMin)) {\n                secondMin = twapPrices[i];\n            }\n        }\n        if (twapPrices.length == 1) {\n            return twapPrices[0];\n        } else if (twapPrices.length == 2) {\n            return min;\n        } else {\n            return secondMin;\n        }\n    }\n\n    function _findPrice(\n        address target,\n        address[] memory tokenAddresses,\n        uint256[] memory prices\n    ) internal view returns (uint256) {\n        for (uint256 i = 0; i < tokenAddresses.length; i++) {\n            if (tokenAddresses[i] == target) {\n                return prices[i];\n            }\n        }\n        return usdOracle.getPriceUSD(target);\n    }\n\n    function _sort(uint256[] memory data) internal view returns (uint256[] memory) {\n        _quickSort(data, int256(0), int256(data.length - 1));\n        return data;\n    }\n\n    function _quickSort(\n        uint256[] memory arr,\n        int256 left,\n        int256 right\n    ) internal view {\n        int256 i = left;\n        int256 j = right;\n        if (i == j) return;\n        uint256 pivot = arr[uint256(left + (right - left) / 2)];\n        while (i <= j) {\n            while (arr[uint256(i)] < pivot) i++;\n            while (pivot < arr[uint256(j)]) j--;\n            if (i <= j) {\n                (arr[uint256(i)], arr[uint256(j)]) = (arr[uint256(j)], arr[uint256(i)]);\n                i++;\n                j--;\n            }\n        }\n        if (left < j) _quickSort(arr, left, j);\n        if (i < right) _quickSort(arr, i, right);\n    }\n\n    function _median(uint256[] memory array) internal view returns (uint256) {\n        _sort(array);\n        return\n            array.length % 2 == 0\n                ? Math.average(array[array.length / 2 - 1], array[array.length / 2])\n                : array[array.length / 2];\n    }\n\n    /// @notice this function provides an estimate of the true WETH price.\n    /// 1. Find the minimum TWAP price (or second minumum if >2 TWAP prices) from a given array.\n    /// 2. Add this to an array of signed prices\n    /// 3. Compute the median of this array\n    /// @param signedPrices an array of prices from trusted providers (e.g. Chainlink, Coinbase, OKEx ETH/USD price)\n    /// @param twapPrices an array of Time Weighted Moving Average ETH/stablecoin prices\n    function getRobustWETHPrice(uint256[] memory signedPrices, uint256[] memory twapPrices)\n        public\n        view\n        returns (uint256)\n    {\n        uint256 minTWAP;\n        if (twapPrices.length == 0) {\n            return _median(signedPrices);\n        } else {\n            minTWAP = _computeMinOrSecondMin(twapPrices);\n            uint256[] memory prices = new uint256[](signedPrices.length + 1);\n            prices[prices.length - 1] = minTWAP;\n            for (uint256 i = 0; i < prices.length - 1; i++) {\n                prices[i] = signedPrices[i];\n            }\n            return _median(prices);\n        }\n    }\n}\n","sourcePath":"contracts/oracles/CheckedPriceOracle.sol","type":"contract","deployment":{"address":"0xFBc87Da6f3Bc9Dc4Dbf81B4D100A737e2aF178d6","chainid":"137","blockHeight":36344660}}