{"abi":[{"inputs":[{"internalType":"address","name":"_governor","type":"address"}],"stateMutability":"nonpayable","type":"constructor","name":"constructor"},{"anonymous":false,"inputs":[{"indexed":false,"internalType":"address","name":"newGovernor","type":"address"}],"name":"GovernorChangeRequested","type":"event"},{"anonymous":false,"inputs":[{"indexed":false,"internalType":"address","name":"oldGovernor","type":"address"},{"indexed":false,"internalType":"address","name":"newGovernor","type":"address"}],"name":"GovernorChanged","type":"event"},{"anonymous":false,"inputs":[{"indexed":true,"internalType":"address","name":"assetA","type":"address"},{"indexed":true,"internalType":"address","name":"assetB","type":"address"},{"indexed":true,"internalType":"address","name":"pool","type":"address"}],"name":"PoolDeregistered","type":"event"},{"anonymous":false,"inputs":[{"indexed":true,"internalType":"address","name":"assetA","type":"address"},{"indexed":true,"internalType":"address","name":"assetB","type":"address"},{"indexed":true,"internalType":"address","name":"pool","type":"address"}],"name":"PoolRegistered","type":"event"},{"inputs":[],"name":"DEFAULT_TIME_WINDOW_LENGTH_SECONDS_AGO","outputs":[{"internalType":"uint32","name":"","type":"uint32"}],"stateMutability":"view","type":"function"},{"inputs":[],"name":"acceptGovernance","outputs":[],"stateMutability":"nonpayable","type":"function"},{"inputs":[{"internalType":"address","name":"newGovernor","type":"address"}],"name":"changeGovernor","outputs":[],"stateMutability":"nonpayable","type":"function"},{"inputs":[{"internalType":"address","name":"pool","type":"address"}],"name":"deregisterPool","outputs":[],"stateMutability":"nonpayable","type":"function"},{"inputs":[{"internalType":"address","name":"assetA","type":"address"},{"internalType":"address","name":"assetB","type":"address"}],"name":"getPool","outputs":[{"internalType":"address","name":"","type":"address"}],"stateMutability":"view","type":"function"},{"inputs":[],"name":"getPools","outputs":[{"internalType":"address[]","name":"","type":"address[]"}],"stateMutability":"view","type":"function"},{"inputs":[{"internalType":"address","name":"baseAsset","type":"address"},{"internalType":"address","name":"quoteAsset","type":"address"},{"internalType":"uint32","name":"windowLengthSeconds","type":"uint32"}],"name":"getRelativePrice","outputs":[{"internalType":"uint256","name":"","type":"uint256"}],"stateMutability":"view","type":"function"},{"inputs":[{"internalType":"address","name":"baseAsset","type":"address"},{"internalType":"address","name":"quoteAsset","type":"address"}],"name":"getRelativePrice","outputs":[{"internalType":"uint256","name":"","type":"uint256"}],"stateMutability":"view","type":"function"},{"inputs":[],"name":"governor","outputs":[{"internalType":"address","name":"","type":"address"}],"stateMutability":"view","type":"function"},{"inputs":[{"internalType":"address","name":"baseAsset","type":"address"},{"internalType":"address","name":"quoteAsset","type":"address"}],"name":"isPairSupported","outputs":[{"internalType":"bool","name":"","type":"bool"}],"stateMutability":"view","type":"function"},{"inputs":[],"name":"pendingGovernor","outputs":[{"internalType":"address","name":"","type":"address"}],"stateMutability":"view","type":"function"},{"inputs":[{"internalType":"address","name":"pool","type":"address"}],"name":"registerPool","outputs":[],"stateMutability":"nonpayable","type":"function"},{"inputs":[{"internalType":"uint32","name":"_timeWindowLengthSeconds","type":"uint32"}],"name":"setTimeWindowLengthSeconds","outputs":[],"stateMutability":"nonpayable","type":"function"},{"inputs":[],"name":"timeWindowLengthSeconds","outputs":[{"internalType":"uint32","name":"","type":"uint32"}],"stateMutability":"view","type":"function"}],"bytecode":"608060405234801561001057600080fd5b50604051611c0f380380611c0f83398101604081905261002f916100a0565b600080546001600160a01b0319166001600160a01b038316908117825560408051928352602083019190915282917fde4b3f61490b74c0ed6237523974fe299126bbbf8a8a7482fd220104c59b0c84910160405180910390a150506005805463ffffffff1916610e101790556100d0565b6000602082840312156100b257600080fd5b81516001600160a01b03811681146100c957600080fd5b9392505050565b611b30806100df6000396000f3fe608060405234801561001057600080fd5b50600436106100ea5760003560e01c80639446994a1161008c578063d41cbf7011610066578063d41cbf70146101ec578063e3056a34146101fc578063e4c0aaf41461020f578063ef5fe6e31461022257600080fd5b80639446994a146101a35780639b56e6a7146101c6578063abd90846146101d957600080fd5b8063531aa03e116100c8578063531aa03e14610147578063673a2a1f1461015a578063788e1fe71461016f5780637e72c7d71461019057600080fd5b80630c340a24146100ef5780630efad47e1461011f578063238efcbc1461013d575b600080fd5b600054610102906001600160a01b031681565b6040516001600160a01b0390911681526020015b60405180910390f35b610128610e1081565b60405163ffffffff9091168152602001610116565b610145610235565b005b610102610155366004611558565b6102ee565b610162610312565b6040516101169190611591565b61018261017d3660046115f7565b610323565b604051908152602001610116565b61014561019e36600461163e565b6104b7565b6101b66101b1366004611558565b61066c565b6040519015158152602001610116565b6101826101d4366004611558565b610683565b6101456101e736600461163e565b61069c565b6005546101289063ffffffff1681565b600154610102906001600160a01b031681565b61014561021d36600461163e565b610852565b61014561023036600461165b565b610927565b600154604080518082019091526002815261033360f41b6020820152906001600160a01b031633146102835760405162461bcd60e51b815260040161027a9190611676565b60405180910390fd5b5060008054600180546001600160a01b03198084166001600160a01b03808416919091179095551690556040805192909116808352336020840152917fde4b3f61490b74c0ed6237523974fe299126bbbf8a8a7482fd220104c59b0c8491015b60405180910390a150565b6000806102fb8484610989565b90506103086002826109f1565b9150505b92915050565b606061031e60026109fd565b905090565b60008061033085856102ee565b9050600061033e8285610aac565b5090506000866001600160a01b031663313ce5676040518163ffffffff1660e01b8152600401602060405180830381865afa158015610381573d6000803e3d6000fd5b505050506040513d601f19601f820116820180604052508101906103a591906116cb565b90506000866001600160a01b031663313ce5676040518163ffffffff1660e01b8152600401602060405180830381865afa1580156103e7573d6000803e3d6000fd5b505050506040513d601f19601f8201168201806040525081019061040b91906116cb565b9050866001600160a01b0316886001600160a01b0316101561046957600081610435846012611704565b61043f9190611729565b9050600061044e82600a611830565b905061045c85828c8c610ceb565b96505050505050506104b0565b600082610477836012611704565b6104819190611729565b9050600061049082600a611830565b905061045c6104a186838c8e610ceb565b670de0b6b3a764000090610de2565b9392505050565b600054604080518082019091526002815261033360f41b6020820152906001600160a01b031633146104fc5760405162461bcd60e51b815260040161027a9190611676565b506000816001600160a01b0316630dfe16816040518163ffffffff1660e01b8152600401602060405180830381865afa15801561053d573d6000803e3d6000fd5b505050506040513d601f19601f82011682018060405250810190610561919061183f565b90506000826001600160a01b031663d21220a76040518163ffffffff1660e01b8152600401602060405180830381865afa1580156105a3573d6000803e3d6000fd5b505050506040513d601f19601f820116820180604052508101906105c7919061183f565b905060006105d58383610989565b90506105e2600282610e52565b60405180604001604052806002815260200161333160f01b8152509061061b5760405162461bcd60e51b815260040161027a9190611676565b50836001600160a01b0316826001600160a01b0316846001600160a01b03167f95f85ca19ca718e16e83d968b056f6cb7afade4e84aaff658602527a63d497e360405160405180910390a450505050565b60006104b061067b8484610989565b600290610e5e565b6005546000906104b0908490849063ffffffff16610323565b600054604080518082019091526002815261033360f41b6020820152906001600160a01b031633146106e15760405162461bcd60e51b815260040161027a9190611676565b506000816001600160a01b0316630dfe16816040518163ffffffff1660e01b8152600401602060405180830381865afa158015610722573d6000803e3d6000fd5b505050506040513d601f19601f82011682018060405250810190610746919061183f565b90506000826001600160a01b031663d21220a76040518163ffffffff1660e01b8152600401602060405180830381865afa158015610788573d6000803e3d6000fd5b505050506040513d601f19601f820116820180604052508101906107ac919061183f565b905060006107ba8383610989565b90506107c860028286610e6a565b60405180604001604052806002815260200161333160f01b815250906108015760405162461bcd60e51b815260040161027a9190611676565b50836001600160a01b0316826001600160a01b0316846001600160a01b03167f61afef2e121f71511fab2583c5ac49a5dc1d7a8ad8ad91c44c8465f073a73ac460405160405180910390a450505050565b600054604080518082019091526002815261033360f41b6020820152906001600160a01b031633146108975760405162461bcd60e51b815260040161027a9190611676565b50604080518082019091526002815261333160f01b60208201526001600160a01b0382166108d85760405162461bcd60e51b815260040161027a9190611676565b50600180546001600160a01b0319166001600160a01b0383169081179091556040519081527f67235ba2e63c748a35b95c4f92a3bbc2a1389938170a5ce6c9add5d0b03a314a906020016102e3565b600054604080518082019091526002815261033360f41b6020820152906001600160a01b0316331461096c5760405162461bcd60e51b815260040161027a9190611676565b506005805463ffffffff191663ffffffff92909216919091179055565b6000826001600160a01b0316826001600160a01b031610156109a9579091905b6040516bffffffffffffffffffffffff19606085811b8216602084015284901b16603482015260480160408051601f1981840301815291905280516020909101209392505050565b60006104b08383610e88565b60606000610a0a83610ef8565b905060008167ffffffffffffffff811115610a2757610a2761185c565b604051908082528060200260200182016040528015610a50578160200160208202803683370190505b50905060005b82811015610aa457610a688582610f03565b828281518110610a7a57610a7a611872565b6001600160a01b039092166020928302919091019091015280610a9c81611888565b915050610a56565b509392505050565b60008063ffffffff8316610ae75760405162461bcd60e51b8152602060048201526002602482015261042560f41b604482015260640161027a565b6040805160028082526060820183526000926020830190803683370190505090508381600081518110610b1c57610b1c611872565b602002602001019063ffffffff16908163ffffffff1681525050600081600181518110610b4b57610b4b611872565b602002602001019063ffffffff16908163ffffffff1681525050600080866001600160a01b031663883bdbfd846040518263ffffffff1660e01b8152600401610b9491906118a3565b600060405180830381865afa158015610bb1573d6000803e3d6000fd5b505050506040513d6000823e601f3d908101601f19168201604052610bd991908101906119aa565b91509150600082600081518110610bf257610bf2611872565b602002602001015183600181518110610c0d57610c0d611872565b6020026020010151039050600082600081518110610c2d57610c2d611872565b602002602001015183600181518110610c4857610c48611872565b60200260200101510390508760030b8260060b81610c6857610c68611a76565b05965060008260060b128015610c9557508760030b8260060b81610c8e57610c8e611a76565b0760060b15155b15610ca257600019909601955b63ffffffff88166001600160a01b0302640100000000600160c01b03602083901b166001600160c01b03821681610cdb57610cdb611a76565b0496505050505050509250929050565b600080610cf786610f19565b90506001600160801b036001600160a01b03821611610d66576001600160a01b0380821680029084811690861610610d4657610d41600160c01b876001600160801b03168361124c565b610d5e565b610d5e81876001600160801b0316600160c01b61124c565b925050610dd9565b6000610d856001600160a01b038316806801000000000000000061124c565b9050836001600160a01b0316856001600160a01b031610610dbd57610db8600160801b876001600160801b03168361124c565b610dd5565b610dd581876001600160801b0316600160801b61124c565b9250505b50949350505050565b604080518082019091526002815261323560f01b602082015260009082610e1c5760405162461bcd60e51b815260040161027a9190611676565b5082610e2a5750600061030c565b6000610e3e670de0b6b3a764000085611a8c565b9050610e4a8382611aab565b91505061030c565b60006104b083836112fb565b60006104b08383611318565b6000610e8084846001600160a01b038516611324565b949350505050565b600081815260028301602052604081205480151580610eac5750610eac8484611318565b6104b05760405162461bcd60e51b815260206004820152601e60248201527f456e756d657261626c654d61703a206e6f6e6578697374656e74206b65790000604482015260640161027a565b600061030c82611341565b600080610f10848461134c565b95945050505050565b60008060008360020b12610f30578260020b610f38565b8260020b6000035b9050620d89e8811115610f715760405162461bcd60e51b81526020600482015260016024820152601560fa1b604482015260640161027a565b600060018216610f8557600160801b610f97565b6ffffcb933bd6fad37aa2d162d1a5940015b70ffffffffffffffffffffffffffffffffff1690506002821615610fcb576ffff97272373d413259a46990580e213a0260801c5b6004821615610fea576ffff2e50f5f656932ef12357cf3c7fdcc0260801c5b6008821615611009576fffe5caca7e10e4e61c3624eaa0941cd00260801c5b6010821615611028576fffcb9843d60f6159c9db58835c9266440260801c5b6020821615611047576fff973b41fa98c081472e6896dfb254c00260801c5b6040821615611066576fff2ea16466c96a3843ec78b326b528610260801c5b6080821615611085576ffe5dee046a99a2a811c461f1969c30530260801c5b6101008216156110a5576ffcbe86c7900a88aedcffc83b479aa3a40260801c5b6102008216156110c5576ff987a7253ac413176f2b074cf7815e540260801c5b6104008216156110e5576ff3392b0822b70005940c7a398e4b70f30260801c5b610800821615611105576fe7159475a2c29b7443b29c7fa6e889d90260801c5b611000821615611125576fd097f3bdfd2022b8845ad8f792aa58250260801c5b612000821615611145576fa9f746462d870fdf8a65dc1f90e061e50260801c5b614000821615611165576f70d869a156d2a1b890bb3df62baf32f70260801c5b618000821615611185576f31be135f97d08fd981231505542fcfa60260801c5b620100008216156111a6576f09aa508b5b7a84e1c677de54f3e99bc90260801c5b620200008216156111c6576e5d6af8dedb81196699c329225ee6040260801c5b620400008216156111e5576d2216e584f5fa1ea926041bedfe980260801c5b62080000821615611202576b048a170391f7dc42444e8fa20260801c5b60008460020b131561122357806000198161121f5761121f611a76565b0490505b64010000000081061561123757600161123a565b60005b60ff16602082901c0192505050919050565b600080806000198587098587029250828110838203039150508060001415611286576000841161127b57600080fd5b5082900490506104b0565b80841161129257600080fd5b60008486880960026001871981018816978890046003810283188082028403028082028403028082028403028082028403028082028403029081029092039091026000889003889004909101858311909403939093029303949094049190911702949350505050565b600081815260028301602052604081208190556104b08383611368565b60006104b08383611374565b60008281526002840160205260408120829055610e80848461138c565b600061030c82611398565b600080808061135b86866113a2565b9097909650945050505050565b60006104b083836113cd565b600081815260018301602052604081205415156104b0565b60006104b083836114c0565b600061030c825490565b600080806113b0858561150f565b600081815260029690960160205260409095205494959350505050565b600081815260018301602052604081205480156114b65760006113f1600183611acd565b855490915060009061140590600190611acd565b905081811461146a57600086600001828154811061142557611425611872565b906000526020600020015490508087600001848154811061144857611448611872565b6000918252602080832090910192909255918252600188019052604090208390555b855486908061147b5761147b611ae4565b60019003818190600052602060002001600090559055856001016000868152602001908152602001600020600090556001935050505061030c565b600091505061030c565b60008181526001830160205260408120546115075750815460018181018455600084815260208082209093018490558454848252828601909352604090209190915561030c565b50600061030c565b60006104b08383600082600001828154811061152d5761152d611872565b9060005260206000200154905092915050565b6001600160a01b038116811461155557600080fd5b50565b6000806040838503121561156b57600080fd5b823561157681611540565b9150602083013561158681611540565b809150509250929050565b6020808252825182820181905260009190848201906040850190845b818110156115d25783516001600160a01b0316835292840192918401916001016115ad565b50909695505050505050565b803563ffffffff811681146115f257600080fd5b919050565b60008060006060848603121561160c57600080fd5b833561161781611540565b9250602084013561162781611540565b9150611635604085016115de565b90509250925092565b60006020828403121561165057600080fd5b81356104b081611540565b60006020828403121561166d57600080fd5b6104b0826115de565b600060208083528351808285015260005b818110156116a357858101830151858201604001528201611687565b818111156116b5576000604083870101525b50601f01601f1916929092016040019392505050565b6000602082840312156116dd57600080fd5b815160ff811681146104b057600080fd5b634e487b7160e01b600052601160045260246000fd5b600060ff821660ff84168060ff03821115611721576117216116ee565b019392505050565b600060ff821660ff841680821015611743576117436116ee565b90039392505050565b600181815b8085111561178757816000190482111561176d5761176d6116ee565b8085161561177a57918102915b93841c9390800290611751565b509250929050565b60008261179e5750600161030c565b816117ab5750600061030c565b81600181146117c157600281146117cb576117e7565b600191505061030c565b60ff8411156117dc576117dc6116ee565b50506001821b61030c565b5060208310610133831016604e8410600b841016171561180a575081810a61030c565b611814838361174c565b8060001904821115611828576118286116ee565b029392505050565b60006104b060ff84168361178f565b60006020828403121561185157600080fd5b81516104b081611540565b634e487b7160e01b600052604160045260246000fd5b634e487b7160e01b600052603260045260246000fd5b600060001982141561189c5761189c6116ee565b5060010190565b6020808252825182820181905260009190848201906040850190845b818110156115d257835163ffffffff16835292840192918401916001016118bf565b604051601f8201601f1916810167ffffffffffffffff8111828210171561190a5761190a61185c565b604052919050565b600067ffffffffffffffff82111561192c5761192c61185c565b5060051b60200190565b600082601f83011261194757600080fd5b8151602061195c61195783611912565b6118e1565b82815260059290921b8401810191818101908684111561197b57600080fd5b8286015b8481101561199f57805161199281611540565b835291830191830161197f565b509695505050505050565b600080604083850312156119bd57600080fd5b825167ffffffffffffffff808211156119d557600080fd5b818501915085601f8301126119e957600080fd5b815160206119f961195783611912565b82815260059290921b84018101918181019089841115611a1857600080fd5b948201945b83861015611a465785518060060b8114611a375760008081fd5b82529482019490820190611a1d565b91880151919650909350505080821115611a5f57600080fd5b50611a6c85828601611936565b9150509250929050565b634e487b7160e01b600052601260045260246000fd5b6000816000190483118215151615611aa657611aa66116ee565b500290565b600082611ac857634e487b7160e01b600052601260045260246000fd5b500490565b600082821015611adf57611adf6116ee565b500390565b634e487b7160e01b600052603160045260246000fdfea2646970667358221220b36908de8575a437fb7fe9f03b94b7ef72863a4ab86e0a3a4b275d1dcbc1b75c64736f6c634300080a0033","bytecodeSha1":"61353311d2be792fa40415b2726abf8fd3df7eac","compiler":{"evm_version":"london","optimizer":{"enabled":true,"runs":200},"version":"0.8.10+commit.fc410830"},"contractName":"UniswapV3TwapOracle","language":"Solidity","natspec":{"kind":"dev","methods":{"acceptGovernance()":{"notice":"Called by the pending governor to approve the change"},"changeGovernor(address)":{"notice":"Changes the governor can only be called by the current governor"},"deregisterPool(address)":{"notice":"Deregisters a Uniswap pool"},"getPool(address,address)":{"notice":"Returns the Uniswap pool used to compute the TWAP between `assetA` and `assetB`"},"getPools()":{"notice":"Returns all the currently registered pools"},"getRelativePrice(address,address)":{"notice":"Quotes the price of `baseToken` relative to `quoteToken` The quoted price is always scaled with 18 decimals regardless of the source used for the oracle.","params":{"baseToken":"the token of which the price is to be quoted","quoteToken":"the token used to denominate the price"},"returns":{"_0":"the number of units of quote token per base token"}},"getRelativePrice(address,address,uint32)":{"notice":"Same as `getRelativePrice(address,address)` but allows to specify the time in seconds to use to compute the TWAP"},"governor()":{"notice":"Returns the current governor"},"pendingGovernor()":{"notice":"Returns the pending governor"},"registerPool(address)":{"notice":"Registers a Uniswap pool to be used as oracle We can only register a single pool per asset pair"},"setTimeWindowLengthSeconds(uint32)":{"notice":"Set number of seconds used for the time window of the UniV3 price oracle"}},"version":1},"opcodes":"PUSH1 0x80 PUSH1 0x40 MSTORE CALLVALUE DUP1 ISZERO PUSH2 0x10 JUMPI PUSH1 0x0 DUP1 REVERT JUMPDEST POP PUSH1 0x4 CALLDATASIZE LT PUSH2 0xEA JUMPI PUSH1 0x0 CALLDATALOAD PUSH1 0xE0 SHR DUP1 PUSH4 0x9446994A GT PUSH2 0x8C JUMPI DUP1 PUSH4 0xD41CBF70 GT PUSH2 0x66 JUMPI DUP1 PUSH4 0xD41CBF70 EQ PUSH2 0x1EC JUMPI DUP1 PUSH4 0xE3056A34 EQ PUSH2 0x1FC JUMPI DUP1 PUSH4 0xE4C0AAF4 EQ PUSH2 0x20F JUMPI DUP1 PUSH4 0xEF5FE6E3 EQ PUSH2 0x222 JUMPI PUSH1 0x0 DUP1 REVERT JUMPDEST DUP1 PUSH4 0x9446994A EQ PUSH2 0x1A3 JUMPI DUP1 PUSH4 0x9B56E6A7 EQ PUSH2 0x1C6 JUMPI DUP1 PUSH4 0xABD90846 EQ PUSH2 0x1D9 JUMPI PUSH1 0x0 DUP1 REVERT JUMPDEST DUP1 PUSH4 0x531AA03E GT PUSH2 0xC8 JUMPI DUP1 PUSH4 0x531AA03E EQ PUSH2 0x147 JUMPI DUP1 PUSH4 0x673A2A1F EQ PUSH2 0x15A JUMPI DUP1 PUSH4 0x788E1FE7 EQ PUSH2 0x16F JUMPI DUP1 PUSH4 0x7E72C7D7 EQ PUSH2 0x190 JUMPI PUSH1 0x0 DUP1 REVERT JUMPDEST DUP1 PUSH4 0xC340A24 EQ PUSH2 0xEF JUMPI DUP1 PUSH4 0xEFAD47E EQ PUSH2 0x11F JUMPI DUP1 PUSH4 0x238EFCBC EQ PUSH2 0x13D JUMPI JUMPDEST PUSH1 0x0 DUP1 REVERT JUMPDEST PUSH1 0x0 SLOAD PUSH2 0x102 SWAP1 PUSH1 0x1 PUSH1 0x1 PUSH1 0xA0 SHL SUB AND DUP2 JUMP JUMPDEST PUSH1 0x40 MLOAD PUSH1 0x1 PUSH1 0x1 PUSH1 0xA0 SHL SUB SWAP1 SWAP2 AND DUP2 MSTORE PUSH1 0x20 ADD JUMPDEST PUSH1 0x40 MLOAD DUP1 SWAP2 SUB SWAP1 RETURN JUMPDEST PUSH2 0x128 PUSH2 0xE10 DUP2 JUMP JUMPDEST PUSH1 0x40 MLOAD PUSH4 0xFFFFFFFF SWAP1 SWAP2 AND DUP2 MSTORE PUSH1 0x20 ADD PUSH2 0x116 JUMP JUMPDEST PUSH2 0x145 PUSH2 0x235 JUMP JUMPDEST STOP JUMPDEST PUSH2 0x102 PUSH2 0x155 CALLDATASIZE PUSH1 0x4 PUSH2 0x1558 JUMP JUMPDEST PUSH2 0x2EE JUMP JUMPDEST PUSH2 0x162 PUSH2 0x312 JUMP JUMPDEST PUSH1 0x40 MLOAD PUSH2 0x116 SWAP2 SWAP1 PUSH2 0x1591 JUMP JUMPDEST PUSH2 0x182 PUSH2 0x17D CALLDATASIZE PUSH1 0x4 PUSH2 0x15F7 JUMP JUMPDEST PUSH2 0x323 JUMP JUMPDEST PUSH1 0x40 MLOAD SWAP1 DUP2 MSTORE PUSH1 0x20 ADD PUSH2 0x116 JUMP JUMPDEST PUSH2 0x145 PUSH2 0x19E CALLDATASIZE PUSH1 0x4 PUSH2 0x163E JUMP JUMPDEST PUSH2 0x4B7 JUMP JUMPDEST PUSH2 0x1B6 PUSH2 0x1B1 CALLDATASIZE PUSH1 0x4 PUSH2 0x1558 JUMP JUMPDEST PUSH2 0x66C JUMP JUMPDEST PUSH1 0x40 MLOAD SWAP1 ISZERO ISZERO DUP2 MSTORE PUSH1 0x20 ADD PUSH2 0x116 JUMP JUMPDEST PUSH2 0x182 PUSH2 0x1D4 CALLDATASIZE PUSH1 0x4 PUSH2 0x1558 JUMP JUMPDEST PUSH2 0x683 JUMP JUMPDEST PUSH2 0x145 PUSH2 0x1E7 CALLDATASIZE PUSH1 0x4 PUSH2 0x163E JUMP JUMPDEST PUSH2 0x69C JUMP JUMPDEST PUSH1 0x5 SLOAD PUSH2 0x128 SWAP1 PUSH4 0xFFFFFFFF AND DUP2 JUMP JUMPDEST PUSH1 0x1 SLOAD PUSH2 0x102 SWAP1 PUSH1 0x1 PUSH1 0x1 PUSH1 0xA0 SHL SUB AND DUP2 JUMP JUMPDEST PUSH2 0x145 PUSH2 0x21D CALLDATASIZE PUSH1 0x4 PUSH2 0x163E JUMP JUMPDEST PUSH2 0x852 JUMP JUMPDEST PUSH2 0x145 PUSH2 0x230 CALLDATASIZE PUSH1 0x4 PUSH2 0x165B JUMP JUMPDEST PUSH2 0x927 JUMP JUMPDEST PUSH1 0x1 SLOAD PUSH1 0x40 DUP1 MLOAD DUP1 DUP3 ADD SWAP1 SWAP2 MSTORE PUSH1 0x2 DUP2 MSTORE PUSH2 0x333 PUSH1 0xF4 SHL PUSH1 0x20 DUP3 ADD MSTORE SWAP1 PUSH1 0x1 PUSH1 0x1 PUSH1 0xA0 SHL SUB AND CALLER EQ PUSH2 0x283 JUMPI PUSH1 0x40 MLOAD PUSH3 0x461BCD PUSH1 0xE5 SHL DUP2 MSTORE PUSH1 0x4 ADD PUSH2 0x27A SWAP2 SWAP1 PUSH2 0x1676 JUMP JUMPDEST PUSH1 0x40 MLOAD DUP1 SWAP2 SUB SWAP1 REVERT JUMPDEST POP PUSH1 0x0 DUP1 SLOAD PUSH1 0x1 DUP1 SLOAD PUSH1 0x1 PUSH1 0x1 PUSH1 0xA0 SHL SUB NOT DUP1 DUP5 AND PUSH1 0x1 PUSH1 0x1 PUSH1 0xA0 SHL SUB DUP1 DUP5 AND SWAP2 SWAP1 SWAP2 OR SWAP1 SWAP6 SSTORE AND SWAP1 SSTORE PUSH1 0x40 DUP1 MLOAD SWAP3 SWAP1 SWAP2 AND DUP1 DUP4 MSTORE CALLER PUSH1 0x20 DUP5 ADD MSTORE SWAP2 PUSH32 0xDE4B3F61490B74C0ED6237523974FE299126BBBF8A8A7482FD220104C59B0C84 SWAP2 ADD JUMPDEST PUSH1 0x40 MLOAD DUP1 SWAP2 SUB SWAP1 LOG1 POP JUMP JUMPDEST PUSH1 0x0 DUP1 PUSH2 0x2FB DUP5 DUP5 PUSH2 0x989 JUMP JUMPDEST SWAP1 POP PUSH2 0x308 PUSH1 0x2 DUP3 PUSH2 0x9F1 JUMP JUMPDEST SWAP2 POP POP JUMPDEST SWAP3 SWAP2 POP POP JUMP JUMPDEST PUSH1 0x60 PUSH2 0x31E PUSH1 0x2 PUSH2 0x9FD JUMP JUMPDEST SWAP1 POP SWAP1 JUMP JUMPDEST PUSH1 0x0 DUP1 PUSH2 0x330 DUP6 DUP6 PUSH2 0x2EE JUMP JUMPDEST SWAP1 POP PUSH1 0x0 PUSH2 0x33E DUP3 DUP6 PUSH2 0xAAC JUMP JUMPDEST POP SWAP1 POP PUSH1 0x0 DUP7 PUSH1 0x1 PUSH1 0x1 PUSH1 0xA0 SHL SUB AND PUSH4 0x313CE567 PUSH1 0x40 MLOAD DUP2 PUSH4 0xFFFFFFFF AND PUSH1 0xE0 SHL DUP2 MSTORE PUSH1 0x4 ADD PUSH1 0x20 PUSH1 0x40 MLOAD DUP1 DUP4 SUB DUP2 DUP7 GAS STATICCALL ISZERO DUP1 ISZERO PUSH2 0x381 JUMPI RETURNDATASIZE PUSH1 0x0 DUP1 RETURNDATACOPY RETURNDATASIZE PUSH1 0x0 REVERT JUMPDEST POP POP POP POP PUSH1 0x40 MLOAD RETURNDATASIZE PUSH1 0x1F NOT PUSH1 0x1F DUP3 ADD AND DUP3 ADD DUP1 PUSH1 0x40 MSTORE POP DUP2 ADD SWAP1 PUSH2 0x3A5 SWAP2 SWAP1 PUSH2 0x16CB JUMP JUMPDEST SWAP1 POP PUSH1 0x0 DUP7 PUSH1 0x1 PUSH1 0x1 PUSH1 0xA0 SHL SUB AND PUSH4 0x313CE567 PUSH1 0x40 MLOAD DUP2 PUSH4 0xFFFFFFFF AND PUSH1 0xE0 SHL DUP2 MSTORE PUSH1 0x4 ADD PUSH1 0x20 PUSH1 0x40 MLOAD DUP1 DUP4 SUB DUP2 DUP7 GAS STATICCALL ISZERO DUP1 ISZERO PUSH2 0x3E7 JUMPI RETURNDATASIZE PUSH1 0x0 DUP1 RETURNDATACOPY RETURNDATASIZE PUSH1 0x0 REVERT JUMPDEST POP POP POP POP PUSH1 0x40 MLOAD RETURNDATASIZE PUSH1 0x1F NOT PUSH1 0x1F DUP3 ADD AND DUP3 ADD DUP1 PUSH1 0x40 MSTORE POP DUP2 ADD SWAP1 PUSH2 0x40B SWAP2 SWAP1 PUSH2 0x16CB JUMP JUMPDEST SWAP1 POP DUP7 PUSH1 0x1 PUSH1 0x1 PUSH1 0xA0 SHL SUB AND DUP9 PUSH1 0x1 PUSH1 0x1 PUSH1 0xA0 SHL SUB AND LT ISZERO PUSH2 0x469 JUMPI PUSH1 0x0 DUP2 PUSH2 0x435 DUP5 PUSH1 0x12 PUSH2 0x1704 JUMP JUMPDEST PUSH2 0x43F SWAP2 SWAP1 PUSH2 0x1729 JUMP JUMPDEST SWAP1 POP PUSH1 0x0 PUSH2 0x44E DUP3 PUSH1 0xA PUSH2 0x1830 JUMP JUMPDEST SWAP1 POP PUSH2 0x45C DUP6 DUP3 DUP13 DUP13 PUSH2 0xCEB JUMP JUMPDEST SWAP7 POP POP POP POP POP POP POP PUSH2 0x4B0 JUMP JUMPDEST PUSH1 0x0 DUP3 PUSH2 0x477 DUP4 PUSH1 0x12 PUSH2 0x1704 JUMP JUMPDEST PUSH2 0x481 SWAP2 SWAP1 PUSH2 0x1729 JUMP JUMPDEST SWAP1 POP PUSH1 0x0 PUSH2 0x490 DUP3 PUSH1 0xA PUSH2 0x1830 JUMP JUMPDEST SWAP1 POP PUSH2 0x45C PUSH2 0x4A1 DUP7 DUP4 DUP13 DUP15 PUSH2 0xCEB JUMP JUMPDEST PUSH8 0xDE0B6B3A7640000 SWAP1 PUSH2 0xDE2 JUMP JUMPDEST SWAP4 SWAP3 POP POP POP JUMP JUMPDEST PUSH1 0x0 SLOAD PUSH1 0x40 DUP1 MLOAD DUP1 DUP3 ADD SWAP1 SWAP2 MSTORE PUSH1 0x2 DUP2 MSTORE PUSH2 0x333 PUSH1 0xF4 SHL PUSH1 0x20 DUP3 ADD MSTORE SWAP1 PUSH1 0x1 PUSH1 0x1 PUSH1 0xA0 SHL SUB AND CALLER EQ PUSH2 0x4FC JUMPI PUSH1 0x40 MLOAD PUSH3 0x461BCD PUSH1 0xE5 SHL DUP2 MSTORE PUSH1 0x4 ADD PUSH2 0x27A SWAP2 SWAP1 PUSH2 0x1676 JUMP JUMPDEST POP PUSH1 0x0 DUP2 PUSH1 0x1 PUSH1 0x1 PUSH1 0xA0 SHL SUB AND PUSH4 0xDFE1681 PUSH1 0x40 MLOAD DUP2 PUSH4 0xFFFFFFFF AND PUSH1 0xE0 SHL DUP2 MSTORE PUSH1 0x4 ADD PUSH1 0x20 PUSH1 0x40 MLOAD DUP1 DUP4 SUB DUP2 DUP7 GAS STATICCALL ISZERO DUP1 ISZERO PUSH2 0x53D JUMPI RETURNDATASIZE PUSH1 0x0 DUP1 RETURNDATACOPY RETURNDATASIZE PUSH1 0x0 REVERT JUMPDEST POP POP POP POP PUSH1 0x40 MLOAD RETURNDATASIZE PUSH1 0x1F NOT PUSH1 0x1F DUP3 ADD AND DUP3 ADD DUP1 PUSH1 0x40 MSTORE POP DUP2 ADD SWAP1 PUSH2 0x561 SWAP2 SWAP1 PUSH2 0x183F JUMP JUMPDEST SWAP1 POP PUSH1 0x0 DUP3 PUSH1 0x1 PUSH1 0x1 PUSH1 0xA0 SHL SUB AND PUSH4 0xD21220A7 PUSH1 0x40 MLOAD DUP2 PUSH4 0xFFFFFFFF AND PUSH1 0xE0 SHL DUP2 MSTORE PUSH1 0x4 ADD PUSH1 0x20 PUSH1 0x40 MLOAD DUP1 DUP4 SUB DUP2 DUP7 GAS STATICCALL ISZERO DUP1 ISZERO PUSH2 0x5A3 JUMPI RETURNDATASIZE PUSH1 0x0 DUP1 RETURNDATACOPY RETURNDATASIZE PUSH1 0x0 REVERT JUMPDEST POP POP POP POP PUSH1 0x40 MLOAD RETURNDATASIZE PUSH1 0x1F NOT PUSH1 0x1F DUP3 ADD AND DUP3 ADD DUP1 PUSH1 0x40 MSTORE POP DUP2 ADD SWAP1 PUSH2 0x5C7 SWAP2 SWAP1 PUSH2 0x183F JUMP JUMPDEST SWAP1 POP PUSH1 0x0 PUSH2 0x5D5 DUP4 DUP4 PUSH2 0x989 JUMP JUMPDEST SWAP1 POP PUSH2 0x5E2 PUSH1 0x2 DUP3 PUSH2 0xE52 JUMP JUMPDEST PUSH1 0x40 MLOAD DUP1 PUSH1 0x40 ADD PUSH1 0x40 MSTORE DUP1 PUSH1 0x2 DUP2 MSTORE PUSH1 0x20 ADD PUSH2 0x3331 PUSH1 0xF0 SHL DUP2 MSTORE POP SWAP1 PUSH2 0x61B JUMPI PUSH1 0x40 MLOAD PUSH3 0x461BCD PUSH1 0xE5 SHL DUP2 MSTORE PUSH1 0x4 ADD PUSH2 0x27A SWAP2 SWAP1 PUSH2 0x1676 JUMP JUMPDEST POP DUP4 PUSH1 0x1 PUSH1 0x1 PUSH1 0xA0 SHL SUB AND DUP3 PUSH1 0x1 PUSH1 0x1 PUSH1 0xA0 SHL SUB AND DUP5 PUSH1 0x1 PUSH1 0x1 PUSH1 0xA0 SHL SUB AND PUSH32 0x95F85CA19CA718E16E83D968B056F6CB7AFADE4E84AAFF658602527A63D497E3 PUSH1 0x40 MLOAD PUSH1 0x40 MLOAD DUP1 SWAP2 SUB SWAP1 LOG4 POP POP POP POP JUMP JUMPDEST PUSH1 0x0 PUSH2 0x4B0 PUSH2 0x67B DUP5 DUP5 PUSH2 0x989 JUMP JUMPDEST PUSH1 0x2 SWAP1 PUSH2 0xE5E JUMP JUMPDEST PUSH1 0x5 SLOAD PUSH1 0x0 SWAP1 PUSH2 0x4B0 SWAP1 DUP5 SWAP1 DUP5 SWAP1 PUSH4 0xFFFFFFFF AND PUSH2 0x323 JUMP JUMPDEST PUSH1 0x0 SLOAD PUSH1 0x40 DUP1 MLOAD DUP1 DUP3 ADD SWAP1 SWAP2 MSTORE PUSH1 0x2 DUP2 MSTORE PUSH2 0x333 PUSH1 0xF4 SHL PUSH1 0x20 DUP3 ADD MSTORE SWAP1 PUSH1 0x1 PUSH1 0x1 PUSH1 0xA0 SHL SUB AND CALLER EQ PUSH2 0x6E1 JUMPI PUSH1 0x40 MLOAD PUSH3 0x461BCD PUSH1 0xE5 SHL DUP2 MSTORE PUSH1 0x4 ADD PUSH2 0x27A SWAP2 SWAP1 PUSH2 0x1676 JUMP JUMPDEST POP PUSH1 0x0 DUP2 PUSH1 0x1 PUSH1 0x1 PUSH1 0xA0 SHL SUB AND PUSH4 0xDFE1681 PUSH1 0x40 MLOAD DUP2 PUSH4 0xFFFFFFFF AND PUSH1 0xE0 SHL DUP2 MSTORE PUSH1 0x4 ADD PUSH1 0x20 PUSH1 0x40 MLOAD DUP1 DUP4 SUB DUP2 DUP7 GAS STATICCALL ISZERO DUP1 ISZERO PUSH2 0x722 JUMPI RETURNDATASIZE PUSH1 0x0 DUP1 RETURNDATACOPY RETURNDATASIZE PUSH1 0x0 REVERT JUMPDEST POP POP POP POP PUSH1 0x40 MLOAD RETURNDATASIZE PUSH1 0x1F NOT PUSH1 0x1F DUP3 ADD AND DUP3 ADD DUP1 PUSH1 0x40 MSTORE POP DUP2 ADD SWAP1 PUSH2 0x746 SWAP2 SWAP1 PUSH2 0x183F JUMP JUMPDEST SWAP1 POP PUSH1 0x0 DUP3 PUSH1 0x1 PUSH1 0x1 PUSH1 0xA0 SHL SUB AND PUSH4 0xD21220A7 PUSH1 0x40 MLOAD DUP2 PUSH4 0xFFFFFFFF AND PUSH1 0xE0 SHL DUP2 MSTORE PUSH1 0x4 ADD PUSH1 0x20 PUSH1 0x40 MLOAD DUP1 DUP4 SUB DUP2 DUP7 GAS STATICCALL ISZERO DUP1 ISZERO PUSH2 0x788 JUMPI RETURNDATASIZE PUSH1 0x0 DUP1 RETURNDATACOPY RETURNDATASIZE PUSH1 0x0 REVERT JUMPDEST POP POP POP POP PUSH1 0x40 MLOAD RETURNDATASIZE PUSH1 0x1F NOT PUSH1 0x1F DUP3 ADD AND DUP3 ADD DUP1 PUSH1 0x40 MSTORE POP DUP2 ADD SWAP1 PUSH2 0x7AC SWAP2 SWAP1 PUSH2 0x183F JUMP JUMPDEST SWAP1 POP PUSH1 0x0 PUSH2 0x7BA DUP4 DUP4 PUSH2 0x989 JUMP JUMPDEST SWAP1 POP PUSH2 0x7C8 PUSH1 0x2 DUP3 DUP7 PUSH2 0xE6A JUMP JUMPDEST PUSH1 0x40 MLOAD DUP1 PUSH1 0x40 ADD PUSH1 0x40 MSTORE DUP1 PUSH1 0x2 DUP2 MSTORE PUSH1 0x20 ADD PUSH2 0x3331 PUSH1 0xF0 SHL DUP2 MSTORE POP SWAP1 PUSH2 0x801 JUMPI PUSH1 0x40 MLOAD PUSH3 0x461BCD PUSH1 0xE5 SHL DUP2 MSTORE PUSH1 0x4 ADD PUSH2 0x27A SWAP2 SWAP1 PUSH2 0x1676 JUMP JUMPDEST POP DUP4 PUSH1 0x1 PUSH1 0x1 PUSH1 0xA0 SHL SUB AND DUP3 PUSH1 0x1 PUSH1 0x1 PUSH1 0xA0 SHL SUB AND DUP5 PUSH1 0x1 PUSH1 0x1 PUSH1 0xA0 SHL SUB AND PUSH32 0x61AFEF2E121F71511FAB2583C5AC49A5DC1D7A8AD8AD91C44C8465F073A73AC4 PUSH1 0x40 MLOAD PUSH1 0x40 MLOAD DUP1 SWAP2 SUB SWAP1 LOG4 POP POP POP POP JUMP JUMPDEST PUSH1 0x0 SLOAD PUSH1 0x40 DUP1 MLOAD DUP1 DUP3 ADD SWAP1 SWAP2 MSTORE PUSH1 0x2 DUP2 MSTORE PUSH2 0x333 PUSH1 0xF4 SHL PUSH1 0x20 DUP3 ADD MSTORE SWAP1 PUSH1 0x1 PUSH1 0x1 PUSH1 0xA0 SHL SUB AND CALLER EQ PUSH2 0x897 JUMPI PUSH1 0x40 MLOAD PUSH3 0x461BCD PUSH1 0xE5 SHL DUP2 MSTORE PUSH1 0x4 ADD PUSH2 0x27A SWAP2 SWAP1 PUSH2 0x1676 JUMP JUMPDEST POP PUSH1 0x40 DUP1 MLOAD DUP1 DUP3 ADD SWAP1 SWAP2 MSTORE PUSH1 0x2 DUP2 MSTORE PUSH2 0x3331 PUSH1 0xF0 SHL PUSH1 0x20 DUP3 ADD MSTORE PUSH1 0x1 PUSH1 0x1 PUSH1 0xA0 SHL SUB DUP3 AND PUSH2 0x8D8 JUMPI PUSH1 0x40 MLOAD PUSH3 0x461BCD PUSH1 0xE5 SHL DUP2 MSTORE PUSH1 0x4 ADD PUSH2 0x27A SWAP2 SWAP1 PUSH2 0x1676 JUMP JUMPDEST POP PUSH1 0x1 DUP1 SLOAD PUSH1 0x1 PUSH1 0x1 PUSH1 0xA0 SHL SUB NOT AND PUSH1 0x1 PUSH1 0x1 PUSH1 0xA0 SHL SUB DUP4 AND SWAP1 DUP2 OR SWAP1 SWAP2 SSTORE PUSH1 0x40 MLOAD SWAP1 DUP2 MSTORE PUSH32 0x67235BA2E63C748A35B95C4F92A3BBC2A1389938170A5CE6C9ADD5D0B03A314A SWAP1 PUSH1 0x20 ADD PUSH2 0x2E3 JUMP JUMPDEST PUSH1 0x0 SLOAD PUSH1 0x40 DUP1 MLOAD DUP1 DUP3 ADD SWAP1 SWAP2 MSTORE PUSH1 0x2 DUP2 MSTORE PUSH2 0x333 PUSH1 0xF4 SHL PUSH1 0x20 DUP3 ADD MSTORE SWAP1 PUSH1 0x1 PUSH1 0x1 PUSH1 0xA0 SHL SUB AND CALLER EQ PUSH2 0x96C JUMPI PUSH1 0x40 MLOAD PUSH3 0x461BCD PUSH1 0xE5 SHL DUP2 MSTORE PUSH1 0x4 ADD PUSH2 0x27A SWAP2 SWAP1 PUSH2 0x1676 JUMP JUMPDEST POP PUSH1 0x5 DUP1 SLOAD PUSH4 0xFFFFFFFF NOT AND PUSH4 0xFFFFFFFF SWAP3 SWAP1 SWAP3 AND SWAP2 SWAP1 SWAP2 OR SWAP1 SSTORE JUMP JUMPDEST PUSH1 0x0 DUP3 PUSH1 0x1 PUSH1 0x1 PUSH1 0xA0 SHL SUB AND DUP3 PUSH1 0x1 PUSH1 0x1 PUSH1 0xA0 SHL SUB AND LT ISZERO PUSH2 0x9A9 JUMPI SWAP1 SWAP2 SWAP1 JUMPDEST PUSH1 0x40 MLOAD PUSH12 0xFFFFFFFFFFFFFFFFFFFFFFFF NOT PUSH1 0x60 DUP6 DUP2 SHL DUP3 AND PUSH1 0x20 DUP5 ADD MSTORE DUP5 SWAP1 SHL AND PUSH1 0x34 DUP3 ADD MSTORE PUSH1 0x48 ADD PUSH1 0x40 DUP1 MLOAD PUSH1 0x1F NOT DUP2 DUP5 SUB ADD DUP2 MSTORE SWAP2 SWAP1 MSTORE DUP1 MLOAD PUSH1 0x20 SWAP1 SWAP2 ADD KECCAK256 SWAP4 SWAP3 POP POP POP JUMP JUMPDEST PUSH1 0x0 PUSH2 0x4B0 DUP4 DUP4 PUSH2 0xE88 JUMP JUMPDEST PUSH1 0x60 PUSH1 0x0 PUSH2 0xA0A DUP4 PUSH2 0xEF8 JUMP JUMPDEST SWAP1 POP PUSH1 0x0 DUP2 PUSH8 0xFFFFFFFFFFFFFFFF DUP2 GT ISZERO PUSH2 0xA27 JUMPI PUSH2 0xA27 PUSH2 0x185C JUMP JUMPDEST PUSH1 0x40 MLOAD SWAP1 DUP1 DUP3 MSTORE DUP1 PUSH1 0x20 MUL PUSH1 0x20 ADD DUP3 ADD PUSH1 0x40 MSTORE DUP1 ISZERO PUSH2 0xA50 JUMPI DUP2 PUSH1 0x20 ADD PUSH1 0x20 DUP3 MUL DUP1 CALLDATASIZE DUP4 CALLDATACOPY ADD SWAP1 POP JUMPDEST POP SWAP1 POP PUSH1 0x0 JUMPDEST DUP3 DUP2 LT ISZERO PUSH2 0xAA4 JUMPI PUSH2 0xA68 DUP6 DUP3 PUSH2 0xF03 JUMP JUMPDEST DUP3 DUP3 DUP2 MLOAD DUP2 LT PUSH2 0xA7A JUMPI PUSH2 0xA7A PUSH2 0x1872 JUMP JUMPDEST PUSH1 0x1 PUSH1 0x1 PUSH1 0xA0 SHL SUB SWAP1 SWAP3 AND PUSH1 0x20 SWAP3 DUP4 MUL SWAP2 SWAP1 SWAP2 ADD SWAP1 SWAP2 ADD MSTORE DUP1 PUSH2 0xA9C DUP2 PUSH2 0x1888 JUMP JUMPDEST SWAP2 POP POP PUSH2 0xA56 JUMP JUMPDEST POP SWAP4 SWAP3 POP POP POP JUMP JUMPDEST PUSH1 0x0 DUP1 PUSH4 0xFFFFFFFF DUP4 AND PUSH2 0xAE7 JUMPI PUSH1 0x40 MLOAD PUSH3 0x461BCD PUSH1 0xE5 SHL DUP2 MSTORE PUSH1 0x20 PUSH1 0x4 DUP3 ADD MSTORE PUSH1 0x2 PUSH1 0x24 DUP3 ADD MSTORE PUSH2 0x425 PUSH1 0xF4 SHL PUSH1 0x44 DUP3 ADD MSTORE PUSH1 0x64 ADD PUSH2 0x27A JUMP JUMPDEST PUSH1 0x40 DUP1 MLOAD PUSH1 0x2 DUP1 DUP3 MSTORE PUSH1 0x60 DUP3 ADD DUP4 MSTORE PUSH1 0x0 SWAP3 PUSH1 0x20 DUP4 ADD SWAP1 DUP1 CALLDATASIZE DUP4 CALLDATACOPY ADD SWAP1 POP POP SWAP1 POP DUP4 DUP2 PUSH1 0x0 DUP2 MLOAD DUP2 LT PUSH2 0xB1C JUMPI PUSH2 0xB1C PUSH2 0x1872 JUMP JUMPDEST PUSH1 0x20 MUL PUSH1 0x20 ADD ADD SWAP1 PUSH4 0xFFFFFFFF AND SWAP1 DUP2 PUSH4 0xFFFFFFFF AND DUP2 MSTORE POP POP PUSH1 0x0 DUP2 PUSH1 0x1 DUP2 MLOAD DUP2 LT PUSH2 0xB4B JUMPI PUSH2 0xB4B PUSH2 0x1872 JUMP JUMPDEST PUSH1 0x20 MUL PUSH1 0x20 ADD ADD SWAP1 PUSH4 0xFFFFFFFF AND SWAP1 DUP2 PUSH4 0xFFFFFFFF AND DUP2 MSTORE POP POP PUSH1 0x0 DUP1 DUP7 PUSH1 0x1 PUSH1 0x1 PUSH1 0xA0 SHL SUB AND PUSH4 0x883BDBFD DUP5 PUSH1 0x40 MLOAD DUP3 PUSH4 0xFFFFFFFF AND PUSH1 0xE0 SHL DUP2 MSTORE PUSH1 0x4 ADD PUSH2 0xB94 SWAP2 SWAP1 PUSH2 0x18A3 JUMP JUMPDEST PUSH1 0x0 PUSH1 0x40 MLOAD DUP1 DUP4 SUB DUP2 DUP7 GAS STATICCALL ISZERO DUP1 ISZERO PUSH2 0xBB1 JUMPI RETURNDATASIZE PUSH1 0x0 DUP1 RETURNDATACOPY RETURNDATASIZE PUSH1 0x0 REVERT JUMPDEST POP POP POP POP PUSH1 0x40 MLOAD RETURNDATASIZE PUSH1 0x0 DUP3 RETURNDATACOPY PUSH1 0x1F RETURNDATASIZE SWAP1 DUP2 ADD PUSH1 0x1F NOT AND DUP3 ADD PUSH1 0x40 MSTORE PUSH2 0xBD9 SWAP2 SWAP1 DUP2 ADD SWAP1 PUSH2 0x19AA JUMP JUMPDEST SWAP2 POP SWAP2 POP PUSH1 0x0 DUP3 PUSH1 0x0 DUP2 MLOAD DUP2 LT PUSH2 0xBF2 JUMPI PUSH2 0xBF2 PUSH2 0x1872 JUMP JUMPDEST PUSH1 0x20 MUL PUSH1 0x20 ADD ADD MLOAD DUP4 PUSH1 0x1 DUP2 MLOAD DUP2 LT PUSH2 0xC0D JUMPI PUSH2 0xC0D PUSH2 0x1872 JUMP JUMPDEST PUSH1 0x20 MUL PUSH1 0x20 ADD ADD MLOAD SUB SWAP1 POP PUSH1 0x0 DUP3 PUSH1 0x0 DUP2 MLOAD DUP2 LT PUSH2 0xC2D JUMPI PUSH2 0xC2D PUSH2 0x1872 JUMP JUMPDEST PUSH1 0x20 MUL PUSH1 0x20 ADD ADD MLOAD DUP4 PUSH1 0x1 DUP2 MLOAD DUP2 LT PUSH2 0xC48 JUMPI PUSH2 0xC48 PUSH2 0x1872 JUMP JUMPDEST PUSH1 0x20 MUL PUSH1 0x20 ADD ADD MLOAD SUB SWAP1 POP DUP8 PUSH1 0x3 SIGNEXTEND DUP3 PUSH1 0x6 SIGNEXTEND DUP2 PUSH2 0xC68 JUMPI PUSH2 0xC68 PUSH2 0x1A76 JUMP JUMPDEST SDIV SWAP7 POP PUSH1 0x0 DUP3 PUSH1 0x6 SIGNEXTEND SLT DUP1 ISZERO PUSH2 0xC95 JUMPI POP DUP8 PUSH1 0x3 SIGNEXTEND DUP3 PUSH1 0x6 SIGNEXTEND DUP2 PUSH2 0xC8E JUMPI PUSH2 0xC8E PUSH2 0x1A76 JUMP JUMPDEST SMOD PUSH1 0x6 SIGNEXTEND ISZERO ISZERO JUMPDEST ISZERO PUSH2 0xCA2 JUMPI PUSH1 0x0 NOT SWAP1 SWAP7 ADD SWAP6 JUMPDEST PUSH4 0xFFFFFFFF DUP9 AND PUSH1 0x1 PUSH1 0x1 PUSH1 0xA0 SHL SUB MUL PUSH5 0x100000000 PUSH1 0x1 PUSH1 0xC0 SHL SUB PUSH1 0x20 DUP4 SWAP1 SHL AND PUSH1 0x1 PUSH1 0x1 PUSH1 0xC0 SHL SUB DUP3 AND DUP2 PUSH2 0xCDB JUMPI PUSH2 0xCDB PUSH2 0x1A76 JUMP JUMPDEST DIV SWAP7 POP POP POP POP POP POP POP SWAP3 POP SWAP3 SWAP1 POP JUMP JUMPDEST PUSH1 0x0 DUP1 PUSH2 0xCF7 DUP7 PUSH2 0xF19 JUMP JUMPDEST SWAP1 POP PUSH1 0x1 PUSH1 0x1 PUSH1 0x80 SHL SUB PUSH1 0x1 PUSH1 0x1 PUSH1 0xA0 SHL SUB DUP3 AND GT PUSH2 0xD66 JUMPI PUSH1 0x1 PUSH1 0x1 PUSH1 0xA0 SHL SUB DUP1 DUP3 AND DUP1 MUL SWAP1 DUP5 DUP2 AND SWAP1 DUP7 AND LT PUSH2 0xD46 JUMPI PUSH2 0xD41 PUSH1 0x1 PUSH1 0xC0 SHL DUP8 PUSH1 0x1 PUSH1 0x1 PUSH1 0x80 SHL SUB AND DUP4 PUSH2 0x124C JUMP JUMPDEST PUSH2 0xD5E JUMP JUMPDEST PUSH2 0xD5E DUP2 DUP8 PUSH1 0x1 PUSH1 0x1 PUSH1 0x80 SHL SUB AND PUSH1 0x1 PUSH1 0xC0 SHL PUSH2 0x124C JUMP JUMPDEST SWAP3 POP POP PUSH2 0xDD9 JUMP JUMPDEST PUSH1 0x0 PUSH2 0xD85 PUSH1 0x1 PUSH1 0x1 PUSH1 0xA0 SHL SUB DUP4 AND DUP1 PUSH9 0x10000000000000000 PUSH2 0x124C JUMP JUMPDEST SWAP1 POP DUP4 PUSH1 0x1 PUSH1 0x1 PUSH1 0xA0 SHL SUB AND DUP6 PUSH1 0x1 PUSH1 0x1 PUSH1 0xA0 SHL SUB AND LT PUSH2 0xDBD JUMPI PUSH2 0xDB8 PUSH1 0x1 PUSH1 0x80 SHL DUP8 PUSH1 0x1 PUSH1 0x1 PUSH1 0x80 SHL SUB AND DUP4 PUSH2 0x124C JUMP JUMPDEST PUSH2 0xDD5 JUMP JUMPDEST PUSH2 0xDD5 DUP2 DUP8 PUSH1 0x1 PUSH1 0x1 PUSH1 0x80 SHL SUB AND PUSH1 0x1 PUSH1 0x80 SHL PUSH2 0x124C JUMP JUMPDEST SWAP3 POP POP JUMPDEST POP SWAP5 SWAP4 POP POP POP POP JUMP JUMPDEST PUSH1 0x40 DUP1 MLOAD DUP1 DUP3 ADD SWAP1 SWAP2 MSTORE PUSH1 0x2 DUP2 MSTORE PUSH2 0x3235 PUSH1 0xF0 SHL PUSH1 0x20 DUP3 ADD MSTORE PUSH1 0x0 SWAP1 DUP3 PUSH2 0xE1C JUMPI PUSH1 0x40 MLOAD PUSH3 0x461BCD PUSH1 0xE5 SHL DUP2 MSTORE PUSH1 0x4 ADD PUSH2 0x27A SWAP2 SWAP1 PUSH2 0x1676 JUMP JUMPDEST POP DUP3 PUSH2 0xE2A JUMPI POP PUSH1 0x0 PUSH2 0x30C JUMP JUMPDEST PUSH1 0x0 PUSH2 0xE3E PUSH8 0xDE0B6B3A7640000 DUP6 PUSH2 0x1A8C JUMP JUMPDEST SWAP1 POP PUSH2 0xE4A DUP4 DUP3 PUSH2 0x1AAB JUMP JUMPDEST SWAP2 POP POP PUSH2 0x30C JUMP JUMPDEST PUSH1 0x0 PUSH2 0x4B0 DUP4 DUP4 PUSH2 0x12FB JUMP JUMPDEST PUSH1 0x0 PUSH2 0x4B0 DUP4 DUP4 PUSH2 0x1318 JUMP JUMPDEST PUSH1 0x0 PUSH2 0xE80 DUP5 DUP5 PUSH1 0x1 PUSH1 0x1 PUSH1 0xA0 SHL SUB DUP6 AND PUSH2 0x1324 JUMP JUMPDEST SWAP5 SWAP4 POP POP POP POP JUMP JUMPDEST PUSH1 0x0 DUP2 DUP2 MSTORE PUSH1 0x2 DUP4 ADD PUSH1 0x20 MSTORE PUSH1 0x40 DUP2 KECCAK256 SLOAD DUP1 ISZERO ISZERO DUP1 PUSH2 0xEAC JUMPI POP PUSH2 0xEAC DUP5 DUP5 PUSH2 0x1318 JUMP JUMPDEST PUSH2 0x4B0 JUMPI PUSH1 0x40 MLOAD PUSH3 0x461BCD PUSH1 0xE5 SHL DUP2 MSTORE PUSH1 0x20 PUSH1 0x4 DUP3 ADD MSTORE PUSH1 0x1E PUSH1 0x24 DUP3 ADD MSTORE PUSH32 0x456E756D657261626C654D61703A206E6F6E6578697374656E74206B65790000 PUSH1 0x44 DUP3 ADD MSTORE PUSH1 0x64 ADD PUSH2 0x27A JUMP JUMPDEST PUSH1 0x0 PUSH2 0x30C DUP3 PUSH2 0x1341 JUMP JUMPDEST PUSH1 0x0 DUP1 PUSH2 0xF10 DUP5 DUP5 PUSH2 0x134C JUMP JUMPDEST SWAP6 SWAP5 POP POP POP POP POP JUMP JUMPDEST PUSH1 0x0 DUP1 PUSH1 0x0 DUP4 PUSH1 0x2 SIGNEXTEND SLT PUSH2 0xF30 JUMPI DUP3 PUSH1 0x2 SIGNEXTEND PUSH2 0xF38 JUMP JUMPDEST DUP3 PUSH1 0x2 SIGNEXTEND PUSH1 0x0 SUB JUMPDEST SWAP1 POP PUSH3 0xD89E8 DUP2 GT ISZERO PUSH2 0xF71 JUMPI PUSH1 0x40 MLOAD PUSH3 0x461BCD PUSH1 0xE5 SHL DUP2 MSTORE PUSH1 0x20 PUSH1 0x4 DUP3 ADD MSTORE PUSH1 0x1 PUSH1 0x24 DUP3 ADD MSTORE PUSH1 0x15 PUSH1 0xFA SHL PUSH1 0x44 DUP3 ADD MSTORE PUSH1 0x64 ADD PUSH2 0x27A JUMP JUMPDEST PUSH1 0x0 PUSH1 0x1 DUP3 AND PUSH2 0xF85 JUMPI PUSH1 0x1 PUSH1 0x80 SHL PUSH2 0xF97 JUMP JUMPDEST PUSH16 0xFFFCB933BD6FAD37AA2D162D1A594001 JUMPDEST PUSH17 0xFFFFFFFFFFFFFFFFFFFFFFFFFFFFFFFFFF AND SWAP1 POP PUSH1 0x2 DUP3 AND ISZERO PUSH2 0xFCB JUMPI PUSH16 0xFFF97272373D413259A46990580E213A MUL PUSH1 0x80 SHR JUMPDEST PUSH1 0x4 DUP3 AND ISZERO PUSH2 0xFEA JUMPI PUSH16 0xFFF2E50F5F656932EF12357CF3C7FDCC MUL PUSH1 0x80 SHR JUMPDEST PUSH1 0x8 DUP3 AND ISZERO PUSH2 0x1009 JUMPI PUSH16 0xFFE5CACA7E10E4E61C3624EAA0941CD0 MUL PUSH1 0x80 SHR JUMPDEST PUSH1 0x10 DUP3 AND ISZERO PUSH2 0x1028 JUMPI PUSH16 0xFFCB9843D60F6159C9DB58835C926644 MUL PUSH1 0x80 SHR JUMPDEST PUSH1 0x20 DUP3 AND ISZERO PUSH2 0x1047 JUMPI PUSH16 0xFF973B41FA98C081472E6896DFB254C0 MUL PUSH1 0x80 SHR JUMPDEST PUSH1 0x40 DUP3 AND ISZERO PUSH2 0x1066 JUMPI PUSH16 0xFF2EA16466C96A3843EC78B326B52861 MUL PUSH1 0x80 SHR JUMPDEST PUSH1 0x80 DUP3 AND ISZERO PUSH2 0x1085 JUMPI PUSH16 0xFE5DEE046A99A2A811C461F1969C3053 MUL PUSH1 0x80 SHR JUMPDEST PUSH2 0x100 DUP3 AND ISZERO PUSH2 0x10A5 JUMPI PUSH16 0xFCBE86C7900A88AEDCFFC83B479AA3A4 MUL PUSH1 0x80 SHR JUMPDEST PUSH2 0x200 DUP3 AND ISZERO PUSH2 0x10C5 JUMPI PUSH16 0xF987A7253AC413176F2B074CF7815E54 MUL PUSH1 0x80 SHR JUMPDEST PUSH2 0x400 DUP3 AND ISZERO PUSH2 0x10E5 JUMPI PUSH16 0xF3392B0822B70005940C7A398E4B70F3 MUL PUSH1 0x80 SHR JUMPDEST PUSH2 0x800 DUP3 AND ISZERO PUSH2 0x1105 JUMPI PUSH16 0xE7159475A2C29B7443B29C7FA6E889D9 MUL PUSH1 0x80 SHR JUMPDEST PUSH2 0x1000 DUP3 AND ISZERO PUSH2 0x1125 JUMPI PUSH16 0xD097F3BDFD2022B8845AD8F792AA5825 MUL PUSH1 0x80 SHR JUMPDEST PUSH2 0x2000 DUP3 AND ISZERO PUSH2 0x1145 JUMPI PUSH16 0xA9F746462D870FDF8A65DC1F90E061E5 MUL PUSH1 0x80 SHR JUMPDEST PUSH2 0x4000 DUP3 AND ISZERO PUSH2 0x1165 JUMPI PUSH16 0x70D869A156D2A1B890BB3DF62BAF32F7 MUL PUSH1 0x80 SHR JUMPDEST PUSH2 0x8000 DUP3 AND ISZERO PUSH2 0x1185 JUMPI PUSH16 0x31BE135F97D08FD981231505542FCFA6 MUL PUSH1 0x80 SHR JUMPDEST PUSH3 0x10000 DUP3 AND ISZERO PUSH2 0x11A6 JUMPI PUSH16 0x9AA508B5B7A84E1C677DE54F3E99BC9 MUL PUSH1 0x80 SHR JUMPDEST PUSH3 0x20000 DUP3 AND ISZERO PUSH2 0x11C6 JUMPI PUSH15 0x5D6AF8DEDB81196699C329225EE604 MUL PUSH1 0x80 SHR JUMPDEST PUSH3 0x40000 DUP3 AND ISZERO PUSH2 0x11E5 JUMPI PUSH14 0x2216E584F5FA1EA926041BEDFE98 MUL PUSH1 0x80 SHR JUMPDEST PUSH3 0x80000 DUP3 AND ISZERO PUSH2 0x1202 JUMPI PUSH12 0x48A170391F7DC42444E8FA2 MUL PUSH1 0x80 SHR JUMPDEST PUSH1 0x0 DUP5 PUSH1 0x2 SIGNEXTEND SGT ISZERO PUSH2 0x1223 JUMPI DUP1 PUSH1 0x0 NOT DUP2 PUSH2 0x121F JUMPI PUSH2 0x121F PUSH2 0x1A76 JUMP JUMPDEST DIV SWAP1 POP JUMPDEST PUSH5 0x100000000 DUP2 MOD ISZERO PUSH2 0x1237 JUMPI PUSH1 0x1 PUSH2 0x123A JUMP JUMPDEST PUSH1 0x0 JUMPDEST PUSH1 0xFF AND PUSH1 0x20 DUP3 SWAP1 SHR ADD SWAP3 POP POP POP SWAP2 SWAP1 POP JUMP JUMPDEST PUSH1 0x0 DUP1 DUP1 PUSH1 0x0 NOT DUP6 DUP8 MULMOD DUP6 DUP8 MUL SWAP3 POP DUP3 DUP2 LT DUP4 DUP3 SUB SUB SWAP2 POP POP DUP1 PUSH1 0x0 EQ ISZERO PUSH2 0x1286 JUMPI PUSH1 0x0 DUP5 GT PUSH2 0x127B JUMPI PUSH1 0x0 DUP1 REVERT JUMPDEST POP DUP3 SWAP1 DIV SWAP1 POP PUSH2 0x4B0 JUMP JUMPDEST DUP1 DUP5 GT PUSH2 0x1292 JUMPI PUSH1 0x0 DUP1 REVERT JUMPDEST PUSH1 0x0 DUP5 DUP7 DUP9 MULMOD PUSH1 0x2 PUSH1 0x1 DUP8 NOT DUP2 ADD DUP9 AND SWAP8 DUP9 SWAP1 DIV PUSH1 0x3 DUP2 MUL DUP4 XOR DUP1 DUP3 MUL DUP5 SUB MUL DUP1 DUP3 MUL DUP5 SUB MUL DUP1 DUP3 MUL DUP5 SUB MUL DUP1 DUP3 MUL DUP5 SUB MUL DUP1 DUP3 MUL DUP5 SUB MUL SWAP1 DUP2 MUL SWAP1 SWAP3 SUB SWAP1 SWAP2 MUL PUSH1 0x0 DUP9 SWAP1 SUB DUP9 SWAP1 DIV SWAP1 SWAP2 ADD DUP6 DUP4 GT SWAP1 SWAP5 SUB SWAP4 SWAP1 SWAP4 MUL SWAP4 SUB SWAP5 SWAP1 SWAP5 DIV SWAP2 SWAP1 SWAP2 OR MUL SWAP5 SWAP4 POP POP POP POP JUMP JUMPDEST PUSH1 0x0 DUP2 DUP2 MSTORE PUSH1 0x2 DUP4 ADD PUSH1 0x20 MSTORE PUSH1 0x40 DUP2 KECCAK256 DUP2 SWAP1 SSTORE PUSH2 0x4B0 DUP4 DUP4 PUSH2 0x1368 JUMP JUMPDEST PUSH1 0x0 PUSH2 0x4B0 DUP4 DUP4 PUSH2 0x1374 JUMP JUMPDEST PUSH1 0x0 DUP3 DUP2 MSTORE PUSH1 0x2 DUP5 ADD PUSH1 0x20 MSTORE PUSH1 0x40 DUP2 KECCAK256 DUP3 SWAP1 SSTORE PUSH2 0xE80 DUP5 DUP5 PUSH2 0x138C JUMP JUMPDEST PUSH1 0x0 PUSH2 0x30C DUP3 PUSH2 0x1398 JUMP JUMPDEST PUSH1 0x0 DUP1 DUP1 DUP1 PUSH2 0x135B DUP7 DUP7 PUSH2 0x13A2 JUMP JUMPDEST SWAP1 SWAP8 SWAP1 SWAP7 POP SWAP5 POP POP POP POP POP JUMP JUMPDEST PUSH1 0x0 PUSH2 0x4B0 DUP4 DUP4 PUSH2 0x13CD JUMP JUMPDEST PUSH1 0x0 DUP2 DUP2 MSTORE PUSH1 0x1 DUP4 ADD PUSH1 0x20 MSTORE PUSH1 0x40 DUP2 KECCAK256 SLOAD ISZERO ISZERO PUSH2 0x4B0 JUMP JUMPDEST PUSH1 0x0 PUSH2 0x4B0 DUP4 DUP4 PUSH2 0x14C0 JUMP JUMPDEST PUSH1 0x0 PUSH2 0x30C DUP3 SLOAD SWAP1 JUMP JUMPDEST PUSH1 0x0 DUP1 DUP1 PUSH2 0x13B0 DUP6 DUP6 PUSH2 0x150F JUMP JUMPDEST PUSH1 0x0 DUP2 DUP2 MSTORE PUSH1 0x2 SWAP7 SWAP1 SWAP7 ADD PUSH1 0x20 MSTORE PUSH1 0x40 SWAP1 SWAP6 KECCAK256 SLOAD SWAP5 SWAP6 SWAP4 POP POP POP POP JUMP JUMPDEST PUSH1 0x0 DUP2 DUP2 MSTORE PUSH1 0x1 DUP4 ADD PUSH1 0x20 MSTORE PUSH1 0x40 DUP2 KECCAK256 SLOAD DUP1 ISZERO PUSH2 0x14B6 JUMPI PUSH1 0x0 PUSH2 0x13F1 PUSH1 0x1 DUP4 PUSH2 0x1ACD JUMP JUMPDEST DUP6 SLOAD SWAP1 SWAP2 POP PUSH1 0x0 SWAP1 PUSH2 0x1405 SWAP1 PUSH1 0x1 SWAP1 PUSH2 0x1ACD JUMP JUMPDEST SWAP1 POP DUP2 DUP2 EQ PUSH2 0x146A JUMPI PUSH1 0x0 DUP7 PUSH1 0x0 ADD DUP3 DUP2 SLOAD DUP2 LT PUSH2 0x1425 JUMPI PUSH2 0x1425 PUSH2 0x1872 JUMP JUMPDEST SWAP1 PUSH1 0x0 MSTORE PUSH1 0x20 PUSH1 0x0 KECCAK256 ADD SLOAD SWAP1 POP DUP1 DUP8 PUSH1 0x0 ADD DUP5 DUP2 SLOAD DUP2 LT PUSH2 0x1448 JUMPI PUSH2 0x1448 PUSH2 0x1872 JUMP JUMPDEST PUSH1 0x0 SWAP2 DUP3 MSTORE PUSH1 0x20 DUP1 DUP4 KECCAK256 SWAP1 SWAP2 ADD SWAP3 SWAP1 SWAP3 SSTORE SWAP2 DUP3 MSTORE PUSH1 0x1 DUP9 ADD SWAP1 MSTORE PUSH1 0x40 SWAP1 KECCAK256 DUP4 SWAP1 SSTORE JUMPDEST DUP6 SLOAD DUP7 SWAP1 DUP1 PUSH2 0x147B JUMPI PUSH2 0x147B PUSH2 0x1AE4 JUMP JUMPDEST PUSH1 0x1 SWAP1 SUB DUP2 DUP2 SWAP1 PUSH1 0x0 MSTORE PUSH1 0x20 PUSH1 0x0 KECCAK256 ADD PUSH1 0x0 SWAP1 SSTORE SWAP1 SSTORE DUP6 PUSH1 0x1 ADD PUSH1 0x0 DUP7 DUP2 MSTORE PUSH1 0x20 ADD SWAP1 DUP2 MSTORE PUSH1 0x20 ADD PUSH1 0x0 KECCAK256 PUSH1 0x0 SWAP1 SSTORE PUSH1 0x1 SWAP4 POP POP POP POP PUSH2 0x30C JUMP JUMPDEST PUSH1 0x0 SWAP2 POP POP PUSH2 0x30C JUMP JUMPDEST PUSH1 0x0 DUP2 DUP2 MSTORE PUSH1 0x1 DUP4 ADD PUSH1 0x20 MSTORE PUSH1 0x40 DUP2 KECCAK256 SLOAD PUSH2 0x1507 JUMPI POP DUP2 SLOAD PUSH1 0x1 DUP2 DUP2 ADD DUP5 SSTORE PUSH1 0x0 DUP5 DUP2 MSTORE PUSH1 0x20 DUP1 DUP3 KECCAK256 SWAP1 SWAP4 ADD DUP5 SWAP1 SSTORE DUP5 SLOAD DUP5 DUP3 MSTORE DUP3 DUP7 ADD SWAP1 SWAP4 MSTORE PUSH1 0x40 SWAP1 KECCAK256 SWAP2 SWAP1 SWAP2 SSTORE PUSH2 0x30C JUMP JUMPDEST POP PUSH1 0x0 PUSH2 0x30C JUMP JUMPDEST PUSH1 0x0 PUSH2 0x4B0 DUP4 DUP4 PUSH1 0x0 DUP3 PUSH1 0x0 ADD DUP3 DUP2 SLOAD DUP2 LT PUSH2 0x152D JUMPI PUSH2 0x152D PUSH2 0x1872 JUMP JUMPDEST SWAP1 PUSH1 0x0 MSTORE PUSH1 0x20 PUSH1 0x0 KECCAK256 ADD SLOAD SWAP1 POP SWAP3 SWAP2 POP POP JUMP JUMPDEST PUSH1 0x1 PUSH1 0x1 PUSH1 0xA0 SHL SUB DUP2 AND DUP2 EQ PUSH2 0x1555 JUMPI PUSH1 0x0 DUP1 REVERT JUMPDEST POP JUMP JUMPDEST PUSH1 0x0 DUP1 PUSH1 0x40 DUP4 DUP6 SUB SLT ISZERO PUSH2 0x156B JUMPI PUSH1 0x0 DUP1 REVERT JUMPDEST DUP3 CALLDATALOAD PUSH2 0x1576 DUP2 PUSH2 0x1540 JUMP JUMPDEST SWAP2 POP PUSH1 0x20 DUP4 ADD CALLDATALOAD PUSH2 0x1586 DUP2 PUSH2 0x1540 JUMP JUMPDEST DUP1 SWAP2 POP POP SWAP3 POP SWAP3 SWAP1 POP JUMP JUMPDEST PUSH1 0x20 DUP1 DUP3 MSTORE DUP3 MLOAD DUP3 DUP3 ADD DUP2 SWAP1 MSTORE PUSH1 0x0 SWAP2 SWAP1 DUP5 DUP3 ADD SWAP1 PUSH1 0x40 DUP6 ADD SWAP1 DUP5 JUMPDEST DUP2 DUP2 LT ISZERO PUSH2 0x15D2 JUMPI DUP4 MLOAD PUSH1 0x1 PUSH1 0x1 PUSH1 0xA0 SHL SUB AND DUP4 MSTORE SWAP3 DUP5 ADD SWAP3 SWAP2 DUP5 ADD SWAP2 PUSH1 0x1 ADD PUSH2 0x15AD JUMP JUMPDEST POP SWAP1 SWAP7 SWAP6 POP POP POP POP POP POP JUMP JUMPDEST DUP1 CALLDATALOAD PUSH4 0xFFFFFFFF DUP2 AND DUP2 EQ PUSH2 0x15F2 JUMPI PUSH1 0x0 DUP1 REVERT JUMPDEST SWAP2 SWAP1 POP JUMP JUMPDEST PUSH1 0x0 DUP1 PUSH1 0x0 PUSH1 0x60 DUP5 DUP7 SUB SLT ISZERO PUSH2 0x160C JUMPI PUSH1 0x0 DUP1 REVERT JUMPDEST DUP4 CALLDATALOAD PUSH2 0x1617 DUP2 PUSH2 0x1540 JUMP JUMPDEST SWAP3 POP PUSH1 0x20 DUP5 ADD CALLDATALOAD PUSH2 0x1627 DUP2 PUSH2 0x1540 JUMP JUMPDEST SWAP2 POP PUSH2 0x1635 PUSH1 0x40 DUP6 ADD PUSH2 0x15DE JUMP JUMPDEST SWAP1 POP SWAP3 POP SWAP3 POP SWAP3 JUMP JUMPDEST PUSH1 0x0 PUSH1 0x20 DUP3 DUP5 SUB SLT ISZERO PUSH2 0x1650 JUMPI PUSH1 0x0 DUP1 REVERT JUMPDEST DUP2 CALLDATALOAD PUSH2 0x4B0 DUP2 PUSH2 0x1540 JUMP JUMPDEST PUSH1 0x0 PUSH1 0x20 DUP3 DUP5 SUB SLT ISZERO PUSH2 0x166D JUMPI PUSH1 0x0 DUP1 REVERT JUMPDEST PUSH2 0x4B0 DUP3 PUSH2 0x15DE JUMP JUMPDEST PUSH1 0x0 PUSH1 0x20 DUP1 DUP4 MSTORE DUP4 MLOAD DUP1 DUP3 DUP6 ADD MSTORE PUSH1 0x0 JUMPDEST DUP2 DUP2 LT ISZERO PUSH2 0x16A3 JUMPI DUP6 DUP2 ADD DUP4 ADD MLOAD DUP6 DUP3 ADD PUSH1 0x40 ADD MSTORE DUP3 ADD PUSH2 0x1687 JUMP JUMPDEST DUP2 DUP2 GT ISZERO PUSH2 0x16B5 JUMPI PUSH1 0x0 PUSH1 0x40 DUP4 DUP8 ADD ADD MSTORE JUMPDEST POP PUSH1 0x1F ADD PUSH1 0x1F NOT AND SWAP3 SWAP1 SWAP3 ADD PUSH1 0x40 ADD SWAP4 SWAP3 POP POP POP JUMP JUMPDEST PUSH1 0x0 PUSH1 0x20 DUP3 DUP5 SUB SLT ISZERO PUSH2 0x16DD JUMPI PUSH1 0x0 DUP1 REVERT JUMPDEST DUP2 MLOAD PUSH1 0xFF DUP2 AND DUP2 EQ PUSH2 0x4B0 JUMPI PUSH1 0x0 DUP1 REVERT JUMPDEST PUSH4 0x4E487B71 PUSH1 0xE0 SHL PUSH1 0x0 MSTORE PUSH1 0x11 PUSH1 0x4 MSTORE PUSH1 0x24 PUSH1 0x0 REVERT JUMPDEST PUSH1 0x0 PUSH1 0xFF DUP3 AND PUSH1 0xFF DUP5 AND DUP1 PUSH1 0xFF SUB DUP3 GT ISZERO PUSH2 0x1721 JUMPI PUSH2 0x1721 PUSH2 0x16EE JUMP JUMPDEST ADD SWAP4 SWAP3 POP POP POP JUMP JUMPDEST PUSH1 0x0 PUSH1 0xFF DUP3 AND PUSH1 0xFF DUP5 AND DUP1 DUP3 LT ISZERO PUSH2 0x1743 JUMPI PUSH2 0x1743 PUSH2 0x16EE JUMP JUMPDEST SWAP1 SUB SWAP4 SWAP3 POP POP POP JUMP JUMPDEST PUSH1 0x1 DUP2 DUP2 JUMPDEST DUP1 DUP6 GT ISZERO PUSH2 0x1787 JUMPI DUP2 PUSH1 0x0 NOT DIV DUP3 GT ISZERO PUSH2 0x176D JUMPI PUSH2 0x176D PUSH2 0x16EE JUMP JUMPDEST DUP1 DUP6 AND ISZERO PUSH2 0x177A JUMPI SWAP2 DUP2 MUL SWAP2 JUMPDEST SWAP4 DUP5 SHR SWAP4 SWAP1 DUP1 MUL SWAP1 PUSH2 0x1751 JUMP JUMPDEST POP SWAP3 POP SWAP3 SWAP1 POP JUMP JUMPDEST PUSH1 0x0 DUP3 PUSH2 0x179E JUMPI POP PUSH1 0x1 PUSH2 0x30C JUMP JUMPDEST DUP2 PUSH2 0x17AB JUMPI POP PUSH1 0x0 PUSH2 0x30C JUMP JUMPDEST DUP2 PUSH1 0x1 DUP2 EQ PUSH2 0x17C1 JUMPI PUSH1 0x2 DUP2 EQ PUSH2 0x17CB JUMPI PUSH2 0x17E7 JUMP JUMPDEST PUSH1 0x1 SWAP2 POP POP PUSH2 0x30C JUMP JUMPDEST PUSH1 0xFF DUP5 GT ISZERO PUSH2 0x17DC JUMPI PUSH2 0x17DC PUSH2 0x16EE JUMP JUMPDEST POP POP PUSH1 0x1 DUP3 SHL PUSH2 0x30C JUMP JUMPDEST POP PUSH1 0x20 DUP4 LT PUSH2 0x133 DUP4 LT AND PUSH1 0x4E DUP5 LT PUSH1 0xB DUP5 LT AND OR ISZERO PUSH2 0x180A JUMPI POP DUP2 DUP2 EXP PUSH2 0x30C JUMP JUMPDEST PUSH2 0x1814 DUP4 DUP4 PUSH2 0x174C JUMP JUMPDEST DUP1 PUSH1 0x0 NOT DIV DUP3 GT ISZERO PUSH2 0x1828 JUMPI PUSH2 0x1828 PUSH2 0x16EE JUMP JUMPDEST MUL SWAP4 SWAP3 POP POP POP JUMP JUMPDEST PUSH1 0x0 PUSH2 0x4B0 PUSH1 0xFF DUP5 AND DUP4 PUSH2 0x178F JUMP JUMPDEST PUSH1 0x0 PUSH1 0x20 DUP3 DUP5 SUB SLT ISZERO PUSH2 0x1851 JUMPI PUSH1 0x0 DUP1 REVERT JUMPDEST DUP2 MLOAD PUSH2 0x4B0 DUP2 PUSH2 0x1540 JUMP JUMPDEST PUSH4 0x4E487B71 PUSH1 0xE0 SHL PUSH1 0x0 MSTORE PUSH1 0x41 PUSH1 0x4 MSTORE PUSH1 0x24 PUSH1 0x0 REVERT JUMPDEST PUSH4 0x4E487B71 PUSH1 0xE0 SHL PUSH1 0x0 MSTORE PUSH1 0x32 PUSH1 0x4 MSTORE PUSH1 0x24 PUSH1 0x0 REVERT JUMPDEST PUSH1 0x0 PUSH1 0x0 NOT DUP3 EQ ISZERO PUSH2 0x189C JUMPI PUSH2 0x189C PUSH2 0x16EE JUMP JUMPDEST POP PUSH1 0x1 ADD SWAP1 JUMP JUMPDEST PUSH1 0x20 DUP1 DUP3 MSTORE DUP3 MLOAD DUP3 DUP3 ADD DUP2 SWAP1 MSTORE PUSH1 0x0 SWAP2 SWAP1 DUP5 DUP3 ADD SWAP1 PUSH1 0x40 DUP6 ADD SWAP1 DUP5 JUMPDEST DUP2 DUP2 LT ISZERO PUSH2 0x15D2 JUMPI DUP4 MLOAD PUSH4 0xFFFFFFFF AND DUP4 MSTORE SWAP3 DUP5 ADD SWAP3 SWAP2 DUP5 ADD SWAP2 PUSH1 0x1 ADD PUSH2 0x18BF JUMP JUMPDEST PUSH1 0x40 MLOAD PUSH1 0x1F DUP3 ADD PUSH1 0x1F NOT AND DUP2 ADD PUSH8 0xFFFFFFFFFFFFFFFF DUP2 GT DUP3 DUP3 LT OR ISZERO PUSH2 0x190A JUMPI PUSH2 0x190A PUSH2 0x185C JUMP JUMPDEST PUSH1 0x40 MSTORE SWAP2 SWAP1 POP JUMP JUMPDEST PUSH1 0x0 PUSH8 0xFFFFFFFFFFFFFFFF DUP3 GT ISZERO PUSH2 0x192C JUMPI PUSH2 0x192C PUSH2 0x185C JUMP JUMPDEST POP PUSH1 0x5 SHL PUSH1 0x20 ADD SWAP1 JUMP JUMPDEST PUSH1 0x0 DUP3 PUSH1 0x1F DUP4 ADD SLT PUSH2 0x1947 JUMPI PUSH1 0x0 DUP1 REVERT JUMPDEST DUP2 MLOAD PUSH1 0x20 PUSH2 0x195C PUSH2 0x1957 DUP4 PUSH2 0x1912 JUMP JUMPDEST PUSH2 0x18E1 JUMP JUMPDEST DUP3 DUP2 MSTORE PUSH1 0x5 SWAP3 SWAP1 SWAP3 SHL DUP5 ADD DUP2 ADD SWAP2 DUP2 DUP2 ADD SWAP1 DUP7 DUP5 GT ISZERO PUSH2 0x197B JUMPI PUSH1 0x0 DUP1 REVERT JUMPDEST DUP3 DUP7 ADD JUMPDEST DUP5 DUP2 LT ISZERO PUSH2 0x199F JUMPI DUP1 MLOAD PUSH2 0x1992 DUP2 PUSH2 0x1540 JUMP JUMPDEST DUP4 MSTORE SWAP2 DUP4 ADD SWAP2 DUP4 ADD PUSH2 0x197F JUMP JUMPDEST POP SWAP7 SWAP6 POP POP POP POP POP POP JUMP JUMPDEST PUSH1 0x0 DUP1 PUSH1 0x40 DUP4 DUP6 SUB SLT ISZERO PUSH2 0x19BD JUMPI PUSH1 0x0 DUP1 REVERT JUMPDEST DUP3 MLOAD PUSH8 0xFFFFFFFFFFFFFFFF DUP1 DUP3 GT ISZERO PUSH2 0x19D5 JUMPI PUSH1 0x0 DUP1 REVERT JUMPDEST DUP2 DUP6 ADD SWAP2 POP DUP6 PUSH1 0x1F DUP4 ADD SLT PUSH2 0x19E9 JUMPI PUSH1 0x0 DUP1 REVERT JUMPDEST DUP2 MLOAD PUSH1 0x20 PUSH2 0x19F9 PUSH2 0x1957 DUP4 PUSH2 0x1912 JUMP JUMPDEST DUP3 DUP2 MSTORE PUSH1 0x5 SWAP3 SWAP1 SWAP3 SHL DUP5 ADD DUP2 ADD SWAP2 DUP2 DUP2 ADD SWAP1 DUP10 DUP5 GT ISZERO PUSH2 0x1A18 JUMPI PUSH1 0x0 DUP1 REVERT JUMPDEST SWAP5 DUP3 ADD SWAP5 JUMPDEST DUP4 DUP7 LT ISZERO PUSH2 0x1A46 JUMPI DUP6 MLOAD DUP1 PUSH1 0x6 SIGNEXTEND DUP2 EQ PUSH2 0x1A37 JUMPI PUSH1 0x0 DUP1 DUP2 REVERT JUMPDEST DUP3 MSTORE SWAP5 DUP3 ADD SWAP5 SWAP1 DUP3 ADD SWAP1 PUSH2 0x1A1D JUMP JUMPDEST SWAP2 DUP9 ADD MLOAD SWAP2 SWAP7 POP SWAP1 SWAP4 POP POP POP DUP1 DUP3 GT ISZERO PUSH2 0x1A5F JUMPI PUSH1 0x0 DUP1 REVERT JUMPDEST POP PUSH2 0x1A6C DUP6 DUP3 DUP7 ADD PUSH2 0x1936 JUMP JUMPDEST SWAP2 POP POP SWAP3 POP SWAP3 SWAP1 POP JUMP JUMPDEST PUSH4 0x4E487B71 PUSH1 0xE0 SHL PUSH1 0x0 MSTORE PUSH1 0x12 PUSH1 0x4 MSTORE PUSH1 0x24 PUSH1 0x0 REVERT JUMPDEST PUSH1 0x0 DUP2 PUSH1 0x0 NOT DIV DUP4 GT DUP3 ISZERO ISZERO AND ISZERO PUSH2 0x1AA6 JUMPI PUSH2 0x1AA6 PUSH2 0x16EE JUMP JUMPDEST POP MUL SWAP1 JUMP JUMPDEST PUSH1 0x0 DUP3 PUSH2 0x1AC8 JUMPI PUSH4 0x4E487B71 PUSH1 0xE0 SHL PUSH1 0x0 MSTORE PUSH1 0x12 PUSH1 0x4 MSTORE PUSH1 0x24 PUSH1 0x0 REVERT JUMPDEST POP DIV SWAP1 JUMP JUMPDEST PUSH1 0x0 DUP3 DUP3 LT ISZERO PUSH2 0x1ADF JUMPI PUSH2 0x1ADF PUSH2 0x16EE JUMP JUMPDEST POP SUB SWAP1 JUMP JUMPDEST PUSH4 0x4E487B71 PUSH1 0xE0 SHL PUSH1 0x0 MSTORE PUSH1 0x31 PUSH1 0x4 MSTORE PUSH1 0x24 PUSH1 0x0 REVERT INVALID LOG2 PUSH5 0x6970667358 0x22 SLT KECCAK256 0xB3 PUSH10 0x8DE8575A437FB7FE9F0 EXTCODESIZE SWAP5 0xB7 0xEF PUSH19 0x863A4AB86E0A3A4B275D1DCBC1B75C64736F6C PUSH4 0x4300080A STOP CALLER ","sha1":"31f2d6fe9434d89627dc7ab81d61dce9ba08c1b5","source":"// SPDX-License-Identifier: LicenseRef-Gyro-1.0\n// for information on licensing please see the README in the GitHub repository <https://github.com/gyrostable/core-protocol>.\npragma solidity ^0.8.4;\n\nimport \"@openzeppelin/contracts/token/ERC20/extensions/IERC20Metadata.sol\";\nimport \"@openzeppelin/contracts/utils/structs/EnumerableMap.sol\";\n\nimport \"../auth/Governable.sol\";\n\nimport \"../../interfaces/oracles/IRelativePriceOracle.sol\";\nimport \"../../interfaces/vendor/uniswap/IUniswapV3Pool.sol\";\n\nimport \"../../libraries/vendor/OracleLibrary.sol\";\nimport \"../../libraries/Errors.sol\";\nimport \"../../libraries/FixedPoint.sol\";\nimport \"../../libraries/EnumerableExtensions.sol\";\n\ncontract UniswapV3TwapOracle is IRelativePriceOracle, Governable {\n    using FixedPoint for uint256;\n    using EnumerableMap for EnumerableMap.UintToAddressMap;\n    using EnumerableExtensions for EnumerableMap.UintToAddressMap;\n\n    event PoolRegistered(address indexed assetA, address indexed assetB, address indexed pool);\n    event PoolDeregistered(address indexed assetA, address indexed assetB, address indexed pool);\n\n    EnumerableMap.UintToAddressMap internal pools;\n\n    uint32 public constant DEFAULT_TIME_WINDOW_LENGTH_SECONDS_AGO = 3_600;\n\n    uint32 public timeWindowLengthSeconds;\n\n    constructor(address _governor) Governable(_governor) {\n        timeWindowLengthSeconds = DEFAULT_TIME_WINDOW_LENGTH_SECONDS_AGO;\n    }\n\n    /// @notice Registers a Uniswap pool to be used as oracle\n    /// We can only register a single pool per asset pair\n    function registerPool(address pool) external governanceOnly {\n        address assetA = IUniswapV3Pool(pool).token0();\n        address assetB = IUniswapV3Pool(pool).token1();\n        uint256 poolKey = getAssetsPairKey(assetA, assetB);\n\n        require(pools.set(poolKey, pool), Errors.INVALID_ARGUMENT);\n        emit PoolRegistered(assetA, assetB, pool);\n    }\n\n    /// @notice Deregisters a Uniswap pool\n    function deregisterPool(address pool) external governanceOnly {\n        address assetA = IUniswapV3Pool(pool).token0();\n        address assetB = IUniswapV3Pool(pool).token1();\n        uint256 poolKey = getAssetsPairKey(assetA, assetB);\n        require(pools.remove(poolKey), Errors.INVALID_ARGUMENT);\n        emit PoolDeregistered(assetA, assetB, pool);\n    }\n\n    /// @notice Set number of seconds used for the time window of the UniV3 price oracle\n    function setTimeWindowLengthSeconds(uint32 _timeWindowLengthSeconds) external governanceOnly {\n        timeWindowLengthSeconds = _timeWindowLengthSeconds;\n    }\n\n    /// @inheritdoc IRelativePriceOracle\n    function getRelativePrice(address baseAsset, address quoteAsset)\n        external\n        view\n        override\n        returns (uint256)\n    {\n        return getRelativePrice(baseAsset, quoteAsset, timeWindowLengthSeconds);\n    }\n\n    /// @notice Same as `getRelativePrice(address,address)` but allows to specify\n    /// the time in seconds to use to compute the TWAP\n    function getRelativePrice(\n        address baseAsset,\n        address quoteAsset,\n        uint32 windowLengthSeconds\n    ) public view returns (uint256) {\n        address pool = getPool(baseAsset, quoteAsset);\n        (int24 tick, ) = OracleLibrary.consult(pool, windowLengthSeconds);\n\n        uint8 baseDecimals = IERC20Metadata(baseAsset).decimals();\n        uint8 quoteDecimals = IERC20Metadata(quoteAsset).decimals();\n\n        if (baseAsset < quoteAsset) {\n            uint8 decimals = baseDecimals + 18 - quoteDecimals;\n            uint128 baseAmount = uint128(10**decimals);\n            return OracleLibrary.getQuoteAtTick(tick, baseAmount, baseAsset, quoteAsset);\n        } else {\n            uint8 decimals = quoteDecimals + 18 - baseDecimals;\n            uint128 baseAmount = uint128(10**decimals);\n            return\n                FixedPoint.ONE.divDown(\n                    OracleLibrary.getQuoteAtTick(tick, baseAmount, quoteAsset, baseAsset)\n                );\n        }\n    }\n\n    function isPairSupported(address baseAsset, address quoteAsset)\n        external\n        view\n        override\n        returns (bool)\n    {\n        return pools.contains(getAssetsPairKey(baseAsset, quoteAsset));\n    }\n\n    /// @notice Returns all the currently registered pools\n    function getPools() external view returns (address[] memory) {\n        return pools.valuesArray();\n    }\n\n    /// @notice Returns the Uniswap pool used to compute the TWAP between `assetA` and `assetB`\n    function getPool(address assetA, address assetB) public view returns (address) {\n        uint256 poolKey = getAssetsPairKey(assetA, assetB);\n        return pools.get(poolKey);\n    }\n\n    function getAssetsPairKey(address assetA, address assetB) internal pure returns (uint256) {\n        if (assetB < assetA) {\n            (assetA, assetB) = (assetB, assetA);\n        }\n        return uint256(keccak256(abi.encodePacked(assetA, assetB)));\n    }\n}\n","sourcePath":"contracts/oracles/UniswapV3TwapPriceOracle.sol","type":"contract","deployment":{"address":"0xfE5d9082B689D239c264001B2a5dBf9fC3E7d6b0","chainid":"137","blockHeight":36344383}}