{
  "abi": [
    {
      "inputs": [
        {
          "internalType": "address",
          "name": "_governor",
          "type": "address"
        },
        {
          "internalType": "address",
          "name": "_underlying",
          "type": "address"
        },
        {
          "internalType": "string",
          "name": "name",
          "type": "string"
        },
        {
          "internalType": "string",
          "name": "symbol",
          "type": "string"
        }
      ],
      "stateMutability": "nonpayable",
      "type": "constructor"
    },
    {
      "anonymous": false,
      "inputs": [
        {
          "indexed": true,
          "internalType": "address",
          "name": "owner",
          "type": "address"
        },
        {
          "indexed": true,
          "internalType": "address",
          "name": "spender",
          "type": "address"
        },
        {
          "indexed": false,
          "internalType": "uint256",
          "name": "value",
          "type": "uint256"
        }
      ],
      "name": "Approval",
      "type": "event"
    },
    {
      "anonymous": false,
      "inputs": [
        {
          "indexed": false,
          "internalType": "address",
          "name": "newGovernor",
          "type": "address"
        }
      ],
      "name": "GovernorChangeRequested",
      "type": "event"
    },
    {
      "anonymous": false,
      "inputs": [
        {
          "indexed": false,
          "internalType": "address",
          "name": "oldGovernor",
          "type": "address"
        },
        {
          "indexed": false,
          "internalType": "address",
          "name": "newGovernor",
          "type": "address"
        }
      ],
      "name": "GovernorChanged",
      "type": "event"
    },
    {
      "anonymous": false,
      "inputs": [
        {
          "indexed": true,
          "internalType": "address",
          "name": "from",
          "type": "address"
        },
        {
          "indexed": true,
          "internalType": "address",
          "name": "to",
          "type": "address"
        },
        {
          "indexed": false,
          "internalType": "uint256",
          "name": "value",
          "type": "uint256"
        }
      ],
      "name": "Transfer",
      "type": "event"
    },
    {
      "inputs": [],
      "name": "acceptGovernance",
      "outputs": [],
      "stateMutability": "nonpayable",
      "type": "function"
    },
    {
      "inputs": [
        {
          "internalType": "address",
          "name": "owner",
          "type": "address"
        },
        {
          "internalType": "address",
          "name": "spender",
          "type": "address"
        }
      ],
      "name": "allowance",
      "outputs": [
        {
          "internalType": "uint256",
          "name": "",
          "type": "uint256"
        }
      ],
      "stateMutability": "view",
      "type": "function"
    },
    {
      "inputs": [
        {
          "internalType": "address",
          "name": "spender",
          "type": "address"
        },
        {
          "internalType": "uint256",
          "name": "amount",
          "type": "uint256"
        }
      ],
      "name": "approve",
      "outputs": [
        {
          "internalType": "bool",
          "name": "",
          "type": "bool"
        }
      ],
      "stateMutability": "nonpayable",
      "type": "function"
    },
    {
      "inputs": [
        {
          "internalType": "address",
          "name": "account",
          "type": "address"
        }
      ],
      "name": "balanceOf",
      "outputs": [
        {
          "internalType": "uint256",
          "name": "",
          "type": "uint256"
        }
      ],
      "stateMutability": "view",
      "type": "function"
    },
    {
      "inputs": [
        {
          "internalType": "address",
          "name": "newGovernor",
          "type": "address"
        }
      ],
      "name": "changeGovernor",
      "outputs": [],
      "stateMutability": "nonpayable",
      "type": "function"
    },
    {
      "inputs": [],
      "name": "decimals",
      "outputs": [
        {
          "internalType": "uint8",
          "name": "",
          "type": "uint8"
        }
      ],
      "stateMutability": "view",
      "type": "function"
    },
    {
      "inputs": [
        {
          "internalType": "address",
          "name": "spender",
          "type": "address"
        },
        {
          "internalType": "uint256",
          "name": "subtractedValue",
          "type": "uint256"
        }
      ],
      "name": "decreaseAllowance",
      "outputs": [
        {
          "internalType": "bool",
          "name": "",
          "type": "bool"
        }
      ],
      "stateMutability": "nonpayable",
      "type": "function"
    },
    {
      "inputs": [],
      "name": "deployedAt",
      "outputs": [
        {
          "internalType": "uint256",
          "name": "",
          "type": "uint256"
        }
      ],
      "stateMutability": "view",
      "type": "function"
    },
    {
      "inputs": [
        {
          "internalType": "uint256",
          "name": "underlyingAmount",
          "type": "uint256"
        },
        {
          "internalType": "uint256",
          "name": "minVaultTokensOut",
          "type": "uint256"
        }
      ],
      "name": "deposit",
      "outputs": [
        {
          "internalType": "uint256",
          "name": "vaultTokensMinted",
          "type": "uint256"
        }
      ],
      "stateMutability": "nonpayable",
      "type": "function"
    },
    {
      "inputs": [
        {
          "internalType": "address",
          "name": "beneficiary",
          "type": "address"
        },
        {
          "internalType": "uint256",
          "name": "underlyingAmount",
          "type": "uint256"
        },
        {
          "internalType": "uint256",
          "name": "minVaultTokensOut",
          "type": "uint256"
        }
      ],
      "name": "depositFor",
      "outputs": [
        {
          "internalType": "uint256",
          "name": "vaultTokensMinted",
          "type": "uint256"
        }
      ],
      "stateMutability": "nonpayable",
      "type": "function"
    },
    {
      "inputs": [
        {
          "internalType": "uint256",
          "name": "underlyingAmount",
          "type": "uint256"
        },
        {
          "internalType": "uint256",
          "name": "minVaultTokensOut",
          "type": "uint256"
        }
      ],
      "name": "dryDeposit",
      "outputs": [
        {
          "internalType": "uint256",
          "name": "vaultTokensMinted",
          "type": "uint256"
        },
        {
          "internalType": "string",
          "name": "err",
          "type": "string"
        }
      ],
      "stateMutability": "view",
      "type": "function"
    },
    {
      "inputs": [
        {
          "internalType": "uint256",
          "name": "vaultTokenAmount",
          "type": "uint256"
        },
        {
          "internalType": "uint256",
          "name": "minUnderlyingOut",
          "type": "uint256"
        }
      ],
      "name": "dryWithdraw",
      "outputs": [
        {
          "internalType": "uint256",
          "name": "underlyingAmountWithdrawn",
          "type": "uint256"
        },
        {
          "internalType": "string",
          "name": "err",
          "type": "string"
        }
      ],
      "stateMutability": "view",
      "type": "function"
    },
    {
      "inputs": [],
      "name": "exchangeRate",
      "outputs": [
        {
          "internalType": "uint256",
          "name": "",
          "type": "uint256"
        }
      ],
      "stateMutability": "view",
      "type": "function"
    },
    {
      "inputs": [],
      "name": "getTokens",
      "outputs": [
        {
          "internalType": "contract IERC20[]",
          "name": "",
          "type": "address[]"
        }
      ],
      "stateMutability": "view",
      "type": "function"
    },
    {
      "inputs": [],
      "name": "governor",
      "outputs": [
        {
          "internalType": "address",
          "name": "",
          "type": "address"
        }
      ],
      "stateMutability": "view",
      "type": "function"
    },
    {
      "inputs": [
        {
          "internalType": "address",
          "name": "spender",
          "type": "address"
        },
        {
          "internalType": "uint256",
          "name": "addedValue",
          "type": "uint256"
        }
      ],
      "name": "increaseAllowance",
      "outputs": [
        {
          "internalType": "bool",
          "name": "",
          "type": "bool"
        }
      ],
      "stateMutability": "nonpayable",
      "type": "function"
    },
    {
      "inputs": [],
      "name": "name",
      "outputs": [
        {
          "internalType": "string",
          "name": "",
          "type": "string"
        }
      ],
      "stateMutability": "view",
      "type": "function"
    },
    {
      "inputs": [],
      "name": "pendingGovernor",
      "outputs": [
        {
          "internalType": "address",
          "name": "",
          "type": "address"
        }
      ],
      "stateMutability": "view",
      "type": "function"
    },
    {
      "inputs": [
        {
          "internalType": "address",
          "name": "strategyAddress",
          "type": "address"
        }
      ],
      "name": "setStrategy",
      "outputs": [],
      "stateMutability": "nonpayable",
      "type": "function"
    },
    {
      "inputs": [],
      "name": "strategy",
      "outputs": [
        {
          "internalType": "address",
          "name": "",
          "type": "address"
        }
      ],
      "stateMutability": "view",
      "type": "function"
    },
    {
      "inputs": [],
      "name": "symbol",
      "outputs": [
        {
          "internalType": "string",
          "name": "",
          "type": "string"
        }
      ],
      "stateMutability": "view",
      "type": "function"
    },
    {
      "inputs": [],
      "name": "totalSupply",
      "outputs": [
        {
          "internalType": "uint256",
          "name": "",
          "type": "uint256"
        }
      ],
      "stateMutability": "view",
      "type": "function"
    },
    {
      "inputs": [],
      "name": "totalUnderlying",
      "outputs": [
        {
          "internalType": "uint256",
          "name": "",
          "type": "uint256"
        }
      ],
      "stateMutability": "view",
      "type": "function"
    },
    {
      "inputs": [
        {
          "internalType": "address",
          "name": "to",
          "type": "address"
        },
        {
          "internalType": "uint256",
          "name": "amount",
          "type": "uint256"
        }
      ],
      "name": "transfer",
      "outputs": [
        {
          "internalType": "bool",
          "name": "",
          "type": "bool"
        }
      ],
      "stateMutability": "nonpayable",
      "type": "function"
    },
    {
      "inputs": [
        {
          "internalType": "address",
          "name": "from",
          "type": "address"
        },
        {
          "internalType": "address",
          "name": "to",
          "type": "address"
        },
        {
          "internalType": "uint256",
          "name": "amount",
          "type": "uint256"
        }
      ],
      "name": "transferFrom",
      "outputs": [
        {
          "internalType": "bool",
          "name": "",
          "type": "bool"
        }
      ],
      "stateMutability": "nonpayable",
      "type": "function"
    },
    {
      "inputs": [],
      "name": "underlying",
      "outputs": [
        {
          "internalType": "address",
          "name": "",
          "type": "address"
        }
      ],
      "stateMutability": "view",
      "type": "function"
    },
    {
      "inputs": [],
      "name": "vaultType",
      "outputs": [
        {
          "internalType": "enum Vaults.Type",
          "name": "",
          "type": "uint8"
        }
      ],
      "stateMutability": "view",
      "type": "function"
    },
    {
      "inputs": [
        {
          "internalType": "uint256",
          "name": "vaultTokenAmount",
          "type": "uint256"
        },
        {
          "internalType": "uint256",
          "name": "minUnderlyingOut",
          "type": "uint256"
        }
      ],
      "name": "withdraw",
      "outputs": [
        {
          "internalType": "uint256",
          "name": "underlyingAmountWithdrawn",
          "type": "uint256"
        }
      ],
      "stateMutability": "nonpayable",
      "type": "function"
    }
  ],
  "bytecode": {
    "object": "0x60c06040523480156200001157600080fd5b5060405162001ce838038062001ce883398101604081905262000034916200020a565b83838383838282600362000049838262000329565b50600462000058828262000329565b5050600580546001600160a01b0319166001600160a01b038416908117909155604080516000815260208101929092527fde4b3f61490b74c0ed6237523974fe299126bbbf8a8a7482fd220104c59b0c8492500160405180910390a150604080518082019091526002815261333160f01b60208201526001600160a01b038416620001015760405162461bcd60e51b8152600401620000f89190620003f5565b60405180910390fd5b5050506001600160a01b031660805250504360a052506200042a915050565b80516001600160a01b03811681146200013857600080fd5b919050565b634e487b7160e01b600052604160045260246000fd5b60005b838110156200017057818101518382015260200162000156565b50506000910152565b600082601f8301126200018b57600080fd5b81516001600160401b0380821115620001a857620001a86200013d565b604051601f8301601f19908116603f01168101908282118183101715620001d357620001d36200013d565b81604052838152866020858801011115620001ed57600080fd5b6200020084602083016020890162000153565b9695505050505050565b600080600080608085870312156200022157600080fd5b6200022c8562000120565b93506200023c6020860162000120565b60408601519093506001600160401b03808211156200025a57600080fd5b620002688883890162000179565b935060608701519150808211156200027f57600080fd5b506200028e8782880162000179565b91505092959194509250565b600181811c90821680620002af57607f821691505b602082108103620002d057634e487b7160e01b600052602260045260246000fd5b50919050565b601f8211156200032457600081815260208120601f850160051c81016020861015620002ff5750805b601f850160051c820191505b8181101562000320578281556001016200030b565b5050505b505050565b81516001600160401b038111156200034557620003456200013d565b6200035d816200035684546200029a565b84620002d6565b602080601f8311600181146200039557600084156200037c5750858301515b600019600386901b1c1916600185901b17855562000320565b600085815260208120601f198616915b82811015620003c657888601518255948401946001909101908401620003a5565b5085821015620003e55787850151600019600388901b60f8161c191681555b5050505050600190811b01905550565b60208152600082518060208401526200041681604085016020870162000153565b601f01601f19169190910160400192915050565b60805160a051611875620004736000396000610414015260008181610307015281816105c3015281816107d901528181610824015281816109b20152610a1901526118756000f3fe608060405234801561001057600080fd5b50600436106101c45760003560e01c80636f307dc3116100f9578063c70920bc11610097578063e2bbb15811610071578063e2bbb158146103d6578063e3056a34146103e9578063e4c0aaf4146103fc578063eae4c19f1461040f57600080fd5b8063c70920bc146103a8578063cc04feff146103b0578063dd62ed3e146103c357600080fd5b8063a457c2d7116100d3578063a457c2d71461035a578063a8c62e761461036d578063a9059cbb14610380578063aa6ca8081461039357600080fd5b80636f307dc31461030257806370a082311461032957806395d89b411461035257600080fd5b806333a100ca11610166578063441a3e7011610140578063441a3e70146102ac5780634ac032be146102bf5780634cf5fbf5146102ce578063550d2b62146102e157600080fd5b806333a100ca1461027e57806339509351146102915780633ba0b9a9146102a457600080fd5b806318160ddd116101a257806318160ddd14610235578063238efcbc1461024757806323b872dd14610251578063313ce5671461026457600080fd5b806306fdde03146101c9578063095ea7b3146101e75780630c340a241461020a575b600080fd5b6101d1610436565b6040516101de9190611537565b60405180910390f35b6101fa6101f5366004611566565b6104c8565b60405190151581526020016101de565b60055461021d906001600160a01b031681565b6040516001600160a01b0390911681526020016101de565b6002545b6040519081526020016101de565b61024f6104e2565b005b6101fa61025f366004611590565b61059b565b61026c6105bf565b60405160ff90911681526020016101de565b61024f61028c3660046115cc565b610648565b6101fa61029f366004611566565b6106b0565b6102396106d2565b6102396102ba3660046115e7565b6106de565b60006040516101de9190611609565b6102396102dc366004611631565b610808565b6102f46102ef3660046115e7565b6108a7565b6040516101de929190611664565b61021d7f000000000000000000000000000000000000000000000000000000000000000081565b6102396103373660046115cc565b6001600160a01b031660009081526020819052604090205490565b6101d16108f2565b6101fa610368366004611566565b610901565b60075461021d906001600160a01b031681565b6101fa61038e366004611566565b61097c565b61039b61098a565b6040516101de919061167d565b610239610a01565b6102f46103be3660046115e7565b610a8c565b6102396103d13660046116ca565b610aa6565b6102396103e43660046115e7565b610ad1565b60065461021d906001600160a01b031681565b61024f61040a3660046115cc565b610ae5565b6102397f000000000000000000000000000000000000000000000000000000000000000081565b606060038054610445906116fd565b80601f0160208091040260200160405190810160405280929190818152602001828054610471906116fd565b80156104be5780601f10610493576101008083540402835291602001916104be565b820191906000526020600020905b8154815290600101906020018083116104a157829003601f168201915b5050505050905090565b6000336104d6818585610bba565b60019150505b92915050565b600654604080518082019091526002815261033360f41b6020820152906001600160a01b031633146105305760405162461bcd60e51b81526004016105279190611537565b60405180910390fd5b5060058054600680546001600160a01b03198084166001600160a01b03808416919091179095551690556040805192909116808352336020840152917fde4b3f61490b74c0ed6237523974fe299126bbbf8a8a7482fd220104c59b0c8491015b60405180910390a150565b6000336105a9858285610cdf565b6105b4858585610d59565b506001949350505050565b60007f00000000000000000000000000000000000000000000000000000000000000006001600160a01b031663313ce5676040518163ffffffff1660e01b8152600401602060405180830381865afa15801561061f573d6000803e3d6000fd5b505050506040513d601f19601f820116820180604052508101906106439190611737565b905090565b600554604080518082019091526002815261033360f41b6020820152906001600160a01b0316331461068d5760405162461bcd60e51b81526004016105279190611537565b50600780546001600160a01b0319166001600160a01b0392909216919091179055565b6000336104d68185856106c38383610aa6565b6106cd9190611770565b610bba565b60006106436000610efd565b600080831160405180604001604052806002815260200161333160f01b8152509061071c5760405162461bcd60e51b81526004016105279190611537565b5033600090815260208190526040812054905083811015604051806040016040528060028152602001610ccd60f21b8152509061076c5760405162461bcd60e51b81526004016105279190611537565b5060006107776106d2565b90506107838582610f56565b925083831015604051806040016040528060018152602001601960f91b815250906107c15760405162461bcd60e51b81526004016105279190611537565b506107cc3386610f77565b6108006001600160a01b037f00000000000000000000000000000000000000000000000000000000000000001633856110a6565b505092915050565b6000806108156001610efd565b905061084c6001600160a01b037f000000000000000000000000000000000000000000000000000000000000000016333087611109565b6108568482611141565b915082821015604051806040016040528060018152602001601960f91b815250906108945760405162461bcd60e51b81526004016105279190611537565b5061089f85836111b4565b509392505050565b6000606060006108b76001610efd565b90506108c38582611141565b9250838310156108ea57604051806040016040528060018152602001601960f91b81525091505b509250929050565b606060048054610445906116fd565b6000338161090f8286610aa6565b90508381101561096f5760405162461bcd60e51b815260206004820152602560248201527f45524332303a2064656372656173656420616c6c6f77616e63652062656c6f77604482015264207a65726f60d81b6064820152608401610527565b6105b48286868403610bba565b6000336104d6818585610d59565b60408051600180825281830190925260609160009190602080830190803683370190505090507f0000000000000000000000000000000000000000000000000000000000000000816000815181106109e4576109e4611783565b6001600160a01b0390921660209283029190910190910152919050565b6040516370a0823160e01b81523060048201526000907f00000000000000000000000000000000000000000000000000000000000000006001600160a01b0316906370a0823190602401602060405180830381865afa158015610a68573d6000803e3d6000fd5b505050506040513d601f19601f820116820180604052508101906106439190611799565b600060606000610a9a6106d2565b90506108c38582610f56565b6001600160a01b03918216600090815260016020908152604080832093909416825291909152205490565b6000610ade338484610808565b9392505050565b600554604080518082019091526002815261033360f41b6020820152906001600160a01b03163314610b2a5760405162461bcd60e51b81526004016105279190611537565b50604080518082019091526002815261333160f01b60208201526001600160a01b038216610b6b5760405162461bcd60e51b81526004016105279190611537565b50600680546001600160a01b0319166001600160a01b0383169081179091556040519081527f67235ba2e63c748a35b95c4f92a3bbc2a1389938170a5ce6c9add5d0b03a314a90602001610590565b6001600160a01b038316610c1c5760405162461bcd60e51b8152602060048201526024808201527f45524332303a20617070726f76652066726f6d20746865207a65726f206164646044820152637265737360e01b6064820152608401610527565b6001600160a01b038216610c7d5760405162461bcd60e51b815260206004820152602260248201527f45524332303a20617070726f766520746f20746865207a65726f206164647265604482015261737360f01b6064820152608401610527565b6001600160a01b0383811660008181526001602090815260408083209487168084529482529182902085905590518481527f8c5be1e5ebec7d5bd14f71427d1e84f3dd0314c0f7b2291e5b200ac8c7c3b92591015b60405180910390a3505050565b6000610ceb8484610aa6565b90506000198114610d535781811015610d465760405162461bcd60e51b815260206004820152601d60248201527f45524332303a20696e73756666696369656e7420616c6c6f77616e63650000006044820152606401610527565b610d538484848403610bba565b50505050565b6001600160a01b038316610dbd5760405162461bcd60e51b815260206004820152602560248201527f45524332303a207472616e736665722066726f6d20746865207a65726f206164604482015264647265737360d81b6064820152608401610527565b6001600160a01b038216610e1f5760405162461bcd60e51b815260206004820152602360248201527f45524332303a207472616e7366657220746f20746865207a65726f206164647260448201526265737360e81b6064820152608401610527565b6001600160a01b03831660009081526020819052604090205481811015610e975760405162461bcd60e51b815260206004820152602660248201527f45524332303a207472616e7366657220616d6f756e7420657863656564732062604482015265616c616e636560d01b6064820152608401610527565b6001600160a01b03848116600081815260208181526040808320878703905593871680835291849020805487019055925185815290927fddf252ad1be2c89b69c2b068fc378daa952ba7f163c4a11628f55a4df523b3ef910160405180910390a3610d53565b600080610f08610a01565b90506000610f1560025490565b905080600003610f305750670de0b6b3a76400009392505050565b83610f4457610f3f8282611141565b610f4e565b610f4e8282611273565b949350505050565b600080610f6383856117b2565b9050610f4e670de0b6b3a7640000826117df565b6001600160a01b038216610fd75760405162461bcd60e51b815260206004820152602160248201527f45524332303a206275726e2066726f6d20746865207a65726f206164647265736044820152607360f81b6064820152608401610527565b6001600160a01b0382166000908152602081905260409020548181101561104b5760405162461bcd60e51b815260206004820152602260248201527f45524332303a206275726e20616d6f756e7420657863656564732062616c616e604482015261636560f01b6064820152608401610527565b6001600160a01b0383166000818152602081815260408083208686039055600280548790039055518581529192917fddf252ad1be2c89b69c2b068fc378daa952ba7f163c4a11628f55a4df523b3ef9101610cd2565b505050565b6040516001600160a01b0383166024820152604481018290526110a190849063a9059cbb60e01b906064015b60408051601f198184030181529190526020810180516001600160e01b03166001600160e01b0319909316929092179091526112f2565b6040516001600160a01b0380851660248301528316604482015260648101829052610d539085906323b872dd60e01b906084016110d2565b604080518082019091526002815261323560f01b60208201526000908261117b5760405162461bcd60e51b81526004016105279190611537565b508260000361118c575060006104dc565b60006111a0670de0b6b3a7640000856117b2565b90506111ac83826117df565b9150506104dc565b6001600160a01b03821661120a5760405162461bcd60e51b815260206004820152601f60248201527f45524332303a206d696e7420746f20746865207a65726f2061646472657373006044820152606401610527565b806002600082825461121c9190611770565b90915550506001600160a01b038216600081815260208181526040808320805486019055518481527fddf252ad1be2c89b69c2b068fc378daa952ba7f163c4a11628f55a4df523b3ef910160405180910390a35050565b604080518082019091526002815261323560f01b6020820152600090826112ad5760405162461bcd60e51b81526004016105279190611537565b50826000036112be575060006104dc565b60006112d2670de0b6b3a7640000856117b2565b90508260018203816112e6576112e66117c9565b046001019150506104dc565b6000611347826040518060400160405280602081526020017f5361666545524332303a206c6f772d6c6576656c2063616c6c206661696c6564815250856001600160a01b03166113c49092919063ffffffff16565b8051909150156110a157808060200190518101906113659190611801565b6110a15760405162461bcd60e51b815260206004820152602a60248201527f5361666545524332303a204552433230206f7065726174696f6e20646964206e6044820152691bdd081cdd58d8d9595960b21b6064820152608401610527565b6060610f4e848460008585600080866001600160a01b031685876040516113eb9190611823565b60006040518083038185875af1925050503d8060008114611428576040519150601f19603f3d011682016040523d82523d6000602084013e61142d565b606091505b509150915061143e87838387611449565b979650505050505050565b606083156114b85782516000036114b1576001600160a01b0385163b6114b15760405162461bcd60e51b815260206004820152601d60248201527f416464726573733a2063616c6c20746f206e6f6e2d636f6e74726163740000006044820152606401610527565b5081610f4e565b610f4e83838151156114cd5781518083602001fd5b8060405162461bcd60e51b81526004016105279190611537565b60005b838110156115025781810151838201526020016114ea565b50506000910152565b600081518084526115238160208601602086016114e7565b601f01601f19169290920160200192915050565b602081526000610ade602083018461150b565b80356001600160a01b038116811461156157600080fd5b919050565b6000806040838503121561157957600080fd5b6115828361154a565b946020939093013593505050565b6000806000606084860312156115a557600080fd5b6115ae8461154a565b92506115bc6020850161154a565b9150604084013590509250925092565b6000602082840312156115de57600080fd5b610ade8261154a565b600080604083850312156115fa57600080fd5b50508035926020909101359150565b602081016005831061162b57634e487b7160e01b600052602160045260246000fd5b91905290565b60008060006060848603121561164657600080fd5b61164f8461154a565b95602085013595506040909401359392505050565b828152604060208201526000610f4e604083018461150b565b6020808252825182820181905260009190848201906040850190845b818110156116be5783516001600160a01b031683529284019291840191600101611699565b50909695505050505050565b600080604083850312156116dd57600080fd5b6116e68361154a565b91506116f46020840161154a565b90509250929050565b600181811c9082168061171157607f821691505b60208210810361173157634e487b7160e01b600052602260045260246000fd5b50919050565b60006020828403121561174957600080fd5b815160ff81168114610ade57600080fd5b634e487b7160e01b600052601160045260246000fd5b808201808211156104dc576104dc61175a565b634e487b7160e01b600052603260045260246000fd5b6000602082840312156117ab57600080fd5b5051919050565b80820281158282048414176104dc576104dc61175a565b634e487b7160e01b600052601260045260246000fd5b6000826117fc57634e487b7160e01b600052601260045260246000fd5b500490565b60006020828403121561181357600080fd5b81518015158114610ade57600080fd5b600082516118358184602087016114e7565b919091019291505056fea2646970667358221220be1bd851455489f06ac68e89a8129c25c939042d980c714ecea49fcd5f0d621e64736f6c63430008110033",
    "linkReferences": {}
  },
  "methodIdentifiers": {
    "acceptGovernance()": "238efcbc",
    "allowance(address,address)": "dd62ed3e",
    "approve(address,uint256)": "095ea7b3",
    "balanceOf(address)": "70a08231",
    "changeGovernor(address)": "e4c0aaf4",
    "decimals()": "313ce567",
    "decreaseAllowance(address,uint256)": "a457c2d7",
    "deployedAt()": "eae4c19f",
    "deposit(uint256,uint256)": "e2bbb158",
    "depositFor(address,uint256,uint256)": "4cf5fbf5",
    "dryDeposit(uint256,uint256)": "550d2b62",
    "dryWithdraw(uint256,uint256)": "cc04feff",
    "exchangeRate()": "3ba0b9a9",
    "getTokens()": "aa6ca808",
    "governor()": "0c340a24",
    "increaseAllowance(address,uint256)": "39509351",
    "name()": "06fdde03",
    "pendingGovernor()": "e3056a34",
    "setStrategy(address)": "33a100ca",
    "strategy()": "a8c62e76",
    "symbol()": "95d89b41",
    "totalSupply()": "18160ddd",
    "totalUnderlying()": "c70920bc",
    "transfer(address,uint256)": "a9059cbb",
    "transferFrom(address,address,uint256)": "23b872dd",
    "underlying()": "6f307dc3",
    "vaultType()": "4ac032be",
    "withdraw(uint256,uint256)": "441a3e70"
  },
  "id": 62
}