{
  "abi": [
    {
      "inputs": [
        {
          "internalType": "address",
          "name": "_gyroConfig",
          "type": "address"
        }
      ],
      "stateMutability": "nonpayable",
      "type": "constructor"
    },
    {
      "anonymous": false,
      "inputs": [
        {
          "indexed": true,
          "internalType": "address",
          "name": "owner",
          "type": "address"
        },
        {
          "indexed": true,
          "internalType": "address",
          "name": "spender",
          "type": "address"
        },
        {
          "indexed": false,
          "internalType": "uint256",
          "name": "value",
          "type": "uint256"
        }
      ],
      "name": "Approval",
      "type": "event"
    },
    {
      "anonymous": false,
      "inputs": [
        {
          "indexed": false,
          "internalType": "uint8",
          "name": "version",
          "type": "uint8"
        }
      ],
      "name": "Initialized",
      "type": "event"
    },
    {
      "anonymous": false,
      "inputs": [
        {
          "indexed": true,
          "internalType": "address",
          "name": "from",
          "type": "address"
        },
        {
          "indexed": true,
          "internalType": "address",
          "name": "to",
          "type": "address"
        },
        {
          "indexed": false,
          "internalType": "uint256",
          "name": "value",
          "type": "uint256"
        }
      ],
      "name": "Transfer",
      "type": "event"
    },
    {
      "inputs": [
        {
          "internalType": "address",
          "name": "owner",
          "type": "address"
        },
        {
          "internalType": "address",
          "name": "spender",
          "type": "address"
        }
      ],
      "name": "allowance",
      "outputs": [
        {
          "internalType": "uint256",
          "name": "",
          "type": "uint256"
        }
      ],
      "stateMutability": "view",
      "type": "function"
    },
    {
      "inputs": [
        {
          "internalType": "address",
          "name": "spender",
          "type": "address"
        },
        {
          "internalType": "uint256",
          "name": "amount",
          "type": "uint256"
        }
      ],
      "name": "approve",
      "outputs": [
        {
          "internalType": "bool",
          "name": "",
          "type": "bool"
        }
      ],
      "stateMutability": "nonpayable",
      "type": "function"
    },
    {
      "inputs": [
        {
          "internalType": "address",
          "name": "account",
          "type": "address"
        }
      ],
      "name": "balanceOf",
      "outputs": [
        {
          "internalType": "uint256",
          "name": "",
          "type": "uint256"
        }
      ],
      "stateMutability": "view",
      "type": "function"
    },
    {
      "inputs": [
        {
          "internalType": "address",
          "name": "account",
          "type": "address"
        },
        {
          "internalType": "uint256",
          "name": "amount",
          "type": "uint256"
        }
      ],
      "name": "burnFrom",
      "outputs": [],
      "stateMutability": "nonpayable",
      "type": "function"
    },
    {
      "inputs": [],
      "name": "decimals",
      "outputs": [
        {
          "internalType": "uint8",
          "name": "",
          "type": "uint8"
        }
      ],
      "stateMutability": "view",
      "type": "function"
    },
    {
      "inputs": [
        {
          "internalType": "address",
          "name": "spender",
          "type": "address"
        },
        {
          "internalType": "uint256",
          "name": "subtractedValue",
          "type": "uint256"
        }
      ],
      "name": "decreaseAllowance",
      "outputs": [
        {
          "internalType": "bool",
          "name": "",
          "type": "bool"
        }
      ],
      "stateMutability": "nonpayable",
      "type": "function"
    },
    {
      "inputs": [],
      "name": "gyroConfig",
      "outputs": [
        {
          "internalType": "contract IGyroConfig",
          "name": "",
          "type": "address"
        }
      ],
      "stateMutability": "view",
      "type": "function"
    },
    {
      "inputs": [
        {
          "internalType": "address",
          "name": "spender",
          "type": "address"
        },
        {
          "internalType": "uint256",
          "name": "addedValue",
          "type": "uint256"
        }
      ],
      "name": "increaseAllowance",
      "outputs": [
        {
          "internalType": "bool",
          "name": "",
          "type": "bool"
        }
      ],
      "stateMutability": "nonpayable",
      "type": "function"
    },
    {
      "inputs": [
        {
          "internalType": "string",
          "name": "name",
          "type": "string"
        },
        {
          "internalType": "string",
          "name": "symbol",
          "type": "string"
        }
      ],
      "name": "initialize",
      "outputs": [],
      "stateMutability": "nonpayable",
      "type": "function"
    },
    {
      "inputs": [
        {
          "internalType": "address",
          "name": "account",
          "type": "address"
        },
        {
          "internalType": "uint256",
          "name": "amount",
          "type": "uint256"
        }
      ],
      "name": "mint",
      "outputs": [],
      "stateMutability": "nonpayable",
      "type": "function"
    },
    {
      "inputs": [],
      "name": "name",
      "outputs": [
        {
          "internalType": "string",
          "name": "",
          "type": "string"
        }
      ],
      "stateMutability": "view",
      "type": "function"
    },
    {
      "inputs": [],
      "name": "symbol",
      "outputs": [
        {
          "internalType": "string",
          "name": "",
          "type": "string"
        }
      ],
      "stateMutability": "view",
      "type": "function"
    },
    {
      "inputs": [],
      "name": "totalSupply",
      "outputs": [
        {
          "internalType": "uint256",
          "name": "",
          "type": "uint256"
        }
      ],
      "stateMutability": "view",
      "type": "function"
    },
    {
      "inputs": [
        {
          "internalType": "address",
          "name": "to",
          "type": "address"
        },
        {
          "internalType": "uint256",
          "name": "amount",
          "type": "uint256"
        }
      ],
      "name": "transfer",
      "outputs": [
        {
          "internalType": "bool",
          "name": "",
          "type": "bool"
        }
      ],
      "stateMutability": "nonpayable",
      "type": "function"
    },
    {
      "inputs": [
        {
          "internalType": "address",
          "name": "from",
          "type": "address"
        },
        {
          "internalType": "address",
          "name": "to",
          "type": "address"
        },
        {
          "internalType": "uint256",
          "name": "amount",
          "type": "uint256"
        }
      ],
      "name": "transferFrom",
      "outputs": [
        {
          "internalType": "bool",
          "name": "",
          "type": "bool"
        }
      ],
      "stateMutability": "nonpayable",
      "type": "function"
    }
  ],
  "bytecode": {
    "object": "0x60a060405234801561001057600080fd5b5060405161124938038061124983398101604081905261002f9161008a565b604080518082019091526002815261333160f01b60208201526001600160a01b0382166100785760405162461bcd60e51b815260040161006f91906100ba565b60405180910390fd5b506001600160a01b0316608052610108565b60006020828403121561009c57600080fd5b81516001600160a01b03811681146100b357600080fd5b9392505050565b600060208083528351808285015260005b818110156100e7578581018301518582016040015282016100cb565b506000604082860101526040601f19601f8301168501019250505092915050565b6080516111186101316000396000818161019c0152818161035e015261051101526111186000f3fe608060405234801561001057600080fd5b50600436106100f55760003560e01c806344bbdb551161009757806395d89b411161006657806395d89b4114610225578063a457c2d71461022d578063a9059cbb14610240578063dd62ed3e1461025357600080fd5b806344bbdb55146101975780634cd88b76146101d657806370a08231146101e957806379cc67901461021257600080fd5b806323b872dd116100d357806323b872dd1461014d578063313ce56714610160578063395093511461016f57806340c10f191461018257600080fd5b806306fdde03146100fa578063095ea7b31461011857806318160ddd1461013b575b600080fd5b610102610266565b60405161010f9190610cbf565b60405180910390f35b61012b610126366004610d25565b6102f8565b604051901515815260200161010f565b6035545b60405190815260200161010f565b61012b61015b366004610d51565b610312565b6040516012815260200161010f565b61012b61017d366004610d25565b610336565b610195610190366004610d25565b610358565b005b6101be7f000000000000000000000000000000000000000000000000000000000000000081565b6040516001600160a01b03909116815260200161010f565b6101956101e4366004610e35565b6103e6565b61013f6101f7366004610e99565b6001600160a01b031660009081526033602052604090205490565b610195610220366004610d25565b6104fb565b6101026105d2565b61012b61023b366004610d25565b6105e1565b61012b61024e366004610d25565b61065c565b61013f610261366004610ebd565b61066a565b60606036805461027590610ef6565b80601f01602080910402602001604051908101604052809291908181526020018280546102a190610ef6565b80156102ee5780601f106102c3576101008083540402835291602001916102ee565b820191906000526020600020905b8154815290600101906020018083116102d157829003601f168201915b5050505050905090565b600033610306818585610695565b60019150505b92915050565b6000336103208582856107b9565b61032b85858561082d565b506001949350505050565b600033610306818585610349838361066a565b6103539190610f46565b610695565b3361038b7f00000000000000000000000000000000000000000000000000000000000000006001600160a01b03166109d8565b6001600160a01b03161460405180604001604052806002815260200161033360f41b815250906103d75760405162461bcd60e51b81526004016103ce9190610cbf565b60405180910390fd5b506103e28282610a59565b5050565b600054610100900460ff16158080156104065750600054600160ff909116105b806104205750303b158015610420575060005460ff166001145b6104835760405162461bcd60e51b815260206004820152602e60248201527f496e697469616c697a61626c653a20636f6e747261637420697320616c72656160448201526d191e481a5b9a5d1a585b1a5e995960921b60648201526084016103ce565b6000805460ff1916600117905580156104a6576000805461ff0019166101001790555b6104b08383610b1a565b80156104f6576000805461ff0019169055604051600181527f7f26b83ff96e1f2b6a682f133852f6798a09c465da95921460cefb38474024989060200160405180910390a15b505050565b6000610507833361066a565b905060003361053e7f00000000000000000000000000000000000000000000000000000000000000006001600160a01b03166109d8565b6001600160a01b031614905080806105565750828210155b6105ae5760405162461bcd60e51b8152602060048201526024808201527f45524332303a206275726e20616d6f756e74206578636565647320616c6c6f77604482015263616e636560e01b60648201526084016103ce565b806105c2576105c284336103538686610f59565b6105cc8484610b4b565b50505050565b60606037805461027590610ef6565b600033816105ef828661066a565b90508381101561064f5760405162461bcd60e51b815260206004820152602560248201527f45524332303a2064656372656173656420616c6c6f77616e63652062656c6f77604482015264207a65726f60d81b60648201526084016103ce565b61032b8286868403610695565b60003361030681858561082d565b6001600160a01b03918216600090815260346020908152604080832093909416825291909152205490565b6001600160a01b0383166106f75760405162461bcd60e51b8152602060048201526024808201527f45524332303a20617070726f76652066726f6d20746865207a65726f206164646044820152637265737360e01b60648201526084016103ce565b6001600160a01b0382166107585760405162461bcd60e51b815260206004820152602260248201527f45524332303a20617070726f766520746f20746865207a65726f206164647265604482015261737360f01b60648201526084016103ce565b6001600160a01b0383811660008181526034602090815260408083209487168084529482529182902085905590518481527f8c5be1e5ebec7d5bd14f71427d1e84f3dd0314c0f7b2291e5b200ac8c7c3b925910160405180910390a3505050565b60006107c5848461066a565b905060001981146105cc57818110156108205760405162461bcd60e51b815260206004820152601d60248201527f45524332303a20696e73756666696369656e7420616c6c6f77616e636500000060448201526064016103ce565b6105cc8484848403610695565b6001600160a01b0383166108915760405162461bcd60e51b815260206004820152602560248201527f45524332303a207472616e736665722066726f6d20746865207a65726f206164604482015264647265737360d81b60648201526084016103ce565b6001600160a01b0382166108f35760405162461bcd60e51b815260206004820152602360248201527f45524332303a207472616e7366657220746f20746865207a65726f206164647260448201526265737360e81b60648201526084016103ce565b6001600160a01b0383166000908152603360205260409020548181101561096b5760405162461bcd60e51b815260206004820152602660248201527f45524332303a207472616e7366657220616d6f756e7420657863656564732062604482015265616c616e636560d01b60648201526084016103ce565b6001600160a01b0380851660008181526033602052604080822086860390559286168082529083902080548601905591517fddf252ad1be2c89b69c2b068fc378daa952ba7f163c4a11628f55a4df523b3ef906109cb9086815260200190565b60405180910390a36105cc565b6040516321f8a72160e01b8152724d4f54484552424f4152445f4144445245535360681b60048201526000906001600160a01b038316906321f8a72190602401602060405180830381865afa158015610a35573d6000803e3d6000fd5b505050506040513d601f19601f8201168201806040525081019061030c9190610f6c565b6001600160a01b038216610aaf5760405162461bcd60e51b815260206004820152601f60248201527f45524332303a206d696e7420746f20746865207a65726f20616464726573730060448201526064016103ce565b8060356000828254610ac19190610f46565b90915550506001600160a01b0382166000818152603360209081526040808320805486019055518481527fddf252ad1be2c89b69c2b068fc378daa952ba7f163c4a11628f55a4df523b3ef910160405180910390a35050565b600054610100900460ff16610b415760405162461bcd60e51b81526004016103ce90610f89565b6103e28282610c7f565b6001600160a01b038216610bab5760405162461bcd60e51b815260206004820152602160248201527f45524332303a206275726e2066726f6d20746865207a65726f206164647265736044820152607360f81b60648201526084016103ce565b6001600160a01b03821660009081526033602052604090205481811015610c1f5760405162461bcd60e51b815260206004820152602260248201527f45524332303a206275726e20616d6f756e7420657863656564732062616c616e604482015261636560f01b60648201526084016103ce565b6001600160a01b03831660008181526033602090815260408083208686039055603580548790039055518581529192917fddf252ad1be2c89b69c2b068fc378daa952ba7f163c4a11628f55a4df523b3ef910160405180910390a3505050565b600054610100900460ff16610ca65760405162461bcd60e51b81526004016103ce90610f89565b6036610cb28382611022565b5060376104f68282611022565b600060208083528351808285015260005b81811015610cec57858101830151858201604001528201610cd0565b506000604082860101526040601f19601f8301168501019250505092915050565b6001600160a01b0381168114610d2257600080fd5b50565b60008060408385031215610d3857600080fd5b8235610d4381610d0d565b946020939093013593505050565b600080600060608486031215610d6657600080fd5b8335610d7181610d0d565b92506020840135610d8181610d0d565b929592945050506040919091013590565b634e487b7160e01b600052604160045260246000fd5b600082601f830112610db957600080fd5b813567ffffffffffffffff80821115610dd457610dd4610d92565b604051601f8301601f19908116603f01168101908282118183101715610dfc57610dfc610d92565b81604052838152866020858801011115610e1557600080fd5b836020870160208301376000602085830101528094505050505092915050565b60008060408385031215610e4857600080fd5b823567ffffffffffffffff80821115610e6057600080fd5b610e6c86838701610da8565b93506020850135915080821115610e8257600080fd5b50610e8f85828601610da8565b9150509250929050565b600060208284031215610eab57600080fd5b8135610eb681610d0d565b9392505050565b60008060408385031215610ed057600080fd5b8235610edb81610d0d565b91506020830135610eeb81610d0d565b809150509250929050565b600181811c90821680610f0a57607f821691505b602082108103610f2a57634e487b7160e01b600052602260045260246000fd5b50919050565b634e487b7160e01b600052601160045260246000fd5b8082018082111561030c5761030c610f30565b8181038181111561030c5761030c610f30565b600060208284031215610f7e57600080fd5b8151610eb681610d0d565b6020808252602b908201527f496e697469616c697a61626c653a20636f6e7472616374206973206e6f74206960408201526a6e697469616c697a696e6760a81b606082015260800190565b601f8211156104f657600081815260208120601f850160051c81016020861015610ffb5750805b601f850160051c820191505b8181101561101a57828155600101611007565b505050505050565b815167ffffffffffffffff81111561103c5761103c610d92565b6110508161104a8454610ef6565b84610fd4565b602080601f831160018114611085576000841561106d5750858301515b600019600386901b1c1916600185901b17855561101a565b600085815260208120601f198616915b828110156110b457888601518255948401946001909101908401611095565b50858210156110d25787850151600019600388901b60f8161c191681555b5050505050600190811b0190555056fea2646970667358221220672943a90548ee6fcc6986606095675a170113f1043b57c1db947eeccda2232664736f6c63430008110033",
    "linkReferences": {}
  },
  "methodIdentifiers": {
    "allowance(address,address)": "dd62ed3e",
    "approve(address,uint256)": "095ea7b3",
    "balanceOf(address)": "70a08231",
    "burnFrom(address,uint256)": "79cc6790",
    "decimals()": "313ce567",
    "decreaseAllowance(address,uint256)": "a457c2d7",
    "gyroConfig()": "44bbdb55",
    "increaseAllowance(address,uint256)": "39509351",
    "initialize(string,string)": "4cd88b76",
    "mint(address,uint256)": "40c10f19",
    "name()": "06fdde03",
    "symbol()": "95d89b41",
    "totalSupply()": "18160ddd",
    "transfer(address,uint256)": "a9059cbb",
    "transferFrom(address,address,uint256)": "23b872dd"
  },
  "id": 2
}