{
  "abi": [
    {
      "inputs": [
        {
          "internalType": "contract ReserveManager",
          "name": "_reserveManager",
          "type": "address"
        },
        {
          "internalType": "contract PrimaryAMMV1",
          "name": "_primaryAMMV1",
          "type": "address"
        }
      ],
      "stateMutability": "nonpayable",
      "type": "constructor"
    },
    {
      "inputs": [],
      "name": "read",
      "outputs": [
        {
          "components": [
            {
              "components": [
                {
                  "internalType": "uint256",
                  "name": "totalUSDValue",
                  "type": "uint256"
                },
                {
                  "components": [
                    {
                      "internalType": "address",
                      "name": "vault",
                      "type": "address"
                    },
                    {
                      "internalType": "uint8",
                      "name": "decimals",
                      "type": "uint8"
                    },
                    {
                      "internalType": "address",
                      "name": "underlying",
                      "type": "address"
                    },
                    {
                      "internalType": "uint256",
                      "name": "price",
                      "type": "uint256"
                    },
                    {
                      "components": [
                        {
                          "internalType": "uint256",
                          "name": "initialPrice",
                          "type": "uint256"
                        },
                        {
                          "internalType": "uint256",
                          "name": "initialWeight",
                          "type": "uint256"
                        },
                        {
                          "internalType": "uint256",
                          "name": "shortFlowMemory",
                          "type": "uint256"
                        },
                        {
                          "internalType": "uint256",
                          "name": "shortFlowThreshold",
                          "type": "uint256"
                        }
                      ],
                      "internalType": "struct DataTypes.PersistedVaultMetadata",
                      "name": "persistedMetadata",
                      "type": "tuple"
                    },
                    {
                      "internalType": "uint256",
                      "name": "reserveBalance",
                      "type": "uint256"
                    },
                    {
                      "internalType": "uint256",
                      "name": "currentWeight",
                      "type": "uint256"
                    },
                    {
                      "internalType": "uint256",
                      "name": "idealWeight",
                      "type": "uint256"
                    },
                    {
                      "components": [
                        {
                          "internalType": "address",
                          "name": "tokenAddress",
                          "type": "address"
                        },
                        {
                          "internalType": "bool",
                          "name": "isStable",
                          "type": "bool"
                        },
                        {
                          "internalType": "uint256",
                          "name": "price",
                          "type": "uint256"
                        }
                      ],
                      "internalType": "struct DataTypes.PricedToken[]",
                      "name": "pricedTokens",
                      "type": "tuple[]"
                    }
                  ],
                  "internalType": "struct DataTypes.VaultInfo[]",
                  "name": "vaults",
                  "type": "tuple[]"
                }
              ],
              "internalType": "struct DataTypes.ReserveState",
              "name": "reserveState",
              "type": "tuple"
            },
            {
              "components": [
                {
                  "internalType": "uint64",
                  "name": "alphaBar",
                  "type": "uint64"
                },
                {
                  "internalType": "uint64",
                  "name": "xuBar",
                  "type": "uint64"
                },
                {
                  "internalType": "uint64",
                  "name": "thetaBar",
                  "type": "uint64"
                },
                {
                  "internalType": "uint64",
                  "name": "outflowMemory",
                  "type": "uint64"
                }
              ],
              "internalType": "struct IPAMM.Params",
              "name": "systemParams",
              "type": "tuple"
            },
            {
              "internalType": "uint256",
              "name": "redemptionLevel",
              "type": "uint256"
            },
            {
              "internalType": "uint256",
              "name": "redemptionPrice",
              "type": "uint256"
            }
          ],
          "internalType": "struct ReserveSystemRead.ReadValues",
          "name": "",
          "type": "tuple"
        }
      ],
      "stateMutability": "view",
      "type": "function"
    },
    {
      "inputs": [
        {
          "internalType": "uint256",
          "name": "totalUSDValue",
          "type": "uint256"
        }
      ],
      "name": "readWithoutReserveState",
      "outputs": [
        {
          "components": [
            {
              "components": [
                {
                  "internalType": "uint64",
                  "name": "alphaBar",
                  "type": "uint64"
                },
                {
                  "internalType": "uint64",
                  "name": "xuBar",
                  "type": "uint64"
                },
                {
                  "internalType": "uint64",
                  "name": "thetaBar",
                  "type": "uint64"
                },
                {
                  "internalType": "uint64",
                  "name": "outflowMemory",
                  "type": "uint64"
                }
              ],
              "internalType": "struct IPAMM.Params",
              "name": "systemParams",
              "type": "tuple"
            },
            {
              "internalType": "uint256",
              "name": "redemptionLevel",
              "type": "uint256"
            },
            {
              "internalType": "uint256",
              "name": "redemptionPrice",
              "type": "uint256"
            }
          ],
          "internalType": "struct ReserveSystemRead.ReadValuesWithoutReserveState",
          "name": "",
          "type": "tuple"
        }
      ],
      "stateMutability": "view",
      "type": "function"
    }
  ],
  "bytecode": {
    "object": "0x60c060405234801561001057600080fd5b50604051610d2a380380610d2a83398101604081905261002f9161005e565b6001600160a01b039182166080521660a052610098565b6001600160a01b038116811461005b57600080fd5b50565b6000806040838503121561007157600080fd5b825161007c81610046565b602084015190925061008d81610046565b809150509250929050565b60805160a051610c4b6100df6000396000818161015a015281816101e6015281816102c00152818161036f015281816103fb01526104d30152600060cc0152610c4b6000f3fe608060405234801561001057600080fd5b50600436106100365760003560e01c806357de26a41461003b578063e8e6bfdc14610059575b600080fd5b6100436100c0565b6040516100509190610653565b60405180910390f35b61006c6100673660046107cd565b61035f565b604080518251805167ffffffffffffffff90811683526020808301518216818501528285015182168486015260609283015190911691830191909152830151608082015291015160a082015260c001610050565b6100c861056d565b60007f00000000000000000000000000000000000000000000000000000000000000006001600160a01b031663ef5bac256040518163ffffffff1660e01b8152600401600060405180830381865afa158015610128573d6000803e3d6000fd5b505050506040513d6000823e601f3d908101601f191682016040526101509190810190610a03565b90506000806000807f00000000000000000000000000000000000000000000000000000000000000006001600160a01b031663458e8e6b6040518163ffffffff1660e01b8152600401608060405180830381865afa1580156101b6573d6000803e3d6000fd5b505050506040513d601f19601f820116820180604052508101906101da9190610ba8565b935093509350935060007f00000000000000000000000000000000000000000000000000000000000000006001600160a01b0316635baaeaab6040518163ffffffff1660e01b8152600401602060405180830381865afa158015610242573d6000803e3d6000fd5b505050506040513d601f19601f820116820180604052508101906102669190610bfc565b6040805160808101825267ffffffffffffffff88811682528781166020830152868116828401528516606082015288519151631c76d8fb60e21b8152670de0b6b3a7640000600482015260248101929092529192506000907f00000000000000000000000000000000000000000000000000000000000000006001600160a01b0316906371db63ec90604401602060405180830381865afa15801561030f573d6000803e3d6000fd5b505050506040513d601f19601f820116820180604052508101906103339190610bfc565b60408051608081018252998a5260208a0193909352918801929092526060870152509395945050505050565b6103676105c6565b6000806000807f00000000000000000000000000000000000000000000000000000000000000006001600160a01b031663458e8e6b6040518163ffffffff1660e01b8152600401608060405180830381865afa1580156103cb573d6000803e3d6000fd5b505050506040513d601f19601f820116820180604052508101906103ef9190610ba8565b935093509350935060007f00000000000000000000000000000000000000000000000000000000000000006001600160a01b0316635baaeaab6040518163ffffffff1660e01b8152600401602060405180830381865afa158015610457573d6000803e3d6000fd5b505050506040513d601f19601f8201168201806040525081019061047b9190610bfc565b6040805160808101825267ffffffffffffffff8881168252878116602083015286811682840152851660608201529051631c76d8fb60e21b8152670de0b6b3a76400006004820152602481018a9052919250906000907f00000000000000000000000000000000000000000000000000000000000000006001600160a01b0316906371db63ec90604401602060405180830381865afa158015610522573d6000803e3d6000fd5b505050506040513d601f19601f820116820180604052508101906105469190610bfc565b60408051606081018252938452602084019490945292820192909252979650505050505050565b6040805160c08101909152600060808201908152606060a083015281908152604080516080810182526000808252602082810182905292820181905260608201529101905b815260200160008152602001600081525090565b6040805160e081019091526000606082018181526080830182905260a0830182905260c083019190915281906105b2565b600081518084526020808501945080840160005b8381101561064857815180516001600160a01b0316885283810151151584890152604090810151908801526060909601959082019060010161060b565b509495945050505050565b60006020808352610100845160e08084870152610140808701835185890152858401519350604061012081818b01528286518085526101609450848c019150848160051b8d01018a8901985060005b82811015610767578d820361015f19018452895180516001600160a01b031683526101808d8201516106d88f86018260ff169052565b50818801516001600160a01b038116858a01525060608281015185820152608080840151805182880152602081015160a0880152604081015160c08801529182015160e087015290505060a08201518d85015260c0820151878501528a8201518a8501528c82015191508089850152610753818501836105f7565b9b8e019b958e0195935050506001016106a2565b50998d0151996107a88d86018c805167ffffffffffffffff908116835260208083015182169084015260408083015182169084015260609182015116910152565b938d015160c08d01525050506060909901519290970191909152509495945050505050565b6000602082840312156107df57600080fd5b5035919050565b634e487b7160e01b600052604160045260246000fd5b6040516060810167ffffffffffffffff8111828210171561081f5761081f6107e6565b60405290565b6040805190810167ffffffffffffffff8111828210171561081f5761081f6107e6565b604051610120810167ffffffffffffffff8111828210171561081f5761081f6107e6565b604051601f8201601f1916810167ffffffffffffffff81118282101715610895576108956107e6565b604052919050565b600067ffffffffffffffff8211156108b7576108b76107e6565b5060051b60200190565b80516001600160a01b03811681146108d857600080fd5b919050565b805160ff811681146108d857600080fd5b60006080828403121561090057600080fd5b6040516080810181811067ffffffffffffffff82111715610923576109236107e6565b8060405250809150825181526020830151602082015260408301516040820152606083015160608201525092915050565b600082601f83011261096557600080fd5b8151602061097a6109758361089d565b61086c565b8281526060928302850182019282820191908785111561099957600080fd5b8387015b858110156109f65781818a0312156109b55760008081fd5b6109bd6107fc565b6109c6826108c1565b81528582015180151581146109db5760008081fd5b8187015260408281015190820152845292840192810161099d565b5090979650505050505050565b60006020808385031215610a1657600080fd5b825167ffffffffffffffff80821115610a2e57600080fd5b9084019060408287031215610a4257600080fd5b610a4a610825565b825181528383015182811115610a5f57600080fd5b80840193505086601f840112610a7457600080fd5b8251610a826109758261089d565b81815260059190911b84018501908581019089831115610aa157600080fd5b8686015b83811015610b7d57805186811115610abc57600080fd5b8701610180818d03601f1901811315610ad457600080fd5b610adc610848565b610ae78b84016108c1565b8152610af5604084016108dd565b8b820152610b05606084016108c1565b60408201526080830151606082015260a0610b228f8286016108ee565b60808301526101208401519082015261014083015160c082015261016083015160e0820152908201519088821115610b5a5760008081fd5b610b688e8c84860101610954565b61010082015285525050918701918701610aa5565b5095830195909552509695505050505050565b805167ffffffffffffffff811681146108d857600080fd5b60008060008060808587031215610bbe57600080fd5b610bc785610b90565b9350610bd560208601610b90565b9250610be360408601610b90565b9150610bf160608601610b90565b905092959194509250565b600060208284031215610c0e57600080fd5b505191905056fea2646970667358221220211ef5a50e8faa4ab843675ebd6c64dbfe9e0b56922fc205bafab66dc5d5629c64736f6c63430008110033",
    "linkReferences": {}
  },
  "methodIdentifiers": {
    "read()": "57de26a4",
    "readWithoutReserveState(uint256)": "e8e6bfdc"
  },
  "id": 4
}