{
  "abi": [
    {
      "inputs": [
        {
          "internalType": "uint256",
          "name": "base",
          "type": "uint256"
        },
        {
          "internalType": "uint256",
          "name": "exp",
          "type": "uint256"
        }
      ],
      "name": "intPowDownTest",
      "outputs": [
        {
          "internalType": "uint256",
          "name": "",
          "type": "uint256"
        }
      ],
      "stateMutability": "pure",
      "type": "function"
    }
  ],
  "bytecode": {
    "object": "0x608060405234801561001057600080fd5b5061019d806100206000396000f3fe608060405234801561001057600080fd5b506004361061002b5760003560e01c806349eab4bd14610030575b600080fd5b61004361003e3660046100e2565b610055565b60405190815260200160405180910390f35b6000610061838361006a565b90505b92915050565b6000670de0b6b3a76400005b82156100615761008760028461011a565b60010361009b5761009881856100b9565b90505b6100a660028461012e565b92506100b284856100b9565b9350610076565b6000806100c68385610142565b90506100da670de0b6b3a76400008261012e565b949350505050565b600080604083850312156100f557600080fd5b50508035926020909101359150565b634e487b7160e01b600052601260045260246000fd5b60008261012957610129610104565b500690565b60008261013d5761013d610104565b500490565b808202811582820484141761006457634e487b7160e01b600052601160045260246000fdfea26469706673582212207da9f11ca095c8b014ef751bc8d4b726062f0edf3991209eef10cff44c5ff86b64736f6c63430008110033",
    "linkReferences": {}
  },
  "methodIdentifiers": {
    "intPowDownTest(uint256,uint256)": "49eab4bd"
  },
  "id": 43
}