{
  "abi": [
    {
      "inputs": [
        {
          "internalType": "address",
          "name": "_governor",
          "type": "address"
        },
        {
          "internalType": "address",
          "name": "_gyroConfig",
          "type": "address"
        },
        {
          "components": [
            {
              "internalType": "uint64",
              "name": "alphaBar",
              "type": "uint64"
            },
            {
              "internalType": "uint64",
              "name": "xuBar",
              "type": "uint64"
            },
            {
              "internalType": "uint64",
              "name": "thetaBar",
              "type": "uint64"
            },
            {
              "internalType": "uint64",
              "name": "outflowMemory",
              "type": "uint64"
            }
          ],
          "internalType": "struct IPAMM.Params",
          "name": "params",
          "type": "tuple"
        }
      ],
      "stateMutability": "nonpayable",
      "type": "constructor"
    },
    {
      "anonymous": false,
      "inputs": [
        {
          "indexed": false,
          "internalType": "address",
          "name": "newGovernor",
          "type": "address"
        }
      ],
      "name": "GovernorChangeRequested",
      "type": "event"
    },
    {
      "anonymous": false,
      "inputs": [
        {
          "indexed": false,
          "internalType": "address",
          "name": "oldGovernor",
          "type": "address"
        },
        {
          "indexed": false,
          "internalType": "address",
          "name": "newGovernor",
          "type": "address"
        }
      ],
      "name": "GovernorChanged",
      "type": "event"
    },
    {
      "anonymous": false,
      "inputs": [
        {
          "indexed": false,
          "internalType": "uint64",
          "name": "alphaBar",
          "type": "uint64"
        },
        {
          "indexed": false,
          "internalType": "uint64",
          "name": "xuBar",
          "type": "uint64"
        },
        {
          "indexed": false,
          "internalType": "uint64",
          "name": "thetaBar",
          "type": "uint64"
        },
        {
          "indexed": false,
          "internalType": "uint64",
          "name": "outflowMemory",
          "type": "uint64"
        }
      ],
      "name": "SystemParamsUpdated",
      "type": "event"
    },
    {
      "inputs": [],
      "name": "acceptGovernance",
      "outputs": [],
      "stateMutability": "nonpayable",
      "type": "function"
    },
    {
      "inputs": [
        {
          "internalType": "address",
          "name": "newGovernor",
          "type": "address"
        }
      ],
      "name": "changeGovernor",
      "outputs": [],
      "stateMutability": "nonpayable",
      "type": "function"
    },
    {
      "inputs": [
        {
          "internalType": "uint256",
          "name": "usdAmount",
          "type": "uint256"
        },
        {
          "internalType": "uint256",
          "name": "",
          "type": "uint256"
        }
      ],
      "name": "computeMintAmount",
      "outputs": [
        {
          "internalType": "uint256",
          "name": "",
          "type": "uint256"
        }
      ],
      "stateMutability": "pure",
      "type": "function"
    },
    {
      "inputs": [
        {
          "internalType": "uint256",
          "name": "gydAmount",
          "type": "uint256"
        },
        {
          "internalType": "uint256",
          "name": "reserveUSDValue",
          "type": "uint256"
        }
      ],
      "name": "computeRedeemAmount",
      "outputs": [
        {
          "internalType": "uint256",
          "name": "",
          "type": "uint256"
        }
      ],
      "stateMutability": "view",
      "type": "function"
    },
    {
      "inputs": [],
      "name": "governor",
      "outputs": [
        {
          "internalType": "address",
          "name": "",
          "type": "address"
        }
      ],
      "stateMutability": "view",
      "type": "function"
    },
    {
      "inputs": [],
      "name": "gyroConfig",
      "outputs": [
        {
          "internalType": "contract IGyroConfig",
          "name": "",
          "type": "address"
        }
      ],
      "stateMutability": "view",
      "type": "function"
    },
    {
      "inputs": [],
      "name": "lastRedemptionBlock",
      "outputs": [
        {
          "internalType": "uint256",
          "name": "",
          "type": "uint256"
        }
      ],
      "stateMutability": "view",
      "type": "function"
    },
    {
      "inputs": [
        {
          "internalType": "uint256",
          "name": "usdAmount",
          "type": "uint256"
        },
        {
          "internalType": "uint256",
          "name": "",
          "type": "uint256"
        }
      ],
      "name": "mint",
      "outputs": [
        {
          "internalType": "uint256",
          "name": "",
          "type": "uint256"
        }
      ],
      "stateMutability": "view",
      "type": "function"
    },
    {
      "inputs": [],
      "name": "pendingGovernor",
      "outputs": [
        {
          "internalType": "address",
          "name": "",
          "type": "address"
        }
      ],
      "stateMutability": "view",
      "type": "function"
    },
    {
      "inputs": [
        {
          "internalType": "uint256",
          "name": "gydAmount",
          "type": "uint256"
        },
        {
          "internalType": "uint256",
          "name": "reserveUSDValue",
          "type": "uint256"
        }
      ],
      "name": "redeem",
      "outputs": [
        {
          "internalType": "uint256",
          "name": "",
          "type": "uint256"
        }
      ],
      "stateMutability": "nonpayable",
      "type": "function"
    },
    {
      "inputs": [],
      "name": "redemptionLevel",
      "outputs": [
        {
          "internalType": "uint256",
          "name": "",
          "type": "uint256"
        }
      ],
      "stateMutability": "view",
      "type": "function"
    },
    {
      "inputs": [
        {
          "components": [
            {
              "internalType": "uint64",
              "name": "alphaBar",
              "type": "uint64"
            },
            {
              "internalType": "uint64",
              "name": "xuBar",
              "type": "uint64"
            },
            {
              "internalType": "uint64",
              "name": "thetaBar",
              "type": "uint64"
            },
            {
              "internalType": "uint64",
              "name": "outflowMemory",
              "type": "uint64"
            }
          ],
          "internalType": "struct IPAMM.Params",
          "name": "params",
          "type": "tuple"
        }
      ],
      "name": "setSystemParams",
      "outputs": [],
      "stateMutability": "nonpayable",
      "type": "function"
    },
    {
      "inputs": [],
      "name": "systemParams",
      "outputs": [
        {
          "internalType": "uint64",
          "name": "alphaBar",
          "type": "uint64"
        },
        {
          "internalType": "uint64",
          "name": "xuBar",
          "type": "uint64"
        },
        {
          "internalType": "uint64",
          "name": "thetaBar",
          "type": "uint64"
        },
        {
          "internalType": "uint64",
          "name": "outflowMemory",
          "type": "uint64"
        }
      ],
      "stateMutability": "view",
      "type": "function"
    }
  ],
  "bytecode": {
    "object": "0x60a06040523480156200001157600080fd5b5060405162002cc138038062002cc1833981016040819052620000349162000197565b600080546001600160a01b0319166001600160a01b038516908117825560408051928352602083019190915284917fde4b3f61490b74c0ed6237523974fe299126bbbf8a8a7482fd220104c59b0c84910160405180910390a150604080518082019091526002815261333160f01b60208201526001600160a01b038316620000da5760405162461bcd60e51b8152600401620000d1919062000269565b60405180910390fd5b506001600160a01b03909116608052805160028054602084015160408501516060909501516001600160401b03908116600160c01b026001600160c01b03968216600160801b02969096166001600160801b0392821668010000000000000000026001600160801b0319909416919095161791909117169190911791909117905550620002b9565b80516001600160a01b03811681146200017a57600080fd5b919050565b80516001600160401b03811681146200017a57600080fd5b600080600083850360c0811215620001ae57600080fd5b620001b98562000162565b9350620001c96020860162000162565b92506080603f1982011215620001de57600080fd5b50604051608081016001600160401b03811182821017156200021057634e487b7160e01b600052604160045260246000fd5b806040525062000223604086016200017f565b815262000233606086016200017f565b602082015262000246608086016200017f565b60408201526200025960a086016200017f565b6060820152809150509250925092565b600060208083528351808285015260005b8181101562000298578581018301518582016040015282016200027a565b506000604082860101526040601f19601f8301168501019250505092915050565b6080516129d7620002ea6000396000818161013d0152818161024501528181610414015261103101526129d76000f3fe608060405234801561001057600080fd5b50600436106100cf5760003560e01c80635baaeaab1161008c5780637cbc2373116100665780637cbc2373146101f25780639e59085414610205578063e3056a3414610218578063e4c0aaf41461022b57600080fd5b80635baaeaab146101c4578063616a1ed9146101cd57806371db63ec146101df57600080fd5b80630c340a24146100d45780631b2ef1ca14610104578063238efcbc14610125578063362141441461012f57806344bbdb5514610138578063458e8e6b1461015f575b600080fd5b6000546100e7906001600160a01b031681565b6040516001600160a01b0390911681526020015b60405180910390f35b61011761011236600461265b565b61023e565b6040519081526020016100fb565b61012d6102d3565b005b61011760045481565b6100e77f000000000000000000000000000000000000000000000000000000000000000081565b600254610191906001600160401b0380821691600160401b8104821691600160801b8204811691600160c01b90041684565b604080516001600160401b03958616815293851660208501529184169183019190915290911660608201526080016100fb565b61011760035481565b6101176101db36600461265b565b5090565b6101176101ed36600461265b565b610383565b61011761020036600461265b565b61040d565b61012d610213366004612699565b610530565b6001546100e7906001600160a01b031681565b61012d61023936600461273b565b610669565b60006102727f00000000000000000000000000000000000000000000000000000000000000006001600160a01b031661073e565b6001600160a01b0316336001600160a01b03161460405180604001604052806002815260200161033360f41b815250906102c85760405162461bcd60e51b81526004016102bf9190612758565b60405180910390fd5b508290505b92915050565b600154604080518082019091526002815261033360f41b6020820152906001600160a01b031633146103185760405162461bcd60e51b81526004016102bf9190612758565b5060008054600180546001600160a01b03198084166001600160a01b03808416919091179095551690556040805192909116808352336020840152917fde4b3f61490b74c0ed6237523974fe299126bbbf8a8a7482fd220104c59b0c8491015b60405180910390a150565b600082600003610395575060006102cd565b604080516080810182526002546001600160401b038082168352600160401b820481166020840152600160801b8204811693830193909352600160c01b9004909116606082015260006103e7826107c0565b905060006103f585846109b5565b905061040381848489610a1d565b9695505050505050565b60006104417f00000000000000000000000000000000000000000000000000000000000000006001600160a01b031661073e565b6001600160a01b0316336001600160a01b03161460405180604001604052806002815260200161033360f41b8152509061048e5760405162461bcd60e51b81526004016102bf9190612758565b508260000361049f575060006102cd565b604080516080810182526002546001600160401b038082168352600160401b820481166020840152600160801b8204811693830193909352600160c01b9004909116606082015260006104f284836109b5565b905060006104ff836107c0565b9050600061050f8385848a610a1d565b835190915061051f9088906127bc565b600355436004559695505050505050565b600054604080518082019091526002815261033360f41b6020820152906001600160a01b031633146105755760405162461bcd60e51b81526004016102bf9190612758565b508051600280546020840151604085015160608601516001600160401b03908116600160c01b026001600160c01b03928216600160801b02929092166fffffffffffffffffffffffffffffffff938216600160401b026fffffffffffffffffffffffffffffffff1990951691909616179290921716929092179190911790556105fd816107c0565b507f4c76fdbdf1d037612da5c0dce3f84fb05d29652b0dbc2d66501d683d3df4df88816000015182602001518360400151846060015160405161037894939291906001600160401b03948516815292841660208401529083166040830152909116606082015260800190565b600054604080518082019091526002815261033360f41b6020820152906001600160a01b031633146106ae5760405162461bcd60e51b81526004016102bf9190612758565b50604080518082019091526002815261333160f01b60208201526001600160a01b0382166106ef5760405162461bcd60e51b81526004016102bf9190612758565b50600180546001600160a01b0319166001600160a01b0383169081179091556040519081527f67235ba2e63c748a35b95c4f92a3bbc2a1389938170a5ce6c9add5d0b03a314a90602001610378565b6040516321f8a72160e01b8152724d4f54484552424f4152445f4144445245535360681b60048201526000906001600160a01b038316906321f8a721906024015b602060405180830381865afa15801561079c573d6000803e3d6000fd5b505050506040513d601f19601f820116820180604052508101906102cd91906127cf565b6107c86125c8565b6107d06125c8565b6107e783602001516001600160401b031684610b64565b81526107f4600084610b64565b8160200181815250506108318160000151670de0b6b3a764000085600001516001600160401b031686602001516001600160401b03166001610cbb565b60408201526020810151835161085e9190670de0b6b3a7640000906001600160401b031660006001610cbb565b60608201526040830151600090610886906001600160401b0316670de0b6b3a76400006127ec565b84519091506108969060026127ff565b6001600160401b03166108aa60028361290e565b6108b49190612933565b6108c690670de0b6b3a76400006127ec565b60808301819052845160208601516108f69291670de0b6b3a7640000916001600160401b03918216911685610dc8565b60c083018190526080830151855161092392670de0b6b3a7640000916001600160401b0316906001610cbb565b60e0830152604084015160029061094b906001600160401b0316670de0b6b3a76400006127bc565b6109559190612933565b60a08301819052604085015185516109849291670de0b6b3a7640000916001600160401b039182169116610ec7565b610100830181905260a08301516109a891670de0b6b3a76400009060006001610cbb565b6101208301525092915050565b6109d960405180606001604052806000815260200160008152602001600081525090565b6040518060600160405280610a016003544360045487606001516001600160401b0316610fa9565b8152602001848152602001610a1461102a565b90529392505050565b6000610a4360405180606001604052806000815260200160008152602001600081525090565b85516040870151600091610a56916127bc565b8751909150610a6590826110c4565b82526020870151610a7690826110c4565b60208301526040870151610a8a90826110c4565b604083018190526020830151600091610aa391906110c4565b9050670de0b6b3a76400008110610abf57849350505050610b5c565b86604001516001600160401b03168111610b07576000610af089604001518a602001516110c490919063ffffffff16565b9050610afc8187611137565b945050505050610b5c565b6000610b14848989611158565b90506000610b228285611137565b90506000610b41888c60000151610b3991906127bc565b83878d61161b565b9050808b60200151610b5391906127ec565b96505050505050505b949350505050565b600082670de0b6b3a76400001015610bbe5760405162461bcd60e51b815260206004820152601a60248201527f7961206d7573742062652067726561746572207468616e20787500000000000060448201526064016102bf565b81516001600160401b03166000610bdd85670de0b6b3a76400006127ec565b60408501519091506001600160401b0316610bf88383611137565b610c0a90670de0b6b3a76400006127ec565b10610c5057671bc16d674ec80000610c21826116a4565b610c2b9084612947565b610c359190612933565b610c4790670de0b6b3a76400006127ec565b925050506102cd565b600084604001516001600160401b0316670de0b6b3a7640000610c7391906127ec565b9050610c80836002612947565b610c8b60028361290e565b610c959190612933565b610c9f8284611137565b610cb190670de0b6b3a76400006127ec565b61040391906127bc565b600084861060405180604001604052806002815260200161333160f01b81525090610cf95760405162461bcd60e51b81526004016102bf9190612758565b506000610d0e610d0985886127ec565b6116b0565b9050600085610d1d89896127ec565b610d2f90671bc16d674ec80000612947565b610d399190612933565b9050808210610d6757610d54610d4f82846127ec565b6116bc565b610d5e90886127ec565b92505050610dbf565b8380610d7f575080610d7c620f4240846127bc565b10155b60405180604001604052806002815260200161323760f01b81525090610db85760405162461bcd60e51b81526004016102bf9190612758565b5086925050505b95945050505050565b600080610dd587876127ec565b90506000610de38588611137565b90506000671bc16d674ec80000610dfb60028761290e565b610e059190612933565b610e0f8885611137565b11610e6557600087610e2985671bc16d674ec80000612947565b610e339190612933565b90506000610e40826116bc565b905089811015610e5957610e54818b6127ec565b610e5c565b60005b92505050610eb0565b6000610e7c610e75896002612947565b87906110c4565b610e8685886110c4565b610e9091906127bc565b905088811015610ea957610ea4818a6127ec565b610eac565b60005b9150505b610eba81836116da565b9998505050505050505050565b600080610ed486866110c4565b90506000610ee284876110c4565b905060006002610efa87670de0b6b3a76400006127bc565b610f049190612933565b8310610f3f57610f3887610f32610f2386670de0b6b3a76400006127ec565b671bc16d674ec8000090611137565b906110c4565b9050610f93565b60006002610f5588670de0b6b3a76400006127ec565b610f5f919061290e565b90506000610f6d888a611137565b610f77908b6127ec565b9050610f84816002612947565b610f8e9083612933565b925050505b610f9d81836116f0565b98975050505050505050565b600083831480610fb7575084155b15610fc3575083610b5c565b83831015610ffa576000610fd784866127ec565b90506000610fe584836116ff565b9050610ff18782611137565b92505050610b5c565b6040805180820182526002815261333160f01b6020820152905162461bcd60e51b81526102bf9190600401612758565b600061105e7f00000000000000000000000000000000000000000000000000000000000000006001600160a01b031661174e565b6001600160a01b03166318160ddd6040518163ffffffff1660e01b8152600401602060405180830381865afa15801561109b573d6000803e3d6000fd5b505050506040513d601f19601f820116820180604052508101906110bf919061295e565b905090565b604080518082019091526002815261323560f01b6020820152600090826110fe5760405162461bcd60e51b81526004016102bf9190612758565b508260000361110f575060006102cd565b6000611123670de0b6b3a764000085612947565b905061112f8382612933565b9150506102cd565b6000806111448385612947565b9050610b5c670de0b6b3a764000082612933565b600061116261261b565b600061116f868686611791565b670de0b6b3a764000083526040870151602088015191925061119191906110c4565b602083018190526111aa90670de0b6b3a76400006127ec565b606083015260408501516111cf906001600160401b0316670de0b6b3a76400006127ec565b608083015260008160068111156111e8576111e8612977565b0361120757855160208701516111fe91906127bc565b92505050611614565b600181600681111561121b5761121b612977565b0361129757600085602001516001600160401b0316876000015161123f91906127ec565b9050671bc16d674ec80000611253826116a4565b875161126891906001600160401b0316612947565b6112729190612933565b8751602089015161128391906127bc565b61128d91906127ec565b9350505050611614565b60028160068111156112ab576112ab612977565b036113225784516112bd9060026127ff565b6001600160401b0316600283606001516112d7919061290e565b6112e19190612933565b61130c836060015187602001516001600160401b0316856000015161130691906127ec565b90611137565b835161131891906127ec565b6111fe91906127bc565b600381600681111561133657611336612977565b036113b1576000671bc16d674ec800006113826002896040015161135a9190612933565b88516060870151611373916001600160401b03166110c4565b61137d91906127bc565b6116a4565b875161139791906001600160401b0316612947565b6113a19190612933565b835190915061128d9082906127ec565b60048160068111156113c5576113c5612977565b036114ac57600061141187604001516113fc886000015160026113e891906127ff565b6080870151906001600160401b03166110c4565b61140691906127bc565b608085015190611137565b9050600061147461143c88604001516001600160401b03168a6040015161113790919063ffffffff16565b896020015161144b91906127ec565b88600001516001600160401b03166002876080015161146a919061290e565b6113069190612933565b61147f906002612947565b90508161148b826116bc565b855161149791906127bc565b6114a191906127ec565b945050505050611614565b60058160068111156114c0576114c0612977565b036114fd5760006113a16114d788600001516116a4565b6114e990670de0b6b3a76400006127ec565b88602001518960400151610f3291906127ec565b600681600681111561151157611511612977565b036115db576000600283608001518860200151896040015161153391906127ec565b61153d91906127bc565b6115479190612933565b90506000600461156a61155d8a600001516116a4565b61130687608001516116a4565b6115749190612933565b61159085608001518a602001518b6040015161130691906127ec565b61159a91906127bc565b905060006115b5826115ab856116a4565b610d4f91906127ec565b6115bf90846127ec565b85519091506115cf9082906127ec565b95505050505050611614565b60405162461bcd60e51b815260206004820152600e60248201526d3ab735b737bbb7103932b3b4b7b760911b60448201526064016102bf565b9392505050565b600080611644858585604001516001600160401b031686600001516001600160401b0316610ec7565b9050600061168286868487602001516001600160401b031688604001516001600160401b0316670de0b6b3a764000061167d91906127ec565b610dc8565b90506000611694878785856000610cbb565b9050610f9d88888886868661199f565b60006102cd8283611137565b60006102cd8283611a3c565b60006102cd826116d56002670de0b6b3a7640000612933565b611a86565b60008183106116e95781611614565b5090919050565b60008183116116e95781611614565b6000670de0b6b3a76400005b82156116145761171c60028461298d565b6001036117305761172d8185611137565b90505b61173b600284612933565b92506117478485611137565b935061170b565b6040516321f8a72160e01b8152704759445f544f4b454e5f4144445245535360781b60048201526000906001600160a01b038316906321f8a7219060240161077f565b600061179e848484611c18565b156118465782602001516001600160401b03168460000151116117c357506000611614565b60006117e0856040015186602001516110c490919063ffffffff16565b9050600061181585602001516001600160401b0316876000015161180491906127ec565b86516001600160401b031690611137565b61182790670de0b6b3a76400006127ec565b905080821161183b57600192505050611614565b600292505050611614565b61185e8484600001516001600160401b031684611c66565b1561197e5761187b8484600001516001600160401b031684611c8b565b156118e157671bc16d674ec8000083600001516001600160401b03166118a486604001516116a4565b6118ae9190612947565b6118b89190612933565b846020015185604001516118cc91906127ec565b116118d957506000611614565b506003611614565b600083604001516001600160401b0316670de0b6b3a764000061190491906127ec565b84519091506119149060026127ff565b6001600160401b031661192860028361290e565b6119329190612933565b611956866040015186604001516001600160401b031661113790919063ffffffff16565b866020015161196591906127ec565b10611974576000915050611614565b6004915050611614565b6119888483611cb3565b1561199557506005611614565b5060069392505050565b60008287116119b9576119b287876127ec565b9050610403565b8187116119fe57671bc16d674ec800006119d661137d858a6127ec565b6119e09086612947565b6119ea9190612933565b6119f488886127ec565b6119b291906127bc565b6000611a14611a0d85856127ec565b8690611137565b611a2690670de0b6b3a76400006127ec565b9050610f9d611a3589886127ec565b8290611137565b600080611a498385612947565b905080600003611a5d5760009150506102cd565b670de0b6b3a7640000611a716001836127ec565b611a7b9190612933565b61112f9060016127bc565b600081600003611a9f5750670de0b6b3a76400006102cd565b82600003611aaf575060006102cd565b604080518082019091526002815261032360f41b6020820152600160ff1b8410611aec5760405162461bcd60e51b81526004016102bf9190612758565b50604080518082019091526002815261323160f01b60208201528390770bce5086492111aea88f4bb1ca6bcf584181ea8059f765328410611b405760405162461bcd60e51b81526004016102bf9190612758565b50826000670c7d713b49da000083138015611b625750670f43fc2c04ee000083125b15611b99576000611b7284611ced565b9050670de0b6b3a764000080820784020583670de0b6b3a764000083050201915050611ba7565b81611ba384611e0c565b0290505b670de0b6b3a76400009005680238fd42c5cf03ffff198112801590611bd5575068070c1cc73b00c800008113155b60405180604001604052806002815260200161191960f11b81525090611c0e5760405162461bcd60e51b81526004016102bf9190612758565b50610403816121b6565b6000611c5684600001518360000151670de0b6b3a764000086600001516001600160401b031687602001516001600160401b0316876040015161199f565b8460200151101590509392505050565b6000611c5684600001518360200151670de0b6b3a7640000866000876060015161199f565b6000611c5684600001518360800151670de0b6b3a7640000868660c001518760e0015161199f565b6000611cde83600001518360a00151670de0b6b3a7640000856101000151600087610120015161199f565b83602001511015905092915050565b670de0b6b3a7640000026000806a0c097ce7bc90715b34b9f160241b808401906ec097ce7bc90715b34b9f0fffffffff1985010281611d2e57611d2e61291d565b05905060006a0c097ce7bc90715b34b9f160241b82800205905081806a0c097ce7bc90715b34b9f160241b81840205915060038205016a0c097ce7bc90715b34b9f160241b82840205915060058205016a0c097ce7bc90715b34b9f160241b82840205915060078205016a0c097ce7bc90715b34b9f160241b82840205915060098205016a0c097ce7bc90715b34b9f160241b828402059150600b8205016a0c097ce7bc90715b34b9f160241b828402059150600d8205016a0c097ce7bc90715b34b9f160241b828402059150600f82050160020295945050505050565b6000670de0b6b3a7640000821215611e4d57611e44826a0c097ce7bc90715b34b9f160241b81611e3e57611e3e61291d565b05611e0c565b60000392915050565b60007e1600ef3172e58d2e933ec884fde10064c63b5372d805e203c00000000000008312611e9e57770195e54c5dd42177f53a27172fa9ec630262827000000000830592506806f05b59d3b2000000015b73011798004d755d3c8bc8e03204cf44619e0000008312611ed6576b1425982cf597cd205cef7380830592506803782dace9d9000000015b606492830292026e01855144814a7ff805980ff00840008312611f1e576e01855144814a7ff805980ff008400068056bc75e2d63100000840205925068ad78ebc5ac62000000015b6b02df0ab5a80a22c61ab5a7008312611f59576b02df0ab5a80a22c61ab5a70068056bc75e2d6310000084020592506856bc75e2d631000000015b693f1fce3da636ea5cf8508312611f9057693f1fce3da636ea5cf85068056bc75e2d631000008402059250682b5e3af16b18800000015b690127fa27722cc06cc5e28312611fc757690127fa27722cc06cc5e268056bc75e2d6310000084020592506815af1d78b58c400000015b68280e60114edb805d038312611ffc5768280e60114edb805d0368056bc75e2d631000008402059250680ad78ebc5ac6200000015b680ebc5fb41746121110831261202757680ebc5fb4174612111068056bc75e2d631000009384020592015b6808f00f760a4b2db55d831261205c576808f00f760a4b2db55d68056bc75e2d6310000084020592506802b5e3af16b1880000015b6806f5f17757889379378312612091576806f5f177578893793768056bc75e2d63100000840205925068015af1d78b58c40000015b6806248f33704b28660383126120c5576806248f33704b28660368056bc75e2d63100000840205925067ad78ebc5ac620000015b6805c548670b9510e7ac83126120f9576805c548670b9510e7ac68056bc75e2d6310000084020592506756bc75e2d6310000015b600068056bc75e2d63100000840168056bc75e2d6310000080860302816121225761212261291d565b059050600068056bc75e2d63100000828002059050818068056bc75e2d63100000818402059150600382050168056bc75e2d63100000828402059150600582050168056bc75e2d63100000828402059150600782050168056bc75e2d63100000828402059150600982050168056bc75e2d63100000828402059150600b820501600202606485820105979650505050505050565b6000680238fd42c5cf03ffff1982121580156121db575068070c1cc73b00c800008213155b60405180604001604052806002815260200161323360f01b815250906122145760405162461bcd60e51b81526004016102bf9190612758565b50600082121561224d5761222a826000036121b6565b6a0c097ce7bc90715b34b9f160241b816122465761224661291d565b0592915050565b60006806f05b59d3b2000000831261228d57506806f05b59d3b1ffffff1990910190770195e54c5dd42177f53a27172fa9ec6302628270000000006122c3565b6803782dace9d900000083126122bf57506803782dace9d8ffffff19909101906b1425982cf597cd205cef73806122c3565b5060015b6064929092029168056bc75e2d6310000068ad78ebc5ac6200000084126123135768ad78ebc5ac61ffffff199093019268056bc75e2d631000006e01855144814a7ff805980ff008400082020590505b6856bc75e2d631000000841261234f576856bc75e2d630ffffff199093019268056bc75e2d631000006b02df0ab5a80a22c61ab5a70082020590505b682b5e3af16b18800000841261238957682b5e3af16b187fffff199093019268056bc75e2d63100000693f1fce3da636ea5cf85082020590505b6815af1d78b58c40000084126123c3576815af1d78b58c3fffff199093019268056bc75e2d63100000690127fa27722cc06cc5e282020590505b680ad78ebc5ac620000084126123fc57680ad78ebc5ac61fffff199093019268056bc75e2d6310000068280e60114edb805d0382020590505b68056bc75e2d6310000084126124355768056bc75e2d630fffff199093019268056bc75e2d63100000680ebc5fb4174612111082020590505b6802b5e3af16b1880000841261246e576802b5e3af16b187ffff199093019268056bc75e2d631000006808f00f760a4b2db55d82020590505b68015af1d78b58c4000084126124a75768015af1d78b58c3ffff199093019268056bc75e2d631000006806f5f177578893793782020590505b68056bc75e2d631000008481019085906002908280020505918201919050600368056bc75e2d631000008783020505918201919050600468056bc75e2d631000008783020505918201919050600568056bc75e2d631000008783020505918201919050600668056bc75e2d631000008783020505918201919050600768056bc75e2d631000008783020505918201919050600868056bc75e2d631000008783020505918201919050600968056bc75e2d631000008783020505918201919050600a68056bc75e2d631000008783020505918201919050600b68056bc75e2d631000008783020505918201919050600c68056bc75e2d631000008783020505918201919050606468056bc75e2d63100000848402058502059695505050505050565b604051806101400160405280600081526020016000815260200160008152602001600081526020016000815260200160008152602001600081526020016000815260200160008152602001600081525090565b6040518060a0016040528060008152602001600081526020016000600681111561264757612647612977565b815260200160008152602001600081525090565b6000806040838503121561266e57600080fd5b50508035926020909101359150565b80356001600160401b038116811461269457600080fd5b919050565b6000608082840312156126ab57600080fd5b604051608081018181106001600160401b03821117156126db57634e487b7160e01b600052604160045260246000fd5b6040526126e78361267d565b81526126f56020840161267d565b60208201526127066040840161267d565b60408201526127176060840161267d565b60608201529392505050565b6001600160a01b038116811461273857600080fd5b50565b60006020828403121561274d57600080fd5b813561161481612723565b600060208083528351808285015260005b8181101561278557858101830151858201604001528201612769565b506000604082860101526040601f19601f8301168501019250505092915050565b634e487b7160e01b600052601160045260246000fd5b808201808211156102cd576102cd6127a6565b6000602082840312156127e157600080fd5b815161161481612723565b818103818111156102cd576102cd6127a6565b6001600160401b03818116838216028082169190828114612822576128226127a6565b505092915050565b600181815b8085111561286557816000190482111561284b5761284b6127a6565b8085161561285857918102915b93841c939080029061282f565b509250929050565b60008261287c575060016102cd565b81612889575060006102cd565b816001811461289f57600281146128a9576128c5565b60019150506102cd565b60ff8411156128ba576128ba6127a6565b50506001821b6102cd565b5060208310610133831016604e8410600b84101617156128e8575081810a6102cd565b6128f2838361282a565b8060001904821115612906576129066127a6565b029392505050565b600061161460ff84168361286d565b634e487b7160e01b600052601260045260246000fd5b6000826129425761294261291d565b500490565b80820281158282048414176102cd576102cd6127a6565b60006020828403121561297057600080fd5b5051919050565b634e487b7160e01b600052602160045260246000fd5b60008261299c5761299c61291d565b50069056fea2646970667358221220ba111d83d3cbdd7fe058638d7e1cdbf7521a9dd4a357eb9338ee8c92348bce4e64736f6c63430008110033",
    "linkReferences": {}
  },
  "methodIdentifiers": {
    "acceptGovernance()": "238efcbc",
    "changeGovernor(address)": "e4c0aaf4",
    "computeMintAmount(uint256,uint256)": "616a1ed9",
    "computeRedeemAmount(uint256,uint256)": "71db63ec",
    "governor()": "0c340a24",
    "gyroConfig()": "44bbdb55",
    "lastRedemptionBlock()": "36214144",
    "mint(uint256,uint256)": "1b2ef1ca",
    "pendingGovernor()": "e3056a34",
    "redeem(uint256,uint256)": "7cbc2373",
    "redemptionLevel()": "5baaeaab",
    "setSystemParams((uint64,uint64,uint64,uint64))": "9e590854",
    "systemParams()": "458e8e6b"
  },
  "id": 0
}