{
  "abi": [
    {
      "inputs": [],
      "name": "cash",
      "outputs": [
        {
          "internalType": "uint256",
          "name": "",
          "type": "uint256"
        }
      ],
      "stateMutability": "view",
      "type": "function"
    },
    {
      "inputs": [
        {
          "internalType": "bytes32",
          "name": "poolId",
          "type": "bytes32"
        }
      ],
      "name": "getPool",
      "outputs": [
        {
          "internalType": "address",
          "name": "",
          "type": "address"
        },
        {
          "internalType": "enum IVault.PoolSpecialization",
          "name": "",
          "type": "uint8"
        }
      ],
      "stateMutability": "view",
      "type": "function"
    },
    {
      "inputs": [
        {
          "internalType": "bytes32",
          "name": "poolId",
          "type": "bytes32"
        },
        {
          "internalType": "address",
          "name": "token",
          "type": "address"
        }
      ],
      "name": "getPoolTokenInfo",
      "outputs": [
        {
          "internalType": "uint256",
          "name": "",
          "type": "uint256"
        },
        {
          "internalType": "uint256",
          "name": "",
          "type": "uint256"
        },
        {
          "internalType": "uint256",
          "name": "",
          "type": "uint256"
        },
        {
          "internalType": "address",
          "name": "",
          "type": "address"
        }
      ],
      "stateMutability": "view",
      "type": "function"
    },
    {
      "inputs": [
        {
          "internalType": "bytes32",
          "name": "poolId",
          "type": "bytes32"
        }
      ],
      "name": "getPoolTokens",
      "outputs": [
        {
          "internalType": "contract IERC20[]",
          "name": "",
          "type": "address[]"
        },
        {
          "internalType": "uint256[]",
          "name": "",
          "type": "uint256[]"
        },
        {
          "internalType": "uint256",
          "name": "",
          "type": "uint256"
        }
      ],
      "stateMutability": "view",
      "type": "function"
    },
    {
      "inputs": [],
      "name": "lastChangeBlock",
      "outputs": [
        {
          "internalType": "uint256",
          "name": "",
          "type": "uint256"
        }
      ],
      "stateMutability": "view",
      "type": "function"
    },
    {
      "inputs": [
        {
          "components": [
            {
              "internalType": "enum IVault.UserBalanceOpKind",
              "name": "kind",
              "type": "uint8"
            },
            {
              "internalType": "contract IAsset",
              "name": "asset",
              "type": "address"
            },
            {
              "internalType": "uint256",
              "name": "amount",
              "type": "uint256"
            },
            {
              "internalType": "address",
              "name": "sender",
              "type": "address"
            },
            {
              "internalType": "address payable",
              "name": "recipient",
              "type": "address"
            }
          ],
          "internalType": "struct IVault.UserBalanceOp[]",
          "name": "ops",
          "type": "tuple[]"
        }
      ],
      "name": "manageUserBalance",
      "outputs": [],
      "stateMutability": "payable",
      "type": "function"
    },
    {
      "inputs": [
        {
          "internalType": "enum IVault.PoolSpecialization",
          "name": "",
          "type": "uint8"
        }
      ],
      "name": "registerPool",
      "outputs": [
        {
          "internalType": "bytes32",
          "name": "",
          "type": "bytes32"
        }
      ],
      "stateMutability": "view",
      "type": "function"
    },
    {
      "inputs": [
        {
          "internalType": "bytes32",
          "name": "poolId",
          "type": "bytes32"
        },
        {
          "internalType": "contract IERC20[]",
          "name": "tokens",
          "type": "address[]"
        },
        {
          "internalType": "address[]",
          "name": "",
          "type": "address[]"
        }
      ],
      "name": "registerTokens",
      "outputs": [],
      "stateMutability": "nonpayable",
      "type": "function"
    },
    {
      "inputs": [
        {
          "internalType": "uint256",
          "name": "_newCash",
          "type": "uint256"
        }
      ],
      "name": "setCash",
      "outputs": [],
      "stateMutability": "nonpayable",
      "type": "function"
    },
    {
      "inputs": [
        {
          "internalType": "uint256",
          "name": "_lastChangeBlock",
          "type": "uint256"
        }
      ],
      "name": "setLastChangeBlock",
      "outputs": [],
      "stateMutability": "nonpayable",
      "type": "function"
    },
    {
      "inputs": [
        {
          "internalType": "bytes32",
          "name": "poolId",
          "type": "bytes32"
        },
        {
          "internalType": "contract IERC20[]",
          "name": "tokens",
          "type": "address[]"
        },
        {
          "internalType": "uint256[]",
          "name": "balances",
          "type": "uint256[]"
        }
      ],
      "name": "setPoolTokens",
      "outputs": [],
      "stateMutability": "nonpayable",
      "type": "function"
    },
    {
      "inputs": [
        {
          "internalType": "bytes32",
          "name": "poolId",
          "type": "bytes32"
        },
        {
          "internalType": "address",
          "name": "_mockBalancerPoolAddress",
          "type": "address"
        }
      ],
      "name": "storePoolAddress",
      "outputs": [],
      "stateMutability": "nonpayable",
      "type": "function"
    }
  ],
  "bytecode": {
    "object": "0x608060405234801561001057600080fd5b50610b48806100206000396000f3fe6080604052600436106100a75760003560e01c80637fc1a090116100645780637fc1a09014610169578063961be391146101b5578063b05f8e48146101cb578063c106cbd314610221578063f6c0092714610241578063f94d46681461028857600080fd5b806309b2760f146100ac5780630e8e3e84146100e05780635dd1f76f146100f357806366a9c7d21461011357806374bdb372146101335780637ac1141f14610149575b600080fd5b3480156100b857600080fd5b506100cd6100c7366004610604565b50600090565b6040519081526020015b60405180910390f35b6100f16100ee3660046106d5565b50565b005b3480156100ff57600080fd5b506100f161010e366004610844565b6102b7565b34801561011f57600080fd5b506100f161012e366004610907565b610353565b34801561013f57600080fd5b506100cd60015481565b34801561015557600080fd5b506100f16101643660046109c4565b600255565b34801561017557600080fd5b506100f16101843660046109dd565b60009182526020829052604090912060020180546001600160a01b0319166001600160a01b03909216919091179055565b3480156101c157600080fd5b506100cd60025481565b3480156101d757600080fd5b506101f86101e63660046109dd565b50506002546001549091600091908290565b604080519485526020850193909352918301526001600160a01b031660608201526080016100d7565b34801561022d57600080fd5b506100f161023c3660046109c4565b600155565b34801561024d57600080fd5b5061027a61025c3660046109c4565b6000908152602081905260408120600201546001600160a01b031691565b6040516100d7929190610a0d565b34801561029457600080fd5b506102a86102a33660046109c4565b6103d6565b6040516100d793929190610a48565b600083815260208181526040808320600281015482516060810184528781528085018790526001600160a01b03909116928101839052878552938352835180519294938493610309928492019061054f565b50602082810151805161032292600185019201906105b4565b5060409190910151600290910180546001600160a01b0319166001600160a01b039092169190911790555050505050565b6000838152602081905260408120905b83518110156103cf578160000184828151811061038257610382610ad5565b60209081029190910181015182546001810184556000938452919092200180546001600160a01b0319166001600160a01b03909216919091179055806103c781610aeb565b915050610363565b5050505050565b6000818152602081905260408120805460609283929091829067ffffffffffffffff8111156104075761040761062c565b604051908082528060200260200182016040528015610430578160200160208202803683370190505b50825490915060009067ffffffffffffffff8111156104515761045161062c565b60405190808252806020026020018201604052801561047a578160200160208202803683370190505b50905060005b835481101561053d5783600001818154811061049e5761049e610ad5565b9060005260206000200160009054906101000a90046001600160a01b03168382815181106104ce576104ce610ad5565b60200260200101906001600160a01b031690816001600160a01b03168152505083600101818154811061050357610503610ad5565b906000526020600020015482828151811061052057610520610ad5565b60209081029190910101528061053581610aeb565b915050610480565b50600154919790965090945092505050565b8280548282559060005260206000209081019282156105a4579160200282015b828111156105a457825182546001600160a01b0319166001600160a01b0390911617825560209092019160019091019061056f565b506105b09291506105ef565b5090565b8280548282559060005260206000209081019282156105a4579160200282015b828111156105a45782518255916020019190600101906105d4565b5b808211156105b057600081556001016105f0565b60006020828403121561061657600080fd5b81356003811061062557600080fd5b9392505050565b634e487b7160e01b600052604160045260246000fd5b60405160a0810167ffffffffffffffff811182821017156106655761066561062c565b60405290565b604051601f8201601f1916810167ffffffffffffffff811182821017156106945761069461062c565b604052919050565b600067ffffffffffffffff8211156106b6576106b661062c565b5060051b60200190565b6001600160a01b03811681146100ee57600080fd5b600060208083850312156106e857600080fd5b823567ffffffffffffffff8111156106ff57600080fd5b8301601f8101851361071057600080fd5b803561072361071e8261069c565b61066b565b81815260a0918202830184019184820191908884111561074257600080fd5b938501935b838510156107c95780858a03121561075f5760008081fd5b610767610642565b8535600481106107775760008081fd5b815285870135610786816106c0565b81880152604086810135908201526060808701356107a3816106c0565b908201526080868101356107b6816106c0565b9082015283529384019391850191610747565b50979650505050505050565b600082601f8301126107e657600080fd5b813560206107f661071e8361069c565b82815260059290921b8401810191818101908684111561081557600080fd5b8286015b8481101561083957803561082c816106c0565b8352918301918301610819565b509695505050505050565b60008060006060848603121561085957600080fd5b8335925060208085013567ffffffffffffffff8082111561087957600080fd5b610885888389016107d5565b9450604087013591508082111561089b57600080fd5b508501601f810187136108ad57600080fd5b80356108bb61071e8261069c565b81815260059190911b820183019083810190898311156108da57600080fd5b928401925b828410156108f8578335825292840192908401906108df565b80955050505050509250925092565b60008060006060848603121561091c57600080fd5b8335925060208085013567ffffffffffffffff8082111561093c57600080fd5b610948888389016107d5565b9450604087013591508082111561095e57600080fd5b508501601f8101871361097057600080fd5b803561097e61071e8261069c565b81815260059190911b8201830190838101908983111561099d57600080fd5b928401925b828410156108f85783356109b5816106c0565b825292840192908401906109a2565b6000602082840312156109d657600080fd5b5035919050565b600080604083850312156109f057600080fd5b823591506020830135610a02816106c0565b809150509250929050565b6001600160a01b03831681526040810160038310610a3b57634e487b7160e01b600052602160045260246000fd5b8260208301529392505050565b606080825284519082018190526000906020906080840190828801845b82811015610a8a5781516001600160a01b031684529284019290840190600101610a65565b5050508381038285015285518082528683019183019060005b81811015610abf57835183529284019291840191600101610aa3565b5050809350505050826040830152949350505050565b634e487b7160e01b600052603260045260246000fd5b600060018201610b0b57634e487b7160e01b600052601160045260246000fd5b506001019056fea26469706673582212209f9683bf6c0d17c079f9ed14a9b93b986a494f62ac41f25840acb8983f3e618a64736f6c63430008110033",
    "linkReferences": {}
  },
  "methodIdentifiers": {
    "cash()": "961be391",
    "getPool(bytes32)": "f6c00927",
    "getPoolTokenInfo(bytes32,address)": "b05f8e48",
    "getPoolTokens(bytes32)": "f94d4668",
    "lastChangeBlock()": "74bdb372",
    "manageUserBalance((uint8,address,uint256,address,address)[])": "0e8e3e84",
    "registerPool(uint8)": "09b2760f",
    "registerTokens(bytes32,address[],address[])": "66a9c7d2",
    "setCash(uint256)": "7ac1141f",
    "setLastChangeBlock(uint256)": "c106cbd3",
    "setPoolTokens(bytes32,address[],uint256[])": "5dd1f76f",
    "storePoolAddress(bytes32,address)": "7fc1a090"
  },
  "id": 53
}