{
  "abi": [
    {
      "inputs": [
        {
          "internalType": "address",
          "name": "_assetRegistry",
          "type": "address"
        },
        {
          "internalType": "address",
          "name": "_priceSigner",
          "type": "address"
        },
        {
          "internalType": "bool",
          "name": "_preventStalePrice",
          "type": "bool"
        }
      ],
      "stateMutability": "nonpayable",
      "type": "constructor"
    },
    {
      "anonymous": false,
      "inputs": [
        {
          "indexed": true,
          "internalType": "address",
          "name": "asset",
          "type": "address"
        },
        {
          "indexed": false,
          "internalType": "uint256",
          "name": "price",
          "type": "uint256"
        },
        {
          "indexed": false,
          "internalType": "uint256",
          "name": "timestamp",
          "type": "uint256"
        }
      ],
      "name": "PriceUpdated",
      "type": "event"
    },
    {
      "inputs": [],
      "name": "MAX_LAG",
      "outputs": [
        {
          "internalType": "uint256",
          "name": "",
          "type": "uint256"
        }
      ],
      "stateMutability": "view",
      "type": "function"
    },
    {
      "inputs": [],
      "name": "PRICE_DECIMALS",
      "outputs": [
        {
          "internalType": "uint8",
          "name": "",
          "type": "uint8"
        }
      ],
      "stateMutability": "view",
      "type": "function"
    },
    {
      "inputs": [],
      "name": "assetRegistry",
      "outputs": [
        {
          "internalType": "contract IAssetRegistry",
          "name": "",
          "type": "address"
        }
      ],
      "stateMutability": "view",
      "type": "function"
    },
    {
      "inputs": [
        {
          "internalType": "bytes",
          "name": "message",
          "type": "bytes"
        }
      ],
      "name": "callDecodeMessage",
      "outputs": [
        {
          "internalType": "uint256",
          "name": "",
          "type": "uint256"
        },
        {
          "internalType": "string",
          "name": "",
          "type": "string"
        },
        {
          "internalType": "uint256",
          "name": "",
          "type": "uint256"
        }
      ],
      "stateMutability": "pure",
      "type": "function"
    },
    {
      "inputs": [
        {
          "internalType": "bytes",
          "name": "message",
          "type": "bytes"
        },
        {
          "internalType": "bytes",
          "name": "signature",
          "type": "bytes"
        }
      ],
      "name": "callVerifyMessage",
      "outputs": [
        {
          "internalType": "address",
          "name": "",
          "type": "address"
        }
      ],
      "stateMutability": "pure",
      "type": "function"
    },
    {
      "inputs": [
        {
          "internalType": "address",
          "name": "asset",
          "type": "address"
        }
      ],
      "name": "getLastUpdate",
      "outputs": [
        {
          "internalType": "uint256",
          "name": "",
          "type": "uint256"
        }
      ],
      "stateMutability": "view",
      "type": "function"
    },
    {
      "inputs": [
        {
          "internalType": "address",
          "name": "baseAsset",
          "type": "address"
        }
      ],
      "name": "getPriceUSD",
      "outputs": [
        {
          "internalType": "uint256",
          "name": "",
          "type": "uint256"
        }
      ],
      "stateMutability": "view",
      "type": "function"
    },
    {
      "inputs": [
        {
          "internalType": "bytes",
          "name": "message",
          "type": "bytes"
        },
        {
          "internalType": "bytes",
          "name": "signature",
          "type": "bytes"
        }
      ],
      "name": "postPrice",
      "outputs": [],
      "stateMutability": "nonpayable",
      "type": "function"
    },
    {
      "inputs": [
        {
          "components": [
            {
              "internalType": "bytes",
              "name": "message",
              "type": "bytes"
            },
            {
              "internalType": "bytes",
              "name": "signature",
              "type": "bytes"
            }
          ],
          "internalType": "struct TrustedSignerPriceOracle.SignedPrice[]",
          "name": "signedPrices",
          "type": "tuple[]"
        }
      ],
      "name": "postPrices",
      "outputs": [],
      "stateMutability": "nonpayable",
      "type": "function"
    },
    {
      "inputs": [],
      "name": "preventStalePrice",
      "outputs": [
        {
          "internalType": "bool",
          "name": "",
          "type": "bool"
        }
      ],
      "stateMutability": "view",
      "type": "function"
    },
    {
      "inputs": [],
      "name": "trustedPriceSigner",
      "outputs": [
        {
          "internalType": "address",
          "name": "",
          "type": "address"
        }
      ],
      "stateMutability": "view",
      "type": "function"
    }
  ],
  "bytecode": {
    "object": "0x60c060405234801561001057600080fd5b50604051610ee0380380610ee083398101604081905261002f91610074565b6001600160a01b0392831660a05291166080526001805460ff19169115159190911790556100c0565b80516001600160a01b038116811461006f57600080fd5b919050565b60008060006060848603121561008957600080fd5b61009284610058565b92506100a060208501610058565b9150604084015180151581146100b557600080fd5b809150509250925092565b60805160a051610ded6100f3600039600081816101a6015261065b01526000818161017f01526105d60152610ded6000f3fe608060405234801561001057600080fd5b50600436106100a95760003560e01c80635a7e1989116100715780635a7e1989146101475780637571fd2c1461017a578063979d7e86146101a1578063b4ca0647146101c8578063c536917c146101dd578063f1a640f8146101f057600080fd5b806314c1d37f146100ae5780631769c976146100ca5780633ea8faac146100f55780634f46b0cb146101125780635708447d14610134575b600080fd5b6100b7610e1081565b6040519081526020015b60405180910390f35b6100dd6100d83660046108c8565b61020a565b6040516001600160a01b0390911681526020016100c1565b6001546101029060ff1681565b60405190151581526020016100c1565b61012561012036600461092c565b61021f565b6040516100c1939291906109b9565b6100b76101423660046109fa565b61023b565b6100b76101553660046109fa565b6001600160a01b031660009081526020819052604090205467ffffffffffffffff1690565b6100dd7f000000000000000000000000000000000000000000000000000000000000000081565b6100dd7f000000000000000000000000000000000000000000000000000000000000000081565b6101db6101d6366004610a1e565b610337565b005b6101db6101eb3660046108c8565b61040a565b6101f8600681565b60405160ff90911681526020016100c1565b60006102168383610418565b90505b92915050565b60006060600061022e846104fc565b9250925092509193909250565b6001600160a01b03811660009081526020818152604080832081518083018352905467ffffffffffffffff8116808352600160401b9091046001600160801b03168285015282518084019093526002835261034360f41b93830193909352916102c05760405162461bcd60e51b81526004016102b79190610a93565b60405180910390fd5b5060015460ff161561032457805142906102e790610e109067ffffffffffffffff16610abc565b101560405180604001604052806002815260200161343160f01b815250906103225760405162461bcd60e51b81526004016102b79190610a93565b505b602001516001600160801b031692915050565b60005b81811015610405573683838381811061035557610355610acf565b90506020028101906103679190610ae5565b90506103f26103768280610b05565b8080601f0160208091040260200160405190810160405280939291908181526020018383808284376000920191909152506103b8925050506020840184610b05565b8080601f0160208091040260200160405190810160405280939291908181526020018383808284376000920191909152506105c692505050565b50806103fd81610b53565b91505061033a565b505050565b61041482826105c6565b5050565b600080600080848060200190518101906104329190610b6c565b9250925092506000868051906020012060405160200161047e91907f19457468657265756d205369676e6564204d6573736167653a0a3332000000008152601c810191909152603c0190565b60408051601f1981840301815282825280516020918201206000845290830180835281905260ff8516918301919091526060820186905260808201859052915060019060a0016020604051602081039080840390855afa1580156104e6573d6000803e3d6000fd5b5050604051601f19015198975050505050505050565b6000606060008060008060008780602001905181019061051c9190610bf0565b9350935093509350604051602001610540906570726963657360d01b815260060190565b60405160208183030381529060405280519060200120846040516020016105679190610c65565b604051602081830303815290604052805190602001201460405180604001604052806002815260200161343360f01b815250906105b75760405162461bcd60e51b81526004016102b79190610a93565b50919790965090945092505050565b60006105d28383610418565b90507f00000000000000000000000000000000000000000000000000000000000000006001600160a01b0316816001600160a01b03161460405180604001604052806002815260200161343360f01b815250906106425760405162461bcd60e51b81526004016102b79190610a93565b506000806000610651866104fc565b92509250925060007f00000000000000000000000000000000000000000000000000000000000000006001600160a01b0316637307ae55846040518263ffffffff1660e01b81526004016106a59190610a93565b602060405180830381865afa1580156106c2573d6000803e3d6000fd5b505050506040513d601f19601f820116820180604052508101906106e69190610c77565b6001600160a01b038116600090815260208190526040902080549192509067ffffffffffffffff1685118015610727575042610724610e1087610abc565b10155b60405180604001604052806002815260200161343160f01b815250906107605760405162461bcd60e51b81526004016102b79190610a93565b50600061076f60066012610c94565b61077a90600a610d91565b6107849085610da0565b825467ffffffffffffffff88166001600160c01b031990911617600160401b6001600160801b0383160217835560408051828152602081018990529192506001600160a01b038516917fb556fac599c3c70efb9ab1fa725ecace6c81cc48d1455f886607def065f3e0c0910160405180910390a2505050505050505050565b634e487b7160e01b600052604160045260246000fd5b604051601f8201601f1916810167ffffffffffffffff8111828210171561084257610842610803565b604052919050565b600067ffffffffffffffff82111561086457610864610803565b50601f01601f191660200190565b600082601f83011261088357600080fd5b81356108966108918261084a565b610819565b8181528460208386010111156108ab57600080fd5b816020850160208301376000918101602001919091529392505050565b600080604083850312156108db57600080fd5b823567ffffffffffffffff808211156108f357600080fd5b6108ff86838701610872565b9350602085013591508082111561091557600080fd5b5061092285828601610872565b9150509250929050565b60006020828403121561093e57600080fd5b813567ffffffffffffffff81111561095557600080fd5b61096184828501610872565b949350505050565b60005b8381101561098457818101518382015260200161096c565b50506000910152565b600081518084526109a5816020860160208601610969565b601f01601f19169290920160200192915050565b8381526060602082015260006109d2606083018561098d565b9050826040830152949350505050565b6001600160a01b03811681146109f757600080fd5b50565b600060208284031215610a0c57600080fd5b8135610a17816109e2565b9392505050565b60008060208385031215610a3157600080fd5b823567ffffffffffffffff80821115610a4957600080fd5b818501915085601f830112610a5d57600080fd5b813581811115610a6c57600080fd5b8660208260051b8501011115610a8157600080fd5b60209290920196919550909350505050565b602081526000610216602083018461098d565b634e487b7160e01b600052601160045260246000fd5b8082018082111561021957610219610aa6565b634e487b7160e01b600052603260045260246000fd5b60008235603e19833603018112610afb57600080fd5b9190910192915050565b6000808335601e19843603018112610b1c57600080fd5b83018035915067ffffffffffffffff821115610b3757600080fd5b602001915036819003821315610b4c57600080fd5b9250929050565b600060018201610b6557610b65610aa6565b5060010190565b600080600060608486031215610b8157600080fd5b8351925060208401519150604084015160ff81168114610ba057600080fd5b809150509250925092565b600082601f830112610bbc57600080fd5b8151610bca6108918261084a565b818152846020838601011115610bdf57600080fd5b610961826020830160208701610969565b60008060008060808587031215610c0657600080fd5b845167ffffffffffffffff80821115610c1e57600080fd5b610c2a88838901610bab565b9550602087015194506040870151915080821115610c4757600080fd5b50610c5487828801610bab565b606096909601519497939650505050565b60008251610afb818460208701610969565b600060208284031215610c8957600080fd5b8151610a17816109e2565b60ff828116828216039081111561021957610219610aa6565b600181815b80851115610ce8578160001904821115610cce57610cce610aa6565b80851615610cdb57918102915b93841c9390800290610cb2565b509250929050565b600082610cff57506001610219565b81610d0c57506000610219565b8160018114610d225760028114610d2c57610d48565b6001915050610219565b60ff841115610d3d57610d3d610aa6565b50506001821b610219565b5060208310610133831016604e8410600b8410161715610d6b575081810a610219565b610d758383610cad565b8060001904821115610d8957610d89610aa6565b029392505050565b600061021660ff841683610cf0565b808202811582820484141761021957610219610aa656fea26469706673582212206ff4784115aecdefd04aed21dacd3916a82e740276cbda8c48dae77e0dea011264736f6c63430008110033",
    "linkReferences": {}
  },
  "methodIdentifiers": {
    "MAX_LAG()": "14c1d37f",
    "PRICE_DECIMALS()": "f1a640f8",
    "assetRegistry()": "979d7e86",
    "callDecodeMessage(bytes)": "4f46b0cb",
    "callVerifyMessage(bytes,bytes)": "1769c976",
    "getLastUpdate(address)": "5a7e1989",
    "getPriceUSD(address)": "5708447d",
    "postPrice(bytes,bytes)": "c536917c",
    "postPrices((bytes,bytes)[])": "b4ca0647",
    "preventStalePrice()": "3ea8faac",
    "trustedPriceSigner()": "7571fd2c"
  },
  "id": 49
}