{
  "abi": [
    {
      "inputs": [
        {
          "internalType": "address",
          "name": "_governor",
          "type": "address"
        }
      ],
      "stateMutability": "nonpayable",
      "type": "constructor"
    },
    {
      "anonymous": false,
      "inputs": [
        {
          "indexed": false,
          "internalType": "address",
          "name": "newGovernor",
          "type": "address"
        }
      ],
      "name": "GovernorChangeRequested",
      "type": "event"
    },
    {
      "anonymous": false,
      "inputs": [
        {
          "indexed": false,
          "internalType": "address",
          "name": "oldGovernor",
          "type": "address"
        },
        {
          "indexed": false,
          "internalType": "address",
          "name": "newGovernor",
          "type": "address"
        }
      ],
      "name": "GovernorChanged",
      "type": "event"
    },
    {
      "inputs": [],
      "name": "MAX_FEE",
      "outputs": [
        {
          "internalType": "uint64",
          "name": "",
          "type": "uint64"
        }
      ],
      "stateMutability": "view",
      "type": "function"
    },
    {
      "inputs": [],
      "name": "acceptGovernance",
      "outputs": [],
      "stateMutability": "nonpayable",
      "type": "function"
    },
    {
      "inputs": [
        {
          "components": [
            {
              "components": [
                {
                  "components": [
                    {
                      "internalType": "address",
                      "name": "vault",
                      "type": "address"
                    },
                    {
                      "internalType": "uint8",
                      "name": "decimals",
                      "type": "uint8"
                    },
                    {
                      "internalType": "address",
                      "name": "underlying",
                      "type": "address"
                    },
                    {
                      "internalType": "uint256",
                      "name": "price",
                      "type": "uint256"
                    },
                    {
                      "components": [
                        {
                          "internalType": "uint256",
                          "name": "initialPrice",
                          "type": "uint256"
                        },
                        {
                          "internalType": "uint256",
                          "name": "initialWeight",
                          "type": "uint256"
                        },
                        {
                          "internalType": "uint256",
                          "name": "shortFlowMemory",
                          "type": "uint256"
                        },
                        {
                          "internalType": "uint256",
                          "name": "shortFlowThreshold",
                          "type": "uint256"
                        }
                      ],
                      "internalType": "struct DataTypes.PersistedVaultMetadata",
                      "name": "persistedMetadata",
                      "type": "tuple"
                    },
                    {
                      "internalType": "uint256",
                      "name": "reserveBalance",
                      "type": "uint256"
                    },
                    {
                      "internalType": "uint256",
                      "name": "currentWeight",
                      "type": "uint256"
                    },
                    {
                      "internalType": "uint256",
                      "name": "idealWeight",
                      "type": "uint256"
                    },
                    {
                      "components": [
                        {
                          "internalType": "address",
                          "name": "tokenAddress",
                          "type": "address"
                        },
                        {
                          "internalType": "bool",
                          "name": "isStable",
                          "type": "bool"
                        },
                        {
                          "internalType": "uint256",
                          "name": "price",
                          "type": "uint256"
                        }
                      ],
                      "internalType": "struct DataTypes.PricedToken[]",
                      "name": "pricedTokens",
                      "type": "tuple[]"
                    }
                  ],
                  "internalType": "struct DataTypes.VaultInfo",
                  "name": "vaultInfo",
                  "type": "tuple"
                },
                {
                  "internalType": "uint256",
                  "name": "amount",
                  "type": "uint256"
                }
              ],
              "internalType": "struct DataTypes.VaultWithAmount[]",
              "name": "vaultsWithAmount",
              "type": "tuple[]"
            },
            {
              "internalType": "bool",
              "name": "mint",
              "type": "bool"
            }
          ],
          "internalType": "struct DataTypes.Order",
          "name": "order",
          "type": "tuple"
        }
      ],
      "name": "applyFees",
      "outputs": [
        {
          "components": [
            {
              "components": [
                {
                  "components": [
                    {
                      "internalType": "address",
                      "name": "vault",
                      "type": "address"
                    },
                    {
                      "internalType": "uint8",
                      "name": "decimals",
                      "type": "uint8"
                    },
                    {
                      "internalType": "address",
                      "name": "underlying",
                      "type": "address"
                    },
                    {
                      "internalType": "uint256",
                      "name": "price",
                      "type": "uint256"
                    },
                    {
                      "components": [
                        {
                          "internalType": "uint256",
                          "name": "initialPrice",
                          "type": "uint256"
                        },
                        {
                          "internalType": "uint256",
                          "name": "initialWeight",
                          "type": "uint256"
                        },
                        {
                          "internalType": "uint256",
                          "name": "shortFlowMemory",
                          "type": "uint256"
                        },
                        {
                          "internalType": "uint256",
                          "name": "shortFlowThreshold",
                          "type": "uint256"
                        }
                      ],
                      "internalType": "struct DataTypes.PersistedVaultMetadata",
                      "name": "persistedMetadata",
                      "type": "tuple"
                    },
                    {
                      "internalType": "uint256",
                      "name": "reserveBalance",
                      "type": "uint256"
                    },
                    {
                      "internalType": "uint256",
                      "name": "currentWeight",
                      "type": "uint256"
                    },
                    {
                      "internalType": "uint256",
                      "name": "idealWeight",
                      "type": "uint256"
                    },
                    {
                      "components": [
                        {
                          "internalType": "address",
                          "name": "tokenAddress",
                          "type": "address"
                        },
                        {
                          "internalType": "bool",
                          "name": "isStable",
                          "type": "bool"
                        },
                        {
                          "internalType": "uint256",
                          "name": "price",
                          "type": "uint256"
                        }
                      ],
                      "internalType": "struct DataTypes.PricedToken[]",
                      "name": "pricedTokens",
                      "type": "tuple[]"
                    }
                  ],
                  "internalType": "struct DataTypes.VaultInfo",
                  "name": "vaultInfo",
                  "type": "tuple"
                },
                {
                  "internalType": "uint256",
                  "name": "amount",
                  "type": "uint256"
                }
              ],
              "internalType": "struct DataTypes.VaultWithAmount[]",
              "name": "vaultsWithAmount",
              "type": "tuple[]"
            },
            {
              "internalType": "bool",
              "name": "mint",
              "type": "bool"
            }
          ],
          "internalType": "struct DataTypes.Order",
          "name": "",
          "type": "tuple"
        }
      ],
      "stateMutability": "view",
      "type": "function"
    },
    {
      "inputs": [
        {
          "internalType": "address",
          "name": "newGovernor",
          "type": "address"
        }
      ],
      "name": "changeGovernor",
      "outputs": [],
      "stateMutability": "nonpayable",
      "type": "function"
    },
    {
      "inputs": [],
      "name": "governor",
      "outputs": [
        {
          "internalType": "address",
          "name": "",
          "type": "address"
        }
      ],
      "stateMutability": "view",
      "type": "function"
    },
    {
      "inputs": [
        {
          "internalType": "address",
          "name": "vaultAddress",
          "type": "address"
        }
      ],
      "name": "isVaultSupported",
      "outputs": [
        {
          "internalType": "bool",
          "name": "",
          "type": "bool"
        }
      ],
      "stateMutability": "view",
      "type": "function"
    },
    {
      "inputs": [],
      "name": "pendingGovernor",
      "outputs": [
        {
          "internalType": "address",
          "name": "",
          "type": "address"
        }
      ],
      "stateMutability": "view",
      "type": "function"
    },
    {
      "inputs": [
        {
          "internalType": "address",
          "name": "vault",
          "type": "address"
        },
        {
          "internalType": "uint64",
          "name": "mintFee",
          "type": "uint64"
        },
        {
          "internalType": "uint64",
          "name": "redeemFee",
          "type": "uint64"
        }
      ],
      "name": "setVaultFees",
      "outputs": [],
      "stateMutability": "nonpayable",
      "type": "function"
    },
    {
      "inputs": [
        {
          "internalType": "address",
          "name": "",
          "type": "address"
        }
      ],
      "name": "vaultFees",
      "outputs": [
        {
          "internalType": "bool",
          "name": "exists",
          "type": "bool"
        },
        {
          "internalType": "uint64",
          "name": "mint",
          "type": "uint64"
        },
        {
          "internalType": "uint64",
          "name": "redeem",
          "type": "uint64"
        }
      ],
      "stateMutability": "view",
      "type": "function"
    }
  ],
  "bytecode": {
    "object": "0x608060405234801561001057600080fd5b50604051610ff8380380610ff883398101604081905261002f9161008f565b600080546001600160a01b0319166001600160a01b038316908117825560408051928352602083019190915282917fde4b3f61490b74c0ed6237523974fe299126bbbf8a8a7482fd220104c59b0c84910160405180910390a150506100bf565b6000602082840312156100a157600080fd5b81516001600160a01b03811681146100b857600080fd5b9392505050565b610f2a806100ce6000396000f3fe608060405234801561001057600080fd5b50600436106100935760003560e01c8063a90f236d11610066578063a90f236d14610172578063aa52e2b414610185578063bc063e1a146101a5578063e3056a34146101cc578063e4c0aaf4146101df57600080fd5b80630a01286f146100985780630c340a2414610101578063238efcbc1461012c578063240825cb14610136575b600080fd5b6100d56100a6366004610828565b60026020526000908152604090205460ff8116906001600160401b036101008204811691600160481b90041683565b6040805193151584526001600160401b0392831660208501529116908201526060015b60405180910390f35b600054610114906001600160a01b031681565b6040516001600160a01b0390911681526020016100f8565b6101346101f2565b005b610162610144366004610828565b6001600160a01b031660009081526002602052604090205460ff1690565b60405190151581526020016100f8565b610134610180366004610861565b6102ab565b610198610193366004610aa7565b61043a565b6040516100f89190610cee565b6101b46702c68af0bb14000081565b6040516001600160401b0390911681526020016100f8565b600154610114906001600160a01b031681565b6101346101ed366004610828565b610662565b600154604080518082019091526002815261033360f41b6020820152906001600160a01b031633146102405760405162461bcd60e51b81526004016102379190610e15565b60405180910390fd5b5060008054600180546001600160a01b03198084166001600160a01b03808416919091179095551690556040805192909116808352336020840152917fde4b3f61490b74c0ed6237523974fe299126bbbf8a8a7482fd220104c59b0c8491015b60405180910390a150565b600054604080518082019091526002815261033360f41b6020820152906001600160a01b031633146102f05760405162461bcd60e51b81526004016102379190610e15565b50604080518082019091526002815261333160f01b60208201526001600160a01b0384166103315760405162461bcd60e51b81526004016102379190610e15565b506702c68af0bb1400006001600160401b0383161180159061036457506702c68af0bb1400006001600160401b03821611155b60405180604001604052806002815260200161333160f01b8152509061039d5760405162461bcd60e51b81526004016102379190610e15565b5060408051606081018252600181526001600160401b0393841660208083019182529385168284019081526001600160a01b03909616600090815260029094529190922091518254915194518416600160481b0270ffffffffffffffff00000000000000000019959094166101000268ffffffffffffffff00199115159190911668ffffffffffffffffff19909216919091171792909216179055565b6040805180820190915260608152600060208201528151516000906001600160401b0381111561046c5761046c6108a4565b6040519080825280602002602001820160405280156104a557816020015b610492610762565b81526020019060019003908161048a5790505b50905060005b83515181101561063e576000846000015182815181106104cd576104cd610e63565b60209081029190910181015151516001600160a01b038116600090815260028084526040918290208251606081018452905460ff811615158083526001600160401b036101008304811684890152600160481b90920490911682850152835180850190945291835261333160f01b94830194909452919350906105635760405162461bcd60e51b81526004016102379190610e15565b506000866020015161057957816040015161057f565b81602001515b61059a906001600160401b0316670de0b6b3a7640000610e8f565b905060006105d282896000015187815181106105b8576105b8610e63565b60200260200101516020015161073790919063ffffffff16565b90506040518060400160405280896000015187815181106105f5576105f5610e63565b60200260200101516000015181526020018281525086868151811061061c5761061c610e63565b602002602001018190525050505050808061063690610ea2565b9150506104ab565b50604051806040016040528082815260200184602001511515815250915050919050565b600054604080518082019091526002815261033360f41b6020820152906001600160a01b031633146106a75760405162461bcd60e51b81526004016102379190610e15565b50604080518082019091526002815261333160f01b60208201526001600160a01b0382166106e85760405162461bcd60e51b81526004016102379190610e15565b50600180546001600160a01b0319166001600160a01b0383169081179091556040519081527f67235ba2e63c748a35b95c4f92a3bbc2a1389938170a5ce6c9add5d0b03a314a906020016102a0565b6000806107448385610ebb565b9050610758670de0b6b3a764000082610ed2565b9150505b92915050565b6040518060400160405280610775610782565b8152602001600081525090565b60405180610120016040528060006001600160a01b03168152602001600060ff16815260200160006001600160a01b03168152602001600081526020016107ea6040518060800160405280600081526020016000815260200160008152602001600081525090565b8152602001600081526020016000815260200160008152602001606081525090565b80356001600160a01b038116811461082357600080fd5b919050565b60006020828403121561083a57600080fd5b6108438261080c565b9392505050565b80356001600160401b038116811461082357600080fd5b60008060006060848603121561087657600080fd5b61087f8461080c565b925061088d6020850161084a565b915061089b6040850161084a565b90509250925092565b634e487b7160e01b600052604160045260246000fd5b604051606081016001600160401b03811182821017156108dc576108dc6108a4565b60405290565b604080519081016001600160401b03811182821017156108dc576108dc6108a4565b60405161012081016001600160401b03811182821017156108dc576108dc6108a4565b604051601f8201601f191681016001600160401b038111828210171561094f5761094f6108a4565b604052919050565b60006001600160401b03821115610970576109706108a4565b5060051b60200190565b803560ff8116811461082357600080fd5b60006080828403121561099d57600080fd5b604051608081018181106001600160401b03821117156109bf576109bf6108a4565b8060405250809150823581526020830135602082015260408301356040820152606083013560608201525092915050565b8035801515811461082357600080fd5b600082601f830112610a1157600080fd5b81356020610a26610a2183610957565b610927565b82815260609283028501820192828201919087851115610a4557600080fd5b8387015b85811015610a9a5781818a031215610a615760008081fd5b610a696108ba565b610a728261080c565b8152610a7f8683016109f0565b81870152604082810135908201528452928401928101610a49565b5090979650505050505050565b600060208284031215610ab957600080fd5b6001600160401b038083351115610acf57600080fd5b60408335840185031215610ae257600080fd5b610aea6108e2565b8184358501351115610afb57600080fd5b83358401803501601f81018613610b1157600080fd5b610b1e610a218235610957565b81358082526020808301929160051b840101881015610b3c57600080fd5b602083015b6020843560051b850101811015610c70578581351115610b6057600080fd5b80358401601f196040828c0382011215610b7957600080fd5b610b816108e2565b8860208401351115610b9257600080fd5b6020830135830161018083828f03011215610bac57600080fd5b610bb4610904565b9250610bc26020820161080c565b8352610bd06040820161097a565b6020840152610be16060820161080c565b604084015260808101356060840152610bfd8d60a0830161098b565b608084015261012081013560a084015261014081013560c084015261016081013560e0840152896101808201351115610c3557600080fd5b610c498d6020610180840135840101610a00565b61010084015250908152604091909101356020808301919091529084529283019201610b41565b50835250610c859050843585016020016109f0565b6020820152949350505050565b600081518084526020808501945080840160005b83811015610ce357815180516001600160a01b03168852838101511515848901526040908101519088015260609096019590820190600101610ca6565b509495945050505050565b600060208083526060808401855160408085880152828251808552608094508489019150848160051b8a0101878501945060005b82811015610dfa57607f198b83030184528551805186845280516001600160a01b03908116888601528b82015160ff168b8601528782015116898501528981015160a08086019190915289820151805160c080880191909152602082015160e08801526040820151610100880152606082015161012088015290918301516101408701528201516101608601525060e081015161018080860191909152610100909101516101a0850191909152610ddd6101c0850182610c92565b918b0151938b019390935295890195938901939150600101610d22565b50968a0151801515848b0152969a9950505050505050505050565b600060208083528351808285015260005b81811015610e4257858101830151858201604001528201610e26565b506000604082860101526040601f19601f8301168501019250505092915050565b634e487b7160e01b600052603260045260246000fd5b634e487b7160e01b600052601160045260246000fd5b8181038181111561075c5761075c610e79565b600060018201610eb457610eb4610e79565b5060010190565b808202811582820484141761075c5761075c610e79565b600082610eef57634e487b7160e01b600052601260045260246000fd5b50049056fea2646970667358221220615be506d48a3681b0833af0cbcffb24b7f36252abd711f10b9d1de68c9c995364736f6c63430008110033",
    "linkReferences": {}
  },
  "methodIdentifiers": {
    "MAX_FEE()": "bc063e1a",
    "acceptGovernance()": "238efcbc",
    "applyFees((((address,uint8,address,uint256,(uint256,uint256,uint256,uint256),uint256,uint256,uint256,(address,bool,uint256)[]),uint256)[],bool))": "aa52e2b4",
    "changeGovernor(address)": "e4c0aaf4",
    "governor()": "0c340a24",
    "isVaultSupported(address)": "240825cb",
    "pendingGovernor()": "e3056a34",
    "setVaultFees(address,uint64,uint64)": "a90f236d",
    "vaultFees(address)": "0a01286f"
  },
  "id": 15
}