{
  "abi": [
    {
      "inputs": [
        {
          "internalType": "address",
          "name": "_governor",
          "type": "address"
        },
        {
          "internalType": "address",
          "name": "gyroConfig",
          "type": "address"
        },
        {
          "components": [
            {
              "internalType": "uint64",
              "name": "alphaBar",
              "type": "uint64"
            },
            {
              "internalType": "uint64",
              "name": "xuBar",
              "type": "uint64"
            },
            {
              "internalType": "uint64",
              "name": "thetaBar",
              "type": "uint64"
            },
            {
              "internalType": "uint64",
              "name": "outflowMemory",
              "type": "uint64"
            }
          ],
          "internalType": "struct IPAMM.Params",
          "name": "params",
          "type": "tuple"
        }
      ],
      "stateMutability": "nonpayable",
      "type": "constructor"
    },
    {
      "anonymous": false,
      "inputs": [
        {
          "indexed": false,
          "internalType": "address",
          "name": "newGovernor",
          "type": "address"
        }
      ],
      "name": "GovernorChangeRequested",
      "type": "event"
    },
    {
      "anonymous": false,
      "inputs": [
        {
          "indexed": false,
          "internalType": "address",
          "name": "oldGovernor",
          "type": "address"
        },
        {
          "indexed": false,
          "internalType": "address",
          "name": "newGovernor",
          "type": "address"
        }
      ],
      "name": "GovernorChanged",
      "type": "event"
    },
    {
      "anonymous": false,
      "inputs": [
        {
          "indexed": false,
          "internalType": "uint64",
          "name": "alphaBar",
          "type": "uint64"
        },
        {
          "indexed": false,
          "internalType": "uint64",
          "name": "xuBar",
          "type": "uint64"
        },
        {
          "indexed": false,
          "internalType": "uint64",
          "name": "thetaBar",
          "type": "uint64"
        },
        {
          "indexed": false,
          "internalType": "uint64",
          "name": "outflowMemory",
          "type": "uint64"
        }
      ],
      "name": "SystemParamsUpdated",
      "type": "event"
    },
    {
      "inputs": [],
      "name": "acceptGovernance",
      "outputs": [],
      "stateMutability": "nonpayable",
      "type": "function"
    },
    {
      "inputs": [
        {
          "internalType": "address",
          "name": "newGovernor",
          "type": "address"
        }
      ],
      "name": "changeGovernor",
      "outputs": [],
      "stateMutability": "nonpayable",
      "type": "function"
    },
    {
      "inputs": [],
      "name": "computeDerivedParams",
      "outputs": [
        {
          "components": [
            {
              "internalType": "uint256",
              "name": "baThresholdRegionI",
              "type": "uint256"
            },
            {
              "internalType": "uint256",
              "name": "baThresholdRegionII",
              "type": "uint256"
            },
            {
              "internalType": "uint256",
              "name": "xlThresholdAtThresholdI",
              "type": "uint256"
            },
            {
              "internalType": "uint256",
              "name": "xlThresholdAtThresholdII",
              "type": "uint256"
            },
            {
              "internalType": "uint256",
              "name": "baThresholdIIHL",
              "type": "uint256"
            },
            {
              "internalType": "uint256",
              "name": "baThresholdIIIHL",
              "type": "uint256"
            },
            {
              "internalType": "uint256",
              "name": "xuThresholdIIHL",
              "type": "uint256"
            },
            {
              "internalType": "uint256",
              "name": "xlThresholdIIHL",
              "type": "uint256"
            },
            {
              "internalType": "uint256",
              "name": "alphaThresholdIIIHL",
              "type": "uint256"
            },
            {
              "internalType": "uint256",
              "name": "xlThresholdIIIHL",
              "type": "uint256"
            }
          ],
          "internalType": "struct PrimaryAMMV1.DerivedParams",
          "name": "",
          "type": "tuple"
        }
      ],
      "stateMutability": "view",
      "type": "function"
    },
    {
      "inputs": [
        {
          "internalType": "uint256",
          "name": "usdAmount",
          "type": "uint256"
        },
        {
          "internalType": "uint256",
          "name": "",
          "type": "uint256"
        }
      ],
      "name": "computeMintAmount",
      "outputs": [
        {
          "internalType": "uint256",
          "name": "",
          "type": "uint256"
        }
      ],
      "stateMutability": "pure",
      "type": "function"
    },
    {
      "inputs": [
        {
          "internalType": "uint256",
          "name": "gydAmount",
          "type": "uint256"
        },
        {
          "internalType": "uint256",
          "name": "reserveUSDValue",
          "type": "uint256"
        }
      ],
      "name": "computeRedeemAmount",
      "outputs": [
        {
          "internalType": "uint256",
          "name": "",
          "type": "uint256"
        }
      ],
      "stateMutability": "view",
      "type": "function"
    },
    {
      "inputs": [
        {
          "components": [
            {
              "internalType": "uint256",
              "name": "redemptionLevel",
              "type": "uint256"
            },
            {
              "internalType": "uint256",
              "name": "reserveValue",
              "type": "uint256"
            },
            {
              "internalType": "uint256",
              "name": "totalGyroSupply",
              "type": "uint256"
            }
          ],
          "internalType": "struct PrimaryAMMV1.State",
          "name": "normalizedState",
          "type": "tuple"
        }
      ],
      "name": "computeRegion",
      "outputs": [
        {
          "internalType": "enum PrimaryAMMV1.Region",
          "name": "",
          "type": "uint8"
        }
      ],
      "stateMutability": "view",
      "type": "function"
    },
    {
      "inputs": [
        {
          "components": [
            {
              "internalType": "uint256",
              "name": "redemptionLevel",
              "type": "uint256"
            },
            {
              "internalType": "uint256",
              "name": "reserveValue",
              "type": "uint256"
            },
            {
              "internalType": "uint256",
              "name": "totalGyroSupply",
              "type": "uint256"
            }
          ],
          "internalType": "struct PrimaryAMMV1.State",
          "name": "normalizedState",
          "type": "tuple"
        }
      ],
      "name": "computeReserveValue",
      "outputs": [
        {
          "internalType": "uint256",
          "name": "",
          "type": "uint256"
        }
      ],
      "stateMutability": "view",
      "type": "function"
    },
    {
      "inputs": [
        {
          "components": [
            {
              "internalType": "uint256",
              "name": "redemptionLevel",
              "type": "uint256"
            },
            {
              "internalType": "uint256",
              "name": "reserveValue",
              "type": "uint256"
            },
            {
              "internalType": "uint256",
              "name": "totalGyroSupply",
              "type": "uint256"
            }
          ],
          "internalType": "struct PrimaryAMMV1.State",
          "name": "normalizedState",
          "type": "tuple"
        }
      ],
      "name": "computeReserveValueWithGas",
      "outputs": [
        {
          "internalType": "uint256",
          "name": "",
          "type": "uint256"
        }
      ],
      "stateMutability": "view",
      "type": "function"
    },
    {
      "inputs": [],
      "name": "governor",
      "outputs": [
        {
          "internalType": "address",
          "name": "",
          "type": "address"
        }
      ],
      "stateMutability": "view",
      "type": "function"
    },
    {
      "inputs": [],
      "name": "gyroConfig",
      "outputs": [
        {
          "internalType": "contract IGyroConfig",
          "name": "",
          "type": "address"
        }
      ],
      "stateMutability": "view",
      "type": "function"
    },
    {
      "inputs": [],
      "name": "lastRedemptionBlock",
      "outputs": [
        {
          "internalType": "uint256",
          "name": "",
          "type": "uint256"
        }
      ],
      "stateMutability": "view",
      "type": "function"
    },
    {
      "inputs": [
        {
          "internalType": "uint256",
          "name": "usdAmount",
          "type": "uint256"
        },
        {
          "internalType": "uint256",
          "name": "",
          "type": "uint256"
        }
      ],
      "name": "mint",
      "outputs": [
        {
          "internalType": "uint256",
          "name": "",
          "type": "uint256"
        }
      ],
      "stateMutability": "view",
      "type": "function"
    },
    {
      "inputs": [],
      "name": "pendingGovernor",
      "outputs": [
        {
          "internalType": "address",
          "name": "",
          "type": "address"
        }
      ],
      "stateMutability": "view",
      "type": "function"
    },
    {
      "inputs": [
        {
          "internalType": "uint256",
          "name": "gydAmount",
          "type": "uint256"
        },
        {
          "internalType": "uint256",
          "name": "reserveUSDValue",
          "type": "uint256"
        }
      ],
      "name": "redeem",
      "outputs": [
        {
          "internalType": "uint256",
          "name": "",
          "type": "uint256"
        }
      ],
      "stateMutability": "nonpayable",
      "type": "function"
    },
    {
      "inputs": [
        {
          "internalType": "uint256",
          "name": "x1",
          "type": "uint256"
        },
        {
          "internalType": "uint256",
          "name": "x2",
          "type": "uint256"
        },
        {
          "internalType": "uint256",
          "name": "y",
          "type": "uint256"
        }
      ],
      "name": "redeemTwice",
      "outputs": [
        {
          "internalType": "uint256",
          "name": "initialRedeem",
          "type": "uint256"
        },
        {
          "internalType": "uint256",
          "name": "secondaryRedeem",
          "type": "uint256"
        }
      ],
      "stateMutability": "nonpayable",
      "type": "function"
    },
    {
      "inputs": [],
      "name": "redemptionLevel",
      "outputs": [
        {
          "internalType": "uint256",
          "name": "",
          "type": "uint256"
        }
      ],
      "stateMutability": "view",
      "type": "function"
    },
    {
      "inputs": [
        {
          "internalType": "uint64",
          "name": "alpha",
          "type": "uint64"
        }
      ],
      "name": "setDecaySlopeLowerBound",
      "outputs": [],
      "stateMutability": "nonpayable",
      "type": "function"
    },
    {
      "inputs": [
        {
          "components": [
            {
              "internalType": "uint64",
              "name": "alphaBar",
              "type": "uint64"
            },
            {
              "internalType": "uint64",
              "name": "xuBar",
              "type": "uint64"
            },
            {
              "internalType": "uint64",
              "name": "thetaBar",
              "type": "uint64"
            },
            {
              "internalType": "uint64",
              "name": "outflowMemory",
              "type": "uint64"
            }
          ],
          "internalType": "struct IPAMM.Params",
          "name": "newParams",
          "type": "tuple"
        }
      ],
      "name": "setParams",
      "outputs": [],
      "stateMutability": "nonpayable",
      "type": "function"
    },
    {
      "inputs": [
        {
          "components": [
            {
              "internalType": "uint256",
              "name": "redemptionLevel",
              "type": "uint256"
            },
            {
              "internalType": "uint256",
              "name": "reserveValue",
              "type": "uint256"
            },
            {
              "internalType": "uint256",
              "name": "totalGyroSupply",
              "type": "uint256"
            }
          ],
          "internalType": "struct PrimaryAMMV1.State",
          "name": "newState",
          "type": "tuple"
        }
      ],
      "name": "setState",
      "outputs": [],
      "stateMutability": "nonpayable",
      "type": "function"
    },
    {
      "inputs": [
        {
          "components": [
            {
              "internalType": "uint64",
              "name": "alphaBar",
              "type": "uint64"
            },
            {
              "internalType": "uint64",
              "name": "xuBar",
              "type": "uint64"
            },
            {
              "internalType": "uint64",
              "name": "thetaBar",
              "type": "uint64"
            },
            {
              "internalType": "uint64",
              "name": "outflowMemory",
              "type": "uint64"
            }
          ],
          "internalType": "struct IPAMM.Params",
          "name": "params",
          "type": "tuple"
        }
      ],
      "name": "setSystemParams",
      "outputs": [],
      "stateMutability": "nonpayable",
      "type": "function"
    },
    {
      "inputs": [],
      "name": "systemParams",
      "outputs": [
        {
          "internalType": "uint64",
          "name": "alphaBar",
          "type": "uint64"
        },
        {
          "internalType": "uint64",
          "name": "xuBar",
          "type": "uint64"
        },
        {
          "internalType": "uint64",
          "name": "thetaBar",
          "type": "uint64"
        },
        {
          "internalType": "uint64",
          "name": "outflowMemory",
          "type": "uint64"
        }
      ],
      "stateMutability": "view",
      "type": "function"
    },
    {
      "inputs": [
        {
          "internalType": "uint256",
          "name": "x",
          "type": "uint256"
        },
        {
          "internalType": "uint256",
          "name": "ba",
          "type": "uint256"
        },
        {
          "internalType": "uint256",
          "name": "ya",
          "type": "uint256"
        },
        {
          "internalType": "uint256",
          "name": "alpha",
          "type": "uint256"
        },
        {
          "internalType": "uint256",
          "name": "xu",
          "type": "uint256"
        },
        {
          "internalType": "uint256",
          "name": "xl",
          "type": "uint256"
        }
      ],
      "name": "testComputeFixedReserve",
      "outputs": [
        {
          "internalType": "uint256",
          "name": "",
          "type": "uint256"
        }
      ],
      "stateMutability": "pure",
      "type": "function"
    },
    {
      "inputs": [
        {
          "internalType": "uint256",
          "name": "x",
          "type": "uint256"
        },
        {
          "internalType": "uint256",
          "name": "ba",
          "type": "uint256"
        },
        {
          "internalType": "uint256",
          "name": "ya",
          "type": "uint256"
        },
        {
          "components": [
            {
              "internalType": "uint64",
              "name": "alphaBar",
              "type": "uint64"
            },
            {
              "internalType": "uint64",
              "name": "xuBar",
              "type": "uint64"
            },
            {
              "internalType": "uint64",
              "name": "thetaBar",
              "type": "uint64"
            },
            {
              "internalType": "uint64",
              "name": "outflowMemory",
              "type": "uint64"
            }
          ],
          "internalType": "struct IPAMM.Params",
          "name": "params",
          "type": "tuple"
        }
      ],
      "name": "testComputeReserve",
      "outputs": [
        {
          "internalType": "uint256",
          "name": "",
          "type": "uint256"
        }
      ],
      "stateMutability": "pure",
      "type": "function"
    },
    {
      "inputs": [
        {
          "internalType": "uint256",
          "name": "ba",
          "type": "uint256"
        },
        {
          "internalType": "uint256",
          "name": "ya",
          "type": "uint256"
        },
        {
          "internalType": "uint256",
          "name": "thetaFloor",
          "type": "uint256"
        },
        {
          "internalType": "uint256",
          "name": "alphaMin",
          "type": "uint256"
        }
      ],
      "name": "testComputeSlope",
      "outputs": [
        {
          "internalType": "uint256",
          "name": "",
          "type": "uint256"
        }
      ],
      "stateMutability": "pure",
      "type": "function"
    },
    {
      "inputs": [
        {
          "internalType": "uint256",
          "name": "ba",
          "type": "uint256"
        },
        {
          "internalType": "uint256",
          "name": "ya",
          "type": "uint256"
        },
        {
          "internalType": "uint256",
          "name": "alpha",
          "type": "uint256"
        },
        {
          "internalType": "uint256",
          "name": "stableRedeemThresholdUpperBound",
          "type": "uint256"
        },
        {
          "internalType": "uint256",
          "name": "targetUtilizationCeiling",
          "type": "uint256"
        }
      ],
      "name": "testComputeUpperRedemptionThreshold",
      "outputs": [
        {
          "internalType": "uint256",
          "name": "",
          "type": "uint256"
        }
      ],
      "stateMutability": "pure",
      "type": "function"
    }
  ],
  "bytecode": {
    "object": "0x60a06040523480156200001157600080fd5b50604051620033b6380380620033b68339810160408190526200003491620001a1565b600080546001600160a01b0319166001600160a01b038516908117825560408051928352602083019190915284918491849184917fde4b3f61490b74c0ed6237523974fe299126bbbf8a8a7482fd220104c59b0c84910160405180910390a150604080518082019091526002815261333160f01b60208201526001600160a01b038316620000e05760405162461bcd60e51b8152600401620000d7919062000273565b60405180910390fd5b506001600160a01b03909116608052805160028054602084015160408501516060909501516001600160401b03908116600160c01b026001600160c01b03968216600160801b02969096166001600160801b0392821668010000000000000000026001600160801b0319909416919095161791909117169190911791909117905550620002c392505050565b80516001600160a01b03811681146200018457600080fd5b919050565b80516001600160401b03811681146200018457600080fd5b600080600083850360c0811215620001b857600080fd5b620001c3856200016c565b9350620001d3602086016200016c565b92506080603f1982011215620001e857600080fd5b50604051608081016001600160401b03811182821017156200021a57634e487b7160e01b600052604160045260246000fd5b80604052506200022d6040860162000189565b81526200023d6060860162000189565b6020820152620002506080860162000189565b60408201526200026360a0860162000189565b6060820152809150509250925092565b600060208083528351808285015260005b81811015620002a25785810183015185820160400152820162000284565b506000604082860101526040601f19601f8301168501019250505092915050565b6080516130c9620002ed60003960008181610254015281816104bc015261082501526130c96000f3fe608060405234801561001057600080fd5b50600436106101735760003560e01c80635baaeaab116100de5780639e59085411610097578063d9a8c00911610071578063d9a8c0091461041c578063e3056a341461042f578063e4c0aaf414610442578063eeaa0c5f1461045557600080fd5b80639e590854146103d6578063bcbc4173146103e9578063c6b7b0b11461040957600080fd5b80635baaeaab146103015780635c57d8c81461030a578063616a1ed91461031d57806371db63ec1461032f57806376779321146103425780637cbc2373146103c357600080fd5b8063238efcbc11610130578063238efcbc1461023e578063362141441461024657806344bbdb551461024f578063458e8e6b146102765780634b5e36bf146102db5780634fc090b6146102ee57600080fd5b80630c340a241461017857806310e9cd69146101a85780631145f10f146101c957806315f580e4146101dc5780631b2ef1ca146101fa5780631f7586d51461020d575b600080fd5b60005461018b906001600160a01b031681565b6040516001600160a01b0390911681526020015b60405180910390f35b6101bb6101b6366004612b02565b61047d565b60405190815260200161019f565b6101bb6101d7366004612b3d565b610498565b6101f86101ea366004612b80565b803560035560400135600555565b005b6101bb610208366004612b98565b6104b5565b6101f861021b366004612bd2565b6002805467ffffffffffffffff19166001600160401b0392909216919091179055565b6101f861054a565b6101bb60045481565b61018b7f000000000000000000000000000000000000000000000000000000000000000081565b6002546102a8906001600160401b0380821691600160401b8104821691600160801b8204811691600160c01b90041684565b604080516001600160401b039586168152938516602085015291841691830191909152909116606082015260800161019f565b6101bb6102e9366004612b80565b6105fa565b6101bb6102fc366004612b80565b61071d565b6101bb60035481565b6101bb610318366004612bef565b610728565b6101bb61032b366004612b98565b5090565b6101bb61033d366004612b98565b610741565b61034a6107c1565b60405161019f9190600061014082019050825182526020830151602083015260408301516040830152606083015160608301526080830151608083015260a083015160a083015260c083015160c083015260e083015160e083015261010080840151818401525061012080840151818401525092915050565b6101bb6103d1366004612b98565b61081e565b6101f86103e4366004612cb7565b610941565b6103fc6103f7366004612b80565b610a71565b60405161019f9190612ce9565b6101bb610417366004612d11565b610bad565b6101f861042a366004612d51565b610bbb565b60015461018b906001600160a01b031681565b6101f8610450366004612d78565b610bcd565b610468610463366004612d95565b610ca2565b6040805192835260208301919091520161019f565b600061048c8686868686610cc9565b90505b95945050505050565b60006104a8878787878787610dc8565b90505b9695505050505050565b60006104e97f00000000000000000000000000000000000000000000000000000000000000006001600160a01b0316610e76565b6001600160a01b0316336001600160a01b03161460405180604001604052806002815260200161033360f41b8152509061053f5760405162461bcd60e51b81526004016105369190612dc1565b60405180910390fd5b508290505b92915050565b600154604080518082019091526002815261033360f41b6020820152906001600160a01b0316331461058f5760405162461bcd60e51b81526004016105369190612dc1565b5060008054600180546001600160a01b03198084166001600160a01b03808416919091179095551690556040805192909116808352336020840152917fde4b3f61490b74c0ed6237523974fe299126bbbf8a8a7482fd220104c59b0c8491015b60405180910390a150565b60408051608080820183526002546001600160401b03808216808552600160401b830482166020808701829052600160801b85048416878901819052600160c01b909504909316606080880182905288519687018952928652928501529483019190915292810192909252600091829061067390610ef7565b604080516080810182526002546001600160401b038082168352600160401b82048116602084810191909152600160801b8304821684860152600160c01b9092041660608301529293506000926106d692883592918901359190890135906110ec565b905060006106e986356040880135612e25565b604080516060810182528835815260208101859052908101829052909150610712818686611175565b979650505050505050565b6000610544826105fa565b60006107368585858561163e565b90505b949350505050565b60008260000361075357506000610544565b604080516080810182526002546001600160401b038082168352600160401b820481166020840152600160801b8204811693830193909352600160c01b9004909116606082015260006107a582610ef7565b905060006107b3858461170e565b90506104ab81848489611777565b6107c9612a6f565b604080516080810182526002546001600160401b038082168352600160401b820481166020840152600160801b8204811693830193909352600160c01b9004909116606082015261081990610ef7565b905090565b60006108527f00000000000000000000000000000000000000000000000000000000000000006001600160a01b0316610e76565b6001600160a01b0316336001600160a01b03161460405180604001604052806002815260200161033360f41b8152509061089f5760405162461bcd60e51b81526004016105369190612dc1565b50826000036108b057506000610544565b604080516080810182526002546001600160401b038082168352600160401b820481166020840152600160801b8204811693830193909352600160c01b900490911660608201526000610903848361170e565b9050600061091083610ef7565b905060006109208385848a611777565b8351909150610930908890612e38565b600355436004559695505050505050565b600054604080518082019091526002815261033360f41b6020820152906001600160a01b031633146109865760405162461bcd60e51b81526004016105369190612dc1565b508051600280546020840151604085015160608601516001600160401b03908116600160c01b026001600160c01b03928216600160801b02929092166fffffffffffffffffffffffffffffffff938216600160401b026001600160801b03199095169190961617929092171692909217919091179055610a0581610ef7565b507f4c76fdbdf1d037612da5c0dce3f84fb05d29652b0dbc2d66501d683d3df4df8881600001518260200151836040015184606001516040516105ef94939291906001600160401b03948516815292841660208401529083166040830152909116606082015260800190565b604080516080810182526002546001600160401b038082168352600160401b820481166020840152600160801b8204811693830193909352600160c01b900490911660608201526000908190610ac690610ef7565b604080516080810182526002546001600160401b038082168352600160401b82048116602084810191909152600160801b8304821684860152600160c01b909204166060830152929350600092610b2992873592918801359190880135906110ec565b90506000610b3c85356040870135612e25565b604080516060808201835288358252602080830187905282840185905283516080810185526002546001600160401b038082168352600160401b8204811693830193909352600160801b8104831695820195909552600160c01b90940416908301529192506104ab908290866118bc565b6000610736858585856110ec565b806002610bc88282612e4b565b505050565b600054604080518082019091526002815261033360f41b6020820152906001600160a01b03163314610c125760405162461bcd60e51b81526004016105369190612dc1565b50604080518082019091526002815261333160f01b60208201526001600160a01b038216610c535760405162461bcd60e51b81526004016105369190612dc1565b50600180546001600160a01b0319166001600160a01b0383169081179091556040519081527f67235ba2e63c748a35b95c4f92a3bbc2a1389938170a5ce6c9add5d0b03a314a906020016105ef565b600080610caf858461081e565b9150610cbf846103d18486612e25565b9050935093915050565b600080610cd68787612e25565b90506000610ce48588611aca565b90506000671bc16d674ec80000610cfc600287612fe7565b610d06919061300c565b610d108885611aca565b11610d6657600087610d2a85671bc16d674ec80000613020565b610d34919061300c565b90506000610d4182611aeb565b905089811015610d5a57610d55818b612e25565b610d5d565b60005b92505050610db1565b6000610d7d610d76896002613020565b8790611b09565b610d878588611b09565b610d919190612e38565b905088811015610daa57610da5818a612e25565b610dad565b60005b9150505b610dbb8183611b7c565b9998505050505050505050565b6000828711610de257610ddb8787612e25565b90506104ab565b818711610e2c57671bc16d674ec80000610e04610dff858a612e25565b611b92565b610e0e9086613020565b610e18919061300c565b610e228888612e25565b610ddb9190612e38565b6000610e42610e3b8585612e25565b8690611aca565b610e5490670de0b6b3a7640000612e25565b9050610e6a610e638988612e25565b8290611aca565b98975050505050505050565b6040516321f8a72160e01b8152724d4f54484552424f4152445f4144445245535360681b60048201526000906001600160a01b038316906321f8a72190602401602060405180830381865afa158015610ed3573d6000803e3d6000fd5b505050506040513d601f19601f820116820180604052508101906105449190613037565b610eff612a6f565b610f07612a6f565b610f1e83602001516001600160401b031684611b9e565b8152610f2b600084611b9e565b816020018181525050610f688160000151670de0b6b3a764000085600001516001600160401b031686602001516001600160401b03166001611cf5565b604082015260208101518351610f959190670de0b6b3a7640000906001600160401b031660006001611cf5565b60608201526040830151600090610fbd906001600160401b0316670de0b6b3a7640000612e25565b8451909150610fcd906002613054565b6001600160401b0316610fe1600283612fe7565b610feb919061300c565b610ffd90670de0b6b3a7640000612e25565b608083018190528451602086015161102d9291670de0b6b3a7640000916001600160401b03918216911685610cc9565b60c083018190526080830151855161105a92670de0b6b3a7640000916001600160401b0316906001611cf5565b60e08301526040840151600290611082906001600160401b0316670de0b6b3a7640000612e38565b61108c919061300c565b60a08301819052604085015185516110bb9291670de0b6b3a7640000916001600160401b03918216911661163e565b610100830181905260a08301516110df91670de0b6b3a76400009060006001611cf5565b6101208301525092915050565b600080611115858585604001516001600160401b031686600001516001600160401b031661163e565b9050600061115386868487602001516001600160401b031688604001516001600160401b0316670de0b6b3a764000061114e9190612e25565b610cc9565b90506000611165878785856000611cf5565b9050610e6a888888868686610dc8565b600061117f612ac2565b600061118c8686866118bc565b670de0b6b3a76400008352604087015160208801519192506111ae9190611b09565b602083018190526111c790670de0b6b3a7640000612e25565b606083015260408501516111ec906001600160401b0316670de0b6b3a7640000612e25565b6080830152600081600681111561120557611205612cd3565b03611224578551602087015161121b9190612e38565b92505050611637565b600181600681111561123857611238612cd3565b036112b457600085602001516001600160401b0316876000015161125c9190612e25565b9050671bc16d674ec8000061127082611b92565b875161128591906001600160401b0316613020565b61128f919061300c565b875160208901516112a09190612e38565b6112aa9190612e25565b9350505050611637565b60028160068111156112c8576112c8612cd3565b0361133f5784516112da906002613054565b6001600160401b0316600283606001516112f49190612fe7565b6112fe919061300c565b611329836060015187602001516001600160401b031685600001516113239190612e25565b90611aca565b83516113359190612e25565b61121b9190612e38565b600381600681111561135357611353612cd3565b036113c9576000671bc16d674ec8000061139a60028960400151611377919061300c565b88516060870151611390916001600160401b0316611b09565b610dff9190612e38565b87516113af91906001600160401b0316613020565b6113b9919061300c565b83519091506112aa908290612e25565b60048160068111156113dd576113dd612cd3565b036114c45760006114298760400151611414886000015160026114009190613054565b6080870151906001600160401b0316611b09565b61141e9190612e38565b608085015190611aca565b9050600061148c61145488604001516001600160401b03168a60400151611aca90919063ffffffff16565b89602001516114639190612e25565b88600001516001600160401b0316600287608001516114829190612fe7565b611323919061300c565b611497906002613020565b9050816114a382611aeb565b85516114af9190612e38565b6114b99190612e25565b945050505050611637565b60058160068111156114d8576114d8612cd3565b0361151b5760006113b96114ef8860000151611b92565b61150190670de0b6b3a7640000612e25565b886020015189604001516115159190612e25565b90611b09565b600681600681111561152f5761152f612cd3565b036115fe57600060028360800151886020015189604001516115519190612e25565b61155b9190612e38565b611565919061300c565b90506000600461158861157b8a60000151611b92565b6113238760800151611b92565b611592919061300c565b6115ae85608001518a602001518b604001516113239190612e25565b6115b89190612e38565b905060006115d8826115c985611b92565b6115d39190612e25565b611aeb565b6115e29084612e25565b85519091506115f2908290612e25565b95505050505050611637565b60405162461bcd60e51b815260206004820152600e60248201526d3ab735b737bbb7103932b3b4b7b760911b6044820152606401610536565b9392505050565b60008061164b8686611b09565b905060006116598487611b09565b90506000600261167187670de0b6b3a7640000612e38565b61167b919061300c565b83106116b0576116a98761151561169a86670de0b6b3a7640000612e25565b671bc16d674ec8000090611aca565b9050611704565b600060026116c688670de0b6b3a7640000612e25565b6116d09190612fe7565b905060006116de888a611aca565b6116e8908b612e25565b90506116f5816002613020565b6116ff908361300c565b925050505b610e6a8183611df8565b61173260405180606001604052806000815260200160008152602001600081525090565b604051806060016040528061175a6003544360045487606001516001600160401b0316611e07565b815260200184815260200161176e60055490565b90529392505050565b600061179d60405180606001604052806000815260200160008152602001600081525090565b855160408701516000916117b091612e38565b87519091506117bf9082611b09565b825260208701516117d09082611b09565b602083015260408701516117e49082611b09565b6040830181905260208301516000916117fd9190611b09565b9050670de0b6b3a7640000811061181957849350505050610739565b86604001516001600160401b0316811161186157600061184a89604001518a60200151611b0990919063ffffffff16565b90506118568187611aca565b945050505050610739565b600061186e848989611175565b9050600061187c8285611aca565b9050600061189b888c600001516118939190612e38565b83878d6110ec565b9050808b602001516118ad9190612e25565b9b9a5050505050505050505050565b60006118c9848484611e88565b156119715782602001516001600160401b03168460000151116118ee57506000611637565b600061190b85604001518660200151611b0990919063ffffffff16565b9050600061194085602001516001600160401b0316876000015161192f9190612e25565b86516001600160401b031690611aca565b61195290670de0b6b3a7640000612e25565b905080821161196657600192505050611637565b600292505050611637565b6119898484600001516001600160401b031684611ed6565b15611aa9576119a68484600001516001600160401b031684611efb565b15611a0c57671bc16d674ec8000083600001516001600160401b03166119cf8660400151611b92565b6119d99190613020565b6119e3919061300c565b846020015185604001516119f79190612e25565b11611a0457506000611637565b506003611637565b600083604001516001600160401b0316670de0b6b3a7640000611a2f9190612e25565b8451909150611a3f906002613054565b6001600160401b0316611a53600283612fe7565b611a5d919061300c565b611a81866040015186604001516001600160401b0316611aca90919063ffffffff16565b8660200151611a909190612e25565b10611a9f576000915050611637565b6004915050611637565b611ab38483611f23565b15611ac057506005611637565b5060069392505050565b600080611ad78385613020565b9050610739670de0b6b3a76400008261300c565b600061054482611b046002670de0b6b3a764000061300c565b611f5d565b604080518082019091526002815261323560f01b602082015260009082611b435760405162461bcd60e51b81526004016105369190612dc1565b5082600003611b5457506000610544565b6000611b68670de0b6b3a764000085613020565b9050611b74838261300c565b915050610544565b6000818310611b8b5781611637565b5090919050565b60006105448283611aca565b600082670de0b6b3a76400001015611bf85760405162461bcd60e51b815260206004820152601a60248201527f7961206d7573742062652067726561746572207468616e2078750000000000006044820152606401610536565b81516001600160401b03166000611c1785670de0b6b3a7640000612e25565b60408501519091506001600160401b0316611c328383611aca565b611c4490670de0b6b3a7640000612e25565b10611c8a57671bc16d674ec80000611c5b82611b92565b611c659084613020565b611c6f919061300c565b611c8190670de0b6b3a7640000612e25565b92505050610544565b600084604001516001600160401b0316670de0b6b3a7640000611cad9190612e25565b9050611cba836002613020565b611cc5600283612fe7565b611ccf919061300c565b611cd98284611aca565b611ceb90670de0b6b3a7640000612e25565b6104ab9190612e38565b600084861060405180604001604052806002815260200161333160f01b81525090611d335760405162461bcd60e51b81526004016105369190612dc1565b506000611d48611d438588612e25565b6120ef565b9050600085611d578989612e25565b611d6990671bc16d674ec80000613020565b611d73919061300c565b9050808210611d9c57611d896115d38284612e25565b611d939088612e25565b9250505061048f565b8380611db4575080611db1620f424084612e38565b10155b60405180604001604052806002815260200161323760f01b81525090611ded5760405162461bcd60e51b81526004016105369190612dc1565b50869250505061048f565b6000818311611b8b5781611637565b600083831480611e15575084155b15611e21575083610739565b83831015611e58576000611e358486612e25565b90506000611e4384836120fb565b9050611e4f8782611aca565b92505050610739565b6040805180820182526002815261333160f01b6020820152905162461bcd60e51b81526105369190600401612dc1565b6000611ec684600001518360000151670de0b6b3a764000086600001516001600160401b031687602001516001600160401b03168760400151610dc8565b8460200151101590509392505050565b6000611ec684600001518360200151670de0b6b3a76400008660008760600151610dc8565b6000611ec684600001518360800151670de0b6b3a7640000868660c001518760e00151610dc8565b6000611f4e83600001518360a00151670de0b6b3a76400008561010001516000876101200151610dc8565b83602001511015905092915050565b600081600003611f765750670de0b6b3a7640000610544565b82600003611f8657506000610544565b604080518082019091526002815261032360f41b6020820152600160ff1b8410611fc35760405162461bcd60e51b81526004016105369190612dc1565b50604080518082019091526002815261323160f01b60208201528390770bce5086492111aea88f4bb1ca6bcf584181ea8059f7653284106120175760405162461bcd60e51b81526004016105369190612dc1565b50826000670c7d713b49da0000831380156120395750670f43fc2c04ee000083125b156120705760006120498461214a565b9050670de0b6b3a764000080820784020583670de0b6b3a76400008305020191505061207e565b8161207a84612269565b0290505b670de0b6b3a76400009005680238fd42c5cf03ffff1981128015906120ac575068070c1cc73b00c800008113155b60405180604001604052806002815260200161191960f11b815250906120e55760405162461bcd60e51b81526004016105369190612dc1565b506104ab81612613565b60006105448283612a25565b6000670de0b6b3a76400005b82156116375761211860028461307f565b60010361212c576121298185611aca565b90505b61213760028461300c565b92506121438485611aca565b9350612107565b670de0b6b3a7640000026000806a0c097ce7bc90715b34b9f160241b808401906ec097ce7bc90715b34b9f0fffffffff198501028161218b5761218b612ff6565b05905060006a0c097ce7bc90715b34b9f160241b82800205905081806a0c097ce7bc90715b34b9f160241b81840205915060038205016a0c097ce7bc90715b34b9f160241b82840205915060058205016a0c097ce7bc90715b34b9f160241b82840205915060078205016a0c097ce7bc90715b34b9f160241b82840205915060098205016a0c097ce7bc90715b34b9f160241b828402059150600b8205016a0c097ce7bc90715b34b9f160241b828402059150600d8205016a0c097ce7bc90715b34b9f160241b828402059150600f82050160020295945050505050565b6000670de0b6b3a76400008212156122aa576122a1826a0c097ce7bc90715b34b9f160241b8161229b5761229b612ff6565b05612269565b60000392915050565b60007e1600ef3172e58d2e933ec884fde10064c63b5372d805e203c000000000000083126122fb57770195e54c5dd42177f53a27172fa9ec630262827000000000830592506806f05b59d3b2000000015b73011798004d755d3c8bc8e03204cf44619e0000008312612333576b1425982cf597cd205cef7380830592506803782dace9d9000000015b606492830292026e01855144814a7ff805980ff0084000831261237b576e01855144814a7ff805980ff008400068056bc75e2d63100000840205925068ad78ebc5ac62000000015b6b02df0ab5a80a22c61ab5a70083126123b6576b02df0ab5a80a22c61ab5a70068056bc75e2d6310000084020592506856bc75e2d631000000015b693f1fce3da636ea5cf85083126123ed57693f1fce3da636ea5cf85068056bc75e2d631000008402059250682b5e3af16b18800000015b690127fa27722cc06cc5e2831261242457690127fa27722cc06cc5e268056bc75e2d6310000084020592506815af1d78b58c400000015b68280e60114edb805d0383126124595768280e60114edb805d0368056bc75e2d631000008402059250680ad78ebc5ac6200000015b680ebc5fb41746121110831261248457680ebc5fb4174612111068056bc75e2d631000009384020592015b6808f00f760a4b2db55d83126124b9576808f00f760a4b2db55d68056bc75e2d6310000084020592506802b5e3af16b1880000015b6806f5f177578893793783126124ee576806f5f177578893793768056bc75e2d63100000840205925068015af1d78b58c40000015b6806248f33704b2866038312612522576806248f33704b28660368056bc75e2d63100000840205925067ad78ebc5ac620000015b6805c548670b9510e7ac8312612556576805c548670b9510e7ac68056bc75e2d6310000084020592506756bc75e2d6310000015b600068056bc75e2d63100000840168056bc75e2d63100000808603028161257f5761257f612ff6565b059050600068056bc75e2d63100000828002059050818068056bc75e2d63100000818402059150600382050168056bc75e2d63100000828402059150600582050168056bc75e2d63100000828402059150600782050168056bc75e2d63100000828402059150600982050168056bc75e2d63100000828402059150600b820501600202606485820105979650505050505050565b6000680238fd42c5cf03ffff198212158015612638575068070c1cc73b00c800008213155b60405180604001604052806002815260200161323360f01b815250906126715760405162461bcd60e51b81526004016105369190612dc1565b5060008212156126aa5761268782600003612613565b6a0c097ce7bc90715b34b9f160241b816126a3576126a3612ff6565b0592915050565b60006806f05b59d3b200000083126126ea57506806f05b59d3b1ffffff1990910190770195e54c5dd42177f53a27172fa9ec630262827000000000612720565b6803782dace9d9000000831261271c57506803782dace9d8ffffff19909101906b1425982cf597cd205cef7380612720565b5060015b6064929092029168056bc75e2d6310000068ad78ebc5ac6200000084126127705768ad78ebc5ac61ffffff199093019268056bc75e2d631000006e01855144814a7ff805980ff008400082020590505b6856bc75e2d63100000084126127ac576856bc75e2d630ffffff199093019268056bc75e2d631000006b02df0ab5a80a22c61ab5a70082020590505b682b5e3af16b1880000084126127e657682b5e3af16b187fffff199093019268056bc75e2d63100000693f1fce3da636ea5cf85082020590505b6815af1d78b58c4000008412612820576815af1d78b58c3fffff199093019268056bc75e2d63100000690127fa27722cc06cc5e282020590505b680ad78ebc5ac6200000841261285957680ad78ebc5ac61fffff199093019268056bc75e2d6310000068280e60114edb805d0382020590505b68056bc75e2d6310000084126128925768056bc75e2d630fffff199093019268056bc75e2d63100000680ebc5fb4174612111082020590505b6802b5e3af16b188000084126128cb576802b5e3af16b187ffff199093019268056bc75e2d631000006808f00f760a4b2db55d82020590505b68015af1d78b58c4000084126129045768015af1d78b58c3ffff199093019268056bc75e2d631000006806f5f177578893793782020590505b68056bc75e2d631000008481019085906002908280020505918201919050600368056bc75e2d631000008783020505918201919050600468056bc75e2d631000008783020505918201919050600568056bc75e2d631000008783020505918201919050600668056bc75e2d631000008783020505918201919050600768056bc75e2d631000008783020505918201919050600868056bc75e2d631000008783020505918201919050600968056bc75e2d631000008783020505918201919050600a68056bc75e2d631000008783020505918201919050600b68056bc75e2d631000008783020505918201919050600c68056bc75e2d631000008783020505918201919050606468056bc75e2d63100000848402058502059695505050505050565b600080612a328385613020565b905080600003612a46576000915050610544565b670de0b6b3a7640000612a5a600183612e25565b612a64919061300c565b611b74906001612e38565b604051806101400160405280600081526020016000815260200160008152602001600081526020016000815260200160008152602001600081526020016000815260200160008152602001600081525090565b6040518060a00160405280600081526020016000815260200160006006811115612aee57612aee612cd3565b815260200160008152602001600081525090565b600080600080600060a08688031215612b1a57600080fd5b505083359560208501359550604085013594606081013594506080013592509050565b60008060008060008060c08789031215612b5657600080fd5b505084359660208601359650604086013595606081013595506080810135945060a0013592509050565b600060608284031215612b9257600080fd5b50919050565b60008060408385031215612bab57600080fd5b50508035926020909101359150565b6001600160401b0381168114612bcf57600080fd5b50565b600060208284031215612be457600080fd5b813561163781612bba565b60008060008060808587031215612c0557600080fd5b5050823594602084013594506040840135936060013592509050565b600060808284031215612c3357600080fd5b604051608081018181106001600160401b0382111715612c6357634e487b7160e01b600052604160045260246000fd5b6040529050808235612c7481612bba565b81526020830135612c8481612bba565b60208201526040830135612c9781612bba565b60408201526060830135612caa81612bba565b6060919091015292915050565b600060808284031215612cc957600080fd5b6116378383612c21565b634e487b7160e01b600052602160045260246000fd5b6020810160078310612d0b57634e487b7160e01b600052602160045260246000fd5b91905290565b60008060008060e08587031215612d2757600080fd5b843593506020850135925060408501359150612d468660608701612c21565b905092959194509250565b600060808284031215612b9257600080fd5b6001600160a01b0381168114612bcf57600080fd5b600060208284031215612d8a57600080fd5b813561163781612d63565b600080600060608486031215612daa57600080fd5b505081359360208301359350604090920135919050565b600060208083528351808285015260005b81811015612dee57858101830151858201604001528201612dd2565b506000604082860101526040601f19601f8301168501019250505092915050565b634e487b7160e01b600052601160045260246000fd5b8181038181111561054457610544612e0f565b8082018082111561054457610544612e0f565b8135612e5681612bba565b6001600160401b03811690508154816001600160401b031982161783556020840135612e8181612bba565b6fffffffffffffffff0000000000000000604091821b166001600160801b0319831684178117855590850135612eb681612bba565b67ffffffffffffffff60801b60809190911b166001600160c01b03199283168417821781178555606086013592612eec84612bba565b808460c01b16858417831717865550505050505050565b600181815b80851115612f3e578160001904821115612f2457612f24612e0f565b80851615612f3157918102915b93841c9390800290612f08565b509250929050565b600082612f5557506001610544565b81612f6257506000610544565b8160018114612f785760028114612f8257612f9e565b6001915050610544565b60ff841115612f9357612f93612e0f565b50506001821b610544565b5060208310610133831016604e8410600b8410161715612fc1575081810a610544565b612fcb8383612f03565b8060001904821115612fdf57612fdf612e0f565b029392505050565b600061163760ff841683612f46565b634e487b7160e01b600052601260045260246000fd5b60008261301b5761301b612ff6565b500490565b808202811582820484141761054457610544612e0f565b60006020828403121561304957600080fd5b815161163781612d63565b6001600160401b0381811683821602808216919082811461307757613077612e0f565b505092915050565b60008261308e5761308e612ff6565b50069056fea26469706673582212208b1c71375e1a2f36543d29afa6bb336420b6f2dd84497c75945ac24d053d967d64736f6c63430008110033",
    "linkReferences": {}
  },
  "methodIdentifiers": {
    "acceptGovernance()": "238efcbc",
    "changeGovernor(address)": "e4c0aaf4",
    "computeDerivedParams()": "76779321",
    "computeMintAmount(uint256,uint256)": "616a1ed9",
    "computeRedeemAmount(uint256,uint256)": "71db63ec",
    "computeRegion((uint256,uint256,uint256))": "bcbc4173",
    "computeReserveValue((uint256,uint256,uint256))": "4b5e36bf",
    "computeReserveValueWithGas((uint256,uint256,uint256))": "4fc090b6",
    "governor()": "0c340a24",
    "gyroConfig()": "44bbdb55",
    "lastRedemptionBlock()": "36214144",
    "mint(uint256,uint256)": "1b2ef1ca",
    "pendingGovernor()": "e3056a34",
    "redeem(uint256,uint256)": "7cbc2373",
    "redeemTwice(uint256,uint256,uint256)": "eeaa0c5f",
    "redemptionLevel()": "5baaeaab",
    "setDecaySlopeLowerBound(uint64)": "1f7586d5",
    "setParams((uint64,uint64,uint64,uint64))": "d9a8c009",
    "setState((uint256,uint256,uint256))": "15f580e4",
    "setSystemParams((uint64,uint64,uint64,uint64))": "9e590854",
    "systemParams()": "458e8e6b",
    "testComputeFixedReserve(uint256,uint256,uint256,uint256,uint256,uint256)": "1145f10f",
    "testComputeReserve(uint256,uint256,uint256,(uint64,uint64,uint64,uint64))": "c6b7b0b1",
    "testComputeSlope(uint256,uint256,uint256,uint256)": "5c57d8c8",
    "testComputeUpperRedemptionThreshold(uint256,uint256,uint256,uint256,uint256)": "10e9cd69"
  },
  "id": 46
}