{
  "abi": [
    {
      "inputs": [
        {
          "internalType": "contract IGyroConfig",
          "name": "_gyroConfig",
          "type": "address"
        }
      ],
      "stateMutability": "nonpayable",
      "type": "constructor"
    },
    {
      "anonymous": false,
      "inputs": [
        {
          "indexed": false,
          "internalType": "address",
          "name": "newGovernor",
          "type": "address"
        }
      ],
      "name": "GovernorChangeRequested",
      "type": "event"
    },
    {
      "anonymous": false,
      "inputs": [
        {
          "indexed": false,
          "internalType": "address",
          "name": "oldGovernor",
          "type": "address"
        },
        {
          "indexed": false,
          "internalType": "address",
          "name": "newGovernor",
          "type": "address"
        }
      ],
      "name": "GovernorChanged",
      "type": "event"
    },
    {
      "anonymous": false,
      "inputs": [
        {
          "indexed": false,
          "internalType": "uint8",
          "name": "version",
          "type": "uint8"
        }
      ],
      "name": "Initialized",
      "type": "event"
    },
    {
      "anonymous": false,
      "inputs": [
        {
          "indexed": true,
          "internalType": "address",
          "name": "vault",
          "type": "address"
        }
      ],
      "name": "VaultDeregistered",
      "type": "event"
    },
    {
      "anonymous": false,
      "inputs": [
        {
          "indexed": true,
          "internalType": "address",
          "name": "vault",
          "type": "address"
        }
      ],
      "name": "VaultRegistered",
      "type": "event"
    },
    {
      "inputs": [],
      "name": "acceptGovernance",
      "outputs": [],
      "stateMutability": "nonpayable",
      "type": "function"
    },
    {
      "inputs": [
        {
          "internalType": "address",
          "name": "newGovernor",
          "type": "address"
        }
      ],
      "name": "changeGovernor",
      "outputs": [],
      "stateMutability": "nonpayable",
      "type": "function"
    },
    {
      "inputs": [
        {
          "internalType": "address",
          "name": "vault",
          "type": "address"
        }
      ],
      "name": "deregisterVault",
      "outputs": [],
      "stateMutability": "nonpayable",
      "type": "function"
    },
    {
      "inputs": [
        {
          "internalType": "address",
          "name": "vault",
          "type": "address"
        }
      ],
      "name": "getVaultMetadata",
      "outputs": [
        {
          "components": [
            {
              "internalType": "uint256",
              "name": "initialPrice",
              "type": "uint256"
            },
            {
              "internalType": "uint256",
              "name": "initialWeight",
              "type": "uint256"
            },
            {
              "internalType": "uint256",
              "name": "shortFlowMemory",
              "type": "uint256"
            },
            {
              "internalType": "uint256",
              "name": "shortFlowThreshold",
              "type": "uint256"
            }
          ],
          "internalType": "struct DataTypes.PersistedVaultMetadata",
          "name": "",
          "type": "tuple"
        }
      ],
      "stateMutability": "view",
      "type": "function"
    },
    {
      "inputs": [],
      "name": "governor",
      "outputs": [
        {
          "internalType": "address",
          "name": "",
          "type": "address"
        }
      ],
      "stateMutability": "view",
      "type": "function"
    },
    {
      "inputs": [],
      "name": "gyroConfig",
      "outputs": [
        {
          "internalType": "contract IGyroConfig",
          "name": "",
          "type": "address"
        }
      ],
      "stateMutability": "view",
      "type": "function"
    },
    {
      "inputs": [
        {
          "internalType": "address",
          "name": "_governor",
          "type": "address"
        }
      ],
      "name": "initialize",
      "outputs": [],
      "stateMutability": "nonpayable",
      "type": "function"
    },
    {
      "inputs": [],
      "name": "listVaults",
      "outputs": [
        {
          "internalType": "address[]",
          "name": "",
          "type": "address[]"
        }
      ],
      "stateMutability": "view",
      "type": "function"
    },
    {
      "inputs": [],
      "name": "pendingGovernor",
      "outputs": [
        {
          "internalType": "address",
          "name": "",
          "type": "address"
        }
      ],
      "stateMutability": "view",
      "type": "function"
    },
    {
      "inputs": [
        {
          "internalType": "address",
          "name": "vault",
          "type": "address"
        },
        {
          "components": [
            {
              "internalType": "uint256",
              "name": "initialPrice",
              "type": "uint256"
            },
            {
              "internalType": "uint256",
              "name": "initialWeight",
              "type": "uint256"
            },
            {
              "internalType": "uint256",
              "name": "shortFlowMemory",
              "type": "uint256"
            },
            {
              "internalType": "uint256",
              "name": "shortFlowThreshold",
              "type": "uint256"
            }
          ],
          "internalType": "struct DataTypes.PersistedVaultMetadata",
          "name": "persistedMetadata",
          "type": "tuple"
        }
      ],
      "name": "registerVault",
      "outputs": [],
      "stateMutability": "nonpayable",
      "type": "function"
    },
    {
      "inputs": [
        {
          "internalType": "address",
          "name": "vault",
          "type": "address"
        },
        {
          "internalType": "uint256",
          "name": "initialPrice",
          "type": "uint256"
        }
      ],
      "name": "setInitialPrice",
      "outputs": [],
      "stateMutability": "nonpayable",
      "type": "function"
    },
    {
      "inputs": [
        {
          "internalType": "address[]",
          "name": "vaultsToUpdate",
          "type": "address[]"
        },
        {
          "internalType": "uint256[]",
          "name": "weights",
          "type": "uint256[]"
        }
      ],
      "name": "updateInitialWeights",
      "outputs": [],
      "stateMutability": "nonpayable",
      "type": "function"
    },
    {
      "inputs": [
        {
          "internalType": "address[]",
          "name": "vaultsToUpdate",
          "type": "address[]"
        },
        {
          "internalType": "uint256[]",
          "name": "newShortFlowMemory",
          "type": "uint256[]"
        },
        {
          "internalType": "uint256[]",
          "name": "newShortFlowThreshold",
          "type": "uint256[]"
        }
      ],
      "name": "updatePersistedVaultFlowParams",
      "outputs": [],
      "stateMutability": "nonpayable",
      "type": "function"
    }
  ],
  "bytecode": {
    "object": "0x60a060405234801561001057600080fd5b5060405161152238038061152283398101604081905261002f91610040565b6001600160a01b0316608052610070565b60006020828403121561005257600080fd5b81516001600160a01b038116811461006957600080fd5b9392505050565b6080516114826100a0600039600081816101260152818161068b01528181610a380152610afd01526114826000f3fe608060405234801561001057600080fd5b50600436106100cf5760003560e01c8063753ed4771161008c578063dc4f1e4911610066578063dc4f1e49146101a9578063e3056a34146101ef578063e4c0aaf414610202578063e74640151461021557600080fd5b8063753ed4771461017057806395e5171a14610183578063c4d66de81461019657600080fd5b80630c340a24146100d4578063238efcbc1461010457806338e270ed1461010e57806344bbdb551461012157806350cc258e1461014857806374970a021461015d575b600080fd5b6000546100e7906001600160a01b031681565b6040516001600160a01b0390911681526020015b60405180910390f35b61010c610228565b005b61010c61011c366004611002565b6102e1565b6100e77f000000000000000000000000000000000000000000000000000000000000000081565b6101506103cf565b6040516100fb9190611026565b61010c61016b3660046111ad565b6103e0565b61010c61017e366004611211565b61050f565b61010c610191366004611299565b610686565b61010c6101a4366004611002565b6107bb565b6101bc6101b7366004611002565b6108e5565b6040516100fb91908151815260208083015190820152604080830151908201526060918201519181019190915260800190565b6001546100e7906001600160a01b031681565b61010c610210366004611002565b61095e565b61010c6102233660046112c5565b610a33565b600154604080518082019091526002815261033360f41b6020820152906001600160a01b031633146102765760405162461bcd60e51b815260040161026d9190611351565b60405180910390fd5b5060008054600180546001600160a01b03198084166001600160a01b03808416919091179095551690556040805192909116808352336020840152917fde4b3f61490b74c0ed6237523974fe299126bbbf8a8a7482fd220104c59b0c8491015b60405180910390a150565b600054604080518082019091526002815261033360f41b6020820152906001600160a01b031633146103265760405162461bcd60e51b815260040161026d9190611351565b50610332600282610c43565b604051806040016040528060018152602001603760f81b8152509061036a5760405162461bcd60e51b815260040161026d9190611351565b50610376600282610c6a565b506001600160a01b0381166000818152600460205260408082208281556001810183905560028101839055600301829055517ff8769b01493238f5c26a42a7b690cb1ff2b53a7d89d9a57e6332458703db8b049190a250565b60606103db6002610c7f565b905090565b600054604080518082019091526002815261033360f41b6020820152906001600160a01b031633146104255760405162461bcd60e51b815260040161026d9190611351565b5060005b825181101561050a5761045f8382815181106104475761044761139f565b60200260200101516002610c4390919063ffffffff16565b604051806040016040528060018152602001603760f81b815250906104975760405162461bcd60e51b815260040161026d9190611351565b508181815181106104aa576104aa61139f565b6020026020010151600460008584815181106104c8576104c861139f565b60200260200101516001600160a01b03166001600160a01b03168152602001908152602001600020600101819055508080610502906113cb565b915050610429565b505050565b600054604080518082019091526002815261033360f41b6020820152906001600160a01b031633146105545760405162461bcd60e51b815260040161026d9190611351565b5060005b8351811015610680576105768482815181106104475761044761139f565b604051806040016040528060018152602001603760f81b815250906105ae5760405162461bcd60e51b815260040161026d9190611351565b508281815181106105c1576105c161139f565b6020026020010151600460008684815181106105df576105df61139f565b60200260200101516001600160a01b03166001600160a01b03168152602001908152602001600020600201819055508181815181106106205761062061139f565b60200260200101516004600086848151811061063e5761063e61139f565b60200260200101516001600160a01b03166001600160a01b03168152602001908152602001600020600301819055508080610678906113cb565b915050610558565b50505050565b6106b87f00000000000000000000000000000000000000000000000000000000000000006001600160a01b0316610d2e565b6001600160a01b0316336001600160a01b0316146040518060400160405280600281526020016106a760f31b815250906107055760405162461bcd60e51b815260040161026d9190611351565b50610711600283610c43565b604051806040016040528060018152602001603760f81b815250906107495760405162461bcd60e51b815260040161026d9190611351565b506001600160a01b0382166000908152600460209081526040918290205482518084019093526002835261333160f01b918301919091521561079e5760405162461bcd60e51b815260040161026d9190611351565b506001600160a01b03909116600090815260046020526040902055565b600154600160a81b900460ff16158080156107e1575060018054600160a01b900460ff16105b806108015750303b158015610801575060018054600160a01b900460ff16145b6108645760405162461bcd60e51b815260206004820152602e60248201527f496e697469616c697a61626c653a20636f6e747261637420697320616c72656160448201526d191e481a5b9a5d1a585b1a5e995960921b606482015260840161026d565b6001805460ff60a01b1916600160a01b1790558015610891576001805460ff60a81b1916600160a81b1790555b61089a82610dba565b80156108e1576001805460ff60a81b191681556040519081527f7f26b83ff96e1f2b6a682f133852f6798a09c465da95921460cefb38474024989060200160405180910390a15b5050565b6109106040518060800160405280600081526020016000815260200160008152602001600081525090565b506001600160a01b0316600090815260046020908152604091829020825160808101845281548152600182015492810192909252600281015492820192909252600390910154606082015290565b600054604080518082019091526002815261033360f41b6020820152906001600160a01b031633146109a35760405162461bcd60e51b815260040161026d9190611351565b50604080518082019091526002815261333160f01b60208201526001600160a01b0382166109e45760405162461bcd60e51b815260040161026d9190611351565b50600180546001600160a01b0319166001600160a01b0383169081179091556040519081527f67235ba2e63c748a35b95c4f92a3bbc2a1389938170a5ce6c9add5d0b03a314a906020016102d6565b610a657f00000000000000000000000000000000000000000000000000000000000000006001600160a01b0316610d2e565b6001600160a01b0316336001600160a01b0316146040518060400160405280600281526020016106a760f31b81525090610ab25760405162461bcd60e51b815260040161026d9190611351565b50610abe600283610c43565b15604051806040016040528060018152602001601b60f91b81525090610af75760405162461bcd60e51b815260040161026d9190611351565b50610b2a7f00000000000000000000000000000000000000000000000000000000000000006001600160a01b0316610e0e565b60405163240825cb60e01b81526001600160a01b038481166004830152919091169063240825cb90602401602060405180830381865afa158015610b72573d6000803e3d6000fd5b505050506040513d601f19601f82011682018060405250810190610b9691906113e4565b604051806040016040528060018152602001603760f81b81525090610bce5760405162461bcd60e51b815260040161026d9190611351565b50610bda600283610e53565b506001600160a01b0382166000818152600460209081526040808320855181559185015160018301558085015160028301556060850151600390920191909155517f8e0930709528779f1112249aac8fcca15dbb9c595db31092c7bc7f954b5679339190a25050565b6001600160a01b038116600090815260018301602052604081205415155b90505b92915050565b6000610c61836001600160a01b038416610e68565b60606000610c8c83610f5b565b905060008167ffffffffffffffff811115610ca957610ca9611073565b604051908082528060200260200182016040528015610cd2578160200160208202803683370190505b50905060005b82811015610d2657610cea8582610f65565b828281518110610cfc57610cfc61139f565b6001600160a01b039092166020928302919091019091015280610d1e816113cb565b915050610cd8565b509392505050565b6040516321f8a72160e01b81527f524553455256455f4d414e414745525f4144445245535300000000000000000060048201526000906001600160a01b038316906321f8a721906024015b602060405180830381865afa158015610d96573d6000803e3d6000fd5b505050506040513d601f19601f82011682018060405250810190610c649190611406565b600080546001600160a01b0319166001600160a01b03831690811782556040805192835260208301919091527fde4b3f61490b74c0ed6237523974fe299126bbbf8a8a7482fd220104c59b0c8491016102d6565b6040516321f8a72160e01b8152724645455f48414e444c45525f4144445245535360681b60048201526000906001600160a01b038316906321f8a72190602401610d79565b6000610c61836001600160a01b038416610f71565b60008181526001830160205260408120548015610f51576000610e8c600183611423565b8554909150600090610ea090600190611423565b9050818114610f05576000866000018281548110610ec057610ec061139f565b9060005260206000200154905080876000018481548110610ee357610ee361139f565b6000918252602080832090910192909255918252600188019052604090208390555b8554869080610f1657610f16611436565b600190038181906000526020600020016000905590558560010160008681526020019081526020016000206000905560019350505050610c64565b6000915050610c64565b6000610c64825490565b6000610c618383610fc0565b6000818152600183016020526040812054610fb857508154600181810184556000848152602080822090930184905584548482528286019093526040902091909155610c64565b506000610c64565b6000826000018281548110610fd757610fd761139f565b9060005260206000200154905092915050565b6001600160a01b0381168114610fff57600080fd5b50565b60006020828403121561101457600080fd5b813561101f81610fea565b9392505050565b6020808252825182820181905260009190848201906040850190845b818110156110675783516001600160a01b031683529284019291840191600101611042565b50909695505050505050565b634e487b7160e01b600052604160045260246000fd5b604051601f8201601f1916810167ffffffffffffffff811182821017156110b2576110b2611073565b604052919050565b600067ffffffffffffffff8211156110d4576110d4611073565b5060051b60200190565b600082601f8301126110ef57600080fd5b813560206111046110ff836110ba565b611089565b82815260059290921b8401810191818101908684111561112357600080fd5b8286015b8481101561114757803561113a81610fea565b8352918301918301611127565b509695505050505050565b600082601f83011261116357600080fd5b813560206111736110ff836110ba565b82815260059290921b8401810191818101908684111561119257600080fd5b8286015b848110156111475780358352918301918301611196565b600080604083850312156111c057600080fd5b823567ffffffffffffffff808211156111d857600080fd5b6111e4868387016110de565b935060208501359150808211156111fa57600080fd5b5061120785828601611152565b9150509250929050565b60008060006060848603121561122657600080fd5b833567ffffffffffffffff8082111561123e57600080fd5b61124a878388016110de565b9450602086013591508082111561126057600080fd5b61126c87838801611152565b9350604086013591508082111561128257600080fd5b5061128f86828701611152565b9150509250925092565b600080604083850312156112ac57600080fd5b82356112b781610fea565b946020939093013593505050565b60008082840360a08112156112d957600080fd5b83356112e481610fea565b92506080601f19820112156112f857600080fd5b506040516080810181811067ffffffffffffffff8211171561131c5761131c611073565b806040525060208401358152604084013560208201526060840135604082015260808401356060820152809150509250929050565b600060208083528351808285015260005b8181101561137e57858101830151858201604001528201611362565b506000604082860101526040601f19601f8301168501019250505092915050565b634e487b7160e01b600052603260045260246000fd5b634e487b7160e01b600052601160045260246000fd5b6000600182016113dd576113dd6113b5565b5060010190565b6000602082840312156113f657600080fd5b8151801515811461101f57600080fd5b60006020828403121561141857600080fd5b815161101f81610fea565b81810381811115610c6457610c646113b5565b634e487b7160e01b600052603160045260246000fdfea264697066735822122043fe7c957b9eaf021ccef006a9b2e7dd6e533f0ea71b5b65dd2e92ea66005ae264736f6c63430008110033",
    "linkReferences": {}
  },
  "methodIdentifiers": {
    "acceptGovernance()": "238efcbc",
    "changeGovernor(address)": "e4c0aaf4",
    "deregisterVault(address)": "38e270ed",
    "getVaultMetadata(address)": "dc4f1e49",
    "governor()": "0c340a24",
    "gyroConfig()": "44bbdb55",
    "initialize(address)": "c4d66de8",
    "listVaults()": "50cc258e",
    "pendingGovernor()": "e3056a34",
    "registerVault(address,(uint256,uint256,uint256,uint256))": "e7464015",
    "setInitialPrice(address,uint256)": "95e5171a",
    "updateInitialWeights(address[],uint256[])": "74970a02",
    "updatePersistedVaultFlowParams(address[],uint256[],uint256[])": "753ed477"
  },
  "id": 8
}