{
  "abi": [
    {
      "inputs": [],
      "name": "getSwapFeePercentage",
      "outputs": [
        {
          "internalType": "uint256",
          "name": "",
          "type": "uint256"
        }
      ],
      "stateMutability": "pure",
      "type": "function"
    }
  ],
  "bytecode": {
    "object": "0x6080604052348015600f57600080fd5b50607e80601d6000396000f3fe6080604052348015600f57600080fd5b506004361060285760003560e01c806355c6762814602d575b600080fd5b670de0b6b3a764000060405190815260200160405180910390f3fea26469706673582212207a4f499f29d90bae29d8adca8922f01e0032aba5afed1e30ceb75bc8d378c6f164736f6c63430008110033",
    "linkReferences": {}
  },
  "methodIdentifiers": {
    "getSwapFeePercentage()": "55c67628"
  },
  "id": 56
}