{
  "abi": [
    {
      "inputs": [
        {
          "internalType": "address",
          "name": "_governor",
          "type": "address"
        },
        {
          "internalType": "address",
          "name": "_usdOracle",
          "type": "address"
        },
        {
          "internalType": "address",
          "name": "_relativeOracle",
          "type": "address"
        },
        {
          "internalType": "address",
          "name": "_wethAddress",
          "type": "address"
        }
      ],
      "stateMutability": "nonpayable",
      "type": "constructor"
    },
    {
      "anonymous": false,
      "inputs": [
        {
          "indexed": false,
          "internalType": "address",
          "name": "_addressToAdd",
          "type": "address"
        }
      ],
      "name": "AssetForRelativePriceCheckAdded",
      "type": "event"
    },
    {
      "anonymous": false,
      "inputs": [
        {
          "indexed": false,
          "internalType": "address",
          "name": "_addressToRemove",
          "type": "address"
        }
      ],
      "name": "AssetForRelativePriceCheckRemoved",
      "type": "event"
    },
    {
      "anonymous": false,
      "inputs": [
        {
          "indexed": false,
          "internalType": "address",
          "name": "assetToAdd",
          "type": "address"
        }
      ],
      "name": "AssetsWithIgnorableRelativePriceCheckAdded",
      "type": "event"
    },
    {
      "anonymous": false,
      "inputs": [
        {
          "indexed": false,
          "internalType": "address",
          "name": "assetToRemove",
          "type": "address"
        }
      ],
      "name": "AssetsWithIgnorableRelativePriceCheckRemoved",
      "type": "event"
    },
    {
      "anonymous": false,
      "inputs": [
        {
          "indexed": false,
          "internalType": "address",
          "name": "newGovernor",
          "type": "address"
        }
      ],
      "name": "GovernorChangeRequested",
      "type": "event"
    },
    {
      "anonymous": false,
      "inputs": [
        {
          "indexed": false,
          "internalType": "address",
          "name": "oldGovernor",
          "type": "address"
        },
        {
          "indexed": false,
          "internalType": "address",
          "name": "newGovernor",
          "type": "address"
        }
      ],
      "name": "GovernorChanged",
      "type": "event"
    },
    {
      "anonymous": false,
      "inputs": [
        {
          "indexed": false,
          "internalType": "address",
          "name": "_addressToAdd",
          "type": "address"
        }
      ],
      "name": "PriceLevelTWAPQuoteAssetAdded",
      "type": "event"
    },
    {
      "anonymous": false,
      "inputs": [
        {
          "indexed": false,
          "internalType": "address",
          "name": "_addressToRemove",
          "type": "address"
        }
      ],
      "name": "PriceLevelTWAPQuoteAssetRemoved",
      "type": "event"
    },
    {
      "anonymous": false,
      "inputs": [
        {
          "indexed": true,
          "internalType": "address",
          "name": "oracle",
          "type": "address"
        }
      ],
      "name": "RelativeOracleUpdated",
      "type": "event"
    },
    {
      "anonymous": false,
      "inputs": [
        {
          "indexed": false,
          "internalType": "address",
          "name": "_addressToAdd",
          "type": "address"
        }
      ],
      "name": "TrustedSignerOracleAdded",
      "type": "event"
    },
    {
      "anonymous": false,
      "inputs": [
        {
          "indexed": false,
          "internalType": "address",
          "name": "_addressToRemove",
          "type": "address"
        }
      ],
      "name": "TrustedSignerOracleRemoved",
      "type": "event"
    },
    {
      "anonymous": false,
      "inputs": [
        {
          "indexed": true,
          "internalType": "address",
          "name": "oracle",
          "type": "address"
        }
      ],
      "name": "USDOracleUpdated",
      "type": "event"
    },
    {
      "inputs": [],
      "name": "INITIAL_RELATIVE_EPSILON",
      "outputs": [
        {
          "internalType": "uint256",
          "name": "",
          "type": "uint256"
        }
      ],
      "stateMutability": "view",
      "type": "function"
    },
    {
      "inputs": [],
      "name": "MAX_ABSOLUTE_WETH_DEVIATION",
      "outputs": [
        {
          "internalType": "uint256",
          "name": "",
          "type": "uint256"
        }
      ],
      "stateMutability": "view",
      "type": "function"
    },
    {
      "inputs": [],
      "name": "MAX_RELATIVE_EPSILON",
      "outputs": [
        {
          "internalType": "uint256",
          "name": "",
          "type": "uint256"
        }
      ],
      "stateMutability": "view",
      "type": "function"
    },
    {
      "inputs": [],
      "name": "acceptGovernance",
      "outputs": [],
      "stateMutability": "nonpayable",
      "type": "function"
    },
    {
      "inputs": [
        {
          "internalType": "address",
          "name": "assetToAdd",
          "type": "address"
        }
      ],
      "name": "addAssetForRelativePriceCheck",
      "outputs": [],
      "stateMutability": "nonpayable",
      "type": "function"
    },
    {
      "inputs": [
        {
          "internalType": "address",
          "name": "assetToAdd",
          "type": "address"
        }
      ],
      "name": "addAssetsWithIgnorableRelativePriceCheck",
      "outputs": [],
      "stateMutability": "nonpayable",
      "type": "function"
    },
    {
      "inputs": [
        {
          "internalType": "address",
          "name": "_quoteAssetToAdd",
          "type": "address"
        }
      ],
      "name": "addQuoteAssetsForPriceLevelTwap",
      "outputs": [],
      "stateMutability": "nonpayable",
      "type": "function"
    },
    {
      "inputs": [
        {
          "internalType": "address",
          "name": "_signedAssetToAdd",
          "type": "address"
        }
      ],
      "name": "addSignedPriceSource",
      "outputs": [],
      "stateMutability": "nonpayable",
      "type": "function"
    },
    {
      "inputs": [
        {
          "internalType": "address",
          "name": "newGovernor",
          "type": "address"
        }
      ],
      "name": "changeGovernor",
      "outputs": [],
      "stateMutability": "nonpayable",
      "type": "function"
    },
    {
      "inputs": [
        {
          "internalType": "address",
          "name": "tokenAddress",
          "type": "address"
        }
      ],
      "name": "getPriceUSD",
      "outputs": [
        {
          "internalType": "uint256",
          "name": "",
          "type": "uint256"
        }
      ],
      "stateMutability": "view",
      "type": "function"
    },
    {
      "inputs": [
        {
          "internalType": "address[]",
          "name": "tokenAddresses",
          "type": "address[]"
        }
      ],
      "name": "getPricesUSD",
      "outputs": [
        {
          "internalType": "uint256[]",
          "name": "",
          "type": "uint256[]"
        }
      ],
      "stateMutability": "view",
      "type": "function"
    },
    {
      "inputs": [
        {
          "internalType": "address[]",
          "name": "tokenAddresses",
          "type": "address[]"
        }
      ],
      "name": "getPricesUSDWithMetadata",
      "outputs": [
        {
          "internalType": "uint256[]",
          "name": "",
          "type": "uint256[]"
        },
        {
          "internalType": "uint256",
          "name": "",
          "type": "uint256"
        },
        {
          "internalType": "uint256[]",
          "name": "",
          "type": "uint256[]"
        },
        {
          "internalType": "uint256[]",
          "name": "",
          "type": "uint256[]"
        }
      ],
      "stateMutability": "view",
      "type": "function"
    },
    {
      "inputs": [
        {
          "internalType": "uint256[]",
          "name": "signedPrices",
          "type": "uint256[]"
        },
        {
          "internalType": "uint256[]",
          "name": "twapPrices",
          "type": "uint256[]"
        }
      ],
      "name": "getRobustWETHPrice",
      "outputs": [
        {
          "internalType": "uint256",
          "name": "",
          "type": "uint256"
        }
      ],
      "stateMutability": "view",
      "type": "function"
    },
    {
      "inputs": [],
      "name": "governor",
      "outputs": [
        {
          "internalType": "address",
          "name": "",
          "type": "address"
        }
      ],
      "stateMutability": "view",
      "type": "function"
    },
    {
      "inputs": [],
      "name": "listAssetForRelativePriceCheck",
      "outputs": [
        {
          "internalType": "address[]",
          "name": "",
          "type": "address[]"
        }
      ],
      "stateMutability": "view",
      "type": "function"
    },
    {
      "inputs": [],
      "name": "listAssetsWithIgnorableRelativePriceCheck",
      "outputs": [
        {
          "internalType": "address[]",
          "name": "",
          "type": "address[]"
        }
      ],
      "stateMutability": "view",
      "type": "function"
    },
    {
      "inputs": [],
      "name": "listQuoteAssetsForPriceLevelTwap",
      "outputs": [
        {
          "internalType": "address[]",
          "name": "",
          "type": "address[]"
        }
      ],
      "stateMutability": "view",
      "type": "function"
    },
    {
      "inputs": [],
      "name": "listSignedPriceSource",
      "outputs": [
        {
          "internalType": "address[]",
          "name": "",
          "type": "address[]"
        }
      ],
      "stateMutability": "view",
      "type": "function"
    },
    {
      "inputs": [],
      "name": "pendingGovernor",
      "outputs": [
        {
          "internalType": "address",
          "name": "",
          "type": "address"
        }
      ],
      "stateMutability": "view",
      "type": "function"
    },
    {
      "inputs": [],
      "name": "relativeEpsilon",
      "outputs": [
        {
          "internalType": "uint256",
          "name": "",
          "type": "uint256"
        }
      ],
      "stateMutability": "view",
      "type": "function"
    },
    {
      "inputs": [],
      "name": "relativeOracle",
      "outputs": [
        {
          "internalType": "contract IRelativePriceOracle",
          "name": "",
          "type": "address"
        }
      ],
      "stateMutability": "view",
      "type": "function"
    },
    {
      "inputs": [
        {
          "internalType": "address",
          "name": "assetToRemove",
          "type": "address"
        }
      ],
      "name": "removeAssetForRelativePriceCheck",
      "outputs": [],
      "stateMutability": "nonpayable",
      "type": "function"
    },
    {
      "inputs": [
        {
          "internalType": "address",
          "name": "assetToRemove",
          "type": "address"
        }
      ],
      "name": "removeAssetsWithIgnorableRelativePriceCheck",
      "outputs": [],
      "stateMutability": "nonpayable",
      "type": "function"
    },
    {
      "inputs": [
        {
          "internalType": "address",
          "name": "_quoteAssetToRemove",
          "type": "address"
        }
      ],
      "name": "removeQuoteAssetsForPriceLevelTwap",
      "outputs": [],
      "stateMutability": "nonpayable",
      "type": "function"
    },
    {
      "inputs": [
        {
          "internalType": "address",
          "name": "_signedAssetToRemove",
          "type": "address"
        }
      ],
      "name": "removeSignedPriceSource",
      "outputs": [],
      "stateMutability": "nonpayable",
      "type": "function"
    },
    {
      "inputs": [
        {
          "internalType": "uint256",
          "name": "_relativeEpsilon",
          "type": "uint256"
        }
      ],
      "name": "setRelativeMaxEpsilon",
      "outputs": [],
      "stateMutability": "nonpayable",
      "type": "function"
    },
    {
      "inputs": [
        {
          "internalType": "address",
          "name": "_relativeOracle",
          "type": "address"
        }
      ],
      "name": "setRelativeOracle",
      "outputs": [],
      "stateMutability": "nonpayable",
      "type": "function"
    },
    {
      "inputs": [
        {
          "internalType": "address",
          "name": "_usdOracle",
          "type": "address"
        }
      ],
      "name": "setUSDOracle",
      "outputs": [],
      "stateMutability": "nonpayable",
      "type": "function"
    },
    {
      "inputs": [],
      "name": "usdOracle",
      "outputs": [
        {
          "internalType": "contract IUSDPriceOracle",
          "name": "",
          "type": "address"
        }
      ],
      "stateMutability": "view",
      "type": "function"
    },
    {
      "inputs": [],
      "name": "wethAddress",
      "outputs": [
        {
          "internalType": "address",
          "name": "",
          "type": "address"
        }
      ],
      "stateMutability": "view",
      "type": "function"
    }
  ],
  "bytecode": {
    "object": "0x60a06040523480156200001157600080fd5b506040516200262938038062002629833981016040819052620000349162000182565b600080546001600160a01b0319166001600160a01b038616908117825560408051928352602083019190915285917fde4b3f61490b74c0ed6237523974fe299126bbbf8a8a7482fd220104c59b0c84910160405180910390a150604080518082019091526002815261333160f01b60208201526001600160a01b038416620000da5760405162461bcd60e51b8152600401620000d19190620001df565b60405180910390fd5b50604080518082019091526002815261333160f01b60208201526001600160a01b0383166200011e5760405162461bcd60e51b8152600401620000d19190620001df565b50600280546001600160a01b03199081166001600160a01b0395861617909155600380549091169284169290921790915566470de4df82000060045516608052506200022f565b80516001600160a01b03811681146200017d57600080fd5b919050565b600080600080608085870312156200019957600080fd5b620001a48562000165565b9350620001b46020860162000165565b9250620001c46040860162000165565b9150620001d46060860162000165565b905092959194509250565b600060208083528351808285015260005b818110156200020e57858101830151858201604001528201620001f0565b506000604082860101526040601f19601f8301168501019250505092915050565b6080516123bb6200026e600039600081816102d0015281816108ab0152818161094d01528181610a56015281816115ac015261164101526123bb6000f3fe608060405234801561001057600080fd5b50600436106101da5760003560e01c8063765aff1e11610104578063e0dcd3c3116100a2578063e4c0aaf411610071578063e4c0aaf4146103ef578063e4dd02c314610402578063e72a49d014610415578063e7f9e3201461042457600080fd5b8063e0dcd3c3146103b8578063e1818960146103c0578063e3056a34146103c9578063e3a07621146103dc57600080fd5b8063a7ed2a79116100de578063a7ed2a7914610374578063b55b3f1b14610384578063c8a4271f14610392578063d8f4a0aa146103a557600080fd5b8063765aff1e146103465780637cd8c1d01461034e578063a0b90f001461036157600080fd5b80633bb8c3bc1161017c57806357ae33891161014b57806357ae3389146103055780635fbdc7d41461031857806364b450901461032b57806375ceebd01461033357600080fd5b80633bb8c3bc14610295578063442aae79146102b85780634f0e0ef3146102cb5780635708447d146102f257600080fd5b8063238efcbc116101b8578063238efcbc146102375780632af312831461023f5780632e191ed71461025f5780633750815b1461028057600080fd5b80630317ca7c146101df5780630c340a24146101f4578063149bf6e214610224575b600080fd5b6101f26101ed366004611e9b565b610437565b005b600054610207906001600160a01b031681565b6040516001600160a01b0390911681526020015b60405180910390f35b6101f2610232366004611e9b565b6104d2565b6101f261055d565b61025261024d366004611f21565b610606565b60405161021b9190611ff9565b61027261026d366004612072565b61061e565b60405190815260200161021b565b610288610742565b60405161021b91906120d6565b6102a86102a3366004611f21565b610753565b60405161021b9493929190612123565b600354610207906001600160a01b031681565b6102077f000000000000000000000000000000000000000000000000000000000000000081565b610272610300366004611e9b565b610b19565b6101f2610313366004612162565b610ba3565b6101f2610326366004611e9b565b610c68565b610288610cf3565b6101f2610341366004611e9b565b610cff565b610288610d8a565b6101f261035c366004611e9b565b610d96565b6101f261036f366004611e9b565b610e21565b6102726802b5e3af16b188000081565b61027266470de4df82000081565b600254610207906001600160a01b031681565b6101f26103b3366004611e9b565b610eb1565b610288610f3c565b61027260045481565b600154610207906001600160a01b031681565b6101f26103ea366004611e9b565b610f48565b6101f26103fd366004611e9b565b610fd3565b6101f2610410366004611e9b565b6110a8565b61027267016345785d8a000081565b6101f2610432366004611e9b565b611133565b600054604080518082019091526002815261033360f41b6020820152906001600160a01b031633146104855760405162461bcd60e51b815260040161047c919061217b565b60405180910390fd5b506104916009826111c3565b506040516001600160a01b03821681527f150f6605e7fc997b9ef5bed4e904eef6e3f887a080d2f7010632435b47f67adc906020015b60405180910390a150565b600054604080518082019091526002815261033360f41b6020820152906001600160a01b031633146105175760405162461bcd60e51b815260040161047c919061217b565b50610523600b826111c3565b506040516001600160a01b03821681527f42787e5656dab1871f396a5a502afd943ed547a1f540f873f0fc302046dfb4e1906020016104c7565b600154604080518082019091526002815261033360f41b6020820152906001600160a01b031633146105a25760405162461bcd60e51b815260040161047c919061217b565b5060008054600180546001600160a01b03198084166001600160a01b03808416919091179095551690556040805192909116808352336020840152917fde4b3f61490b74c0ed6237523974fe299126bbbf8a8a7482fd220104c59b0c8491016104c7565b6060600061061383610753565b509195945050505050565b600080825160000361063b57610633846111df565b91505061073c565b6106448361128c565b905060008451600161065691906121df565b67ffffffffffffffff81111561066e5761066e611eb6565b604051908082528060200260200182016040528015610697578160200160208202803683370190505b5090508181600183516106aa91906121f2565b815181106106ba576106ba612205565b60200260200101818152505060005b600182516106d791906121f2565b811015610727578581815181106106f0576106f0612205565b602002602001015182828151811061070a5761070a612205565b60209081029190910101528061071f8161221b565b9150506106c9565b50610731816111df565b9250505061073c565b505b92915050565b606061074e600b611380565b905090565b60606000606080600085511160405180604001604052806002815260200161333160f01b815250906107985760405162461bcd60e51b815260040161047c919061217b565b506000855167ffffffffffffffff8111156107b5576107b5611eb6565b6040519080825280602002602001820160405280156107de578160200160208202803683370190505b5090506000805b875181101561092a5760025488516001600160a01b0390911690635708447d908a908490811061081757610817612205565b60200260200101516040518263ffffffff1660e01b815260040161084a91906001600160a01b0391909116815260200190565b602060405180830381865afa158015610867573d6000803e3d6000fd5b505050506040513d601f19601f8201168201806040525081019061088b9190612234565b83828151811061089d5761089d612205565b6020026020010181815250507f00000000000000000000000000000000000000000000000000000000000000006001600160a01b03168882815181106108e5576108e5612205565b60200260200101516001600160a01b0316036109185782818151811061090d5761090d612205565b602002602001015191505b806109228161221b565b9150506107e5565b50806000036109c457600254604051635708447d60e01b81526001600160a01b037f00000000000000000000000000000000000000000000000000000000000000008116600483015290911690635708447d90602401602060405180830381865afa15801561099d573d6000803e3d6000fd5b505050506040513d601f19601f820116820180604052508101906109c19190612234565b90505b60006109d0888461138d565b905060006109de6005611864565b905060008167ffffffffffffffff8111156109fb576109fb611eb6565b604051908082528060200260200182016040528015610a24578160200160208202803683370190505b50905060005b82811015610afd576000610a3f60058361186e565b604051635708447d60e01b81526001600160a01b037f00000000000000000000000000000000000000000000000000000000000000008116600483015291925090821690635708447d90602401602060405180830381865afa158015610aa9573d6000803e3d6000fd5b505050506040513d601f19601f82011682018060405250810190610acd9190612234565b838381518110610adf57610adf612205565b60209081029190910101525080610af58161221b565b915050610a2a565b50610b0984828561187a565b9399929850929650945092505050565b604080516001808252818301909252600091829190602080830190803683370190505090508281600081518110610b5257610b52612205565b60200260200101906001600160a01b031690816001600160a01b0316815250506000610b7d82610606565b905080600081518110610b9257610b92612205565b602002602001015192505050919050565b600054604080518082019091526002815261033360f41b6020820152906001600160a01b03163314610be85760405162461bcd60e51b815260040161047c919061217b565b50604080518082019091526002815261333160f01b602082015281610c205760405162461bcd60e51b815260040161047c919061217b565b50604080518082019091526002815261333160f01b602082015267016345785d8a00008210610c625760405162461bcd60e51b815260040161047c919061217b565b50600455565b600054604080518082019091526002815261033360f41b6020820152906001600160a01b03163314610cad5760405162461bcd60e51b815260040161047c919061217b565b50610cb9600b826118e4565b506040516001600160a01b03821681527f97f16989c0ca3c61d0f35531ff27abeb36547d171fa32e2d3a9311ee15a09d2d906020016104c7565b606061074e6005611380565b600054604080518082019091526002815261033360f41b6020820152906001600160a01b03163314610d445760405162461bcd60e51b815260040161047c919061217b565b50610d506005826111c3565b506040516001600160a01b03821681527fb7f10b8974f181778e2544b4188359b499da116029e96c6a05bed5cdecee1064906020016104c7565b606061074e6009611380565b600054604080518082019091526002815261033360f41b6020820152906001600160a01b03163314610ddb5760405162461bcd60e51b815260040161047c919061217b565b50610de76009826118e4565b506040516001600160a01b03821681527fa67cac4de4567bfe36d7fa182b8455fd3e7d1b80c45191dd2b6dd5310a353066906020016104c7565b600054604080518082019091526002815261033360f41b6020820152906001600160a01b03163314610e665760405162461bcd60e51b815260040161047c919061217b565b50600280546001600160a01b0319166001600160a01b0383169081179091556040517f8bdf8e573e1e6b8aba457bd2a4fed210b28b0ed18344a7c4bb4bd1e87f6e1fb790600090a250565b600054604080518082019091526002815261033360f41b6020820152906001600160a01b03163314610ef65760405162461bcd60e51b815260040161047c919061217b565b50610f026007826118e4565b506040516001600160a01b03821681527f612ac93ad02ac7669d13be8835bb33d5c6d42bb4c46f0cdb717681ebd2b64557906020016104c7565b606061074e6007611380565b600054604080518082019091526002815261033360f41b6020820152906001600160a01b03163314610f8d5760405162461bcd60e51b815260040161047c919061217b565b50610f996005826118e4565b506040516001600160a01b03821681527f8696120fb7656955ec406c2959998de0aa9798518606d5afb5f36789f522dfea906020016104c7565b600054604080518082019091526002815261033360f41b6020820152906001600160a01b031633146110185760405162461bcd60e51b815260040161047c919061217b565b50604080518082019091526002815261333160f01b60208201526001600160a01b0382166110595760405162461bcd60e51b815260040161047c919061217b565b50600180546001600160a01b0319166001600160a01b0383169081179091556040519081527f67235ba2e63c748a35b95c4f92a3bbc2a1389938170a5ce6c9add5d0b03a314a906020016104c7565b600054604080518082019091526002815261033360f41b6020820152906001600160a01b031633146110ed5760405162461bcd60e51b815260040161047c919061217b565b506110f96007826111c3565b506040516001600160a01b03821681527ffab625e04bc6eeef38aaf5c2e48b1f1953cf5183297f4115f0da9e906d4bf3ac906020016104c7565b600054604080518082019091526002815261033360f41b6020820152906001600160a01b031633146111785760405162461bcd60e51b815260040161047c919061217b565b50600380546001600160a01b0319166001600160a01b0383169081179091556040517f99e4ac532391c2555b226b3d66f3d643e9256788b0c246834c1aaebfad90bd0190600090a250565b60006111d8836001600160a01b0384166118f9565b9392505050565b60006111ea82611948565b50600282516111f99190612263565b1561122a57816002835161120d9190612277565b8151811061121d5761121d612205565b602002602001015161073c565b61073c8260016002855161123e9190612277565b61124891906121f2565b8151811061125857611258612205565b6020026020010151836002855161126f9190612277565b8151811061127f5761127f612205565b6020026020010151611967565b600080826000815181106112a2576112a2612205565b6020908102919091010151905060001960015b845181101561135357828582815181106112d1576112d1612205565b60200260200101511015611303578291508481815181106112f4576112f4612205565b60200260200101519250611341565b8185828151811061131657611316612205565b602002602001015110156113415784818151811061133657611336612205565b602002602001015191505b8061134b8161221b565b9150506112b5565b5083516001036113705783600081518110610b9257610b92612205565b83516002036111d8575092915050565b606060006111d883611982565b6060600061139b6007611864565b84516113a7919061228b565b67ffffffffffffffff8111156113bf576113bf611eb6565b6040519080825280602002602001820160405280156113e8578160200160208202803683370190505b5090506000805b85518110156117be576000805b6114066009611864565b81101561173b57600061141a60098361186e565b9050806001600160a01b031689858151811061143857611438612205565b60200260200101516001600160a01b031614806114f7575060035489516001600160a01b0390911690639446994a908b908790811061147957611479612205565b6020026020010151836040518363ffffffff1660e01b81526004016114b49291906001600160a01b0392831681529116602082015260400190565b602060405180830381865afa1580156114d1573d6000803e3d6000fd5b505050506040513d601f19601f820116820180604052508101906114f591906122a2565b155b156115025750611729565b60035489516000916001600160a01b031690639b56e6a7908c908890811061152c5761152c612205565b6020026020010151846040518363ffffffff1660e01b81526004016115679291906001600160a01b0392831681529116602082015260400190565b602060405180830381865afa158015611584573d6000803e3d6000fd5b505050506040513d601f19601f820116820180604052508101906115a89190612234565b90507f00000000000000000000000000000000000000000000000000000000000000006001600160a01b03168a86815181106115e6576115e6612205565b60200260200101516001600160a01b031614801561160a575061160a6007836119de565b1561163f578087878151811061162257611622612205565b6020908102919091010152856116378161221b565b9650506116ea565b7f00000000000000000000000000000000000000000000000000000000000000006001600160a01b0316826001600160a01b03161480156116a857506116a88a868151811061169057611690612205565b602002602001015160076119de90919063ffffffff16565b156116ea576116bf670de0b6b3a764000082611a00565b8787815181106116d1576116d1612205565b6020908102919091010152856116e68161221b565b9650505b60006116f7838c8c611a6b565b905061171d8a878151811061170e5761170e612205565b60200260200101518284611b55565b6001945050505061173b565b806117338161221b565b9150506113fc565b508080611770575061177087838151811061175857611758612205565b6020026020010151600b6119de90919063ffffffff16565b60405180604001604052806002815260200161034360f41b815250906117a95760405162461bcd60e51b815260040161047c919061217b565b505080806117b69061221b565b9150506113ef565b5060008167ffffffffffffffff8111156117da576117da611eb6565b604051908082528060200260200182016040528015611803578160200160208202803683370190505b50905060005b8281101561185a5783818151811061182357611823612205565b602002602001015182828151811061183d5761183d612205565b6020908102919091010152806118528161221b565b915050611809565b5095945050505050565b600061073c825490565b60006111d88383611bc7565b6000611886838361061e565b905060006118948583611bf1565b90506802b5e3af16b188000081111560405180604001604052806002815260200161343560f01b815250906118dc5760405162461bcd60e51b815260040161047c919061217b565b505050505050565b60006111d8836001600160a01b038416611c14565b60008181526001830160205260408120546119405750815460018181018455600084815260208082209093018490558454848252828601909352604090209190915561073c565b50600061073c565b60606119638260006001855161195e91906121f2565b611d07565b5090565b60006119766002848418612277565b6111d8908484166121df565b6060816000018054806020026020016040519081016040528092919081815260200182805480156119d257602002820191906000526020600020905b8154815260200190600101908083116119be575b50505050509050919050565b6001600160a01b038116600090815260018301602052604081205415156111d8565b604080518082019091526002815261323560f01b602082015260009082611a3a5760405162461bcd60e51b815260040161047c919061217b565b5082600003611a4b5750600061073c565b6000611a5f670de0b6b3a76400008561228b565b90506106338382612277565b6000805b8351811015611ade57846001600160a01b0316848281518110611a9457611a94612205565b60200260200101516001600160a01b031603611acc57828181518110611abc57611abc612205565b60200260200101519150506111d8565b80611ad68161221b565b915050611a6f565b50600254604051635708447d60e01b81526001600160a01b03868116600483015290911690635708447d90602401602060405180830381865afa158015611b29573d6000803e3d6000fd5b505050506040513d601f19601f82011682018060405250810190611b4d9190612234565b949350505050565b6000611b618484611a00565b90506000611b6f8383611bf1565b90506000611b7d8285611a00565b905060045481111560405180604001604052806002815260200161343160f01b81525090611bbe5760405162461bcd60e51b815260040161047c919061217b565b50505050505050565b6000826000018281548110611bde57611bde612205565b9060005260206000200154905092915050565b600081831015611c0a57611c0583836121f2565b6111d8565b6111d882846121f2565b60008181526001830160205260408120548015611cfd576000611c386001836121f2565b8554909150600090611c4c906001906121f2565b9050818114611cb1576000866000018281548110611c6c57611c6c612205565b9060005260206000200154905080876000018481548110611c8f57611c8f612205565b6000918252602080832090910192909255918252600188019052604090208390555b8554869080611cc257611cc26122c4565b60019003818190600052602060002001600090559055856001016000868152602001908152602001600020600090556001935050505061073c565b600091505061073c565b8181808203611d17575050505050565b6000856002611d2687876122da565b611d3091906122fa565b611d3a9087612328565b81518110611d4a57611d4a612205565b602002602001015190505b818313611e59575b80868481518110611d7057611d70612205565b60200260200101511015611d905782611d8881612350565b935050611d5d565b858281518110611da257611da2612205565b6020026020010151811015611dc35781611dbb81612368565b925050611d90565b818313611e5457858281518110611ddc57611ddc612205565b6020026020010151868481518110611df657611df6612205565b6020026020010151878581518110611e1057611e10612205565b60200260200101888581518110611e2957611e29612205565b60209081029190910101919091525282611e4281612350565b9350508180611e5090612368565b9250505b611d55565b81851215611e6c57611e6c868684611d07565b838312156118dc576118dc868486611d07565b80356001600160a01b0381168114611e9657600080fd5b919050565b600060208284031215611ead57600080fd5b6111d882611e7f565b634e487b7160e01b600052604160045260246000fd5b604051601f8201601f1916810167ffffffffffffffff81118282101715611ef557611ef5611eb6565b604052919050565b600067ffffffffffffffff821115611f1757611f17611eb6565b5060051b60200190565b60006020808385031215611f3457600080fd5b823567ffffffffffffffff811115611f4b57600080fd5b8301601f81018513611f5c57600080fd5b8035611f6f611f6a82611efd565b611ecc565b81815260059190911b82018301908381019087831115611f8e57600080fd5b928401925b82841015611fb357611fa484611e7f565b82529284019290840190611f93565b979650505050505050565b600081518084526020808501945080840160005b83811015611fee57815187529582019590820190600101611fd2565b509495945050505050565b6020815260006111d86020830184611fbe565b600082601f83011261201d57600080fd5b8135602061202d611f6a83611efd565b82815260059290921b8401810191818101908684111561204c57600080fd5b8286015b848110156120675780358352918301918301612050565b509695505050505050565b6000806040838503121561208557600080fd5b823567ffffffffffffffff8082111561209d57600080fd5b6120a98683870161200c565b935060208501359150808211156120bf57600080fd5b506120cc8582860161200c565b9150509250929050565b6020808252825182820181905260009190848201906040850190845b818110156121175783516001600160a01b0316835292840192918401916001016120f2565b50909695505050505050565b6080815260006121366080830187611fbe565b856020840152828103604084015261214e8186611fbe565b90508281036060840152611fb38185611fbe565b60006020828403121561217457600080fd5b5035919050565b600060208083528351808285015260005b818110156121a85785810183015185820160400152820161218c565b506000604082860101526040601f19601f8301168501019250505092915050565b634e487b7160e01b600052601160045260246000fd5b8082018082111561073c5761073c6121c9565b8181038181111561073c5761073c6121c9565b634e487b7160e01b600052603260045260246000fd5b60006001820161222d5761222d6121c9565b5060010190565b60006020828403121561224657600080fd5b5051919050565b634e487b7160e01b600052601260045260246000fd5b6000826122725761227261224d565b500690565b6000826122865761228661224d565b500490565b808202811582820484141761073c5761073c6121c9565b6000602082840312156122b457600080fd5b815180151581146111d857600080fd5b634e487b7160e01b600052603160045260246000fd5b818103600083128015838313168383128216171561073a5761073a6121c9565b6000826123095761230961224d565b600160ff1b821460001984141615612323576123236121c9565b500590565b8082018281126000831280158216821582161715612348576123486121c9565b505092915050565b60006001600160ff1b01820161222d5761222d6121c9565b6000600160ff1b820161237d5761237d6121c9565b50600019019056fea264697066735822122005f65d21d1977be76c01614807000da7a58be65ae5dee261b57436d2e18512be64736f6c63430008110033",
    "linkReferences": {}
  },
  "methodIdentifiers": {
    "INITIAL_RELATIVE_EPSILON()": "b55b3f1b",
    "MAX_ABSOLUTE_WETH_DEVIATION()": "a7ed2a79",
    "MAX_RELATIVE_EPSILON()": "e72a49d0",
    "acceptGovernance()": "238efcbc",
    "addAssetForRelativePriceCheck(address)": "0317ca7c",
    "addAssetsWithIgnorableRelativePriceCheck(address)": "149bf6e2",
    "addQuoteAssetsForPriceLevelTwap(address)": "e4dd02c3",
    "addSignedPriceSource(address)": "75ceebd0",
    "changeGovernor(address)": "e4c0aaf4",
    "getPriceUSD(address)": "5708447d",
    "getPricesUSD(address[])": "2af31283",
    "getPricesUSDWithMetadata(address[])": "3bb8c3bc",
    "getRobustWETHPrice(uint256[],uint256[])": "2e191ed7",
    "governor()": "0c340a24",
    "listAssetForRelativePriceCheck()": "765aff1e",
    "listAssetsWithIgnorableRelativePriceCheck()": "3750815b",
    "listQuoteAssetsForPriceLevelTwap()": "e0dcd3c3",
    "listSignedPriceSource()": "64b45090",
    "pendingGovernor()": "e3056a34",
    "relativeEpsilon()": "e1818960",
    "relativeOracle()": "442aae79",
    "removeAssetForRelativePriceCheck(address)": "7cd8c1d0",
    "removeAssetsWithIgnorableRelativePriceCheck(address)": "5fbdc7d4",
    "removeQuoteAssetsForPriceLevelTwap(address)": "d8f4a0aa",
    "removeSignedPriceSource(address)": "e3a07621",
    "setRelativeMaxEpsilon(uint256)": "57ae3389",
    "setRelativeOracle(address)": "e7f9e320",
    "setUSDOracle(address)": "a0b90f00",
    "usdOracle()": "c8a4271f",
    "wethAddress()": "4f0e0ef3"
  },
  "id": 21
}