{
  "abi": [
    {
      "inputs": [
        {
          "internalType": "uint256",
          "name": "sqrtAlpha",
          "type": "uint256"
        },
        {
          "internalType": "uint256",
          "name": "sqrtBeta",
          "type": "uint256"
        },
        {
          "internalType": "uint256",
          "name": "invariantDivSupply",
          "type": "uint256"
        },
        {
          "internalType": "uint256[]",
          "name": "underlyingPrices",
          "type": "uint256[]"
        }
      ],
      "name": "priceBpt2CLP",
      "outputs": [
        {
          "internalType": "uint256",
          "name": "bptPrice",
          "type": "uint256"
        }
      ],
      "stateMutability": "pure",
      "type": "function"
    },
    {
      "inputs": [
        {
          "internalType": "uint256",
          "name": "cbrtAlpha",
          "type": "uint256"
        },
        {
          "internalType": "uint256",
          "name": "invariantDivSupply",
          "type": "uint256"
        },
        {
          "internalType": "uint256[]",
          "name": "underlyingPrices",
          "type": "uint256[]"
        }
      ],
      "name": "priceBpt3CLP",
      "outputs": [
        {
          "internalType": "uint256",
          "name": "bptPrice",
          "type": "uint256"
        }
      ],
      "stateMutability": "pure",
      "type": "function"
    },
    {
      "inputs": [
        {
          "internalType": "uint256[]",
          "name": "weights",
          "type": "uint256[]"
        },
        {
          "internalType": "uint256",
          "name": "invariantDivSupply",
          "type": "uint256"
        },
        {
          "internalType": "uint256[]",
          "name": "underlyingPrices",
          "type": "uint256[]"
        }
      ],
      "name": "priceBptCPMM",
      "outputs": [
        {
          "internalType": "uint256",
          "name": "bptPrice",
          "type": "uint256"
        }
      ],
      "stateMutability": "pure",
      "type": "function"
    },
    {
      "inputs": [
        {
          "internalType": "uint256",
          "name": "weight",
          "type": "uint256"
        },
        {
          "internalType": "uint256",
          "name": "invariantDivSupply",
          "type": "uint256"
        },
        {
          "internalType": "uint256[]",
          "name": "underlyingPrices",
          "type": "uint256[]"
        }
      ],
      "name": "priceBptCPMMEqualWeights",
      "outputs": [
        {
          "internalType": "uint256",
          "name": "bptPrice",
          "type": "uint256"
        }
      ],
      "stateMutability": "pure",
      "type": "function"
    },
    {
      "inputs": [
        {
          "components": [
            {
              "internalType": "int256",
              "name": "alpha",
              "type": "int256"
            },
            {
              "internalType": "int256",
              "name": "beta",
              "type": "int256"
            },
            {
              "internalType": "int256",
              "name": "c",
              "type": "int256"
            },
            {
              "internalType": "int256",
              "name": "s",
              "type": "int256"
            },
            {
              "internalType": "int256",
              "name": "lambda",
              "type": "int256"
            }
          ],
          "internalType": "struct IECLP.Params",
          "name": "params",
          "type": "tuple"
        },
        {
          "components": [
            {
              "components": [
                {
                  "internalType": "int256",
                  "name": "x",
                  "type": "int256"
                },
                {
                  "internalType": "int256",
                  "name": "y",
                  "type": "int256"
                }
              ],
              "internalType": "struct IECLP.Vector2",
              "name": "tauAlpha",
              "type": "tuple"
            },
            {
              "components": [
                {
                  "internalType": "int256",
                  "name": "x",
                  "type": "int256"
                },
                {
                  "internalType": "int256",
                  "name": "y",
                  "type": "int256"
                }
              ],
              "internalType": "struct IECLP.Vector2",
              "name": "tauBeta",
              "type": "tuple"
            },
            {
              "internalType": "int256",
              "name": "u",
              "type": "int256"
            },
            {
              "internalType": "int256",
              "name": "v",
              "type": "int256"
            },
            {
              "internalType": "int256",
              "name": "w",
              "type": "int256"
            },
            {
              "internalType": "int256",
              "name": "z",
              "type": "int256"
            },
            {
              "internalType": "int256",
              "name": "dSq",
              "type": "int256"
            }
          ],
          "internalType": "struct IECLP.DerivedParams",
          "name": "derivedParams",
          "type": "tuple"
        },
        {
          "internalType": "uint256",
          "name": "invariantDivSupply",
          "type": "uint256"
        },
        {
          "internalType": "uint256[]",
          "name": "underlyingPrices",
          "type": "uint256[]"
        }
      ],
      "name": "priceBptECLP",
      "outputs": [
        {
          "internalType": "uint256",
          "name": "bptPrice",
          "type": "uint256"
        }
      ],
      "stateMutability": "pure",
      "type": "function"
    },
    {
      "inputs": [
        {
          "internalType": "uint256[]",
          "name": "weights",
          "type": "uint256[]"
        },
        {
          "internalType": "uint256",
          "name": "invariantDivSupply",
          "type": "uint256"
        },
        {
          "internalType": "uint256[]",
          "name": "underlyingPrices",
          "type": "uint256[]"
        }
      ],
      "name": "priceBptTwoAssetCPMM",
      "outputs": [
        {
          "internalType": "uint256",
          "name": "bptPrice",
          "type": "uint256"
        }
      ],
      "stateMutability": "pure",
      "type": "function"
    },
    {
      "inputs": [
        {
          "internalType": "uint256",
          "name": "alpha",
          "type": "uint256"
        },
        {
          "internalType": "uint256",
          "name": "pXZ",
          "type": "uint256"
        },
        {
          "internalType": "uint256",
          "name": "pYZ",
          "type": "uint256"
        }
      ],
      "name": "relativeEquilibriumPrices3CLP",
      "outputs": [
        {
          "internalType": "uint256",
          "name": "",
          "type": "uint256"
        },
        {
          "internalType": "uint256",
          "name": "",
          "type": "uint256"
        }
      ],
      "stateMutability": "pure",
      "type": "function"
    }
  ],
  "bytecode": {
    "object": "0x608060405234801561001057600080fd5b50612082806100206000396000f3fe608060405234801561001057600080fd5b506004361061007d5760003560e01c8063855ddd671161005b578063855ddd67146100e35780638d0b1417146100f6578063cdc937f014610109578063f59476881461011c57600080fd5b8063130393ea146100825780633a34739e146100a8578063831a3839146100bb575b600080fd5b610095610090366004611cce565b61012f565b6040519081526020015b60405180910390f35b6100956100b6366004611d77565b610146565b6100ce6100c9366004611db9565b610154565b6040805192835260208301919091520161009f565b6100956100f1366004611de5565b61016f565b610095610104366004611e35565b610184565b610095610117366004611de5565b610191565b61009561012a366004611e35565b61019e565b600061013d858585856101ab565b95945050505050565b600061013d8585858561033c565b600080610162858585610461565b915091505b935093915050565b600061017c848484610606565b949350505050565b600061017c84848461082b565b600061017c8484846108c5565b600061017c84848461091f565b60008060006101d3846000815181106101c6576101c6611e98565b6020026020010151610a9f565b6101e9856001815181106101c6576101c6611e98565b909250905060006101fa8383610b0d565b8851909150811215610259576000610216898960000151610bd0565b600001516102288a8a60200151610bd0565b516102339190611ec4565b90506102518761024b6102468488610c70565b610ce0565b90610d32565b945050610331565b87602001518113156102a8576000610275898960200151610bd0565b602001516102878a8a60000151610bd0565b602001516102959190611ec4565b90506102518761024b6102468487610c70565b60006102bd896102b88b85610d53565b610bd0565b905080600001516102d28a8a60200151610bd0565b516102dd9190611ec4565b8152602081015188516102f1908b90610bd0565b602001516102ff9190611ec4565b81602001818152505061032d8761024b61024660405180604001604052808981526020018881525085610d80565b9450505b505050949350505050565b60008060008360008151811061035457610354611e98565b60200260200101518460018151811061036f5761036f611e98565b60209081029190910101519092509050670de0b6b3a76400006103928880610db4565b61039c8484610e05565b116103d3576103cc6103ae8289610e70565b6103b8838b610e05565b6103c29190611ee4565b61024b8886610d32565b9350610331565b6103dd8780610d32565b6103e78484610e70565b10610403576103cc6103f98989611ee4565b61024b8885610d32565b60006104206104128585610d32565b6706f05b59d3b20000610eef565b61042b906002611ef7565b9050610437838a610db4565b610441858a610e70565b61044b9083611ee4565b6104559190611ee4565b945061032d8786610d32565b60008080610477670de0b6b3a764000087610e05565b90506104878561024b8882610d32565b8410156104e757858410156104aa57670de0b6b3a7640000869250925050610167565b808411156104bc579150819050610167565b60006104da6706f05b59d3b200006104d48488610d32565b90610eef565b9350849250610167915050565b6104f58461024b8882610d32565b85101561054f57858510156105185785670de0b6b3a76400009250925050610167565b8085111561052a579150819050610167565b60006105426706f05b59d3b200006104d48489610d32565b8694509250610167915050565b8561055a8686610d32565b10156105fa5761056a8685610d32565b8510156105855785670de0b6b3a76400009250925050610167565b61058f8185610d32565b8511156105aa57670de0b6b3a7640000869250925050610167565b60006105be876706f05b59d3b20000610eef565b905060006105d86706f05b59d3b200006104d48989610e05565b90506105e48282610d32565b6105ee8383610e05565b94509450505050610167565b84849250925050610167565b6000815160031460405180604001604052806002815260200161333160f01b8152509061064f5760405162461bcd60e51b81526004016106469190611f0e565b60405180910390fd5b50600080806106628761024b8180610d32565b905060006106ad8660028151811061067c5761067c611e98565b60200260200101518760008151811061069757610697611e98565b6020026020010151610e0590919063ffffffff16565b905060006106e2876002815181106106c7576106c7611e98565b60200260200101518860018151811061069757610697611e98565b90506106ef838383610461565b909550935060009250610706915084905083610d32565b90506107248161071f6003670de0b6b3a7640000611f72565b610eef565b9050600061073f848760008151811061069757610697611e98565b9050610758838760018151811061069757610697611e98565b6107629082611f86565b90508560028151811061077757610777611e98565b60200260200101518161078a9190611f86565b90506107968282610d32565b945061080788876002815181106107af576107af611e98565b6020026020010151886001815181106107ca576107ca611e98565b6020026020010151896000815181106107e5576107e5611e98565b60200260200101516107f79190611f86565b6108019190611f86565b90610db4565b90506108138186611ee4565b945061081f8588610d32565b98975050505050505050565b6000670de0b6b3a7640000815b85518110156108bc5761089c61089561087688848151811061085c5761085c611e98565b602002602001015187858151811061069757610697611e98565b88848151811061088857610888611e98565b6020026020010151610eef565b8390610d32565b91506108a88583610d32565b9250806108b481611f99565b915050610838565b50509392505050565b6000670de0b6b3a7640000815b8351811015610908576108f46108958786848151811061069757610697611e98565b91508061090081611f99565b9150506108d2565b506109138186610eef565b905061013d8482610d32565b6000835160021460405180604001604052806002815260200161068760f31b8152509061095f5760405162461bcd60e51b81526004016106469190611f0e565b506000806109aa8460018151811061097957610979611e98565b60200260200101518760008151811061099457610994611e98565b6020026020010151610d3290919063ffffffff16565b6109db856000815181106109c0576109c0611e98565b60200260200101518860018151811061099457610994611e98565b116109e957600060016109ee565b600160005b60ff16915060ff1691506000610a76610a64610a2f878581518110610a1557610a15611e98565b60200260200101518a878151811061099457610994611e98565b610a5e8a8681518110610a4457610a44611e98565b602002602001015189888151811061099457610994611e98565b90610e05565b88858151811061088857610888611e98565b90506000610a8f88848151811061085c5761085c611e98565b905061081f8161024b8985610d32565b60006001600160ff1b03821115610b095760405162461bcd60e51b815260206004820152602860248201527f53616665436173743a2076616c756520646f65736e27742066697420696e2061604482015267371034b73a191a9b60c11b6064820152608401610646565b5090565b604080518082019091526002815261323560f01b602082015260009082610b475760405162461bcd60e51b81526004016106469190611f0e565b5082600003610b5857506000610bca565b6000610b6c670de0b6b3a764000085611fb2565b9050670de0b6b3a7640000610b818583611fe2565b1460405180604001604052806002815260200161323960f01b81525090610bbb5760405162461bcd60e51b81526004016106469190611f0e565b50610bc68382611fe2565b9150505b92915050565b604080518082019091526000808252602082015260608301516020830151610bf791610c70565b604084015160808501518451610c189291610c129190610c70565b90610c70565b610c229190612010565b815260408301516020830151610c3791610c70565b606084015160808501518451610c529291610c129190610c70565b610c5b90612030565b610c659190612010565b602082015292915050565b600080610c7d8385611fb2565b9050831580610c94575082610c928583611fe2565b145b60405180604001604052806002815260200161064760f31b81525090610ccd5760405162461bcd60e51b81526004016106469190611f0e565b50610bc6670de0b6b3a764000082611fe2565b600080821215610b095760405162461bcd60e51b815260206004820181905260248201527f53616665436173743a2076616c7565206d75737420626520706f7369746976656044820152606401610646565b600080610d3f8385611ef7565b9050610bc6670de0b6b3a764000082611f72565b6040805180820190915260008082526020820152610d79610d748484610f47565b610f95565b9392505050565b6000610d9d82602001518460200151610c7090919063ffffffff16565b82518451610daa91610c70565b610d799190612010565b600080610dc18385611ef7565b905080600003610dd5576000915050610bca565b670de0b6b3a7640000610de9600183611ee4565b610df39190611f72565b610bc6906001611f86565b5092915050565b604080518082019091526002815261323560f01b602082015260009082610e3f5760405162461bcd60e51b81526004016106469190611f0e565b5082600003610e5057506000610bca565b6000610e64670de0b6b3a764000085611ef7565b9050610bc68382611f72565b604080518082019091526002815261323560f01b602082015260009082610eaa5760405162461bcd60e51b81526004016106469190611f0e565b5082600003610ebb57506000610bca565b6000610ecf670de0b6b3a764000085611ef7565b9050826001820381610ee357610ee3611f5c565b04600101915050610bca565b600080610efc8484610fe1565b90506000610f0c82612710610db4565b610f17906001611f86565b905080821015610f2c57600092505050610bca565b610f368183611ee4565b92505050610bca565b505092915050565b600080610f78846040518060400160405280670de0b6b3a7640000610f6b90612030565b815260200186905261117d565b80516020820151919250610f8c9190610b0d565b610bc690612030565b60408051808201909152600080825260208201526000610fd5610fd0610fbe6102468680610c70565b61041290670de0b6b3a7640000611f86565b610a9f565b9050610d798382611204565b600081600003610ffa5750670de0b6b3a7640000610bca565b8260000361100a57506000610bca565b604080518082019091526002815261032360f41b6020820152600160ff1b84106110475760405162461bcd60e51b81526004016106469190611f0e565b50604080518082019091526002815261323160f01b60208201528390770bce5086492111aea88f4bb1ca6bcf584181ea8059f76532841061109b5760405162461bcd60e51b81526004016106469190611f0e565b50826000670c7d713b49da0000831380156110bd5750670f43fc2c04ee000083125b156110f45760006110cd84611236565b9050670de0b6b3a764000080820784020583670de0b6b3a764000083050201915050611102565b816110fe84611355565b0290505b670de0b6b3a76400009005680238fd42c5cf03ffff198112801590611130575068070c1cc73b00c800008113155b60405180604001604052806002815260200161191960f11b815250906111695760405162461bcd60e51b81526004016106469190611f0e565b50611173816116ff565b9695505050505050565b60408051808201909152600080825260208201526111ba83608001516111b484602001518660600151610c7090919063ffffffff16565b90610b0d565b6080840151835160408601516111d592916111b49190610c70565b6111df9190611ec4565b8152602082015160408401516111f491610c70565b82516060850151610c5b91610c70565b60408051808201909152600080825260208201526112228383610b0d565b8152610c65670de0b6b3a764000083610b0d565b670de0b6b3a7640000026000806a0c097ce7bc90715b34b9f160241b808401906ec097ce7bc90715b34b9f0fffffffff198501028161127757611277611f5c565b05905060006a0c097ce7bc90715b34b9f160241b82800205905081806a0c097ce7bc90715b34b9f160241b81840205915060038205016a0c097ce7bc90715b34b9f160241b82840205915060058205016a0c097ce7bc90715b34b9f160241b82840205915060078205016a0c097ce7bc90715b34b9f160241b82840205915060098205016a0c097ce7bc90715b34b9f160241b828402059150600b8205016a0c097ce7bc90715b34b9f160241b828402059150600d8205016a0c097ce7bc90715b34b9f160241b828402059150600f82050160020295945050505050565b6000670de0b6b3a76400008212156113965761138d826a0c097ce7bc90715b34b9f160241b8161138757611387611f5c565b05611355565b60000392915050565b60007e1600ef3172e58d2e933ec884fde10064c63b5372d805e203c000000000000083126113e757770195e54c5dd42177f53a27172fa9ec630262827000000000830592506806f05b59d3b2000000015b73011798004d755d3c8bc8e03204cf44619e000000831261141f576b1425982cf597cd205cef7380830592506803782dace9d9000000015b606492830292026e01855144814a7ff805980ff00840008312611467576e01855144814a7ff805980ff008400068056bc75e2d63100000840205925068ad78ebc5ac62000000015b6b02df0ab5a80a22c61ab5a70083126114a2576b02df0ab5a80a22c61ab5a70068056bc75e2d6310000084020592506856bc75e2d631000000015b693f1fce3da636ea5cf85083126114d957693f1fce3da636ea5cf85068056bc75e2d631000008402059250682b5e3af16b18800000015b690127fa27722cc06cc5e2831261151057690127fa27722cc06cc5e268056bc75e2d6310000084020592506815af1d78b58c400000015b68280e60114edb805d0383126115455768280e60114edb805d0368056bc75e2d631000008402059250680ad78ebc5ac6200000015b680ebc5fb41746121110831261157057680ebc5fb4174612111068056bc75e2d631000009384020592015b6808f00f760a4b2db55d83126115a5576808f00f760a4b2db55d68056bc75e2d6310000084020592506802b5e3af16b1880000015b6806f5f177578893793783126115da576806f5f177578893793768056bc75e2d63100000840205925068015af1d78b58c40000015b6806248f33704b286603831261160e576806248f33704b28660368056bc75e2d63100000840205925067ad78ebc5ac620000015b6805c548670b9510e7ac8312611642576805c548670b9510e7ac68056bc75e2d6310000084020592506756bc75e2d6310000015b600068056bc75e2d63100000840168056bc75e2d63100000808603028161166b5761166b611f5c565b059050600068056bc75e2d63100000828002059050818068056bc75e2d63100000818402059150600382050168056bc75e2d63100000828402059150600582050168056bc75e2d63100000828402059150600782050168056bc75e2d63100000828402059150600982050168056bc75e2d63100000828402059150600b820501600202606485820105979650505050505050565b6000680238fd42c5cf03ffff198212158015611724575068070c1cc73b00c800008213155b60405180604001604052806002815260200161323360f01b8152509061175d5760405162461bcd60e51b81526004016106469190611f0e565b50600082121561179657611773826000036116ff565b6a0c097ce7bc90715b34b9f160241b8161178f5761178f611f5c565b0592915050565b60006806f05b59d3b200000083126117d657506806f05b59d3b1ffffff1990910190770195e54c5dd42177f53a27172fa9ec63026282700000000061180c565b6803782dace9d9000000831261180857506803782dace9d8ffffff19909101906b1425982cf597cd205cef738061180c565b5060015b6064929092029168056bc75e2d6310000068ad78ebc5ac62000000841261185c5768ad78ebc5ac61ffffff199093019268056bc75e2d631000006e01855144814a7ff805980ff008400082020590505b6856bc75e2d6310000008412611898576856bc75e2d630ffffff199093019268056bc75e2d631000006b02df0ab5a80a22c61ab5a70082020590505b682b5e3af16b1880000084126118d257682b5e3af16b187fffff199093019268056bc75e2d63100000693f1fce3da636ea5cf85082020590505b6815af1d78b58c400000841261190c576815af1d78b58c3fffff199093019268056bc75e2d63100000690127fa27722cc06cc5e282020590505b680ad78ebc5ac6200000841261194557680ad78ebc5ac61fffff199093019268056bc75e2d6310000068280e60114edb805d0382020590505b68056bc75e2d63100000841261197e5768056bc75e2d630fffff199093019268056bc75e2d63100000680ebc5fb4174612111082020590505b6802b5e3af16b188000084126119b7576802b5e3af16b187ffff199093019268056bc75e2d631000006808f00f760a4b2db55d82020590505b68015af1d78b58c4000084126119f05768015af1d78b58c3ffff199093019268056bc75e2d631000006806f5f177578893793782020590505b68056bc75e2d631000008481019085906002908280020505918201919050600368056bc75e2d631000008783020505918201919050600468056bc75e2d631000008783020505918201919050600568056bc75e2d631000008783020505918201919050600668056bc75e2d631000008783020505918201919050600768056bc75e2d631000008783020505918201919050600868056bc75e2d631000008783020505918201919050600968056bc75e2d631000008783020505918201919050600a68056bc75e2d631000008783020505918201919050600b68056bc75e2d631000008783020505918201919050600c68056bc75e2d631000008783020505918201919050606468056bc75e2d63100000848402058502059695505050505050565b634e487b7160e01b600052604160045260246000fd5b60405160a0810167ffffffffffffffff81118282101715611b4a57611b4a611b11565b60405290565b600060408284031215611b6257600080fd5b6040516040810181811067ffffffffffffffff82111715611b8557611b85611b11565b604052823581526020928301359281019290925250919050565b60006101208284031215611bb257600080fd5b60405160e0810181811067ffffffffffffffff82111715611bd557611bd5611b11565b604052905080611be58484611b50565b8152611bf48460408501611b50565b60208201526080830135604082015260a0830135606082015260c0830135608082015260e083013560a082015261010083013560c08201525092915050565b600082601f830112611c4457600080fd5b8135602067ffffffffffffffff80831115611c6157611c61611b11565b8260051b604051601f19603f83011681018181108482111715611c8657611c86611b11565b604052938452858101830193838101925087851115611ca457600080fd5b83870191505b84821015611cc357813583529183019190830190611caa565b979650505050505050565b600080600080848603610200811215611ce657600080fd5b60a0811215611cf457600080fd5b50611cfd611b27565b853581526020860135602082015260408601356040820152606086013560608201526080860135608082015280945050611d3a8660a08701611b9f565b92506101c085013591506101e085013567ffffffffffffffff811115611d5f57600080fd5b611d6b87828801611c33565b91505092959194509250565b60008060008060808587031215611d8d57600080fd5b843593506020850135925060408501359150606085013567ffffffffffffffff811115611d5f57600080fd5b600080600060608486031215611dce57600080fd5b505081359360208301359350604090920135919050565b600080600060608486031215611dfa57600080fd5b8335925060208401359150604084013567ffffffffffffffff811115611e1f57600080fd5b611e2b86828701611c33565b9150509250925092565b600080600060608486031215611e4a57600080fd5b833567ffffffffffffffff80821115611e6257600080fd5b611e6e87838801611c33565b9450602086013593506040860135915080821115611e8b57600080fd5b50611e2b86828701611c33565b634e487b7160e01b600052603260045260246000fd5b634e487b7160e01b600052601160045260246000fd5b8181036000831280158383131683831282161715610dfe57610dfe611eae565b81810381811115610bca57610bca611eae565b8082028115828204841417610bca57610bca611eae565b600060208083528351808285015260005b81811015611f3b57858101830151858201604001528201611f1f565b506000604082860101526040601f19601f8301168501019250505092915050565b634e487b7160e01b600052601260045260246000fd5b600082611f8157611f81611f5c565b500490565b80820180821115610bca57610bca611eae565b600060018201611fab57611fab611eae565b5060010190565b80820260008212600160ff1b84141615611fce57611fce611eae565b8181058314821517610bca57610bca611eae565b600082611ff157611ff1611f5c565b600160ff1b82146000198414161561200b5761200b611eae565b500590565b8082018281126000831280158216821582161715610f3f57610f3f611eae565b6000600160ff1b820161204557612045611eae565b506000039056fea2646970667358221220c883aa080ffc95b7e856fc5264dafd8bfa5825e3fc1417dc87d47470a7a676af64736f6c63430008110033",
    "linkReferences": {}
  },
  "methodIdentifiers": {
    "priceBpt2CLP(uint256,uint256,uint256,uint256[])": "3a34739e",
    "priceBpt3CLP(uint256,uint256,uint256[])": "855ddd67",
    "priceBptCPMM(uint256[],uint256,uint256[])": "8d0b1417",
    "priceBptCPMMEqualWeights(uint256,uint256,uint256[])": "cdc937f0",
    "priceBptECLP((int256,int256,int256,int256,int256),((int256,int256),(int256,int256),int256,int256,int256,int256,int256),uint256,uint256[])": "130393ea",
    "priceBptTwoAssetCPMM(uint256[],uint256,uint256[])": "f5947688",
    "relativeEquilibriumPrices3CLP(uint256,uint256,uint256)": "831a3839"
  },
  "id": 45
}