{
  "abi": [
    {
      "inputs": [
        {
          "internalType": "address",
          "name": "_governor",
          "type": "address"
        },
        {
          "internalType": "contract IUSDBatchPriceOracle",
          "name": "_batchPriceOracle",
          "type": "address"
        }
      ],
      "stateMutability": "nonpayable",
      "type": "constructor"
    },
    {
      "anonymous": false,
      "inputs": [
        {
          "indexed": true,
          "internalType": "address",
          "name": "priceOracle",
          "type": "address"
        }
      ],
      "name": "BatchPriceOracleChanged",
      "type": "event"
    },
    {
      "anonymous": false,
      "inputs": [
        {
          "indexed": false,
          "internalType": "address",
          "name": "newGovernor",
          "type": "address"
        }
      ],
      "name": "GovernorChangeRequested",
      "type": "event"
    },
    {
      "anonymous": false,
      "inputs": [
        {
          "indexed": false,
          "internalType": "address",
          "name": "oldGovernor",
          "type": "address"
        },
        {
          "indexed": false,
          "internalType": "address",
          "name": "newGovernor",
          "type": "address"
        }
      ],
      "name": "GovernorChanged",
      "type": "event"
    },
    {
      "anonymous": false,
      "inputs": [
        {
          "indexed": true,
          "internalType": "enum Vaults.Type",
          "name": "vaultType",
          "type": "uint8"
        },
        {
          "indexed": true,
          "internalType": "address",
          "name": "priceOracle",
          "type": "address"
        }
      ],
      "name": "VaultPriceOracleChanged",
      "type": "event"
    },
    {
      "inputs": [],
      "name": "acceptGovernance",
      "outputs": [],
      "stateMutability": "nonpayable",
      "type": "function"
    },
    {
      "inputs": [],
      "name": "batchPriceOracle",
      "outputs": [
        {
          "internalType": "contract IUSDBatchPriceOracle",
          "name": "",
          "type": "address"
        }
      ],
      "stateMutability": "view",
      "type": "function"
    },
    {
      "inputs": [
        {
          "internalType": "address",
          "name": "newGovernor",
          "type": "address"
        }
      ],
      "name": "changeGovernor",
      "outputs": [],
      "stateMutability": "nonpayable",
      "type": "function"
    },
    {
      "inputs": [
        {
          "components": [
            {
              "internalType": "address",
              "name": "vault",
              "type": "address"
            },
            {
              "internalType": "uint8",
              "name": "decimals",
              "type": "uint8"
            },
            {
              "internalType": "address",
              "name": "underlying",
              "type": "address"
            },
            {
              "internalType": "uint256",
              "name": "price",
              "type": "uint256"
            },
            {
              "components": [
                {
                  "internalType": "uint256",
                  "name": "initialPrice",
                  "type": "uint256"
                },
                {
                  "internalType": "uint256",
                  "name": "initialWeight",
                  "type": "uint256"
                },
                {
                  "internalType": "uint256",
                  "name": "shortFlowMemory",
                  "type": "uint256"
                },
                {
                  "internalType": "uint256",
                  "name": "shortFlowThreshold",
                  "type": "uint256"
                }
              ],
              "internalType": "struct DataTypes.PersistedVaultMetadata",
              "name": "persistedMetadata",
              "type": "tuple"
            },
            {
              "internalType": "uint256",
              "name": "reserveBalance",
              "type": "uint256"
            },
            {
              "internalType": "uint256",
              "name": "currentWeight",
              "type": "uint256"
            },
            {
              "internalType": "uint256",
              "name": "idealWeight",
              "type": "uint256"
            },
            {
              "components": [
                {
                  "internalType": "address",
                  "name": "tokenAddress",
                  "type": "address"
                },
                {
                  "internalType": "bool",
                  "name": "isStable",
                  "type": "bool"
                },
                {
                  "internalType": "uint256",
                  "name": "price",
                  "type": "uint256"
                }
              ],
              "internalType": "struct DataTypes.PricedToken[]",
              "name": "pricedTokens",
              "type": "tuple[]"
            }
          ],
          "internalType": "struct DataTypes.VaultInfo[]",
          "name": "vaultsInfo",
          "type": "tuple[]"
        }
      ],
      "name": "constructTokensArray",
      "outputs": [
        {
          "internalType": "address[]",
          "name": "",
          "type": "address[]"
        }
      ],
      "stateMutability": "view",
      "type": "function"
    },
    {
      "inputs": [
        {
          "components": [
            {
              "internalType": "address",
              "name": "vault",
              "type": "address"
            },
            {
              "internalType": "uint8",
              "name": "decimals",
              "type": "uint8"
            },
            {
              "internalType": "address",
              "name": "underlying",
              "type": "address"
            },
            {
              "internalType": "uint256",
              "name": "price",
              "type": "uint256"
            },
            {
              "components": [
                {
                  "internalType": "uint256",
                  "name": "initialPrice",
                  "type": "uint256"
                },
                {
                  "internalType": "uint256",
                  "name": "initialWeight",
                  "type": "uint256"
                },
                {
                  "internalType": "uint256",
                  "name": "shortFlowMemory",
                  "type": "uint256"
                },
                {
                  "internalType": "uint256",
                  "name": "shortFlowThreshold",
                  "type": "uint256"
                }
              ],
              "internalType": "struct DataTypes.PersistedVaultMetadata",
              "name": "persistedMetadata",
              "type": "tuple"
            },
            {
              "internalType": "uint256",
              "name": "reserveBalance",
              "type": "uint256"
            },
            {
              "internalType": "uint256",
              "name": "currentWeight",
              "type": "uint256"
            },
            {
              "internalType": "uint256",
              "name": "idealWeight",
              "type": "uint256"
            },
            {
              "components": [
                {
                  "internalType": "address",
                  "name": "tokenAddress",
                  "type": "address"
                },
                {
                  "internalType": "bool",
                  "name": "isStable",
                  "type": "bool"
                },
                {
                  "internalType": "uint256",
                  "name": "price",
                  "type": "uint256"
                }
              ],
              "internalType": "struct DataTypes.PricedToken[]",
              "name": "pricedTokens",
              "type": "tuple[]"
            }
          ],
          "internalType": "struct DataTypes.VaultInfo[]",
          "name": "vaultsInfo",
          "type": "tuple[]"
        }
      ],
      "name": "fetchPricesUSD",
      "outputs": [
        {
          "components": [
            {
              "internalType": "address",
              "name": "vault",
              "type": "address"
            },
            {
              "internalType": "uint8",
              "name": "decimals",
              "type": "uint8"
            },
            {
              "internalType": "address",
              "name": "underlying",
              "type": "address"
            },
            {
              "internalType": "uint256",
              "name": "price",
              "type": "uint256"
            },
            {
              "components": [
                {
                  "internalType": "uint256",
                  "name": "initialPrice",
                  "type": "uint256"
                },
                {
                  "internalType": "uint256",
                  "name": "initialWeight",
                  "type": "uint256"
                },
                {
                  "internalType": "uint256",
                  "name": "shortFlowMemory",
                  "type": "uint256"
                },
                {
                  "internalType": "uint256",
                  "name": "shortFlowThreshold",
                  "type": "uint256"
                }
              ],
              "internalType": "struct DataTypes.PersistedVaultMetadata",
              "name": "persistedMetadata",
              "type": "tuple"
            },
            {
              "internalType": "uint256",
              "name": "reserveBalance",
              "type": "uint256"
            },
            {
              "internalType": "uint256",
              "name": "currentWeight",
              "type": "uint256"
            },
            {
              "internalType": "uint256",
              "name": "idealWeight",
              "type": "uint256"
            },
            {
              "components": [
                {
                  "internalType": "address",
                  "name": "tokenAddress",
                  "type": "address"
                },
                {
                  "internalType": "bool",
                  "name": "isStable",
                  "type": "bool"
                },
                {
                  "internalType": "uint256",
                  "name": "price",
                  "type": "uint256"
                }
              ],
              "internalType": "struct DataTypes.PricedToken[]",
              "name": "pricedTokens",
              "type": "tuple[]"
            }
          ],
          "internalType": "struct DataTypes.VaultInfo[]",
          "name": "",
          "type": "tuple[]"
        }
      ],
      "stateMutability": "view",
      "type": "function"
    },
    {
      "inputs": [],
      "name": "governor",
      "outputs": [
        {
          "internalType": "address",
          "name": "",
          "type": "address"
        }
      ],
      "stateMutability": "view",
      "type": "function"
    },
    {
      "inputs": [],
      "name": "pendingGovernor",
      "outputs": [
        {
          "internalType": "address",
          "name": "",
          "type": "address"
        }
      ],
      "stateMutability": "view",
      "type": "function"
    },
    {
      "inputs": [
        {
          "internalType": "enum Vaults.Type",
          "name": "vaultType",
          "type": "uint8"
        },
        {
          "internalType": "contract IVaultPriceOracle",
          "name": "priceOracle",
          "type": "address"
        }
      ],
      "name": "registerVaultPriceOracle",
      "outputs": [],
      "stateMutability": "nonpayable",
      "type": "function"
    },
    {
      "inputs": [
        {
          "internalType": "contract IUSDBatchPriceOracle",
          "name": "priceOracle",
          "type": "address"
        }
      ],
      "name": "setBatchPriceOracle",
      "outputs": [],
      "stateMutability": "nonpayable",
      "type": "function"
    },
    {
      "inputs": [
        {
          "internalType": "enum Vaults.Type",
          "name": "",
          "type": "uint8"
        }
      ],
      "name": "vaultPriceOracles",
      "outputs": [
        {
          "internalType": "contract IVaultPriceOracle",
          "name": "",
          "type": "address"
        }
      ],
      "stateMutability": "view",
      "type": "function"
    }
  ],
  "bytecode": {
    "object": "0x60806040523480156200001157600080fd5b506040516200172a3803806200172a833981016040819052620000349162000122565b600080546001600160a01b0319166001600160a01b03841690811782556040805192835260208301919091528391839183917fde4b3f61490b74c0ed6237523974fe299126bbbf8a8a7482fd220104c59b0c84910160405180910390a150604080518082019091526002815261333160f01b60208201526001600160a01b038216620000de5760405162461bcd60e51b8152600401620000d5919062000161565b60405180910390fd5b50600280546001600160a01b0319166001600160a01b039290921691909117905550620001b1915050565b6001600160a01b03811681146200011f57600080fd5b50565b600080604083850312156200013657600080fd5b8251620001438162000109565b6020840151909250620001568162000109565b809150509250929050565b600060208083528351808285015260005b81811015620001905785810183015185820160400152820162000172565b506000604082860101526040601f19601f8301168501019250505092915050565b61156980620001c16000396000f3fe608060405234801561001057600080fd5b506004361061009e5760003560e01c8063cc8ce65211610066578063cc8ce65214610123578063ccda1ef714610136578063d089a0e714610156578063e3056a341461017f578063e4c0aaf41461019257600080fd5b80630c340a24146100a3578063238efcbc146100d35780636c9e3c60146100dd5780639ca12cda146100fd578063ad3390c014610110575b600080fd5b6000546100b6906001600160a01b031681565b6040516001600160a01b0390911681526020015b60405180910390f35b6100db6101a5565b005b6100f06100eb366004610f2c565b61025e565b6040516100ca9190611089565b6100db61010b3660046110e3565b61026f565b6002546100b6906001600160a01b031681565b6100db61013136600461111c565b610348565b610149610144366004610f2c565b6103d8565b6040516100ca919061119c565b6100b661016436600461129c565b6003602052600090815260409020546001600160a01b031681565b6001546100b6906001600160a01b031681565b6100db6101a036600461111c565b6104f0565b600154604080518082019091526002815261033360f41b6020820152906001600160a01b031633146101f35760405162461bcd60e51b81526004016101ea91906112b9565b60405180910390fd5b5060008054600180546001600160a01b03198084166001600160a01b03808416919091179095551690556040805192909116808352336020840152917fde4b3f61490b74c0ed6237523974fe299126bbbf8a8a7482fd220104c59b0c8491015b60405180910390a150565b6060610269826105c5565b92915050565b600054604080518082019091526002815261033360f41b6020820152906001600160a01b031633146102b45760405162461bcd60e51b81526004016101ea91906112b9565b5080600360008460048111156102cc576102cc611307565b60048111156102dd576102dd611307565b8152602081019190915260400160002080546001600160a01b0319166001600160a01b03928316179055811682600481111561031b5761031b611307565b6040517fd992eaec24a9c32398c97bf68d6b13420cfa61ab8a600800cdd1c760d1fc786190600090a35050565b600054604080518082019091526002815261033360f41b6020820152906001600160a01b0316331461038d5760405162461bcd60e51b81526004016101ea91906112b9565b50600280546001600160a01b0319166001600160a01b0383169081179091556040517f6a307a24f425432e870b96f8281754586de703b1ea0ed2d883134333b3a3bdf190600090a250565b606060006103e5836105c5565b600254604051632af3128360e01b81529192506000916001600160a01b0390911690632af312839061041b908590600401611089565b600060405180830381865afa158015610438573d6000803e3d6000fd5b505050506040513d6000823e601f3d908101601f19168201604052610460919081019061131d565b905060005b84518110156104e757610492858281518110610483576104836113ae565b60200260200101518484610745565b6104b48582815181106104a7576104a76113ae565b6020026020010151610817565b8582815181106104c6576104c66113ae565b602090810291909101015160600152806104df816113da565b915050610465565b50929392505050565b600054604080518082019091526002815261033360f41b6020820152906001600160a01b031633146105355760405162461bcd60e51b81526004016101ea91906112b9565b50604080518082019091526002815261333160f01b60208201526001600160a01b0382166105765760405162461bcd60e51b81526004016101ea91906112b9565b50600180546001600160a01b0319166001600160a01b0383169081179091556040519081527f67235ba2e63c748a35b95c4f92a3bbc2a1389938170a5ce6c9add5d0b03a314a90602001610253565b60606000805b8351811015610613578381815181106105e6576105e66113ae565b6020026020010151610100015151826105ff91906113f3565b91508061060b816113da565b9150506105cb565b5060008167ffffffffffffffff81111561062f5761062f610d24565b604051908082528060200260200182016040528015610658578160200160208202803683370190505b5090506000805b855182101561072a5760005b86838151811061067d5761067d6113ae565b6020026020010151610100015151811015610717578683815181106106a4576106a46113ae565b6020026020010151610100015181815181106106c2576106c26113ae565b6020026020010151600001518483815181106106e0576106e06113ae565b6001600160a01b039092166020928302919091019091015280610702816113da565b91508261070e816113da565b9350505061066b565b5081610722816113da565b92505061065f565b505061073d61073882610977565b6109a3565b949350505050565b6000805b84610100015151821015610810575b846101000151828151811061076f5761076f6113ae565b6020026020010151600001516001600160a01b0316848281518110610796576107966113ae565b60200260200101516001600160a01b0316146107be57806107b6816113da565b915050610758565b8281815181106107d0576107d06113ae565b602002602001015185610100015183815181106107ef576107ef6113ae565b60209081029190910101516040015281610808816113da565b925050610749565b5050505050565b60008082600001519050600060036000836001600160a01b0316634ac032be6040518163ffffffff1660e01b8152600401602060405180830381865afa158015610865573d6000803e3d6000fd5b505050506040513d601f19601f820116820180604052508101906108899190611406565b600481111561089a5761089a611307565b60048111156108ab576108ab611307565b815260208082019290925260409081016000205481518083019092526002825261034360f41b928201929092526001600160a01b039091169150816109035760405162461bcd60e51b81526004016101ea91906112b9565b506101008401516040516305bdd97f60e51b81526001600160a01b0383169163b7bb2fe091610936918691600401611423565b602060405180830381865afa158015610953573d6000803e3d6000fd5b505050506040513d601f19601f8201168201806040525081019061073d9190611447565b60608151600003610986575090565b61099f8260006001855161099a9190611460565b610b75565b5090565b6060600060015b8351811015610a2a578381815181106109c5576109c56113ae565b60200260200101516001600160a01b0316846001836109e49190611460565b815181106109f4576109f46113ae565b60200260200101516001600160a01b031603610a185781610a14816113da565b9250505b80610a22816113da565b9150506109aa565b5080600003610a3a575090919050565b6000818451610a499190611460565b67ffffffffffffffff811115610a6157610a61610d24565b604051908082528060200260200182016040528015610a8a578160200160208202803683370190505b5090506000805b8551821015610b6b5760018651610aa89190611460565b82108015610b03575085610abd8360016113f3565b81518110610acd57610acd6113ae565b60200260200101516001600160a01b0316868381518110610af057610af06113ae565b60200260200101516001600160a01b0316145b610b5957858281518110610b1957610b196113ae565b6020026020010151838281518110610b3357610b336113ae565b6001600160a01b039092166020928302919091019091015280610b55816113da565b9150505b81610b63816113da565b925050610a91565b5090949350505050565b8181808203610b85575050505050565b6000856002610b948787611473565b610b9e919061149a565b610ba890876114d6565b81518110610bb857610bb86113ae565b602002602001015190505b818313610cf6575b806001600160a01b0316868481518110610be757610be76113ae565b60200260200101516001600160a01b03161015610c105782610c08816114fe565b935050610bcb565b858281518110610c2257610c226113ae565b60200260200101516001600160a01b0316816001600160a01b03161015610c555781610c4d81611516565b925050610c10565b818313610cf157858281518110610c6e57610c6e6113ae565b6020026020010151868481518110610c8857610c886113ae565b6020026020010151878581518110610ca257610ca26113ae565b60200260200101888581518110610cbb57610cbb6113ae565b6001600160a01b0393841660209182029290920101529116905282610cdf816114fe565b9350508180610ced90611516565b9250505b610bc3565b81851215610d0957610d09868684610b75565b83831215610d1c57610d1c868486610b75565b505050505050565b634e487b7160e01b600052604160045260246000fd5b6040516060810167ffffffffffffffff81118282101715610d5d57610d5d610d24565b60405290565b604051610120810167ffffffffffffffff81118282101715610d5d57610d5d610d24565b604051601f8201601f1916810167ffffffffffffffff81118282101715610db057610db0610d24565b604052919050565b600067ffffffffffffffff821115610dd257610dd2610d24565b5060051b60200190565b6001600160a01b0381168114610df157600080fd5b50565b8035610dff81610ddc565b919050565b803560ff81168114610dff57600080fd5b600060808284031215610e2757600080fd5b6040516080810181811067ffffffffffffffff82111715610e4a57610e4a610d24565b8060405250809150823581526020830135602082015260408301356040820152606083013560608201525092915050565b600082601f830112610e8c57600080fd5b81356020610ea1610e9c83610db8565b610d87565b82815260609283028501820192828201919087851115610ec057600080fd5b8387015b85811015610f1f5781818a031215610edc5760008081fd5b610ee4610d3a565b8135610eef81610ddc565b8152818601358015158114610f045760008081fd5b81870152604082810135908201528452928401928101610ec4565b5090979650505050505050565b60006020808385031215610f3f57600080fd5b823567ffffffffffffffff80821115610f5757600080fd5b818501915085601f830112610f6b57600080fd5b8135610f79610e9c82610db8565b81815260059190911b83018401908481019088831115610f9857600080fd5b8585015b8381101561107c57803585811115610fb45760008081fd5b8601610180818c03601f1901811315610fcd5760008081fd5b610fd5610d63565b610fe08a8401610df4565b81526040610fef818501610e04565b8b8301526060611000818601610df4565b828401526080915081850135818401525060a061101f8f828701610e15565b8284015261012085013581840152505061014083013560c082015261016083013560e0820152818301359150878211156110595760008081fd5b6110678d8b84860101610e7b565b61010082015285525050918601918601610f9c565b5098975050505050505050565b6020808252825182820181905260009190848201906040850190845b818110156110ca5783516001600160a01b0316835292840192918401916001016110a5565b50909695505050505050565b60058110610df157600080fd5b600080604083850312156110f657600080fd5b8235611101816110d6565b9150602083013561111181610ddc565b809150509250929050565b60006020828403121561112e57600080fd5b813561113981610ddc565b9392505050565b600081518084526020808501945080840160005b8381101561119157815180516001600160a01b03168852838101511515848901526040908101519088015260609096019590820190600101611154565b509495945050505050565b60006020808301818452808551808352604092508286019150828160051b87010184880160005b8381101561128e57888303603f19018552815180516001600160a01b031684526101808189015160ff8116868b015250818801516001600160a01b038116868a01525060608281015186820152608080840151805182890152602081015160a0890152604081015160c08901529182015160e088015290505060a0820151610100818188015260c084015161012088015260e084015161014088015280840151935050508061016086015261127a81860183611140565b9689019694505050908601906001016111c3565b509098975050505050505050565b6000602082840312156112ae57600080fd5b8135611139816110d6565b600060208083528351808285015260005b818110156112e6578581018301518582016040015282016112ca565b506000604082860101526040601f19601f8301168501019250505092915050565b634e487b7160e01b600052602160045260246000fd5b6000602080838503121561133057600080fd5b825167ffffffffffffffff81111561134757600080fd5b8301601f8101851361135857600080fd5b8051611366610e9c82610db8565b81815260059190911b8201830190838101908783111561138557600080fd5b928401925b828410156113a35783518252928401929084019061138a565b979650505050505050565b634e487b7160e01b600052603260045260246000fd5b634e487b7160e01b600052601160045260246000fd5b6000600182016113ec576113ec6113c4565b5060010190565b80820180821115610269576102696113c4565b60006020828403121561141857600080fd5b8151611139816110d6565b6001600160a01b038316815260406020820181905260009061073d90830184611140565b60006020828403121561145957600080fd5b5051919050565b81810381811115610269576102696113c4565b8181036000831280158383131683831282161715611493576114936113c4565b5092915050565b6000826114b757634e487b7160e01b600052601260045260246000fd5b600160ff1b8214600019841416156114d1576114d16113c4565b500590565b80820182811260008312801582168215821617156114f6576114f66113c4565b505092915050565b60006001600160ff1b0182016113ec576113ec6113c4565b6000600160ff1b820161152b5761152b6113c4565b50600019019056fea264697066735822122001ec6f5dcd48aa69023393d9b59042ab8fc088d90cf28b15c75801d75e48bdfa64736f6c63430008110033",
    "linkReferences": {}
  },
  "methodIdentifiers": {
    "acceptGovernance()": "238efcbc",
    "batchPriceOracle()": "ad3390c0",
    "changeGovernor(address)": "e4c0aaf4",
    "constructTokensArray((address,uint8,address,uint256,(uint256,uint256,uint256,uint256),uint256,uint256,uint256,(address,bool,uint256)[])[])": "6c9e3c60",
    "fetchPricesUSD((address,uint8,address,uint256,(uint256,uint256,uint256,uint256),uint256,uint256,uint256,(address,bool,uint256)[])[])": "ccda1ef7",
    "governor()": "0c340a24",
    "pendingGovernor()": "e3056a34",
    "registerVaultPriceOracle(uint8,address)": "9ca12cda",
    "setBatchPriceOracle(address)": "cc8ce652",
    "vaultPriceOracles(uint8)": "d089a0e7"
  },
  "id": 42
}