{
  "abi": [
    {
      "inputs": [
        {
          "internalType": "address",
          "name": "_governor",
          "type": "address"
        },
        {
          "internalType": "contract IGyroConfig",
          "name": "_gyroConfig",
          "type": "address"
        }
      ],
      "stateMutability": "nonpayable",
      "type": "constructor"
    },
    {
      "anonymous": false,
      "inputs": [
        {
          "indexed": true,
          "internalType": "address",
          "name": "check",
          "type": "address"
        }
      ],
      "name": "CheckAdded",
      "type": "event"
    },
    {
      "anonymous": false,
      "inputs": [
        {
          "indexed": true,
          "internalType": "address",
          "name": "check",
          "type": "address"
        }
      ],
      "name": "CheckRemoved",
      "type": "event"
    },
    {
      "anonymous": false,
      "inputs": [
        {
          "indexed": false,
          "internalType": "address",
          "name": "newGovernor",
          "type": "address"
        }
      ],
      "name": "GovernorChangeRequested",
      "type": "event"
    },
    {
      "anonymous": false,
      "inputs": [
        {
          "indexed": false,
          "internalType": "address",
          "name": "oldGovernor",
          "type": "address"
        },
        {
          "indexed": false,
          "internalType": "address",
          "name": "newGovernor",
          "type": "address"
        }
      ],
      "name": "GovernorChanged",
      "type": "event"
    },
    {
      "inputs": [],
      "name": "acceptGovernance",
      "outputs": [],
      "stateMutability": "nonpayable",
      "type": "function"
    },
    {
      "inputs": [
        {
          "internalType": "address",
          "name": "check",
          "type": "address"
        }
      ],
      "name": "addCheck",
      "outputs": [],
      "stateMutability": "nonpayable",
      "type": "function"
    },
    {
      "inputs": [
        {
          "internalType": "address",
          "name": "newGovernor",
          "type": "address"
        }
      ],
      "name": "changeGovernor",
      "outputs": [],
      "stateMutability": "nonpayable",
      "type": "function"
    },
    {
      "inputs": [
        {
          "components": [
            {
              "components": [
                {
                  "components": [
                    {
                      "internalType": "address",
                      "name": "vault",
                      "type": "address"
                    },
                    {
                      "internalType": "uint8",
                      "name": "decimals",
                      "type": "uint8"
                    },
                    {
                      "internalType": "address",
                      "name": "underlying",
                      "type": "address"
                    },
                    {
                      "internalType": "uint256",
                      "name": "price",
                      "type": "uint256"
                    },
                    {
                      "components": [
                        {
                          "internalType": "uint256",
                          "name": "initialPrice",
                          "type": "uint256"
                        },
                        {
                          "internalType": "uint256",
                          "name": "initialWeight",
                          "type": "uint256"
                        },
                        {
                          "internalType": "uint256",
                          "name": "shortFlowMemory",
                          "type": "uint256"
                        },
                        {
                          "internalType": "uint256",
                          "name": "shortFlowThreshold",
                          "type": "uint256"
                        }
                      ],
                      "internalType": "struct DataTypes.PersistedVaultMetadata",
                      "name": "persistedMetadata",
                      "type": "tuple"
                    },
                    {
                      "internalType": "uint256",
                      "name": "reserveBalance",
                      "type": "uint256"
                    },
                    {
                      "internalType": "uint256",
                      "name": "currentWeight",
                      "type": "uint256"
                    },
                    {
                      "internalType": "uint256",
                      "name": "idealWeight",
                      "type": "uint256"
                    },
                    {
                      "components": [
                        {
                          "internalType": "address",
                          "name": "tokenAddress",
                          "type": "address"
                        },
                        {
                          "internalType": "bool",
                          "name": "isStable",
                          "type": "bool"
                        },
                        {
                          "internalType": "uint256",
                          "name": "price",
                          "type": "uint256"
                        }
                      ],
                      "internalType": "struct DataTypes.PricedToken[]",
                      "name": "pricedTokens",
                      "type": "tuple[]"
                    }
                  ],
                  "internalType": "struct DataTypes.VaultInfo",
                  "name": "vaultInfo",
                  "type": "tuple"
                },
                {
                  "internalType": "uint256",
                  "name": "amount",
                  "type": "uint256"
                }
              ],
              "internalType": "struct DataTypes.VaultWithAmount[]",
              "name": "vaultsWithAmount",
              "type": "tuple[]"
            },
            {
              "internalType": "bool",
              "name": "mint",
              "type": "bool"
            }
          ],
          "internalType": "struct DataTypes.Order",
          "name": "order",
          "type": "tuple"
        }
      ],
      "name": "checkAndPersistMint",
      "outputs": [],
      "stateMutability": "nonpayable",
      "type": "function"
    },
    {
      "inputs": [
        {
          "components": [
            {
              "components": [
                {
                  "components": [
                    {
                      "internalType": "address",
                      "name": "vault",
                      "type": "address"
                    },
                    {
                      "internalType": "uint8",
                      "name": "decimals",
                      "type": "uint8"
                    },
                    {
                      "internalType": "address",
                      "name": "underlying",
                      "type": "address"
                    },
                    {
                      "internalType": "uint256",
                      "name": "price",
                      "type": "uint256"
                    },
                    {
                      "components": [
                        {
                          "internalType": "uint256",
                          "name": "initialPrice",
                          "type": "uint256"
                        },
                        {
                          "internalType": "uint256",
                          "name": "initialWeight",
                          "type": "uint256"
                        },
                        {
                          "internalType": "uint256",
                          "name": "shortFlowMemory",
                          "type": "uint256"
                        },
                        {
                          "internalType": "uint256",
                          "name": "shortFlowThreshold",
                          "type": "uint256"
                        }
                      ],
                      "internalType": "struct DataTypes.PersistedVaultMetadata",
                      "name": "persistedMetadata",
                      "type": "tuple"
                    },
                    {
                      "internalType": "uint256",
                      "name": "reserveBalance",
                      "type": "uint256"
                    },
                    {
                      "internalType": "uint256",
                      "name": "currentWeight",
                      "type": "uint256"
                    },
                    {
                      "internalType": "uint256",
                      "name": "idealWeight",
                      "type": "uint256"
                    },
                    {
                      "components": [
                        {
                          "internalType": "address",
                          "name": "tokenAddress",
                          "type": "address"
                        },
                        {
                          "internalType": "bool",
                          "name": "isStable",
                          "type": "bool"
                        },
                        {
                          "internalType": "uint256",
                          "name": "price",
                          "type": "uint256"
                        }
                      ],
                      "internalType": "struct DataTypes.PricedToken[]",
                      "name": "pricedTokens",
                      "type": "tuple[]"
                    }
                  ],
                  "internalType": "struct DataTypes.VaultInfo",
                  "name": "vaultInfo",
                  "type": "tuple"
                },
                {
                  "internalType": "uint256",
                  "name": "amount",
                  "type": "uint256"
                }
              ],
              "internalType": "struct DataTypes.VaultWithAmount[]",
              "name": "vaultsWithAmount",
              "type": "tuple[]"
            },
            {
              "internalType": "bool",
              "name": "mint",
              "type": "bool"
            }
          ],
          "internalType": "struct DataTypes.Order",
          "name": "order",
          "type": "tuple"
        }
      ],
      "name": "checkAndPersistRedeem",
      "outputs": [],
      "stateMutability": "nonpayable",
      "type": "function"
    },
    {
      "inputs": [],
      "name": "getChecks",
      "outputs": [
        {
          "internalType": "address[]",
          "name": "",
          "type": "address[]"
        }
      ],
      "stateMutability": "view",
      "type": "function"
    },
    {
      "inputs": [],
      "name": "governor",
      "outputs": [
        {
          "internalType": "address",
          "name": "",
          "type": "address"
        }
      ],
      "stateMutability": "view",
      "type": "function"
    },
    {
      "inputs": [],
      "name": "gyroConfig",
      "outputs": [
        {
          "internalType": "contract IGyroConfig",
          "name": "",
          "type": "address"
        }
      ],
      "stateMutability": "view",
      "type": "function"
    },
    {
      "inputs": [
        {
          "components": [
            {
              "components": [
                {
                  "components": [
                    {
                      "internalType": "address",
                      "name": "vault",
                      "type": "address"
                    },
                    {
                      "internalType": "uint8",
                      "name": "decimals",
                      "type": "uint8"
                    },
                    {
                      "internalType": "address",
                      "name": "underlying",
                      "type": "address"
                    },
                    {
                      "internalType": "uint256",
                      "name": "price",
                      "type": "uint256"
                    },
                    {
                      "components": [
                        {
                          "internalType": "uint256",
                          "name": "initialPrice",
                          "type": "uint256"
                        },
                        {
                          "internalType": "uint256",
                          "name": "initialWeight",
                          "type": "uint256"
                        },
                        {
                          "internalType": "uint256",
                          "name": "shortFlowMemory",
                          "type": "uint256"
                        },
                        {
                          "internalType": "uint256",
                          "name": "shortFlowThreshold",
                          "type": "uint256"
                        }
                      ],
                      "internalType": "struct DataTypes.PersistedVaultMetadata",
                      "name": "persistedMetadata",
                      "type": "tuple"
                    },
                    {
                      "internalType": "uint256",
                      "name": "reserveBalance",
                      "type": "uint256"
                    },
                    {
                      "internalType": "uint256",
                      "name": "currentWeight",
                      "type": "uint256"
                    },
                    {
                      "internalType": "uint256",
                      "name": "idealWeight",
                      "type": "uint256"
                    },
                    {
                      "components": [
                        {
                          "internalType": "address",
                          "name": "tokenAddress",
                          "type": "address"
                        },
                        {
                          "internalType": "bool",
                          "name": "isStable",
                          "type": "bool"
                        },
                        {
                          "internalType": "uint256",
                          "name": "price",
                          "type": "uint256"
                        }
                      ],
                      "internalType": "struct DataTypes.PricedToken[]",
                      "name": "pricedTokens",
                      "type": "tuple[]"
                    }
                  ],
                  "internalType": "struct DataTypes.VaultInfo",
                  "name": "vaultInfo",
                  "type": "tuple"
                },
                {
                  "internalType": "uint256",
                  "name": "amount",
                  "type": "uint256"
                }
              ],
              "internalType": "struct DataTypes.VaultWithAmount[]",
              "name": "vaultsWithAmount",
              "type": "tuple[]"
            },
            {
              "internalType": "bool",
              "name": "mint",
              "type": "bool"
            }
          ],
          "internalType": "struct DataTypes.Order",
          "name": "order",
          "type": "tuple"
        }
      ],
      "name": "isMintSafe",
      "outputs": [
        {
          "internalType": "string",
          "name": "err",
          "type": "string"
        }
      ],
      "stateMutability": "view",
      "type": "function"
    },
    {
      "inputs": [
        {
          "components": [
            {
              "components": [
                {
                  "components": [
                    {
                      "internalType": "address",
                      "name": "vault",
                      "type": "address"
                    },
                    {
                      "internalType": "uint8",
                      "name": "decimals",
                      "type": "uint8"
                    },
                    {
                      "internalType": "address",
                      "name": "underlying",
                      "type": "address"
                    },
                    {
                      "internalType": "uint256",
                      "name": "price",
                      "type": "uint256"
                    },
                    {
                      "components": [
                        {
                          "internalType": "uint256",
                          "name": "initialPrice",
                          "type": "uint256"
                        },
                        {
                          "internalType": "uint256",
                          "name": "initialWeight",
                          "type": "uint256"
                        },
                        {
                          "internalType": "uint256",
                          "name": "shortFlowMemory",
                          "type": "uint256"
                        },
                        {
                          "internalType": "uint256",
                          "name": "shortFlowThreshold",
                          "type": "uint256"
                        }
                      ],
                      "internalType": "struct DataTypes.PersistedVaultMetadata",
                      "name": "persistedMetadata",
                      "type": "tuple"
                    },
                    {
                      "internalType": "uint256",
                      "name": "reserveBalance",
                      "type": "uint256"
                    },
                    {
                      "internalType": "uint256",
                      "name": "currentWeight",
                      "type": "uint256"
                    },
                    {
                      "internalType": "uint256",
                      "name": "idealWeight",
                      "type": "uint256"
                    },
                    {
                      "components": [
                        {
                          "internalType": "address",
                          "name": "tokenAddress",
                          "type": "address"
                        },
                        {
                          "internalType": "bool",
                          "name": "isStable",
                          "type": "bool"
                        },
                        {
                          "internalType": "uint256",
                          "name": "price",
                          "type": "uint256"
                        }
                      ],
                      "internalType": "struct DataTypes.PricedToken[]",
                      "name": "pricedTokens",
                      "type": "tuple[]"
                    }
                  ],
                  "internalType": "struct DataTypes.VaultInfo",
                  "name": "vaultInfo",
                  "type": "tuple"
                },
                {
                  "internalType": "uint256",
                  "name": "amount",
                  "type": "uint256"
                }
              ],
              "internalType": "struct DataTypes.VaultWithAmount[]",
              "name": "vaultsWithAmount",
              "type": "tuple[]"
            },
            {
              "internalType": "bool",
              "name": "mint",
              "type": "bool"
            }
          ],
          "internalType": "struct DataTypes.Order",
          "name": "order",
          "type": "tuple"
        }
      ],
      "name": "isRedeemSafe",
      "outputs": [
        {
          "internalType": "string",
          "name": "err",
          "type": "string"
        }
      ],
      "stateMutability": "view",
      "type": "function"
    },
    {
      "inputs": [],
      "name": "pendingGovernor",
      "outputs": [
        {
          "internalType": "address",
          "name": "",
          "type": "address"
        }
      ],
      "stateMutability": "view",
      "type": "function"
    },
    {
      "inputs": [
        {
          "internalType": "address",
          "name": "check",
          "type": "address"
        }
      ],
      "name": "removeCheck",
      "outputs": [],
      "stateMutability": "nonpayable",
      "type": "function"
    }
  ],
  "bytecode": {
    "object": "0x60a06040523480156200001157600080fd5b50604051620014f5380380620014f5833981016040819052620000349162000107565b600080546001600160a01b0319166001600160a01b038416908117825560408051928352602083019190915283917fde4b3f61490b74c0ed6237523974fe299126bbbf8a8a7482fd220104c59b0c84910160405180910390a150604080518082019091526002815261333160f01b60208201526001600160a01b038216620000da5760405162461bcd60e51b8152600401620000d1919062000146565b60405180910390fd5b506001600160a01b03166080525062000196565b6001600160a01b03811681146200010457600080fd5b50565b600080604083850312156200011b57600080fd5b82516200012881620000ee565b60208401519092506200013b81620000ee565b809150509250929050565b600060208083528351808285015260005b81811015620001755785810183015185820160400152820162000157565b506000604082860101526040601f19601f8301168501019250505092915050565b608051611335620001c06000396000818161010b015281816104e101526105fa01526113356000f3fe608060405234801561001057600080fd5b50600436106100b45760003560e01c806368b23e521161007157806368b23e5214610162578063a076382014610175578063d625436c14610188578063e2cc86791461019b578063e3056a34146101ae578063e4c0aaf4146101c157600080fd5b80630c340a24146100b9578063238efcbc146100e95780633d4d10e2146100f357806344bbdb55146101065780634d9a12c41461012d5780636382b29614610142575b600080fd5b6000546100cc906001600160a01b031681565b6040516001600160a01b0390911681526020015b60405180910390f35b6100f16101d4565b005b6100f1610101366004610b9e565b61028d565b6100cc7f000000000000000000000000000000000000000000000000000000000000000081565b61013561034f565b6040516100e09190610bc2565b610155610150366004610e1a565b610360565b6040516100e0919061102a565b6100f1610170366004610b9e565b61041a565b6100f1610183366004610e1a565b6104dc565b6100f1610196366004610e1a565b6105f5565b6101556101a9366004610e1a565b610709565b6001546100cc906001600160a01b031681565b6100f16101cf366004610b9e565b6107bc565b600154604080518082019091526002815261033360f41b6020820152906001600160a01b031633146102225760405162461bcd60e51b8152600401610219919061102a565b60405180910390fd5b5060008054600180546001600160a01b03198084166001600160a01b03808416919091179095551690556040805192909116808352336020840152917fde4b3f61490b74c0ed6237523974fe299126bbbf8a8a7482fd220104c59b0c8491015b60405180910390a150565b600054604080518082019091526002815261033360f41b6020820152906001600160a01b031633146102d25760405162461bcd60e51b8152600401610219919061102a565b506102de600282610891565b60405180604001604052806002815260200161333160f01b815250906103175760405162461bcd60e51b8152600401610219919061102a565b506040516001600160a01b038216907f75ec3ef6c1afb45dd0a2bbb3a4f14cac03241c33fc24c352e25ea690e22a923290600090a250565b606061035b60026108af565b905090565b6060600061036e600261095e565b905060005b8181101561041357610386600282610968565b6001600160a01b0316636382b296856040518263ffffffff1660e01b81526004016103b191906110b9565b600060405180830381865afa1580156103ce573d6000803e3d6000fd5b505050506040513d6000823e601f3d908101601f191682016040526103f691908101906111e0565b92506000835111610413578061040b8161128a565b915050610373565b5050919050565b600054604080518082019091526002815261033360f41b6020820152906001600160a01b0316331461045f5760405162461bcd60e51b8152600401610219919061102a565b5061046b600282610974565b60405180604001604052806002815260200161333160f01b815250906104a45760405162461bcd60e51b8152600401610219919061102a565b506040516001600160a01b038216907fd37223475c04a60e97eb30bc3a38b4aef6a37def09d1ed6b88c881847362426d90600090a250565b61050e7f00000000000000000000000000000000000000000000000000000000000000006001600160a01b0316610989565b6001600160a01b0316336001600160a01b03161460405180604001604052806002815260200161033360f41b8152509061055b5760405162461bcd60e51b8152600401610219919061102a565b506000610568600261095e565b905060005b818110156105f057610580600282610968565b6001600160a01b031663a0763820846040518263ffffffff1660e01b81526004016105ab91906110b9565b600060405180830381600087803b1580156105c557600080fd5b505af11580156105d9573d6000803e3d6000fd5b5050505080806105e89061128a565b91505061056d565b505050565b6106277f00000000000000000000000000000000000000000000000000000000000000006001600160a01b0316610989565b6001600160a01b0316336001600160a01b03161460405180604001604052806002815260200161033360f41b815250906106745760405162461bcd60e51b8152600401610219919061102a565b506000610681600261095e565b905060005b818110156105f057610699600282610968565b6001600160a01b031663d625436c846040518263ffffffff1660e01b81526004016106c491906110b9565b600060405180830381600087803b1580156106de57600080fd5b505af11580156106f2573d6000803e3d6000fd5b5050505080806107019061128a565b915050610686565b60606000610717600261095e565b905060005b818110156104135761072f600282610968565b6001600160a01b031663e2cc8679856040518263ffffffff1660e01b815260040161075a91906110b9565b600060405180830381865afa158015610777573d6000803e3d6000fd5b505050506040513d6000823e601f3d908101601f1916820160405261079f91908101906111e0565b9250600083511161041357806107b48161128a565b91505061071c565b600054604080518082019091526002815261033360f41b6020820152906001600160a01b031633146108015760405162461bcd60e51b8152600401610219919061102a565b50604080518082019091526002815261333160f01b60208201526001600160a01b0382166108425760405162461bcd60e51b8152600401610219919061102a565b50600180546001600160a01b0319166001600160a01b0383169081179091556040519081527f67235ba2e63c748a35b95c4f92a3bbc2a1389938170a5ce6c9add5d0b03a314a90602001610282565b60006108a6836001600160a01b038416610a0a565b90505b92915050565b606060006108bc8361095e565b905060008167ffffffffffffffff8111156108d9576108d9610c0f565b604051908082528060200260200182016040528015610902578160200160208202803683370190505b50905060005b828110156109565761091a8582610968565b82828151811061092c5761092c6112a3565b6001600160a01b03909216602092830291909101909101528061094e8161128a565b915050610908565b509392505050565b60006108a9825490565b60006108a68383610a59565b60006108a6836001600160a01b038416610a83565b6040516321f8a72160e01b8152724d4f54484552424f4152445f4144445245535360681b60048201526000906001600160a01b038316906321f8a72190602401602060405180830381865afa1580156109e6573d6000803e3d6000fd5b505050506040513d601f19601f820116820180604052508101906108a991906112b9565b6000818152600183016020526040812054610a51575081546001818101845560008481526020808220909301849055845484825282860190935260409020919091556108a9565b5060006108a9565b6000826000018281548110610a7057610a706112a3565b9060005260206000200154905092915050565b60008181526001830160205260408120548015610b6c576000610aa76001836112d6565b8554909150600090610abb906001906112d6565b9050818114610b20576000866000018281548110610adb57610adb6112a3565b9060005260206000200154905080876000018481548110610afe57610afe6112a3565b6000918252602080832090910192909255918252600188019052604090208390555b8554869080610b3157610b316112e9565b6001900381819060005260206000200160009055905585600101600086815260200190815260200160002060009055600193505050506108a9565b60009150506108a9565b6001600160a01b0381168114610b8b57600080fd5b50565b8035610b9981610b76565b919050565b600060208284031215610bb057600080fd5b8135610bbb81610b76565b9392505050565b6020808252825182820181905260009190848201906040850190845b81811015610c035783516001600160a01b031683529284019291840191600101610bde565b50909695505050505050565b634e487b7160e01b600052604160045260246000fd5b6040516060810167ffffffffffffffff81118282101715610c4857610c48610c0f565b60405290565b6040805190810167ffffffffffffffff81118282101715610c4857610c48610c0f565b604051610120810167ffffffffffffffff81118282101715610c4857610c48610c0f565b604051601f8201601f1916810167ffffffffffffffff81118282101715610cbe57610cbe610c0f565b604052919050565b600067ffffffffffffffff821115610ce057610ce0610c0f565b5060051b60200190565b803560ff81168114610b9957600080fd5b600060808284031215610d0d57600080fd5b6040516080810181811067ffffffffffffffff82111715610d3057610d30610c0f565b8060405250809150823581526020830135602082015260408301356040820152606083013560608201525092915050565b80358015158114610b9957600080fd5b600082601f830112610d8257600080fd5b81356020610d97610d9283610cc6565b610c95565b82815260609283028501820192828201919087851115610db657600080fd5b8387015b85811015610e0d5781818a031215610dd25760008081fd5b610dda610c25565b8135610de581610b76565b8152610df2828701610d61565b81870152604082810135908201528452928401928101610dba565b5090979650505050505050565b600060208284031215610e2c57600080fd5b67ffffffffffffffff8083351115610e4357600080fd5b60408335840185031215610e5657600080fd5b610e5e610c4e565b8184358501351115610e6f57600080fd5b83358401803501601f81018613610e8557600080fd5b610e92610d928235610cc6565b81358082526020808301929160051b840101881015610eb057600080fd5b602083015b6020843560051b850101811015610fe4578581351115610ed457600080fd5b80358401601f196040828c0382011215610eed57600080fd5b610ef5610c4e565b8860208401351115610f0657600080fd5b6020830135830161018083828f03011215610f2057600080fd5b610f28610c71565b9250610f3660208201610b8e565b8352610f4460408201610cea565b6020840152610f5560608201610b8e565b604084015260808101356060840152610f718d60a08301610cfb565b608084015261012081013560a084015261014081013560c084015261016081013560e0840152896101808201351115610fa957600080fd5b610fbd8d6020610180840135840101610d71565b61010084015250908152604091909101356020808301919091529084529283019201610eb5565b50835250610ff9905084358501602001610d61565b6020820152949350505050565b60005b83811015611021578181015183820152602001611009565b50506000910152565b6020815260008251806020840152611049816040850160208701611006565b601f01601f19169190910160400192915050565b600081518084526020808501945080840160005b838110156110ae57815180516001600160a01b03168852838101511515848901526040908101519088015260609096019590820190600101611071565b509495945050505050565b600060208083526060808401855160408085880152828251808552608094508489019150848160051b8a0101878501945060005b828110156111c557607f198b83030184528551805186845280516001600160a01b03908116888601528b82015160ff168b8601528782015116898501528981015160a08086019190915289820151805160c080880191909152602082015160e08801526040820151610100880152606082015161012088015290918301516101408701528201516101608601525060e081015161018080860191909152610100909101516101a08501919091526111a86101c085018261105d565b918b0151938b0193909352958901959389019391506001016110ed565b50968a0151801515848b0152969a9950505050505050505050565b6000602082840312156111f257600080fd5b815167ffffffffffffffff8082111561120a57600080fd5b818401915084601f83011261121e57600080fd5b81518181111561123057611230610c0f565b611243601f8201601f1916602001610c95565b915080825285602082850101111561125a57600080fd5b61126b816020840160208601611006565b50949350505050565b634e487b7160e01b600052601160045260246000fd5b60006001820161129c5761129c611274565b5060010190565b634e487b7160e01b600052603260045260246000fd5b6000602082840312156112cb57600080fd5b8151610bbb81610b76565b818103818111156108a9576108a9611274565b634e487b7160e01b600052603160045260246000fdfea26469706673582212204035a15cd27e27537b8bb07e7eb84610506a46d157c36b59f01f7fccc27bf54e64736f6c63430008110033",
    "linkReferences": {}
  },
  "methodIdentifiers": {
    "acceptGovernance()": "238efcbc",
    "addCheck(address)": "3d4d10e2",
    "changeGovernor(address)": "e4c0aaf4",
    "checkAndPersistMint((((address,uint8,address,uint256,(uint256,uint256,uint256,uint256),uint256,uint256,uint256,(address,bool,uint256)[]),uint256)[],bool))": "d625436c",
    "checkAndPersistRedeem((((address,uint8,address,uint256,(uint256,uint256,uint256,uint256),uint256,uint256,uint256,(address,bool,uint256)[]),uint256)[],bool))": "a0763820",
    "getChecks()": "4d9a12c4",
    "governor()": "0c340a24",
    "gyroConfig()": "44bbdb55",
    "isMintSafe((((address,uint8,address,uint256,(uint256,uint256,uint256,uint256),uint256,uint256,uint256,(address,bool,uint256)[]),uint256)[],bool))": "e2cc8679",
    "isRedeemSafe((((address,uint8,address,uint256,(uint256,uint256,uint256,uint256),uint256,uint256,uint256,(address,bool,uint256)[]),uint256)[],bool))": "6382b296",
    "pendingGovernor()": "e3056a34",
    "removeCheck(address)": "68b23e52"
  },
  "id": 32
}