{
  "abi": [
    {
      "inputs": [
        {
          "internalType": "address",
          "name": "_logic",
          "type": "address"
        },
        {
          "internalType": "address",
          "name": "admin_",
          "type": "address"
        },
        {
          "internalType": "bytes",
          "name": "_data",
          "type": "bytes"
        }
      ],
      "stateMutability": "payable",
      "type": "constructor"
    },
    {
      "anonymous": false,
      "inputs": [
        {
          "indexed": false,
          "internalType": "address",
          "name": "previousAdmin",
          "type": "address"
        },
        {
          "indexed": false,
          "internalType": "address",
          "name": "newAdmin",
          "type": "address"
        }
      ],
      "name": "AdminChanged",
      "type": "event"
    },
    {
      "anonymous": false,
      "inputs": [
        {
          "indexed": true,
          "internalType": "address",
          "name": "beacon",
          "type": "address"
        }
      ],
      "name": "BeaconUpgraded",
      "type": "event"
    },
    {
      "anonymous": false,
      "inputs": [
        {
          "indexed": true,
          "internalType": "address",
          "name": "implementation",
          "type": "address"
        }
      ],
      "name": "Upgraded",
      "type": "event"
    },
    {
      "stateMutability": "payable",
      "type": "fallback"
    },
    {
      "inputs": [],
      "name": "admin",
      "outputs": [
        {
          "internalType": "address",
          "name": "admin_",
          "type": "address"
        }
      ],
      "stateMutability": "nonpayable",
      "type": "function"
    },
    {
      "inputs": [
        {
          "internalType": "address",
          "name": "newAdmin",
          "type": "address"
        }
      ],
      "name": "changeAdmin",
      "outputs": [],
      "stateMutability": "nonpayable",
      "type": "function"
    },
    {
      "inputs": [],
      "name": "freeze",
      "outputs": [],
      "stateMutability": "nonpayable",
      "type": "function"
    },
    {
      "inputs": [],
      "name": "implementation",
      "outputs": [
        {
          "internalType": "address",
          "name": "implementation_",
          "type": "address"
        }
      ],
      "stateMutability": "nonpayable",
      "type": "function"
    },
    {
      "inputs": [
        {
          "internalType": "address",
          "name": "newImplementation",
          "type": "address"
        }
      ],
      "name": "upgradeTo",
      "outputs": [],
      "stateMutability": "nonpayable",
      "type": "function"
    },
    {
      "inputs": [
        {
          "internalType": "address",
          "name": "newImplementation",
          "type": "address"
        },
        {
          "internalType": "bytes",
          "name": "data",
          "type": "bytes"
        }
      ],
      "name": "upgradeToAndCall",
      "outputs": [],
      "stateMutability": "payable",
      "type": "function"
    },
    {
      "stateMutability": "payable",
      "type": "receive"
    }
  ],
  "bytecode": {
    "object": "0x608060405260405162000f1138038062000f1183398101604081905262000026916200049d565b8282828281620000398282600062000053565b506200004790508262000090565b505050505050620005d0565b6200005e83620000eb565b6000825111806200006c5750805b156200008b576200008983836200012d60201b620002e81760201c565b505b505050565b7f7e644d79422f17c01e4894b5f4f588d331ebfa28653d42ae832dc59e38c9798f620000bb6200015c565b604080516001600160a01b03928316815291841660208301520160405180910390a1620000e88162000195565b50565b620000f6816200024a565b6040516001600160a01b038216907fbc7cd75a20ee27fd9adebab32041f755214dbc6bffa90cc0225b39da2e5c2d3b90600090a250565b606062000155838360405180606001604052806027815260200162000eea60279139620002fe565b9392505050565b60006200018660008051602062000eca83398151915260001b6200037d60201b6200020a1760201c565b546001600160a01b0316919050565b6001600160a01b038116620002005760405162461bcd60e51b815260206004820152602660248201527f455243313936373a206e65772061646d696e20697320746865207a65726f206160448201526564647265737360d01b60648201526084015b60405180910390fd5b806200022960008051602062000eca83398151915260001b6200037d60201b6200020a1760201c565b80546001600160a01b0319166001600160a01b039290921691909117905550565b62000260816200038060201b620003141760201c565b620002c45760405162461bcd60e51b815260206004820152602d60248201527f455243313936373a206e657720696d706c656d656e746174696f6e206973206e60448201526c1bdd08184818dbdb9d1c9858dd609a1b6064820152608401620001f7565b80620002297f360894a13ba1a3210667c828492db98dca3e2076cc3735a920a3ca505d382bbc60001b6200037d60201b6200020a1760201c565b6060600080856001600160a01b0316856040516200031d91906200057d565b600060405180830381855af49150503d80600081146200035a576040519150601f19603f3d011682016040523d82523d6000602084013e6200035f565b606091505b50909250905062000373868383876200038f565b9695505050505050565b90565b6001600160a01b03163b151590565b6060831562000403578251600003620003fb576001600160a01b0385163b620003fb5760405162461bcd60e51b815260206004820152601d60248201527f416464726573733a2063616c6c20746f206e6f6e2d636f6e74726163740000006044820152606401620001f7565b50816200040f565b6200040f838362000417565b949350505050565b815115620004285781518083602001fd5b8060405162461bcd60e51b8152600401620001f791906200059b565b80516001600160a01b03811681146200045c57600080fd5b919050565b634e487b7160e01b600052604160045260246000fd5b60005b83811015620004945781810151838201526020016200047a565b50506000910152565b600080600060608486031215620004b357600080fd5b620004be8462000444565b9250620004ce6020850162000444565b60408501519092506001600160401b0380821115620004ec57600080fd5b818601915086601f8301126200050157600080fd5b81518181111562000516576200051662000461565b604051601f8201601f19908116603f0116810190838211818310171562000541576200054162000461565b816040528281528960208487010111156200055b57600080fd5b6200056e83602083016020880162000477565b80955050505050509250925092565b600082516200059181846020870162000477565b9190910192915050565b6020815260008251806020840152620005bc81604085016020870162000477565b601f01601f19169190910160400192915050565b6108ea80620005e06000396000f3fe6080604052600436106100595760003560e01c80633659cfe6146100705780634f1ef286146100905780635c60da1b146100a357806362a5af3b146100d45780638f283970146100e9578063f851a4401461010957610068565b366100685761006661011e565b005b61006661011e565b34801561007c57600080fd5b5061006661008b36600461077c565b610138565b61006661009e366004610797565b610175565b3480156100af57600080fd5b506100b86101dc565b6040516001600160a01b03909116815260200160405180910390f35b3480156100e057600080fd5b5061006661020d565b3480156100f557600080fd5b5061006661010436600461077c565b6102a7565b34801561011557600080fd5b506100b86102c7565b610126610323565b6101366101316103b8565b6103c2565b565b6101406103e6565b6001600160a01b0316330361016d5761016a81604051806020016040528060008152506000610419565b50565b61016a61011e565b61017d6103e6565b6001600160a01b031633036101d4576101cf8383838080601f01602080910402602001604051908101604052809392919081815260200183838082843760009201919091525060019250610419915050565b505050565b6101cf61011e565b60006101e66103e6565b6001600160a01b03163303610202576101fd6103b8565b905090565b61020a61011e565b90565b6102156103e6565b6001600160a01b0316330361029f577f7e644d79422f17c01e4894b5f4f588d331ebfa28653d42ae832dc59e38c9798f61024d6103e6565b604080516001600160a01b039092168252600060208301520160405180910390a17fb53127684a568b3173ae13b9f8a6016e243e63b6e8ee1178d6a717850b5d610380546001600160a01b0319169055565b61013661011e565b6102af6103e6565b6001600160a01b0316330361016d5761016a81610444565b60006102d16103e6565b6001600160a01b03163303610202576101fd6103e6565b606061030d838360405180606001604052806027815260200161088e60279139610498565b9392505050565b6001600160a01b03163b151590565b61032b6103e6565b6001600160a01b031633036101365760405162461bcd60e51b815260206004820152604260248201527f5472616e73706172656e745570677261646561626c6550726f78793a2061646d60448201527f696e2063616e6e6f742066616c6c6261636b20746f2070726f78792074617267606482015261195d60f21b608482015260a4015b60405180910390fd5b60006101fd610510565b3660008037600080366000845af43d6000803e8080156103e1573d6000f35b3d6000fd5b60007fb53127684a568b3173ae13b9f8a6016e243e63b6e8ee1178d6a717850b5d61035b546001600160a01b0316919050565b61042283610538565b60008251118061042f5750805b156101cf5761043e83836102e8565b50505050565b7f7e644d79422f17c01e4894b5f4f588d331ebfa28653d42ae832dc59e38c9798f61046d6103e6565b604080516001600160a01b03928316815291841660208301520160405180910390a161016a81610578565b6060600080856001600160a01b0316856040516104b5919061083e565b600060405180830381855af49150503d80600081146104f0576040519150601f19603f3d011682016040523d82523d6000602084013e6104f5565b606091505b509150915061050686838387610621565b9695505050505050565b60007f360894a13ba1a3210667c828492db98dca3e2076cc3735a920a3ca505d382bbc61040a565b610541816106a2565b6040516001600160a01b038216907fbc7cd75a20ee27fd9adebab32041f755214dbc6bffa90cc0225b39da2e5c2d3b90600090a250565b6001600160a01b0381166105dd5760405162461bcd60e51b815260206004820152602660248201527f455243313936373a206e65772061646d696e20697320746865207a65726f206160448201526564647265737360d01b60648201526084016103af565b807fb53127684a568b3173ae13b9f8a6016e243e63b6e8ee1178d6a717850b5d61035b80546001600160a01b0319166001600160a01b039290921691909117905550565b60608315610690578251600003610689576001600160a01b0385163b6106895760405162461bcd60e51b815260206004820152601d60248201527f416464726573733a2063616c6c20746f206e6f6e2d636f6e747261637400000060448201526064016103af565b508161069a565b61069a8383610736565b949350505050565b6001600160a01b0381163b61070f5760405162461bcd60e51b815260206004820152602d60248201527f455243313936373a206e657720696d706c656d656e746174696f6e206973206e60448201526c1bdd08184818dbdb9d1c9858dd609a1b60648201526084016103af565b807f360894a13ba1a3210667c828492db98dca3e2076cc3735a920a3ca505d382bbc610600565b8151156107465781518083602001fd5b8060405162461bcd60e51b81526004016103af919061085a565b80356001600160a01b038116811461077757600080fd5b919050565b60006020828403121561078e57600080fd5b61030d82610760565b6000806000604084860312156107ac57600080fd5b6107b584610760565b9250602084013567ffffffffffffffff808211156107d257600080fd5b818601915086601f8301126107e657600080fd5b8135818111156107f557600080fd5b87602082850101111561080757600080fd5b6020830194508093505050509250925092565b60005b8381101561083557818101518382015260200161081d565b50506000910152565b6000825161085081846020870161081a565b9190910192915050565b602081526000825180602084015261087981604085016020870161081a565b601f01601f1916919091016040019291505056fe416464726573733a206c6f772d6c6576656c2064656c65676174652063616c6c206661696c6564a264697066735822122032dc8eabc0f0b72e70a3da3cf089be815949861d39854d645b85a2ce312e269764736f6c63430008110033b53127684a568b3173ae13b9f8a6016e243e63b6e8ee1178d6a717850b5d6103416464726573733a206c6f772d6c6576656c2064656c65676174652063616c6c206661696c6564",
    "linkReferences": {}
  },
  "methodIdentifiers": {
    "admin()": "f851a440",
    "changeAdmin(address)": "8f283970",
    "freeze()": "62a5af3b",
    "implementation()": "5c60da1b",
    "upgradeTo(address)": "3659cfe6",
    "upgradeToAndCall(address,bytes)": "4f1ef286"
  },
  "id": 1
}